{
	"data": {
		"bytecode": {
			"linkReferences": {},
			"object": "608060405234801561001057600080fd5b506111db806100206000396000f3fe60806040526004361061009c5760003560e01c8063801bfd1111610064578063801bfd111461019a57806387f51eae146101c55780639535375c146101f0578063d6d681771461021b578063ebe41b731461025d578063f861f58c146102795761009c565b806305e1bd8c146100a157806313fcaf54146100de5780631ee8866c1461011b5780632e1a7d4d146101465780634fe820731461016f575b600080fd5b3480156100ad57600080fd5b506100c860048036038101906100c39190610a14565b6102a4565b6040516100d59190610a76565b60405180910390f35b3480156100ea57600080fd5b5061010560048036038101906101009190610aef565b6102d6565b6040516101129190610a76565b60405180910390f35b34801561012757600080fd5b50610130610321565b60405161013d9190610a76565b60405180910390f35b34801561015257600080fd5b5061016d60048036038101906101689190610b1c565b610327565b005b34801561017b57600080fd5b50610184610619565b6040516101919190610a76565b60405180910390f35b3480156101a657600080fd5b506101af610620565b6040516101bc9190610a76565b60405180910390f35b3480156101d157600080fd5b506101da610627565b6040516101e79190610a76565b60405180910390f35b3480156101fc57600080fd5b5061020561062d565b6040516102129190610a76565b60405180910390f35b34801561022757600080fd5b50610242600480360381019061023d9190610b49565b610633565b60405161025496959493929190610c1b565b60405180910390f35b61027760048036038101906102729190610cb5565b6106a6565b005b34801561028557600080fd5b5061028e6109d1565b60405161029b9190610a76565b60405180910390f35b600064496cebb8008284866102b99190610d11565b6102c39190610d11565b6102cd9190610d82565b90509392505050565b60008060008373ffffffffffffffffffffffffffffffffffffffff1673ffffffffffffffffffffffffffffffffffffffff168152602001908152602001600020805490509050919050565b6101f481565b6000803373ffffffffffffffffffffffffffffffffffffffff1673ffffffffffffffffffffffffffffffffffffffff1681526020019081526020016000208054905081106103aa576040517f08c379a00000000000000000000000000000000000000000000000000000000081526004016103a190610e10565b60405180910390fd5b60008060003373ffffffffffffffffffffffffffffffffffffffff1673ffffffffffffffffffffffffffffffffffffffff16815260200190815260200160002082815481106103fc576103fb610e30565b5b906000526020600020906005020190508060040160009054906101000a900460ff161561045e576040517f08c379a000000000000000000000000000000000000000000000000000000000815260040161045590610eab565b60405180910390fd5b806002015481600101546104729190610ecb565b4210156104b4576040517f08c379a00000000000000000000000000000000000000000000000000000000081526004016104ab90610f4b565b60405180910390fd5b60008160010154426104c69190610f6b565b905060006104dd83600001548460030154846102a4565b905060008184600001546104f19190610ecb565b905060018460040160006101000a81548160ff02191690831515021790555060003373ffffffffffffffffffffffffffffffffffffffff168260405161053690610fd0565b60006040518083038185875af1925050503d8060008114610573576040519150601f19603f3d011682016040523d82523d6000602084013e610578565b606091505b50509050806105bc576040517f08c379a00000000000000000000000000000000000000000000000000000000081526004016105b390611031565b60405180910390fd5b853373ffffffffffffffffffffffffffffffffffffffff167f650fdf669e93aa6c8ff3defe2da9c12b64f1548e5e1e54e803f4c1beb6466c8e876000015486604051610609929190611051565b60405180910390a3505050505050565b6276a70081565b62ed4e0081565b6102bc81565b61012c81565b6000602052816000526040600020818154811061064f57600080fd5b9060005260206000209060050201600091509150508060000154908060010154908060020154908060030154908060040160009054906101000a900460ff16908060040160019054906101000a900460ff16905086565b600034116106e9576040517f08c379a00000000000000000000000000000000000000000000000000000000081526004016106e0906110c6565b60405180910390fd5b60038160ff161061072f576040517f08c379a000000000000000000000000000000000000000000000000000000000815260040161072690611132565b60405180910390fd5b60008160ff16600281111561074757610746610ba4565b5b9050600080600060028111156107605761075f610ba4565b5b83600281111561077357610772610ba4565b5b03610788576276a700915061012c90506107fe565b6001600281111561079c5761079b610ba4565b5b8360028111156107af576107ae610ba4565b5b036107c45762ed4e0091506101f490506107fd565b6002808111156107d7576107d6610ba4565b5b8360028111156107ea576107e9610ba4565b5b036107fc576301e1338091506102bc90505b5b5b6000803373ffffffffffffffffffffffffffffffffffffffff1673ffffffffffffffffffffffffffffffffffffffff1681526020019081526020016000206040518060c0016040528034815260200142815260200184815260200183815260200160001515815260200185600281111561087b5761087a610ba4565b5b81525090806001815401808255809150506001900390600052602060002090600502016000909190919091506000820151816000015560208201518160010155604082015181600201556060820151816003015560808201518160040160006101000a81548160ff02191690831515021790555060a08201518160040160016101000a81548160ff0219169083600281111561091a57610919610ba4565b5b02179055505050600060016000803373ffffffffffffffffffffffffffffffffffffffff1673ffffffffffffffffffffffffffffffffffffffff168152602001908152602001600020805490506109719190610f6b565b9050803373ffffffffffffffffffffffffffffffffffffffff167fe4a05724fa33cfd0c72fa6dfe25125b67847bc6fddcbbcb7d28e28f07eb4ff8586344288886040516109c2959493929190611152565b60405180910390a35050505050565b6301e1338081565b600080fd5b6000819050919050565b6109f1816109de565b81146109fc57600080fd5b50565b600081359050610a0e816109e8565b92915050565b600080600060608486031215610a2d57610a2c6109d9565b5b6000610a3b868287016109ff565b9350506020610a4c868287016109ff565b9250506040610a5d868287016109ff565b9150509250925092565b610a70816109de565b82525050565b6000602082019050610a8b6000830184610a67565b92915050565b600073ffffffffffffffffffffffffffffffffffffffff82169050919050565b6000610abc82610a91565b9050919050565b610acc81610ab1565b8114610ad757600080fd5b50565b600081359050610ae981610ac3565b92915050565b600060208284031215610b0557610b046109d9565b5b6000610b1384828501610ada565b91505092915050565b600060208284031215610b3257610b316109d9565b5b6000610b40848285016109ff565b91505092915050565b60008060408385031215610b6057610b5f6109d9565b5b6000610b6e85828601610ada565b9250506020610b7f858286016109ff565b9150509250929050565b60008115159050919050565b610b9e81610b89565b82525050565b7f4e487b7100000000000000000000000000000000000000000000000000000000600052602160045260246000fd5b60038110610be457610be3610ba4565b5b50565b6000819050610bf582610bd3565b919050565b6000610c0582610be7565b9050919050565b610c1581610bfa565b82525050565b600060c082019050610c306000830189610a67565b610c3d6020830188610a67565b610c4a6040830187610a67565b610c576060830186610a67565b610c646080830185610b95565b610c7160a0830184610c0c565b979650505050505050565b600060ff82169050919050565b610c9281610c7c565b8114610c9d57600080fd5b50565b600081359050610caf81610c89565b92915050565b600060208284031215610ccb57610cca6109d9565b5b6000610cd984828501610ca0565b91505092915050565b7f4e487b7100000000000000000000000000000000000000000000000000000000600052601160045260246000fd5b6000610d1c826109de565b9150610d27836109de565b9250828202610d35816109de565b91508282048414831517610d4c57610d4b610ce2565b5b5092915050565b7f4e487b7100000000000000000000000000000000000000000000000000000000600052601260045260246000fd5b6000610d8d826109de565b9150610d98836109de565b925082610da857610da7610d53565b5b828204905092915050565b600082825260208201905092915050565b7f496e76616c6964206465706f73697420696e6465780000000000000000000000600082015250565b6000610dfa601583610db3565b9150610e0582610dc4565b602082019050919050565b60006020820190508181036000830152610e2981610ded565b9050919050565b7f4e487b7100000000000000000000000000000000000000000000000000000000600052603260045260246000fd5b7f4465706f73697420616c72656164792077697468647261776e00000000000000600082015250565b6000610e95601983610db3565b9150610ea082610e5f565b602082019050919050565b60006020820190508181036000830152610ec481610e88565b9050919050565b6000610ed6826109de565b9150610ee1836109de565b9250828201905080821115610ef957610ef8610ce2565b5b92915050565b7f4465706f736974206e6f74206d61747572656400000000000000000000000000600082015250565b6000610f35601383610db3565b9150610f4082610eff565b602082019050919050565b60006020820190508181036000830152610f6481610f28565b9050919050565b6000610f76826109de565b9150610f81836109de565b9250828203905081811115610f9957610f98610ce2565b5b92915050565b600081905092915050565b50565b6000610fba600083610f9f565b9150610fc582610faa565b600082019050919050565b6000610fdb82610fad565b9150819050919050565b7f5769746864726177616c206661696c6564000000000000000000000000000000600082015250565b600061101b601183610db3565b915061102682610fe5565b602082019050919050565b6000602082019050818103600083015261104a8161100e565b9050919050565b60006040820190506110666000830185610a67565b6110736020830184610a67565b9392505050565b7f4465706f736974206d757374206265203e203020457468657200000000000000600082015250565b60006110b0601983610db3565b91506110bb8261107a565b602082019050919050565b600060208201905081810360008301526110df816110a3565b9050919050565b7f496e76616c696420434420747970650000000000000000000000000000000000600082015250565b600061111c600f83610db3565b9150611127826110e6565b602082019050919050565b6000602082019050818103600083015261114b8161110f565b9050919050565b600060a0820190506111676000830188610c0c565b6111746020830187610a67565b6111816040830186610a67565b61118e6060830185610a67565b61119b6080830184610a67565b969550505050505056fea2646970667358221220b4b04069be4676b98e34f906dcbe2abb9e4a6ba02388e4c77a1dc5399875dac764736f6c63430008130033",
			"opcodes": "PUSH1 0x80 PUSH1 0x40 MSTORE CALLVALUE DUP1 ISZERO PUSH2 0x10 JUMPI PUSH1 0x0 DUP1 REVERT JUMPDEST POP PUSH2 0x11DB DUP1 PUSH2 0x20 PUSH1 0x0 CODECOPY PUSH1 0x0 RETURN INVALID PUSH1 0x80 PUSH1 0x40 MSTORE PUSH1 0x4 CALLDATASIZE LT PUSH2 0x9C JUMPI PUSH1 0x0 CALLDATALOAD PUSH1 0xE0 SHR DUP1 PUSH4 0x801BFD11 GT PUSH2 0x64 JUMPI DUP1 PUSH4 0x801BFD11 EQ PUSH2 0x19A JUMPI DUP1 PUSH4 0x87F51EAE EQ PUSH2 0x1C5 JUMPI DUP1 PUSH4 0x9535375C EQ PUSH2 0x1F0 JUMPI DUP1 PUSH4 0xD6D68177 EQ PUSH2 0x21B JUMPI DUP1 PUSH4 0xEBE41B73 EQ PUSH2 0x25D JUMPI DUP1 PUSH4 0xF861F58C EQ PUSH2 0x279 JUMPI PUSH2 0x9C JUMP JUMPDEST DUP1 PUSH4 0x5E1BD8C EQ PUSH2 0xA1 JUMPI DUP1 PUSH4 0x13FCAF54 EQ PUSH2 0xDE JUMPI DUP1 PUSH4 0x1EE8866C EQ PUSH2 0x11B JUMPI DUP1 PUSH4 0x2E1A7D4D EQ PUSH2 0x146 JUMPI DUP1 PUSH4 0x4FE82073 EQ PUSH2 0x16F JUMPI JUMPDEST PUSH1 0x0 DUP1 REVERT JUMPDEST CALLVALUE DUP1 ISZERO PUSH2 0xAD JUMPI PUSH1 0x0 DUP1 REVERT JUMPDEST POP PUSH2 0xC8 PUSH1 0x4 DUP1 CALLDATASIZE SUB DUP2 ADD SWAP1 PUSH2 0xC3 SWAP2 SWAP1 PUSH2 0xA14 JUMP JUMPDEST PUSH2 0x2A4 JUMP JUMPDEST PUSH1 0x40 MLOAD PUSH2 0xD5 SWAP2 SWAP1 PUSH2 0xA76 JUMP JUMPDEST PUSH1 0x40 MLOAD DUP1 SWAP2 SUB SWAP1 RETURN JUMPDEST CALLVALUE DUP1 ISZERO PUSH2 0xEA JUMPI PUSH1 0x0 DUP1 REVERT JUMPDEST POP PUSH2 0x105 PUSH1 0x4 DUP1 CALLDATASIZE SUB DUP2 ADD SWAP1 PUSH2 0x100 SWAP2 SWAP1 PUSH2 0xAEF JUMP JUMPDEST PUSH2 0x2D6 JUMP JUMPDEST PUSH1 0x40 MLOAD PUSH2 0x112 SWAP2 SWAP1 PUSH2 0xA76 JUMP JUMPDEST PUSH1 0x40 MLOAD DUP1 SWAP2 SUB SWAP1 RETURN JUMPDEST CALLVALUE DUP1 ISZERO PUSH2 0x127 JUMPI PUSH1 0x0 DUP1 REVERT JUMPDEST POP PUSH2 0x130 PUSH2 0x321 JUMP JUMPDEST PUSH1 0x40 MLOAD PUSH2 0x13D SWAP2 SWAP1 PUSH2 0xA76 JUMP JUMPDEST PUSH1 0x40 MLOAD DUP1 SWAP2 SUB SWAP1 RETURN JUMPDEST CALLVALUE DUP1 ISZERO PUSH2 0x152 JUMPI PUSH1 0x0 DUP1 REVERT JUMPDEST POP PUSH2 0x16D PUSH1 0x4 DUP1 CALLDATASIZE SUB DUP2 ADD SWAP1 PUSH2 0x168 SWAP2 SWAP1 PUSH2 0xB1C JUMP JUMPDEST PUSH2 0x327 JUMP JUMPDEST STOP JUMPDEST CALLVALUE DUP1 ISZERO PUSH2 0x17B JUMPI PUSH1 0x0 DUP1 REVERT JUMPDEST POP PUSH2 0x184 PUSH2 0x619 JUMP JUMPDEST PUSH1 0x40 MLOAD PUSH2 0x191 SWAP2 SWAP1 PUSH2 0xA76 JUMP JUMPDEST PUSH1 0x40 MLOAD DUP1 SWAP2 SUB SWAP1 RETURN JUMPDEST CALLVALUE DUP1 ISZERO PUSH2 0x1A6 JUMPI PUSH1 0x0 DUP1 REVERT JUMPDEST POP PUSH2 0x1AF PUSH2 0x620 JUMP JUMPDEST PUSH1 0x40 MLOAD PUSH2 0x1BC SWAP2 SWAP1 PUSH2 0xA76 JUMP JUMPDEST PUSH1 0x40 MLOAD DUP1 SWAP2 SUB SWAP1 RETURN JUMPDEST CALLVALUE DUP1 ISZERO PUSH2 0x1D1 JUMPI PUSH1 0x0 DUP1 REVERT JUMPDEST POP PUSH2 0x1DA PUSH2 0x627 JUMP JUMPDEST PUSH1 0x40 MLOAD PUSH2 0x1E7 SWAP2 SWAP1 PUSH2 0xA76 JUMP JUMPDEST PUSH1 0x40 MLOAD DUP1 SWAP2 SUB SWAP1 RETURN JUMPDEST CALLVALUE DUP1 ISZERO PUSH2 0x1FC JUMPI PUSH1 0x0 DUP1 REVERT JUMPDEST POP PUSH2 0x205 PUSH2 0x62D JUMP JUMPDEST PUSH1 0x40 MLOAD PUSH2 0x212 SWAP2 SWAP1 PUSH2 0xA76 JUMP JUMPDEST PUSH1 0x40 MLOAD DUP1 SWAP2 SUB SWAP1 RETURN JUMPDEST CALLVALUE DUP1 ISZERO PUSH2 0x227 JUMPI PUSH1 0x0 DUP1 REVERT JUMPDEST POP PUSH2 0x242 PUSH1 0x4 DUP1 CALLDATASIZE SUB DUP2 ADD SWAP1 PUSH2 0x23D SWAP2 SWAP1 PUSH2 0xB49 JUMP JUMPDEST PUSH2 0x633 JUMP JUMPDEST PUSH1 0x40 MLOAD PUSH2 0x254 SWAP7 SWAP6 SWAP5 SWAP4 SWAP3 SWAP2 SWAP1 PUSH2 0xC1B JUMP JUMPDEST PUSH1 0x40 MLOAD DUP1 SWAP2 SUB SWAP1 RETURN JUMPDEST PUSH2 0x277 PUSH1 0x4 DUP1 CALLDATASIZE SUB DUP2 ADD SWAP1 PUSH2 0x272 SWAP2 SWAP1 PUSH2 0xCB5 JUMP JUMPDEST PUSH2 0x6A6 JUMP JUMPDEST STOP JUMPDEST CALLVALUE DUP1 ISZERO PUSH2 0x285 JUMPI PUSH1 0x0 DUP1 REVERT JUMPDEST POP PUSH2 0x28E PUSH2 0x9D1 JUMP JUMPDEST PUSH1 0x40 MLOAD PUSH2 0x29B SWAP2 SWAP1 PUSH2 0xA76 JUMP JUMPDEST PUSH1 0x40 MLOAD DUP1 SWAP2 SUB SWAP1 RETURN JUMPDEST PUSH1 0x0 PUSH5 0x496CEBB800 DUP3 DUP5 DUP7 PUSH2 0x2B9 SWAP2 SWAP1 PUSH2 0xD11 JUMP JUMPDEST PUSH2 0x2C3 SWAP2 SWAP1 PUSH2 0xD11 JUMP JUMPDEST PUSH2 0x2CD SWAP2 SWAP1 PUSH2 0xD82 JUMP JUMPDEST SWAP1 POP SWAP4 SWAP3 POP POP POP JUMP JUMPDEST PUSH1 0x0 DUP1 PUSH1 0x0 DUP4 PUSH20 0xFFFFFFFFFFFFFFFFFFFFFFFFFFFFFFFFFFFFFFFF AND PUSH20 0xFFFFFFFFFFFFFFFFFFFFFFFFFFFFFFFFFFFFFFFF AND DUP2 MSTORE PUSH1 0x20 ADD SWAP1 DUP2 MSTORE PUSH1 0x20 ADD PUSH1 0x0 KECCAK256 DUP1 SLOAD SWAP1 POP SWAP1 POP SWAP2 SWAP1 POP JUMP JUMPDEST PUSH2 0x1F4 DUP2 JUMP JUMPDEST PUSH1 0x0 DUP1 CALLER PUSH20 0xFFFFFFFFFFFFFFFFFFFFFFFFFFFFFFFFFFFFFFFF AND PUSH20 0xFFFFFFFFFFFFFFFFFFFFFFFFFFFFFFFFFFFFFFFF AND DUP2 MSTORE PUSH1 0x20 ADD SWAP1 DUP2 MSTORE PUSH1 0x20 ADD PUSH1 0x0 KECCAK256 DUP1 SLOAD SWAP1 POP DUP2 LT PUSH2 0x3AA JUMPI PUSH1 0x40 MLOAD PUSH32 0x8C379A000000000000000000000000000000000000000000000000000000000 DUP2 MSTORE PUSH1 0x4 ADD PUSH2 0x3A1 SWAP1 PUSH2 0xE10 JUMP JUMPDEST PUSH1 0x40 MLOAD DUP1 SWAP2 SUB SWAP1 REVERT JUMPDEST PUSH1 0x0 DUP1 PUSH1 0x0 CALLER PUSH20 0xFFFFFFFFFFFFFFFFFFFFFFFFFFFFFFFFFFFFFFFF AND PUSH20 0xFFFFFFFFFFFFFFFFFFFFFFFFFFFFFFFFFFFFFFFF AND DUP2 MSTORE PUSH1 0x20 ADD SWAP1 DUP2 MSTORE PUSH1 0x20 ADD PUSH1 0x0 KECCAK256 DUP3 DUP2 SLOAD DUP2 LT PUSH2 0x3FC JUMPI PUSH2 0x3FB PUSH2 0xE30 JUMP JUMPDEST JUMPDEST SWAP1 PUSH1 0x0 MSTORE PUSH1 0x20 PUSH1 0x0 KECCAK256 SWAP1 PUSH1 0x5 MUL ADD SWAP1 POP DUP1 PUSH1 0x4 ADD PUSH1 0x0 SWAP1 SLOAD SWAP1 PUSH2 0x100 EXP SWAP1 DIV PUSH1 0xFF AND ISZERO PUSH2 0x45E JUMPI PUSH1 0x40 MLOAD PUSH32 0x8C379A000000000000000000000000000000000000000000000000000000000 DUP2 MSTORE PUSH1 0x4 ADD PUSH2 0x455 SWAP1 PUSH2 0xEAB JUMP JUMPDEST PUSH1 0x40 MLOAD DUP1 SWAP2 SUB SWAP1 REVERT JUMPDEST DUP1 PUSH1 0x2 ADD SLOAD DUP2 PUSH1 0x1 ADD SLOAD PUSH2 0x472 SWAP2 SWAP1 PUSH2 0xECB JUMP JUMPDEST TIMESTAMP LT ISZERO PUSH2 0x4B4 JUMPI PUSH1 0x40 MLOAD PUSH32 0x8C379A000000000000000000000000000000000000000000000000000000000 DUP2 MSTORE PUSH1 0x4 ADD PUSH2 0x4AB SWAP1 PUSH2 0xF4B JUMP JUMPDEST PUSH1 0x40 MLOAD DUP1 SWAP2 SUB SWAP1 REVERT JUMPDEST PUSH1 0x0 DUP2 PUSH1 0x1 ADD SLOAD TIMESTAMP PUSH2 0x4C6 SWAP2 SWAP1 PUSH2 0xF6B JUMP JUMPDEST SWAP1 POP PUSH1 0x0 PUSH2 0x4DD DUP4 PUSH1 0x0 ADD SLOAD DUP5 PUSH1 0x3 ADD SLOAD DUP5 PUSH2 0x2A4 JUMP JUMPDEST SWAP1 POP PUSH1 0x0 DUP2 DUP5 PUSH1 0x0 ADD SLOAD PUSH2 0x4F1 SWAP2 SWAP1 PUSH2 0xECB JUMP JUMPDEST SWAP1 POP PUSH1 0x1 DUP5 PUSH1 0x4 ADD PUSH1 0x0 PUSH2 0x100 EXP DUP2 SLOAD DUP2 PUSH1 0xFF MUL NOT AND SWAP1 DUP4 ISZERO ISZERO MUL OR SWAP1 SSTORE POP PUSH1 0x0 CALLER PUSH20 0xFFFFFFFFFFFFFFFFFFFFFFFFFFFFFFFFFFFFFFFF AND DUP3 PUSH1 0x40 MLOAD PUSH2 0x536 SWAP1 PUSH2 0xFD0 JUMP JUMPDEST PUSH1 0x0 PUSH1 0x40 MLOAD DUP1 DUP4 SUB DUP2 DUP6 DUP8 GAS CALL SWAP3 POP POP POP RETURNDATASIZE DUP1 PUSH1 0x0 DUP2 EQ PUSH2 0x573 JUMPI PUSH1 0x40 MLOAD SWAP2 POP PUSH1 0x1F NOT PUSH1 0x3F RETURNDATASIZE ADD AND DUP3 ADD PUSH1 0x40 MSTORE RETURNDATASIZE DUP3 MSTORE RETURNDATASIZE PUSH1 0x0 PUSH1 0x20 DUP5 ADD RETURNDATACOPY PUSH2 0x578 JUMP JUMPDEST PUSH1 0x60 SWAP2 POP JUMPDEST POP POP SWAP1 POP DUP1 PUSH2 0x5BC JUMPI PUSH1 0x40 MLOAD PUSH32 0x8C379A000000000000000000000000000000000000000000000000000000000 DUP2 MSTORE PUSH1 0x4 ADD PUSH2 0x5B3 SWAP1 PUSH2 0x1031 JUMP JUMPDEST PUSH1 0x40 MLOAD DUP1 SWAP2 SUB SWAP1 REVERT JUMPDEST DUP6 CALLER PUSH20 0xFFFFFFFFFFFFFFFFFFFFFFFFFFFFFFFFFFFFFFFF AND PUSH32 0x650FDF669E93AA6C8FF3DEFE2DA9C12B64F1548E5E1E54E803F4C1BEB6466C8E DUP8 PUSH1 0x0 ADD SLOAD DUP7 PUSH1 0x40 MLOAD PUSH2 0x609 SWAP3 SWAP2 SWAP1 PUSH2 0x1051 JUMP JUMPDEST PUSH1 0x40 MLOAD DUP1 SWAP2 SUB SWAP1 LOG3 POP POP POP POP POP POP JUMP JUMPDEST PUSH3 0x76A700 DUP2 JUMP JUMPDEST PUSH3 0xED4E00 DUP2 JUMP JUMPDEST PUSH2 0x2BC DUP2 JUMP JUMPDEST PUSH2 0x12C DUP2 JUMP JUMPDEST PUSH1 0x0 PUSH1 0x20 MSTORE DUP2 PUSH1 0x0 MSTORE PUSH1 0x40 PUSH1 0x0 KECCAK256 DUP2 DUP2 SLOAD DUP2 LT PUSH2 0x64F JUMPI PUSH1 0x0 DUP1 REVERT JUMPDEST SWAP1 PUSH1 0x0 MSTORE PUSH1 0x20 PUSH1 0x0 KECCAK256 SWAP1 PUSH1 0x5 MUL ADD PUSH1 0x0 SWAP2 POP SWAP2 POP POP DUP1 PUSH1 0x0 ADD SLOAD SWAP1 DUP1 PUSH1 0x1 ADD SLOAD SWAP1 DUP1 PUSH1 0x2 ADD SLOAD SWAP1 DUP1 PUSH1 0x3 ADD SLOAD SWAP1 DUP1 PUSH1 0x4 ADD PUSH1 0x0 SWAP1 SLOAD SWAP1 PUSH2 0x100 EXP SWAP1 DIV PUSH1 0xFF AND SWAP1 DUP1 PUSH1 0x4 ADD PUSH1 0x1 SWAP1 SLOAD SWAP1 PUSH2 0x100 EXP SWAP1 DIV PUSH1 0xFF AND SWAP1 POP DUP7 JUMP JUMPDEST PUSH1 0x0 CALLVALUE GT PUSH2 0x6E9 JUMPI PUSH1 0x40 MLOAD PUSH32 0x8C379A000000000000000000000000000000000000000000000000000000000 DUP2 MSTORE PUSH1 0x4 ADD PUSH2 0x6E0 SWAP1 PUSH2 0x10C6 JUMP JUMPDEST PUSH1 0x40 MLOAD DUP1 SWAP2 SUB SWAP1 REVERT JUMPDEST PUSH1 0x3 DUP2 PUSH1 0xFF AND LT PUSH2 0x72F JUMPI PUSH1 0x40 MLOAD PUSH32 0x8C379A000000000000000000000000000000000000000000000000000000000 DUP2 MSTORE PUSH1 0x4 ADD PUSH2 0x726 SWAP1 PUSH2 0x1132 JUMP JUMPDEST PUSH1 0x40 MLOAD DUP1 SWAP2 SUB SWAP1 REVERT JUMPDEST PUSH1 0x0 DUP2 PUSH1 0xFF AND PUSH1 0x2 DUP2 GT ISZERO PUSH2 0x747 JUMPI PUSH2 0x746 PUSH2 0xBA4 JUMP JUMPDEST JUMPDEST SWAP1 POP PUSH1 0x0 DUP1 PUSH1 0x0 PUSH1 0x2 DUP2 GT ISZERO PUSH2 0x760 JUMPI PUSH2 0x75F PUSH2 0xBA4 JUMP JUMPDEST JUMPDEST DUP4 PUSH1 0x2 DUP2 GT ISZERO PUSH2 0x773 JUMPI PUSH2 0x772 PUSH2 0xBA4 JUMP JUMPDEST JUMPDEST SUB PUSH2 0x788 JUMPI PUSH3 0x76A700 SWAP2 POP PUSH2 0x12C SWAP1 POP PUSH2 0x7FE JUMP JUMPDEST PUSH1 0x1 PUSH1 0x2 DUP2 GT ISZERO PUSH2 0x79C JUMPI PUSH2 0x79B PUSH2 0xBA4 JUMP JUMPDEST JUMPDEST DUP4 PUSH1 0x2 DUP2 GT ISZERO PUSH2 0x7AF JUMPI PUSH2 0x7AE PUSH2 0xBA4 JUMP JUMPDEST JUMPDEST SUB PUSH2 0x7C4 JUMPI PUSH3 0xED4E00 SWAP2 POP PUSH2 0x1F4 SWAP1 POP PUSH2 0x7FD JUMP JUMPDEST PUSH1 0x2 DUP1 DUP2 GT ISZERO PUSH2 0x7D7 JUMPI PUSH2 0x7D6 PUSH2 0xBA4 JUMP JUMPDEST JUMPDEST DUP4 PUSH1 0x2 DUP2 GT ISZERO PUSH2 0x7EA JUMPI PUSH2 0x7E9 PUSH2 0xBA4 JUMP JUMPDEST JUMPDEST SUB PUSH2 0x7FC JUMPI PUSH4 0x1E13380 SWAP2 POP PUSH2 0x2BC SWAP1 POP JUMPDEST JUMPDEST JUMPDEST PUSH1 0x0 DUP1 CALLER PUSH20 0xFFFFFFFFFFFFFFFFFFFFFFFFFFFFFFFFFFFFFFFF AND PUSH20 0xFFFFFFFFFFFFFFFFFFFFFFFFFFFFFFFFFFFFFFFF AND DUP2 MSTORE PUSH1 0x20 ADD SWAP1 DUP2 MSTORE PUSH1 0x20 ADD PUSH1 0x0 KECCAK256 PUSH1 0x40 MLOAD DUP1 PUSH1 0xC0 ADD PUSH1 0x40 MSTORE DUP1 CALLVALUE DUP2 MSTORE PUSH1 0x20 ADD TIMESTAMP DUP2 MSTORE PUSH1 0x20 ADD DUP5 DUP2 MSTORE PUSH1 0x20 ADD DUP4 DUP2 MSTORE PUSH1 0x20 ADD PUSH1 0x0 ISZERO ISZERO DUP2 MSTORE PUSH1 0x20 ADD DUP6 PUSH1 0x2 DUP2 GT ISZERO PUSH2 0x87B JUMPI PUSH2 0x87A PUSH2 0xBA4 JUMP JUMPDEST JUMPDEST DUP2 MSTORE POP SWAP1 DUP1 PUSH1 0x1 DUP2 SLOAD ADD DUP1 DUP3 SSTORE DUP1 SWAP2 POP POP PUSH1 0x1 SWAP1 SUB SWAP1 PUSH1 0x0 MSTORE PUSH1 0x20 PUSH1 0x0 KECCAK256 SWAP1 PUSH1 0x5 MUL ADD PUSH1 0x0 SWAP1 SWAP2 SWAP1 SWAP2 SWAP1 SWAP2 POP PUSH1 0x0 DUP3 ADD MLOAD DUP2 PUSH1 0x0 ADD SSTORE PUSH1 0x20 DUP3 ADD MLOAD DUP2 PUSH1 0x1 ADD SSTORE PUSH1 0x40 DUP3 ADD MLOAD DUP2 PUSH1 0x2 ADD SSTORE PUSH1 0x60 DUP3 ADD MLOAD DUP2 PUSH1 0x3 ADD SSTORE PUSH1 0x80 DUP3 ADD MLOAD DUP2 PUSH1 0x4 ADD PUSH1 0x0 PUSH2 0x100 EXP DUP2 SLOAD DUP2 PUSH1 0xFF MUL NOT AND SWAP1 DUP4 ISZERO ISZERO MUL OR SWAP1 SSTORE POP PUSH1 0xA0 DUP3 ADD MLOAD DUP2 PUSH1 0x4 ADD PUSH1 0x1 PUSH2 0x100 EXP DUP2 SLOAD DUP2 PUSH1 0xFF MUL NOT AND SWAP1 DUP4 PUSH1 0x2 DUP2 GT ISZERO PUSH2 0x91A JUMPI PUSH2 0x919 PUSH2 0xBA4 JUMP JUMPDEST JUMPDEST MUL OR SWAP1 SSTORE POP POP POP PUSH1 0x0 PUSH1 0x1 PUSH1 0x0 DUP1 CALLER PUSH20 0xFFFFFFFFFFFFFFFFFFFFFFFFFFFFFFFFFFFFFFFF AND PUSH20 0xFFFFFFFFFFFFFFFFFFFFFFFFFFFFFFFFFFFFFFFF AND DUP2 MSTORE PUSH1 0x20 ADD SWAP1 DUP2 MSTORE PUSH1 0x20 ADD PUSH1 0x0 KECCAK256 DUP1 SLOAD SWAP1 POP PUSH2 0x971 SWAP2 SWAP1 PUSH2 0xF6B JUMP JUMPDEST SWAP1 POP DUP1 CALLER PUSH20 0xFFFFFFFFFFFFFFFFFFFFFFFFFFFFFFFFFFFFFFFF AND PUSH32 0xE4A05724FA33CFD0C72FA6DFE25125B67847BC6FDDCBBCB7D28E28F07EB4FF85 DUP7 CALLVALUE TIMESTAMP DUP9 DUP9 PUSH1 0x40 MLOAD PUSH2 0x9C2 SWAP6 SWAP5 SWAP4 SWAP3 SWAP2 SWAP1 PUSH2 0x1152 JUMP JUMPDEST PUSH1 0x40 MLOAD DUP1 SWAP2 SUB SWAP1 LOG3 POP POP POP POP POP JUMP JUMPDEST PUSH4 0x1E13380 DUP2 JUMP JUMPDEST PUSH1 0x0 DUP1 REVERT JUMPDEST PUSH1 0x0 DUP2 SWAP1 POP SWAP2 SWAP1 POP JUMP JUMPDEST PUSH2 0x9F1 DUP2 PUSH2 0x9DE JUMP JUMPDEST DUP2 EQ PUSH2 0x9FC JUMPI PUSH1 0x0 DUP1 REVERT JUMPDEST POP JUMP JUMPDEST PUSH1 0x0 DUP2 CALLDATALOAD SWAP1 POP PUSH2 0xA0E DUP2 PUSH2 0x9E8 JUMP JUMPDEST SWAP3 SWAP2 POP POP JUMP JUMPDEST PUSH1 0x0 DUP1 PUSH1 0x0 PUSH1 0x60 DUP5 DUP7 SUB SLT ISZERO PUSH2 0xA2D JUMPI PUSH2 0xA2C PUSH2 0x9D9 JUMP JUMPDEST JUMPDEST PUSH1 0x0 PUSH2 0xA3B DUP7 DUP3 DUP8 ADD PUSH2 0x9FF JUMP JUMPDEST SWAP4 POP POP PUSH1 0x20 PUSH2 0xA4C DUP7 DUP3 DUP8 ADD PUSH2 0x9FF JUMP JUMPDEST SWAP3 POP POP PUSH1 0x40 PUSH2 0xA5D DUP7 DUP3 DUP8 ADD PUSH2 0x9FF JUMP JUMPDEST SWAP2 POP POP SWAP3 POP SWAP3 POP SWAP3 JUMP JUMPDEST PUSH2 0xA70 DUP2 PUSH2 0x9DE JUMP JUMPDEST DUP3 MSTORE POP POP JUMP JUMPDEST PUSH1 0x0 PUSH1 0x20 DUP3 ADD SWAP1 POP PUSH2 0xA8B PUSH1 0x0 DUP4 ADD DUP5 PUSH2 0xA67 JUMP JUMPDEST SWAP3 SWAP2 POP POP JUMP JUMPDEST PUSH1 0x0 PUSH20 0xFFFFFFFFFFFFFFFFFFFFFFFFFFFFFFFFFFFFFFFF DUP3 AND SWAP1 POP SWAP2 SWAP1 POP JUMP JUMPDEST PUSH1 0x0 PUSH2 0xABC DUP3 PUSH2 0xA91 JUMP JUMPDEST SWAP1 POP SWAP2 SWAP1 POP JUMP JUMPDEST PUSH2 0xACC DUP2 PUSH2 0xAB1 JUMP JUMPDEST DUP2 EQ PUSH2 0xAD7 JUMPI PUSH1 0x0 DUP1 REVERT JUMPDEST POP JUMP JUMPDEST PUSH1 0x0 DUP2 CALLDATALOAD SWAP1 POP PUSH2 0xAE9 DUP2 PUSH2 0xAC3 JUMP JUMPDEST SWAP3 SWAP2 POP POP JUMP JUMPDEST PUSH1 0x0 PUSH1 0x20 DUP3 DUP5 SUB SLT ISZERO PUSH2 0xB05 JUMPI PUSH2 0xB04 PUSH2 0x9D9 JUMP JUMPDEST JUMPDEST PUSH1 0x0 PUSH2 0xB13 DUP5 DUP3 DUP6 ADD PUSH2 0xADA JUMP JUMPDEST SWAP2 POP POP SWAP3 SWAP2 POP POP JUMP JUMPDEST PUSH1 0x0 PUSH1 0x20 DUP3 DUP5 SUB SLT ISZERO PUSH2 0xB32 JUMPI PUSH2 0xB31 PUSH2 0x9D9 JUMP JUMPDEST JUMPDEST PUSH1 0x0 PUSH2 0xB40 DUP5 DUP3 DUP6 ADD PUSH2 0x9FF JUMP JUMPDEST SWAP2 POP POP SWAP3 SWAP2 POP POP JUMP JUMPDEST PUSH1 0x0 DUP1 PUSH1 0x40 DUP4 DUP6 SUB SLT ISZERO PUSH2 0xB60 JUMPI PUSH2 0xB5F PUSH2 0x9D9 JUMP JUMPDEST JUMPDEST PUSH1 0x0 PUSH2 0xB6E DUP6 DUP3 DUP7 ADD PUSH2 0xADA JUMP JUMPDEST SWAP3 POP POP PUSH1 0x20 PUSH2 0xB7F DUP6 DUP3 DUP7 ADD PUSH2 0x9FF JUMP JUMPDEST SWAP2 POP POP SWAP3 POP SWAP3 SWAP1 POP JUMP JUMPDEST PUSH1 0x0 DUP2 ISZERO ISZERO SWAP1 POP SWAP2 SWAP1 POP JUMP JUMPDEST PUSH2 0xB9E DUP2 PUSH2 0xB89 JUMP JUMPDEST DUP3 MSTORE POP POP JUMP JUMPDEST PUSH32 0x4E487B7100000000000000000000000000000000000000000000000000000000 PUSH1 0x0 MSTORE PUSH1 0x21 PUSH1 0x4 MSTORE PUSH1 0x24 PUSH1 0x0 REVERT JUMPDEST PUSH1 0x3 DUP2 LT PUSH2 0xBE4 JUMPI PUSH2 0xBE3 PUSH2 0xBA4 JUMP JUMPDEST JUMPDEST POP JUMP JUMPDEST PUSH1 0x0 DUP2 SWAP1 POP PUSH2 0xBF5 DUP3 PUSH2 0xBD3 JUMP JUMPDEST SWAP2 SWAP1 POP JUMP JUMPDEST PUSH1 0x0 PUSH2 0xC05 DUP3 PUSH2 0xBE7 JUMP JUMPDEST SWAP1 POP SWAP2 SWAP1 POP JUMP JUMPDEST PUSH2 0xC15 DUP2 PUSH2 0xBFA JUMP JUMPDEST DUP3 MSTORE POP POP JUMP JUMPDEST PUSH1 0x0 PUSH1 0xC0 DUP3 ADD SWAP1 POP PUSH2 0xC30 PUSH1 0x0 DUP4 ADD DUP10 PUSH2 0xA67 JUMP JUMPDEST PUSH2 0xC3D PUSH1 0x20 DUP4 ADD DUP9 PUSH2 0xA67 JUMP JUMPDEST PUSH2 0xC4A PUSH1 0x40 DUP4 ADD DUP8 PUSH2 0xA67 JUMP JUMPDEST PUSH2 0xC57 PUSH1 0x60 DUP4 ADD DUP7 PUSH2 0xA67 JUMP JUMPDEST PUSH2 0xC64 PUSH1 0x80 DUP4 ADD DUP6 PUSH2 0xB95 JUMP JUMPDEST PUSH2 0xC71 PUSH1 0xA0 DUP4 ADD DUP5 PUSH2 0xC0C JUMP JUMPDEST SWAP8 SWAP7 POP POP POP POP POP POP POP JUMP JUMPDEST PUSH1 0x0 PUSH1 0xFF DUP3 AND SWAP1 POP SWAP2 SWAP1 POP JUMP JUMPDEST PUSH2 0xC92 DUP2 PUSH2 0xC7C JUMP JUMPDEST DUP2 EQ PUSH2 0xC9D JUMPI PUSH1 0x0 DUP1 REVERT JUMPDEST POP JUMP JUMPDEST PUSH1 0x0 DUP2 CALLDATALOAD SWAP1 POP PUSH2 0xCAF DUP2 PUSH2 0xC89 JUMP JUMPDEST SWAP3 SWAP2 POP POP JUMP JUMPDEST PUSH1 0x0 PUSH1 0x20 DUP3 DUP5 SUB SLT ISZERO PUSH2 0xCCB JUMPI PUSH2 0xCCA PUSH2 0x9D9 JUMP JUMPDEST JUMPDEST PUSH1 0x0 PUSH2 0xCD9 DUP5 DUP3 DUP6 ADD PUSH2 0xCA0 JUMP JUMPDEST SWAP2 POP POP SWAP3 SWAP2 POP POP JUMP JUMPDEST PUSH32 0x4E487B7100000000000000000000000000000000000000000000000000000000 PUSH1 0x0 MSTORE PUSH1 0x11 PUSH1 0x4 MSTORE PUSH1 0x24 PUSH1 0x0 REVERT JUMPDEST PUSH1 0x0 PUSH2 0xD1C DUP3 PUSH2 0x9DE JUMP JUMPDEST SWAP2 POP PUSH2 0xD27 DUP4 PUSH2 0x9DE JUMP JUMPDEST SWAP3 POP DUP3 DUP3 MUL PUSH2 0xD35 DUP2 PUSH2 0x9DE JUMP JUMPDEST SWAP2 POP DUP3 DUP3 DIV DUP5 EQ DUP4 ISZERO OR PUSH2 0xD4C JUMPI PUSH2 0xD4B PUSH2 0xCE2 JUMP JUMPDEST JUMPDEST POP SWAP3 SWAP2 POP POP JUMP JUMPDEST PUSH32 0x4E487B7100000000000000000000000000000000000000000000000000000000 PUSH1 0x0 MSTORE PUSH1 0x12 PUSH1 0x4 MSTORE PUSH1 0x24 PUSH1 0x0 REVERT JUMPDEST PUSH1 0x0 PUSH2 0xD8D DUP3 PUSH2 0x9DE JUMP JUMPDEST SWAP2 POP PUSH2 0xD98 DUP4 PUSH2 0x9DE JUMP JUMPDEST SWAP3 POP DUP3 PUSH2 0xDA8 JUMPI PUSH2 0xDA7 PUSH2 0xD53 JUMP JUMPDEST JUMPDEST DUP3 DUP3 DIV SWAP1 POP SWAP3 SWAP2 POP POP JUMP JUMPDEST PUSH1 0x0 DUP3 DUP3 MSTORE PUSH1 0x20 DUP3 ADD SWAP1 POP SWAP3 SWAP2 POP POP JUMP JUMPDEST PUSH32 0x496E76616C6964206465706F73697420696E6465780000000000000000000000 PUSH1 0x0 DUP3 ADD MSTORE POP JUMP JUMPDEST PUSH1 0x0 PUSH2 0xDFA PUSH1 0x15 DUP4 PUSH2 0xDB3 JUMP JUMPDEST SWAP2 POP PUSH2 0xE05 DUP3 PUSH2 0xDC4 JUMP JUMPDEST PUSH1 0x20 DUP3 ADD SWAP1 POP SWAP2 SWAP1 POP JUMP JUMPDEST PUSH1 0x0 PUSH1 0x20 DUP3 ADD SWAP1 POP DUP2 DUP2 SUB PUSH1 0x0 DUP4 ADD MSTORE PUSH2 0xE29 DUP2 PUSH2 0xDED JUMP JUMPDEST SWAP1 POP SWAP2 SWAP1 POP JUMP JUMPDEST PUSH32 0x4E487B7100000000000000000000000000000000000000000000000000000000 PUSH1 0x0 MSTORE PUSH1 0x32 PUSH1 0x4 MSTORE PUSH1 0x24 PUSH1 0x0 REVERT JUMPDEST PUSH32 0x4465706F73697420616C72656164792077697468647261776E00000000000000 PUSH1 0x0 DUP3 ADD MSTORE POP JUMP JUMPDEST PUSH1 0x0 PUSH2 0xE95 PUSH1 0x19 DUP4 PUSH2 0xDB3 JUMP JUMPDEST SWAP2 POP PUSH2 0xEA0 DUP3 PUSH2 0xE5F JUMP JUMPDEST PUSH1 0x20 DUP3 ADD SWAP1 POP SWAP2 SWAP1 POP JUMP JUMPDEST PUSH1 0x0 PUSH1 0x20 DUP3 ADD SWAP1 POP DUP2 DUP2 SUB PUSH1 0x0 DUP4 ADD MSTORE PUSH2 0xEC4 DUP2 PUSH2 0xE88 JUMP JUMPDEST SWAP1 POP SWAP2 SWAP1 POP JUMP JUMPDEST PUSH1 0x0 PUSH2 0xED6 DUP3 PUSH2 0x9DE JUMP JUMPDEST SWAP2 POP PUSH2 0xEE1 DUP4 PUSH2 0x9DE JUMP JUMPDEST SWAP3 POP DUP3 DUP3 ADD SWAP1 POP DUP1 DUP3 GT ISZERO PUSH2 0xEF9 JUMPI PUSH2 0xEF8 PUSH2 0xCE2 JUMP JUMPDEST JUMPDEST SWAP3 SWAP2 POP POP JUMP JUMPDEST PUSH32 0x4465706F736974206E6F74206D61747572656400000000000000000000000000 PUSH1 0x0 DUP3 ADD MSTORE POP JUMP JUMPDEST PUSH1 0x0 PUSH2 0xF35 PUSH1 0x13 DUP4 PUSH2 0xDB3 JUMP JUMPDEST SWAP2 POP PUSH2 0xF40 DUP3 PUSH2 0xEFF JUMP JUMPDEST PUSH1 0x20 DUP3 ADD SWAP1 POP SWAP2 SWAP1 POP JUMP JUMPDEST PUSH1 0x0 PUSH1 0x20 DUP3 ADD SWAP1 POP DUP2 DUP2 SUB PUSH1 0x0 DUP4 ADD MSTORE PUSH2 0xF64 DUP2 PUSH2 0xF28 JUMP JUMPDEST SWAP1 POP SWAP2 SWAP1 POP JUMP JUMPDEST PUSH1 0x0 PUSH2 0xF76 DUP3 PUSH2 0x9DE JUMP JUMPDEST SWAP2 POP PUSH2 0xF81 DUP4 PUSH2 0x9DE JUMP JUMPDEST SWAP3 POP DUP3 DUP3 SUB SWAP1 POP DUP2 DUP2 GT ISZERO PUSH2 0xF99 JUMPI PUSH2 0xF98 PUSH2 0xCE2 JUMP JUMPDEST JUMPDEST SWAP3 SWAP2 POP POP JUMP JUMPDEST PUSH1 0x0 DUP2 SWAP1 POP SWAP3 SWAP2 POP POP JUMP JUMPDEST POP JUMP JUMPDEST PUSH1 0x0 PUSH2 0xFBA PUSH1 0x0 DUP4 PUSH2 0xF9F JUMP JUMPDEST SWAP2 POP PUSH2 0xFC5 DUP3 PUSH2 0xFAA JUMP JUMPDEST PUSH1 0x0 DUP3 ADD SWAP1 POP SWAP2 SWAP1 POP JUMP JUMPDEST PUSH1 0x0 PUSH2 0xFDB DUP3 PUSH2 0xFAD JUMP JUMPDEST SWAP2 POP DUP2 SWAP1 POP SWAP2 SWAP1 POP JUMP JUMPDEST PUSH32 0x5769746864726177616C206661696C6564000000000000000000000000000000 PUSH1 0x0 DUP3 ADD MSTORE POP JUMP JUMPDEST PUSH1 0x0 PUSH2 0x101B PUSH1 0x11 DUP4 PUSH2 0xDB3 JUMP JUMPDEST SWAP2 POP PUSH2 0x1026 DUP3 PUSH2 0xFE5 JUMP JUMPDEST PUSH1 0x20 DUP3 ADD SWAP1 POP SWAP2 SWAP1 POP JUMP JUMPDEST PUSH1 0x0 PUSH1 0x20 DUP3 ADD SWAP1 POP DUP2 DUP2 SUB PUSH1 0x0 DUP4 ADD MSTORE PUSH2 0x104A DUP2 PUSH2 0x100E JUMP JUMPDEST SWAP1 POP SWAP2 SWAP1 POP JUMP JUMPDEST PUSH1 0x0 PUSH1 0x40 DUP3 ADD SWAP1 POP PUSH2 0x1066 PUSH1 0x0 DUP4 ADD DUP6 PUSH2 0xA67 JUMP JUMPDEST PUSH2 0x1073 PUSH1 0x20 DUP4 ADD DUP5 PUSH2 0xA67 JUMP JUMPDEST SWAP4 SWAP3 POP POP POP JUMP JUMPDEST PUSH32 0x4465706F736974206D757374206265203E203020457468657200000000000000 PUSH1 0x0 DUP3 ADD MSTORE POP JUMP JUMPDEST PUSH1 0x0 PUSH2 0x10B0 PUSH1 0x19 DUP4 PUSH2 0xDB3 JUMP JUMPDEST SWAP2 POP PUSH2 0x10BB DUP3 PUSH2 0x107A JUMP JUMPDEST PUSH1 0x20 DUP3 ADD SWAP1 POP SWAP2 SWAP1 POP JUMP JUMPDEST PUSH1 0x0 PUSH1 0x20 DUP3 ADD SWAP1 POP DUP2 DUP2 SUB PUSH1 0x0 DUP4 ADD MSTORE PUSH2 0x10DF DUP2 PUSH2 0x10A3 JUMP JUMPDEST SWAP1 POP SWAP2 SWAP1 POP JUMP JUMPDEST PUSH32 0x496E76616C696420434420747970650000000000000000000000000000000000 PUSH1 0x0 DUP3 ADD MSTORE POP JUMP JUMPDEST PUSH1 0x0 PUSH2 0x111C PUSH1 0xF DUP4 PUSH2 0xDB3 JUMP JUMPDEST SWAP2 POP PUSH2 0x1127 DUP3 PUSH2 0x10E6 JUMP JUMPDEST PUSH1 0x20 DUP3 ADD SWAP1 POP SWAP2 SWAP1 POP JUMP JUMPDEST PUSH1 0x0 PUSH1 0x20 DUP3 ADD SWAP1 POP DUP2 DUP2 SUB PUSH1 0x0 DUP4 ADD MSTORE PUSH2 0x114B DUP2 PUSH2 0x110F JUMP JUMPDEST SWAP1 POP SWAP2 SWAP1 POP JUMP JUMPDEST PUSH1 0x0 PUSH1 0xA0 DUP3 ADD SWAP1 POP PUSH2 0x1167 PUSH1 0x0 DUP4 ADD DUP9 PUSH2 0xC0C JUMP JUMPDEST PUSH2 0x1174 PUSH1 0x20 DUP4 ADD DUP8 PUSH2 0xA67 JUMP JUMPDEST PUSH2 0x1181 PUSH1 0x40 DUP4 ADD DUP7 PUSH2 0xA67 JUMP JUMPDEST PUSH2 0x118E PUSH1 0x60 DUP4 ADD DUP6 PUSH2 0xA67 JUMP JUMPDEST PUSH2 0x119B PUSH1 0x80 DUP4 ADD DUP5 PUSH2 0xA67 JUMP JUMPDEST SWAP7 SWAP6 POP POP POP POP POP POP JUMP INVALID LOG2 PUSH5 0x6970667358 0x22 SLT KECCAK256 0xB4 0xB0 BLOCKHASH PUSH10 0xBE4676B98E34F906DCBE 0x2A 0xBB SWAP15 0x4A PUSH12 0xA02388E4C77A1DC5399875DA 0xC7 PUSH5 0x736F6C6343 STOP ADDMOD SGT STOP CALLER "
		},
		"gasEstimates": {
			"creation": {
				"codeDepositCost": "914200",
				"executionCost": "948",
				"totalCost": "915148"
			},
			"external": {
				"LONG_LOCK()": "439",
				"LONG_RATE()": "351",
				"MEDIUM_LOCK()": "329",
				"MEDIUM_RATE()": "374",
				"SHORT_LOCK()": "418",
				"SHORT_RATE()": "373",
				"calculateInterest(uint256,uint256,uint256)": "infinite",
				"deposit(uint8)": "infinite",
				"deposits(address,uint256)": "infinite",
				"getDepositCount(address)": "2872",
				"withdraw(uint256)": "infinite"
			}
		},
		"methodIdentifiers": {
			"LONG_LOCK()": "f861f58c",
			"LONG_RATE()": "87f51eae",
			"MEDIUM_LOCK()": "801bfd11",
			"MEDIUM_RATE()": "1ee8866c",
			"SHORT_LOCK()": "4fe82073",
			"SHORT_RATE()": "9535375c",
			"calculateInterest(uint256,uint256,uint256)": "05e1bd8c",
			"deposit(uint8)": "ebe41b73",
			"deposits(address,uint256)": "d6d68177",
			"getDepositCount(address)": "13fcaf54",
			"withdraw(uint256)": "2e1a7d4d"
		}
	},
	"abi": [
		{
			"anonymous": false,
			"inputs": [
				{
					"indexed": true,
					"internalType": "address",
					"name": "user",
					"type": "address"
				},
				{
					"indexed": true,
					"internalType": "uint256",
					"name": "depositIndex",
					"type": "uint256"
				},
				{
					"indexed": false,
					"internalType": "enum CertificateOfDeposit.CDType",
					"name": "cdType",
					"type": "uint8"
				},
				{
					"indexed": false,
					"internalType": "uint256",
					"name": "amount",
					"type": "uint256"
				},
				{
					"indexed": false,
					"internalType": "uint256",
					"name": "depositTime",
					"type": "uint256"
				},
				{
					"indexed": false,
					"internalType": "uint256",
					"name": "lockDuration",
					"type": "uint256"
				},
				{
					"indexed": false,
					"internalType": "uint256",
					"name": "interestRate",
					"type": "uint256"
				}
			],
			"name": "DepositMade",
			"type": "event"
		},
		{
			"anonymous": false,
			"inputs": [
				{
					"indexed": true,
					"internalType": "address",
					"name": "user",
					"type": "address"
				},
				{
					"indexed": true,
					"internalType": "uint256",
					"name": "depositIndex",
					"type": "uint256"
				},
				{
					"indexed": false,
					"internalType": "uint256",
					"name": "principal",
					"type": "uint256"
				},
				{
					"indexed": false,
					"internalType": "uint256",
					"name": "interest",
					"type": "uint256"
				}
			],
			"name": "Withdrawal",
			"type": "event"
		},
		{
			"inputs": [],
			"name": "LONG_LOCK",
			"outputs": [
				{
					"internalType": "uint256",
					"name": "",
					"type": "uint256"
				}
			],
			"stateMutability": "view",
			"type": "function"
		},
		{
			"inputs": [],
			"name": "LONG_RATE",
			"outputs": [
				{
					"internalType": "uint256",
					"name": "",
					"type": "uint256"
				}
			],
			"stateMutability": "view",
			"type": "function"
		},
		{
			"inputs": [],
			"name": "MEDIUM_LOCK",
			"outputs": [
				{
					"internalType": "uint256",
					"name": "",
					"type": "uint256"
				}
			],
			"stateMutability": "view",
			"type": "function"
		},
		{
			"inputs": [],
			"name": "MEDIUM_RATE",
			"outputs": [
				{
					"internalType": "uint256",
					"name": "",
					"type": "uint256"
				}
			],
			"stateMutability": "view",
			"type": "function"
		},
		{
			"inputs": [],
			"name": "SHORT_LOCK",
			"outputs": [
				{
					"internalType": "uint256",
					"name": "",
					"type": "uint256"
				}
			],
			"stateMutability": "view",
			"type": "function"
		},
		{
			"inputs": [],
			"name": "SHORT_RATE",
			"outputs": [
				{
					"internalType": "uint256",
					"name": "",
					"type": "uint256"
				}
			],
			"stateMutability": "view",
			"type": "function"
		},
		{
			"inputs": [
				{
					"internalType": "uint256",
					"name": "principal",
					"type": "uint256"
				},
				{
					"internalType": "uint256",
					"name": "interestRate",
					"type": "uint256"
				},
				{
					"internalType": "uint256",
					"name": "duration",
					"type": "uint256"
				}
			],
			"name": "calculateInterest",
			"outputs": [
				{
					"internalType": "uint256",
					"name": "interest",
					"type": "uint256"
				}
			],
			"stateMutability": "pure",
			"type": "function"
		},
		{
			"inputs": [
				{
					"internalType": "uint8",
					"name": "cdTypeValue",
					"type": "uint8"
				}
			],
			"name": "deposit",
			"outputs": [],
			"stateMutability": "payable",
			"type": "function"
		},
		{
			"inputs": [
				{
					"internalType": "address",
					"name": "",
					"type": "address"
				},
				{
					"internalType": "uint256",
					"name": "",
					"type": "uint256"
				}
			],
			"name": "deposits",
			"outputs": [
				{
					"internalType": "uint256",
					"name": "amount",
					"type": "uint256"
				},
				{
					"internalType": "uint256",
					"name": "depositTime",
					"type": "uint256"
				},
				{
					"internalType": "uint256",
					"name": "lockDuration",
					"type": "uint256"
				},
				{
					"internalType": "uint256",
					"name": "interestRate",
					"type": "uint256"
				},
				{
					"internalType": "bool",
					"name": "withdrawn",
					"type": "bool"
				},
				{
					"internalType": "enum CertificateOfDeposit.CDType",
					"name": "cdType",
					"type": "uint8"
				}
			],
			"stateMutability": "view",
			"type": "function"
		},
		{
			"inputs": [
				{
					"internalType": "address",
					"name": "user",
					"type": "address"
				}
			],
			"name": "getDepositCount",
			"outputs": [
				{
					"internalType": "uint256",
					"name": "",
					"type": "uint256"
				}
			],
			"stateMutability": "view",
			"type": "function"
		},
		{
			"inputs": [
				{
					"internalType": "uint256",
					"name": "depositIndex",
					"type": "uint256"
				}
			],
			"name": "withdraw",
			"outputs": [],
			"stateMutability": "nonpayable",
			"type": "function"
		}
	]
}