{
	"data": {
		"bytecode": {
			"linkReferences": {},
			"object": "608060405234801561001057600080fd5b50336000806101000a81548173ffffffffffffffffffffffffffffffffffffffff021916908373ffffffffffffffffffffffffffffffffffffffff16021790555060006001819055506111c7806100686000396000f3fe608060405234801561001057600080fd5b506004361061007d5760003560e01c8063b2c98dd11161005b578063b2c98dd114610102578063b51070d914610132578063eda42c3f14610162578063eefbf17e146101925761007d565b80630d80fefd146100825780638da5cb5b146100b4578063ab9f7dcf146100d2575b600080fd5b61009c60048036038101906100979190610769565b6101b0565b6040516100ab93929190610876565b60405180910390f35b6100bc610282565b6040516100c991906108b4565b60405180910390f35b6100ec60048036038101906100e79190610a04565b6102a6565b6040516100f99190610ab5565b60405180910390f35b61011c60048036038101906101179190610b78565b6103a8565b6040516101299190610bf0565b60405180910390f35b61014c60048036038101906101479190610c12565b6104ef565b6040516101599190610c8a565b60405180910390f35b61017c60048036038101906101779190610769565b61062d565b6040516101899190610bf0565b60405180910390f35b61019a610719565b6040516101a79190610c8a565b60405180910390f35b60026020528060005260406000206000915090508060000180546101d390610cd4565b80601f01602080910402602001604051908101604052809291908181526020018280546101ff90610cd4565b801561024c5780601f106102215761010080835404028352916020019161024c565b820191906000526020600020905b81548152906001019060200180831161022f57829003601f168201915b5050505050908060010154908060020160009054906101000a900473ffffffffffffffffffffffffffffffffffffffff16905083565b60008054906101000a900473ffffffffffffffffffffffffffffffffffffffff1681565b606060015483106102ec576040517f08c379a00000000000000000000000000000000000000000000000000000000081526004016102e390610d51565b60405180910390fd5b6000600260008581526020019081526020016000209050600061039b82600001805461031790610cd4565b80601f016020809104026020016040519081016040528092919081815260200182805461034390610cd4565b80156103905780601f1061036557610100808354040283529160200191610390565b820191906000526020600020905b81548152906001019060200180831161037357829003601f168201915b5050505050856103a8565b9050809250505092915050565b606060008251116103ee576040517f08c379a00000000000000000000000000000000000000000000000000000000081526004016103e590610dbd565b60405180910390fd5b825167ffffffffffffffff811115610409576104086108d9565b5b6040519080825280601f01601f19166020018201604052801561043b5781602001600182028036833780820191505090505b50905060005b83518110156104e857828351826104589190610e0c565b8151811061046957610468610e3d565b5b602001015160f81c60f81b84828151811061048757610486610e3d565b5b602001015160f81c60f81b188282815181106104a6576104a5610e3d565b5b60200101907effffffffffffffffffffffffffffffffffffffffffffffffffffffffffffff1916908160001a90535080806104e090610e9b565b915050610441565b5092915050565b6000808390506000839050600061050683836103a8565b9050600154935060405180606001604052808281526020014281526020013373ffffffffffffffffffffffffffffffffffffffff16815250600260008681526020019081526020016000206000820151816000019081610566919061108f565b506020820151816001015560408201518160020160006101000a81548173ffffffffffffffffffffffffffffffffffffffff021916908373ffffffffffffffffffffffffffffffffffffffff160217905550905050600160008154809291906105ce90610e9b565b91905055503373ffffffffffffffffffffffffffffffffffffffff16847fcf56b4603e69210eebd70535ad5ebee1655cabebe3cd0aa186ee12ce3353facb428460405161061c929190611161565b60405180910390a350505092915050565b60606001548210610673576040517f08c379a000000000000000000000000000000000000000000000000000000000815260040161066a90610d51565b60405180910390fd5b60026000838152602001908152602001600020600001805461069490610cd4565b80601f01602080910402602001604051908101604052809291908181526020018280546106c090610cd4565b801561070d5780601f106106e25761010080835404028352916020019161070d565b820191906000526020600020905b8154815290600101906020018083116106f057829003601f168201915b50505050509050919050565b60015481565b6000604051905090565b600080fd5b600080fd5b6000819050919050565b61074681610733565b811461075157600080fd5b50565b6000813590506107638161073d565b92915050565b60006020828403121561077f5761077e610729565b5b600061078d84828501610754565b91505092915050565b600081519050919050565b600082825260208201905092915050565b60005b838110156107d05780820151818401526020810190506107b5565b60008484015250505050565b6000601f19601f8301169050919050565b60006107f882610796565b61080281856107a1565b93506108128185602086016107b2565b61081b816107dc565b840191505092915050565b61082f81610733565b82525050565b600073ffffffffffffffffffffffffffffffffffffffff82169050919050565b600061086082610835565b9050919050565b61087081610855565b82525050565b6000606082019050818103600083015261089081866107ed565b905061089f6020830185610826565b6108ac6040830184610867565b949350505050565b60006020820190506108c96000830184610867565b92915050565b600080fd5b600080fd5b7f4e487b7100000000000000000000000000000000000000000000000000000000600052604160045260246000fd5b610911826107dc565b810181811067ffffffffffffffff821117156109305761092f6108d9565b5b80604052505050565b600061094361071f565b905061094f8282610908565b919050565b600067ffffffffffffffff82111561096f5761096e6108d9565b5b610978826107dc565b9050602081019050919050565b82818337600083830152505050565b60006109a76109a284610954565b610939565b9050828152602081018484840111156109c3576109c26108d4565b5b6109ce848285610985565b509392505050565b600082601f8301126109eb576109ea6108cf565b5b81356109fb848260208601610994565b91505092915050565b60008060408385031215610a1b57610a1a610729565b5b6000610a2985828601610754565b925050602083013567ffffffffffffffff811115610a4a57610a4961072e565b5b610a56858286016109d6565b9150509250929050565b600081519050919050565b600082825260208201905092915050565b6000610a8782610a60565b610a918185610a6b565b9350610aa18185602086016107b2565b610aaa816107dc565b840191505092915050565b60006020820190508181036000830152610acf8184610a7c565b905092915050565b600067ffffffffffffffff821115610af257610af16108d9565b5b610afb826107dc565b9050602081019050919050565b6000610b1b610b1684610ad7565b610939565b905082815260208101848484011115610b3757610b366108d4565b5b610b42848285610985565b509392505050565b600082601f830112610b5f57610b5e6108cf565b5b8135610b6f848260208601610b08565b91505092915050565b60008060408385031215610b8f57610b8e610729565b5b600083013567ffffffffffffffff811115610bad57610bac61072e565b5b610bb985828601610b4a565b925050602083013567ffffffffffffffff811115610bda57610bd961072e565b5b610be685828601610b4a565b9150509250929050565b60006020820190508181036000830152610c0a81846107ed565b905092915050565b60008060408385031215610c2957610c28610729565b5b600083013567ffffffffffffffff811115610c4757610c4661072e565b5b610c53858286016109d6565b925050602083013567ffffffffffffffff811115610c7457610c7361072e565b5b610c80858286016109d6565b9150509250929050565b6000602082019050610c9f6000830184610826565b92915050565b7f4e487b7100000000000000000000000000000000000000000000000000000000600052602260045260246000fd5b60006002820490506001821680610cec57607f821691505b602082108103610cff57610cfe610ca5565b5b50919050565b7f496e76616c6964206d6573736167652049440000000000000000000000000000600082015250565b6000610d3b601283610a6b565b9150610d4682610d05565b602082019050919050565b60006020820190508181036000830152610d6a81610d2e565b9050919050565b7f4b65792063616e6e6f7420626520656d70747900000000000000000000000000600082015250565b6000610da7601383610a6b565b9150610db282610d71565b602082019050919050565b60006020820190508181036000830152610dd681610d9a565b9050919050565b7f4e487b7100000000000000000000000000000000000000000000000000000000600052601260045260246000fd5b6000610e1782610733565b9150610e2283610733565b925082610e3257610e31610ddd565b5b828206905092915050565b7f4e487b7100000000000000000000000000000000000000000000000000000000600052603260045260246000fd5b7f4e487b7100000000000000000000000000000000000000000000000000000000600052601160045260246000fd5b6000610ea682610733565b91507fffffffffffffffffffffffffffffffffffffffffffffffffffffffffffffffff8203610ed857610ed7610e6c565b5b600182019050919050565b60008190508160005260206000209050919050565b60006020601f8301049050919050565b600082821b905092915050565b600060088302610f457fffffffffffffffffffffffffffffffffffffffffffffffffffffffffffffffff82610f08565b610f4f8683610f08565b95508019841693508086168417925050509392505050565b6000819050919050565b6000610f8c610f87610f8284610733565b610f67565b610733565b9050919050565b6000819050919050565b610fa683610f71565b610fba610fb282610f93565b848454610f15565b825550505050565b600090565b610fcf610fc2565b610fda818484610f9d565b505050565b5b81811015610ffe57610ff3600082610fc7565b600181019050610fe0565b5050565b601f8211156110435761101481610ee3565b61101d84610ef8565b8101602085101561102c578190505b61104061103885610ef8565b830182610fdf565b50505b505050565b600082821c905092915050565b600061106660001984600802611048565b1980831691505092915050565b600061107f8383611055565b9150826002028217905092915050565b61109882610796565b67ffffffffffffffff8111156110b1576110b06108d9565b5b6110bb8254610cd4565b6110c6828285611002565b600060209050601f8311600181146110f957600084156110e7578287015190505b6110f18582611073565b865550611159565b601f19841661110786610ee3565b60005b8281101561112f5784890151825560018201915060208501945060208101905061110a565b8683101561114c5784890151611148601f891682611055565b8355505b6001600288020188555050505b505050505050565b60006040820190506111766000830185610826565b818103602083015261118881846107ed565b9050939250505056fea264697066735822122067ffbba25175b4283ae96df7b3ae7f263780c97770cfa87d2b9c4942f3e43a2464736f6c63430008130033",
			"opcodes": "PUSH1 0x80 PUSH1 0x40 MSTORE CALLVALUE DUP1 ISZERO PUSH2 0x10 JUMPI PUSH1 0x0 DUP1 REVERT JUMPDEST POP CALLER PUSH1 0x0 DUP1 PUSH2 0x100 EXP DUP2 SLOAD DUP2 PUSH20 0xFFFFFFFFFFFFFFFFFFFFFFFFFFFFFFFFFFFFFFFF MUL NOT AND SWAP1 DUP4 PUSH20 0xFFFFFFFFFFFFFFFFFFFFFFFFFFFFFFFFFFFFFFFF AND MUL OR SWAP1 SSTORE POP PUSH1 0x0 PUSH1 0x1 DUP2 SWAP1 SSTORE POP PUSH2 0x11C7 DUP1 PUSH2 0x68 PUSH1 0x0 CODECOPY PUSH1 0x0 RETURN INVALID PUSH1 0x80 PUSH1 0x40 MSTORE CALLVALUE DUP1 ISZERO PUSH2 0x10 JUMPI PUSH1 0x0 DUP1 REVERT JUMPDEST POP PUSH1 0x4 CALLDATASIZE LT PUSH2 0x7D JUMPI PUSH1 0x0 CALLDATALOAD PUSH1 0xE0 SHR DUP1 PUSH4 0xB2C98DD1 GT PUSH2 0x5B JUMPI DUP1 PUSH4 0xB2C98DD1 EQ PUSH2 0x102 JUMPI DUP1 PUSH4 0xB51070D9 EQ PUSH2 0x132 JUMPI DUP1 PUSH4 0xEDA42C3F EQ PUSH2 0x162 JUMPI DUP1 PUSH4 0xEEFBF17E EQ PUSH2 0x192 JUMPI PUSH2 0x7D JUMP JUMPDEST DUP1 PUSH4 0xD80FEFD EQ PUSH2 0x82 JUMPI DUP1 PUSH4 0x8DA5CB5B EQ PUSH2 0xB4 JUMPI DUP1 PUSH4 0xAB9F7DCF EQ PUSH2 0xD2 JUMPI JUMPDEST PUSH1 0x0 DUP1 REVERT JUMPDEST PUSH2 0x9C PUSH1 0x4 DUP1 CALLDATASIZE SUB DUP2 ADD SWAP1 PUSH2 0x97 SWAP2 SWAP1 PUSH2 0x769 JUMP JUMPDEST PUSH2 0x1B0 JUMP JUMPDEST PUSH1 0x40 MLOAD PUSH2 0xAB SWAP4 SWAP3 SWAP2 SWAP1 PUSH2 0x876 JUMP JUMPDEST PUSH1 0x40 MLOAD DUP1 SWAP2 SUB SWAP1 RETURN JUMPDEST PUSH2 0xBC PUSH2 0x282 JUMP JUMPDEST PUSH1 0x40 MLOAD PUSH2 0xC9 SWAP2 SWAP1 PUSH2 0x8B4 JUMP JUMPDEST PUSH1 0x40 MLOAD DUP1 SWAP2 SUB SWAP1 RETURN JUMPDEST PUSH2 0xEC PUSH1 0x4 DUP1 CALLDATASIZE SUB DUP2 ADD SWAP1 PUSH2 0xE7 SWAP2 SWAP1 PUSH2 0xA04 JUMP JUMPDEST PUSH2 0x2A6 JUMP JUMPDEST PUSH1 0x40 MLOAD PUSH2 0xF9 SWAP2 SWAP1 PUSH2 0xAB5 JUMP JUMPDEST PUSH1 0x40 MLOAD DUP1 SWAP2 SUB SWAP1 RETURN JUMPDEST PUSH2 0x11C PUSH1 0x4 DUP1 CALLDATASIZE SUB DUP2 ADD SWAP1 PUSH2 0x117 SWAP2 SWAP1 PUSH2 0xB78 JUMP JUMPDEST PUSH2 0x3A8 JUMP JUMPDEST PUSH1 0x40 MLOAD PUSH2 0x129 SWAP2 SWAP1 PUSH2 0xBF0 JUMP JUMPDEST PUSH1 0x40 MLOAD DUP1 SWAP2 SUB SWAP1 RETURN JUMPDEST PUSH2 0x14C PUSH1 0x4 DUP1 CALLDATASIZE SUB DUP2 ADD SWAP1 PUSH2 0x147 SWAP2 SWAP1 PUSH2 0xC12 JUMP JUMPDEST PUSH2 0x4EF JUMP JUMPDEST PUSH1 0x40 MLOAD PUSH2 0x159 SWAP2 SWAP1 PUSH2 0xC8A JUMP JUMPDEST PUSH1 0x40 MLOAD DUP1 SWAP2 SUB SWAP1 RETURN JUMPDEST PUSH2 0x17C PUSH1 0x4 DUP1 CALLDATASIZE SUB DUP2 ADD SWAP1 PUSH2 0x177 SWAP2 SWAP1 PUSH2 0x769 JUMP JUMPDEST PUSH2 0x62D JUMP JUMPDEST PUSH1 0x40 MLOAD PUSH2 0x189 SWAP2 SWAP1 PUSH2 0xBF0 JUMP JUMPDEST PUSH1 0x40 MLOAD DUP1 SWAP2 SUB SWAP1 RETURN JUMPDEST PUSH2 0x19A PUSH2 0x719 JUMP JUMPDEST PUSH1 0x40 MLOAD PUSH2 0x1A7 SWAP2 SWAP1 PUSH2 0xC8A JUMP JUMPDEST PUSH1 0x40 MLOAD DUP1 SWAP2 SUB SWAP1 RETURN JUMPDEST PUSH1 0x2 PUSH1 0x20 MSTORE DUP1 PUSH1 0x0 MSTORE PUSH1 0x40 PUSH1 0x0 KECCAK256 PUSH1 0x0 SWAP2 POP SWAP1 POP DUP1 PUSH1 0x0 ADD DUP1 SLOAD PUSH2 0x1D3 SWAP1 PUSH2 0xCD4 JUMP JUMPDEST DUP1 PUSH1 0x1F ADD PUSH1 0x20 DUP1 SWAP2 DIV MUL PUSH1 0x20 ADD PUSH1 0x40 MLOAD SWAP1 DUP2 ADD PUSH1 0x40 MSTORE DUP1 SWAP3 SWAP2 SWAP1 DUP2 DUP2 MSTORE PUSH1 0x20 ADD DUP3 DUP1 SLOAD PUSH2 0x1FF SWAP1 PUSH2 0xCD4 JUMP JUMPDEST DUP1 ISZERO PUSH2 0x24C JUMPI DUP1 PUSH1 0x1F LT PUSH2 0x221 JUMPI PUSH2 0x100 DUP1 DUP4 SLOAD DIV MUL DUP4 MSTORE SWAP2 PUSH1 0x20 ADD SWAP2 PUSH2 0x24C JUMP JUMPDEST DUP3 ADD SWAP2 SWAP1 PUSH1 0x0 MSTORE PUSH1 0x20 PUSH1 0x0 KECCAK256 SWAP1 JUMPDEST DUP2 SLOAD DUP2 MSTORE SWAP1 PUSH1 0x1 ADD SWAP1 PUSH1 0x20 ADD DUP1 DUP4 GT PUSH2 0x22F JUMPI DUP3 SWAP1 SUB PUSH1 0x1F AND DUP3 ADD SWAP2 JUMPDEST POP POP POP POP POP SWAP1 DUP1 PUSH1 0x1 ADD SLOAD SWAP1 DUP1 PUSH1 0x2 ADD PUSH1 0x0 SWAP1 SLOAD SWAP1 PUSH2 0x100 EXP SWAP1 DIV PUSH20 0xFFFFFFFFFFFFFFFFFFFFFFFFFFFFFFFFFFFFFFFF AND SWAP1 POP DUP4 JUMP JUMPDEST PUSH1 0x0 DUP1 SLOAD SWAP1 PUSH2 0x100 EXP SWAP1 DIV PUSH20 0xFFFFFFFFFFFFFFFFFFFFFFFFFFFFFFFFFFFFFFFF AND DUP2 JUMP JUMPDEST PUSH1 0x60 PUSH1 0x1 SLOAD DUP4 LT PUSH2 0x2EC JUMPI PUSH1 0x40 MLOAD PUSH32 0x8C379A000000000000000000000000000000000000000000000000000000000 DUP2 MSTORE PUSH1 0x4 ADD PUSH2 0x2E3 SWAP1 PUSH2 0xD51 JUMP JUMPDEST PUSH1 0x40 MLOAD DUP1 SWAP2 SUB SWAP1 REVERT JUMPDEST PUSH1 0x0 PUSH1 0x2 PUSH1 0x0 DUP6 DUP2 MSTORE PUSH1 0x20 ADD SWAP1 DUP2 MSTORE PUSH1 0x20 ADD PUSH1 0x0 KECCAK256 SWAP1 POP PUSH1 0x0 PUSH2 0x39B DUP3 PUSH1 0x0 ADD DUP1 SLOAD PUSH2 0x317 SWAP1 PUSH2 0xCD4 JUMP JUMPDEST DUP1 PUSH1 0x1F ADD PUSH1 0x20 DUP1 SWAP2 DIV MUL PUSH1 0x20 ADD PUSH1 0x40 MLOAD SWAP1 DUP2 ADD PUSH1 0x40 MSTORE DUP1 SWAP3 SWAP2 SWAP1 DUP2 DUP2 MSTORE PUSH1 0x20 ADD DUP3 DUP1 SLOAD PUSH2 0x343 SWAP1 PUSH2 0xCD4 JUMP JUMPDEST DUP1 ISZERO PUSH2 0x390 JUMPI DUP1 PUSH1 0x1F LT PUSH2 0x365 JUMPI PUSH2 0x100 DUP1 DUP4 SLOAD DIV MUL DUP4 MSTORE SWAP2 PUSH1 0x20 ADD SWAP2 PUSH2 0x390 JUMP JUMPDEST DUP3 ADD SWAP2 SWAP1 PUSH1 0x0 MSTORE PUSH1 0x20 PUSH1 0x0 KECCAK256 SWAP1 JUMPDEST DUP2 SLOAD DUP2 MSTORE SWAP1 PUSH1 0x1 ADD SWAP1 PUSH1 0x20 ADD DUP1 DUP4 GT PUSH2 0x373 JUMPI DUP3 SWAP1 SUB PUSH1 0x1F AND DUP3 ADD SWAP2 JUMPDEST POP POP POP POP POP DUP6 PUSH2 0x3A8 JUMP JUMPDEST SWAP1 POP DUP1 SWAP3 POP POP POP SWAP3 SWAP2 POP POP JUMP JUMPDEST PUSH1 0x60 PUSH1 0x0 DUP3 MLOAD GT PUSH2 0x3EE JUMPI PUSH1 0x40 MLOAD PUSH32 0x8C379A000000000000000000000000000000000000000000000000000000000 DUP2 MSTORE PUSH1 0x4 ADD PUSH2 0x3E5 SWAP1 PUSH2 0xDBD JUMP JUMPDEST PUSH1 0x40 MLOAD DUP1 SWAP2 SUB SWAP1 REVERT JUMPDEST DUP3 MLOAD PUSH8 0xFFFFFFFFFFFFFFFF DUP2 GT ISZERO PUSH2 0x409 JUMPI PUSH2 0x408 PUSH2 0x8D9 JUMP JUMPDEST JUMPDEST PUSH1 0x40 MLOAD SWAP1 DUP1 DUP3 MSTORE DUP1 PUSH1 0x1F ADD PUSH1 0x1F NOT AND PUSH1 0x20 ADD DUP3 ADD PUSH1 0x40 MSTORE DUP1 ISZERO PUSH2 0x43B JUMPI DUP2 PUSH1 0x20 ADD PUSH1 0x1 DUP3 MUL DUP1 CALLDATASIZE DUP4 CALLDATACOPY DUP1 DUP3 ADD SWAP2 POP POP SWAP1 POP JUMPDEST POP SWAP1 POP PUSH1 0x0 JUMPDEST DUP4 MLOAD DUP2 LT ISZERO PUSH2 0x4E8 JUMPI DUP3 DUP4 MLOAD DUP3 PUSH2 0x458 SWAP2 SWAP1 PUSH2 0xE0C JUMP JUMPDEST DUP2 MLOAD DUP2 LT PUSH2 0x469 JUMPI PUSH2 0x468 PUSH2 0xE3D JUMP JUMPDEST JUMPDEST PUSH1 0x20 ADD ADD MLOAD PUSH1 0xF8 SHR PUSH1 0xF8 SHL DUP5 DUP3 DUP2 MLOAD DUP2 LT PUSH2 0x487 JUMPI PUSH2 0x486 PUSH2 0xE3D JUMP JUMPDEST JUMPDEST PUSH1 0x20 ADD ADD MLOAD PUSH1 0xF8 SHR PUSH1 0xF8 SHL XOR DUP3 DUP3 DUP2 MLOAD DUP2 LT PUSH2 0x4A6 JUMPI PUSH2 0x4A5 PUSH2 0xE3D JUMP JUMPDEST JUMPDEST PUSH1 0x20 ADD ADD SWAP1 PUSH31 0xFFFFFFFFFFFFFFFFFFFFFFFFFFFFFFFFFFFFFFFFFFFFFFFFFFFFFFFFFFFFFF NOT AND SWAP1 DUP2 PUSH1 0x0 BYTE SWAP1 MSTORE8 POP DUP1 DUP1 PUSH2 0x4E0 SWAP1 PUSH2 0xE9B JUMP JUMPDEST SWAP2 POP POP PUSH2 0x441 JUMP JUMPDEST POP SWAP3 SWAP2 POP POP JUMP JUMPDEST PUSH1 0x0 DUP1 DUP4 SWAP1 POP PUSH1 0x0 DUP4 SWAP1 POP PUSH1 0x0 PUSH2 0x506 DUP4 DUP4 PUSH2 0x3A8 JUMP JUMPDEST SWAP1 POP PUSH1 0x1 SLOAD SWAP4 POP PUSH1 0x40 MLOAD DUP1 PUSH1 0x60 ADD PUSH1 0x40 MSTORE DUP1 DUP3 DUP2 MSTORE PUSH1 0x20 ADD TIMESTAMP DUP2 MSTORE PUSH1 0x20 ADD CALLER PUSH20 0xFFFFFFFFFFFFFFFFFFFFFFFFFFFFFFFFFFFFFFFF AND DUP2 MSTORE POP PUSH1 0x2 PUSH1 0x0 DUP7 DUP2 MSTORE PUSH1 0x20 ADD SWAP1 DUP2 MSTORE PUSH1 0x20 ADD PUSH1 0x0 KECCAK256 PUSH1 0x0 DUP3 ADD MLOAD DUP2 PUSH1 0x0 ADD SWAP1 DUP2 PUSH2 0x566 SWAP2 SWAP1 PUSH2 0x108F JUMP JUMPDEST POP PUSH1 0x20 DUP3 ADD MLOAD DUP2 PUSH1 0x1 ADD SSTORE PUSH1 0x40 DUP3 ADD MLOAD DUP2 PUSH1 0x2 ADD PUSH1 0x0 PUSH2 0x100 EXP DUP2 SLOAD DUP2 PUSH20 0xFFFFFFFFFFFFFFFFFFFFFFFFFFFFFFFFFFFFFFFF MUL NOT AND SWAP1 DUP4 PUSH20 0xFFFFFFFFFFFFFFFFFFFFFFFFFFFFFFFFFFFFFFFF AND MUL OR SWAP1 SSTORE POP SWAP1 POP POP PUSH1 0x1 PUSH1 0x0 DUP2 SLOAD DUP1 SWAP3 SWAP2 SWAP1 PUSH2 0x5CE SWAP1 PUSH2 0xE9B JUMP JUMPDEST SWAP2 SWAP1 POP SSTORE POP CALLER PUSH20 0xFFFFFFFFFFFFFFFFFFFFFFFFFFFFFFFFFFFFFFFF AND DUP5 PUSH32 0xCF56B4603E69210EEBD70535AD5EBEE1655CABEBE3CD0AA186EE12CE3353FACB TIMESTAMP DUP5 PUSH1 0x40 MLOAD PUSH2 0x61C SWAP3 SWAP2 SWAP1 PUSH2 0x1161 JUMP JUMPDEST PUSH1 0x40 MLOAD DUP1 SWAP2 SUB SWAP1 LOG3 POP POP POP SWAP3 SWAP2 POP POP JUMP JUMPDEST PUSH1 0x60 PUSH1 0x1 SLOAD DUP3 LT PUSH2 0x673 JUMPI PUSH1 0x40 MLOAD PUSH32 0x8C379A000000000000000000000000000000000000000000000000000000000 DUP2 MSTORE PUSH1 0x4 ADD PUSH2 0x66A SWAP1 PUSH2 0xD51 JUMP JUMPDEST PUSH1 0x40 MLOAD DUP1 SWAP2 SUB SWAP1 REVERT JUMPDEST PUSH1 0x2 PUSH1 0x0 DUP4 DUP2 MSTORE PUSH1 0x20 ADD SWAP1 DUP2 MSTORE PUSH1 0x20 ADD PUSH1 0x0 KECCAK256 PUSH1 0x0 ADD DUP1 SLOAD PUSH2 0x694 SWAP1 PUSH2 0xCD4 JUMP JUMPDEST DUP1 PUSH1 0x1F ADD PUSH1 0x20 DUP1 SWAP2 DIV MUL PUSH1 0x20 ADD PUSH1 0x40 MLOAD SWAP1 DUP2 ADD PUSH1 0x40 MSTORE DUP1 SWAP3 SWAP2 SWAP1 DUP2 DUP2 MSTORE PUSH1 0x20 ADD DUP3 DUP1 SLOAD PUSH2 0x6C0 SWAP1 PUSH2 0xCD4 JUMP JUMPDEST DUP1 ISZERO PUSH2 0x70D JUMPI DUP1 PUSH1 0x1F LT PUSH2 0x6E2 JUMPI PUSH2 0x100 DUP1 DUP4 SLOAD DIV MUL DUP4 MSTORE SWAP2 PUSH1 0x20 ADD SWAP2 PUSH2 0x70D JUMP JUMPDEST DUP3 ADD SWAP2 SWAP1 PUSH1 0x0 MSTORE PUSH1 0x20 PUSH1 0x0 KECCAK256 SWAP1 JUMPDEST DUP2 SLOAD DUP2 MSTORE SWAP1 PUSH1 0x1 ADD SWAP1 PUSH1 0x20 ADD DUP1 DUP4 GT PUSH2 0x6F0 JUMPI DUP3 SWAP1 SUB PUSH1 0x1F AND DUP3 ADD SWAP2 JUMPDEST POP POP POP POP POP SWAP1 POP SWAP2 SWAP1 POP JUMP JUMPDEST PUSH1 0x1 SLOAD DUP2 JUMP JUMPDEST PUSH1 0x0 PUSH1 0x40 MLOAD SWAP1 POP SWAP1 JUMP JUMPDEST PUSH1 0x0 DUP1 REVERT JUMPDEST PUSH1 0x0 DUP1 REVERT JUMPDEST PUSH1 0x0 DUP2 SWAP1 POP SWAP2 SWAP1 POP JUMP JUMPDEST PUSH2 0x746 DUP2 PUSH2 0x733 JUMP JUMPDEST DUP2 EQ PUSH2 0x751 JUMPI PUSH1 0x0 DUP1 REVERT JUMPDEST POP JUMP JUMPDEST PUSH1 0x0 DUP2 CALLDATALOAD SWAP1 POP PUSH2 0x763 DUP2 PUSH2 0x73D JUMP JUMPDEST SWAP3 SWAP2 POP POP JUMP JUMPDEST PUSH1 0x0 PUSH1 0x20 DUP3 DUP5 SUB SLT ISZERO PUSH2 0x77F JUMPI PUSH2 0x77E PUSH2 0x729 JUMP JUMPDEST JUMPDEST PUSH1 0x0 PUSH2 0x78D DUP5 DUP3 DUP6 ADD PUSH2 0x754 JUMP JUMPDEST SWAP2 POP POP SWAP3 SWAP2 POP POP JUMP JUMPDEST PUSH1 0x0 DUP2 MLOAD SWAP1 POP SWAP2 SWAP1 POP JUMP JUMPDEST PUSH1 0x0 DUP3 DUP3 MSTORE PUSH1 0x20 DUP3 ADD SWAP1 POP SWAP3 SWAP2 POP POP JUMP JUMPDEST PUSH1 0x0 JUMPDEST DUP4 DUP2 LT ISZERO PUSH2 0x7D0 JUMPI DUP1 DUP3 ADD MLOAD DUP2 DUP5 ADD MSTORE PUSH1 0x20 DUP2 ADD SWAP1 POP PUSH2 0x7B5 JUMP JUMPDEST PUSH1 0x0 DUP5 DUP5 ADD MSTORE POP POP POP POP JUMP JUMPDEST PUSH1 0x0 PUSH1 0x1F NOT PUSH1 0x1F DUP4 ADD AND SWAP1 POP SWAP2 SWAP1 POP JUMP JUMPDEST PUSH1 0x0 PUSH2 0x7F8 DUP3 PUSH2 0x796 JUMP JUMPDEST PUSH2 0x802 DUP2 DUP6 PUSH2 0x7A1 JUMP JUMPDEST SWAP4 POP PUSH2 0x812 DUP2 DUP6 PUSH1 0x20 DUP7 ADD PUSH2 0x7B2 JUMP JUMPDEST PUSH2 0x81B DUP2 PUSH2 0x7DC JUMP JUMPDEST DUP5 ADD SWAP2 POP POP SWAP3 SWAP2 POP POP JUMP JUMPDEST PUSH2 0x82F DUP2 PUSH2 0x733 JUMP JUMPDEST DUP3 MSTORE POP POP JUMP JUMPDEST PUSH1 0x0 PUSH20 0xFFFFFFFFFFFFFFFFFFFFFFFFFFFFFFFFFFFFFFFF DUP3 AND SWAP1 POP SWAP2 SWAP1 POP JUMP JUMPDEST PUSH1 0x0 PUSH2 0x860 DUP3 PUSH2 0x835 JUMP JUMPDEST SWAP1 POP SWAP2 SWAP1 POP JUMP JUMPDEST PUSH2 0x870 DUP2 PUSH2 0x855 JUMP JUMPDEST DUP3 MSTORE POP POP JUMP JUMPDEST PUSH1 0x0 PUSH1 0x60 DUP3 ADD SWAP1 POP DUP2 DUP2 SUB PUSH1 0x0 DUP4 ADD MSTORE PUSH2 0x890 DUP2 DUP7 PUSH2 0x7ED JUMP JUMPDEST SWAP1 POP PUSH2 0x89F PUSH1 0x20 DUP4 ADD DUP6 PUSH2 0x826 JUMP JUMPDEST PUSH2 0x8AC PUSH1 0x40 DUP4 ADD DUP5 PUSH2 0x867 JUMP JUMPDEST SWAP5 SWAP4 POP POP POP POP JUMP JUMPDEST PUSH1 0x0 PUSH1 0x20 DUP3 ADD SWAP1 POP PUSH2 0x8C9 PUSH1 0x0 DUP4 ADD DUP5 PUSH2 0x867 JUMP JUMPDEST SWAP3 SWAP2 POP POP JUMP JUMPDEST PUSH1 0x0 DUP1 REVERT JUMPDEST PUSH1 0x0 DUP1 REVERT JUMPDEST PUSH32 0x4E487B7100000000000000000000000000000000000000000000000000000000 PUSH1 0x0 MSTORE PUSH1 0x41 PUSH1 0x4 MSTORE PUSH1 0x24 PUSH1 0x0 REVERT JUMPDEST PUSH2 0x911 DUP3 PUSH2 0x7DC JUMP JUMPDEST DUP2 ADD DUP2 DUP2 LT PUSH8 0xFFFFFFFFFFFFFFFF DUP3 GT OR ISZERO PUSH2 0x930 JUMPI PUSH2 0x92F PUSH2 0x8D9 JUMP JUMPDEST JUMPDEST DUP1 PUSH1 0x40 MSTORE POP POP POP JUMP JUMPDEST PUSH1 0x0 PUSH2 0x943 PUSH2 0x71F JUMP JUMPDEST SWAP1 POP PUSH2 0x94F DUP3 DUP3 PUSH2 0x908 JUMP JUMPDEST SWAP2 SWAP1 POP JUMP JUMPDEST PUSH1 0x0 PUSH8 0xFFFFFFFFFFFFFFFF DUP3 GT ISZERO PUSH2 0x96F JUMPI PUSH2 0x96E PUSH2 0x8D9 JUMP JUMPDEST JUMPDEST PUSH2 0x978 DUP3 PUSH2 0x7DC JUMP JUMPDEST SWAP1 POP PUSH1 0x20 DUP2 ADD SWAP1 POP SWAP2 SWAP1 POP JUMP JUMPDEST DUP3 DUP2 DUP4 CALLDATACOPY PUSH1 0x0 DUP4 DUP4 ADD MSTORE POP POP POP JUMP JUMPDEST PUSH1 0x0 PUSH2 0x9A7 PUSH2 0x9A2 DUP5 PUSH2 0x954 JUMP JUMPDEST PUSH2 0x939 JUMP JUMPDEST SWAP1 POP DUP3 DUP2 MSTORE PUSH1 0x20 DUP2 ADD DUP5 DUP5 DUP5 ADD GT ISZERO PUSH2 0x9C3 JUMPI PUSH2 0x9C2 PUSH2 0x8D4 JUMP JUMPDEST JUMPDEST PUSH2 0x9CE DUP5 DUP3 DUP6 PUSH2 0x985 JUMP JUMPDEST POP SWAP4 SWAP3 POP POP POP JUMP JUMPDEST PUSH1 0x0 DUP3 PUSH1 0x1F DUP4 ADD SLT PUSH2 0x9EB JUMPI PUSH2 0x9EA PUSH2 0x8CF JUMP JUMPDEST JUMPDEST DUP2 CALLDATALOAD PUSH2 0x9FB DUP5 DUP3 PUSH1 0x20 DUP7 ADD PUSH2 0x994 JUMP JUMPDEST SWAP2 POP POP SWAP3 SWAP2 POP POP JUMP JUMPDEST PUSH1 0x0 DUP1 PUSH1 0x40 DUP4 DUP6 SUB SLT ISZERO PUSH2 0xA1B JUMPI PUSH2 0xA1A PUSH2 0x729 JUMP JUMPDEST JUMPDEST PUSH1 0x0 PUSH2 0xA29 DUP6 DUP3 DUP7 ADD PUSH2 0x754 JUMP JUMPDEST SWAP3 POP POP PUSH1 0x20 DUP4 ADD CALLDATALOAD PUSH8 0xFFFFFFFFFFFFFFFF DUP2 GT ISZERO PUSH2 0xA4A JUMPI PUSH2 0xA49 PUSH2 0x72E JUMP JUMPDEST JUMPDEST PUSH2 0xA56 DUP6 DUP3 DUP7 ADD PUSH2 0x9D6 JUMP JUMPDEST SWAP2 POP POP SWAP3 POP SWAP3 SWAP1 POP JUMP JUMPDEST PUSH1 0x0 DUP2 MLOAD SWAP1 POP SWAP2 SWAP1 POP JUMP JUMPDEST PUSH1 0x0 DUP3 DUP3 MSTORE PUSH1 0x20 DUP3 ADD SWAP1 POP SWAP3 SWAP2 POP POP JUMP JUMPDEST PUSH1 0x0 PUSH2 0xA87 DUP3 PUSH2 0xA60 JUMP JUMPDEST PUSH2 0xA91 DUP2 DUP6 PUSH2 0xA6B JUMP JUMPDEST SWAP4 POP PUSH2 0xAA1 DUP2 DUP6 PUSH1 0x20 DUP7 ADD PUSH2 0x7B2 JUMP JUMPDEST PUSH2 0xAAA DUP2 PUSH2 0x7DC JUMP JUMPDEST DUP5 ADD SWAP2 POP POP SWAP3 SWAP2 POP POP JUMP JUMPDEST PUSH1 0x0 PUSH1 0x20 DUP3 ADD SWAP1 POP DUP2 DUP2 SUB PUSH1 0x0 DUP4 ADD MSTORE PUSH2 0xACF DUP2 DUP5 PUSH2 0xA7C JUMP JUMPDEST SWAP1 POP SWAP3 SWAP2 POP POP JUMP JUMPDEST PUSH1 0x0 PUSH8 0xFFFFFFFFFFFFFFFF DUP3 GT ISZERO PUSH2 0xAF2 JUMPI PUSH2 0xAF1 PUSH2 0x8D9 JUMP JUMPDEST JUMPDEST PUSH2 0xAFB DUP3 PUSH2 0x7DC JUMP JUMPDEST SWAP1 POP PUSH1 0x20 DUP2 ADD SWAP1 POP SWAP2 SWAP1 POP JUMP JUMPDEST PUSH1 0x0 PUSH2 0xB1B PUSH2 0xB16 DUP5 PUSH2 0xAD7 JUMP JUMPDEST PUSH2 0x939 JUMP JUMPDEST SWAP1 POP DUP3 DUP2 MSTORE PUSH1 0x20 DUP2 ADD DUP5 DUP5 DUP5 ADD GT ISZERO PUSH2 0xB37 JUMPI PUSH2 0xB36 PUSH2 0x8D4 JUMP JUMPDEST JUMPDEST PUSH2 0xB42 DUP5 DUP3 DUP6 PUSH2 0x985 JUMP JUMPDEST POP SWAP4 SWAP3 POP POP POP JUMP JUMPDEST PUSH1 0x0 DUP3 PUSH1 0x1F DUP4 ADD SLT PUSH2 0xB5F JUMPI PUSH2 0xB5E PUSH2 0x8CF JUMP JUMPDEST JUMPDEST DUP2 CALLDATALOAD PUSH2 0xB6F DUP5 DUP3 PUSH1 0x20 DUP7 ADD PUSH2 0xB08 JUMP JUMPDEST SWAP2 POP POP SWAP3 SWAP2 POP POP JUMP JUMPDEST PUSH1 0x0 DUP1 PUSH1 0x40 DUP4 DUP6 SUB SLT ISZERO PUSH2 0xB8F JUMPI PUSH2 0xB8E PUSH2 0x729 JUMP JUMPDEST JUMPDEST PUSH1 0x0 DUP4 ADD CALLDATALOAD PUSH8 0xFFFFFFFFFFFFFFFF DUP2 GT ISZERO PUSH2 0xBAD JUMPI PUSH2 0xBAC PUSH2 0x72E JUMP JUMPDEST JUMPDEST PUSH2 0xBB9 DUP6 DUP3 DUP7 ADD PUSH2 0xB4A JUMP JUMPDEST SWAP3 POP POP PUSH1 0x20 DUP4 ADD CALLDATALOAD PUSH8 0xFFFFFFFFFFFFFFFF DUP2 GT ISZERO PUSH2 0xBDA JUMPI PUSH2 0xBD9 PUSH2 0x72E JUMP JUMPDEST JUMPDEST PUSH2 0xBE6 DUP6 DUP3 DUP7 ADD PUSH2 0xB4A JUMP JUMPDEST SWAP2 POP POP SWAP3 POP SWAP3 SWAP1 POP JUMP JUMPDEST PUSH1 0x0 PUSH1 0x20 DUP3 ADD SWAP1 POP DUP2 DUP2 SUB PUSH1 0x0 DUP4 ADD MSTORE PUSH2 0xC0A DUP2 DUP5 PUSH2 0x7ED JUMP JUMPDEST SWAP1 POP SWAP3 SWAP2 POP POP JUMP JUMPDEST PUSH1 0x0 DUP1 PUSH1 0x40 DUP4 DUP6 SUB SLT ISZERO PUSH2 0xC29 JUMPI PUSH2 0xC28 PUSH2 0x729 JUMP JUMPDEST JUMPDEST PUSH1 0x0 DUP4 ADD CALLDATALOAD PUSH8 0xFFFFFFFFFFFFFFFF DUP2 GT ISZERO PUSH2 0xC47 JUMPI PUSH2 0xC46 PUSH2 0x72E JUMP JUMPDEST JUMPDEST PUSH2 0xC53 DUP6 DUP3 DUP7 ADD PUSH2 0x9D6 JUMP JUMPDEST SWAP3 POP POP PUSH1 0x20 DUP4 ADD CALLDATALOAD PUSH8 0xFFFFFFFFFFFFFFFF DUP2 GT ISZERO PUSH2 0xC74 JUMPI PUSH2 0xC73 PUSH2 0x72E JUMP JUMPDEST JUMPDEST PUSH2 0xC80 DUP6 DUP3 DUP7 ADD PUSH2 0x9D6 JUMP JUMPDEST SWAP2 POP POP SWAP3 POP SWAP3 SWAP1 POP JUMP JUMPDEST PUSH1 0x0 PUSH1 0x20 DUP3 ADD SWAP1 POP PUSH2 0xC9F PUSH1 0x0 DUP4 ADD DUP5 PUSH2 0x826 JUMP JUMPDEST SWAP3 SWAP2 POP POP JUMP JUMPDEST PUSH32 0x4E487B7100000000000000000000000000000000000000000000000000000000 PUSH1 0x0 MSTORE PUSH1 0x22 PUSH1 0x4 MSTORE PUSH1 0x24 PUSH1 0x0 REVERT JUMPDEST PUSH1 0x0 PUSH1 0x2 DUP3 DIV SWAP1 POP PUSH1 0x1 DUP3 AND DUP1 PUSH2 0xCEC JUMPI PUSH1 0x7F DUP3 AND SWAP2 POP JUMPDEST PUSH1 0x20 DUP3 LT DUP2 SUB PUSH2 0xCFF JUMPI PUSH2 0xCFE PUSH2 0xCA5 JUMP JUMPDEST JUMPDEST POP SWAP2 SWAP1 POP JUMP JUMPDEST PUSH32 0x496E76616C6964206D6573736167652049440000000000000000000000000000 PUSH1 0x0 DUP3 ADD MSTORE POP JUMP JUMPDEST PUSH1 0x0 PUSH2 0xD3B PUSH1 0x12 DUP4 PUSH2 0xA6B JUMP JUMPDEST SWAP2 POP PUSH2 0xD46 DUP3 PUSH2 0xD05 JUMP JUMPDEST PUSH1 0x20 DUP3 ADD SWAP1 POP SWAP2 SWAP1 POP JUMP JUMPDEST PUSH1 0x0 PUSH1 0x20 DUP3 ADD SWAP1 POP DUP2 DUP2 SUB PUSH1 0x0 DUP4 ADD MSTORE PUSH2 0xD6A DUP2 PUSH2 0xD2E JUMP JUMPDEST SWAP1 POP SWAP2 SWAP1 POP JUMP JUMPDEST PUSH32 0x4B65792063616E6E6F7420626520656D70747900000000000000000000000000 PUSH1 0x0 DUP3 ADD MSTORE POP JUMP JUMPDEST PUSH1 0x0 PUSH2 0xDA7 PUSH1 0x13 DUP4 PUSH2 0xA6B JUMP JUMPDEST SWAP2 POP PUSH2 0xDB2 DUP3 PUSH2 0xD71 JUMP JUMPDEST PUSH1 0x20 DUP3 ADD SWAP1 POP SWAP2 SWAP1 POP JUMP JUMPDEST PUSH1 0x0 PUSH1 0x20 DUP3 ADD SWAP1 POP DUP2 DUP2 SUB PUSH1 0x0 DUP4 ADD MSTORE PUSH2 0xDD6 DUP2 PUSH2 0xD9A JUMP JUMPDEST SWAP1 POP SWAP2 SWAP1 POP JUMP JUMPDEST PUSH32 0x4E487B7100000000000000000000000000000000000000000000000000000000 PUSH1 0x0 MSTORE PUSH1 0x12 PUSH1 0x4 MSTORE PUSH1 0x24 PUSH1 0x0 REVERT JUMPDEST PUSH1 0x0 PUSH2 0xE17 DUP3 PUSH2 0x733 JUMP JUMPDEST SWAP2 POP PUSH2 0xE22 DUP4 PUSH2 0x733 JUMP JUMPDEST SWAP3 POP DUP3 PUSH2 0xE32 JUMPI PUSH2 0xE31 PUSH2 0xDDD JUMP JUMPDEST JUMPDEST DUP3 DUP3 MOD SWAP1 POP SWAP3 SWAP2 POP POP JUMP JUMPDEST PUSH32 0x4E487B7100000000000000000000000000000000000000000000000000000000 PUSH1 0x0 MSTORE PUSH1 0x32 PUSH1 0x4 MSTORE PUSH1 0x24 PUSH1 0x0 REVERT JUMPDEST PUSH32 0x4E487B7100000000000000000000000000000000000000000000000000000000 PUSH1 0x0 MSTORE PUSH1 0x11 PUSH1 0x4 MSTORE PUSH1 0x24 PUSH1 0x0 REVERT JUMPDEST PUSH1 0x0 PUSH2 0xEA6 DUP3 PUSH2 0x733 JUMP JUMPDEST SWAP2 POP PUSH32 0xFFFFFFFFFFFFFFFFFFFFFFFFFFFFFFFFFFFFFFFFFFFFFFFFFFFFFFFFFFFFFFFF DUP3 SUB PUSH2 0xED8 JUMPI PUSH2 0xED7 PUSH2 0xE6C JUMP JUMPDEST JUMPDEST PUSH1 0x1 DUP3 ADD SWAP1 POP SWAP2 SWAP1 POP JUMP JUMPDEST PUSH1 0x0 DUP2 SWAP1 POP DUP2 PUSH1 0x0 MSTORE PUSH1 0x20 PUSH1 0x0 KECCAK256 SWAP1 POP SWAP2 SWAP1 POP JUMP JUMPDEST PUSH1 0x0 PUSH1 0x20 PUSH1 0x1F DUP4 ADD DIV SWAP1 POP SWAP2 SWAP1 POP JUMP JUMPDEST PUSH1 0x0 DUP3 DUP3 SHL SWAP1 POP SWAP3 SWAP2 POP POP JUMP JUMPDEST PUSH1 0x0 PUSH1 0x8 DUP4 MUL PUSH2 0xF45 PUSH32 0xFFFFFFFFFFFFFFFFFFFFFFFFFFFFFFFFFFFFFFFFFFFFFFFFFFFFFFFFFFFFFFFF DUP3 PUSH2 0xF08 JUMP JUMPDEST PUSH2 0xF4F DUP7 DUP4 PUSH2 0xF08 JUMP JUMPDEST SWAP6 POP DUP1 NOT DUP5 AND SWAP4 POP DUP1 DUP7 AND DUP5 OR SWAP3 POP POP POP SWAP4 SWAP3 POP POP POP JUMP JUMPDEST PUSH1 0x0 DUP2 SWAP1 POP SWAP2 SWAP1 POP JUMP JUMPDEST PUSH1 0x0 PUSH2 0xF8C PUSH2 0xF87 PUSH2 0xF82 DUP5 PUSH2 0x733 JUMP JUMPDEST PUSH2 0xF67 JUMP JUMPDEST PUSH2 0x733 JUMP JUMPDEST SWAP1 POP SWAP2 SWAP1 POP JUMP JUMPDEST PUSH1 0x0 DUP2 SWAP1 POP SWAP2 SWAP1 POP JUMP JUMPDEST PUSH2 0xFA6 DUP4 PUSH2 0xF71 JUMP JUMPDEST PUSH2 0xFBA PUSH2 0xFB2 DUP3 PUSH2 0xF93 JUMP JUMPDEST DUP5 DUP5 SLOAD PUSH2 0xF15 JUMP JUMPDEST DUP3 SSTORE POP POP POP POP JUMP JUMPDEST PUSH1 0x0 SWAP1 JUMP JUMPDEST PUSH2 0xFCF PUSH2 0xFC2 JUMP JUMPDEST PUSH2 0xFDA DUP2 DUP5 DUP5 PUSH2 0xF9D JUMP JUMPDEST POP POP POP JUMP JUMPDEST JUMPDEST DUP2 DUP2 LT ISZERO PUSH2 0xFFE JUMPI PUSH2 0xFF3 PUSH1 0x0 DUP3 PUSH2 0xFC7 JUMP JUMPDEST PUSH1 0x1 DUP2 ADD SWAP1 POP PUSH2 0xFE0 JUMP JUMPDEST POP POP JUMP JUMPDEST PUSH1 0x1F DUP3 GT ISZERO PUSH2 0x1043 JUMPI PUSH2 0x1014 DUP2 PUSH2 0xEE3 JUMP JUMPDEST PUSH2 0x101D DUP5 PUSH2 0xEF8 JUMP JUMPDEST DUP2 ADD PUSH1 0x20 DUP6 LT ISZERO PUSH2 0x102C JUMPI DUP2 SWAP1 POP JUMPDEST PUSH2 0x1040 PUSH2 0x1038 DUP6 PUSH2 0xEF8 JUMP JUMPDEST DUP4 ADD DUP3 PUSH2 0xFDF JUMP JUMPDEST POP POP JUMPDEST POP POP POP JUMP JUMPDEST PUSH1 0x0 DUP3 DUP3 SHR SWAP1 POP SWAP3 SWAP2 POP POP JUMP JUMPDEST PUSH1 0x0 PUSH2 0x1066 PUSH1 0x0 NOT DUP5 PUSH1 0x8 MUL PUSH2 0x1048 JUMP JUMPDEST NOT DUP1 DUP4 AND SWAP2 POP POP SWAP3 SWAP2 POP POP JUMP JUMPDEST PUSH1 0x0 PUSH2 0x107F DUP4 DUP4 PUSH2 0x1055 JUMP JUMPDEST SWAP2 POP DUP3 PUSH1 0x2 MUL DUP3 OR SWAP1 POP SWAP3 SWAP2 POP POP JUMP JUMPDEST PUSH2 0x1098 DUP3 PUSH2 0x796 JUMP JUMPDEST PUSH8 0xFFFFFFFFFFFFFFFF DUP2 GT ISZERO PUSH2 0x10B1 JUMPI PUSH2 0x10B0 PUSH2 0x8D9 JUMP JUMPDEST JUMPDEST PUSH2 0x10BB DUP3 SLOAD PUSH2 0xCD4 JUMP JUMPDEST PUSH2 0x10C6 DUP3 DUP3 DUP6 PUSH2 0x1002 JUMP JUMPDEST PUSH1 0x0 PUSH1 0x20 SWAP1 POP PUSH1 0x1F DUP4 GT PUSH1 0x1 DUP2 EQ PUSH2 0x10F9 JUMPI PUSH1 0x0 DUP5 ISZERO PUSH2 0x10E7 JUMPI DUP3 DUP8 ADD MLOAD SWAP1 POP JUMPDEST PUSH2 0x10F1 DUP6 DUP3 PUSH2 0x1073 JUMP JUMPDEST DUP7 SSTORE POP PUSH2 0x1159 JUMP JUMPDEST PUSH1 0x1F NOT DUP5 AND PUSH2 0x1107 DUP7 PUSH2 0xEE3 JUMP JUMPDEST PUSH1 0x0 JUMPDEST DUP3 DUP2 LT ISZERO PUSH2 0x112F JUMPI DUP5 DUP10 ADD MLOAD DUP3 SSTORE PUSH1 0x1 DUP3 ADD SWAP2 POP PUSH1 0x20 DUP6 ADD SWAP5 POP PUSH1 0x20 DUP2 ADD SWAP1 POP PUSH2 0x110A JUMP JUMPDEST DUP7 DUP4 LT ISZERO PUSH2 0x114C JUMPI DUP5 DUP10 ADD MLOAD PUSH2 0x1148 PUSH1 0x1F DUP10 AND DUP3 PUSH2 0x1055 JUMP JUMPDEST DUP4 SSTORE POP JUMPDEST PUSH1 0x1 PUSH1 0x2 DUP9 MUL ADD DUP9 SSTORE POP POP POP JUMPDEST POP POP POP POP POP POP JUMP JUMPDEST PUSH1 0x0 PUSH1 0x40 DUP3 ADD SWAP1 POP PUSH2 0x1176 PUSH1 0x0 DUP4 ADD DUP6 PUSH2 0x826 JUMP JUMPDEST DUP2 DUP2 SUB PUSH1 0x20 DUP4 ADD MSTORE PUSH2 0x1188 DUP2 DUP5 PUSH2 0x7ED JUMP JUMPDEST SWAP1 POP SWAP4 SWAP3 POP POP POP JUMP INVALID LOG2 PUSH5 0x6970667358 0x22 SLT KECCAK256 PUSH8 0xFFBBA25175B4283A 0xE9 PUSH14 0xF7B3AE7F263780C97770CFA87D2B SWAP13 0x49 TIMESTAMP RETURN 0xE4 GASPRICE 0x24 PUSH5 0x736F6C6343 STOP ADDMOD SGT STOP CALLER "
		},
		"gasEstimates": {
			"creation": {
				"codeDepositCost": "910200",
				"executionCost": "30228",
				"totalCost": "940428"
			},
			"external": {
				"decryptStored(uint256,string)": "infinite",
				"encryptAndStore(string,string)": "infinite",
				"getCipherText(uint256)": "infinite",
				"messages(uint256)": "infinite",
				"nextMessageId()": "2495",
				"owner()": "2534",
				"xorCipher(bytes,bytes)": "infinite"
			}
		},
		"methodIdentifiers": {
			"decryptStored(uint256,string)": "ab9f7dcf",
			"encryptAndStore(string,string)": "b51070d9",
			"getCipherText(uint256)": "eda42c3f",
			"messages(uint256)": "0d80fefd",
			"nextMessageId()": "eefbf17e",
			"owner()": "8da5cb5b",
			"xorCipher(bytes,bytes)": "b2c98dd1"
		}
	},
	"abi": [
		{
			"inputs": [],
			"stateMutability": "nonpayable",
			"type": "constructor"
		},
		{
			"anonymous": false,
			"inputs": [
				{
					"indexed": true,
					"internalType": "uint256",
					"name": "messageId",
					"type": "uint256"
				},
				{
					"indexed": true,
					"internalType": "address",
					"name": "sender",
					"type": "address"
				},
				{
					"indexed": false,
					"internalType": "uint256",
					"name": "timestamp",
					"type": "uint256"
				},
				{
					"indexed": false,
					"internalType": "bytes",
					"name": "cipherText",
					"type": "bytes"
				}
			],
			"name": "MessageStored",
			"type": "event"
		},
		{
			"inputs": [
				{
					"internalType": "uint256",
					"name": "messageId",
					"type": "uint256"
				},
				{
					"internalType": "string",
					"name": "key",
					"type": "string"
				}
			],
			"name": "decryptStored",
			"outputs": [
				{
					"internalType": "string",
					"name": "",
					"type": "string"
				}
			],
			"stateMutability": "view",
			"type": "function"
		},
		{
			"inputs": [
				{
					"internalType": "string",
					"name": "plainText",
					"type": "string"
				},
				{
					"internalType": "string",
					"name": "key",
					"type": "string"
				}
			],
			"name": "encryptAndStore",
			"outputs": [
				{
					"internalType": "uint256",
					"name": "messageId",
					"type": "uint256"
				}
			],
			"stateMutability": "nonpayable",
			"type": "function"
		},
		{
			"inputs": [
				{
					"internalType": "uint256",
					"name": "messageId",
					"type": "uint256"
				}
			],
			"name": "getCipherText",
			"outputs": [
				{
					"internalType": "bytes",
					"name": "",
					"type": "bytes"
				}
			],
			"stateMutability": "view",
			"type": "function"
		},
		{
			"inputs": [
				{
					"internalType": "uint256",
					"name": "",
					"type": "uint256"
				}
			],
			"name": "messages",
			"outputs": [
				{
					"internalType": "bytes",
					"name": "cipherText",
					"type": "bytes"
				},
				{
					"internalType": "uint256",
					"name": "timestamp",
					"type": "uint256"
				},
				{
					"internalType": "address",
					"name": "sender",
					"type": "address"
				}
			],
			"stateMutability": "view",
			"type": "function"
		},
		{
			"inputs": [],
			"name": "nextMessageId",
			"outputs": [
				{
					"internalType": "uint256",
					"name": "",
					"type": "uint256"
				}
			],
			"stateMutability": "view",
			"type": "function"
		},
		{
			"inputs": [],
			"name": "owner",
			"outputs": [
				{
					"internalType": "address",
					"name": "",
					"type": "address"
				}
			],
			"stateMutability": "view",
			"type": "function"
		},
		{
			"inputs": [
				{
					"internalType": "bytes",
					"name": "data",
					"type": "bytes"
				},
				{
					"internalType": "bytes",
					"name": "key",
					"type": "bytes"
				}
			],
			"name": "xorCipher",
			"outputs": [
				{
					"internalType": "bytes",
					"name": "result",
					"type": "bytes"
				}
			],
			"stateMutability": "pure",
			"type": "function"
		}
	]
}