{
	"data": {
		"bytecode": {
			"linkReferences": {},
			"object": "60c060405234801561000f575f5ffd5b506040516117e43803806117e483398181016040528101906100319190610331565b335f73ffffffffffffffffffffffffffffffffffffffff168173ffffffffffffffffffffffffffffffffffffffff16036100a2575f6040517f1e4fbdf70000000000000000000000000000000000000000000000000000000081526004016100999190610390565b60405180910390fd5b6100b1816101df60201b60201c565b50600180819055505f73ffffffffffffffffffffffffffffffffffffffff168373ffffffffffffffffffffffffffffffffffffffff161415801561012157505f73ffffffffffffffffffffffffffffffffffffffff168273ffffffffffffffffffffffffffffffffffffffff1614155b610160576040517f08c379a000000000000000000000000000000000000000000000000000000000815260040161015790610403565b60405180910390fd5b8273ffffffffffffffffffffffffffffffffffffffff1660808173ffffffffffffffffffffffffffffffffffffffff16815250508173ffffffffffffffffffffffffffffffffffffffff1660a08173ffffffffffffffffffffffffffffffffffffffff1681525050806002819055506001600481905550505050610421565b5f5f5f9054906101000a900473ffffffffffffffffffffffffffffffffffffffff169050815f5f6101000a81548173ffffffffffffffffffffffffffffffffffffffff021916908373ffffffffffffffffffffffffffffffffffffffff1602179055508173ffffffffffffffffffffffffffffffffffffffff168173ffffffffffffffffffffffffffffffffffffffff167f8be0079c531659141344cd1fd0a4f28419497f9722a3daafe3b4186f6b6457e060405160405180910390a35050565b5f5ffd5b5f73ffffffffffffffffffffffffffffffffffffffff82169050919050565b5f6102cd826102a4565b9050919050565b6102dd816102c3565b81146102e7575f5ffd5b50565b5f815190506102f8816102d4565b92915050565b5f819050919050565b610310816102fe565b811461031a575f5ffd5b50565b5f8151905061032b81610307565b92915050565b5f5f5f60608486031215610348576103476102a0565b5b5f610355868287016102ea565b9350506020610366868287016102ea565b92505060406103778682870161031d565b9150509250925092565b61038a816102c3565b82525050565b5f6020820190506103a35f830184610381565b92915050565b5f82825260208201905092915050565b7f496e76616c696420746f6b656e206164647265737300000000000000000000005f82015250565b5f6103ed6015836103a9565b91506103f8826103b9565b602082019050919050565b5f6020820190508181035f83015261041a816103e1565b9050919050565b60805160a05161138661045e5f395f818161059f0152818161064a01526107e301525f818161020d01528181610550015261079601526113865ff3fe608060405234801561000f575f5ffd5b50600436106100a7575f3560e01c80638da5cb5b1161006f5780638da5cb5b1461012b57806399fbab88146101495780639c8f9f231461017f578063d21220a71461019b578063f2fde38b146101b9578063fd87f9aa146101d5576100a7565b8063065e5360146100ab5780630dfe1681146100c9578063291df278146100e7578063715018a614610103578063899346c71461010d575b5f5ffd5b6100b3610205565b6040516100c09190610d47565b60405180910390f35b6100d161020b565b6040516100de9190610dda565b60405180910390f35b61010160048036038101906100fc9190610e21565b61022f565b005b61010b610278565b005b61011561028b565b6040516101229190610d47565b60405180910390f35b610133610291565b6040516101409190610e6c565b60405180910390f35b610163600480360381019061015e9190610e21565b6102b8565b6040516101769796959493929190610ea0565b60405180910390f35b61019960048036038101906101949190610e21565b61032f565b005b6101a3610648565b6040516101b09190610dda565b60405180910390f35b6101d360048036038101906101ce9190610f37565b61066c565b005b6101ef60048036038101906101ea9190610f8c565b6106f0565b6040516101fc9190610d47565b60405180910390f35b60025481565b7f000000000000000000000000000000000000000000000000000000000000000081565b6102376109d4565b806002819055507fca2410361df736e1af5d81999e916cec0b435bf16bc69b5a209be194f88bec4d8160405161026d9190610d47565b60405180910390a150565b6102806109d4565b6102895f610a5b565b565b60045481565b5f5f5f9054906101000a900473ffffffffffffffffffffffffffffffffffffffff16905090565b6003602052805f5260405f205f91509050805f015490806001015f9054906101000a900473ffffffffffffffffffffffffffffffffffffffff16908060010160149054906101000a900460020b908060010160179054906101000a900460020b908060020154908060030154908060040154905087565b610337610b1c565b5f60035f8381526020019081526020015f206040518060e00160405290815f8201548152602001600182015f9054906101000a900473ffffffffffffffffffffffffffffffffffffffff1673ffffffffffffffffffffffffffffffffffffffff1673ffffffffffffffffffffffffffffffffffffffff1681526020016001820160149054906101000a900460020b60020b60020b81526020016001820160179054906101000a900460020b60020b60020b8152602001600282015481526020016003820154815260200160048201548152505090503373ffffffffffffffffffffffffffffffffffffffff16816020015173ffffffffffffffffffffffffffffffffffffffff161461047e576040517f08c379a00000000000000000000000000000000000000000000000000000000081526004016104759061104a565b60405180910390fd5b5f8160c00151116104c4576040517f08c379a00000000000000000000000000000000000000000000000000000000081526004016104bb906110b2565b60405180910390fd5b60035f8381526020019081526020015f205f5f82015f9055600182015f6101000a81549073ffffffffffffffffffffffffffffffffffffffff02191690556001820160146101000a81549062ffffff02191690556001820160176101000a81549062ffffff0219169055600282015f9055600382015f9055600482015f905550506105943382608001517f000000000000000000000000000000000000000000000000000000000000000073ffffffffffffffffffffffffffffffffffffffff16610b6b9092919063ffffffff16565b6105e3338260a001517f000000000000000000000000000000000000000000000000000000000000000073ffffffffffffffffffffffffffffffffffffffff16610b6b9092919063ffffffff16565b3373ffffffffffffffffffffffffffffffffffffffff16827f196a4bf617b45641f176c4e6d288ccf7498f1699f68b1cc1e4daadf92779703b83608001518460a001516040516106349291906110d0565b60405180910390a350610645610bea565b50565b7f000000000000000000000000000000000000000000000000000000000000000081565b6106746109d4565b5f73ffffffffffffffffffffffffffffffffffffffff168173ffffffffffffffffffffffffffffffffffffffff16036106e4575f6040517f1e4fbdf70000000000000000000000000000000000000000000000000000000081526004016106db9190610e6c565b60405180910390fd5b6106ed81610a5b565b50565b5f6106f9610b1c565b8360020b8560020b12610741576040517f08c379a000000000000000000000000000000000000000000000000000000000815260040161073890611141565b60405180910390fd5b5f8311801561074f57505f82115b61078e576040517f08c379a0000000000000000000000000000000000000000000000000000000008152600401610785906111a9565b60405180910390fd5b6107db3330857f000000000000000000000000000000000000000000000000000000000000000073ffffffffffffffffffffffffffffffffffffffff16610bf3909392919063ffffffff16565b6108283330847f000000000000000000000000000000000000000000000000000000000000000073ffffffffffffffffffffffffffffffffffffffff16610bf3909392919063ffffffff16565b5f6108338484610c75565b905060045f815480929190610847906111f4565b9190505591506040518060e001604052808381526020013373ffffffffffffffffffffffffffffffffffffffff1681526020018760020b81526020018660020b81526020018581526020018481526020018281525060035f8481526020019081526020015f205f820151815f01556020820151816001015f6101000a81548173ffffffffffffffffffffffffffffffffffffffff021916908373ffffffffffffffffffffffffffffffffffffffff16021790555060408201518160010160146101000a81548162ffffff021916908360020b62ffffff16021790555060608201518160010160176101000a81548162ffffff021916908360020b62ffffff1602179055506080820151816002015560a0820151816003015560c082015181600401559050503373ffffffffffffffffffffffffffffffffffffffff16827f19c7fd3f52ff46f3dab96ff8ac8be59679992761324c4e0907c78cb7a4b8865c88888888876040516109bb95949392919061123b565b60405180910390a3506109cc610bea565b949350505050565b6109dc610c8d565b73ffffffffffffffffffffffffffffffffffffffff166109fa610291565b73ffffffffffffffffffffffffffffffffffffffff1614610a5957610a1d610c8d565b6040517f118cdaa7000000000000000000000000000000000000000000000000000000008152600401610a509190610e6c565b60405180910390fd5b565b5f5f5f9054906101000a900473ffffffffffffffffffffffffffffffffffffffff169050815f5f6101000a81548173ffffffffffffffffffffffffffffffffffffffff021916908373ffffffffffffffffffffffffffffffffffffffff1602179055508173ffffffffffffffffffffffffffffffffffffffff168173ffffffffffffffffffffffffffffffffffffffff167f8be0079c531659141344cd1fd0a4f28419497f9722a3daafe3b4186f6b6457e060405160405180910390a35050565b600260015403610b61576040517f08c379a0000000000000000000000000000000000000000000000000000000008152600401610b58906112d6565b60405180910390fd5b6002600181905550565b610be5838473ffffffffffffffffffffffffffffffffffffffff1663a9059cbb8585604051602401610b9e9291906112f4565b604051602081830303815290604052915060e01b6020820180517bffffffffffffffffffffffffffffffffffffffffffffffffffffffff8381831617835250505050610c94565b505050565b60018081905550565b610c6f848573ffffffffffffffffffffffffffffffffffffffff166323b872dd868686604051602401610c289392919061131b565b604051602081830303815290604052915060e01b6020820180517bffffffffffffffffffffffffffffffffffffffffffffffffffffffff8381831617835250505050610c94565b50505050565b5f818310610c835781610c85565b825b905092915050565b5f33905090565b5f5f60205f8451602086015f885af180610cb3576040513d5f823e3d81fd5b3d92505f519150505f8214610ccc576001811415610ce7565b5f8473ffffffffffffffffffffffffffffffffffffffff163b145b15610d2957836040517f5274afe7000000000000000000000000000000000000000000000000000000008152600401610d209190610e6c565b60405180910390fd5b50505050565b5f819050919050565b610d4181610d2f565b82525050565b5f602082019050610d5a5f830184610d38565b92915050565b5f73ffffffffffffffffffffffffffffffffffffffff82169050919050565b5f819050919050565b5f610da2610d9d610d9884610d60565b610d7f565b610d60565b9050919050565b5f610db382610d88565b9050919050565b5f610dc482610da9565b9050919050565b610dd481610dba565b82525050565b5f602082019050610ded5f830184610dcb565b92915050565b5f5ffd5b610e0081610d2f565b8114610e0a575f5ffd5b50565b5f81359050610e1b81610df7565b92915050565b5f60208284031215610e3657610e35610df3565b5b5f610e4384828501610e0d565b91505092915050565b5f610e5682610d60565b9050919050565b610e6681610e4c565b82525050565b5f602082019050610e7f5f830184610e5d565b92915050565b5f8160020b9050919050565b610e9a81610e85565b82525050565b5f60e082019050610eb35f83018a610d38565b610ec06020830189610e5d565b610ecd6040830188610e91565b610eda6060830187610e91565b610ee76080830186610d38565b610ef460a0830185610d38565b610f0160c0830184610d38565b98975050505050505050565b610f1681610e4c565b8114610f20575f5ffd5b50565b5f81359050610f3181610f0d565b92915050565b5f60208284031215610f4c57610f4b610df3565b5b5f610f5984828501610f23565b91505092915050565b610f6b81610e85565b8114610f75575f5ffd5b50565b5f81359050610f8681610f62565b92915050565b5f5f5f5f60808587031215610fa457610fa3610df3565b5b5f610fb187828801610f78565b9450506020610fc287828801610f78565b9350506040610fd387828801610e0d565b9250506060610fe487828801610e0d565b91505092959194509250565b5f82825260208201905092915050565b7f4e6f7420706f736974696f6e206f776e657200000000000000000000000000005f82015250565b5f611034601283610ff0565b915061103f82611000565b602082019050919050565b5f6020820190508181035f83015261106181611028565b9050919050565b7f506f736974696f6e20616c72656164792072656d6f76656400000000000000005f82015250565b5f61109c601883610ff0565b91506110a782611068565b602082019050919050565b5f6020820190508181035f8301526110c981611090565b9050919050565b5f6040820190506110e35f830185610d38565b6110f06020830184610d38565b9392505050565b7f496e76616c6964207469636b2072616e676500000000000000000000000000005f82015250565b5f61112b601283610ff0565b9150611136826110f7565b602082019050919050565b5f6020820190508181035f8301526111588161111f565b9050919050565b7f416d6f756e7473206d757374206265203e2030000000000000000000000000005f82015250565b5f611193601383610ff0565b915061119e8261115f565b602082019050919050565b5f6020820190508181035f8301526111c081611187565b9050919050565b7f4e487b71000000000000000000000000000000000000000000000000000000005f52601160045260245ffd5b5f6111fe82610d2f565b91507fffffffffffffffffffffffffffffffffffffffffffffffffffffffffffffffff82036112305761122f6111c7565b5b600182019050919050565b5f60a08201905061124e5f830188610e91565b61125b6020830187610e91565b6112686040830186610d38565b6112756060830185610d38565b6112826080830184610d38565b9695505050505050565b7f5265656e7472616e637947756172643a207265656e7472616e742063616c6c005f82015250565b5f6112c0601f83610ff0565b91506112cb8261128c565b602082019050919050565b5f6020820190508181035f8301526112ed816112b4565b9050919050565b5f6040820190506113075f830185610e5d565b6113146020830184610d38565b9392505050565b5f60608201905061132e5f830186610e5d565b61133b6020830185610e5d565b6113486040830184610d38565b94935050505056fea2646970667358221220233403ce7f6fc1abff3174073dd40fad6449221ddba9d611bc6a5f50a6673da964736f6c634300081d0033",
			"opcodes": "PUSH1 0xC0 PUSH1 0x40 MSTORE CALLVALUE DUP1 ISZERO PUSH2 0xF JUMPI PUSH0 PUSH0 REVERT JUMPDEST POP PUSH1 0x40 MLOAD PUSH2 0x17E4 CODESIZE SUB DUP1 PUSH2 0x17E4 DUP4 CODECOPY DUP2 DUP2 ADD PUSH1 0x40 MSTORE DUP2 ADD SWAP1 PUSH2 0x31 SWAP2 SWAP1 PUSH2 0x331 JUMP JUMPDEST CALLER PUSH0 PUSH20 0xFFFFFFFFFFFFFFFFFFFFFFFFFFFFFFFFFFFFFFFF AND DUP2 PUSH20 0xFFFFFFFFFFFFFFFFFFFFFFFFFFFFFFFFFFFFFFFF AND SUB PUSH2 0xA2 JUMPI PUSH0 PUSH1 0x40 MLOAD PUSH32 0x1E4FBDF700000000000000000000000000000000000000000000000000000000 DUP2 MSTORE PUSH1 0x4 ADD PUSH2 0x99 SWAP2 SWAP1 PUSH2 0x390 JUMP JUMPDEST PUSH1 0x40 MLOAD DUP1 SWAP2 SUB SWAP1 REVERT JUMPDEST PUSH2 0xB1 DUP2 PUSH2 0x1DF PUSH1 0x20 SHL PUSH1 0x20 SHR JUMP JUMPDEST POP PUSH1 0x1 DUP1 DUP2 SWAP1 SSTORE POP PUSH0 PUSH20 0xFFFFFFFFFFFFFFFFFFFFFFFFFFFFFFFFFFFFFFFF AND DUP4 PUSH20 0xFFFFFFFFFFFFFFFFFFFFFFFFFFFFFFFFFFFFFFFF AND EQ ISZERO DUP1 ISZERO PUSH2 0x121 JUMPI POP PUSH0 PUSH20 0xFFFFFFFFFFFFFFFFFFFFFFFFFFFFFFFFFFFFFFFF AND DUP3 PUSH20 0xFFFFFFFFFFFFFFFFFFFFFFFFFFFFFFFFFFFFFFFF AND EQ ISZERO JUMPDEST PUSH2 0x160 JUMPI PUSH1 0x40 MLOAD PUSH32 0x8C379A000000000000000000000000000000000000000000000000000000000 DUP2 MSTORE PUSH1 0x4 ADD PUSH2 0x157 SWAP1 PUSH2 0x403 JUMP JUMPDEST PUSH1 0x40 MLOAD DUP1 SWAP2 SUB SWAP1 REVERT JUMPDEST DUP3 PUSH20 0xFFFFFFFFFFFFFFFFFFFFFFFFFFFFFFFFFFFFFFFF AND PUSH1 0x80 DUP2 PUSH20 0xFFFFFFFFFFFFFFFFFFFFFFFFFFFFFFFFFFFFFFFF AND DUP2 MSTORE POP POP DUP2 PUSH20 0xFFFFFFFFFFFFFFFFFFFFFFFFFFFFFFFFFFFFFFFF AND PUSH1 0xA0 DUP2 PUSH20 0xFFFFFFFFFFFFFFFFFFFFFFFFFFFFFFFFFFFFFFFF AND DUP2 MSTORE POP POP DUP1 PUSH1 0x2 DUP2 SWAP1 SSTORE POP PUSH1 0x1 PUSH1 0x4 DUP2 SWAP1 SSTORE POP POP POP POP PUSH2 0x421 JUMP JUMPDEST PUSH0 PUSH0 PUSH0 SWAP1 SLOAD SWAP1 PUSH2 0x100 EXP SWAP1 DIV PUSH20 0xFFFFFFFFFFFFFFFFFFFFFFFFFFFFFFFFFFFFFFFF AND SWAP1 POP DUP2 PUSH0 PUSH0 PUSH2 0x100 EXP DUP2 SLOAD DUP2 PUSH20 0xFFFFFFFFFFFFFFFFFFFFFFFFFFFFFFFFFFFFFFFF MUL NOT AND SWAP1 DUP4 PUSH20 0xFFFFFFFFFFFFFFFFFFFFFFFFFFFFFFFFFFFFFFFF AND MUL OR SWAP1 SSTORE POP DUP2 PUSH20 0xFFFFFFFFFFFFFFFFFFFFFFFFFFFFFFFFFFFFFFFF AND DUP2 PUSH20 0xFFFFFFFFFFFFFFFFFFFFFFFFFFFFFFFFFFFFFFFF AND PUSH32 0x8BE0079C531659141344CD1FD0A4F28419497F9722A3DAAFE3B4186F6B6457E0 PUSH1 0x40 MLOAD PUSH1 0x40 MLOAD DUP1 SWAP2 SUB SWAP1 LOG3 POP POP JUMP JUMPDEST PUSH0 PUSH0 REVERT JUMPDEST PUSH0 PUSH20 0xFFFFFFFFFFFFFFFFFFFFFFFFFFFFFFFFFFFFFFFF DUP3 AND SWAP1 POP SWAP2 SWAP1 POP JUMP JUMPDEST PUSH0 PUSH2 0x2CD DUP3 PUSH2 0x2A4 JUMP JUMPDEST SWAP1 POP SWAP2 SWAP1 POP JUMP JUMPDEST PUSH2 0x2DD DUP2 PUSH2 0x2C3 JUMP JUMPDEST DUP2 EQ PUSH2 0x2E7 JUMPI PUSH0 PUSH0 REVERT JUMPDEST POP JUMP JUMPDEST PUSH0 DUP2 MLOAD SWAP1 POP PUSH2 0x2F8 DUP2 PUSH2 0x2D4 JUMP JUMPDEST SWAP3 SWAP2 POP POP JUMP JUMPDEST PUSH0 DUP2 SWAP1 POP SWAP2 SWAP1 POP JUMP JUMPDEST PUSH2 0x310 DUP2 PUSH2 0x2FE JUMP JUMPDEST DUP2 EQ PUSH2 0x31A JUMPI PUSH0 PUSH0 REVERT JUMPDEST POP JUMP JUMPDEST PUSH0 DUP2 MLOAD SWAP1 POP PUSH2 0x32B DUP2 PUSH2 0x307 JUMP JUMPDEST SWAP3 SWAP2 POP POP JUMP JUMPDEST PUSH0 PUSH0 PUSH0 PUSH1 0x60 DUP5 DUP7 SUB SLT ISZERO PUSH2 0x348 JUMPI PUSH2 0x347 PUSH2 0x2A0 JUMP JUMPDEST JUMPDEST PUSH0 PUSH2 0x355 DUP7 DUP3 DUP8 ADD PUSH2 0x2EA JUMP JUMPDEST SWAP4 POP POP PUSH1 0x20 PUSH2 0x366 DUP7 DUP3 DUP8 ADD PUSH2 0x2EA JUMP JUMPDEST SWAP3 POP POP PUSH1 0x40 PUSH2 0x377 DUP7 DUP3 DUP8 ADD PUSH2 0x31D JUMP JUMPDEST SWAP2 POP POP SWAP3 POP SWAP3 POP SWAP3 JUMP JUMPDEST PUSH2 0x38A DUP2 PUSH2 0x2C3 JUMP JUMPDEST DUP3 MSTORE POP POP JUMP JUMPDEST PUSH0 PUSH1 0x20 DUP3 ADD SWAP1 POP PUSH2 0x3A3 PUSH0 DUP4 ADD DUP5 PUSH2 0x381 JUMP JUMPDEST SWAP3 SWAP2 POP POP JUMP JUMPDEST PUSH0 DUP3 DUP3 MSTORE PUSH1 0x20 DUP3 ADD SWAP1 POP SWAP3 SWAP2 POP POP JUMP JUMPDEST PUSH32 0x496E76616C696420746F6B656E20616464726573730000000000000000000000 PUSH0 DUP3 ADD MSTORE POP JUMP JUMPDEST PUSH0 PUSH2 0x3ED PUSH1 0x15 DUP4 PUSH2 0x3A9 JUMP JUMPDEST SWAP2 POP PUSH2 0x3F8 DUP3 PUSH2 0x3B9 JUMP JUMPDEST PUSH1 0x20 DUP3 ADD SWAP1 POP SWAP2 SWAP1 POP JUMP JUMPDEST PUSH0 PUSH1 0x20 DUP3 ADD SWAP1 POP DUP2 DUP2 SUB PUSH0 DUP4 ADD MSTORE PUSH2 0x41A DUP2 PUSH2 0x3E1 JUMP JUMPDEST SWAP1 POP SWAP2 SWAP1 POP JUMP JUMPDEST PUSH1 0x80 MLOAD PUSH1 0xA0 MLOAD PUSH2 0x1386 PUSH2 0x45E PUSH0 CODECOPY PUSH0 DUP2 DUP2 PUSH2 0x59F ADD MSTORE DUP2 DUP2 PUSH2 0x64A ADD MSTORE PUSH2 0x7E3 ADD MSTORE PUSH0 DUP2 DUP2 PUSH2 0x20D ADD MSTORE DUP2 DUP2 PUSH2 0x550 ADD MSTORE PUSH2 0x796 ADD MSTORE PUSH2 0x1386 PUSH0 RETURN INVALID PUSH1 0x80 PUSH1 0x40 MSTORE CALLVALUE DUP1 ISZERO PUSH2 0xF JUMPI PUSH0 PUSH0 REVERT JUMPDEST POP PUSH1 0x4 CALLDATASIZE LT PUSH2 0xA7 JUMPI PUSH0 CALLDATALOAD PUSH1 0xE0 SHR DUP1 PUSH4 0x8DA5CB5B GT PUSH2 0x6F JUMPI DUP1 PUSH4 0x8DA5CB5B EQ PUSH2 0x12B JUMPI DUP1 PUSH4 0x99FBAB88 EQ PUSH2 0x149 JUMPI DUP1 PUSH4 0x9C8F9F23 EQ PUSH2 0x17F JUMPI DUP1 PUSH4 0xD21220A7 EQ PUSH2 0x19B JUMPI DUP1 PUSH4 0xF2FDE38B EQ PUSH2 0x1B9 JUMPI DUP1 PUSH4 0xFD87F9AA EQ PUSH2 0x1D5 JUMPI PUSH2 0xA7 JUMP JUMPDEST DUP1 PUSH4 0x65E5360 EQ PUSH2 0xAB JUMPI DUP1 PUSH4 0xDFE1681 EQ PUSH2 0xC9 JUMPI DUP1 PUSH4 0x291DF278 EQ PUSH2 0xE7 JUMPI DUP1 PUSH4 0x715018A6 EQ PUSH2 0x103 JUMPI DUP1 PUSH4 0x899346C7 EQ PUSH2 0x10D JUMPI JUMPDEST PUSH0 PUSH0 REVERT JUMPDEST PUSH2 0xB3 PUSH2 0x205 JUMP JUMPDEST PUSH1 0x40 MLOAD PUSH2 0xC0 SWAP2 SWAP1 PUSH2 0xD47 JUMP JUMPDEST PUSH1 0x40 MLOAD DUP1 SWAP2 SUB SWAP1 RETURN JUMPDEST PUSH2 0xD1 PUSH2 0x20B JUMP JUMPDEST PUSH1 0x40 MLOAD PUSH2 0xDE SWAP2 SWAP1 PUSH2 0xDDA JUMP JUMPDEST PUSH1 0x40 MLOAD DUP1 SWAP2 SUB SWAP1 RETURN JUMPDEST PUSH2 0x101 PUSH1 0x4 DUP1 CALLDATASIZE SUB DUP2 ADD SWAP1 PUSH2 0xFC SWAP2 SWAP1 PUSH2 0xE21 JUMP JUMPDEST PUSH2 0x22F JUMP JUMPDEST STOP JUMPDEST PUSH2 0x10B PUSH2 0x278 JUMP JUMPDEST STOP JUMPDEST PUSH2 0x115 PUSH2 0x28B JUMP JUMPDEST PUSH1 0x40 MLOAD PUSH2 0x122 SWAP2 SWAP1 PUSH2 0xD47 JUMP JUMPDEST PUSH1 0x40 MLOAD DUP1 SWAP2 SUB SWAP1 RETURN JUMPDEST PUSH2 0x133 PUSH2 0x291 JUMP JUMPDEST PUSH1 0x40 MLOAD PUSH2 0x140 SWAP2 SWAP1 PUSH2 0xE6C JUMP JUMPDEST PUSH1 0x40 MLOAD DUP1 SWAP2 SUB SWAP1 RETURN JUMPDEST PUSH2 0x163 PUSH1 0x4 DUP1 CALLDATASIZE SUB DUP2 ADD SWAP1 PUSH2 0x15E SWAP2 SWAP1 PUSH2 0xE21 JUMP JUMPDEST PUSH2 0x2B8 JUMP JUMPDEST PUSH1 0x40 MLOAD PUSH2 0x176 SWAP8 SWAP7 SWAP6 SWAP5 SWAP4 SWAP3 SWAP2 SWAP1 PUSH2 0xEA0 JUMP JUMPDEST PUSH1 0x40 MLOAD DUP1 SWAP2 SUB SWAP1 RETURN JUMPDEST PUSH2 0x199 PUSH1 0x4 DUP1 CALLDATASIZE SUB DUP2 ADD SWAP1 PUSH2 0x194 SWAP2 SWAP1 PUSH2 0xE21 JUMP JUMPDEST PUSH2 0x32F JUMP JUMPDEST STOP JUMPDEST PUSH2 0x1A3 PUSH2 0x648 JUMP JUMPDEST PUSH1 0x40 MLOAD PUSH2 0x1B0 SWAP2 SWAP1 PUSH2 0xDDA JUMP JUMPDEST PUSH1 0x40 MLOAD DUP1 SWAP2 SUB SWAP1 RETURN JUMPDEST PUSH2 0x1D3 PUSH1 0x4 DUP1 CALLDATASIZE SUB DUP2 ADD SWAP1 PUSH2 0x1CE SWAP2 SWAP1 PUSH2 0xF37 JUMP JUMPDEST PUSH2 0x66C JUMP JUMPDEST STOP JUMPDEST PUSH2 0x1EF PUSH1 0x4 DUP1 CALLDATASIZE SUB DUP2 ADD SWAP1 PUSH2 0x1EA SWAP2 SWAP1 PUSH2 0xF8C JUMP JUMPDEST PUSH2 0x6F0 JUMP JUMPDEST PUSH1 0x40 MLOAD PUSH2 0x1FC SWAP2 SWAP1 PUSH2 0xD47 JUMP JUMPDEST PUSH1 0x40 MLOAD DUP1 SWAP2 SUB SWAP1 RETURN JUMPDEST PUSH1 0x2 SLOAD DUP2 JUMP JUMPDEST PUSH32 0x0 DUP2 JUMP JUMPDEST PUSH2 0x237 PUSH2 0x9D4 JUMP JUMPDEST DUP1 PUSH1 0x2 DUP2 SWAP1 SSTORE POP PUSH32 0xCA2410361DF736E1AF5D81999E916CEC0B435BF16BC69B5A209BE194F88BEC4D DUP2 PUSH1 0x40 MLOAD PUSH2 0x26D SWAP2 SWAP1 PUSH2 0xD47 JUMP JUMPDEST PUSH1 0x40 MLOAD DUP1 SWAP2 SUB SWAP1 LOG1 POP JUMP JUMPDEST PUSH2 0x280 PUSH2 0x9D4 JUMP JUMPDEST PUSH2 0x289 PUSH0 PUSH2 0xA5B JUMP JUMPDEST JUMP JUMPDEST PUSH1 0x4 SLOAD DUP2 JUMP JUMPDEST PUSH0 PUSH0 PUSH0 SWAP1 SLOAD SWAP1 PUSH2 0x100 EXP SWAP1 DIV PUSH20 0xFFFFFFFFFFFFFFFFFFFFFFFFFFFFFFFFFFFFFFFF AND SWAP1 POP SWAP1 JUMP JUMPDEST PUSH1 0x3 PUSH1 0x20 MSTORE DUP1 PUSH0 MSTORE PUSH1 0x40 PUSH0 KECCAK256 PUSH0 SWAP2 POP SWAP1 POP DUP1 PUSH0 ADD SLOAD SWAP1 DUP1 PUSH1 0x1 ADD PUSH0 SWAP1 SLOAD SWAP1 PUSH2 0x100 EXP SWAP1 DIV PUSH20 0xFFFFFFFFFFFFFFFFFFFFFFFFFFFFFFFFFFFFFFFF AND SWAP1 DUP1 PUSH1 0x1 ADD PUSH1 0x14 SWAP1 SLOAD SWAP1 PUSH2 0x100 EXP SWAP1 DIV PUSH1 0x2 SIGNEXTEND SWAP1 DUP1 PUSH1 0x1 ADD PUSH1 0x17 SWAP1 SLOAD SWAP1 PUSH2 0x100 EXP SWAP1 DIV PUSH1 0x2 SIGNEXTEND SWAP1 DUP1 PUSH1 0x2 ADD SLOAD SWAP1 DUP1 PUSH1 0x3 ADD SLOAD SWAP1 DUP1 PUSH1 0x4 ADD SLOAD SWAP1 POP DUP8 JUMP JUMPDEST PUSH2 0x337 PUSH2 0xB1C JUMP JUMPDEST PUSH0 PUSH1 0x3 PUSH0 DUP4 DUP2 MSTORE PUSH1 0x20 ADD SWAP1 DUP2 MSTORE PUSH1 0x20 ADD PUSH0 KECCAK256 PUSH1 0x40 MLOAD DUP1 PUSH1 0xE0 ADD PUSH1 0x40 MSTORE SWAP1 DUP2 PUSH0 DUP3 ADD SLOAD DUP2 MSTORE PUSH1 0x20 ADD PUSH1 0x1 DUP3 ADD PUSH0 SWAP1 SLOAD SWAP1 PUSH2 0x100 EXP SWAP1 DIV PUSH20 0xFFFFFFFFFFFFFFFFFFFFFFFFFFFFFFFFFFFFFFFF AND PUSH20 0xFFFFFFFFFFFFFFFFFFFFFFFFFFFFFFFFFFFFFFFF AND PUSH20 0xFFFFFFFFFFFFFFFFFFFFFFFFFFFFFFFFFFFFFFFF AND DUP2 MSTORE PUSH1 0x20 ADD PUSH1 0x1 DUP3 ADD PUSH1 0x14 SWAP1 SLOAD SWAP1 PUSH2 0x100 EXP SWAP1 DIV PUSH1 0x2 SIGNEXTEND PUSH1 0x2 SIGNEXTEND PUSH1 0x2 SIGNEXTEND DUP2 MSTORE PUSH1 0x20 ADD PUSH1 0x1 DUP3 ADD PUSH1 0x17 SWAP1 SLOAD SWAP1 PUSH2 0x100 EXP SWAP1 DIV PUSH1 0x2 SIGNEXTEND PUSH1 0x2 SIGNEXTEND PUSH1 0x2 SIGNEXTEND DUP2 MSTORE PUSH1 0x20 ADD PUSH1 0x2 DUP3 ADD SLOAD DUP2 MSTORE PUSH1 0x20 ADD PUSH1 0x3 DUP3 ADD SLOAD DUP2 MSTORE PUSH1 0x20 ADD PUSH1 0x4 DUP3 ADD SLOAD DUP2 MSTORE POP POP SWAP1 POP CALLER PUSH20 0xFFFFFFFFFFFFFFFFFFFFFFFFFFFFFFFFFFFFFFFF AND DUP2 PUSH1 0x20 ADD MLOAD PUSH20 0xFFFFFFFFFFFFFFFFFFFFFFFFFFFFFFFFFFFFFFFF AND EQ PUSH2 0x47E JUMPI PUSH1 0x40 MLOAD PUSH32 0x8C379A000000000000000000000000000000000000000000000000000000000 DUP2 MSTORE PUSH1 0x4 ADD PUSH2 0x475 SWAP1 PUSH2 0x104A JUMP JUMPDEST PUSH1 0x40 MLOAD DUP1 SWAP2 SUB SWAP1 REVERT JUMPDEST PUSH0 DUP2 PUSH1 0xC0 ADD MLOAD GT PUSH2 0x4C4 JUMPI PUSH1 0x40 MLOAD PUSH32 0x8C379A000000000000000000000000000000000000000000000000000000000 DUP2 MSTORE PUSH1 0x4 ADD PUSH2 0x4BB SWAP1 PUSH2 0x10B2 JUMP JUMPDEST PUSH1 0x40 MLOAD DUP1 SWAP2 SUB SWAP1 REVERT JUMPDEST PUSH1 0x3 PUSH0 DUP4 DUP2 MSTORE PUSH1 0x20 ADD SWAP1 DUP2 MSTORE PUSH1 0x20 ADD PUSH0 KECCAK256 PUSH0 PUSH0 DUP3 ADD PUSH0 SWAP1 SSTORE PUSH1 0x1 DUP3 ADD PUSH0 PUSH2 0x100 EXP DUP2 SLOAD SWAP1 PUSH20 0xFFFFFFFFFFFFFFFFFFFFFFFFFFFFFFFFFFFFFFFF MUL NOT AND SWAP1 SSTORE PUSH1 0x1 DUP3 ADD PUSH1 0x14 PUSH2 0x100 EXP DUP2 SLOAD SWAP1 PUSH3 0xFFFFFF MUL NOT AND SWAP1 SSTORE PUSH1 0x1 DUP3 ADD PUSH1 0x17 PUSH2 0x100 EXP DUP2 SLOAD SWAP1 PUSH3 0xFFFFFF MUL NOT AND SWAP1 SSTORE PUSH1 0x2 DUP3 ADD PUSH0 SWAP1 SSTORE PUSH1 0x3 DUP3 ADD PUSH0 SWAP1 SSTORE PUSH1 0x4 DUP3 ADD PUSH0 SWAP1 SSTORE POP POP PUSH2 0x594 CALLER DUP3 PUSH1 0x80 ADD MLOAD PUSH32 0x0 PUSH20 0xFFFFFFFFFFFFFFFFFFFFFFFFFFFFFFFFFFFFFFFF AND PUSH2 0xB6B SWAP1 SWAP3 SWAP2 SWAP1 PUSH4 0xFFFFFFFF AND JUMP JUMPDEST PUSH2 0x5E3 CALLER DUP3 PUSH1 0xA0 ADD MLOAD PUSH32 0x0 PUSH20 0xFFFFFFFFFFFFFFFFFFFFFFFFFFFFFFFFFFFFFFFF AND PUSH2 0xB6B SWAP1 SWAP3 SWAP2 SWAP1 PUSH4 0xFFFFFFFF AND JUMP JUMPDEST CALLER PUSH20 0xFFFFFFFFFFFFFFFFFFFFFFFFFFFFFFFFFFFFFFFF AND DUP3 PUSH32 0x196A4BF617B45641F176C4E6D288CCF7498F1699F68B1CC1E4DAADF92779703B DUP4 PUSH1 0x80 ADD MLOAD DUP5 PUSH1 0xA0 ADD MLOAD PUSH1 0x40 MLOAD PUSH2 0x634 SWAP3 SWAP2 SWAP1 PUSH2 0x10D0 JUMP JUMPDEST PUSH1 0x40 MLOAD DUP1 SWAP2 SUB SWAP1 LOG3 POP PUSH2 0x645 PUSH2 0xBEA JUMP JUMPDEST POP JUMP JUMPDEST PUSH32 0x0 DUP2 JUMP JUMPDEST PUSH2 0x674 PUSH2 0x9D4 JUMP JUMPDEST PUSH0 PUSH20 0xFFFFFFFFFFFFFFFFFFFFFFFFFFFFFFFFFFFFFFFF AND DUP2 PUSH20 0xFFFFFFFFFFFFFFFFFFFFFFFFFFFFFFFFFFFFFFFF AND SUB PUSH2 0x6E4 JUMPI PUSH0 PUSH1 0x40 MLOAD PUSH32 0x1E4FBDF700000000000000000000000000000000000000000000000000000000 DUP2 MSTORE PUSH1 0x4 ADD PUSH2 0x6DB SWAP2 SWAP1 PUSH2 0xE6C JUMP JUMPDEST PUSH1 0x40 MLOAD DUP1 SWAP2 SUB SWAP1 REVERT JUMPDEST PUSH2 0x6ED DUP2 PUSH2 0xA5B JUMP JUMPDEST POP JUMP JUMPDEST PUSH0 PUSH2 0x6F9 PUSH2 0xB1C JUMP JUMPDEST DUP4 PUSH1 0x2 SIGNEXTEND DUP6 PUSH1 0x2 SIGNEXTEND SLT PUSH2 0x741 JUMPI PUSH1 0x40 MLOAD PUSH32 0x8C379A000000000000000000000000000000000000000000000000000000000 DUP2 MSTORE PUSH1 0x4 ADD PUSH2 0x738 SWAP1 PUSH2 0x1141 JUMP JUMPDEST PUSH1 0x40 MLOAD DUP1 SWAP2 SUB SWAP1 REVERT JUMPDEST PUSH0 DUP4 GT DUP1 ISZERO PUSH2 0x74F JUMPI POP PUSH0 DUP3 GT JUMPDEST PUSH2 0x78E JUMPI PUSH1 0x40 MLOAD PUSH32 0x8C379A000000000000000000000000000000000000000000000000000000000 DUP2 MSTORE PUSH1 0x4 ADD PUSH2 0x785 SWAP1 PUSH2 0x11A9 JUMP JUMPDEST PUSH1 0x40 MLOAD DUP1 SWAP2 SUB SWAP1 REVERT JUMPDEST PUSH2 0x7DB CALLER ADDRESS DUP6 PUSH32 0x0 PUSH20 0xFFFFFFFFFFFFFFFFFFFFFFFFFFFFFFFFFFFFFFFF AND PUSH2 0xBF3 SWAP1 SWAP4 SWAP3 SWAP2 SWAP1 PUSH4 0xFFFFFFFF AND JUMP JUMPDEST PUSH2 0x828 CALLER ADDRESS DUP5 PUSH32 0x0 PUSH20 0xFFFFFFFFFFFFFFFFFFFFFFFFFFFFFFFFFFFFFFFF AND PUSH2 0xBF3 SWAP1 SWAP4 SWAP3 SWAP2 SWAP1 PUSH4 0xFFFFFFFF AND JUMP JUMPDEST PUSH0 PUSH2 0x833 DUP5 DUP5 PUSH2 0xC75 JUMP JUMPDEST SWAP1 POP PUSH1 0x4 PUSH0 DUP2 SLOAD DUP1 SWAP3 SWAP2 SWAP1 PUSH2 0x847 SWAP1 PUSH2 0x11F4 JUMP JUMPDEST SWAP2 SWAP1 POP SSTORE SWAP2 POP PUSH1 0x40 MLOAD DUP1 PUSH1 0xE0 ADD PUSH1 0x40 MSTORE DUP1 DUP4 DUP2 MSTORE PUSH1 0x20 ADD CALLER PUSH20 0xFFFFFFFFFFFFFFFFFFFFFFFFFFFFFFFFFFFFFFFF AND DUP2 MSTORE PUSH1 0x20 ADD DUP8 PUSH1 0x2 SIGNEXTEND DUP2 MSTORE PUSH1 0x20 ADD DUP7 PUSH1 0x2 SIGNEXTEND DUP2 MSTORE PUSH1 0x20 ADD DUP6 DUP2 MSTORE PUSH1 0x20 ADD DUP5 DUP2 MSTORE PUSH1 0x20 ADD DUP3 DUP2 MSTORE POP PUSH1 0x3 PUSH0 DUP5 DUP2 MSTORE PUSH1 0x20 ADD SWAP1 DUP2 MSTORE PUSH1 0x20 ADD PUSH0 KECCAK256 PUSH0 DUP3 ADD MLOAD DUP2 PUSH0 ADD SSTORE PUSH1 0x20 DUP3 ADD MLOAD DUP2 PUSH1 0x1 ADD PUSH0 PUSH2 0x100 EXP DUP2 SLOAD DUP2 PUSH20 0xFFFFFFFFFFFFFFFFFFFFFFFFFFFFFFFFFFFFFFFF MUL NOT AND SWAP1 DUP4 PUSH20 0xFFFFFFFFFFFFFFFFFFFFFFFFFFFFFFFFFFFFFFFF AND MUL OR SWAP1 SSTORE POP PUSH1 0x40 DUP3 ADD MLOAD DUP2 PUSH1 0x1 ADD PUSH1 0x14 PUSH2 0x100 EXP DUP2 SLOAD DUP2 PUSH3 0xFFFFFF MUL NOT AND SWAP1 DUP4 PUSH1 0x2 SIGNEXTEND PUSH3 0xFFFFFF AND MUL OR SWAP1 SSTORE POP PUSH1 0x60 DUP3 ADD MLOAD DUP2 PUSH1 0x1 ADD PUSH1 0x17 PUSH2 0x100 EXP DUP2 SLOAD DUP2 PUSH3 0xFFFFFF MUL NOT AND SWAP1 DUP4 PUSH1 0x2 SIGNEXTEND PUSH3 0xFFFFFF AND MUL OR SWAP1 SSTORE POP PUSH1 0x80 DUP3 ADD MLOAD DUP2 PUSH1 0x2 ADD SSTORE PUSH1 0xA0 DUP3 ADD MLOAD DUP2 PUSH1 0x3 ADD SSTORE PUSH1 0xC0 DUP3 ADD MLOAD DUP2 PUSH1 0x4 ADD SSTORE SWAP1 POP POP CALLER PUSH20 0xFFFFFFFFFFFFFFFFFFFFFFFFFFFFFFFFFFFFFFFF AND DUP3 PUSH32 0x19C7FD3F52FF46F3DAB96FF8AC8BE59679992761324C4E0907C78CB7A4B8865C DUP9 DUP9 DUP9 DUP9 DUP8 PUSH1 0x40 MLOAD PUSH2 0x9BB SWAP6 SWAP5 SWAP4 SWAP3 SWAP2 SWAP1 PUSH2 0x123B JUMP JUMPDEST PUSH1 0x40 MLOAD DUP1 SWAP2 SUB SWAP1 LOG3 POP PUSH2 0x9CC PUSH2 0xBEA JUMP JUMPDEST SWAP5 SWAP4 POP POP POP POP JUMP JUMPDEST PUSH2 0x9DC PUSH2 0xC8D JUMP JUMPDEST PUSH20 0xFFFFFFFFFFFFFFFFFFFFFFFFFFFFFFFFFFFFFFFF AND PUSH2 0x9FA PUSH2 0x291 JUMP JUMPDEST PUSH20 0xFFFFFFFFFFFFFFFFFFFFFFFFFFFFFFFFFFFFFFFF AND EQ PUSH2 0xA59 JUMPI PUSH2 0xA1D PUSH2 0xC8D JUMP JUMPDEST PUSH1 0x40 MLOAD PUSH32 0x118CDAA700000000000000000000000000000000000000000000000000000000 DUP2 MSTORE PUSH1 0x4 ADD PUSH2 0xA50 SWAP2 SWAP1 PUSH2 0xE6C JUMP JUMPDEST PUSH1 0x40 MLOAD DUP1 SWAP2 SUB SWAP1 REVERT JUMPDEST JUMP JUMPDEST PUSH0 PUSH0 PUSH0 SWAP1 SLOAD SWAP1 PUSH2 0x100 EXP SWAP1 DIV PUSH20 0xFFFFFFFFFFFFFFFFFFFFFFFFFFFFFFFFFFFFFFFF AND SWAP1 POP DUP2 PUSH0 PUSH0 PUSH2 0x100 EXP DUP2 SLOAD DUP2 PUSH20 0xFFFFFFFFFFFFFFFFFFFFFFFFFFFFFFFFFFFFFFFF MUL NOT AND SWAP1 DUP4 PUSH20 0xFFFFFFFFFFFFFFFFFFFFFFFFFFFFFFFFFFFFFFFF AND MUL OR SWAP1 SSTORE POP DUP2 PUSH20 0xFFFFFFFFFFFFFFFFFFFFFFFFFFFFFFFFFFFFFFFF AND DUP2 PUSH20 0xFFFFFFFFFFFFFFFFFFFFFFFFFFFFFFFFFFFFFFFF AND PUSH32 0x8BE0079C531659141344CD1FD0A4F28419497F9722A3DAAFE3B4186F6B6457E0 PUSH1 0x40 MLOAD PUSH1 0x40 MLOAD DUP1 SWAP2 SUB SWAP1 LOG3 POP POP JUMP JUMPDEST PUSH1 0x2 PUSH1 0x1 SLOAD SUB PUSH2 0xB61 JUMPI PUSH1 0x40 MLOAD PUSH32 0x8C379A000000000000000000000000000000000000000000000000000000000 DUP2 MSTORE PUSH1 0x4 ADD PUSH2 0xB58 SWAP1 PUSH2 0x12D6 JUMP JUMPDEST PUSH1 0x40 MLOAD DUP1 SWAP2 SUB SWAP1 REVERT JUMPDEST PUSH1 0x2 PUSH1 0x1 DUP2 SWAP1 SSTORE POP JUMP JUMPDEST PUSH2 0xBE5 DUP4 DUP5 PUSH20 0xFFFFFFFFFFFFFFFFFFFFFFFFFFFFFFFFFFFFFFFF AND PUSH4 0xA9059CBB DUP6 DUP6 PUSH1 0x40 MLOAD PUSH1 0x24 ADD PUSH2 0xB9E SWAP3 SWAP2 SWAP1 PUSH2 0x12F4 JUMP JUMPDEST PUSH1 0x40 MLOAD PUSH1 0x20 DUP2 DUP4 SUB SUB DUP2 MSTORE SWAP1 PUSH1 0x40 MSTORE SWAP2 POP PUSH1 0xE0 SHL PUSH1 0x20 DUP3 ADD DUP1 MLOAD PUSH28 0xFFFFFFFFFFFFFFFFFFFFFFFFFFFFFFFFFFFFFFFFFFFFFFFFFFFFFFFF DUP4 DUP2 DUP4 AND OR DUP4 MSTORE POP POP POP POP PUSH2 0xC94 JUMP JUMPDEST POP POP POP JUMP JUMPDEST PUSH1 0x1 DUP1 DUP2 SWAP1 SSTORE POP JUMP JUMPDEST PUSH2 0xC6F DUP5 DUP6 PUSH20 0xFFFFFFFFFFFFFFFFFFFFFFFFFFFFFFFFFFFFFFFF AND PUSH4 0x23B872DD DUP7 DUP7 DUP7 PUSH1 0x40 MLOAD PUSH1 0x24 ADD PUSH2 0xC28 SWAP4 SWAP3 SWAP2 SWAP1 PUSH2 0x131B JUMP JUMPDEST PUSH1 0x40 MLOAD PUSH1 0x20 DUP2 DUP4 SUB SUB DUP2 MSTORE SWAP1 PUSH1 0x40 MSTORE SWAP2 POP PUSH1 0xE0 SHL PUSH1 0x20 DUP3 ADD DUP1 MLOAD PUSH28 0xFFFFFFFFFFFFFFFFFFFFFFFFFFFFFFFFFFFFFFFFFFFFFFFFFFFFFFFF DUP4 DUP2 DUP4 AND OR DUP4 MSTORE POP POP POP POP PUSH2 0xC94 JUMP JUMPDEST POP POP POP POP JUMP JUMPDEST PUSH0 DUP2 DUP4 LT PUSH2 0xC83 JUMPI DUP2 PUSH2 0xC85 JUMP JUMPDEST DUP3 JUMPDEST SWAP1 POP SWAP3 SWAP2 POP POP JUMP JUMPDEST PUSH0 CALLER SWAP1 POP SWAP1 JUMP JUMPDEST PUSH0 PUSH0 PUSH1 0x20 PUSH0 DUP5 MLOAD PUSH1 0x20 DUP7 ADD PUSH0 DUP9 GAS CALL DUP1 PUSH2 0xCB3 JUMPI PUSH1 0x40 MLOAD RETURNDATASIZE PUSH0 DUP3 RETURNDATACOPY RETURNDATASIZE DUP2 REVERT JUMPDEST RETURNDATASIZE SWAP3 POP PUSH0 MLOAD SWAP2 POP POP PUSH0 DUP3 EQ PUSH2 0xCCC JUMPI PUSH1 0x1 DUP2 EQ ISZERO PUSH2 0xCE7 JUMP JUMPDEST PUSH0 DUP5 PUSH20 0xFFFFFFFFFFFFFFFFFFFFFFFFFFFFFFFFFFFFFFFF AND EXTCODESIZE EQ JUMPDEST ISZERO PUSH2 0xD29 JUMPI DUP4 PUSH1 0x40 MLOAD PUSH32 0x5274AFE700000000000000000000000000000000000000000000000000000000 DUP2 MSTORE PUSH1 0x4 ADD PUSH2 0xD20 SWAP2 SWAP1 PUSH2 0xE6C JUMP JUMPDEST PUSH1 0x40 MLOAD DUP1 SWAP2 SUB SWAP1 REVERT JUMPDEST POP POP POP POP JUMP JUMPDEST PUSH0 DUP2 SWAP1 POP SWAP2 SWAP1 POP JUMP JUMPDEST PUSH2 0xD41 DUP2 PUSH2 0xD2F JUMP JUMPDEST DUP3 MSTORE POP POP JUMP JUMPDEST PUSH0 PUSH1 0x20 DUP3 ADD SWAP1 POP PUSH2 0xD5A PUSH0 DUP4 ADD DUP5 PUSH2 0xD38 JUMP JUMPDEST SWAP3 SWAP2 POP POP JUMP JUMPDEST PUSH0 PUSH20 0xFFFFFFFFFFFFFFFFFFFFFFFFFFFFFFFFFFFFFFFF DUP3 AND SWAP1 POP SWAP2 SWAP1 POP JUMP JUMPDEST PUSH0 DUP2 SWAP1 POP SWAP2 SWAP1 POP JUMP JUMPDEST PUSH0 PUSH2 0xDA2 PUSH2 0xD9D PUSH2 0xD98 DUP5 PUSH2 0xD60 JUMP JUMPDEST PUSH2 0xD7F JUMP JUMPDEST PUSH2 0xD60 JUMP JUMPDEST SWAP1 POP SWAP2 SWAP1 POP JUMP JUMPDEST PUSH0 PUSH2 0xDB3 DUP3 PUSH2 0xD88 JUMP JUMPDEST SWAP1 POP SWAP2 SWAP1 POP JUMP JUMPDEST PUSH0 PUSH2 0xDC4 DUP3 PUSH2 0xDA9 JUMP JUMPDEST SWAP1 POP SWAP2 SWAP1 POP JUMP JUMPDEST PUSH2 0xDD4 DUP2 PUSH2 0xDBA JUMP JUMPDEST DUP3 MSTORE POP POP JUMP JUMPDEST PUSH0 PUSH1 0x20 DUP3 ADD SWAP1 POP PUSH2 0xDED PUSH0 DUP4 ADD DUP5 PUSH2 0xDCB JUMP JUMPDEST SWAP3 SWAP2 POP POP JUMP JUMPDEST PUSH0 PUSH0 REVERT JUMPDEST PUSH2 0xE00 DUP2 PUSH2 0xD2F JUMP JUMPDEST DUP2 EQ PUSH2 0xE0A JUMPI PUSH0 PUSH0 REVERT JUMPDEST POP JUMP JUMPDEST PUSH0 DUP2 CALLDATALOAD SWAP1 POP PUSH2 0xE1B DUP2 PUSH2 0xDF7 JUMP JUMPDEST SWAP3 SWAP2 POP POP JUMP JUMPDEST PUSH0 PUSH1 0x20 DUP3 DUP5 SUB SLT ISZERO PUSH2 0xE36 JUMPI PUSH2 0xE35 PUSH2 0xDF3 JUMP JUMPDEST JUMPDEST PUSH0 PUSH2 0xE43 DUP5 DUP3 DUP6 ADD PUSH2 0xE0D JUMP JUMPDEST SWAP2 POP POP SWAP3 SWAP2 POP POP JUMP JUMPDEST PUSH0 PUSH2 0xE56 DUP3 PUSH2 0xD60 JUMP JUMPDEST SWAP1 POP SWAP2 SWAP1 POP JUMP JUMPDEST PUSH2 0xE66 DUP2 PUSH2 0xE4C JUMP JUMPDEST DUP3 MSTORE POP POP JUMP JUMPDEST PUSH0 PUSH1 0x20 DUP3 ADD SWAP1 POP PUSH2 0xE7F PUSH0 DUP4 ADD DUP5 PUSH2 0xE5D JUMP JUMPDEST SWAP3 SWAP2 POP POP JUMP JUMPDEST PUSH0 DUP2 PUSH1 0x2 SIGNEXTEND SWAP1 POP SWAP2 SWAP1 POP JUMP JUMPDEST PUSH2 0xE9A DUP2 PUSH2 0xE85 JUMP JUMPDEST DUP3 MSTORE POP POP JUMP JUMPDEST PUSH0 PUSH1 0xE0 DUP3 ADD SWAP1 POP PUSH2 0xEB3 PUSH0 DUP4 ADD DUP11 PUSH2 0xD38 JUMP JUMPDEST PUSH2 0xEC0 PUSH1 0x20 DUP4 ADD DUP10 PUSH2 0xE5D JUMP JUMPDEST PUSH2 0xECD PUSH1 0x40 DUP4 ADD DUP9 PUSH2 0xE91 JUMP JUMPDEST PUSH2 0xEDA PUSH1 0x60 DUP4 ADD DUP8 PUSH2 0xE91 JUMP JUMPDEST PUSH2 0xEE7 PUSH1 0x80 DUP4 ADD DUP7 PUSH2 0xD38 JUMP JUMPDEST PUSH2 0xEF4 PUSH1 0xA0 DUP4 ADD DUP6 PUSH2 0xD38 JUMP JUMPDEST PUSH2 0xF01 PUSH1 0xC0 DUP4 ADD DUP5 PUSH2 0xD38 JUMP JUMPDEST SWAP9 SWAP8 POP POP POP POP POP POP POP POP JUMP JUMPDEST PUSH2 0xF16 DUP2 PUSH2 0xE4C JUMP JUMPDEST DUP2 EQ PUSH2 0xF20 JUMPI PUSH0 PUSH0 REVERT JUMPDEST POP JUMP JUMPDEST PUSH0 DUP2 CALLDATALOAD SWAP1 POP PUSH2 0xF31 DUP2 PUSH2 0xF0D JUMP JUMPDEST SWAP3 SWAP2 POP POP JUMP JUMPDEST PUSH0 PUSH1 0x20 DUP3 DUP5 SUB SLT ISZERO PUSH2 0xF4C JUMPI PUSH2 0xF4B PUSH2 0xDF3 JUMP JUMPDEST JUMPDEST PUSH0 PUSH2 0xF59 DUP5 DUP3 DUP6 ADD PUSH2 0xF23 JUMP JUMPDEST SWAP2 POP POP SWAP3 SWAP2 POP POP JUMP JUMPDEST PUSH2 0xF6B DUP2 PUSH2 0xE85 JUMP JUMPDEST DUP2 EQ PUSH2 0xF75 JUMPI PUSH0 PUSH0 REVERT JUMPDEST POP JUMP JUMPDEST PUSH0 DUP2 CALLDATALOAD SWAP1 POP PUSH2 0xF86 DUP2 PUSH2 0xF62 JUMP JUMPDEST SWAP3 SWAP2 POP POP JUMP JUMPDEST PUSH0 PUSH0 PUSH0 PUSH0 PUSH1 0x80 DUP6 DUP8 SUB SLT ISZERO PUSH2 0xFA4 JUMPI PUSH2 0xFA3 PUSH2 0xDF3 JUMP JUMPDEST JUMPDEST PUSH0 PUSH2 0xFB1 DUP8 DUP3 DUP9 ADD PUSH2 0xF78 JUMP JUMPDEST SWAP5 POP POP PUSH1 0x20 PUSH2 0xFC2 DUP8 DUP3 DUP9 ADD PUSH2 0xF78 JUMP JUMPDEST SWAP4 POP POP PUSH1 0x40 PUSH2 0xFD3 DUP8 DUP3 DUP9 ADD PUSH2 0xE0D JUMP JUMPDEST SWAP3 POP POP PUSH1 0x60 PUSH2 0xFE4 DUP8 DUP3 DUP9 ADD PUSH2 0xE0D JUMP JUMPDEST SWAP2 POP POP SWAP3 SWAP6 SWAP2 SWAP5 POP SWAP3 POP JUMP JUMPDEST PUSH0 DUP3 DUP3 MSTORE PUSH1 0x20 DUP3 ADD SWAP1 POP SWAP3 SWAP2 POP POP JUMP JUMPDEST PUSH32 0x4E6F7420706F736974696F6E206F776E65720000000000000000000000000000 PUSH0 DUP3 ADD MSTORE POP JUMP JUMPDEST PUSH0 PUSH2 0x1034 PUSH1 0x12 DUP4 PUSH2 0xFF0 JUMP JUMPDEST SWAP2 POP PUSH2 0x103F DUP3 PUSH2 0x1000 JUMP JUMPDEST PUSH1 0x20 DUP3 ADD SWAP1 POP SWAP2 SWAP1 POP JUMP JUMPDEST PUSH0 PUSH1 0x20 DUP3 ADD SWAP1 POP DUP2 DUP2 SUB PUSH0 DUP4 ADD MSTORE PUSH2 0x1061 DUP2 PUSH2 0x1028 JUMP JUMPDEST SWAP1 POP SWAP2 SWAP1 POP JUMP JUMPDEST PUSH32 0x506F736974696F6E20616C72656164792072656D6F7665640000000000000000 PUSH0 DUP3 ADD MSTORE POP JUMP JUMPDEST PUSH0 PUSH2 0x109C PUSH1 0x18 DUP4 PUSH2 0xFF0 JUMP JUMPDEST SWAP2 POP PUSH2 0x10A7 DUP3 PUSH2 0x1068 JUMP JUMPDEST PUSH1 0x20 DUP3 ADD SWAP1 POP SWAP2 SWAP1 POP JUMP JUMPDEST PUSH0 PUSH1 0x20 DUP3 ADD SWAP1 POP DUP2 DUP2 SUB PUSH0 DUP4 ADD MSTORE PUSH2 0x10C9 DUP2 PUSH2 0x1090 JUMP JUMPDEST SWAP1 POP SWAP2 SWAP1 POP JUMP JUMPDEST PUSH0 PUSH1 0x40 DUP3 ADD SWAP1 POP PUSH2 0x10E3 PUSH0 DUP4 ADD DUP6 PUSH2 0xD38 JUMP JUMPDEST PUSH2 0x10F0 PUSH1 0x20 DUP4 ADD DUP5 PUSH2 0xD38 JUMP JUMPDEST SWAP4 SWAP3 POP POP POP JUMP JUMPDEST PUSH32 0x496E76616C6964207469636B2072616E67650000000000000000000000000000 PUSH0 DUP3 ADD MSTORE POP JUMP JUMPDEST PUSH0 PUSH2 0x112B PUSH1 0x12 DUP4 PUSH2 0xFF0 JUMP JUMPDEST SWAP2 POP PUSH2 0x1136 DUP3 PUSH2 0x10F7 JUMP JUMPDEST PUSH1 0x20 DUP3 ADD SWAP1 POP SWAP2 SWAP1 POP JUMP JUMPDEST PUSH0 PUSH1 0x20 DUP3 ADD SWAP1 POP DUP2 DUP2 SUB PUSH0 DUP4 ADD MSTORE PUSH2 0x1158 DUP2 PUSH2 0x111F JUMP JUMPDEST SWAP1 POP SWAP2 SWAP1 POP JUMP JUMPDEST PUSH32 0x416D6F756E7473206D757374206265203E203000000000000000000000000000 PUSH0 DUP3 ADD MSTORE POP JUMP JUMPDEST PUSH0 PUSH2 0x1193 PUSH1 0x13 DUP4 PUSH2 0xFF0 JUMP JUMPDEST SWAP2 POP PUSH2 0x119E DUP3 PUSH2 0x115F JUMP JUMPDEST PUSH1 0x20 DUP3 ADD SWAP1 POP SWAP2 SWAP1 POP JUMP JUMPDEST PUSH0 PUSH1 0x20 DUP3 ADD SWAP1 POP DUP2 DUP2 SUB PUSH0 DUP4 ADD MSTORE PUSH2 0x11C0 DUP2 PUSH2 0x1187 JUMP JUMPDEST SWAP1 POP SWAP2 SWAP1 POP JUMP JUMPDEST PUSH32 0x4E487B7100000000000000000000000000000000000000000000000000000000 PUSH0 MSTORE PUSH1 0x11 PUSH1 0x4 MSTORE PUSH1 0x24 PUSH0 REVERT JUMPDEST PUSH0 PUSH2 0x11FE DUP3 PUSH2 0xD2F JUMP JUMPDEST SWAP2 POP PUSH32 0xFFFFFFFFFFFFFFFFFFFFFFFFFFFFFFFFFFFFFFFFFFFFFFFFFFFFFFFFFFFFFFFF DUP3 SUB PUSH2 0x1230 JUMPI PUSH2 0x122F PUSH2 0x11C7 JUMP JUMPDEST JUMPDEST PUSH1 0x1 DUP3 ADD SWAP1 POP SWAP2 SWAP1 POP JUMP JUMPDEST PUSH0 PUSH1 0xA0 DUP3 ADD SWAP1 POP PUSH2 0x124E PUSH0 DUP4 ADD DUP9 PUSH2 0xE91 JUMP JUMPDEST PUSH2 0x125B PUSH1 0x20 DUP4 ADD DUP8 PUSH2 0xE91 JUMP JUMPDEST PUSH2 0x1268 PUSH1 0x40 DUP4 ADD DUP7 PUSH2 0xD38 JUMP JUMPDEST PUSH2 0x1275 PUSH1 0x60 DUP4 ADD DUP6 PUSH2 0xD38 JUMP JUMPDEST PUSH2 0x1282 PUSH1 0x80 DUP4 ADD DUP5 PUSH2 0xD38 JUMP JUMPDEST SWAP7 SWAP6 POP POP POP POP POP POP JUMP JUMPDEST PUSH32 0x5265656E7472616E637947756172643A207265656E7472616E742063616C6C00 PUSH0 DUP3 ADD MSTORE POP JUMP JUMPDEST PUSH0 PUSH2 0x12C0 PUSH1 0x1F DUP4 PUSH2 0xFF0 JUMP JUMPDEST SWAP2 POP PUSH2 0x12CB DUP3 PUSH2 0x128C JUMP JUMPDEST PUSH1 0x20 DUP3 ADD SWAP1 POP SWAP2 SWAP1 POP JUMP JUMPDEST PUSH0 PUSH1 0x20 DUP3 ADD SWAP1 POP DUP2 DUP2 SUB PUSH0 DUP4 ADD MSTORE PUSH2 0x12ED DUP2 PUSH2 0x12B4 JUMP JUMPDEST SWAP1 POP SWAP2 SWAP1 POP JUMP JUMPDEST PUSH0 PUSH1 0x40 DUP3 ADD SWAP1 POP PUSH2 0x1307 PUSH0 DUP4 ADD DUP6 PUSH2 0xE5D JUMP JUMPDEST PUSH2 0x1314 PUSH1 0x20 DUP4 ADD DUP5 PUSH2 0xD38 JUMP JUMPDEST SWAP4 SWAP3 POP POP POP JUMP JUMPDEST PUSH0 PUSH1 0x60 DUP3 ADD SWAP1 POP PUSH2 0x132E PUSH0 DUP4 ADD DUP7 PUSH2 0xE5D JUMP JUMPDEST PUSH2 0x133B PUSH1 0x20 DUP4 ADD DUP6 PUSH2 0xE5D JUMP JUMPDEST PUSH2 0x1348 PUSH1 0x40 DUP4 ADD DUP5 PUSH2 0xD38 JUMP JUMPDEST SWAP5 SWAP4 POP POP POP POP JUMP INVALID LOG2 PUSH5 0x6970667358 0x22 SLT KECCAK256 0x23 CALLVALUE SUB 0xCE PUSH32 0x6FC1ABFF3174073DD40FAD6449221DDBA9D611BC6A5F50A6673DA964736F6C63 NUMBER STOP ADDMOD SAR STOP CALLER "
		},
		"gasEstimates": {
			"creation": {
				"codeDepositCost": "999600",
				"executionCost": "infinite",
				"totalCost": "infinite"
			},
			"external": {
				"addLiquidity(int24,int24,uint256,uint256)": "infinite",
				"currentTick()": "2426",
				"nextPositionId()": "2514",
				"owner()": "2514",
				"positions(uint256)": "infinite",
				"removeLiquidity(uint256)": "infinite",
				"renounceOwnership()": "infinite",
				"token0()": "infinite",
				"token1()": "infinite",
				"transferOwnership(address)": "infinite",
				"updateCurrentTick(uint256)": "infinite"
			},
			"internal": {
				"_calculateLiquidity(uint256,uint256)": "63"
			}
		},
		"methodIdentifiers": {
			"addLiquidity(int24,int24,uint256,uint256)": "fd87f9aa",
			"currentTick()": "065e5360",
			"nextPositionId()": "899346c7",
			"owner()": "8da5cb5b",
			"positions(uint256)": "99fbab88",
			"removeLiquidity(uint256)": "9c8f9f23",
			"renounceOwnership()": "715018a6",
			"token0()": "0dfe1681",
			"token1()": "d21220a7",
			"transferOwnership(address)": "f2fde38b",
			"updateCurrentTick(uint256)": "291df278"
		}
	},
	"abi": [
		{
			"inputs": [
				{
					"internalType": "address",
					"name": "_token0",
					"type": "address"
				},
				{
					"internalType": "address",
					"name": "_token1",
					"type": "address"
				},
				{
					"internalType": "uint256",
					"name": "_initialTick",
					"type": "uint256"
				}
			],
			"stateMutability": "nonpayable",
			"type": "constructor"
		},
		{
			"inputs": [
				{
					"internalType": "address",
					"name": "owner",
					"type": "address"
				}
			],
			"name": "OwnableInvalidOwner",
			"type": "error"
		},
		{
			"inputs": [
				{
					"internalType": "address",
					"name": "account",
					"type": "address"
				}
			],
			"name": "OwnableUnauthorizedAccount",
			"type": "error"
		},
		{
			"inputs": [
				{
					"internalType": "address",
					"name": "token",
					"type": "address"
				}
			],
			"name": "SafeERC20FailedOperation",
			"type": "error"
		},
		{
			"anonymous": false,
			"inputs": [
				{
					"indexed": false,
					"internalType": "uint256",
					"name": "newTick",
					"type": "uint256"
				}
			],
			"name": "CurrentTickUpdated",
			"type": "event"
		},
		{
			"anonymous": false,
			"inputs": [
				{
					"indexed": true,
					"internalType": "uint256",
					"name": "positionId",
					"type": "uint256"
				},
				{
					"indexed": true,
					"internalType": "address",
					"name": "owner",
					"type": "address"
				},
				{
					"indexed": false,
					"internalType": "int24",
					"name": "lowerTick",
					"type": "int24"
				},
				{
					"indexed": false,
					"internalType": "int24",
					"name": "upperTick",
					"type": "int24"
				},
				{
					"indexed": false,
					"internalType": "uint256",
					"name": "amount0",
					"type": "uint256"
				},
				{
					"indexed": false,
					"internalType": "uint256",
					"name": "amount1",
					"type": "uint256"
				},
				{
					"indexed": false,
					"internalType": "uint256",
					"name": "liquidity",
					"type": "uint256"
				}
			],
			"name": "LiquidityAdded",
			"type": "event"
		},
		{
			"anonymous": false,
			"inputs": [
				{
					"indexed": true,
					"internalType": "uint256",
					"name": "positionId",
					"type": "uint256"
				},
				{
					"indexed": true,
					"internalType": "address",
					"name": "owner",
					"type": "address"
				},
				{
					"indexed": false,
					"internalType": "uint256",
					"name": "amount0",
					"type": "uint256"
				},
				{
					"indexed": false,
					"internalType": "uint256",
					"name": "amount1",
					"type": "uint256"
				}
			],
			"name": "LiquidityRemoved",
			"type": "event"
		},
		{
			"anonymous": false,
			"inputs": [
				{
					"indexed": true,
					"internalType": "address",
					"name": "previousOwner",
					"type": "address"
				},
				{
					"indexed": true,
					"internalType": "address",
					"name": "newOwner",
					"type": "address"
				}
			],
			"name": "OwnershipTransferred",
			"type": "event"
		},
		{
			"inputs": [
				{
					"internalType": "int24",
					"name": "lowerTick",
					"type": "int24"
				},
				{
					"internalType": "int24",
					"name": "upperTick",
					"type": "int24"
				},
				{
					"internalType": "uint256",
					"name": "amount0",
					"type": "uint256"
				},
				{
					"internalType": "uint256",
					"name": "amount1",
					"type": "uint256"
				}
			],
			"name": "addLiquidity",
			"outputs": [
				{
					"internalType": "uint256",
					"name": "positionId",
					"type": "uint256"
				}
			],
			"stateMutability": "nonpayable",
			"type": "function"
		},
		{
			"inputs": [],
			"name": "currentTick",
			"outputs": [
				{
					"internalType": "uint256",
					"name": "",
					"type": "uint256"
				}
			],
			"stateMutability": "view",
			"type": "function"
		},
		{
			"inputs": [],
			"name": "nextPositionId",
			"outputs": [
				{
					"internalType": "uint256",
					"name": "",
					"type": "uint256"
				}
			],
			"stateMutability": "view",
			"type": "function"
		},
		{
			"inputs": [],
			"name": "owner",
			"outputs": [
				{
					"internalType": "address",
					"name": "",
					"type": "address"
				}
			],
			"stateMutability": "view",
			"type": "function"
		},
		{
			"inputs": [
				{
					"internalType": "uint256",
					"name": "",
					"type": "uint256"
				}
			],
			"name": "positions",
			"outputs": [
				{
					"internalType": "uint256",
					"name": "id",
					"type": "uint256"
				},
				{
					"internalType": "address",
					"name": "owner",
					"type": "address"
				},
				{
					"internalType": "int24",
					"name": "lowerTick",
					"type": "int24"
				},
				{
					"internalType": "int24",
					"name": "upperTick",
					"type": "int24"
				},
				{
					"internalType": "uint256",
					"name": "amount0",
					"type": "uint256"
				},
				{
					"internalType": "uint256",
					"name": "amount1",
					"type": "uint256"
				},
				{
					"internalType": "uint256",
					"name": "liquidity",
					"type": "uint256"
				}
			],
			"stateMutability": "view",
			"type": "function"
		},
		{
			"inputs": [
				{
					"internalType": "uint256",
					"name": "positionId",
					"type": "uint256"
				}
			],
			"name": "removeLiquidity",
			"outputs": [],
			"stateMutability": "nonpayable",
			"type": "function"
		},
		{
			"inputs": [],
			"name": "renounceOwnership",
			"outputs": [],
			"stateMutability": "nonpayable",
			"type": "function"
		},
		{
			"inputs": [],
			"name": "token0",
			"outputs": [
				{
					"internalType": "contract IERC20",
					"name": "",
					"type": "address"
				}
			],
			"stateMutability": "view",
			"type": "function"
		},
		{
			"inputs": [],
			"name": "token1",
			"outputs": [
				{
					"internalType": "contract IERC20",
					"name": "",
					"type": "address"
				}
			],
			"stateMutability": "view",
			"type": "function"
		},
		{
			"inputs": [
				{
					"internalType": "address",
					"name": "newOwner",
					"type": "address"
				}
			],
			"name": "transferOwnership",
			"outputs": [],
			"stateMutability": "nonpayable",
			"type": "function"
		},
		{
			"inputs": [
				{
					"internalType": "uint256",
					"name": "newTick",
					"type": "uint256"
				}
			],
			"name": "updateCurrentTick",
			"outputs": [],
			"stateMutability": "nonpayable",
			"type": "function"
		}
	]
}