{
	"data": {
		"bytecode": {
			"linkReferences": {},
			"object": "608060405234801561000f575f80fd5b50610d438061001d5f395ff3fe608060405234801561000f575f80fd5b506004361061004a575f3560e01c806310a7fd7b1461004e5780637a360e651461008257806388411149146100a0578063bae78d7b146100bc575b5f80fd5b61006860048036038101906100639190610627565b6100f0565b60405161007995949392919061072a565b60405180910390f35b61008a6101f4565b6040516100979190610782565b60405180910390f35b6100ba60048036038101906100b59190610826565b6101ff565b005b6100d660048036038101906100d19190610627565b6103fa565b6040516100e795949392919061072a565b60405180910390f35b5f81815481106100fe575f80fd5b905f5260205f2090600502015f91509050805f015f9054906101000a900473ffffffffffffffffffffffffffffffffffffffff1690806001015f9054906101000a900473ffffffffffffffffffffffffffffffffffffffff1690806002015490806003015490806004018054610173906108d7565b80601f016020809104026020016040519081016040528092919081815260200182805461019f906108d7565b80156101ea5780601f106101c1576101008083540402835291602001916101ea565b820191905f5260205f20905b8154815290600101906020018083116101cd57829003601f168201915b5050505050905085565b5f8080549050905090565b5f6040518060a001604052808773ffffffffffffffffffffffffffffffffffffffff1681526020018673ffffffffffffffffffffffffffffffffffffffff16815260200185815260200142815260200184848080601f0160208091040260200160405190810160405280939291908181526020018383808284375f81840152601f19601f8201169050808301925050505050505081525090505f81908060018154018082558091505060019003905f5260205f2090600502015f909190919091505f820151815f015f6101000a81548173ffffffffffffffffffffffffffffffffffffffff021916908373ffffffffffffffffffffffffffffffffffffffff1602179055506020820151816001015f6101000a81548173ffffffffffffffffffffffffffffffffffffffff021916908373ffffffffffffffffffffffffffffffffffffffff160217905550604082015181600201556060820151816003015560808201518160040190816103739190610ad1565b5050508473ffffffffffffffffffffffffffffffffffffffff168673ffffffffffffffffffffffffffffffffffffffff1660015f805490506103b59190610bcd565b7f64dc13f6ef05327eaac14e375658e9ed75d366b15ec0b2b05d78d10f966cb4ad874288886040516103ea9493929190610c3a565b60405180910390a4505050505050565b5f805f8060605f805490508610610446576040517f08c379a000000000000000000000000000000000000000000000000000000000815260040161043d90610cc2565b60405180910390fd5b5f80878154811061045a57610459610ce0565b5b905f5260205f2090600502016040518060a00160405290815f82015f9054906101000a900473ffffffffffffffffffffffffffffffffffffffff1673ffffffffffffffffffffffffffffffffffffffff1673ffffffffffffffffffffffffffffffffffffffff168152602001600182015f9054906101000a900473ffffffffffffffffffffffffffffffffffffffff1673ffffffffffffffffffffffffffffffffffffffff1673ffffffffffffffffffffffffffffffffffffffff168152602001600282015481526020016003820154815260200160048201805461053e906108d7565b80601f016020809104026020016040519081016040528092919081815260200182805461056a906108d7565b80156105b55780601f1061058c576101008083540402835291602001916105b5565b820191905f5260205f20905b81548152906001019060200180831161059857829003601f168201915b5050505050815250509050805f01518160200151826040015183606001518460800151955095509550955095505091939590929450565b5f80fd5b5f80fd5b5f819050919050565b610606816105f4565b8114610610575f80fd5b50565b5f81359050610621816105fd565b92915050565b5f6020828403121561063c5761063b6105ec565b5b5f61064984828501610613565b91505092915050565b5f73ffffffffffffffffffffffffffffffffffffffff82169050919050565b5f61067b82610652565b9050919050565b61068b81610671565b82525050565b61069a816105f4565b82525050565b5f81519050919050565b5f82825260208201905092915050565b5f5b838110156106d75780820151818401526020810190506106bc565b5f8484015250505050565b5f601f19601f8301169050919050565b5f6106fc826106a0565b61070681856106aa565b93506107168185602086016106ba565b61071f816106e2565b840191505092915050565b5f60a08201905061073d5f830188610682565b61074a6020830187610682565b6107576040830186610691565b6107646060830185610691565b818103608083015261077681846106f2565b90509695505050505050565b5f6020820190506107955f830184610691565b92915050565b6107a481610671565b81146107ae575f80fd5b50565b5f813590506107bf8161079b565b92915050565b5f80fd5b5f80fd5b5f80fd5b5f8083601f8401126107e6576107e56107c5565b5b8235905067ffffffffffffffff811115610803576108026107c9565b5b60208301915083600182028301111561081f5761081e6107cd565b5b9250929050565b5f805f805f6080868803121561083f5761083e6105ec565b5b5f61084c888289016107b1565b955050602061085d888289016107b1565b945050604061086e88828901610613565b935050606086013567ffffffffffffffff81111561088f5761088e6105f0565b5b61089b888289016107d1565b92509250509295509295909350565b7f4e487b71000000000000000000000000000000000000000000000000000000005f52602260045260245ffd5b5f60028204905060018216806108ee57607f821691505b602082108103610901576109006108aa565b5b50919050565b7f4e487b71000000000000000000000000000000000000000000000000000000005f52604160045260245ffd5b5f819050815f5260205f209050919050565b5f6020601f8301049050919050565b5f82821b905092915050565b5f600883026109907fffffffffffffffffffffffffffffffffffffffffffffffffffffffffffffffff82610955565b61099a8683610955565b95508019841693508086168417925050509392505050565b5f819050919050565b5f6109d56109d06109cb846105f4565b6109b2565b6105f4565b9050919050565b5f819050919050565b6109ee836109bb565b610a026109fa826109dc565b848454610961565b825550505050565b5f90565b610a16610a0a565b610a218184846109e5565b505050565b5b81811015610a4457610a395f82610a0e565b600181019050610a27565b5050565b601f821115610a8957610a5a81610934565b610a6384610946565b81016020851015610a72578190505b610a86610a7e85610946565b830182610a26565b50505b505050565b5f82821c905092915050565b5f610aa95f1984600802610a8e565b1980831691505092915050565b5f610ac18383610a9a565b9150826002028217905092915050565b610ada826106a0565b67ffffffffffffffff811115610af357610af2610907565b5b610afd82546108d7565b610b08828285610a48565b5f60209050601f831160018114610b39575f8415610b27578287015190505b610b318582610ab6565b865550610b98565b601f198416610b4786610934565b5f5b82811015610b6e57848901518255600182019150602085019450602081019050610b49565b86831015610b8b5784890151610b87601f891682610a9a565b8355505b6001600288020188555050505b505050505050565b7f4e487b71000000000000000000000000000000000000000000000000000000005f52601160045260245ffd5b5f610bd7826105f4565b9150610be2836105f4565b9250828203905081811115610bfa57610bf9610ba0565b5b92915050565b828183375f83830152505050565b5f610c1983856106aa565b9350610c26838584610c00565b610c2f836106e2565b840190509392505050565b5f606082019050610c4d5f830187610691565b610c5a6020830186610691565b8181036040830152610c6d818486610c0e565b905095945050505050565b7f496e646578206f7574206f6620626f756e6473000000000000000000000000005f82015250565b5f610cac6013836106aa565b9150610cb782610c78565b602082019050919050565b5f6020820190508181035f830152610cd981610ca0565b9050919050565b7f4e487b71000000000000000000000000000000000000000000000000000000005f52603260045260245ffdfea2646970667358221220a9b54032d51e713ea425886310666e6c80381b28756b3b1c6bd9b17b8ff808f064736f6c63430008140033",
			"opcodes": "PUSH1 0x80 PUSH1 0x40 MSTORE CALLVALUE DUP1 ISZERO PUSH2 0xF JUMPI PUSH0 DUP1 REVERT JUMPDEST POP PUSH2 0xD43 DUP1 PUSH2 0x1D PUSH0 CODECOPY PUSH0 RETURN INVALID PUSH1 0x80 PUSH1 0x40 MSTORE CALLVALUE DUP1 ISZERO PUSH2 0xF JUMPI PUSH0 DUP1 REVERT JUMPDEST POP PUSH1 0x4 CALLDATASIZE LT PUSH2 0x4A JUMPI PUSH0 CALLDATALOAD PUSH1 0xE0 SHR DUP1 PUSH4 0x10A7FD7B EQ PUSH2 0x4E JUMPI DUP1 PUSH4 0x7A360E65 EQ PUSH2 0x82 JUMPI DUP1 PUSH4 0x88411149 EQ PUSH2 0xA0 JUMPI DUP1 PUSH4 0xBAE78D7B EQ PUSH2 0xBC JUMPI JUMPDEST PUSH0 DUP1 REVERT JUMPDEST PUSH2 0x68 PUSH1 0x4 DUP1 CALLDATASIZE SUB DUP2 ADD SWAP1 PUSH2 0x63 SWAP2 SWAP1 PUSH2 0x627 JUMP JUMPDEST PUSH2 0xF0 JUMP JUMPDEST PUSH1 0x40 MLOAD PUSH2 0x79 SWAP6 SWAP5 SWAP4 SWAP3 SWAP2 SWAP1 PUSH2 0x72A JUMP JUMPDEST PUSH1 0x40 MLOAD DUP1 SWAP2 SUB SWAP1 RETURN JUMPDEST PUSH2 0x8A PUSH2 0x1F4 JUMP JUMPDEST PUSH1 0x40 MLOAD PUSH2 0x97 SWAP2 SWAP1 PUSH2 0x782 JUMP JUMPDEST PUSH1 0x40 MLOAD DUP1 SWAP2 SUB SWAP1 RETURN JUMPDEST PUSH2 0xBA PUSH1 0x4 DUP1 CALLDATASIZE SUB DUP2 ADD SWAP1 PUSH2 0xB5 SWAP2 SWAP1 PUSH2 0x826 JUMP JUMPDEST PUSH2 0x1FF JUMP JUMPDEST STOP JUMPDEST PUSH2 0xD6 PUSH1 0x4 DUP1 CALLDATASIZE SUB DUP2 ADD SWAP1 PUSH2 0xD1 SWAP2 SWAP1 PUSH2 0x627 JUMP JUMPDEST PUSH2 0x3FA JUMP JUMPDEST PUSH1 0x40 MLOAD PUSH2 0xE7 SWAP6 SWAP5 SWAP4 SWAP3 SWAP2 SWAP1 PUSH2 0x72A JUMP JUMPDEST PUSH1 0x40 MLOAD DUP1 SWAP2 SUB SWAP1 RETURN JUMPDEST PUSH0 DUP2 DUP2 SLOAD DUP2 LT PUSH2 0xFE JUMPI PUSH0 DUP1 REVERT JUMPDEST SWAP1 PUSH0 MSTORE PUSH1 0x20 PUSH0 KECCAK256 SWAP1 PUSH1 0x5 MUL ADD PUSH0 SWAP2 POP SWAP1 POP DUP1 PUSH0 ADD PUSH0 SWAP1 SLOAD SWAP1 PUSH2 0x100 EXP SWAP1 DIV PUSH20 0xFFFFFFFFFFFFFFFFFFFFFFFFFFFFFFFFFFFFFFFF AND SWAP1 DUP1 PUSH1 0x1 ADD PUSH0 SWAP1 SLOAD SWAP1 PUSH2 0x100 EXP SWAP1 DIV PUSH20 0xFFFFFFFFFFFFFFFFFFFFFFFFFFFFFFFFFFFFFFFF AND SWAP1 DUP1 PUSH1 0x2 ADD SLOAD SWAP1 DUP1 PUSH1 0x3 ADD SLOAD SWAP1 DUP1 PUSH1 0x4 ADD DUP1 SLOAD PUSH2 0x173 SWAP1 PUSH2 0x8D7 JUMP JUMPDEST DUP1 PUSH1 0x1F ADD PUSH1 0x20 DUP1 SWAP2 DIV MUL PUSH1 0x20 ADD PUSH1 0x40 MLOAD SWAP1 DUP2 ADD PUSH1 0x40 MSTORE DUP1 SWAP3 SWAP2 SWAP1 DUP2 DUP2 MSTORE PUSH1 0x20 ADD DUP3 DUP1 SLOAD PUSH2 0x19F SWAP1 PUSH2 0x8D7 JUMP JUMPDEST DUP1 ISZERO PUSH2 0x1EA JUMPI DUP1 PUSH1 0x1F LT PUSH2 0x1C1 JUMPI PUSH2 0x100 DUP1 DUP4 SLOAD DIV MUL DUP4 MSTORE SWAP2 PUSH1 0x20 ADD SWAP2 PUSH2 0x1EA JUMP JUMPDEST DUP3 ADD SWAP2 SWAP1 PUSH0 MSTORE PUSH1 0x20 PUSH0 KECCAK256 SWAP1 JUMPDEST DUP2 SLOAD DUP2 MSTORE SWAP1 PUSH1 0x1 ADD SWAP1 PUSH1 0x20 ADD DUP1 DUP4 GT PUSH2 0x1CD JUMPI DUP3 SWAP1 SUB PUSH1 0x1F AND DUP3 ADD SWAP2 JUMPDEST POP POP POP POP POP SWAP1 POP DUP6 JUMP JUMPDEST PUSH0 DUP1 DUP1 SLOAD SWAP1 POP SWAP1 POP SWAP1 JUMP JUMPDEST PUSH0 PUSH1 0x40 MLOAD DUP1 PUSH1 0xA0 ADD PUSH1 0x40 MSTORE DUP1 DUP8 PUSH20 0xFFFFFFFFFFFFFFFFFFFFFFFFFFFFFFFFFFFFFFFF AND DUP2 MSTORE PUSH1 0x20 ADD DUP7 PUSH20 0xFFFFFFFFFFFFFFFFFFFFFFFFFFFFFFFFFFFFFFFF AND DUP2 MSTORE PUSH1 0x20 ADD DUP6 DUP2 MSTORE PUSH1 0x20 ADD TIMESTAMP DUP2 MSTORE PUSH1 0x20 ADD DUP5 DUP5 DUP1 DUP1 PUSH1 0x1F ADD PUSH1 0x20 DUP1 SWAP2 DIV MUL PUSH1 0x20 ADD PUSH1 0x40 MLOAD SWAP1 DUP2 ADD PUSH1 0x40 MSTORE DUP1 SWAP4 SWAP3 SWAP2 SWAP1 DUP2 DUP2 MSTORE PUSH1 0x20 ADD DUP4 DUP4 DUP1 DUP3 DUP5 CALLDATACOPY PUSH0 DUP2 DUP5 ADD MSTORE PUSH1 0x1F NOT PUSH1 0x1F DUP3 ADD AND SWAP1 POP DUP1 DUP4 ADD SWAP3 POP POP POP POP POP POP POP DUP2 MSTORE POP SWAP1 POP PUSH0 DUP2 SWAP1 DUP1 PUSH1 0x1 DUP2 SLOAD ADD DUP1 DUP3 SSTORE DUP1 SWAP2 POP POP PUSH1 0x1 SWAP1 SUB SWAP1 PUSH0 MSTORE PUSH1 0x20 PUSH0 KECCAK256 SWAP1 PUSH1 0x5 MUL ADD PUSH0 SWAP1 SWAP2 SWAP1 SWAP2 SWAP1 SWAP2 POP PUSH0 DUP3 ADD MLOAD DUP2 PUSH0 ADD PUSH0 PUSH2 0x100 EXP DUP2 SLOAD DUP2 PUSH20 0xFFFFFFFFFFFFFFFFFFFFFFFFFFFFFFFFFFFFFFFF MUL NOT AND SWAP1 DUP4 PUSH20 0xFFFFFFFFFFFFFFFFFFFFFFFFFFFFFFFFFFFFFFFF AND MUL OR SWAP1 SSTORE POP PUSH1 0x20 DUP3 ADD MLOAD DUP2 PUSH1 0x1 ADD PUSH0 PUSH2 0x100 EXP DUP2 SLOAD DUP2 PUSH20 0xFFFFFFFFFFFFFFFFFFFFFFFFFFFFFFFFFFFFFFFF MUL NOT AND SWAP1 DUP4 PUSH20 0xFFFFFFFFFFFFFFFFFFFFFFFFFFFFFFFFFFFFFFFF AND MUL OR SWAP1 SSTORE POP PUSH1 0x40 DUP3 ADD MLOAD DUP2 PUSH1 0x2 ADD SSTORE PUSH1 0x60 DUP3 ADD MLOAD DUP2 PUSH1 0x3 ADD SSTORE PUSH1 0x80 DUP3 ADD MLOAD DUP2 PUSH1 0x4 ADD SWAP1 DUP2 PUSH2 0x373 SWAP2 SWAP1 PUSH2 0xAD1 JUMP JUMPDEST POP POP POP DUP5 PUSH20 0xFFFFFFFFFFFFFFFFFFFFFFFFFFFFFFFFFFFFFFFF AND DUP7 PUSH20 0xFFFFFFFFFFFFFFFFFFFFFFFFFFFFFFFFFFFFFFFF AND PUSH1 0x1 PUSH0 DUP1 SLOAD SWAP1 POP PUSH2 0x3B5 SWAP2 SWAP1 PUSH2 0xBCD JUMP JUMPDEST PUSH32 0x64DC13F6EF05327EAAC14E375658E9ED75D366B15EC0B2B05D78D10F966CB4AD DUP8 TIMESTAMP DUP9 DUP9 PUSH1 0x40 MLOAD PUSH2 0x3EA SWAP5 SWAP4 SWAP3 SWAP2 SWAP1 PUSH2 0xC3A JUMP JUMPDEST PUSH1 0x40 MLOAD DUP1 SWAP2 SUB SWAP1 LOG4 POP POP POP POP POP POP JUMP JUMPDEST PUSH0 DUP1 PUSH0 DUP1 PUSH1 0x60 PUSH0 DUP1 SLOAD SWAP1 POP DUP7 LT PUSH2 0x446 JUMPI PUSH1 0x40 MLOAD PUSH32 0x8C379A000000000000000000000000000000000000000000000000000000000 DUP2 MSTORE PUSH1 0x4 ADD PUSH2 0x43D SWAP1 PUSH2 0xCC2 JUMP JUMPDEST PUSH1 0x40 MLOAD DUP1 SWAP2 SUB SWAP1 REVERT JUMPDEST PUSH0 DUP1 DUP8 DUP2 SLOAD DUP2 LT PUSH2 0x45A JUMPI PUSH2 0x459 PUSH2 0xCE0 JUMP JUMPDEST JUMPDEST SWAP1 PUSH0 MSTORE PUSH1 0x20 PUSH0 KECCAK256 SWAP1 PUSH1 0x5 MUL ADD PUSH1 0x40 MLOAD DUP1 PUSH1 0xA0 ADD PUSH1 0x40 MSTORE SWAP1 DUP2 PUSH0 DUP3 ADD PUSH0 SWAP1 SLOAD SWAP1 PUSH2 0x100 EXP SWAP1 DIV PUSH20 0xFFFFFFFFFFFFFFFFFFFFFFFFFFFFFFFFFFFFFFFF AND PUSH20 0xFFFFFFFFFFFFFFFFFFFFFFFFFFFFFFFFFFFFFFFF AND PUSH20 0xFFFFFFFFFFFFFFFFFFFFFFFFFFFFFFFFFFFFFFFF AND DUP2 MSTORE PUSH1 0x20 ADD PUSH1 0x1 DUP3 ADD PUSH0 SWAP1 SLOAD SWAP1 PUSH2 0x100 EXP SWAP1 DIV PUSH20 0xFFFFFFFFFFFFFFFFFFFFFFFFFFFFFFFFFFFFFFFF AND PUSH20 0xFFFFFFFFFFFFFFFFFFFFFFFFFFFFFFFFFFFFFFFF AND PUSH20 0xFFFFFFFFFFFFFFFFFFFFFFFFFFFFFFFFFFFFFFFF AND DUP2 MSTORE PUSH1 0x20 ADD PUSH1 0x2 DUP3 ADD SLOAD DUP2 MSTORE PUSH1 0x20 ADD PUSH1 0x3 DUP3 ADD SLOAD DUP2 MSTORE PUSH1 0x20 ADD PUSH1 0x4 DUP3 ADD DUP1 SLOAD PUSH2 0x53E SWAP1 PUSH2 0x8D7 JUMP JUMPDEST DUP1 PUSH1 0x1F ADD PUSH1 0x20 DUP1 SWAP2 DIV MUL PUSH1 0x20 ADD PUSH1 0x40 MLOAD SWAP1 DUP2 ADD PUSH1 0x40 MSTORE DUP1 SWAP3 SWAP2 SWAP1 DUP2 DUP2 MSTORE PUSH1 0x20 ADD DUP3 DUP1 SLOAD PUSH2 0x56A SWAP1 PUSH2 0x8D7 JUMP JUMPDEST DUP1 ISZERO PUSH2 0x5B5 JUMPI DUP1 PUSH1 0x1F LT PUSH2 0x58C JUMPI PUSH2 0x100 DUP1 DUP4 SLOAD DIV MUL DUP4 MSTORE SWAP2 PUSH1 0x20 ADD SWAP2 PUSH2 0x5B5 JUMP JUMPDEST DUP3 ADD SWAP2 SWAP1 PUSH0 MSTORE PUSH1 0x20 PUSH0 KECCAK256 SWAP1 JUMPDEST DUP2 SLOAD DUP2 MSTORE SWAP1 PUSH1 0x1 ADD SWAP1 PUSH1 0x20 ADD DUP1 DUP4 GT PUSH2 0x598 JUMPI DUP3 SWAP1 SUB PUSH1 0x1F AND DUP3 ADD SWAP2 JUMPDEST POP POP POP POP POP DUP2 MSTORE POP POP SWAP1 POP DUP1 PUSH0 ADD MLOAD DUP2 PUSH1 0x20 ADD MLOAD DUP3 PUSH1 0x40 ADD MLOAD DUP4 PUSH1 0x60 ADD MLOAD DUP5 PUSH1 0x80 ADD MLOAD SWAP6 POP SWAP6 POP SWAP6 POP SWAP6 POP SWAP6 POP POP SWAP2 SWAP4 SWAP6 SWAP1 SWAP3 SWAP5 POP JUMP JUMPDEST PUSH0 DUP1 REVERT JUMPDEST PUSH0 DUP1 REVERT JUMPDEST PUSH0 DUP2 SWAP1 POP SWAP2 SWAP1 POP JUMP JUMPDEST PUSH2 0x606 DUP2 PUSH2 0x5F4 JUMP JUMPDEST DUP2 EQ PUSH2 0x610 JUMPI PUSH0 DUP1 REVERT JUMPDEST POP JUMP JUMPDEST PUSH0 DUP2 CALLDATALOAD SWAP1 POP PUSH2 0x621 DUP2 PUSH2 0x5FD JUMP JUMPDEST SWAP3 SWAP2 POP POP JUMP JUMPDEST PUSH0 PUSH1 0x20 DUP3 DUP5 SUB SLT ISZERO PUSH2 0x63C JUMPI PUSH2 0x63B PUSH2 0x5EC JUMP JUMPDEST JUMPDEST PUSH0 PUSH2 0x649 DUP5 DUP3 DUP6 ADD PUSH2 0x613 JUMP JUMPDEST SWAP2 POP POP SWAP3 SWAP2 POP POP JUMP JUMPDEST PUSH0 PUSH20 0xFFFFFFFFFFFFFFFFFFFFFFFFFFFFFFFFFFFFFFFF DUP3 AND SWAP1 POP SWAP2 SWAP1 POP JUMP JUMPDEST PUSH0 PUSH2 0x67B DUP3 PUSH2 0x652 JUMP JUMPDEST SWAP1 POP SWAP2 SWAP1 POP JUMP JUMPDEST PUSH2 0x68B DUP2 PUSH2 0x671 JUMP JUMPDEST DUP3 MSTORE POP POP JUMP JUMPDEST PUSH2 0x69A DUP2 PUSH2 0x5F4 JUMP JUMPDEST DUP3 MSTORE POP POP JUMP JUMPDEST PUSH0 DUP2 MLOAD SWAP1 POP SWAP2 SWAP1 POP JUMP JUMPDEST PUSH0 DUP3 DUP3 MSTORE PUSH1 0x20 DUP3 ADD SWAP1 POP SWAP3 SWAP2 POP POP JUMP JUMPDEST PUSH0 JUMPDEST DUP4 DUP2 LT ISZERO PUSH2 0x6D7 JUMPI DUP1 DUP3 ADD MLOAD DUP2 DUP5 ADD MSTORE PUSH1 0x20 DUP2 ADD SWAP1 POP PUSH2 0x6BC JUMP JUMPDEST PUSH0 DUP5 DUP5 ADD MSTORE POP POP POP POP JUMP JUMPDEST PUSH0 PUSH1 0x1F NOT PUSH1 0x1F DUP4 ADD AND SWAP1 POP SWAP2 SWAP1 POP JUMP JUMPDEST PUSH0 PUSH2 0x6FC DUP3 PUSH2 0x6A0 JUMP JUMPDEST PUSH2 0x706 DUP2 DUP6 PUSH2 0x6AA JUMP JUMPDEST SWAP4 POP PUSH2 0x716 DUP2 DUP6 PUSH1 0x20 DUP7 ADD PUSH2 0x6BA JUMP JUMPDEST PUSH2 0x71F DUP2 PUSH2 0x6E2 JUMP JUMPDEST DUP5 ADD SWAP2 POP POP SWAP3 SWAP2 POP POP JUMP JUMPDEST PUSH0 PUSH1 0xA0 DUP3 ADD SWAP1 POP PUSH2 0x73D PUSH0 DUP4 ADD DUP9 PUSH2 0x682 JUMP JUMPDEST PUSH2 0x74A PUSH1 0x20 DUP4 ADD DUP8 PUSH2 0x682 JUMP JUMPDEST PUSH2 0x757 PUSH1 0x40 DUP4 ADD DUP7 PUSH2 0x691 JUMP JUMPDEST PUSH2 0x764 PUSH1 0x60 DUP4 ADD DUP6 PUSH2 0x691 JUMP JUMPDEST DUP2 DUP2 SUB PUSH1 0x80 DUP4 ADD MSTORE PUSH2 0x776 DUP2 DUP5 PUSH2 0x6F2 JUMP JUMPDEST SWAP1 POP SWAP7 SWAP6 POP POP POP POP POP POP JUMP JUMPDEST PUSH0 PUSH1 0x20 DUP3 ADD SWAP1 POP PUSH2 0x795 PUSH0 DUP4 ADD DUP5 PUSH2 0x691 JUMP JUMPDEST SWAP3 SWAP2 POP POP JUMP JUMPDEST PUSH2 0x7A4 DUP2 PUSH2 0x671 JUMP JUMPDEST DUP2 EQ PUSH2 0x7AE JUMPI PUSH0 DUP1 REVERT JUMPDEST POP JUMP JUMPDEST PUSH0 DUP2 CALLDATALOAD SWAP1 POP PUSH2 0x7BF DUP2 PUSH2 0x79B JUMP JUMPDEST SWAP3 SWAP2 POP POP JUMP JUMPDEST PUSH0 DUP1 REVERT JUMPDEST PUSH0 DUP1 REVERT JUMPDEST PUSH0 DUP1 REVERT JUMPDEST PUSH0 DUP1 DUP4 PUSH1 0x1F DUP5 ADD SLT PUSH2 0x7E6 JUMPI PUSH2 0x7E5 PUSH2 0x7C5 JUMP JUMPDEST JUMPDEST DUP3 CALLDATALOAD SWAP1 POP PUSH8 0xFFFFFFFFFFFFFFFF DUP2 GT ISZERO PUSH2 0x803 JUMPI PUSH2 0x802 PUSH2 0x7C9 JUMP JUMPDEST JUMPDEST PUSH1 0x20 DUP4 ADD SWAP2 POP DUP4 PUSH1 0x1 DUP3 MUL DUP4 ADD GT ISZERO PUSH2 0x81F JUMPI PUSH2 0x81E PUSH2 0x7CD JUMP JUMPDEST JUMPDEST SWAP3 POP SWAP3 SWAP1 POP JUMP JUMPDEST PUSH0 DUP1 PUSH0 DUP1 PUSH0 PUSH1 0x80 DUP7 DUP9 SUB SLT ISZERO PUSH2 0x83F JUMPI PUSH2 0x83E PUSH2 0x5EC JUMP JUMPDEST JUMPDEST PUSH0 PUSH2 0x84C DUP9 DUP3 DUP10 ADD PUSH2 0x7B1 JUMP JUMPDEST SWAP6 POP POP PUSH1 0x20 PUSH2 0x85D DUP9 DUP3 DUP10 ADD PUSH2 0x7B1 JUMP JUMPDEST SWAP5 POP POP PUSH1 0x40 PUSH2 0x86E DUP9 DUP3 DUP10 ADD PUSH2 0x613 JUMP JUMPDEST SWAP4 POP POP PUSH1 0x60 DUP7 ADD CALLDATALOAD PUSH8 0xFFFFFFFFFFFFFFFF DUP2 GT ISZERO PUSH2 0x88F JUMPI PUSH2 0x88E PUSH2 0x5F0 JUMP JUMPDEST JUMPDEST PUSH2 0x89B DUP9 DUP3 DUP10 ADD PUSH2 0x7D1 JUMP JUMPDEST SWAP3 POP SWAP3 POP POP SWAP3 SWAP6 POP SWAP3 SWAP6 SWAP1 SWAP4 POP JUMP JUMPDEST PUSH32 0x4E487B7100000000000000000000000000000000000000000000000000000000 PUSH0 MSTORE PUSH1 0x22 PUSH1 0x4 MSTORE PUSH1 0x24 PUSH0 REVERT JUMPDEST PUSH0 PUSH1 0x2 DUP3 DIV SWAP1 POP PUSH1 0x1 DUP3 AND DUP1 PUSH2 0x8EE JUMPI PUSH1 0x7F DUP3 AND SWAP2 POP JUMPDEST PUSH1 0x20 DUP3 LT DUP2 SUB PUSH2 0x901 JUMPI PUSH2 0x900 PUSH2 0x8AA JUMP JUMPDEST JUMPDEST POP SWAP2 SWAP1 POP JUMP JUMPDEST PUSH32 0x4E487B7100000000000000000000000000000000000000000000000000000000 PUSH0 MSTORE PUSH1 0x41 PUSH1 0x4 MSTORE PUSH1 0x24 PUSH0 REVERT JUMPDEST PUSH0 DUP2 SWAP1 POP DUP2 PUSH0 MSTORE PUSH1 0x20 PUSH0 KECCAK256 SWAP1 POP SWAP2 SWAP1 POP JUMP JUMPDEST PUSH0 PUSH1 0x20 PUSH1 0x1F DUP4 ADD DIV SWAP1 POP SWAP2 SWAP1 POP JUMP JUMPDEST PUSH0 DUP3 DUP3 SHL SWAP1 POP SWAP3 SWAP2 POP POP JUMP JUMPDEST PUSH0 PUSH1 0x8 DUP4 MUL PUSH2 0x990 PUSH32 0xFFFFFFFFFFFFFFFFFFFFFFFFFFFFFFFFFFFFFFFFFFFFFFFFFFFFFFFFFFFFFFFF DUP3 PUSH2 0x955 JUMP JUMPDEST PUSH2 0x99A DUP7 DUP4 PUSH2 0x955 JUMP JUMPDEST SWAP6 POP DUP1 NOT DUP5 AND SWAP4 POP DUP1 DUP7 AND DUP5 OR SWAP3 POP POP POP SWAP4 SWAP3 POP POP POP JUMP JUMPDEST PUSH0 DUP2 SWAP1 POP SWAP2 SWAP1 POP JUMP JUMPDEST PUSH0 PUSH2 0x9D5 PUSH2 0x9D0 PUSH2 0x9CB DUP5 PUSH2 0x5F4 JUMP JUMPDEST PUSH2 0x9B2 JUMP JUMPDEST PUSH2 0x5F4 JUMP JUMPDEST SWAP1 POP SWAP2 SWAP1 POP JUMP JUMPDEST PUSH0 DUP2 SWAP1 POP SWAP2 SWAP1 POP JUMP JUMPDEST PUSH2 0x9EE DUP4 PUSH2 0x9BB JUMP JUMPDEST PUSH2 0xA02 PUSH2 0x9FA DUP3 PUSH2 0x9DC JUMP JUMPDEST DUP5 DUP5 SLOAD PUSH2 0x961 JUMP JUMPDEST DUP3 SSTORE POP POP POP POP JUMP JUMPDEST PUSH0 SWAP1 JUMP JUMPDEST PUSH2 0xA16 PUSH2 0xA0A JUMP JUMPDEST PUSH2 0xA21 DUP2 DUP5 DUP5 PUSH2 0x9E5 JUMP JUMPDEST POP POP POP JUMP JUMPDEST JUMPDEST DUP2 DUP2 LT ISZERO PUSH2 0xA44 JUMPI PUSH2 0xA39 PUSH0 DUP3 PUSH2 0xA0E JUMP JUMPDEST PUSH1 0x1 DUP2 ADD SWAP1 POP PUSH2 0xA27 JUMP JUMPDEST POP POP JUMP JUMPDEST PUSH1 0x1F DUP3 GT ISZERO PUSH2 0xA89 JUMPI PUSH2 0xA5A DUP2 PUSH2 0x934 JUMP JUMPDEST PUSH2 0xA63 DUP5 PUSH2 0x946 JUMP JUMPDEST DUP2 ADD PUSH1 0x20 DUP6 LT ISZERO PUSH2 0xA72 JUMPI DUP2 SWAP1 POP JUMPDEST PUSH2 0xA86 PUSH2 0xA7E DUP6 PUSH2 0x946 JUMP JUMPDEST DUP4 ADD DUP3 PUSH2 0xA26 JUMP JUMPDEST POP POP JUMPDEST POP POP POP JUMP JUMPDEST PUSH0 DUP3 DUP3 SHR SWAP1 POP SWAP3 SWAP2 POP POP JUMP JUMPDEST PUSH0 PUSH2 0xAA9 PUSH0 NOT DUP5 PUSH1 0x8 MUL PUSH2 0xA8E JUMP JUMPDEST NOT DUP1 DUP4 AND SWAP2 POP POP SWAP3 SWAP2 POP POP JUMP JUMPDEST PUSH0 PUSH2 0xAC1 DUP4 DUP4 PUSH2 0xA9A JUMP JUMPDEST SWAP2 POP DUP3 PUSH1 0x2 MUL DUP3 OR SWAP1 POP SWAP3 SWAP2 POP POP JUMP JUMPDEST PUSH2 0xADA DUP3 PUSH2 0x6A0 JUMP JUMPDEST PUSH8 0xFFFFFFFFFFFFFFFF DUP2 GT ISZERO PUSH2 0xAF3 JUMPI PUSH2 0xAF2 PUSH2 0x907 JUMP JUMPDEST JUMPDEST PUSH2 0xAFD DUP3 SLOAD PUSH2 0x8D7 JUMP JUMPDEST PUSH2 0xB08 DUP3 DUP3 DUP6 PUSH2 0xA48 JUMP JUMPDEST PUSH0 PUSH1 0x20 SWAP1 POP PUSH1 0x1F DUP4 GT PUSH1 0x1 DUP2 EQ PUSH2 0xB39 JUMPI PUSH0 DUP5 ISZERO PUSH2 0xB27 JUMPI DUP3 DUP8 ADD MLOAD SWAP1 POP JUMPDEST PUSH2 0xB31 DUP6 DUP3 PUSH2 0xAB6 JUMP JUMPDEST DUP7 SSTORE POP PUSH2 0xB98 JUMP JUMPDEST PUSH1 0x1F NOT DUP5 AND PUSH2 0xB47 DUP7 PUSH2 0x934 JUMP JUMPDEST PUSH0 JUMPDEST DUP3 DUP2 LT ISZERO PUSH2 0xB6E JUMPI DUP5 DUP10 ADD MLOAD DUP3 SSTORE PUSH1 0x1 DUP3 ADD SWAP2 POP PUSH1 0x20 DUP6 ADD SWAP5 POP PUSH1 0x20 DUP2 ADD SWAP1 POP PUSH2 0xB49 JUMP JUMPDEST DUP7 DUP4 LT ISZERO PUSH2 0xB8B JUMPI DUP5 DUP10 ADD MLOAD PUSH2 0xB87 PUSH1 0x1F DUP10 AND DUP3 PUSH2 0xA9A JUMP JUMPDEST DUP4 SSTORE POP JUMPDEST PUSH1 0x1 PUSH1 0x2 DUP9 MUL ADD DUP9 SSTORE POP POP POP JUMPDEST POP POP POP POP POP POP JUMP JUMPDEST PUSH32 0x4E487B7100000000000000000000000000000000000000000000000000000000 PUSH0 MSTORE PUSH1 0x11 PUSH1 0x4 MSTORE PUSH1 0x24 PUSH0 REVERT JUMPDEST PUSH0 PUSH2 0xBD7 DUP3 PUSH2 0x5F4 JUMP JUMPDEST SWAP2 POP PUSH2 0xBE2 DUP4 PUSH2 0x5F4 JUMP JUMPDEST SWAP3 POP DUP3 DUP3 SUB SWAP1 POP DUP2 DUP2 GT ISZERO PUSH2 0xBFA JUMPI PUSH2 0xBF9 PUSH2 0xBA0 JUMP JUMPDEST JUMPDEST SWAP3 SWAP2 POP POP JUMP JUMPDEST DUP3 DUP2 DUP4 CALLDATACOPY PUSH0 DUP4 DUP4 ADD MSTORE POP POP POP JUMP JUMPDEST PUSH0 PUSH2 0xC19 DUP4 DUP6 PUSH2 0x6AA JUMP JUMPDEST SWAP4 POP PUSH2 0xC26 DUP4 DUP6 DUP5 PUSH2 0xC00 JUMP JUMPDEST PUSH2 0xC2F DUP4 PUSH2 0x6E2 JUMP JUMPDEST DUP5 ADD SWAP1 POP SWAP4 SWAP3 POP POP POP JUMP JUMPDEST PUSH0 PUSH1 0x60 DUP3 ADD SWAP1 POP PUSH2 0xC4D PUSH0 DUP4 ADD DUP8 PUSH2 0x691 JUMP JUMPDEST PUSH2 0xC5A PUSH1 0x20 DUP4 ADD DUP7 PUSH2 0x691 JUMP JUMPDEST DUP2 DUP2 SUB PUSH1 0x40 DUP4 ADD MSTORE PUSH2 0xC6D DUP2 DUP5 DUP7 PUSH2 0xC0E JUMP JUMPDEST SWAP1 POP SWAP6 SWAP5 POP POP POP POP POP JUMP JUMPDEST PUSH32 0x496E646578206F7574206F6620626F756E647300000000000000000000000000 PUSH0 DUP3 ADD MSTORE POP JUMP JUMPDEST PUSH0 PUSH2 0xCAC PUSH1 0x13 DUP4 PUSH2 0x6AA JUMP JUMPDEST SWAP2 POP PUSH2 0xCB7 DUP3 PUSH2 0xC78 JUMP JUMPDEST PUSH1 0x20 DUP3 ADD SWAP1 POP SWAP2 SWAP1 POP JUMP JUMPDEST PUSH0 PUSH1 0x20 DUP3 ADD SWAP1 POP DUP2 DUP2 SUB PUSH0 DUP4 ADD MSTORE PUSH2 0xCD9 DUP2 PUSH2 0xCA0 JUMP JUMPDEST SWAP1 POP SWAP2 SWAP1 POP JUMP JUMPDEST PUSH32 0x4E487B7100000000000000000000000000000000000000000000000000000000 PUSH0 MSTORE PUSH1 0x32 PUSH1 0x4 MSTORE PUSH1 0x24 PUSH0 REVERT INVALID LOG2 PUSH5 0x6970667358 0x22 SLT KECCAK256 0xA9 0xB5 BLOCKHASH ORIGIN 0xD5 0x1E PUSH18 0x3EA425886310666E6C80381B28756B3B1C6B 0xD9 0xB1 PUSH28 0x8FF808F064736F6C6343000814003300000000000000000000000000 "
		},
		"gasEstimates": {
			"creation": {
				"codeDepositCost": "679000",
				"executionCost": "713",
				"totalCost": "679713"
			},
			"external": {
				"addEntry(address,address,uint256,string)": "infinite",
				"getEntry(uint256)": "infinite",
				"getEntryCount()": "2440",
				"ledger(uint256)": "infinite"
			}
		},
		"methodIdentifiers": {
			"addEntry(address,address,uint256,string)": "88411149",
			"getEntry(uint256)": "bae78d7b",
			"getEntryCount()": "7a360e65",
			"ledger(uint256)": "10a7fd7b"
		}
	},
	"abi": [
		{
			"anonymous": false,
			"inputs": [
				{
					"indexed": true,
					"internalType": "uint256",
					"name": "entryId",
					"type": "uint256"
				},
				{
					"indexed": true,
					"internalType": "address",
					"name": "from",
					"type": "address"
				},
				{
					"indexed": true,
					"internalType": "address",
					"name": "to",
					"type": "address"
				},
				{
					"indexed": false,
					"internalType": "uint256",
					"name": "amount",
					"type": "uint256"
				},
				{
					"indexed": false,
					"internalType": "uint256",
					"name": "timestamp",
					"type": "uint256"
				},
				{
					"indexed": false,
					"internalType": "string",
					"name": "description",
					"type": "string"
				}
			],
			"name": "EntryAdded",
			"type": "event"
		},
		{
			"inputs": [
				{
					"internalType": "address",
					"name": "_from",
					"type": "address"
				},
				{
					"internalType": "address",
					"name": "_to",
					"type": "address"
				},
				{
					"internalType": "uint256",
					"name": "_amount",
					"type": "uint256"
				},
				{
					"internalType": "string",
					"name": "_description",
					"type": "string"
				}
			],
			"name": "addEntry",
			"outputs": [],
			"stateMutability": "nonpayable",
			"type": "function"
		},
		{
			"inputs": [
				{
					"internalType": "uint256",
					"name": "index",
					"type": "uint256"
				}
			],
			"name": "getEntry",
			"outputs": [
				{
					"internalType": "address",
					"name": "from",
					"type": "address"
				},
				{
					"internalType": "address",
					"name": "to",
					"type": "address"
				},
				{
					"internalType": "uint256",
					"name": "amount",
					"type": "uint256"
				},
				{
					"internalType": "uint256",
					"name": "timestamp",
					"type": "uint256"
				},
				{
					"internalType": "string",
					"name": "description",
					"type": "string"
				}
			],
			"stateMutability": "view",
			"type": "function"
		},
		{
			"inputs": [],
			"name": "getEntryCount",
			"outputs": [
				{
					"internalType": "uint256",
					"name": "",
					"type": "uint256"
				}
			],
			"stateMutability": "view",
			"type": "function"
		},
		{
			"inputs": [
				{
					"internalType": "uint256",
					"name": "",
					"type": "uint256"
				}
			],
			"name": "ledger",
			"outputs": [
				{
					"internalType": "address",
					"name": "from",
					"type": "address"
				},
				{
					"internalType": "address",
					"name": "to",
					"type": "address"
				},
				{
					"internalType": "uint256",
					"name": "amount",
					"type": "uint256"
				},
				{
					"internalType": "uint256",
					"name": "timestamp",
					"type": "uint256"
				},
				{
					"internalType": "string",
					"name": "description",
					"type": "string"
				}
			],
			"stateMutability": "view",
			"type": "function"
		}
	]
}