{
	"L/limit order limit buy limit sell.sol": {
		"LimitOrderBook": {
			"abi": [
				{
					"inputs": [
						{
							"internalType": "address",
							"name": "_token",
							"type": "address"
						}
					],
					"stateMutability": "nonpayable",
					"type": "constructor"
				},
				{
					"anonymous": false,
					"inputs": [
						{
							"indexed": true,
							"internalType": "uint256",
							"name": "orderId",
							"type": "uint256"
						}
					],
					"name": "OrderCancelled",
					"type": "event"
				},
				{
					"anonymous": false,
					"inputs": [
						{
							"indexed": true,
							"internalType": "uint256",
							"name": "orderId",
							"type": "uint256"
						},
						{
							"indexed": true,
							"internalType": "address",
							"name": "taker",
							"type": "address"
						}
					],
					"name": "OrderMatched",
					"type": "event"
				},
				{
					"anonymous": false,
					"inputs": [
						{
							"indexed": true,
							"internalType": "uint256",
							"name": "orderId",
							"type": "uint256"
						},
						{
							"indexed": true,
							"internalType": "address",
							"name": "user",
							"type": "address"
						},
						{
							"indexed": false,
							"internalType": "enum LimitOrderBook.OrderType",
							"name": "orderType",
							"type": "uint8"
						},
						{
							"indexed": false,
							"internalType": "uint256",
							"name": "tokenAmount",
							"type": "uint256"
						},
						{
							"indexed": false,
							"internalType": "uint256",
							"name": "price",
							"type": "uint256"
						}
					],
					"name": "OrderPlaced",
					"type": "event"
				},
				{
					"inputs": [
						{
							"internalType": "uint256",
							"name": "orderId",
							"type": "uint256"
						}
					],
					"name": "cancelOrder",
					"outputs": [],
					"stateMutability": "nonpayable",
					"type": "function"
				},
				{
					"inputs": [
						{
							"internalType": "uint256",
							"name": "orderId",
							"type": "uint256"
						}
					],
					"name": "getOrder",
					"outputs": [
						{
							"components": [
								{
									"internalType": "address",
									"name": "user",
									"type": "address"
								},
								{
									"internalType": "uint256",
									"name": "tokenAmount",
									"type": "uint256"
								},
								{
									"internalType": "uint256",
									"name": "priceInWei",
									"type": "uint256"
								},
								{
									"internalType": "enum LimitOrderBook.OrderType",
									"name": "orderType",
									"type": "uint8"
								},
								{
									"internalType": "bool",
									"name": "isActive",
									"type": "bool"
								}
							],
							"internalType": "struct LimitOrderBook.Order",
							"name": "",
							"type": "tuple"
						}
					],
					"stateMutability": "view",
					"type": "function"
				},
				{
					"inputs": [
						{
							"internalType": "uint256",
							"name": "orderId",
							"type": "uint256"
						}
					],
					"name": "matchBuy",
					"outputs": [],
					"stateMutability": "nonpayable",
					"type": "function"
				},
				{
					"inputs": [
						{
							"internalType": "uint256",
							"name": "orderId",
							"type": "uint256"
						}
					],
					"name": "matchSell",
					"outputs": [],
					"stateMutability": "payable",
					"type": "function"
				},
				{
					"inputs": [
						{
							"internalType": "uint256",
							"name": "",
							"type": "uint256"
						}
					],
					"name": "orders",
					"outputs": [
						{
							"internalType": "address",
							"name": "user",
							"type": "address"
						},
						{
							"internalType": "uint256",
							"name": "tokenAmount",
							"type": "uint256"
						},
						{
							"internalType": "uint256",
							"name": "priceInWei",
							"type": "uint256"
						},
						{
							"internalType": "enum LimitOrderBook.OrderType",
							"name": "orderType",
							"type": "uint8"
						},
						{
							"internalType": "bool",
							"name": "isActive",
							"type": "bool"
						}
					],
					"stateMutability": "view",
					"type": "function"
				},
				{
					"inputs": [
						{
							"internalType": "uint256",
							"name": "tokenAmount",
							"type": "uint256"
						},
						{
							"internalType": "uint256",
							"name": "pricePerTokenInWei",
							"type": "uint256"
						}
					],
					"name": "placeBuyOrder",
					"outputs": [],
					"stateMutability": "payable",
					"type": "function"
				},
				{
					"inputs": [
						{
							"internalType": "uint256",
							"name": "tokenAmount",
							"type": "uint256"
						},
						{
							"internalType": "uint256",
							"name": "pricePerTokenInWei",
							"type": "uint256"
						}
					],
					"name": "placeSellOrder",
					"outputs": [],
					"stateMutability": "nonpayable",
					"type": "function"
				},
				{
					"inputs": [],
					"name": "token",
					"outputs": [
						{
							"internalType": "contract IERC20",
							"name": "",
							"type": "address"
						}
					],
					"stateMutability": "view",
					"type": "function"
				}
			],
			"devdoc": {
				"kind": "dev",
				"methods": {},
				"version": 1
			},
			"evm": {
				"assembly": "    /* \"L/limit order limit buy limit sell.sol\":248:3529  contract LimitOrderBook {... */\n  mstore(0x40, 0x80)\n    /* \"L/limit order limit buy limit sell.sol\":799:866  constructor(address _token) {... */\n  callvalue\n  dup1\n  iszero\n  tag_1\n  jumpi\n  revert(0x00, 0x00)\ntag_1:\n  pop\n  mload(0x40)\n  sub(codesize, bytecodeSize)\n  dup1\n  bytecodeSize\n  dup4\n  codecopy\n  dup2\n  dup2\n  add\n  0x40\n  mstore\n  dup2\n  add\n  swap1\n  tag_2\n  swap2\n  swap1\n  tag_3\n  jump\t// in\ntag_2:\n    /* \"L/limit order limit buy limit sell.sol\":852:858  _token */\n  dup1\n    /* \"L/limit order limit buy limit sell.sol\":837:842  token */\n  0x00\n  0x00\n    /* \"L/limit order limit buy limit sell.sol\":837:859  token = IERC20(_token) */\n  0x0100\n  exp\n  dup2\n  sload\n  dup2\n  0xffffffffffffffffffffffffffffffffffffffff\n  mul\n  not\n  and\n  swap1\n  dup4\n  0xffffffffffffffffffffffffffffffffffffffff\n  and\n  mul\n  or\n  swap1\n  sstore\n  pop\n    /* \"L/limit order limit buy limit sell.sol\":799:866  constructor(address _token) {... */\n  pop\n    /* \"L/limit order limit buy limit sell.sol\":248:3529  contract LimitOrderBook {... */\n  jump(tag_6)\n    /* \"#utility.yul\":88:205   */\ntag_8:\n    /* \"#utility.yul\":197:198   */\n  0x00\n    /* \"#utility.yul\":194:195   */\n  0x00\n    /* \"#utility.yul\":187:199   */\n  revert\n    /* \"#utility.yul\":334:460   */\ntag_10:\n    /* \"#utility.yul\":371:378   */\n  0x00\n    /* \"#utility.yul\":411:453   */\n  0xffffffffffffffffffffffffffffffffffffffff\n    /* \"#utility.yul\":404:409   */\n  dup3\n    /* \"#utility.yul\":400:454   */\n  and\n    /* \"#utility.yul\":389:454   */\n  swap1\n  pop\n    /* \"#utility.yul\":334:460   */\n  swap2\n  swap1\n  pop\n  jump\t// out\n    /* \"#utility.yul\":466:562   */\ntag_11:\n    /* \"#utility.yul\":503:510   */\n  0x00\n    /* \"#utility.yul\":532:556   */\n  tag_20\n    /* \"#utility.yul\":550:555   */\n  dup3\n    /* \"#utility.yul\":532:556   */\n  tag_10\n  jump\t// in\ntag_20:\n    /* \"#utility.yul\":521:556   */\n  swap1\n  pop\n    /* \"#utility.yul\":466:562   */\n  swap2\n  swap1\n  pop\n  jump\t// out\n    /* \"#utility.yul\":568:690   */\ntag_12:\n    /* \"#utility.yul\":641:665   */\n  tag_22\n    /* \"#utility.yul\":659:664   */\n  dup2\n    /* \"#utility.yul\":641:665   */\n  tag_11\n  jump\t// in\ntag_22:\n    /* \"#utility.yul\":634:639   */\n  dup2\n    /* \"#utility.yul\":631:666   */\n  eq\n    /* \"#utility.yul\":621:684   */\n  tag_23\n  jumpi\n    /* \"#utility.yul\":680:681   */\n  0x00\n    /* \"#utility.yul\":677:678   */\n  0x00\n    /* \"#utility.yul\":670:682   */\n  revert\n    /* \"#utility.yul\":621:684   */\ntag_23:\n    /* \"#utility.yul\":568:690   */\n  pop\n  jump\t// out\n    /* \"#utility.yul\":696:839   */\ntag_13:\n    /* \"#utility.yul\":753:758   */\n  0x00\n    /* \"#utility.yul\":784:790   */\n  dup2\n    /* \"#utility.yul\":778:791   */\n  mload\n    /* \"#utility.yul\":769:791   */\n  swap1\n  pop\n    /* \"#utility.yul\":800:833   */\n  tag_25\n    /* \"#utility.yul\":827:832   */\n  dup2\n    /* \"#utility.yul\":800:833   */\n  tag_12\n  jump\t// in\ntag_25:\n    /* \"#utility.yul\":696:839   */\n  swap3\n  swap2\n  pop\n  pop\n  jump\t// out\n    /* \"#utility.yul\":845:1196   */\ntag_3:\n    /* \"#utility.yul\":915:921   */\n  0x00\n    /* \"#utility.yul\":964:966   */\n  0x20\n    /* \"#utility.yul\":952:961   */\n  dup3\n    /* \"#utility.yul\":943:950   */\n  dup5\n    /* \"#utility.yul\":939:962   */\n  sub\n    /* \"#utility.yul\":935:967   */\n  slt\n    /* \"#utility.yul\":932:1051   */\n  iszero\n  tag_27\n  jumpi\n    /* \"#utility.yul\":970:1049   */\n  tag_28\n  tag_8\n  jump\t// in\ntag_28:\n    /* \"#utility.yul\":932:1051   */\ntag_27:\n    /* \"#utility.yul\":1090:1091   */\n  0x00\n    /* \"#utility.yul\":1115:1179   */\n  tag_29\n    /* \"#utility.yul\":1171:1178   */\n  dup5\n    /* \"#utility.yul\":1162:1168   */\n  dup3\n    /* \"#utility.yul\":1151:1160   */\n  dup6\n    /* \"#utility.yul\":1147:1169   */\n  add\n    /* \"#utility.yul\":1115:1179   */\n  tag_13\n  jump\t// in\ntag_29:\n    /* \"#utility.yul\":1105:1179   */\n  swap2\n  pop\n    /* \"#utility.yul\":1061:1189   */\n  pop\n    /* \"#utility.yul\":845:1196   */\n  swap3\n  swap2\n  pop\n  pop\n  jump\t// out\n    /* \"L/limit order limit buy limit sell.sol\":248:3529  contract LimitOrderBook {... */\ntag_6:\n  dataSize(sub_0)\n  dup1\n  dataOffset(sub_0)\n  0x00\n  codecopy\n  0x00\n  return\nstop\n\nsub_0: assembly {\n        /* \"L/limit order limit buy limit sell.sol\":248:3529  contract LimitOrderBook {... */\n      mstore(0x40, 0x80)\n      jumpi(tag_1, lt(calldatasize, 0x04))\n      shr(0xe0, calldataload(0x00))\n      dup1\n      0xa85c38ef\n      gt\n      tag_10\n      jumpi\n      dup1\n      0xa85c38ef\n      eq\n      tag_6\n      jumpi\n      dup1\n      0xd09ef241\n      eq\n      tag_7\n      jumpi\n      dup1\n      0xee36d4ab\n      eq\n      tag_8\n      jumpi\n      dup1\n      0xfc0c546a\n      eq\n      tag_9\n      jumpi\n      jump(tag_1)\n    tag_10:\n      dup1\n      0x514fcac7\n      eq\n      tag_2\n      jumpi\n      dup1\n      0x567e15a8\n      eq\n      tag_3\n      jumpi\n      dup1\n      0x9a7fe1e6\n      eq\n      tag_4\n      jumpi\n      dup1\n      0xa4406bcd\n      eq\n      tag_5\n      jumpi\n    tag_1:\n      revert(0x00, 0x00)\n        /* \"L/limit order limit buy limit sell.sol\":2877:3410  function cancelOrder(uint256 orderId) external {... */\n    tag_2:\n      callvalue\n      dup1\n      iszero\n      tag_11\n      jumpi\n      revert(0x00, 0x00)\n    tag_11:\n      pop\n      tag_12\n      0x04\n      dup1\n      calldatasize\n      sub\n      dup2\n      add\n      swap1\n      tag_13\n      swap2\n      swap1\n      tag_14\n      jump\t// in\n    tag_13:\n      tag_15\n      jump\t// in\n    tag_12:\n      stop\n        /* \"L/limit order limit buy limit sell.sol\":2362:2871  function matchSell(uint256 orderId) external payable {... */\n    tag_3:\n      tag_16\n      0x04\n      dup1\n      calldatasize\n      sub\n      dup2\n      add\n      swap1\n      tag_17\n      swap2\n      swap1\n      tag_14\n      jump\t// in\n    tag_17:\n      tag_18\n      jump\t// in\n    tag_16:\n      stop\n        /* \"L/limit order limit buy limit sell.sol\":1905:2356  function matchBuy(uint256 orderId) external {... */\n    tag_4:\n      callvalue\n      dup1\n      iszero\n      tag_19\n      jumpi\n      revert(0x00, 0x00)\n    tag_19:\n      pop\n      tag_20\n      0x04\n      dup1\n      calldatasize\n      sub\n      dup2\n      add\n      swap1\n      tag_21\n      swap2\n      swap1\n      tag_14\n      jump\t// in\n    tag_21:\n      tag_22\n      jump\t// in\n    tag_20:\n      stop\n        /* \"L/limit order limit buy limit sell.sol\":1383:1899  function placeSellOrder(uint256 tokenAmount, uint256 pricePerTokenInWei) external {... */\n    tag_5:\n      callvalue\n      dup1\n      iszero\n      tag_23\n      jumpi\n      revert(0x00, 0x00)\n    tag_23:\n      pop\n      tag_24\n      0x04\n      dup1\n      calldatasize\n      sub\n      dup2\n      add\n      swap1\n      tag_25\n      swap2\n      swap1\n      tag_26\n      jump\t// in\n    tag_25:\n      tag_27\n      jump\t// in\n    tag_24:\n      stop\n        /* \"L/limit order limit buy limit sell.sol\":520:541  Order[] public orders */\n    tag_6:\n      callvalue\n      dup1\n      iszero\n      tag_28\n      jumpi\n      revert(0x00, 0x00)\n    tag_28:\n      pop\n      tag_29\n      0x04\n      dup1\n      calldatasize\n      sub\n      dup2\n      add\n      swap1\n      tag_30\n      swap2\n      swap1\n      tag_14\n      jump\t// in\n    tag_30:\n      tag_31\n      jump\t// in\n    tag_29:\n      mload(0x40)\n      tag_32\n      swap6\n      swap5\n      swap4\n      swap3\n      swap2\n      swap1\n      tag_33\n      jump\t// in\n    tag_32:\n      mload(0x40)\n      dup1\n      swap2\n      sub\n      swap1\n      return\n        /* \"L/limit order limit buy limit sell.sol\":3416:3527  function getOrder(uint256 orderId) external view returns (Order memory) {... */\n    tag_7:\n      callvalue\n      dup1\n      iszero\n      tag_34\n      jumpi\n      revert(0x00, 0x00)\n    tag_34:\n      pop\n      tag_35\n      0x04\n      dup1\n      calldatasize\n      sub\n      dup2\n      add\n      swap1\n      tag_36\n      swap2\n      swap1\n      tag_14\n      jump\t// in\n    tag_36:\n      tag_37\n      jump\t// in\n    tag_35:\n      mload(0x40)\n      tag_38\n      swap2\n      swap1\n      tag_39\n      jump\t// in\n    tag_38:\n      mload(0x40)\n      dup1\n      swap2\n      sub\n      swap1\n      return\n        /* \"L/limit order limit buy limit sell.sol\":872:1377  function placeBuyOrder(uint256 tokenAmount, uint256 pricePerTokenInWei) external payable {... */\n    tag_8:\n      tag_40\n      0x04\n      dup1\n      calldatasize\n      sub\n      dup2\n      add\n      swap1\n      tag_41\n      swap2\n      swap1\n      tag_26\n      jump\t// in\n    tag_41:\n      tag_42\n      jump\t// in\n    tag_40:\n      stop\n        /* \"L/limit order limit buy limit sell.sol\":495:514  IERC20 public token */\n    tag_9:\n      callvalue\n      dup1\n      iszero\n      tag_43\n      jumpi\n      revert(0x00, 0x00)\n    tag_43:\n      pop\n      tag_44\n      tag_45\n      jump\t// in\n    tag_44:\n      mload(0x40)\n      tag_46\n      swap2\n      swap1\n      tag_47\n      jump\t// in\n    tag_46:\n      mload(0x40)\n      dup1\n      swap2\n      sub\n      swap1\n      return\n        /* \"L/limit order limit buy limit sell.sol\":2877:3410  function cancelOrder(uint256 orderId) external {... */\n    tag_15:\n        /* \"L/limit order limit buy limit sell.sol\":2934:2953  Order storage order */\n      0x00\n        /* \"L/limit order limit buy limit sell.sol\":2956:2962  orders */\n      0x01\n        /* \"L/limit order limit buy limit sell.sol\":2963:2970  orderId */\n      dup3\n        /* \"L/limit order limit buy limit sell.sol\":2956:2971  orders[orderId] */\n      dup2\n      sload\n      dup2\n      lt\n      tag_49\n      jumpi\n      tag_50\n      tag_51\n      jump\t// in\n    tag_50:\n    tag_49:\n      swap1\n      0x00\n      mstore\n      keccak256(0x00, 0x20)\n      swap1\n      0x04\n      mul\n      add\n        /* \"L/limit order limit buy limit sell.sol\":2934:2971  Order storage order = orders[orderId] */\n      swap1\n      pop\n        /* \"L/limit order limit buy limit sell.sol\":2989:2994  order */\n      dup1\n        /* \"L/limit order limit buy limit sell.sol\":2989:3003  order.isActive */\n      0x03\n      add\n      0x01\n      swap1\n      sload\n      swap1\n      0x0100\n      exp\n      swap1\n      div\n      0xff\n      and\n        /* \"L/limit order limit buy limit sell.sol\":2981:3024  require(order.isActive, \"Order not active\") */\n      tag_53\n      jumpi\n      mload(0x40)\n      0x08c379a000000000000000000000000000000000000000000000000000000000\n      dup2\n      mstore\n      0x04\n      add\n      tag_54\n      swap1\n      tag_55\n      jump\t// in\n    tag_54:\n      mload(0x40)\n      dup1\n      swap2\n      sub\n      swap1\n      revert\n    tag_53:\n        /* \"L/limit order limit buy limit sell.sol\":3056:3066  msg.sender */\n      caller\n        /* \"L/limit order limit buy limit sell.sol\":3042:3066  order.user == msg.sender */\n      0xffffffffffffffffffffffffffffffffffffffff\n      and\n        /* \"L/limit order limit buy limit sell.sol\":3042:3047  order */\n      dup2\n        /* \"L/limit order limit buy limit sell.sol\":3042:3052  order.user */\n      0x00\n      add\n      0x00\n      swap1\n      sload\n      swap1\n      0x0100\n      exp\n      swap1\n      div\n      0xffffffffffffffffffffffffffffffffffffffff\n      and\n        /* \"L/limit order limit buy limit sell.sol\":3042:3066  order.user == msg.sender */\n      0xffffffffffffffffffffffffffffffffffffffff\n      and\n      eq\n        /* \"L/limit order limit buy limit sell.sol\":3034:3085  require(order.user == msg.sender, \"Not your order\") */\n      tag_56\n      jumpi\n      mload(0x40)\n      0x08c379a000000000000000000000000000000000000000000000000000000000\n      dup2\n      mstore\n      0x04\n      add\n      tag_57\n      swap1\n      tag_58\n      jump\t// in\n    tag_57:\n      mload(0x40)\n      dup1\n      swap2\n      sub\n      swap1\n      revert\n    tag_56:\n        /* \"L/limit order limit buy limit sell.sol\":3113:3118  false */\n      0x00\n        /* \"L/limit order limit buy limit sell.sol\":3096:3101  order */\n      dup2\n        /* \"L/limit order limit buy limit sell.sol\":3096:3110  order.isActive */\n      0x03\n      add\n      0x01\n        /* \"L/limit order limit buy limit sell.sol\":3096:3118  order.isActive = false */\n      0x0100\n      exp\n      dup2\n      sload\n      dup2\n      0xff\n      mul\n      not\n      and\n      swap1\n      dup4\n      iszero\n      iszero\n      mul\n      or\n      swap1\n      sstore\n      pop\n        /* \"L/limit order limit buy limit sell.sol\":3151:3164  OrderType.Buy */\n      0x00\n        /* \"L/limit order limit buy limit sell.sol\":3132:3164  order.orderType == OrderType.Buy */\n      0x01\n      dup2\n      gt\n      iszero\n      tag_59\n      jumpi\n      tag_60\n      tag_61\n      jump\t// in\n    tag_60:\n    tag_59:\n        /* \"L/limit order limit buy limit sell.sol\":3132:3137  order */\n      dup2\n        /* \"L/limit order limit buy limit sell.sol\":3132:3147  order.orderType */\n      0x03\n      add\n      0x00\n      swap1\n      sload\n      swap1\n      0x0100\n      exp\n      swap1\n      div\n      0xff\n      and\n        /* \"L/limit order limit buy limit sell.sol\":3132:3164  order.orderType == OrderType.Buy */\n      0x01\n      dup2\n      gt\n      iszero\n      tag_62\n      jumpi\n      tag_63\n      tag_61\n      jump\t// in\n    tag_63:\n    tag_62:\n      sub\n        /* \"L/limit order limit buy limit sell.sol\":3128:3365  if (order.orderType == OrderType.Buy) {... */\n      tag_64\n      jumpi\n        /* \"L/limit order limit buy limit sell.sol\":3188:3198  msg.sender */\n      caller\n        /* \"L/limit order limit buy limit sell.sol\":3180:3208  payable(msg.sender).transfer */\n      0xffffffffffffffffffffffffffffffffffffffff\n      and\n        /* \"L/limit order limit buy limit sell.sol\":3180:3246  payable(msg.sender).transfer(order.tokenAmount * order.priceInWei) */\n      0x08fc\n        /* \"L/limit order limit buy limit sell.sol\":3229:3234  order */\n      dup3\n        /* \"L/limit order limit buy limit sell.sol\":3229:3245  order.priceInWei */\n      0x02\n      add\n      sload\n        /* \"L/limit order limit buy limit sell.sol\":3209:3214  order */\n      dup4\n        /* \"L/limit order limit buy limit sell.sol\":3209:3226  order.tokenAmount */\n      0x01\n      add\n      sload\n        /* \"L/limit order limit buy limit sell.sol\":3209:3245  order.tokenAmount * order.priceInWei */\n      tag_65\n      swap2\n      swap1\n      tag_66\n      jump\t// in\n    tag_65:\n        /* \"L/limit order limit buy limit sell.sol\":3180:3246  payable(msg.sender).transfer(order.tokenAmount * order.priceInWei) */\n      swap1\n      dup2\n      iszero\n      mul\n      swap1\n      mload(0x40)\n      0x00\n      mload(0x40)\n      dup1\n      dup4\n      sub\n      dup2\n      dup6\n      dup9\n      dup9\n      call\n      swap4\n      pop\n      pop\n      pop\n      pop\n      iszero\n      dup1\n      iszero\n      tag_68\n      jumpi\n      returndatacopy(0x00, 0x00, returndatasize)\n      revert(0x00, returndatasize)\n    tag_68:\n      pop\n        /* \"L/limit order limit buy limit sell.sol\":3128:3365  if (order.orderType == OrderType.Buy) {... */\n      jump(tag_69)\n    tag_64:\n        /* \"L/limit order limit buy limit sell.sol\":3285:3290  token */\n      0x00\n      0x00\n      swap1\n      sload\n      swap1\n      0x0100\n      exp\n      swap1\n      div\n      0xffffffffffffffffffffffffffffffffffffffff\n      and\n        /* \"L/limit order limit buy limit sell.sol\":3285:3299  token.transfer */\n      0xffffffffffffffffffffffffffffffffffffffff\n      and\n      0xa9059cbb\n        /* \"L/limit order limit buy limit sell.sol\":3300:3310  msg.sender */\n      caller\n        /* \"L/limit order limit buy limit sell.sol\":3312:3317  order */\n      dup4\n        /* \"L/limit order limit buy limit sell.sol\":3312:3329  order.tokenAmount */\n      0x01\n      add\n      sload\n        /* \"L/limit order limit buy limit sell.sol\":3285:3330  token.transfer(msg.sender, order.tokenAmount) */\n      mload(0x40)\n      dup4\n      0xffffffff\n      and\n      0xe0\n      shl\n      dup2\n      mstore\n      0x04\n      add\n      tag_70\n      swap3\n      swap2\n      swap1\n      tag_71\n      jump\t// in\n    tag_70:\n      0x20\n      mload(0x40)\n      dup1\n      dup4\n      sub\n      dup2\n      0x00\n      dup8\n      gas\n      call\n      iszero\n      dup1\n      iszero\n      tag_73\n      jumpi\n      returndatacopy(0x00, 0x00, returndatasize)\n      revert(0x00, returndatasize)\n    tag_73:\n      pop\n      pop\n      pop\n      pop\n      mload(0x40)\n      returndatasize\n      not(0x1f)\n      0x1f\n      dup3\n      add\n      and\n      dup3\n      add\n      dup1\n      0x40\n      mstore\n      pop\n      dup2\n      add\n      swap1\n      tag_74\n      swap2\n      swap1\n      tag_75\n      jump\t// in\n    tag_74:\n        /* \"L/limit order limit buy limit sell.sol\":3277:3354  require(token.transfer(msg.sender, order.tokenAmount), \"Token refund failed\") */\n      tag_76\n      jumpi\n      mload(0x40)\n      0x08c379a000000000000000000000000000000000000000000000000000000000\n      dup2\n      mstore\n      0x04\n      add\n      tag_77\n      swap1\n      tag_78\n      jump\t// in\n    tag_77:\n      mload(0x40)\n      dup1\n      swap2\n      sub\n      swap1\n      revert\n    tag_76:\n        /* \"L/limit order limit buy limit sell.sol\":3128:3365  if (order.orderType == OrderType.Buy) {... */\n    tag_69:\n        /* \"L/limit order limit buy limit sell.sol\":3395:3402  orderId */\n      dup2\n        /* \"L/limit order limit buy limit sell.sol\":3380:3403  OrderCancelled(orderId) */\n      0x61b9399f2f0f32ca39ce8d7be32caed5ec22fe07a6daba3a467ed479ec606582\n      mload(0x40)\n      mload(0x40)\n      dup1\n      swap2\n      sub\n      swap1\n      log2\n        /* \"L/limit order limit buy limit sell.sol\":2924:3410  {... */\n      pop\n        /* \"L/limit order limit buy limit sell.sol\":2877:3410  function cancelOrder(uint256 orderId) external {... */\n      pop\n      jump\t// out\n        /* \"L/limit order limit buy limit sell.sol\":2362:2871  function matchSell(uint256 orderId) external payable {... */\n    tag_18:\n        /* \"L/limit order limit buy limit sell.sol\":2425:2444  Order storage order */\n      0x00\n        /* \"L/limit order limit buy limit sell.sol\":2447:2453  orders */\n      0x01\n        /* \"L/limit order limit buy limit sell.sol\":2454:2461  orderId */\n      dup3\n        /* \"L/limit order limit buy limit sell.sol\":2447:2462  orders[orderId] */\n      dup2\n      sload\n      dup2\n      lt\n      tag_80\n      jumpi\n      tag_81\n      tag_51\n      jump\t// in\n    tag_81:\n    tag_80:\n      swap1\n      0x00\n      mstore\n      keccak256(0x00, 0x20)\n      swap1\n      0x04\n      mul\n      add\n        /* \"L/limit order limit buy limit sell.sol\":2425:2462  Order storage order = orders[orderId] */\n      swap1\n      pop\n        /* \"L/limit order limit buy limit sell.sol\":2480:2485  order */\n      dup1\n        /* \"L/limit order limit buy limit sell.sol\":2480:2494  order.isActive */\n      0x03\n      add\n      0x01\n      swap1\n      sload\n      swap1\n      0x0100\n      exp\n      swap1\n      div\n      0xff\n      and\n        /* \"L/limit order limit buy limit sell.sol\":2480:2531  order.isActive && order.orderType == OrderType.Sell */\n      dup1\n      iszero\n      tag_83\n      jumpi\n      pop\n        /* \"L/limit order limit buy limit sell.sol\":2517:2531  OrderType.Sell */\n      0x01\n        /* \"L/limit order limit buy limit sell.sol\":2498:2531  order.orderType == OrderType.Sell */\n      dup1\n      dup2\n      gt\n      iszero\n      tag_84\n      jumpi\n      tag_85\n      tag_61\n      jump\t// in\n    tag_85:\n    tag_84:\n        /* \"L/limit order limit buy limit sell.sol\":2498:2503  order */\n      dup2\n        /* \"L/limit order limit buy limit sell.sol\":2498:2513  order.orderType */\n      0x03\n      add\n      0x00\n      swap1\n      sload\n      swap1\n      0x0100\n      exp\n      swap1\n      div\n      0xff\n      and\n        /* \"L/limit order limit buy limit sell.sol\":2498:2531  order.orderType == OrderType.Sell */\n      0x01\n      dup2\n      gt\n      iszero\n      tag_86\n      jumpi\n      tag_87\n      tag_61\n      jump\t// in\n    tag_87:\n    tag_86:\n      eq\n        /* \"L/limit order limit buy limit sell.sol\":2480:2531  order.isActive && order.orderType == OrderType.Sell */\n    tag_83:\n        /* \"L/limit order limit buy limit sell.sol\":2472:2554  require(order.isActive && order.orderType == OrderType.Sell, \"Invalid sell order\") */\n      tag_88\n      jumpi\n      mload(0x40)\n      0x08c379a000000000000000000000000000000000000000000000000000000000\n      dup2\n      mstore\n      0x04\n      add\n      tag_89\n      swap1\n      tag_90\n      jump\t// in\n    tag_89:\n      mload(0x40)\n      dup1\n      swap2\n      sub\n      swap1\n      revert\n    tag_88:\n        /* \"L/limit order limit buy limit sell.sol\":2605:2610  order */\n      dup1\n        /* \"L/limit order limit buy limit sell.sol\":2605:2621  order.priceInWei */\n      0x02\n      add\n      sload\n        /* \"L/limit order limit buy limit sell.sol\":2585:2590  order */\n      dup2\n        /* \"L/limit order limit buy limit sell.sol\":2585:2602  order.tokenAmount */\n      0x01\n      add\n      sload\n        /* \"L/limit order limit buy limit sell.sol\":2585:2621  order.tokenAmount * order.priceInWei */\n      tag_91\n      swap2\n      swap1\n      tag_66\n      jump\t// in\n    tag_91:\n        /* \"L/limit order limit buy limit sell.sol\":2572:2581  msg.value */\n      callvalue\n        /* \"L/limit order limit buy limit sell.sol\":2572:2621  msg.value == order.tokenAmount * order.priceInWei */\n      eq\n        /* \"L/limit order limit buy limit sell.sol\":2564:2644  require(msg.value == order.tokenAmount * order.priceInWei, \"Incorrect ETH sent\") */\n      tag_92\n      jumpi\n      mload(0x40)\n      0x08c379a000000000000000000000000000000000000000000000000000000000\n      dup2\n      mstore\n      0x04\n      add\n      tag_93\n      swap1\n      tag_94\n      jump\t// in\n    tag_93:\n      mload(0x40)\n      dup1\n      swap2\n      sub\n      swap1\n      revert\n    tag_92:\n        /* \"L/limit order limit buy limit sell.sol\":2663:2668  token */\n      0x00\n      0x00\n      swap1\n      sload\n      swap1\n      0x0100\n      exp\n      swap1\n      div\n      0xffffffffffffffffffffffffffffffffffffffff\n      and\n        /* \"L/limit order limit buy limit sell.sol\":2663:2677  token.transfer */\n      0xffffffffffffffffffffffffffffffffffffffff\n      and\n      0xa9059cbb\n        /* \"L/limit order limit buy limit sell.sol\":2678:2688  msg.sender */\n      caller\n        /* \"L/limit order limit buy limit sell.sol\":2690:2695  order */\n      dup4\n        /* \"L/limit order limit buy limit sell.sol\":2690:2707  order.tokenAmount */\n      0x01\n      add\n      sload\n        /* \"L/limit order limit buy limit sell.sol\":2663:2708  token.transfer(msg.sender, order.tokenAmount) */\n      mload(0x40)\n      dup4\n      0xffffffff\n      and\n      0xe0\n      shl\n      dup2\n      mstore\n      0x04\n      add\n      tag_95\n      swap3\n      swap2\n      swap1\n      tag_71\n      jump\t// in\n    tag_95:\n      0x20\n      mload(0x40)\n      dup1\n      dup4\n      sub\n      dup2\n      0x00\n      dup8\n      gas\n      call\n      iszero\n      dup1\n      iszero\n      tag_97\n      jumpi\n      returndatacopy(0x00, 0x00, returndatasize)\n      revert(0x00, returndatasize)\n    tag_97:\n      pop\n      pop\n      pop\n      pop\n      mload(0x40)\n      returndatasize\n      not(0x1f)\n      0x1f\n      dup3\n      add\n      and\n      dup3\n      add\n      dup1\n      0x40\n      mstore\n      pop\n      dup2\n      add\n      swap1\n      tag_98\n      swap2\n      swap1\n      tag_75\n      jump\t// in\n    tag_98:\n        /* \"L/limit order limit buy limit sell.sol\":2655:2734  require(token.transfer(msg.sender, order.tokenAmount), \"Token transfer failed\") */\n      tag_99\n      jumpi\n      mload(0x40)\n      0x08c379a000000000000000000000000000000000000000000000000000000000\n      dup2\n      mstore\n      0x04\n      add\n      tag_100\n      swap1\n      tag_101\n      jump\t// in\n    tag_100:\n      mload(0x40)\n      dup1\n      swap2\n      sub\n      swap1\n      revert\n    tag_99:\n        /* \"L/limit order limit buy limit sell.sol\":2752:2757  order */\n      dup1\n        /* \"L/limit order limit buy limit sell.sol\":2752:2762  order.user */\n      0x00\n      add\n      0x00\n      swap1\n      sload\n      swap1\n      0x0100\n      exp\n      swap1\n      div\n      0xffffffffffffffffffffffffffffffffffffffff\n      and\n        /* \"L/limit order limit buy limit sell.sol\":2744:2772  payable(order.user).transfer */\n      0xffffffffffffffffffffffffffffffffffffffff\n      and\n        /* \"L/limit order limit buy limit sell.sol\":2744:2783  payable(order.user).transfer(msg.value) */\n      0x08fc\n        /* \"L/limit order limit buy limit sell.sol\":2773:2782  msg.value */\n      callvalue\n        /* \"L/limit order limit buy limit sell.sol\":2744:2783  payable(order.user).transfer(msg.value) */\n      swap1\n      dup2\n      iszero\n      mul\n      swap1\n      mload(0x40)\n      0x00\n      mload(0x40)\n      dup1\n      dup4\n      sub\n      dup2\n      dup6\n      dup9\n      dup9\n      call\n      swap4\n      pop\n      pop\n      pop\n      pop\n      iszero\n      dup1\n      iszero\n      tag_103\n      jumpi\n      returndatacopy(0x00, 0x00, returndatasize)\n      revert(0x00, returndatasize)\n    tag_103:\n      pop\n        /* \"L/limit order limit buy limit sell.sol\":2811:2816  false */\n      0x00\n        /* \"L/limit order limit buy limit sell.sol\":2794:2799  order */\n      dup2\n        /* \"L/limit order limit buy limit sell.sol\":2794:2808  order.isActive */\n      0x03\n      add\n      0x01\n        /* \"L/limit order limit buy limit sell.sol\":2794:2816  order.isActive = false */\n      0x0100\n      exp\n      dup2\n      sload\n      dup2\n      0xff\n      mul\n      not\n      and\n      swap1\n      dup4\n      iszero\n      iszero\n      mul\n      or\n      swap1\n      sstore\n      pop\n        /* \"L/limit order limit buy limit sell.sol\":2853:2863  msg.sender */\n      caller\n        /* \"L/limit order limit buy limit sell.sol\":2831:2864  OrderMatched(orderId, msg.sender) */\n      0xffffffffffffffffffffffffffffffffffffffff\n      and\n        /* \"L/limit order limit buy limit sell.sol\":2844:2851  orderId */\n      dup3\n        /* \"L/limit order limit buy limit sell.sol\":2831:2864  OrderMatched(orderId, msg.sender) */\n      0xf25a05118e210ce1060e78f9ef6383d8cb0e4408114aa3a5eded9791a053a049\n      mload(0x40)\n      mload(0x40)\n      dup1\n      swap2\n      sub\n      swap1\n      log3\n        /* \"L/limit order limit buy limit sell.sol\":2415:2871  {... */\n      pop\n        /* \"L/limit order limit buy limit sell.sol\":2362:2871  function matchSell(uint256 orderId) external payable {... */\n      pop\n      jump\t// out\n        /* \"L/limit order limit buy limit sell.sol\":1905:2356  function matchBuy(uint256 orderId) external {... */\n    tag_22:\n        /* \"L/limit order limit buy limit sell.sol\":1959:1978  Order storage order */\n      0x00\n        /* \"L/limit order limit buy limit sell.sol\":1981:1987  orders */\n      0x01\n        /* \"L/limit order limit buy limit sell.sol\":1988:1995  orderId */\n      dup3\n        /* \"L/limit order limit buy limit sell.sol\":1981:1996  orders[orderId] */\n      dup2\n      sload\n      dup2\n      lt\n      tag_105\n      jumpi\n      tag_106\n      tag_51\n      jump\t// in\n    tag_106:\n    tag_105:\n      swap1\n      0x00\n      mstore\n      keccak256(0x00, 0x20)\n      swap1\n      0x04\n      mul\n      add\n        /* \"L/limit order limit buy limit sell.sol\":1959:1996  Order storage order = orders[orderId] */\n      swap1\n      pop\n        /* \"L/limit order limit buy limit sell.sol\":2014:2019  order */\n      dup1\n        /* \"L/limit order limit buy limit sell.sol\":2014:2028  order.isActive */\n      0x03\n      add\n      0x01\n      swap1\n      sload\n      swap1\n      0x0100\n      exp\n      swap1\n      div\n      0xff\n      and\n        /* \"L/limit order limit buy limit sell.sol\":2014:2064  order.isActive && order.orderType == OrderType.Buy */\n      dup1\n      iszero\n      tag_108\n      jumpi\n      pop\n        /* \"L/limit order limit buy limit sell.sol\":2051:2064  OrderType.Buy */\n      0x00\n        /* \"L/limit order limit buy limit sell.sol\":2032:2064  order.orderType == OrderType.Buy */\n      0x01\n      dup2\n      gt\n      iszero\n      tag_109\n      jumpi\n      tag_110\n      tag_61\n      jump\t// in\n    tag_110:\n    tag_109:\n        /* \"L/limit order limit buy limit sell.sol\":2032:2037  order */\n      dup2\n        /* \"L/limit order limit buy limit sell.sol\":2032:2047  order.orderType */\n      0x03\n      add\n      0x00\n      swap1\n      sload\n      swap1\n      0x0100\n      exp\n      swap1\n      div\n      0xff\n      and\n        /* \"L/limit order limit buy limit sell.sol\":2032:2064  order.orderType == OrderType.Buy */\n      0x01\n      dup2\n      gt\n      iszero\n      tag_111\n      jumpi\n      tag_112\n      tag_61\n      jump\t// in\n    tag_112:\n    tag_111:\n      eq\n        /* \"L/limit order limit buy limit sell.sol\":2014:2064  order.isActive && order.orderType == OrderType.Buy */\n    tag_108:\n        /* \"L/limit order limit buy limit sell.sol\":2006:2086  require(order.isActive && order.orderType == OrderType.Buy, \"Invalid buy order\") */\n      tag_113\n      jumpi\n      mload(0x40)\n      0x08c379a000000000000000000000000000000000000000000000000000000000\n      dup2\n      mstore\n      0x04\n      add\n      tag_114\n      swap1\n      tag_115\n      jump\t// in\n    tag_114:\n      mload(0x40)\n      dup1\n      swap2\n      sub\n      swap1\n      revert\n    tag_113:\n        /* \"L/limit order limit buy limit sell.sol\":2105:2110  token */\n      0x00\n      0x00\n      swap1\n      sload\n      swap1\n      0x0100\n      exp\n      swap1\n      div\n      0xffffffffffffffffffffffffffffffffffffffff\n      and\n        /* \"L/limit order limit buy limit sell.sol\":2105:2123  token.transferFrom */\n      0xffffffffffffffffffffffffffffffffffffffff\n      and\n      0x23b872dd\n        /* \"L/limit order limit buy limit sell.sol\":2124:2134  msg.sender */\n      caller\n        /* \"L/limit order limit buy limit sell.sol\":2136:2141  order */\n      dup4\n        /* \"L/limit order limit buy limit sell.sol\":2136:2146  order.user */\n      0x00\n      add\n      0x00\n      swap1\n      sload\n      swap1\n      0x0100\n      exp\n      swap1\n      div\n      0xffffffffffffffffffffffffffffffffffffffff\n      and\n        /* \"L/limit order limit buy limit sell.sol\":2148:2153  order */\n      dup5\n        /* \"L/limit order limit buy limit sell.sol\":2148:2165  order.tokenAmount */\n      0x01\n      add\n      sload\n        /* \"L/limit order limit buy limit sell.sol\":2105:2166  token.transferFrom(msg.sender, order.user, order.tokenAmount) */\n      mload(0x40)\n      dup5\n      0xffffffff\n      and\n      0xe0\n      shl\n      dup2\n      mstore\n      0x04\n      add\n      tag_116\n      swap4\n      swap3\n      swap2\n      swap1\n      tag_117\n      jump\t// in\n    tag_116:\n      0x20\n      mload(0x40)\n      dup1\n      dup4\n      sub\n      dup2\n      0x00\n      dup8\n      gas\n      call\n      iszero\n      dup1\n      iszero\n      tag_119\n      jumpi\n      returndatacopy(0x00, 0x00, returndatasize)\n      revert(0x00, returndatasize)\n    tag_119:\n      pop\n      pop\n      pop\n      pop\n      mload(0x40)\n      returndatasize\n      not(0x1f)\n      0x1f\n      dup3\n      add\n      and\n      dup3\n      add\n      dup1\n      0x40\n      mstore\n      pop\n      dup2\n      add\n      swap1\n      tag_120\n      swap2\n      swap1\n      tag_75\n      jump\t// in\n    tag_120:\n        /* \"L/limit order limit buy limit sell.sol\":2097:2192  require(token.transferFrom(msg.sender, order.user, order.tokenAmount), \"Token transfer failed\") */\n      tag_121\n      jumpi\n      mload(0x40)\n      0x08c379a000000000000000000000000000000000000000000000000000000000\n      dup2\n      mstore\n      0x04\n      add\n      tag_122\n      swap1\n      tag_101\n      jump\t// in\n    tag_122:\n      mload(0x40)\n      dup1\n      swap2\n      sub\n      swap1\n      revert\n    tag_121:\n        /* \"L/limit order limit buy limit sell.sol\":2210:2220  msg.sender */\n      caller\n        /* \"L/limit order limit buy limit sell.sol\":2202:2230  payable(msg.sender).transfer */\n      0xffffffffffffffffffffffffffffffffffffffff\n      and\n        /* \"L/limit order limit buy limit sell.sol\":2202:2268  payable(msg.sender).transfer(order.tokenAmount * order.priceInWei) */\n      0x08fc\n        /* \"L/limit order limit buy limit sell.sol\":2251:2256  order */\n      dup3\n        /* \"L/limit order limit buy limit sell.sol\":2251:2267  order.priceInWei */\n      0x02\n      add\n      sload\n        /* \"L/limit order limit buy limit sell.sol\":2231:2236  order */\n      dup4\n        /* \"L/limit order limit buy limit sell.sol\":2231:2248  order.tokenAmount */\n      0x01\n      add\n      sload\n        /* \"L/limit order limit buy limit sell.sol\":2231:2267  order.tokenAmount * order.priceInWei */\n      tag_123\n      swap2\n      swap1\n      tag_66\n      jump\t// in\n    tag_123:\n        /* \"L/limit order limit buy limit sell.sol\":2202:2268  payable(msg.sender).transfer(order.tokenAmount * order.priceInWei) */\n      swap1\n      dup2\n      iszero\n      mul\n      swap1\n      mload(0x40)\n      0x00\n      mload(0x40)\n      dup1\n      dup4\n      sub\n      dup2\n      dup6\n      dup9\n      dup9\n      call\n      swap4\n      pop\n      pop\n      pop\n      pop\n      iszero\n      dup1\n      iszero\n      tag_125\n      jumpi\n      returndatacopy(0x00, 0x00, returndatasize)\n      revert(0x00, returndatasize)\n    tag_125:\n      pop\n        /* \"L/limit order limit buy limit sell.sol\":2296:2301  false */\n      0x00\n        /* \"L/limit order limit buy limit sell.sol\":2279:2284  order */\n      dup2\n        /* \"L/limit order limit buy limit sell.sol\":2279:2293  order.isActive */\n      0x03\n      add\n      0x01\n        /* \"L/limit order limit buy limit sell.sol\":2279:2301  order.isActive = false */\n      0x0100\n      exp\n      dup2\n      sload\n      dup2\n      0xff\n      mul\n      not\n      and\n      swap1\n      dup4\n      iszero\n      iszero\n      mul\n      or\n      swap1\n      sstore\n      pop\n        /* \"L/limit order limit buy limit sell.sol\":2338:2348  msg.sender */\n      caller\n        /* \"L/limit order limit buy limit sell.sol\":2316:2349  OrderMatched(orderId, msg.sender) */\n      0xffffffffffffffffffffffffffffffffffffffff\n      and\n        /* \"L/limit order limit buy limit sell.sol\":2329:2336  orderId */\n      dup3\n        /* \"L/limit order limit buy limit sell.sol\":2316:2349  OrderMatched(orderId, msg.sender) */\n      0xf25a05118e210ce1060e78f9ef6383d8cb0e4408114aa3a5eded9791a053a049\n      mload(0x40)\n      mload(0x40)\n      dup1\n      swap2\n      sub\n      swap1\n      log3\n        /* \"L/limit order limit buy limit sell.sol\":1949:2356  {... */\n      pop\n        /* \"L/limit order limit buy limit sell.sol\":1905:2356  function matchBuy(uint256 orderId) external {... */\n      pop\n      jump\t// out\n        /* \"L/limit order limit buy limit sell.sol\":1383:1899  function placeSellOrder(uint256 tokenAmount, uint256 pricePerTokenInWei) external {... */\n    tag_27:\n        /* \"L/limit order limit buy limit sell.sol\":1483:1488  token */\n      0x00\n      0x00\n      swap1\n      sload\n      swap1\n      0x0100\n      exp\n      swap1\n      div\n      0xffffffffffffffffffffffffffffffffffffffff\n      and\n        /* \"L/limit order limit buy limit sell.sol\":1483:1501  token.transferFrom */\n      0xffffffffffffffffffffffffffffffffffffffff\n      and\n      0x23b872dd\n        /* \"L/limit order limit buy limit sell.sol\":1502:1512  msg.sender */\n      caller\n        /* \"L/limit order limit buy limit sell.sol\":1522:1526  this */\n      address\n        /* \"L/limit order limit buy limit sell.sol\":1529:1540  tokenAmount */\n      dup6\n        /* \"L/limit order limit buy limit sell.sol\":1483:1541  token.transferFrom(msg.sender, address(this), tokenAmount) */\n      mload(0x40)\n      dup5\n      0xffffffff\n      and\n      0xe0\n      shl\n      dup2\n      mstore\n      0x04\n      add\n      tag_127\n      swap4\n      swap3\n      swap2\n      swap1\n      tag_117\n      jump\t// in\n    tag_127:\n      0x20\n      mload(0x40)\n      dup1\n      dup4\n      sub\n      dup2\n      0x00\n      dup8\n      gas\n      call\n      iszero\n      dup1\n      iszero\n      tag_129\n      jumpi\n      returndatacopy(0x00, 0x00, returndatasize)\n      revert(0x00, returndatasize)\n    tag_129:\n      pop\n      pop\n      pop\n      pop\n      mload(0x40)\n      returndatasize\n      not(0x1f)\n      0x1f\n      dup3\n      add\n      and\n      dup3\n      add\n      dup1\n      0x40\n      mstore\n      pop\n      dup2\n      add\n      swap1\n      tag_130\n      swap2\n      swap1\n      tag_75\n      jump\t// in\n    tag_130:\n        /* \"L/limit order limit buy limit sell.sol\":1475:1567  require(token.transferFrom(msg.sender, address(this), tokenAmount), \"Token transfer failed\") */\n      tag_131\n      jumpi\n      mload(0x40)\n      0x08c379a000000000000000000000000000000000000000000000000000000000\n      dup2\n      mstore\n      0x04\n      add\n      tag_132\n      swap1\n      tag_101\n      jump\t// in\n    tag_132:\n      mload(0x40)\n      dup1\n      swap2\n      sub\n      swap1\n      revert\n    tag_131:\n        /* \"L/limit order limit buy limit sell.sol\":1577:1583  orders */\n      0x01\n        /* \"L/limit order limit buy limit sell.sol\":1589:1785  Order({... */\n      mload(0x40)\n      dup1\n      0xa0\n      add\n      0x40\n      mstore\n      dup1\n        /* \"L/limit order limit buy limit sell.sol\":1615:1625  msg.sender */\n      caller\n        /* \"L/limit order limit buy limit sell.sol\":1589:1785  Order({... */\n      0xffffffffffffffffffffffffffffffffffffffff\n      and\n      dup2\n      mstore\n      0x20\n      add\n        /* \"L/limit order limit buy limit sell.sol\":1652:1663  tokenAmount */\n      dup5\n        /* \"L/limit order limit buy limit sell.sol\":1589:1785  Order({... */\n      dup2\n      mstore\n      0x20\n      add\n        /* \"L/limit order limit buy limit sell.sol\":1689:1707  pricePerTokenInWei */\n      dup4\n        /* \"L/limit order limit buy limit sell.sol\":1589:1785  Order({... */\n      dup2\n      mstore\n      0x20\n      add\n        /* \"L/limit order limit buy limit sell.sol\":1732:1746  OrderType.Sell */\n      0x01\n        /* \"L/limit order limit buy limit sell.sol\":1589:1785  Order({... */\n      dup1\n      dup2\n      gt\n      iszero\n      tag_133\n      jumpi\n      tag_134\n      tag_61\n      jump\t// in\n    tag_134:\n    tag_133:\n      dup2\n      mstore\n      0x20\n      add\n        /* \"L/limit order limit buy limit sell.sol\":1770:1774  true */\n      0x01\n        /* \"L/limit order limit buy limit sell.sol\":1589:1785  Order({... */\n      iszero\n      iszero\n      dup2\n      mstore\n      pop\n        /* \"L/limit order limit buy limit sell.sol\":1577:1786  orders.push(Order({... */\n      swap1\n      dup1\n      0x01\n      dup2\n      sload\n      add\n      dup1\n      dup3\n      sstore\n      dup1\n      swap2\n      pop\n      pop\n      0x01\n      swap1\n      sub\n      swap1\n      0x00\n      mstore\n      keccak256(0x00, 0x20)\n      swap1\n      0x04\n      mul\n      add\n      0x00\n      swap1\n      swap2\n      swap1\n      swap2\n      swap1\n      swap2\n      pop\n      0x00\n      dup3\n      add\n      mload\n      dup2\n      0x00\n      add\n      exp(0x0100, 0x00)\n      dup2\n      sload\n      dup2\n      0xffffffffffffffffffffffffffffffffffffffff\n      mul\n      not\n      and\n      swap1\n      dup4\n      0xffffffffffffffffffffffffffffffffffffffff\n      and\n      mul\n      or\n      swap1\n      sstore\n      pop\n      0x20\n      dup3\n      add\n      mload\n      dup2\n      0x01\n      add\n      sstore\n      0x40\n      dup3\n      add\n      mload\n      dup2\n      0x02\n      add\n      sstore\n      0x60\n      dup3\n      add\n      mload\n      dup2\n      0x03\n      add\n      exp(0x0100, 0x00)\n      dup2\n      sload\n      dup2\n      0xff\n      mul\n      not\n      and\n      swap1\n      dup4\n      0x01\n      dup2\n      gt\n      iszero\n      tag_136\n      jumpi\n      tag_137\n      tag_61\n      jump\t// in\n    tag_137:\n    tag_136:\n      mul\n      or\n      swap1\n      sstore\n      pop\n      0x80\n      dup3\n      add\n      mload\n      dup2\n      0x03\n      add\n      exp(0x0100, 0x01)\n      dup2\n      sload\n      dup2\n      0xff\n      mul\n      not\n      and\n      swap1\n      dup4\n      iszero\n      iszero\n      mul\n      or\n      swap1\n      sstore\n      pop\n      pop\n      pop\n        /* \"L/limit order limit buy limit sell.sol\":1832:1842  msg.sender */\n      caller\n        /* \"L/limit order limit buy limit sell.sol\":1801:1892  OrderPlaced(orders.length - 1, msg.sender, OrderType.Sell, tokenAmount, pricePerTokenInWei) */\n      0xffffffffffffffffffffffffffffffffffffffff\n      and\n        /* \"L/limit order limit buy limit sell.sol\":1829:1830  1 */\n      0x01\n        /* \"L/limit order limit buy limit sell.sol\":1813:1819  orders */\n      dup1\n        /* \"L/limit order limit buy limit sell.sol\":1813:1826  orders.length */\n      dup1\n      sload\n      swap1\n      pop\n        /* \"L/limit order limit buy limit sell.sol\":1813:1830  orders.length - 1 */\n      tag_138\n      swap2\n      swap1\n      tag_139\n      jump\t// in\n    tag_138:\n        /* \"L/limit order limit buy limit sell.sol\":1801:1892  OrderPlaced(orders.length - 1, msg.sender, OrderType.Sell, tokenAmount, pricePerTokenInWei) */\n      0x28ee76b520925c614b94784e5bd4b8d8ad21fd9930aea487e678e1e5a5f40513\n        /* \"L/limit order limit buy limit sell.sol\":1844:1858  OrderType.Sell */\n      0x01\n        /* \"L/limit order limit buy limit sell.sol\":1860:1871  tokenAmount */\n      dup6\n        /* \"L/limit order limit buy limit sell.sol\":1873:1891  pricePerTokenInWei */\n      dup6\n        /* \"L/limit order limit buy limit sell.sol\":1801:1892  OrderPlaced(orders.length - 1, msg.sender, OrderType.Sell, tokenAmount, pricePerTokenInWei) */\n      mload(0x40)\n      tag_140\n      swap4\n      swap3\n      swap2\n      swap1\n      tag_141\n      jump\t// in\n    tag_140:\n      mload(0x40)\n      dup1\n      swap2\n      sub\n      swap1\n      log3\n        /* \"L/limit order limit buy limit sell.sol\":1383:1899  function placeSellOrder(uint256 tokenAmount, uint256 pricePerTokenInWei) external {... */\n      pop\n      pop\n      jump\t// out\n        /* \"L/limit order limit buy limit sell.sol\":520:541  Order[] public orders */\n    tag_31:\n      0x01\n      dup2\n      dup2\n      sload\n      dup2\n      lt\n      tag_142\n      jumpi\n      0x00\n      dup1\n      revert\n    tag_142:\n      swap1\n      0x00\n      mstore\n      keccak256(0x00, 0x20)\n      swap1\n      0x04\n      mul\n      add\n      0x00\n      swap2\n      pop\n      swap1\n      pop\n      dup1\n      0x00\n      add\n      0x00\n      swap1\n      sload\n      swap1\n      0x0100\n      exp\n      swap1\n      div\n      0xffffffffffffffffffffffffffffffffffffffff\n      and\n      swap1\n      dup1\n      0x01\n      add\n      sload\n      swap1\n      dup1\n      0x02\n      add\n      sload\n      swap1\n      dup1\n      0x03\n      add\n      0x00\n      swap1\n      sload\n      swap1\n      0x0100\n      exp\n      swap1\n      div\n      0xff\n      and\n      swap1\n      dup1\n      0x03\n      add\n      0x01\n      swap1\n      sload\n      swap1\n      0x0100\n      exp\n      swap1\n      div\n      0xff\n      and\n      swap1\n      pop\n      dup6\n      jump\t// out\n        /* \"L/limit order limit buy limit sell.sol\":3416:3527  function getOrder(uint256 orderId) external view returns (Order memory) {... */\n    tag_37:\n        /* \"L/limit order limit buy limit sell.sol\":3474:3486  Order memory */\n      tag_144\n      tag_145\n      jump\t// in\n    tag_144:\n        /* \"L/limit order limit buy limit sell.sol\":3505:3511  orders */\n      0x01\n        /* \"L/limit order limit buy limit sell.sol\":3512:3519  orderId */\n      dup3\n        /* \"L/limit order limit buy limit sell.sol\":3505:3520  orders[orderId] */\n      dup2\n      sload\n      dup2\n      lt\n      tag_147\n      jumpi\n      tag_148\n      tag_51\n      jump\t// in\n    tag_148:\n    tag_147:\n      swap1\n      0x00\n      mstore\n      keccak256(0x00, 0x20)\n      swap1\n      0x04\n      mul\n      add\n        /* \"L/limit order limit buy limit sell.sol\":3498:3520  return orders[orderId] */\n      mload(0x40)\n      dup1\n      0xa0\n      add\n      0x40\n      mstore\n      swap1\n      dup2\n      0x00\n      dup3\n      add\n      0x00\n      swap1\n      sload\n      swap1\n      0x0100\n      exp\n      swap1\n      div\n      0xffffffffffffffffffffffffffffffffffffffff\n      and\n      0xffffffffffffffffffffffffffffffffffffffff\n      and\n      0xffffffffffffffffffffffffffffffffffffffff\n      and\n      dup2\n      mstore\n      0x20\n      add\n      0x01\n      dup3\n      add\n      sload\n      dup2\n      mstore\n      0x20\n      add\n      0x02\n      dup3\n      add\n      sload\n      dup2\n      mstore\n      0x20\n      add\n      0x03\n      dup3\n      add\n      0x00\n      swap1\n      sload\n      swap1\n      0x0100\n      exp\n      swap1\n      div\n      0xff\n      and\n      0x01\n      dup2\n      gt\n      iszero\n      tag_150\n      jumpi\n      tag_151\n      tag_61\n      jump\t// in\n    tag_151:\n    tag_150:\n      0x01\n      dup2\n      gt\n      iszero\n      tag_152\n      jumpi\n      tag_153\n      tag_61\n      jump\t// in\n    tag_153:\n    tag_152:\n      dup2\n      mstore\n      0x20\n      add\n      0x03\n      dup3\n      add\n      0x01\n      swap1\n      sload\n      swap1\n      0x0100\n      exp\n      swap1\n      div\n      0xff\n      and\n      iszero\n      iszero\n      iszero\n      iszero\n      dup2\n      mstore\n      pop\n      pop\n      swap1\n      pop\n        /* \"L/limit order limit buy limit sell.sol\":3416:3527  function getOrder(uint256 orderId) external view returns (Order memory) {... */\n      swap2\n      swap1\n      pop\n      jump\t// out\n        /* \"L/limit order limit buy limit sell.sol\":872:1377  function placeBuyOrder(uint256 tokenAmount, uint256 pricePerTokenInWei) external payable {... */\n    tag_42:\n        /* \"L/limit order limit buy limit sell.sol\":1006:1024  pricePerTokenInWei */\n      dup1\n        /* \"L/limit order limit buy limit sell.sol\":992:1003  tokenAmount */\n      dup3\n        /* \"L/limit order limit buy limit sell.sol\":992:1024  tokenAmount * pricePerTokenInWei */\n      tag_155\n      swap2\n      swap1\n      tag_66\n      jump\t// in\n    tag_155:\n        /* \"L/limit order limit buy limit sell.sol\":979:988  msg.value */\n      callvalue\n        /* \"L/limit order limit buy limit sell.sol\":979:1024  msg.value == tokenAmount * pricePerTokenInWei */\n      eq\n        /* \"L/limit order limit buy limit sell.sol\":971:1047  require(msg.value == tokenAmount * pricePerTokenInWei, \"Incorrect ETH sent\") */\n      tag_156\n      jumpi\n      mload(0x40)\n      0x08c379a000000000000000000000000000000000000000000000000000000000\n      dup2\n      mstore\n      0x04\n      add\n      tag_157\n      swap1\n      tag_94\n      jump\t// in\n    tag_157:\n      mload(0x40)\n      dup1\n      swap2\n      sub\n      swap1\n      revert\n    tag_156:\n        /* \"L/limit order limit buy limit sell.sol\":1057:1063  orders */\n      0x01\n        /* \"L/limit order limit buy limit sell.sol\":1069:1264  Order({... */\n      mload(0x40)\n      dup1\n      0xa0\n      add\n      0x40\n      mstore\n      dup1\n        /* \"L/limit order limit buy limit sell.sol\":1095:1105  msg.sender */\n      caller\n        /* \"L/limit order limit buy limit sell.sol\":1069:1264  Order({... */\n      0xffffffffffffffffffffffffffffffffffffffff\n      and\n      dup2\n      mstore\n      0x20\n      add\n        /* \"L/limit order limit buy limit sell.sol\":1132:1143  tokenAmount */\n      dup5\n        /* \"L/limit order limit buy limit sell.sol\":1069:1264  Order({... */\n      dup2\n      mstore\n      0x20\n      add\n        /* \"L/limit order limit buy limit sell.sol\":1169:1187  pricePerTokenInWei */\n      dup4\n        /* \"L/limit order limit buy limit sell.sol\":1069:1264  Order({... */\n      dup2\n      mstore\n      0x20\n      add\n        /* \"L/limit order limit buy limit sell.sol\":1212:1225  OrderType.Buy */\n      0x00\n        /* \"L/limit order limit buy limit sell.sol\":1069:1264  Order({... */\n      0x01\n      dup2\n      gt\n      iszero\n      tag_158\n      jumpi\n      tag_159\n      tag_61\n      jump\t// in\n    tag_159:\n    tag_158:\n      dup2\n      mstore\n      0x20\n      add\n        /* \"L/limit order limit buy limit sell.sol\":1249:1253  true */\n      0x01\n        /* \"L/limit order limit buy limit sell.sol\":1069:1264  Order({... */\n      iszero\n      iszero\n      dup2\n      mstore\n      pop\n        /* \"L/limit order limit buy limit sell.sol\":1057:1265  orders.push(Order({... */\n      swap1\n      dup1\n      0x01\n      dup2\n      sload\n      add\n      dup1\n      dup3\n      sstore\n      dup1\n      swap2\n      pop\n      pop\n      0x01\n      swap1\n      sub\n      swap1\n      0x00\n      mstore\n      keccak256(0x00, 0x20)\n      swap1\n      0x04\n      mul\n      add\n      0x00\n      swap1\n      swap2\n      swap1\n      swap2\n      swap1\n      swap2\n      pop\n      0x00\n      dup3\n      add\n      mload\n      dup2\n      0x00\n      add\n      exp(0x0100, 0x00)\n      dup2\n      sload\n      dup2\n      0xffffffffffffffffffffffffffffffffffffffff\n      mul\n      not\n      and\n      swap1\n      dup4\n      0xffffffffffffffffffffffffffffffffffffffff\n      and\n      mul\n      or\n      swap1\n      sstore\n      pop\n      0x20\n      dup3\n      add\n      mload\n      dup2\n      0x01\n      add\n      sstore\n      0x40\n      dup3\n      add\n      mload\n      dup2\n      0x02\n      add\n      sstore\n      0x60\n      dup3\n      add\n      mload\n      dup2\n      0x03\n      add\n      exp(0x0100, 0x00)\n      dup2\n      sload\n      dup2\n      0xff\n      mul\n      not\n      and\n      swap1\n      dup4\n      0x01\n      dup2\n      gt\n      iszero\n      tag_161\n      jumpi\n      tag_162\n      tag_61\n      jump\t// in\n    tag_162:\n    tag_161:\n      mul\n      or\n      swap1\n      sstore\n      pop\n      0x80\n      dup3\n      add\n      mload\n      dup2\n      0x03\n      add\n      exp(0x0100, 0x01)\n      dup2\n      sload\n      dup2\n      0xff\n      mul\n      not\n      and\n      swap1\n      dup4\n      iszero\n      iszero\n      mul\n      or\n      swap1\n      sstore\n      pop\n      pop\n      pop\n        /* \"L/limit order limit buy limit sell.sol\":1311:1321  msg.sender */\n      caller\n        /* \"L/limit order limit buy limit sell.sol\":1280:1370  OrderPlaced(orders.length - 1, msg.sender, OrderType.Buy, tokenAmount, pricePerTokenInWei) */\n      0xffffffffffffffffffffffffffffffffffffffff\n      and\n        /* \"L/limit order limit buy limit sell.sol\":1308:1309  1 */\n      0x01\n        /* \"L/limit order limit buy limit sell.sol\":1292:1298  orders */\n      dup1\n        /* \"L/limit order limit buy limit sell.sol\":1292:1305  orders.length */\n      dup1\n      sload\n      swap1\n      pop\n        /* \"L/limit order limit buy limit sell.sol\":1292:1309  orders.length - 1 */\n      tag_163\n      swap2\n      swap1\n      tag_139\n      jump\t// in\n    tag_163:\n        /* \"L/limit order limit buy limit sell.sol\":1280:1370  OrderPlaced(orders.length - 1, msg.sender, OrderType.Buy, tokenAmount, pricePerTokenInWei) */\n      0x28ee76b520925c614b94784e5bd4b8d8ad21fd9930aea487e678e1e5a5f40513\n        /* \"L/limit order limit buy limit sell.sol\":1323:1336  OrderType.Buy */\n      0x00\n        /* \"L/limit order limit buy limit sell.sol\":1338:1349  tokenAmount */\n      dup6\n        /* \"L/limit order limit buy limit sell.sol\":1351:1369  pricePerTokenInWei */\n      dup6\n        /* \"L/limit order limit buy limit sell.sol\":1280:1370  OrderPlaced(orders.length - 1, msg.sender, OrderType.Buy, tokenAmount, pricePerTokenInWei) */\n      mload(0x40)\n      tag_164\n      swap4\n      swap3\n      swap2\n      swap1\n      tag_141\n      jump\t// in\n    tag_164:\n      mload(0x40)\n      dup1\n      swap2\n      sub\n      swap1\n      log3\n        /* \"L/limit order limit buy limit sell.sol\":872:1377  function placeBuyOrder(uint256 tokenAmount, uint256 pricePerTokenInWei) external payable {... */\n      pop\n      pop\n      jump\t// out\n        /* \"L/limit order limit buy limit sell.sol\":495:514  IERC20 public token */\n    tag_45:\n      0x00\n      0x00\n      swap1\n      sload\n      swap1\n      0x0100\n      exp\n      swap1\n      div\n      0xffffffffffffffffffffffffffffffffffffffff\n      and\n      dup2\n      jump\t// out\n    tag_145:\n      mload(0x40)\n      dup1\n      0xa0\n      add\n      0x40\n      mstore\n      dup1\n      and(0xffffffffffffffffffffffffffffffffffffffff, 0x00)\n      dup2\n      mstore\n      0x20\n      add\n      0x00\n      dup2\n      mstore\n      0x20\n      add\n      0x00\n      dup2\n      mstore\n      0x20\n      add\n      0x00\n      0x01\n      dup2\n      gt\n      iszero\n      tag_165\n      jumpi\n      tag_166\n      tag_61\n      jump\t// in\n    tag_166:\n    tag_165:\n      dup2\n      mstore\n      0x20\n      add\n      iszero(iszero(0x00))\n      dup2\n      mstore\n      pop\n      swap1\n      jump\t// out\n        /* \"#utility.yul\":88:205   */\n    tag_168:\n        /* \"#utility.yul\":197:198   */\n      0x00\n        /* \"#utility.yul\":194:195   */\n      0x00\n        /* \"#utility.yul\":187:199   */\n      revert\n        /* \"#utility.yul\":334:411   */\n    tag_170:\n        /* \"#utility.yul\":371:378   */\n      0x00\n        /* \"#utility.yul\":400:405   */\n      dup2\n        /* \"#utility.yul\":389:405   */\n      swap1\n      pop\n        /* \"#utility.yul\":334:411   */\n      swap2\n      swap1\n      pop\n      jump\t// out\n        /* \"#utility.yul\":417:539   */\n    tag_171:\n        /* \"#utility.yul\":490:514   */\n      tag_217\n        /* \"#utility.yul\":508:513   */\n      dup2\n        /* \"#utility.yul\":490:514   */\n      tag_170\n      jump\t// in\n    tag_217:\n        /* \"#utility.yul\":483:488   */\n      dup2\n        /* \"#utility.yul\":480:515   */\n      eq\n        /* \"#utility.yul\":470:533   */\n      tag_218\n      jumpi\n        /* \"#utility.yul\":529:530   */\n      0x00\n        /* \"#utility.yul\":526:527   */\n      0x00\n        /* \"#utility.yul\":519:531   */\n      revert\n        /* \"#utility.yul\":470:533   */\n    tag_218:\n        /* \"#utility.yul\":417:539   */\n      pop\n      jump\t// out\n        /* \"#utility.yul\":545:684   */\n    tag_172:\n        /* \"#utility.yul\":591:596   */\n      0x00\n        /* \"#utility.yul\":629:635   */\n      dup2\n        /* \"#utility.yul\":616:636   */\n      calldataload\n        /* \"#utility.yul\":607:636   */\n      swap1\n      pop\n        /* \"#utility.yul\":645:678   */\n      tag_220\n        /* \"#utility.yul\":672:677   */\n      dup2\n        /* \"#utility.yul\":645:678   */\n      tag_171\n      jump\t// in\n    tag_220:\n        /* \"#utility.yul\":545:684   */\n      swap3\n      swap2\n      pop\n      pop\n      jump\t// out\n        /* \"#utility.yul\":690:1019   */\n    tag_14:\n        /* \"#utility.yul\":749:755   */\n      0x00\n        /* \"#utility.yul\":798:800   */\n      0x20\n        /* \"#utility.yul\":786:795   */\n      dup3\n        /* \"#utility.yul\":777:784   */\n      dup5\n        /* \"#utility.yul\":773:796   */\n      sub\n        /* \"#utility.yul\":769:801   */\n      slt\n        /* \"#utility.yul\":766:885   */\n      iszero\n      tag_222\n      jumpi\n        /* \"#utility.yul\":804:883   */\n      tag_223\n      tag_168\n      jump\t// in\n    tag_223:\n        /* \"#utility.yul\":766:885   */\n    tag_222:\n        /* \"#utility.yul\":924:925   */\n      0x00\n        /* \"#utility.yul\":949:1002   */\n      tag_224\n        /* \"#utility.yul\":994:1001   */\n      dup5\n        /* \"#utility.yul\":985:991   */\n      dup3\n        /* \"#utility.yul\":974:983   */\n      dup6\n        /* \"#utility.yul\":970:992   */\n      add\n        /* \"#utility.yul\":949:1002   */\n      tag_172\n      jump\t// in\n    tag_224:\n        /* \"#utility.yul\":939:1002   */\n      swap2\n      pop\n        /* \"#utility.yul\":895:1012   */\n      pop\n        /* \"#utility.yul\":690:1019   */\n      swap3\n      swap2\n      pop\n      pop\n      jump\t// out\n        /* \"#utility.yul\":1025:1499   */\n    tag_26:\n        /* \"#utility.yul\":1093:1099   */\n      0x00\n        /* \"#utility.yul\":1101:1107   */\n      0x00\n        /* \"#utility.yul\":1150:1152   */\n      0x40\n        /* \"#utility.yul\":1138:1147   */\n      dup4\n        /* \"#utility.yul\":1129:1136   */\n      dup6\n        /* \"#utility.yul\":1125:1148   */\n      sub\n        /* \"#utility.yul\":1121:1153   */\n      slt\n        /* \"#utility.yul\":1118:1237   */\n      iszero\n      tag_226\n      jumpi\n        /* \"#utility.yul\":1156:1235   */\n      tag_227\n      tag_168\n      jump\t// in\n    tag_227:\n        /* \"#utility.yul\":1118:1237   */\n    tag_226:\n        /* \"#utility.yul\":1276:1277   */\n      0x00\n        /* \"#utility.yul\":1301:1354   */\n      tag_228\n        /* \"#utility.yul\":1346:1353   */\n      dup6\n        /* \"#utility.yul\":1337:1343   */\n      dup3\n        /* \"#utility.yul\":1326:1335   */\n      dup7\n        /* \"#utility.yul\":1322:1344   */\n      add\n        /* \"#utility.yul\":1301:1354   */\n      tag_172\n      jump\t// in\n    tag_228:\n        /* \"#utility.yul\":1291:1354   */\n      swap3\n      pop\n        /* \"#utility.yul\":1247:1364   */\n      pop\n        /* \"#utility.yul\":1403:1405   */\n      0x20\n        /* \"#utility.yul\":1429:1482   */\n      tag_229\n        /* \"#utility.yul\":1474:1481   */\n      dup6\n        /* \"#utility.yul\":1465:1471   */\n      dup3\n        /* \"#utility.yul\":1454:1463   */\n      dup7\n        /* \"#utility.yul\":1450:1472   */\n      add\n        /* \"#utility.yul\":1429:1482   */\n      tag_172\n      jump\t// in\n    tag_229:\n        /* \"#utility.yul\":1419:1482   */\n      swap2\n      pop\n        /* \"#utility.yul\":1374:1492   */\n      pop\n        /* \"#utility.yul\":1025:1499   */\n      swap3\n      pop\n      swap3\n      swap1\n      pop\n      jump\t// out\n        /* \"#utility.yul\":1505:1631   */\n    tag_173:\n        /* \"#utility.yul\":1542:1549   */\n      0x00\n        /* \"#utility.yul\":1582:1624   */\n      0xffffffffffffffffffffffffffffffffffffffff\n        /* \"#utility.yul\":1575:1580   */\n      dup3\n        /* \"#utility.yul\":1571:1625   */\n      and\n        /* \"#utility.yul\":1560:1625   */\n      swap1\n      pop\n        /* \"#utility.yul\":1505:1631   */\n      swap2\n      swap1\n      pop\n      jump\t// out\n        /* \"#utility.yul\":1637:1733   */\n    tag_174:\n        /* \"#utility.yul\":1674:1681   */\n      0x00\n        /* \"#utility.yul\":1703:1727   */\n      tag_232\n        /* \"#utility.yul\":1721:1726   */\n      dup3\n        /* \"#utility.yul\":1703:1727   */\n      tag_173\n      jump\t// in\n    tag_232:\n        /* \"#utility.yul\":1692:1727   */\n      swap1\n      pop\n        /* \"#utility.yul\":1637:1733   */\n      swap2\n      swap1\n      pop\n      jump\t// out\n        /* \"#utility.yul\":1739:1857   */\n    tag_175:\n        /* \"#utility.yul\":1826:1850   */\n      tag_234\n        /* \"#utility.yul\":1844:1849   */\n      dup2\n        /* \"#utility.yul\":1826:1850   */\n      tag_174\n      jump\t// in\n    tag_234:\n        /* \"#utility.yul\":1821:1824   */\n      dup3\n        /* \"#utility.yul\":1814:1851   */\n      mstore\n        /* \"#utility.yul\":1739:1857   */\n      pop\n      pop\n      jump\t// out\n        /* \"#utility.yul\":1863:1981   */\n    tag_176:\n        /* \"#utility.yul\":1950:1974   */\n      tag_236\n        /* \"#utility.yul\":1968:1973   */\n      dup2\n        /* \"#utility.yul\":1950:1974   */\n      tag_170\n      jump\t// in\n    tag_236:\n        /* \"#utility.yul\":1945:1948   */\n      dup3\n        /* \"#utility.yul\":1938:1975   */\n      mstore\n        /* \"#utility.yul\":1863:1981   */\n      pop\n      pop\n      jump\t// out\n        /* \"#utility.yul\":1987:2167   */\n    tag_61:\n        /* \"#utility.yul\":2035:2112   */\n      0x4e487b7100000000000000000000000000000000000000000000000000000000\n        /* \"#utility.yul\":2032:2033   */\n      0x00\n        /* \"#utility.yul\":2025:2113   */\n      mstore\n        /* \"#utility.yul\":2132:2136   */\n      0x21\n        /* \"#utility.yul\":2129:2130   */\n      0x04\n        /* \"#utility.yul\":2122:2137   */\n      mstore\n        /* \"#utility.yul\":2156:2160   */\n      0x24\n        /* \"#utility.yul\":2153:2154   */\n      0x00\n        /* \"#utility.yul\":2146:2161   */\n      revert\n        /* \"#utility.yul\":2173:2290   */\n    tag_177:\n        /* \"#utility.yul\":2258:2259   */\n      0x02\n        /* \"#utility.yul\":2251:2256   */\n      dup2\n        /* \"#utility.yul\":2248:2260   */\n      lt\n        /* \"#utility.yul\":2238:2284   */\n      tag_239\n      jumpi\n        /* \"#utility.yul\":2264:2282   */\n      tag_240\n      tag_61\n      jump\t// in\n    tag_240:\n        /* \"#utility.yul\":2238:2284   */\n    tag_239:\n        /* \"#utility.yul\":2173:2290   */\n      pop\n      jump\t// out\n        /* \"#utility.yul\":2296:2431   */\n    tag_178:\n        /* \"#utility.yul\":2345:2352   */\n      0x00\n        /* \"#utility.yul\":2374:2379   */\n      dup2\n        /* \"#utility.yul\":2363:2379   */\n      swap1\n      pop\n        /* \"#utility.yul\":2380:2425   */\n      tag_242\n        /* \"#utility.yul\":2419:2424   */\n      dup3\n        /* \"#utility.yul\":2380:2425   */\n      tag_177\n      jump\t// in\n    tag_242:\n        /* \"#utility.yul\":2296:2431   */\n      swap2\n      swap1\n      pop\n      jump\t// out\n        /* \"#utility.yul\":2437:2572   */\n    tag_179:\n        /* \"#utility.yul\":2497:2506   */\n      0x00\n        /* \"#utility.yul\":2530:2566   */\n      tag_244\n        /* \"#utility.yul\":2560:2565   */\n      dup3\n        /* \"#utility.yul\":2530:2566   */\n      tag_178\n      jump\t// in\n    tag_244:\n        /* \"#utility.yul\":2517:2566   */\n      swap1\n      pop\n        /* \"#utility.yul\":2437:2572   */\n      swap2\n      swap1\n      pop\n      jump\t// out\n        /* \"#utility.yul\":2578:2729   */\n    tag_180:\n        /* \"#utility.yul\":2675:2722   */\n      tag_246\n        /* \"#utility.yul\":2716:2721   */\n      dup2\n        /* \"#utility.yul\":2675:2722   */\n      tag_179\n      jump\t// in\n    tag_246:\n        /* \"#utility.yul\":2670:2673   */\n      dup3\n        /* \"#utility.yul\":2663:2723   */\n      mstore\n        /* \"#utility.yul\":2578:2729   */\n      pop\n      pop\n      jump\t// out\n        /* \"#utility.yul\":2735:2825   */\n    tag_181:\n        /* \"#utility.yul\":2769:2776   */\n      0x00\n        /* \"#utility.yul\":2812:2817   */\n      dup2\n        /* \"#utility.yul\":2805:2818   */\n      iszero\n        /* \"#utility.yul\":2798:2819   */\n      iszero\n        /* \"#utility.yul\":2787:2819   */\n      swap1\n      pop\n        /* \"#utility.yul\":2735:2825   */\n      swap2\n      swap1\n      pop\n      jump\t// out\n        /* \"#utility.yul\":2831:2940   */\n    tag_182:\n        /* \"#utility.yul\":2912:2933   */\n      tag_249\n        /* \"#utility.yul\":2927:2932   */\n      dup2\n        /* \"#utility.yul\":2912:2933   */\n      tag_181\n      jump\t// in\n    tag_249:\n        /* \"#utility.yul\":2907:2910   */\n      dup3\n        /* \"#utility.yul\":2900:2934   */\n      mstore\n        /* \"#utility.yul\":2831:2940   */\n      pop\n      pop\n      jump\t// out\n        /* \"#utility.yul\":2946:3618   */\n    tag_33:\n        /* \"#utility.yul\":3155:3159   */\n      0x00\n        /* \"#utility.yul\":3193:3196   */\n      0xa0\n        /* \"#utility.yul\":3182:3191   */\n      dup3\n        /* \"#utility.yul\":3178:3197   */\n      add\n        /* \"#utility.yul\":3170:3197   */\n      swap1\n      pop\n        /* \"#utility.yul\":3207:3278   */\n      tag_251\n        /* \"#utility.yul\":3275:3276   */\n      0x00\n        /* \"#utility.yul\":3264:3273   */\n      dup4\n        /* \"#utility.yul\":3260:3277   */\n      add\n        /* \"#utility.yul\":3251:3257   */\n      dup9\n        /* \"#utility.yul\":3207:3278   */\n      tag_175\n      jump\t// in\n    tag_251:\n        /* \"#utility.yul\":3288:3360   */\n      tag_252\n        /* \"#utility.yul\":3356:3358   */\n      0x20\n        /* \"#utility.yul\":3345:3354   */\n      dup4\n        /* \"#utility.yul\":3341:3359   */\n      add\n        /* \"#utility.yul\":3332:3338   */\n      dup8\n        /* \"#utility.yul\":3288:3360   */\n      tag_176\n      jump\t// in\n    tag_252:\n        /* \"#utility.yul\":3370:3442   */\n      tag_253\n        /* \"#utility.yul\":3438:3440   */\n      0x40\n        /* \"#utility.yul\":3427:3436   */\n      dup4\n        /* \"#utility.yul\":3423:3441   */\n      add\n        /* \"#utility.yul\":3414:3420   */\n      dup7\n        /* \"#utility.yul\":3370:3442   */\n      tag_176\n      jump\t// in\n    tag_253:\n        /* \"#utility.yul\":3452:3534   */\n      tag_254\n        /* \"#utility.yul\":3530:3532   */\n      0x60\n        /* \"#utility.yul\":3519:3528   */\n      dup4\n        /* \"#utility.yul\":3515:3533   */\n      add\n        /* \"#utility.yul\":3506:3512   */\n      dup6\n        /* \"#utility.yul\":3452:3534   */\n      tag_180\n      jump\t// in\n    tag_254:\n        /* \"#utility.yul\":3544:3611   */\n      tag_255\n        /* \"#utility.yul\":3606:3609   */\n      0x80\n        /* \"#utility.yul\":3595:3604   */\n      dup4\n        /* \"#utility.yul\":3591:3610   */\n      add\n        /* \"#utility.yul\":3582:3588   */\n      dup5\n        /* \"#utility.yul\":3544:3611   */\n      tag_182\n      jump\t// in\n    tag_255:\n        /* \"#utility.yul\":2946:3618   */\n      swap7\n      swap6\n      pop\n      pop\n      pop\n      pop\n      pop\n      pop\n      jump\t// out\n        /* \"#utility.yul\":3624:3732   */\n    tag_183:\n        /* \"#utility.yul\":3701:3725   */\n      tag_257\n        /* \"#utility.yul\":3719:3724   */\n      dup2\n        /* \"#utility.yul\":3701:3725   */\n      tag_174\n      jump\t// in\n    tag_257:\n        /* \"#utility.yul\":3696:3699   */\n      dup3\n        /* \"#utility.yul\":3689:3726   */\n      mstore\n        /* \"#utility.yul\":3624:3732   */\n      pop\n      pop\n      jump\t// out\n        /* \"#utility.yul\":3738:3846   */\n    tag_184:\n        /* \"#utility.yul\":3815:3839   */\n      tag_259\n        /* \"#utility.yul\":3833:3838   */\n      dup2\n        /* \"#utility.yul\":3815:3839   */\n      tag_170\n      jump\t// in\n    tag_259:\n        /* \"#utility.yul\":3810:3813   */\n      dup3\n        /* \"#utility.yul\":3803:3840   */\n      mstore\n        /* \"#utility.yul\":3738:3846   */\n      pop\n      pop\n      jump\t// out\n        /* \"#utility.yul\":3852:3993   */\n    tag_185:\n        /* \"#utility.yul\":3939:3986   */\n      tag_261\n        /* \"#utility.yul\":3980:3985   */\n      dup2\n        /* \"#utility.yul\":3939:3986   */\n      tag_179\n      jump\t// in\n    tag_261:\n        /* \"#utility.yul\":3934:3937   */\n      dup3\n        /* \"#utility.yul\":3927:3987   */\n      mstore\n        /* \"#utility.yul\":3852:3993   */\n      pop\n      pop\n      jump\t// out\n        /* \"#utility.yul\":3999:4098   */\n    tag_186:\n        /* \"#utility.yul\":4070:4091   */\n      tag_263\n        /* \"#utility.yul\":4085:4090   */\n      dup2\n        /* \"#utility.yul\":4070:4091   */\n      tag_181\n      jump\t// in\n    tag_263:\n        /* \"#utility.yul\":4065:4068   */\n      dup3\n        /* \"#utility.yul\":4058:4092   */\n      mstore\n        /* \"#utility.yul\":3999:4098   */\n      pop\n      pop\n      jump\t// out\n        /* \"#utility.yul\":4170:5217   */\n    tag_187:\n        /* \"#utility.yul\":4309:4313   */\n      0xa0\n        /* \"#utility.yul\":4304:4307   */\n      dup3\n        /* \"#utility.yul\":4300:4314   */\n      add\n        /* \"#utility.yul\":4396:4400   */\n      0x00\n        /* \"#utility.yul\":4389:4394   */\n      dup3\n        /* \"#utility.yul\":4385:4401   */\n      add\n        /* \"#utility.yul\":4379:4402   */\n      mload\n        /* \"#utility.yul\":4415:4478   */\n      tag_265\n        /* \"#utility.yul\":4472:4476   */\n      0x00\n        /* \"#utility.yul\":4467:4470   */\n      dup6\n        /* \"#utility.yul\":4463:4477   */\n      add\n        /* \"#utility.yul\":4449:4461   */\n      dup3\n        /* \"#utility.yul\":4415:4478   */\n      tag_183\n      jump\t// in\n    tag_265:\n        /* \"#utility.yul\":4324:4488   */\n      pop\n        /* \"#utility.yul\":4577:4581   */\n      0x20\n        /* \"#utility.yul\":4570:4575   */\n      dup3\n        /* \"#utility.yul\":4566:4582   */\n      add\n        /* \"#utility.yul\":4560:4583   */\n      mload\n        /* \"#utility.yul\":4596:4659   */\n      tag_266\n        /* \"#utility.yul\":4653:4657   */\n      0x20\n        /* \"#utility.yul\":4648:4651   */\n      dup6\n        /* \"#utility.yul\":4644:4658   */\n      add\n        /* \"#utility.yul\":4630:4642   */\n      dup3\n        /* \"#utility.yul\":4596:4659   */\n      tag_184\n      jump\t// in\n    tag_266:\n        /* \"#utility.yul\":4498:4669   */\n      pop\n        /* \"#utility.yul\":4757:4761   */\n      0x40\n        /* \"#utility.yul\":4750:4755   */\n      dup3\n        /* \"#utility.yul\":4746:4762   */\n      add\n        /* \"#utility.yul\":4740:4763   */\n      mload\n        /* \"#utility.yul\":4776:4839   */\n      tag_267\n        /* \"#utility.yul\":4833:4837   */\n      0x40\n        /* \"#utility.yul\":4828:4831   */\n      dup6\n        /* \"#utility.yul\":4824:4838   */\n      add\n        /* \"#utility.yul\":4810:4822   */\n      dup3\n        /* \"#utility.yul\":4776:4839   */\n      tag_184\n      jump\t// in\n    tag_267:\n        /* \"#utility.yul\":4679:4849   */\n      pop\n        /* \"#utility.yul\":4936:4940   */\n      0x60\n        /* \"#utility.yul\":4929:4934   */\n      dup3\n        /* \"#utility.yul\":4925:4941   */\n      add\n        /* \"#utility.yul\":4919:4942   */\n      mload\n        /* \"#utility.yul\":4955:5028   */\n      tag_268\n        /* \"#utility.yul\":5022:5026   */\n      0x60\n        /* \"#utility.yul\":5017:5020   */\n      dup6\n        /* \"#utility.yul\":5013:5027   */\n      add\n        /* \"#utility.yul\":4999:5011   */\n      dup3\n        /* \"#utility.yul\":4955:5028   */\n      tag_185\n      jump\t// in\n    tag_268:\n        /* \"#utility.yul\":4859:5038   */\n      pop\n        /* \"#utility.yul\":5124:5128   */\n      0x80\n        /* \"#utility.yul\":5117:5122   */\n      dup3\n        /* \"#utility.yul\":5113:5129   */\n      add\n        /* \"#utility.yul\":5107:5130   */\n      mload\n        /* \"#utility.yul\":5143:5200   */\n      tag_269\n        /* \"#utility.yul\":5194:5198   */\n      0x80\n        /* \"#utility.yul\":5189:5192   */\n      dup6\n        /* \"#utility.yul\":5185:5199   */\n      add\n        /* \"#utility.yul\":5171:5183   */\n      dup3\n        /* \"#utility.yul\":5143:5200   */\n      tag_186\n      jump\t// in\n    tag_269:\n        /* \"#utility.yul\":5048:5210   */\n      pop\n        /* \"#utility.yul\":4278:5217   */\n      pop\n        /* \"#utility.yul\":4170:5217   */\n      pop\n      pop\n      jump\t// out\n        /* \"#utility.yul\":5223:5530   */\n    tag_39:\n        /* \"#utility.yul\":5358:5362   */\n      0x00\n        /* \"#utility.yul\":5396:5399   */\n      0xa0\n        /* \"#utility.yul\":5385:5394   */\n      dup3\n        /* \"#utility.yul\":5381:5400   */\n      add\n        /* \"#utility.yul\":5373:5400   */\n      swap1\n      pop\n        /* \"#utility.yul\":5410:5523   */\n      tag_271\n        /* \"#utility.yul\":5520:5521   */\n      0x00\n        /* \"#utility.yul\":5509:5518   */\n      dup4\n        /* \"#utility.yul\":5505:5522   */\n      add\n        /* \"#utility.yul\":5496:5502   */\n      dup5\n        /* \"#utility.yul\":5410:5523   */\n      tag_187\n      jump\t// in\n    tag_271:\n        /* \"#utility.yul\":5223:5530   */\n      swap3\n      swap2\n      pop\n      pop\n      jump\t// out\n        /* \"#utility.yul\":5536:5596   */\n    tag_188:\n        /* \"#utility.yul\":5564:5567   */\n      0x00\n        /* \"#utility.yul\":5585:5590   */\n      dup2\n        /* \"#utility.yul\":5578:5590   */\n      swap1\n      pop\n        /* \"#utility.yul\":5536:5596   */\n      swap2\n      swap1\n      pop\n      jump\t// out\n        /* \"#utility.yul\":5602:5744   */\n    tag_189:\n        /* \"#utility.yul\":5652:5661   */\n      0x00\n        /* \"#utility.yul\":5685:5738   */\n      tag_274\n        /* \"#utility.yul\":5703:5737   */\n      tag_275\n        /* \"#utility.yul\":5712:5736   */\n      tag_276\n        /* \"#utility.yul\":5730:5735   */\n      dup5\n        /* \"#utility.yul\":5712:5736   */\n      tag_173\n      jump\t// in\n    tag_276:\n        /* \"#utility.yul\":5703:5737   */\n      tag_188\n      jump\t// in\n    tag_275:\n        /* \"#utility.yul\":5685:5738   */\n      tag_173\n      jump\t// in\n    tag_274:\n        /* \"#utility.yul\":5672:5738   */\n      swap1\n      pop\n        /* \"#utility.yul\":5602:5744   */\n      swap2\n      swap1\n      pop\n      jump\t// out\n        /* \"#utility.yul\":5750:5876   */\n    tag_190:\n        /* \"#utility.yul\":5800:5809   */\n      0x00\n        /* \"#utility.yul\":5833:5870   */\n      tag_278\n        /* \"#utility.yul\":5864:5869   */\n      dup3\n        /* \"#utility.yul\":5833:5870   */\n      tag_189\n      jump\t// in\n    tag_278:\n        /* \"#utility.yul\":5820:5870   */\n      swap1\n      pop\n        /* \"#utility.yul\":5750:5876   */\n      swap2\n      swap1\n      pop\n      jump\t// out\n        /* \"#utility.yul\":5882:6021   */\n    tag_191:\n        /* \"#utility.yul\":5945:5954   */\n      0x00\n        /* \"#utility.yul\":5978:6015   */\n      tag_280\n        /* \"#utility.yul\":6009:6014   */\n      dup3\n        /* \"#utility.yul\":5978:6015   */\n      tag_190\n      jump\t// in\n    tag_280:\n        /* \"#utility.yul\":5965:6015   */\n      swap1\n      pop\n        /* \"#utility.yul\":5882:6021   */\n      swap2\n      swap1\n      pop\n      jump\t// out\n        /* \"#utility.yul\":6027:6184   */\n    tag_192:\n        /* \"#utility.yul\":6127:6177   */\n      tag_282\n        /* \"#utility.yul\":6171:6176   */\n      dup2\n        /* \"#utility.yul\":6127:6177   */\n      tag_191\n      jump\t// in\n    tag_282:\n        /* \"#utility.yul\":6122:6125   */\n      dup3\n        /* \"#utility.yul\":6115:6178   */\n      mstore\n        /* \"#utility.yul\":6027:6184   */\n      pop\n      pop\n      jump\t// out\n        /* \"#utility.yul\":6190:6438   */\n    tag_47:\n        /* \"#utility.yul\":6296:6300   */\n      0x00\n        /* \"#utility.yul\":6334:6336   */\n      0x20\n        /* \"#utility.yul\":6323:6332   */\n      dup3\n        /* \"#utility.yul\":6319:6337   */\n      add\n        /* \"#utility.yul\":6311:6337   */\n      swap1\n      pop\n        /* \"#utility.yul\":6347:6431   */\n      tag_284\n        /* \"#utility.yul\":6428:6429   */\n      0x00\n        /* \"#utility.yul\":6417:6426   */\n      dup4\n        /* \"#utility.yul\":6413:6430   */\n      add\n        /* \"#utility.yul\":6404:6410   */\n      dup5\n        /* \"#utility.yul\":6347:6431   */\n      tag_192\n      jump\t// in\n    tag_284:\n        /* \"#utility.yul\":6190:6438   */\n      swap3\n      swap2\n      pop\n      pop\n      jump\t// out\n        /* \"#utility.yul\":6444:6624   */\n    tag_51:\n        /* \"#utility.yul\":6492:6569   */\n      0x4e487b7100000000000000000000000000000000000000000000000000000000\n        /* \"#utility.yul\":6489:6490   */\n      0x00\n        /* \"#utility.yul\":6482:6570   */\n      mstore\n        /* \"#utility.yul\":6589:6593   */\n      0x32\n        /* \"#utility.yul\":6586:6587   */\n      0x04\n        /* \"#utility.yul\":6579:6594   */\n      mstore\n        /* \"#utility.yul\":6613:6617   */\n      0x24\n        /* \"#utility.yul\":6610:6611   */\n      0x00\n        /* \"#utility.yul\":6603:6618   */\n      revert\n        /* \"#utility.yul\":6630:6799   */\n    tag_193:\n        /* \"#utility.yul\":6714:6725   */\n      0x00\n        /* \"#utility.yul\":6748:6754   */\n      dup3\n        /* \"#utility.yul\":6743:6746   */\n      dup3\n        /* \"#utility.yul\":6736:6755   */\n      mstore\n        /* \"#utility.yul\":6788:6792   */\n      0x20\n        /* \"#utility.yul\":6783:6786   */\n      dup3\n        /* \"#utility.yul\":6779:6793   */\n      add\n        /* \"#utility.yul\":6764:6793   */\n      swap1\n      pop\n        /* \"#utility.yul\":6630:6799   */\n      swap3\n      swap2\n      pop\n      pop\n      jump\t// out\n        /* \"#utility.yul\":6805:6971   */\n    tag_194:\n        /* \"#utility.yul\":6945:6963   */\n      0x4f72646572206e6f742061637469766500000000000000000000000000000000\n        /* \"#utility.yul\":6941:6942   */\n      0x00\n        /* \"#utility.yul\":6933:6939   */\n      dup3\n        /* \"#utility.yul\":6929:6943   */\n      add\n        /* \"#utility.yul\":6922:6964   */\n      mstore\n        /* \"#utility.yul\":6805:6971   */\n      pop\n      jump\t// out\n        /* \"#utility.yul\":6977:7343   */\n    tag_195:\n        /* \"#utility.yul\":7119:7122   */\n      0x00\n        /* \"#utility.yul\":7140:7207   */\n      tag_289\n        /* \"#utility.yul\":7204:7206   */\n      0x10\n        /* \"#utility.yul\":7199:7202   */\n      dup4\n        /* \"#utility.yul\":7140:7207   */\n      tag_193\n      jump\t// in\n    tag_289:\n        /* \"#utility.yul\":7133:7207   */\n      swap2\n      pop\n        /* \"#utility.yul\":7216:7309   */\n      tag_290\n        /* \"#utility.yul\":7305:7308   */\n      dup3\n        /* \"#utility.yul\":7216:7309   */\n      tag_194\n      jump\t// in\n    tag_290:\n        /* \"#utility.yul\":7334:7336   */\n      0x20\n        /* \"#utility.yul\":7329:7332   */\n      dup3\n        /* \"#utility.yul\":7325:7337   */\n      add\n        /* \"#utility.yul\":7318:7337   */\n      swap1\n      pop\n        /* \"#utility.yul\":6977:7343   */\n      swap2\n      swap1\n      pop\n      jump\t// out\n        /* \"#utility.yul\":7349:7768   */\n    tag_55:\n        /* \"#utility.yul\":7515:7519   */\n      0x00\n        /* \"#utility.yul\":7553:7555   */\n      0x20\n        /* \"#utility.yul\":7542:7551   */\n      dup3\n        /* \"#utility.yul\":7538:7556   */\n      add\n        /* \"#utility.yul\":7530:7556   */\n      swap1\n      pop\n        /* \"#utility.yul\":7602:7611   */\n      dup2\n        /* \"#utility.yul\":7596:7600   */\n      dup2\n        /* \"#utility.yul\":7592:7612   */\n      sub\n        /* \"#utility.yul\":7588:7589   */\n      0x00\n        /* \"#utility.yul\":7577:7586   */\n      dup4\n        /* \"#utility.yul\":7573:7590   */\n      add\n        /* \"#utility.yul\":7566:7613   */\n      mstore\n        /* \"#utility.yul\":7630:7761   */\n      tag_292\n        /* \"#utility.yul\":7756:7760   */\n      dup2\n        /* \"#utility.yul\":7630:7761   */\n      tag_195\n      jump\t// in\n    tag_292:\n        /* \"#utility.yul\":7622:7761   */\n      swap1\n      pop\n        /* \"#utility.yul\":7349:7768   */\n      swap2\n      swap1\n      pop\n      jump\t// out\n        /* \"#utility.yul\":7774:7938   */\n    tag_196:\n        /* \"#utility.yul\":7914:7930   */\n      0x4e6f7420796f7572206f72646572000000000000000000000000000000000000\n        /* \"#utility.yul\":7910:7911   */\n      0x00\n        /* \"#utility.yul\":7902:7908   */\n      dup3\n        /* \"#utility.yul\":7898:7912   */\n      add\n        /* \"#utility.yul\":7891:7931   */\n      mstore\n        /* \"#utility.yul\":7774:7938   */\n      pop\n      jump\t// out\n        /* \"#utility.yul\":7944:8310   */\n    tag_197:\n        /* \"#utility.yul\":8086:8089   */\n      0x00\n        /* \"#utility.yul\":8107:8174   */\n      tag_295\n        /* \"#utility.yul\":8171:8173   */\n      0x0e\n        /* \"#utility.yul\":8166:8169   */\n      dup4\n        /* \"#utility.yul\":8107:8174   */\n      tag_193\n      jump\t// in\n    tag_295:\n        /* \"#utility.yul\":8100:8174   */\n      swap2\n      pop\n        /* \"#utility.yul\":8183:8276   */\n      tag_296\n        /* \"#utility.yul\":8272:8275   */\n      dup3\n        /* \"#utility.yul\":8183:8276   */\n      tag_196\n      jump\t// in\n    tag_296:\n        /* \"#utility.yul\":8301:8303   */\n      0x20\n        /* \"#utility.yul\":8296:8299   */\n      dup3\n        /* \"#utility.yul\":8292:8304   */\n      add\n        /* \"#utility.yul\":8285:8304   */\n      swap1\n      pop\n        /* \"#utility.yul\":7944:8310   */\n      swap2\n      swap1\n      pop\n      jump\t// out\n        /* \"#utility.yul\":8316:8735   */\n    tag_58:\n        /* \"#utility.yul\":8482:8486   */\n      0x00\n        /* \"#utility.yul\":8520:8522   */\n      0x20\n        /* \"#utility.yul\":8509:8518   */\n      dup3\n        /* \"#utility.yul\":8505:8523   */\n      add\n        /* \"#utility.yul\":8497:8523   */\n      swap1\n      pop\n        /* \"#utility.yul\":8569:8578   */\n      dup2\n        /* \"#utility.yul\":8563:8567   */\n      dup2\n        /* \"#utility.yul\":8559:8579   */\n      sub\n        /* \"#utility.yul\":8555:8556   */\n      0x00\n        /* \"#utility.yul\":8544:8553   */\n      dup4\n        /* \"#utility.yul\":8540:8557   */\n      add\n        /* \"#utility.yul\":8533:8580   */\n      mstore\n        /* \"#utility.yul\":8597:8728   */\n      tag_298\n        /* \"#utility.yul\":8723:8727   */\n      dup2\n        /* \"#utility.yul\":8597:8728   */\n      tag_197\n      jump\t// in\n    tag_298:\n        /* \"#utility.yul\":8589:8728   */\n      swap1\n      pop\n        /* \"#utility.yul\":8316:8735   */\n      swap2\n      swap1\n      pop\n      jump\t// out\n        /* \"#utility.yul\":8741:8921   */\n    tag_198:\n        /* \"#utility.yul\":8789:8866   */\n      0x4e487b7100000000000000000000000000000000000000000000000000000000\n        /* \"#utility.yul\":8786:8787   */\n      0x00\n        /* \"#utility.yul\":8779:8867   */\n      mstore\n        /* \"#utility.yul\":8886:8890   */\n      0x11\n        /* \"#utility.yul\":8883:8884   */\n      0x04\n        /* \"#utility.yul\":8876:8891   */\n      mstore\n        /* \"#utility.yul\":8910:8914   */\n      0x24\n        /* \"#utility.yul\":8907:8908   */\n      0x00\n        /* \"#utility.yul\":8900:8915   */\n      revert\n        /* \"#utility.yul\":8927:9337   */\n    tag_66:\n        /* \"#utility.yul\":8967:8974   */\n      0x00\n        /* \"#utility.yul\":8990:9010   */\n      tag_301\n        /* \"#utility.yul\":9008:9009   */\n      dup3\n        /* \"#utility.yul\":8990:9010   */\n      tag_170\n      jump\t// in\n    tag_301:\n        /* \"#utility.yul\":8985:9010   */\n      swap2\n      pop\n        /* \"#utility.yul\":9024:9044   */\n      tag_302\n        /* \"#utility.yul\":9042:9043   */\n      dup4\n        /* \"#utility.yul\":9024:9044   */\n      tag_170\n      jump\t// in\n    tag_302:\n        /* \"#utility.yul\":9019:9044   */\n      swap3\n      pop\n        /* \"#utility.yul\":9079:9080   */\n      dup3\n        /* \"#utility.yul\":9076:9077   */\n      dup3\n        /* \"#utility.yul\":9072:9081   */\n      mul\n        /* \"#utility.yul\":9101:9131   */\n      tag_303\n        /* \"#utility.yul\":9119:9130   */\n      dup2\n        /* \"#utility.yul\":9101:9131   */\n      tag_170\n      jump\t// in\n    tag_303:\n        /* \"#utility.yul\":9090:9131   */\n      swap2\n      pop\n        /* \"#utility.yul\":9280:9281   */\n      dup3\n        /* \"#utility.yul\":9271:9278   */\n      dup3\n        /* \"#utility.yul\":9267:9282   */\n      div\n        /* \"#utility.yul\":9264:9265   */\n      dup5\n        /* \"#utility.yul\":9261:9283   */\n      eq\n        /* \"#utility.yul\":9241:9242   */\n      dup4\n        /* \"#utility.yul\":9234:9243   */\n      iszero\n        /* \"#utility.yul\":9214:9297   */\n      or\n        /* \"#utility.yul\":9191:9330   */\n      tag_304\n      jumpi\n        /* \"#utility.yul\":9310:9328   */\n      tag_305\n      tag_198\n      jump\t// in\n    tag_305:\n        /* \"#utility.yul\":9191:9330   */\n    tag_304:\n        /* \"#utility.yul\":8975:9337   */\n      pop\n        /* \"#utility.yul\":8927:9337   */\n      swap3\n      swap2\n      pop\n      pop\n      jump\t// out\n        /* \"#utility.yul\":9343:9675   */\n    tag_71:\n        /* \"#utility.yul\":9464:9468   */\n      0x00\n        /* \"#utility.yul\":9502:9504   */\n      0x40\n        /* \"#utility.yul\":9491:9500   */\n      dup3\n        /* \"#utility.yul\":9487:9505   */\n      add\n        /* \"#utility.yul\":9479:9505   */\n      swap1\n      pop\n        /* \"#utility.yul\":9515:9586   */\n      tag_307\n        /* \"#utility.yul\":9583:9584   */\n      0x00\n        /* \"#utility.yul\":9572:9581   */\n      dup4\n        /* \"#utility.yul\":9568:9585   */\n      add\n        /* \"#utility.yul\":9559:9565   */\n      dup6\n        /* \"#utility.yul\":9515:9586   */\n      tag_175\n      jump\t// in\n    tag_307:\n        /* \"#utility.yul\":9596:9668   */\n      tag_308\n        /* \"#utility.yul\":9664:9666   */\n      0x20\n        /* \"#utility.yul\":9653:9662   */\n      dup4\n        /* \"#utility.yul\":9649:9667   */\n      add\n        /* \"#utility.yul\":9640:9646   */\n      dup5\n        /* \"#utility.yul\":9596:9668   */\n      tag_176\n      jump\t// in\n    tag_308:\n        /* \"#utility.yul\":9343:9675   */\n      swap4\n      swap3\n      pop\n      pop\n      pop\n      jump\t// out\n        /* \"#utility.yul\":9681:9797   */\n    tag_199:\n        /* \"#utility.yul\":9751:9772   */\n      tag_310\n        /* \"#utility.yul\":9766:9771   */\n      dup2\n        /* \"#utility.yul\":9751:9772   */\n      tag_181\n      jump\t// in\n    tag_310:\n        /* \"#utility.yul\":9744:9749   */\n      dup2\n        /* \"#utility.yul\":9741:9773   */\n      eq\n        /* \"#utility.yul\":9731:9791   */\n      tag_311\n      jumpi\n        /* \"#utility.yul\":9787:9788   */\n      0x00\n        /* \"#utility.yul\":9784:9785   */\n      0x00\n        /* \"#utility.yul\":9777:9789   */\n      revert\n        /* \"#utility.yul\":9731:9791   */\n    tag_311:\n        /* \"#utility.yul\":9681:9797   */\n      pop\n      jump\t// out\n        /* \"#utility.yul\":9803:9940   */\n    tag_200:\n        /* \"#utility.yul\":9857:9862   */\n      0x00\n        /* \"#utility.yul\":9888:9894   */\n      dup2\n        /* \"#utility.yul\":9882:9895   */\n      mload\n        /* \"#utility.yul\":9873:9895   */\n      swap1\n      pop\n        /* \"#utility.yul\":9904:9934   */\n      tag_313\n        /* \"#utility.yul\":9928:9933   */\n      dup2\n        /* \"#utility.yul\":9904:9934   */\n      tag_199\n      jump\t// in\n    tag_313:\n        /* \"#utility.yul\":9803:9940   */\n      swap3\n      swap2\n      pop\n      pop\n      jump\t// out\n        /* \"#utility.yul\":9946:10291   */\n    tag_75:\n        /* \"#utility.yul\":10013:10019   */\n      0x00\n        /* \"#utility.yul\":10062:10064   */\n      0x20\n        /* \"#utility.yul\":10050:10059   */\n      dup3\n        /* \"#utility.yul\":10041:10048   */\n      dup5\n        /* \"#utility.yul\":10037:10060   */\n      sub\n        /* \"#utility.yul\":10033:10065   */\n      slt\n        /* \"#utility.yul\":10030:10149   */\n      iszero\n      tag_315\n      jumpi\n        /* \"#utility.yul\":10068:10147   */\n      tag_316\n      tag_168\n      jump\t// in\n    tag_316:\n        /* \"#utility.yul\":10030:10149   */\n    tag_315:\n        /* \"#utility.yul\":10188:10189   */\n      0x00\n        /* \"#utility.yul\":10213:10274   */\n      tag_317\n        /* \"#utility.yul\":10266:10273   */\n      dup5\n        /* \"#utility.yul\":10257:10263   */\n      dup3\n        /* \"#utility.yul\":10246:10255   */\n      dup6\n        /* \"#utility.yul\":10242:10264   */\n      add\n        /* \"#utility.yul\":10213:10274   */\n      tag_200\n      jump\t// in\n    tag_317:\n        /* \"#utility.yul\":10203:10274   */\n      swap2\n      pop\n        /* \"#utility.yul\":10159:10284   */\n      pop\n        /* \"#utility.yul\":9946:10291   */\n      swap3\n      swap2\n      pop\n      pop\n      jump\t// out\n        /* \"#utility.yul\":10297:10466   */\n    tag_201:\n        /* \"#utility.yul\":10437:10458   */\n      0x546f6b656e20726566756e64206661696c656400000000000000000000000000\n        /* \"#utility.yul\":10433:10434   */\n      0x00\n        /* \"#utility.yul\":10425:10431   */\n      dup3\n        /* \"#utility.yul\":10421:10435   */\n      add\n        /* \"#utility.yul\":10414:10459   */\n      mstore\n        /* \"#utility.yul\":10297:10466   */\n      pop\n      jump\t// out\n        /* \"#utility.yul\":10472:10838   */\n    tag_202:\n        /* \"#utility.yul\":10614:10617   */\n      0x00\n        /* \"#utility.yul\":10635:10702   */\n      tag_320\n        /* \"#utility.yul\":10699:10701   */\n      0x13\n        /* \"#utility.yul\":10694:10697   */\n      dup4\n        /* \"#utility.yul\":10635:10702   */\n      tag_193\n      jump\t// in\n    tag_320:\n        /* \"#utility.yul\":10628:10702   */\n      swap2\n      pop\n        /* \"#utility.yul\":10711:10804   */\n      tag_321\n        /* \"#utility.yul\":10800:10803   */\n      dup3\n        /* \"#utility.yul\":10711:10804   */\n      tag_201\n      jump\t// in\n    tag_321:\n        /* \"#utility.yul\":10829:10831   */\n      0x20\n        /* \"#utility.yul\":10824:10827   */\n      dup3\n        /* \"#utility.yul\":10820:10832   */\n      add\n        /* \"#utility.yul\":10813:10832   */\n      swap1\n      pop\n        /* \"#utility.yul\":10472:10838   */\n      swap2\n      swap1\n      pop\n      jump\t// out\n        /* \"#utility.yul\":10844:11263   */\n    tag_78:\n        /* \"#utility.yul\":11010:11014   */\n      0x00\n        /* \"#utility.yul\":11048:11050   */\n      0x20\n        /* \"#utility.yul\":11037:11046   */\n      dup3\n        /* \"#utility.yul\":11033:11051   */\n      add\n        /* \"#utility.yul\":11025:11051   */\n      swap1\n      pop\n        /* \"#utility.yul\":11097:11106   */\n      dup2\n        /* \"#utility.yul\":11091:11095   */\n      dup2\n        /* \"#utility.yul\":11087:11107   */\n      sub\n        /* \"#utility.yul\":11083:11084   */\n      0x00\n        /* \"#utility.yul\":11072:11081   */\n      dup4\n        /* \"#utility.yul\":11068:11085   */\n      add\n        /* \"#utility.yul\":11061:11108   */\n      mstore\n        /* \"#utility.yul\":11125:11256   */\n      tag_323\n        /* \"#utility.yul\":11251:11255   */\n      dup2\n        /* \"#utility.yul\":11125:11256   */\n      tag_202\n      jump\t// in\n    tag_323:\n        /* \"#utility.yul\":11117:11256   */\n      swap1\n      pop\n        /* \"#utility.yul\":10844:11263   */\n      swap2\n      swap1\n      pop\n      jump\t// out\n        /* \"#utility.yul\":11269:11437   */\n    tag_203:\n        /* \"#utility.yul\":11409:11429   */\n      0x496e76616c69642073656c6c206f726465720000000000000000000000000000\n        /* \"#utility.yul\":11405:11406   */\n      0x00\n        /* \"#utility.yul\":11397:11403   */\n      dup3\n        /* \"#utility.yul\":11393:11407   */\n      add\n        /* \"#utility.yul\":11386:11430   */\n      mstore\n        /* \"#utility.yul\":11269:11437   */\n      pop\n      jump\t// out\n        /* \"#utility.yul\":11443:11809   */\n    tag_204:\n        /* \"#utility.yul\":11585:11588   */\n      0x00\n        /* \"#utility.yul\":11606:11673   */\n      tag_326\n        /* \"#utility.yul\":11670:11672   */\n      0x12\n        /* \"#utility.yul\":11665:11668   */\n      dup4\n        /* \"#utility.yul\":11606:11673   */\n      tag_193\n      jump\t// in\n    tag_326:\n        /* \"#utility.yul\":11599:11673   */\n      swap2\n      pop\n        /* \"#utility.yul\":11682:11775   */\n      tag_327\n        /* \"#utility.yul\":11771:11774   */\n      dup3\n        /* \"#utility.yul\":11682:11775   */\n      tag_203\n      jump\t// in\n    tag_327:\n        /* \"#utility.yul\":11800:11802   */\n      0x20\n        /* \"#utility.yul\":11795:11798   */\n      dup3\n        /* \"#utility.yul\":11791:11803   */\n      add\n        /* \"#utility.yul\":11784:11803   */\n      swap1\n      pop\n        /* \"#utility.yul\":11443:11809   */\n      swap2\n      swap1\n      pop\n      jump\t// out\n        /* \"#utility.yul\":11815:12234   */\n    tag_90:\n        /* \"#utility.yul\":11981:11985   */\n      0x00\n        /* \"#utility.yul\":12019:12021   */\n      0x20\n        /* \"#utility.yul\":12008:12017   */\n      dup3\n        /* \"#utility.yul\":12004:12022   */\n      add\n        /* \"#utility.yul\":11996:12022   */\n      swap1\n      pop\n        /* \"#utility.yul\":12068:12077   */\n      dup2\n        /* \"#utility.yul\":12062:12066   */\n      dup2\n        /* \"#utility.yul\":12058:12078   */\n      sub\n        /* \"#utility.yul\":12054:12055   */\n      0x00\n        /* \"#utility.yul\":12043:12052   */\n      dup4\n        /* \"#utility.yul\":12039:12056   */\n      add\n        /* \"#utility.yul\":12032:12079   */\n      mstore\n        /* \"#utility.yul\":12096:12227   */\n      tag_329\n        /* \"#utility.yul\":12222:12226   */\n      dup2\n        /* \"#utility.yul\":12096:12227   */\n      tag_204\n      jump\t// in\n    tag_329:\n        /* \"#utility.yul\":12088:12227   */\n      swap1\n      pop\n        /* \"#utility.yul\":11815:12234   */\n      swap2\n      swap1\n      pop\n      jump\t// out\n        /* \"#utility.yul\":12240:12408   */\n    tag_205:\n        /* \"#utility.yul\":12380:12400   */\n      0x496e636f7272656374204554482073656e740000000000000000000000000000\n        /* \"#utility.yul\":12376:12377   */\n      0x00\n        /* \"#utility.yul\":12368:12374   */\n      dup3\n        /* \"#utility.yul\":12364:12378   */\n      add\n        /* \"#utility.yul\":12357:12401   */\n      mstore\n        /* \"#utility.yul\":12240:12408   */\n      pop\n      jump\t// out\n        /* \"#utility.yul\":12414:12780   */\n    tag_206:\n        /* \"#utility.yul\":12556:12559   */\n      0x00\n        /* \"#utility.yul\":12577:12644   */\n      tag_332\n        /* \"#utility.yul\":12641:12643   */\n      0x12\n        /* \"#utility.yul\":12636:12639   */\n      dup4\n        /* \"#utility.yul\":12577:12644   */\n      tag_193\n      jump\t// in\n    tag_332:\n        /* \"#utility.yul\":12570:12644   */\n      swap2\n      pop\n        /* \"#utility.yul\":12653:12746   */\n      tag_333\n        /* \"#utility.yul\":12742:12745   */\n      dup3\n        /* \"#utility.yul\":12653:12746   */\n      tag_205\n      jump\t// in\n    tag_333:\n        /* \"#utility.yul\":12771:12773   */\n      0x20\n        /* \"#utility.yul\":12766:12769   */\n      dup3\n        /* \"#utility.yul\":12762:12774   */\n      add\n        /* \"#utility.yul\":12755:12774   */\n      swap1\n      pop\n        /* \"#utility.yul\":12414:12780   */\n      swap2\n      swap1\n      pop\n      jump\t// out\n        /* \"#utility.yul\":12786:13205   */\n    tag_94:\n        /* \"#utility.yul\":12952:12956   */\n      0x00\n        /* \"#utility.yul\":12990:12992   */\n      0x20\n        /* \"#utility.yul\":12979:12988   */\n      dup3\n        /* \"#utility.yul\":12975:12993   */\n      add\n        /* \"#utility.yul\":12967:12993   */\n      swap1\n      pop\n        /* \"#utility.yul\":13039:13048   */\n      dup2\n        /* \"#utility.yul\":13033:13037   */\n      dup2\n        /* \"#utility.yul\":13029:13049   */\n      sub\n        /* \"#utility.yul\":13025:13026   */\n      0x00\n        /* \"#utility.yul\":13014:13023   */\n      dup4\n        /* \"#utility.yul\":13010:13027   */\n      add\n        /* \"#utility.yul\":13003:13050   */\n      mstore\n        /* \"#utility.yul\":13067:13198   */\n      tag_335\n        /* \"#utility.yul\":13193:13197   */\n      dup2\n        /* \"#utility.yul\":13067:13198   */\n      tag_206\n      jump\t// in\n    tag_335:\n        /* \"#utility.yul\":13059:13198   */\n      swap1\n      pop\n        /* \"#utility.yul\":12786:13205   */\n      swap2\n      swap1\n      pop\n      jump\t// out\n        /* \"#utility.yul\":13211:13382   */\n    tag_207:\n        /* \"#utility.yul\":13351:13374   */\n      0x546f6b656e207472616e73666572206661696c65640000000000000000000000\n        /* \"#utility.yul\":13347:13348   */\n      0x00\n        /* \"#utility.yul\":13339:13345   */\n      dup3\n        /* \"#utility.yul\":13335:13349   */\n      add\n        /* \"#utility.yul\":13328:13375   */\n      mstore\n        /* \"#utility.yul\":13211:13382   */\n      pop\n      jump\t// out\n        /* \"#utility.yul\":13388:13754   */\n    tag_208:\n        /* \"#utility.yul\":13530:13533   */\n      0x00\n        /* \"#utility.yul\":13551:13618   */\n      tag_338\n        /* \"#utility.yul\":13615:13617   */\n      0x15\n        /* \"#utility.yul\":13610:13613   */\n      dup4\n        /* \"#utility.yul\":13551:13618   */\n      tag_193\n      jump\t// in\n    tag_338:\n        /* \"#utility.yul\":13544:13618   */\n      swap2\n      pop\n        /* \"#utility.yul\":13627:13720   */\n      tag_339\n        /* \"#utility.yul\":13716:13719   */\n      dup3\n        /* \"#utility.yul\":13627:13720   */\n      tag_207\n      jump\t// in\n    tag_339:\n        /* \"#utility.yul\":13745:13747   */\n      0x20\n        /* \"#utility.yul\":13740:13743   */\n      dup3\n        /* \"#utility.yul\":13736:13748   */\n      add\n        /* \"#utility.yul\":13729:13748   */\n      swap1\n      pop\n        /* \"#utility.yul\":13388:13754   */\n      swap2\n      swap1\n      pop\n      jump\t// out\n        /* \"#utility.yul\":13760:14179   */\n    tag_101:\n        /* \"#utility.yul\":13926:13930   */\n      0x00\n        /* \"#utility.yul\":13964:13966   */\n      0x20\n        /* \"#utility.yul\":13953:13962   */\n      dup3\n        /* \"#utility.yul\":13949:13967   */\n      add\n        /* \"#utility.yul\":13941:13967   */\n      swap1\n      pop\n        /* \"#utility.yul\":14013:14022   */\n      dup2\n        /* \"#utility.yul\":14007:14011   */\n      dup2\n        /* \"#utility.yul\":14003:14023   */\n      sub\n        /* \"#utility.yul\":13999:14000   */\n      0x00\n        /* \"#utility.yul\":13988:13997   */\n      dup4\n        /* \"#utility.yul\":13984:14001   */\n      add\n        /* \"#utility.yul\":13977:14024   */\n      mstore\n        /* \"#utility.yul\":14041:14172   */\n      tag_341\n        /* \"#utility.yul\":14167:14171   */\n      dup2\n        /* \"#utility.yul\":14041:14172   */\n      tag_208\n      jump\t// in\n    tag_341:\n        /* \"#utility.yul\":14033:14172   */\n      swap1\n      pop\n        /* \"#utility.yul\":13760:14179   */\n      swap2\n      swap1\n      pop\n      jump\t// out\n        /* \"#utility.yul\":14185:14352   */\n    tag_209:\n        /* \"#utility.yul\":14325:14344   */\n      0x496e76616c696420627579206f72646572000000000000000000000000000000\n        /* \"#utility.yul\":14321:14322   */\n      0x00\n        /* \"#utility.yul\":14313:14319   */\n      dup3\n        /* \"#utility.yul\":14309:14323   */\n      add\n        /* \"#utility.yul\":14302:14345   */\n      mstore\n        /* \"#utility.yul\":14185:14352   */\n      pop\n      jump\t// out\n        /* \"#utility.yul\":14358:14724   */\n    tag_210:\n        /* \"#utility.yul\":14500:14503   */\n      0x00\n        /* \"#utility.yul\":14521:14588   */\n      tag_344\n        /* \"#utility.yul\":14585:14587   */\n      0x11\n        /* \"#utility.yul\":14580:14583   */\n      dup4\n        /* \"#utility.yul\":14521:14588   */\n      tag_193\n      jump\t// in\n    tag_344:\n        /* \"#utility.yul\":14514:14588   */\n      swap2\n      pop\n        /* \"#utility.yul\":14597:14690   */\n      tag_345\n        /* \"#utility.yul\":14686:14689   */\n      dup3\n        /* \"#utility.yul\":14597:14690   */\n      tag_209\n      jump\t// in\n    tag_345:\n        /* \"#utility.yul\":14715:14717   */\n      0x20\n        /* \"#utility.yul\":14710:14713   */\n      dup3\n        /* \"#utility.yul\":14706:14718   */\n      add\n        /* \"#utility.yul\":14699:14718   */\n      swap1\n      pop\n        /* \"#utility.yul\":14358:14724   */\n      swap2\n      swap1\n      pop\n      jump\t// out\n        /* \"#utility.yul\":14730:15149   */\n    tag_115:\n        /* \"#utility.yul\":14896:14900   */\n      0x00\n        /* \"#utility.yul\":14934:14936   */\n      0x20\n        /* \"#utility.yul\":14923:14932   */\n      dup3\n        /* \"#utility.yul\":14919:14937   */\n      add\n        /* \"#utility.yul\":14911:14937   */\n      swap1\n      pop\n        /* \"#utility.yul\":14983:14992   */\n      dup2\n        /* \"#utility.yul\":14977:14981   */\n      dup2\n        /* \"#utility.yul\":14973:14993   */\n      sub\n        /* \"#utility.yul\":14969:14970   */\n      0x00\n        /* \"#utility.yul\":14958:14967   */\n      dup4\n        /* \"#utility.yul\":14954:14971   */\n      add\n        /* \"#utility.yul\":14947:14994   */\n      mstore\n        /* \"#utility.yul\":15011:15142   */\n      tag_347\n        /* \"#utility.yul\":15137:15141   */\n      dup2\n        /* \"#utility.yul\":15011:15142   */\n      tag_210\n      jump\t// in\n    tag_347:\n        /* \"#utility.yul\":15003:15142   */\n      swap1\n      pop\n        /* \"#utility.yul\":14730:15149   */\n      swap2\n      swap1\n      pop\n      jump\t// out\n        /* \"#utility.yul\":15155:15597   */\n    tag_117:\n        /* \"#utility.yul\":15304:15308   */\n      0x00\n        /* \"#utility.yul\":15342:15344   */\n      0x60\n        /* \"#utility.yul\":15331:15340   */\n      dup3\n        /* \"#utility.yul\":15327:15345   */\n      add\n        /* \"#utility.yul\":15319:15345   */\n      swap1\n      pop\n        /* \"#utility.yul\":15355:15426   */\n      tag_349\n        /* \"#utility.yul\":15423:15424   */\n      0x00\n        /* \"#utility.yul\":15412:15421   */\n      dup4\n        /* \"#utility.yul\":15408:15425   */\n      add\n        /* \"#utility.yul\":15399:15405   */\n      dup7\n        /* \"#utility.yul\":15355:15426   */\n      tag_175\n      jump\t// in\n    tag_349:\n        /* \"#utility.yul\":15436:15508   */\n      tag_350\n        /* \"#utility.yul\":15504:15506   */\n      0x20\n        /* \"#utility.yul\":15493:15502   */\n      dup4\n        /* \"#utility.yul\":15489:15507   */\n      add\n        /* \"#utility.yul\":15480:15486   */\n      dup6\n        /* \"#utility.yul\":15436:15508   */\n      tag_175\n      jump\t// in\n    tag_350:\n        /* \"#utility.yul\":15518:15590   */\n      tag_351\n        /* \"#utility.yul\":15586:15588   */\n      0x40\n        /* \"#utility.yul\":15575:15584   */\n      dup4\n        /* \"#utility.yul\":15571:15589   */\n      add\n        /* \"#utility.yul\":15562:15568   */\n      dup5\n        /* \"#utility.yul\":15518:15590   */\n      tag_176\n      jump\t// in\n    tag_351:\n        /* \"#utility.yul\":15155:15597   */\n      swap5\n      swap4\n      pop\n      pop\n      pop\n      pop\n      jump\t// out\n        /* \"#utility.yul\":15603:15797   */\n    tag_139:\n        /* \"#utility.yul\":15643:15647   */\n      0x00\n        /* \"#utility.yul\":15663:15683   */\n      tag_353\n        /* \"#utility.yul\":15681:15682   */\n      dup3\n        /* \"#utility.yul\":15663:15683   */\n      tag_170\n      jump\t// in\n    tag_353:\n        /* \"#utility.yul\":15658:15683   */\n      swap2\n      pop\n        /* \"#utility.yul\":15697:15717   */\n      tag_354\n        /* \"#utility.yul\":15715:15716   */\n      dup4\n        /* \"#utility.yul\":15697:15717   */\n      tag_170\n      jump\t// in\n    tag_354:\n        /* \"#utility.yul\":15692:15717   */\n      swap3\n      pop\n        /* \"#utility.yul\":15741:15742   */\n      dup3\n        /* \"#utility.yul\":15738:15739   */\n      dup3\n        /* \"#utility.yul\":15734:15743   */\n      sub\n        /* \"#utility.yul\":15726:15743   */\n      swap1\n      pop\n        /* \"#utility.yul\":15765:15766   */\n      dup2\n        /* \"#utility.yul\":15759:15763   */\n      dup2\n        /* \"#utility.yul\":15756:15767   */\n      gt\n        /* \"#utility.yul\":15753:15790   */\n      iszero\n      tag_355\n      jumpi\n        /* \"#utility.yul\":15770:15788   */\n      tag_356\n      tag_198\n      jump\t// in\n    tag_356:\n        /* \"#utility.yul\":15753:15790   */\n    tag_355:\n        /* \"#utility.yul\":15603:15797   */\n      swap3\n      swap2\n      pop\n      pop\n      jump\t// out\n        /* \"#utility.yul\":15803:16265   */\n    tag_141:\n        /* \"#utility.yul\":15962:15966   */\n      0x00\n        /* \"#utility.yul\":16000:16002   */\n      0x60\n        /* \"#utility.yul\":15989:15998   */\n      dup3\n        /* \"#utility.yul\":15985:16003   */\n      add\n        /* \"#utility.yul\":15977:16003   */\n      swap1\n      pop\n        /* \"#utility.yul\":16013:16094   */\n      tag_358\n        /* \"#utility.yul\":16091:16092   */\n      0x00\n        /* \"#utility.yul\":16080:16089   */\n      dup4\n        /* \"#utility.yul\":16076:16093   */\n      add\n        /* \"#utility.yul\":16067:16073   */\n      dup7\n        /* \"#utility.yul\":16013:16094   */\n      tag_180\n      jump\t// in\n    tag_358:\n        /* \"#utility.yul\":16104:16176   */\n      tag_359\n        /* \"#utility.yul\":16172:16174   */\n      0x20\n        /* \"#utility.yul\":16161:16170   */\n      dup4\n        /* \"#utility.yul\":16157:16175   */\n      add\n        /* \"#utility.yul\":16148:16154   */\n      dup6\n        /* \"#utility.yul\":16104:16176   */\n      tag_176\n      jump\t// in\n    tag_359:\n        /* \"#utility.yul\":16186:16258   */\n      tag_360\n        /* \"#utility.yul\":16254:16256   */\n      0x40\n        /* \"#utility.yul\":16243:16252   */\n      dup4\n        /* \"#utility.yul\":16239:16257   */\n      add\n        /* \"#utility.yul\":16230:16236   */\n      dup5\n        /* \"#utility.yul\":16186:16258   */\n      tag_176\n      jump\t// in\n    tag_360:\n        /* \"#utility.yul\":15803:16265   */\n      swap5\n      swap4\n      pop\n      pop\n      pop\n      pop\n      jump\t// out\n\n    auxdata: 0xa26469706673582212202ba2c5f3e16aa9f6f953fd645fb671e5c04bf6dae712dd2422635bbb397afa6064736f6c634300081d0033\n}\n",
				"bytecode": {
					"linkReferences": {},
					"object": "608060405234801561000f575f5ffd5b506040516118ba3803806118ba833981810160405281019061003191906100d4565b805f5f6101000a81548173ffffffffffffffffffffffffffffffffffffffff021916908373ffffffffffffffffffffffffffffffffffffffff160217905550506100ff565b5f5ffd5b5f73ffffffffffffffffffffffffffffffffffffffff82169050919050565b5f6100a38261007a565b9050919050565b6100b381610099565b81146100bd575f5ffd5b50565b5f815190506100ce816100aa565b92915050565b5f602082840312156100e9576100e8610076565b5b5f6100f6848285016100c0565b91505092915050565b6117ae8061010c5f395ff3fe60806040526004361061007a575f3560e01c8063a85c38ef1161004d578063a85c38ef14610112578063d09ef24114610152578063ee36d4ab1461018e578063fc0c546a146101aa5761007a565b8063514fcac71461007e578063567e15a8146100a65780639a7fe1e6146100c2578063a4406bcd146100ea575b5f5ffd5b348015610089575f5ffd5b506100a4600480360381019061009f9190611018565b6101d4565b005b6100c060048036038101906100bb9190611018565b61049b565b005b3480156100cd575f5ffd5b506100e860048036038101906100e39190611018565b61074b565b005b3480156100f5575f5ffd5b50610110600480360381019061010b9190611043565b6109bb565b005b34801561011d575f5ffd5b5061013860048036038101906101339190611018565b610c22565b60405161014995949392919061115c565b60405180910390f35b34801561015d575f5ffd5b5061017860048036038101906101739190611018565b610c9b565b604051610185919061124f565b60405180910390f35b6101a860048036038101906101a39190611043565b610d92565b005b3480156101b5575f5ffd5b506101be610f69565b6040516101cb91906112c3565b60405180910390f35b5f600182815481106101e9576101e86112dc565b5b905f5260205f20906004020190508060030160019054906101000a900460ff16610248576040517f08c379a000000000000000000000000000000000000000000000000000000000815260040161023f90611363565b60405180910390fd5b3373ffffffffffffffffffffffffffffffffffffffff16815f015f9054906101000a900473ffffffffffffffffffffffffffffffffffffffff1673ffffffffffffffffffffffffffffffffffffffff16146102d8576040517f08c379a00000000000000000000000000000000000000000000000000000000081526004016102cf906113cb565b60405180910390fd5b5f8160030160016101000a81548160ff0219169083151502179055505f6001811115610307576103066110cf565b5b816003015f9054906101000a900460ff16600181111561032a576103296110cf565b5b0361038b573373ffffffffffffffffffffffffffffffffffffffff166108fc8260020154836001015461035d9190611416565b90811502906040515f60405180830381858888f19350505050158015610385573d5f5f3e3d5ffd5b5061046a565b5f5f9054906101000a900473ffffffffffffffffffffffffffffffffffffffff1673ffffffffffffffffffffffffffffffffffffffff1663a9059cbb3383600101546040518363ffffffff1660e01b81526004016103ea929190611457565b6020604051808303815f875af1158015610406573d5f5f3e3d5ffd5b505050506040513d601f19601f8201168201806040525081019061042a91906114a8565b610469576040517f08c379a00000000000000000000000000000000000000000000000000000000081526004016104609061151d565b60405180910390fd5b5b817f61b9399f2f0f32ca39ce8d7be32caed5ec22fe07a6daba3a467ed479ec60658260405160405180910390a25050565b5f600182815481106104b0576104af6112dc565b5b905f5260205f20906004020190508060030160019054906101000a900460ff16801561050f57506001808111156104ea576104e96110cf565b5b816003015f9054906101000a900460ff16600181111561050d5761050c6110cf565b5b145b61054e576040517f08c379a000000000000000000000000000000000000000000000000000000000815260040161054590611585565b60405180910390fd5b806002015481600101546105629190611416565b34146105a3576040517f08c379a000000000000000000000000000000000000000000000000000000000815260040161059a906115ed565b60405180910390fd5b5f5f9054906101000a900473ffffffffffffffffffffffffffffffffffffffff1673ffffffffffffffffffffffffffffffffffffffff1663a9059cbb3383600101546040518363ffffffff1660e01b8152600401610602929190611457565b6020604051808303815f875af115801561061e573d5f5f3e3d5ffd5b505050506040513d601f19601f8201168201806040525081019061064291906114a8565b610681576040517f08c379a000000000000000000000000000000000000000000000000000000000815260040161067890611655565b60405180910390fd5b805f015f9054906101000a900473ffffffffffffffffffffffffffffffffffffffff1673ffffffffffffffffffffffffffffffffffffffff166108fc3490811502906040515f60405180830381858888f193505050501580156106e6573d5f5f3e3d5ffd5b505f8160030160016101000a81548160ff0219169083151502179055503373ffffffffffffffffffffffffffffffffffffffff16827ff25a05118e210ce1060e78f9ef6383d8cb0e4408114aa3a5eded9791a053a04960405160405180910390a35050565b5f600182815481106107605761075f6112dc565b5b905f5260205f20906004020190508060030160019054906101000a900460ff1680156107bf57505f600181111561079a576107996110cf565b5b816003015f9054906101000a900460ff1660018111156107bd576107bc6110cf565b5b145b6107fe576040517f08c379a00000000000000000000000000000000000000000000000000000000081526004016107f5906116bd565b60405180910390fd5b5f5f9054906101000a900473ffffffffffffffffffffffffffffffffffffffff1673ffffffffffffffffffffffffffffffffffffffff166323b872dd33835f015f9054906101000a900473ffffffffffffffffffffffffffffffffffffffff1684600101546040518463ffffffff1660e01b8152600401610881939291906116db565b6020604051808303815f875af115801561089d573d5f5f3e3d5ffd5b505050506040513d601f19601f820116820180604052508101906108c191906114a8565b610900576040517f08c379a00000000000000000000000000000000000000000000000000000000081526004016108f790611655565b60405180910390fd5b3373ffffffffffffffffffffffffffffffffffffffff166108fc8260020154836001015461092e9190611416565b90811502906040515f60405180830381858888f19350505050158015610956573d5f5f3e3d5ffd5b505f8160030160016101000a81548160ff0219169083151502179055503373ffffffffffffffffffffffffffffffffffffffff16827ff25a05118e210ce1060e78f9ef6383d8cb0e4408114aa3a5eded9791a053a04960405160405180910390a35050565b5f5f9054906101000a900473ffffffffffffffffffffffffffffffffffffffff1673ffffffffffffffffffffffffffffffffffffffff166323b872dd3330856040518463ffffffff1660e01b8152600401610a18939291906116db565b6020604051808303815f875af1158015610a34573d5f5f3e3d5ffd5b505050506040513d601f19601f82011682018060405250810190610a5891906114a8565b610a97576040517f08c379a0000000000000000000000000000000000000000000000000000000008152600401610a8e90611655565b60405180910390fd5b60016040518060a001604052803373ffffffffffffffffffffffffffffffffffffffff168152602001848152602001838152602001600180811115610adf57610ade6110cf565b5b815260200160011515815250908060018154018082558091505060019003905f5260205f2090600402015f909190919091505f820151815f015f6101000a81548173ffffffffffffffffffffffffffffffffffffffff021916908373ffffffffffffffffffffffffffffffffffffffff16021790555060208201518160010155604082015181600201556060820151816003015f6101000a81548160ff02191690836001811115610b9357610b926110cf565b5b021790555060808201518160030160016101000a81548160ff02191690831515021790555050503373ffffffffffffffffffffffffffffffffffffffff1660018080549050610be29190611710565b7f28ee76b520925c614b94784e5bd4b8d8ad21fd9930aea487e678e1e5a5f4051360018585604051610c1693929190611743565b60405180910390a35050565b60018181548110610c31575f80fd5b905f5260205f2090600402015f91509050805f015f9054906101000a900473ffffffffffffffffffffffffffffffffffffffff1690806001015490806002015490806003015f9054906101000a900460ff16908060030160019054906101000a900460ff16905085565b610ca3610f8d565b60018281548110610cb757610cb66112dc565b5b905f5260205f2090600402016040518060a00160405290815f82015f9054906101000a900473ffffffffffffffffffffffffffffffffffffffff1673ffffffffffffffffffffffffffffffffffffffff1673ffffffffffffffffffffffffffffffffffffffff1681526020016001820154815260200160028201548152602001600382015f9054906101000a900460ff166001811115610d5a57610d596110cf565b5b6001811115610d6c57610d6b6110cf565b5b81526020016003820160019054906101000a900460ff1615151515815250509050919050565b8082610d9e9190611416565b3414610ddf576040517f08c379a0000000000000000000000000000000000000000000000000000000008152600401610dd6906115ed565b60405180910390fd5b60016040518060a001604052803373ffffffffffffffffffffffffffffffffffffffff1681526020018481526020018381526020015f6001811115610e2757610e266110cf565b5b815260200160011515815250908060018154018082558091505060019003905f5260205f2090600402015f909190919091505f820151815f015f6101000a81548173ffffffffffffffffffffffffffffffffffffffff021916908373ffffffffffffffffffffffffffffffffffffffff16021790555060208201518160010155604082015181600201556060820151816003015f6101000a81548160ff02191690836001811115610edb57610eda6110cf565b5b021790555060808201518160030160016101000a81548160ff02191690831515021790555050503373ffffffffffffffffffffffffffffffffffffffff1660018080549050610f2a9190611710565b7f28ee76b520925c614b94784e5bd4b8d8ad21fd9930aea487e678e1e5a5f405135f8585604051610f5d93929190611743565b60405180910390a35050565b5f5f9054906101000a900473ffffffffffffffffffffffffffffffffffffffff1681565b6040518060a001604052805f73ffffffffffffffffffffffffffffffffffffffff1681526020015f81526020015f81526020015f6001811115610fd357610fd26110cf565b5b81526020015f151581525090565b5f5ffd5b5f819050919050565b610ff781610fe5565b8114611001575f5ffd5b50565b5f8135905061101281610fee565b92915050565b5f6020828403121561102d5761102c610fe1565b5b5f61103a84828501611004565b91505092915050565b5f5f6040838503121561105957611058610fe1565b5b5f61106685828601611004565b925050602061107785828601611004565b9150509250929050565b5f73ffffffffffffffffffffffffffffffffffffffff82169050919050565b5f6110aa82611081565b9050919050565b6110ba816110a0565b82525050565b6110c981610fe5565b82525050565b7f4e487b71000000000000000000000000000000000000000000000000000000005f52602160045260245ffd5b6002811061110d5761110c6110cf565b5b50565b5f81905061111d826110fc565b919050565b5f61112c82611110565b9050919050565b61113c81611122565b82525050565b5f8115159050919050565b61115681611142565b82525050565b5f60a08201905061116f5f8301886110b1565b61117c60208301876110c0565b61118960408301866110c0565b6111966060830185611133565b6111a3608083018461114d565b9695505050505050565b6111b6816110a0565b82525050565b6111c581610fe5565b82525050565b6111d481611122565b82525050565b6111e381611142565b82525050565b60a082015f8201516111fd5f8501826111ad565b50602082015161121060208501826111bc565b50604082015161122360408501826111bc565b50606082015161123660608501826111cb565b50608082015161124960808501826111da565b50505050565b5f60a0820190506112625f8301846111e9565b92915050565b5f819050919050565b5f61128b61128661128184611081565b611268565b611081565b9050919050565b5f61129c82611271565b9050919050565b5f6112ad82611292565b9050919050565b6112bd816112a3565b82525050565b5f6020820190506112d65f8301846112b4565b92915050565b7f4e487b71000000000000000000000000000000000000000000000000000000005f52603260045260245ffd5b5f82825260208201905092915050565b7f4f72646572206e6f7420616374697665000000000000000000000000000000005f82015250565b5f61134d601083611309565b915061135882611319565b602082019050919050565b5f6020820190508181035f83015261137a81611341565b9050919050565b7f4e6f7420796f7572206f726465720000000000000000000000000000000000005f82015250565b5f6113b5600e83611309565b91506113c082611381565b602082019050919050565b5f6020820190508181035f8301526113e2816113a9565b9050919050565b7f4e487b71000000000000000000000000000000000000000000000000000000005f52601160045260245ffd5b5f61142082610fe5565b915061142b83610fe5565b925082820261143981610fe5565b915082820484148315176114505761144f6113e9565b5b5092915050565b5f60408201905061146a5f8301856110b1565b61147760208301846110c0565b9392505050565b61148781611142565b8114611491575f5ffd5b50565b5f815190506114a28161147e565b92915050565b5f602082840312156114bd576114bc610fe1565b5b5f6114ca84828501611494565b91505092915050565b7f546f6b656e20726566756e64206661696c6564000000000000000000000000005f82015250565b5f611507601383611309565b9150611512826114d3565b602082019050919050565b5f6020820190508181035f830152611534816114fb565b9050919050565b7f496e76616c69642073656c6c206f7264657200000000000000000000000000005f82015250565b5f61156f601283611309565b915061157a8261153b565b602082019050919050565b5f6020820190508181035f83015261159c81611563565b9050919050565b7f496e636f7272656374204554482073656e7400000000000000000000000000005f82015250565b5f6115d7601283611309565b91506115e2826115a3565b602082019050919050565b5f6020820190508181035f830152611604816115cb565b9050919050565b7f546f6b656e207472616e73666572206661696c656400000000000000000000005f82015250565b5f61163f601583611309565b915061164a8261160b565b602082019050919050565b5f6020820190508181035f83015261166c81611633565b9050919050565b7f496e76616c696420627579206f726465720000000000000000000000000000005f82015250565b5f6116a7601183611309565b91506116b282611673565b602082019050919050565b5f6020820190508181035f8301526116d48161169b565b9050919050565b5f6060820190506116ee5f8301866110b1565b6116fb60208301856110b1565b61170860408301846110c0565b949350505050565b5f61171a82610fe5565b915061172583610fe5565b925082820390508181111561173d5761173c6113e9565b5b92915050565b5f6060820190506117565f830186611133565b61176360208301856110c0565b61177060408301846110c0565b94935050505056fea26469706673582212202ba2c5f3e16aa9f6f953fd645fb671e5c04bf6dae712dd2422635bbb397afa6064736f6c634300081d0033",
					"opcodes": "PUSH1 0x80 PUSH1 0x40 MSTORE CALLVALUE DUP1 ISZERO PUSH2 0xF JUMPI PUSH0 PUSH0 REVERT JUMPDEST POP PUSH1 0x40 MLOAD PUSH2 0x18BA CODESIZE SUB DUP1 PUSH2 0x18BA DUP4 CODECOPY DUP2 DUP2 ADD PUSH1 0x40 MSTORE DUP2 ADD SWAP1 PUSH2 0x31 SWAP2 SWAP1 PUSH2 0xD4 JUMP JUMPDEST DUP1 PUSH0 PUSH0 PUSH2 0x100 EXP DUP2 SLOAD DUP2 PUSH20 0xFFFFFFFFFFFFFFFFFFFFFFFFFFFFFFFFFFFFFFFF MUL NOT AND SWAP1 DUP4 PUSH20 0xFFFFFFFFFFFFFFFFFFFFFFFFFFFFFFFFFFFFFFFF AND MUL OR SWAP1 SSTORE POP POP PUSH2 0xFF JUMP JUMPDEST PUSH0 PUSH0 REVERT JUMPDEST PUSH0 PUSH20 0xFFFFFFFFFFFFFFFFFFFFFFFFFFFFFFFFFFFFFFFF DUP3 AND SWAP1 POP SWAP2 SWAP1 POP JUMP JUMPDEST PUSH0 PUSH2 0xA3 DUP3 PUSH2 0x7A JUMP JUMPDEST SWAP1 POP SWAP2 SWAP1 POP JUMP JUMPDEST PUSH2 0xB3 DUP2 PUSH2 0x99 JUMP JUMPDEST DUP2 EQ PUSH2 0xBD JUMPI PUSH0 PUSH0 REVERT JUMPDEST POP JUMP JUMPDEST PUSH0 DUP2 MLOAD SWAP1 POP PUSH2 0xCE DUP2 PUSH2 0xAA JUMP JUMPDEST SWAP3 SWAP2 POP POP JUMP JUMPDEST PUSH0 PUSH1 0x20 DUP3 DUP5 SUB SLT ISZERO PUSH2 0xE9 JUMPI PUSH2 0xE8 PUSH2 0x76 JUMP JUMPDEST JUMPDEST PUSH0 PUSH2 0xF6 DUP5 DUP3 DUP6 ADD PUSH2 0xC0 JUMP JUMPDEST SWAP2 POP POP SWAP3 SWAP2 POP POP JUMP JUMPDEST PUSH2 0x17AE DUP1 PUSH2 0x10C PUSH0 CODECOPY PUSH0 RETURN INVALID PUSH1 0x80 PUSH1 0x40 MSTORE PUSH1 0x4 CALLDATASIZE LT PUSH2 0x7A JUMPI PUSH0 CALLDATALOAD PUSH1 0xE0 SHR DUP1 PUSH4 0xA85C38EF GT PUSH2 0x4D JUMPI DUP1 PUSH4 0xA85C38EF EQ PUSH2 0x112 JUMPI DUP1 PUSH4 0xD09EF241 EQ PUSH2 0x152 JUMPI DUP1 PUSH4 0xEE36D4AB EQ PUSH2 0x18E JUMPI DUP1 PUSH4 0xFC0C546A EQ PUSH2 0x1AA JUMPI PUSH2 0x7A JUMP JUMPDEST DUP1 PUSH4 0x514FCAC7 EQ PUSH2 0x7E JUMPI DUP1 PUSH4 0x567E15A8 EQ PUSH2 0xA6 JUMPI DUP1 PUSH4 0x9A7FE1E6 EQ PUSH2 0xC2 JUMPI DUP1 PUSH4 0xA4406BCD EQ PUSH2 0xEA JUMPI JUMPDEST PUSH0 PUSH0 REVERT JUMPDEST CALLVALUE DUP1 ISZERO PUSH2 0x89 JUMPI PUSH0 PUSH0 REVERT JUMPDEST POP PUSH2 0xA4 PUSH1 0x4 DUP1 CALLDATASIZE SUB DUP2 ADD SWAP1 PUSH2 0x9F SWAP2 SWAP1 PUSH2 0x1018 JUMP JUMPDEST PUSH2 0x1D4 JUMP JUMPDEST STOP JUMPDEST PUSH2 0xC0 PUSH1 0x4 DUP1 CALLDATASIZE SUB DUP2 ADD SWAP1 PUSH2 0xBB SWAP2 SWAP1 PUSH2 0x1018 JUMP JUMPDEST PUSH2 0x49B JUMP JUMPDEST STOP JUMPDEST CALLVALUE DUP1 ISZERO PUSH2 0xCD JUMPI PUSH0 PUSH0 REVERT JUMPDEST POP PUSH2 0xE8 PUSH1 0x4 DUP1 CALLDATASIZE SUB DUP2 ADD SWAP1 PUSH2 0xE3 SWAP2 SWAP1 PUSH2 0x1018 JUMP JUMPDEST PUSH2 0x74B JUMP JUMPDEST STOP JUMPDEST CALLVALUE DUP1 ISZERO PUSH2 0xF5 JUMPI PUSH0 PUSH0 REVERT JUMPDEST POP PUSH2 0x110 PUSH1 0x4 DUP1 CALLDATASIZE SUB DUP2 ADD SWAP1 PUSH2 0x10B SWAP2 SWAP1 PUSH2 0x1043 JUMP JUMPDEST PUSH2 0x9BB JUMP JUMPDEST STOP JUMPDEST CALLVALUE DUP1 ISZERO PUSH2 0x11D JUMPI PUSH0 PUSH0 REVERT JUMPDEST POP PUSH2 0x138 PUSH1 0x4 DUP1 CALLDATASIZE SUB DUP2 ADD SWAP1 PUSH2 0x133 SWAP2 SWAP1 PUSH2 0x1018 JUMP JUMPDEST PUSH2 0xC22 JUMP JUMPDEST PUSH1 0x40 MLOAD PUSH2 0x149 SWAP6 SWAP5 SWAP4 SWAP3 SWAP2 SWAP1 PUSH2 0x115C JUMP JUMPDEST PUSH1 0x40 MLOAD DUP1 SWAP2 SUB SWAP1 RETURN JUMPDEST CALLVALUE DUP1 ISZERO PUSH2 0x15D JUMPI PUSH0 PUSH0 REVERT JUMPDEST POP PUSH2 0x178 PUSH1 0x4 DUP1 CALLDATASIZE SUB DUP2 ADD SWAP1 PUSH2 0x173 SWAP2 SWAP1 PUSH2 0x1018 JUMP JUMPDEST PUSH2 0xC9B JUMP JUMPDEST PUSH1 0x40 MLOAD PUSH2 0x185 SWAP2 SWAP1 PUSH2 0x124F JUMP JUMPDEST PUSH1 0x40 MLOAD DUP1 SWAP2 SUB SWAP1 RETURN JUMPDEST PUSH2 0x1A8 PUSH1 0x4 DUP1 CALLDATASIZE SUB DUP2 ADD SWAP1 PUSH2 0x1A3 SWAP2 SWAP1 PUSH2 0x1043 JUMP JUMPDEST PUSH2 0xD92 JUMP JUMPDEST STOP JUMPDEST CALLVALUE DUP1 ISZERO PUSH2 0x1B5 JUMPI PUSH0 PUSH0 REVERT JUMPDEST POP PUSH2 0x1BE PUSH2 0xF69 JUMP JUMPDEST PUSH1 0x40 MLOAD PUSH2 0x1CB SWAP2 SWAP1 PUSH2 0x12C3 JUMP JUMPDEST PUSH1 0x40 MLOAD DUP1 SWAP2 SUB SWAP1 RETURN JUMPDEST PUSH0 PUSH1 0x1 DUP3 DUP2 SLOAD DUP2 LT PUSH2 0x1E9 JUMPI PUSH2 0x1E8 PUSH2 0x12DC JUMP JUMPDEST JUMPDEST SWAP1 PUSH0 MSTORE PUSH1 0x20 PUSH0 KECCAK256 SWAP1 PUSH1 0x4 MUL ADD SWAP1 POP DUP1 PUSH1 0x3 ADD PUSH1 0x1 SWAP1 SLOAD SWAP1 PUSH2 0x100 EXP SWAP1 DIV PUSH1 0xFF AND PUSH2 0x248 JUMPI PUSH1 0x40 MLOAD PUSH32 0x8C379A000000000000000000000000000000000000000000000000000000000 DUP2 MSTORE PUSH1 0x4 ADD PUSH2 0x23F SWAP1 PUSH2 0x1363 JUMP JUMPDEST PUSH1 0x40 MLOAD DUP1 SWAP2 SUB SWAP1 REVERT JUMPDEST CALLER PUSH20 0xFFFFFFFFFFFFFFFFFFFFFFFFFFFFFFFFFFFFFFFF AND DUP2 PUSH0 ADD PUSH0 SWAP1 SLOAD SWAP1 PUSH2 0x100 EXP SWAP1 DIV PUSH20 0xFFFFFFFFFFFFFFFFFFFFFFFFFFFFFFFFFFFFFFFF AND PUSH20 0xFFFFFFFFFFFFFFFFFFFFFFFFFFFFFFFFFFFFFFFF AND EQ PUSH2 0x2D8 JUMPI PUSH1 0x40 MLOAD PUSH32 0x8C379A000000000000000000000000000000000000000000000000000000000 DUP2 MSTORE PUSH1 0x4 ADD PUSH2 0x2CF SWAP1 PUSH2 0x13CB JUMP JUMPDEST PUSH1 0x40 MLOAD DUP1 SWAP2 SUB SWAP1 REVERT JUMPDEST PUSH0 DUP2 PUSH1 0x3 ADD PUSH1 0x1 PUSH2 0x100 EXP DUP2 SLOAD DUP2 PUSH1 0xFF MUL NOT AND SWAP1 DUP4 ISZERO ISZERO MUL OR SWAP1 SSTORE POP PUSH0 PUSH1 0x1 DUP2 GT ISZERO PUSH2 0x307 JUMPI PUSH2 0x306 PUSH2 0x10CF JUMP JUMPDEST JUMPDEST DUP2 PUSH1 0x3 ADD PUSH0 SWAP1 SLOAD SWAP1 PUSH2 0x100 EXP SWAP1 DIV PUSH1 0xFF AND PUSH1 0x1 DUP2 GT ISZERO PUSH2 0x32A JUMPI PUSH2 0x329 PUSH2 0x10CF JUMP JUMPDEST JUMPDEST SUB PUSH2 0x38B JUMPI CALLER PUSH20 0xFFFFFFFFFFFFFFFFFFFFFFFFFFFFFFFFFFFFFFFF AND PUSH2 0x8FC DUP3 PUSH1 0x2 ADD SLOAD DUP4 PUSH1 0x1 ADD SLOAD PUSH2 0x35D SWAP2 SWAP1 PUSH2 0x1416 JUMP JUMPDEST SWAP1 DUP2 ISZERO MUL SWAP1 PUSH1 0x40 MLOAD PUSH0 PUSH1 0x40 MLOAD DUP1 DUP4 SUB DUP2 DUP6 DUP9 DUP9 CALL SWAP4 POP POP POP POP ISZERO DUP1 ISZERO PUSH2 0x385 JUMPI RETURNDATASIZE PUSH0 PUSH0 RETURNDATACOPY RETURNDATASIZE PUSH0 REVERT JUMPDEST POP PUSH2 0x46A JUMP JUMPDEST PUSH0 PUSH0 SWAP1 SLOAD SWAP1 PUSH2 0x100 EXP SWAP1 DIV PUSH20 0xFFFFFFFFFFFFFFFFFFFFFFFFFFFFFFFFFFFFFFFF AND PUSH20 0xFFFFFFFFFFFFFFFFFFFFFFFFFFFFFFFFFFFFFFFF AND PUSH4 0xA9059CBB CALLER DUP4 PUSH1 0x1 ADD SLOAD PUSH1 0x40 MLOAD DUP4 PUSH4 0xFFFFFFFF AND PUSH1 0xE0 SHL DUP2 MSTORE PUSH1 0x4 ADD PUSH2 0x3EA SWAP3 SWAP2 SWAP1 PUSH2 0x1457 JUMP JUMPDEST PUSH1 0x20 PUSH1 0x40 MLOAD DUP1 DUP4 SUB DUP2 PUSH0 DUP8 GAS CALL ISZERO DUP1 ISZERO PUSH2 0x406 JUMPI RETURNDATASIZE PUSH0 PUSH0 RETURNDATACOPY RETURNDATASIZE PUSH0 REVERT JUMPDEST POP POP POP POP PUSH1 0x40 MLOAD RETURNDATASIZE PUSH1 0x1F NOT PUSH1 0x1F DUP3 ADD AND DUP3 ADD DUP1 PUSH1 0x40 MSTORE POP DUP2 ADD SWAP1 PUSH2 0x42A SWAP2 SWAP1 PUSH2 0x14A8 JUMP JUMPDEST PUSH2 0x469 JUMPI PUSH1 0x40 MLOAD PUSH32 0x8C379A000000000000000000000000000000000000000000000000000000000 DUP2 MSTORE PUSH1 0x4 ADD PUSH2 0x460 SWAP1 PUSH2 0x151D JUMP JUMPDEST PUSH1 0x40 MLOAD DUP1 SWAP2 SUB SWAP1 REVERT JUMPDEST JUMPDEST DUP2 PUSH32 0x61B9399F2F0F32CA39CE8D7BE32CAED5EC22FE07A6DABA3A467ED479EC606582 PUSH1 0x40 MLOAD PUSH1 0x40 MLOAD DUP1 SWAP2 SUB SWAP1 LOG2 POP POP JUMP JUMPDEST PUSH0 PUSH1 0x1 DUP3 DUP2 SLOAD DUP2 LT PUSH2 0x4B0 JUMPI PUSH2 0x4AF PUSH2 0x12DC JUMP JUMPDEST JUMPDEST SWAP1 PUSH0 MSTORE PUSH1 0x20 PUSH0 KECCAK256 SWAP1 PUSH1 0x4 MUL ADD SWAP1 POP DUP1 PUSH1 0x3 ADD PUSH1 0x1 SWAP1 SLOAD SWAP1 PUSH2 0x100 EXP SWAP1 DIV PUSH1 0xFF AND DUP1 ISZERO PUSH2 0x50F JUMPI POP PUSH1 0x1 DUP1 DUP2 GT ISZERO PUSH2 0x4EA JUMPI PUSH2 0x4E9 PUSH2 0x10CF JUMP JUMPDEST JUMPDEST DUP2 PUSH1 0x3 ADD PUSH0 SWAP1 SLOAD SWAP1 PUSH2 0x100 EXP SWAP1 DIV PUSH1 0xFF AND PUSH1 0x1 DUP2 GT ISZERO PUSH2 0x50D JUMPI PUSH2 0x50C PUSH2 0x10CF JUMP JUMPDEST JUMPDEST EQ JUMPDEST PUSH2 0x54E JUMPI PUSH1 0x40 MLOAD PUSH32 0x8C379A000000000000000000000000000000000000000000000000000000000 DUP2 MSTORE PUSH1 0x4 ADD PUSH2 0x545 SWAP1 PUSH2 0x1585 JUMP JUMPDEST PUSH1 0x40 MLOAD DUP1 SWAP2 SUB SWAP1 REVERT JUMPDEST DUP1 PUSH1 0x2 ADD SLOAD DUP2 PUSH1 0x1 ADD SLOAD PUSH2 0x562 SWAP2 SWAP1 PUSH2 0x1416 JUMP JUMPDEST CALLVALUE EQ PUSH2 0x5A3 JUMPI PUSH1 0x40 MLOAD PUSH32 0x8C379A000000000000000000000000000000000000000000000000000000000 DUP2 MSTORE PUSH1 0x4 ADD PUSH2 0x59A SWAP1 PUSH2 0x15ED JUMP JUMPDEST PUSH1 0x40 MLOAD DUP1 SWAP2 SUB SWAP1 REVERT JUMPDEST PUSH0 PUSH0 SWAP1 SLOAD SWAP1 PUSH2 0x100 EXP SWAP1 DIV PUSH20 0xFFFFFFFFFFFFFFFFFFFFFFFFFFFFFFFFFFFFFFFF AND PUSH20 0xFFFFFFFFFFFFFFFFFFFFFFFFFFFFFFFFFFFFFFFF AND PUSH4 0xA9059CBB CALLER DUP4 PUSH1 0x1 ADD SLOAD PUSH1 0x40 MLOAD DUP4 PUSH4 0xFFFFFFFF AND PUSH1 0xE0 SHL DUP2 MSTORE PUSH1 0x4 ADD PUSH2 0x602 SWAP3 SWAP2 SWAP1 PUSH2 0x1457 JUMP JUMPDEST PUSH1 0x20 PUSH1 0x40 MLOAD DUP1 DUP4 SUB DUP2 PUSH0 DUP8 GAS CALL ISZERO DUP1 ISZERO PUSH2 0x61E JUMPI RETURNDATASIZE PUSH0 PUSH0 RETURNDATACOPY RETURNDATASIZE PUSH0 REVERT JUMPDEST POP POP POP POP PUSH1 0x40 MLOAD RETURNDATASIZE PUSH1 0x1F NOT PUSH1 0x1F DUP3 ADD AND DUP3 ADD DUP1 PUSH1 0x40 MSTORE POP DUP2 ADD SWAP1 PUSH2 0x642 SWAP2 SWAP1 PUSH2 0x14A8 JUMP JUMPDEST PUSH2 0x681 JUMPI PUSH1 0x40 MLOAD PUSH32 0x8C379A000000000000000000000000000000000000000000000000000000000 DUP2 MSTORE PUSH1 0x4 ADD PUSH2 0x678 SWAP1 PUSH2 0x1655 JUMP JUMPDEST PUSH1 0x40 MLOAD DUP1 SWAP2 SUB SWAP1 REVERT JUMPDEST DUP1 PUSH0 ADD PUSH0 SWAP1 SLOAD SWAP1 PUSH2 0x100 EXP SWAP1 DIV PUSH20 0xFFFFFFFFFFFFFFFFFFFFFFFFFFFFFFFFFFFFFFFF AND PUSH20 0xFFFFFFFFFFFFFFFFFFFFFFFFFFFFFFFFFFFFFFFF AND PUSH2 0x8FC CALLVALUE SWAP1 DUP2 ISZERO MUL SWAP1 PUSH1 0x40 MLOAD PUSH0 PUSH1 0x40 MLOAD DUP1 DUP4 SUB DUP2 DUP6 DUP9 DUP9 CALL SWAP4 POP POP POP POP ISZERO DUP1 ISZERO PUSH2 0x6E6 JUMPI RETURNDATASIZE PUSH0 PUSH0 RETURNDATACOPY RETURNDATASIZE PUSH0 REVERT JUMPDEST POP PUSH0 DUP2 PUSH1 0x3 ADD PUSH1 0x1 PUSH2 0x100 EXP DUP2 SLOAD DUP2 PUSH1 0xFF MUL NOT AND SWAP1 DUP4 ISZERO ISZERO MUL OR SWAP1 SSTORE POP CALLER PUSH20 0xFFFFFFFFFFFFFFFFFFFFFFFFFFFFFFFFFFFFFFFF AND DUP3 PUSH32 0xF25A05118E210CE1060E78F9EF6383D8CB0E4408114AA3A5EDED9791A053A049 PUSH1 0x40 MLOAD PUSH1 0x40 MLOAD DUP1 SWAP2 SUB SWAP1 LOG3 POP POP JUMP JUMPDEST PUSH0 PUSH1 0x1 DUP3 DUP2 SLOAD DUP2 LT PUSH2 0x760 JUMPI PUSH2 0x75F PUSH2 0x12DC JUMP JUMPDEST JUMPDEST SWAP1 PUSH0 MSTORE PUSH1 0x20 PUSH0 KECCAK256 SWAP1 PUSH1 0x4 MUL ADD SWAP1 POP DUP1 PUSH1 0x3 ADD PUSH1 0x1 SWAP1 SLOAD SWAP1 PUSH2 0x100 EXP SWAP1 DIV PUSH1 0xFF AND DUP1 ISZERO PUSH2 0x7BF JUMPI POP PUSH0 PUSH1 0x1 DUP2 GT ISZERO PUSH2 0x79A JUMPI PUSH2 0x799 PUSH2 0x10CF JUMP JUMPDEST JUMPDEST DUP2 PUSH1 0x3 ADD PUSH0 SWAP1 SLOAD SWAP1 PUSH2 0x100 EXP SWAP1 DIV PUSH1 0xFF AND PUSH1 0x1 DUP2 GT ISZERO PUSH2 0x7BD JUMPI PUSH2 0x7BC PUSH2 0x10CF JUMP JUMPDEST JUMPDEST EQ JUMPDEST PUSH2 0x7FE JUMPI PUSH1 0x40 MLOAD PUSH32 0x8C379A000000000000000000000000000000000000000000000000000000000 DUP2 MSTORE PUSH1 0x4 ADD PUSH2 0x7F5 SWAP1 PUSH2 0x16BD JUMP JUMPDEST PUSH1 0x40 MLOAD DUP1 SWAP2 SUB SWAP1 REVERT JUMPDEST PUSH0 PUSH0 SWAP1 SLOAD SWAP1 PUSH2 0x100 EXP SWAP1 DIV PUSH20 0xFFFFFFFFFFFFFFFFFFFFFFFFFFFFFFFFFFFFFFFF AND PUSH20 0xFFFFFFFFFFFFFFFFFFFFFFFFFFFFFFFFFFFFFFFF AND PUSH4 0x23B872DD CALLER DUP4 PUSH0 ADD PUSH0 SWAP1 SLOAD SWAP1 PUSH2 0x100 EXP SWAP1 DIV PUSH20 0xFFFFFFFFFFFFFFFFFFFFFFFFFFFFFFFFFFFFFFFF AND DUP5 PUSH1 0x1 ADD SLOAD PUSH1 0x40 MLOAD DUP5 PUSH4 0xFFFFFFFF AND PUSH1 0xE0 SHL DUP2 MSTORE PUSH1 0x4 ADD PUSH2 0x881 SWAP4 SWAP3 SWAP2 SWAP1 PUSH2 0x16DB JUMP JUMPDEST PUSH1 0x20 PUSH1 0x40 MLOAD DUP1 DUP4 SUB DUP2 PUSH0 DUP8 GAS CALL ISZERO DUP1 ISZERO PUSH2 0x89D JUMPI RETURNDATASIZE PUSH0 PUSH0 RETURNDATACOPY RETURNDATASIZE PUSH0 REVERT JUMPDEST POP POP POP POP PUSH1 0x40 MLOAD RETURNDATASIZE PUSH1 0x1F NOT PUSH1 0x1F DUP3 ADD AND DUP3 ADD DUP1 PUSH1 0x40 MSTORE POP DUP2 ADD SWAP1 PUSH2 0x8C1 SWAP2 SWAP1 PUSH2 0x14A8 JUMP JUMPDEST PUSH2 0x900 JUMPI PUSH1 0x40 MLOAD PUSH32 0x8C379A000000000000000000000000000000000000000000000000000000000 DUP2 MSTORE PUSH1 0x4 ADD PUSH2 0x8F7 SWAP1 PUSH2 0x1655 JUMP JUMPDEST PUSH1 0x40 MLOAD DUP1 SWAP2 SUB SWAP1 REVERT JUMPDEST CALLER PUSH20 0xFFFFFFFFFFFFFFFFFFFFFFFFFFFFFFFFFFFFFFFF AND PUSH2 0x8FC DUP3 PUSH1 0x2 ADD SLOAD DUP4 PUSH1 0x1 ADD SLOAD PUSH2 0x92E SWAP2 SWAP1 PUSH2 0x1416 JUMP JUMPDEST SWAP1 DUP2 ISZERO MUL SWAP1 PUSH1 0x40 MLOAD PUSH0 PUSH1 0x40 MLOAD DUP1 DUP4 SUB DUP2 DUP6 DUP9 DUP9 CALL SWAP4 POP POP POP POP ISZERO DUP1 ISZERO PUSH2 0x956 JUMPI RETURNDATASIZE PUSH0 PUSH0 RETURNDATACOPY RETURNDATASIZE PUSH0 REVERT JUMPDEST POP PUSH0 DUP2 PUSH1 0x3 ADD PUSH1 0x1 PUSH2 0x100 EXP DUP2 SLOAD DUP2 PUSH1 0xFF MUL NOT AND SWAP1 DUP4 ISZERO ISZERO MUL OR SWAP1 SSTORE POP CALLER PUSH20 0xFFFFFFFFFFFFFFFFFFFFFFFFFFFFFFFFFFFFFFFF AND DUP3 PUSH32 0xF25A05118E210CE1060E78F9EF6383D8CB0E4408114AA3A5EDED9791A053A049 PUSH1 0x40 MLOAD PUSH1 0x40 MLOAD DUP1 SWAP2 SUB SWAP1 LOG3 POP POP JUMP JUMPDEST PUSH0 PUSH0 SWAP1 SLOAD SWAP1 PUSH2 0x100 EXP SWAP1 DIV PUSH20 0xFFFFFFFFFFFFFFFFFFFFFFFFFFFFFFFFFFFFFFFF AND PUSH20 0xFFFFFFFFFFFFFFFFFFFFFFFFFFFFFFFFFFFFFFFF AND PUSH4 0x23B872DD CALLER ADDRESS DUP6 PUSH1 0x40 MLOAD DUP5 PUSH4 0xFFFFFFFF AND PUSH1 0xE0 SHL DUP2 MSTORE PUSH1 0x4 ADD PUSH2 0xA18 SWAP4 SWAP3 SWAP2 SWAP1 PUSH2 0x16DB JUMP JUMPDEST PUSH1 0x20 PUSH1 0x40 MLOAD DUP1 DUP4 SUB DUP2 PUSH0 DUP8 GAS CALL ISZERO DUP1 ISZERO PUSH2 0xA34 JUMPI RETURNDATASIZE PUSH0 PUSH0 RETURNDATACOPY RETURNDATASIZE PUSH0 REVERT JUMPDEST POP POP POP POP PUSH1 0x40 MLOAD RETURNDATASIZE PUSH1 0x1F NOT PUSH1 0x1F DUP3 ADD AND DUP3 ADD DUP1 PUSH1 0x40 MSTORE POP DUP2 ADD SWAP1 PUSH2 0xA58 SWAP2 SWAP1 PUSH2 0x14A8 JUMP JUMPDEST PUSH2 0xA97 JUMPI PUSH1 0x40 MLOAD PUSH32 0x8C379A000000000000000000000000000000000000000000000000000000000 DUP2 MSTORE PUSH1 0x4 ADD PUSH2 0xA8E SWAP1 PUSH2 0x1655 JUMP JUMPDEST PUSH1 0x40 MLOAD DUP1 SWAP2 SUB SWAP1 REVERT JUMPDEST PUSH1 0x1 PUSH1 0x40 MLOAD DUP1 PUSH1 0xA0 ADD PUSH1 0x40 MSTORE DUP1 CALLER PUSH20 0xFFFFFFFFFFFFFFFFFFFFFFFFFFFFFFFFFFFFFFFF AND DUP2 MSTORE PUSH1 0x20 ADD DUP5 DUP2 MSTORE PUSH1 0x20 ADD DUP4 DUP2 MSTORE PUSH1 0x20 ADD PUSH1 0x1 DUP1 DUP2 GT ISZERO PUSH2 0xADF JUMPI PUSH2 0xADE PUSH2 0x10CF JUMP JUMPDEST JUMPDEST DUP2 MSTORE PUSH1 0x20 ADD PUSH1 0x1 ISZERO ISZERO DUP2 MSTORE POP SWAP1 DUP1 PUSH1 0x1 DUP2 SLOAD ADD DUP1 DUP3 SSTORE DUP1 SWAP2 POP POP PUSH1 0x1 SWAP1 SUB SWAP1 PUSH0 MSTORE PUSH1 0x20 PUSH0 KECCAK256 SWAP1 PUSH1 0x4 MUL ADD PUSH0 SWAP1 SWAP2 SWAP1 SWAP2 SWAP1 SWAP2 POP PUSH0 DUP3 ADD MLOAD DUP2 PUSH0 ADD PUSH0 PUSH2 0x100 EXP DUP2 SLOAD DUP2 PUSH20 0xFFFFFFFFFFFFFFFFFFFFFFFFFFFFFFFFFFFFFFFF MUL NOT AND SWAP1 DUP4 PUSH20 0xFFFFFFFFFFFFFFFFFFFFFFFFFFFFFFFFFFFFFFFF AND MUL OR SWAP1 SSTORE POP PUSH1 0x20 DUP3 ADD MLOAD DUP2 PUSH1 0x1 ADD SSTORE PUSH1 0x40 DUP3 ADD MLOAD DUP2 PUSH1 0x2 ADD SSTORE PUSH1 0x60 DUP3 ADD MLOAD DUP2 PUSH1 0x3 ADD PUSH0 PUSH2 0x100 EXP DUP2 SLOAD DUP2 PUSH1 0xFF MUL NOT AND SWAP1 DUP4 PUSH1 0x1 DUP2 GT ISZERO PUSH2 0xB93 JUMPI PUSH2 0xB92 PUSH2 0x10CF JUMP JUMPDEST JUMPDEST MUL OR SWAP1 SSTORE POP PUSH1 0x80 DUP3 ADD MLOAD DUP2 PUSH1 0x3 ADD PUSH1 0x1 PUSH2 0x100 EXP DUP2 SLOAD DUP2 PUSH1 0xFF MUL NOT AND SWAP1 DUP4 ISZERO ISZERO MUL OR SWAP1 SSTORE POP POP POP CALLER PUSH20 0xFFFFFFFFFFFFFFFFFFFFFFFFFFFFFFFFFFFFFFFF AND PUSH1 0x1 DUP1 DUP1 SLOAD SWAP1 POP PUSH2 0xBE2 SWAP2 SWAP1 PUSH2 0x1710 JUMP JUMPDEST PUSH32 0x28EE76B520925C614B94784E5BD4B8D8AD21FD9930AEA487E678E1E5A5F40513 PUSH1 0x1 DUP6 DUP6 PUSH1 0x40 MLOAD PUSH2 0xC16 SWAP4 SWAP3 SWAP2 SWAP1 PUSH2 0x1743 JUMP JUMPDEST PUSH1 0x40 MLOAD DUP1 SWAP2 SUB SWAP1 LOG3 POP POP JUMP JUMPDEST PUSH1 0x1 DUP2 DUP2 SLOAD DUP2 LT PUSH2 0xC31 JUMPI PUSH0 DUP1 REVERT JUMPDEST SWAP1 PUSH0 MSTORE PUSH1 0x20 PUSH0 KECCAK256 SWAP1 PUSH1 0x4 MUL ADD PUSH0 SWAP2 POP SWAP1 POP DUP1 PUSH0 ADD PUSH0 SWAP1 SLOAD SWAP1 PUSH2 0x100 EXP SWAP1 DIV PUSH20 0xFFFFFFFFFFFFFFFFFFFFFFFFFFFFFFFFFFFFFFFF AND SWAP1 DUP1 PUSH1 0x1 ADD SLOAD SWAP1 DUP1 PUSH1 0x2 ADD SLOAD SWAP1 DUP1 PUSH1 0x3 ADD PUSH0 SWAP1 SLOAD SWAP1 PUSH2 0x100 EXP SWAP1 DIV PUSH1 0xFF AND SWAP1 DUP1 PUSH1 0x3 ADD PUSH1 0x1 SWAP1 SLOAD SWAP1 PUSH2 0x100 EXP SWAP1 DIV PUSH1 0xFF AND SWAP1 POP DUP6 JUMP JUMPDEST PUSH2 0xCA3 PUSH2 0xF8D JUMP JUMPDEST PUSH1 0x1 DUP3 DUP2 SLOAD DUP2 LT PUSH2 0xCB7 JUMPI PUSH2 0xCB6 PUSH2 0x12DC JUMP JUMPDEST JUMPDEST SWAP1 PUSH0 MSTORE PUSH1 0x20 PUSH0 KECCAK256 SWAP1 PUSH1 0x4 MUL ADD PUSH1 0x40 MLOAD DUP1 PUSH1 0xA0 ADD PUSH1 0x40 MSTORE SWAP1 DUP2 PUSH0 DUP3 ADD PUSH0 SWAP1 SLOAD SWAP1 PUSH2 0x100 EXP SWAP1 DIV PUSH20 0xFFFFFFFFFFFFFFFFFFFFFFFFFFFFFFFFFFFFFFFF AND PUSH20 0xFFFFFFFFFFFFFFFFFFFFFFFFFFFFFFFFFFFFFFFF AND PUSH20 0xFFFFFFFFFFFFFFFFFFFFFFFFFFFFFFFFFFFFFFFF AND DUP2 MSTORE PUSH1 0x20 ADD PUSH1 0x1 DUP3 ADD SLOAD DUP2 MSTORE PUSH1 0x20 ADD PUSH1 0x2 DUP3 ADD SLOAD DUP2 MSTORE PUSH1 0x20 ADD PUSH1 0x3 DUP3 ADD PUSH0 SWAP1 SLOAD SWAP1 PUSH2 0x100 EXP SWAP1 DIV PUSH1 0xFF AND PUSH1 0x1 DUP2 GT ISZERO PUSH2 0xD5A JUMPI PUSH2 0xD59 PUSH2 0x10CF JUMP JUMPDEST JUMPDEST PUSH1 0x1 DUP2 GT ISZERO PUSH2 0xD6C JUMPI PUSH2 0xD6B PUSH2 0x10CF JUMP JUMPDEST JUMPDEST DUP2 MSTORE PUSH1 0x20 ADD PUSH1 0x3 DUP3 ADD PUSH1 0x1 SWAP1 SLOAD SWAP1 PUSH2 0x100 EXP SWAP1 DIV PUSH1 0xFF AND ISZERO ISZERO ISZERO ISZERO DUP2 MSTORE POP POP SWAP1 POP SWAP2 SWAP1 POP JUMP JUMPDEST DUP1 DUP3 PUSH2 0xD9E SWAP2 SWAP1 PUSH2 0x1416 JUMP JUMPDEST CALLVALUE EQ PUSH2 0xDDF JUMPI PUSH1 0x40 MLOAD PUSH32 0x8C379A000000000000000000000000000000000000000000000000000000000 DUP2 MSTORE PUSH1 0x4 ADD PUSH2 0xDD6 SWAP1 PUSH2 0x15ED JUMP JUMPDEST PUSH1 0x40 MLOAD DUP1 SWAP2 SUB SWAP1 REVERT JUMPDEST PUSH1 0x1 PUSH1 0x40 MLOAD DUP1 PUSH1 0xA0 ADD PUSH1 0x40 MSTORE DUP1 CALLER PUSH20 0xFFFFFFFFFFFFFFFFFFFFFFFFFFFFFFFFFFFFFFFF AND DUP2 MSTORE PUSH1 0x20 ADD DUP5 DUP2 MSTORE PUSH1 0x20 ADD DUP4 DUP2 MSTORE PUSH1 0x20 ADD PUSH0 PUSH1 0x1 DUP2 GT ISZERO PUSH2 0xE27 JUMPI PUSH2 0xE26 PUSH2 0x10CF JUMP JUMPDEST JUMPDEST DUP2 MSTORE PUSH1 0x20 ADD PUSH1 0x1 ISZERO ISZERO DUP2 MSTORE POP SWAP1 DUP1 PUSH1 0x1 DUP2 SLOAD ADD DUP1 DUP3 SSTORE DUP1 SWAP2 POP POP PUSH1 0x1 SWAP1 SUB SWAP1 PUSH0 MSTORE PUSH1 0x20 PUSH0 KECCAK256 SWAP1 PUSH1 0x4 MUL ADD PUSH0 SWAP1 SWAP2 SWAP1 SWAP2 SWAP1 SWAP2 POP PUSH0 DUP3 ADD MLOAD DUP2 PUSH0 ADD PUSH0 PUSH2 0x100 EXP DUP2 SLOAD DUP2 PUSH20 0xFFFFFFFFFFFFFFFFFFFFFFFFFFFFFFFFFFFFFFFF MUL NOT AND SWAP1 DUP4 PUSH20 0xFFFFFFFFFFFFFFFFFFFFFFFFFFFFFFFFFFFFFFFF AND MUL OR SWAP1 SSTORE POP PUSH1 0x20 DUP3 ADD MLOAD DUP2 PUSH1 0x1 ADD SSTORE PUSH1 0x40 DUP3 ADD MLOAD DUP2 PUSH1 0x2 ADD SSTORE PUSH1 0x60 DUP3 ADD MLOAD DUP2 PUSH1 0x3 ADD PUSH0 PUSH2 0x100 EXP DUP2 SLOAD DUP2 PUSH1 0xFF MUL NOT AND SWAP1 DUP4 PUSH1 0x1 DUP2 GT ISZERO PUSH2 0xEDB JUMPI PUSH2 0xEDA PUSH2 0x10CF JUMP JUMPDEST JUMPDEST MUL OR SWAP1 SSTORE POP PUSH1 0x80 DUP3 ADD MLOAD DUP2 PUSH1 0x3 ADD PUSH1 0x1 PUSH2 0x100 EXP DUP2 SLOAD DUP2 PUSH1 0xFF MUL NOT AND SWAP1 DUP4 ISZERO ISZERO MUL OR SWAP1 SSTORE POP POP POP CALLER PUSH20 0xFFFFFFFFFFFFFFFFFFFFFFFFFFFFFFFFFFFFFFFF AND PUSH1 0x1 DUP1 DUP1 SLOAD SWAP1 POP PUSH2 0xF2A SWAP2 SWAP1 PUSH2 0x1710 JUMP JUMPDEST PUSH32 0x28EE76B520925C614B94784E5BD4B8D8AD21FD9930AEA487E678E1E5A5F40513 PUSH0 DUP6 DUP6 PUSH1 0x40 MLOAD PUSH2 0xF5D SWAP4 SWAP3 SWAP2 SWAP1 PUSH2 0x1743 JUMP JUMPDEST PUSH1 0x40 MLOAD DUP1 SWAP2 SUB SWAP1 LOG3 POP POP JUMP JUMPDEST PUSH0 PUSH0 SWAP1 SLOAD SWAP1 PUSH2 0x100 EXP SWAP1 DIV PUSH20 0xFFFFFFFFFFFFFFFFFFFFFFFFFFFFFFFFFFFFFFFF AND DUP2 JUMP JUMPDEST PUSH1 0x40 MLOAD DUP1 PUSH1 0xA0 ADD PUSH1 0x40 MSTORE DUP1 PUSH0 PUSH20 0xFFFFFFFFFFFFFFFFFFFFFFFFFFFFFFFFFFFFFFFF AND DUP2 MSTORE PUSH1 0x20 ADD PUSH0 DUP2 MSTORE PUSH1 0x20 ADD PUSH0 DUP2 MSTORE PUSH1 0x20 ADD PUSH0 PUSH1 0x1 DUP2 GT ISZERO PUSH2 0xFD3 JUMPI PUSH2 0xFD2 PUSH2 0x10CF JUMP JUMPDEST JUMPDEST DUP2 MSTORE PUSH1 0x20 ADD PUSH0 ISZERO ISZERO DUP2 MSTORE POP SWAP1 JUMP JUMPDEST PUSH0 PUSH0 REVERT JUMPDEST PUSH0 DUP2 SWAP1 POP SWAP2 SWAP1 POP JUMP JUMPDEST PUSH2 0xFF7 DUP2 PUSH2 0xFE5 JUMP JUMPDEST DUP2 EQ PUSH2 0x1001 JUMPI PUSH0 PUSH0 REVERT JUMPDEST POP JUMP JUMPDEST PUSH0 DUP2 CALLDATALOAD SWAP1 POP PUSH2 0x1012 DUP2 PUSH2 0xFEE JUMP JUMPDEST SWAP3 SWAP2 POP POP JUMP JUMPDEST PUSH0 PUSH1 0x20 DUP3 DUP5 SUB SLT ISZERO PUSH2 0x102D JUMPI PUSH2 0x102C PUSH2 0xFE1 JUMP JUMPDEST JUMPDEST PUSH0 PUSH2 0x103A DUP5 DUP3 DUP6 ADD PUSH2 0x1004 JUMP JUMPDEST SWAP2 POP POP SWAP3 SWAP2 POP POP JUMP JUMPDEST PUSH0 PUSH0 PUSH1 0x40 DUP4 DUP6 SUB SLT ISZERO PUSH2 0x1059 JUMPI PUSH2 0x1058 PUSH2 0xFE1 JUMP JUMPDEST JUMPDEST PUSH0 PUSH2 0x1066 DUP6 DUP3 DUP7 ADD PUSH2 0x1004 JUMP JUMPDEST SWAP3 POP POP PUSH1 0x20 PUSH2 0x1077 DUP6 DUP3 DUP7 ADD PUSH2 0x1004 JUMP JUMPDEST SWAP2 POP POP SWAP3 POP SWAP3 SWAP1 POP JUMP JUMPDEST PUSH0 PUSH20 0xFFFFFFFFFFFFFFFFFFFFFFFFFFFFFFFFFFFFFFFF DUP3 AND SWAP1 POP SWAP2 SWAP1 POP JUMP JUMPDEST PUSH0 PUSH2 0x10AA DUP3 PUSH2 0x1081 JUMP JUMPDEST SWAP1 POP SWAP2 SWAP1 POP JUMP JUMPDEST PUSH2 0x10BA DUP2 PUSH2 0x10A0 JUMP JUMPDEST DUP3 MSTORE POP POP JUMP JUMPDEST PUSH2 0x10C9 DUP2 PUSH2 0xFE5 JUMP JUMPDEST DUP3 MSTORE POP POP JUMP JUMPDEST PUSH32 0x4E487B7100000000000000000000000000000000000000000000000000000000 PUSH0 MSTORE PUSH1 0x21 PUSH1 0x4 MSTORE PUSH1 0x24 PUSH0 REVERT JUMPDEST PUSH1 0x2 DUP2 LT PUSH2 0x110D JUMPI PUSH2 0x110C PUSH2 0x10CF JUMP JUMPDEST JUMPDEST POP JUMP JUMPDEST PUSH0 DUP2 SWAP1 POP PUSH2 0x111D DUP3 PUSH2 0x10FC JUMP JUMPDEST SWAP2 SWAP1 POP JUMP JUMPDEST PUSH0 PUSH2 0x112C DUP3 PUSH2 0x1110 JUMP JUMPDEST SWAP1 POP SWAP2 SWAP1 POP JUMP JUMPDEST PUSH2 0x113C DUP2 PUSH2 0x1122 JUMP JUMPDEST DUP3 MSTORE POP POP JUMP JUMPDEST PUSH0 DUP2 ISZERO ISZERO SWAP1 POP SWAP2 SWAP1 POP JUMP JUMPDEST PUSH2 0x1156 DUP2 PUSH2 0x1142 JUMP JUMPDEST DUP3 MSTORE POP POP JUMP JUMPDEST PUSH0 PUSH1 0xA0 DUP3 ADD SWAP1 POP PUSH2 0x116F PUSH0 DUP4 ADD DUP9 PUSH2 0x10B1 JUMP JUMPDEST PUSH2 0x117C PUSH1 0x20 DUP4 ADD DUP8 PUSH2 0x10C0 JUMP JUMPDEST PUSH2 0x1189 PUSH1 0x40 DUP4 ADD DUP7 PUSH2 0x10C0 JUMP JUMPDEST PUSH2 0x1196 PUSH1 0x60 DUP4 ADD DUP6 PUSH2 0x1133 JUMP JUMPDEST PUSH2 0x11A3 PUSH1 0x80 DUP4 ADD DUP5 PUSH2 0x114D JUMP JUMPDEST SWAP7 SWAP6 POP POP POP POP POP POP JUMP JUMPDEST PUSH2 0x11B6 DUP2 PUSH2 0x10A0 JUMP JUMPDEST DUP3 MSTORE POP POP JUMP JUMPDEST PUSH2 0x11C5 DUP2 PUSH2 0xFE5 JUMP JUMPDEST DUP3 MSTORE POP POP JUMP JUMPDEST PUSH2 0x11D4 DUP2 PUSH2 0x1122 JUMP JUMPDEST DUP3 MSTORE POP POP JUMP JUMPDEST PUSH2 0x11E3 DUP2 PUSH2 0x1142 JUMP JUMPDEST DUP3 MSTORE POP POP JUMP JUMPDEST PUSH1 0xA0 DUP3 ADD PUSH0 DUP3 ADD MLOAD PUSH2 0x11FD PUSH0 DUP6 ADD DUP3 PUSH2 0x11AD JUMP JUMPDEST POP PUSH1 0x20 DUP3 ADD MLOAD PUSH2 0x1210 PUSH1 0x20 DUP6 ADD DUP3 PUSH2 0x11BC JUMP JUMPDEST POP PUSH1 0x40 DUP3 ADD MLOAD PUSH2 0x1223 PUSH1 0x40 DUP6 ADD DUP3 PUSH2 0x11BC JUMP JUMPDEST POP PUSH1 0x60 DUP3 ADD MLOAD PUSH2 0x1236 PUSH1 0x60 DUP6 ADD DUP3 PUSH2 0x11CB JUMP JUMPDEST POP PUSH1 0x80 DUP3 ADD MLOAD PUSH2 0x1249 PUSH1 0x80 DUP6 ADD DUP3 PUSH2 0x11DA JUMP JUMPDEST POP POP POP POP JUMP JUMPDEST PUSH0 PUSH1 0xA0 DUP3 ADD SWAP1 POP PUSH2 0x1262 PUSH0 DUP4 ADD DUP5 PUSH2 0x11E9 JUMP JUMPDEST SWAP3 SWAP2 POP POP JUMP JUMPDEST PUSH0 DUP2 SWAP1 POP SWAP2 SWAP1 POP JUMP JUMPDEST PUSH0 PUSH2 0x128B PUSH2 0x1286 PUSH2 0x1281 DUP5 PUSH2 0x1081 JUMP JUMPDEST PUSH2 0x1268 JUMP JUMPDEST PUSH2 0x1081 JUMP JUMPDEST SWAP1 POP SWAP2 SWAP1 POP JUMP JUMPDEST PUSH0 PUSH2 0x129C DUP3 PUSH2 0x1271 JUMP JUMPDEST SWAP1 POP SWAP2 SWAP1 POP JUMP JUMPDEST PUSH0 PUSH2 0x12AD DUP3 PUSH2 0x1292 JUMP JUMPDEST SWAP1 POP SWAP2 SWAP1 POP JUMP JUMPDEST PUSH2 0x12BD DUP2 PUSH2 0x12A3 JUMP JUMPDEST DUP3 MSTORE POP POP JUMP JUMPDEST PUSH0 PUSH1 0x20 DUP3 ADD SWAP1 POP PUSH2 0x12D6 PUSH0 DUP4 ADD DUP5 PUSH2 0x12B4 JUMP JUMPDEST SWAP3 SWAP2 POP POP JUMP JUMPDEST PUSH32 0x4E487B7100000000000000000000000000000000000000000000000000000000 PUSH0 MSTORE PUSH1 0x32 PUSH1 0x4 MSTORE PUSH1 0x24 PUSH0 REVERT JUMPDEST PUSH0 DUP3 DUP3 MSTORE PUSH1 0x20 DUP3 ADD SWAP1 POP SWAP3 SWAP2 POP POP JUMP JUMPDEST PUSH32 0x4F72646572206E6F742061637469766500000000000000000000000000000000 PUSH0 DUP3 ADD MSTORE POP JUMP JUMPDEST PUSH0 PUSH2 0x134D PUSH1 0x10 DUP4 PUSH2 0x1309 JUMP JUMPDEST SWAP2 POP PUSH2 0x1358 DUP3 PUSH2 0x1319 JUMP JUMPDEST PUSH1 0x20 DUP3 ADD SWAP1 POP SWAP2 SWAP1 POP JUMP JUMPDEST PUSH0 PUSH1 0x20 DUP3 ADD SWAP1 POP DUP2 DUP2 SUB PUSH0 DUP4 ADD MSTORE PUSH2 0x137A DUP2 PUSH2 0x1341 JUMP JUMPDEST SWAP1 POP SWAP2 SWAP1 POP JUMP JUMPDEST PUSH32 0x4E6F7420796F7572206F72646572000000000000000000000000000000000000 PUSH0 DUP3 ADD MSTORE POP JUMP JUMPDEST PUSH0 PUSH2 0x13B5 PUSH1 0xE DUP4 PUSH2 0x1309 JUMP JUMPDEST SWAP2 POP PUSH2 0x13C0 DUP3 PUSH2 0x1381 JUMP JUMPDEST PUSH1 0x20 DUP3 ADD SWAP1 POP SWAP2 SWAP1 POP JUMP JUMPDEST PUSH0 PUSH1 0x20 DUP3 ADD SWAP1 POP DUP2 DUP2 SUB PUSH0 DUP4 ADD MSTORE PUSH2 0x13E2 DUP2 PUSH2 0x13A9 JUMP JUMPDEST SWAP1 POP SWAP2 SWAP1 POP JUMP JUMPDEST PUSH32 0x4E487B7100000000000000000000000000000000000000000000000000000000 PUSH0 MSTORE PUSH1 0x11 PUSH1 0x4 MSTORE PUSH1 0x24 PUSH0 REVERT JUMPDEST PUSH0 PUSH2 0x1420 DUP3 PUSH2 0xFE5 JUMP JUMPDEST SWAP2 POP PUSH2 0x142B DUP4 PUSH2 0xFE5 JUMP JUMPDEST SWAP3 POP DUP3 DUP3 MUL PUSH2 0x1439 DUP2 PUSH2 0xFE5 JUMP JUMPDEST SWAP2 POP DUP3 DUP3 DIV DUP5 EQ DUP4 ISZERO OR PUSH2 0x1450 JUMPI PUSH2 0x144F PUSH2 0x13E9 JUMP JUMPDEST JUMPDEST POP SWAP3 SWAP2 POP POP JUMP JUMPDEST PUSH0 PUSH1 0x40 DUP3 ADD SWAP1 POP PUSH2 0x146A PUSH0 DUP4 ADD DUP6 PUSH2 0x10B1 JUMP JUMPDEST PUSH2 0x1477 PUSH1 0x20 DUP4 ADD DUP5 PUSH2 0x10C0 JUMP JUMPDEST SWAP4 SWAP3 POP POP POP JUMP JUMPDEST PUSH2 0x1487 DUP2 PUSH2 0x1142 JUMP JUMPDEST DUP2 EQ PUSH2 0x1491 JUMPI PUSH0 PUSH0 REVERT JUMPDEST POP JUMP JUMPDEST PUSH0 DUP2 MLOAD SWAP1 POP PUSH2 0x14A2 DUP2 PUSH2 0x147E JUMP JUMPDEST SWAP3 SWAP2 POP POP JUMP JUMPDEST PUSH0 PUSH1 0x20 DUP3 DUP5 SUB SLT ISZERO PUSH2 0x14BD JUMPI PUSH2 0x14BC PUSH2 0xFE1 JUMP JUMPDEST JUMPDEST PUSH0 PUSH2 0x14CA DUP5 DUP3 DUP6 ADD PUSH2 0x1494 JUMP JUMPDEST SWAP2 POP POP SWAP3 SWAP2 POP POP JUMP JUMPDEST PUSH32 0x546F6B656E20726566756E64206661696C656400000000000000000000000000 PUSH0 DUP3 ADD MSTORE POP JUMP JUMPDEST PUSH0 PUSH2 0x1507 PUSH1 0x13 DUP4 PUSH2 0x1309 JUMP JUMPDEST SWAP2 POP PUSH2 0x1512 DUP3 PUSH2 0x14D3 JUMP JUMPDEST PUSH1 0x20 DUP3 ADD SWAP1 POP SWAP2 SWAP1 POP JUMP JUMPDEST PUSH0 PUSH1 0x20 DUP3 ADD SWAP1 POP DUP2 DUP2 SUB PUSH0 DUP4 ADD MSTORE PUSH2 0x1534 DUP2 PUSH2 0x14FB JUMP JUMPDEST SWAP1 POP SWAP2 SWAP1 POP JUMP JUMPDEST PUSH32 0x496E76616C69642073656C6C206F726465720000000000000000000000000000 PUSH0 DUP3 ADD MSTORE POP JUMP JUMPDEST PUSH0 PUSH2 0x156F PUSH1 0x12 DUP4 PUSH2 0x1309 JUMP JUMPDEST SWAP2 POP PUSH2 0x157A DUP3 PUSH2 0x153B JUMP JUMPDEST PUSH1 0x20 DUP3 ADD SWAP1 POP SWAP2 SWAP1 POP JUMP JUMPDEST PUSH0 PUSH1 0x20 DUP3 ADD SWAP1 POP DUP2 DUP2 SUB PUSH0 DUP4 ADD MSTORE PUSH2 0x159C DUP2 PUSH2 0x1563 JUMP JUMPDEST SWAP1 POP SWAP2 SWAP1 POP JUMP JUMPDEST PUSH32 0x496E636F7272656374204554482073656E740000000000000000000000000000 PUSH0 DUP3 ADD MSTORE POP JUMP JUMPDEST PUSH0 PUSH2 0x15D7 PUSH1 0x12 DUP4 PUSH2 0x1309 JUMP JUMPDEST SWAP2 POP PUSH2 0x15E2 DUP3 PUSH2 0x15A3 JUMP JUMPDEST PUSH1 0x20 DUP3 ADD SWAP1 POP SWAP2 SWAP1 POP JUMP JUMPDEST PUSH0 PUSH1 0x20 DUP3 ADD SWAP1 POP DUP2 DUP2 SUB PUSH0 DUP4 ADD MSTORE PUSH2 0x1604 DUP2 PUSH2 0x15CB JUMP JUMPDEST SWAP1 POP SWAP2 SWAP1 POP JUMP JUMPDEST PUSH32 0x546F6B656E207472616E73666572206661696C65640000000000000000000000 PUSH0 DUP3 ADD MSTORE POP JUMP JUMPDEST PUSH0 PUSH2 0x163F PUSH1 0x15 DUP4 PUSH2 0x1309 JUMP JUMPDEST SWAP2 POP PUSH2 0x164A DUP3 PUSH2 0x160B JUMP JUMPDEST PUSH1 0x20 DUP3 ADD SWAP1 POP SWAP2 SWAP1 POP JUMP JUMPDEST PUSH0 PUSH1 0x20 DUP3 ADD SWAP1 POP DUP2 DUP2 SUB PUSH0 DUP4 ADD MSTORE PUSH2 0x166C DUP2 PUSH2 0x1633 JUMP JUMPDEST SWAP1 POP SWAP2 SWAP1 POP JUMP JUMPDEST PUSH32 0x496E76616C696420627579206F72646572000000000000000000000000000000 PUSH0 DUP3 ADD MSTORE POP JUMP JUMPDEST PUSH0 PUSH2 0x16A7 PUSH1 0x11 DUP4 PUSH2 0x1309 JUMP JUMPDEST SWAP2 POP PUSH2 0x16B2 DUP3 PUSH2 0x1673 JUMP JUMPDEST PUSH1 0x20 DUP3 ADD SWAP1 POP SWAP2 SWAP1 POP JUMP JUMPDEST PUSH0 PUSH1 0x20 DUP3 ADD SWAP1 POP DUP2 DUP2 SUB PUSH0 DUP4 ADD MSTORE PUSH2 0x16D4 DUP2 PUSH2 0x169B JUMP JUMPDEST SWAP1 POP SWAP2 SWAP1 POP JUMP JUMPDEST PUSH0 PUSH1 0x60 DUP3 ADD SWAP1 POP PUSH2 0x16EE PUSH0 DUP4 ADD DUP7 PUSH2 0x10B1 JUMP JUMPDEST PUSH2 0x16FB PUSH1 0x20 DUP4 ADD DUP6 PUSH2 0x10B1 JUMP JUMPDEST PUSH2 0x1708 PUSH1 0x40 DUP4 ADD DUP5 PUSH2 0x10C0 JUMP JUMPDEST SWAP5 SWAP4 POP POP POP POP JUMP JUMPDEST PUSH0 PUSH2 0x171A DUP3 PUSH2 0xFE5 JUMP JUMPDEST SWAP2 POP PUSH2 0x1725 DUP4 PUSH2 0xFE5 JUMP JUMPDEST SWAP3 POP DUP3 DUP3 SUB SWAP1 POP DUP2 DUP2 GT ISZERO PUSH2 0x173D JUMPI PUSH2 0x173C PUSH2 0x13E9 JUMP JUMPDEST JUMPDEST SWAP3 SWAP2 POP POP JUMP JUMPDEST PUSH0 PUSH1 0x60 DUP3 ADD SWAP1 POP PUSH2 0x1756 PUSH0 DUP4 ADD DUP7 PUSH2 0x1133 JUMP JUMPDEST PUSH2 0x1763 PUSH1 0x20 DUP4 ADD DUP6 PUSH2 0x10C0 JUMP JUMPDEST PUSH2 0x1770 PUSH1 0x40 DUP4 ADD DUP5 PUSH2 0x10C0 JUMP JUMPDEST SWAP5 SWAP4 POP POP POP POP JUMP INVALID LOG2 PUSH5 0x6970667358 0x22 SLT KECCAK256 0x2B LOG2 0xC5 RETURN RJUMPI 0x6AA9 0xF6 EXTDELEGATECALL MSTORE8 REVERT PUSH5 0x5FB671E5C0 0x4B 0xF6 0xDA SWAPN 0x12 0xDD 0x24 0x22 PUSH4 0x5BBB397A STATICCALL PUSH1 0x64 PUSH20 0x6F6C634300081D00330000000000000000000000 "
				},
				"gasEstimates": {
					"creation": {
						"codeDepositCost": "1212400",
						"executionCost": "infinite",
						"totalCost": "infinite"
					},
					"external": {
						"cancelOrder(uint256)": "infinite",
						"getOrder(uint256)": "infinite",
						"matchBuy(uint256)": "infinite",
						"matchSell(uint256)": "infinite",
						"orders(uint256)": "infinite",
						"placeBuyOrder(uint256,uint256)": "infinite",
						"placeSellOrder(uint256,uint256)": "infinite",
						"token()": "infinite"
					}
				},
				"methodIdentifiers": {
					"cancelOrder(uint256)": "514fcac7",
					"getOrder(uint256)": "d09ef241",
					"matchBuy(uint256)": "9a7fe1e6",
					"matchSell(uint256)": "567e15a8",
					"orders(uint256)": "a85c38ef",
					"placeBuyOrder(uint256,uint256)": "ee36d4ab",
					"placeSellOrder(uint256,uint256)": "a4406bcd",
					"token()": "fc0c546a"
				}
			},
			"storageLayout": {
				"storage": [
					{
						"astId": 40,
						"contract": "L/limit order limit buy limit sell.sol:LimitOrderBook",
						"label": "token",
						"offset": 0,
						"slot": "0",
						"type": "t_contract(IERC20)22"
					},
					{
						"astId": 44,
						"contract": "L/limit order limit buy limit sell.sol:LimitOrderBook",
						"label": "orders",
						"offset": 0,
						"slot": "1",
						"type": "t_array(t_struct(Order)37_storage)dyn_storage"
					}
				],
				"types": {
					"t_address": {
						"encoding": "inplace",
						"label": "address",
						"numberOfBytes": "20"
					},
					"t_array(t_struct(Order)37_storage)dyn_storage": {
						"base": "t_struct(Order)37_storage",
						"encoding": "dynamic_array",
						"label": "struct LimitOrderBook.Order[]",
						"numberOfBytes": "32"
					},
					"t_bool": {
						"encoding": "inplace",
						"label": "bool",
						"numberOfBytes": "1"
					},
					"t_contract(IERC20)22": {
						"encoding": "inplace",
						"label": "contract IERC20",
						"numberOfBytes": "20"
					},
					"t_enum(OrderType)25": {
						"encoding": "inplace",
						"label": "enum LimitOrderBook.OrderType",
						"numberOfBytes": "1"
					},
					"t_struct(Order)37_storage": {
						"encoding": "inplace",
						"label": "struct LimitOrderBook.Order",
						"members": [
							{
								"astId": 27,
								"contract": "L/limit order limit buy limit sell.sol:LimitOrderBook",
								"label": "user",
								"offset": 0,
								"slot": "0",
								"type": "t_address"
							},
							{
								"astId": 29,
								"contract": "L/limit order limit buy limit sell.sol:LimitOrderBook",
								"label": "tokenAmount",
								"offset": 0,
								"slot": "1",
								"type": "t_uint256"
							},
							{
								"astId": 31,
								"contract": "L/limit order limit buy limit sell.sol:LimitOrderBook",
								"label": "priceInWei",
								"offset": 0,
								"slot": "2",
								"type": "t_uint256"
							},
							{
								"astId": 34,
								"contract": "L/limit order limit buy limit sell.sol:LimitOrderBook",
								"label": "orderType",
								"offset": 0,
								"slot": "3",
								"type": "t_enum(OrderType)25"
							},
							{
								"astId": 36,
								"contract": "L/limit order limit buy limit sell.sol:LimitOrderBook",
								"label": "isActive",
								"offset": 1,
								"slot": "3",
								"type": "t_bool"
							}
						],
						"numberOfBytes": "128"
					},
					"t_uint256": {
						"encoding": "inplace",
						"label": "uint256",
						"numberOfBytes": "32"
					}
				}
			},
			"userdoc": {
				"kind": "user",
				"methods": {},
				"version": 1
			}
		}
	}
}