{
	"L/layer-1 blockchain.sol": {
		"Layer1Finality": {
			"abi": [
				{
					"inputs": [],
					"stateMutability": "nonpayable",
					"type": "constructor"
				},
				{
					"anonymous": false,
					"inputs": [
						{
							"indexed": true,
							"internalType": "uint256",
							"name": "blockId",
							"type": "uint256"
						},
						{
							"indexed": false,
							"internalType": "bytes32",
							"name": "blockHash",
							"type": "bytes32"
						}
					],
					"name": "BlockFinalized",
					"type": "event"
				},
				{
					"inputs": [
						{
							"internalType": "address",
							"name": "_validator",
							"type": "address"
						}
					],
					"name": "addValidator",
					"outputs": [],
					"stateMutability": "nonpayable",
					"type": "function"
				},
				{
					"inputs": [],
					"name": "admin",
					"outputs": [
						{
							"internalType": "address",
							"name": "",
							"type": "address"
						}
					],
					"stateMutability": "view",
					"type": "function"
				},
				{
					"inputs": [],
					"name": "blockId",
					"outputs": [
						{
							"internalType": "uint256",
							"name": "",
							"type": "uint256"
						}
					],
					"stateMutability": "view",
					"type": "function"
				},
				{
					"inputs": [
						{
							"internalType": "bytes32",
							"name": "_blockHash",
							"type": "bytes32"
						}
					],
					"name": "finalizeBlock",
					"outputs": [],
					"stateMutability": "nonpayable",
					"type": "function"
				},
				{
					"inputs": [
						{
							"internalType": "uint256",
							"name": "",
							"type": "uint256"
						}
					],
					"name": "finalizedBlockHashes",
					"outputs": [
						{
							"internalType": "bytes32",
							"name": "",
							"type": "bytes32"
						}
					],
					"stateMutability": "view",
					"type": "function"
				},
				{
					"inputs": [
						{
							"internalType": "uint256",
							"name": "_id",
							"type": "uint256"
						}
					],
					"name": "getFinalizedBlock",
					"outputs": [
						{
							"internalType": "bytes32",
							"name": "",
							"type": "bytes32"
						}
					],
					"stateMutability": "view",
					"type": "function"
				},
				{
					"inputs": [
						{
							"internalType": "address",
							"name": "",
							"type": "address"
						}
					],
					"name": "validators",
					"outputs": [
						{
							"internalType": "bool",
							"name": "",
							"type": "bool"
						}
					],
					"stateMutability": "view",
					"type": "function"
				}
			],
			"devdoc": {
				"kind": "dev",
				"methods": {},
				"title": "Layer-1 Finality Tracker",
				"version": 1
			},
			"evm": {
				"assembly": "    /* \"L/layer-1 blockchain.sol\":173:1080  contract Layer1Finality {... */\n  mstore(0x40, 0x80)\n    /* \"L/layer-1 blockchain.sol\":547:596  constructor() {... */\n  callvalue\n  dup1\n  iszero\n  tag_1\n  jumpi\n  revert(0x00, 0x00)\ntag_1:\n  pop\n    /* \"L/layer-1 blockchain.sol\":579:589  msg.sender */\n  caller\n    /* \"L/layer-1 blockchain.sol\":571:576  admin */\n  0x00\n  0x00\n    /* \"L/layer-1 blockchain.sol\":571:589  admin = msg.sender */\n  0x0100\n  exp\n  dup2\n  sload\n  dup2\n  0xffffffffffffffffffffffffffffffffffffffff\n  mul\n  not\n  and\n  swap1\n  dup4\n  0xffffffffffffffffffffffffffffffffffffffff\n  and\n  mul\n  or\n  swap1\n  sstore\n  pop\n    /* \"L/layer-1 blockchain.sol\":173:1080  contract Layer1Finality {... */\n  dataSize(sub_0)\n  dup1\n  dataOffset(sub_0)\n  0x00\n  codecopy\n  0x00\n  return\nstop\n\nsub_0: assembly {\n        /* \"L/layer-1 blockchain.sol\":173:1080  contract Layer1Finality {... */\n      mstore(0x40, 0x80)\n      callvalue\n      dup1\n      iszero\n      tag_1\n      jumpi\n      revert(0x00, 0x00)\n    tag_1:\n      pop\n      jumpi(tag_2, lt(calldatasize, 0x04))\n      shr(0xe0, calldataload(0x00))\n      dup1\n      0x7a9c9733\n      gt\n      tag_10\n      jumpi\n      dup1\n      0x7a9c9733\n      eq\n      tag_6\n      jumpi\n      dup1\n      0xc9da00a6\n      eq\n      tag_7\n      jumpi\n      dup1\n      0xf851a440\n      eq\n      tag_8\n      jumpi\n      dup1\n      0xfa52c7d8\n      eq\n      tag_9\n      jumpi\n      jump(tag_2)\n    tag_10:\n      dup1\n      0x3a0c5709\n      eq\n      tag_3\n      jumpi\n      dup1\n      0x4d238c8e\n      eq\n      tag_4\n      jumpi\n      dup1\n      0x7a992dac\n      eq\n      tag_5\n      jumpi\n    tag_2:\n      revert(0x00, 0x00)\n        /* \"L/layer-1 blockchain.sol\":957:1078  function getFinalizedBlock(uint256 _id) external view returns (bytes32) {... */\n    tag_3:\n      tag_11\n      0x04\n      dup1\n      calldatasize\n      sub\n      dup2\n      add\n      swap1\n      tag_12\n      swap2\n      swap1\n      tag_13\n      jump\t// in\n    tag_12:\n      tag_14\n      jump\t// in\n    tag_11:\n      mload(0x40)\n      tag_15\n      swap2\n      swap1\n      tag_16\n      jump\t// in\n    tag_15:\n      mload(0x40)\n      dup1\n      swap2\n      sub\n      swap1\n      return\n        /* \"L/layer-1 blockchain.sol\":602:751  function addValidator(address _validator) external {... */\n    tag_4:\n      tag_17\n      0x04\n      dup1\n      calldatasize\n      sub\n      dup2\n      add\n      swap1\n      tag_18\n      swap2\n      swap1\n      tag_19\n      jump\t// in\n    tag_18:\n      tag_20\n      jump\t// in\n    tag_17:\n      stop\n        /* \"L/layer-1 blockchain.sol\":229:251  uint256 public blockId */\n    tag_5:\n      tag_21\n      tag_22\n      jump\t// in\n    tag_21:\n      mload(0x40)\n      tag_23\n      swap2\n      swap1\n      tag_24\n      jump\t// in\n    tag_23:\n      mload(0x40)\n      dup1\n      swap2\n      sub\n      swap1\n      return\n        /* \"L/layer-1 blockchain.sol\":257:312  mapping(uint256 => bytes32) public finalizedBlockHashes */\n    tag_6:\n      tag_25\n      0x04\n      dup1\n      calldatasize\n      sub\n      dup2\n      add\n      swap1\n      tag_26\n      swap2\n      swap1\n      tag_13\n      jump\t// in\n    tag_26:\n      tag_27\n      jump\t// in\n    tag_25:\n      mload(0x40)\n      tag_28\n      swap2\n      swap1\n      tag_16\n      jump\t// in\n    tag_28:\n      mload(0x40)\n      dup1\n      swap2\n      sub\n      swap1\n      return\n        /* \"L/layer-1 blockchain.sol\":757:951  function finalizeBlock(bytes32 _blockHash) external onlyValidator {... */\n    tag_7:\n      tag_29\n      0x04\n      dup1\n      calldatasize\n      sub\n      dup2\n      add\n      swap1\n      tag_30\n      swap2\n      swap1\n      tag_31\n      jump\t// in\n    tag_30:\n      tag_32\n      jump\t// in\n    tag_29:\n      stop\n        /* \"L/layer-1 blockchain.sol\":203:223  address public admin */\n    tag_8:\n      tag_33\n      tag_34\n      jump\t// in\n    tag_33:\n      mload(0x40)\n      tag_35\n      swap2\n      swap1\n      tag_36\n      jump\t// in\n    tag_35:\n      mload(0x40)\n      dup1\n      swap2\n      sub\n      swap1\n      return\n        /* \"L/layer-1 blockchain.sol\":318:360  mapping(address => bool) public validators */\n    tag_9:\n      tag_37\n      0x04\n      dup1\n      calldatasize\n      sub\n      dup2\n      add\n      swap1\n      tag_38\n      swap2\n      swap1\n      tag_19\n      jump\t// in\n    tag_38:\n      tag_39\n      jump\t// in\n    tag_37:\n      mload(0x40)\n      tag_40\n      swap2\n      swap1\n      tag_41\n      jump\t// in\n    tag_40:\n      mload(0x40)\n      dup1\n      swap2\n      sub\n      swap1\n      return\n        /* \"L/layer-1 blockchain.sol\":957:1078  function getFinalizedBlock(uint256 _id) external view returns (bytes32) {... */\n    tag_14:\n        /* \"L/layer-1 blockchain.sol\":1020:1027  bytes32 */\n      0x00\n        /* \"L/layer-1 blockchain.sol\":1046:1066  finalizedBlockHashes */\n      0x02\n        /* \"L/layer-1 blockchain.sol\":1046:1071  finalizedBlockHashes[_id] */\n      0x00\n        /* \"L/layer-1 blockchain.sol\":1067:1070  _id */\n      dup4\n        /* \"L/layer-1 blockchain.sol\":1046:1071  finalizedBlockHashes[_id] */\n      dup2\n      mstore\n      0x20\n      add\n      swap1\n      dup2\n      mstore\n      0x20\n      add\n      0x00\n      keccak256\n      sload\n        /* \"L/layer-1 blockchain.sol\":1039:1071  return finalizedBlockHashes[_id] */\n      swap1\n      pop\n        /* \"L/layer-1 blockchain.sol\":957:1078  function getFinalizedBlock(uint256 _id) external view returns (bytes32) {... */\n      swap2\n      swap1\n      pop\n      jump\t// out\n        /* \"L/layer-1 blockchain.sol\":602:751  function addValidator(address _validator) external {... */\n    tag_20:\n        /* \"L/layer-1 blockchain.sol\":685:690  admin */\n      0x00\n      0x00\n      swap1\n      sload\n      swap1\n      0x0100\n      exp\n      swap1\n      div\n      0xffffffffffffffffffffffffffffffffffffffff\n      and\n        /* \"L/layer-1 blockchain.sol\":671:690  msg.sender == admin */\n      0xffffffffffffffffffffffffffffffffffffffff\n      and\n        /* \"L/layer-1 blockchain.sol\":671:681  msg.sender */\n      caller\n        /* \"L/layer-1 blockchain.sol\":671:690  msg.sender == admin */\n      0xffffffffffffffffffffffffffffffffffffffff\n      and\n      eq\n        /* \"L/layer-1 blockchain.sol\":663:705  require(msg.sender == admin, \"Only admin\") */\n      tag_44\n      jumpi\n      mload(0x40)\n      0x08c379a000000000000000000000000000000000000000000000000000000000\n      dup2\n      mstore\n      0x04\n      add\n      tag_45\n      swap1\n      tag_46\n      jump\t// in\n    tag_45:\n      mload(0x40)\n      dup1\n      swap2\n      sub\n      swap1\n      revert\n    tag_44:\n        /* \"L/layer-1 blockchain.sol\":740:744  true */\n      0x01\n        /* \"L/layer-1 blockchain.sol\":715:725  validators */\n      0x03\n        /* \"L/layer-1 blockchain.sol\":715:737  validators[_validator] */\n      0x00\n        /* \"L/layer-1 blockchain.sol\":726:736  _validator */\n      dup4\n        /* \"L/layer-1 blockchain.sol\":715:737  validators[_validator] */\n      0xffffffffffffffffffffffffffffffffffffffff\n      and\n      0xffffffffffffffffffffffffffffffffffffffff\n      and\n      dup2\n      mstore\n      0x20\n      add\n      swap1\n      dup2\n      mstore\n      0x20\n      add\n      0x00\n      keccak256\n      0x00\n        /* \"L/layer-1 blockchain.sol\":715:744  validators[_validator] = true */\n      0x0100\n      exp\n      dup2\n      sload\n      dup2\n      0xff\n      mul\n      not\n      and\n      swap1\n      dup4\n      iszero\n      iszero\n      mul\n      or\n      swap1\n      sstore\n      pop\n        /* \"L/layer-1 blockchain.sol\":602:751  function addValidator(address _validator) external {... */\n      pop\n      jump\t// out\n        /* \"L/layer-1 blockchain.sol\":229:251  uint256 public blockId */\n    tag_22:\n      sload(0x01)\n      dup2\n      jump\t// out\n        /* \"L/layer-1 blockchain.sol\":257:312  mapping(uint256 => bytes32) public finalizedBlockHashes */\n    tag_27:\n      mstore(0x20, 0x02)\n      dup1\n      0x00\n      mstore\n      keccak256(0x00, 0x40)\n      0x00\n      swap2\n      pop\n      swap1\n      pop\n      sload\n      dup2\n      jump\t// out\n        /* \"L/layer-1 blockchain.sol\":757:951  function finalizeBlock(bytes32 _blockHash) external onlyValidator {... */\n    tag_32:\n        /* \"L/layer-1 blockchain.sol\":481:491  validators */\n      0x03\n        /* \"L/layer-1 blockchain.sol\":481:503  validators[msg.sender] */\n      0x00\n        /* \"L/layer-1 blockchain.sol\":492:502  msg.sender */\n      caller\n        /* \"L/layer-1 blockchain.sol\":481:503  validators[msg.sender] */\n      0xffffffffffffffffffffffffffffffffffffffff\n      and\n      0xffffffffffffffffffffffffffffffffffffffff\n      and\n      dup2\n      mstore\n      0x20\n      add\n      swap1\n      dup2\n      mstore\n      0x20\n      add\n      0x00\n      keccak256\n      0x00\n      swap1\n      sload\n      swap1\n      0x0100\n      exp\n      swap1\n      div\n      0xff\n      and\n        /* \"L/layer-1 blockchain.sol\":473:523  require(validators[msg.sender], \"Not a validator\") */\n      tag_48\n      jumpi\n      mload(0x40)\n      0x08c379a000000000000000000000000000000000000000000000000000000000\n      dup2\n      mstore\n      0x04\n      add\n      tag_49\n      swap1\n      tag_50\n      jump\t// in\n    tag_49:\n      mload(0x40)\n      dup1\n      swap2\n      sub\n      swap1\n      revert\n    tag_48:\n        /* \"L/layer-1 blockchain.sol\":865:875  _blockHash */\n      dup1\n        /* \"L/layer-1 blockchain.sol\":833:853  finalizedBlockHashes */\n      0x02\n        /* \"L/layer-1 blockchain.sol\":833:862  finalizedBlockHashes[blockId] */\n      0x00\n        /* \"L/layer-1 blockchain.sol\":854:861  blockId */\n      sload(0x01)\n        /* \"L/layer-1 blockchain.sol\":833:862  finalizedBlockHashes[blockId] */\n      dup2\n      mstore\n      0x20\n      add\n      swap1\n      dup2\n      mstore\n      0x20\n      add\n      0x00\n      keccak256\n        /* \"L/layer-1 blockchain.sol\":833:875  finalizedBlockHashes[blockId] = _blockHash */\n      dup2\n      swap1\n      sstore\n      pop\n        /* \"L/layer-1 blockchain.sol\":905:912  blockId */\n      sload(0x01)\n        /* \"L/layer-1 blockchain.sol\":890:925  BlockFinalized(blockId, _blockHash) */\n      0xf2c535759092d16e9334a11dd9b52eca543f1d9cca5ba9d16c472aef009de432\n        /* \"L/layer-1 blockchain.sol\":914:924  _blockHash */\n      dup3\n        /* \"L/layer-1 blockchain.sol\":890:925  BlockFinalized(blockId, _blockHash) */\n      mload(0x40)\n      tag_52\n      swap2\n      swap1\n      tag_16\n      jump\t// in\n    tag_52:\n      mload(0x40)\n      dup1\n      swap2\n      sub\n      swap1\n      log2\n        /* \"L/layer-1 blockchain.sol\":935:942  blockId */\n      0x01\n      0x00\n        /* \"L/layer-1 blockchain.sol\":935:944  blockId++ */\n      dup2\n      sload\n      dup1\n      swap3\n      swap2\n      swap1\n      tag_53\n      swap1\n      tag_54\n      jump\t// in\n    tag_53:\n      swap2\n      swap1\n      pop\n      sstore\n      pop\n        /* \"L/layer-1 blockchain.sol\":757:951  function finalizeBlock(bytes32 _blockHash) external onlyValidator {... */\n      pop\n      jump\t// out\n        /* \"L/layer-1 blockchain.sol\":203:223  address public admin */\n    tag_34:\n      0x00\n      0x00\n      swap1\n      sload\n      swap1\n      0x0100\n      exp\n      swap1\n      div\n      0xffffffffffffffffffffffffffffffffffffffff\n      and\n      dup2\n      jump\t// out\n        /* \"L/layer-1 blockchain.sol\":318:360  mapping(address => bool) public validators */\n    tag_39:\n      mstore(0x20, 0x03)\n      dup1\n      0x00\n      mstore\n      keccak256(0x00, 0x40)\n      0x00\n      swap2\n      pop\n      sload\n      swap1\n      0x0100\n      exp\n      swap1\n      div\n      0xff\n      and\n      dup2\n      jump\t// out\n        /* \"#utility.yul\":88:205   */\n    tag_56:\n        /* \"#utility.yul\":197:198   */\n      0x00\n        /* \"#utility.yul\":194:195   */\n      0x00\n        /* \"#utility.yul\":187:199   */\n      revert\n        /* \"#utility.yul\":334:411   */\n    tag_58:\n        /* \"#utility.yul\":371:378   */\n      0x00\n        /* \"#utility.yul\":400:405   */\n      dup2\n        /* \"#utility.yul\":389:405   */\n      swap1\n      pop\n        /* \"#utility.yul\":334:411   */\n      swap2\n      swap1\n      pop\n      jump\t// out\n        /* \"#utility.yul\":417:539   */\n    tag_59:\n        /* \"#utility.yul\":490:514   */\n      tag_85\n        /* \"#utility.yul\":508:513   */\n      dup2\n        /* \"#utility.yul\":490:514   */\n      tag_58\n      jump\t// in\n    tag_85:\n        /* \"#utility.yul\":483:488   */\n      dup2\n        /* \"#utility.yul\":480:515   */\n      eq\n        /* \"#utility.yul\":470:533   */\n      tag_86\n      jumpi\n        /* \"#utility.yul\":529:530   */\n      0x00\n        /* \"#utility.yul\":526:527   */\n      0x00\n        /* \"#utility.yul\":519:531   */\n      revert\n        /* \"#utility.yul\":470:533   */\n    tag_86:\n        /* \"#utility.yul\":417:539   */\n      pop\n      jump\t// out\n        /* \"#utility.yul\":545:684   */\n    tag_60:\n        /* \"#utility.yul\":591:596   */\n      0x00\n        /* \"#utility.yul\":629:635   */\n      dup2\n        /* \"#utility.yul\":616:636   */\n      calldataload\n        /* \"#utility.yul\":607:636   */\n      swap1\n      pop\n        /* \"#utility.yul\":645:678   */\n      tag_88\n        /* \"#utility.yul\":672:677   */\n      dup2\n        /* \"#utility.yul\":645:678   */\n      tag_59\n      jump\t// in\n    tag_88:\n        /* \"#utility.yul\":545:684   */\n      swap3\n      swap2\n      pop\n      pop\n      jump\t// out\n        /* \"#utility.yul\":690:1019   */\n    tag_13:\n        /* \"#utility.yul\":749:755   */\n      0x00\n        /* \"#utility.yul\":798:800   */\n      0x20\n        /* \"#utility.yul\":786:795   */\n      dup3\n        /* \"#utility.yul\":777:784   */\n      dup5\n        /* \"#utility.yul\":773:796   */\n      sub\n        /* \"#utility.yul\":769:801   */\n      slt\n        /* \"#utility.yul\":766:885   */\n      iszero\n      tag_90\n      jumpi\n        /* \"#utility.yul\":804:883   */\n      tag_91\n      tag_56\n      jump\t// in\n    tag_91:\n        /* \"#utility.yul\":766:885   */\n    tag_90:\n        /* \"#utility.yul\":924:925   */\n      0x00\n        /* \"#utility.yul\":949:1002   */\n      tag_92\n        /* \"#utility.yul\":994:1001   */\n      dup5\n        /* \"#utility.yul\":985:991   */\n      dup3\n        /* \"#utility.yul\":974:983   */\n      dup6\n        /* \"#utility.yul\":970:992   */\n      add\n        /* \"#utility.yul\":949:1002   */\n      tag_60\n      jump\t// in\n    tag_92:\n        /* \"#utility.yul\":939:1002   */\n      swap2\n      pop\n        /* \"#utility.yul\":895:1012   */\n      pop\n        /* \"#utility.yul\":690:1019   */\n      swap3\n      swap2\n      pop\n      pop\n      jump\t// out\n        /* \"#utility.yul\":1025:1102   */\n    tag_61:\n        /* \"#utility.yul\":1062:1069   */\n      0x00\n        /* \"#utility.yul\":1091:1096   */\n      dup2\n        /* \"#utility.yul\":1080:1096   */\n      swap1\n      pop\n        /* \"#utility.yul\":1025:1102   */\n      swap2\n      swap1\n      pop\n      jump\t// out\n        /* \"#utility.yul\":1108:1226   */\n    tag_62:\n        /* \"#utility.yul\":1195:1219   */\n      tag_95\n        /* \"#utility.yul\":1213:1218   */\n      dup2\n        /* \"#utility.yul\":1195:1219   */\n      tag_61\n      jump\t// in\n    tag_95:\n        /* \"#utility.yul\":1190:1193   */\n      dup3\n        /* \"#utility.yul\":1183:1220   */\n      mstore\n        /* \"#utility.yul\":1108:1226   */\n      pop\n      pop\n      jump\t// out\n        /* \"#utility.yul\":1232:1454   */\n    tag_16:\n        /* \"#utility.yul\":1325:1329   */\n      0x00\n        /* \"#utility.yul\":1363:1365   */\n      0x20\n        /* \"#utility.yul\":1352:1361   */\n      dup3\n        /* \"#utility.yul\":1348:1366   */\n      add\n        /* \"#utility.yul\":1340:1366   */\n      swap1\n      pop\n        /* \"#utility.yul\":1376:1447   */\n      tag_97\n        /* \"#utility.yul\":1444:1445   */\n      0x00\n        /* \"#utility.yul\":1433:1442   */\n      dup4\n        /* \"#utility.yul\":1429:1446   */\n      add\n        /* \"#utility.yul\":1420:1426   */\n      dup5\n        /* \"#utility.yul\":1376:1447   */\n      tag_62\n      jump\t// in\n    tag_97:\n        /* \"#utility.yul\":1232:1454   */\n      swap3\n      swap2\n      pop\n      pop\n      jump\t// out\n        /* \"#utility.yul\":1460:1586   */\n    tag_63:\n        /* \"#utility.yul\":1497:1504   */\n      0x00\n        /* \"#utility.yul\":1537:1579   */\n      0xffffffffffffffffffffffffffffffffffffffff\n        /* \"#utility.yul\":1530:1535   */\n      dup3\n        /* \"#utility.yul\":1526:1580   */\n      and\n        /* \"#utility.yul\":1515:1580   */\n      swap1\n      pop\n        /* \"#utility.yul\":1460:1586   */\n      swap2\n      swap1\n      pop\n      jump\t// out\n        /* \"#utility.yul\":1592:1688   */\n    tag_64:\n        /* \"#utility.yul\":1629:1636   */\n      0x00\n        /* \"#utility.yul\":1658:1682   */\n      tag_100\n        /* \"#utility.yul\":1676:1681   */\n      dup3\n        /* \"#utility.yul\":1658:1682   */\n      tag_63\n      jump\t// in\n    tag_100:\n        /* \"#utility.yul\":1647:1682   */\n      swap1\n      pop\n        /* \"#utility.yul\":1592:1688   */\n      swap2\n      swap1\n      pop\n      jump\t// out\n        /* \"#utility.yul\":1694:1816   */\n    tag_65:\n        /* \"#utility.yul\":1767:1791   */\n      tag_102\n        /* \"#utility.yul\":1785:1790   */\n      dup2\n        /* \"#utility.yul\":1767:1791   */\n      tag_64\n      jump\t// in\n    tag_102:\n        /* \"#utility.yul\":1760:1765   */\n      dup2\n        /* \"#utility.yul\":1757:1792   */\n      eq\n        /* \"#utility.yul\":1747:1810   */\n      tag_103\n      jumpi\n        /* \"#utility.yul\":1806:1807   */\n      0x00\n        /* \"#utility.yul\":1803:1804   */\n      0x00\n        /* \"#utility.yul\":1796:1808   */\n      revert\n        /* \"#utility.yul\":1747:1810   */\n    tag_103:\n        /* \"#utility.yul\":1694:1816   */\n      pop\n      jump\t// out\n        /* \"#utility.yul\":1822:1961   */\n    tag_66:\n        /* \"#utility.yul\":1868:1873   */\n      0x00\n        /* \"#utility.yul\":1906:1912   */\n      dup2\n        /* \"#utility.yul\":1893:1913   */\n      calldataload\n        /* \"#utility.yul\":1884:1913   */\n      swap1\n      pop\n        /* \"#utility.yul\":1922:1955   */\n      tag_105\n        /* \"#utility.yul\":1949:1954   */\n      dup2\n        /* \"#utility.yul\":1922:1955   */\n      tag_65\n      jump\t// in\n    tag_105:\n        /* \"#utility.yul\":1822:1961   */\n      swap3\n      swap2\n      pop\n      pop\n      jump\t// out\n        /* \"#utility.yul\":1967:2296   */\n    tag_19:\n        /* \"#utility.yul\":2026:2032   */\n      0x00\n        /* \"#utility.yul\":2075:2077   */\n      0x20\n        /* \"#utility.yul\":2063:2072   */\n      dup3\n        /* \"#utility.yul\":2054:2061   */\n      dup5\n        /* \"#utility.yul\":2050:2073   */\n      sub\n        /* \"#utility.yul\":2046:2078   */\n      slt\n        /* \"#utility.yul\":2043:2162   */\n      iszero\n      tag_107\n      jumpi\n        /* \"#utility.yul\":2081:2160   */\n      tag_108\n      tag_56\n      jump\t// in\n    tag_108:\n        /* \"#utility.yul\":2043:2162   */\n    tag_107:\n        /* \"#utility.yul\":2201:2202   */\n      0x00\n        /* \"#utility.yul\":2226:2279   */\n      tag_109\n        /* \"#utility.yul\":2271:2278   */\n      dup5\n        /* \"#utility.yul\":2262:2268   */\n      dup3\n        /* \"#utility.yul\":2251:2260   */\n      dup6\n        /* \"#utility.yul\":2247:2269   */\n      add\n        /* \"#utility.yul\":2226:2279   */\n      tag_66\n      jump\t// in\n    tag_109:\n        /* \"#utility.yul\":2216:2279   */\n      swap2\n      pop\n        /* \"#utility.yul\":2172:2289   */\n      pop\n        /* \"#utility.yul\":1967:2296   */\n      swap3\n      swap2\n      pop\n      pop\n      jump\t// out\n        /* \"#utility.yul\":2302:2420   */\n    tag_67:\n        /* \"#utility.yul\":2389:2413   */\n      tag_111\n        /* \"#utility.yul\":2407:2412   */\n      dup2\n        /* \"#utility.yul\":2389:2413   */\n      tag_58\n      jump\t// in\n    tag_111:\n        /* \"#utility.yul\":2384:2387   */\n      dup3\n        /* \"#utility.yul\":2377:2414   */\n      mstore\n        /* \"#utility.yul\":2302:2420   */\n      pop\n      pop\n      jump\t// out\n        /* \"#utility.yul\":2426:2648   */\n    tag_24:\n        /* \"#utility.yul\":2519:2523   */\n      0x00\n        /* \"#utility.yul\":2557:2559   */\n      0x20\n        /* \"#utility.yul\":2546:2555   */\n      dup3\n        /* \"#utility.yul\":2542:2560   */\n      add\n        /* \"#utility.yul\":2534:2560   */\n      swap1\n      pop\n        /* \"#utility.yul\":2570:2641   */\n      tag_113\n        /* \"#utility.yul\":2638:2639   */\n      0x00\n        /* \"#utility.yul\":2627:2636   */\n      dup4\n        /* \"#utility.yul\":2623:2640   */\n      add\n        /* \"#utility.yul\":2614:2620   */\n      dup5\n        /* \"#utility.yul\":2570:2641   */\n      tag_67\n      jump\t// in\n    tag_113:\n        /* \"#utility.yul\":2426:2648   */\n      swap3\n      swap2\n      pop\n      pop\n      jump\t// out\n        /* \"#utility.yul\":2654:2776   */\n    tag_68:\n        /* \"#utility.yul\":2727:2751   */\n      tag_115\n        /* \"#utility.yul\":2745:2750   */\n      dup2\n        /* \"#utility.yul\":2727:2751   */\n      tag_61\n      jump\t// in\n    tag_115:\n        /* \"#utility.yul\":2720:2725   */\n      dup2\n        /* \"#utility.yul\":2717:2752   */\n      eq\n        /* \"#utility.yul\":2707:2770   */\n      tag_116\n      jumpi\n        /* \"#utility.yul\":2766:2767   */\n      0x00\n        /* \"#utility.yul\":2763:2764   */\n      0x00\n        /* \"#utility.yul\":2756:2768   */\n      revert\n        /* \"#utility.yul\":2707:2770   */\n    tag_116:\n        /* \"#utility.yul\":2654:2776   */\n      pop\n      jump\t// out\n        /* \"#utility.yul\":2782:2921   */\n    tag_69:\n        /* \"#utility.yul\":2828:2833   */\n      0x00\n        /* \"#utility.yul\":2866:2872   */\n      dup2\n        /* \"#utility.yul\":2853:2873   */\n      calldataload\n        /* \"#utility.yul\":2844:2873   */\n      swap1\n      pop\n        /* \"#utility.yul\":2882:2915   */\n      tag_118\n        /* \"#utility.yul\":2909:2914   */\n      dup2\n        /* \"#utility.yul\":2882:2915   */\n      tag_68\n      jump\t// in\n    tag_118:\n        /* \"#utility.yul\":2782:2921   */\n      swap3\n      swap2\n      pop\n      pop\n      jump\t// out\n        /* \"#utility.yul\":2927:3256   */\n    tag_31:\n        /* \"#utility.yul\":2986:2992   */\n      0x00\n        /* \"#utility.yul\":3035:3037   */\n      0x20\n        /* \"#utility.yul\":3023:3032   */\n      dup3\n        /* \"#utility.yul\":3014:3021   */\n      dup5\n        /* \"#utility.yul\":3010:3033   */\n      sub\n        /* \"#utility.yul\":3006:3038   */\n      slt\n        /* \"#utility.yul\":3003:3122   */\n      iszero\n      tag_120\n      jumpi\n        /* \"#utility.yul\":3041:3120   */\n      tag_121\n      tag_56\n      jump\t// in\n    tag_121:\n        /* \"#utility.yul\":3003:3122   */\n    tag_120:\n        /* \"#utility.yul\":3161:3162   */\n      0x00\n        /* \"#utility.yul\":3186:3239   */\n      tag_122\n        /* \"#utility.yul\":3231:3238   */\n      dup5\n        /* \"#utility.yul\":3222:3228   */\n      dup3\n        /* \"#utility.yul\":3211:3220   */\n      dup6\n        /* \"#utility.yul\":3207:3229   */\n      add\n        /* \"#utility.yul\":3186:3239   */\n      tag_69\n      jump\t// in\n    tag_122:\n        /* \"#utility.yul\":3176:3239   */\n      swap2\n      pop\n        /* \"#utility.yul\":3132:3249   */\n      pop\n        /* \"#utility.yul\":2927:3256   */\n      swap3\n      swap2\n      pop\n      pop\n      jump\t// out\n        /* \"#utility.yul\":3262:3380   */\n    tag_70:\n        /* \"#utility.yul\":3349:3373   */\n      tag_124\n        /* \"#utility.yul\":3367:3372   */\n      dup2\n        /* \"#utility.yul\":3349:3373   */\n      tag_64\n      jump\t// in\n    tag_124:\n        /* \"#utility.yul\":3344:3347   */\n      dup3\n        /* \"#utility.yul\":3337:3374   */\n      mstore\n        /* \"#utility.yul\":3262:3380   */\n      pop\n      pop\n      jump\t// out\n        /* \"#utility.yul\":3386:3608   */\n    tag_36:\n        /* \"#utility.yul\":3479:3483   */\n      0x00\n        /* \"#utility.yul\":3517:3519   */\n      0x20\n        /* \"#utility.yul\":3506:3515   */\n      dup3\n        /* \"#utility.yul\":3502:3520   */\n      add\n        /* \"#utility.yul\":3494:3520   */\n      swap1\n      pop\n        /* \"#utility.yul\":3530:3601   */\n      tag_126\n        /* \"#utility.yul\":3598:3599   */\n      0x00\n        /* \"#utility.yul\":3587:3596   */\n      dup4\n        /* \"#utility.yul\":3583:3600   */\n      add\n        /* \"#utility.yul\":3574:3580   */\n      dup5\n        /* \"#utility.yul\":3530:3601   */\n      tag_70\n      jump\t// in\n    tag_126:\n        /* \"#utility.yul\":3386:3608   */\n      swap3\n      swap2\n      pop\n      pop\n      jump\t// out\n        /* \"#utility.yul\":3614:3704   */\n    tag_71:\n        /* \"#utility.yul\":3648:3655   */\n      0x00\n        /* \"#utility.yul\":3691:3696   */\n      dup2\n        /* \"#utility.yul\":3684:3697   */\n      iszero\n        /* \"#utility.yul\":3677:3698   */\n      iszero\n        /* \"#utility.yul\":3666:3698   */\n      swap1\n      pop\n        /* \"#utility.yul\":3614:3704   */\n      swap2\n      swap1\n      pop\n      jump\t// out\n        /* \"#utility.yul\":3710:3819   */\n    tag_72:\n        /* \"#utility.yul\":3791:3812   */\n      tag_129\n        /* \"#utility.yul\":3806:3811   */\n      dup2\n        /* \"#utility.yul\":3791:3812   */\n      tag_71\n      jump\t// in\n    tag_129:\n        /* \"#utility.yul\":3786:3789   */\n      dup3\n        /* \"#utility.yul\":3779:3813   */\n      mstore\n        /* \"#utility.yul\":3710:3819   */\n      pop\n      pop\n      jump\t// out\n        /* \"#utility.yul\":3825:4035   */\n    tag_41:\n        /* \"#utility.yul\":3912:3916   */\n      0x00\n        /* \"#utility.yul\":3950:3952   */\n      0x20\n        /* \"#utility.yul\":3939:3948   */\n      dup3\n        /* \"#utility.yul\":3935:3953   */\n      add\n        /* \"#utility.yul\":3927:3953   */\n      swap1\n      pop\n        /* \"#utility.yul\":3963:4028   */\n      tag_131\n        /* \"#utility.yul\":4025:4026   */\n      0x00\n        /* \"#utility.yul\":4014:4023   */\n      dup4\n        /* \"#utility.yul\":4010:4027   */\n      add\n        /* \"#utility.yul\":4001:4007   */\n      dup5\n        /* \"#utility.yul\":3963:4028   */\n      tag_72\n      jump\t// in\n    tag_131:\n        /* \"#utility.yul\":3825:4035   */\n      swap3\n      swap2\n      pop\n      pop\n      jump\t// out\n        /* \"#utility.yul\":4041:4210   */\n    tag_73:\n        /* \"#utility.yul\":4125:4136   */\n      0x00\n        /* \"#utility.yul\":4159:4165   */\n      dup3\n        /* \"#utility.yul\":4154:4157   */\n      dup3\n        /* \"#utility.yul\":4147:4166   */\n      mstore\n        /* \"#utility.yul\":4199:4203   */\n      0x20\n        /* \"#utility.yul\":4194:4197   */\n      dup3\n        /* \"#utility.yul\":4190:4204   */\n      add\n        /* \"#utility.yul\":4175:4204   */\n      swap1\n      pop\n        /* \"#utility.yul\":4041:4210   */\n      swap3\n      swap2\n      pop\n      pop\n      jump\t// out\n        /* \"#utility.yul\":4216:4376   */\n    tag_74:\n        /* \"#utility.yul\":4356:4368   */\n      0x4f6e6c792061646d696e00000000000000000000000000000000000000000000\n        /* \"#utility.yul\":4352:4353   */\n      0x00\n        /* \"#utility.yul\":4344:4350   */\n      dup3\n        /* \"#utility.yul\":4340:4354   */\n      add\n        /* \"#utility.yul\":4333:4369   */\n      mstore\n        /* \"#utility.yul\":4216:4376   */\n      pop\n      jump\t// out\n        /* \"#utility.yul\":4382:4748   */\n    tag_75:\n        /* \"#utility.yul\":4524:4527   */\n      0x00\n        /* \"#utility.yul\":4545:4612   */\n      tag_135\n        /* \"#utility.yul\":4609:4611   */\n      0x0a\n        /* \"#utility.yul\":4604:4607   */\n      dup4\n        /* \"#utility.yul\":4545:4612   */\n      tag_73\n      jump\t// in\n    tag_135:\n        /* \"#utility.yul\":4538:4612   */\n      swap2\n      pop\n        /* \"#utility.yul\":4621:4714   */\n      tag_136\n        /* \"#utility.yul\":4710:4713   */\n      dup3\n        /* \"#utility.yul\":4621:4714   */\n      tag_74\n      jump\t// in\n    tag_136:\n        /* \"#utility.yul\":4739:4741   */\n      0x20\n        /* \"#utility.yul\":4734:4737   */\n      dup3\n        /* \"#utility.yul\":4730:4742   */\n      add\n        /* \"#utility.yul\":4723:4742   */\n      swap1\n      pop\n        /* \"#utility.yul\":4382:4748   */\n      swap2\n      swap1\n      pop\n      jump\t// out\n        /* \"#utility.yul\":4754:5173   */\n    tag_46:\n        /* \"#utility.yul\":4920:4924   */\n      0x00\n        /* \"#utility.yul\":4958:4960   */\n      0x20\n        /* \"#utility.yul\":4947:4956   */\n      dup3\n        /* \"#utility.yul\":4943:4961   */\n      add\n        /* \"#utility.yul\":4935:4961   */\n      swap1\n      pop\n        /* \"#utility.yul\":5007:5016   */\n      dup2\n        /* \"#utility.yul\":5001:5005   */\n      dup2\n        /* \"#utility.yul\":4997:5017   */\n      sub\n        /* \"#utility.yul\":4993:4994   */\n      0x00\n        /* \"#utility.yul\":4982:4991   */\n      dup4\n        /* \"#utility.yul\":4978:4995   */\n      add\n        /* \"#utility.yul\":4971:5018   */\n      mstore\n        /* \"#utility.yul\":5035:5166   */\n      tag_138\n        /* \"#utility.yul\":5161:5165   */\n      dup2\n        /* \"#utility.yul\":5035:5166   */\n      tag_75\n      jump\t// in\n    tag_138:\n        /* \"#utility.yul\":5027:5166   */\n      swap1\n      pop\n        /* \"#utility.yul\":4754:5173   */\n      swap2\n      swap1\n      pop\n      jump\t// out\n        /* \"#utility.yul\":5179:5344   */\n    tag_76:\n        /* \"#utility.yul\":5319:5336   */\n      0x4e6f7420612076616c696461746f720000000000000000000000000000000000\n        /* \"#utility.yul\":5315:5316   */\n      0x00\n        /* \"#utility.yul\":5307:5313   */\n      dup3\n        /* \"#utility.yul\":5303:5317   */\n      add\n        /* \"#utility.yul\":5296:5337   */\n      mstore\n        /* \"#utility.yul\":5179:5344   */\n      pop\n      jump\t// out\n        /* \"#utility.yul\":5350:5716   */\n    tag_77:\n        /* \"#utility.yul\":5492:5495   */\n      0x00\n        /* \"#utility.yul\":5513:5580   */\n      tag_141\n        /* \"#utility.yul\":5577:5579   */\n      0x0f\n        /* \"#utility.yul\":5572:5575   */\n      dup4\n        /* \"#utility.yul\":5513:5580   */\n      tag_73\n      jump\t// in\n    tag_141:\n        /* \"#utility.yul\":5506:5580   */\n      swap2\n      pop\n        /* \"#utility.yul\":5589:5682   */\n      tag_142\n        /* \"#utility.yul\":5678:5681   */\n      dup3\n        /* \"#utility.yul\":5589:5682   */\n      tag_76\n      jump\t// in\n    tag_142:\n        /* \"#utility.yul\":5707:5709   */\n      0x20\n        /* \"#utility.yul\":5702:5705   */\n      dup3\n        /* \"#utility.yul\":5698:5710   */\n      add\n        /* \"#utility.yul\":5691:5710   */\n      swap1\n      pop\n        /* \"#utility.yul\":5350:5716   */\n      swap2\n      swap1\n      pop\n      jump\t// out\n        /* \"#utility.yul\":5722:6141   */\n    tag_50:\n        /* \"#utility.yul\":5888:5892   */\n      0x00\n        /* \"#utility.yul\":5926:5928   */\n      0x20\n        /* \"#utility.yul\":5915:5924   */\n      dup3\n        /* \"#utility.yul\":5911:5929   */\n      add\n        /* \"#utility.yul\":5903:5929   */\n      swap1\n      pop\n        /* \"#utility.yul\":5975:5984   */\n      dup2\n        /* \"#utility.yul\":5969:5973   */\n      dup2\n        /* \"#utility.yul\":5965:5985   */\n      sub\n        /* \"#utility.yul\":5961:5962   */\n      0x00\n        /* \"#utility.yul\":5950:5959   */\n      dup4\n        /* \"#utility.yul\":5946:5963   */\n      add\n        /* \"#utility.yul\":5939:5986   */\n      mstore\n        /* \"#utility.yul\":6003:6134   */\n      tag_144\n        /* \"#utility.yul\":6129:6133   */\n      dup2\n        /* \"#utility.yul\":6003:6134   */\n      tag_77\n      jump\t// in\n    tag_144:\n        /* \"#utility.yul\":5995:6134   */\n      swap1\n      pop\n        /* \"#utility.yul\":5722:6141   */\n      swap2\n      swap1\n      pop\n      jump\t// out\n        /* \"#utility.yul\":6147:6327   */\n    tag_78:\n        /* \"#utility.yul\":6195:6272   */\n      0x4e487b7100000000000000000000000000000000000000000000000000000000\n        /* \"#utility.yul\":6192:6193   */\n      0x00\n        /* \"#utility.yul\":6185:6273   */\n      mstore\n        /* \"#utility.yul\":6292:6296   */\n      0x11\n        /* \"#utility.yul\":6289:6290   */\n      0x04\n        /* \"#utility.yul\":6282:6297   */\n      mstore\n        /* \"#utility.yul\":6316:6320   */\n      0x24\n        /* \"#utility.yul\":6313:6314   */\n      0x00\n        /* \"#utility.yul\":6306:6321   */\n      revert\n        /* \"#utility.yul\":6333:6566   */\n    tag_54:\n        /* \"#utility.yul\":6372:6375   */\n      0x00\n        /* \"#utility.yul\":6395:6419   */\n      tag_147\n        /* \"#utility.yul\":6413:6418   */\n      dup3\n        /* \"#utility.yul\":6395:6419   */\n      tag_58\n      jump\t// in\n    tag_147:\n        /* \"#utility.yul\":6386:6419   */\n      swap2\n      pop\n        /* \"#utility.yul\":6441:6507   */\n      0xffffffffffffffffffffffffffffffffffffffffffffffffffffffffffffffff\n        /* \"#utility.yul\":6434:6439   */\n      dup3\n        /* \"#utility.yul\":6431:6508   */\n      sub\n        /* \"#utility.yul\":6428:6531   */\n      tag_148\n      jumpi\n        /* \"#utility.yul\":6511:6529   */\n      tag_149\n      tag_78\n      jump\t// in\n    tag_149:\n        /* \"#utility.yul\":6428:6531   */\n    tag_148:\n        /* \"#utility.yul\":6558:6559   */\n      0x01\n        /* \"#utility.yul\":6551:6556   */\n      dup3\n        /* \"#utility.yul\":6547:6560   */\n      add\n        /* \"#utility.yul\":6540:6560   */\n      swap1\n      pop\n        /* \"#utility.yul\":6333:6566   */\n      swap2\n      swap1\n      pop\n      jump\t// out\n\n    auxdata: 0xa2646970667358221220ff55526429fe1625a508ebc4fdd57666bb16ee8b9e82f5dea720d1cf47d24bda64736f6c634300081d0033\n}\n",
				"bytecode": {
					"linkReferences": {},
					"object": "6080604052348015600e575f5ffd5b50335f5f6101000a81548173ffffffffffffffffffffffffffffffffffffffff021916908373ffffffffffffffffffffffffffffffffffffffff16021790555061074e8061005b5f395ff3fe608060405234801561000f575f5ffd5b506004361061007b575f3560e01c80637a9c9733116100595780637a9c9733146100e9578063c9da00a614610119578063f851a44014610135578063fa52c7d8146101535761007b565b80633a0c57091461007f5780634d238c8e146100af5780637a992dac146100cb575b5f5ffd5b6100996004803603810190610094919061040b565b610183565b6040516100a6919061044e565b60405180910390f35b6100c960048036038101906100c491906104c1565b61019d565b005b6100d3610283565b6040516100e091906104fb565b60405180910390f35b61010360048036038101906100fe919061040b565b610289565b604051610110919061044e565b60405180910390f35b610133600480360381019061012e919061053e565b61029e565b005b61013d610393565b60405161014a9190610578565b60405180910390f35b61016d600480360381019061016891906104c1565b6103b7565b60405161017a91906105ab565b60405180910390f35b5f60025f8381526020019081526020015f20549050919050565b5f5f9054906101000a900473ffffffffffffffffffffffffffffffffffffffff1673ffffffffffffffffffffffffffffffffffffffff163373ffffffffffffffffffffffffffffffffffffffff161461022b576040517f08c379a00000000000000000000000000000000000000000000000000000000081526004016102229061061e565b60405180910390fd5b600160035f8373ffffffffffffffffffffffffffffffffffffffff1673ffffffffffffffffffffffffffffffffffffffff1681526020019081526020015f205f6101000a81548160ff02191690831515021790555050565b60015481565b6002602052805f5260405f205f915090505481565b60035f3373ffffffffffffffffffffffffffffffffffffffff1673ffffffffffffffffffffffffffffffffffffffff1681526020019081526020015f205f9054906101000a900460ff16610327576040517f08c379a000000000000000000000000000000000000000000000000000000000815260040161031e90610686565b60405180910390fd5b8060025f60015481526020019081526020015f20819055506001547ff2c535759092d16e9334a11dd9b52eca543f1d9cca5ba9d16c472aef009de43282604051610371919061044e565b60405180910390a260015f81548092919061038b906106d1565b919050555050565b5f5f9054906101000a900473ffffffffffffffffffffffffffffffffffffffff1681565b6003602052805f5260405f205f915054906101000a900460ff1681565b5f5ffd5b5f819050919050565b6103ea816103d8565b81146103f4575f5ffd5b50565b5f81359050610405816103e1565b92915050565b5f602082840312156104205761041f6103d4565b5b5f61042d848285016103f7565b91505092915050565b5f819050919050565b61044881610436565b82525050565b5f6020820190506104615f83018461043f565b92915050565b5f73ffffffffffffffffffffffffffffffffffffffff82169050919050565b5f61049082610467565b9050919050565b6104a081610486565b81146104aa575f5ffd5b50565b5f813590506104bb81610497565b92915050565b5f602082840312156104d6576104d56103d4565b5b5f6104e3848285016104ad565b91505092915050565b6104f5816103d8565b82525050565b5f60208201905061050e5f8301846104ec565b92915050565b61051d81610436565b8114610527575f5ffd5b50565b5f8135905061053881610514565b92915050565b5f60208284031215610553576105526103d4565b5b5f6105608482850161052a565b91505092915050565b61057281610486565b82525050565b5f60208201905061058b5f830184610569565b92915050565b5f8115159050919050565b6105a581610591565b82525050565b5f6020820190506105be5f83018461059c565b92915050565b5f82825260208201905092915050565b7f4f6e6c792061646d696e000000000000000000000000000000000000000000005f82015250565b5f610608600a836105c4565b9150610613826105d4565b602082019050919050565b5f6020820190508181035f830152610635816105fc565b9050919050565b7f4e6f7420612076616c696461746f7200000000000000000000000000000000005f82015250565b5f610670600f836105c4565b915061067b8261063c565b602082019050919050565b5f6020820190508181035f83015261069d81610664565b9050919050565b7f4e487b71000000000000000000000000000000000000000000000000000000005f52601160045260245ffd5b5f6106db826103d8565b91507fffffffffffffffffffffffffffffffffffffffffffffffffffffffffffffffff820361070d5761070c6106a4565b5b60018201905091905056fea2646970667358221220ff55526429fe1625a508ebc4fdd57666bb16ee8b9e82f5dea720d1cf47d24bda64736f6c634300081d0033",
					"opcodes": "PUSH1 0x80 PUSH1 0x40 MSTORE CALLVALUE DUP1 ISZERO PUSH1 0xE JUMPI PUSH0 PUSH0 REVERT JUMPDEST POP CALLER PUSH0 PUSH0 PUSH2 0x100 EXP DUP2 SLOAD DUP2 PUSH20 0xFFFFFFFFFFFFFFFFFFFFFFFFFFFFFFFFFFFFFFFF MUL NOT AND SWAP1 DUP4 PUSH20 0xFFFFFFFFFFFFFFFFFFFFFFFFFFFFFFFFFFFFFFFF AND MUL OR SWAP1 SSTORE POP PUSH2 0x74E DUP1 PUSH2 0x5B PUSH0 CODECOPY PUSH0 RETURN INVALID PUSH1 0x80 PUSH1 0x40 MSTORE CALLVALUE DUP1 ISZERO PUSH2 0xF JUMPI PUSH0 PUSH0 REVERT JUMPDEST POP PUSH1 0x4 CALLDATASIZE LT PUSH2 0x7B JUMPI PUSH0 CALLDATALOAD PUSH1 0xE0 SHR DUP1 PUSH4 0x7A9C9733 GT PUSH2 0x59 JUMPI DUP1 PUSH4 0x7A9C9733 EQ PUSH2 0xE9 JUMPI DUP1 PUSH4 0xC9DA00A6 EQ PUSH2 0x119 JUMPI DUP1 PUSH4 0xF851A440 EQ PUSH2 0x135 JUMPI DUP1 PUSH4 0xFA52C7D8 EQ PUSH2 0x153 JUMPI PUSH2 0x7B JUMP JUMPDEST DUP1 PUSH4 0x3A0C5709 EQ PUSH2 0x7F JUMPI DUP1 PUSH4 0x4D238C8E EQ PUSH2 0xAF JUMPI DUP1 PUSH4 0x7A992DAC EQ PUSH2 0xCB JUMPI JUMPDEST PUSH0 PUSH0 REVERT JUMPDEST PUSH2 0x99 PUSH1 0x4 DUP1 CALLDATASIZE SUB DUP2 ADD SWAP1 PUSH2 0x94 SWAP2 SWAP1 PUSH2 0x40B JUMP JUMPDEST PUSH2 0x183 JUMP JUMPDEST PUSH1 0x40 MLOAD PUSH2 0xA6 SWAP2 SWAP1 PUSH2 0x44E JUMP JUMPDEST PUSH1 0x40 MLOAD DUP1 SWAP2 SUB SWAP1 RETURN JUMPDEST PUSH2 0xC9 PUSH1 0x4 DUP1 CALLDATASIZE SUB DUP2 ADD SWAP1 PUSH2 0xC4 SWAP2 SWAP1 PUSH2 0x4C1 JUMP JUMPDEST PUSH2 0x19D JUMP JUMPDEST STOP JUMPDEST PUSH2 0xD3 PUSH2 0x283 JUMP JUMPDEST PUSH1 0x40 MLOAD PUSH2 0xE0 SWAP2 SWAP1 PUSH2 0x4FB JUMP JUMPDEST PUSH1 0x40 MLOAD DUP1 SWAP2 SUB SWAP1 RETURN JUMPDEST PUSH2 0x103 PUSH1 0x4 DUP1 CALLDATASIZE SUB DUP2 ADD SWAP1 PUSH2 0xFE SWAP2 SWAP1 PUSH2 0x40B JUMP JUMPDEST PUSH2 0x289 JUMP JUMPDEST PUSH1 0x40 MLOAD PUSH2 0x110 SWAP2 SWAP1 PUSH2 0x44E JUMP JUMPDEST PUSH1 0x40 MLOAD DUP1 SWAP2 SUB SWAP1 RETURN JUMPDEST PUSH2 0x133 PUSH1 0x4 DUP1 CALLDATASIZE SUB DUP2 ADD SWAP1 PUSH2 0x12E SWAP2 SWAP1 PUSH2 0x53E JUMP JUMPDEST PUSH2 0x29E JUMP JUMPDEST STOP JUMPDEST PUSH2 0x13D PUSH2 0x393 JUMP JUMPDEST PUSH1 0x40 MLOAD PUSH2 0x14A SWAP2 SWAP1 PUSH2 0x578 JUMP JUMPDEST PUSH1 0x40 MLOAD DUP1 SWAP2 SUB SWAP1 RETURN JUMPDEST PUSH2 0x16D PUSH1 0x4 DUP1 CALLDATASIZE SUB DUP2 ADD SWAP1 PUSH2 0x168 SWAP2 SWAP1 PUSH2 0x4C1 JUMP JUMPDEST PUSH2 0x3B7 JUMP JUMPDEST PUSH1 0x40 MLOAD PUSH2 0x17A SWAP2 SWAP1 PUSH2 0x5AB JUMP JUMPDEST PUSH1 0x40 MLOAD DUP1 SWAP2 SUB SWAP1 RETURN JUMPDEST PUSH0 PUSH1 0x2 PUSH0 DUP4 DUP2 MSTORE PUSH1 0x20 ADD SWAP1 DUP2 MSTORE PUSH1 0x20 ADD PUSH0 KECCAK256 SLOAD SWAP1 POP SWAP2 SWAP1 POP JUMP JUMPDEST PUSH0 PUSH0 SWAP1 SLOAD SWAP1 PUSH2 0x100 EXP SWAP1 DIV PUSH20 0xFFFFFFFFFFFFFFFFFFFFFFFFFFFFFFFFFFFFFFFF AND PUSH20 0xFFFFFFFFFFFFFFFFFFFFFFFFFFFFFFFFFFFFFFFF AND CALLER PUSH20 0xFFFFFFFFFFFFFFFFFFFFFFFFFFFFFFFFFFFFFFFF AND EQ PUSH2 0x22B JUMPI PUSH1 0x40 MLOAD PUSH32 0x8C379A000000000000000000000000000000000000000000000000000000000 DUP2 MSTORE PUSH1 0x4 ADD PUSH2 0x222 SWAP1 PUSH2 0x61E JUMP JUMPDEST PUSH1 0x40 MLOAD DUP1 SWAP2 SUB SWAP1 REVERT JUMPDEST PUSH1 0x1 PUSH1 0x3 PUSH0 DUP4 PUSH20 0xFFFFFFFFFFFFFFFFFFFFFFFFFFFFFFFFFFFFFFFF AND PUSH20 0xFFFFFFFFFFFFFFFFFFFFFFFFFFFFFFFFFFFFFFFF AND DUP2 MSTORE PUSH1 0x20 ADD SWAP1 DUP2 MSTORE PUSH1 0x20 ADD PUSH0 KECCAK256 PUSH0 PUSH2 0x100 EXP DUP2 SLOAD DUP2 PUSH1 0xFF MUL NOT AND SWAP1 DUP4 ISZERO ISZERO MUL OR SWAP1 SSTORE POP POP JUMP JUMPDEST PUSH1 0x1 SLOAD DUP2 JUMP JUMPDEST PUSH1 0x2 PUSH1 0x20 MSTORE DUP1 PUSH0 MSTORE PUSH1 0x40 PUSH0 KECCAK256 PUSH0 SWAP2 POP SWAP1 POP SLOAD DUP2 JUMP JUMPDEST PUSH1 0x3 PUSH0 CALLER PUSH20 0xFFFFFFFFFFFFFFFFFFFFFFFFFFFFFFFFFFFFFFFF AND PUSH20 0xFFFFFFFFFFFFFFFFFFFFFFFFFFFFFFFFFFFFFFFF AND DUP2 MSTORE PUSH1 0x20 ADD SWAP1 DUP2 MSTORE PUSH1 0x20 ADD PUSH0 KECCAK256 PUSH0 SWAP1 SLOAD SWAP1 PUSH2 0x100 EXP SWAP1 DIV PUSH1 0xFF AND PUSH2 0x327 JUMPI PUSH1 0x40 MLOAD PUSH32 0x8C379A000000000000000000000000000000000000000000000000000000000 DUP2 MSTORE PUSH1 0x4 ADD PUSH2 0x31E SWAP1 PUSH2 0x686 JUMP JUMPDEST PUSH1 0x40 MLOAD DUP1 SWAP2 SUB SWAP1 REVERT JUMPDEST DUP1 PUSH1 0x2 PUSH0 PUSH1 0x1 SLOAD DUP2 MSTORE PUSH1 0x20 ADD SWAP1 DUP2 MSTORE PUSH1 0x20 ADD PUSH0 KECCAK256 DUP2 SWAP1 SSTORE POP PUSH1 0x1 SLOAD PUSH32 0xF2C535759092D16E9334A11DD9B52ECA543F1D9CCA5BA9D16C472AEF009DE432 DUP3 PUSH1 0x40 MLOAD PUSH2 0x371 SWAP2 SWAP1 PUSH2 0x44E JUMP JUMPDEST PUSH1 0x40 MLOAD DUP1 SWAP2 SUB SWAP1 LOG2 PUSH1 0x1 PUSH0 DUP2 SLOAD DUP1 SWAP3 SWAP2 SWAP1 PUSH2 0x38B SWAP1 PUSH2 0x6D1 JUMP JUMPDEST SWAP2 SWAP1 POP SSTORE POP POP JUMP JUMPDEST PUSH0 PUSH0 SWAP1 SLOAD SWAP1 PUSH2 0x100 EXP SWAP1 DIV PUSH20 0xFFFFFFFFFFFFFFFFFFFFFFFFFFFFFFFFFFFFFFFF AND DUP2 JUMP JUMPDEST PUSH1 0x3 PUSH1 0x20 MSTORE DUP1 PUSH0 MSTORE PUSH1 0x40 PUSH0 KECCAK256 PUSH0 SWAP2 POP SLOAD SWAP1 PUSH2 0x100 EXP SWAP1 DIV PUSH1 0xFF AND DUP2 JUMP JUMPDEST PUSH0 PUSH0 REVERT JUMPDEST PUSH0 DUP2 SWAP1 POP SWAP2 SWAP1 POP JUMP JUMPDEST PUSH2 0x3EA DUP2 PUSH2 0x3D8 JUMP JUMPDEST DUP2 EQ PUSH2 0x3F4 JUMPI PUSH0 PUSH0 REVERT JUMPDEST POP JUMP JUMPDEST PUSH0 DUP2 CALLDATALOAD SWAP1 POP PUSH2 0x405 DUP2 PUSH2 0x3E1 JUMP JUMPDEST SWAP3 SWAP2 POP POP JUMP JUMPDEST PUSH0 PUSH1 0x20 DUP3 DUP5 SUB SLT ISZERO PUSH2 0x420 JUMPI PUSH2 0x41F PUSH2 0x3D4 JUMP JUMPDEST JUMPDEST PUSH0 PUSH2 0x42D DUP5 DUP3 DUP6 ADD PUSH2 0x3F7 JUMP JUMPDEST SWAP2 POP POP SWAP3 SWAP2 POP POP JUMP JUMPDEST PUSH0 DUP2 SWAP1 POP SWAP2 SWAP1 POP JUMP JUMPDEST PUSH2 0x448 DUP2 PUSH2 0x436 JUMP JUMPDEST DUP3 MSTORE POP POP JUMP JUMPDEST PUSH0 PUSH1 0x20 DUP3 ADD SWAP1 POP PUSH2 0x461 PUSH0 DUP4 ADD DUP5 PUSH2 0x43F JUMP JUMPDEST SWAP3 SWAP2 POP POP JUMP JUMPDEST PUSH0 PUSH20 0xFFFFFFFFFFFFFFFFFFFFFFFFFFFFFFFFFFFFFFFF DUP3 AND SWAP1 POP SWAP2 SWAP1 POP JUMP JUMPDEST PUSH0 PUSH2 0x490 DUP3 PUSH2 0x467 JUMP JUMPDEST SWAP1 POP SWAP2 SWAP1 POP JUMP JUMPDEST PUSH2 0x4A0 DUP2 PUSH2 0x486 JUMP JUMPDEST DUP2 EQ PUSH2 0x4AA JUMPI PUSH0 PUSH0 REVERT JUMPDEST POP JUMP JUMPDEST PUSH0 DUP2 CALLDATALOAD SWAP1 POP PUSH2 0x4BB DUP2 PUSH2 0x497 JUMP JUMPDEST SWAP3 SWAP2 POP POP JUMP JUMPDEST PUSH0 PUSH1 0x20 DUP3 DUP5 SUB SLT ISZERO PUSH2 0x4D6 JUMPI PUSH2 0x4D5 PUSH2 0x3D4 JUMP JUMPDEST JUMPDEST PUSH0 PUSH2 0x4E3 DUP5 DUP3 DUP6 ADD PUSH2 0x4AD JUMP JUMPDEST SWAP2 POP POP SWAP3 SWAP2 POP POP JUMP JUMPDEST PUSH2 0x4F5 DUP2 PUSH2 0x3D8 JUMP JUMPDEST DUP3 MSTORE POP POP JUMP JUMPDEST PUSH0 PUSH1 0x20 DUP3 ADD SWAP1 POP PUSH2 0x50E PUSH0 DUP4 ADD DUP5 PUSH2 0x4EC JUMP JUMPDEST SWAP3 SWAP2 POP POP JUMP JUMPDEST PUSH2 0x51D DUP2 PUSH2 0x436 JUMP JUMPDEST DUP2 EQ PUSH2 0x527 JUMPI PUSH0 PUSH0 REVERT JUMPDEST POP JUMP JUMPDEST PUSH0 DUP2 CALLDATALOAD SWAP1 POP PUSH2 0x538 DUP2 PUSH2 0x514 JUMP JUMPDEST SWAP3 SWAP2 POP POP JUMP JUMPDEST PUSH0 PUSH1 0x20 DUP3 DUP5 SUB SLT ISZERO PUSH2 0x553 JUMPI PUSH2 0x552 PUSH2 0x3D4 JUMP JUMPDEST JUMPDEST PUSH0 PUSH2 0x560 DUP5 DUP3 DUP6 ADD PUSH2 0x52A JUMP JUMPDEST SWAP2 POP POP SWAP3 SWAP2 POP POP JUMP JUMPDEST PUSH2 0x572 DUP2 PUSH2 0x486 JUMP JUMPDEST DUP3 MSTORE POP POP JUMP JUMPDEST PUSH0 PUSH1 0x20 DUP3 ADD SWAP1 POP PUSH2 0x58B PUSH0 DUP4 ADD DUP5 PUSH2 0x569 JUMP JUMPDEST SWAP3 SWAP2 POP POP JUMP JUMPDEST PUSH0 DUP2 ISZERO ISZERO SWAP1 POP SWAP2 SWAP1 POP JUMP JUMPDEST PUSH2 0x5A5 DUP2 PUSH2 0x591 JUMP JUMPDEST DUP3 MSTORE POP POP JUMP JUMPDEST PUSH0 PUSH1 0x20 DUP3 ADD SWAP1 POP PUSH2 0x5BE PUSH0 DUP4 ADD DUP5 PUSH2 0x59C JUMP JUMPDEST SWAP3 SWAP2 POP POP JUMP JUMPDEST PUSH0 DUP3 DUP3 MSTORE PUSH1 0x20 DUP3 ADD SWAP1 POP SWAP3 SWAP2 POP POP JUMP JUMPDEST PUSH32 0x4F6E6C792061646D696E00000000000000000000000000000000000000000000 PUSH0 DUP3 ADD MSTORE POP JUMP JUMPDEST PUSH0 PUSH2 0x608 PUSH1 0xA DUP4 PUSH2 0x5C4 JUMP JUMPDEST SWAP2 POP PUSH2 0x613 DUP3 PUSH2 0x5D4 JUMP JUMPDEST PUSH1 0x20 DUP3 ADD SWAP1 POP SWAP2 SWAP1 POP JUMP JUMPDEST PUSH0 PUSH1 0x20 DUP3 ADD SWAP1 POP DUP2 DUP2 SUB PUSH0 DUP4 ADD MSTORE PUSH2 0x635 DUP2 PUSH2 0x5FC JUMP JUMPDEST SWAP1 POP SWAP2 SWAP1 POP JUMP JUMPDEST PUSH32 0x4E6F7420612076616C696461746F720000000000000000000000000000000000 PUSH0 DUP3 ADD MSTORE POP JUMP JUMPDEST PUSH0 PUSH2 0x670 PUSH1 0xF DUP4 PUSH2 0x5C4 JUMP JUMPDEST SWAP2 POP PUSH2 0x67B DUP3 PUSH2 0x63C JUMP JUMPDEST PUSH1 0x20 DUP3 ADD SWAP1 POP SWAP2 SWAP1 POP JUMP JUMPDEST PUSH0 PUSH1 0x20 DUP3 ADD SWAP1 POP DUP2 DUP2 SUB PUSH0 DUP4 ADD MSTORE PUSH2 0x69D DUP2 PUSH2 0x664 JUMP JUMPDEST SWAP1 POP SWAP2 SWAP1 POP JUMP JUMPDEST PUSH32 0x4E487B7100000000000000000000000000000000000000000000000000000000 PUSH0 MSTORE PUSH1 0x11 PUSH1 0x4 MSTORE PUSH1 0x24 PUSH0 REVERT JUMPDEST PUSH0 PUSH2 0x6DB DUP3 PUSH2 0x3D8 JUMP JUMPDEST SWAP2 POP PUSH32 0xFFFFFFFFFFFFFFFFFFFFFFFFFFFFFFFFFFFFFFFFFFFFFFFFFFFFFFFFFFFFFFFF DUP3 SUB PUSH2 0x70D JUMPI PUSH2 0x70C PUSH2 0x6A4 JUMP JUMPDEST JUMPDEST PUSH1 0x1 DUP3 ADD SWAP1 POP SWAP2 SWAP1 POP JUMP INVALID LOG2 PUSH5 0x6970667358 0x22 SLT KECCAK256 SELFDESTRUCT SSTORE MSTORE PUSH5 0x29FE1625A5 ADDMOD 0xEB 0xC4 REVERT 0xD5 PUSH23 0x66BB16EE8B9E82F5DEA720D1CF47D24BDA64736F6C6343 STOP ADDMOD SAR STOP CALLER "
				},
				"gasEstimates": {
					"creation": {
						"codeDepositCost": "374000",
						"executionCost": "24673",
						"totalCost": "398673"
					},
					"external": {
						"addValidator(address)": "26994",
						"admin()": "2551",
						"blockId()": "2470",
						"finalizeBlock(bytes32)": "infinite",
						"finalizedBlockHashes(uint256)": "2754",
						"getFinalizedBlock(uint256)": "2770",
						"validators(address)": "2899"
					}
				},
				"methodIdentifiers": {
					"addValidator(address)": "4d238c8e",
					"admin()": "f851a440",
					"blockId()": "7a992dac",
					"finalizeBlock(bytes32)": "c9da00a6",
					"finalizedBlockHashes(uint256)": "7a9c9733",
					"getFinalizedBlock(uint256)": "3a0c5709",
					"validators(address)": "fa52c7d8"
				}
			},
			"storageLayout": {
				"storage": [
					{
						"astId": 4,
						"contract": "L/layer-1 blockchain.sol:Layer1Finality",
						"label": "admin",
						"offset": 0,
						"slot": "0",
						"type": "t_address"
					},
					{
						"astId": 6,
						"contract": "L/layer-1 blockchain.sol:Layer1Finality",
						"label": "blockId",
						"offset": 0,
						"slot": "1",
						"type": "t_uint256"
					},
					{
						"astId": 10,
						"contract": "L/layer-1 blockchain.sol:Layer1Finality",
						"label": "finalizedBlockHashes",
						"offset": 0,
						"slot": "2",
						"type": "t_mapping(t_uint256,t_bytes32)"
					},
					{
						"astId": 14,
						"contract": "L/layer-1 blockchain.sol:Layer1Finality",
						"label": "validators",
						"offset": 0,
						"slot": "3",
						"type": "t_mapping(t_address,t_bool)"
					}
				],
				"types": {
					"t_address": {
						"encoding": "inplace",
						"label": "address",
						"numberOfBytes": "20"
					},
					"t_bool": {
						"encoding": "inplace",
						"label": "bool",
						"numberOfBytes": "1"
					},
					"t_bytes32": {
						"encoding": "inplace",
						"label": "bytes32",
						"numberOfBytes": "32"
					},
					"t_mapping(t_address,t_bool)": {
						"encoding": "mapping",
						"key": "t_address",
						"label": "mapping(address => bool)",
						"numberOfBytes": "32",
						"value": "t_bool"
					},
					"t_mapping(t_uint256,t_bytes32)": {
						"encoding": "mapping",
						"key": "t_uint256",
						"label": "mapping(uint256 => bytes32)",
						"numberOfBytes": "32",
						"value": "t_bytes32"
					},
					"t_uint256": {
						"encoding": "inplace",
						"label": "uint256",
						"numberOfBytes": "32"
					}
				}
			},
			"userdoc": {
				"kind": "user",
				"methods": {},
				"notice": "Simulates validator-based block finalization (abstracted L1 logic)",
				"version": 1
			}
		}
	}
}