{
	"L/lightningNetworkTypes.sol": {
		"EventSyncedNode": {
			"abi": [
				{
					"anonymous": false,
					"inputs": [
						{
							"indexed": false,
							"internalType": "uint256",
							"name": "blockNumber",
							"type": "uint256"
						},
						{
							"indexed": false,
							"internalType": "bytes32",
							"name": "root",
							"type": "bytes32"
						}
					],
					"name": "SyncedFromL2",
					"type": "event"
				},
				{
					"inputs": [
						{
							"internalType": "uint256",
							"name": "",
							"type": "uint256"
						}
					],
					"name": "l2Roots",
					"outputs": [
						{
							"internalType": "bytes32",
							"name": "",
							"type": "bytes32"
						}
					],
					"stateMutability": "view",
					"type": "function"
				},
				{
					"inputs": [
						{
							"internalType": "uint256",
							"name": "blockNumber",
							"type": "uint256"
						},
						{
							"internalType": "bytes32",
							"name": "root",
							"type": "bytes32"
						}
					],
					"name": "syncL2",
					"outputs": [],
					"stateMutability": "nonpayable",
					"type": "function"
				},
				{
					"inputs": [
						{
							"internalType": "uint256",
							"name": "blockNumber",
							"type": "uint256"
						},
						{
							"internalType": "bytes32",
							"name": "root",
							"type": "bytes32"
						}
					],
					"name": "verifyL2Root",
					"outputs": [
						{
							"internalType": "bool",
							"name": "",
							"type": "bool"
						}
					],
					"stateMutability": "view",
					"type": "function"
				}
			],
			"devdoc": {
				"kind": "dev",
				"methods": {},
				"version": 1
			},
			"evm": {
				"assembly": "    /* \"L/lightningNetworkTypes.sol\":1795:2230  contract EventSyncedNode {... */\n  mstore(0x40, 0x80)\n  callvalue\n  dup1\n  iszero\n  tag_1\n  jumpi\n  revert(0x00, 0x00)\ntag_1:\n  pop\n  dataSize(sub_0)\n  dup1\n  dataOffset(sub_0)\n  0x00\n  codecopy\n  0x00\n  return\nstop\n\nsub_0: assembly {\n        /* \"L/lightningNetworkTypes.sol\":1795:2230  contract EventSyncedNode {... */\n      mstore(0x40, 0x80)\n      callvalue\n      dup1\n      iszero\n      tag_1\n      jumpi\n      revert(0x00, 0x00)\n    tag_1:\n      pop\n      jumpi(tag_2, lt(calldatasize, 0x04))\n      shr(0xe0, calldataload(0x00))\n      dup1\n      0x1e50d65f\n      eq\n      tag_3\n      jumpi\n      dup1\n      0x5ee0b745\n      eq\n      tag_4\n      jumpi\n      dup1\n      0xe7e8ab14\n      eq\n      tag_5\n      jumpi\n    tag_2:\n      revert(0x00, 0x00)\n        /* \"L/lightningNetworkTypes.sol\":1934:2084  function syncL2(uint256 blockNumber, bytes32 root) external {... */\n    tag_3:\n      tag_6\n      0x04\n      dup1\n      calldatasize\n      sub\n      dup2\n      add\n      swap1\n      tag_7\n      swap2\n      swap1\n      tag_8\n      jump\t// in\n    tag_7:\n      tag_9\n      jump\t// in\n    tag_6:\n      stop\n        /* \"L/lightningNetworkTypes.sol\":1885:1927  mapping(uint256 => bytes32) public l2Roots */\n    tag_4:\n      tag_10\n      0x04\n      dup1\n      calldatasize\n      sub\n      dup2\n      add\n      swap1\n      tag_11\n      swap2\n      swap1\n      tag_12\n      jump\t// in\n    tag_11:\n      tag_13\n      jump\t// in\n    tag_10:\n      mload(0x40)\n      tag_14\n      swap2\n      swap1\n      tag_15\n      jump\t// in\n    tag_14:\n      mload(0x40)\n      dup1\n      swap2\n      sub\n      swap1\n      return\n        /* \"L/lightningNetworkTypes.sol\":2090:2228  function verifyL2Root(uint256 blockNumber, bytes32 root) external view returns (bool) {... */\n    tag_5:\n      tag_16\n      0x04\n      dup1\n      calldatasize\n      sub\n      dup2\n      add\n      swap1\n      tag_17\n      swap2\n      swap1\n      tag_8\n      jump\t// in\n    tag_17:\n      tag_18\n      jump\t// in\n    tag_16:\n      mload(0x40)\n      tag_19\n      swap2\n      swap1\n      tag_20\n      jump\t// in\n    tag_19:\n      mload(0x40)\n      dup1\n      swap2\n      sub\n      swap1\n      return\n        /* \"L/lightningNetworkTypes.sol\":1934:2084  function syncL2(uint256 blockNumber, bytes32 root) external {... */\n    tag_9:\n        /* \"L/lightningNetworkTypes.sol\":2027:2031  root */\n      dup1\n        /* \"L/lightningNetworkTypes.sol\":2004:2011  l2Roots */\n      0x00\n        /* \"L/lightningNetworkTypes.sol\":2004:2024  l2Roots[blockNumber] */\n      0x00\n        /* \"L/lightningNetworkTypes.sol\":2012:2023  blockNumber */\n      dup5\n        /* \"L/lightningNetworkTypes.sol\":2004:2024  l2Roots[blockNumber] */\n      dup2\n      mstore\n      0x20\n      add\n      swap1\n      dup2\n      mstore\n      0x20\n      add\n      0x00\n      keccak256\n        /* \"L/lightningNetworkTypes.sol\":2004:2031  l2Roots[blockNumber] = root */\n      dup2\n      swap1\n      sstore\n      pop\n        /* \"L/lightningNetworkTypes.sol\":2046:2077  SyncedFromL2(blockNumber, root) */\n      0x8e29ff70f001fe6c54062099d7e06a3793d5f7fa8e2996f167ff5846fa3968c6\n        /* \"L/lightningNetworkTypes.sol\":2059:2070  blockNumber */\n      dup3\n        /* \"L/lightningNetworkTypes.sol\":2072:2076  root */\n      dup3\n        /* \"L/lightningNetworkTypes.sol\":2046:2077  SyncedFromL2(blockNumber, root) */\n      mload(0x40)\n      tag_22\n      swap3\n      swap2\n      swap1\n      tag_23\n      jump\t// in\n    tag_22:\n      mload(0x40)\n      dup1\n      swap2\n      sub\n      swap1\n      log1\n        /* \"L/lightningNetworkTypes.sol\":1934:2084  function syncL2(uint256 blockNumber, bytes32 root) external {... */\n      pop\n      pop\n      jump\t// out\n        /* \"L/lightningNetworkTypes.sol\":1885:1927  mapping(uint256 => bytes32) public l2Roots */\n    tag_13:\n      mstore(0x20, 0x00)\n      dup1\n      0x00\n      mstore\n      keccak256(0x00, 0x40)\n      0x00\n      swap2\n      pop\n      swap1\n      pop\n      sload\n      dup2\n      jump\t// out\n        /* \"L/lightningNetworkTypes.sol\":2090:2228  function verifyL2Root(uint256 blockNumber, bytes32 root) external view returns (bool) {... */\n    tag_18:\n        /* \"L/lightningNetworkTypes.sol\":2170:2174  bool */\n      0x00\n        /* \"L/lightningNetworkTypes.sol\":2217:2221  root */\n      dup2\n        /* \"L/lightningNetworkTypes.sol\":2193:2200  l2Roots */\n      0x00\n        /* \"L/lightningNetworkTypes.sol\":2193:2213  l2Roots[blockNumber] */\n      0x00\n        /* \"L/lightningNetworkTypes.sol\":2201:2212  blockNumber */\n      dup6\n        /* \"L/lightningNetworkTypes.sol\":2193:2213  l2Roots[blockNumber] */\n      dup2\n      mstore\n      0x20\n      add\n      swap1\n      dup2\n      mstore\n      0x20\n      add\n      0x00\n      keccak256\n      sload\n        /* \"L/lightningNetworkTypes.sol\":2193:2221  l2Roots[blockNumber] == root */\n      eq\n        /* \"L/lightningNetworkTypes.sol\":2186:2221  return l2Roots[blockNumber] == root */\n      swap1\n      pop\n        /* \"L/lightningNetworkTypes.sol\":2090:2228  function verifyL2Root(uint256 blockNumber, bytes32 root) external view returns (bool) {... */\n      swap3\n      swap2\n      pop\n      pop\n      jump\t// out\n        /* \"#utility.yul\":88:205   */\n    tag_26:\n        /* \"#utility.yul\":197:198   */\n      0x00\n        /* \"#utility.yul\":194:195   */\n      0x00\n        /* \"#utility.yul\":187:199   */\n      revert\n        /* \"#utility.yul\":334:411   */\n    tag_28:\n        /* \"#utility.yul\":371:378   */\n      0x00\n        /* \"#utility.yul\":400:405   */\n      dup2\n        /* \"#utility.yul\":389:405   */\n      swap1\n      pop\n        /* \"#utility.yul\":334:411   */\n      swap2\n      swap1\n      pop\n      jump\t// out\n        /* \"#utility.yul\":417:539   */\n    tag_29:\n        /* \"#utility.yul\":490:514   */\n      tag_44\n        /* \"#utility.yul\":508:513   */\n      dup2\n        /* \"#utility.yul\":490:514   */\n      tag_28\n      jump\t// in\n    tag_44:\n        /* \"#utility.yul\":483:488   */\n      dup2\n        /* \"#utility.yul\":480:515   */\n      eq\n        /* \"#utility.yul\":470:533   */\n      tag_45\n      jumpi\n        /* \"#utility.yul\":529:530   */\n      0x00\n        /* \"#utility.yul\":526:527   */\n      0x00\n        /* \"#utility.yul\":519:531   */\n      revert\n        /* \"#utility.yul\":470:533   */\n    tag_45:\n        /* \"#utility.yul\":417:539   */\n      pop\n      jump\t// out\n        /* \"#utility.yul\":545:684   */\n    tag_30:\n        /* \"#utility.yul\":591:596   */\n      0x00\n        /* \"#utility.yul\":629:635   */\n      dup2\n        /* \"#utility.yul\":616:636   */\n      calldataload\n        /* \"#utility.yul\":607:636   */\n      swap1\n      pop\n        /* \"#utility.yul\":645:678   */\n      tag_47\n        /* \"#utility.yul\":672:677   */\n      dup2\n        /* \"#utility.yul\":645:678   */\n      tag_29\n      jump\t// in\n    tag_47:\n        /* \"#utility.yul\":545:684   */\n      swap3\n      swap2\n      pop\n      pop\n      jump\t// out\n        /* \"#utility.yul\":690:767   */\n    tag_31:\n        /* \"#utility.yul\":727:734   */\n      0x00\n        /* \"#utility.yul\":756:761   */\n      dup2\n        /* \"#utility.yul\":745:761   */\n      swap1\n      pop\n        /* \"#utility.yul\":690:767   */\n      swap2\n      swap1\n      pop\n      jump\t// out\n        /* \"#utility.yul\":773:895   */\n    tag_32:\n        /* \"#utility.yul\":846:870   */\n      tag_50\n        /* \"#utility.yul\":864:869   */\n      dup2\n        /* \"#utility.yul\":846:870   */\n      tag_31\n      jump\t// in\n    tag_50:\n        /* \"#utility.yul\":839:844   */\n      dup2\n        /* \"#utility.yul\":836:871   */\n      eq\n        /* \"#utility.yul\":826:889   */\n      tag_51\n      jumpi\n        /* \"#utility.yul\":885:886   */\n      0x00\n        /* \"#utility.yul\":882:883   */\n      0x00\n        /* \"#utility.yul\":875:887   */\n      revert\n        /* \"#utility.yul\":826:889   */\n    tag_51:\n        /* \"#utility.yul\":773:895   */\n      pop\n      jump\t// out\n        /* \"#utility.yul\":901:1040   */\n    tag_33:\n        /* \"#utility.yul\":947:952   */\n      0x00\n        /* \"#utility.yul\":985:991   */\n      dup2\n        /* \"#utility.yul\":972:992   */\n      calldataload\n        /* \"#utility.yul\":963:992   */\n      swap1\n      pop\n        /* \"#utility.yul\":1001:1034   */\n      tag_53\n        /* \"#utility.yul\":1028:1033   */\n      dup2\n        /* \"#utility.yul\":1001:1034   */\n      tag_32\n      jump\t// in\n    tag_53:\n        /* \"#utility.yul\":901:1040   */\n      swap3\n      swap2\n      pop\n      pop\n      jump\t// out\n        /* \"#utility.yul\":1046:1520   */\n    tag_8:\n        /* \"#utility.yul\":1114:1120   */\n      0x00\n        /* \"#utility.yul\":1122:1128   */\n      0x00\n        /* \"#utility.yul\":1171:1173   */\n      0x40\n        /* \"#utility.yul\":1159:1168   */\n      dup4\n        /* \"#utility.yul\":1150:1157   */\n      dup6\n        /* \"#utility.yul\":1146:1169   */\n      sub\n        /* \"#utility.yul\":1142:1174   */\n      slt\n        /* \"#utility.yul\":1139:1258   */\n      iszero\n      tag_55\n      jumpi\n        /* \"#utility.yul\":1177:1256   */\n      tag_56\n      tag_26\n      jump\t// in\n    tag_56:\n        /* \"#utility.yul\":1139:1258   */\n    tag_55:\n        /* \"#utility.yul\":1297:1298   */\n      0x00\n        /* \"#utility.yul\":1322:1375   */\n      tag_57\n        /* \"#utility.yul\":1367:1374   */\n      dup6\n        /* \"#utility.yul\":1358:1364   */\n      dup3\n        /* \"#utility.yul\":1347:1356   */\n      dup7\n        /* \"#utility.yul\":1343:1365   */\n      add\n        /* \"#utility.yul\":1322:1375   */\n      tag_30\n      jump\t// in\n    tag_57:\n        /* \"#utility.yul\":1312:1375   */\n      swap3\n      pop\n        /* \"#utility.yul\":1268:1385   */\n      pop\n        /* \"#utility.yul\":1424:1426   */\n      0x20\n        /* \"#utility.yul\":1450:1503   */\n      tag_58\n        /* \"#utility.yul\":1495:1502   */\n      dup6\n        /* \"#utility.yul\":1486:1492   */\n      dup3\n        /* \"#utility.yul\":1475:1484   */\n      dup7\n        /* \"#utility.yul\":1471:1493   */\n      add\n        /* \"#utility.yul\":1450:1503   */\n      tag_33\n      jump\t// in\n    tag_58:\n        /* \"#utility.yul\":1440:1503   */\n      swap2\n      pop\n        /* \"#utility.yul\":1395:1513   */\n      pop\n        /* \"#utility.yul\":1046:1520   */\n      swap3\n      pop\n      swap3\n      swap1\n      pop\n      jump\t// out\n        /* \"#utility.yul\":1526:1855   */\n    tag_12:\n        /* \"#utility.yul\":1585:1591   */\n      0x00\n        /* \"#utility.yul\":1634:1636   */\n      0x20\n        /* \"#utility.yul\":1622:1631   */\n      dup3\n        /* \"#utility.yul\":1613:1620   */\n      dup5\n        /* \"#utility.yul\":1609:1632   */\n      sub\n        /* \"#utility.yul\":1605:1637   */\n      slt\n        /* \"#utility.yul\":1602:1721   */\n      iszero\n      tag_60\n      jumpi\n        /* \"#utility.yul\":1640:1719   */\n      tag_61\n      tag_26\n      jump\t// in\n    tag_61:\n        /* \"#utility.yul\":1602:1721   */\n    tag_60:\n        /* \"#utility.yul\":1760:1761   */\n      0x00\n        /* \"#utility.yul\":1785:1838   */\n      tag_62\n        /* \"#utility.yul\":1830:1837   */\n      dup5\n        /* \"#utility.yul\":1821:1827   */\n      dup3\n        /* \"#utility.yul\":1810:1819   */\n      dup6\n        /* \"#utility.yul\":1806:1828   */\n      add\n        /* \"#utility.yul\":1785:1838   */\n      tag_30\n      jump\t// in\n    tag_62:\n        /* \"#utility.yul\":1775:1838   */\n      swap2\n      pop\n        /* \"#utility.yul\":1731:1848   */\n      pop\n        /* \"#utility.yul\":1526:1855   */\n      swap3\n      swap2\n      pop\n      pop\n      jump\t// out\n        /* \"#utility.yul\":1861:1979   */\n    tag_34:\n        /* \"#utility.yul\":1948:1972   */\n      tag_64\n        /* \"#utility.yul\":1966:1971   */\n      dup2\n        /* \"#utility.yul\":1948:1972   */\n      tag_31\n      jump\t// in\n    tag_64:\n        /* \"#utility.yul\":1943:1946   */\n      dup3\n        /* \"#utility.yul\":1936:1973   */\n      mstore\n        /* \"#utility.yul\":1861:1979   */\n      pop\n      pop\n      jump\t// out\n        /* \"#utility.yul\":1985:2207   */\n    tag_15:\n        /* \"#utility.yul\":2078:2082   */\n      0x00\n        /* \"#utility.yul\":2116:2118   */\n      0x20\n        /* \"#utility.yul\":2105:2114   */\n      dup3\n        /* \"#utility.yul\":2101:2119   */\n      add\n        /* \"#utility.yul\":2093:2119   */\n      swap1\n      pop\n        /* \"#utility.yul\":2129:2200   */\n      tag_66\n        /* \"#utility.yul\":2197:2198   */\n      0x00\n        /* \"#utility.yul\":2186:2195   */\n      dup4\n        /* \"#utility.yul\":2182:2199   */\n      add\n        /* \"#utility.yul\":2173:2179   */\n      dup5\n        /* \"#utility.yul\":2129:2200   */\n      tag_34\n      jump\t// in\n    tag_66:\n        /* \"#utility.yul\":1985:2207   */\n      swap3\n      swap2\n      pop\n      pop\n      jump\t// out\n        /* \"#utility.yul\":2213:2303   */\n    tag_35:\n        /* \"#utility.yul\":2247:2254   */\n      0x00\n        /* \"#utility.yul\":2290:2295   */\n      dup2\n        /* \"#utility.yul\":2283:2296   */\n      iszero\n        /* \"#utility.yul\":2276:2297   */\n      iszero\n        /* \"#utility.yul\":2265:2297   */\n      swap1\n      pop\n        /* \"#utility.yul\":2213:2303   */\n      swap2\n      swap1\n      pop\n      jump\t// out\n        /* \"#utility.yul\":2309:2418   */\n    tag_36:\n        /* \"#utility.yul\":2390:2411   */\n      tag_69\n        /* \"#utility.yul\":2405:2410   */\n      dup2\n        /* \"#utility.yul\":2390:2411   */\n      tag_35\n      jump\t// in\n    tag_69:\n        /* \"#utility.yul\":2385:2388   */\n      dup3\n        /* \"#utility.yul\":2378:2412   */\n      mstore\n        /* \"#utility.yul\":2309:2418   */\n      pop\n      pop\n      jump\t// out\n        /* \"#utility.yul\":2424:2634   */\n    tag_20:\n        /* \"#utility.yul\":2511:2515   */\n      0x00\n        /* \"#utility.yul\":2549:2551   */\n      0x20\n        /* \"#utility.yul\":2538:2547   */\n      dup3\n        /* \"#utility.yul\":2534:2552   */\n      add\n        /* \"#utility.yul\":2526:2552   */\n      swap1\n      pop\n        /* \"#utility.yul\":2562:2627   */\n      tag_71\n        /* \"#utility.yul\":2624:2625   */\n      0x00\n        /* \"#utility.yul\":2613:2622   */\n      dup4\n        /* \"#utility.yul\":2609:2626   */\n      add\n        /* \"#utility.yul\":2600:2606   */\n      dup5\n        /* \"#utility.yul\":2562:2627   */\n      tag_36\n      jump\t// in\n    tag_71:\n        /* \"#utility.yul\":2424:2634   */\n      swap3\n      swap2\n      pop\n      pop\n      jump\t// out\n        /* \"#utility.yul\":2640:2758   */\n    tag_37:\n        /* \"#utility.yul\":2727:2751   */\n      tag_73\n        /* \"#utility.yul\":2745:2750   */\n      dup2\n        /* \"#utility.yul\":2727:2751   */\n      tag_28\n      jump\t// in\n    tag_73:\n        /* \"#utility.yul\":2722:2725   */\n      dup3\n        /* \"#utility.yul\":2715:2752   */\n      mstore\n        /* \"#utility.yul\":2640:2758   */\n      pop\n      pop\n      jump\t// out\n        /* \"#utility.yul\":2764:3096   */\n    tag_23:\n        /* \"#utility.yul\":2885:2889   */\n      0x00\n        /* \"#utility.yul\":2923:2925   */\n      0x40\n        /* \"#utility.yul\":2912:2921   */\n      dup3\n        /* \"#utility.yul\":2908:2926   */\n      add\n        /* \"#utility.yul\":2900:2926   */\n      swap1\n      pop\n        /* \"#utility.yul\":2936:3007   */\n      tag_75\n        /* \"#utility.yul\":3004:3005   */\n      0x00\n        /* \"#utility.yul\":2993:3002   */\n      dup4\n        /* \"#utility.yul\":2989:3006   */\n      add\n        /* \"#utility.yul\":2980:2986   */\n      dup6\n        /* \"#utility.yul\":2936:3007   */\n      tag_37\n      jump\t// in\n    tag_75:\n        /* \"#utility.yul\":3017:3089   */\n      tag_76\n        /* \"#utility.yul\":3085:3087   */\n      0x20\n        /* \"#utility.yul\":3074:3083   */\n      dup4\n        /* \"#utility.yul\":3070:3088   */\n      add\n        /* \"#utility.yul\":3061:3067   */\n      dup5\n        /* \"#utility.yul\":3017:3089   */\n      tag_34\n      jump\t// in\n    tag_76:\n        /* \"#utility.yul\":2764:3096   */\n      swap4\n      swap3\n      pop\n      pop\n      pop\n      jump\t// out\n\n    auxdata: 0xa2646970667358221220eb0049ec926632cfb57f02f8fbff7e132c0f7e605ddf7bfc7f19f6a90b10773164736f6c634300081d0033\n}\n",
				"bytecode": {
					"linkReferences": {},
					"object": "6080604052348015600e575f5ffd5b506102db8061001c5f395ff3fe608060405234801561000f575f5ffd5b506004361061003f575f3560e01c80631e50d65f146100435780635ee0b7451461005f578063e7e8ab141461008f575b5f5ffd5b61005d600480360381019061005891906101ab565b6100bf565b005b610079600480360381019061007491906101e9565b610111565b6040516100869190610223565b60405180910390f35b6100a960048036038101906100a491906101ab565b610125565b6040516100b69190610256565b60405180910390f35b805f5f8481526020019081526020015f20819055507f8e29ff70f001fe6c54062099d7e06a3793d5f7fa8e2996f167ff5846fa3968c6828260405161010592919061027e565b60405180910390a15050565b5f602052805f5260405f205f915090505481565b5f815f5f8581526020019081526020015f205414905092915050565b5f5ffd5b5f819050919050565b61015781610145565b8114610161575f5ffd5b50565b5f813590506101728161014e565b92915050565b5f819050919050565b61018a81610178565b8114610194575f5ffd5b50565b5f813590506101a581610181565b92915050565b5f5f604083850312156101c1576101c0610141565b5b5f6101ce85828601610164565b92505060206101df85828601610197565b9150509250929050565b5f602082840312156101fe576101fd610141565b5b5f61020b84828501610164565b91505092915050565b61021d81610178565b82525050565b5f6020820190506102365f830184610214565b92915050565b5f8115159050919050565b6102508161023c565b82525050565b5f6020820190506102695f830184610247565b92915050565b61027881610145565b82525050565b5f6040820190506102915f83018561026f565b61029e6020830184610214565b939250505056fea2646970667358221220eb0049ec926632cfb57f02f8fbff7e132c0f7e605ddf7bfc7f19f6a90b10773164736f6c634300081d0033",
					"opcodes": "PUSH1 0x80 PUSH1 0x40 MSTORE CALLVALUE DUP1 ISZERO PUSH1 0xE JUMPI PUSH0 PUSH0 REVERT JUMPDEST POP PUSH2 0x2DB DUP1 PUSH2 0x1C PUSH0 CODECOPY PUSH0 RETURN INVALID PUSH1 0x80 PUSH1 0x40 MSTORE CALLVALUE DUP1 ISZERO PUSH2 0xF JUMPI PUSH0 PUSH0 REVERT JUMPDEST POP PUSH1 0x4 CALLDATASIZE LT PUSH2 0x3F JUMPI PUSH0 CALLDATALOAD PUSH1 0xE0 SHR DUP1 PUSH4 0x1E50D65F EQ PUSH2 0x43 JUMPI DUP1 PUSH4 0x5EE0B745 EQ PUSH2 0x5F JUMPI DUP1 PUSH4 0xE7E8AB14 EQ PUSH2 0x8F JUMPI JUMPDEST PUSH0 PUSH0 REVERT JUMPDEST PUSH2 0x5D PUSH1 0x4 DUP1 CALLDATASIZE SUB DUP2 ADD SWAP1 PUSH2 0x58 SWAP2 SWAP1 PUSH2 0x1AB JUMP JUMPDEST PUSH2 0xBF JUMP JUMPDEST STOP JUMPDEST PUSH2 0x79 PUSH1 0x4 DUP1 CALLDATASIZE SUB DUP2 ADD SWAP1 PUSH2 0x74 SWAP2 SWAP1 PUSH2 0x1E9 JUMP JUMPDEST PUSH2 0x111 JUMP JUMPDEST PUSH1 0x40 MLOAD PUSH2 0x86 SWAP2 SWAP1 PUSH2 0x223 JUMP JUMPDEST PUSH1 0x40 MLOAD DUP1 SWAP2 SUB SWAP1 RETURN JUMPDEST PUSH2 0xA9 PUSH1 0x4 DUP1 CALLDATASIZE SUB DUP2 ADD SWAP1 PUSH2 0xA4 SWAP2 SWAP1 PUSH2 0x1AB JUMP JUMPDEST PUSH2 0x125 JUMP JUMPDEST PUSH1 0x40 MLOAD PUSH2 0xB6 SWAP2 SWAP1 PUSH2 0x256 JUMP JUMPDEST PUSH1 0x40 MLOAD DUP1 SWAP2 SUB SWAP1 RETURN JUMPDEST DUP1 PUSH0 PUSH0 DUP5 DUP2 MSTORE PUSH1 0x20 ADD SWAP1 DUP2 MSTORE PUSH1 0x20 ADD PUSH0 KECCAK256 DUP2 SWAP1 SSTORE POP PUSH32 0x8E29FF70F001FE6C54062099D7E06A3793D5F7FA8E2996F167FF5846FA3968C6 DUP3 DUP3 PUSH1 0x40 MLOAD PUSH2 0x105 SWAP3 SWAP2 SWAP1 PUSH2 0x27E JUMP JUMPDEST PUSH1 0x40 MLOAD DUP1 SWAP2 SUB SWAP1 LOG1 POP POP JUMP JUMPDEST PUSH0 PUSH1 0x20 MSTORE DUP1 PUSH0 MSTORE PUSH1 0x40 PUSH0 KECCAK256 PUSH0 SWAP2 POP SWAP1 POP SLOAD DUP2 JUMP JUMPDEST PUSH0 DUP2 PUSH0 PUSH0 DUP6 DUP2 MSTORE PUSH1 0x20 ADD SWAP1 DUP2 MSTORE PUSH1 0x20 ADD PUSH0 KECCAK256 SLOAD EQ SWAP1 POP SWAP3 SWAP2 POP POP JUMP JUMPDEST PUSH0 PUSH0 REVERT JUMPDEST PUSH0 DUP2 SWAP1 POP SWAP2 SWAP1 POP JUMP JUMPDEST PUSH2 0x157 DUP2 PUSH2 0x145 JUMP JUMPDEST DUP2 EQ PUSH2 0x161 JUMPI PUSH0 PUSH0 REVERT JUMPDEST POP JUMP JUMPDEST PUSH0 DUP2 CALLDATALOAD SWAP1 POP PUSH2 0x172 DUP2 PUSH2 0x14E JUMP JUMPDEST SWAP3 SWAP2 POP POP JUMP JUMPDEST PUSH0 DUP2 SWAP1 POP SWAP2 SWAP1 POP JUMP JUMPDEST PUSH2 0x18A DUP2 PUSH2 0x178 JUMP JUMPDEST DUP2 EQ PUSH2 0x194 JUMPI PUSH0 PUSH0 REVERT JUMPDEST POP JUMP JUMPDEST PUSH0 DUP2 CALLDATALOAD SWAP1 POP PUSH2 0x1A5 DUP2 PUSH2 0x181 JUMP JUMPDEST SWAP3 SWAP2 POP POP JUMP JUMPDEST PUSH0 PUSH0 PUSH1 0x40 DUP4 DUP6 SUB SLT ISZERO PUSH2 0x1C1 JUMPI PUSH2 0x1C0 PUSH2 0x141 JUMP JUMPDEST JUMPDEST PUSH0 PUSH2 0x1CE DUP6 DUP3 DUP7 ADD PUSH2 0x164 JUMP JUMPDEST SWAP3 POP POP PUSH1 0x20 PUSH2 0x1DF DUP6 DUP3 DUP7 ADD PUSH2 0x197 JUMP JUMPDEST SWAP2 POP POP SWAP3 POP SWAP3 SWAP1 POP JUMP JUMPDEST PUSH0 PUSH1 0x20 DUP3 DUP5 SUB SLT ISZERO PUSH2 0x1FE JUMPI PUSH2 0x1FD PUSH2 0x141 JUMP JUMPDEST JUMPDEST PUSH0 PUSH2 0x20B DUP5 DUP3 DUP6 ADD PUSH2 0x164 JUMP JUMPDEST SWAP2 POP POP SWAP3 SWAP2 POP POP JUMP JUMPDEST PUSH2 0x21D DUP2 PUSH2 0x178 JUMP JUMPDEST DUP3 MSTORE POP POP JUMP JUMPDEST PUSH0 PUSH1 0x20 DUP3 ADD SWAP1 POP PUSH2 0x236 PUSH0 DUP4 ADD DUP5 PUSH2 0x214 JUMP JUMPDEST SWAP3 SWAP2 POP POP JUMP JUMPDEST PUSH0 DUP2 ISZERO ISZERO SWAP1 POP SWAP2 SWAP1 POP JUMP JUMPDEST PUSH2 0x250 DUP2 PUSH2 0x23C JUMP JUMPDEST DUP3 MSTORE POP POP JUMP JUMPDEST PUSH0 PUSH1 0x20 DUP3 ADD SWAP1 POP PUSH2 0x269 PUSH0 DUP4 ADD DUP5 PUSH2 0x247 JUMP JUMPDEST SWAP3 SWAP2 POP POP JUMP JUMPDEST PUSH2 0x278 DUP2 PUSH2 0x145 JUMP JUMPDEST DUP3 MSTORE POP POP JUMP JUMPDEST PUSH0 PUSH1 0x40 DUP3 ADD SWAP1 POP PUSH2 0x291 PUSH0 DUP4 ADD DUP6 PUSH2 0x26F JUMP JUMPDEST PUSH2 0x29E PUSH1 0x20 DUP4 ADD DUP5 PUSH2 0x214 JUMP JUMPDEST SWAP4 SWAP3 POP POP POP JUMP INVALID LOG2 PUSH5 0x6970667358 0x22 SLT KECCAK256 0xEB STOP BLOBHASH EOFCREATE 0x92 PUSH7 0x32CFB57F02F8FB SELFDESTRUCT PUSH31 0x132C0F7E605DDF7BFC7F19F6A90B10773164736F6C634300081D0033000000 "
				},
				"gasEstimates": {
					"creation": {
						"codeDepositCost": "146200",
						"executionCost": "188",
						"totalCost": "146388"
					},
					"external": {
						"l2Roots(uint256)": "2753",
						"syncL2(uint256,bytes32)": "infinite",
						"verifyL2Root(uint256,bytes32)": "2972"
					}
				},
				"methodIdentifiers": {
					"l2Roots(uint256)": "5ee0b745",
					"syncL2(uint256,bytes32)": "1e50d65f",
					"verifyL2Root(uint256,bytes32)": "e7e8ab14"
				}
			},
			"storageLayout": {
				"storage": [
					{
						"astId": 153,
						"contract": "L/lightningNetworkTypes.sol:EventSyncedNode",
						"label": "l2Roots",
						"offset": 0,
						"slot": "0",
						"type": "t_mapping(t_uint256,t_bytes32)"
					}
				],
				"types": {
					"t_bytes32": {
						"encoding": "inplace",
						"label": "bytes32",
						"numberOfBytes": "32"
					},
					"t_mapping(t_uint256,t_bytes32)": {
						"encoding": "mapping",
						"key": "t_uint256",
						"label": "mapping(uint256 => bytes32)",
						"numberOfBytes": "32",
						"value": "t_bytes32"
					},
					"t_uint256": {
						"encoding": "inplace",
						"label": "uint256",
						"numberOfBytes": "32"
					}
				}
			},
			"userdoc": {
				"kind": "user",
				"methods": {},
				"notice": "4. Event-Synced Light Node (Simulated L2)",
				"version": 1
			}
		}
	}
}