{
	"L/TimeLockedFarm.sol": {
		"TimeLockedFarm": {
			"abi": [
				{
					"inputs": [
						{
							"internalType": "address",
							"name": "_token",
							"type": "address"
						},
						{
							"internalType": "address",
							"name": "_reward",
							"type": "address"
						}
					],
					"stateMutability": "nonpayable",
					"type": "constructor"
				},
				{
					"inputs": [],
					"name": "reward",
					"outputs": [
						{
							"internalType": "contract IERC20",
							"name": "",
							"type": "address"
						}
					],
					"stateMutability": "view",
					"type": "function"
				},
				{
					"inputs": [
						{
							"internalType": "uint256",
							"name": "amount",
							"type": "uint256"
						}
					],
					"name": "stake",
					"outputs": [],
					"stateMutability": "nonpayable",
					"type": "function"
				},
				{
					"inputs": [
						{
							"internalType": "address",
							"name": "",
							"type": "address"
						}
					],
					"name": "stakers",
					"outputs": [
						{
							"internalType": "uint256",
							"name": "amount",
							"type": "uint256"
						},
						{
							"internalType": "uint256",
							"name": "startBlock",
							"type": "uint256"
						}
					],
					"stateMutability": "view",
					"type": "function"
				},
				{
					"inputs": [],
					"name": "token",
					"outputs": [
						{
							"internalType": "contract IERC20",
							"name": "",
							"type": "address"
						}
					],
					"stateMutability": "view",
					"type": "function"
				},
				{
					"inputs": [],
					"name": "withdraw",
					"outputs": [],
					"stateMutability": "nonpayable",
					"type": "function"
				}
			],
			"devdoc": {
				"kind": "dev",
				"methods": {},
				"title": "TimeLockedFarm",
				"version": 1
			},
			"evm": {
				"assembly": "    /* \"L/TimeLockedFarm.sol\":226:1272  contract TimeLockedFarm {... */\n  mstore(0x40, 0x80)\n    /* \"L/TimeLockedFarm.sol\":441:559  constructor(address _token, address _reward) {... */\n  callvalue\n  dup1\n  iszero\n  tag_1\n  jumpi\n  revert(0x00, 0x00)\ntag_1:\n  pop\n  mload(0x40)\n  sub(codesize, bytecodeSize)\n  dup1\n  bytecodeSize\n  dup4\n  codecopy\n  dup2\n  dup2\n  add\n  0x40\n  mstore\n  dup2\n  add\n  swap1\n  tag_2\n  swap2\n  swap1\n  tag_3\n  jump\t// in\ntag_2:\n    /* \"L/TimeLockedFarm.sol\":511:517  _token */\n  dup2\n    /* \"L/TimeLockedFarm.sol\":496:501  token */\n  0x00\n  0x00\n    /* \"L/TimeLockedFarm.sol\":496:518  token = IERC20(_token) */\n  0x0100\n  exp\n  dup2\n  sload\n  dup2\n  0xffffffffffffffffffffffffffffffffffffffff\n  mul\n  not\n  and\n  swap1\n  dup4\n  0xffffffffffffffffffffffffffffffffffffffff\n  and\n  mul\n  or\n  swap1\n  sstore\n  pop\n    /* \"L/TimeLockedFarm.sol\":544:551  _reward */\n  dup1\n    /* \"L/TimeLockedFarm.sol\":528:534  reward */\n  0x01\n  0x00\n    /* \"L/TimeLockedFarm.sol\":528:552  reward = IERC20(_reward) */\n  0x0100\n  exp\n  dup2\n  sload\n  dup2\n  0xffffffffffffffffffffffffffffffffffffffff\n  mul\n  not\n  and\n  swap1\n  dup4\n  0xffffffffffffffffffffffffffffffffffffffff\n  and\n  mul\n  or\n  swap1\n  sstore\n  pop\n    /* \"L/TimeLockedFarm.sol\":441:559  constructor(address _token, address _reward) {... */\n  pop\n  pop\n    /* \"L/TimeLockedFarm.sol\":226:1272  contract TimeLockedFarm {... */\n  jump(tag_6)\n    /* \"#utility.yul\":88:205   */\ntag_8:\n    /* \"#utility.yul\":197:198   */\n  0x00\n    /* \"#utility.yul\":194:195   */\n  0x00\n    /* \"#utility.yul\":187:199   */\n  revert\n    /* \"#utility.yul\":334:460   */\ntag_10:\n    /* \"#utility.yul\":371:378   */\n  0x00\n    /* \"#utility.yul\":411:453   */\n  0xffffffffffffffffffffffffffffffffffffffff\n    /* \"#utility.yul\":404:409   */\n  dup3\n    /* \"#utility.yul\":400:454   */\n  and\n    /* \"#utility.yul\":389:454   */\n  swap1\n  pop\n    /* \"#utility.yul\":334:460   */\n  swap2\n  swap1\n  pop\n  jump\t// out\n    /* \"#utility.yul\":466:562   */\ntag_11:\n    /* \"#utility.yul\":503:510   */\n  0x00\n    /* \"#utility.yul\":532:556   */\n  tag_20\n    /* \"#utility.yul\":550:555   */\n  dup3\n    /* \"#utility.yul\":532:556   */\n  tag_10\n  jump\t// in\ntag_20:\n    /* \"#utility.yul\":521:556   */\n  swap1\n  pop\n    /* \"#utility.yul\":466:562   */\n  swap2\n  swap1\n  pop\n  jump\t// out\n    /* \"#utility.yul\":568:690   */\ntag_12:\n    /* \"#utility.yul\":641:665   */\n  tag_22\n    /* \"#utility.yul\":659:664   */\n  dup2\n    /* \"#utility.yul\":641:665   */\n  tag_11\n  jump\t// in\ntag_22:\n    /* \"#utility.yul\":634:639   */\n  dup2\n    /* \"#utility.yul\":631:666   */\n  eq\n    /* \"#utility.yul\":621:684   */\n  tag_23\n  jumpi\n    /* \"#utility.yul\":680:681   */\n  0x00\n    /* \"#utility.yul\":677:678   */\n  0x00\n    /* \"#utility.yul\":670:682   */\n  revert\n    /* \"#utility.yul\":621:684   */\ntag_23:\n    /* \"#utility.yul\":568:690   */\n  pop\n  jump\t// out\n    /* \"#utility.yul\":696:839   */\ntag_13:\n    /* \"#utility.yul\":753:758   */\n  0x00\n    /* \"#utility.yul\":784:790   */\n  dup2\n    /* \"#utility.yul\":778:791   */\n  mload\n    /* \"#utility.yul\":769:791   */\n  swap1\n  pop\n    /* \"#utility.yul\":800:833   */\n  tag_25\n    /* \"#utility.yul\":827:832   */\n  dup2\n    /* \"#utility.yul\":800:833   */\n  tag_12\n  jump\t// in\ntag_25:\n    /* \"#utility.yul\":696:839   */\n  swap3\n  swap2\n  pop\n  pop\n  jump\t// out\n    /* \"#utility.yul\":845:1352   */\ntag_3:\n    /* \"#utility.yul\":924:930   */\n  0x00\n    /* \"#utility.yul\":932:938   */\n  0x00\n    /* \"#utility.yul\":981:983   */\n  0x40\n    /* \"#utility.yul\":969:978   */\n  dup4\n    /* \"#utility.yul\":960:967   */\n  dup6\n    /* \"#utility.yul\":956:979   */\n  sub\n    /* \"#utility.yul\":952:984   */\n  slt\n    /* \"#utility.yul\":949:1068   */\n  iszero\n  tag_27\n  jumpi\n    /* \"#utility.yul\":987:1066   */\n  tag_28\n  tag_8\n  jump\t// in\ntag_28:\n    /* \"#utility.yul\":949:1068   */\ntag_27:\n    /* \"#utility.yul\":1107:1108   */\n  0x00\n    /* \"#utility.yul\":1132:1196   */\n  tag_29\n    /* \"#utility.yul\":1188:1195   */\n  dup6\n    /* \"#utility.yul\":1179:1185   */\n  dup3\n    /* \"#utility.yul\":1168:1177   */\n  dup7\n    /* \"#utility.yul\":1164:1186   */\n  add\n    /* \"#utility.yul\":1132:1196   */\n  tag_13\n  jump\t// in\ntag_29:\n    /* \"#utility.yul\":1122:1196   */\n  swap3\n  pop\n    /* \"#utility.yul\":1078:1206   */\n  pop\n    /* \"#utility.yul\":1245:1247   */\n  0x20\n    /* \"#utility.yul\":1271:1335   */\n  tag_30\n    /* \"#utility.yul\":1327:1334   */\n  dup6\n    /* \"#utility.yul\":1318:1324   */\n  dup3\n    /* \"#utility.yul\":1307:1316   */\n  dup7\n    /* \"#utility.yul\":1303:1325   */\n  add\n    /* \"#utility.yul\":1271:1335   */\n  tag_13\n  jump\t// in\ntag_30:\n    /* \"#utility.yul\":1261:1335   */\n  swap2\n  pop\n    /* \"#utility.yul\":1216:1345   */\n  pop\n    /* \"#utility.yul\":845:1352   */\n  swap3\n  pop\n  swap3\n  swap1\n  pop\n  jump\t// out\n    /* \"L/TimeLockedFarm.sol\":226:1272  contract TimeLockedFarm {... */\ntag_6:\n  dataSize(sub_0)\n  dup1\n  dataOffset(sub_0)\n  0x00\n  codecopy\n  0x00\n  return\nstop\n\nsub_0: assembly {\n        /* \"L/TimeLockedFarm.sol\":226:1272  contract TimeLockedFarm {... */\n      mstore(0x40, 0x80)\n      callvalue\n      dup1\n      iszero\n      tag_1\n      jumpi\n      revert(0x00, 0x00)\n    tag_1:\n      pop\n      jumpi(tag_2, lt(calldatasize, 0x04))\n      shr(0xe0, calldataload(0x00))\n      dup1\n      0x228cb733\n      eq\n      tag_3\n      jumpi\n      dup1\n      0x3ccfd60b\n      eq\n      tag_4\n      jumpi\n      dup1\n      0x9168ae72\n      eq\n      tag_5\n      jumpi\n      dup1\n      0xa694fc3a\n      eq\n      tag_6\n      jumpi\n      dup1\n      0xfc0c546a\n      eq\n      tag_7\n      jumpi\n    tag_2:\n      revert(0x00, 0x00)\n        /* \"L/TimeLockedFarm.sol\":281:301  IERC20 public reward */\n    tag_3:\n      tag_8\n      tag_9\n      jump\t// in\n    tag_8:\n      mload(0x40)\n      tag_10\n      swap2\n      swap1\n      tag_11\n      jump\t// in\n    tag_10:\n      mload(0x40)\n      dup1\n      swap2\n      sub\n      swap1\n      return\n        /* \"L/TimeLockedFarm.sol\":791:1270  function withdraw() external {... */\n    tag_4:\n      tag_12\n      tag_13\n      jump\t// in\n    tag_12:\n      stop\n        /* \"L/TimeLockedFarm.sol\":390:434  mapping(address => StakeInfo) public stakers */\n    tag_5:\n      tag_14\n      0x04\n      dup1\n      calldatasize\n      sub\n      dup2\n      add\n      swap1\n      tag_15\n      swap2\n      swap1\n      tag_16\n      jump\t// in\n    tag_15:\n      tag_17\n      jump\t// in\n    tag_14:\n      mload(0x40)\n      tag_18\n      swap3\n      swap2\n      swap1\n      tag_19\n      jump\t// in\n    tag_18:\n      mload(0x40)\n      dup1\n      swap2\n      sub\n      swap1\n      return\n        /* \"L/TimeLockedFarm.sol\":565:785  function stake(uint256 amount) external {... */\n    tag_6:\n      tag_20\n      0x04\n      dup1\n      calldatasize\n      sub\n      dup2\n      add\n      swap1\n      tag_21\n      swap2\n      swap1\n      tag_22\n      jump\t// in\n    tag_21:\n      tag_23\n      jump\t// in\n    tag_20:\n      stop\n        /* \"L/TimeLockedFarm.sol\":256:275  IERC20 public token */\n    tag_7:\n      tag_24\n      tag_25\n      jump\t// in\n    tag_24:\n      mload(0x40)\n      tag_26\n      swap2\n      swap1\n      tag_11\n      jump\t// in\n    tag_26:\n      mload(0x40)\n      dup1\n      swap2\n      sub\n      swap1\n      return\n        /* \"L/TimeLockedFarm.sol\":281:301  IERC20 public reward */\n    tag_9:\n      0x01\n      0x00\n      swap1\n      sload\n      swap1\n      0x0100\n      exp\n      swap1\n      div\n      0xffffffffffffffffffffffffffffffffffffffff\n      and\n      dup2\n      jump\t// out\n        /* \"L/TimeLockedFarm.sol\":791:1270  function withdraw() external {... */\n    tag_13:\n        /* \"L/TimeLockedFarm.sol\":830:851  StakeInfo memory info */\n      0x00\n        /* \"L/TimeLockedFarm.sol\":854:861  stakers */\n      0x02\n        /* \"L/TimeLockedFarm.sol\":854:873  stakers[msg.sender] */\n      0x00\n        /* \"L/TimeLockedFarm.sol\":862:872  msg.sender */\n      caller\n        /* \"L/TimeLockedFarm.sol\":854:873  stakers[msg.sender] */\n      0xffffffffffffffffffffffffffffffffffffffff\n      and\n      0xffffffffffffffffffffffffffffffffffffffff\n      and\n      dup2\n      mstore\n      0x20\n      add\n      swap1\n      dup2\n      mstore\n      0x20\n      add\n      0x00\n      keccak256\n        /* \"L/TimeLockedFarm.sol\":830:873  StakeInfo memory info = stakers[msg.sender] */\n      mload(0x40)\n      dup1\n      0x40\n      add\n      0x40\n      mstore\n      swap1\n      dup2\n      0x00\n      dup3\n      add\n      sload\n      dup2\n      mstore\n      0x20\n      add\n      0x01\n      dup3\n      add\n      sload\n      dup2\n      mstore\n      pop\n      pop\n      swap1\n      pop\n        /* \"L/TimeLockedFarm.sol\":905:906  0 */\n      0x00\n        /* \"L/TimeLockedFarm.sol\":891:895  info */\n      dup2\n        /* \"L/TimeLockedFarm.sol\":891:902  info.amount */\n      0x00\n      add\n      mload\n        /* \"L/TimeLockedFarm.sol\":891:906  info.amount > 0 */\n      gt\n        /* \"L/TimeLockedFarm.sol\":883:925  require(info.amount > 0, \"No stake found\") */\n      tag_28\n      jumpi\n      mload(0x40)\n      0x08c379a000000000000000000000000000000000000000000000000000000000\n      dup2\n      mstore\n      0x04\n      add\n      tag_29\n      swap1\n      tag_30\n      jump\t// in\n    tag_29:\n      mload(0x40)\n      dup1\n      swap2\n      sub\n      swap1\n      revert\n    tag_28:\n        /* \"L/TimeLockedFarm.sol\":936:952  uint256 duration */\n      0x00\n        /* \"L/TimeLockedFarm.sol\":970:974  info */\n      dup2\n        /* \"L/TimeLockedFarm.sol\":970:985  info.startBlock */\n      0x20\n      add\n      mload\n        /* \"L/TimeLockedFarm.sol\":955:967  block.number */\n      number\n        /* \"L/TimeLockedFarm.sol\":955:985  block.number - info.startBlock */\n      tag_31\n      swap2\n      swap1\n      tag_32\n      jump\t// in\n    tag_31:\n        /* \"L/TimeLockedFarm.sol\":936:985  uint256 duration = block.number - info.startBlock */\n      swap1\n      pop\n        /* \"L/TimeLockedFarm.sol\":995:1013  uint256 multiplier */\n      0x00\n        /* \"L/TimeLockedFarm.sol\":1027:1030  100 */\n      0x64\n        /* \"L/TimeLockedFarm.sol\":1016:1024  duration */\n      dup3\n        /* \"L/TimeLockedFarm.sol\":1016:1030  duration > 100 */\n      gt\n        /* \"L/TimeLockedFarm.sol\":1016:1038  duration > 100 ? 2 : 1 */\n      tag_33\n      jumpi\n        /* \"L/TimeLockedFarm.sol\":1037:1038  1 */\n      0x01\n        /* \"L/TimeLockedFarm.sol\":1016:1038  duration > 100 ? 2 : 1 */\n      jump(tag_34)\n    tag_33:\n        /* \"L/TimeLockedFarm.sol\":1033:1034  2 */\n      0x02\n        /* \"L/TimeLockedFarm.sol\":1016:1038  duration > 100 ? 2 : 1 */\n    tag_34:\n        /* \"L/TimeLockedFarm.sol\":995:1038  uint256 multiplier = duration > 100 ? 2 : 1 */\n      0xff\n      and\n      swap1\n      pop\n        /* \"L/TimeLockedFarm.sol\":1049:1069  uint256 rewardAmount */\n      0x00\n        /* \"L/TimeLockedFarm.sol\":1099:1103  1e16 */\n      0x2386f26fc10000\n        /* \"L/TimeLockedFarm.sol\":1086:1096  multiplier */\n      dup3\n        /* \"L/TimeLockedFarm.sol\":1072:1076  info */\n      dup6\n        /* \"L/TimeLockedFarm.sol\":1072:1083  info.amount */\n      0x00\n      add\n      mload\n        /* \"L/TimeLockedFarm.sol\":1072:1096  info.amount * multiplier */\n      tag_35\n      swap2\n      swap1\n      tag_36\n      jump\t// in\n    tag_35:\n        /* \"L/TimeLockedFarm.sol\":1072:1103  info.amount * multiplier * 1e16 */\n      tag_37\n      swap2\n      swap1\n      tag_36\n      jump\t// in\n    tag_37:\n        /* \"L/TimeLockedFarm.sol\":1049:1103  uint256 rewardAmount = info.amount * multiplier * 1e16 */\n      swap1\n      pop\n        /* \"L/TimeLockedFarm.sol\":1143:1150  stakers */\n      0x02\n        /* \"L/TimeLockedFarm.sol\":1143:1162  stakers[msg.sender] */\n      0x00\n        /* \"L/TimeLockedFarm.sol\":1151:1161  msg.sender */\n      caller\n        /* \"L/TimeLockedFarm.sol\":1143:1162  stakers[msg.sender] */\n      0xffffffffffffffffffffffffffffffffffffffff\n      and\n      0xffffffffffffffffffffffffffffffffffffffff\n      and\n      dup2\n      mstore\n      0x20\n      add\n      swap1\n      dup2\n      mstore\n      0x20\n      add\n      0x00\n      keccak256\n      0x00\n        /* \"L/TimeLockedFarm.sol\":1136:1162  delete stakers[msg.sender] */\n      0x00\n      dup3\n      add\n      0x00\n      swap1\n      sstore\n      0x01\n      dup3\n      add\n      0x00\n      swap1\n      sstore\n      pop\n      pop\n        /* \"L/TimeLockedFarm.sol\":1173:1179  reward */\n      0x01\n      0x00\n      swap1\n      sload\n      swap1\n      0x0100\n      exp\n      swap1\n      div\n      0xffffffffffffffffffffffffffffffffffffffff\n      and\n        /* \"L/TimeLockedFarm.sol\":1173:1188  reward.transfer */\n      0xffffffffffffffffffffffffffffffffffffffff\n      and\n      0xa9059cbb\n        /* \"L/TimeLockedFarm.sol\":1189:1199  msg.sender */\n      caller\n        /* \"L/TimeLockedFarm.sol\":1201:1213  rewardAmount */\n      dup4\n        /* \"L/TimeLockedFarm.sol\":1173:1214  reward.transfer(msg.sender, rewardAmount) */\n      mload(0x40)\n      dup4\n      0xffffffff\n      and\n      0xe0\n      shl\n      dup2\n      mstore\n      0x04\n      add\n      tag_38\n      swap3\n      swap2\n      swap1\n      tag_39\n      jump\t// in\n    tag_38:\n      0x20\n      mload(0x40)\n      dup1\n      dup4\n      sub\n      dup2\n      0x00\n      dup8\n      gas\n      call\n      iszero\n      dup1\n      iszero\n      tag_41\n      jumpi\n      returndatacopy(0x00, 0x00, returndatasize)\n      revert(0x00, returndatasize)\n    tag_41:\n      pop\n      pop\n      pop\n      pop\n      mload(0x40)\n      returndatasize\n      not(0x1f)\n      0x1f\n      dup3\n      add\n      and\n      dup3\n      add\n      dup1\n      0x40\n      mstore\n      pop\n      dup2\n      add\n      swap1\n      tag_42\n      swap2\n      swap1\n      tag_43\n      jump\t// in\n    tag_42:\n      pop\n        /* \"L/TimeLockedFarm.sol\":1224:1229  token */\n      0x00\n      0x00\n      swap1\n      sload\n      swap1\n      0x0100\n      exp\n      swap1\n      div\n      0xffffffffffffffffffffffffffffffffffffffff\n      and\n        /* \"L/TimeLockedFarm.sol\":1224:1238  token.transfer */\n      0xffffffffffffffffffffffffffffffffffffffff\n      and\n      0xa9059cbb\n        /* \"L/TimeLockedFarm.sol\":1239:1249  msg.sender */\n      caller\n        /* \"L/TimeLockedFarm.sol\":1251:1255  info */\n      dup7\n        /* \"L/TimeLockedFarm.sol\":1251:1262  info.amount */\n      0x00\n      add\n      mload\n        /* \"L/TimeLockedFarm.sol\":1224:1263  token.transfer(msg.sender, info.amount) */\n      mload(0x40)\n      dup4\n      0xffffffff\n      and\n      0xe0\n      shl\n      dup2\n      mstore\n      0x04\n      add\n      tag_44\n      swap3\n      swap2\n      swap1\n      tag_39\n      jump\t// in\n    tag_44:\n      0x20\n      mload(0x40)\n      dup1\n      dup4\n      sub\n      dup2\n      0x00\n      dup8\n      gas\n      call\n      iszero\n      dup1\n      iszero\n      tag_46\n      jumpi\n      returndatacopy(0x00, 0x00, returndatasize)\n      revert(0x00, returndatasize)\n    tag_46:\n      pop\n      pop\n      pop\n      pop\n      mload(0x40)\n      returndatasize\n      not(0x1f)\n      0x1f\n      dup3\n      add\n      and\n      dup3\n      add\n      dup1\n      0x40\n      mstore\n      pop\n      dup2\n      add\n      swap1\n      tag_47\n      swap2\n      swap1\n      tag_43\n      jump\t// in\n    tag_47:\n      pop\n        /* \"L/TimeLockedFarm.sol\":820:1270  {... */\n      pop\n      pop\n      pop\n      pop\n        /* \"L/TimeLockedFarm.sol\":791:1270  function withdraw() external {... */\n      jump\t// out\n        /* \"L/TimeLockedFarm.sol\":390:434  mapping(address => StakeInfo) public stakers */\n    tag_17:\n      mstore(0x20, 0x02)\n      dup1\n      0x00\n      mstore\n      keccak256(0x00, 0x40)\n      0x00\n      swap2\n      pop\n      swap1\n      pop\n      dup1\n      0x00\n      add\n      sload\n      swap1\n      dup1\n      0x01\n      add\n      sload\n      swap1\n      pop\n      dup3\n      jump\t// out\n        /* \"L/TimeLockedFarm.sol\":565:785  function stake(uint256 amount) external {... */\n    tag_23:\n        /* \"L/TimeLockedFarm.sol\":632:633  0 */\n      0x00\n        /* \"L/TimeLockedFarm.sol\":623:629  amount */\n      dup2\n        /* \"L/TimeLockedFarm.sol\":623:633  amount > 0 */\n      gt\n        /* \"L/TimeLockedFarm.sol\":615:652  require(amount > 0, \"Cannot stake 0\") */\n      tag_49\n      jumpi\n      mload(0x40)\n      0x08c379a000000000000000000000000000000000000000000000000000000000\n      dup2\n      mstore\n      0x04\n      add\n      tag_50\n      swap1\n      tag_51\n      jump\t// in\n    tag_50:\n      mload(0x40)\n      dup1\n      swap2\n      sub\n      swap1\n      revert\n    tag_49:\n        /* \"L/TimeLockedFarm.sol\":684:715  StakeInfo(amount, block.number) */\n      mload(0x40)\n      dup1\n      0x40\n      add\n      0x40\n      mstore\n      dup1\n        /* \"L/TimeLockedFarm.sol\":694:700  amount */\n      dup3\n        /* \"L/TimeLockedFarm.sol\":684:715  StakeInfo(amount, block.number) */\n      dup2\n      mstore\n      0x20\n      add\n        /* \"L/TimeLockedFarm.sol\":702:714  block.number */\n      number\n        /* \"L/TimeLockedFarm.sol\":684:715  StakeInfo(amount, block.number) */\n      dup2\n      mstore\n      pop\n        /* \"L/TimeLockedFarm.sol\":662:669  stakers */\n      0x02\n        /* \"L/TimeLockedFarm.sol\":662:681  stakers[msg.sender] */\n      0x00\n        /* \"L/TimeLockedFarm.sol\":670:680  msg.sender */\n      caller\n        /* \"L/TimeLockedFarm.sol\":662:681  stakers[msg.sender] */\n      0xffffffffffffffffffffffffffffffffffffffff\n      and\n      0xffffffffffffffffffffffffffffffffffffffff\n      and\n      dup2\n      mstore\n      0x20\n      add\n      swap1\n      dup2\n      mstore\n      0x20\n      add\n      0x00\n      keccak256\n        /* \"L/TimeLockedFarm.sol\":662:715  stakers[msg.sender] = StakeInfo(amount, block.number) */\n      0x00\n      dup3\n      add\n      mload\n      dup2\n      0x00\n      add\n      sstore\n      0x20\n      dup3\n      add\n      mload\n      dup2\n      0x01\n      add\n      sstore\n      swap1\n      pop\n      pop\n        /* \"L/TimeLockedFarm.sol\":725:730  token */\n      0x00\n      0x00\n      swap1\n      sload\n      swap1\n      0x0100\n      exp\n      swap1\n      div\n      0xffffffffffffffffffffffffffffffffffffffff\n      and\n        /* \"L/TimeLockedFarm.sol\":725:743  token.transferFrom */\n      0xffffffffffffffffffffffffffffffffffffffff\n      and\n      0x23b872dd\n        /* \"L/TimeLockedFarm.sol\":744:754  msg.sender */\n      caller\n        /* \"L/TimeLockedFarm.sol\":764:768  this */\n      address\n        /* \"L/TimeLockedFarm.sol\":771:777  amount */\n      dup5\n        /* \"L/TimeLockedFarm.sol\":725:778  token.transferFrom(msg.sender, address(this), amount) */\n      mload(0x40)\n      dup5\n      0xffffffff\n      and\n      0xe0\n      shl\n      dup2\n      mstore\n      0x04\n      add\n      tag_52\n      swap4\n      swap3\n      swap2\n      swap1\n      tag_53\n      jump\t// in\n    tag_52:\n      0x20\n      mload(0x40)\n      dup1\n      dup4\n      sub\n      dup2\n      0x00\n      dup8\n      gas\n      call\n      iszero\n      dup1\n      iszero\n      tag_55\n      jumpi\n      returndatacopy(0x00, 0x00, returndatasize)\n      revert(0x00, returndatasize)\n    tag_55:\n      pop\n      pop\n      pop\n      pop\n      mload(0x40)\n      returndatasize\n      not(0x1f)\n      0x1f\n      dup3\n      add\n      and\n      dup3\n      add\n      dup1\n      0x40\n      mstore\n      pop\n      dup2\n      add\n      swap1\n      tag_56\n      swap2\n      swap1\n      tag_43\n      jump\t// in\n    tag_56:\n      pop\n        /* \"L/TimeLockedFarm.sol\":565:785  function stake(uint256 amount) external {... */\n      pop\n      jump\t// out\n        /* \"L/TimeLockedFarm.sol\":256:275  IERC20 public token */\n    tag_25:\n      0x00\n      0x00\n      swap1\n      sload\n      swap1\n      0x0100\n      exp\n      swap1\n      div\n      0xffffffffffffffffffffffffffffffffffffffff\n      and\n      dup2\n      jump\t// out\n        /* \"#utility.yul\":7:133   */\n    tag_57:\n        /* \"#utility.yul\":44:51   */\n      0x00\n        /* \"#utility.yul\":84:126   */\n      0xffffffffffffffffffffffffffffffffffffffff\n        /* \"#utility.yul\":77:82   */\n      dup3\n        /* \"#utility.yul\":73:127   */\n      and\n        /* \"#utility.yul\":62:127   */\n      swap1\n      pop\n        /* \"#utility.yul\":7:133   */\n      swap2\n      swap1\n      pop\n      jump\t// out\n        /* \"#utility.yul\":139:199   */\n    tag_58:\n        /* \"#utility.yul\":167:170   */\n      0x00\n        /* \"#utility.yul\":188:193   */\n      dup2\n        /* \"#utility.yul\":181:193   */\n      swap1\n      pop\n        /* \"#utility.yul\":139:199   */\n      swap2\n      swap1\n      pop\n      jump\t// out\n        /* \"#utility.yul\":205:347   */\n    tag_59:\n        /* \"#utility.yul\":255:264   */\n      0x00\n        /* \"#utility.yul\":288:341   */\n      tag_87\n        /* \"#utility.yul\":306:340   */\n      tag_88\n        /* \"#utility.yul\":315:339   */\n      tag_89\n        /* \"#utility.yul\":333:338   */\n      dup5\n        /* \"#utility.yul\":315:339   */\n      tag_57\n      jump\t// in\n    tag_89:\n        /* \"#utility.yul\":306:340   */\n      tag_58\n      jump\t// in\n    tag_88:\n        /* \"#utility.yul\":288:341   */\n      tag_57\n      jump\t// in\n    tag_87:\n        /* \"#utility.yul\":275:341   */\n      swap1\n      pop\n        /* \"#utility.yul\":205:347   */\n      swap2\n      swap1\n      pop\n      jump\t// out\n        /* \"#utility.yul\":353:479   */\n    tag_60:\n        /* \"#utility.yul\":403:412   */\n      0x00\n        /* \"#utility.yul\":436:473   */\n      tag_91\n        /* \"#utility.yul\":467:472   */\n      dup3\n        /* \"#utility.yul\":436:473   */\n      tag_59\n      jump\t// in\n    tag_91:\n        /* \"#utility.yul\":423:473   */\n      swap1\n      pop\n        /* \"#utility.yul\":353:479   */\n      swap2\n      swap1\n      pop\n      jump\t// out\n        /* \"#utility.yul\":485:624   */\n    tag_61:\n        /* \"#utility.yul\":548:557   */\n      0x00\n        /* \"#utility.yul\":581:618   */\n      tag_93\n        /* \"#utility.yul\":612:617   */\n      dup3\n        /* \"#utility.yul\":581:618   */\n      tag_60\n      jump\t// in\n    tag_93:\n        /* \"#utility.yul\":568:618   */\n      swap1\n      pop\n        /* \"#utility.yul\":485:624   */\n      swap2\n      swap1\n      pop\n      jump\t// out\n        /* \"#utility.yul\":630:787   */\n    tag_62:\n        /* \"#utility.yul\":730:780   */\n      tag_95\n        /* \"#utility.yul\":774:779   */\n      dup2\n        /* \"#utility.yul\":730:780   */\n      tag_61\n      jump\t// in\n    tag_95:\n        /* \"#utility.yul\":725:728   */\n      dup3\n        /* \"#utility.yul\":718:781   */\n      mstore\n        /* \"#utility.yul\":630:787   */\n      pop\n      pop\n      jump\t// out\n        /* \"#utility.yul\":793:1041   */\n    tag_11:\n        /* \"#utility.yul\":899:903   */\n      0x00\n        /* \"#utility.yul\":937:939   */\n      0x20\n        /* \"#utility.yul\":926:935   */\n      dup3\n        /* \"#utility.yul\":922:940   */\n      add\n        /* \"#utility.yul\":914:940   */\n      swap1\n      pop\n        /* \"#utility.yul\":950:1034   */\n      tag_97\n        /* \"#utility.yul\":1031:1032   */\n      0x00\n        /* \"#utility.yul\":1020:1029   */\n      dup4\n        /* \"#utility.yul\":1016:1033   */\n      add\n        /* \"#utility.yul\":1007:1013   */\n      dup5\n        /* \"#utility.yul\":950:1034   */\n      tag_62\n      jump\t// in\n    tag_97:\n        /* \"#utility.yul\":793:1041   */\n      swap3\n      swap2\n      pop\n      pop\n      jump\t// out\n        /* \"#utility.yul\":1128:1245   */\n    tag_64:\n        /* \"#utility.yul\":1237:1238   */\n      0x00\n        /* \"#utility.yul\":1234:1235   */\n      0x00\n        /* \"#utility.yul\":1227:1239   */\n      revert\n        /* \"#utility.yul\":1374:1470   */\n    tag_66:\n        /* \"#utility.yul\":1411:1418   */\n      0x00\n        /* \"#utility.yul\":1440:1464   */\n      tag_102\n        /* \"#utility.yul\":1458:1463   */\n      dup3\n        /* \"#utility.yul\":1440:1464   */\n      tag_57\n      jump\t// in\n    tag_102:\n        /* \"#utility.yul\":1429:1464   */\n      swap1\n      pop\n        /* \"#utility.yul\":1374:1470   */\n      swap2\n      swap1\n      pop\n      jump\t// out\n        /* \"#utility.yul\":1476:1598   */\n    tag_67:\n        /* \"#utility.yul\":1549:1573   */\n      tag_104\n        /* \"#utility.yul\":1567:1572   */\n      dup2\n        /* \"#utility.yul\":1549:1573   */\n      tag_66\n      jump\t// in\n    tag_104:\n        /* \"#utility.yul\":1542:1547   */\n      dup2\n        /* \"#utility.yul\":1539:1574   */\n      eq\n        /* \"#utility.yul\":1529:1592   */\n      tag_105\n      jumpi\n        /* \"#utility.yul\":1588:1589   */\n      0x00\n        /* \"#utility.yul\":1585:1586   */\n      0x00\n        /* \"#utility.yul\":1578:1590   */\n      revert\n        /* \"#utility.yul\":1529:1592   */\n    tag_105:\n        /* \"#utility.yul\":1476:1598   */\n      pop\n      jump\t// out\n        /* \"#utility.yul\":1604:1743   */\n    tag_68:\n        /* \"#utility.yul\":1650:1655   */\n      0x00\n        /* \"#utility.yul\":1688:1694   */\n      dup2\n        /* \"#utility.yul\":1675:1695   */\n      calldataload\n        /* \"#utility.yul\":1666:1695   */\n      swap1\n      pop\n        /* \"#utility.yul\":1704:1737   */\n      tag_107\n        /* \"#utility.yul\":1731:1736   */\n      dup2\n        /* \"#utility.yul\":1704:1737   */\n      tag_67\n      jump\t// in\n    tag_107:\n        /* \"#utility.yul\":1604:1743   */\n      swap3\n      swap2\n      pop\n      pop\n      jump\t// out\n        /* \"#utility.yul\":1749:2078   */\n    tag_16:\n        /* \"#utility.yul\":1808:1814   */\n      0x00\n        /* \"#utility.yul\":1857:1859   */\n      0x20\n        /* \"#utility.yul\":1845:1854   */\n      dup3\n        /* \"#utility.yul\":1836:1843   */\n      dup5\n        /* \"#utility.yul\":1832:1855   */\n      sub\n        /* \"#utility.yul\":1828:1860   */\n      slt\n        /* \"#utility.yul\":1825:1944   */\n      iszero\n      tag_109\n      jumpi\n        /* \"#utility.yul\":1863:1942   */\n      tag_110\n      tag_64\n      jump\t// in\n    tag_110:\n        /* \"#utility.yul\":1825:1944   */\n    tag_109:\n        /* \"#utility.yul\":1983:1984   */\n      0x00\n        /* \"#utility.yul\":2008:2061   */\n      tag_111\n        /* \"#utility.yul\":2053:2060   */\n      dup5\n        /* \"#utility.yul\":2044:2050   */\n      dup3\n        /* \"#utility.yul\":2033:2042   */\n      dup6\n        /* \"#utility.yul\":2029:2051   */\n      add\n        /* \"#utility.yul\":2008:2061   */\n      tag_68\n      jump\t// in\n    tag_111:\n        /* \"#utility.yul\":1998:2061   */\n      swap2\n      pop\n        /* \"#utility.yul\":1954:2071   */\n      pop\n        /* \"#utility.yul\":1749:2078   */\n      swap3\n      swap2\n      pop\n      pop\n      jump\t// out\n        /* \"#utility.yul\":2084:2161   */\n    tag_69:\n        /* \"#utility.yul\":2121:2128   */\n      0x00\n        /* \"#utility.yul\":2150:2155   */\n      dup2\n        /* \"#utility.yul\":2139:2155   */\n      swap1\n      pop\n        /* \"#utility.yul\":2084:2161   */\n      swap2\n      swap1\n      pop\n      jump\t// out\n        /* \"#utility.yul\":2167:2285   */\n    tag_70:\n        /* \"#utility.yul\":2254:2278   */\n      tag_114\n        /* \"#utility.yul\":2272:2277   */\n      dup2\n        /* \"#utility.yul\":2254:2278   */\n      tag_69\n      jump\t// in\n    tag_114:\n        /* \"#utility.yul\":2249:2252   */\n      dup3\n        /* \"#utility.yul\":2242:2279   */\n      mstore\n        /* \"#utility.yul\":2167:2285   */\n      pop\n      pop\n      jump\t// out\n        /* \"#utility.yul\":2291:2623   */\n    tag_19:\n        /* \"#utility.yul\":2412:2416   */\n      0x00\n        /* \"#utility.yul\":2450:2452   */\n      0x40\n        /* \"#utility.yul\":2439:2448   */\n      dup3\n        /* \"#utility.yul\":2435:2453   */\n      add\n        /* \"#utility.yul\":2427:2453   */\n      swap1\n      pop\n        /* \"#utility.yul\":2463:2534   */\n      tag_116\n        /* \"#utility.yul\":2531:2532   */\n      0x00\n        /* \"#utility.yul\":2520:2529   */\n      dup4\n        /* \"#utility.yul\":2516:2533   */\n      add\n        /* \"#utility.yul\":2507:2513   */\n      dup6\n        /* \"#utility.yul\":2463:2534   */\n      tag_70\n      jump\t// in\n    tag_116:\n        /* \"#utility.yul\":2544:2616   */\n      tag_117\n        /* \"#utility.yul\":2612:2614   */\n      0x20\n        /* \"#utility.yul\":2601:2610   */\n      dup4\n        /* \"#utility.yul\":2597:2615   */\n      add\n        /* \"#utility.yul\":2588:2594   */\n      dup5\n        /* \"#utility.yul\":2544:2616   */\n      tag_70\n      jump\t// in\n    tag_117:\n        /* \"#utility.yul\":2291:2623   */\n      swap4\n      swap3\n      pop\n      pop\n      pop\n      jump\t// out\n        /* \"#utility.yul\":2629:2751   */\n    tag_71:\n        /* \"#utility.yul\":2702:2726   */\n      tag_119\n        /* \"#utility.yul\":2720:2725   */\n      dup2\n        /* \"#utility.yul\":2702:2726   */\n      tag_69\n      jump\t// in\n    tag_119:\n        /* \"#utility.yul\":2695:2700   */\n      dup2\n        /* \"#utility.yul\":2692:2727   */\n      eq\n        /* \"#utility.yul\":2682:2745   */\n      tag_120\n      jumpi\n        /* \"#utility.yul\":2741:2742   */\n      0x00\n        /* \"#utility.yul\":2738:2739   */\n      0x00\n        /* \"#utility.yul\":2731:2743   */\n      revert\n        /* \"#utility.yul\":2682:2745   */\n    tag_120:\n        /* \"#utility.yul\":2629:2751   */\n      pop\n      jump\t// out\n        /* \"#utility.yul\":2757:2896   */\n    tag_72:\n        /* \"#utility.yul\":2803:2808   */\n      0x00\n        /* \"#utility.yul\":2841:2847   */\n      dup2\n        /* \"#utility.yul\":2828:2848   */\n      calldataload\n        /* \"#utility.yul\":2819:2848   */\n      swap1\n      pop\n        /* \"#utility.yul\":2857:2890   */\n      tag_122\n        /* \"#utility.yul\":2884:2889   */\n      dup2\n        /* \"#utility.yul\":2857:2890   */\n      tag_71\n      jump\t// in\n    tag_122:\n        /* \"#utility.yul\":2757:2896   */\n      swap3\n      swap2\n      pop\n      pop\n      jump\t// out\n        /* \"#utility.yul\":2902:3231   */\n    tag_22:\n        /* \"#utility.yul\":2961:2967   */\n      0x00\n        /* \"#utility.yul\":3010:3012   */\n      0x20\n        /* \"#utility.yul\":2998:3007   */\n      dup3\n        /* \"#utility.yul\":2989:2996   */\n      dup5\n        /* \"#utility.yul\":2985:3008   */\n      sub\n        /* \"#utility.yul\":2981:3013   */\n      slt\n        /* \"#utility.yul\":2978:3097   */\n      iszero\n      tag_124\n      jumpi\n        /* \"#utility.yul\":3016:3095   */\n      tag_125\n      tag_64\n      jump\t// in\n    tag_125:\n        /* \"#utility.yul\":2978:3097   */\n    tag_124:\n        /* \"#utility.yul\":3136:3137   */\n      0x00\n        /* \"#utility.yul\":3161:3214   */\n      tag_126\n        /* \"#utility.yul\":3206:3213   */\n      dup5\n        /* \"#utility.yul\":3197:3203   */\n      dup3\n        /* \"#utility.yul\":3186:3195   */\n      dup6\n        /* \"#utility.yul\":3182:3204   */\n      add\n        /* \"#utility.yul\":3161:3214   */\n      tag_72\n      jump\t// in\n    tag_126:\n        /* \"#utility.yul\":3151:3214   */\n      swap2\n      pop\n        /* \"#utility.yul\":3107:3224   */\n      pop\n        /* \"#utility.yul\":2902:3231   */\n      swap3\n      swap2\n      pop\n      pop\n      jump\t// out\n        /* \"#utility.yul\":3237:3406   */\n    tag_73:\n        /* \"#utility.yul\":3321:3332   */\n      0x00\n        /* \"#utility.yul\":3355:3361   */\n      dup3\n        /* \"#utility.yul\":3350:3353   */\n      dup3\n        /* \"#utility.yul\":3343:3362   */\n      mstore\n        /* \"#utility.yul\":3395:3399   */\n      0x20\n        /* \"#utility.yul\":3390:3393   */\n      dup3\n        /* \"#utility.yul\":3386:3400   */\n      add\n        /* \"#utility.yul\":3371:3400   */\n      swap1\n      pop\n        /* \"#utility.yul\":3237:3406   */\n      swap3\n      swap2\n      pop\n      pop\n      jump\t// out\n        /* \"#utility.yul\":3412:3576   */\n    tag_74:\n        /* \"#utility.yul\":3552:3568   */\n      0x4e6f207374616b6520666f756e64000000000000000000000000000000000000\n        /* \"#utility.yul\":3548:3549   */\n      0x00\n        /* \"#utility.yul\":3540:3546   */\n      dup3\n        /* \"#utility.yul\":3536:3550   */\n      add\n        /* \"#utility.yul\":3529:3569   */\n      mstore\n        /* \"#utility.yul\":3412:3576   */\n      pop\n      jump\t// out\n        /* \"#utility.yul\":3582:3948   */\n    tag_75:\n        /* \"#utility.yul\":3724:3727   */\n      0x00\n        /* \"#utility.yul\":3745:3812   */\n      tag_130\n        /* \"#utility.yul\":3809:3811   */\n      0x0e\n        /* \"#utility.yul\":3804:3807   */\n      dup4\n        /* \"#utility.yul\":3745:3812   */\n      tag_73\n      jump\t// in\n    tag_130:\n        /* \"#utility.yul\":3738:3812   */\n      swap2\n      pop\n        /* \"#utility.yul\":3821:3914   */\n      tag_131\n        /* \"#utility.yul\":3910:3913   */\n      dup3\n        /* \"#utility.yul\":3821:3914   */\n      tag_74\n      jump\t// in\n    tag_131:\n        /* \"#utility.yul\":3939:3941   */\n      0x20\n        /* \"#utility.yul\":3934:3937   */\n      dup3\n        /* \"#utility.yul\":3930:3942   */\n      add\n        /* \"#utility.yul\":3923:3942   */\n      swap1\n      pop\n        /* \"#utility.yul\":3582:3948   */\n      swap2\n      swap1\n      pop\n      jump\t// out\n        /* \"#utility.yul\":3954:4373   */\n    tag_30:\n        /* \"#utility.yul\":4120:4124   */\n      0x00\n        /* \"#utility.yul\":4158:4160   */\n      0x20\n        /* \"#utility.yul\":4147:4156   */\n      dup3\n        /* \"#utility.yul\":4143:4161   */\n      add\n        /* \"#utility.yul\":4135:4161   */\n      swap1\n      pop\n        /* \"#utility.yul\":4207:4216   */\n      dup2\n        /* \"#utility.yul\":4201:4205   */\n      dup2\n        /* \"#utility.yul\":4197:4217   */\n      sub\n        /* \"#utility.yul\":4193:4194   */\n      0x00\n        /* \"#utility.yul\":4182:4191   */\n      dup4\n        /* \"#utility.yul\":4178:4195   */\n      add\n        /* \"#utility.yul\":4171:4218   */\n      mstore\n        /* \"#utility.yul\":4235:4366   */\n      tag_133\n        /* \"#utility.yul\":4361:4365   */\n      dup2\n        /* \"#utility.yul\":4235:4366   */\n      tag_75\n      jump\t// in\n    tag_133:\n        /* \"#utility.yul\":4227:4366   */\n      swap1\n      pop\n        /* \"#utility.yul\":3954:4373   */\n      swap2\n      swap1\n      pop\n      jump\t// out\n        /* \"#utility.yul\":4379:4559   */\n    tag_76:\n        /* \"#utility.yul\":4427:4504   */\n      0x4e487b7100000000000000000000000000000000000000000000000000000000\n        /* \"#utility.yul\":4424:4425   */\n      0x00\n        /* \"#utility.yul\":4417:4505   */\n      mstore\n        /* \"#utility.yul\":4524:4528   */\n      0x11\n        /* \"#utility.yul\":4521:4522   */\n      0x04\n        /* \"#utility.yul\":4514:4529   */\n      mstore\n        /* \"#utility.yul\":4548:4552   */\n      0x24\n        /* \"#utility.yul\":4545:4546   */\n      0x00\n        /* \"#utility.yul\":4538:4553   */\n      revert\n        /* \"#utility.yul\":4565:4759   */\n    tag_32:\n        /* \"#utility.yul\":4605:4609   */\n      0x00\n        /* \"#utility.yul\":4625:4645   */\n      tag_136\n        /* \"#utility.yul\":4643:4644   */\n      dup3\n        /* \"#utility.yul\":4625:4645   */\n      tag_69\n      jump\t// in\n    tag_136:\n        /* \"#utility.yul\":4620:4645   */\n      swap2\n      pop\n        /* \"#utility.yul\":4659:4679   */\n      tag_137\n        /* \"#utility.yul\":4677:4678   */\n      dup4\n        /* \"#utility.yul\":4659:4679   */\n      tag_69\n      jump\t// in\n    tag_137:\n        /* \"#utility.yul\":4654:4679   */\n      swap3\n      pop\n        /* \"#utility.yul\":4703:4704   */\n      dup3\n        /* \"#utility.yul\":4700:4701   */\n      dup3\n        /* \"#utility.yul\":4696:4705   */\n      sub\n        /* \"#utility.yul\":4688:4705   */\n      swap1\n      pop\n        /* \"#utility.yul\":4727:4728   */\n      dup2\n        /* \"#utility.yul\":4721:4725   */\n      dup2\n        /* \"#utility.yul\":4718:4729   */\n      gt\n        /* \"#utility.yul\":4715:4752   */\n      iszero\n      tag_138\n      jumpi\n        /* \"#utility.yul\":4732:4750   */\n      tag_139\n      tag_76\n      jump\t// in\n    tag_139:\n        /* \"#utility.yul\":4715:4752   */\n    tag_138:\n        /* \"#utility.yul\":4565:4759   */\n      swap3\n      swap2\n      pop\n      pop\n      jump\t// out\n        /* \"#utility.yul\":4765:5175   */\n    tag_36:\n        /* \"#utility.yul\":4805:4812   */\n      0x00\n        /* \"#utility.yul\":4828:4848   */\n      tag_141\n        /* \"#utility.yul\":4846:4847   */\n      dup3\n        /* \"#utility.yul\":4828:4848   */\n      tag_69\n      jump\t// in\n    tag_141:\n        /* \"#utility.yul\":4823:4848   */\n      swap2\n      pop\n        /* \"#utility.yul\":4862:4882   */\n      tag_142\n        /* \"#utility.yul\":4880:4881   */\n      dup4\n        /* \"#utility.yul\":4862:4882   */\n      tag_69\n      jump\t// in\n    tag_142:\n        /* \"#utility.yul\":4857:4882   */\n      swap3\n      pop\n        /* \"#utility.yul\":4917:4918   */\n      dup3\n        /* \"#utility.yul\":4914:4915   */\n      dup3\n        /* \"#utility.yul\":4910:4919   */\n      mul\n        /* \"#utility.yul\":4939:4969   */\n      tag_143\n        /* \"#utility.yul\":4957:4968   */\n      dup2\n        /* \"#utility.yul\":4939:4969   */\n      tag_69\n      jump\t// in\n    tag_143:\n        /* \"#utility.yul\":4928:4969   */\n      swap2\n      pop\n        /* \"#utility.yul\":5118:5119   */\n      dup3\n        /* \"#utility.yul\":5109:5116   */\n      dup3\n        /* \"#utility.yul\":5105:5120   */\n      div\n        /* \"#utility.yul\":5102:5103   */\n      dup5\n        /* \"#utility.yul\":5099:5121   */\n      eq\n        /* \"#utility.yul\":5079:5080   */\n      dup4\n        /* \"#utility.yul\":5072:5081   */\n      iszero\n        /* \"#utility.yul\":5052:5135   */\n      or\n        /* \"#utility.yul\":5029:5168   */\n      tag_144\n      jumpi\n        /* \"#utility.yul\":5148:5166   */\n      tag_145\n      tag_76\n      jump\t// in\n    tag_145:\n        /* \"#utility.yul\":5029:5168   */\n    tag_144:\n        /* \"#utility.yul\":4813:5175   */\n      pop\n        /* \"#utility.yul\":4765:5175   */\n      swap3\n      swap2\n      pop\n      pop\n      jump\t// out\n        /* \"#utility.yul\":5181:5299   */\n    tag_77:\n        /* \"#utility.yul\":5268:5292   */\n      tag_147\n        /* \"#utility.yul\":5286:5291   */\n      dup2\n        /* \"#utility.yul\":5268:5292   */\n      tag_66\n      jump\t// in\n    tag_147:\n        /* \"#utility.yul\":5263:5266   */\n      dup3\n        /* \"#utility.yul\":5256:5293   */\n      mstore\n        /* \"#utility.yul\":5181:5299   */\n      pop\n      pop\n      jump\t// out\n        /* \"#utility.yul\":5305:5637   */\n    tag_39:\n        /* \"#utility.yul\":5426:5430   */\n      0x00\n        /* \"#utility.yul\":5464:5466   */\n      0x40\n        /* \"#utility.yul\":5453:5462   */\n      dup3\n        /* \"#utility.yul\":5449:5467   */\n      add\n        /* \"#utility.yul\":5441:5467   */\n      swap1\n      pop\n        /* \"#utility.yul\":5477:5548   */\n      tag_149\n        /* \"#utility.yul\":5545:5546   */\n      0x00\n        /* \"#utility.yul\":5534:5543   */\n      dup4\n        /* \"#utility.yul\":5530:5547   */\n      add\n        /* \"#utility.yul\":5521:5527   */\n      dup6\n        /* \"#utility.yul\":5477:5548   */\n      tag_77\n      jump\t// in\n    tag_149:\n        /* \"#utility.yul\":5558:5630   */\n      tag_150\n        /* \"#utility.yul\":5626:5628   */\n      0x20\n        /* \"#utility.yul\":5615:5624   */\n      dup4\n        /* \"#utility.yul\":5611:5629   */\n      add\n        /* \"#utility.yul\":5602:5608   */\n      dup5\n        /* \"#utility.yul\":5558:5630   */\n      tag_70\n      jump\t// in\n    tag_150:\n        /* \"#utility.yul\":5305:5637   */\n      swap4\n      swap3\n      pop\n      pop\n      pop\n      jump\t// out\n        /* \"#utility.yul\":5643:5733   */\n    tag_78:\n        /* \"#utility.yul\":5677:5684   */\n      0x00\n        /* \"#utility.yul\":5720:5725   */\n      dup2\n        /* \"#utility.yul\":5713:5726   */\n      iszero\n        /* \"#utility.yul\":5706:5727   */\n      iszero\n        /* \"#utility.yul\":5695:5727   */\n      swap1\n      pop\n        /* \"#utility.yul\":5643:5733   */\n      swap2\n      swap1\n      pop\n      jump\t// out\n        /* \"#utility.yul\":5739:5855   */\n    tag_79:\n        /* \"#utility.yul\":5809:5830   */\n      tag_153\n        /* \"#utility.yul\":5824:5829   */\n      dup2\n        /* \"#utility.yul\":5809:5830   */\n      tag_78\n      jump\t// in\n    tag_153:\n        /* \"#utility.yul\":5802:5807   */\n      dup2\n        /* \"#utility.yul\":5799:5831   */\n      eq\n        /* \"#utility.yul\":5789:5849   */\n      tag_154\n      jumpi\n        /* \"#utility.yul\":5845:5846   */\n      0x00\n        /* \"#utility.yul\":5842:5843   */\n      0x00\n        /* \"#utility.yul\":5835:5847   */\n      revert\n        /* \"#utility.yul\":5789:5849   */\n    tag_154:\n        /* \"#utility.yul\":5739:5855   */\n      pop\n      jump\t// out\n        /* \"#utility.yul\":5861:5998   */\n    tag_80:\n        /* \"#utility.yul\":5915:5920   */\n      0x00\n        /* \"#utility.yul\":5946:5952   */\n      dup2\n        /* \"#utility.yul\":5940:5953   */\n      mload\n        /* \"#utility.yul\":5931:5953   */\n      swap1\n      pop\n        /* \"#utility.yul\":5962:5992   */\n      tag_156\n        /* \"#utility.yul\":5986:5991   */\n      dup2\n        /* \"#utility.yul\":5962:5992   */\n      tag_79\n      jump\t// in\n    tag_156:\n        /* \"#utility.yul\":5861:5998   */\n      swap3\n      swap2\n      pop\n      pop\n      jump\t// out\n        /* \"#utility.yul\":6004:6349   */\n    tag_43:\n        /* \"#utility.yul\":6071:6077   */\n      0x00\n        /* \"#utility.yul\":6120:6122   */\n      0x20\n        /* \"#utility.yul\":6108:6117   */\n      dup3\n        /* \"#utility.yul\":6099:6106   */\n      dup5\n        /* \"#utility.yul\":6095:6118   */\n      sub\n        /* \"#utility.yul\":6091:6123   */\n      slt\n        /* \"#utility.yul\":6088:6207   */\n      iszero\n      tag_158\n      jumpi\n        /* \"#utility.yul\":6126:6205   */\n      tag_159\n      tag_64\n      jump\t// in\n    tag_159:\n        /* \"#utility.yul\":6088:6207   */\n    tag_158:\n        /* \"#utility.yul\":6246:6247   */\n      0x00\n        /* \"#utility.yul\":6271:6332   */\n      tag_160\n        /* \"#utility.yul\":6324:6331   */\n      dup5\n        /* \"#utility.yul\":6315:6321   */\n      dup3\n        /* \"#utility.yul\":6304:6313   */\n      dup6\n        /* \"#utility.yul\":6300:6322   */\n      add\n        /* \"#utility.yul\":6271:6332   */\n      tag_80\n      jump\t// in\n    tag_160:\n        /* \"#utility.yul\":6261:6332   */\n      swap2\n      pop\n        /* \"#utility.yul\":6217:6342   */\n      pop\n        /* \"#utility.yul\":6004:6349   */\n      swap3\n      swap2\n      pop\n      pop\n      jump\t// out\n        /* \"#utility.yul\":6355:6519   */\n    tag_81:\n        /* \"#utility.yul\":6495:6511   */\n      0x43616e6e6f74207374616b652030000000000000000000000000000000000000\n        /* \"#utility.yul\":6491:6492   */\n      0x00\n        /* \"#utility.yul\":6483:6489   */\n      dup3\n        /* \"#utility.yul\":6479:6493   */\n      add\n        /* \"#utility.yul\":6472:6512   */\n      mstore\n        /* \"#utility.yul\":6355:6519   */\n      pop\n      jump\t// out\n        /* \"#utility.yul\":6525:6891   */\n    tag_82:\n        /* \"#utility.yul\":6667:6670   */\n      0x00\n        /* \"#utility.yul\":6688:6755   */\n      tag_163\n        /* \"#utility.yul\":6752:6754   */\n      0x0e\n        /* \"#utility.yul\":6747:6750   */\n      dup4\n        /* \"#utility.yul\":6688:6755   */\n      tag_73\n      jump\t// in\n    tag_163:\n        /* \"#utility.yul\":6681:6755   */\n      swap2\n      pop\n        /* \"#utility.yul\":6764:6857   */\n      tag_164\n        /* \"#utility.yul\":6853:6856   */\n      dup3\n        /* \"#utility.yul\":6764:6857   */\n      tag_81\n      jump\t// in\n    tag_164:\n        /* \"#utility.yul\":6882:6884   */\n      0x20\n        /* \"#utility.yul\":6877:6880   */\n      dup3\n        /* \"#utility.yul\":6873:6885   */\n      add\n        /* \"#utility.yul\":6866:6885   */\n      swap1\n      pop\n        /* \"#utility.yul\":6525:6891   */\n      swap2\n      swap1\n      pop\n      jump\t// out\n        /* \"#utility.yul\":6897:7316   */\n    tag_51:\n        /* \"#utility.yul\":7063:7067   */\n      0x00\n        /* \"#utility.yul\":7101:7103   */\n      0x20\n        /* \"#utility.yul\":7090:7099   */\n      dup3\n        /* \"#utility.yul\":7086:7104   */\n      add\n        /* \"#utility.yul\":7078:7104   */\n      swap1\n      pop\n        /* \"#utility.yul\":7150:7159   */\n      dup2\n        /* \"#utility.yul\":7144:7148   */\n      dup2\n        /* \"#utility.yul\":7140:7160   */\n      sub\n        /* \"#utility.yul\":7136:7137   */\n      0x00\n        /* \"#utility.yul\":7125:7134   */\n      dup4\n        /* \"#utility.yul\":7121:7138   */\n      add\n        /* \"#utility.yul\":7114:7161   */\n      mstore\n        /* \"#utility.yul\":7178:7309   */\n      tag_166\n        /* \"#utility.yul\":7304:7308   */\n      dup2\n        /* \"#utility.yul\":7178:7309   */\n      tag_82\n      jump\t// in\n    tag_166:\n        /* \"#utility.yul\":7170:7309   */\n      swap1\n      pop\n        /* \"#utility.yul\":6897:7316   */\n      swap2\n      swap1\n      pop\n      jump\t// out\n        /* \"#utility.yul\":7322:7764   */\n    tag_53:\n        /* \"#utility.yul\":7471:7475   */\n      0x00\n        /* \"#utility.yul\":7509:7511   */\n      0x60\n        /* \"#utility.yul\":7498:7507   */\n      dup3\n        /* \"#utility.yul\":7494:7512   */\n      add\n        /* \"#utility.yul\":7486:7512   */\n      swap1\n      pop\n        /* \"#utility.yul\":7522:7593   */\n      tag_168\n        /* \"#utility.yul\":7590:7591   */\n      0x00\n        /* \"#utility.yul\":7579:7588   */\n      dup4\n        /* \"#utility.yul\":7575:7592   */\n      add\n        /* \"#utility.yul\":7566:7572   */\n      dup7\n        /* \"#utility.yul\":7522:7593   */\n      tag_77\n      jump\t// in\n    tag_168:\n        /* \"#utility.yul\":7603:7675   */\n      tag_169\n        /* \"#utility.yul\":7671:7673   */\n      0x20\n        /* \"#utility.yul\":7660:7669   */\n      dup4\n        /* \"#utility.yul\":7656:7674   */\n      add\n        /* \"#utility.yul\":7647:7653   */\n      dup6\n        /* \"#utility.yul\":7603:7675   */\n      tag_77\n      jump\t// in\n    tag_169:\n        /* \"#utility.yul\":7685:7757   */\n      tag_170\n        /* \"#utility.yul\":7753:7755   */\n      0x40\n        /* \"#utility.yul\":7742:7751   */\n      dup4\n        /* \"#utility.yul\":7738:7756   */\n      add\n        /* \"#utility.yul\":7729:7735   */\n      dup5\n        /* \"#utility.yul\":7685:7757   */\n      tag_70\n      jump\t// in\n    tag_170:\n        /* \"#utility.yul\":7322:7764   */\n      swap5\n      swap4\n      pop\n      pop\n      pop\n      pop\n      jump\t// out\n\n    auxdata: 0xa26469706673582212200370c1f332589dd43303313d65d3b63157043020cecb386c8ff3a339952871c664736f6c634300081d0033\n}\n",
				"bytecode": {
					"linkReferences": {},
					"object": "608060405234801561000f575f5ffd5b50604051610a93380380610a9383398181016040528101906100319190610115565b815f5f6101000a81548173ffffffffffffffffffffffffffffffffffffffff021916908373ffffffffffffffffffffffffffffffffffffffff1602179055508060015f6101000a81548173ffffffffffffffffffffffffffffffffffffffff021916908373ffffffffffffffffffffffffffffffffffffffff1602179055505050610153565b5f5ffd5b5f73ffffffffffffffffffffffffffffffffffffffff82169050919050565b5f6100e4826100bb565b9050919050565b6100f4816100da565b81146100fe575f5ffd5b50565b5f8151905061010f816100eb565b92915050565b5f5f6040838503121561012b5761012a6100b7565b5b5f61013885828601610101565b925050602061014985828601610101565b9150509250929050565b610933806101605f395ff3fe608060405234801561000f575f5ffd5b5060043610610055575f3560e01c8063228cb733146100595780633ccfd60b146100775780639168ae7214610081578063a694fc3a146100b2578063fc0c546a146100ce575b5f5ffd5b6100616100ec565b60405161006e919061059a565b60405180910390f35b61007f610111565b005b61009b600480360381019061009691906105f2565b610392565b6040516100a9929190610635565b60405180910390f35b6100cc60048036038101906100c79190610686565b6103b2565b005b6100d66104fc565b6040516100e3919061059a565b60405180910390f35b60015f9054906101000a900473ffffffffffffffffffffffffffffffffffffffff1681565b5f60025f3373ffffffffffffffffffffffffffffffffffffffff1673ffffffffffffffffffffffffffffffffffffffff1681526020019081526020015f206040518060400160405290815f820154815260200160018201548152505090505f815f0151116101b4576040517f08c379a00000000000000000000000000000000000000000000000000000000081526004016101ab9061070b565b60405180910390fd5b5f8160200151436101c59190610756565b90505f606482116101d75760016101da565b60025b60ff1690505f662386f26fc1000082855f01516101f79190610789565b6102019190610789565b905060025f3373ffffffffffffffffffffffffffffffffffffffff1673ffffffffffffffffffffffffffffffffffffffff1681526020019081526020015f205f5f82015f9055600182015f9055505060015f9054906101000a900473ffffffffffffffffffffffffffffffffffffffff1673ffffffffffffffffffffffffffffffffffffffff1663a9059cbb33836040518363ffffffff1660e01b81526004016102ac9291906107d9565b6020604051808303815f875af11580156102c8573d5f5f3e3d5ffd5b505050506040513d601f19601f820116820180604052508101906102ec9190610835565b505f5f9054906101000a900473ffffffffffffffffffffffffffffffffffffffff1673ffffffffffffffffffffffffffffffffffffffff1663a9059cbb33865f01516040518363ffffffff1660e01b815260040161034b9291906107d9565b6020604051808303815f875af1158015610367573d5f5f3e3d5ffd5b505050506040513d601f19601f8201168201806040525081019061038b9190610835565b5050505050565b6002602052805f5260405f205f91509050805f0154908060010154905082565b5f81116103f4576040517f08c379a00000000000000000000000000000000000000000000000000000000081526004016103eb906108aa565b60405180910390fd5b60405180604001604052808281526020014381525060025f3373ffffffffffffffffffffffffffffffffffffffff1673ffffffffffffffffffffffffffffffffffffffff1681526020019081526020015f205f820151815f0155602082015181600101559050505f5f9054906101000a900473ffffffffffffffffffffffffffffffffffffffff1673ffffffffffffffffffffffffffffffffffffffff166323b872dd3330846040518463ffffffff1660e01b81526004016104b8939291906108c8565b6020604051808303815f875af11580156104d4573d5f5f3e3d5ffd5b505050506040513d601f19601f820116820180604052508101906104f89190610835565b5050565b5f5f9054906101000a900473ffffffffffffffffffffffffffffffffffffffff1681565b5f73ffffffffffffffffffffffffffffffffffffffff82169050919050565b5f819050919050565b5f61056261055d61055884610520565b61053f565b610520565b9050919050565b5f61057382610548565b9050919050565b5f61058482610569565b9050919050565b6105948161057a565b82525050565b5f6020820190506105ad5f83018461058b565b92915050565b5f5ffd5b5f6105c182610520565b9050919050565b6105d1816105b7565b81146105db575f5ffd5b50565b5f813590506105ec816105c8565b92915050565b5f60208284031215610607576106066105b3565b5b5f610614848285016105de565b91505092915050565b5f819050919050565b61062f8161061d565b82525050565b5f6040820190506106485f830185610626565b6106556020830184610626565b9392505050565b6106658161061d565b811461066f575f5ffd5b50565b5f813590506106808161065c565b92915050565b5f6020828403121561069b5761069a6105b3565b5b5f6106a884828501610672565b91505092915050565b5f82825260208201905092915050565b7f4e6f207374616b6520666f756e640000000000000000000000000000000000005f82015250565b5f6106f5600e836106b1565b9150610700826106c1565b602082019050919050565b5f6020820190508181035f830152610722816106e9565b9050919050565b7f4e487b71000000000000000000000000000000000000000000000000000000005f52601160045260245ffd5b5f6107608261061d565b915061076b8361061d565b925082820390508181111561078357610782610729565b5b92915050565b5f6107938261061d565b915061079e8361061d565b92508282026107ac8161061d565b915082820484148315176107c3576107c2610729565b5b5092915050565b6107d3816105b7565b82525050565b5f6040820190506107ec5f8301856107ca565b6107f96020830184610626565b9392505050565b5f8115159050919050565b61081481610800565b811461081e575f5ffd5b50565b5f8151905061082f8161080b565b92915050565b5f6020828403121561084a576108496105b3565b5b5f61085784828501610821565b91505092915050565b7f43616e6e6f74207374616b6520300000000000000000000000000000000000005f82015250565b5f610894600e836106b1565b915061089f82610860565b602082019050919050565b5f6020820190508181035f8301526108c181610888565b9050919050565b5f6060820190506108db5f8301866107ca565b6108e860208301856107ca565b6108f56040830184610626565b94935050505056fea26469706673582212200370c1f332589dd43303313d65d3b63157043020cecb386c8ff3a339952871c664736f6c634300081d0033",
					"opcodes": "PUSH1 0x80 PUSH1 0x40 MSTORE CALLVALUE DUP1 ISZERO PUSH2 0xF JUMPI PUSH0 PUSH0 REVERT JUMPDEST POP PUSH1 0x40 MLOAD PUSH2 0xA93 CODESIZE SUB DUP1 PUSH2 0xA93 DUP4 CODECOPY DUP2 DUP2 ADD PUSH1 0x40 MSTORE DUP2 ADD SWAP1 PUSH2 0x31 SWAP2 SWAP1 PUSH2 0x115 JUMP JUMPDEST DUP2 PUSH0 PUSH0 PUSH2 0x100 EXP DUP2 SLOAD DUP2 PUSH20 0xFFFFFFFFFFFFFFFFFFFFFFFFFFFFFFFFFFFFFFFF MUL NOT AND SWAP1 DUP4 PUSH20 0xFFFFFFFFFFFFFFFFFFFFFFFFFFFFFFFFFFFFFFFF AND MUL OR SWAP1 SSTORE POP DUP1 PUSH1 0x1 PUSH0 PUSH2 0x100 EXP DUP2 SLOAD DUP2 PUSH20 0xFFFFFFFFFFFFFFFFFFFFFFFFFFFFFFFFFFFFFFFF MUL NOT AND SWAP1 DUP4 PUSH20 0xFFFFFFFFFFFFFFFFFFFFFFFFFFFFFFFFFFFFFFFF AND MUL OR SWAP1 SSTORE POP POP POP PUSH2 0x153 JUMP JUMPDEST PUSH0 PUSH0 REVERT JUMPDEST PUSH0 PUSH20 0xFFFFFFFFFFFFFFFFFFFFFFFFFFFFFFFFFFFFFFFF DUP3 AND SWAP1 POP SWAP2 SWAP1 POP JUMP JUMPDEST PUSH0 PUSH2 0xE4 DUP3 PUSH2 0xBB JUMP JUMPDEST SWAP1 POP SWAP2 SWAP1 POP JUMP JUMPDEST PUSH2 0xF4 DUP2 PUSH2 0xDA JUMP JUMPDEST DUP2 EQ PUSH2 0xFE JUMPI PUSH0 PUSH0 REVERT JUMPDEST POP JUMP JUMPDEST PUSH0 DUP2 MLOAD SWAP1 POP PUSH2 0x10F DUP2 PUSH2 0xEB JUMP JUMPDEST SWAP3 SWAP2 POP POP JUMP JUMPDEST PUSH0 PUSH0 PUSH1 0x40 DUP4 DUP6 SUB SLT ISZERO PUSH2 0x12B JUMPI PUSH2 0x12A PUSH2 0xB7 JUMP JUMPDEST JUMPDEST PUSH0 PUSH2 0x138 DUP6 DUP3 DUP7 ADD PUSH2 0x101 JUMP JUMPDEST SWAP3 POP POP PUSH1 0x20 PUSH2 0x149 DUP6 DUP3 DUP7 ADD PUSH2 0x101 JUMP JUMPDEST SWAP2 POP POP SWAP3 POP SWAP3 SWAP1 POP JUMP JUMPDEST PUSH2 0x933 DUP1 PUSH2 0x160 PUSH0 CODECOPY PUSH0 RETURN INVALID PUSH1 0x80 PUSH1 0x40 MSTORE CALLVALUE DUP1 ISZERO PUSH2 0xF JUMPI PUSH0 PUSH0 REVERT JUMPDEST POP PUSH1 0x4 CALLDATASIZE LT PUSH2 0x55 JUMPI PUSH0 CALLDATALOAD PUSH1 0xE0 SHR DUP1 PUSH4 0x228CB733 EQ PUSH2 0x59 JUMPI DUP1 PUSH4 0x3CCFD60B EQ PUSH2 0x77 JUMPI DUP1 PUSH4 0x9168AE72 EQ PUSH2 0x81 JUMPI DUP1 PUSH4 0xA694FC3A EQ PUSH2 0xB2 JUMPI DUP1 PUSH4 0xFC0C546A EQ PUSH2 0xCE JUMPI JUMPDEST PUSH0 PUSH0 REVERT JUMPDEST PUSH2 0x61 PUSH2 0xEC JUMP JUMPDEST PUSH1 0x40 MLOAD PUSH2 0x6E SWAP2 SWAP1 PUSH2 0x59A JUMP JUMPDEST PUSH1 0x40 MLOAD DUP1 SWAP2 SUB SWAP1 RETURN JUMPDEST PUSH2 0x7F PUSH2 0x111 JUMP JUMPDEST STOP JUMPDEST PUSH2 0x9B PUSH1 0x4 DUP1 CALLDATASIZE SUB DUP2 ADD SWAP1 PUSH2 0x96 SWAP2 SWAP1 PUSH2 0x5F2 JUMP JUMPDEST PUSH2 0x392 JUMP JUMPDEST PUSH1 0x40 MLOAD PUSH2 0xA9 SWAP3 SWAP2 SWAP1 PUSH2 0x635 JUMP JUMPDEST PUSH1 0x40 MLOAD DUP1 SWAP2 SUB SWAP1 RETURN JUMPDEST PUSH2 0xCC PUSH1 0x4 DUP1 CALLDATASIZE SUB DUP2 ADD SWAP1 PUSH2 0xC7 SWAP2 SWAP1 PUSH2 0x686 JUMP JUMPDEST PUSH2 0x3B2 JUMP JUMPDEST STOP JUMPDEST PUSH2 0xD6 PUSH2 0x4FC JUMP JUMPDEST PUSH1 0x40 MLOAD PUSH2 0xE3 SWAP2 SWAP1 PUSH2 0x59A JUMP JUMPDEST PUSH1 0x40 MLOAD DUP1 SWAP2 SUB SWAP1 RETURN JUMPDEST PUSH1 0x1 PUSH0 SWAP1 SLOAD SWAP1 PUSH2 0x100 EXP SWAP1 DIV PUSH20 0xFFFFFFFFFFFFFFFFFFFFFFFFFFFFFFFFFFFFFFFF AND DUP2 JUMP JUMPDEST PUSH0 PUSH1 0x2 PUSH0 CALLER PUSH20 0xFFFFFFFFFFFFFFFFFFFFFFFFFFFFFFFFFFFFFFFF AND PUSH20 0xFFFFFFFFFFFFFFFFFFFFFFFFFFFFFFFFFFFFFFFF AND DUP2 MSTORE PUSH1 0x20 ADD SWAP1 DUP2 MSTORE PUSH1 0x20 ADD PUSH0 KECCAK256 PUSH1 0x40 MLOAD DUP1 PUSH1 0x40 ADD PUSH1 0x40 MSTORE SWAP1 DUP2 PUSH0 DUP3 ADD SLOAD DUP2 MSTORE PUSH1 0x20 ADD PUSH1 0x1 DUP3 ADD SLOAD DUP2 MSTORE POP POP SWAP1 POP PUSH0 DUP2 PUSH0 ADD MLOAD GT PUSH2 0x1B4 JUMPI PUSH1 0x40 MLOAD PUSH32 0x8C379A000000000000000000000000000000000000000000000000000000000 DUP2 MSTORE PUSH1 0x4 ADD PUSH2 0x1AB SWAP1 PUSH2 0x70B JUMP JUMPDEST PUSH1 0x40 MLOAD DUP1 SWAP2 SUB SWAP1 REVERT JUMPDEST PUSH0 DUP2 PUSH1 0x20 ADD MLOAD NUMBER PUSH2 0x1C5 SWAP2 SWAP1 PUSH2 0x756 JUMP JUMPDEST SWAP1 POP PUSH0 PUSH1 0x64 DUP3 GT PUSH2 0x1D7 JUMPI PUSH1 0x1 PUSH2 0x1DA JUMP JUMPDEST PUSH1 0x2 JUMPDEST PUSH1 0xFF AND SWAP1 POP PUSH0 PUSH7 0x2386F26FC10000 DUP3 DUP6 PUSH0 ADD MLOAD PUSH2 0x1F7 SWAP2 SWAP1 PUSH2 0x789 JUMP JUMPDEST PUSH2 0x201 SWAP2 SWAP1 PUSH2 0x789 JUMP JUMPDEST SWAP1 POP PUSH1 0x2 PUSH0 CALLER PUSH20 0xFFFFFFFFFFFFFFFFFFFFFFFFFFFFFFFFFFFFFFFF AND PUSH20 0xFFFFFFFFFFFFFFFFFFFFFFFFFFFFFFFFFFFFFFFF AND DUP2 MSTORE PUSH1 0x20 ADD SWAP1 DUP2 MSTORE PUSH1 0x20 ADD PUSH0 KECCAK256 PUSH0 PUSH0 DUP3 ADD PUSH0 SWAP1 SSTORE PUSH1 0x1 DUP3 ADD PUSH0 SWAP1 SSTORE POP POP PUSH1 0x1 PUSH0 SWAP1 SLOAD SWAP1 PUSH2 0x100 EXP SWAP1 DIV PUSH20 0xFFFFFFFFFFFFFFFFFFFFFFFFFFFFFFFFFFFFFFFF AND PUSH20 0xFFFFFFFFFFFFFFFFFFFFFFFFFFFFFFFFFFFFFFFF AND PUSH4 0xA9059CBB CALLER DUP4 PUSH1 0x40 MLOAD DUP4 PUSH4 0xFFFFFFFF AND PUSH1 0xE0 SHL DUP2 MSTORE PUSH1 0x4 ADD PUSH2 0x2AC SWAP3 SWAP2 SWAP1 PUSH2 0x7D9 JUMP JUMPDEST PUSH1 0x20 PUSH1 0x40 MLOAD DUP1 DUP4 SUB DUP2 PUSH0 DUP8 GAS CALL ISZERO DUP1 ISZERO PUSH2 0x2C8 JUMPI RETURNDATASIZE PUSH0 PUSH0 RETURNDATACOPY RETURNDATASIZE PUSH0 REVERT JUMPDEST POP POP POP POP PUSH1 0x40 MLOAD RETURNDATASIZE PUSH1 0x1F NOT PUSH1 0x1F DUP3 ADD AND DUP3 ADD DUP1 PUSH1 0x40 MSTORE POP DUP2 ADD SWAP1 PUSH2 0x2EC SWAP2 SWAP1 PUSH2 0x835 JUMP JUMPDEST POP PUSH0 PUSH0 SWAP1 SLOAD SWAP1 PUSH2 0x100 EXP SWAP1 DIV PUSH20 0xFFFFFFFFFFFFFFFFFFFFFFFFFFFFFFFFFFFFFFFF AND PUSH20 0xFFFFFFFFFFFFFFFFFFFFFFFFFFFFFFFFFFFFFFFF AND PUSH4 0xA9059CBB CALLER DUP7 PUSH0 ADD MLOAD PUSH1 0x40 MLOAD DUP4 PUSH4 0xFFFFFFFF AND PUSH1 0xE0 SHL DUP2 MSTORE PUSH1 0x4 ADD PUSH2 0x34B SWAP3 SWAP2 SWAP1 PUSH2 0x7D9 JUMP JUMPDEST PUSH1 0x20 PUSH1 0x40 MLOAD DUP1 DUP4 SUB DUP2 PUSH0 DUP8 GAS CALL ISZERO DUP1 ISZERO PUSH2 0x367 JUMPI RETURNDATASIZE PUSH0 PUSH0 RETURNDATACOPY RETURNDATASIZE PUSH0 REVERT JUMPDEST POP POP POP POP PUSH1 0x40 MLOAD RETURNDATASIZE PUSH1 0x1F NOT PUSH1 0x1F DUP3 ADD AND DUP3 ADD DUP1 PUSH1 0x40 MSTORE POP DUP2 ADD SWAP1 PUSH2 0x38B SWAP2 SWAP1 PUSH2 0x835 JUMP JUMPDEST POP POP POP POP POP JUMP JUMPDEST PUSH1 0x2 PUSH1 0x20 MSTORE DUP1 PUSH0 MSTORE PUSH1 0x40 PUSH0 KECCAK256 PUSH0 SWAP2 POP SWAP1 POP DUP1 PUSH0 ADD SLOAD SWAP1 DUP1 PUSH1 0x1 ADD SLOAD SWAP1 POP DUP3 JUMP JUMPDEST PUSH0 DUP2 GT PUSH2 0x3F4 JUMPI PUSH1 0x40 MLOAD PUSH32 0x8C379A000000000000000000000000000000000000000000000000000000000 DUP2 MSTORE PUSH1 0x4 ADD PUSH2 0x3EB SWAP1 PUSH2 0x8AA JUMP JUMPDEST PUSH1 0x40 MLOAD DUP1 SWAP2 SUB SWAP1 REVERT JUMPDEST PUSH1 0x40 MLOAD DUP1 PUSH1 0x40 ADD PUSH1 0x40 MSTORE DUP1 DUP3 DUP2 MSTORE PUSH1 0x20 ADD NUMBER DUP2 MSTORE POP PUSH1 0x2 PUSH0 CALLER PUSH20 0xFFFFFFFFFFFFFFFFFFFFFFFFFFFFFFFFFFFFFFFF AND PUSH20 0xFFFFFFFFFFFFFFFFFFFFFFFFFFFFFFFFFFFFFFFF AND DUP2 MSTORE PUSH1 0x20 ADD SWAP1 DUP2 MSTORE PUSH1 0x20 ADD PUSH0 KECCAK256 PUSH0 DUP3 ADD MLOAD DUP2 PUSH0 ADD SSTORE PUSH1 0x20 DUP3 ADD MLOAD DUP2 PUSH1 0x1 ADD SSTORE SWAP1 POP POP PUSH0 PUSH0 SWAP1 SLOAD SWAP1 PUSH2 0x100 EXP SWAP1 DIV PUSH20 0xFFFFFFFFFFFFFFFFFFFFFFFFFFFFFFFFFFFFFFFF AND PUSH20 0xFFFFFFFFFFFFFFFFFFFFFFFFFFFFFFFFFFFFFFFF AND PUSH4 0x23B872DD CALLER ADDRESS DUP5 PUSH1 0x40 MLOAD DUP5 PUSH4 0xFFFFFFFF AND PUSH1 0xE0 SHL DUP2 MSTORE PUSH1 0x4 ADD PUSH2 0x4B8 SWAP4 SWAP3 SWAP2 SWAP1 PUSH2 0x8C8 JUMP JUMPDEST PUSH1 0x20 PUSH1 0x40 MLOAD DUP1 DUP4 SUB DUP2 PUSH0 DUP8 GAS CALL ISZERO DUP1 ISZERO PUSH2 0x4D4 JUMPI RETURNDATASIZE PUSH0 PUSH0 RETURNDATACOPY RETURNDATASIZE PUSH0 REVERT JUMPDEST POP POP POP POP PUSH1 0x40 MLOAD RETURNDATASIZE PUSH1 0x1F NOT PUSH1 0x1F DUP3 ADD AND DUP3 ADD DUP1 PUSH1 0x40 MSTORE POP DUP2 ADD SWAP1 PUSH2 0x4F8 SWAP2 SWAP1 PUSH2 0x835 JUMP JUMPDEST POP POP JUMP JUMPDEST PUSH0 PUSH0 SWAP1 SLOAD SWAP1 PUSH2 0x100 EXP SWAP1 DIV PUSH20 0xFFFFFFFFFFFFFFFFFFFFFFFFFFFFFFFFFFFFFFFF AND DUP2 JUMP JUMPDEST PUSH0 PUSH20 0xFFFFFFFFFFFFFFFFFFFFFFFFFFFFFFFFFFFFFFFF DUP3 AND SWAP1 POP SWAP2 SWAP1 POP JUMP JUMPDEST PUSH0 DUP2 SWAP1 POP SWAP2 SWAP1 POP JUMP JUMPDEST PUSH0 PUSH2 0x562 PUSH2 0x55D PUSH2 0x558 DUP5 PUSH2 0x520 JUMP JUMPDEST PUSH2 0x53F JUMP JUMPDEST PUSH2 0x520 JUMP JUMPDEST SWAP1 POP SWAP2 SWAP1 POP JUMP JUMPDEST PUSH0 PUSH2 0x573 DUP3 PUSH2 0x548 JUMP JUMPDEST SWAP1 POP SWAP2 SWAP1 POP JUMP JUMPDEST PUSH0 PUSH2 0x584 DUP3 PUSH2 0x569 JUMP JUMPDEST SWAP1 POP SWAP2 SWAP1 POP JUMP JUMPDEST PUSH2 0x594 DUP2 PUSH2 0x57A JUMP JUMPDEST DUP3 MSTORE POP POP JUMP JUMPDEST PUSH0 PUSH1 0x20 DUP3 ADD SWAP1 POP PUSH2 0x5AD PUSH0 DUP4 ADD DUP5 PUSH2 0x58B JUMP JUMPDEST SWAP3 SWAP2 POP POP JUMP JUMPDEST PUSH0 PUSH0 REVERT JUMPDEST PUSH0 PUSH2 0x5C1 DUP3 PUSH2 0x520 JUMP JUMPDEST SWAP1 POP SWAP2 SWAP1 POP JUMP JUMPDEST PUSH2 0x5D1 DUP2 PUSH2 0x5B7 JUMP JUMPDEST DUP2 EQ PUSH2 0x5DB JUMPI PUSH0 PUSH0 REVERT JUMPDEST POP JUMP JUMPDEST PUSH0 DUP2 CALLDATALOAD SWAP1 POP PUSH2 0x5EC DUP2 PUSH2 0x5C8 JUMP JUMPDEST SWAP3 SWAP2 POP POP JUMP JUMPDEST PUSH0 PUSH1 0x20 DUP3 DUP5 SUB SLT ISZERO PUSH2 0x607 JUMPI PUSH2 0x606 PUSH2 0x5B3 JUMP JUMPDEST JUMPDEST PUSH0 PUSH2 0x614 DUP5 DUP3 DUP6 ADD PUSH2 0x5DE JUMP JUMPDEST SWAP2 POP POP SWAP3 SWAP2 POP POP JUMP JUMPDEST PUSH0 DUP2 SWAP1 POP SWAP2 SWAP1 POP JUMP JUMPDEST PUSH2 0x62F DUP2 PUSH2 0x61D JUMP JUMPDEST DUP3 MSTORE POP POP JUMP JUMPDEST PUSH0 PUSH1 0x40 DUP3 ADD SWAP1 POP PUSH2 0x648 PUSH0 DUP4 ADD DUP6 PUSH2 0x626 JUMP JUMPDEST PUSH2 0x655 PUSH1 0x20 DUP4 ADD DUP5 PUSH2 0x626 JUMP JUMPDEST SWAP4 SWAP3 POP POP POP JUMP JUMPDEST PUSH2 0x665 DUP2 PUSH2 0x61D JUMP JUMPDEST DUP2 EQ PUSH2 0x66F JUMPI PUSH0 PUSH0 REVERT JUMPDEST POP JUMP JUMPDEST PUSH0 DUP2 CALLDATALOAD SWAP1 POP PUSH2 0x680 DUP2 PUSH2 0x65C JUMP JUMPDEST SWAP3 SWAP2 POP POP JUMP JUMPDEST PUSH0 PUSH1 0x20 DUP3 DUP5 SUB SLT ISZERO PUSH2 0x69B JUMPI PUSH2 0x69A PUSH2 0x5B3 JUMP JUMPDEST JUMPDEST PUSH0 PUSH2 0x6A8 DUP5 DUP3 DUP6 ADD PUSH2 0x672 JUMP JUMPDEST SWAP2 POP POP SWAP3 SWAP2 POP POP JUMP JUMPDEST PUSH0 DUP3 DUP3 MSTORE PUSH1 0x20 DUP3 ADD SWAP1 POP SWAP3 SWAP2 POP POP JUMP JUMPDEST PUSH32 0x4E6F207374616B6520666F756E64000000000000000000000000000000000000 PUSH0 DUP3 ADD MSTORE POP JUMP JUMPDEST PUSH0 PUSH2 0x6F5 PUSH1 0xE DUP4 PUSH2 0x6B1 JUMP JUMPDEST SWAP2 POP PUSH2 0x700 DUP3 PUSH2 0x6C1 JUMP JUMPDEST PUSH1 0x20 DUP3 ADD SWAP1 POP SWAP2 SWAP1 POP JUMP JUMPDEST PUSH0 PUSH1 0x20 DUP3 ADD SWAP1 POP DUP2 DUP2 SUB PUSH0 DUP4 ADD MSTORE PUSH2 0x722 DUP2 PUSH2 0x6E9 JUMP JUMPDEST SWAP1 POP SWAP2 SWAP1 POP JUMP JUMPDEST PUSH32 0x4E487B7100000000000000000000000000000000000000000000000000000000 PUSH0 MSTORE PUSH1 0x11 PUSH1 0x4 MSTORE PUSH1 0x24 PUSH0 REVERT JUMPDEST PUSH0 PUSH2 0x760 DUP3 PUSH2 0x61D JUMP JUMPDEST SWAP2 POP PUSH2 0x76B DUP4 PUSH2 0x61D JUMP JUMPDEST SWAP3 POP DUP3 DUP3 SUB SWAP1 POP DUP2 DUP2 GT ISZERO PUSH2 0x783 JUMPI PUSH2 0x782 PUSH2 0x729 JUMP JUMPDEST JUMPDEST SWAP3 SWAP2 POP POP JUMP JUMPDEST PUSH0 PUSH2 0x793 DUP3 PUSH2 0x61D JUMP JUMPDEST SWAP2 POP PUSH2 0x79E DUP4 PUSH2 0x61D JUMP JUMPDEST SWAP3 POP DUP3 DUP3 MUL PUSH2 0x7AC DUP2 PUSH2 0x61D JUMP JUMPDEST SWAP2 POP DUP3 DUP3 DIV DUP5 EQ DUP4 ISZERO OR PUSH2 0x7C3 JUMPI PUSH2 0x7C2 PUSH2 0x729 JUMP JUMPDEST JUMPDEST POP SWAP3 SWAP2 POP POP JUMP JUMPDEST PUSH2 0x7D3 DUP2 PUSH2 0x5B7 JUMP JUMPDEST DUP3 MSTORE POP POP JUMP JUMPDEST PUSH0 PUSH1 0x40 DUP3 ADD SWAP1 POP PUSH2 0x7EC PUSH0 DUP4 ADD DUP6 PUSH2 0x7CA JUMP JUMPDEST PUSH2 0x7F9 PUSH1 0x20 DUP4 ADD DUP5 PUSH2 0x626 JUMP JUMPDEST SWAP4 SWAP3 POP POP POP JUMP JUMPDEST PUSH0 DUP2 ISZERO ISZERO SWAP1 POP SWAP2 SWAP1 POP JUMP JUMPDEST PUSH2 0x814 DUP2 PUSH2 0x800 JUMP JUMPDEST DUP2 EQ PUSH2 0x81E JUMPI PUSH0 PUSH0 REVERT JUMPDEST POP JUMP JUMPDEST PUSH0 DUP2 MLOAD SWAP1 POP PUSH2 0x82F DUP2 PUSH2 0x80B JUMP JUMPDEST SWAP3 SWAP2 POP POP JUMP JUMPDEST PUSH0 PUSH1 0x20 DUP3 DUP5 SUB SLT ISZERO PUSH2 0x84A JUMPI PUSH2 0x849 PUSH2 0x5B3 JUMP JUMPDEST JUMPDEST PUSH0 PUSH2 0x857 DUP5 DUP3 DUP6 ADD PUSH2 0x821 JUMP JUMPDEST SWAP2 POP POP SWAP3 SWAP2 POP POP JUMP JUMPDEST PUSH32 0x43616E6E6F74207374616B652030000000000000000000000000000000000000 PUSH0 DUP3 ADD MSTORE POP JUMP JUMPDEST PUSH0 PUSH2 0x894 PUSH1 0xE DUP4 PUSH2 0x6B1 JUMP JUMPDEST SWAP2 POP PUSH2 0x89F DUP3 PUSH2 0x860 JUMP JUMPDEST PUSH1 0x20 DUP3 ADD SWAP1 POP SWAP2 SWAP1 POP JUMP JUMPDEST PUSH0 PUSH1 0x20 DUP3 ADD SWAP1 POP DUP2 DUP2 SUB PUSH0 DUP4 ADD MSTORE PUSH2 0x8C1 DUP2 PUSH2 0x888 JUMP JUMPDEST SWAP1 POP SWAP2 SWAP1 POP JUMP JUMPDEST PUSH0 PUSH1 0x60 DUP3 ADD SWAP1 POP PUSH2 0x8DB PUSH0 DUP4 ADD DUP7 PUSH2 0x7CA JUMP JUMPDEST PUSH2 0x8E8 PUSH1 0x20 DUP4 ADD DUP6 PUSH2 0x7CA JUMP JUMPDEST PUSH2 0x8F5 PUSH1 0x40 DUP4 ADD DUP5 PUSH2 0x626 JUMP JUMPDEST SWAP5 SWAP4 POP POP POP POP JUMP INVALID LOG2 PUSH5 0x6970667358 0x22 SLT KECCAK256 SUB PUSH17 0xC1F332589DD43303313D65D3B631570430 KECCAK256 0xCE 0xCB CODESIZE PUSH13 0x8FF3A339952871C664736F6C63 NUMBER STOP ADDMOD SAR STOP CALLER "
				},
				"gasEstimates": {
					"creation": {
						"codeDepositCost": "471000",
						"executionCost": "infinite",
						"totalCost": "infinite"
					},
					"external": {
						"reward()": "infinite",
						"stake(uint256)": "infinite",
						"stakers(address)": "infinite",
						"token()": "infinite",
						"withdraw()": "infinite"
					}
				},
				"methodIdentifiers": {
					"reward()": "228cb733",
					"stake(uint256)": "a694fc3a",
					"stakers(address)": "9168ae72",
					"token()": "fc0c546a",
					"withdraw()": "3ccfd60b"
				}
			},
			"storageLayout": {
				"storage": [
					{
						"astId": 84,
						"contract": "L/TimeLockedFarm.sol:TimeLockedFarm",
						"label": "token",
						"offset": 0,
						"slot": "0",
						"type": "t_contract(IERC20)77"
					},
					{
						"astId": 87,
						"contract": "L/TimeLockedFarm.sol:TimeLockedFarm",
						"label": "reward",
						"offset": 0,
						"slot": "1",
						"type": "t_contract(IERC20)77"
					},
					{
						"astId": 97,
						"contract": "L/TimeLockedFarm.sol:TimeLockedFarm",
						"label": "stakers",
						"offset": 0,
						"slot": "2",
						"type": "t_mapping(t_address,t_struct(StakeInfo)92_storage)"
					}
				],
				"types": {
					"t_address": {
						"encoding": "inplace",
						"label": "address",
						"numberOfBytes": "20"
					},
					"t_contract(IERC20)77": {
						"encoding": "inplace",
						"label": "contract IERC20",
						"numberOfBytes": "20"
					},
					"t_mapping(t_address,t_struct(StakeInfo)92_storage)": {
						"encoding": "mapping",
						"key": "t_address",
						"label": "mapping(address => struct TimeLockedFarm.StakeInfo)",
						"numberOfBytes": "32",
						"value": "t_struct(StakeInfo)92_storage"
					},
					"t_struct(StakeInfo)92_storage": {
						"encoding": "inplace",
						"label": "struct TimeLockedFarm.StakeInfo",
						"members": [
							{
								"astId": 89,
								"contract": "L/TimeLockedFarm.sol:TimeLockedFarm",
								"label": "amount",
								"offset": 0,
								"slot": "0",
								"type": "t_uint256"
							},
							{
								"astId": 91,
								"contract": "L/TimeLockedFarm.sol:TimeLockedFarm",
								"label": "startBlock",
								"offset": 0,
								"slot": "1",
								"type": "t_uint256"
							}
						],
						"numberOfBytes": "64"
					},
					"t_uint256": {
						"encoding": "inplace",
						"label": "uint256",
						"numberOfBytes": "32"
					}
				}
			},
			"userdoc": {
				"kind": "user",
				"methods": {},
				"notice": "Time-weighted liquidity mining: the longer you stake, the more you earn",
				"version": 1
			}
		}
	}
}