{
	"L/layer0.sol": {
		"Layer0Bridge": {
			"abi": [
				{
					"anonymous": false,
					"inputs": [
						{
							"indexed": false,
							"internalType": "uint16",
							"name": "sourceChainId",
							"type": "uint16"
						},
						{
							"indexed": false,
							"internalType": "address",
							"name": "sourceSender",
							"type": "address"
						},
						{
							"indexed": false,
							"internalType": "string",
							"name": "payload",
							"type": "string"
						}
					],
					"name": "MessageReceived",
					"type": "event"
				},
				{
					"inputs": [
						{
							"internalType": "uint16",
							"name": "_srcChainId",
							"type": "uint16"
						},
						{
							"internalType": "address",
							"name": "_srcSender",
							"type": "address"
						},
						{
							"internalType": "string",
							"name": "_payload",
							"type": "string"
						}
					],
					"name": "receiveMessage",
					"outputs": [],
					"stateMutability": "nonpayable",
					"type": "function"
				},
				{
					"inputs": [
						{
							"internalType": "uint16",
							"name": "_chainId",
							"type": "uint16"
						},
						{
							"internalType": "address",
							"name": "_source",
							"type": "address"
						}
					],
					"name": "setTrustedSource",
					"outputs": [],
					"stateMutability": "nonpayable",
					"type": "function"
				},
				{
					"inputs": [
						{
							"internalType": "uint16",
							"name": "",
							"type": "uint16"
						}
					],
					"name": "trustedSources",
					"outputs": [
						{
							"internalType": "address",
							"name": "",
							"type": "address"
						}
					],
					"stateMutability": "view",
					"type": "function"
				}
			],
			"devdoc": {
				"kind": "dev",
				"methods": {},
				"title": "Layer 0 Message Receiver Simulator",
				"version": 1
			},
			"evm": {
				"assembly": "    /* \"L/layer0.sol\":104:907  contract Layer0Bridge {... */\n  mstore(0x40, 0x80)\n  callvalue\n  dup1\n  iszero\n  tag_1\n  jumpi\n  revert(0x00, 0x00)\ntag_1:\n  pop\n  dataSize(sub_0)\n  dup1\n  dataOffset(sub_0)\n  0x00\n  codecopy\n  0x00\n  return\nstop\n\nsub_0: assembly {\n        /* \"L/layer0.sol\":104:907  contract Layer0Bridge {... */\n      mstore(0x40, 0x80)\n      callvalue\n      dup1\n      iszero\n      tag_1\n      jumpi\n      revert(0x00, 0x00)\n    tag_1:\n      pop\n      jumpi(tag_2, lt(calldatasize, 0x04))\n      shr(0xe0, calldataload(0x00))\n      dup1\n      0x0d56b718\n      eq\n      tag_3\n      jumpi\n      dup1\n      0x4f0d721b\n      eq\n      tag_4\n      jumpi\n      dup1\n      0xe0973740\n      eq\n      tag_5\n      jumpi\n    tag_2:\n      revert(0x00, 0x00)\n        /* \"L/layer0.sol\":219:267  mapping(uint16 => address) public trustedSources */\n    tag_3:\n      tag_6\n      0x04\n      dup1\n      calldatasize\n      sub\n      dup2\n      add\n      swap1\n      tag_7\n      swap2\n      swap1\n      tag_8\n      jump\t// in\n    tag_7:\n      tag_9\n      jump\t// in\n    tag_6:\n      mload(0x40)\n      tag_10\n      swap2\n      swap1\n      tag_11\n      jump\t// in\n    tag_10:\n      mload(0x40)\n      dup1\n      swap2\n      sub\n      swap1\n      return\n        /* \"L/layer0.sol\":419:539  function setTrustedSource(uint16 _chainId, address _source) external {... */\n    tag_4:\n      tag_12\n      0x04\n      dup1\n      calldatasize\n      sub\n      dup2\n      add\n      swap1\n      tag_13\n      swap2\n      swap1\n      tag_14\n      jump\t// in\n    tag_13:\n      tag_15\n      jump\t// in\n    tag_12:\n      stop\n        /* \"L/layer0.sol\":606:905  function receiveMessage(uint16 _srcChainId, address _srcSender, string calldata _payload)... */\n    tag_5:\n      tag_16\n      0x04\n      dup1\n      calldatasize\n      sub\n      dup2\n      add\n      swap1\n      tag_17\n      swap2\n      swap1\n      tag_18\n      jump\t// in\n    tag_17:\n      tag_19\n      jump\t// in\n    tag_16:\n      stop\n        /* \"L/layer0.sol\":219:267  mapping(uint16 => address) public trustedSources */\n    tag_9:\n      mstore(0x20, 0x00)\n      dup1\n      0x00\n      mstore\n      keccak256(0x00, 0x40)\n      0x00\n      swap2\n      pop\n      sload\n      swap1\n      0x0100\n      exp\n      swap1\n      div\n      0xffffffffffffffffffffffffffffffffffffffff\n      and\n      dup2\n      jump\t// out\n        /* \"L/layer0.sol\":419:539  function setTrustedSource(uint16 _chainId, address _source) external {... */\n    tag_15:\n        /* \"L/layer0.sol\":525:532  _source */\n      dup1\n        /* \"L/layer0.sol\":498:512  trustedSources */\n      0x00\n        /* \"L/layer0.sol\":498:522  trustedSources[_chainId] */\n      0x00\n        /* \"L/layer0.sol\":513:521  _chainId */\n      dup5\n        /* \"L/layer0.sol\":498:522  trustedSources[_chainId] */\n      0xffff\n      and\n      0xffff\n      and\n      dup2\n      mstore\n      0x20\n      add\n      swap1\n      dup2\n      mstore\n      0x20\n      add\n      0x00\n      keccak256\n      0x00\n        /* \"L/layer0.sol\":498:532  trustedSources[_chainId] = _source */\n      0x0100\n      exp\n      dup2\n      sload\n      dup2\n      0xffffffffffffffffffffffffffffffffffffffff\n      mul\n      not\n      and\n      swap1\n      dup4\n      0xffffffffffffffffffffffffffffffffffffffff\n      and\n      mul\n      or\n      swap1\n      sstore\n      pop\n        /* \"L/layer0.sol\":419:539  function setTrustedSource(uint16 _chainId, address _source) external {... */\n      pop\n      pop\n      jump\t// out\n        /* \"L/layer0.sol\":606:905  function receiveMessage(uint16 _srcChainId, address _srcSender, string calldata _payload)... */\n    tag_19:\n        /* \"L/layer0.sol\":739:750  _srcChainId */\n      dup4\n        /* \"L/layer0.sol\":350:364  trustedSources */\n      0x00\n        /* \"L/layer0.sol\":350:374  trustedSources[_chainId] */\n      0x00\n        /* \"L/layer0.sol\":365:373  _chainId */\n      dup3\n        /* \"L/layer0.sol\":350:374  trustedSources[_chainId] */\n      0xffff\n      and\n      0xffff\n      and\n      dup2\n      mstore\n      0x20\n      add\n      swap1\n      dup2\n      mstore\n      0x20\n      add\n      0x00\n      keccak256\n      0x00\n      swap1\n      sload\n      swap1\n      0x0100\n      exp\n      swap1\n      div\n      0xffffffffffffffffffffffffffffffffffffffff\n      and\n        /* \"L/layer0.sol\":336:374  msg.sender == trustedSources[_chainId] */\n      0xffffffffffffffffffffffffffffffffffffffff\n      and\n        /* \"L/layer0.sol\":336:346  msg.sender */\n      caller\n        /* \"L/layer0.sol\":336:374  msg.sender == trustedSources[_chainId] */\n      0xffffffffffffffffffffffffffffffffffffffff\n      and\n      eq\n        /* \"L/layer0.sol\":328:395  require(msg.sender == trustedSources[_chainId], \"Untrusted source\") */\n      tag_22\n      jumpi\n      mload(0x40)\n      0x08c379a000000000000000000000000000000000000000000000000000000000\n      dup2\n      mstore\n      0x04\n      add\n      tag_23\n      swap1\n      tag_24\n      jump\t// in\n    tag_23:\n      mload(0x40)\n      dup1\n      swap2\n      sub\n      swap1\n      revert\n    tag_22:\n        /* \"L/layer0.sol\":771:821  MessageReceived(_srcChainId, _srcSender, _payload) */\n      0xbabec1b1936be4d111c4125e0767c879f468b7e70b9cc77f99f9880cd051b6a9\n        /* \"L/layer0.sol\":787:798  _srcChainId */\n      dup6\n        /* \"L/layer0.sol\":800:810  _srcSender */\n      dup6\n        /* \"L/layer0.sol\":812:820  _payload */\n      dup6\n      dup6\n        /* \"L/layer0.sol\":771:821  MessageReceived(_srcChainId, _srcSender, _payload) */\n      mload(0x40)\n      tag_26\n      swap5\n      swap4\n      swap3\n      swap2\n      swap1\n      tag_27\n      jump\t// in\n    tag_26:\n      mload(0x40)\n      dup1\n      swap2\n      sub\n      swap1\n      log1\n        /* \"L/layer0.sol\":606:905  function receiveMessage(uint16 _srcChainId, address _srcSender, string calldata _payload)... */\n      pop\n      pop\n      pop\n      pop\n      pop\n      jump\t// out\n        /* \"#utility.yul\":88:205   */\n    tag_29:\n        /* \"#utility.yul\":197:198   */\n      0x00\n        /* \"#utility.yul\":194:195   */\n      0x00\n        /* \"#utility.yul\":187:199   */\n      revert\n        /* \"#utility.yul\":211:328   */\n    tag_30:\n        /* \"#utility.yul\":320:321   */\n      0x00\n        /* \"#utility.yul\":317:318   */\n      0x00\n        /* \"#utility.yul\":310:322   */\n      revert\n        /* \"#utility.yul\":334:423   */\n    tag_31:\n        /* \"#utility.yul\":370:377   */\n      0x00\n        /* \"#utility.yul\":410:416   */\n      0xffff\n        /* \"#utility.yul\":403:408   */\n      dup3\n        /* \"#utility.yul\":399:417   */\n      and\n        /* \"#utility.yul\":388:417   */\n      swap1\n      pop\n        /* \"#utility.yul\":334:423   */\n      swap2\n      swap1\n      pop\n      jump\t// out\n        /* \"#utility.yul\":429:549   */\n    tag_32:\n        /* \"#utility.yul\":501:524   */\n      tag_56\n        /* \"#utility.yul\":518:523   */\n      dup2\n        /* \"#utility.yul\":501:524   */\n      tag_31\n      jump\t// in\n    tag_56:\n        /* \"#utility.yul\":494:499   */\n      dup2\n        /* \"#utility.yul\":491:525   */\n      eq\n        /* \"#utility.yul\":481:543   */\n      tag_57\n      jumpi\n        /* \"#utility.yul\":539:540   */\n      0x00\n        /* \"#utility.yul\":536:537   */\n      0x00\n        /* \"#utility.yul\":529:541   */\n      revert\n        /* \"#utility.yul\":481:543   */\n    tag_57:\n        /* \"#utility.yul\":429:549   */\n      pop\n      jump\t// out\n        /* \"#utility.yul\":555:692   */\n    tag_33:\n        /* \"#utility.yul\":600:605   */\n      0x00\n        /* \"#utility.yul\":638:644   */\n      dup2\n        /* \"#utility.yul\":625:645   */\n      calldataload\n        /* \"#utility.yul\":616:645   */\n      swap1\n      pop\n        /* \"#utility.yul\":654:686   */\n      tag_59\n        /* \"#utility.yul\":680:685   */\n      dup2\n        /* \"#utility.yul\":654:686   */\n      tag_32\n      jump\t// in\n    tag_59:\n        /* \"#utility.yul\":555:692   */\n      swap3\n      swap2\n      pop\n      pop\n      jump\t// out\n        /* \"#utility.yul\":698:1025   */\n    tag_8:\n        /* \"#utility.yul\":756:762   */\n      0x00\n        /* \"#utility.yul\":805:807   */\n      0x20\n        /* \"#utility.yul\":793:802   */\n      dup3\n        /* \"#utility.yul\":784:791   */\n      dup5\n        /* \"#utility.yul\":780:803   */\n      sub\n        /* \"#utility.yul\":776:808   */\n      slt\n        /* \"#utility.yul\":773:892   */\n      iszero\n      tag_61\n      jumpi\n        /* \"#utility.yul\":811:890   */\n      tag_62\n      tag_29\n      jump\t// in\n    tag_62:\n        /* \"#utility.yul\":773:892   */\n    tag_61:\n        /* \"#utility.yul\":931:932   */\n      0x00\n        /* \"#utility.yul\":956:1008   */\n      tag_63\n        /* \"#utility.yul\":1000:1007   */\n      dup5\n        /* \"#utility.yul\":991:997   */\n      dup3\n        /* \"#utility.yul\":980:989   */\n      dup6\n        /* \"#utility.yul\":976:998   */\n      add\n        /* \"#utility.yul\":956:1008   */\n      tag_33\n      jump\t// in\n    tag_63:\n        /* \"#utility.yul\":946:1008   */\n      swap2\n      pop\n        /* \"#utility.yul\":902:1018   */\n      pop\n        /* \"#utility.yul\":698:1025   */\n      swap3\n      swap2\n      pop\n      pop\n      jump\t// out\n        /* \"#utility.yul\":1031:1157   */\n    tag_34:\n        /* \"#utility.yul\":1068:1075   */\n      0x00\n        /* \"#utility.yul\":1108:1150   */\n      0xffffffffffffffffffffffffffffffffffffffff\n        /* \"#utility.yul\":1101:1106   */\n      dup3\n        /* \"#utility.yul\":1097:1151   */\n      and\n        /* \"#utility.yul\":1086:1151   */\n      swap1\n      pop\n        /* \"#utility.yul\":1031:1157   */\n      swap2\n      swap1\n      pop\n      jump\t// out\n        /* \"#utility.yul\":1163:1259   */\n    tag_35:\n        /* \"#utility.yul\":1200:1207   */\n      0x00\n        /* \"#utility.yul\":1229:1253   */\n      tag_66\n        /* \"#utility.yul\":1247:1252   */\n      dup3\n        /* \"#utility.yul\":1229:1253   */\n      tag_34\n      jump\t// in\n    tag_66:\n        /* \"#utility.yul\":1218:1253   */\n      swap1\n      pop\n        /* \"#utility.yul\":1163:1259   */\n      swap2\n      swap1\n      pop\n      jump\t// out\n        /* \"#utility.yul\":1265:1383   */\n    tag_36:\n        /* \"#utility.yul\":1352:1376   */\n      tag_68\n        /* \"#utility.yul\":1370:1375   */\n      dup2\n        /* \"#utility.yul\":1352:1376   */\n      tag_35\n      jump\t// in\n    tag_68:\n        /* \"#utility.yul\":1347:1350   */\n      dup3\n        /* \"#utility.yul\":1340:1377   */\n      mstore\n        /* \"#utility.yul\":1265:1383   */\n      pop\n      pop\n      jump\t// out\n        /* \"#utility.yul\":1389:1611   */\n    tag_11:\n        /* \"#utility.yul\":1482:1486   */\n      0x00\n        /* \"#utility.yul\":1520:1522   */\n      0x20\n        /* \"#utility.yul\":1509:1518   */\n      dup3\n        /* \"#utility.yul\":1505:1523   */\n      add\n        /* \"#utility.yul\":1497:1523   */\n      swap1\n      pop\n        /* \"#utility.yul\":1533:1604   */\n      tag_70\n        /* \"#utility.yul\":1601:1602   */\n      0x00\n        /* \"#utility.yul\":1590:1599   */\n      dup4\n        /* \"#utility.yul\":1586:1603   */\n      add\n        /* \"#utility.yul\":1577:1583   */\n      dup5\n        /* \"#utility.yul\":1533:1604   */\n      tag_36\n      jump\t// in\n    tag_70:\n        /* \"#utility.yul\":1389:1611   */\n      swap3\n      swap2\n      pop\n      pop\n      jump\t// out\n        /* \"#utility.yul\":1617:1739   */\n    tag_37:\n        /* \"#utility.yul\":1690:1714   */\n      tag_72\n        /* \"#utility.yul\":1708:1713   */\n      dup2\n        /* \"#utility.yul\":1690:1714   */\n      tag_35\n      jump\t// in\n    tag_72:\n        /* \"#utility.yul\":1683:1688   */\n      dup2\n        /* \"#utility.yul\":1680:1715   */\n      eq\n        /* \"#utility.yul\":1670:1733   */\n      tag_73\n      jumpi\n        /* \"#utility.yul\":1729:1730   */\n      0x00\n        /* \"#utility.yul\":1726:1727   */\n      0x00\n        /* \"#utility.yul\":1719:1731   */\n      revert\n        /* \"#utility.yul\":1670:1733   */\n    tag_73:\n        /* \"#utility.yul\":1617:1739   */\n      pop\n      jump\t// out\n        /* \"#utility.yul\":1745:1884   */\n    tag_38:\n        /* \"#utility.yul\":1791:1796   */\n      0x00\n        /* \"#utility.yul\":1829:1835   */\n      dup2\n        /* \"#utility.yul\":1816:1836   */\n      calldataload\n        /* \"#utility.yul\":1807:1836   */\n      swap1\n      pop\n        /* \"#utility.yul\":1845:1878   */\n      tag_75\n        /* \"#utility.yul\":1872:1877   */\n      dup2\n        /* \"#utility.yul\":1845:1878   */\n      tag_37\n      jump\t// in\n    tag_75:\n        /* \"#utility.yul\":1745:1884   */\n      swap3\n      swap2\n      pop\n      pop\n      jump\t// out\n        /* \"#utility.yul\":1890:2362   */\n    tag_14:\n        /* \"#utility.yul\":1957:1963   */\n      0x00\n        /* \"#utility.yul\":1965:1971   */\n      0x00\n        /* \"#utility.yul\":2014:2016   */\n      0x40\n        /* \"#utility.yul\":2002:2011   */\n      dup4\n        /* \"#utility.yul\":1993:2000   */\n      dup6\n        /* \"#utility.yul\":1989:2012   */\n      sub\n        /* \"#utility.yul\":1985:2017   */\n      slt\n        /* \"#utility.yul\":1982:2101   */\n      iszero\n      tag_77\n      jumpi\n        /* \"#utility.yul\":2020:2099   */\n      tag_78\n      tag_29\n      jump\t// in\n    tag_78:\n        /* \"#utility.yul\":1982:2101   */\n    tag_77:\n        /* \"#utility.yul\":2140:2141   */\n      0x00\n        /* \"#utility.yul\":2165:2217   */\n      tag_79\n        /* \"#utility.yul\":2209:2216   */\n      dup6\n        /* \"#utility.yul\":2200:2206   */\n      dup3\n        /* \"#utility.yul\":2189:2198   */\n      dup7\n        /* \"#utility.yul\":2185:2207   */\n      add\n        /* \"#utility.yul\":2165:2217   */\n      tag_33\n      jump\t// in\n    tag_79:\n        /* \"#utility.yul\":2155:2217   */\n      swap3\n      pop\n        /* \"#utility.yul\":2111:2227   */\n      pop\n        /* \"#utility.yul\":2266:2268   */\n      0x20\n        /* \"#utility.yul\":2292:2345   */\n      tag_80\n        /* \"#utility.yul\":2337:2344   */\n      dup6\n        /* \"#utility.yul\":2328:2334   */\n      dup3\n        /* \"#utility.yul\":2317:2326   */\n      dup7\n        /* \"#utility.yul\":2313:2335   */\n      add\n        /* \"#utility.yul\":2292:2345   */\n      tag_38\n      jump\t// in\n    tag_80:\n        /* \"#utility.yul\":2282:2345   */\n      swap2\n      pop\n        /* \"#utility.yul\":2237:2355   */\n      pop\n        /* \"#utility.yul\":1890:2362   */\n      swap3\n      pop\n      swap3\n      swap1\n      pop\n      jump\t// out\n        /* \"#utility.yul\":2368:2485   */\n    tag_39:\n        /* \"#utility.yul\":2477:2478   */\n      0x00\n        /* \"#utility.yul\":2474:2475   */\n      0x00\n        /* \"#utility.yul\":2467:2479   */\n      revert\n        /* \"#utility.yul\":2491:2608   */\n    tag_40:\n        /* \"#utility.yul\":2600:2601   */\n      0x00\n        /* \"#utility.yul\":2597:2598   */\n      0x00\n        /* \"#utility.yul\":2590:2602   */\n      revert\n        /* \"#utility.yul\":2614:2731   */\n    tag_41:\n        /* \"#utility.yul\":2723:2724   */\n      0x00\n        /* \"#utility.yul\":2720:2721   */\n      0x00\n        /* \"#utility.yul\":2713:2725   */\n      revert\n        /* \"#utility.yul\":2751:3304   */\n    tag_42:\n        /* \"#utility.yul\":2809:2817   */\n      0x00\n        /* \"#utility.yul\":2819:2825   */\n      0x00\n        /* \"#utility.yul\":2869:2872   */\n      dup4\n        /* \"#utility.yul\":2862:2866   */\n      0x1f\n        /* \"#utility.yul\":2854:2860   */\n      dup5\n        /* \"#utility.yul\":2850:2867   */\n      add\n        /* \"#utility.yul\":2846:2873   */\n      slt\n        /* \"#utility.yul\":2836:2958   */\n      tag_85\n      jumpi\n        /* \"#utility.yul\":2877:2956   */\n      tag_86\n      tag_39\n      jump\t// in\n    tag_86:\n        /* \"#utility.yul\":2836:2958   */\n    tag_85:\n        /* \"#utility.yul\":2990:2996   */\n      dup3\n        /* \"#utility.yul\":2977:2997   */\n      calldataload\n        /* \"#utility.yul\":2967:2997   */\n      swap1\n      pop\n        /* \"#utility.yul\":3020:3038   */\n      0xffffffffffffffff\n        /* \"#utility.yul\":3012:3018   */\n      dup2\n        /* \"#utility.yul\":3009:3039   */\n      gt\n        /* \"#utility.yul\":3006:3123   */\n      iszero\n      tag_87\n      jumpi\n        /* \"#utility.yul\":3042:3121   */\n      tag_88\n      tag_40\n      jump\t// in\n    tag_88:\n        /* \"#utility.yul\":3006:3123   */\n    tag_87:\n        /* \"#utility.yul\":3156:3160   */\n      0x20\n        /* \"#utility.yul\":3148:3154   */\n      dup4\n        /* \"#utility.yul\":3144:3161   */\n      add\n        /* \"#utility.yul\":3132:3161   */\n      swap2\n      pop\n        /* \"#utility.yul\":3210:3213   */\n      dup4\n        /* \"#utility.yul\":3202:3206   */\n      0x01\n        /* \"#utility.yul\":3194:3200   */\n      dup3\n        /* \"#utility.yul\":3190:3207   */\n      mul\n        /* \"#utility.yul\":3180:3188   */\n      dup4\n        /* \"#utility.yul\":3176:3208   */\n      add\n        /* \"#utility.yul\":3173:3214   */\n      gt\n        /* \"#utility.yul\":3170:3298   */\n      iszero\n      tag_89\n      jumpi\n        /* \"#utility.yul\":3217:3296   */\n      tag_90\n      tag_41\n      jump\t// in\n    tag_90:\n        /* \"#utility.yul\":3170:3298   */\n    tag_89:\n        /* \"#utility.yul\":2751:3304   */\n      swap3\n      pop\n      swap3\n      swap1\n      pop\n      jump\t// out\n        /* \"#utility.yul\":3310:4127   */\n    tag_18:\n        /* \"#utility.yul\":3398:3404   */\n      0x00\n        /* \"#utility.yul\":3406:3412   */\n      0x00\n        /* \"#utility.yul\":3414:3420   */\n      0x00\n        /* \"#utility.yul\":3422:3428   */\n      0x00\n        /* \"#utility.yul\":3471:3473   */\n      0x60\n        /* \"#utility.yul\":3459:3468   */\n      dup6\n        /* \"#utility.yul\":3450:3457   */\n      dup8\n        /* \"#utility.yul\":3446:3469   */\n      sub\n        /* \"#utility.yul\":3442:3474   */\n      slt\n        /* \"#utility.yul\":3439:3558   */\n      iszero\n      tag_92\n      jumpi\n        /* \"#utility.yul\":3477:3556   */\n      tag_93\n      tag_29\n      jump\t// in\n    tag_93:\n        /* \"#utility.yul\":3439:3558   */\n    tag_92:\n        /* \"#utility.yul\":3597:3598   */\n      0x00\n        /* \"#utility.yul\":3622:3674   */\n      tag_94\n        /* \"#utility.yul\":3666:3673   */\n      dup8\n        /* \"#utility.yul\":3657:3663   */\n      dup3\n        /* \"#utility.yul\":3646:3655   */\n      dup9\n        /* \"#utility.yul\":3642:3664   */\n      add\n        /* \"#utility.yul\":3622:3674   */\n      tag_33\n      jump\t// in\n    tag_94:\n        /* \"#utility.yul\":3612:3674   */\n      swap5\n      pop\n        /* \"#utility.yul\":3568:3684   */\n      pop\n        /* \"#utility.yul\":3723:3725   */\n      0x20\n        /* \"#utility.yul\":3749:3802   */\n      tag_95\n        /* \"#utility.yul\":3794:3801   */\n      dup8\n        /* \"#utility.yul\":3785:3791   */\n      dup3\n        /* \"#utility.yul\":3774:3783   */\n      dup9\n        /* \"#utility.yul\":3770:3792   */\n      add\n        /* \"#utility.yul\":3749:3802   */\n      tag_38\n      jump\t// in\n    tag_95:\n        /* \"#utility.yul\":3739:3802   */\n      swap4\n      pop\n        /* \"#utility.yul\":3694:3812   */\n      pop\n        /* \"#utility.yul\":3879:3881   */\n      0x40\n        /* \"#utility.yul\":3868:3877   */\n      dup6\n        /* \"#utility.yul\":3864:3882   */\n      add\n        /* \"#utility.yul\":3851:3883   */\n      calldataload\n        /* \"#utility.yul\":3910:3928   */\n      0xffffffffffffffff\n        /* \"#utility.yul\":3902:3908   */\n      dup2\n        /* \"#utility.yul\":3899:3929   */\n      gt\n        /* \"#utility.yul\":3896:4013   */\n      iszero\n      tag_96\n      jumpi\n        /* \"#utility.yul\":3932:4011   */\n      tag_97\n      tag_30\n      jump\t// in\n    tag_97:\n        /* \"#utility.yul\":3896:4013   */\n    tag_96:\n        /* \"#utility.yul\":4045:4110   */\n      tag_98\n        /* \"#utility.yul\":4102:4109   */\n      dup8\n        /* \"#utility.yul\":4093:4099   */\n      dup3\n        /* \"#utility.yul\":4082:4091   */\n      dup9\n        /* \"#utility.yul\":4078:4100   */\n      add\n        /* \"#utility.yul\":4045:4110   */\n      tag_42\n      jump\t// in\n    tag_98:\n        /* \"#utility.yul\":4027:4110   */\n      swap3\n      pop\n      swap3\n      pop\n        /* \"#utility.yul\":3822:4120   */\n      pop\n        /* \"#utility.yul\":3310:4127   */\n      swap3\n      swap6\n      swap2\n      swap5\n      pop\n      swap3\n      pop\n      jump\t// out\n        /* \"#utility.yul\":4133:4302   */\n    tag_43:\n        /* \"#utility.yul\":4217:4228   */\n      0x00\n        /* \"#utility.yul\":4251:4257   */\n      dup3\n        /* \"#utility.yul\":4246:4249   */\n      dup3\n        /* \"#utility.yul\":4239:4258   */\n      mstore\n        /* \"#utility.yul\":4291:4295   */\n      0x20\n        /* \"#utility.yul\":4286:4289   */\n      dup3\n        /* \"#utility.yul\":4282:4296   */\n      add\n        /* \"#utility.yul\":4267:4296   */\n      swap1\n      pop\n        /* \"#utility.yul\":4133:4302   */\n      swap3\n      swap2\n      pop\n      pop\n      jump\t// out\n        /* \"#utility.yul\":4308:4474   */\n    tag_44:\n        /* \"#utility.yul\":4448:4466   */\n      0x556e7472757374656420736f7572636500000000000000000000000000000000\n        /* \"#utility.yul\":4444:4445   */\n      0x00\n        /* \"#utility.yul\":4436:4442   */\n      dup3\n        /* \"#utility.yul\":4432:4446   */\n      add\n        /* \"#utility.yul\":4425:4467   */\n      mstore\n        /* \"#utility.yul\":4308:4474   */\n      pop\n      jump\t// out\n        /* \"#utility.yul\":4480:4846   */\n    tag_45:\n        /* \"#utility.yul\":4622:4625   */\n      0x00\n        /* \"#utility.yul\":4643:4710   */\n      tag_102\n        /* \"#utility.yul\":4707:4709   */\n      0x10\n        /* \"#utility.yul\":4702:4705   */\n      dup4\n        /* \"#utility.yul\":4643:4710   */\n      tag_43\n      jump\t// in\n    tag_102:\n        /* \"#utility.yul\":4636:4710   */\n      swap2\n      pop\n        /* \"#utility.yul\":4719:4812   */\n      tag_103\n        /* \"#utility.yul\":4808:4811   */\n      dup3\n        /* \"#utility.yul\":4719:4812   */\n      tag_44\n      jump\t// in\n    tag_103:\n        /* \"#utility.yul\":4837:4839   */\n      0x20\n        /* \"#utility.yul\":4832:4835   */\n      dup3\n        /* \"#utility.yul\":4828:4840   */\n      add\n        /* \"#utility.yul\":4821:4840   */\n      swap1\n      pop\n        /* \"#utility.yul\":4480:4846   */\n      swap2\n      swap1\n      pop\n      jump\t// out\n        /* \"#utility.yul\":4852:5271   */\n    tag_24:\n        /* \"#utility.yul\":5018:5022   */\n      0x00\n        /* \"#utility.yul\":5056:5058   */\n      0x20\n        /* \"#utility.yul\":5045:5054   */\n      dup3\n        /* \"#utility.yul\":5041:5059   */\n      add\n        /* \"#utility.yul\":5033:5059   */\n      swap1\n      pop\n        /* \"#utility.yul\":5105:5114   */\n      dup2\n        /* \"#utility.yul\":5099:5103   */\n      dup2\n        /* \"#utility.yul\":5095:5115   */\n      sub\n        /* \"#utility.yul\":5091:5092   */\n      0x00\n        /* \"#utility.yul\":5080:5089   */\n      dup4\n        /* \"#utility.yul\":5076:5093   */\n      add\n        /* \"#utility.yul\":5069:5116   */\n      mstore\n        /* \"#utility.yul\":5133:5264   */\n      tag_105\n        /* \"#utility.yul\":5259:5263   */\n      dup2\n        /* \"#utility.yul\":5133:5264   */\n      tag_45\n      jump\t// in\n    tag_105:\n        /* \"#utility.yul\":5125:5264   */\n      swap1\n      pop\n        /* \"#utility.yul\":4852:5271   */\n      swap2\n      swap1\n      pop\n      jump\t// out\n        /* \"#utility.yul\":5277:5392   */\n    tag_46:\n        /* \"#utility.yul\":5362:5385   */\n      tag_107\n        /* \"#utility.yul\":5379:5384   */\n      dup2\n        /* \"#utility.yul\":5362:5385   */\n      tag_31\n      jump\t// in\n    tag_107:\n        /* \"#utility.yul\":5357:5360   */\n      dup3\n        /* \"#utility.yul\":5350:5386   */\n      mstore\n        /* \"#utility.yul\":5277:5392   */\n      pop\n      pop\n      jump\t// out\n        /* \"#utility.yul\":5398:5546   */\n    tag_47:\n        /* \"#utility.yul\":5496:5502   */\n      dup3\n        /* \"#utility.yul\":5491:5494   */\n      dup2\n        /* \"#utility.yul\":5486:5489   */\n      dup4\n        /* \"#utility.yul\":5473:5503   */\n      calldatacopy\n        /* \"#utility.yul\":5537:5538   */\n      0x00\n        /* \"#utility.yul\":5528:5534   */\n      dup4\n        /* \"#utility.yul\":5523:5526   */\n      dup4\n        /* \"#utility.yul\":5519:5535   */\n      add\n        /* \"#utility.yul\":5512:5539   */\n      mstore\n        /* \"#utility.yul\":5398:5546   */\n      pop\n      pop\n      pop\n      jump\t// out\n        /* \"#utility.yul\":5552:5654   */\n    tag_48:\n        /* \"#utility.yul\":5593:5599   */\n      0x00\n        /* \"#utility.yul\":5644:5646   */\n      0x1f\n        /* \"#utility.yul\":5640:5647   */\n      not\n        /* \"#utility.yul\":5635:5637   */\n      0x1f\n        /* \"#utility.yul\":5628:5633   */\n      dup4\n        /* \"#utility.yul\":5624:5638   */\n      add\n        /* \"#utility.yul\":5620:5648   */\n      and\n        /* \"#utility.yul\":5610:5648   */\n      swap1\n      pop\n        /* \"#utility.yul\":5552:5654   */\n      swap2\n      swap1\n      pop\n      jump\t// out\n        /* \"#utility.yul\":5684:6001   */\n    tag_49:\n        /* \"#utility.yul\":5782:5785   */\n      0x00\n        /* \"#utility.yul\":5803:5874   */\n      tag_111\n        /* \"#utility.yul\":5867:5873   */\n      dup4\n        /* \"#utility.yul\":5862:5865   */\n      dup6\n        /* \"#utility.yul\":5803:5874   */\n      tag_43\n      jump\t// in\n    tag_111:\n        /* \"#utility.yul\":5796:5874   */\n      swap4\n      pop\n        /* \"#utility.yul\":5884:5940   */\n      tag_112\n        /* \"#utility.yul\":5933:5939   */\n      dup4\n        /* \"#utility.yul\":5928:5931   */\n      dup6\n        /* \"#utility.yul\":5921:5926   */\n      dup5\n        /* \"#utility.yul\":5884:5940   */\n      tag_47\n      jump\t// in\n    tag_112:\n        /* \"#utility.yul\":5965:5994   */\n      tag_113\n        /* \"#utility.yul\":5987:5993   */\n      dup4\n        /* \"#utility.yul\":5965:5994   */\n      tag_48\n      jump\t// in\n    tag_113:\n        /* \"#utility.yul\":5960:5963   */\n      dup5\n        /* \"#utility.yul\":5956:5995   */\n      add\n        /* \"#utility.yul\":5949:5995   */\n      swap1\n      pop\n        /* \"#utility.yul\":5684:6001   */\n      swap4\n      swap3\n      pop\n      pop\n      pop\n      jump\t// out\n        /* \"#utility.yul\":6007:6556   */\n    tag_27:\n        /* \"#utility.yul\":6184:6188   */\n      0x00\n        /* \"#utility.yul\":6222:6224   */\n      0x60\n        /* \"#utility.yul\":6211:6220   */\n      dup3\n        /* \"#utility.yul\":6207:6225   */\n      add\n        /* \"#utility.yul\":6199:6225   */\n      swap1\n      pop\n        /* \"#utility.yul\":6235:6304   */\n      tag_115\n        /* \"#utility.yul\":6301:6302   */\n      0x00\n        /* \"#utility.yul\":6290:6299   */\n      dup4\n        /* \"#utility.yul\":6286:6303   */\n      add\n        /* \"#utility.yul\":6277:6283   */\n      dup8\n        /* \"#utility.yul\":6235:6304   */\n      tag_46\n      jump\t// in\n    tag_115:\n        /* \"#utility.yul\":6314:6386   */\n      tag_116\n        /* \"#utility.yul\":6382:6384   */\n      0x20\n        /* \"#utility.yul\":6371:6380   */\n      dup4\n        /* \"#utility.yul\":6367:6385   */\n      add\n        /* \"#utility.yul\":6358:6364   */\n      dup7\n        /* \"#utility.yul\":6314:6386   */\n      tag_36\n      jump\t// in\n    tag_116:\n        /* \"#utility.yul\":6433:6442   */\n      dup2\n        /* \"#utility.yul\":6427:6431   */\n      dup2\n        /* \"#utility.yul\":6423:6443   */\n      sub\n        /* \"#utility.yul\":6418:6420   */\n      0x40\n        /* \"#utility.yul\":6407:6416   */\n      dup4\n        /* \"#utility.yul\":6403:6421   */\n      add\n        /* \"#utility.yul\":6396:6444   */\n      mstore\n        /* \"#utility.yul\":6461:6549   */\n      tag_117\n        /* \"#utility.yul\":6544:6548   */\n      dup2\n        /* \"#utility.yul\":6535:6541   */\n      dup5\n        /* \"#utility.yul\":6527:6533   */\n      dup7\n        /* \"#utility.yul\":6461:6549   */\n      tag_49\n      jump\t// in\n    tag_117:\n        /* \"#utility.yul\":6453:6549   */\n      swap1\n      pop\n        /* \"#utility.yul\":6007:6556   */\n      swap6\n      swap5\n      pop\n      pop\n      pop\n      pop\n      pop\n      jump\t// out\n\n    auxdata: 0xa264697066735822122078427e1d7149637932997bf8eb9deb889389624b4185268128dee055d0d1918064736f6c634300081d0033\n}\n",
				"bytecode": {
					"linkReferences": {},
					"object": "6080604052348015600e575f5ffd5b5061055f8061001c5f395ff3fe608060405234801561000f575f5ffd5b506004361061003f575f3560e01c80630d56b718146100435780634f0d721b14610073578063e09737401461008f575b5f5ffd5b61005d6004803603810190610058919061025d565b6100ab565b60405161006a91906102c7565b60405180910390f35b61008d6004803603810190610088919061030a565b6100da565b005b6100a960048036038101906100a491906103a9565b610134565b005b5f602052805f5260405f205f915054906101000a900473ffffffffffffffffffffffffffffffffffffffff1681565b805f5f8461ffff1661ffff1681526020019081526020015f205f6101000a81548173ffffffffffffffffffffffffffffffffffffffff021916908373ffffffffffffffffffffffffffffffffffffffff1602179055505050565b835f5f8261ffff1661ffff1681526020019081526020015f205f9054906101000a900473ffffffffffffffffffffffffffffffffffffffff1673ffffffffffffffffffffffffffffffffffffffff163373ffffffffffffffffffffffffffffffffffffffff16146101da576040517f08c379a00000000000000000000000000000000000000000000000000000000081526004016101d190610474565b60405180910390fd5b7fbabec1b1936be4d111c4125e0767c879f468b7e70b9cc77f99f9880cd051b6a98585858560405161020f94939291906104eb565b60405180910390a15050505050565b5f5ffd5b5f5ffd5b5f61ffff82169050919050565b61023c81610226565b8114610246575f5ffd5b50565b5f8135905061025781610233565b92915050565b5f602082840312156102725761027161021e565b5b5f61027f84828501610249565b91505092915050565b5f73ffffffffffffffffffffffffffffffffffffffff82169050919050565b5f6102b182610288565b9050919050565b6102c1816102a7565b82525050565b5f6020820190506102da5f8301846102b8565b92915050565b6102e9816102a7565b81146102f3575f5ffd5b50565b5f81359050610304816102e0565b92915050565b5f5f604083850312156103205761031f61021e565b5b5f61032d85828601610249565b925050602061033e858286016102f6565b9150509250929050565b5f5ffd5b5f5ffd5b5f5ffd5b5f5f83601f84011261036957610368610348565b5b8235905067ffffffffffffffff8111156103865761038561034c565b5b6020830191508360018202830111156103a2576103a1610350565b5b9250929050565b5f5f5f5f606085870312156103c1576103c061021e565b5b5f6103ce87828801610249565b94505060206103df878288016102f6565b935050604085013567ffffffffffffffff811115610400576103ff610222565b5b61040c87828801610354565b925092505092959194509250565b5f82825260208201905092915050565b7f556e7472757374656420736f75726365000000000000000000000000000000005f82015250565b5f61045e60108361041a565b91506104698261042a565b602082019050919050565b5f6020820190508181035f83015261048b81610452565b9050919050565b61049b81610226565b82525050565b828183375f83830152505050565b5f601f19601f8301169050919050565b5f6104ca838561041a565b93506104d78385846104a1565b6104e0836104af565b840190509392505050565b5f6060820190506104fe5f830187610492565b61050b60208301866102b8565b818103604083015261051e8184866104bf565b90509594505050505056fea264697066735822122078427e1d7149637932997bf8eb9deb889389624b4185268128dee055d0d1918064736f6c634300081d0033",
					"opcodes": "PUSH1 0x80 PUSH1 0x40 MSTORE CALLVALUE DUP1 ISZERO PUSH1 0xE JUMPI PUSH0 PUSH0 REVERT JUMPDEST POP PUSH2 0x55F DUP1 PUSH2 0x1C PUSH0 CODECOPY PUSH0 RETURN INVALID PUSH1 0x80 PUSH1 0x40 MSTORE CALLVALUE DUP1 ISZERO PUSH2 0xF JUMPI PUSH0 PUSH0 REVERT JUMPDEST POP PUSH1 0x4 CALLDATASIZE LT PUSH2 0x3F JUMPI PUSH0 CALLDATALOAD PUSH1 0xE0 SHR DUP1 PUSH4 0xD56B718 EQ PUSH2 0x43 JUMPI DUP1 PUSH4 0x4F0D721B EQ PUSH2 0x73 JUMPI DUP1 PUSH4 0xE0973740 EQ PUSH2 0x8F JUMPI JUMPDEST PUSH0 PUSH0 REVERT JUMPDEST PUSH2 0x5D PUSH1 0x4 DUP1 CALLDATASIZE SUB DUP2 ADD SWAP1 PUSH2 0x58 SWAP2 SWAP1 PUSH2 0x25D JUMP JUMPDEST PUSH2 0xAB JUMP JUMPDEST PUSH1 0x40 MLOAD PUSH2 0x6A SWAP2 SWAP1 PUSH2 0x2C7 JUMP JUMPDEST PUSH1 0x40 MLOAD DUP1 SWAP2 SUB SWAP1 RETURN JUMPDEST PUSH2 0x8D PUSH1 0x4 DUP1 CALLDATASIZE SUB DUP2 ADD SWAP1 PUSH2 0x88 SWAP2 SWAP1 PUSH2 0x30A JUMP JUMPDEST PUSH2 0xDA JUMP JUMPDEST STOP JUMPDEST PUSH2 0xA9 PUSH1 0x4 DUP1 CALLDATASIZE SUB DUP2 ADD SWAP1 PUSH2 0xA4 SWAP2 SWAP1 PUSH2 0x3A9 JUMP JUMPDEST PUSH2 0x134 JUMP JUMPDEST STOP JUMPDEST PUSH0 PUSH1 0x20 MSTORE DUP1 PUSH0 MSTORE PUSH1 0x40 PUSH0 KECCAK256 PUSH0 SWAP2 POP SLOAD SWAP1 PUSH2 0x100 EXP SWAP1 DIV PUSH20 0xFFFFFFFFFFFFFFFFFFFFFFFFFFFFFFFFFFFFFFFF AND DUP2 JUMP JUMPDEST DUP1 PUSH0 PUSH0 DUP5 PUSH2 0xFFFF AND PUSH2 0xFFFF AND DUP2 MSTORE PUSH1 0x20 ADD SWAP1 DUP2 MSTORE PUSH1 0x20 ADD PUSH0 KECCAK256 PUSH0 PUSH2 0x100 EXP DUP2 SLOAD DUP2 PUSH20 0xFFFFFFFFFFFFFFFFFFFFFFFFFFFFFFFFFFFFFFFF MUL NOT AND SWAP1 DUP4 PUSH20 0xFFFFFFFFFFFFFFFFFFFFFFFFFFFFFFFFFFFFFFFF AND MUL OR SWAP1 SSTORE POP POP POP JUMP JUMPDEST DUP4 PUSH0 PUSH0 DUP3 PUSH2 0xFFFF AND PUSH2 0xFFFF AND DUP2 MSTORE PUSH1 0x20 ADD SWAP1 DUP2 MSTORE PUSH1 0x20 ADD PUSH0 KECCAK256 PUSH0 SWAP1 SLOAD SWAP1 PUSH2 0x100 EXP SWAP1 DIV PUSH20 0xFFFFFFFFFFFFFFFFFFFFFFFFFFFFFFFFFFFFFFFF AND PUSH20 0xFFFFFFFFFFFFFFFFFFFFFFFFFFFFFFFFFFFFFFFF AND CALLER PUSH20 0xFFFFFFFFFFFFFFFFFFFFFFFFFFFFFFFFFFFFFFFF AND EQ PUSH2 0x1DA JUMPI PUSH1 0x40 MLOAD PUSH32 0x8C379A000000000000000000000000000000000000000000000000000000000 DUP2 MSTORE PUSH1 0x4 ADD PUSH2 0x1D1 SWAP1 PUSH2 0x474 JUMP JUMPDEST PUSH1 0x40 MLOAD DUP1 SWAP2 SUB SWAP1 REVERT JUMPDEST PUSH32 0xBABEC1B1936BE4D111C4125E0767C879F468B7E70B9CC77F99F9880CD051B6A9 DUP6 DUP6 DUP6 DUP6 PUSH1 0x40 MLOAD PUSH2 0x20F SWAP5 SWAP4 SWAP3 SWAP2 SWAP1 PUSH2 0x4EB JUMP JUMPDEST PUSH1 0x40 MLOAD DUP1 SWAP2 SUB SWAP1 LOG1 POP POP POP POP POP JUMP JUMPDEST PUSH0 PUSH0 REVERT JUMPDEST PUSH0 PUSH0 REVERT JUMPDEST PUSH0 PUSH2 0xFFFF DUP3 AND SWAP1 POP SWAP2 SWAP1 POP JUMP JUMPDEST PUSH2 0x23C DUP2 PUSH2 0x226 JUMP JUMPDEST DUP2 EQ PUSH2 0x246 JUMPI PUSH0 PUSH0 REVERT JUMPDEST POP JUMP JUMPDEST PUSH0 DUP2 CALLDATALOAD SWAP1 POP PUSH2 0x257 DUP2 PUSH2 0x233 JUMP JUMPDEST SWAP3 SWAP2 POP POP JUMP JUMPDEST PUSH0 PUSH1 0x20 DUP3 DUP5 SUB SLT ISZERO PUSH2 0x272 JUMPI PUSH2 0x271 PUSH2 0x21E JUMP JUMPDEST JUMPDEST PUSH0 PUSH2 0x27F DUP5 DUP3 DUP6 ADD PUSH2 0x249 JUMP JUMPDEST SWAP2 POP POP SWAP3 SWAP2 POP POP JUMP JUMPDEST PUSH0 PUSH20 0xFFFFFFFFFFFFFFFFFFFFFFFFFFFFFFFFFFFFFFFF DUP3 AND SWAP1 POP SWAP2 SWAP1 POP JUMP JUMPDEST PUSH0 PUSH2 0x2B1 DUP3 PUSH2 0x288 JUMP JUMPDEST SWAP1 POP SWAP2 SWAP1 POP JUMP JUMPDEST PUSH2 0x2C1 DUP2 PUSH2 0x2A7 JUMP JUMPDEST DUP3 MSTORE POP POP JUMP JUMPDEST PUSH0 PUSH1 0x20 DUP3 ADD SWAP1 POP PUSH2 0x2DA PUSH0 DUP4 ADD DUP5 PUSH2 0x2B8 JUMP JUMPDEST SWAP3 SWAP2 POP POP JUMP JUMPDEST PUSH2 0x2E9 DUP2 PUSH2 0x2A7 JUMP JUMPDEST DUP2 EQ PUSH2 0x2F3 JUMPI PUSH0 PUSH0 REVERT JUMPDEST POP JUMP JUMPDEST PUSH0 DUP2 CALLDATALOAD SWAP1 POP PUSH2 0x304 DUP2 PUSH2 0x2E0 JUMP JUMPDEST SWAP3 SWAP2 POP POP JUMP JUMPDEST PUSH0 PUSH0 PUSH1 0x40 DUP4 DUP6 SUB SLT ISZERO PUSH2 0x320 JUMPI PUSH2 0x31F PUSH2 0x21E JUMP JUMPDEST JUMPDEST PUSH0 PUSH2 0x32D DUP6 DUP3 DUP7 ADD PUSH2 0x249 JUMP JUMPDEST SWAP3 POP POP PUSH1 0x20 PUSH2 0x33E DUP6 DUP3 DUP7 ADD PUSH2 0x2F6 JUMP JUMPDEST SWAP2 POP POP SWAP3 POP SWAP3 SWAP1 POP JUMP JUMPDEST PUSH0 PUSH0 REVERT JUMPDEST PUSH0 PUSH0 REVERT JUMPDEST PUSH0 PUSH0 REVERT JUMPDEST PUSH0 PUSH0 DUP4 PUSH1 0x1F DUP5 ADD SLT PUSH2 0x369 JUMPI PUSH2 0x368 PUSH2 0x348 JUMP JUMPDEST JUMPDEST DUP3 CALLDATALOAD SWAP1 POP PUSH8 0xFFFFFFFFFFFFFFFF DUP2 GT ISZERO PUSH2 0x386 JUMPI PUSH2 0x385 PUSH2 0x34C JUMP JUMPDEST JUMPDEST PUSH1 0x20 DUP4 ADD SWAP2 POP DUP4 PUSH1 0x1 DUP3 MUL DUP4 ADD GT ISZERO PUSH2 0x3A2 JUMPI PUSH2 0x3A1 PUSH2 0x350 JUMP JUMPDEST JUMPDEST SWAP3 POP SWAP3 SWAP1 POP JUMP JUMPDEST PUSH0 PUSH0 PUSH0 PUSH0 PUSH1 0x60 DUP6 DUP8 SUB SLT ISZERO PUSH2 0x3C1 JUMPI PUSH2 0x3C0 PUSH2 0x21E JUMP JUMPDEST JUMPDEST PUSH0 PUSH2 0x3CE DUP8 DUP3 DUP9 ADD PUSH2 0x249 JUMP JUMPDEST SWAP5 POP POP PUSH1 0x20 PUSH2 0x3DF DUP8 DUP3 DUP9 ADD PUSH2 0x2F6 JUMP JUMPDEST SWAP4 POP POP PUSH1 0x40 DUP6 ADD CALLDATALOAD PUSH8 0xFFFFFFFFFFFFFFFF DUP2 GT ISZERO PUSH2 0x400 JUMPI PUSH2 0x3FF PUSH2 0x222 JUMP JUMPDEST JUMPDEST PUSH2 0x40C DUP8 DUP3 DUP9 ADD PUSH2 0x354 JUMP JUMPDEST SWAP3 POP SWAP3 POP POP SWAP3 SWAP6 SWAP2 SWAP5 POP SWAP3 POP JUMP JUMPDEST PUSH0 DUP3 DUP3 MSTORE PUSH1 0x20 DUP3 ADD SWAP1 POP SWAP3 SWAP2 POP POP JUMP JUMPDEST PUSH32 0x556E7472757374656420736F7572636500000000000000000000000000000000 PUSH0 DUP3 ADD MSTORE POP JUMP JUMPDEST PUSH0 PUSH2 0x45E PUSH1 0x10 DUP4 PUSH2 0x41A JUMP JUMPDEST SWAP2 POP PUSH2 0x469 DUP3 PUSH2 0x42A JUMP JUMPDEST PUSH1 0x20 DUP3 ADD SWAP1 POP SWAP2 SWAP1 POP JUMP JUMPDEST PUSH0 PUSH1 0x20 DUP3 ADD SWAP1 POP DUP2 DUP2 SUB PUSH0 DUP4 ADD MSTORE PUSH2 0x48B DUP2 PUSH2 0x452 JUMP JUMPDEST SWAP1 POP SWAP2 SWAP1 POP JUMP JUMPDEST PUSH2 0x49B DUP2 PUSH2 0x226 JUMP JUMPDEST DUP3 MSTORE POP POP JUMP JUMPDEST DUP3 DUP2 DUP4 CALLDATACOPY PUSH0 DUP4 DUP4 ADD MSTORE POP POP POP JUMP JUMPDEST PUSH0 PUSH1 0x1F NOT PUSH1 0x1F DUP4 ADD AND SWAP1 POP SWAP2 SWAP1 POP JUMP JUMPDEST PUSH0 PUSH2 0x4CA DUP4 DUP6 PUSH2 0x41A JUMP JUMPDEST SWAP4 POP PUSH2 0x4D7 DUP4 DUP6 DUP5 PUSH2 0x4A1 JUMP JUMPDEST PUSH2 0x4E0 DUP4 PUSH2 0x4AF JUMP JUMPDEST DUP5 ADD SWAP1 POP SWAP4 SWAP3 POP POP POP JUMP JUMPDEST PUSH0 PUSH1 0x60 DUP3 ADD SWAP1 POP PUSH2 0x4FE PUSH0 DUP4 ADD DUP8 PUSH2 0x492 JUMP JUMPDEST PUSH2 0x50B PUSH1 0x20 DUP4 ADD DUP7 PUSH2 0x2B8 JUMP JUMPDEST DUP2 DUP2 SUB PUSH1 0x40 DUP4 ADD MSTORE PUSH2 0x51E DUP2 DUP5 DUP7 PUSH2 0x4BF JUMP JUMPDEST SWAP1 POP SWAP6 SWAP5 POP POP POP POP POP JUMP INVALID LOG2 PUSH5 0x6970667358 0x22 SLT KECCAK256 PUSH25 0x427E1D7149637932997BF8EB9DEB889389624B4185268128DE RJUMP 0x55D0 DATALOADN 0x9180 PUSH5 0x736F6C6343 STOP ADDMOD SAR STOP CALLER "
				},
				"gasEstimates": {
					"creation": {
						"codeDepositCost": "275000",
						"executionCost": "310",
						"totalCost": "275310"
					},
					"external": {
						"receiveMessage(uint16,address,string)": "infinite",
						"setTrustedSource(uint16,address)": "24978",
						"trustedSources(uint16)": "2810"
					}
				},
				"methodIdentifiers": {
					"receiveMessage(uint16,address,string)": "e0973740",
					"setTrustedSource(uint16,address)": "4f0d721b",
					"trustedSources(uint16)": "0d56b718"
				}
			},
			"storageLayout": {
				"storage": [
					{
						"astId": 14,
						"contract": "L/layer0.sol:Layer0Bridge",
						"label": "trustedSources",
						"offset": 0,
						"slot": "0",
						"type": "t_mapping(t_uint16,t_address)"
					}
				],
				"types": {
					"t_address": {
						"encoding": "inplace",
						"label": "address",
						"numberOfBytes": "20"
					},
					"t_mapping(t_uint16,t_address)": {
						"encoding": "mapping",
						"key": "t_uint16",
						"label": "mapping(uint16 => address)",
						"numberOfBytes": "32",
						"value": "t_address"
					},
					"t_uint16": {
						"encoding": "inplace",
						"label": "uint16",
						"numberOfBytes": "2"
					}
				}
			},
			"userdoc": {
				"kind": "user",
				"methods": {},
				"version": 1
			}
		}
	}
}