{
	"L/Flash Loan Liquidation.sol": {
		"FlashLoanLiquidator": {
			"abi": [
				{
					"inputs": [
						{
							"internalType": "address",
							"name": "_provider",
							"type": "address"
						}
					],
					"stateMutability": "nonpayable",
					"type": "constructor"
				},
				{
					"inputs": [
						{
							"internalType": "address",
							"name": "",
							"type": "address"
						}
					],
					"name": "collateral",
					"outputs": [
						{
							"internalType": "uint256",
							"name": "",
							"type": "uint256"
						}
					],
					"stateMutability": "view",
					"type": "function"
				},
				{
					"inputs": [
						{
							"internalType": "address",
							"name": "",
							"type": "address"
						}
					],
					"name": "debt",
					"outputs": [
						{
							"internalType": "uint256",
							"name": "",
							"type": "uint256"
						}
					],
					"stateMutability": "view",
					"type": "function"
				},
				{
					"inputs": [
						{
							"internalType": "uint256",
							"name": "amount",
							"type": "uint256"
						},
						{
							"internalType": "bytes",
							"name": "data",
							"type": "bytes"
						}
					],
					"name": "executeOperation",
					"outputs": [],
					"stateMutability": "nonpayable",
					"type": "function"
				},
				{
					"inputs": [
						{
							"internalType": "address",
							"name": "borrower",
							"type": "address"
						},
						{
							"internalType": "uint256",
							"name": "amount",
							"type": "uint256"
						}
					],
					"name": "liquidateWithFlash",
					"outputs": [],
					"stateMutability": "nonpayable",
					"type": "function"
				},
				{
					"inputs": [],
					"name": "loanProvider",
					"outputs": [
						{
							"internalType": "address",
							"name": "",
							"type": "address"
						}
					],
					"stateMutability": "view",
					"type": "function"
				},
				{
					"stateMutability": "payable",
					"type": "receive"
				}
			],
			"devdoc": {
				"kind": "dev",
				"methods": {},
				"version": 1
			},
			"evm": {
				"assembly": "    /* \"L/Flash Loan Liquidation.sol\":120:1038  contract FlashLoanLiquidator {... */\n  mstore(0x40, 0x80)\n    /* \"L/Flash Loan Liquidation.sol\":285:357  constructor(address _provider) {... */\n  callvalue\n  dup1\n  iszero\n  tag_1\n  jumpi\n  revert(0x00, 0x00)\ntag_1:\n  pop\n  mload(0x40)\n  sub(codesize, bytecodeSize)\n  dup1\n  bytecodeSize\n  dup4\n  codecopy\n  dup2\n  dup2\n  add\n  0x40\n  mstore\n  dup2\n  add\n  swap1\n  tag_2\n  swap2\n  swap1\n  tag_3\n  jump\t// in\ntag_2:\n    /* \"L/Flash Loan Liquidation.sol\":341:350  _provider */\n  dup1\n    /* \"L/Flash Loan Liquidation.sol\":326:338  loanProvider */\n  0x00\n  0x00\n    /* \"L/Flash Loan Liquidation.sol\":326:350  loanProvider = _provider */\n  0x0100\n  exp\n  dup2\n  sload\n  dup2\n  0xffffffffffffffffffffffffffffffffffffffff\n  mul\n  not\n  and\n  swap1\n  dup4\n  0xffffffffffffffffffffffffffffffffffffffff\n  and\n  mul\n  or\n  swap1\n  sstore\n  pop\n    /* \"L/Flash Loan Liquidation.sol\":285:357  constructor(address _provider) {... */\n  pop\n    /* \"L/Flash Loan Liquidation.sol\":120:1038  contract FlashLoanLiquidator {... */\n  jump(tag_6)\n    /* \"#utility.yul\":88:205   */\ntag_8:\n    /* \"#utility.yul\":197:198   */\n  0x00\n    /* \"#utility.yul\":194:195   */\n  0x00\n    /* \"#utility.yul\":187:199   */\n  revert\n    /* \"#utility.yul\":334:460   */\ntag_10:\n    /* \"#utility.yul\":371:378   */\n  0x00\n    /* \"#utility.yul\":411:453   */\n  0xffffffffffffffffffffffffffffffffffffffff\n    /* \"#utility.yul\":404:409   */\n  dup3\n    /* \"#utility.yul\":400:454   */\n  and\n    /* \"#utility.yul\":389:454   */\n  swap1\n  pop\n    /* \"#utility.yul\":334:460   */\n  swap2\n  swap1\n  pop\n  jump\t// out\n    /* \"#utility.yul\":466:562   */\ntag_11:\n    /* \"#utility.yul\":503:510   */\n  0x00\n    /* \"#utility.yul\":532:556   */\n  tag_20\n    /* \"#utility.yul\":550:555   */\n  dup3\n    /* \"#utility.yul\":532:556   */\n  tag_10\n  jump\t// in\ntag_20:\n    /* \"#utility.yul\":521:556   */\n  swap1\n  pop\n    /* \"#utility.yul\":466:562   */\n  swap2\n  swap1\n  pop\n  jump\t// out\n    /* \"#utility.yul\":568:690   */\ntag_12:\n    /* \"#utility.yul\":641:665   */\n  tag_22\n    /* \"#utility.yul\":659:664   */\n  dup2\n    /* \"#utility.yul\":641:665   */\n  tag_11\n  jump\t// in\ntag_22:\n    /* \"#utility.yul\":634:639   */\n  dup2\n    /* \"#utility.yul\":631:666   */\n  eq\n    /* \"#utility.yul\":621:684   */\n  tag_23\n  jumpi\n    /* \"#utility.yul\":680:681   */\n  0x00\n    /* \"#utility.yul\":677:678   */\n  0x00\n    /* \"#utility.yul\":670:682   */\n  revert\n    /* \"#utility.yul\":621:684   */\ntag_23:\n    /* \"#utility.yul\":568:690   */\n  pop\n  jump\t// out\n    /* \"#utility.yul\":696:839   */\ntag_13:\n    /* \"#utility.yul\":753:758   */\n  0x00\n    /* \"#utility.yul\":784:790   */\n  dup2\n    /* \"#utility.yul\":778:791   */\n  mload\n    /* \"#utility.yul\":769:791   */\n  swap1\n  pop\n    /* \"#utility.yul\":800:833   */\n  tag_25\n    /* \"#utility.yul\":827:832   */\n  dup2\n    /* \"#utility.yul\":800:833   */\n  tag_12\n  jump\t// in\ntag_25:\n    /* \"#utility.yul\":696:839   */\n  swap3\n  swap2\n  pop\n  pop\n  jump\t// out\n    /* \"#utility.yul\":845:1196   */\ntag_3:\n    /* \"#utility.yul\":915:921   */\n  0x00\n    /* \"#utility.yul\":964:966   */\n  0x20\n    /* \"#utility.yul\":952:961   */\n  dup3\n    /* \"#utility.yul\":943:950   */\n  dup5\n    /* \"#utility.yul\":939:962   */\n  sub\n    /* \"#utility.yul\":935:967   */\n  slt\n    /* \"#utility.yul\":932:1051   */\n  iszero\n  tag_27\n  jumpi\n    /* \"#utility.yul\":970:1049   */\n  tag_28\n  tag_8\n  jump\t// in\ntag_28:\n    /* \"#utility.yul\":932:1051   */\ntag_27:\n    /* \"#utility.yul\":1090:1091   */\n  0x00\n    /* \"#utility.yul\":1115:1179   */\n  tag_29\n    /* \"#utility.yul\":1171:1178   */\n  dup5\n    /* \"#utility.yul\":1162:1168   */\n  dup3\n    /* \"#utility.yul\":1151:1160   */\n  dup6\n    /* \"#utility.yul\":1147:1169   */\n  add\n    /* \"#utility.yul\":1115:1179   */\n  tag_13\n  jump\t// in\ntag_29:\n    /* \"#utility.yul\":1105:1179   */\n  swap2\n  pop\n    /* \"#utility.yul\":1061:1189   */\n  pop\n    /* \"#utility.yul\":845:1196   */\n  swap3\n  swap2\n  pop\n  pop\n  jump\t// out\n    /* \"L/Flash Loan Liquidation.sol\":120:1038  contract FlashLoanLiquidator {... */\ntag_6:\n  dataSize(sub_0)\n  dup1\n  dataOffset(sub_0)\n  0x00\n  codecopy\n  0x00\n  return\nstop\n\nsub_0: assembly {\n        /* \"L/Flash Loan Liquidation.sol\":120:1038  contract FlashLoanLiquidator {... */\n      mstore(0x40, 0x80)\n      jumpi(tag_1, lt(calldatasize, 0x04))\n      shr(0xe0, calldataload(0x00))\n      dup1\n      0x829c3c81\n      eq\n      tag_3\n      jumpi\n      dup1\n      0x93ff268d\n      eq\n      tag_4\n      jumpi\n      dup1\n      0x9b6c56ec\n      eq\n      tag_5\n      jumpi\n      dup1\n      0xa5fdc5de\n      eq\n      tag_6\n      jumpi\n      dup1\n      0xc13fac50\n      eq\n      tag_7\n      jumpi\n      jump(tag_2)\n    tag_1:\n      jumpi(tag_2, calldatasize)\n      stop\n    tag_2:\n      revert(0x00, 0x00)\n        /* \"L/Flash Loan Liquidation.sol\":586:1001  function executeOperation(uint256 amount, bytes calldata data) external {... */\n    tag_3:\n      callvalue\n      dup1\n      iszero\n      tag_10\n      jumpi\n      revert(0x00, 0x00)\n    tag_10:\n      pop\n      tag_11\n      0x04\n      dup1\n      calldatasize\n      sub\n      dup2\n      add\n      swap1\n      tag_12\n      swap2\n      swap1\n      tag_13\n      jump\t// in\n    tag_12:\n      tag_14\n      jump\t// in\n    tag_11:\n      stop\n        /* \"L/Flash Loan Liquidation.sol\":155:182  address public loanProvider */\n    tag_4:\n      callvalue\n      dup1\n      iszero\n      tag_15\n      jumpi\n      revert(0x00, 0x00)\n    tag_15:\n      pop\n      tag_16\n      tag_17\n      jump\t// in\n    tag_16:\n      mload(0x40)\n      tag_18\n      swap2\n      swap1\n      tag_19\n      jump\t// in\n    tag_18:\n      mload(0x40)\n      dup1\n      swap2\n      sub\n      swap1\n      return\n        /* \"L/Flash Loan Liquidation.sol\":188:227  mapping(address => uint256) public debt */\n    tag_5:\n      callvalue\n      dup1\n      iszero\n      tag_20\n      jumpi\n      revert(0x00, 0x00)\n    tag_20:\n      pop\n      tag_21\n      0x04\n      dup1\n      calldatasize\n      sub\n      dup2\n      add\n      swap1\n      tag_22\n      swap2\n      swap1\n      tag_23\n      jump\t// in\n    tag_22:\n      tag_24\n      jump\t// in\n    tag_21:\n      mload(0x40)\n      tag_25\n      swap2\n      swap1\n      tag_26\n      jump\t// in\n    tag_25:\n      mload(0x40)\n      dup1\n      swap2\n      sub\n      swap1\n      return\n        /* \"L/Flash Loan Liquidation.sol\":233:278  mapping(address => uint256) public collateral */\n    tag_6:\n      callvalue\n      dup1\n      iszero\n      tag_27\n      jumpi\n      revert(0x00, 0x00)\n    tag_27:\n      pop\n      tag_28\n      0x04\n      dup1\n      calldatasize\n      sub\n      dup2\n      add\n      swap1\n      tag_29\n      swap2\n      swap1\n      tag_23\n      jump\t// in\n    tag_29:\n      tag_30\n      jump\t// in\n    tag_28:\n      mload(0x40)\n      tag_31\n      swap2\n      swap1\n      tag_26\n      jump\t// in\n    tag_31:\n      mload(0x40)\n      dup1\n      swap2\n      sub\n      swap1\n      return\n        /* \"L/Flash Loan Liquidation.sol\":363:580  function liquidateWithFlash(address borrower, uint256 amount) external {... */\n    tag_7:\n      callvalue\n      dup1\n      iszero\n      tag_32\n      jumpi\n      revert(0x00, 0x00)\n    tag_32:\n      pop\n      tag_33\n      0x04\n      dup1\n      calldatasize\n      sub\n      dup2\n      add\n      swap1\n      tag_34\n      swap2\n      swap1\n      tag_35\n      jump\t// in\n    tag_34:\n      tag_36\n      jump\t// in\n    tag_33:\n      stop\n        /* \"L/Flash Loan Liquidation.sol\":586:1001  function executeOperation(uint256 amount, bytes calldata data) external {... */\n    tag_14:\n        /* \"L/Flash Loan Liquidation.sol\":669:685  address borrower */\n      0x00\n        /* \"L/Flash Loan Liquidation.sol\":687:706  uint256 repayAmount */\n      0x00\n        /* \"L/Flash Loan Liquidation.sol\":721:725  data */\n      dup4\n      dup4\n        /* \"L/Flash Loan Liquidation.sol\":710:746  abi.decode(data, (address, uint256)) */\n      dup2\n      add\n      swap1\n      tag_38\n      swap2\n      swap1\n      tag_39\n      jump\t// in\n    tag_38:\n        /* \"L/Flash Loan Liquidation.sol\":668:746  (address borrower, uint256 repayAmount) = abi.decode(data, (address, uint256)) */\n      swap2\n      pop\n      swap2\n      pop\n        /* \"L/Flash Loan Liquidation.sol\":783:794  repayAmount */\n      dup1\n        /* \"L/Flash Loan Liquidation.sol\":765:769  debt */\n      0x01\n        /* \"L/Flash Loan Liquidation.sol\":765:779  debt[borrower] */\n      0x00\n        /* \"L/Flash Loan Liquidation.sol\":770:778  borrower */\n      dup5\n        /* \"L/Flash Loan Liquidation.sol\":765:779  debt[borrower] */\n      0xffffffffffffffffffffffffffffffffffffffff\n      and\n      0xffffffffffffffffffffffffffffffffffffffff\n      and\n      dup2\n      mstore\n      0x20\n      add\n      swap1\n      dup2\n      mstore\n      0x20\n      add\n      0x00\n      keccak256\n      sload\n        /* \"L/Flash Loan Liquidation.sol\":765:794  debt[borrower] >= repayAmount */\n      lt\n      iszero\n        /* \"L/Flash Loan Liquidation.sol\":757:822  require(debt[borrower] >= repayAmount, \"Not undercollateralized\") */\n      tag_40\n      jumpi\n      mload(0x40)\n      0x08c379a000000000000000000000000000000000000000000000000000000000\n      dup2\n      mstore\n      0x04\n      add\n      tag_41\n      swap1\n      tag_42\n      jump\t// in\n    tag_41:\n      mload(0x40)\n      dup1\n      swap2\n      sub\n      swap1\n      revert\n    tag_40:\n        /* \"L/Flash Loan Liquidation.sol\":868:872  debt */\n      0x01\n        /* \"L/Flash Loan Liquidation.sol\":868:882  debt[borrower] */\n      0x00\n        /* \"L/Flash Loan Liquidation.sol\":873:881  borrower */\n      dup4\n        /* \"L/Flash Loan Liquidation.sol\":868:882  debt[borrower] */\n      0xffffffffffffffffffffffffffffffffffffffff\n      and\n      0xffffffffffffffffffffffffffffffffffffffff\n      and\n      dup2\n      mstore\n      0x20\n      add\n      swap1\n      dup2\n      mstore\n      0x20\n      add\n      0x00\n      keccak256\n        /* \"L/Flash Loan Liquidation.sol\":861:882  delete debt[borrower] */\n      0x00\n      swap1\n      sstore\n        /* \"L/Flash Loan Liquidation.sol\":899:909  collateral */\n      0x02\n        /* \"L/Flash Loan Liquidation.sol\":899:919  collateral[borrower] */\n      0x00\n        /* \"L/Flash Loan Liquidation.sol\":910:918  borrower */\n      dup4\n        /* \"L/Flash Loan Liquidation.sol\":899:919  collateral[borrower] */\n      0xffffffffffffffffffffffffffffffffffffffff\n      and\n      0xffffffffffffffffffffffffffffffffffffffff\n      and\n      dup2\n      mstore\n      0x20\n      add\n      swap1\n      dup2\n      mstore\n      0x20\n      add\n      0x00\n      keccak256\n        /* \"L/Flash Loan Liquidation.sol\":892:919  delete collateral[borrower] */\n      0x00\n      swap1\n      sstore\n        /* \"L/Flash Loan Liquidation.sol\":966:976  msg.sender */\n      caller\n        /* \"L/Flash Loan Liquidation.sol\":958:986  payable(msg.sender).transfer */\n      0xffffffffffffffffffffffffffffffffffffffff\n      and\n        /* \"L/Flash Loan Liquidation.sol\":958:994  payable(msg.sender).transfer(amount) */\n      0x08fc\n        /* \"L/Flash Loan Liquidation.sol\":987:993  amount */\n      dup7\n        /* \"L/Flash Loan Liquidation.sol\":958:994  payable(msg.sender).transfer(amount) */\n      swap1\n      dup2\n      iszero\n      mul\n      swap1\n      mload(0x40)\n      0x00\n      mload(0x40)\n      dup1\n      dup4\n      sub\n      dup2\n      dup6\n      dup9\n      dup9\n      call\n      swap4\n      pop\n      pop\n      pop\n      pop\n      iszero\n      dup1\n      iszero\n      tag_44\n      jumpi\n      returndatacopy(0x00, 0x00, returndatasize)\n      revert(0x00, returndatasize)\n    tag_44:\n      pop\n        /* \"L/Flash Loan Liquidation.sol\":658:1001  {... */\n      pop\n      pop\n        /* \"L/Flash Loan Liquidation.sol\":586:1001  function executeOperation(uint256 amount, bytes calldata data) external {... */\n      pop\n      pop\n      pop\n      jump\t// out\n        /* \"L/Flash Loan Liquidation.sol\":155:182  address public loanProvider */\n    tag_17:\n      0x00\n      0x00\n      swap1\n      sload\n      swap1\n      0x0100\n      exp\n      swap1\n      div\n      0xffffffffffffffffffffffffffffffffffffffff\n      and\n      dup2\n      jump\t// out\n        /* \"L/Flash Loan Liquidation.sol\":188:227  mapping(address => uint256) public debt */\n    tag_24:\n      mstore(0x20, 0x01)\n      dup1\n      0x00\n      mstore\n      keccak256(0x00, 0x40)\n      0x00\n      swap2\n      pop\n      swap1\n      pop\n      sload\n      dup2\n      jump\t// out\n        /* \"L/Flash Loan Liquidation.sol\":233:278  mapping(address => uint256) public collateral */\n    tag_30:\n      mstore(0x20, 0x02)\n      dup1\n      0x00\n      mstore\n      keccak256(0x00, 0x40)\n      0x00\n      swap2\n      pop\n      swap1\n      pop\n      sload\n      dup2\n      jump\t// out\n        /* \"L/Flash Loan Liquidation.sol\":363:580  function liquidateWithFlash(address borrower, uint256 amount) external {... */\n    tag_36:\n        /* \"L/Flash Loan Liquidation.sol\":444:461  bytes memory data */\n      0x00\n        /* \"L/Flash Loan Liquidation.sol\":475:483  borrower */\n      dup3\n        /* \"L/Flash Loan Liquidation.sol\":485:491  amount */\n      dup3\n        /* \"L/Flash Loan Liquidation.sol\":464:492  abi.encode(borrower, amount) */\n      add(0x20, mload(0x40))\n      tag_46\n      swap3\n      swap2\n      swap1\n      tag_47\n      jump\t// in\n    tag_46:\n      mload(0x40)\n      0x20\n      dup2\n      dup4\n      sub\n      sub\n      dup2\n      mstore\n      swap1\n      0x40\n      mstore\n        /* \"L/Flash Loan Liquidation.sol\":444:492  bytes memory data = abi.encode(borrower, amount) */\n      swap1\n      pop\n        /* \"L/Flash Loan Liquidation.sol\":521:533  loanProvider */\n      0x00\n      0x00\n      swap1\n      sload\n      swap1\n      0x0100\n      exp\n      swap1\n      div\n      0xffffffffffffffffffffffffffffffffffffffff\n      and\n        /* \"L/Flash Loan Liquidation.sol\":502:544  IFlashLoanProvider(loanProvider).flashLoan */\n      0xffffffffffffffffffffffffffffffffffffffff\n      and\n      0x2bd94e9c\n        /* \"L/Flash Loan Liquidation.sol\":545:551  amount */\n      dup4\n        /* \"L/Flash Loan Liquidation.sol\":561:565  this */\n      address\n        /* \"L/Flash Loan Liquidation.sol\":568:572  data */\n      dup5\n        /* \"L/Flash Loan Liquidation.sol\":502:573  IFlashLoanProvider(loanProvider).flashLoan(amount, address(this), data) */\n      mload(0x40)\n      dup5\n      0xffffffff\n      and\n      0xe0\n      shl\n      dup2\n      mstore\n      0x04\n      add\n      tag_48\n      swap4\n      swap3\n      swap2\n      swap1\n      tag_49\n      jump\t// in\n    tag_48:\n      0x00\n      mload(0x40)\n      dup1\n      dup4\n      sub\n      dup2\n      0x00\n      dup8\n      dup1\n      extcodesize\n      iszero\n      dup1\n      iszero\n      tag_50\n      jumpi\n      revert(0x00, 0x00)\n    tag_50:\n      pop\n      gas\n      call\n      iszero\n      dup1\n      iszero\n      tag_52\n      jumpi\n      returndatacopy(0x00, 0x00, returndatasize)\n      revert(0x00, returndatasize)\n    tag_52:\n      pop\n      pop\n      pop\n      pop\n        /* \"L/Flash Loan Liquidation.sol\":434:580  {... */\n      pop\n        /* \"L/Flash Loan Liquidation.sol\":363:580  function liquidateWithFlash(address borrower, uint256 amount) external {... */\n      pop\n      pop\n      jump\t// out\n        /* \"#utility.yul\":88:205   */\n    tag_54:\n        /* \"#utility.yul\":197:198   */\n      0x00\n        /* \"#utility.yul\":194:195   */\n      0x00\n        /* \"#utility.yul\":187:199   */\n      revert\n        /* \"#utility.yul\":211:328   */\n    tag_55:\n        /* \"#utility.yul\":320:321   */\n      0x00\n        /* \"#utility.yul\":317:318   */\n      0x00\n        /* \"#utility.yul\":310:322   */\n      revert\n        /* \"#utility.yul\":334:411   */\n    tag_56:\n        /* \"#utility.yul\":371:378   */\n      0x00\n        /* \"#utility.yul\":400:405   */\n      dup2\n        /* \"#utility.yul\":389:405   */\n      swap1\n      pop\n        /* \"#utility.yul\":334:411   */\n      swap2\n      swap1\n      pop\n      jump\t// out\n        /* \"#utility.yul\":417:539   */\n    tag_57:\n        /* \"#utility.yul\":490:514   */\n      tag_86\n        /* \"#utility.yul\":508:513   */\n      dup2\n        /* \"#utility.yul\":490:514   */\n      tag_56\n      jump\t// in\n    tag_86:\n        /* \"#utility.yul\":483:488   */\n      dup2\n        /* \"#utility.yul\":480:515   */\n      eq\n        /* \"#utility.yul\":470:533   */\n      tag_87\n      jumpi\n        /* \"#utility.yul\":529:530   */\n      0x00\n        /* \"#utility.yul\":526:527   */\n      0x00\n        /* \"#utility.yul\":519:531   */\n      revert\n        /* \"#utility.yul\":470:533   */\n    tag_87:\n        /* \"#utility.yul\":417:539   */\n      pop\n      jump\t// out\n        /* \"#utility.yul\":545:684   */\n    tag_58:\n        /* \"#utility.yul\":591:596   */\n      0x00\n        /* \"#utility.yul\":629:635   */\n      dup2\n        /* \"#utility.yul\":616:636   */\n      calldataload\n        /* \"#utility.yul\":607:636   */\n      swap1\n      pop\n        /* \"#utility.yul\":645:678   */\n      tag_89\n        /* \"#utility.yul\":672:677   */\n      dup2\n        /* \"#utility.yul\":645:678   */\n      tag_57\n      jump\t// in\n    tag_89:\n        /* \"#utility.yul\":545:684   */\n      swap3\n      swap2\n      pop\n      pop\n      jump\t// out\n        /* \"#utility.yul\":690:807   */\n    tag_59:\n        /* \"#utility.yul\":799:800   */\n      0x00\n        /* \"#utility.yul\":796:797   */\n      0x00\n        /* \"#utility.yul\":789:801   */\n      revert\n        /* \"#utility.yul\":813:930   */\n    tag_60:\n        /* \"#utility.yul\":922:923   */\n      0x00\n        /* \"#utility.yul\":919:920   */\n      0x00\n        /* \"#utility.yul\":912:924   */\n      revert\n        /* \"#utility.yul\":936:1053   */\n    tag_61:\n        /* \"#utility.yul\":1045:1046   */\n      0x00\n        /* \"#utility.yul\":1042:1043   */\n      0x00\n        /* \"#utility.yul\":1035:1047   */\n      revert\n        /* \"#utility.yul\":1072:1624   */\n    tag_62:\n        /* \"#utility.yul\":1129:1137   */\n      0x00\n        /* \"#utility.yul\":1139:1145   */\n      0x00\n        /* \"#utility.yul\":1189:1192   */\n      dup4\n        /* \"#utility.yul\":1182:1186   */\n      0x1f\n        /* \"#utility.yul\":1174:1180   */\n      dup5\n        /* \"#utility.yul\":1170:1187   */\n      add\n        /* \"#utility.yul\":1166:1193   */\n      slt\n        /* \"#utility.yul\":1156:1278   */\n      tag_94\n      jumpi\n        /* \"#utility.yul\":1197:1276   */\n      tag_95\n      tag_59\n      jump\t// in\n    tag_95:\n        /* \"#utility.yul\":1156:1278   */\n    tag_94:\n        /* \"#utility.yul\":1310:1316   */\n      dup3\n        /* \"#utility.yul\":1297:1317   */\n      calldataload\n        /* \"#utility.yul\":1287:1317   */\n      swap1\n      pop\n        /* \"#utility.yul\":1340:1358   */\n      0xffffffffffffffff\n        /* \"#utility.yul\":1332:1338   */\n      dup2\n        /* \"#utility.yul\":1329:1359   */\n      gt\n        /* \"#utility.yul\":1326:1443   */\n      iszero\n      tag_96\n      jumpi\n        /* \"#utility.yul\":1362:1441   */\n      tag_97\n      tag_60\n      jump\t// in\n    tag_97:\n        /* \"#utility.yul\":1326:1443   */\n    tag_96:\n        /* \"#utility.yul\":1476:1480   */\n      0x20\n        /* \"#utility.yul\":1468:1474   */\n      dup4\n        /* \"#utility.yul\":1464:1481   */\n      add\n        /* \"#utility.yul\":1452:1481   */\n      swap2\n      pop\n        /* \"#utility.yul\":1530:1533   */\n      dup4\n        /* \"#utility.yul\":1522:1526   */\n      0x01\n        /* \"#utility.yul\":1514:1520   */\n      dup3\n        /* \"#utility.yul\":1510:1527   */\n      mul\n        /* \"#utility.yul\":1500:1508   */\n      dup4\n        /* \"#utility.yul\":1496:1528   */\n      add\n        /* \"#utility.yul\":1493:1534   */\n      gt\n        /* \"#utility.yul\":1490:1618   */\n      iszero\n      tag_98\n      jumpi\n        /* \"#utility.yul\":1537:1616   */\n      tag_99\n      tag_61\n      jump\t// in\n    tag_99:\n        /* \"#utility.yul\":1490:1618   */\n    tag_98:\n        /* \"#utility.yul\":1072:1624   */\n      swap3\n      pop\n      swap3\n      swap1\n      pop\n      jump\t// out\n        /* \"#utility.yul\":1630:2302   */\n    tag_13:\n        /* \"#utility.yul\":1709:1715   */\n      0x00\n        /* \"#utility.yul\":1717:1723   */\n      0x00\n        /* \"#utility.yul\":1725:1731   */\n      0x00\n        /* \"#utility.yul\":1774:1776   */\n      0x40\n        /* \"#utility.yul\":1762:1771   */\n      dup5\n        /* \"#utility.yul\":1753:1760   */\n      dup7\n        /* \"#utility.yul\":1749:1772   */\n      sub\n        /* \"#utility.yul\":1745:1777   */\n      slt\n        /* \"#utility.yul\":1742:1861   */\n      iszero\n      tag_101\n      jumpi\n        /* \"#utility.yul\":1780:1859   */\n      tag_102\n      tag_54\n      jump\t// in\n    tag_102:\n        /* \"#utility.yul\":1742:1861   */\n    tag_101:\n        /* \"#utility.yul\":1900:1901   */\n      0x00\n        /* \"#utility.yul\":1925:1978   */\n      tag_103\n        /* \"#utility.yul\":1970:1977   */\n      dup7\n        /* \"#utility.yul\":1961:1967   */\n      dup3\n        /* \"#utility.yul\":1950:1959   */\n      dup8\n        /* \"#utility.yul\":1946:1968   */\n      add\n        /* \"#utility.yul\":1925:1978   */\n      tag_58\n      jump\t// in\n    tag_103:\n        /* \"#utility.yul\":1915:1978   */\n      swap4\n      pop\n        /* \"#utility.yul\":1871:1988   */\n      pop\n        /* \"#utility.yul\":2055:2057   */\n      0x20\n        /* \"#utility.yul\":2044:2053   */\n      dup5\n        /* \"#utility.yul\":2040:2058   */\n      add\n        /* \"#utility.yul\":2027:2059   */\n      calldataload\n        /* \"#utility.yul\":2086:2104   */\n      0xffffffffffffffff\n        /* \"#utility.yul\":2078:2084   */\n      dup2\n        /* \"#utility.yul\":2075:2105   */\n      gt\n        /* \"#utility.yul\":2072:2189   */\n      iszero\n      tag_104\n      jumpi\n        /* \"#utility.yul\":2108:2187   */\n      tag_105\n      tag_55\n      jump\t// in\n    tag_105:\n        /* \"#utility.yul\":2072:2189   */\n    tag_104:\n        /* \"#utility.yul\":2221:2285   */\n      tag_106\n        /* \"#utility.yul\":2277:2284   */\n      dup7\n        /* \"#utility.yul\":2268:2274   */\n      dup3\n        /* \"#utility.yul\":2257:2266   */\n      dup8\n        /* \"#utility.yul\":2253:2275   */\n      add\n        /* \"#utility.yul\":2221:2285   */\n      tag_62\n      jump\t// in\n    tag_106:\n        /* \"#utility.yul\":2203:2285   */\n      swap3\n      pop\n      swap3\n      pop\n        /* \"#utility.yul\":1998:2295   */\n      pop\n        /* \"#utility.yul\":1630:2302   */\n      swap3\n      pop\n      swap3\n      pop\n      swap3\n      jump\t// out\n        /* \"#utility.yul\":2308:2434   */\n    tag_63:\n        /* \"#utility.yul\":2345:2352   */\n      0x00\n        /* \"#utility.yul\":2385:2427   */\n      0xffffffffffffffffffffffffffffffffffffffff\n        /* \"#utility.yul\":2378:2383   */\n      dup3\n        /* \"#utility.yul\":2374:2428   */\n      and\n        /* \"#utility.yul\":2363:2428   */\n      swap1\n      pop\n        /* \"#utility.yul\":2308:2434   */\n      swap2\n      swap1\n      pop\n      jump\t// out\n        /* \"#utility.yul\":2440:2536   */\n    tag_64:\n        /* \"#utility.yul\":2477:2484   */\n      0x00\n        /* \"#utility.yul\":2506:2530   */\n      tag_109\n        /* \"#utility.yul\":2524:2529   */\n      dup3\n        /* \"#utility.yul\":2506:2530   */\n      tag_63\n      jump\t// in\n    tag_109:\n        /* \"#utility.yul\":2495:2530   */\n      swap1\n      pop\n        /* \"#utility.yul\":2440:2536   */\n      swap2\n      swap1\n      pop\n      jump\t// out\n        /* \"#utility.yul\":2542:2660   */\n    tag_65:\n        /* \"#utility.yul\":2629:2653   */\n      tag_111\n        /* \"#utility.yul\":2647:2652   */\n      dup2\n        /* \"#utility.yul\":2629:2653   */\n      tag_64\n      jump\t// in\n    tag_111:\n        /* \"#utility.yul\":2624:2627   */\n      dup3\n        /* \"#utility.yul\":2617:2654   */\n      mstore\n        /* \"#utility.yul\":2542:2660   */\n      pop\n      pop\n      jump\t// out\n        /* \"#utility.yul\":2666:2888   */\n    tag_19:\n        /* \"#utility.yul\":2759:2763   */\n      0x00\n        /* \"#utility.yul\":2797:2799   */\n      0x20\n        /* \"#utility.yul\":2786:2795   */\n      dup3\n        /* \"#utility.yul\":2782:2800   */\n      add\n        /* \"#utility.yul\":2774:2800   */\n      swap1\n      pop\n        /* \"#utility.yul\":2810:2881   */\n      tag_113\n        /* \"#utility.yul\":2878:2879   */\n      0x00\n        /* \"#utility.yul\":2867:2876   */\n      dup4\n        /* \"#utility.yul\":2863:2880   */\n      add\n        /* \"#utility.yul\":2854:2860   */\n      dup5\n        /* \"#utility.yul\":2810:2881   */\n      tag_65\n      jump\t// in\n    tag_113:\n        /* \"#utility.yul\":2666:2888   */\n      swap3\n      swap2\n      pop\n      pop\n      jump\t// out\n        /* \"#utility.yul\":2894:3016   */\n    tag_66:\n        /* \"#utility.yul\":2967:2991   */\n      tag_115\n        /* \"#utility.yul\":2985:2990   */\n      dup2\n        /* \"#utility.yul\":2967:2991   */\n      tag_64\n      jump\t// in\n    tag_115:\n        /* \"#utility.yul\":2960:2965   */\n      dup2\n        /* \"#utility.yul\":2957:2992   */\n      eq\n        /* \"#utility.yul\":2947:3010   */\n      tag_116\n      jumpi\n        /* \"#utility.yul\":3006:3007   */\n      0x00\n        /* \"#utility.yul\":3003:3004   */\n      0x00\n        /* \"#utility.yul\":2996:3008   */\n      revert\n        /* \"#utility.yul\":2947:3010   */\n    tag_116:\n        /* \"#utility.yul\":2894:3016   */\n      pop\n      jump\t// out\n        /* \"#utility.yul\":3022:3161   */\n    tag_67:\n        /* \"#utility.yul\":3068:3073   */\n      0x00\n        /* \"#utility.yul\":3106:3112   */\n      dup2\n        /* \"#utility.yul\":3093:3113   */\n      calldataload\n        /* \"#utility.yul\":3084:3113   */\n      swap1\n      pop\n        /* \"#utility.yul\":3122:3155   */\n      tag_118\n        /* \"#utility.yul\":3149:3154   */\n      dup2\n        /* \"#utility.yul\":3122:3155   */\n      tag_66\n      jump\t// in\n    tag_118:\n        /* \"#utility.yul\":3022:3161   */\n      swap3\n      swap2\n      pop\n      pop\n      jump\t// out\n        /* \"#utility.yul\":3167:3496   */\n    tag_23:\n        /* \"#utility.yul\":3226:3232   */\n      0x00\n        /* \"#utility.yul\":3275:3277   */\n      0x20\n        /* \"#utility.yul\":3263:3272   */\n      dup3\n        /* \"#utility.yul\":3254:3261   */\n      dup5\n        /* \"#utility.yul\":3250:3273   */\n      sub\n        /* \"#utility.yul\":3246:3278   */\n      slt\n        /* \"#utility.yul\":3243:3362   */\n      iszero\n      tag_120\n      jumpi\n        /* \"#utility.yul\":3281:3360   */\n      tag_121\n      tag_54\n      jump\t// in\n    tag_121:\n        /* \"#utility.yul\":3243:3362   */\n    tag_120:\n        /* \"#utility.yul\":3401:3402   */\n      0x00\n        /* \"#utility.yul\":3426:3479   */\n      tag_122\n        /* \"#utility.yul\":3471:3478   */\n      dup5\n        /* \"#utility.yul\":3462:3468   */\n      dup3\n        /* \"#utility.yul\":3451:3460   */\n      dup6\n        /* \"#utility.yul\":3447:3469   */\n      add\n        /* \"#utility.yul\":3426:3479   */\n      tag_67\n      jump\t// in\n    tag_122:\n        /* \"#utility.yul\":3416:3479   */\n      swap2\n      pop\n        /* \"#utility.yul\":3372:3489   */\n      pop\n        /* \"#utility.yul\":3167:3496   */\n      swap3\n      swap2\n      pop\n      pop\n      jump\t// out\n        /* \"#utility.yul\":3502:3620   */\n    tag_68:\n        /* \"#utility.yul\":3589:3613   */\n      tag_124\n        /* \"#utility.yul\":3607:3612   */\n      dup2\n        /* \"#utility.yul\":3589:3613   */\n      tag_56\n      jump\t// in\n    tag_124:\n        /* \"#utility.yul\":3584:3587   */\n      dup3\n        /* \"#utility.yul\":3577:3614   */\n      mstore\n        /* \"#utility.yul\":3502:3620   */\n      pop\n      pop\n      jump\t// out\n        /* \"#utility.yul\":3626:3848   */\n    tag_26:\n        /* \"#utility.yul\":3719:3723   */\n      0x00\n        /* \"#utility.yul\":3757:3759   */\n      0x20\n        /* \"#utility.yul\":3746:3755   */\n      dup3\n        /* \"#utility.yul\":3742:3760   */\n      add\n        /* \"#utility.yul\":3734:3760   */\n      swap1\n      pop\n        /* \"#utility.yul\":3770:3841   */\n      tag_126\n        /* \"#utility.yul\":3838:3839   */\n      0x00\n        /* \"#utility.yul\":3827:3836   */\n      dup4\n        /* \"#utility.yul\":3823:3840   */\n      add\n        /* \"#utility.yul\":3814:3820   */\n      dup5\n        /* \"#utility.yul\":3770:3841   */\n      tag_68\n      jump\t// in\n    tag_126:\n        /* \"#utility.yul\":3626:3848   */\n      swap3\n      swap2\n      pop\n      pop\n      jump\t// out\n        /* \"#utility.yul\":3854:4328   */\n    tag_35:\n        /* \"#utility.yul\":3922:3928   */\n      0x00\n        /* \"#utility.yul\":3930:3936   */\n      0x00\n        /* \"#utility.yul\":3979:3981   */\n      0x40\n        /* \"#utility.yul\":3967:3976   */\n      dup4\n        /* \"#utility.yul\":3958:3965   */\n      dup6\n        /* \"#utility.yul\":3954:3977   */\n      sub\n        /* \"#utility.yul\":3950:3982   */\n      slt\n        /* \"#utility.yul\":3947:4066   */\n      iszero\n      tag_128\n      jumpi\n        /* \"#utility.yul\":3985:4064   */\n      tag_129\n      tag_54\n      jump\t// in\n    tag_129:\n        /* \"#utility.yul\":3947:4066   */\n    tag_128:\n        /* \"#utility.yul\":4105:4106   */\n      0x00\n        /* \"#utility.yul\":4130:4183   */\n      tag_130\n        /* \"#utility.yul\":4175:4182   */\n      dup6\n        /* \"#utility.yul\":4166:4172   */\n      dup3\n        /* \"#utility.yul\":4155:4164   */\n      dup7\n        /* \"#utility.yul\":4151:4173   */\n      add\n        /* \"#utility.yul\":4130:4183   */\n      tag_67\n      jump\t// in\n    tag_130:\n        /* \"#utility.yul\":4120:4183   */\n      swap3\n      pop\n        /* \"#utility.yul\":4076:4193   */\n      pop\n        /* \"#utility.yul\":4232:4234   */\n      0x20\n        /* \"#utility.yul\":4258:4311   */\n      tag_131\n        /* \"#utility.yul\":4303:4310   */\n      dup6\n        /* \"#utility.yul\":4294:4300   */\n      dup3\n        /* \"#utility.yul\":4283:4292   */\n      dup7\n        /* \"#utility.yul\":4279:4301   */\n      add\n        /* \"#utility.yul\":4258:4311   */\n      tag_58\n      jump\t// in\n    tag_131:\n        /* \"#utility.yul\":4248:4311   */\n      swap2\n      pop\n        /* \"#utility.yul\":4203:4321   */\n      pop\n        /* \"#utility.yul\":3854:4328   */\n      swap3\n      pop\n      swap3\n      swap1\n      pop\n      jump\t// out\n        /* \"#utility.yul\":4334:4438   */\n    tag_69:\n        /* \"#utility.yul\":4379:4386   */\n      0x00\n        /* \"#utility.yul\":4408:4432   */\n      tag_133\n        /* \"#utility.yul\":4426:4431   */\n      dup3\n        /* \"#utility.yul\":4408:4432   */\n      tag_63\n      jump\t// in\n    tag_133:\n        /* \"#utility.yul\":4397:4432   */\n      swap1\n      pop\n        /* \"#utility.yul\":4334:4438   */\n      swap2\n      swap1\n      pop\n      jump\t// out\n        /* \"#utility.yul\":4444:4582   */\n    tag_70:\n        /* \"#utility.yul\":4525:4557   */\n      tag_135\n        /* \"#utility.yul\":4551:4556   */\n      dup2\n        /* \"#utility.yul\":4525:4557   */\n      tag_69\n      jump\t// in\n    tag_135:\n        /* \"#utility.yul\":4518:4523   */\n      dup2\n        /* \"#utility.yul\":4515:4558   */\n      eq\n        /* \"#utility.yul\":4505:4576   */\n      tag_136\n      jumpi\n        /* \"#utility.yul\":4572:4573   */\n      0x00\n        /* \"#utility.yul\":4569:4570   */\n      0x00\n        /* \"#utility.yul\":4562:4574   */\n      revert\n        /* \"#utility.yul\":4505:4576   */\n    tag_136:\n        /* \"#utility.yul\":4444:4582   */\n      pop\n      jump\t// out\n        /* \"#utility.yul\":4588:4743   */\n    tag_71:\n        /* \"#utility.yul\":4642:4647   */\n      0x00\n        /* \"#utility.yul\":4680:4686   */\n      dup2\n        /* \"#utility.yul\":4667:4687   */\n      calldataload\n        /* \"#utility.yul\":4658:4687   */\n      swap1\n      pop\n        /* \"#utility.yul\":4696:4737   */\n      tag_138\n        /* \"#utility.yul\":4731:4736   */\n      dup2\n        /* \"#utility.yul\":4696:4737   */\n      tag_70\n      jump\t// in\n    tag_138:\n        /* \"#utility.yul\":4588:4743   */\n      swap3\n      swap2\n      pop\n      pop\n      jump\t// out\n        /* \"#utility.yul\":4749:5239   */\n    tag_39:\n        /* \"#utility.yul\":4825:4831   */\n      0x00\n        /* \"#utility.yul\":4833:4839   */\n      0x00\n        /* \"#utility.yul\":4882:4884   */\n      0x40\n        /* \"#utility.yul\":4870:4879   */\n      dup4\n        /* \"#utility.yul\":4861:4868   */\n      dup6\n        /* \"#utility.yul\":4857:4880   */\n      sub\n        /* \"#utility.yul\":4853:4885   */\n      slt\n        /* \"#utility.yul\":4850:4969   */\n      iszero\n      tag_140\n      jumpi\n        /* \"#utility.yul\":4888:4967   */\n      tag_141\n      tag_54\n      jump\t// in\n    tag_141:\n        /* \"#utility.yul\":4850:4969   */\n    tag_140:\n        /* \"#utility.yul\":5008:5009   */\n      0x00\n        /* \"#utility.yul\":5033:5094   */\n      tag_142\n        /* \"#utility.yul\":5086:5093   */\n      dup6\n        /* \"#utility.yul\":5077:5083   */\n      dup3\n        /* \"#utility.yul\":5066:5075   */\n      dup7\n        /* \"#utility.yul\":5062:5084   */\n      add\n        /* \"#utility.yul\":5033:5094   */\n      tag_71\n      jump\t// in\n    tag_142:\n        /* \"#utility.yul\":5023:5094   */\n      swap3\n      pop\n        /* \"#utility.yul\":4979:5104   */\n      pop\n        /* \"#utility.yul\":5143:5145   */\n      0x20\n        /* \"#utility.yul\":5169:5222   */\n      tag_143\n        /* \"#utility.yul\":5214:5221   */\n      dup6\n        /* \"#utility.yul\":5205:5211   */\n      dup3\n        /* \"#utility.yul\":5194:5203   */\n      dup7\n        /* \"#utility.yul\":5190:5212   */\n      add\n        /* \"#utility.yul\":5169:5222   */\n      tag_58\n      jump\t// in\n    tag_143:\n        /* \"#utility.yul\":5159:5222   */\n      swap2\n      pop\n        /* \"#utility.yul\":5114:5232   */\n      pop\n        /* \"#utility.yul\":4749:5239   */\n      swap3\n      pop\n      swap3\n      swap1\n      pop\n      jump\t// out\n        /* \"#utility.yul\":5245:5414   */\n    tag_72:\n        /* \"#utility.yul\":5329:5340   */\n      0x00\n        /* \"#utility.yul\":5363:5369   */\n      dup3\n        /* \"#utility.yul\":5358:5361   */\n      dup3\n        /* \"#utility.yul\":5351:5370   */\n      mstore\n        /* \"#utility.yul\":5403:5407   */\n      0x20\n        /* \"#utility.yul\":5398:5401   */\n      dup3\n        /* \"#utility.yul\":5394:5408   */\n      add\n        /* \"#utility.yul\":5379:5408   */\n      swap1\n      pop\n        /* \"#utility.yul\":5245:5414   */\n      swap3\n      swap2\n      pop\n      pop\n      jump\t// out\n        /* \"#utility.yul\":5420:5593   */\n    tag_73:\n        /* \"#utility.yul\":5560:5585   */\n      0x4e6f7420756e646572636f6c6c61746572616c697a6564000000000000000000\n        /* \"#utility.yul\":5556:5557   */\n      0x00\n        /* \"#utility.yul\":5548:5554   */\n      dup3\n        /* \"#utility.yul\":5544:5558   */\n      add\n        /* \"#utility.yul\":5537:5586   */\n      mstore\n        /* \"#utility.yul\":5420:5593   */\n      pop\n      jump\t// out\n        /* \"#utility.yul\":5599:5965   */\n    tag_74:\n        /* \"#utility.yul\":5741:5744   */\n      0x00\n        /* \"#utility.yul\":5762:5829   */\n      tag_147\n        /* \"#utility.yul\":5826:5828   */\n      0x17\n        /* \"#utility.yul\":5821:5824   */\n      dup4\n        /* \"#utility.yul\":5762:5829   */\n      tag_72\n      jump\t// in\n    tag_147:\n        /* \"#utility.yul\":5755:5829   */\n      swap2\n      pop\n        /* \"#utility.yul\":5838:5931   */\n      tag_148\n        /* \"#utility.yul\":5927:5930   */\n      dup3\n        /* \"#utility.yul\":5838:5931   */\n      tag_73\n      jump\t// in\n    tag_148:\n        /* \"#utility.yul\":5956:5958   */\n      0x20\n        /* \"#utility.yul\":5951:5954   */\n      dup3\n        /* \"#utility.yul\":5947:5959   */\n      add\n        /* \"#utility.yul\":5940:5959   */\n      swap1\n      pop\n        /* \"#utility.yul\":5599:5965   */\n      swap2\n      swap1\n      pop\n      jump\t// out\n        /* \"#utility.yul\":5971:6390   */\n    tag_42:\n        /* \"#utility.yul\":6137:6141   */\n      0x00\n        /* \"#utility.yul\":6175:6177   */\n      0x20\n        /* \"#utility.yul\":6164:6173   */\n      dup3\n        /* \"#utility.yul\":6160:6178   */\n      add\n        /* \"#utility.yul\":6152:6178   */\n      swap1\n      pop\n        /* \"#utility.yul\":6224:6233   */\n      dup2\n        /* \"#utility.yul\":6218:6222   */\n      dup2\n        /* \"#utility.yul\":6214:6234   */\n      sub\n        /* \"#utility.yul\":6210:6211   */\n      0x00\n        /* \"#utility.yul\":6199:6208   */\n      dup4\n        /* \"#utility.yul\":6195:6212   */\n      add\n        /* \"#utility.yul\":6188:6235   */\n      mstore\n        /* \"#utility.yul\":6252:6383   */\n      tag_150\n        /* \"#utility.yul\":6378:6382   */\n      dup2\n        /* \"#utility.yul\":6252:6383   */\n      tag_74\n      jump\t// in\n    tag_150:\n        /* \"#utility.yul\":6244:6383   */\n      swap1\n      pop\n        /* \"#utility.yul\":5971:6390   */\n      swap2\n      swap1\n      pop\n      jump\t// out\n        /* \"#utility.yul\":6396:6728   */\n    tag_47:\n        /* \"#utility.yul\":6517:6521   */\n      0x00\n        /* \"#utility.yul\":6555:6557   */\n      0x40\n        /* \"#utility.yul\":6544:6553   */\n      dup3\n        /* \"#utility.yul\":6540:6558   */\n      add\n        /* \"#utility.yul\":6532:6558   */\n      swap1\n      pop\n        /* \"#utility.yul\":6568:6639   */\n      tag_152\n        /* \"#utility.yul\":6636:6637   */\n      0x00\n        /* \"#utility.yul\":6625:6634   */\n      dup4\n        /* \"#utility.yul\":6621:6638   */\n      add\n        /* \"#utility.yul\":6612:6618   */\n      dup6\n        /* \"#utility.yul\":6568:6639   */\n      tag_65\n      jump\t// in\n    tag_152:\n        /* \"#utility.yul\":6649:6721   */\n      tag_153\n        /* \"#utility.yul\":6717:6719   */\n      0x20\n        /* \"#utility.yul\":6706:6715   */\n      dup4\n        /* \"#utility.yul\":6702:6720   */\n      add\n        /* \"#utility.yul\":6693:6699   */\n      dup5\n        /* \"#utility.yul\":6649:6721   */\n      tag_68\n      jump\t// in\n    tag_153:\n        /* \"#utility.yul\":6396:6728   */\n      swap4\n      swap3\n      pop\n      pop\n      pop\n      jump\t// out\n        /* \"#utility.yul\":6734:6832   */\n    tag_75:\n        /* \"#utility.yul\":6785:6791   */\n      0x00\n        /* \"#utility.yul\":6819:6824   */\n      dup2\n        /* \"#utility.yul\":6813:6825   */\n      mload\n        /* \"#utility.yul\":6803:6825   */\n      swap1\n      pop\n        /* \"#utility.yul\":6734:6832   */\n      swap2\n      swap1\n      pop\n      jump\t// out\n        /* \"#utility.yul\":6838:7006   */\n    tag_76:\n        /* \"#utility.yul\":6921:6932   */\n      0x00\n        /* \"#utility.yul\":6955:6961   */\n      dup3\n        /* \"#utility.yul\":6950:6953   */\n      dup3\n        /* \"#utility.yul\":6943:6962   */\n      mstore\n        /* \"#utility.yul\":6995:6999   */\n      0x20\n        /* \"#utility.yul\":6990:6993   */\n      dup3\n        /* \"#utility.yul\":6986:7000   */\n      add\n        /* \"#utility.yul\":6971:7000   */\n      swap1\n      pop\n        /* \"#utility.yul\":6838:7006   */\n      swap3\n      swap2\n      pop\n      pop\n      jump\t// out\n        /* \"#utility.yul\":7012:7151   */\n    tag_77:\n        /* \"#utility.yul\":7101:7107   */\n      dup3\n        /* \"#utility.yul\":7096:7099   */\n      dup2\n        /* \"#utility.yul\":7091:7094   */\n      dup4\n        /* \"#utility.yul\":7085:7108   */\n      mcopy\n        /* \"#utility.yul\":7142:7143   */\n      0x00\n        /* \"#utility.yul\":7133:7139   */\n      dup4\n        /* \"#utility.yul\":7128:7131   */\n      dup4\n        /* \"#utility.yul\":7124:7140   */\n      add\n        /* \"#utility.yul\":7117:7144   */\n      mstore\n        /* \"#utility.yul\":7012:7151   */\n      pop\n      pop\n      pop\n      jump\t// out\n        /* \"#utility.yul\":7157:7259   */\n    tag_78:\n        /* \"#utility.yul\":7198:7204   */\n      0x00\n        /* \"#utility.yul\":7249:7251   */\n      0x1f\n        /* \"#utility.yul\":7245:7252   */\n      not\n        /* \"#utility.yul\":7240:7242   */\n      0x1f\n        /* \"#utility.yul\":7233:7238   */\n      dup4\n        /* \"#utility.yul\":7229:7243   */\n      add\n        /* \"#utility.yul\":7225:7253   */\n      and\n        /* \"#utility.yul\":7215:7253   */\n      swap1\n      pop\n        /* \"#utility.yul\":7157:7259   */\n      swap2\n      swap1\n      pop\n      jump\t// out\n        /* \"#utility.yul\":7265:7638   */\n    tag_79:\n        /* \"#utility.yul\":7351:7354   */\n      0x00\n        /* \"#utility.yul\":7379:7417   */\n      tag_159\n        /* \"#utility.yul\":7411:7416   */\n      dup3\n        /* \"#utility.yul\":7379:7417   */\n      tag_75\n      jump\t// in\n    tag_159:\n        /* \"#utility.yul\":7433:7503   */\n      tag_160\n        /* \"#utility.yul\":7496:7502   */\n      dup2\n        /* \"#utility.yul\":7491:7494   */\n      dup6\n        /* \"#utility.yul\":7433:7503   */\n      tag_76\n      jump\t// in\n    tag_160:\n        /* \"#utility.yul\":7426:7503   */\n      swap4\n      pop\n        /* \"#utility.yul\":7512:7577   */\n      tag_161\n        /* \"#utility.yul\":7570:7576   */\n      dup2\n        /* \"#utility.yul\":7565:7568   */\n      dup6\n        /* \"#utility.yul\":7558:7562   */\n      0x20\n        /* \"#utility.yul\":7551:7556   */\n      dup7\n        /* \"#utility.yul\":7547:7563   */\n      add\n        /* \"#utility.yul\":7512:7577   */\n      tag_77\n      jump\t// in\n    tag_161:\n        /* \"#utility.yul\":7602:7631   */\n      tag_162\n        /* \"#utility.yul\":7624:7630   */\n      dup2\n        /* \"#utility.yul\":7602:7631   */\n      tag_78\n      jump\t// in\n    tag_162:\n        /* \"#utility.yul\":7597:7600   */\n      dup5\n        /* \"#utility.yul\":7593:7632   */\n      add\n        /* \"#utility.yul\":7586:7632   */\n      swap2\n      pop\n        /* \"#utility.yul\":7355:7638   */\n      pop\n        /* \"#utility.yul\":7265:7638   */\n      swap3\n      swap2\n      pop\n      pop\n      jump\t// out\n        /* \"#utility.yul\":7644:8173   */\n    tag_49:\n        /* \"#utility.yul\":7811:7815   */\n      0x00\n        /* \"#utility.yul\":7849:7851   */\n      0x60\n        /* \"#utility.yul\":7838:7847   */\n      dup3\n        /* \"#utility.yul\":7834:7852   */\n      add\n        /* \"#utility.yul\":7826:7852   */\n      swap1\n      pop\n        /* \"#utility.yul\":7862:7933   */\n      tag_164\n        /* \"#utility.yul\":7930:7931   */\n      0x00\n        /* \"#utility.yul\":7919:7928   */\n      dup4\n        /* \"#utility.yul\":7915:7932   */\n      add\n        /* \"#utility.yul\":7906:7912   */\n      dup7\n        /* \"#utility.yul\":7862:7933   */\n      tag_68\n      jump\t// in\n    tag_164:\n        /* \"#utility.yul\":7943:8015   */\n      tag_165\n        /* \"#utility.yul\":8011:8013   */\n      0x20\n        /* \"#utility.yul\":8000:8009   */\n      dup4\n        /* \"#utility.yul\":7996:8014   */\n      add\n        /* \"#utility.yul\":7987:7993   */\n      dup6\n        /* \"#utility.yul\":7943:8015   */\n      tag_65\n      jump\t// in\n    tag_165:\n        /* \"#utility.yul\":8062:8071   */\n      dup2\n        /* \"#utility.yul\":8056:8060   */\n      dup2\n        /* \"#utility.yul\":8052:8072   */\n      sub\n        /* \"#utility.yul\":8047:8049   */\n      0x40\n        /* \"#utility.yul\":8036:8045   */\n      dup4\n        /* \"#utility.yul\":8032:8050   */\n      add\n        /* \"#utility.yul\":8025:8073   */\n      mstore\n        /* \"#utility.yul\":8090:8166   */\n      tag_166\n        /* \"#utility.yul\":8161:8165   */\n      dup2\n        /* \"#utility.yul\":8152:8158   */\n      dup5\n        /* \"#utility.yul\":8090:8166   */\n      tag_79\n      jump\t// in\n    tag_166:\n        /* \"#utility.yul\":8082:8166   */\n      swap1\n      pop\n        /* \"#utility.yul\":7644:8173   */\n      swap5\n      swap4\n      pop\n      pop\n      pop\n      pop\n      jump\t// out\n\n    auxdata: 0xa2646970667358221220b031ded7322a7bd4faeea2eed4701a31804bff128b4d4745128a4ff3f04aaa5a64736f6c634300081d0033\n}\n",
				"bytecode": {
					"linkReferences": {},
					"object": "608060405234801561000f575f5ffd5b506040516108be3803806108be833981810160405281019061003191906100d4565b805f5f6101000a81548173ffffffffffffffffffffffffffffffffffffffff021916908373ffffffffffffffffffffffffffffffffffffffff160217905550506100ff565b5f5ffd5b5f73ffffffffffffffffffffffffffffffffffffffff82169050919050565b5f6100a38261007a565b9050919050565b6100b381610099565b81146100bd575f5ffd5b50565b5f815190506100ce816100aa565b92915050565b5f602082840312156100e9576100e8610076565b5b5f6100f6848285016100c0565b91505092915050565b6107b28061010c5f395ff3fe60806040526004361061004d575f3560e01c8063829c3c811461005857806393ff268d146100805780639b6c56ec146100aa578063a5fdc5de146100e6578063c13fac501461012257610054565b3661005457005b5f5ffd5b348015610063575f5ffd5b5061007e60048036038101906100799190610448565b61014a565b005b34801561008b575f5ffd5b506100946102aa565b6040516100a191906104e4565b60405180910390f35b3480156100b5575f5ffd5b506100d060048036038101906100cb9190610527565b6102ce565b6040516100dd9190610561565b60405180910390f35b3480156100f1575f5ffd5b5061010c60048036038101906101079190610527565b6102e3565b6040516101199190610561565b60405180910390f35b34801561012d575f5ffd5b506101486004803603810190610143919061057a565b6102f8565b005b5f5f838381019061015b91906105f3565b915091508060015f8473ffffffffffffffffffffffffffffffffffffffff1673ffffffffffffffffffffffffffffffffffffffff1681526020019081526020015f205410156101df576040517f08c379a00000000000000000000000000000000000000000000000000000000081526004016101d69061068b565b60405180910390fd5b60015f8373ffffffffffffffffffffffffffffffffffffffff1673ffffffffffffffffffffffffffffffffffffffff1681526020019081526020015f205f905560025f8373ffffffffffffffffffffffffffffffffffffffff1673ffffffffffffffffffffffffffffffffffffffff1681526020019081526020015f205f90553373ffffffffffffffffffffffffffffffffffffffff166108fc8690811502906040515f60405180830381858888f193505050501580156102a2573d5f5f3e3d5ffd5b505050505050565b5f5f9054906101000a900473ffffffffffffffffffffffffffffffffffffffff1681565b6001602052805f5260405f205f915090505481565b6002602052805f5260405f205f915090505481565b5f828260405160200161030c9291906106a9565b60405160208183030381529060405290505f5f9054906101000a900473ffffffffffffffffffffffffffffffffffffffff1673ffffffffffffffffffffffffffffffffffffffff16632bd94e9c8330846040518463ffffffff1660e01b815260040161037a93929190610740565b5f604051808303815f87803b158015610391575f5ffd5b505af11580156103a3573d5f5f3e3d5ffd5b50505050505050565b5f5ffd5b5f5ffd5b5f819050919050565b6103c6816103b4565b81146103d0575f5ffd5b50565b5f813590506103e1816103bd565b92915050565b5f5ffd5b5f5ffd5b5f5ffd5b5f5f83601f840112610408576104076103e7565b5b8235905067ffffffffffffffff811115610425576104246103eb565b5b602083019150836001820283011115610441576104406103ef565b5b9250929050565b5f5f5f6040848603121561045f5761045e6103ac565b5b5f61046c868287016103d3565b935050602084013567ffffffffffffffff81111561048d5761048c6103b0565b5b610499868287016103f3565b92509250509250925092565b5f73ffffffffffffffffffffffffffffffffffffffff82169050919050565b5f6104ce826104a5565b9050919050565b6104de816104c4565b82525050565b5f6020820190506104f75f8301846104d5565b92915050565b610506816104c4565b8114610510575f5ffd5b50565b5f81359050610521816104fd565b92915050565b5f6020828403121561053c5761053b6103ac565b5b5f61054984828501610513565b91505092915050565b61055b816103b4565b82525050565b5f6020820190506105745f830184610552565b92915050565b5f5f604083850312156105905761058f6103ac565b5b5f61059d85828601610513565b92505060206105ae858286016103d3565b9150509250929050565b5f6105c2826104a5565b9050919050565b6105d2816105b8565b81146105dc575f5ffd5b50565b5f813590506105ed816105c9565b92915050565b5f5f60408385031215610609576106086103ac565b5b5f610616858286016105df565b9250506020610627858286016103d3565b9150509250929050565b5f82825260208201905092915050565b7f4e6f7420756e646572636f6c6c61746572616c697a65640000000000000000005f82015250565b5f610675601783610631565b915061068082610641565b602082019050919050565b5f6020820190508181035f8301526106a281610669565b9050919050565b5f6040820190506106bc5f8301856104d5565b6106c96020830184610552565b9392505050565b5f81519050919050565b5f82825260208201905092915050565b8281835e5f83830152505050565b5f601f19601f8301169050919050565b5f610712826106d0565b61071c81856106da565b935061072c8185602086016106ea565b610735816106f8565b840191505092915050565b5f6060820190506107535f830186610552565b61076060208301856104d5565b81810360408301526107728184610708565b905094935050505056fea2646970667358221220b031ded7322a7bd4faeea2eed4701a31804bff128b4d4745128a4ff3f04aaa5a64736f6c634300081d0033",
					"opcodes": "PUSH1 0x80 PUSH1 0x40 MSTORE CALLVALUE DUP1 ISZERO PUSH2 0xF JUMPI PUSH0 PUSH0 REVERT JUMPDEST POP PUSH1 0x40 MLOAD PUSH2 0x8BE CODESIZE SUB DUP1 PUSH2 0x8BE DUP4 CODECOPY DUP2 DUP2 ADD PUSH1 0x40 MSTORE DUP2 ADD SWAP1 PUSH2 0x31 SWAP2 SWAP1 PUSH2 0xD4 JUMP JUMPDEST DUP1 PUSH0 PUSH0 PUSH2 0x100 EXP DUP2 SLOAD DUP2 PUSH20 0xFFFFFFFFFFFFFFFFFFFFFFFFFFFFFFFFFFFFFFFF MUL NOT AND SWAP1 DUP4 PUSH20 0xFFFFFFFFFFFFFFFFFFFFFFFFFFFFFFFFFFFFFFFF AND MUL OR SWAP1 SSTORE POP POP PUSH2 0xFF JUMP JUMPDEST PUSH0 PUSH0 REVERT JUMPDEST PUSH0 PUSH20 0xFFFFFFFFFFFFFFFFFFFFFFFFFFFFFFFFFFFFFFFF DUP3 AND SWAP1 POP SWAP2 SWAP1 POP JUMP JUMPDEST PUSH0 PUSH2 0xA3 DUP3 PUSH2 0x7A JUMP JUMPDEST SWAP1 POP SWAP2 SWAP1 POP JUMP JUMPDEST PUSH2 0xB3 DUP2 PUSH2 0x99 JUMP JUMPDEST DUP2 EQ PUSH2 0xBD JUMPI PUSH0 PUSH0 REVERT JUMPDEST POP JUMP JUMPDEST PUSH0 DUP2 MLOAD SWAP1 POP PUSH2 0xCE DUP2 PUSH2 0xAA JUMP JUMPDEST SWAP3 SWAP2 POP POP JUMP JUMPDEST PUSH0 PUSH1 0x20 DUP3 DUP5 SUB SLT ISZERO PUSH2 0xE9 JUMPI PUSH2 0xE8 PUSH2 0x76 JUMP JUMPDEST JUMPDEST PUSH0 PUSH2 0xF6 DUP5 DUP3 DUP6 ADD PUSH2 0xC0 JUMP JUMPDEST SWAP2 POP POP SWAP3 SWAP2 POP POP JUMP JUMPDEST PUSH2 0x7B2 DUP1 PUSH2 0x10C PUSH0 CODECOPY PUSH0 RETURN INVALID PUSH1 0x80 PUSH1 0x40 MSTORE PUSH1 0x4 CALLDATASIZE LT PUSH2 0x4D JUMPI PUSH0 CALLDATALOAD PUSH1 0xE0 SHR DUP1 PUSH4 0x829C3C81 EQ PUSH2 0x58 JUMPI DUP1 PUSH4 0x93FF268D EQ PUSH2 0x80 JUMPI DUP1 PUSH4 0x9B6C56EC EQ PUSH2 0xAA JUMPI DUP1 PUSH4 0xA5FDC5DE EQ PUSH2 0xE6 JUMPI DUP1 PUSH4 0xC13FAC50 EQ PUSH2 0x122 JUMPI PUSH2 0x54 JUMP JUMPDEST CALLDATASIZE PUSH2 0x54 JUMPI STOP JUMPDEST PUSH0 PUSH0 REVERT JUMPDEST CALLVALUE DUP1 ISZERO PUSH2 0x63 JUMPI PUSH0 PUSH0 REVERT JUMPDEST POP PUSH2 0x7E PUSH1 0x4 DUP1 CALLDATASIZE SUB DUP2 ADD SWAP1 PUSH2 0x79 SWAP2 SWAP1 PUSH2 0x448 JUMP JUMPDEST PUSH2 0x14A JUMP JUMPDEST STOP JUMPDEST CALLVALUE DUP1 ISZERO PUSH2 0x8B JUMPI PUSH0 PUSH0 REVERT JUMPDEST POP PUSH2 0x94 PUSH2 0x2AA JUMP JUMPDEST PUSH1 0x40 MLOAD PUSH2 0xA1 SWAP2 SWAP1 PUSH2 0x4E4 JUMP JUMPDEST PUSH1 0x40 MLOAD DUP1 SWAP2 SUB SWAP1 RETURN JUMPDEST CALLVALUE DUP1 ISZERO PUSH2 0xB5 JUMPI PUSH0 PUSH0 REVERT JUMPDEST POP PUSH2 0xD0 PUSH1 0x4 DUP1 CALLDATASIZE SUB DUP2 ADD SWAP1 PUSH2 0xCB SWAP2 SWAP1 PUSH2 0x527 JUMP JUMPDEST PUSH2 0x2CE JUMP JUMPDEST PUSH1 0x40 MLOAD PUSH2 0xDD SWAP2 SWAP1 PUSH2 0x561 JUMP JUMPDEST PUSH1 0x40 MLOAD DUP1 SWAP2 SUB SWAP1 RETURN JUMPDEST CALLVALUE DUP1 ISZERO PUSH2 0xF1 JUMPI PUSH0 PUSH0 REVERT JUMPDEST POP PUSH2 0x10C PUSH1 0x4 DUP1 CALLDATASIZE SUB DUP2 ADD SWAP1 PUSH2 0x107 SWAP2 SWAP1 PUSH2 0x527 JUMP JUMPDEST PUSH2 0x2E3 JUMP JUMPDEST PUSH1 0x40 MLOAD PUSH2 0x119 SWAP2 SWAP1 PUSH2 0x561 JUMP JUMPDEST PUSH1 0x40 MLOAD DUP1 SWAP2 SUB SWAP1 RETURN JUMPDEST CALLVALUE DUP1 ISZERO PUSH2 0x12D JUMPI PUSH0 PUSH0 REVERT JUMPDEST POP PUSH2 0x148 PUSH1 0x4 DUP1 CALLDATASIZE SUB DUP2 ADD SWAP1 PUSH2 0x143 SWAP2 SWAP1 PUSH2 0x57A JUMP JUMPDEST PUSH2 0x2F8 JUMP JUMPDEST STOP JUMPDEST PUSH0 PUSH0 DUP4 DUP4 DUP2 ADD SWAP1 PUSH2 0x15B SWAP2 SWAP1 PUSH2 0x5F3 JUMP JUMPDEST SWAP2 POP SWAP2 POP DUP1 PUSH1 0x1 PUSH0 DUP5 PUSH20 0xFFFFFFFFFFFFFFFFFFFFFFFFFFFFFFFFFFFFFFFF AND PUSH20 0xFFFFFFFFFFFFFFFFFFFFFFFFFFFFFFFFFFFFFFFF AND DUP2 MSTORE PUSH1 0x20 ADD SWAP1 DUP2 MSTORE PUSH1 0x20 ADD PUSH0 KECCAK256 SLOAD LT ISZERO PUSH2 0x1DF JUMPI PUSH1 0x40 MLOAD PUSH32 0x8C379A000000000000000000000000000000000000000000000000000000000 DUP2 MSTORE PUSH1 0x4 ADD PUSH2 0x1D6 SWAP1 PUSH2 0x68B JUMP JUMPDEST PUSH1 0x40 MLOAD DUP1 SWAP2 SUB SWAP1 REVERT JUMPDEST PUSH1 0x1 PUSH0 DUP4 PUSH20 0xFFFFFFFFFFFFFFFFFFFFFFFFFFFFFFFFFFFFFFFF AND PUSH20 0xFFFFFFFFFFFFFFFFFFFFFFFFFFFFFFFFFFFFFFFF AND DUP2 MSTORE PUSH1 0x20 ADD SWAP1 DUP2 MSTORE PUSH1 0x20 ADD PUSH0 KECCAK256 PUSH0 SWAP1 SSTORE PUSH1 0x2 PUSH0 DUP4 PUSH20 0xFFFFFFFFFFFFFFFFFFFFFFFFFFFFFFFFFFFFFFFF AND PUSH20 0xFFFFFFFFFFFFFFFFFFFFFFFFFFFFFFFFFFFFFFFF AND DUP2 MSTORE PUSH1 0x20 ADD SWAP1 DUP2 MSTORE PUSH1 0x20 ADD PUSH0 KECCAK256 PUSH0 SWAP1 SSTORE CALLER PUSH20 0xFFFFFFFFFFFFFFFFFFFFFFFFFFFFFFFFFFFFFFFF AND PUSH2 0x8FC DUP7 SWAP1 DUP2 ISZERO MUL SWAP1 PUSH1 0x40 MLOAD PUSH0 PUSH1 0x40 MLOAD DUP1 DUP4 SUB DUP2 DUP6 DUP9 DUP9 CALL SWAP4 POP POP POP POP ISZERO DUP1 ISZERO PUSH2 0x2A2 JUMPI RETURNDATASIZE PUSH0 PUSH0 RETURNDATACOPY RETURNDATASIZE PUSH0 REVERT JUMPDEST POP POP POP POP POP POP JUMP JUMPDEST PUSH0 PUSH0 SWAP1 SLOAD SWAP1 PUSH2 0x100 EXP SWAP1 DIV PUSH20 0xFFFFFFFFFFFFFFFFFFFFFFFFFFFFFFFFFFFFFFFF AND DUP2 JUMP JUMPDEST PUSH1 0x1 PUSH1 0x20 MSTORE DUP1 PUSH0 MSTORE PUSH1 0x40 PUSH0 KECCAK256 PUSH0 SWAP2 POP SWAP1 POP SLOAD DUP2 JUMP JUMPDEST PUSH1 0x2 PUSH1 0x20 MSTORE DUP1 PUSH0 MSTORE PUSH1 0x40 PUSH0 KECCAK256 PUSH0 SWAP2 POP SWAP1 POP SLOAD DUP2 JUMP JUMPDEST PUSH0 DUP3 DUP3 PUSH1 0x40 MLOAD PUSH1 0x20 ADD PUSH2 0x30C SWAP3 SWAP2 SWAP1 PUSH2 0x6A9 JUMP JUMPDEST PUSH1 0x40 MLOAD PUSH1 0x20 DUP2 DUP4 SUB SUB DUP2 MSTORE SWAP1 PUSH1 0x40 MSTORE SWAP1 POP PUSH0 PUSH0 SWAP1 SLOAD SWAP1 PUSH2 0x100 EXP SWAP1 DIV PUSH20 0xFFFFFFFFFFFFFFFFFFFFFFFFFFFFFFFFFFFFFFFF AND PUSH20 0xFFFFFFFFFFFFFFFFFFFFFFFFFFFFFFFFFFFFFFFF AND PUSH4 0x2BD94E9C DUP4 ADDRESS DUP5 PUSH1 0x40 MLOAD DUP5 PUSH4 0xFFFFFFFF AND PUSH1 0xE0 SHL DUP2 MSTORE PUSH1 0x4 ADD PUSH2 0x37A SWAP4 SWAP3 SWAP2 SWAP1 PUSH2 0x740 JUMP JUMPDEST PUSH0 PUSH1 0x40 MLOAD DUP1 DUP4 SUB DUP2 PUSH0 DUP8 DUP1 EXTCODESIZE ISZERO DUP1 ISZERO PUSH2 0x391 JUMPI PUSH0 PUSH0 REVERT JUMPDEST POP GAS CALL ISZERO DUP1 ISZERO PUSH2 0x3A3 JUMPI RETURNDATASIZE PUSH0 PUSH0 RETURNDATACOPY RETURNDATASIZE PUSH0 REVERT JUMPDEST POP POP POP POP POP POP POP JUMP JUMPDEST PUSH0 PUSH0 REVERT JUMPDEST PUSH0 PUSH0 REVERT JUMPDEST PUSH0 DUP2 SWAP1 POP SWAP2 SWAP1 POP JUMP JUMPDEST PUSH2 0x3C6 DUP2 PUSH2 0x3B4 JUMP JUMPDEST DUP2 EQ PUSH2 0x3D0 JUMPI PUSH0 PUSH0 REVERT JUMPDEST POP JUMP JUMPDEST PUSH0 DUP2 CALLDATALOAD SWAP1 POP PUSH2 0x3E1 DUP2 PUSH2 0x3BD JUMP JUMPDEST SWAP3 SWAP2 POP POP JUMP JUMPDEST PUSH0 PUSH0 REVERT JUMPDEST PUSH0 PUSH0 REVERT JUMPDEST PUSH0 PUSH0 REVERT JUMPDEST PUSH0 PUSH0 DUP4 PUSH1 0x1F DUP5 ADD SLT PUSH2 0x408 JUMPI PUSH2 0x407 PUSH2 0x3E7 JUMP JUMPDEST JUMPDEST DUP3 CALLDATALOAD SWAP1 POP PUSH8 0xFFFFFFFFFFFFFFFF DUP2 GT ISZERO PUSH2 0x425 JUMPI PUSH2 0x424 PUSH2 0x3EB JUMP JUMPDEST JUMPDEST PUSH1 0x20 DUP4 ADD SWAP2 POP DUP4 PUSH1 0x1 DUP3 MUL DUP4 ADD GT ISZERO PUSH2 0x441 JUMPI PUSH2 0x440 PUSH2 0x3EF JUMP JUMPDEST JUMPDEST SWAP3 POP SWAP3 SWAP1 POP JUMP JUMPDEST PUSH0 PUSH0 PUSH0 PUSH1 0x40 DUP5 DUP7 SUB SLT ISZERO PUSH2 0x45F JUMPI PUSH2 0x45E PUSH2 0x3AC JUMP JUMPDEST JUMPDEST PUSH0 PUSH2 0x46C DUP7 DUP3 DUP8 ADD PUSH2 0x3D3 JUMP JUMPDEST SWAP4 POP POP PUSH1 0x20 DUP5 ADD CALLDATALOAD PUSH8 0xFFFFFFFFFFFFFFFF DUP2 GT ISZERO PUSH2 0x48D JUMPI PUSH2 0x48C PUSH2 0x3B0 JUMP JUMPDEST JUMPDEST PUSH2 0x499 DUP7 DUP3 DUP8 ADD PUSH2 0x3F3 JUMP JUMPDEST SWAP3 POP SWAP3 POP POP SWAP3 POP SWAP3 POP SWAP3 JUMP JUMPDEST PUSH0 PUSH20 0xFFFFFFFFFFFFFFFFFFFFFFFFFFFFFFFFFFFFFFFF DUP3 AND SWAP1 POP SWAP2 SWAP1 POP JUMP JUMPDEST PUSH0 PUSH2 0x4CE DUP3 PUSH2 0x4A5 JUMP JUMPDEST SWAP1 POP SWAP2 SWAP1 POP JUMP JUMPDEST PUSH2 0x4DE DUP2 PUSH2 0x4C4 JUMP JUMPDEST DUP3 MSTORE POP POP JUMP JUMPDEST PUSH0 PUSH1 0x20 DUP3 ADD SWAP1 POP PUSH2 0x4F7 PUSH0 DUP4 ADD DUP5 PUSH2 0x4D5 JUMP JUMPDEST SWAP3 SWAP2 POP POP JUMP JUMPDEST PUSH2 0x506 DUP2 PUSH2 0x4C4 JUMP JUMPDEST DUP2 EQ PUSH2 0x510 JUMPI PUSH0 PUSH0 REVERT JUMPDEST POP JUMP JUMPDEST PUSH0 DUP2 CALLDATALOAD SWAP1 POP PUSH2 0x521 DUP2 PUSH2 0x4FD JUMP JUMPDEST SWAP3 SWAP2 POP POP JUMP JUMPDEST PUSH0 PUSH1 0x20 DUP3 DUP5 SUB SLT ISZERO PUSH2 0x53C JUMPI PUSH2 0x53B PUSH2 0x3AC JUMP JUMPDEST JUMPDEST PUSH0 PUSH2 0x549 DUP5 DUP3 DUP6 ADD PUSH2 0x513 JUMP JUMPDEST SWAP2 POP POP SWAP3 SWAP2 POP POP JUMP JUMPDEST PUSH2 0x55B DUP2 PUSH2 0x3B4 JUMP JUMPDEST DUP3 MSTORE POP POP JUMP JUMPDEST PUSH0 PUSH1 0x20 DUP3 ADD SWAP1 POP PUSH2 0x574 PUSH0 DUP4 ADD DUP5 PUSH2 0x552 JUMP JUMPDEST SWAP3 SWAP2 POP POP JUMP JUMPDEST PUSH0 PUSH0 PUSH1 0x40 DUP4 DUP6 SUB SLT ISZERO PUSH2 0x590 JUMPI PUSH2 0x58F PUSH2 0x3AC JUMP JUMPDEST JUMPDEST PUSH0 PUSH2 0x59D DUP6 DUP3 DUP7 ADD PUSH2 0x513 JUMP JUMPDEST SWAP3 POP POP PUSH1 0x20 PUSH2 0x5AE DUP6 DUP3 DUP7 ADD PUSH2 0x3D3 JUMP JUMPDEST SWAP2 POP POP SWAP3 POP SWAP3 SWAP1 POP JUMP JUMPDEST PUSH0 PUSH2 0x5C2 DUP3 PUSH2 0x4A5 JUMP JUMPDEST SWAP1 POP SWAP2 SWAP1 POP JUMP JUMPDEST PUSH2 0x5D2 DUP2 PUSH2 0x5B8 JUMP JUMPDEST DUP2 EQ PUSH2 0x5DC JUMPI PUSH0 PUSH0 REVERT JUMPDEST POP JUMP JUMPDEST PUSH0 DUP2 CALLDATALOAD SWAP1 POP PUSH2 0x5ED DUP2 PUSH2 0x5C9 JUMP JUMPDEST SWAP3 SWAP2 POP POP JUMP JUMPDEST PUSH0 PUSH0 PUSH1 0x40 DUP4 DUP6 SUB SLT ISZERO PUSH2 0x609 JUMPI PUSH2 0x608 PUSH2 0x3AC JUMP JUMPDEST JUMPDEST PUSH0 PUSH2 0x616 DUP6 DUP3 DUP7 ADD PUSH2 0x5DF JUMP JUMPDEST SWAP3 POP POP PUSH1 0x20 PUSH2 0x627 DUP6 DUP3 DUP7 ADD PUSH2 0x3D3 JUMP JUMPDEST SWAP2 POP POP SWAP3 POP SWAP3 SWAP1 POP JUMP JUMPDEST PUSH0 DUP3 DUP3 MSTORE PUSH1 0x20 DUP3 ADD SWAP1 POP SWAP3 SWAP2 POP POP JUMP JUMPDEST PUSH32 0x4E6F7420756E646572636F6C6C61746572616C697A6564000000000000000000 PUSH0 DUP3 ADD MSTORE POP JUMP JUMPDEST PUSH0 PUSH2 0x675 PUSH1 0x17 DUP4 PUSH2 0x631 JUMP JUMPDEST SWAP2 POP PUSH2 0x680 DUP3 PUSH2 0x641 JUMP JUMPDEST PUSH1 0x20 DUP3 ADD SWAP1 POP SWAP2 SWAP1 POP JUMP JUMPDEST PUSH0 PUSH1 0x20 DUP3 ADD SWAP1 POP DUP2 DUP2 SUB PUSH0 DUP4 ADD MSTORE PUSH2 0x6A2 DUP2 PUSH2 0x669 JUMP JUMPDEST SWAP1 POP SWAP2 SWAP1 POP JUMP JUMPDEST PUSH0 PUSH1 0x40 DUP3 ADD SWAP1 POP PUSH2 0x6BC PUSH0 DUP4 ADD DUP6 PUSH2 0x4D5 JUMP JUMPDEST PUSH2 0x6C9 PUSH1 0x20 DUP4 ADD DUP5 PUSH2 0x552 JUMP JUMPDEST SWAP4 SWAP3 POP POP POP JUMP JUMPDEST PUSH0 DUP2 MLOAD SWAP1 POP SWAP2 SWAP1 POP JUMP JUMPDEST PUSH0 DUP3 DUP3 MSTORE PUSH1 0x20 DUP3 ADD SWAP1 POP SWAP3 SWAP2 POP POP JUMP JUMPDEST DUP3 DUP2 DUP4 MCOPY PUSH0 DUP4 DUP4 ADD MSTORE POP POP POP JUMP JUMPDEST PUSH0 PUSH1 0x1F NOT PUSH1 0x1F DUP4 ADD AND SWAP1 POP SWAP2 SWAP1 POP JUMP JUMPDEST PUSH0 PUSH2 0x712 DUP3 PUSH2 0x6D0 JUMP JUMPDEST PUSH2 0x71C DUP2 DUP6 PUSH2 0x6DA JUMP JUMPDEST SWAP4 POP PUSH2 0x72C DUP2 DUP6 PUSH1 0x20 DUP7 ADD PUSH2 0x6EA JUMP JUMPDEST PUSH2 0x735 DUP2 PUSH2 0x6F8 JUMP JUMPDEST DUP5 ADD SWAP2 POP POP SWAP3 SWAP2 POP POP JUMP JUMPDEST PUSH0 PUSH1 0x60 DUP3 ADD SWAP1 POP PUSH2 0x753 PUSH0 DUP4 ADD DUP7 PUSH2 0x552 JUMP JUMPDEST PUSH2 0x760 PUSH1 0x20 DUP4 ADD DUP6 PUSH2 0x4D5 JUMP JUMPDEST DUP2 DUP2 SUB PUSH1 0x40 DUP4 ADD MSTORE PUSH2 0x772 DUP2 DUP5 PUSH2 0x708 JUMP JUMPDEST SWAP1 POP SWAP5 SWAP4 POP POP POP POP JUMP INVALID LOG2 PUSH5 0x6970667358 0x22 SLT KECCAK256 0xB0 BALANCE 0xDE 0xD7 ORIGIN 0x2A PUSH28 0xD4FAEEA2EED4701A31804BFF128B4D4745128A4FF3F04AAA5A64736F PUSH13 0x634300081D0033000000000000 "
				},
				"gasEstimates": {
					"creation": {
						"codeDepositCost": "394000",
						"executionCost": "infinite",
						"totalCost": "infinite"
					},
					"external": {
						"collateral(address)": "2846",
						"debt(address)": "2824",
						"executeOperation(uint256,bytes)": "infinite",
						"liquidateWithFlash(address,uint256)": "infinite",
						"loanProvider()": "2507"
					}
				},
				"methodIdentifiers": {
					"collateral(address)": "a5fdc5de",
					"debt(address)": "9b6c56ec",
					"executeOperation(uint256,bytes)": "829c3c81",
					"liquidateWithFlash(address,uint256)": "c13fac50",
					"loanProvider()": "93ff268d"
				}
			},
			"storageLayout": {
				"storage": [
					{
						"astId": 12,
						"contract": "L/Flash Loan Liquidation.sol:FlashLoanLiquidator",
						"label": "loanProvider",
						"offset": 0,
						"slot": "0",
						"type": "t_address"
					},
					{
						"astId": 16,
						"contract": "L/Flash Loan Liquidation.sol:FlashLoanLiquidator",
						"label": "debt",
						"offset": 0,
						"slot": "1",
						"type": "t_mapping(t_address,t_uint256)"
					},
					{
						"astId": 20,
						"contract": "L/Flash Loan Liquidation.sol:FlashLoanLiquidator",
						"label": "collateral",
						"offset": 0,
						"slot": "2",
						"type": "t_mapping(t_address,t_uint256)"
					}
				],
				"types": {
					"t_address": {
						"encoding": "inplace",
						"label": "address",
						"numberOfBytes": "20"
					},
					"t_mapping(t_address,t_uint256)": {
						"encoding": "mapping",
						"key": "t_address",
						"label": "mapping(address => uint256)",
						"numberOfBytes": "32",
						"value": "t_uint256"
					},
					"t_uint256": {
						"encoding": "inplace",
						"label": "uint256",
						"numberOfBytes": "32"
					}
				}
			},
			"userdoc": {
				"kind": "user",
				"methods": {},
				"version": 1
			}
		}
	}
}