{
	"L/Dutch Auction Liquidation.sol": {
		"DutchAuctionLiquidation": {
			"abi": [
				{
					"inputs": [],
					"name": "auctionDuration",
					"outputs": [
						{
							"internalType": "uint256",
							"name": "",
							"type": "uint256"
						}
					],
					"stateMutability": "view",
					"type": "function"
				},
				{
					"inputs": [],
					"name": "bid",
					"outputs": [],
					"stateMutability": "payable",
					"type": "function"
				},
				{
					"inputs": [],
					"name": "currentAuction",
					"outputs": [
						{
							"internalType": "uint256",
							"name": "startPrice",
							"type": "uint256"
						},
						{
							"internalType": "uint256",
							"name": "startTime",
							"type": "uint256"
						},
						{
							"internalType": "uint256",
							"name": "debt",
							"type": "uint256"
						},
						{
							"internalType": "address",
							"name": "borrower",
							"type": "address"
						}
					],
					"stateMutability": "view",
					"type": "function"
				},
				{
					"inputs": [
						{
							"internalType": "address",
							"name": "borrower",
							"type": "address"
						},
						{
							"internalType": "uint256",
							"name": "debt",
							"type": "uint256"
						},
						{
							"internalType": "uint256",
							"name": "collateralValue",
							"type": "uint256"
						}
					],
					"name": "startAuction",
					"outputs": [],
					"stateMutability": "nonpayable",
					"type": "function"
				}
			],
			"devdoc": {
				"kind": "dev",
				"methods": {},
				"version": 1
			},
			"evm": {
				"assembly": "    /* \"L/Dutch Auction Liquidation.sol\":0:944  contract DutchAuctionLiquidation {... */\n  mstore(0x40, 0x80)\n    /* \"L/Dutch Auction Liquidation.sol\":238:245  1 hours */\n  0x0e10\n    /* \"L/Dutch Auction Liquidation.sol\":205:245  uint256 public auctionDuration = 1 hours */\n  0x04\n  sstore\n    /* \"L/Dutch Auction Liquidation.sol\":0:944  contract DutchAuctionLiquidation {... */\n  callvalue\n  dup1\n  iszero\n  tag_1\n  jumpi\n  revert(0x00, 0x00)\ntag_1:\n  pop\n  dataSize(sub_0)\n  dup1\n  dataOffset(sub_0)\n  0x00\n  codecopy\n  0x00\n  return\nstop\n\nsub_0: assembly {\n        /* \"L/Dutch Auction Liquidation.sol\":0:944  contract DutchAuctionLiquidation {... */\n      mstore(0x40, 0x80)\n      jumpi(tag_1, lt(calldatasize, 0x04))\n      shr(0xe0, calldataload(0x00))\n      dup1\n      0x0cbf54c8\n      eq\n      tag_2\n      jumpi\n      dup1\n      0x1998aeef\n      eq\n      tag_3\n      jumpi\n      dup1\n      0x496a698d\n      eq\n      tag_4\n      jumpi\n      dup1\n      0x56dd4755\n      eq\n      tag_5\n      jumpi\n    tag_1:\n      revert(0x00, 0x00)\n        /* \"L/Dutch Auction Liquidation.sol\":205:245  uint256 public auctionDuration = 1 hours */\n    tag_2:\n      callvalue\n      dup1\n      iszero\n      tag_6\n      jumpi\n      revert(0x00, 0x00)\n    tag_6:\n      pop\n      tag_7\n      tag_8\n      jump\t// in\n    tag_7:\n      mload(0x40)\n      tag_9\n      swap2\n      swap1\n      tag_10\n      jump\t// in\n    tag_9:\n      mload(0x40)\n      dup1\n      swap2\n      sub\n      swap1\n      return\n        /* \"L/Dutch Auction Liquidation.sol\":503:942  function bid() external payable {... */\n    tag_3:\n      tag_11\n      tag_12\n      jump\t// in\n    tag_11:\n      stop\n        /* \"L/Dutch Auction Liquidation.sol\":170:199  Auction public currentAuction */\n    tag_4:\n      callvalue\n      dup1\n      iszero\n      tag_13\n      jumpi\n      revert(0x00, 0x00)\n    tag_13:\n      pop\n      tag_14\n      tag_15\n      jump\t// in\n    tag_14:\n      mload(0x40)\n      tag_16\n      swap5\n      swap4\n      swap3\n      swap2\n      swap1\n      tag_17\n      jump\t// in\n    tag_16:\n      mload(0x40)\n      dup1\n      swap2\n      sub\n      swap1\n      return\n        /* \"L/Dutch Auction Liquidation.sol\":252:497  function startAuction(address borrower, uint256 debt, uint256 collateralValue) external {... */\n    tag_5:\n      callvalue\n      dup1\n      iszero\n      tag_18\n      jumpi\n      revert(0x00, 0x00)\n    tag_18:\n      pop\n      tag_19\n      0x04\n      dup1\n      calldatasize\n      sub\n      dup2\n      add\n      swap1\n      tag_20\n      swap2\n      swap1\n      tag_21\n      jump\t// in\n    tag_20:\n      tag_22\n      jump\t// in\n    tag_19:\n      stop\n        /* \"L/Dutch Auction Liquidation.sol\":205:245  uint256 public auctionDuration = 1 hours */\n    tag_8:\n      sload(0x04)\n      dup2\n      jump\t// out\n        /* \"L/Dutch Auction Liquidation.sol\":503:942  function bid() external payable {... */\n    tag_12:\n        /* \"L/Dutch Auction Liquidation.sol\":599:614  auctionDuration */\n      sload(0x04)\n        /* \"L/Dutch Auction Liquidation.sol\":572:586  currentAuction */\n      0x00\n        /* \"L/Dutch Auction Liquidation.sol\":572:596  currentAuction.startTime */\n      0x01\n      add\n      sload\n        /* \"L/Dutch Auction Liquidation.sol\":572:614  currentAuction.startTime + auctionDuration */\n      tag_24\n      swap2\n      swap1\n      tag_25\n      jump\t// in\n    tag_24:\n        /* \"L/Dutch Auction Liquidation.sol\":553:568  block.timestamp */\n      timestamp\n        /* \"L/Dutch Auction Liquidation.sol\":553:614  block.timestamp <= currentAuction.startTime + auctionDuration */\n      gt\n      iszero\n        /* \"L/Dutch Auction Liquidation.sol\":545:626  require(block.timestamp <= currentAuction.startTime + auctionDuration, \"Expired\") */\n      tag_26\n      jumpi\n      mload(0x40)\n      0x08c379a000000000000000000000000000000000000000000000000000000000\n      dup2\n      mstore\n      0x04\n      add\n      tag_27\n      swap1\n      tag_28\n      jump\t// in\n    tag_27:\n      mload(0x40)\n      dup1\n      swap2\n      sub\n      swap1\n      revert\n    tag_26:\n        /* \"L/Dutch Auction Liquidation.sol\":637:652  uint256 elapsed */\n      0x00\n        /* \"L/Dutch Auction Liquidation.sol\":673:687  currentAuction */\n      0x00\n        /* \"L/Dutch Auction Liquidation.sol\":673:697  currentAuction.startTime */\n      0x01\n      add\n      sload\n        /* \"L/Dutch Auction Liquidation.sol\":655:670  block.timestamp */\n      timestamp\n        /* \"L/Dutch Auction Liquidation.sol\":655:697  block.timestamp - currentAuction.startTime */\n      tag_29\n      swap2\n      swap1\n      tag_30\n      jump\t// in\n    tag_29:\n        /* \"L/Dutch Auction Liquidation.sol\":637:697  uint256 elapsed = block.timestamp - currentAuction.startTime */\n      swap1\n      pop\n        /* \"L/Dutch Auction Liquidation.sol\":707:720  uint256 price */\n      0x00\n        /* \"L/Dutch Auction Liquidation.sol\":790:805  auctionDuration */\n      sload(0x04)\n        /* \"L/Dutch Auction Liquidation.sol\":780:787  elapsed */\n      dup3\n        /* \"L/Dutch Auction Liquidation.sol\":752:766  currentAuction */\n      0x00\n        /* \"L/Dutch Auction Liquidation.sol\":752:777  currentAuction.startPrice */\n      0x00\n      add\n      sload\n        /* \"L/Dutch Auction Liquidation.sol\":752:787  currentAuction.startPrice * elapsed */\n      tag_31\n      swap2\n      swap1\n      tag_32\n      jump\t// in\n    tag_31:\n        /* \"L/Dutch Auction Liquidation.sol\":752:805  currentAuction.startPrice * elapsed / auctionDuration */\n      tag_33\n      swap2\n      swap1\n      tag_34\n      jump\t// in\n    tag_33:\n        /* \"L/Dutch Auction Liquidation.sol\":723:737  currentAuction */\n      0x00\n        /* \"L/Dutch Auction Liquidation.sol\":723:748  currentAuction.startPrice */\n      0x00\n      add\n      sload\n        /* \"L/Dutch Auction Liquidation.sol\":723:806  currentAuction.startPrice - (currentAuction.startPrice * elapsed / auctionDuration) */\n      tag_35\n      swap2\n      swap1\n      tag_30\n      jump\t// in\n    tag_35:\n        /* \"L/Dutch Auction Liquidation.sol\":707:806  uint256 price = currentAuction.startPrice - (currentAuction.startPrice * elapsed / auctionDuration) */\n      swap1\n      pop\n        /* \"L/Dutch Auction Liquidation.sol\":837:842  price */\n      dup1\n        /* \"L/Dutch Auction Liquidation.sol\":824:833  msg.value */\n      callvalue\n        /* \"L/Dutch Auction Liquidation.sol\":824:842  msg.value >= price */\n      lt\n      iszero\n        /* \"L/Dutch Auction Liquidation.sol\":816:858  require(msg.value >= price, \"Bid too low\") */\n      tag_36\n      jumpi\n      mload(0x40)\n      0x08c379a000000000000000000000000000000000000000000000000000000000\n      dup2\n      mstore\n      0x04\n      add\n      tag_37\n      swap1\n      tag_38\n      jump\t// in\n    tag_37:\n      mload(0x40)\n      dup1\n      swap2\n      sub\n      swap1\n      revert\n    tag_36:\n        /* \"L/Dutch Auction Liquidation.sol\":876:890  currentAuction */\n      0x00\n      0x00\n        /* \"L/Dutch Auction Liquidation.sol\":869:890  delete currentAuction */\n      0x00\n      dup3\n      add\n      0x00\n      swap1\n      sstore\n      0x01\n      dup3\n      add\n      0x00\n      swap1\n      sstore\n      0x02\n      dup3\n      add\n      0x00\n      swap1\n      sstore\n      0x03\n      dup3\n      add\n      exp(0x0100, 0x00)\n      dup2\n      sload\n      swap1\n      0xffffffffffffffffffffffffffffffffffffffff\n      mul\n      not\n      and\n      swap1\n      sstore\n      pop\n      pop\n        /* \"L/Dutch Auction Liquidation.sol\":535:942  {... */\n      pop\n      pop\n        /* \"L/Dutch Auction Liquidation.sol\":503:942  function bid() external payable {... */\n      jump\t// out\n        /* \"L/Dutch Auction Liquidation.sol\":170:199  Auction public currentAuction */\n    tag_15:\n      0x00\n      dup1\n      0x00\n      add\n      sload\n      swap1\n      dup1\n      0x01\n      add\n      sload\n      swap1\n      dup1\n      0x02\n      add\n      sload\n      swap1\n      dup1\n      0x03\n      add\n      0x00\n      swap1\n      sload\n      swap1\n      0x0100\n      exp\n      swap1\n      div\n      0xffffffffffffffffffffffffffffffffffffffff\n      and\n      swap1\n      pop\n      dup5\n      jump\t// out\n        /* \"L/Dutch Auction Liquidation.sol\":252:497  function startAuction(address borrower, uint256 debt, uint256 collateralValue) external {... */\n    tag_22:\n        /* \"L/Dutch Auction Liquidation.sol\":386:387  0 */\n      0x00\n        /* \"L/Dutch Auction Liquidation.sol\":358:372  currentAuction */\n      0x00\n        /* \"L/Dutch Auction Liquidation.sol\":358:382  currentAuction.startTime */\n      0x01\n      add\n      sload\n        /* \"L/Dutch Auction Liquidation.sol\":358:387  currentAuction.startTime == 0 */\n      eq\n        /* \"L/Dutch Auction Liquidation.sol\":350:406  require(currentAuction.startTime == 0, \"Auction active\") */\n      tag_40\n      jumpi\n      mload(0x40)\n      0x08c379a000000000000000000000000000000000000000000000000000000000\n      dup2\n      mstore\n      0x04\n      add\n      tag_41\n      swap1\n      tag_42\n      jump\t// in\n    tag_41:\n      mload(0x40)\n      dup1\n      swap2\n      sub\n      swap1\n      revert\n    tag_40:\n        /* \"L/Dutch Auction Liquidation.sol\":433:490  Auction(collateralValue, block.timestamp, debt, borrower) */\n      mload(0x40)\n      dup1\n      0x80\n      add\n      0x40\n      mstore\n      dup1\n        /* \"L/Dutch Auction Liquidation.sol\":441:456  collateralValue */\n      dup3\n        /* \"L/Dutch Auction Liquidation.sol\":433:490  Auction(collateralValue, block.timestamp, debt, borrower) */\n      dup2\n      mstore\n      0x20\n      add\n        /* \"L/Dutch Auction Liquidation.sol\":458:473  block.timestamp */\n      timestamp\n        /* \"L/Dutch Auction Liquidation.sol\":433:490  Auction(collateralValue, block.timestamp, debt, borrower) */\n      dup2\n      mstore\n      0x20\n      add\n        /* \"L/Dutch Auction Liquidation.sol\":475:479  debt */\n      dup4\n        /* \"L/Dutch Auction Liquidation.sol\":433:490  Auction(collateralValue, block.timestamp, debt, borrower) */\n      dup2\n      mstore\n      0x20\n      add\n        /* \"L/Dutch Auction Liquidation.sol\":481:489  borrower */\n      dup5\n        /* \"L/Dutch Auction Liquidation.sol\":433:490  Auction(collateralValue, block.timestamp, debt, borrower) */\n      0xffffffffffffffffffffffffffffffffffffffff\n      and\n      dup2\n      mstore\n      pop\n        /* \"L/Dutch Auction Liquidation.sol\":416:430  currentAuction */\n      0x00\n        /* \"L/Dutch Auction Liquidation.sol\":416:490  currentAuction = Auction(collateralValue, block.timestamp, debt, borrower) */\n      0x00\n      dup3\n      add\n      mload\n      dup2\n      0x00\n      add\n      sstore\n      0x20\n      dup3\n      add\n      mload\n      dup2\n      0x01\n      add\n      sstore\n      0x40\n      dup3\n      add\n      mload\n      dup2\n      0x02\n      add\n      sstore\n      0x60\n      dup3\n      add\n      mload\n      dup2\n      0x03\n      add\n      exp(0x0100, 0x00)\n      dup2\n      sload\n      dup2\n      0xffffffffffffffffffffffffffffffffffffffff\n      mul\n      not\n      and\n      swap1\n      dup4\n      0xffffffffffffffffffffffffffffffffffffffff\n      and\n      mul\n      or\n      swap1\n      sstore\n      pop\n      swap1\n      pop\n      pop\n        /* \"L/Dutch Auction Liquidation.sol\":252:497  function startAuction(address borrower, uint256 debt, uint256 collateralValue) external {... */\n      pop\n      pop\n      pop\n      jump\t// out\n        /* \"#utility.yul\":7:84   */\n    tag_43:\n        /* \"#utility.yul\":44:51   */\n      0x00\n        /* \"#utility.yul\":73:78   */\n      dup2\n        /* \"#utility.yul\":62:78   */\n      swap1\n      pop\n        /* \"#utility.yul\":7:84   */\n      swap2\n      swap1\n      pop\n      jump\t// out\n        /* \"#utility.yul\":90:208   */\n    tag_44:\n        /* \"#utility.yul\":177:201   */\n      tag_67\n        /* \"#utility.yul\":195:200   */\n      dup2\n        /* \"#utility.yul\":177:201   */\n      tag_43\n      jump\t// in\n    tag_67:\n        /* \"#utility.yul\":172:175   */\n      dup3\n        /* \"#utility.yul\":165:202   */\n      mstore\n        /* \"#utility.yul\":90:208   */\n      pop\n      pop\n      jump\t// out\n        /* \"#utility.yul\":214:436   */\n    tag_10:\n        /* \"#utility.yul\":307:311   */\n      0x00\n        /* \"#utility.yul\":345:347   */\n      0x20\n        /* \"#utility.yul\":334:343   */\n      dup3\n        /* \"#utility.yul\":330:348   */\n      add\n        /* \"#utility.yul\":322:348   */\n      swap1\n      pop\n        /* \"#utility.yul\":358:429   */\n      tag_69\n        /* \"#utility.yul\":426:427   */\n      0x00\n        /* \"#utility.yul\":415:424   */\n      dup4\n        /* \"#utility.yul\":411:428   */\n      add\n        /* \"#utility.yul\":402:408   */\n      dup5\n        /* \"#utility.yul\":358:429   */\n      tag_44\n      jump\t// in\n    tag_69:\n        /* \"#utility.yul\":214:436   */\n      swap3\n      swap2\n      pop\n      pop\n      jump\t// out\n        /* \"#utility.yul\":442:568   */\n    tag_45:\n        /* \"#utility.yul\":479:486   */\n      0x00\n        /* \"#utility.yul\":519:561   */\n      0xffffffffffffffffffffffffffffffffffffffff\n        /* \"#utility.yul\":512:517   */\n      dup3\n        /* \"#utility.yul\":508:562   */\n      and\n        /* \"#utility.yul\":497:562   */\n      swap1\n      pop\n        /* \"#utility.yul\":442:568   */\n      swap2\n      swap1\n      pop\n      jump\t// out\n        /* \"#utility.yul\":574:670   */\n    tag_46:\n        /* \"#utility.yul\":611:618   */\n      0x00\n        /* \"#utility.yul\":640:664   */\n      tag_72\n        /* \"#utility.yul\":658:663   */\n      dup3\n        /* \"#utility.yul\":640:664   */\n      tag_45\n      jump\t// in\n    tag_72:\n        /* \"#utility.yul\":629:664   */\n      swap1\n      pop\n        /* \"#utility.yul\":574:670   */\n      swap2\n      swap1\n      pop\n      jump\t// out\n        /* \"#utility.yul\":676:794   */\n    tag_47:\n        /* \"#utility.yul\":763:787   */\n      tag_74\n        /* \"#utility.yul\":781:786   */\n      dup2\n        /* \"#utility.yul\":763:787   */\n      tag_46\n      jump\t// in\n    tag_74:\n        /* \"#utility.yul\":758:761   */\n      dup3\n        /* \"#utility.yul\":751:788   */\n      mstore\n        /* \"#utility.yul\":676:794   */\n      pop\n      pop\n      jump\t// out\n        /* \"#utility.yul\":800:1353   */\n    tag_17:\n        /* \"#utility.yul\":977:981   */\n      0x00\n        /* \"#utility.yul\":1015:1018   */\n      0x80\n        /* \"#utility.yul\":1004:1013   */\n      dup3\n        /* \"#utility.yul\":1000:1019   */\n      add\n        /* \"#utility.yul\":992:1019   */\n      swap1\n      pop\n        /* \"#utility.yul\":1029:1100   */\n      tag_76\n        /* \"#utility.yul\":1097:1098   */\n      0x00\n        /* \"#utility.yul\":1086:1095   */\n      dup4\n        /* \"#utility.yul\":1082:1099   */\n      add\n        /* \"#utility.yul\":1073:1079   */\n      dup8\n        /* \"#utility.yul\":1029:1100   */\n      tag_44\n      jump\t// in\n    tag_76:\n        /* \"#utility.yul\":1110:1182   */\n      tag_77\n        /* \"#utility.yul\":1178:1180   */\n      0x20\n        /* \"#utility.yul\":1167:1176   */\n      dup4\n        /* \"#utility.yul\":1163:1181   */\n      add\n        /* \"#utility.yul\":1154:1160   */\n      dup7\n        /* \"#utility.yul\":1110:1182   */\n      tag_44\n      jump\t// in\n    tag_77:\n        /* \"#utility.yul\":1192:1264   */\n      tag_78\n        /* \"#utility.yul\":1260:1262   */\n      0x40\n        /* \"#utility.yul\":1249:1258   */\n      dup4\n        /* \"#utility.yul\":1245:1263   */\n      add\n        /* \"#utility.yul\":1236:1242   */\n      dup6\n        /* \"#utility.yul\":1192:1264   */\n      tag_44\n      jump\t// in\n    tag_78:\n        /* \"#utility.yul\":1274:1346   */\n      tag_79\n        /* \"#utility.yul\":1342:1344   */\n      0x60\n        /* \"#utility.yul\":1331:1340   */\n      dup4\n        /* \"#utility.yul\":1327:1345   */\n      add\n        /* \"#utility.yul\":1318:1324   */\n      dup5\n        /* \"#utility.yul\":1274:1346   */\n      tag_47\n      jump\t// in\n    tag_79:\n        /* \"#utility.yul\":800:1353   */\n      swap6\n      swap5\n      pop\n      pop\n      pop\n      pop\n      pop\n      jump\t// out\n        /* \"#utility.yul\":1440:1557   */\n    tag_49:\n        /* \"#utility.yul\":1549:1550   */\n      0x00\n        /* \"#utility.yul\":1546:1547   */\n      0x00\n        /* \"#utility.yul\":1539:1551   */\n      revert\n        /* \"#utility.yul\":1686:1808   */\n    tag_51:\n        /* \"#utility.yul\":1759:1783   */\n      tag_84\n        /* \"#utility.yul\":1777:1782   */\n      dup2\n        /* \"#utility.yul\":1759:1783   */\n      tag_46\n      jump\t// in\n    tag_84:\n        /* \"#utility.yul\":1752:1757   */\n      dup2\n        /* \"#utility.yul\":1749:1784   */\n      eq\n        /* \"#utility.yul\":1739:1802   */\n      tag_85\n      jumpi\n        /* \"#utility.yul\":1798:1799   */\n      0x00\n        /* \"#utility.yul\":1795:1796   */\n      0x00\n        /* \"#utility.yul\":1788:1800   */\n      revert\n        /* \"#utility.yul\":1739:1802   */\n    tag_85:\n        /* \"#utility.yul\":1686:1808   */\n      pop\n      jump\t// out\n        /* \"#utility.yul\":1814:1953   */\n    tag_52:\n        /* \"#utility.yul\":1860:1865   */\n      0x00\n        /* \"#utility.yul\":1898:1904   */\n      dup2\n        /* \"#utility.yul\":1885:1905   */\n      calldataload\n        /* \"#utility.yul\":1876:1905   */\n      swap1\n      pop\n        /* \"#utility.yul\":1914:1947   */\n      tag_87\n        /* \"#utility.yul\":1941:1946   */\n      dup2\n        /* \"#utility.yul\":1914:1947   */\n      tag_51\n      jump\t// in\n    tag_87:\n        /* \"#utility.yul\":1814:1953   */\n      swap3\n      swap2\n      pop\n      pop\n      jump\t// out\n        /* \"#utility.yul\":1959:2081   */\n    tag_53:\n        /* \"#utility.yul\":2032:2056   */\n      tag_89\n        /* \"#utility.yul\":2050:2055   */\n      dup2\n        /* \"#utility.yul\":2032:2056   */\n      tag_43\n      jump\t// in\n    tag_89:\n        /* \"#utility.yul\":2025:2030   */\n      dup2\n        /* \"#utility.yul\":2022:2057   */\n      eq\n        /* \"#utility.yul\":2012:2075   */\n      tag_90\n      jumpi\n        /* \"#utility.yul\":2071:2072   */\n      0x00\n        /* \"#utility.yul\":2068:2069   */\n      0x00\n        /* \"#utility.yul\":2061:2073   */\n      revert\n        /* \"#utility.yul\":2012:2075   */\n    tag_90:\n        /* \"#utility.yul\":1959:2081   */\n      pop\n      jump\t// out\n        /* \"#utility.yul\":2087:2226   */\n    tag_54:\n        /* \"#utility.yul\":2133:2138   */\n      0x00\n        /* \"#utility.yul\":2171:2177   */\n      dup2\n        /* \"#utility.yul\":2158:2178   */\n      calldataload\n        /* \"#utility.yul\":2149:2178   */\n      swap1\n      pop\n        /* \"#utility.yul\":2187:2220   */\n      tag_92\n        /* \"#utility.yul\":2214:2219   */\n      dup2\n        /* \"#utility.yul\":2187:2220   */\n      tag_53\n      jump\t// in\n    tag_92:\n        /* \"#utility.yul\":2087:2226   */\n      swap3\n      swap2\n      pop\n      pop\n      jump\t// out\n        /* \"#utility.yul\":2232:2851   */\n    tag_21:\n        /* \"#utility.yul\":2309:2315   */\n      0x00\n        /* \"#utility.yul\":2317:2323   */\n      0x00\n        /* \"#utility.yul\":2325:2331   */\n      0x00\n        /* \"#utility.yul\":2374:2376   */\n      0x60\n        /* \"#utility.yul\":2362:2371   */\n      dup5\n        /* \"#utility.yul\":2353:2360   */\n      dup7\n        /* \"#utility.yul\":2349:2372   */\n      sub\n        /* \"#utility.yul\":2345:2377   */\n      slt\n        /* \"#utility.yul\":2342:2461   */\n      iszero\n      tag_94\n      jumpi\n        /* \"#utility.yul\":2380:2459   */\n      tag_95\n      tag_49\n      jump\t// in\n    tag_95:\n        /* \"#utility.yul\":2342:2461   */\n    tag_94:\n        /* \"#utility.yul\":2500:2501   */\n      0x00\n        /* \"#utility.yul\":2525:2578   */\n      tag_96\n        /* \"#utility.yul\":2570:2577   */\n      dup7\n        /* \"#utility.yul\":2561:2567   */\n      dup3\n        /* \"#utility.yul\":2550:2559   */\n      dup8\n        /* \"#utility.yul\":2546:2568   */\n      add\n        /* \"#utility.yul\":2525:2578   */\n      tag_52\n      jump\t// in\n    tag_96:\n        /* \"#utility.yul\":2515:2578   */\n      swap4\n      pop\n        /* \"#utility.yul\":2471:2588   */\n      pop\n        /* \"#utility.yul\":2627:2629   */\n      0x20\n        /* \"#utility.yul\":2653:2706   */\n      tag_97\n        /* \"#utility.yul\":2698:2705   */\n      dup7\n        /* \"#utility.yul\":2689:2695   */\n      dup3\n        /* \"#utility.yul\":2678:2687   */\n      dup8\n        /* \"#utility.yul\":2674:2696   */\n      add\n        /* \"#utility.yul\":2653:2706   */\n      tag_54\n      jump\t// in\n    tag_97:\n        /* \"#utility.yul\":2643:2706   */\n      swap3\n      pop\n        /* \"#utility.yul\":2598:2716   */\n      pop\n        /* \"#utility.yul\":2755:2757   */\n      0x40\n        /* \"#utility.yul\":2781:2834   */\n      tag_98\n        /* \"#utility.yul\":2826:2833   */\n      dup7\n        /* \"#utility.yul\":2817:2823   */\n      dup3\n        /* \"#utility.yul\":2806:2815   */\n      dup8\n        /* \"#utility.yul\":2802:2824   */\n      add\n        /* \"#utility.yul\":2781:2834   */\n      tag_54\n      jump\t// in\n    tag_98:\n        /* \"#utility.yul\":2771:2834   */\n      swap2\n      pop\n        /* \"#utility.yul\":2726:2844   */\n      pop\n        /* \"#utility.yul\":2232:2851   */\n      swap3\n      pop\n      swap3\n      pop\n      swap3\n      jump\t// out\n        /* \"#utility.yul\":2857:3037   */\n    tag_55:\n        /* \"#utility.yul\":2905:2982   */\n      0x4e487b7100000000000000000000000000000000000000000000000000000000\n        /* \"#utility.yul\":2902:2903   */\n      0x00\n        /* \"#utility.yul\":2895:2983   */\n      mstore\n        /* \"#utility.yul\":3002:3006   */\n      0x11\n        /* \"#utility.yul\":2999:3000   */\n      0x04\n        /* \"#utility.yul\":2992:3007   */\n      mstore\n        /* \"#utility.yul\":3026:3030   */\n      0x24\n        /* \"#utility.yul\":3023:3024   */\n      0x00\n        /* \"#utility.yul\":3016:3031   */\n      revert\n        /* \"#utility.yul\":3043:3234   */\n    tag_25:\n        /* \"#utility.yul\":3083:3086   */\n      0x00\n        /* \"#utility.yul\":3102:3122   */\n      tag_101\n        /* \"#utility.yul\":3120:3121   */\n      dup3\n        /* \"#utility.yul\":3102:3122   */\n      tag_43\n      jump\t// in\n    tag_101:\n        /* \"#utility.yul\":3097:3122   */\n      swap2\n      pop\n        /* \"#utility.yul\":3136:3156   */\n      tag_102\n        /* \"#utility.yul\":3154:3155   */\n      dup4\n        /* \"#utility.yul\":3136:3156   */\n      tag_43\n      jump\t// in\n    tag_102:\n        /* \"#utility.yul\":3131:3156   */\n      swap3\n      pop\n        /* \"#utility.yul\":3179:3180   */\n      dup3\n        /* \"#utility.yul\":3176:3177   */\n      dup3\n        /* \"#utility.yul\":3172:3181   */\n      add\n        /* \"#utility.yul\":3165:3181   */\n      swap1\n      pop\n        /* \"#utility.yul\":3200:3203   */\n      dup1\n        /* \"#utility.yul\":3197:3198   */\n      dup3\n        /* \"#utility.yul\":3194:3204   */\n      gt\n        /* \"#utility.yul\":3191:3227   */\n      iszero\n      tag_103\n      jumpi\n        /* \"#utility.yul\":3207:3225   */\n      tag_104\n      tag_55\n      jump\t// in\n    tag_104:\n        /* \"#utility.yul\":3191:3227   */\n    tag_103:\n        /* \"#utility.yul\":3043:3234   */\n      swap3\n      swap2\n      pop\n      pop\n      jump\t// out\n        /* \"#utility.yul\":3240:3409   */\n    tag_56:\n        /* \"#utility.yul\":3324:3335   */\n      0x00\n        /* \"#utility.yul\":3358:3364   */\n      dup3\n        /* \"#utility.yul\":3353:3356   */\n      dup3\n        /* \"#utility.yul\":3346:3365   */\n      mstore\n        /* \"#utility.yul\":3398:3402   */\n      0x20\n        /* \"#utility.yul\":3393:3396   */\n      dup3\n        /* \"#utility.yul\":3389:3403   */\n      add\n        /* \"#utility.yul\":3374:3403   */\n      swap1\n      pop\n        /* \"#utility.yul\":3240:3409   */\n      swap3\n      swap2\n      pop\n      pop\n      jump\t// out\n        /* \"#utility.yul\":3415:3572   */\n    tag_57:\n        /* \"#utility.yul\":3555:3564   */\n      0x4578706972656400000000000000000000000000000000000000000000000000\n        /* \"#utility.yul\":3551:3552   */\n      0x00\n        /* \"#utility.yul\":3543:3549   */\n      dup3\n        /* \"#utility.yul\":3539:3553   */\n      add\n        /* \"#utility.yul\":3532:3565   */\n      mstore\n        /* \"#utility.yul\":3415:3572   */\n      pop\n      jump\t// out\n        /* \"#utility.yul\":3578:3943   */\n    tag_58:\n        /* \"#utility.yul\":3720:3723   */\n      0x00\n        /* \"#utility.yul\":3741:3807   */\n      tag_108\n        /* \"#utility.yul\":3805:3806   */\n      0x07\n        /* \"#utility.yul\":3800:3803   */\n      dup4\n        /* \"#utility.yul\":3741:3807   */\n      tag_56\n      jump\t// in\n    tag_108:\n        /* \"#utility.yul\":3734:3807   */\n      swap2\n      pop\n        /* \"#utility.yul\":3816:3909   */\n      tag_109\n        /* \"#utility.yul\":3905:3908   */\n      dup3\n        /* \"#utility.yul\":3816:3909   */\n      tag_57\n      jump\t// in\n    tag_109:\n        /* \"#utility.yul\":3934:3936   */\n      0x20\n        /* \"#utility.yul\":3929:3932   */\n      dup3\n        /* \"#utility.yul\":3925:3937   */\n      add\n        /* \"#utility.yul\":3918:3937   */\n      swap1\n      pop\n        /* \"#utility.yul\":3578:3943   */\n      swap2\n      swap1\n      pop\n      jump\t// out\n        /* \"#utility.yul\":3949:4368   */\n    tag_28:\n        /* \"#utility.yul\":4115:4119   */\n      0x00\n        /* \"#utility.yul\":4153:4155   */\n      0x20\n        /* \"#utility.yul\":4142:4151   */\n      dup3\n        /* \"#utility.yul\":4138:4156   */\n      add\n        /* \"#utility.yul\":4130:4156   */\n      swap1\n      pop\n        /* \"#utility.yul\":4202:4211   */\n      dup2\n        /* \"#utility.yul\":4196:4200   */\n      dup2\n        /* \"#utility.yul\":4192:4212   */\n      sub\n        /* \"#utility.yul\":4188:4189   */\n      0x00\n        /* \"#utility.yul\":4177:4186   */\n      dup4\n        /* \"#utility.yul\":4173:4190   */\n      add\n        /* \"#utility.yul\":4166:4213   */\n      mstore\n        /* \"#utility.yul\":4230:4361   */\n      tag_111\n        /* \"#utility.yul\":4356:4360   */\n      dup2\n        /* \"#utility.yul\":4230:4361   */\n      tag_58\n      jump\t// in\n    tag_111:\n        /* \"#utility.yul\":4222:4361   */\n      swap1\n      pop\n        /* \"#utility.yul\":3949:4368   */\n      swap2\n      swap1\n      pop\n      jump\t// out\n        /* \"#utility.yul\":4374:4568   */\n    tag_30:\n        /* \"#utility.yul\":4414:4418   */\n      0x00\n        /* \"#utility.yul\":4434:4454   */\n      tag_113\n        /* \"#utility.yul\":4452:4453   */\n      dup3\n        /* \"#utility.yul\":4434:4454   */\n      tag_43\n      jump\t// in\n    tag_113:\n        /* \"#utility.yul\":4429:4454   */\n      swap2\n      pop\n        /* \"#utility.yul\":4468:4488   */\n      tag_114\n        /* \"#utility.yul\":4486:4487   */\n      dup4\n        /* \"#utility.yul\":4468:4488   */\n      tag_43\n      jump\t// in\n    tag_114:\n        /* \"#utility.yul\":4463:4488   */\n      swap3\n      pop\n        /* \"#utility.yul\":4512:4513   */\n      dup3\n        /* \"#utility.yul\":4509:4510   */\n      dup3\n        /* \"#utility.yul\":4505:4514   */\n      sub\n        /* \"#utility.yul\":4497:4514   */\n      swap1\n      pop\n        /* \"#utility.yul\":4536:4537   */\n      dup2\n        /* \"#utility.yul\":4530:4534   */\n      dup2\n        /* \"#utility.yul\":4527:4538   */\n      gt\n        /* \"#utility.yul\":4524:4561   */\n      iszero\n      tag_115\n      jumpi\n        /* \"#utility.yul\":4541:4559   */\n      tag_116\n      tag_55\n      jump\t// in\n    tag_116:\n        /* \"#utility.yul\":4524:4561   */\n    tag_115:\n        /* \"#utility.yul\":4374:4568   */\n      swap3\n      swap2\n      pop\n      pop\n      jump\t// out\n        /* \"#utility.yul\":4574:4984   */\n    tag_32:\n        /* \"#utility.yul\":4614:4621   */\n      0x00\n        /* \"#utility.yul\":4637:4657   */\n      tag_118\n        /* \"#utility.yul\":4655:4656   */\n      dup3\n        /* \"#utility.yul\":4637:4657   */\n      tag_43\n      jump\t// in\n    tag_118:\n        /* \"#utility.yul\":4632:4657   */\n      swap2\n      pop\n        /* \"#utility.yul\":4671:4691   */\n      tag_119\n        /* \"#utility.yul\":4689:4690   */\n      dup4\n        /* \"#utility.yul\":4671:4691   */\n      tag_43\n      jump\t// in\n    tag_119:\n        /* \"#utility.yul\":4666:4691   */\n      swap3\n      pop\n        /* \"#utility.yul\":4726:4727   */\n      dup3\n        /* \"#utility.yul\":4723:4724   */\n      dup3\n        /* \"#utility.yul\":4719:4728   */\n      mul\n        /* \"#utility.yul\":4748:4778   */\n      tag_120\n        /* \"#utility.yul\":4766:4777   */\n      dup2\n        /* \"#utility.yul\":4748:4778   */\n      tag_43\n      jump\t// in\n    tag_120:\n        /* \"#utility.yul\":4737:4778   */\n      swap2\n      pop\n        /* \"#utility.yul\":4927:4928   */\n      dup3\n        /* \"#utility.yul\":4918:4925   */\n      dup3\n        /* \"#utility.yul\":4914:4929   */\n      div\n        /* \"#utility.yul\":4911:4912   */\n      dup5\n        /* \"#utility.yul\":4908:4930   */\n      eq\n        /* \"#utility.yul\":4888:4889   */\n      dup4\n        /* \"#utility.yul\":4881:4890   */\n      iszero\n        /* \"#utility.yul\":4861:4944   */\n      or\n        /* \"#utility.yul\":4838:4977   */\n      tag_121\n      jumpi\n        /* \"#utility.yul\":4957:4975   */\n      tag_122\n      tag_55\n      jump\t// in\n    tag_122:\n        /* \"#utility.yul\":4838:4977   */\n    tag_121:\n        /* \"#utility.yul\":4622:4984   */\n      pop\n        /* \"#utility.yul\":4574:4984   */\n      swap3\n      swap2\n      pop\n      pop\n      jump\t// out\n        /* \"#utility.yul\":4990:5170   */\n    tag_59:\n        /* \"#utility.yul\":5038:5115   */\n      0x4e487b7100000000000000000000000000000000000000000000000000000000\n        /* \"#utility.yul\":5035:5036   */\n      0x00\n        /* \"#utility.yul\":5028:5116   */\n      mstore\n        /* \"#utility.yul\":5135:5139   */\n      0x12\n        /* \"#utility.yul\":5132:5133   */\n      0x04\n        /* \"#utility.yul\":5125:5140   */\n      mstore\n        /* \"#utility.yul\":5159:5163   */\n      0x24\n        /* \"#utility.yul\":5156:5157   */\n      0x00\n        /* \"#utility.yul\":5149:5164   */\n      revert\n        /* \"#utility.yul\":5176:5361   */\n    tag_34:\n        /* \"#utility.yul\":5216:5217   */\n      0x00\n        /* \"#utility.yul\":5233:5253   */\n      tag_125\n        /* \"#utility.yul\":5251:5252   */\n      dup3\n        /* \"#utility.yul\":5233:5253   */\n      tag_43\n      jump\t// in\n    tag_125:\n        /* \"#utility.yul\":5228:5253   */\n      swap2\n      pop\n        /* \"#utility.yul\":5267:5287   */\n      tag_126\n        /* \"#utility.yul\":5285:5286   */\n      dup4\n        /* \"#utility.yul\":5267:5287   */\n      tag_43\n      jump\t// in\n    tag_126:\n        /* \"#utility.yul\":5262:5287   */\n      swap3\n      pop\n        /* \"#utility.yul\":5306:5307   */\n      dup3\n        /* \"#utility.yul\":5296:5331   */\n      tag_127\n      jumpi\n        /* \"#utility.yul\":5311:5329   */\n      tag_128\n      tag_59\n      jump\t// in\n    tag_128:\n        /* \"#utility.yul\":5296:5331   */\n    tag_127:\n        /* \"#utility.yul\":5353:5354   */\n      dup3\n        /* \"#utility.yul\":5350:5351   */\n      dup3\n        /* \"#utility.yul\":5346:5355   */\n      div\n        /* \"#utility.yul\":5341:5355   */\n      swap1\n      pop\n        /* \"#utility.yul\":5176:5361   */\n      swap3\n      swap2\n      pop\n      pop\n      jump\t// out\n        /* \"#utility.yul\":5367:5528   */\n    tag_60:\n        /* \"#utility.yul\":5507:5520   */\n      0x42696420746f6f206c6f77000000000000000000000000000000000000000000\n        /* \"#utility.yul\":5503:5504   */\n      0x00\n        /* \"#utility.yul\":5495:5501   */\n      dup3\n        /* \"#utility.yul\":5491:5505   */\n      add\n        /* \"#utility.yul\":5484:5521   */\n      mstore\n        /* \"#utility.yul\":5367:5528   */\n      pop\n      jump\t// out\n        /* \"#utility.yul\":5534:5900   */\n    tag_61:\n        /* \"#utility.yul\":5676:5679   */\n      0x00\n        /* \"#utility.yul\":5697:5764   */\n      tag_131\n        /* \"#utility.yul\":5761:5763   */\n      0x0b\n        /* \"#utility.yul\":5756:5759   */\n      dup4\n        /* \"#utility.yul\":5697:5764   */\n      tag_56\n      jump\t// in\n    tag_131:\n        /* \"#utility.yul\":5690:5764   */\n      swap2\n      pop\n        /* \"#utility.yul\":5773:5866   */\n      tag_132\n        /* \"#utility.yul\":5862:5865   */\n      dup3\n        /* \"#utility.yul\":5773:5866   */\n      tag_60\n      jump\t// in\n    tag_132:\n        /* \"#utility.yul\":5891:5893   */\n      0x20\n        /* \"#utility.yul\":5886:5889   */\n      dup3\n        /* \"#utility.yul\":5882:5894   */\n      add\n        /* \"#utility.yul\":5875:5894   */\n      swap1\n      pop\n        /* \"#utility.yul\":5534:5900   */\n      swap2\n      swap1\n      pop\n      jump\t// out\n        /* \"#utility.yul\":5906:6325   */\n    tag_38:\n        /* \"#utility.yul\":6072:6076   */\n      0x00\n        /* \"#utility.yul\":6110:6112   */\n      0x20\n        /* \"#utility.yul\":6099:6108   */\n      dup3\n        /* \"#utility.yul\":6095:6113   */\n      add\n        /* \"#utility.yul\":6087:6113   */\n      swap1\n      pop\n        /* \"#utility.yul\":6159:6168   */\n      dup2\n        /* \"#utility.yul\":6153:6157   */\n      dup2\n        /* \"#utility.yul\":6149:6169   */\n      sub\n        /* \"#utility.yul\":6145:6146   */\n      0x00\n        /* \"#utility.yul\":6134:6143   */\n      dup4\n        /* \"#utility.yul\":6130:6147   */\n      add\n        /* \"#utility.yul\":6123:6170   */\n      mstore\n        /* \"#utility.yul\":6187:6318   */\n      tag_134\n        /* \"#utility.yul\":6313:6317   */\n      dup2\n        /* \"#utility.yul\":6187:6318   */\n      tag_61\n      jump\t// in\n    tag_134:\n        /* \"#utility.yul\":6179:6318   */\n      swap1\n      pop\n        /* \"#utility.yul\":5906:6325   */\n      swap2\n      swap1\n      pop\n      jump\t// out\n        /* \"#utility.yul\":6331:6495   */\n    tag_62:\n        /* \"#utility.yul\":6471:6487   */\n      0x41756374696f6e20616374697665000000000000000000000000000000000000\n        /* \"#utility.yul\":6467:6468   */\n      0x00\n        /* \"#utility.yul\":6459:6465   */\n      dup3\n        /* \"#utility.yul\":6455:6469   */\n      add\n        /* \"#utility.yul\":6448:6488   */\n      mstore\n        /* \"#utility.yul\":6331:6495   */\n      pop\n      jump\t// out\n        /* \"#utility.yul\":6501:6867   */\n    tag_63:\n        /* \"#utility.yul\":6643:6646   */\n      0x00\n        /* \"#utility.yul\":6664:6731   */\n      tag_137\n        /* \"#utility.yul\":6728:6730   */\n      0x0e\n        /* \"#utility.yul\":6723:6726   */\n      dup4\n        /* \"#utility.yul\":6664:6731   */\n      tag_56\n      jump\t// in\n    tag_137:\n        /* \"#utility.yul\":6657:6731   */\n      swap2\n      pop\n        /* \"#utility.yul\":6740:6833   */\n      tag_138\n        /* \"#utility.yul\":6829:6832   */\n      dup3\n        /* \"#utility.yul\":6740:6833   */\n      tag_62\n      jump\t// in\n    tag_138:\n        /* \"#utility.yul\":6858:6860   */\n      0x20\n        /* \"#utility.yul\":6853:6856   */\n      dup3\n        /* \"#utility.yul\":6849:6861   */\n      add\n        /* \"#utility.yul\":6842:6861   */\n      swap1\n      pop\n        /* \"#utility.yul\":6501:6867   */\n      swap2\n      swap1\n      pop\n      jump\t// out\n        /* \"#utility.yul\":6873:7292   */\n    tag_42:\n        /* \"#utility.yul\":7039:7043   */\n      0x00\n        /* \"#utility.yul\":7077:7079   */\n      0x20\n        /* \"#utility.yul\":7066:7075   */\n      dup3\n        /* \"#utility.yul\":7062:7080   */\n      add\n        /* \"#utility.yul\":7054:7080   */\n      swap1\n      pop\n        /* \"#utility.yul\":7126:7135   */\n      dup2\n        /* \"#utility.yul\":7120:7124   */\n      dup2\n        /* \"#utility.yul\":7116:7136   */\n      sub\n        /* \"#utility.yul\":7112:7113   */\n      0x00\n        /* \"#utility.yul\":7101:7110   */\n      dup4\n        /* \"#utility.yul\":7097:7114   */\n      add\n        /* \"#utility.yul\":7090:7137   */\n      mstore\n        /* \"#utility.yul\":7154:7285   */\n      tag_140\n        /* \"#utility.yul\":7280:7284   */\n      dup2\n        /* \"#utility.yul\":7154:7285   */\n      tag_63\n      jump\t// in\n    tag_140:\n        /* \"#utility.yul\":7146:7285   */\n      swap1\n      pop\n        /* \"#utility.yul\":6873:7292   */\n      swap2\n      swap1\n      pop\n      jump\t// out\n\n    auxdata: 0xa2646970667358221220e67531e3f5e10130659e37ecf7115dd9cff302d984fd3e97d9c0a35420a3054364736f6c634300081d0033\n}\n",
				"bytecode": {
					"linkReferences": {},
					"object": "6080604052610e106004553480156014575f5ffd5b50610717806100225f395ff3fe60806040526004361061003e575f3560e01c80630cbf54c8146100425780631998aeef1461006c578063496a698d1461007657806356dd4755146100a3575b5f5ffd5b34801561004d575f5ffd5b506100566100cb565b6040516100639190610325565b60405180910390f35b6100746100d1565b005b348015610081575f5ffd5b5061008a6101ea565b60405161009a949392919061037d565b60405180910390f35b3480156100ae575f5ffd5b506100c960048036038101906100c49190610418565b610225565b005b60045481565b6004545f600101546100e39190610495565b421115610125576040517f08c379a000000000000000000000000000000000000000000000000000000000815260040161011c90610522565b60405180910390fd5b5f5f60010154426101369190610540565b90505f600454825f5f015461014b9190610573565b61015591906105e1565b5f5f01546101639190610540565b9050803410156101a8576040517f08c379a000000000000000000000000000000000000000000000000000000000815260040161019f9061065b565b60405180910390fd5b5f5f5f82015f9055600182015f9055600282015f9055600382015f6101000a81549073ffffffffffffffffffffffffffffffffffffffff021916905550505050565b5f805f015490806001015490806002015490806003015f9054906101000a900473ffffffffffffffffffffffffffffffffffffffff16905084565b5f5f600101541461026b576040517f08c379a0000000000000000000000000000000000000000000000000000000008152600401610262906106c3565b60405180910390fd5b60405180608001604052808281526020014281526020018381526020018473ffffffffffffffffffffffffffffffffffffffff168152505f5f820151815f015560208201518160010155604082015181600201556060820151816003015f6101000a81548173ffffffffffffffffffffffffffffffffffffffff021916908373ffffffffffffffffffffffffffffffffffffffff160217905550905050505050565b5f819050919050565b61031f8161030d565b82525050565b5f6020820190506103385f830184610316565b92915050565b5f73ffffffffffffffffffffffffffffffffffffffff82169050919050565b5f6103678261033e565b9050919050565b6103778161035d565b82525050565b5f6080820190506103905f830187610316565b61039d6020830186610316565b6103aa6040830185610316565b6103b7606083018461036e565b95945050505050565b5f5ffd5b6103cd8161035d565b81146103d7575f5ffd5b50565b5f813590506103e8816103c4565b92915050565b6103f78161030d565b8114610401575f5ffd5b50565b5f81359050610412816103ee565b92915050565b5f5f5f6060848603121561042f5761042e6103c0565b5b5f61043c868287016103da565b935050602061044d86828701610404565b925050604061045e86828701610404565b9150509250925092565b7f4e487b71000000000000000000000000000000000000000000000000000000005f52601160045260245ffd5b5f61049f8261030d565b91506104aa8361030d565b92508282019050808211156104c2576104c1610468565b5b92915050565b5f82825260208201905092915050565b7f45787069726564000000000000000000000000000000000000000000000000005f82015250565b5f61050c6007836104c8565b9150610517826104d8565b602082019050919050565b5f6020820190508181035f83015261053981610500565b9050919050565b5f61054a8261030d565b91506105558361030d565b925082820390508181111561056d5761056c610468565b5b92915050565b5f61057d8261030d565b91506105888361030d565b92508282026105968161030d565b915082820484148315176105ad576105ac610468565b5b5092915050565b7f4e487b71000000000000000000000000000000000000000000000000000000005f52601260045260245ffd5b5f6105eb8261030d565b91506105f68361030d565b925082610606576106056105b4565b5b828204905092915050565b7f42696420746f6f206c6f770000000000000000000000000000000000000000005f82015250565b5f610645600b836104c8565b915061065082610611565b602082019050919050565b5f6020820190508181035f83015261067281610639565b9050919050565b7f41756374696f6e206163746976650000000000000000000000000000000000005f82015250565b5f6106ad600e836104c8565b91506106b882610679565b602082019050919050565b5f6020820190508181035f8301526106da816106a1565b905091905056fea2646970667358221220e67531e3f5e10130659e37ecf7115dd9cff302d984fd3e97d9c0a35420a3054364736f6c634300081d0033",
					"opcodes": "PUSH1 0x80 PUSH1 0x40 MSTORE PUSH2 0xE10 PUSH1 0x4 SSTORE CALLVALUE DUP1 ISZERO PUSH1 0x14 JUMPI PUSH0 PUSH0 REVERT JUMPDEST POP PUSH2 0x717 DUP1 PUSH2 0x22 PUSH0 CODECOPY PUSH0 RETURN INVALID PUSH1 0x80 PUSH1 0x40 MSTORE PUSH1 0x4 CALLDATASIZE LT PUSH2 0x3E JUMPI PUSH0 CALLDATALOAD PUSH1 0xE0 SHR DUP1 PUSH4 0xCBF54C8 EQ PUSH2 0x42 JUMPI DUP1 PUSH4 0x1998AEEF EQ PUSH2 0x6C JUMPI DUP1 PUSH4 0x496A698D EQ PUSH2 0x76 JUMPI DUP1 PUSH4 0x56DD4755 EQ PUSH2 0xA3 JUMPI JUMPDEST PUSH0 PUSH0 REVERT JUMPDEST CALLVALUE DUP1 ISZERO PUSH2 0x4D JUMPI PUSH0 PUSH0 REVERT JUMPDEST POP PUSH2 0x56 PUSH2 0xCB JUMP JUMPDEST PUSH1 0x40 MLOAD PUSH2 0x63 SWAP2 SWAP1 PUSH2 0x325 JUMP JUMPDEST PUSH1 0x40 MLOAD DUP1 SWAP2 SUB SWAP1 RETURN JUMPDEST PUSH2 0x74 PUSH2 0xD1 JUMP JUMPDEST STOP JUMPDEST CALLVALUE DUP1 ISZERO PUSH2 0x81 JUMPI PUSH0 PUSH0 REVERT JUMPDEST POP PUSH2 0x8A PUSH2 0x1EA JUMP JUMPDEST PUSH1 0x40 MLOAD PUSH2 0x9A SWAP5 SWAP4 SWAP3 SWAP2 SWAP1 PUSH2 0x37D JUMP JUMPDEST PUSH1 0x40 MLOAD DUP1 SWAP2 SUB SWAP1 RETURN JUMPDEST CALLVALUE DUP1 ISZERO PUSH2 0xAE JUMPI PUSH0 PUSH0 REVERT JUMPDEST POP PUSH2 0xC9 PUSH1 0x4 DUP1 CALLDATASIZE SUB DUP2 ADD SWAP1 PUSH2 0xC4 SWAP2 SWAP1 PUSH2 0x418 JUMP JUMPDEST PUSH2 0x225 JUMP JUMPDEST STOP JUMPDEST PUSH1 0x4 SLOAD DUP2 JUMP JUMPDEST PUSH1 0x4 SLOAD PUSH0 PUSH1 0x1 ADD SLOAD PUSH2 0xE3 SWAP2 SWAP1 PUSH2 0x495 JUMP JUMPDEST TIMESTAMP GT ISZERO PUSH2 0x125 JUMPI PUSH1 0x40 MLOAD PUSH32 0x8C379A000000000000000000000000000000000000000000000000000000000 DUP2 MSTORE PUSH1 0x4 ADD PUSH2 0x11C SWAP1 PUSH2 0x522 JUMP JUMPDEST PUSH1 0x40 MLOAD DUP1 SWAP2 SUB SWAP1 REVERT JUMPDEST PUSH0 PUSH0 PUSH1 0x1 ADD SLOAD TIMESTAMP PUSH2 0x136 SWAP2 SWAP1 PUSH2 0x540 JUMP JUMPDEST SWAP1 POP PUSH0 PUSH1 0x4 SLOAD DUP3 PUSH0 PUSH0 ADD SLOAD PUSH2 0x14B SWAP2 SWAP1 PUSH2 0x573 JUMP JUMPDEST PUSH2 0x155 SWAP2 SWAP1 PUSH2 0x5E1 JUMP JUMPDEST PUSH0 PUSH0 ADD SLOAD PUSH2 0x163 SWAP2 SWAP1 PUSH2 0x540 JUMP JUMPDEST SWAP1 POP DUP1 CALLVALUE LT ISZERO PUSH2 0x1A8 JUMPI PUSH1 0x40 MLOAD PUSH32 0x8C379A000000000000000000000000000000000000000000000000000000000 DUP2 MSTORE PUSH1 0x4 ADD PUSH2 0x19F SWAP1 PUSH2 0x65B JUMP JUMPDEST PUSH1 0x40 MLOAD DUP1 SWAP2 SUB SWAP1 REVERT JUMPDEST PUSH0 PUSH0 PUSH0 DUP3 ADD PUSH0 SWAP1 SSTORE PUSH1 0x1 DUP3 ADD PUSH0 SWAP1 SSTORE PUSH1 0x2 DUP3 ADD PUSH0 SWAP1 SSTORE PUSH1 0x3 DUP3 ADD PUSH0 PUSH2 0x100 EXP DUP2 SLOAD SWAP1 PUSH20 0xFFFFFFFFFFFFFFFFFFFFFFFFFFFFFFFFFFFFFFFF MUL NOT AND SWAP1 SSTORE POP POP POP POP JUMP JUMPDEST PUSH0 DUP1 PUSH0 ADD SLOAD SWAP1 DUP1 PUSH1 0x1 ADD SLOAD SWAP1 DUP1 PUSH1 0x2 ADD SLOAD SWAP1 DUP1 PUSH1 0x3 ADD PUSH0 SWAP1 SLOAD SWAP1 PUSH2 0x100 EXP SWAP1 DIV PUSH20 0xFFFFFFFFFFFFFFFFFFFFFFFFFFFFFFFFFFFFFFFF AND SWAP1 POP DUP5 JUMP JUMPDEST PUSH0 PUSH0 PUSH1 0x1 ADD SLOAD EQ PUSH2 0x26B JUMPI PUSH1 0x40 MLOAD PUSH32 0x8C379A000000000000000000000000000000000000000000000000000000000 DUP2 MSTORE PUSH1 0x4 ADD PUSH2 0x262 SWAP1 PUSH2 0x6C3 JUMP JUMPDEST PUSH1 0x40 MLOAD DUP1 SWAP2 SUB SWAP1 REVERT JUMPDEST PUSH1 0x40 MLOAD DUP1 PUSH1 0x80 ADD PUSH1 0x40 MSTORE DUP1 DUP3 DUP2 MSTORE PUSH1 0x20 ADD TIMESTAMP DUP2 MSTORE PUSH1 0x20 ADD DUP4 DUP2 MSTORE PUSH1 0x20 ADD DUP5 PUSH20 0xFFFFFFFFFFFFFFFFFFFFFFFFFFFFFFFFFFFFFFFF AND DUP2 MSTORE POP PUSH0 PUSH0 DUP3 ADD MLOAD DUP2 PUSH0 ADD SSTORE PUSH1 0x20 DUP3 ADD MLOAD DUP2 PUSH1 0x1 ADD SSTORE PUSH1 0x40 DUP3 ADD MLOAD DUP2 PUSH1 0x2 ADD SSTORE PUSH1 0x60 DUP3 ADD MLOAD DUP2 PUSH1 0x3 ADD PUSH0 PUSH2 0x100 EXP DUP2 SLOAD DUP2 PUSH20 0xFFFFFFFFFFFFFFFFFFFFFFFFFFFFFFFFFFFFFFFF MUL NOT AND SWAP1 DUP4 PUSH20 0xFFFFFFFFFFFFFFFFFFFFFFFFFFFFFFFFFFFFFFFF AND MUL OR SWAP1 SSTORE POP SWAP1 POP POP POP POP POP JUMP JUMPDEST PUSH0 DUP2 SWAP1 POP SWAP2 SWAP1 POP JUMP JUMPDEST PUSH2 0x31F DUP2 PUSH2 0x30D JUMP JUMPDEST DUP3 MSTORE POP POP JUMP JUMPDEST PUSH0 PUSH1 0x20 DUP3 ADD SWAP1 POP PUSH2 0x338 PUSH0 DUP4 ADD DUP5 PUSH2 0x316 JUMP JUMPDEST SWAP3 SWAP2 POP POP JUMP JUMPDEST PUSH0 PUSH20 0xFFFFFFFFFFFFFFFFFFFFFFFFFFFFFFFFFFFFFFFF DUP3 AND SWAP1 POP SWAP2 SWAP1 POP JUMP JUMPDEST PUSH0 PUSH2 0x367 DUP3 PUSH2 0x33E JUMP JUMPDEST SWAP1 POP SWAP2 SWAP1 POP JUMP JUMPDEST PUSH2 0x377 DUP2 PUSH2 0x35D JUMP JUMPDEST DUP3 MSTORE POP POP JUMP JUMPDEST PUSH0 PUSH1 0x80 DUP3 ADD SWAP1 POP PUSH2 0x390 PUSH0 DUP4 ADD DUP8 PUSH2 0x316 JUMP JUMPDEST PUSH2 0x39D PUSH1 0x20 DUP4 ADD DUP7 PUSH2 0x316 JUMP JUMPDEST PUSH2 0x3AA PUSH1 0x40 DUP4 ADD DUP6 PUSH2 0x316 JUMP JUMPDEST PUSH2 0x3B7 PUSH1 0x60 DUP4 ADD DUP5 PUSH2 0x36E JUMP JUMPDEST SWAP6 SWAP5 POP POP POP POP POP JUMP JUMPDEST PUSH0 PUSH0 REVERT JUMPDEST PUSH2 0x3CD DUP2 PUSH2 0x35D JUMP JUMPDEST DUP2 EQ PUSH2 0x3D7 JUMPI PUSH0 PUSH0 REVERT JUMPDEST POP JUMP JUMPDEST PUSH0 DUP2 CALLDATALOAD SWAP1 POP PUSH2 0x3E8 DUP2 PUSH2 0x3C4 JUMP JUMPDEST SWAP3 SWAP2 POP POP JUMP JUMPDEST PUSH2 0x3F7 DUP2 PUSH2 0x30D JUMP JUMPDEST DUP2 EQ PUSH2 0x401 JUMPI PUSH0 PUSH0 REVERT JUMPDEST POP JUMP JUMPDEST PUSH0 DUP2 CALLDATALOAD SWAP1 POP PUSH2 0x412 DUP2 PUSH2 0x3EE JUMP JUMPDEST SWAP3 SWAP2 POP POP JUMP JUMPDEST PUSH0 PUSH0 PUSH0 PUSH1 0x60 DUP5 DUP7 SUB SLT ISZERO PUSH2 0x42F JUMPI PUSH2 0x42E PUSH2 0x3C0 JUMP JUMPDEST JUMPDEST PUSH0 PUSH2 0x43C DUP7 DUP3 DUP8 ADD PUSH2 0x3DA JUMP JUMPDEST SWAP4 POP POP PUSH1 0x20 PUSH2 0x44D DUP7 DUP3 DUP8 ADD PUSH2 0x404 JUMP JUMPDEST SWAP3 POP POP PUSH1 0x40 PUSH2 0x45E DUP7 DUP3 DUP8 ADD PUSH2 0x404 JUMP JUMPDEST SWAP2 POP POP SWAP3 POP SWAP3 POP SWAP3 JUMP JUMPDEST PUSH32 0x4E487B7100000000000000000000000000000000000000000000000000000000 PUSH0 MSTORE PUSH1 0x11 PUSH1 0x4 MSTORE PUSH1 0x24 PUSH0 REVERT JUMPDEST PUSH0 PUSH2 0x49F DUP3 PUSH2 0x30D JUMP JUMPDEST SWAP2 POP PUSH2 0x4AA DUP4 PUSH2 0x30D JUMP JUMPDEST SWAP3 POP DUP3 DUP3 ADD SWAP1 POP DUP1 DUP3 GT ISZERO PUSH2 0x4C2 JUMPI PUSH2 0x4C1 PUSH2 0x468 JUMP JUMPDEST JUMPDEST SWAP3 SWAP2 POP POP JUMP JUMPDEST PUSH0 DUP3 DUP3 MSTORE PUSH1 0x20 DUP3 ADD SWAP1 POP SWAP3 SWAP2 POP POP JUMP JUMPDEST PUSH32 0x4578706972656400000000000000000000000000000000000000000000000000 PUSH0 DUP3 ADD MSTORE POP JUMP JUMPDEST PUSH0 PUSH2 0x50C PUSH1 0x7 DUP4 PUSH2 0x4C8 JUMP JUMPDEST SWAP2 POP PUSH2 0x517 DUP3 PUSH2 0x4D8 JUMP JUMPDEST PUSH1 0x20 DUP3 ADD SWAP1 POP SWAP2 SWAP1 POP JUMP JUMPDEST PUSH0 PUSH1 0x20 DUP3 ADD SWAP1 POP DUP2 DUP2 SUB PUSH0 DUP4 ADD MSTORE PUSH2 0x539 DUP2 PUSH2 0x500 JUMP JUMPDEST SWAP1 POP SWAP2 SWAP1 POP JUMP JUMPDEST PUSH0 PUSH2 0x54A DUP3 PUSH2 0x30D JUMP JUMPDEST SWAP2 POP PUSH2 0x555 DUP4 PUSH2 0x30D JUMP JUMPDEST SWAP3 POP DUP3 DUP3 SUB SWAP1 POP DUP2 DUP2 GT ISZERO PUSH2 0x56D JUMPI PUSH2 0x56C PUSH2 0x468 JUMP JUMPDEST JUMPDEST SWAP3 SWAP2 POP POP JUMP JUMPDEST PUSH0 PUSH2 0x57D DUP3 PUSH2 0x30D JUMP JUMPDEST SWAP2 POP PUSH2 0x588 DUP4 PUSH2 0x30D JUMP JUMPDEST SWAP3 POP DUP3 DUP3 MUL PUSH2 0x596 DUP2 PUSH2 0x30D JUMP JUMPDEST SWAP2 POP DUP3 DUP3 DIV DUP5 EQ DUP4 ISZERO OR PUSH2 0x5AD JUMPI PUSH2 0x5AC PUSH2 0x468 JUMP JUMPDEST JUMPDEST POP SWAP3 SWAP2 POP POP JUMP JUMPDEST PUSH32 0x4E487B7100000000000000000000000000000000000000000000000000000000 PUSH0 MSTORE PUSH1 0x12 PUSH1 0x4 MSTORE PUSH1 0x24 PUSH0 REVERT JUMPDEST PUSH0 PUSH2 0x5EB DUP3 PUSH2 0x30D JUMP JUMPDEST SWAP2 POP PUSH2 0x5F6 DUP4 PUSH2 0x30D JUMP JUMPDEST SWAP3 POP DUP3 PUSH2 0x606 JUMPI PUSH2 0x605 PUSH2 0x5B4 JUMP JUMPDEST JUMPDEST DUP3 DUP3 DIV SWAP1 POP SWAP3 SWAP2 POP POP JUMP JUMPDEST PUSH32 0x42696420746F6F206C6F77000000000000000000000000000000000000000000 PUSH0 DUP3 ADD MSTORE POP JUMP JUMPDEST PUSH0 PUSH2 0x645 PUSH1 0xB DUP4 PUSH2 0x4C8 JUMP JUMPDEST SWAP2 POP PUSH2 0x650 DUP3 PUSH2 0x611 JUMP JUMPDEST PUSH1 0x20 DUP3 ADD SWAP1 POP SWAP2 SWAP1 POP JUMP JUMPDEST PUSH0 PUSH1 0x20 DUP3 ADD SWAP1 POP DUP2 DUP2 SUB PUSH0 DUP4 ADD MSTORE PUSH2 0x672 DUP2 PUSH2 0x639 JUMP JUMPDEST SWAP1 POP SWAP2 SWAP1 POP JUMP JUMPDEST PUSH32 0x41756374696F6E20616374697665000000000000000000000000000000000000 PUSH0 DUP3 ADD MSTORE POP JUMP JUMPDEST PUSH0 PUSH2 0x6AD PUSH1 0xE DUP4 PUSH2 0x4C8 JUMP JUMPDEST SWAP2 POP PUSH2 0x6B8 DUP3 PUSH2 0x679 JUMP JUMPDEST PUSH1 0x20 DUP3 ADD SWAP1 POP SWAP2 SWAP1 POP JUMP JUMPDEST PUSH0 PUSH1 0x20 DUP3 ADD SWAP1 POP DUP2 DUP2 SUB PUSH0 DUP4 ADD MSTORE PUSH2 0x6DA DUP2 PUSH2 0x6A1 JUMP JUMPDEST SWAP1 POP SWAP2 SWAP1 POP JUMP INVALID LOG2 PUSH5 0x6970667358 0x22 SLT KECCAK256 DUPN 0x75 BALANCE CALLF 0xF5E1 ADD ADDRESS PUSH6 0x9E37ECF7115D 0xD9 0xCF RETURN MUL 0xD9 DUP5 REVERT RETURNDATACOPY SWAP8 0xD9 0xC0 LOG3 SLOAD KECCAK256 LOG3 SDIV NUMBER PUSH5 0x736F6C6343 STOP ADDMOD SAR STOP CALLER "
				},
				"gasEstimates": {
					"creation": {
						"codeDepositCost": "363000",
						"executionCost": "22503",
						"totalCost": "385503"
					},
					"external": {
						"auctionDuration()": "2403",
						"bid()": "infinite",
						"currentAuction()": "infinite",
						"startAuction(address,uint256,uint256)": "infinite"
					}
				},
				"methodIdentifiers": {
					"auctionDuration()": "0cbf54c8",
					"bid()": "1998aeef",
					"currentAuction()": "496a698d",
					"startAuction(address,uint256,uint256)": "56dd4755"
				}
			},
			"storageLayout": {
				"storage": [
					{
						"astId": 12,
						"contract": "L/Dutch Auction Liquidation.sol:DutchAuctionLiquidation",
						"label": "currentAuction",
						"offset": 0,
						"slot": "0",
						"type": "t_struct(Auction)9_storage"
					},
					{
						"astId": 15,
						"contract": "L/Dutch Auction Liquidation.sol:DutchAuctionLiquidation",
						"label": "auctionDuration",
						"offset": 0,
						"slot": "4",
						"type": "t_uint256"
					}
				],
				"types": {
					"t_address": {
						"encoding": "inplace",
						"label": "address",
						"numberOfBytes": "20"
					},
					"t_struct(Auction)9_storage": {
						"encoding": "inplace",
						"label": "struct DutchAuctionLiquidation.Auction",
						"members": [
							{
								"astId": 2,
								"contract": "L/Dutch Auction Liquidation.sol:DutchAuctionLiquidation",
								"label": "startPrice",
								"offset": 0,
								"slot": "0",
								"type": "t_uint256"
							},
							{
								"astId": 4,
								"contract": "L/Dutch Auction Liquidation.sol:DutchAuctionLiquidation",
								"label": "startTime",
								"offset": 0,
								"slot": "1",
								"type": "t_uint256"
							},
							{
								"astId": 6,
								"contract": "L/Dutch Auction Liquidation.sol:DutchAuctionLiquidation",
								"label": "debt",
								"offset": 0,
								"slot": "2",
								"type": "t_uint256"
							},
							{
								"astId": 8,
								"contract": "L/Dutch Auction Liquidation.sol:DutchAuctionLiquidation",
								"label": "borrower",
								"offset": 0,
								"slot": "3",
								"type": "t_address"
							}
						],
						"numberOfBytes": "128"
					},
					"t_uint256": {
						"encoding": "inplace",
						"label": "uint256",
						"numberOfBytes": "32"
					}
				}
			},
			"userdoc": {
				"kind": "user",
				"methods": {},
				"version": 1
			}
		}
	}
}