{
	"L/lightNode.sol": {
		"LightClient": {
			"abi": [
				{
					"anonymous": false,
					"inputs": [
						{
							"indexed": false,
							"internalType": "uint256",
							"name": "blockNumber",
							"type": "uint256"
						},
						{
							"indexed": false,
							"internalType": "bytes32",
							"name": "blockHash",
							"type": "bytes32"
						}
					],
					"name": "HeaderSubmitted",
					"type": "event"
				},
				{
					"inputs": [],
					"name": "getLatestHeader",
					"outputs": [
						{
							"components": [
								{
									"internalType": "bytes32",
									"name": "blockHash",
									"type": "bytes32"
								},
								{
									"internalType": "uint256",
									"name": "blockNumber",
									"type": "uint256"
								},
								{
									"internalType": "bytes32",
									"name": "parentHash",
									"type": "bytes32"
								}
							],
							"internalType": "struct LightClient.Header",
							"name": "",
							"type": "tuple"
						}
					],
					"stateMutability": "view",
					"type": "function"
				},
				{
					"inputs": [
						{
							"internalType": "uint256",
							"name": "",
							"type": "uint256"
						}
					],
					"name": "headers",
					"outputs": [
						{
							"internalType": "bytes32",
							"name": "blockHash",
							"type": "bytes32"
						},
						{
							"internalType": "uint256",
							"name": "blockNumber",
							"type": "uint256"
						},
						{
							"internalType": "bytes32",
							"name": "parentHash",
							"type": "bytes32"
						}
					],
					"stateMutability": "view",
					"type": "function"
				},
				{
					"inputs": [],
					"name": "latestBlock",
					"outputs": [
						{
							"internalType": "uint256",
							"name": "",
							"type": "uint256"
						}
					],
					"stateMutability": "view",
					"type": "function"
				},
				{
					"inputs": [
						{
							"internalType": "uint256",
							"name": "blockNumber",
							"type": "uint256"
						},
						{
							"internalType": "bytes32",
							"name": "blockHash",
							"type": "bytes32"
						},
						{
							"internalType": "bytes32",
							"name": "parentHash",
							"type": "bytes32"
						}
					],
					"name": "submitHeader",
					"outputs": [],
					"stateMutability": "nonpayable",
					"type": "function"
				}
			],
			"devdoc": {
				"kind": "dev",
				"methods": {},
				"title": "Light Client Header Verifier",
				"version": 1
			},
			"evm": {
				"assembly": "    /* \"L/lightNode.sol\":170:1082  contract LightClient {... */\n  mstore(0x40, 0x80)\n  callvalue\n  dup1\n  iszero\n  tag_1\n  jumpi\n  revert(0x00, 0x00)\ntag_1:\n  pop\n  dataSize(sub_0)\n  dup1\n  dataOffset(sub_0)\n  0x00\n  codecopy\n  0x00\n  return\nstop\n\nsub_0: assembly {\n        /* \"L/lightNode.sol\":170:1082  contract LightClient {... */\n      mstore(0x40, 0x80)\n      callvalue\n      dup1\n      iszero\n      tag_1\n      jumpi\n      revert(0x00, 0x00)\n    tag_1:\n      pop\n      jumpi(tag_2, lt(calldatasize, 0x04))\n      shr(0xe0, calldataload(0x00))\n      dup1\n      0x01ad67b3\n      eq\n      tag_3\n      jumpi\n      dup1\n      0x07e2da96\n      eq\n      tag_4\n      jumpi\n      dup1\n      0x56f90d79\n      eq\n      tag_5\n      jumpi\n      dup1\n      0xc29a670f\n      eq\n      tag_6\n      jumpi\n    tag_2:\n      revert(0x00, 0x00)\n        /* \"L/lightNode.sol\":456:965  function submitHeader(... */\n    tag_3:\n      tag_7\n      0x04\n      dup1\n      calldatasize\n      sub\n      dup2\n      add\n      swap1\n      tag_8\n      swap2\n      swap1\n      tag_9\n      jump\t// in\n    tag_8:\n      tag_10\n      jump\t// in\n    tag_7:\n      stop\n        /* \"L/lightNode.sol\":355:381  uint256 public latestBlock */\n    tag_4:\n      tag_11\n      tag_12\n      jump\t// in\n    tag_11:\n      mload(0x40)\n      tag_13\n      swap2\n      swap1\n      tag_14\n      jump\t// in\n    tag_13:\n      mload(0x40)\n      dup1\n      swap2\n      sub\n      swap1\n      return\n        /* \"L/lightNode.sol\":308:349  mapping(uint256 => Header) public headers */\n    tag_5:\n      tag_15\n      0x04\n      dup1\n      calldatasize\n      sub\n      dup2\n      add\n      swap1\n      tag_16\n      swap2\n      swap1\n      tag_17\n      jump\t// in\n    tag_16:\n      tag_18\n      jump\t// in\n    tag_15:\n      mload(0x40)\n      tag_19\n      swap4\n      swap3\n      swap2\n      swap1\n      tag_20\n      jump\t// in\n    tag_19:\n      mload(0x40)\n      dup1\n      swap2\n      sub\n      swap1\n      return\n        /* \"L/lightNode.sol\":971:1080  function getLatestHeader() external view returns (Header memory) {... */\n    tag_6:\n      tag_21\n      tag_22\n      jump\t// in\n    tag_21:\n      mload(0x40)\n      tag_23\n      swap2\n      swap1\n      tag_24\n      jump\t// in\n    tag_23:\n      mload(0x40)\n      dup1\n      swap2\n      sub\n      swap1\n      return\n        /* \"L/lightNode.sol\":456:965  function submitHeader(... */\n    tag_10:\n        /* \"L/lightNode.sol\":637:638  0 */\n      0x00\n        /* \"L/lightNode.sol\":629:639  bytes32(0) */\n      0x00\n      shl\n        /* \"L/lightNode.sol\":595:602  headers */\n      0x00\n        /* \"L/lightNode.sol\":595:615  headers[blockNumber] */\n      0x00\n        /* \"L/lightNode.sol\":603:614  blockNumber */\n      dup6\n        /* \"L/lightNode.sol\":595:615  headers[blockNumber] */\n      dup2\n      mstore\n      0x20\n      add\n      swap1\n      dup2\n      mstore\n      0x20\n      add\n      0x00\n      keccak256\n        /* \"L/lightNode.sol\":595:625  headers[blockNumber].blockHash */\n      0x00\n      add\n      sload\n        /* \"L/lightNode.sol\":595:639  headers[blockNumber].blockHash == bytes32(0) */\n      eq\n        /* \"L/lightNode.sol\":587:661  require(headers[blockNumber].blockHash == bytes32(0), \"Already submitted\") */\n      tag_26\n      jumpi\n      mload(0x40)\n      0x08c379a000000000000000000000000000000000000000000000000000000000\n      dup2\n      mstore\n      0x04\n      add\n      tag_27\n      swap1\n      tag_28\n      jump\t// in\n    tag_27:\n      mload(0x40)\n      dup1\n      swap2\n      sub\n      swap1\n      revert\n    tag_26:\n        /* \"L/lightNode.sol\":690:691  0 */\n      0x00\n        /* \"L/lightNode.sol\":676:687  blockNumber */\n      dup4\n        /* \"L/lightNode.sol\":676:691  blockNumber > 0 */\n      gt\n        /* \"L/lightNode.sol\":672:793  if (blockNumber > 0) {... */\n      iszero\n      tag_29\n      jumpi\n        /* \"L/lightNode.sol\":753:763  parentHash */\n      dup1\n        /* \"L/lightNode.sol\":715:722  headers */\n      0x00\n        /* \"L/lightNode.sol\":715:739  headers[blockNumber - 1] */\n      0x00\n        /* \"L/lightNode.sol\":737:738  1 */\n      0x01\n        /* \"L/lightNode.sol\":723:734  blockNumber */\n      dup7\n        /* \"L/lightNode.sol\":723:738  blockNumber - 1 */\n      tag_30\n      swap2\n      swap1\n      tag_31\n      jump\t// in\n    tag_30:\n        /* \"L/lightNode.sol\":715:739  headers[blockNumber - 1] */\n      dup2\n      mstore\n      0x20\n      add\n      swap1\n      dup2\n      mstore\n      0x20\n      add\n      0x00\n      keccak256\n        /* \"L/lightNode.sol\":715:749  headers[blockNumber - 1].blockHash */\n      0x00\n      add\n      sload\n        /* \"L/lightNode.sol\":715:763  headers[blockNumber - 1].blockHash == parentHash */\n      eq\n        /* \"L/lightNode.sol\":707:782  require(headers[blockNumber - 1].blockHash == parentHash, \"Invalid parent\") */\n      tag_32\n      jumpi\n      mload(0x40)\n      0x08c379a000000000000000000000000000000000000000000000000000000000\n      dup2\n      mstore\n      0x04\n      add\n      tag_33\n      swap1\n      tag_34\n      jump\t// in\n    tag_33:\n      mload(0x40)\n      dup1\n      swap2\n      sub\n      swap1\n      revert\n    tag_32:\n        /* \"L/lightNode.sol\":672:793  if (blockNumber > 0) {... */\n    tag_29:\n        /* \"L/lightNode.sol\":826:868  Header(blockHash, blockNumber, parentHash) */\n      mload(0x40)\n      dup1\n      0x60\n      add\n      0x40\n      mstore\n      dup1\n        /* \"L/lightNode.sol\":833:842  blockHash */\n      dup4\n        /* \"L/lightNode.sol\":826:868  Header(blockHash, blockNumber, parentHash) */\n      dup2\n      mstore\n      0x20\n      add\n        /* \"L/lightNode.sol\":844:855  blockNumber */\n      dup5\n        /* \"L/lightNode.sol\":826:868  Header(blockHash, blockNumber, parentHash) */\n      dup2\n      mstore\n      0x20\n      add\n        /* \"L/lightNode.sol\":857:867  parentHash */\n      dup3\n        /* \"L/lightNode.sol\":826:868  Header(blockHash, blockNumber, parentHash) */\n      dup2\n      mstore\n      pop\n        /* \"L/lightNode.sol\":803:810  headers */\n      0x00\n        /* \"L/lightNode.sol\":803:823  headers[blockNumber] */\n      0x00\n        /* \"L/lightNode.sol\":811:822  blockNumber */\n      dup6\n        /* \"L/lightNode.sol\":803:823  headers[blockNumber] */\n      dup2\n      mstore\n      0x20\n      add\n      swap1\n      dup2\n      mstore\n      0x20\n      add\n      0x00\n      keccak256\n        /* \"L/lightNode.sol\":803:868  headers[blockNumber] = Header(blockHash, blockNumber, parentHash) */\n      0x00\n      dup3\n      add\n      mload\n      dup2\n      0x00\n      add\n      sstore\n      0x20\n      dup3\n      add\n      mload\n      dup2\n      0x01\n      add\n      sstore\n      0x40\n      dup3\n      add\n      mload\n      dup2\n      0x02\n      add\n      sstore\n      swap1\n      pop\n      pop\n        /* \"L/lightNode.sol\":892:903  blockNumber */\n      dup3\n        /* \"L/lightNode.sol\":878:889  latestBlock */\n      0x01\n        /* \"L/lightNode.sol\":878:903  latestBlock = blockNumber */\n      dup2\n      swap1\n      sstore\n      pop\n        /* \"L/lightNode.sol\":919:958  HeaderSubmitted(blockNumber, blockHash) */\n      0xc3cdbec61d16ea62ad5f0486fd7f8295a5a01e7552ae25867133c01e2039b11c\n        /* \"L/lightNode.sol\":935:946  blockNumber */\n      dup4\n        /* \"L/lightNode.sol\":948:957  blockHash */\n      dup4\n        /* \"L/lightNode.sol\":919:958  HeaderSubmitted(blockNumber, blockHash) */\n      mload(0x40)\n      tag_35\n      swap3\n      swap2\n      swap1\n      tag_36\n      jump\t// in\n    tag_35:\n      mload(0x40)\n      dup1\n      swap2\n      sub\n      swap1\n      log1\n        /* \"L/lightNode.sol\":456:965  function submitHeader(... */\n      pop\n      pop\n      pop\n      jump\t// out\n        /* \"L/lightNode.sol\":355:381  uint256 public latestBlock */\n    tag_12:\n      sload(0x01)\n      dup2\n      jump\t// out\n        /* \"L/lightNode.sol\":308:349  mapping(uint256 => Header) public headers */\n    tag_18:\n      mstore(0x20, 0x00)\n      dup1\n      0x00\n      mstore\n      keccak256(0x00, 0x40)\n      0x00\n      swap2\n      pop\n      swap1\n      pop\n      dup1\n      0x00\n      add\n      sload\n      swap1\n      dup1\n      0x01\n      add\n      sload\n      swap1\n      dup1\n      0x02\n      add\n      sload\n      swap1\n      pop\n      dup4\n      jump\t// out\n        /* \"L/lightNode.sol\":971:1080  function getLatestHeader() external view returns (Header memory) {... */\n    tag_22:\n        /* \"L/lightNode.sol\":1021:1034  Header memory */\n      tag_37\n      tag_38\n      jump\t// in\n    tag_37:\n        /* \"L/lightNode.sol\":1053:1060  headers */\n      0x00\n        /* \"L/lightNode.sol\":1053:1073  headers[latestBlock] */\n      0x00\n        /* \"L/lightNode.sol\":1061:1072  latestBlock */\n      sload(0x01)\n        /* \"L/lightNode.sol\":1053:1073  headers[latestBlock] */\n      dup2\n      mstore\n      0x20\n      add\n      swap1\n      dup2\n      mstore\n      0x20\n      add\n      0x00\n      keccak256\n        /* \"L/lightNode.sol\":1046:1073  return headers[latestBlock] */\n      mload(0x40)\n      dup1\n      0x60\n      add\n      0x40\n      mstore\n      swap1\n      dup2\n      0x00\n      dup3\n      add\n      sload\n      dup2\n      mstore\n      0x20\n      add\n      0x01\n      dup3\n      add\n      sload\n      dup2\n      mstore\n      0x20\n      add\n      0x02\n      dup3\n      add\n      sload\n      dup2\n      mstore\n      pop\n      pop\n      swap1\n      pop\n        /* \"L/lightNode.sol\":971:1080  function getLatestHeader() external view returns (Header memory) {... */\n      swap1\n      jump\t// out\n    tag_38:\n      mload(0x40)\n      dup1\n      0x60\n      add\n      0x40\n      mstore\n      dup1\n      0x00\n      dup2\n      mstore\n      0x20\n      add\n      0x00\n      dup2\n      mstore\n      0x20\n      add\n      0x00\n      dup2\n      mstore\n      pop\n      swap1\n      jump\t// out\n        /* \"#utility.yul\":88:205   */\n    tag_41:\n        /* \"#utility.yul\":197:198   */\n      0x00\n        /* \"#utility.yul\":194:195   */\n      0x00\n        /* \"#utility.yul\":187:199   */\n      revert\n        /* \"#utility.yul\":334:411   */\n    tag_43:\n        /* \"#utility.yul\":371:378   */\n      0x00\n        /* \"#utility.yul\":400:405   */\n      dup2\n        /* \"#utility.yul\":389:405   */\n      swap1\n      pop\n        /* \"#utility.yul\":334:411   */\n      swap2\n      swap1\n      pop\n      jump\t// out\n        /* \"#utility.yul\":417:539   */\n    tag_44:\n        /* \"#utility.yul\":490:514   */\n      tag_66\n        /* \"#utility.yul\":508:513   */\n      dup2\n        /* \"#utility.yul\":490:514   */\n      tag_43\n      jump\t// in\n    tag_66:\n        /* \"#utility.yul\":483:488   */\n      dup2\n        /* \"#utility.yul\":480:515   */\n      eq\n        /* \"#utility.yul\":470:533   */\n      tag_67\n      jumpi\n        /* \"#utility.yul\":529:530   */\n      0x00\n        /* \"#utility.yul\":526:527   */\n      0x00\n        /* \"#utility.yul\":519:531   */\n      revert\n        /* \"#utility.yul\":470:533   */\n    tag_67:\n        /* \"#utility.yul\":417:539   */\n      pop\n      jump\t// out\n        /* \"#utility.yul\":545:684   */\n    tag_45:\n        /* \"#utility.yul\":591:596   */\n      0x00\n        /* \"#utility.yul\":629:635   */\n      dup2\n        /* \"#utility.yul\":616:636   */\n      calldataload\n        /* \"#utility.yul\":607:636   */\n      swap1\n      pop\n        /* \"#utility.yul\":645:678   */\n      tag_69\n        /* \"#utility.yul\":672:677   */\n      dup2\n        /* \"#utility.yul\":645:678   */\n      tag_44\n      jump\t// in\n    tag_69:\n        /* \"#utility.yul\":545:684   */\n      swap3\n      swap2\n      pop\n      pop\n      jump\t// out\n        /* \"#utility.yul\":690:767   */\n    tag_46:\n        /* \"#utility.yul\":727:734   */\n      0x00\n        /* \"#utility.yul\":756:761   */\n      dup2\n        /* \"#utility.yul\":745:761   */\n      swap1\n      pop\n        /* \"#utility.yul\":690:767   */\n      swap2\n      swap1\n      pop\n      jump\t// out\n        /* \"#utility.yul\":773:895   */\n    tag_47:\n        /* \"#utility.yul\":846:870   */\n      tag_72\n        /* \"#utility.yul\":864:869   */\n      dup2\n        /* \"#utility.yul\":846:870   */\n      tag_46\n      jump\t// in\n    tag_72:\n        /* \"#utility.yul\":839:844   */\n      dup2\n        /* \"#utility.yul\":836:871   */\n      eq\n        /* \"#utility.yul\":826:889   */\n      tag_73\n      jumpi\n        /* \"#utility.yul\":885:886   */\n      0x00\n        /* \"#utility.yul\":882:883   */\n      0x00\n        /* \"#utility.yul\":875:887   */\n      revert\n        /* \"#utility.yul\":826:889   */\n    tag_73:\n        /* \"#utility.yul\":773:895   */\n      pop\n      jump\t// out\n        /* \"#utility.yul\":901:1040   */\n    tag_48:\n        /* \"#utility.yul\":947:952   */\n      0x00\n        /* \"#utility.yul\":985:991   */\n      dup2\n        /* \"#utility.yul\":972:992   */\n      calldataload\n        /* \"#utility.yul\":963:992   */\n      swap1\n      pop\n        /* \"#utility.yul\":1001:1034   */\n      tag_75\n        /* \"#utility.yul\":1028:1033   */\n      dup2\n        /* \"#utility.yul\":1001:1034   */\n      tag_47\n      jump\t// in\n    tag_75:\n        /* \"#utility.yul\":901:1040   */\n      swap3\n      swap2\n      pop\n      pop\n      jump\t// out\n        /* \"#utility.yul\":1046:1665   */\n    tag_9:\n        /* \"#utility.yul\":1123:1129   */\n      0x00\n        /* \"#utility.yul\":1131:1137   */\n      0x00\n        /* \"#utility.yul\":1139:1145   */\n      0x00\n        /* \"#utility.yul\":1188:1190   */\n      0x60\n        /* \"#utility.yul\":1176:1185   */\n      dup5\n        /* \"#utility.yul\":1167:1174   */\n      dup7\n        /* \"#utility.yul\":1163:1186   */\n      sub\n        /* \"#utility.yul\":1159:1191   */\n      slt\n        /* \"#utility.yul\":1156:1275   */\n      iszero\n      tag_77\n      jumpi\n        /* \"#utility.yul\":1194:1273   */\n      tag_78\n      tag_41\n      jump\t// in\n    tag_78:\n        /* \"#utility.yul\":1156:1275   */\n    tag_77:\n        /* \"#utility.yul\":1314:1315   */\n      0x00\n        /* \"#utility.yul\":1339:1392   */\n      tag_79\n        /* \"#utility.yul\":1384:1391   */\n      dup7\n        /* \"#utility.yul\":1375:1381   */\n      dup3\n        /* \"#utility.yul\":1364:1373   */\n      dup8\n        /* \"#utility.yul\":1360:1382   */\n      add\n        /* \"#utility.yul\":1339:1392   */\n      tag_45\n      jump\t// in\n    tag_79:\n        /* \"#utility.yul\":1329:1392   */\n      swap4\n      pop\n        /* \"#utility.yul\":1285:1402   */\n      pop\n        /* \"#utility.yul\":1441:1443   */\n      0x20\n        /* \"#utility.yul\":1467:1520   */\n      tag_80\n        /* \"#utility.yul\":1512:1519   */\n      dup7\n        /* \"#utility.yul\":1503:1509   */\n      dup3\n        /* \"#utility.yul\":1492:1501   */\n      dup8\n        /* \"#utility.yul\":1488:1510   */\n      add\n        /* \"#utility.yul\":1467:1520   */\n      tag_48\n      jump\t// in\n    tag_80:\n        /* \"#utility.yul\":1457:1520   */\n      swap3\n      pop\n        /* \"#utility.yul\":1412:1530   */\n      pop\n        /* \"#utility.yul\":1569:1571   */\n      0x40\n        /* \"#utility.yul\":1595:1648   */\n      tag_81\n        /* \"#utility.yul\":1640:1647   */\n      dup7\n        /* \"#utility.yul\":1631:1637   */\n      dup3\n        /* \"#utility.yul\":1620:1629   */\n      dup8\n        /* \"#utility.yul\":1616:1638   */\n      add\n        /* \"#utility.yul\":1595:1648   */\n      tag_48\n      jump\t// in\n    tag_81:\n        /* \"#utility.yul\":1585:1648   */\n      swap2\n      pop\n        /* \"#utility.yul\":1540:1658   */\n      pop\n        /* \"#utility.yul\":1046:1665   */\n      swap3\n      pop\n      swap3\n      pop\n      swap3\n      jump\t// out\n        /* \"#utility.yul\":1671:1789   */\n    tag_49:\n        /* \"#utility.yul\":1758:1782   */\n      tag_83\n        /* \"#utility.yul\":1776:1781   */\n      dup2\n        /* \"#utility.yul\":1758:1782   */\n      tag_43\n      jump\t// in\n    tag_83:\n        /* \"#utility.yul\":1753:1756   */\n      dup3\n        /* \"#utility.yul\":1746:1783   */\n      mstore\n        /* \"#utility.yul\":1671:1789   */\n      pop\n      pop\n      jump\t// out\n        /* \"#utility.yul\":1795:2017   */\n    tag_14:\n        /* \"#utility.yul\":1888:1892   */\n      0x00\n        /* \"#utility.yul\":1926:1928   */\n      0x20\n        /* \"#utility.yul\":1915:1924   */\n      dup3\n        /* \"#utility.yul\":1911:1929   */\n      add\n        /* \"#utility.yul\":1903:1929   */\n      swap1\n      pop\n        /* \"#utility.yul\":1939:2010   */\n      tag_85\n        /* \"#utility.yul\":2007:2008   */\n      0x00\n        /* \"#utility.yul\":1996:2005   */\n      dup4\n        /* \"#utility.yul\":1992:2009   */\n      add\n        /* \"#utility.yul\":1983:1989   */\n      dup5\n        /* \"#utility.yul\":1939:2010   */\n      tag_49\n      jump\t// in\n    tag_85:\n        /* \"#utility.yul\":1795:2017   */\n      swap3\n      swap2\n      pop\n      pop\n      jump\t// out\n        /* \"#utility.yul\":2023:2352   */\n    tag_17:\n        /* \"#utility.yul\":2082:2088   */\n      0x00\n        /* \"#utility.yul\":2131:2133   */\n      0x20\n        /* \"#utility.yul\":2119:2128   */\n      dup3\n        /* \"#utility.yul\":2110:2117   */\n      dup5\n        /* \"#utility.yul\":2106:2129   */\n      sub\n        /* \"#utility.yul\":2102:2134   */\n      slt\n        /* \"#utility.yul\":2099:2218   */\n      iszero\n      tag_87\n      jumpi\n        /* \"#utility.yul\":2137:2216   */\n      tag_88\n      tag_41\n      jump\t// in\n    tag_88:\n        /* \"#utility.yul\":2099:2218   */\n    tag_87:\n        /* \"#utility.yul\":2257:2258   */\n      0x00\n        /* \"#utility.yul\":2282:2335   */\n      tag_89\n        /* \"#utility.yul\":2327:2334   */\n      dup5\n        /* \"#utility.yul\":2318:2324   */\n      dup3\n        /* \"#utility.yul\":2307:2316   */\n      dup6\n        /* \"#utility.yul\":2303:2325   */\n      add\n        /* \"#utility.yul\":2282:2335   */\n      tag_45\n      jump\t// in\n    tag_89:\n        /* \"#utility.yul\":2272:2335   */\n      swap2\n      pop\n        /* \"#utility.yul\":2228:2345   */\n      pop\n        /* \"#utility.yul\":2023:2352   */\n      swap3\n      swap2\n      pop\n      pop\n      jump\t// out\n        /* \"#utility.yul\":2358:2476   */\n    tag_50:\n        /* \"#utility.yul\":2445:2469   */\n      tag_91\n        /* \"#utility.yul\":2463:2468   */\n      dup2\n        /* \"#utility.yul\":2445:2469   */\n      tag_46\n      jump\t// in\n    tag_91:\n        /* \"#utility.yul\":2440:2443   */\n      dup3\n        /* \"#utility.yul\":2433:2470   */\n      mstore\n        /* \"#utility.yul\":2358:2476   */\n      pop\n      pop\n      jump\t// out\n        /* \"#utility.yul\":2482:2924   */\n    tag_20:\n        /* \"#utility.yul\":2631:2635   */\n      0x00\n        /* \"#utility.yul\":2669:2671   */\n      0x60\n        /* \"#utility.yul\":2658:2667   */\n      dup3\n        /* \"#utility.yul\":2654:2672   */\n      add\n        /* \"#utility.yul\":2646:2672   */\n      swap1\n      pop\n        /* \"#utility.yul\":2682:2753   */\n      tag_93\n        /* \"#utility.yul\":2750:2751   */\n      0x00\n        /* \"#utility.yul\":2739:2748   */\n      dup4\n        /* \"#utility.yul\":2735:2752   */\n      add\n        /* \"#utility.yul\":2726:2732   */\n      dup7\n        /* \"#utility.yul\":2682:2753   */\n      tag_50\n      jump\t// in\n    tag_93:\n        /* \"#utility.yul\":2763:2835   */\n      tag_94\n        /* \"#utility.yul\":2831:2833   */\n      0x20\n        /* \"#utility.yul\":2820:2829   */\n      dup4\n        /* \"#utility.yul\":2816:2834   */\n      add\n        /* \"#utility.yul\":2807:2813   */\n      dup6\n        /* \"#utility.yul\":2763:2835   */\n      tag_49\n      jump\t// in\n    tag_94:\n        /* \"#utility.yul\":2845:2917   */\n      tag_95\n        /* \"#utility.yul\":2913:2915   */\n      0x40\n        /* \"#utility.yul\":2902:2911   */\n      dup4\n        /* \"#utility.yul\":2898:2916   */\n      add\n        /* \"#utility.yul\":2889:2895   */\n      dup5\n        /* \"#utility.yul\":2845:2917   */\n      tag_50\n      jump\t// in\n    tag_95:\n        /* \"#utility.yul\":2482:2924   */\n      swap5\n      swap4\n      pop\n      pop\n      pop\n      pop\n      jump\t// out\n        /* \"#utility.yul\":2930:3038   */\n    tag_51:\n        /* \"#utility.yul\":3007:3031   */\n      tag_97\n        /* \"#utility.yul\":3025:3030   */\n      dup2\n        /* \"#utility.yul\":3007:3031   */\n      tag_46\n      jump\t// in\n    tag_97:\n        /* \"#utility.yul\":3002:3005   */\n      dup3\n        /* \"#utility.yul\":2995:3032   */\n      mstore\n        /* \"#utility.yul\":2930:3038   */\n      pop\n      pop\n      jump\t// out\n        /* \"#utility.yul\":3044:3152   */\n    tag_52:\n        /* \"#utility.yul\":3121:3145   */\n      tag_99\n        /* \"#utility.yul\":3139:3144   */\n      dup2\n        /* \"#utility.yul\":3121:3145   */\n      tag_43\n      jump\t// in\n    tag_99:\n        /* \"#utility.yul\":3116:3119   */\n      dup3\n        /* \"#utility.yul\":3109:3146   */\n      mstore\n        /* \"#utility.yul\":3044:3152   */\n      pop\n      pop\n      jump\t// out\n        /* \"#utility.yul\":3220:3911   */\n    tag_53:\n        /* \"#utility.yul\":3359:3363   */\n      0x60\n        /* \"#utility.yul\":3354:3357   */\n      dup3\n        /* \"#utility.yul\":3350:3364   */\n      add\n        /* \"#utility.yul\":3451:3455   */\n      0x00\n        /* \"#utility.yul\":3444:3449   */\n      dup3\n        /* \"#utility.yul\":3440:3456   */\n      add\n        /* \"#utility.yul\":3434:3457   */\n      mload\n        /* \"#utility.yul\":3470:3533   */\n      tag_101\n        /* \"#utility.yul\":3527:3531   */\n      0x00\n        /* \"#utility.yul\":3522:3525   */\n      dup6\n        /* \"#utility.yul\":3518:3532   */\n      add\n        /* \"#utility.yul\":3504:3516   */\n      dup3\n        /* \"#utility.yul\":3470:3533   */\n      tag_51\n      jump\t// in\n    tag_101:\n        /* \"#utility.yul\":3374:3543   */\n      pop\n        /* \"#utility.yul\":3632:3636   */\n      0x20\n        /* \"#utility.yul\":3625:3630   */\n      dup3\n        /* \"#utility.yul\":3621:3637   */\n      add\n        /* \"#utility.yul\":3615:3638   */\n      mload\n        /* \"#utility.yul\":3651:3714   */\n      tag_102\n        /* \"#utility.yul\":3708:3712   */\n      0x20\n        /* \"#utility.yul\":3703:3706   */\n      dup6\n        /* \"#utility.yul\":3699:3713   */\n      add\n        /* \"#utility.yul\":3685:3697   */\n      dup3\n        /* \"#utility.yul\":3651:3714   */\n      tag_52\n      jump\t// in\n    tag_102:\n        /* \"#utility.yul\":3553:3724   */\n      pop\n        /* \"#utility.yul\":3812:3816   */\n      0x40\n        /* \"#utility.yul\":3805:3810   */\n      dup3\n        /* \"#utility.yul\":3801:3817   */\n      add\n        /* \"#utility.yul\":3795:3818   */\n      mload\n        /* \"#utility.yul\":3831:3894   */\n      tag_103\n        /* \"#utility.yul\":3888:3892   */\n      0x40\n        /* \"#utility.yul\":3883:3886   */\n      dup6\n        /* \"#utility.yul\":3879:3893   */\n      add\n        /* \"#utility.yul\":3865:3877   */\n      dup3\n        /* \"#utility.yul\":3831:3894   */\n      tag_51\n      jump\t// in\n    tag_103:\n        /* \"#utility.yul\":3734:3904   */\n      pop\n        /* \"#utility.yul\":3328:3911   */\n      pop\n        /* \"#utility.yul\":3220:3911   */\n      pop\n      pop\n      jump\t// out\n        /* \"#utility.yul\":3917:4223   */\n    tag_24:\n        /* \"#utility.yul\":4052:4056   */\n      0x00\n        /* \"#utility.yul\":4090:4092   */\n      0x60\n        /* \"#utility.yul\":4079:4088   */\n      dup3\n        /* \"#utility.yul\":4075:4093   */\n      add\n        /* \"#utility.yul\":4067:4093   */\n      swap1\n      pop\n        /* \"#utility.yul\":4103:4216   */\n      tag_105\n        /* \"#utility.yul\":4213:4214   */\n      0x00\n        /* \"#utility.yul\":4202:4211   */\n      dup4\n        /* \"#utility.yul\":4198:4215   */\n      add\n        /* \"#utility.yul\":4189:4195   */\n      dup5\n        /* \"#utility.yul\":4103:4216   */\n      tag_53\n      jump\t// in\n    tag_105:\n        /* \"#utility.yul\":3917:4223   */\n      swap3\n      swap2\n      pop\n      pop\n      jump\t// out\n        /* \"#utility.yul\":4229:4398   */\n    tag_54:\n        /* \"#utility.yul\":4313:4324   */\n      0x00\n        /* \"#utility.yul\":4347:4353   */\n      dup3\n        /* \"#utility.yul\":4342:4345   */\n      dup3\n        /* \"#utility.yul\":4335:4354   */\n      mstore\n        /* \"#utility.yul\":4387:4391   */\n      0x20\n        /* \"#utility.yul\":4382:4385   */\n      dup3\n        /* \"#utility.yul\":4378:4392   */\n      add\n        /* \"#utility.yul\":4363:4392   */\n      swap1\n      pop\n        /* \"#utility.yul\":4229:4398   */\n      swap3\n      swap2\n      pop\n      pop\n      jump\t// out\n        /* \"#utility.yul\":4404:4571   */\n    tag_55:\n        /* \"#utility.yul\":4544:4563   */\n      0x416c7265616479207375626d6974746564000000000000000000000000000000\n        /* \"#utility.yul\":4540:4541   */\n      0x00\n        /* \"#utility.yul\":4532:4538   */\n      dup3\n        /* \"#utility.yul\":4528:4542   */\n      add\n        /* \"#utility.yul\":4521:4564   */\n      mstore\n        /* \"#utility.yul\":4404:4571   */\n      pop\n      jump\t// out\n        /* \"#utility.yul\":4577:4943   */\n    tag_56:\n        /* \"#utility.yul\":4719:4722   */\n      0x00\n        /* \"#utility.yul\":4740:4807   */\n      tag_109\n        /* \"#utility.yul\":4804:4806   */\n      0x11\n        /* \"#utility.yul\":4799:4802   */\n      dup4\n        /* \"#utility.yul\":4740:4807   */\n      tag_54\n      jump\t// in\n    tag_109:\n        /* \"#utility.yul\":4733:4807   */\n      swap2\n      pop\n        /* \"#utility.yul\":4816:4909   */\n      tag_110\n        /* \"#utility.yul\":4905:4908   */\n      dup3\n        /* \"#utility.yul\":4816:4909   */\n      tag_55\n      jump\t// in\n    tag_110:\n        /* \"#utility.yul\":4934:4936   */\n      0x20\n        /* \"#utility.yul\":4929:4932   */\n      dup3\n        /* \"#utility.yul\":4925:4937   */\n      add\n        /* \"#utility.yul\":4918:4937   */\n      swap1\n      pop\n        /* \"#utility.yul\":4577:4943   */\n      swap2\n      swap1\n      pop\n      jump\t// out\n        /* \"#utility.yul\":4949:5368   */\n    tag_28:\n        /* \"#utility.yul\":5115:5119   */\n      0x00\n        /* \"#utility.yul\":5153:5155   */\n      0x20\n        /* \"#utility.yul\":5142:5151   */\n      dup3\n        /* \"#utility.yul\":5138:5156   */\n      add\n        /* \"#utility.yul\":5130:5156   */\n      swap1\n      pop\n        /* \"#utility.yul\":5202:5211   */\n      dup2\n        /* \"#utility.yul\":5196:5200   */\n      dup2\n        /* \"#utility.yul\":5192:5212   */\n      sub\n        /* \"#utility.yul\":5188:5189   */\n      0x00\n        /* \"#utility.yul\":5177:5186   */\n      dup4\n        /* \"#utility.yul\":5173:5190   */\n      add\n        /* \"#utility.yul\":5166:5213   */\n      mstore\n        /* \"#utility.yul\":5230:5361   */\n      tag_112\n        /* \"#utility.yul\":5356:5360   */\n      dup2\n        /* \"#utility.yul\":5230:5361   */\n      tag_56\n      jump\t// in\n    tag_112:\n        /* \"#utility.yul\":5222:5361   */\n      swap1\n      pop\n        /* \"#utility.yul\":4949:5368   */\n      swap2\n      swap1\n      pop\n      jump\t// out\n        /* \"#utility.yul\":5374:5554   */\n    tag_57:\n        /* \"#utility.yul\":5422:5499   */\n      0x4e487b7100000000000000000000000000000000000000000000000000000000\n        /* \"#utility.yul\":5419:5420   */\n      0x00\n        /* \"#utility.yul\":5412:5500   */\n      mstore\n        /* \"#utility.yul\":5519:5523   */\n      0x11\n        /* \"#utility.yul\":5516:5517   */\n      0x04\n        /* \"#utility.yul\":5509:5524   */\n      mstore\n        /* \"#utility.yul\":5543:5547   */\n      0x24\n        /* \"#utility.yul\":5540:5541   */\n      0x00\n        /* \"#utility.yul\":5533:5548   */\n      revert\n        /* \"#utility.yul\":5560:5754   */\n    tag_31:\n        /* \"#utility.yul\":5600:5604   */\n      0x00\n        /* \"#utility.yul\":5620:5640   */\n      tag_115\n        /* \"#utility.yul\":5638:5639   */\n      dup3\n        /* \"#utility.yul\":5620:5640   */\n      tag_43\n      jump\t// in\n    tag_115:\n        /* \"#utility.yul\":5615:5640   */\n      swap2\n      pop\n        /* \"#utility.yul\":5654:5674   */\n      tag_116\n        /* \"#utility.yul\":5672:5673   */\n      dup4\n        /* \"#utility.yul\":5654:5674   */\n      tag_43\n      jump\t// in\n    tag_116:\n        /* \"#utility.yul\":5649:5674   */\n      swap3\n      pop\n        /* \"#utility.yul\":5698:5699   */\n      dup3\n        /* \"#utility.yul\":5695:5696   */\n      dup3\n        /* \"#utility.yul\":5691:5700   */\n      sub\n        /* \"#utility.yul\":5683:5700   */\n      swap1\n      pop\n        /* \"#utility.yul\":5722:5723   */\n      dup2\n        /* \"#utility.yul\":5716:5720   */\n      dup2\n        /* \"#utility.yul\":5713:5724   */\n      gt\n        /* \"#utility.yul\":5710:5747   */\n      iszero\n      tag_117\n      jumpi\n        /* \"#utility.yul\":5727:5745   */\n      tag_118\n      tag_57\n      jump\t// in\n    tag_118:\n        /* \"#utility.yul\":5710:5747   */\n    tag_117:\n        /* \"#utility.yul\":5560:5754   */\n      swap3\n      swap2\n      pop\n      pop\n      jump\t// out\n        /* \"#utility.yul\":5760:5924   */\n    tag_58:\n        /* \"#utility.yul\":5900:5916   */\n      0x496e76616c696420706172656e74000000000000000000000000000000000000\n        /* \"#utility.yul\":5896:5897   */\n      0x00\n        /* \"#utility.yul\":5888:5894   */\n      dup3\n        /* \"#utility.yul\":5884:5898   */\n      add\n        /* \"#utility.yul\":5877:5917   */\n      mstore\n        /* \"#utility.yul\":5760:5924   */\n      pop\n      jump\t// out\n        /* \"#utility.yul\":5930:6296   */\n    tag_59:\n        /* \"#utility.yul\":6072:6075   */\n      0x00\n        /* \"#utility.yul\":6093:6160   */\n      tag_121\n        /* \"#utility.yul\":6157:6159   */\n      0x0e\n        /* \"#utility.yul\":6152:6155   */\n      dup4\n        /* \"#utility.yul\":6093:6160   */\n      tag_54\n      jump\t// in\n    tag_121:\n        /* \"#utility.yul\":6086:6160   */\n      swap2\n      pop\n        /* \"#utility.yul\":6169:6262   */\n      tag_122\n        /* \"#utility.yul\":6258:6261   */\n      dup3\n        /* \"#utility.yul\":6169:6262   */\n      tag_58\n      jump\t// in\n    tag_122:\n        /* \"#utility.yul\":6287:6289   */\n      0x20\n        /* \"#utility.yul\":6282:6285   */\n      dup3\n        /* \"#utility.yul\":6278:6290   */\n      add\n        /* \"#utility.yul\":6271:6290   */\n      swap1\n      pop\n        /* \"#utility.yul\":5930:6296   */\n      swap2\n      swap1\n      pop\n      jump\t// out\n        /* \"#utility.yul\":6302:6721   */\n    tag_34:\n        /* \"#utility.yul\":6468:6472   */\n      0x00\n        /* \"#utility.yul\":6506:6508   */\n      0x20\n        /* \"#utility.yul\":6495:6504   */\n      dup3\n        /* \"#utility.yul\":6491:6509   */\n      add\n        /* \"#utility.yul\":6483:6509   */\n      swap1\n      pop\n        /* \"#utility.yul\":6555:6564   */\n      dup2\n        /* \"#utility.yul\":6549:6553   */\n      dup2\n        /* \"#utility.yul\":6545:6565   */\n      sub\n        /* \"#utility.yul\":6541:6542   */\n      0x00\n        /* \"#utility.yul\":6530:6539   */\n      dup4\n        /* \"#utility.yul\":6526:6543   */\n      add\n        /* \"#utility.yul\":6519:6566   */\n      mstore\n        /* \"#utility.yul\":6583:6714   */\n      tag_124\n        /* \"#utility.yul\":6709:6713   */\n      dup2\n        /* \"#utility.yul\":6583:6714   */\n      tag_59\n      jump\t// in\n    tag_124:\n        /* \"#utility.yul\":6575:6714   */\n      swap1\n      pop\n        /* \"#utility.yul\":6302:6721   */\n      swap2\n      swap1\n      pop\n      jump\t// out\n        /* \"#utility.yul\":6727:7059   */\n    tag_36:\n        /* \"#utility.yul\":6848:6852   */\n      0x00\n        /* \"#utility.yul\":6886:6888   */\n      0x40\n        /* \"#utility.yul\":6875:6884   */\n      dup3\n        /* \"#utility.yul\":6871:6889   */\n      add\n        /* \"#utility.yul\":6863:6889   */\n      swap1\n      pop\n        /* \"#utility.yul\":6899:6970   */\n      tag_126\n        /* \"#utility.yul\":6967:6968   */\n      0x00\n        /* \"#utility.yul\":6956:6965   */\n      dup4\n        /* \"#utility.yul\":6952:6969   */\n      add\n        /* \"#utility.yul\":6943:6949   */\n      dup6\n        /* \"#utility.yul\":6899:6970   */\n      tag_49\n      jump\t// in\n    tag_126:\n        /* \"#utility.yul\":6980:7052   */\n      tag_127\n        /* \"#utility.yul\":7048:7050   */\n      0x20\n        /* \"#utility.yul\":7037:7046   */\n      dup4\n        /* \"#utility.yul\":7033:7051   */\n      add\n        /* \"#utility.yul\":7024:7030   */\n      dup5\n        /* \"#utility.yul\":6980:7052   */\n      tag_50\n      jump\t// in\n    tag_127:\n        /* \"#utility.yul\":6727:7059   */\n      swap4\n      swap3\n      pop\n      pop\n      pop\n      jump\t// out\n\n    auxdata: 0xa26469706673582212204e51a08ec62aa737202790d9879aedd7a13a05e29e02e4631d4e6a00f5b4268364736f6c634300081d0033\n}\n",
				"bytecode": {
					"linkReferences": {},
					"object": "6080604052348015600e575f5ffd5b5061061b8061001c5f395ff3fe608060405234801561000f575f5ffd5b506004361061004a575f3560e01c806301ad67b31461004e57806307e2da961461006a57806356f90d7914610088578063c29a670f146100ba575b5f5ffd5b61006860048036038101906100639190610320565b6100d8565b005b610072610226565b60405161007f919061037f565b60405180910390f35b6100a2600480360381019061009d9190610398565b61022c565b6040516100b1939291906103d2565b60405180910390f35b6100c2610251565b6040516100cf9190610465565b60405180910390f35b5f5f1b5f5f8581526020019081526020015f205f01541461012e576040517f08c379a0000000000000000000000000000000000000000000000000000000008152600401610125906104d8565b60405180910390fd5b5f83111561019757805f5f6001866101469190610523565b81526020019081526020015f205f015414610196576040517f08c379a000000000000000000000000000000000000000000000000000000000815260040161018d906105a0565b60405180910390fd5b5b6040518060600160405280838152602001848152602001828152505f5f8581526020019081526020015f205f820151815f01556020820151816001015560408201518160020155905050826001819055507fc3cdbec61d16ea62ad5f0486fd7f8295a5a01e7552ae25867133c01e2039b11c83836040516102199291906105be565b60405180910390a1505050565b60015481565b5f602052805f5260405f205f91509050805f0154908060010154908060020154905083565b610259610298565b5f5f60015481526020019081526020015f206040518060600160405290815f820154815260200160018201548152602001600282015481525050905090565b60405180606001604052805f81526020015f81526020015f81525090565b5f5ffd5b5f819050919050565b6102cc816102ba565b81146102d6575f5ffd5b50565b5f813590506102e7816102c3565b92915050565b5f819050919050565b6102ff816102ed565b8114610309575f5ffd5b50565b5f8135905061031a816102f6565b92915050565b5f5f5f60608486031215610337576103366102b6565b5b5f610344868287016102d9565b93505060206103558682870161030c565b92505060406103668682870161030c565b9150509250925092565b610379816102ba565b82525050565b5f6020820190506103925f830184610370565b92915050565b5f602082840312156103ad576103ac6102b6565b5b5f6103ba848285016102d9565b91505092915050565b6103cc816102ed565b82525050565b5f6060820190506103e55f8301866103c3565b6103f26020830185610370565b6103ff60408301846103c3565b949350505050565b610410816102ed565b82525050565b61041f816102ba565b82525050565b606082015f8201516104395f850182610407565b50602082015161044c6020850182610416565b50604082015161045f6040850182610407565b50505050565b5f6060820190506104785f830184610425565b92915050565b5f82825260208201905092915050565b7f416c7265616479207375626d69747465640000000000000000000000000000005f82015250565b5f6104c260118361047e565b91506104cd8261048e565b602082019050919050565b5f6020820190508181035f8301526104ef816104b6565b9050919050565b7f4e487b71000000000000000000000000000000000000000000000000000000005f52601160045260245ffd5b5f61052d826102ba565b9150610538836102ba565b92508282039050818111156105505761054f6104f6565b5b92915050565b7f496e76616c696420706172656e740000000000000000000000000000000000005f82015250565b5f61058a600e8361047e565b915061059582610556565b602082019050919050565b5f6020820190508181035f8301526105b78161057e565b9050919050565b5f6040820190506105d15f830185610370565b6105de60208301846103c3565b939250505056fea26469706673582212204e51a08ec62aa737202790d9879aedd7a13a05e29e02e4631d4e6a00f5b4268364736f6c634300081d0033",
					"opcodes": "PUSH1 0x80 PUSH1 0x40 MSTORE CALLVALUE DUP1 ISZERO PUSH1 0xE JUMPI PUSH0 PUSH0 REVERT JUMPDEST POP PUSH2 0x61B DUP1 PUSH2 0x1C PUSH0 CODECOPY PUSH0 RETURN INVALID PUSH1 0x80 PUSH1 0x40 MSTORE CALLVALUE DUP1 ISZERO PUSH2 0xF JUMPI PUSH0 PUSH0 REVERT JUMPDEST POP PUSH1 0x4 CALLDATASIZE LT PUSH2 0x4A JUMPI PUSH0 CALLDATALOAD PUSH1 0xE0 SHR DUP1 PUSH4 0x1AD67B3 EQ PUSH2 0x4E JUMPI DUP1 PUSH4 0x7E2DA96 EQ PUSH2 0x6A JUMPI DUP1 PUSH4 0x56F90D79 EQ PUSH2 0x88 JUMPI DUP1 PUSH4 0xC29A670F EQ PUSH2 0xBA JUMPI JUMPDEST PUSH0 PUSH0 REVERT JUMPDEST PUSH2 0x68 PUSH1 0x4 DUP1 CALLDATASIZE SUB DUP2 ADD SWAP1 PUSH2 0x63 SWAP2 SWAP1 PUSH2 0x320 JUMP JUMPDEST PUSH2 0xD8 JUMP JUMPDEST STOP JUMPDEST PUSH2 0x72 PUSH2 0x226 JUMP JUMPDEST PUSH1 0x40 MLOAD PUSH2 0x7F SWAP2 SWAP1 PUSH2 0x37F JUMP JUMPDEST PUSH1 0x40 MLOAD DUP1 SWAP2 SUB SWAP1 RETURN JUMPDEST PUSH2 0xA2 PUSH1 0x4 DUP1 CALLDATASIZE SUB DUP2 ADD SWAP1 PUSH2 0x9D SWAP2 SWAP1 PUSH2 0x398 JUMP JUMPDEST PUSH2 0x22C JUMP JUMPDEST PUSH1 0x40 MLOAD PUSH2 0xB1 SWAP4 SWAP3 SWAP2 SWAP1 PUSH2 0x3D2 JUMP JUMPDEST PUSH1 0x40 MLOAD DUP1 SWAP2 SUB SWAP1 RETURN JUMPDEST PUSH2 0xC2 PUSH2 0x251 JUMP JUMPDEST PUSH1 0x40 MLOAD PUSH2 0xCF SWAP2 SWAP1 PUSH2 0x465 JUMP JUMPDEST PUSH1 0x40 MLOAD DUP1 SWAP2 SUB SWAP1 RETURN JUMPDEST PUSH0 PUSH0 SHL PUSH0 PUSH0 DUP6 DUP2 MSTORE PUSH1 0x20 ADD SWAP1 DUP2 MSTORE PUSH1 0x20 ADD PUSH0 KECCAK256 PUSH0 ADD SLOAD EQ PUSH2 0x12E JUMPI PUSH1 0x40 MLOAD PUSH32 0x8C379A000000000000000000000000000000000000000000000000000000000 DUP2 MSTORE PUSH1 0x4 ADD PUSH2 0x125 SWAP1 PUSH2 0x4D8 JUMP JUMPDEST PUSH1 0x40 MLOAD DUP1 SWAP2 SUB SWAP1 REVERT JUMPDEST PUSH0 DUP4 GT ISZERO PUSH2 0x197 JUMPI DUP1 PUSH0 PUSH0 PUSH1 0x1 DUP7 PUSH2 0x146 SWAP2 SWAP1 PUSH2 0x523 JUMP JUMPDEST DUP2 MSTORE PUSH1 0x20 ADD SWAP1 DUP2 MSTORE PUSH1 0x20 ADD PUSH0 KECCAK256 PUSH0 ADD SLOAD EQ PUSH2 0x196 JUMPI PUSH1 0x40 MLOAD PUSH32 0x8C379A000000000000000000000000000000000000000000000000000000000 DUP2 MSTORE PUSH1 0x4 ADD PUSH2 0x18D SWAP1 PUSH2 0x5A0 JUMP JUMPDEST PUSH1 0x40 MLOAD DUP1 SWAP2 SUB SWAP1 REVERT JUMPDEST JUMPDEST PUSH1 0x40 MLOAD DUP1 PUSH1 0x60 ADD PUSH1 0x40 MSTORE DUP1 DUP4 DUP2 MSTORE PUSH1 0x20 ADD DUP5 DUP2 MSTORE PUSH1 0x20 ADD DUP3 DUP2 MSTORE POP PUSH0 PUSH0 DUP6 DUP2 MSTORE PUSH1 0x20 ADD SWAP1 DUP2 MSTORE PUSH1 0x20 ADD PUSH0 KECCAK256 PUSH0 DUP3 ADD MLOAD DUP2 PUSH0 ADD SSTORE PUSH1 0x20 DUP3 ADD MLOAD DUP2 PUSH1 0x1 ADD SSTORE PUSH1 0x40 DUP3 ADD MLOAD DUP2 PUSH1 0x2 ADD SSTORE SWAP1 POP POP DUP3 PUSH1 0x1 DUP2 SWAP1 SSTORE POP PUSH32 0xC3CDBEC61D16EA62AD5F0486FD7F8295A5A01E7552AE25867133C01E2039B11C DUP4 DUP4 PUSH1 0x40 MLOAD PUSH2 0x219 SWAP3 SWAP2 SWAP1 PUSH2 0x5BE JUMP JUMPDEST PUSH1 0x40 MLOAD DUP1 SWAP2 SUB SWAP1 LOG1 POP POP POP JUMP JUMPDEST PUSH1 0x1 SLOAD DUP2 JUMP JUMPDEST PUSH0 PUSH1 0x20 MSTORE DUP1 PUSH0 MSTORE PUSH1 0x40 PUSH0 KECCAK256 PUSH0 SWAP2 POP SWAP1 POP DUP1 PUSH0 ADD SLOAD SWAP1 DUP1 PUSH1 0x1 ADD SLOAD SWAP1 DUP1 PUSH1 0x2 ADD SLOAD SWAP1 POP DUP4 JUMP JUMPDEST PUSH2 0x259 PUSH2 0x298 JUMP JUMPDEST PUSH0 PUSH0 PUSH1 0x1 SLOAD DUP2 MSTORE PUSH1 0x20 ADD SWAP1 DUP2 MSTORE PUSH1 0x20 ADD PUSH0 KECCAK256 PUSH1 0x40 MLOAD DUP1 PUSH1 0x60 ADD PUSH1 0x40 MSTORE SWAP1 DUP2 PUSH0 DUP3 ADD SLOAD DUP2 MSTORE PUSH1 0x20 ADD PUSH1 0x1 DUP3 ADD SLOAD DUP2 MSTORE PUSH1 0x20 ADD PUSH1 0x2 DUP3 ADD SLOAD DUP2 MSTORE POP POP SWAP1 POP SWAP1 JUMP JUMPDEST PUSH1 0x40 MLOAD DUP1 PUSH1 0x60 ADD PUSH1 0x40 MSTORE DUP1 PUSH0 DUP2 MSTORE PUSH1 0x20 ADD PUSH0 DUP2 MSTORE PUSH1 0x20 ADD PUSH0 DUP2 MSTORE POP SWAP1 JUMP JUMPDEST PUSH0 PUSH0 REVERT JUMPDEST PUSH0 DUP2 SWAP1 POP SWAP2 SWAP1 POP JUMP JUMPDEST PUSH2 0x2CC DUP2 PUSH2 0x2BA JUMP JUMPDEST DUP2 EQ PUSH2 0x2D6 JUMPI PUSH0 PUSH0 REVERT JUMPDEST POP JUMP JUMPDEST PUSH0 DUP2 CALLDATALOAD SWAP1 POP PUSH2 0x2E7 DUP2 PUSH2 0x2C3 JUMP JUMPDEST SWAP3 SWAP2 POP POP JUMP JUMPDEST PUSH0 DUP2 SWAP1 POP SWAP2 SWAP1 POP JUMP JUMPDEST PUSH2 0x2FF DUP2 PUSH2 0x2ED JUMP JUMPDEST DUP2 EQ PUSH2 0x309 JUMPI PUSH0 PUSH0 REVERT JUMPDEST POP JUMP JUMPDEST PUSH0 DUP2 CALLDATALOAD SWAP1 POP PUSH2 0x31A DUP2 PUSH2 0x2F6 JUMP JUMPDEST SWAP3 SWAP2 POP POP JUMP JUMPDEST PUSH0 PUSH0 PUSH0 PUSH1 0x60 DUP5 DUP7 SUB SLT ISZERO PUSH2 0x337 JUMPI PUSH2 0x336 PUSH2 0x2B6 JUMP JUMPDEST JUMPDEST PUSH0 PUSH2 0x344 DUP7 DUP3 DUP8 ADD PUSH2 0x2D9 JUMP JUMPDEST SWAP4 POP POP PUSH1 0x20 PUSH2 0x355 DUP7 DUP3 DUP8 ADD PUSH2 0x30C JUMP JUMPDEST SWAP3 POP POP PUSH1 0x40 PUSH2 0x366 DUP7 DUP3 DUP8 ADD PUSH2 0x30C JUMP JUMPDEST SWAP2 POP POP SWAP3 POP SWAP3 POP SWAP3 JUMP JUMPDEST PUSH2 0x379 DUP2 PUSH2 0x2BA JUMP JUMPDEST DUP3 MSTORE POP POP JUMP JUMPDEST PUSH0 PUSH1 0x20 DUP3 ADD SWAP1 POP PUSH2 0x392 PUSH0 DUP4 ADD DUP5 PUSH2 0x370 JUMP JUMPDEST SWAP3 SWAP2 POP POP JUMP JUMPDEST PUSH0 PUSH1 0x20 DUP3 DUP5 SUB SLT ISZERO PUSH2 0x3AD JUMPI PUSH2 0x3AC PUSH2 0x2B6 JUMP JUMPDEST JUMPDEST PUSH0 PUSH2 0x3BA DUP5 DUP3 DUP6 ADD PUSH2 0x2D9 JUMP JUMPDEST SWAP2 POP POP SWAP3 SWAP2 POP POP JUMP JUMPDEST PUSH2 0x3CC DUP2 PUSH2 0x2ED JUMP JUMPDEST DUP3 MSTORE POP POP JUMP JUMPDEST PUSH0 PUSH1 0x60 DUP3 ADD SWAP1 POP PUSH2 0x3E5 PUSH0 DUP4 ADD DUP7 PUSH2 0x3C3 JUMP JUMPDEST PUSH2 0x3F2 PUSH1 0x20 DUP4 ADD DUP6 PUSH2 0x370 JUMP JUMPDEST PUSH2 0x3FF PUSH1 0x40 DUP4 ADD DUP5 PUSH2 0x3C3 JUMP JUMPDEST SWAP5 SWAP4 POP POP POP POP JUMP JUMPDEST PUSH2 0x410 DUP2 PUSH2 0x2ED JUMP JUMPDEST DUP3 MSTORE POP POP JUMP JUMPDEST PUSH2 0x41F DUP2 PUSH2 0x2BA JUMP JUMPDEST DUP3 MSTORE POP POP JUMP JUMPDEST PUSH1 0x60 DUP3 ADD PUSH0 DUP3 ADD MLOAD PUSH2 0x439 PUSH0 DUP6 ADD DUP3 PUSH2 0x407 JUMP JUMPDEST POP PUSH1 0x20 DUP3 ADD MLOAD PUSH2 0x44C PUSH1 0x20 DUP6 ADD DUP3 PUSH2 0x416 JUMP JUMPDEST POP PUSH1 0x40 DUP3 ADD MLOAD PUSH2 0x45F PUSH1 0x40 DUP6 ADD DUP3 PUSH2 0x407 JUMP JUMPDEST POP POP POP POP JUMP JUMPDEST PUSH0 PUSH1 0x60 DUP3 ADD SWAP1 POP PUSH2 0x478 PUSH0 DUP4 ADD DUP5 PUSH2 0x425 JUMP JUMPDEST SWAP3 SWAP2 POP POP JUMP JUMPDEST PUSH0 DUP3 DUP3 MSTORE PUSH1 0x20 DUP3 ADD SWAP1 POP SWAP3 SWAP2 POP POP JUMP JUMPDEST PUSH32 0x416C7265616479207375626D6974746564000000000000000000000000000000 PUSH0 DUP3 ADD MSTORE POP JUMP JUMPDEST PUSH0 PUSH2 0x4C2 PUSH1 0x11 DUP4 PUSH2 0x47E JUMP JUMPDEST SWAP2 POP PUSH2 0x4CD DUP3 PUSH2 0x48E JUMP JUMPDEST PUSH1 0x20 DUP3 ADD SWAP1 POP SWAP2 SWAP1 POP JUMP JUMPDEST PUSH0 PUSH1 0x20 DUP3 ADD SWAP1 POP DUP2 DUP2 SUB PUSH0 DUP4 ADD MSTORE PUSH2 0x4EF DUP2 PUSH2 0x4B6 JUMP JUMPDEST SWAP1 POP SWAP2 SWAP1 POP JUMP JUMPDEST PUSH32 0x4E487B7100000000000000000000000000000000000000000000000000000000 PUSH0 MSTORE PUSH1 0x11 PUSH1 0x4 MSTORE PUSH1 0x24 PUSH0 REVERT JUMPDEST PUSH0 PUSH2 0x52D DUP3 PUSH2 0x2BA JUMP JUMPDEST SWAP2 POP PUSH2 0x538 DUP4 PUSH2 0x2BA JUMP JUMPDEST SWAP3 POP DUP3 DUP3 SUB SWAP1 POP DUP2 DUP2 GT ISZERO PUSH2 0x550 JUMPI PUSH2 0x54F PUSH2 0x4F6 JUMP JUMPDEST JUMPDEST SWAP3 SWAP2 POP POP JUMP JUMPDEST PUSH32 0x496E76616C696420706172656E74000000000000000000000000000000000000 PUSH0 DUP3 ADD MSTORE POP JUMP JUMPDEST PUSH0 PUSH2 0x58A PUSH1 0xE DUP4 PUSH2 0x47E JUMP JUMPDEST SWAP2 POP PUSH2 0x595 DUP3 PUSH2 0x556 JUMP JUMPDEST PUSH1 0x20 DUP3 ADD SWAP1 POP SWAP2 SWAP1 POP JUMP JUMPDEST PUSH0 PUSH1 0x20 DUP3 ADD SWAP1 POP DUP2 DUP2 SUB PUSH0 DUP4 ADD MSTORE PUSH2 0x5B7 DUP2 PUSH2 0x57E JUMP JUMPDEST SWAP1 POP SWAP2 SWAP1 POP JUMP JUMPDEST PUSH0 PUSH1 0x40 DUP3 ADD SWAP1 POP PUSH2 0x5D1 PUSH0 DUP4 ADD DUP6 PUSH2 0x370 JUMP JUMPDEST PUSH2 0x5DE PUSH1 0x20 DUP4 ADD DUP5 PUSH2 0x3C3 JUMP JUMPDEST SWAP4 SWAP3 POP POP POP JUMP INVALID LOG2 PUSH5 0x6970667358 0x22 SLT KECCAK256 0x4E MLOAD LOG0 DUP15 0xC6 0x2A 0xA7 CALLDATACOPY KECCAK256 0x27 SWAP1 0xD9 DUP8 SWAP11 0xED 0xD7 LOG1 GASPRICE SDIV 0xE2 SWAP15 MUL RETF PUSH4 0x1D4E6A00 CREATE2 0xB4 0x26 DUP4 PUSH5 0x736F6C6343 STOP ADDMOD SAR STOP CALLER "
				},
				"gasEstimates": {
					"creation": {
						"codeDepositCost": "312600",
						"executionCost": "347",
						"totalCost": "312947"
					},
					"external": {
						"getLatestHeader()": "infinite",
						"headers(uint256)": "infinite",
						"latestBlock()": "2425",
						"submitHeader(uint256,bytes32,bytes32)": "infinite"
					}
				},
				"methodIdentifiers": {
					"getLatestHeader()": "c29a670f",
					"headers(uint256)": "56f90d79",
					"latestBlock()": "07e2da96",
					"submitHeader(uint256,bytes32,bytes32)": "01ad67b3"
				}
			},
			"storageLayout": {
				"storage": [
					{
						"astId": 14,
						"contract": "L/lightNode.sol:LightClient",
						"label": "headers",
						"offset": 0,
						"slot": "0",
						"type": "t_mapping(t_uint256,t_struct(Header)9_storage)"
					},
					{
						"astId": 16,
						"contract": "L/lightNode.sol:LightClient",
						"label": "latestBlock",
						"offset": 0,
						"slot": "1",
						"type": "t_uint256"
					}
				],
				"types": {
					"t_bytes32": {
						"encoding": "inplace",
						"label": "bytes32",
						"numberOfBytes": "32"
					},
					"t_mapping(t_uint256,t_struct(Header)9_storage)": {
						"encoding": "mapping",
						"key": "t_uint256",
						"label": "mapping(uint256 => struct LightClient.Header)",
						"numberOfBytes": "32",
						"value": "t_struct(Header)9_storage"
					},
					"t_struct(Header)9_storage": {
						"encoding": "inplace",
						"label": "struct LightClient.Header",
						"members": [
							{
								"astId": 4,
								"contract": "L/lightNode.sol:LightClient",
								"label": "blockHash",
								"offset": 0,
								"slot": "0",
								"type": "t_bytes32"
							},
							{
								"astId": 6,
								"contract": "L/lightNode.sol:LightClient",
								"label": "blockNumber",
								"offset": 0,
								"slot": "1",
								"type": "t_uint256"
							},
							{
								"astId": 8,
								"contract": "L/lightNode.sol:LightClient",
								"label": "parentHash",
								"offset": 0,
								"slot": "2",
								"type": "t_bytes32"
							}
						],
						"numberOfBytes": "96"
					},
					"t_uint256": {
						"encoding": "inplace",
						"label": "uint256",
						"numberOfBytes": "32"
					}
				}
			},
			"userdoc": {
				"kind": "user",
				"methods": {},
				"notice": "Stores and verifies minimal block headers like a light node",
				"version": 1
			}
		}
	}
}