{
	"L/Hard Liquidation.sol": {
		"HardLiquidation": {
			"abi": [
				{
					"inputs": [
						{
							"internalType": "address",
							"name": "",
							"type": "address"
						}
					],
					"name": "collateral",
					"outputs": [
						{
							"internalType": "uint256",
							"name": "",
							"type": "uint256"
						}
					],
					"stateMutability": "view",
					"type": "function"
				},
				{
					"inputs": [
						{
							"internalType": "address",
							"name": "",
							"type": "address"
						}
					],
					"name": "debt",
					"outputs": [
						{
							"internalType": "uint256",
							"name": "",
							"type": "uint256"
						}
					],
					"stateMutability": "view",
					"type": "function"
				},
				{
					"inputs": [
						{
							"internalType": "address",
							"name": "borrower",
							"type": "address"
						}
					],
					"name": "liquidate",
					"outputs": [],
					"stateMutability": "nonpayable",
					"type": "function"
				}
			],
			"devdoc": {
				"kind": "dev",
				"methods": {},
				"version": 1
			},
			"evm": {
				"assembly": "    /* \"L/Hard Liquidation.sol\":0:391  contract HardLiquidation {... */\n  mstore(0x40, 0x80)\n  callvalue\n  dup1\n  iszero\n  tag_1\n  jumpi\n  revert(0x00, 0x00)\ntag_1:\n  pop\n  dataSize(sub_0)\n  dup1\n  dataOffset(sub_0)\n  0x00\n  codecopy\n  0x00\n  return\nstop\n\nsub_0: assembly {\n        /* \"L/Hard Liquidation.sol\":0:391  contract HardLiquidation {... */\n      mstore(0x40, 0x80)\n      callvalue\n      dup1\n      iszero\n      tag_1\n      jumpi\n      revert(0x00, 0x00)\n    tag_1:\n      pop\n      jumpi(tag_2, lt(calldatasize, 0x04))\n      shr(0xe0, calldataload(0x00))\n      dup1\n      0x2f865568\n      eq\n      tag_3\n      jumpi\n      dup1\n      0x9b6c56ec\n      eq\n      tag_4\n      jumpi\n      dup1\n      0xa5fdc5de\n      eq\n      tag_5\n      jumpi\n    tag_2:\n      revert(0x00, 0x00)\n        /* \"L/Hard Liquidation.sol\":128:389  function liquidate(address borrower) external {... */\n    tag_3:\n      tag_6\n      0x04\n      dup1\n      calldatasize\n      sub\n      dup2\n      add\n      swap1\n      tag_7\n      swap2\n      swap1\n      tag_8\n      jump\t// in\n    tag_7:\n      tag_9\n      jump\t// in\n    tag_6:\n      stop\n        /* \"L/Hard Liquidation.sol\":82:121  mapping(address => uint256) public debt */\n    tag_4:\n      tag_10\n      0x04\n      dup1\n      calldatasize\n      sub\n      dup2\n      add\n      swap1\n      tag_11\n      swap2\n      swap1\n      tag_8\n      jump\t// in\n    tag_11:\n      tag_12\n      jump\t// in\n    tag_10:\n      mload(0x40)\n      tag_13\n      swap2\n      swap1\n      tag_14\n      jump\t// in\n    tag_13:\n      mload(0x40)\n      dup1\n      swap2\n      sub\n      swap1\n      return\n        /* \"L/Hard Liquidation.sol\":31:76  mapping(address => uint256) public collateral */\n    tag_5:\n      tag_15\n      0x04\n      dup1\n      calldatasize\n      sub\n      dup2\n      add\n      swap1\n      tag_16\n      swap2\n      swap1\n      tag_8\n      jump\t// in\n    tag_16:\n      tag_17\n      jump\t// in\n    tag_15:\n      mload(0x40)\n      tag_18\n      swap2\n      swap1\n      tag_14\n      jump\t// in\n    tag_18:\n      mload(0x40)\n      dup1\n      swap2\n      sub\n      swap1\n      return\n        /* \"L/Hard Liquidation.sol\":128:389  function liquidate(address borrower) external {... */\n    tag_9:\n        /* \"L/Hard Liquidation.sol\":209:219  collateral */\n      0x00\n        /* \"L/Hard Liquidation.sol\":209:229  collateral[borrower] */\n      0x00\n        /* \"L/Hard Liquidation.sol\":220:228  borrower */\n      dup3\n        /* \"L/Hard Liquidation.sol\":209:229  collateral[borrower] */\n      0xffffffffffffffffffffffffffffffffffffffff\n      and\n      0xffffffffffffffffffffffffffffffffffffffff\n      and\n      dup2\n      mstore\n      0x20\n      add\n      swap1\n      dup2\n      mstore\n      0x20\n      add\n      0x00\n      keccak256\n      sload\n        /* \"L/Hard Liquidation.sol\":192:196  debt */\n      0x01\n        /* \"L/Hard Liquidation.sol\":192:206  debt[borrower] */\n      0x00\n        /* \"L/Hard Liquidation.sol\":197:205  borrower */\n      dup4\n        /* \"L/Hard Liquidation.sol\":192:206  debt[borrower] */\n      0xffffffffffffffffffffffffffffffffffffffff\n      and\n      0xffffffffffffffffffffffffffffffffffffffff\n      and\n      dup2\n      mstore\n      0x20\n      add\n      swap1\n      dup2\n      mstore\n      0x20\n      add\n      0x00\n      keccak256\n      sload\n        /* \"L/Hard Liquidation.sol\":192:229  debt[borrower] > collateral[borrower] */\n      gt\n        /* \"L/Hard Liquidation.sol\":184:257  require(debt[borrower] > collateral[borrower], \"Not undercollateralized\") */\n      tag_20\n      jumpi\n      mload(0x40)\n      0x08c379a000000000000000000000000000000000000000000000000000000000\n      dup2\n      mstore\n      0x04\n      add\n      tag_21\n      swap1\n      tag_22\n      jump\t// in\n    tag_21:\n      mload(0x40)\n      dup1\n      swap2\n      sub\n      swap1\n      revert\n    tag_20:\n        /* \"L/Hard Liquidation.sol\":275:279  debt */\n      0x01\n        /* \"L/Hard Liquidation.sol\":275:289  debt[borrower] */\n      0x00\n        /* \"L/Hard Liquidation.sol\":280:288  borrower */\n      dup3\n        /* \"L/Hard Liquidation.sol\":275:289  debt[borrower] */\n      0xffffffffffffffffffffffffffffffffffffffff\n      and\n      0xffffffffffffffffffffffffffffffffffffffff\n      and\n      dup2\n      mstore\n      0x20\n      add\n      swap1\n      dup2\n      mstore\n      0x20\n      add\n      0x00\n      keccak256\n        /* \"L/Hard Liquidation.sol\":268:289  delete debt[borrower] */\n      0x00\n      swap1\n      sstore\n        /* \"L/Hard Liquidation.sol\":306:316  collateral */\n      0x00\n        /* \"L/Hard Liquidation.sol\":306:326  collateral[borrower] */\n      0x00\n        /* \"L/Hard Liquidation.sol\":317:325  borrower */\n      dup3\n        /* \"L/Hard Liquidation.sol\":306:326  collateral[borrower] */\n      0xffffffffffffffffffffffffffffffffffffffff\n      and\n      0xffffffffffffffffffffffffffffffffffffffff\n      and\n      dup2\n      mstore\n      0x20\n      add\n      swap1\n      dup2\n      mstore\n      0x20\n      add\n      0x00\n      keccak256\n        /* \"L/Hard Liquidation.sol\":299:326  delete collateral[borrower] */\n      0x00\n      swap1\n      sstore\n        /* \"L/Hard Liquidation.sol\":128:389  function liquidate(address borrower) external {... */\n      pop\n      jump\t// out\n        /* \"L/Hard Liquidation.sol\":82:121  mapping(address => uint256) public debt */\n    tag_12:\n      mstore(0x20, 0x01)\n      dup1\n      0x00\n      mstore\n      keccak256(0x00, 0x40)\n      0x00\n      swap2\n      pop\n      swap1\n      pop\n      sload\n      dup2\n      jump\t// out\n        /* \"L/Hard Liquidation.sol\":31:76  mapping(address => uint256) public collateral */\n    tag_17:\n      mstore(0x20, 0x00)\n      dup1\n      0x00\n      mstore\n      keccak256(0x00, 0x40)\n      0x00\n      swap2\n      pop\n      swap1\n      pop\n      sload\n      dup2\n      jump\t// out\n        /* \"#utility.yul\":88:205   */\n    tag_24:\n        /* \"#utility.yul\":197:198   */\n      0x00\n        /* \"#utility.yul\":194:195   */\n      0x00\n        /* \"#utility.yul\":187:199   */\n      revert\n        /* \"#utility.yul\":334:460   */\n    tag_26:\n        /* \"#utility.yul\":371:378   */\n      0x00\n        /* \"#utility.yul\":411:453   */\n      0xffffffffffffffffffffffffffffffffffffffff\n        /* \"#utility.yul\":404:409   */\n      dup3\n        /* \"#utility.yul\":400:454   */\n      and\n        /* \"#utility.yul\":389:454   */\n      swap1\n      pop\n        /* \"#utility.yul\":334:460   */\n      swap2\n      swap1\n      pop\n      jump\t// out\n        /* \"#utility.yul\":466:562   */\n    tag_27:\n        /* \"#utility.yul\":503:510   */\n      0x00\n        /* \"#utility.yul\":532:556   */\n      tag_41\n        /* \"#utility.yul\":550:555   */\n      dup3\n        /* \"#utility.yul\":532:556   */\n      tag_26\n      jump\t// in\n    tag_41:\n        /* \"#utility.yul\":521:556   */\n      swap1\n      pop\n        /* \"#utility.yul\":466:562   */\n      swap2\n      swap1\n      pop\n      jump\t// out\n        /* \"#utility.yul\":568:690   */\n    tag_28:\n        /* \"#utility.yul\":641:665   */\n      tag_43\n        /* \"#utility.yul\":659:664   */\n      dup2\n        /* \"#utility.yul\":641:665   */\n      tag_27\n      jump\t// in\n    tag_43:\n        /* \"#utility.yul\":634:639   */\n      dup2\n        /* \"#utility.yul\":631:666   */\n      eq\n        /* \"#utility.yul\":621:684   */\n      tag_44\n      jumpi\n        /* \"#utility.yul\":680:681   */\n      0x00\n        /* \"#utility.yul\":677:678   */\n      0x00\n        /* \"#utility.yul\":670:682   */\n      revert\n        /* \"#utility.yul\":621:684   */\n    tag_44:\n        /* \"#utility.yul\":568:690   */\n      pop\n      jump\t// out\n        /* \"#utility.yul\":696:835   */\n    tag_29:\n        /* \"#utility.yul\":742:747   */\n      0x00\n        /* \"#utility.yul\":780:786   */\n      dup2\n        /* \"#utility.yul\":767:787   */\n      calldataload\n        /* \"#utility.yul\":758:787   */\n      swap1\n      pop\n        /* \"#utility.yul\":796:829   */\n      tag_46\n        /* \"#utility.yul\":823:828   */\n      dup2\n        /* \"#utility.yul\":796:829   */\n      tag_28\n      jump\t// in\n    tag_46:\n        /* \"#utility.yul\":696:835   */\n      swap3\n      swap2\n      pop\n      pop\n      jump\t// out\n        /* \"#utility.yul\":841:1170   */\n    tag_8:\n        /* \"#utility.yul\":900:906   */\n      0x00\n        /* \"#utility.yul\":949:951   */\n      0x20\n        /* \"#utility.yul\":937:946   */\n      dup3\n        /* \"#utility.yul\":928:935   */\n      dup5\n        /* \"#utility.yul\":924:947   */\n      sub\n        /* \"#utility.yul\":920:952   */\n      slt\n        /* \"#utility.yul\":917:1036   */\n      iszero\n      tag_48\n      jumpi\n        /* \"#utility.yul\":955:1034   */\n      tag_49\n      tag_24\n      jump\t// in\n    tag_49:\n        /* \"#utility.yul\":917:1036   */\n    tag_48:\n        /* \"#utility.yul\":1075:1076   */\n      0x00\n        /* \"#utility.yul\":1100:1153   */\n      tag_50\n        /* \"#utility.yul\":1145:1152   */\n      dup5\n        /* \"#utility.yul\":1136:1142   */\n      dup3\n        /* \"#utility.yul\":1125:1134   */\n      dup6\n        /* \"#utility.yul\":1121:1143   */\n      add\n        /* \"#utility.yul\":1100:1153   */\n      tag_29\n      jump\t// in\n    tag_50:\n        /* \"#utility.yul\":1090:1153   */\n      swap2\n      pop\n        /* \"#utility.yul\":1046:1163   */\n      pop\n        /* \"#utility.yul\":841:1170   */\n      swap3\n      swap2\n      pop\n      pop\n      jump\t// out\n        /* \"#utility.yul\":1176:1253   */\n    tag_30:\n        /* \"#utility.yul\":1213:1220   */\n      0x00\n        /* \"#utility.yul\":1242:1247   */\n      dup2\n        /* \"#utility.yul\":1231:1247   */\n      swap1\n      pop\n        /* \"#utility.yul\":1176:1253   */\n      swap2\n      swap1\n      pop\n      jump\t// out\n        /* \"#utility.yul\":1259:1377   */\n    tag_31:\n        /* \"#utility.yul\":1346:1370   */\n      tag_53\n        /* \"#utility.yul\":1364:1369   */\n      dup2\n        /* \"#utility.yul\":1346:1370   */\n      tag_30\n      jump\t// in\n    tag_53:\n        /* \"#utility.yul\":1341:1344   */\n      dup3\n        /* \"#utility.yul\":1334:1371   */\n      mstore\n        /* \"#utility.yul\":1259:1377   */\n      pop\n      pop\n      jump\t// out\n        /* \"#utility.yul\":1383:1605   */\n    tag_14:\n        /* \"#utility.yul\":1476:1480   */\n      0x00\n        /* \"#utility.yul\":1514:1516   */\n      0x20\n        /* \"#utility.yul\":1503:1512   */\n      dup3\n        /* \"#utility.yul\":1499:1517   */\n      add\n        /* \"#utility.yul\":1491:1517   */\n      swap1\n      pop\n        /* \"#utility.yul\":1527:1598   */\n      tag_55\n        /* \"#utility.yul\":1595:1596   */\n      0x00\n        /* \"#utility.yul\":1584:1593   */\n      dup4\n        /* \"#utility.yul\":1580:1597   */\n      add\n        /* \"#utility.yul\":1571:1577   */\n      dup5\n        /* \"#utility.yul\":1527:1598   */\n      tag_31\n      jump\t// in\n    tag_55:\n        /* \"#utility.yul\":1383:1605   */\n      swap3\n      swap2\n      pop\n      pop\n      jump\t// out\n        /* \"#utility.yul\":1611:1780   */\n    tag_32:\n        /* \"#utility.yul\":1695:1706   */\n      0x00\n        /* \"#utility.yul\":1729:1735   */\n      dup3\n        /* \"#utility.yul\":1724:1727   */\n      dup3\n        /* \"#utility.yul\":1717:1736   */\n      mstore\n        /* \"#utility.yul\":1769:1773   */\n      0x20\n        /* \"#utility.yul\":1764:1767   */\n      dup3\n        /* \"#utility.yul\":1760:1774   */\n      add\n        /* \"#utility.yul\":1745:1774   */\n      swap1\n      pop\n        /* \"#utility.yul\":1611:1780   */\n      swap3\n      swap2\n      pop\n      pop\n      jump\t// out\n        /* \"#utility.yul\":1786:1959   */\n    tag_33:\n        /* \"#utility.yul\":1926:1951   */\n      0x4e6f7420756e646572636f6c6c61746572616c697a6564000000000000000000\n        /* \"#utility.yul\":1922:1923   */\n      0x00\n        /* \"#utility.yul\":1914:1920   */\n      dup3\n        /* \"#utility.yul\":1910:1924   */\n      add\n        /* \"#utility.yul\":1903:1952   */\n      mstore\n        /* \"#utility.yul\":1786:1959   */\n      pop\n      jump\t// out\n        /* \"#utility.yul\":1965:2331   */\n    tag_34:\n        /* \"#utility.yul\":2107:2110   */\n      0x00\n        /* \"#utility.yul\":2128:2195   */\n      tag_59\n        /* \"#utility.yul\":2192:2194   */\n      0x17\n        /* \"#utility.yul\":2187:2190   */\n      dup4\n        /* \"#utility.yul\":2128:2195   */\n      tag_32\n      jump\t// in\n    tag_59:\n        /* \"#utility.yul\":2121:2195   */\n      swap2\n      pop\n        /* \"#utility.yul\":2204:2297   */\n      tag_60\n        /* \"#utility.yul\":2293:2296   */\n      dup3\n        /* \"#utility.yul\":2204:2297   */\n      tag_33\n      jump\t// in\n    tag_60:\n        /* \"#utility.yul\":2322:2324   */\n      0x20\n        /* \"#utility.yul\":2317:2320   */\n      dup3\n        /* \"#utility.yul\":2313:2325   */\n      add\n        /* \"#utility.yul\":2306:2325   */\n      swap1\n      pop\n        /* \"#utility.yul\":1965:2331   */\n      swap2\n      swap1\n      pop\n      jump\t// out\n        /* \"#utility.yul\":2337:2756   */\n    tag_22:\n        /* \"#utility.yul\":2503:2507   */\n      0x00\n        /* \"#utility.yul\":2541:2543   */\n      0x20\n        /* \"#utility.yul\":2530:2539   */\n      dup3\n        /* \"#utility.yul\":2526:2544   */\n      add\n        /* \"#utility.yul\":2518:2544   */\n      swap1\n      pop\n        /* \"#utility.yul\":2590:2599   */\n      dup2\n        /* \"#utility.yul\":2584:2588   */\n      dup2\n        /* \"#utility.yul\":2580:2600   */\n      sub\n        /* \"#utility.yul\":2576:2577   */\n      0x00\n        /* \"#utility.yul\":2565:2574   */\n      dup4\n        /* \"#utility.yul\":2561:2578   */\n      add\n        /* \"#utility.yul\":2554:2601   */\n      mstore\n        /* \"#utility.yul\":2618:2749   */\n      tag_62\n        /* \"#utility.yul\":2744:2748   */\n      dup2\n        /* \"#utility.yul\":2618:2749   */\n      tag_34\n      jump\t// in\n    tag_62:\n        /* \"#utility.yul\":2610:2749   */\n      swap1\n      pop\n        /* \"#utility.yul\":2337:2756   */\n      swap2\n      swap1\n      pop\n      jump\t// out\n\n    auxdata: 0xa264697066735822122092c173913ecb520383191c5094d255ba6870b7bd652215630708b6bfa087f84664736f6c634300081d0033\n}\n",
				"bytecode": {
					"linkReferences": {},
					"object": "6080604052348015600e575f5ffd5b5061038d8061001c5f395ff3fe608060405234801561000f575f5ffd5b506004361061003f575f3560e01c80632f865568146100435780639b6c56ec1461005f578063a5fdc5de1461008f575b5f5ffd5b61005d60048036038101906100589190610283565b6100bf565b005b61007960048036038101906100749190610283565b6101fc565b60405161008691906102c6565b60405180910390f35b6100a960048036038101906100a49190610283565b610211565b6040516100b691906102c6565b60405180910390f35b5f5f8273ffffffffffffffffffffffffffffffffffffffff1673ffffffffffffffffffffffffffffffffffffffff1681526020019081526020015f205460015f8373ffffffffffffffffffffffffffffffffffffffff1673ffffffffffffffffffffffffffffffffffffffff1681526020019081526020015f20541161017a576040517f08c379a000000000000000000000000000000000000000000000000000000000815260040161017190610339565b60405180910390fd5b60015f8273ffffffffffffffffffffffffffffffffffffffff1673ffffffffffffffffffffffffffffffffffffffff1681526020019081526020015f205f90555f5f8273ffffffffffffffffffffffffffffffffffffffff1673ffffffffffffffffffffffffffffffffffffffff1681526020019081526020015f205f905550565b6001602052805f5260405f205f915090505481565b5f602052805f5260405f205f915090505481565b5f5ffd5b5f73ffffffffffffffffffffffffffffffffffffffff82169050919050565b5f61025282610229565b9050919050565b61026281610248565b811461026c575f5ffd5b50565b5f8135905061027d81610259565b92915050565b5f6020828403121561029857610297610225565b5b5f6102a58482850161026f565b91505092915050565b5f819050919050565b6102c0816102ae565b82525050565b5f6020820190506102d95f8301846102b7565b92915050565b5f82825260208201905092915050565b7f4e6f7420756e646572636f6c6c61746572616c697a65640000000000000000005f82015250565b5f6103236017836102df565b915061032e826102ef565b602082019050919050565b5f6020820190508181035f83015261035081610317565b905091905056fea264697066735822122092c173913ecb520383191c5094d255ba6870b7bd652215630708b6bfa087f84664736f6c634300081d0033",
					"opcodes": "PUSH1 0x80 PUSH1 0x40 MSTORE CALLVALUE DUP1 ISZERO PUSH1 0xE JUMPI PUSH0 PUSH0 REVERT JUMPDEST POP PUSH2 0x38D DUP1 PUSH2 0x1C PUSH0 CODECOPY PUSH0 RETURN INVALID PUSH1 0x80 PUSH1 0x40 MSTORE CALLVALUE DUP1 ISZERO PUSH2 0xF JUMPI PUSH0 PUSH0 REVERT JUMPDEST POP PUSH1 0x4 CALLDATASIZE LT PUSH2 0x3F JUMPI PUSH0 CALLDATALOAD PUSH1 0xE0 SHR DUP1 PUSH4 0x2F865568 EQ PUSH2 0x43 JUMPI DUP1 PUSH4 0x9B6C56EC EQ PUSH2 0x5F JUMPI DUP1 PUSH4 0xA5FDC5DE EQ PUSH2 0x8F JUMPI JUMPDEST PUSH0 PUSH0 REVERT JUMPDEST PUSH2 0x5D PUSH1 0x4 DUP1 CALLDATASIZE SUB DUP2 ADD SWAP1 PUSH2 0x58 SWAP2 SWAP1 PUSH2 0x283 JUMP JUMPDEST PUSH2 0xBF JUMP JUMPDEST STOP JUMPDEST PUSH2 0x79 PUSH1 0x4 DUP1 CALLDATASIZE SUB DUP2 ADD SWAP1 PUSH2 0x74 SWAP2 SWAP1 PUSH2 0x283 JUMP JUMPDEST PUSH2 0x1FC JUMP JUMPDEST PUSH1 0x40 MLOAD PUSH2 0x86 SWAP2 SWAP1 PUSH2 0x2C6 JUMP JUMPDEST PUSH1 0x40 MLOAD DUP1 SWAP2 SUB SWAP1 RETURN JUMPDEST PUSH2 0xA9 PUSH1 0x4 DUP1 CALLDATASIZE SUB DUP2 ADD SWAP1 PUSH2 0xA4 SWAP2 SWAP1 PUSH2 0x283 JUMP JUMPDEST PUSH2 0x211 JUMP JUMPDEST PUSH1 0x40 MLOAD PUSH2 0xB6 SWAP2 SWAP1 PUSH2 0x2C6 JUMP JUMPDEST PUSH1 0x40 MLOAD DUP1 SWAP2 SUB SWAP1 RETURN JUMPDEST PUSH0 PUSH0 DUP3 PUSH20 0xFFFFFFFFFFFFFFFFFFFFFFFFFFFFFFFFFFFFFFFF AND PUSH20 0xFFFFFFFFFFFFFFFFFFFFFFFFFFFFFFFFFFFFFFFF AND DUP2 MSTORE PUSH1 0x20 ADD SWAP1 DUP2 MSTORE PUSH1 0x20 ADD PUSH0 KECCAK256 SLOAD PUSH1 0x1 PUSH0 DUP4 PUSH20 0xFFFFFFFFFFFFFFFFFFFFFFFFFFFFFFFFFFFFFFFF AND PUSH20 0xFFFFFFFFFFFFFFFFFFFFFFFFFFFFFFFFFFFFFFFF AND DUP2 MSTORE PUSH1 0x20 ADD SWAP1 DUP2 MSTORE PUSH1 0x20 ADD PUSH0 KECCAK256 SLOAD GT PUSH2 0x17A JUMPI PUSH1 0x40 MLOAD PUSH32 0x8C379A000000000000000000000000000000000000000000000000000000000 DUP2 MSTORE PUSH1 0x4 ADD PUSH2 0x171 SWAP1 PUSH2 0x339 JUMP JUMPDEST PUSH1 0x40 MLOAD DUP1 SWAP2 SUB SWAP1 REVERT JUMPDEST PUSH1 0x1 PUSH0 DUP3 PUSH20 0xFFFFFFFFFFFFFFFFFFFFFFFFFFFFFFFFFFFFFFFF AND PUSH20 0xFFFFFFFFFFFFFFFFFFFFFFFFFFFFFFFFFFFFFFFF AND DUP2 MSTORE PUSH1 0x20 ADD SWAP1 DUP2 MSTORE PUSH1 0x20 ADD PUSH0 KECCAK256 PUSH0 SWAP1 SSTORE PUSH0 PUSH0 DUP3 PUSH20 0xFFFFFFFFFFFFFFFFFFFFFFFFFFFFFFFFFFFFFFFF AND PUSH20 0xFFFFFFFFFFFFFFFFFFFFFFFFFFFFFFFFFFFFFFFF AND DUP2 MSTORE PUSH1 0x20 ADD SWAP1 DUP2 MSTORE PUSH1 0x20 ADD PUSH0 KECCAK256 PUSH0 SWAP1 SSTORE POP JUMP JUMPDEST PUSH1 0x1 PUSH1 0x20 MSTORE DUP1 PUSH0 MSTORE PUSH1 0x40 PUSH0 KECCAK256 PUSH0 SWAP2 POP SWAP1 POP SLOAD DUP2 JUMP JUMPDEST PUSH0 PUSH1 0x20 MSTORE DUP1 PUSH0 MSTORE PUSH1 0x40 PUSH0 KECCAK256 PUSH0 SWAP2 POP SWAP1 POP SLOAD DUP2 JUMP JUMPDEST PUSH0 PUSH0 REVERT JUMPDEST PUSH0 PUSH20 0xFFFFFFFFFFFFFFFFFFFFFFFFFFFFFFFFFFFFFFFF DUP3 AND SWAP1 POP SWAP2 SWAP1 POP JUMP JUMPDEST PUSH0 PUSH2 0x252 DUP3 PUSH2 0x229 JUMP JUMPDEST SWAP1 POP SWAP2 SWAP1 POP JUMP JUMPDEST PUSH2 0x262 DUP2 PUSH2 0x248 JUMP JUMPDEST DUP2 EQ PUSH2 0x26C JUMPI PUSH0 PUSH0 REVERT JUMPDEST POP JUMP JUMPDEST PUSH0 DUP2 CALLDATALOAD SWAP1 POP PUSH2 0x27D DUP2 PUSH2 0x259 JUMP JUMPDEST SWAP3 SWAP2 POP POP JUMP JUMPDEST PUSH0 PUSH1 0x20 DUP3 DUP5 SUB SLT ISZERO PUSH2 0x298 JUMPI PUSH2 0x297 PUSH2 0x225 JUMP JUMPDEST JUMPDEST PUSH0 PUSH2 0x2A5 DUP5 DUP3 DUP6 ADD PUSH2 0x26F JUMP JUMPDEST SWAP2 POP POP SWAP3 SWAP2 POP POP JUMP JUMPDEST PUSH0 DUP2 SWAP1 POP SWAP2 SWAP1 POP JUMP JUMPDEST PUSH2 0x2C0 DUP2 PUSH2 0x2AE JUMP JUMPDEST DUP3 MSTORE POP POP JUMP JUMPDEST PUSH0 PUSH1 0x20 DUP3 ADD SWAP1 POP PUSH2 0x2D9 PUSH0 DUP4 ADD DUP5 PUSH2 0x2B7 JUMP JUMPDEST SWAP3 SWAP2 POP POP JUMP JUMPDEST PUSH0 DUP3 DUP3 MSTORE PUSH1 0x20 DUP3 ADD SWAP1 POP SWAP3 SWAP2 POP POP JUMP JUMPDEST PUSH32 0x4E6F7420756E646572636F6C6C61746572616C697A6564000000000000000000 PUSH0 DUP3 ADD MSTORE POP JUMP JUMPDEST PUSH0 PUSH2 0x323 PUSH1 0x17 DUP4 PUSH2 0x2DF JUMP JUMPDEST SWAP2 POP PUSH2 0x32E DUP3 PUSH2 0x2EF JUMP JUMPDEST PUSH1 0x20 DUP3 ADD SWAP1 POP SWAP2 SWAP1 POP JUMP JUMPDEST PUSH0 PUSH1 0x20 DUP3 ADD SWAP1 POP DUP2 DUP2 SUB PUSH0 DUP4 ADD MSTORE PUSH2 0x350 DUP2 PUSH2 0x317 JUMP JUMPDEST SWAP1 POP SWAP2 SWAP1 POP JUMP INVALID LOG2 PUSH5 0x6970667358 0x22 SLT KECCAK256 SWAP3 0xC1 PUSH20 0x913ECB520383191C5094D255BA6870B7BD652215 PUSH4 0x708B6BF LOG0 DUP8 EXTCALL CHAINID PUSH5 0x736F6C6343 STOP ADDMOD SAR STOP CALLER "
				},
				"gasEstimates": {
					"creation": {
						"codeDepositCost": "181800",
						"executionCost": "224",
						"totalCost": "182024"
					},
					"external": {
						"collateral(address)": "2823",
						"debt(address)": "2802",
						"liquidate(address)": "15016"
					}
				},
				"methodIdentifiers": {
					"collateral(address)": "a5fdc5de",
					"debt(address)": "9b6c56ec",
					"liquidate(address)": "2f865568"
				}
			},
			"storageLayout": {
				"storage": [
					{
						"astId": 4,
						"contract": "L/Hard Liquidation.sol:HardLiquidation",
						"label": "collateral",
						"offset": 0,
						"slot": "0",
						"type": "t_mapping(t_address,t_uint256)"
					},
					{
						"astId": 8,
						"contract": "L/Hard Liquidation.sol:HardLiquidation",
						"label": "debt",
						"offset": 0,
						"slot": "1",
						"type": "t_mapping(t_address,t_uint256)"
					}
				],
				"types": {
					"t_address": {
						"encoding": "inplace",
						"label": "address",
						"numberOfBytes": "20"
					},
					"t_mapping(t_address,t_uint256)": {
						"encoding": "mapping",
						"key": "t_address",
						"label": "mapping(address => uint256)",
						"numberOfBytes": "32",
						"value": "t_uint256"
					},
					"t_uint256": {
						"encoding": "inplace",
						"label": "uint256",
						"numberOfBytes": "32"
					}
				}
			},
			"userdoc": {
				"kind": "user",
				"methods": {},
				"version": 1
			}
		}
	}
}