{
	"data": {
		"bytecode": {
			"linkReferences": {},
			"object": "608060405234801561001057600080fd5b5061032d806100206000396000f3fe608060405234801561001057600080fd5b50600436106100365760003560e01c80638d68c9211461003b578063eced55261461006b575b600080fd5b61005560048036038101906100509190610141565b610089565b60405161006291906101a3565b60405180910390f35b6100736100fa565b60405161008091906101a3565b60405180910390f35b600080670de0b6b3a764000084866100a191906101ed565b6100ab919061025e565b90506000670de0b6b3a76400008487670de0b6b3a76400006100cd919061028f565b6100d791906101ed565b6100e1919061025e565b905080826100ef91906102c3565b925050509392505050565b670de0b6b3a764000081565b600080fd5b6000819050919050565b61011e8161010b565b811461012957600080fd5b50565b60008135905061013b81610115565b92915050565b60008060006060848603121561015a57610159610106565b5b60006101688682870161012c565b93505060206101798682870161012c565b925050604061018a8682870161012c565b9150509250925092565b61019d8161010b565b82525050565b60006020820190506101b86000830184610194565b92915050565b7f4e487b7100000000000000000000000000000000000000000000000000000000600052601160045260246000fd5b60006101f88261010b565b91506102038361010b565b92508282026102118161010b565b91508282048414831517610228576102276101be565b5b5092915050565b7f4e487b7100000000000000000000000000000000000000000000000000000000600052601260045260246000fd5b60006102698261010b565b91506102748361010b565b9250826102845761028361022f565b5b828204905092915050565b600061029a8261010b565b91506102a58361010b565b92508282039050818111156102bd576102bc6101be565b5b92915050565b60006102ce8261010b565b91506102d98361010b565b92508282019050808211156102f1576102f06101be565b5b9291505056fea2646970667358221220acea233e0e7ddc9b1a2cc35c432bc318c5c6b204fc560fa0ab1c12bcadebf09064736f6c63430008130033",
			"opcodes": "PUSH1 0x80 PUSH1 0x40 MSTORE CALLVALUE DUP1 ISZERO PUSH2 0x10 JUMPI PUSH1 0x0 DUP1 REVERT JUMPDEST POP PUSH2 0x32D DUP1 PUSH2 0x20 PUSH1 0x0 CODECOPY PUSH1 0x0 RETURN INVALID PUSH1 0x80 PUSH1 0x40 MSTORE CALLVALUE DUP1 ISZERO PUSH2 0x10 JUMPI PUSH1 0x0 DUP1 REVERT JUMPDEST POP PUSH1 0x4 CALLDATASIZE LT PUSH2 0x36 JUMPI PUSH1 0x0 CALLDATALOAD PUSH1 0xE0 SHR DUP1 PUSH4 0x8D68C921 EQ PUSH2 0x3B JUMPI DUP1 PUSH4 0xECED5526 EQ PUSH2 0x6B JUMPI JUMPDEST PUSH1 0x0 DUP1 REVERT JUMPDEST PUSH2 0x55 PUSH1 0x4 DUP1 CALLDATASIZE SUB DUP2 ADD SWAP1 PUSH2 0x50 SWAP2 SWAP1 PUSH2 0x141 JUMP JUMPDEST PUSH2 0x89 JUMP JUMPDEST PUSH1 0x40 MLOAD PUSH2 0x62 SWAP2 SWAP1 PUSH2 0x1A3 JUMP JUMPDEST PUSH1 0x40 MLOAD DUP1 SWAP2 SUB SWAP1 RETURN JUMPDEST PUSH2 0x73 PUSH2 0xFA JUMP JUMPDEST PUSH1 0x40 MLOAD PUSH2 0x80 SWAP2 SWAP1 PUSH2 0x1A3 JUMP JUMPDEST PUSH1 0x40 MLOAD DUP1 SWAP2 SUB SWAP1 RETURN JUMPDEST PUSH1 0x0 DUP1 PUSH8 0xDE0B6B3A7640000 DUP5 DUP7 PUSH2 0xA1 SWAP2 SWAP1 PUSH2 0x1ED JUMP JUMPDEST PUSH2 0xAB SWAP2 SWAP1 PUSH2 0x25E JUMP JUMPDEST SWAP1 POP PUSH1 0x0 PUSH8 0xDE0B6B3A7640000 DUP5 DUP8 PUSH8 0xDE0B6B3A7640000 PUSH2 0xCD SWAP2 SWAP1 PUSH2 0x28F JUMP JUMPDEST PUSH2 0xD7 SWAP2 SWAP1 PUSH2 0x1ED JUMP JUMPDEST PUSH2 0xE1 SWAP2 SWAP1 PUSH2 0x25E JUMP JUMPDEST SWAP1 POP DUP1 DUP3 PUSH2 0xEF SWAP2 SWAP1 PUSH2 0x2C3 JUMP JUMPDEST SWAP3 POP POP POP SWAP4 SWAP3 POP POP POP JUMP JUMPDEST PUSH8 0xDE0B6B3A7640000 DUP2 JUMP JUMPDEST PUSH1 0x0 DUP1 REVERT JUMPDEST PUSH1 0x0 DUP2 SWAP1 POP SWAP2 SWAP1 POP JUMP JUMPDEST PUSH2 0x11E DUP2 PUSH2 0x10B JUMP JUMPDEST DUP2 EQ PUSH2 0x129 JUMPI PUSH1 0x0 DUP1 REVERT JUMPDEST POP JUMP JUMPDEST PUSH1 0x0 DUP2 CALLDATALOAD SWAP1 POP PUSH2 0x13B DUP2 PUSH2 0x115 JUMP JUMPDEST SWAP3 SWAP2 POP POP JUMP JUMPDEST PUSH1 0x0 DUP1 PUSH1 0x0 PUSH1 0x60 DUP5 DUP7 SUB SLT ISZERO PUSH2 0x15A JUMPI PUSH2 0x159 PUSH2 0x106 JUMP JUMPDEST JUMPDEST PUSH1 0x0 PUSH2 0x168 DUP7 DUP3 DUP8 ADD PUSH2 0x12C JUMP JUMPDEST SWAP4 POP POP PUSH1 0x20 PUSH2 0x179 DUP7 DUP3 DUP8 ADD PUSH2 0x12C JUMP JUMPDEST SWAP3 POP POP PUSH1 0x40 PUSH2 0x18A DUP7 DUP3 DUP8 ADD PUSH2 0x12C JUMP JUMPDEST SWAP2 POP POP SWAP3 POP SWAP3 POP SWAP3 JUMP JUMPDEST PUSH2 0x19D DUP2 PUSH2 0x10B JUMP JUMPDEST DUP3 MSTORE POP POP JUMP JUMPDEST PUSH1 0x0 PUSH1 0x20 DUP3 ADD SWAP1 POP PUSH2 0x1B8 PUSH1 0x0 DUP4 ADD DUP5 PUSH2 0x194 JUMP JUMPDEST SWAP3 SWAP2 POP POP JUMP JUMPDEST PUSH32 0x4E487B7100000000000000000000000000000000000000000000000000000000 PUSH1 0x0 MSTORE PUSH1 0x11 PUSH1 0x4 MSTORE PUSH1 0x24 PUSH1 0x0 REVERT JUMPDEST PUSH1 0x0 PUSH2 0x1F8 DUP3 PUSH2 0x10B JUMP JUMPDEST SWAP2 POP PUSH2 0x203 DUP4 PUSH2 0x10B JUMP JUMPDEST SWAP3 POP DUP3 DUP3 MUL PUSH2 0x211 DUP2 PUSH2 0x10B JUMP JUMPDEST SWAP2 POP DUP3 DUP3 DIV DUP5 EQ DUP4 ISZERO OR PUSH2 0x228 JUMPI PUSH2 0x227 PUSH2 0x1BE JUMP JUMPDEST JUMPDEST POP SWAP3 SWAP2 POP POP JUMP JUMPDEST PUSH32 0x4E487B7100000000000000000000000000000000000000000000000000000000 PUSH1 0x0 MSTORE PUSH1 0x12 PUSH1 0x4 MSTORE PUSH1 0x24 PUSH1 0x0 REVERT JUMPDEST PUSH1 0x0 PUSH2 0x269 DUP3 PUSH2 0x10B JUMP JUMPDEST SWAP2 POP PUSH2 0x274 DUP4 PUSH2 0x10B JUMP JUMPDEST SWAP3 POP DUP3 PUSH2 0x284 JUMPI PUSH2 0x283 PUSH2 0x22F JUMP JUMPDEST JUMPDEST DUP3 DUP3 DIV SWAP1 POP SWAP3 SWAP2 POP POP JUMP JUMPDEST PUSH1 0x0 PUSH2 0x29A DUP3 PUSH2 0x10B JUMP JUMPDEST SWAP2 POP PUSH2 0x2A5 DUP4 PUSH2 0x10B JUMP JUMPDEST SWAP3 POP DUP3 DUP3 SUB SWAP1 POP DUP2 DUP2 GT ISZERO PUSH2 0x2BD JUMPI PUSH2 0x2BC PUSH2 0x1BE JUMP JUMPDEST JUMPDEST SWAP3 SWAP2 POP POP JUMP JUMPDEST PUSH1 0x0 PUSH2 0x2CE DUP3 PUSH2 0x10B JUMP JUMPDEST SWAP2 POP PUSH2 0x2D9 DUP4 PUSH2 0x10B JUMP JUMPDEST SWAP3 POP DUP3 DUP3 ADD SWAP1 POP DUP1 DUP3 GT ISZERO PUSH2 0x2F1 JUMPI PUSH2 0x2F0 PUSH2 0x1BE JUMP JUMPDEST JUMPDEST SWAP3 SWAP2 POP POP JUMP INVALID LOG2 PUSH5 0x6970667358 0x22 SLT KECCAK256 0xAC 0xEA 0x23 RETURNDATACOPY 0xE PUSH30 0xDC9B1A2CC35C432BC318C5C6B204FC560FA0AB1C12BCADEBF09064736F6C PUSH4 0x43000813 STOP CALLER "
		},
		"gasEstimates": {
			"creation": {
				"codeDepositCost": "162600",
				"executionCost": "208",
				"totalCost": "162808"
			},
			"external": {
				"SCALE()": "329",
				"computeProbability(uint256,uint256,uint256)": "infinite"
			}
		},
		"methodIdentifiers": {
			"SCALE()": "eced5526",
			"computeProbability(uint256,uint256,uint256)": "8d68c921"
		}
	},
	"abi": [
		{
			"inputs": [],
			"name": "SCALE",
			"outputs": [
				{
					"internalType": "uint256",
					"name": "",
					"type": "uint256"
				}
			],
			"stateMutability": "view",
			"type": "function"
		},
		{
			"inputs": [
				{
					"internalType": "uint256",
					"name": "pA",
					"type": "uint256"
				},
				{
					"internalType": "uint256",
					"name": "pBgivenA",
					"type": "uint256"
				},
				{
					"internalType": "uint256",
					"name": "pBgivenNotA",
					"type": "uint256"
				}
			],
			"name": "computeProbability",
			"outputs": [
				{
					"internalType": "uint256",
					"name": "pB",
					"type": "uint256"
				}
			],
			"stateMutability": "pure",
			"type": "function"
		}
	]
}