{
	"data": {
		"bytecode": {
			"linkReferences": {},
			"object": "608060405234801561000f575f80fd5b50335f73ffffffffffffffffffffffffffffffffffffffff168173ffffffffffffffffffffffffffffffffffffffff1603610081575f6040517f1e4fbdf7000000000000000000000000000000000000000000000000000000008152600401610078919061019d565b60405180910390fd5b6100908161009d60201b60201c565b50600180819055506101b6565b5f805f9054906101000a900473ffffffffffffffffffffffffffffffffffffffff169050815f806101000a81548173ffffffffffffffffffffffffffffffffffffffff021916908373ffffffffffffffffffffffffffffffffffffffff1602179055508173ffffffffffffffffffffffffffffffffffffffff168173ffffffffffffffffffffffffffffffffffffffff167f8be0079c531659141344cd1fd0a4f28419497f9722a3daafe3b4186f6b6457e060405160405180910390a35050565b5f73ffffffffffffffffffffffffffffffffffffffff82169050919050565b5f6101878261015e565b9050919050565b6101978161017d565b82525050565b5f6020820190506101b05f83018461018e565b92915050565b611947806101c35f395ff3fe608060405234801561000f575f80fd5b506004361061009c575f3560e01c8063715018a611610064578063715018a6146101575780638da5cb5b14610161578063c66bb4101461017f578063c8110466146101af578063f2fde38b146101df5761009c565b8063124f1ead146100a05780631fe1023c146100bc5780633343808e146100da57806337ddc1871461010a5780635c9e42461461013b575b5f80fd5b6100ba60048036038101906100b591906110e7565b6101fb565b005b6100c4610356565b6040516100d1919061112a565b60405180910390f35b6100f460048036038101906100ef919061116d565b610362565b60405161010191906111ee565b60405180910390f35b610124600480360381019061011f919061116d565b61044d565b604051610132929190611225565b60405180910390f35b610155600480360381019061015091906110e7565b6104a3565b005b61015f6106dc565b005b6101696106ef565b604051610176919061124c565b60405180910390f35b610199600480360381019061019491906110e7565b610716565b6040516101a6919061112a565b60405180910390f35b6101c960048036038101906101c49190611265565b61072b565b6040516101d6919061112a565b60405180910390f35b6101f960048036038101906101f491906110e7565b610aa1565b005b610203610b25565b5f60035f8373ffffffffffffffffffffffffffffffffffffffff1673ffffffffffffffffffffffffffffffffffffffff1681526020019081526020015f205490505f8103610286576040517f08c379a000000000000000000000000000000000000000000000000000000000815260040161027d90611348565b60405180910390fd5b5f6001826102949190611393565b90505f600282815481106102ab576102aa6113c6565b5b905f5260205f20015f0160146101000a81548160ff0219169083151502179055505f60035f8573ffffffffffffffffffffffffffffffffffffffff1673ffffffffffffffffffffffffffffffffffffffff1681526020019081526020015f20819055508273ffffffffffffffffffffffffffffffffffffffff167f78e0a2ffcdfbbb49ba5c8050d8630fab2176d825e8360809db049cd98f462a7860405160405180910390a2505050565b5f600280549050905090565b61036a611059565b60028054905082106103b1576040517f08c379a00000000000000000000000000000000000000000000000000000000081526004016103a89061143d565b60405180910390fd5b600282815481106103c5576103c46113c6565b5b905f5260205f20016040518060400160405290815f82015f9054906101000a900473ffffffffffffffffffffffffffffffffffffffff1673ffffffffffffffffffffffffffffffffffffffff1673ffffffffffffffffffffffffffffffffffffffff1681526020015f820160149054906101000a900460ff1615151515815250509050919050565b6002818154811061045c575f80fd5b905f5260205f20015f91509050805f015f9054906101000a900473ffffffffffffffffffffffffffffffffffffffff1690805f0160149054906101000a900460ff16905082565b6104ab610b25565b5f73ffffffffffffffffffffffffffffffffffffffff168173ffffffffffffffffffffffffffffffffffffffff1603610519576040517f08c379a0000000000000000000000000000000000000000000000000000000008152600401610510906114a5565b60405180910390fd5b5f60035f8373ffffffffffffffffffffffffffffffffffffffff1673ffffffffffffffffffffffffffffffffffffffff1681526020019081526020015f205414610598576040517f08c379a000000000000000000000000000000000000000000000000000000000815260040161058f9061150d565b60405180910390fd5b600260405180604001604052808373ffffffffffffffffffffffffffffffffffffffff16815260200160011515815250908060018154018082558091505060019003905f5260205f20015f909190919091505f820151815f015f6101000a81548173ffffffffffffffffffffffffffffffffffffffff021916908373ffffffffffffffffffffffffffffffffffffffff1602179055506020820151815f0160146101000a81548160ff021916908315150217905550505060028054905060035f8373ffffffffffffffffffffffffffffffffffffffff1673ffffffffffffffffffffffffffffffffffffffff1681526020019081526020015f20819055508073ffffffffffffffffffffffffffffffffffffffff167fe9b911b95c029a3e2522eb5188d455919d909b073eb5729a2174c3b1cc9c581560405160405180910390a250565b6106e4610b25565b6106ed5f610bac565b565b5f805f9054906101000a900473ffffffffffffffffffffffffffffffffffffffff16905090565b6003602052805f5260405f205f915090505481565b5f610734610c6d565b5f60035f8973ffffffffffffffffffffffffffffffffffffffff1673ffffffffffffffffffffffffffffffffffffffff1681526020019081526020015f205490505f81036107b7576040517f08c379a00000000000000000000000000000000000000000000000000000000081526004016107ae90611348565b60405180910390fd5b5f60026001836107c79190611393565b815481106107d8576107d76113c6565b5b905f5260205f20016040518060400160405290815f82015f9054906101000a900473ffffffffffffffffffffffffffffffffffffffff1673ffffffffffffffffffffffffffffffffffffffff1673ffffffffffffffffffffffffffffffffffffffff1681526020015f820160149054906101000a900460ff1615151515815250509050806020015161089f576040517f08c379a000000000000000000000000000000000000000000000000000000000815260040161089690611575565b60405180910390fd5b6108ab88333089610cbc565b6108ea576040517f08c379a00000000000000000000000000000000000000000000000000000000081526004016108e1906115dd565b60405180910390fd5b6108f5888a88610ded565b610934576040517f08c379a000000000000000000000000000000000000000000000000000000000815260040161092b90611645565b60405180910390fd5b8873ffffffffffffffffffffffffffffffffffffffff1663d5bcb9b589898989306040518663ffffffff1660e01b8152600401610975959493929190611663565b6020604051808303815f875af1158015610991573d5f803e3d5ffd5b505050506040513d601f19601f820116820180604052508101906109b591906116c8565b92506109c2888a5f610ded565b506109ce878585610f1b565b610a0d576040517f08c379a0000000000000000000000000000000000000000000000000000000008152600401610a049061173d565b60405180910390fd5b8673ffffffffffffffffffffffffffffffffffffffff168873ffffffffffffffffffffffffffffffffffffffff168a73ffffffffffffffffffffffffffffffffffffffff167f78144de69c30989060d6bc0b4e6da9a31b6497866db952e683d0221e9cd20165898988604051610a859392919061175b565b60405180910390a45050610a97611049565b9695505050505050565b610aa9610b25565b5f73ffffffffffffffffffffffffffffffffffffffff168173ffffffffffffffffffffffffffffffffffffffff1603610b19575f6040517f1e4fbdf7000000000000000000000000000000000000000000000000000000008152600401610b10919061124c565b60405180910390fd5b610b2281610bac565b50565b610b2d611052565b73ffffffffffffffffffffffffffffffffffffffff16610b4b6106ef565b73ffffffffffffffffffffffffffffffffffffffff1614610baa57610b6e611052565b6040517f118cdaa7000000000000000000000000000000000000000000000000000000008152600401610ba1919061124c565b60405180910390fd5b565b5f805f9054906101000a900473ffffffffffffffffffffffffffffffffffffffff169050815f806101000a81548173ffffffffffffffffffffffffffffffffffffffff021916908373ffffffffffffffffffffffffffffffffffffffff1602179055508173ffffffffffffffffffffffffffffffffffffffff168173ffffffffffffffffffffffffffffffffffffffff167f8be0079c531659141344cd1fd0a4f28419497f9722a3daafe3b4186f6b6457e060405160405180910390a35050565b600260015403610cb2576040517f08c379a0000000000000000000000000000000000000000000000000000000008152600401610ca9906117da565b60405180910390fd5b6002600181905550565b5f805f8673ffffffffffffffffffffffffffffffffffffffff167f23b872dd7302113369cda2901243429419bec145408fa8b352b3dd92b66c680b878787604051602401610d0c939291906117f8565b604051602081830303815290604052907bffffffffffffffffffffffffffffffffffffffffffffffffffffffff19166020820180517bffffffffffffffffffffffffffffffffffffffffffffffffffffffff8381831617835250505050604051610d76919061187f565b5f604051808303815f865af19150503d805f8114610daf576040519150601f19603f3d011682016040523d82523d5f602084013e610db4565b606091505b5091509150818015610de157505f81511480610de0575080806020019051810190610ddf91906118bf565b5b5b92505050949350505050565b5f805f8573ffffffffffffffffffffffffffffffffffffffff167f095ea7b334ae44009aa867bfb386f5c3b4b443ac6f0ee573fa91c4608fbadfba8686604051602401610e3b9291906118ea565b604051602081830303815290604052907bffffffffffffffffffffffffffffffffffffffffffffffffffffffff19166020820180517bffffffffffffffffffffffffffffffffffffffffffffffffffffffff8381831617835250505050604051610ea5919061187f565b5f604051808303815f865af19150503d805f8114610ede576040519150601f19603f3d011682016040523d82523d5f602084013e610ee3565b606091505b5091509150818015610f1057505f81511480610f0f575080806020019051810190610f0e91906118bf565b5b5b925050509392505050565b5f805f8573ffffffffffffffffffffffffffffffffffffffff167fa9059cbb2ab09eb219583f4a59a5d0623ade346d962bcd4e46b11da047c9049b8686604051602401610f699291906118ea565b604051602081830303815290604052907bffffffffffffffffffffffffffffffffffffffffffffffffffffffff19166020820180517bffffffffffffffffffffffffffffffffffffffffffffffffffffffff8381831617835250505050604051610fd3919061187f565b5f604051808303815f865af19150503d805f811461100c576040519150601f19603f3d011682016040523d82523d5f602084013e611011565b606091505b509150915081801561103e57505f8151148061103d57508080602001905181019061103c91906118bf565b5b5b925050509392505050565b60018081905550565b5f33905090565b60405180604001604052805f73ffffffffffffffffffffffffffffffffffffffff1681526020015f151581525090565b5f80fd5b5f73ffffffffffffffffffffffffffffffffffffffff82169050919050565b5f6110b68261108d565b9050919050565b6110c6816110ac565b81146110d0575f80fd5b50565b5f813590506110e1816110bd565b92915050565b5f602082840312156110fc576110fb611089565b5b5f611109848285016110d3565b91505092915050565b5f819050919050565b61112481611112565b82525050565b5f60208201905061113d5f83018461111b565b92915050565b61114c81611112565b8114611156575f80fd5b50565b5f8135905061116781611143565b92915050565b5f6020828403121561118257611181611089565b5b5f61118f84828501611159565b91505092915050565b6111a1816110ac565b82525050565b5f8115159050919050565b6111bb816111a7565b82525050565b604082015f8201516111d55f850182611198565b5060208201516111e860208501826111b2565b50505050565b5f6040820190506112015f8301846111c1565b92915050565b611210816110ac565b82525050565b61121f816111a7565b82525050565b5f6040820190506112385f830185611207565b6112456020830184611216565b9392505050565b5f60208201905061125f5f830184611207565b92915050565b5f805f805f8060c0878903121561127f5761127e611089565b5b5f61128c89828a016110d3565b965050602061129d89828a016110d3565b95505060406112ae89828a016110d3565b94505060606112bf89828a01611159565b93505060806112d089828a01611159565b92505060a06112e189828a016110d3565b9150509295509295509295565b5f82825260208201905092915050565b7f444558206e6f74207265676973746572656400000000000000000000000000005f82015250565b5f6113326012836112ee565b915061133d826112fe565b602082019050919050565b5f6020820190508181035f83015261135f81611326565b9050919050565b7f4e487b71000000000000000000000000000000000000000000000000000000005f52601160045260245ffd5b5f61139d82611112565b91506113a883611112565b92508282039050818111156113c0576113bf611366565b5b92915050565b7f4e487b71000000000000000000000000000000000000000000000000000000005f52603260045260245ffd5b7f496e646578206f7574206f662072616e676500000000000000000000000000005f82015250565b5f6114276012836112ee565b9150611432826113f3565b602082019050919050565b5f6020820190508181035f8301526114548161141b565b9050919050565b7f496e76616c6964206465782061646472657373000000000000000000000000005f82015250565b5f61148f6013836112ee565b915061149a8261145b565b602082019050919050565b5f6020820190508181035f8301526114bc81611483565b9050919050565b7f44455820616c72656164792072656769737465726564000000000000000000005f82015250565b5f6114f76016836112ee565b9150611502826114c3565b602082019050919050565b5f6020820190508181035f830152611524816114eb565b9050919050565b7f44455820697320696e61637469766500000000000000000000000000000000005f82015250565b5f61155f600f836112ee565b915061156a8261152b565b602082019050919050565b5f6020820190508181035f83015261158c81611553565b9050919050565b7f746f6b656e496e207472616e73666572206661696c65640000000000000000005f82015250565b5f6115c76017836112ee565b91506115d282611593565b602082019050919050565b5f6020820190508181035f8301526115f4816115bb565b9050919050565b7f44455820617070726f7665206661696c656400000000000000000000000000005f82015250565b5f61162f6012836112ee565b915061163a826115fb565b602082019050919050565b5f6020820190508181035f83015261165c81611623565b9050919050565b5f60a0820190506116765f830188611207565b6116836020830187611207565b611690604083018661111b565b61169d606083018561111b565b6116aa6080830184611207565b9695505050505050565b5f815190506116c281611143565b92915050565b5f602082840312156116dd576116dc611089565b5b5f6116ea848285016116b4565b91505092915050565b7f746f6b656e4f7574207472616e73666572206661696c656400000000000000005f82015250565b5f6117276018836112ee565b9150611732826116f3565b602082019050919050565b5f6020820190508181035f8301526117548161171b565b9050919050565b5f60608201905061176e5f83018661111b565b61177b602083018561111b565b611788604083018461111b565b949350505050565b7f5265656e7472616e637947756172643a207265656e7472616e742063616c6c005f82015250565b5f6117c4601f836112ee565b91506117cf82611790565b602082019050919050565b5f6020820190508181035f8301526117f1816117b8565b9050919050565b5f60608201905061180b5f830186611207565b6118186020830185611207565b611825604083018461111b565b949350505050565b5f81519050919050565b5f81905092915050565b8281835e5f83830152505050565b5f6118598261182d565b6118638185611837565b9350611873818560208601611841565b80840191505092915050565b5f61188a828461184f565b915081905092915050565b61189e816111a7565b81146118a8575f80fd5b50565b5f815190506118b981611895565b92915050565b5f602082840312156118d4576118d3611089565b5b5f6118e1848285016118ab565b91505092915050565b5f6040820190506118fd5f830185611207565b61190a602083018461111b565b939250505056fea2646970667358221220cd7a6f498167890ac2b61c93b1470c99a147d07b9a8202343f0244d4c7be33c364736f6c63430008190033",
			"opcodes": "PUSH1 0x80 PUSH1 0x40 MSTORE CALLVALUE DUP1 ISZERO PUSH2 0xF JUMPI PUSH0 DUP1 REVERT JUMPDEST POP CALLER PUSH0 PUSH20 0xFFFFFFFFFFFFFFFFFFFFFFFFFFFFFFFFFFFFFFFF AND DUP2 PUSH20 0xFFFFFFFFFFFFFFFFFFFFFFFFFFFFFFFFFFFFFFFF AND SUB PUSH2 0x81 JUMPI PUSH0 PUSH1 0x40 MLOAD PUSH32 0x1E4FBDF700000000000000000000000000000000000000000000000000000000 DUP2 MSTORE PUSH1 0x4 ADD PUSH2 0x78 SWAP2 SWAP1 PUSH2 0x19D JUMP JUMPDEST PUSH1 0x40 MLOAD DUP1 SWAP2 SUB SWAP1 REVERT JUMPDEST PUSH2 0x90 DUP2 PUSH2 0x9D PUSH1 0x20 SHL PUSH1 0x20 SHR JUMP JUMPDEST POP PUSH1 0x1 DUP1 DUP2 SWAP1 SSTORE POP PUSH2 0x1B6 JUMP JUMPDEST PUSH0 DUP1 PUSH0 SWAP1 SLOAD SWAP1 PUSH2 0x100 EXP SWAP1 DIV PUSH20 0xFFFFFFFFFFFFFFFFFFFFFFFFFFFFFFFFFFFFFFFF AND SWAP1 POP DUP2 PUSH0 DUP1 PUSH2 0x100 EXP DUP2 SLOAD DUP2 PUSH20 0xFFFFFFFFFFFFFFFFFFFFFFFFFFFFFFFFFFFFFFFF MUL NOT AND SWAP1 DUP4 PUSH20 0xFFFFFFFFFFFFFFFFFFFFFFFFFFFFFFFFFFFFFFFF AND MUL OR SWAP1 SSTORE POP DUP2 PUSH20 0xFFFFFFFFFFFFFFFFFFFFFFFFFFFFFFFFFFFFFFFF AND DUP2 PUSH20 0xFFFFFFFFFFFFFFFFFFFFFFFFFFFFFFFFFFFFFFFF AND PUSH32 0x8BE0079C531659141344CD1FD0A4F28419497F9722A3DAAFE3B4186F6B6457E0 PUSH1 0x40 MLOAD PUSH1 0x40 MLOAD DUP1 SWAP2 SUB SWAP1 LOG3 POP POP JUMP JUMPDEST PUSH0 PUSH20 0xFFFFFFFFFFFFFFFFFFFFFFFFFFFFFFFFFFFFFFFF DUP3 AND SWAP1 POP SWAP2 SWAP1 POP JUMP JUMPDEST PUSH0 PUSH2 0x187 DUP3 PUSH2 0x15E JUMP JUMPDEST SWAP1 POP SWAP2 SWAP1 POP JUMP JUMPDEST PUSH2 0x197 DUP2 PUSH2 0x17D JUMP JUMPDEST DUP3 MSTORE POP POP JUMP JUMPDEST PUSH0 PUSH1 0x20 DUP3 ADD SWAP1 POP PUSH2 0x1B0 PUSH0 DUP4 ADD DUP5 PUSH2 0x18E JUMP JUMPDEST SWAP3 SWAP2 POP POP JUMP JUMPDEST PUSH2 0x1947 DUP1 PUSH2 0x1C3 PUSH0 CODECOPY PUSH0 RETURN INVALID PUSH1 0x80 PUSH1 0x40 MSTORE CALLVALUE DUP1 ISZERO PUSH2 0xF JUMPI PUSH0 DUP1 REVERT JUMPDEST POP PUSH1 0x4 CALLDATASIZE LT PUSH2 0x9C JUMPI PUSH0 CALLDATALOAD PUSH1 0xE0 SHR DUP1 PUSH4 0x715018A6 GT PUSH2 0x64 JUMPI DUP1 PUSH4 0x715018A6 EQ PUSH2 0x157 JUMPI DUP1 PUSH4 0x8DA5CB5B EQ PUSH2 0x161 JUMPI DUP1 PUSH4 0xC66BB410 EQ PUSH2 0x17F JUMPI DUP1 PUSH4 0xC8110466 EQ PUSH2 0x1AF JUMPI DUP1 PUSH4 0xF2FDE38B EQ PUSH2 0x1DF JUMPI PUSH2 0x9C JUMP JUMPDEST DUP1 PUSH4 0x124F1EAD EQ PUSH2 0xA0 JUMPI DUP1 PUSH4 0x1FE1023C EQ PUSH2 0xBC JUMPI DUP1 PUSH4 0x3343808E EQ PUSH2 0xDA JUMPI DUP1 PUSH4 0x37DDC187 EQ PUSH2 0x10A JUMPI DUP1 PUSH4 0x5C9E4246 EQ PUSH2 0x13B JUMPI JUMPDEST PUSH0 DUP1 REVERT JUMPDEST PUSH2 0xBA PUSH1 0x4 DUP1 CALLDATASIZE SUB DUP2 ADD SWAP1 PUSH2 0xB5 SWAP2 SWAP1 PUSH2 0x10E7 JUMP JUMPDEST PUSH2 0x1FB JUMP JUMPDEST STOP JUMPDEST PUSH2 0xC4 PUSH2 0x356 JUMP JUMPDEST PUSH1 0x40 MLOAD PUSH2 0xD1 SWAP2 SWAP1 PUSH2 0x112A JUMP JUMPDEST PUSH1 0x40 MLOAD DUP1 SWAP2 SUB SWAP1 RETURN JUMPDEST PUSH2 0xF4 PUSH1 0x4 DUP1 CALLDATASIZE SUB DUP2 ADD SWAP1 PUSH2 0xEF SWAP2 SWAP1 PUSH2 0x116D JUMP JUMPDEST PUSH2 0x362 JUMP JUMPDEST PUSH1 0x40 MLOAD PUSH2 0x101 SWAP2 SWAP1 PUSH2 0x11EE JUMP JUMPDEST PUSH1 0x40 MLOAD DUP1 SWAP2 SUB SWAP1 RETURN JUMPDEST PUSH2 0x124 PUSH1 0x4 DUP1 CALLDATASIZE SUB DUP2 ADD SWAP1 PUSH2 0x11F SWAP2 SWAP1 PUSH2 0x116D JUMP JUMPDEST PUSH2 0x44D JUMP JUMPDEST PUSH1 0x40 MLOAD PUSH2 0x132 SWAP3 SWAP2 SWAP1 PUSH2 0x1225 JUMP JUMPDEST PUSH1 0x40 MLOAD DUP1 SWAP2 SUB SWAP1 RETURN JUMPDEST PUSH2 0x155 PUSH1 0x4 DUP1 CALLDATASIZE SUB DUP2 ADD SWAP1 PUSH2 0x150 SWAP2 SWAP1 PUSH2 0x10E7 JUMP JUMPDEST PUSH2 0x4A3 JUMP JUMPDEST STOP JUMPDEST PUSH2 0x15F PUSH2 0x6DC JUMP JUMPDEST STOP JUMPDEST PUSH2 0x169 PUSH2 0x6EF JUMP JUMPDEST PUSH1 0x40 MLOAD PUSH2 0x176 SWAP2 SWAP1 PUSH2 0x124C JUMP JUMPDEST PUSH1 0x40 MLOAD DUP1 SWAP2 SUB SWAP1 RETURN JUMPDEST PUSH2 0x199 PUSH1 0x4 DUP1 CALLDATASIZE SUB DUP2 ADD SWAP1 PUSH2 0x194 SWAP2 SWAP1 PUSH2 0x10E7 JUMP JUMPDEST PUSH2 0x716 JUMP JUMPDEST PUSH1 0x40 MLOAD PUSH2 0x1A6 SWAP2 SWAP1 PUSH2 0x112A JUMP JUMPDEST PUSH1 0x40 MLOAD DUP1 SWAP2 SUB SWAP1 RETURN JUMPDEST PUSH2 0x1C9 PUSH1 0x4 DUP1 CALLDATASIZE SUB DUP2 ADD SWAP1 PUSH2 0x1C4 SWAP2 SWAP1 PUSH2 0x1265 JUMP JUMPDEST PUSH2 0x72B JUMP JUMPDEST PUSH1 0x40 MLOAD PUSH2 0x1D6 SWAP2 SWAP1 PUSH2 0x112A JUMP JUMPDEST PUSH1 0x40 MLOAD DUP1 SWAP2 SUB SWAP1 RETURN JUMPDEST PUSH2 0x1F9 PUSH1 0x4 DUP1 CALLDATASIZE SUB DUP2 ADD SWAP1 PUSH2 0x1F4 SWAP2 SWAP1 PUSH2 0x10E7 JUMP JUMPDEST PUSH2 0xAA1 JUMP JUMPDEST STOP JUMPDEST PUSH2 0x203 PUSH2 0xB25 JUMP JUMPDEST PUSH0 PUSH1 0x3 PUSH0 DUP4 PUSH20 0xFFFFFFFFFFFFFFFFFFFFFFFFFFFFFFFFFFFFFFFF AND PUSH20 0xFFFFFFFFFFFFFFFFFFFFFFFFFFFFFFFFFFFFFFFF AND DUP2 MSTORE PUSH1 0x20 ADD SWAP1 DUP2 MSTORE PUSH1 0x20 ADD PUSH0 KECCAK256 SLOAD SWAP1 POP PUSH0 DUP2 SUB PUSH2 0x286 JUMPI PUSH1 0x40 MLOAD PUSH32 0x8C379A000000000000000000000000000000000000000000000000000000000 DUP2 MSTORE PUSH1 0x4 ADD PUSH2 0x27D SWAP1 PUSH2 0x1348 JUMP JUMPDEST PUSH1 0x40 MLOAD DUP1 SWAP2 SUB SWAP1 REVERT JUMPDEST PUSH0 PUSH1 0x1 DUP3 PUSH2 0x294 SWAP2 SWAP1 PUSH2 0x1393 JUMP JUMPDEST SWAP1 POP PUSH0 PUSH1 0x2 DUP3 DUP2 SLOAD DUP2 LT PUSH2 0x2AB JUMPI PUSH2 0x2AA PUSH2 0x13C6 JUMP JUMPDEST JUMPDEST SWAP1 PUSH0 MSTORE PUSH1 0x20 PUSH0 KECCAK256 ADD PUSH0 ADD PUSH1 0x14 PUSH2 0x100 EXP DUP2 SLOAD DUP2 PUSH1 0xFF MUL NOT AND SWAP1 DUP4 ISZERO ISZERO MUL OR SWAP1 SSTORE POP PUSH0 PUSH1 0x3 PUSH0 DUP6 PUSH20 0xFFFFFFFFFFFFFFFFFFFFFFFFFFFFFFFFFFFFFFFF AND PUSH20 0xFFFFFFFFFFFFFFFFFFFFFFFFFFFFFFFFFFFFFFFF AND DUP2 MSTORE PUSH1 0x20 ADD SWAP1 DUP2 MSTORE PUSH1 0x20 ADD PUSH0 KECCAK256 DUP2 SWAP1 SSTORE POP DUP3 PUSH20 0xFFFFFFFFFFFFFFFFFFFFFFFFFFFFFFFFFFFFFFFF AND PUSH32 0x78E0A2FFCDFBBB49BA5C8050D8630FAB2176D825E8360809DB049CD98F462A78 PUSH1 0x40 MLOAD PUSH1 0x40 MLOAD DUP1 SWAP2 SUB SWAP1 LOG2 POP POP POP JUMP JUMPDEST PUSH0 PUSH1 0x2 DUP1 SLOAD SWAP1 POP SWAP1 POP SWAP1 JUMP JUMPDEST PUSH2 0x36A PUSH2 0x1059 JUMP JUMPDEST PUSH1 0x2 DUP1 SLOAD SWAP1 POP DUP3 LT PUSH2 0x3B1 JUMPI PUSH1 0x40 MLOAD PUSH32 0x8C379A000000000000000000000000000000000000000000000000000000000 DUP2 MSTORE PUSH1 0x4 ADD PUSH2 0x3A8 SWAP1 PUSH2 0x143D JUMP JUMPDEST PUSH1 0x40 MLOAD DUP1 SWAP2 SUB SWAP1 REVERT JUMPDEST PUSH1 0x2 DUP3 DUP2 SLOAD DUP2 LT PUSH2 0x3C5 JUMPI PUSH2 0x3C4 PUSH2 0x13C6 JUMP JUMPDEST JUMPDEST SWAP1 PUSH0 MSTORE PUSH1 0x20 PUSH0 KECCAK256 ADD PUSH1 0x40 MLOAD DUP1 PUSH1 0x40 ADD PUSH1 0x40 MSTORE SWAP1 DUP2 PUSH0 DUP3 ADD PUSH0 SWAP1 SLOAD SWAP1 PUSH2 0x100 EXP SWAP1 DIV PUSH20 0xFFFFFFFFFFFFFFFFFFFFFFFFFFFFFFFFFFFFFFFF AND PUSH20 0xFFFFFFFFFFFFFFFFFFFFFFFFFFFFFFFFFFFFFFFF AND PUSH20 0xFFFFFFFFFFFFFFFFFFFFFFFFFFFFFFFFFFFFFFFF AND DUP2 MSTORE PUSH1 0x20 ADD PUSH0 DUP3 ADD PUSH1 0x14 SWAP1 SLOAD SWAP1 PUSH2 0x100 EXP SWAP1 DIV PUSH1 0xFF AND ISZERO ISZERO ISZERO ISZERO DUP2 MSTORE POP POP SWAP1 POP SWAP2 SWAP1 POP JUMP JUMPDEST PUSH1 0x2 DUP2 DUP2 SLOAD DUP2 LT PUSH2 0x45C JUMPI PUSH0 DUP1 REVERT JUMPDEST SWAP1 PUSH0 MSTORE PUSH1 0x20 PUSH0 KECCAK256 ADD PUSH0 SWAP2 POP SWAP1 POP DUP1 PUSH0 ADD PUSH0 SWAP1 SLOAD SWAP1 PUSH2 0x100 EXP SWAP1 DIV PUSH20 0xFFFFFFFFFFFFFFFFFFFFFFFFFFFFFFFFFFFFFFFF AND SWAP1 DUP1 PUSH0 ADD PUSH1 0x14 SWAP1 SLOAD SWAP1 PUSH2 0x100 EXP SWAP1 DIV PUSH1 0xFF AND SWAP1 POP DUP3 JUMP JUMPDEST PUSH2 0x4AB PUSH2 0xB25 JUMP JUMPDEST PUSH0 PUSH20 0xFFFFFFFFFFFFFFFFFFFFFFFFFFFFFFFFFFFFFFFF AND DUP2 PUSH20 0xFFFFFFFFFFFFFFFFFFFFFFFFFFFFFFFFFFFFFFFF AND SUB PUSH2 0x519 JUMPI PUSH1 0x40 MLOAD PUSH32 0x8C379A000000000000000000000000000000000000000000000000000000000 DUP2 MSTORE PUSH1 0x4 ADD PUSH2 0x510 SWAP1 PUSH2 0x14A5 JUMP JUMPDEST PUSH1 0x40 MLOAD DUP1 SWAP2 SUB SWAP1 REVERT JUMPDEST PUSH0 PUSH1 0x3 PUSH0 DUP4 PUSH20 0xFFFFFFFFFFFFFFFFFFFFFFFFFFFFFFFFFFFFFFFF AND PUSH20 0xFFFFFFFFFFFFFFFFFFFFFFFFFFFFFFFFFFFFFFFF AND DUP2 MSTORE PUSH1 0x20 ADD SWAP1 DUP2 MSTORE PUSH1 0x20 ADD PUSH0 KECCAK256 SLOAD EQ PUSH2 0x598 JUMPI PUSH1 0x40 MLOAD PUSH32 0x8C379A000000000000000000000000000000000000000000000000000000000 DUP2 MSTORE PUSH1 0x4 ADD PUSH2 0x58F SWAP1 PUSH2 0x150D JUMP JUMPDEST PUSH1 0x40 MLOAD DUP1 SWAP2 SUB SWAP1 REVERT JUMPDEST PUSH1 0x2 PUSH1 0x40 MLOAD DUP1 PUSH1 0x40 ADD PUSH1 0x40 MSTORE DUP1 DUP4 PUSH20 0xFFFFFFFFFFFFFFFFFFFFFFFFFFFFFFFFFFFFFFFF AND DUP2 MSTORE PUSH1 0x20 ADD PUSH1 0x1 ISZERO ISZERO DUP2 MSTORE POP SWAP1 DUP1 PUSH1 0x1 DUP2 SLOAD ADD DUP1 DUP3 SSTORE DUP1 SWAP2 POP POP PUSH1 0x1 SWAP1 SUB SWAP1 PUSH0 MSTORE PUSH1 0x20 PUSH0 KECCAK256 ADD PUSH0 SWAP1 SWAP2 SWAP1 SWAP2 SWAP1 SWAP2 POP PUSH0 DUP3 ADD MLOAD DUP2 PUSH0 ADD PUSH0 PUSH2 0x100 EXP DUP2 SLOAD DUP2 PUSH20 0xFFFFFFFFFFFFFFFFFFFFFFFFFFFFFFFFFFFFFFFF MUL NOT AND SWAP1 DUP4 PUSH20 0xFFFFFFFFFFFFFFFFFFFFFFFFFFFFFFFFFFFFFFFF AND MUL OR SWAP1 SSTORE POP PUSH1 0x20 DUP3 ADD MLOAD DUP2 PUSH0 ADD PUSH1 0x14 PUSH2 0x100 EXP DUP2 SLOAD DUP2 PUSH1 0xFF MUL NOT AND SWAP1 DUP4 ISZERO ISZERO MUL OR SWAP1 SSTORE POP POP POP PUSH1 0x2 DUP1 SLOAD SWAP1 POP PUSH1 0x3 PUSH0 DUP4 PUSH20 0xFFFFFFFFFFFFFFFFFFFFFFFFFFFFFFFFFFFFFFFF AND PUSH20 0xFFFFFFFFFFFFFFFFFFFFFFFFFFFFFFFFFFFFFFFF AND DUP2 MSTORE PUSH1 0x20 ADD SWAP1 DUP2 MSTORE PUSH1 0x20 ADD PUSH0 KECCAK256 DUP2 SWAP1 SSTORE POP DUP1 PUSH20 0xFFFFFFFFFFFFFFFFFFFFFFFFFFFFFFFFFFFFFFFF AND PUSH32 0xE9B911B95C029A3E2522EB5188D455919D909B073EB5729A2174C3B1CC9C5815 PUSH1 0x40 MLOAD PUSH1 0x40 MLOAD DUP1 SWAP2 SUB SWAP1 LOG2 POP JUMP JUMPDEST PUSH2 0x6E4 PUSH2 0xB25 JUMP JUMPDEST PUSH2 0x6ED PUSH0 PUSH2 0xBAC JUMP JUMPDEST JUMP JUMPDEST PUSH0 DUP1 PUSH0 SWAP1 SLOAD SWAP1 PUSH2 0x100 EXP SWAP1 DIV PUSH20 0xFFFFFFFFFFFFFFFFFFFFFFFFFFFFFFFFFFFFFFFF AND SWAP1 POP SWAP1 JUMP JUMPDEST PUSH1 0x3 PUSH1 0x20 MSTORE DUP1 PUSH0 MSTORE PUSH1 0x40 PUSH0 KECCAK256 PUSH0 SWAP2 POP SWAP1 POP SLOAD DUP2 JUMP JUMPDEST PUSH0 PUSH2 0x734 PUSH2 0xC6D JUMP JUMPDEST PUSH0 PUSH1 0x3 PUSH0 DUP10 PUSH20 0xFFFFFFFFFFFFFFFFFFFFFFFFFFFFFFFFFFFFFFFF AND PUSH20 0xFFFFFFFFFFFFFFFFFFFFFFFFFFFFFFFFFFFFFFFF AND DUP2 MSTORE PUSH1 0x20 ADD SWAP1 DUP2 MSTORE PUSH1 0x20 ADD PUSH0 KECCAK256 SLOAD SWAP1 POP PUSH0 DUP2 SUB PUSH2 0x7B7 JUMPI PUSH1 0x40 MLOAD PUSH32 0x8C379A000000000000000000000000000000000000000000000000000000000 DUP2 MSTORE PUSH1 0x4 ADD PUSH2 0x7AE SWAP1 PUSH2 0x1348 JUMP JUMPDEST PUSH1 0x40 MLOAD DUP1 SWAP2 SUB SWAP1 REVERT JUMPDEST PUSH0 PUSH1 0x2 PUSH1 0x1 DUP4 PUSH2 0x7C7 SWAP2 SWAP1 PUSH2 0x1393 JUMP JUMPDEST DUP2 SLOAD DUP2 LT PUSH2 0x7D8 JUMPI PUSH2 0x7D7 PUSH2 0x13C6 JUMP JUMPDEST JUMPDEST SWAP1 PUSH0 MSTORE PUSH1 0x20 PUSH0 KECCAK256 ADD PUSH1 0x40 MLOAD DUP1 PUSH1 0x40 ADD PUSH1 0x40 MSTORE SWAP1 DUP2 PUSH0 DUP3 ADD PUSH0 SWAP1 SLOAD SWAP1 PUSH2 0x100 EXP SWAP1 DIV PUSH20 0xFFFFFFFFFFFFFFFFFFFFFFFFFFFFFFFFFFFFFFFF AND PUSH20 0xFFFFFFFFFFFFFFFFFFFFFFFFFFFFFFFFFFFFFFFF AND PUSH20 0xFFFFFFFFFFFFFFFFFFFFFFFFFFFFFFFFFFFFFFFF AND DUP2 MSTORE PUSH1 0x20 ADD PUSH0 DUP3 ADD PUSH1 0x14 SWAP1 SLOAD SWAP1 PUSH2 0x100 EXP SWAP1 DIV PUSH1 0xFF AND ISZERO ISZERO ISZERO ISZERO DUP2 MSTORE POP POP SWAP1 POP DUP1 PUSH1 0x20 ADD MLOAD PUSH2 0x89F JUMPI PUSH1 0x40 MLOAD PUSH32 0x8C379A000000000000000000000000000000000000000000000000000000000 DUP2 MSTORE PUSH1 0x4 ADD PUSH2 0x896 SWAP1 PUSH2 0x1575 JUMP JUMPDEST PUSH1 0x40 MLOAD DUP1 SWAP2 SUB SWAP1 REVERT JUMPDEST PUSH2 0x8AB DUP9 CALLER ADDRESS DUP10 PUSH2 0xCBC JUMP JUMPDEST PUSH2 0x8EA JUMPI PUSH1 0x40 MLOAD PUSH32 0x8C379A000000000000000000000000000000000000000000000000000000000 DUP2 MSTORE PUSH1 0x4 ADD PUSH2 0x8E1 SWAP1 PUSH2 0x15DD JUMP JUMPDEST PUSH1 0x40 MLOAD DUP1 SWAP2 SUB SWAP1 REVERT JUMPDEST PUSH2 0x8F5 DUP9 DUP11 DUP9 PUSH2 0xDED JUMP JUMPDEST PUSH2 0x934 JUMPI PUSH1 0x40 MLOAD PUSH32 0x8C379A000000000000000000000000000000000000000000000000000000000 DUP2 MSTORE PUSH1 0x4 ADD PUSH2 0x92B SWAP1 PUSH2 0x1645 JUMP JUMPDEST PUSH1 0x40 MLOAD DUP1 SWAP2 SUB SWAP1 REVERT JUMPDEST DUP9 PUSH20 0xFFFFFFFFFFFFFFFFFFFFFFFFFFFFFFFFFFFFFFFF AND PUSH4 0xD5BCB9B5 DUP10 DUP10 DUP10 DUP10 ADDRESS PUSH1 0x40 MLOAD DUP7 PUSH4 0xFFFFFFFF AND PUSH1 0xE0 SHL DUP2 MSTORE PUSH1 0x4 ADD PUSH2 0x975 SWAP6 SWAP5 SWAP4 SWAP3 SWAP2 SWAP1 PUSH2 0x1663 JUMP JUMPDEST PUSH1 0x20 PUSH1 0x40 MLOAD DUP1 DUP4 SUB DUP2 PUSH0 DUP8 GAS CALL ISZERO DUP1 ISZERO PUSH2 0x991 JUMPI RETURNDATASIZE PUSH0 DUP1 RETURNDATACOPY RETURNDATASIZE PUSH0 REVERT JUMPDEST POP POP POP POP PUSH1 0x40 MLOAD RETURNDATASIZE PUSH1 0x1F NOT PUSH1 0x1F DUP3 ADD AND DUP3 ADD DUP1 PUSH1 0x40 MSTORE POP DUP2 ADD SWAP1 PUSH2 0x9B5 SWAP2 SWAP1 PUSH2 0x16C8 JUMP JUMPDEST SWAP3 POP PUSH2 0x9C2 DUP9 DUP11 PUSH0 PUSH2 0xDED JUMP JUMPDEST POP PUSH2 0x9CE DUP8 DUP6 DUP6 PUSH2 0xF1B JUMP JUMPDEST PUSH2 0xA0D JUMPI PUSH1 0x40 MLOAD PUSH32 0x8C379A000000000000000000000000000000000000000000000000000000000 DUP2 MSTORE PUSH1 0x4 ADD PUSH2 0xA04 SWAP1 PUSH2 0x173D JUMP JUMPDEST PUSH1 0x40 MLOAD DUP1 SWAP2 SUB SWAP1 REVERT JUMPDEST DUP7 PUSH20 0xFFFFFFFFFFFFFFFFFFFFFFFFFFFFFFFFFFFFFFFF AND DUP9 PUSH20 0xFFFFFFFFFFFFFFFFFFFFFFFFFFFFFFFFFFFFFFFF AND DUP11 PUSH20 0xFFFFFFFFFFFFFFFFFFFFFFFFFFFFFFFFFFFFFFFF AND PUSH32 0x78144DE69C30989060D6BC0B4E6DA9A31B6497866DB952E683D0221E9CD20165 DUP10 DUP10 DUP9 PUSH1 0x40 MLOAD PUSH2 0xA85 SWAP4 SWAP3 SWAP2 SWAP1 PUSH2 0x175B JUMP JUMPDEST PUSH1 0x40 MLOAD DUP1 SWAP2 SUB SWAP1 LOG4 POP POP PUSH2 0xA97 PUSH2 0x1049 JUMP JUMPDEST SWAP7 SWAP6 POP POP POP POP POP POP JUMP JUMPDEST PUSH2 0xAA9 PUSH2 0xB25 JUMP JUMPDEST PUSH0 PUSH20 0xFFFFFFFFFFFFFFFFFFFFFFFFFFFFFFFFFFFFFFFF AND DUP2 PUSH20 0xFFFFFFFFFFFFFFFFFFFFFFFFFFFFFFFFFFFFFFFF AND SUB PUSH2 0xB19 JUMPI PUSH0 PUSH1 0x40 MLOAD PUSH32 0x1E4FBDF700000000000000000000000000000000000000000000000000000000 DUP2 MSTORE PUSH1 0x4 ADD PUSH2 0xB10 SWAP2 SWAP1 PUSH2 0x124C JUMP JUMPDEST PUSH1 0x40 MLOAD DUP1 SWAP2 SUB SWAP1 REVERT JUMPDEST PUSH2 0xB22 DUP2 PUSH2 0xBAC JUMP JUMPDEST POP JUMP JUMPDEST PUSH2 0xB2D PUSH2 0x1052 JUMP JUMPDEST PUSH20 0xFFFFFFFFFFFFFFFFFFFFFFFFFFFFFFFFFFFFFFFF AND PUSH2 0xB4B PUSH2 0x6EF JUMP JUMPDEST PUSH20 0xFFFFFFFFFFFFFFFFFFFFFFFFFFFFFFFFFFFFFFFF AND EQ PUSH2 0xBAA JUMPI PUSH2 0xB6E PUSH2 0x1052 JUMP JUMPDEST PUSH1 0x40 MLOAD PUSH32 0x118CDAA700000000000000000000000000000000000000000000000000000000 DUP2 MSTORE PUSH1 0x4 ADD PUSH2 0xBA1 SWAP2 SWAP1 PUSH2 0x124C JUMP JUMPDEST PUSH1 0x40 MLOAD DUP1 SWAP2 SUB SWAP1 REVERT JUMPDEST JUMP JUMPDEST PUSH0 DUP1 PUSH0 SWAP1 SLOAD SWAP1 PUSH2 0x100 EXP SWAP1 DIV PUSH20 0xFFFFFFFFFFFFFFFFFFFFFFFFFFFFFFFFFFFFFFFF AND SWAP1 POP DUP2 PUSH0 DUP1 PUSH2 0x100 EXP DUP2 SLOAD DUP2 PUSH20 0xFFFFFFFFFFFFFFFFFFFFFFFFFFFFFFFFFFFFFFFF MUL NOT AND SWAP1 DUP4 PUSH20 0xFFFFFFFFFFFFFFFFFFFFFFFFFFFFFFFFFFFFFFFF AND MUL OR SWAP1 SSTORE POP DUP2 PUSH20 0xFFFFFFFFFFFFFFFFFFFFFFFFFFFFFFFFFFFFFFFF AND DUP2 PUSH20 0xFFFFFFFFFFFFFFFFFFFFFFFFFFFFFFFFFFFFFFFF AND PUSH32 0x8BE0079C531659141344CD1FD0A4F28419497F9722A3DAAFE3B4186F6B6457E0 PUSH1 0x40 MLOAD PUSH1 0x40 MLOAD DUP1 SWAP2 SUB SWAP1 LOG3 POP POP JUMP JUMPDEST PUSH1 0x2 PUSH1 0x1 SLOAD SUB PUSH2 0xCB2 JUMPI PUSH1 0x40 MLOAD PUSH32 0x8C379A000000000000000000000000000000000000000000000000000000000 DUP2 MSTORE PUSH1 0x4 ADD PUSH2 0xCA9 SWAP1 PUSH2 0x17DA JUMP JUMPDEST PUSH1 0x40 MLOAD DUP1 SWAP2 SUB SWAP1 REVERT JUMPDEST PUSH1 0x2 PUSH1 0x1 DUP2 SWAP1 SSTORE POP JUMP JUMPDEST PUSH0 DUP1 PUSH0 DUP7 PUSH20 0xFFFFFFFFFFFFFFFFFFFFFFFFFFFFFFFFFFFFFFFF AND PUSH32 0x23B872DD7302113369CDA2901243429419BEC145408FA8B352B3DD92B66C680B DUP8 DUP8 DUP8 PUSH1 0x40 MLOAD PUSH1 0x24 ADD PUSH2 0xD0C SWAP4 SWAP3 SWAP2 SWAP1 PUSH2 0x17F8 JUMP JUMPDEST PUSH1 0x40 MLOAD PUSH1 0x20 DUP2 DUP4 SUB SUB DUP2 MSTORE SWAP1 PUSH1 0x40 MSTORE SWAP1 PUSH28 0xFFFFFFFFFFFFFFFFFFFFFFFFFFFFFFFFFFFFFFFFFFFFFFFFFFFFFFFF NOT AND PUSH1 0x20 DUP3 ADD DUP1 MLOAD PUSH28 0xFFFFFFFFFFFFFFFFFFFFFFFFFFFFFFFFFFFFFFFFFFFFFFFFFFFFFFFF DUP4 DUP2 DUP4 AND OR DUP4 MSTORE POP POP POP POP PUSH1 0x40 MLOAD PUSH2 0xD76 SWAP2 SWAP1 PUSH2 0x187F JUMP JUMPDEST PUSH0 PUSH1 0x40 MLOAD DUP1 DUP4 SUB DUP2 PUSH0 DUP7 GAS CALL SWAP2 POP POP RETURNDATASIZE DUP1 PUSH0 DUP2 EQ PUSH2 0xDAF JUMPI PUSH1 0x40 MLOAD SWAP2 POP PUSH1 0x1F NOT PUSH1 0x3F RETURNDATASIZE ADD AND DUP3 ADD PUSH1 0x40 MSTORE RETURNDATASIZE DUP3 MSTORE RETURNDATASIZE PUSH0 PUSH1 0x20 DUP5 ADD RETURNDATACOPY PUSH2 0xDB4 JUMP JUMPDEST PUSH1 0x60 SWAP2 POP JUMPDEST POP SWAP2 POP SWAP2 POP DUP2 DUP1 ISZERO PUSH2 0xDE1 JUMPI POP PUSH0 DUP2 MLOAD EQ DUP1 PUSH2 0xDE0 JUMPI POP DUP1 DUP1 PUSH1 0x20 ADD SWAP1 MLOAD DUP2 ADD SWAP1 PUSH2 0xDDF SWAP2 SWAP1 PUSH2 0x18BF JUMP JUMPDEST JUMPDEST JUMPDEST SWAP3 POP POP POP SWAP5 SWAP4 POP POP POP POP JUMP JUMPDEST PUSH0 DUP1 PUSH0 DUP6 PUSH20 0xFFFFFFFFFFFFFFFFFFFFFFFFFFFFFFFFFFFFFFFF AND PUSH32 0x95EA7B334AE44009AA867BFB386F5C3B4B443AC6F0EE573FA91C4608FBADFBA DUP7 DUP7 PUSH1 0x40 MLOAD PUSH1 0x24 ADD PUSH2 0xE3B SWAP3 SWAP2 SWAP1 PUSH2 0x18EA JUMP JUMPDEST PUSH1 0x40 MLOAD PUSH1 0x20 DUP2 DUP4 SUB SUB DUP2 MSTORE SWAP1 PUSH1 0x40 MSTORE SWAP1 PUSH28 0xFFFFFFFFFFFFFFFFFFFFFFFFFFFFFFFFFFFFFFFFFFFFFFFFFFFFFFFF NOT AND PUSH1 0x20 DUP3 ADD DUP1 MLOAD PUSH28 0xFFFFFFFFFFFFFFFFFFFFFFFFFFFFFFFFFFFFFFFFFFFFFFFFFFFFFFFF DUP4 DUP2 DUP4 AND OR DUP4 MSTORE POP POP POP POP PUSH1 0x40 MLOAD PUSH2 0xEA5 SWAP2 SWAP1 PUSH2 0x187F JUMP JUMPDEST PUSH0 PUSH1 0x40 MLOAD DUP1 DUP4 SUB DUP2 PUSH0 DUP7 GAS CALL SWAP2 POP POP RETURNDATASIZE DUP1 PUSH0 DUP2 EQ PUSH2 0xEDE JUMPI PUSH1 0x40 MLOAD SWAP2 POP PUSH1 0x1F NOT PUSH1 0x3F RETURNDATASIZE ADD AND DUP3 ADD PUSH1 0x40 MSTORE RETURNDATASIZE DUP3 MSTORE RETURNDATASIZE PUSH0 PUSH1 0x20 DUP5 ADD RETURNDATACOPY PUSH2 0xEE3 JUMP JUMPDEST PUSH1 0x60 SWAP2 POP JUMPDEST POP SWAP2 POP SWAP2 POP DUP2 DUP1 ISZERO PUSH2 0xF10 JUMPI POP PUSH0 DUP2 MLOAD EQ DUP1 PUSH2 0xF0F JUMPI POP DUP1 DUP1 PUSH1 0x20 ADD SWAP1 MLOAD DUP2 ADD SWAP1 PUSH2 0xF0E SWAP2 SWAP1 PUSH2 0x18BF JUMP JUMPDEST JUMPDEST JUMPDEST SWAP3 POP POP POP SWAP4 SWAP3 POP POP POP JUMP JUMPDEST PUSH0 DUP1 PUSH0 DUP6 PUSH20 0xFFFFFFFFFFFFFFFFFFFFFFFFFFFFFFFFFFFFFFFF AND PUSH32 0xA9059CBB2AB09EB219583F4A59A5D0623ADE346D962BCD4E46B11DA047C9049B DUP7 DUP7 PUSH1 0x40 MLOAD PUSH1 0x24 ADD PUSH2 0xF69 SWAP3 SWAP2 SWAP1 PUSH2 0x18EA JUMP JUMPDEST PUSH1 0x40 MLOAD PUSH1 0x20 DUP2 DUP4 SUB SUB DUP2 MSTORE SWAP1 PUSH1 0x40 MSTORE SWAP1 PUSH28 0xFFFFFFFFFFFFFFFFFFFFFFFFFFFFFFFFFFFFFFFFFFFFFFFFFFFFFFFF NOT AND PUSH1 0x20 DUP3 ADD DUP1 MLOAD PUSH28 0xFFFFFFFFFFFFFFFFFFFFFFFFFFFFFFFFFFFFFFFFFFFFFFFFFFFFFFFF DUP4 DUP2 DUP4 AND OR DUP4 MSTORE POP POP POP POP PUSH1 0x40 MLOAD PUSH2 0xFD3 SWAP2 SWAP1 PUSH2 0x187F JUMP JUMPDEST PUSH0 PUSH1 0x40 MLOAD DUP1 DUP4 SUB DUP2 PUSH0 DUP7 GAS CALL SWAP2 POP POP RETURNDATASIZE DUP1 PUSH0 DUP2 EQ PUSH2 0x100C JUMPI PUSH1 0x40 MLOAD SWAP2 POP PUSH1 0x1F NOT PUSH1 0x3F RETURNDATASIZE ADD AND DUP3 ADD PUSH1 0x40 MSTORE RETURNDATASIZE DUP3 MSTORE RETURNDATASIZE PUSH0 PUSH1 0x20 DUP5 ADD RETURNDATACOPY PUSH2 0x1011 JUMP JUMPDEST PUSH1 0x60 SWAP2 POP JUMPDEST POP SWAP2 POP SWAP2 POP DUP2 DUP1 ISZERO PUSH2 0x103E JUMPI POP PUSH0 DUP2 MLOAD EQ DUP1 PUSH2 0x103D JUMPI POP DUP1 DUP1 PUSH1 0x20 ADD SWAP1 MLOAD DUP2 ADD SWAP1 PUSH2 0x103C SWAP2 SWAP1 PUSH2 0x18BF JUMP JUMPDEST JUMPDEST JUMPDEST SWAP3 POP POP POP SWAP4 SWAP3 POP POP POP JUMP JUMPDEST PUSH1 0x1 DUP1 DUP2 SWAP1 SSTORE POP JUMP JUMPDEST PUSH0 CALLER SWAP1 POP SWAP1 JUMP JUMPDEST PUSH1 0x40 MLOAD DUP1 PUSH1 0x40 ADD PUSH1 0x40 MSTORE DUP1 PUSH0 PUSH20 0xFFFFFFFFFFFFFFFFFFFFFFFFFFFFFFFFFFFFFFFF AND DUP2 MSTORE PUSH1 0x20 ADD PUSH0 ISZERO ISZERO DUP2 MSTORE POP SWAP1 JUMP JUMPDEST PUSH0 DUP1 REVERT JUMPDEST PUSH0 PUSH20 0xFFFFFFFFFFFFFFFFFFFFFFFFFFFFFFFFFFFFFFFF DUP3 AND SWAP1 POP SWAP2 SWAP1 POP JUMP JUMPDEST PUSH0 PUSH2 0x10B6 DUP3 PUSH2 0x108D JUMP JUMPDEST SWAP1 POP SWAP2 SWAP1 POP JUMP JUMPDEST PUSH2 0x10C6 DUP2 PUSH2 0x10AC JUMP JUMPDEST DUP2 EQ PUSH2 0x10D0 JUMPI PUSH0 DUP1 REVERT JUMPDEST POP JUMP JUMPDEST PUSH0 DUP2 CALLDATALOAD SWAP1 POP PUSH2 0x10E1 DUP2 PUSH2 0x10BD JUMP JUMPDEST SWAP3 SWAP2 POP POP JUMP JUMPDEST PUSH0 PUSH1 0x20 DUP3 DUP5 SUB SLT ISZERO PUSH2 0x10FC JUMPI PUSH2 0x10FB PUSH2 0x1089 JUMP JUMPDEST JUMPDEST PUSH0 PUSH2 0x1109 DUP5 DUP3 DUP6 ADD PUSH2 0x10D3 JUMP JUMPDEST SWAP2 POP POP SWAP3 SWAP2 POP POP JUMP JUMPDEST PUSH0 DUP2 SWAP1 POP SWAP2 SWAP1 POP JUMP JUMPDEST PUSH2 0x1124 DUP2 PUSH2 0x1112 JUMP JUMPDEST DUP3 MSTORE POP POP JUMP JUMPDEST PUSH0 PUSH1 0x20 DUP3 ADD SWAP1 POP PUSH2 0x113D PUSH0 DUP4 ADD DUP5 PUSH2 0x111B JUMP JUMPDEST SWAP3 SWAP2 POP POP JUMP JUMPDEST PUSH2 0x114C DUP2 PUSH2 0x1112 JUMP JUMPDEST DUP2 EQ PUSH2 0x1156 JUMPI PUSH0 DUP1 REVERT JUMPDEST POP JUMP JUMPDEST PUSH0 DUP2 CALLDATALOAD SWAP1 POP PUSH2 0x1167 DUP2 PUSH2 0x1143 JUMP JUMPDEST SWAP3 SWAP2 POP POP JUMP JUMPDEST PUSH0 PUSH1 0x20 DUP3 DUP5 SUB SLT ISZERO PUSH2 0x1182 JUMPI PUSH2 0x1181 PUSH2 0x1089 JUMP JUMPDEST JUMPDEST PUSH0 PUSH2 0x118F DUP5 DUP3 DUP6 ADD PUSH2 0x1159 JUMP JUMPDEST SWAP2 POP POP SWAP3 SWAP2 POP POP JUMP JUMPDEST PUSH2 0x11A1 DUP2 PUSH2 0x10AC JUMP JUMPDEST DUP3 MSTORE POP POP JUMP JUMPDEST PUSH0 DUP2 ISZERO ISZERO SWAP1 POP SWAP2 SWAP1 POP JUMP JUMPDEST PUSH2 0x11BB DUP2 PUSH2 0x11A7 JUMP JUMPDEST DUP3 MSTORE POP POP JUMP JUMPDEST PUSH1 0x40 DUP3 ADD PUSH0 DUP3 ADD MLOAD PUSH2 0x11D5 PUSH0 DUP6 ADD DUP3 PUSH2 0x1198 JUMP JUMPDEST POP PUSH1 0x20 DUP3 ADD MLOAD PUSH2 0x11E8 PUSH1 0x20 DUP6 ADD DUP3 PUSH2 0x11B2 JUMP JUMPDEST POP POP POP POP JUMP JUMPDEST PUSH0 PUSH1 0x40 DUP3 ADD SWAP1 POP PUSH2 0x1201 PUSH0 DUP4 ADD DUP5 PUSH2 0x11C1 JUMP JUMPDEST SWAP3 SWAP2 POP POP JUMP JUMPDEST PUSH2 0x1210 DUP2 PUSH2 0x10AC JUMP JUMPDEST DUP3 MSTORE POP POP JUMP JUMPDEST PUSH2 0x121F DUP2 PUSH2 0x11A7 JUMP JUMPDEST DUP3 MSTORE POP POP JUMP JUMPDEST PUSH0 PUSH1 0x40 DUP3 ADD SWAP1 POP PUSH2 0x1238 PUSH0 DUP4 ADD DUP6 PUSH2 0x1207 JUMP JUMPDEST PUSH2 0x1245 PUSH1 0x20 DUP4 ADD DUP5 PUSH2 0x1216 JUMP JUMPDEST SWAP4 SWAP3 POP POP POP JUMP JUMPDEST PUSH0 PUSH1 0x20 DUP3 ADD SWAP1 POP PUSH2 0x125F PUSH0 DUP4 ADD DUP5 PUSH2 0x1207 JUMP JUMPDEST SWAP3 SWAP2 POP POP JUMP JUMPDEST PUSH0 DUP1 PUSH0 DUP1 PUSH0 DUP1 PUSH1 0xC0 DUP8 DUP10 SUB SLT ISZERO PUSH2 0x127F JUMPI PUSH2 0x127E PUSH2 0x1089 JUMP JUMPDEST JUMPDEST PUSH0 PUSH2 0x128C DUP10 DUP3 DUP11 ADD PUSH2 0x10D3 JUMP JUMPDEST SWAP7 POP POP PUSH1 0x20 PUSH2 0x129D DUP10 DUP3 DUP11 ADD PUSH2 0x10D3 JUMP JUMPDEST SWAP6 POP POP PUSH1 0x40 PUSH2 0x12AE DUP10 DUP3 DUP11 ADD PUSH2 0x10D3 JUMP JUMPDEST SWAP5 POP POP PUSH1 0x60 PUSH2 0x12BF DUP10 DUP3 DUP11 ADD PUSH2 0x1159 JUMP JUMPDEST SWAP4 POP POP PUSH1 0x80 PUSH2 0x12D0 DUP10 DUP3 DUP11 ADD PUSH2 0x1159 JUMP JUMPDEST SWAP3 POP POP PUSH1 0xA0 PUSH2 0x12E1 DUP10 DUP3 DUP11 ADD PUSH2 0x10D3 JUMP JUMPDEST SWAP2 POP POP SWAP3 SWAP6 POP SWAP3 SWAP6 POP SWAP3 SWAP6 JUMP JUMPDEST PUSH0 DUP3 DUP3 MSTORE PUSH1 0x20 DUP3 ADD SWAP1 POP SWAP3 SWAP2 POP POP JUMP JUMPDEST PUSH32 0x444558206E6F7420726567697374657265640000000000000000000000000000 PUSH0 DUP3 ADD MSTORE POP JUMP JUMPDEST PUSH0 PUSH2 0x1332 PUSH1 0x12 DUP4 PUSH2 0x12EE JUMP JUMPDEST SWAP2 POP PUSH2 0x133D DUP3 PUSH2 0x12FE JUMP JUMPDEST PUSH1 0x20 DUP3 ADD SWAP1 POP SWAP2 SWAP1 POP JUMP JUMPDEST PUSH0 PUSH1 0x20 DUP3 ADD SWAP1 POP DUP2 DUP2 SUB PUSH0 DUP4 ADD MSTORE PUSH2 0x135F DUP2 PUSH2 0x1326 JUMP JUMPDEST SWAP1 POP SWAP2 SWAP1 POP JUMP JUMPDEST PUSH32 0x4E487B7100000000000000000000000000000000000000000000000000000000 PUSH0 MSTORE PUSH1 0x11 PUSH1 0x4 MSTORE PUSH1 0x24 PUSH0 REVERT JUMPDEST PUSH0 PUSH2 0x139D DUP3 PUSH2 0x1112 JUMP JUMPDEST SWAP2 POP PUSH2 0x13A8 DUP4 PUSH2 0x1112 JUMP JUMPDEST SWAP3 POP DUP3 DUP3 SUB SWAP1 POP DUP2 DUP2 GT ISZERO PUSH2 0x13C0 JUMPI PUSH2 0x13BF PUSH2 0x1366 JUMP JUMPDEST JUMPDEST SWAP3 SWAP2 POP POP JUMP JUMPDEST PUSH32 0x4E487B7100000000000000000000000000000000000000000000000000000000 PUSH0 MSTORE PUSH1 0x32 PUSH1 0x4 MSTORE PUSH1 0x24 PUSH0 REVERT JUMPDEST PUSH32 0x496E646578206F7574206F662072616E67650000000000000000000000000000 PUSH0 DUP3 ADD MSTORE POP JUMP JUMPDEST PUSH0 PUSH2 0x1427 PUSH1 0x12 DUP4 PUSH2 0x12EE JUMP JUMPDEST SWAP2 POP PUSH2 0x1432 DUP3 PUSH2 0x13F3 JUMP JUMPDEST PUSH1 0x20 DUP3 ADD SWAP1 POP SWAP2 SWAP1 POP JUMP JUMPDEST PUSH0 PUSH1 0x20 DUP3 ADD SWAP1 POP DUP2 DUP2 SUB PUSH0 DUP4 ADD MSTORE PUSH2 0x1454 DUP2 PUSH2 0x141B JUMP JUMPDEST SWAP1 POP SWAP2 SWAP1 POP JUMP JUMPDEST PUSH32 0x496E76616C696420646578206164647265737300000000000000000000000000 PUSH0 DUP3 ADD MSTORE POP JUMP JUMPDEST PUSH0 PUSH2 0x148F PUSH1 0x13 DUP4 PUSH2 0x12EE JUMP JUMPDEST SWAP2 POP PUSH2 0x149A DUP3 PUSH2 0x145B JUMP JUMPDEST PUSH1 0x20 DUP3 ADD SWAP1 POP SWAP2 SWAP1 POP JUMP JUMPDEST PUSH0 PUSH1 0x20 DUP3 ADD SWAP1 POP DUP2 DUP2 SUB PUSH0 DUP4 ADD MSTORE PUSH2 0x14BC DUP2 PUSH2 0x1483 JUMP JUMPDEST SWAP1 POP SWAP2 SWAP1 POP JUMP JUMPDEST PUSH32 0x44455820616C7265616479207265676973746572656400000000000000000000 PUSH0 DUP3 ADD MSTORE POP JUMP JUMPDEST PUSH0 PUSH2 0x14F7 PUSH1 0x16 DUP4 PUSH2 0x12EE JUMP JUMPDEST SWAP2 POP PUSH2 0x1502 DUP3 PUSH2 0x14C3 JUMP JUMPDEST PUSH1 0x20 DUP3 ADD SWAP1 POP SWAP2 SWAP1 POP JUMP JUMPDEST PUSH0 PUSH1 0x20 DUP3 ADD SWAP1 POP DUP2 DUP2 SUB PUSH0 DUP4 ADD MSTORE PUSH2 0x1524 DUP2 PUSH2 0x14EB JUMP JUMPDEST SWAP1 POP SWAP2 SWAP1 POP JUMP JUMPDEST PUSH32 0x44455820697320696E6163746976650000000000000000000000000000000000 PUSH0 DUP3 ADD MSTORE POP JUMP JUMPDEST PUSH0 PUSH2 0x155F PUSH1 0xF DUP4 PUSH2 0x12EE JUMP JUMPDEST SWAP2 POP PUSH2 0x156A DUP3 PUSH2 0x152B JUMP JUMPDEST PUSH1 0x20 DUP3 ADD SWAP1 POP SWAP2 SWAP1 POP JUMP JUMPDEST PUSH0 PUSH1 0x20 DUP3 ADD SWAP1 POP DUP2 DUP2 SUB PUSH0 DUP4 ADD MSTORE PUSH2 0x158C DUP2 PUSH2 0x1553 JUMP JUMPDEST SWAP1 POP SWAP2 SWAP1 POP JUMP JUMPDEST PUSH32 0x746F6B656E496E207472616E73666572206661696C6564000000000000000000 PUSH0 DUP3 ADD MSTORE POP JUMP JUMPDEST PUSH0 PUSH2 0x15C7 PUSH1 0x17 DUP4 PUSH2 0x12EE JUMP JUMPDEST SWAP2 POP PUSH2 0x15D2 DUP3 PUSH2 0x1593 JUMP JUMPDEST PUSH1 0x20 DUP3 ADD SWAP1 POP SWAP2 SWAP1 POP JUMP JUMPDEST PUSH0 PUSH1 0x20 DUP3 ADD SWAP1 POP DUP2 DUP2 SUB PUSH0 DUP4 ADD MSTORE PUSH2 0x15F4 DUP2 PUSH2 0x15BB JUMP JUMPDEST SWAP1 POP SWAP2 SWAP1 POP JUMP JUMPDEST PUSH32 0x44455820617070726F7665206661696C65640000000000000000000000000000 PUSH0 DUP3 ADD MSTORE POP JUMP JUMPDEST PUSH0 PUSH2 0x162F PUSH1 0x12 DUP4 PUSH2 0x12EE JUMP JUMPDEST SWAP2 POP PUSH2 0x163A DUP3 PUSH2 0x15FB JUMP JUMPDEST PUSH1 0x20 DUP3 ADD SWAP1 POP SWAP2 SWAP1 POP JUMP JUMPDEST PUSH0 PUSH1 0x20 DUP3 ADD SWAP1 POP DUP2 DUP2 SUB PUSH0 DUP4 ADD MSTORE PUSH2 0x165C DUP2 PUSH2 0x1623 JUMP JUMPDEST SWAP1 POP SWAP2 SWAP1 POP JUMP JUMPDEST PUSH0 PUSH1 0xA0 DUP3 ADD SWAP1 POP PUSH2 0x1676 PUSH0 DUP4 ADD DUP9 PUSH2 0x1207 JUMP JUMPDEST PUSH2 0x1683 PUSH1 0x20 DUP4 ADD DUP8 PUSH2 0x1207 JUMP JUMPDEST PUSH2 0x1690 PUSH1 0x40 DUP4 ADD DUP7 PUSH2 0x111B JUMP JUMPDEST PUSH2 0x169D PUSH1 0x60 DUP4 ADD DUP6 PUSH2 0x111B JUMP JUMPDEST PUSH2 0x16AA PUSH1 0x80 DUP4 ADD DUP5 PUSH2 0x1207 JUMP JUMPDEST SWAP7 SWAP6 POP POP POP POP POP POP JUMP JUMPDEST PUSH0 DUP2 MLOAD SWAP1 POP PUSH2 0x16C2 DUP2 PUSH2 0x1143 JUMP JUMPDEST SWAP3 SWAP2 POP POP JUMP JUMPDEST PUSH0 PUSH1 0x20 DUP3 DUP5 SUB SLT ISZERO PUSH2 0x16DD JUMPI PUSH2 0x16DC PUSH2 0x1089 JUMP JUMPDEST JUMPDEST PUSH0 PUSH2 0x16EA DUP5 DUP3 DUP6 ADD PUSH2 0x16B4 JUMP JUMPDEST SWAP2 POP POP SWAP3 SWAP2 POP POP JUMP JUMPDEST PUSH32 0x746F6B656E4F7574207472616E73666572206661696C65640000000000000000 PUSH0 DUP3 ADD MSTORE POP JUMP JUMPDEST PUSH0 PUSH2 0x1727 PUSH1 0x18 DUP4 PUSH2 0x12EE JUMP JUMPDEST SWAP2 POP PUSH2 0x1732 DUP3 PUSH2 0x16F3 JUMP JUMPDEST PUSH1 0x20 DUP3 ADD SWAP1 POP SWAP2 SWAP1 POP JUMP JUMPDEST PUSH0 PUSH1 0x20 DUP3 ADD SWAP1 POP DUP2 DUP2 SUB PUSH0 DUP4 ADD MSTORE PUSH2 0x1754 DUP2 PUSH2 0x171B JUMP JUMPDEST SWAP1 POP SWAP2 SWAP1 POP JUMP JUMPDEST PUSH0 PUSH1 0x60 DUP3 ADD SWAP1 POP PUSH2 0x176E PUSH0 DUP4 ADD DUP7 PUSH2 0x111B JUMP JUMPDEST PUSH2 0x177B PUSH1 0x20 DUP4 ADD DUP6 PUSH2 0x111B JUMP JUMPDEST PUSH2 0x1788 PUSH1 0x40 DUP4 ADD DUP5 PUSH2 0x111B JUMP JUMPDEST SWAP5 SWAP4 POP POP POP POP JUMP JUMPDEST PUSH32 0x5265656E7472616E637947756172643A207265656E7472616E742063616C6C00 PUSH0 DUP3 ADD MSTORE POP JUMP JUMPDEST PUSH0 PUSH2 0x17C4 PUSH1 0x1F DUP4 PUSH2 0x12EE JUMP JUMPDEST SWAP2 POP PUSH2 0x17CF DUP3 PUSH2 0x1790 JUMP JUMPDEST PUSH1 0x20 DUP3 ADD SWAP1 POP SWAP2 SWAP1 POP JUMP JUMPDEST PUSH0 PUSH1 0x20 DUP3 ADD SWAP1 POP DUP2 DUP2 SUB PUSH0 DUP4 ADD MSTORE PUSH2 0x17F1 DUP2 PUSH2 0x17B8 JUMP JUMPDEST SWAP1 POP SWAP2 SWAP1 POP JUMP JUMPDEST PUSH0 PUSH1 0x60 DUP3 ADD SWAP1 POP PUSH2 0x180B PUSH0 DUP4 ADD DUP7 PUSH2 0x1207 JUMP JUMPDEST PUSH2 0x1818 PUSH1 0x20 DUP4 ADD DUP6 PUSH2 0x1207 JUMP JUMPDEST PUSH2 0x1825 PUSH1 0x40 DUP4 ADD DUP5 PUSH2 0x111B JUMP JUMPDEST SWAP5 SWAP4 POP POP POP POP JUMP JUMPDEST PUSH0 DUP2 MLOAD SWAP1 POP SWAP2 SWAP1 POP JUMP JUMPDEST PUSH0 DUP2 SWAP1 POP SWAP3 SWAP2 POP POP JUMP JUMPDEST DUP3 DUP2 DUP4 MCOPY PUSH0 DUP4 DUP4 ADD MSTORE POP POP POP JUMP JUMPDEST PUSH0 PUSH2 0x1859 DUP3 PUSH2 0x182D JUMP JUMPDEST PUSH2 0x1863 DUP2 DUP6 PUSH2 0x1837 JUMP JUMPDEST SWAP4 POP PUSH2 0x1873 DUP2 DUP6 PUSH1 0x20 DUP7 ADD PUSH2 0x1841 JUMP JUMPDEST DUP1 DUP5 ADD SWAP2 POP POP SWAP3 SWAP2 POP POP JUMP JUMPDEST PUSH0 PUSH2 0x188A DUP3 DUP5 PUSH2 0x184F JUMP JUMPDEST SWAP2 POP DUP2 SWAP1 POP SWAP3 SWAP2 POP POP JUMP JUMPDEST PUSH2 0x189E DUP2 PUSH2 0x11A7 JUMP JUMPDEST DUP2 EQ PUSH2 0x18A8 JUMPI PUSH0 DUP1 REVERT JUMPDEST POP JUMP JUMPDEST PUSH0 DUP2 MLOAD SWAP1 POP PUSH2 0x18B9 DUP2 PUSH2 0x1895 JUMP JUMPDEST SWAP3 SWAP2 POP POP JUMP JUMPDEST PUSH0 PUSH1 0x20 DUP3 DUP5 SUB SLT ISZERO PUSH2 0x18D4 JUMPI PUSH2 0x18D3 PUSH2 0x1089 JUMP JUMPDEST JUMPDEST PUSH0 PUSH2 0x18E1 DUP5 DUP3 DUP6 ADD PUSH2 0x18AB JUMP JUMPDEST SWAP2 POP POP SWAP3 SWAP2 POP POP JUMP JUMPDEST PUSH0 PUSH1 0x40 DUP3 ADD SWAP1 POP PUSH2 0x18FD PUSH0 DUP4 ADD DUP6 PUSH2 0x1207 JUMP JUMPDEST PUSH2 0x190A PUSH1 0x20 DUP4 ADD DUP5 PUSH2 0x111B JUMP JUMPDEST SWAP4 SWAP3 POP POP POP JUMP INVALID LOG2 PUSH5 0x6970667358 0x22 SLT KECCAK256 0xCD PUSH27 0x6F498167890AC2B61C93B1470C99A147D07B9A8202343F0244D4C7 0xBE CALLER 0xC3 PUSH5 0x736F6C6343 STOP ADDMOD NOT STOP CALLER "
		},
		"gasEstimates": {
			"creation": {
				"codeDepositCost": "1294200",
				"executionCost": "infinite",
				"totalCost": "infinite"
			},
			"external": {
				"dexIndexPlusOne(address)": "2846",
				"dexList(uint256)": "7336",
				"getDexInfo(uint256)": "9679",
				"owner()": "2537",
				"registerDex(address)": "infinite",
				"removeDex(address)": "infinite",
				"renounceOwnership()": "infinite",
				"swapOnDex(address,address,address,uint256,uint256,address)": "infinite",
				"totalDexCount()": "2463",
				"transferOwnership(address)": "infinite"
			},
			"internal": {
				"_safeApprove(address,address,uint256)": "infinite",
				"_safeTransfer(address,address,uint256)": "infinite",
				"_safeTransferFrom(address,address,address,uint256)": "infinite"
			}
		},
		"methodIdentifiers": {
			"dexIndexPlusOne(address)": "c66bb410",
			"dexList(uint256)": "37ddc187",
			"getDexInfo(uint256)": "3343808e",
			"owner()": "8da5cb5b",
			"registerDex(address)": "5c9e4246",
			"removeDex(address)": "124f1ead",
			"renounceOwnership()": "715018a6",
			"swapOnDex(address,address,address,uint256,uint256,address)": "c8110466",
			"totalDexCount()": "1fe1023c",
			"transferOwnership(address)": "f2fde38b"
		}
	},
	"abi": [
		{
			"inputs": [],
			"stateMutability": "nonpayable",
			"type": "constructor"
		},
		{
			"inputs": [
				{
					"internalType": "address",
					"name": "owner",
					"type": "address"
				}
			],
			"name": "OwnableInvalidOwner",
			"type": "error"
		},
		{
			"inputs": [
				{
					"internalType": "address",
					"name": "account",
					"type": "address"
				}
			],
			"name": "OwnableUnauthorizedAccount",
			"type": "error"
		},
		{
			"anonymous": false,
			"inputs": [
				{
					"indexed": true,
					"internalType": "address",
					"name": "dexAddr",
					"type": "address"
				}
			],
			"name": "DexRegistered",
			"type": "event"
		},
		{
			"anonymous": false,
			"inputs": [
				{
					"indexed": true,
					"internalType": "address",
					"name": "dexAddr",
					"type": "address"
				}
			],
			"name": "DexRemoved",
			"type": "event"
		},
		{
			"anonymous": false,
			"inputs": [
				{
					"indexed": true,
					"internalType": "address",
					"name": "previousOwner",
					"type": "address"
				},
				{
					"indexed": true,
					"internalType": "address",
					"name": "newOwner",
					"type": "address"
				}
			],
			"name": "OwnershipTransferred",
			"type": "event"
		},
		{
			"anonymous": false,
			"inputs": [
				{
					"indexed": true,
					"internalType": "address",
					"name": "dex",
					"type": "address"
				},
				{
					"indexed": true,
					"internalType": "address",
					"name": "tokenIn",
					"type": "address"
				},
				{
					"indexed": true,
					"internalType": "address",
					"name": "tokenOut",
					"type": "address"
				},
				{
					"indexed": false,
					"internalType": "uint256",
					"name": "amountIn",
					"type": "uint256"
				},
				{
					"indexed": false,
					"internalType": "uint256",
					"name": "minOut",
					"type": "uint256"
				},
				{
					"indexed": false,
					"internalType": "uint256",
					"name": "amountOut",
					"type": "uint256"
				}
			],
			"name": "TokensSwapped",
			"type": "event"
		},
		{
			"inputs": [
				{
					"internalType": "address",
					"name": "",
					"type": "address"
				}
			],
			"name": "dexIndexPlusOne",
			"outputs": [
				{
					"internalType": "uint256",
					"name": "",
					"type": "uint256"
				}
			],
			"stateMutability": "view",
			"type": "function"
		},
		{
			"inputs": [
				{
					"internalType": "uint256",
					"name": "",
					"type": "uint256"
				}
			],
			"name": "dexList",
			"outputs": [
				{
					"internalType": "address",
					"name": "dexAddress",
					"type": "address"
				},
				{
					"internalType": "bool",
					"name": "active",
					"type": "bool"
				}
			],
			"stateMutability": "view",
			"type": "function"
		},
		{
			"inputs": [
				{
					"internalType": "uint256",
					"name": "index",
					"type": "uint256"
				}
			],
			"name": "getDexInfo",
			"outputs": [
				{
					"components": [
						{
							"internalType": "address",
							"name": "dexAddress",
							"type": "address"
						},
						{
							"internalType": "bool",
							"name": "active",
							"type": "bool"
						}
					],
					"internalType": "struct DexAggregator.DexInfo",
					"name": "",
					"type": "tuple"
				}
			],
			"stateMutability": "view",
			"type": "function"
		},
		{
			"inputs": [],
			"name": "owner",
			"outputs": [
				{
					"internalType": "address",
					"name": "",
					"type": "address"
				}
			],
			"stateMutability": "view",
			"type": "function"
		},
		{
			"inputs": [
				{
					"internalType": "address",
					"name": "dexAddr",
					"type": "address"
				}
			],
			"name": "registerDex",
			"outputs": [],
			"stateMutability": "nonpayable",
			"type": "function"
		},
		{
			"inputs": [
				{
					"internalType": "address",
					"name": "dexAddr",
					"type": "address"
				}
			],
			"name": "removeDex",
			"outputs": [],
			"stateMutability": "nonpayable",
			"type": "function"
		},
		{
			"inputs": [],
			"name": "renounceOwnership",
			"outputs": [],
			"stateMutability": "nonpayable",
			"type": "function"
		},
		{
			"inputs": [
				{
					"internalType": "address",
					"name": "dexAddr",
					"type": "address"
				},
				{
					"internalType": "address",
					"name": "tokenIn",
					"type": "address"
				},
				{
					"internalType": "address",
					"name": "tokenOut",
					"type": "address"
				},
				{
					"internalType": "uint256",
					"name": "amountIn",
					"type": "uint256"
				},
				{
					"internalType": "uint256",
					"name": "minOut",
					"type": "uint256"
				},
				{
					"internalType": "address",
					"name": "to",
					"type": "address"
				}
			],
			"name": "swapOnDex",
			"outputs": [
				{
					"internalType": "uint256",
					"name": "amountOut",
					"type": "uint256"
				}
			],
			"stateMutability": "nonpayable",
			"type": "function"
		},
		{
			"inputs": [],
			"name": "totalDexCount",
			"outputs": [
				{
					"internalType": "uint256",
					"name": "",
					"type": "uint256"
				}
			],
			"stateMutability": "view",
			"type": "function"
		},
		{
			"inputs": [
				{
					"internalType": "address",
					"name": "newOwner",
					"type": "address"
				}
			],
			"name": "transferOwnership",
			"outputs": [],
			"stateMutability": "nonpayable",
			"type": "function"
		}
	]
}