{
	"data": {
		"bytecode": {
			"linkReferences": {},
			"object": "6080604052348015600e575f5ffd5b5060015f819055506113f5806100235f395ff3fe608060405234801561000f575f5ffd5b5060043610610060575f3560e01c80632129c76114610064578063420ee96914610094578063a309e6e1146100c4578063c37c596f146100e0578063e16efc6d146100ea578063f653b81e14610106575b5f5ffd5b61007e60048036038101906100799190610a4a565b610139565b60405161008b9190610b7e565b60405180910390f35b6100ae60048036038101906100a99190610a4a565b6102d3565b6040516100bb9190610bad565b60405180910390f35b6100de60048036038101906100d99190610c27565b610327565b005b6100e86105a1565b005b61010460048036038101906100ff9190610c27565b6106b4565b005b610120600480360381019061011b9190610a4a565b610826565b6040516101309493929190610cfc565b60405180910390f35b6101416109c0565b60015f8373ffffffffffffffffffffffffffffffffffffffff1673ffffffffffffffffffffffffffffffffffffffff1681526020019081526020015f206040518060800160405290815f82015f9054906101000a900460ff161515151581526020016001820180546101b290610d7a565b80601f01602080910402602001604051908101604052809291908181526020018280546101de90610d7a565b80156102295780601f1061020057610100808354040283529160200191610229565b820191905f5260205f20905b81548152906001019060200180831161020c57829003601f168201915b5050505050815260200160028201805461024290610d7a565b80601f016020809104026020016040519081016040528092919081815260200182805461026e90610d7a565b80156102b95780601f10610290576101008083540402835291602001916102b9565b820191905f5260205f20905b81548152906001019060200180831161029c57829003601f168201915b505050505081526020016003820154815250509050919050565b5f60015f8373ffffffffffffffffffffffffffffffffffffffff1673ffffffffffffffffffffffffffffffffffffffff1681526020019081526020015f205f015f9054906101000a900460ff169050919050565b61032f61096a565b60015f3373ffffffffffffffffffffffffffffffffffffffff1673ffffffffffffffffffffffffffffffffffffffff1681526020019081526020015f205f015f9054906101000a900460ff16156103bb576040517f08c379a00000000000000000000000000000000000000000000000000000000081526004016103b290610df4565b60405180910390fd5b5f8484905011610400576040517f08c379a00000000000000000000000000000000000000000000000000000000081526004016103f790610e5c565b60405180910390fd5b604051806080016040528060011515815260200185858080601f0160208091040260200160405190810160405280939291908181526020018383808284375f81840152601f19601f82011690508083019250505050505050815260200183838080601f0160208091040260200160405190810160405280939291908181526020018383808284375f81840152601f19601f8201169050808301925050505050505081526020014281525060015f3373ffffffffffffffffffffffffffffffffffffffff1673ffffffffffffffffffffffffffffffffffffffff1681526020019081526020015f205f820151815f015f6101000a81548160ff02191690831515021790555060208201518160010190816105199190611047565b50604082015181600201908161052f9190611047565b50606082015181600301559050503373ffffffffffffffffffffffffffffffffffffffff167fb44d04e3995e2588cd8d1bf7a7f2ae78c07025d4f4d28c651612bcf4519c241f858585854260405161058b959493929190611150565b60405180910390a261059b6109b7565b50505050565b6105a961096a565b5f60015f3373ffffffffffffffffffffffffffffffffffffffff1673ffffffffffffffffffffffffffffffffffffffff1681526020019081526020015f209050805f015f9054906101000a900460ff16610638576040517f08c379a000000000000000000000000000000000000000000000000000000000815260040161062f906111e1565b60405180910390fd5b5f815f015f6101000a81548160ff0219169083151502179055504281600301819055503373ffffffffffffffffffffffffffffffffffffffff167ff06dfe9062e9317cd357560ea667d65a9b032f1a674c04e99653e894e145c8fa426040516106a191906111ff565b60405180910390a2506106b26109b7565b565b6106bc61096a565b5f60015f3373ffffffffffffffffffffffffffffffffffffffff1673ffffffffffffffffffffffffffffffffffffffff1681526020019081526020015f209050805f015f9054906101000a900460ff1661074b576040517f08c379a000000000000000000000000000000000000000000000000000000000815260040161074290611262565b60405180910390fd5b5f8585905011610790576040517f08c379a000000000000000000000000000000000000000000000000000000000815260040161078790610e5c565b60405180910390fd5b84848260010191826107a392919061128a565b5082828260020191826107b792919061128a565b504281600301819055503373ffffffffffffffffffffffffffffffffffffffff167f1b7c647fcdf72720e83e21aa513465c010bea26574010b9e5ca7cac5016626a2868686864260405161080f959493929190611150565b60405180910390a2506108206109b7565b50505050565b6001602052805f5260405f205f91509050805f015f9054906101000a900460ff169080600101805461085790610d7a565b80601f016020809104026020016040519081016040528092919081815260200182805461088390610d7a565b80156108ce5780601f106108a5576101008083540402835291602001916108ce565b820191905f5260205f20905b8154815290600101906020018083116108b157829003601f168201915b5050505050908060020180546108e390610d7a565b80601f016020809104026020016040519081016040528092919081815260200182805461090f90610d7a565b801561095a5780601f106109315761010080835404028352916020019161095a565b820191905f5260205f20905b81548152906001019060200180831161093d57829003601f168201915b5050505050908060030154905084565b60025f54036109ae576040517f08c379a00000000000000000000000000000000000000000000000000000000081526004016109a5906113a1565b60405180910390fd5b60025f81905550565b60015f81905550565b60405180608001604052805f1515815260200160608152602001606081526020015f81525090565b5f5ffd5b5f5ffd5b5f73ffffffffffffffffffffffffffffffffffffffff82169050919050565b5f610a19826109f0565b9050919050565b610a2981610a0f565b8114610a33575f5ffd5b50565b5f81359050610a4481610a20565b92915050565b5f60208284031215610a5f57610a5e6109e8565b5b5f610a6c84828501610a36565b91505092915050565b5f8115159050919050565b610a8981610a75565b82525050565b5f81519050919050565b5f82825260208201905092915050565b8281835e5f83830152505050565b5f601f19601f8301169050919050565b5f610ad182610a8f565b610adb8185610a99565b9350610aeb818560208601610aa9565b610af481610ab7565b840191505092915050565b5f819050919050565b610b1181610aff565b82525050565b5f608083015f830151610b2c5f860182610a80565b5060208301518482036020860152610b448282610ac7565b91505060408301518482036040860152610b5e8282610ac7565b9150506060830151610b736060860182610b08565b508091505092915050565b5f6020820190508181035f830152610b968184610b17565b905092915050565b610ba781610a75565b82525050565b5f602082019050610bc05f830184610b9e565b92915050565b5f5ffd5b5f5ffd5b5f5ffd5b5f5f83601f840112610be757610be6610bc6565b5b8235905067ffffffffffffffff811115610c0457610c03610bca565b5b602083019150836001820283011115610c2057610c1f610bce565b5b9250929050565b5f5f5f5f60408587031215610c3f57610c3e6109e8565b5b5f85013567ffffffffffffffff811115610c5c57610c5b6109ec565b5b610c6887828801610bd2565b9450945050602085013567ffffffffffffffff811115610c8b57610c8a6109ec565b5b610c9787828801610bd2565b925092505092959194509250565b5f82825260208201905092915050565b5f610cbf82610a8f565b610cc98185610ca5565b9350610cd9818560208601610aa9565b610ce281610ab7565b840191505092915050565b610cf681610aff565b82525050565b5f608082019050610d0f5f830187610b9e565b8181036020830152610d218186610cb5565b90508181036040830152610d358185610cb5565b9050610d446060830184610ced565b95945050505050565b7f4e487b71000000000000000000000000000000000000000000000000000000005f52602260045260245ffd5b5f6002820490506001821680610d9157607f821691505b602082108103610da457610da3610d4d565b5b50919050565b7f4964656e7469747920616c7265616479206578697374730000000000000000005f82015250565b5f610dde601783610ca5565b9150610de982610daa565b602082019050919050565b5f6020820190508181035f830152610e0b81610dd2565b9050919050565b7f4e616d652063616e6e6f7420626520656d7074790000000000000000000000005f82015250565b5f610e46601483610ca5565b9150610e5182610e12565b602082019050919050565b5f6020820190508181035f830152610e7381610e3a565b9050919050565b7f4e487b71000000000000000000000000000000000000000000000000000000005f52604160045260245ffd5b5f819050815f5260205f209050919050565b5f6020601f8301049050919050565b5f82821b905092915050565b5f60088302610f037fffffffffffffffffffffffffffffffffffffffffffffffffffffffffffffffff82610ec8565b610f0d8683610ec8565b95508019841693508086168417925050509392505050565b5f819050919050565b5f610f48610f43610f3e84610aff565b610f25565b610aff565b9050919050565b5f819050919050565b610f6183610f2e565b610f75610f6d82610f4f565b848454610ed4565b825550505050565b5f5f905090565b610f8c610f7d565b610f97818484610f58565b505050565b5b81811015610fba57610faf5f82610f84565b600181019050610f9d565b5050565b601f821115610fff57610fd081610ea7565b610fd984610eb9565b81016020851015610fe8578190505b610ffc610ff485610eb9565b830182610f9c565b50505b505050565b5f82821c905092915050565b5f61101f5f1984600802611004565b1980831691505092915050565b5f6110378383611010565b9150826002028217905092915050565b61105082610a8f565b67ffffffffffffffff81111561106957611068610e7a565b5b6110738254610d7a565b61107e828285610fbe565b5f60209050601f8311600181146110af575f841561109d578287015190505b6110a7858261102c565b86555061110e565b601f1984166110bd86610ea7565b5f5b828110156110e4578489015182556001820191506020850194506020810190506110bf565b8683101561110157848901516110fd601f891682611010565b8355505b6001600288020188555050505b505050505050565b828183375f83830152505050565b5f61112f8385610ca5565b935061113c838584611116565b61114583610ab7565b840190509392505050565b5f6060820190508181035f830152611169818789611124565b9050818103602083015261117e818587611124565b905061118d6040830184610ced565b9695505050505050565b7f4e6f20616374697665206964656e7469747920746f2072656d6f7665000000005f82015250565b5f6111cb601c83610ca5565b91506111d682611197565b602082019050919050565b5f6020820190508181035f8301526111f8816111bf565b9050919050565b5f6020820190506112125f830184610ced565b92915050565b7f4e6f20616374697665206964656e7469747920746f20757064617465000000005f82015250565b5f61124c601c83610ca5565b915061125782611218565b602082019050919050565b5f6020820190508181035f83015261127981611240565b9050919050565b5f82905092915050565b6112948383611280565b67ffffffffffffffff8111156112ad576112ac610e7a565b5b6112b78254610d7a565b6112c2828285610fbe565b5f601f8311600181146112ef575f84156112dd578287013590505b6112e7858261102c565b86555061134e565b601f1984166112fd86610ea7565b5f5b82811015611324578489013582556001820191506020850194506020810190506112ff565b86831015611341578489013561133d601f891682611010565b8355505b6001600288020188555050505b50505050505050565b7f5265656e7472616e637947756172643a207265656e7472616e742063616c6c005f82015250565b5f61138b601f83610ca5565b915061139682611357565b602082019050919050565b5f6020820190508181035f8301526113b88161137f565b905091905056fea2646970667358221220fc4ffbe739e06323f5bd336243d61a15817b2c1f4c76aba668573f23914d3ab864736f6c634300081d0033",
			"opcodes": "PUSH1 0x80 PUSH1 0x40 MSTORE CALLVALUE DUP1 ISZERO PUSH1 0xE JUMPI PUSH0 PUSH0 REVERT JUMPDEST POP PUSH1 0x1 PUSH0 DUP2 SWAP1 SSTORE POP PUSH2 0x13F5 DUP1 PUSH2 0x23 PUSH0 CODECOPY PUSH0 RETURN INVALID PUSH1 0x80 PUSH1 0x40 MSTORE CALLVALUE DUP1 ISZERO PUSH2 0xF JUMPI PUSH0 PUSH0 REVERT JUMPDEST POP PUSH1 0x4 CALLDATASIZE LT PUSH2 0x60 JUMPI PUSH0 CALLDATALOAD PUSH1 0xE0 SHR DUP1 PUSH4 0x2129C761 EQ PUSH2 0x64 JUMPI DUP1 PUSH4 0x420EE969 EQ PUSH2 0x94 JUMPI DUP1 PUSH4 0xA309E6E1 EQ PUSH2 0xC4 JUMPI DUP1 PUSH4 0xC37C596F EQ PUSH2 0xE0 JUMPI DUP1 PUSH4 0xE16EFC6D EQ PUSH2 0xEA JUMPI DUP1 PUSH4 0xF653B81E EQ PUSH2 0x106 JUMPI JUMPDEST PUSH0 PUSH0 REVERT JUMPDEST PUSH2 0x7E PUSH1 0x4 DUP1 CALLDATASIZE SUB DUP2 ADD SWAP1 PUSH2 0x79 SWAP2 SWAP1 PUSH2 0xA4A JUMP JUMPDEST PUSH2 0x139 JUMP JUMPDEST PUSH1 0x40 MLOAD PUSH2 0x8B SWAP2 SWAP1 PUSH2 0xB7E JUMP JUMPDEST PUSH1 0x40 MLOAD DUP1 SWAP2 SUB SWAP1 RETURN JUMPDEST PUSH2 0xAE PUSH1 0x4 DUP1 CALLDATASIZE SUB DUP2 ADD SWAP1 PUSH2 0xA9 SWAP2 SWAP1 PUSH2 0xA4A JUMP JUMPDEST PUSH2 0x2D3 JUMP JUMPDEST PUSH1 0x40 MLOAD PUSH2 0xBB SWAP2 SWAP1 PUSH2 0xBAD JUMP JUMPDEST PUSH1 0x40 MLOAD DUP1 SWAP2 SUB SWAP1 RETURN JUMPDEST PUSH2 0xDE PUSH1 0x4 DUP1 CALLDATASIZE SUB DUP2 ADD SWAP1 PUSH2 0xD9 SWAP2 SWAP1 PUSH2 0xC27 JUMP JUMPDEST PUSH2 0x327 JUMP JUMPDEST STOP JUMPDEST PUSH2 0xE8 PUSH2 0x5A1 JUMP JUMPDEST STOP JUMPDEST PUSH2 0x104 PUSH1 0x4 DUP1 CALLDATASIZE SUB DUP2 ADD SWAP1 PUSH2 0xFF SWAP2 SWAP1 PUSH2 0xC27 JUMP JUMPDEST PUSH2 0x6B4 JUMP JUMPDEST STOP JUMPDEST PUSH2 0x120 PUSH1 0x4 DUP1 CALLDATASIZE SUB DUP2 ADD SWAP1 PUSH2 0x11B SWAP2 SWAP1 PUSH2 0xA4A JUMP JUMPDEST PUSH2 0x826 JUMP JUMPDEST PUSH1 0x40 MLOAD PUSH2 0x130 SWAP5 SWAP4 SWAP3 SWAP2 SWAP1 PUSH2 0xCFC JUMP JUMPDEST PUSH1 0x40 MLOAD DUP1 SWAP2 SUB SWAP1 RETURN JUMPDEST PUSH2 0x141 PUSH2 0x9C0 JUMP JUMPDEST PUSH1 0x1 PUSH0 DUP4 PUSH20 0xFFFFFFFFFFFFFFFFFFFFFFFFFFFFFFFFFFFFFFFF AND PUSH20 0xFFFFFFFFFFFFFFFFFFFFFFFFFFFFFFFFFFFFFFFF AND DUP2 MSTORE PUSH1 0x20 ADD SWAP1 DUP2 MSTORE PUSH1 0x20 ADD PUSH0 KECCAK256 PUSH1 0x40 MLOAD DUP1 PUSH1 0x80 ADD PUSH1 0x40 MSTORE SWAP1 DUP2 PUSH0 DUP3 ADD PUSH0 SWAP1 SLOAD SWAP1 PUSH2 0x100 EXP SWAP1 DIV PUSH1 0xFF AND ISZERO ISZERO ISZERO ISZERO DUP2 MSTORE PUSH1 0x20 ADD PUSH1 0x1 DUP3 ADD DUP1 SLOAD PUSH2 0x1B2 SWAP1 PUSH2 0xD7A JUMP JUMPDEST DUP1 PUSH1 0x1F ADD PUSH1 0x20 DUP1 SWAP2 DIV MUL PUSH1 0x20 ADD PUSH1 0x40 MLOAD SWAP1 DUP2 ADD PUSH1 0x40 MSTORE DUP1 SWAP3 SWAP2 SWAP1 DUP2 DUP2 MSTORE PUSH1 0x20 ADD DUP3 DUP1 SLOAD PUSH2 0x1DE SWAP1 PUSH2 0xD7A JUMP JUMPDEST DUP1 ISZERO PUSH2 0x229 JUMPI DUP1 PUSH1 0x1F LT PUSH2 0x200 JUMPI PUSH2 0x100 DUP1 DUP4 SLOAD DIV MUL DUP4 MSTORE SWAP2 PUSH1 0x20 ADD SWAP2 PUSH2 0x229 JUMP JUMPDEST DUP3 ADD SWAP2 SWAP1 PUSH0 MSTORE PUSH1 0x20 PUSH0 KECCAK256 SWAP1 JUMPDEST DUP2 SLOAD DUP2 MSTORE SWAP1 PUSH1 0x1 ADD SWAP1 PUSH1 0x20 ADD DUP1 DUP4 GT PUSH2 0x20C JUMPI DUP3 SWAP1 SUB PUSH1 0x1F AND DUP3 ADD SWAP2 JUMPDEST POP POP POP POP POP DUP2 MSTORE PUSH1 0x20 ADD PUSH1 0x2 DUP3 ADD DUP1 SLOAD PUSH2 0x242 SWAP1 PUSH2 0xD7A JUMP JUMPDEST DUP1 PUSH1 0x1F ADD PUSH1 0x20 DUP1 SWAP2 DIV MUL PUSH1 0x20 ADD PUSH1 0x40 MLOAD SWAP1 DUP2 ADD PUSH1 0x40 MSTORE DUP1 SWAP3 SWAP2 SWAP1 DUP2 DUP2 MSTORE PUSH1 0x20 ADD DUP3 DUP1 SLOAD PUSH2 0x26E SWAP1 PUSH2 0xD7A JUMP JUMPDEST DUP1 ISZERO PUSH2 0x2B9 JUMPI DUP1 PUSH1 0x1F LT PUSH2 0x290 JUMPI PUSH2 0x100 DUP1 DUP4 SLOAD DIV MUL DUP4 MSTORE SWAP2 PUSH1 0x20 ADD SWAP2 PUSH2 0x2B9 JUMP JUMPDEST DUP3 ADD SWAP2 SWAP1 PUSH0 MSTORE PUSH1 0x20 PUSH0 KECCAK256 SWAP1 JUMPDEST DUP2 SLOAD DUP2 MSTORE SWAP1 PUSH1 0x1 ADD SWAP1 PUSH1 0x20 ADD DUP1 DUP4 GT PUSH2 0x29C JUMPI DUP3 SWAP1 SUB PUSH1 0x1F AND DUP3 ADD SWAP2 JUMPDEST POP POP POP POP POP DUP2 MSTORE PUSH1 0x20 ADD PUSH1 0x3 DUP3 ADD SLOAD DUP2 MSTORE POP POP SWAP1 POP SWAP2 SWAP1 POP JUMP JUMPDEST PUSH0 PUSH1 0x1 PUSH0 DUP4 PUSH20 0xFFFFFFFFFFFFFFFFFFFFFFFFFFFFFFFFFFFFFFFF AND PUSH20 0xFFFFFFFFFFFFFFFFFFFFFFFFFFFFFFFFFFFFFFFF AND DUP2 MSTORE PUSH1 0x20 ADD SWAP1 DUP2 MSTORE PUSH1 0x20 ADD PUSH0 KECCAK256 PUSH0 ADD PUSH0 SWAP1 SLOAD SWAP1 PUSH2 0x100 EXP SWAP1 DIV PUSH1 0xFF AND SWAP1 POP SWAP2 SWAP1 POP JUMP JUMPDEST PUSH2 0x32F PUSH2 0x96A JUMP JUMPDEST PUSH1 0x1 PUSH0 CALLER PUSH20 0xFFFFFFFFFFFFFFFFFFFFFFFFFFFFFFFFFFFFFFFF AND PUSH20 0xFFFFFFFFFFFFFFFFFFFFFFFFFFFFFFFFFFFFFFFF AND DUP2 MSTORE PUSH1 0x20 ADD SWAP1 DUP2 MSTORE PUSH1 0x20 ADD PUSH0 KECCAK256 PUSH0 ADD PUSH0 SWAP1 SLOAD SWAP1 PUSH2 0x100 EXP SWAP1 DIV PUSH1 0xFF AND ISZERO PUSH2 0x3BB JUMPI PUSH1 0x40 MLOAD PUSH32 0x8C379A000000000000000000000000000000000000000000000000000000000 DUP2 MSTORE PUSH1 0x4 ADD PUSH2 0x3B2 SWAP1 PUSH2 0xDF4 JUMP JUMPDEST PUSH1 0x40 MLOAD DUP1 SWAP2 SUB SWAP1 REVERT JUMPDEST PUSH0 DUP5 DUP5 SWAP1 POP GT PUSH2 0x400 JUMPI PUSH1 0x40 MLOAD PUSH32 0x8C379A000000000000000000000000000000000000000000000000000000000 DUP2 MSTORE PUSH1 0x4 ADD PUSH2 0x3F7 SWAP1 PUSH2 0xE5C JUMP JUMPDEST PUSH1 0x40 MLOAD DUP1 SWAP2 SUB SWAP1 REVERT JUMPDEST PUSH1 0x40 MLOAD DUP1 PUSH1 0x80 ADD PUSH1 0x40 MSTORE DUP1 PUSH1 0x1 ISZERO ISZERO DUP2 MSTORE PUSH1 0x20 ADD DUP6 DUP6 DUP1 DUP1 PUSH1 0x1F ADD PUSH1 0x20 DUP1 SWAP2 DIV MUL PUSH1 0x20 ADD PUSH1 0x40 MLOAD SWAP1 DUP2 ADD PUSH1 0x40 MSTORE DUP1 SWAP4 SWAP3 SWAP2 SWAP1 DUP2 DUP2 MSTORE PUSH1 0x20 ADD DUP4 DUP4 DUP1 DUP3 DUP5 CALLDATACOPY PUSH0 DUP2 DUP5 ADD MSTORE PUSH1 0x1F NOT PUSH1 0x1F DUP3 ADD AND SWAP1 POP DUP1 DUP4 ADD SWAP3 POP POP POP POP POP POP POP DUP2 MSTORE PUSH1 0x20 ADD DUP4 DUP4 DUP1 DUP1 PUSH1 0x1F ADD PUSH1 0x20 DUP1 SWAP2 DIV MUL PUSH1 0x20 ADD PUSH1 0x40 MLOAD SWAP1 DUP2 ADD PUSH1 0x40 MSTORE DUP1 SWAP4 SWAP3 SWAP2 SWAP1 DUP2 DUP2 MSTORE PUSH1 0x20 ADD DUP4 DUP4 DUP1 DUP3 DUP5 CALLDATACOPY PUSH0 DUP2 DUP5 ADD MSTORE PUSH1 0x1F NOT PUSH1 0x1F DUP3 ADD AND SWAP1 POP DUP1 DUP4 ADD SWAP3 POP POP POP POP POP POP POP DUP2 MSTORE PUSH1 0x20 ADD TIMESTAMP DUP2 MSTORE POP PUSH1 0x1 PUSH0 CALLER PUSH20 0xFFFFFFFFFFFFFFFFFFFFFFFFFFFFFFFFFFFFFFFF AND PUSH20 0xFFFFFFFFFFFFFFFFFFFFFFFFFFFFFFFFFFFFFFFF AND DUP2 MSTORE PUSH1 0x20 ADD SWAP1 DUP2 MSTORE PUSH1 0x20 ADD PUSH0 KECCAK256 PUSH0 DUP3 ADD MLOAD DUP2 PUSH0 ADD PUSH0 PUSH2 0x100 EXP DUP2 SLOAD DUP2 PUSH1 0xFF MUL NOT AND SWAP1 DUP4 ISZERO ISZERO MUL OR SWAP1 SSTORE POP PUSH1 0x20 DUP3 ADD MLOAD DUP2 PUSH1 0x1 ADD SWAP1 DUP2 PUSH2 0x519 SWAP2 SWAP1 PUSH2 0x1047 JUMP JUMPDEST POP PUSH1 0x40 DUP3 ADD MLOAD DUP2 PUSH1 0x2 ADD SWAP1 DUP2 PUSH2 0x52F SWAP2 SWAP1 PUSH2 0x1047 JUMP JUMPDEST POP PUSH1 0x60 DUP3 ADD MLOAD DUP2 PUSH1 0x3 ADD SSTORE SWAP1 POP POP CALLER PUSH20 0xFFFFFFFFFFFFFFFFFFFFFFFFFFFFFFFFFFFFFFFF AND PUSH32 0xB44D04E3995E2588CD8D1BF7A7F2AE78C07025D4F4D28C651612BCF4519C241F DUP6 DUP6 DUP6 DUP6 TIMESTAMP PUSH1 0x40 MLOAD PUSH2 0x58B SWAP6 SWAP5 SWAP4 SWAP3 SWAP2 SWAP1 PUSH2 0x1150 JUMP JUMPDEST PUSH1 0x40 MLOAD DUP1 SWAP2 SUB SWAP1 LOG2 PUSH2 0x59B PUSH2 0x9B7 JUMP JUMPDEST POP POP POP POP JUMP JUMPDEST PUSH2 0x5A9 PUSH2 0x96A JUMP JUMPDEST PUSH0 PUSH1 0x1 PUSH0 CALLER PUSH20 0xFFFFFFFFFFFFFFFFFFFFFFFFFFFFFFFFFFFFFFFF AND PUSH20 0xFFFFFFFFFFFFFFFFFFFFFFFFFFFFFFFFFFFFFFFF AND DUP2 MSTORE PUSH1 0x20 ADD SWAP1 DUP2 MSTORE PUSH1 0x20 ADD PUSH0 KECCAK256 SWAP1 POP DUP1 PUSH0 ADD PUSH0 SWAP1 SLOAD SWAP1 PUSH2 0x100 EXP SWAP1 DIV PUSH1 0xFF AND PUSH2 0x638 JUMPI PUSH1 0x40 MLOAD PUSH32 0x8C379A000000000000000000000000000000000000000000000000000000000 DUP2 MSTORE PUSH1 0x4 ADD PUSH2 0x62F SWAP1 PUSH2 0x11E1 JUMP JUMPDEST PUSH1 0x40 MLOAD DUP1 SWAP2 SUB SWAP1 REVERT JUMPDEST PUSH0 DUP2 PUSH0 ADD PUSH0 PUSH2 0x100 EXP DUP2 SLOAD DUP2 PUSH1 0xFF MUL NOT AND SWAP1 DUP4 ISZERO ISZERO MUL OR SWAP1 SSTORE POP TIMESTAMP DUP2 PUSH1 0x3 ADD DUP2 SWAP1 SSTORE POP CALLER PUSH20 0xFFFFFFFFFFFFFFFFFFFFFFFFFFFFFFFFFFFFFFFF AND PUSH32 0xF06DFE9062E9317CD357560EA667D65A9B032F1A674C04E99653E894E145C8FA TIMESTAMP PUSH1 0x40 MLOAD PUSH2 0x6A1 SWAP2 SWAP1 PUSH2 0x11FF JUMP JUMPDEST PUSH1 0x40 MLOAD DUP1 SWAP2 SUB SWAP1 LOG2 POP PUSH2 0x6B2 PUSH2 0x9B7 JUMP JUMPDEST JUMP JUMPDEST PUSH2 0x6BC PUSH2 0x96A JUMP JUMPDEST PUSH0 PUSH1 0x1 PUSH0 CALLER PUSH20 0xFFFFFFFFFFFFFFFFFFFFFFFFFFFFFFFFFFFFFFFF AND PUSH20 0xFFFFFFFFFFFFFFFFFFFFFFFFFFFFFFFFFFFFFFFF AND DUP2 MSTORE PUSH1 0x20 ADD SWAP1 DUP2 MSTORE PUSH1 0x20 ADD PUSH0 KECCAK256 SWAP1 POP DUP1 PUSH0 ADD PUSH0 SWAP1 SLOAD SWAP1 PUSH2 0x100 EXP SWAP1 DIV PUSH1 0xFF AND PUSH2 0x74B JUMPI PUSH1 0x40 MLOAD PUSH32 0x8C379A000000000000000000000000000000000000000000000000000000000 DUP2 MSTORE PUSH1 0x4 ADD PUSH2 0x742 SWAP1 PUSH2 0x1262 JUMP JUMPDEST PUSH1 0x40 MLOAD DUP1 SWAP2 SUB SWAP1 REVERT JUMPDEST PUSH0 DUP6 DUP6 SWAP1 POP GT PUSH2 0x790 JUMPI PUSH1 0x40 MLOAD PUSH32 0x8C379A000000000000000000000000000000000000000000000000000000000 DUP2 MSTORE PUSH1 0x4 ADD PUSH2 0x787 SWAP1 PUSH2 0xE5C JUMP JUMPDEST PUSH1 0x40 MLOAD DUP1 SWAP2 SUB SWAP1 REVERT JUMPDEST DUP5 DUP5 DUP3 PUSH1 0x1 ADD SWAP2 DUP3 PUSH2 0x7A3 SWAP3 SWAP2 SWAP1 PUSH2 0x128A JUMP JUMPDEST POP DUP3 DUP3 DUP3 PUSH1 0x2 ADD SWAP2 DUP3 PUSH2 0x7B7 SWAP3 SWAP2 SWAP1 PUSH2 0x128A JUMP JUMPDEST POP TIMESTAMP DUP2 PUSH1 0x3 ADD DUP2 SWAP1 SSTORE POP CALLER PUSH20 0xFFFFFFFFFFFFFFFFFFFFFFFFFFFFFFFFFFFFFFFF AND PUSH32 0x1B7C647FCDF72720E83E21AA513465C010BEA26574010B9E5CA7CAC5016626A2 DUP7 DUP7 DUP7 DUP7 TIMESTAMP PUSH1 0x40 MLOAD PUSH2 0x80F SWAP6 SWAP5 SWAP4 SWAP3 SWAP2 SWAP1 PUSH2 0x1150 JUMP JUMPDEST PUSH1 0x40 MLOAD DUP1 SWAP2 SUB SWAP1 LOG2 POP PUSH2 0x820 PUSH2 0x9B7 JUMP JUMPDEST POP POP POP POP JUMP JUMPDEST PUSH1 0x1 PUSH1 0x20 MSTORE DUP1 PUSH0 MSTORE PUSH1 0x40 PUSH0 KECCAK256 PUSH0 SWAP2 POP SWAP1 POP DUP1 PUSH0 ADD PUSH0 SWAP1 SLOAD SWAP1 PUSH2 0x100 EXP SWAP1 DIV PUSH1 0xFF AND SWAP1 DUP1 PUSH1 0x1 ADD DUP1 SLOAD PUSH2 0x857 SWAP1 PUSH2 0xD7A JUMP JUMPDEST DUP1 PUSH1 0x1F ADD PUSH1 0x20 DUP1 SWAP2 DIV MUL PUSH1 0x20 ADD PUSH1 0x40 MLOAD SWAP1 DUP2 ADD PUSH1 0x40 MSTORE DUP1 SWAP3 SWAP2 SWAP1 DUP2 DUP2 MSTORE PUSH1 0x20 ADD DUP3 DUP1 SLOAD PUSH2 0x883 SWAP1 PUSH2 0xD7A JUMP JUMPDEST DUP1 ISZERO PUSH2 0x8CE JUMPI DUP1 PUSH1 0x1F LT PUSH2 0x8A5 JUMPI PUSH2 0x100 DUP1 DUP4 SLOAD DIV MUL DUP4 MSTORE SWAP2 PUSH1 0x20 ADD SWAP2 PUSH2 0x8CE JUMP JUMPDEST DUP3 ADD SWAP2 SWAP1 PUSH0 MSTORE PUSH1 0x20 PUSH0 KECCAK256 SWAP1 JUMPDEST DUP2 SLOAD DUP2 MSTORE SWAP1 PUSH1 0x1 ADD SWAP1 PUSH1 0x20 ADD DUP1 DUP4 GT PUSH2 0x8B1 JUMPI DUP3 SWAP1 SUB PUSH1 0x1F AND DUP3 ADD SWAP2 JUMPDEST POP POP POP POP POP SWAP1 DUP1 PUSH1 0x2 ADD DUP1 SLOAD PUSH2 0x8E3 SWAP1 PUSH2 0xD7A JUMP JUMPDEST DUP1 PUSH1 0x1F ADD PUSH1 0x20 DUP1 SWAP2 DIV MUL PUSH1 0x20 ADD PUSH1 0x40 MLOAD SWAP1 DUP2 ADD PUSH1 0x40 MSTORE DUP1 SWAP3 SWAP2 SWAP1 DUP2 DUP2 MSTORE PUSH1 0x20 ADD DUP3 DUP1 SLOAD PUSH2 0x90F SWAP1 PUSH2 0xD7A JUMP JUMPDEST DUP1 ISZERO PUSH2 0x95A JUMPI DUP1 PUSH1 0x1F LT PUSH2 0x931 JUMPI PUSH2 0x100 DUP1 DUP4 SLOAD DIV MUL DUP4 MSTORE SWAP2 PUSH1 0x20 ADD SWAP2 PUSH2 0x95A JUMP JUMPDEST DUP3 ADD SWAP2 SWAP1 PUSH0 MSTORE PUSH1 0x20 PUSH0 KECCAK256 SWAP1 JUMPDEST DUP2 SLOAD DUP2 MSTORE SWAP1 PUSH1 0x1 ADD SWAP1 PUSH1 0x20 ADD DUP1 DUP4 GT PUSH2 0x93D JUMPI DUP3 SWAP1 SUB PUSH1 0x1F AND DUP3 ADD SWAP2 JUMPDEST POP POP POP POP POP SWAP1 DUP1 PUSH1 0x3 ADD SLOAD SWAP1 POP DUP5 JUMP JUMPDEST PUSH1 0x2 PUSH0 SLOAD SUB PUSH2 0x9AE JUMPI PUSH1 0x40 MLOAD PUSH32 0x8C379A000000000000000000000000000000000000000000000000000000000 DUP2 MSTORE PUSH1 0x4 ADD PUSH2 0x9A5 SWAP1 PUSH2 0x13A1 JUMP JUMPDEST PUSH1 0x40 MLOAD DUP1 SWAP2 SUB SWAP1 REVERT JUMPDEST PUSH1 0x2 PUSH0 DUP2 SWAP1 SSTORE POP JUMP JUMPDEST PUSH1 0x1 PUSH0 DUP2 SWAP1 SSTORE POP JUMP JUMPDEST PUSH1 0x40 MLOAD DUP1 PUSH1 0x80 ADD PUSH1 0x40 MSTORE DUP1 PUSH0 ISZERO ISZERO DUP2 MSTORE PUSH1 0x20 ADD PUSH1 0x60 DUP2 MSTORE PUSH1 0x20 ADD PUSH1 0x60 DUP2 MSTORE PUSH1 0x20 ADD PUSH0 DUP2 MSTORE POP SWAP1 JUMP JUMPDEST PUSH0 PUSH0 REVERT JUMPDEST PUSH0 PUSH0 REVERT JUMPDEST PUSH0 PUSH20 0xFFFFFFFFFFFFFFFFFFFFFFFFFFFFFFFFFFFFFFFF DUP3 AND SWAP1 POP SWAP2 SWAP1 POP JUMP JUMPDEST PUSH0 PUSH2 0xA19 DUP3 PUSH2 0x9F0 JUMP JUMPDEST SWAP1 POP SWAP2 SWAP1 POP JUMP JUMPDEST PUSH2 0xA29 DUP2 PUSH2 0xA0F JUMP JUMPDEST DUP2 EQ PUSH2 0xA33 JUMPI PUSH0 PUSH0 REVERT JUMPDEST POP JUMP JUMPDEST PUSH0 DUP2 CALLDATALOAD SWAP1 POP PUSH2 0xA44 DUP2 PUSH2 0xA20 JUMP JUMPDEST SWAP3 SWAP2 POP POP JUMP JUMPDEST PUSH0 PUSH1 0x20 DUP3 DUP5 SUB SLT ISZERO PUSH2 0xA5F JUMPI PUSH2 0xA5E PUSH2 0x9E8 JUMP JUMPDEST JUMPDEST PUSH0 PUSH2 0xA6C DUP5 DUP3 DUP6 ADD PUSH2 0xA36 JUMP JUMPDEST SWAP2 POP POP SWAP3 SWAP2 POP POP JUMP JUMPDEST PUSH0 DUP2 ISZERO ISZERO SWAP1 POP SWAP2 SWAP1 POP JUMP JUMPDEST PUSH2 0xA89 DUP2 PUSH2 0xA75 JUMP JUMPDEST DUP3 MSTORE POP POP JUMP JUMPDEST PUSH0 DUP2 MLOAD SWAP1 POP SWAP2 SWAP1 POP JUMP JUMPDEST PUSH0 DUP3 DUP3 MSTORE PUSH1 0x20 DUP3 ADD SWAP1 POP SWAP3 SWAP2 POP POP JUMP JUMPDEST DUP3 DUP2 DUP4 MCOPY PUSH0 DUP4 DUP4 ADD MSTORE POP POP POP JUMP JUMPDEST PUSH0 PUSH1 0x1F NOT PUSH1 0x1F DUP4 ADD AND SWAP1 POP SWAP2 SWAP1 POP JUMP JUMPDEST PUSH0 PUSH2 0xAD1 DUP3 PUSH2 0xA8F JUMP JUMPDEST PUSH2 0xADB DUP2 DUP6 PUSH2 0xA99 JUMP JUMPDEST SWAP4 POP PUSH2 0xAEB DUP2 DUP6 PUSH1 0x20 DUP7 ADD PUSH2 0xAA9 JUMP JUMPDEST PUSH2 0xAF4 DUP2 PUSH2 0xAB7 JUMP JUMPDEST DUP5 ADD SWAP2 POP POP SWAP3 SWAP2 POP POP JUMP JUMPDEST PUSH0 DUP2 SWAP1 POP SWAP2 SWAP1 POP JUMP JUMPDEST PUSH2 0xB11 DUP2 PUSH2 0xAFF JUMP JUMPDEST DUP3 MSTORE POP POP JUMP JUMPDEST PUSH0 PUSH1 0x80 DUP4 ADD PUSH0 DUP4 ADD MLOAD PUSH2 0xB2C PUSH0 DUP7 ADD DUP3 PUSH2 0xA80 JUMP JUMPDEST POP PUSH1 0x20 DUP4 ADD MLOAD DUP5 DUP3 SUB PUSH1 0x20 DUP7 ADD MSTORE PUSH2 0xB44 DUP3 DUP3 PUSH2 0xAC7 JUMP JUMPDEST SWAP2 POP POP PUSH1 0x40 DUP4 ADD MLOAD DUP5 DUP3 SUB PUSH1 0x40 DUP7 ADD MSTORE PUSH2 0xB5E DUP3 DUP3 PUSH2 0xAC7 JUMP JUMPDEST SWAP2 POP POP PUSH1 0x60 DUP4 ADD MLOAD PUSH2 0xB73 PUSH1 0x60 DUP7 ADD DUP3 PUSH2 0xB08 JUMP JUMPDEST POP DUP1 SWAP2 POP POP SWAP3 SWAP2 POP POP JUMP JUMPDEST PUSH0 PUSH1 0x20 DUP3 ADD SWAP1 POP DUP2 DUP2 SUB PUSH0 DUP4 ADD MSTORE PUSH2 0xB96 DUP2 DUP5 PUSH2 0xB17 JUMP JUMPDEST SWAP1 POP SWAP3 SWAP2 POP POP JUMP JUMPDEST PUSH2 0xBA7 DUP2 PUSH2 0xA75 JUMP JUMPDEST DUP3 MSTORE POP POP JUMP JUMPDEST PUSH0 PUSH1 0x20 DUP3 ADD SWAP1 POP PUSH2 0xBC0 PUSH0 DUP4 ADD DUP5 PUSH2 0xB9E JUMP JUMPDEST SWAP3 SWAP2 POP POP JUMP JUMPDEST PUSH0 PUSH0 REVERT JUMPDEST PUSH0 PUSH0 REVERT JUMPDEST PUSH0 PUSH0 REVERT JUMPDEST PUSH0 PUSH0 DUP4 PUSH1 0x1F DUP5 ADD SLT PUSH2 0xBE7 JUMPI PUSH2 0xBE6 PUSH2 0xBC6 JUMP JUMPDEST JUMPDEST DUP3 CALLDATALOAD SWAP1 POP PUSH8 0xFFFFFFFFFFFFFFFF DUP2 GT ISZERO PUSH2 0xC04 JUMPI PUSH2 0xC03 PUSH2 0xBCA JUMP JUMPDEST JUMPDEST PUSH1 0x20 DUP4 ADD SWAP2 POP DUP4 PUSH1 0x1 DUP3 MUL DUP4 ADD GT ISZERO PUSH2 0xC20 JUMPI PUSH2 0xC1F PUSH2 0xBCE JUMP JUMPDEST JUMPDEST SWAP3 POP SWAP3 SWAP1 POP JUMP JUMPDEST PUSH0 PUSH0 PUSH0 PUSH0 PUSH1 0x40 DUP6 DUP8 SUB SLT ISZERO PUSH2 0xC3F JUMPI PUSH2 0xC3E PUSH2 0x9E8 JUMP JUMPDEST JUMPDEST PUSH0 DUP6 ADD CALLDATALOAD PUSH8 0xFFFFFFFFFFFFFFFF DUP2 GT ISZERO PUSH2 0xC5C JUMPI PUSH2 0xC5B PUSH2 0x9EC JUMP JUMPDEST JUMPDEST PUSH2 0xC68 DUP8 DUP3 DUP9 ADD PUSH2 0xBD2 JUMP JUMPDEST SWAP5 POP SWAP5 POP POP PUSH1 0x20 DUP6 ADD CALLDATALOAD PUSH8 0xFFFFFFFFFFFFFFFF DUP2 GT ISZERO PUSH2 0xC8B JUMPI PUSH2 0xC8A PUSH2 0x9EC JUMP JUMPDEST JUMPDEST PUSH2 0xC97 DUP8 DUP3 DUP9 ADD PUSH2 0xBD2 JUMP JUMPDEST SWAP3 POP SWAP3 POP POP SWAP3 SWAP6 SWAP2 SWAP5 POP SWAP3 POP JUMP JUMPDEST PUSH0 DUP3 DUP3 MSTORE PUSH1 0x20 DUP3 ADD SWAP1 POP SWAP3 SWAP2 POP POP JUMP JUMPDEST PUSH0 PUSH2 0xCBF DUP3 PUSH2 0xA8F JUMP JUMPDEST PUSH2 0xCC9 DUP2 DUP6 PUSH2 0xCA5 JUMP JUMPDEST SWAP4 POP PUSH2 0xCD9 DUP2 DUP6 PUSH1 0x20 DUP7 ADD PUSH2 0xAA9 JUMP JUMPDEST PUSH2 0xCE2 DUP2 PUSH2 0xAB7 JUMP JUMPDEST DUP5 ADD SWAP2 POP POP SWAP3 SWAP2 POP POP JUMP JUMPDEST PUSH2 0xCF6 DUP2 PUSH2 0xAFF JUMP JUMPDEST DUP3 MSTORE POP POP JUMP JUMPDEST PUSH0 PUSH1 0x80 DUP3 ADD SWAP1 POP PUSH2 0xD0F PUSH0 DUP4 ADD DUP8 PUSH2 0xB9E JUMP JUMPDEST DUP2 DUP2 SUB PUSH1 0x20 DUP4 ADD MSTORE PUSH2 0xD21 DUP2 DUP7 PUSH2 0xCB5 JUMP JUMPDEST SWAP1 POP DUP2 DUP2 SUB PUSH1 0x40 DUP4 ADD MSTORE PUSH2 0xD35 DUP2 DUP6 PUSH2 0xCB5 JUMP JUMPDEST SWAP1 POP PUSH2 0xD44 PUSH1 0x60 DUP4 ADD DUP5 PUSH2 0xCED JUMP JUMPDEST SWAP6 SWAP5 POP POP POP POP POP JUMP JUMPDEST PUSH32 0x4E487B7100000000000000000000000000000000000000000000000000000000 PUSH0 MSTORE PUSH1 0x22 PUSH1 0x4 MSTORE PUSH1 0x24 PUSH0 REVERT JUMPDEST PUSH0 PUSH1 0x2 DUP3 DIV SWAP1 POP PUSH1 0x1 DUP3 AND DUP1 PUSH2 0xD91 JUMPI PUSH1 0x7F DUP3 AND SWAP2 POP JUMPDEST PUSH1 0x20 DUP3 LT DUP2 SUB PUSH2 0xDA4 JUMPI PUSH2 0xDA3 PUSH2 0xD4D JUMP JUMPDEST JUMPDEST POP SWAP2 SWAP1 POP JUMP JUMPDEST PUSH32 0x4964656E7469747920616C726561647920657869737473000000000000000000 PUSH0 DUP3 ADD MSTORE POP JUMP JUMPDEST PUSH0 PUSH2 0xDDE PUSH1 0x17 DUP4 PUSH2 0xCA5 JUMP JUMPDEST SWAP2 POP PUSH2 0xDE9 DUP3 PUSH2 0xDAA JUMP JUMPDEST PUSH1 0x20 DUP3 ADD SWAP1 POP SWAP2 SWAP1 POP JUMP JUMPDEST PUSH0 PUSH1 0x20 DUP3 ADD SWAP1 POP DUP2 DUP2 SUB PUSH0 DUP4 ADD MSTORE PUSH2 0xE0B DUP2 PUSH2 0xDD2 JUMP JUMPDEST SWAP1 POP SWAP2 SWAP1 POP JUMP JUMPDEST PUSH32 0x4E616D652063616E6E6F7420626520656D707479000000000000000000000000 PUSH0 DUP3 ADD MSTORE POP JUMP JUMPDEST PUSH0 PUSH2 0xE46 PUSH1 0x14 DUP4 PUSH2 0xCA5 JUMP JUMPDEST SWAP2 POP PUSH2 0xE51 DUP3 PUSH2 0xE12 JUMP JUMPDEST PUSH1 0x20 DUP3 ADD SWAP1 POP SWAP2 SWAP1 POP JUMP JUMPDEST PUSH0 PUSH1 0x20 DUP3 ADD SWAP1 POP DUP2 DUP2 SUB PUSH0 DUP4 ADD MSTORE PUSH2 0xE73 DUP2 PUSH2 0xE3A JUMP JUMPDEST SWAP1 POP SWAP2 SWAP1 POP JUMP JUMPDEST PUSH32 0x4E487B7100000000000000000000000000000000000000000000000000000000 PUSH0 MSTORE PUSH1 0x41 PUSH1 0x4 MSTORE PUSH1 0x24 PUSH0 REVERT JUMPDEST PUSH0 DUP2 SWAP1 POP DUP2 PUSH0 MSTORE PUSH1 0x20 PUSH0 KECCAK256 SWAP1 POP SWAP2 SWAP1 POP JUMP JUMPDEST PUSH0 PUSH1 0x20 PUSH1 0x1F DUP4 ADD DIV SWAP1 POP SWAP2 SWAP1 POP JUMP JUMPDEST PUSH0 DUP3 DUP3 SHL SWAP1 POP SWAP3 SWAP2 POP POP JUMP JUMPDEST PUSH0 PUSH1 0x8 DUP4 MUL PUSH2 0xF03 PUSH32 0xFFFFFFFFFFFFFFFFFFFFFFFFFFFFFFFFFFFFFFFFFFFFFFFFFFFFFFFFFFFFFFFF DUP3 PUSH2 0xEC8 JUMP JUMPDEST PUSH2 0xF0D DUP7 DUP4 PUSH2 0xEC8 JUMP JUMPDEST SWAP6 POP DUP1 NOT DUP5 AND SWAP4 POP DUP1 DUP7 AND DUP5 OR SWAP3 POP POP POP SWAP4 SWAP3 POP POP POP JUMP JUMPDEST PUSH0 DUP2 SWAP1 POP SWAP2 SWAP1 POP JUMP JUMPDEST PUSH0 PUSH2 0xF48 PUSH2 0xF43 PUSH2 0xF3E DUP5 PUSH2 0xAFF JUMP JUMPDEST PUSH2 0xF25 JUMP JUMPDEST PUSH2 0xAFF JUMP JUMPDEST SWAP1 POP SWAP2 SWAP1 POP JUMP JUMPDEST PUSH0 DUP2 SWAP1 POP SWAP2 SWAP1 POP JUMP JUMPDEST PUSH2 0xF61 DUP4 PUSH2 0xF2E JUMP JUMPDEST PUSH2 0xF75 PUSH2 0xF6D DUP3 PUSH2 0xF4F JUMP JUMPDEST DUP5 DUP5 SLOAD PUSH2 0xED4 JUMP JUMPDEST DUP3 SSTORE POP POP POP POP JUMP JUMPDEST PUSH0 PUSH0 SWAP1 POP SWAP1 JUMP JUMPDEST PUSH2 0xF8C PUSH2 0xF7D JUMP JUMPDEST PUSH2 0xF97 DUP2 DUP5 DUP5 PUSH2 0xF58 JUMP JUMPDEST POP POP POP JUMP JUMPDEST JUMPDEST DUP2 DUP2 LT ISZERO PUSH2 0xFBA JUMPI PUSH2 0xFAF PUSH0 DUP3 PUSH2 0xF84 JUMP JUMPDEST PUSH1 0x1 DUP2 ADD SWAP1 POP PUSH2 0xF9D JUMP JUMPDEST POP POP JUMP JUMPDEST PUSH1 0x1F DUP3 GT ISZERO PUSH2 0xFFF JUMPI PUSH2 0xFD0 DUP2 PUSH2 0xEA7 JUMP JUMPDEST PUSH2 0xFD9 DUP5 PUSH2 0xEB9 JUMP JUMPDEST DUP2 ADD PUSH1 0x20 DUP6 LT ISZERO PUSH2 0xFE8 JUMPI DUP2 SWAP1 POP JUMPDEST PUSH2 0xFFC PUSH2 0xFF4 DUP6 PUSH2 0xEB9 JUMP JUMPDEST DUP4 ADD DUP3 PUSH2 0xF9C JUMP JUMPDEST POP POP JUMPDEST POP POP POP JUMP JUMPDEST PUSH0 DUP3 DUP3 SHR SWAP1 POP SWAP3 SWAP2 POP POP JUMP JUMPDEST PUSH0 PUSH2 0x101F PUSH0 NOT DUP5 PUSH1 0x8 MUL PUSH2 0x1004 JUMP JUMPDEST NOT DUP1 DUP4 AND SWAP2 POP POP SWAP3 SWAP2 POP POP JUMP JUMPDEST PUSH0 PUSH2 0x1037 DUP4 DUP4 PUSH2 0x1010 JUMP JUMPDEST SWAP2 POP DUP3 PUSH1 0x2 MUL DUP3 OR SWAP1 POP SWAP3 SWAP2 POP POP JUMP JUMPDEST PUSH2 0x1050 DUP3 PUSH2 0xA8F JUMP JUMPDEST PUSH8 0xFFFFFFFFFFFFFFFF DUP2 GT ISZERO PUSH2 0x1069 JUMPI PUSH2 0x1068 PUSH2 0xE7A JUMP JUMPDEST JUMPDEST PUSH2 0x1073 DUP3 SLOAD PUSH2 0xD7A JUMP JUMPDEST PUSH2 0x107E DUP3 DUP3 DUP6 PUSH2 0xFBE JUMP JUMPDEST PUSH0 PUSH1 0x20 SWAP1 POP PUSH1 0x1F DUP4 GT PUSH1 0x1 DUP2 EQ PUSH2 0x10AF JUMPI PUSH0 DUP5 ISZERO PUSH2 0x109D JUMPI DUP3 DUP8 ADD MLOAD SWAP1 POP JUMPDEST PUSH2 0x10A7 DUP6 DUP3 PUSH2 0x102C JUMP JUMPDEST DUP7 SSTORE POP PUSH2 0x110E JUMP JUMPDEST PUSH1 0x1F NOT DUP5 AND PUSH2 0x10BD DUP7 PUSH2 0xEA7 JUMP JUMPDEST PUSH0 JUMPDEST DUP3 DUP2 LT ISZERO PUSH2 0x10E4 JUMPI DUP5 DUP10 ADD MLOAD DUP3 SSTORE PUSH1 0x1 DUP3 ADD SWAP2 POP PUSH1 0x20 DUP6 ADD SWAP5 POP PUSH1 0x20 DUP2 ADD SWAP1 POP PUSH2 0x10BF JUMP JUMPDEST DUP7 DUP4 LT ISZERO PUSH2 0x1101 JUMPI DUP5 DUP10 ADD MLOAD PUSH2 0x10FD PUSH1 0x1F DUP10 AND DUP3 PUSH2 0x1010 JUMP JUMPDEST DUP4 SSTORE POP JUMPDEST PUSH1 0x1 PUSH1 0x2 DUP9 MUL ADD DUP9 SSTORE POP POP POP JUMPDEST POP POP POP POP POP POP JUMP JUMPDEST DUP3 DUP2 DUP4 CALLDATACOPY PUSH0 DUP4 DUP4 ADD MSTORE POP POP POP JUMP JUMPDEST PUSH0 PUSH2 0x112F DUP4 DUP6 PUSH2 0xCA5 JUMP JUMPDEST SWAP4 POP PUSH2 0x113C DUP4 DUP6 DUP5 PUSH2 0x1116 JUMP JUMPDEST PUSH2 0x1145 DUP4 PUSH2 0xAB7 JUMP JUMPDEST DUP5 ADD SWAP1 POP SWAP4 SWAP3 POP POP POP JUMP JUMPDEST PUSH0 PUSH1 0x60 DUP3 ADD SWAP1 POP DUP2 DUP2 SUB PUSH0 DUP4 ADD MSTORE PUSH2 0x1169 DUP2 DUP8 DUP10 PUSH2 0x1124 JUMP JUMPDEST SWAP1 POP DUP2 DUP2 SUB PUSH1 0x20 DUP4 ADD MSTORE PUSH2 0x117E DUP2 DUP6 DUP8 PUSH2 0x1124 JUMP JUMPDEST SWAP1 POP PUSH2 0x118D PUSH1 0x40 DUP4 ADD DUP5 PUSH2 0xCED JUMP JUMPDEST SWAP7 SWAP6 POP POP POP POP POP POP JUMP JUMPDEST PUSH32 0x4E6F20616374697665206964656E7469747920746F2072656D6F766500000000 PUSH0 DUP3 ADD MSTORE POP JUMP JUMPDEST PUSH0 PUSH2 0x11CB PUSH1 0x1C DUP4 PUSH2 0xCA5 JUMP JUMPDEST SWAP2 POP PUSH2 0x11D6 DUP3 PUSH2 0x1197 JUMP JUMPDEST PUSH1 0x20 DUP3 ADD SWAP1 POP SWAP2 SWAP1 POP JUMP JUMPDEST PUSH0 PUSH1 0x20 DUP3 ADD SWAP1 POP DUP2 DUP2 SUB PUSH0 DUP4 ADD MSTORE PUSH2 0x11F8 DUP2 PUSH2 0x11BF JUMP JUMPDEST SWAP1 POP SWAP2 SWAP1 POP JUMP JUMPDEST PUSH0 PUSH1 0x20 DUP3 ADD SWAP1 POP PUSH2 0x1212 PUSH0 DUP4 ADD DUP5 PUSH2 0xCED JUMP JUMPDEST SWAP3 SWAP2 POP POP JUMP JUMPDEST PUSH32 0x4E6F20616374697665206964656E7469747920746F2075706461746500000000 PUSH0 DUP3 ADD MSTORE POP JUMP JUMPDEST PUSH0 PUSH2 0x124C PUSH1 0x1C DUP4 PUSH2 0xCA5 JUMP JUMPDEST SWAP2 POP PUSH2 0x1257 DUP3 PUSH2 0x1218 JUMP JUMPDEST PUSH1 0x20 DUP3 ADD SWAP1 POP SWAP2 SWAP1 POP JUMP JUMPDEST PUSH0 PUSH1 0x20 DUP3 ADD SWAP1 POP DUP2 DUP2 SUB PUSH0 DUP4 ADD MSTORE PUSH2 0x1279 DUP2 PUSH2 0x1240 JUMP JUMPDEST SWAP1 POP SWAP2 SWAP1 POP JUMP JUMPDEST PUSH0 DUP3 SWAP1 POP SWAP3 SWAP2 POP POP JUMP JUMPDEST PUSH2 0x1294 DUP4 DUP4 PUSH2 0x1280 JUMP JUMPDEST PUSH8 0xFFFFFFFFFFFFFFFF DUP2 GT ISZERO PUSH2 0x12AD JUMPI PUSH2 0x12AC PUSH2 0xE7A JUMP JUMPDEST JUMPDEST PUSH2 0x12B7 DUP3 SLOAD PUSH2 0xD7A JUMP JUMPDEST PUSH2 0x12C2 DUP3 DUP3 DUP6 PUSH2 0xFBE JUMP JUMPDEST PUSH0 PUSH1 0x1F DUP4 GT PUSH1 0x1 DUP2 EQ PUSH2 0x12EF JUMPI PUSH0 DUP5 ISZERO PUSH2 0x12DD JUMPI DUP3 DUP8 ADD CALLDATALOAD SWAP1 POP JUMPDEST PUSH2 0x12E7 DUP6 DUP3 PUSH2 0x102C JUMP JUMPDEST DUP7 SSTORE POP PUSH2 0x134E JUMP JUMPDEST PUSH1 0x1F NOT DUP5 AND PUSH2 0x12FD DUP7 PUSH2 0xEA7 JUMP JUMPDEST PUSH0 JUMPDEST DUP3 DUP2 LT ISZERO PUSH2 0x1324 JUMPI DUP5 DUP10 ADD CALLDATALOAD DUP3 SSTORE PUSH1 0x1 DUP3 ADD SWAP2 POP PUSH1 0x20 DUP6 ADD SWAP5 POP PUSH1 0x20 DUP2 ADD SWAP1 POP PUSH2 0x12FF JUMP JUMPDEST DUP7 DUP4 LT ISZERO PUSH2 0x1341 JUMPI DUP5 DUP10 ADD CALLDATALOAD PUSH2 0x133D PUSH1 0x1F DUP10 AND DUP3 PUSH2 0x1010 JUMP JUMPDEST DUP4 SSTORE POP JUMPDEST PUSH1 0x1 PUSH1 0x2 DUP9 MUL ADD DUP9 SSTORE POP POP POP JUMPDEST POP POP POP POP POP POP POP JUMP JUMPDEST PUSH32 0x5265656E7472616E637947756172643A207265656E7472616E742063616C6C00 PUSH0 DUP3 ADD MSTORE POP JUMP JUMPDEST PUSH0 PUSH2 0x138B PUSH1 0x1F DUP4 PUSH2 0xCA5 JUMP JUMPDEST SWAP2 POP PUSH2 0x1396 DUP3 PUSH2 0x1357 JUMP JUMPDEST PUSH1 0x20 DUP3 ADD SWAP1 POP SWAP2 SWAP1 POP JUMP JUMPDEST PUSH0 PUSH1 0x20 DUP3 ADD SWAP1 POP DUP2 DUP2 SUB PUSH0 DUP4 ADD MSTORE PUSH2 0x13B8 DUP2 PUSH2 0x137F JUMP JUMPDEST SWAP1 POP SWAP2 SWAP1 POP JUMP INVALID LOG2 PUSH5 0x6970667358 0x22 SLT KECCAK256 0xFC 0x4F EXTSTATICCALL SWAPN 0x39 RJUMP 0x6323 CREATE2 0xBD CALLER PUSH3 0x43D61A ISZERO DUP2 PUSH28 0x2C1F4C76ABA668573F23914D3AB864736F6C634300081D0033000000 "
		},
		"gasEstimates": {
			"creation": {
				"codeDepositCost": "1021800",
				"executionCost": "23172",
				"totalCost": "1044972"
			},
			"external": {
				"createIdentity(string,string)": "infinite",
				"getUserIdentity(address)": "infinite",
				"identities(address)": "infinite",
				"isActiveIdentity(address)": "2875",
				"removeIdentity()": "96798",
				"updateIdentity(string,string)": "infinite"
			}
		},
		"methodIdentifiers": {
			"createIdentity(string,string)": "a309e6e1",
			"getUserIdentity(address)": "2129c761",
			"identities(address)": "f653b81e",
			"isActiveIdentity(address)": "420ee969",
			"removeIdentity()": "c37c596f",
			"updateIdentity(string,string)": "e16efc6d"
		}
	},
	"abi": [
		{
			"anonymous": false,
			"inputs": [
				{
					"indexed": true,
					"internalType": "address",
					"name": "user",
					"type": "address"
				},
				{
					"indexed": false,
					"internalType": "string",
					"name": "name",
					"type": "string"
				},
				{
					"indexed": false,
					"internalType": "string",
					"name": "metadataURI",
					"type": "string"
				},
				{
					"indexed": false,
					"internalType": "uint256",
					"name": "timestamp",
					"type": "uint256"
				}
			],
			"name": "IdentityCreated",
			"type": "event"
		},
		{
			"anonymous": false,
			"inputs": [
				{
					"indexed": true,
					"internalType": "address",
					"name": "user",
					"type": "address"
				},
				{
					"indexed": false,
					"internalType": "uint256",
					"name": "timestamp",
					"type": "uint256"
				}
			],
			"name": "IdentityRemoved",
			"type": "event"
		},
		{
			"anonymous": false,
			"inputs": [
				{
					"indexed": true,
					"internalType": "address",
					"name": "user",
					"type": "address"
				},
				{
					"indexed": false,
					"internalType": "string",
					"name": "newName",
					"type": "string"
				},
				{
					"indexed": false,
					"internalType": "string",
					"name": "newMetadataURI",
					"type": "string"
				},
				{
					"indexed": false,
					"internalType": "uint256",
					"name": "timestamp",
					"type": "uint256"
				}
			],
			"name": "IdentityUpdated",
			"type": "event"
		},
		{
			"inputs": [
				{
					"internalType": "string",
					"name": "name",
					"type": "string"
				},
				{
					"internalType": "string",
					"name": "metadataURI",
					"type": "string"
				}
			],
			"name": "createIdentity",
			"outputs": [],
			"stateMutability": "nonpayable",
			"type": "function"
		},
		{
			"inputs": [
				{
					"internalType": "address",
					"name": "user",
					"type": "address"
				}
			],
			"name": "getUserIdentity",
			"outputs": [
				{
					"components": [
						{
							"internalType": "bool",
							"name": "active",
							"type": "bool"
						},
						{
							"internalType": "string",
							"name": "name",
							"type": "string"
						},
						{
							"internalType": "string",
							"name": "metadataURI",
							"type": "string"
						},
						{
							"internalType": "uint256",
							"name": "lastUpdated",
							"type": "uint256"
						}
					],
					"internalType": "struct DigitalIdentity.Identity",
					"name": "",
					"type": "tuple"
				}
			],
			"stateMutability": "view",
			"type": "function"
		},
		{
			"inputs": [
				{
					"internalType": "address",
					"name": "",
					"type": "address"
				}
			],
			"name": "identities",
			"outputs": [
				{
					"internalType": "bool",
					"name": "active",
					"type": "bool"
				},
				{
					"internalType": "string",
					"name": "name",
					"type": "string"
				},
				{
					"internalType": "string",
					"name": "metadataURI",
					"type": "string"
				},
				{
					"internalType": "uint256",
					"name": "lastUpdated",
					"type": "uint256"
				}
			],
			"stateMutability": "view",
			"type": "function"
		},
		{
			"inputs": [
				{
					"internalType": "address",
					"name": "user",
					"type": "address"
				}
			],
			"name": "isActiveIdentity",
			"outputs": [
				{
					"internalType": "bool",
					"name": "",
					"type": "bool"
				}
			],
			"stateMutability": "view",
			"type": "function"
		},
		{
			"inputs": [],
			"name": "removeIdentity",
			"outputs": [],
			"stateMutability": "nonpayable",
			"type": "function"
		},
		{
			"inputs": [
				{
					"internalType": "string",
					"name": "newName",
					"type": "string"
				},
				{
					"internalType": "string",
					"name": "newMetadataURI",
					"type": "string"
				}
			],
			"name": "updateIdentity",
			"outputs": [],
			"stateMutability": "nonpayable",
			"type": "function"
		}
	]
}