{
	"data": {
		"bytecode": {
			"linkReferences": {},
			"object": "608060405234801561000f575f5ffd5b50335f73ffffffffffffffffffffffffffffffffffffffff168173ffffffffffffffffffffffffffffffffffffffff1603610081575f6040517f1e4fbdf7000000000000000000000000000000000000000000000000000000008152600401610078919061019d565b60405180910390fd5b6100908161009d60201b60201c565b50600180819055506101b6565b5f5f5f9054906101000a900473ffffffffffffffffffffffffffffffffffffffff169050815f5f6101000a81548173ffffffffffffffffffffffffffffffffffffffff021916908373ffffffffffffffffffffffffffffffffffffffff1602179055508173ffffffffffffffffffffffffffffffffffffffff168173ffffffffffffffffffffffffffffffffffffffff167f8be0079c531659141344cd1fd0a4f28419497f9722a3daafe3b4186f6b6457e060405160405180910390a35050565b5f73ffffffffffffffffffffffffffffffffffffffff82169050919050565b5f6101878261015e565b9050919050565b6101978161017d565b82525050565b5f6020820190506101b05f83018461018e565b92915050565b611d93806101c35f395ff3fe608060405234801561000f575f5ffd5b50600436106100cd575f3560e01c8063715018a61161008a5780639592d424116100645780639592d42414610211578063b5e157f11461022f578063f2fde38b1461025f578063ffd740df1461027b576100cd565b8063715018a6146101b95780638da5cb5b146101c35780638f376e8a146101e1576100cd565b806317ea12eb146100d15780631c53c280146100ed57806320eca3911461011f57806344c8c9541461013d57806349ae8dc3146101595780634f0f4aa914610189575b5f5ffd5b6100eb60048036038101906100e69190611155565b610297565b005b61010760048036038101906101029190611193565b61043e565b60405161011693929190611257565b60405180910390f35b610127610505565b6040516101349190611293565b60405180910390f35b61015760048036038101906101529190611155565b61050b565b005b610173600480360381019061016e9190611193565b6107a5565b6040516101809190611363565b60405180910390f35b6101a3600480360381019061019e9190611193565b610853565b6040516101b09190611427565b60405180910390f35b6101c1610987565b005b6101cb61099a565b6040516101d89190611486565b60405180910390f35b6101fb60048036038101906101f69190611155565b6109c1565b6040516102089190611293565b60405180910390f35b6102196109ec565b6040516102269190611293565b60405180910390f35b61024960048036038101906102449190611500565b6109f8565b6040516102569190611293565b60405180910390f35b61027960048036038101906102749190611575565b610b31565b005b61029560048036038101906102909190611193565b610bb5565b005b61029f610cd3565b6102a7610d5a565b600380549050821080156102bf575060038054905081105b6102fe576040517f08c379a00000000000000000000000000000000000000000000000000000000081526004016102f5906115ea565b60405180910390fd5b5f60045f8481526020019081526020015f2090505f5f90505b81805490508110156103f6578282828154811061033757610336611608565b5b905f5260205f200154036103e95781600183805490506103579190611662565b8154811061036857610367611608565b5b905f5260205f20015482828154811061038457610383611608565b5b905f5260205f200181905550818054806103a1576103a0611695565b5b600190038181905f5260205f20015f9055905582847fbf463dfc57e4caeeefc4e139c2ce7587f336948e1209bbf036f4be49197dd75960405160405180910390a35050610432565b8080600101915050610317565b506040517f08c379a00000000000000000000000000000000000000000000000000000000081526004016104299061170c565b60405180910390fd5b61043a610da9565b5050565b6003818154811061044d575f80fd5b905f5260205f2090600302015f91509050805f015490806001015f9054906101000a900460ff169080600201805461048490611757565b80601f01602080910402602001604051908101604052809291908181526020018280546104b090611757565b80156104fb5780601f106104d2576101008083540402835291602001916104fb565b820191905f5260205f20905b8154815290600101906020018083116104de57829003601f168201915b5050505050905083565b60025481565b610513610cd3565b61051b610d5a565b60038054905082108015610533575060038054905081105b610572576040517f08c379a0000000000000000000000000000000000000000000000000000000008152600401610569906115ea565b60405180910390fd5b6003828154811061058657610585611608565b5b905f5260205f2090600302016001015f9054906101000a900460ff1680156105da5750600381815481106105bd576105bc611608565b5b905f5260205f2090600302016001015f9054906101000a900460ff165b610619576040517f08c379a0000000000000000000000000000000000000000000000000000000008152600401610610906117d1565b60405180910390fd5b80820361065b576040517f08c379a000000000000000000000000000000000000000000000000000000000815260040161065290611839565b60405180910390fd5b5f60045f8481526020019081526020015f2090505f5f90505b81805490508110156106ea578282828154811061069457610693611608565b5b905f5260205f200154036106dd576040517f08c379a00000000000000000000000000000000000000000000000000000000081526004016106d4906118a1565b60405180910390fd5b8080600101915050610674565b506106f58383610db2565b15610735576040517f08c379a000000000000000000000000000000000000000000000000000000000815260040161072c90611909565b60405180910390fd5b60045f8481526020019081526020015f2082908060018154018082558091505060019003905f5260205f20015f909190919091505581837ff251d5471d7b3faacf1c06a6351a13f6d7fe7fab0ad2da83f861415ec9100d5860405160405180910390a3506107a1610da9565b5050565b606060038054905082106107ee576040517f08c379a00000000000000000000000000000000000000000000000000000000081526004016107e5906115ea565b60405180910390fd5b60045f8381526020019081526020015f2080548060200260200160405190810160405280929190818152602001828054801561084757602002820191905f5260205f20905b815481526020019060010190808311610833575b50505050509050919050565b61085b6110f9565b60038054905082106108a2576040517f08c379a0000000000000000000000000000000000000000000000000000000008152600401610899906115ea565b60405180910390fd5b600382815481106108b6576108b5611608565b5b905f5260205f2090600302016040518060600160405290815f8201548152602001600182015f9054906101000a900460ff1615151515815260200160028201805461090090611757565b80601f016020809104026020016040519081016040528092919081815260200182805461092c90611757565b80156109775780601f1061094e57610100808354040283529160200191610977565b820191905f5260205f20905b81548152906001019060200180831161095a57829003601f168201915b5050505050815250509050919050565b61098f610cd3565b6109985f611031565b565b5f5f5f9054906101000a900473ffffffffffffffffffffffffffffffffffffffff16905090565b6004602052815f5260405f2081815481106109da575f80fd5b905f5260205f20015f91509150505481565b5f600380549050905090565b5f610a01610cd3565b610a09610d5a565b60025f815480929190610a1b90611927565b9190505590506003604051806060016040528083815260200160011515815260200185858080601f0160208091040260200160405190810160405280939291908181526020018383808284375f81840152601f19601f82011690508083019250505050505050815250908060018154018082558091505060019003905f5260205f2090600302015f909190919091505f820151815f01556020820151816001015f6101000a81548160ff0219169083151502179055506040820151816002019081610ae69190611b3b565b505050807f9de9441770cbc332cbd4aa8beb53a8b3914fe42a97d16f415095b7e8dd201f318484604051610b1b929190611c44565b60405180910390a2610b2b610da9565b92915050565b610b39610cd3565b5f73ffffffffffffffffffffffffffffffffffffffff168173ffffffffffffffffffffffffffffffffffffffff1603610ba9575f6040517f1e4fbdf7000000000000000000000000000000000000000000000000000000008152600401610ba09190611486565b60405180910390fd5b610bb281611031565b50565b610bbd610cd3565b610bc5610d5a565b6003805490508110610c0c576040517f08c379a0000000000000000000000000000000000000000000000000000000008152600401610c03906115ea565b60405180910390fd5b5f60038281548110610c2157610c20611608565b5b905f5260205f2090600302019050806001015f9054906101000a900460ff16610c7f576040517f08c379a0000000000000000000000000000000000000000000000000000000008152600401610c7690611cb0565b60405180910390fd5b5f816001015f6101000a81548160ff021916908315150217905550817f2b61f53058df44855c08a7304979066cb409f86a3dca910e2275b9e85635d1f960405160405180910390a250610cd0610da9565b50565b610cdb6110f2565b73ffffffffffffffffffffffffffffffffffffffff16610cf961099a565b73ffffffffffffffffffffffffffffffffffffffff1614610d5857610d1c6110f2565b6040517f118cdaa7000000000000000000000000000000000000000000000000000000008152600401610d4f9190611486565b60405180910390fd5b565b600260015403610d9f576040517f08c379a0000000000000000000000000000000000000000000000000000000008152600401610d9690611d18565b60405180910390fd5b6002600181905550565b60018081905550565b5f5f60038054905067ffffffffffffffff811115610dd357610dd261196e565b5b604051908082528060200260200182016040528015610e015781602001602082028036833780820191505090505b5090505f60038054905067ffffffffffffffff811115610e2457610e2361196e565b5b604051908082528060200260200182016040528015610e525781602001602082028036833780820191505090505b5090505f5f905084828280610e6690611927565b935081518110610e7957610e78611608565b5b6020026020010181815250505b5f811115611024575f8282610e9a90611d36565b92508281518110610eae57610ead611608565b5b60200260200101519050868103610ecc57600194505050505061102b565b838181518110610edf57610ede611608565b5b602002602001015161101e576001848281518110610f0057610eff611608565b5b6020026020010190151590811515815250505f60045f8381526020019081526020015f2090505f5f90505b818054905081101561101b576003828281548110610f4c57610f4b611608565b5b905f5260205f20015481548110610f6657610f65611608565b5b905f5260205f2090600302016001015f9054906101000a900460ff168015610fc1575085828281548110610f9d57610f9c611608565b5b905f5260205f20015481518110610fb757610fb6611608565b5b6020026020010151155b1561100e57818181548110610fd957610fd8611608565b5b905f5260205f200154858580610fee90611927565b96508151811061100157611000611608565b5b6020026020010181815250505b8080600101915050610f2b565b50505b50610e86565b5f93505050505b92915050565b5f5f5f9054906101000a900473ffffffffffffffffffffffffffffffffffffffff169050815f5f6101000a81548173ffffffffffffffffffffffffffffffffffffffff021916908373ffffffffffffffffffffffffffffffffffffffff1602179055508173ffffffffffffffffffffffffffffffffffffffff168173ffffffffffffffffffffffffffffffffffffffff167f8be0079c531659141344cd1fd0a4f28419497f9722a3daafe3b4186f6b6457e060405160405180910390a35050565b5f33905090565b60405180606001604052805f81526020015f15158152602001606081525090565b5f5ffd5b5f5ffd5b5f819050919050565b61113481611122565b811461113e575f5ffd5b50565b5f8135905061114f8161112b565b92915050565b5f5f6040838503121561116b5761116a61111a565b5b5f61117885828601611141565b925050602061118985828601611141565b9150509250929050565b5f602082840312156111a8576111a761111a565b5b5f6111b584828501611141565b91505092915050565b6111c781611122565b82525050565b5f8115159050919050565b6111e1816111cd565b82525050565b5f81519050919050565b5f82825260208201905092915050565b8281835e5f83830152505050565b5f601f19601f8301169050919050565b5f611229826111e7565b61123381856111f1565b9350611243818560208601611201565b61124c8161120f565b840191505092915050565b5f60608201905061126a5f8301866111be565b61127760208301856111d8565b8181036040830152611289818461121f565b9050949350505050565b5f6020820190506112a65f8301846111be565b92915050565b5f81519050919050565b5f82825260208201905092915050565b5f819050602082019050919050565b6112de81611122565b82525050565b5f6112ef83836112d5565b60208301905092915050565b5f602082019050919050565b5f611311826112ac565b61131b81856112b6565b9350611326836112c6565b805f5b8381101561135657815161133d88826112e4565b9750611348836112fb565b925050600181019050611329565b5085935050505092915050565b5f6020820190508181035f83015261137b8184611307565b905092915050565b61138c816111cd565b82525050565b5f82825260208201905092915050565b5f6113ac826111e7565b6113b68185611392565b93506113c6818560208601611201565b6113cf8161120f565b840191505092915050565b5f606083015f8301516113ef5f8601826112d5565b5060208301516114026020860182611383565b506040830151848203604086015261141a82826113a2565b9150508091505092915050565b5f6020820190508181035f83015261143f81846113da565b905092915050565b5f73ffffffffffffffffffffffffffffffffffffffff82169050919050565b5f61147082611447565b9050919050565b61148081611466565b82525050565b5f6020820190506114995f830184611477565b92915050565b5f5ffd5b5f5ffd5b5f5ffd5b5f5f83601f8401126114c0576114bf61149f565b5b8235905067ffffffffffffffff8111156114dd576114dc6114a3565b5b6020830191508360018202830111156114f9576114f86114a7565b5b9250929050565b5f5f602083850312156115165761151561111a565b5b5f83013567ffffffffffffffff8111156115335761153261111e565b5b61153f858286016114ab565b92509250509250929050565b61155481611466565b811461155e575f5ffd5b50565b5f8135905061156f8161154b565b92915050565b5f6020828403121561158a5761158961111a565b5b5f61159784828501611561565b91505092915050565b7f4e6f6465204944206f7574206f662072616e67650000000000000000000000005f82015250565b5f6115d46014836111f1565b91506115df826115a0565b602082019050919050565b5f6020820190508181035f830152611601816115c8565b9050919050565b7f4e487b71000000000000000000000000000000000000000000000000000000005f52603260045260245ffd5b7f4e487b71000000000000000000000000000000000000000000000000000000005f52601160045260245ffd5b5f61166c82611122565b915061167783611122565b925082820390508181111561168f5761168e611635565b5b92915050565b7f4e487b71000000000000000000000000000000000000000000000000000000005f52603160045260245ffd5b7f45646765206e6f7420666f756e640000000000000000000000000000000000005f82015250565b5f6116f6600e836111f1565b9150611701826116c2565b602082019050919050565b5f6020820190508181035f830152611723816116ea565b9050919050565b7f4e487b71000000000000000000000000000000000000000000000000000000005f52602260045260245ffd5b5f600282049050600182168061176e57607f821691505b6020821081036117815761178061172a565b5b50919050565b7f4f6e65206f7220626f7468206e6f64657320696e6163746976650000000000005f82015250565b5f6117bb601a836111f1565b91506117c682611787565b602082019050919050565b5f6020820190508181035f8301526117e8816117af565b9050919050565b7f4e6f2073656c662d6c6f6f7020616c6c6f7765640000000000000000000000005f82015250565b5f6118236014836111f1565b915061182e826117ef565b602082019050919050565b5f6020820190508181035f83015261185081611817565b9050919050565b7f4564676520616c726561647920657869737473000000000000000000000000005f82015250565b5f61188b6013836111f1565b915061189682611857565b602082019050919050565b5f6020820190508181035f8301526118b88161187f565b9050919050565b7f4564676520637265617465732061206379636c650000000000000000000000005f82015250565b5f6118f36014836111f1565b91506118fe826118bf565b602082019050919050565b5f6020820190508181035f830152611920816118e7565b9050919050565b5f61193182611122565b91507fffffffffffffffffffffffffffffffffffffffffffffffffffffffffffffffff820361196357611962611635565b5b600182019050919050565b7f4e487b71000000000000000000000000000000000000000000000000000000005f52604160045260245ffd5b5f819050815f5260205f209050919050565b5f6020601f8301049050919050565b5f82821b905092915050565b5f600883026119f77fffffffffffffffffffffffffffffffffffffffffffffffffffffffffffffffff826119bc565b611a0186836119bc565b95508019841693508086168417925050509392505050565b5f819050919050565b5f611a3c611a37611a3284611122565b611a19565b611122565b9050919050565b5f819050919050565b611a5583611a22565b611a69611a6182611a43565b8484546119c8565b825550505050565b5f5f905090565b611a80611a71565b611a8b818484611a4c565b505050565b5b81811015611aae57611aa35f82611a78565b600181019050611a91565b5050565b601f821115611af357611ac48161199b565b611acd846119ad565b81016020851015611adc578190505b611af0611ae8856119ad565b830182611a90565b50505b505050565b5f82821c905092915050565b5f611b135f1984600802611af8565b1980831691505092915050565b5f611b2b8383611b04565b9150826002028217905092915050565b611b44826111e7565b67ffffffffffffffff811115611b5d57611b5c61196e565b5b611b678254611757565b611b72828285611ab2565b5f60209050601f831160018114611ba3575f8415611b91578287015190505b611b9b8582611b20565b865550611c02565b601f198416611bb18661199b565b5f5b82811015611bd857848901518255600182019150602085019450602081019050611bb3565b86831015611bf55784890151611bf1601f891682611b04565b8355505b6001600288020188555050505b505050505050565b828183375f83830152505050565b5f611c2383856111f1565b9350611c30838584611c0a565b611c398361120f565b840190509392505050565b5f6020820190508181035f830152611c5d818486611c18565b90509392505050565b7f4e6f646520616c726561647920696e61637469766500000000000000000000005f82015250565b5f611c9a6015836111f1565b9150611ca582611c66565b602082019050919050565b5f6020820190508181035f830152611cc781611c8e565b9050919050565b7f5265656e7472616e637947756172643a207265656e7472616e742063616c6c005f82015250565b5f611d02601f836111f1565b9150611d0d82611cce565b602082019050919050565b5f6020820190508181035f830152611d2f81611cf6565b9050919050565b5f611d4082611122565b91505f8203611d5257611d51611635565b5b60018203905091905056fea264697066735822122037d3df2fb4955a38a6f5dfcbe12999b30f53cde0f789c3536c327c50d2e68cd164736f6c634300081d0033",
			"opcodes": "PUSH1 0x80 PUSH1 0x40 MSTORE CALLVALUE DUP1 ISZERO PUSH2 0xF JUMPI PUSH0 PUSH0 REVERT JUMPDEST POP CALLER PUSH0 PUSH20 0xFFFFFFFFFFFFFFFFFFFFFFFFFFFFFFFFFFFFFFFF AND DUP2 PUSH20 0xFFFFFFFFFFFFFFFFFFFFFFFFFFFFFFFFFFFFFFFF AND SUB PUSH2 0x81 JUMPI PUSH0 PUSH1 0x40 MLOAD PUSH32 0x1E4FBDF700000000000000000000000000000000000000000000000000000000 DUP2 MSTORE PUSH1 0x4 ADD PUSH2 0x78 SWAP2 SWAP1 PUSH2 0x19D JUMP JUMPDEST PUSH1 0x40 MLOAD DUP1 SWAP2 SUB SWAP1 REVERT JUMPDEST PUSH2 0x90 DUP2 PUSH2 0x9D PUSH1 0x20 SHL PUSH1 0x20 SHR JUMP JUMPDEST POP PUSH1 0x1 DUP1 DUP2 SWAP1 SSTORE POP PUSH2 0x1B6 JUMP JUMPDEST PUSH0 PUSH0 PUSH0 SWAP1 SLOAD SWAP1 PUSH2 0x100 EXP SWAP1 DIV PUSH20 0xFFFFFFFFFFFFFFFFFFFFFFFFFFFFFFFFFFFFFFFF AND SWAP1 POP DUP2 PUSH0 PUSH0 PUSH2 0x100 EXP DUP2 SLOAD DUP2 PUSH20 0xFFFFFFFFFFFFFFFFFFFFFFFFFFFFFFFFFFFFFFFF MUL NOT AND SWAP1 DUP4 PUSH20 0xFFFFFFFFFFFFFFFFFFFFFFFFFFFFFFFFFFFFFFFF AND MUL OR SWAP1 SSTORE POP DUP2 PUSH20 0xFFFFFFFFFFFFFFFFFFFFFFFFFFFFFFFFFFFFFFFF AND DUP2 PUSH20 0xFFFFFFFFFFFFFFFFFFFFFFFFFFFFFFFFFFFFFFFF AND PUSH32 0x8BE0079C531659141344CD1FD0A4F28419497F9722A3DAAFE3B4186F6B6457E0 PUSH1 0x40 MLOAD PUSH1 0x40 MLOAD DUP1 SWAP2 SUB SWAP1 LOG3 POP POP JUMP JUMPDEST PUSH0 PUSH20 0xFFFFFFFFFFFFFFFFFFFFFFFFFFFFFFFFFFFFFFFF DUP3 AND SWAP1 POP SWAP2 SWAP1 POP JUMP JUMPDEST PUSH0 PUSH2 0x187 DUP3 PUSH2 0x15E JUMP JUMPDEST SWAP1 POP SWAP2 SWAP1 POP JUMP JUMPDEST PUSH2 0x197 DUP2 PUSH2 0x17D JUMP JUMPDEST DUP3 MSTORE POP POP JUMP JUMPDEST PUSH0 PUSH1 0x20 DUP3 ADD SWAP1 POP PUSH2 0x1B0 PUSH0 DUP4 ADD DUP5 PUSH2 0x18E JUMP JUMPDEST SWAP3 SWAP2 POP POP JUMP JUMPDEST PUSH2 0x1D93 DUP1 PUSH2 0x1C3 PUSH0 CODECOPY PUSH0 RETURN INVALID PUSH1 0x80 PUSH1 0x40 MSTORE CALLVALUE DUP1 ISZERO PUSH2 0xF JUMPI PUSH0 PUSH0 REVERT JUMPDEST POP PUSH1 0x4 CALLDATASIZE LT PUSH2 0xCD JUMPI PUSH0 CALLDATALOAD PUSH1 0xE0 SHR DUP1 PUSH4 0x715018A6 GT PUSH2 0x8A JUMPI DUP1 PUSH4 0x9592D424 GT PUSH2 0x64 JUMPI DUP1 PUSH4 0x9592D424 EQ PUSH2 0x211 JUMPI DUP1 PUSH4 0xB5E157F1 EQ PUSH2 0x22F JUMPI DUP1 PUSH4 0xF2FDE38B EQ PUSH2 0x25F JUMPI DUP1 PUSH4 0xFFD740DF EQ PUSH2 0x27B JUMPI PUSH2 0xCD JUMP JUMPDEST DUP1 PUSH4 0x715018A6 EQ PUSH2 0x1B9 JUMPI DUP1 PUSH4 0x8DA5CB5B EQ PUSH2 0x1C3 JUMPI DUP1 PUSH4 0x8F376E8A EQ PUSH2 0x1E1 JUMPI PUSH2 0xCD JUMP JUMPDEST DUP1 PUSH4 0x17EA12EB EQ PUSH2 0xD1 JUMPI DUP1 PUSH4 0x1C53C280 EQ PUSH2 0xED JUMPI DUP1 PUSH4 0x20ECA391 EQ PUSH2 0x11F JUMPI DUP1 PUSH4 0x44C8C954 EQ PUSH2 0x13D JUMPI DUP1 PUSH4 0x49AE8DC3 EQ PUSH2 0x159 JUMPI DUP1 PUSH4 0x4F0F4AA9 EQ PUSH2 0x189 JUMPI JUMPDEST PUSH0 PUSH0 REVERT JUMPDEST PUSH2 0xEB PUSH1 0x4 DUP1 CALLDATASIZE SUB DUP2 ADD SWAP1 PUSH2 0xE6 SWAP2 SWAP1 PUSH2 0x1155 JUMP JUMPDEST PUSH2 0x297 JUMP JUMPDEST STOP JUMPDEST PUSH2 0x107 PUSH1 0x4 DUP1 CALLDATASIZE SUB DUP2 ADD SWAP1 PUSH2 0x102 SWAP2 SWAP1 PUSH2 0x1193 JUMP JUMPDEST PUSH2 0x43E JUMP JUMPDEST PUSH1 0x40 MLOAD PUSH2 0x116 SWAP4 SWAP3 SWAP2 SWAP1 PUSH2 0x1257 JUMP JUMPDEST PUSH1 0x40 MLOAD DUP1 SWAP2 SUB SWAP1 RETURN JUMPDEST PUSH2 0x127 PUSH2 0x505 JUMP JUMPDEST PUSH1 0x40 MLOAD PUSH2 0x134 SWAP2 SWAP1 PUSH2 0x1293 JUMP JUMPDEST PUSH1 0x40 MLOAD DUP1 SWAP2 SUB SWAP1 RETURN JUMPDEST PUSH2 0x157 PUSH1 0x4 DUP1 CALLDATASIZE SUB DUP2 ADD SWAP1 PUSH2 0x152 SWAP2 SWAP1 PUSH2 0x1155 JUMP JUMPDEST PUSH2 0x50B JUMP JUMPDEST STOP JUMPDEST PUSH2 0x173 PUSH1 0x4 DUP1 CALLDATASIZE SUB DUP2 ADD SWAP1 PUSH2 0x16E SWAP2 SWAP1 PUSH2 0x1193 JUMP JUMPDEST PUSH2 0x7A5 JUMP JUMPDEST PUSH1 0x40 MLOAD PUSH2 0x180 SWAP2 SWAP1 PUSH2 0x1363 JUMP JUMPDEST PUSH1 0x40 MLOAD DUP1 SWAP2 SUB SWAP1 RETURN JUMPDEST PUSH2 0x1A3 PUSH1 0x4 DUP1 CALLDATASIZE SUB DUP2 ADD SWAP1 PUSH2 0x19E SWAP2 SWAP1 PUSH2 0x1193 JUMP JUMPDEST PUSH2 0x853 JUMP JUMPDEST PUSH1 0x40 MLOAD PUSH2 0x1B0 SWAP2 SWAP1 PUSH2 0x1427 JUMP JUMPDEST PUSH1 0x40 MLOAD DUP1 SWAP2 SUB SWAP1 RETURN JUMPDEST PUSH2 0x1C1 PUSH2 0x987 JUMP JUMPDEST STOP JUMPDEST PUSH2 0x1CB PUSH2 0x99A JUMP JUMPDEST PUSH1 0x40 MLOAD PUSH2 0x1D8 SWAP2 SWAP1 PUSH2 0x1486 JUMP JUMPDEST PUSH1 0x40 MLOAD DUP1 SWAP2 SUB SWAP1 RETURN JUMPDEST PUSH2 0x1FB PUSH1 0x4 DUP1 CALLDATASIZE SUB DUP2 ADD SWAP1 PUSH2 0x1F6 SWAP2 SWAP1 PUSH2 0x1155 JUMP JUMPDEST PUSH2 0x9C1 JUMP JUMPDEST PUSH1 0x40 MLOAD PUSH2 0x208 SWAP2 SWAP1 PUSH2 0x1293 JUMP JUMPDEST PUSH1 0x40 MLOAD DUP1 SWAP2 SUB SWAP1 RETURN JUMPDEST PUSH2 0x219 PUSH2 0x9EC JUMP JUMPDEST PUSH1 0x40 MLOAD PUSH2 0x226 SWAP2 SWAP1 PUSH2 0x1293 JUMP JUMPDEST PUSH1 0x40 MLOAD DUP1 SWAP2 SUB SWAP1 RETURN JUMPDEST PUSH2 0x249 PUSH1 0x4 DUP1 CALLDATASIZE SUB DUP2 ADD SWAP1 PUSH2 0x244 SWAP2 SWAP1 PUSH2 0x1500 JUMP JUMPDEST PUSH2 0x9F8 JUMP JUMPDEST PUSH1 0x40 MLOAD PUSH2 0x256 SWAP2 SWAP1 PUSH2 0x1293 JUMP JUMPDEST PUSH1 0x40 MLOAD DUP1 SWAP2 SUB SWAP1 RETURN JUMPDEST PUSH2 0x279 PUSH1 0x4 DUP1 CALLDATASIZE SUB DUP2 ADD SWAP1 PUSH2 0x274 SWAP2 SWAP1 PUSH2 0x1575 JUMP JUMPDEST PUSH2 0xB31 JUMP JUMPDEST STOP JUMPDEST PUSH2 0x295 PUSH1 0x4 DUP1 CALLDATASIZE SUB DUP2 ADD SWAP1 PUSH2 0x290 SWAP2 SWAP1 PUSH2 0x1193 JUMP JUMPDEST PUSH2 0xBB5 JUMP JUMPDEST STOP JUMPDEST PUSH2 0x29F PUSH2 0xCD3 JUMP JUMPDEST PUSH2 0x2A7 PUSH2 0xD5A JUMP JUMPDEST PUSH1 0x3 DUP1 SLOAD SWAP1 POP DUP3 LT DUP1 ISZERO PUSH2 0x2BF JUMPI POP PUSH1 0x3 DUP1 SLOAD SWAP1 POP DUP2 LT JUMPDEST PUSH2 0x2FE JUMPI PUSH1 0x40 MLOAD PUSH32 0x8C379A000000000000000000000000000000000000000000000000000000000 DUP2 MSTORE PUSH1 0x4 ADD PUSH2 0x2F5 SWAP1 PUSH2 0x15EA JUMP JUMPDEST PUSH1 0x40 MLOAD DUP1 SWAP2 SUB SWAP1 REVERT JUMPDEST PUSH0 PUSH1 0x4 PUSH0 DUP5 DUP2 MSTORE PUSH1 0x20 ADD SWAP1 DUP2 MSTORE PUSH1 0x20 ADD PUSH0 KECCAK256 SWAP1 POP PUSH0 PUSH0 SWAP1 POP JUMPDEST DUP2 DUP1 SLOAD SWAP1 POP DUP2 LT ISZERO PUSH2 0x3F6 JUMPI DUP3 DUP3 DUP3 DUP2 SLOAD DUP2 LT PUSH2 0x337 JUMPI PUSH2 0x336 PUSH2 0x1608 JUMP JUMPDEST JUMPDEST SWAP1 PUSH0 MSTORE PUSH1 0x20 PUSH0 KECCAK256 ADD SLOAD SUB PUSH2 0x3E9 JUMPI DUP2 PUSH1 0x1 DUP4 DUP1 SLOAD SWAP1 POP PUSH2 0x357 SWAP2 SWAP1 PUSH2 0x1662 JUMP JUMPDEST DUP2 SLOAD DUP2 LT PUSH2 0x368 JUMPI PUSH2 0x367 PUSH2 0x1608 JUMP JUMPDEST JUMPDEST SWAP1 PUSH0 MSTORE PUSH1 0x20 PUSH0 KECCAK256 ADD SLOAD DUP3 DUP3 DUP2 SLOAD DUP2 LT PUSH2 0x384 JUMPI PUSH2 0x383 PUSH2 0x1608 JUMP JUMPDEST JUMPDEST SWAP1 PUSH0 MSTORE PUSH1 0x20 PUSH0 KECCAK256 ADD DUP2 SWAP1 SSTORE POP DUP2 DUP1 SLOAD DUP1 PUSH2 0x3A1 JUMPI PUSH2 0x3A0 PUSH2 0x1695 JUMP JUMPDEST JUMPDEST PUSH1 0x1 SWAP1 SUB DUP2 DUP2 SWAP1 PUSH0 MSTORE PUSH1 0x20 PUSH0 KECCAK256 ADD PUSH0 SWAP1 SSTORE SWAP1 SSTORE DUP3 DUP5 PUSH32 0xBF463DFC57E4CAEEEFC4E139C2CE7587F336948E1209BBF036F4BE49197DD759 PUSH1 0x40 MLOAD PUSH1 0x40 MLOAD DUP1 SWAP2 SUB SWAP1 LOG3 POP POP PUSH2 0x432 JUMP JUMPDEST DUP1 DUP1 PUSH1 0x1 ADD SWAP2 POP POP PUSH2 0x317 JUMP JUMPDEST POP PUSH1 0x40 MLOAD PUSH32 0x8C379A000000000000000000000000000000000000000000000000000000000 DUP2 MSTORE PUSH1 0x4 ADD PUSH2 0x429 SWAP1 PUSH2 0x170C JUMP JUMPDEST PUSH1 0x40 MLOAD DUP1 SWAP2 SUB SWAP1 REVERT JUMPDEST PUSH2 0x43A PUSH2 0xDA9 JUMP JUMPDEST POP POP JUMP JUMPDEST PUSH1 0x3 DUP2 DUP2 SLOAD DUP2 LT PUSH2 0x44D JUMPI PUSH0 DUP1 REVERT JUMPDEST SWAP1 PUSH0 MSTORE PUSH1 0x20 PUSH0 KECCAK256 SWAP1 PUSH1 0x3 MUL ADD PUSH0 SWAP2 POP SWAP1 POP DUP1 PUSH0 ADD SLOAD SWAP1 DUP1 PUSH1 0x1 ADD PUSH0 SWAP1 SLOAD SWAP1 PUSH2 0x100 EXP SWAP1 DIV PUSH1 0xFF AND SWAP1 DUP1 PUSH1 0x2 ADD DUP1 SLOAD PUSH2 0x484 SWAP1 PUSH2 0x1757 JUMP JUMPDEST DUP1 PUSH1 0x1F ADD PUSH1 0x20 DUP1 SWAP2 DIV MUL PUSH1 0x20 ADD PUSH1 0x40 MLOAD SWAP1 DUP2 ADD PUSH1 0x40 MSTORE DUP1 SWAP3 SWAP2 SWAP1 DUP2 DUP2 MSTORE PUSH1 0x20 ADD DUP3 DUP1 SLOAD PUSH2 0x4B0 SWAP1 PUSH2 0x1757 JUMP JUMPDEST DUP1 ISZERO PUSH2 0x4FB JUMPI DUP1 PUSH1 0x1F LT PUSH2 0x4D2 JUMPI PUSH2 0x100 DUP1 DUP4 SLOAD DIV MUL DUP4 MSTORE SWAP2 PUSH1 0x20 ADD SWAP2 PUSH2 0x4FB JUMP JUMPDEST DUP3 ADD SWAP2 SWAP1 PUSH0 MSTORE PUSH1 0x20 PUSH0 KECCAK256 SWAP1 JUMPDEST DUP2 SLOAD DUP2 MSTORE SWAP1 PUSH1 0x1 ADD SWAP1 PUSH1 0x20 ADD DUP1 DUP4 GT PUSH2 0x4DE JUMPI DUP3 SWAP1 SUB PUSH1 0x1F AND DUP3 ADD SWAP2 JUMPDEST POP POP POP POP POP SWAP1 POP DUP4 JUMP JUMPDEST PUSH1 0x2 SLOAD DUP2 JUMP JUMPDEST PUSH2 0x513 PUSH2 0xCD3 JUMP JUMPDEST PUSH2 0x51B PUSH2 0xD5A JUMP JUMPDEST PUSH1 0x3 DUP1 SLOAD SWAP1 POP DUP3 LT DUP1 ISZERO PUSH2 0x533 JUMPI POP PUSH1 0x3 DUP1 SLOAD SWAP1 POP DUP2 LT JUMPDEST PUSH2 0x572 JUMPI PUSH1 0x40 MLOAD PUSH32 0x8C379A000000000000000000000000000000000000000000000000000000000 DUP2 MSTORE PUSH1 0x4 ADD PUSH2 0x569 SWAP1 PUSH2 0x15EA JUMP JUMPDEST PUSH1 0x40 MLOAD DUP1 SWAP2 SUB SWAP1 REVERT JUMPDEST PUSH1 0x3 DUP3 DUP2 SLOAD DUP2 LT PUSH2 0x586 JUMPI PUSH2 0x585 PUSH2 0x1608 JUMP JUMPDEST JUMPDEST SWAP1 PUSH0 MSTORE PUSH1 0x20 PUSH0 KECCAK256 SWAP1 PUSH1 0x3 MUL ADD PUSH1 0x1 ADD PUSH0 SWAP1 SLOAD SWAP1 PUSH2 0x100 EXP SWAP1 DIV PUSH1 0xFF AND DUP1 ISZERO PUSH2 0x5DA JUMPI POP PUSH1 0x3 DUP2 DUP2 SLOAD DUP2 LT PUSH2 0x5BD JUMPI PUSH2 0x5BC PUSH2 0x1608 JUMP JUMPDEST JUMPDEST SWAP1 PUSH0 MSTORE PUSH1 0x20 PUSH0 KECCAK256 SWAP1 PUSH1 0x3 MUL ADD PUSH1 0x1 ADD PUSH0 SWAP1 SLOAD SWAP1 PUSH2 0x100 EXP SWAP1 DIV PUSH1 0xFF AND JUMPDEST PUSH2 0x619 JUMPI PUSH1 0x40 MLOAD PUSH32 0x8C379A000000000000000000000000000000000000000000000000000000000 DUP2 MSTORE PUSH1 0x4 ADD PUSH2 0x610 SWAP1 PUSH2 0x17D1 JUMP JUMPDEST PUSH1 0x40 MLOAD DUP1 SWAP2 SUB SWAP1 REVERT JUMPDEST DUP1 DUP3 SUB PUSH2 0x65B JUMPI PUSH1 0x40 MLOAD PUSH32 0x8C379A000000000000000000000000000000000000000000000000000000000 DUP2 MSTORE PUSH1 0x4 ADD PUSH2 0x652 SWAP1 PUSH2 0x1839 JUMP JUMPDEST PUSH1 0x40 MLOAD DUP1 SWAP2 SUB SWAP1 REVERT JUMPDEST PUSH0 PUSH1 0x4 PUSH0 DUP5 DUP2 MSTORE PUSH1 0x20 ADD SWAP1 DUP2 MSTORE PUSH1 0x20 ADD PUSH0 KECCAK256 SWAP1 POP PUSH0 PUSH0 SWAP1 POP JUMPDEST DUP2 DUP1 SLOAD SWAP1 POP DUP2 LT ISZERO PUSH2 0x6EA JUMPI DUP3 DUP3 DUP3 DUP2 SLOAD DUP2 LT PUSH2 0x694 JUMPI PUSH2 0x693 PUSH2 0x1608 JUMP JUMPDEST JUMPDEST SWAP1 PUSH0 MSTORE PUSH1 0x20 PUSH0 KECCAK256 ADD SLOAD SUB PUSH2 0x6DD JUMPI PUSH1 0x40 MLOAD PUSH32 0x8C379A000000000000000000000000000000000000000000000000000000000 DUP2 MSTORE PUSH1 0x4 ADD PUSH2 0x6D4 SWAP1 PUSH2 0x18A1 JUMP JUMPDEST PUSH1 0x40 MLOAD DUP1 SWAP2 SUB SWAP1 REVERT JUMPDEST DUP1 DUP1 PUSH1 0x1 ADD SWAP2 POP POP PUSH2 0x674 JUMP JUMPDEST POP PUSH2 0x6F5 DUP4 DUP4 PUSH2 0xDB2 JUMP JUMPDEST ISZERO PUSH2 0x735 JUMPI PUSH1 0x40 MLOAD PUSH32 0x8C379A000000000000000000000000000000000000000000000000000000000 DUP2 MSTORE PUSH1 0x4 ADD PUSH2 0x72C SWAP1 PUSH2 0x1909 JUMP JUMPDEST PUSH1 0x40 MLOAD DUP1 SWAP2 SUB SWAP1 REVERT JUMPDEST PUSH1 0x4 PUSH0 DUP5 DUP2 MSTORE PUSH1 0x20 ADD SWAP1 DUP2 MSTORE PUSH1 0x20 ADD PUSH0 KECCAK256 DUP3 SWAP1 DUP1 PUSH1 0x1 DUP2 SLOAD ADD DUP1 DUP3 SSTORE DUP1 SWAP2 POP POP PUSH1 0x1 SWAP1 SUB SWAP1 PUSH0 MSTORE PUSH1 0x20 PUSH0 KECCAK256 ADD PUSH0 SWAP1 SWAP2 SWAP1 SWAP2 SWAP1 SWAP2 POP SSTORE DUP2 DUP4 PUSH32 0xF251D5471D7B3FAACF1C06A6351A13F6D7FE7FAB0AD2DA83F861415EC9100D58 PUSH1 0x40 MLOAD PUSH1 0x40 MLOAD DUP1 SWAP2 SUB SWAP1 LOG3 POP PUSH2 0x7A1 PUSH2 0xDA9 JUMP JUMPDEST POP POP JUMP JUMPDEST PUSH1 0x60 PUSH1 0x3 DUP1 SLOAD SWAP1 POP DUP3 LT PUSH2 0x7EE JUMPI PUSH1 0x40 MLOAD PUSH32 0x8C379A000000000000000000000000000000000000000000000000000000000 DUP2 MSTORE PUSH1 0x4 ADD PUSH2 0x7E5 SWAP1 PUSH2 0x15EA JUMP JUMPDEST PUSH1 0x40 MLOAD DUP1 SWAP2 SUB SWAP1 REVERT JUMPDEST PUSH1 0x4 PUSH0 DUP4 DUP2 MSTORE PUSH1 0x20 ADD SWAP1 DUP2 MSTORE PUSH1 0x20 ADD PUSH0 KECCAK256 DUP1 SLOAD DUP1 PUSH1 0x20 MUL PUSH1 0x20 ADD PUSH1 0x40 MLOAD SWAP1 DUP2 ADD PUSH1 0x40 MSTORE DUP1 SWAP3 SWAP2 SWAP1 DUP2 DUP2 MSTORE PUSH1 0x20 ADD DUP3 DUP1 SLOAD DUP1 ISZERO PUSH2 0x847 JUMPI PUSH1 0x20 MUL DUP3 ADD SWAP2 SWAP1 PUSH0 MSTORE PUSH1 0x20 PUSH0 KECCAK256 SWAP1 JUMPDEST DUP2 SLOAD DUP2 MSTORE PUSH1 0x20 ADD SWAP1 PUSH1 0x1 ADD SWAP1 DUP1 DUP4 GT PUSH2 0x833 JUMPI JUMPDEST POP POP POP POP POP SWAP1 POP SWAP2 SWAP1 POP JUMP JUMPDEST PUSH2 0x85B PUSH2 0x10F9 JUMP JUMPDEST PUSH1 0x3 DUP1 SLOAD SWAP1 POP DUP3 LT PUSH2 0x8A2 JUMPI PUSH1 0x40 MLOAD PUSH32 0x8C379A000000000000000000000000000000000000000000000000000000000 DUP2 MSTORE PUSH1 0x4 ADD PUSH2 0x899 SWAP1 PUSH2 0x15EA JUMP JUMPDEST PUSH1 0x40 MLOAD DUP1 SWAP2 SUB SWAP1 REVERT JUMPDEST PUSH1 0x3 DUP3 DUP2 SLOAD DUP2 LT PUSH2 0x8B6 JUMPI PUSH2 0x8B5 PUSH2 0x1608 JUMP JUMPDEST JUMPDEST SWAP1 PUSH0 MSTORE PUSH1 0x20 PUSH0 KECCAK256 SWAP1 PUSH1 0x3 MUL ADD PUSH1 0x40 MLOAD DUP1 PUSH1 0x60 ADD PUSH1 0x40 MSTORE SWAP1 DUP2 PUSH0 DUP3 ADD SLOAD DUP2 MSTORE PUSH1 0x20 ADD PUSH1 0x1 DUP3 ADD PUSH0 SWAP1 SLOAD SWAP1 PUSH2 0x100 EXP SWAP1 DIV PUSH1 0xFF AND ISZERO ISZERO ISZERO ISZERO DUP2 MSTORE PUSH1 0x20 ADD PUSH1 0x2 DUP3 ADD DUP1 SLOAD PUSH2 0x900 SWAP1 PUSH2 0x1757 JUMP JUMPDEST DUP1 PUSH1 0x1F ADD PUSH1 0x20 DUP1 SWAP2 DIV MUL PUSH1 0x20 ADD PUSH1 0x40 MLOAD SWAP1 DUP2 ADD PUSH1 0x40 MSTORE DUP1 SWAP3 SWAP2 SWAP1 DUP2 DUP2 MSTORE PUSH1 0x20 ADD DUP3 DUP1 SLOAD PUSH2 0x92C SWAP1 PUSH2 0x1757 JUMP JUMPDEST DUP1 ISZERO PUSH2 0x977 JUMPI DUP1 PUSH1 0x1F LT PUSH2 0x94E JUMPI PUSH2 0x100 DUP1 DUP4 SLOAD DIV MUL DUP4 MSTORE SWAP2 PUSH1 0x20 ADD SWAP2 PUSH2 0x977 JUMP JUMPDEST DUP3 ADD SWAP2 SWAP1 PUSH0 MSTORE PUSH1 0x20 PUSH0 KECCAK256 SWAP1 JUMPDEST DUP2 SLOAD DUP2 MSTORE SWAP1 PUSH1 0x1 ADD SWAP1 PUSH1 0x20 ADD DUP1 DUP4 GT PUSH2 0x95A JUMPI DUP3 SWAP1 SUB PUSH1 0x1F AND DUP3 ADD SWAP2 JUMPDEST POP POP POP POP POP DUP2 MSTORE POP POP SWAP1 POP SWAP2 SWAP1 POP JUMP JUMPDEST PUSH2 0x98F PUSH2 0xCD3 JUMP JUMPDEST PUSH2 0x998 PUSH0 PUSH2 0x1031 JUMP JUMPDEST JUMP JUMPDEST PUSH0 PUSH0 PUSH0 SWAP1 SLOAD SWAP1 PUSH2 0x100 EXP SWAP1 DIV PUSH20 0xFFFFFFFFFFFFFFFFFFFFFFFFFFFFFFFFFFFFFFFF AND SWAP1 POP SWAP1 JUMP JUMPDEST PUSH1 0x4 PUSH1 0x20 MSTORE DUP2 PUSH0 MSTORE PUSH1 0x40 PUSH0 KECCAK256 DUP2 DUP2 SLOAD DUP2 LT PUSH2 0x9DA JUMPI PUSH0 DUP1 REVERT JUMPDEST SWAP1 PUSH0 MSTORE PUSH1 0x20 PUSH0 KECCAK256 ADD PUSH0 SWAP2 POP SWAP2 POP POP SLOAD DUP2 JUMP JUMPDEST PUSH0 PUSH1 0x3 DUP1 SLOAD SWAP1 POP SWAP1 POP SWAP1 JUMP JUMPDEST PUSH0 PUSH2 0xA01 PUSH2 0xCD3 JUMP JUMPDEST PUSH2 0xA09 PUSH2 0xD5A JUMP JUMPDEST PUSH1 0x2 PUSH0 DUP2 SLOAD DUP1 SWAP3 SWAP2 SWAP1 PUSH2 0xA1B SWAP1 PUSH2 0x1927 JUMP JUMPDEST SWAP2 SWAP1 POP SSTORE SWAP1 POP PUSH1 0x3 PUSH1 0x40 MLOAD DUP1 PUSH1 0x60 ADD PUSH1 0x40 MSTORE DUP1 DUP4 DUP2 MSTORE PUSH1 0x20 ADD PUSH1 0x1 ISZERO ISZERO DUP2 MSTORE PUSH1 0x20 ADD DUP6 DUP6 DUP1 DUP1 PUSH1 0x1F ADD PUSH1 0x20 DUP1 SWAP2 DIV MUL PUSH1 0x20 ADD PUSH1 0x40 MLOAD SWAP1 DUP2 ADD PUSH1 0x40 MSTORE DUP1 SWAP4 SWAP3 SWAP2 SWAP1 DUP2 DUP2 MSTORE PUSH1 0x20 ADD DUP4 DUP4 DUP1 DUP3 DUP5 CALLDATACOPY PUSH0 DUP2 DUP5 ADD MSTORE PUSH1 0x1F NOT PUSH1 0x1F DUP3 ADD AND SWAP1 POP DUP1 DUP4 ADD SWAP3 POP POP POP POP POP POP POP DUP2 MSTORE POP SWAP1 DUP1 PUSH1 0x1 DUP2 SLOAD ADD DUP1 DUP3 SSTORE DUP1 SWAP2 POP POP PUSH1 0x1 SWAP1 SUB SWAP1 PUSH0 MSTORE PUSH1 0x20 PUSH0 KECCAK256 SWAP1 PUSH1 0x3 MUL ADD PUSH0 SWAP1 SWAP2 SWAP1 SWAP2 SWAP1 SWAP2 POP PUSH0 DUP3 ADD MLOAD DUP2 PUSH0 ADD SSTORE PUSH1 0x20 DUP3 ADD MLOAD DUP2 PUSH1 0x1 ADD PUSH0 PUSH2 0x100 EXP DUP2 SLOAD DUP2 PUSH1 0xFF MUL NOT AND SWAP1 DUP4 ISZERO ISZERO MUL OR SWAP1 SSTORE POP PUSH1 0x40 DUP3 ADD MLOAD DUP2 PUSH1 0x2 ADD SWAP1 DUP2 PUSH2 0xAE6 SWAP2 SWAP1 PUSH2 0x1B3B JUMP JUMPDEST POP POP POP DUP1 PUSH32 0x9DE9441770CBC332CBD4AA8BEB53A8B3914FE42A97D16F415095B7E8DD201F31 DUP5 DUP5 PUSH1 0x40 MLOAD PUSH2 0xB1B SWAP3 SWAP2 SWAP1 PUSH2 0x1C44 JUMP JUMPDEST PUSH1 0x40 MLOAD DUP1 SWAP2 SUB SWAP1 LOG2 PUSH2 0xB2B PUSH2 0xDA9 JUMP JUMPDEST SWAP3 SWAP2 POP POP JUMP JUMPDEST PUSH2 0xB39 PUSH2 0xCD3 JUMP JUMPDEST PUSH0 PUSH20 0xFFFFFFFFFFFFFFFFFFFFFFFFFFFFFFFFFFFFFFFF AND DUP2 PUSH20 0xFFFFFFFFFFFFFFFFFFFFFFFFFFFFFFFFFFFFFFFF AND SUB PUSH2 0xBA9 JUMPI PUSH0 PUSH1 0x40 MLOAD PUSH32 0x1E4FBDF700000000000000000000000000000000000000000000000000000000 DUP2 MSTORE PUSH1 0x4 ADD PUSH2 0xBA0 SWAP2 SWAP1 PUSH2 0x1486 JUMP JUMPDEST PUSH1 0x40 MLOAD DUP1 SWAP2 SUB SWAP1 REVERT JUMPDEST PUSH2 0xBB2 DUP2 PUSH2 0x1031 JUMP JUMPDEST POP JUMP JUMPDEST PUSH2 0xBBD PUSH2 0xCD3 JUMP JUMPDEST PUSH2 0xBC5 PUSH2 0xD5A JUMP JUMPDEST PUSH1 0x3 DUP1 SLOAD SWAP1 POP DUP2 LT PUSH2 0xC0C JUMPI PUSH1 0x40 MLOAD PUSH32 0x8C379A000000000000000000000000000000000000000000000000000000000 DUP2 MSTORE PUSH1 0x4 ADD PUSH2 0xC03 SWAP1 PUSH2 0x15EA JUMP JUMPDEST PUSH1 0x40 MLOAD DUP1 SWAP2 SUB SWAP1 REVERT JUMPDEST PUSH0 PUSH1 0x3 DUP3 DUP2 SLOAD DUP2 LT PUSH2 0xC21 JUMPI PUSH2 0xC20 PUSH2 0x1608 JUMP JUMPDEST JUMPDEST SWAP1 PUSH0 MSTORE PUSH1 0x20 PUSH0 KECCAK256 SWAP1 PUSH1 0x3 MUL ADD SWAP1 POP DUP1 PUSH1 0x1 ADD PUSH0 SWAP1 SLOAD SWAP1 PUSH2 0x100 EXP SWAP1 DIV PUSH1 0xFF AND PUSH2 0xC7F JUMPI PUSH1 0x40 MLOAD PUSH32 0x8C379A000000000000000000000000000000000000000000000000000000000 DUP2 MSTORE PUSH1 0x4 ADD PUSH2 0xC76 SWAP1 PUSH2 0x1CB0 JUMP JUMPDEST PUSH1 0x40 MLOAD DUP1 SWAP2 SUB SWAP1 REVERT JUMPDEST PUSH0 DUP2 PUSH1 0x1 ADD PUSH0 PUSH2 0x100 EXP DUP2 SLOAD DUP2 PUSH1 0xFF MUL NOT AND SWAP1 DUP4 ISZERO ISZERO MUL OR SWAP1 SSTORE POP DUP2 PUSH32 0x2B61F53058DF44855C08A7304979066CB409F86A3DCA910E2275B9E85635D1F9 PUSH1 0x40 MLOAD PUSH1 0x40 MLOAD DUP1 SWAP2 SUB SWAP1 LOG2 POP PUSH2 0xCD0 PUSH2 0xDA9 JUMP JUMPDEST POP JUMP JUMPDEST PUSH2 0xCDB PUSH2 0x10F2 JUMP JUMPDEST PUSH20 0xFFFFFFFFFFFFFFFFFFFFFFFFFFFFFFFFFFFFFFFF AND PUSH2 0xCF9 PUSH2 0x99A JUMP JUMPDEST PUSH20 0xFFFFFFFFFFFFFFFFFFFFFFFFFFFFFFFFFFFFFFFF AND EQ PUSH2 0xD58 JUMPI PUSH2 0xD1C PUSH2 0x10F2 JUMP JUMPDEST PUSH1 0x40 MLOAD PUSH32 0x118CDAA700000000000000000000000000000000000000000000000000000000 DUP2 MSTORE PUSH1 0x4 ADD PUSH2 0xD4F SWAP2 SWAP1 PUSH2 0x1486 JUMP JUMPDEST PUSH1 0x40 MLOAD DUP1 SWAP2 SUB SWAP1 REVERT JUMPDEST JUMP JUMPDEST PUSH1 0x2 PUSH1 0x1 SLOAD SUB PUSH2 0xD9F JUMPI PUSH1 0x40 MLOAD PUSH32 0x8C379A000000000000000000000000000000000000000000000000000000000 DUP2 MSTORE PUSH1 0x4 ADD PUSH2 0xD96 SWAP1 PUSH2 0x1D18 JUMP JUMPDEST PUSH1 0x40 MLOAD DUP1 SWAP2 SUB SWAP1 REVERT JUMPDEST PUSH1 0x2 PUSH1 0x1 DUP2 SWAP1 SSTORE POP JUMP JUMPDEST PUSH1 0x1 DUP1 DUP2 SWAP1 SSTORE POP JUMP JUMPDEST PUSH0 PUSH0 PUSH1 0x3 DUP1 SLOAD SWAP1 POP PUSH8 0xFFFFFFFFFFFFFFFF DUP2 GT ISZERO PUSH2 0xDD3 JUMPI PUSH2 0xDD2 PUSH2 0x196E JUMP JUMPDEST JUMPDEST PUSH1 0x40 MLOAD SWAP1 DUP1 DUP3 MSTORE DUP1 PUSH1 0x20 MUL PUSH1 0x20 ADD DUP3 ADD PUSH1 0x40 MSTORE DUP1 ISZERO PUSH2 0xE01 JUMPI DUP2 PUSH1 0x20 ADD PUSH1 0x20 DUP3 MUL DUP1 CALLDATASIZE DUP4 CALLDATACOPY DUP1 DUP3 ADD SWAP2 POP POP SWAP1 POP JUMPDEST POP SWAP1 POP PUSH0 PUSH1 0x3 DUP1 SLOAD SWAP1 POP PUSH8 0xFFFFFFFFFFFFFFFF DUP2 GT ISZERO PUSH2 0xE24 JUMPI PUSH2 0xE23 PUSH2 0x196E JUMP JUMPDEST JUMPDEST PUSH1 0x40 MLOAD SWAP1 DUP1 DUP3 MSTORE DUP1 PUSH1 0x20 MUL PUSH1 0x20 ADD DUP3 ADD PUSH1 0x40 MSTORE DUP1 ISZERO PUSH2 0xE52 JUMPI DUP2 PUSH1 0x20 ADD PUSH1 0x20 DUP3 MUL DUP1 CALLDATASIZE DUP4 CALLDATACOPY DUP1 DUP3 ADD SWAP2 POP POP SWAP1 POP JUMPDEST POP SWAP1 POP PUSH0 PUSH0 SWAP1 POP DUP5 DUP3 DUP3 DUP1 PUSH2 0xE66 SWAP1 PUSH2 0x1927 JUMP JUMPDEST SWAP4 POP DUP2 MLOAD DUP2 LT PUSH2 0xE79 JUMPI PUSH2 0xE78 PUSH2 0x1608 JUMP JUMPDEST JUMPDEST PUSH1 0x20 MUL PUSH1 0x20 ADD ADD DUP2 DUP2 MSTORE POP POP JUMPDEST PUSH0 DUP2 GT ISZERO PUSH2 0x1024 JUMPI PUSH0 DUP3 DUP3 PUSH2 0xE9A SWAP1 PUSH2 0x1D36 JUMP JUMPDEST SWAP3 POP DUP3 DUP2 MLOAD DUP2 LT PUSH2 0xEAE JUMPI PUSH2 0xEAD PUSH2 0x1608 JUMP JUMPDEST JUMPDEST PUSH1 0x20 MUL PUSH1 0x20 ADD ADD MLOAD SWAP1 POP DUP7 DUP2 SUB PUSH2 0xECC JUMPI PUSH1 0x1 SWAP5 POP POP POP POP POP PUSH2 0x102B JUMP JUMPDEST DUP4 DUP2 DUP2 MLOAD DUP2 LT PUSH2 0xEDF JUMPI PUSH2 0xEDE PUSH2 0x1608 JUMP JUMPDEST JUMPDEST PUSH1 0x20 MUL PUSH1 0x20 ADD ADD MLOAD PUSH2 0x101E JUMPI PUSH1 0x1 DUP5 DUP3 DUP2 MLOAD DUP2 LT PUSH2 0xF00 JUMPI PUSH2 0xEFF PUSH2 0x1608 JUMP JUMPDEST JUMPDEST PUSH1 0x20 MUL PUSH1 0x20 ADD ADD SWAP1 ISZERO ISZERO SWAP1 DUP2 ISZERO ISZERO DUP2 MSTORE POP POP PUSH0 PUSH1 0x4 PUSH0 DUP4 DUP2 MSTORE PUSH1 0x20 ADD SWAP1 DUP2 MSTORE PUSH1 0x20 ADD PUSH0 KECCAK256 SWAP1 POP PUSH0 PUSH0 SWAP1 POP JUMPDEST DUP2 DUP1 SLOAD SWAP1 POP DUP2 LT ISZERO PUSH2 0x101B JUMPI PUSH1 0x3 DUP3 DUP3 DUP2 SLOAD DUP2 LT PUSH2 0xF4C JUMPI PUSH2 0xF4B PUSH2 0x1608 JUMP JUMPDEST JUMPDEST SWAP1 PUSH0 MSTORE PUSH1 0x20 PUSH0 KECCAK256 ADD SLOAD DUP2 SLOAD DUP2 LT PUSH2 0xF66 JUMPI PUSH2 0xF65 PUSH2 0x1608 JUMP JUMPDEST JUMPDEST SWAP1 PUSH0 MSTORE PUSH1 0x20 PUSH0 KECCAK256 SWAP1 PUSH1 0x3 MUL ADD PUSH1 0x1 ADD PUSH0 SWAP1 SLOAD SWAP1 PUSH2 0x100 EXP SWAP1 DIV PUSH1 0xFF AND DUP1 ISZERO PUSH2 0xFC1 JUMPI POP DUP6 DUP3 DUP3 DUP2 SLOAD DUP2 LT PUSH2 0xF9D JUMPI PUSH2 0xF9C PUSH2 0x1608 JUMP JUMPDEST JUMPDEST SWAP1 PUSH0 MSTORE PUSH1 0x20 PUSH0 KECCAK256 ADD SLOAD DUP2 MLOAD DUP2 LT PUSH2 0xFB7 JUMPI PUSH2 0xFB6 PUSH2 0x1608 JUMP JUMPDEST JUMPDEST PUSH1 0x20 MUL PUSH1 0x20 ADD ADD MLOAD ISZERO JUMPDEST ISZERO PUSH2 0x100E JUMPI DUP2 DUP2 DUP2 SLOAD DUP2 LT PUSH2 0xFD9 JUMPI PUSH2 0xFD8 PUSH2 0x1608 JUMP JUMPDEST JUMPDEST SWAP1 PUSH0 MSTORE PUSH1 0x20 PUSH0 KECCAK256 ADD SLOAD DUP6 DUP6 DUP1 PUSH2 0xFEE SWAP1 PUSH2 0x1927 JUMP JUMPDEST SWAP7 POP DUP2 MLOAD DUP2 LT PUSH2 0x1001 JUMPI PUSH2 0x1000 PUSH2 0x1608 JUMP JUMPDEST JUMPDEST PUSH1 0x20 MUL PUSH1 0x20 ADD ADD DUP2 DUP2 MSTORE POP POP JUMPDEST DUP1 DUP1 PUSH1 0x1 ADD SWAP2 POP POP PUSH2 0xF2B JUMP JUMPDEST POP POP JUMPDEST POP PUSH2 0xE86 JUMP JUMPDEST PUSH0 SWAP4 POP POP POP POP JUMPDEST SWAP3 SWAP2 POP POP JUMP JUMPDEST PUSH0 PUSH0 PUSH0 SWAP1 SLOAD SWAP1 PUSH2 0x100 EXP SWAP1 DIV PUSH20 0xFFFFFFFFFFFFFFFFFFFFFFFFFFFFFFFFFFFFFFFF AND SWAP1 POP DUP2 PUSH0 PUSH0 PUSH2 0x100 EXP DUP2 SLOAD DUP2 PUSH20 0xFFFFFFFFFFFFFFFFFFFFFFFFFFFFFFFFFFFFFFFF MUL NOT AND SWAP1 DUP4 PUSH20 0xFFFFFFFFFFFFFFFFFFFFFFFFFFFFFFFFFFFFFFFF AND MUL OR SWAP1 SSTORE POP DUP2 PUSH20 0xFFFFFFFFFFFFFFFFFFFFFFFFFFFFFFFFFFFFFFFF AND DUP2 PUSH20 0xFFFFFFFFFFFFFFFFFFFFFFFFFFFFFFFFFFFFFFFF AND PUSH32 0x8BE0079C531659141344CD1FD0A4F28419497F9722A3DAAFE3B4186F6B6457E0 PUSH1 0x40 MLOAD PUSH1 0x40 MLOAD DUP1 SWAP2 SUB SWAP1 LOG3 POP POP JUMP JUMPDEST PUSH0 CALLER SWAP1 POP SWAP1 JUMP JUMPDEST PUSH1 0x40 MLOAD DUP1 PUSH1 0x60 ADD PUSH1 0x40 MSTORE DUP1 PUSH0 DUP2 MSTORE PUSH1 0x20 ADD PUSH0 ISZERO ISZERO DUP2 MSTORE PUSH1 0x20 ADD PUSH1 0x60 DUP2 MSTORE POP SWAP1 JUMP JUMPDEST PUSH0 PUSH0 REVERT JUMPDEST PUSH0 PUSH0 REVERT JUMPDEST PUSH0 DUP2 SWAP1 POP SWAP2 SWAP1 POP JUMP JUMPDEST PUSH2 0x1134 DUP2 PUSH2 0x1122 JUMP JUMPDEST DUP2 EQ PUSH2 0x113E JUMPI PUSH0 PUSH0 REVERT JUMPDEST POP JUMP JUMPDEST PUSH0 DUP2 CALLDATALOAD SWAP1 POP PUSH2 0x114F DUP2 PUSH2 0x112B JUMP JUMPDEST SWAP3 SWAP2 POP POP JUMP JUMPDEST PUSH0 PUSH0 PUSH1 0x40 DUP4 DUP6 SUB SLT ISZERO PUSH2 0x116B JUMPI PUSH2 0x116A PUSH2 0x111A JUMP JUMPDEST JUMPDEST PUSH0 PUSH2 0x1178 DUP6 DUP3 DUP7 ADD PUSH2 0x1141 JUMP JUMPDEST SWAP3 POP POP PUSH1 0x20 PUSH2 0x1189 DUP6 DUP3 DUP7 ADD PUSH2 0x1141 JUMP JUMPDEST SWAP2 POP POP SWAP3 POP SWAP3 SWAP1 POP JUMP JUMPDEST PUSH0 PUSH1 0x20 DUP3 DUP5 SUB SLT ISZERO PUSH2 0x11A8 JUMPI PUSH2 0x11A7 PUSH2 0x111A JUMP JUMPDEST JUMPDEST PUSH0 PUSH2 0x11B5 DUP5 DUP3 DUP6 ADD PUSH2 0x1141 JUMP JUMPDEST SWAP2 POP POP SWAP3 SWAP2 POP POP JUMP JUMPDEST PUSH2 0x11C7 DUP2 PUSH2 0x1122 JUMP JUMPDEST DUP3 MSTORE POP POP JUMP JUMPDEST PUSH0 DUP2 ISZERO ISZERO SWAP1 POP SWAP2 SWAP1 POP JUMP JUMPDEST PUSH2 0x11E1 DUP2 PUSH2 0x11CD JUMP JUMPDEST DUP3 MSTORE POP POP JUMP JUMPDEST PUSH0 DUP2 MLOAD SWAP1 POP SWAP2 SWAP1 POP JUMP JUMPDEST PUSH0 DUP3 DUP3 MSTORE PUSH1 0x20 DUP3 ADD SWAP1 POP SWAP3 SWAP2 POP POP JUMP JUMPDEST DUP3 DUP2 DUP4 MCOPY PUSH0 DUP4 DUP4 ADD MSTORE POP POP POP JUMP JUMPDEST PUSH0 PUSH1 0x1F NOT PUSH1 0x1F DUP4 ADD AND SWAP1 POP SWAP2 SWAP1 POP JUMP JUMPDEST PUSH0 PUSH2 0x1229 DUP3 PUSH2 0x11E7 JUMP JUMPDEST PUSH2 0x1233 DUP2 DUP6 PUSH2 0x11F1 JUMP JUMPDEST SWAP4 POP PUSH2 0x1243 DUP2 DUP6 PUSH1 0x20 DUP7 ADD PUSH2 0x1201 JUMP JUMPDEST PUSH2 0x124C DUP2 PUSH2 0x120F JUMP JUMPDEST DUP5 ADD SWAP2 POP POP SWAP3 SWAP2 POP POP JUMP JUMPDEST PUSH0 PUSH1 0x60 DUP3 ADD SWAP1 POP PUSH2 0x126A PUSH0 DUP4 ADD DUP7 PUSH2 0x11BE JUMP JUMPDEST PUSH2 0x1277 PUSH1 0x20 DUP4 ADD DUP6 PUSH2 0x11D8 JUMP JUMPDEST DUP2 DUP2 SUB PUSH1 0x40 DUP4 ADD MSTORE PUSH2 0x1289 DUP2 DUP5 PUSH2 0x121F JUMP JUMPDEST SWAP1 POP SWAP5 SWAP4 POP POP POP POP JUMP JUMPDEST PUSH0 PUSH1 0x20 DUP3 ADD SWAP1 POP PUSH2 0x12A6 PUSH0 DUP4 ADD DUP5 PUSH2 0x11BE JUMP JUMPDEST SWAP3 SWAP2 POP POP JUMP JUMPDEST PUSH0 DUP2 MLOAD SWAP1 POP SWAP2 SWAP1 POP JUMP JUMPDEST PUSH0 DUP3 DUP3 MSTORE PUSH1 0x20 DUP3 ADD SWAP1 POP SWAP3 SWAP2 POP POP JUMP JUMPDEST PUSH0 DUP2 SWAP1 POP PUSH1 0x20 DUP3 ADD SWAP1 POP SWAP2 SWAP1 POP JUMP JUMPDEST PUSH2 0x12DE DUP2 PUSH2 0x1122 JUMP JUMPDEST DUP3 MSTORE POP POP JUMP JUMPDEST PUSH0 PUSH2 0x12EF DUP4 DUP4 PUSH2 0x12D5 JUMP JUMPDEST PUSH1 0x20 DUP4 ADD SWAP1 POP SWAP3 SWAP2 POP POP JUMP JUMPDEST PUSH0 PUSH1 0x20 DUP3 ADD SWAP1 POP SWAP2 SWAP1 POP JUMP JUMPDEST PUSH0 PUSH2 0x1311 DUP3 PUSH2 0x12AC JUMP JUMPDEST PUSH2 0x131B DUP2 DUP6 PUSH2 0x12B6 JUMP JUMPDEST SWAP4 POP PUSH2 0x1326 DUP4 PUSH2 0x12C6 JUMP JUMPDEST DUP1 PUSH0 JUMPDEST DUP4 DUP2 LT ISZERO PUSH2 0x1356 JUMPI DUP2 MLOAD PUSH2 0x133D DUP9 DUP3 PUSH2 0x12E4 JUMP JUMPDEST SWAP8 POP PUSH2 0x1348 DUP4 PUSH2 0x12FB JUMP JUMPDEST SWAP3 POP POP PUSH1 0x1 DUP2 ADD SWAP1 POP PUSH2 0x1329 JUMP JUMPDEST POP DUP6 SWAP4 POP POP POP POP SWAP3 SWAP2 POP POP JUMP JUMPDEST PUSH0 PUSH1 0x20 DUP3 ADD SWAP1 POP DUP2 DUP2 SUB PUSH0 DUP4 ADD MSTORE PUSH2 0x137B DUP2 DUP5 PUSH2 0x1307 JUMP JUMPDEST SWAP1 POP SWAP3 SWAP2 POP POP JUMP JUMPDEST PUSH2 0x138C DUP2 PUSH2 0x11CD JUMP JUMPDEST DUP3 MSTORE POP POP JUMP JUMPDEST PUSH0 DUP3 DUP3 MSTORE PUSH1 0x20 DUP3 ADD SWAP1 POP SWAP3 SWAP2 POP POP JUMP JUMPDEST PUSH0 PUSH2 0x13AC DUP3 PUSH2 0x11E7 JUMP JUMPDEST PUSH2 0x13B6 DUP2 DUP6 PUSH2 0x1392 JUMP JUMPDEST SWAP4 POP PUSH2 0x13C6 DUP2 DUP6 PUSH1 0x20 DUP7 ADD PUSH2 0x1201 JUMP JUMPDEST PUSH2 0x13CF DUP2 PUSH2 0x120F JUMP JUMPDEST DUP5 ADD SWAP2 POP POP SWAP3 SWAP2 POP POP JUMP JUMPDEST PUSH0 PUSH1 0x60 DUP4 ADD PUSH0 DUP4 ADD MLOAD PUSH2 0x13EF PUSH0 DUP7 ADD DUP3 PUSH2 0x12D5 JUMP JUMPDEST POP PUSH1 0x20 DUP4 ADD MLOAD PUSH2 0x1402 PUSH1 0x20 DUP7 ADD DUP3 PUSH2 0x1383 JUMP JUMPDEST POP PUSH1 0x40 DUP4 ADD MLOAD DUP5 DUP3 SUB PUSH1 0x40 DUP7 ADD MSTORE PUSH2 0x141A DUP3 DUP3 PUSH2 0x13A2 JUMP JUMPDEST SWAP2 POP POP DUP1 SWAP2 POP POP SWAP3 SWAP2 POP POP JUMP JUMPDEST PUSH0 PUSH1 0x20 DUP3 ADD SWAP1 POP DUP2 DUP2 SUB PUSH0 DUP4 ADD MSTORE PUSH2 0x143F DUP2 DUP5 PUSH2 0x13DA JUMP JUMPDEST SWAP1 POP SWAP3 SWAP2 POP POP JUMP JUMPDEST PUSH0 PUSH20 0xFFFFFFFFFFFFFFFFFFFFFFFFFFFFFFFFFFFFFFFF DUP3 AND SWAP1 POP SWAP2 SWAP1 POP JUMP JUMPDEST PUSH0 PUSH2 0x1470 DUP3 PUSH2 0x1447 JUMP JUMPDEST SWAP1 POP SWAP2 SWAP1 POP JUMP JUMPDEST PUSH2 0x1480 DUP2 PUSH2 0x1466 JUMP JUMPDEST DUP3 MSTORE POP POP JUMP JUMPDEST PUSH0 PUSH1 0x20 DUP3 ADD SWAP1 POP PUSH2 0x1499 PUSH0 DUP4 ADD DUP5 PUSH2 0x1477 JUMP JUMPDEST SWAP3 SWAP2 POP POP JUMP JUMPDEST PUSH0 PUSH0 REVERT JUMPDEST PUSH0 PUSH0 REVERT JUMPDEST PUSH0 PUSH0 REVERT JUMPDEST PUSH0 PUSH0 DUP4 PUSH1 0x1F DUP5 ADD SLT PUSH2 0x14C0 JUMPI PUSH2 0x14BF PUSH2 0x149F JUMP JUMPDEST JUMPDEST DUP3 CALLDATALOAD SWAP1 POP PUSH8 0xFFFFFFFFFFFFFFFF DUP2 GT ISZERO PUSH2 0x14DD JUMPI PUSH2 0x14DC PUSH2 0x14A3 JUMP JUMPDEST JUMPDEST PUSH1 0x20 DUP4 ADD SWAP2 POP DUP4 PUSH1 0x1 DUP3 MUL DUP4 ADD GT ISZERO PUSH2 0x14F9 JUMPI PUSH2 0x14F8 PUSH2 0x14A7 JUMP JUMPDEST JUMPDEST SWAP3 POP SWAP3 SWAP1 POP JUMP JUMPDEST PUSH0 PUSH0 PUSH1 0x20 DUP4 DUP6 SUB SLT ISZERO PUSH2 0x1516 JUMPI PUSH2 0x1515 PUSH2 0x111A JUMP JUMPDEST JUMPDEST PUSH0 DUP4 ADD CALLDATALOAD PUSH8 0xFFFFFFFFFFFFFFFF DUP2 GT ISZERO PUSH2 0x1533 JUMPI PUSH2 0x1532 PUSH2 0x111E JUMP JUMPDEST JUMPDEST PUSH2 0x153F DUP6 DUP3 DUP7 ADD PUSH2 0x14AB JUMP JUMPDEST SWAP3 POP SWAP3 POP POP SWAP3 POP SWAP3 SWAP1 POP JUMP JUMPDEST PUSH2 0x1554 DUP2 PUSH2 0x1466 JUMP JUMPDEST DUP2 EQ PUSH2 0x155E JUMPI PUSH0 PUSH0 REVERT JUMPDEST POP JUMP JUMPDEST PUSH0 DUP2 CALLDATALOAD SWAP1 POP PUSH2 0x156F DUP2 PUSH2 0x154B JUMP JUMPDEST SWAP3 SWAP2 POP POP JUMP JUMPDEST PUSH0 PUSH1 0x20 DUP3 DUP5 SUB SLT ISZERO PUSH2 0x158A JUMPI PUSH2 0x1589 PUSH2 0x111A JUMP JUMPDEST JUMPDEST PUSH0 PUSH2 0x1597 DUP5 DUP3 DUP6 ADD PUSH2 0x1561 JUMP JUMPDEST SWAP2 POP POP SWAP3 SWAP2 POP POP JUMP JUMPDEST PUSH32 0x4E6F6465204944206F7574206F662072616E6765000000000000000000000000 PUSH0 DUP3 ADD MSTORE POP JUMP JUMPDEST PUSH0 PUSH2 0x15D4 PUSH1 0x14 DUP4 PUSH2 0x11F1 JUMP JUMPDEST SWAP2 POP PUSH2 0x15DF DUP3 PUSH2 0x15A0 JUMP JUMPDEST PUSH1 0x20 DUP3 ADD SWAP1 POP SWAP2 SWAP1 POP JUMP JUMPDEST PUSH0 PUSH1 0x20 DUP3 ADD SWAP1 POP DUP2 DUP2 SUB PUSH0 DUP4 ADD MSTORE PUSH2 0x1601 DUP2 PUSH2 0x15C8 JUMP JUMPDEST SWAP1 POP SWAP2 SWAP1 POP JUMP JUMPDEST PUSH32 0x4E487B7100000000000000000000000000000000000000000000000000000000 PUSH0 MSTORE PUSH1 0x32 PUSH1 0x4 MSTORE PUSH1 0x24 PUSH0 REVERT JUMPDEST PUSH32 0x4E487B7100000000000000000000000000000000000000000000000000000000 PUSH0 MSTORE PUSH1 0x11 PUSH1 0x4 MSTORE PUSH1 0x24 PUSH0 REVERT JUMPDEST PUSH0 PUSH2 0x166C DUP3 PUSH2 0x1122 JUMP JUMPDEST SWAP2 POP PUSH2 0x1677 DUP4 PUSH2 0x1122 JUMP JUMPDEST SWAP3 POP DUP3 DUP3 SUB SWAP1 POP DUP2 DUP2 GT ISZERO PUSH2 0x168F JUMPI PUSH2 0x168E PUSH2 0x1635 JUMP JUMPDEST JUMPDEST SWAP3 SWAP2 POP POP JUMP JUMPDEST PUSH32 0x4E487B7100000000000000000000000000000000000000000000000000000000 PUSH0 MSTORE PUSH1 0x31 PUSH1 0x4 MSTORE PUSH1 0x24 PUSH0 REVERT JUMPDEST PUSH32 0x45646765206E6F7420666F756E64000000000000000000000000000000000000 PUSH0 DUP3 ADD MSTORE POP JUMP JUMPDEST PUSH0 PUSH2 0x16F6 PUSH1 0xE DUP4 PUSH2 0x11F1 JUMP JUMPDEST SWAP2 POP PUSH2 0x1701 DUP3 PUSH2 0x16C2 JUMP JUMPDEST PUSH1 0x20 DUP3 ADD SWAP1 POP SWAP2 SWAP1 POP JUMP JUMPDEST PUSH0 PUSH1 0x20 DUP3 ADD SWAP1 POP DUP2 DUP2 SUB PUSH0 DUP4 ADD MSTORE PUSH2 0x1723 DUP2 PUSH2 0x16EA JUMP JUMPDEST SWAP1 POP SWAP2 SWAP1 POP JUMP JUMPDEST PUSH32 0x4E487B7100000000000000000000000000000000000000000000000000000000 PUSH0 MSTORE PUSH1 0x22 PUSH1 0x4 MSTORE PUSH1 0x24 PUSH0 REVERT JUMPDEST PUSH0 PUSH1 0x2 DUP3 DIV SWAP1 POP PUSH1 0x1 DUP3 AND DUP1 PUSH2 0x176E JUMPI PUSH1 0x7F DUP3 AND SWAP2 POP JUMPDEST PUSH1 0x20 DUP3 LT DUP2 SUB PUSH2 0x1781 JUMPI PUSH2 0x1780 PUSH2 0x172A JUMP JUMPDEST JUMPDEST POP SWAP2 SWAP1 POP JUMP JUMPDEST PUSH32 0x4F6E65206F7220626F7468206E6F64657320696E616374697665000000000000 PUSH0 DUP3 ADD MSTORE POP JUMP JUMPDEST PUSH0 PUSH2 0x17BB PUSH1 0x1A DUP4 PUSH2 0x11F1 JUMP JUMPDEST SWAP2 POP PUSH2 0x17C6 DUP3 PUSH2 0x1787 JUMP JUMPDEST PUSH1 0x20 DUP3 ADD SWAP1 POP SWAP2 SWAP1 POP JUMP JUMPDEST PUSH0 PUSH1 0x20 DUP3 ADD SWAP1 POP DUP2 DUP2 SUB PUSH0 DUP4 ADD MSTORE PUSH2 0x17E8 DUP2 PUSH2 0x17AF JUMP JUMPDEST SWAP1 POP SWAP2 SWAP1 POP JUMP JUMPDEST PUSH32 0x4E6F2073656C662D6C6F6F7020616C6C6F776564000000000000000000000000 PUSH0 DUP3 ADD MSTORE POP JUMP JUMPDEST PUSH0 PUSH2 0x1823 PUSH1 0x14 DUP4 PUSH2 0x11F1 JUMP JUMPDEST SWAP2 POP PUSH2 0x182E DUP3 PUSH2 0x17EF JUMP JUMPDEST PUSH1 0x20 DUP3 ADD SWAP1 POP SWAP2 SWAP1 POP JUMP JUMPDEST PUSH0 PUSH1 0x20 DUP3 ADD SWAP1 POP DUP2 DUP2 SUB PUSH0 DUP4 ADD MSTORE PUSH2 0x1850 DUP2 PUSH2 0x1817 JUMP JUMPDEST SWAP1 POP SWAP2 SWAP1 POP JUMP JUMPDEST PUSH32 0x4564676520616C72656164792065786973747300000000000000000000000000 PUSH0 DUP3 ADD MSTORE POP JUMP JUMPDEST PUSH0 PUSH2 0x188B PUSH1 0x13 DUP4 PUSH2 0x11F1 JUMP JUMPDEST SWAP2 POP PUSH2 0x1896 DUP3 PUSH2 0x1857 JUMP JUMPDEST PUSH1 0x20 DUP3 ADD SWAP1 POP SWAP2 SWAP1 POP JUMP JUMPDEST PUSH0 PUSH1 0x20 DUP3 ADD SWAP1 POP DUP2 DUP2 SUB PUSH0 DUP4 ADD MSTORE PUSH2 0x18B8 DUP2 PUSH2 0x187F JUMP JUMPDEST SWAP1 POP SWAP2 SWAP1 POP JUMP JUMPDEST PUSH32 0x4564676520637265617465732061206379636C65000000000000000000000000 PUSH0 DUP3 ADD MSTORE POP JUMP JUMPDEST PUSH0 PUSH2 0x18F3 PUSH1 0x14 DUP4 PUSH2 0x11F1 JUMP JUMPDEST SWAP2 POP PUSH2 0x18FE DUP3 PUSH2 0x18BF JUMP JUMPDEST PUSH1 0x20 DUP3 ADD SWAP1 POP SWAP2 SWAP1 POP JUMP JUMPDEST PUSH0 PUSH1 0x20 DUP3 ADD SWAP1 POP DUP2 DUP2 SUB PUSH0 DUP4 ADD MSTORE PUSH2 0x1920 DUP2 PUSH2 0x18E7 JUMP JUMPDEST SWAP1 POP SWAP2 SWAP1 POP JUMP JUMPDEST PUSH0 PUSH2 0x1931 DUP3 PUSH2 0x1122 JUMP JUMPDEST SWAP2 POP PUSH32 0xFFFFFFFFFFFFFFFFFFFFFFFFFFFFFFFFFFFFFFFFFFFFFFFFFFFFFFFFFFFFFFFF DUP3 SUB PUSH2 0x1963 JUMPI PUSH2 0x1962 PUSH2 0x1635 JUMP JUMPDEST JUMPDEST PUSH1 0x1 DUP3 ADD SWAP1 POP SWAP2 SWAP1 POP JUMP JUMPDEST PUSH32 0x4E487B7100000000000000000000000000000000000000000000000000000000 PUSH0 MSTORE PUSH1 0x41 PUSH1 0x4 MSTORE PUSH1 0x24 PUSH0 REVERT JUMPDEST PUSH0 DUP2 SWAP1 POP DUP2 PUSH0 MSTORE PUSH1 0x20 PUSH0 KECCAK256 SWAP1 POP SWAP2 SWAP1 POP JUMP JUMPDEST PUSH0 PUSH1 0x20 PUSH1 0x1F DUP4 ADD DIV SWAP1 POP SWAP2 SWAP1 POP JUMP JUMPDEST PUSH0 DUP3 DUP3 SHL SWAP1 POP SWAP3 SWAP2 POP POP JUMP JUMPDEST PUSH0 PUSH1 0x8 DUP4 MUL PUSH2 0x19F7 PUSH32 0xFFFFFFFFFFFFFFFFFFFFFFFFFFFFFFFFFFFFFFFFFFFFFFFFFFFFFFFFFFFFFFFF DUP3 PUSH2 0x19BC JUMP JUMPDEST PUSH2 0x1A01 DUP7 DUP4 PUSH2 0x19BC JUMP JUMPDEST SWAP6 POP DUP1 NOT DUP5 AND SWAP4 POP DUP1 DUP7 AND DUP5 OR SWAP3 POP POP POP SWAP4 SWAP3 POP POP POP JUMP JUMPDEST PUSH0 DUP2 SWAP1 POP SWAP2 SWAP1 POP JUMP JUMPDEST PUSH0 PUSH2 0x1A3C PUSH2 0x1A37 PUSH2 0x1A32 DUP5 PUSH2 0x1122 JUMP JUMPDEST PUSH2 0x1A19 JUMP JUMPDEST PUSH2 0x1122 JUMP JUMPDEST SWAP1 POP SWAP2 SWAP1 POP JUMP JUMPDEST PUSH0 DUP2 SWAP1 POP SWAP2 SWAP1 POP JUMP JUMPDEST PUSH2 0x1A55 DUP4 PUSH2 0x1A22 JUMP JUMPDEST PUSH2 0x1A69 PUSH2 0x1A61 DUP3 PUSH2 0x1A43 JUMP JUMPDEST DUP5 DUP5 SLOAD PUSH2 0x19C8 JUMP JUMPDEST DUP3 SSTORE POP POP POP POP JUMP JUMPDEST PUSH0 PUSH0 SWAP1 POP SWAP1 JUMP JUMPDEST PUSH2 0x1A80 PUSH2 0x1A71 JUMP JUMPDEST PUSH2 0x1A8B DUP2 DUP5 DUP5 PUSH2 0x1A4C JUMP JUMPDEST POP POP POP JUMP JUMPDEST JUMPDEST DUP2 DUP2 LT ISZERO PUSH2 0x1AAE JUMPI PUSH2 0x1AA3 PUSH0 DUP3 PUSH2 0x1A78 JUMP JUMPDEST PUSH1 0x1 DUP2 ADD SWAP1 POP PUSH2 0x1A91 JUMP JUMPDEST POP POP JUMP JUMPDEST PUSH1 0x1F DUP3 GT ISZERO PUSH2 0x1AF3 JUMPI PUSH2 0x1AC4 DUP2 PUSH2 0x199B JUMP JUMPDEST PUSH2 0x1ACD DUP5 PUSH2 0x19AD JUMP JUMPDEST DUP2 ADD PUSH1 0x20 DUP6 LT ISZERO PUSH2 0x1ADC JUMPI DUP2 SWAP1 POP JUMPDEST PUSH2 0x1AF0 PUSH2 0x1AE8 DUP6 PUSH2 0x19AD JUMP JUMPDEST DUP4 ADD DUP3 PUSH2 0x1A90 JUMP JUMPDEST POP POP JUMPDEST POP POP POP JUMP JUMPDEST PUSH0 DUP3 DUP3 SHR SWAP1 POP SWAP3 SWAP2 POP POP JUMP JUMPDEST PUSH0 PUSH2 0x1B13 PUSH0 NOT DUP5 PUSH1 0x8 MUL PUSH2 0x1AF8 JUMP JUMPDEST NOT DUP1 DUP4 AND SWAP2 POP POP SWAP3 SWAP2 POP POP JUMP JUMPDEST PUSH0 PUSH2 0x1B2B DUP4 DUP4 PUSH2 0x1B04 JUMP JUMPDEST SWAP2 POP DUP3 PUSH1 0x2 MUL DUP3 OR SWAP1 POP SWAP3 SWAP2 POP POP JUMP JUMPDEST PUSH2 0x1B44 DUP3 PUSH2 0x11E7 JUMP JUMPDEST PUSH8 0xFFFFFFFFFFFFFFFF DUP2 GT ISZERO PUSH2 0x1B5D JUMPI PUSH2 0x1B5C PUSH2 0x196E JUMP JUMPDEST JUMPDEST PUSH2 0x1B67 DUP3 SLOAD PUSH2 0x1757 JUMP JUMPDEST PUSH2 0x1B72 DUP3 DUP3 DUP6 PUSH2 0x1AB2 JUMP JUMPDEST PUSH0 PUSH1 0x20 SWAP1 POP PUSH1 0x1F DUP4 GT PUSH1 0x1 DUP2 EQ PUSH2 0x1BA3 JUMPI PUSH0 DUP5 ISZERO PUSH2 0x1B91 JUMPI DUP3 DUP8 ADD MLOAD SWAP1 POP JUMPDEST PUSH2 0x1B9B DUP6 DUP3 PUSH2 0x1B20 JUMP JUMPDEST DUP7 SSTORE POP PUSH2 0x1C02 JUMP JUMPDEST PUSH1 0x1F NOT DUP5 AND PUSH2 0x1BB1 DUP7 PUSH2 0x199B JUMP JUMPDEST PUSH0 JUMPDEST DUP3 DUP2 LT ISZERO PUSH2 0x1BD8 JUMPI DUP5 DUP10 ADD MLOAD DUP3 SSTORE PUSH1 0x1 DUP3 ADD SWAP2 POP PUSH1 0x20 DUP6 ADD SWAP5 POP PUSH1 0x20 DUP2 ADD SWAP1 POP PUSH2 0x1BB3 JUMP JUMPDEST DUP7 DUP4 LT ISZERO PUSH2 0x1BF5 JUMPI DUP5 DUP10 ADD MLOAD PUSH2 0x1BF1 PUSH1 0x1F DUP10 AND DUP3 PUSH2 0x1B04 JUMP JUMPDEST DUP4 SSTORE POP JUMPDEST PUSH1 0x1 PUSH1 0x2 DUP9 MUL ADD DUP9 SSTORE POP POP POP JUMPDEST POP POP POP POP POP POP JUMP JUMPDEST DUP3 DUP2 DUP4 CALLDATACOPY PUSH0 DUP4 DUP4 ADD MSTORE POP POP POP JUMP JUMPDEST PUSH0 PUSH2 0x1C23 DUP4 DUP6 PUSH2 0x11F1 JUMP JUMPDEST SWAP4 POP PUSH2 0x1C30 DUP4 DUP6 DUP5 PUSH2 0x1C0A JUMP JUMPDEST PUSH2 0x1C39 DUP4 PUSH2 0x120F JUMP JUMPDEST DUP5 ADD SWAP1 POP SWAP4 SWAP3 POP POP POP JUMP JUMPDEST PUSH0 PUSH1 0x20 DUP3 ADD SWAP1 POP DUP2 DUP2 SUB PUSH0 DUP4 ADD MSTORE PUSH2 0x1C5D DUP2 DUP5 DUP7 PUSH2 0x1C18 JUMP JUMPDEST SWAP1 POP SWAP4 SWAP3 POP POP POP JUMP JUMPDEST PUSH32 0x4E6F646520616C726561647920696E6163746976650000000000000000000000 PUSH0 DUP3 ADD MSTORE POP JUMP JUMPDEST PUSH0 PUSH2 0x1C9A PUSH1 0x15 DUP4 PUSH2 0x11F1 JUMP JUMPDEST SWAP2 POP PUSH2 0x1CA5 DUP3 PUSH2 0x1C66 JUMP JUMPDEST PUSH1 0x20 DUP3 ADD SWAP1 POP SWAP2 SWAP1 POP JUMP JUMPDEST PUSH0 PUSH1 0x20 DUP3 ADD SWAP1 POP DUP2 DUP2 SUB PUSH0 DUP4 ADD MSTORE PUSH2 0x1CC7 DUP2 PUSH2 0x1C8E JUMP JUMPDEST SWAP1 POP SWAP2 SWAP1 POP JUMP JUMPDEST PUSH32 0x5265656E7472616E637947756172643A207265656E7472616E742063616C6C00 PUSH0 DUP3 ADD MSTORE POP JUMP JUMPDEST PUSH0 PUSH2 0x1D02 PUSH1 0x1F DUP4 PUSH2 0x11F1 JUMP JUMPDEST SWAP2 POP PUSH2 0x1D0D DUP3 PUSH2 0x1CCE JUMP JUMPDEST PUSH1 0x20 DUP3 ADD SWAP1 POP SWAP2 SWAP1 POP JUMP JUMPDEST PUSH0 PUSH1 0x20 DUP3 ADD SWAP1 POP DUP2 DUP2 SUB PUSH0 DUP4 ADD MSTORE PUSH2 0x1D2F DUP2 PUSH2 0x1CF6 JUMP JUMPDEST SWAP1 POP SWAP2 SWAP1 POP JUMP JUMPDEST PUSH0 PUSH2 0x1D40 DUP3 PUSH2 0x1122 JUMP JUMPDEST SWAP2 POP PUSH0 DUP3 SUB PUSH2 0x1D52 JUMPI PUSH2 0x1D51 PUSH2 0x1635 JUMP JUMPDEST JUMPDEST PUSH1 0x1 DUP3 SUB SWAP1 POP SWAP2 SWAP1 POP JUMP INVALID LOG2 PUSH5 0x6970667358 0x22 SLT KECCAK256 CALLDATACOPY 0xD3 0xDF 0x2F 0xB4 SWAP6 GAS CODESIZE 0xA6 CREATE2 0xDF 0xCB RJUMPI 0x2999 0xB3 0xF MSTORE8 0xCD RJUMP 0xF789 0xC3 MSTORE8 PUSH13 0x327C50D2E68CD164736F6C6343 STOP ADDMOD SAR STOP CALLER "
		},
		"gasEstimates": {
			"creation": {
				"codeDepositCost": "1514200",
				"executionCost": "infinite",
				"totalCost": "infinite"
			},
			"external": {
				"addEdge(uint256,uint256)": "infinite",
				"adjacency(uint256,uint256)": "infinite",
				"createNode(string)": "infinite",
				"getChildren(uint256)": "infinite",
				"getNode(uint256)": "infinite",
				"nextNodeId()": "2470",
				"nodes(uint256)": "infinite",
				"owner()": "2559",
				"removeEdge(uint256,uint256)": "infinite",
				"removeNode(uint256)": "infinite",
				"renounceOwnership()": "infinite",
				"totalNodes()": "2462",
				"transferOwnership(address)": "infinite"
			},
			"internal": {
				"_createsCycle(uint256,uint256)": "infinite"
			}
		},
		"methodIdentifiers": {
			"addEdge(uint256,uint256)": "44c8c954",
			"adjacency(uint256,uint256)": "8f376e8a",
			"createNode(string)": "b5e157f1",
			"getChildren(uint256)": "49ae8dc3",
			"getNode(uint256)": "4f0f4aa9",
			"nextNodeId()": "20eca391",
			"nodes(uint256)": "1c53c280",
			"owner()": "8da5cb5b",
			"removeEdge(uint256,uint256)": "17ea12eb",
			"removeNode(uint256)": "ffd740df",
			"renounceOwnership()": "715018a6",
			"totalNodes()": "9592d424",
			"transferOwnership(address)": "f2fde38b"
		}
	},
	"abi": [
		{
			"inputs": [],
			"stateMutability": "nonpayable",
			"type": "constructor"
		},
		{
			"inputs": [
				{
					"internalType": "address",
					"name": "owner",
					"type": "address"
				}
			],
			"name": "OwnableInvalidOwner",
			"type": "error"
		},
		{
			"inputs": [
				{
					"internalType": "address",
					"name": "account",
					"type": "address"
				}
			],
			"name": "OwnableUnauthorizedAccount",
			"type": "error"
		},
		{
			"anonymous": false,
			"inputs": [
				{
					"indexed": true,
					"internalType": "uint256",
					"name": "from",
					"type": "uint256"
				},
				{
					"indexed": true,
					"internalType": "uint256",
					"name": "to",
					"type": "uint256"
				}
			],
			"name": "EdgeAdded",
			"type": "event"
		},
		{
			"anonymous": false,
			"inputs": [
				{
					"indexed": true,
					"internalType": "uint256",
					"name": "from",
					"type": "uint256"
				},
				{
					"indexed": true,
					"internalType": "uint256",
					"name": "to",
					"type": "uint256"
				}
			],
			"name": "EdgeRemoved",
			"type": "event"
		},
		{
			"anonymous": false,
			"inputs": [
				{
					"indexed": true,
					"internalType": "uint256",
					"name": "nodeId",
					"type": "uint256"
				},
				{
					"indexed": false,
					"internalType": "string",
					"name": "metadata",
					"type": "string"
				}
			],
			"name": "NodeCreated",
			"type": "event"
		},
		{
			"anonymous": false,
			"inputs": [
				{
					"indexed": true,
					"internalType": "uint256",
					"name": "nodeId",
					"type": "uint256"
				}
			],
			"name": "NodeRemoved",
			"type": "event"
		},
		{
			"anonymous": false,
			"inputs": [
				{
					"indexed": true,
					"internalType": "address",
					"name": "previousOwner",
					"type": "address"
				},
				{
					"indexed": true,
					"internalType": "address",
					"name": "newOwner",
					"type": "address"
				}
			],
			"name": "OwnershipTransferred",
			"type": "event"
		},
		{
			"inputs": [
				{
					"internalType": "uint256",
					"name": "from",
					"type": "uint256"
				},
				{
					"internalType": "uint256",
					"name": "to",
					"type": "uint256"
				}
			],
			"name": "addEdge",
			"outputs": [],
			"stateMutability": "nonpayable",
			"type": "function"
		},
		{
			"inputs": [
				{
					"internalType": "uint256",
					"name": "",
					"type": "uint256"
				},
				{
					"internalType": "uint256",
					"name": "",
					"type": "uint256"
				}
			],
			"name": "adjacency",
			"outputs": [
				{
					"internalType": "uint256",
					"name": "",
					"type": "uint256"
				}
			],
			"stateMutability": "view",
			"type": "function"
		},
		{
			"inputs": [
				{
					"internalType": "string",
					"name": "metadata",
					"type": "string"
				}
			],
			"name": "createNode",
			"outputs": [
				{
					"internalType": "uint256",
					"name": "nodeId",
					"type": "uint256"
				}
			],
			"stateMutability": "nonpayable",
			"type": "function"
		},
		{
			"inputs": [
				{
					"internalType": "uint256",
					"name": "nodeId",
					"type": "uint256"
				}
			],
			"name": "getChildren",
			"outputs": [
				{
					"internalType": "uint256[]",
					"name": "",
					"type": "uint256[]"
				}
			],
			"stateMutability": "view",
			"type": "function"
		},
		{
			"inputs": [
				{
					"internalType": "uint256",
					"name": "nodeId",
					"type": "uint256"
				}
			],
			"name": "getNode",
			"outputs": [
				{
					"components": [
						{
							"internalType": "uint256",
							"name": "id",
							"type": "uint256"
						},
						{
							"internalType": "bool",
							"name": "active",
							"type": "bool"
						},
						{
							"internalType": "string",
							"name": "metadata",
							"type": "string"
						}
					],
					"internalType": "struct DirectedAcyclicGraph.Node",
					"name": "",
					"type": "tuple"
				}
			],
			"stateMutability": "view",
			"type": "function"
		},
		{
			"inputs": [],
			"name": "nextNodeId",
			"outputs": [
				{
					"internalType": "uint256",
					"name": "",
					"type": "uint256"
				}
			],
			"stateMutability": "view",
			"type": "function"
		},
		{
			"inputs": [
				{
					"internalType": "uint256",
					"name": "",
					"type": "uint256"
				}
			],
			"name": "nodes",
			"outputs": [
				{
					"internalType": "uint256",
					"name": "id",
					"type": "uint256"
				},
				{
					"internalType": "bool",
					"name": "active",
					"type": "bool"
				},
				{
					"internalType": "string",
					"name": "metadata",
					"type": "string"
				}
			],
			"stateMutability": "view",
			"type": "function"
		},
		{
			"inputs": [],
			"name": "owner",
			"outputs": [
				{
					"internalType": "address",
					"name": "",
					"type": "address"
				}
			],
			"stateMutability": "view",
			"type": "function"
		},
		{
			"inputs": [
				{
					"internalType": "uint256",
					"name": "from",
					"type": "uint256"
				},
				{
					"internalType": "uint256",
					"name": "to",
					"type": "uint256"
				}
			],
			"name": "removeEdge",
			"outputs": [],
			"stateMutability": "nonpayable",
			"type": "function"
		},
		{
			"inputs": [
				{
					"internalType": "uint256",
					"name": "nodeId",
					"type": "uint256"
				}
			],
			"name": "removeNode",
			"outputs": [],
			"stateMutability": "nonpayable",
			"type": "function"
		},
		{
			"inputs": [],
			"name": "renounceOwnership",
			"outputs": [],
			"stateMutability": "nonpayable",
			"type": "function"
		},
		{
			"inputs": [],
			"name": "totalNodes",
			"outputs": [
				{
					"internalType": "uint256",
					"name": "",
					"type": "uint256"
				}
			],
			"stateMutability": "view",
			"type": "function"
		},
		{
			"inputs": [
				{
					"internalType": "address",
					"name": "newOwner",
					"type": "address"
				}
			],
			"name": "transferOwnership",
			"outputs": [],
			"stateMutability": "nonpayable",
			"type": "function"
		}
	]
}