{
	"data": {
		"bytecode": {
			"linkReferences": {},
			"object": "608060405234801561000f575f5ffd5b506040516111b63803806111b68339818101604052810190610031919061028c565b335f73ffffffffffffffffffffffffffffffffffffffff168173ffffffffffffffffffffffffffffffffffffffff16036100a2575f6040517f1e4fbdf700000000000000000000000000000000000000000000000000000000815260040161009991906102c6565b60405180910390fd5b6100b18161016d60201b60201c565b50600180819055505f73ffffffffffffffffffffffffffffffffffffffff168173ffffffffffffffffffffffffffffffffffffffff1603610127576040517f08c379a000000000000000000000000000000000000000000000000000000000815260040161011e90610339565b60405180910390fd5b8060025f6101000a81548173ffffffffffffffffffffffffffffffffffffffff021916908373ffffffffffffffffffffffffffffffffffffffff16021790555050610357565b5f5f5f9054906101000a900473ffffffffffffffffffffffffffffffffffffffff169050815f5f6101000a81548173ffffffffffffffffffffffffffffffffffffffff021916908373ffffffffffffffffffffffffffffffffffffffff1602179055508173ffffffffffffffffffffffffffffffffffffffff168173ffffffffffffffffffffffffffffffffffffffff167f8be0079c531659141344cd1fd0a4f28419497f9722a3daafe3b4186f6b6457e060405160405180910390a35050565b5f5ffd5b5f73ffffffffffffffffffffffffffffffffffffffff82169050919050565b5f61025b82610232565b9050919050565b61026b81610251565b8114610275575f5ffd5b50565b5f8151905061028681610262565b92915050565b5f602082840312156102a1576102a061022e565b5b5f6102ae84828501610278565b91505092915050565b6102c081610251565b82525050565b5f6020820190506102d95f8301846102b7565b92915050565b5f82825260208201905092915050565b7f496e76616c696420746f6b656e206164647265737300000000000000000000005f82015250565b5f6103236015836102df565b915061032e826102ef565b602082019050919050565b5f6020820190508181035f83015261035081610317565b9050919050565b610e52806103645f395ff3fe608060405234801561000f575f5ffd5b5060043610610086575f3560e01c8063c408689311610059578063c408689314610100578063d24d012414610130578063f2ad5a9b1461014c578063f2fde38b1461016857610086565b80635a445bce1461008a578063715018a6146100a85780638da5cb5b146100b25780639ae697bf146100d0575b5f5ffd5b610092610184565b60405161009f9190610946565b60405180910390f35b6100b06101a9565b005b6100ba6101bc565b6040516100c7919061097f565b60405180910390f35b6100ea60048036038101906100e591906109c6565b6101e3565b6040516100f79190610a09565b60405180910390f35b61011a600480360381019061011591906109c6565b6101f8565b6040516101279190610a09565b60405180910390f35b61014a60048036038101906101459190610a4c565b61023e565b005b61016660048036038101906101619190610a77565b610416565b005b610182600480360381019061017d91906109c6565b6106a1565b005b60025f9054906101000a900473ffffffffffffffffffffffffffffffffffffffff1681565b6101b1610725565b6101ba5f6107ac565b565b5f5f5f9054906101000a900473ffffffffffffffffffffffffffffffffffffffff16905090565b6003602052805f5260405f205f915090505481565b5f60035f8373ffffffffffffffffffffffffffffffffffffffff1673ffffffffffffffffffffffffffffffffffffffff1681526020019081526020015f20549050919050565b61024661086d565b5f8111610288576040517f08c379a000000000000000000000000000000000000000000000000000000000815260040161027f90610b0f565b60405180910390fd5b5f60025f9054906101000a900473ffffffffffffffffffffffffffffffffffffffff1673ffffffffffffffffffffffffffffffffffffffff166323b872dd3330856040518463ffffffff1660e01b81526004016102e793929190610b2d565b6020604051808303815f875af1158015610303573d5f5f3e3d5ffd5b505050506040513d601f19601f820116820180604052508101906103279190610b97565b905080610369576040517f08c379a000000000000000000000000000000000000000000000000000000000815260040161036090610c0c565b60405180910390fd5b8160035f3373ffffffffffffffffffffffffffffffffffffffff1673ffffffffffffffffffffffffffffffffffffffff1681526020019081526020015f205f8282546103b59190610c57565b925050819055503373ffffffffffffffffffffffffffffffffffffffff167fc840f9925a721ed4f550f8b857b817c388e1cbaccaebf75a9f6b9b7ff6a6d615836040516104029190610a09565b60405180910390a2506104136108bc565b50565b61041e610725565b61042661086d565b5f73ffffffffffffffffffffffffffffffffffffffff168273ffffffffffffffffffffffffffffffffffffffff1603610494576040517f08c379a000000000000000000000000000000000000000000000000000000000815260040161048b90610cd4565b60405180910390fd5b8060035f8473ffffffffffffffffffffffffffffffffffffffff1673ffffffffffffffffffffffffffffffffffffffff1681526020019081526020015f20541015610514576040517f08c379a000000000000000000000000000000000000000000000000000000000815260040161050b90610d3c565b60405180910390fd5b8060035f8473ffffffffffffffffffffffffffffffffffffffff1673ffffffffffffffffffffffffffffffffffffffff1681526020019081526020015f205f8282546105609190610d5a565b925050819055505f60025f9054906101000a900473ffffffffffffffffffffffffffffffffffffffff1673ffffffffffffffffffffffffffffffffffffffff1663a9059cbb84846040518363ffffffff1660e01b81526004016105c4929190610d8d565b6020604051808303815f875af11580156105e0573d5f5f3e3d5ffd5b505050506040513d601f19601f820116820180604052508101906106049190610b97565b905080610646576040517f08c379a000000000000000000000000000000000000000000000000000000000815260040161063d90610c0c565b60405180910390fd5b8273ffffffffffffffffffffffffffffffffffffffff167fe1e8517989ab4d4186bc9192e557d01eb3bc8c6c70cf8d004b8c7d9e403352d18360405161068c9190610a09565b60405180910390a25061069d6108bc565b5050565b6106a9610725565b5f73ffffffffffffffffffffffffffffffffffffffff168173ffffffffffffffffffffffffffffffffffffffff1603610719575f6040517f1e4fbdf7000000000000000000000000000000000000000000000000000000008152600401610710919061097f565b60405180910390fd5b610722816107ac565b50565b61072d6108c5565b73ffffffffffffffffffffffffffffffffffffffff1661074b6101bc565b73ffffffffffffffffffffffffffffffffffffffff16146107aa5761076e6108c5565b6040517f118cdaa70000000000000000000000000000000000000000000000000000000081526004016107a1919061097f565b60405180910390fd5b565b5f5f5f9054906101000a900473ffffffffffffffffffffffffffffffffffffffff169050815f5f6101000a81548173ffffffffffffffffffffffffffffffffffffffff021916908373ffffffffffffffffffffffffffffffffffffffff1602179055508173ffffffffffffffffffffffffffffffffffffffff168173ffffffffffffffffffffffffffffffffffffffff167f8be0079c531659141344cd1fd0a4f28419497f9722a3daafe3b4186f6b6457e060405160405180910390a35050565b6002600154036108b2576040517f08c379a00000000000000000000000000000000000000000000000000000000081526004016108a990610dfe565b60405180910390fd5b6002600181905550565b60018081905550565b5f33905090565b5f73ffffffffffffffffffffffffffffffffffffffff82169050919050565b5f819050919050565b5f61090e610909610904846108cc565b6108eb565b6108cc565b9050919050565b5f61091f826108f4565b9050919050565b5f61093082610915565b9050919050565b61094081610926565b82525050565b5f6020820190506109595f830184610937565b92915050565b5f610969826108cc565b9050919050565b6109798161095f565b82525050565b5f6020820190506109925f830184610970565b92915050565b5f5ffd5b6109a58161095f565b81146109af575f5ffd5b50565b5f813590506109c08161099c565b92915050565b5f602082840312156109db576109da610998565b5b5f6109e8848285016109b2565b91505092915050565b5f819050919050565b610a03816109f1565b82525050565b5f602082019050610a1c5f8301846109fa565b92915050565b610a2b816109f1565b8114610a35575f5ffd5b50565b5f81359050610a4681610a22565b92915050565b5f60208284031215610a6157610a60610998565b5b5f610a6e84828501610a38565b91505092915050565b5f5f60408385031215610a8d57610a8c610998565b5b5f610a9a858286016109b2565b9250506020610aab85828601610a38565b9150509250929050565b5f82825260208201905092915050565b7f4465706f73697420616d6f756e74206d757374206265203e20300000000000005f82015250565b5f610af9601a83610ab5565b9150610b0482610ac5565b602082019050919050565b5f6020820190508181035f830152610b2681610aed565b9050919050565b5f606082019050610b405f830186610970565b610b4d6020830185610970565b610b5a60408301846109fa565b949350505050565b5f8115159050919050565b610b7681610b62565b8114610b80575f5ffd5b50565b5f81519050610b9181610b6d565b92915050565b5f60208284031215610bac57610bab610998565b5b5f610bb984828501610b83565b91505092915050565b7f546f6b656e207472616e73666572206661696c656400000000000000000000005f82015250565b5f610bf6601583610ab5565b9150610c0182610bc2565b602082019050919050565b5f6020820190508181035f830152610c2381610bea565b9050919050565b7f4e487b71000000000000000000000000000000000000000000000000000000005f52601160045260245ffd5b5f610c61826109f1565b9150610c6c836109f1565b9250828201905080821115610c8457610c83610c2a565b5b92915050565b7f496e76616c6964207573657220616464726573730000000000000000000000005f82015250565b5f610cbe601483610ab5565b9150610cc982610c8a565b602082019050919050565b5f6020820190508181035f830152610ceb81610cb2565b9050919050565b7f496e73756666696369656e74206c6f636b65642062616c616e636500000000005f82015250565b5f610d26601b83610ab5565b9150610d3182610cf2565b602082019050919050565b5f6020820190508181035f830152610d5381610d1a565b9050919050565b5f610d64826109f1565b9150610d6f836109f1565b9250828203905081811115610d8757610d86610c2a565b5b92915050565b5f604082019050610da05f830185610970565b610dad60208301846109fa565b9392505050565b7f5265656e7472616e637947756172643a207265656e7472616e742063616c6c005f82015250565b5f610de8601f83610ab5565b9150610df382610db4565b602082019050919050565b5f6020820190508181035f830152610e1581610ddc565b905091905056fea26469706673582212209ebf7270553dd1b44d1684d921672991bd8aa0d41ad7bfd6fb7fe2a64bba141264736f6c634300081d0033",
			"opcodes": "PUSH1 0x80 PUSH1 0x40 MSTORE CALLVALUE DUP1 ISZERO PUSH2 0xF JUMPI PUSH0 PUSH0 REVERT JUMPDEST POP PUSH1 0x40 MLOAD PUSH2 0x11B6 CODESIZE SUB DUP1 PUSH2 0x11B6 DUP4 CODECOPY DUP2 DUP2 ADD PUSH1 0x40 MSTORE DUP2 ADD SWAP1 PUSH2 0x31 SWAP2 SWAP1 PUSH2 0x28C JUMP JUMPDEST CALLER PUSH0 PUSH20 0xFFFFFFFFFFFFFFFFFFFFFFFFFFFFFFFFFFFFFFFF AND DUP2 PUSH20 0xFFFFFFFFFFFFFFFFFFFFFFFFFFFFFFFFFFFFFFFF AND SUB PUSH2 0xA2 JUMPI PUSH0 PUSH1 0x40 MLOAD PUSH32 0x1E4FBDF700000000000000000000000000000000000000000000000000000000 DUP2 MSTORE PUSH1 0x4 ADD PUSH2 0x99 SWAP2 SWAP1 PUSH2 0x2C6 JUMP JUMPDEST PUSH1 0x40 MLOAD DUP1 SWAP2 SUB SWAP1 REVERT JUMPDEST PUSH2 0xB1 DUP2 PUSH2 0x16D PUSH1 0x20 SHL PUSH1 0x20 SHR JUMP JUMPDEST POP PUSH1 0x1 DUP1 DUP2 SWAP1 SSTORE POP PUSH0 PUSH20 0xFFFFFFFFFFFFFFFFFFFFFFFFFFFFFFFFFFFFFFFF AND DUP2 PUSH20 0xFFFFFFFFFFFFFFFFFFFFFFFFFFFFFFFFFFFFFFFF AND SUB PUSH2 0x127 JUMPI PUSH1 0x40 MLOAD PUSH32 0x8C379A000000000000000000000000000000000000000000000000000000000 DUP2 MSTORE PUSH1 0x4 ADD PUSH2 0x11E SWAP1 PUSH2 0x339 JUMP JUMPDEST PUSH1 0x40 MLOAD DUP1 SWAP2 SUB SWAP1 REVERT JUMPDEST DUP1 PUSH1 0x2 PUSH0 PUSH2 0x100 EXP DUP2 SLOAD DUP2 PUSH20 0xFFFFFFFFFFFFFFFFFFFFFFFFFFFFFFFFFFFFFFFF MUL NOT AND SWAP1 DUP4 PUSH20 0xFFFFFFFFFFFFFFFFFFFFFFFFFFFFFFFFFFFFFFFF AND MUL OR SWAP1 SSTORE POP POP PUSH2 0x357 JUMP JUMPDEST PUSH0 PUSH0 PUSH0 SWAP1 SLOAD SWAP1 PUSH2 0x100 EXP SWAP1 DIV PUSH20 0xFFFFFFFFFFFFFFFFFFFFFFFFFFFFFFFFFFFFFFFF AND SWAP1 POP DUP2 PUSH0 PUSH0 PUSH2 0x100 EXP DUP2 SLOAD DUP2 PUSH20 0xFFFFFFFFFFFFFFFFFFFFFFFFFFFFFFFFFFFFFFFF MUL NOT AND SWAP1 DUP4 PUSH20 0xFFFFFFFFFFFFFFFFFFFFFFFFFFFFFFFFFFFFFFFF AND MUL OR SWAP1 SSTORE POP DUP2 PUSH20 0xFFFFFFFFFFFFFFFFFFFFFFFFFFFFFFFFFFFFFFFF AND DUP2 PUSH20 0xFFFFFFFFFFFFFFFFFFFFFFFFFFFFFFFFFFFFFFFF AND PUSH32 0x8BE0079C531659141344CD1FD0A4F28419497F9722A3DAAFE3B4186F6B6457E0 PUSH1 0x40 MLOAD PUSH1 0x40 MLOAD DUP1 SWAP2 SUB SWAP1 LOG3 POP POP JUMP JUMPDEST PUSH0 PUSH0 REVERT JUMPDEST PUSH0 PUSH20 0xFFFFFFFFFFFFFFFFFFFFFFFFFFFFFFFFFFFFFFFF DUP3 AND SWAP1 POP SWAP2 SWAP1 POP JUMP JUMPDEST PUSH0 PUSH2 0x25B DUP3 PUSH2 0x232 JUMP JUMPDEST SWAP1 POP SWAP2 SWAP1 POP JUMP JUMPDEST PUSH2 0x26B DUP2 PUSH2 0x251 JUMP JUMPDEST DUP2 EQ PUSH2 0x275 JUMPI PUSH0 PUSH0 REVERT JUMPDEST POP JUMP JUMPDEST PUSH0 DUP2 MLOAD SWAP1 POP PUSH2 0x286 DUP2 PUSH2 0x262 JUMP JUMPDEST SWAP3 SWAP2 POP POP JUMP JUMPDEST PUSH0 PUSH1 0x20 DUP3 DUP5 SUB SLT ISZERO PUSH2 0x2A1 JUMPI PUSH2 0x2A0 PUSH2 0x22E JUMP JUMPDEST JUMPDEST PUSH0 PUSH2 0x2AE DUP5 DUP3 DUP6 ADD PUSH2 0x278 JUMP JUMPDEST SWAP2 POP POP SWAP3 SWAP2 POP POP JUMP JUMPDEST PUSH2 0x2C0 DUP2 PUSH2 0x251 JUMP JUMPDEST DUP3 MSTORE POP POP JUMP JUMPDEST PUSH0 PUSH1 0x20 DUP3 ADD SWAP1 POP PUSH2 0x2D9 PUSH0 DUP4 ADD DUP5 PUSH2 0x2B7 JUMP JUMPDEST SWAP3 SWAP2 POP POP JUMP JUMPDEST PUSH0 DUP3 DUP3 MSTORE PUSH1 0x20 DUP3 ADD SWAP1 POP SWAP3 SWAP2 POP POP JUMP JUMPDEST PUSH32 0x496E76616C696420746F6B656E20616464726573730000000000000000000000 PUSH0 DUP3 ADD MSTORE POP JUMP JUMPDEST PUSH0 PUSH2 0x323 PUSH1 0x15 DUP4 PUSH2 0x2DF JUMP JUMPDEST SWAP2 POP PUSH2 0x32E DUP3 PUSH2 0x2EF JUMP JUMPDEST PUSH1 0x20 DUP3 ADD SWAP1 POP SWAP2 SWAP1 POP JUMP JUMPDEST PUSH0 PUSH1 0x20 DUP3 ADD SWAP1 POP DUP2 DUP2 SUB PUSH0 DUP4 ADD MSTORE PUSH2 0x350 DUP2 PUSH2 0x317 JUMP JUMPDEST SWAP1 POP SWAP2 SWAP1 POP JUMP JUMPDEST PUSH2 0xE52 DUP1 PUSH2 0x364 PUSH0 CODECOPY PUSH0 RETURN INVALID PUSH1 0x80 PUSH1 0x40 MSTORE CALLVALUE DUP1 ISZERO PUSH2 0xF JUMPI PUSH0 PUSH0 REVERT JUMPDEST POP PUSH1 0x4 CALLDATASIZE LT PUSH2 0x86 JUMPI PUSH0 CALLDATALOAD PUSH1 0xE0 SHR DUP1 PUSH4 0xC4086893 GT PUSH2 0x59 JUMPI DUP1 PUSH4 0xC4086893 EQ PUSH2 0x100 JUMPI DUP1 PUSH4 0xD24D0124 EQ PUSH2 0x130 JUMPI DUP1 PUSH4 0xF2AD5A9B EQ PUSH2 0x14C JUMPI DUP1 PUSH4 0xF2FDE38B EQ PUSH2 0x168 JUMPI PUSH2 0x86 JUMP JUMPDEST DUP1 PUSH4 0x5A445BCE EQ PUSH2 0x8A JUMPI DUP1 PUSH4 0x715018A6 EQ PUSH2 0xA8 JUMPI DUP1 PUSH4 0x8DA5CB5B EQ PUSH2 0xB2 JUMPI DUP1 PUSH4 0x9AE697BF EQ PUSH2 0xD0 JUMPI JUMPDEST PUSH0 PUSH0 REVERT JUMPDEST PUSH2 0x92 PUSH2 0x184 JUMP JUMPDEST PUSH1 0x40 MLOAD PUSH2 0x9F SWAP2 SWAP1 PUSH2 0x946 JUMP JUMPDEST PUSH1 0x40 MLOAD DUP1 SWAP2 SUB SWAP1 RETURN JUMPDEST PUSH2 0xB0 PUSH2 0x1A9 JUMP JUMPDEST STOP JUMPDEST PUSH2 0xBA PUSH2 0x1BC JUMP JUMPDEST PUSH1 0x40 MLOAD PUSH2 0xC7 SWAP2 SWAP1 PUSH2 0x97F JUMP JUMPDEST PUSH1 0x40 MLOAD DUP1 SWAP2 SUB SWAP1 RETURN JUMPDEST PUSH2 0xEA PUSH1 0x4 DUP1 CALLDATASIZE SUB DUP2 ADD SWAP1 PUSH2 0xE5 SWAP2 SWAP1 PUSH2 0x9C6 JUMP JUMPDEST PUSH2 0x1E3 JUMP JUMPDEST PUSH1 0x40 MLOAD PUSH2 0xF7 SWAP2 SWAP1 PUSH2 0xA09 JUMP JUMPDEST PUSH1 0x40 MLOAD DUP1 SWAP2 SUB SWAP1 RETURN JUMPDEST PUSH2 0x11A PUSH1 0x4 DUP1 CALLDATASIZE SUB DUP2 ADD SWAP1 PUSH2 0x115 SWAP2 SWAP1 PUSH2 0x9C6 JUMP JUMPDEST PUSH2 0x1F8 JUMP JUMPDEST PUSH1 0x40 MLOAD PUSH2 0x127 SWAP2 SWAP1 PUSH2 0xA09 JUMP JUMPDEST PUSH1 0x40 MLOAD DUP1 SWAP2 SUB SWAP1 RETURN JUMPDEST PUSH2 0x14A PUSH1 0x4 DUP1 CALLDATASIZE SUB DUP2 ADD SWAP1 PUSH2 0x145 SWAP2 SWAP1 PUSH2 0xA4C JUMP JUMPDEST PUSH2 0x23E JUMP JUMPDEST STOP JUMPDEST PUSH2 0x166 PUSH1 0x4 DUP1 CALLDATASIZE SUB DUP2 ADD SWAP1 PUSH2 0x161 SWAP2 SWAP1 PUSH2 0xA77 JUMP JUMPDEST PUSH2 0x416 JUMP JUMPDEST STOP JUMPDEST PUSH2 0x182 PUSH1 0x4 DUP1 CALLDATASIZE SUB DUP2 ADD SWAP1 PUSH2 0x17D SWAP2 SWAP1 PUSH2 0x9C6 JUMP JUMPDEST PUSH2 0x6A1 JUMP JUMPDEST STOP JUMPDEST PUSH1 0x2 PUSH0 SWAP1 SLOAD SWAP1 PUSH2 0x100 EXP SWAP1 DIV PUSH20 0xFFFFFFFFFFFFFFFFFFFFFFFFFFFFFFFFFFFFFFFF AND DUP2 JUMP JUMPDEST PUSH2 0x1B1 PUSH2 0x725 JUMP JUMPDEST PUSH2 0x1BA PUSH0 PUSH2 0x7AC JUMP JUMPDEST JUMP JUMPDEST PUSH0 PUSH0 PUSH0 SWAP1 SLOAD SWAP1 PUSH2 0x100 EXP SWAP1 DIV PUSH20 0xFFFFFFFFFFFFFFFFFFFFFFFFFFFFFFFFFFFFFFFF AND SWAP1 POP SWAP1 JUMP JUMPDEST PUSH1 0x3 PUSH1 0x20 MSTORE DUP1 PUSH0 MSTORE PUSH1 0x40 PUSH0 KECCAK256 PUSH0 SWAP2 POP SWAP1 POP SLOAD DUP2 JUMP JUMPDEST PUSH0 PUSH1 0x3 PUSH0 DUP4 PUSH20 0xFFFFFFFFFFFFFFFFFFFFFFFFFFFFFFFFFFFFFFFF AND PUSH20 0xFFFFFFFFFFFFFFFFFFFFFFFFFFFFFFFFFFFFFFFF AND DUP2 MSTORE PUSH1 0x20 ADD SWAP1 DUP2 MSTORE PUSH1 0x20 ADD PUSH0 KECCAK256 SLOAD SWAP1 POP SWAP2 SWAP1 POP JUMP JUMPDEST PUSH2 0x246 PUSH2 0x86D JUMP JUMPDEST PUSH0 DUP2 GT PUSH2 0x288 JUMPI PUSH1 0x40 MLOAD PUSH32 0x8C379A000000000000000000000000000000000000000000000000000000000 DUP2 MSTORE PUSH1 0x4 ADD PUSH2 0x27F SWAP1 PUSH2 0xB0F JUMP JUMPDEST PUSH1 0x40 MLOAD DUP1 SWAP2 SUB SWAP1 REVERT JUMPDEST PUSH0 PUSH1 0x2 PUSH0 SWAP1 SLOAD SWAP1 PUSH2 0x100 EXP SWAP1 DIV PUSH20 0xFFFFFFFFFFFFFFFFFFFFFFFFFFFFFFFFFFFFFFFF AND PUSH20 0xFFFFFFFFFFFFFFFFFFFFFFFFFFFFFFFFFFFFFFFF AND PUSH4 0x23B872DD CALLER ADDRESS DUP6 PUSH1 0x40 MLOAD DUP5 PUSH4 0xFFFFFFFF AND PUSH1 0xE0 SHL DUP2 MSTORE PUSH1 0x4 ADD PUSH2 0x2E7 SWAP4 SWAP3 SWAP2 SWAP1 PUSH2 0xB2D JUMP JUMPDEST PUSH1 0x20 PUSH1 0x40 MLOAD DUP1 DUP4 SUB DUP2 PUSH0 DUP8 GAS CALL ISZERO DUP1 ISZERO PUSH2 0x303 JUMPI RETURNDATASIZE PUSH0 PUSH0 RETURNDATACOPY RETURNDATASIZE PUSH0 REVERT JUMPDEST POP POP POP POP PUSH1 0x40 MLOAD RETURNDATASIZE PUSH1 0x1F NOT PUSH1 0x1F DUP3 ADD AND DUP3 ADD DUP1 PUSH1 0x40 MSTORE POP DUP2 ADD SWAP1 PUSH2 0x327 SWAP2 SWAP1 PUSH2 0xB97 JUMP JUMPDEST SWAP1 POP DUP1 PUSH2 0x369 JUMPI PUSH1 0x40 MLOAD PUSH32 0x8C379A000000000000000000000000000000000000000000000000000000000 DUP2 MSTORE PUSH1 0x4 ADD PUSH2 0x360 SWAP1 PUSH2 0xC0C JUMP JUMPDEST PUSH1 0x40 MLOAD DUP1 SWAP2 SUB SWAP1 REVERT JUMPDEST DUP2 PUSH1 0x3 PUSH0 CALLER PUSH20 0xFFFFFFFFFFFFFFFFFFFFFFFFFFFFFFFFFFFFFFFF AND PUSH20 0xFFFFFFFFFFFFFFFFFFFFFFFFFFFFFFFFFFFFFFFF AND DUP2 MSTORE PUSH1 0x20 ADD SWAP1 DUP2 MSTORE PUSH1 0x20 ADD PUSH0 KECCAK256 PUSH0 DUP3 DUP3 SLOAD PUSH2 0x3B5 SWAP2 SWAP1 PUSH2 0xC57 JUMP JUMPDEST SWAP3 POP POP DUP2 SWAP1 SSTORE POP CALLER PUSH20 0xFFFFFFFFFFFFFFFFFFFFFFFFFFFFFFFFFFFFFFFF AND PUSH32 0xC840F9925A721ED4F550F8B857B817C388E1CBACCAEBF75A9F6B9B7FF6A6D615 DUP4 PUSH1 0x40 MLOAD PUSH2 0x402 SWAP2 SWAP1 PUSH2 0xA09 JUMP JUMPDEST PUSH1 0x40 MLOAD DUP1 SWAP2 SUB SWAP1 LOG2 POP PUSH2 0x413 PUSH2 0x8BC JUMP JUMPDEST POP JUMP JUMPDEST PUSH2 0x41E PUSH2 0x725 JUMP JUMPDEST PUSH2 0x426 PUSH2 0x86D JUMP JUMPDEST PUSH0 PUSH20 0xFFFFFFFFFFFFFFFFFFFFFFFFFFFFFFFFFFFFFFFF AND DUP3 PUSH20 0xFFFFFFFFFFFFFFFFFFFFFFFFFFFFFFFFFFFFFFFF AND SUB PUSH2 0x494 JUMPI PUSH1 0x40 MLOAD PUSH32 0x8C379A000000000000000000000000000000000000000000000000000000000 DUP2 MSTORE PUSH1 0x4 ADD PUSH2 0x48B SWAP1 PUSH2 0xCD4 JUMP JUMPDEST PUSH1 0x40 MLOAD DUP1 SWAP2 SUB SWAP1 REVERT JUMPDEST DUP1 PUSH1 0x3 PUSH0 DUP5 PUSH20 0xFFFFFFFFFFFFFFFFFFFFFFFFFFFFFFFFFFFFFFFF AND PUSH20 0xFFFFFFFFFFFFFFFFFFFFFFFFFFFFFFFFFFFFFFFF AND DUP2 MSTORE PUSH1 0x20 ADD SWAP1 DUP2 MSTORE PUSH1 0x20 ADD PUSH0 KECCAK256 SLOAD LT ISZERO PUSH2 0x514 JUMPI PUSH1 0x40 MLOAD PUSH32 0x8C379A000000000000000000000000000000000000000000000000000000000 DUP2 MSTORE PUSH1 0x4 ADD PUSH2 0x50B SWAP1 PUSH2 0xD3C JUMP JUMPDEST PUSH1 0x40 MLOAD DUP1 SWAP2 SUB SWAP1 REVERT JUMPDEST DUP1 PUSH1 0x3 PUSH0 DUP5 PUSH20 0xFFFFFFFFFFFFFFFFFFFFFFFFFFFFFFFFFFFFFFFF AND PUSH20 0xFFFFFFFFFFFFFFFFFFFFFFFFFFFFFFFFFFFFFFFF AND DUP2 MSTORE PUSH1 0x20 ADD SWAP1 DUP2 MSTORE PUSH1 0x20 ADD PUSH0 KECCAK256 PUSH0 DUP3 DUP3 SLOAD PUSH2 0x560 SWAP2 SWAP1 PUSH2 0xD5A JUMP JUMPDEST SWAP3 POP POP DUP2 SWAP1 SSTORE POP PUSH0 PUSH1 0x2 PUSH0 SWAP1 SLOAD SWAP1 PUSH2 0x100 EXP SWAP1 DIV PUSH20 0xFFFFFFFFFFFFFFFFFFFFFFFFFFFFFFFFFFFFFFFF AND PUSH20 0xFFFFFFFFFFFFFFFFFFFFFFFFFFFFFFFFFFFFFFFF AND PUSH4 0xA9059CBB DUP5 DUP5 PUSH1 0x40 MLOAD DUP4 PUSH4 0xFFFFFFFF AND PUSH1 0xE0 SHL DUP2 MSTORE PUSH1 0x4 ADD PUSH2 0x5C4 SWAP3 SWAP2 SWAP1 PUSH2 0xD8D JUMP JUMPDEST PUSH1 0x20 PUSH1 0x40 MLOAD DUP1 DUP4 SUB DUP2 PUSH0 DUP8 GAS CALL ISZERO DUP1 ISZERO PUSH2 0x5E0 JUMPI RETURNDATASIZE PUSH0 PUSH0 RETURNDATACOPY RETURNDATASIZE PUSH0 REVERT JUMPDEST POP POP POP POP PUSH1 0x40 MLOAD RETURNDATASIZE PUSH1 0x1F NOT PUSH1 0x1F DUP3 ADD AND DUP3 ADD DUP1 PUSH1 0x40 MSTORE POP DUP2 ADD SWAP1 PUSH2 0x604 SWAP2 SWAP1 PUSH2 0xB97 JUMP JUMPDEST SWAP1 POP DUP1 PUSH2 0x646 JUMPI PUSH1 0x40 MLOAD PUSH32 0x8C379A000000000000000000000000000000000000000000000000000000000 DUP2 MSTORE PUSH1 0x4 ADD PUSH2 0x63D SWAP1 PUSH2 0xC0C JUMP JUMPDEST PUSH1 0x40 MLOAD DUP1 SWAP2 SUB SWAP1 REVERT JUMPDEST DUP3 PUSH20 0xFFFFFFFFFFFFFFFFFFFFFFFFFFFFFFFFFFFFFFFF AND PUSH32 0xE1E8517989AB4D4186BC9192E557D01EB3BC8C6C70CF8D004B8C7D9E403352D1 DUP4 PUSH1 0x40 MLOAD PUSH2 0x68C SWAP2 SWAP1 PUSH2 0xA09 JUMP JUMPDEST PUSH1 0x40 MLOAD DUP1 SWAP2 SUB SWAP1 LOG2 POP PUSH2 0x69D PUSH2 0x8BC JUMP JUMPDEST POP POP JUMP JUMPDEST PUSH2 0x6A9 PUSH2 0x725 JUMP JUMPDEST PUSH0 PUSH20 0xFFFFFFFFFFFFFFFFFFFFFFFFFFFFFFFFFFFFFFFF AND DUP2 PUSH20 0xFFFFFFFFFFFFFFFFFFFFFFFFFFFFFFFFFFFFFFFF AND SUB PUSH2 0x719 JUMPI PUSH0 PUSH1 0x40 MLOAD PUSH32 0x1E4FBDF700000000000000000000000000000000000000000000000000000000 DUP2 MSTORE PUSH1 0x4 ADD PUSH2 0x710 SWAP2 SWAP1 PUSH2 0x97F JUMP JUMPDEST PUSH1 0x40 MLOAD DUP1 SWAP2 SUB SWAP1 REVERT JUMPDEST PUSH2 0x722 DUP2 PUSH2 0x7AC JUMP JUMPDEST POP JUMP JUMPDEST PUSH2 0x72D PUSH2 0x8C5 JUMP JUMPDEST PUSH20 0xFFFFFFFFFFFFFFFFFFFFFFFFFFFFFFFFFFFFFFFF AND PUSH2 0x74B PUSH2 0x1BC JUMP JUMPDEST PUSH20 0xFFFFFFFFFFFFFFFFFFFFFFFFFFFFFFFFFFFFFFFF AND EQ PUSH2 0x7AA JUMPI PUSH2 0x76E PUSH2 0x8C5 JUMP JUMPDEST PUSH1 0x40 MLOAD PUSH32 0x118CDAA700000000000000000000000000000000000000000000000000000000 DUP2 MSTORE PUSH1 0x4 ADD PUSH2 0x7A1 SWAP2 SWAP1 PUSH2 0x97F JUMP JUMPDEST PUSH1 0x40 MLOAD DUP1 SWAP2 SUB SWAP1 REVERT JUMPDEST JUMP JUMPDEST PUSH0 PUSH0 PUSH0 SWAP1 SLOAD SWAP1 PUSH2 0x100 EXP SWAP1 DIV PUSH20 0xFFFFFFFFFFFFFFFFFFFFFFFFFFFFFFFFFFFFFFFF AND SWAP1 POP DUP2 PUSH0 PUSH0 PUSH2 0x100 EXP DUP2 SLOAD DUP2 PUSH20 0xFFFFFFFFFFFFFFFFFFFFFFFFFFFFFFFFFFFFFFFF MUL NOT AND SWAP1 DUP4 PUSH20 0xFFFFFFFFFFFFFFFFFFFFFFFFFFFFFFFFFFFFFFFF AND MUL OR SWAP1 SSTORE POP DUP2 PUSH20 0xFFFFFFFFFFFFFFFFFFFFFFFFFFFFFFFFFFFFFFFF AND DUP2 PUSH20 0xFFFFFFFFFFFFFFFFFFFFFFFFFFFFFFFFFFFFFFFF AND PUSH32 0x8BE0079C531659141344CD1FD0A4F28419497F9722A3DAAFE3B4186F6B6457E0 PUSH1 0x40 MLOAD PUSH1 0x40 MLOAD DUP1 SWAP2 SUB SWAP1 LOG3 POP POP JUMP JUMPDEST PUSH1 0x2 PUSH1 0x1 SLOAD SUB PUSH2 0x8B2 JUMPI PUSH1 0x40 MLOAD PUSH32 0x8C379A000000000000000000000000000000000000000000000000000000000 DUP2 MSTORE PUSH1 0x4 ADD PUSH2 0x8A9 SWAP1 PUSH2 0xDFE JUMP JUMPDEST PUSH1 0x40 MLOAD DUP1 SWAP2 SUB SWAP1 REVERT JUMPDEST PUSH1 0x2 PUSH1 0x1 DUP2 SWAP1 SSTORE POP JUMP JUMPDEST PUSH1 0x1 DUP1 DUP2 SWAP1 SSTORE POP JUMP JUMPDEST PUSH0 CALLER SWAP1 POP SWAP1 JUMP JUMPDEST PUSH0 PUSH20 0xFFFFFFFFFFFFFFFFFFFFFFFFFFFFFFFFFFFFFFFF DUP3 AND SWAP1 POP SWAP2 SWAP1 POP JUMP JUMPDEST PUSH0 DUP2 SWAP1 POP SWAP2 SWAP1 POP JUMP JUMPDEST PUSH0 PUSH2 0x90E PUSH2 0x909 PUSH2 0x904 DUP5 PUSH2 0x8CC JUMP JUMPDEST PUSH2 0x8EB JUMP JUMPDEST PUSH2 0x8CC JUMP JUMPDEST SWAP1 POP SWAP2 SWAP1 POP JUMP JUMPDEST PUSH0 PUSH2 0x91F DUP3 PUSH2 0x8F4 JUMP JUMPDEST SWAP1 POP SWAP2 SWAP1 POP JUMP JUMPDEST PUSH0 PUSH2 0x930 DUP3 PUSH2 0x915 JUMP JUMPDEST SWAP1 POP SWAP2 SWAP1 POP JUMP JUMPDEST PUSH2 0x940 DUP2 PUSH2 0x926 JUMP JUMPDEST DUP3 MSTORE POP POP JUMP JUMPDEST PUSH0 PUSH1 0x20 DUP3 ADD SWAP1 POP PUSH2 0x959 PUSH0 DUP4 ADD DUP5 PUSH2 0x937 JUMP JUMPDEST SWAP3 SWAP2 POP POP JUMP JUMPDEST PUSH0 PUSH2 0x969 DUP3 PUSH2 0x8CC JUMP JUMPDEST SWAP1 POP SWAP2 SWAP1 POP JUMP JUMPDEST PUSH2 0x979 DUP2 PUSH2 0x95F JUMP JUMPDEST DUP3 MSTORE POP POP JUMP JUMPDEST PUSH0 PUSH1 0x20 DUP3 ADD SWAP1 POP PUSH2 0x992 PUSH0 DUP4 ADD DUP5 PUSH2 0x970 JUMP JUMPDEST SWAP3 SWAP2 POP POP JUMP JUMPDEST PUSH0 PUSH0 REVERT JUMPDEST PUSH2 0x9A5 DUP2 PUSH2 0x95F JUMP JUMPDEST DUP2 EQ PUSH2 0x9AF JUMPI PUSH0 PUSH0 REVERT JUMPDEST POP JUMP JUMPDEST PUSH0 DUP2 CALLDATALOAD SWAP1 POP PUSH2 0x9C0 DUP2 PUSH2 0x99C JUMP JUMPDEST SWAP3 SWAP2 POP POP JUMP JUMPDEST PUSH0 PUSH1 0x20 DUP3 DUP5 SUB SLT ISZERO PUSH2 0x9DB JUMPI PUSH2 0x9DA PUSH2 0x998 JUMP JUMPDEST JUMPDEST PUSH0 PUSH2 0x9E8 DUP5 DUP3 DUP6 ADD PUSH2 0x9B2 JUMP JUMPDEST SWAP2 POP POP SWAP3 SWAP2 POP POP JUMP JUMPDEST PUSH0 DUP2 SWAP1 POP SWAP2 SWAP1 POP JUMP JUMPDEST PUSH2 0xA03 DUP2 PUSH2 0x9F1 JUMP JUMPDEST DUP3 MSTORE POP POP JUMP JUMPDEST PUSH0 PUSH1 0x20 DUP3 ADD SWAP1 POP PUSH2 0xA1C PUSH0 DUP4 ADD DUP5 PUSH2 0x9FA JUMP JUMPDEST SWAP3 SWAP2 POP POP JUMP JUMPDEST PUSH2 0xA2B DUP2 PUSH2 0x9F1 JUMP JUMPDEST DUP2 EQ PUSH2 0xA35 JUMPI PUSH0 PUSH0 REVERT JUMPDEST POP JUMP JUMPDEST PUSH0 DUP2 CALLDATALOAD SWAP1 POP PUSH2 0xA46 DUP2 PUSH2 0xA22 JUMP JUMPDEST SWAP3 SWAP2 POP POP JUMP JUMPDEST PUSH0 PUSH1 0x20 DUP3 DUP5 SUB SLT ISZERO PUSH2 0xA61 JUMPI PUSH2 0xA60 PUSH2 0x998 JUMP JUMPDEST JUMPDEST PUSH0 PUSH2 0xA6E DUP5 DUP3 DUP6 ADD PUSH2 0xA38 JUMP JUMPDEST SWAP2 POP POP SWAP3 SWAP2 POP POP JUMP JUMPDEST PUSH0 PUSH0 PUSH1 0x40 DUP4 DUP6 SUB SLT ISZERO PUSH2 0xA8D JUMPI PUSH2 0xA8C PUSH2 0x998 JUMP JUMPDEST JUMPDEST PUSH0 PUSH2 0xA9A DUP6 DUP3 DUP7 ADD PUSH2 0x9B2 JUMP JUMPDEST SWAP3 POP POP PUSH1 0x20 PUSH2 0xAAB DUP6 DUP3 DUP7 ADD PUSH2 0xA38 JUMP JUMPDEST SWAP2 POP POP SWAP3 POP SWAP3 SWAP1 POP JUMP JUMPDEST PUSH0 DUP3 DUP3 MSTORE PUSH1 0x20 DUP3 ADD SWAP1 POP SWAP3 SWAP2 POP POP JUMP JUMPDEST PUSH32 0x4465706F73697420616D6F756E74206D757374206265203E2030000000000000 PUSH0 DUP3 ADD MSTORE POP JUMP JUMPDEST PUSH0 PUSH2 0xAF9 PUSH1 0x1A DUP4 PUSH2 0xAB5 JUMP JUMPDEST SWAP2 POP PUSH2 0xB04 DUP3 PUSH2 0xAC5 JUMP JUMPDEST PUSH1 0x20 DUP3 ADD SWAP1 POP SWAP2 SWAP1 POP JUMP JUMPDEST PUSH0 PUSH1 0x20 DUP3 ADD SWAP1 POP DUP2 DUP2 SUB PUSH0 DUP4 ADD MSTORE PUSH2 0xB26 DUP2 PUSH2 0xAED JUMP JUMPDEST SWAP1 POP SWAP2 SWAP1 POP JUMP JUMPDEST PUSH0 PUSH1 0x60 DUP3 ADD SWAP1 POP PUSH2 0xB40 PUSH0 DUP4 ADD DUP7 PUSH2 0x970 JUMP JUMPDEST PUSH2 0xB4D PUSH1 0x20 DUP4 ADD DUP6 PUSH2 0x970 JUMP JUMPDEST PUSH2 0xB5A PUSH1 0x40 DUP4 ADD DUP5 PUSH2 0x9FA JUMP JUMPDEST SWAP5 SWAP4 POP POP POP POP JUMP JUMPDEST PUSH0 DUP2 ISZERO ISZERO SWAP1 POP SWAP2 SWAP1 POP JUMP JUMPDEST PUSH2 0xB76 DUP2 PUSH2 0xB62 JUMP JUMPDEST DUP2 EQ PUSH2 0xB80 JUMPI PUSH0 PUSH0 REVERT JUMPDEST POP JUMP JUMPDEST PUSH0 DUP2 MLOAD SWAP1 POP PUSH2 0xB91 DUP2 PUSH2 0xB6D JUMP JUMPDEST SWAP3 SWAP2 POP POP JUMP JUMPDEST PUSH0 PUSH1 0x20 DUP3 DUP5 SUB SLT ISZERO PUSH2 0xBAC JUMPI PUSH2 0xBAB PUSH2 0x998 JUMP JUMPDEST JUMPDEST PUSH0 PUSH2 0xBB9 DUP5 DUP3 DUP6 ADD PUSH2 0xB83 JUMP JUMPDEST SWAP2 POP POP SWAP3 SWAP2 POP POP JUMP JUMPDEST PUSH32 0x546F6B656E207472616E73666572206661696C65640000000000000000000000 PUSH0 DUP3 ADD MSTORE POP JUMP JUMPDEST PUSH0 PUSH2 0xBF6 PUSH1 0x15 DUP4 PUSH2 0xAB5 JUMP JUMPDEST SWAP2 POP PUSH2 0xC01 DUP3 PUSH2 0xBC2 JUMP JUMPDEST PUSH1 0x20 DUP3 ADD SWAP1 POP SWAP2 SWAP1 POP JUMP JUMPDEST PUSH0 PUSH1 0x20 DUP3 ADD SWAP1 POP DUP2 DUP2 SUB PUSH0 DUP4 ADD MSTORE PUSH2 0xC23 DUP2 PUSH2 0xBEA JUMP JUMPDEST SWAP1 POP SWAP2 SWAP1 POP JUMP JUMPDEST PUSH32 0x4E487B7100000000000000000000000000000000000000000000000000000000 PUSH0 MSTORE PUSH1 0x11 PUSH1 0x4 MSTORE PUSH1 0x24 PUSH0 REVERT JUMPDEST PUSH0 PUSH2 0xC61 DUP3 PUSH2 0x9F1 JUMP JUMPDEST SWAP2 POP PUSH2 0xC6C DUP4 PUSH2 0x9F1 JUMP JUMPDEST SWAP3 POP DUP3 DUP3 ADD SWAP1 POP DUP1 DUP3 GT ISZERO PUSH2 0xC84 JUMPI PUSH2 0xC83 PUSH2 0xC2A JUMP JUMPDEST JUMPDEST SWAP3 SWAP2 POP POP JUMP JUMPDEST PUSH32 0x496E76616C696420757365722061646472657373000000000000000000000000 PUSH0 DUP3 ADD MSTORE POP JUMP JUMPDEST PUSH0 PUSH2 0xCBE PUSH1 0x14 DUP4 PUSH2 0xAB5 JUMP JUMPDEST SWAP2 POP PUSH2 0xCC9 DUP3 PUSH2 0xC8A JUMP JUMPDEST PUSH1 0x20 DUP3 ADD SWAP1 POP SWAP2 SWAP1 POP JUMP JUMPDEST PUSH0 PUSH1 0x20 DUP3 ADD SWAP1 POP DUP2 DUP2 SUB PUSH0 DUP4 ADD MSTORE PUSH2 0xCEB DUP2 PUSH2 0xCB2 JUMP JUMPDEST SWAP1 POP SWAP2 SWAP1 POP JUMP JUMPDEST PUSH32 0x496E73756666696369656E74206C6F636B65642062616C616E63650000000000 PUSH0 DUP3 ADD MSTORE POP JUMP JUMPDEST PUSH0 PUSH2 0xD26 PUSH1 0x1B DUP4 PUSH2 0xAB5 JUMP JUMPDEST SWAP2 POP PUSH2 0xD31 DUP3 PUSH2 0xCF2 JUMP JUMPDEST PUSH1 0x20 DUP3 ADD SWAP1 POP SWAP2 SWAP1 POP JUMP JUMPDEST PUSH0 PUSH1 0x20 DUP3 ADD SWAP1 POP DUP2 DUP2 SUB PUSH0 DUP4 ADD MSTORE PUSH2 0xD53 DUP2 PUSH2 0xD1A JUMP JUMPDEST SWAP1 POP SWAP2 SWAP1 POP JUMP JUMPDEST PUSH0 PUSH2 0xD64 DUP3 PUSH2 0x9F1 JUMP JUMPDEST SWAP2 POP PUSH2 0xD6F DUP4 PUSH2 0x9F1 JUMP JUMPDEST SWAP3 POP DUP3 DUP3 SUB SWAP1 POP DUP2 DUP2 GT ISZERO PUSH2 0xD87 JUMPI PUSH2 0xD86 PUSH2 0xC2A JUMP JUMPDEST JUMPDEST SWAP3 SWAP2 POP POP JUMP JUMPDEST PUSH0 PUSH1 0x40 DUP3 ADD SWAP1 POP PUSH2 0xDA0 PUSH0 DUP4 ADD DUP6 PUSH2 0x970 JUMP JUMPDEST PUSH2 0xDAD PUSH1 0x20 DUP4 ADD DUP5 PUSH2 0x9FA JUMP JUMPDEST SWAP4 SWAP3 POP POP POP JUMP JUMPDEST PUSH32 0x5265656E7472616E637947756172643A207265656E7472616E742063616C6C00 PUSH0 DUP3 ADD MSTORE POP JUMP JUMPDEST PUSH0 PUSH2 0xDE8 PUSH1 0x1F DUP4 PUSH2 0xAB5 JUMP JUMPDEST SWAP2 POP PUSH2 0xDF3 DUP3 PUSH2 0xDB4 JUMP JUMPDEST PUSH1 0x20 DUP3 ADD SWAP1 POP SWAP2 SWAP1 POP JUMP JUMPDEST PUSH0 PUSH1 0x20 DUP3 ADD SWAP1 POP DUP2 DUP2 SUB PUSH0 DUP4 ADD MSTORE PUSH2 0xE15 DUP2 PUSH2 0xDDC JUMP JUMPDEST SWAP1 POP SWAP2 SWAP1 POP JUMP INVALID LOG2 PUSH5 0x6970667358 0x22 SLT KECCAK256 SWAP15 0xBF PUSH19 0x70553DD1B44D1684D921672991BD8AA0D41AD7 0xBF 0xD6 EXTSTATICCALL PUSH32 0xE2A64BBA141264736F6C634300081D0033000000000000000000000000000000 "
		},
		"gasEstimates": {
			"creation": {
				"codeDepositCost": "733200",
				"executionCost": "infinite",
				"totalCost": "infinite"
			},
			"external": {
				"bridgingToken()": "infinite",
				"depositForBridge(uint256)": "infinite",
				"getLockedBalance(address)": "2829",
				"lockedBalance(address)": "2869",
				"owner()": "2559",
				"renounceOwnership()": "infinite",
				"transferOwnership(address)": "infinite",
				"unlockAfterSidechainBurn(address,uint256)": "infinite"
			}
		},
		"methodIdentifiers": {
			"bridgingToken()": "5a445bce",
			"depositForBridge(uint256)": "d24d0124",
			"getLockedBalance(address)": "c4086893",
			"lockedBalance(address)": "9ae697bf",
			"owner()": "8da5cb5b",
			"renounceOwnership()": "715018a6",
			"transferOwnership(address)": "f2fde38b",
			"unlockAfterSidechainBurn(address,uint256)": "f2ad5a9b"
		}
	},
	"abi": [
		{
			"inputs": [
				{
					"internalType": "address",
					"name": "_token",
					"type": "address"
				}
			],
			"stateMutability": "nonpayable",
			"type": "constructor"
		},
		{
			"inputs": [
				{
					"internalType": "address",
					"name": "owner",
					"type": "address"
				}
			],
			"name": "OwnableInvalidOwner",
			"type": "error"
		},
		{
			"inputs": [
				{
					"internalType": "address",
					"name": "account",
					"type": "address"
				}
			],
			"name": "OwnableUnauthorizedAccount",
			"type": "error"
		},
		{
			"anonymous": false,
			"inputs": [
				{
					"indexed": true,
					"internalType": "address",
					"name": "user",
					"type": "address"
				},
				{
					"indexed": false,
					"internalType": "uint256",
					"name": "amount",
					"type": "uint256"
				}
			],
			"name": "DepositForBridge",
			"type": "event"
		},
		{
			"anonymous": false,
			"inputs": [
				{
					"indexed": true,
					"internalType": "address",
					"name": "previousOwner",
					"type": "address"
				},
				{
					"indexed": true,
					"internalType": "address",
					"name": "newOwner",
					"type": "address"
				}
			],
			"name": "OwnershipTransferred",
			"type": "event"
		},
		{
			"anonymous": false,
			"inputs": [
				{
					"indexed": true,
					"internalType": "address",
					"name": "user",
					"type": "address"
				},
				{
					"indexed": false,
					"internalType": "uint256",
					"name": "amount",
					"type": "uint256"
				}
			],
			"name": "UnlockAfterSidechainBurn",
			"type": "event"
		},
		{
			"inputs": [],
			"name": "bridgingToken",
			"outputs": [
				{
					"internalType": "contract IERC20",
					"name": "",
					"type": "address"
				}
			],
			"stateMutability": "view",
			"type": "function"
		},
		{
			"inputs": [
				{
					"internalType": "uint256",
					"name": "amount",
					"type": "uint256"
				}
			],
			"name": "depositForBridge",
			"outputs": [],
			"stateMutability": "nonpayable",
			"type": "function"
		},
		{
			"inputs": [
				{
					"internalType": "address",
					"name": "user",
					"type": "address"
				}
			],
			"name": "getLockedBalance",
			"outputs": [
				{
					"internalType": "uint256",
					"name": "",
					"type": "uint256"
				}
			],
			"stateMutability": "view",
			"type": "function"
		},
		{
			"inputs": [
				{
					"internalType": "address",
					"name": "",
					"type": "address"
				}
			],
			"name": "lockedBalance",
			"outputs": [
				{
					"internalType": "uint256",
					"name": "",
					"type": "uint256"
				}
			],
			"stateMutability": "view",
			"type": "function"
		},
		{
			"inputs": [],
			"name": "owner",
			"outputs": [
				{
					"internalType": "address",
					"name": "",
					"type": "address"
				}
			],
			"stateMutability": "view",
			"type": "function"
		},
		{
			"inputs": [],
			"name": "renounceOwnership",
			"outputs": [],
			"stateMutability": "nonpayable",
			"type": "function"
		},
		{
			"inputs": [
				{
					"internalType": "address",
					"name": "newOwner",
					"type": "address"
				}
			],
			"name": "transferOwnership",
			"outputs": [],
			"stateMutability": "nonpayable",
			"type": "function"
		},
		{
			"inputs": [
				{
					"internalType": "address",
					"name": "user",
					"type": "address"
				},
				{
					"internalType": "uint256",
					"name": "amount",
					"type": "uint256"
				}
			],
			"name": "unlockAfterSidechainBurn",
			"outputs": [],
			"stateMutability": "nonpayable",
			"type": "function"
		}
	]
}