{
	"I/APR vs APY Tracker.sol": {
		"APRvsAPYTracker": {
			"abi": [
				{
					"inputs": [
						{
							"internalType": "uint256",
							"name": "apr",
							"type": "uint256"
						},
						{
							"internalType": "uint256",
							"name": "compoundingPeriods",
							"type": "uint256"
						}
					],
					"name": "calculateAPY",
					"outputs": [
						{
							"internalType": "uint256",
							"name": "apy",
							"type": "uint256"
						}
					],
					"stateMutability": "pure",
					"type": "function"
				}
			],
			"devdoc": {
				"kind": "dev",
				"methods": {
					"calculateAPY(uint256,uint256)": {
						"params": {
							"apr": "Annual Percentage Rate (scaled by 1e18, e.g., 10% = 1e17)",
							"compoundingPeriods": "Number of times interest compounds in a year"
						},
						"returns": {
							"apy": "Annual Percentage Yield (scaled by 1e18)"
						}
					}
				},
				"title": "APR vs APY Calculator",
				"version": 1
			},
			"evm": {
				"assembly": "    /* \"I/APR vs APY Tracker.sol\":149:942  contract APRvsAPYTracker {... */\n  mstore(0x40, 0x80)\n  callvalue\n  dup1\n  iszero\n  tag_1\n  jumpi\n  revert(0x00, 0x00)\ntag_1:\n  pop\n  dataSize(sub_0)\n  dup1\n  dataOffset(sub_0)\n  0x00\n  codecopy\n  0x00\n  return\nstop\n\nsub_0: assembly {\n        /* \"I/APR vs APY Tracker.sol\":149:942  contract APRvsAPYTracker {... */\n      mstore(0x40, 0x80)\n      callvalue\n      dup1\n      iszero\n      tag_1\n      jumpi\n      revert(0x00, 0x00)\n    tag_1:\n      pop\n      jumpi(tag_2, lt(calldatasize, 0x04))\n      shr(0xe0, calldataload(0x00))\n      dup1\n      0xb873995a\n      eq\n      tag_3\n      jumpi\n    tag_2:\n      revert(0x00, 0x00)\n        /* \"I/APR vs APY Tracker.sol\":465:940  function calculateAPY(uint256 apr, uint256 compoundingPeriods) public pure returns (uint256 apy) {... */\n    tag_3:\n      tag_4\n      0x04\n      dup1\n      calldatasize\n      sub\n      dup2\n      add\n      swap1\n      tag_5\n      swap2\n      swap1\n      tag_6\n      jump\t// in\n    tag_5:\n      tag_7\n      jump\t// in\n    tag_4:\n      mload(0x40)\n      tag_8\n      swap2\n      swap1\n      tag_9\n      jump\t// in\n    tag_8:\n      mload(0x40)\n      dup1\n      swap2\n      sub\n      swap1\n      return\n    tag_7:\n        /* \"I/APR vs APY Tracker.sol\":549:560  uint256 apy */\n      0x00\n        /* \"I/APR vs APY Tracker.sol\":601:602  0 */\n      0x00\n        /* \"I/APR vs APY Tracker.sol\":580:598  compoundingPeriods */\n      dup3\n        /* \"I/APR vs APY Tracker.sol\":580:602  compoundingPeriods > 0 */\n      gt\n        /* \"I/APR vs APY Tracker.sol\":572:634  require(compoundingPeriods > 0, \"Must compound at least once\") */\n      tag_11\n      jumpi\n      mload(0x40)\n      0x08c379a000000000000000000000000000000000000000000000000000000000\n      dup2\n      mstore\n      0x04\n      add\n      tag_12\n      swap1\n      tag_13\n      jump\t// in\n    tag_12:\n      mload(0x40)\n      dup1\n      swap2\n      sub\n      swap1\n      revert\n    tag_11:\n        /* \"I/APR vs APY Tracker.sol\":645:657  uint256 base */\n      0x00\n        /* \"I/APR vs APY Tracker.sol\":674:692  compoundingPeriods */\n      dup3\n        /* \"I/APR vs APY Tracker.sol\":668:671  apr */\n      dup5\n        /* \"I/APR vs APY Tracker.sol\":668:692  apr / compoundingPeriods */\n      tag_14\n      swap2\n      swap1\n      tag_15\n      jump\t// in\n    tag_14:\n        /* \"I/APR vs APY Tracker.sol\":660:664  1e18 */\n      0x0de0b6b3a7640000\n        /* \"I/APR vs APY Tracker.sol\":660:693  1e18 + (apr / compoundingPeriods) */\n      tag_16\n      swap2\n      swap1\n      tag_17\n      jump\t// in\n    tag_16:\n        /* \"I/APR vs APY Tracker.sol\":645:693  uint256 base = 1e18 + (apr / compoundingPeriods) */\n      swap1\n      pop\n        /* \"I/APR vs APY Tracker.sol\":722:726  base */\n      dup1\n        /* \"I/APR vs APY Tracker.sol\":716:726  apy = base */\n      swap2\n      pop\n        /* \"I/APR vs APY Tracker.sol\":742:751  uint256 i */\n      0x00\n        /* \"I/APR vs APY Tracker.sol\":754:755  1 */\n      0x01\n        /* \"I/APR vs APY Tracker.sol\":742:755  uint256 i = 1 */\n      swap1\n      pop\n        /* \"I/APR vs APY Tracker.sol\":737:856  for (uint256 i = 1; i < compoundingPeriods; i++) {... */\n    tag_18:\n        /* \"I/APR vs APY Tracker.sol\":761:779  compoundingPeriods */\n      dup4\n        /* \"I/APR vs APY Tracker.sol\":757:758  i */\n      dup2\n        /* \"I/APR vs APY Tracker.sol\":757:779  i < compoundingPeriods */\n      lt\n        /* \"I/APR vs APY Tracker.sol\":737:856  for (uint256 i = 1; i < compoundingPeriods; i++) {... */\n      iszero\n      tag_19\n      jumpi\n        /* \"I/APR vs APY Tracker.sol\":821:825  1e18 */\n      0x0de0b6b3a7640000\n        /* \"I/APR vs APY Tracker.sol\":813:817  base */\n      dup3\n        /* \"I/APR vs APY Tracker.sol\":807:810  apy */\n      dup5\n        /* \"I/APR vs APY Tracker.sol\":807:817  apy * base */\n      tag_21\n      swap2\n      swap1\n      tag_22\n      jump\t// in\n    tag_21:\n        /* \"I/APR vs APY Tracker.sol\":806:825  (apy * base) / 1e18 */\n      tag_23\n      swap2\n      swap1\n      tag_15\n      jump\t// in\n    tag_23:\n        /* \"I/APR vs APY Tracker.sol\":800:825  apy = (apy * base) / 1e18 */\n      swap3\n      pop\n        /* \"I/APR vs APY Tracker.sol\":781:784  i++ */\n      dup1\n      dup1\n      0x01\n      add\n      swap2\n      pop\n      pop\n        /* \"I/APR vs APY Tracker.sol\":737:856  for (uint256 i = 1; i < compoundingPeriods; i++) {... */\n      jump(tag_18)\n    tag_19:\n      pop\n        /* \"I/APR vs APY Tracker.sol\":878:882  1e18 */\n      0x0de0b6b3a7640000\n        /* \"I/APR vs APY Tracker.sol\":872:875  apy */\n      dup3\n        /* \"I/APR vs APY Tracker.sol\":872:882  apy - 1e18 */\n      tag_24\n      swap2\n      swap1\n      tag_25\n      jump\t// in\n    tag_24:\n        /* \"I/APR vs APY Tracker.sol\":866:882  apy = apy - 1e18 */\n      swap2\n      pop\n        /* \"I/APR vs APY Tracker.sol\":562:940  {... */\n      pop\n        /* \"I/APR vs APY Tracker.sol\":465:940  function calculateAPY(uint256 apr, uint256 compoundingPeriods) public pure returns (uint256 apy) {... */\n      swap3\n      swap2\n      pop\n      pop\n      jump\t// out\n        /* \"#utility.yul\":88:205   */\n    tag_27:\n        /* \"#utility.yul\":197:198   */\n      0x00\n        /* \"#utility.yul\":194:195   */\n      0x00\n        /* \"#utility.yul\":187:199   */\n      revert\n        /* \"#utility.yul\":334:411   */\n    tag_29:\n        /* \"#utility.yul\":371:378   */\n      0x00\n        /* \"#utility.yul\":400:405   */\n      dup2\n        /* \"#utility.yul\":389:405   */\n      swap1\n      pop\n        /* \"#utility.yul\":334:411   */\n      swap2\n      swap1\n      pop\n      jump\t// out\n        /* \"#utility.yul\":417:539   */\n    tag_30:\n        /* \"#utility.yul\":490:514   */\n      tag_44\n        /* \"#utility.yul\":508:513   */\n      dup2\n        /* \"#utility.yul\":490:514   */\n      tag_29\n      jump\t// in\n    tag_44:\n        /* \"#utility.yul\":483:488   */\n      dup2\n        /* \"#utility.yul\":480:515   */\n      eq\n        /* \"#utility.yul\":470:533   */\n      tag_45\n      jumpi\n        /* \"#utility.yul\":529:530   */\n      0x00\n        /* \"#utility.yul\":526:527   */\n      0x00\n        /* \"#utility.yul\":519:531   */\n      revert\n        /* \"#utility.yul\":470:533   */\n    tag_45:\n        /* \"#utility.yul\":417:539   */\n      pop\n      jump\t// out\n        /* \"#utility.yul\":545:684   */\n    tag_31:\n        /* \"#utility.yul\":591:596   */\n      0x00\n        /* \"#utility.yul\":629:635   */\n      dup2\n        /* \"#utility.yul\":616:636   */\n      calldataload\n        /* \"#utility.yul\":607:636   */\n      swap1\n      pop\n        /* \"#utility.yul\":645:678   */\n      tag_47\n        /* \"#utility.yul\":672:677   */\n      dup2\n        /* \"#utility.yul\":645:678   */\n      tag_30\n      jump\t// in\n    tag_47:\n        /* \"#utility.yul\":545:684   */\n      swap3\n      swap2\n      pop\n      pop\n      jump\t// out\n        /* \"#utility.yul\":690:1164   */\n    tag_6:\n        /* \"#utility.yul\":758:764   */\n      0x00\n        /* \"#utility.yul\":766:772   */\n      0x00\n        /* \"#utility.yul\":815:817   */\n      0x40\n        /* \"#utility.yul\":803:812   */\n      dup4\n        /* \"#utility.yul\":794:801   */\n      dup6\n        /* \"#utility.yul\":790:813   */\n      sub\n        /* \"#utility.yul\":786:818   */\n      slt\n        /* \"#utility.yul\":783:902   */\n      iszero\n      tag_49\n      jumpi\n        /* \"#utility.yul\":821:900   */\n      tag_50\n      tag_27\n      jump\t// in\n    tag_50:\n        /* \"#utility.yul\":783:902   */\n    tag_49:\n        /* \"#utility.yul\":941:942   */\n      0x00\n        /* \"#utility.yul\":966:1019   */\n      tag_51\n        /* \"#utility.yul\":1011:1018   */\n      dup6\n        /* \"#utility.yul\":1002:1008   */\n      dup3\n        /* \"#utility.yul\":991:1000   */\n      dup7\n        /* \"#utility.yul\":987:1009   */\n      add\n        /* \"#utility.yul\":966:1019   */\n      tag_31\n      jump\t// in\n    tag_51:\n        /* \"#utility.yul\":956:1019   */\n      swap3\n      pop\n        /* \"#utility.yul\":912:1029   */\n      pop\n        /* \"#utility.yul\":1068:1070   */\n      0x20\n        /* \"#utility.yul\":1094:1147   */\n      tag_52\n        /* \"#utility.yul\":1139:1146   */\n      dup6\n        /* \"#utility.yul\":1130:1136   */\n      dup3\n        /* \"#utility.yul\":1119:1128   */\n      dup7\n        /* \"#utility.yul\":1115:1137   */\n      add\n        /* \"#utility.yul\":1094:1147   */\n      tag_31\n      jump\t// in\n    tag_52:\n        /* \"#utility.yul\":1084:1147   */\n      swap2\n      pop\n        /* \"#utility.yul\":1039:1157   */\n      pop\n        /* \"#utility.yul\":690:1164   */\n      swap3\n      pop\n      swap3\n      swap1\n      pop\n      jump\t// out\n        /* \"#utility.yul\":1170:1288   */\n    tag_32:\n        /* \"#utility.yul\":1257:1281   */\n      tag_54\n        /* \"#utility.yul\":1275:1280   */\n      dup2\n        /* \"#utility.yul\":1257:1281   */\n      tag_29\n      jump\t// in\n    tag_54:\n        /* \"#utility.yul\":1252:1255   */\n      dup3\n        /* \"#utility.yul\":1245:1282   */\n      mstore\n        /* \"#utility.yul\":1170:1288   */\n      pop\n      pop\n      jump\t// out\n        /* \"#utility.yul\":1294:1516   */\n    tag_9:\n        /* \"#utility.yul\":1387:1391   */\n      0x00\n        /* \"#utility.yul\":1425:1427   */\n      0x20\n        /* \"#utility.yul\":1414:1423   */\n      dup3\n        /* \"#utility.yul\":1410:1428   */\n      add\n        /* \"#utility.yul\":1402:1428   */\n      swap1\n      pop\n        /* \"#utility.yul\":1438:1509   */\n      tag_56\n        /* \"#utility.yul\":1506:1507   */\n      0x00\n        /* \"#utility.yul\":1495:1504   */\n      dup4\n        /* \"#utility.yul\":1491:1508   */\n      add\n        /* \"#utility.yul\":1482:1488   */\n      dup5\n        /* \"#utility.yul\":1438:1509   */\n      tag_32\n      jump\t// in\n    tag_56:\n        /* \"#utility.yul\":1294:1516   */\n      swap3\n      swap2\n      pop\n      pop\n      jump\t// out\n        /* \"#utility.yul\":1522:1691   */\n    tag_33:\n        /* \"#utility.yul\":1606:1617   */\n      0x00\n        /* \"#utility.yul\":1640:1646   */\n      dup3\n        /* \"#utility.yul\":1635:1638   */\n      dup3\n        /* \"#utility.yul\":1628:1647   */\n      mstore\n        /* \"#utility.yul\":1680:1684   */\n      0x20\n        /* \"#utility.yul\":1675:1678   */\n      dup3\n        /* \"#utility.yul\":1671:1685   */\n      add\n        /* \"#utility.yul\":1656:1685   */\n      swap1\n      pop\n        /* \"#utility.yul\":1522:1691   */\n      swap3\n      swap2\n      pop\n      pop\n      jump\t// out\n        /* \"#utility.yul\":1697:1874   */\n    tag_34:\n        /* \"#utility.yul\":1837:1866   */\n      0x4d75737420636f6d706f756e64206174206c65617374206f6e63650000000000\n        /* \"#utility.yul\":1833:1834   */\n      0x00\n        /* \"#utility.yul\":1825:1831   */\n      dup3\n        /* \"#utility.yul\":1821:1835   */\n      add\n        /* \"#utility.yul\":1814:1867   */\n      mstore\n        /* \"#utility.yul\":1697:1874   */\n      pop\n      jump\t// out\n        /* \"#utility.yul\":1880:2246   */\n    tag_35:\n        /* \"#utility.yul\":2022:2025   */\n      0x00\n        /* \"#utility.yul\":2043:2110   */\n      tag_60\n        /* \"#utility.yul\":2107:2109   */\n      0x1b\n        /* \"#utility.yul\":2102:2105   */\n      dup4\n        /* \"#utility.yul\":2043:2110   */\n      tag_33\n      jump\t// in\n    tag_60:\n        /* \"#utility.yul\":2036:2110   */\n      swap2\n      pop\n        /* \"#utility.yul\":2119:2212   */\n      tag_61\n        /* \"#utility.yul\":2208:2211   */\n      dup3\n        /* \"#utility.yul\":2119:2212   */\n      tag_34\n      jump\t// in\n    tag_61:\n        /* \"#utility.yul\":2237:2239   */\n      0x20\n        /* \"#utility.yul\":2232:2235   */\n      dup3\n        /* \"#utility.yul\":2228:2240   */\n      add\n        /* \"#utility.yul\":2221:2240   */\n      swap1\n      pop\n        /* \"#utility.yul\":1880:2246   */\n      swap2\n      swap1\n      pop\n      jump\t// out\n        /* \"#utility.yul\":2252:2671   */\n    tag_13:\n        /* \"#utility.yul\":2418:2422   */\n      0x00\n        /* \"#utility.yul\":2456:2458   */\n      0x20\n        /* \"#utility.yul\":2445:2454   */\n      dup3\n        /* \"#utility.yul\":2441:2459   */\n      add\n        /* \"#utility.yul\":2433:2459   */\n      swap1\n      pop\n        /* \"#utility.yul\":2505:2514   */\n      dup2\n        /* \"#utility.yul\":2499:2503   */\n      dup2\n        /* \"#utility.yul\":2495:2515   */\n      sub\n        /* \"#utility.yul\":2491:2492   */\n      0x00\n        /* \"#utility.yul\":2480:2489   */\n      dup4\n        /* \"#utility.yul\":2476:2493   */\n      add\n        /* \"#utility.yul\":2469:2516   */\n      mstore\n        /* \"#utility.yul\":2533:2664   */\n      tag_63\n        /* \"#utility.yul\":2659:2663   */\n      dup2\n        /* \"#utility.yul\":2533:2664   */\n      tag_35\n      jump\t// in\n    tag_63:\n        /* \"#utility.yul\":2525:2664   */\n      swap1\n      pop\n        /* \"#utility.yul\":2252:2671   */\n      swap2\n      swap1\n      pop\n      jump\t// out\n        /* \"#utility.yul\":2677:2857   */\n    tag_36:\n        /* \"#utility.yul\":2725:2802   */\n      0x4e487b7100000000000000000000000000000000000000000000000000000000\n        /* \"#utility.yul\":2722:2723   */\n      0x00\n        /* \"#utility.yul\":2715:2803   */\n      mstore\n        /* \"#utility.yul\":2822:2826   */\n      0x12\n        /* \"#utility.yul\":2819:2820   */\n      0x04\n        /* \"#utility.yul\":2812:2827   */\n      mstore\n        /* \"#utility.yul\":2846:2850   */\n      0x24\n        /* \"#utility.yul\":2843:2844   */\n      0x00\n        /* \"#utility.yul\":2836:2851   */\n      revert\n        /* \"#utility.yul\":2863:3043   */\n    tag_37:\n        /* \"#utility.yul\":2911:2988   */\n      0x4e487b7100000000000000000000000000000000000000000000000000000000\n        /* \"#utility.yul\":2908:2909   */\n      0x00\n        /* \"#utility.yul\":2901:2989   */\n      mstore\n        /* \"#utility.yul\":3008:3012   */\n      0x11\n        /* \"#utility.yul\":3005:3006   */\n      0x04\n        /* \"#utility.yul\":2998:3013   */\n      mstore\n        /* \"#utility.yul\":3032:3036   */\n      0x24\n        /* \"#utility.yul\":3029:3030   */\n      0x00\n        /* \"#utility.yul\":3022:3037   */\n      revert\n        /* \"#utility.yul\":3049:3234   */\n    tag_15:\n        /* \"#utility.yul\":3089:3090   */\n      0x00\n        /* \"#utility.yul\":3106:3126   */\n      tag_67\n        /* \"#utility.yul\":3124:3125   */\n      dup3\n        /* \"#utility.yul\":3106:3126   */\n      tag_29\n      jump\t// in\n    tag_67:\n        /* \"#utility.yul\":3101:3126   */\n      swap2\n      pop\n        /* \"#utility.yul\":3140:3160   */\n      tag_68\n        /* \"#utility.yul\":3158:3159   */\n      dup4\n        /* \"#utility.yul\":3140:3160   */\n      tag_29\n      jump\t// in\n    tag_68:\n        /* \"#utility.yul\":3135:3160   */\n      swap3\n      pop\n        /* \"#utility.yul\":3179:3180   */\n      dup3\n        /* \"#utility.yul\":3169:3204   */\n      tag_69\n      jumpi\n        /* \"#utility.yul\":3184:3202   */\n      tag_70\n      tag_36\n      jump\t// in\n    tag_70:\n        /* \"#utility.yul\":3169:3204   */\n    tag_69:\n        /* \"#utility.yul\":3226:3227   */\n      dup3\n        /* \"#utility.yul\":3223:3224   */\n      dup3\n        /* \"#utility.yul\":3219:3228   */\n      div\n        /* \"#utility.yul\":3214:3228   */\n      swap1\n      pop\n        /* \"#utility.yul\":3049:3234   */\n      swap3\n      swap2\n      pop\n      pop\n      jump\t// out\n        /* \"#utility.yul\":3240:3431   */\n    tag_17:\n        /* \"#utility.yul\":3280:3283   */\n      0x00\n        /* \"#utility.yul\":3299:3319   */\n      tag_72\n        /* \"#utility.yul\":3317:3318   */\n      dup3\n        /* \"#utility.yul\":3299:3319   */\n      tag_29\n      jump\t// in\n    tag_72:\n        /* \"#utility.yul\":3294:3319   */\n      swap2\n      pop\n        /* \"#utility.yul\":3333:3353   */\n      tag_73\n        /* \"#utility.yul\":3351:3352   */\n      dup4\n        /* \"#utility.yul\":3333:3353   */\n      tag_29\n      jump\t// in\n    tag_73:\n        /* \"#utility.yul\":3328:3353   */\n      swap3\n      pop\n        /* \"#utility.yul\":3376:3377   */\n      dup3\n        /* \"#utility.yul\":3373:3374   */\n      dup3\n        /* \"#utility.yul\":3369:3378   */\n      add\n        /* \"#utility.yul\":3362:3378   */\n      swap1\n      pop\n        /* \"#utility.yul\":3397:3400   */\n      dup1\n        /* \"#utility.yul\":3394:3395   */\n      dup3\n        /* \"#utility.yul\":3391:3401   */\n      gt\n        /* \"#utility.yul\":3388:3424   */\n      iszero\n      tag_74\n      jumpi\n        /* \"#utility.yul\":3404:3422   */\n      tag_75\n      tag_37\n      jump\t// in\n    tag_75:\n        /* \"#utility.yul\":3388:3424   */\n    tag_74:\n        /* \"#utility.yul\":3240:3431   */\n      swap3\n      swap2\n      pop\n      pop\n      jump\t// out\n        /* \"#utility.yul\":3437:3847   */\n    tag_22:\n        /* \"#utility.yul\":3477:3484   */\n      0x00\n        /* \"#utility.yul\":3500:3520   */\n      tag_77\n        /* \"#utility.yul\":3518:3519   */\n      dup3\n        /* \"#utility.yul\":3500:3520   */\n      tag_29\n      jump\t// in\n    tag_77:\n        /* \"#utility.yul\":3495:3520   */\n      swap2\n      pop\n        /* \"#utility.yul\":3534:3554   */\n      tag_78\n        /* \"#utility.yul\":3552:3553   */\n      dup4\n        /* \"#utility.yul\":3534:3554   */\n      tag_29\n      jump\t// in\n    tag_78:\n        /* \"#utility.yul\":3529:3554   */\n      swap3\n      pop\n        /* \"#utility.yul\":3589:3590   */\n      dup3\n        /* \"#utility.yul\":3586:3587   */\n      dup3\n        /* \"#utility.yul\":3582:3591   */\n      mul\n        /* \"#utility.yul\":3611:3641   */\n      tag_79\n        /* \"#utility.yul\":3629:3640   */\n      dup2\n        /* \"#utility.yul\":3611:3641   */\n      tag_29\n      jump\t// in\n    tag_79:\n        /* \"#utility.yul\":3600:3641   */\n      swap2\n      pop\n        /* \"#utility.yul\":3790:3791   */\n      dup3\n        /* \"#utility.yul\":3781:3788   */\n      dup3\n        /* \"#utility.yul\":3777:3792   */\n      div\n        /* \"#utility.yul\":3774:3775   */\n      dup5\n        /* \"#utility.yul\":3771:3793   */\n      eq\n        /* \"#utility.yul\":3751:3752   */\n      dup4\n        /* \"#utility.yul\":3744:3753   */\n      iszero\n        /* \"#utility.yul\":3724:3807   */\n      or\n        /* \"#utility.yul\":3701:3840   */\n      tag_80\n      jumpi\n        /* \"#utility.yul\":3820:3838   */\n      tag_81\n      tag_37\n      jump\t// in\n    tag_81:\n        /* \"#utility.yul\":3701:3840   */\n    tag_80:\n        /* \"#utility.yul\":3485:3847   */\n      pop\n        /* \"#utility.yul\":3437:3847   */\n      swap3\n      swap2\n      pop\n      pop\n      jump\t// out\n        /* \"#utility.yul\":3853:4047   */\n    tag_25:\n        /* \"#utility.yul\":3893:3897   */\n      0x00\n        /* \"#utility.yul\":3913:3933   */\n      tag_83\n        /* \"#utility.yul\":3931:3932   */\n      dup3\n        /* \"#utility.yul\":3913:3933   */\n      tag_29\n      jump\t// in\n    tag_83:\n        /* \"#utility.yul\":3908:3933   */\n      swap2\n      pop\n        /* \"#utility.yul\":3947:3967   */\n      tag_84\n        /* \"#utility.yul\":3965:3966   */\n      dup4\n        /* \"#utility.yul\":3947:3967   */\n      tag_29\n      jump\t// in\n    tag_84:\n        /* \"#utility.yul\":3942:3967   */\n      swap3\n      pop\n        /* \"#utility.yul\":3991:3992   */\n      dup3\n        /* \"#utility.yul\":3988:3989   */\n      dup3\n        /* \"#utility.yul\":3984:3993   */\n      sub\n        /* \"#utility.yul\":3976:3993   */\n      swap1\n      pop\n        /* \"#utility.yul\":4015:4016   */\n      dup2\n        /* \"#utility.yul\":4009:4013   */\n      dup2\n        /* \"#utility.yul\":4006:4017   */\n      gt\n        /* \"#utility.yul\":4003:4040   */\n      iszero\n      tag_85\n      jumpi\n        /* \"#utility.yul\":4020:4038   */\n      tag_86\n      tag_37\n      jump\t// in\n    tag_86:\n        /* \"#utility.yul\":4003:4040   */\n    tag_85:\n        /* \"#utility.yul\":3853:4047   */\n      swap3\n      swap2\n      pop\n      pop\n      jump\t// out\n\n    auxdata: 0xa2646970667358221220825a2a50253b0499b88efb0c29a369966b53c4ebb800ca6f0b6ec230776731eb64736f6c634300081d0033\n}\n",
				"bytecode": {
					"linkReferences": {},
					"object": "6080604052348015600e575f5ffd5b5061039b8061001c5f395ff3fe608060405234801561000f575f5ffd5b5060043610610029575f3560e01c8063b873995a1461002d575b5f5ffd5b61004760048036038101906100429190610156565b61005d565b60405161005491906101a3565b60405180910390f35b5f5f82116100a0576040517f08c379a000000000000000000000000000000000000000000000000000000000815260040161009790610216565b60405180910390fd5b5f82846100ad919061028e565b670de0b6b3a76400006100c091906102be565b90508091505f600190505b8381101561010157670de0b6b3a764000082846100e891906102f1565b6100f2919061028e565b925080806001019150506100cb565b50670de0b6b3a7640000826101169190610332565b91505092915050565b5f5ffd5b5f819050919050565b61013581610123565b811461013f575f5ffd5b50565b5f813590506101508161012c565b92915050565b5f5f6040838503121561016c5761016b61011f565b5b5f61017985828601610142565b925050602061018a85828601610142565b9150509250929050565b61019d81610123565b82525050565b5f6020820190506101b65f830184610194565b92915050565b5f82825260208201905092915050565b7f4d75737420636f6d706f756e64206174206c65617374206f6e636500000000005f82015250565b5f610200601b836101bc565b915061020b826101cc565b602082019050919050565b5f6020820190508181035f83015261022d816101f4565b9050919050565b7f4e487b71000000000000000000000000000000000000000000000000000000005f52601260045260245ffd5b7f4e487b71000000000000000000000000000000000000000000000000000000005f52601160045260245ffd5b5f61029882610123565b91506102a383610123565b9250826102b3576102b2610234565b5b828204905092915050565b5f6102c882610123565b91506102d383610123565b92508282019050808211156102eb576102ea610261565b5b92915050565b5f6102fb82610123565b915061030683610123565b925082820261031481610123565b9150828204841483151761032b5761032a610261565b5b5092915050565b5f61033c82610123565b915061034783610123565b925082820390508181111561035f5761035e610261565b5b9291505056fea2646970667358221220825a2a50253b0499b88efb0c29a369966b53c4ebb800ca6f0b6ec230776731eb64736f6c634300081d0033",
					"opcodes": "PUSH1 0x80 PUSH1 0x40 MSTORE CALLVALUE DUP1 ISZERO PUSH1 0xE JUMPI PUSH0 PUSH0 REVERT JUMPDEST POP PUSH2 0x39B DUP1 PUSH2 0x1C PUSH0 CODECOPY PUSH0 RETURN INVALID PUSH1 0x80 PUSH1 0x40 MSTORE CALLVALUE DUP1 ISZERO PUSH2 0xF JUMPI PUSH0 PUSH0 REVERT JUMPDEST POP PUSH1 0x4 CALLDATASIZE LT PUSH2 0x29 JUMPI PUSH0 CALLDATALOAD PUSH1 0xE0 SHR DUP1 PUSH4 0xB873995A EQ PUSH2 0x2D JUMPI JUMPDEST PUSH0 PUSH0 REVERT JUMPDEST PUSH2 0x47 PUSH1 0x4 DUP1 CALLDATASIZE SUB DUP2 ADD SWAP1 PUSH2 0x42 SWAP2 SWAP1 PUSH2 0x156 JUMP JUMPDEST PUSH2 0x5D JUMP JUMPDEST PUSH1 0x40 MLOAD PUSH2 0x54 SWAP2 SWAP1 PUSH2 0x1A3 JUMP JUMPDEST PUSH1 0x40 MLOAD DUP1 SWAP2 SUB SWAP1 RETURN JUMPDEST PUSH0 PUSH0 DUP3 GT PUSH2 0xA0 JUMPI PUSH1 0x40 MLOAD PUSH32 0x8C379A000000000000000000000000000000000000000000000000000000000 DUP2 MSTORE PUSH1 0x4 ADD PUSH2 0x97 SWAP1 PUSH2 0x216 JUMP JUMPDEST PUSH1 0x40 MLOAD DUP1 SWAP2 SUB SWAP1 REVERT JUMPDEST PUSH0 DUP3 DUP5 PUSH2 0xAD SWAP2 SWAP1 PUSH2 0x28E JUMP JUMPDEST PUSH8 0xDE0B6B3A7640000 PUSH2 0xC0 SWAP2 SWAP1 PUSH2 0x2BE JUMP JUMPDEST SWAP1 POP DUP1 SWAP2 POP PUSH0 PUSH1 0x1 SWAP1 POP JUMPDEST DUP4 DUP2 LT ISZERO PUSH2 0x101 JUMPI PUSH8 0xDE0B6B3A7640000 DUP3 DUP5 PUSH2 0xE8 SWAP2 SWAP1 PUSH2 0x2F1 JUMP JUMPDEST PUSH2 0xF2 SWAP2 SWAP1 PUSH2 0x28E JUMP JUMPDEST SWAP3 POP DUP1 DUP1 PUSH1 0x1 ADD SWAP2 POP POP PUSH2 0xCB JUMP JUMPDEST POP PUSH8 0xDE0B6B3A7640000 DUP3 PUSH2 0x116 SWAP2 SWAP1 PUSH2 0x332 JUMP JUMPDEST SWAP2 POP POP SWAP3 SWAP2 POP POP JUMP JUMPDEST PUSH0 PUSH0 REVERT JUMPDEST PUSH0 DUP2 SWAP1 POP SWAP2 SWAP1 POP JUMP JUMPDEST PUSH2 0x135 DUP2 PUSH2 0x123 JUMP JUMPDEST DUP2 EQ PUSH2 0x13F JUMPI PUSH0 PUSH0 REVERT JUMPDEST POP JUMP JUMPDEST PUSH0 DUP2 CALLDATALOAD SWAP1 POP PUSH2 0x150 DUP2 PUSH2 0x12C JUMP JUMPDEST SWAP3 SWAP2 POP POP JUMP JUMPDEST PUSH0 PUSH0 PUSH1 0x40 DUP4 DUP6 SUB SLT ISZERO PUSH2 0x16C JUMPI PUSH2 0x16B PUSH2 0x11F JUMP JUMPDEST JUMPDEST PUSH0 PUSH2 0x179 DUP6 DUP3 DUP7 ADD PUSH2 0x142 JUMP JUMPDEST SWAP3 POP POP PUSH1 0x20 PUSH2 0x18A DUP6 DUP3 DUP7 ADD PUSH2 0x142 JUMP JUMPDEST SWAP2 POP POP SWAP3 POP SWAP3 SWAP1 POP JUMP JUMPDEST PUSH2 0x19D DUP2 PUSH2 0x123 JUMP JUMPDEST DUP3 MSTORE POP POP JUMP JUMPDEST PUSH0 PUSH1 0x20 DUP3 ADD SWAP1 POP PUSH2 0x1B6 PUSH0 DUP4 ADD DUP5 PUSH2 0x194 JUMP JUMPDEST SWAP3 SWAP2 POP POP JUMP JUMPDEST PUSH0 DUP3 DUP3 MSTORE PUSH1 0x20 DUP3 ADD SWAP1 POP SWAP3 SWAP2 POP POP JUMP JUMPDEST PUSH32 0x4D75737420636F6D706F756E64206174206C65617374206F6E63650000000000 PUSH0 DUP3 ADD MSTORE POP JUMP JUMPDEST PUSH0 PUSH2 0x200 PUSH1 0x1B DUP4 PUSH2 0x1BC JUMP JUMPDEST SWAP2 POP PUSH2 0x20B DUP3 PUSH2 0x1CC JUMP JUMPDEST PUSH1 0x20 DUP3 ADD SWAP1 POP SWAP2 SWAP1 POP JUMP JUMPDEST PUSH0 PUSH1 0x20 DUP3 ADD SWAP1 POP DUP2 DUP2 SUB PUSH0 DUP4 ADD MSTORE PUSH2 0x22D DUP2 PUSH2 0x1F4 JUMP JUMPDEST SWAP1 POP SWAP2 SWAP1 POP JUMP JUMPDEST PUSH32 0x4E487B7100000000000000000000000000000000000000000000000000000000 PUSH0 MSTORE PUSH1 0x12 PUSH1 0x4 MSTORE PUSH1 0x24 PUSH0 REVERT JUMPDEST PUSH32 0x4E487B7100000000000000000000000000000000000000000000000000000000 PUSH0 MSTORE PUSH1 0x11 PUSH1 0x4 MSTORE PUSH1 0x24 PUSH0 REVERT JUMPDEST PUSH0 PUSH2 0x298 DUP3 PUSH2 0x123 JUMP JUMPDEST SWAP2 POP PUSH2 0x2A3 DUP4 PUSH2 0x123 JUMP JUMPDEST SWAP3 POP DUP3 PUSH2 0x2B3 JUMPI PUSH2 0x2B2 PUSH2 0x234 JUMP JUMPDEST JUMPDEST DUP3 DUP3 DIV SWAP1 POP SWAP3 SWAP2 POP POP JUMP JUMPDEST PUSH0 PUSH2 0x2C8 DUP3 PUSH2 0x123 JUMP JUMPDEST SWAP2 POP PUSH2 0x2D3 DUP4 PUSH2 0x123 JUMP JUMPDEST SWAP3 POP DUP3 DUP3 ADD SWAP1 POP DUP1 DUP3 GT ISZERO PUSH2 0x2EB JUMPI PUSH2 0x2EA PUSH2 0x261 JUMP JUMPDEST JUMPDEST SWAP3 SWAP2 POP POP JUMP JUMPDEST PUSH0 PUSH2 0x2FB DUP3 PUSH2 0x123 JUMP JUMPDEST SWAP2 POP PUSH2 0x306 DUP4 PUSH2 0x123 JUMP JUMPDEST SWAP3 POP DUP3 DUP3 MUL PUSH2 0x314 DUP2 PUSH2 0x123 JUMP JUMPDEST SWAP2 POP DUP3 DUP3 DIV DUP5 EQ DUP4 ISZERO OR PUSH2 0x32B JUMPI PUSH2 0x32A PUSH2 0x261 JUMP JUMPDEST JUMPDEST POP SWAP3 SWAP2 POP POP JUMP JUMPDEST PUSH0 PUSH2 0x33C DUP3 PUSH2 0x123 JUMP JUMPDEST SWAP2 POP PUSH2 0x347 DUP4 PUSH2 0x123 JUMP JUMPDEST SWAP3 POP DUP3 DUP3 SUB SWAP1 POP DUP2 DUP2 GT ISZERO PUSH2 0x35F JUMPI PUSH2 0x35E PUSH2 0x261 JUMP JUMPDEST JUMPDEST SWAP3 SWAP2 POP POP JUMP INVALID LOG2 PUSH5 0x6970667358 0x22 SLT KECCAK256 DUP3 GAS 0x2A POP 0x25 EXTCODESIZE DIV SWAP10 0xB8 DUP15 EXTSTATICCALL 0xC 0x29 LOG3 PUSH10 0x966B53C4EBB800CA6F0B PUSH15 0xC230776731EB64736F6C634300081D STOP CALLER "
				},
				"gasEstimates": {
					"creation": {
						"codeDepositCost": "184600",
						"executionCost": "224",
						"totalCost": "184824"
					},
					"external": {
						"calculateAPY(uint256,uint256)": "infinite"
					}
				},
				"methodIdentifiers": {
					"calculateAPY(uint256,uint256)": "b873995a"
				}
			},
			"storageLayout": {
				"storage": [],
				"types": null
			},
			"userdoc": {
				"kind": "user",
				"methods": {
					"calculateAPY(uint256,uint256)": {
						"notice": "Calculate APY from APR and compounding periods"
					}
				},
				"notice": "Converts APR to APY using compounding formula",
				"version": 1
			}
		}
	}
}