{
	"I/Approval Limiter.sol": {
		"ApprovalLimiter": {
			"abi": [
				{
					"inputs": [],
					"name": "MAX_APPROVAL",
					"outputs": [
						{
							"internalType": "uint256",
							"name": "",
							"type": "uint256"
						}
					],
					"stateMutability": "view",
					"type": "function"
				},
				{
					"inputs": [
						{
							"internalType": "address",
							"name": "token",
							"type": "address"
						},
						{
							"internalType": "address",
							"name": "spender",
							"type": "address"
						},
						{
							"internalType": "uint256",
							"name": "amount",
							"type": "uint256"
						}
					],
					"name": "safeApprove",
					"outputs": [],
					"stateMutability": "nonpayable",
					"type": "function"
				}
			],
			"devdoc": {
				"kind": "dev",
				"methods": {},
				"version": 1
			},
			"evm": {
				"assembly": "    /* \"I/Approval Limiter.sol\":116:411  contract ApprovalLimiter {... */\n  mstore(0x40, 0x80)\n  callvalue\n  dup1\n  iszero\n  tag_1\n  jumpi\n  revert(0x00, 0x00)\ntag_1:\n  pop\n  dataSize(sub_0)\n  dup1\n  dataOffset(sub_0)\n  0x00\n  codecopy\n  0x00\n  return\nstop\n\nsub_0: assembly {\n        /* \"I/Approval Limiter.sol\":116:411  contract ApprovalLimiter {... */\n      mstore(0x40, 0x80)\n      callvalue\n      dup1\n      iszero\n      tag_1\n      jumpi\n      revert(0x00, 0x00)\n    tag_1:\n      pop\n      jumpi(tag_2, lt(calldatasize, 0x04))\n      shr(0xe0, calldataload(0x00))\n      dup1\n      0x7f4ed8ee\n      eq\n      tag_3\n      jumpi\n      dup1\n      0xeb5625d9\n      eq\n      tag_4\n      jumpi\n    tag_2:\n      revert(0x00, 0x00)\n        /* \"I/Approval Limiter.sol\":147:197  uint256 public constant MAX_APPROVAL = 1000 * 1e18 */\n    tag_3:\n      tag_5\n      tag_6\n      jump\t// in\n    tag_5:\n      mload(0x40)\n      tag_7\n      swap2\n      swap1\n      tag_8\n      jump\t// in\n    tag_7:\n      mload(0x40)\n      dup1\n      swap2\n      sub\n      swap1\n      return\n        /* \"I/Approval Limiter.sol\":204:409  function safeApprove(address token, address spender, uint256 amount) external {... */\n    tag_4:\n      tag_9\n      0x04\n      dup1\n      calldatasize\n      sub\n      dup2\n      add\n      swap1\n      tag_10\n      swap2\n      swap1\n      tag_11\n      jump\t// in\n    tag_10:\n      tag_12\n      jump\t// in\n    tag_9:\n      stop\n        /* \"I/Approval Limiter.sol\":147:197  uint256 public constant MAX_APPROVAL = 1000 * 1e18 */\n    tag_6:\n        /* \"I/Approval Limiter.sol\":186:197  1000 * 1e18 */\n      0x3635c9adc5dea00000\n        /* \"I/Approval Limiter.sol\":147:197  uint256 public constant MAX_APPROVAL = 1000 * 1e18 */\n      dup2\n      jump\t// out\n        /* \"I/Approval Limiter.sol\":204:409  function safeApprove(address token, address spender, uint256 amount) external {... */\n    tag_12:\n        /* \"I/Approval Limiter.sol\":186:197  1000 * 1e18 */\n      0x3635c9adc5dea00000\n        /* \"I/Approval Limiter.sol\":300:306  amount */\n      dup2\n        /* \"I/Approval Limiter.sol\":300:322  amount <= MAX_APPROVAL */\n      gt\n      iszero\n        /* \"I/Approval Limiter.sol\":292:354  require(amount <= MAX_APPROVAL, \"Exceeds safe approval limit\") */\n      tag_14\n      jumpi\n      mload(0x40)\n      0x08c379a000000000000000000000000000000000000000000000000000000000\n      dup2\n      mstore\n      0x04\n      add\n      tag_15\n      swap1\n      tag_16\n      jump\t// in\n    tag_15:\n      mload(0x40)\n      dup1\n      swap2\n      sub\n      swap1\n      revert\n    tag_14:\n        /* \"I/Approval Limiter.sol\":371:376  token */\n      dup3\n        /* \"I/Approval Limiter.sol\":364:385  IERC20(token).approve */\n      0xffffffffffffffffffffffffffffffffffffffff\n      and\n      0x095ea7b3\n        /* \"I/Approval Limiter.sol\":386:393  spender */\n      dup4\n        /* \"I/Approval Limiter.sol\":395:401  amount */\n      dup4\n        /* \"I/Approval Limiter.sol\":364:402  IERC20(token).approve(spender, amount) */\n      mload(0x40)\n      dup4\n      0xffffffff\n      and\n      0xe0\n      shl\n      dup2\n      mstore\n      0x04\n      add\n      tag_17\n      swap3\n      swap2\n      swap1\n      tag_18\n      jump\t// in\n    tag_17:\n      0x20\n      mload(0x40)\n      dup1\n      dup4\n      sub\n      dup2\n      0x00\n      dup8\n      gas\n      call\n      iszero\n      dup1\n      iszero\n      tag_20\n      jumpi\n      returndatacopy(0x00, 0x00, returndatasize)\n      revert(0x00, returndatasize)\n    tag_20:\n      pop\n      pop\n      pop\n      pop\n      mload(0x40)\n      returndatasize\n      not(0x1f)\n      0x1f\n      dup3\n      add\n      and\n      dup3\n      add\n      dup1\n      0x40\n      mstore\n      pop\n      dup2\n      add\n      swap1\n      tag_21\n      swap2\n      swap1\n      tag_22\n      jump\t// in\n    tag_21:\n      pop\n        /* \"I/Approval Limiter.sol\":204:409  function safeApprove(address token, address spender, uint256 amount) external {... */\n      pop\n      pop\n      pop\n      jump\t// out\n        /* \"#utility.yul\":7:84   */\n    tag_23:\n        /* \"#utility.yul\":44:51   */\n      0x00\n        /* \"#utility.yul\":73:78   */\n      dup2\n        /* \"#utility.yul\":62:78   */\n      swap1\n      pop\n        /* \"#utility.yul\":7:84   */\n      swap2\n      swap1\n      pop\n      jump\t// out\n        /* \"#utility.yul\":90:208   */\n    tag_24:\n        /* \"#utility.yul\":177:201   */\n      tag_44\n        /* \"#utility.yul\":195:200   */\n      dup2\n        /* \"#utility.yul\":177:201   */\n      tag_23\n      jump\t// in\n    tag_44:\n        /* \"#utility.yul\":172:175   */\n      dup3\n        /* \"#utility.yul\":165:202   */\n      mstore\n        /* \"#utility.yul\":90:208   */\n      pop\n      pop\n      jump\t// out\n        /* \"#utility.yul\":214:436   */\n    tag_8:\n        /* \"#utility.yul\":307:311   */\n      0x00\n        /* \"#utility.yul\":345:347   */\n      0x20\n        /* \"#utility.yul\":334:343   */\n      dup3\n        /* \"#utility.yul\":330:348   */\n      add\n        /* \"#utility.yul\":322:348   */\n      swap1\n      pop\n        /* \"#utility.yul\":358:429   */\n      tag_46\n        /* \"#utility.yul\":426:427   */\n      0x00\n        /* \"#utility.yul\":415:424   */\n      dup4\n        /* \"#utility.yul\":411:428   */\n      add\n        /* \"#utility.yul\":402:408   */\n      dup5\n        /* \"#utility.yul\":358:429   */\n      tag_24\n      jump\t// in\n    tag_46:\n        /* \"#utility.yul\":214:436   */\n      swap3\n      swap2\n      pop\n      pop\n      jump\t// out\n        /* \"#utility.yul\":523:640   */\n    tag_26:\n        /* \"#utility.yul\":632:633   */\n      0x00\n        /* \"#utility.yul\":629:630   */\n      0x00\n        /* \"#utility.yul\":622:634   */\n      revert\n        /* \"#utility.yul\":769:895   */\n    tag_28:\n        /* \"#utility.yul\":806:813   */\n      0x00\n        /* \"#utility.yul\":846:888   */\n      0xffffffffffffffffffffffffffffffffffffffff\n        /* \"#utility.yul\":839:844   */\n      dup3\n        /* \"#utility.yul\":835:889   */\n      and\n        /* \"#utility.yul\":824:889   */\n      swap1\n      pop\n        /* \"#utility.yul\":769:895   */\n      swap2\n      swap1\n      pop\n      jump\t// out\n        /* \"#utility.yul\":901:997   */\n    tag_29:\n        /* \"#utility.yul\":938:945   */\n      0x00\n        /* \"#utility.yul\":967:991   */\n      tag_52\n        /* \"#utility.yul\":985:990   */\n      dup3\n        /* \"#utility.yul\":967:991   */\n      tag_28\n      jump\t// in\n    tag_52:\n        /* \"#utility.yul\":956:991   */\n      swap1\n      pop\n        /* \"#utility.yul\":901:997   */\n      swap2\n      swap1\n      pop\n      jump\t// out\n        /* \"#utility.yul\":1003:1125   */\n    tag_30:\n        /* \"#utility.yul\":1076:1100   */\n      tag_54\n        /* \"#utility.yul\":1094:1099   */\n      dup2\n        /* \"#utility.yul\":1076:1100   */\n      tag_29\n      jump\t// in\n    tag_54:\n        /* \"#utility.yul\":1069:1074   */\n      dup2\n        /* \"#utility.yul\":1066:1101   */\n      eq\n        /* \"#utility.yul\":1056:1119   */\n      tag_55\n      jumpi\n        /* \"#utility.yul\":1115:1116   */\n      0x00\n        /* \"#utility.yul\":1112:1113   */\n      0x00\n        /* \"#utility.yul\":1105:1117   */\n      revert\n        /* \"#utility.yul\":1056:1119   */\n    tag_55:\n        /* \"#utility.yul\":1003:1125   */\n      pop\n      jump\t// out\n        /* \"#utility.yul\":1131:1270   */\n    tag_31:\n        /* \"#utility.yul\":1177:1182   */\n      0x00\n        /* \"#utility.yul\":1215:1221   */\n      dup2\n        /* \"#utility.yul\":1202:1222   */\n      calldataload\n        /* \"#utility.yul\":1193:1222   */\n      swap1\n      pop\n        /* \"#utility.yul\":1231:1264   */\n      tag_57\n        /* \"#utility.yul\":1258:1263   */\n      dup2\n        /* \"#utility.yul\":1231:1264   */\n      tag_30\n      jump\t// in\n    tag_57:\n        /* \"#utility.yul\":1131:1270   */\n      swap3\n      swap2\n      pop\n      pop\n      jump\t// out\n        /* \"#utility.yul\":1276:1398   */\n    tag_32:\n        /* \"#utility.yul\":1349:1373   */\n      tag_59\n        /* \"#utility.yul\":1367:1372   */\n      dup2\n        /* \"#utility.yul\":1349:1373   */\n      tag_23\n      jump\t// in\n    tag_59:\n        /* \"#utility.yul\":1342:1347   */\n      dup2\n        /* \"#utility.yul\":1339:1374   */\n      eq\n        /* \"#utility.yul\":1329:1392   */\n      tag_60\n      jumpi\n        /* \"#utility.yul\":1388:1389   */\n      0x00\n        /* \"#utility.yul\":1385:1386   */\n      0x00\n        /* \"#utility.yul\":1378:1390   */\n      revert\n        /* \"#utility.yul\":1329:1392   */\n    tag_60:\n        /* \"#utility.yul\":1276:1398   */\n      pop\n      jump\t// out\n        /* \"#utility.yul\":1404:1543   */\n    tag_33:\n        /* \"#utility.yul\":1450:1455   */\n      0x00\n        /* \"#utility.yul\":1488:1494   */\n      dup2\n        /* \"#utility.yul\":1475:1495   */\n      calldataload\n        /* \"#utility.yul\":1466:1495   */\n      swap1\n      pop\n        /* \"#utility.yul\":1504:1537   */\n      tag_62\n        /* \"#utility.yul\":1531:1536   */\n      dup2\n        /* \"#utility.yul\":1504:1537   */\n      tag_32\n      jump\t// in\n    tag_62:\n        /* \"#utility.yul\":1404:1543   */\n      swap3\n      swap2\n      pop\n      pop\n      jump\t// out\n        /* \"#utility.yul\":1549:2168   */\n    tag_11:\n        /* \"#utility.yul\":1626:1632   */\n      0x00\n        /* \"#utility.yul\":1634:1640   */\n      0x00\n        /* \"#utility.yul\":1642:1648   */\n      0x00\n        /* \"#utility.yul\":1691:1693   */\n      0x60\n        /* \"#utility.yul\":1679:1688   */\n      dup5\n        /* \"#utility.yul\":1670:1677   */\n      dup7\n        /* \"#utility.yul\":1666:1689   */\n      sub\n        /* \"#utility.yul\":1662:1694   */\n      slt\n        /* \"#utility.yul\":1659:1778   */\n      iszero\n      tag_64\n      jumpi\n        /* \"#utility.yul\":1697:1776   */\n      tag_65\n      tag_26\n      jump\t// in\n    tag_65:\n        /* \"#utility.yul\":1659:1778   */\n    tag_64:\n        /* \"#utility.yul\":1817:1818   */\n      0x00\n        /* \"#utility.yul\":1842:1895   */\n      tag_66\n        /* \"#utility.yul\":1887:1894   */\n      dup7\n        /* \"#utility.yul\":1878:1884   */\n      dup3\n        /* \"#utility.yul\":1867:1876   */\n      dup8\n        /* \"#utility.yul\":1863:1885   */\n      add\n        /* \"#utility.yul\":1842:1895   */\n      tag_31\n      jump\t// in\n    tag_66:\n        /* \"#utility.yul\":1832:1895   */\n      swap4\n      pop\n        /* \"#utility.yul\":1788:1905   */\n      pop\n        /* \"#utility.yul\":1944:1946   */\n      0x20\n        /* \"#utility.yul\":1970:2023   */\n      tag_67\n        /* \"#utility.yul\":2015:2022   */\n      dup7\n        /* \"#utility.yul\":2006:2012   */\n      dup3\n        /* \"#utility.yul\":1995:2004   */\n      dup8\n        /* \"#utility.yul\":1991:2013   */\n      add\n        /* \"#utility.yul\":1970:2023   */\n      tag_31\n      jump\t// in\n    tag_67:\n        /* \"#utility.yul\":1960:2023   */\n      swap3\n      pop\n        /* \"#utility.yul\":1915:2033   */\n      pop\n        /* \"#utility.yul\":2072:2074   */\n      0x40\n        /* \"#utility.yul\":2098:2151   */\n      tag_68\n        /* \"#utility.yul\":2143:2150   */\n      dup7\n        /* \"#utility.yul\":2134:2140   */\n      dup3\n        /* \"#utility.yul\":2123:2132   */\n      dup8\n        /* \"#utility.yul\":2119:2141   */\n      add\n        /* \"#utility.yul\":2098:2151   */\n      tag_33\n      jump\t// in\n    tag_68:\n        /* \"#utility.yul\":2088:2151   */\n      swap2\n      pop\n        /* \"#utility.yul\":2043:2161   */\n      pop\n        /* \"#utility.yul\":1549:2168   */\n      swap3\n      pop\n      swap3\n      pop\n      swap3\n      jump\t// out\n        /* \"#utility.yul\":2174:2343   */\n    tag_34:\n        /* \"#utility.yul\":2258:2269   */\n      0x00\n        /* \"#utility.yul\":2292:2298   */\n      dup3\n        /* \"#utility.yul\":2287:2290   */\n      dup3\n        /* \"#utility.yul\":2280:2299   */\n      mstore\n        /* \"#utility.yul\":2332:2336   */\n      0x20\n        /* \"#utility.yul\":2327:2330   */\n      dup3\n        /* \"#utility.yul\":2323:2337   */\n      add\n        /* \"#utility.yul\":2308:2337   */\n      swap1\n      pop\n        /* \"#utility.yul\":2174:2343   */\n      swap3\n      swap2\n      pop\n      pop\n      jump\t// out\n        /* \"#utility.yul\":2349:2526   */\n    tag_35:\n        /* \"#utility.yul\":2489:2518   */\n      0x45786365656473207361666520617070726f76616c206c696d69740000000000\n        /* \"#utility.yul\":2485:2486   */\n      0x00\n        /* \"#utility.yul\":2477:2483   */\n      dup3\n        /* \"#utility.yul\":2473:2487   */\n      add\n        /* \"#utility.yul\":2466:2519   */\n      mstore\n        /* \"#utility.yul\":2349:2526   */\n      pop\n      jump\t// out\n        /* \"#utility.yul\":2532:2898   */\n    tag_36:\n        /* \"#utility.yul\":2674:2677   */\n      0x00\n        /* \"#utility.yul\":2695:2762   */\n      tag_72\n        /* \"#utility.yul\":2759:2761   */\n      0x1b\n        /* \"#utility.yul\":2754:2757   */\n      dup4\n        /* \"#utility.yul\":2695:2762   */\n      tag_34\n      jump\t// in\n    tag_72:\n        /* \"#utility.yul\":2688:2762   */\n      swap2\n      pop\n        /* \"#utility.yul\":2771:2864   */\n      tag_73\n        /* \"#utility.yul\":2860:2863   */\n      dup3\n        /* \"#utility.yul\":2771:2864   */\n      tag_35\n      jump\t// in\n    tag_73:\n        /* \"#utility.yul\":2889:2891   */\n      0x20\n        /* \"#utility.yul\":2884:2887   */\n      dup3\n        /* \"#utility.yul\":2880:2892   */\n      add\n        /* \"#utility.yul\":2873:2892   */\n      swap1\n      pop\n        /* \"#utility.yul\":2532:2898   */\n      swap2\n      swap1\n      pop\n      jump\t// out\n        /* \"#utility.yul\":2904:3323   */\n    tag_16:\n        /* \"#utility.yul\":3070:3074   */\n      0x00\n        /* \"#utility.yul\":3108:3110   */\n      0x20\n        /* \"#utility.yul\":3097:3106   */\n      dup3\n        /* \"#utility.yul\":3093:3111   */\n      add\n        /* \"#utility.yul\":3085:3111   */\n      swap1\n      pop\n        /* \"#utility.yul\":3157:3166   */\n      dup2\n        /* \"#utility.yul\":3151:3155   */\n      dup2\n        /* \"#utility.yul\":3147:3167   */\n      sub\n        /* \"#utility.yul\":3143:3144   */\n      0x00\n        /* \"#utility.yul\":3132:3141   */\n      dup4\n        /* \"#utility.yul\":3128:3145   */\n      add\n        /* \"#utility.yul\":3121:3168   */\n      mstore\n        /* \"#utility.yul\":3185:3316   */\n      tag_75\n        /* \"#utility.yul\":3311:3315   */\n      dup2\n        /* \"#utility.yul\":3185:3316   */\n      tag_36\n      jump\t// in\n    tag_75:\n        /* \"#utility.yul\":3177:3316   */\n      swap1\n      pop\n        /* \"#utility.yul\":2904:3323   */\n      swap2\n      swap1\n      pop\n      jump\t// out\n        /* \"#utility.yul\":3329:3447   */\n    tag_37:\n        /* \"#utility.yul\":3416:3440   */\n      tag_77\n        /* \"#utility.yul\":3434:3439   */\n      dup2\n        /* \"#utility.yul\":3416:3440   */\n      tag_29\n      jump\t// in\n    tag_77:\n        /* \"#utility.yul\":3411:3414   */\n      dup3\n        /* \"#utility.yul\":3404:3441   */\n      mstore\n        /* \"#utility.yul\":3329:3447   */\n      pop\n      pop\n      jump\t// out\n        /* \"#utility.yul\":3453:3785   */\n    tag_18:\n        /* \"#utility.yul\":3574:3578   */\n      0x00\n        /* \"#utility.yul\":3612:3614   */\n      0x40\n        /* \"#utility.yul\":3601:3610   */\n      dup3\n        /* \"#utility.yul\":3597:3615   */\n      add\n        /* \"#utility.yul\":3589:3615   */\n      swap1\n      pop\n        /* \"#utility.yul\":3625:3696   */\n      tag_79\n        /* \"#utility.yul\":3693:3694   */\n      0x00\n        /* \"#utility.yul\":3682:3691   */\n      dup4\n        /* \"#utility.yul\":3678:3695   */\n      add\n        /* \"#utility.yul\":3669:3675   */\n      dup6\n        /* \"#utility.yul\":3625:3696   */\n      tag_37\n      jump\t// in\n    tag_79:\n        /* \"#utility.yul\":3706:3778   */\n      tag_80\n        /* \"#utility.yul\":3774:3776   */\n      0x20\n        /* \"#utility.yul\":3763:3772   */\n      dup4\n        /* \"#utility.yul\":3759:3777   */\n      add\n        /* \"#utility.yul\":3750:3756   */\n      dup5\n        /* \"#utility.yul\":3706:3778   */\n      tag_24\n      jump\t// in\n    tag_80:\n        /* \"#utility.yul\":3453:3785   */\n      swap4\n      swap3\n      pop\n      pop\n      pop\n      jump\t// out\n        /* \"#utility.yul\":3791:3881   */\n    tag_38:\n        /* \"#utility.yul\":3825:3832   */\n      0x00\n        /* \"#utility.yul\":3868:3873   */\n      dup2\n        /* \"#utility.yul\":3861:3874   */\n      iszero\n        /* \"#utility.yul\":3854:3875   */\n      iszero\n        /* \"#utility.yul\":3843:3875   */\n      swap1\n      pop\n        /* \"#utility.yul\":3791:3881   */\n      swap2\n      swap1\n      pop\n      jump\t// out\n        /* \"#utility.yul\":3887:4003   */\n    tag_39:\n        /* \"#utility.yul\":3957:3978   */\n      tag_83\n        /* \"#utility.yul\":3972:3977   */\n      dup2\n        /* \"#utility.yul\":3957:3978   */\n      tag_38\n      jump\t// in\n    tag_83:\n        /* \"#utility.yul\":3950:3955   */\n      dup2\n        /* \"#utility.yul\":3947:3979   */\n      eq\n        /* \"#utility.yul\":3937:3997   */\n      tag_84\n      jumpi\n        /* \"#utility.yul\":3993:3994   */\n      0x00\n        /* \"#utility.yul\":3990:3991   */\n      0x00\n        /* \"#utility.yul\":3983:3995   */\n      revert\n        /* \"#utility.yul\":3937:3997   */\n    tag_84:\n        /* \"#utility.yul\":3887:4003   */\n      pop\n      jump\t// out\n        /* \"#utility.yul\":4009:4146   */\n    tag_40:\n        /* \"#utility.yul\":4063:4068   */\n      0x00\n        /* \"#utility.yul\":4094:4100   */\n      dup2\n        /* \"#utility.yul\":4088:4101   */\n      mload\n        /* \"#utility.yul\":4079:4101   */\n      swap1\n      pop\n        /* \"#utility.yul\":4110:4140   */\n      tag_86\n        /* \"#utility.yul\":4134:4139   */\n      dup2\n        /* \"#utility.yul\":4110:4140   */\n      tag_39\n      jump\t// in\n    tag_86:\n        /* \"#utility.yul\":4009:4146   */\n      swap3\n      swap2\n      pop\n      pop\n      jump\t// out\n        /* \"#utility.yul\":4152:4497   */\n    tag_22:\n        /* \"#utility.yul\":4219:4225   */\n      0x00\n        /* \"#utility.yul\":4268:4270   */\n      0x20\n        /* \"#utility.yul\":4256:4265   */\n      dup3\n        /* \"#utility.yul\":4247:4254   */\n      dup5\n        /* \"#utility.yul\":4243:4266   */\n      sub\n        /* \"#utility.yul\":4239:4271   */\n      slt\n        /* \"#utility.yul\":4236:4355   */\n      iszero\n      tag_88\n      jumpi\n        /* \"#utility.yul\":4274:4353   */\n      tag_89\n      tag_26\n      jump\t// in\n    tag_89:\n        /* \"#utility.yul\":4236:4355   */\n    tag_88:\n        /* \"#utility.yul\":4394:4395   */\n      0x00\n        /* \"#utility.yul\":4419:4480   */\n      tag_90\n        /* \"#utility.yul\":4472:4479   */\n      dup5\n        /* \"#utility.yul\":4463:4469   */\n      dup3\n        /* \"#utility.yul\":4452:4461   */\n      dup6\n        /* \"#utility.yul\":4448:4470   */\n      add\n        /* \"#utility.yul\":4419:4480   */\n      tag_40\n      jump\t// in\n    tag_90:\n        /* \"#utility.yul\":4409:4480   */\n      swap2\n      pop\n        /* \"#utility.yul\":4365:4490   */\n      pop\n        /* \"#utility.yul\":4152:4497   */\n      swap3\n      swap2\n      pop\n      pop\n      jump\t// out\n\n    auxdata: 0xa2646970667358221220938b7031212c50186f27164e2331f95b8b3080747ce0de1983f2b0bef3ca9af664736f6c634300081d0033\n}\n",
				"bytecode": {
					"linkReferences": {},
					"object": "6080604052348015600e575f5ffd5b506103998061001c5f395ff3fe608060405234801561000f575f5ffd5b5060043610610034575f3560e01c80637f4ed8ee14610038578063eb5625d914610056575b5f5ffd5b610040610072565b60405161004d9190610164565b60405180910390f35b610070600480360381019061006b9190610205565b61007f565b005b683635c9adc5dea0000081565b683635c9adc5dea000008111156100cb576040517f08c379a00000000000000000000000000000000000000000000000000000000081526004016100c2906102af565b60405180910390fd5b8273ffffffffffffffffffffffffffffffffffffffff1663095ea7b383836040518363ffffffff1660e01b81526004016101069291906102dc565b6020604051808303815f875af1158015610122573d5f5f3e3d5ffd5b505050506040513d601f19601f820116820180604052508101906101469190610338565b50505050565b5f819050919050565b61015e8161014c565b82525050565b5f6020820190506101775f830184610155565b92915050565b5f5ffd5b5f73ffffffffffffffffffffffffffffffffffffffff82169050919050565b5f6101aa82610181565b9050919050565b6101ba816101a0565b81146101c4575f5ffd5b50565b5f813590506101d5816101b1565b92915050565b6101e48161014c565b81146101ee575f5ffd5b50565b5f813590506101ff816101db565b92915050565b5f5f5f6060848603121561021c5761021b61017d565b5b5f610229868287016101c7565b935050602061023a868287016101c7565b925050604061024b868287016101f1565b9150509250925092565b5f82825260208201905092915050565b7f45786365656473207361666520617070726f76616c206c696d697400000000005f82015250565b5f610299601b83610255565b91506102a482610265565b602082019050919050565b5f6020820190508181035f8301526102c68161028d565b9050919050565b6102d6816101a0565b82525050565b5f6040820190506102ef5f8301856102cd565b6102fc6020830184610155565b9392505050565b5f8115159050919050565b61031781610303565b8114610321575f5ffd5b50565b5f815190506103328161030e565b92915050565b5f6020828403121561034d5761034c61017d565b5b5f61035a84828501610324565b9150509291505056fea2646970667358221220938b7031212c50186f27164e2331f95b8b3080747ce0de1983f2b0bef3ca9af664736f6c634300081d0033",
					"opcodes": "PUSH1 0x80 PUSH1 0x40 MSTORE CALLVALUE DUP1 ISZERO PUSH1 0xE JUMPI PUSH0 PUSH0 REVERT JUMPDEST POP PUSH2 0x399 DUP1 PUSH2 0x1C PUSH0 CODECOPY PUSH0 RETURN INVALID PUSH1 0x80 PUSH1 0x40 MSTORE CALLVALUE DUP1 ISZERO PUSH2 0xF JUMPI PUSH0 PUSH0 REVERT JUMPDEST POP PUSH1 0x4 CALLDATASIZE LT PUSH2 0x34 JUMPI PUSH0 CALLDATALOAD PUSH1 0xE0 SHR DUP1 PUSH4 0x7F4ED8EE EQ PUSH2 0x38 JUMPI DUP1 PUSH4 0xEB5625D9 EQ PUSH2 0x56 JUMPI JUMPDEST PUSH0 PUSH0 REVERT JUMPDEST PUSH2 0x40 PUSH2 0x72 JUMP JUMPDEST PUSH1 0x40 MLOAD PUSH2 0x4D SWAP2 SWAP1 PUSH2 0x164 JUMP JUMPDEST PUSH1 0x40 MLOAD DUP1 SWAP2 SUB SWAP1 RETURN JUMPDEST PUSH2 0x70 PUSH1 0x4 DUP1 CALLDATASIZE SUB DUP2 ADD SWAP1 PUSH2 0x6B SWAP2 SWAP1 PUSH2 0x205 JUMP JUMPDEST PUSH2 0x7F JUMP JUMPDEST STOP JUMPDEST PUSH9 0x3635C9ADC5DEA00000 DUP2 JUMP JUMPDEST PUSH9 0x3635C9ADC5DEA00000 DUP2 GT ISZERO PUSH2 0xCB JUMPI PUSH1 0x40 MLOAD PUSH32 0x8C379A000000000000000000000000000000000000000000000000000000000 DUP2 MSTORE PUSH1 0x4 ADD PUSH2 0xC2 SWAP1 PUSH2 0x2AF JUMP JUMPDEST PUSH1 0x40 MLOAD DUP1 SWAP2 SUB SWAP1 REVERT JUMPDEST DUP3 PUSH20 0xFFFFFFFFFFFFFFFFFFFFFFFFFFFFFFFFFFFFFFFF AND PUSH4 0x95EA7B3 DUP4 DUP4 PUSH1 0x40 MLOAD DUP4 PUSH4 0xFFFFFFFF AND PUSH1 0xE0 SHL DUP2 MSTORE PUSH1 0x4 ADD PUSH2 0x106 SWAP3 SWAP2 SWAP1 PUSH2 0x2DC JUMP JUMPDEST PUSH1 0x20 PUSH1 0x40 MLOAD DUP1 DUP4 SUB DUP2 PUSH0 DUP8 GAS CALL ISZERO DUP1 ISZERO PUSH2 0x122 JUMPI RETURNDATASIZE PUSH0 PUSH0 RETURNDATACOPY RETURNDATASIZE PUSH0 REVERT JUMPDEST POP POP POP POP PUSH1 0x40 MLOAD RETURNDATASIZE PUSH1 0x1F NOT PUSH1 0x1F DUP3 ADD AND DUP3 ADD DUP1 PUSH1 0x40 MSTORE POP DUP2 ADD SWAP1 PUSH2 0x146 SWAP2 SWAP1 PUSH2 0x338 JUMP JUMPDEST POP POP POP POP JUMP JUMPDEST PUSH0 DUP2 SWAP1 POP SWAP2 SWAP1 POP JUMP JUMPDEST PUSH2 0x15E DUP2 PUSH2 0x14C JUMP JUMPDEST DUP3 MSTORE POP POP JUMP JUMPDEST PUSH0 PUSH1 0x20 DUP3 ADD SWAP1 POP PUSH2 0x177 PUSH0 DUP4 ADD DUP5 PUSH2 0x155 JUMP JUMPDEST SWAP3 SWAP2 POP POP JUMP JUMPDEST PUSH0 PUSH0 REVERT JUMPDEST PUSH0 PUSH20 0xFFFFFFFFFFFFFFFFFFFFFFFFFFFFFFFFFFFFFFFF DUP3 AND SWAP1 POP SWAP2 SWAP1 POP JUMP JUMPDEST PUSH0 PUSH2 0x1AA DUP3 PUSH2 0x181 JUMP JUMPDEST SWAP1 POP SWAP2 SWAP1 POP JUMP JUMPDEST PUSH2 0x1BA DUP2 PUSH2 0x1A0 JUMP JUMPDEST DUP2 EQ PUSH2 0x1C4 JUMPI PUSH0 PUSH0 REVERT JUMPDEST POP JUMP JUMPDEST PUSH0 DUP2 CALLDATALOAD SWAP1 POP PUSH2 0x1D5 DUP2 PUSH2 0x1B1 JUMP JUMPDEST SWAP3 SWAP2 POP POP JUMP JUMPDEST PUSH2 0x1E4 DUP2 PUSH2 0x14C JUMP JUMPDEST DUP2 EQ PUSH2 0x1EE JUMPI PUSH0 PUSH0 REVERT JUMPDEST POP JUMP JUMPDEST PUSH0 DUP2 CALLDATALOAD SWAP1 POP PUSH2 0x1FF DUP2 PUSH2 0x1DB JUMP JUMPDEST SWAP3 SWAP2 POP POP JUMP JUMPDEST PUSH0 PUSH0 PUSH0 PUSH1 0x60 DUP5 DUP7 SUB SLT ISZERO PUSH2 0x21C JUMPI PUSH2 0x21B PUSH2 0x17D JUMP JUMPDEST JUMPDEST PUSH0 PUSH2 0x229 DUP7 DUP3 DUP8 ADD PUSH2 0x1C7 JUMP JUMPDEST SWAP4 POP POP PUSH1 0x20 PUSH2 0x23A DUP7 DUP3 DUP8 ADD PUSH2 0x1C7 JUMP JUMPDEST SWAP3 POP POP PUSH1 0x40 PUSH2 0x24B DUP7 DUP3 DUP8 ADD PUSH2 0x1F1 JUMP JUMPDEST SWAP2 POP POP SWAP3 POP SWAP3 POP SWAP3 JUMP JUMPDEST PUSH0 DUP3 DUP3 MSTORE PUSH1 0x20 DUP3 ADD SWAP1 POP SWAP3 SWAP2 POP POP JUMP JUMPDEST PUSH32 0x45786365656473207361666520617070726F76616C206C696D69740000000000 PUSH0 DUP3 ADD MSTORE POP JUMP JUMPDEST PUSH0 PUSH2 0x299 PUSH1 0x1B DUP4 PUSH2 0x255 JUMP JUMPDEST SWAP2 POP PUSH2 0x2A4 DUP3 PUSH2 0x265 JUMP JUMPDEST PUSH1 0x20 DUP3 ADD SWAP1 POP SWAP2 SWAP1 POP JUMP JUMPDEST PUSH0 PUSH1 0x20 DUP3 ADD SWAP1 POP DUP2 DUP2 SUB PUSH0 DUP4 ADD MSTORE PUSH2 0x2C6 DUP2 PUSH2 0x28D JUMP JUMPDEST SWAP1 POP SWAP2 SWAP1 POP JUMP JUMPDEST PUSH2 0x2D6 DUP2 PUSH2 0x1A0 JUMP JUMPDEST DUP3 MSTORE POP POP JUMP JUMPDEST PUSH0 PUSH1 0x40 DUP3 ADD SWAP1 POP PUSH2 0x2EF PUSH0 DUP4 ADD DUP6 PUSH2 0x2CD JUMP JUMPDEST PUSH2 0x2FC PUSH1 0x20 DUP4 ADD DUP5 PUSH2 0x155 JUMP JUMPDEST SWAP4 SWAP3 POP POP POP JUMP JUMPDEST PUSH0 DUP2 ISZERO ISZERO SWAP1 POP SWAP2 SWAP1 POP JUMP JUMPDEST PUSH2 0x317 DUP2 PUSH2 0x303 JUMP JUMPDEST DUP2 EQ PUSH2 0x321 JUMPI PUSH0 PUSH0 REVERT JUMPDEST POP JUMP JUMPDEST PUSH0 DUP2 MLOAD SWAP1 POP PUSH2 0x332 DUP2 PUSH2 0x30E JUMP JUMPDEST SWAP3 SWAP2 POP POP JUMP JUMPDEST PUSH0 PUSH1 0x20 DUP3 DUP5 SUB SLT ISZERO PUSH2 0x34D JUMPI PUSH2 0x34C PUSH2 0x17D JUMP JUMPDEST JUMPDEST PUSH0 PUSH2 0x35A DUP5 DUP3 DUP6 ADD PUSH2 0x324 JUMP JUMPDEST SWAP2 POP POP SWAP3 SWAP2 POP POP JUMP INVALID LOG2 PUSH5 0x6970667358 0x22 SLT KECCAK256 SWAP4 DUP12 PUSH17 0x31212C50186F27164E2331F95B8B308074 PUSH29 0xE0DE1983F2B0BEF3CA9AF664736F6C634300081D003300000000000000 "
				},
				"gasEstimates": {
					"creation": {
						"codeDepositCost": "184200",
						"executionCost": "224",
						"totalCost": "184424"
					},
					"external": {
						"MAX_APPROVAL()": "303",
						"safeApprove(address,address,uint256)": "infinite"
					}
				},
				"methodIdentifiers": {
					"MAX_APPROVAL()": "7f4ed8ee",
					"safeApprove(address,address,uint256)": "eb5625d9"
				}
			},
			"storageLayout": {
				"storage": [],
				"types": null
			},
			"userdoc": {
				"kind": "user",
				"methods": {},
				"version": 1
			}
		}
	}
}