{
	"I/Proxy Contract With Hidden Infinite Approval Logic.sol": {
		"ProxyApprover": {
			"abi": [
				{
					"inputs": [
						{
							"internalType": "address",
							"name": "_target",
							"type": "address"
						}
					],
					"stateMutability": "nonpayable",
					"type": "constructor"
				},
				{
					"inputs": [
						{
							"internalType": "address",
							"name": "token",
							"type": "address"
						},
						{
							"internalType": "address",
							"name": "spender",
							"type": "address"
						}
					],
					"name": "approveOnBehalf",
					"outputs": [],
					"stateMutability": "nonpayable",
					"type": "function"
				},
				{
					"inputs": [],
					"name": "target",
					"outputs": [
						{
							"internalType": "address",
							"name": "",
							"type": "address"
						}
					],
					"stateMutability": "view",
					"type": "function"
				}
			],
			"devdoc": {
				"kind": "dev",
				"methods": {},
				"version": 1
			},
			"evm": {
				"assembly": "    /* \"I/Proxy Contract With Hidden Infinite Approval Logic.sol\":116:430  contract ProxyApprover {... */\n  mstore(0x40, 0x80)\n    /* \"I/Proxy Contract With Hidden Infinite Approval Logic.sol\":173:235  constructor(address _target) {... */\n  callvalue\n  dup1\n  iszero\n  tag_1\n  jumpi\n  revert(0x00, 0x00)\ntag_1:\n  pop\n  mload(0x40)\n  sub(codesize, bytecodeSize)\n  dup1\n  bytecodeSize\n  dup4\n  codecopy\n  dup2\n  dup2\n  add\n  0x40\n  mstore\n  dup2\n  add\n  swap1\n  tag_2\n  swap2\n  swap1\n  tag_3\n  jump\t// in\ntag_2:\n    /* \"I/Proxy Contract With Hidden Infinite Approval Logic.sol\":221:228  _target */\n  dup1\n    /* \"I/Proxy Contract With Hidden Infinite Approval Logic.sol\":212:218  target */\n  0x00\n  0x00\n    /* \"I/Proxy Contract With Hidden Infinite Approval Logic.sol\":212:228  target = _target */\n  0x0100\n  exp\n  dup2\n  sload\n  dup2\n  0xffffffffffffffffffffffffffffffffffffffff\n  mul\n  not\n  and\n  swap1\n  dup4\n  0xffffffffffffffffffffffffffffffffffffffff\n  and\n  mul\n  or\n  swap1\n  sstore\n  pop\n    /* \"I/Proxy Contract With Hidden Infinite Approval Logic.sol\":173:235  constructor(address _target) {... */\n  pop\n    /* \"I/Proxy Contract With Hidden Infinite Approval Logic.sol\":116:430  contract ProxyApprover {... */\n  jump(tag_6)\n    /* \"#utility.yul\":88:205   */\ntag_8:\n    /* \"#utility.yul\":197:198   */\n  0x00\n    /* \"#utility.yul\":194:195   */\n  0x00\n    /* \"#utility.yul\":187:199   */\n  revert\n    /* \"#utility.yul\":334:460   */\ntag_10:\n    /* \"#utility.yul\":371:378   */\n  0x00\n    /* \"#utility.yul\":411:453   */\n  0xffffffffffffffffffffffffffffffffffffffff\n    /* \"#utility.yul\":404:409   */\n  dup3\n    /* \"#utility.yul\":400:454   */\n  and\n    /* \"#utility.yul\":389:454   */\n  swap1\n  pop\n    /* \"#utility.yul\":334:460   */\n  swap2\n  swap1\n  pop\n  jump\t// out\n    /* \"#utility.yul\":466:562   */\ntag_11:\n    /* \"#utility.yul\":503:510   */\n  0x00\n    /* \"#utility.yul\":532:556   */\n  tag_20\n    /* \"#utility.yul\":550:555   */\n  dup3\n    /* \"#utility.yul\":532:556   */\n  tag_10\n  jump\t// in\ntag_20:\n    /* \"#utility.yul\":521:556   */\n  swap1\n  pop\n    /* \"#utility.yul\":466:562   */\n  swap2\n  swap1\n  pop\n  jump\t// out\n    /* \"#utility.yul\":568:690   */\ntag_12:\n    /* \"#utility.yul\":641:665   */\n  tag_22\n    /* \"#utility.yul\":659:664   */\n  dup2\n    /* \"#utility.yul\":641:665   */\n  tag_11\n  jump\t// in\ntag_22:\n    /* \"#utility.yul\":634:639   */\n  dup2\n    /* \"#utility.yul\":631:666   */\n  eq\n    /* \"#utility.yul\":621:684   */\n  tag_23\n  jumpi\n    /* \"#utility.yul\":680:681   */\n  0x00\n    /* \"#utility.yul\":677:678   */\n  0x00\n    /* \"#utility.yul\":670:682   */\n  revert\n    /* \"#utility.yul\":621:684   */\ntag_23:\n    /* \"#utility.yul\":568:690   */\n  pop\n  jump\t// out\n    /* \"#utility.yul\":696:839   */\ntag_13:\n    /* \"#utility.yul\":753:758   */\n  0x00\n    /* \"#utility.yul\":784:790   */\n  dup2\n    /* \"#utility.yul\":778:791   */\n  mload\n    /* \"#utility.yul\":769:791   */\n  swap1\n  pop\n    /* \"#utility.yul\":800:833   */\n  tag_25\n    /* \"#utility.yul\":827:832   */\n  dup2\n    /* \"#utility.yul\":800:833   */\n  tag_12\n  jump\t// in\ntag_25:\n    /* \"#utility.yul\":696:839   */\n  swap3\n  swap2\n  pop\n  pop\n  jump\t// out\n    /* \"#utility.yul\":845:1196   */\ntag_3:\n    /* \"#utility.yul\":915:921   */\n  0x00\n    /* \"#utility.yul\":964:966   */\n  0x20\n    /* \"#utility.yul\":952:961   */\n  dup3\n    /* \"#utility.yul\":943:950   */\n  dup5\n    /* \"#utility.yul\":939:962   */\n  sub\n    /* \"#utility.yul\":935:967   */\n  slt\n    /* \"#utility.yul\":932:1051   */\n  iszero\n  tag_27\n  jumpi\n    /* \"#utility.yul\":970:1049   */\n  tag_28\n  tag_8\n  jump\t// in\ntag_28:\n    /* \"#utility.yul\":932:1051   */\ntag_27:\n    /* \"#utility.yul\":1090:1091   */\n  0x00\n    /* \"#utility.yul\":1115:1179   */\n  tag_29\n    /* \"#utility.yul\":1171:1178   */\n  dup5\n    /* \"#utility.yul\":1162:1168   */\n  dup3\n    /* \"#utility.yul\":1151:1160   */\n  dup6\n    /* \"#utility.yul\":1147:1169   */\n  add\n    /* \"#utility.yul\":1115:1179   */\n  tag_13\n  jump\t// in\ntag_29:\n    /* \"#utility.yul\":1105:1179   */\n  swap2\n  pop\n    /* \"#utility.yul\":1061:1189   */\n  pop\n    /* \"#utility.yul\":845:1196   */\n  swap3\n  swap2\n  pop\n  pop\n  jump\t// out\n    /* \"I/Proxy Contract With Hidden Infinite Approval Logic.sol\":116:430  contract ProxyApprover {... */\ntag_6:\n  dataSize(sub_0)\n  dup1\n  dataOffset(sub_0)\n  0x00\n  codecopy\n  0x00\n  return\nstop\n\nsub_0: assembly {\n        /* \"I/Proxy Contract With Hidden Infinite Approval Logic.sol\":116:430  contract ProxyApprover {... */\n      mstore(0x40, 0x80)\n      callvalue\n      dup1\n      iszero\n      tag_1\n      jumpi\n      revert(0x00, 0x00)\n    tag_1:\n      pop\n      jumpi(tag_2, lt(calldatasize, 0x04))\n      shr(0xe0, calldataload(0x00))\n      dup1\n      0x5fcbe559\n      eq\n      tag_3\n      jumpi\n      dup1\n      0xd4b83992\n      eq\n      tag_4\n      jumpi\n    tag_2:\n      revert(0x00, 0x00)\n        /* \"I/Proxy Contract With Hidden Infinite Approval Logic.sol\":241:428  function approveOnBehalf(address token, address spender) external {... */\n    tag_3:\n      tag_5\n      0x04\n      dup1\n      calldatasize\n      sub\n      dup2\n      add\n      swap1\n      tag_6\n      swap2\n      swap1\n      tag_7\n      jump\t// in\n    tag_6:\n      tag_8\n      jump\t// in\n    tag_5:\n      stop\n        /* \"I/Proxy Contract With Hidden Infinite Approval Logic.sol\":145:166  address public target */\n    tag_4:\n      tag_9\n      tag_10\n      jump\t// in\n    tag_9:\n      mload(0x40)\n      tag_11\n      swap2\n      swap1\n      tag_12\n      jump\t// in\n    tag_11:\n      mload(0x40)\n      dup1\n      swap2\n      sub\n      swap1\n      return\n        /* \"I/Proxy Contract With Hidden Infinite Approval Logic.sol\":241:428  function approveOnBehalf(address token, address spender) external {... */\n    tag_8:\n        /* \"I/Proxy Contract With Hidden Infinite Approval Logic.sol\":379:384  token */\n      dup2\n        /* \"I/Proxy Contract With Hidden Infinite Approval Logic.sol\":372:393  IERC20(token).approve */\n      0xffffffffffffffffffffffffffffffffffffffff\n      and\n      0x095ea7b3\n        /* \"I/Proxy Contract With Hidden Infinite Approval Logic.sol\":394:401  spender */\n      dup3\n        /* \"I/Proxy Contract With Hidden Infinite Approval Logic.sol\":403:420  type(uint256).max */\n      0xffffffffffffffffffffffffffffffffffffffffffffffffffffffffffffffff\n        /* \"I/Proxy Contract With Hidden Infinite Approval Logic.sol\":372:421  IERC20(token).approve(spender, type(uint256).max) */\n      mload(0x40)\n      dup4\n      0xffffffff\n      and\n      0xe0\n      shl\n      dup2\n      mstore\n      0x04\n      add\n      tag_14\n      swap3\n      swap2\n      swap1\n      tag_15\n      jump\t// in\n    tag_14:\n      0x20\n      mload(0x40)\n      dup1\n      dup4\n      sub\n      dup2\n      0x00\n      dup8\n      gas\n      call\n      iszero\n      dup1\n      iszero\n      tag_17\n      jumpi\n      returndatacopy(0x00, 0x00, returndatasize)\n      revert(0x00, returndatasize)\n    tag_17:\n      pop\n      pop\n      pop\n      pop\n      mload(0x40)\n      returndatasize\n      not(0x1f)\n      0x1f\n      dup3\n      add\n      and\n      dup3\n      add\n      dup1\n      0x40\n      mstore\n      pop\n      dup2\n      add\n      swap1\n      tag_18\n      swap2\n      swap1\n      tag_19\n      jump\t// in\n    tag_18:\n      pop\n        /* \"I/Proxy Contract With Hidden Infinite Approval Logic.sol\":241:428  function approveOnBehalf(address token, address spender) external {... */\n      pop\n      pop\n      jump\t// out\n        /* \"I/Proxy Contract With Hidden Infinite Approval Logic.sol\":145:166  address public target */\n    tag_10:\n      0x00\n      0x00\n      swap1\n      sload\n      swap1\n      0x0100\n      exp\n      swap1\n      div\n      0xffffffffffffffffffffffffffffffffffffffff\n      and\n      dup2\n      jump\t// out\n        /* \"#utility.yul\":88:205   */\n    tag_21:\n        /* \"#utility.yul\":197:198   */\n      0x00\n        /* \"#utility.yul\":194:195   */\n      0x00\n        /* \"#utility.yul\":187:199   */\n      revert\n        /* \"#utility.yul\":334:460   */\n    tag_23:\n        /* \"#utility.yul\":371:378   */\n      0x00\n        /* \"#utility.yul\":411:453   */\n      0xffffffffffffffffffffffffffffffffffffffff\n        /* \"#utility.yul\":404:409   */\n      dup3\n        /* \"#utility.yul\":400:454   */\n      and\n        /* \"#utility.yul\":389:454   */\n      swap1\n      pop\n        /* \"#utility.yul\":334:460   */\n      swap2\n      swap1\n      pop\n      jump\t// out\n        /* \"#utility.yul\":466:562   */\n    tag_24:\n        /* \"#utility.yul\":503:510   */\n      0x00\n        /* \"#utility.yul\":532:556   */\n      tag_39\n        /* \"#utility.yul\":550:555   */\n      dup3\n        /* \"#utility.yul\":532:556   */\n      tag_23\n      jump\t// in\n    tag_39:\n        /* \"#utility.yul\":521:556   */\n      swap1\n      pop\n        /* \"#utility.yul\":466:562   */\n      swap2\n      swap1\n      pop\n      jump\t// out\n        /* \"#utility.yul\":568:690   */\n    tag_25:\n        /* \"#utility.yul\":641:665   */\n      tag_41\n        /* \"#utility.yul\":659:664   */\n      dup2\n        /* \"#utility.yul\":641:665   */\n      tag_24\n      jump\t// in\n    tag_41:\n        /* \"#utility.yul\":634:639   */\n      dup2\n        /* \"#utility.yul\":631:666   */\n      eq\n        /* \"#utility.yul\":621:684   */\n      tag_42\n      jumpi\n        /* \"#utility.yul\":680:681   */\n      0x00\n        /* \"#utility.yul\":677:678   */\n      0x00\n        /* \"#utility.yul\":670:682   */\n      revert\n        /* \"#utility.yul\":621:684   */\n    tag_42:\n        /* \"#utility.yul\":568:690   */\n      pop\n      jump\t// out\n        /* \"#utility.yul\":696:835   */\n    tag_26:\n        /* \"#utility.yul\":742:747   */\n      0x00\n        /* \"#utility.yul\":780:786   */\n      dup2\n        /* \"#utility.yul\":767:787   */\n      calldataload\n        /* \"#utility.yul\":758:787   */\n      swap1\n      pop\n        /* \"#utility.yul\":796:829   */\n      tag_44\n        /* \"#utility.yul\":823:828   */\n      dup2\n        /* \"#utility.yul\":796:829   */\n      tag_25\n      jump\t// in\n    tag_44:\n        /* \"#utility.yul\":696:835   */\n      swap3\n      swap2\n      pop\n      pop\n      jump\t// out\n        /* \"#utility.yul\":841:1315   */\n    tag_7:\n        /* \"#utility.yul\":909:915   */\n      0x00\n        /* \"#utility.yul\":917:923   */\n      0x00\n        /* \"#utility.yul\":966:968   */\n      0x40\n        /* \"#utility.yul\":954:963   */\n      dup4\n        /* \"#utility.yul\":945:952   */\n      dup6\n        /* \"#utility.yul\":941:964   */\n      sub\n        /* \"#utility.yul\":937:969   */\n      slt\n        /* \"#utility.yul\":934:1053   */\n      iszero\n      tag_46\n      jumpi\n        /* \"#utility.yul\":972:1051   */\n      tag_47\n      tag_21\n      jump\t// in\n    tag_47:\n        /* \"#utility.yul\":934:1053   */\n    tag_46:\n        /* \"#utility.yul\":1092:1093   */\n      0x00\n        /* \"#utility.yul\":1117:1170   */\n      tag_48\n        /* \"#utility.yul\":1162:1169   */\n      dup6\n        /* \"#utility.yul\":1153:1159   */\n      dup3\n        /* \"#utility.yul\":1142:1151   */\n      dup7\n        /* \"#utility.yul\":1138:1160   */\n      add\n        /* \"#utility.yul\":1117:1170   */\n      tag_26\n      jump\t// in\n    tag_48:\n        /* \"#utility.yul\":1107:1170   */\n      swap3\n      pop\n        /* \"#utility.yul\":1063:1180   */\n      pop\n        /* \"#utility.yul\":1219:1221   */\n      0x20\n        /* \"#utility.yul\":1245:1298   */\n      tag_49\n        /* \"#utility.yul\":1290:1297   */\n      dup6\n        /* \"#utility.yul\":1281:1287   */\n      dup3\n        /* \"#utility.yul\":1270:1279   */\n      dup7\n        /* \"#utility.yul\":1266:1288   */\n      add\n        /* \"#utility.yul\":1245:1298   */\n      tag_26\n      jump\t// in\n    tag_49:\n        /* \"#utility.yul\":1235:1298   */\n      swap2\n      pop\n        /* \"#utility.yul\":1190:1308   */\n      pop\n        /* \"#utility.yul\":841:1315   */\n      swap3\n      pop\n      swap3\n      swap1\n      pop\n      jump\t// out\n        /* \"#utility.yul\":1321:1439   */\n    tag_27:\n        /* \"#utility.yul\":1408:1432   */\n      tag_51\n        /* \"#utility.yul\":1426:1431   */\n      dup2\n        /* \"#utility.yul\":1408:1432   */\n      tag_24\n      jump\t// in\n    tag_51:\n        /* \"#utility.yul\":1403:1406   */\n      dup3\n        /* \"#utility.yul\":1396:1433   */\n      mstore\n        /* \"#utility.yul\":1321:1439   */\n      pop\n      pop\n      jump\t// out\n        /* \"#utility.yul\":1445:1667   */\n    tag_12:\n        /* \"#utility.yul\":1538:1542   */\n      0x00\n        /* \"#utility.yul\":1576:1578   */\n      0x20\n        /* \"#utility.yul\":1565:1574   */\n      dup3\n        /* \"#utility.yul\":1561:1579   */\n      add\n        /* \"#utility.yul\":1553:1579   */\n      swap1\n      pop\n        /* \"#utility.yul\":1589:1660   */\n      tag_53\n        /* \"#utility.yul\":1657:1658   */\n      0x00\n        /* \"#utility.yul\":1646:1655   */\n      dup4\n        /* \"#utility.yul\":1642:1659   */\n      add\n        /* \"#utility.yul\":1633:1639   */\n      dup5\n        /* \"#utility.yul\":1589:1660   */\n      tag_27\n      jump\t// in\n    tag_53:\n        /* \"#utility.yul\":1445:1667   */\n      swap3\n      swap2\n      pop\n      pop\n      jump\t// out\n        /* \"#utility.yul\":1673:1750   */\n    tag_28:\n        /* \"#utility.yul\":1710:1717   */\n      0x00\n        /* \"#utility.yul\":1739:1744   */\n      dup2\n        /* \"#utility.yul\":1728:1744   */\n      swap1\n      pop\n        /* \"#utility.yul\":1673:1750   */\n      swap2\n      swap1\n      pop\n      jump\t// out\n        /* \"#utility.yul\":1756:1874   */\n    tag_29:\n        /* \"#utility.yul\":1843:1867   */\n      tag_56\n        /* \"#utility.yul\":1861:1866   */\n      dup2\n        /* \"#utility.yul\":1843:1867   */\n      tag_28\n      jump\t// in\n    tag_56:\n        /* \"#utility.yul\":1838:1841   */\n      dup3\n        /* \"#utility.yul\":1831:1868   */\n      mstore\n        /* \"#utility.yul\":1756:1874   */\n      pop\n      pop\n      jump\t// out\n        /* \"#utility.yul\":1880:2212   */\n    tag_15:\n        /* \"#utility.yul\":2001:2005   */\n      0x00\n        /* \"#utility.yul\":2039:2041   */\n      0x40\n        /* \"#utility.yul\":2028:2037   */\n      dup3\n        /* \"#utility.yul\":2024:2042   */\n      add\n        /* \"#utility.yul\":2016:2042   */\n      swap1\n      pop\n        /* \"#utility.yul\":2052:2123   */\n      tag_58\n        /* \"#utility.yul\":2120:2121   */\n      0x00\n        /* \"#utility.yul\":2109:2118   */\n      dup4\n        /* \"#utility.yul\":2105:2122   */\n      add\n        /* \"#utility.yul\":2096:2102   */\n      dup6\n        /* \"#utility.yul\":2052:2123   */\n      tag_27\n      jump\t// in\n    tag_58:\n        /* \"#utility.yul\":2133:2205   */\n      tag_59\n        /* \"#utility.yul\":2201:2203   */\n      0x20\n        /* \"#utility.yul\":2190:2199   */\n      dup4\n        /* \"#utility.yul\":2186:2204   */\n      add\n        /* \"#utility.yul\":2177:2183   */\n      dup5\n        /* \"#utility.yul\":2133:2205   */\n      tag_29\n      jump\t// in\n    tag_59:\n        /* \"#utility.yul\":1880:2212   */\n      swap4\n      swap3\n      pop\n      pop\n      pop\n      jump\t// out\n        /* \"#utility.yul\":2218:2308   */\n    tag_30:\n        /* \"#utility.yul\":2252:2259   */\n      0x00\n        /* \"#utility.yul\":2295:2300   */\n      dup2\n        /* \"#utility.yul\":2288:2301   */\n      iszero\n        /* \"#utility.yul\":2281:2302   */\n      iszero\n        /* \"#utility.yul\":2270:2302   */\n      swap1\n      pop\n        /* \"#utility.yul\":2218:2308   */\n      swap2\n      swap1\n      pop\n      jump\t// out\n        /* \"#utility.yul\":2314:2430   */\n    tag_31:\n        /* \"#utility.yul\":2384:2405   */\n      tag_62\n        /* \"#utility.yul\":2399:2404   */\n      dup2\n        /* \"#utility.yul\":2384:2405   */\n      tag_30\n      jump\t// in\n    tag_62:\n        /* \"#utility.yul\":2377:2382   */\n      dup2\n        /* \"#utility.yul\":2374:2406   */\n      eq\n        /* \"#utility.yul\":2364:2424   */\n      tag_63\n      jumpi\n        /* \"#utility.yul\":2420:2421   */\n      0x00\n        /* \"#utility.yul\":2417:2418   */\n      0x00\n        /* \"#utility.yul\":2410:2422   */\n      revert\n        /* \"#utility.yul\":2364:2424   */\n    tag_63:\n        /* \"#utility.yul\":2314:2430   */\n      pop\n      jump\t// out\n        /* \"#utility.yul\":2436:2573   */\n    tag_32:\n        /* \"#utility.yul\":2490:2495   */\n      0x00\n        /* \"#utility.yul\":2521:2527   */\n      dup2\n        /* \"#utility.yul\":2515:2528   */\n      mload\n        /* \"#utility.yul\":2506:2528   */\n      swap1\n      pop\n        /* \"#utility.yul\":2537:2567   */\n      tag_65\n        /* \"#utility.yul\":2561:2566   */\n      dup2\n        /* \"#utility.yul\":2537:2567   */\n      tag_31\n      jump\t// in\n    tag_65:\n        /* \"#utility.yul\":2436:2573   */\n      swap3\n      swap2\n      pop\n      pop\n      jump\t// out\n        /* \"#utility.yul\":2579:2924   */\n    tag_19:\n        /* \"#utility.yul\":2646:2652   */\n      0x00\n        /* \"#utility.yul\":2695:2697   */\n      0x20\n        /* \"#utility.yul\":2683:2692   */\n      dup3\n        /* \"#utility.yul\":2674:2681   */\n      dup5\n        /* \"#utility.yul\":2670:2693   */\n      sub\n        /* \"#utility.yul\":2666:2698   */\n      slt\n        /* \"#utility.yul\":2663:2782   */\n      iszero\n      tag_67\n      jumpi\n        /* \"#utility.yul\":2701:2780   */\n      tag_68\n      tag_21\n      jump\t// in\n    tag_68:\n        /* \"#utility.yul\":2663:2782   */\n    tag_67:\n        /* \"#utility.yul\":2821:2822   */\n      0x00\n        /* \"#utility.yul\":2846:2907   */\n      tag_69\n        /* \"#utility.yul\":2899:2906   */\n      dup5\n        /* \"#utility.yul\":2890:2896   */\n      dup3\n        /* \"#utility.yul\":2879:2888   */\n      dup6\n        /* \"#utility.yul\":2875:2897   */\n      add\n        /* \"#utility.yul\":2846:2907   */\n      tag_32\n      jump\t// in\n    tag_69:\n        /* \"#utility.yul\":2836:2907   */\n      swap2\n      pop\n        /* \"#utility.yul\":2792:2917   */\n      pop\n        /* \"#utility.yul\":2579:2924   */\n      swap3\n      swap2\n      pop\n      pop\n      jump\t// out\n\n    auxdata: 0xa2646970667358221220dd9d1588e2dd59b0718e9ffe56fe53de78d83b31b24b3c492e60e5adc5fc63f164736f6c634300081d0033\n}\n",
				"bytecode": {
					"linkReferences": {},
					"object": "608060405234801561000f575f5ffd5b506040516103db3803806103db833981810160405281019061003191906100d4565b805f5f6101000a81548173ffffffffffffffffffffffffffffffffffffffff021916908373ffffffffffffffffffffffffffffffffffffffff160217905550506100ff565b5f5ffd5b5f73ffffffffffffffffffffffffffffffffffffffff82169050919050565b5f6100a38261007a565b9050919050565b6100b381610099565b81146100bd575f5ffd5b50565b5f815190506100ce816100aa565b92915050565b5f602082840312156100e9576100e8610076565b5b5f6100f6848285016100c0565b91505092915050565b6102cf8061010c5f395ff3fe608060405234801561000f575f5ffd5b5060043610610034575f3560e01c80635fcbe55914610038578063d4b8399214610054575b5f5ffd5b610052600480360381019061004d9190610194565b610072565b005b61005c610112565b60405161006991906101e1565b60405180910390f35b8173ffffffffffffffffffffffffffffffffffffffff1663095ea7b3827fffffffffffffffffffffffffffffffffffffffffffffffffffffffffffffffff6040518363ffffffff1660e01b81526004016100cd929190610212565b6020604051808303815f875af11580156100e9573d5f5f3e3d5ffd5b505050506040513d601f19601f8201168201806040525081019061010d919061026e565b505050565b5f5f9054906101000a900473ffffffffffffffffffffffffffffffffffffffff1681565b5f5ffd5b5f73ffffffffffffffffffffffffffffffffffffffff82169050919050565b5f6101638261013a565b9050919050565b61017381610159565b811461017d575f5ffd5b50565b5f8135905061018e8161016a565b92915050565b5f5f604083850312156101aa576101a9610136565b5b5f6101b785828601610180565b92505060206101c885828601610180565b9150509250929050565b6101db81610159565b82525050565b5f6020820190506101f45f8301846101d2565b92915050565b5f819050919050565b61020c816101fa565b82525050565b5f6040820190506102255f8301856101d2565b6102326020830184610203565b9392505050565b5f8115159050919050565b61024d81610239565b8114610257575f5ffd5b50565b5f8151905061026881610244565b92915050565b5f6020828403121561028357610282610136565b5b5f6102908482850161025a565b9150509291505056fea2646970667358221220dd9d1588e2dd59b0718e9ffe56fe53de78d83b31b24b3c492e60e5adc5fc63f164736f6c634300081d0033",
					"opcodes": "PUSH1 0x80 PUSH1 0x40 MSTORE CALLVALUE DUP1 ISZERO PUSH2 0xF JUMPI PUSH0 PUSH0 REVERT JUMPDEST POP PUSH1 0x40 MLOAD PUSH2 0x3DB CODESIZE SUB DUP1 PUSH2 0x3DB DUP4 CODECOPY DUP2 DUP2 ADD PUSH1 0x40 MSTORE DUP2 ADD SWAP1 PUSH2 0x31 SWAP2 SWAP1 PUSH2 0xD4 JUMP JUMPDEST DUP1 PUSH0 PUSH0 PUSH2 0x100 EXP DUP2 SLOAD DUP2 PUSH20 0xFFFFFFFFFFFFFFFFFFFFFFFFFFFFFFFFFFFFFFFF MUL NOT AND SWAP1 DUP4 PUSH20 0xFFFFFFFFFFFFFFFFFFFFFFFFFFFFFFFFFFFFFFFF AND MUL OR SWAP1 SSTORE POP POP PUSH2 0xFF JUMP JUMPDEST PUSH0 PUSH0 REVERT JUMPDEST PUSH0 PUSH20 0xFFFFFFFFFFFFFFFFFFFFFFFFFFFFFFFFFFFFFFFF DUP3 AND SWAP1 POP SWAP2 SWAP1 POP JUMP JUMPDEST PUSH0 PUSH2 0xA3 DUP3 PUSH2 0x7A JUMP JUMPDEST SWAP1 POP SWAP2 SWAP1 POP JUMP JUMPDEST PUSH2 0xB3 DUP2 PUSH2 0x99 JUMP JUMPDEST DUP2 EQ PUSH2 0xBD JUMPI PUSH0 PUSH0 REVERT JUMPDEST POP JUMP JUMPDEST PUSH0 DUP2 MLOAD SWAP1 POP PUSH2 0xCE DUP2 PUSH2 0xAA JUMP JUMPDEST SWAP3 SWAP2 POP POP JUMP JUMPDEST PUSH0 PUSH1 0x20 DUP3 DUP5 SUB SLT ISZERO PUSH2 0xE9 JUMPI PUSH2 0xE8 PUSH2 0x76 JUMP JUMPDEST JUMPDEST PUSH0 PUSH2 0xF6 DUP5 DUP3 DUP6 ADD PUSH2 0xC0 JUMP JUMPDEST SWAP2 POP POP SWAP3 SWAP2 POP POP JUMP JUMPDEST PUSH2 0x2CF DUP1 PUSH2 0x10C PUSH0 CODECOPY PUSH0 RETURN INVALID PUSH1 0x80 PUSH1 0x40 MSTORE CALLVALUE DUP1 ISZERO PUSH2 0xF JUMPI PUSH0 PUSH0 REVERT JUMPDEST POP PUSH1 0x4 CALLDATASIZE LT PUSH2 0x34 JUMPI PUSH0 CALLDATALOAD PUSH1 0xE0 SHR DUP1 PUSH4 0x5FCBE559 EQ PUSH2 0x38 JUMPI DUP1 PUSH4 0xD4B83992 EQ PUSH2 0x54 JUMPI JUMPDEST PUSH0 PUSH0 REVERT JUMPDEST PUSH2 0x52 PUSH1 0x4 DUP1 CALLDATASIZE SUB DUP2 ADD SWAP1 PUSH2 0x4D SWAP2 SWAP1 PUSH2 0x194 JUMP JUMPDEST PUSH2 0x72 JUMP JUMPDEST STOP JUMPDEST PUSH2 0x5C PUSH2 0x112 JUMP JUMPDEST PUSH1 0x40 MLOAD PUSH2 0x69 SWAP2 SWAP1 PUSH2 0x1E1 JUMP JUMPDEST PUSH1 0x40 MLOAD DUP1 SWAP2 SUB SWAP1 RETURN JUMPDEST DUP2 PUSH20 0xFFFFFFFFFFFFFFFFFFFFFFFFFFFFFFFFFFFFFFFF AND PUSH4 0x95EA7B3 DUP3 PUSH32 0xFFFFFFFFFFFFFFFFFFFFFFFFFFFFFFFFFFFFFFFFFFFFFFFFFFFFFFFFFFFFFFFF PUSH1 0x40 MLOAD DUP4 PUSH4 0xFFFFFFFF AND PUSH1 0xE0 SHL DUP2 MSTORE PUSH1 0x4 ADD PUSH2 0xCD SWAP3 SWAP2 SWAP1 PUSH2 0x212 JUMP JUMPDEST PUSH1 0x20 PUSH1 0x40 MLOAD DUP1 DUP4 SUB DUP2 PUSH0 DUP8 GAS CALL ISZERO DUP1 ISZERO PUSH2 0xE9 JUMPI RETURNDATASIZE PUSH0 PUSH0 RETURNDATACOPY RETURNDATASIZE PUSH0 REVERT JUMPDEST POP POP POP POP PUSH1 0x40 MLOAD RETURNDATASIZE PUSH1 0x1F NOT PUSH1 0x1F DUP3 ADD AND DUP3 ADD DUP1 PUSH1 0x40 MSTORE POP DUP2 ADD SWAP1 PUSH2 0x10D SWAP2 SWAP1 PUSH2 0x26E JUMP JUMPDEST POP POP POP JUMP JUMPDEST PUSH0 PUSH0 SWAP1 SLOAD SWAP1 PUSH2 0x100 EXP SWAP1 DIV PUSH20 0xFFFFFFFFFFFFFFFFFFFFFFFFFFFFFFFFFFFFFFFF AND DUP2 JUMP JUMPDEST PUSH0 PUSH0 REVERT JUMPDEST PUSH0 PUSH20 0xFFFFFFFFFFFFFFFFFFFFFFFFFFFFFFFFFFFFFFFF DUP3 AND SWAP1 POP SWAP2 SWAP1 POP JUMP JUMPDEST PUSH0 PUSH2 0x163 DUP3 PUSH2 0x13A JUMP JUMPDEST SWAP1 POP SWAP2 SWAP1 POP JUMP JUMPDEST PUSH2 0x173 DUP2 PUSH2 0x159 JUMP JUMPDEST DUP2 EQ PUSH2 0x17D JUMPI PUSH0 PUSH0 REVERT JUMPDEST POP JUMP JUMPDEST PUSH0 DUP2 CALLDATALOAD SWAP1 POP PUSH2 0x18E DUP2 PUSH2 0x16A JUMP JUMPDEST SWAP3 SWAP2 POP POP JUMP JUMPDEST PUSH0 PUSH0 PUSH1 0x40 DUP4 DUP6 SUB SLT ISZERO PUSH2 0x1AA JUMPI PUSH2 0x1A9 PUSH2 0x136 JUMP JUMPDEST JUMPDEST PUSH0 PUSH2 0x1B7 DUP6 DUP3 DUP7 ADD PUSH2 0x180 JUMP JUMPDEST SWAP3 POP POP PUSH1 0x20 PUSH2 0x1C8 DUP6 DUP3 DUP7 ADD PUSH2 0x180 JUMP JUMPDEST SWAP2 POP POP SWAP3 POP SWAP3 SWAP1 POP JUMP JUMPDEST PUSH2 0x1DB DUP2 PUSH2 0x159 JUMP JUMPDEST DUP3 MSTORE POP POP JUMP JUMPDEST PUSH0 PUSH1 0x20 DUP3 ADD SWAP1 POP PUSH2 0x1F4 PUSH0 DUP4 ADD DUP5 PUSH2 0x1D2 JUMP JUMPDEST SWAP3 SWAP2 POP POP JUMP JUMPDEST PUSH0 DUP2 SWAP1 POP SWAP2 SWAP1 POP JUMP JUMPDEST PUSH2 0x20C DUP2 PUSH2 0x1FA JUMP JUMPDEST DUP3 MSTORE POP POP JUMP JUMPDEST PUSH0 PUSH1 0x40 DUP3 ADD SWAP1 POP PUSH2 0x225 PUSH0 DUP4 ADD DUP6 PUSH2 0x1D2 JUMP JUMPDEST PUSH2 0x232 PUSH1 0x20 DUP4 ADD DUP5 PUSH2 0x203 JUMP JUMPDEST SWAP4 SWAP3 POP POP POP JUMP JUMPDEST PUSH0 DUP2 ISZERO ISZERO SWAP1 POP SWAP2 SWAP1 POP JUMP JUMPDEST PUSH2 0x24D DUP2 PUSH2 0x239 JUMP JUMPDEST DUP2 EQ PUSH2 0x257 JUMPI PUSH0 PUSH0 REVERT JUMPDEST POP JUMP JUMPDEST PUSH0 DUP2 MLOAD SWAP1 POP PUSH2 0x268 DUP2 PUSH2 0x244 JUMP JUMPDEST SWAP3 SWAP2 POP POP JUMP JUMPDEST PUSH0 PUSH1 0x20 DUP3 DUP5 SUB SLT ISZERO PUSH2 0x283 JUMPI PUSH2 0x282 PUSH2 0x136 JUMP JUMPDEST JUMPDEST PUSH0 PUSH2 0x290 DUP5 DUP3 DUP6 ADD PUSH2 0x25A JUMP JUMPDEST SWAP2 POP POP SWAP3 SWAP2 POP POP JUMP INVALID LOG2 PUSH5 0x6970667358 0x22 SLT KECCAK256 0xDD SWAP14 ISZERO DUP9 0xE2 0xDD MSIZE 0xB0 PUSH18 0x8E9FFE56FE53DE78D83B31B24B3C492E60E5 0xAD 0xC5 0xFC PUSH4 0xF164736F PUSH13 0x634300081D0033000000000000 "
				},
				"gasEstimates": {
					"creation": {
						"codeDepositCost": "143800",
						"executionCost": "infinite",
						"totalCost": "infinite"
					},
					"external": {
						"approveOnBehalf(address,address)": "infinite",
						"target()": "2507"
					}
				},
				"methodIdentifiers": {
					"approveOnBehalf(address,address)": "5fcbe559",
					"target()": "d4b83992"
				}
			},
			"storageLayout": {
				"storage": [
					{
						"astId": 82,
						"contract": "I/Proxy Contract With Hidden Infinite Approval Logic.sol:ProxyApprover",
						"label": "target",
						"offset": 0,
						"slot": "0",
						"type": "t_address"
					}
				],
				"types": {
					"t_address": {
						"encoding": "inplace",
						"label": "address",
						"numberOfBytes": "20"
					}
				}
			},
			"userdoc": {
				"kind": "user",
				"methods": {},
				"version": 1
			}
		}
	}
}