{
	"I/FlippeningTracker.sol": {
		"FlippeningTracker": {
			"abi": [
				{
					"inputs": [
						{
							"internalType": "address",
							"name": "_tokenA",
							"type": "address"
						},
						{
							"internalType": "address",
							"name": "_oracleA",
							"type": "address"
						},
						{
							"internalType": "address",
							"name": "_tokenB",
							"type": "address"
						},
						{
							"internalType": "address",
							"name": "_oracleB",
							"type": "address"
						}
					],
					"stateMutability": "nonpayable",
					"type": "constructor"
				},
				{
					"anonymous": false,
					"inputs": [
						{
							"indexed": true,
							"internalType": "address",
							"name": "flipper",
							"type": "address"
						},
						{
							"indexed": false,
							"internalType": "uint256",
							"name": "newMarketCap",
							"type": "uint256"
						},
						{
							"indexed": true,
							"internalType": "address",
							"name": "flipped",
							"type": "address"
						},
						{
							"indexed": false,
							"internalType": "uint256",
							"name": "oldMarketCap",
							"type": "uint256"
						}
					],
					"name": "FlippeningDetected",
					"type": "event"
				},
				{
					"inputs": [],
					"name": "announceFlippening",
					"outputs": [],
					"stateMutability": "nonpayable",
					"type": "function"
				},
				{
					"inputs": [],
					"name": "checkFlippening",
					"outputs": [
						{
							"internalType": "bool",
							"name": "flipped",
							"type": "bool"
						},
						{
							"internalType": "uint256",
							"name": "capA",
							"type": "uint256"
						},
						{
							"internalType": "uint256",
							"name": "capB",
							"type": "uint256"
						}
					],
					"stateMutability": "view",
					"type": "function"
				},
				{
					"inputs": [
						{
							"internalType": "address",
							"name": "token",
							"type": "address"
						},
						{
							"internalType": "contract IOracle",
							"name": "oracle",
							"type": "address"
						}
					],
					"name": "getMarketCap",
					"outputs": [
						{
							"internalType": "uint256",
							"name": "",
							"type": "uint256"
						}
					],
					"stateMutability": "view",
					"type": "function"
				},
				{
					"inputs": [],
					"name": "oracleA",
					"outputs": [
						{
							"internalType": "contract IOracle",
							"name": "",
							"type": "address"
						}
					],
					"stateMutability": "view",
					"type": "function"
				},
				{
					"inputs": [],
					"name": "oracleB",
					"outputs": [
						{
							"internalType": "contract IOracle",
							"name": "",
							"type": "address"
						}
					],
					"stateMutability": "view",
					"type": "function"
				},
				{
					"inputs": [],
					"name": "tokenA",
					"outputs": [
						{
							"internalType": "address",
							"name": "",
							"type": "address"
						}
					],
					"stateMutability": "view",
					"type": "function"
				},
				{
					"inputs": [],
					"name": "tokenB",
					"outputs": [
						{
							"internalType": "address",
							"name": "",
							"type": "address"
						}
					],
					"stateMutability": "view",
					"type": "function"
				}
			],
			"devdoc": {
				"details": "Tracks whether one token has surpassed another in market cap.",
				"kind": "dev",
				"methods": {},
				"title": "FlippeningTracker",
				"version": 1
			},
			"evm": {
				"assembly": "    /* \"I/FlippeningTracker.sol\":366:1670  contract FlippeningTracker {... */\n  mstore(0x40, 0x80)\n    /* \"I/FlippeningTracker.sol\":673:926  constructor(... */\n  callvalue\n  dup1\n  iszero\n  tag_1\n  jumpi\n  revert(0x00, 0x00)\ntag_1:\n  pop\n  mload(0x40)\n  sub(codesize, bytecodeSize)\n  dup1\n  bytecodeSize\n  dup4\n  codecopy\n  dup2\n  dup2\n  add\n  0x40\n  mstore\n  dup2\n  add\n  swap1\n  tag_2\n  swap2\n  swap1\n  tag_3\n  jump\t// in\ntag_2:\n    /* \"I/FlippeningTracker.sol\":812:819  _tokenA */\n  dup4\n    /* \"I/FlippeningTracker.sol\":803:809  tokenA */\n  0x00\n  0x00\n    /* \"I/FlippeningTracker.sol\":803:819  tokenA = _tokenA */\n  0x0100\n  exp\n  dup2\n  sload\n  dup2\n  0xffffffffffffffffffffffffffffffffffffffff\n  mul\n  not\n  and\n  swap1\n  dup4\n  0xffffffffffffffffffffffffffffffffffffffff\n  and\n  mul\n  or\n  swap1\n  sstore\n  pop\n    /* \"I/FlippeningTracker.sol\":838:845  _tokenB */\n  dup2\n    /* \"I/FlippeningTracker.sol\":829:835  tokenB */\n  0x01\n  0x00\n    /* \"I/FlippeningTracker.sol\":829:845  tokenB = _tokenB */\n  0x0100\n  exp\n  dup2\n  sload\n  dup2\n  0xffffffffffffffffffffffffffffffffffffffff\n  mul\n  not\n  and\n  swap1\n  dup4\n  0xffffffffffffffffffffffffffffffffffffffff\n  and\n  mul\n  or\n  swap1\n  sstore\n  pop\n    /* \"I/FlippeningTracker.sol\":873:881  _oracleA */\n  dup3\n    /* \"I/FlippeningTracker.sol\":855:862  oracleA */\n  0x02\n  0x00\n    /* \"I/FlippeningTracker.sol\":855:882  oracleA = IOracle(_oracleA) */\n  0x0100\n  exp\n  dup2\n  sload\n  dup2\n  0xffffffffffffffffffffffffffffffffffffffff\n  mul\n  not\n  and\n  swap1\n  dup4\n  0xffffffffffffffffffffffffffffffffffffffff\n  and\n  mul\n  or\n  swap1\n  sstore\n  pop\n    /* \"I/FlippeningTracker.sol\":910:918  _oracleB */\n  dup1\n    /* \"I/FlippeningTracker.sol\":892:899  oracleB */\n  0x03\n  0x00\n    /* \"I/FlippeningTracker.sol\":892:919  oracleB = IOracle(_oracleB) */\n  0x0100\n  exp\n  dup2\n  sload\n  dup2\n  0xffffffffffffffffffffffffffffffffffffffff\n  mul\n  not\n  and\n  swap1\n  dup4\n  0xffffffffffffffffffffffffffffffffffffffff\n  and\n  mul\n  or\n  swap1\n  sstore\n  pop\n    /* \"I/FlippeningTracker.sol\":673:926  constructor(... */\n  pop\n  pop\n  pop\n  pop\n    /* \"I/FlippeningTracker.sol\":366:1670  contract FlippeningTracker {... */\n  jump(tag_6)\n    /* \"#utility.yul\":88:205   */\ntag_8:\n    /* \"#utility.yul\":197:198   */\n  0x00\n    /* \"#utility.yul\":194:195   */\n  0x00\n    /* \"#utility.yul\":187:199   */\n  revert\n    /* \"#utility.yul\":334:460   */\ntag_10:\n    /* \"#utility.yul\":371:378   */\n  0x00\n    /* \"#utility.yul\":411:453   */\n  0xffffffffffffffffffffffffffffffffffffffff\n    /* \"#utility.yul\":404:409   */\n  dup3\n    /* \"#utility.yul\":400:454   */\n  and\n    /* \"#utility.yul\":389:454   */\n  swap1\n  pop\n    /* \"#utility.yul\":334:460   */\n  swap2\n  swap1\n  pop\n  jump\t// out\n    /* \"#utility.yul\":466:562   */\ntag_11:\n    /* \"#utility.yul\":503:510   */\n  0x00\n    /* \"#utility.yul\":532:556   */\n  tag_20\n    /* \"#utility.yul\":550:555   */\n  dup3\n    /* \"#utility.yul\":532:556   */\n  tag_10\n  jump\t// in\ntag_20:\n    /* \"#utility.yul\":521:556   */\n  swap1\n  pop\n    /* \"#utility.yul\":466:562   */\n  swap2\n  swap1\n  pop\n  jump\t// out\n    /* \"#utility.yul\":568:690   */\ntag_12:\n    /* \"#utility.yul\":641:665   */\n  tag_22\n    /* \"#utility.yul\":659:664   */\n  dup2\n    /* \"#utility.yul\":641:665   */\n  tag_11\n  jump\t// in\ntag_22:\n    /* \"#utility.yul\":634:639   */\n  dup2\n    /* \"#utility.yul\":631:666   */\n  eq\n    /* \"#utility.yul\":621:684   */\n  tag_23\n  jumpi\n    /* \"#utility.yul\":680:681   */\n  0x00\n    /* \"#utility.yul\":677:678   */\n  0x00\n    /* \"#utility.yul\":670:682   */\n  revert\n    /* \"#utility.yul\":621:684   */\ntag_23:\n    /* \"#utility.yul\":568:690   */\n  pop\n  jump\t// out\n    /* \"#utility.yul\":696:839   */\ntag_13:\n    /* \"#utility.yul\":753:758   */\n  0x00\n    /* \"#utility.yul\":784:790   */\n  dup2\n    /* \"#utility.yul\":778:791   */\n  mload\n    /* \"#utility.yul\":769:791   */\n  swap1\n  pop\n    /* \"#utility.yul\":800:833   */\n  tag_25\n    /* \"#utility.yul\":827:832   */\n  dup2\n    /* \"#utility.yul\":800:833   */\n  tag_12\n  jump\t// in\ntag_25:\n    /* \"#utility.yul\":696:839   */\n  swap3\n  swap2\n  pop\n  pop\n  jump\t// out\n    /* \"#utility.yul\":845:1665   */\ntag_3:\n    /* \"#utility.yul\":942:948   */\n  0x00\n    /* \"#utility.yul\":950:956   */\n  0x00\n    /* \"#utility.yul\":958:964   */\n  0x00\n    /* \"#utility.yul\":966:972   */\n  0x00\n    /* \"#utility.yul\":1015:1018   */\n  0x80\n    /* \"#utility.yul\":1003:1012   */\n  dup6\n    /* \"#utility.yul\":994:1001   */\n  dup8\n    /* \"#utility.yul\":990:1013   */\n  sub\n    /* \"#utility.yul\":986:1019   */\n  slt\n    /* \"#utility.yul\":983:1103   */\n  iszero\n  tag_27\n  jumpi\n    /* \"#utility.yul\":1022:1101   */\n  tag_28\n  tag_8\n  jump\t// in\ntag_28:\n    /* \"#utility.yul\":983:1103   */\ntag_27:\n    /* \"#utility.yul\":1142:1143   */\n  0x00\n    /* \"#utility.yul\":1167:1231   */\n  tag_29\n    /* \"#utility.yul\":1223:1230   */\n  dup8\n    /* \"#utility.yul\":1214:1220   */\n  dup3\n    /* \"#utility.yul\":1203:1212   */\n  dup9\n    /* \"#utility.yul\":1199:1221   */\n  add\n    /* \"#utility.yul\":1167:1231   */\n  tag_13\n  jump\t// in\ntag_29:\n    /* \"#utility.yul\":1157:1231   */\n  swap5\n  pop\n    /* \"#utility.yul\":1113:1241   */\n  pop\n    /* \"#utility.yul\":1280:1282   */\n  0x20\n    /* \"#utility.yul\":1306:1370   */\n  tag_30\n    /* \"#utility.yul\":1362:1369   */\n  dup8\n    /* \"#utility.yul\":1353:1359   */\n  dup3\n    /* \"#utility.yul\":1342:1351   */\n  dup9\n    /* \"#utility.yul\":1338:1360   */\n  add\n    /* \"#utility.yul\":1306:1370   */\n  tag_13\n  jump\t// in\ntag_30:\n    /* \"#utility.yul\":1296:1370   */\n  swap4\n  pop\n    /* \"#utility.yul\":1251:1380   */\n  pop\n    /* \"#utility.yul\":1419:1421   */\n  0x40\n    /* \"#utility.yul\":1445:1509   */\n  tag_31\n    /* \"#utility.yul\":1501:1508   */\n  dup8\n    /* \"#utility.yul\":1492:1498   */\n  dup3\n    /* \"#utility.yul\":1481:1490   */\n  dup9\n    /* \"#utility.yul\":1477:1499   */\n  add\n    /* \"#utility.yul\":1445:1509   */\n  tag_13\n  jump\t// in\ntag_31:\n    /* \"#utility.yul\":1435:1509   */\n  swap3\n  pop\n    /* \"#utility.yul\":1390:1519   */\n  pop\n    /* \"#utility.yul\":1558:1560   */\n  0x60\n    /* \"#utility.yul\":1584:1648   */\n  tag_32\n    /* \"#utility.yul\":1640:1647   */\n  dup8\n    /* \"#utility.yul\":1631:1637   */\n  dup3\n    /* \"#utility.yul\":1620:1629   */\n  dup9\n    /* \"#utility.yul\":1616:1638   */\n  add\n    /* \"#utility.yul\":1584:1648   */\n  tag_13\n  jump\t// in\ntag_32:\n    /* \"#utility.yul\":1574:1648   */\n  swap2\n  pop\n    /* \"#utility.yul\":1529:1658   */\n  pop\n    /* \"#utility.yul\":845:1665   */\n  swap3\n  swap6\n  swap2\n  swap5\n  pop\n  swap3\n  pop\n  jump\t// out\n    /* \"I/FlippeningTracker.sol\":366:1670  contract FlippeningTracker {... */\ntag_6:\n  dataSize(sub_0)\n  dup1\n  dataOffset(sub_0)\n  0x00\n  codecopy\n  0x00\n  return\nstop\n\nsub_0: assembly {\n        /* \"I/FlippeningTracker.sol\":366:1670  contract FlippeningTracker {... */\n      mstore(0x40, 0x80)\n      callvalue\n      dup1\n      iszero\n      tag_1\n      jumpi\n      revert(0x00, 0x00)\n    tag_1:\n      pop\n      jumpi(tag_2, lt(calldatasize, 0x04))\n      shr(0xe0, calldataload(0x00))\n      dup1\n      0x5f64b55b\n      gt\n      tag_10\n      jumpi\n      dup1\n      0x5f64b55b\n      eq\n      tag_6\n      jumpi\n      dup1\n      0x63c56e2f\n      eq\n      tag_7\n      jumpi\n      dup1\n      0x9bdff8eb\n      eq\n      tag_8\n      jumpi\n      dup1\n      0x9cc4b0d2\n      eq\n      tag_9\n      jumpi\n      jump(tag_2)\n    tag_10:\n      dup1\n      0x0fc63d10\n      eq\n      tag_3\n      jumpi\n      dup1\n      0x11d82f03\n      eq\n      tag_4\n      jumpi\n      dup1\n      0x1670cb6f\n      eq\n      tag_5\n      jumpi\n    tag_2:\n      revert(0x00, 0x00)\n        /* \"I/FlippeningTracker.sol\":399:420  address public tokenA */\n    tag_3:\n      tag_11\n      tag_12\n      jump\t// in\n    tag_11:\n      mload(0x40)\n      tag_13\n      swap2\n      swap1\n      tag_14\n      jump\t// in\n    tag_13:\n      mload(0x40)\n      dup1\n      swap2\n      sub\n      swap1\n      return\n        /* \"I/FlippeningTracker.sol\":1215:1435  function checkFlippening() public view returns (bool flipped, uint256 capA, uint256 capB) {... */\n    tag_4:\n      tag_15\n      tag_16\n      jump\t// in\n    tag_15:\n      mload(0x40)\n      tag_17\n      swap4\n      swap3\n      swap2\n      swap1\n      tag_18\n      jump\t// in\n    tag_17:\n      mload(0x40)\n      dup1\n      swap2\n      sub\n      swap1\n      return\n        /* \"I/FlippeningTracker.sol\":453:475  IOracle public oracleA */\n    tag_5:\n      tag_19\n      tag_20\n      jump\t// in\n    tag_19:\n      mload(0x40)\n      tag_21\n      swap2\n      swap1\n      tag_22\n      jump\t// in\n    tag_21:\n      mload(0x40)\n      dup1\n      swap2\n      sub\n      swap1\n      return\n        /* \"I/FlippeningTracker.sol\":426:447  address public tokenB */\n    tag_6:\n      tag_23\n      tag_24\n      jump\t// in\n    tag_23:\n      mload(0x40)\n      tag_25\n      swap2\n      swap1\n      tag_14\n      jump\t// in\n    tag_25:\n      mload(0x40)\n      dup1\n      swap2\n      sub\n      swap1\n      return\n        /* \"I/FlippeningTracker.sol\":1441:1668  function announceFlippening() external {... */\n    tag_7:\n      tag_26\n      tag_27\n      jump\t// in\n    tag_26:\n      stop\n        /* \"I/FlippeningTracker.sol\":481:503  IOracle public oracleB */\n    tag_8:\n      tag_28\n      tag_29\n      jump\t// in\n    tag_28:\n      mload(0x40)\n      tag_30\n      swap2\n      swap1\n      tag_22\n      jump\t// in\n    tag_30:\n      mload(0x40)\n      dup1\n      swap2\n      sub\n      swap1\n      return\n        /* \"I/FlippeningTracker.sol\":932:1175  function getMarketCap(address token, IOracle oracle) public view returns (uint256) {... */\n    tag_9:\n      tag_31\n      0x04\n      dup1\n      calldatasize\n      sub\n      dup2\n      add\n      swap1\n      tag_32\n      swap2\n      swap1\n      tag_33\n      jump\t// in\n    tag_32:\n      tag_34\n      jump\t// in\n    tag_31:\n      mload(0x40)\n      tag_35\n      swap2\n      swap1\n      tag_36\n      jump\t// in\n    tag_35:\n      mload(0x40)\n      dup1\n      swap2\n      sub\n      swap1\n      return\n        /* \"I/FlippeningTracker.sol\":399:420  address public tokenA */\n    tag_12:\n      0x00\n      0x00\n      swap1\n      sload\n      swap1\n      0x0100\n      exp\n      swap1\n      div\n      0xffffffffffffffffffffffffffffffffffffffff\n      and\n      dup2\n      jump\t// out\n        /* \"I/FlippeningTracker.sol\":1215:1435  function checkFlippening() public view returns (bool flipped, uint256 capA, uint256 capB) {... */\n    tag_16:\n        /* \"I/FlippeningTracker.sol\":1263:1275  bool flipped */\n      0x00\n        /* \"I/FlippeningTracker.sol\":1277:1289  uint256 capA */\n      0x00\n        /* \"I/FlippeningTracker.sol\":1291:1303  uint256 capB */\n      0x00\n        /* \"I/FlippeningTracker.sol\":1322:1351  getMarketCap(tokenA, oracleA) */\n      tag_38\n        /* \"I/FlippeningTracker.sol\":1335:1341  tokenA */\n      0x00\n      0x00\n      swap1\n      sload\n      swap1\n      0x0100\n      exp\n      swap1\n      div\n      0xffffffffffffffffffffffffffffffffffffffff\n      and\n        /* \"I/FlippeningTracker.sol\":1343:1350  oracleA */\n      0x02\n      0x00\n      swap1\n      sload\n      swap1\n      0x0100\n      exp\n      swap1\n      div\n      0xffffffffffffffffffffffffffffffffffffffff\n      and\n        /* \"I/FlippeningTracker.sol\":1322:1334  getMarketCap */\n      tag_34\n        /* \"I/FlippeningTracker.sol\":1322:1351  getMarketCap(tokenA, oracleA) */\n      jump\t// in\n    tag_38:\n        /* \"I/FlippeningTracker.sol\":1315:1351  capA = getMarketCap(tokenA, oracleA) */\n      swap2\n      pop\n        /* \"I/FlippeningTracker.sol\":1368:1397  getMarketCap(tokenB, oracleB) */\n      tag_39\n        /* \"I/FlippeningTracker.sol\":1381:1387  tokenB */\n      0x01\n      0x00\n      swap1\n      sload\n      swap1\n      0x0100\n      exp\n      swap1\n      div\n      0xffffffffffffffffffffffffffffffffffffffff\n      and\n        /* \"I/FlippeningTracker.sol\":1389:1396  oracleB */\n      0x03\n      0x00\n      swap1\n      sload\n      swap1\n      0x0100\n      exp\n      swap1\n      div\n      0xffffffffffffffffffffffffffffffffffffffff\n      and\n        /* \"I/FlippeningTracker.sol\":1368:1380  getMarketCap */\n      tag_34\n        /* \"I/FlippeningTracker.sol\":1368:1397  getMarketCap(tokenB, oracleB) */\n      jump\t// in\n    tag_39:\n        /* \"I/FlippeningTracker.sol\":1361:1397  capB = getMarketCap(tokenB, oracleB) */\n      swap1\n      pop\n        /* \"I/FlippeningTracker.sol\":1424:1428  capB */\n      dup1\n        /* \"I/FlippeningTracker.sol\":1417:1421  capA */\n      dup3\n        /* \"I/FlippeningTracker.sol\":1417:1428  capA > capB */\n      gt\n        /* \"I/FlippeningTracker.sol\":1407:1428  flipped = capA > capB */\n      swap3\n      pop\n        /* \"I/FlippeningTracker.sol\":1215:1435  function checkFlippening() public view returns (bool flipped, uint256 capA, uint256 capB) {... */\n      swap1\n      swap2\n      swap3\n      jump\t// out\n        /* \"I/FlippeningTracker.sol\":453:475  IOracle public oracleA */\n    tag_20:\n      0x02\n      0x00\n      swap1\n      sload\n      swap1\n      0x0100\n      exp\n      swap1\n      div\n      0xffffffffffffffffffffffffffffffffffffffff\n      and\n      dup2\n      jump\t// out\n        /* \"I/FlippeningTracker.sol\":426:447  address public tokenB */\n    tag_24:\n      0x01\n      0x00\n      swap1\n      sload\n      swap1\n      0x0100\n      exp\n      swap1\n      div\n      0xffffffffffffffffffffffffffffffffffffffff\n      and\n      dup2\n      jump\t// out\n        /* \"I/FlippeningTracker.sol\":1441:1668  function announceFlippening() external {... */\n    tag_27:\n        /* \"I/FlippeningTracker.sol\":1491:1503  bool flipped */\n      0x00\n        /* \"I/FlippeningTracker.sol\":1505:1517  uint256 capA */\n      0x00\n        /* \"I/FlippeningTracker.sol\":1519:1531  uint256 capB */\n      0x00\n        /* \"I/FlippeningTracker.sol\":1535:1552  checkFlippening() */\n      tag_41\n        /* \"I/FlippeningTracker.sol\":1535:1550  checkFlippening */\n      tag_16\n        /* \"I/FlippeningTracker.sol\":1535:1552  checkFlippening() */\n      jump\t// in\n    tag_41:\n        /* \"I/FlippeningTracker.sol\":1490:1552  (bool flipped, uint256 capA, uint256 capB) = checkFlippening() */\n      swap3\n      pop\n      swap3\n      pop\n      swap3\n      pop\n        /* \"I/FlippeningTracker.sol\":1570:1577  flipped */\n      dup3\n        /* \"I/FlippeningTracker.sol\":1562:1599  require(flipped, \"No flippening yet\") */\n      tag_42\n      jumpi\n      mload(0x40)\n      0x08c379a000000000000000000000000000000000000000000000000000000000\n      dup2\n      mstore\n      0x04\n      add\n      tag_43\n      swap1\n      tag_44\n      jump\t// in\n    tag_43:\n      mload(0x40)\n      dup1\n      swap2\n      sub\n      swap1\n      revert\n    tag_42:\n        /* \"I/FlippeningTracker.sol\":1648:1654  tokenB */\n      0x01\n      0x00\n      swap1\n      sload\n      swap1\n      0x0100\n      exp\n      swap1\n      div\n      0xffffffffffffffffffffffffffffffffffffffff\n      and\n        /* \"I/FlippeningTracker.sol\":1615:1661  FlippeningDetected(tokenA, capA, tokenB, capB) */\n      0xffffffffffffffffffffffffffffffffffffffff\n      and\n        /* \"I/FlippeningTracker.sol\":1634:1640  tokenA */\n      0x00\n      0x00\n      swap1\n      sload\n      swap1\n      0x0100\n      exp\n      swap1\n      div\n      0xffffffffffffffffffffffffffffffffffffffff\n      and\n        /* \"I/FlippeningTracker.sol\":1615:1661  FlippeningDetected(tokenA, capA, tokenB, capB) */\n      0xffffffffffffffffffffffffffffffffffffffff\n      and\n      0xa48e8c6c388d4e720c93966682fc22ea44694496c1f3365f1e6917293c21e213\n        /* \"I/FlippeningTracker.sol\":1642:1646  capA */\n      dup5\n        /* \"I/FlippeningTracker.sol\":1656:1660  capB */\n      dup5\n        /* \"I/FlippeningTracker.sol\":1615:1661  FlippeningDetected(tokenA, capA, tokenB, capB) */\n      mload(0x40)\n      tag_45\n      swap3\n      swap2\n      swap1\n      tag_46\n      jump\t// in\n    tag_45:\n      mload(0x40)\n      dup1\n      swap2\n      sub\n      swap1\n      log3\n        /* \"I/FlippeningTracker.sol\":1480:1668  {... */\n      pop\n      pop\n      pop\n        /* \"I/FlippeningTracker.sol\":1441:1668  function announceFlippening() external {... */\n      jump\t// out\n        /* \"I/FlippeningTracker.sol\":481:503  IOracle public oracleB */\n    tag_29:\n      0x03\n      0x00\n      swap1\n      sload\n      swap1\n      0x0100\n      exp\n      swap1\n      div\n      0xffffffffffffffffffffffffffffffffffffffff\n      and\n      dup2\n      jump\t// out\n        /* \"I/FlippeningTracker.sol\":932:1175  function getMarketCap(address token, IOracle oracle) public view returns (uint256) {... */\n    tag_34:\n        /* \"I/FlippeningTracker.sol\":1006:1013  uint256 */\n      0x00\n        /* \"I/FlippeningTracker.sol\":1025:1039  uint256 supply */\n      0x00\n        /* \"I/FlippeningTracker.sol\":1049:1054  token */\n      dup4\n        /* \"I/FlippeningTracker.sol\":1042:1067  IERC20(token).totalSupply */\n      0xffffffffffffffffffffffffffffffffffffffff\n      and\n      0x18160ddd\n        /* \"I/FlippeningTracker.sol\":1042:1069  IERC20(token).totalSupply() */\n      mload(0x40)\n      dup2\n      0xffffffff\n      and\n      0xe0\n      shl\n      dup2\n      mstore\n      0x04\n      add\n      0x20\n      mload(0x40)\n      dup1\n      dup4\n      sub\n      dup2\n      dup7\n      gas\n      staticcall\n      iszero\n      dup1\n      iszero\n      tag_49\n      jumpi\n      returndatacopy(0x00, 0x00, returndatasize)\n      revert(0x00, returndatasize)\n    tag_49:\n      pop\n      pop\n      pop\n      pop\n      mload(0x40)\n      returndatasize\n      not(0x1f)\n      0x1f\n      dup3\n      add\n      and\n      dup3\n      add\n      dup1\n      0x40\n      mstore\n      pop\n      dup2\n      add\n      swap1\n      tag_50\n      swap2\n      swap1\n      tag_51\n      jump\t// in\n    tag_50:\n        /* \"I/FlippeningTracker.sol\":1025:1069  uint256 supply = IERC20(token).totalSupply() */\n      swap1\n      pop\n        /* \"I/FlippeningTracker.sol\":1079:1092  uint256 price */\n      0x00\n        /* \"I/FlippeningTracker.sol\":1095:1101  oracle */\n      dup4\n        /* \"I/FlippeningTracker.sol\":1095:1110  oracle.getPrice */\n      0xffffffffffffffffffffffffffffffffffffffff\n      and\n      0x98d5fdca\n        /* \"I/FlippeningTracker.sol\":1095:1112  oracle.getPrice() */\n      mload(0x40)\n      dup2\n      0xffffffff\n      and\n      0xe0\n      shl\n      dup2\n      mstore\n      0x04\n      add\n      0x20\n      mload(0x40)\n      dup1\n      dup4\n      sub\n      dup2\n      dup7\n      gas\n      staticcall\n      iszero\n      dup1\n      iszero\n      tag_53\n      jumpi\n      returndatacopy(0x00, 0x00, returndatasize)\n      revert(0x00, returndatasize)\n    tag_53:\n      pop\n      pop\n      pop\n      pop\n      mload(0x40)\n      returndatasize\n      not(0x1f)\n      0x1f\n      dup3\n      add\n      and\n      dup3\n      add\n      dup1\n      0x40\n      mstore\n      pop\n      dup2\n      add\n      swap1\n      tag_54\n      swap2\n      swap1\n      tag_51\n      jump\t// in\n    tag_54:\n        /* \"I/FlippeningTracker.sol\":1079:1112  uint256 price = oracle.getPrice() */\n      swap1\n      pop\n        /* \"I/FlippeningTracker.sol\":1165:1168  1e8 */\n      0x05f5e100\n        /* \"I/FlippeningTracker.sol\":1156:1161  price */\n      dup2\n        /* \"I/FlippeningTracker.sol\":1147:1153  supply */\n      dup4\n        /* \"I/FlippeningTracker.sol\":1147:1161  supply * price */\n      tag_55\n      swap2\n      swap1\n      tag_56\n      jump\t// in\n    tag_55:\n        /* \"I/FlippeningTracker.sol\":1146:1168  (supply * price) / 1e8 */\n      tag_57\n      swap2\n      swap1\n      tag_58\n      jump\t// in\n    tag_57:\n        /* \"I/FlippeningTracker.sol\":1139:1168  return (supply * price) / 1e8 */\n      swap3\n      pop\n      pop\n      pop\n        /* \"I/FlippeningTracker.sol\":932:1175  function getMarketCap(address token, IOracle oracle) public view returns (uint256) {... */\n      swap3\n      swap2\n      pop\n      pop\n      jump\t// out\n        /* \"#utility.yul\":7:133   */\n    tag_59:\n        /* \"#utility.yul\":44:51   */\n      0x00\n        /* \"#utility.yul\":84:126   */\n      0xffffffffffffffffffffffffffffffffffffffff\n        /* \"#utility.yul\":77:82   */\n      dup3\n        /* \"#utility.yul\":73:127   */\n      and\n        /* \"#utility.yul\":62:127   */\n      swap1\n      pop\n        /* \"#utility.yul\":7:133   */\n      swap2\n      swap1\n      pop\n      jump\t// out\n        /* \"#utility.yul\":139:235   */\n    tag_60:\n        /* \"#utility.yul\":176:183   */\n      0x00\n        /* \"#utility.yul\":205:229   */\n      tag_89\n        /* \"#utility.yul\":223:228   */\n      dup3\n        /* \"#utility.yul\":205:229   */\n      tag_59\n      jump\t// in\n    tag_89:\n        /* \"#utility.yul\":194:229   */\n      swap1\n      pop\n        /* \"#utility.yul\":139:235   */\n      swap2\n      swap1\n      pop\n      jump\t// out\n        /* \"#utility.yul\":241:359   */\n    tag_61:\n        /* \"#utility.yul\":328:352   */\n      tag_91\n        /* \"#utility.yul\":346:351   */\n      dup2\n        /* \"#utility.yul\":328:352   */\n      tag_60\n      jump\t// in\n    tag_91:\n        /* \"#utility.yul\":323:326   */\n      dup3\n        /* \"#utility.yul\":316:353   */\n      mstore\n        /* \"#utility.yul\":241:359   */\n      pop\n      pop\n      jump\t// out\n        /* \"#utility.yul\":365:587   */\n    tag_14:\n        /* \"#utility.yul\":458:462   */\n      0x00\n        /* \"#utility.yul\":496:498   */\n      0x20\n        /* \"#utility.yul\":485:494   */\n      dup3\n        /* \"#utility.yul\":481:499   */\n      add\n        /* \"#utility.yul\":473:499   */\n      swap1\n      pop\n        /* \"#utility.yul\":509:580   */\n      tag_93\n        /* \"#utility.yul\":577:578   */\n      0x00\n        /* \"#utility.yul\":566:575   */\n      dup4\n        /* \"#utility.yul\":562:579   */\n      add\n        /* \"#utility.yul\":553:559   */\n      dup5\n        /* \"#utility.yul\":509:580   */\n      tag_61\n      jump\t// in\n    tag_93:\n        /* \"#utility.yul\":365:587   */\n      swap3\n      swap2\n      pop\n      pop\n      jump\t// out\n        /* \"#utility.yul\":593:683   */\n    tag_62:\n        /* \"#utility.yul\":627:634   */\n      0x00\n        /* \"#utility.yul\":670:675   */\n      dup2\n        /* \"#utility.yul\":663:676   */\n      iszero\n        /* \"#utility.yul\":656:677   */\n      iszero\n        /* \"#utility.yul\":645:677   */\n      swap1\n      pop\n        /* \"#utility.yul\":593:683   */\n      swap2\n      swap1\n      pop\n      jump\t// out\n        /* \"#utility.yul\":689:798   */\n    tag_63:\n        /* \"#utility.yul\":770:791   */\n      tag_96\n        /* \"#utility.yul\":785:790   */\n      dup2\n        /* \"#utility.yul\":770:791   */\n      tag_62\n      jump\t// in\n    tag_96:\n        /* \"#utility.yul\":765:768   */\n      dup3\n        /* \"#utility.yul\":758:792   */\n      mstore\n        /* \"#utility.yul\":689:798   */\n      pop\n      pop\n      jump\t// out\n        /* \"#utility.yul\":804:881   */\n    tag_64:\n        /* \"#utility.yul\":841:848   */\n      0x00\n        /* \"#utility.yul\":870:875   */\n      dup2\n        /* \"#utility.yul\":859:875   */\n      swap1\n      pop\n        /* \"#utility.yul\":804:881   */\n      swap2\n      swap1\n      pop\n      jump\t// out\n        /* \"#utility.yul\":887:1005   */\n    tag_65:\n        /* \"#utility.yul\":974:998   */\n      tag_99\n        /* \"#utility.yul\":992:997   */\n      dup2\n        /* \"#utility.yul\":974:998   */\n      tag_64\n      jump\t// in\n    tag_99:\n        /* \"#utility.yul\":969:972   */\n      dup3\n        /* \"#utility.yul\":962:999   */\n      mstore\n        /* \"#utility.yul\":887:1005   */\n      pop\n      pop\n      jump\t// out\n        /* \"#utility.yul\":1011:1441   */\n    tag_18:\n        /* \"#utility.yul\":1154:1158   */\n      0x00\n        /* \"#utility.yul\":1192:1194   */\n      0x60\n        /* \"#utility.yul\":1181:1190   */\n      dup3\n        /* \"#utility.yul\":1177:1195   */\n      add\n        /* \"#utility.yul\":1169:1195   */\n      swap1\n      pop\n        /* \"#utility.yul\":1205:1270   */\n      tag_101\n        /* \"#utility.yul\":1267:1268   */\n      0x00\n        /* \"#utility.yul\":1256:1265   */\n      dup4\n        /* \"#utility.yul\":1252:1269   */\n      add\n        /* \"#utility.yul\":1243:1249   */\n      dup7\n        /* \"#utility.yul\":1205:1270   */\n      tag_63\n      jump\t// in\n    tag_101:\n        /* \"#utility.yul\":1280:1352   */\n      tag_102\n        /* \"#utility.yul\":1348:1350   */\n      0x20\n        /* \"#utility.yul\":1337:1346   */\n      dup4\n        /* \"#utility.yul\":1333:1351   */\n      add\n        /* \"#utility.yul\":1324:1330   */\n      dup6\n        /* \"#utility.yul\":1280:1352   */\n      tag_65\n      jump\t// in\n    tag_102:\n        /* \"#utility.yul\":1362:1434   */\n      tag_103\n        /* \"#utility.yul\":1430:1432   */\n      0x40\n        /* \"#utility.yul\":1419:1428   */\n      dup4\n        /* \"#utility.yul\":1415:1433   */\n      add\n        /* \"#utility.yul\":1406:1412   */\n      dup5\n        /* \"#utility.yul\":1362:1434   */\n      tag_65\n      jump\t// in\n    tag_103:\n        /* \"#utility.yul\":1011:1441   */\n      swap5\n      swap4\n      pop\n      pop\n      pop\n      pop\n      jump\t// out\n        /* \"#utility.yul\":1447:1507   */\n    tag_66:\n        /* \"#utility.yul\":1475:1478   */\n      0x00\n        /* \"#utility.yul\":1496:1501   */\n      dup2\n        /* \"#utility.yul\":1489:1501   */\n      swap1\n      pop\n        /* \"#utility.yul\":1447:1507   */\n      swap2\n      swap1\n      pop\n      jump\t// out\n        /* \"#utility.yul\":1513:1655   */\n    tag_67:\n        /* \"#utility.yul\":1563:1572   */\n      0x00\n        /* \"#utility.yul\":1596:1649   */\n      tag_106\n        /* \"#utility.yul\":1614:1648   */\n      tag_107\n        /* \"#utility.yul\":1623:1647   */\n      tag_108\n        /* \"#utility.yul\":1641:1646   */\n      dup5\n        /* \"#utility.yul\":1623:1647   */\n      tag_59\n      jump\t// in\n    tag_108:\n        /* \"#utility.yul\":1614:1648   */\n      tag_66\n      jump\t// in\n    tag_107:\n        /* \"#utility.yul\":1596:1649   */\n      tag_59\n      jump\t// in\n    tag_106:\n        /* \"#utility.yul\":1583:1649   */\n      swap1\n      pop\n        /* \"#utility.yul\":1513:1655   */\n      swap2\n      swap1\n      pop\n      jump\t// out\n        /* \"#utility.yul\":1661:1787   */\n    tag_68:\n        /* \"#utility.yul\":1711:1720   */\n      0x00\n        /* \"#utility.yul\":1744:1781   */\n      tag_110\n        /* \"#utility.yul\":1775:1780   */\n      dup3\n        /* \"#utility.yul\":1744:1781   */\n      tag_67\n      jump\t// in\n    tag_110:\n        /* \"#utility.yul\":1731:1781   */\n      swap1\n      pop\n        /* \"#utility.yul\":1661:1787   */\n      swap2\n      swap1\n      pop\n      jump\t// out\n        /* \"#utility.yul\":1793:1933   */\n    tag_69:\n        /* \"#utility.yul\":1857:1866   */\n      0x00\n        /* \"#utility.yul\":1890:1927   */\n      tag_112\n        /* \"#utility.yul\":1921:1926   */\n      dup3\n        /* \"#utility.yul\":1890:1927   */\n      tag_68\n      jump\t// in\n    tag_112:\n        /* \"#utility.yul\":1877:1927   */\n      swap1\n      pop\n        /* \"#utility.yul\":1793:1933   */\n      swap2\n      swap1\n      pop\n      jump\t// out\n        /* \"#utility.yul\":1939:2098   */\n    tag_70:\n        /* \"#utility.yul\":2040:2091   */\n      tag_114\n        /* \"#utility.yul\":2085:2090   */\n      dup2\n        /* \"#utility.yul\":2040:2091   */\n      tag_69\n      jump\t// in\n    tag_114:\n        /* \"#utility.yul\":2035:2038   */\n      dup3\n        /* \"#utility.yul\":2028:2092   */\n      mstore\n        /* \"#utility.yul\":1939:2098   */\n      pop\n      pop\n      jump\t// out\n        /* \"#utility.yul\":2104:2354   */\n    tag_22:\n        /* \"#utility.yul\":2211:2215   */\n      0x00\n        /* \"#utility.yul\":2249:2251   */\n      0x20\n        /* \"#utility.yul\":2238:2247   */\n      dup3\n        /* \"#utility.yul\":2234:2252   */\n      add\n        /* \"#utility.yul\":2226:2252   */\n      swap1\n      pop\n        /* \"#utility.yul\":2262:2347   */\n      tag_116\n        /* \"#utility.yul\":2344:2345   */\n      0x00\n        /* \"#utility.yul\":2333:2342   */\n      dup4\n        /* \"#utility.yul\":2329:2346   */\n      add\n        /* \"#utility.yul\":2320:2326   */\n      dup5\n        /* \"#utility.yul\":2262:2347   */\n      tag_70\n      jump\t// in\n    tag_116:\n        /* \"#utility.yul\":2104:2354   */\n      swap3\n      swap2\n      pop\n      pop\n      jump\t// out\n        /* \"#utility.yul\":2441:2558   */\n    tag_72:\n        /* \"#utility.yul\":2550:2551   */\n      0x00\n        /* \"#utility.yul\":2547:2548   */\n      0x00\n        /* \"#utility.yul\":2540:2552   */\n      revert\n        /* \"#utility.yul\":2687:2809   */\n    tag_74:\n        /* \"#utility.yul\":2760:2784   */\n      tag_121\n        /* \"#utility.yul\":2778:2783   */\n      dup2\n        /* \"#utility.yul\":2760:2784   */\n      tag_60\n      jump\t// in\n    tag_121:\n        /* \"#utility.yul\":2753:2758   */\n      dup2\n        /* \"#utility.yul\":2750:2785   */\n      eq\n        /* \"#utility.yul\":2740:2803   */\n      tag_122\n      jumpi\n        /* \"#utility.yul\":2799:2800   */\n      0x00\n        /* \"#utility.yul\":2796:2797   */\n      0x00\n        /* \"#utility.yul\":2789:2801   */\n      revert\n        /* \"#utility.yul\":2740:2803   */\n    tag_122:\n        /* \"#utility.yul\":2687:2809   */\n      pop\n      jump\t// out\n        /* \"#utility.yul\":2815:2954   */\n    tag_75:\n        /* \"#utility.yul\":2861:2866   */\n      0x00\n        /* \"#utility.yul\":2899:2905   */\n      dup2\n        /* \"#utility.yul\":2886:2906   */\n      calldataload\n        /* \"#utility.yul\":2877:2906   */\n      swap1\n      pop\n        /* \"#utility.yul\":2915:2948   */\n      tag_124\n        /* \"#utility.yul\":2942:2947   */\n      dup2\n        /* \"#utility.yul\":2915:2948   */\n      tag_74\n      jump\t// in\n    tag_124:\n        /* \"#utility.yul\":2815:2954   */\n      swap3\n      swap2\n      pop\n      pop\n      jump\t// out\n        /* \"#utility.yul\":2960:3070   */\n    tag_76:\n        /* \"#utility.yul\":3011:3018   */\n      0x00\n        /* \"#utility.yul\":3040:3064   */\n      tag_126\n        /* \"#utility.yul\":3058:3063   */\n      dup3\n        /* \"#utility.yul\":3040:3064   */\n      tag_60\n      jump\t// in\n    tag_126:\n        /* \"#utility.yul\":3029:3064   */\n      swap1\n      pop\n        /* \"#utility.yul\":2960:3070   */\n      swap2\n      swap1\n      pop\n      jump\t// out\n        /* \"#utility.yul\":3076:3226   */\n    tag_77:\n        /* \"#utility.yul\":3163:3201   */\n      tag_128\n        /* \"#utility.yul\":3195:3200   */\n      dup2\n        /* \"#utility.yul\":3163:3201   */\n      tag_76\n      jump\t// in\n    tag_128:\n        /* \"#utility.yul\":3156:3161   */\n      dup2\n        /* \"#utility.yul\":3153:3202   */\n      eq\n        /* \"#utility.yul\":3143:3220   */\n      tag_129\n      jumpi\n        /* \"#utility.yul\":3216:3217   */\n      0x00\n        /* \"#utility.yul\":3213:3214   */\n      0x00\n        /* \"#utility.yul\":3206:3218   */\n      revert\n        /* \"#utility.yul\":3143:3220   */\n    tag_129:\n        /* \"#utility.yul\":3076:3226   */\n      pop\n      jump\t// out\n        /* \"#utility.yul\":3232:3399   */\n    tag_78:\n        /* \"#utility.yul\":3292:3297   */\n      0x00\n        /* \"#utility.yul\":3330:3336   */\n      dup2\n        /* \"#utility.yul\":3317:3337   */\n      calldataload\n        /* \"#utility.yul\":3308:3337   */\n      swap1\n      pop\n        /* \"#utility.yul\":3346:3393   */\n      tag_131\n        /* \"#utility.yul\":3387:3392   */\n      dup2\n        /* \"#utility.yul\":3346:3393   */\n      tag_77\n      jump\t// in\n    tag_131:\n        /* \"#utility.yul\":3232:3399   */\n      swap3\n      swap2\n      pop\n      pop\n      jump\t// out\n        /* \"#utility.yul\":3405:3907   */\n    tag_33:\n        /* \"#utility.yul\":3487:3493   */\n      0x00\n        /* \"#utility.yul\":3495:3501   */\n      0x00\n        /* \"#utility.yul\":3544:3546   */\n      0x40\n        /* \"#utility.yul\":3532:3541   */\n      dup4\n        /* \"#utility.yul\":3523:3530   */\n      dup6\n        /* \"#utility.yul\":3519:3542   */\n      sub\n        /* \"#utility.yul\":3515:3547   */\n      slt\n        /* \"#utility.yul\":3512:3631   */\n      iszero\n      tag_133\n      jumpi\n        /* \"#utility.yul\":3550:3629   */\n      tag_134\n      tag_72\n      jump\t// in\n    tag_134:\n        /* \"#utility.yul\":3512:3631   */\n    tag_133:\n        /* \"#utility.yul\":3670:3671   */\n      0x00\n        /* \"#utility.yul\":3695:3748   */\n      tag_135\n        /* \"#utility.yul\":3740:3747   */\n      dup6\n        /* \"#utility.yul\":3731:3737   */\n      dup3\n        /* \"#utility.yul\":3720:3729   */\n      dup7\n        /* \"#utility.yul\":3716:3738   */\n      add\n        /* \"#utility.yul\":3695:3748   */\n      tag_75\n      jump\t// in\n    tag_135:\n        /* \"#utility.yul\":3685:3748   */\n      swap3\n      pop\n        /* \"#utility.yul\":3641:3758   */\n      pop\n        /* \"#utility.yul\":3797:3799   */\n      0x20\n        /* \"#utility.yul\":3823:3890   */\n      tag_136\n        /* \"#utility.yul\":3882:3889   */\n      dup6\n        /* \"#utility.yul\":3873:3879   */\n      dup3\n        /* \"#utility.yul\":3862:3871   */\n      dup7\n        /* \"#utility.yul\":3858:3880   */\n      add\n        /* \"#utility.yul\":3823:3890   */\n      tag_78\n      jump\t// in\n    tag_136:\n        /* \"#utility.yul\":3813:3890   */\n      swap2\n      pop\n        /* \"#utility.yul\":3768:3900   */\n      pop\n        /* \"#utility.yul\":3405:3907   */\n      swap3\n      pop\n      swap3\n      swap1\n      pop\n      jump\t// out\n        /* \"#utility.yul\":3913:4135   */\n    tag_36:\n        /* \"#utility.yul\":4006:4010   */\n      0x00\n        /* \"#utility.yul\":4044:4046   */\n      0x20\n        /* \"#utility.yul\":4033:4042   */\n      dup3\n        /* \"#utility.yul\":4029:4047   */\n      add\n        /* \"#utility.yul\":4021:4047   */\n      swap1\n      pop\n        /* \"#utility.yul\":4057:4128   */\n      tag_138\n        /* \"#utility.yul\":4125:4126   */\n      0x00\n        /* \"#utility.yul\":4114:4123   */\n      dup4\n        /* \"#utility.yul\":4110:4127   */\n      add\n        /* \"#utility.yul\":4101:4107   */\n      dup5\n        /* \"#utility.yul\":4057:4128   */\n      tag_65\n      jump\t// in\n    tag_138:\n        /* \"#utility.yul\":3913:4135   */\n      swap3\n      swap2\n      pop\n      pop\n      jump\t// out\n        /* \"#utility.yul\":4141:4310   */\n    tag_79:\n        /* \"#utility.yul\":4225:4236   */\n      0x00\n        /* \"#utility.yul\":4259:4265   */\n      dup3\n        /* \"#utility.yul\":4254:4257   */\n      dup3\n        /* \"#utility.yul\":4247:4266   */\n      mstore\n        /* \"#utility.yul\":4299:4303   */\n      0x20\n        /* \"#utility.yul\":4294:4297   */\n      dup3\n        /* \"#utility.yul\":4290:4304   */\n      add\n        /* \"#utility.yul\":4275:4304   */\n      swap1\n      pop\n        /* \"#utility.yul\":4141:4310   */\n      swap3\n      swap2\n      pop\n      pop\n      jump\t// out\n        /* \"#utility.yul\":4316:4483   */\n    tag_80:\n        /* \"#utility.yul\":4456:4475   */\n      0x4e6f20666c697070656e696e6720796574000000000000000000000000000000\n        /* \"#utility.yul\":4452:4453   */\n      0x00\n        /* \"#utility.yul\":4444:4450   */\n      dup3\n        /* \"#utility.yul\":4440:4454   */\n      add\n        /* \"#utility.yul\":4433:4476   */\n      mstore\n        /* \"#utility.yul\":4316:4483   */\n      pop\n      jump\t// out\n        /* \"#utility.yul\":4489:4855   */\n    tag_81:\n        /* \"#utility.yul\":4631:4634   */\n      0x00\n        /* \"#utility.yul\":4652:4719   */\n      tag_142\n        /* \"#utility.yul\":4716:4718   */\n      0x11\n        /* \"#utility.yul\":4711:4714   */\n      dup4\n        /* \"#utility.yul\":4652:4719   */\n      tag_79\n      jump\t// in\n    tag_142:\n        /* \"#utility.yul\":4645:4719   */\n      swap2\n      pop\n        /* \"#utility.yul\":4728:4821   */\n      tag_143\n        /* \"#utility.yul\":4817:4820   */\n      dup3\n        /* \"#utility.yul\":4728:4821   */\n      tag_80\n      jump\t// in\n    tag_143:\n        /* \"#utility.yul\":4846:4848   */\n      0x20\n        /* \"#utility.yul\":4841:4844   */\n      dup3\n        /* \"#utility.yul\":4837:4849   */\n      add\n        /* \"#utility.yul\":4830:4849   */\n      swap1\n      pop\n        /* \"#utility.yul\":4489:4855   */\n      swap2\n      swap1\n      pop\n      jump\t// out\n        /* \"#utility.yul\":4861:5280   */\n    tag_44:\n        /* \"#utility.yul\":5027:5031   */\n      0x00\n        /* \"#utility.yul\":5065:5067   */\n      0x20\n        /* \"#utility.yul\":5054:5063   */\n      dup3\n        /* \"#utility.yul\":5050:5068   */\n      add\n        /* \"#utility.yul\":5042:5068   */\n      swap1\n      pop\n        /* \"#utility.yul\":5114:5123   */\n      dup2\n        /* \"#utility.yul\":5108:5112   */\n      dup2\n        /* \"#utility.yul\":5104:5124   */\n      sub\n        /* \"#utility.yul\":5100:5101   */\n      0x00\n        /* \"#utility.yul\":5089:5098   */\n      dup4\n        /* \"#utility.yul\":5085:5102   */\n      add\n        /* \"#utility.yul\":5078:5125   */\n      mstore\n        /* \"#utility.yul\":5142:5273   */\n      tag_145\n        /* \"#utility.yul\":5268:5272   */\n      dup2\n        /* \"#utility.yul\":5142:5273   */\n      tag_81\n      jump\t// in\n    tag_145:\n        /* \"#utility.yul\":5134:5273   */\n      swap1\n      pop\n        /* \"#utility.yul\":4861:5280   */\n      swap2\n      swap1\n      pop\n      jump\t// out\n        /* \"#utility.yul\":5286:5618   */\n    tag_46:\n        /* \"#utility.yul\":5407:5411   */\n      0x00\n        /* \"#utility.yul\":5445:5447   */\n      0x40\n        /* \"#utility.yul\":5434:5443   */\n      dup3\n        /* \"#utility.yul\":5430:5448   */\n      add\n        /* \"#utility.yul\":5422:5448   */\n      swap1\n      pop\n        /* \"#utility.yul\":5458:5529   */\n      tag_147\n        /* \"#utility.yul\":5526:5527   */\n      0x00\n        /* \"#utility.yul\":5515:5524   */\n      dup4\n        /* \"#utility.yul\":5511:5528   */\n      add\n        /* \"#utility.yul\":5502:5508   */\n      dup6\n        /* \"#utility.yul\":5458:5529   */\n      tag_65\n      jump\t// in\n    tag_147:\n        /* \"#utility.yul\":5539:5611   */\n      tag_148\n        /* \"#utility.yul\":5607:5609   */\n      0x20\n        /* \"#utility.yul\":5596:5605   */\n      dup4\n        /* \"#utility.yul\":5592:5610   */\n      add\n        /* \"#utility.yul\":5583:5589   */\n      dup5\n        /* \"#utility.yul\":5539:5611   */\n      tag_65\n      jump\t// in\n    tag_148:\n        /* \"#utility.yul\":5286:5618   */\n      swap4\n      swap3\n      pop\n      pop\n      pop\n      jump\t// out\n        /* \"#utility.yul\":5624:5746   */\n    tag_82:\n        /* \"#utility.yul\":5697:5721   */\n      tag_150\n        /* \"#utility.yul\":5715:5720   */\n      dup2\n        /* \"#utility.yul\":5697:5721   */\n      tag_64\n      jump\t// in\n    tag_150:\n        /* \"#utility.yul\":5690:5695   */\n      dup2\n        /* \"#utility.yul\":5687:5722   */\n      eq\n        /* \"#utility.yul\":5677:5740   */\n      tag_151\n      jumpi\n        /* \"#utility.yul\":5736:5737   */\n      0x00\n        /* \"#utility.yul\":5733:5734   */\n      0x00\n        /* \"#utility.yul\":5726:5738   */\n      revert\n        /* \"#utility.yul\":5677:5740   */\n    tag_151:\n        /* \"#utility.yul\":5624:5746   */\n      pop\n      jump\t// out\n        /* \"#utility.yul\":5752:5895   */\n    tag_83:\n        /* \"#utility.yul\":5809:5814   */\n      0x00\n        /* \"#utility.yul\":5840:5846   */\n      dup2\n        /* \"#utility.yul\":5834:5847   */\n      mload\n        /* \"#utility.yul\":5825:5847   */\n      swap1\n      pop\n        /* \"#utility.yul\":5856:5889   */\n      tag_153\n        /* \"#utility.yul\":5883:5888   */\n      dup2\n        /* \"#utility.yul\":5856:5889   */\n      tag_82\n      jump\t// in\n    tag_153:\n        /* \"#utility.yul\":5752:5895   */\n      swap3\n      swap2\n      pop\n      pop\n      jump\t// out\n        /* \"#utility.yul\":5901:6252   */\n    tag_51:\n        /* \"#utility.yul\":5971:5977   */\n      0x00\n        /* \"#utility.yul\":6020:6022   */\n      0x20\n        /* \"#utility.yul\":6008:6017   */\n      dup3\n        /* \"#utility.yul\":5999:6006   */\n      dup5\n        /* \"#utility.yul\":5995:6018   */\n      sub\n        /* \"#utility.yul\":5991:6023   */\n      slt\n        /* \"#utility.yul\":5988:6107   */\n      iszero\n      tag_155\n      jumpi\n        /* \"#utility.yul\":6026:6105   */\n      tag_156\n      tag_72\n      jump\t// in\n    tag_156:\n        /* \"#utility.yul\":5988:6107   */\n    tag_155:\n        /* \"#utility.yul\":6146:6147   */\n      0x00\n        /* \"#utility.yul\":6171:6235   */\n      tag_157\n        /* \"#utility.yul\":6227:6234   */\n      dup5\n        /* \"#utility.yul\":6218:6224   */\n      dup3\n        /* \"#utility.yul\":6207:6216   */\n      dup6\n        /* \"#utility.yul\":6203:6225   */\n      add\n        /* \"#utility.yul\":6171:6235   */\n      tag_83\n      jump\t// in\n    tag_157:\n        /* \"#utility.yul\":6161:6235   */\n      swap2\n      pop\n        /* \"#utility.yul\":6117:6245   */\n      pop\n        /* \"#utility.yul\":5901:6252   */\n      swap3\n      swap2\n      pop\n      pop\n      jump\t// out\n        /* \"#utility.yul\":6258:6438   */\n    tag_84:\n        /* \"#utility.yul\":6306:6383   */\n      0x4e487b7100000000000000000000000000000000000000000000000000000000\n        /* \"#utility.yul\":6303:6304   */\n      0x00\n        /* \"#utility.yul\":6296:6384   */\n      mstore\n        /* \"#utility.yul\":6403:6407   */\n      0x11\n        /* \"#utility.yul\":6400:6401   */\n      0x04\n        /* \"#utility.yul\":6393:6408   */\n      mstore\n        /* \"#utility.yul\":6427:6431   */\n      0x24\n        /* \"#utility.yul\":6424:6425   */\n      0x00\n        /* \"#utility.yul\":6417:6432   */\n      revert\n        /* \"#utility.yul\":6444:6854   */\n    tag_56:\n        /* \"#utility.yul\":6484:6491   */\n      0x00\n        /* \"#utility.yul\":6507:6527   */\n      tag_160\n        /* \"#utility.yul\":6525:6526   */\n      dup3\n        /* \"#utility.yul\":6507:6527   */\n      tag_64\n      jump\t// in\n    tag_160:\n        /* \"#utility.yul\":6502:6527   */\n      swap2\n      pop\n        /* \"#utility.yul\":6541:6561   */\n      tag_161\n        /* \"#utility.yul\":6559:6560   */\n      dup4\n        /* \"#utility.yul\":6541:6561   */\n      tag_64\n      jump\t// in\n    tag_161:\n        /* \"#utility.yul\":6536:6561   */\n      swap3\n      pop\n        /* \"#utility.yul\":6596:6597   */\n      dup3\n        /* \"#utility.yul\":6593:6594   */\n      dup3\n        /* \"#utility.yul\":6589:6598   */\n      mul\n        /* \"#utility.yul\":6618:6648   */\n      tag_162\n        /* \"#utility.yul\":6636:6647   */\n      dup2\n        /* \"#utility.yul\":6618:6648   */\n      tag_64\n      jump\t// in\n    tag_162:\n        /* \"#utility.yul\":6607:6648   */\n      swap2\n      pop\n        /* \"#utility.yul\":6797:6798   */\n      dup3\n        /* \"#utility.yul\":6788:6795   */\n      dup3\n        /* \"#utility.yul\":6784:6799   */\n      div\n        /* \"#utility.yul\":6781:6782   */\n      dup5\n        /* \"#utility.yul\":6778:6800   */\n      eq\n        /* \"#utility.yul\":6758:6759   */\n      dup4\n        /* \"#utility.yul\":6751:6760   */\n      iszero\n        /* \"#utility.yul\":6731:6814   */\n      or\n        /* \"#utility.yul\":6708:6847   */\n      tag_163\n      jumpi\n        /* \"#utility.yul\":6827:6845   */\n      tag_164\n      tag_84\n      jump\t// in\n    tag_164:\n        /* \"#utility.yul\":6708:6847   */\n    tag_163:\n        /* \"#utility.yul\":6492:6854   */\n      pop\n        /* \"#utility.yul\":6444:6854   */\n      swap3\n      swap2\n      pop\n      pop\n      jump\t// out\n        /* \"#utility.yul\":6860:7040   */\n    tag_85:\n        /* \"#utility.yul\":6908:6985   */\n      0x4e487b7100000000000000000000000000000000000000000000000000000000\n        /* \"#utility.yul\":6905:6906   */\n      0x00\n        /* \"#utility.yul\":6898:6986   */\n      mstore\n        /* \"#utility.yul\":7005:7009   */\n      0x12\n        /* \"#utility.yul\":7002:7003   */\n      0x04\n        /* \"#utility.yul\":6995:7010   */\n      mstore\n        /* \"#utility.yul\":7029:7033   */\n      0x24\n        /* \"#utility.yul\":7026:7027   */\n      0x00\n        /* \"#utility.yul\":7019:7034   */\n      revert\n        /* \"#utility.yul\":7046:7231   */\n    tag_58:\n        /* \"#utility.yul\":7086:7087   */\n      0x00\n        /* \"#utility.yul\":7103:7123   */\n      tag_167\n        /* \"#utility.yul\":7121:7122   */\n      dup3\n        /* \"#utility.yul\":7103:7123   */\n      tag_64\n      jump\t// in\n    tag_167:\n        /* \"#utility.yul\":7098:7123   */\n      swap2\n      pop\n        /* \"#utility.yul\":7137:7157   */\n      tag_168\n        /* \"#utility.yul\":7155:7156   */\n      dup4\n        /* \"#utility.yul\":7137:7157   */\n      tag_64\n      jump\t// in\n    tag_168:\n        /* \"#utility.yul\":7132:7157   */\n      swap3\n      pop\n        /* \"#utility.yul\":7176:7177   */\n      dup3\n        /* \"#utility.yul\":7166:7201   */\n      tag_169\n      jumpi\n        /* \"#utility.yul\":7181:7199   */\n      tag_170\n      tag_85\n      jump\t// in\n    tag_170:\n        /* \"#utility.yul\":7166:7201   */\n    tag_169:\n        /* \"#utility.yul\":7223:7224   */\n      dup3\n        /* \"#utility.yul\":7220:7221   */\n      dup3\n        /* \"#utility.yul\":7216:7225   */\n      div\n        /* \"#utility.yul\":7211:7225   */\n      swap1\n      pop\n        /* \"#utility.yul\":7046:7231   */\n      swap3\n      swap2\n      pop\n      pop\n      jump\t// out\n\n    auxdata: 0xa2646970667358221220f4b1d50a4b6987477d853e14fc46135cb4746f7cc2a6b870aec1b18fcd80c50664736f6c634300081d0033\n}\n",
				"bytecode": {
					"linkReferences": {},
					"object": "608060405234801561000f575f5ffd5b50604051610a80380380610a8083398181016040528101906100319190610197565b835f5f6101000a81548173ffffffffffffffffffffffffffffffffffffffff021916908373ffffffffffffffffffffffffffffffffffffffff1602179055508160015f6101000a81548173ffffffffffffffffffffffffffffffffffffffff021916908373ffffffffffffffffffffffffffffffffffffffff1602179055508260025f6101000a81548173ffffffffffffffffffffffffffffffffffffffff021916908373ffffffffffffffffffffffffffffffffffffffff1602179055508060035f6101000a81548173ffffffffffffffffffffffffffffffffffffffff021916908373ffffffffffffffffffffffffffffffffffffffff160217905550505050506101fb565b5f5ffd5b5f73ffffffffffffffffffffffffffffffffffffffff82169050919050565b5f6101668261013d565b9050919050565b6101768161015c565b8114610180575f5ffd5b50565b5f815190506101918161016d565b92915050565b5f5f5f5f608085870312156101af576101ae610139565b5b5f6101bc87828801610183565b94505060206101cd87828801610183565b93505060406101de87828801610183565b92505060606101ef87828801610183565b91505092959194509250565b610878806102085f395ff3fe608060405234801561000f575f5ffd5b506004361061007b575f3560e01c80635f64b55b116100595780635f64b55b146100db57806363c56e2f146100f95780639bdff8eb146101035780639cc4b0d2146101215761007b565b80630fc63d101461007f57806311d82f031461009d5780631670cb6f146100bd575b5f5ffd5b610087610151565b60405161009491906104cf565b60405180910390f35b6100a5610175565b6040516100b49392919061051a565b60405180910390f35b6100c561021d565b6040516100d291906105aa565b60405180910390f35b6100e3610242565b6040516100f091906104cf565b60405180910390f35b610101610267565b005b61010b610365565b60405161011891906105aa565b60405180910390f35b61013b6004803603810190610136919061062c565b61038a565b604051610148919061066a565b60405180910390f35b5f5f9054906101000a900473ffffffffffffffffffffffffffffffffffffffff1681565b5f5f5f6101c35f5f9054906101000a900473ffffffffffffffffffffffffffffffffffffffff1660025f9054906101000a900473ffffffffffffffffffffffffffffffffffffffff1661038a565b915061021160015f9054906101000a900473ffffffffffffffffffffffffffffffffffffffff1660035f9054906101000a900473ffffffffffffffffffffffffffffffffffffffff1661038a565b90508082119250909192565b60025f9054906101000a900473ffffffffffffffffffffffffffffffffffffffff1681565b60015f9054906101000a900473ffffffffffffffffffffffffffffffffffffffff1681565b5f5f5f610272610175565b925092509250826102b8576040517f08c379a00000000000000000000000000000000000000000000000000000000081526004016102af906106dd565b60405180910390fd5b60015f9054906101000a900473ffffffffffffffffffffffffffffffffffffffff1673ffffffffffffffffffffffffffffffffffffffff165f5f9054906101000a900473ffffffffffffffffffffffffffffffffffffffff1673ffffffffffffffffffffffffffffffffffffffff167fa48e8c6c388d4e720c93966682fc22ea44694496c1f3365f1e6917293c21e21384846040516103589291906106fb565b60405180910390a3505050565b60035f9054906101000a900473ffffffffffffffffffffffffffffffffffffffff1681565b5f5f8373ffffffffffffffffffffffffffffffffffffffff166318160ddd6040518163ffffffff1660e01b8152600401602060405180830381865afa1580156103d5573d5f5f3e3d5ffd5b505050506040513d601f19601f820116820180604052508101906103f9919061074c565b90505f8373ffffffffffffffffffffffffffffffffffffffff166398d5fdca6040518163ffffffff1660e01b8152600401602060405180830381865afa158015610445573d5f5f3e3d5ffd5b505050506040513d601f19601f82011682018060405250810190610469919061074c565b90506305f5e100818361047c91906107a4565b6104869190610812565b9250505092915050565b5f73ffffffffffffffffffffffffffffffffffffffff82169050919050565b5f6104b982610490565b9050919050565b6104c9816104af565b82525050565b5f6020820190506104e25f8301846104c0565b92915050565b5f8115159050919050565b6104fc816104e8565b82525050565b5f819050919050565b61051481610502565b82525050565b5f60608201905061052d5f8301866104f3565b61053a602083018561050b565b610547604083018461050b565b949350505050565b5f819050919050565b5f61057261056d61056884610490565b61054f565b610490565b9050919050565b5f61058382610558565b9050919050565b5f61059482610579565b9050919050565b6105a48161058a565b82525050565b5f6020820190506105bd5f83018461059b565b92915050565b5f5ffd5b6105d0816104af565b81146105da575f5ffd5b50565b5f813590506105eb816105c7565b92915050565b5f6105fb826104af565b9050919050565b61060b816105f1565b8114610615575f5ffd5b50565b5f8135905061062681610602565b92915050565b5f5f60408385031215610642576106416105c3565b5b5f61064f858286016105dd565b925050602061066085828601610618565b9150509250929050565b5f60208201905061067d5f83018461050b565b92915050565b5f82825260208201905092915050565b7f4e6f20666c697070656e696e67207965740000000000000000000000000000005f82015250565b5f6106c7601183610683565b91506106d282610693565b602082019050919050565b5f6020820190508181035f8301526106f4816106bb565b9050919050565b5f60408201905061070e5f83018561050b565b61071b602083018461050b565b9392505050565b61072b81610502565b8114610735575f5ffd5b50565b5f8151905061074681610722565b92915050565b5f60208284031215610761576107606105c3565b5b5f61076e84828501610738565b91505092915050565b7f4e487b71000000000000000000000000000000000000000000000000000000005f52601160045260245ffd5b5f6107ae82610502565b91506107b983610502565b92508282026107c781610502565b915082820484148315176107de576107dd610777565b5b5092915050565b7f4e487b71000000000000000000000000000000000000000000000000000000005f52601260045260245ffd5b5f61081c82610502565b915061082783610502565b925082610837576108366107e5565b5b82820490509291505056fea2646970667358221220f4b1d50a4b6987477d853e14fc46135cb4746f7cc2a6b870aec1b18fcd80c50664736f6c634300081d0033",
					"opcodes": "PUSH1 0x80 PUSH1 0x40 MSTORE CALLVALUE DUP1 ISZERO PUSH2 0xF JUMPI PUSH0 PUSH0 REVERT JUMPDEST POP PUSH1 0x40 MLOAD PUSH2 0xA80 CODESIZE SUB DUP1 PUSH2 0xA80 DUP4 CODECOPY DUP2 DUP2 ADD PUSH1 0x40 MSTORE DUP2 ADD SWAP1 PUSH2 0x31 SWAP2 SWAP1 PUSH2 0x197 JUMP JUMPDEST DUP4 PUSH0 PUSH0 PUSH2 0x100 EXP DUP2 SLOAD DUP2 PUSH20 0xFFFFFFFFFFFFFFFFFFFFFFFFFFFFFFFFFFFFFFFF MUL NOT AND SWAP1 DUP4 PUSH20 0xFFFFFFFFFFFFFFFFFFFFFFFFFFFFFFFFFFFFFFFF AND MUL OR SWAP1 SSTORE POP DUP2 PUSH1 0x1 PUSH0 PUSH2 0x100 EXP DUP2 SLOAD DUP2 PUSH20 0xFFFFFFFFFFFFFFFFFFFFFFFFFFFFFFFFFFFFFFFF MUL NOT AND SWAP1 DUP4 PUSH20 0xFFFFFFFFFFFFFFFFFFFFFFFFFFFFFFFFFFFFFFFF AND MUL OR SWAP1 SSTORE POP DUP3 PUSH1 0x2 PUSH0 PUSH2 0x100 EXP DUP2 SLOAD DUP2 PUSH20 0xFFFFFFFFFFFFFFFFFFFFFFFFFFFFFFFFFFFFFFFF MUL NOT AND SWAP1 DUP4 PUSH20 0xFFFFFFFFFFFFFFFFFFFFFFFFFFFFFFFFFFFFFFFF AND MUL OR SWAP1 SSTORE POP DUP1 PUSH1 0x3 PUSH0 PUSH2 0x100 EXP DUP2 SLOAD DUP2 PUSH20 0xFFFFFFFFFFFFFFFFFFFFFFFFFFFFFFFFFFFFFFFF MUL NOT AND SWAP1 DUP4 PUSH20 0xFFFFFFFFFFFFFFFFFFFFFFFFFFFFFFFFFFFFFFFF AND MUL OR SWAP1 SSTORE POP POP POP POP POP PUSH2 0x1FB JUMP JUMPDEST PUSH0 PUSH0 REVERT JUMPDEST PUSH0 PUSH20 0xFFFFFFFFFFFFFFFFFFFFFFFFFFFFFFFFFFFFFFFF DUP3 AND SWAP1 POP SWAP2 SWAP1 POP JUMP JUMPDEST PUSH0 PUSH2 0x166 DUP3 PUSH2 0x13D JUMP JUMPDEST SWAP1 POP SWAP2 SWAP1 POP JUMP JUMPDEST PUSH2 0x176 DUP2 PUSH2 0x15C JUMP JUMPDEST DUP2 EQ PUSH2 0x180 JUMPI PUSH0 PUSH0 REVERT JUMPDEST POP JUMP JUMPDEST PUSH0 DUP2 MLOAD SWAP1 POP PUSH2 0x191 DUP2 PUSH2 0x16D JUMP JUMPDEST SWAP3 SWAP2 POP POP JUMP JUMPDEST PUSH0 PUSH0 PUSH0 PUSH0 PUSH1 0x80 DUP6 DUP8 SUB SLT ISZERO PUSH2 0x1AF JUMPI PUSH2 0x1AE PUSH2 0x139 JUMP JUMPDEST JUMPDEST PUSH0 PUSH2 0x1BC DUP8 DUP3 DUP9 ADD PUSH2 0x183 JUMP JUMPDEST SWAP5 POP POP PUSH1 0x20 PUSH2 0x1CD DUP8 DUP3 DUP9 ADD PUSH2 0x183 JUMP JUMPDEST SWAP4 POP POP PUSH1 0x40 PUSH2 0x1DE DUP8 DUP3 DUP9 ADD PUSH2 0x183 JUMP JUMPDEST SWAP3 POP POP PUSH1 0x60 PUSH2 0x1EF DUP8 DUP3 DUP9 ADD PUSH2 0x183 JUMP JUMPDEST SWAP2 POP POP SWAP3 SWAP6 SWAP2 SWAP5 POP SWAP3 POP JUMP JUMPDEST PUSH2 0x878 DUP1 PUSH2 0x208 PUSH0 CODECOPY PUSH0 RETURN INVALID PUSH1 0x80 PUSH1 0x40 MSTORE CALLVALUE DUP1 ISZERO PUSH2 0xF JUMPI PUSH0 PUSH0 REVERT JUMPDEST POP PUSH1 0x4 CALLDATASIZE LT PUSH2 0x7B JUMPI PUSH0 CALLDATALOAD PUSH1 0xE0 SHR DUP1 PUSH4 0x5F64B55B GT PUSH2 0x59 JUMPI DUP1 PUSH4 0x5F64B55B EQ PUSH2 0xDB JUMPI DUP1 PUSH4 0x63C56E2F EQ PUSH2 0xF9 JUMPI DUP1 PUSH4 0x9BDFF8EB EQ PUSH2 0x103 JUMPI DUP1 PUSH4 0x9CC4B0D2 EQ PUSH2 0x121 JUMPI PUSH2 0x7B JUMP JUMPDEST DUP1 PUSH4 0xFC63D10 EQ PUSH2 0x7F JUMPI DUP1 PUSH4 0x11D82F03 EQ PUSH2 0x9D JUMPI DUP1 PUSH4 0x1670CB6F EQ PUSH2 0xBD JUMPI JUMPDEST PUSH0 PUSH0 REVERT JUMPDEST PUSH2 0x87 PUSH2 0x151 JUMP JUMPDEST PUSH1 0x40 MLOAD PUSH2 0x94 SWAP2 SWAP1 PUSH2 0x4CF JUMP JUMPDEST PUSH1 0x40 MLOAD DUP1 SWAP2 SUB SWAP1 RETURN JUMPDEST PUSH2 0xA5 PUSH2 0x175 JUMP JUMPDEST PUSH1 0x40 MLOAD PUSH2 0xB4 SWAP4 SWAP3 SWAP2 SWAP1 PUSH2 0x51A JUMP JUMPDEST PUSH1 0x40 MLOAD DUP1 SWAP2 SUB SWAP1 RETURN JUMPDEST PUSH2 0xC5 PUSH2 0x21D JUMP JUMPDEST PUSH1 0x40 MLOAD PUSH2 0xD2 SWAP2 SWAP1 PUSH2 0x5AA JUMP JUMPDEST PUSH1 0x40 MLOAD DUP1 SWAP2 SUB SWAP1 RETURN JUMPDEST PUSH2 0xE3 PUSH2 0x242 JUMP JUMPDEST PUSH1 0x40 MLOAD PUSH2 0xF0 SWAP2 SWAP1 PUSH2 0x4CF JUMP JUMPDEST PUSH1 0x40 MLOAD DUP1 SWAP2 SUB SWAP1 RETURN JUMPDEST PUSH2 0x101 PUSH2 0x267 JUMP JUMPDEST STOP JUMPDEST PUSH2 0x10B PUSH2 0x365 JUMP JUMPDEST PUSH1 0x40 MLOAD PUSH2 0x118 SWAP2 SWAP1 PUSH2 0x5AA JUMP JUMPDEST PUSH1 0x40 MLOAD DUP1 SWAP2 SUB SWAP1 RETURN JUMPDEST PUSH2 0x13B PUSH1 0x4 DUP1 CALLDATASIZE SUB DUP2 ADD SWAP1 PUSH2 0x136 SWAP2 SWAP1 PUSH2 0x62C JUMP JUMPDEST PUSH2 0x38A JUMP JUMPDEST PUSH1 0x40 MLOAD PUSH2 0x148 SWAP2 SWAP1 PUSH2 0x66A JUMP JUMPDEST PUSH1 0x40 MLOAD DUP1 SWAP2 SUB SWAP1 RETURN JUMPDEST PUSH0 PUSH0 SWAP1 SLOAD SWAP1 PUSH2 0x100 EXP SWAP1 DIV PUSH20 0xFFFFFFFFFFFFFFFFFFFFFFFFFFFFFFFFFFFFFFFF AND DUP2 JUMP JUMPDEST PUSH0 PUSH0 PUSH0 PUSH2 0x1C3 PUSH0 PUSH0 SWAP1 SLOAD SWAP1 PUSH2 0x100 EXP SWAP1 DIV PUSH20 0xFFFFFFFFFFFFFFFFFFFFFFFFFFFFFFFFFFFFFFFF AND PUSH1 0x2 PUSH0 SWAP1 SLOAD SWAP1 PUSH2 0x100 EXP SWAP1 DIV PUSH20 0xFFFFFFFFFFFFFFFFFFFFFFFFFFFFFFFFFFFFFFFF AND PUSH2 0x38A JUMP JUMPDEST SWAP2 POP PUSH2 0x211 PUSH1 0x1 PUSH0 SWAP1 SLOAD SWAP1 PUSH2 0x100 EXP SWAP1 DIV PUSH20 0xFFFFFFFFFFFFFFFFFFFFFFFFFFFFFFFFFFFFFFFF AND PUSH1 0x3 PUSH0 SWAP1 SLOAD SWAP1 PUSH2 0x100 EXP SWAP1 DIV PUSH20 0xFFFFFFFFFFFFFFFFFFFFFFFFFFFFFFFFFFFFFFFF AND PUSH2 0x38A JUMP JUMPDEST SWAP1 POP DUP1 DUP3 GT SWAP3 POP SWAP1 SWAP2 SWAP3 JUMP JUMPDEST PUSH1 0x2 PUSH0 SWAP1 SLOAD SWAP1 PUSH2 0x100 EXP SWAP1 DIV PUSH20 0xFFFFFFFFFFFFFFFFFFFFFFFFFFFFFFFFFFFFFFFF AND DUP2 JUMP JUMPDEST PUSH1 0x1 PUSH0 SWAP1 SLOAD SWAP1 PUSH2 0x100 EXP SWAP1 DIV PUSH20 0xFFFFFFFFFFFFFFFFFFFFFFFFFFFFFFFFFFFFFFFF AND DUP2 JUMP JUMPDEST PUSH0 PUSH0 PUSH0 PUSH2 0x272 PUSH2 0x175 JUMP JUMPDEST SWAP3 POP SWAP3 POP SWAP3 POP DUP3 PUSH2 0x2B8 JUMPI PUSH1 0x40 MLOAD PUSH32 0x8C379A000000000000000000000000000000000000000000000000000000000 DUP2 MSTORE PUSH1 0x4 ADD PUSH2 0x2AF SWAP1 PUSH2 0x6DD JUMP JUMPDEST PUSH1 0x40 MLOAD DUP1 SWAP2 SUB SWAP1 REVERT JUMPDEST PUSH1 0x1 PUSH0 SWAP1 SLOAD SWAP1 PUSH2 0x100 EXP SWAP1 DIV PUSH20 0xFFFFFFFFFFFFFFFFFFFFFFFFFFFFFFFFFFFFFFFF AND PUSH20 0xFFFFFFFFFFFFFFFFFFFFFFFFFFFFFFFFFFFFFFFF AND PUSH0 PUSH0 SWAP1 SLOAD SWAP1 PUSH2 0x100 EXP SWAP1 DIV PUSH20 0xFFFFFFFFFFFFFFFFFFFFFFFFFFFFFFFFFFFFFFFF AND PUSH20 0xFFFFFFFFFFFFFFFFFFFFFFFFFFFFFFFFFFFFFFFF AND PUSH32 0xA48E8C6C388D4E720C93966682FC22EA44694496C1F3365F1E6917293C21E213 DUP5 DUP5 PUSH1 0x40 MLOAD PUSH2 0x358 SWAP3 SWAP2 SWAP1 PUSH2 0x6FB JUMP JUMPDEST PUSH1 0x40 MLOAD DUP1 SWAP2 SUB SWAP1 LOG3 POP POP POP JUMP JUMPDEST PUSH1 0x3 PUSH0 SWAP1 SLOAD SWAP1 PUSH2 0x100 EXP SWAP1 DIV PUSH20 0xFFFFFFFFFFFFFFFFFFFFFFFFFFFFFFFFFFFFFFFF AND DUP2 JUMP JUMPDEST PUSH0 PUSH0 DUP4 PUSH20 0xFFFFFFFFFFFFFFFFFFFFFFFFFFFFFFFFFFFFFFFF AND PUSH4 0x18160DDD PUSH1 0x40 MLOAD DUP2 PUSH4 0xFFFFFFFF AND PUSH1 0xE0 SHL DUP2 MSTORE PUSH1 0x4 ADD PUSH1 0x20 PUSH1 0x40 MLOAD DUP1 DUP4 SUB DUP2 DUP7 GAS STATICCALL ISZERO DUP1 ISZERO PUSH2 0x3D5 JUMPI RETURNDATASIZE PUSH0 PUSH0 RETURNDATACOPY RETURNDATASIZE PUSH0 REVERT JUMPDEST POP POP POP POP PUSH1 0x40 MLOAD RETURNDATASIZE PUSH1 0x1F NOT PUSH1 0x1F DUP3 ADD AND DUP3 ADD DUP1 PUSH1 0x40 MSTORE POP DUP2 ADD SWAP1 PUSH2 0x3F9 SWAP2 SWAP1 PUSH2 0x74C JUMP JUMPDEST SWAP1 POP PUSH0 DUP4 PUSH20 0xFFFFFFFFFFFFFFFFFFFFFFFFFFFFFFFFFFFFFFFF AND PUSH4 0x98D5FDCA PUSH1 0x40 MLOAD DUP2 PUSH4 0xFFFFFFFF AND PUSH1 0xE0 SHL DUP2 MSTORE PUSH1 0x4 ADD PUSH1 0x20 PUSH1 0x40 MLOAD DUP1 DUP4 SUB DUP2 DUP7 GAS STATICCALL ISZERO DUP1 ISZERO PUSH2 0x445 JUMPI RETURNDATASIZE PUSH0 PUSH0 RETURNDATACOPY RETURNDATASIZE PUSH0 REVERT JUMPDEST POP POP POP POP PUSH1 0x40 MLOAD RETURNDATASIZE PUSH1 0x1F NOT PUSH1 0x1F DUP3 ADD AND DUP3 ADD DUP1 PUSH1 0x40 MSTORE POP DUP2 ADD SWAP1 PUSH2 0x469 SWAP2 SWAP1 PUSH2 0x74C JUMP JUMPDEST SWAP1 POP PUSH4 0x5F5E100 DUP2 DUP4 PUSH2 0x47C SWAP2 SWAP1 PUSH2 0x7A4 JUMP JUMPDEST PUSH2 0x486 SWAP2 SWAP1 PUSH2 0x812 JUMP JUMPDEST SWAP3 POP POP POP SWAP3 SWAP2 POP POP JUMP JUMPDEST PUSH0 PUSH20 0xFFFFFFFFFFFFFFFFFFFFFFFFFFFFFFFFFFFFFFFF DUP3 AND SWAP1 POP SWAP2 SWAP1 POP JUMP JUMPDEST PUSH0 PUSH2 0x4B9 DUP3 PUSH2 0x490 JUMP JUMPDEST SWAP1 POP SWAP2 SWAP1 POP JUMP JUMPDEST PUSH2 0x4C9 DUP2 PUSH2 0x4AF JUMP JUMPDEST DUP3 MSTORE POP POP JUMP JUMPDEST PUSH0 PUSH1 0x20 DUP3 ADD SWAP1 POP PUSH2 0x4E2 PUSH0 DUP4 ADD DUP5 PUSH2 0x4C0 JUMP JUMPDEST SWAP3 SWAP2 POP POP JUMP JUMPDEST PUSH0 DUP2 ISZERO ISZERO SWAP1 POP SWAP2 SWAP1 POP JUMP JUMPDEST PUSH2 0x4FC DUP2 PUSH2 0x4E8 JUMP JUMPDEST DUP3 MSTORE POP POP JUMP JUMPDEST PUSH0 DUP2 SWAP1 POP SWAP2 SWAP1 POP JUMP JUMPDEST PUSH2 0x514 DUP2 PUSH2 0x502 JUMP JUMPDEST DUP3 MSTORE POP POP JUMP JUMPDEST PUSH0 PUSH1 0x60 DUP3 ADD SWAP1 POP PUSH2 0x52D PUSH0 DUP4 ADD DUP7 PUSH2 0x4F3 JUMP JUMPDEST PUSH2 0x53A PUSH1 0x20 DUP4 ADD DUP6 PUSH2 0x50B JUMP JUMPDEST PUSH2 0x547 PUSH1 0x40 DUP4 ADD DUP5 PUSH2 0x50B JUMP JUMPDEST SWAP5 SWAP4 POP POP POP POP JUMP JUMPDEST PUSH0 DUP2 SWAP1 POP SWAP2 SWAP1 POP JUMP JUMPDEST PUSH0 PUSH2 0x572 PUSH2 0x56D PUSH2 0x568 DUP5 PUSH2 0x490 JUMP JUMPDEST PUSH2 0x54F JUMP JUMPDEST PUSH2 0x490 JUMP JUMPDEST SWAP1 POP SWAP2 SWAP1 POP JUMP JUMPDEST PUSH0 PUSH2 0x583 DUP3 PUSH2 0x558 JUMP JUMPDEST SWAP1 POP SWAP2 SWAP1 POP JUMP JUMPDEST PUSH0 PUSH2 0x594 DUP3 PUSH2 0x579 JUMP JUMPDEST SWAP1 POP SWAP2 SWAP1 POP JUMP JUMPDEST PUSH2 0x5A4 DUP2 PUSH2 0x58A JUMP JUMPDEST DUP3 MSTORE POP POP JUMP JUMPDEST PUSH0 PUSH1 0x20 DUP3 ADD SWAP1 POP PUSH2 0x5BD PUSH0 DUP4 ADD DUP5 PUSH2 0x59B JUMP JUMPDEST SWAP3 SWAP2 POP POP JUMP JUMPDEST PUSH0 PUSH0 REVERT JUMPDEST PUSH2 0x5D0 DUP2 PUSH2 0x4AF JUMP JUMPDEST DUP2 EQ PUSH2 0x5DA JUMPI PUSH0 PUSH0 REVERT JUMPDEST POP JUMP JUMPDEST PUSH0 DUP2 CALLDATALOAD SWAP1 POP PUSH2 0x5EB DUP2 PUSH2 0x5C7 JUMP JUMPDEST SWAP3 SWAP2 POP POP JUMP JUMPDEST PUSH0 PUSH2 0x5FB DUP3 PUSH2 0x4AF JUMP JUMPDEST SWAP1 POP SWAP2 SWAP1 POP JUMP JUMPDEST PUSH2 0x60B DUP2 PUSH2 0x5F1 JUMP JUMPDEST DUP2 EQ PUSH2 0x615 JUMPI PUSH0 PUSH0 REVERT JUMPDEST POP JUMP JUMPDEST PUSH0 DUP2 CALLDATALOAD SWAP1 POP PUSH2 0x626 DUP2 PUSH2 0x602 JUMP JUMPDEST SWAP3 SWAP2 POP POP JUMP JUMPDEST PUSH0 PUSH0 PUSH1 0x40 DUP4 DUP6 SUB SLT ISZERO PUSH2 0x642 JUMPI PUSH2 0x641 PUSH2 0x5C3 JUMP JUMPDEST JUMPDEST PUSH0 PUSH2 0x64F DUP6 DUP3 DUP7 ADD PUSH2 0x5DD JUMP JUMPDEST SWAP3 POP POP PUSH1 0x20 PUSH2 0x660 DUP6 DUP3 DUP7 ADD PUSH2 0x618 JUMP JUMPDEST SWAP2 POP POP SWAP3 POP SWAP3 SWAP1 POP JUMP JUMPDEST PUSH0 PUSH1 0x20 DUP3 ADD SWAP1 POP PUSH2 0x67D PUSH0 DUP4 ADD DUP5 PUSH2 0x50B JUMP JUMPDEST SWAP3 SWAP2 POP POP JUMP JUMPDEST PUSH0 DUP3 DUP3 MSTORE PUSH1 0x20 DUP3 ADD SWAP1 POP SWAP3 SWAP2 POP POP JUMP JUMPDEST PUSH32 0x4E6F20666C697070656E696E6720796574000000000000000000000000000000 PUSH0 DUP3 ADD MSTORE POP JUMP JUMPDEST PUSH0 PUSH2 0x6C7 PUSH1 0x11 DUP4 PUSH2 0x683 JUMP JUMPDEST SWAP2 POP PUSH2 0x6D2 DUP3 PUSH2 0x693 JUMP JUMPDEST PUSH1 0x20 DUP3 ADD SWAP1 POP SWAP2 SWAP1 POP JUMP JUMPDEST PUSH0 PUSH1 0x20 DUP3 ADD SWAP1 POP DUP2 DUP2 SUB PUSH0 DUP4 ADD MSTORE PUSH2 0x6F4 DUP2 PUSH2 0x6BB JUMP JUMPDEST SWAP1 POP SWAP2 SWAP1 POP JUMP JUMPDEST PUSH0 PUSH1 0x40 DUP3 ADD SWAP1 POP PUSH2 0x70E PUSH0 DUP4 ADD DUP6 PUSH2 0x50B JUMP JUMPDEST PUSH2 0x71B PUSH1 0x20 DUP4 ADD DUP5 PUSH2 0x50B JUMP JUMPDEST SWAP4 SWAP3 POP POP POP JUMP JUMPDEST PUSH2 0x72B DUP2 PUSH2 0x502 JUMP JUMPDEST DUP2 EQ PUSH2 0x735 JUMPI PUSH0 PUSH0 REVERT JUMPDEST POP JUMP JUMPDEST PUSH0 DUP2 MLOAD SWAP1 POP PUSH2 0x746 DUP2 PUSH2 0x722 JUMP JUMPDEST SWAP3 SWAP2 POP POP JUMP JUMPDEST PUSH0 PUSH1 0x20 DUP3 DUP5 SUB SLT ISZERO PUSH2 0x761 JUMPI PUSH2 0x760 PUSH2 0x5C3 JUMP JUMPDEST JUMPDEST PUSH0 PUSH2 0x76E DUP5 DUP3 DUP6 ADD PUSH2 0x738 JUMP JUMPDEST SWAP2 POP POP SWAP3 SWAP2 POP POP JUMP JUMPDEST PUSH32 0x4E487B7100000000000000000000000000000000000000000000000000000000 PUSH0 MSTORE PUSH1 0x11 PUSH1 0x4 MSTORE PUSH1 0x24 PUSH0 REVERT JUMPDEST PUSH0 PUSH2 0x7AE DUP3 PUSH2 0x502 JUMP JUMPDEST SWAP2 POP PUSH2 0x7B9 DUP4 PUSH2 0x502 JUMP JUMPDEST SWAP3 POP DUP3 DUP3 MUL PUSH2 0x7C7 DUP2 PUSH2 0x502 JUMP JUMPDEST SWAP2 POP DUP3 DUP3 DIV DUP5 EQ DUP4 ISZERO OR PUSH2 0x7DE JUMPI PUSH2 0x7DD PUSH2 0x777 JUMP JUMPDEST JUMPDEST POP SWAP3 SWAP2 POP POP JUMP JUMPDEST PUSH32 0x4E487B7100000000000000000000000000000000000000000000000000000000 PUSH0 MSTORE PUSH1 0x12 PUSH1 0x4 MSTORE PUSH1 0x24 PUSH0 REVERT JUMPDEST PUSH0 PUSH2 0x81C DUP3 PUSH2 0x502 JUMP JUMPDEST SWAP2 POP PUSH2 0x827 DUP4 PUSH2 0x502 JUMP JUMPDEST SWAP3 POP DUP3 PUSH2 0x837 JUMPI PUSH2 0x836 PUSH2 0x7E5 JUMP JUMPDEST JUMPDEST DUP3 DUP3 DIV SWAP1 POP SWAP3 SWAP2 POP POP JUMP INVALID LOG2 PUSH5 0x6970667358 0x22 SLT KECCAK256 DELEGATECALL 0xB1 0xD5 EXP 0x4B PUSH10 0x87477D853E14FC46135C 0xB4 PUSH21 0x6F7CC2A6B870AEC1B18FCD80C50664736F6C634300 ADDMOD SAR STOP CALLER "
				},
				"gasEstimates": {
					"creation": {
						"codeDepositCost": "433600",
						"executionCost": "infinite",
						"totalCost": "infinite"
					},
					"external": {
						"announceFlippening()": "infinite",
						"checkFlippening()": "infinite",
						"getMarketCap(address,address)": "infinite",
						"oracleA()": "infinite",
						"oracleB()": "infinite",
						"tokenA()": "2508",
						"tokenB()": "2508"
					}
				},
				"methodIdentifiers": {
					"announceFlippening()": "63c56e2f",
					"checkFlippening()": "11d82f03",
					"getMarketCap(address,address)": "9cc4b0d2",
					"oracleA()": "1670cb6f",
					"oracleB()": "9bdff8eb",
					"tokenA()": "0fc63d10",
					"tokenB()": "5f64b55b"
				}
			},
			"storageLayout": {
				"storage": [
					{
						"astId": 16,
						"contract": "I/FlippeningTracker.sol:FlippeningTracker",
						"label": "tokenA",
						"offset": 0,
						"slot": "0",
						"type": "t_address"
					},
					{
						"astId": 18,
						"contract": "I/FlippeningTracker.sol:FlippeningTracker",
						"label": "tokenB",
						"offset": 0,
						"slot": "1",
						"type": "t_address"
					},
					{
						"astId": 21,
						"contract": "I/FlippeningTracker.sol:FlippeningTracker",
						"label": "oracleA",
						"offset": 0,
						"slot": "2",
						"type": "t_contract(IOracle)13"
					},
					{
						"astId": 24,
						"contract": "I/FlippeningTracker.sol:FlippeningTracker",
						"label": "oracleB",
						"offset": 0,
						"slot": "3",
						"type": "t_contract(IOracle)13"
					}
				],
				"types": {
					"t_address": {
						"encoding": "inplace",
						"label": "address",
						"numberOfBytes": "20"
					},
					"t_contract(IOracle)13": {
						"encoding": "inplace",
						"label": "contract IOracle",
						"numberOfBytes": "20"
					}
				}
			},
			"userdoc": {
				"kind": "user",
				"methods": {
					"checkFlippening()": {
						"notice": "✅ FIX: Visibility added"
					}
				},
				"version": 1
			}
		}
	}
}