{
	"I/initial farm offering.sol": {
		"InitialFarmOffering": {
			"abi": [
				{
					"inputs": [
						{
							"internalType": "address",
							"name": "_lpToken",
							"type": "address"
						},
						{
							"internalType": "address",
							"name": "_offeringToken",
							"type": "address"
						},
						{
							"internalType": "uint256",
							"name": "_offeringAmount",
							"type": "uint256"
						},
						{
							"internalType": "uint256",
							"name": "_startTime",
							"type": "uint256"
						},
						{
							"internalType": "uint256",
							"name": "_endTime",
							"type": "uint256"
						}
					],
					"stateMutability": "nonpayable",
					"type": "constructor"
				},
				{
					"inputs": [
						{
							"internalType": "address",
							"name": "owner",
							"type": "address"
						}
					],
					"name": "OwnableInvalidOwner",
					"type": "error"
				},
				{
					"inputs": [
						{
							"internalType": "address",
							"name": "account",
							"type": "address"
						}
					],
					"name": "OwnableUnauthorizedAccount",
					"type": "error"
				},
				{
					"anonymous": false,
					"inputs": [
						{
							"indexed": true,
							"internalType": "address",
							"name": "user",
							"type": "address"
						},
						{
							"indexed": false,
							"internalType": "uint256",
							"name": "amount",
							"type": "uint256"
						}
					],
					"name": "Deposited",
					"type": "event"
				},
				{
					"anonymous": false,
					"inputs": [
						{
							"indexed": true,
							"internalType": "address",
							"name": "previousOwner",
							"type": "address"
						},
						{
							"indexed": true,
							"internalType": "address",
							"name": "newOwner",
							"type": "address"
						}
					],
					"name": "OwnershipTransferred",
					"type": "event"
				},
				{
					"anonymous": false,
					"inputs": [
						{
							"indexed": true,
							"internalType": "address",
							"name": "user",
							"type": "address"
						},
						{
							"indexed": false,
							"internalType": "uint256",
							"name": "amount",
							"type": "uint256"
						}
					],
					"name": "TokensClaimed",
					"type": "event"
				},
				{
					"anonymous": false,
					"inputs": [
						{
							"indexed": true,
							"internalType": "address",
							"name": "user",
							"type": "address"
						},
						{
							"indexed": false,
							"internalType": "uint256",
							"name": "amount",
							"type": "uint256"
						}
					],
					"name": "Withdrawn",
					"type": "event"
				},
				{
					"inputs": [],
					"name": "claim",
					"outputs": [],
					"stateMutability": "nonpayable",
					"type": "function"
				},
				{
					"inputs": [],
					"name": "claimed",
					"outputs": [
						{
							"internalType": "bool",
							"name": "",
							"type": "bool"
						}
					],
					"stateMutability": "view",
					"type": "function"
				},
				{
					"inputs": [
						{
							"internalType": "uint256",
							"name": "amount",
							"type": "uint256"
						}
					],
					"name": "deposit",
					"outputs": [],
					"stateMutability": "nonpayable",
					"type": "function"
				},
				{
					"inputs": [],
					"name": "emergencyWithdrawLP",
					"outputs": [],
					"stateMutability": "nonpayable",
					"type": "function"
				},
				{
					"inputs": [],
					"name": "endTime",
					"outputs": [
						{
							"internalType": "uint256",
							"name": "",
							"type": "uint256"
						}
					],
					"stateMutability": "view",
					"type": "function"
				},
				{
					"inputs": [
						{
							"internalType": "address",
							"name": "",
							"type": "address"
						}
					],
					"name": "hasClaimed",
					"outputs": [
						{
							"internalType": "bool",
							"name": "",
							"type": "bool"
						}
					],
					"stateMutability": "view",
					"type": "function"
				},
				{
					"inputs": [],
					"name": "lpToken",
					"outputs": [
						{
							"internalType": "contract IERC20",
							"name": "",
							"type": "address"
						}
					],
					"stateMutability": "view",
					"type": "function"
				},
				{
					"inputs": [],
					"name": "offeringAmount",
					"outputs": [
						{
							"internalType": "uint256",
							"name": "",
							"type": "uint256"
						}
					],
					"stateMutability": "view",
					"type": "function"
				},
				{
					"inputs": [],
					"name": "offeringToken",
					"outputs": [
						{
							"internalType": "contract IERC20",
							"name": "",
							"type": "address"
						}
					],
					"stateMutability": "view",
					"type": "function"
				},
				{
					"inputs": [],
					"name": "owner",
					"outputs": [
						{
							"internalType": "address",
							"name": "",
							"type": "address"
						}
					],
					"stateMutability": "view",
					"type": "function"
				},
				{
					"inputs": [
						{
							"internalType": "address",
							"name": "to",
							"type": "address"
						}
					],
					"name": "recoverExcessLP",
					"outputs": [],
					"stateMutability": "nonpayable",
					"type": "function"
				},
				{
					"inputs": [],
					"name": "renounceOwnership",
					"outputs": [],
					"stateMutability": "nonpayable",
					"type": "function"
				},
				{
					"inputs": [],
					"name": "startTime",
					"outputs": [
						{
							"internalType": "uint256",
							"name": "",
							"type": "uint256"
						}
					],
					"stateMutability": "view",
					"type": "function"
				},
				{
					"inputs": [],
					"name": "totalStaked",
					"outputs": [
						{
							"internalType": "uint256",
							"name": "",
							"type": "uint256"
						}
					],
					"stateMutability": "view",
					"type": "function"
				},
				{
					"inputs": [
						{
							"internalType": "address",
							"name": "newOwner",
							"type": "address"
						}
					],
					"name": "transferOwnership",
					"outputs": [],
					"stateMutability": "nonpayable",
					"type": "function"
				},
				{
					"inputs": [
						{
							"internalType": "address",
							"name": "",
							"type": "address"
						}
					],
					"name": "userStake",
					"outputs": [
						{
							"internalType": "uint256",
							"name": "",
							"type": "uint256"
						}
					],
					"stateMutability": "view",
					"type": "function"
				},
				{
					"inputs": [
						{
							"internalType": "address",
							"name": "to",
							"type": "address"
						}
					],
					"name": "withdrawUnclaimedOffering",
					"outputs": [],
					"stateMutability": "nonpayable",
					"type": "function"
				}
			],
			"devdoc": {
				"errors": {
					"OwnableInvalidOwner(address)": [
						{
							"details": "The owner is not a valid owner account. (eg. `address(0)`)"
						}
					],
					"OwnableUnauthorizedAccount(address)": [
						{
							"details": "The caller account is not authorized to perform an operation."
						}
					]
				},
				"kind": "dev",
				"methods": {
					"owner()": {
						"details": "Returns the address of the current owner."
					},
					"renounceOwnership()": {
						"details": "Leaves the contract without owner. It will not be possible to call `onlyOwner` functions. Can only be called by the current owner. NOTE: Renouncing ownership will leave the contract without an owner, thereby disabling any functionality that is only available to the owner."
					},
					"transferOwnership(address)": {
						"details": "Transfers ownership of the contract to a new account (`newOwner`). Can only be called by the current owner."
					}
				},
				"title": "InitialFarmOffering",
				"version": 1
			},
			"evm": {
				"assembly": "    /* \"I/initial farm offering.sol\":289:2852  contract InitialFarmOffering is Ownable {... */\n  mstore(0x40, 0x80)\n    /* \"I/initial farm offering.sol\":828:1266  constructor(... */\n  callvalue\n  dup1\n  iszero\n  tag_1\n  jumpi\n  revert(0x00, 0x00)\ntag_1:\n  pop\n  mload(0x40)\n  sub(codesize, bytecodeSize)\n  dup1\n  bytecodeSize\n  dup4\n  codecopy\n  dup2\n  dup2\n  add\n  0x40\n  mstore\n  dup2\n  add\n  swap1\n  tag_2\n  swap2\n  swap1\n  tag_3\n  jump\t// in\ntag_2:\n    /* \"I/initial farm offering.sol\":999:1009  msg.sender */\n  caller\n    /* \"@openzeppelin/contracts/access/Ownable.sol\":1297:1298  0 */\n  0x00\n    /* \"@openzeppelin/contracts/access/Ownable.sol\":1273:1299  initialOwner == address(0) */\n  0xffffffffffffffffffffffffffffffffffffffff\n  and\n    /* \"@openzeppelin/contracts/access/Ownable.sol\":1273:1285  initialOwner */\n  dup2\n    /* \"@openzeppelin/contracts/access/Ownable.sol\":1273:1299  initialOwner == address(0) */\n  0xffffffffffffffffffffffffffffffffffffffff\n  and\n  sub\n    /* \"@openzeppelin/contracts/access/Ownable.sol\":1269:1364  if (initialOwner == address(0)) {... */\n  tag_7\n  jumpi\n    /* \"@openzeppelin/contracts/access/Ownable.sol\":1350:1351  0 */\n  0x00\n    /* \"@openzeppelin/contracts/access/Ownable.sol\":1322:1353  OwnableInvalidOwner(address(0)) */\n  mload(0x40)\n  0x1e4fbdf700000000000000000000000000000000000000000000000000000000\n  dup2\n  mstore\n  0x04\n  add\n  tag_8\n  swap2\n  swap1\n  tag_9\n  jump\t// in\ntag_8:\n  mload(0x40)\n  dup1\n  swap2\n  sub\n  swap1\n  revert\n    /* \"@openzeppelin/contracts/access/Ownable.sol\":1269:1364  if (initialOwner == address(0)) {... */\ntag_7:\n    /* \"@openzeppelin/contracts/access/Ownable.sol\":1373:1405  _transferOwnership(initialOwner) */\n  tag_10\n    /* \"@openzeppelin/contracts/access/Ownable.sol\":1392:1404  initialOwner */\n  dup2\n    /* \"@openzeppelin/contracts/access/Ownable.sol\":1373:1391  _transferOwnership */\n  shl(0x20, tag_11)\n    /* \"@openzeppelin/contracts/access/Ownable.sol\":1373:1405  _transferOwnership(initialOwner) */\n  0x20\n  shr\n  jump\t// in\ntag_10:\n    /* \"@openzeppelin/contracts/access/Ownable.sol\":1225:1412  constructor(address initialOwner) {... */\n  pop\n    /* \"I/initial farm offering.sol\":1042:1050  _endTime */\n  dup1\n    /* \"I/initial farm offering.sol\":1029:1039  _startTime */\n  dup3\n    /* \"I/initial farm offering.sol\":1029:1050  _startTime < _endTime */\n  lt\n    /* \"I/initial farm offering.sol\":1021:1073  require(_startTime < _endTime, \"Invalid time frame\") */\n  tag_13\n  jumpi\n  mload(0x40)\n  0x08c379a000000000000000000000000000000000000000000000000000000000\n  dup2\n  mstore\n  0x04\n  add\n  tag_14\n  swap1\n  tag_15\n  jump\t// in\ntag_14:\n  mload(0x40)\n  dup1\n  swap2\n  sub\n  swap1\n  revert\ntag_13:\n    /* \"I/initial farm offering.sol\":1100:1108  _lpToken */\n  dup5\n    /* \"I/initial farm offering.sol\":1083:1090  lpToken */\n  0x01\n  0x00\n    /* \"I/initial farm offering.sol\":1083:1109  lpToken = IERC20(_lpToken) */\n  0x0100\n  exp\n  dup2\n  sload\n  dup2\n  0xffffffffffffffffffffffffffffffffffffffff\n  mul\n  not\n  and\n  swap1\n  dup4\n  0xffffffffffffffffffffffffffffffffffffffff\n  and\n  mul\n  or\n  swap1\n  sstore\n  pop\n    /* \"I/initial farm offering.sol\":1142:1156  _offeringToken */\n  dup4\n    /* \"I/initial farm offering.sol\":1119:1132  offeringToken */\n  0x02\n  0x00\n    /* \"I/initial farm offering.sol\":1119:1157  offeringToken = IERC20(_offeringToken) */\n  0x0100\n  exp\n  dup2\n  sload\n  dup2\n  0xffffffffffffffffffffffffffffffffffffffff\n  mul\n  not\n  and\n  swap1\n  dup4\n  0xffffffffffffffffffffffffffffffffffffffff\n  and\n  mul\n  or\n  swap1\n  sstore\n  pop\n    /* \"I/initial farm offering.sol\":1184:1199  _offeringAmount */\n  dup3\n    /* \"I/initial farm offering.sol\":1167:1181  offeringAmount */\n  0x05\n    /* \"I/initial farm offering.sol\":1167:1199  offeringAmount = _offeringAmount */\n  dup2\n  swap1\n  sstore\n  pop\n    /* \"I/initial farm offering.sol\":1221:1231  _startTime */\n  dup2\n    /* \"I/initial farm offering.sol\":1209:1218  startTime */\n  0x03\n    /* \"I/initial farm offering.sol\":1209:1231  startTime = _startTime */\n  dup2\n  swap1\n  sstore\n  pop\n    /* \"I/initial farm offering.sol\":1251:1259  _endTime */\n  dup1\n    /* \"I/initial farm offering.sol\":1241:1248  endTime */\n  0x04\n    /* \"I/initial farm offering.sol\":1241:1259  endTime = _endTime */\n  dup2\n  swap1\n  sstore\n  pop\n    /* \"I/initial farm offering.sol\":828:1266  constructor(... */\n  pop\n  pop\n  pop\n  pop\n  pop\n    /* \"I/initial farm offering.sol\":289:2852  contract InitialFarmOffering is Ownable {... */\n  jump(tag_16)\n    /* \"@openzeppelin/contracts/access/Ownable.sol\":2912:3099  function _transferOwnership(address newOwner) internal virtual {... */\ntag_11:\n    /* \"@openzeppelin/contracts/access/Ownable.sol\":2985:3001  address oldOwner */\n  0x00\n    /* \"@openzeppelin/contracts/access/Ownable.sol\":3004:3010  _owner */\n  0x00\n  0x00\n  swap1\n  sload\n  swap1\n  0x0100\n  exp\n  swap1\n  div\n  0xffffffffffffffffffffffffffffffffffffffff\n  and\n    /* \"@openzeppelin/contracts/access/Ownable.sol\":2985:3010  address oldOwner = _owner */\n  swap1\n  pop\n    /* \"@openzeppelin/contracts/access/Ownable.sol\":3029:3037  newOwner */\n  dup2\n    /* \"@openzeppelin/contracts/access/Ownable.sol\":3020:3026  _owner */\n  0x00\n  0x00\n    /* \"@openzeppelin/contracts/access/Ownable.sol\":3020:3037  _owner = newOwner */\n  0x0100\n  exp\n  dup2\n  sload\n  dup2\n  0xffffffffffffffffffffffffffffffffffffffff\n  mul\n  not\n  and\n  swap1\n  dup4\n  0xffffffffffffffffffffffffffffffffffffffff\n  and\n  mul\n  or\n  swap1\n  sstore\n  pop\n    /* \"@openzeppelin/contracts/access/Ownable.sol\":3083:3091  newOwner */\n  dup2\n    /* \"@openzeppelin/contracts/access/Ownable.sol\":3052:3092  OwnershipTransferred(oldOwner, newOwner) */\n  0xffffffffffffffffffffffffffffffffffffffff\n  and\n    /* \"@openzeppelin/contracts/access/Ownable.sol\":3073:3081  oldOwner */\n  dup2\n    /* \"@openzeppelin/contracts/access/Ownable.sol\":3052:3092  OwnershipTransferred(oldOwner, newOwner) */\n  0xffffffffffffffffffffffffffffffffffffffff\n  and\n  0x8be0079c531659141344cd1fd0a4f28419497f9722a3daafe3b4186f6b6457e0\n  mload(0x40)\n  mload(0x40)\n  dup1\n  swap2\n  sub\n  swap1\n  log3\n    /* \"@openzeppelin/contracts/access/Ownable.sol\":2975:3099  {... */\n  pop\n    /* \"@openzeppelin/contracts/access/Ownable.sol\":2912:3099  function _transferOwnership(address newOwner) internal virtual {... */\n  pop\n  jump\t// out\n    /* \"#utility.yul\":88:205   */\ntag_19:\n    /* \"#utility.yul\":197:198   */\n  0x00\n    /* \"#utility.yul\":194:195   */\n  0x00\n    /* \"#utility.yul\":187:199   */\n  revert\n    /* \"#utility.yul\":334:460   */\ntag_21:\n    /* \"#utility.yul\":371:378   */\n  0x00\n    /* \"#utility.yul\":411:453   */\n  0xffffffffffffffffffffffffffffffffffffffff\n    /* \"#utility.yul\":404:409   */\n  dup3\n    /* \"#utility.yul\":400:454   */\n  and\n    /* \"#utility.yul\":389:454   */\n  swap1\n  pop\n    /* \"#utility.yul\":334:460   */\n  swap2\n  swap1\n  pop\n  jump\t// out\n    /* \"#utility.yul\":466:562   */\ntag_22:\n    /* \"#utility.yul\":503:510   */\n  0x00\n    /* \"#utility.yul\":532:556   */\n  tag_38\n    /* \"#utility.yul\":550:555   */\n  dup3\n    /* \"#utility.yul\":532:556   */\n  tag_21\n  jump\t// in\ntag_38:\n    /* \"#utility.yul\":521:556   */\n  swap1\n  pop\n    /* \"#utility.yul\":466:562   */\n  swap2\n  swap1\n  pop\n  jump\t// out\n    /* \"#utility.yul\":568:690   */\ntag_23:\n    /* \"#utility.yul\":641:665   */\n  tag_40\n    /* \"#utility.yul\":659:664   */\n  dup2\n    /* \"#utility.yul\":641:665   */\n  tag_22\n  jump\t// in\ntag_40:\n    /* \"#utility.yul\":634:639   */\n  dup2\n    /* \"#utility.yul\":631:666   */\n  eq\n    /* \"#utility.yul\":621:684   */\n  tag_41\n  jumpi\n    /* \"#utility.yul\":680:681   */\n  0x00\n    /* \"#utility.yul\":677:678   */\n  0x00\n    /* \"#utility.yul\":670:682   */\n  revert\n    /* \"#utility.yul\":621:684   */\ntag_41:\n    /* \"#utility.yul\":568:690   */\n  pop\n  jump\t// out\n    /* \"#utility.yul\":696:839   */\ntag_24:\n    /* \"#utility.yul\":753:758   */\n  0x00\n    /* \"#utility.yul\":784:790   */\n  dup2\n    /* \"#utility.yul\":778:791   */\n  mload\n    /* \"#utility.yul\":769:791   */\n  swap1\n  pop\n    /* \"#utility.yul\":800:833   */\n  tag_43\n    /* \"#utility.yul\":827:832   */\n  dup2\n    /* \"#utility.yul\":800:833   */\n  tag_23\n  jump\t// in\ntag_43:\n    /* \"#utility.yul\":696:839   */\n  swap3\n  swap2\n  pop\n  pop\n  jump\t// out\n    /* \"#utility.yul\":845:922   */\ntag_25:\n    /* \"#utility.yul\":882:889   */\n  0x00\n    /* \"#utility.yul\":911:916   */\n  dup2\n    /* \"#utility.yul\":900:916   */\n  swap1\n  pop\n    /* \"#utility.yul\":845:922   */\n  swap2\n  swap1\n  pop\n  jump\t// out\n    /* \"#utility.yul\":928:1050   */\ntag_26:\n    /* \"#utility.yul\":1001:1025   */\n  tag_46\n    /* \"#utility.yul\":1019:1024   */\n  dup2\n    /* \"#utility.yul\":1001:1025   */\n  tag_25\n  jump\t// in\ntag_46:\n    /* \"#utility.yul\":994:999   */\n  dup2\n    /* \"#utility.yul\":991:1026   */\n  eq\n    /* \"#utility.yul\":981:1044   */\n  tag_47\n  jumpi\n    /* \"#utility.yul\":1040:1041   */\n  0x00\n    /* \"#utility.yul\":1037:1038   */\n  0x00\n    /* \"#utility.yul\":1030:1042   */\n  revert\n    /* \"#utility.yul\":981:1044   */\ntag_47:\n    /* \"#utility.yul\":928:1050   */\n  pop\n  jump\t// out\n    /* \"#utility.yul\":1056:1199   */\ntag_27:\n    /* \"#utility.yul\":1113:1118   */\n  0x00\n    /* \"#utility.yul\":1144:1150   */\n  dup2\n    /* \"#utility.yul\":1138:1151   */\n  mload\n    /* \"#utility.yul\":1129:1151   */\n  swap1\n  pop\n    /* \"#utility.yul\":1160:1193   */\n  tag_49\n    /* \"#utility.yul\":1187:1192   */\n  dup2\n    /* \"#utility.yul\":1160:1193   */\n  tag_26\n  jump\t// in\ntag_49:\n    /* \"#utility.yul\":1056:1199   */\n  swap3\n  swap2\n  pop\n  pop\n  jump\t// out\n    /* \"#utility.yul\":1205:2182   */\ntag_3:\n    /* \"#utility.yul\":1311:1317   */\n  0x00\n    /* \"#utility.yul\":1319:1325   */\n  0x00\n    /* \"#utility.yul\":1327:1333   */\n  0x00\n    /* \"#utility.yul\":1335:1341   */\n  0x00\n    /* \"#utility.yul\":1343:1349   */\n  0x00\n    /* \"#utility.yul\":1392:1395   */\n  0xa0\n    /* \"#utility.yul\":1380:1389   */\n  dup7\n    /* \"#utility.yul\":1371:1378   */\n  dup9\n    /* \"#utility.yul\":1367:1390   */\n  sub\n    /* \"#utility.yul\":1363:1396   */\n  slt\n    /* \"#utility.yul\":1360:1480   */\n  iszero\n  tag_51\n  jumpi\n    /* \"#utility.yul\":1399:1478   */\n  tag_52\n  tag_19\n  jump\t// in\ntag_52:\n    /* \"#utility.yul\":1360:1480   */\ntag_51:\n    /* \"#utility.yul\":1519:1520   */\n  0x00\n    /* \"#utility.yul\":1544:1608   */\n  tag_53\n    /* \"#utility.yul\":1600:1607   */\n  dup9\n    /* \"#utility.yul\":1591:1597   */\n  dup3\n    /* \"#utility.yul\":1580:1589   */\n  dup10\n    /* \"#utility.yul\":1576:1598   */\n  add\n    /* \"#utility.yul\":1544:1608   */\n  tag_24\n  jump\t// in\ntag_53:\n    /* \"#utility.yul\":1534:1608   */\n  swap6\n  pop\n    /* \"#utility.yul\":1490:1618   */\n  pop\n    /* \"#utility.yul\":1657:1659   */\n  0x20\n    /* \"#utility.yul\":1683:1747   */\n  tag_54\n    /* \"#utility.yul\":1739:1746   */\n  dup9\n    /* \"#utility.yul\":1730:1736   */\n  dup3\n    /* \"#utility.yul\":1719:1728   */\n  dup10\n    /* \"#utility.yul\":1715:1737   */\n  add\n    /* \"#utility.yul\":1683:1747   */\n  tag_24\n  jump\t// in\ntag_54:\n    /* \"#utility.yul\":1673:1747   */\n  swap5\n  pop\n    /* \"#utility.yul\":1628:1757   */\n  pop\n    /* \"#utility.yul\":1796:1798   */\n  0x40\n    /* \"#utility.yul\":1822:1886   */\n  tag_55\n    /* \"#utility.yul\":1878:1885   */\n  dup9\n    /* \"#utility.yul\":1869:1875   */\n  dup3\n    /* \"#utility.yul\":1858:1867   */\n  dup10\n    /* \"#utility.yul\":1854:1876   */\n  add\n    /* \"#utility.yul\":1822:1886   */\n  tag_27\n  jump\t// in\ntag_55:\n    /* \"#utility.yul\":1812:1886   */\n  swap4\n  pop\n    /* \"#utility.yul\":1767:1896   */\n  pop\n    /* \"#utility.yul\":1935:1937   */\n  0x60\n    /* \"#utility.yul\":1961:2025   */\n  tag_56\n    /* \"#utility.yul\":2017:2024   */\n  dup9\n    /* \"#utility.yul\":2008:2014   */\n  dup3\n    /* \"#utility.yul\":1997:2006   */\n  dup10\n    /* \"#utility.yul\":1993:2015   */\n  add\n    /* \"#utility.yul\":1961:2025   */\n  tag_27\n  jump\t// in\ntag_56:\n    /* \"#utility.yul\":1951:2025   */\n  swap3\n  pop\n    /* \"#utility.yul\":1906:2035   */\n  pop\n    /* \"#utility.yul\":2074:2077   */\n  0x80\n    /* \"#utility.yul\":2101:2165   */\n  tag_57\n    /* \"#utility.yul\":2157:2164   */\n  dup9\n    /* \"#utility.yul\":2148:2154   */\n  dup3\n    /* \"#utility.yul\":2137:2146   */\n  dup10\n    /* \"#utility.yul\":2133:2155   */\n  add\n    /* \"#utility.yul\":2101:2165   */\n  tag_27\n  jump\t// in\ntag_57:\n    /* \"#utility.yul\":2091:2165   */\n  swap2\n  pop\n    /* \"#utility.yul\":2045:2175   */\n  pop\n    /* \"#utility.yul\":1205:2182   */\n  swap3\n  swap6\n  pop\n  swap3\n  swap6\n  swap1\n  swap4\n  pop\n  jump\t// out\n    /* \"#utility.yul\":2188:2306   */\ntag_28:\n    /* \"#utility.yul\":2275:2299   */\n  tag_59\n    /* \"#utility.yul\":2293:2298   */\n  dup2\n    /* \"#utility.yul\":2275:2299   */\n  tag_22\n  jump\t// in\ntag_59:\n    /* \"#utility.yul\":2270:2273   */\n  dup3\n    /* \"#utility.yul\":2263:2300   */\n  mstore\n    /* \"#utility.yul\":2188:2306   */\n  pop\n  pop\n  jump\t// out\n    /* \"#utility.yul\":2312:2534   */\ntag_9:\n    /* \"#utility.yul\":2405:2409   */\n  0x00\n    /* \"#utility.yul\":2443:2445   */\n  0x20\n    /* \"#utility.yul\":2432:2441   */\n  dup3\n    /* \"#utility.yul\":2428:2446   */\n  add\n    /* \"#utility.yul\":2420:2446   */\n  swap1\n  pop\n    /* \"#utility.yul\":2456:2527   */\n  tag_61\n    /* \"#utility.yul\":2524:2525   */\n  0x00\n    /* \"#utility.yul\":2513:2522   */\n  dup4\n    /* \"#utility.yul\":2509:2526   */\n  add\n    /* \"#utility.yul\":2500:2506   */\n  dup5\n    /* \"#utility.yul\":2456:2527   */\n  tag_28\n  jump\t// in\ntag_61:\n    /* \"#utility.yul\":2312:2534   */\n  swap3\n  swap2\n  pop\n  pop\n  jump\t// out\n    /* \"#utility.yul\":2540:2709   */\ntag_29:\n    /* \"#utility.yul\":2624:2635   */\n  0x00\n    /* \"#utility.yul\":2658:2664   */\n  dup3\n    /* \"#utility.yul\":2653:2656   */\n  dup3\n    /* \"#utility.yul\":2646:2665   */\n  mstore\n    /* \"#utility.yul\":2698:2702   */\n  0x20\n    /* \"#utility.yul\":2693:2696   */\n  dup3\n    /* \"#utility.yul\":2689:2703   */\n  add\n    /* \"#utility.yul\":2674:2703   */\n  swap1\n  pop\n    /* \"#utility.yul\":2540:2709   */\n  swap3\n  swap2\n  pop\n  pop\n  jump\t// out\n    /* \"#utility.yul\":2715:2883   */\ntag_30:\n    /* \"#utility.yul\":2855:2875   */\n  0x496e76616c69642074696d65206672616d650000000000000000000000000000\n    /* \"#utility.yul\":2851:2852   */\n  0x00\n    /* \"#utility.yul\":2843:2849   */\n  dup3\n    /* \"#utility.yul\":2839:2853   */\n  add\n    /* \"#utility.yul\":2832:2876   */\n  mstore\n    /* \"#utility.yul\":2715:2883   */\n  pop\n  jump\t// out\n    /* \"#utility.yul\":2889:3255   */\ntag_31:\n    /* \"#utility.yul\":3031:3034   */\n  0x00\n    /* \"#utility.yul\":3052:3119   */\n  tag_65\n    /* \"#utility.yul\":3116:3118   */\n  0x12\n    /* \"#utility.yul\":3111:3114   */\n  dup4\n    /* \"#utility.yul\":3052:3119   */\n  tag_29\n  jump\t// in\ntag_65:\n    /* \"#utility.yul\":3045:3119   */\n  swap2\n  pop\n    /* \"#utility.yul\":3128:3221   */\n  tag_66\n    /* \"#utility.yul\":3217:3220   */\n  dup3\n    /* \"#utility.yul\":3128:3221   */\n  tag_30\n  jump\t// in\ntag_66:\n    /* \"#utility.yul\":3246:3248   */\n  0x20\n    /* \"#utility.yul\":3241:3244   */\n  dup3\n    /* \"#utility.yul\":3237:3249   */\n  add\n    /* \"#utility.yul\":3230:3249   */\n  swap1\n  pop\n    /* \"#utility.yul\":2889:3255   */\n  swap2\n  swap1\n  pop\n  jump\t// out\n    /* \"#utility.yul\":3261:3680   */\ntag_15:\n    /* \"#utility.yul\":3427:3431   */\n  0x00\n    /* \"#utility.yul\":3465:3467   */\n  0x20\n    /* \"#utility.yul\":3454:3463   */\n  dup3\n    /* \"#utility.yul\":3450:3468   */\n  add\n    /* \"#utility.yul\":3442:3468   */\n  swap1\n  pop\n    /* \"#utility.yul\":3514:3523   */\n  dup2\n    /* \"#utility.yul\":3508:3512   */\n  dup2\n    /* \"#utility.yul\":3504:3524   */\n  sub\n    /* \"#utility.yul\":3500:3501   */\n  0x00\n    /* \"#utility.yul\":3489:3498   */\n  dup4\n    /* \"#utility.yul\":3485:3502   */\n  add\n    /* \"#utility.yul\":3478:3525   */\n  mstore\n    /* \"#utility.yul\":3542:3673   */\n  tag_68\n    /* \"#utility.yul\":3668:3672   */\n  dup2\n    /* \"#utility.yul\":3542:3673   */\n  tag_31\n  jump\t// in\ntag_68:\n    /* \"#utility.yul\":3534:3673   */\n  swap1\n  pop\n    /* \"#utility.yul\":3261:3680   */\n  swap2\n  swap1\n  pop\n  jump\t// out\n    /* \"I/initial farm offering.sol\":289:2852  contract InitialFarmOffering is Ownable {... */\ntag_16:\n  dataSize(sub_0)\n  dup1\n  dataOffset(sub_0)\n  0x00\n  codecopy\n  0x00\n  return\nstop\n\nsub_0: assembly {\n        /* \"I/initial farm offering.sol\":289:2852  contract InitialFarmOffering is Ownable {... */\n      mstore(0x40, 0x80)\n      callvalue\n      dup1\n      iszero\n      tag_1\n      jumpi\n      revert(0x00, 0x00)\n    tag_1:\n      pop\n      jumpi(tag_2, lt(calldatasize, 0x04))\n      shr(0xe0, calldataload(0x00))\n      dup1\n      0x817b1cd2\n      gt\n      tag_20\n      jumpi\n      dup1\n      0xb7813607\n      gt\n      tag_21\n      jumpi\n      dup1\n      0xb7813607\n      eq\n      tag_15\n      jumpi\n      dup1\n      0xe09f4df0\n      eq\n      tag_16\n      jumpi\n      dup1\n      0xe1af9a95\n      eq\n      tag_17\n      jumpi\n      dup1\n      0xe834a834\n      eq\n      tag_18\n      jumpi\n      dup1\n      0xf2fde38b\n      eq\n      tag_19\n      jumpi\n      jump(tag_2)\n    tag_21:\n      dup1\n      0x817b1cd2\n      eq\n      tag_11\n      jumpi\n      dup1\n      0x8da5cb5b\n      eq\n      tag_12\n      jumpi\n      dup1\n      0x9cc6424d\n      eq\n      tag_13\n      jumpi\n      dup1\n      0xb6b55f25\n      eq\n      tag_14\n      jumpi\n      jump(tag_2)\n    tag_20:\n      dup1\n      0x715018a6\n      gt\n      tag_22\n      jumpi\n      dup1\n      0x715018a6\n      eq\n      tag_7\n      jumpi\n      dup1\n      0x73b2e80e\n      eq\n      tag_8\n      jumpi\n      dup1\n      0x78417398\n      eq\n      tag_9\n      jumpi\n      dup1\n      0x78e97925\n      eq\n      tag_10\n      jumpi\n      jump(tag_2)\n    tag_22:\n      dup1\n      0x3197cbb6\n      eq\n      tag_3\n      jumpi\n      dup1\n      0x4e71d92d\n      eq\n      tag_4\n      jumpi\n      dup1\n      0x5fcbd285\n      eq\n      tag_5\n      jumpi\n      dup1\n      0x68e5585d\n      eq\n      tag_6\n      jumpi\n    tag_2:\n      revert(0x00, 0x00)\n        /* \"I/initial farm offering.sol\":426:448  uint256 public endTime */\n    tag_3:\n      tag_23\n      tag_24\n      jump\t// in\n    tag_23:\n      mload(0x40)\n      tag_25\n      swap2\n      swap1\n      tag_26\n      jump\t// in\n    tag_25:\n      mload(0x40)\n      dup1\n      swap2\n      sub\n      swap1\n      return\n        /* \"I/initial farm offering.sol\":1643:2101  function claim() external {... */\n    tag_4:\n      tag_27\n      tag_28\n      jump\t// in\n    tag_27:\n      stop\n        /* \"I/initial farm offering.sol\":335:356  IERC20 public lpToken */\n    tag_5:\n      tag_29\n      tag_30\n      jump\t// in\n    tag_29:\n      mload(0x40)\n      tag_31\n      swap2\n      swap1\n      tag_32\n      jump\t// in\n    tag_31:\n      mload(0x40)\n      dup1\n      swap2\n      sub\n      swap1\n      return\n        /* \"I/initial farm offering.sol\":547:591  mapping(address => uint256) public userStake */\n    tag_6:\n      tag_33\n      0x04\n      dup1\n      calldatasize\n      sub\n      dup2\n      add\n      swap1\n      tag_34\n      swap2\n      swap1\n      tag_35\n      jump\t// in\n    tag_34:\n      tag_36\n      jump\t// in\n    tag_33:\n      mload(0x40)\n      tag_37\n      swap2\n      swap1\n      tag_26\n      jump\t// in\n    tag_37:\n      mload(0x40)\n      dup1\n      swap2\n      sub\n      swap1\n      return\n        /* \"@openzeppelin/contracts/access/Ownable.sol\":2293:2394  function renounceOwnership() public virtual onlyOwner {... */\n    tag_7:\n      tag_38\n      tag_39\n      jump\t// in\n    tag_38:\n      stop\n        /* \"I/initial farm offering.sol\":597:639  mapping(address => bool) public hasClaimed */\n    tag_8:\n      tag_40\n      0x04\n      dup1\n      calldatasize\n      sub\n      dup2\n      add\n      swap1\n      tag_41\n      swap2\n      swap1\n      tag_35\n      jump\t// in\n    tag_41:\n      tag_42\n      jump\t// in\n    tag_40:\n      mload(0x40)\n      tag_43\n      swap2\n      swap1\n      tag_44\n      jump\t// in\n    tag_43:\n      mload(0x40)\n      dup1\n      swap2\n      sub\n      swap1\n      return\n        /* \"I/initial farm offering.sol\":2107:2431  function emergencyWithdrawLP() external {... */\n    tag_9:\n      tag_45\n      tag_46\n      jump\t// in\n    tag_45:\n      stop\n        /* \"I/initial farm offering.sol\":396:420  uint256 public startTime */\n    tag_10:\n      tag_47\n      tag_48\n      jump\t// in\n    tag_47:\n      mload(0x40)\n      tag_49\n      swap2\n      swap1\n      tag_26\n      jump\t// in\n    tag_49:\n      mload(0x40)\n      dup1\n      swap2\n      sub\n      swap1\n      return\n        /* \"I/initial farm offering.sol\":489:515  uint256 public totalStaked */\n    tag_11:\n      tag_50\n      tag_51\n      jump\t// in\n    tag_50:\n      mload(0x40)\n      tag_52\n      swap2\n      swap1\n      tag_26\n      jump\t// in\n    tag_52:\n      mload(0x40)\n      dup1\n      swap2\n      sub\n      swap1\n      return\n        /* \"@openzeppelin/contracts/access/Ownable.sol\":1638:1723  function owner() public view virtual returns (address) {... */\n    tag_12:\n      tag_53\n      tag_54\n      jump\t// in\n    tag_53:\n      mload(0x40)\n      tag_55\n      swap2\n      swap1\n      tag_56\n      jump\t// in\n    tag_55:\n      mload(0x40)\n      dup1\n      swap2\n      sub\n      swap1\n      return\n        /* \"I/initial farm offering.sol\":2684:2850  function recoverExcessLP(address to) external onlyOwner {... */\n    tag_13:\n      tag_57\n      0x04\n      dup1\n      calldatasize\n      sub\n      dup2\n      add\n      swap1\n      tag_58\n      swap2\n      swap1\n      tag_35\n      jump\t// in\n    tag_58:\n      tag_59\n      jump\t// in\n    tag_57:\n      stop\n        /* \"I/initial farm offering.sol\":1272:1637  function deposit(uint256 amount) external {... */\n    tag_14:\n      tag_60\n      0x04\n      dup1\n      calldatasize\n      sub\n      dup2\n      add\n      swap1\n      tag_61\n      swap2\n      swap1\n      tag_62\n      jump\t// in\n    tag_61:\n      tag_63\n      jump\t// in\n    tag_60:\n      stop\n        /* \"I/initial farm offering.sol\":362:389  IERC20 public offeringToken */\n    tag_15:\n      tag_64\n      tag_65\n      jump\t// in\n    tag_64:\n      mload(0x40)\n      tag_66\n      swap2\n      swap1\n      tag_32\n      jump\t// in\n    tag_66:\n      mload(0x40)\n      dup1\n      swap2\n      sub\n      swap1\n      return\n        /* \"I/initial farm offering.sol\":2437:2678  function withdrawUnclaimedOffering(address to) external onlyOwner {... */\n    tag_16:\n      tag_67\n      0x04\n      dup1\n      calldatasize\n      sub\n      dup2\n      add\n      swap1\n      tag_68\n      swap2\n      swap1\n      tag_35\n      jump\t// in\n    tag_68:\n      tag_69\n      jump\t// in\n    tag_67:\n      stop\n        /* \"I/initial farm offering.sol\":454:483  uint256 public offeringAmount */\n    tag_17:\n      tag_70\n      tag_71\n      jump\t// in\n    tag_70:\n      mload(0x40)\n      tag_72\n      swap2\n      swap1\n      tag_26\n      jump\t// in\n    tag_72:\n      mload(0x40)\n      dup1\n      swap2\n      sub\n      swap1\n      return\n        /* \"I/initial farm offering.sol\":521:540  bool public claimed */\n    tag_18:\n      tag_73\n      tag_74\n      jump\t// in\n    tag_73:\n      mload(0x40)\n      tag_75\n      swap2\n      swap1\n      tag_44\n      jump\t// in\n    tag_75:\n      mload(0x40)\n      dup1\n      swap2\n      sub\n      swap1\n      return\n        /* \"@openzeppelin/contracts/access/Ownable.sol\":2543:2758  function transferOwnership(address newOwner) public virtual onlyOwner {... */\n    tag_19:\n      tag_76\n      0x04\n      dup1\n      calldatasize\n      sub\n      dup2\n      add\n      swap1\n      tag_77\n      swap2\n      swap1\n      tag_35\n      jump\t// in\n    tag_77:\n      tag_78\n      jump\t// in\n    tag_76:\n      stop\n        /* \"I/initial farm offering.sol\":426:448  uint256 public endTime */\n    tag_24:\n      sload(0x04)\n      dup2\n      jump\t// out\n        /* \"I/initial farm offering.sol\":1643:2101  function claim() external {... */\n    tag_28:\n        /* \"I/initial farm offering.sol\":1705:1712  endTime */\n      sload(0x04)\n        /* \"I/initial farm offering.sol\":1687:1702  block.timestamp */\n      timestamp\n        /* \"I/initial farm offering.sol\":1687:1712  block.timestamp > endTime */\n      gt\n        /* \"I/initial farm offering.sol\":1679:1726  require(block.timestamp > endTime, \"Too early\") */\n      tag_80\n      jumpi\n      mload(0x40)\n      0x08c379a000000000000000000000000000000000000000000000000000000000\n      dup2\n      mstore\n      0x04\n      add\n      tag_81\n      swap1\n      tag_82\n      jump\t// in\n    tag_81:\n      mload(0x40)\n      dup1\n      swap2\n      sub\n      swap1\n      revert\n    tag_80:\n        /* \"I/initial farm offering.sol\":1745:1755  hasClaimed */\n      0x09\n        /* \"I/initial farm offering.sol\":1745:1767  hasClaimed[msg.sender] */\n      0x00\n        /* \"I/initial farm offering.sol\":1756:1766  msg.sender */\n      caller\n        /* \"I/initial farm offering.sol\":1745:1767  hasClaimed[msg.sender] */\n      0xffffffffffffffffffffffffffffffffffffffff\n      and\n      0xffffffffffffffffffffffffffffffffffffffff\n      and\n      dup2\n      mstore\n      0x20\n      add\n      swap1\n      dup2\n      mstore\n      0x20\n      add\n      0x00\n      keccak256\n      0x00\n      swap1\n      sload\n      swap1\n      0x0100\n      exp\n      swap1\n      div\n      0xff\n      and\n        /* \"I/initial farm offering.sol\":1744:1767  !hasClaimed[msg.sender] */\n      iszero\n        /* \"I/initial farm offering.sol\":1736:1787  require(!hasClaimed[msg.sender], \"Already claimed\") */\n      tag_83\n      jumpi\n      mload(0x40)\n      0x08c379a000000000000000000000000000000000000000000000000000000000\n      dup2\n      mstore\n      0x04\n      add\n      tag_84\n      swap1\n      tag_85\n      jump\t// in\n    tag_84:\n      mload(0x40)\n      dup1\n      swap2\n      sub\n      swap1\n      revert\n    tag_83:\n        /* \"I/initial farm offering.sol\":1797:1815  uint256 userAmount */\n      0x00\n        /* \"I/initial farm offering.sol\":1818:1827  userStake */\n      0x08\n        /* \"I/initial farm offering.sol\":1818:1839  userStake[msg.sender] */\n      0x00\n        /* \"I/initial farm offering.sol\":1828:1838  msg.sender */\n      caller\n        /* \"I/initial farm offering.sol\":1818:1839  userStake[msg.sender] */\n      0xffffffffffffffffffffffffffffffffffffffff\n      and\n      0xffffffffffffffffffffffffffffffffffffffff\n      and\n      dup2\n      mstore\n      0x20\n      add\n      swap1\n      dup2\n      mstore\n      0x20\n      add\n      0x00\n      keccak256\n      sload\n        /* \"I/initial farm offering.sol\":1797:1839  uint256 userAmount = userStake[msg.sender] */\n      swap1\n      pop\n        /* \"I/initial farm offering.sol\":1870:1871  0 */\n      0x00\n        /* \"I/initial farm offering.sol\":1857:1867  userAmount */\n      dup2\n        /* \"I/initial farm offering.sol\":1857:1871  userAmount > 0 */\n      gt\n        /* \"I/initial farm offering.sol\":1849:1884  require(userAmount > 0, \"No stake\") */\n      tag_86\n      jumpi\n      mload(0x40)\n      0x08c379a000000000000000000000000000000000000000000000000000000000\n      dup2\n      mstore\n      0x04\n      add\n      tag_87\n      swap1\n      tag_88\n      jump\t// in\n    tag_87:\n      mload(0x40)\n      dup1\n      swap2\n      sub\n      swap1\n      revert\n    tag_86:\n        /* \"I/initial farm offering.sol\":1895:1909  uint256 reward */\n      0x00\n        /* \"I/initial farm offering.sol\":1944:1955  totalStaked */\n      sload(0x06)\n        /* \"I/initial farm offering.sol\":1926:1940  offeringAmount */\n      sload(0x05)\n        /* \"I/initial farm offering.sol\":1913:1923  userAmount */\n      dup4\n        /* \"I/initial farm offering.sol\":1913:1940  userAmount * offeringAmount */\n      tag_89\n      swap2\n      swap1\n      tag_90\n      jump\t// in\n    tag_89:\n        /* \"I/initial farm offering.sol\":1912:1955  (userAmount * offeringAmount) / totalStaked */\n      tag_91\n      swap2\n      swap1\n      tag_92\n      jump\t// in\n    tag_91:\n        /* \"I/initial farm offering.sol\":1895:1955  uint256 reward = (userAmount * offeringAmount) / totalStaked */\n      swap1\n      pop\n        /* \"I/initial farm offering.sol\":1990:1994  true */\n      0x01\n        /* \"I/initial farm offering.sol\":1965:1975  hasClaimed */\n      0x09\n        /* \"I/initial farm offering.sol\":1965:1987  hasClaimed[msg.sender] */\n      0x00\n        /* \"I/initial farm offering.sol\":1976:1986  msg.sender */\n      caller\n        /* \"I/initial farm offering.sol\":1965:1987  hasClaimed[msg.sender] */\n      0xffffffffffffffffffffffffffffffffffffffff\n      and\n      0xffffffffffffffffffffffffffffffffffffffff\n      and\n      dup2\n      mstore\n      0x20\n      add\n      swap1\n      dup2\n      mstore\n      0x20\n      add\n      0x00\n      keccak256\n      0x00\n        /* \"I/initial farm offering.sol\":1965:1994  hasClaimed[msg.sender] = true */\n      0x0100\n      exp\n      dup2\n      sload\n      dup2\n      0xff\n      mul\n      not\n      and\n      swap1\n      dup4\n      iszero\n      iszero\n      mul\n      or\n      swap1\n      sstore\n      pop\n        /* \"I/initial farm offering.sol\":2004:2017  offeringToken */\n      0x02\n      0x00\n      swap1\n      sload\n      swap1\n      0x0100\n      exp\n      swap1\n      div\n      0xffffffffffffffffffffffffffffffffffffffff\n      and\n        /* \"I/initial farm offering.sol\":2004:2026  offeringToken.transfer */\n      0xffffffffffffffffffffffffffffffffffffffff\n      and\n      0xa9059cbb\n        /* \"I/initial farm offering.sol\":2027:2037  msg.sender */\n      caller\n        /* \"I/initial farm offering.sol\":2039:2045  reward */\n      dup4\n        /* \"I/initial farm offering.sol\":2004:2046  offeringToken.transfer(msg.sender, reward) */\n      mload(0x40)\n      dup4\n      0xffffffff\n      and\n      0xe0\n      shl\n      dup2\n      mstore\n      0x04\n      add\n      tag_93\n      swap3\n      swap2\n      swap1\n      tag_94\n      jump\t// in\n    tag_93:\n      0x20\n      mload(0x40)\n      dup1\n      dup4\n      sub\n      dup2\n      0x00\n      dup8\n      gas\n      call\n      iszero\n      dup1\n      iszero\n      tag_96\n      jumpi\n      returndatacopy(0x00, 0x00, returndatasize)\n      revert(0x00, returndatasize)\n    tag_96:\n      pop\n      pop\n      pop\n      pop\n      mload(0x40)\n      returndatasize\n      not(0x1f)\n      0x1f\n      dup3\n      add\n      and\n      dup3\n      add\n      dup1\n      0x40\n      mstore\n      pop\n      dup2\n      add\n      swap1\n      tag_97\n      swap2\n      swap1\n      tag_98\n      jump\t// in\n    tag_97:\n      pop\n        /* \"I/initial farm offering.sol\":2075:2085  msg.sender */\n      caller\n        /* \"I/initial farm offering.sol\":2061:2094  TokensClaimed(msg.sender, reward) */\n      0xffffffffffffffffffffffffffffffffffffffff\n      and\n      0x896e034966eaaf1adc54acc0f257056febbd300c9e47182cf761982cf1f5e430\n        /* \"I/initial farm offering.sol\":2087:2093  reward */\n      dup3\n        /* \"I/initial farm offering.sol\":2061:2094  TokensClaimed(msg.sender, reward) */\n      mload(0x40)\n      tag_99\n      swap2\n      swap1\n      tag_26\n      jump\t// in\n    tag_99:\n      mload(0x40)\n      dup1\n      swap2\n      sub\n      swap1\n      log2\n        /* \"I/initial farm offering.sol\":1669:2101  {... */\n      pop\n      pop\n        /* \"I/initial farm offering.sol\":1643:2101  function claim() external {... */\n      jump\t// out\n        /* \"I/initial farm offering.sol\":335:356  IERC20 public lpToken */\n    tag_30:\n      0x01\n      0x00\n      swap1\n      sload\n      swap1\n      0x0100\n      exp\n      swap1\n      div\n      0xffffffffffffffffffffffffffffffffffffffff\n      and\n      dup2\n      jump\t// out\n        /* \"I/initial farm offering.sol\":547:591  mapping(address => uint256) public userStake */\n    tag_36:\n      mstore(0x20, 0x08)\n      dup1\n      0x00\n      mstore\n      keccak256(0x00, 0x40)\n      0x00\n      swap2\n      pop\n      swap1\n      pop\n      sload\n      dup2\n      jump\t// out\n        /* \"@openzeppelin/contracts/access/Ownable.sol\":2293:2394  function renounceOwnership() public virtual onlyOwner {... */\n    tag_39:\n        /* \"@openzeppelin/contracts/access/Ownable.sol\":1531:1544  _checkOwner() */\n      tag_101\n        /* \"@openzeppelin/contracts/access/Ownable.sol\":1531:1542  _checkOwner */\n      tag_102\n        /* \"@openzeppelin/contracts/access/Ownable.sol\":1531:1544  _checkOwner() */\n      jump\t// in\n    tag_101:\n        /* \"@openzeppelin/contracts/access/Ownable.sol\":2357:2387  _transferOwnership(address(0)) */\n      tag_104\n        /* \"@openzeppelin/contracts/access/Ownable.sol\":2384:2385  0 */\n      0x00\n        /* \"@openzeppelin/contracts/access/Ownable.sol\":2357:2375  _transferOwnership */\n      tag_105\n        /* \"@openzeppelin/contracts/access/Ownable.sol\":2357:2387  _transferOwnership(address(0)) */\n      jump\t// in\n    tag_104:\n        /* \"@openzeppelin/contracts/access/Ownable.sol\":2293:2394  function renounceOwnership() public virtual onlyOwner {... */\n      jump\t// out\n        /* \"I/initial farm offering.sol\":597:639  mapping(address => bool) public hasClaimed */\n    tag_42:\n      mstore(0x20, 0x09)\n      dup1\n      0x00\n      mstore\n      keccak256(0x00, 0x40)\n      0x00\n      swap2\n      pop\n      sload\n      swap1\n      0x0100\n      exp\n      swap1\n      div\n      0xff\n      and\n      dup2\n      jump\t// out\n        /* \"I/initial farm offering.sol\":2107:2431  function emergencyWithdrawLP() external {... */\n    tag_46:\n        /* \"I/initial farm offering.sol\":2183:2190  endTime */\n      sload(0x04)\n        /* \"I/initial farm offering.sol\":2165:2180  block.timestamp */\n      timestamp\n        /* \"I/initial farm offering.sol\":2165:2190  block.timestamp > endTime */\n      gt\n        /* \"I/initial farm offering.sol\":2157:2210  require(block.timestamp > endTime, \"Not allowed yet\") */\n      tag_107\n      jumpi\n      mload(0x40)\n      0x08c379a000000000000000000000000000000000000000000000000000000000\n      dup2\n      mstore\n      0x04\n      add\n      tag_108\n      swap1\n      tag_109\n      jump\t// in\n    tag_108:\n      mload(0x40)\n      dup1\n      swap2\n      sub\n      swap1\n      revert\n    tag_107:\n        /* \"I/initial farm offering.sol\":2220:2234  uint256 amount */\n      0x00\n        /* \"I/initial farm offering.sol\":2237:2246  userStake */\n      0x08\n        /* \"I/initial farm offering.sol\":2237:2258  userStake[msg.sender] */\n      0x00\n        /* \"I/initial farm offering.sol\":2247:2257  msg.sender */\n      caller\n        /* \"I/initial farm offering.sol\":2237:2258  userStake[msg.sender] */\n      0xffffffffffffffffffffffffffffffffffffffff\n      and\n      0xffffffffffffffffffffffffffffffffffffffff\n      and\n      dup2\n      mstore\n      0x20\n      add\n      swap1\n      dup2\n      mstore\n      0x20\n      add\n      0x00\n      keccak256\n      sload\n        /* \"I/initial farm offering.sol\":2220:2258  uint256 amount = userStake[msg.sender] */\n      swap1\n      pop\n        /* \"I/initial farm offering.sol\":2285:2286  0 */\n      0x00\n        /* \"I/initial farm offering.sol\":2276:2282  amount */\n      dup2\n        /* \"I/initial farm offering.sol\":2276:2286  amount > 0 */\n      gt\n        /* \"I/initial farm offering.sol\":2268:2299  require(amount > 0, \"No stake\") */\n      tag_110\n      jumpi\n      mload(0x40)\n      0x08c379a000000000000000000000000000000000000000000000000000000000\n      dup2\n      mstore\n      0x04\n      add\n      tag_111\n      swap1\n      tag_88\n      jump\t// in\n    tag_111:\n      mload(0x40)\n      dup1\n      swap2\n      sub\n      swap1\n      revert\n    tag_110:\n        /* \"I/initial farm offering.sol\":2333:2334  0 */\n      0x00\n        /* \"I/initial farm offering.sol\":2309:2318  userStake */\n      0x08\n        /* \"I/initial farm offering.sol\":2309:2330  userStake[msg.sender] */\n      0x00\n        /* \"I/initial farm offering.sol\":2319:2329  msg.sender */\n      caller\n        /* \"I/initial farm offering.sol\":2309:2330  userStake[msg.sender] */\n      0xffffffffffffffffffffffffffffffffffffffff\n      and\n      0xffffffffffffffffffffffffffffffffffffffff\n      and\n      dup2\n      mstore\n      0x20\n      add\n      swap1\n      dup2\n      mstore\n      0x20\n      add\n      0x00\n      keccak256\n        /* \"I/initial farm offering.sol\":2309:2334  userStake[msg.sender] = 0 */\n      dup2\n      swap1\n      sstore\n      pop\n        /* \"I/initial farm offering.sol\":2344:2351  lpToken */\n      0x01\n      0x00\n      swap1\n      sload\n      swap1\n      0x0100\n      exp\n      swap1\n      div\n      0xffffffffffffffffffffffffffffffffffffffff\n      and\n        /* \"I/initial farm offering.sol\":2344:2360  lpToken.transfer */\n      0xffffffffffffffffffffffffffffffffffffffff\n      and\n      0xa9059cbb\n        /* \"I/initial farm offering.sol\":2361:2371  msg.sender */\n      caller\n        /* \"I/initial farm offering.sol\":2373:2379  amount */\n      dup4\n        /* \"I/initial farm offering.sol\":2344:2380  lpToken.transfer(msg.sender, amount) */\n      mload(0x40)\n      dup4\n      0xffffffff\n      and\n      0xe0\n      shl\n      dup2\n      mstore\n      0x04\n      add\n      tag_112\n      swap3\n      swap2\n      swap1\n      tag_94\n      jump\t// in\n    tag_112:\n      0x20\n      mload(0x40)\n      dup1\n      dup4\n      sub\n      dup2\n      0x00\n      dup8\n      gas\n      call\n      iszero\n      dup1\n      iszero\n      tag_114\n      jumpi\n      returndatacopy(0x00, 0x00, returndatasize)\n      revert(0x00, returndatasize)\n    tag_114:\n      pop\n      pop\n      pop\n      pop\n      mload(0x40)\n      returndatasize\n      not(0x1f)\n      0x1f\n      dup3\n      add\n      and\n      dup3\n      add\n      dup1\n      0x40\n      mstore\n      pop\n      dup2\n      add\n      swap1\n      tag_115\n      swap2\n      swap1\n      tag_98\n      jump\t// in\n    tag_115:\n      pop\n        /* \"I/initial farm offering.sol\":2405:2415  msg.sender */\n      caller\n        /* \"I/initial farm offering.sol\":2395:2424  Withdrawn(msg.sender, amount) */\n      0xffffffffffffffffffffffffffffffffffffffff\n      and\n      0x7084f5476618d8e60b11ef0d7d3f06914655adb8793e28ff7f018d4c76d505d5\n        /* \"I/initial farm offering.sol\":2417:2423  amount */\n      dup3\n        /* \"I/initial farm offering.sol\":2395:2424  Withdrawn(msg.sender, amount) */\n      mload(0x40)\n      tag_116\n      swap2\n      swap1\n      tag_26\n      jump\t// in\n    tag_116:\n      mload(0x40)\n      dup1\n      swap2\n      sub\n      swap1\n      log2\n        /* \"I/initial farm offering.sol\":2147:2431  {... */\n      pop\n        /* \"I/initial farm offering.sol\":2107:2431  function emergencyWithdrawLP() external {... */\n      jump\t// out\n        /* \"I/initial farm offering.sol\":396:420  uint256 public startTime */\n    tag_48:\n      sload(0x03)\n      dup2\n      jump\t// out\n        /* \"I/initial farm offering.sol\":489:515  uint256 public totalStaked */\n    tag_51:\n      sload(0x06)\n      dup2\n      jump\t// out\n        /* \"@openzeppelin/contracts/access/Ownable.sol\":1638:1723  function owner() public view virtual returns (address) {... */\n    tag_54:\n        /* \"@openzeppelin/contracts/access/Ownable.sol\":1684:1691  address */\n      0x00\n        /* \"@openzeppelin/contracts/access/Ownable.sol\":1710:1716  _owner */\n      0x00\n      0x00\n      swap1\n      sload\n      swap1\n      0x0100\n      exp\n      swap1\n      div\n      0xffffffffffffffffffffffffffffffffffffffff\n      and\n        /* \"@openzeppelin/contracts/access/Ownable.sol\":1703:1716  return _owner */\n      swap1\n      pop\n        /* \"@openzeppelin/contracts/access/Ownable.sol\":1638:1723  function owner() public view virtual returns (address) {... */\n      swap1\n      jump\t// out\n        /* \"I/initial farm offering.sol\":2684:2850  function recoverExcessLP(address to) external onlyOwner {... */\n    tag_59:\n        /* \"@openzeppelin/contracts/access/Ownable.sol\":1531:1544  _checkOwner() */\n      tag_119\n        /* \"@openzeppelin/contracts/access/Ownable.sol\":1531:1542  _checkOwner */\n      tag_102\n        /* \"@openzeppelin/contracts/access/Ownable.sol\":1531:1544  _checkOwner() */\n      jump\t// in\n    tag_119:\n        /* \"I/initial farm offering.sol\":2750:2767  uint256 unclaimed */\n      0x00\n        /* \"I/initial farm offering.sol\":2770:2777  lpToken */\n      0x01\n      0x00\n      swap1\n      sload\n      swap1\n      0x0100\n      exp\n      swap1\n      div\n      0xffffffffffffffffffffffffffffffffffffffff\n      and\n        /* \"I/initial farm offering.sol\":2770:2787  lpToken.balanceOf */\n      0xffffffffffffffffffffffffffffffffffffffff\n      and\n      0x70a08231\n        /* \"I/initial farm offering.sol\":2796:2800  this */\n      address\n        /* \"I/initial farm offering.sol\":2770:2802  lpToken.balanceOf(address(this)) */\n      mload(0x40)\n      dup3\n      0xffffffff\n      and\n      0xe0\n      shl\n      dup2\n      mstore\n      0x04\n      add\n      tag_121\n      swap2\n      swap1\n      tag_56\n      jump\t// in\n    tag_121:\n      0x20\n      mload(0x40)\n      dup1\n      dup4\n      sub\n      dup2\n      dup7\n      gas\n      staticcall\n      iszero\n      dup1\n      iszero\n      tag_123\n      jumpi\n      returndatacopy(0x00, 0x00, returndatasize)\n      revert(0x00, returndatasize)\n    tag_123:\n      pop\n      pop\n      pop\n      pop\n      mload(0x40)\n      returndatasize\n      not(0x1f)\n      0x1f\n      dup3\n      add\n      and\n      dup3\n      add\n      dup1\n      0x40\n      mstore\n      pop\n      dup2\n      add\n      swap1\n      tag_124\n      swap2\n      swap1\n      tag_125\n      jump\t// in\n    tag_124:\n        /* \"I/initial farm offering.sol\":2750:2802  uint256 unclaimed = lpToken.balanceOf(address(this)) */\n      swap1\n      pop\n        /* \"I/initial farm offering.sol\":2812:2819  lpToken */\n      0x01\n      0x00\n      swap1\n      sload\n      swap1\n      0x0100\n      exp\n      swap1\n      div\n      0xffffffffffffffffffffffffffffffffffffffff\n      and\n        /* \"I/initial farm offering.sol\":2812:2828  lpToken.transfer */\n      0xffffffffffffffffffffffffffffffffffffffff\n      and\n      0xa9059cbb\n        /* \"I/initial farm offering.sol\":2829:2831  to */\n      dup4\n        /* \"I/initial farm offering.sol\":2833:2842  unclaimed */\n      dup4\n        /* \"I/initial farm offering.sol\":2812:2843  lpToken.transfer(to, unclaimed) */\n      mload(0x40)\n      dup4\n      0xffffffff\n      and\n      0xe0\n      shl\n      dup2\n      mstore\n      0x04\n      add\n      tag_126\n      swap3\n      swap2\n      swap1\n      tag_94\n      jump\t// in\n    tag_126:\n      0x20\n      mload(0x40)\n      dup1\n      dup4\n      sub\n      dup2\n      0x00\n      dup8\n      gas\n      call\n      iszero\n      dup1\n      iszero\n      tag_128\n      jumpi\n      returndatacopy(0x00, 0x00, returndatasize)\n      revert(0x00, returndatasize)\n    tag_128:\n      pop\n      pop\n      pop\n      pop\n      mload(0x40)\n      returndatasize\n      not(0x1f)\n      0x1f\n      dup3\n      add\n      and\n      dup3\n      add\n      dup1\n      0x40\n      mstore\n      pop\n      dup2\n      add\n      swap1\n      tag_129\n      swap2\n      swap1\n      tag_98\n      jump\t// in\n    tag_129:\n      pop\n        /* \"I/initial farm offering.sol\":2740:2850  {... */\n      pop\n        /* \"I/initial farm offering.sol\":2684:2850  function recoverExcessLP(address to) external onlyOwner {... */\n      pop\n      jump\t// out\n        /* \"I/initial farm offering.sol\":1272:1637  function deposit(uint256 amount) external {... */\n    tag_63:\n        /* \"I/initial farm offering.sol\":1351:1360  startTime */\n      sload(0x03)\n        /* \"I/initial farm offering.sol\":1332:1347  block.timestamp */\n      timestamp\n        /* \"I/initial farm offering.sol\":1332:1360  block.timestamp >= startTime */\n      lt\n      iszero\n        /* \"I/initial farm offering.sol\":1332:1390  block.timestamp >= startTime && block.timestamp <= endTime */\n      dup1\n      iszero\n      tag_131\n      jumpi\n      pop\n        /* \"I/initial farm offering.sol\":1383:1390  endTime */\n      sload(0x04)\n        /* \"I/initial farm offering.sol\":1364:1379  block.timestamp */\n      timestamp\n        /* \"I/initial farm offering.sol\":1364:1390  block.timestamp <= endTime */\n      gt\n      iszero\n        /* \"I/initial farm offering.sol\":1332:1390  block.timestamp >= startTime && block.timestamp <= endTime */\n    tag_131:\n        /* \"I/initial farm offering.sol\":1324:1405  require(block.timestamp >= startTime && block.timestamp <= endTime, \"Not active\") */\n      tag_132\n      jumpi\n      mload(0x40)\n      0x08c379a000000000000000000000000000000000000000000000000000000000\n      dup2\n      mstore\n      0x04\n      add\n      tag_133\n      swap1\n      tag_134\n      jump\t// in\n    tag_133:\n      mload(0x40)\n      dup1\n      swap2\n      sub\n      swap1\n      revert\n    tag_132:\n        /* \"I/initial farm offering.sol\":1432:1433  0 */\n      0x00\n        /* \"I/initial farm offering.sol\":1423:1429  amount */\n      dup2\n        /* \"I/initial farm offering.sol\":1423:1433  amount > 0 */\n      gt\n        /* \"I/initial farm offering.sol\":1415:1449  require(amount > 0, \"Zero amount\") */\n      tag_135\n      jumpi\n      mload(0x40)\n      0x08c379a000000000000000000000000000000000000000000000000000000000\n      dup2\n      mstore\n      0x04\n      add\n      tag_136\n      swap1\n      tag_137\n      jump\t// in\n    tag_136:\n      mload(0x40)\n      dup1\n      swap2\n      sub\n      swap1\n      revert\n    tag_135:\n        /* \"I/initial farm offering.sol\":1459:1466  lpToken */\n      0x01\n      0x00\n      swap1\n      sload\n      swap1\n      0x0100\n      exp\n      swap1\n      div\n      0xffffffffffffffffffffffffffffffffffffffff\n      and\n        /* \"I/initial farm offering.sol\":1459:1479  lpToken.transferFrom */\n      0xffffffffffffffffffffffffffffffffffffffff\n      and\n      0x23b872dd\n        /* \"I/initial farm offering.sol\":1480:1490  msg.sender */\n      caller\n        /* \"I/initial farm offering.sol\":1500:1504  this */\n      address\n        /* \"I/initial farm offering.sol\":1507:1513  amount */\n      dup5\n        /* \"I/initial farm offering.sol\":1459:1514  lpToken.transferFrom(msg.sender, address(this), amount) */\n      mload(0x40)\n      dup5\n      0xffffffff\n      and\n      0xe0\n      shl\n      dup2\n      mstore\n      0x04\n      add\n      tag_138\n      swap4\n      swap3\n      swap2\n      swap1\n      tag_139\n      jump\t// in\n    tag_138:\n      0x20\n      mload(0x40)\n      dup1\n      dup4\n      sub\n      dup2\n      0x00\n      dup8\n      gas\n      call\n      iszero\n      dup1\n      iszero\n      tag_141\n      jumpi\n      returndatacopy(0x00, 0x00, returndatasize)\n      revert(0x00, returndatasize)\n    tag_141:\n      pop\n      pop\n      pop\n      pop\n      mload(0x40)\n      returndatasize\n      not(0x1f)\n      0x1f\n      dup3\n      add\n      and\n      dup3\n      add\n      dup1\n      0x40\n      mstore\n      pop\n      dup2\n      add\n      swap1\n      tag_142\n      swap2\n      swap1\n      tag_98\n      jump\t// in\n    tag_142:\n      pop\n        /* \"I/initial farm offering.sol\":1549:1555  amount */\n      dup1\n        /* \"I/initial farm offering.sol\":1524:1533  userStake */\n      0x08\n        /* \"I/initial farm offering.sol\":1524:1545  userStake[msg.sender] */\n      0x00\n        /* \"I/initial farm offering.sol\":1534:1544  msg.sender */\n      caller\n        /* \"I/initial farm offering.sol\":1524:1545  userStake[msg.sender] */\n      0xffffffffffffffffffffffffffffffffffffffff\n      and\n      0xffffffffffffffffffffffffffffffffffffffff\n      and\n      dup2\n      mstore\n      0x20\n      add\n      swap1\n      dup2\n      mstore\n      0x20\n      add\n      0x00\n      keccak256\n      0x00\n        /* \"I/initial farm offering.sol\":1524:1555  userStake[msg.sender] += amount */\n      dup3\n      dup3\n      sload\n      tag_143\n      swap2\n      swap1\n      tag_144\n      jump\t// in\n    tag_143:\n      swap3\n      pop\n      pop\n      dup2\n      swap1\n      sstore\n      pop\n        /* \"I/initial farm offering.sol\":1580:1586  amount */\n      dup1\n        /* \"I/initial farm offering.sol\":1565:1576  totalStaked */\n      0x06\n      0x00\n        /* \"I/initial farm offering.sol\":1565:1586  totalStaked += amount */\n      dup3\n      dup3\n      sload\n      tag_145\n      swap2\n      swap1\n      tag_144\n      jump\t// in\n    tag_145:\n      swap3\n      pop\n      pop\n      dup2\n      swap1\n      sstore\n      pop\n        /* \"I/initial farm offering.sol\":1611:1621  msg.sender */\n      caller\n        /* \"I/initial farm offering.sol\":1601:1630  Deposited(msg.sender, amount) */\n      0xffffffffffffffffffffffffffffffffffffffff\n      and\n      0x2da466a7b24304f47e87fa2e1e5a81b9831ce54fec19055ce277ca2f39ba42c4\n        /* \"I/initial farm offering.sol\":1623:1629  amount */\n      dup3\n        /* \"I/initial farm offering.sol\":1601:1630  Deposited(msg.sender, amount) */\n      mload(0x40)\n      tag_146\n      swap2\n      swap1\n      tag_26\n      jump\t// in\n    tag_146:\n      mload(0x40)\n      dup1\n      swap2\n      sub\n      swap1\n      log2\n        /* \"I/initial farm offering.sol\":1272:1637  function deposit(uint256 amount) external {... */\n      pop\n      jump\t// out\n        /* \"I/initial farm offering.sol\":362:389  IERC20 public offeringToken */\n    tag_65:\n      0x02\n      0x00\n      swap1\n      sload\n      swap1\n      0x0100\n      exp\n      swap1\n      div\n      0xffffffffffffffffffffffffffffffffffffffff\n      and\n      dup2\n      jump\t// out\n        /* \"I/initial farm offering.sol\":2437:2678  function withdrawUnclaimedOffering(address to) external onlyOwner {... */\n    tag_69:\n        /* \"@openzeppelin/contracts/access/Ownable.sol\":1531:1544  _checkOwner() */\n      tag_148\n        /* \"@openzeppelin/contracts/access/Ownable.sol\":1531:1542  _checkOwner */\n      tag_102\n        /* \"@openzeppelin/contracts/access/Ownable.sol\":1531:1544  _checkOwner() */\n      jump\t// in\n    tag_148:\n        /* \"I/initial farm offering.sol\":2539:2546  endTime */\n      sload(0x04)\n        /* \"I/initial farm offering.sol\":2521:2536  block.timestamp */\n      timestamp\n        /* \"I/initial farm offering.sol\":2521:2546  block.timestamp > endTime */\n      gt\n        /* \"I/initial farm offering.sol\":2513:2560  require(block.timestamp > endTime, \"Too early\") */\n      tag_150\n      jumpi\n      mload(0x40)\n      0x08c379a000000000000000000000000000000000000000000000000000000000\n      dup2\n      mstore\n      0x04\n      add\n      tag_151\n      swap1\n      tag_82\n      jump\t// in\n    tag_151:\n      mload(0x40)\n      dup1\n      swap2\n      sub\n      swap1\n      revert\n    tag_150:\n        /* \"I/initial farm offering.sol\":2570:2585  uint256 balance */\n      0x00\n        /* \"I/initial farm offering.sol\":2588:2601  offeringToken */\n      0x02\n      0x00\n      swap1\n      sload\n      swap1\n      0x0100\n      exp\n      swap1\n      div\n      0xffffffffffffffffffffffffffffffffffffffff\n      and\n        /* \"I/initial farm offering.sol\":2588:2611  offeringToken.balanceOf */\n      0xffffffffffffffffffffffffffffffffffffffff\n      and\n      0x70a08231\n        /* \"I/initial farm offering.sol\":2620:2624  this */\n      address\n        /* \"I/initial farm offering.sol\":2588:2626  offeringToken.balanceOf(address(this)) */\n      mload(0x40)\n      dup3\n      0xffffffff\n      and\n      0xe0\n      shl\n      dup2\n      mstore\n      0x04\n      add\n      tag_152\n      swap2\n      swap1\n      tag_56\n      jump\t// in\n    tag_152:\n      0x20\n      mload(0x40)\n      dup1\n      dup4\n      sub\n      dup2\n      dup7\n      gas\n      staticcall\n      iszero\n      dup1\n      iszero\n      tag_154\n      jumpi\n      returndatacopy(0x00, 0x00, returndatasize)\n      revert(0x00, returndatasize)\n    tag_154:\n      pop\n      pop\n      pop\n      pop\n      mload(0x40)\n      returndatasize\n      not(0x1f)\n      0x1f\n      dup3\n      add\n      and\n      dup3\n      add\n      dup1\n      0x40\n      mstore\n      pop\n      dup2\n      add\n      swap1\n      tag_155\n      swap2\n      swap1\n      tag_125\n      jump\t// in\n    tag_155:\n        /* \"I/initial farm offering.sol\":2570:2626  uint256 balance = offeringToken.balanceOf(address(this)) */\n      swap1\n      pop\n        /* \"I/initial farm offering.sol\":2636:2649  offeringToken */\n      0x02\n      0x00\n      swap1\n      sload\n      swap1\n      0x0100\n      exp\n      swap1\n      div\n      0xffffffffffffffffffffffffffffffffffffffff\n      and\n        /* \"I/initial farm offering.sol\":2636:2658  offeringToken.transfer */\n      0xffffffffffffffffffffffffffffffffffffffff\n      and\n      0xa9059cbb\n        /* \"I/initial farm offering.sol\":2659:2661  to */\n      dup4\n        /* \"I/initial farm offering.sol\":2663:2670  balance */\n      dup4\n        /* \"I/initial farm offering.sol\":2636:2671  offeringToken.transfer(to, balance) */\n      mload(0x40)\n      dup4\n      0xffffffff\n      and\n      0xe0\n      shl\n      dup2\n      mstore\n      0x04\n      add\n      tag_156\n      swap3\n      swap2\n      swap1\n      tag_94\n      jump\t// in\n    tag_156:\n      0x20\n      mload(0x40)\n      dup1\n      dup4\n      sub\n      dup2\n      0x00\n      dup8\n      gas\n      call\n      iszero\n      dup1\n      iszero\n      tag_158\n      jumpi\n      returndatacopy(0x00, 0x00, returndatasize)\n      revert(0x00, returndatasize)\n    tag_158:\n      pop\n      pop\n      pop\n      pop\n      mload(0x40)\n      returndatasize\n      not(0x1f)\n      0x1f\n      dup3\n      add\n      and\n      dup3\n      add\n      dup1\n      0x40\n      mstore\n      pop\n      dup2\n      add\n      swap1\n      tag_159\n      swap2\n      swap1\n      tag_98\n      jump\t// in\n    tag_159:\n      pop\n        /* \"I/initial farm offering.sol\":2503:2678  {... */\n      pop\n        /* \"I/initial farm offering.sol\":2437:2678  function withdrawUnclaimedOffering(address to) external onlyOwner {... */\n      pop\n      jump\t// out\n        /* \"I/initial farm offering.sol\":454:483  uint256 public offeringAmount */\n    tag_71:\n      sload(0x05)\n      dup2\n      jump\t// out\n        /* \"I/initial farm offering.sol\":521:540  bool public claimed */\n    tag_74:\n      0x07\n      0x00\n      swap1\n      sload\n      swap1\n      0x0100\n      exp\n      swap1\n      div\n      0xff\n      and\n      dup2\n      jump\t// out\n        /* \"@openzeppelin/contracts/access/Ownable.sol\":2543:2758  function transferOwnership(address newOwner) public virtual onlyOwner {... */\n    tag_78:\n        /* \"@openzeppelin/contracts/access/Ownable.sol\":1531:1544  _checkOwner() */\n      tag_161\n        /* \"@openzeppelin/contracts/access/Ownable.sol\":1531:1542  _checkOwner */\n      tag_102\n        /* \"@openzeppelin/contracts/access/Ownable.sol\":1531:1544  _checkOwner() */\n      jump\t// in\n    tag_161:\n        /* \"@openzeppelin/contracts/access/Ownable.sol\":2647:2648  0 */\n      0x00\n        /* \"@openzeppelin/contracts/access/Ownable.sol\":2627:2649  newOwner == address(0) */\n      0xffffffffffffffffffffffffffffffffffffffff\n      and\n        /* \"@openzeppelin/contracts/access/Ownable.sol\":2627:2635  newOwner */\n      dup2\n        /* \"@openzeppelin/contracts/access/Ownable.sol\":2627:2649  newOwner == address(0) */\n      0xffffffffffffffffffffffffffffffffffffffff\n      and\n      sub\n        /* \"@openzeppelin/contracts/access/Ownable.sol\":2623:2714  if (newOwner == address(0)) {... */\n      tag_163\n      jumpi\n        /* \"@openzeppelin/contracts/access/Ownable.sol\":2700:2701  0 */\n      0x00\n        /* \"@openzeppelin/contracts/access/Ownable.sol\":2672:2703  OwnableInvalidOwner(address(0)) */\n      mload(0x40)\n      0x1e4fbdf700000000000000000000000000000000000000000000000000000000\n      dup2\n      mstore\n      0x04\n      add\n      tag_164\n      swap2\n      swap1\n      tag_56\n      jump\t// in\n    tag_164:\n      mload(0x40)\n      dup1\n      swap2\n      sub\n      swap1\n      revert\n        /* \"@openzeppelin/contracts/access/Ownable.sol\":2623:2714  if (newOwner == address(0)) {... */\n    tag_163:\n        /* \"@openzeppelin/contracts/access/Ownable.sol\":2723:2751  _transferOwnership(newOwner) */\n      tag_165\n        /* \"@openzeppelin/contracts/access/Ownable.sol\":2742:2750  newOwner */\n      dup2\n        /* \"@openzeppelin/contracts/access/Ownable.sol\":2723:2741  _transferOwnership */\n      tag_105\n        /* \"@openzeppelin/contracts/access/Ownable.sol\":2723:2751  _transferOwnership(newOwner) */\n      jump\t// in\n    tag_165:\n        /* \"@openzeppelin/contracts/access/Ownable.sol\":2543:2758  function transferOwnership(address newOwner) public virtual onlyOwner {... */\n      pop\n      jump\t// out\n        /* \"@openzeppelin/contracts/access/Ownable.sol\":1796:1958  function _checkOwner() internal view virtual {... */\n    tag_102:\n        /* \"@openzeppelin/contracts/access/Ownable.sol\":1866:1878  _msgSender() */\n      tag_167\n        /* \"@openzeppelin/contracts/access/Ownable.sol\":1866:1876  _msgSender */\n      tag_168\n        /* \"@openzeppelin/contracts/access/Ownable.sol\":1866:1878  _msgSender() */\n      jump\t// in\n    tag_167:\n        /* \"@openzeppelin/contracts/access/Ownable.sol\":1855:1878  owner() != _msgSender() */\n      0xffffffffffffffffffffffffffffffffffffffff\n      and\n        /* \"@openzeppelin/contracts/access/Ownable.sol\":1855:1862  owner() */\n      tag_169\n        /* \"@openzeppelin/contracts/access/Ownable.sol\":1855:1860  owner */\n      tag_54\n        /* \"@openzeppelin/contracts/access/Ownable.sol\":1855:1862  owner() */\n      jump\t// in\n    tag_169:\n        /* \"@openzeppelin/contracts/access/Ownable.sol\":1855:1878  owner() != _msgSender() */\n      0xffffffffffffffffffffffffffffffffffffffff\n      and\n      eq\n        /* \"@openzeppelin/contracts/access/Ownable.sol\":1851:1952  if (owner() != _msgSender()) {... */\n      tag_170\n      jumpi\n        /* \"@openzeppelin/contracts/access/Ownable.sol\":1928:1940  _msgSender() */\n      tag_171\n        /* \"@openzeppelin/contracts/access/Ownable.sol\":1928:1938  _msgSender */\n      tag_168\n        /* \"@openzeppelin/contracts/access/Ownable.sol\":1928:1940  _msgSender() */\n      jump\t// in\n    tag_171:\n        /* \"@openzeppelin/contracts/access/Ownable.sol\":1901:1941  OwnableUnauthorizedAccount(_msgSender()) */\n      mload(0x40)\n      0x118cdaa700000000000000000000000000000000000000000000000000000000\n      dup2\n      mstore\n      0x04\n      add\n      tag_172\n      swap2\n      swap1\n      tag_56\n      jump\t// in\n    tag_172:\n      mload(0x40)\n      dup1\n      swap2\n      sub\n      swap1\n      revert\n        /* \"@openzeppelin/contracts/access/Ownable.sol\":1851:1952  if (owner() != _msgSender()) {... */\n    tag_170:\n        /* \"@openzeppelin/contracts/access/Ownable.sol\":1796:1958  function _checkOwner() internal view virtual {... */\n      jump\t// out\n        /* \"@openzeppelin/contracts/access/Ownable.sol\":2912:3099  function _transferOwnership(address newOwner) internal virtual {... */\n    tag_105:\n        /* \"@openzeppelin/contracts/access/Ownable.sol\":2985:3001  address oldOwner */\n      0x00\n        /* \"@openzeppelin/contracts/access/Ownable.sol\":3004:3010  _owner */\n      0x00\n      0x00\n      swap1\n      sload\n      swap1\n      0x0100\n      exp\n      swap1\n      div\n      0xffffffffffffffffffffffffffffffffffffffff\n      and\n        /* \"@openzeppelin/contracts/access/Ownable.sol\":2985:3010  address oldOwner = _owner */\n      swap1\n      pop\n        /* \"@openzeppelin/contracts/access/Ownable.sol\":3029:3037  newOwner */\n      dup2\n        /* \"@openzeppelin/contracts/access/Ownable.sol\":3020:3026  _owner */\n      0x00\n      0x00\n        /* \"@openzeppelin/contracts/access/Ownable.sol\":3020:3037  _owner = newOwner */\n      0x0100\n      exp\n      dup2\n      sload\n      dup2\n      0xffffffffffffffffffffffffffffffffffffffff\n      mul\n      not\n      and\n      swap1\n      dup4\n      0xffffffffffffffffffffffffffffffffffffffff\n      and\n      mul\n      or\n      swap1\n      sstore\n      pop\n        /* \"@openzeppelin/contracts/access/Ownable.sol\":3083:3091  newOwner */\n      dup2\n        /* \"@openzeppelin/contracts/access/Ownable.sol\":3052:3092  OwnershipTransferred(oldOwner, newOwner) */\n      0xffffffffffffffffffffffffffffffffffffffff\n      and\n        /* \"@openzeppelin/contracts/access/Ownable.sol\":3073:3081  oldOwner */\n      dup2\n        /* \"@openzeppelin/contracts/access/Ownable.sol\":3052:3092  OwnershipTransferred(oldOwner, newOwner) */\n      0xffffffffffffffffffffffffffffffffffffffff\n      and\n      0x8be0079c531659141344cd1fd0a4f28419497f9722a3daafe3b4186f6b6457e0\n      mload(0x40)\n      mload(0x40)\n      dup1\n      swap2\n      sub\n      swap1\n      log3\n        /* \"@openzeppelin/contracts/access/Ownable.sol\":2975:3099  {... */\n      pop\n        /* \"@openzeppelin/contracts/access/Ownable.sol\":2912:3099  function _transferOwnership(address newOwner) internal virtual {... */\n      pop\n      jump\t// out\n        /* \"@openzeppelin/contracts/utils/Context.sol\":656:752  function _msgSender() internal view virtual returns (address) {... */\n    tag_168:\n        /* \"@openzeppelin/contracts/utils/Context.sol\":709:716  address */\n      0x00\n        /* \"@openzeppelin/contracts/utils/Context.sol\":735:745  msg.sender */\n      caller\n        /* \"@openzeppelin/contracts/utils/Context.sol\":728:745  return msg.sender */\n      swap1\n      pop\n        /* \"@openzeppelin/contracts/utils/Context.sol\":656:752  function _msgSender() internal view virtual returns (address) {... */\n      swap1\n      jump\t// out\n        /* \"#utility.yul\":7:84   */\n    tag_175:\n        /* \"#utility.yul\":44:51   */\n      0x00\n        /* \"#utility.yul\":73:78   */\n      dup2\n        /* \"#utility.yul\":62:78   */\n      swap1\n      pop\n        /* \"#utility.yul\":7:84   */\n      swap2\n      swap1\n      pop\n      jump\t// out\n        /* \"#utility.yul\":90:208   */\n    tag_176:\n        /* \"#utility.yul\":177:201   */\n      tag_215\n        /* \"#utility.yul\":195:200   */\n      dup2\n        /* \"#utility.yul\":177:201   */\n      tag_175\n      jump\t// in\n    tag_215:\n        /* \"#utility.yul\":172:175   */\n      dup3\n        /* \"#utility.yul\":165:202   */\n      mstore\n        /* \"#utility.yul\":90:208   */\n      pop\n      pop\n      jump\t// out\n        /* \"#utility.yul\":214:436   */\n    tag_26:\n        /* \"#utility.yul\":307:311   */\n      0x00\n        /* \"#utility.yul\":345:347   */\n      0x20\n        /* \"#utility.yul\":334:343   */\n      dup3\n        /* \"#utility.yul\":330:348   */\n      add\n        /* \"#utility.yul\":322:348   */\n      swap1\n      pop\n        /* \"#utility.yul\":358:429   */\n      tag_217\n        /* \"#utility.yul\":426:427   */\n      0x00\n        /* \"#utility.yul\":415:424   */\n      dup4\n        /* \"#utility.yul\":411:428   */\n      add\n        /* \"#utility.yul\":402:408   */\n      dup5\n        /* \"#utility.yul\":358:429   */\n      tag_176\n      jump\t// in\n    tag_217:\n        /* \"#utility.yul\":214:436   */\n      swap3\n      swap2\n      pop\n      pop\n      jump\t// out\n        /* \"#utility.yul\":442:568   */\n    tag_177:\n        /* \"#utility.yul\":479:486   */\n      0x00\n        /* \"#utility.yul\":519:561   */\n      0xffffffffffffffffffffffffffffffffffffffff\n        /* \"#utility.yul\":512:517   */\n      dup3\n        /* \"#utility.yul\":508:562   */\n      and\n        /* \"#utility.yul\":497:562   */\n      swap1\n      pop\n        /* \"#utility.yul\":442:568   */\n      swap2\n      swap1\n      pop\n      jump\t// out\n        /* \"#utility.yul\":574:634   */\n    tag_178:\n        /* \"#utility.yul\":602:605   */\n      0x00\n        /* \"#utility.yul\":623:628   */\n      dup2\n        /* \"#utility.yul\":616:628   */\n      swap1\n      pop\n        /* \"#utility.yul\":574:634   */\n      swap2\n      swap1\n      pop\n      jump\t// out\n        /* \"#utility.yul\":640:782   */\n    tag_179:\n        /* \"#utility.yul\":690:699   */\n      0x00\n        /* \"#utility.yul\":723:776   */\n      tag_221\n        /* \"#utility.yul\":741:775   */\n      tag_222\n        /* \"#utility.yul\":750:774   */\n      tag_223\n        /* \"#utility.yul\":768:773   */\n      dup5\n        /* \"#utility.yul\":750:774   */\n      tag_177\n      jump\t// in\n    tag_223:\n        /* \"#utility.yul\":741:775   */\n      tag_178\n      jump\t// in\n    tag_222:\n        /* \"#utility.yul\":723:776   */\n      tag_177\n      jump\t// in\n    tag_221:\n        /* \"#utility.yul\":710:776   */\n      swap1\n      pop\n        /* \"#utility.yul\":640:782   */\n      swap2\n      swap1\n      pop\n      jump\t// out\n        /* \"#utility.yul\":788:914   */\n    tag_180:\n        /* \"#utility.yul\":838:847   */\n      0x00\n        /* \"#utility.yul\":871:908   */\n      tag_225\n        /* \"#utility.yul\":902:907   */\n      dup3\n        /* \"#utility.yul\":871:908   */\n      tag_179\n      jump\t// in\n    tag_225:\n        /* \"#utility.yul\":858:908   */\n      swap1\n      pop\n        /* \"#utility.yul\":788:914   */\n      swap2\n      swap1\n      pop\n      jump\t// out\n        /* \"#utility.yul\":920:1060   */\n    tag_181:\n        /* \"#utility.yul\":984:993   */\n      0x00\n        /* \"#utility.yul\":1017:1054   */\n      tag_227\n        /* \"#utility.yul\":1048:1053   */\n      dup3\n        /* \"#utility.yul\":1017:1054   */\n      tag_180\n      jump\t// in\n    tag_227:\n        /* \"#utility.yul\":1004:1054   */\n      swap1\n      pop\n        /* \"#utility.yul\":920:1060   */\n      swap2\n      swap1\n      pop\n      jump\t// out\n        /* \"#utility.yul\":1066:1225   */\n    tag_182:\n        /* \"#utility.yul\":1167:1218   */\n      tag_229\n        /* \"#utility.yul\":1212:1217   */\n      dup2\n        /* \"#utility.yul\":1167:1218   */\n      tag_181\n      jump\t// in\n    tag_229:\n        /* \"#utility.yul\":1162:1165   */\n      dup3\n        /* \"#utility.yul\":1155:1219   */\n      mstore\n        /* \"#utility.yul\":1066:1225   */\n      pop\n      pop\n      jump\t// out\n        /* \"#utility.yul\":1231:1481   */\n    tag_32:\n        /* \"#utility.yul\":1338:1342   */\n      0x00\n        /* \"#utility.yul\":1376:1378   */\n      0x20\n        /* \"#utility.yul\":1365:1374   */\n      dup3\n        /* \"#utility.yul\":1361:1379   */\n      add\n        /* \"#utility.yul\":1353:1379   */\n      swap1\n      pop\n        /* \"#utility.yul\":1389:1474   */\n      tag_231\n        /* \"#utility.yul\":1471:1472   */\n      0x00\n        /* \"#utility.yul\":1460:1469   */\n      dup4\n        /* \"#utility.yul\":1456:1473   */\n      add\n        /* \"#utility.yul\":1447:1453   */\n      dup5\n        /* \"#utility.yul\":1389:1474   */\n      tag_182\n      jump\t// in\n    tag_231:\n        /* \"#utility.yul\":1231:1481   */\n      swap3\n      swap2\n      pop\n      pop\n      jump\t// out\n        /* \"#utility.yul\":1568:1685   */\n    tag_184:\n        /* \"#utility.yul\":1677:1678   */\n      0x00\n        /* \"#utility.yul\":1674:1675   */\n      0x00\n        /* \"#utility.yul\":1667:1679   */\n      revert\n        /* \"#utility.yul\":1814:1910   */\n    tag_186:\n        /* \"#utility.yul\":1851:1858   */\n      0x00\n        /* \"#utility.yul\":1880:1904   */\n      tag_236\n        /* \"#utility.yul\":1898:1903   */\n      dup3\n        /* \"#utility.yul\":1880:1904   */\n      tag_177\n      jump\t// in\n    tag_236:\n        /* \"#utility.yul\":1869:1904   */\n      swap1\n      pop\n        /* \"#utility.yul\":1814:1910   */\n      swap2\n      swap1\n      pop\n      jump\t// out\n        /* \"#utility.yul\":1916:2038   */\n    tag_187:\n        /* \"#utility.yul\":1989:2013   */\n      tag_238\n        /* \"#utility.yul\":2007:2012   */\n      dup2\n        /* \"#utility.yul\":1989:2013   */\n      tag_186\n      jump\t// in\n    tag_238:\n        /* \"#utility.yul\":1982:1987   */\n      dup2\n        /* \"#utility.yul\":1979:2014   */\n      eq\n        /* \"#utility.yul\":1969:2032   */\n      tag_239\n      jumpi\n        /* \"#utility.yul\":2028:2029   */\n      0x00\n        /* \"#utility.yul\":2025:2026   */\n      0x00\n        /* \"#utility.yul\":2018:2030   */\n      revert\n        /* \"#utility.yul\":1969:2032   */\n    tag_239:\n        /* \"#utility.yul\":1916:2038   */\n      pop\n      jump\t// out\n        /* \"#utility.yul\":2044:2183   */\n    tag_188:\n        /* \"#utility.yul\":2090:2095   */\n      0x00\n        /* \"#utility.yul\":2128:2134   */\n      dup2\n        /* \"#utility.yul\":2115:2135   */\n      calldataload\n        /* \"#utility.yul\":2106:2135   */\n      swap1\n      pop\n        /* \"#utility.yul\":2144:2177   */\n      tag_241\n        /* \"#utility.yul\":2171:2176   */\n      dup2\n        /* \"#utility.yul\":2144:2177   */\n      tag_187\n      jump\t// in\n    tag_241:\n        /* \"#utility.yul\":2044:2183   */\n      swap3\n      swap2\n      pop\n      pop\n      jump\t// out\n        /* \"#utility.yul\":2189:2518   */\n    tag_35:\n        /* \"#utility.yul\":2248:2254   */\n      0x00\n        /* \"#utility.yul\":2297:2299   */\n      0x20\n        /* \"#utility.yul\":2285:2294   */\n      dup3\n        /* \"#utility.yul\":2276:2283   */\n      dup5\n        /* \"#utility.yul\":2272:2295   */\n      sub\n        /* \"#utility.yul\":2268:2300   */\n      slt\n        /* \"#utility.yul\":2265:2384   */\n      iszero\n      tag_243\n      jumpi\n        /* \"#utility.yul\":2303:2382   */\n      tag_244\n      tag_184\n      jump\t// in\n    tag_244:\n        /* \"#utility.yul\":2265:2384   */\n    tag_243:\n        /* \"#utility.yul\":2423:2424   */\n      0x00\n        /* \"#utility.yul\":2448:2501   */\n      tag_245\n        /* \"#utility.yul\":2493:2500   */\n      dup5\n        /* \"#utility.yul\":2484:2490   */\n      dup3\n        /* \"#utility.yul\":2473:2482   */\n      dup6\n        /* \"#utility.yul\":2469:2491   */\n      add\n        /* \"#utility.yul\":2448:2501   */\n      tag_188\n      jump\t// in\n    tag_245:\n        /* \"#utility.yul\":2438:2501   */\n      swap2\n      pop\n        /* \"#utility.yul\":2394:2511   */\n      pop\n        /* \"#utility.yul\":2189:2518   */\n      swap3\n      swap2\n      pop\n      pop\n      jump\t// out\n        /* \"#utility.yul\":2524:2614   */\n    tag_189:\n        /* \"#utility.yul\":2558:2565   */\n      0x00\n        /* \"#utility.yul\":2601:2606   */\n      dup2\n        /* \"#utility.yul\":2594:2607   */\n      iszero\n        /* \"#utility.yul\":2587:2608   */\n      iszero\n        /* \"#utility.yul\":2576:2608   */\n      swap1\n      pop\n        /* \"#utility.yul\":2524:2614   */\n      swap2\n      swap1\n      pop\n      jump\t// out\n        /* \"#utility.yul\":2620:2729   */\n    tag_190:\n        /* \"#utility.yul\":2701:2722   */\n      tag_248\n        /* \"#utility.yul\":2716:2721   */\n      dup2\n        /* \"#utility.yul\":2701:2722   */\n      tag_189\n      jump\t// in\n    tag_248:\n        /* \"#utility.yul\":2696:2699   */\n      dup3\n        /* \"#utility.yul\":2689:2723   */\n      mstore\n        /* \"#utility.yul\":2620:2729   */\n      pop\n      pop\n      jump\t// out\n        /* \"#utility.yul\":2735:2945   */\n    tag_44:\n        /* \"#utility.yul\":2822:2826   */\n      0x00\n        /* \"#utility.yul\":2860:2862   */\n      0x20\n        /* \"#utility.yul\":2849:2858   */\n      dup3\n        /* \"#utility.yul\":2845:2863   */\n      add\n        /* \"#utility.yul\":2837:2863   */\n      swap1\n      pop\n        /* \"#utility.yul\":2873:2938   */\n      tag_250\n        /* \"#utility.yul\":2935:2936   */\n      0x00\n        /* \"#utility.yul\":2924:2933   */\n      dup4\n        /* \"#utility.yul\":2920:2937   */\n      add\n        /* \"#utility.yul\":2911:2917   */\n      dup5\n        /* \"#utility.yul\":2873:2938   */\n      tag_190\n      jump\t// in\n    tag_250:\n        /* \"#utility.yul\":2735:2945   */\n      swap3\n      swap2\n      pop\n      pop\n      jump\t// out\n        /* \"#utility.yul\":2951:3069   */\n    tag_191:\n        /* \"#utility.yul\":3038:3062   */\n      tag_252\n        /* \"#utility.yul\":3056:3061   */\n      dup2\n        /* \"#utility.yul\":3038:3062   */\n      tag_186\n      jump\t// in\n    tag_252:\n        /* \"#utility.yul\":3033:3036   */\n      dup3\n        /* \"#utility.yul\":3026:3063   */\n      mstore\n        /* \"#utility.yul\":2951:3069   */\n      pop\n      pop\n      jump\t// out\n        /* \"#utility.yul\":3075:3297   */\n    tag_56:\n        /* \"#utility.yul\":3168:3172   */\n      0x00\n        /* \"#utility.yul\":3206:3208   */\n      0x20\n        /* \"#utility.yul\":3195:3204   */\n      dup3\n        /* \"#utility.yul\":3191:3209   */\n      add\n        /* \"#utility.yul\":3183:3209   */\n      swap1\n      pop\n        /* \"#utility.yul\":3219:3290   */\n      tag_254\n        /* \"#utility.yul\":3287:3288   */\n      0x00\n        /* \"#utility.yul\":3276:3285   */\n      dup4\n        /* \"#utility.yul\":3272:3289   */\n      add\n        /* \"#utility.yul\":3263:3269   */\n      dup5\n        /* \"#utility.yul\":3219:3290   */\n      tag_191\n      jump\t// in\n    tag_254:\n        /* \"#utility.yul\":3075:3297   */\n      swap3\n      swap2\n      pop\n      pop\n      jump\t// out\n        /* \"#utility.yul\":3303:3425   */\n    tag_192:\n        /* \"#utility.yul\":3376:3400   */\n      tag_256\n        /* \"#utility.yul\":3394:3399   */\n      dup2\n        /* \"#utility.yul\":3376:3400   */\n      tag_175\n      jump\t// in\n    tag_256:\n        /* \"#utility.yul\":3369:3374   */\n      dup2\n        /* \"#utility.yul\":3366:3401   */\n      eq\n        /* \"#utility.yul\":3356:3419   */\n      tag_257\n      jumpi\n        /* \"#utility.yul\":3415:3416   */\n      0x00\n        /* \"#utility.yul\":3412:3413   */\n      0x00\n        /* \"#utility.yul\":3405:3417   */\n      revert\n        /* \"#utility.yul\":3356:3419   */\n    tag_257:\n        /* \"#utility.yul\":3303:3425   */\n      pop\n      jump\t// out\n        /* \"#utility.yul\":3431:3570   */\n    tag_193:\n        /* \"#utility.yul\":3477:3482   */\n      0x00\n        /* \"#utility.yul\":3515:3521   */\n      dup2\n        /* \"#utility.yul\":3502:3522   */\n      calldataload\n        /* \"#utility.yul\":3493:3522   */\n      swap1\n      pop\n        /* \"#utility.yul\":3531:3564   */\n      tag_259\n        /* \"#utility.yul\":3558:3563   */\n      dup2\n        /* \"#utility.yul\":3531:3564   */\n      tag_192\n      jump\t// in\n    tag_259:\n        /* \"#utility.yul\":3431:3570   */\n      swap3\n      swap2\n      pop\n      pop\n      jump\t// out\n        /* \"#utility.yul\":3576:3905   */\n    tag_62:\n        /* \"#utility.yul\":3635:3641   */\n      0x00\n        /* \"#utility.yul\":3684:3686   */\n      0x20\n        /* \"#utility.yul\":3672:3681   */\n      dup3\n        /* \"#utility.yul\":3663:3670   */\n      dup5\n        /* \"#utility.yul\":3659:3682   */\n      sub\n        /* \"#utility.yul\":3655:3687   */\n      slt\n        /* \"#utility.yul\":3652:3771   */\n      iszero\n      tag_261\n      jumpi\n        /* \"#utility.yul\":3690:3769   */\n      tag_262\n      tag_184\n      jump\t// in\n    tag_262:\n        /* \"#utility.yul\":3652:3771   */\n    tag_261:\n        /* \"#utility.yul\":3810:3811   */\n      0x00\n        /* \"#utility.yul\":3835:3888   */\n      tag_263\n        /* \"#utility.yul\":3880:3887   */\n      dup5\n        /* \"#utility.yul\":3871:3877   */\n      dup3\n        /* \"#utility.yul\":3860:3869   */\n      dup6\n        /* \"#utility.yul\":3856:3878   */\n      add\n        /* \"#utility.yul\":3835:3888   */\n      tag_193\n      jump\t// in\n    tag_263:\n        /* \"#utility.yul\":3825:3888   */\n      swap2\n      pop\n        /* \"#utility.yul\":3781:3898   */\n      pop\n        /* \"#utility.yul\":3576:3905   */\n      swap3\n      swap2\n      pop\n      pop\n      jump\t// out\n        /* \"#utility.yul\":3911:4080   */\n    tag_194:\n        /* \"#utility.yul\":3995:4006   */\n      0x00\n        /* \"#utility.yul\":4029:4035   */\n      dup3\n        /* \"#utility.yul\":4024:4027   */\n      dup3\n        /* \"#utility.yul\":4017:4036   */\n      mstore\n        /* \"#utility.yul\":4069:4073   */\n      0x20\n        /* \"#utility.yul\":4064:4067   */\n      dup3\n        /* \"#utility.yul\":4060:4074   */\n      add\n        /* \"#utility.yul\":4045:4074   */\n      swap1\n      pop\n        /* \"#utility.yul\":3911:4080   */\n      swap3\n      swap2\n      pop\n      pop\n      jump\t// out\n        /* \"#utility.yul\":4086:4245   */\n    tag_195:\n        /* \"#utility.yul\":4226:4237   */\n      0x546f6f206561726c790000000000000000000000000000000000000000000000\n        /* \"#utility.yul\":4222:4223   */\n      0x00\n        /* \"#utility.yul\":4214:4220   */\n      dup3\n        /* \"#utility.yul\":4210:4224   */\n      add\n        /* \"#utility.yul\":4203:4238   */\n      mstore\n        /* \"#utility.yul\":4086:4245   */\n      pop\n      jump\t// out\n        /* \"#utility.yul\":4251:4616   */\n    tag_196:\n        /* \"#utility.yul\":4393:4396   */\n      0x00\n        /* \"#utility.yul\":4414:4480   */\n      tag_267\n        /* \"#utility.yul\":4478:4479   */\n      0x09\n        /* \"#utility.yul\":4473:4476   */\n      dup4\n        /* \"#utility.yul\":4414:4480   */\n      tag_194\n      jump\t// in\n    tag_267:\n        /* \"#utility.yul\":4407:4480   */\n      swap2\n      pop\n        /* \"#utility.yul\":4489:4582   */\n      tag_268\n        /* \"#utility.yul\":4578:4581   */\n      dup3\n        /* \"#utility.yul\":4489:4582   */\n      tag_195\n      jump\t// in\n    tag_268:\n        /* \"#utility.yul\":4607:4609   */\n      0x20\n        /* \"#utility.yul\":4602:4605   */\n      dup3\n        /* \"#utility.yul\":4598:4610   */\n      add\n        /* \"#utility.yul\":4591:4610   */\n      swap1\n      pop\n        /* \"#utility.yul\":4251:4616   */\n      swap2\n      swap1\n      pop\n      jump\t// out\n        /* \"#utility.yul\":4622:5041   */\n    tag_82:\n        /* \"#utility.yul\":4788:4792   */\n      0x00\n        /* \"#utility.yul\":4826:4828   */\n      0x20\n        /* \"#utility.yul\":4815:4824   */\n      dup3\n        /* \"#utility.yul\":4811:4829   */\n      add\n        /* \"#utility.yul\":4803:4829   */\n      swap1\n      pop\n        /* \"#utility.yul\":4875:4884   */\n      dup2\n        /* \"#utility.yul\":4869:4873   */\n      dup2\n        /* \"#utility.yul\":4865:4885   */\n      sub\n        /* \"#utility.yul\":4861:4862   */\n      0x00\n        /* \"#utility.yul\":4850:4859   */\n      dup4\n        /* \"#utility.yul\":4846:4863   */\n      add\n        /* \"#utility.yul\":4839:4886   */\n      mstore\n        /* \"#utility.yul\":4903:5034   */\n      tag_270\n        /* \"#utility.yul\":5029:5033   */\n      dup2\n        /* \"#utility.yul\":4903:5034   */\n      tag_196\n      jump\t// in\n    tag_270:\n        /* \"#utility.yul\":4895:5034   */\n      swap1\n      pop\n        /* \"#utility.yul\":4622:5041   */\n      swap2\n      swap1\n      pop\n      jump\t// out\n        /* \"#utility.yul\":5047:5212   */\n    tag_197:\n        /* \"#utility.yul\":5187:5204   */\n      0x416c726561647920636c61696d65640000000000000000000000000000000000\n        /* \"#utility.yul\":5183:5184   */\n      0x00\n        /* \"#utility.yul\":5175:5181   */\n      dup3\n        /* \"#utility.yul\":5171:5185   */\n      add\n        /* \"#utility.yul\":5164:5205   */\n      mstore\n        /* \"#utility.yul\":5047:5212   */\n      pop\n      jump\t// out\n        /* \"#utility.yul\":5218:5584   */\n    tag_198:\n        /* \"#utility.yul\":5360:5363   */\n      0x00\n        /* \"#utility.yul\":5381:5448   */\n      tag_273\n        /* \"#utility.yul\":5445:5447   */\n      0x0f\n        /* \"#utility.yul\":5440:5443   */\n      dup4\n        /* \"#utility.yul\":5381:5448   */\n      tag_194\n      jump\t// in\n    tag_273:\n        /* \"#utility.yul\":5374:5448   */\n      swap2\n      pop\n        /* \"#utility.yul\":5457:5550   */\n      tag_274\n        /* \"#utility.yul\":5546:5549   */\n      dup3\n        /* \"#utility.yul\":5457:5550   */\n      tag_197\n      jump\t// in\n    tag_274:\n        /* \"#utility.yul\":5575:5577   */\n      0x20\n        /* \"#utility.yul\":5570:5573   */\n      dup3\n        /* \"#utility.yul\":5566:5578   */\n      add\n        /* \"#utility.yul\":5559:5578   */\n      swap1\n      pop\n        /* \"#utility.yul\":5218:5584   */\n      swap2\n      swap1\n      pop\n      jump\t// out\n        /* \"#utility.yul\":5590:6009   */\n    tag_85:\n        /* \"#utility.yul\":5756:5760   */\n      0x00\n        /* \"#utility.yul\":5794:5796   */\n      0x20\n        /* \"#utility.yul\":5783:5792   */\n      dup3\n        /* \"#utility.yul\":5779:5797   */\n      add\n        /* \"#utility.yul\":5771:5797   */\n      swap1\n      pop\n        /* \"#utility.yul\":5843:5852   */\n      dup2\n        /* \"#utility.yul\":5837:5841   */\n      dup2\n        /* \"#utility.yul\":5833:5853   */\n      sub\n        /* \"#utility.yul\":5829:5830   */\n      0x00\n        /* \"#utility.yul\":5818:5827   */\n      dup4\n        /* \"#utility.yul\":5814:5831   */\n      add\n        /* \"#utility.yul\":5807:5854   */\n      mstore\n        /* \"#utility.yul\":5871:6002   */\n      tag_276\n        /* \"#utility.yul\":5997:6001   */\n      dup2\n        /* \"#utility.yul\":5871:6002   */\n      tag_198\n      jump\t// in\n    tag_276:\n        /* \"#utility.yul\":5863:6002   */\n      swap1\n      pop\n        /* \"#utility.yul\":5590:6009   */\n      swap2\n      swap1\n      pop\n      jump\t// out\n        /* \"#utility.yul\":6015:6173   */\n    tag_199:\n        /* \"#utility.yul\":6155:6165   */\n      0x4e6f207374616b65000000000000000000000000000000000000000000000000\n        /* \"#utility.yul\":6151:6152   */\n      0x00\n        /* \"#utility.yul\":6143:6149   */\n      dup3\n        /* \"#utility.yul\":6139:6153   */\n      add\n        /* \"#utility.yul\":6132:6166   */\n      mstore\n        /* \"#utility.yul\":6015:6173   */\n      pop\n      jump\t// out\n        /* \"#utility.yul\":6179:6544   */\n    tag_200:\n        /* \"#utility.yul\":6321:6324   */\n      0x00\n        /* \"#utility.yul\":6342:6408   */\n      tag_279\n        /* \"#utility.yul\":6406:6407   */\n      0x08\n        /* \"#utility.yul\":6401:6404   */\n      dup4\n        /* \"#utility.yul\":6342:6408   */\n      tag_194\n      jump\t// in\n    tag_279:\n        /* \"#utility.yul\":6335:6408   */\n      swap2\n      pop\n        /* \"#utility.yul\":6417:6510   */\n      tag_280\n        /* \"#utility.yul\":6506:6509   */\n      dup3\n        /* \"#utility.yul\":6417:6510   */\n      tag_199\n      jump\t// in\n    tag_280:\n        /* \"#utility.yul\":6535:6537   */\n      0x20\n        /* \"#utility.yul\":6530:6533   */\n      dup3\n        /* \"#utility.yul\":6526:6538   */\n      add\n        /* \"#utility.yul\":6519:6538   */\n      swap1\n      pop\n        /* \"#utility.yul\":6179:6544   */\n      swap2\n      swap1\n      pop\n      jump\t// out\n        /* \"#utility.yul\":6550:6969   */\n    tag_88:\n        /* \"#utility.yul\":6716:6720   */\n      0x00\n        /* \"#utility.yul\":6754:6756   */\n      0x20\n        /* \"#utility.yul\":6743:6752   */\n      dup3\n        /* \"#utility.yul\":6739:6757   */\n      add\n        /* \"#utility.yul\":6731:6757   */\n      swap1\n      pop\n        /* \"#utility.yul\":6803:6812   */\n      dup2\n        /* \"#utility.yul\":6797:6801   */\n      dup2\n        /* \"#utility.yul\":6793:6813   */\n      sub\n        /* \"#utility.yul\":6789:6790   */\n      0x00\n        /* \"#utility.yul\":6778:6787   */\n      dup4\n        /* \"#utility.yul\":6774:6791   */\n      add\n        /* \"#utility.yul\":6767:6814   */\n      mstore\n        /* \"#utility.yul\":6831:6962   */\n      tag_282\n        /* \"#utility.yul\":6957:6961   */\n      dup2\n        /* \"#utility.yul\":6831:6962   */\n      tag_200\n      jump\t// in\n    tag_282:\n        /* \"#utility.yul\":6823:6962   */\n      swap1\n      pop\n        /* \"#utility.yul\":6550:6969   */\n      swap2\n      swap1\n      pop\n      jump\t// out\n        /* \"#utility.yul\":6975:7155   */\n    tag_201:\n        /* \"#utility.yul\":7023:7100   */\n      0x4e487b7100000000000000000000000000000000000000000000000000000000\n        /* \"#utility.yul\":7020:7021   */\n      0x00\n        /* \"#utility.yul\":7013:7101   */\n      mstore\n        /* \"#utility.yul\":7120:7124   */\n      0x11\n        /* \"#utility.yul\":7117:7118   */\n      0x04\n        /* \"#utility.yul\":7110:7125   */\n      mstore\n        /* \"#utility.yul\":7144:7148   */\n      0x24\n        /* \"#utility.yul\":7141:7142   */\n      0x00\n        /* \"#utility.yul\":7134:7149   */\n      revert\n        /* \"#utility.yul\":7161:7571   */\n    tag_90:\n        /* \"#utility.yul\":7201:7208   */\n      0x00\n        /* \"#utility.yul\":7224:7244   */\n      tag_285\n        /* \"#utility.yul\":7242:7243   */\n      dup3\n        /* \"#utility.yul\":7224:7244   */\n      tag_175\n      jump\t// in\n    tag_285:\n        /* \"#utility.yul\":7219:7244   */\n      swap2\n      pop\n        /* \"#utility.yul\":7258:7278   */\n      tag_286\n        /* \"#utility.yul\":7276:7277   */\n      dup4\n        /* \"#utility.yul\":7258:7278   */\n      tag_175\n      jump\t// in\n    tag_286:\n        /* \"#utility.yul\":7253:7278   */\n      swap3\n      pop\n        /* \"#utility.yul\":7313:7314   */\n      dup3\n        /* \"#utility.yul\":7310:7311   */\n      dup3\n        /* \"#utility.yul\":7306:7315   */\n      mul\n        /* \"#utility.yul\":7335:7365   */\n      tag_287\n        /* \"#utility.yul\":7353:7364   */\n      dup2\n        /* \"#utility.yul\":7335:7365   */\n      tag_175\n      jump\t// in\n    tag_287:\n        /* \"#utility.yul\":7324:7365   */\n      swap2\n      pop\n        /* \"#utility.yul\":7514:7515   */\n      dup3\n        /* \"#utility.yul\":7505:7512   */\n      dup3\n        /* \"#utility.yul\":7501:7516   */\n      div\n        /* \"#utility.yul\":7498:7499   */\n      dup5\n        /* \"#utility.yul\":7495:7517   */\n      eq\n        /* \"#utility.yul\":7475:7476   */\n      dup4\n        /* \"#utility.yul\":7468:7477   */\n      iszero\n        /* \"#utility.yul\":7448:7531   */\n      or\n        /* \"#utility.yul\":7425:7564   */\n      tag_288\n      jumpi\n        /* \"#utility.yul\":7544:7562   */\n      tag_289\n      tag_201\n      jump\t// in\n    tag_289:\n        /* \"#utility.yul\":7425:7564   */\n    tag_288:\n        /* \"#utility.yul\":7209:7571   */\n      pop\n        /* \"#utility.yul\":7161:7571   */\n      swap3\n      swap2\n      pop\n      pop\n      jump\t// out\n        /* \"#utility.yul\":7577:7757   */\n    tag_202:\n        /* \"#utility.yul\":7625:7702   */\n      0x4e487b7100000000000000000000000000000000000000000000000000000000\n        /* \"#utility.yul\":7622:7623   */\n      0x00\n        /* \"#utility.yul\":7615:7703   */\n      mstore\n        /* \"#utility.yul\":7722:7726   */\n      0x12\n        /* \"#utility.yul\":7719:7720   */\n      0x04\n        /* \"#utility.yul\":7712:7727   */\n      mstore\n        /* \"#utility.yul\":7746:7750   */\n      0x24\n        /* \"#utility.yul\":7743:7744   */\n      0x00\n        /* \"#utility.yul\":7736:7751   */\n      revert\n        /* \"#utility.yul\":7763:7948   */\n    tag_92:\n        /* \"#utility.yul\":7803:7804   */\n      0x00\n        /* \"#utility.yul\":7820:7840   */\n      tag_292\n        /* \"#utility.yul\":7838:7839   */\n      dup3\n        /* \"#utility.yul\":7820:7840   */\n      tag_175\n      jump\t// in\n    tag_292:\n        /* \"#utility.yul\":7815:7840   */\n      swap2\n      pop\n        /* \"#utility.yul\":7854:7874   */\n      tag_293\n        /* \"#utility.yul\":7872:7873   */\n      dup4\n        /* \"#utility.yul\":7854:7874   */\n      tag_175\n      jump\t// in\n    tag_293:\n        /* \"#utility.yul\":7849:7874   */\n      swap3\n      pop\n        /* \"#utility.yul\":7893:7894   */\n      dup3\n        /* \"#utility.yul\":7883:7918   */\n      tag_294\n      jumpi\n        /* \"#utility.yul\":7898:7916   */\n      tag_295\n      tag_202\n      jump\t// in\n    tag_295:\n        /* \"#utility.yul\":7883:7918   */\n    tag_294:\n        /* \"#utility.yul\":7940:7941   */\n      dup3\n        /* \"#utility.yul\":7937:7938   */\n      dup3\n        /* \"#utility.yul\":7933:7942   */\n      div\n        /* \"#utility.yul\":7928:7942   */\n      swap1\n      pop\n        /* \"#utility.yul\":7763:7948   */\n      swap3\n      swap2\n      pop\n      pop\n      jump\t// out\n        /* \"#utility.yul\":7954:8286   */\n    tag_94:\n        /* \"#utility.yul\":8075:8079   */\n      0x00\n        /* \"#utility.yul\":8113:8115   */\n      0x40\n        /* \"#utility.yul\":8102:8111   */\n      dup3\n        /* \"#utility.yul\":8098:8116   */\n      add\n        /* \"#utility.yul\":8090:8116   */\n      swap1\n      pop\n        /* \"#utility.yul\":8126:8197   */\n      tag_297\n        /* \"#utility.yul\":8194:8195   */\n      0x00\n        /* \"#utility.yul\":8183:8192   */\n      dup4\n        /* \"#utility.yul\":8179:8196   */\n      add\n        /* \"#utility.yul\":8170:8176   */\n      dup6\n        /* \"#utility.yul\":8126:8197   */\n      tag_191\n      jump\t// in\n    tag_297:\n        /* \"#utility.yul\":8207:8279   */\n      tag_298\n        /* \"#utility.yul\":8275:8277   */\n      0x20\n        /* \"#utility.yul\":8264:8273   */\n      dup4\n        /* \"#utility.yul\":8260:8278   */\n      add\n        /* \"#utility.yul\":8251:8257   */\n      dup5\n        /* \"#utility.yul\":8207:8279   */\n      tag_176\n      jump\t// in\n    tag_298:\n        /* \"#utility.yul\":7954:8286   */\n      swap4\n      swap3\n      pop\n      pop\n      pop\n      jump\t// out\n        /* \"#utility.yul\":8292:8408   */\n    tag_203:\n        /* \"#utility.yul\":8362:8383   */\n      tag_300\n        /* \"#utility.yul\":8377:8382   */\n      dup2\n        /* \"#utility.yul\":8362:8383   */\n      tag_189\n      jump\t// in\n    tag_300:\n        /* \"#utility.yul\":8355:8360   */\n      dup2\n        /* \"#utility.yul\":8352:8384   */\n      eq\n        /* \"#utility.yul\":8342:8402   */\n      tag_301\n      jumpi\n        /* \"#utility.yul\":8398:8399   */\n      0x00\n        /* \"#utility.yul\":8395:8396   */\n      0x00\n        /* \"#utility.yul\":8388:8400   */\n      revert\n        /* \"#utility.yul\":8342:8402   */\n    tag_301:\n        /* \"#utility.yul\":8292:8408   */\n      pop\n      jump\t// out\n        /* \"#utility.yul\":8414:8551   */\n    tag_204:\n        /* \"#utility.yul\":8468:8473   */\n      0x00\n        /* \"#utility.yul\":8499:8505   */\n      dup2\n        /* \"#utility.yul\":8493:8506   */\n      mload\n        /* \"#utility.yul\":8484:8506   */\n      swap1\n      pop\n        /* \"#utility.yul\":8515:8545   */\n      tag_303\n        /* \"#utility.yul\":8539:8544   */\n      dup2\n        /* \"#utility.yul\":8515:8545   */\n      tag_203\n      jump\t// in\n    tag_303:\n        /* \"#utility.yul\":8414:8551   */\n      swap3\n      swap2\n      pop\n      pop\n      jump\t// out\n        /* \"#utility.yul\":8557:8902   */\n    tag_98:\n        /* \"#utility.yul\":8624:8630   */\n      0x00\n        /* \"#utility.yul\":8673:8675   */\n      0x20\n        /* \"#utility.yul\":8661:8670   */\n      dup3\n        /* \"#utility.yul\":8652:8659   */\n      dup5\n        /* \"#utility.yul\":8648:8671   */\n      sub\n        /* \"#utility.yul\":8644:8676   */\n      slt\n        /* \"#utility.yul\":8641:8760   */\n      iszero\n      tag_305\n      jumpi\n        /* \"#utility.yul\":8679:8758   */\n      tag_306\n      tag_184\n      jump\t// in\n    tag_306:\n        /* \"#utility.yul\":8641:8760   */\n    tag_305:\n        /* \"#utility.yul\":8799:8800   */\n      0x00\n        /* \"#utility.yul\":8824:8885   */\n      tag_307\n        /* \"#utility.yul\":8877:8884   */\n      dup5\n        /* \"#utility.yul\":8868:8874   */\n      dup3\n        /* \"#utility.yul\":8857:8866   */\n      dup6\n        /* \"#utility.yul\":8853:8875   */\n      add\n        /* \"#utility.yul\":8824:8885   */\n      tag_204\n      jump\t// in\n    tag_307:\n        /* \"#utility.yul\":8814:8885   */\n      swap2\n      pop\n        /* \"#utility.yul\":8770:8895   */\n      pop\n        /* \"#utility.yul\":8557:8902   */\n      swap3\n      swap2\n      pop\n      pop\n      jump\t// out\n        /* \"#utility.yul\":8908:9073   */\n    tag_205:\n        /* \"#utility.yul\":9048:9065   */\n      0x4e6f7420616c6c6f776564207965740000000000000000000000000000000000\n        /* \"#utility.yul\":9044:9045   */\n      0x00\n        /* \"#utility.yul\":9036:9042   */\n      dup3\n        /* \"#utility.yul\":9032:9046   */\n      add\n        /* \"#utility.yul\":9025:9066   */\n      mstore\n        /* \"#utility.yul\":8908:9073   */\n      pop\n      jump\t// out\n        /* \"#utility.yul\":9079:9445   */\n    tag_206:\n        /* \"#utility.yul\":9221:9224   */\n      0x00\n        /* \"#utility.yul\":9242:9309   */\n      tag_310\n        /* \"#utility.yul\":9306:9308   */\n      0x0f\n        /* \"#utility.yul\":9301:9304   */\n      dup4\n        /* \"#utility.yul\":9242:9309   */\n      tag_194\n      jump\t// in\n    tag_310:\n        /* \"#utility.yul\":9235:9309   */\n      swap2\n      pop\n        /* \"#utility.yul\":9318:9411   */\n      tag_311\n        /* \"#utility.yul\":9407:9410   */\n      dup3\n        /* \"#utility.yul\":9318:9411   */\n      tag_205\n      jump\t// in\n    tag_311:\n        /* \"#utility.yul\":9436:9438   */\n      0x20\n        /* \"#utility.yul\":9431:9434   */\n      dup3\n        /* \"#utility.yul\":9427:9439   */\n      add\n        /* \"#utility.yul\":9420:9439   */\n      swap1\n      pop\n        /* \"#utility.yul\":9079:9445   */\n      swap2\n      swap1\n      pop\n      jump\t// out\n        /* \"#utility.yul\":9451:9870   */\n    tag_109:\n        /* \"#utility.yul\":9617:9621   */\n      0x00\n        /* \"#utility.yul\":9655:9657   */\n      0x20\n        /* \"#utility.yul\":9644:9653   */\n      dup3\n        /* \"#utility.yul\":9640:9658   */\n      add\n        /* \"#utility.yul\":9632:9658   */\n      swap1\n      pop\n        /* \"#utility.yul\":9704:9713   */\n      dup2\n        /* \"#utility.yul\":9698:9702   */\n      dup2\n        /* \"#utility.yul\":9694:9714   */\n      sub\n        /* \"#utility.yul\":9690:9691   */\n      0x00\n        /* \"#utility.yul\":9679:9688   */\n      dup4\n        /* \"#utility.yul\":9675:9692   */\n      add\n        /* \"#utility.yul\":9668:9715   */\n      mstore\n        /* \"#utility.yul\":9732:9863   */\n      tag_313\n        /* \"#utility.yul\":9858:9862   */\n      dup2\n        /* \"#utility.yul\":9732:9863   */\n      tag_206\n      jump\t// in\n    tag_313:\n        /* \"#utility.yul\":9724:9863   */\n      swap1\n      pop\n        /* \"#utility.yul\":9451:9870   */\n      swap2\n      swap1\n      pop\n      jump\t// out\n        /* \"#utility.yul\":9876:10019   */\n    tag_207:\n        /* \"#utility.yul\":9933:9938   */\n      0x00\n        /* \"#utility.yul\":9964:9970   */\n      dup2\n        /* \"#utility.yul\":9958:9971   */\n      mload\n        /* \"#utility.yul\":9949:9971   */\n      swap1\n      pop\n        /* \"#utility.yul\":9980:10013   */\n      tag_315\n        /* \"#utility.yul\":10007:10012   */\n      dup2\n        /* \"#utility.yul\":9980:10013   */\n      tag_192\n      jump\t// in\n    tag_315:\n        /* \"#utility.yul\":9876:10019   */\n      swap3\n      swap2\n      pop\n      pop\n      jump\t// out\n        /* \"#utility.yul\":10025:10376   */\n    tag_125:\n        /* \"#utility.yul\":10095:10101   */\n      0x00\n        /* \"#utility.yul\":10144:10146   */\n      0x20\n        /* \"#utility.yul\":10132:10141   */\n      dup3\n        /* \"#utility.yul\":10123:10130   */\n      dup5\n        /* \"#utility.yul\":10119:10142   */\n      sub\n        /* \"#utility.yul\":10115:10147   */\n      slt\n        /* \"#utility.yul\":10112:10231   */\n      iszero\n      tag_317\n      jumpi\n        /* \"#utility.yul\":10150:10229   */\n      tag_318\n      tag_184\n      jump\t// in\n    tag_318:\n        /* \"#utility.yul\":10112:10231   */\n    tag_317:\n        /* \"#utility.yul\":10270:10271   */\n      0x00\n        /* \"#utility.yul\":10295:10359   */\n      tag_319\n        /* \"#utility.yul\":10351:10358   */\n      dup5\n        /* \"#utility.yul\":10342:10348   */\n      dup3\n        /* \"#utility.yul\":10331:10340   */\n      dup6\n        /* \"#utility.yul\":10327:10349   */\n      add\n        /* \"#utility.yul\":10295:10359   */\n      tag_207\n      jump\t// in\n    tag_319:\n        /* \"#utility.yul\":10285:10359   */\n      swap2\n      pop\n        /* \"#utility.yul\":10241:10369   */\n      pop\n        /* \"#utility.yul\":10025:10376   */\n      swap3\n      swap2\n      pop\n      pop\n      jump\t// out\n        /* \"#utility.yul\":10382:10542   */\n    tag_208:\n        /* \"#utility.yul\":10522:10534   */\n      0x4e6f742061637469766500000000000000000000000000000000000000000000\n        /* \"#utility.yul\":10518:10519   */\n      0x00\n        /* \"#utility.yul\":10510:10516   */\n      dup3\n        /* \"#utility.yul\":10506:10520   */\n      add\n        /* \"#utility.yul\":10499:10535   */\n      mstore\n        /* \"#utility.yul\":10382:10542   */\n      pop\n      jump\t// out\n        /* \"#utility.yul\":10548:10914   */\n    tag_209:\n        /* \"#utility.yul\":10690:10693   */\n      0x00\n        /* \"#utility.yul\":10711:10778   */\n      tag_322\n        /* \"#utility.yul\":10775:10777   */\n      0x0a\n        /* \"#utility.yul\":10770:10773   */\n      dup4\n        /* \"#utility.yul\":10711:10778   */\n      tag_194\n      jump\t// in\n    tag_322:\n        /* \"#utility.yul\":10704:10778   */\n      swap2\n      pop\n        /* \"#utility.yul\":10787:10880   */\n      tag_323\n        /* \"#utility.yul\":10876:10879   */\n      dup3\n        /* \"#utility.yul\":10787:10880   */\n      tag_208\n      jump\t// in\n    tag_323:\n        /* \"#utility.yul\":10905:10907   */\n      0x20\n        /* \"#utility.yul\":10900:10903   */\n      dup3\n        /* \"#utility.yul\":10896:10908   */\n      add\n        /* \"#utility.yul\":10889:10908   */\n      swap1\n      pop\n        /* \"#utility.yul\":10548:10914   */\n      swap2\n      swap1\n      pop\n      jump\t// out\n        /* \"#utility.yul\":10920:11339   */\n    tag_134:\n        /* \"#utility.yul\":11086:11090   */\n      0x00\n        /* \"#utility.yul\":11124:11126   */\n      0x20\n        /* \"#utility.yul\":11113:11122   */\n      dup3\n        /* \"#utility.yul\":11109:11127   */\n      add\n        /* \"#utility.yul\":11101:11127   */\n      swap1\n      pop\n        /* \"#utility.yul\":11173:11182   */\n      dup2\n        /* \"#utility.yul\":11167:11171   */\n      dup2\n        /* \"#utility.yul\":11163:11183   */\n      sub\n        /* \"#utility.yul\":11159:11160   */\n      0x00\n        /* \"#utility.yul\":11148:11157   */\n      dup4\n        /* \"#utility.yul\":11144:11161   */\n      add\n        /* \"#utility.yul\":11137:11184   */\n      mstore\n        /* \"#utility.yul\":11201:11332   */\n      tag_325\n        /* \"#utility.yul\":11327:11331   */\n      dup2\n        /* \"#utility.yul\":11201:11332   */\n      tag_209\n      jump\t// in\n    tag_325:\n        /* \"#utility.yul\":11193:11332   */\n      swap1\n      pop\n        /* \"#utility.yul\":10920:11339   */\n      swap2\n      swap1\n      pop\n      jump\t// out\n        /* \"#utility.yul\":11345:11506   */\n    tag_210:\n        /* \"#utility.yul\":11485:11498   */\n      0x5a65726f20616d6f756e74000000000000000000000000000000000000000000\n        /* \"#utility.yul\":11481:11482   */\n      0x00\n        /* \"#utility.yul\":11473:11479   */\n      dup3\n        /* \"#utility.yul\":11469:11483   */\n      add\n        /* \"#utility.yul\":11462:11499   */\n      mstore\n        /* \"#utility.yul\":11345:11506   */\n      pop\n      jump\t// out\n        /* \"#utility.yul\":11512:11878   */\n    tag_211:\n        /* \"#utility.yul\":11654:11657   */\n      0x00\n        /* \"#utility.yul\":11675:11742   */\n      tag_328\n        /* \"#utility.yul\":11739:11741   */\n      0x0b\n        /* \"#utility.yul\":11734:11737   */\n      dup4\n        /* \"#utility.yul\":11675:11742   */\n      tag_194\n      jump\t// in\n    tag_328:\n        /* \"#utility.yul\":11668:11742   */\n      swap2\n      pop\n        /* \"#utility.yul\":11751:11844   */\n      tag_329\n        /* \"#utility.yul\":11840:11843   */\n      dup3\n        /* \"#utility.yul\":11751:11844   */\n      tag_210\n      jump\t// in\n    tag_329:\n        /* \"#utility.yul\":11869:11871   */\n      0x20\n        /* \"#utility.yul\":11864:11867   */\n      dup3\n        /* \"#utility.yul\":11860:11872   */\n      add\n        /* \"#utility.yul\":11853:11872   */\n      swap1\n      pop\n        /* \"#utility.yul\":11512:11878   */\n      swap2\n      swap1\n      pop\n      jump\t// out\n        /* \"#utility.yul\":11884:12303   */\n    tag_137:\n        /* \"#utility.yul\":12050:12054   */\n      0x00\n        /* \"#utility.yul\":12088:12090   */\n      0x20\n        /* \"#utility.yul\":12077:12086   */\n      dup3\n        /* \"#utility.yul\":12073:12091   */\n      add\n        /* \"#utility.yul\":12065:12091   */\n      swap1\n      pop\n        /* \"#utility.yul\":12137:12146   */\n      dup2\n        /* \"#utility.yul\":12131:12135   */\n      dup2\n        /* \"#utility.yul\":12127:12147   */\n      sub\n        /* \"#utility.yul\":12123:12124   */\n      0x00\n        /* \"#utility.yul\":12112:12121   */\n      dup4\n        /* \"#utility.yul\":12108:12125   */\n      add\n        /* \"#utility.yul\":12101:12148   */\n      mstore\n        /* \"#utility.yul\":12165:12296   */\n      tag_331\n        /* \"#utility.yul\":12291:12295   */\n      dup2\n        /* \"#utility.yul\":12165:12296   */\n      tag_211\n      jump\t// in\n    tag_331:\n        /* \"#utility.yul\":12157:12296   */\n      swap1\n      pop\n        /* \"#utility.yul\":11884:12303   */\n      swap2\n      swap1\n      pop\n      jump\t// out\n        /* \"#utility.yul\":12309:12751   */\n    tag_139:\n        /* \"#utility.yul\":12458:12462   */\n      0x00\n        /* \"#utility.yul\":12496:12498   */\n      0x60\n        /* \"#utility.yul\":12485:12494   */\n      dup3\n        /* \"#utility.yul\":12481:12499   */\n      add\n        /* \"#utility.yul\":12473:12499   */\n      swap1\n      pop\n        /* \"#utility.yul\":12509:12580   */\n      tag_333\n        /* \"#utility.yul\":12577:12578   */\n      0x00\n        /* \"#utility.yul\":12566:12575   */\n      dup4\n        /* \"#utility.yul\":12562:12579   */\n      add\n        /* \"#utility.yul\":12553:12559   */\n      dup7\n        /* \"#utility.yul\":12509:12580   */\n      tag_191\n      jump\t// in\n    tag_333:\n        /* \"#utility.yul\":12590:12662   */\n      tag_334\n        /* \"#utility.yul\":12658:12660   */\n      0x20\n        /* \"#utility.yul\":12647:12656   */\n      dup4\n        /* \"#utility.yul\":12643:12661   */\n      add\n        /* \"#utility.yul\":12634:12640   */\n      dup6\n        /* \"#utility.yul\":12590:12662   */\n      tag_191\n      jump\t// in\n    tag_334:\n        /* \"#utility.yul\":12672:12744   */\n      tag_335\n        /* \"#utility.yul\":12740:12742   */\n      0x40\n        /* \"#utility.yul\":12729:12738   */\n      dup4\n        /* \"#utility.yul\":12725:12743   */\n      add\n        /* \"#utility.yul\":12716:12722   */\n      dup5\n        /* \"#utility.yul\":12672:12744   */\n      tag_176\n      jump\t// in\n    tag_335:\n        /* \"#utility.yul\":12309:12751   */\n      swap5\n      swap4\n      pop\n      pop\n      pop\n      pop\n      jump\t// out\n        /* \"#utility.yul\":12757:12948   */\n    tag_144:\n        /* \"#utility.yul\":12797:12800   */\n      0x00\n        /* \"#utility.yul\":12816:12836   */\n      tag_337\n        /* \"#utility.yul\":12834:12835   */\n      dup3\n        /* \"#utility.yul\":12816:12836   */\n      tag_175\n      jump\t// in\n    tag_337:\n        /* \"#utility.yul\":12811:12836   */\n      swap2\n      pop\n        /* \"#utility.yul\":12850:12870   */\n      tag_338\n        /* \"#utility.yul\":12868:12869   */\n      dup4\n        /* \"#utility.yul\":12850:12870   */\n      tag_175\n      jump\t// in\n    tag_338:\n        /* \"#utility.yul\":12845:12870   */\n      swap3\n      pop\n        /* \"#utility.yul\":12893:12894   */\n      dup3\n        /* \"#utility.yul\":12890:12891   */\n      dup3\n        /* \"#utility.yul\":12886:12895   */\n      add\n        /* \"#utility.yul\":12879:12895   */\n      swap1\n      pop\n        /* \"#utility.yul\":12914:12917   */\n      dup1\n        /* \"#utility.yul\":12911:12912   */\n      dup3\n        /* \"#utility.yul\":12908:12918   */\n      gt\n        /* \"#utility.yul\":12905:12941   */\n      iszero\n      tag_339\n      jumpi\n        /* \"#utility.yul\":12921:12939   */\n      tag_340\n      tag_201\n      jump\t// in\n    tag_340:\n        /* \"#utility.yul\":12905:12941   */\n    tag_339:\n        /* \"#utility.yul\":12757:12948   */\n      swap3\n      swap2\n      pop\n      pop\n      jump\t// out\n\n    auxdata: 0xa264697066735822122004dfe8cf64b7848e07e8cc6b7c3e6fb7b3d7a0188e158e17ba1f7cc8984e673d64736f6c634300081d0033\n}\n",
				"bytecode": {
					"linkReferences": {},
					"object": "608060405234801561000f575f5ffd5b50604051611991380380611991833981810160405281019061003191906102e5565b335f73ffffffffffffffffffffffffffffffffffffffff168173ffffffffffffffffffffffffffffffffffffffff16036100a2575f6040517f1e4fbdf7000000000000000000000000000000000000000000000000000000008152600401610099919061036b565b60405180910390fd5b6100b18161019360201b60201c565b508082106100f4576040517f08c379a00000000000000000000000000000000000000000000000000000000081526004016100eb906103de565b60405180910390fd5b8460015f6101000a81548173ffffffffffffffffffffffffffffffffffffffff021916908373ffffffffffffffffffffffffffffffffffffffff1602179055508360025f6101000a81548173ffffffffffffffffffffffffffffffffffffffff021916908373ffffffffffffffffffffffffffffffffffffffff16021790555082600581905550816003819055508060048190555050505050506103fc565b5f5f5f9054906101000a900473ffffffffffffffffffffffffffffffffffffffff169050815f5f6101000a81548173ffffffffffffffffffffffffffffffffffffffff021916908373ffffffffffffffffffffffffffffffffffffffff1602179055508173ffffffffffffffffffffffffffffffffffffffff168173ffffffffffffffffffffffffffffffffffffffff167f8be0079c531659141344cd1fd0a4f28419497f9722a3daafe3b4186f6b6457e060405160405180910390a35050565b5f5ffd5b5f73ffffffffffffffffffffffffffffffffffffffff82169050919050565b5f61028182610258565b9050919050565b61029181610277565b811461029b575f5ffd5b50565b5f815190506102ac81610288565b92915050565b5f819050919050565b6102c4816102b2565b81146102ce575f5ffd5b50565b5f815190506102df816102bb565b92915050565b5f5f5f5f5f60a086880312156102fe576102fd610254565b5b5f61030b8882890161029e565b955050602061031c8882890161029e565b945050604061032d888289016102d1565b935050606061033e888289016102d1565b925050608061034f888289016102d1565b9150509295509295909350565b61036581610277565b82525050565b5f60208201905061037e5f83018461035c565b92915050565b5f82825260208201905092915050565b7f496e76616c69642074696d65206672616d6500000000000000000000000000005f82015250565b5f6103c8601283610384565b91506103d382610394565b602082019050919050565b5f6020820190508181035f8301526103f5816103bc565b9050919050565b611588806104095f395ff3fe608060405234801561000f575f5ffd5b5060043610610109575f3560e01c8063817b1cd2116100a0578063b78136071161006f578063b781360714610259578063e09f4df014610277578063e1af9a9514610293578063e834a834146102b1578063f2fde38b146102cf57610109565b8063817b1cd2146101e55780638da5cb5b146102035780639cc6424d14610221578063b6b55f251461023d57610109565b8063715018a6116100dc578063715018a61461018357806373b2e80e1461018d57806378417398146101bd57806378e97925146101c757610109565b80633197cbb61461010d5780634e71d92d1461012b5780635fcbd2851461013557806368e5585d14610153575b5f5ffd5b6101156102eb565b6040516101229190610f1e565b60405180910390f35b6101336102f1565b005b61013d6105a4565b60405161014a9190610fb1565b60405180910390f35b61016d60048036038101906101689190611009565b6105c9565b60405161017a9190610f1e565b60405180910390f35b61018b6105de565b005b6101a760048036038101906101a29190611009565b6105f1565b6040516101b4919061104e565b60405180910390f35b6101c561060e565b005b6101cf610805565b6040516101dc9190610f1e565b60405180910390f35b6101ed61080b565b6040516101fa9190610f1e565b60405180910390f35b61020b610811565b6040516102189190611076565b60405180910390f35b61023b60048036038101906102369190611009565b610838565b005b610257600480360381019061025291906110b9565b61097d565b005b610261610b6d565b60405161026e9190610fb1565b60405180910390f35b610291600480360381019061028c9190611009565b610b92565b005b61029b610d1b565b6040516102a89190610f1e565b60405180910390f35b6102b9610d21565b6040516102c6919061104e565b60405180910390f35b6102e960048036038101906102e49190611009565b610d33565b005b60045481565b6004544211610335576040517f08c379a000000000000000000000000000000000000000000000000000000000815260040161032c9061113e565b60405180910390fd5b60095f3373ffffffffffffffffffffffffffffffffffffffff1673ffffffffffffffffffffffffffffffffffffffff1681526020019081526020015f205f9054906101000a900460ff16156103bf576040517f08c379a00000000000000000000000000000000000000000000000000000000081526004016103b6906111a6565b60405180910390fd5b5f60085f3373ffffffffffffffffffffffffffffffffffffffff1673ffffffffffffffffffffffffffffffffffffffff1681526020019081526020015f205490505f8111610442576040517f08c379a00000000000000000000000000000000000000000000000000000000081526004016104399061120e565b60405180910390fd5b5f600654600554836104549190611259565b61045e91906112c7565b9050600160095f3373ffffffffffffffffffffffffffffffffffffffff1673ffffffffffffffffffffffffffffffffffffffff1681526020019081526020015f205f6101000a81548160ff02191690831515021790555060025f9054906101000a900473ffffffffffffffffffffffffffffffffffffffff1673ffffffffffffffffffffffffffffffffffffffff1663a9059cbb33836040518363ffffffff1660e01b81526004016105119291906112f7565b6020604051808303815f875af115801561052d573d5f5f3e3d5ffd5b505050506040513d601f19601f820116820180604052508101906105519190611348565b503373ffffffffffffffffffffffffffffffffffffffff167f896e034966eaaf1adc54acc0f257056febbd300c9e47182cf761982cf1f5e430826040516105989190610f1e565b60405180910390a25050565b60015f9054906101000a900473ffffffffffffffffffffffffffffffffffffffff1681565b6008602052805f5260405f205f915090505481565b6105e6610db7565b6105ef5f610e3e565b565b6009602052805f5260405f205f915054906101000a900460ff1681565b6004544211610652576040517f08c379a0000000000000000000000000000000000000000000000000000000008152600401610649906113bd565b60405180910390fd5b5f60085f3373ffffffffffffffffffffffffffffffffffffffff1673ffffffffffffffffffffffffffffffffffffffff1681526020019081526020015f205490505f81116106d5576040517f08c379a00000000000000000000000000000000000000000000000000000000081526004016106cc9061120e565b60405180910390fd5b5f60085f3373ffffffffffffffffffffffffffffffffffffffff1673ffffffffffffffffffffffffffffffffffffffff1681526020019081526020015f208190555060015f9054906101000a900473ffffffffffffffffffffffffffffffffffffffff1673ffffffffffffffffffffffffffffffffffffffff1663a9059cbb33836040518363ffffffff1660e01b81526004016107739291906112f7565b6020604051808303815f875af115801561078f573d5f5f3e3d5ffd5b505050506040513d601f19601f820116820180604052508101906107b39190611348565b503373ffffffffffffffffffffffffffffffffffffffff167f7084f5476618d8e60b11ef0d7d3f06914655adb8793e28ff7f018d4c76d505d5826040516107fa9190610f1e565b60405180910390a250565b60035481565b60065481565b5f5f5f9054906101000a900473ffffffffffffffffffffffffffffffffffffffff16905090565b610840610db7565b5f60015f9054906101000a900473ffffffffffffffffffffffffffffffffffffffff1673ffffffffffffffffffffffffffffffffffffffff166370a08231306040518263ffffffff1660e01b815260040161089b9190611076565b602060405180830381865afa1580156108b6573d5f5f3e3d5ffd5b505050506040513d601f19601f820116820180604052508101906108da91906113ef565b905060015f9054906101000a900473ffffffffffffffffffffffffffffffffffffffff1673ffffffffffffffffffffffffffffffffffffffff1663a9059cbb83836040518363ffffffff1660e01b81526004016109389291906112f7565b6020604051808303815f875af1158015610954573d5f5f3e3d5ffd5b505050506040513d601f19601f820116820180604052508101906109789190611348565b505050565b600354421015801561099157506004544211155b6109d0576040517f08c379a00000000000000000000000000000000000000000000000000000000081526004016109c790611464565b60405180910390fd5b5f8111610a12576040517f08c379a0000000000000000000000000000000000000000000000000000000008152600401610a09906114cc565b60405180910390fd5b60015f9054906101000a900473ffffffffffffffffffffffffffffffffffffffff1673ffffffffffffffffffffffffffffffffffffffff166323b872dd3330846040518463ffffffff1660e01b8152600401610a70939291906114ea565b6020604051808303815f875af1158015610a8c573d5f5f3e3d5ffd5b505050506040513d601f19601f82011682018060405250810190610ab09190611348565b508060085f3373ffffffffffffffffffffffffffffffffffffffff1673ffffffffffffffffffffffffffffffffffffffff1681526020019081526020015f205f828254610afd919061151f565b925050819055508060065f828254610b15919061151f565b925050819055503373ffffffffffffffffffffffffffffffffffffffff167f2da466a7b24304f47e87fa2e1e5a81b9831ce54fec19055ce277ca2f39ba42c482604051610b629190610f1e565b60405180910390a250565b60025f9054906101000a900473ffffffffffffffffffffffffffffffffffffffff1681565b610b9a610db7565b6004544211610bde576040517f08c379a0000000000000000000000000000000000000000000000000000000008152600401610bd59061113e565b60405180910390fd5b5f60025f9054906101000a900473ffffffffffffffffffffffffffffffffffffffff1673ffffffffffffffffffffffffffffffffffffffff166370a08231306040518263ffffffff1660e01b8152600401610c399190611076565b602060405180830381865afa158015610c54573d5f5f3e3d5ffd5b505050506040513d601f19601f82011682018060405250810190610c7891906113ef565b905060025f9054906101000a900473ffffffffffffffffffffffffffffffffffffffff1673ffffffffffffffffffffffffffffffffffffffff1663a9059cbb83836040518363ffffffff1660e01b8152600401610cd69291906112f7565b6020604051808303815f875af1158015610cf2573d5f5f3e3d5ffd5b505050506040513d601f19601f82011682018060405250810190610d169190611348565b505050565b60055481565b60075f9054906101000a900460ff1681565b610d3b610db7565b5f73ffffffffffffffffffffffffffffffffffffffff168173ffffffffffffffffffffffffffffffffffffffff1603610dab575f6040517f1e4fbdf7000000000000000000000000000000000000000000000000000000008152600401610da29190611076565b60405180910390fd5b610db481610e3e565b50565b610dbf610eff565b73ffffffffffffffffffffffffffffffffffffffff16610ddd610811565b73ffffffffffffffffffffffffffffffffffffffff1614610e3c57610e00610eff565b6040517f118cdaa7000000000000000000000000000000000000000000000000000000008152600401610e339190611076565b60405180910390fd5b565b5f5f5f9054906101000a900473ffffffffffffffffffffffffffffffffffffffff169050815f5f6101000a81548173ffffffffffffffffffffffffffffffffffffffff021916908373ffffffffffffffffffffffffffffffffffffffff1602179055508173ffffffffffffffffffffffffffffffffffffffff168173ffffffffffffffffffffffffffffffffffffffff167f8be0079c531659141344cd1fd0a4f28419497f9722a3daafe3b4186f6b6457e060405160405180910390a35050565b5f33905090565b5f819050919050565b610f1881610f06565b82525050565b5f602082019050610f315f830184610f0f565b92915050565b5f73ffffffffffffffffffffffffffffffffffffffff82169050919050565b5f819050919050565b5f610f79610f74610f6f84610f37565b610f56565b610f37565b9050919050565b5f610f8a82610f5f565b9050919050565b5f610f9b82610f80565b9050919050565b610fab81610f91565b82525050565b5f602082019050610fc45f830184610fa2565b92915050565b5f5ffd5b5f610fd882610f37565b9050919050565b610fe881610fce565b8114610ff2575f5ffd5b50565b5f8135905061100381610fdf565b92915050565b5f6020828403121561101e5761101d610fca565b5b5f61102b84828501610ff5565b91505092915050565b5f8115159050919050565b61104881611034565b82525050565b5f6020820190506110615f83018461103f565b92915050565b61107081610fce565b82525050565b5f6020820190506110895f830184611067565b92915050565b61109881610f06565b81146110a2575f5ffd5b50565b5f813590506110b38161108f565b92915050565b5f602082840312156110ce576110cd610fca565b5b5f6110db848285016110a5565b91505092915050565b5f82825260208201905092915050565b7f546f6f206561726c7900000000000000000000000000000000000000000000005f82015250565b5f6111286009836110e4565b9150611133826110f4565b602082019050919050565b5f6020820190508181035f8301526111558161111c565b9050919050565b7f416c726561647920636c61696d656400000000000000000000000000000000005f82015250565b5f611190600f836110e4565b915061119b8261115c565b602082019050919050565b5f6020820190508181035f8301526111bd81611184565b9050919050565b7f4e6f207374616b650000000000000000000000000000000000000000000000005f82015250565b5f6111f86008836110e4565b9150611203826111c4565b602082019050919050565b5f6020820190508181035f830152611225816111ec565b9050919050565b7f4e487b71000000000000000000000000000000000000000000000000000000005f52601160045260245ffd5b5f61126382610f06565b915061126e83610f06565b925082820261127c81610f06565b915082820484148315176112935761129261122c565b5b5092915050565b7f4e487b71000000000000000000000000000000000000000000000000000000005f52601260045260245ffd5b5f6112d182610f06565b91506112dc83610f06565b9250826112ec576112eb61129a565b5b828204905092915050565b5f60408201905061130a5f830185611067565b6113176020830184610f0f565b9392505050565b61132781611034565b8114611331575f5ffd5b50565b5f815190506113428161131e565b92915050565b5f6020828403121561135d5761135c610fca565b5b5f61136a84828501611334565b91505092915050565b7f4e6f7420616c6c6f7765642079657400000000000000000000000000000000005f82015250565b5f6113a7600f836110e4565b91506113b282611373565b602082019050919050565b5f6020820190508181035f8301526113d48161139b565b9050919050565b5f815190506113e98161108f565b92915050565b5f6020828403121561140457611403610fca565b5b5f611411848285016113db565b91505092915050565b7f4e6f7420616374697665000000000000000000000000000000000000000000005f82015250565b5f61144e600a836110e4565b91506114598261141a565b602082019050919050565b5f6020820190508181035f83015261147b81611442565b9050919050565b7f5a65726f20616d6f756e740000000000000000000000000000000000000000005f82015250565b5f6114b6600b836110e4565b91506114c182611482565b602082019050919050565b5f6020820190508181035f8301526114e3816114aa565b9050919050565b5f6060820190506114fd5f830186611067565b61150a6020830185611067565b6115176040830184610f0f565b949350505050565b5f61152982610f06565b915061153483610f06565b925082820190508082111561154c5761154b61122c565b5b9291505056fea264697066735822122004dfe8cf64b7848e07e8cc6b7c3e6fb7b3d7a0188e158e17ba1f7cc8984e673d64736f6c634300081d0033",
					"opcodes": "PUSH1 0x80 PUSH1 0x40 MSTORE CALLVALUE DUP1 ISZERO PUSH2 0xF JUMPI PUSH0 PUSH0 REVERT JUMPDEST POP PUSH1 0x40 MLOAD PUSH2 0x1991 CODESIZE SUB DUP1 PUSH2 0x1991 DUP4 CODECOPY DUP2 DUP2 ADD PUSH1 0x40 MSTORE DUP2 ADD SWAP1 PUSH2 0x31 SWAP2 SWAP1 PUSH2 0x2E5 JUMP JUMPDEST CALLER PUSH0 PUSH20 0xFFFFFFFFFFFFFFFFFFFFFFFFFFFFFFFFFFFFFFFF AND DUP2 PUSH20 0xFFFFFFFFFFFFFFFFFFFFFFFFFFFFFFFFFFFFFFFF AND SUB PUSH2 0xA2 JUMPI PUSH0 PUSH1 0x40 MLOAD PUSH32 0x1E4FBDF700000000000000000000000000000000000000000000000000000000 DUP2 MSTORE PUSH1 0x4 ADD PUSH2 0x99 SWAP2 SWAP1 PUSH2 0x36B JUMP JUMPDEST PUSH1 0x40 MLOAD DUP1 SWAP2 SUB SWAP1 REVERT JUMPDEST PUSH2 0xB1 DUP2 PUSH2 0x193 PUSH1 0x20 SHL PUSH1 0x20 SHR JUMP JUMPDEST POP DUP1 DUP3 LT PUSH2 0xF4 JUMPI PUSH1 0x40 MLOAD PUSH32 0x8C379A000000000000000000000000000000000000000000000000000000000 DUP2 MSTORE PUSH1 0x4 ADD PUSH2 0xEB SWAP1 PUSH2 0x3DE JUMP JUMPDEST PUSH1 0x40 MLOAD DUP1 SWAP2 SUB SWAP1 REVERT JUMPDEST DUP5 PUSH1 0x1 PUSH0 PUSH2 0x100 EXP DUP2 SLOAD DUP2 PUSH20 0xFFFFFFFFFFFFFFFFFFFFFFFFFFFFFFFFFFFFFFFF MUL NOT AND SWAP1 DUP4 PUSH20 0xFFFFFFFFFFFFFFFFFFFFFFFFFFFFFFFFFFFFFFFF AND MUL OR SWAP1 SSTORE POP DUP4 PUSH1 0x2 PUSH0 PUSH2 0x100 EXP DUP2 SLOAD DUP2 PUSH20 0xFFFFFFFFFFFFFFFFFFFFFFFFFFFFFFFFFFFFFFFF MUL NOT AND SWAP1 DUP4 PUSH20 0xFFFFFFFFFFFFFFFFFFFFFFFFFFFFFFFFFFFFFFFF AND MUL OR SWAP1 SSTORE POP DUP3 PUSH1 0x5 DUP2 SWAP1 SSTORE POP DUP2 PUSH1 0x3 DUP2 SWAP1 SSTORE POP DUP1 PUSH1 0x4 DUP2 SWAP1 SSTORE POP POP POP POP POP POP PUSH2 0x3FC JUMP JUMPDEST PUSH0 PUSH0 PUSH0 SWAP1 SLOAD SWAP1 PUSH2 0x100 EXP SWAP1 DIV PUSH20 0xFFFFFFFFFFFFFFFFFFFFFFFFFFFFFFFFFFFFFFFF AND SWAP1 POP DUP2 PUSH0 PUSH0 PUSH2 0x100 EXP DUP2 SLOAD DUP2 PUSH20 0xFFFFFFFFFFFFFFFFFFFFFFFFFFFFFFFFFFFFFFFF MUL NOT AND SWAP1 DUP4 PUSH20 0xFFFFFFFFFFFFFFFFFFFFFFFFFFFFFFFFFFFFFFFF AND MUL OR SWAP1 SSTORE POP DUP2 PUSH20 0xFFFFFFFFFFFFFFFFFFFFFFFFFFFFFFFFFFFFFFFF AND DUP2 PUSH20 0xFFFFFFFFFFFFFFFFFFFFFFFFFFFFFFFFFFFFFFFF AND PUSH32 0x8BE0079C531659141344CD1FD0A4F28419497F9722A3DAAFE3B4186F6B6457E0 PUSH1 0x40 MLOAD PUSH1 0x40 MLOAD DUP1 SWAP2 SUB SWAP1 LOG3 POP POP JUMP JUMPDEST PUSH0 PUSH0 REVERT JUMPDEST PUSH0 PUSH20 0xFFFFFFFFFFFFFFFFFFFFFFFFFFFFFFFFFFFFFFFF DUP3 AND SWAP1 POP SWAP2 SWAP1 POP JUMP JUMPDEST PUSH0 PUSH2 0x281 DUP3 PUSH2 0x258 JUMP JUMPDEST SWAP1 POP SWAP2 SWAP1 POP JUMP JUMPDEST PUSH2 0x291 DUP2 PUSH2 0x277 JUMP JUMPDEST DUP2 EQ PUSH2 0x29B JUMPI PUSH0 PUSH0 REVERT JUMPDEST POP JUMP JUMPDEST PUSH0 DUP2 MLOAD SWAP1 POP PUSH2 0x2AC DUP2 PUSH2 0x288 JUMP JUMPDEST SWAP3 SWAP2 POP POP JUMP JUMPDEST PUSH0 DUP2 SWAP1 POP SWAP2 SWAP1 POP JUMP JUMPDEST PUSH2 0x2C4 DUP2 PUSH2 0x2B2 JUMP JUMPDEST DUP2 EQ PUSH2 0x2CE JUMPI PUSH0 PUSH0 REVERT JUMPDEST POP JUMP JUMPDEST PUSH0 DUP2 MLOAD SWAP1 POP PUSH2 0x2DF DUP2 PUSH2 0x2BB JUMP JUMPDEST SWAP3 SWAP2 POP POP JUMP JUMPDEST PUSH0 PUSH0 PUSH0 PUSH0 PUSH0 PUSH1 0xA0 DUP7 DUP9 SUB SLT ISZERO PUSH2 0x2FE JUMPI PUSH2 0x2FD PUSH2 0x254 JUMP JUMPDEST JUMPDEST PUSH0 PUSH2 0x30B DUP9 DUP3 DUP10 ADD PUSH2 0x29E JUMP JUMPDEST SWAP6 POP POP PUSH1 0x20 PUSH2 0x31C DUP9 DUP3 DUP10 ADD PUSH2 0x29E JUMP JUMPDEST SWAP5 POP POP PUSH1 0x40 PUSH2 0x32D DUP9 DUP3 DUP10 ADD PUSH2 0x2D1 JUMP JUMPDEST SWAP4 POP POP PUSH1 0x60 PUSH2 0x33E DUP9 DUP3 DUP10 ADD PUSH2 0x2D1 JUMP JUMPDEST SWAP3 POP POP PUSH1 0x80 PUSH2 0x34F DUP9 DUP3 DUP10 ADD PUSH2 0x2D1 JUMP JUMPDEST SWAP2 POP POP SWAP3 SWAP6 POP SWAP3 SWAP6 SWAP1 SWAP4 POP JUMP JUMPDEST PUSH2 0x365 DUP2 PUSH2 0x277 JUMP JUMPDEST DUP3 MSTORE POP POP JUMP JUMPDEST PUSH0 PUSH1 0x20 DUP3 ADD SWAP1 POP PUSH2 0x37E PUSH0 DUP4 ADD DUP5 PUSH2 0x35C JUMP JUMPDEST SWAP3 SWAP2 POP POP JUMP JUMPDEST PUSH0 DUP3 DUP3 MSTORE PUSH1 0x20 DUP3 ADD SWAP1 POP SWAP3 SWAP2 POP POP JUMP JUMPDEST PUSH32 0x496E76616C69642074696D65206672616D650000000000000000000000000000 PUSH0 DUP3 ADD MSTORE POP JUMP JUMPDEST PUSH0 PUSH2 0x3C8 PUSH1 0x12 DUP4 PUSH2 0x384 JUMP JUMPDEST SWAP2 POP PUSH2 0x3D3 DUP3 PUSH2 0x394 JUMP JUMPDEST PUSH1 0x20 DUP3 ADD SWAP1 POP SWAP2 SWAP1 POP JUMP JUMPDEST PUSH0 PUSH1 0x20 DUP3 ADD SWAP1 POP DUP2 DUP2 SUB PUSH0 DUP4 ADD MSTORE PUSH2 0x3F5 DUP2 PUSH2 0x3BC JUMP JUMPDEST SWAP1 POP SWAP2 SWAP1 POP JUMP JUMPDEST PUSH2 0x1588 DUP1 PUSH2 0x409 PUSH0 CODECOPY PUSH0 RETURN INVALID PUSH1 0x80 PUSH1 0x40 MSTORE CALLVALUE DUP1 ISZERO PUSH2 0xF JUMPI PUSH0 PUSH0 REVERT JUMPDEST POP PUSH1 0x4 CALLDATASIZE LT PUSH2 0x109 JUMPI PUSH0 CALLDATALOAD PUSH1 0xE0 SHR DUP1 PUSH4 0x817B1CD2 GT PUSH2 0xA0 JUMPI DUP1 PUSH4 0xB7813607 GT PUSH2 0x6F JUMPI DUP1 PUSH4 0xB7813607 EQ PUSH2 0x259 JUMPI DUP1 PUSH4 0xE09F4DF0 EQ PUSH2 0x277 JUMPI DUP1 PUSH4 0xE1AF9A95 EQ PUSH2 0x293 JUMPI DUP1 PUSH4 0xE834A834 EQ PUSH2 0x2B1 JUMPI DUP1 PUSH4 0xF2FDE38B EQ PUSH2 0x2CF JUMPI PUSH2 0x109 JUMP JUMPDEST DUP1 PUSH4 0x817B1CD2 EQ PUSH2 0x1E5 JUMPI DUP1 PUSH4 0x8DA5CB5B EQ PUSH2 0x203 JUMPI DUP1 PUSH4 0x9CC6424D EQ PUSH2 0x221 JUMPI DUP1 PUSH4 0xB6B55F25 EQ PUSH2 0x23D JUMPI PUSH2 0x109 JUMP JUMPDEST DUP1 PUSH4 0x715018A6 GT PUSH2 0xDC JUMPI DUP1 PUSH4 0x715018A6 EQ PUSH2 0x183 JUMPI DUP1 PUSH4 0x73B2E80E EQ PUSH2 0x18D JUMPI DUP1 PUSH4 0x78417398 EQ PUSH2 0x1BD JUMPI DUP1 PUSH4 0x78E97925 EQ PUSH2 0x1C7 JUMPI PUSH2 0x109 JUMP JUMPDEST DUP1 PUSH4 0x3197CBB6 EQ PUSH2 0x10D JUMPI DUP1 PUSH4 0x4E71D92D EQ PUSH2 0x12B JUMPI DUP1 PUSH4 0x5FCBD285 EQ PUSH2 0x135 JUMPI DUP1 PUSH4 0x68E5585D EQ PUSH2 0x153 JUMPI JUMPDEST PUSH0 PUSH0 REVERT JUMPDEST PUSH2 0x115 PUSH2 0x2EB JUMP JUMPDEST PUSH1 0x40 MLOAD PUSH2 0x122 SWAP2 SWAP1 PUSH2 0xF1E JUMP JUMPDEST PUSH1 0x40 MLOAD DUP1 SWAP2 SUB SWAP1 RETURN JUMPDEST PUSH2 0x133 PUSH2 0x2F1 JUMP JUMPDEST STOP JUMPDEST PUSH2 0x13D PUSH2 0x5A4 JUMP JUMPDEST PUSH1 0x40 MLOAD PUSH2 0x14A SWAP2 SWAP1 PUSH2 0xFB1 JUMP JUMPDEST PUSH1 0x40 MLOAD DUP1 SWAP2 SUB SWAP1 RETURN JUMPDEST PUSH2 0x16D PUSH1 0x4 DUP1 CALLDATASIZE SUB DUP2 ADD SWAP1 PUSH2 0x168 SWAP2 SWAP1 PUSH2 0x1009 JUMP JUMPDEST PUSH2 0x5C9 JUMP JUMPDEST PUSH1 0x40 MLOAD PUSH2 0x17A SWAP2 SWAP1 PUSH2 0xF1E JUMP JUMPDEST PUSH1 0x40 MLOAD DUP1 SWAP2 SUB SWAP1 RETURN JUMPDEST PUSH2 0x18B PUSH2 0x5DE JUMP JUMPDEST STOP JUMPDEST PUSH2 0x1A7 PUSH1 0x4 DUP1 CALLDATASIZE SUB DUP2 ADD SWAP1 PUSH2 0x1A2 SWAP2 SWAP1 PUSH2 0x1009 JUMP JUMPDEST PUSH2 0x5F1 JUMP JUMPDEST PUSH1 0x40 MLOAD PUSH2 0x1B4 SWAP2 SWAP1 PUSH2 0x104E JUMP JUMPDEST PUSH1 0x40 MLOAD DUP1 SWAP2 SUB SWAP1 RETURN JUMPDEST PUSH2 0x1C5 PUSH2 0x60E JUMP JUMPDEST STOP JUMPDEST PUSH2 0x1CF PUSH2 0x805 JUMP JUMPDEST PUSH1 0x40 MLOAD PUSH2 0x1DC SWAP2 SWAP1 PUSH2 0xF1E JUMP JUMPDEST PUSH1 0x40 MLOAD DUP1 SWAP2 SUB SWAP1 RETURN JUMPDEST PUSH2 0x1ED PUSH2 0x80B JUMP JUMPDEST PUSH1 0x40 MLOAD PUSH2 0x1FA SWAP2 SWAP1 PUSH2 0xF1E JUMP JUMPDEST PUSH1 0x40 MLOAD DUP1 SWAP2 SUB SWAP1 RETURN JUMPDEST PUSH2 0x20B PUSH2 0x811 JUMP JUMPDEST PUSH1 0x40 MLOAD PUSH2 0x218 SWAP2 SWAP1 PUSH2 0x1076 JUMP JUMPDEST PUSH1 0x40 MLOAD DUP1 SWAP2 SUB SWAP1 RETURN JUMPDEST PUSH2 0x23B PUSH1 0x4 DUP1 CALLDATASIZE SUB DUP2 ADD SWAP1 PUSH2 0x236 SWAP2 SWAP1 PUSH2 0x1009 JUMP JUMPDEST PUSH2 0x838 JUMP JUMPDEST STOP JUMPDEST PUSH2 0x257 PUSH1 0x4 DUP1 CALLDATASIZE SUB DUP2 ADD SWAP1 PUSH2 0x252 SWAP2 SWAP1 PUSH2 0x10B9 JUMP JUMPDEST PUSH2 0x97D JUMP JUMPDEST STOP JUMPDEST PUSH2 0x261 PUSH2 0xB6D JUMP JUMPDEST PUSH1 0x40 MLOAD PUSH2 0x26E SWAP2 SWAP1 PUSH2 0xFB1 JUMP JUMPDEST PUSH1 0x40 MLOAD DUP1 SWAP2 SUB SWAP1 RETURN JUMPDEST PUSH2 0x291 PUSH1 0x4 DUP1 CALLDATASIZE SUB DUP2 ADD SWAP1 PUSH2 0x28C SWAP2 SWAP1 PUSH2 0x1009 JUMP JUMPDEST PUSH2 0xB92 JUMP JUMPDEST STOP JUMPDEST PUSH2 0x29B PUSH2 0xD1B JUMP JUMPDEST PUSH1 0x40 MLOAD PUSH2 0x2A8 SWAP2 SWAP1 PUSH2 0xF1E JUMP JUMPDEST PUSH1 0x40 MLOAD DUP1 SWAP2 SUB SWAP1 RETURN JUMPDEST PUSH2 0x2B9 PUSH2 0xD21 JUMP JUMPDEST PUSH1 0x40 MLOAD PUSH2 0x2C6 SWAP2 SWAP1 PUSH2 0x104E JUMP JUMPDEST PUSH1 0x40 MLOAD DUP1 SWAP2 SUB SWAP1 RETURN JUMPDEST PUSH2 0x2E9 PUSH1 0x4 DUP1 CALLDATASIZE SUB DUP2 ADD SWAP1 PUSH2 0x2E4 SWAP2 SWAP1 PUSH2 0x1009 JUMP JUMPDEST PUSH2 0xD33 JUMP JUMPDEST STOP JUMPDEST PUSH1 0x4 SLOAD DUP2 JUMP JUMPDEST PUSH1 0x4 SLOAD TIMESTAMP GT PUSH2 0x335 JUMPI PUSH1 0x40 MLOAD PUSH32 0x8C379A000000000000000000000000000000000000000000000000000000000 DUP2 MSTORE PUSH1 0x4 ADD PUSH2 0x32C SWAP1 PUSH2 0x113E JUMP JUMPDEST PUSH1 0x40 MLOAD DUP1 SWAP2 SUB SWAP1 REVERT JUMPDEST PUSH1 0x9 PUSH0 CALLER PUSH20 0xFFFFFFFFFFFFFFFFFFFFFFFFFFFFFFFFFFFFFFFF AND PUSH20 0xFFFFFFFFFFFFFFFFFFFFFFFFFFFFFFFFFFFFFFFF AND DUP2 MSTORE PUSH1 0x20 ADD SWAP1 DUP2 MSTORE PUSH1 0x20 ADD PUSH0 KECCAK256 PUSH0 SWAP1 SLOAD SWAP1 PUSH2 0x100 EXP SWAP1 DIV PUSH1 0xFF AND ISZERO PUSH2 0x3BF JUMPI PUSH1 0x40 MLOAD PUSH32 0x8C379A000000000000000000000000000000000000000000000000000000000 DUP2 MSTORE PUSH1 0x4 ADD PUSH2 0x3B6 SWAP1 PUSH2 0x11A6 JUMP JUMPDEST PUSH1 0x40 MLOAD DUP1 SWAP2 SUB SWAP1 REVERT JUMPDEST PUSH0 PUSH1 0x8 PUSH0 CALLER PUSH20 0xFFFFFFFFFFFFFFFFFFFFFFFFFFFFFFFFFFFFFFFF AND PUSH20 0xFFFFFFFFFFFFFFFFFFFFFFFFFFFFFFFFFFFFFFFF AND DUP2 MSTORE PUSH1 0x20 ADD SWAP1 DUP2 MSTORE PUSH1 0x20 ADD PUSH0 KECCAK256 SLOAD SWAP1 POP PUSH0 DUP2 GT PUSH2 0x442 JUMPI PUSH1 0x40 MLOAD PUSH32 0x8C379A000000000000000000000000000000000000000000000000000000000 DUP2 MSTORE PUSH1 0x4 ADD PUSH2 0x439 SWAP1 PUSH2 0x120E JUMP JUMPDEST PUSH1 0x40 MLOAD DUP1 SWAP2 SUB SWAP1 REVERT JUMPDEST PUSH0 PUSH1 0x6 SLOAD PUSH1 0x5 SLOAD DUP4 PUSH2 0x454 SWAP2 SWAP1 PUSH2 0x1259 JUMP JUMPDEST PUSH2 0x45E SWAP2 SWAP1 PUSH2 0x12C7 JUMP JUMPDEST SWAP1 POP PUSH1 0x1 PUSH1 0x9 PUSH0 CALLER PUSH20 0xFFFFFFFFFFFFFFFFFFFFFFFFFFFFFFFFFFFFFFFF AND PUSH20 0xFFFFFFFFFFFFFFFFFFFFFFFFFFFFFFFFFFFFFFFF AND DUP2 MSTORE PUSH1 0x20 ADD SWAP1 DUP2 MSTORE PUSH1 0x20 ADD PUSH0 KECCAK256 PUSH0 PUSH2 0x100 EXP DUP2 SLOAD DUP2 PUSH1 0xFF MUL NOT AND SWAP1 DUP4 ISZERO ISZERO MUL OR SWAP1 SSTORE POP PUSH1 0x2 PUSH0 SWAP1 SLOAD SWAP1 PUSH2 0x100 EXP SWAP1 DIV PUSH20 0xFFFFFFFFFFFFFFFFFFFFFFFFFFFFFFFFFFFFFFFF AND PUSH20 0xFFFFFFFFFFFFFFFFFFFFFFFFFFFFFFFFFFFFFFFF AND PUSH4 0xA9059CBB CALLER DUP4 PUSH1 0x40 MLOAD DUP4 PUSH4 0xFFFFFFFF AND PUSH1 0xE0 SHL DUP2 MSTORE PUSH1 0x4 ADD PUSH2 0x511 SWAP3 SWAP2 SWAP1 PUSH2 0x12F7 JUMP JUMPDEST PUSH1 0x20 PUSH1 0x40 MLOAD DUP1 DUP4 SUB DUP2 PUSH0 DUP8 GAS CALL ISZERO DUP1 ISZERO PUSH2 0x52D JUMPI RETURNDATASIZE PUSH0 PUSH0 RETURNDATACOPY RETURNDATASIZE PUSH0 REVERT JUMPDEST POP POP POP POP PUSH1 0x40 MLOAD RETURNDATASIZE PUSH1 0x1F NOT PUSH1 0x1F DUP3 ADD AND DUP3 ADD DUP1 PUSH1 0x40 MSTORE POP DUP2 ADD SWAP1 PUSH2 0x551 SWAP2 SWAP1 PUSH2 0x1348 JUMP JUMPDEST POP CALLER PUSH20 0xFFFFFFFFFFFFFFFFFFFFFFFFFFFFFFFFFFFFFFFF AND PUSH32 0x896E034966EAAF1ADC54ACC0F257056FEBBD300C9E47182CF761982CF1F5E430 DUP3 PUSH1 0x40 MLOAD PUSH2 0x598 SWAP2 SWAP1 PUSH2 0xF1E JUMP JUMPDEST PUSH1 0x40 MLOAD DUP1 SWAP2 SUB SWAP1 LOG2 POP POP JUMP JUMPDEST PUSH1 0x1 PUSH0 SWAP1 SLOAD SWAP1 PUSH2 0x100 EXP SWAP1 DIV PUSH20 0xFFFFFFFFFFFFFFFFFFFFFFFFFFFFFFFFFFFFFFFF AND DUP2 JUMP JUMPDEST PUSH1 0x8 PUSH1 0x20 MSTORE DUP1 PUSH0 MSTORE PUSH1 0x40 PUSH0 KECCAK256 PUSH0 SWAP2 POP SWAP1 POP SLOAD DUP2 JUMP JUMPDEST PUSH2 0x5E6 PUSH2 0xDB7 JUMP JUMPDEST PUSH2 0x5EF PUSH0 PUSH2 0xE3E JUMP JUMPDEST JUMP JUMPDEST PUSH1 0x9 PUSH1 0x20 MSTORE DUP1 PUSH0 MSTORE PUSH1 0x40 PUSH0 KECCAK256 PUSH0 SWAP2 POP SLOAD SWAP1 PUSH2 0x100 EXP SWAP1 DIV PUSH1 0xFF AND DUP2 JUMP JUMPDEST PUSH1 0x4 SLOAD TIMESTAMP GT PUSH2 0x652 JUMPI PUSH1 0x40 MLOAD PUSH32 0x8C379A000000000000000000000000000000000000000000000000000000000 DUP2 MSTORE PUSH1 0x4 ADD PUSH2 0x649 SWAP1 PUSH2 0x13BD JUMP JUMPDEST PUSH1 0x40 MLOAD DUP1 SWAP2 SUB SWAP1 REVERT JUMPDEST PUSH0 PUSH1 0x8 PUSH0 CALLER PUSH20 0xFFFFFFFFFFFFFFFFFFFFFFFFFFFFFFFFFFFFFFFF AND PUSH20 0xFFFFFFFFFFFFFFFFFFFFFFFFFFFFFFFFFFFFFFFF AND DUP2 MSTORE PUSH1 0x20 ADD SWAP1 DUP2 MSTORE PUSH1 0x20 ADD PUSH0 KECCAK256 SLOAD SWAP1 POP PUSH0 DUP2 GT PUSH2 0x6D5 JUMPI PUSH1 0x40 MLOAD PUSH32 0x8C379A000000000000000000000000000000000000000000000000000000000 DUP2 MSTORE PUSH1 0x4 ADD PUSH2 0x6CC SWAP1 PUSH2 0x120E JUMP JUMPDEST PUSH1 0x40 MLOAD DUP1 SWAP2 SUB SWAP1 REVERT JUMPDEST PUSH0 PUSH1 0x8 PUSH0 CALLER PUSH20 0xFFFFFFFFFFFFFFFFFFFFFFFFFFFFFFFFFFFFFFFF AND PUSH20 0xFFFFFFFFFFFFFFFFFFFFFFFFFFFFFFFFFFFFFFFF AND DUP2 MSTORE PUSH1 0x20 ADD SWAP1 DUP2 MSTORE PUSH1 0x20 ADD PUSH0 KECCAK256 DUP2 SWAP1 SSTORE POP PUSH1 0x1 PUSH0 SWAP1 SLOAD SWAP1 PUSH2 0x100 EXP SWAP1 DIV PUSH20 0xFFFFFFFFFFFFFFFFFFFFFFFFFFFFFFFFFFFFFFFF AND PUSH20 0xFFFFFFFFFFFFFFFFFFFFFFFFFFFFFFFFFFFFFFFF AND PUSH4 0xA9059CBB CALLER DUP4 PUSH1 0x40 MLOAD DUP4 PUSH4 0xFFFFFFFF AND PUSH1 0xE0 SHL DUP2 MSTORE PUSH1 0x4 ADD PUSH2 0x773 SWAP3 SWAP2 SWAP1 PUSH2 0x12F7 JUMP JUMPDEST PUSH1 0x20 PUSH1 0x40 MLOAD DUP1 DUP4 SUB DUP2 PUSH0 DUP8 GAS CALL ISZERO DUP1 ISZERO PUSH2 0x78F JUMPI RETURNDATASIZE PUSH0 PUSH0 RETURNDATACOPY RETURNDATASIZE PUSH0 REVERT JUMPDEST POP POP POP POP PUSH1 0x40 MLOAD RETURNDATASIZE PUSH1 0x1F NOT PUSH1 0x1F DUP3 ADD AND DUP3 ADD DUP1 PUSH1 0x40 MSTORE POP DUP2 ADD SWAP1 PUSH2 0x7B3 SWAP2 SWAP1 PUSH2 0x1348 JUMP JUMPDEST POP CALLER PUSH20 0xFFFFFFFFFFFFFFFFFFFFFFFFFFFFFFFFFFFFFFFF AND PUSH32 0x7084F5476618D8E60B11EF0D7D3F06914655ADB8793E28FF7F018D4C76D505D5 DUP3 PUSH1 0x40 MLOAD PUSH2 0x7FA SWAP2 SWAP1 PUSH2 0xF1E JUMP JUMPDEST PUSH1 0x40 MLOAD DUP1 SWAP2 SUB SWAP1 LOG2 POP JUMP JUMPDEST PUSH1 0x3 SLOAD DUP2 JUMP JUMPDEST PUSH1 0x6 SLOAD DUP2 JUMP JUMPDEST PUSH0 PUSH0 PUSH0 SWAP1 SLOAD SWAP1 PUSH2 0x100 EXP SWAP1 DIV PUSH20 0xFFFFFFFFFFFFFFFFFFFFFFFFFFFFFFFFFFFFFFFF AND SWAP1 POP SWAP1 JUMP JUMPDEST PUSH2 0x840 PUSH2 0xDB7 JUMP JUMPDEST PUSH0 PUSH1 0x1 PUSH0 SWAP1 SLOAD SWAP1 PUSH2 0x100 EXP SWAP1 DIV PUSH20 0xFFFFFFFFFFFFFFFFFFFFFFFFFFFFFFFFFFFFFFFF AND PUSH20 0xFFFFFFFFFFFFFFFFFFFFFFFFFFFFFFFFFFFFFFFF AND PUSH4 0x70A08231 ADDRESS PUSH1 0x40 MLOAD DUP3 PUSH4 0xFFFFFFFF AND PUSH1 0xE0 SHL DUP2 MSTORE PUSH1 0x4 ADD PUSH2 0x89B SWAP2 SWAP1 PUSH2 0x1076 JUMP JUMPDEST PUSH1 0x20 PUSH1 0x40 MLOAD DUP1 DUP4 SUB DUP2 DUP7 GAS STATICCALL ISZERO DUP1 ISZERO PUSH2 0x8B6 JUMPI RETURNDATASIZE PUSH0 PUSH0 RETURNDATACOPY RETURNDATASIZE PUSH0 REVERT JUMPDEST POP POP POP POP PUSH1 0x40 MLOAD RETURNDATASIZE PUSH1 0x1F NOT PUSH1 0x1F DUP3 ADD AND DUP3 ADD DUP1 PUSH1 0x40 MSTORE POP DUP2 ADD SWAP1 PUSH2 0x8DA SWAP2 SWAP1 PUSH2 0x13EF JUMP JUMPDEST SWAP1 POP PUSH1 0x1 PUSH0 SWAP1 SLOAD SWAP1 PUSH2 0x100 EXP SWAP1 DIV PUSH20 0xFFFFFFFFFFFFFFFFFFFFFFFFFFFFFFFFFFFFFFFF AND PUSH20 0xFFFFFFFFFFFFFFFFFFFFFFFFFFFFFFFFFFFFFFFF AND PUSH4 0xA9059CBB DUP4 DUP4 PUSH1 0x40 MLOAD DUP4 PUSH4 0xFFFFFFFF AND PUSH1 0xE0 SHL DUP2 MSTORE PUSH1 0x4 ADD PUSH2 0x938 SWAP3 SWAP2 SWAP1 PUSH2 0x12F7 JUMP JUMPDEST PUSH1 0x20 PUSH1 0x40 MLOAD DUP1 DUP4 SUB DUP2 PUSH0 DUP8 GAS CALL ISZERO DUP1 ISZERO PUSH2 0x954 JUMPI RETURNDATASIZE PUSH0 PUSH0 RETURNDATACOPY RETURNDATASIZE PUSH0 REVERT JUMPDEST POP POP POP POP PUSH1 0x40 MLOAD RETURNDATASIZE PUSH1 0x1F NOT PUSH1 0x1F DUP3 ADD AND DUP3 ADD DUP1 PUSH1 0x40 MSTORE POP DUP2 ADD SWAP1 PUSH2 0x978 SWAP2 SWAP1 PUSH2 0x1348 JUMP JUMPDEST POP POP POP JUMP JUMPDEST PUSH1 0x3 SLOAD TIMESTAMP LT ISZERO DUP1 ISZERO PUSH2 0x991 JUMPI POP PUSH1 0x4 SLOAD TIMESTAMP GT ISZERO JUMPDEST PUSH2 0x9D0 JUMPI PUSH1 0x40 MLOAD PUSH32 0x8C379A000000000000000000000000000000000000000000000000000000000 DUP2 MSTORE PUSH1 0x4 ADD PUSH2 0x9C7 SWAP1 PUSH2 0x1464 JUMP JUMPDEST PUSH1 0x40 MLOAD DUP1 SWAP2 SUB SWAP1 REVERT JUMPDEST PUSH0 DUP2 GT PUSH2 0xA12 JUMPI PUSH1 0x40 MLOAD PUSH32 0x8C379A000000000000000000000000000000000000000000000000000000000 DUP2 MSTORE PUSH1 0x4 ADD PUSH2 0xA09 SWAP1 PUSH2 0x14CC JUMP JUMPDEST PUSH1 0x40 MLOAD DUP1 SWAP2 SUB SWAP1 REVERT JUMPDEST PUSH1 0x1 PUSH0 SWAP1 SLOAD SWAP1 PUSH2 0x100 EXP SWAP1 DIV PUSH20 0xFFFFFFFFFFFFFFFFFFFFFFFFFFFFFFFFFFFFFFFF AND PUSH20 0xFFFFFFFFFFFFFFFFFFFFFFFFFFFFFFFFFFFFFFFF AND PUSH4 0x23B872DD CALLER ADDRESS DUP5 PUSH1 0x40 MLOAD DUP5 PUSH4 0xFFFFFFFF AND PUSH1 0xE0 SHL DUP2 MSTORE PUSH1 0x4 ADD PUSH2 0xA70 SWAP4 SWAP3 SWAP2 SWAP1 PUSH2 0x14EA JUMP JUMPDEST PUSH1 0x20 PUSH1 0x40 MLOAD DUP1 DUP4 SUB DUP2 PUSH0 DUP8 GAS CALL ISZERO DUP1 ISZERO PUSH2 0xA8C JUMPI RETURNDATASIZE PUSH0 PUSH0 RETURNDATACOPY RETURNDATASIZE PUSH0 REVERT JUMPDEST POP POP POP POP PUSH1 0x40 MLOAD RETURNDATASIZE PUSH1 0x1F NOT PUSH1 0x1F DUP3 ADD AND DUP3 ADD DUP1 PUSH1 0x40 MSTORE POP DUP2 ADD SWAP1 PUSH2 0xAB0 SWAP2 SWAP1 PUSH2 0x1348 JUMP JUMPDEST POP DUP1 PUSH1 0x8 PUSH0 CALLER PUSH20 0xFFFFFFFFFFFFFFFFFFFFFFFFFFFFFFFFFFFFFFFF AND PUSH20 0xFFFFFFFFFFFFFFFFFFFFFFFFFFFFFFFFFFFFFFFF AND DUP2 MSTORE PUSH1 0x20 ADD SWAP1 DUP2 MSTORE PUSH1 0x20 ADD PUSH0 KECCAK256 PUSH0 DUP3 DUP3 SLOAD PUSH2 0xAFD SWAP2 SWAP1 PUSH2 0x151F JUMP JUMPDEST SWAP3 POP POP DUP2 SWAP1 SSTORE POP DUP1 PUSH1 0x6 PUSH0 DUP3 DUP3 SLOAD PUSH2 0xB15 SWAP2 SWAP1 PUSH2 0x151F JUMP JUMPDEST SWAP3 POP POP DUP2 SWAP1 SSTORE POP CALLER PUSH20 0xFFFFFFFFFFFFFFFFFFFFFFFFFFFFFFFFFFFFFFFF AND PUSH32 0x2DA466A7B24304F47E87FA2E1E5A81B9831CE54FEC19055CE277CA2F39BA42C4 DUP3 PUSH1 0x40 MLOAD PUSH2 0xB62 SWAP2 SWAP1 PUSH2 0xF1E JUMP JUMPDEST PUSH1 0x40 MLOAD DUP1 SWAP2 SUB SWAP1 LOG2 POP JUMP JUMPDEST PUSH1 0x2 PUSH0 SWAP1 SLOAD SWAP1 PUSH2 0x100 EXP SWAP1 DIV PUSH20 0xFFFFFFFFFFFFFFFFFFFFFFFFFFFFFFFFFFFFFFFF AND DUP2 JUMP JUMPDEST PUSH2 0xB9A PUSH2 0xDB7 JUMP JUMPDEST PUSH1 0x4 SLOAD TIMESTAMP GT PUSH2 0xBDE JUMPI PUSH1 0x40 MLOAD PUSH32 0x8C379A000000000000000000000000000000000000000000000000000000000 DUP2 MSTORE PUSH1 0x4 ADD PUSH2 0xBD5 SWAP1 PUSH2 0x113E JUMP JUMPDEST PUSH1 0x40 MLOAD DUP1 SWAP2 SUB SWAP1 REVERT JUMPDEST PUSH0 PUSH1 0x2 PUSH0 SWAP1 SLOAD SWAP1 PUSH2 0x100 EXP SWAP1 DIV PUSH20 0xFFFFFFFFFFFFFFFFFFFFFFFFFFFFFFFFFFFFFFFF AND PUSH20 0xFFFFFFFFFFFFFFFFFFFFFFFFFFFFFFFFFFFFFFFF AND PUSH4 0x70A08231 ADDRESS PUSH1 0x40 MLOAD DUP3 PUSH4 0xFFFFFFFF AND PUSH1 0xE0 SHL DUP2 MSTORE PUSH1 0x4 ADD PUSH2 0xC39 SWAP2 SWAP1 PUSH2 0x1076 JUMP JUMPDEST PUSH1 0x20 PUSH1 0x40 MLOAD DUP1 DUP4 SUB DUP2 DUP7 GAS STATICCALL ISZERO DUP1 ISZERO PUSH2 0xC54 JUMPI RETURNDATASIZE PUSH0 PUSH0 RETURNDATACOPY RETURNDATASIZE PUSH0 REVERT JUMPDEST POP POP POP POP PUSH1 0x40 MLOAD RETURNDATASIZE PUSH1 0x1F NOT PUSH1 0x1F DUP3 ADD AND DUP3 ADD DUP1 PUSH1 0x40 MSTORE POP DUP2 ADD SWAP1 PUSH2 0xC78 SWAP2 SWAP1 PUSH2 0x13EF JUMP JUMPDEST SWAP1 POP PUSH1 0x2 PUSH0 SWAP1 SLOAD SWAP1 PUSH2 0x100 EXP SWAP1 DIV PUSH20 0xFFFFFFFFFFFFFFFFFFFFFFFFFFFFFFFFFFFFFFFF AND PUSH20 0xFFFFFFFFFFFFFFFFFFFFFFFFFFFFFFFFFFFFFFFF AND PUSH4 0xA9059CBB DUP4 DUP4 PUSH1 0x40 MLOAD DUP4 PUSH4 0xFFFFFFFF AND PUSH1 0xE0 SHL DUP2 MSTORE PUSH1 0x4 ADD PUSH2 0xCD6 SWAP3 SWAP2 SWAP1 PUSH2 0x12F7 JUMP JUMPDEST PUSH1 0x20 PUSH1 0x40 MLOAD DUP1 DUP4 SUB DUP2 PUSH0 DUP8 GAS CALL ISZERO DUP1 ISZERO PUSH2 0xCF2 JUMPI RETURNDATASIZE PUSH0 PUSH0 RETURNDATACOPY RETURNDATASIZE PUSH0 REVERT JUMPDEST POP POP POP POP PUSH1 0x40 MLOAD RETURNDATASIZE PUSH1 0x1F NOT PUSH1 0x1F DUP3 ADD AND DUP3 ADD DUP1 PUSH1 0x40 MSTORE POP DUP2 ADD SWAP1 PUSH2 0xD16 SWAP2 SWAP1 PUSH2 0x1348 JUMP JUMPDEST POP POP POP JUMP JUMPDEST PUSH1 0x5 SLOAD DUP2 JUMP JUMPDEST PUSH1 0x7 PUSH0 SWAP1 SLOAD SWAP1 PUSH2 0x100 EXP SWAP1 DIV PUSH1 0xFF AND DUP2 JUMP JUMPDEST PUSH2 0xD3B PUSH2 0xDB7 JUMP JUMPDEST PUSH0 PUSH20 0xFFFFFFFFFFFFFFFFFFFFFFFFFFFFFFFFFFFFFFFF AND DUP2 PUSH20 0xFFFFFFFFFFFFFFFFFFFFFFFFFFFFFFFFFFFFFFFF AND SUB PUSH2 0xDAB JUMPI PUSH0 PUSH1 0x40 MLOAD PUSH32 0x1E4FBDF700000000000000000000000000000000000000000000000000000000 DUP2 MSTORE PUSH1 0x4 ADD PUSH2 0xDA2 SWAP2 SWAP1 PUSH2 0x1076 JUMP JUMPDEST PUSH1 0x40 MLOAD DUP1 SWAP2 SUB SWAP1 REVERT JUMPDEST PUSH2 0xDB4 DUP2 PUSH2 0xE3E JUMP JUMPDEST POP JUMP JUMPDEST PUSH2 0xDBF PUSH2 0xEFF JUMP JUMPDEST PUSH20 0xFFFFFFFFFFFFFFFFFFFFFFFFFFFFFFFFFFFFFFFF AND PUSH2 0xDDD PUSH2 0x811 JUMP JUMPDEST PUSH20 0xFFFFFFFFFFFFFFFFFFFFFFFFFFFFFFFFFFFFFFFF AND EQ PUSH2 0xE3C JUMPI PUSH2 0xE00 PUSH2 0xEFF JUMP JUMPDEST PUSH1 0x40 MLOAD PUSH32 0x118CDAA700000000000000000000000000000000000000000000000000000000 DUP2 MSTORE PUSH1 0x4 ADD PUSH2 0xE33 SWAP2 SWAP1 PUSH2 0x1076 JUMP JUMPDEST PUSH1 0x40 MLOAD DUP1 SWAP2 SUB SWAP1 REVERT JUMPDEST JUMP JUMPDEST PUSH0 PUSH0 PUSH0 SWAP1 SLOAD SWAP1 PUSH2 0x100 EXP SWAP1 DIV PUSH20 0xFFFFFFFFFFFFFFFFFFFFFFFFFFFFFFFFFFFFFFFF AND SWAP1 POP DUP2 PUSH0 PUSH0 PUSH2 0x100 EXP DUP2 SLOAD DUP2 PUSH20 0xFFFFFFFFFFFFFFFFFFFFFFFFFFFFFFFFFFFFFFFF MUL NOT AND SWAP1 DUP4 PUSH20 0xFFFFFFFFFFFFFFFFFFFFFFFFFFFFFFFFFFFFFFFF AND MUL OR SWAP1 SSTORE POP DUP2 PUSH20 0xFFFFFFFFFFFFFFFFFFFFFFFFFFFFFFFFFFFFFFFF AND DUP2 PUSH20 0xFFFFFFFFFFFFFFFFFFFFFFFFFFFFFFFFFFFFFFFF AND PUSH32 0x8BE0079C531659141344CD1FD0A4F28419497F9722A3DAAFE3B4186F6B6457E0 PUSH1 0x40 MLOAD PUSH1 0x40 MLOAD DUP1 SWAP2 SUB SWAP1 LOG3 POP POP JUMP JUMPDEST PUSH0 CALLER SWAP1 POP SWAP1 JUMP JUMPDEST PUSH0 DUP2 SWAP1 POP SWAP2 SWAP1 POP JUMP JUMPDEST PUSH2 0xF18 DUP2 PUSH2 0xF06 JUMP JUMPDEST DUP3 MSTORE POP POP JUMP JUMPDEST PUSH0 PUSH1 0x20 DUP3 ADD SWAP1 POP PUSH2 0xF31 PUSH0 DUP4 ADD DUP5 PUSH2 0xF0F JUMP JUMPDEST SWAP3 SWAP2 POP POP JUMP JUMPDEST PUSH0 PUSH20 0xFFFFFFFFFFFFFFFFFFFFFFFFFFFFFFFFFFFFFFFF DUP3 AND SWAP1 POP SWAP2 SWAP1 POP JUMP JUMPDEST PUSH0 DUP2 SWAP1 POP SWAP2 SWAP1 POP JUMP JUMPDEST PUSH0 PUSH2 0xF79 PUSH2 0xF74 PUSH2 0xF6F DUP5 PUSH2 0xF37 JUMP JUMPDEST PUSH2 0xF56 JUMP JUMPDEST PUSH2 0xF37 JUMP JUMPDEST SWAP1 POP SWAP2 SWAP1 POP JUMP JUMPDEST PUSH0 PUSH2 0xF8A DUP3 PUSH2 0xF5F JUMP JUMPDEST SWAP1 POP SWAP2 SWAP1 POP JUMP JUMPDEST PUSH0 PUSH2 0xF9B DUP3 PUSH2 0xF80 JUMP JUMPDEST SWAP1 POP SWAP2 SWAP1 POP JUMP JUMPDEST PUSH2 0xFAB DUP2 PUSH2 0xF91 JUMP JUMPDEST DUP3 MSTORE POP POP JUMP JUMPDEST PUSH0 PUSH1 0x20 DUP3 ADD SWAP1 POP PUSH2 0xFC4 PUSH0 DUP4 ADD DUP5 PUSH2 0xFA2 JUMP JUMPDEST SWAP3 SWAP2 POP POP JUMP JUMPDEST PUSH0 PUSH0 REVERT JUMPDEST PUSH0 PUSH2 0xFD8 DUP3 PUSH2 0xF37 JUMP JUMPDEST SWAP1 POP SWAP2 SWAP1 POP JUMP JUMPDEST PUSH2 0xFE8 DUP2 PUSH2 0xFCE JUMP JUMPDEST DUP2 EQ PUSH2 0xFF2 JUMPI PUSH0 PUSH0 REVERT JUMPDEST POP JUMP JUMPDEST PUSH0 DUP2 CALLDATALOAD SWAP1 POP PUSH2 0x1003 DUP2 PUSH2 0xFDF JUMP JUMPDEST SWAP3 SWAP2 POP POP JUMP JUMPDEST PUSH0 PUSH1 0x20 DUP3 DUP5 SUB SLT ISZERO PUSH2 0x101E JUMPI PUSH2 0x101D PUSH2 0xFCA JUMP JUMPDEST JUMPDEST PUSH0 PUSH2 0x102B DUP5 DUP3 DUP6 ADD PUSH2 0xFF5 JUMP JUMPDEST SWAP2 POP POP SWAP3 SWAP2 POP POP JUMP JUMPDEST PUSH0 DUP2 ISZERO ISZERO SWAP1 POP SWAP2 SWAP1 POP JUMP JUMPDEST PUSH2 0x1048 DUP2 PUSH2 0x1034 JUMP JUMPDEST DUP3 MSTORE POP POP JUMP JUMPDEST PUSH0 PUSH1 0x20 DUP3 ADD SWAP1 POP PUSH2 0x1061 PUSH0 DUP4 ADD DUP5 PUSH2 0x103F JUMP JUMPDEST SWAP3 SWAP2 POP POP JUMP JUMPDEST PUSH2 0x1070 DUP2 PUSH2 0xFCE JUMP JUMPDEST DUP3 MSTORE POP POP JUMP JUMPDEST PUSH0 PUSH1 0x20 DUP3 ADD SWAP1 POP PUSH2 0x1089 PUSH0 DUP4 ADD DUP5 PUSH2 0x1067 JUMP JUMPDEST SWAP3 SWAP2 POP POP JUMP JUMPDEST PUSH2 0x1098 DUP2 PUSH2 0xF06 JUMP JUMPDEST DUP2 EQ PUSH2 0x10A2 JUMPI PUSH0 PUSH0 REVERT JUMPDEST POP JUMP JUMPDEST PUSH0 DUP2 CALLDATALOAD SWAP1 POP PUSH2 0x10B3 DUP2 PUSH2 0x108F JUMP JUMPDEST SWAP3 SWAP2 POP POP JUMP JUMPDEST PUSH0 PUSH1 0x20 DUP3 DUP5 SUB SLT ISZERO PUSH2 0x10CE JUMPI PUSH2 0x10CD PUSH2 0xFCA JUMP JUMPDEST JUMPDEST PUSH0 PUSH2 0x10DB DUP5 DUP3 DUP6 ADD PUSH2 0x10A5 JUMP JUMPDEST SWAP2 POP POP SWAP3 SWAP2 POP POP JUMP JUMPDEST PUSH0 DUP3 DUP3 MSTORE PUSH1 0x20 DUP3 ADD SWAP1 POP SWAP3 SWAP2 POP POP JUMP JUMPDEST PUSH32 0x546F6F206561726C790000000000000000000000000000000000000000000000 PUSH0 DUP3 ADD MSTORE POP JUMP JUMPDEST PUSH0 PUSH2 0x1128 PUSH1 0x9 DUP4 PUSH2 0x10E4 JUMP JUMPDEST SWAP2 POP PUSH2 0x1133 DUP3 PUSH2 0x10F4 JUMP JUMPDEST PUSH1 0x20 DUP3 ADD SWAP1 POP SWAP2 SWAP1 POP JUMP JUMPDEST PUSH0 PUSH1 0x20 DUP3 ADD SWAP1 POP DUP2 DUP2 SUB PUSH0 DUP4 ADD MSTORE PUSH2 0x1155 DUP2 PUSH2 0x111C JUMP JUMPDEST SWAP1 POP SWAP2 SWAP1 POP JUMP JUMPDEST PUSH32 0x416C726561647920636C61696D65640000000000000000000000000000000000 PUSH0 DUP3 ADD MSTORE POP JUMP JUMPDEST PUSH0 PUSH2 0x1190 PUSH1 0xF DUP4 PUSH2 0x10E4 JUMP JUMPDEST SWAP2 POP PUSH2 0x119B DUP3 PUSH2 0x115C JUMP JUMPDEST PUSH1 0x20 DUP3 ADD SWAP1 POP SWAP2 SWAP1 POP JUMP JUMPDEST PUSH0 PUSH1 0x20 DUP3 ADD SWAP1 POP DUP2 DUP2 SUB PUSH0 DUP4 ADD MSTORE PUSH2 0x11BD DUP2 PUSH2 0x1184 JUMP JUMPDEST SWAP1 POP SWAP2 SWAP1 POP JUMP JUMPDEST PUSH32 0x4E6F207374616B65000000000000000000000000000000000000000000000000 PUSH0 DUP3 ADD MSTORE POP JUMP JUMPDEST PUSH0 PUSH2 0x11F8 PUSH1 0x8 DUP4 PUSH2 0x10E4 JUMP JUMPDEST SWAP2 POP PUSH2 0x1203 DUP3 PUSH2 0x11C4 JUMP JUMPDEST PUSH1 0x20 DUP3 ADD SWAP1 POP SWAP2 SWAP1 POP JUMP JUMPDEST PUSH0 PUSH1 0x20 DUP3 ADD SWAP1 POP DUP2 DUP2 SUB PUSH0 DUP4 ADD MSTORE PUSH2 0x1225 DUP2 PUSH2 0x11EC JUMP JUMPDEST SWAP1 POP SWAP2 SWAP1 POP JUMP JUMPDEST PUSH32 0x4E487B7100000000000000000000000000000000000000000000000000000000 PUSH0 MSTORE PUSH1 0x11 PUSH1 0x4 MSTORE PUSH1 0x24 PUSH0 REVERT JUMPDEST PUSH0 PUSH2 0x1263 DUP3 PUSH2 0xF06 JUMP JUMPDEST SWAP2 POP PUSH2 0x126E DUP4 PUSH2 0xF06 JUMP JUMPDEST SWAP3 POP DUP3 DUP3 MUL PUSH2 0x127C DUP2 PUSH2 0xF06 JUMP JUMPDEST SWAP2 POP DUP3 DUP3 DIV DUP5 EQ DUP4 ISZERO OR PUSH2 0x1293 JUMPI PUSH2 0x1292 PUSH2 0x122C JUMP JUMPDEST JUMPDEST POP SWAP3 SWAP2 POP POP JUMP JUMPDEST PUSH32 0x4E487B7100000000000000000000000000000000000000000000000000000000 PUSH0 MSTORE PUSH1 0x12 PUSH1 0x4 MSTORE PUSH1 0x24 PUSH0 REVERT JUMPDEST PUSH0 PUSH2 0x12D1 DUP3 PUSH2 0xF06 JUMP JUMPDEST SWAP2 POP PUSH2 0x12DC DUP4 PUSH2 0xF06 JUMP JUMPDEST SWAP3 POP DUP3 PUSH2 0x12EC JUMPI PUSH2 0x12EB PUSH2 0x129A JUMP JUMPDEST JUMPDEST DUP3 DUP3 DIV SWAP1 POP SWAP3 SWAP2 POP POP JUMP JUMPDEST PUSH0 PUSH1 0x40 DUP3 ADD SWAP1 POP PUSH2 0x130A PUSH0 DUP4 ADD DUP6 PUSH2 0x1067 JUMP JUMPDEST PUSH2 0x1317 PUSH1 0x20 DUP4 ADD DUP5 PUSH2 0xF0F JUMP JUMPDEST SWAP4 SWAP3 POP POP POP JUMP JUMPDEST PUSH2 0x1327 DUP2 PUSH2 0x1034 JUMP JUMPDEST DUP2 EQ PUSH2 0x1331 JUMPI PUSH0 PUSH0 REVERT JUMPDEST POP JUMP JUMPDEST PUSH0 DUP2 MLOAD SWAP1 POP PUSH2 0x1342 DUP2 PUSH2 0x131E JUMP JUMPDEST SWAP3 SWAP2 POP POP JUMP JUMPDEST PUSH0 PUSH1 0x20 DUP3 DUP5 SUB SLT ISZERO PUSH2 0x135D JUMPI PUSH2 0x135C PUSH2 0xFCA JUMP JUMPDEST JUMPDEST PUSH0 PUSH2 0x136A DUP5 DUP3 DUP6 ADD PUSH2 0x1334 JUMP JUMPDEST SWAP2 POP POP SWAP3 SWAP2 POP POP JUMP JUMPDEST PUSH32 0x4E6F7420616C6C6F776564207965740000000000000000000000000000000000 PUSH0 DUP3 ADD MSTORE POP JUMP JUMPDEST PUSH0 PUSH2 0x13A7 PUSH1 0xF DUP4 PUSH2 0x10E4 JUMP JUMPDEST SWAP2 POP PUSH2 0x13B2 DUP3 PUSH2 0x1373 JUMP JUMPDEST PUSH1 0x20 DUP3 ADD SWAP1 POP SWAP2 SWAP1 POP JUMP JUMPDEST PUSH0 PUSH1 0x20 DUP3 ADD SWAP1 POP DUP2 DUP2 SUB PUSH0 DUP4 ADD MSTORE PUSH2 0x13D4 DUP2 PUSH2 0x139B JUMP JUMPDEST SWAP1 POP SWAP2 SWAP1 POP JUMP JUMPDEST PUSH0 DUP2 MLOAD SWAP1 POP PUSH2 0x13E9 DUP2 PUSH2 0x108F JUMP JUMPDEST SWAP3 SWAP2 POP POP JUMP JUMPDEST PUSH0 PUSH1 0x20 DUP3 DUP5 SUB SLT ISZERO PUSH2 0x1404 JUMPI PUSH2 0x1403 PUSH2 0xFCA JUMP JUMPDEST JUMPDEST PUSH0 PUSH2 0x1411 DUP5 DUP3 DUP6 ADD PUSH2 0x13DB JUMP JUMPDEST SWAP2 POP POP SWAP3 SWAP2 POP POP JUMP JUMPDEST PUSH32 0x4E6F742061637469766500000000000000000000000000000000000000000000 PUSH0 DUP3 ADD MSTORE POP JUMP JUMPDEST PUSH0 PUSH2 0x144E PUSH1 0xA DUP4 PUSH2 0x10E4 JUMP JUMPDEST SWAP2 POP PUSH2 0x1459 DUP3 PUSH2 0x141A JUMP JUMPDEST PUSH1 0x20 DUP3 ADD SWAP1 POP SWAP2 SWAP1 POP JUMP JUMPDEST PUSH0 PUSH1 0x20 DUP3 ADD SWAP1 POP DUP2 DUP2 SUB PUSH0 DUP4 ADD MSTORE PUSH2 0x147B DUP2 PUSH2 0x1442 JUMP JUMPDEST SWAP1 POP SWAP2 SWAP1 POP JUMP JUMPDEST PUSH32 0x5A65726F20616D6F756E74000000000000000000000000000000000000000000 PUSH0 DUP3 ADD MSTORE POP JUMP JUMPDEST PUSH0 PUSH2 0x14B6 PUSH1 0xB DUP4 PUSH2 0x10E4 JUMP JUMPDEST SWAP2 POP PUSH2 0x14C1 DUP3 PUSH2 0x1482 JUMP JUMPDEST PUSH1 0x20 DUP3 ADD SWAP1 POP SWAP2 SWAP1 POP JUMP JUMPDEST PUSH0 PUSH1 0x20 DUP3 ADD SWAP1 POP DUP2 DUP2 SUB PUSH0 DUP4 ADD MSTORE PUSH2 0x14E3 DUP2 PUSH2 0x14AA JUMP JUMPDEST SWAP1 POP SWAP2 SWAP1 POP JUMP JUMPDEST PUSH0 PUSH1 0x60 DUP3 ADD SWAP1 POP PUSH2 0x14FD PUSH0 DUP4 ADD DUP7 PUSH2 0x1067 JUMP JUMPDEST PUSH2 0x150A PUSH1 0x20 DUP4 ADD DUP6 PUSH2 0x1067 JUMP JUMPDEST PUSH2 0x1517 PUSH1 0x40 DUP4 ADD DUP5 PUSH2 0xF0F JUMP JUMPDEST SWAP5 SWAP4 POP POP POP POP JUMP JUMPDEST PUSH0 PUSH2 0x1529 DUP3 PUSH2 0xF06 JUMP JUMPDEST SWAP2 POP PUSH2 0x1534 DUP4 PUSH2 0xF06 JUMP JUMPDEST SWAP3 POP DUP3 DUP3 ADD SWAP1 POP DUP1 DUP3 GT ISZERO PUSH2 0x154C JUMPI PUSH2 0x154B PUSH2 0x122C JUMP JUMPDEST JUMPDEST SWAP3 SWAP2 POP POP JUMP INVALID LOG2 PUSH5 0x6970667358 0x22 SLT KECCAK256 DIV 0xDF 0xE8 0xCF PUSH5 0xB7848E07E8 0xCC PUSH12 0x7C3E6FB7B3D7A0188E158E17 0xBA 0x1F PUSH29 0xC8984E673D64736F6C634300081D003300000000000000000000000000 "
				},
				"gasEstimates": {
					"creation": {
						"codeDepositCost": "1102400",
						"executionCost": "infinite",
						"totalCost": "infinite"
					},
					"external": {
						"claim()": "infinite",
						"claimed()": "2554",
						"deposit(uint256)": "infinite",
						"emergencyWithdrawLP()": "infinite",
						"endTime()": "2449",
						"hasClaimed(address)": "2878",
						"lpToken()": "infinite",
						"offeringAmount()": "2491",
						"offeringToken()": "infinite",
						"owner()": "2559",
						"recoverExcessLP(address)": "infinite",
						"renounceOwnership()": "infinite",
						"startTime()": "2514",
						"totalStaked()": "2448",
						"transferOwnership(address)": "infinite",
						"userStake(address)": "2892",
						"withdrawUnclaimedOffering(address)": "infinite"
					}
				},
				"methodIdentifiers": {
					"claim()": "4e71d92d",
					"claimed()": "e834a834",
					"deposit(uint256)": "b6b55f25",
					"emergencyWithdrawLP()": "78417398",
					"endTime()": "3197cbb6",
					"hasClaimed(address)": "73b2e80e",
					"lpToken()": "5fcbd285",
					"offeringAmount()": "e1af9a95",
					"offeringToken()": "b7813607",
					"owner()": "8da5cb5b",
					"recoverExcessLP(address)": "9cc6424d",
					"renounceOwnership()": "715018a6",
					"startTime()": "78e97925",
					"totalStaked()": "817b1cd2",
					"transferOwnership(address)": "f2fde38b",
					"userStake(address)": "68e5585d",
					"withdrawUnclaimedOffering(address)": "e09f4df0"
				}
			},
			"storageLayout": {
				"storage": [
					{
						"astId": 8,
						"contract": "I/initial farm offering.sol:InitialFarmOffering",
						"label": "_owner",
						"offset": 0,
						"slot": "0",
						"type": "t_address"
					},
					{
						"astId": 265,
						"contract": "I/initial farm offering.sol:InitialFarmOffering",
						"label": "lpToken",
						"offset": 0,
						"slot": "1",
						"type": "t_contract(IERC20)225"
					},
					{
						"astId": 268,
						"contract": "I/initial farm offering.sol:InitialFarmOffering",
						"label": "offeringToken",
						"offset": 0,
						"slot": "2",
						"type": "t_contract(IERC20)225"
					},
					{
						"astId": 270,
						"contract": "I/initial farm offering.sol:InitialFarmOffering",
						"label": "startTime",
						"offset": 0,
						"slot": "3",
						"type": "t_uint256"
					},
					{
						"astId": 272,
						"contract": "I/initial farm offering.sol:InitialFarmOffering",
						"label": "endTime",
						"offset": 0,
						"slot": "4",
						"type": "t_uint256"
					},
					{
						"astId": 274,
						"contract": "I/initial farm offering.sol:InitialFarmOffering",
						"label": "offeringAmount",
						"offset": 0,
						"slot": "5",
						"type": "t_uint256"
					},
					{
						"astId": 276,
						"contract": "I/initial farm offering.sol:InitialFarmOffering",
						"label": "totalStaked",
						"offset": 0,
						"slot": "6",
						"type": "t_uint256"
					},
					{
						"astId": 278,
						"contract": "I/initial farm offering.sol:InitialFarmOffering",
						"label": "claimed",
						"offset": 0,
						"slot": "7",
						"type": "t_bool"
					},
					{
						"astId": 282,
						"contract": "I/initial farm offering.sol:InitialFarmOffering",
						"label": "userStake",
						"offset": 0,
						"slot": "8",
						"type": "t_mapping(t_address,t_uint256)"
					},
					{
						"astId": 286,
						"contract": "I/initial farm offering.sol:InitialFarmOffering",
						"label": "hasClaimed",
						"offset": 0,
						"slot": "9",
						"type": "t_mapping(t_address,t_bool)"
					}
				],
				"types": {
					"t_address": {
						"encoding": "inplace",
						"label": "address",
						"numberOfBytes": "20"
					},
					"t_bool": {
						"encoding": "inplace",
						"label": "bool",
						"numberOfBytes": "1"
					},
					"t_contract(IERC20)225": {
						"encoding": "inplace",
						"label": "contract IERC20",
						"numberOfBytes": "20"
					},
					"t_mapping(t_address,t_bool)": {
						"encoding": "mapping",
						"key": "t_address",
						"label": "mapping(address => bool)",
						"numberOfBytes": "32",
						"value": "t_bool"
					},
					"t_mapping(t_address,t_uint256)": {
						"encoding": "mapping",
						"key": "t_address",
						"label": "mapping(address => uint256)",
						"numberOfBytes": "32",
						"value": "t_uint256"
					},
					"t_uint256": {
						"encoding": "inplace",
						"label": "uint256",
						"numberOfBytes": "32"
					}
				}
			},
			"userdoc": {
				"kind": "user",
				"methods": {},
				"notice": "Users stake LP tokens to earn project tokens during a fixed offering period.",
				"version": 1
			}
		}
	}
}