{
	"I/isolated margin.sol": {
		"IsolatedMarginTrading": {
			"abi": [
				{
					"anonymous": false,
					"inputs": [
						{
							"indexed": false,
							"internalType": "uint256",
							"name": "id",
							"type": "uint256"
						},
						{
							"indexed": false,
							"internalType": "uint256",
							"name": "pnl",
							"type": "uint256"
						},
						{
							"indexed": false,
							"internalType": "bool",
							"name": "liquidated",
							"type": "bool"
						}
					],
					"name": "Closed",
					"type": "event"
				},
				{
					"anonymous": false,
					"inputs": [
						{
							"indexed": false,
							"internalType": "uint256",
							"name": "id",
							"type": "uint256"
						},
						{
							"indexed": false,
							"internalType": "address",
							"name": "trader",
							"type": "address"
						},
						{
							"indexed": false,
							"internalType": "uint256",
							"name": "margin",
							"type": "uint256"
						},
						{
							"indexed": false,
							"internalType": "uint256",
							"name": "size",
							"type": "uint256"
						},
						{
							"indexed": false,
							"internalType": "uint256",
							"name": "entryPrice",
							"type": "uint256"
						}
					],
					"name": "Opened",
					"type": "event"
				},
				{
					"inputs": [],
					"name": "LEVERAGE",
					"outputs": [
						{
							"internalType": "uint256",
							"name": "",
							"type": "uint256"
						}
					],
					"stateMutability": "view",
					"type": "function"
				},
				{
					"inputs": [],
					"name": "LIQUIDATION_THRESHOLD",
					"outputs": [
						{
							"internalType": "uint256",
							"name": "",
							"type": "uint256"
						}
					],
					"stateMutability": "view",
					"type": "function"
				},
				{
					"inputs": [
						{
							"internalType": "uint256",
							"name": "id",
							"type": "uint256"
						},
						{
							"internalType": "uint256",
							"name": "exitPrice",
							"type": "uint256"
						}
					],
					"name": "closePosition",
					"outputs": [],
					"stateMutability": "nonpayable",
					"type": "function"
				},
				{
					"inputs": [
						{
							"internalType": "uint256",
							"name": "entryPrice",
							"type": "uint256"
						}
					],
					"name": "openPosition",
					"outputs": [],
					"stateMutability": "payable",
					"type": "function"
				},
				{
					"inputs": [],
					"name": "positionId",
					"outputs": [
						{
							"internalType": "uint256",
							"name": "",
							"type": "uint256"
						}
					],
					"stateMutability": "view",
					"type": "function"
				},
				{
					"inputs": [
						{
							"internalType": "uint256",
							"name": "",
							"type": "uint256"
						}
					],
					"name": "positions",
					"outputs": [
						{
							"internalType": "address",
							"name": "trader",
							"type": "address"
						},
						{
							"internalType": "uint256",
							"name": "margin",
							"type": "uint256"
						},
						{
							"internalType": "uint256",
							"name": "size",
							"type": "uint256"
						},
						{
							"internalType": "uint256",
							"name": "entryPrice",
							"type": "uint256"
						},
						{
							"internalType": "bool",
							"name": "open",
							"type": "bool"
						}
					],
					"stateMutability": "view",
					"type": "function"
				},
				{
					"stateMutability": "payable",
					"type": "receive"
				}
			],
			"devdoc": {
				"kind": "dev",
				"methods": {},
				"version": 1
			},
			"evm": {
				"assembly": "    /* \"I/isolated margin.sol\":58:2110  contract IsolatedMarginTrading {... */\n  mstore(0x40, 0x80)\n  callvalue\n  dup1\n  iszero\n  tag_1\n  jumpi\n  revert(0x00, 0x00)\ntag_1:\n  pop\n  dataSize(sub_0)\n  dup1\n  dataOffset(sub_0)\n  0x00\n  codecopy\n  0x00\n  return\nstop\n\nsub_0: assembly {\n        /* \"I/isolated margin.sol\":58:2110  contract IsolatedMarginTrading {... */\n      mstore(0x40, 0x80)\n      jumpi(tag_1, lt(calldatasize, 0x04))\n      shr(0xe0, calldataload(0x00))\n      dup1\n      0x2d6ce61d\n      eq\n      tag_3\n      jumpi\n      dup1\n      0x71640de3\n      eq\n      tag_4\n      jumpi\n      dup1\n      0x8d01f0ba\n      eq\n      tag_5\n      jumpi\n      dup1\n      0x90a8ae9b\n      eq\n      tag_6\n      jumpi\n      dup1\n      0x99fbab88\n      eq\n      tag_7\n      jumpi\n      dup1\n      0x99ff8203\n      eq\n      tag_8\n      jumpi\n      jump(tag_2)\n    tag_1:\n      jumpi(tag_2, calldatasize)\n      stop\n    tag_2:\n      revert(0x00, 0x00)\n        /* \"I/isolated margin.sol\":1185:2073  function closePosition(uint256 id, uint256 exitPrice) external {... */\n    tag_3:\n      callvalue\n      dup1\n      iszero\n      tag_11\n      jumpi\n      revert(0x00, 0x00)\n    tag_11:\n      pop\n      tag_12\n      0x04\n      dup1\n      calldatasize\n      sub\n      dup2\n      add\n      swap1\n      tag_13\n      swap2\n      swap1\n      tag_14\n      jump\t// in\n    tag_13:\n      tag_15\n      jump\t// in\n    tag_12:\n      stop\n        /* \"I/isolated margin.sol\":479:504  uint256 public positionId */\n    tag_4:\n      callvalue\n      dup1\n      iszero\n      tag_16\n      jumpi\n      revert(0x00, 0x00)\n    tag_16:\n      pop\n      tag_17\n      tag_18\n      jump\t// in\n    tag_17:\n      mload(0x40)\n      tag_19\n      swap2\n      swap1\n      tag_20\n      jump\t// in\n    tag_19:\n      mload(0x40)\n      dup1\n      swap2\n      sub\n      swap1\n      return\n        /* \"I/isolated margin.sol\":342:378  uint256 public constant LEVERAGE = 5 */\n    tag_5:\n      callvalue\n      dup1\n      iszero\n      tag_21\n      jumpi\n      revert(0x00, 0x00)\n    tag_21:\n      pop\n      tag_22\n      tag_23\n      jump\t// in\n    tag_22:\n      mload(0x40)\n      tag_24\n      swap2\n      swap1\n      tag_20\n      jump\t// in\n    tag_24:\n      mload(0x40)\n      dup1\n      swap2\n      sub\n      swap1\n      return\n        /* \"I/isolated margin.sol\":384:434  uint256 public constant LIQUIDATION_THRESHOLD = 80 */\n    tag_6:\n      callvalue\n      dup1\n      iszero\n      tag_25\n      jumpi\n      revert(0x00, 0x00)\n    tag_25:\n      pop\n      tag_26\n      tag_27\n      jump\t// in\n    tag_26:\n      mload(0x40)\n      tag_28\n      swap2\n      swap1\n      tag_20\n      jump\t// in\n    tag_28:\n      mload(0x40)\n      dup1\n      swap2\n      sub\n      swap1\n      return\n        /* \"I/isolated margin.sol\":510:555  mapping(uint256 => Position) public positions */\n    tag_7:\n      callvalue\n      dup1\n      iszero\n      tag_29\n      jumpi\n      revert(0x00, 0x00)\n    tag_29:\n      pop\n      tag_30\n      0x04\n      dup1\n      calldatasize\n      sub\n      dup2\n      add\n      swap1\n      tag_31\n      swap2\n      swap1\n      tag_32\n      jump\t// in\n    tag_31:\n      tag_33\n      jump\t// in\n    tag_30:\n      mload(0x40)\n      tag_34\n      swap6\n      swap5\n      swap4\n      swap3\n      swap2\n      swap1\n      tag_35\n      jump\t// in\n    tag_34:\n      mload(0x40)\n      dup1\n      swap2\n      sub\n      swap1\n      return\n        /* \"I/isolated margin.sol\":719:1179  function openPosition(uint256 entryPrice) external payable {... */\n    tag_8:\n      tag_36\n      0x04\n      dup1\n      calldatasize\n      sub\n      dup2\n      add\n      swap1\n      tag_37\n      swap2\n      swap1\n      tag_32\n      jump\t// in\n    tag_37:\n      tag_38\n      jump\t// in\n    tag_36:\n      stop\n        /* \"I/isolated margin.sol\":1185:2073  function closePosition(uint256 id, uint256 exitPrice) external {... */\n    tag_15:\n        /* \"I/isolated margin.sol\":1258:1278  Position storage pos */\n      0x00\n        /* \"I/isolated margin.sol\":1281:1290  positions */\n      0x01\n        /* \"I/isolated margin.sol\":1281:1294  positions[id] */\n      0x00\n        /* \"I/isolated margin.sol\":1291:1293  id */\n      dup5\n        /* \"I/isolated margin.sol\":1281:1294  positions[id] */\n      dup2\n      mstore\n      0x20\n      add\n      swap1\n      dup2\n      mstore\n      0x20\n      add\n      0x00\n      keccak256\n        /* \"I/isolated margin.sol\":1258:1294  Position storage pos = positions[id] */\n      swap1\n      pop\n        /* \"I/isolated margin.sol\":1326:1336  msg.sender */\n      caller\n        /* \"I/isolated margin.sol\":1312:1336  pos.trader == msg.sender */\n      0xffffffffffffffffffffffffffffffffffffffff\n      and\n        /* \"I/isolated margin.sol\":1312:1315  pos */\n      dup2\n        /* \"I/isolated margin.sol\":1312:1322  pos.trader */\n      0x00\n      add\n      0x00\n      swap1\n      sload\n      swap1\n      0x0100\n      exp\n      swap1\n      div\n      0xffffffffffffffffffffffffffffffffffffffff\n      and\n        /* \"I/isolated margin.sol\":1312:1336  pos.trader == msg.sender */\n      0xffffffffffffffffffffffffffffffffffffffff\n      and\n      eq\n        /* \"I/isolated margin.sol\":1304:1358  require(pos.trader == msg.sender, \"Not your position\") */\n      tag_40\n      jumpi\n      mload(0x40)\n      0x08c379a000000000000000000000000000000000000000000000000000000000\n      dup2\n      mstore\n      0x04\n      add\n      tag_41\n      swap1\n      tag_42\n      jump\t// in\n    tag_41:\n      mload(0x40)\n      dup1\n      swap2\n      sub\n      swap1\n      revert\n    tag_40:\n        /* \"I/isolated margin.sol\":1376:1379  pos */\n      dup1\n        /* \"I/isolated margin.sol\":1376:1384  pos.open */\n      0x04\n      add\n      0x00\n      swap1\n      sload\n      swap1\n      0x0100\n      exp\n      swap1\n      div\n      0xff\n      and\n        /* \"I/isolated margin.sol\":1368:1403  require(pos.open, \"Already closed\") */\n      tag_43\n      jumpi\n      mload(0x40)\n      0x08c379a000000000000000000000000000000000000000000000000000000000\n      dup2\n      mstore\n      0x04\n      add\n      tag_44\n      swap1\n      tag_45\n      jump\t// in\n    tag_44:\n      mload(0x40)\n      dup1\n      swap2\n      sub\n      swap1\n      revert\n    tag_43:\n        /* \"I/isolated margin.sol\":1414:1425  uint256 pnl */\n      0x00\n        /* \"I/isolated margin.sol\":1435:1450  bool liquidated */\n      0x00\n        /* \"I/isolated margin.sol\":1453:1458  false */\n      0x00\n        /* \"I/isolated margin.sol\":1435:1458  bool liquidated = false */\n      swap1\n      pop\n        /* \"I/isolated margin.sol\":1485:1488  pos */\n      dup3\n        /* \"I/isolated margin.sol\":1485:1499  pos.entryPrice */\n      0x03\n      add\n      sload\n        /* \"I/isolated margin.sol\":1473:1482  exitPrice */\n      dup5\n        /* \"I/isolated margin.sol\":1473:1499  exitPrice < pos.entryPrice */\n      lt\n        /* \"I/isolated margin.sol\":1469:1913  if (exitPrice < pos.entryPrice) {... */\n      iszero\n      tag_46\n      jumpi\n        /* \"I/isolated margin.sol\":1515:1527  uint256 loss */\n      0x00\n        /* \"I/isolated margin.sol\":1574:1577  pos */\n      dup4\n        /* \"I/isolated margin.sol\":1574:1588  pos.entryPrice */\n      0x03\n      add\n      sload\n        /* \"I/isolated margin.sol\":1562:1565  pos */\n      dup5\n        /* \"I/isolated margin.sol\":1562:1570  pos.size */\n      0x02\n      add\n      sload\n        /* \"I/isolated margin.sol\":1549:1558  exitPrice */\n      dup7\n        /* \"I/isolated margin.sol\":1532:1535  pos */\n      dup7\n        /* \"I/isolated margin.sol\":1532:1546  pos.entryPrice */\n      0x03\n      add\n      sload\n        /* \"I/isolated margin.sol\":1532:1558  pos.entryPrice - exitPrice */\n      tag_47\n      swap2\n      swap1\n      tag_48\n      jump\t// in\n    tag_47:\n        /* \"I/isolated margin.sol\":1531:1570  (pos.entryPrice - exitPrice) * pos.size */\n      tag_49\n      swap2\n      swap1\n      tag_50\n      jump\t// in\n    tag_49:\n        /* \"I/isolated margin.sol\":1530:1588  ((pos.entryPrice - exitPrice) * pos.size) / pos.entryPrice */\n      tag_51\n      swap2\n      swap1\n      tag_52\n      jump\t// in\n    tag_51:\n        /* \"I/isolated margin.sol\":1515:1588  uint256 loss = ((pos.entryPrice - exitPrice) * pos.size) / pos.entryPrice */\n      swap1\n      pop\n        /* \"I/isolated margin.sol\":1653:1656  100 */\n      0x64\n        /* \"I/isolated margin.sol\":432:434  80 */\n      0x50\n        /* \"I/isolated margin.sol\":1615:1618  pos */\n      dup6\n        /* \"I/isolated margin.sol\":1615:1625  pos.margin */\n      0x01\n      add\n      sload\n        /* \"I/isolated margin.sol\":1615:1649  pos.margin * LIQUIDATION_THRESHOLD */\n      tag_53\n      swap2\n      swap1\n      tag_50\n      jump\t// in\n    tag_53:\n        /* \"I/isolated margin.sol\":1614:1656  (pos.margin * LIQUIDATION_THRESHOLD) / 100 */\n      tag_54\n      swap2\n      swap1\n      tag_52\n      jump\t// in\n    tag_54:\n        /* \"I/isolated margin.sol\":1606:1610  loss */\n      dup2\n        /* \"I/isolated margin.sol\":1606:1656  loss >= (pos.margin * LIQUIDATION_THRESHOLD) / 100 */\n      lt\n        /* \"I/isolated margin.sol\":1602:1795  if (loss >= (pos.margin * LIQUIDATION_THRESHOLD) / 100) {... */\n      tag_55\n      jumpi\n        /* \"I/isolated margin.sol\":1689:1693  true */\n      0x01\n        /* \"I/isolated margin.sol\":1676:1693  liquidated = true */\n      swap2\n      pop\n        /* \"I/isolated margin.sol\":1717:1718  0 */\n      0x00\n        /* \"I/isolated margin.sol\":1711:1718  pnl = 0 */\n      swap3\n      pop\n        /* \"I/isolated margin.sol\":1602:1795  if (loss >= (pos.margin * LIQUIDATION_THRESHOLD) / 100) {... */\n      jump(tag_56)\n    tag_55:\n        /* \"I/isolated margin.sol\":1776:1780  loss */\n      dup1\n        /* \"I/isolated margin.sol\":1763:1766  pos */\n      dup5\n        /* \"I/isolated margin.sol\":1763:1773  pos.margin */\n      0x01\n      add\n      sload\n        /* \"I/isolated margin.sol\":1763:1780  pos.margin - loss */\n      tag_57\n      swap2\n      swap1\n      tag_48\n      jump\t// in\n    tag_57:\n        /* \"I/isolated margin.sol\":1757:1780  pnl = pos.margin - loss */\n      swap3\n      pop\n        /* \"I/isolated margin.sol\":1602:1795  if (loss >= (pos.margin * LIQUIDATION_THRESHOLD) / 100) {... */\n    tag_56:\n        /* \"I/isolated margin.sol\":1501:1805  {... */\n      pop\n        /* \"I/isolated margin.sol\":1469:1913  if (exitPrice < pos.entryPrice) {... */\n      jump(tag_58)\n    tag_46:\n        /* \"I/isolated margin.sol\":1888:1891  pos */\n      dup3\n        /* \"I/isolated margin.sol\":1888:1902  pos.entryPrice */\n      0x03\n      add\n      sload\n        /* \"I/isolated margin.sol\":1876:1879  pos */\n      dup4\n        /* \"I/isolated margin.sol\":1876:1884  pos.size */\n      0x02\n      add\n      sload\n        /* \"I/isolated margin.sol\":1858:1861  pos */\n      dup5\n        /* \"I/isolated margin.sol\":1858:1872  pos.entryPrice */\n      0x03\n      add\n      sload\n        /* \"I/isolated margin.sol\":1846:1855  exitPrice */\n      dup7\n        /* \"I/isolated margin.sol\":1846:1872  exitPrice - pos.entryPrice */\n      tag_59\n      swap2\n      swap1\n      tag_48\n      jump\t// in\n    tag_59:\n        /* \"I/isolated margin.sol\":1845:1884  (exitPrice - pos.entryPrice) * pos.size */\n      tag_60\n      swap2\n      swap1\n      tag_50\n      jump\t// in\n    tag_60:\n        /* \"I/isolated margin.sol\":1844:1902  ((exitPrice - pos.entryPrice) * pos.size) / pos.entryPrice */\n      tag_61\n      swap2\n      swap1\n      tag_52\n      jump\t// in\n    tag_61:\n        /* \"I/isolated margin.sol\":1831:1834  pos */\n      dup4\n        /* \"I/isolated margin.sol\":1831:1841  pos.margin */\n      0x01\n      add\n      sload\n        /* \"I/isolated margin.sol\":1831:1902  pos.margin + ((exitPrice - pos.entryPrice) * pos.size) / pos.entryPrice */\n      tag_62\n      swap2\n      swap1\n      tag_63\n      jump\t// in\n    tag_62:\n        /* \"I/isolated margin.sol\":1825:1902  pnl = pos.margin + ((exitPrice - pos.entryPrice) * pos.size) / pos.entryPrice */\n      swap2\n      pop\n        /* \"I/isolated margin.sol\":1469:1913  if (exitPrice < pos.entryPrice) {... */\n    tag_58:\n        /* \"I/isolated margin.sol\":1934:1939  false */\n      0x00\n        /* \"I/isolated margin.sol\":1923:1926  pos */\n      dup4\n        /* \"I/isolated margin.sol\":1923:1931  pos.open */\n      0x04\n      add\n      0x00\n        /* \"I/isolated margin.sol\":1923:1939  pos.open = false */\n      0x0100\n      exp\n      dup2\n      sload\n      dup2\n      0xff\n      mul\n      not\n      and\n      swap1\n      dup4\n      iszero\n      iszero\n      mul\n      or\n      swap1\n      sstore\n      pop\n        /* \"I/isolated margin.sol\":1954:1981  Closed(id, pnl, liquidated) */\n      0x3d01866ecf8185ac8bdd566e25dd21ba7111fd17d6606e9e61b88e7c66f487eb\n        /* \"I/isolated margin.sol\":1961:1963  id */\n      dup6\n        /* \"I/isolated margin.sol\":1965:1968  pnl */\n      dup4\n        /* \"I/isolated margin.sol\":1970:1980  liquidated */\n      dup4\n        /* \"I/isolated margin.sol\":1954:1981  Closed(id, pnl, liquidated) */\n      mload(0x40)\n      tag_64\n      swap4\n      swap3\n      swap2\n      swap1\n      tag_65\n      jump\t// in\n    tag_64:\n      mload(0x40)\n      dup1\n      swap2\n      sub\n      swap1\n      log1\n        /* \"I/isolated margin.sol\":1997:2007  liquidated */\n      dup1\n        /* \"I/isolated margin.sol\":1992:2067  if (!liquidated) {... */\n      tag_66\n      jumpi\n        /* \"I/isolated margin.sol\":2031:2041  msg.sender */\n      caller\n        /* \"I/isolated margin.sol\":2023:2051  payable(msg.sender).transfer */\n      0xffffffffffffffffffffffffffffffffffffffff\n      and\n        /* \"I/isolated margin.sol\":2023:2056  payable(msg.sender).transfer(pnl) */\n      0x08fc\n        /* \"I/isolated margin.sol\":2052:2055  pnl */\n      dup4\n        /* \"I/isolated margin.sol\":2023:2056  payable(msg.sender).transfer(pnl) */\n      swap1\n      dup2\n      iszero\n      mul\n      swap1\n      mload(0x40)\n      0x00\n      mload(0x40)\n      dup1\n      dup4\n      sub\n      dup2\n      dup6\n      dup9\n      dup9\n      call\n      swap4\n      pop\n      pop\n      pop\n      pop\n      iszero\n      dup1\n      iszero\n      tag_68\n      jumpi\n      returndatacopy(0x00, 0x00, returndatasize)\n      revert(0x00, returndatasize)\n    tag_68:\n      pop\n        /* \"I/isolated margin.sol\":1992:2067  if (!liquidated) {... */\n    tag_66:\n        /* \"I/isolated margin.sol\":1248:2073  {... */\n      pop\n      pop\n      pop\n        /* \"I/isolated margin.sol\":1185:2073  function closePosition(uint256 id, uint256 exitPrice) external {... */\n      pop\n      pop\n      jump\t// out\n        /* \"I/isolated margin.sol\":479:504  uint256 public positionId */\n    tag_18:\n      sload(0x00)\n      dup2\n      jump\t// out\n        /* \"I/isolated margin.sol\":342:378  uint256 public constant LEVERAGE = 5 */\n    tag_23:\n        /* \"I/isolated margin.sol\":377:378  5 */\n      0x05\n        /* \"I/isolated margin.sol\":342:378  uint256 public constant LEVERAGE = 5 */\n      dup2\n      jump\t// out\n        /* \"I/isolated margin.sol\":384:434  uint256 public constant LIQUIDATION_THRESHOLD = 80 */\n    tag_27:\n        /* \"I/isolated margin.sol\":432:434  80 */\n      0x50\n        /* \"I/isolated margin.sol\":384:434  uint256 public constant LIQUIDATION_THRESHOLD = 80 */\n      dup2\n      jump\t// out\n        /* \"I/isolated margin.sol\":510:555  mapping(uint256 => Position) public positions */\n    tag_33:\n      mstore(0x20, 0x01)\n      dup1\n      0x00\n      mstore\n      keccak256(0x00, 0x40)\n      0x00\n      swap2\n      pop\n      swap1\n      pop\n      dup1\n      0x00\n      add\n      0x00\n      swap1\n      sload\n      swap1\n      0x0100\n      exp\n      swap1\n      div\n      0xffffffffffffffffffffffffffffffffffffffff\n      and\n      swap1\n      dup1\n      0x01\n      add\n      sload\n      swap1\n      dup1\n      0x02\n      add\n      sload\n      swap1\n      dup1\n      0x03\n      add\n      sload\n      swap1\n      dup1\n      0x04\n      add\n      0x00\n      swap1\n      sload\n      swap1\n      0x0100\n      exp\n      swap1\n      div\n      0xff\n      and\n      swap1\n      pop\n      dup6\n      jump\t// out\n        /* \"I/isolated margin.sol\":719:1179  function openPosition(uint256 entryPrice) external payable {... */\n    tag_38:\n        /* \"I/isolated margin.sol\":808:809  0 */\n      0x00\n        /* \"I/isolated margin.sol\":796:805  msg.value */\n      callvalue\n        /* \"I/isolated margin.sol\":796:809  msg.value > 0 */\n      gt\n        /* \"I/isolated margin.sol\":788:828  require(msg.value > 0, \"No margin sent\") */\n      tag_70\n      jumpi\n      mload(0x40)\n      0x08c379a000000000000000000000000000000000000000000000000000000000\n      dup2\n      mstore\n      0x04\n      add\n      tag_71\n      swap1\n      tag_72\n      jump\t// in\n    tag_71:\n      mload(0x40)\n      dup1\n      swap2\n      sub\n      swap1\n      revert\n    tag_70:\n        /* \"I/isolated margin.sol\":838:850  uint256 size */\n      0x00\n        /* \"I/isolated margin.sol\":377:378  5 */\n      0x05\n        /* \"I/isolated margin.sol\":853:862  msg.value */\n      callvalue\n        /* \"I/isolated margin.sol\":853:873  msg.value * LEVERAGE */\n      tag_73\n      swap2\n      swap1\n      tag_50\n      jump\t// in\n    tag_73:\n        /* \"I/isolated margin.sol\":838:873  uint256 size = msg.value * LEVERAGE */\n      swap1\n      pop\n        /* \"I/isolated margin.sol\":908:1075  Position({... */\n      mload(0x40)\n      dup1\n      0xa0\n      add\n      0x40\n      mstore\n      dup1\n        /* \"I/isolated margin.sol\":939:949  msg.sender */\n      caller\n        /* \"I/isolated margin.sol\":908:1075  Position({... */\n      0xffffffffffffffffffffffffffffffffffffffff\n      and\n      dup2\n      mstore\n      0x20\n      add\n        /* \"I/isolated margin.sol\":971:980  msg.value */\n      callvalue\n        /* \"I/isolated margin.sol\":908:1075  Position({... */\n      dup2\n      mstore\n      0x20\n      add\n        /* \"I/isolated margin.sol\":1000:1004  size */\n      dup3\n        /* \"I/isolated margin.sol\":908:1075  Position({... */\n      dup2\n      mstore\n      0x20\n      add\n        /* \"I/isolated margin.sol\":1030:1040  entryPrice */\n      dup4\n        /* \"I/isolated margin.sol\":908:1075  Position({... */\n      dup2\n      mstore\n      0x20\n      add\n        /* \"I/isolated margin.sol\":1060:1064  true */\n      0x01\n        /* \"I/isolated margin.sol\":908:1075  Position({... */\n      iszero\n      iszero\n      dup2\n      mstore\n      pop\n        /* \"I/isolated margin.sol\":884:893  positions */\n      0x01\n        /* \"I/isolated margin.sol\":884:905  positions[positionId] */\n      0x00\n        /* \"I/isolated margin.sol\":894:904  positionId */\n      sload(0x00)\n        /* \"I/isolated margin.sol\":884:905  positions[positionId] */\n      dup2\n      mstore\n      0x20\n      add\n      swap1\n      dup2\n      mstore\n      0x20\n      add\n      0x00\n      keccak256\n        /* \"I/isolated margin.sol\":884:1075  positions[positionId] = Position({... */\n      0x00\n      dup3\n      add\n      mload\n      dup2\n      0x00\n      add\n      exp(0x0100, 0x00)\n      dup2\n      sload\n      dup2\n      0xffffffffffffffffffffffffffffffffffffffff\n      mul\n      not\n      and\n      swap1\n      dup4\n      0xffffffffffffffffffffffffffffffffffffffff\n      and\n      mul\n      or\n      swap1\n      sstore\n      pop\n      0x20\n      dup3\n      add\n      mload\n      dup2\n      0x01\n      add\n      sstore\n      0x40\n      dup3\n      add\n      mload\n      dup2\n      0x02\n      add\n      sstore\n      0x60\n      dup3\n      add\n      mload\n      dup2\n      0x03\n      add\n      sstore\n      0x80\n      dup3\n      add\n      mload\n      dup2\n      0x04\n      add\n      exp(0x0100, 0x00)\n      dup2\n      sload\n      dup2\n      0xff\n      mul\n      not\n      and\n      swap1\n      dup4\n      iszero\n      iszero\n      mul\n      or\n      swap1\n      sstore\n      pop\n      swap1\n      pop\n      pop\n        /* \"I/isolated margin.sol\":1091:1150  Opened(positionId, msg.sender, msg.value, size, entryPrice) */\n      0xe46dd771cbb2a7bc2ee3f904902dfb1ce4c9cf03961b9fa7e25c9e3934c0deab\n        /* \"I/isolated margin.sol\":1098:1108  positionId */\n      sload(0x00)\n        /* \"I/isolated margin.sol\":1110:1120  msg.sender */\n      caller\n        /* \"I/isolated margin.sol\":1122:1131  msg.value */\n      callvalue\n        /* \"I/isolated margin.sol\":1133:1137  size */\n      dup5\n        /* \"I/isolated margin.sol\":1139:1149  entryPrice */\n      dup7\n        /* \"I/isolated margin.sol\":1091:1150  Opened(positionId, msg.sender, msg.value, size, entryPrice) */\n      mload(0x40)\n      tag_74\n      swap6\n      swap5\n      swap4\n      swap3\n      swap2\n      swap1\n      tag_75\n      jump\t// in\n    tag_74:\n      mload(0x40)\n      dup1\n      swap2\n      sub\n      swap1\n      log1\n        /* \"I/isolated margin.sol\":1160:1170  positionId */\n      0x00\n      0x00\n        /* \"I/isolated margin.sol\":1160:1172  positionId++ */\n      dup2\n      sload\n      dup1\n      swap3\n      swap2\n      swap1\n      tag_76\n      swap1\n      tag_77\n      jump\t// in\n    tag_76:\n      swap2\n      swap1\n      pop\n      sstore\n      pop\n        /* \"I/isolated margin.sol\":778:1179  {... */\n      pop\n        /* \"I/isolated margin.sol\":719:1179  function openPosition(uint256 entryPrice) external payable {... */\n      pop\n      jump\t// out\n        /* \"#utility.yul\":88:205   */\n    tag_79:\n        /* \"#utility.yul\":197:198   */\n      0x00\n        /* \"#utility.yul\":194:195   */\n      0x00\n        /* \"#utility.yul\":187:199   */\n      revert\n        /* \"#utility.yul\":334:411   */\n    tag_81:\n        /* \"#utility.yul\":371:378   */\n      0x00\n        /* \"#utility.yul\":400:405   */\n      dup2\n        /* \"#utility.yul\":389:405   */\n      swap1\n      pop\n        /* \"#utility.yul\":334:411   */\n      swap2\n      swap1\n      pop\n      jump\t// out\n        /* \"#utility.yul\":417:539   */\n    tag_82:\n        /* \"#utility.yul\":490:514   */\n      tag_105\n        /* \"#utility.yul\":508:513   */\n      dup2\n        /* \"#utility.yul\":490:514   */\n      tag_81\n      jump\t// in\n    tag_105:\n        /* \"#utility.yul\":483:488   */\n      dup2\n        /* \"#utility.yul\":480:515   */\n      eq\n        /* \"#utility.yul\":470:533   */\n      tag_106\n      jumpi\n        /* \"#utility.yul\":529:530   */\n      0x00\n        /* \"#utility.yul\":526:527   */\n      0x00\n        /* \"#utility.yul\":519:531   */\n      revert\n        /* \"#utility.yul\":470:533   */\n    tag_106:\n        /* \"#utility.yul\":417:539   */\n      pop\n      jump\t// out\n        /* \"#utility.yul\":545:684   */\n    tag_83:\n        /* \"#utility.yul\":591:596   */\n      0x00\n        /* \"#utility.yul\":629:635   */\n      dup2\n        /* \"#utility.yul\":616:636   */\n      calldataload\n        /* \"#utility.yul\":607:636   */\n      swap1\n      pop\n        /* \"#utility.yul\":645:678   */\n      tag_108\n        /* \"#utility.yul\":672:677   */\n      dup2\n        /* \"#utility.yul\":645:678   */\n      tag_82\n      jump\t// in\n    tag_108:\n        /* \"#utility.yul\":545:684   */\n      swap3\n      swap2\n      pop\n      pop\n      jump\t// out\n        /* \"#utility.yul\":690:1164   */\n    tag_14:\n        /* \"#utility.yul\":758:764   */\n      0x00\n        /* \"#utility.yul\":766:772   */\n      0x00\n        /* \"#utility.yul\":815:817   */\n      0x40\n        /* \"#utility.yul\":803:812   */\n      dup4\n        /* \"#utility.yul\":794:801   */\n      dup6\n        /* \"#utility.yul\":790:813   */\n      sub\n        /* \"#utility.yul\":786:818   */\n      slt\n        /* \"#utility.yul\":783:902   */\n      iszero\n      tag_110\n      jumpi\n        /* \"#utility.yul\":821:900   */\n      tag_111\n      tag_79\n      jump\t// in\n    tag_111:\n        /* \"#utility.yul\":783:902   */\n    tag_110:\n        /* \"#utility.yul\":941:942   */\n      0x00\n        /* \"#utility.yul\":966:1019   */\n      tag_112\n        /* \"#utility.yul\":1011:1018   */\n      dup6\n        /* \"#utility.yul\":1002:1008   */\n      dup3\n        /* \"#utility.yul\":991:1000   */\n      dup7\n        /* \"#utility.yul\":987:1009   */\n      add\n        /* \"#utility.yul\":966:1019   */\n      tag_83\n      jump\t// in\n    tag_112:\n        /* \"#utility.yul\":956:1019   */\n      swap3\n      pop\n        /* \"#utility.yul\":912:1029   */\n      pop\n        /* \"#utility.yul\":1068:1070   */\n      0x20\n        /* \"#utility.yul\":1094:1147   */\n      tag_113\n        /* \"#utility.yul\":1139:1146   */\n      dup6\n        /* \"#utility.yul\":1130:1136   */\n      dup3\n        /* \"#utility.yul\":1119:1128   */\n      dup7\n        /* \"#utility.yul\":1115:1137   */\n      add\n        /* \"#utility.yul\":1094:1147   */\n      tag_83\n      jump\t// in\n    tag_113:\n        /* \"#utility.yul\":1084:1147   */\n      swap2\n      pop\n        /* \"#utility.yul\":1039:1157   */\n      pop\n        /* \"#utility.yul\":690:1164   */\n      swap3\n      pop\n      swap3\n      swap1\n      pop\n      jump\t// out\n        /* \"#utility.yul\":1170:1288   */\n    tag_84:\n        /* \"#utility.yul\":1257:1281   */\n      tag_115\n        /* \"#utility.yul\":1275:1280   */\n      dup2\n        /* \"#utility.yul\":1257:1281   */\n      tag_81\n      jump\t// in\n    tag_115:\n        /* \"#utility.yul\":1252:1255   */\n      dup3\n        /* \"#utility.yul\":1245:1282   */\n      mstore\n        /* \"#utility.yul\":1170:1288   */\n      pop\n      pop\n      jump\t// out\n        /* \"#utility.yul\":1294:1516   */\n    tag_20:\n        /* \"#utility.yul\":1387:1391   */\n      0x00\n        /* \"#utility.yul\":1425:1427   */\n      0x20\n        /* \"#utility.yul\":1414:1423   */\n      dup3\n        /* \"#utility.yul\":1410:1428   */\n      add\n        /* \"#utility.yul\":1402:1428   */\n      swap1\n      pop\n        /* \"#utility.yul\":1438:1509   */\n      tag_117\n        /* \"#utility.yul\":1506:1507   */\n      0x00\n        /* \"#utility.yul\":1495:1504   */\n      dup4\n        /* \"#utility.yul\":1491:1508   */\n      add\n        /* \"#utility.yul\":1482:1488   */\n      dup5\n        /* \"#utility.yul\":1438:1509   */\n      tag_84\n      jump\t// in\n    tag_117:\n        /* \"#utility.yul\":1294:1516   */\n      swap3\n      swap2\n      pop\n      pop\n      jump\t// out\n        /* \"#utility.yul\":1522:1851   */\n    tag_32:\n        /* \"#utility.yul\":1581:1587   */\n      0x00\n        /* \"#utility.yul\":1630:1632   */\n      0x20\n        /* \"#utility.yul\":1618:1627   */\n      dup3\n        /* \"#utility.yul\":1609:1616   */\n      dup5\n        /* \"#utility.yul\":1605:1628   */\n      sub\n        /* \"#utility.yul\":1601:1633   */\n      slt\n        /* \"#utility.yul\":1598:1717   */\n      iszero\n      tag_119\n      jumpi\n        /* \"#utility.yul\":1636:1715   */\n      tag_120\n      tag_79\n      jump\t// in\n    tag_120:\n        /* \"#utility.yul\":1598:1717   */\n    tag_119:\n        /* \"#utility.yul\":1756:1757   */\n      0x00\n        /* \"#utility.yul\":1781:1834   */\n      tag_121\n        /* \"#utility.yul\":1826:1833   */\n      dup5\n        /* \"#utility.yul\":1817:1823   */\n      dup3\n        /* \"#utility.yul\":1806:1815   */\n      dup6\n        /* \"#utility.yul\":1802:1824   */\n      add\n        /* \"#utility.yul\":1781:1834   */\n      tag_83\n      jump\t// in\n    tag_121:\n        /* \"#utility.yul\":1771:1834   */\n      swap2\n      pop\n        /* \"#utility.yul\":1727:1844   */\n      pop\n        /* \"#utility.yul\":1522:1851   */\n      swap3\n      swap2\n      pop\n      pop\n      jump\t// out\n        /* \"#utility.yul\":1857:1983   */\n    tag_85:\n        /* \"#utility.yul\":1894:1901   */\n      0x00\n        /* \"#utility.yul\":1934:1976   */\n      0xffffffffffffffffffffffffffffffffffffffff\n        /* \"#utility.yul\":1927:1932   */\n      dup3\n        /* \"#utility.yul\":1923:1977   */\n      and\n        /* \"#utility.yul\":1912:1977   */\n      swap1\n      pop\n        /* \"#utility.yul\":1857:1983   */\n      swap2\n      swap1\n      pop\n      jump\t// out\n        /* \"#utility.yul\":1989:2085   */\n    tag_86:\n        /* \"#utility.yul\":2026:2033   */\n      0x00\n        /* \"#utility.yul\":2055:2079   */\n      tag_124\n        /* \"#utility.yul\":2073:2078   */\n      dup3\n        /* \"#utility.yul\":2055:2079   */\n      tag_85\n      jump\t// in\n    tag_124:\n        /* \"#utility.yul\":2044:2079   */\n      swap1\n      pop\n        /* \"#utility.yul\":1989:2085   */\n      swap2\n      swap1\n      pop\n      jump\t// out\n        /* \"#utility.yul\":2091:2209   */\n    tag_87:\n        /* \"#utility.yul\":2178:2202   */\n      tag_126\n        /* \"#utility.yul\":2196:2201   */\n      dup2\n        /* \"#utility.yul\":2178:2202   */\n      tag_86\n      jump\t// in\n    tag_126:\n        /* \"#utility.yul\":2173:2176   */\n      dup3\n        /* \"#utility.yul\":2166:2203   */\n      mstore\n        /* \"#utility.yul\":2091:2209   */\n      pop\n      pop\n      jump\t// out\n        /* \"#utility.yul\":2215:2305   */\n    tag_88:\n        /* \"#utility.yul\":2249:2256   */\n      0x00\n        /* \"#utility.yul\":2292:2297   */\n      dup2\n        /* \"#utility.yul\":2285:2298   */\n      iszero\n        /* \"#utility.yul\":2278:2299   */\n      iszero\n        /* \"#utility.yul\":2267:2299   */\n      swap1\n      pop\n        /* \"#utility.yul\":2215:2305   */\n      swap2\n      swap1\n      pop\n      jump\t// out\n        /* \"#utility.yul\":2311:2420   */\n    tag_89:\n        /* \"#utility.yul\":2392:2413   */\n      tag_129\n        /* \"#utility.yul\":2407:2412   */\n      dup2\n        /* \"#utility.yul\":2392:2413   */\n      tag_88\n      jump\t// in\n    tag_129:\n        /* \"#utility.yul\":2387:2390   */\n      dup3\n        /* \"#utility.yul\":2380:2414   */\n      mstore\n        /* \"#utility.yul\":2311:2420   */\n      pop\n      pop\n      jump\t// out\n        /* \"#utility.yul\":2426:3078   */\n    tag_35:\n        /* \"#utility.yul\":2625:2629   */\n      0x00\n        /* \"#utility.yul\":2663:2666   */\n      0xa0\n        /* \"#utility.yul\":2652:2661   */\n      dup3\n        /* \"#utility.yul\":2648:2667   */\n      add\n        /* \"#utility.yul\":2640:2667   */\n      swap1\n      pop\n        /* \"#utility.yul\":2677:2748   */\n      tag_131\n        /* \"#utility.yul\":2745:2746   */\n      0x00\n        /* \"#utility.yul\":2734:2743   */\n      dup4\n        /* \"#utility.yul\":2730:2747   */\n      add\n        /* \"#utility.yul\":2721:2727   */\n      dup9\n        /* \"#utility.yul\":2677:2748   */\n      tag_87\n      jump\t// in\n    tag_131:\n        /* \"#utility.yul\":2758:2830   */\n      tag_132\n        /* \"#utility.yul\":2826:2828   */\n      0x20\n        /* \"#utility.yul\":2815:2824   */\n      dup4\n        /* \"#utility.yul\":2811:2829   */\n      add\n        /* \"#utility.yul\":2802:2808   */\n      dup8\n        /* \"#utility.yul\":2758:2830   */\n      tag_84\n      jump\t// in\n    tag_132:\n        /* \"#utility.yul\":2840:2912   */\n      tag_133\n        /* \"#utility.yul\":2908:2910   */\n      0x40\n        /* \"#utility.yul\":2897:2906   */\n      dup4\n        /* \"#utility.yul\":2893:2911   */\n      add\n        /* \"#utility.yul\":2884:2890   */\n      dup7\n        /* \"#utility.yul\":2840:2912   */\n      tag_84\n      jump\t// in\n    tag_133:\n        /* \"#utility.yul\":2922:2994   */\n      tag_134\n        /* \"#utility.yul\":2990:2992   */\n      0x60\n        /* \"#utility.yul\":2979:2988   */\n      dup4\n        /* \"#utility.yul\":2975:2993   */\n      add\n        /* \"#utility.yul\":2966:2972   */\n      dup6\n        /* \"#utility.yul\":2922:2994   */\n      tag_84\n      jump\t// in\n    tag_134:\n        /* \"#utility.yul\":3004:3071   */\n      tag_135\n        /* \"#utility.yul\":3066:3069   */\n      0x80\n        /* \"#utility.yul\":3055:3064   */\n      dup4\n        /* \"#utility.yul\":3051:3070   */\n      add\n        /* \"#utility.yul\":3042:3048   */\n      dup5\n        /* \"#utility.yul\":3004:3071   */\n      tag_89\n      jump\t// in\n    tag_135:\n        /* \"#utility.yul\":2426:3078   */\n      swap7\n      swap6\n      pop\n      pop\n      pop\n      pop\n      pop\n      pop\n      jump\t// out\n        /* \"#utility.yul\":3084:3253   */\n    tag_90:\n        /* \"#utility.yul\":3168:3179   */\n      0x00\n        /* \"#utility.yul\":3202:3208   */\n      dup3\n        /* \"#utility.yul\":3197:3200   */\n      dup3\n        /* \"#utility.yul\":3190:3209   */\n      mstore\n        /* \"#utility.yul\":3242:3246   */\n      0x20\n        /* \"#utility.yul\":3237:3240   */\n      dup3\n        /* \"#utility.yul\":3233:3247   */\n      add\n        /* \"#utility.yul\":3218:3247   */\n      swap1\n      pop\n        /* \"#utility.yul\":3084:3253   */\n      swap3\n      swap2\n      pop\n      pop\n      jump\t// out\n        /* \"#utility.yul\":3259:3426   */\n    tag_91:\n        /* \"#utility.yul\":3399:3418   */\n      0x4e6f7420796f757220706f736974696f6e000000000000000000000000000000\n        /* \"#utility.yul\":3395:3396   */\n      0x00\n        /* \"#utility.yul\":3387:3393   */\n      dup3\n        /* \"#utility.yul\":3383:3397   */\n      add\n        /* \"#utility.yul\":3376:3419   */\n      mstore\n        /* \"#utility.yul\":3259:3426   */\n      pop\n      jump\t// out\n        /* \"#utility.yul\":3432:3798   */\n    tag_92:\n        /* \"#utility.yul\":3574:3577   */\n      0x00\n        /* \"#utility.yul\":3595:3662   */\n      tag_139\n        /* \"#utility.yul\":3659:3661   */\n      0x11\n        /* \"#utility.yul\":3654:3657   */\n      dup4\n        /* \"#utility.yul\":3595:3662   */\n      tag_90\n      jump\t// in\n    tag_139:\n        /* \"#utility.yul\":3588:3662   */\n      swap2\n      pop\n        /* \"#utility.yul\":3671:3764   */\n      tag_140\n        /* \"#utility.yul\":3760:3763   */\n      dup3\n        /* \"#utility.yul\":3671:3764   */\n      tag_91\n      jump\t// in\n    tag_140:\n        /* \"#utility.yul\":3789:3791   */\n      0x20\n        /* \"#utility.yul\":3784:3787   */\n      dup3\n        /* \"#utility.yul\":3780:3792   */\n      add\n        /* \"#utility.yul\":3773:3792   */\n      swap1\n      pop\n        /* \"#utility.yul\":3432:3798   */\n      swap2\n      swap1\n      pop\n      jump\t// out\n        /* \"#utility.yul\":3804:4223   */\n    tag_42:\n        /* \"#utility.yul\":3970:3974   */\n      0x00\n        /* \"#utility.yul\":4008:4010   */\n      0x20\n        /* \"#utility.yul\":3997:4006   */\n      dup3\n        /* \"#utility.yul\":3993:4011   */\n      add\n        /* \"#utility.yul\":3985:4011   */\n      swap1\n      pop\n        /* \"#utility.yul\":4057:4066   */\n      dup2\n        /* \"#utility.yul\":4051:4055   */\n      dup2\n        /* \"#utility.yul\":4047:4067   */\n      sub\n        /* \"#utility.yul\":4043:4044   */\n      0x00\n        /* \"#utility.yul\":4032:4041   */\n      dup4\n        /* \"#utility.yul\":4028:4045   */\n      add\n        /* \"#utility.yul\":4021:4068   */\n      mstore\n        /* \"#utility.yul\":4085:4216   */\n      tag_142\n        /* \"#utility.yul\":4211:4215   */\n      dup2\n        /* \"#utility.yul\":4085:4216   */\n      tag_92\n      jump\t// in\n    tag_142:\n        /* \"#utility.yul\":4077:4216   */\n      swap1\n      pop\n        /* \"#utility.yul\":3804:4223   */\n      swap2\n      swap1\n      pop\n      jump\t// out\n        /* \"#utility.yul\":4229:4393   */\n    tag_93:\n        /* \"#utility.yul\":4369:4385   */\n      0x416c726561647920636c6f736564000000000000000000000000000000000000\n        /* \"#utility.yul\":4365:4366   */\n      0x00\n        /* \"#utility.yul\":4357:4363   */\n      dup3\n        /* \"#utility.yul\":4353:4367   */\n      add\n        /* \"#utility.yul\":4346:4386   */\n      mstore\n        /* \"#utility.yul\":4229:4393   */\n      pop\n      jump\t// out\n        /* \"#utility.yul\":4399:4765   */\n    tag_94:\n        /* \"#utility.yul\":4541:4544   */\n      0x00\n        /* \"#utility.yul\":4562:4629   */\n      tag_145\n        /* \"#utility.yul\":4626:4628   */\n      0x0e\n        /* \"#utility.yul\":4621:4624   */\n      dup4\n        /* \"#utility.yul\":4562:4629   */\n      tag_90\n      jump\t// in\n    tag_145:\n        /* \"#utility.yul\":4555:4629   */\n      swap2\n      pop\n        /* \"#utility.yul\":4638:4731   */\n      tag_146\n        /* \"#utility.yul\":4727:4730   */\n      dup3\n        /* \"#utility.yul\":4638:4731   */\n      tag_93\n      jump\t// in\n    tag_146:\n        /* \"#utility.yul\":4756:4758   */\n      0x20\n        /* \"#utility.yul\":4751:4754   */\n      dup3\n        /* \"#utility.yul\":4747:4759   */\n      add\n        /* \"#utility.yul\":4740:4759   */\n      swap1\n      pop\n        /* \"#utility.yul\":4399:4765   */\n      swap2\n      swap1\n      pop\n      jump\t// out\n        /* \"#utility.yul\":4771:5190   */\n    tag_45:\n        /* \"#utility.yul\":4937:4941   */\n      0x00\n        /* \"#utility.yul\":4975:4977   */\n      0x20\n        /* \"#utility.yul\":4964:4973   */\n      dup3\n        /* \"#utility.yul\":4960:4978   */\n      add\n        /* \"#utility.yul\":4952:4978   */\n      swap1\n      pop\n        /* \"#utility.yul\":5024:5033   */\n      dup2\n        /* \"#utility.yul\":5018:5022   */\n      dup2\n        /* \"#utility.yul\":5014:5034   */\n      sub\n        /* \"#utility.yul\":5010:5011   */\n      0x00\n        /* \"#utility.yul\":4999:5008   */\n      dup4\n        /* \"#utility.yul\":4995:5012   */\n      add\n        /* \"#utility.yul\":4988:5035   */\n      mstore\n        /* \"#utility.yul\":5052:5183   */\n      tag_148\n        /* \"#utility.yul\":5178:5182   */\n      dup2\n        /* \"#utility.yul\":5052:5183   */\n      tag_94\n      jump\t// in\n    tag_148:\n        /* \"#utility.yul\":5044:5183   */\n      swap1\n      pop\n        /* \"#utility.yul\":4771:5190   */\n      swap2\n      swap1\n      pop\n      jump\t// out\n        /* \"#utility.yul\":5196:5376   */\n    tag_95:\n        /* \"#utility.yul\":5244:5321   */\n      0x4e487b7100000000000000000000000000000000000000000000000000000000\n        /* \"#utility.yul\":5241:5242   */\n      0x00\n        /* \"#utility.yul\":5234:5322   */\n      mstore\n        /* \"#utility.yul\":5341:5345   */\n      0x11\n        /* \"#utility.yul\":5338:5339   */\n      0x04\n        /* \"#utility.yul\":5331:5346   */\n      mstore\n        /* \"#utility.yul\":5365:5369   */\n      0x24\n        /* \"#utility.yul\":5362:5363   */\n      0x00\n        /* \"#utility.yul\":5355:5370   */\n      revert\n        /* \"#utility.yul\":5382:5576   */\n    tag_48:\n        /* \"#utility.yul\":5422:5426   */\n      0x00\n        /* \"#utility.yul\":5442:5462   */\n      tag_151\n        /* \"#utility.yul\":5460:5461   */\n      dup3\n        /* \"#utility.yul\":5442:5462   */\n      tag_81\n      jump\t// in\n    tag_151:\n        /* \"#utility.yul\":5437:5462   */\n      swap2\n      pop\n        /* \"#utility.yul\":5476:5496   */\n      tag_152\n        /* \"#utility.yul\":5494:5495   */\n      dup4\n        /* \"#utility.yul\":5476:5496   */\n      tag_81\n      jump\t// in\n    tag_152:\n        /* \"#utility.yul\":5471:5496   */\n      swap3\n      pop\n        /* \"#utility.yul\":5520:5521   */\n      dup3\n        /* \"#utility.yul\":5517:5518   */\n      dup3\n        /* \"#utility.yul\":5513:5522   */\n      sub\n        /* \"#utility.yul\":5505:5522   */\n      swap1\n      pop\n        /* \"#utility.yul\":5544:5545   */\n      dup2\n        /* \"#utility.yul\":5538:5542   */\n      dup2\n        /* \"#utility.yul\":5535:5546   */\n      gt\n        /* \"#utility.yul\":5532:5569   */\n      iszero\n      tag_153\n      jumpi\n        /* \"#utility.yul\":5549:5567   */\n      tag_154\n      tag_95\n      jump\t// in\n    tag_154:\n        /* \"#utility.yul\":5532:5569   */\n    tag_153:\n        /* \"#utility.yul\":5382:5576   */\n      swap3\n      swap2\n      pop\n      pop\n      jump\t// out\n        /* \"#utility.yul\":5582:5992   */\n    tag_50:\n        /* \"#utility.yul\":5622:5629   */\n      0x00\n        /* \"#utility.yul\":5645:5665   */\n      tag_156\n        /* \"#utility.yul\":5663:5664   */\n      dup3\n        /* \"#utility.yul\":5645:5665   */\n      tag_81\n      jump\t// in\n    tag_156:\n        /* \"#utility.yul\":5640:5665   */\n      swap2\n      pop\n        /* \"#utility.yul\":5679:5699   */\n      tag_157\n        /* \"#utility.yul\":5697:5698   */\n      dup4\n        /* \"#utility.yul\":5679:5699   */\n      tag_81\n      jump\t// in\n    tag_157:\n        /* \"#utility.yul\":5674:5699   */\n      swap3\n      pop\n        /* \"#utility.yul\":5734:5735   */\n      dup3\n        /* \"#utility.yul\":5731:5732   */\n      dup3\n        /* \"#utility.yul\":5727:5736   */\n      mul\n        /* \"#utility.yul\":5756:5786   */\n      tag_158\n        /* \"#utility.yul\":5774:5785   */\n      dup2\n        /* \"#utility.yul\":5756:5786   */\n      tag_81\n      jump\t// in\n    tag_158:\n        /* \"#utility.yul\":5745:5786   */\n      swap2\n      pop\n        /* \"#utility.yul\":5935:5936   */\n      dup3\n        /* \"#utility.yul\":5926:5933   */\n      dup3\n        /* \"#utility.yul\":5922:5937   */\n      div\n        /* \"#utility.yul\":5919:5920   */\n      dup5\n        /* \"#utility.yul\":5916:5938   */\n      eq\n        /* \"#utility.yul\":5896:5897   */\n      dup4\n        /* \"#utility.yul\":5889:5898   */\n      iszero\n        /* \"#utility.yul\":5869:5952   */\n      or\n        /* \"#utility.yul\":5846:5985   */\n      tag_159\n      jumpi\n        /* \"#utility.yul\":5965:5983   */\n      tag_160\n      tag_95\n      jump\t// in\n    tag_160:\n        /* \"#utility.yul\":5846:5985   */\n    tag_159:\n        /* \"#utility.yul\":5630:5992   */\n      pop\n        /* \"#utility.yul\":5582:5992   */\n      swap3\n      swap2\n      pop\n      pop\n      jump\t// out\n        /* \"#utility.yul\":5998:6178   */\n    tag_96:\n        /* \"#utility.yul\":6046:6123   */\n      0x4e487b7100000000000000000000000000000000000000000000000000000000\n        /* \"#utility.yul\":6043:6044   */\n      0x00\n        /* \"#utility.yul\":6036:6124   */\n      mstore\n        /* \"#utility.yul\":6143:6147   */\n      0x12\n        /* \"#utility.yul\":6140:6141   */\n      0x04\n        /* \"#utility.yul\":6133:6148   */\n      mstore\n        /* \"#utility.yul\":6167:6171   */\n      0x24\n        /* \"#utility.yul\":6164:6165   */\n      0x00\n        /* \"#utility.yul\":6157:6172   */\n      revert\n        /* \"#utility.yul\":6184:6369   */\n    tag_52:\n        /* \"#utility.yul\":6224:6225   */\n      0x00\n        /* \"#utility.yul\":6241:6261   */\n      tag_163\n        /* \"#utility.yul\":6259:6260   */\n      dup3\n        /* \"#utility.yul\":6241:6261   */\n      tag_81\n      jump\t// in\n    tag_163:\n        /* \"#utility.yul\":6236:6261   */\n      swap2\n      pop\n        /* \"#utility.yul\":6275:6295   */\n      tag_164\n        /* \"#utility.yul\":6293:6294   */\n      dup4\n        /* \"#utility.yul\":6275:6295   */\n      tag_81\n      jump\t// in\n    tag_164:\n        /* \"#utility.yul\":6270:6295   */\n      swap3\n      pop\n        /* \"#utility.yul\":6314:6315   */\n      dup3\n        /* \"#utility.yul\":6304:6339   */\n      tag_165\n      jumpi\n        /* \"#utility.yul\":6319:6337   */\n      tag_166\n      tag_96\n      jump\t// in\n    tag_166:\n        /* \"#utility.yul\":6304:6339   */\n    tag_165:\n        /* \"#utility.yul\":6361:6362   */\n      dup3\n        /* \"#utility.yul\":6358:6359   */\n      dup3\n        /* \"#utility.yul\":6354:6363   */\n      div\n        /* \"#utility.yul\":6349:6363   */\n      swap1\n      pop\n        /* \"#utility.yul\":6184:6369   */\n      swap3\n      swap2\n      pop\n      pop\n      jump\t// out\n        /* \"#utility.yul\":6375:6566   */\n    tag_63:\n        /* \"#utility.yul\":6415:6418   */\n      0x00\n        /* \"#utility.yul\":6434:6454   */\n      tag_168\n        /* \"#utility.yul\":6452:6453   */\n      dup3\n        /* \"#utility.yul\":6434:6454   */\n      tag_81\n      jump\t// in\n    tag_168:\n        /* \"#utility.yul\":6429:6454   */\n      swap2\n      pop\n        /* \"#utility.yul\":6468:6488   */\n      tag_169\n        /* \"#utility.yul\":6486:6487   */\n      dup4\n        /* \"#utility.yul\":6468:6488   */\n      tag_81\n      jump\t// in\n    tag_169:\n        /* \"#utility.yul\":6463:6488   */\n      swap3\n      pop\n        /* \"#utility.yul\":6511:6512   */\n      dup3\n        /* \"#utility.yul\":6508:6509   */\n      dup3\n        /* \"#utility.yul\":6504:6513   */\n      add\n        /* \"#utility.yul\":6497:6513   */\n      swap1\n      pop\n        /* \"#utility.yul\":6532:6535   */\n      dup1\n        /* \"#utility.yul\":6529:6530   */\n      dup3\n        /* \"#utility.yul\":6526:6536   */\n      gt\n        /* \"#utility.yul\":6523:6559   */\n      iszero\n      tag_170\n      jumpi\n        /* \"#utility.yul\":6539:6557   */\n      tag_171\n      tag_95\n      jump\t// in\n    tag_171:\n        /* \"#utility.yul\":6523:6559   */\n    tag_170:\n        /* \"#utility.yul\":6375:6566   */\n      swap3\n      swap2\n      pop\n      pop\n      jump\t// out\n        /* \"#utility.yul\":6572:7002   */\n    tag_65:\n        /* \"#utility.yul\":6715:6719   */\n      0x00\n        /* \"#utility.yul\":6753:6755   */\n      0x60\n        /* \"#utility.yul\":6742:6751   */\n      dup3\n        /* \"#utility.yul\":6738:6756   */\n      add\n        /* \"#utility.yul\":6730:6756   */\n      swap1\n      pop\n        /* \"#utility.yul\":6766:6837   */\n      tag_173\n        /* \"#utility.yul\":6834:6835   */\n      0x00\n        /* \"#utility.yul\":6823:6832   */\n      dup4\n        /* \"#utility.yul\":6819:6836   */\n      add\n        /* \"#utility.yul\":6810:6816   */\n      dup7\n        /* \"#utility.yul\":6766:6837   */\n      tag_84\n      jump\t// in\n    tag_173:\n        /* \"#utility.yul\":6847:6919   */\n      tag_174\n        /* \"#utility.yul\":6915:6917   */\n      0x20\n        /* \"#utility.yul\":6904:6913   */\n      dup4\n        /* \"#utility.yul\":6900:6918   */\n      add\n        /* \"#utility.yul\":6891:6897   */\n      dup6\n        /* \"#utility.yul\":6847:6919   */\n      tag_84\n      jump\t// in\n    tag_174:\n        /* \"#utility.yul\":6929:6995   */\n      tag_175\n        /* \"#utility.yul\":6991:6993   */\n      0x40\n        /* \"#utility.yul\":6980:6989   */\n      dup4\n        /* \"#utility.yul\":6976:6994   */\n      add\n        /* \"#utility.yul\":6967:6973   */\n      dup5\n        /* \"#utility.yul\":6929:6995   */\n      tag_89\n      jump\t// in\n    tag_175:\n        /* \"#utility.yul\":6572:7002   */\n      swap5\n      swap4\n      pop\n      pop\n      pop\n      pop\n      jump\t// out\n        /* \"#utility.yul\":7008:7172   */\n    tag_97:\n        /* \"#utility.yul\":7148:7164   */\n      0x4e6f206d617267696e2073656e74000000000000000000000000000000000000\n        /* \"#utility.yul\":7144:7145   */\n      0x00\n        /* \"#utility.yul\":7136:7142   */\n      dup3\n        /* \"#utility.yul\":7132:7146   */\n      add\n        /* \"#utility.yul\":7125:7165   */\n      mstore\n        /* \"#utility.yul\":7008:7172   */\n      pop\n      jump\t// out\n        /* \"#utility.yul\":7178:7544   */\n    tag_98:\n        /* \"#utility.yul\":7320:7323   */\n      0x00\n        /* \"#utility.yul\":7341:7408   */\n      tag_178\n        /* \"#utility.yul\":7405:7407   */\n      0x0e\n        /* \"#utility.yul\":7400:7403   */\n      dup4\n        /* \"#utility.yul\":7341:7408   */\n      tag_90\n      jump\t// in\n    tag_178:\n        /* \"#utility.yul\":7334:7408   */\n      swap2\n      pop\n        /* \"#utility.yul\":7417:7510   */\n      tag_179\n        /* \"#utility.yul\":7506:7509   */\n      dup3\n        /* \"#utility.yul\":7417:7510   */\n      tag_97\n      jump\t// in\n    tag_179:\n        /* \"#utility.yul\":7535:7537   */\n      0x20\n        /* \"#utility.yul\":7530:7533   */\n      dup3\n        /* \"#utility.yul\":7526:7538   */\n      add\n        /* \"#utility.yul\":7519:7538   */\n      swap1\n      pop\n        /* \"#utility.yul\":7178:7544   */\n      swap2\n      swap1\n      pop\n      jump\t// out\n        /* \"#utility.yul\":7550:7969   */\n    tag_72:\n        /* \"#utility.yul\":7716:7720   */\n      0x00\n        /* \"#utility.yul\":7754:7756   */\n      0x20\n        /* \"#utility.yul\":7743:7752   */\n      dup3\n        /* \"#utility.yul\":7739:7757   */\n      add\n        /* \"#utility.yul\":7731:7757   */\n      swap1\n      pop\n        /* \"#utility.yul\":7803:7812   */\n      dup2\n        /* \"#utility.yul\":7797:7801   */\n      dup2\n        /* \"#utility.yul\":7793:7813   */\n      sub\n        /* \"#utility.yul\":7789:7790   */\n      0x00\n        /* \"#utility.yul\":7778:7787   */\n      dup4\n        /* \"#utility.yul\":7774:7791   */\n      add\n        /* \"#utility.yul\":7767:7814   */\n      mstore\n        /* \"#utility.yul\":7831:7962   */\n      tag_181\n        /* \"#utility.yul\":7957:7961   */\n      dup2\n        /* \"#utility.yul\":7831:7962   */\n      tag_98\n      jump\t// in\n    tag_181:\n        /* \"#utility.yul\":7823:7962   */\n      swap1\n      pop\n        /* \"#utility.yul\":7550:7969   */\n      swap2\n      swap1\n      pop\n      jump\t// out\n        /* \"#utility.yul\":7975:8639   */\n    tag_75:\n        /* \"#utility.yul\":8180:8184   */\n      0x00\n        /* \"#utility.yul\":8218:8221   */\n      0xa0\n        /* \"#utility.yul\":8207:8216   */\n      dup3\n        /* \"#utility.yul\":8203:8222   */\n      add\n        /* \"#utility.yul\":8195:8222   */\n      swap1\n      pop\n        /* \"#utility.yul\":8232:8303   */\n      tag_183\n        /* \"#utility.yul\":8300:8301   */\n      0x00\n        /* \"#utility.yul\":8289:8298   */\n      dup4\n        /* \"#utility.yul\":8285:8302   */\n      add\n        /* \"#utility.yul\":8276:8282   */\n      dup9\n        /* \"#utility.yul\":8232:8303   */\n      tag_84\n      jump\t// in\n    tag_183:\n        /* \"#utility.yul\":8313:8385   */\n      tag_184\n        /* \"#utility.yul\":8381:8383   */\n      0x20\n        /* \"#utility.yul\":8370:8379   */\n      dup4\n        /* \"#utility.yul\":8366:8384   */\n      add\n        /* \"#utility.yul\":8357:8363   */\n      dup8\n        /* \"#utility.yul\":8313:8385   */\n      tag_87\n      jump\t// in\n    tag_184:\n        /* \"#utility.yul\":8395:8467   */\n      tag_185\n        /* \"#utility.yul\":8463:8465   */\n      0x40\n        /* \"#utility.yul\":8452:8461   */\n      dup4\n        /* \"#utility.yul\":8448:8466   */\n      add\n        /* \"#utility.yul\":8439:8445   */\n      dup7\n        /* \"#utility.yul\":8395:8467   */\n      tag_84\n      jump\t// in\n    tag_185:\n        /* \"#utility.yul\":8477:8549   */\n      tag_186\n        /* \"#utility.yul\":8545:8547   */\n      0x60\n        /* \"#utility.yul\":8534:8543   */\n      dup4\n        /* \"#utility.yul\":8530:8548   */\n      add\n        /* \"#utility.yul\":8521:8527   */\n      dup6\n        /* \"#utility.yul\":8477:8549   */\n      tag_84\n      jump\t// in\n    tag_186:\n        /* \"#utility.yul\":8559:8632   */\n      tag_187\n        /* \"#utility.yul\":8627:8630   */\n      0x80\n        /* \"#utility.yul\":8616:8625   */\n      dup4\n        /* \"#utility.yul\":8612:8631   */\n      add\n        /* \"#utility.yul\":8603:8609   */\n      dup5\n        /* \"#utility.yul\":8559:8632   */\n      tag_84\n      jump\t// in\n    tag_187:\n        /* \"#utility.yul\":7975:8639   */\n      swap7\n      swap6\n      pop\n      pop\n      pop\n      pop\n      pop\n      pop\n      jump\t// out\n        /* \"#utility.yul\":8645:8878   */\n    tag_77:\n        /* \"#utility.yul\":8684:8687   */\n      0x00\n        /* \"#utility.yul\":8707:8731   */\n      tag_189\n        /* \"#utility.yul\":8725:8730   */\n      dup3\n        /* \"#utility.yul\":8707:8731   */\n      tag_81\n      jump\t// in\n    tag_189:\n        /* \"#utility.yul\":8698:8731   */\n      swap2\n      pop\n        /* \"#utility.yul\":8753:8819   */\n      0xffffffffffffffffffffffffffffffffffffffffffffffffffffffffffffffff\n        /* \"#utility.yul\":8746:8751   */\n      dup3\n        /* \"#utility.yul\":8743:8820   */\n      sub\n        /* \"#utility.yul\":8740:8843   */\n      tag_190\n      jumpi\n        /* \"#utility.yul\":8823:8841   */\n      tag_191\n      tag_95\n      jump\t// in\n    tag_191:\n        /* \"#utility.yul\":8740:8843   */\n    tag_190:\n        /* \"#utility.yul\":8870:8871   */\n      0x01\n        /* \"#utility.yul\":8863:8868   */\n      dup3\n        /* \"#utility.yul\":8859:8872   */\n      add\n        /* \"#utility.yul\":8852:8872   */\n      swap1\n      pop\n        /* \"#utility.yul\":8645:8878   */\n      swap2\n      swap1\n      pop\n      jump\t// out\n\n    auxdata: 0xa264697066735822122053cbcba0a414f65d0a1823ac464ab5c4cdfaf67d4a4d18110e6fb5ceed17b89e64736f6c634300081d0033\n}\n",
				"bytecode": {
					"linkReferences": {},
					"object": "6080604052348015600e575f5ffd5b50610aa68061001c5f395ff3fe608060405260043610610058575f3560e01c80632d6ce61d1461006357806371640de31461008b5780638d01f0ba146100b557806390a8ae9b146100df57806399fbab881461010957806399ff8203146101495761005f565b3661005f57005b5f5ffd5b34801561006e575f5ffd5b50610089600480360381019061008491906105ef565b610165565b005b348015610096575f5ffd5b5061009f6103ca565b6040516100ac919061063c565b60405180910390f35b3480156100c0575f5ffd5b506100c96103cf565b6040516100d6919061063c565b60405180910390f35b3480156100ea575f5ffd5b506100f36103d4565b604051610100919061063c565b60405180910390f35b348015610114575f5ffd5b5061012f600480360381019061012a9190610655565b6103d9565b6040516101409594939291906106d9565b60405180910390f35b610163600480360381019061015e9190610655565b610436565b005b5f60015f8481526020019081526020015f2090503373ffffffffffffffffffffffffffffffffffffffff16815f015f9054906101000a900473ffffffffffffffffffffffffffffffffffffffff1673ffffffffffffffffffffffffffffffffffffffff1614610209576040517f08c379a000000000000000000000000000000000000000000000000000000000815260040161020090610784565b60405180910390fd5b806004015f9054906101000a900460ff16610259576040517f08c379a0000000000000000000000000000000000000000000000000000000008152600401610250906107ec565b60405180910390fd5b5f5f5f905082600301548410156102e3575f836003015484600201548686600301546102859190610837565b61028f919061086a565b61029991906108d8565b90506064605085600101546102ae919061086a565b6102b891906108d8565b81106102ca57600191505f92506102dd565b8084600101546102da9190610837565b92505b50610323565b826003015483600201548460030154866102fd9190610837565b610307919061086a565b61031191906108d8565b83600101546103209190610908565b91505b5f836004015f6101000a81548160ff0219169083151502179055507f3d01866ecf8185ac8bdd566e25dd21ba7111fd17d6606e9e61b88e7c66f487eb8583836040516103719392919061093b565b60405180910390a1806103c3573373ffffffffffffffffffffffffffffffffffffffff166108fc8390811502906040515f60405180830381858888f193505050501580156103c1573d5f5f3e3d5ffd5b505b5050505050565b5f5481565b600581565b605081565b6001602052805f5260405f205f91509050805f015f9054906101000a900473ffffffffffffffffffffffffffffffffffffffff1690806001015490806002015490806003015490806004015f9054906101000a900460ff16905085565b5f3411610478576040517f08c379a000000000000000000000000000000000000000000000000000000000815260040161046f906109ba565b60405180910390fd5b5f600534610486919061086a565b90506040518060a001604052803373ffffffffffffffffffffffffffffffffffffffff1681526020013481526020018281526020018381526020016001151581525060015f5f5481526020019081526020015f205f820151815f015f6101000a81548173ffffffffffffffffffffffffffffffffffffffff021916908373ffffffffffffffffffffffffffffffffffffffff1602179055506020820151816001015560408201518160020155606082015181600301556080820151816004015f6101000a81548160ff0219169083151502179055509050507fe46dd771cbb2a7bc2ee3f904902dfb1ce4c9cf03961b9fa7e25c9e3934c0deab5f54333484866040516105969594939291906109d8565b60405180910390a15f5f8154809291906105af90610a29565b91905055505050565b5f5ffd5b5f819050919050565b6105ce816105bc565b81146105d8575f5ffd5b50565b5f813590506105e9816105c5565b92915050565b5f5f60408385031215610605576106046105b8565b5b5f610612858286016105db565b9250506020610623858286016105db565b9150509250929050565b610636816105bc565b82525050565b5f60208201905061064f5f83018461062d565b92915050565b5f6020828403121561066a576106696105b8565b5b5f610677848285016105db565b91505092915050565b5f73ffffffffffffffffffffffffffffffffffffffff82169050919050565b5f6106a982610680565b9050919050565b6106b98161069f565b82525050565b5f8115159050919050565b6106d3816106bf565b82525050565b5f60a0820190506106ec5f8301886106b0565b6106f9602083018761062d565b610706604083018661062d565b610713606083018561062d565b61072060808301846106ca565b9695505050505050565b5f82825260208201905092915050565b7f4e6f7420796f757220706f736974696f6e0000000000000000000000000000005f82015250565b5f61076e60118361072a565b91506107798261073a565b602082019050919050565b5f6020820190508181035f83015261079b81610762565b9050919050565b7f416c726561647920636c6f7365640000000000000000000000000000000000005f82015250565b5f6107d6600e8361072a565b91506107e1826107a2565b602082019050919050565b5f6020820190508181035f830152610803816107ca565b9050919050565b7f4e487b71000000000000000000000000000000000000000000000000000000005f52601160045260245ffd5b5f610841826105bc565b915061084c836105bc565b92508282039050818111156108645761086361080a565b5b92915050565b5f610874826105bc565b915061087f836105bc565b925082820261088d816105bc565b915082820484148315176108a4576108a361080a565b5b5092915050565b7f4e487b71000000000000000000000000000000000000000000000000000000005f52601260045260245ffd5b5f6108e2826105bc565b91506108ed836105bc565b9250826108fd576108fc6108ab565b5b828204905092915050565b5f610912826105bc565b915061091d836105bc565b92508282019050808211156109355761093461080a565b5b92915050565b5f60608201905061094e5f83018661062d565b61095b602083018561062d565b61096860408301846106ca565b949350505050565b7f4e6f206d617267696e2073656e740000000000000000000000000000000000005f82015250565b5f6109a4600e8361072a565b91506109af82610970565b602082019050919050565b5f6020820190508181035f8301526109d181610998565b9050919050565b5f60a0820190506109eb5f83018861062d565b6109f860208301876106b0565b610a05604083018661062d565b610a12606083018561062d565b610a1f608083018461062d565b9695505050505050565b5f610a33826105bc565b91507fffffffffffffffffffffffffffffffffffffffffffffffffffffffffffffffff8203610a6557610a6461080a565b5b60018201905091905056fea264697066735822122053cbcba0a414f65d0a1823ac464ab5c4cdfaf67d4a4d18110e6fb5ceed17b89e64736f6c634300081d0033",
					"opcodes": "PUSH1 0x80 PUSH1 0x40 MSTORE CALLVALUE DUP1 ISZERO PUSH1 0xE JUMPI PUSH0 PUSH0 REVERT JUMPDEST POP PUSH2 0xAA6 DUP1 PUSH2 0x1C PUSH0 CODECOPY PUSH0 RETURN INVALID PUSH1 0x80 PUSH1 0x40 MSTORE PUSH1 0x4 CALLDATASIZE LT PUSH2 0x58 JUMPI PUSH0 CALLDATALOAD PUSH1 0xE0 SHR DUP1 PUSH4 0x2D6CE61D EQ PUSH2 0x63 JUMPI DUP1 PUSH4 0x71640DE3 EQ PUSH2 0x8B JUMPI DUP1 PUSH4 0x8D01F0BA EQ PUSH2 0xB5 JUMPI DUP1 PUSH4 0x90A8AE9B EQ PUSH2 0xDF JUMPI DUP1 PUSH4 0x99FBAB88 EQ PUSH2 0x109 JUMPI DUP1 PUSH4 0x99FF8203 EQ PUSH2 0x149 JUMPI PUSH2 0x5F JUMP JUMPDEST CALLDATASIZE PUSH2 0x5F JUMPI STOP JUMPDEST PUSH0 PUSH0 REVERT JUMPDEST CALLVALUE DUP1 ISZERO PUSH2 0x6E JUMPI PUSH0 PUSH0 REVERT JUMPDEST POP PUSH2 0x89 PUSH1 0x4 DUP1 CALLDATASIZE SUB DUP2 ADD SWAP1 PUSH2 0x84 SWAP2 SWAP1 PUSH2 0x5EF JUMP JUMPDEST PUSH2 0x165 JUMP JUMPDEST STOP JUMPDEST CALLVALUE DUP1 ISZERO PUSH2 0x96 JUMPI PUSH0 PUSH0 REVERT JUMPDEST POP PUSH2 0x9F PUSH2 0x3CA JUMP JUMPDEST PUSH1 0x40 MLOAD PUSH2 0xAC SWAP2 SWAP1 PUSH2 0x63C JUMP JUMPDEST PUSH1 0x40 MLOAD DUP1 SWAP2 SUB SWAP1 RETURN JUMPDEST CALLVALUE DUP1 ISZERO PUSH2 0xC0 JUMPI PUSH0 PUSH0 REVERT JUMPDEST POP PUSH2 0xC9 PUSH2 0x3CF JUMP JUMPDEST PUSH1 0x40 MLOAD PUSH2 0xD6 SWAP2 SWAP1 PUSH2 0x63C JUMP JUMPDEST PUSH1 0x40 MLOAD DUP1 SWAP2 SUB SWAP1 RETURN JUMPDEST CALLVALUE DUP1 ISZERO PUSH2 0xEA JUMPI PUSH0 PUSH0 REVERT JUMPDEST POP PUSH2 0xF3 PUSH2 0x3D4 JUMP JUMPDEST PUSH1 0x40 MLOAD PUSH2 0x100 SWAP2 SWAP1 PUSH2 0x63C JUMP JUMPDEST PUSH1 0x40 MLOAD DUP1 SWAP2 SUB SWAP1 RETURN JUMPDEST CALLVALUE DUP1 ISZERO PUSH2 0x114 JUMPI PUSH0 PUSH0 REVERT JUMPDEST POP PUSH2 0x12F PUSH1 0x4 DUP1 CALLDATASIZE SUB DUP2 ADD SWAP1 PUSH2 0x12A SWAP2 SWAP1 PUSH2 0x655 JUMP JUMPDEST PUSH2 0x3D9 JUMP JUMPDEST PUSH1 0x40 MLOAD PUSH2 0x140 SWAP6 SWAP5 SWAP4 SWAP3 SWAP2 SWAP1 PUSH2 0x6D9 JUMP JUMPDEST PUSH1 0x40 MLOAD DUP1 SWAP2 SUB SWAP1 RETURN JUMPDEST PUSH2 0x163 PUSH1 0x4 DUP1 CALLDATASIZE SUB DUP2 ADD SWAP1 PUSH2 0x15E SWAP2 SWAP1 PUSH2 0x655 JUMP JUMPDEST PUSH2 0x436 JUMP JUMPDEST STOP JUMPDEST PUSH0 PUSH1 0x1 PUSH0 DUP5 DUP2 MSTORE PUSH1 0x20 ADD SWAP1 DUP2 MSTORE PUSH1 0x20 ADD PUSH0 KECCAK256 SWAP1 POP CALLER PUSH20 0xFFFFFFFFFFFFFFFFFFFFFFFFFFFFFFFFFFFFFFFF AND DUP2 PUSH0 ADD PUSH0 SWAP1 SLOAD SWAP1 PUSH2 0x100 EXP SWAP1 DIV PUSH20 0xFFFFFFFFFFFFFFFFFFFFFFFFFFFFFFFFFFFFFFFF AND PUSH20 0xFFFFFFFFFFFFFFFFFFFFFFFFFFFFFFFFFFFFFFFF AND EQ PUSH2 0x209 JUMPI PUSH1 0x40 MLOAD PUSH32 0x8C379A000000000000000000000000000000000000000000000000000000000 DUP2 MSTORE PUSH1 0x4 ADD PUSH2 0x200 SWAP1 PUSH2 0x784 JUMP JUMPDEST PUSH1 0x40 MLOAD DUP1 SWAP2 SUB SWAP1 REVERT JUMPDEST DUP1 PUSH1 0x4 ADD PUSH0 SWAP1 SLOAD SWAP1 PUSH2 0x100 EXP SWAP1 DIV PUSH1 0xFF AND PUSH2 0x259 JUMPI PUSH1 0x40 MLOAD PUSH32 0x8C379A000000000000000000000000000000000000000000000000000000000 DUP2 MSTORE PUSH1 0x4 ADD PUSH2 0x250 SWAP1 PUSH2 0x7EC JUMP JUMPDEST PUSH1 0x40 MLOAD DUP1 SWAP2 SUB SWAP1 REVERT JUMPDEST PUSH0 PUSH0 PUSH0 SWAP1 POP DUP3 PUSH1 0x3 ADD SLOAD DUP5 LT ISZERO PUSH2 0x2E3 JUMPI PUSH0 DUP4 PUSH1 0x3 ADD SLOAD DUP5 PUSH1 0x2 ADD SLOAD DUP7 DUP7 PUSH1 0x3 ADD SLOAD PUSH2 0x285 SWAP2 SWAP1 PUSH2 0x837 JUMP JUMPDEST PUSH2 0x28F SWAP2 SWAP1 PUSH2 0x86A JUMP JUMPDEST PUSH2 0x299 SWAP2 SWAP1 PUSH2 0x8D8 JUMP JUMPDEST SWAP1 POP PUSH1 0x64 PUSH1 0x50 DUP6 PUSH1 0x1 ADD SLOAD PUSH2 0x2AE SWAP2 SWAP1 PUSH2 0x86A JUMP JUMPDEST PUSH2 0x2B8 SWAP2 SWAP1 PUSH2 0x8D8 JUMP JUMPDEST DUP2 LT PUSH2 0x2CA JUMPI PUSH1 0x1 SWAP2 POP PUSH0 SWAP3 POP PUSH2 0x2DD JUMP JUMPDEST DUP1 DUP5 PUSH1 0x1 ADD SLOAD PUSH2 0x2DA SWAP2 SWAP1 PUSH2 0x837 JUMP JUMPDEST SWAP3 POP JUMPDEST POP PUSH2 0x323 JUMP JUMPDEST DUP3 PUSH1 0x3 ADD SLOAD DUP4 PUSH1 0x2 ADD SLOAD DUP5 PUSH1 0x3 ADD SLOAD DUP7 PUSH2 0x2FD SWAP2 SWAP1 PUSH2 0x837 JUMP JUMPDEST PUSH2 0x307 SWAP2 SWAP1 PUSH2 0x86A JUMP JUMPDEST PUSH2 0x311 SWAP2 SWAP1 PUSH2 0x8D8 JUMP JUMPDEST DUP4 PUSH1 0x1 ADD SLOAD PUSH2 0x320 SWAP2 SWAP1 PUSH2 0x908 JUMP JUMPDEST SWAP2 POP JUMPDEST PUSH0 DUP4 PUSH1 0x4 ADD PUSH0 PUSH2 0x100 EXP DUP2 SLOAD DUP2 PUSH1 0xFF MUL NOT AND SWAP1 DUP4 ISZERO ISZERO MUL OR SWAP1 SSTORE POP PUSH32 0x3D01866ECF8185AC8BDD566E25DD21BA7111FD17D6606E9E61B88E7C66F487EB DUP6 DUP4 DUP4 PUSH1 0x40 MLOAD PUSH2 0x371 SWAP4 SWAP3 SWAP2 SWAP1 PUSH2 0x93B JUMP JUMPDEST PUSH1 0x40 MLOAD DUP1 SWAP2 SUB SWAP1 LOG1 DUP1 PUSH2 0x3C3 JUMPI CALLER PUSH20 0xFFFFFFFFFFFFFFFFFFFFFFFFFFFFFFFFFFFFFFFF AND PUSH2 0x8FC DUP4 SWAP1 DUP2 ISZERO MUL SWAP1 PUSH1 0x40 MLOAD PUSH0 PUSH1 0x40 MLOAD DUP1 DUP4 SUB DUP2 DUP6 DUP9 DUP9 CALL SWAP4 POP POP POP POP ISZERO DUP1 ISZERO PUSH2 0x3C1 JUMPI RETURNDATASIZE PUSH0 PUSH0 RETURNDATACOPY RETURNDATASIZE PUSH0 REVERT JUMPDEST POP JUMPDEST POP POP POP POP POP JUMP JUMPDEST PUSH0 SLOAD DUP2 JUMP JUMPDEST PUSH1 0x5 DUP2 JUMP JUMPDEST PUSH1 0x50 DUP2 JUMP JUMPDEST PUSH1 0x1 PUSH1 0x20 MSTORE DUP1 PUSH0 MSTORE PUSH1 0x40 PUSH0 KECCAK256 PUSH0 SWAP2 POP SWAP1 POP DUP1 PUSH0 ADD PUSH0 SWAP1 SLOAD SWAP1 PUSH2 0x100 EXP SWAP1 DIV PUSH20 0xFFFFFFFFFFFFFFFFFFFFFFFFFFFFFFFFFFFFFFFF AND SWAP1 DUP1 PUSH1 0x1 ADD SLOAD SWAP1 DUP1 PUSH1 0x2 ADD SLOAD SWAP1 DUP1 PUSH1 0x3 ADD SLOAD SWAP1 DUP1 PUSH1 0x4 ADD PUSH0 SWAP1 SLOAD SWAP1 PUSH2 0x100 EXP SWAP1 DIV PUSH1 0xFF AND SWAP1 POP DUP6 JUMP JUMPDEST PUSH0 CALLVALUE GT PUSH2 0x478 JUMPI PUSH1 0x40 MLOAD PUSH32 0x8C379A000000000000000000000000000000000000000000000000000000000 DUP2 MSTORE PUSH1 0x4 ADD PUSH2 0x46F SWAP1 PUSH2 0x9BA JUMP JUMPDEST PUSH1 0x40 MLOAD DUP1 SWAP2 SUB SWAP1 REVERT JUMPDEST PUSH0 PUSH1 0x5 CALLVALUE PUSH2 0x486 SWAP2 SWAP1 PUSH2 0x86A JUMP JUMPDEST SWAP1 POP PUSH1 0x40 MLOAD DUP1 PUSH1 0xA0 ADD PUSH1 0x40 MSTORE DUP1 CALLER PUSH20 0xFFFFFFFFFFFFFFFFFFFFFFFFFFFFFFFFFFFFFFFF AND DUP2 MSTORE PUSH1 0x20 ADD CALLVALUE DUP2 MSTORE PUSH1 0x20 ADD DUP3 DUP2 MSTORE PUSH1 0x20 ADD DUP4 DUP2 MSTORE PUSH1 0x20 ADD PUSH1 0x1 ISZERO ISZERO DUP2 MSTORE POP PUSH1 0x1 PUSH0 PUSH0 SLOAD DUP2 MSTORE PUSH1 0x20 ADD SWAP1 DUP2 MSTORE PUSH1 0x20 ADD PUSH0 KECCAK256 PUSH0 DUP3 ADD MLOAD DUP2 PUSH0 ADD PUSH0 PUSH2 0x100 EXP DUP2 SLOAD DUP2 PUSH20 0xFFFFFFFFFFFFFFFFFFFFFFFFFFFFFFFFFFFFFFFF MUL NOT AND SWAP1 DUP4 PUSH20 0xFFFFFFFFFFFFFFFFFFFFFFFFFFFFFFFFFFFFFFFF AND MUL OR SWAP1 SSTORE POP PUSH1 0x20 DUP3 ADD MLOAD DUP2 PUSH1 0x1 ADD SSTORE PUSH1 0x40 DUP3 ADD MLOAD DUP2 PUSH1 0x2 ADD SSTORE PUSH1 0x60 DUP3 ADD MLOAD DUP2 PUSH1 0x3 ADD SSTORE PUSH1 0x80 DUP3 ADD MLOAD DUP2 PUSH1 0x4 ADD PUSH0 PUSH2 0x100 EXP DUP2 SLOAD DUP2 PUSH1 0xFF MUL NOT AND SWAP1 DUP4 ISZERO ISZERO MUL OR SWAP1 SSTORE POP SWAP1 POP POP PUSH32 0xE46DD771CBB2A7BC2EE3F904902DFB1CE4C9CF03961B9FA7E25C9E3934C0DEAB PUSH0 SLOAD CALLER CALLVALUE DUP5 DUP7 PUSH1 0x40 MLOAD PUSH2 0x596 SWAP6 SWAP5 SWAP4 SWAP3 SWAP2 SWAP1 PUSH2 0x9D8 JUMP JUMPDEST PUSH1 0x40 MLOAD DUP1 SWAP2 SUB SWAP1 LOG1 PUSH0 PUSH0 DUP2 SLOAD DUP1 SWAP3 SWAP2 SWAP1 PUSH2 0x5AF SWAP1 PUSH2 0xA29 JUMP JUMPDEST SWAP2 SWAP1 POP SSTORE POP POP POP JUMP JUMPDEST PUSH0 PUSH0 REVERT JUMPDEST PUSH0 DUP2 SWAP1 POP SWAP2 SWAP1 POP JUMP JUMPDEST PUSH2 0x5CE DUP2 PUSH2 0x5BC JUMP JUMPDEST DUP2 EQ PUSH2 0x5D8 JUMPI PUSH0 PUSH0 REVERT JUMPDEST POP JUMP JUMPDEST PUSH0 DUP2 CALLDATALOAD SWAP1 POP PUSH2 0x5E9 DUP2 PUSH2 0x5C5 JUMP JUMPDEST SWAP3 SWAP2 POP POP JUMP JUMPDEST PUSH0 PUSH0 PUSH1 0x40 DUP4 DUP6 SUB SLT ISZERO PUSH2 0x605 JUMPI PUSH2 0x604 PUSH2 0x5B8 JUMP JUMPDEST JUMPDEST PUSH0 PUSH2 0x612 DUP6 DUP3 DUP7 ADD PUSH2 0x5DB JUMP JUMPDEST SWAP3 POP POP PUSH1 0x20 PUSH2 0x623 DUP6 DUP3 DUP7 ADD PUSH2 0x5DB JUMP JUMPDEST SWAP2 POP POP SWAP3 POP SWAP3 SWAP1 POP JUMP JUMPDEST PUSH2 0x636 DUP2 PUSH2 0x5BC JUMP JUMPDEST DUP3 MSTORE POP POP JUMP JUMPDEST PUSH0 PUSH1 0x20 DUP3 ADD SWAP1 POP PUSH2 0x64F PUSH0 DUP4 ADD DUP5 PUSH2 0x62D JUMP JUMPDEST SWAP3 SWAP2 POP POP JUMP JUMPDEST PUSH0 PUSH1 0x20 DUP3 DUP5 SUB SLT ISZERO PUSH2 0x66A JUMPI PUSH2 0x669 PUSH2 0x5B8 JUMP JUMPDEST JUMPDEST PUSH0 PUSH2 0x677 DUP5 DUP3 DUP6 ADD PUSH2 0x5DB JUMP JUMPDEST SWAP2 POP POP SWAP3 SWAP2 POP POP JUMP JUMPDEST PUSH0 PUSH20 0xFFFFFFFFFFFFFFFFFFFFFFFFFFFFFFFFFFFFFFFF DUP3 AND SWAP1 POP SWAP2 SWAP1 POP JUMP JUMPDEST PUSH0 PUSH2 0x6A9 DUP3 PUSH2 0x680 JUMP JUMPDEST SWAP1 POP SWAP2 SWAP1 POP JUMP JUMPDEST PUSH2 0x6B9 DUP2 PUSH2 0x69F JUMP JUMPDEST DUP3 MSTORE POP POP JUMP JUMPDEST PUSH0 DUP2 ISZERO ISZERO SWAP1 POP SWAP2 SWAP1 POP JUMP JUMPDEST PUSH2 0x6D3 DUP2 PUSH2 0x6BF JUMP JUMPDEST DUP3 MSTORE POP POP JUMP JUMPDEST PUSH0 PUSH1 0xA0 DUP3 ADD SWAP1 POP PUSH2 0x6EC PUSH0 DUP4 ADD DUP9 PUSH2 0x6B0 JUMP JUMPDEST PUSH2 0x6F9 PUSH1 0x20 DUP4 ADD DUP8 PUSH2 0x62D JUMP JUMPDEST PUSH2 0x706 PUSH1 0x40 DUP4 ADD DUP7 PUSH2 0x62D JUMP JUMPDEST PUSH2 0x713 PUSH1 0x60 DUP4 ADD DUP6 PUSH2 0x62D JUMP JUMPDEST PUSH2 0x720 PUSH1 0x80 DUP4 ADD DUP5 PUSH2 0x6CA JUMP JUMPDEST SWAP7 SWAP6 POP POP POP POP POP POP JUMP JUMPDEST PUSH0 DUP3 DUP3 MSTORE PUSH1 0x20 DUP3 ADD SWAP1 POP SWAP3 SWAP2 POP POP JUMP JUMPDEST PUSH32 0x4E6F7420796F757220706F736974696F6E000000000000000000000000000000 PUSH0 DUP3 ADD MSTORE POP JUMP JUMPDEST PUSH0 PUSH2 0x76E PUSH1 0x11 DUP4 PUSH2 0x72A JUMP JUMPDEST SWAP2 POP PUSH2 0x779 DUP3 PUSH2 0x73A JUMP JUMPDEST PUSH1 0x20 DUP3 ADD SWAP1 POP SWAP2 SWAP1 POP JUMP JUMPDEST PUSH0 PUSH1 0x20 DUP3 ADD SWAP1 POP DUP2 DUP2 SUB PUSH0 DUP4 ADD MSTORE PUSH2 0x79B DUP2 PUSH2 0x762 JUMP JUMPDEST SWAP1 POP SWAP2 SWAP1 POP JUMP JUMPDEST PUSH32 0x416C726561647920636C6F736564000000000000000000000000000000000000 PUSH0 DUP3 ADD MSTORE POP JUMP JUMPDEST PUSH0 PUSH2 0x7D6 PUSH1 0xE DUP4 PUSH2 0x72A JUMP JUMPDEST SWAP2 POP PUSH2 0x7E1 DUP3 PUSH2 0x7A2 JUMP JUMPDEST PUSH1 0x20 DUP3 ADD SWAP1 POP SWAP2 SWAP1 POP JUMP JUMPDEST PUSH0 PUSH1 0x20 DUP3 ADD SWAP1 POP DUP2 DUP2 SUB PUSH0 DUP4 ADD MSTORE PUSH2 0x803 DUP2 PUSH2 0x7CA JUMP JUMPDEST SWAP1 POP SWAP2 SWAP1 POP JUMP JUMPDEST PUSH32 0x4E487B7100000000000000000000000000000000000000000000000000000000 PUSH0 MSTORE PUSH1 0x11 PUSH1 0x4 MSTORE PUSH1 0x24 PUSH0 REVERT JUMPDEST PUSH0 PUSH2 0x841 DUP3 PUSH2 0x5BC JUMP JUMPDEST SWAP2 POP PUSH2 0x84C DUP4 PUSH2 0x5BC JUMP JUMPDEST SWAP3 POP DUP3 DUP3 SUB SWAP1 POP DUP2 DUP2 GT ISZERO PUSH2 0x864 JUMPI PUSH2 0x863 PUSH2 0x80A JUMP JUMPDEST JUMPDEST SWAP3 SWAP2 POP POP JUMP JUMPDEST PUSH0 PUSH2 0x874 DUP3 PUSH2 0x5BC JUMP JUMPDEST SWAP2 POP PUSH2 0x87F DUP4 PUSH2 0x5BC JUMP JUMPDEST SWAP3 POP DUP3 DUP3 MUL PUSH2 0x88D DUP2 PUSH2 0x5BC JUMP JUMPDEST SWAP2 POP DUP3 DUP3 DIV DUP5 EQ DUP4 ISZERO OR PUSH2 0x8A4 JUMPI PUSH2 0x8A3 PUSH2 0x80A JUMP JUMPDEST JUMPDEST POP SWAP3 SWAP2 POP POP JUMP JUMPDEST PUSH32 0x4E487B7100000000000000000000000000000000000000000000000000000000 PUSH0 MSTORE PUSH1 0x12 PUSH1 0x4 MSTORE PUSH1 0x24 PUSH0 REVERT JUMPDEST PUSH0 PUSH2 0x8E2 DUP3 PUSH2 0x5BC JUMP JUMPDEST SWAP2 POP PUSH2 0x8ED DUP4 PUSH2 0x5BC JUMP JUMPDEST SWAP3 POP DUP3 PUSH2 0x8FD JUMPI PUSH2 0x8FC PUSH2 0x8AB JUMP JUMPDEST JUMPDEST DUP3 DUP3 DIV SWAP1 POP SWAP3 SWAP2 POP POP JUMP JUMPDEST PUSH0 PUSH2 0x912 DUP3 PUSH2 0x5BC JUMP JUMPDEST SWAP2 POP PUSH2 0x91D DUP4 PUSH2 0x5BC JUMP JUMPDEST SWAP3 POP DUP3 DUP3 ADD SWAP1 POP DUP1 DUP3 GT ISZERO PUSH2 0x935 JUMPI PUSH2 0x934 PUSH2 0x80A JUMP JUMPDEST JUMPDEST SWAP3 SWAP2 POP POP JUMP JUMPDEST PUSH0 PUSH1 0x60 DUP3 ADD SWAP1 POP PUSH2 0x94E PUSH0 DUP4 ADD DUP7 PUSH2 0x62D JUMP JUMPDEST PUSH2 0x95B PUSH1 0x20 DUP4 ADD DUP6 PUSH2 0x62D JUMP JUMPDEST PUSH2 0x968 PUSH1 0x40 DUP4 ADD DUP5 PUSH2 0x6CA JUMP JUMPDEST SWAP5 SWAP4 POP POP POP POP JUMP JUMPDEST PUSH32 0x4E6F206D617267696E2073656E74000000000000000000000000000000000000 PUSH0 DUP3 ADD MSTORE POP JUMP JUMPDEST PUSH0 PUSH2 0x9A4 PUSH1 0xE DUP4 PUSH2 0x72A JUMP JUMPDEST SWAP2 POP PUSH2 0x9AF DUP3 PUSH2 0x970 JUMP JUMPDEST PUSH1 0x20 DUP3 ADD SWAP1 POP SWAP2 SWAP1 POP JUMP JUMPDEST PUSH0 PUSH1 0x20 DUP3 ADD SWAP1 POP DUP2 DUP2 SUB PUSH0 DUP4 ADD MSTORE PUSH2 0x9D1 DUP2 PUSH2 0x998 JUMP JUMPDEST SWAP1 POP SWAP2 SWAP1 POP JUMP JUMPDEST PUSH0 PUSH1 0xA0 DUP3 ADD SWAP1 POP PUSH2 0x9EB PUSH0 DUP4 ADD DUP9 PUSH2 0x62D JUMP JUMPDEST PUSH2 0x9F8 PUSH1 0x20 DUP4 ADD DUP8 PUSH2 0x6B0 JUMP JUMPDEST PUSH2 0xA05 PUSH1 0x40 DUP4 ADD DUP7 PUSH2 0x62D JUMP JUMPDEST PUSH2 0xA12 PUSH1 0x60 DUP4 ADD DUP6 PUSH2 0x62D JUMP JUMPDEST PUSH2 0xA1F PUSH1 0x80 DUP4 ADD DUP5 PUSH2 0x62D JUMP JUMPDEST SWAP7 SWAP6 POP POP POP POP POP POP JUMP JUMPDEST PUSH0 PUSH2 0xA33 DUP3 PUSH2 0x5BC JUMP JUMPDEST SWAP2 POP PUSH32 0xFFFFFFFFFFFFFFFFFFFFFFFFFFFFFFFFFFFFFFFFFFFFFFFFFFFFFFFFFFFFFFFF DUP3 SUB PUSH2 0xA65 JUMPI PUSH2 0xA64 PUSH2 0x80A JUMP JUMPDEST JUMPDEST PUSH1 0x1 DUP3 ADD SWAP1 POP SWAP2 SWAP1 POP JUMP INVALID LOG2 PUSH5 0x6970667358 0x22 SLT KECCAK256 MSTORE8 0xCB 0xCB LOG0 LOG4 EQ 0xF6 TSTORE EXP XOR 0x23 0xAC CHAINID BLOBBASEFEE 0xB5 0xC4 0xCD STATICCALL 0xF6 PUSH30 0x4A4D18110E6FB5CEED17B89E64736F6C634300081D003300000000000000 "
				},
				"gasEstimates": {
					"creation": {
						"codeDepositCost": "545200",
						"executionCost": "579",
						"totalCost": "545779"
					},
					"external": {
						"LEVERAGE()": "347",
						"LIQUIDATION_THRESHOLD()": "369",
						"closePosition(uint256,uint256)": "infinite",
						"openPosition(uint256)": "infinite",
						"positionId()": "2424",
						"positions(uint256)": "infinite"
					}
				},
				"methodIdentifiers": {
					"LEVERAGE()": "8d01f0ba",
					"LIQUIDATION_THRESHOLD()": "90a8ae9b",
					"closePosition(uint256,uint256)": "2d6ce61d",
					"openPosition(uint256)": "99ff8203",
					"positionId()": "71640de3",
					"positions(uint256)": "99fbab88"
				}
			},
			"storageLayout": {
				"storage": [
					{
						"astId": 20,
						"contract": "I/isolated margin.sol:IsolatedMarginTrading",
						"label": "positionId",
						"offset": 0,
						"slot": "0",
						"type": "t_uint256"
					},
					{
						"astId": 25,
						"contract": "I/isolated margin.sol:IsolatedMarginTrading",
						"label": "positions",
						"offset": 0,
						"slot": "1",
						"type": "t_mapping(t_uint256,t_struct(Position)12_storage)"
					}
				],
				"types": {
					"t_address": {
						"encoding": "inplace",
						"label": "address",
						"numberOfBytes": "20"
					},
					"t_bool": {
						"encoding": "inplace",
						"label": "bool",
						"numberOfBytes": "1"
					},
					"t_mapping(t_uint256,t_struct(Position)12_storage)": {
						"encoding": "mapping",
						"key": "t_uint256",
						"label": "mapping(uint256 => struct IsolatedMarginTrading.Position)",
						"numberOfBytes": "32",
						"value": "t_struct(Position)12_storage"
					},
					"t_struct(Position)12_storage": {
						"encoding": "inplace",
						"label": "struct IsolatedMarginTrading.Position",
						"members": [
							{
								"astId": 3,
								"contract": "I/isolated margin.sol:IsolatedMarginTrading",
								"label": "trader",
								"offset": 0,
								"slot": "0",
								"type": "t_address"
							},
							{
								"astId": 5,
								"contract": "I/isolated margin.sol:IsolatedMarginTrading",
								"label": "margin",
								"offset": 0,
								"slot": "1",
								"type": "t_uint256"
							},
							{
								"astId": 7,
								"contract": "I/isolated margin.sol:IsolatedMarginTrading",
								"label": "size",
								"offset": 0,
								"slot": "2",
								"type": "t_uint256"
							},
							{
								"astId": 9,
								"contract": "I/isolated margin.sol:IsolatedMarginTrading",
								"label": "entryPrice",
								"offset": 0,
								"slot": "3",
								"type": "t_uint256"
							},
							{
								"astId": 11,
								"contract": "I/isolated margin.sol:IsolatedMarginTrading",
								"label": "open",
								"offset": 0,
								"slot": "4",
								"type": "t_bool"
							}
						],
						"numberOfBytes": "160"
					},
					"t_uint256": {
						"encoding": "inplace",
						"label": "uint256",
						"numberOfBytes": "32"
					}
				}
			},
			"userdoc": {
				"kind": "user",
				"methods": {},
				"version": 1
			}
		}
	}
}