{
	"data": {
		"bytecode": {
			"linkReferences": {},
			"object": "608060405234801561000f575f5ffd5b50604051612155380380612155833981810160405281019061003191906105ff565b336040518060400160405280600981526020017f46616e20546f6b656e00000000000000000000000000000000000000000000008152506040518060400160405280600381526020017f46414e000000000000000000000000000000000000000000000000000000000081525081600390816100ad9190610883565b5080600490816100bd9190610883565b5050505f73ffffffffffffffffffffffffffffffffffffffff168173ffffffffffffffffffffffffffffffffffffffff1603610130575f6040517f1e4fbdf70000000000000000000000000000000000000000000000000000000081526004016101279190610961565b60405180910390fd5b61013f8161020d60201b60201c565b505f73ffffffffffffffffffffffffffffffffffffffff168173ffffffffffffffffffffffffffffffffffffffff16036101ae576040517f08c379a00000000000000000000000000000000000000000000000000000000081526004016101a5906109d4565b60405180910390fd5b816006819055508060075f6101000a81548173ffffffffffffffffffffffffffffffffffffffff021916908373ffffffffffffffffffffffffffffffffffffffff16021790555061020533846102d060201b60201c565b505050610aaf565b5f60055f9054906101000a900473ffffffffffffffffffffffffffffffffffffffff1690508160055f6101000a81548173ffffffffffffffffffffffffffffffffffffffff021916908373ffffffffffffffffffffffffffffffffffffffff1602179055508173ffffffffffffffffffffffffffffffffffffffff168173ffffffffffffffffffffffffffffffffffffffff167f8be0079c531659141344cd1fd0a4f28419497f9722a3daafe3b4186f6b6457e060405160405180910390a35050565b5f73ffffffffffffffffffffffffffffffffffffffff168273ffffffffffffffffffffffffffffffffffffffff1603610340575f6040517fec442f050000000000000000000000000000000000000000000000000000000081526004016103379190610961565b60405180910390fd5b6103515f838361035560201b60201c565b5050565b5f73ffffffffffffffffffffffffffffffffffffffff168373ffffffffffffffffffffffffffffffffffffffff16036103a5578060025f8282546103999190610a1f565b92505081905550610473565b5f5f5f8573ffffffffffffffffffffffffffffffffffffffff1673ffffffffffffffffffffffffffffffffffffffff1681526020019081526020015f205490508181101561042e578381836040517fe450d38c00000000000000000000000000000000000000000000000000000000815260040161042593929190610a61565b60405180910390fd5b8181035f5f8673ffffffffffffffffffffffffffffffffffffffff1673ffffffffffffffffffffffffffffffffffffffff1681526020019081526020015f2081905550505b5f73ffffffffffffffffffffffffffffffffffffffff168273ffffffffffffffffffffffffffffffffffffffff16036104ba578060025f8282540392505081905550610504565b805f5f8473ffffffffffffffffffffffffffffffffffffffff1673ffffffffffffffffffffffffffffffffffffffff1681526020019081526020015f205f82825401925050819055505b8173ffffffffffffffffffffffffffffffffffffffff168373ffffffffffffffffffffffffffffffffffffffff167fddf252ad1be2c89b69c2b068fc378daa952ba7f163c4a11628f55a4df523b3ef836040516105619190610a96565b60405180910390a3505050565b5f5ffd5b5f819050919050565b61058481610572565b811461058e575f5ffd5b50565b5f8151905061059f8161057b565b92915050565b5f73ffffffffffffffffffffffffffffffffffffffff82169050919050565b5f6105ce826105a5565b9050919050565b6105de816105c4565b81146105e8575f5ffd5b50565b5f815190506105f9816105d5565b92915050565b5f5f5f606084860312156106165761061561056e565b5b5f61062386828701610591565b935050602061063486828701610591565b9250506040610645868287016105eb565b9150509250925092565b5f81519050919050565b7f4e487b71000000000000000000000000000000000000000000000000000000005f52604160045260245ffd5b7f4e487b71000000000000000000000000000000000000000000000000000000005f52602260045260245ffd5b5f60028204905060018216806106ca57607f821691505b6020821081036106dd576106dc610686565b5b50919050565b5f819050815f5260205f209050919050565b5f6020601f8301049050919050565b5f82821b905092915050565b5f6008830261073f7fffffffffffffffffffffffffffffffffffffffffffffffffffffffffffffffff82610704565b6107498683610704565b95508019841693508086168417925050509392505050565b5f819050919050565b5f61078461077f61077a84610572565b610761565b610572565b9050919050565b5f819050919050565b61079d8361076a565b6107b16107a98261078b565b848454610710565b825550505050565b5f5f905090565b6107c86107b9565b6107d3818484610794565b505050565b5b818110156107f6576107eb5f826107c0565b6001810190506107d9565b5050565b601f82111561083b5761080c816106e3565b610815846106f5565b81016020851015610824578190505b610838610830856106f5565b8301826107d8565b50505b505050565b5f82821c905092915050565b5f61085b5f1984600802610840565b1980831691505092915050565b5f610873838361084c565b9150826002028217905092915050565b61088c8261064f565b67ffffffffffffffff8111156108a5576108a4610659565b5b6108af82546106b3565b6108ba8282856107fa565b5f60209050601f8311600181146108eb575f84156108d9578287015190505b6108e38582610868565b86555061094a565b601f1984166108f9866106e3565b5f5b82811015610920578489015182556001820191506020850194506020810190506108fb565b8683101561093d5784890151610939601f89168261084c565b8355505b6001600288020188555050505b505050505050565b61095b816105c4565b82525050565b5f6020820190506109745f830184610952565b92915050565b5f82825260208201905092915050565b7f496e76616c69642066656520726563697069656e7400000000000000000000005f82015250565b5f6109be60158361097a565b91506109c98261098a565b602082019050919050565b5f6020820190508181035f8301526109eb816109b2565b9050919050565b7f4e487b71000000000000000000000000000000000000000000000000000000005f52601160045260245ffd5b5f610a2982610572565b9150610a3483610572565b9250828201905080821115610a4c57610a4b6109f2565b5b92915050565b610a5b81610572565b82525050565b5f606082019050610a745f830186610952565b610a816020830185610a52565b610a8e6040830184610a52565b949350505050565b5f602082019050610aa95f830184610a52565b92915050565b61169980610abc5f395ff3fe608060405234801561000f575f5ffd5b50600436106100fe575f3560e01c8063715018a611610095578063a9059cbb11610064578063a9059cbb1461028a578063dd62ed3e146102ba578063e74b981b146102ea578063f2fde38b14610306576100fe565b8063715018a6146102265780638da5cb5b1461023057806395d89b411461024e5780639ed3edf01461026c576100fe565b806323b872dd116100d157806323b872dd1461018a578063313ce567146101ba57806346904840146101d857806370a08231146101f6576100fe565b806306fdde0314610102578063095ea7b314610120578063096a8ab71461015057806318160ddd1461016c575b5f5ffd5b61010a610322565b60405161011791906110de565b60405180910390f35b61013a6004803603810190610135919061118f565b6103b2565b60405161014791906111e7565b60405180910390f35b61016a60048036038101906101659190611200565b6103d4565b005b610174610462565b604051610181919061123a565b60405180910390f35b6101a4600480360381019061019f9190611253565b61046b565b6040516101b191906111e7565b60405180910390f35b6101c26104ff565b6040516101cf91906112be565b60405180910390f35b6101e0610507565b6040516101ed91906112e6565b60405180910390f35b610210600480360381019061020b91906112ff565b61052c565b60405161021d919061123a565b60405180910390f35b61022e610571565b005b610238610584565b60405161024591906112e6565b60405180910390f35b6102566105ac565b60405161026391906110de565b60405180910390f35b61027461063c565b604051610281919061123a565b60405180910390f35b6102a4600480360381019061029f919061118f565b610642565b6040516102b191906111e7565b60405180910390f35b6102d460048036038101906102cf919061132a565b6106db565b6040516102e1919061123a565b60405180910390f35b61030460048036038101906102ff91906112ff565b61075d565b005b610320600480360381019061031b91906112ff565b61084d565b005b60606003805461033190611395565b80601f016020809104026020016040519081016040528092919081815260200182805461035d90611395565b80156103a85780601f1061037f576101008083540402835291602001916103a8565b820191905f5260205f20905b81548152906001019060200180831161038b57829003601f168201915b5050505050905090565b5f5f6103bc6108d1565b90506103c98185856108d8565b600191505092915050565b6103dc6108ea565b6103e8811115610421576040517f08c379a00000000000000000000000000000000000000000000000000000000081526004016104189061140f565b60405180910390fd5b806006819055507f21ea14061974d1886e13e854a8a738e5177a587170a7f767a2b182a3f8b8dcdf81604051610457919061123a565b60405180910390a150565b5f600254905090565b5f5f6127106006548461047e919061145a565b61048891906114c8565b90505f818461049791906114f8565b90505f6104a5878784610971565b9050806104e7576040517f08c379a00000000000000000000000000000000000000000000000000000000081526004016104de90611575565b60405180910390fd5b6104f1878461099f565b600193505050509392505050565b5f6012905090565b60075f9054906101000a900473ffffffffffffffffffffffffffffffffffffffff1681565b5f5f5f8373ffffffffffffffffffffffffffffffffffffffff1673ffffffffffffffffffffffffffffffffffffffff1681526020019081526020015f20549050919050565b6105796108ea565b6105825f610a1e565b565b5f60055f9054906101000a900473ffffffffffffffffffffffffffffffffffffffff16905090565b6060600480546105bb90611395565b80601f01602080910402602001604051908101604052809291908181526020018280546105e790611395565b80156106325780601f1061060957610100808354040283529160200191610632565b820191905f5260205f20905b81548152906001019060200180831161061557829003601f168201915b5050505050905090565b60065481565b5f5f61271060065484610655919061145a565b61065f91906114c8565b90505f818461066e91906114f8565b90505f61067b8683610ae1565b9050806106bd576040517f08c379a00000000000000000000000000000000000000000000000000000000081526004016106b490611575565b60405180910390fd5b6106ce6106c86108d1565b8461099f565b6001935050505092915050565b5f60015f8473ffffffffffffffffffffffffffffffffffffffff1673ffffffffffffffffffffffffffffffffffffffff1681526020019081526020015f205f8373ffffffffffffffffffffffffffffffffffffffff1673ffffffffffffffffffffffffffffffffffffffff1681526020019081526020015f2054905092915050565b6107656108ea565b5f73ffffffffffffffffffffffffffffffffffffffff168173ffffffffffffffffffffffffffffffffffffffff16036107d3576040517f08c379a00000000000000000000000000000000000000000000000000000000081526004016107ca906115dd565b60405180910390fd5b8060075f6101000a81548173ffffffffffffffffffffffffffffffffffffffff021916908373ffffffffffffffffffffffffffffffffffffffff1602179055507f7a7b5a0a132f9e0581eb8527f66eae9ee89c2a3e79d4ac7e41a1f1f4d48a7fc28160405161084291906112e6565b60405180910390a150565b6108556108ea565b5f73ffffffffffffffffffffffffffffffffffffffff168173ffffffffffffffffffffffffffffffffffffffff16036108c5575f6040517f1e4fbdf70000000000000000000000000000000000000000000000000000000081526004016108bc91906112e6565b60405180910390fd5b6108ce81610a1e565b50565b5f33905090565b6108e58383836001610b03565b505050565b6108f26108d1565b73ffffffffffffffffffffffffffffffffffffffff16610910610584565b73ffffffffffffffffffffffffffffffffffffffff161461096f576109336108d1565b6040517f118cdaa700000000000000000000000000000000000000000000000000000000815260040161096691906112e6565b60405180910390fd5b565b5f5f61097b6108d1565b9050610988858285610cd2565b610993858585610d65565b60019150509392505050565b5f73ffffffffffffffffffffffffffffffffffffffff168273ffffffffffffffffffffffffffffffffffffffff1603610a0f575f6040517f96c6fd1e000000000000000000000000000000000000000000000000000000008152600401610a0691906112e6565b60405180910390fd5b610a1a825f83610e55565b5050565b5f60055f9054906101000a900473ffffffffffffffffffffffffffffffffffffffff1690508160055f6101000a81548173ffffffffffffffffffffffffffffffffffffffff021916908373ffffffffffffffffffffffffffffffffffffffff1602179055508173ffffffffffffffffffffffffffffffffffffffff168173ffffffffffffffffffffffffffffffffffffffff167f8be0079c531659141344cd1fd0a4f28419497f9722a3daafe3b4186f6b6457e060405160405180910390a35050565b5f5f610aeb6108d1565b9050610af8818585610d65565b600191505092915050565b5f73ffffffffffffffffffffffffffffffffffffffff168473ffffffffffffffffffffffffffffffffffffffff1603610b73575f6040517fe602df05000000000000000000000000000000000000000000000000000000008152600401610b6a91906112e6565b60405180910390fd5b5f73ffffffffffffffffffffffffffffffffffffffff168373ffffffffffffffffffffffffffffffffffffffff1603610be3575f6040517f94280d62000000000000000000000000000000000000000000000000000000008152600401610bda91906112e6565b60405180910390fd5b8160015f8673ffffffffffffffffffffffffffffffffffffffff1673ffffffffffffffffffffffffffffffffffffffff1681526020019081526020015f205f8573ffffffffffffffffffffffffffffffffffffffff1673ffffffffffffffffffffffffffffffffffffffff1681526020019081526020015f20819055508015610ccc578273ffffffffffffffffffffffffffffffffffffffff168473ffffffffffffffffffffffffffffffffffffffff167f8c5be1e5ebec7d5bd14f71427d1e84f3dd0314c0f7b2291e5b200ac8c7c3b92584604051610cc3919061123a565b60405180910390a35b50505050565b5f610cdd84846106db565b90507fffffffffffffffffffffffffffffffffffffffffffffffffffffffffffffffff811015610d5f5781811015610d50578281836040517ffb8f41b2000000000000000000000000000000000000000000000000000000008152600401610d47939291906115fb565b60405180910390fd5b610d5e84848484035f610b03565b5b50505050565b5f73ffffffffffffffffffffffffffffffffffffffff168373ffffffffffffffffffffffffffffffffffffffff1603610dd5575f6040517f96c6fd1e000000000000000000000000000000000000000000000000000000008152600401610dcc91906112e6565b60405180910390fd5b5f73ffffffffffffffffffffffffffffffffffffffff168273ffffffffffffffffffffffffffffffffffffffff1603610e45575f6040517fec442f05000000000000000000000000000000000000000000000000000000008152600401610e3c91906112e6565b60405180910390fd5b610e50838383610e55565b505050565b5f73ffffffffffffffffffffffffffffffffffffffff168373ffffffffffffffffffffffffffffffffffffffff1603610ea5578060025f828254610e999190611630565b92505081905550610f73565b5f5f5f8573ffffffffffffffffffffffffffffffffffffffff1673ffffffffffffffffffffffffffffffffffffffff1681526020019081526020015f2054905081811015610f2e578381836040517fe450d38c000000000000000000000000000000000000000000000000000000008152600401610f25939291906115fb565b60405180910390fd5b8181035f5f8673ffffffffffffffffffffffffffffffffffffffff1673ffffffffffffffffffffffffffffffffffffffff1681526020019081526020015f2081905550505b5f73ffffffffffffffffffffffffffffffffffffffff168273ffffffffffffffffffffffffffffffffffffffff1603610fba578060025f8282540392505081905550611004565b805f5f8473ffffffffffffffffffffffffffffffffffffffff1673ffffffffffffffffffffffffffffffffffffffff1681526020019081526020015f205f82825401925050819055505b8173ffffffffffffffffffffffffffffffffffffffff168373ffffffffffffffffffffffffffffffffffffffff167fddf252ad1be2c89b69c2b068fc378daa952ba7f163c4a11628f55a4df523b3ef83604051611061919061123a565b60405180910390a3505050565b5f81519050919050565b5f82825260208201905092915050565b8281835e5f83830152505050565b5f601f19601f8301169050919050565b5f6110b08261106e565b6110ba8185611078565b93506110ca818560208601611088565b6110d381611096565b840191505092915050565b5f6020820190508181035f8301526110f681846110a6565b905092915050565b5f5ffd5b5f73ffffffffffffffffffffffffffffffffffffffff82169050919050565b5f61112b82611102565b9050919050565b61113b81611121565b8114611145575f5ffd5b50565b5f8135905061115681611132565b92915050565b5f819050919050565b61116e8161115c565b8114611178575f5ffd5b50565b5f8135905061118981611165565b92915050565b5f5f604083850312156111a5576111a46110fe565b5b5f6111b285828601611148565b92505060206111c38582860161117b565b9150509250929050565b5f8115159050919050565b6111e1816111cd565b82525050565b5f6020820190506111fa5f8301846111d8565b92915050565b5f60208284031215611215576112146110fe565b5b5f6112228482850161117b565b91505092915050565b6112348161115c565b82525050565b5f60208201905061124d5f83018461122b565b92915050565b5f5f5f6060848603121561126a576112696110fe565b5b5f61127786828701611148565b935050602061128886828701611148565b92505060406112998682870161117b565b9150509250925092565b5f60ff82169050919050565b6112b8816112a3565b82525050565b5f6020820190506112d15f8301846112af565b92915050565b6112e081611121565b82525050565b5f6020820190506112f95f8301846112d7565b92915050565b5f60208284031215611314576113136110fe565b5b5f61132184828501611148565b91505092915050565b5f5f604083850312156113405761133f6110fe565b5b5f61134d85828601611148565b925050602061135e85828601611148565b9150509250929050565b7f4e487b71000000000000000000000000000000000000000000000000000000005f52602260045260245ffd5b5f60028204905060018216806113ac57607f821691505b6020821081036113bf576113be611368565b5b50919050565b7f46656520746f6f206869676800000000000000000000000000000000000000005f82015250565b5f6113f9600c83611078565b9150611404826113c5565b602082019050919050565b5f6020820190508181035f830152611426816113ed565b9050919050565b7f4e487b71000000000000000000000000000000000000000000000000000000005f52601160045260245ffd5b5f6114648261115c565b915061146f8361115c565b925082820261147d8161115c565b915082820484148315176114945761149361142d565b5b5092915050565b7f4e487b71000000000000000000000000000000000000000000000000000000005f52601260045260245ffd5b5f6114d28261115c565b91506114dd8361115c565b9250826114ed576114ec61149b565b5b828204905092915050565b5f6115028261115c565b915061150d8361115c565b92508282039050818111156115255761152461142d565b5b92915050565b7f5472616e73666572206661696c656400000000000000000000000000000000005f82015250565b5f61155f600f83611078565b915061156a8261152b565b602082019050919050565b5f6020820190508181035f83015261158c81611553565b9050919050565b7f496e76616c69642066656520726563697069656e7400000000000000000000005f82015250565b5f6115c7601583611078565b91506115d282611593565b602082019050919050565b5f6020820190508181035f8301526115f4816115bb565b9050919050565b5f60608201905061160e5f8301866112d7565b61161b602083018561122b565b611628604083018461122b565b949350505050565b5f61163a8261115c565b91506116458361115c565b925082820190508082111561165d5761165c61142d565b5b9291505056fea264697066735822122027440c0ca0eab95875a1566aa31f1203c5c3f654dd5487c7411ee30b6addc10964736f6c634300081d0033",
			"opcodes": "PUSH1 0x80 PUSH1 0x40 MSTORE CALLVALUE DUP1 ISZERO PUSH2 0xF JUMPI PUSH0 PUSH0 REVERT JUMPDEST POP PUSH1 0x40 MLOAD PUSH2 0x2155 CODESIZE SUB DUP1 PUSH2 0x2155 DUP4 CODECOPY DUP2 DUP2 ADD PUSH1 0x40 MSTORE DUP2 ADD SWAP1 PUSH2 0x31 SWAP2 SWAP1 PUSH2 0x5FF JUMP JUMPDEST CALLER PUSH1 0x40 MLOAD DUP1 PUSH1 0x40 ADD PUSH1 0x40 MSTORE DUP1 PUSH1 0x9 DUP2 MSTORE PUSH1 0x20 ADD PUSH32 0x46616E20546F6B656E0000000000000000000000000000000000000000000000 DUP2 MSTORE POP PUSH1 0x40 MLOAD DUP1 PUSH1 0x40 ADD PUSH1 0x40 MSTORE DUP1 PUSH1 0x3 DUP2 MSTORE PUSH1 0x20 ADD PUSH32 0x46414E0000000000000000000000000000000000000000000000000000000000 DUP2 MSTORE POP DUP2 PUSH1 0x3 SWAP1 DUP2 PUSH2 0xAD SWAP2 SWAP1 PUSH2 0x883 JUMP JUMPDEST POP DUP1 PUSH1 0x4 SWAP1 DUP2 PUSH2 0xBD SWAP2 SWAP1 PUSH2 0x883 JUMP JUMPDEST POP POP POP PUSH0 PUSH20 0xFFFFFFFFFFFFFFFFFFFFFFFFFFFFFFFFFFFFFFFF AND DUP2 PUSH20 0xFFFFFFFFFFFFFFFFFFFFFFFFFFFFFFFFFFFFFFFF AND SUB PUSH2 0x130 JUMPI PUSH0 PUSH1 0x40 MLOAD PUSH32 0x1E4FBDF700000000000000000000000000000000000000000000000000000000 DUP2 MSTORE PUSH1 0x4 ADD PUSH2 0x127 SWAP2 SWAP1 PUSH2 0x961 JUMP JUMPDEST PUSH1 0x40 MLOAD DUP1 SWAP2 SUB SWAP1 REVERT JUMPDEST PUSH2 0x13F DUP2 PUSH2 0x20D PUSH1 0x20 SHL PUSH1 0x20 SHR JUMP JUMPDEST POP PUSH0 PUSH20 0xFFFFFFFFFFFFFFFFFFFFFFFFFFFFFFFFFFFFFFFF AND DUP2 PUSH20 0xFFFFFFFFFFFFFFFFFFFFFFFFFFFFFFFFFFFFFFFF AND SUB PUSH2 0x1AE JUMPI PUSH1 0x40 MLOAD PUSH32 0x8C379A000000000000000000000000000000000000000000000000000000000 DUP2 MSTORE PUSH1 0x4 ADD PUSH2 0x1A5 SWAP1 PUSH2 0x9D4 JUMP JUMPDEST PUSH1 0x40 MLOAD DUP1 SWAP2 SUB SWAP1 REVERT JUMPDEST DUP2 PUSH1 0x6 DUP2 SWAP1 SSTORE POP DUP1 PUSH1 0x7 PUSH0 PUSH2 0x100 EXP DUP2 SLOAD DUP2 PUSH20 0xFFFFFFFFFFFFFFFFFFFFFFFFFFFFFFFFFFFFFFFF MUL NOT AND SWAP1 DUP4 PUSH20 0xFFFFFFFFFFFFFFFFFFFFFFFFFFFFFFFFFFFFFFFF AND MUL OR SWAP1 SSTORE POP PUSH2 0x205 CALLER DUP5 PUSH2 0x2D0 PUSH1 0x20 SHL PUSH1 0x20 SHR JUMP JUMPDEST POP POP POP PUSH2 0xAAF JUMP JUMPDEST PUSH0 PUSH1 0x5 PUSH0 SWAP1 SLOAD SWAP1 PUSH2 0x100 EXP SWAP1 DIV PUSH20 0xFFFFFFFFFFFFFFFFFFFFFFFFFFFFFFFFFFFFFFFF AND SWAP1 POP DUP2 PUSH1 0x5 PUSH0 PUSH2 0x100 EXP DUP2 SLOAD DUP2 PUSH20 0xFFFFFFFFFFFFFFFFFFFFFFFFFFFFFFFFFFFFFFFF MUL NOT AND SWAP1 DUP4 PUSH20 0xFFFFFFFFFFFFFFFFFFFFFFFFFFFFFFFFFFFFFFFF AND MUL OR SWAP1 SSTORE POP DUP2 PUSH20 0xFFFFFFFFFFFFFFFFFFFFFFFFFFFFFFFFFFFFFFFF AND DUP2 PUSH20 0xFFFFFFFFFFFFFFFFFFFFFFFFFFFFFFFFFFFFFFFF AND PUSH32 0x8BE0079C531659141344CD1FD0A4F28419497F9722A3DAAFE3B4186F6B6457E0 PUSH1 0x40 MLOAD PUSH1 0x40 MLOAD DUP1 SWAP2 SUB SWAP1 LOG3 POP POP JUMP JUMPDEST PUSH0 PUSH20 0xFFFFFFFFFFFFFFFFFFFFFFFFFFFFFFFFFFFFFFFF AND DUP3 PUSH20 0xFFFFFFFFFFFFFFFFFFFFFFFFFFFFFFFFFFFFFFFF AND SUB PUSH2 0x340 JUMPI PUSH0 PUSH1 0x40 MLOAD PUSH32 0xEC442F0500000000000000000000000000000000000000000000000000000000 DUP2 MSTORE PUSH1 0x4 ADD PUSH2 0x337 SWAP2 SWAP1 PUSH2 0x961 JUMP JUMPDEST PUSH1 0x40 MLOAD DUP1 SWAP2 SUB SWAP1 REVERT JUMPDEST PUSH2 0x351 PUSH0 DUP4 DUP4 PUSH2 0x355 PUSH1 0x20 SHL PUSH1 0x20 SHR JUMP JUMPDEST POP POP JUMP JUMPDEST PUSH0 PUSH20 0xFFFFFFFFFFFFFFFFFFFFFFFFFFFFFFFFFFFFFFFF AND DUP4 PUSH20 0xFFFFFFFFFFFFFFFFFFFFFFFFFFFFFFFFFFFFFFFF AND SUB PUSH2 0x3A5 JUMPI DUP1 PUSH1 0x2 PUSH0 DUP3 DUP3 SLOAD PUSH2 0x399 SWAP2 SWAP1 PUSH2 0xA1F JUMP JUMPDEST SWAP3 POP POP DUP2 SWAP1 SSTORE POP PUSH2 0x473 JUMP JUMPDEST PUSH0 PUSH0 PUSH0 DUP6 PUSH20 0xFFFFFFFFFFFFFFFFFFFFFFFFFFFFFFFFFFFFFFFF AND PUSH20 0xFFFFFFFFFFFFFFFFFFFFFFFFFFFFFFFFFFFFFFFF AND DUP2 MSTORE PUSH1 0x20 ADD SWAP1 DUP2 MSTORE PUSH1 0x20 ADD PUSH0 KECCAK256 SLOAD SWAP1 POP DUP2 DUP2 LT ISZERO PUSH2 0x42E JUMPI DUP4 DUP2 DUP4 PUSH1 0x40 MLOAD PUSH32 0xE450D38C00000000000000000000000000000000000000000000000000000000 DUP2 MSTORE PUSH1 0x4 ADD PUSH2 0x425 SWAP4 SWAP3 SWAP2 SWAP1 PUSH2 0xA61 JUMP JUMPDEST PUSH1 0x40 MLOAD DUP1 SWAP2 SUB SWAP1 REVERT JUMPDEST DUP2 DUP2 SUB PUSH0 PUSH0 DUP7 PUSH20 0xFFFFFFFFFFFFFFFFFFFFFFFFFFFFFFFFFFFFFFFF AND PUSH20 0xFFFFFFFFFFFFFFFFFFFFFFFFFFFFFFFFFFFFFFFF AND DUP2 MSTORE PUSH1 0x20 ADD SWAP1 DUP2 MSTORE PUSH1 0x20 ADD PUSH0 KECCAK256 DUP2 SWAP1 SSTORE POP POP JUMPDEST PUSH0 PUSH20 0xFFFFFFFFFFFFFFFFFFFFFFFFFFFFFFFFFFFFFFFF AND DUP3 PUSH20 0xFFFFFFFFFFFFFFFFFFFFFFFFFFFFFFFFFFFFFFFF AND SUB PUSH2 0x4BA JUMPI DUP1 PUSH1 0x2 PUSH0 DUP3 DUP3 SLOAD SUB SWAP3 POP POP DUP2 SWAP1 SSTORE POP PUSH2 0x504 JUMP JUMPDEST DUP1 PUSH0 PUSH0 DUP5 PUSH20 0xFFFFFFFFFFFFFFFFFFFFFFFFFFFFFFFFFFFFFFFF AND PUSH20 0xFFFFFFFFFFFFFFFFFFFFFFFFFFFFFFFFFFFFFFFF AND DUP2 MSTORE PUSH1 0x20 ADD SWAP1 DUP2 MSTORE PUSH1 0x20 ADD PUSH0 KECCAK256 PUSH0 DUP3 DUP3 SLOAD ADD SWAP3 POP POP DUP2 SWAP1 SSTORE POP JUMPDEST DUP2 PUSH20 0xFFFFFFFFFFFFFFFFFFFFFFFFFFFFFFFFFFFFFFFF AND DUP4 PUSH20 0xFFFFFFFFFFFFFFFFFFFFFFFFFFFFFFFFFFFFFFFF AND PUSH32 0xDDF252AD1BE2C89B69C2B068FC378DAA952BA7F163C4A11628F55A4DF523B3EF DUP4 PUSH1 0x40 MLOAD PUSH2 0x561 SWAP2 SWAP1 PUSH2 0xA96 JUMP JUMPDEST PUSH1 0x40 MLOAD DUP1 SWAP2 SUB SWAP1 LOG3 POP POP POP JUMP JUMPDEST PUSH0 PUSH0 REVERT JUMPDEST PUSH0 DUP2 SWAP1 POP SWAP2 SWAP1 POP JUMP JUMPDEST PUSH2 0x584 DUP2 PUSH2 0x572 JUMP JUMPDEST DUP2 EQ PUSH2 0x58E JUMPI PUSH0 PUSH0 REVERT JUMPDEST POP JUMP JUMPDEST PUSH0 DUP2 MLOAD SWAP1 POP PUSH2 0x59F DUP2 PUSH2 0x57B JUMP JUMPDEST SWAP3 SWAP2 POP POP JUMP JUMPDEST PUSH0 PUSH20 0xFFFFFFFFFFFFFFFFFFFFFFFFFFFFFFFFFFFFFFFF DUP3 AND SWAP1 POP SWAP2 SWAP1 POP JUMP JUMPDEST PUSH0 PUSH2 0x5CE DUP3 PUSH2 0x5A5 JUMP JUMPDEST SWAP1 POP SWAP2 SWAP1 POP JUMP JUMPDEST PUSH2 0x5DE DUP2 PUSH2 0x5C4 JUMP JUMPDEST DUP2 EQ PUSH2 0x5E8 JUMPI PUSH0 PUSH0 REVERT JUMPDEST POP JUMP JUMPDEST PUSH0 DUP2 MLOAD SWAP1 POP PUSH2 0x5F9 DUP2 PUSH2 0x5D5 JUMP JUMPDEST SWAP3 SWAP2 POP POP JUMP JUMPDEST PUSH0 PUSH0 PUSH0 PUSH1 0x60 DUP5 DUP7 SUB SLT ISZERO PUSH2 0x616 JUMPI PUSH2 0x615 PUSH2 0x56E JUMP JUMPDEST JUMPDEST PUSH0 PUSH2 0x623 DUP7 DUP3 DUP8 ADD PUSH2 0x591 JUMP JUMPDEST SWAP4 POP POP PUSH1 0x20 PUSH2 0x634 DUP7 DUP3 DUP8 ADD PUSH2 0x591 JUMP JUMPDEST SWAP3 POP POP PUSH1 0x40 PUSH2 0x645 DUP7 DUP3 DUP8 ADD PUSH2 0x5EB JUMP JUMPDEST SWAP2 POP POP SWAP3 POP SWAP3 POP SWAP3 JUMP JUMPDEST PUSH0 DUP2 MLOAD SWAP1 POP SWAP2 SWAP1 POP JUMP JUMPDEST PUSH32 0x4E487B7100000000000000000000000000000000000000000000000000000000 PUSH0 MSTORE PUSH1 0x41 PUSH1 0x4 MSTORE PUSH1 0x24 PUSH0 REVERT JUMPDEST PUSH32 0x4E487B7100000000000000000000000000000000000000000000000000000000 PUSH0 MSTORE PUSH1 0x22 PUSH1 0x4 MSTORE PUSH1 0x24 PUSH0 REVERT JUMPDEST PUSH0 PUSH1 0x2 DUP3 DIV SWAP1 POP PUSH1 0x1 DUP3 AND DUP1 PUSH2 0x6CA JUMPI PUSH1 0x7F DUP3 AND SWAP2 POP JUMPDEST PUSH1 0x20 DUP3 LT DUP2 SUB PUSH2 0x6DD JUMPI PUSH2 0x6DC PUSH2 0x686 JUMP JUMPDEST JUMPDEST POP SWAP2 SWAP1 POP JUMP JUMPDEST PUSH0 DUP2 SWAP1 POP DUP2 PUSH0 MSTORE PUSH1 0x20 PUSH0 KECCAK256 SWAP1 POP SWAP2 SWAP1 POP JUMP JUMPDEST PUSH0 PUSH1 0x20 PUSH1 0x1F DUP4 ADD DIV SWAP1 POP SWAP2 SWAP1 POP JUMP JUMPDEST PUSH0 DUP3 DUP3 SHL SWAP1 POP SWAP3 SWAP2 POP POP JUMP JUMPDEST PUSH0 PUSH1 0x8 DUP4 MUL PUSH2 0x73F PUSH32 0xFFFFFFFFFFFFFFFFFFFFFFFFFFFFFFFFFFFFFFFFFFFFFFFFFFFFFFFFFFFFFFFF DUP3 PUSH2 0x704 JUMP JUMPDEST PUSH2 0x749 DUP7 DUP4 PUSH2 0x704 JUMP JUMPDEST SWAP6 POP DUP1 NOT DUP5 AND SWAP4 POP DUP1 DUP7 AND DUP5 OR SWAP3 POP POP POP SWAP4 SWAP3 POP POP POP JUMP JUMPDEST PUSH0 DUP2 SWAP1 POP SWAP2 SWAP1 POP JUMP JUMPDEST PUSH0 PUSH2 0x784 PUSH2 0x77F PUSH2 0x77A DUP5 PUSH2 0x572 JUMP JUMPDEST PUSH2 0x761 JUMP JUMPDEST PUSH2 0x572 JUMP JUMPDEST SWAP1 POP SWAP2 SWAP1 POP JUMP JUMPDEST PUSH0 DUP2 SWAP1 POP SWAP2 SWAP1 POP JUMP JUMPDEST PUSH2 0x79D DUP4 PUSH2 0x76A JUMP JUMPDEST PUSH2 0x7B1 PUSH2 0x7A9 DUP3 PUSH2 0x78B JUMP JUMPDEST DUP5 DUP5 SLOAD PUSH2 0x710 JUMP JUMPDEST DUP3 SSTORE POP POP POP POP JUMP JUMPDEST PUSH0 PUSH0 SWAP1 POP SWAP1 JUMP JUMPDEST PUSH2 0x7C8 PUSH2 0x7B9 JUMP JUMPDEST PUSH2 0x7D3 DUP2 DUP5 DUP5 PUSH2 0x794 JUMP JUMPDEST POP POP POP JUMP JUMPDEST JUMPDEST DUP2 DUP2 LT ISZERO PUSH2 0x7F6 JUMPI PUSH2 0x7EB PUSH0 DUP3 PUSH2 0x7C0 JUMP JUMPDEST PUSH1 0x1 DUP2 ADD SWAP1 POP PUSH2 0x7D9 JUMP JUMPDEST POP POP JUMP JUMPDEST PUSH1 0x1F DUP3 GT ISZERO PUSH2 0x83B JUMPI PUSH2 0x80C DUP2 PUSH2 0x6E3 JUMP JUMPDEST PUSH2 0x815 DUP5 PUSH2 0x6F5 JUMP JUMPDEST DUP2 ADD PUSH1 0x20 DUP6 LT ISZERO PUSH2 0x824 JUMPI DUP2 SWAP1 POP JUMPDEST PUSH2 0x838 PUSH2 0x830 DUP6 PUSH2 0x6F5 JUMP JUMPDEST DUP4 ADD DUP3 PUSH2 0x7D8 JUMP JUMPDEST POP POP JUMPDEST POP POP POP JUMP JUMPDEST PUSH0 DUP3 DUP3 SHR SWAP1 POP SWAP3 SWAP2 POP POP JUMP JUMPDEST PUSH0 PUSH2 0x85B PUSH0 NOT DUP5 PUSH1 0x8 MUL PUSH2 0x840 JUMP JUMPDEST NOT DUP1 DUP4 AND SWAP2 POP POP SWAP3 SWAP2 POP POP JUMP JUMPDEST PUSH0 PUSH2 0x873 DUP4 DUP4 PUSH2 0x84C JUMP JUMPDEST SWAP2 POP DUP3 PUSH1 0x2 MUL DUP3 OR SWAP1 POP SWAP3 SWAP2 POP POP JUMP JUMPDEST PUSH2 0x88C DUP3 PUSH2 0x64F JUMP JUMPDEST PUSH8 0xFFFFFFFFFFFFFFFF DUP2 GT ISZERO PUSH2 0x8A5 JUMPI PUSH2 0x8A4 PUSH2 0x659 JUMP JUMPDEST JUMPDEST PUSH2 0x8AF DUP3 SLOAD PUSH2 0x6B3 JUMP JUMPDEST PUSH2 0x8BA DUP3 DUP3 DUP6 PUSH2 0x7FA JUMP JUMPDEST PUSH0 PUSH1 0x20 SWAP1 POP PUSH1 0x1F DUP4 GT PUSH1 0x1 DUP2 EQ PUSH2 0x8EB JUMPI PUSH0 DUP5 ISZERO PUSH2 0x8D9 JUMPI DUP3 DUP8 ADD MLOAD SWAP1 POP JUMPDEST PUSH2 0x8E3 DUP6 DUP3 PUSH2 0x868 JUMP JUMPDEST DUP7 SSTORE POP PUSH2 0x94A JUMP JUMPDEST PUSH1 0x1F NOT DUP5 AND PUSH2 0x8F9 DUP7 PUSH2 0x6E3 JUMP JUMPDEST PUSH0 JUMPDEST DUP3 DUP2 LT ISZERO PUSH2 0x920 JUMPI DUP5 DUP10 ADD MLOAD DUP3 SSTORE PUSH1 0x1 DUP3 ADD SWAP2 POP PUSH1 0x20 DUP6 ADD SWAP5 POP PUSH1 0x20 DUP2 ADD SWAP1 POP PUSH2 0x8FB JUMP JUMPDEST DUP7 DUP4 LT ISZERO PUSH2 0x93D JUMPI DUP5 DUP10 ADD MLOAD PUSH2 0x939 PUSH1 0x1F DUP10 AND DUP3 PUSH2 0x84C JUMP JUMPDEST DUP4 SSTORE POP JUMPDEST PUSH1 0x1 PUSH1 0x2 DUP9 MUL ADD DUP9 SSTORE POP POP POP JUMPDEST POP POP POP POP POP POP JUMP JUMPDEST PUSH2 0x95B DUP2 PUSH2 0x5C4 JUMP JUMPDEST DUP3 MSTORE POP POP JUMP JUMPDEST PUSH0 PUSH1 0x20 DUP3 ADD SWAP1 POP PUSH2 0x974 PUSH0 DUP4 ADD DUP5 PUSH2 0x952 JUMP JUMPDEST SWAP3 SWAP2 POP POP JUMP JUMPDEST PUSH0 DUP3 DUP3 MSTORE PUSH1 0x20 DUP3 ADD SWAP1 POP SWAP3 SWAP2 POP POP JUMP JUMPDEST PUSH32 0x496E76616C69642066656520726563697069656E740000000000000000000000 PUSH0 DUP3 ADD MSTORE POP JUMP JUMPDEST PUSH0 PUSH2 0x9BE PUSH1 0x15 DUP4 PUSH2 0x97A JUMP JUMPDEST SWAP2 POP PUSH2 0x9C9 DUP3 PUSH2 0x98A JUMP JUMPDEST PUSH1 0x20 DUP3 ADD SWAP1 POP SWAP2 SWAP1 POP JUMP JUMPDEST PUSH0 PUSH1 0x20 DUP3 ADD SWAP1 POP DUP2 DUP2 SUB PUSH0 DUP4 ADD MSTORE PUSH2 0x9EB DUP2 PUSH2 0x9B2 JUMP JUMPDEST SWAP1 POP SWAP2 SWAP1 POP JUMP JUMPDEST PUSH32 0x4E487B7100000000000000000000000000000000000000000000000000000000 PUSH0 MSTORE PUSH1 0x11 PUSH1 0x4 MSTORE PUSH1 0x24 PUSH0 REVERT JUMPDEST PUSH0 PUSH2 0xA29 DUP3 PUSH2 0x572 JUMP JUMPDEST SWAP2 POP PUSH2 0xA34 DUP4 PUSH2 0x572 JUMP JUMPDEST SWAP3 POP DUP3 DUP3 ADD SWAP1 POP DUP1 DUP3 GT ISZERO PUSH2 0xA4C JUMPI PUSH2 0xA4B PUSH2 0x9F2 JUMP JUMPDEST JUMPDEST SWAP3 SWAP2 POP POP JUMP JUMPDEST PUSH2 0xA5B DUP2 PUSH2 0x572 JUMP JUMPDEST DUP3 MSTORE POP POP JUMP JUMPDEST PUSH0 PUSH1 0x60 DUP3 ADD SWAP1 POP PUSH2 0xA74 PUSH0 DUP4 ADD DUP7 PUSH2 0x952 JUMP JUMPDEST PUSH2 0xA81 PUSH1 0x20 DUP4 ADD DUP6 PUSH2 0xA52 JUMP JUMPDEST PUSH2 0xA8E PUSH1 0x40 DUP4 ADD DUP5 PUSH2 0xA52 JUMP JUMPDEST SWAP5 SWAP4 POP POP POP POP JUMP JUMPDEST PUSH0 PUSH1 0x20 DUP3 ADD SWAP1 POP PUSH2 0xAA9 PUSH0 DUP4 ADD DUP5 PUSH2 0xA52 JUMP JUMPDEST SWAP3 SWAP2 POP POP JUMP JUMPDEST PUSH2 0x1699 DUP1 PUSH2 0xABC PUSH0 CODECOPY PUSH0 RETURN INVALID PUSH1 0x80 PUSH1 0x40 MSTORE CALLVALUE DUP1 ISZERO PUSH2 0xF JUMPI PUSH0 PUSH0 REVERT JUMPDEST POP PUSH1 0x4 CALLDATASIZE LT PUSH2 0xFE JUMPI PUSH0 CALLDATALOAD PUSH1 0xE0 SHR DUP1 PUSH4 0x715018A6 GT PUSH2 0x95 JUMPI DUP1 PUSH4 0xA9059CBB GT PUSH2 0x64 JUMPI DUP1 PUSH4 0xA9059CBB EQ PUSH2 0x28A JUMPI DUP1 PUSH4 0xDD62ED3E EQ PUSH2 0x2BA JUMPI DUP1 PUSH4 0xE74B981B EQ PUSH2 0x2EA JUMPI DUP1 PUSH4 0xF2FDE38B EQ PUSH2 0x306 JUMPI PUSH2 0xFE JUMP JUMPDEST DUP1 PUSH4 0x715018A6 EQ PUSH2 0x226 JUMPI DUP1 PUSH4 0x8DA5CB5B EQ PUSH2 0x230 JUMPI DUP1 PUSH4 0x95D89B41 EQ PUSH2 0x24E JUMPI DUP1 PUSH4 0x9ED3EDF0 EQ PUSH2 0x26C JUMPI PUSH2 0xFE JUMP JUMPDEST DUP1 PUSH4 0x23B872DD GT PUSH2 0xD1 JUMPI DUP1 PUSH4 0x23B872DD EQ PUSH2 0x18A JUMPI DUP1 PUSH4 0x313CE567 EQ PUSH2 0x1BA JUMPI DUP1 PUSH4 0x46904840 EQ PUSH2 0x1D8 JUMPI DUP1 PUSH4 0x70A08231 EQ PUSH2 0x1F6 JUMPI PUSH2 0xFE JUMP JUMPDEST DUP1 PUSH4 0x6FDDE03 EQ PUSH2 0x102 JUMPI DUP1 PUSH4 0x95EA7B3 EQ PUSH2 0x120 JUMPI DUP1 PUSH4 0x96A8AB7 EQ PUSH2 0x150 JUMPI DUP1 PUSH4 0x18160DDD EQ PUSH2 0x16C JUMPI JUMPDEST PUSH0 PUSH0 REVERT JUMPDEST PUSH2 0x10A PUSH2 0x322 JUMP JUMPDEST PUSH1 0x40 MLOAD PUSH2 0x117 SWAP2 SWAP1 PUSH2 0x10DE JUMP JUMPDEST PUSH1 0x40 MLOAD DUP1 SWAP2 SUB SWAP1 RETURN JUMPDEST PUSH2 0x13A PUSH1 0x4 DUP1 CALLDATASIZE SUB DUP2 ADD SWAP1 PUSH2 0x135 SWAP2 SWAP1 PUSH2 0x118F JUMP JUMPDEST PUSH2 0x3B2 JUMP JUMPDEST PUSH1 0x40 MLOAD PUSH2 0x147 SWAP2 SWAP1 PUSH2 0x11E7 JUMP JUMPDEST PUSH1 0x40 MLOAD DUP1 SWAP2 SUB SWAP1 RETURN JUMPDEST PUSH2 0x16A PUSH1 0x4 DUP1 CALLDATASIZE SUB DUP2 ADD SWAP1 PUSH2 0x165 SWAP2 SWAP1 PUSH2 0x1200 JUMP JUMPDEST PUSH2 0x3D4 JUMP JUMPDEST STOP JUMPDEST PUSH2 0x174 PUSH2 0x462 JUMP JUMPDEST PUSH1 0x40 MLOAD PUSH2 0x181 SWAP2 SWAP1 PUSH2 0x123A JUMP JUMPDEST PUSH1 0x40 MLOAD DUP1 SWAP2 SUB SWAP1 RETURN JUMPDEST PUSH2 0x1A4 PUSH1 0x4 DUP1 CALLDATASIZE SUB DUP2 ADD SWAP1 PUSH2 0x19F SWAP2 SWAP1 PUSH2 0x1253 JUMP JUMPDEST PUSH2 0x46B JUMP JUMPDEST PUSH1 0x40 MLOAD PUSH2 0x1B1 SWAP2 SWAP1 PUSH2 0x11E7 JUMP JUMPDEST PUSH1 0x40 MLOAD DUP1 SWAP2 SUB SWAP1 RETURN JUMPDEST PUSH2 0x1C2 PUSH2 0x4FF JUMP JUMPDEST PUSH1 0x40 MLOAD PUSH2 0x1CF SWAP2 SWAP1 PUSH2 0x12BE JUMP JUMPDEST PUSH1 0x40 MLOAD DUP1 SWAP2 SUB SWAP1 RETURN JUMPDEST PUSH2 0x1E0 PUSH2 0x507 JUMP JUMPDEST PUSH1 0x40 MLOAD PUSH2 0x1ED SWAP2 SWAP1 PUSH2 0x12E6 JUMP JUMPDEST PUSH1 0x40 MLOAD DUP1 SWAP2 SUB SWAP1 RETURN JUMPDEST PUSH2 0x210 PUSH1 0x4 DUP1 CALLDATASIZE SUB DUP2 ADD SWAP1 PUSH2 0x20B SWAP2 SWAP1 PUSH2 0x12FF JUMP JUMPDEST PUSH2 0x52C JUMP JUMPDEST PUSH1 0x40 MLOAD PUSH2 0x21D SWAP2 SWAP1 PUSH2 0x123A JUMP JUMPDEST PUSH1 0x40 MLOAD DUP1 SWAP2 SUB SWAP1 RETURN JUMPDEST PUSH2 0x22E PUSH2 0x571 JUMP JUMPDEST STOP JUMPDEST PUSH2 0x238 PUSH2 0x584 JUMP JUMPDEST PUSH1 0x40 MLOAD PUSH2 0x245 SWAP2 SWAP1 PUSH2 0x12E6 JUMP JUMPDEST PUSH1 0x40 MLOAD DUP1 SWAP2 SUB SWAP1 RETURN JUMPDEST PUSH2 0x256 PUSH2 0x5AC JUMP JUMPDEST PUSH1 0x40 MLOAD PUSH2 0x263 SWAP2 SWAP1 PUSH2 0x10DE JUMP JUMPDEST PUSH1 0x40 MLOAD DUP1 SWAP2 SUB SWAP1 RETURN JUMPDEST PUSH2 0x274 PUSH2 0x63C JUMP JUMPDEST PUSH1 0x40 MLOAD PUSH2 0x281 SWAP2 SWAP1 PUSH2 0x123A JUMP JUMPDEST PUSH1 0x40 MLOAD DUP1 SWAP2 SUB SWAP1 RETURN JUMPDEST PUSH2 0x2A4 PUSH1 0x4 DUP1 CALLDATASIZE SUB DUP2 ADD SWAP1 PUSH2 0x29F SWAP2 SWAP1 PUSH2 0x118F JUMP JUMPDEST PUSH2 0x642 JUMP JUMPDEST PUSH1 0x40 MLOAD PUSH2 0x2B1 SWAP2 SWAP1 PUSH2 0x11E7 JUMP JUMPDEST PUSH1 0x40 MLOAD DUP1 SWAP2 SUB SWAP1 RETURN JUMPDEST PUSH2 0x2D4 PUSH1 0x4 DUP1 CALLDATASIZE SUB DUP2 ADD SWAP1 PUSH2 0x2CF SWAP2 SWAP1 PUSH2 0x132A JUMP JUMPDEST PUSH2 0x6DB JUMP JUMPDEST PUSH1 0x40 MLOAD PUSH2 0x2E1 SWAP2 SWAP1 PUSH2 0x123A JUMP JUMPDEST PUSH1 0x40 MLOAD DUP1 SWAP2 SUB SWAP1 RETURN JUMPDEST PUSH2 0x304 PUSH1 0x4 DUP1 CALLDATASIZE SUB DUP2 ADD SWAP1 PUSH2 0x2FF SWAP2 SWAP1 PUSH2 0x12FF JUMP JUMPDEST PUSH2 0x75D JUMP JUMPDEST STOP JUMPDEST PUSH2 0x320 PUSH1 0x4 DUP1 CALLDATASIZE SUB DUP2 ADD SWAP1 PUSH2 0x31B SWAP2 SWAP1 PUSH2 0x12FF JUMP JUMPDEST PUSH2 0x84D JUMP JUMPDEST STOP JUMPDEST PUSH1 0x60 PUSH1 0x3 DUP1 SLOAD PUSH2 0x331 SWAP1 PUSH2 0x1395 JUMP JUMPDEST DUP1 PUSH1 0x1F ADD PUSH1 0x20 DUP1 SWAP2 DIV MUL PUSH1 0x20 ADD PUSH1 0x40 MLOAD SWAP1 DUP2 ADD PUSH1 0x40 MSTORE DUP1 SWAP3 SWAP2 SWAP1 DUP2 DUP2 MSTORE PUSH1 0x20 ADD DUP3 DUP1 SLOAD PUSH2 0x35D SWAP1 PUSH2 0x1395 JUMP JUMPDEST DUP1 ISZERO PUSH2 0x3A8 JUMPI DUP1 PUSH1 0x1F LT PUSH2 0x37F JUMPI PUSH2 0x100 DUP1 DUP4 SLOAD DIV MUL DUP4 MSTORE SWAP2 PUSH1 0x20 ADD SWAP2 PUSH2 0x3A8 JUMP JUMPDEST DUP3 ADD SWAP2 SWAP1 PUSH0 MSTORE PUSH1 0x20 PUSH0 KECCAK256 SWAP1 JUMPDEST DUP2 SLOAD DUP2 MSTORE SWAP1 PUSH1 0x1 ADD SWAP1 PUSH1 0x20 ADD DUP1 DUP4 GT PUSH2 0x38B JUMPI DUP3 SWAP1 SUB PUSH1 0x1F AND DUP3 ADD SWAP2 JUMPDEST POP POP POP POP POP SWAP1 POP SWAP1 JUMP JUMPDEST PUSH0 PUSH0 PUSH2 0x3BC PUSH2 0x8D1 JUMP JUMPDEST SWAP1 POP PUSH2 0x3C9 DUP2 DUP6 DUP6 PUSH2 0x8D8 JUMP JUMPDEST PUSH1 0x1 SWAP2 POP POP SWAP3 SWAP2 POP POP JUMP JUMPDEST PUSH2 0x3DC PUSH2 0x8EA JUMP JUMPDEST PUSH2 0x3E8 DUP2 GT ISZERO PUSH2 0x421 JUMPI PUSH1 0x40 MLOAD PUSH32 0x8C379A000000000000000000000000000000000000000000000000000000000 DUP2 MSTORE PUSH1 0x4 ADD PUSH2 0x418 SWAP1 PUSH2 0x140F JUMP JUMPDEST PUSH1 0x40 MLOAD DUP1 SWAP2 SUB SWAP1 REVERT JUMPDEST DUP1 PUSH1 0x6 DUP2 SWAP1 SSTORE POP PUSH32 0x21EA14061974D1886E13E854A8A738E5177A587170A7F767A2B182A3F8B8DCDF DUP2 PUSH1 0x40 MLOAD PUSH2 0x457 SWAP2 SWAP1 PUSH2 0x123A JUMP JUMPDEST PUSH1 0x40 MLOAD DUP1 SWAP2 SUB SWAP1 LOG1 POP JUMP JUMPDEST PUSH0 PUSH1 0x2 SLOAD SWAP1 POP SWAP1 JUMP JUMPDEST PUSH0 PUSH0 PUSH2 0x2710 PUSH1 0x6 SLOAD DUP5 PUSH2 0x47E SWAP2 SWAP1 PUSH2 0x145A JUMP JUMPDEST PUSH2 0x488 SWAP2 SWAP1 PUSH2 0x14C8 JUMP JUMPDEST SWAP1 POP PUSH0 DUP2 DUP5 PUSH2 0x497 SWAP2 SWAP1 PUSH2 0x14F8 JUMP JUMPDEST SWAP1 POP PUSH0 PUSH2 0x4A5 DUP8 DUP8 DUP5 PUSH2 0x971 JUMP JUMPDEST SWAP1 POP DUP1 PUSH2 0x4E7 JUMPI PUSH1 0x40 MLOAD PUSH32 0x8C379A000000000000000000000000000000000000000000000000000000000 DUP2 MSTORE PUSH1 0x4 ADD PUSH2 0x4DE SWAP1 PUSH2 0x1575 JUMP JUMPDEST PUSH1 0x40 MLOAD DUP1 SWAP2 SUB SWAP1 REVERT JUMPDEST PUSH2 0x4F1 DUP8 DUP5 PUSH2 0x99F JUMP JUMPDEST PUSH1 0x1 SWAP4 POP POP POP POP SWAP4 SWAP3 POP POP POP JUMP JUMPDEST PUSH0 PUSH1 0x12 SWAP1 POP SWAP1 JUMP JUMPDEST PUSH1 0x7 PUSH0 SWAP1 SLOAD SWAP1 PUSH2 0x100 EXP SWAP1 DIV PUSH20 0xFFFFFFFFFFFFFFFFFFFFFFFFFFFFFFFFFFFFFFFF AND DUP2 JUMP JUMPDEST PUSH0 PUSH0 PUSH0 DUP4 PUSH20 0xFFFFFFFFFFFFFFFFFFFFFFFFFFFFFFFFFFFFFFFF AND PUSH20 0xFFFFFFFFFFFFFFFFFFFFFFFFFFFFFFFFFFFFFFFF AND DUP2 MSTORE PUSH1 0x20 ADD SWAP1 DUP2 MSTORE PUSH1 0x20 ADD PUSH0 KECCAK256 SLOAD SWAP1 POP SWAP2 SWAP1 POP JUMP JUMPDEST PUSH2 0x579 PUSH2 0x8EA JUMP JUMPDEST PUSH2 0x582 PUSH0 PUSH2 0xA1E JUMP JUMPDEST JUMP JUMPDEST PUSH0 PUSH1 0x5 PUSH0 SWAP1 SLOAD SWAP1 PUSH2 0x100 EXP SWAP1 DIV PUSH20 0xFFFFFFFFFFFFFFFFFFFFFFFFFFFFFFFFFFFFFFFF AND SWAP1 POP SWAP1 JUMP JUMPDEST PUSH1 0x60 PUSH1 0x4 DUP1 SLOAD PUSH2 0x5BB SWAP1 PUSH2 0x1395 JUMP JUMPDEST DUP1 PUSH1 0x1F ADD PUSH1 0x20 DUP1 SWAP2 DIV MUL PUSH1 0x20 ADD PUSH1 0x40 MLOAD SWAP1 DUP2 ADD PUSH1 0x40 MSTORE DUP1 SWAP3 SWAP2 SWAP1 DUP2 DUP2 MSTORE PUSH1 0x20 ADD DUP3 DUP1 SLOAD PUSH2 0x5E7 SWAP1 PUSH2 0x1395 JUMP JUMPDEST DUP1 ISZERO PUSH2 0x632 JUMPI DUP1 PUSH1 0x1F LT PUSH2 0x609 JUMPI PUSH2 0x100 DUP1 DUP4 SLOAD DIV MUL DUP4 MSTORE SWAP2 PUSH1 0x20 ADD SWAP2 PUSH2 0x632 JUMP JUMPDEST DUP3 ADD SWAP2 SWAP1 PUSH0 MSTORE PUSH1 0x20 PUSH0 KECCAK256 SWAP1 JUMPDEST DUP2 SLOAD DUP2 MSTORE SWAP1 PUSH1 0x1 ADD SWAP1 PUSH1 0x20 ADD DUP1 DUP4 GT PUSH2 0x615 JUMPI DUP3 SWAP1 SUB PUSH1 0x1F AND DUP3 ADD SWAP2 JUMPDEST POP POP POP POP POP SWAP1 POP SWAP1 JUMP JUMPDEST PUSH1 0x6 SLOAD DUP2 JUMP JUMPDEST PUSH0 PUSH0 PUSH2 0x2710 PUSH1 0x6 SLOAD DUP5 PUSH2 0x655 SWAP2 SWAP1 PUSH2 0x145A JUMP JUMPDEST PUSH2 0x65F SWAP2 SWAP1 PUSH2 0x14C8 JUMP JUMPDEST SWAP1 POP PUSH0 DUP2 DUP5 PUSH2 0x66E SWAP2 SWAP1 PUSH2 0x14F8 JUMP JUMPDEST SWAP1 POP PUSH0 PUSH2 0x67B DUP7 DUP4 PUSH2 0xAE1 JUMP JUMPDEST SWAP1 POP DUP1 PUSH2 0x6BD JUMPI PUSH1 0x40 MLOAD PUSH32 0x8C379A000000000000000000000000000000000000000000000000000000000 DUP2 MSTORE PUSH1 0x4 ADD PUSH2 0x6B4 SWAP1 PUSH2 0x1575 JUMP JUMPDEST PUSH1 0x40 MLOAD DUP1 SWAP2 SUB SWAP1 REVERT JUMPDEST PUSH2 0x6CE PUSH2 0x6C8 PUSH2 0x8D1 JUMP JUMPDEST DUP5 PUSH2 0x99F JUMP JUMPDEST PUSH1 0x1 SWAP4 POP POP POP POP SWAP3 SWAP2 POP POP JUMP JUMPDEST PUSH0 PUSH1 0x1 PUSH0 DUP5 PUSH20 0xFFFFFFFFFFFFFFFFFFFFFFFFFFFFFFFFFFFFFFFF AND PUSH20 0xFFFFFFFFFFFFFFFFFFFFFFFFFFFFFFFFFFFFFFFF AND DUP2 MSTORE PUSH1 0x20 ADD SWAP1 DUP2 MSTORE PUSH1 0x20 ADD PUSH0 KECCAK256 PUSH0 DUP4 PUSH20 0xFFFFFFFFFFFFFFFFFFFFFFFFFFFFFFFFFFFFFFFF AND PUSH20 0xFFFFFFFFFFFFFFFFFFFFFFFFFFFFFFFFFFFFFFFF AND DUP2 MSTORE PUSH1 0x20 ADD SWAP1 DUP2 MSTORE PUSH1 0x20 ADD PUSH0 KECCAK256 SLOAD SWAP1 POP SWAP3 SWAP2 POP POP JUMP JUMPDEST PUSH2 0x765 PUSH2 0x8EA JUMP JUMPDEST PUSH0 PUSH20 0xFFFFFFFFFFFFFFFFFFFFFFFFFFFFFFFFFFFFFFFF AND DUP2 PUSH20 0xFFFFFFFFFFFFFFFFFFFFFFFFFFFFFFFFFFFFFFFF AND SUB PUSH2 0x7D3 JUMPI PUSH1 0x40 MLOAD PUSH32 0x8C379A000000000000000000000000000000000000000000000000000000000 DUP2 MSTORE PUSH1 0x4 ADD PUSH2 0x7CA SWAP1 PUSH2 0x15DD JUMP JUMPDEST PUSH1 0x40 MLOAD DUP1 SWAP2 SUB SWAP1 REVERT JUMPDEST DUP1 PUSH1 0x7 PUSH0 PUSH2 0x100 EXP DUP2 SLOAD DUP2 PUSH20 0xFFFFFFFFFFFFFFFFFFFFFFFFFFFFFFFFFFFFFFFF MUL NOT AND SWAP1 DUP4 PUSH20 0xFFFFFFFFFFFFFFFFFFFFFFFFFFFFFFFFFFFFFFFF AND MUL OR SWAP1 SSTORE POP PUSH32 0x7A7B5A0A132F9E0581EB8527F66EAE9EE89C2A3E79D4AC7E41A1F1F4D48A7FC2 DUP2 PUSH1 0x40 MLOAD PUSH2 0x842 SWAP2 SWAP1 PUSH2 0x12E6 JUMP JUMPDEST PUSH1 0x40 MLOAD DUP1 SWAP2 SUB SWAP1 LOG1 POP JUMP JUMPDEST PUSH2 0x855 PUSH2 0x8EA JUMP JUMPDEST PUSH0 PUSH20 0xFFFFFFFFFFFFFFFFFFFFFFFFFFFFFFFFFFFFFFFF AND DUP2 PUSH20 0xFFFFFFFFFFFFFFFFFFFFFFFFFFFFFFFFFFFFFFFF AND SUB PUSH2 0x8C5 JUMPI PUSH0 PUSH1 0x40 MLOAD PUSH32 0x1E4FBDF700000000000000000000000000000000000000000000000000000000 DUP2 MSTORE PUSH1 0x4 ADD PUSH2 0x8BC SWAP2 SWAP1 PUSH2 0x12E6 JUMP JUMPDEST PUSH1 0x40 MLOAD DUP1 SWAP2 SUB SWAP1 REVERT JUMPDEST PUSH2 0x8CE DUP2 PUSH2 0xA1E JUMP JUMPDEST POP JUMP JUMPDEST PUSH0 CALLER SWAP1 POP SWAP1 JUMP JUMPDEST PUSH2 0x8E5 DUP4 DUP4 DUP4 PUSH1 0x1 PUSH2 0xB03 JUMP JUMPDEST POP POP POP JUMP JUMPDEST PUSH2 0x8F2 PUSH2 0x8D1 JUMP JUMPDEST PUSH20 0xFFFFFFFFFFFFFFFFFFFFFFFFFFFFFFFFFFFFFFFF AND PUSH2 0x910 PUSH2 0x584 JUMP JUMPDEST PUSH20 0xFFFFFFFFFFFFFFFFFFFFFFFFFFFFFFFFFFFFFFFF AND EQ PUSH2 0x96F JUMPI PUSH2 0x933 PUSH2 0x8D1 JUMP JUMPDEST PUSH1 0x40 MLOAD PUSH32 0x118CDAA700000000000000000000000000000000000000000000000000000000 DUP2 MSTORE PUSH1 0x4 ADD PUSH2 0x966 SWAP2 SWAP1 PUSH2 0x12E6 JUMP JUMPDEST PUSH1 0x40 MLOAD DUP1 SWAP2 SUB SWAP1 REVERT JUMPDEST JUMP JUMPDEST PUSH0 PUSH0 PUSH2 0x97B PUSH2 0x8D1 JUMP JUMPDEST SWAP1 POP PUSH2 0x988 DUP6 DUP3 DUP6 PUSH2 0xCD2 JUMP JUMPDEST PUSH2 0x993 DUP6 DUP6 DUP6 PUSH2 0xD65 JUMP JUMPDEST PUSH1 0x1 SWAP2 POP POP SWAP4 SWAP3 POP POP POP JUMP JUMPDEST PUSH0 PUSH20 0xFFFFFFFFFFFFFFFFFFFFFFFFFFFFFFFFFFFFFFFF AND DUP3 PUSH20 0xFFFFFFFFFFFFFFFFFFFFFFFFFFFFFFFFFFFFFFFF AND SUB PUSH2 0xA0F JUMPI PUSH0 PUSH1 0x40 MLOAD PUSH32 0x96C6FD1E00000000000000000000000000000000000000000000000000000000 DUP2 MSTORE PUSH1 0x4 ADD PUSH2 0xA06 SWAP2 SWAP1 PUSH2 0x12E6 JUMP JUMPDEST PUSH1 0x40 MLOAD DUP1 SWAP2 SUB SWAP1 REVERT JUMPDEST PUSH2 0xA1A DUP3 PUSH0 DUP4 PUSH2 0xE55 JUMP JUMPDEST POP POP JUMP JUMPDEST PUSH0 PUSH1 0x5 PUSH0 SWAP1 SLOAD SWAP1 PUSH2 0x100 EXP SWAP1 DIV PUSH20 0xFFFFFFFFFFFFFFFFFFFFFFFFFFFFFFFFFFFFFFFF AND SWAP1 POP DUP2 PUSH1 0x5 PUSH0 PUSH2 0x100 EXP DUP2 SLOAD DUP2 PUSH20 0xFFFFFFFFFFFFFFFFFFFFFFFFFFFFFFFFFFFFFFFF MUL NOT AND SWAP1 DUP4 PUSH20 0xFFFFFFFFFFFFFFFFFFFFFFFFFFFFFFFFFFFFFFFF AND MUL OR SWAP1 SSTORE POP DUP2 PUSH20 0xFFFFFFFFFFFFFFFFFFFFFFFFFFFFFFFFFFFFFFFF AND DUP2 PUSH20 0xFFFFFFFFFFFFFFFFFFFFFFFFFFFFFFFFFFFFFFFF AND PUSH32 0x8BE0079C531659141344CD1FD0A4F28419497F9722A3DAAFE3B4186F6B6457E0 PUSH1 0x40 MLOAD PUSH1 0x40 MLOAD DUP1 SWAP2 SUB SWAP1 LOG3 POP POP JUMP JUMPDEST PUSH0 PUSH0 PUSH2 0xAEB PUSH2 0x8D1 JUMP JUMPDEST SWAP1 POP PUSH2 0xAF8 DUP2 DUP6 DUP6 PUSH2 0xD65 JUMP JUMPDEST PUSH1 0x1 SWAP2 POP POP SWAP3 SWAP2 POP POP JUMP JUMPDEST PUSH0 PUSH20 0xFFFFFFFFFFFFFFFFFFFFFFFFFFFFFFFFFFFFFFFF AND DUP5 PUSH20 0xFFFFFFFFFFFFFFFFFFFFFFFFFFFFFFFFFFFFFFFF AND SUB PUSH2 0xB73 JUMPI PUSH0 PUSH1 0x40 MLOAD PUSH32 0xE602DF0500000000000000000000000000000000000000000000000000000000 DUP2 MSTORE PUSH1 0x4 ADD PUSH2 0xB6A SWAP2 SWAP1 PUSH2 0x12E6 JUMP JUMPDEST PUSH1 0x40 MLOAD DUP1 SWAP2 SUB SWAP1 REVERT JUMPDEST PUSH0 PUSH20 0xFFFFFFFFFFFFFFFFFFFFFFFFFFFFFFFFFFFFFFFF AND DUP4 PUSH20 0xFFFFFFFFFFFFFFFFFFFFFFFFFFFFFFFFFFFFFFFF AND SUB PUSH2 0xBE3 JUMPI PUSH0 PUSH1 0x40 MLOAD PUSH32 0x94280D6200000000000000000000000000000000000000000000000000000000 DUP2 MSTORE PUSH1 0x4 ADD PUSH2 0xBDA SWAP2 SWAP1 PUSH2 0x12E6 JUMP JUMPDEST PUSH1 0x40 MLOAD DUP1 SWAP2 SUB SWAP1 REVERT JUMPDEST DUP2 PUSH1 0x1 PUSH0 DUP7 PUSH20 0xFFFFFFFFFFFFFFFFFFFFFFFFFFFFFFFFFFFFFFFF AND PUSH20 0xFFFFFFFFFFFFFFFFFFFFFFFFFFFFFFFFFFFFFFFF AND DUP2 MSTORE PUSH1 0x20 ADD SWAP1 DUP2 MSTORE PUSH1 0x20 ADD PUSH0 KECCAK256 PUSH0 DUP6 PUSH20 0xFFFFFFFFFFFFFFFFFFFFFFFFFFFFFFFFFFFFFFFF AND PUSH20 0xFFFFFFFFFFFFFFFFFFFFFFFFFFFFFFFFFFFFFFFF AND DUP2 MSTORE PUSH1 0x20 ADD SWAP1 DUP2 MSTORE PUSH1 0x20 ADD PUSH0 KECCAK256 DUP2 SWAP1 SSTORE POP DUP1 ISZERO PUSH2 0xCCC JUMPI DUP3 PUSH20 0xFFFFFFFFFFFFFFFFFFFFFFFFFFFFFFFFFFFFFFFF AND DUP5 PUSH20 0xFFFFFFFFFFFFFFFFFFFFFFFFFFFFFFFFFFFFFFFF AND PUSH32 0x8C5BE1E5EBEC7D5BD14F71427D1E84F3DD0314C0F7B2291E5B200AC8C7C3B925 DUP5 PUSH1 0x40 MLOAD PUSH2 0xCC3 SWAP2 SWAP1 PUSH2 0x123A JUMP JUMPDEST PUSH1 0x40 MLOAD DUP1 SWAP2 SUB SWAP1 LOG3 JUMPDEST POP POP POP POP JUMP JUMPDEST PUSH0 PUSH2 0xCDD DUP5 DUP5 PUSH2 0x6DB JUMP JUMPDEST SWAP1 POP PUSH32 0xFFFFFFFFFFFFFFFFFFFFFFFFFFFFFFFFFFFFFFFFFFFFFFFFFFFFFFFFFFFFFFFF DUP2 LT ISZERO PUSH2 0xD5F JUMPI DUP2 DUP2 LT ISZERO PUSH2 0xD50 JUMPI DUP3 DUP2 DUP4 PUSH1 0x40 MLOAD PUSH32 0xFB8F41B200000000000000000000000000000000000000000000000000000000 DUP2 MSTORE PUSH1 0x4 ADD PUSH2 0xD47 SWAP4 SWAP3 SWAP2 SWAP1 PUSH2 0x15FB JUMP JUMPDEST PUSH1 0x40 MLOAD DUP1 SWAP2 SUB SWAP1 REVERT JUMPDEST PUSH2 0xD5E DUP5 DUP5 DUP5 DUP5 SUB PUSH0 PUSH2 0xB03 JUMP JUMPDEST JUMPDEST POP POP POP POP JUMP JUMPDEST PUSH0 PUSH20 0xFFFFFFFFFFFFFFFFFFFFFFFFFFFFFFFFFFFFFFFF AND DUP4 PUSH20 0xFFFFFFFFFFFFFFFFFFFFFFFFFFFFFFFFFFFFFFFF AND SUB PUSH2 0xDD5 JUMPI PUSH0 PUSH1 0x40 MLOAD PUSH32 0x96C6FD1E00000000000000000000000000000000000000000000000000000000 DUP2 MSTORE PUSH1 0x4 ADD PUSH2 0xDCC SWAP2 SWAP1 PUSH2 0x12E6 JUMP JUMPDEST PUSH1 0x40 MLOAD DUP1 SWAP2 SUB SWAP1 REVERT JUMPDEST PUSH0 PUSH20 0xFFFFFFFFFFFFFFFFFFFFFFFFFFFFFFFFFFFFFFFF AND DUP3 PUSH20 0xFFFFFFFFFFFFFFFFFFFFFFFFFFFFFFFFFFFFFFFF AND SUB PUSH2 0xE45 JUMPI PUSH0 PUSH1 0x40 MLOAD PUSH32 0xEC442F0500000000000000000000000000000000000000000000000000000000 DUP2 MSTORE PUSH1 0x4 ADD PUSH2 0xE3C SWAP2 SWAP1 PUSH2 0x12E6 JUMP JUMPDEST PUSH1 0x40 MLOAD DUP1 SWAP2 SUB SWAP1 REVERT JUMPDEST PUSH2 0xE50 DUP4 DUP4 DUP4 PUSH2 0xE55 JUMP JUMPDEST POP POP POP JUMP JUMPDEST PUSH0 PUSH20 0xFFFFFFFFFFFFFFFFFFFFFFFFFFFFFFFFFFFFFFFF AND DUP4 PUSH20 0xFFFFFFFFFFFFFFFFFFFFFFFFFFFFFFFFFFFFFFFF AND SUB PUSH2 0xEA5 JUMPI DUP1 PUSH1 0x2 PUSH0 DUP3 DUP3 SLOAD PUSH2 0xE99 SWAP2 SWAP1 PUSH2 0x1630 JUMP JUMPDEST SWAP3 POP POP DUP2 SWAP1 SSTORE POP PUSH2 0xF73 JUMP JUMPDEST PUSH0 PUSH0 PUSH0 DUP6 PUSH20 0xFFFFFFFFFFFFFFFFFFFFFFFFFFFFFFFFFFFFFFFF AND PUSH20 0xFFFFFFFFFFFFFFFFFFFFFFFFFFFFFFFFFFFFFFFF AND DUP2 MSTORE PUSH1 0x20 ADD SWAP1 DUP2 MSTORE PUSH1 0x20 ADD PUSH0 KECCAK256 SLOAD SWAP1 POP DUP2 DUP2 LT ISZERO PUSH2 0xF2E JUMPI DUP4 DUP2 DUP4 PUSH1 0x40 MLOAD PUSH32 0xE450D38C00000000000000000000000000000000000000000000000000000000 DUP2 MSTORE PUSH1 0x4 ADD PUSH2 0xF25 SWAP4 SWAP3 SWAP2 SWAP1 PUSH2 0x15FB JUMP JUMPDEST PUSH1 0x40 MLOAD DUP1 SWAP2 SUB SWAP1 REVERT JUMPDEST DUP2 DUP2 SUB PUSH0 PUSH0 DUP7 PUSH20 0xFFFFFFFFFFFFFFFFFFFFFFFFFFFFFFFFFFFFFFFF AND PUSH20 0xFFFFFFFFFFFFFFFFFFFFFFFFFFFFFFFFFFFFFFFF AND DUP2 MSTORE PUSH1 0x20 ADD SWAP1 DUP2 MSTORE PUSH1 0x20 ADD PUSH0 KECCAK256 DUP2 SWAP1 SSTORE POP POP JUMPDEST PUSH0 PUSH20 0xFFFFFFFFFFFFFFFFFFFFFFFFFFFFFFFFFFFFFFFF AND DUP3 PUSH20 0xFFFFFFFFFFFFFFFFFFFFFFFFFFFFFFFFFFFFFFFF AND SUB PUSH2 0xFBA JUMPI DUP1 PUSH1 0x2 PUSH0 DUP3 DUP3 SLOAD SUB SWAP3 POP POP DUP2 SWAP1 SSTORE POP PUSH2 0x1004 JUMP JUMPDEST DUP1 PUSH0 PUSH0 DUP5 PUSH20 0xFFFFFFFFFFFFFFFFFFFFFFFFFFFFFFFFFFFFFFFF AND PUSH20 0xFFFFFFFFFFFFFFFFFFFFFFFFFFFFFFFFFFFFFFFF AND DUP2 MSTORE PUSH1 0x20 ADD SWAP1 DUP2 MSTORE PUSH1 0x20 ADD PUSH0 KECCAK256 PUSH0 DUP3 DUP3 SLOAD ADD SWAP3 POP POP DUP2 SWAP1 SSTORE POP JUMPDEST DUP2 PUSH20 0xFFFFFFFFFFFFFFFFFFFFFFFFFFFFFFFFFFFFFFFF AND DUP4 PUSH20 0xFFFFFFFFFFFFFFFFFFFFFFFFFFFFFFFFFFFFFFFF AND PUSH32 0xDDF252AD1BE2C89B69C2B068FC378DAA952BA7F163C4A11628F55A4DF523B3EF DUP4 PUSH1 0x40 MLOAD PUSH2 0x1061 SWAP2 SWAP1 PUSH2 0x123A JUMP JUMPDEST PUSH1 0x40 MLOAD DUP1 SWAP2 SUB SWAP1 LOG3 POP POP POP JUMP JUMPDEST PUSH0 DUP2 MLOAD SWAP1 POP SWAP2 SWAP1 POP JUMP JUMPDEST PUSH0 DUP3 DUP3 MSTORE PUSH1 0x20 DUP3 ADD SWAP1 POP SWAP3 SWAP2 POP POP JUMP JUMPDEST DUP3 DUP2 DUP4 MCOPY PUSH0 DUP4 DUP4 ADD MSTORE POP POP POP JUMP JUMPDEST PUSH0 PUSH1 0x1F NOT PUSH1 0x1F DUP4 ADD AND SWAP1 POP SWAP2 SWAP1 POP JUMP JUMPDEST PUSH0 PUSH2 0x10B0 DUP3 PUSH2 0x106E JUMP JUMPDEST PUSH2 0x10BA DUP2 DUP6 PUSH2 0x1078 JUMP JUMPDEST SWAP4 POP PUSH2 0x10CA DUP2 DUP6 PUSH1 0x20 DUP7 ADD PUSH2 0x1088 JUMP JUMPDEST PUSH2 0x10D3 DUP2 PUSH2 0x1096 JUMP JUMPDEST DUP5 ADD SWAP2 POP POP SWAP3 SWAP2 POP POP JUMP JUMPDEST PUSH0 PUSH1 0x20 DUP3 ADD SWAP1 POP DUP2 DUP2 SUB PUSH0 DUP4 ADD MSTORE PUSH2 0x10F6 DUP2 DUP5 PUSH2 0x10A6 JUMP JUMPDEST SWAP1 POP SWAP3 SWAP2 POP POP JUMP JUMPDEST PUSH0 PUSH0 REVERT JUMPDEST PUSH0 PUSH20 0xFFFFFFFFFFFFFFFFFFFFFFFFFFFFFFFFFFFFFFFF DUP3 AND SWAP1 POP SWAP2 SWAP1 POP JUMP JUMPDEST PUSH0 PUSH2 0x112B DUP3 PUSH2 0x1102 JUMP JUMPDEST SWAP1 POP SWAP2 SWAP1 POP JUMP JUMPDEST PUSH2 0x113B DUP2 PUSH2 0x1121 JUMP JUMPDEST DUP2 EQ PUSH2 0x1145 JUMPI PUSH0 PUSH0 REVERT JUMPDEST POP JUMP JUMPDEST PUSH0 DUP2 CALLDATALOAD SWAP1 POP PUSH2 0x1156 DUP2 PUSH2 0x1132 JUMP JUMPDEST SWAP3 SWAP2 POP POP JUMP JUMPDEST PUSH0 DUP2 SWAP1 POP SWAP2 SWAP1 POP JUMP JUMPDEST PUSH2 0x116E DUP2 PUSH2 0x115C JUMP JUMPDEST DUP2 EQ PUSH2 0x1178 JUMPI PUSH0 PUSH0 REVERT JUMPDEST POP JUMP JUMPDEST PUSH0 DUP2 CALLDATALOAD SWAP1 POP PUSH2 0x1189 DUP2 PUSH2 0x1165 JUMP JUMPDEST SWAP3 SWAP2 POP POP JUMP JUMPDEST PUSH0 PUSH0 PUSH1 0x40 DUP4 DUP6 SUB SLT ISZERO PUSH2 0x11A5 JUMPI PUSH2 0x11A4 PUSH2 0x10FE JUMP JUMPDEST JUMPDEST PUSH0 PUSH2 0x11B2 DUP6 DUP3 DUP7 ADD PUSH2 0x1148 JUMP JUMPDEST SWAP3 POP POP PUSH1 0x20 PUSH2 0x11C3 DUP6 DUP3 DUP7 ADD PUSH2 0x117B JUMP JUMPDEST SWAP2 POP POP SWAP3 POP SWAP3 SWAP1 POP JUMP JUMPDEST PUSH0 DUP2 ISZERO ISZERO SWAP1 POP SWAP2 SWAP1 POP JUMP JUMPDEST PUSH2 0x11E1 DUP2 PUSH2 0x11CD JUMP JUMPDEST DUP3 MSTORE POP POP JUMP JUMPDEST PUSH0 PUSH1 0x20 DUP3 ADD SWAP1 POP PUSH2 0x11FA PUSH0 DUP4 ADD DUP5 PUSH2 0x11D8 JUMP JUMPDEST SWAP3 SWAP2 POP POP JUMP JUMPDEST PUSH0 PUSH1 0x20 DUP3 DUP5 SUB SLT ISZERO PUSH2 0x1215 JUMPI PUSH2 0x1214 PUSH2 0x10FE JUMP JUMPDEST JUMPDEST PUSH0 PUSH2 0x1222 DUP5 DUP3 DUP6 ADD PUSH2 0x117B JUMP JUMPDEST SWAP2 POP POP SWAP3 SWAP2 POP POP JUMP JUMPDEST PUSH2 0x1234 DUP2 PUSH2 0x115C JUMP JUMPDEST DUP3 MSTORE POP POP JUMP JUMPDEST PUSH0 PUSH1 0x20 DUP3 ADD SWAP1 POP PUSH2 0x124D PUSH0 DUP4 ADD DUP5 PUSH2 0x122B JUMP JUMPDEST SWAP3 SWAP2 POP POP JUMP JUMPDEST PUSH0 PUSH0 PUSH0 PUSH1 0x60 DUP5 DUP7 SUB SLT ISZERO PUSH2 0x126A JUMPI PUSH2 0x1269 PUSH2 0x10FE JUMP JUMPDEST JUMPDEST PUSH0 PUSH2 0x1277 DUP7 DUP3 DUP8 ADD PUSH2 0x1148 JUMP JUMPDEST SWAP4 POP POP PUSH1 0x20 PUSH2 0x1288 DUP7 DUP3 DUP8 ADD PUSH2 0x1148 JUMP JUMPDEST SWAP3 POP POP PUSH1 0x40 PUSH2 0x1299 DUP7 DUP3 DUP8 ADD PUSH2 0x117B JUMP JUMPDEST SWAP2 POP POP SWAP3 POP SWAP3 POP SWAP3 JUMP JUMPDEST PUSH0 PUSH1 0xFF DUP3 AND SWAP1 POP SWAP2 SWAP1 POP JUMP JUMPDEST PUSH2 0x12B8 DUP2 PUSH2 0x12A3 JUMP JUMPDEST DUP3 MSTORE POP POP JUMP JUMPDEST PUSH0 PUSH1 0x20 DUP3 ADD SWAP1 POP PUSH2 0x12D1 PUSH0 DUP4 ADD DUP5 PUSH2 0x12AF JUMP JUMPDEST SWAP3 SWAP2 POP POP JUMP JUMPDEST PUSH2 0x12E0 DUP2 PUSH2 0x1121 JUMP JUMPDEST DUP3 MSTORE POP POP JUMP JUMPDEST PUSH0 PUSH1 0x20 DUP3 ADD SWAP1 POP PUSH2 0x12F9 PUSH0 DUP4 ADD DUP5 PUSH2 0x12D7 JUMP JUMPDEST SWAP3 SWAP2 POP POP JUMP JUMPDEST PUSH0 PUSH1 0x20 DUP3 DUP5 SUB SLT ISZERO PUSH2 0x1314 JUMPI PUSH2 0x1313 PUSH2 0x10FE JUMP JUMPDEST JUMPDEST PUSH0 PUSH2 0x1321 DUP5 DUP3 DUP6 ADD PUSH2 0x1148 JUMP JUMPDEST SWAP2 POP POP SWAP3 SWAP2 POP POP JUMP JUMPDEST PUSH0 PUSH0 PUSH1 0x40 DUP4 DUP6 SUB SLT ISZERO PUSH2 0x1340 JUMPI PUSH2 0x133F PUSH2 0x10FE JUMP JUMPDEST JUMPDEST PUSH0 PUSH2 0x134D DUP6 DUP3 DUP7 ADD PUSH2 0x1148 JUMP JUMPDEST SWAP3 POP POP PUSH1 0x20 PUSH2 0x135E DUP6 DUP3 DUP7 ADD PUSH2 0x1148 JUMP JUMPDEST SWAP2 POP POP SWAP3 POP SWAP3 SWAP1 POP JUMP JUMPDEST PUSH32 0x4E487B7100000000000000000000000000000000000000000000000000000000 PUSH0 MSTORE PUSH1 0x22 PUSH1 0x4 MSTORE PUSH1 0x24 PUSH0 REVERT JUMPDEST PUSH0 PUSH1 0x2 DUP3 DIV SWAP1 POP PUSH1 0x1 DUP3 AND DUP1 PUSH2 0x13AC JUMPI PUSH1 0x7F DUP3 AND SWAP2 POP JUMPDEST PUSH1 0x20 DUP3 LT DUP2 SUB PUSH2 0x13BF JUMPI PUSH2 0x13BE PUSH2 0x1368 JUMP JUMPDEST JUMPDEST POP SWAP2 SWAP1 POP JUMP JUMPDEST PUSH32 0x46656520746F6F20686967680000000000000000000000000000000000000000 PUSH0 DUP3 ADD MSTORE POP JUMP JUMPDEST PUSH0 PUSH2 0x13F9 PUSH1 0xC DUP4 PUSH2 0x1078 JUMP JUMPDEST SWAP2 POP PUSH2 0x1404 DUP3 PUSH2 0x13C5 JUMP JUMPDEST PUSH1 0x20 DUP3 ADD SWAP1 POP SWAP2 SWAP1 POP JUMP JUMPDEST PUSH0 PUSH1 0x20 DUP3 ADD SWAP1 POP DUP2 DUP2 SUB PUSH0 DUP4 ADD MSTORE PUSH2 0x1426 DUP2 PUSH2 0x13ED JUMP JUMPDEST SWAP1 POP SWAP2 SWAP1 POP JUMP JUMPDEST PUSH32 0x4E487B7100000000000000000000000000000000000000000000000000000000 PUSH0 MSTORE PUSH1 0x11 PUSH1 0x4 MSTORE PUSH1 0x24 PUSH0 REVERT JUMPDEST PUSH0 PUSH2 0x1464 DUP3 PUSH2 0x115C JUMP JUMPDEST SWAP2 POP PUSH2 0x146F DUP4 PUSH2 0x115C JUMP JUMPDEST SWAP3 POP DUP3 DUP3 MUL PUSH2 0x147D DUP2 PUSH2 0x115C JUMP JUMPDEST SWAP2 POP DUP3 DUP3 DIV DUP5 EQ DUP4 ISZERO OR PUSH2 0x1494 JUMPI PUSH2 0x1493 PUSH2 0x142D JUMP JUMPDEST JUMPDEST POP SWAP3 SWAP2 POP POP JUMP JUMPDEST PUSH32 0x4E487B7100000000000000000000000000000000000000000000000000000000 PUSH0 MSTORE PUSH1 0x12 PUSH1 0x4 MSTORE PUSH1 0x24 PUSH0 REVERT JUMPDEST PUSH0 PUSH2 0x14D2 DUP3 PUSH2 0x115C JUMP JUMPDEST SWAP2 POP PUSH2 0x14DD DUP4 PUSH2 0x115C JUMP JUMPDEST SWAP3 POP DUP3 PUSH2 0x14ED JUMPI PUSH2 0x14EC PUSH2 0x149B JUMP JUMPDEST JUMPDEST DUP3 DUP3 DIV SWAP1 POP SWAP3 SWAP2 POP POP JUMP JUMPDEST PUSH0 PUSH2 0x1502 DUP3 PUSH2 0x115C JUMP JUMPDEST SWAP2 POP PUSH2 0x150D DUP4 PUSH2 0x115C JUMP JUMPDEST SWAP3 POP DUP3 DUP3 SUB SWAP1 POP DUP2 DUP2 GT ISZERO PUSH2 0x1525 JUMPI PUSH2 0x1524 PUSH2 0x142D JUMP JUMPDEST JUMPDEST SWAP3 SWAP2 POP POP JUMP JUMPDEST PUSH32 0x5472616E73666572206661696C65640000000000000000000000000000000000 PUSH0 DUP3 ADD MSTORE POP JUMP JUMPDEST PUSH0 PUSH2 0x155F PUSH1 0xF DUP4 PUSH2 0x1078 JUMP JUMPDEST SWAP2 POP PUSH2 0x156A DUP3 PUSH2 0x152B JUMP JUMPDEST PUSH1 0x20 DUP3 ADD SWAP1 POP SWAP2 SWAP1 POP JUMP JUMPDEST PUSH0 PUSH1 0x20 DUP3 ADD SWAP1 POP DUP2 DUP2 SUB PUSH0 DUP4 ADD MSTORE PUSH2 0x158C DUP2 PUSH2 0x1553 JUMP JUMPDEST SWAP1 POP SWAP2 SWAP1 POP JUMP JUMPDEST PUSH32 0x496E76616C69642066656520726563697069656E740000000000000000000000 PUSH0 DUP3 ADD MSTORE POP JUMP JUMPDEST PUSH0 PUSH2 0x15C7 PUSH1 0x15 DUP4 PUSH2 0x1078 JUMP JUMPDEST SWAP2 POP PUSH2 0x15D2 DUP3 PUSH2 0x1593 JUMP JUMPDEST PUSH1 0x20 DUP3 ADD SWAP1 POP SWAP2 SWAP1 POP JUMP JUMPDEST PUSH0 PUSH1 0x20 DUP3 ADD SWAP1 POP DUP2 DUP2 SUB PUSH0 DUP4 ADD MSTORE PUSH2 0x15F4 DUP2 PUSH2 0x15BB JUMP JUMPDEST SWAP1 POP SWAP2 SWAP1 POP JUMP JUMPDEST PUSH0 PUSH1 0x60 DUP3 ADD SWAP1 POP PUSH2 0x160E PUSH0 DUP4 ADD DUP7 PUSH2 0x12D7 JUMP JUMPDEST PUSH2 0x161B PUSH1 0x20 DUP4 ADD DUP6 PUSH2 0x122B JUMP JUMPDEST PUSH2 0x1628 PUSH1 0x40 DUP4 ADD DUP5 PUSH2 0x122B JUMP JUMPDEST SWAP5 SWAP4 POP POP POP POP JUMP JUMPDEST PUSH0 PUSH2 0x163A DUP3 PUSH2 0x115C JUMP JUMPDEST SWAP2 POP PUSH2 0x1645 DUP4 PUSH2 0x115C JUMP JUMPDEST SWAP3 POP DUP3 DUP3 ADD SWAP1 POP DUP1 DUP3 GT ISZERO PUSH2 0x165D JUMPI PUSH2 0x165C PUSH2 0x142D JUMP JUMPDEST JUMPDEST SWAP3 SWAP2 POP POP JUMP INVALID LOG2 PUSH5 0x6970667358 0x22 SLT KECCAK256 0x27 PREVRANDAO 0xC 0xC LOG0 0xEA 0xB9 PC PUSH22 0xA1566AA31F1203C5C3F654DD5487C7411EE30B6ADDC1 MULMOD PUSH5 0x736F6C6343 STOP ADDMOD SAR STOP CALLER "
		},
		"gasEstimates": {
			"creation": {
				"codeDepositCost": "1157000",
				"executionCost": "infinite",
				"totalCost": "infinite"
			},
			"external": {
				"allowance(address,address)": "infinite",
				"approve(address,uint256)": "infinite",
				"balanceOf(address)": "2917",
				"decimals()": "383",
				"feeRecipient()": "2575",
				"name()": "infinite",
				"owner()": "2560",
				"renounceOwnership()": "infinite",
				"setFeeRecipient(address)": "infinite",
				"setTransactionFee(uint256)": "infinite",
				"symbol()": "infinite",
				"totalSupply()": "2522",
				"transactionFee()": "2514",
				"transfer(address,uint256)": "infinite",
				"transferFrom(address,address,uint256)": "infinite",
				"transferOwnership(address)": "infinite"
			}
		},
		"methodIdentifiers": {
			"allowance(address,address)": "dd62ed3e",
			"approve(address,uint256)": "095ea7b3",
			"balanceOf(address)": "70a08231",
			"decimals()": "313ce567",
			"feeRecipient()": "46904840",
			"name()": "06fdde03",
			"owner()": "8da5cb5b",
			"renounceOwnership()": "715018a6",
			"setFeeRecipient(address)": "e74b981b",
			"setTransactionFee(uint256)": "096a8ab7",
			"symbol()": "95d89b41",
			"totalSupply()": "18160ddd",
			"transactionFee()": "9ed3edf0",
			"transfer(address,uint256)": "a9059cbb",
			"transferFrom(address,address,uint256)": "23b872dd",
			"transferOwnership(address)": "f2fde38b"
		}
	},
	"abi": [
		{
			"inputs": [
				{
					"internalType": "uint256",
					"name": "initialSupply",
					"type": "uint256"
				},
				{
					"internalType": "uint256",
					"name": "_transactionFee",
					"type": "uint256"
				},
				{
					"internalType": "address",
					"name": "_feeRecipient",
					"type": "address"
				}
			],
			"stateMutability": "nonpayable",
			"type": "constructor"
		},
		{
			"inputs": [
				{
					"internalType": "address",
					"name": "spender",
					"type": "address"
				},
				{
					"internalType": "uint256",
					"name": "allowance",
					"type": "uint256"
				},
				{
					"internalType": "uint256",
					"name": "needed",
					"type": "uint256"
				}
			],
			"name": "ERC20InsufficientAllowance",
			"type": "error"
		},
		{
			"inputs": [
				{
					"internalType": "address",
					"name": "sender",
					"type": "address"
				},
				{
					"internalType": "uint256",
					"name": "balance",
					"type": "uint256"
				},
				{
					"internalType": "uint256",
					"name": "needed",
					"type": "uint256"
				}
			],
			"name": "ERC20InsufficientBalance",
			"type": "error"
		},
		{
			"inputs": [
				{
					"internalType": "address",
					"name": "approver",
					"type": "address"
				}
			],
			"name": "ERC20InvalidApprover",
			"type": "error"
		},
		{
			"inputs": [
				{
					"internalType": "address",
					"name": "receiver",
					"type": "address"
				}
			],
			"name": "ERC20InvalidReceiver",
			"type": "error"
		},
		{
			"inputs": [
				{
					"internalType": "address",
					"name": "sender",
					"type": "address"
				}
			],
			"name": "ERC20InvalidSender",
			"type": "error"
		},
		{
			"inputs": [
				{
					"internalType": "address",
					"name": "spender",
					"type": "address"
				}
			],
			"name": "ERC20InvalidSpender",
			"type": "error"
		},
		{
			"inputs": [
				{
					"internalType": "address",
					"name": "owner",
					"type": "address"
				}
			],
			"name": "OwnableInvalidOwner",
			"type": "error"
		},
		{
			"inputs": [
				{
					"internalType": "address",
					"name": "account",
					"type": "address"
				}
			],
			"name": "OwnableUnauthorizedAccount",
			"type": "error"
		},
		{
			"anonymous": false,
			"inputs": [
				{
					"indexed": true,
					"internalType": "address",
					"name": "owner",
					"type": "address"
				},
				{
					"indexed": true,
					"internalType": "address",
					"name": "spender",
					"type": "address"
				},
				{
					"indexed": false,
					"internalType": "uint256",
					"name": "value",
					"type": "uint256"
				}
			],
			"name": "Approval",
			"type": "event"
		},
		{
			"anonymous": false,
			"inputs": [
				{
					"indexed": false,
					"internalType": "address",
					"name": "newFeeRecipient",
					"type": "address"
				}
			],
			"name": "FeeRecipientUpdated",
			"type": "event"
		},
		{
			"anonymous": false,
			"inputs": [
				{
					"indexed": true,
					"internalType": "address",
					"name": "previousOwner",
					"type": "address"
				},
				{
					"indexed": true,
					"internalType": "address",
					"name": "newOwner",
					"type": "address"
				}
			],
			"name": "OwnershipTransferred",
			"type": "event"
		},
		{
			"anonymous": false,
			"inputs": [
				{
					"indexed": false,
					"internalType": "uint256",
					"name": "newFee",
					"type": "uint256"
				}
			],
			"name": "TransactionFeeUpdated",
			"type": "event"
		},
		{
			"anonymous": false,
			"inputs": [
				{
					"indexed": true,
					"internalType": "address",
					"name": "from",
					"type": "address"
				},
				{
					"indexed": true,
					"internalType": "address",
					"name": "to",
					"type": "address"
				},
				{
					"indexed": false,
					"internalType": "uint256",
					"name": "value",
					"type": "uint256"
				}
			],
			"name": "Transfer",
			"type": "event"
		},
		{
			"inputs": [
				{
					"internalType": "address",
					"name": "owner",
					"type": "address"
				},
				{
					"internalType": "address",
					"name": "spender",
					"type": "address"
				}
			],
			"name": "allowance",
			"outputs": [
				{
					"internalType": "uint256",
					"name": "",
					"type": "uint256"
				}
			],
			"stateMutability": "view",
			"type": "function"
		},
		{
			"inputs": [
				{
					"internalType": "address",
					"name": "spender",
					"type": "address"
				},
				{
					"internalType": "uint256",
					"name": "value",
					"type": "uint256"
				}
			],
			"name": "approve",
			"outputs": [
				{
					"internalType": "bool",
					"name": "",
					"type": "bool"
				}
			],
			"stateMutability": "nonpayable",
			"type": "function"
		},
		{
			"inputs": [
				{
					"internalType": "address",
					"name": "account",
					"type": "address"
				}
			],
			"name": "balanceOf",
			"outputs": [
				{
					"internalType": "uint256",
					"name": "",
					"type": "uint256"
				}
			],
			"stateMutability": "view",
			"type": "function"
		},
		{
			"inputs": [],
			"name": "decimals",
			"outputs": [
				{
					"internalType": "uint8",
					"name": "",
					"type": "uint8"
				}
			],
			"stateMutability": "view",
			"type": "function"
		},
		{
			"inputs": [],
			"name": "feeRecipient",
			"outputs": [
				{
					"internalType": "address",
					"name": "",
					"type": "address"
				}
			],
			"stateMutability": "view",
			"type": "function"
		},
		{
			"inputs": [],
			"name": "name",
			"outputs": [
				{
					"internalType": "string",
					"name": "",
					"type": "string"
				}
			],
			"stateMutability": "view",
			"type": "function"
		},
		{
			"inputs": [],
			"name": "owner",
			"outputs": [
				{
					"internalType": "address",
					"name": "",
					"type": "address"
				}
			],
			"stateMutability": "view",
			"type": "function"
		},
		{
			"inputs": [],
			"name": "renounceOwnership",
			"outputs": [],
			"stateMutability": "nonpayable",
			"type": "function"
		},
		{
			"inputs": [
				{
					"internalType": "address",
					"name": "newFeeRecipient",
					"type": "address"
				}
			],
			"name": "setFeeRecipient",
			"outputs": [],
			"stateMutability": "nonpayable",
			"type": "function"
		},
		{
			"inputs": [
				{
					"internalType": "uint256",
					"name": "newFee",
					"type": "uint256"
				}
			],
			"name": "setTransactionFee",
			"outputs": [],
			"stateMutability": "nonpayable",
			"type": "function"
		},
		{
			"inputs": [],
			"name": "symbol",
			"outputs": [
				{
					"internalType": "string",
					"name": "",
					"type": "string"
				}
			],
			"stateMutability": "view",
			"type": "function"
		},
		{
			"inputs": [],
			"name": "totalSupply",
			"outputs": [
				{
					"internalType": "uint256",
					"name": "",
					"type": "uint256"
				}
			],
			"stateMutability": "view",
			"type": "function"
		},
		{
			"inputs": [],
			"name": "transactionFee",
			"outputs": [
				{
					"internalType": "uint256",
					"name": "",
					"type": "uint256"
				}
			],
			"stateMutability": "view",
			"type": "function"
		},
		{
			"inputs": [
				{
					"internalType": "address",
					"name": "recipient",
					"type": "address"
				},
				{
					"internalType": "uint256",
					"name": "amount",
					"type": "uint256"
				}
			],
			"name": "transfer",
			"outputs": [
				{
					"internalType": "bool",
					"name": "",
					"type": "bool"
				}
			],
			"stateMutability": "nonpayable",
			"type": "function"
		},
		{
			"inputs": [
				{
					"internalType": "address",
					"name": "sender",
					"type": "address"
				},
				{
					"internalType": "address",
					"name": "recipient",
					"type": "address"
				},
				{
					"internalType": "uint256",
					"name": "amount",
					"type": "uint256"
				}
			],
			"name": "transferFrom",
			"outputs": [
				{
					"internalType": "bool",
					"name": "",
					"type": "bool"
				}
			],
			"stateMutability": "nonpayable",
			"type": "function"
		},
		{
			"inputs": [
				{
					"internalType": "address",
					"name": "newOwner",
					"type": "address"
				}
			],
			"name": "transferOwnership",
			"outputs": [],
			"stateMutability": "nonpayable",
			"type": "function"
		}
	]
}