{
	"data": {
		"bytecode": {
			"linkReferences": {},
			"object": "6080604052348015600e575f5ffd5b5060015f819055505f6001819055506106de8061002a5f395ff3fe608060405234801561000f575f5ffd5b5060043610610055575f3560e01c806359e02dd714610059578063681fe70c146100775780638f807f6b14610095578063949d225d146100b1578063957908d1146100cf575b5f5ffd5b6100616100ed565b60405161006e9190610418565b60405180910390f35b61007f61016d565b60405161008c919061044b565b60405180910390f35b6100af60048036038101906100aa9190610492565b610179565b005b6100b9610295565b6040516100c691906104d5565b60405180910390f35b6100d76102cc565b6040516100e49190610418565b60405180910390f35b5f6100f661016d565b15610136576040517f08c379a000000000000000000000000000000000000000000000000000000000815260040161012d90610548565b60405180910390fd5b60025f5f5481526020019081526020015f205f9054906101000a900473ffffffffffffffffffffffffffffffffffffffff16905090565b5f6001545f5411905090565b5f73ffffffffffffffffffffffffffffffffffffffff168173ffffffffffffffffffffffffffffffffffffffff16036101e7576040517f08c379a00000000000000000000000000000000000000000000000000000000081526004016101de906105b0565b60405180910390fd5b60015f8154809291906101f9906105fb565b91905055508060025f60015481526020019081526020015f205f6101000a81548173ffffffffffffffffffffffffffffffffffffffff021916908373ffffffffffffffffffffffffffffffffffffffff1602179055508073ffffffffffffffffffffffffffffffffffffffff167f2707b5a576846705179bceb0a603004417af6c39ce042ce6c7c2e57ce345d63460405160405180910390a250565b5f61029e61016d565b156102ab575f90506102c9565b60015f546001546102bc9190610642565b6102c69190610675565b90505b90565b5f6102d561016d565b15610315576040517f08c379a000000000000000000000000000000000000000000000000000000000815260040161030c90610548565b60405180910390fd5b60025f5f5481526020019081526020015f205f9054906101000a900473ffffffffffffffffffffffffffffffffffffffff16905060025f5f5481526020019081526020015f205f6101000a81549073ffffffffffffffffffffffffffffffffffffffff02191690555f5f81548092919061038e906105fb565b91905055508073ffffffffffffffffffffffffffffffffffffffff167f8e96e93335899bce2d2bd10c4d34b53a1bebf56bdc98dbf8ed937e7b2cff229160405160405180910390a290565b5f73ffffffffffffffffffffffffffffffffffffffff82169050919050565b5f610402826103d9565b9050919050565b610412816103f8565b82525050565b5f60208201905061042b5f830184610409565b92915050565b5f8115159050919050565b61044581610431565b82525050565b5f60208201905061045e5f83018461043c565b92915050565b5f5ffd5b610471816103f8565b811461047b575f5ffd5b50565b5f8135905061048c81610468565b92915050565b5f602082840312156104a7576104a6610464565b5b5f6104b48482850161047e565b91505092915050565b5f819050919050565b6104cf816104bd565b82525050565b5f6020820190506104e85f8301846104c6565b92915050565b5f82825260208201905092915050565b7f517565756520697320656d7074790000000000000000000000000000000000005f82015250565b5f610532600e836104ee565b915061053d826104fe565b602082019050919050565b5f6020820190508181035f83015261055f81610526565b9050919050565b7f43616e6e6f7420656e7175657565207a65726f206164647265737300000000005f82015250565b5f61059a601b836104ee565b91506105a582610566565b602082019050919050565b5f6020820190508181035f8301526105c78161058e565b9050919050565b7f4e487b71000000000000000000000000000000000000000000000000000000005f52601160045260245ffd5b5f610605826104bd565b91507fffffffffffffffffffffffffffffffffffffffffffffffffffffffffffffffff8203610637576106366105ce565b5b600182019050919050565b5f61064c826104bd565b9150610657836104bd565b925082820390508181111561066f5761066e6105ce565b5b92915050565b5f61067f826104bd565b915061068a836104bd565b92508282019050808211156106a2576106a16105ce565b5b9291505056fea264697066735822122017c201667298ad777d1787ab156963a887c32b3427d9bf348c72a8cd870fbf6e64736f6c634300081d0033",
			"opcodes": "PUSH1 0x80 PUSH1 0x40 MSTORE CALLVALUE DUP1 ISZERO PUSH1 0xE JUMPI PUSH0 PUSH0 REVERT JUMPDEST POP PUSH1 0x1 PUSH0 DUP2 SWAP1 SSTORE POP PUSH0 PUSH1 0x1 DUP2 SWAP1 SSTORE POP PUSH2 0x6DE DUP1 PUSH2 0x2A PUSH0 CODECOPY PUSH0 RETURN INVALID PUSH1 0x80 PUSH1 0x40 MSTORE CALLVALUE DUP1 ISZERO PUSH2 0xF JUMPI PUSH0 PUSH0 REVERT JUMPDEST POP PUSH1 0x4 CALLDATASIZE LT PUSH2 0x55 JUMPI PUSH0 CALLDATALOAD PUSH1 0xE0 SHR DUP1 PUSH4 0x59E02DD7 EQ PUSH2 0x59 JUMPI DUP1 PUSH4 0x681FE70C EQ PUSH2 0x77 JUMPI DUP1 PUSH4 0x8F807F6B EQ PUSH2 0x95 JUMPI DUP1 PUSH4 0x949D225D EQ PUSH2 0xB1 JUMPI DUP1 PUSH4 0x957908D1 EQ PUSH2 0xCF JUMPI JUMPDEST PUSH0 PUSH0 REVERT JUMPDEST PUSH2 0x61 PUSH2 0xED JUMP JUMPDEST PUSH1 0x40 MLOAD PUSH2 0x6E SWAP2 SWAP1 PUSH2 0x418 JUMP JUMPDEST PUSH1 0x40 MLOAD DUP1 SWAP2 SUB SWAP1 RETURN JUMPDEST PUSH2 0x7F PUSH2 0x16D JUMP JUMPDEST PUSH1 0x40 MLOAD PUSH2 0x8C SWAP2 SWAP1 PUSH2 0x44B JUMP JUMPDEST PUSH1 0x40 MLOAD DUP1 SWAP2 SUB SWAP1 RETURN JUMPDEST PUSH2 0xAF PUSH1 0x4 DUP1 CALLDATASIZE SUB DUP2 ADD SWAP1 PUSH2 0xAA SWAP2 SWAP1 PUSH2 0x492 JUMP JUMPDEST PUSH2 0x179 JUMP JUMPDEST STOP JUMPDEST PUSH2 0xB9 PUSH2 0x295 JUMP JUMPDEST PUSH1 0x40 MLOAD PUSH2 0xC6 SWAP2 SWAP1 PUSH2 0x4D5 JUMP JUMPDEST PUSH1 0x40 MLOAD DUP1 SWAP2 SUB SWAP1 RETURN JUMPDEST PUSH2 0xD7 PUSH2 0x2CC JUMP JUMPDEST PUSH1 0x40 MLOAD PUSH2 0xE4 SWAP2 SWAP1 PUSH2 0x418 JUMP JUMPDEST PUSH1 0x40 MLOAD DUP1 SWAP2 SUB SWAP1 RETURN JUMPDEST PUSH0 PUSH2 0xF6 PUSH2 0x16D JUMP JUMPDEST ISZERO PUSH2 0x136 JUMPI PUSH1 0x40 MLOAD PUSH32 0x8C379A000000000000000000000000000000000000000000000000000000000 DUP2 MSTORE PUSH1 0x4 ADD PUSH2 0x12D SWAP1 PUSH2 0x548 JUMP JUMPDEST PUSH1 0x40 MLOAD DUP1 SWAP2 SUB SWAP1 REVERT JUMPDEST PUSH1 0x2 PUSH0 PUSH0 SLOAD DUP2 MSTORE PUSH1 0x20 ADD SWAP1 DUP2 MSTORE PUSH1 0x20 ADD PUSH0 KECCAK256 PUSH0 SWAP1 SLOAD SWAP1 PUSH2 0x100 EXP SWAP1 DIV PUSH20 0xFFFFFFFFFFFFFFFFFFFFFFFFFFFFFFFFFFFFFFFF AND SWAP1 POP SWAP1 JUMP JUMPDEST PUSH0 PUSH1 0x1 SLOAD PUSH0 SLOAD GT SWAP1 POP SWAP1 JUMP JUMPDEST PUSH0 PUSH20 0xFFFFFFFFFFFFFFFFFFFFFFFFFFFFFFFFFFFFFFFF AND DUP2 PUSH20 0xFFFFFFFFFFFFFFFFFFFFFFFFFFFFFFFFFFFFFFFF AND SUB PUSH2 0x1E7 JUMPI PUSH1 0x40 MLOAD PUSH32 0x8C379A000000000000000000000000000000000000000000000000000000000 DUP2 MSTORE PUSH1 0x4 ADD PUSH2 0x1DE SWAP1 PUSH2 0x5B0 JUMP JUMPDEST PUSH1 0x40 MLOAD DUP1 SWAP2 SUB SWAP1 REVERT JUMPDEST PUSH1 0x1 PUSH0 DUP2 SLOAD DUP1 SWAP3 SWAP2 SWAP1 PUSH2 0x1F9 SWAP1 PUSH2 0x5FB JUMP JUMPDEST SWAP2 SWAP1 POP SSTORE POP DUP1 PUSH1 0x2 PUSH0 PUSH1 0x1 SLOAD DUP2 MSTORE PUSH1 0x20 ADD SWAP1 DUP2 MSTORE PUSH1 0x20 ADD PUSH0 KECCAK256 PUSH0 PUSH2 0x100 EXP DUP2 SLOAD DUP2 PUSH20 0xFFFFFFFFFFFFFFFFFFFFFFFFFFFFFFFFFFFFFFFF MUL NOT AND SWAP1 DUP4 PUSH20 0xFFFFFFFFFFFFFFFFFFFFFFFFFFFFFFFFFFFFFFFF AND MUL OR SWAP1 SSTORE POP DUP1 PUSH20 0xFFFFFFFFFFFFFFFFFFFFFFFFFFFFFFFFFFFFFFFF AND PUSH32 0x2707B5A576846705179BCEB0A603004417AF6C39CE042CE6C7C2E57CE345D634 PUSH1 0x40 MLOAD PUSH1 0x40 MLOAD DUP1 SWAP2 SUB SWAP1 LOG2 POP JUMP JUMPDEST PUSH0 PUSH2 0x29E PUSH2 0x16D JUMP JUMPDEST ISZERO PUSH2 0x2AB JUMPI PUSH0 SWAP1 POP PUSH2 0x2C9 JUMP JUMPDEST PUSH1 0x1 PUSH0 SLOAD PUSH1 0x1 SLOAD PUSH2 0x2BC SWAP2 SWAP1 PUSH2 0x642 JUMP JUMPDEST PUSH2 0x2C6 SWAP2 SWAP1 PUSH2 0x675 JUMP JUMPDEST SWAP1 POP JUMPDEST SWAP1 JUMP JUMPDEST PUSH0 PUSH2 0x2D5 PUSH2 0x16D JUMP JUMPDEST ISZERO PUSH2 0x315 JUMPI PUSH1 0x40 MLOAD PUSH32 0x8C379A000000000000000000000000000000000000000000000000000000000 DUP2 MSTORE PUSH1 0x4 ADD PUSH2 0x30C SWAP1 PUSH2 0x548 JUMP JUMPDEST PUSH1 0x40 MLOAD DUP1 SWAP2 SUB SWAP1 REVERT JUMPDEST PUSH1 0x2 PUSH0 PUSH0 SLOAD DUP2 MSTORE PUSH1 0x20 ADD SWAP1 DUP2 MSTORE PUSH1 0x20 ADD PUSH0 KECCAK256 PUSH0 SWAP1 SLOAD SWAP1 PUSH2 0x100 EXP SWAP1 DIV PUSH20 0xFFFFFFFFFFFFFFFFFFFFFFFFFFFFFFFFFFFFFFFF AND SWAP1 POP PUSH1 0x2 PUSH0 PUSH0 SLOAD DUP2 MSTORE PUSH1 0x20 ADD SWAP1 DUP2 MSTORE PUSH1 0x20 ADD PUSH0 KECCAK256 PUSH0 PUSH2 0x100 EXP DUP2 SLOAD SWAP1 PUSH20 0xFFFFFFFFFFFFFFFFFFFFFFFFFFFFFFFFFFFFFFFF MUL NOT AND SWAP1 SSTORE PUSH0 PUSH0 DUP2 SLOAD DUP1 SWAP3 SWAP2 SWAP1 PUSH2 0x38E SWAP1 PUSH2 0x5FB JUMP JUMPDEST SWAP2 SWAP1 POP SSTORE POP DUP1 PUSH20 0xFFFFFFFFFFFFFFFFFFFFFFFFFFFFFFFFFFFFFFFF AND PUSH32 0x8E96E93335899BCE2D2BD10C4D34B53A1BEBF56BDC98DBF8ED937E7B2CFF2291 PUSH1 0x40 MLOAD PUSH1 0x40 MLOAD DUP1 SWAP2 SUB SWAP1 LOG2 SWAP1 JUMP JUMPDEST PUSH0 PUSH20 0xFFFFFFFFFFFFFFFFFFFFFFFFFFFFFFFFFFFFFFFF DUP3 AND SWAP1 POP SWAP2 SWAP1 POP JUMP JUMPDEST PUSH0 PUSH2 0x402 DUP3 PUSH2 0x3D9 JUMP JUMPDEST SWAP1 POP SWAP2 SWAP1 POP JUMP JUMPDEST PUSH2 0x412 DUP2 PUSH2 0x3F8 JUMP JUMPDEST DUP3 MSTORE POP POP JUMP JUMPDEST PUSH0 PUSH1 0x20 DUP3 ADD SWAP1 POP PUSH2 0x42B PUSH0 DUP4 ADD DUP5 PUSH2 0x409 JUMP JUMPDEST SWAP3 SWAP2 POP POP JUMP JUMPDEST PUSH0 DUP2 ISZERO ISZERO SWAP1 POP SWAP2 SWAP1 POP JUMP JUMPDEST PUSH2 0x445 DUP2 PUSH2 0x431 JUMP JUMPDEST DUP3 MSTORE POP POP JUMP JUMPDEST PUSH0 PUSH1 0x20 DUP3 ADD SWAP1 POP PUSH2 0x45E PUSH0 DUP4 ADD DUP5 PUSH2 0x43C JUMP JUMPDEST SWAP3 SWAP2 POP POP JUMP JUMPDEST PUSH0 PUSH0 REVERT JUMPDEST PUSH2 0x471 DUP2 PUSH2 0x3F8 JUMP JUMPDEST DUP2 EQ PUSH2 0x47B JUMPI PUSH0 PUSH0 REVERT JUMPDEST POP JUMP JUMPDEST PUSH0 DUP2 CALLDATALOAD SWAP1 POP PUSH2 0x48C DUP2 PUSH2 0x468 JUMP JUMPDEST SWAP3 SWAP2 POP POP JUMP JUMPDEST PUSH0 PUSH1 0x20 DUP3 DUP5 SUB SLT ISZERO PUSH2 0x4A7 JUMPI PUSH2 0x4A6 PUSH2 0x464 JUMP JUMPDEST JUMPDEST PUSH0 PUSH2 0x4B4 DUP5 DUP3 DUP6 ADD PUSH2 0x47E JUMP JUMPDEST SWAP2 POP POP SWAP3 SWAP2 POP POP JUMP JUMPDEST PUSH0 DUP2 SWAP1 POP SWAP2 SWAP1 POP JUMP JUMPDEST PUSH2 0x4CF DUP2 PUSH2 0x4BD JUMP JUMPDEST DUP3 MSTORE POP POP JUMP JUMPDEST PUSH0 PUSH1 0x20 DUP3 ADD SWAP1 POP PUSH2 0x4E8 PUSH0 DUP4 ADD DUP5 PUSH2 0x4C6 JUMP JUMPDEST SWAP3 SWAP2 POP POP JUMP JUMPDEST PUSH0 DUP3 DUP3 MSTORE PUSH1 0x20 DUP3 ADD SWAP1 POP SWAP3 SWAP2 POP POP JUMP JUMPDEST PUSH32 0x517565756520697320656D707479000000000000000000000000000000000000 PUSH0 DUP3 ADD MSTORE POP JUMP JUMPDEST PUSH0 PUSH2 0x532 PUSH1 0xE DUP4 PUSH2 0x4EE JUMP JUMPDEST SWAP2 POP PUSH2 0x53D DUP3 PUSH2 0x4FE JUMP JUMPDEST PUSH1 0x20 DUP3 ADD SWAP1 POP SWAP2 SWAP1 POP JUMP JUMPDEST PUSH0 PUSH1 0x20 DUP3 ADD SWAP1 POP DUP2 DUP2 SUB PUSH0 DUP4 ADD MSTORE PUSH2 0x55F DUP2 PUSH2 0x526 JUMP JUMPDEST SWAP1 POP SWAP2 SWAP1 POP JUMP JUMPDEST PUSH32 0x43616E6E6F7420656E7175657565207A65726F20616464726573730000000000 PUSH0 DUP3 ADD MSTORE POP JUMP JUMPDEST PUSH0 PUSH2 0x59A PUSH1 0x1B DUP4 PUSH2 0x4EE JUMP JUMPDEST SWAP2 POP PUSH2 0x5A5 DUP3 PUSH2 0x566 JUMP JUMPDEST PUSH1 0x20 DUP3 ADD SWAP1 POP SWAP2 SWAP1 POP JUMP JUMPDEST PUSH0 PUSH1 0x20 DUP3 ADD SWAP1 POP DUP2 DUP2 SUB PUSH0 DUP4 ADD MSTORE PUSH2 0x5C7 DUP2 PUSH2 0x58E JUMP JUMPDEST SWAP1 POP SWAP2 SWAP1 POP JUMP JUMPDEST PUSH32 0x4E487B7100000000000000000000000000000000000000000000000000000000 PUSH0 MSTORE PUSH1 0x11 PUSH1 0x4 MSTORE PUSH1 0x24 PUSH0 REVERT JUMPDEST PUSH0 PUSH2 0x605 DUP3 PUSH2 0x4BD JUMP JUMPDEST SWAP2 POP PUSH32 0xFFFFFFFFFFFFFFFFFFFFFFFFFFFFFFFFFFFFFFFFFFFFFFFFFFFFFFFFFFFFFFFF DUP3 SUB PUSH2 0x637 JUMPI PUSH2 0x636 PUSH2 0x5CE JUMP JUMPDEST JUMPDEST PUSH1 0x1 DUP3 ADD SWAP1 POP SWAP2 SWAP1 POP JUMP JUMPDEST PUSH0 PUSH2 0x64C DUP3 PUSH2 0x4BD JUMP JUMPDEST SWAP2 POP PUSH2 0x657 DUP4 PUSH2 0x4BD JUMP JUMPDEST SWAP3 POP DUP3 DUP3 SUB SWAP1 POP DUP2 DUP2 GT ISZERO PUSH2 0x66F JUMPI PUSH2 0x66E PUSH2 0x5CE JUMP JUMPDEST JUMPDEST SWAP3 SWAP2 POP POP JUMP JUMPDEST PUSH0 PUSH2 0x67F DUP3 PUSH2 0x4BD JUMP JUMPDEST SWAP2 POP PUSH2 0x68A DUP4 PUSH2 0x4BD JUMP JUMPDEST SWAP3 POP DUP3 DUP3 ADD SWAP1 POP DUP1 DUP3 GT ISZERO PUSH2 0x6A2 JUMPI PUSH2 0x6A1 PUSH2 0x5CE JUMP JUMPDEST JUMPDEST SWAP3 SWAP2 POP POP JUMP INVALID LOG2 PUSH5 0x6970667358 0x22 SLT KECCAK256 OR 0xC2 ADD PUSH7 0x7298AD777D1787 0xAB ISZERO PUSH10 0x63A887C32B3427D9BF34 DUP13 PUSH19 0xA8CD870FBF6E64736F6C634300081D00330000 "
		},
		"gasEstimates": {
			"creation": {
				"codeDepositCost": "351600",
				"executionCost": "27510",
				"totalCost": "379110"
			},
			"external": {
				"dequeue()": "60945",
				"enqueue(address)": "52462",
				"isEmpty()": "4543",
				"peek()": "8927",
				"size()": "infinite"
			}
		},
		"methodIdentifiers": {
			"dequeue()": "957908d1",
			"enqueue(address)": "8f807f6b",
			"isEmpty()": "681fe70c",
			"peek()": "59e02dd7",
			"size()": "949d225d"
		}
	},
	"abi": [
		{
			"inputs": [],
			"stateMutability": "nonpayable",
			"type": "constructor"
		},
		{
			"anonymous": false,
			"inputs": [
				{
					"indexed": true,
					"internalType": "address",
					"name": "item",
					"type": "address"
				}
			],
			"name": "Dequeued",
			"type": "event"
		},
		{
			"anonymous": false,
			"inputs": [
				{
					"indexed": true,
					"internalType": "address",
					"name": "item",
					"type": "address"
				}
			],
			"name": "Enqueued",
			"type": "event"
		},
		{
			"inputs": [],
			"name": "dequeue",
			"outputs": [
				{
					"internalType": "address",
					"name": "item",
					"type": "address"
				}
			],
			"stateMutability": "nonpayable",
			"type": "function"
		},
		{
			"inputs": [
				{
					"internalType": "address",
					"name": "item",
					"type": "address"
				}
			],
			"name": "enqueue",
			"outputs": [],
			"stateMutability": "nonpayable",
			"type": "function"
		},
		{
			"inputs": [],
			"name": "isEmpty",
			"outputs": [
				{
					"internalType": "bool",
					"name": "",
					"type": "bool"
				}
			],
			"stateMutability": "view",
			"type": "function"
		},
		{
			"inputs": [],
			"name": "peek",
			"outputs": [
				{
					"internalType": "address",
					"name": "",
					"type": "address"
				}
			],
			"stateMutability": "view",
			"type": "function"
		},
		{
			"inputs": [],
			"name": "size",
			"outputs": [
				{
					"internalType": "uint256",
					"name": "",
					"type": "uint256"
				}
			],
			"stateMutability": "view",
			"type": "function"
		}
	]
}