{
	"data": {
		"bytecode": {
			"linkReferences": {},
			"object": "6080604052600160075534801562000015575f80fd5b50336040518060400160405280600781526020017f466973684e4654000000000000000000000000000000000000000000000000008152506040518060400160405280600481526020017f4649534800000000000000000000000000000000000000000000000000000000815250815f90816200009391906200045a565b508060019081620000a591906200045a565b5050505f73ffffffffffffffffffffffffffffffffffffffff168173ffffffffffffffffffffffffffffffffffffffff16036200011b575f6040517f1e4fbdf700000000000000000000000000000000000000000000000000000000815260040162000112919062000581565b60405180910390fd5b6200012c816200013360201b60201c565b506200059c565b5f60065f9054906101000a900473ffffffffffffffffffffffffffffffffffffffff1690508160065f6101000a81548173ffffffffffffffffffffffffffffffffffffffff021916908373ffffffffffffffffffffffffffffffffffffffff1602179055508173ffffffffffffffffffffffffffffffffffffffff168173ffffffffffffffffffffffffffffffffffffffff167f8be0079c531659141344cd1fd0a4f28419497f9722a3daafe3b4186f6b6457e060405160405180910390a35050565b5f81519050919050565b7f4e487b71000000000000000000000000000000000000000000000000000000005f52604160045260245ffd5b7f4e487b71000000000000000000000000000000000000000000000000000000005f52602260045260245ffd5b5f60028204905060018216806200027257607f821691505b6020821081036200028857620002876200022d565b5b50919050565b5f819050815f5260205f209050919050565b5f6020601f8301049050919050565b5f82821b905092915050565b5f60088302620002ec7fffffffffffffffffffffffffffffffffffffffffffffffffffffffffffffffff82620002af565b620002f88683620002af565b95508019841693508086168417925050509392505050565b5f819050919050565b5f819050919050565b5f620003426200033c620003368462000310565b62000319565b62000310565b9050919050565b5f819050919050565b6200035d8362000322565b620003756200036c8262000349565b848454620002bb565b825550505050565b5f90565b6200038b6200037d565b6200039881848462000352565b505050565b5b81811015620003bf57620003b35f8262000381565b6001810190506200039e565b5050565b601f8211156200040e57620003d8816200028e565b620003e384620002a0565b81016020851015620003f3578190505b6200040b6200040285620002a0565b8301826200039d565b50505b505050565b5f82821c905092915050565b5f620004305f198460080262000413565b1980831691505092915050565b5f6200044a83836200041f565b9150826002028217905092915050565b6200046582620001f6565b67ffffffffffffffff81111562000481576200048062000200565b5b6200048d82546200025a565b6200049a828285620003c3565b5f60209050601f831160018114620004d0575f8415620004bb578287015190505b620004c785826200043d565b86555062000536565b601f198416620004e0866200028e565b5f5b828110156200050957848901518255600182019150602085019450602081019050620004e2565b8683101562000529578489015162000525601f8916826200041f565b8355505b6001600288020188555050505b505050505050565b5f73ffffffffffffffffffffffffffffffffffffffff82169050919050565b5f62000569826200053e565b9050919050565b6200057b816200055d565b82525050565b5f602082019050620005965f83018462000570565b92915050565b61280d80620005aa5f395ff3fe608060405234801561000f575f80fd5b5060043610610114575f3560e01c80638da5cb5b116100a0578063b88d4fde1161006f578063b88d4fde146102c8578063c87b56dd146102e4578063e2450a9814610314578063e985e9c514610346578063f2fde38b1461037657610114565b80638da5cb5b1461025457806395d89b4114610272578063a22cb46514610290578063ae259fb9146102ac57610114565b806323b872dd116100e757806323b872dd146101b257806342842e0e146101ce5780636352211e146101ea57806370a082311461021a578063715018a61461024a57610114565b806301ffc9a71461011857806306fdde0314610148578063081812fc14610166578063095ea7b314610196575b5f80fd5b610132600480360381019061012d9190611b85565b610392565b60405161013f9190611bca565b60405180910390f35b610150610473565b60405161015d9190611c6d565b60405180910390f35b610180600480360381019061017b9190611cc0565b610502565b60405161018d9190611d2a565b60405180910390f35b6101b060048036038101906101ab9190611d6d565b61051d565b005b6101cc60048036038101906101c79190611dab565b610533565b005b6101e860048036038101906101e39190611dab565b610632565b005b61020460048036038101906101ff9190611cc0565b610651565b6040516102119190611d2a565b60405180910390f35b610234600480360381019061022f9190611dfb565b610662565b6040516102419190611e35565b60405180910390f35b610252610718565b005b61025c61072b565b6040516102699190611d2a565b60405180910390f35b61027a610753565b6040516102879190611c6d565b60405180910390f35b6102aa60048036038101906102a59190611e78565b6107e3565b005b6102c660048036038101906102c19190611fe2565b6107f9565b005b6102e260048036038101906102dd9190612108565b61091a565b005b6102fe60048036038101906102f99190611cc0565b61093f565b60405161030b9190611c6d565b60405180910390f35b61032e60048036038101906103299190611cc0565b6109a5565b60405161033d93929190612188565b60405180910390f35b610360600480360381019061035b91906121cb565b610b83565b60405161036d9190611bca565b60405180910390f35b610390600480360381019061038b9190611dfb565b610c11565b005b5f7f80ac58cd000000000000000000000000000000000000000000000000000000007bffffffffffffffffffffffffffffffffffffffffffffffffffffffff1916827bffffffffffffffffffffffffffffffffffffffffffffffffffffffff1916148061045c57507f5b5e139f000000000000000000000000000000000000000000000000000000007bffffffffffffffffffffffffffffffffffffffffffffffffffffffff1916827bffffffffffffffffffffffffffffffffffffffffffffffffffffffff1916145b8061046c575061046b82610c95565b5b9050919050565b60605f805461048190612236565b80601f01602080910402602001604051908101604052809291908181526020018280546104ad90612236565b80156104f85780601f106104cf576101008083540402835291602001916104f8565b820191905f5260205f20905b8154815290600101906020018083116104db57829003601f168201915b5050505050905090565b5f61050c82610cfe565b5061051682610d84565b9050919050565b61052f828261052a610dbd565b610dc4565b5050565b5f73ffffffffffffffffffffffffffffffffffffffff168273ffffffffffffffffffffffffffffffffffffffff16036105a3575f6040517f64a0ae9200000000000000000000000000000000000000000000000000000000815260040161059a9190611d2a565b60405180910390fd5b5f6105b683836105b1610dbd565b610dd6565b90508373ffffffffffffffffffffffffffffffffffffffff168173ffffffffffffffffffffffffffffffffffffffff161461062c578382826040517f64283d7b00000000000000000000000000000000000000000000000000000000815260040161062393929190612266565b60405180910390fd5b50505050565b61064c83838360405180602001604052805f81525061091a565b505050565b5f61065b82610cfe565b9050919050565b5f8073ffffffffffffffffffffffffffffffffffffffff168273ffffffffffffffffffffffffffffffffffffffff16036106d3575f6040517f89c62b640000000000000000000000000000000000000000000000000000000081526004016106ca9190611d2a565b60405180910390fd5b60035f8373ffffffffffffffffffffffffffffffffffffffff1673ffffffffffffffffffffffffffffffffffffffff1681526020019081526020015f20549050919050565b610720610fe1565b6107295f611068565b565b5f60065f9054906101000a900473ffffffffffffffffffffffffffffffffffffffff16905090565b60606001805461076290612236565b80601f016020809104026020016040519081016040528092919081815260200182805461078e90612236565b80156107d95780601f106107b0576101008083540402835291602001916107d9565b820191905f5260205f20905b8154815290600101906020018083116107bc57829003601f168201915b5050505050905090565b6107f56107ee610dbd565b838361112b565b5050565b5f811161083b576040517f08c379a0000000000000000000000000000000000000000000000000000000008152600401610832906122e5565b60405180910390fd5b5f60075f81548092919061084e90612330565b91905055905060405180606001604052808581526020018481526020018381525060085f8381526020019081526020015f205f820151815f0190816108939190612514565b5060208201518160010190816108a99190612514565b50604082015181600201559050506108c13382611294565b803373ffffffffffffffffffffffffffffffffffffffff167fd4c66c0b4a561d56648595421ca175294f0bc0e424716f1193ba528ddb0bc38986868660405161090c93929190612188565b60405180910390a350505050565b610925848484610533565b610939610930610dbd565b858585856112b1565b50505050565b606061094a82610cfe565b505f61095461145d565b90505f8151116109725760405180602001604052805f81525061099d565b8061097c84611473565b60405160200161098d92919061261d565b6040516020818303038152906040525b915050919050565b6060805f8073ffffffffffffffffffffffffffffffffffffffff166109c98561153d565b73ffffffffffffffffffffffffffffffffffffffff1603610a1f576040517f08c379a0000000000000000000000000000000000000000000000000000000008152600401610a169061268a565b60405180910390fd5b5f60085f8681526020019081526020015f206040518060600160405290815f82018054610a4b90612236565b80601f0160208091040260200160405190810160405280929190818152602001828054610a7790612236565b8015610ac25780601f10610a9957610100808354040283529160200191610ac2565b820191905f5260205f20905b815481529060010190602001808311610aa557829003601f168201915b50505050508152602001600182018054610adb90612236565b80601f0160208091040260200160405190810160405280929190818152602001828054610b0790612236565b8015610b525780601f10610b2957610100808354040283529160200191610b52565b820191905f5260205f20905b815481529060010190602001808311610b3557829003601f168201915b505050505081526020016002820154815250509050805f015181602001518260400151935093509350509193909250565b5f60055f8473ffffffffffffffffffffffffffffffffffffffff1673ffffffffffffffffffffffffffffffffffffffff1681526020019081526020015f205f8373ffffffffffffffffffffffffffffffffffffffff1673ffffffffffffffffffffffffffffffffffffffff1681526020019081526020015f205f9054906101000a900460ff16905092915050565b610c19610fe1565b5f73ffffffffffffffffffffffffffffffffffffffff168173ffffffffffffffffffffffffffffffffffffffff1603610c89575f6040517f1e4fbdf7000000000000000000000000000000000000000000000000000000008152600401610c809190611d2a565b60405180910390fd5b610c9281611068565b50565b5f7f01ffc9a7000000000000000000000000000000000000000000000000000000007bffffffffffffffffffffffffffffffffffffffffffffffffffffffff1916827bffffffffffffffffffffffffffffffffffffffffffffffffffffffff1916149050919050565b5f80610d098361153d565b90505f73ffffffffffffffffffffffffffffffffffffffff168173ffffffffffffffffffffffffffffffffffffffff1603610d7b57826040517f7e273289000000000000000000000000000000000000000000000000000000008152600401610d729190611e35565b60405180910390fd5b80915050919050565b5f60045f8381526020019081526020015f205f9054906101000a900473ffffffffffffffffffffffffffffffffffffffff169050919050565b5f33905090565b610dd18383836001611576565b505050565b5f80610de18461153d565b90505f73ffffffffffffffffffffffffffffffffffffffff168373ffffffffffffffffffffffffffffffffffffffff1614610e2257610e21818486611735565b5b5f73ffffffffffffffffffffffffffffffffffffffff168173ffffffffffffffffffffffffffffffffffffffff1614610ead57610e615f855f80611576565b600160035f8373ffffffffffffffffffffffffffffffffffffffff1673ffffffffffffffffffffffffffffffffffffffff1681526020019081526020015f205f82825403925050819055505b5f73ffffffffffffffffffffffffffffffffffffffff168573ffffffffffffffffffffffffffffffffffffffff1614610f2c57600160035f8773ffffffffffffffffffffffffffffffffffffffff1673ffffffffffffffffffffffffffffffffffffffff1681526020019081526020015f205f82825401925050819055505b8460025f8681526020019081526020015f205f6101000a81548173ffffffffffffffffffffffffffffffffffffffff021916908373ffffffffffffffffffffffffffffffffffffffff160217905550838573ffffffffffffffffffffffffffffffffffffffff168273ffffffffffffffffffffffffffffffffffffffff167fddf252ad1be2c89b69c2b068fc378daa952ba7f163c4a11628f55a4df523b3ef60405160405180910390a4809150509392505050565b610fe9610dbd565b73ffffffffffffffffffffffffffffffffffffffff1661100761072b565b73ffffffffffffffffffffffffffffffffffffffff16146110665761102a610dbd565b6040517f118cdaa700000000000000000000000000000000000000000000000000000000815260040161105d9190611d2a565b60405180910390fd5b565b5f60065f9054906101000a900473ffffffffffffffffffffffffffffffffffffffff1690508160065f6101000a81548173ffffffffffffffffffffffffffffffffffffffff021916908373ffffffffffffffffffffffffffffffffffffffff1602179055508173ffffffffffffffffffffffffffffffffffffffff168173ffffffffffffffffffffffffffffffffffffffff167f8be0079c531659141344cd1fd0a4f28419497f9722a3daafe3b4186f6b6457e060405160405180910390a35050565b5f73ffffffffffffffffffffffffffffffffffffffff168273ffffffffffffffffffffffffffffffffffffffff160361119b57816040517f5b08ba180000000000000000000000000000000000000000000000000000000081526004016111929190611d2a565b60405180910390fd5b8060055f8573ffffffffffffffffffffffffffffffffffffffff1673ffffffffffffffffffffffffffffffffffffffff1681526020019081526020015f205f8473ffffffffffffffffffffffffffffffffffffffff1673ffffffffffffffffffffffffffffffffffffffff1681526020019081526020015f205f6101000a81548160ff0219169083151502179055508173ffffffffffffffffffffffffffffffffffffffff168373ffffffffffffffffffffffffffffffffffffffff167f17307eab39ab6107e8899845ad3d59bd9653f200f220920489ca2b5937696c31836040516112879190611bca565b60405180910390a3505050565b6112ad828260405180602001604052805f8152506117f8565b5050565b5f8373ffffffffffffffffffffffffffffffffffffffff163b1115611456578273ffffffffffffffffffffffffffffffffffffffff1663150b7a02868685856040518563ffffffff1660e01b815260040161130f94939291906126fa565b6020604051808303815f875af192505050801561134a57506040513d601f19601f820116820180604052508101906113479190612758565b60015b6113cb573d805f8114611378576040519150601f19603f3d011682016040523d82523d5f602084013e61137d565b606091505b505f8151036113c357836040517f64a0ae920000000000000000000000000000000000000000000000000000000081526004016113ba9190611d2a565b60405180910390fd5b805181602001fd5b63150b7a0260e01b7bffffffffffffffffffffffffffffffffffffffffffffffffffffffff1916817bffffffffffffffffffffffffffffffffffffffffffffffffffffffff19161461145457836040517f64a0ae9200000000000000000000000000000000000000000000000000000000815260040161144b9190611d2a565b60405180910390fd5b505b5050505050565b606060405180602001604052805f815250905090565b60605f60016114818461181b565b0190505f8167ffffffffffffffff81111561149f5761149e611ebe565b5b6040519080825280601f01601f1916602001820160405280156114d15781602001600182028036833780820191505090505b5090505f82602001820190505b600115611532578080600190039150507f3031323334353637383961626364656600000000000000000000000000000000600a86061a8153600a858161152757611526612783565b5b0494505f85036114de575b819350505050919050565b5f60025f8381526020019081526020015f205f9054906101000a900473ffffffffffffffffffffffffffffffffffffffff169050919050565b80806115ae57505f73ffffffffffffffffffffffffffffffffffffffff168273ffffffffffffffffffffffffffffffffffffffff1614155b156116e0575f6115bd84610cfe565b90505f73ffffffffffffffffffffffffffffffffffffffff168373ffffffffffffffffffffffffffffffffffffffff161415801561162757508273ffffffffffffffffffffffffffffffffffffffff168173ffffffffffffffffffffffffffffffffffffffff1614155b801561163a57506116388184610b83565b155b1561167c57826040517fa9fbf51f0000000000000000000000000000000000000000000000000000000081526004016116739190611d2a565b60405180910390fd5b81156116de57838573ffffffffffffffffffffffffffffffffffffffff168273ffffffffffffffffffffffffffffffffffffffff167f8c5be1e5ebec7d5bd14f71427d1e84f3dd0314c0f7b2291e5b200ac8c7c3b92560405160405180910390a45b505b8360045f8581526020019081526020015f205f6101000a81548173ffffffffffffffffffffffffffffffffffffffff021916908373ffffffffffffffffffffffffffffffffffffffff16021790555050505050565b61174083838361196c565b6117f3575f73ffffffffffffffffffffffffffffffffffffffff168373ffffffffffffffffffffffffffffffffffffffff16036117b457806040517f7e2732890000000000000000000000000000000000000000000000000000000081526004016117ab9190611e35565b60405180910390fd5b81816040517f177e802f0000000000000000000000000000000000000000000000000000000081526004016117ea9291906127b0565b60405180910390fd5b505050565b6118028383611a2c565b61181661180d610dbd565b5f8585856112b1565b505050565b5f805f90507a184f03e93ff9f4daa797ed6e38ed64bf6a1f0100000000000000008310611877577a184f03e93ff9f4daa797ed6e38ed64bf6a1f010000000000000000838161186d5761186c612783565b5b0492506040810190505b6d04ee2d6d415b85acef810000000083106118b4576d04ee2d6d415b85acef810000000083816118aa576118a9612783565b5b0492506020810190505b662386f26fc1000083106118e357662386f26fc1000083816118d9576118d8612783565b5b0492506010810190505b6305f5e100831061190c576305f5e100838161190257611901612783565b5b0492506008810190505b612710831061193157612710838161192757611926612783565b5b0492506004810190505b60648310611954576064838161194a57611949612783565b5b0492506002810190505b600a8310611963576001810190505b80915050919050565b5f8073ffffffffffffffffffffffffffffffffffffffff168373ffffffffffffffffffffffffffffffffffffffff1614158015611a2357508273ffffffffffffffffffffffffffffffffffffffff168473ffffffffffffffffffffffffffffffffffffffff1614806119e457506119e38484610b83565b5b80611a2257508273ffffffffffffffffffffffffffffffffffffffff16611a0a83610d84565b73ffffffffffffffffffffffffffffffffffffffff16145b5b90509392505050565b5f73ffffffffffffffffffffffffffffffffffffffff168273ffffffffffffffffffffffffffffffffffffffff1603611a9c575f6040517f64a0ae92000000000000000000000000000000000000000000000000000000008152600401611a939190611d2a565b60405180910390fd5b5f611aa883835f610dd6565b90505f73ffffffffffffffffffffffffffffffffffffffff168173ffffffffffffffffffffffffffffffffffffffff1614611b1a575f6040517f73c6ac6e000000000000000000000000000000000000000000000000000000008152600401611b119190611d2a565b60405180910390fd5b505050565b5f604051905090565b5f80fd5b5f80fd5b5f7fffffffff0000000000000000000000000000000000000000000000000000000082169050919050565b611b6481611b30565b8114611b6e575f80fd5b50565b5f81359050611b7f81611b5b565b92915050565b5f60208284031215611b9a57611b99611b28565b5b5f611ba784828501611b71565b91505092915050565b5f8115159050919050565b611bc481611bb0565b82525050565b5f602082019050611bdd5f830184611bbb565b92915050565b5f81519050919050565b5f82825260208201905092915050565b5f5b83811015611c1a578082015181840152602081019050611bff565b5f8484015250505050565b5f601f19601f8301169050919050565b5f611c3f82611be3565b611c498185611bed565b9350611c59818560208601611bfd565b611c6281611c25565b840191505092915050565b5f6020820190508181035f830152611c858184611c35565b905092915050565b5f819050919050565b611c9f81611c8d565b8114611ca9575f80fd5b50565b5f81359050611cba81611c96565b92915050565b5f60208284031215611cd557611cd4611b28565b5b5f611ce284828501611cac565b91505092915050565b5f73ffffffffffffffffffffffffffffffffffffffff82169050919050565b5f611d1482611ceb565b9050919050565b611d2481611d0a565b82525050565b5f602082019050611d3d5f830184611d1b565b92915050565b611d4c81611d0a565b8114611d56575f80fd5b50565b5f81359050611d6781611d43565b92915050565b5f8060408385031215611d8357611d82611b28565b5b5f611d9085828601611d59565b9250506020611da185828601611cac565b9150509250929050565b5f805f60608486031215611dc257611dc1611b28565b5b5f611dcf86828701611d59565b9350506020611de086828701611d59565b9250506040611df186828701611cac565b9150509250925092565b5f60208284031215611e1057611e0f611b28565b5b5f611e1d84828501611d59565b91505092915050565b611e2f81611c8d565b82525050565b5f602082019050611e485f830184611e26565b92915050565b611e5781611bb0565b8114611e61575f80fd5b50565b5f81359050611e7281611e4e565b92915050565b5f8060408385031215611e8e57611e8d611b28565b5b5f611e9b85828601611d59565b9250506020611eac85828601611e64565b9150509250929050565b5f80fd5b5f80fd5b7f4e487b71000000000000000000000000000000000000000000000000000000005f52604160045260245ffd5b611ef482611c25565b810181811067ffffffffffffffff82111715611f1357611f12611ebe565b5b80604052505050565b5f611f25611b1f565b9050611f318282611eeb565b919050565b5f67ffffffffffffffff821115611f5057611f4f611ebe565b5b611f5982611c25565b9050602081019050919050565b828183375f83830152505050565b5f611f86611f8184611f36565b611f1c565b905082815260208101848484011115611fa257611fa1611eba565b5b611fad848285611f66565b509392505050565b5f82601f830112611fc957611fc8611eb6565b5b8135611fd9848260208601611f74565b91505092915050565b5f805f60608486031215611ff957611ff8611b28565b5b5f84013567ffffffffffffffff81111561201657612015611b2c565b5b61202286828701611fb5565b935050602084013567ffffffffffffffff81111561204357612042611b2c565b5b61204f86828701611fb5565b925050604061206086828701611cac565b9150509250925092565b5f67ffffffffffffffff82111561208457612083611ebe565b5b61208d82611c25565b9050602081019050919050565b5f6120ac6120a78461206a565b611f1c565b9050828152602081018484840111156120c8576120c7611eba565b5b6120d3848285611f66565b509392505050565b5f82601f8301126120ef576120ee611eb6565b5b81356120ff84826020860161209a565b91505092915050565b5f805f80608085870312156121205761211f611b28565b5b5f61212d87828801611d59565b945050602061213e87828801611d59565b935050604061214f87828801611cac565b925050606085013567ffffffffffffffff8111156121705761216f611b2c565b5b61217c878288016120db565b91505092959194509250565b5f6060820190508181035f8301526121a08186611c35565b905081810360208301526121b48185611c35565b90506121c36040830184611e26565b949350505050565b5f80604083850312156121e1576121e0611b28565b5b5f6121ee85828601611d59565b92505060206121ff85828601611d59565b9150509250929050565b7f4e487b71000000000000000000000000000000000000000000000000000000005f52602260045260245ffd5b5f600282049050600182168061224d57607f821691505b6020821081036122605761225f612209565b5b50919050565b5f6060820190506122795f830186611d1b565b6122866020830185611e26565b6122936040830184611d1b565b949350505050565b7f4669736820776569676874206d757374206265203e20300000000000000000005f82015250565b5f6122cf601783611bed565b91506122da8261229b565b602082019050919050565b5f6020820190508181035f8301526122fc816122c3565b9050919050565b7f4e487b71000000000000000000000000000000000000000000000000000000005f52601160045260245ffd5b5f61233a82611c8d565b91507fffffffffffffffffffffffffffffffffffffffffffffffffffffffffffffffff820361236c5761236b612303565b5b600182019050919050565b5f819050815f5260205f209050919050565b5f6020601f8301049050919050565b5f82821b905092915050565b5f600883026123d37fffffffffffffffffffffffffffffffffffffffffffffffffffffffffffffffff82612398565b6123dd8683612398565b95508019841693508086168417925050509392505050565b5f819050919050565b5f61241861241361240e84611c8d565b6123f5565b611c8d565b9050919050565b5f819050919050565b612431836123fe565b61244561243d8261241f565b8484546123a4565b825550505050565b5f90565b61245961244d565b612464818484612428565b505050565b5b818110156124875761247c5f82612451565b60018101905061246a565b5050565b601f8211156124cc5761249d81612377565b6124a684612389565b810160208510156124b5578190505b6124c96124c185612389565b830182612469565b50505b505050565b5f82821c905092915050565b5f6124ec5f19846008026124d1565b1980831691505092915050565b5f61250483836124dd565b9150826002028217905092915050565b61251d82611be3565b67ffffffffffffffff81111561253657612535611ebe565b5b6125408254612236565b61254b82828561248b565b5f60209050601f83116001811461257c575f841561256a578287015190505b61257485826124f9565b8655506125db565b601f19841661258a86612377565b5f5b828110156125b15784890151825560018201915060208501945060208101905061258c565b868310156125ce57848901516125ca601f8916826124dd565b8355505b6001600288020188555050505b505050505050565b5f81905092915050565b5f6125f782611be3565b61260181856125e3565b9350612611818560208601611bfd565b80840191505092915050565b5f61262882856125ed565b915061263482846125ed565b91508190509392505050565b7f4669736820646f6573206e6f74206578697374000000000000000000000000005f82015250565b5f612674601383611bed565b915061267f82612640565b602082019050919050565b5f6020820190508181035f8301526126a181612668565b9050919050565b5f81519050919050565b5f82825260208201905092915050565b5f6126cc826126a8565b6126d681856126b2565b93506126e6818560208601611bfd565b6126ef81611c25565b840191505092915050565b5f60808201905061270d5f830187611d1b565b61271a6020830186611d1b565b6127276040830185611e26565b818103606083015261273981846126c2565b905095945050505050565b5f8151905061275281611b5b565b92915050565b5f6020828403121561276d5761276c611b28565b5b5f61277a84828501612744565b91505092915050565b7f4e487b71000000000000000000000000000000000000000000000000000000005f52601260045260245ffd5b5f6040820190506127c35f830185611d1b565b6127d06020830184611e26565b939250505056fea264697066735822122007b499e71df08869966931f6a4c63030d95bec24c9033ef1b4de7ea835ad983c64736f6c63430008140033",
			"opcodes": "PUSH1 0x80 PUSH1 0x40 MSTORE PUSH1 0x1 PUSH1 0x7 SSTORE CALLVALUE DUP1 ISZERO PUSH3 0x15 JUMPI PUSH0 DUP1 REVERT JUMPDEST POP CALLER PUSH1 0x40 MLOAD DUP1 PUSH1 0x40 ADD PUSH1 0x40 MSTORE DUP1 PUSH1 0x7 DUP2 MSTORE PUSH1 0x20 ADD PUSH32 0x466973684E465400000000000000000000000000000000000000000000000000 DUP2 MSTORE POP PUSH1 0x40 MLOAD DUP1 PUSH1 0x40 ADD PUSH1 0x40 MSTORE DUP1 PUSH1 0x4 DUP2 MSTORE PUSH1 0x20 ADD PUSH32 0x4649534800000000000000000000000000000000000000000000000000000000 DUP2 MSTORE POP DUP2 PUSH0 SWAP1 DUP2 PUSH3 0x93 SWAP2 SWAP1 PUSH3 0x45A JUMP JUMPDEST POP DUP1 PUSH1 0x1 SWAP1 DUP2 PUSH3 0xA5 SWAP2 SWAP1 PUSH3 0x45A JUMP JUMPDEST POP POP POP PUSH0 PUSH20 0xFFFFFFFFFFFFFFFFFFFFFFFFFFFFFFFFFFFFFFFF AND DUP2 PUSH20 0xFFFFFFFFFFFFFFFFFFFFFFFFFFFFFFFFFFFFFFFF AND SUB PUSH3 0x11B JUMPI PUSH0 PUSH1 0x40 MLOAD PUSH32 0x1E4FBDF700000000000000000000000000000000000000000000000000000000 DUP2 MSTORE PUSH1 0x4 ADD PUSH3 0x112 SWAP2 SWAP1 PUSH3 0x581 JUMP JUMPDEST PUSH1 0x40 MLOAD DUP1 SWAP2 SUB SWAP1 REVERT JUMPDEST PUSH3 0x12C DUP2 PUSH3 0x133 PUSH1 0x20 SHL PUSH1 0x20 SHR JUMP JUMPDEST POP PUSH3 0x59C JUMP JUMPDEST PUSH0 PUSH1 0x6 PUSH0 SWAP1 SLOAD SWAP1 PUSH2 0x100 EXP SWAP1 DIV PUSH20 0xFFFFFFFFFFFFFFFFFFFFFFFFFFFFFFFFFFFFFFFF AND SWAP1 POP DUP2 PUSH1 0x6 PUSH0 PUSH2 0x100 EXP DUP2 SLOAD DUP2 PUSH20 0xFFFFFFFFFFFFFFFFFFFFFFFFFFFFFFFFFFFFFFFF MUL NOT AND SWAP1 DUP4 PUSH20 0xFFFFFFFFFFFFFFFFFFFFFFFFFFFFFFFFFFFFFFFF AND MUL OR SWAP1 SSTORE POP DUP2 PUSH20 0xFFFFFFFFFFFFFFFFFFFFFFFFFFFFFFFFFFFFFFFF AND DUP2 PUSH20 0xFFFFFFFFFFFFFFFFFFFFFFFFFFFFFFFFFFFFFFFF AND PUSH32 0x8BE0079C531659141344CD1FD0A4F28419497F9722A3DAAFE3B4186F6B6457E0 PUSH1 0x40 MLOAD PUSH1 0x40 MLOAD DUP1 SWAP2 SUB SWAP1 LOG3 POP POP JUMP JUMPDEST PUSH0 DUP2 MLOAD SWAP1 POP SWAP2 SWAP1 POP JUMP JUMPDEST PUSH32 0x4E487B7100000000000000000000000000000000000000000000000000000000 PUSH0 MSTORE PUSH1 0x41 PUSH1 0x4 MSTORE PUSH1 0x24 PUSH0 REVERT JUMPDEST PUSH32 0x4E487B7100000000000000000000000000000000000000000000000000000000 PUSH0 MSTORE PUSH1 0x22 PUSH1 0x4 MSTORE PUSH1 0x24 PUSH0 REVERT JUMPDEST PUSH0 PUSH1 0x2 DUP3 DIV SWAP1 POP PUSH1 0x1 DUP3 AND DUP1 PUSH3 0x272 JUMPI PUSH1 0x7F DUP3 AND SWAP2 POP JUMPDEST PUSH1 0x20 DUP3 LT DUP2 SUB PUSH3 0x288 JUMPI PUSH3 0x287 PUSH3 0x22D JUMP JUMPDEST JUMPDEST POP SWAP2 SWAP1 POP JUMP JUMPDEST PUSH0 DUP2 SWAP1 POP DUP2 PUSH0 MSTORE PUSH1 0x20 PUSH0 KECCAK256 SWAP1 POP SWAP2 SWAP1 POP JUMP JUMPDEST PUSH0 PUSH1 0x20 PUSH1 0x1F DUP4 ADD DIV SWAP1 POP SWAP2 SWAP1 POP JUMP JUMPDEST PUSH0 DUP3 DUP3 SHL SWAP1 POP SWAP3 SWAP2 POP POP JUMP JUMPDEST PUSH0 PUSH1 0x8 DUP4 MUL PUSH3 0x2EC PUSH32 0xFFFFFFFFFFFFFFFFFFFFFFFFFFFFFFFFFFFFFFFFFFFFFFFFFFFFFFFFFFFFFFFF DUP3 PUSH3 0x2AF JUMP JUMPDEST PUSH3 0x2F8 DUP7 DUP4 PUSH3 0x2AF JUMP JUMPDEST SWAP6 POP DUP1 NOT DUP5 AND SWAP4 POP DUP1 DUP7 AND DUP5 OR SWAP3 POP POP POP SWAP4 SWAP3 POP POP POP JUMP JUMPDEST PUSH0 DUP2 SWAP1 POP SWAP2 SWAP1 POP JUMP JUMPDEST PUSH0 DUP2 SWAP1 POP SWAP2 SWAP1 POP JUMP JUMPDEST PUSH0 PUSH3 0x342 PUSH3 0x33C PUSH3 0x336 DUP5 PUSH3 0x310 JUMP JUMPDEST PUSH3 0x319 JUMP JUMPDEST PUSH3 0x310 JUMP JUMPDEST SWAP1 POP SWAP2 SWAP1 POP JUMP JUMPDEST PUSH0 DUP2 SWAP1 POP SWAP2 SWAP1 POP JUMP JUMPDEST PUSH3 0x35D DUP4 PUSH3 0x322 JUMP JUMPDEST PUSH3 0x375 PUSH3 0x36C DUP3 PUSH3 0x349 JUMP JUMPDEST DUP5 DUP5 SLOAD PUSH3 0x2BB JUMP JUMPDEST DUP3 SSTORE POP POP POP POP JUMP JUMPDEST PUSH0 SWAP1 JUMP JUMPDEST PUSH3 0x38B PUSH3 0x37D JUMP JUMPDEST PUSH3 0x398 DUP2 DUP5 DUP5 PUSH3 0x352 JUMP JUMPDEST POP POP POP JUMP JUMPDEST JUMPDEST DUP2 DUP2 LT ISZERO PUSH3 0x3BF JUMPI PUSH3 0x3B3 PUSH0 DUP3 PUSH3 0x381 JUMP JUMPDEST PUSH1 0x1 DUP2 ADD SWAP1 POP PUSH3 0x39E JUMP JUMPDEST POP POP JUMP JUMPDEST PUSH1 0x1F DUP3 GT ISZERO PUSH3 0x40E JUMPI PUSH3 0x3D8 DUP2 PUSH3 0x28E JUMP JUMPDEST PUSH3 0x3E3 DUP5 PUSH3 0x2A0 JUMP JUMPDEST DUP2 ADD PUSH1 0x20 DUP6 LT ISZERO PUSH3 0x3F3 JUMPI DUP2 SWAP1 POP JUMPDEST PUSH3 0x40B PUSH3 0x402 DUP6 PUSH3 0x2A0 JUMP JUMPDEST DUP4 ADD DUP3 PUSH3 0x39D JUMP JUMPDEST POP POP JUMPDEST POP POP POP JUMP JUMPDEST PUSH0 DUP3 DUP3 SHR SWAP1 POP SWAP3 SWAP2 POP POP JUMP JUMPDEST PUSH0 PUSH3 0x430 PUSH0 NOT DUP5 PUSH1 0x8 MUL PUSH3 0x413 JUMP JUMPDEST NOT DUP1 DUP4 AND SWAP2 POP POP SWAP3 SWAP2 POP POP JUMP JUMPDEST PUSH0 PUSH3 0x44A DUP4 DUP4 PUSH3 0x41F JUMP JUMPDEST SWAP2 POP DUP3 PUSH1 0x2 MUL DUP3 OR SWAP1 POP SWAP3 SWAP2 POP POP JUMP JUMPDEST PUSH3 0x465 DUP3 PUSH3 0x1F6 JUMP JUMPDEST PUSH8 0xFFFFFFFFFFFFFFFF DUP2 GT ISZERO PUSH3 0x481 JUMPI PUSH3 0x480 PUSH3 0x200 JUMP JUMPDEST JUMPDEST PUSH3 0x48D DUP3 SLOAD PUSH3 0x25A JUMP JUMPDEST PUSH3 0x49A DUP3 DUP3 DUP6 PUSH3 0x3C3 JUMP JUMPDEST PUSH0 PUSH1 0x20 SWAP1 POP PUSH1 0x1F DUP4 GT PUSH1 0x1 DUP2 EQ PUSH3 0x4D0 JUMPI PUSH0 DUP5 ISZERO PUSH3 0x4BB JUMPI DUP3 DUP8 ADD MLOAD SWAP1 POP JUMPDEST PUSH3 0x4C7 DUP6 DUP3 PUSH3 0x43D JUMP JUMPDEST DUP7 SSTORE POP PUSH3 0x536 JUMP JUMPDEST PUSH1 0x1F NOT DUP5 AND PUSH3 0x4E0 DUP7 PUSH3 0x28E JUMP JUMPDEST PUSH0 JUMPDEST DUP3 DUP2 LT ISZERO PUSH3 0x509 JUMPI DUP5 DUP10 ADD MLOAD DUP3 SSTORE PUSH1 0x1 DUP3 ADD SWAP2 POP PUSH1 0x20 DUP6 ADD SWAP5 POP PUSH1 0x20 DUP2 ADD SWAP1 POP PUSH3 0x4E2 JUMP JUMPDEST DUP7 DUP4 LT ISZERO PUSH3 0x529 JUMPI DUP5 DUP10 ADD MLOAD PUSH3 0x525 PUSH1 0x1F DUP10 AND DUP3 PUSH3 0x41F JUMP JUMPDEST DUP4 SSTORE POP JUMPDEST PUSH1 0x1 PUSH1 0x2 DUP9 MUL ADD DUP9 SSTORE POP POP POP JUMPDEST POP POP POP POP POP POP JUMP JUMPDEST PUSH0 PUSH20 0xFFFFFFFFFFFFFFFFFFFFFFFFFFFFFFFFFFFFFFFF DUP3 AND SWAP1 POP SWAP2 SWAP1 POP JUMP JUMPDEST PUSH0 PUSH3 0x569 DUP3 PUSH3 0x53E JUMP JUMPDEST SWAP1 POP SWAP2 SWAP1 POP JUMP JUMPDEST PUSH3 0x57B DUP2 PUSH3 0x55D JUMP JUMPDEST DUP3 MSTORE POP POP JUMP JUMPDEST PUSH0 PUSH1 0x20 DUP3 ADD SWAP1 POP PUSH3 0x596 PUSH0 DUP4 ADD DUP5 PUSH3 0x570 JUMP JUMPDEST SWAP3 SWAP2 POP POP JUMP JUMPDEST PUSH2 0x280D DUP1 PUSH3 0x5AA PUSH0 CODECOPY PUSH0 RETURN INVALID PUSH1 0x80 PUSH1 0x40 MSTORE CALLVALUE DUP1 ISZERO PUSH2 0xF JUMPI PUSH0 DUP1 REVERT JUMPDEST POP PUSH1 0x4 CALLDATASIZE LT PUSH2 0x114 JUMPI PUSH0 CALLDATALOAD PUSH1 0xE0 SHR DUP1 PUSH4 0x8DA5CB5B GT PUSH2 0xA0 JUMPI DUP1 PUSH4 0xB88D4FDE GT PUSH2 0x6F JUMPI DUP1 PUSH4 0xB88D4FDE EQ PUSH2 0x2C8 JUMPI DUP1 PUSH4 0xC87B56DD EQ PUSH2 0x2E4 JUMPI DUP1 PUSH4 0xE2450A98 EQ PUSH2 0x314 JUMPI DUP1 PUSH4 0xE985E9C5 EQ PUSH2 0x346 JUMPI DUP1 PUSH4 0xF2FDE38B EQ PUSH2 0x376 JUMPI PUSH2 0x114 JUMP JUMPDEST DUP1 PUSH4 0x8DA5CB5B EQ PUSH2 0x254 JUMPI DUP1 PUSH4 0x95D89B41 EQ PUSH2 0x272 JUMPI DUP1 PUSH4 0xA22CB465 EQ PUSH2 0x290 JUMPI DUP1 PUSH4 0xAE259FB9 EQ PUSH2 0x2AC JUMPI PUSH2 0x114 JUMP JUMPDEST DUP1 PUSH4 0x23B872DD GT PUSH2 0xE7 JUMPI DUP1 PUSH4 0x23B872DD EQ PUSH2 0x1B2 JUMPI DUP1 PUSH4 0x42842E0E EQ PUSH2 0x1CE JUMPI DUP1 PUSH4 0x6352211E EQ PUSH2 0x1EA JUMPI DUP1 PUSH4 0x70A08231 EQ PUSH2 0x21A JUMPI DUP1 PUSH4 0x715018A6 EQ PUSH2 0x24A JUMPI PUSH2 0x114 JUMP JUMPDEST DUP1 PUSH4 0x1FFC9A7 EQ PUSH2 0x118 JUMPI DUP1 PUSH4 0x6FDDE03 EQ PUSH2 0x148 JUMPI DUP1 PUSH4 0x81812FC EQ PUSH2 0x166 JUMPI DUP1 PUSH4 0x95EA7B3 EQ PUSH2 0x196 JUMPI JUMPDEST PUSH0 DUP1 REVERT JUMPDEST PUSH2 0x132 PUSH1 0x4 DUP1 CALLDATASIZE SUB DUP2 ADD SWAP1 PUSH2 0x12D SWAP2 SWAP1 PUSH2 0x1B85 JUMP JUMPDEST PUSH2 0x392 JUMP JUMPDEST PUSH1 0x40 MLOAD PUSH2 0x13F SWAP2 SWAP1 PUSH2 0x1BCA JUMP JUMPDEST PUSH1 0x40 MLOAD DUP1 SWAP2 SUB SWAP1 RETURN JUMPDEST PUSH2 0x150 PUSH2 0x473 JUMP JUMPDEST PUSH1 0x40 MLOAD PUSH2 0x15D SWAP2 SWAP1 PUSH2 0x1C6D JUMP JUMPDEST PUSH1 0x40 MLOAD DUP1 SWAP2 SUB SWAP1 RETURN JUMPDEST PUSH2 0x180 PUSH1 0x4 DUP1 CALLDATASIZE SUB DUP2 ADD SWAP1 PUSH2 0x17B SWAP2 SWAP1 PUSH2 0x1CC0 JUMP JUMPDEST PUSH2 0x502 JUMP JUMPDEST PUSH1 0x40 MLOAD PUSH2 0x18D SWAP2 SWAP1 PUSH2 0x1D2A JUMP JUMPDEST PUSH1 0x40 MLOAD DUP1 SWAP2 SUB SWAP1 RETURN JUMPDEST PUSH2 0x1B0 PUSH1 0x4 DUP1 CALLDATASIZE SUB DUP2 ADD SWAP1 PUSH2 0x1AB SWAP2 SWAP1 PUSH2 0x1D6D JUMP JUMPDEST PUSH2 0x51D JUMP JUMPDEST STOP JUMPDEST PUSH2 0x1CC PUSH1 0x4 DUP1 CALLDATASIZE SUB DUP2 ADD SWAP1 PUSH2 0x1C7 SWAP2 SWAP1 PUSH2 0x1DAB JUMP JUMPDEST PUSH2 0x533 JUMP JUMPDEST STOP JUMPDEST PUSH2 0x1E8 PUSH1 0x4 DUP1 CALLDATASIZE SUB DUP2 ADD SWAP1 PUSH2 0x1E3 SWAP2 SWAP1 PUSH2 0x1DAB JUMP JUMPDEST PUSH2 0x632 JUMP JUMPDEST STOP JUMPDEST PUSH2 0x204 PUSH1 0x4 DUP1 CALLDATASIZE SUB DUP2 ADD SWAP1 PUSH2 0x1FF SWAP2 SWAP1 PUSH2 0x1CC0 JUMP JUMPDEST PUSH2 0x651 JUMP JUMPDEST PUSH1 0x40 MLOAD PUSH2 0x211 SWAP2 SWAP1 PUSH2 0x1D2A JUMP JUMPDEST PUSH1 0x40 MLOAD DUP1 SWAP2 SUB SWAP1 RETURN JUMPDEST PUSH2 0x234 PUSH1 0x4 DUP1 CALLDATASIZE SUB DUP2 ADD SWAP1 PUSH2 0x22F SWAP2 SWAP1 PUSH2 0x1DFB JUMP JUMPDEST PUSH2 0x662 JUMP JUMPDEST PUSH1 0x40 MLOAD PUSH2 0x241 SWAP2 SWAP1 PUSH2 0x1E35 JUMP JUMPDEST PUSH1 0x40 MLOAD DUP1 SWAP2 SUB SWAP1 RETURN JUMPDEST PUSH2 0x252 PUSH2 0x718 JUMP JUMPDEST STOP JUMPDEST PUSH2 0x25C PUSH2 0x72B JUMP JUMPDEST PUSH1 0x40 MLOAD PUSH2 0x269 SWAP2 SWAP1 PUSH2 0x1D2A JUMP JUMPDEST PUSH1 0x40 MLOAD DUP1 SWAP2 SUB SWAP1 RETURN JUMPDEST PUSH2 0x27A PUSH2 0x753 JUMP JUMPDEST PUSH1 0x40 MLOAD PUSH2 0x287 SWAP2 SWAP1 PUSH2 0x1C6D JUMP JUMPDEST PUSH1 0x40 MLOAD DUP1 SWAP2 SUB SWAP1 RETURN JUMPDEST PUSH2 0x2AA PUSH1 0x4 DUP1 CALLDATASIZE SUB DUP2 ADD SWAP1 PUSH2 0x2A5 SWAP2 SWAP1 PUSH2 0x1E78 JUMP JUMPDEST PUSH2 0x7E3 JUMP JUMPDEST STOP JUMPDEST PUSH2 0x2C6 PUSH1 0x4 DUP1 CALLDATASIZE SUB DUP2 ADD SWAP1 PUSH2 0x2C1 SWAP2 SWAP1 PUSH2 0x1FE2 JUMP JUMPDEST PUSH2 0x7F9 JUMP JUMPDEST STOP JUMPDEST PUSH2 0x2E2 PUSH1 0x4 DUP1 CALLDATASIZE SUB DUP2 ADD SWAP1 PUSH2 0x2DD SWAP2 SWAP1 PUSH2 0x2108 JUMP JUMPDEST PUSH2 0x91A JUMP JUMPDEST STOP JUMPDEST PUSH2 0x2FE PUSH1 0x4 DUP1 CALLDATASIZE SUB DUP2 ADD SWAP1 PUSH2 0x2F9 SWAP2 SWAP1 PUSH2 0x1CC0 JUMP JUMPDEST PUSH2 0x93F JUMP JUMPDEST PUSH1 0x40 MLOAD PUSH2 0x30B SWAP2 SWAP1 PUSH2 0x1C6D JUMP JUMPDEST PUSH1 0x40 MLOAD DUP1 SWAP2 SUB SWAP1 RETURN JUMPDEST PUSH2 0x32E PUSH1 0x4 DUP1 CALLDATASIZE SUB DUP2 ADD SWAP1 PUSH2 0x329 SWAP2 SWAP1 PUSH2 0x1CC0 JUMP JUMPDEST PUSH2 0x9A5 JUMP JUMPDEST PUSH1 0x40 MLOAD PUSH2 0x33D SWAP4 SWAP3 SWAP2 SWAP1 PUSH2 0x2188 JUMP JUMPDEST PUSH1 0x40 MLOAD DUP1 SWAP2 SUB SWAP1 RETURN JUMPDEST PUSH2 0x360 PUSH1 0x4 DUP1 CALLDATASIZE SUB DUP2 ADD SWAP1 PUSH2 0x35B SWAP2 SWAP1 PUSH2 0x21CB JUMP JUMPDEST PUSH2 0xB83 JUMP JUMPDEST PUSH1 0x40 MLOAD PUSH2 0x36D SWAP2 SWAP1 PUSH2 0x1BCA JUMP JUMPDEST PUSH1 0x40 MLOAD DUP1 SWAP2 SUB SWAP1 RETURN JUMPDEST PUSH2 0x390 PUSH1 0x4 DUP1 CALLDATASIZE SUB DUP2 ADD SWAP1 PUSH2 0x38B SWAP2 SWAP1 PUSH2 0x1DFB JUMP JUMPDEST PUSH2 0xC11 JUMP JUMPDEST STOP JUMPDEST PUSH0 PUSH32 0x80AC58CD00000000000000000000000000000000000000000000000000000000 PUSH28 0xFFFFFFFFFFFFFFFFFFFFFFFFFFFFFFFFFFFFFFFFFFFFFFFFFFFFFFFF NOT AND DUP3 PUSH28 0xFFFFFFFFFFFFFFFFFFFFFFFFFFFFFFFFFFFFFFFFFFFFFFFFFFFFFFFF NOT AND EQ DUP1 PUSH2 0x45C JUMPI POP PUSH32 0x5B5E139F00000000000000000000000000000000000000000000000000000000 PUSH28 0xFFFFFFFFFFFFFFFFFFFFFFFFFFFFFFFFFFFFFFFFFFFFFFFFFFFFFFFF NOT AND DUP3 PUSH28 0xFFFFFFFFFFFFFFFFFFFFFFFFFFFFFFFFFFFFFFFFFFFFFFFFFFFFFFFF NOT AND EQ JUMPDEST DUP1 PUSH2 0x46C JUMPI POP PUSH2 0x46B DUP3 PUSH2 0xC95 JUMP JUMPDEST JUMPDEST SWAP1 POP SWAP2 SWAP1 POP JUMP JUMPDEST PUSH1 0x60 PUSH0 DUP1 SLOAD PUSH2 0x481 SWAP1 PUSH2 0x2236 JUMP JUMPDEST DUP1 PUSH1 0x1F ADD PUSH1 0x20 DUP1 SWAP2 DIV MUL PUSH1 0x20 ADD PUSH1 0x40 MLOAD SWAP1 DUP2 ADD PUSH1 0x40 MSTORE DUP1 SWAP3 SWAP2 SWAP1 DUP2 DUP2 MSTORE PUSH1 0x20 ADD DUP3 DUP1 SLOAD PUSH2 0x4AD SWAP1 PUSH2 0x2236 JUMP JUMPDEST DUP1 ISZERO PUSH2 0x4F8 JUMPI DUP1 PUSH1 0x1F LT PUSH2 0x4CF JUMPI PUSH2 0x100 DUP1 DUP4 SLOAD DIV MUL DUP4 MSTORE SWAP2 PUSH1 0x20 ADD SWAP2 PUSH2 0x4F8 JUMP JUMPDEST DUP3 ADD SWAP2 SWAP1 PUSH0 MSTORE PUSH1 0x20 PUSH0 KECCAK256 SWAP1 JUMPDEST DUP2 SLOAD DUP2 MSTORE SWAP1 PUSH1 0x1 ADD SWAP1 PUSH1 0x20 ADD DUP1 DUP4 GT PUSH2 0x4DB JUMPI DUP3 SWAP1 SUB PUSH1 0x1F AND DUP3 ADD SWAP2 JUMPDEST POP POP POP POP POP SWAP1 POP SWAP1 JUMP JUMPDEST PUSH0 PUSH2 0x50C DUP3 PUSH2 0xCFE JUMP JUMPDEST POP PUSH2 0x516 DUP3 PUSH2 0xD84 JUMP JUMPDEST SWAP1 POP SWAP2 SWAP1 POP JUMP JUMPDEST PUSH2 0x52F DUP3 DUP3 PUSH2 0x52A PUSH2 0xDBD JUMP JUMPDEST PUSH2 0xDC4 JUMP JUMPDEST POP POP JUMP JUMPDEST PUSH0 PUSH20 0xFFFFFFFFFFFFFFFFFFFFFFFFFFFFFFFFFFFFFFFF AND DUP3 PUSH20 0xFFFFFFFFFFFFFFFFFFFFFFFFFFFFFFFFFFFFFFFF AND SUB PUSH2 0x5A3 JUMPI PUSH0 PUSH1 0x40 MLOAD PUSH32 0x64A0AE9200000000000000000000000000000000000000000000000000000000 DUP2 MSTORE PUSH1 0x4 ADD PUSH2 0x59A SWAP2 SWAP1 PUSH2 0x1D2A JUMP JUMPDEST PUSH1 0x40 MLOAD DUP1 SWAP2 SUB SWAP1 REVERT JUMPDEST PUSH0 PUSH2 0x5B6 DUP4 DUP4 PUSH2 0x5B1 PUSH2 0xDBD JUMP JUMPDEST PUSH2 0xDD6 JUMP JUMPDEST SWAP1 POP DUP4 PUSH20 0xFFFFFFFFFFFFFFFFFFFFFFFFFFFFFFFFFFFFFFFF AND DUP2 PUSH20 0xFFFFFFFFFFFFFFFFFFFFFFFFFFFFFFFFFFFFFFFF AND EQ PUSH2 0x62C JUMPI DUP4 DUP3 DUP3 PUSH1 0x40 MLOAD PUSH32 0x64283D7B00000000000000000000000000000000000000000000000000000000 DUP2 MSTORE PUSH1 0x4 ADD PUSH2 0x623 SWAP4 SWAP3 SWAP2 SWAP1 PUSH2 0x2266 JUMP JUMPDEST PUSH1 0x40 MLOAD DUP1 SWAP2 SUB SWAP1 REVERT JUMPDEST POP POP POP POP JUMP JUMPDEST PUSH2 0x64C DUP4 DUP4 DUP4 PUSH1 0x40 MLOAD DUP1 PUSH1 0x20 ADD PUSH1 0x40 MSTORE DUP1 PUSH0 DUP2 MSTORE POP PUSH2 0x91A JUMP JUMPDEST POP POP POP JUMP JUMPDEST PUSH0 PUSH2 0x65B DUP3 PUSH2 0xCFE JUMP JUMPDEST SWAP1 POP SWAP2 SWAP1 POP JUMP JUMPDEST PUSH0 DUP1 PUSH20 0xFFFFFFFFFFFFFFFFFFFFFFFFFFFFFFFFFFFFFFFF AND DUP3 PUSH20 0xFFFFFFFFFFFFFFFFFFFFFFFFFFFFFFFFFFFFFFFF AND SUB PUSH2 0x6D3 JUMPI PUSH0 PUSH1 0x40 MLOAD PUSH32 0x89C62B6400000000000000000000000000000000000000000000000000000000 DUP2 MSTORE PUSH1 0x4 ADD PUSH2 0x6CA SWAP2 SWAP1 PUSH2 0x1D2A JUMP JUMPDEST PUSH1 0x40 MLOAD DUP1 SWAP2 SUB SWAP1 REVERT JUMPDEST PUSH1 0x3 PUSH0 DUP4 PUSH20 0xFFFFFFFFFFFFFFFFFFFFFFFFFFFFFFFFFFFFFFFF AND PUSH20 0xFFFFFFFFFFFFFFFFFFFFFFFFFFFFFFFFFFFFFFFF AND DUP2 MSTORE PUSH1 0x20 ADD SWAP1 DUP2 MSTORE PUSH1 0x20 ADD PUSH0 KECCAK256 SLOAD SWAP1 POP SWAP2 SWAP1 POP JUMP JUMPDEST PUSH2 0x720 PUSH2 0xFE1 JUMP JUMPDEST PUSH2 0x729 PUSH0 PUSH2 0x1068 JUMP JUMPDEST JUMP JUMPDEST PUSH0 PUSH1 0x6 PUSH0 SWAP1 SLOAD SWAP1 PUSH2 0x100 EXP SWAP1 DIV PUSH20 0xFFFFFFFFFFFFFFFFFFFFFFFFFFFFFFFFFFFFFFFF AND SWAP1 POP SWAP1 JUMP JUMPDEST PUSH1 0x60 PUSH1 0x1 DUP1 SLOAD PUSH2 0x762 SWAP1 PUSH2 0x2236 JUMP JUMPDEST DUP1 PUSH1 0x1F ADD PUSH1 0x20 DUP1 SWAP2 DIV MUL PUSH1 0x20 ADD PUSH1 0x40 MLOAD SWAP1 DUP2 ADD PUSH1 0x40 MSTORE DUP1 SWAP3 SWAP2 SWAP1 DUP2 DUP2 MSTORE PUSH1 0x20 ADD DUP3 DUP1 SLOAD PUSH2 0x78E SWAP1 PUSH2 0x2236 JUMP JUMPDEST DUP1 ISZERO PUSH2 0x7D9 JUMPI DUP1 PUSH1 0x1F LT PUSH2 0x7B0 JUMPI PUSH2 0x100 DUP1 DUP4 SLOAD DIV MUL DUP4 MSTORE SWAP2 PUSH1 0x20 ADD SWAP2 PUSH2 0x7D9 JUMP JUMPDEST DUP3 ADD SWAP2 SWAP1 PUSH0 MSTORE PUSH1 0x20 PUSH0 KECCAK256 SWAP1 JUMPDEST DUP2 SLOAD DUP2 MSTORE SWAP1 PUSH1 0x1 ADD SWAP1 PUSH1 0x20 ADD DUP1 DUP4 GT PUSH2 0x7BC JUMPI DUP3 SWAP1 SUB PUSH1 0x1F AND DUP3 ADD SWAP2 JUMPDEST POP POP POP POP POP SWAP1 POP SWAP1 JUMP JUMPDEST PUSH2 0x7F5 PUSH2 0x7EE PUSH2 0xDBD JUMP JUMPDEST DUP4 DUP4 PUSH2 0x112B JUMP JUMPDEST POP POP JUMP JUMPDEST PUSH0 DUP2 GT PUSH2 0x83B JUMPI PUSH1 0x40 MLOAD PUSH32 0x8C379A000000000000000000000000000000000000000000000000000000000 DUP2 MSTORE PUSH1 0x4 ADD PUSH2 0x832 SWAP1 PUSH2 0x22E5 JUMP JUMPDEST PUSH1 0x40 MLOAD DUP1 SWAP2 SUB SWAP1 REVERT JUMPDEST PUSH0 PUSH1 0x7 PUSH0 DUP2 SLOAD DUP1 SWAP3 SWAP2 SWAP1 PUSH2 0x84E SWAP1 PUSH2 0x2330 JUMP JUMPDEST SWAP2 SWAP1 POP SSTORE SWAP1 POP PUSH1 0x40 MLOAD DUP1 PUSH1 0x60 ADD PUSH1 0x40 MSTORE DUP1 DUP6 DUP2 MSTORE PUSH1 0x20 ADD DUP5 DUP2 MSTORE PUSH1 0x20 ADD DUP4 DUP2 MSTORE POP PUSH1 0x8 PUSH0 DUP4 DUP2 MSTORE PUSH1 0x20 ADD SWAP1 DUP2 MSTORE PUSH1 0x20 ADD PUSH0 KECCAK256 PUSH0 DUP3 ADD MLOAD DUP2 PUSH0 ADD SWAP1 DUP2 PUSH2 0x893 SWAP2 SWAP1 PUSH2 0x2514 JUMP JUMPDEST POP PUSH1 0x20 DUP3 ADD MLOAD DUP2 PUSH1 0x1 ADD SWAP1 DUP2 PUSH2 0x8A9 SWAP2 SWAP1 PUSH2 0x2514 JUMP JUMPDEST POP PUSH1 0x40 DUP3 ADD MLOAD DUP2 PUSH1 0x2 ADD SSTORE SWAP1 POP POP PUSH2 0x8C1 CALLER DUP3 PUSH2 0x1294 JUMP JUMPDEST DUP1 CALLER PUSH20 0xFFFFFFFFFFFFFFFFFFFFFFFFFFFFFFFFFFFFFFFF AND PUSH32 0xD4C66C0B4A561D56648595421CA175294F0BC0E424716F1193BA528DDB0BC389 DUP7 DUP7 DUP7 PUSH1 0x40 MLOAD PUSH2 0x90C SWAP4 SWAP3 SWAP2 SWAP1 PUSH2 0x2188 JUMP JUMPDEST PUSH1 0x40 MLOAD DUP1 SWAP2 SUB SWAP1 LOG3 POP POP POP POP JUMP JUMPDEST PUSH2 0x925 DUP5 DUP5 DUP5 PUSH2 0x533 JUMP JUMPDEST PUSH2 0x939 PUSH2 0x930 PUSH2 0xDBD JUMP JUMPDEST DUP6 DUP6 DUP6 DUP6 PUSH2 0x12B1 JUMP JUMPDEST POP POP POP POP JUMP JUMPDEST PUSH1 0x60 PUSH2 0x94A DUP3 PUSH2 0xCFE JUMP JUMPDEST POP PUSH0 PUSH2 0x954 PUSH2 0x145D JUMP JUMPDEST SWAP1 POP PUSH0 DUP2 MLOAD GT PUSH2 0x972 JUMPI PUSH1 0x40 MLOAD DUP1 PUSH1 0x20 ADD PUSH1 0x40 MSTORE DUP1 PUSH0 DUP2 MSTORE POP PUSH2 0x99D JUMP JUMPDEST DUP1 PUSH2 0x97C DUP5 PUSH2 0x1473 JUMP JUMPDEST PUSH1 0x40 MLOAD PUSH1 0x20 ADD PUSH2 0x98D SWAP3 SWAP2 SWAP1 PUSH2 0x261D JUMP JUMPDEST PUSH1 0x40 MLOAD PUSH1 0x20 DUP2 DUP4 SUB SUB DUP2 MSTORE SWAP1 PUSH1 0x40 MSTORE JUMPDEST SWAP2 POP POP SWAP2 SWAP1 POP JUMP JUMPDEST PUSH1 0x60 DUP1 PUSH0 DUP1 PUSH20 0xFFFFFFFFFFFFFFFFFFFFFFFFFFFFFFFFFFFFFFFF AND PUSH2 0x9C9 DUP6 PUSH2 0x153D JUMP JUMPDEST PUSH20 0xFFFFFFFFFFFFFFFFFFFFFFFFFFFFFFFFFFFFFFFF AND SUB PUSH2 0xA1F JUMPI PUSH1 0x40 MLOAD PUSH32 0x8C379A000000000000000000000000000000000000000000000000000000000 DUP2 MSTORE PUSH1 0x4 ADD PUSH2 0xA16 SWAP1 PUSH2 0x268A JUMP JUMPDEST PUSH1 0x40 MLOAD DUP1 SWAP2 SUB SWAP1 REVERT JUMPDEST PUSH0 PUSH1 0x8 PUSH0 DUP7 DUP2 MSTORE PUSH1 0x20 ADD SWAP1 DUP2 MSTORE PUSH1 0x20 ADD PUSH0 KECCAK256 PUSH1 0x40 MLOAD DUP1 PUSH1 0x60 ADD PUSH1 0x40 MSTORE SWAP1 DUP2 PUSH0 DUP3 ADD DUP1 SLOAD PUSH2 0xA4B SWAP1 PUSH2 0x2236 JUMP JUMPDEST DUP1 PUSH1 0x1F ADD PUSH1 0x20 DUP1 SWAP2 DIV MUL PUSH1 0x20 ADD PUSH1 0x40 MLOAD SWAP1 DUP2 ADD PUSH1 0x40 MSTORE DUP1 SWAP3 SWAP2 SWAP1 DUP2 DUP2 MSTORE PUSH1 0x20 ADD DUP3 DUP1 SLOAD PUSH2 0xA77 SWAP1 PUSH2 0x2236 JUMP JUMPDEST DUP1 ISZERO PUSH2 0xAC2 JUMPI DUP1 PUSH1 0x1F LT PUSH2 0xA99 JUMPI PUSH2 0x100 DUP1 DUP4 SLOAD DIV MUL DUP4 MSTORE SWAP2 PUSH1 0x20 ADD SWAP2 PUSH2 0xAC2 JUMP JUMPDEST DUP3 ADD SWAP2 SWAP1 PUSH0 MSTORE PUSH1 0x20 PUSH0 KECCAK256 SWAP1 JUMPDEST DUP2 SLOAD DUP2 MSTORE SWAP1 PUSH1 0x1 ADD SWAP1 PUSH1 0x20 ADD DUP1 DUP4 GT PUSH2 0xAA5 JUMPI DUP3 SWAP1 SUB PUSH1 0x1F AND DUP3 ADD SWAP2 JUMPDEST POP POP POP POP POP DUP2 MSTORE PUSH1 0x20 ADD PUSH1 0x1 DUP3 ADD DUP1 SLOAD PUSH2 0xADB SWAP1 PUSH2 0x2236 JUMP JUMPDEST DUP1 PUSH1 0x1F ADD PUSH1 0x20 DUP1 SWAP2 DIV MUL PUSH1 0x20 ADD PUSH1 0x40 MLOAD SWAP1 DUP2 ADD PUSH1 0x40 MSTORE DUP1 SWAP3 SWAP2 SWAP1 DUP2 DUP2 MSTORE PUSH1 0x20 ADD DUP3 DUP1 SLOAD PUSH2 0xB07 SWAP1 PUSH2 0x2236 JUMP JUMPDEST DUP1 ISZERO PUSH2 0xB52 JUMPI DUP1 PUSH1 0x1F LT PUSH2 0xB29 JUMPI PUSH2 0x100 DUP1 DUP4 SLOAD DIV MUL DUP4 MSTORE SWAP2 PUSH1 0x20 ADD SWAP2 PUSH2 0xB52 JUMP JUMPDEST DUP3 ADD SWAP2 SWAP1 PUSH0 MSTORE PUSH1 0x20 PUSH0 KECCAK256 SWAP1 JUMPDEST DUP2 SLOAD DUP2 MSTORE SWAP1 PUSH1 0x1 ADD SWAP1 PUSH1 0x20 ADD DUP1 DUP4 GT PUSH2 0xB35 JUMPI DUP3 SWAP1 SUB PUSH1 0x1F AND DUP3 ADD SWAP2 JUMPDEST POP POP POP POP POP DUP2 MSTORE PUSH1 0x20 ADD PUSH1 0x2 DUP3 ADD SLOAD DUP2 MSTORE POP POP SWAP1 POP DUP1 PUSH0 ADD MLOAD DUP2 PUSH1 0x20 ADD MLOAD DUP3 PUSH1 0x40 ADD MLOAD SWAP4 POP SWAP4 POP SWAP4 POP POP SWAP2 SWAP4 SWAP1 SWAP3 POP JUMP JUMPDEST PUSH0 PUSH1 0x5 PUSH0 DUP5 PUSH20 0xFFFFFFFFFFFFFFFFFFFFFFFFFFFFFFFFFFFFFFFF AND PUSH20 0xFFFFFFFFFFFFFFFFFFFFFFFFFFFFFFFFFFFFFFFF AND DUP2 MSTORE PUSH1 0x20 ADD SWAP1 DUP2 MSTORE PUSH1 0x20 ADD PUSH0 KECCAK256 PUSH0 DUP4 PUSH20 0xFFFFFFFFFFFFFFFFFFFFFFFFFFFFFFFFFFFFFFFF AND PUSH20 0xFFFFFFFFFFFFFFFFFFFFFFFFFFFFFFFFFFFFFFFF AND DUP2 MSTORE PUSH1 0x20 ADD SWAP1 DUP2 MSTORE PUSH1 0x20 ADD PUSH0 KECCAK256 PUSH0 SWAP1 SLOAD SWAP1 PUSH2 0x100 EXP SWAP1 DIV PUSH1 0xFF AND SWAP1 POP SWAP3 SWAP2 POP POP JUMP JUMPDEST PUSH2 0xC19 PUSH2 0xFE1 JUMP JUMPDEST PUSH0 PUSH20 0xFFFFFFFFFFFFFFFFFFFFFFFFFFFFFFFFFFFFFFFF AND DUP2 PUSH20 0xFFFFFFFFFFFFFFFFFFFFFFFFFFFFFFFFFFFFFFFF AND SUB PUSH2 0xC89 JUMPI PUSH0 PUSH1 0x40 MLOAD PUSH32 0x1E4FBDF700000000000000000000000000000000000000000000000000000000 DUP2 MSTORE PUSH1 0x4 ADD PUSH2 0xC80 SWAP2 SWAP1 PUSH2 0x1D2A JUMP JUMPDEST PUSH1 0x40 MLOAD DUP1 SWAP2 SUB SWAP1 REVERT JUMPDEST PUSH2 0xC92 DUP2 PUSH2 0x1068 JUMP JUMPDEST POP JUMP JUMPDEST PUSH0 PUSH32 0x1FFC9A700000000000000000000000000000000000000000000000000000000 PUSH28 0xFFFFFFFFFFFFFFFFFFFFFFFFFFFFFFFFFFFFFFFFFFFFFFFFFFFFFFFF NOT AND DUP3 PUSH28 0xFFFFFFFFFFFFFFFFFFFFFFFFFFFFFFFFFFFFFFFFFFFFFFFFFFFFFFFF NOT AND EQ SWAP1 POP SWAP2 SWAP1 POP JUMP JUMPDEST PUSH0 DUP1 PUSH2 0xD09 DUP4 PUSH2 0x153D JUMP JUMPDEST SWAP1 POP PUSH0 PUSH20 0xFFFFFFFFFFFFFFFFFFFFFFFFFFFFFFFFFFFFFFFF AND DUP2 PUSH20 0xFFFFFFFFFFFFFFFFFFFFFFFFFFFFFFFFFFFFFFFF AND SUB PUSH2 0xD7B JUMPI DUP3 PUSH1 0x40 MLOAD PUSH32 0x7E27328900000000000000000000000000000000000000000000000000000000 DUP2 MSTORE PUSH1 0x4 ADD PUSH2 0xD72 SWAP2 SWAP1 PUSH2 0x1E35 JUMP JUMPDEST PUSH1 0x40 MLOAD DUP1 SWAP2 SUB SWAP1 REVERT JUMPDEST DUP1 SWAP2 POP POP SWAP2 SWAP1 POP JUMP JUMPDEST PUSH0 PUSH1 0x4 PUSH0 DUP4 DUP2 MSTORE PUSH1 0x20 ADD SWAP1 DUP2 MSTORE PUSH1 0x20 ADD PUSH0 KECCAK256 PUSH0 SWAP1 SLOAD SWAP1 PUSH2 0x100 EXP SWAP1 DIV PUSH20 0xFFFFFFFFFFFFFFFFFFFFFFFFFFFFFFFFFFFFFFFF AND SWAP1 POP SWAP2 SWAP1 POP JUMP JUMPDEST PUSH0 CALLER SWAP1 POP SWAP1 JUMP JUMPDEST PUSH2 0xDD1 DUP4 DUP4 DUP4 PUSH1 0x1 PUSH2 0x1576 JUMP JUMPDEST POP POP POP JUMP JUMPDEST PUSH0 DUP1 PUSH2 0xDE1 DUP5 PUSH2 0x153D JUMP JUMPDEST SWAP1 POP PUSH0 PUSH20 0xFFFFFFFFFFFFFFFFFFFFFFFFFFFFFFFFFFFFFFFF AND DUP4 PUSH20 0xFFFFFFFFFFFFFFFFFFFFFFFFFFFFFFFFFFFFFFFF AND EQ PUSH2 0xE22 JUMPI PUSH2 0xE21 DUP2 DUP5 DUP7 PUSH2 0x1735 JUMP JUMPDEST JUMPDEST PUSH0 PUSH20 0xFFFFFFFFFFFFFFFFFFFFFFFFFFFFFFFFFFFFFFFF AND DUP2 PUSH20 0xFFFFFFFFFFFFFFFFFFFFFFFFFFFFFFFFFFFFFFFF AND EQ PUSH2 0xEAD JUMPI PUSH2 0xE61 PUSH0 DUP6 PUSH0 DUP1 PUSH2 0x1576 JUMP JUMPDEST PUSH1 0x1 PUSH1 0x3 PUSH0 DUP4 PUSH20 0xFFFFFFFFFFFFFFFFFFFFFFFFFFFFFFFFFFFFFFFF AND PUSH20 0xFFFFFFFFFFFFFFFFFFFFFFFFFFFFFFFFFFFFFFFF AND DUP2 MSTORE PUSH1 0x20 ADD SWAP1 DUP2 MSTORE PUSH1 0x20 ADD PUSH0 KECCAK256 PUSH0 DUP3 DUP3 SLOAD SUB SWAP3 POP POP DUP2 SWAP1 SSTORE POP JUMPDEST PUSH0 PUSH20 0xFFFFFFFFFFFFFFFFFFFFFFFFFFFFFFFFFFFFFFFF AND DUP6 PUSH20 0xFFFFFFFFFFFFFFFFFFFFFFFFFFFFFFFFFFFFFFFF AND EQ PUSH2 0xF2C JUMPI PUSH1 0x1 PUSH1 0x3 PUSH0 DUP8 PUSH20 0xFFFFFFFFFFFFFFFFFFFFFFFFFFFFFFFFFFFFFFFF AND PUSH20 0xFFFFFFFFFFFFFFFFFFFFFFFFFFFFFFFFFFFFFFFF AND DUP2 MSTORE PUSH1 0x20 ADD SWAP1 DUP2 MSTORE PUSH1 0x20 ADD PUSH0 KECCAK256 PUSH0 DUP3 DUP3 SLOAD ADD SWAP3 POP POP DUP2 SWAP1 SSTORE POP JUMPDEST DUP5 PUSH1 0x2 PUSH0 DUP7 DUP2 MSTORE PUSH1 0x20 ADD SWAP1 DUP2 MSTORE PUSH1 0x20 ADD PUSH0 KECCAK256 PUSH0 PUSH2 0x100 EXP DUP2 SLOAD DUP2 PUSH20 0xFFFFFFFFFFFFFFFFFFFFFFFFFFFFFFFFFFFFFFFF MUL NOT AND SWAP1 DUP4 PUSH20 0xFFFFFFFFFFFFFFFFFFFFFFFFFFFFFFFFFFFFFFFF AND MUL OR SWAP1 SSTORE POP DUP4 DUP6 PUSH20 0xFFFFFFFFFFFFFFFFFFFFFFFFFFFFFFFFFFFFFFFF AND DUP3 PUSH20 0xFFFFFFFFFFFFFFFFFFFFFFFFFFFFFFFFFFFFFFFF AND PUSH32 0xDDF252AD1BE2C89B69C2B068FC378DAA952BA7F163C4A11628F55A4DF523B3EF PUSH1 0x40 MLOAD PUSH1 0x40 MLOAD DUP1 SWAP2 SUB SWAP1 LOG4 DUP1 SWAP2 POP POP SWAP4 SWAP3 POP POP POP JUMP JUMPDEST PUSH2 0xFE9 PUSH2 0xDBD JUMP JUMPDEST PUSH20 0xFFFFFFFFFFFFFFFFFFFFFFFFFFFFFFFFFFFFFFFF AND PUSH2 0x1007 PUSH2 0x72B JUMP JUMPDEST PUSH20 0xFFFFFFFFFFFFFFFFFFFFFFFFFFFFFFFFFFFFFFFF AND EQ PUSH2 0x1066 JUMPI PUSH2 0x102A PUSH2 0xDBD JUMP JUMPDEST PUSH1 0x40 MLOAD PUSH32 0x118CDAA700000000000000000000000000000000000000000000000000000000 DUP2 MSTORE PUSH1 0x4 ADD PUSH2 0x105D SWAP2 SWAP1 PUSH2 0x1D2A JUMP JUMPDEST PUSH1 0x40 MLOAD DUP1 SWAP2 SUB SWAP1 REVERT JUMPDEST JUMP JUMPDEST PUSH0 PUSH1 0x6 PUSH0 SWAP1 SLOAD SWAP1 PUSH2 0x100 EXP SWAP1 DIV PUSH20 0xFFFFFFFFFFFFFFFFFFFFFFFFFFFFFFFFFFFFFFFF AND SWAP1 POP DUP2 PUSH1 0x6 PUSH0 PUSH2 0x100 EXP DUP2 SLOAD DUP2 PUSH20 0xFFFFFFFFFFFFFFFFFFFFFFFFFFFFFFFFFFFFFFFF MUL NOT AND SWAP1 DUP4 PUSH20 0xFFFFFFFFFFFFFFFFFFFFFFFFFFFFFFFFFFFFFFFF AND MUL OR SWAP1 SSTORE POP DUP2 PUSH20 0xFFFFFFFFFFFFFFFFFFFFFFFFFFFFFFFFFFFFFFFF AND DUP2 PUSH20 0xFFFFFFFFFFFFFFFFFFFFFFFFFFFFFFFFFFFFFFFF AND PUSH32 0x8BE0079C531659141344CD1FD0A4F28419497F9722A3DAAFE3B4186F6B6457E0 PUSH1 0x40 MLOAD PUSH1 0x40 MLOAD DUP1 SWAP2 SUB SWAP1 LOG3 POP POP JUMP JUMPDEST PUSH0 PUSH20 0xFFFFFFFFFFFFFFFFFFFFFFFFFFFFFFFFFFFFFFFF AND DUP3 PUSH20 0xFFFFFFFFFFFFFFFFFFFFFFFFFFFFFFFFFFFFFFFF AND SUB PUSH2 0x119B JUMPI DUP2 PUSH1 0x40 MLOAD PUSH32 0x5B08BA1800000000000000000000000000000000000000000000000000000000 DUP2 MSTORE PUSH1 0x4 ADD PUSH2 0x1192 SWAP2 SWAP1 PUSH2 0x1D2A JUMP JUMPDEST PUSH1 0x40 MLOAD DUP1 SWAP2 SUB SWAP1 REVERT JUMPDEST DUP1 PUSH1 0x5 PUSH0 DUP6 PUSH20 0xFFFFFFFFFFFFFFFFFFFFFFFFFFFFFFFFFFFFFFFF AND PUSH20 0xFFFFFFFFFFFFFFFFFFFFFFFFFFFFFFFFFFFFFFFF AND DUP2 MSTORE PUSH1 0x20 ADD SWAP1 DUP2 MSTORE PUSH1 0x20 ADD PUSH0 KECCAK256 PUSH0 DUP5 PUSH20 0xFFFFFFFFFFFFFFFFFFFFFFFFFFFFFFFFFFFFFFFF AND PUSH20 0xFFFFFFFFFFFFFFFFFFFFFFFFFFFFFFFFFFFFFFFF AND DUP2 MSTORE PUSH1 0x20 ADD SWAP1 DUP2 MSTORE PUSH1 0x20 ADD PUSH0 KECCAK256 PUSH0 PUSH2 0x100 EXP DUP2 SLOAD DUP2 PUSH1 0xFF MUL NOT AND SWAP1 DUP4 ISZERO ISZERO MUL OR SWAP1 SSTORE POP DUP2 PUSH20 0xFFFFFFFFFFFFFFFFFFFFFFFFFFFFFFFFFFFFFFFF AND DUP4 PUSH20 0xFFFFFFFFFFFFFFFFFFFFFFFFFFFFFFFFFFFFFFFF AND PUSH32 0x17307EAB39AB6107E8899845AD3D59BD9653F200F220920489CA2B5937696C31 DUP4 PUSH1 0x40 MLOAD PUSH2 0x1287 SWAP2 SWAP1 PUSH2 0x1BCA JUMP JUMPDEST PUSH1 0x40 MLOAD DUP1 SWAP2 SUB SWAP1 LOG3 POP POP POP JUMP JUMPDEST PUSH2 0x12AD DUP3 DUP3 PUSH1 0x40 MLOAD DUP1 PUSH1 0x20 ADD PUSH1 0x40 MSTORE DUP1 PUSH0 DUP2 MSTORE POP PUSH2 0x17F8 JUMP JUMPDEST POP POP JUMP JUMPDEST PUSH0 DUP4 PUSH20 0xFFFFFFFFFFFFFFFFFFFFFFFFFFFFFFFFFFFFFFFF AND EXTCODESIZE GT ISZERO PUSH2 0x1456 JUMPI DUP3 PUSH20 0xFFFFFFFFFFFFFFFFFFFFFFFFFFFFFFFFFFFFFFFF AND PUSH4 0x150B7A02 DUP7 DUP7 DUP6 DUP6 PUSH1 0x40 MLOAD DUP6 PUSH4 0xFFFFFFFF AND PUSH1 0xE0 SHL DUP2 MSTORE PUSH1 0x4 ADD PUSH2 0x130F SWAP5 SWAP4 SWAP3 SWAP2 SWAP1 PUSH2 0x26FA JUMP JUMPDEST PUSH1 0x20 PUSH1 0x40 MLOAD DUP1 DUP4 SUB DUP2 PUSH0 DUP8 GAS CALL SWAP3 POP POP POP DUP1 ISZERO PUSH2 0x134A JUMPI POP PUSH1 0x40 MLOAD RETURNDATASIZE PUSH1 0x1F NOT PUSH1 0x1F DUP3 ADD AND DUP3 ADD DUP1 PUSH1 0x40 MSTORE POP DUP2 ADD SWAP1 PUSH2 0x1347 SWAP2 SWAP1 PUSH2 0x2758 JUMP JUMPDEST PUSH1 0x1 JUMPDEST PUSH2 0x13CB JUMPI RETURNDATASIZE DUP1 PUSH0 DUP2 EQ PUSH2 0x1378 JUMPI PUSH1 0x40 MLOAD SWAP2 POP PUSH1 0x1F NOT PUSH1 0x3F RETURNDATASIZE ADD AND DUP3 ADD PUSH1 0x40 MSTORE RETURNDATASIZE DUP3 MSTORE RETURNDATASIZE PUSH0 PUSH1 0x20 DUP5 ADD RETURNDATACOPY PUSH2 0x137D JUMP JUMPDEST PUSH1 0x60 SWAP2 POP JUMPDEST POP PUSH0 DUP2 MLOAD SUB PUSH2 0x13C3 JUMPI DUP4 PUSH1 0x40 MLOAD PUSH32 0x64A0AE9200000000000000000000000000000000000000000000000000000000 DUP2 MSTORE PUSH1 0x4 ADD PUSH2 0x13BA SWAP2 SWAP1 PUSH2 0x1D2A JUMP JUMPDEST PUSH1 0x40 MLOAD DUP1 SWAP2 SUB SWAP1 REVERT JUMPDEST DUP1 MLOAD DUP2 PUSH1 0x20 ADD REVERT JUMPDEST PUSH4 0x150B7A02 PUSH1 0xE0 SHL PUSH28 0xFFFFFFFFFFFFFFFFFFFFFFFFFFFFFFFFFFFFFFFFFFFFFFFFFFFFFFFF NOT AND DUP2 PUSH28 0xFFFFFFFFFFFFFFFFFFFFFFFFFFFFFFFFFFFFFFFFFFFFFFFFFFFFFFFF NOT AND EQ PUSH2 0x1454 JUMPI DUP4 PUSH1 0x40 MLOAD PUSH32 0x64A0AE9200000000000000000000000000000000000000000000000000000000 DUP2 MSTORE PUSH1 0x4 ADD PUSH2 0x144B SWAP2 SWAP1 PUSH2 0x1D2A JUMP JUMPDEST PUSH1 0x40 MLOAD DUP1 SWAP2 SUB SWAP1 REVERT JUMPDEST POP JUMPDEST POP POP POP POP POP JUMP JUMPDEST PUSH1 0x60 PUSH1 0x40 MLOAD DUP1 PUSH1 0x20 ADD PUSH1 0x40 MSTORE DUP1 PUSH0 DUP2 MSTORE POP SWAP1 POP SWAP1 JUMP JUMPDEST PUSH1 0x60 PUSH0 PUSH1 0x1 PUSH2 0x1481 DUP5 PUSH2 0x181B JUMP JUMPDEST ADD SWAP1 POP PUSH0 DUP2 PUSH8 0xFFFFFFFFFFFFFFFF DUP2 GT ISZERO PUSH2 0x149F JUMPI PUSH2 0x149E PUSH2 0x1EBE JUMP JUMPDEST JUMPDEST PUSH1 0x40 MLOAD SWAP1 DUP1 DUP3 MSTORE DUP1 PUSH1 0x1F ADD PUSH1 0x1F NOT AND PUSH1 0x20 ADD DUP3 ADD PUSH1 0x40 MSTORE DUP1 ISZERO PUSH2 0x14D1 JUMPI DUP2 PUSH1 0x20 ADD PUSH1 0x1 DUP3 MUL DUP1 CALLDATASIZE DUP4 CALLDATACOPY DUP1 DUP3 ADD SWAP2 POP POP SWAP1 POP JUMPDEST POP SWAP1 POP PUSH0 DUP3 PUSH1 0x20 ADD DUP3 ADD SWAP1 POP JUMPDEST PUSH1 0x1 ISZERO PUSH2 0x1532 JUMPI DUP1 DUP1 PUSH1 0x1 SWAP1 SUB SWAP2 POP POP PUSH32 0x3031323334353637383961626364656600000000000000000000000000000000 PUSH1 0xA DUP7 MOD BYTE DUP2 MSTORE8 PUSH1 0xA DUP6 DUP2 PUSH2 0x1527 JUMPI PUSH2 0x1526 PUSH2 0x2783 JUMP JUMPDEST JUMPDEST DIV SWAP5 POP PUSH0 DUP6 SUB PUSH2 0x14DE JUMPI JUMPDEST DUP2 SWAP4 POP POP POP POP SWAP2 SWAP1 POP JUMP JUMPDEST PUSH0 PUSH1 0x2 PUSH0 DUP4 DUP2 MSTORE PUSH1 0x20 ADD SWAP1 DUP2 MSTORE PUSH1 0x20 ADD PUSH0 KECCAK256 PUSH0 SWAP1 SLOAD SWAP1 PUSH2 0x100 EXP SWAP1 DIV PUSH20 0xFFFFFFFFFFFFFFFFFFFFFFFFFFFFFFFFFFFFFFFF AND SWAP1 POP SWAP2 SWAP1 POP JUMP JUMPDEST DUP1 DUP1 PUSH2 0x15AE JUMPI POP PUSH0 PUSH20 0xFFFFFFFFFFFFFFFFFFFFFFFFFFFFFFFFFFFFFFFF AND DUP3 PUSH20 0xFFFFFFFFFFFFFFFFFFFFFFFFFFFFFFFFFFFFFFFF AND EQ ISZERO JUMPDEST ISZERO PUSH2 0x16E0 JUMPI PUSH0 PUSH2 0x15BD DUP5 PUSH2 0xCFE JUMP JUMPDEST SWAP1 POP PUSH0 PUSH20 0xFFFFFFFFFFFFFFFFFFFFFFFFFFFFFFFFFFFFFFFF AND DUP4 PUSH20 0xFFFFFFFFFFFFFFFFFFFFFFFFFFFFFFFFFFFFFFFF AND EQ ISZERO DUP1 ISZERO PUSH2 0x1627 JUMPI POP DUP3 PUSH20 0xFFFFFFFFFFFFFFFFFFFFFFFFFFFFFFFFFFFFFFFF AND DUP2 PUSH20 0xFFFFFFFFFFFFFFFFFFFFFFFFFFFFFFFFFFFFFFFF AND EQ ISZERO JUMPDEST DUP1 ISZERO PUSH2 0x163A JUMPI POP PUSH2 0x1638 DUP2 DUP5 PUSH2 0xB83 JUMP JUMPDEST ISZERO JUMPDEST ISZERO PUSH2 0x167C JUMPI DUP3 PUSH1 0x40 MLOAD PUSH32 0xA9FBF51F00000000000000000000000000000000000000000000000000000000 DUP2 MSTORE PUSH1 0x4 ADD PUSH2 0x1673 SWAP2 SWAP1 PUSH2 0x1D2A JUMP JUMPDEST PUSH1 0x40 MLOAD DUP1 SWAP2 SUB SWAP1 REVERT JUMPDEST DUP2 ISZERO PUSH2 0x16DE JUMPI DUP4 DUP6 PUSH20 0xFFFFFFFFFFFFFFFFFFFFFFFFFFFFFFFFFFFFFFFF AND DUP3 PUSH20 0xFFFFFFFFFFFFFFFFFFFFFFFFFFFFFFFFFFFFFFFF AND PUSH32 0x8C5BE1E5EBEC7D5BD14F71427D1E84F3DD0314C0F7B2291E5B200AC8C7C3B925 PUSH1 0x40 MLOAD PUSH1 0x40 MLOAD DUP1 SWAP2 SUB SWAP1 LOG4 JUMPDEST POP JUMPDEST DUP4 PUSH1 0x4 PUSH0 DUP6 DUP2 MSTORE PUSH1 0x20 ADD SWAP1 DUP2 MSTORE PUSH1 0x20 ADD PUSH0 KECCAK256 PUSH0 PUSH2 0x100 EXP DUP2 SLOAD DUP2 PUSH20 0xFFFFFFFFFFFFFFFFFFFFFFFFFFFFFFFFFFFFFFFF MUL NOT AND SWAP1 DUP4 PUSH20 0xFFFFFFFFFFFFFFFFFFFFFFFFFFFFFFFFFFFFFFFF AND MUL OR SWAP1 SSTORE POP POP POP POP POP JUMP JUMPDEST PUSH2 0x1740 DUP4 DUP4 DUP4 PUSH2 0x196C JUMP JUMPDEST PUSH2 0x17F3 JUMPI PUSH0 PUSH20 0xFFFFFFFFFFFFFFFFFFFFFFFFFFFFFFFFFFFFFFFF AND DUP4 PUSH20 0xFFFFFFFFFFFFFFFFFFFFFFFFFFFFFFFFFFFFFFFF AND SUB PUSH2 0x17B4 JUMPI DUP1 PUSH1 0x40 MLOAD PUSH32 0x7E27328900000000000000000000000000000000000000000000000000000000 DUP2 MSTORE PUSH1 0x4 ADD PUSH2 0x17AB SWAP2 SWAP1 PUSH2 0x1E35 JUMP JUMPDEST PUSH1 0x40 MLOAD DUP1 SWAP2 SUB SWAP1 REVERT JUMPDEST DUP2 DUP2 PUSH1 0x40 MLOAD PUSH32 0x177E802F00000000000000000000000000000000000000000000000000000000 DUP2 MSTORE PUSH1 0x4 ADD PUSH2 0x17EA SWAP3 SWAP2 SWAP1 PUSH2 0x27B0 JUMP JUMPDEST PUSH1 0x40 MLOAD DUP1 SWAP2 SUB SWAP1 REVERT JUMPDEST POP POP POP JUMP JUMPDEST PUSH2 0x1802 DUP4 DUP4 PUSH2 0x1A2C JUMP JUMPDEST PUSH2 0x1816 PUSH2 0x180D PUSH2 0xDBD JUMP JUMPDEST PUSH0 DUP6 DUP6 DUP6 PUSH2 0x12B1 JUMP JUMPDEST POP POP POP JUMP JUMPDEST PUSH0 DUP1 PUSH0 SWAP1 POP PUSH27 0x184F03E93FF9F4DAA797ED6E38ED64BF6A1F010000000000000000 DUP4 LT PUSH2 0x1877 JUMPI PUSH27 0x184F03E93FF9F4DAA797ED6E38ED64BF6A1F010000000000000000 DUP4 DUP2 PUSH2 0x186D JUMPI PUSH2 0x186C PUSH2 0x2783 JUMP JUMPDEST JUMPDEST DIV SWAP3 POP PUSH1 0x40 DUP2 ADD SWAP1 POP JUMPDEST PUSH14 0x4EE2D6D415B85ACEF8100000000 DUP4 LT PUSH2 0x18B4 JUMPI PUSH14 0x4EE2D6D415B85ACEF8100000000 DUP4 DUP2 PUSH2 0x18AA JUMPI PUSH2 0x18A9 PUSH2 0x2783 JUMP JUMPDEST JUMPDEST DIV SWAP3 POP PUSH1 0x20 DUP2 ADD SWAP1 POP JUMPDEST PUSH7 0x2386F26FC10000 DUP4 LT PUSH2 0x18E3 JUMPI PUSH7 0x2386F26FC10000 DUP4 DUP2 PUSH2 0x18D9 JUMPI PUSH2 0x18D8 PUSH2 0x2783 JUMP JUMPDEST JUMPDEST DIV SWAP3 POP PUSH1 0x10 DUP2 ADD SWAP1 POP JUMPDEST PUSH4 0x5F5E100 DUP4 LT PUSH2 0x190C JUMPI PUSH4 0x5F5E100 DUP4 DUP2 PUSH2 0x1902 JUMPI PUSH2 0x1901 PUSH2 0x2783 JUMP JUMPDEST JUMPDEST DIV SWAP3 POP PUSH1 0x8 DUP2 ADD SWAP1 POP JUMPDEST PUSH2 0x2710 DUP4 LT PUSH2 0x1931 JUMPI PUSH2 0x2710 DUP4 DUP2 PUSH2 0x1927 JUMPI PUSH2 0x1926 PUSH2 0x2783 JUMP JUMPDEST JUMPDEST DIV SWAP3 POP PUSH1 0x4 DUP2 ADD SWAP1 POP JUMPDEST PUSH1 0x64 DUP4 LT PUSH2 0x1954 JUMPI PUSH1 0x64 DUP4 DUP2 PUSH2 0x194A JUMPI PUSH2 0x1949 PUSH2 0x2783 JUMP JUMPDEST JUMPDEST DIV SWAP3 POP PUSH1 0x2 DUP2 ADD SWAP1 POP JUMPDEST PUSH1 0xA DUP4 LT PUSH2 0x1963 JUMPI PUSH1 0x1 DUP2 ADD SWAP1 POP JUMPDEST DUP1 SWAP2 POP POP SWAP2 SWAP1 POP JUMP JUMPDEST PUSH0 DUP1 PUSH20 0xFFFFFFFFFFFFFFFFFFFFFFFFFFFFFFFFFFFFFFFF AND DUP4 PUSH20 0xFFFFFFFFFFFFFFFFFFFFFFFFFFFFFFFFFFFFFFFF AND EQ ISZERO DUP1 ISZERO PUSH2 0x1A23 JUMPI POP DUP3 PUSH20 0xFFFFFFFFFFFFFFFFFFFFFFFFFFFFFFFFFFFFFFFF AND DUP5 PUSH20 0xFFFFFFFFFFFFFFFFFFFFFFFFFFFFFFFFFFFFFFFF AND EQ DUP1 PUSH2 0x19E4 JUMPI POP PUSH2 0x19E3 DUP5 DUP5 PUSH2 0xB83 JUMP JUMPDEST JUMPDEST DUP1 PUSH2 0x1A22 JUMPI POP DUP3 PUSH20 0xFFFFFFFFFFFFFFFFFFFFFFFFFFFFFFFFFFFFFFFF AND PUSH2 0x1A0A DUP4 PUSH2 0xD84 JUMP JUMPDEST PUSH20 0xFFFFFFFFFFFFFFFFFFFFFFFFFFFFFFFFFFFFFFFF AND EQ JUMPDEST JUMPDEST SWAP1 POP SWAP4 SWAP3 POP POP POP JUMP JUMPDEST PUSH0 PUSH20 0xFFFFFFFFFFFFFFFFFFFFFFFFFFFFFFFFFFFFFFFF AND DUP3 PUSH20 0xFFFFFFFFFFFFFFFFFFFFFFFFFFFFFFFFFFFFFFFF AND SUB PUSH2 0x1A9C JUMPI PUSH0 PUSH1 0x40 MLOAD PUSH32 0x64A0AE9200000000000000000000000000000000000000000000000000000000 DUP2 MSTORE PUSH1 0x4 ADD PUSH2 0x1A93 SWAP2 SWAP1 PUSH2 0x1D2A JUMP JUMPDEST PUSH1 0x40 MLOAD DUP1 SWAP2 SUB SWAP1 REVERT JUMPDEST PUSH0 PUSH2 0x1AA8 DUP4 DUP4 PUSH0 PUSH2 0xDD6 JUMP JUMPDEST SWAP1 POP PUSH0 PUSH20 0xFFFFFFFFFFFFFFFFFFFFFFFFFFFFFFFFFFFFFFFF AND DUP2 PUSH20 0xFFFFFFFFFFFFFFFFFFFFFFFFFFFFFFFFFFFFFFFF AND EQ PUSH2 0x1B1A JUMPI PUSH0 PUSH1 0x40 MLOAD PUSH32 0x73C6AC6E00000000000000000000000000000000000000000000000000000000 DUP2 MSTORE PUSH1 0x4 ADD PUSH2 0x1B11 SWAP2 SWAP1 PUSH2 0x1D2A JUMP JUMPDEST PUSH1 0x40 MLOAD DUP1 SWAP2 SUB SWAP1 REVERT JUMPDEST POP POP POP JUMP JUMPDEST PUSH0 PUSH1 0x40 MLOAD SWAP1 POP SWAP1 JUMP JUMPDEST PUSH0 DUP1 REVERT JUMPDEST PUSH0 DUP1 REVERT JUMPDEST PUSH0 PUSH32 0xFFFFFFFF00000000000000000000000000000000000000000000000000000000 DUP3 AND SWAP1 POP SWAP2 SWAP1 POP JUMP JUMPDEST PUSH2 0x1B64 DUP2 PUSH2 0x1B30 JUMP JUMPDEST DUP2 EQ PUSH2 0x1B6E JUMPI PUSH0 DUP1 REVERT JUMPDEST POP JUMP JUMPDEST PUSH0 DUP2 CALLDATALOAD SWAP1 POP PUSH2 0x1B7F DUP2 PUSH2 0x1B5B JUMP JUMPDEST SWAP3 SWAP2 POP POP JUMP JUMPDEST PUSH0 PUSH1 0x20 DUP3 DUP5 SUB SLT ISZERO PUSH2 0x1B9A JUMPI PUSH2 0x1B99 PUSH2 0x1B28 JUMP JUMPDEST JUMPDEST PUSH0 PUSH2 0x1BA7 DUP5 DUP3 DUP6 ADD PUSH2 0x1B71 JUMP JUMPDEST SWAP2 POP POP SWAP3 SWAP2 POP POP JUMP JUMPDEST PUSH0 DUP2 ISZERO ISZERO SWAP1 POP SWAP2 SWAP1 POP JUMP JUMPDEST PUSH2 0x1BC4 DUP2 PUSH2 0x1BB0 JUMP JUMPDEST DUP3 MSTORE POP POP JUMP JUMPDEST PUSH0 PUSH1 0x20 DUP3 ADD SWAP1 POP PUSH2 0x1BDD PUSH0 DUP4 ADD DUP5 PUSH2 0x1BBB JUMP JUMPDEST SWAP3 SWAP2 POP POP JUMP JUMPDEST PUSH0 DUP2 MLOAD SWAP1 POP SWAP2 SWAP1 POP JUMP JUMPDEST PUSH0 DUP3 DUP3 MSTORE PUSH1 0x20 DUP3 ADD SWAP1 POP SWAP3 SWAP2 POP POP JUMP JUMPDEST PUSH0 JUMPDEST DUP4 DUP2 LT ISZERO PUSH2 0x1C1A JUMPI DUP1 DUP3 ADD MLOAD DUP2 DUP5 ADD MSTORE PUSH1 0x20 DUP2 ADD SWAP1 POP PUSH2 0x1BFF JUMP JUMPDEST PUSH0 DUP5 DUP5 ADD MSTORE POP POP POP POP JUMP JUMPDEST PUSH0 PUSH1 0x1F NOT PUSH1 0x1F DUP4 ADD AND SWAP1 POP SWAP2 SWAP1 POP JUMP JUMPDEST PUSH0 PUSH2 0x1C3F DUP3 PUSH2 0x1BE3 JUMP JUMPDEST PUSH2 0x1C49 DUP2 DUP6 PUSH2 0x1BED JUMP JUMPDEST SWAP4 POP PUSH2 0x1C59 DUP2 DUP6 PUSH1 0x20 DUP7 ADD PUSH2 0x1BFD JUMP JUMPDEST PUSH2 0x1C62 DUP2 PUSH2 0x1C25 JUMP JUMPDEST DUP5 ADD SWAP2 POP POP SWAP3 SWAP2 POP POP JUMP JUMPDEST PUSH0 PUSH1 0x20 DUP3 ADD SWAP1 POP DUP2 DUP2 SUB PUSH0 DUP4 ADD MSTORE PUSH2 0x1C85 DUP2 DUP5 PUSH2 0x1C35 JUMP JUMPDEST SWAP1 POP SWAP3 SWAP2 POP POP JUMP JUMPDEST PUSH0 DUP2 SWAP1 POP SWAP2 SWAP1 POP JUMP JUMPDEST PUSH2 0x1C9F DUP2 PUSH2 0x1C8D JUMP JUMPDEST DUP2 EQ PUSH2 0x1CA9 JUMPI PUSH0 DUP1 REVERT JUMPDEST POP JUMP JUMPDEST PUSH0 DUP2 CALLDATALOAD SWAP1 POP PUSH2 0x1CBA DUP2 PUSH2 0x1C96 JUMP JUMPDEST SWAP3 SWAP2 POP POP JUMP JUMPDEST PUSH0 PUSH1 0x20 DUP3 DUP5 SUB SLT ISZERO PUSH2 0x1CD5 JUMPI PUSH2 0x1CD4 PUSH2 0x1B28 JUMP JUMPDEST JUMPDEST PUSH0 PUSH2 0x1CE2 DUP5 DUP3 DUP6 ADD PUSH2 0x1CAC JUMP JUMPDEST SWAP2 POP POP SWAP3 SWAP2 POP POP JUMP JUMPDEST PUSH0 PUSH20 0xFFFFFFFFFFFFFFFFFFFFFFFFFFFFFFFFFFFFFFFF DUP3 AND SWAP1 POP SWAP2 SWAP1 POP JUMP JUMPDEST PUSH0 PUSH2 0x1D14 DUP3 PUSH2 0x1CEB JUMP JUMPDEST SWAP1 POP SWAP2 SWAP1 POP JUMP JUMPDEST PUSH2 0x1D24 DUP2 PUSH2 0x1D0A JUMP JUMPDEST DUP3 MSTORE POP POP JUMP JUMPDEST PUSH0 PUSH1 0x20 DUP3 ADD SWAP1 POP PUSH2 0x1D3D PUSH0 DUP4 ADD DUP5 PUSH2 0x1D1B JUMP JUMPDEST SWAP3 SWAP2 POP POP JUMP JUMPDEST PUSH2 0x1D4C DUP2 PUSH2 0x1D0A JUMP JUMPDEST DUP2 EQ PUSH2 0x1D56 JUMPI PUSH0 DUP1 REVERT JUMPDEST POP JUMP JUMPDEST PUSH0 DUP2 CALLDATALOAD SWAP1 POP PUSH2 0x1D67 DUP2 PUSH2 0x1D43 JUMP JUMPDEST SWAP3 SWAP2 POP POP JUMP JUMPDEST PUSH0 DUP1 PUSH1 0x40 DUP4 DUP6 SUB SLT ISZERO PUSH2 0x1D83 JUMPI PUSH2 0x1D82 PUSH2 0x1B28 JUMP JUMPDEST JUMPDEST PUSH0 PUSH2 0x1D90 DUP6 DUP3 DUP7 ADD PUSH2 0x1D59 JUMP JUMPDEST SWAP3 POP POP PUSH1 0x20 PUSH2 0x1DA1 DUP6 DUP3 DUP7 ADD PUSH2 0x1CAC JUMP JUMPDEST SWAP2 POP POP SWAP3 POP SWAP3 SWAP1 POP JUMP JUMPDEST PUSH0 DUP1 PUSH0 PUSH1 0x60 DUP5 DUP7 SUB SLT ISZERO PUSH2 0x1DC2 JUMPI PUSH2 0x1DC1 PUSH2 0x1B28 JUMP JUMPDEST JUMPDEST PUSH0 PUSH2 0x1DCF DUP7 DUP3 DUP8 ADD PUSH2 0x1D59 JUMP JUMPDEST SWAP4 POP POP PUSH1 0x20 PUSH2 0x1DE0 DUP7 DUP3 DUP8 ADD PUSH2 0x1D59 JUMP JUMPDEST SWAP3 POP POP PUSH1 0x40 PUSH2 0x1DF1 DUP7 DUP3 DUP8 ADD PUSH2 0x1CAC JUMP JUMPDEST SWAP2 POP POP SWAP3 POP SWAP3 POP SWAP3 JUMP JUMPDEST PUSH0 PUSH1 0x20 DUP3 DUP5 SUB SLT ISZERO PUSH2 0x1E10 JUMPI PUSH2 0x1E0F PUSH2 0x1B28 JUMP JUMPDEST JUMPDEST PUSH0 PUSH2 0x1E1D DUP5 DUP3 DUP6 ADD PUSH2 0x1D59 JUMP JUMPDEST SWAP2 POP POP SWAP3 SWAP2 POP POP JUMP JUMPDEST PUSH2 0x1E2F DUP2 PUSH2 0x1C8D JUMP JUMPDEST DUP3 MSTORE POP POP JUMP JUMPDEST PUSH0 PUSH1 0x20 DUP3 ADD SWAP1 POP PUSH2 0x1E48 PUSH0 DUP4 ADD DUP5 PUSH2 0x1E26 JUMP JUMPDEST SWAP3 SWAP2 POP POP JUMP JUMPDEST PUSH2 0x1E57 DUP2 PUSH2 0x1BB0 JUMP JUMPDEST DUP2 EQ PUSH2 0x1E61 JUMPI PUSH0 DUP1 REVERT JUMPDEST POP JUMP JUMPDEST PUSH0 DUP2 CALLDATALOAD SWAP1 POP PUSH2 0x1E72 DUP2 PUSH2 0x1E4E JUMP JUMPDEST SWAP3 SWAP2 POP POP JUMP JUMPDEST PUSH0 DUP1 PUSH1 0x40 DUP4 DUP6 SUB SLT ISZERO PUSH2 0x1E8E JUMPI PUSH2 0x1E8D PUSH2 0x1B28 JUMP JUMPDEST JUMPDEST PUSH0 PUSH2 0x1E9B DUP6 DUP3 DUP7 ADD PUSH2 0x1D59 JUMP JUMPDEST SWAP3 POP POP PUSH1 0x20 PUSH2 0x1EAC DUP6 DUP3 DUP7 ADD PUSH2 0x1E64 JUMP JUMPDEST SWAP2 POP POP SWAP3 POP SWAP3 SWAP1 POP JUMP JUMPDEST PUSH0 DUP1 REVERT JUMPDEST PUSH0 DUP1 REVERT JUMPDEST PUSH32 0x4E487B7100000000000000000000000000000000000000000000000000000000 PUSH0 MSTORE PUSH1 0x41 PUSH1 0x4 MSTORE PUSH1 0x24 PUSH0 REVERT JUMPDEST PUSH2 0x1EF4 DUP3 PUSH2 0x1C25 JUMP JUMPDEST DUP2 ADD DUP2 DUP2 LT PUSH8 0xFFFFFFFFFFFFFFFF DUP3 GT OR ISZERO PUSH2 0x1F13 JUMPI PUSH2 0x1F12 PUSH2 0x1EBE JUMP JUMPDEST JUMPDEST DUP1 PUSH1 0x40 MSTORE POP POP POP JUMP JUMPDEST PUSH0 PUSH2 0x1F25 PUSH2 0x1B1F JUMP JUMPDEST SWAP1 POP PUSH2 0x1F31 DUP3 DUP3 PUSH2 0x1EEB JUMP JUMPDEST SWAP2 SWAP1 POP JUMP JUMPDEST PUSH0 PUSH8 0xFFFFFFFFFFFFFFFF DUP3 GT ISZERO PUSH2 0x1F50 JUMPI PUSH2 0x1F4F PUSH2 0x1EBE JUMP JUMPDEST JUMPDEST PUSH2 0x1F59 DUP3 PUSH2 0x1C25 JUMP JUMPDEST SWAP1 POP PUSH1 0x20 DUP2 ADD SWAP1 POP SWAP2 SWAP1 POP JUMP JUMPDEST DUP3 DUP2 DUP4 CALLDATACOPY PUSH0 DUP4 DUP4 ADD MSTORE POP POP POP JUMP JUMPDEST PUSH0 PUSH2 0x1F86 PUSH2 0x1F81 DUP5 PUSH2 0x1F36 JUMP JUMPDEST PUSH2 0x1F1C JUMP JUMPDEST SWAP1 POP DUP3 DUP2 MSTORE PUSH1 0x20 DUP2 ADD DUP5 DUP5 DUP5 ADD GT ISZERO PUSH2 0x1FA2 JUMPI PUSH2 0x1FA1 PUSH2 0x1EBA JUMP JUMPDEST JUMPDEST PUSH2 0x1FAD DUP5 DUP3 DUP6 PUSH2 0x1F66 JUMP JUMPDEST POP SWAP4 SWAP3 POP POP POP JUMP JUMPDEST PUSH0 DUP3 PUSH1 0x1F DUP4 ADD SLT PUSH2 0x1FC9 JUMPI PUSH2 0x1FC8 PUSH2 0x1EB6 JUMP JUMPDEST JUMPDEST DUP2 CALLDATALOAD PUSH2 0x1FD9 DUP5 DUP3 PUSH1 0x20 DUP7 ADD PUSH2 0x1F74 JUMP JUMPDEST SWAP2 POP POP SWAP3 SWAP2 POP POP JUMP JUMPDEST PUSH0 DUP1 PUSH0 PUSH1 0x60 DUP5 DUP7 SUB SLT ISZERO PUSH2 0x1FF9 JUMPI PUSH2 0x1FF8 PUSH2 0x1B28 JUMP JUMPDEST JUMPDEST PUSH0 DUP5 ADD CALLDATALOAD PUSH8 0xFFFFFFFFFFFFFFFF DUP2 GT ISZERO PUSH2 0x2016 JUMPI PUSH2 0x2015 PUSH2 0x1B2C JUMP JUMPDEST JUMPDEST PUSH2 0x2022 DUP7 DUP3 DUP8 ADD PUSH2 0x1FB5 JUMP JUMPDEST SWAP4 POP POP PUSH1 0x20 DUP5 ADD CALLDATALOAD PUSH8 0xFFFFFFFFFFFFFFFF DUP2 GT ISZERO PUSH2 0x2043 JUMPI PUSH2 0x2042 PUSH2 0x1B2C JUMP JUMPDEST JUMPDEST PUSH2 0x204F DUP7 DUP3 DUP8 ADD PUSH2 0x1FB5 JUMP JUMPDEST SWAP3 POP POP PUSH1 0x40 PUSH2 0x2060 DUP7 DUP3 DUP8 ADD PUSH2 0x1CAC JUMP JUMPDEST SWAP2 POP POP SWAP3 POP SWAP3 POP SWAP3 JUMP JUMPDEST PUSH0 PUSH8 0xFFFFFFFFFFFFFFFF DUP3 GT ISZERO PUSH2 0x2084 JUMPI PUSH2 0x2083 PUSH2 0x1EBE JUMP JUMPDEST JUMPDEST PUSH2 0x208D DUP3 PUSH2 0x1C25 JUMP JUMPDEST SWAP1 POP PUSH1 0x20 DUP2 ADD SWAP1 POP SWAP2 SWAP1 POP JUMP JUMPDEST PUSH0 PUSH2 0x20AC PUSH2 0x20A7 DUP5 PUSH2 0x206A JUMP JUMPDEST PUSH2 0x1F1C JUMP JUMPDEST SWAP1 POP DUP3 DUP2 MSTORE PUSH1 0x20 DUP2 ADD DUP5 DUP5 DUP5 ADD GT ISZERO PUSH2 0x20C8 JUMPI PUSH2 0x20C7 PUSH2 0x1EBA JUMP JUMPDEST JUMPDEST PUSH2 0x20D3 DUP5 DUP3 DUP6 PUSH2 0x1F66 JUMP JUMPDEST POP SWAP4 SWAP3 POP POP POP JUMP JUMPDEST PUSH0 DUP3 PUSH1 0x1F DUP4 ADD SLT PUSH2 0x20EF JUMPI PUSH2 0x20EE PUSH2 0x1EB6 JUMP JUMPDEST JUMPDEST DUP2 CALLDATALOAD PUSH2 0x20FF DUP5 DUP3 PUSH1 0x20 DUP7 ADD PUSH2 0x209A JUMP JUMPDEST SWAP2 POP POP SWAP3 SWAP2 POP POP JUMP JUMPDEST PUSH0 DUP1 PUSH0 DUP1 PUSH1 0x80 DUP6 DUP8 SUB SLT ISZERO PUSH2 0x2120 JUMPI PUSH2 0x211F PUSH2 0x1B28 JUMP JUMPDEST JUMPDEST PUSH0 PUSH2 0x212D DUP8 DUP3 DUP9 ADD PUSH2 0x1D59 JUMP JUMPDEST SWAP5 POP POP PUSH1 0x20 PUSH2 0x213E DUP8 DUP3 DUP9 ADD PUSH2 0x1D59 JUMP JUMPDEST SWAP4 POP POP PUSH1 0x40 PUSH2 0x214F DUP8 DUP3 DUP9 ADD PUSH2 0x1CAC JUMP JUMPDEST SWAP3 POP POP PUSH1 0x60 DUP6 ADD CALLDATALOAD PUSH8 0xFFFFFFFFFFFFFFFF DUP2 GT ISZERO PUSH2 0x2170 JUMPI PUSH2 0x216F PUSH2 0x1B2C JUMP JUMPDEST JUMPDEST PUSH2 0x217C DUP8 DUP3 DUP9 ADD PUSH2 0x20DB JUMP JUMPDEST SWAP2 POP POP SWAP3 SWAP6 SWAP2 SWAP5 POP SWAP3 POP JUMP JUMPDEST PUSH0 PUSH1 0x60 DUP3 ADD SWAP1 POP DUP2 DUP2 SUB PUSH0 DUP4 ADD MSTORE PUSH2 0x21A0 DUP2 DUP7 PUSH2 0x1C35 JUMP JUMPDEST SWAP1 POP DUP2 DUP2 SUB PUSH1 0x20 DUP4 ADD MSTORE PUSH2 0x21B4 DUP2 DUP6 PUSH2 0x1C35 JUMP JUMPDEST SWAP1 POP PUSH2 0x21C3 PUSH1 0x40 DUP4 ADD DUP5 PUSH2 0x1E26 JUMP JUMPDEST SWAP5 SWAP4 POP POP POP POP JUMP JUMPDEST PUSH0 DUP1 PUSH1 0x40 DUP4 DUP6 SUB SLT ISZERO PUSH2 0x21E1 JUMPI PUSH2 0x21E0 PUSH2 0x1B28 JUMP JUMPDEST JUMPDEST PUSH0 PUSH2 0x21EE DUP6 DUP3 DUP7 ADD PUSH2 0x1D59 JUMP JUMPDEST SWAP3 POP POP PUSH1 0x20 PUSH2 0x21FF DUP6 DUP3 DUP7 ADD PUSH2 0x1D59 JUMP JUMPDEST SWAP2 POP POP SWAP3 POP SWAP3 SWAP1 POP JUMP JUMPDEST PUSH32 0x4E487B7100000000000000000000000000000000000000000000000000000000 PUSH0 MSTORE PUSH1 0x22 PUSH1 0x4 MSTORE PUSH1 0x24 PUSH0 REVERT JUMPDEST PUSH0 PUSH1 0x2 DUP3 DIV SWAP1 POP PUSH1 0x1 DUP3 AND DUP1 PUSH2 0x224D JUMPI PUSH1 0x7F DUP3 AND SWAP2 POP JUMPDEST PUSH1 0x20 DUP3 LT DUP2 SUB PUSH2 0x2260 JUMPI PUSH2 0x225F PUSH2 0x2209 JUMP JUMPDEST JUMPDEST POP SWAP2 SWAP1 POP JUMP JUMPDEST PUSH0 PUSH1 0x60 DUP3 ADD SWAP1 POP PUSH2 0x2279 PUSH0 DUP4 ADD DUP7 PUSH2 0x1D1B JUMP JUMPDEST PUSH2 0x2286 PUSH1 0x20 DUP4 ADD DUP6 PUSH2 0x1E26 JUMP JUMPDEST PUSH2 0x2293 PUSH1 0x40 DUP4 ADD DUP5 PUSH2 0x1D1B JUMP JUMPDEST SWAP5 SWAP4 POP POP POP POP JUMP JUMPDEST PUSH32 0x4669736820776569676874206D757374206265203E2030000000000000000000 PUSH0 DUP3 ADD MSTORE POP JUMP JUMPDEST PUSH0 PUSH2 0x22CF PUSH1 0x17 DUP4 PUSH2 0x1BED JUMP JUMPDEST SWAP2 POP PUSH2 0x22DA DUP3 PUSH2 0x229B JUMP JUMPDEST PUSH1 0x20 DUP3 ADD SWAP1 POP SWAP2 SWAP1 POP JUMP JUMPDEST PUSH0 PUSH1 0x20 DUP3 ADD SWAP1 POP DUP2 DUP2 SUB PUSH0 DUP4 ADD MSTORE PUSH2 0x22FC DUP2 PUSH2 0x22C3 JUMP JUMPDEST SWAP1 POP SWAP2 SWAP1 POP JUMP JUMPDEST PUSH32 0x4E487B7100000000000000000000000000000000000000000000000000000000 PUSH0 MSTORE PUSH1 0x11 PUSH1 0x4 MSTORE PUSH1 0x24 PUSH0 REVERT JUMPDEST PUSH0 PUSH2 0x233A DUP3 PUSH2 0x1C8D JUMP JUMPDEST SWAP2 POP PUSH32 0xFFFFFFFFFFFFFFFFFFFFFFFFFFFFFFFFFFFFFFFFFFFFFFFFFFFFFFFFFFFFFFFF DUP3 SUB PUSH2 0x236C JUMPI PUSH2 0x236B PUSH2 0x2303 JUMP JUMPDEST JUMPDEST PUSH1 0x1 DUP3 ADD SWAP1 POP SWAP2 SWAP1 POP JUMP JUMPDEST PUSH0 DUP2 SWAP1 POP DUP2 PUSH0 MSTORE PUSH1 0x20 PUSH0 KECCAK256 SWAP1 POP SWAP2 SWAP1 POP JUMP JUMPDEST PUSH0 PUSH1 0x20 PUSH1 0x1F DUP4 ADD DIV SWAP1 POP SWAP2 SWAP1 POP JUMP JUMPDEST PUSH0 DUP3 DUP3 SHL SWAP1 POP SWAP3 SWAP2 POP POP JUMP JUMPDEST PUSH0 PUSH1 0x8 DUP4 MUL PUSH2 0x23D3 PUSH32 0xFFFFFFFFFFFFFFFFFFFFFFFFFFFFFFFFFFFFFFFFFFFFFFFFFFFFFFFFFFFFFFFF DUP3 PUSH2 0x2398 JUMP JUMPDEST PUSH2 0x23DD DUP7 DUP4 PUSH2 0x2398 JUMP JUMPDEST SWAP6 POP DUP1 NOT DUP5 AND SWAP4 POP DUP1 DUP7 AND DUP5 OR SWAP3 POP POP POP SWAP4 SWAP3 POP POP POP JUMP JUMPDEST PUSH0 DUP2 SWAP1 POP SWAP2 SWAP1 POP JUMP JUMPDEST PUSH0 PUSH2 0x2418 PUSH2 0x2413 PUSH2 0x240E DUP5 PUSH2 0x1C8D JUMP JUMPDEST PUSH2 0x23F5 JUMP JUMPDEST PUSH2 0x1C8D JUMP JUMPDEST SWAP1 POP SWAP2 SWAP1 POP JUMP JUMPDEST PUSH0 DUP2 SWAP1 POP SWAP2 SWAP1 POP JUMP JUMPDEST PUSH2 0x2431 DUP4 PUSH2 0x23FE JUMP JUMPDEST PUSH2 0x2445 PUSH2 0x243D DUP3 PUSH2 0x241F JUMP JUMPDEST DUP5 DUP5 SLOAD PUSH2 0x23A4 JUMP JUMPDEST DUP3 SSTORE POP POP POP POP JUMP JUMPDEST PUSH0 SWAP1 JUMP JUMPDEST PUSH2 0x2459 PUSH2 0x244D JUMP JUMPDEST PUSH2 0x2464 DUP2 DUP5 DUP5 PUSH2 0x2428 JUMP JUMPDEST POP POP POP JUMP JUMPDEST JUMPDEST DUP2 DUP2 LT ISZERO PUSH2 0x2487 JUMPI PUSH2 0x247C PUSH0 DUP3 PUSH2 0x2451 JUMP JUMPDEST PUSH1 0x1 DUP2 ADD SWAP1 POP PUSH2 0x246A JUMP JUMPDEST POP POP JUMP JUMPDEST PUSH1 0x1F DUP3 GT ISZERO PUSH2 0x24CC JUMPI PUSH2 0x249D DUP2 PUSH2 0x2377 JUMP JUMPDEST PUSH2 0x24A6 DUP5 PUSH2 0x2389 JUMP JUMPDEST DUP2 ADD PUSH1 0x20 DUP6 LT ISZERO PUSH2 0x24B5 JUMPI DUP2 SWAP1 POP JUMPDEST PUSH2 0x24C9 PUSH2 0x24C1 DUP6 PUSH2 0x2389 JUMP JUMPDEST DUP4 ADD DUP3 PUSH2 0x2469 JUMP JUMPDEST POP POP JUMPDEST POP POP POP JUMP JUMPDEST PUSH0 DUP3 DUP3 SHR SWAP1 POP SWAP3 SWAP2 POP POP JUMP JUMPDEST PUSH0 PUSH2 0x24EC PUSH0 NOT DUP5 PUSH1 0x8 MUL PUSH2 0x24D1 JUMP JUMPDEST NOT DUP1 DUP4 AND SWAP2 POP POP SWAP3 SWAP2 POP POP JUMP JUMPDEST PUSH0 PUSH2 0x2504 DUP4 DUP4 PUSH2 0x24DD JUMP JUMPDEST SWAP2 POP DUP3 PUSH1 0x2 MUL DUP3 OR SWAP1 POP SWAP3 SWAP2 POP POP JUMP JUMPDEST PUSH2 0x251D DUP3 PUSH2 0x1BE3 JUMP JUMPDEST PUSH8 0xFFFFFFFFFFFFFFFF DUP2 GT ISZERO PUSH2 0x2536 JUMPI PUSH2 0x2535 PUSH2 0x1EBE JUMP JUMPDEST JUMPDEST PUSH2 0x2540 DUP3 SLOAD PUSH2 0x2236 JUMP JUMPDEST PUSH2 0x254B DUP3 DUP3 DUP6 PUSH2 0x248B JUMP JUMPDEST PUSH0 PUSH1 0x20 SWAP1 POP PUSH1 0x1F DUP4 GT PUSH1 0x1 DUP2 EQ PUSH2 0x257C JUMPI PUSH0 DUP5 ISZERO PUSH2 0x256A JUMPI DUP3 DUP8 ADD MLOAD SWAP1 POP JUMPDEST PUSH2 0x2574 DUP6 DUP3 PUSH2 0x24F9 JUMP JUMPDEST DUP7 SSTORE POP PUSH2 0x25DB JUMP JUMPDEST PUSH1 0x1F NOT DUP5 AND PUSH2 0x258A DUP7 PUSH2 0x2377 JUMP JUMPDEST PUSH0 JUMPDEST DUP3 DUP2 LT ISZERO PUSH2 0x25B1 JUMPI DUP5 DUP10 ADD MLOAD DUP3 SSTORE PUSH1 0x1 DUP3 ADD SWAP2 POP PUSH1 0x20 DUP6 ADD SWAP5 POP PUSH1 0x20 DUP2 ADD SWAP1 POP PUSH2 0x258C JUMP JUMPDEST DUP7 DUP4 LT ISZERO PUSH2 0x25CE JUMPI DUP5 DUP10 ADD MLOAD PUSH2 0x25CA PUSH1 0x1F DUP10 AND DUP3 PUSH2 0x24DD JUMP JUMPDEST DUP4 SSTORE POP JUMPDEST PUSH1 0x1 PUSH1 0x2 DUP9 MUL ADD DUP9 SSTORE POP POP POP JUMPDEST POP POP POP POP POP POP JUMP JUMPDEST PUSH0 DUP2 SWAP1 POP SWAP3 SWAP2 POP POP JUMP JUMPDEST PUSH0 PUSH2 0x25F7 DUP3 PUSH2 0x1BE3 JUMP JUMPDEST PUSH2 0x2601 DUP2 DUP6 PUSH2 0x25E3 JUMP JUMPDEST SWAP4 POP PUSH2 0x2611 DUP2 DUP6 PUSH1 0x20 DUP7 ADD PUSH2 0x1BFD JUMP JUMPDEST DUP1 DUP5 ADD SWAP2 POP POP SWAP3 SWAP2 POP POP JUMP JUMPDEST PUSH0 PUSH2 0x2628 DUP3 DUP6 PUSH2 0x25ED JUMP JUMPDEST SWAP2 POP PUSH2 0x2634 DUP3 DUP5 PUSH2 0x25ED JUMP JUMPDEST SWAP2 POP DUP2 SWAP1 POP SWAP4 SWAP3 POP POP POP JUMP JUMPDEST PUSH32 0x4669736820646F6573206E6F7420657869737400000000000000000000000000 PUSH0 DUP3 ADD MSTORE POP JUMP JUMPDEST PUSH0 PUSH2 0x2674 PUSH1 0x13 DUP4 PUSH2 0x1BED JUMP JUMPDEST SWAP2 POP PUSH2 0x267F DUP3 PUSH2 0x2640 JUMP JUMPDEST PUSH1 0x20 DUP3 ADD SWAP1 POP SWAP2 SWAP1 POP JUMP JUMPDEST PUSH0 PUSH1 0x20 DUP3 ADD SWAP1 POP DUP2 DUP2 SUB PUSH0 DUP4 ADD MSTORE PUSH2 0x26A1 DUP2 PUSH2 0x2668 JUMP JUMPDEST SWAP1 POP SWAP2 SWAP1 POP JUMP JUMPDEST PUSH0 DUP2 MLOAD SWAP1 POP SWAP2 SWAP1 POP JUMP JUMPDEST PUSH0 DUP3 DUP3 MSTORE PUSH1 0x20 DUP3 ADD SWAP1 POP SWAP3 SWAP2 POP POP JUMP JUMPDEST PUSH0 PUSH2 0x26CC DUP3 PUSH2 0x26A8 JUMP JUMPDEST PUSH2 0x26D6 DUP2 DUP6 PUSH2 0x26B2 JUMP JUMPDEST SWAP4 POP PUSH2 0x26E6 DUP2 DUP6 PUSH1 0x20 DUP7 ADD PUSH2 0x1BFD JUMP JUMPDEST PUSH2 0x26EF DUP2 PUSH2 0x1C25 JUMP JUMPDEST DUP5 ADD SWAP2 POP POP SWAP3 SWAP2 POP POP JUMP JUMPDEST PUSH0 PUSH1 0x80 DUP3 ADD SWAP1 POP PUSH2 0x270D PUSH0 DUP4 ADD DUP8 PUSH2 0x1D1B JUMP JUMPDEST PUSH2 0x271A PUSH1 0x20 DUP4 ADD DUP7 PUSH2 0x1D1B JUMP JUMPDEST PUSH2 0x2727 PUSH1 0x40 DUP4 ADD DUP6 PUSH2 0x1E26 JUMP JUMPDEST DUP2 DUP2 SUB PUSH1 0x60 DUP4 ADD MSTORE PUSH2 0x2739 DUP2 DUP5 PUSH2 0x26C2 JUMP JUMPDEST SWAP1 POP SWAP6 SWAP5 POP POP POP POP POP JUMP JUMPDEST PUSH0 DUP2 MLOAD SWAP1 POP PUSH2 0x2752 DUP2 PUSH2 0x1B5B JUMP JUMPDEST SWAP3 SWAP2 POP POP JUMP JUMPDEST PUSH0 PUSH1 0x20 DUP3 DUP5 SUB SLT ISZERO PUSH2 0x276D JUMPI PUSH2 0x276C PUSH2 0x1B28 JUMP JUMPDEST JUMPDEST PUSH0 PUSH2 0x277A DUP5 DUP3 DUP6 ADD PUSH2 0x2744 JUMP JUMPDEST SWAP2 POP POP SWAP3 SWAP2 POP POP JUMP JUMPDEST PUSH32 0x4E487B7100000000000000000000000000000000000000000000000000000000 PUSH0 MSTORE PUSH1 0x12 PUSH1 0x4 MSTORE PUSH1 0x24 PUSH0 REVERT JUMPDEST PUSH0 PUSH1 0x40 DUP3 ADD SWAP1 POP PUSH2 0x27C3 PUSH0 DUP4 ADD DUP6 PUSH2 0x1D1B JUMP JUMPDEST PUSH2 0x27D0 PUSH1 0x20 DUP4 ADD DUP5 PUSH2 0x1E26 JUMP JUMPDEST SWAP4 SWAP3 POP POP POP JUMP INVALID LOG2 PUSH5 0x6970667358 0x22 SLT KECCAK256 SMOD 0xB4 SWAP10 0xE7 SAR CREATE DUP9 PUSH10 0x966931F6A4C63030D95B 0xEC 0x24 0xC9 SUB RETURNDATACOPY CALL 0xB4 0xDE PUSH31 0xA835AD983C64736F6C63430008140033000000000000000000000000000000 "
		},
		"gasEstimates": {
			"creation": {
				"codeDepositCost": "2050600",
				"executionCost": "infinite",
				"totalCost": "infinite"
			},
			"external": {
				"approve(address,uint256)": "infinite",
				"balanceOf(address)": "infinite",
				"catchFish(string,string,uint256)": "infinite",
				"getApproved(uint256)": "infinite",
				"getFishInfo(uint256)": "infinite",
				"isApprovedForAll(address,address)": "infinite",
				"name()": "infinite",
				"owner()": "2538",
				"ownerOf(uint256)": "infinite",
				"renounceOwnership()": "infinite",
				"safeTransferFrom(address,address,uint256)": "infinite",
				"safeTransferFrom(address,address,uint256,bytes)": "infinite",
				"setApprovalForAll(address,bool)": "infinite",
				"supportsInterface(bytes4)": "787",
				"symbol()": "infinite",
				"tokenURI(uint256)": "infinite",
				"transferFrom(address,address,uint256)": "infinite",
				"transferOwnership(address)": "infinite"
			}
		},
		"methodIdentifiers": {
			"approve(address,uint256)": "095ea7b3",
			"balanceOf(address)": "70a08231",
			"catchFish(string,string,uint256)": "ae259fb9",
			"getApproved(uint256)": "081812fc",
			"getFishInfo(uint256)": "e2450a98",
			"isApprovedForAll(address,address)": "e985e9c5",
			"name()": "06fdde03",
			"owner()": "8da5cb5b",
			"ownerOf(uint256)": "6352211e",
			"renounceOwnership()": "715018a6",
			"safeTransferFrom(address,address,uint256)": "42842e0e",
			"safeTransferFrom(address,address,uint256,bytes)": "b88d4fde",
			"setApprovalForAll(address,bool)": "a22cb465",
			"supportsInterface(bytes4)": "01ffc9a7",
			"symbol()": "95d89b41",
			"tokenURI(uint256)": "c87b56dd",
			"transferFrom(address,address,uint256)": "23b872dd",
			"transferOwnership(address)": "f2fde38b"
		}
	},
	"abi": [
		{
			"inputs": [],
			"stateMutability": "nonpayable",
			"type": "constructor"
		},
		{
			"inputs": [
				{
					"internalType": "address",
					"name": "sender",
					"type": "address"
				},
				{
					"internalType": "uint256",
					"name": "tokenId",
					"type": "uint256"
				},
				{
					"internalType": "address",
					"name": "owner",
					"type": "address"
				}
			],
			"name": "ERC721IncorrectOwner",
			"type": "error"
		},
		{
			"inputs": [
				{
					"internalType": "address",
					"name": "operator",
					"type": "address"
				},
				{
					"internalType": "uint256",
					"name": "tokenId",
					"type": "uint256"
				}
			],
			"name": "ERC721InsufficientApproval",
			"type": "error"
		},
		{
			"inputs": [
				{
					"internalType": "address",
					"name": "approver",
					"type": "address"
				}
			],
			"name": "ERC721InvalidApprover",
			"type": "error"
		},
		{
			"inputs": [
				{
					"internalType": "address",
					"name": "operator",
					"type": "address"
				}
			],
			"name": "ERC721InvalidOperator",
			"type": "error"
		},
		{
			"inputs": [
				{
					"internalType": "address",
					"name": "owner",
					"type": "address"
				}
			],
			"name": "ERC721InvalidOwner",
			"type": "error"
		},
		{
			"inputs": [
				{
					"internalType": "address",
					"name": "receiver",
					"type": "address"
				}
			],
			"name": "ERC721InvalidReceiver",
			"type": "error"
		},
		{
			"inputs": [
				{
					"internalType": "address",
					"name": "sender",
					"type": "address"
				}
			],
			"name": "ERC721InvalidSender",
			"type": "error"
		},
		{
			"inputs": [
				{
					"internalType": "uint256",
					"name": "tokenId",
					"type": "uint256"
				}
			],
			"name": "ERC721NonexistentToken",
			"type": "error"
		},
		{
			"inputs": [
				{
					"internalType": "address",
					"name": "owner",
					"type": "address"
				}
			],
			"name": "OwnableInvalidOwner",
			"type": "error"
		},
		{
			"inputs": [
				{
					"internalType": "address",
					"name": "account",
					"type": "address"
				}
			],
			"name": "OwnableUnauthorizedAccount",
			"type": "error"
		},
		{
			"anonymous": false,
			"inputs": [
				{
					"indexed": true,
					"internalType": "address",
					"name": "owner",
					"type": "address"
				},
				{
					"indexed": true,
					"internalType": "address",
					"name": "approved",
					"type": "address"
				},
				{
					"indexed": true,
					"internalType": "uint256",
					"name": "tokenId",
					"type": "uint256"
				}
			],
			"name": "Approval",
			"type": "event"
		},
		{
			"anonymous": false,
			"inputs": [
				{
					"indexed": true,
					"internalType": "address",
					"name": "owner",
					"type": "address"
				},
				{
					"indexed": true,
					"internalType": "address",
					"name": "operator",
					"type": "address"
				},
				{
					"indexed": false,
					"internalType": "bool",
					"name": "approved",
					"type": "bool"
				}
			],
			"name": "ApprovalForAll",
			"type": "event"
		},
		{
			"anonymous": false,
			"inputs": [
				{
					"indexed": true,
					"internalType": "address",
					"name": "catcher",
					"type": "address"
				},
				{
					"indexed": true,
					"internalType": "uint256",
					"name": "tokenId",
					"type": "uint256"
				},
				{
					"indexed": false,
					"internalType": "string",
					"name": "name",
					"type": "string"
				},
				{
					"indexed": false,
					"internalType": "string",
					"name": "species",
					"type": "string"
				},
				{
					"indexed": false,
					"internalType": "uint256",
					"name": "weightInGrams",
					"type": "uint256"
				}
			],
			"name": "FishCaught",
			"type": "event"
		},
		{
			"anonymous": false,
			"inputs": [
				{
					"indexed": true,
					"internalType": "address",
					"name": "previousOwner",
					"type": "address"
				},
				{
					"indexed": true,
					"internalType": "address",
					"name": "newOwner",
					"type": "address"
				}
			],
			"name": "OwnershipTransferred",
			"type": "event"
		},
		{
			"anonymous": false,
			"inputs": [
				{
					"indexed": true,
					"internalType": "address",
					"name": "from",
					"type": "address"
				},
				{
					"indexed": true,
					"internalType": "address",
					"name": "to",
					"type": "address"
				},
				{
					"indexed": true,
					"internalType": "uint256",
					"name": "tokenId",
					"type": "uint256"
				}
			],
			"name": "Transfer",
			"type": "event"
		},
		{
			"inputs": [
				{
					"internalType": "address",
					"name": "to",
					"type": "address"
				},
				{
					"internalType": "uint256",
					"name": "tokenId",
					"type": "uint256"
				}
			],
			"name": "approve",
			"outputs": [],
			"stateMutability": "nonpayable",
			"type": "function"
		},
		{
			"inputs": [
				{
					"internalType": "address",
					"name": "owner",
					"type": "address"
				}
			],
			"name": "balanceOf",
			"outputs": [
				{
					"internalType": "uint256",
					"name": "",
					"type": "uint256"
				}
			],
			"stateMutability": "view",
			"type": "function"
		},
		{
			"inputs": [
				{
					"internalType": "string",
					"name": "name",
					"type": "string"
				},
				{
					"internalType": "string",
					"name": "species",
					"type": "string"
				},
				{
					"internalType": "uint256",
					"name": "weightInGrams",
					"type": "uint256"
				}
			],
			"name": "catchFish",
			"outputs": [],
			"stateMutability": "nonpayable",
			"type": "function"
		},
		{
			"inputs": [
				{
					"internalType": "uint256",
					"name": "tokenId",
					"type": "uint256"
				}
			],
			"name": "getApproved",
			"outputs": [
				{
					"internalType": "address",
					"name": "",
					"type": "address"
				}
			],
			"stateMutability": "view",
			"type": "function"
		},
		{
			"inputs": [
				{
					"internalType": "uint256",
					"name": "tokenId",
					"type": "uint256"
				}
			],
			"name": "getFishInfo",
			"outputs": [
				{
					"internalType": "string",
					"name": "",
					"type": "string"
				},
				{
					"internalType": "string",
					"name": "",
					"type": "string"
				},
				{
					"internalType": "uint256",
					"name": "",
					"type": "uint256"
				}
			],
			"stateMutability": "view",
			"type": "function"
		},
		{
			"inputs": [
				{
					"internalType": "address",
					"name": "owner",
					"type": "address"
				},
				{
					"internalType": "address",
					"name": "operator",
					"type": "address"
				}
			],
			"name": "isApprovedForAll",
			"outputs": [
				{
					"internalType": "bool",
					"name": "",
					"type": "bool"
				}
			],
			"stateMutability": "view",
			"type": "function"
		},
		{
			"inputs": [],
			"name": "name",
			"outputs": [
				{
					"internalType": "string",
					"name": "",
					"type": "string"
				}
			],
			"stateMutability": "view",
			"type": "function"
		},
		{
			"inputs": [],
			"name": "owner",
			"outputs": [
				{
					"internalType": "address",
					"name": "",
					"type": "address"
				}
			],
			"stateMutability": "view",
			"type": "function"
		},
		{
			"inputs": [
				{
					"internalType": "uint256",
					"name": "tokenId",
					"type": "uint256"
				}
			],
			"name": "ownerOf",
			"outputs": [
				{
					"internalType": "address",
					"name": "",
					"type": "address"
				}
			],
			"stateMutability": "view",
			"type": "function"
		},
		{
			"inputs": [],
			"name": "renounceOwnership",
			"outputs": [],
			"stateMutability": "nonpayable",
			"type": "function"
		},
		{
			"inputs": [
				{
					"internalType": "address",
					"name": "from",
					"type": "address"
				},
				{
					"internalType": "address",
					"name": "to",
					"type": "address"
				},
				{
					"internalType": "uint256",
					"name": "tokenId",
					"type": "uint256"
				}
			],
			"name": "safeTransferFrom",
			"outputs": [],
			"stateMutability": "nonpayable",
			"type": "function"
		},
		{
			"inputs": [
				{
					"internalType": "address",
					"name": "from",
					"type": "address"
				},
				{
					"internalType": "address",
					"name": "to",
					"type": "address"
				},
				{
					"internalType": "uint256",
					"name": "tokenId",
					"type": "uint256"
				},
				{
					"internalType": "bytes",
					"name": "data",
					"type": "bytes"
				}
			],
			"name": "safeTransferFrom",
			"outputs": [],
			"stateMutability": "nonpayable",
			"type": "function"
		},
		{
			"inputs": [
				{
					"internalType": "address",
					"name": "operator",
					"type": "address"
				},
				{
					"internalType": "bool",
					"name": "approved",
					"type": "bool"
				}
			],
			"name": "setApprovalForAll",
			"outputs": [],
			"stateMutability": "nonpayable",
			"type": "function"
		},
		{
			"inputs": [
				{
					"internalType": "bytes4",
					"name": "interfaceId",
					"type": "bytes4"
				}
			],
			"name": "supportsInterface",
			"outputs": [
				{
					"internalType": "bool",
					"name": "",
					"type": "bool"
				}
			],
			"stateMutability": "view",
			"type": "function"
		},
		{
			"inputs": [],
			"name": "symbol",
			"outputs": [
				{
					"internalType": "string",
					"name": "",
					"type": "string"
				}
			],
			"stateMutability": "view",
			"type": "function"
		},
		{
			"inputs": [
				{
					"internalType": "uint256",
					"name": "tokenId",
					"type": "uint256"
				}
			],
			"name": "tokenURI",
			"outputs": [
				{
					"internalType": "string",
					"name": "",
					"type": "string"
				}
			],
			"stateMutability": "view",
			"type": "function"
		},
		{
			"inputs": [
				{
					"internalType": "address",
					"name": "from",
					"type": "address"
				},
				{
					"internalType": "address",
					"name": "to",
					"type": "address"
				},
				{
					"internalType": "uint256",
					"name": "tokenId",
					"type": "uint256"
				}
			],
			"name": "transferFrom",
			"outputs": [],
			"stateMutability": "nonpayable",
			"type": "function"
		},
		{
			"inputs": [
				{
					"internalType": "address",
					"name": "newOwner",
					"type": "address"
				}
			],
			"name": "transferOwnership",
			"outputs": [],
			"stateMutability": "nonpayable",
			"type": "function"
		}
	]
}