{
	"G/Trading Gains.sol": {
		"TradingGains": {
			"abi": [
				{
					"inputs": [
						{
							"internalType": "uint256",
							"name": "entry",
							"type": "uint256"
						},
						{
							"internalType": "uint256",
							"name": "exit",
							"type": "uint256"
						}
					],
					"name": "recordTrade",
					"outputs": [],
					"stateMutability": "nonpayable",
					"type": "function"
				},
				{
					"inputs": [
						{
							"internalType": "address",
							"name": "user",
							"type": "address"
						}
					],
					"name": "totalGains",
					"outputs": [
						{
							"internalType": "int256",
							"name": "total",
							"type": "int256"
						}
					],
					"stateMutability": "view",
					"type": "function"
				},
				{
					"inputs": [
						{
							"internalType": "address",
							"name": "",
							"type": "address"
						},
						{
							"internalType": "uint256",
							"name": "",
							"type": "uint256"
						}
					],
					"name": "trades",
					"outputs": [
						{
							"internalType": "uint256",
							"name": "entry",
							"type": "uint256"
						},
						{
							"internalType": "uint256",
							"name": "exit",
							"type": "uint256"
						}
					],
					"stateMutability": "view",
					"type": "function"
				}
			],
			"devdoc": {
				"kind": "dev",
				"methods": {},
				"version": 1
			},
			"evm": {
				"assembly": "    /* \"G/Trading Gains.sol\":46:556  contract TradingGains {... */\n  mstore(0x40, 0x80)\n  callvalue\n  dup1\n  iszero\n  tag_1\n  jumpi\n  revert(0x00, 0x00)\ntag_1:\n  pop\n  dataSize(sub_0)\n  dup1\n  dataOffset(sub_0)\n  0x00\n  codecopy\n  0x00\n  return\nstop\n\nsub_0: assembly {\n        /* \"G/Trading Gains.sol\":46:556  contract TradingGains {... */\n      mstore(0x40, 0x80)\n      callvalue\n      dup1\n      iszero\n      tag_1\n      jumpi\n      revert(0x00, 0x00)\n    tag_1:\n      pop\n      jumpi(tag_2, lt(calldatasize, 0x04))\n      shr(0xe0, calldataload(0x00))\n      dup1\n      0x13d8f3e4\n      eq\n      tag_3\n      jumpi\n      dup1\n      0x298771e8\n      eq\n      tag_4\n      jumpi\n      dup1\n      0xea4ec159\n      eq\n      tag_5\n      jumpi\n    tag_2:\n      revert(0x00, 0x00)\n        /* \"G/Trading Gains.sol\":145:186  mapping(address => Trade[]) public trades */\n    tag_3:\n      tag_6\n      0x04\n      dup1\n      calldatasize\n      sub\n      dup2\n      add\n      swap1\n      tag_7\n      swap2\n      swap1\n      tag_8\n      jump\t// in\n    tag_7:\n      tag_9\n      jump\t// in\n    tag_6:\n      mload(0x40)\n      tag_10\n      swap3\n      swap2\n      swap1\n      tag_11\n      jump\t// in\n    tag_10:\n      mload(0x40)\n      dup1\n      swap2\n      sub\n      swap1\n      return\n        /* \"G/Trading Gains.sol\":193:312  function recordTrade(uint256 entry, uint256 exit) external {... */\n    tag_4:\n      tag_12\n      0x04\n      dup1\n      calldatasize\n      sub\n      dup2\n      add\n      swap1\n      tag_13\n      swap2\n      swap1\n      tag_14\n      jump\t// in\n    tag_13:\n      tag_15\n      jump\t// in\n    tag_12:\n      stop\n        /* \"G/Trading Gains.sol\":318:554  function totalGains(address user) external view returns (int256 total) {... */\n    tag_5:\n      tag_16\n      0x04\n      dup1\n      calldatasize\n      sub\n      dup2\n      add\n      swap1\n      tag_17\n      swap2\n      swap1\n      tag_18\n      jump\t// in\n    tag_17:\n      tag_19\n      jump\t// in\n    tag_16:\n      mload(0x40)\n      tag_20\n      swap2\n      swap1\n      tag_21\n      jump\t// in\n    tag_20:\n      mload(0x40)\n      dup1\n      swap2\n      sub\n      swap1\n      return\n        /* \"G/Trading Gains.sol\":145:186  mapping(address => Trade[]) public trades */\n    tag_9:\n      mstore(0x20, 0x00)\n      dup2\n      0x00\n      mstore\n      keccak256(0x00, 0x40)\n      dup2\n      dup2\n      sload\n      dup2\n      lt\n      tag_22\n      jumpi\n      0x00\n      dup1\n      revert\n    tag_22:\n      swap1\n      0x00\n      mstore\n      keccak256(0x00, 0x20)\n      swap1\n      0x02\n      mul\n      add\n      0x00\n      swap2\n      pop\n      swap2\n      pop\n      pop\n      dup1\n      0x00\n      add\n      sload\n      swap1\n      dup1\n      0x01\n      add\n      sload\n      swap1\n      pop\n      dup3\n      jump\t// out\n        /* \"G/Trading Gains.sol\":193:312  function recordTrade(uint256 entry, uint256 exit) external {... */\n    tag_15:\n        /* \"G/Trading Gains.sol\":262:268  trades */\n      0x00\n        /* \"G/Trading Gains.sol\":262:280  trades[msg.sender] */\n      0x00\n        /* \"G/Trading Gains.sol\":269:279  msg.sender */\n      caller\n        /* \"G/Trading Gains.sol\":262:280  trades[msg.sender] */\n      0xffffffffffffffffffffffffffffffffffffffff\n      and\n      0xffffffffffffffffffffffffffffffffffffffff\n      and\n      dup2\n      mstore\n      0x20\n      add\n      swap1\n      dup2\n      mstore\n      0x20\n      add\n      0x00\n      keccak256\n        /* \"G/Trading Gains.sol\":286:304  Trade(entry, exit) */\n      mload(0x40)\n      dup1\n      0x40\n      add\n      0x40\n      mstore\n      dup1\n        /* \"G/Trading Gains.sol\":292:297  entry */\n      dup5\n        /* \"G/Trading Gains.sol\":286:304  Trade(entry, exit) */\n      dup2\n      mstore\n      0x20\n      add\n        /* \"G/Trading Gains.sol\":299:303  exit */\n      dup4\n        /* \"G/Trading Gains.sol\":286:304  Trade(entry, exit) */\n      dup2\n      mstore\n      pop\n        /* \"G/Trading Gains.sol\":262:305  trades[msg.sender].push(Trade(entry, exit)) */\n      swap1\n      dup1\n      0x01\n      dup2\n      sload\n      add\n      dup1\n      dup3\n      sstore\n      dup1\n      swap2\n      pop\n      pop\n      0x01\n      swap1\n      sub\n      swap1\n      0x00\n      mstore\n      keccak256(0x00, 0x20)\n      swap1\n      0x02\n      mul\n      add\n      0x00\n      swap1\n      swap2\n      swap1\n      swap2\n      swap1\n      swap2\n      pop\n      0x00\n      dup3\n      add\n      mload\n      dup2\n      0x00\n      add\n      sstore\n      0x20\n      dup3\n      add\n      mload\n      dup2\n      0x01\n      add\n      sstore\n      pop\n      pop\n        /* \"G/Trading Gains.sol\":193:312  function recordTrade(uint256 entry, uint256 exit) external {... */\n      pop\n      pop\n      jump\t// out\n        /* \"G/Trading Gains.sol\":318:554  function totalGains(address user) external view returns (int256 total) {... */\n    tag_19:\n        /* \"G/Trading Gains.sol\":375:387  int256 total */\n      0x00\n        /* \"G/Trading Gains.sol\":399:415  Trade[] memory t */\n      0x00\n        /* \"G/Trading Gains.sol\":418:424  trades */\n      0x00\n        /* \"G/Trading Gains.sol\":418:430  trades[user] */\n      0x00\n        /* \"G/Trading Gains.sol\":425:429  user */\n      dup5\n        /* \"G/Trading Gains.sol\":418:430  trades[user] */\n      0xffffffffffffffffffffffffffffffffffffffff\n      and\n      0xffffffffffffffffffffffffffffffffffffffff\n      and\n      dup2\n      mstore\n      0x20\n      add\n      swap1\n      dup2\n      mstore\n      0x20\n      add\n      0x00\n      keccak256\n        /* \"G/Trading Gains.sol\":399:430  Trade[] memory t = trades[user] */\n      dup1\n      sload\n      dup1\n      0x20\n      mul\n      0x20\n      add\n      mload(0x40)\n      swap1\n      dup2\n      add\n      0x40\n      mstore\n      dup1\n      swap3\n      swap2\n      swap1\n      dup2\n      dup2\n      mstore\n      0x20\n      add\n      0x00\n      swap1\n    tag_27:\n      dup3\n      dup3\n      lt\n      iszero\n      tag_28\n      jumpi\n      dup4\n      dup3\n      swap1\n      0x00\n      mstore\n      keccak256(0x00, 0x20)\n      swap1\n      0x02\n      mul\n      add\n      mload(0x40)\n      dup1\n      0x40\n      add\n      0x40\n      mstore\n      swap1\n      dup2\n      0x00\n      dup3\n      add\n      sload\n      dup2\n      mstore\n      0x20\n      add\n      0x01\n      dup3\n      add\n      sload\n      dup2\n      mstore\n      pop\n      pop\n      dup2\n      mstore\n      0x20\n      add\n      swap1\n      0x01\n      add\n      swap1\n      jump(tag_27)\n    tag_28:\n      pop\n      pop\n      pop\n      pop\n      swap1\n      pop\n        /* \"G/Trading Gains.sol\":445:451  uint i */\n      0x00\n        /* \"G/Trading Gains.sol\":454:455  0 */\n      0x00\n        /* \"G/Trading Gains.sol\":445:455  uint i = 0 */\n      swap1\n      pop\n        /* \"G/Trading Gains.sol\":440:548  for (uint i = 0; i < t.length; i++) {... */\n    tag_30:\n        /* \"G/Trading Gains.sol\":461:462  t */\n      dup2\n        /* \"G/Trading Gains.sol\":461:469  t.length */\n      mload\n        /* \"G/Trading Gains.sol\":457:458  i */\n      dup2\n        /* \"G/Trading Gains.sol\":457:469  i < t.length */\n      lt\n        /* \"G/Trading Gains.sol\":440:548  for (uint i = 0; i < t.length; i++) {... */\n      iszero\n      tag_31\n      jumpi\n        /* \"G/Trading Gains.sol\":526:527  t */\n      dup2\n        /* \"G/Trading Gains.sol\":528:529  i */\n      dup2\n        /* \"G/Trading Gains.sol\":526:530  t[i] */\n      dup2\n      mload\n      dup2\n      lt\n      tag_33\n      jumpi\n      tag_34\n      tag_35\n      jump\t// in\n    tag_34:\n    tag_33:\n      0x20\n      mul\n      0x20\n      add\n      add\n      mload\n        /* \"G/Trading Gains.sol\":526:536  t[i].entry */\n      0x00\n      add\n      mload\n        /* \"G/Trading Gains.sol\":506:507  t */\n      dup3\n        /* \"G/Trading Gains.sol\":508:509  i */\n      dup3\n        /* \"G/Trading Gains.sol\":506:510  t[i] */\n      dup2\n      mload\n      dup2\n      lt\n      tag_36\n      jumpi\n      tag_37\n      tag_35\n      jump\t// in\n    tag_37:\n    tag_36:\n      0x20\n      mul\n      0x20\n      add\n      add\n      mload\n        /* \"G/Trading Gains.sol\":506:515  t[i].exit */\n      0x20\n      add\n      mload\n        /* \"G/Trading Gains.sol\":499:537  int256(t[i].exit) - int256(t[i].entry) */\n      tag_38\n      swap2\n      swap1\n      tag_39\n      jump\t// in\n    tag_38:\n        /* \"G/Trading Gains.sol\":490:537  total += int256(t[i].exit) - int256(t[i].entry) */\n      dup4\n      tag_40\n      swap2\n      swap1\n      tag_41\n      jump\t// in\n    tag_40:\n      swap3\n      pop\n        /* \"G/Trading Gains.sol\":471:474  i++ */\n      dup1\n      dup1\n      0x01\n      add\n      swap2\n      pop\n      pop\n        /* \"G/Trading Gains.sol\":440:548  for (uint i = 0; i < t.length; i++) {... */\n      jump(tag_30)\n    tag_31:\n      pop\n        /* \"G/Trading Gains.sol\":389:554  {... */\n      pop\n        /* \"G/Trading Gains.sol\":318:554  function totalGains(address user) external view returns (int256 total) {... */\n      swap2\n      swap1\n      pop\n      jump\t// out\n        /* \"#utility.yul\":88:205   */\n    tag_43:\n        /* \"#utility.yul\":197:198   */\n      0x00\n        /* \"#utility.yul\":194:195   */\n      0x00\n        /* \"#utility.yul\":187:199   */\n      revert\n        /* \"#utility.yul\":334:460   */\n    tag_45:\n        /* \"#utility.yul\":371:378   */\n      0x00\n        /* \"#utility.yul\":411:453   */\n      0xffffffffffffffffffffffffffffffffffffffff\n        /* \"#utility.yul\":404:409   */\n      dup3\n        /* \"#utility.yul\":400:454   */\n      and\n        /* \"#utility.yul\":389:454   */\n      swap1\n      pop\n        /* \"#utility.yul\":334:460   */\n      swap2\n      swap1\n      pop\n      jump\t// out\n        /* \"#utility.yul\":466:562   */\n    tag_46:\n        /* \"#utility.yul\":503:510   */\n      0x00\n        /* \"#utility.yul\":532:556   */\n      tag_62\n        /* \"#utility.yul\":550:555   */\n      dup3\n        /* \"#utility.yul\":532:556   */\n      tag_45\n      jump\t// in\n    tag_62:\n        /* \"#utility.yul\":521:556   */\n      swap1\n      pop\n        /* \"#utility.yul\":466:562   */\n      swap2\n      swap1\n      pop\n      jump\t// out\n        /* \"#utility.yul\":568:690   */\n    tag_47:\n        /* \"#utility.yul\":641:665   */\n      tag_64\n        /* \"#utility.yul\":659:664   */\n      dup2\n        /* \"#utility.yul\":641:665   */\n      tag_46\n      jump\t// in\n    tag_64:\n        /* \"#utility.yul\":634:639   */\n      dup2\n        /* \"#utility.yul\":631:666   */\n      eq\n        /* \"#utility.yul\":621:684   */\n      tag_65\n      jumpi\n        /* \"#utility.yul\":680:681   */\n      0x00\n        /* \"#utility.yul\":677:678   */\n      0x00\n        /* \"#utility.yul\":670:682   */\n      revert\n        /* \"#utility.yul\":621:684   */\n    tag_65:\n        /* \"#utility.yul\":568:690   */\n      pop\n      jump\t// out\n        /* \"#utility.yul\":696:835   */\n    tag_48:\n        /* \"#utility.yul\":742:747   */\n      0x00\n        /* \"#utility.yul\":780:786   */\n      dup2\n        /* \"#utility.yul\":767:787   */\n      calldataload\n        /* \"#utility.yul\":758:787   */\n      swap1\n      pop\n        /* \"#utility.yul\":796:829   */\n      tag_67\n        /* \"#utility.yul\":823:828   */\n      dup2\n        /* \"#utility.yul\":796:829   */\n      tag_47\n      jump\t// in\n    tag_67:\n        /* \"#utility.yul\":696:835   */\n      swap3\n      swap2\n      pop\n      pop\n      jump\t// out\n        /* \"#utility.yul\":841:918   */\n    tag_49:\n        /* \"#utility.yul\":878:885   */\n      0x00\n        /* \"#utility.yul\":907:912   */\n      dup2\n        /* \"#utility.yul\":896:912   */\n      swap1\n      pop\n        /* \"#utility.yul\":841:918   */\n      swap2\n      swap1\n      pop\n      jump\t// out\n        /* \"#utility.yul\":924:1046   */\n    tag_50:\n        /* \"#utility.yul\":997:1021   */\n      tag_70\n        /* \"#utility.yul\":1015:1020   */\n      dup2\n        /* \"#utility.yul\":997:1021   */\n      tag_49\n      jump\t// in\n    tag_70:\n        /* \"#utility.yul\":990:995   */\n      dup2\n        /* \"#utility.yul\":987:1022   */\n      eq\n        /* \"#utility.yul\":977:1040   */\n      tag_71\n      jumpi\n        /* \"#utility.yul\":1036:1037   */\n      0x00\n        /* \"#utility.yul\":1033:1034   */\n      0x00\n        /* \"#utility.yul\":1026:1038   */\n      revert\n        /* \"#utility.yul\":977:1040   */\n    tag_71:\n        /* \"#utility.yul\":924:1046   */\n      pop\n      jump\t// out\n        /* \"#utility.yul\":1052:1191   */\n    tag_51:\n        /* \"#utility.yul\":1098:1103   */\n      0x00\n        /* \"#utility.yul\":1136:1142   */\n      dup2\n        /* \"#utility.yul\":1123:1143   */\n      calldataload\n        /* \"#utility.yul\":1114:1143   */\n      swap1\n      pop\n        /* \"#utility.yul\":1152:1185   */\n      tag_73\n        /* \"#utility.yul\":1179:1184   */\n      dup2\n        /* \"#utility.yul\":1152:1185   */\n      tag_50\n      jump\t// in\n    tag_73:\n        /* \"#utility.yul\":1052:1191   */\n      swap3\n      swap2\n      pop\n      pop\n      jump\t// out\n        /* \"#utility.yul\":1197:1671   */\n    tag_8:\n        /* \"#utility.yul\":1265:1271   */\n      0x00\n        /* \"#utility.yul\":1273:1279   */\n      0x00\n        /* \"#utility.yul\":1322:1324   */\n      0x40\n        /* \"#utility.yul\":1310:1319   */\n      dup4\n        /* \"#utility.yul\":1301:1308   */\n      dup6\n        /* \"#utility.yul\":1297:1320   */\n      sub\n        /* \"#utility.yul\":1293:1325   */\n      slt\n        /* \"#utility.yul\":1290:1409   */\n      iszero\n      tag_75\n      jumpi\n        /* \"#utility.yul\":1328:1407   */\n      tag_76\n      tag_43\n      jump\t// in\n    tag_76:\n        /* \"#utility.yul\":1290:1409   */\n    tag_75:\n        /* \"#utility.yul\":1448:1449   */\n      0x00\n        /* \"#utility.yul\":1473:1526   */\n      tag_77\n        /* \"#utility.yul\":1518:1525   */\n      dup6\n        /* \"#utility.yul\":1509:1515   */\n      dup3\n        /* \"#utility.yul\":1498:1507   */\n      dup7\n        /* \"#utility.yul\":1494:1516   */\n      add\n        /* \"#utility.yul\":1473:1526   */\n      tag_48\n      jump\t// in\n    tag_77:\n        /* \"#utility.yul\":1463:1526   */\n      swap3\n      pop\n        /* \"#utility.yul\":1419:1536   */\n      pop\n        /* \"#utility.yul\":1575:1577   */\n      0x20\n        /* \"#utility.yul\":1601:1654   */\n      tag_78\n        /* \"#utility.yul\":1646:1653   */\n      dup6\n        /* \"#utility.yul\":1637:1643   */\n      dup3\n        /* \"#utility.yul\":1626:1635   */\n      dup7\n        /* \"#utility.yul\":1622:1644   */\n      add\n        /* \"#utility.yul\":1601:1654   */\n      tag_51\n      jump\t// in\n    tag_78:\n        /* \"#utility.yul\":1591:1654   */\n      swap2\n      pop\n        /* \"#utility.yul\":1546:1664   */\n      pop\n        /* \"#utility.yul\":1197:1671   */\n      swap3\n      pop\n      swap3\n      swap1\n      pop\n      jump\t// out\n        /* \"#utility.yul\":1677:1795   */\n    tag_52:\n        /* \"#utility.yul\":1764:1788   */\n      tag_80\n        /* \"#utility.yul\":1782:1787   */\n      dup2\n        /* \"#utility.yul\":1764:1788   */\n      tag_49\n      jump\t// in\n    tag_80:\n        /* \"#utility.yul\":1759:1762   */\n      dup3\n        /* \"#utility.yul\":1752:1789   */\n      mstore\n        /* \"#utility.yul\":1677:1795   */\n      pop\n      pop\n      jump\t// out\n        /* \"#utility.yul\":1801:2133   */\n    tag_11:\n        /* \"#utility.yul\":1922:1926   */\n      0x00\n        /* \"#utility.yul\":1960:1962   */\n      0x40\n        /* \"#utility.yul\":1949:1958   */\n      dup3\n        /* \"#utility.yul\":1945:1963   */\n      add\n        /* \"#utility.yul\":1937:1963   */\n      swap1\n      pop\n        /* \"#utility.yul\":1973:2044   */\n      tag_82\n        /* \"#utility.yul\":2041:2042   */\n      0x00\n        /* \"#utility.yul\":2030:2039   */\n      dup4\n        /* \"#utility.yul\":2026:2043   */\n      add\n        /* \"#utility.yul\":2017:2023   */\n      dup6\n        /* \"#utility.yul\":1973:2044   */\n      tag_52\n      jump\t// in\n    tag_82:\n        /* \"#utility.yul\":2054:2126   */\n      tag_83\n        /* \"#utility.yul\":2122:2124   */\n      0x20\n        /* \"#utility.yul\":2111:2120   */\n      dup4\n        /* \"#utility.yul\":2107:2125   */\n      add\n        /* \"#utility.yul\":2098:2104   */\n      dup5\n        /* \"#utility.yul\":2054:2126   */\n      tag_52\n      jump\t// in\n    tag_83:\n        /* \"#utility.yul\":1801:2133   */\n      swap4\n      swap3\n      pop\n      pop\n      pop\n      jump\t// out\n        /* \"#utility.yul\":2139:2613   */\n    tag_14:\n        /* \"#utility.yul\":2207:2213   */\n      0x00\n        /* \"#utility.yul\":2215:2221   */\n      0x00\n        /* \"#utility.yul\":2264:2266   */\n      0x40\n        /* \"#utility.yul\":2252:2261   */\n      dup4\n        /* \"#utility.yul\":2243:2250   */\n      dup6\n        /* \"#utility.yul\":2239:2262   */\n      sub\n        /* \"#utility.yul\":2235:2267   */\n      slt\n        /* \"#utility.yul\":2232:2351   */\n      iszero\n      tag_85\n      jumpi\n        /* \"#utility.yul\":2270:2349   */\n      tag_86\n      tag_43\n      jump\t// in\n    tag_86:\n        /* \"#utility.yul\":2232:2351   */\n    tag_85:\n        /* \"#utility.yul\":2390:2391   */\n      0x00\n        /* \"#utility.yul\":2415:2468   */\n      tag_87\n        /* \"#utility.yul\":2460:2467   */\n      dup6\n        /* \"#utility.yul\":2451:2457   */\n      dup3\n        /* \"#utility.yul\":2440:2449   */\n      dup7\n        /* \"#utility.yul\":2436:2458   */\n      add\n        /* \"#utility.yul\":2415:2468   */\n      tag_51\n      jump\t// in\n    tag_87:\n        /* \"#utility.yul\":2405:2468   */\n      swap3\n      pop\n        /* \"#utility.yul\":2361:2478   */\n      pop\n        /* \"#utility.yul\":2517:2519   */\n      0x20\n        /* \"#utility.yul\":2543:2596   */\n      tag_88\n        /* \"#utility.yul\":2588:2595   */\n      dup6\n        /* \"#utility.yul\":2579:2585   */\n      dup3\n        /* \"#utility.yul\":2568:2577   */\n      dup7\n        /* \"#utility.yul\":2564:2586   */\n      add\n        /* \"#utility.yul\":2543:2596   */\n      tag_51\n      jump\t// in\n    tag_88:\n        /* \"#utility.yul\":2533:2596   */\n      swap2\n      pop\n        /* \"#utility.yul\":2488:2606   */\n      pop\n        /* \"#utility.yul\":2139:2613   */\n      swap3\n      pop\n      swap3\n      swap1\n      pop\n      jump\t// out\n        /* \"#utility.yul\":2619:2948   */\n    tag_18:\n        /* \"#utility.yul\":2678:2684   */\n      0x00\n        /* \"#utility.yul\":2727:2729   */\n      0x20\n        /* \"#utility.yul\":2715:2724   */\n      dup3\n        /* \"#utility.yul\":2706:2713   */\n      dup5\n        /* \"#utility.yul\":2702:2725   */\n      sub\n        /* \"#utility.yul\":2698:2730   */\n      slt\n        /* \"#utility.yul\":2695:2814   */\n      iszero\n      tag_90\n      jumpi\n        /* \"#utility.yul\":2733:2812   */\n      tag_91\n      tag_43\n      jump\t// in\n    tag_91:\n        /* \"#utility.yul\":2695:2814   */\n    tag_90:\n        /* \"#utility.yul\":2853:2854   */\n      0x00\n        /* \"#utility.yul\":2878:2931   */\n      tag_92\n        /* \"#utility.yul\":2923:2930   */\n      dup5\n        /* \"#utility.yul\":2914:2920   */\n      dup3\n        /* \"#utility.yul\":2903:2912   */\n      dup6\n        /* \"#utility.yul\":2899:2921   */\n      add\n        /* \"#utility.yul\":2878:2931   */\n      tag_48\n      jump\t// in\n    tag_92:\n        /* \"#utility.yul\":2868:2931   */\n      swap2\n      pop\n        /* \"#utility.yul\":2824:2941   */\n      pop\n        /* \"#utility.yul\":2619:2948   */\n      swap3\n      swap2\n      pop\n      pop\n      jump\t// out\n        /* \"#utility.yul\":2954:3030   */\n    tag_53:\n        /* \"#utility.yul\":2990:2997   */\n      0x00\n        /* \"#utility.yul\":3019:3024   */\n      dup2\n        /* \"#utility.yul\":3008:3024   */\n      swap1\n      pop\n        /* \"#utility.yul\":2954:3030   */\n      swap2\n      swap1\n      pop\n      jump\t// out\n        /* \"#utility.yul\":3036:3151   */\n    tag_54:\n        /* \"#utility.yul\":3121:3144   */\n      tag_95\n        /* \"#utility.yul\":3138:3143   */\n      dup2\n        /* \"#utility.yul\":3121:3144   */\n      tag_53\n      jump\t// in\n    tag_95:\n        /* \"#utility.yul\":3116:3119   */\n      dup3\n        /* \"#utility.yul\":3109:3145   */\n      mstore\n        /* \"#utility.yul\":3036:3151   */\n      pop\n      pop\n      jump\t// out\n        /* \"#utility.yul\":3157:3375   */\n    tag_21:\n        /* \"#utility.yul\":3248:3252   */\n      0x00\n        /* \"#utility.yul\":3286:3288   */\n      0x20\n        /* \"#utility.yul\":3275:3284   */\n      dup3\n        /* \"#utility.yul\":3271:3289   */\n      add\n        /* \"#utility.yul\":3263:3289   */\n      swap1\n      pop\n        /* \"#utility.yul\":3299:3368   */\n      tag_97\n        /* \"#utility.yul\":3365:3366   */\n      0x00\n        /* \"#utility.yul\":3354:3363   */\n      dup4\n        /* \"#utility.yul\":3350:3367   */\n      add\n        /* \"#utility.yul\":3341:3347   */\n      dup5\n        /* \"#utility.yul\":3299:3368   */\n      tag_54\n      jump\t// in\n    tag_97:\n        /* \"#utility.yul\":3157:3375   */\n      swap3\n      swap2\n      pop\n      pop\n      jump\t// out\n        /* \"#utility.yul\":3381:3561   */\n    tag_35:\n        /* \"#utility.yul\":3429:3506   */\n      0x4e487b7100000000000000000000000000000000000000000000000000000000\n        /* \"#utility.yul\":3426:3427   */\n      0x00\n        /* \"#utility.yul\":3419:3507   */\n      mstore\n        /* \"#utility.yul\":3526:3530   */\n      0x32\n        /* \"#utility.yul\":3523:3524   */\n      0x04\n        /* \"#utility.yul\":3516:3531   */\n      mstore\n        /* \"#utility.yul\":3550:3554   */\n      0x24\n        /* \"#utility.yul\":3547:3548   */\n      0x00\n        /* \"#utility.yul\":3540:3555   */\n      revert\n        /* \"#utility.yul\":3567:3747   */\n    tag_55:\n        /* \"#utility.yul\":3615:3692   */\n      0x4e487b7100000000000000000000000000000000000000000000000000000000\n        /* \"#utility.yul\":3612:3613   */\n      0x00\n        /* \"#utility.yul\":3605:3693   */\n      mstore\n        /* \"#utility.yul\":3712:3716   */\n      0x11\n        /* \"#utility.yul\":3709:3710   */\n      0x04\n        /* \"#utility.yul\":3702:3717   */\n      mstore\n        /* \"#utility.yul\":3736:3740   */\n      0x24\n        /* \"#utility.yul\":3733:3734   */\n      0x00\n        /* \"#utility.yul\":3726:3741   */\n      revert\n        /* \"#utility.yul\":3753:4125   */\n    tag_39:\n        /* \"#utility.yul\":3792:3796   */\n      0x00\n        /* \"#utility.yul\":3812:3831   */\n      tag_101\n        /* \"#utility.yul\":3829:3830   */\n      dup3\n        /* \"#utility.yul\":3812:3831   */\n      tag_53\n      jump\t// in\n    tag_101:\n        /* \"#utility.yul\":3807:3831   */\n      swap2\n      pop\n        /* \"#utility.yul\":3845:3864   */\n      tag_102\n        /* \"#utility.yul\":3862:3863   */\n      dup4\n        /* \"#utility.yul\":3845:3864   */\n      tag_53\n      jump\t// in\n    tag_102:\n        /* \"#utility.yul\":3840:3864   */\n      swap3\n      pop\n        /* \"#utility.yul\":3888:3889   */\n      dup3\n        /* \"#utility.yul\":3885:3886   */\n      dup3\n        /* \"#utility.yul\":3881:3890   */\n      sub\n        /* \"#utility.yul\":3873:3890   */\n      swap1\n      pop\n        /* \"#utility.yul\":4082:4083   */\n      dup2\n        /* \"#utility.yul\":4076:4080   */\n      dup2\n        /* \"#utility.yul\":4072:4084   */\n      slt\n        /* \"#utility.yul\":4068:4069   */\n      0x00\n        /* \"#utility.yul\":4065:4066   */\n      dup5\n        /* \"#utility.yul\":4061:4070   */\n      slt\n        /* \"#utility.yul\":4057:4085   */\n      and\n        /* \"#utility.yul\":4040:4041   */\n      dup3\n        /* \"#utility.yul\":4034:4038   */\n      dup3\n        /* \"#utility.yul\":4030:4042   */\n      sgt\n        /* \"#utility.yul\":4025:4026   */\n      0x00\n        /* \"#utility.yul\":4022:4023   */\n      dup6\n        /* \"#utility.yul\":4018:4027   */\n      slt\n        /* \"#utility.yul\":4011:4028   */\n      iszero\n        /* \"#utility.yul\":4007:4043   */\n      and\n        /* \"#utility.yul\":3991:4095   */\n      or\n        /* \"#utility.yul\":3988:4118   */\n      iszero\n      tag_103\n      jumpi\n        /* \"#utility.yul\":4098:4116   */\n      tag_104\n      tag_55\n      jump\t// in\n    tag_104:\n        /* \"#utility.yul\":3988:4118   */\n    tag_103:\n        /* \"#utility.yul\":3753:4125   */\n      swap3\n      swap2\n      pop\n      pop\n      jump\t// out\n        /* \"#utility.yul\":4131:4506   */\n    tag_41:\n        /* \"#utility.yul\":4170:4173   */\n      0x00\n        /* \"#utility.yul\":4189:4208   */\n      tag_106\n        /* \"#utility.yul\":4206:4207   */\n      dup3\n        /* \"#utility.yul\":4189:4208   */\n      tag_53\n      jump\t// in\n    tag_106:\n        /* \"#utility.yul\":4184:4208   */\n      swap2\n      pop\n        /* \"#utility.yul\":4222:4241   */\n      tag_107\n        /* \"#utility.yul\":4239:4240   */\n      dup4\n        /* \"#utility.yul\":4222:4241   */\n      tag_53\n      jump\t// in\n    tag_107:\n        /* \"#utility.yul\":4217:4241   */\n      swap3\n      pop\n        /* \"#utility.yul\":4264:4265   */\n      dup3\n        /* \"#utility.yul\":4261:4262   */\n      dup3\n        /* \"#utility.yul\":4257:4266   */\n      add\n        /* \"#utility.yul\":4250:4266   */\n      swap1\n      pop\n        /* \"#utility.yul\":4462:4463   */\n      dup3\n        /* \"#utility.yul\":4457:4460   */\n      dup2\n        /* \"#utility.yul\":4453:4464   */\n      slt\n        /* \"#utility.yul\":4446:4465   */\n      iszero\n        /* \"#utility.yul\":4442:4443   */\n      0x00\n        /* \"#utility.yul\":4439:4440   */\n      dup4\n        /* \"#utility.yul\":4435:4444   */\n      slt\n        /* \"#utility.yul\":4431:4466   */\n      and\n        /* \"#utility.yul\":4414:4415   */\n      dup4\n        /* \"#utility.yul\":4409:4412   */\n      dup3\n        /* \"#utility.yul\":4405:4416   */\n      slt\n        /* \"#utility.yul\":4400:4401   */\n      0x00\n        /* \"#utility.yul\":4397:4398   */\n      dup5\n        /* \"#utility.yul\":4393:4402   */\n      slt\n        /* \"#utility.yul\":4386:4403   */\n      iszero\n        /* \"#utility.yul\":4382:4417   */\n      and\n        /* \"#utility.yul\":4366:4476   */\n      or\n        /* \"#utility.yul\":4363:4499   */\n      iszero\n      tag_108\n      jumpi\n        /* \"#utility.yul\":4479:4497   */\n      tag_109\n      tag_55\n      jump\t// in\n    tag_109:\n        /* \"#utility.yul\":4363:4499   */\n    tag_108:\n        /* \"#utility.yul\":4131:4506   */\n      swap3\n      swap2\n      pop\n      pop\n      jump\t// out\n\n    auxdata: 0xa26469706673582212202b7a5a741a1815245520d91993b59675286a2f836d0616bd3a7a8d780dd711b664736f6c634300081d0033\n}\n",
				"bytecode": {
					"linkReferences": {},
					"object": "6080604052348015600e575f5ffd5b506105548061001c5f395ff3fe608060405234801561000f575f5ffd5b506004361061003f575f3560e01c806313d8f3e414610043578063298771e814610074578063ea4ec15914610090575b5f5ffd5b61005d60048036038101906100589190610335565b6100c0565b60405161006b929190610382565b60405180910390f35b61008e600480360381019061008991906103a9565b6100f9565b005b6100aa60048036038101906100a591906103e7565b610188565b6040516100b7919061042a565b60405180910390f35b5f602052815f5260405f2081815481106100d8575f80fd5b905f5260205f2090600202015f9150915050805f0154908060010154905082565b5f5f3373ffffffffffffffffffffffffffffffffffffffff1673ffffffffffffffffffffffffffffffffffffffff1681526020019081526020015f20604051806040016040528084815260200183815250908060018154018082558091505060019003905f5260205f2090600202015f909190919091505f820151815f01556020820151816001015550505050565b5f5f5f5f8473ffffffffffffffffffffffffffffffffffffffff1673ffffffffffffffffffffffffffffffffffffffff1681526020019081526020015f20805480602002602001604051908101604052809291908181526020015f905b82821015610228578382905f5260205f2090600202016040518060400160405290815f8201548152602001600182015481525050815260200190600101906101e5565b5050505090505f5f90505b815181101561029d5781818151811061024f5761024e610443565b5b60200260200101515f015182828151811061026d5761026c610443565b5b602002602001015160200151610283919061049d565b8361028e91906104dd565b92508080600101915050610233565b5050919050565b5f5ffd5b5f73ffffffffffffffffffffffffffffffffffffffff82169050919050565b5f6102d1826102a8565b9050919050565b6102e1816102c7565b81146102eb575f5ffd5b50565b5f813590506102fc816102d8565b92915050565b5f819050919050565b61031481610302565b811461031e575f5ffd5b50565b5f8135905061032f8161030b565b92915050565b5f5f6040838503121561034b5761034a6102a4565b5b5f610358858286016102ee565b925050602061036985828601610321565b9150509250929050565b61037c81610302565b82525050565b5f6040820190506103955f830185610373565b6103a26020830184610373565b9392505050565b5f5f604083850312156103bf576103be6102a4565b5b5f6103cc85828601610321565b92505060206103dd85828601610321565b9150509250929050565b5f602082840312156103fc576103fb6102a4565b5b5f610409848285016102ee565b91505092915050565b5f819050919050565b61042481610412565b82525050565b5f60208201905061043d5f83018461041b565b92915050565b7f4e487b71000000000000000000000000000000000000000000000000000000005f52603260045260245ffd5b7f4e487b71000000000000000000000000000000000000000000000000000000005f52601160045260245ffd5b5f6104a782610412565b91506104b283610412565b925082820390508181125f8412168282135f8512151617156104d7576104d6610470565b5b92915050565b5f6104e782610412565b91506104f283610412565b92508282019050828112155f8312168382125f84121516171561051857610517610470565b5b9291505056fea26469706673582212202b7a5a741a1815245520d91993b59675286a2f836d0616bd3a7a8d780dd711b664736f6c634300081d0033",
					"opcodes": "PUSH1 0x80 PUSH1 0x40 MSTORE CALLVALUE DUP1 ISZERO PUSH1 0xE JUMPI PUSH0 PUSH0 REVERT JUMPDEST POP PUSH2 0x554 DUP1 PUSH2 0x1C PUSH0 CODECOPY PUSH0 RETURN INVALID PUSH1 0x80 PUSH1 0x40 MSTORE CALLVALUE DUP1 ISZERO PUSH2 0xF JUMPI PUSH0 PUSH0 REVERT JUMPDEST POP PUSH1 0x4 CALLDATASIZE LT PUSH2 0x3F JUMPI PUSH0 CALLDATALOAD PUSH1 0xE0 SHR DUP1 PUSH4 0x13D8F3E4 EQ PUSH2 0x43 JUMPI DUP1 PUSH4 0x298771E8 EQ PUSH2 0x74 JUMPI DUP1 PUSH4 0xEA4EC159 EQ PUSH2 0x90 JUMPI JUMPDEST PUSH0 PUSH0 REVERT JUMPDEST PUSH2 0x5D PUSH1 0x4 DUP1 CALLDATASIZE SUB DUP2 ADD SWAP1 PUSH2 0x58 SWAP2 SWAP1 PUSH2 0x335 JUMP JUMPDEST PUSH2 0xC0 JUMP JUMPDEST PUSH1 0x40 MLOAD PUSH2 0x6B SWAP3 SWAP2 SWAP1 PUSH2 0x382 JUMP JUMPDEST PUSH1 0x40 MLOAD DUP1 SWAP2 SUB SWAP1 RETURN JUMPDEST PUSH2 0x8E PUSH1 0x4 DUP1 CALLDATASIZE SUB DUP2 ADD SWAP1 PUSH2 0x89 SWAP2 SWAP1 PUSH2 0x3A9 JUMP JUMPDEST PUSH2 0xF9 JUMP JUMPDEST STOP JUMPDEST PUSH2 0xAA PUSH1 0x4 DUP1 CALLDATASIZE SUB DUP2 ADD SWAP1 PUSH2 0xA5 SWAP2 SWAP1 PUSH2 0x3E7 JUMP JUMPDEST PUSH2 0x188 JUMP JUMPDEST PUSH1 0x40 MLOAD PUSH2 0xB7 SWAP2 SWAP1 PUSH2 0x42A JUMP JUMPDEST PUSH1 0x40 MLOAD DUP1 SWAP2 SUB SWAP1 RETURN JUMPDEST PUSH0 PUSH1 0x20 MSTORE DUP2 PUSH0 MSTORE PUSH1 0x40 PUSH0 KECCAK256 DUP2 DUP2 SLOAD DUP2 LT PUSH2 0xD8 JUMPI PUSH0 DUP1 REVERT JUMPDEST SWAP1 PUSH0 MSTORE PUSH1 0x20 PUSH0 KECCAK256 SWAP1 PUSH1 0x2 MUL ADD PUSH0 SWAP2 POP SWAP2 POP POP DUP1 PUSH0 ADD SLOAD SWAP1 DUP1 PUSH1 0x1 ADD SLOAD SWAP1 POP DUP3 JUMP JUMPDEST PUSH0 PUSH0 CALLER PUSH20 0xFFFFFFFFFFFFFFFFFFFFFFFFFFFFFFFFFFFFFFFF AND PUSH20 0xFFFFFFFFFFFFFFFFFFFFFFFFFFFFFFFFFFFFFFFF AND DUP2 MSTORE PUSH1 0x20 ADD SWAP1 DUP2 MSTORE PUSH1 0x20 ADD PUSH0 KECCAK256 PUSH1 0x40 MLOAD DUP1 PUSH1 0x40 ADD PUSH1 0x40 MSTORE DUP1 DUP5 DUP2 MSTORE PUSH1 0x20 ADD DUP4 DUP2 MSTORE POP SWAP1 DUP1 PUSH1 0x1 DUP2 SLOAD ADD DUP1 DUP3 SSTORE DUP1 SWAP2 POP POP PUSH1 0x1 SWAP1 SUB SWAP1 PUSH0 MSTORE PUSH1 0x20 PUSH0 KECCAK256 SWAP1 PUSH1 0x2 MUL ADD PUSH0 SWAP1 SWAP2 SWAP1 SWAP2 SWAP1 SWAP2 POP PUSH0 DUP3 ADD MLOAD DUP2 PUSH0 ADD SSTORE PUSH1 0x20 DUP3 ADD MLOAD DUP2 PUSH1 0x1 ADD SSTORE POP POP POP POP JUMP JUMPDEST PUSH0 PUSH0 PUSH0 PUSH0 DUP5 PUSH20 0xFFFFFFFFFFFFFFFFFFFFFFFFFFFFFFFFFFFFFFFF AND PUSH20 0xFFFFFFFFFFFFFFFFFFFFFFFFFFFFFFFFFFFFFFFF AND DUP2 MSTORE PUSH1 0x20 ADD SWAP1 DUP2 MSTORE PUSH1 0x20 ADD PUSH0 KECCAK256 DUP1 SLOAD DUP1 PUSH1 0x20 MUL PUSH1 0x20 ADD PUSH1 0x40 MLOAD SWAP1 DUP2 ADD PUSH1 0x40 MSTORE DUP1 SWAP3 SWAP2 SWAP1 DUP2 DUP2 MSTORE PUSH1 0x20 ADD PUSH0 SWAP1 JUMPDEST DUP3 DUP3 LT ISZERO PUSH2 0x228 JUMPI DUP4 DUP3 SWAP1 PUSH0 MSTORE PUSH1 0x20 PUSH0 KECCAK256 SWAP1 PUSH1 0x2 MUL ADD PUSH1 0x40 MLOAD DUP1 PUSH1 0x40 ADD PUSH1 0x40 MSTORE SWAP1 DUP2 PUSH0 DUP3 ADD SLOAD DUP2 MSTORE PUSH1 0x20 ADD PUSH1 0x1 DUP3 ADD SLOAD DUP2 MSTORE POP POP DUP2 MSTORE PUSH1 0x20 ADD SWAP1 PUSH1 0x1 ADD SWAP1 PUSH2 0x1E5 JUMP JUMPDEST POP POP POP POP SWAP1 POP PUSH0 PUSH0 SWAP1 POP JUMPDEST DUP2 MLOAD DUP2 LT ISZERO PUSH2 0x29D JUMPI DUP2 DUP2 DUP2 MLOAD DUP2 LT PUSH2 0x24F JUMPI PUSH2 0x24E PUSH2 0x443 JUMP JUMPDEST JUMPDEST PUSH1 0x20 MUL PUSH1 0x20 ADD ADD MLOAD PUSH0 ADD MLOAD DUP3 DUP3 DUP2 MLOAD DUP2 LT PUSH2 0x26D JUMPI PUSH2 0x26C PUSH2 0x443 JUMP JUMPDEST JUMPDEST PUSH1 0x20 MUL PUSH1 0x20 ADD ADD MLOAD PUSH1 0x20 ADD MLOAD PUSH2 0x283 SWAP2 SWAP1 PUSH2 0x49D JUMP JUMPDEST DUP4 PUSH2 0x28E SWAP2 SWAP1 PUSH2 0x4DD JUMP JUMPDEST SWAP3 POP DUP1 DUP1 PUSH1 0x1 ADD SWAP2 POP POP PUSH2 0x233 JUMP JUMPDEST POP POP SWAP2 SWAP1 POP JUMP JUMPDEST PUSH0 PUSH0 REVERT JUMPDEST PUSH0 PUSH20 0xFFFFFFFFFFFFFFFFFFFFFFFFFFFFFFFFFFFFFFFF DUP3 AND SWAP1 POP SWAP2 SWAP1 POP JUMP JUMPDEST PUSH0 PUSH2 0x2D1 DUP3 PUSH2 0x2A8 JUMP JUMPDEST SWAP1 POP SWAP2 SWAP1 POP JUMP JUMPDEST PUSH2 0x2E1 DUP2 PUSH2 0x2C7 JUMP JUMPDEST DUP2 EQ PUSH2 0x2EB JUMPI PUSH0 PUSH0 REVERT JUMPDEST POP JUMP JUMPDEST PUSH0 DUP2 CALLDATALOAD SWAP1 POP PUSH2 0x2FC DUP2 PUSH2 0x2D8 JUMP JUMPDEST SWAP3 SWAP2 POP POP JUMP JUMPDEST PUSH0 DUP2 SWAP1 POP SWAP2 SWAP1 POP JUMP JUMPDEST PUSH2 0x314 DUP2 PUSH2 0x302 JUMP JUMPDEST DUP2 EQ PUSH2 0x31E JUMPI PUSH0 PUSH0 REVERT JUMPDEST POP JUMP JUMPDEST PUSH0 DUP2 CALLDATALOAD SWAP1 POP PUSH2 0x32F DUP2 PUSH2 0x30B JUMP JUMPDEST SWAP3 SWAP2 POP POP JUMP JUMPDEST PUSH0 PUSH0 PUSH1 0x40 DUP4 DUP6 SUB SLT ISZERO PUSH2 0x34B JUMPI PUSH2 0x34A PUSH2 0x2A4 JUMP JUMPDEST JUMPDEST PUSH0 PUSH2 0x358 DUP6 DUP3 DUP7 ADD PUSH2 0x2EE JUMP JUMPDEST SWAP3 POP POP PUSH1 0x20 PUSH2 0x369 DUP6 DUP3 DUP7 ADD PUSH2 0x321 JUMP JUMPDEST SWAP2 POP POP SWAP3 POP SWAP3 SWAP1 POP JUMP JUMPDEST PUSH2 0x37C DUP2 PUSH2 0x302 JUMP JUMPDEST DUP3 MSTORE POP POP JUMP JUMPDEST PUSH0 PUSH1 0x40 DUP3 ADD SWAP1 POP PUSH2 0x395 PUSH0 DUP4 ADD DUP6 PUSH2 0x373 JUMP JUMPDEST PUSH2 0x3A2 PUSH1 0x20 DUP4 ADD DUP5 PUSH2 0x373 JUMP JUMPDEST SWAP4 SWAP3 POP POP POP JUMP JUMPDEST PUSH0 PUSH0 PUSH1 0x40 DUP4 DUP6 SUB SLT ISZERO PUSH2 0x3BF JUMPI PUSH2 0x3BE PUSH2 0x2A4 JUMP JUMPDEST JUMPDEST PUSH0 PUSH2 0x3CC DUP6 DUP3 DUP7 ADD PUSH2 0x321 JUMP JUMPDEST SWAP3 POP POP PUSH1 0x20 PUSH2 0x3DD DUP6 DUP3 DUP7 ADD PUSH2 0x321 JUMP JUMPDEST SWAP2 POP POP SWAP3 POP SWAP3 SWAP1 POP JUMP JUMPDEST PUSH0 PUSH1 0x20 DUP3 DUP5 SUB SLT ISZERO PUSH2 0x3FC JUMPI PUSH2 0x3FB PUSH2 0x2A4 JUMP JUMPDEST JUMPDEST PUSH0 PUSH2 0x409 DUP5 DUP3 DUP6 ADD PUSH2 0x2EE JUMP JUMPDEST SWAP2 POP POP SWAP3 SWAP2 POP POP JUMP JUMPDEST PUSH0 DUP2 SWAP1 POP SWAP2 SWAP1 POP JUMP JUMPDEST PUSH2 0x424 DUP2 PUSH2 0x412 JUMP JUMPDEST DUP3 MSTORE POP POP JUMP JUMPDEST PUSH0 PUSH1 0x20 DUP3 ADD SWAP1 POP PUSH2 0x43D PUSH0 DUP4 ADD DUP5 PUSH2 0x41B JUMP JUMPDEST SWAP3 SWAP2 POP POP JUMP JUMPDEST PUSH32 0x4E487B7100000000000000000000000000000000000000000000000000000000 PUSH0 MSTORE PUSH1 0x32 PUSH1 0x4 MSTORE PUSH1 0x24 PUSH0 REVERT JUMPDEST PUSH32 0x4E487B7100000000000000000000000000000000000000000000000000000000 PUSH0 MSTORE PUSH1 0x11 PUSH1 0x4 MSTORE PUSH1 0x24 PUSH0 REVERT JUMPDEST PUSH0 PUSH2 0x4A7 DUP3 PUSH2 0x412 JUMP JUMPDEST SWAP2 POP PUSH2 0x4B2 DUP4 PUSH2 0x412 JUMP JUMPDEST SWAP3 POP DUP3 DUP3 SUB SWAP1 POP DUP2 DUP2 SLT PUSH0 DUP5 SLT AND DUP3 DUP3 SGT PUSH0 DUP6 SLT ISZERO AND OR ISZERO PUSH2 0x4D7 JUMPI PUSH2 0x4D6 PUSH2 0x470 JUMP JUMPDEST JUMPDEST SWAP3 SWAP2 POP POP JUMP JUMPDEST PUSH0 PUSH2 0x4E7 DUP3 PUSH2 0x412 JUMP JUMPDEST SWAP2 POP PUSH2 0x4F2 DUP4 PUSH2 0x412 JUMP JUMPDEST SWAP3 POP DUP3 DUP3 ADD SWAP1 POP DUP3 DUP2 SLT ISZERO PUSH0 DUP4 SLT AND DUP4 DUP3 SLT PUSH0 DUP5 SLT ISZERO AND OR ISZERO PUSH2 0x518 JUMPI PUSH2 0x517 PUSH2 0x470 JUMP JUMPDEST JUMPDEST SWAP3 SWAP2 POP POP JUMP INVALID LOG2 PUSH5 0x6970667358 0x22 SLT KECCAK256 0x2B PUSH27 0x5A741A1815245520D91993B59675286A2F836D0616BD3A7A8D780D 0xD7 GT 0xB6 PUSH5 0x736F6C6343 STOP ADDMOD SAR STOP CALLER "
				},
				"gasEstimates": {
					"creation": {
						"codeDepositCost": "272800",
						"executionCost": "310",
						"totalCost": "273110"
					},
					"external": {
						"recordTrade(uint256,uint256)": "infinite",
						"totalGains(address)": "infinite",
						"trades(address,uint256)": "infinite"
					}
				},
				"methodIdentifiers": {
					"recordTrade(uint256,uint256)": "298771e8",
					"totalGains(address)": "ea4ec159",
					"trades(address,uint256)": "13d8f3e4"
				}
			},
			"storageLayout": {
				"storage": [
					{
						"astId": 12,
						"contract": "G/Trading Gains.sol:TradingGains",
						"label": "trades",
						"offset": 0,
						"slot": "0",
						"type": "t_mapping(t_address,t_array(t_struct(Trade)6_storage)dyn_storage)"
					}
				],
				"types": {
					"t_address": {
						"encoding": "inplace",
						"label": "address",
						"numberOfBytes": "20"
					},
					"t_array(t_struct(Trade)6_storage)dyn_storage": {
						"base": "t_struct(Trade)6_storage",
						"encoding": "dynamic_array",
						"label": "struct TradingGains.Trade[]",
						"numberOfBytes": "32"
					},
					"t_mapping(t_address,t_array(t_struct(Trade)6_storage)dyn_storage)": {
						"encoding": "mapping",
						"key": "t_address",
						"label": "mapping(address => struct TradingGains.Trade[])",
						"numberOfBytes": "32",
						"value": "t_array(t_struct(Trade)6_storage)dyn_storage"
					},
					"t_struct(Trade)6_storage": {
						"encoding": "inplace",
						"label": "struct TradingGains.Trade",
						"members": [
							{
								"astId": 3,
								"contract": "G/Trading Gains.sol:TradingGains",
								"label": "entry",
								"offset": 0,
								"slot": "0",
								"type": "t_uint256"
							},
							{
								"astId": 5,
								"contract": "G/Trading Gains.sol:TradingGains",
								"label": "exit",
								"offset": 0,
								"slot": "1",
								"type": "t_uint256"
							}
						],
						"numberOfBytes": "64"
					},
					"t_uint256": {
						"encoding": "inplace",
						"label": "uint256",
						"numberOfBytes": "32"
					}
				}
			},
			"userdoc": {
				"kind": "user",
				"methods": {},
				"version": 1
			}
		}
	}
}