{
	"batchAuctions/discriminatoryPriceBatchAuction.sol": {
		"DiscriminatoryPriceBatchAuction": {
			"abi": [
				{
					"inputs": [
						{
							"internalType": "uint256",
							"name": "_supply",
							"type": "uint256"
						}
					],
					"stateMutability": "nonpayable",
					"type": "constructor"
				},
				{
					"anonymous": false,
					"inputs": [
						{
							"indexed": false,
							"internalType": "address[]",
							"name": "winners",
							"type": "address[]"
						}
					],
					"name": "AuctionClosed",
					"type": "event"
				},
				{
					"anonymous": false,
					"inputs": [
						{
							"indexed": true,
							"internalType": "address",
							"name": "bidder",
							"type": "address"
						},
						{
							"indexed": false,
							"internalType": "uint256",
							"name": "price",
							"type": "uint256"
						}
					],
					"name": "BidPlaced",
					"type": "event"
				},
				{
					"inputs": [],
					"name": "admin",
					"outputs": [
						{
							"internalType": "address",
							"name": "",
							"type": "address"
						}
					],
					"stateMutability": "view",
					"type": "function"
				},
				{
					"inputs": [],
					"name": "auctionClosed",
					"outputs": [
						{
							"internalType": "bool",
							"name": "",
							"type": "bool"
						}
					],
					"stateMutability": "view",
					"type": "function"
				},
				{
					"inputs": [
						{
							"internalType": "uint256",
							"name": "price",
							"type": "uint256"
						}
					],
					"name": "bid",
					"outputs": [],
					"stateMutability": "nonpayable",
					"type": "function"
				},
				{
					"inputs": [
						{
							"internalType": "uint256",
							"name": "",
							"type": "uint256"
						}
					],
					"name": "bids",
					"outputs": [
						{
							"internalType": "address",
							"name": "bidder",
							"type": "address"
						},
						{
							"internalType": "uint256",
							"name": "price",
							"type": "uint256"
						}
					],
					"stateMutability": "view",
					"type": "function"
				},
				{
					"inputs": [],
					"name": "closeAuction",
					"outputs": [],
					"stateMutability": "nonpayable",
					"type": "function"
				},
				{
					"inputs": [
						{
							"internalType": "address",
							"name": "",
							"type": "address"
						}
					],
					"name": "isWinner",
					"outputs": [
						{
							"internalType": "bool",
							"name": "",
							"type": "bool"
						}
					],
					"stateMutability": "view",
					"type": "function"
				},
				{
					"inputs": [],
					"name": "supply",
					"outputs": [
						{
							"internalType": "uint256",
							"name": "",
							"type": "uint256"
						}
					],
					"stateMutability": "view",
					"type": "function"
				}
			],
			"devdoc": {
				"kind": "dev",
				"methods": {},
				"version": 1
			},
			"evm": {
				"assembly": "    /* \"batchAuctions/discriminatoryPriceBatchAuction.sol\":57:2225  contract DiscriminatoryPriceBatchAuction {... */\n  mstore(0x40, 0x80)\n    /* \"batchAuctions/discriminatoryPriceBatchAuction.sol\":623:744  constructor(uint256 _supply) {... */\n  callvalue\n  dup1\n  iszero\n  tag_1\n  jumpi\n  0x00\n  dup1\n  revert\ntag_1:\n  pop\n  mload(0x40)\n  sub(codesize, bytecodeSize)\n  dup1\n  bytecodeSize\n  dup4\n  codecopy\n  dup2\n  dup2\n  add\n  0x40\n  mstore\n  dup2\n  add\n  swap1\n  tag_2\n  swap2\n  swap1\n  tag_3\n  jump\t// in\ntag_2:\n    /* \"batchAuctions/discriminatoryPriceBatchAuction.sol\":670:680  msg.sender */\n  caller\n    /* \"batchAuctions/discriminatoryPriceBatchAuction.sol\":662:667  admin */\n  0x03\n  0x00\n    /* \"batchAuctions/discriminatoryPriceBatchAuction.sol\":662:680  admin = msg.sender */\n  0x0100\n  exp\n  dup2\n  sload\n  dup2\n  0xffffffffffffffffffffffffffffffffffffffff\n  mul\n  not\n  and\n  swap1\n  dup4\n  0xffffffffffffffffffffffffffffffffffffffff\n  and\n  mul\n  or\n  swap1\n  sstore\n  pop\n    /* \"batchAuctions/discriminatoryPriceBatchAuction.sol\":699:706  _supply */\n  dup1\n    /* \"batchAuctions/discriminatoryPriceBatchAuction.sol\":690:696  supply */\n  0x02\n    /* \"batchAuctions/discriminatoryPriceBatchAuction.sol\":690:706  supply = _supply */\n  dup2\n  swap1\n  sstore\n  pop\n    /* \"batchAuctions/discriminatoryPriceBatchAuction.sol\":732:737  false */\n  0x00\n    /* \"batchAuctions/discriminatoryPriceBatchAuction.sol\":716:729  auctionClosed */\n  0x01\n  0x00\n    /* \"batchAuctions/discriminatoryPriceBatchAuction.sol\":716:737  auctionClosed = false */\n  0x0100\n  exp\n  dup2\n  sload\n  dup2\n  0xff\n  mul\n  not\n  and\n  swap1\n  dup4\n  iszero\n  iszero\n  mul\n  or\n  swap1\n  sstore\n  pop\n    /* \"batchAuctions/discriminatoryPriceBatchAuction.sol\":623:744  constructor(uint256 _supply) {... */\n  pop\n    /* \"batchAuctions/discriminatoryPriceBatchAuction.sol\":57:2225  contract DiscriminatoryPriceBatchAuction {... */\n  jump(tag_6)\n    /* \"#utility.yul\":88:205   */\ntag_8:\n    /* \"#utility.yul\":197:198   */\n  0x00\n    /* \"#utility.yul\":194:195   */\n  dup1\n    /* \"#utility.yul\":187:199   */\n  revert\n    /* \"#utility.yul\":334:411   */\ntag_10:\n    /* \"#utility.yul\":371:378   */\n  0x00\n    /* \"#utility.yul\":400:405   */\n  dup2\n    /* \"#utility.yul\":389:405   */\n  swap1\n  pop\n    /* \"#utility.yul\":334:411   */\n  swap2\n  swap1\n  pop\n  jump\t// out\n    /* \"#utility.yul\":417:539   */\ntag_11:\n    /* \"#utility.yul\":490:514   */\n  tag_19\n    /* \"#utility.yul\":508:513   */\n  dup2\n    /* \"#utility.yul\":490:514   */\n  tag_10\n  jump\t// in\ntag_19:\n    /* \"#utility.yul\":483:488   */\n  dup2\n    /* \"#utility.yul\":480:515   */\n  eq\n    /* \"#utility.yul\":470:533   */\n  tag_20\n  jumpi\n    /* \"#utility.yul\":529:530   */\n  0x00\n    /* \"#utility.yul\":526:527   */\n  dup1\n    /* \"#utility.yul\":519:531   */\n  revert\n    /* \"#utility.yul\":470:533   */\ntag_20:\n    /* \"#utility.yul\":417:539   */\n  pop\n  jump\t// out\n    /* \"#utility.yul\":545:688   */\ntag_12:\n    /* \"#utility.yul\":602:607   */\n  0x00\n    /* \"#utility.yul\":633:639   */\n  dup2\n    /* \"#utility.yul\":627:640   */\n  mload\n    /* \"#utility.yul\":618:640   */\n  swap1\n  pop\n    /* \"#utility.yul\":649:682   */\n  tag_22\n    /* \"#utility.yul\":676:681   */\n  dup2\n    /* \"#utility.yul\":649:682   */\n  tag_11\n  jump\t// in\ntag_22:\n    /* \"#utility.yul\":545:688   */\n  swap3\n  swap2\n  pop\n  pop\n  jump\t// out\n    /* \"#utility.yul\":694:1045   */\ntag_3:\n    /* \"#utility.yul\":764:770   */\n  0x00\n    /* \"#utility.yul\":813:815   */\n  0x20\n    /* \"#utility.yul\":801:810   */\n  dup3\n    /* \"#utility.yul\":792:799   */\n  dup5\n    /* \"#utility.yul\":788:811   */\n  sub\n    /* \"#utility.yul\":784:816   */\n  slt\n    /* \"#utility.yul\":781:900   */\n  iszero\n  tag_24\n  jumpi\n    /* \"#utility.yul\":819:898   */\n  tag_25\n  tag_8\n  jump\t// in\ntag_25:\n    /* \"#utility.yul\":781:900   */\ntag_24:\n    /* \"#utility.yul\":939:940   */\n  0x00\n    /* \"#utility.yul\":964:1028   */\n  tag_26\n    /* \"#utility.yul\":1020:1027   */\n  dup5\n    /* \"#utility.yul\":1011:1017   */\n  dup3\n    /* \"#utility.yul\":1000:1009   */\n  dup6\n    /* \"#utility.yul\":996:1018   */\n  add\n    /* \"#utility.yul\":964:1028   */\n  tag_12\n  jump\t// in\ntag_26:\n    /* \"#utility.yul\":954:1028   */\n  swap2\n  pop\n    /* \"#utility.yul\":910:1038   */\n  pop\n    /* \"#utility.yul\":694:1045   */\n  swap3\n  swap2\n  pop\n  pop\n  jump\t// out\n    /* \"batchAuctions/discriminatoryPriceBatchAuction.sol\":57:2225  contract DiscriminatoryPriceBatchAuction {... */\ntag_6:\n  dataSize(sub_0)\n  dup1\n  dataOffset(sub_0)\n  0x00\n  codecopy\n  0x00\n  return\nstop\n\nsub_0: assembly {\n        /* \"batchAuctions/discriminatoryPriceBatchAuction.sol\":57:2225  contract DiscriminatoryPriceBatchAuction {... */\n      mstore(0x40, 0x80)\n      callvalue\n      dup1\n      iszero\n      tag_1\n      jumpi\n      0x00\n      dup1\n      revert\n    tag_1:\n      pop\n      jumpi(tag_2, lt(calldatasize, 0x04))\n      shr(0xe0, calldataload(0x00))\n      dup1\n      0x454a2ab3\n      gt\n      tag_10\n      jumpi\n      dup1\n      0x454a2ab3\n      eq\n      tag_6\n      jumpi\n      dup1\n      0x9d9ca28d\n      eq\n      tag_7\n      jumpi\n      dup1\n      0xaeaaa299\n      eq\n      tag_8\n      jumpi\n      dup1\n      0xf851a440\n      eq\n      tag_9\n      jumpi\n      jump(tag_2)\n    tag_10:\n      dup1\n      0x047fc9aa\n      eq\n      tag_3\n      jumpi\n      dup1\n      0x378252f2\n      eq\n      tag_4\n      jumpi\n      dup1\n      0x4423c5f1\n      eq\n      tag_5\n      jumpi\n    tag_2:\n      0x00\n      dup1\n      revert\n        /* \"batchAuctions/discriminatoryPriceBatchAuction.sol\":260:281  uint256 public supply */\n    tag_3:\n      tag_11\n      tag_12\n      jump\t// in\n    tag_11:\n      mload(0x40)\n      tag_13\n      swap2\n      swap1\n      tag_14\n      jump\t// in\n    tag_13:\n      mload(0x40)\n      dup1\n      swap2\n      sub\n      swap1\n      return\n        /* \"batchAuctions/discriminatoryPriceBatchAuction.sol\":1590:2223  function closeAuction() public onlyAdmin {... */\n    tag_4:\n      tag_15\n      tag_16\n      jump\t// in\n    tag_15:\n      stop\n        /* \"batchAuctions/discriminatoryPriceBatchAuction.sol\":206:223  Bid[] public bids */\n    tag_5:\n      tag_17\n      0x04\n      dup1\n      calldatasize\n      sub\n      dup2\n      add\n      swap1\n      tag_18\n      swap2\n      swap1\n      tag_19\n      jump\t// in\n    tag_18:\n      tag_20\n      jump\t// in\n    tag_17:\n      mload(0x40)\n      tag_21\n      swap3\n      swap2\n      swap1\n      tag_22\n      jump\t// in\n    tag_21:\n      mload(0x40)\n      dup1\n      swap2\n      sub\n      swap1\n      return\n        /* \"batchAuctions/discriminatoryPriceBatchAuction.sol\":816:1012  function bid(uint256 price) public {... */\n    tag_6:\n      tag_23\n      0x04\n      dup1\n      calldatasize\n      sub\n      dup2\n      add\n      swap1\n      tag_24\n      swap2\n      swap1\n      tag_19\n      jump\t// in\n    tag_24:\n      tag_25\n      jump\t// in\n    tag_23:\n      stop\n        /* \"batchAuctions/discriminatoryPriceBatchAuction.sol\":351:391  mapping(address => bool) public isWinner */\n    tag_7:\n      tag_26\n      0x04\n      dup1\n      calldatasize\n      sub\n      dup2\n      add\n      swap1\n      tag_27\n      swap2\n      swap1\n      tag_28\n      jump\t// in\n    tag_27:\n      tag_29\n      jump\t// in\n    tag_26:\n      mload(0x40)\n      tag_30\n      swap2\n      swap1\n      tag_31\n      jump\t// in\n    tag_30:\n      mload(0x40)\n      dup1\n      swap2\n      sub\n      swap1\n      return\n        /* \"batchAuctions/discriminatoryPriceBatchAuction.sol\":229:254  bool public auctionClosed */\n    tag_8:\n      tag_32\n      tag_33\n      jump\t// in\n    tag_32:\n      mload(0x40)\n      tag_34\n      swap2\n      swap1\n      tag_31\n      jump\t// in\n    tag_34:\n      mload(0x40)\n      dup1\n      swap2\n      sub\n      swap1\n      return\n        /* \"batchAuctions/discriminatoryPriceBatchAuction.sol\":325:345  address public admin */\n    tag_9:\n      tag_35\n      tag_36\n      jump\t// in\n    tag_35:\n      mload(0x40)\n      tag_37\n      swap2\n      swap1\n      tag_38\n      jump\t// in\n    tag_37:\n      mload(0x40)\n      dup1\n      swap2\n      sub\n      swap1\n      return\n        /* \"batchAuctions/discriminatoryPriceBatchAuction.sol\":260:281  uint256 public supply */\n    tag_12:\n      sload(0x02)\n      dup2\n      jump\t// out\n        /* \"batchAuctions/discriminatoryPriceBatchAuction.sol\":1590:2223  function closeAuction() public onlyAdmin {... */\n    tag_16:\n        /* \"batchAuctions/discriminatoryPriceBatchAuction.sol\":556:561  admin */\n      0x03\n      0x00\n      swap1\n      sload\n      swap1\n      0x0100\n      exp\n      swap1\n      div\n      0xffffffffffffffffffffffffffffffffffffffff\n      and\n        /* \"batchAuctions/discriminatoryPriceBatchAuction.sol\":542:561  msg.sender == admin */\n      0xffffffffffffffffffffffffffffffffffffffff\n      and\n        /* \"batchAuctions/discriminatoryPriceBatchAuction.sol\":542:552  msg.sender */\n      caller\n        /* \"batchAuctions/discriminatoryPriceBatchAuction.sol\":542:561  msg.sender == admin */\n      0xffffffffffffffffffffffffffffffffffffffff\n      and\n      eq\n        /* \"batchAuctions/discriminatoryPriceBatchAuction.sol\":534:599  require(msg.sender == admin, \"Only admin can call this function\") */\n      tag_40\n      jumpi\n      mload(0x40)\n      0x08c379a000000000000000000000000000000000000000000000000000000000\n      dup2\n      mstore\n      0x04\n      add\n      tag_41\n      swap1\n      tag_42\n      jump\t// in\n    tag_41:\n      mload(0x40)\n      dup1\n      swap2\n      sub\n      swap1\n      revert\n    tag_40:\n        /* \"batchAuctions/discriminatoryPriceBatchAuction.sol\":1650:1663  auctionClosed */\n      0x01\n      0x00\n      swap1\n      sload\n      swap1\n      0x0100\n      exp\n      swap1\n      div\n      0xff\n      and\n        /* \"batchAuctions/discriminatoryPriceBatchAuction.sol\":1649:1663  !auctionClosed */\n      iszero\n        /* \"batchAuctions/discriminatoryPriceBatchAuction.sol\":1641:1690  require(!auctionClosed, \"Auction already closed\") */\n      tag_44\n      jumpi\n      mload(0x40)\n      0x08c379a000000000000000000000000000000000000000000000000000000000\n      dup2\n      mstore\n      0x04\n      add\n      tag_45\n      swap1\n      tag_46\n      jump\t// in\n    tag_45:\n      mload(0x40)\n      dup1\n      swap2\n      sub\n      swap1\n      revert\n    tag_44:\n        /* \"batchAuctions/discriminatoryPriceBatchAuction.sol\":1723:1729  supply */\n      sload(0x02)\n        /* \"batchAuctions/discriminatoryPriceBatchAuction.sol\":1708:1712  bids */\n      0x00\n        /* \"batchAuctions/discriminatoryPriceBatchAuction.sol\":1708:1719  bids.length */\n      dup1\n      sload\n      swap1\n      pop\n        /* \"batchAuctions/discriminatoryPriceBatchAuction.sol\":1708:1729  bids.length >= supply */\n      lt\n      iszero\n        /* \"batchAuctions/discriminatoryPriceBatchAuction.sol\":1700:1749  require(bids.length >= supply, \"Not enough bids\") */\n      tag_47\n      jumpi\n      mload(0x40)\n      0x08c379a000000000000000000000000000000000000000000000000000000000\n      dup2\n      mstore\n      0x04\n      add\n      tag_48\n      swap1\n      tag_49\n      jump\t// in\n    tag_48:\n      mload(0x40)\n      dup1\n      swap2\n      sub\n      swap1\n      revert\n    tag_47:\n        /* \"batchAuctions/discriminatoryPriceBatchAuction.sol\":1759:1769  sortBids() */\n      tag_50\n        /* \"batchAuctions/discriminatoryPriceBatchAuction.sol\":1759:1767  sortBids */\n      tag_51\n        /* \"batchAuctions/discriminatoryPriceBatchAuction.sol\":1759:1769  sortBids() */\n      jump\t// in\n    tag_50:\n        /* \"batchAuctions/discriminatoryPriceBatchAuction.sol\":1838:1847  uint256 i */\n      0x00\n        /* \"batchAuctions/discriminatoryPriceBatchAuction.sol\":1833:1926  for (uint256 i = 0; i < supply; i++) {... */\n    tag_52:\n        /* \"batchAuctions/discriminatoryPriceBatchAuction.sol\":1857:1863  supply */\n      sload(0x02)\n        /* \"batchAuctions/discriminatoryPriceBatchAuction.sol\":1853:1854  i */\n      dup2\n        /* \"batchAuctions/discriminatoryPriceBatchAuction.sol\":1853:1863  i < supply */\n      lt\n        /* \"batchAuctions/discriminatoryPriceBatchAuction.sol\":1833:1926  for (uint256 i = 0; i < supply; i++) {... */\n      iszero\n      tag_53\n      jumpi\n        /* \"batchAuctions/discriminatoryPriceBatchAuction.sol\":1911:1915  true */\n      0x01\n        /* \"batchAuctions/discriminatoryPriceBatchAuction.sol\":1884:1892  isWinner */\n      0x04\n        /* \"batchAuctions/discriminatoryPriceBatchAuction.sol\":1884:1908  isWinner[bids[i].bidder] */\n      0x00\n        /* \"batchAuctions/discriminatoryPriceBatchAuction.sol\":1893:1897  bids */\n      dup1\n        /* \"batchAuctions/discriminatoryPriceBatchAuction.sol\":1898:1899  i */\n      dup5\n        /* \"batchAuctions/discriminatoryPriceBatchAuction.sol\":1893:1900  bids[i] */\n      dup2\n      sload\n      dup2\n      lt\n      tag_55\n      jumpi\n      tag_56\n      tag_57\n      jump\t// in\n    tag_56:\n    tag_55:\n      swap1\n      0x00\n      mstore\n      keccak256(0x00, 0x20)\n      swap1\n      0x02\n      mul\n      add\n        /* \"batchAuctions/discriminatoryPriceBatchAuction.sol\":1893:1907  bids[i].bidder */\n      0x00\n      add\n      0x00\n      swap1\n      sload\n      swap1\n      0x0100\n      exp\n      swap1\n      div\n      0xffffffffffffffffffffffffffffffffffffffff\n      and\n        /* \"batchAuctions/discriminatoryPriceBatchAuction.sol\":1884:1908  isWinner[bids[i].bidder] */\n      0xffffffffffffffffffffffffffffffffffffffff\n      and\n      0xffffffffffffffffffffffffffffffffffffffff\n      and\n      dup2\n      mstore\n      0x20\n      add\n      swap1\n      dup2\n      mstore\n      0x20\n      add\n      0x00\n      keccak256\n      0x00\n        /* \"batchAuctions/discriminatoryPriceBatchAuction.sol\":1884:1915  isWinner[bids[i].bidder] = true */\n      0x0100\n      exp\n      dup2\n      sload\n      dup2\n      0xff\n      mul\n      not\n      and\n      swap1\n      dup4\n      iszero\n      iszero\n      mul\n      or\n      swap1\n      sstore\n      pop\n        /* \"batchAuctions/discriminatoryPriceBatchAuction.sol\":1865:1868  i++ */\n      dup1\n      dup1\n      tag_59\n      swap1\n      tag_60\n      jump\t// in\n    tag_59:\n      swap2\n      pop\n      pop\n        /* \"batchAuctions/discriminatoryPriceBatchAuction.sol\":1833:1926  for (uint256 i = 0; i < supply; i++) {... */\n      jump(tag_52)\n    tag_53:\n      pop\n        /* \"batchAuctions/discriminatoryPriceBatchAuction.sol\":1960:1964  true */\n      0x01\n        /* \"batchAuctions/discriminatoryPriceBatchAuction.sol\":1944:1957  auctionClosed */\n      dup1\n      0x00\n        /* \"batchAuctions/discriminatoryPriceBatchAuction.sol\":1944:1964  auctionClosed = true */\n      0x0100\n      exp\n      dup2\n      sload\n      dup2\n      0xff\n      mul\n      not\n      and\n      swap1\n      dup4\n      iszero\n      iszero\n      mul\n      or\n      swap1\n      sstore\n      pop\n        /* \"batchAuctions/discriminatoryPriceBatchAuction.sol\":2021:2049  address[] memory winnersList */\n      0x00\n        /* \"batchAuctions/discriminatoryPriceBatchAuction.sol\":2066:2072  supply */\n      sload(0x02)\n        /* \"batchAuctions/discriminatoryPriceBatchAuction.sol\":2052:2073  new address[](supply) */\n      0xffffffffffffffff\n      dup2\n      gt\n      iszero\n      tag_61\n      jumpi\n      tag_62\n      tag_63\n      jump\t// in\n    tag_62:\n    tag_61:\n      mload(0x40)\n      swap1\n      dup1\n      dup3\n      mstore\n      dup1\n      0x20\n      mul\n      0x20\n      add\n      dup3\n      add\n      0x40\n      mstore\n      dup1\n      iszero\n      tag_64\n      jumpi\n      dup2\n      0x20\n      add\n      0x20\n      dup3\n      mul\n      dup1\n      calldatasize\n      dup4\n      calldatacopy\n      dup1\n      dup3\n      add\n      swap2\n      pop\n      pop\n      swap1\n      pop\n    tag_64:\n      pop\n        /* \"batchAuctions/discriminatoryPriceBatchAuction.sol\":2021:2073  address[] memory winnersList = new address[](supply) */\n      swap1\n      pop\n        /* \"batchAuctions/discriminatoryPriceBatchAuction.sol\":2088:2097  uint256 i */\n      0x00\n        /* \"batchAuctions/discriminatoryPriceBatchAuction.sol\":2083:2176  for (uint256 i = 0; i < supply; i++) {... */\n    tag_65:\n        /* \"batchAuctions/discriminatoryPriceBatchAuction.sol\":2107:2113  supply */\n      sload(0x02)\n        /* \"batchAuctions/discriminatoryPriceBatchAuction.sol\":2103:2104  i */\n      dup2\n        /* \"batchAuctions/discriminatoryPriceBatchAuction.sol\":2103:2113  i < supply */\n      lt\n        /* \"batchAuctions/discriminatoryPriceBatchAuction.sol\":2083:2176  for (uint256 i = 0; i < supply; i++) {... */\n      iszero\n      tag_66\n      jumpi\n        /* \"batchAuctions/discriminatoryPriceBatchAuction.sol\":2151:2155  bids */\n      0x00\n        /* \"batchAuctions/discriminatoryPriceBatchAuction.sol\":2156:2157  i */\n      dup2\n        /* \"batchAuctions/discriminatoryPriceBatchAuction.sol\":2151:2158  bids[i] */\n      dup2\n      sload\n      dup2\n      lt\n      tag_68\n      jumpi\n      tag_69\n      tag_57\n      jump\t// in\n    tag_69:\n    tag_68:\n      swap1\n      0x00\n      mstore\n      keccak256(0x00, 0x20)\n      swap1\n      0x02\n      mul\n      add\n        /* \"batchAuctions/discriminatoryPriceBatchAuction.sol\":2151:2165  bids[i].bidder */\n      0x00\n      add\n      0x00\n      swap1\n      sload\n      swap1\n      0x0100\n      exp\n      swap1\n      div\n      0xffffffffffffffffffffffffffffffffffffffff\n      and\n        /* \"batchAuctions/discriminatoryPriceBatchAuction.sol\":2134:2145  winnersList */\n      dup3\n        /* \"batchAuctions/discriminatoryPriceBatchAuction.sol\":2146:2147  i */\n      dup3\n        /* \"batchAuctions/discriminatoryPriceBatchAuction.sol\":2134:2148  winnersList[i] */\n      dup2\n      mload\n      dup2\n      lt\n      tag_71\n      jumpi\n      tag_72\n      tag_57\n      jump\t// in\n    tag_72:\n    tag_71:\n      0x20\n      mul\n      0x20\n      add\n      add\n        /* \"batchAuctions/discriminatoryPriceBatchAuction.sol\":2134:2165  winnersList[i] = bids[i].bidder */\n      swap1\n      0xffffffffffffffffffffffffffffffffffffffff\n      and\n      swap1\n      dup2\n      0xffffffffffffffffffffffffffffffffffffffff\n      and\n      dup2\n      mstore\n      pop\n      pop\n        /* \"batchAuctions/discriminatoryPriceBatchAuction.sol\":2115:2118  i++ */\n      dup1\n      dup1\n      tag_73\n      swap1\n      tag_60\n      jump\t// in\n    tag_73:\n      swap2\n      pop\n      pop\n        /* \"batchAuctions/discriminatoryPriceBatchAuction.sol\":2083:2176  for (uint256 i = 0; i < supply; i++) {... */\n      jump(tag_65)\n    tag_66:\n      pop\n        /* \"batchAuctions/discriminatoryPriceBatchAuction.sol\":2190:2216  AuctionClosed(winnersList) */\n      0xccbe60a537e1933896a1c47036a64393af57cc6e63a394a5663a4cbc4a454c3f\n        /* \"batchAuctions/discriminatoryPriceBatchAuction.sol\":2204:2215  winnersList */\n      dup2\n        /* \"batchAuctions/discriminatoryPriceBatchAuction.sol\":2190:2216  AuctionClosed(winnersList) */\n      mload(0x40)\n      tag_74\n      swap2\n      swap1\n      tag_75\n      jump\t// in\n    tag_74:\n      mload(0x40)\n      dup1\n      swap2\n      sub\n      swap1\n      log1\n        /* \"batchAuctions/discriminatoryPriceBatchAuction.sol\":1631:2223  {... */\n      pop\n        /* \"batchAuctions/discriminatoryPriceBatchAuction.sol\":1590:2223  function closeAuction() public onlyAdmin {... */\n      jump\t// out\n        /* \"batchAuctions/discriminatoryPriceBatchAuction.sol\":206:223  Bid[] public bids */\n    tag_20:\n      0x00\n      dup2\n      dup2\n      sload\n      dup2\n      lt\n      tag_76\n      jumpi\n      0x00\n      dup1\n      revert\n    tag_76:\n      swap1\n      0x00\n      mstore\n      keccak256(0x00, 0x20)\n      swap1\n      0x02\n      mul\n      add\n      0x00\n      swap2\n      pop\n      swap1\n      pop\n      dup1\n      0x00\n      add\n      0x00\n      swap1\n      sload\n      swap1\n      0x0100\n      exp\n      swap1\n      div\n      0xffffffffffffffffffffffffffffffffffffffff\n      and\n      swap1\n      dup1\n      0x01\n      add\n      sload\n      swap1\n      pop\n      dup3\n      jump\t// out\n        /* \"batchAuctions/discriminatoryPriceBatchAuction.sol\":816:1012  function bid(uint256 price) public {... */\n    tag_25:\n        /* \"batchAuctions/discriminatoryPriceBatchAuction.sol\":870:883  auctionClosed */\n      0x01\n      0x00\n      swap1\n      sload\n      swap1\n      0x0100\n      exp\n      swap1\n      div\n      0xff\n      and\n        /* \"batchAuctions/discriminatoryPriceBatchAuction.sol\":869:883  !auctionClosed */\n      iszero\n        /* \"batchAuctions/discriminatoryPriceBatchAuction.sol\":861:902  require(!auctionClosed, \"Auction closed\") */\n      tag_79\n      jumpi\n      mload(0x40)\n      0x08c379a000000000000000000000000000000000000000000000000000000000\n      dup2\n      mstore\n      0x04\n      add\n      tag_80\n      swap1\n      tag_81\n      jump\t// in\n    tag_80:\n      mload(0x40)\n      dup1\n      swap2\n      sub\n      swap1\n      revert\n    tag_79:\n        /* \"batchAuctions/discriminatoryPriceBatchAuction.sol\":912:916  bids */\n      0x00\n        /* \"batchAuctions/discriminatoryPriceBatchAuction.sol\":922:961  Bid({bidder: msg.sender, price: price}) */\n      mload(0x40)\n      dup1\n      0x40\n      add\n      0x40\n      mstore\n      dup1\n        /* \"batchAuctions/discriminatoryPriceBatchAuction.sol\":935:945  msg.sender */\n      caller\n        /* \"batchAuctions/discriminatoryPriceBatchAuction.sol\":922:961  Bid({bidder: msg.sender, price: price}) */\n      0xffffffffffffffffffffffffffffffffffffffff\n      and\n      dup2\n      mstore\n      0x20\n      add\n        /* \"batchAuctions/discriminatoryPriceBatchAuction.sol\":954:959  price */\n      dup4\n        /* \"batchAuctions/discriminatoryPriceBatchAuction.sol\":922:961  Bid({bidder: msg.sender, price: price}) */\n      dup2\n      mstore\n      pop\n        /* \"batchAuctions/discriminatoryPriceBatchAuction.sol\":912:962  bids.push(Bid({bidder: msg.sender, price: price})) */\n      swap1\n      dup1\n      0x01\n      dup2\n      sload\n      add\n      dup1\n      dup3\n      sstore\n      dup1\n      swap2\n      pop\n      pop\n      0x01\n      swap1\n      sub\n      swap1\n      0x00\n      mstore\n      keccak256(0x00, 0x20)\n      swap1\n      0x02\n      mul\n      add\n      0x00\n      swap1\n      swap2\n      swap1\n      swap2\n      swap1\n      swap2\n      pop\n      0x00\n      dup3\n      add\n      mload\n      dup2\n      0x00\n      add\n      exp(0x0100, 0x00)\n      dup2\n      sload\n      dup2\n      0xffffffffffffffffffffffffffffffffffffffff\n      mul\n      not\n      and\n      swap1\n      dup4\n      0xffffffffffffffffffffffffffffffffffffffff\n      and\n      mul\n      or\n      swap1\n      sstore\n      pop\n      0x20\n      dup3\n      add\n      mload\n      dup2\n      0x01\n      add\n      sstore\n      pop\n      pop\n        /* \"batchAuctions/discriminatoryPriceBatchAuction.sol\":987:997  msg.sender */\n      caller\n        /* \"batchAuctions/discriminatoryPriceBatchAuction.sol\":977:1005  BidPlaced(msg.sender, price) */\n      0xffffffffffffffffffffffffffffffffffffffff\n      and\n      0x3fabff0a9c3ecd6814702e247fa9733e5d0aa69e3a38590f92cb18f623a2254d\n        /* \"batchAuctions/discriminatoryPriceBatchAuction.sol\":999:1004  price */\n      dup3\n        /* \"batchAuctions/discriminatoryPriceBatchAuction.sol\":977:1005  BidPlaced(msg.sender, price) */\n      mload(0x40)\n      tag_83\n      swap2\n      swap1\n      tag_14\n      jump\t// in\n    tag_83:\n      mload(0x40)\n      dup1\n      swap2\n      sub\n      swap1\n      log2\n        /* \"batchAuctions/discriminatoryPriceBatchAuction.sol\":816:1012  function bid(uint256 price) public {... */\n      pop\n      jump\t// out\n        /* \"batchAuctions/discriminatoryPriceBatchAuction.sol\":351:391  mapping(address => bool) public isWinner */\n    tag_29:\n      mstore(0x20, 0x04)\n      dup1\n      0x00\n      mstore\n      keccak256(0x00, 0x40)\n      0x00\n      swap2\n      pop\n      sload\n      swap1\n      0x0100\n      exp\n      swap1\n      div\n      0xff\n      and\n      dup2\n      jump\t// out\n        /* \"batchAuctions/discriminatoryPriceBatchAuction.sol\":229:254  bool public auctionClosed */\n    tag_33:\n      0x01\n      0x00\n      swap1\n      sload\n      swap1\n      0x0100\n      exp\n      swap1\n      div\n      0xff\n      and\n      dup2\n      jump\t// out\n        /* \"batchAuctions/discriminatoryPriceBatchAuction.sol\":325:345  address public admin */\n    tag_36:\n      0x03\n      0x00\n      swap1\n      sload\n      swap1\n      0x0100\n      exp\n      swap1\n      div\n      0xffffffffffffffffffffffffffffffffffffffff\n      and\n      dup2\n      jump\t// out\n        /* \"batchAuctions/discriminatoryPriceBatchAuction.sol\":1086:1470  function sortBids() internal {... */\n    tag_51:\n        /* \"batchAuctions/discriminatoryPriceBatchAuction.sol\":1125:1134  uint256 n */\n      0x00\n        /* \"batchAuctions/discriminatoryPriceBatchAuction.sol\":1137:1141  bids */\n      dup1\n        /* \"batchAuctions/discriminatoryPriceBatchAuction.sol\":1137:1148  bids.length */\n      dup1\n      sload\n      swap1\n      pop\n        /* \"batchAuctions/discriminatoryPriceBatchAuction.sol\":1125:1148  uint256 n = bids.length */\n      swap1\n      pop\n        /* \"batchAuctions/discriminatoryPriceBatchAuction.sol\":1163:1172  uint256 i */\n      0x00\n        /* \"batchAuctions/discriminatoryPriceBatchAuction.sol\":1158:1464  for (uint256 i = 0; i < n; i++) {... */\n    tag_85:\n        /* \"batchAuctions/discriminatoryPriceBatchAuction.sol\":1182:1183  n */\n      dup2\n        /* \"batchAuctions/discriminatoryPriceBatchAuction.sol\":1178:1179  i */\n      dup2\n        /* \"batchAuctions/discriminatoryPriceBatchAuction.sol\":1178:1183  i < n */\n      lt\n        /* \"batchAuctions/discriminatoryPriceBatchAuction.sol\":1158:1464  for (uint256 i = 0; i < n; i++) {... */\n      iszero\n      tag_86\n      jumpi\n        /* \"batchAuctions/discriminatoryPriceBatchAuction.sol\":1209:1218  uint256 j */\n      0x00\n        /* \"batchAuctions/discriminatoryPriceBatchAuction.sol\":1204:1454  for (uint256 j = 0; j < n - 1; j++) {... */\n    tag_88:\n        /* \"batchAuctions/discriminatoryPriceBatchAuction.sol\":1232:1233  1 */\n      0x01\n        /* \"batchAuctions/discriminatoryPriceBatchAuction.sol\":1228:1229  n */\n      dup4\n        /* \"batchAuctions/discriminatoryPriceBatchAuction.sol\":1228:1233  n - 1 */\n      tag_91\n      swap2\n      swap1\n      tag_92\n      jump\t// in\n    tag_91:\n        /* \"batchAuctions/discriminatoryPriceBatchAuction.sol\":1224:1225  j */\n      dup2\n        /* \"batchAuctions/discriminatoryPriceBatchAuction.sol\":1224:1233  j < n - 1 */\n      lt\n        /* \"batchAuctions/discriminatoryPriceBatchAuction.sol\":1204:1454  for (uint256 j = 0; j < n - 1; j++) {... */\n      iszero\n      tag_89\n      jumpi\n        /* \"batchAuctions/discriminatoryPriceBatchAuction.sol\":1278:1282  bids */\n      0x00\n        /* \"batchAuctions/discriminatoryPriceBatchAuction.sol\":1285:1286  1 */\n      0x01\n        /* \"batchAuctions/discriminatoryPriceBatchAuction.sol\":1283:1284  j */\n      dup3\n        /* \"batchAuctions/discriminatoryPriceBatchAuction.sol\":1283:1286  j+1 */\n      tag_93\n      swap2\n      swap1\n      tag_94\n      jump\t// in\n    tag_93:\n        /* \"batchAuctions/discriminatoryPriceBatchAuction.sol\":1278:1287  bids[j+1] */\n      dup2\n      sload\n      dup2\n      lt\n      tag_95\n      jumpi\n      tag_96\n      tag_57\n      jump\t// in\n    tag_96:\n    tag_95:\n      swap1\n      0x00\n      mstore\n      keccak256(0x00, 0x20)\n      swap1\n      0x02\n      mul\n      add\n        /* \"batchAuctions/discriminatoryPriceBatchAuction.sol\":1278:1293  bids[j+1].price */\n      0x01\n      add\n      sload\n        /* \"batchAuctions/discriminatoryPriceBatchAuction.sol\":1262:1266  bids */\n      0x00\n        /* \"batchAuctions/discriminatoryPriceBatchAuction.sol\":1267:1268  j */\n      dup3\n        /* \"batchAuctions/discriminatoryPriceBatchAuction.sol\":1262:1269  bids[j] */\n      dup2\n      sload\n      dup2\n      lt\n      tag_98\n      jumpi\n      tag_99\n      tag_57\n      jump\t// in\n    tag_99:\n    tag_98:\n      swap1\n      0x00\n      mstore\n      keccak256(0x00, 0x20)\n      swap1\n      0x02\n      mul\n      add\n        /* \"batchAuctions/discriminatoryPriceBatchAuction.sol\":1262:1275  bids[j].price */\n      0x01\n      add\n      sload\n        /* \"batchAuctions/discriminatoryPriceBatchAuction.sol\":1262:1293  bids[j].price < bids[j+1].price */\n      lt\n        /* \"batchAuctions/discriminatoryPriceBatchAuction.sol\":1258:1440  if (bids[j].price < bids[j+1].price) {... */\n      iszero\n      tag_101\n      jumpi\n        /* \"batchAuctions/discriminatoryPriceBatchAuction.sol\":1317:1332  Bid memory temp */\n      0x00\n        /* \"batchAuctions/discriminatoryPriceBatchAuction.sol\":1335:1339  bids */\n      dup1\n        /* \"batchAuctions/discriminatoryPriceBatchAuction.sol\":1340:1341  j */\n      dup3\n        /* \"batchAuctions/discriminatoryPriceBatchAuction.sol\":1335:1342  bids[j] */\n      dup2\n      sload\n      dup2\n      lt\n      tag_102\n      jumpi\n      tag_103\n      tag_57\n      jump\t// in\n    tag_103:\n    tag_102:\n      swap1\n      0x00\n      mstore\n      keccak256(0x00, 0x20)\n      swap1\n      0x02\n      mul\n      add\n        /* \"batchAuctions/discriminatoryPriceBatchAuction.sol\":1317:1342  Bid memory temp = bids[j] */\n      mload(0x40)\n      dup1\n      0x40\n      add\n      0x40\n      mstore\n      swap1\n      dup2\n      0x00\n      dup3\n      add\n      0x00\n      swap1\n      sload\n      swap1\n      0x0100\n      exp\n      swap1\n      div\n      0xffffffffffffffffffffffffffffffffffffffff\n      and\n      0xffffffffffffffffffffffffffffffffffffffff\n      and\n      0xffffffffffffffffffffffffffffffffffffffff\n      and\n      dup2\n      mstore\n      0x20\n      add\n      0x01\n      dup3\n      add\n      sload\n      dup2\n      mstore\n      pop\n      pop\n      swap1\n      pop\n        /* \"batchAuctions/discriminatoryPriceBatchAuction.sol\":1374:1378  bids */\n      0x00\n        /* \"batchAuctions/discriminatoryPriceBatchAuction.sol\":1381:1382  1 */\n      0x01\n        /* \"batchAuctions/discriminatoryPriceBatchAuction.sol\":1379:1380  j */\n      dup4\n        /* \"batchAuctions/discriminatoryPriceBatchAuction.sol\":1379:1382  j+1 */\n      tag_105\n      swap2\n      swap1\n      tag_94\n      jump\t// in\n    tag_105:\n        /* \"batchAuctions/discriminatoryPriceBatchAuction.sol\":1374:1383  bids[j+1] */\n      dup2\n      sload\n      dup2\n      lt\n      tag_106\n      jumpi\n      tag_107\n      tag_57\n      jump\t// in\n    tag_107:\n    tag_106:\n      swap1\n      0x00\n      mstore\n      keccak256(0x00, 0x20)\n      swap1\n      0x02\n      mul\n      add\n        /* \"batchAuctions/discriminatoryPriceBatchAuction.sol\":1364:1368  bids */\n      0x00\n        /* \"batchAuctions/discriminatoryPriceBatchAuction.sol\":1369:1370  j */\n      dup4\n        /* \"batchAuctions/discriminatoryPriceBatchAuction.sol\":1364:1371  bids[j] */\n      dup2\n      sload\n      dup2\n      lt\n      tag_109\n      jumpi\n      tag_110\n      tag_57\n      jump\t// in\n    tag_110:\n    tag_109:\n      swap1\n      0x00\n      mstore\n      keccak256(0x00, 0x20)\n      swap1\n      0x02\n      mul\n      add\n        /* \"batchAuctions/discriminatoryPriceBatchAuction.sol\":1364:1383  bids[j] = bids[j+1] */\n      0x00\n      dup3\n      add\n      0x00\n      swap1\n      sload\n      swap1\n      0x0100\n      exp\n      swap1\n      div\n      0xffffffffffffffffffffffffffffffffffffffff\n      and\n      dup2\n      0x00\n      add\n      exp(0x0100, 0x00)\n      dup2\n      sload\n      dup2\n      0xffffffffffffffffffffffffffffffffffffffff\n      mul\n      not\n      and\n      swap1\n      dup4\n      0xffffffffffffffffffffffffffffffffffffffff\n      and\n      mul\n      or\n      swap1\n      sstore\n      pop\n      0x01\n      dup3\n      add\n      sload\n      dup2\n      0x01\n      add\n      sstore\n      swap1\n      pop\n      pop\n        /* \"batchAuctions/discriminatoryPriceBatchAuction.sol\":1417:1421  temp */\n      dup1\n        /* \"batchAuctions/discriminatoryPriceBatchAuction.sol\":1405:1409  bids */\n      0x00\n        /* \"batchAuctions/discriminatoryPriceBatchAuction.sol\":1412:1413  1 */\n      0x01\n        /* \"batchAuctions/discriminatoryPriceBatchAuction.sol\":1410:1411  j */\n      dup5\n        /* \"batchAuctions/discriminatoryPriceBatchAuction.sol\":1410:1413  j+1 */\n      tag_112\n      swap2\n      swap1\n      tag_94\n      jump\t// in\n    tag_112:\n        /* \"batchAuctions/discriminatoryPriceBatchAuction.sol\":1405:1414  bids[j+1] */\n      dup2\n      sload\n      dup2\n      lt\n      tag_113\n      jumpi\n      tag_114\n      tag_57\n      jump\t// in\n    tag_114:\n    tag_113:\n      swap1\n      0x00\n      mstore\n      keccak256(0x00, 0x20)\n      swap1\n      0x02\n      mul\n      add\n        /* \"batchAuctions/discriminatoryPriceBatchAuction.sol\":1405:1421  bids[j+1] = temp */\n      0x00\n      dup3\n      add\n      mload\n      dup2\n      0x00\n      add\n      exp(0x0100, 0x00)\n      dup2\n      sload\n      dup2\n      0xffffffffffffffffffffffffffffffffffffffff\n      mul\n      not\n      and\n      swap1\n      dup4\n      0xffffffffffffffffffffffffffffffffffffffff\n      and\n      mul\n      or\n      swap1\n      sstore\n      pop\n      0x20\n      dup3\n      add\n      mload\n      dup2\n      0x01\n      add\n      sstore\n      swap1\n      pop\n      pop\n        /* \"batchAuctions/discriminatoryPriceBatchAuction.sol\":1295:1440  {... */\n      pop\n        /* \"batchAuctions/discriminatoryPriceBatchAuction.sol\":1258:1440  if (bids[j].price < bids[j+1].price) {... */\n    tag_101:\n        /* \"batchAuctions/discriminatoryPriceBatchAuction.sol\":1235:1238  j++ */\n      dup1\n      dup1\n      tag_116\n      swap1\n      tag_60\n      jump\t// in\n    tag_116:\n      swap2\n      pop\n      pop\n        /* \"batchAuctions/discriminatoryPriceBatchAuction.sol\":1204:1454  for (uint256 j = 0; j < n - 1; j++) {... */\n      jump(tag_88)\n    tag_89:\n      pop\n        /* \"batchAuctions/discriminatoryPriceBatchAuction.sol\":1185:1188  i++ */\n      dup1\n      dup1\n      tag_117\n      swap1\n      tag_60\n      jump\t// in\n    tag_117:\n      swap2\n      pop\n      pop\n        /* \"batchAuctions/discriminatoryPriceBatchAuction.sol\":1158:1464  for (uint256 i = 0; i < n; i++) {... */\n      jump(tag_85)\n    tag_86:\n      pop\n        /* \"batchAuctions/discriminatoryPriceBatchAuction.sol\":1115:1470  {... */\n      pop\n        /* \"batchAuctions/discriminatoryPriceBatchAuction.sol\":1086:1470  function sortBids() internal {... */\n      jump\t// out\n        /* \"#utility.yul\":7:84   */\n    tag_118:\n        /* \"#utility.yul\":44:51   */\n      0x00\n        /* \"#utility.yul\":73:78   */\n      dup2\n        /* \"#utility.yul\":62:78   */\n      swap1\n      pop\n        /* \"#utility.yul\":7:84   */\n      swap2\n      swap1\n      pop\n      jump\t// out\n        /* \"#utility.yul\":90:208   */\n    tag_119:\n        /* \"#utility.yul\":177:201   */\n      tag_152\n        /* \"#utility.yul\":195:200   */\n      dup2\n        /* \"#utility.yul\":177:201   */\n      tag_118\n      jump\t// in\n    tag_152:\n        /* \"#utility.yul\":172:175   */\n      dup3\n        /* \"#utility.yul\":165:202   */\n      mstore\n        /* \"#utility.yul\":90:208   */\n      pop\n      pop\n      jump\t// out\n        /* \"#utility.yul\":214:436   */\n    tag_14:\n        /* \"#utility.yul\":307:311   */\n      0x00\n        /* \"#utility.yul\":345:347   */\n      0x20\n        /* \"#utility.yul\":334:343   */\n      dup3\n        /* \"#utility.yul\":330:348   */\n      add\n        /* \"#utility.yul\":322:348   */\n      swap1\n      pop\n        /* \"#utility.yul\":358:429   */\n      tag_154\n        /* \"#utility.yul\":426:427   */\n      0x00\n        /* \"#utility.yul\":415:424   */\n      dup4\n        /* \"#utility.yul\":411:428   */\n      add\n        /* \"#utility.yul\":402:408   */\n      dup5\n        /* \"#utility.yul\":358:429   */\n      tag_119\n      jump\t// in\n    tag_154:\n        /* \"#utility.yul\":214:436   */\n      swap3\n      swap2\n      pop\n      pop\n      jump\t// out\n        /* \"#utility.yul\":523:640   */\n    tag_121:\n        /* \"#utility.yul\":632:633   */\n      0x00\n        /* \"#utility.yul\":629:630   */\n      dup1\n        /* \"#utility.yul\":622:634   */\n      revert\n        /* \"#utility.yul\":769:891   */\n    tag_123:\n        /* \"#utility.yul\":842:866   */\n      tag_159\n        /* \"#utility.yul\":860:865   */\n      dup2\n        /* \"#utility.yul\":842:866   */\n      tag_118\n      jump\t// in\n    tag_159:\n        /* \"#utility.yul\":835:840   */\n      dup2\n        /* \"#utility.yul\":832:867   */\n      eq\n        /* \"#utility.yul\":822:885   */\n      tag_160\n      jumpi\n        /* \"#utility.yul\":881:882   */\n      0x00\n        /* \"#utility.yul\":878:879   */\n      dup1\n        /* \"#utility.yul\":871:883   */\n      revert\n        /* \"#utility.yul\":822:885   */\n    tag_160:\n        /* \"#utility.yul\":769:891   */\n      pop\n      jump\t// out\n        /* \"#utility.yul\":897:1036   */\n    tag_124:\n        /* \"#utility.yul\":943:948   */\n      0x00\n        /* \"#utility.yul\":981:987   */\n      dup2\n        /* \"#utility.yul\":968:988   */\n      calldataload\n        /* \"#utility.yul\":959:988   */\n      swap1\n      pop\n        /* \"#utility.yul\":997:1030   */\n      tag_162\n        /* \"#utility.yul\":1024:1029   */\n      dup2\n        /* \"#utility.yul\":997:1030   */\n      tag_123\n      jump\t// in\n    tag_162:\n        /* \"#utility.yul\":897:1036   */\n      swap3\n      swap2\n      pop\n      pop\n      jump\t// out\n        /* \"#utility.yul\":1042:1371   */\n    tag_19:\n        /* \"#utility.yul\":1101:1107   */\n      0x00\n        /* \"#utility.yul\":1150:1152   */\n      0x20\n        /* \"#utility.yul\":1138:1147   */\n      dup3\n        /* \"#utility.yul\":1129:1136   */\n      dup5\n        /* \"#utility.yul\":1125:1148   */\n      sub\n        /* \"#utility.yul\":1121:1153   */\n      slt\n        /* \"#utility.yul\":1118:1237   */\n      iszero\n      tag_164\n      jumpi\n        /* \"#utility.yul\":1156:1235   */\n      tag_165\n      tag_121\n      jump\t// in\n    tag_165:\n        /* \"#utility.yul\":1118:1237   */\n    tag_164:\n        /* \"#utility.yul\":1276:1277   */\n      0x00\n        /* \"#utility.yul\":1301:1354   */\n      tag_166\n        /* \"#utility.yul\":1346:1353   */\n      dup5\n        /* \"#utility.yul\":1337:1343   */\n      dup3\n        /* \"#utility.yul\":1326:1335   */\n      dup6\n        /* \"#utility.yul\":1322:1344   */\n      add\n        /* \"#utility.yul\":1301:1354   */\n      tag_124\n      jump\t// in\n    tag_166:\n        /* \"#utility.yul\":1291:1354   */\n      swap2\n      pop\n        /* \"#utility.yul\":1247:1364   */\n      pop\n        /* \"#utility.yul\":1042:1371   */\n      swap3\n      swap2\n      pop\n      pop\n      jump\t// out\n        /* \"#utility.yul\":1377:1503   */\n    tag_125:\n        /* \"#utility.yul\":1414:1421   */\n      0x00\n        /* \"#utility.yul\":1454:1496   */\n      0xffffffffffffffffffffffffffffffffffffffff\n        /* \"#utility.yul\":1447:1452   */\n      dup3\n        /* \"#utility.yul\":1443:1497   */\n      and\n        /* \"#utility.yul\":1432:1497   */\n      swap1\n      pop\n        /* \"#utility.yul\":1377:1503   */\n      swap2\n      swap1\n      pop\n      jump\t// out\n        /* \"#utility.yul\":1509:1605   */\n    tag_126:\n        /* \"#utility.yul\":1546:1553   */\n      0x00\n        /* \"#utility.yul\":1575:1599   */\n      tag_169\n        /* \"#utility.yul\":1593:1598   */\n      dup3\n        /* \"#utility.yul\":1575:1599   */\n      tag_125\n      jump\t// in\n    tag_169:\n        /* \"#utility.yul\":1564:1599   */\n      swap1\n      pop\n        /* \"#utility.yul\":1509:1605   */\n      swap2\n      swap1\n      pop\n      jump\t// out\n        /* \"#utility.yul\":1611:1729   */\n    tag_127:\n        /* \"#utility.yul\":1698:1722   */\n      tag_171\n        /* \"#utility.yul\":1716:1721   */\n      dup2\n        /* \"#utility.yul\":1698:1722   */\n      tag_126\n      jump\t// in\n    tag_171:\n        /* \"#utility.yul\":1693:1696   */\n      dup3\n        /* \"#utility.yul\":1686:1723   */\n      mstore\n        /* \"#utility.yul\":1611:1729   */\n      pop\n      pop\n      jump\t// out\n        /* \"#utility.yul\":1735:2067   */\n    tag_22:\n        /* \"#utility.yul\":1856:1860   */\n      0x00\n        /* \"#utility.yul\":1894:1896   */\n      0x40\n        /* \"#utility.yul\":1883:1892   */\n      dup3\n        /* \"#utility.yul\":1879:1897   */\n      add\n        /* \"#utility.yul\":1871:1897   */\n      swap1\n      pop\n        /* \"#utility.yul\":1907:1978   */\n      tag_173\n        /* \"#utility.yul\":1975:1976   */\n      0x00\n        /* \"#utility.yul\":1964:1973   */\n      dup4\n        /* \"#utility.yul\":1960:1977   */\n      add\n        /* \"#utility.yul\":1951:1957   */\n      dup6\n        /* \"#utility.yul\":1907:1978   */\n      tag_127\n      jump\t// in\n    tag_173:\n        /* \"#utility.yul\":1988:2060   */\n      tag_174\n        /* \"#utility.yul\":2056:2058   */\n      0x20\n        /* \"#utility.yul\":2045:2054   */\n      dup4\n        /* \"#utility.yul\":2041:2059   */\n      add\n        /* \"#utility.yul\":2032:2038   */\n      dup5\n        /* \"#utility.yul\":1988:2060   */\n      tag_119\n      jump\t// in\n    tag_174:\n        /* \"#utility.yul\":1735:2067   */\n      swap4\n      swap3\n      pop\n      pop\n      pop\n      jump\t// out\n        /* \"#utility.yul\":2073:2195   */\n    tag_128:\n        /* \"#utility.yul\":2146:2170   */\n      tag_176\n        /* \"#utility.yul\":2164:2169   */\n      dup2\n        /* \"#utility.yul\":2146:2170   */\n      tag_126\n      jump\t// in\n    tag_176:\n        /* \"#utility.yul\":2139:2144   */\n      dup2\n        /* \"#utility.yul\":2136:2171   */\n      eq\n        /* \"#utility.yul\":2126:2189   */\n      tag_177\n      jumpi\n        /* \"#utility.yul\":2185:2186   */\n      0x00\n        /* \"#utility.yul\":2182:2183   */\n      dup1\n        /* \"#utility.yul\":2175:2187   */\n      revert\n        /* \"#utility.yul\":2126:2189   */\n    tag_177:\n        /* \"#utility.yul\":2073:2195   */\n      pop\n      jump\t// out\n        /* \"#utility.yul\":2201:2340   */\n    tag_129:\n        /* \"#utility.yul\":2247:2252   */\n      0x00\n        /* \"#utility.yul\":2285:2291   */\n      dup2\n        /* \"#utility.yul\":2272:2292   */\n      calldataload\n        /* \"#utility.yul\":2263:2292   */\n      swap1\n      pop\n        /* \"#utility.yul\":2301:2334   */\n      tag_179\n        /* \"#utility.yul\":2328:2333   */\n      dup2\n        /* \"#utility.yul\":2301:2334   */\n      tag_128\n      jump\t// in\n    tag_179:\n        /* \"#utility.yul\":2201:2340   */\n      swap3\n      swap2\n      pop\n      pop\n      jump\t// out\n        /* \"#utility.yul\":2346:2675   */\n    tag_28:\n        /* \"#utility.yul\":2405:2411   */\n      0x00\n        /* \"#utility.yul\":2454:2456   */\n      0x20\n        /* \"#utility.yul\":2442:2451   */\n      dup3\n        /* \"#utility.yul\":2433:2440   */\n      dup5\n        /* \"#utility.yul\":2429:2452   */\n      sub\n        /* \"#utility.yul\":2425:2457   */\n      slt\n        /* \"#utility.yul\":2422:2541   */\n      iszero\n      tag_181\n      jumpi\n        /* \"#utility.yul\":2460:2539   */\n      tag_182\n      tag_121\n      jump\t// in\n    tag_182:\n        /* \"#utility.yul\":2422:2541   */\n    tag_181:\n        /* \"#utility.yul\":2580:2581   */\n      0x00\n        /* \"#utility.yul\":2605:2658   */\n      tag_183\n        /* \"#utility.yul\":2650:2657   */\n      dup5\n        /* \"#utility.yul\":2641:2647   */\n      dup3\n        /* \"#utility.yul\":2630:2639   */\n      dup6\n        /* \"#utility.yul\":2626:2648   */\n      add\n        /* \"#utility.yul\":2605:2658   */\n      tag_129\n      jump\t// in\n    tag_183:\n        /* \"#utility.yul\":2595:2658   */\n      swap2\n      pop\n        /* \"#utility.yul\":2551:2668   */\n      pop\n        /* \"#utility.yul\":2346:2675   */\n      swap3\n      swap2\n      pop\n      pop\n      jump\t// out\n        /* \"#utility.yul\":2681:2771   */\n    tag_130:\n        /* \"#utility.yul\":2715:2722   */\n      0x00\n        /* \"#utility.yul\":2758:2763   */\n      dup2\n        /* \"#utility.yul\":2751:2764   */\n      iszero\n        /* \"#utility.yul\":2744:2765   */\n      iszero\n        /* \"#utility.yul\":2733:2765   */\n      swap1\n      pop\n        /* \"#utility.yul\":2681:2771   */\n      swap2\n      swap1\n      pop\n      jump\t// out\n        /* \"#utility.yul\":2777:2886   */\n    tag_131:\n        /* \"#utility.yul\":2858:2879   */\n      tag_186\n        /* \"#utility.yul\":2873:2878   */\n      dup2\n        /* \"#utility.yul\":2858:2879   */\n      tag_130\n      jump\t// in\n    tag_186:\n        /* \"#utility.yul\":2853:2856   */\n      dup3\n        /* \"#utility.yul\":2846:2880   */\n      mstore\n        /* \"#utility.yul\":2777:2886   */\n      pop\n      pop\n      jump\t// out\n        /* \"#utility.yul\":2892:3102   */\n    tag_31:\n        /* \"#utility.yul\":2979:2983   */\n      0x00\n        /* \"#utility.yul\":3017:3019   */\n      0x20\n        /* \"#utility.yul\":3006:3015   */\n      dup3\n        /* \"#utility.yul\":3002:3020   */\n      add\n        /* \"#utility.yul\":2994:3020   */\n      swap1\n      pop\n        /* \"#utility.yul\":3030:3095   */\n      tag_188\n        /* \"#utility.yul\":3092:3093   */\n      0x00\n        /* \"#utility.yul\":3081:3090   */\n      dup4\n        /* \"#utility.yul\":3077:3094   */\n      add\n        /* \"#utility.yul\":3068:3074   */\n      dup5\n        /* \"#utility.yul\":3030:3095   */\n      tag_131\n      jump\t// in\n    tag_188:\n        /* \"#utility.yul\":2892:3102   */\n      swap3\n      swap2\n      pop\n      pop\n      jump\t// out\n        /* \"#utility.yul\":3108:3330   */\n    tag_38:\n        /* \"#utility.yul\":3201:3205   */\n      0x00\n        /* \"#utility.yul\":3239:3241   */\n      0x20\n        /* \"#utility.yul\":3228:3237   */\n      dup3\n        /* \"#utility.yul\":3224:3242   */\n      add\n        /* \"#utility.yul\":3216:3242   */\n      swap1\n      pop\n        /* \"#utility.yul\":3252:3323   */\n      tag_190\n        /* \"#utility.yul\":3320:3321   */\n      0x00\n        /* \"#utility.yul\":3309:3318   */\n      dup4\n        /* \"#utility.yul\":3305:3322   */\n      add\n        /* \"#utility.yul\":3296:3302   */\n      dup5\n        /* \"#utility.yul\":3252:3323   */\n      tag_127\n      jump\t// in\n    tag_190:\n        /* \"#utility.yul\":3108:3330   */\n      swap3\n      swap2\n      pop\n      pop\n      jump\t// out\n        /* \"#utility.yul\":3336:3505   */\n    tag_132:\n        /* \"#utility.yul\":3420:3431   */\n      0x00\n        /* \"#utility.yul\":3454:3460   */\n      dup3\n        /* \"#utility.yul\":3449:3452   */\n      dup3\n        /* \"#utility.yul\":3442:3461   */\n      mstore\n        /* \"#utility.yul\":3494:3498   */\n      0x20\n        /* \"#utility.yul\":3489:3492   */\n      dup3\n        /* \"#utility.yul\":3485:3499   */\n      add\n        /* \"#utility.yul\":3470:3499   */\n      swap1\n      pop\n        /* \"#utility.yul\":3336:3505   */\n      swap3\n      swap2\n      pop\n      pop\n      jump\t// out\n        /* \"#utility.yul\":3511:3731   */\n    tag_133:\n        /* \"#utility.yul\":3651:3685   */\n      0x4f6e6c792061646d696e2063616e2063616c6c20746869732066756e6374696f\n        /* \"#utility.yul\":3647:3648   */\n      0x00\n        /* \"#utility.yul\":3639:3645   */\n      dup3\n        /* \"#utility.yul\":3635:3649   */\n      add\n        /* \"#utility.yul\":3628:3686   */\n      mstore\n        /* \"#utility.yul\":3720:3723   */\n      0x6e00000000000000000000000000000000000000000000000000000000000000\n        /* \"#utility.yul\":3715:3717   */\n      0x20\n        /* \"#utility.yul\":3707:3713   */\n      dup3\n        /* \"#utility.yul\":3703:3718   */\n      add\n        /* \"#utility.yul\":3696:3724   */\n      mstore\n        /* \"#utility.yul\":3511:3731   */\n      pop\n      jump\t// out\n        /* \"#utility.yul\":3737:4103   */\n    tag_134:\n        /* \"#utility.yul\":3879:3882   */\n      0x00\n        /* \"#utility.yul\":3900:3967   */\n      tag_194\n        /* \"#utility.yul\":3964:3966   */\n      0x21\n        /* \"#utility.yul\":3959:3962   */\n      dup4\n        /* \"#utility.yul\":3900:3967   */\n      tag_132\n      jump\t// in\n    tag_194:\n        /* \"#utility.yul\":3893:3967   */\n      swap2\n      pop\n        /* \"#utility.yul\":3976:4069   */\n      tag_195\n        /* \"#utility.yul\":4065:4068   */\n      dup3\n        /* \"#utility.yul\":3976:4069   */\n      tag_133\n      jump\t// in\n    tag_195:\n        /* \"#utility.yul\":4094:4096   */\n      0x40\n        /* \"#utility.yul\":4089:4092   */\n      dup3\n        /* \"#utility.yul\":4085:4097   */\n      add\n        /* \"#utility.yul\":4078:4097   */\n      swap1\n      pop\n        /* \"#utility.yul\":3737:4103   */\n      swap2\n      swap1\n      pop\n      jump\t// out\n        /* \"#utility.yul\":4109:4528   */\n    tag_42:\n        /* \"#utility.yul\":4275:4279   */\n      0x00\n        /* \"#utility.yul\":4313:4315   */\n      0x20\n        /* \"#utility.yul\":4302:4311   */\n      dup3\n        /* \"#utility.yul\":4298:4316   */\n      add\n        /* \"#utility.yul\":4290:4316   */\n      swap1\n      pop\n        /* \"#utility.yul\":4362:4371   */\n      dup2\n        /* \"#utility.yul\":4356:4360   */\n      dup2\n        /* \"#utility.yul\":4352:4372   */\n      sub\n        /* \"#utility.yul\":4348:4349   */\n      0x00\n        /* \"#utility.yul\":4337:4346   */\n      dup4\n        /* \"#utility.yul\":4333:4350   */\n      add\n        /* \"#utility.yul\":4326:4373   */\n      mstore\n        /* \"#utility.yul\":4390:4521   */\n      tag_197\n        /* \"#utility.yul\":4516:4520   */\n      dup2\n        /* \"#utility.yul\":4390:4521   */\n      tag_134\n      jump\t// in\n    tag_197:\n        /* \"#utility.yul\":4382:4521   */\n      swap1\n      pop\n        /* \"#utility.yul\":4109:4528   */\n      swap2\n      swap1\n      pop\n      jump\t// out\n        /* \"#utility.yul\":4534:4706   */\n    tag_135:\n        /* \"#utility.yul\":4674:4698   */\n      0x41756374696f6e20616c726561647920636c6f73656400000000000000000000\n        /* \"#utility.yul\":4670:4671   */\n      0x00\n        /* \"#utility.yul\":4662:4668   */\n      dup3\n        /* \"#utility.yul\":4658:4672   */\n      add\n        /* \"#utility.yul\":4651:4699   */\n      mstore\n        /* \"#utility.yul\":4534:4706   */\n      pop\n      jump\t// out\n        /* \"#utility.yul\":4712:5078   */\n    tag_136:\n        /* \"#utility.yul\":4854:4857   */\n      0x00\n        /* \"#utility.yul\":4875:4942   */\n      tag_200\n        /* \"#utility.yul\":4939:4941   */\n      0x16\n        /* \"#utility.yul\":4934:4937   */\n      dup4\n        /* \"#utility.yul\":4875:4942   */\n      tag_132\n      jump\t// in\n    tag_200:\n        /* \"#utility.yul\":4868:4942   */\n      swap2\n      pop\n        /* \"#utility.yul\":4951:5044   */\n      tag_201\n        /* \"#utility.yul\":5040:5043   */\n      dup3\n        /* \"#utility.yul\":4951:5044   */\n      tag_135\n      jump\t// in\n    tag_201:\n        /* \"#utility.yul\":5069:5071   */\n      0x20\n        /* \"#utility.yul\":5064:5067   */\n      dup3\n        /* \"#utility.yul\":5060:5072   */\n      add\n        /* \"#utility.yul\":5053:5072   */\n      swap1\n      pop\n        /* \"#utility.yul\":4712:5078   */\n      swap2\n      swap1\n      pop\n      jump\t// out\n        /* \"#utility.yul\":5084:5503   */\n    tag_46:\n        /* \"#utility.yul\":5250:5254   */\n      0x00\n        /* \"#utility.yul\":5288:5290   */\n      0x20\n        /* \"#utility.yul\":5277:5286   */\n      dup3\n        /* \"#utility.yul\":5273:5291   */\n      add\n        /* \"#utility.yul\":5265:5291   */\n      swap1\n      pop\n        /* \"#utility.yul\":5337:5346   */\n      dup2\n        /* \"#utility.yul\":5331:5335   */\n      dup2\n        /* \"#utility.yul\":5327:5347   */\n      sub\n        /* \"#utility.yul\":5323:5324   */\n      0x00\n        /* \"#utility.yul\":5312:5321   */\n      dup4\n        /* \"#utility.yul\":5308:5325   */\n      add\n        /* \"#utility.yul\":5301:5348   */\n      mstore\n        /* \"#utility.yul\":5365:5496   */\n      tag_203\n        /* \"#utility.yul\":5491:5495   */\n      dup2\n        /* \"#utility.yul\":5365:5496   */\n      tag_136\n      jump\t// in\n    tag_203:\n        /* \"#utility.yul\":5357:5496   */\n      swap1\n      pop\n        /* \"#utility.yul\":5084:5503   */\n      swap2\n      swap1\n      pop\n      jump\t// out\n        /* \"#utility.yul\":5509:5674   */\n    tag_137:\n        /* \"#utility.yul\":5649:5666   */\n      0x4e6f7420656e6f75676820626964730000000000000000000000000000000000\n        /* \"#utility.yul\":5645:5646   */\n      0x00\n        /* \"#utility.yul\":5637:5643   */\n      dup3\n        /* \"#utility.yul\":5633:5647   */\n      add\n        /* \"#utility.yul\":5626:5667   */\n      mstore\n        /* \"#utility.yul\":5509:5674   */\n      pop\n      jump\t// out\n        /* \"#utility.yul\":5680:6046   */\n    tag_138:\n        /* \"#utility.yul\":5822:5825   */\n      0x00\n        /* \"#utility.yul\":5843:5910   */\n      tag_206\n        /* \"#utility.yul\":5907:5909   */\n      0x0f\n        /* \"#utility.yul\":5902:5905   */\n      dup4\n        /* \"#utility.yul\":5843:5910   */\n      tag_132\n      jump\t// in\n    tag_206:\n        /* \"#utility.yul\":5836:5910   */\n      swap2\n      pop\n        /* \"#utility.yul\":5919:6012   */\n      tag_207\n        /* \"#utility.yul\":6008:6011   */\n      dup3\n        /* \"#utility.yul\":5919:6012   */\n      tag_137\n      jump\t// in\n    tag_207:\n        /* \"#utility.yul\":6037:6039   */\n      0x20\n        /* \"#utility.yul\":6032:6035   */\n      dup3\n        /* \"#utility.yul\":6028:6040   */\n      add\n        /* \"#utility.yul\":6021:6040   */\n      swap1\n      pop\n        /* \"#utility.yul\":5680:6046   */\n      swap2\n      swap1\n      pop\n      jump\t// out\n        /* \"#utility.yul\":6052:6471   */\n    tag_49:\n        /* \"#utility.yul\":6218:6222   */\n      0x00\n        /* \"#utility.yul\":6256:6258   */\n      0x20\n        /* \"#utility.yul\":6245:6254   */\n      dup3\n        /* \"#utility.yul\":6241:6259   */\n      add\n        /* \"#utility.yul\":6233:6259   */\n      swap1\n      pop\n        /* \"#utility.yul\":6305:6314   */\n      dup2\n        /* \"#utility.yul\":6299:6303   */\n      dup2\n        /* \"#utility.yul\":6295:6315   */\n      sub\n        /* \"#utility.yul\":6291:6292   */\n      0x00\n        /* \"#utility.yul\":6280:6289   */\n      dup4\n        /* \"#utility.yul\":6276:6293   */\n      add\n        /* \"#utility.yul\":6269:6316   */\n      mstore\n        /* \"#utility.yul\":6333:6464   */\n      tag_209\n        /* \"#utility.yul\":6459:6463   */\n      dup2\n        /* \"#utility.yul\":6333:6464   */\n      tag_138\n      jump\t// in\n    tag_209:\n        /* \"#utility.yul\":6325:6464   */\n      swap1\n      pop\n        /* \"#utility.yul\":6052:6471   */\n      swap2\n      swap1\n      pop\n      jump\t// out\n        /* \"#utility.yul\":6477:6657   */\n    tag_57:\n        /* \"#utility.yul\":6525:6602   */\n      0x4e487b7100000000000000000000000000000000000000000000000000000000\n        /* \"#utility.yul\":6522:6523   */\n      0x00\n        /* \"#utility.yul\":6515:6603   */\n      mstore\n        /* \"#utility.yul\":6622:6626   */\n      0x32\n        /* \"#utility.yul\":6619:6620   */\n      0x04\n        /* \"#utility.yul\":6612:6627   */\n      mstore\n        /* \"#utility.yul\":6646:6650   */\n      0x24\n        /* \"#utility.yul\":6643:6644   */\n      0x00\n        /* \"#utility.yul\":6636:6651   */\n      revert\n        /* \"#utility.yul\":6663:6843   */\n    tag_139:\n        /* \"#utility.yul\":6711:6788   */\n      0x4e487b7100000000000000000000000000000000000000000000000000000000\n        /* \"#utility.yul\":6708:6709   */\n      0x00\n        /* \"#utility.yul\":6701:6789   */\n      mstore\n        /* \"#utility.yul\":6808:6812   */\n      0x11\n        /* \"#utility.yul\":6805:6806   */\n      0x04\n        /* \"#utility.yul\":6798:6813   */\n      mstore\n        /* \"#utility.yul\":6832:6836   */\n      0x24\n        /* \"#utility.yul\":6829:6830   */\n      0x00\n        /* \"#utility.yul\":6822:6837   */\n      revert\n        /* \"#utility.yul\":6849:7082   */\n    tag_60:\n        /* \"#utility.yul\":6888:6891   */\n      0x00\n        /* \"#utility.yul\":6911:6935   */\n      tag_213\n        /* \"#utility.yul\":6929:6934   */\n      dup3\n        /* \"#utility.yul\":6911:6935   */\n      tag_118\n      jump\t// in\n    tag_213:\n        /* \"#utility.yul\":6902:6935   */\n      swap2\n      pop\n        /* \"#utility.yul\":6957:7023   */\n      0xffffffffffffffffffffffffffffffffffffffffffffffffffffffffffffffff\n        /* \"#utility.yul\":6950:6955   */\n      dup3\n        /* \"#utility.yul\":6947:7024   */\n      sub\n        /* \"#utility.yul\":6944:7047   */\n      tag_214\n      jumpi\n        /* \"#utility.yul\":7027:7045   */\n      tag_215\n      tag_139\n      jump\t// in\n    tag_215:\n        /* \"#utility.yul\":6944:7047   */\n    tag_214:\n        /* \"#utility.yul\":7074:7075   */\n      0x01\n        /* \"#utility.yul\":7067:7072   */\n      dup3\n        /* \"#utility.yul\":7063:7076   */\n      add\n        /* \"#utility.yul\":7056:7076   */\n      swap1\n      pop\n        /* \"#utility.yul\":6849:7082   */\n      swap2\n      swap1\n      pop\n      jump\t// out\n        /* \"#utility.yul\":7088:7268   */\n    tag_63:\n        /* \"#utility.yul\":7136:7213   */\n      0x4e487b7100000000000000000000000000000000000000000000000000000000\n        /* \"#utility.yul\":7133:7134   */\n      0x00\n        /* \"#utility.yul\":7126:7214   */\n      mstore\n        /* \"#utility.yul\":7233:7237   */\n      0x41\n        /* \"#utility.yul\":7230:7231   */\n      0x04\n        /* \"#utility.yul\":7223:7238   */\n      mstore\n        /* \"#utility.yul\":7257:7261   */\n      0x24\n        /* \"#utility.yul\":7254:7255   */\n      0x00\n        /* \"#utility.yul\":7247:7262   */\n      revert\n        /* \"#utility.yul\":7274:7388   */\n    tag_140:\n        /* \"#utility.yul\":7341:7347   */\n      0x00\n        /* \"#utility.yul\":7375:7380   */\n      dup2\n        /* \"#utility.yul\":7369:7381   */\n      mload\n        /* \"#utility.yul\":7359:7381   */\n      swap1\n      pop\n        /* \"#utility.yul\":7274:7388   */\n      swap2\n      swap1\n      pop\n      jump\t// out\n        /* \"#utility.yul\":7394:7578   */\n    tag_141:\n        /* \"#utility.yul\":7493:7504   */\n      0x00\n        /* \"#utility.yul\":7527:7533   */\n      dup3\n        /* \"#utility.yul\":7522:7525   */\n      dup3\n        /* \"#utility.yul\":7515:7534   */\n      mstore\n        /* \"#utility.yul\":7567:7571   */\n      0x20\n        /* \"#utility.yul\":7562:7565   */\n      dup3\n        /* \"#utility.yul\":7558:7572   */\n      add\n        /* \"#utility.yul\":7543:7572   */\n      swap1\n      pop\n        /* \"#utility.yul\":7394:7578   */\n      swap3\n      swap2\n      pop\n      pop\n      jump\t// out\n        /* \"#utility.yul\":7584:7716   */\n    tag_142:\n        /* \"#utility.yul\":7651:7655   */\n      0x00\n        /* \"#utility.yul\":7674:7677   */\n      dup2\n        /* \"#utility.yul\":7666:7677   */\n      swap1\n      pop\n        /* \"#utility.yul\":7704:7708   */\n      0x20\n        /* \"#utility.yul\":7699:7702   */\n      dup3\n        /* \"#utility.yul\":7695:7709   */\n      add\n        /* \"#utility.yul\":7687:7709   */\n      swap1\n      pop\n        /* \"#utility.yul\":7584:7716   */\n      swap2\n      swap1\n      pop\n      jump\t// out\n        /* \"#utility.yul\":7722:7830   */\n    tag_143:\n        /* \"#utility.yul\":7799:7823   */\n      tag_221\n        /* \"#utility.yul\":7817:7822   */\n      dup2\n        /* \"#utility.yul\":7799:7823   */\n      tag_126\n      jump\t// in\n    tag_221:\n        /* \"#utility.yul\":7794:7797   */\n      dup3\n        /* \"#utility.yul\":7787:7824   */\n      mstore\n        /* \"#utility.yul\":7722:7830   */\n      pop\n      pop\n      jump\t// out\n        /* \"#utility.yul\":7836:8015   */\n    tag_144:\n        /* \"#utility.yul\":7905:7915   */\n      0x00\n        /* \"#utility.yul\":7926:7972   */\n      tag_223\n        /* \"#utility.yul\":7968:7971   */\n      dup4\n        /* \"#utility.yul\":7960:7966   */\n      dup4\n        /* \"#utility.yul\":7926:7972   */\n      tag_143\n      jump\t// in\n    tag_223:\n        /* \"#utility.yul\":8004:8008   */\n      0x20\n        /* \"#utility.yul\":7999:8002   */\n      dup4\n        /* \"#utility.yul\":7995:8009   */\n      add\n        /* \"#utility.yul\":7981:8009   */\n      swap1\n      pop\n        /* \"#utility.yul\":7836:8015   */\n      swap3\n      swap2\n      pop\n      pop\n      jump\t// out\n        /* \"#utility.yul\":8021:8134   */\n    tag_145:\n        /* \"#utility.yul\":8091:8095   */\n      0x00\n        /* \"#utility.yul\":8123:8127   */\n      0x20\n        /* \"#utility.yul\":8118:8121   */\n      dup3\n        /* \"#utility.yul\":8114:8128   */\n      add\n        /* \"#utility.yul\":8106:8128   */\n      swap1\n      pop\n        /* \"#utility.yul\":8021:8134   */\n      swap2\n      swap1\n      pop\n      jump\t// out\n        /* \"#utility.yul\":8170:8902   */\n    tag_146:\n        /* \"#utility.yul\":8289:8292   */\n      0x00\n        /* \"#utility.yul\":8318:8372   */\n      tag_226\n        /* \"#utility.yul\":8366:8371   */\n      dup3\n        /* \"#utility.yul\":8318:8372   */\n      tag_140\n      jump\t// in\n    tag_226:\n        /* \"#utility.yul\":8388:8474   */\n      tag_227\n        /* \"#utility.yul\":8467:8473   */\n      dup2\n        /* \"#utility.yul\":8462:8465   */\n      dup6\n        /* \"#utility.yul\":8388:8474   */\n      tag_141\n      jump\t// in\n    tag_227:\n        /* \"#utility.yul\":8381:8474   */\n      swap4\n      pop\n        /* \"#utility.yul\":8498:8554   */\n      tag_228\n        /* \"#utility.yul\":8548:8553   */\n      dup4\n        /* \"#utility.yul\":8498:8554   */\n      tag_142\n      jump\t// in\n    tag_228:\n        /* \"#utility.yul\":8577:8584   */\n      dup1\n        /* \"#utility.yul\":8608:8609   */\n      0x00\n        /* \"#utility.yul\":8593:8877   */\n    tag_229:\n        /* \"#utility.yul\":8618:8624   */\n      dup4\n        /* \"#utility.yul\":8615:8616   */\n      dup2\n        /* \"#utility.yul\":8612:8625   */\n      lt\n        /* \"#utility.yul\":8593:8877   */\n      iszero\n      tag_231\n      jumpi\n        /* \"#utility.yul\":8694:8700   */\n      dup2\n        /* \"#utility.yul\":8688:8701   */\n      mload\n        /* \"#utility.yul\":8721:8784   */\n      tag_232\n        /* \"#utility.yul\":8780:8783   */\n      dup9\n        /* \"#utility.yul\":8765:8778   */\n      dup3\n        /* \"#utility.yul\":8721:8784   */\n      tag_144\n      jump\t// in\n    tag_232:\n        /* \"#utility.yul\":8714:8784   */\n      swap8\n      pop\n        /* \"#utility.yul\":8807:8867   */\n      tag_233\n        /* \"#utility.yul\":8860:8866   */\n      dup4\n        /* \"#utility.yul\":8807:8867   */\n      tag_145\n      jump\t// in\n    tag_233:\n        /* \"#utility.yul\":8797:8867   */\n      swap3\n      pop\n        /* \"#utility.yul\":8653:8877   */\n      pop\n        /* \"#utility.yul\":8640:8641   */\n      0x01\n        /* \"#utility.yul\":8637:8638   */\n      dup2\n        /* \"#utility.yul\":8633:8642   */\n      add\n        /* \"#utility.yul\":8628:8642   */\n      swap1\n      pop\n        /* \"#utility.yul\":8593:8877   */\n      jump(tag_229)\n    tag_231:\n        /* \"#utility.yul\":8597:8611   */\n      pop\n        /* \"#utility.yul\":8893:8896   */\n      dup6\n        /* \"#utility.yul\":8886:8896   */\n      swap4\n      pop\n        /* \"#utility.yul\":8294:8902   */\n      pop\n      pop\n      pop\n        /* \"#utility.yul\":8170:8902   */\n      swap3\n      swap2\n      pop\n      pop\n      jump\t// out\n        /* \"#utility.yul\":8908:9281   */\n    tag_75:\n        /* \"#utility.yul\":9051:9055   */\n      0x00\n        /* \"#utility.yul\":9089:9091   */\n      0x20\n        /* \"#utility.yul\":9078:9087   */\n      dup3\n        /* \"#utility.yul\":9074:9092   */\n      add\n        /* \"#utility.yul\":9066:9092   */\n      swap1\n      pop\n        /* \"#utility.yul\":9138:9147   */\n      dup2\n        /* \"#utility.yul\":9132:9136   */\n      dup2\n        /* \"#utility.yul\":9128:9148   */\n      sub\n        /* \"#utility.yul\":9124:9125   */\n      0x00\n        /* \"#utility.yul\":9113:9122   */\n      dup4\n        /* \"#utility.yul\":9109:9126   */\n      add\n        /* \"#utility.yul\":9102:9149   */\n      mstore\n        /* \"#utility.yul\":9166:9274   */\n      tag_235\n        /* \"#utility.yul\":9269:9273   */\n      dup2\n        /* \"#utility.yul\":9260:9266   */\n      dup5\n        /* \"#utility.yul\":9166:9274   */\n      tag_146\n      jump\t// in\n    tag_235:\n        /* \"#utility.yul\":9158:9274   */\n      swap1\n      pop\n        /* \"#utility.yul\":8908:9281   */\n      swap3\n      swap2\n      pop\n      pop\n      jump\t// out\n        /* \"#utility.yul\":9287:9451   */\n    tag_147:\n        /* \"#utility.yul\":9427:9443   */\n      0x41756374696f6e20636c6f736564000000000000000000000000000000000000\n        /* \"#utility.yul\":9423:9424   */\n      0x00\n        /* \"#utility.yul\":9415:9421   */\n      dup3\n        /* \"#utility.yul\":9411:9425   */\n      add\n        /* \"#utility.yul\":9404:9444   */\n      mstore\n        /* \"#utility.yul\":9287:9451   */\n      pop\n      jump\t// out\n        /* \"#utility.yul\":9457:9823   */\n    tag_148:\n        /* \"#utility.yul\":9599:9602   */\n      0x00\n        /* \"#utility.yul\":9620:9687   */\n      tag_238\n        /* \"#utility.yul\":9684:9686   */\n      0x0e\n        /* \"#utility.yul\":9679:9682   */\n      dup4\n        /* \"#utility.yul\":9620:9687   */\n      tag_132\n      jump\t// in\n    tag_238:\n        /* \"#utility.yul\":9613:9687   */\n      swap2\n      pop\n        /* \"#utility.yul\":9696:9789   */\n      tag_239\n        /* \"#utility.yul\":9785:9788   */\n      dup3\n        /* \"#utility.yul\":9696:9789   */\n      tag_147\n      jump\t// in\n    tag_239:\n        /* \"#utility.yul\":9814:9816   */\n      0x20\n        /* \"#utility.yul\":9809:9812   */\n      dup3\n        /* \"#utility.yul\":9805:9817   */\n      add\n        /* \"#utility.yul\":9798:9817   */\n      swap1\n      pop\n        /* \"#utility.yul\":9457:9823   */\n      swap2\n      swap1\n      pop\n      jump\t// out\n        /* \"#utility.yul\":9829:10248   */\n    tag_81:\n        /* \"#utility.yul\":9995:9999   */\n      0x00\n        /* \"#utility.yul\":10033:10035   */\n      0x20\n        /* \"#utility.yul\":10022:10031   */\n      dup3\n        /* \"#utility.yul\":10018:10036   */\n      add\n        /* \"#utility.yul\":10010:10036   */\n      swap1\n      pop\n        /* \"#utility.yul\":10082:10091   */\n      dup2\n        /* \"#utility.yul\":10076:10080   */\n      dup2\n        /* \"#utility.yul\":10072:10092   */\n      sub\n        /* \"#utility.yul\":10068:10069   */\n      0x00\n        /* \"#utility.yul\":10057:10066   */\n      dup4\n        /* \"#utility.yul\":10053:10070   */\n      add\n        /* \"#utility.yul\":10046:10093   */\n      mstore\n        /* \"#utility.yul\":10110:10241   */\n      tag_241\n        /* \"#utility.yul\":10236:10240   */\n      dup2\n        /* \"#utility.yul\":10110:10241   */\n      tag_148\n      jump\t// in\n    tag_241:\n        /* \"#utility.yul\":10102:10241   */\n      swap1\n      pop\n        /* \"#utility.yul\":9829:10248   */\n      swap2\n      swap1\n      pop\n      jump\t// out\n        /* \"#utility.yul\":10254:10448   */\n    tag_92:\n        /* \"#utility.yul\":10294:10298   */\n      0x00\n        /* \"#utility.yul\":10314:10334   */\n      tag_243\n        /* \"#utility.yul\":10332:10333   */\n      dup3\n        /* \"#utility.yul\":10314:10334   */\n      tag_118\n      jump\t// in\n    tag_243:\n        /* \"#utility.yul\":10309:10334   */\n      swap2\n      pop\n        /* \"#utility.yul\":10348:10368   */\n      tag_244\n        /* \"#utility.yul\":10366:10367   */\n      dup4\n        /* \"#utility.yul\":10348:10368   */\n      tag_118\n      jump\t// in\n    tag_244:\n        /* \"#utility.yul\":10343:10368   */\n      swap3\n      pop\n        /* \"#utility.yul\":10392:10393   */\n      dup3\n        /* \"#utility.yul\":10389:10390   */\n      dup3\n        /* \"#utility.yul\":10385:10394   */\n      sub\n        /* \"#utility.yul\":10377:10394   */\n      swap1\n      pop\n        /* \"#utility.yul\":10416:10417   */\n      dup2\n        /* \"#utility.yul\":10410:10414   */\n      dup2\n        /* \"#utility.yul\":10407:10418   */\n      gt\n        /* \"#utility.yul\":10404:10441   */\n      iszero\n      tag_245\n      jumpi\n        /* \"#utility.yul\":10421:10439   */\n      tag_246\n      tag_139\n      jump\t// in\n    tag_246:\n        /* \"#utility.yul\":10404:10441   */\n    tag_245:\n        /* \"#utility.yul\":10254:10448   */\n      swap3\n      swap2\n      pop\n      pop\n      jump\t// out\n        /* \"#utility.yul\":10454:10645   */\n    tag_94:\n        /* \"#utility.yul\":10494:10497   */\n      0x00\n        /* \"#utility.yul\":10513:10533   */\n      tag_248\n        /* \"#utility.yul\":10531:10532   */\n      dup3\n        /* \"#utility.yul\":10513:10533   */\n      tag_118\n      jump\t// in\n    tag_248:\n        /* \"#utility.yul\":10508:10533   */\n      swap2\n      pop\n        /* \"#utility.yul\":10547:10567   */\n      tag_249\n        /* \"#utility.yul\":10565:10566   */\n      dup4\n        /* \"#utility.yul\":10547:10567   */\n      tag_118\n      jump\t// in\n    tag_249:\n        /* \"#utility.yul\":10542:10567   */\n      swap3\n      pop\n        /* \"#utility.yul\":10590:10591   */\n      dup3\n        /* \"#utility.yul\":10587:10588   */\n      dup3\n        /* \"#utility.yul\":10583:10592   */\n      add\n        /* \"#utility.yul\":10576:10592   */\n      swap1\n      pop\n        /* \"#utility.yul\":10611:10614   */\n      dup1\n        /* \"#utility.yul\":10608:10609   */\n      dup3\n        /* \"#utility.yul\":10605:10615   */\n      gt\n        /* \"#utility.yul\":10602:10638   */\n      iszero\n      tag_250\n      jumpi\n        /* \"#utility.yul\":10618:10636   */\n      tag_251\n      tag_139\n      jump\t// in\n    tag_251:\n        /* \"#utility.yul\":10602:10638   */\n    tag_250:\n        /* \"#utility.yul\":10454:10645   */\n      swap3\n      swap2\n      pop\n      pop\n      jump\t// out\n\n    auxdata: 0xa2646970667358221220e70e7b0f44500d7eec8c431dd73a92d4ef51676ee3800cbee9fe9d72ead29abb64736f6c63430008130033\n}\n",
				"bytecode": {
					"linkReferences": {},
					"object": "608060405234801561001057600080fd5b50604051611025380380611025833981810160405281019061003291906100d6565b33600360006101000a81548173ffffffffffffffffffffffffffffffffffffffff021916908373ffffffffffffffffffffffffffffffffffffffff160217905550806002819055506000600160006101000a81548160ff02191690831515021790555050610103565b600080fd5b6000819050919050565b6100b3816100a0565b81146100be57600080fd5b50565b6000815190506100d0816100aa565b92915050565b6000602082840312156100ec576100eb61009b565b5b60006100fa848285016100c1565b91505092915050565b610f13806101126000396000f3fe608060405234801561001057600080fd5b506004361061007d5760003560e01c8063454a2ab31161005b578063454a2ab3146100db5780639d9ca28d146100f7578063aeaaa29914610127578063f851a440146101455761007d565b8063047fc9aa14610082578063378252f2146100a05780634423c5f1146100aa575b600080fd5b61008a610163565b604051610097919061094c565b60405180910390f35b6100a8610169565b005b6100c460048036038101906100bf9190610998565b6104af565b6040516100d2929190610a06565b60405180910390f35b6100f560048036038101906100f09190610998565b610503565b005b610111600480360381019061010c9190610a5b565b61064d565b60405161011e9190610aa3565b60405180910390f35b61012f61066d565b60405161013c9190610aa3565b60405180910390f35b61014d610680565b60405161015a9190610abe565b60405180910390f35b60025481565b600360009054906101000a900473ffffffffffffffffffffffffffffffffffffffff1673ffffffffffffffffffffffffffffffffffffffff163373ffffffffffffffffffffffffffffffffffffffff16146101f9576040517f08c379a00000000000000000000000000000000000000000000000000000000081526004016101f090610b5c565b60405180910390fd5b600160009054906101000a900460ff1615610249576040517f08c379a000000000000000000000000000000000000000000000000000000000815260040161024090610bc8565b60405180910390fd5b6002546000805490501015610293576040517f08c379a000000000000000000000000000000000000000000000000000000000815260040161028a90610c34565b60405180910390fd5b61029b6106a6565b60005b600254811015610357576001600460008084815481106102c1576102c0610c54565b5b906000526020600020906002020160000160009054906101000a900473ffffffffffffffffffffffffffffffffffffffff1673ffffffffffffffffffffffffffffffffffffffff1673ffffffffffffffffffffffffffffffffffffffff16815260200190815260200160002060006101000a81548160ff021916908315150217905550808061034f90610cb2565b91505061029e565b5060018060006101000a81548160ff021916908315150217905550600060025467ffffffffffffffff8111156103905761038f610cfa565b5b6040519080825280602002602001820160405280156103be5781602001602082028036833780820191505090505b50905060005b60025481101561047457600081815481106103e2576103e1610c54565b5b906000526020600020906002020160000160009054906101000a900473ffffffffffffffffffffffffffffffffffffffff1682828151811061042757610426610c54565b5b602002602001019073ffffffffffffffffffffffffffffffffffffffff16908173ffffffffffffffffffffffffffffffffffffffff1681525050808061046c90610cb2565b9150506103c4565b507fccbe60a537e1933896a1c47036a64393af57cc6e63a394a5663a4cbc4a454c3f816040516104a49190610de7565b60405180910390a150565b600081815481106104bf57600080fd5b90600052602060002090600202016000915090508060000160009054906101000a900473ffffffffffffffffffffffffffffffffffffffff16908060010154905082565b600160009054906101000a900460ff1615610553576040517f08c379a000000000000000000000000000000000000000000000000000000000815260040161054a90610e55565b60405180910390fd5b600060405180604001604052803373ffffffffffffffffffffffffffffffffffffffff16815260200183815250908060018154018082558091505060019003906000526020600020906002020160009091909190915060008201518160000160006101000a81548173ffffffffffffffffffffffffffffffffffffffff021916908373ffffffffffffffffffffffffffffffffffffffff1602179055506020820151816001015550503373ffffffffffffffffffffffffffffffffffffffff167f3fabff0a9c3ecd6814702e247fa9733e5d0aa69e3a38590f92cb18f623a2254d82604051610642919061094c565b60405180910390a250565b60046020528060005260406000206000915054906101000a900460ff1681565b600160009054906101000a900460ff1681565b600360009054906101000a900473ffffffffffffffffffffffffffffffffffffffff1681565b60008080549050905060005b8181101561092f5760005b6001836106ca9190610e75565b81101561091b5760006001826106e09190610ea9565b815481106106f1576106f0610c54565b5b9060005260206000209060020201600101546000828154811061071757610716610c54565b5b906000526020600020906002020160010154101561090857600080828154811061074457610743610c54565b5b90600052602060002090600202016040518060400160405290816000820160009054906101000a900473ffffffffffffffffffffffffffffffffffffffff1673ffffffffffffffffffffffffffffffffffffffff1673ffffffffffffffffffffffffffffffffffffffff168152602001600182015481525050905060006001836107ce9190610ea9565b815481106107df576107de610c54565b5b90600052602060002090600202016000838154811061080157610800610c54565b5b90600052602060002090600202016000820160009054906101000a900473ffffffffffffffffffffffffffffffffffffffff168160000160006101000a81548173ffffffffffffffffffffffffffffffffffffffff021916908373ffffffffffffffffffffffffffffffffffffffff160217905550600182015481600101559050508060006001846108939190610ea9565b815481106108a4576108a3610c54565b5b906000526020600020906002020160008201518160000160006101000a81548173ffffffffffffffffffffffffffffffffffffffff021916908373ffffffffffffffffffffffffffffffffffffffff16021790555060208201518160010155905050505b808061091390610cb2565b9150506106bd565b50808061092790610cb2565b9150506106b2565b5050565b6000819050919050565b61094681610933565b82525050565b6000602082019050610961600083018461093d565b92915050565b600080fd5b61097581610933565b811461098057600080fd5b50565b6000813590506109928161096c565b92915050565b6000602082840312156109ae576109ad610967565b5b60006109bc84828501610983565b91505092915050565b600073ffffffffffffffffffffffffffffffffffffffff82169050919050565b60006109f0826109c5565b9050919050565b610a00816109e5565b82525050565b6000604082019050610a1b60008301856109f7565b610a28602083018461093d565b9392505050565b610a38816109e5565b8114610a4357600080fd5b50565b600081359050610a5581610a2f565b92915050565b600060208284031215610a7157610a70610967565b5b6000610a7f84828501610a46565b91505092915050565b60008115159050919050565b610a9d81610a88565b82525050565b6000602082019050610ab86000830184610a94565b92915050565b6000602082019050610ad360008301846109f7565b92915050565b600082825260208201905092915050565b7f4f6e6c792061646d696e2063616e2063616c6c20746869732066756e6374696f60008201527f6e00000000000000000000000000000000000000000000000000000000000000602082015250565b6000610b46602183610ad9565b9150610b5182610aea565b604082019050919050565b60006020820190508181036000830152610b7581610b39565b9050919050565b7f41756374696f6e20616c726561647920636c6f73656400000000000000000000600082015250565b6000610bb2601683610ad9565b9150610bbd82610b7c565b602082019050919050565b60006020820190508181036000830152610be181610ba5565b9050919050565b7f4e6f7420656e6f75676820626964730000000000000000000000000000000000600082015250565b6000610c1e600f83610ad9565b9150610c2982610be8565b602082019050919050565b60006020820190508181036000830152610c4d81610c11565b9050919050565b7f4e487b7100000000000000000000000000000000000000000000000000000000600052603260045260246000fd5b7f4e487b7100000000000000000000000000000000000000000000000000000000600052601160045260246000fd5b6000610cbd82610933565b91507fffffffffffffffffffffffffffffffffffffffffffffffffffffffffffffffff8203610cef57610cee610c83565b5b600182019050919050565b7f4e487b7100000000000000000000000000000000000000000000000000000000600052604160045260246000fd5b600081519050919050565b600082825260208201905092915050565b6000819050602082019050919050565b610d5e816109e5565b82525050565b6000610d708383610d55565b60208301905092915050565b6000602082019050919050565b6000610d9482610d29565b610d9e8185610d34565b9350610da983610d45565b8060005b83811015610dda578151610dc18882610d64565b9750610dcc83610d7c565b925050600181019050610dad565b5085935050505092915050565b60006020820190508181036000830152610e018184610d89565b905092915050565b7f41756374696f6e20636c6f736564000000000000000000000000000000000000600082015250565b6000610e3f600e83610ad9565b9150610e4a82610e09565b602082019050919050565b60006020820190508181036000830152610e6e81610e32565b9050919050565b6000610e8082610933565b9150610e8b83610933565b9250828203905081811115610ea357610ea2610c83565b5b92915050565b6000610eb482610933565b9150610ebf83610933565b9250828201905080821115610ed757610ed6610c83565b5b9291505056fea2646970667358221220e70e7b0f44500d7eec8c431dd73a92d4ef51676ee3800cbee9fe9d72ead29abb64736f6c63430008130033",
					"opcodes": "PUSH1 0x80 PUSH1 0x40 MSTORE CALLVALUE DUP1 ISZERO PUSH2 0x10 JUMPI PUSH1 0x0 DUP1 REVERT JUMPDEST POP PUSH1 0x40 MLOAD PUSH2 0x1025 CODESIZE SUB DUP1 PUSH2 0x1025 DUP4 CODECOPY DUP2 DUP2 ADD PUSH1 0x40 MSTORE DUP2 ADD SWAP1 PUSH2 0x32 SWAP2 SWAP1 PUSH2 0xD6 JUMP JUMPDEST CALLER PUSH1 0x3 PUSH1 0x0 PUSH2 0x100 EXP DUP2 SLOAD DUP2 PUSH20 0xFFFFFFFFFFFFFFFFFFFFFFFFFFFFFFFFFFFFFFFF MUL NOT AND SWAP1 DUP4 PUSH20 0xFFFFFFFFFFFFFFFFFFFFFFFFFFFFFFFFFFFFFFFF AND MUL OR SWAP1 SSTORE POP DUP1 PUSH1 0x2 DUP2 SWAP1 SSTORE POP PUSH1 0x0 PUSH1 0x1 PUSH1 0x0 PUSH2 0x100 EXP DUP2 SLOAD DUP2 PUSH1 0xFF MUL NOT AND SWAP1 DUP4 ISZERO ISZERO MUL OR SWAP1 SSTORE POP POP PUSH2 0x103 JUMP JUMPDEST PUSH1 0x0 DUP1 REVERT JUMPDEST PUSH1 0x0 DUP2 SWAP1 POP SWAP2 SWAP1 POP JUMP JUMPDEST PUSH2 0xB3 DUP2 PUSH2 0xA0 JUMP JUMPDEST DUP2 EQ PUSH2 0xBE JUMPI PUSH1 0x0 DUP1 REVERT JUMPDEST POP JUMP JUMPDEST PUSH1 0x0 DUP2 MLOAD SWAP1 POP PUSH2 0xD0 DUP2 PUSH2 0xAA JUMP JUMPDEST SWAP3 SWAP2 POP POP JUMP JUMPDEST PUSH1 0x0 PUSH1 0x20 DUP3 DUP5 SUB SLT ISZERO PUSH2 0xEC JUMPI PUSH2 0xEB PUSH2 0x9B JUMP JUMPDEST JUMPDEST PUSH1 0x0 PUSH2 0xFA DUP5 DUP3 DUP6 ADD PUSH2 0xC1 JUMP JUMPDEST SWAP2 POP POP SWAP3 SWAP2 POP POP JUMP JUMPDEST PUSH2 0xF13 DUP1 PUSH2 0x112 PUSH1 0x0 CODECOPY PUSH1 0x0 RETURN INVALID PUSH1 0x80 PUSH1 0x40 MSTORE CALLVALUE DUP1 ISZERO PUSH2 0x10 JUMPI PUSH1 0x0 DUP1 REVERT JUMPDEST POP PUSH1 0x4 CALLDATASIZE LT PUSH2 0x7D JUMPI PUSH1 0x0 CALLDATALOAD PUSH1 0xE0 SHR DUP1 PUSH4 0x454A2AB3 GT PUSH2 0x5B JUMPI DUP1 PUSH4 0x454A2AB3 EQ PUSH2 0xDB JUMPI DUP1 PUSH4 0x9D9CA28D EQ PUSH2 0xF7 JUMPI DUP1 PUSH4 0xAEAAA299 EQ PUSH2 0x127 JUMPI DUP1 PUSH4 0xF851A440 EQ PUSH2 0x145 JUMPI PUSH2 0x7D JUMP JUMPDEST DUP1 PUSH4 0x47FC9AA EQ PUSH2 0x82 JUMPI DUP1 PUSH4 0x378252F2 EQ PUSH2 0xA0 JUMPI DUP1 PUSH4 0x4423C5F1 EQ PUSH2 0xAA JUMPI JUMPDEST PUSH1 0x0 DUP1 REVERT JUMPDEST PUSH2 0x8A PUSH2 0x163 JUMP JUMPDEST PUSH1 0x40 MLOAD PUSH2 0x97 SWAP2 SWAP1 PUSH2 0x94C JUMP JUMPDEST PUSH1 0x40 MLOAD DUP1 SWAP2 SUB SWAP1 RETURN JUMPDEST PUSH2 0xA8 PUSH2 0x169 JUMP JUMPDEST STOP JUMPDEST PUSH2 0xC4 PUSH1 0x4 DUP1 CALLDATASIZE SUB DUP2 ADD SWAP1 PUSH2 0xBF SWAP2 SWAP1 PUSH2 0x998 JUMP JUMPDEST PUSH2 0x4AF JUMP JUMPDEST PUSH1 0x40 MLOAD PUSH2 0xD2 SWAP3 SWAP2 SWAP1 PUSH2 0xA06 JUMP JUMPDEST PUSH1 0x40 MLOAD DUP1 SWAP2 SUB SWAP1 RETURN JUMPDEST PUSH2 0xF5 PUSH1 0x4 DUP1 CALLDATASIZE SUB DUP2 ADD SWAP1 PUSH2 0xF0 SWAP2 SWAP1 PUSH2 0x998 JUMP JUMPDEST PUSH2 0x503 JUMP JUMPDEST STOP JUMPDEST PUSH2 0x111 PUSH1 0x4 DUP1 CALLDATASIZE SUB DUP2 ADD SWAP1 PUSH2 0x10C SWAP2 SWAP1 PUSH2 0xA5B JUMP JUMPDEST PUSH2 0x64D JUMP JUMPDEST PUSH1 0x40 MLOAD PUSH2 0x11E SWAP2 SWAP1 PUSH2 0xAA3 JUMP JUMPDEST PUSH1 0x40 MLOAD DUP1 SWAP2 SUB SWAP1 RETURN JUMPDEST PUSH2 0x12F PUSH2 0x66D JUMP JUMPDEST PUSH1 0x40 MLOAD PUSH2 0x13C SWAP2 SWAP1 PUSH2 0xAA3 JUMP JUMPDEST PUSH1 0x40 MLOAD DUP1 SWAP2 SUB SWAP1 RETURN JUMPDEST PUSH2 0x14D PUSH2 0x680 JUMP JUMPDEST PUSH1 0x40 MLOAD PUSH2 0x15A SWAP2 SWAP1 PUSH2 0xABE JUMP JUMPDEST PUSH1 0x40 MLOAD DUP1 SWAP2 SUB SWAP1 RETURN JUMPDEST PUSH1 0x2 SLOAD DUP2 JUMP JUMPDEST PUSH1 0x3 PUSH1 0x0 SWAP1 SLOAD SWAP1 PUSH2 0x100 EXP SWAP1 DIV PUSH20 0xFFFFFFFFFFFFFFFFFFFFFFFFFFFFFFFFFFFFFFFF AND PUSH20 0xFFFFFFFFFFFFFFFFFFFFFFFFFFFFFFFFFFFFFFFF AND CALLER PUSH20 0xFFFFFFFFFFFFFFFFFFFFFFFFFFFFFFFFFFFFFFFF AND EQ PUSH2 0x1F9 JUMPI PUSH1 0x40 MLOAD PUSH32 0x8C379A000000000000000000000000000000000000000000000000000000000 DUP2 MSTORE PUSH1 0x4 ADD PUSH2 0x1F0 SWAP1 PUSH2 0xB5C JUMP JUMPDEST PUSH1 0x40 MLOAD DUP1 SWAP2 SUB SWAP1 REVERT JUMPDEST PUSH1 0x1 PUSH1 0x0 SWAP1 SLOAD SWAP1 PUSH2 0x100 EXP SWAP1 DIV PUSH1 0xFF AND ISZERO PUSH2 0x249 JUMPI PUSH1 0x40 MLOAD PUSH32 0x8C379A000000000000000000000000000000000000000000000000000000000 DUP2 MSTORE PUSH1 0x4 ADD PUSH2 0x240 SWAP1 PUSH2 0xBC8 JUMP JUMPDEST PUSH1 0x40 MLOAD DUP1 SWAP2 SUB SWAP1 REVERT JUMPDEST PUSH1 0x2 SLOAD PUSH1 0x0 DUP1 SLOAD SWAP1 POP LT ISZERO PUSH2 0x293 JUMPI PUSH1 0x40 MLOAD PUSH32 0x8C379A000000000000000000000000000000000000000000000000000000000 DUP2 MSTORE PUSH1 0x4 ADD PUSH2 0x28A SWAP1 PUSH2 0xC34 JUMP JUMPDEST PUSH1 0x40 MLOAD DUP1 SWAP2 SUB SWAP1 REVERT JUMPDEST PUSH2 0x29B PUSH2 0x6A6 JUMP JUMPDEST PUSH1 0x0 JUMPDEST PUSH1 0x2 SLOAD DUP2 LT ISZERO PUSH2 0x357 JUMPI PUSH1 0x1 PUSH1 0x4 PUSH1 0x0 DUP1 DUP5 DUP2 SLOAD DUP2 LT PUSH2 0x2C1 JUMPI PUSH2 0x2C0 PUSH2 0xC54 JUMP JUMPDEST JUMPDEST SWAP1 PUSH1 0x0 MSTORE PUSH1 0x20 PUSH1 0x0 KECCAK256 SWAP1 PUSH1 0x2 MUL ADD PUSH1 0x0 ADD PUSH1 0x0 SWAP1 SLOAD SWAP1 PUSH2 0x100 EXP SWAP1 DIV PUSH20 0xFFFFFFFFFFFFFFFFFFFFFFFFFFFFFFFFFFFFFFFF AND PUSH20 0xFFFFFFFFFFFFFFFFFFFFFFFFFFFFFFFFFFFFFFFF AND PUSH20 0xFFFFFFFFFFFFFFFFFFFFFFFFFFFFFFFFFFFFFFFF AND DUP2 MSTORE PUSH1 0x20 ADD SWAP1 DUP2 MSTORE PUSH1 0x20 ADD PUSH1 0x0 KECCAK256 PUSH1 0x0 PUSH2 0x100 EXP DUP2 SLOAD DUP2 PUSH1 0xFF MUL NOT AND SWAP1 DUP4 ISZERO ISZERO MUL OR SWAP1 SSTORE POP DUP1 DUP1 PUSH2 0x34F SWAP1 PUSH2 0xCB2 JUMP JUMPDEST SWAP2 POP POP PUSH2 0x29E JUMP JUMPDEST POP PUSH1 0x1 DUP1 PUSH1 0x0 PUSH2 0x100 EXP DUP2 SLOAD DUP2 PUSH1 0xFF MUL NOT AND SWAP1 DUP4 ISZERO ISZERO MUL OR SWAP1 SSTORE POP PUSH1 0x0 PUSH1 0x2 SLOAD PUSH8 0xFFFFFFFFFFFFFFFF DUP2 GT ISZERO PUSH2 0x390 JUMPI PUSH2 0x38F PUSH2 0xCFA JUMP JUMPDEST JUMPDEST PUSH1 0x40 MLOAD SWAP1 DUP1 DUP3 MSTORE DUP1 PUSH1 0x20 MUL PUSH1 0x20 ADD DUP3 ADD PUSH1 0x40 MSTORE DUP1 ISZERO PUSH2 0x3BE JUMPI DUP2 PUSH1 0x20 ADD PUSH1 0x20 DUP3 MUL DUP1 CALLDATASIZE DUP4 CALLDATACOPY DUP1 DUP3 ADD SWAP2 POP POP SWAP1 POP JUMPDEST POP SWAP1 POP PUSH1 0x0 JUMPDEST PUSH1 0x2 SLOAD DUP2 LT ISZERO PUSH2 0x474 JUMPI PUSH1 0x0 DUP2 DUP2 SLOAD DUP2 LT PUSH2 0x3E2 JUMPI PUSH2 0x3E1 PUSH2 0xC54 JUMP JUMPDEST JUMPDEST SWAP1 PUSH1 0x0 MSTORE PUSH1 0x20 PUSH1 0x0 KECCAK256 SWAP1 PUSH1 0x2 MUL ADD PUSH1 0x0 ADD PUSH1 0x0 SWAP1 SLOAD SWAP1 PUSH2 0x100 EXP SWAP1 DIV PUSH20 0xFFFFFFFFFFFFFFFFFFFFFFFFFFFFFFFFFFFFFFFF AND DUP3 DUP3 DUP2 MLOAD DUP2 LT PUSH2 0x427 JUMPI PUSH2 0x426 PUSH2 0xC54 JUMP JUMPDEST JUMPDEST PUSH1 0x20 MUL PUSH1 0x20 ADD ADD SWAP1 PUSH20 0xFFFFFFFFFFFFFFFFFFFFFFFFFFFFFFFFFFFFFFFF AND SWAP1 DUP2 PUSH20 0xFFFFFFFFFFFFFFFFFFFFFFFFFFFFFFFFFFFFFFFF AND DUP2 MSTORE POP POP DUP1 DUP1 PUSH2 0x46C SWAP1 PUSH2 0xCB2 JUMP JUMPDEST SWAP2 POP POP PUSH2 0x3C4 JUMP JUMPDEST POP PUSH32 0xCCBE60A537E1933896A1C47036A64393AF57CC6E63A394A5663A4CBC4A454C3F DUP2 PUSH1 0x40 MLOAD PUSH2 0x4A4 SWAP2 SWAP1 PUSH2 0xDE7 JUMP JUMPDEST PUSH1 0x40 MLOAD DUP1 SWAP2 SUB SWAP1 LOG1 POP JUMP JUMPDEST PUSH1 0x0 DUP2 DUP2 SLOAD DUP2 LT PUSH2 0x4BF JUMPI PUSH1 0x0 DUP1 REVERT JUMPDEST SWAP1 PUSH1 0x0 MSTORE PUSH1 0x20 PUSH1 0x0 KECCAK256 SWAP1 PUSH1 0x2 MUL ADD PUSH1 0x0 SWAP2 POP SWAP1 POP DUP1 PUSH1 0x0 ADD PUSH1 0x0 SWAP1 SLOAD SWAP1 PUSH2 0x100 EXP SWAP1 DIV PUSH20 0xFFFFFFFFFFFFFFFFFFFFFFFFFFFFFFFFFFFFFFFF AND SWAP1 DUP1 PUSH1 0x1 ADD SLOAD SWAP1 POP DUP3 JUMP JUMPDEST PUSH1 0x1 PUSH1 0x0 SWAP1 SLOAD SWAP1 PUSH2 0x100 EXP SWAP1 DIV PUSH1 0xFF AND ISZERO PUSH2 0x553 JUMPI PUSH1 0x40 MLOAD PUSH32 0x8C379A000000000000000000000000000000000000000000000000000000000 DUP2 MSTORE PUSH1 0x4 ADD PUSH2 0x54A SWAP1 PUSH2 0xE55 JUMP JUMPDEST PUSH1 0x40 MLOAD DUP1 SWAP2 SUB SWAP1 REVERT JUMPDEST PUSH1 0x0 PUSH1 0x40 MLOAD DUP1 PUSH1 0x40 ADD PUSH1 0x40 MSTORE DUP1 CALLER PUSH20 0xFFFFFFFFFFFFFFFFFFFFFFFFFFFFFFFFFFFFFFFF AND DUP2 MSTORE PUSH1 0x20 ADD DUP4 DUP2 MSTORE POP SWAP1 DUP1 PUSH1 0x1 DUP2 SLOAD ADD DUP1 DUP3 SSTORE DUP1 SWAP2 POP POP PUSH1 0x1 SWAP1 SUB SWAP1 PUSH1 0x0 MSTORE PUSH1 0x20 PUSH1 0x0 KECCAK256 SWAP1 PUSH1 0x2 MUL ADD PUSH1 0x0 SWAP1 SWAP2 SWAP1 SWAP2 SWAP1 SWAP2 POP PUSH1 0x0 DUP3 ADD MLOAD DUP2 PUSH1 0x0 ADD PUSH1 0x0 PUSH2 0x100 EXP DUP2 SLOAD DUP2 PUSH20 0xFFFFFFFFFFFFFFFFFFFFFFFFFFFFFFFFFFFFFFFF MUL NOT AND SWAP1 DUP4 PUSH20 0xFFFFFFFFFFFFFFFFFFFFFFFFFFFFFFFFFFFFFFFF AND MUL OR SWAP1 SSTORE POP PUSH1 0x20 DUP3 ADD MLOAD DUP2 PUSH1 0x1 ADD SSTORE POP POP CALLER PUSH20 0xFFFFFFFFFFFFFFFFFFFFFFFFFFFFFFFFFFFFFFFF AND PUSH32 0x3FABFF0A9C3ECD6814702E247FA9733E5D0AA69E3A38590F92CB18F623A2254D DUP3 PUSH1 0x40 MLOAD PUSH2 0x642 SWAP2 SWAP1 PUSH2 0x94C JUMP JUMPDEST PUSH1 0x40 MLOAD DUP1 SWAP2 SUB SWAP1 LOG2 POP JUMP JUMPDEST PUSH1 0x4 PUSH1 0x20 MSTORE DUP1 PUSH1 0x0 MSTORE PUSH1 0x40 PUSH1 0x0 KECCAK256 PUSH1 0x0 SWAP2 POP SLOAD SWAP1 PUSH2 0x100 EXP SWAP1 DIV PUSH1 0xFF AND DUP2 JUMP JUMPDEST PUSH1 0x1 PUSH1 0x0 SWAP1 SLOAD SWAP1 PUSH2 0x100 EXP SWAP1 DIV PUSH1 0xFF AND DUP2 JUMP JUMPDEST PUSH1 0x3 PUSH1 0x0 SWAP1 SLOAD SWAP1 PUSH2 0x100 EXP SWAP1 DIV PUSH20 0xFFFFFFFFFFFFFFFFFFFFFFFFFFFFFFFFFFFFFFFF AND DUP2 JUMP JUMPDEST PUSH1 0x0 DUP1 DUP1 SLOAD SWAP1 POP SWAP1 POP PUSH1 0x0 JUMPDEST DUP2 DUP2 LT ISZERO PUSH2 0x92F JUMPI PUSH1 0x0 JUMPDEST PUSH1 0x1 DUP4 PUSH2 0x6CA SWAP2 SWAP1 PUSH2 0xE75 JUMP JUMPDEST DUP2 LT ISZERO PUSH2 0x91B JUMPI PUSH1 0x0 PUSH1 0x1 DUP3 PUSH2 0x6E0 SWAP2 SWAP1 PUSH2 0xEA9 JUMP JUMPDEST DUP2 SLOAD DUP2 LT PUSH2 0x6F1 JUMPI PUSH2 0x6F0 PUSH2 0xC54 JUMP JUMPDEST JUMPDEST SWAP1 PUSH1 0x0 MSTORE PUSH1 0x20 PUSH1 0x0 KECCAK256 SWAP1 PUSH1 0x2 MUL ADD PUSH1 0x1 ADD SLOAD PUSH1 0x0 DUP3 DUP2 SLOAD DUP2 LT PUSH2 0x717 JUMPI PUSH2 0x716 PUSH2 0xC54 JUMP JUMPDEST JUMPDEST SWAP1 PUSH1 0x0 MSTORE PUSH1 0x20 PUSH1 0x0 KECCAK256 SWAP1 PUSH1 0x2 MUL ADD PUSH1 0x1 ADD SLOAD LT ISZERO PUSH2 0x908 JUMPI PUSH1 0x0 DUP1 DUP3 DUP2 SLOAD DUP2 LT PUSH2 0x744 JUMPI PUSH2 0x743 PUSH2 0xC54 JUMP JUMPDEST JUMPDEST SWAP1 PUSH1 0x0 MSTORE PUSH1 0x20 PUSH1 0x0 KECCAK256 SWAP1 PUSH1 0x2 MUL ADD PUSH1 0x40 MLOAD DUP1 PUSH1 0x40 ADD PUSH1 0x40 MSTORE SWAP1 DUP2 PUSH1 0x0 DUP3 ADD PUSH1 0x0 SWAP1 SLOAD SWAP1 PUSH2 0x100 EXP SWAP1 DIV PUSH20 0xFFFFFFFFFFFFFFFFFFFFFFFFFFFFFFFFFFFFFFFF AND PUSH20 0xFFFFFFFFFFFFFFFFFFFFFFFFFFFFFFFFFFFFFFFF AND PUSH20 0xFFFFFFFFFFFFFFFFFFFFFFFFFFFFFFFFFFFFFFFF AND DUP2 MSTORE PUSH1 0x20 ADD PUSH1 0x1 DUP3 ADD SLOAD DUP2 MSTORE POP POP SWAP1 POP PUSH1 0x0 PUSH1 0x1 DUP4 PUSH2 0x7CE SWAP2 SWAP1 PUSH2 0xEA9 JUMP JUMPDEST DUP2 SLOAD DUP2 LT PUSH2 0x7DF JUMPI PUSH2 0x7DE PUSH2 0xC54 JUMP JUMPDEST JUMPDEST SWAP1 PUSH1 0x0 MSTORE PUSH1 0x20 PUSH1 0x0 KECCAK256 SWAP1 PUSH1 0x2 MUL ADD PUSH1 0x0 DUP4 DUP2 SLOAD DUP2 LT PUSH2 0x801 JUMPI PUSH2 0x800 PUSH2 0xC54 JUMP JUMPDEST JUMPDEST SWAP1 PUSH1 0x0 MSTORE PUSH1 0x20 PUSH1 0x0 KECCAK256 SWAP1 PUSH1 0x2 MUL ADD PUSH1 0x0 DUP3 ADD PUSH1 0x0 SWAP1 SLOAD SWAP1 PUSH2 0x100 EXP SWAP1 DIV PUSH20 0xFFFFFFFFFFFFFFFFFFFFFFFFFFFFFFFFFFFFFFFF AND DUP2 PUSH1 0x0 ADD PUSH1 0x0 PUSH2 0x100 EXP DUP2 SLOAD DUP2 PUSH20 0xFFFFFFFFFFFFFFFFFFFFFFFFFFFFFFFFFFFFFFFF MUL NOT AND SWAP1 DUP4 PUSH20 0xFFFFFFFFFFFFFFFFFFFFFFFFFFFFFFFFFFFFFFFF AND MUL OR SWAP1 SSTORE POP PUSH1 0x1 DUP3 ADD SLOAD DUP2 PUSH1 0x1 ADD SSTORE SWAP1 POP POP DUP1 PUSH1 0x0 PUSH1 0x1 DUP5 PUSH2 0x893 SWAP2 SWAP1 PUSH2 0xEA9 JUMP JUMPDEST DUP2 SLOAD DUP2 LT PUSH2 0x8A4 JUMPI PUSH2 0x8A3 PUSH2 0xC54 JUMP JUMPDEST JUMPDEST SWAP1 PUSH1 0x0 MSTORE PUSH1 0x20 PUSH1 0x0 KECCAK256 SWAP1 PUSH1 0x2 MUL ADD PUSH1 0x0 DUP3 ADD MLOAD DUP2 PUSH1 0x0 ADD PUSH1 0x0 PUSH2 0x100 EXP DUP2 SLOAD DUP2 PUSH20 0xFFFFFFFFFFFFFFFFFFFFFFFFFFFFFFFFFFFFFFFF MUL NOT AND SWAP1 DUP4 PUSH20 0xFFFFFFFFFFFFFFFFFFFFFFFFFFFFFFFFFFFFFFFF AND MUL OR SWAP1 SSTORE POP PUSH1 0x20 DUP3 ADD MLOAD DUP2 PUSH1 0x1 ADD SSTORE SWAP1 POP POP POP JUMPDEST DUP1 DUP1 PUSH2 0x913 SWAP1 PUSH2 0xCB2 JUMP JUMPDEST SWAP2 POP POP PUSH2 0x6BD JUMP JUMPDEST POP DUP1 DUP1 PUSH2 0x927 SWAP1 PUSH2 0xCB2 JUMP JUMPDEST SWAP2 POP POP PUSH2 0x6B2 JUMP JUMPDEST POP POP JUMP JUMPDEST PUSH1 0x0 DUP2 SWAP1 POP SWAP2 SWAP1 POP JUMP JUMPDEST PUSH2 0x946 DUP2 PUSH2 0x933 JUMP JUMPDEST DUP3 MSTORE POP POP JUMP JUMPDEST PUSH1 0x0 PUSH1 0x20 DUP3 ADD SWAP1 POP PUSH2 0x961 PUSH1 0x0 DUP4 ADD DUP5 PUSH2 0x93D JUMP JUMPDEST SWAP3 SWAP2 POP POP JUMP JUMPDEST PUSH1 0x0 DUP1 REVERT JUMPDEST PUSH2 0x975 DUP2 PUSH2 0x933 JUMP JUMPDEST DUP2 EQ PUSH2 0x980 JUMPI PUSH1 0x0 DUP1 REVERT JUMPDEST POP JUMP JUMPDEST PUSH1 0x0 DUP2 CALLDATALOAD SWAP1 POP PUSH2 0x992 DUP2 PUSH2 0x96C JUMP JUMPDEST SWAP3 SWAP2 POP POP JUMP JUMPDEST PUSH1 0x0 PUSH1 0x20 DUP3 DUP5 SUB SLT ISZERO PUSH2 0x9AE JUMPI PUSH2 0x9AD PUSH2 0x967 JUMP JUMPDEST JUMPDEST PUSH1 0x0 PUSH2 0x9BC DUP5 DUP3 DUP6 ADD PUSH2 0x983 JUMP JUMPDEST SWAP2 POP POP SWAP3 SWAP2 POP POP JUMP JUMPDEST PUSH1 0x0 PUSH20 0xFFFFFFFFFFFFFFFFFFFFFFFFFFFFFFFFFFFFFFFF DUP3 AND SWAP1 POP SWAP2 SWAP1 POP JUMP JUMPDEST PUSH1 0x0 PUSH2 0x9F0 DUP3 PUSH2 0x9C5 JUMP JUMPDEST SWAP1 POP SWAP2 SWAP1 POP JUMP JUMPDEST PUSH2 0xA00 DUP2 PUSH2 0x9E5 JUMP JUMPDEST DUP3 MSTORE POP POP JUMP JUMPDEST PUSH1 0x0 PUSH1 0x40 DUP3 ADD SWAP1 POP PUSH2 0xA1B PUSH1 0x0 DUP4 ADD DUP6 PUSH2 0x9F7 JUMP JUMPDEST PUSH2 0xA28 PUSH1 0x20 DUP4 ADD DUP5 PUSH2 0x93D JUMP JUMPDEST SWAP4 SWAP3 POP POP POP JUMP JUMPDEST PUSH2 0xA38 DUP2 PUSH2 0x9E5 JUMP JUMPDEST DUP2 EQ PUSH2 0xA43 JUMPI PUSH1 0x0 DUP1 REVERT JUMPDEST POP JUMP JUMPDEST PUSH1 0x0 DUP2 CALLDATALOAD SWAP1 POP PUSH2 0xA55 DUP2 PUSH2 0xA2F JUMP JUMPDEST SWAP3 SWAP2 POP POP JUMP JUMPDEST PUSH1 0x0 PUSH1 0x20 DUP3 DUP5 SUB SLT ISZERO PUSH2 0xA71 JUMPI PUSH2 0xA70 PUSH2 0x967 JUMP JUMPDEST JUMPDEST PUSH1 0x0 PUSH2 0xA7F DUP5 DUP3 DUP6 ADD PUSH2 0xA46 JUMP JUMPDEST SWAP2 POP POP SWAP3 SWAP2 POP POP JUMP JUMPDEST PUSH1 0x0 DUP2 ISZERO ISZERO SWAP1 POP SWAP2 SWAP1 POP JUMP JUMPDEST PUSH2 0xA9D DUP2 PUSH2 0xA88 JUMP JUMPDEST DUP3 MSTORE POP POP JUMP JUMPDEST PUSH1 0x0 PUSH1 0x20 DUP3 ADD SWAP1 POP PUSH2 0xAB8 PUSH1 0x0 DUP4 ADD DUP5 PUSH2 0xA94 JUMP JUMPDEST SWAP3 SWAP2 POP POP JUMP JUMPDEST PUSH1 0x0 PUSH1 0x20 DUP3 ADD SWAP1 POP PUSH2 0xAD3 PUSH1 0x0 DUP4 ADD DUP5 PUSH2 0x9F7 JUMP JUMPDEST SWAP3 SWAP2 POP POP JUMP JUMPDEST PUSH1 0x0 DUP3 DUP3 MSTORE PUSH1 0x20 DUP3 ADD SWAP1 POP SWAP3 SWAP2 POP POP JUMP JUMPDEST PUSH32 0x4F6E6C792061646D696E2063616E2063616C6C20746869732066756E6374696F PUSH1 0x0 DUP3 ADD MSTORE PUSH32 0x6E00000000000000000000000000000000000000000000000000000000000000 PUSH1 0x20 DUP3 ADD MSTORE POP JUMP JUMPDEST PUSH1 0x0 PUSH2 0xB46 PUSH1 0x21 DUP4 PUSH2 0xAD9 JUMP JUMPDEST SWAP2 POP PUSH2 0xB51 DUP3 PUSH2 0xAEA JUMP JUMPDEST PUSH1 0x40 DUP3 ADD SWAP1 POP SWAP2 SWAP1 POP JUMP JUMPDEST PUSH1 0x0 PUSH1 0x20 DUP3 ADD SWAP1 POP DUP2 DUP2 SUB PUSH1 0x0 DUP4 ADD MSTORE PUSH2 0xB75 DUP2 PUSH2 0xB39 JUMP JUMPDEST SWAP1 POP SWAP2 SWAP1 POP JUMP JUMPDEST PUSH32 0x41756374696F6E20616C726561647920636C6F73656400000000000000000000 PUSH1 0x0 DUP3 ADD MSTORE POP JUMP JUMPDEST PUSH1 0x0 PUSH2 0xBB2 PUSH1 0x16 DUP4 PUSH2 0xAD9 JUMP JUMPDEST SWAP2 POP PUSH2 0xBBD DUP3 PUSH2 0xB7C JUMP JUMPDEST PUSH1 0x20 DUP3 ADD SWAP1 POP SWAP2 SWAP1 POP JUMP JUMPDEST PUSH1 0x0 PUSH1 0x20 DUP3 ADD SWAP1 POP DUP2 DUP2 SUB PUSH1 0x0 DUP4 ADD MSTORE PUSH2 0xBE1 DUP2 PUSH2 0xBA5 JUMP JUMPDEST SWAP1 POP SWAP2 SWAP1 POP JUMP JUMPDEST PUSH32 0x4E6F7420656E6F75676820626964730000000000000000000000000000000000 PUSH1 0x0 DUP3 ADD MSTORE POP JUMP JUMPDEST PUSH1 0x0 PUSH2 0xC1E PUSH1 0xF DUP4 PUSH2 0xAD9 JUMP JUMPDEST SWAP2 POP PUSH2 0xC29 DUP3 PUSH2 0xBE8 JUMP JUMPDEST PUSH1 0x20 DUP3 ADD SWAP1 POP SWAP2 SWAP1 POP JUMP JUMPDEST PUSH1 0x0 PUSH1 0x20 DUP3 ADD SWAP1 POP DUP2 DUP2 SUB PUSH1 0x0 DUP4 ADD MSTORE PUSH2 0xC4D DUP2 PUSH2 0xC11 JUMP JUMPDEST SWAP1 POP SWAP2 SWAP1 POP JUMP JUMPDEST PUSH32 0x4E487B7100000000000000000000000000000000000000000000000000000000 PUSH1 0x0 MSTORE PUSH1 0x32 PUSH1 0x4 MSTORE PUSH1 0x24 PUSH1 0x0 REVERT JUMPDEST PUSH32 0x4E487B7100000000000000000000000000000000000000000000000000000000 PUSH1 0x0 MSTORE PUSH1 0x11 PUSH1 0x4 MSTORE PUSH1 0x24 PUSH1 0x0 REVERT JUMPDEST PUSH1 0x0 PUSH2 0xCBD DUP3 PUSH2 0x933 JUMP JUMPDEST SWAP2 POP PUSH32 0xFFFFFFFFFFFFFFFFFFFFFFFFFFFFFFFFFFFFFFFFFFFFFFFFFFFFFFFFFFFFFFFF DUP3 SUB PUSH2 0xCEF JUMPI PUSH2 0xCEE PUSH2 0xC83 JUMP JUMPDEST JUMPDEST PUSH1 0x1 DUP3 ADD SWAP1 POP SWAP2 SWAP1 POP JUMP JUMPDEST PUSH32 0x4E487B7100000000000000000000000000000000000000000000000000000000 PUSH1 0x0 MSTORE PUSH1 0x41 PUSH1 0x4 MSTORE PUSH1 0x24 PUSH1 0x0 REVERT JUMPDEST PUSH1 0x0 DUP2 MLOAD SWAP1 POP SWAP2 SWAP1 POP JUMP JUMPDEST PUSH1 0x0 DUP3 DUP3 MSTORE PUSH1 0x20 DUP3 ADD SWAP1 POP SWAP3 SWAP2 POP POP JUMP JUMPDEST PUSH1 0x0 DUP2 SWAP1 POP PUSH1 0x20 DUP3 ADD SWAP1 POP SWAP2 SWAP1 POP JUMP JUMPDEST PUSH2 0xD5E DUP2 PUSH2 0x9E5 JUMP JUMPDEST DUP3 MSTORE POP POP JUMP JUMPDEST PUSH1 0x0 PUSH2 0xD70 DUP4 DUP4 PUSH2 0xD55 JUMP JUMPDEST PUSH1 0x20 DUP4 ADD SWAP1 POP SWAP3 SWAP2 POP POP JUMP JUMPDEST PUSH1 0x0 PUSH1 0x20 DUP3 ADD SWAP1 POP SWAP2 SWAP1 POP JUMP JUMPDEST PUSH1 0x0 PUSH2 0xD94 DUP3 PUSH2 0xD29 JUMP JUMPDEST PUSH2 0xD9E DUP2 DUP6 PUSH2 0xD34 JUMP JUMPDEST SWAP4 POP PUSH2 0xDA9 DUP4 PUSH2 0xD45 JUMP JUMPDEST DUP1 PUSH1 0x0 JUMPDEST DUP4 DUP2 LT ISZERO PUSH2 0xDDA JUMPI DUP2 MLOAD PUSH2 0xDC1 DUP9 DUP3 PUSH2 0xD64 JUMP JUMPDEST SWAP8 POP PUSH2 0xDCC DUP4 PUSH2 0xD7C JUMP JUMPDEST SWAP3 POP POP PUSH1 0x1 DUP2 ADD SWAP1 POP PUSH2 0xDAD JUMP JUMPDEST POP DUP6 SWAP4 POP POP POP POP SWAP3 SWAP2 POP POP JUMP JUMPDEST PUSH1 0x0 PUSH1 0x20 DUP3 ADD SWAP1 POP DUP2 DUP2 SUB PUSH1 0x0 DUP4 ADD MSTORE PUSH2 0xE01 DUP2 DUP5 PUSH2 0xD89 JUMP JUMPDEST SWAP1 POP SWAP3 SWAP2 POP POP JUMP JUMPDEST PUSH32 0x41756374696F6E20636C6F736564000000000000000000000000000000000000 PUSH1 0x0 DUP3 ADD MSTORE POP JUMP JUMPDEST PUSH1 0x0 PUSH2 0xE3F PUSH1 0xE DUP4 PUSH2 0xAD9 JUMP JUMPDEST SWAP2 POP PUSH2 0xE4A DUP3 PUSH2 0xE09 JUMP JUMPDEST PUSH1 0x20 DUP3 ADD SWAP1 POP SWAP2 SWAP1 POP JUMP JUMPDEST PUSH1 0x0 PUSH1 0x20 DUP3 ADD SWAP1 POP DUP2 DUP2 SUB PUSH1 0x0 DUP4 ADD MSTORE PUSH2 0xE6E DUP2 PUSH2 0xE32 JUMP JUMPDEST SWAP1 POP SWAP2 SWAP1 POP JUMP JUMPDEST PUSH1 0x0 PUSH2 0xE80 DUP3 PUSH2 0x933 JUMP JUMPDEST SWAP2 POP PUSH2 0xE8B DUP4 PUSH2 0x933 JUMP JUMPDEST SWAP3 POP DUP3 DUP3 SUB SWAP1 POP DUP2 DUP2 GT ISZERO PUSH2 0xEA3 JUMPI PUSH2 0xEA2 PUSH2 0xC83 JUMP JUMPDEST JUMPDEST SWAP3 SWAP2 POP POP JUMP JUMPDEST PUSH1 0x0 PUSH2 0xEB4 DUP3 PUSH2 0x933 JUMP JUMPDEST SWAP2 POP PUSH2 0xEBF DUP4 PUSH2 0x933 JUMP JUMPDEST SWAP3 POP DUP3 DUP3 ADD SWAP1 POP DUP1 DUP3 GT ISZERO PUSH2 0xED7 JUMPI PUSH2 0xED6 PUSH2 0xC83 JUMP JUMPDEST JUMPDEST SWAP3 SWAP2 POP POP JUMP INVALID LOG2 PUSH5 0x6970667358 0x22 SLT KECCAK256 0xE7 0xE PUSH28 0xF44500D7EEC8C431DD73A92D4EF51676EE3800CBEE9FE9D72EAD29A 0xBB PUSH5 0x736F6C6343 STOP ADDMOD SGT STOP CALLER "
				},
				"gasEstimates": {
					"creation": {
						"codeDepositCost": "771800",
						"executionCost": "infinite",
						"totalCost": "infinite"
					},
					"external": {
						"admin()": "2580",
						"auctionClosed()": "2515",
						"bid(uint256)": "infinite",
						"bids(uint256)": "infinite",
						"closeAuction()": "infinite",
						"isWinner(address)": "2867",
						"supply()": "2430"
					},
					"internal": {
						"sortBids()": "infinite"
					}
				},
				"methodIdentifiers": {
					"admin()": "f851a440",
					"auctionClosed()": "aeaaa299",
					"bid(uint256)": "454a2ab3",
					"bids(uint256)": "4423c5f1",
					"closeAuction()": "378252f2",
					"isWinner(address)": "9d9ca28d",
					"supply()": "047fc9aa"
				}
			},
			"storageLayout": {
				"storage": [
					{
						"astId": 10,
						"contract": "batchAuctions/discriminatoryPriceBatchAuction.sol:DiscriminatoryPriceBatchAuction",
						"label": "bids",
						"offset": 0,
						"slot": "0",
						"type": "t_array(t_struct(Bid)6_storage)dyn_storage"
					},
					{
						"astId": 12,
						"contract": "batchAuctions/discriminatoryPriceBatchAuction.sol:DiscriminatoryPriceBatchAuction",
						"label": "auctionClosed",
						"offset": 0,
						"slot": "1",
						"type": "t_bool"
					},
					{
						"astId": 14,
						"contract": "batchAuctions/discriminatoryPriceBatchAuction.sol:DiscriminatoryPriceBatchAuction",
						"label": "supply",
						"offset": 0,
						"slot": "2",
						"type": "t_uint256"
					},
					{
						"astId": 16,
						"contract": "batchAuctions/discriminatoryPriceBatchAuction.sol:DiscriminatoryPriceBatchAuction",
						"label": "admin",
						"offset": 0,
						"slot": "3",
						"type": "t_address"
					},
					{
						"astId": 20,
						"contract": "batchAuctions/discriminatoryPriceBatchAuction.sol:DiscriminatoryPriceBatchAuction",
						"label": "isWinner",
						"offset": 0,
						"slot": "4",
						"type": "t_mapping(t_address,t_bool)"
					}
				],
				"types": {
					"t_address": {
						"encoding": "inplace",
						"label": "address",
						"numberOfBytes": "20"
					},
					"t_array(t_struct(Bid)6_storage)dyn_storage": {
						"base": "t_struct(Bid)6_storage",
						"encoding": "dynamic_array",
						"label": "struct DiscriminatoryPriceBatchAuction.Bid[]",
						"numberOfBytes": "32"
					},
					"t_bool": {
						"encoding": "inplace",
						"label": "bool",
						"numberOfBytes": "1"
					},
					"t_mapping(t_address,t_bool)": {
						"encoding": "mapping",
						"key": "t_address",
						"label": "mapping(address => bool)",
						"numberOfBytes": "32",
						"value": "t_bool"
					},
					"t_struct(Bid)6_storage": {
						"encoding": "inplace",
						"label": "struct DiscriminatoryPriceBatchAuction.Bid",
						"members": [
							{
								"astId": 3,
								"contract": "batchAuctions/discriminatoryPriceBatchAuction.sol:DiscriminatoryPriceBatchAuction",
								"label": "bidder",
								"offset": 0,
								"slot": "0",
								"type": "t_address"
							},
							{
								"astId": 5,
								"contract": "batchAuctions/discriminatoryPriceBatchAuction.sol:DiscriminatoryPriceBatchAuction",
								"label": "price",
								"offset": 0,
								"slot": "1",
								"type": "t_uint256"
							}
						],
						"numberOfBytes": "64"
					},
					"t_uint256": {
						"encoding": "inplace",
						"label": "uint256",
						"numberOfBytes": "32"
					}
				}
			},
			"userdoc": {
				"kind": "user",
				"methods": {},
				"version": 1
			}
		}
	}
}