{
	"data": {
		"bytecode": {
			"linkReferences": {},
			"object": "608060405234801561000f575f5ffd5b5060405161081438038061081483398181016040528101906100319190610115565b815f5f6101000a81548173ffffffffffffffffffffffffffffffffffffffff021916908373ffffffffffffffffffffffffffffffffffffffff1602179055508060015f6101000a81548173ffffffffffffffffffffffffffffffffffffffff021916908373ffffffffffffffffffffffffffffffffffffffff1602179055505050610153565b5f5ffd5b5f73ffffffffffffffffffffffffffffffffffffffff82169050919050565b5f6100e4826100bb565b9050919050565b6100f4816100da565b81146100fe575f5ffd5b50565b5f8151905061010f816100eb565b92915050565b5f5f6040838503121561012b5761012a6100b7565b5b5f61013885828601610101565b925050602061014985828601610101565b9150509250929050565b6106b4806101605f395ff3fe608060405260043610610058575f3560e01c80631debb253146100635780633b89bb8614610079578063c6dbdf61146100a1578063cf309012146100cb578063ddceafa9146100f5578063e7c042d91461011f5761005f565b3661005f57005b5f5ffd5b34801561006e575f5ffd5b50610077610135565b005b348015610084575f5ffd5b5061009f600480360381019061009a919061049d565b6101df565b005b3480156100ac575f5ffd5b506100b5610305565b6040516100c291906104ea565b60405180910390f35b3480156100d6575f5ffd5b506100df610329565b6040516100ec919061051d565b60405180910390f35b348015610100575f5ffd5b5061010961033c565b60405161011691906104ea565b60405180910390f35b34801561012a575f5ffd5b50610133610361565b005b5f5f9054906101000a900473ffffffffffffffffffffffffffffffffffffffff1673ffffffffffffffffffffffffffffffffffffffff163373ffffffffffffffffffffffffffffffffffffffff16146101c3576040517f08c379a00000000000000000000000000000000000000000000000000000000081526004016101ba90610590565b60405180910390fd5b60018060146101000a81548160ff021916908315150217905550565b5f5f9054906101000a900473ffffffffffffffffffffffffffffffffffffffff1673ffffffffffffffffffffffffffffffffffffffff163373ffffffffffffffffffffffffffffffffffffffff161461026d576040517f08c379a000000000000000000000000000000000000000000000000000000000815260040161026490610590565b60405180910390fd5b600160149054906101000a900460ff16156102bd576040517f08c379a00000000000000000000000000000000000000000000000000000000081526004016102b4906105f8565b60405180910390fd5b8173ffffffffffffffffffffffffffffffffffffffff166108fc8290811502906040515f60405180830381858888f19350505050158015610300573d5f5f3e3d5ffd5b505050565b5f5f9054906101000a900473ffffffffffffffffffffffffffffffffffffffff1681565b600160149054906101000a900460ff1681565b60015f9054906101000a900473ffffffffffffffffffffffffffffffffffffffff1681565b60015f9054906101000a900473ffffffffffffffffffffffffffffffffffffffff1673ffffffffffffffffffffffffffffffffffffffff163373ffffffffffffffffffffffffffffffffffffffff16146103f0576040517f08c379a00000000000000000000000000000000000000000000000000000000081526004016103e790610660565b60405180910390fd5b5f600160146101000a81548160ff021916908315150217905550565b5f5ffd5b5f73ffffffffffffffffffffffffffffffffffffffff82169050919050565b5f61043982610410565b9050919050565b6104498161042f565b8114610453575f5ffd5b50565b5f8135905061046481610440565b92915050565b5f819050919050565b61047c8161046a565b8114610486575f5ffd5b50565b5f8135905061049781610473565b92915050565b5f5f604083850312156104b3576104b261040c565b5b5f6104c085828601610456565b92505060206104d185828601610489565b9150509250929050565b6104e48161042f565b82525050565b5f6020820190506104fd5f8301846104db565b92915050565b5f8115159050919050565b61051781610503565b82525050565b5f6020820190506105305f83018461050e565b92915050565b5f82825260208201905092915050565b7f4e6f74207072696d6172790000000000000000000000000000000000000000005f82015250565b5f61057a600b83610536565b915061058582610546565b602082019050919050565b5f6020820190508181035f8301526105a78161056e565b9050919050565b7f57616c6c6574206973206c6f636b6564000000000000000000000000000000005f82015250565b5f6105e2601083610536565b91506105ed826105ae565b602082019050919050565b5f6020820190508181035f83015261060f816105d6565b9050919050565b7f4e6f74207265636f7665727900000000000000000000000000000000000000005f82015250565b5f61064a600c83610536565b915061065582610616565b602082019050919050565b5f6020820190508181035f8301526106778161063e565b905091905056fea26469706673582212202bfe05778e402056abcb39f9e48711aa9cf876b1c474a9f8ec86e5bb1658e8da64736f6c634300081d0033",
			"opcodes": "PUSH1 0x80 PUSH1 0x40 MSTORE CALLVALUE DUP1 ISZERO PUSH2 0xF JUMPI PUSH0 PUSH0 REVERT JUMPDEST POP PUSH1 0x40 MLOAD PUSH2 0x814 CODESIZE SUB DUP1 PUSH2 0x814 DUP4 CODECOPY DUP2 DUP2 ADD PUSH1 0x40 MSTORE DUP2 ADD SWAP1 PUSH2 0x31 SWAP2 SWAP1 PUSH2 0x115 JUMP JUMPDEST DUP2 PUSH0 PUSH0 PUSH2 0x100 EXP DUP2 SLOAD DUP2 PUSH20 0xFFFFFFFFFFFFFFFFFFFFFFFFFFFFFFFFFFFFFFFF MUL NOT AND SWAP1 DUP4 PUSH20 0xFFFFFFFFFFFFFFFFFFFFFFFFFFFFFFFFFFFFFFFF AND MUL OR SWAP1 SSTORE POP DUP1 PUSH1 0x1 PUSH0 PUSH2 0x100 EXP DUP2 SLOAD DUP2 PUSH20 0xFFFFFFFFFFFFFFFFFFFFFFFFFFFFFFFFFFFFFFFF MUL NOT AND SWAP1 DUP4 PUSH20 0xFFFFFFFFFFFFFFFFFFFFFFFFFFFFFFFFFFFFFFFF AND MUL OR SWAP1 SSTORE POP POP POP PUSH2 0x153 JUMP JUMPDEST PUSH0 PUSH0 REVERT JUMPDEST PUSH0 PUSH20 0xFFFFFFFFFFFFFFFFFFFFFFFFFFFFFFFFFFFFFFFF DUP3 AND SWAP1 POP SWAP2 SWAP1 POP JUMP JUMPDEST PUSH0 PUSH2 0xE4 DUP3 PUSH2 0xBB JUMP JUMPDEST SWAP1 POP SWAP2 SWAP1 POP JUMP JUMPDEST PUSH2 0xF4 DUP2 PUSH2 0xDA JUMP JUMPDEST DUP2 EQ PUSH2 0xFE JUMPI PUSH0 PUSH0 REVERT JUMPDEST POP JUMP JUMPDEST PUSH0 DUP2 MLOAD SWAP1 POP PUSH2 0x10F DUP2 PUSH2 0xEB JUMP JUMPDEST SWAP3 SWAP2 POP POP JUMP JUMPDEST PUSH0 PUSH0 PUSH1 0x40 DUP4 DUP6 SUB SLT ISZERO PUSH2 0x12B JUMPI PUSH2 0x12A PUSH2 0xB7 JUMP JUMPDEST JUMPDEST PUSH0 PUSH2 0x138 DUP6 DUP3 DUP7 ADD PUSH2 0x101 JUMP JUMPDEST SWAP3 POP POP PUSH1 0x20 PUSH2 0x149 DUP6 DUP3 DUP7 ADD PUSH2 0x101 JUMP JUMPDEST SWAP2 POP POP SWAP3 POP SWAP3 SWAP1 POP JUMP JUMPDEST PUSH2 0x6B4 DUP1 PUSH2 0x160 PUSH0 CODECOPY PUSH0 RETURN INVALID PUSH1 0x80 PUSH1 0x40 MSTORE PUSH1 0x4 CALLDATASIZE LT PUSH2 0x58 JUMPI PUSH0 CALLDATALOAD PUSH1 0xE0 SHR DUP1 PUSH4 0x1DEBB253 EQ PUSH2 0x63 JUMPI DUP1 PUSH4 0x3B89BB86 EQ PUSH2 0x79 JUMPI DUP1 PUSH4 0xC6DBDF61 EQ PUSH2 0xA1 JUMPI DUP1 PUSH4 0xCF309012 EQ PUSH2 0xCB JUMPI DUP1 PUSH4 0xDDCEAFA9 EQ PUSH2 0xF5 JUMPI DUP1 PUSH4 0xE7C042D9 EQ PUSH2 0x11F JUMPI PUSH2 0x5F JUMP JUMPDEST CALLDATASIZE PUSH2 0x5F JUMPI STOP JUMPDEST PUSH0 PUSH0 REVERT JUMPDEST CALLVALUE DUP1 ISZERO PUSH2 0x6E JUMPI PUSH0 PUSH0 REVERT JUMPDEST POP PUSH2 0x77 PUSH2 0x135 JUMP JUMPDEST STOP JUMPDEST CALLVALUE DUP1 ISZERO PUSH2 0x84 JUMPI PUSH0 PUSH0 REVERT JUMPDEST POP PUSH2 0x9F PUSH1 0x4 DUP1 CALLDATASIZE SUB DUP2 ADD SWAP1 PUSH2 0x9A SWAP2 SWAP1 PUSH2 0x49D JUMP JUMPDEST PUSH2 0x1DF JUMP JUMPDEST STOP JUMPDEST CALLVALUE DUP1 ISZERO PUSH2 0xAC JUMPI PUSH0 PUSH0 REVERT JUMPDEST POP PUSH2 0xB5 PUSH2 0x305 JUMP JUMPDEST PUSH1 0x40 MLOAD PUSH2 0xC2 SWAP2 SWAP1 PUSH2 0x4EA JUMP JUMPDEST PUSH1 0x40 MLOAD DUP1 SWAP2 SUB SWAP1 RETURN JUMPDEST CALLVALUE DUP1 ISZERO PUSH2 0xD6 JUMPI PUSH0 PUSH0 REVERT JUMPDEST POP PUSH2 0xDF PUSH2 0x329 JUMP JUMPDEST PUSH1 0x40 MLOAD PUSH2 0xEC SWAP2 SWAP1 PUSH2 0x51D JUMP JUMPDEST PUSH1 0x40 MLOAD DUP1 SWAP2 SUB SWAP1 RETURN JUMPDEST CALLVALUE DUP1 ISZERO PUSH2 0x100 JUMPI PUSH0 PUSH0 REVERT JUMPDEST POP PUSH2 0x109 PUSH2 0x33C JUMP JUMPDEST PUSH1 0x40 MLOAD PUSH2 0x116 SWAP2 SWAP1 PUSH2 0x4EA JUMP JUMPDEST PUSH1 0x40 MLOAD DUP1 SWAP2 SUB SWAP1 RETURN JUMPDEST CALLVALUE DUP1 ISZERO PUSH2 0x12A JUMPI PUSH0 PUSH0 REVERT JUMPDEST POP PUSH2 0x133 PUSH2 0x361 JUMP JUMPDEST STOP JUMPDEST PUSH0 PUSH0 SWAP1 SLOAD SWAP1 PUSH2 0x100 EXP SWAP1 DIV PUSH20 0xFFFFFFFFFFFFFFFFFFFFFFFFFFFFFFFFFFFFFFFF AND PUSH20 0xFFFFFFFFFFFFFFFFFFFFFFFFFFFFFFFFFFFFFFFF AND CALLER PUSH20 0xFFFFFFFFFFFFFFFFFFFFFFFFFFFFFFFFFFFFFFFF AND EQ PUSH2 0x1C3 JUMPI PUSH1 0x40 MLOAD PUSH32 0x8C379A000000000000000000000000000000000000000000000000000000000 DUP2 MSTORE PUSH1 0x4 ADD PUSH2 0x1BA SWAP1 PUSH2 0x590 JUMP JUMPDEST PUSH1 0x40 MLOAD DUP1 SWAP2 SUB SWAP1 REVERT JUMPDEST PUSH1 0x1 DUP1 PUSH1 0x14 PUSH2 0x100 EXP DUP2 SLOAD DUP2 PUSH1 0xFF MUL NOT AND SWAP1 DUP4 ISZERO ISZERO MUL OR SWAP1 SSTORE POP JUMP JUMPDEST PUSH0 PUSH0 SWAP1 SLOAD SWAP1 PUSH2 0x100 EXP SWAP1 DIV PUSH20 0xFFFFFFFFFFFFFFFFFFFFFFFFFFFFFFFFFFFFFFFF AND PUSH20 0xFFFFFFFFFFFFFFFFFFFFFFFFFFFFFFFFFFFFFFFF AND CALLER PUSH20 0xFFFFFFFFFFFFFFFFFFFFFFFFFFFFFFFFFFFFFFFF AND EQ PUSH2 0x26D JUMPI PUSH1 0x40 MLOAD PUSH32 0x8C379A000000000000000000000000000000000000000000000000000000000 DUP2 MSTORE PUSH1 0x4 ADD PUSH2 0x264 SWAP1 PUSH2 0x590 JUMP JUMPDEST PUSH1 0x40 MLOAD DUP1 SWAP2 SUB SWAP1 REVERT JUMPDEST PUSH1 0x1 PUSH1 0x14 SWAP1 SLOAD SWAP1 PUSH2 0x100 EXP SWAP1 DIV PUSH1 0xFF AND ISZERO PUSH2 0x2BD JUMPI PUSH1 0x40 MLOAD PUSH32 0x8C379A000000000000000000000000000000000000000000000000000000000 DUP2 MSTORE PUSH1 0x4 ADD PUSH2 0x2B4 SWAP1 PUSH2 0x5F8 JUMP JUMPDEST PUSH1 0x40 MLOAD DUP1 SWAP2 SUB SWAP1 REVERT JUMPDEST DUP2 PUSH20 0xFFFFFFFFFFFFFFFFFFFFFFFFFFFFFFFFFFFFFFFF AND PUSH2 0x8FC DUP3 SWAP1 DUP2 ISZERO MUL SWAP1 PUSH1 0x40 MLOAD PUSH0 PUSH1 0x40 MLOAD DUP1 DUP4 SUB DUP2 DUP6 DUP9 DUP9 CALL SWAP4 POP POP POP POP ISZERO DUP1 ISZERO PUSH2 0x300 JUMPI RETURNDATASIZE PUSH0 PUSH0 RETURNDATACOPY RETURNDATASIZE PUSH0 REVERT JUMPDEST POP POP POP JUMP JUMPDEST PUSH0 PUSH0 SWAP1 SLOAD SWAP1 PUSH2 0x100 EXP SWAP1 DIV PUSH20 0xFFFFFFFFFFFFFFFFFFFFFFFFFFFFFFFFFFFFFFFF AND DUP2 JUMP JUMPDEST PUSH1 0x1 PUSH1 0x14 SWAP1 SLOAD SWAP1 PUSH2 0x100 EXP SWAP1 DIV PUSH1 0xFF AND DUP2 JUMP JUMPDEST PUSH1 0x1 PUSH0 SWAP1 SLOAD SWAP1 PUSH2 0x100 EXP SWAP1 DIV PUSH20 0xFFFFFFFFFFFFFFFFFFFFFFFFFFFFFFFFFFFFFFFF AND DUP2 JUMP JUMPDEST PUSH1 0x1 PUSH0 SWAP1 SLOAD SWAP1 PUSH2 0x100 EXP SWAP1 DIV PUSH20 0xFFFFFFFFFFFFFFFFFFFFFFFFFFFFFFFFFFFFFFFF AND PUSH20 0xFFFFFFFFFFFFFFFFFFFFFFFFFFFFFFFFFFFFFFFF AND CALLER PUSH20 0xFFFFFFFFFFFFFFFFFFFFFFFFFFFFFFFFFFFFFFFF AND EQ PUSH2 0x3F0 JUMPI PUSH1 0x40 MLOAD PUSH32 0x8C379A000000000000000000000000000000000000000000000000000000000 DUP2 MSTORE PUSH1 0x4 ADD PUSH2 0x3E7 SWAP1 PUSH2 0x660 JUMP JUMPDEST PUSH1 0x40 MLOAD DUP1 SWAP2 SUB SWAP1 REVERT JUMPDEST PUSH0 PUSH1 0x1 PUSH1 0x14 PUSH2 0x100 EXP DUP2 SLOAD DUP2 PUSH1 0xFF MUL NOT AND SWAP1 DUP4 ISZERO ISZERO MUL OR SWAP1 SSTORE POP JUMP JUMPDEST PUSH0 PUSH0 REVERT JUMPDEST PUSH0 PUSH20 0xFFFFFFFFFFFFFFFFFFFFFFFFFFFFFFFFFFFFFFFF DUP3 AND SWAP1 POP SWAP2 SWAP1 POP JUMP JUMPDEST PUSH0 PUSH2 0x439 DUP3 PUSH2 0x410 JUMP JUMPDEST SWAP1 POP SWAP2 SWAP1 POP JUMP JUMPDEST PUSH2 0x449 DUP2 PUSH2 0x42F JUMP JUMPDEST DUP2 EQ PUSH2 0x453 JUMPI PUSH0 PUSH0 REVERT JUMPDEST POP JUMP JUMPDEST PUSH0 DUP2 CALLDATALOAD SWAP1 POP PUSH2 0x464 DUP2 PUSH2 0x440 JUMP JUMPDEST SWAP3 SWAP2 POP POP JUMP JUMPDEST PUSH0 DUP2 SWAP1 POP SWAP2 SWAP1 POP JUMP JUMPDEST PUSH2 0x47C DUP2 PUSH2 0x46A JUMP JUMPDEST DUP2 EQ PUSH2 0x486 JUMPI PUSH0 PUSH0 REVERT JUMPDEST POP JUMP JUMPDEST PUSH0 DUP2 CALLDATALOAD SWAP1 POP PUSH2 0x497 DUP2 PUSH2 0x473 JUMP JUMPDEST SWAP3 SWAP2 POP POP JUMP JUMPDEST PUSH0 PUSH0 PUSH1 0x40 DUP4 DUP6 SUB SLT ISZERO PUSH2 0x4B3 JUMPI PUSH2 0x4B2 PUSH2 0x40C JUMP JUMPDEST JUMPDEST PUSH0 PUSH2 0x4C0 DUP6 DUP3 DUP7 ADD PUSH2 0x456 JUMP JUMPDEST SWAP3 POP POP PUSH1 0x20 PUSH2 0x4D1 DUP6 DUP3 DUP7 ADD PUSH2 0x489 JUMP JUMPDEST SWAP2 POP POP SWAP3 POP SWAP3 SWAP1 POP JUMP JUMPDEST PUSH2 0x4E4 DUP2 PUSH2 0x42F JUMP JUMPDEST DUP3 MSTORE POP POP JUMP JUMPDEST PUSH0 PUSH1 0x20 DUP3 ADD SWAP1 POP PUSH2 0x4FD PUSH0 DUP4 ADD DUP5 PUSH2 0x4DB JUMP JUMPDEST SWAP3 SWAP2 POP POP JUMP JUMPDEST PUSH0 DUP2 ISZERO ISZERO SWAP1 POP SWAP2 SWAP1 POP JUMP JUMPDEST PUSH2 0x517 DUP2 PUSH2 0x503 JUMP JUMPDEST DUP3 MSTORE POP POP JUMP JUMPDEST PUSH0 PUSH1 0x20 DUP3 ADD SWAP1 POP PUSH2 0x530 PUSH0 DUP4 ADD DUP5 PUSH2 0x50E JUMP JUMPDEST SWAP3 SWAP2 POP POP JUMP JUMPDEST PUSH0 DUP3 DUP3 MSTORE PUSH1 0x20 DUP3 ADD SWAP1 POP SWAP3 SWAP2 POP POP JUMP JUMPDEST PUSH32 0x4E6F74207072696D617279000000000000000000000000000000000000000000 PUSH0 DUP3 ADD MSTORE POP JUMP JUMPDEST PUSH0 PUSH2 0x57A PUSH1 0xB DUP4 PUSH2 0x536 JUMP JUMPDEST SWAP2 POP PUSH2 0x585 DUP3 PUSH2 0x546 JUMP JUMPDEST PUSH1 0x20 DUP3 ADD SWAP1 POP SWAP2 SWAP1 POP JUMP JUMPDEST PUSH0 PUSH1 0x20 DUP3 ADD SWAP1 POP DUP2 DUP2 SUB PUSH0 DUP4 ADD MSTORE PUSH2 0x5A7 DUP2 PUSH2 0x56E JUMP JUMPDEST SWAP1 POP SWAP2 SWAP1 POP JUMP JUMPDEST PUSH32 0x57616C6C6574206973206C6F636B656400000000000000000000000000000000 PUSH0 DUP3 ADD MSTORE POP JUMP JUMPDEST PUSH0 PUSH2 0x5E2 PUSH1 0x10 DUP4 PUSH2 0x536 JUMP JUMPDEST SWAP2 POP PUSH2 0x5ED DUP3 PUSH2 0x5AE JUMP JUMPDEST PUSH1 0x20 DUP3 ADD SWAP1 POP SWAP2 SWAP1 POP JUMP JUMPDEST PUSH0 PUSH1 0x20 DUP3 ADD SWAP1 POP DUP2 DUP2 SUB PUSH0 DUP4 ADD MSTORE PUSH2 0x60F DUP2 PUSH2 0x5D6 JUMP JUMPDEST SWAP1 POP SWAP2 SWAP1 POP JUMP JUMPDEST PUSH32 0x4E6F74207265636F766572790000000000000000000000000000000000000000 PUSH0 DUP3 ADD MSTORE POP JUMP JUMPDEST PUSH0 PUSH2 0x64A PUSH1 0xC DUP4 PUSH2 0x536 JUMP JUMPDEST SWAP2 POP PUSH2 0x655 DUP3 PUSH2 0x616 JUMP JUMPDEST PUSH1 0x20 DUP3 ADD SWAP1 POP SWAP2 SWAP1 POP JUMP JUMPDEST PUSH0 PUSH1 0x20 DUP3 ADD SWAP1 POP DUP2 DUP2 SUB PUSH0 DUP4 ADD MSTORE PUSH2 0x677 DUP2 PUSH2 0x63E JUMP JUMPDEST SWAP1 POP SWAP2 SWAP1 POP JUMP INVALID LOG2 PUSH5 0x6970667358 0x22 SLT KECCAK256 0x2B INVALID SDIV PUSH24 0x8E402056ABCB39F9E48711AA9CF876B1C474A9F8EC86E5BB AND PC 0xE8 0xDA PUSH5 0x736F6C6343 STOP ADDMOD SAR STOP CALLER "
		},
		"gasEstimates": {
			"creation": {
				"codeDepositCost": "343200",
				"executionCost": "infinite",
				"totalCost": "infinite"
			},
			"external": {
				"execute(address,uint256)": "infinite",
				"lockWallet()": "26606",
				"locked()": "2561",
				"primary()": "2529",
				"recovery()": "2574",
				"unlockWallet()": "26716"
			}
		},
		"methodIdentifiers": {
			"execute(address,uint256)": "3b89bb86",
			"lockWallet()": "1debb253",
			"locked()": "cf309012",
			"primary()": "c6dbdf61",
			"recovery()": "ddceafa9",
			"unlockWallet()": "e7c042d9"
		}
	},
	"abi": [
		{
			"inputs": [
				{
					"internalType": "address",
					"name": "_primary",
					"type": "address"
				},
				{
					"internalType": "address",
					"name": "_recovery",
					"type": "address"
				}
			],
			"stateMutability": "nonpayable",
			"type": "constructor"
		},
		{
			"inputs": [
				{
					"internalType": "address",
					"name": "to",
					"type": "address"
				},
				{
					"internalType": "uint256",
					"name": "amount",
					"type": "uint256"
				}
			],
			"name": "execute",
			"outputs": [],
			"stateMutability": "nonpayable",
			"type": "function"
		},
		{
			"inputs": [],
			"name": "lockWallet",
			"outputs": [],
			"stateMutability": "nonpayable",
			"type": "function"
		},
		{
			"inputs": [],
			"name": "locked",
			"outputs": [
				{
					"internalType": "bool",
					"name": "",
					"type": "bool"
				}
			],
			"stateMutability": "view",
			"type": "function"
		},
		{
			"inputs": [],
			"name": "primary",
			"outputs": [
				{
					"internalType": "address",
					"name": "",
					"type": "address"
				}
			],
			"stateMutability": "view",
			"type": "function"
		},
		{
			"inputs": [],
			"name": "recovery",
			"outputs": [
				{
					"internalType": "address",
					"name": "",
					"type": "address"
				}
			],
			"stateMutability": "view",
			"type": "function"
		},
		{
			"inputs": [],
			"name": "unlockWallet",
			"outputs": [],
			"stateMutability": "nonpayable",
			"type": "function"
		},
		{
			"stateMutability": "payable",
			"type": "receive"
		}
	]
}