{
	"data": {
		"bytecode": {
			"linkReferences": {},
			"object": "6080604052348015600e575f5ffd5b506105768061001c5f395ff3fe608060405234801561000f575f5ffd5b506004361061004a575f3560e01c80630e1c79671461004e5780638c64ea4a1461006a5780638c8373621461009b578063c379f054146100b7575b5f5ffd5b610068600480360381019061006391906102f9565b6100e7565b005b610084600480360381019061007f91906102f9565b61013d565b60405161009292919061037b565b60405180910390f35b6100b560048036038101906100b091906103f6565b61017b565b005b6100d160048036038101906100cc91906102f9565b61020c565b6040516100de9190610491565b60405180910390f35b5f7f736563726574000000000000000000000000000000000000000000000000000060ab60f81b60405160200161011f929190610515565b60405160208183030381529060405290506020810151825f01555050565b5f602052805f5260405f205f91509050805f015f9054906101000a900473ffffffffffffffffffffffffffffffffffffffff16908060010154905082565b60405180604001604052808373ffffffffffffffffffffffffffffffffffffffff168152602001828152505f5f8581526020019081526020015f205f820151815f015f6101000a81548173ffffffffffffffffffffffffffffffffffffffff021916908373ffffffffffffffffffffffffffffffffffffffff16021790555060208201518160010155905050505050565b610214610294565b5f5f8381526020019081526020015f206040518060400160405290815f82015f9054906101000a900473ffffffffffffffffffffffffffffffffffffffff1673ffffffffffffffffffffffffffffffffffffffff1673ffffffffffffffffffffffffffffffffffffffff1681526020016001820154815250509050919050565b60405180604001604052805f73ffffffffffffffffffffffffffffffffffffffff1681526020015f81525090565b5f5ffd5b5f819050919050565b6102d8816102c6565b81146102e2575f5ffd5b50565b5f813590506102f3816102cf565b92915050565b5f6020828403121561030e5761030d6102c2565b5b5f61031b848285016102e5565b91505092915050565b5f73ffffffffffffffffffffffffffffffffffffffff82169050919050565b5f61034d82610324565b9050919050565b61035d81610343565b82525050565b5f819050919050565b61037581610363565b82525050565b5f60408201905061038e5f830185610354565b61039b602083018461036c565b9392505050565b6103ab81610343565b81146103b5575f5ffd5b50565b5f813590506103c6816103a2565b92915050565b6103d581610363565b81146103df575f5ffd5b50565b5f813590506103f0816103cc565b92915050565b5f5f5f6060848603121561040d5761040c6102c2565b5b5f61041a868287016102e5565b935050602061042b868287016103b8565b925050604061043c868287016103e2565b9150509250925092565b61044f81610343565b82525050565b61045e81610363565b82525050565b604082015f8201516104785f850182610446565b50602082015161048b6020850182610455565b50505050565b5f6040820190506104a45f830184610464565b92915050565b5f819050919050565b6104c46104bf82610363565b6104aa565b82525050565b5f7fff0000000000000000000000000000000000000000000000000000000000000082169050919050565b5f819050919050565b61050f61050a826104ca565b6104f5565b82525050565b5f61052082856104b3565b60208201915061053082846104fe565b600182019150819050939250505056fea26469706673582212207ef01bb30d62cfd9bd4680db31b5d9bb0f3f7f10ac63fbefcbc9c11db16cb9e064736f6c634300081d0033",
			"opcodes": "PUSH1 0x80 PUSH1 0x40 MSTORE CALLVALUE DUP1 ISZERO PUSH1 0xE JUMPI PUSH0 PUSH0 REVERT JUMPDEST POP PUSH2 0x576 DUP1 PUSH2 0x1C PUSH0 CODECOPY PUSH0 RETURN INVALID PUSH1 0x80 PUSH1 0x40 MSTORE CALLVALUE DUP1 ISZERO PUSH2 0xF JUMPI PUSH0 PUSH0 REVERT JUMPDEST POP PUSH1 0x4 CALLDATASIZE LT PUSH2 0x4A JUMPI PUSH0 CALLDATALOAD PUSH1 0xE0 SHR DUP1 PUSH4 0xE1C7967 EQ PUSH2 0x4E JUMPI DUP1 PUSH4 0x8C64EA4A EQ PUSH2 0x6A JUMPI DUP1 PUSH4 0x8C837362 EQ PUSH2 0x9B JUMPI DUP1 PUSH4 0xC379F054 EQ PUSH2 0xB7 JUMPI JUMPDEST PUSH0 PUSH0 REVERT JUMPDEST PUSH2 0x68 PUSH1 0x4 DUP1 CALLDATASIZE SUB DUP2 ADD SWAP1 PUSH2 0x63 SWAP2 SWAP1 PUSH2 0x2F9 JUMP JUMPDEST PUSH2 0xE7 JUMP JUMPDEST STOP JUMPDEST PUSH2 0x84 PUSH1 0x4 DUP1 CALLDATASIZE SUB DUP2 ADD SWAP1 PUSH2 0x7F SWAP2 SWAP1 PUSH2 0x2F9 JUMP JUMPDEST PUSH2 0x13D JUMP JUMPDEST PUSH1 0x40 MLOAD PUSH2 0x92 SWAP3 SWAP2 SWAP1 PUSH2 0x37B JUMP JUMPDEST PUSH1 0x40 MLOAD DUP1 SWAP2 SUB SWAP1 RETURN JUMPDEST PUSH2 0xB5 PUSH1 0x4 DUP1 CALLDATASIZE SUB DUP2 ADD SWAP1 PUSH2 0xB0 SWAP2 SWAP1 PUSH2 0x3F6 JUMP JUMPDEST PUSH2 0x17B JUMP JUMPDEST STOP JUMPDEST PUSH2 0xD1 PUSH1 0x4 DUP1 CALLDATASIZE SUB DUP2 ADD SWAP1 PUSH2 0xCC SWAP2 SWAP1 PUSH2 0x2F9 JUMP JUMPDEST PUSH2 0x20C JUMP JUMPDEST PUSH1 0x40 MLOAD PUSH2 0xDE SWAP2 SWAP1 PUSH2 0x491 JUMP JUMPDEST PUSH1 0x40 MLOAD DUP1 SWAP2 SUB SWAP1 RETURN JUMPDEST PUSH0 PUSH32 0x7365637265740000000000000000000000000000000000000000000000000000 PUSH1 0xAB PUSH1 0xF8 SHL PUSH1 0x40 MLOAD PUSH1 0x20 ADD PUSH2 0x11F SWAP3 SWAP2 SWAP1 PUSH2 0x515 JUMP JUMPDEST PUSH1 0x40 MLOAD PUSH1 0x20 DUP2 DUP4 SUB SUB DUP2 MSTORE SWAP1 PUSH1 0x40 MSTORE SWAP1 POP PUSH1 0x20 DUP2 ADD MLOAD DUP3 PUSH0 ADD SSTORE POP POP JUMP JUMPDEST PUSH0 PUSH1 0x20 MSTORE DUP1 PUSH0 MSTORE PUSH1 0x40 PUSH0 KECCAK256 PUSH0 SWAP2 POP SWAP1 POP DUP1 PUSH0 ADD PUSH0 SWAP1 SLOAD SWAP1 PUSH2 0x100 EXP SWAP1 DIV PUSH20 0xFFFFFFFFFFFFFFFFFFFFFFFFFFFFFFFFFFFFFFFF AND SWAP1 DUP1 PUSH1 0x1 ADD SLOAD SWAP1 POP DUP3 JUMP JUMPDEST PUSH1 0x40 MLOAD DUP1 PUSH1 0x40 ADD PUSH1 0x40 MSTORE DUP1 DUP4 PUSH20 0xFFFFFFFFFFFFFFFFFFFFFFFFFFFFFFFFFFFFFFFF AND DUP2 MSTORE PUSH1 0x20 ADD DUP3 DUP2 MSTORE POP PUSH0 PUSH0 DUP6 DUP2 MSTORE PUSH1 0x20 ADD SWAP1 DUP2 MSTORE PUSH1 0x20 ADD PUSH0 KECCAK256 PUSH0 DUP3 ADD MLOAD DUP2 PUSH0 ADD PUSH0 PUSH2 0x100 EXP DUP2 SLOAD DUP2 PUSH20 0xFFFFFFFFFFFFFFFFFFFFFFFFFFFFFFFFFFFFFFFF MUL NOT AND SWAP1 DUP4 PUSH20 0xFFFFFFFFFFFFFFFFFFFFFFFFFFFFFFFFFFFFFFFF AND MUL OR SWAP1 SSTORE POP PUSH1 0x20 DUP3 ADD MLOAD DUP2 PUSH1 0x1 ADD SSTORE SWAP1 POP POP POP POP POP JUMP JUMPDEST PUSH2 0x214 PUSH2 0x294 JUMP JUMPDEST PUSH0 PUSH0 DUP4 DUP2 MSTORE PUSH1 0x20 ADD SWAP1 DUP2 MSTORE PUSH1 0x20 ADD PUSH0 KECCAK256 PUSH1 0x40 MLOAD DUP1 PUSH1 0x40 ADD PUSH1 0x40 MSTORE SWAP1 DUP2 PUSH0 DUP3 ADD PUSH0 SWAP1 SLOAD SWAP1 PUSH2 0x100 EXP SWAP1 DIV PUSH20 0xFFFFFFFFFFFFFFFFFFFFFFFFFFFFFFFFFFFFFFFF AND PUSH20 0xFFFFFFFFFFFFFFFFFFFFFFFFFFFFFFFFFFFFFFFF AND PUSH20 0xFFFFFFFFFFFFFFFFFFFFFFFFFFFFFFFFFFFFFFFF AND DUP2 MSTORE PUSH1 0x20 ADD PUSH1 0x1 DUP3 ADD SLOAD DUP2 MSTORE POP POP SWAP1 POP SWAP2 SWAP1 POP JUMP JUMPDEST PUSH1 0x40 MLOAD DUP1 PUSH1 0x40 ADD PUSH1 0x40 MSTORE DUP1 PUSH0 PUSH20 0xFFFFFFFFFFFFFFFFFFFFFFFFFFFFFFFFFFFFFFFF AND DUP2 MSTORE PUSH1 0x20 ADD PUSH0 DUP2 MSTORE POP SWAP1 JUMP JUMPDEST PUSH0 PUSH0 REVERT JUMPDEST PUSH0 DUP2 SWAP1 POP SWAP2 SWAP1 POP JUMP JUMPDEST PUSH2 0x2D8 DUP2 PUSH2 0x2C6 JUMP JUMPDEST DUP2 EQ PUSH2 0x2E2 JUMPI PUSH0 PUSH0 REVERT JUMPDEST POP JUMP JUMPDEST PUSH0 DUP2 CALLDATALOAD SWAP1 POP PUSH2 0x2F3 DUP2 PUSH2 0x2CF JUMP JUMPDEST SWAP3 SWAP2 POP POP JUMP JUMPDEST PUSH0 PUSH1 0x20 DUP3 DUP5 SUB SLT ISZERO PUSH2 0x30E JUMPI PUSH2 0x30D PUSH2 0x2C2 JUMP JUMPDEST JUMPDEST PUSH0 PUSH2 0x31B DUP5 DUP3 DUP6 ADD PUSH2 0x2E5 JUMP JUMPDEST SWAP2 POP POP SWAP3 SWAP2 POP POP JUMP JUMPDEST PUSH0 PUSH20 0xFFFFFFFFFFFFFFFFFFFFFFFFFFFFFFFFFFFFFFFF DUP3 AND SWAP1 POP SWAP2 SWAP1 POP JUMP JUMPDEST PUSH0 PUSH2 0x34D DUP3 PUSH2 0x324 JUMP JUMPDEST SWAP1 POP SWAP2 SWAP1 POP JUMP JUMPDEST PUSH2 0x35D DUP2 PUSH2 0x343 JUMP JUMPDEST DUP3 MSTORE POP POP JUMP JUMPDEST PUSH0 DUP2 SWAP1 POP SWAP2 SWAP1 POP JUMP JUMPDEST PUSH2 0x375 DUP2 PUSH2 0x363 JUMP JUMPDEST DUP3 MSTORE POP POP JUMP JUMPDEST PUSH0 PUSH1 0x40 DUP3 ADD SWAP1 POP PUSH2 0x38E PUSH0 DUP4 ADD DUP6 PUSH2 0x354 JUMP JUMPDEST PUSH2 0x39B PUSH1 0x20 DUP4 ADD DUP5 PUSH2 0x36C JUMP JUMPDEST SWAP4 SWAP3 POP POP POP JUMP JUMPDEST PUSH2 0x3AB DUP2 PUSH2 0x343 JUMP JUMPDEST DUP2 EQ PUSH2 0x3B5 JUMPI PUSH0 PUSH0 REVERT JUMPDEST POP JUMP JUMPDEST PUSH0 DUP2 CALLDATALOAD SWAP1 POP PUSH2 0x3C6 DUP2 PUSH2 0x3A2 JUMP JUMPDEST SWAP3 SWAP2 POP POP JUMP JUMPDEST PUSH2 0x3D5 DUP2 PUSH2 0x363 JUMP JUMPDEST DUP2 EQ PUSH2 0x3DF JUMPI PUSH0 PUSH0 REVERT JUMPDEST POP JUMP JUMPDEST PUSH0 DUP2 CALLDATALOAD SWAP1 POP PUSH2 0x3F0 DUP2 PUSH2 0x3CC JUMP JUMPDEST SWAP3 SWAP2 POP POP JUMP JUMPDEST PUSH0 PUSH0 PUSH0 PUSH1 0x60 DUP5 DUP7 SUB SLT ISZERO PUSH2 0x40D JUMPI PUSH2 0x40C PUSH2 0x2C2 JUMP JUMPDEST JUMPDEST PUSH0 PUSH2 0x41A DUP7 DUP3 DUP8 ADD PUSH2 0x2E5 JUMP JUMPDEST SWAP4 POP POP PUSH1 0x20 PUSH2 0x42B DUP7 DUP3 DUP8 ADD PUSH2 0x3B8 JUMP JUMPDEST SWAP3 POP POP PUSH1 0x40 PUSH2 0x43C DUP7 DUP3 DUP8 ADD PUSH2 0x3E2 JUMP JUMPDEST SWAP2 POP POP SWAP3 POP SWAP3 POP SWAP3 JUMP JUMPDEST PUSH2 0x44F DUP2 PUSH2 0x343 JUMP JUMPDEST DUP3 MSTORE POP POP JUMP JUMPDEST PUSH2 0x45E DUP2 PUSH2 0x363 JUMP JUMPDEST DUP3 MSTORE POP POP JUMP JUMPDEST PUSH1 0x40 DUP3 ADD PUSH0 DUP3 ADD MLOAD PUSH2 0x478 PUSH0 DUP6 ADD DUP3 PUSH2 0x446 JUMP JUMPDEST POP PUSH1 0x20 DUP3 ADD MLOAD PUSH2 0x48B PUSH1 0x20 DUP6 ADD DUP3 PUSH2 0x455 JUMP JUMPDEST POP POP POP POP JUMP JUMPDEST PUSH0 PUSH1 0x40 DUP3 ADD SWAP1 POP PUSH2 0x4A4 PUSH0 DUP4 ADD DUP5 PUSH2 0x464 JUMP JUMPDEST SWAP3 SWAP2 POP POP JUMP JUMPDEST PUSH0 DUP2 SWAP1 POP SWAP2 SWAP1 POP JUMP JUMPDEST PUSH2 0x4C4 PUSH2 0x4BF DUP3 PUSH2 0x363 JUMP JUMPDEST PUSH2 0x4AA JUMP JUMPDEST DUP3 MSTORE POP POP JUMP JUMPDEST PUSH0 PUSH32 0xFF00000000000000000000000000000000000000000000000000000000000000 DUP3 AND SWAP1 POP SWAP2 SWAP1 POP JUMP JUMPDEST PUSH0 DUP2 SWAP1 POP SWAP2 SWAP1 POP JUMP JUMPDEST PUSH2 0x50F PUSH2 0x50A DUP3 PUSH2 0x4CA JUMP JUMPDEST PUSH2 0x4F5 JUMP JUMPDEST DUP3 MSTORE POP POP JUMP JUMPDEST PUSH0 PUSH2 0x520 DUP3 DUP6 PUSH2 0x4B3 JUMP JUMPDEST PUSH1 0x20 DUP3 ADD SWAP2 POP PUSH2 0x530 DUP3 DUP5 PUSH2 0x4FE JUMP JUMPDEST PUSH1 0x1 DUP3 ADD SWAP2 POP DUP2 SWAP1 POP SWAP4 SWAP3 POP POP POP JUMP INVALID LOG2 PUSH5 0x6970667358 0x22 SLT KECCAK256 PUSH31 0xF01BB30D62CFD9BD4680DB31B5D9BB0F3F7F10AC63FBEFCBC9C11DB16CB9E0 PUSH5 0x736F6C6343 STOP ADDMOD SAR STOP CALLER "
		},
		"gasEstimates": {
			"creation": {
				"codeDepositCost": "279600",
				"executionCost": "316",
				"totalCost": "279916"
			},
			"external": {
				"injectHostage(uint256)": "22923",
				"readVault(uint256)": "5335",
				"setVault(uint256,address,bytes32)": "47358",
				"vaults(uint256)": "5060"
			}
		},
		"methodIdentifiers": {
			"injectHostage(uint256)": "0e1c7967",
			"readVault(uint256)": "c379f054",
			"setVault(uint256,address,bytes32)": "8c837362",
			"vaults(uint256)": "8c64ea4a"
		}
	},
	"abi": [
		{
			"inputs": [
				{
					"internalType": "uint256",
					"name": "id",
					"type": "uint256"
				}
			],
			"name": "injectHostage",
			"outputs": [],
			"stateMutability": "nonpayable",
			"type": "function"
		},
		{
			"inputs": [
				{
					"internalType": "uint256",
					"name": "id",
					"type": "uint256"
				}
			],
			"name": "readVault",
			"outputs": [
				{
					"components": [
						{
							"internalType": "address",
							"name": "owner",
							"type": "address"
						},
						{
							"internalType": "bytes32",
							"name": "safeWord",
							"type": "bytes32"
						}
					],
					"internalType": "struct StructTrap.Vault",
					"name": "",
					"type": "tuple"
				}
			],
			"stateMutability": "view",
			"type": "function"
		},
		{
			"inputs": [
				{
					"internalType": "uint256",
					"name": "id",
					"type": "uint256"
				},
				{
					"internalType": "address",
					"name": "_owner",
					"type": "address"
				},
				{
					"internalType": "bytes32",
					"name": "_safeWord",
					"type": "bytes32"
				}
			],
			"name": "setVault",
			"outputs": [],
			"stateMutability": "nonpayable",
			"type": "function"
		},
		{
			"inputs": [
				{
					"internalType": "uint256",
					"name": "",
					"type": "uint256"
				}
			],
			"name": "vaults",
			"outputs": [
				{
					"internalType": "address",
					"name": "owner",
					"type": "address"
				},
				{
					"internalType": "bytes32",
					"name": "safeWord",
					"type": "bytes32"
				}
			],
			"stateMutability": "view",
			"type": "function"
		}
	]
}