{
	"data": {
		"bytecode": {
			"linkReferences": {},
			"object": "6080604052348015600e575f5ffd5b506104e08061001c5f395ff3fe608060405260043610610037575f3560e01c806312065fe01461009357806327e235e3146100bd5780632e1a7d4d146100f95761008f565b3661008f57345f5f3373ffffffffffffffffffffffffffffffffffffffff1673ffffffffffffffffffffffffffffffffffffffff1681526020019081526020015f205f82825461008791906102c6565b925050819055005b5f5ffd5b34801561009e575f5ffd5b506100a7610121565b6040516100b49190610308565b60405180910390f35b3480156100c8575f5ffd5b506100e360048036038101906100de919061037f565b610164565b6040516100f09190610308565b60405180910390f35b348015610104575f5ffd5b5061011f600480360381019061011a91906103d4565b610178565b005b5f5f5f3373ffffffffffffffffffffffffffffffffffffffff1673ffffffffffffffffffffffffffffffffffffffff1681526020019081526020015f2054905090565b5f602052805f5260405f205f915090505481565b805f5f3373ffffffffffffffffffffffffffffffffffffffff1673ffffffffffffffffffffffffffffffffffffffff1681526020019081526020015f205410156101f7576040517f08c379a00000000000000000000000000000000000000000000000000000000081526004016101ee90610459565b60405180910390fd5b805f5f3373ffffffffffffffffffffffffffffffffffffffff1673ffffffffffffffffffffffffffffffffffffffff1681526020019081526020015f205f8282546102429190610477565b925050819055503373ffffffffffffffffffffffffffffffffffffffff166108fc8290811502906040515f60405180830381858888f1935050505015801561028c573d5f5f3e3d5ffd5b5050565b5f819050919050565b7f4e487b71000000000000000000000000000000000000000000000000000000005f52601160045260245ffd5b5f6102d082610290565b91506102db83610290565b92508282019050808211156102f3576102f2610299565b5b92915050565b61030281610290565b82525050565b5f60208201905061031b5f8301846102f9565b92915050565b5f5ffd5b5f73ffffffffffffffffffffffffffffffffffffffff82169050919050565b5f61034e82610325565b9050919050565b61035e81610344565b8114610368575f5ffd5b50565b5f8135905061037981610355565b92915050565b5f6020828403121561039457610393610321565b5b5f6103a18482850161036b565b91505092915050565b6103b381610290565b81146103bd575f5ffd5b50565b5f813590506103ce816103aa565b92915050565b5f602082840312156103e9576103e8610321565b5b5f6103f6848285016103c0565b91505092915050565b5f82825260208201905092915050565b7f496e73756666696369656e7400000000000000000000000000000000000000005f82015250565b5f610443600c836103ff565b915061044e8261040f565b602082019050919050565b5f6020820190508181035f83015261047081610437565b9050919050565b5f61048182610290565b915061048c83610290565b92508282039050818111156104a4576104a3610299565b5b9291505056fea264697066735822122065d2a537cd7fff54801511cfd3d2b27e5557252e5f4a354d030af77d6f09c5e564736f6c634300081d0033",
			"opcodes": "PUSH1 0x80 PUSH1 0x40 MSTORE CALLVALUE DUP1 ISZERO PUSH1 0xE JUMPI PUSH0 PUSH0 REVERT JUMPDEST POP PUSH2 0x4E0 DUP1 PUSH2 0x1C PUSH0 CODECOPY PUSH0 RETURN INVALID PUSH1 0x80 PUSH1 0x40 MSTORE PUSH1 0x4 CALLDATASIZE LT PUSH2 0x37 JUMPI PUSH0 CALLDATALOAD PUSH1 0xE0 SHR DUP1 PUSH4 0x12065FE0 EQ PUSH2 0x93 JUMPI DUP1 PUSH4 0x27E235E3 EQ PUSH2 0xBD JUMPI DUP1 PUSH4 0x2E1A7D4D EQ PUSH2 0xF9 JUMPI PUSH2 0x8F JUMP JUMPDEST CALLDATASIZE PUSH2 0x8F JUMPI CALLVALUE PUSH0 PUSH0 CALLER PUSH20 0xFFFFFFFFFFFFFFFFFFFFFFFFFFFFFFFFFFFFFFFF AND PUSH20 0xFFFFFFFFFFFFFFFFFFFFFFFFFFFFFFFFFFFFFFFF AND DUP2 MSTORE PUSH1 0x20 ADD SWAP1 DUP2 MSTORE PUSH1 0x20 ADD PUSH0 KECCAK256 PUSH0 DUP3 DUP3 SLOAD PUSH2 0x87 SWAP2 SWAP1 PUSH2 0x2C6 JUMP JUMPDEST SWAP3 POP POP DUP2 SWAP1 SSTORE STOP JUMPDEST PUSH0 PUSH0 REVERT JUMPDEST CALLVALUE DUP1 ISZERO PUSH2 0x9E JUMPI PUSH0 PUSH0 REVERT JUMPDEST POP PUSH2 0xA7 PUSH2 0x121 JUMP JUMPDEST PUSH1 0x40 MLOAD PUSH2 0xB4 SWAP2 SWAP1 PUSH2 0x308 JUMP JUMPDEST PUSH1 0x40 MLOAD DUP1 SWAP2 SUB SWAP1 RETURN JUMPDEST CALLVALUE DUP1 ISZERO PUSH2 0xC8 JUMPI PUSH0 PUSH0 REVERT JUMPDEST POP PUSH2 0xE3 PUSH1 0x4 DUP1 CALLDATASIZE SUB DUP2 ADD SWAP1 PUSH2 0xDE SWAP2 SWAP1 PUSH2 0x37F JUMP JUMPDEST PUSH2 0x164 JUMP JUMPDEST PUSH1 0x40 MLOAD PUSH2 0xF0 SWAP2 SWAP1 PUSH2 0x308 JUMP JUMPDEST PUSH1 0x40 MLOAD DUP1 SWAP2 SUB SWAP1 RETURN JUMPDEST CALLVALUE DUP1 ISZERO PUSH2 0x104 JUMPI PUSH0 PUSH0 REVERT JUMPDEST POP PUSH2 0x11F PUSH1 0x4 DUP1 CALLDATASIZE SUB DUP2 ADD SWAP1 PUSH2 0x11A SWAP2 SWAP1 PUSH2 0x3D4 JUMP JUMPDEST PUSH2 0x178 JUMP JUMPDEST STOP JUMPDEST PUSH0 PUSH0 PUSH0 CALLER PUSH20 0xFFFFFFFFFFFFFFFFFFFFFFFFFFFFFFFFFFFFFFFF AND PUSH20 0xFFFFFFFFFFFFFFFFFFFFFFFFFFFFFFFFFFFFFFFF AND DUP2 MSTORE PUSH1 0x20 ADD SWAP1 DUP2 MSTORE PUSH1 0x20 ADD PUSH0 KECCAK256 SLOAD SWAP1 POP SWAP1 JUMP JUMPDEST PUSH0 PUSH1 0x20 MSTORE DUP1 PUSH0 MSTORE PUSH1 0x40 PUSH0 KECCAK256 PUSH0 SWAP2 POP SWAP1 POP SLOAD DUP2 JUMP JUMPDEST DUP1 PUSH0 PUSH0 CALLER PUSH20 0xFFFFFFFFFFFFFFFFFFFFFFFFFFFFFFFFFFFFFFFF AND PUSH20 0xFFFFFFFFFFFFFFFFFFFFFFFFFFFFFFFFFFFFFFFF AND DUP2 MSTORE PUSH1 0x20 ADD SWAP1 DUP2 MSTORE PUSH1 0x20 ADD PUSH0 KECCAK256 SLOAD LT ISZERO PUSH2 0x1F7 JUMPI PUSH1 0x40 MLOAD PUSH32 0x8C379A000000000000000000000000000000000000000000000000000000000 DUP2 MSTORE PUSH1 0x4 ADD PUSH2 0x1EE SWAP1 PUSH2 0x459 JUMP JUMPDEST PUSH1 0x40 MLOAD DUP1 SWAP2 SUB SWAP1 REVERT JUMPDEST DUP1 PUSH0 PUSH0 CALLER PUSH20 0xFFFFFFFFFFFFFFFFFFFFFFFFFFFFFFFFFFFFFFFF AND PUSH20 0xFFFFFFFFFFFFFFFFFFFFFFFFFFFFFFFFFFFFFFFF AND DUP2 MSTORE PUSH1 0x20 ADD SWAP1 DUP2 MSTORE PUSH1 0x20 ADD PUSH0 KECCAK256 PUSH0 DUP3 DUP3 SLOAD PUSH2 0x242 SWAP2 SWAP1 PUSH2 0x477 JUMP JUMPDEST SWAP3 POP POP DUP2 SWAP1 SSTORE POP CALLER PUSH20 0xFFFFFFFFFFFFFFFFFFFFFFFFFFFFFFFFFFFFFFFF AND PUSH2 0x8FC DUP3 SWAP1 DUP2 ISZERO MUL SWAP1 PUSH1 0x40 MLOAD PUSH0 PUSH1 0x40 MLOAD DUP1 DUP4 SUB DUP2 DUP6 DUP9 DUP9 CALL SWAP4 POP POP POP POP ISZERO DUP1 ISZERO PUSH2 0x28C JUMPI RETURNDATASIZE PUSH0 PUSH0 RETURNDATACOPY RETURNDATASIZE PUSH0 REVERT JUMPDEST POP POP JUMP JUMPDEST PUSH0 DUP2 SWAP1 POP SWAP2 SWAP1 POP JUMP JUMPDEST PUSH32 0x4E487B7100000000000000000000000000000000000000000000000000000000 PUSH0 MSTORE PUSH1 0x11 PUSH1 0x4 MSTORE PUSH1 0x24 PUSH0 REVERT JUMPDEST PUSH0 PUSH2 0x2D0 DUP3 PUSH2 0x290 JUMP JUMPDEST SWAP2 POP PUSH2 0x2DB DUP4 PUSH2 0x290 JUMP JUMPDEST SWAP3 POP DUP3 DUP3 ADD SWAP1 POP DUP1 DUP3 GT ISZERO PUSH2 0x2F3 JUMPI PUSH2 0x2F2 PUSH2 0x299 JUMP JUMPDEST JUMPDEST SWAP3 SWAP2 POP POP JUMP JUMPDEST PUSH2 0x302 DUP2 PUSH2 0x290 JUMP JUMPDEST DUP3 MSTORE POP POP JUMP JUMPDEST PUSH0 PUSH1 0x20 DUP3 ADD SWAP1 POP PUSH2 0x31B PUSH0 DUP4 ADD DUP5 PUSH2 0x2F9 JUMP JUMPDEST SWAP3 SWAP2 POP POP JUMP JUMPDEST PUSH0 PUSH0 REVERT JUMPDEST PUSH0 PUSH20 0xFFFFFFFFFFFFFFFFFFFFFFFFFFFFFFFFFFFFFFFF DUP3 AND SWAP1 POP SWAP2 SWAP1 POP JUMP JUMPDEST PUSH0 PUSH2 0x34E DUP3 PUSH2 0x325 JUMP JUMPDEST SWAP1 POP SWAP2 SWAP1 POP JUMP JUMPDEST PUSH2 0x35E DUP2 PUSH2 0x344 JUMP JUMPDEST DUP2 EQ PUSH2 0x368 JUMPI PUSH0 PUSH0 REVERT JUMPDEST POP JUMP JUMPDEST PUSH0 DUP2 CALLDATALOAD SWAP1 POP PUSH2 0x379 DUP2 PUSH2 0x355 JUMP JUMPDEST SWAP3 SWAP2 POP POP JUMP JUMPDEST PUSH0 PUSH1 0x20 DUP3 DUP5 SUB SLT ISZERO PUSH2 0x394 JUMPI PUSH2 0x393 PUSH2 0x321 JUMP JUMPDEST JUMPDEST PUSH0 PUSH2 0x3A1 DUP5 DUP3 DUP6 ADD PUSH2 0x36B JUMP JUMPDEST SWAP2 POP POP SWAP3 SWAP2 POP POP JUMP JUMPDEST PUSH2 0x3B3 DUP2 PUSH2 0x290 JUMP JUMPDEST DUP2 EQ PUSH2 0x3BD JUMPI PUSH0 PUSH0 REVERT JUMPDEST POP JUMP JUMPDEST PUSH0 DUP2 CALLDATALOAD SWAP1 POP PUSH2 0x3CE DUP2 PUSH2 0x3AA JUMP JUMPDEST SWAP3 SWAP2 POP POP JUMP JUMPDEST PUSH0 PUSH1 0x20 DUP3 DUP5 SUB SLT ISZERO PUSH2 0x3E9 JUMPI PUSH2 0x3E8 PUSH2 0x321 JUMP JUMPDEST JUMPDEST PUSH0 PUSH2 0x3F6 DUP5 DUP3 DUP6 ADD PUSH2 0x3C0 JUMP JUMPDEST SWAP2 POP POP SWAP3 SWAP2 POP POP JUMP JUMPDEST PUSH0 DUP3 DUP3 MSTORE PUSH1 0x20 DUP3 ADD SWAP1 POP SWAP3 SWAP2 POP POP JUMP JUMPDEST PUSH32 0x496E73756666696369656E740000000000000000000000000000000000000000 PUSH0 DUP3 ADD MSTORE POP JUMP JUMPDEST PUSH0 PUSH2 0x443 PUSH1 0xC DUP4 PUSH2 0x3FF JUMP JUMPDEST SWAP2 POP PUSH2 0x44E DUP3 PUSH2 0x40F JUMP JUMPDEST PUSH1 0x20 DUP3 ADD SWAP1 POP SWAP2 SWAP1 POP JUMP JUMPDEST PUSH0 PUSH1 0x20 DUP3 ADD SWAP1 POP DUP2 DUP2 SUB PUSH0 DUP4 ADD MSTORE PUSH2 0x470 DUP2 PUSH2 0x437 JUMP JUMPDEST SWAP1 POP SWAP2 SWAP1 POP JUMP JUMPDEST PUSH0 PUSH2 0x481 DUP3 PUSH2 0x290 JUMP JUMPDEST SWAP2 POP PUSH2 0x48C DUP4 PUSH2 0x290 JUMP JUMPDEST SWAP3 POP DUP3 DUP3 SUB SWAP1 POP DUP2 DUP2 GT ISZERO PUSH2 0x4A4 JUMPI PUSH2 0x4A3 PUSH2 0x299 JUMP JUMPDEST JUMPDEST SWAP3 SWAP2 POP POP JUMP INVALID LOG2 PUSH5 0x6970667358 0x22 SLT KECCAK256 PUSH6 0xD2A537CD7FFF SLOAD DUP1 ISZERO GT 0xCF 0xD3 0xD2 0xB2 PUSH31 0x5557252E5F4A354D030AF77D6F09C5E564736F6C634300081D003300000000 "
		},
		"gasEstimates": {
			"creation": {
				"codeDepositCost": "249600",
				"executionCost": "285",
				"totalCost": "249885"
			},
			"external": {
				"balances(address)": "2801",
				"getBalance()": "2496",
				"withdraw(uint256)": "infinite"
			}
		},
		"methodIdentifiers": {
			"balances(address)": "27e235e3",
			"getBalance()": "12065fe0",
			"withdraw(uint256)": "2e1a7d4d"
		}
	},
	"abi": [
		{
			"inputs": [
				{
					"internalType": "address",
					"name": "",
					"type": "address"
				}
			],
			"name": "balances",
			"outputs": [
				{
					"internalType": "uint256",
					"name": "",
					"type": "uint256"
				}
			],
			"stateMutability": "view",
			"type": "function"
		},
		{
			"inputs": [],
			"name": "getBalance",
			"outputs": [
				{
					"internalType": "uint256",
					"name": "",
					"type": "uint256"
				}
			],
			"stateMutability": "view",
			"type": "function"
		},
		{
			"inputs": [
				{
					"internalType": "uint256",
					"name": "amount",
					"type": "uint256"
				}
			],
			"name": "withdraw",
			"outputs": [],
			"stateMutability": "nonpayable",
			"type": "function"
		},
		{
			"stateMutability": "payable",
			"type": "receive"
		}
	]
}