{
	"data": {
		"bytecode": {
			"linkReferences": {},
			"object": "6080604052348015600e575f5ffd5b50610a458061001c5f395ff3fe608060405234801561000f575f5ffd5b5060043610610060575f3560e01c80630121b93f14610064578063013cf08b1461008057806344f8fea1146100b157806349c2a1a6146100cd578063b9f79451146100fd578063da35c6641461012d575b5f5ffd5b61007e60048036038101906100799190610375565b61014b565b005b61009a60048036038101906100959190610375565b6101b4565b6040516100a892919061041f565b60405180910390f35b6100cb60048036038101906100c691906104a7565b61025a565b005b6100e760048036038101906100e29190610611565b6102b0565b6040516100f49190610658565b60405180910390f35b61011760048036038101906101129190610671565b610317565b6040516101249190610658565b60405180910390f35b61013561032b565b6040516101429190610658565b60405180910390f35b5f5f3373ffffffffffffffffffffffffffffffffffffffff1673ffffffffffffffffffffffffffffffffffffffff1681526020019081526020015f205460015f8381526020019081526020015f206001015f8282546101aa91906106c9565b9250508190555050565b6001602052805f5260405f205f91509050805f0180546101d390610729565b80601f01602080910402602001604051908101604052809291908181526020018280546101ff90610729565b801561024a5780601f106102215761010080835404028352916020019161024a565b820191905f5260205f20905b81548152906001019060200180831161022d57829003601f168201915b5050505050908060010154905082565b805f5f8473ffffffffffffffffffffffffffffffffffffffff1673ffffffffffffffffffffffffffffffffffffffff1681526020019081526020015f205f8282546102a591906106c9565b925050819055505050565b5f60405180604001604052808381526020015f81525060015f60025481526020019081526020015f205f820151815f0190816102ec91906108f9565b506020820151816001015590505060025f81548092919061030c906109c8565b919050559050919050565b5f602052805f5260405f205f915090505481565b60025481565b5f604051905090565b5f5ffd5b5f5ffd5b5f819050919050565b61035481610342565b811461035e575f5ffd5b50565b5f8135905061036f8161034b565b92915050565b5f6020828403121561038a5761038961033a565b5b5f61039784828501610361565b91505092915050565b5f81519050919050565b5f82825260208201905092915050565b8281835e5f83830152505050565b5f601f19601f8301169050919050565b5f6103e2826103a0565b6103ec81856103aa565b93506103fc8185602086016103ba565b610405816103c8565b840191505092915050565b61041981610342565b82525050565b5f6040820190508181035f83015261043781856103d8565b90506104466020830184610410565b9392505050565b5f73ffffffffffffffffffffffffffffffffffffffff82169050919050565b5f6104768261044d565b9050919050565b6104868161046c565b8114610490575f5ffd5b50565b5f813590506104a18161047d565b92915050565b5f5f604083850312156104bd576104bc61033a565b5b5f6104ca85828601610493565b92505060206104db85828601610361565b9150509250929050565b5f5ffd5b5f5ffd5b7f4e487b71000000000000000000000000000000000000000000000000000000005f52604160045260245ffd5b610523826103c8565b810181811067ffffffffffffffff82111715610542576105416104ed565b5b80604052505050565b5f610554610331565b9050610560828261051a565b919050565b5f67ffffffffffffffff82111561057f5761057e6104ed565b5b610588826103c8565b9050602081019050919050565b828183375f83830152505050565b5f6105b56105b084610565565b61054b565b9050828152602081018484840111156105d1576105d06104e9565b5b6105dc848285610595565b509392505050565b5f82601f8301126105f8576105f76104e5565b5b81356106088482602086016105a3565b91505092915050565b5f602082840312156106265761062561033a565b5b5f82013567ffffffffffffffff8111156106435761064261033e565b5b61064f848285016105e4565b91505092915050565b5f60208201905061066b5f830184610410565b92915050565b5f602082840312156106865761068561033a565b5b5f61069384828501610493565b91505092915050565b7f4e487b71000000000000000000000000000000000000000000000000000000005f52601160045260245ffd5b5f6106d382610342565b91506106de83610342565b92508282019050808211156106f6576106f561069c565b5b92915050565b7f4e487b71000000000000000000000000000000000000000000000000000000005f52602260045260245ffd5b5f600282049050600182168061074057607f821691505b602082108103610753576107526106fc565b5b50919050565b5f819050815f5260205f209050919050565b5f6020601f8301049050919050565b5f82821b905092915050565b5f600883026107b57fffffffffffffffffffffffffffffffffffffffffffffffffffffffffffffffff8261077a565b6107bf868361077a565b95508019841693508086168417925050509392505050565b5f819050919050565b5f6107fa6107f56107f084610342565b6107d7565b610342565b9050919050565b5f819050919050565b610813836107e0565b61082761081f82610801565b848454610786565b825550505050565b5f5f905090565b61083e61082f565b61084981848461080a565b505050565b5b8181101561086c576108615f82610836565b60018101905061084f565b5050565b601f8211156108b15761088281610759565b61088b8461076b565b8101602085101561089a578190505b6108ae6108a68561076b565b83018261084e565b50505b505050565b5f82821c905092915050565b5f6108d15f19846008026108b6565b1980831691505092915050565b5f6108e983836108c2565b9150826002028217905092915050565b610902826103a0565b67ffffffffffffffff81111561091b5761091a6104ed565b5b6109258254610729565b610930828285610870565b5f60209050601f831160018114610961575f841561094f578287015190505b61095985826108de565b8655506109c0565b601f19841661096f86610759565b5f5b8281101561099657848901518255600182019150602085019450602081019050610971565b868310156109b357848901516109af601f8916826108c2565b8355505b6001600288020188555050505b505050505050565b5f6109d282610342565b91507fffffffffffffffffffffffffffffffffffffffffffffffffffffffffffffffff8203610a0457610a0361069c565b5b60018201905091905056fea2646970667358221220d009f4fb6c159b928a77c8e5653ab758b131d90e0b089064351851df07b1481964736f6c634300081d0033",
			"opcodes": "PUSH1 0x80 PUSH1 0x40 MSTORE CALLVALUE DUP1 ISZERO PUSH1 0xE JUMPI PUSH0 PUSH0 REVERT JUMPDEST POP PUSH2 0xA45 DUP1 PUSH2 0x1C PUSH0 CODECOPY PUSH0 RETURN INVALID PUSH1 0x80 PUSH1 0x40 MSTORE CALLVALUE DUP1 ISZERO PUSH2 0xF JUMPI PUSH0 PUSH0 REVERT JUMPDEST POP PUSH1 0x4 CALLDATASIZE LT PUSH2 0x60 JUMPI PUSH0 CALLDATALOAD PUSH1 0xE0 SHR DUP1 PUSH4 0x121B93F EQ PUSH2 0x64 JUMPI DUP1 PUSH4 0x13CF08B EQ PUSH2 0x80 JUMPI DUP1 PUSH4 0x44F8FEA1 EQ PUSH2 0xB1 JUMPI DUP1 PUSH4 0x49C2A1A6 EQ PUSH2 0xCD JUMPI DUP1 PUSH4 0xB9F79451 EQ PUSH2 0xFD JUMPI DUP1 PUSH4 0xDA35C664 EQ PUSH2 0x12D JUMPI JUMPDEST PUSH0 PUSH0 REVERT JUMPDEST PUSH2 0x7E PUSH1 0x4 DUP1 CALLDATASIZE SUB DUP2 ADD SWAP1 PUSH2 0x79 SWAP2 SWAP1 PUSH2 0x375 JUMP JUMPDEST PUSH2 0x14B JUMP JUMPDEST STOP JUMPDEST PUSH2 0x9A PUSH1 0x4 DUP1 CALLDATASIZE SUB DUP2 ADD SWAP1 PUSH2 0x95 SWAP2 SWAP1 PUSH2 0x375 JUMP JUMPDEST PUSH2 0x1B4 JUMP JUMPDEST PUSH1 0x40 MLOAD PUSH2 0xA8 SWAP3 SWAP2 SWAP1 PUSH2 0x41F JUMP JUMPDEST PUSH1 0x40 MLOAD DUP1 SWAP2 SUB SWAP1 RETURN JUMPDEST PUSH2 0xCB PUSH1 0x4 DUP1 CALLDATASIZE SUB DUP2 ADD SWAP1 PUSH2 0xC6 SWAP2 SWAP1 PUSH2 0x4A7 JUMP JUMPDEST PUSH2 0x25A JUMP JUMPDEST STOP JUMPDEST PUSH2 0xE7 PUSH1 0x4 DUP1 CALLDATASIZE SUB DUP2 ADD SWAP1 PUSH2 0xE2 SWAP2 SWAP1 PUSH2 0x611 JUMP JUMPDEST PUSH2 0x2B0 JUMP JUMPDEST PUSH1 0x40 MLOAD PUSH2 0xF4 SWAP2 SWAP1 PUSH2 0x658 JUMP JUMPDEST PUSH1 0x40 MLOAD DUP1 SWAP2 SUB SWAP1 RETURN JUMPDEST PUSH2 0x117 PUSH1 0x4 DUP1 CALLDATASIZE SUB DUP2 ADD SWAP1 PUSH2 0x112 SWAP2 SWAP1 PUSH2 0x671 JUMP JUMPDEST PUSH2 0x317 JUMP JUMPDEST PUSH1 0x40 MLOAD PUSH2 0x124 SWAP2 SWAP1 PUSH2 0x658 JUMP JUMPDEST PUSH1 0x40 MLOAD DUP1 SWAP2 SUB SWAP1 RETURN JUMPDEST PUSH2 0x135 PUSH2 0x32B JUMP JUMPDEST PUSH1 0x40 MLOAD PUSH2 0x142 SWAP2 SWAP1 PUSH2 0x658 JUMP JUMPDEST PUSH1 0x40 MLOAD DUP1 SWAP2 SUB SWAP1 RETURN JUMPDEST PUSH0 PUSH0 CALLER PUSH20 0xFFFFFFFFFFFFFFFFFFFFFFFFFFFFFFFFFFFFFFFF AND PUSH20 0xFFFFFFFFFFFFFFFFFFFFFFFFFFFFFFFFFFFFFFFF AND DUP2 MSTORE PUSH1 0x20 ADD SWAP1 DUP2 MSTORE PUSH1 0x20 ADD PUSH0 KECCAK256 SLOAD PUSH1 0x1 PUSH0 DUP4 DUP2 MSTORE PUSH1 0x20 ADD SWAP1 DUP2 MSTORE PUSH1 0x20 ADD PUSH0 KECCAK256 PUSH1 0x1 ADD PUSH0 DUP3 DUP3 SLOAD PUSH2 0x1AA SWAP2 SWAP1 PUSH2 0x6C9 JUMP JUMPDEST SWAP3 POP POP DUP2 SWAP1 SSTORE POP POP JUMP JUMPDEST PUSH1 0x1 PUSH1 0x20 MSTORE DUP1 PUSH0 MSTORE PUSH1 0x40 PUSH0 KECCAK256 PUSH0 SWAP2 POP SWAP1 POP DUP1 PUSH0 ADD DUP1 SLOAD PUSH2 0x1D3 SWAP1 PUSH2 0x729 JUMP JUMPDEST DUP1 PUSH1 0x1F ADD PUSH1 0x20 DUP1 SWAP2 DIV MUL PUSH1 0x20 ADD PUSH1 0x40 MLOAD SWAP1 DUP2 ADD PUSH1 0x40 MSTORE DUP1 SWAP3 SWAP2 SWAP1 DUP2 DUP2 MSTORE PUSH1 0x20 ADD DUP3 DUP1 SLOAD PUSH2 0x1FF SWAP1 PUSH2 0x729 JUMP JUMPDEST DUP1 ISZERO PUSH2 0x24A JUMPI DUP1 PUSH1 0x1F LT PUSH2 0x221 JUMPI PUSH2 0x100 DUP1 DUP4 SLOAD DIV MUL DUP4 MSTORE SWAP2 PUSH1 0x20 ADD SWAP2 PUSH2 0x24A JUMP JUMPDEST DUP3 ADD SWAP2 SWAP1 PUSH0 MSTORE PUSH1 0x20 PUSH0 KECCAK256 SWAP1 JUMPDEST DUP2 SLOAD DUP2 MSTORE SWAP1 PUSH1 0x1 ADD SWAP1 PUSH1 0x20 ADD DUP1 DUP4 GT PUSH2 0x22D JUMPI DUP3 SWAP1 SUB PUSH1 0x1F AND DUP3 ADD SWAP2 JUMPDEST POP POP POP POP POP SWAP1 DUP1 PUSH1 0x1 ADD SLOAD SWAP1 POP DUP3 JUMP JUMPDEST DUP1 PUSH0 PUSH0 DUP5 PUSH20 0xFFFFFFFFFFFFFFFFFFFFFFFFFFFFFFFFFFFFFFFF AND PUSH20 0xFFFFFFFFFFFFFFFFFFFFFFFFFFFFFFFFFFFFFFFF AND DUP2 MSTORE PUSH1 0x20 ADD SWAP1 DUP2 MSTORE PUSH1 0x20 ADD PUSH0 KECCAK256 PUSH0 DUP3 DUP3 SLOAD PUSH2 0x2A5 SWAP2 SWAP1 PUSH2 0x6C9 JUMP JUMPDEST SWAP3 POP POP DUP2 SWAP1 SSTORE POP POP POP JUMP JUMPDEST PUSH0 PUSH1 0x40 MLOAD DUP1 PUSH1 0x40 ADD PUSH1 0x40 MSTORE DUP1 DUP4 DUP2 MSTORE PUSH1 0x20 ADD PUSH0 DUP2 MSTORE POP PUSH1 0x1 PUSH0 PUSH1 0x2 SLOAD DUP2 MSTORE PUSH1 0x20 ADD SWAP1 DUP2 MSTORE PUSH1 0x20 ADD PUSH0 KECCAK256 PUSH0 DUP3 ADD MLOAD DUP2 PUSH0 ADD SWAP1 DUP2 PUSH2 0x2EC SWAP2 SWAP1 PUSH2 0x8F9 JUMP JUMPDEST POP PUSH1 0x20 DUP3 ADD MLOAD DUP2 PUSH1 0x1 ADD SSTORE SWAP1 POP POP PUSH1 0x2 PUSH0 DUP2 SLOAD DUP1 SWAP3 SWAP2 SWAP1 PUSH2 0x30C SWAP1 PUSH2 0x9C8 JUMP JUMPDEST SWAP2 SWAP1 POP SSTORE SWAP1 POP SWAP2 SWAP1 POP JUMP JUMPDEST PUSH0 PUSH1 0x20 MSTORE DUP1 PUSH0 MSTORE PUSH1 0x40 PUSH0 KECCAK256 PUSH0 SWAP2 POP SWAP1 POP SLOAD DUP2 JUMP JUMPDEST PUSH1 0x2 SLOAD DUP2 JUMP JUMPDEST PUSH0 PUSH1 0x40 MLOAD SWAP1 POP SWAP1 JUMP JUMPDEST PUSH0 PUSH0 REVERT JUMPDEST PUSH0 PUSH0 REVERT JUMPDEST PUSH0 DUP2 SWAP1 POP SWAP2 SWAP1 POP JUMP JUMPDEST PUSH2 0x354 DUP2 PUSH2 0x342 JUMP JUMPDEST DUP2 EQ PUSH2 0x35E JUMPI PUSH0 PUSH0 REVERT JUMPDEST POP JUMP JUMPDEST PUSH0 DUP2 CALLDATALOAD SWAP1 POP PUSH2 0x36F DUP2 PUSH2 0x34B JUMP JUMPDEST SWAP3 SWAP2 POP POP JUMP JUMPDEST PUSH0 PUSH1 0x20 DUP3 DUP5 SUB SLT ISZERO PUSH2 0x38A JUMPI PUSH2 0x389 PUSH2 0x33A JUMP JUMPDEST JUMPDEST PUSH0 PUSH2 0x397 DUP5 DUP3 DUP6 ADD PUSH2 0x361 JUMP JUMPDEST SWAP2 POP POP SWAP3 SWAP2 POP POP JUMP JUMPDEST PUSH0 DUP2 MLOAD SWAP1 POP SWAP2 SWAP1 POP JUMP JUMPDEST PUSH0 DUP3 DUP3 MSTORE PUSH1 0x20 DUP3 ADD SWAP1 POP SWAP3 SWAP2 POP POP JUMP JUMPDEST DUP3 DUP2 DUP4 MCOPY PUSH0 DUP4 DUP4 ADD MSTORE POP POP POP JUMP JUMPDEST PUSH0 PUSH1 0x1F NOT PUSH1 0x1F DUP4 ADD AND SWAP1 POP SWAP2 SWAP1 POP JUMP JUMPDEST PUSH0 PUSH2 0x3E2 DUP3 PUSH2 0x3A0 JUMP JUMPDEST PUSH2 0x3EC DUP2 DUP6 PUSH2 0x3AA JUMP JUMPDEST SWAP4 POP PUSH2 0x3FC DUP2 DUP6 PUSH1 0x20 DUP7 ADD PUSH2 0x3BA JUMP JUMPDEST PUSH2 0x405 DUP2 PUSH2 0x3C8 JUMP JUMPDEST DUP5 ADD SWAP2 POP POP SWAP3 SWAP2 POP POP JUMP JUMPDEST PUSH2 0x419 DUP2 PUSH2 0x342 JUMP JUMPDEST DUP3 MSTORE POP POP JUMP JUMPDEST PUSH0 PUSH1 0x40 DUP3 ADD SWAP1 POP DUP2 DUP2 SUB PUSH0 DUP4 ADD MSTORE PUSH2 0x437 DUP2 DUP6 PUSH2 0x3D8 JUMP JUMPDEST SWAP1 POP PUSH2 0x446 PUSH1 0x20 DUP4 ADD DUP5 PUSH2 0x410 JUMP JUMPDEST SWAP4 SWAP3 POP POP POP JUMP JUMPDEST PUSH0 PUSH20 0xFFFFFFFFFFFFFFFFFFFFFFFFFFFFFFFFFFFFFFFF DUP3 AND SWAP1 POP SWAP2 SWAP1 POP JUMP JUMPDEST PUSH0 PUSH2 0x476 DUP3 PUSH2 0x44D JUMP JUMPDEST SWAP1 POP SWAP2 SWAP1 POP JUMP JUMPDEST PUSH2 0x486 DUP2 PUSH2 0x46C JUMP JUMPDEST DUP2 EQ PUSH2 0x490 JUMPI PUSH0 PUSH0 REVERT JUMPDEST POP JUMP JUMPDEST PUSH0 DUP2 CALLDATALOAD SWAP1 POP PUSH2 0x4A1 DUP2 PUSH2 0x47D JUMP JUMPDEST SWAP3 SWAP2 POP POP JUMP JUMPDEST PUSH0 PUSH0 PUSH1 0x40 DUP4 DUP6 SUB SLT ISZERO PUSH2 0x4BD JUMPI PUSH2 0x4BC PUSH2 0x33A JUMP JUMPDEST JUMPDEST PUSH0 PUSH2 0x4CA DUP6 DUP3 DUP7 ADD PUSH2 0x493 JUMP JUMPDEST SWAP3 POP POP PUSH1 0x20 PUSH2 0x4DB DUP6 DUP3 DUP7 ADD PUSH2 0x361 JUMP JUMPDEST SWAP2 POP POP SWAP3 POP SWAP3 SWAP1 POP JUMP JUMPDEST PUSH0 PUSH0 REVERT JUMPDEST PUSH0 PUSH0 REVERT JUMPDEST PUSH32 0x4E487B7100000000000000000000000000000000000000000000000000000000 PUSH0 MSTORE PUSH1 0x41 PUSH1 0x4 MSTORE PUSH1 0x24 PUSH0 REVERT JUMPDEST PUSH2 0x523 DUP3 PUSH2 0x3C8 JUMP JUMPDEST DUP2 ADD DUP2 DUP2 LT PUSH8 0xFFFFFFFFFFFFFFFF DUP3 GT OR ISZERO PUSH2 0x542 JUMPI PUSH2 0x541 PUSH2 0x4ED JUMP JUMPDEST JUMPDEST DUP1 PUSH1 0x40 MSTORE POP POP POP JUMP JUMPDEST PUSH0 PUSH2 0x554 PUSH2 0x331 JUMP JUMPDEST SWAP1 POP PUSH2 0x560 DUP3 DUP3 PUSH2 0x51A JUMP JUMPDEST SWAP2 SWAP1 POP JUMP JUMPDEST PUSH0 PUSH8 0xFFFFFFFFFFFFFFFF DUP3 GT ISZERO PUSH2 0x57F JUMPI PUSH2 0x57E PUSH2 0x4ED JUMP JUMPDEST JUMPDEST PUSH2 0x588 DUP3 PUSH2 0x3C8 JUMP JUMPDEST SWAP1 POP PUSH1 0x20 DUP2 ADD SWAP1 POP SWAP2 SWAP1 POP JUMP JUMPDEST DUP3 DUP2 DUP4 CALLDATACOPY PUSH0 DUP4 DUP4 ADD MSTORE POP POP POP JUMP JUMPDEST PUSH0 PUSH2 0x5B5 PUSH2 0x5B0 DUP5 PUSH2 0x565 JUMP JUMPDEST PUSH2 0x54B JUMP JUMPDEST SWAP1 POP DUP3 DUP2 MSTORE PUSH1 0x20 DUP2 ADD DUP5 DUP5 DUP5 ADD GT ISZERO PUSH2 0x5D1 JUMPI PUSH2 0x5D0 PUSH2 0x4E9 JUMP JUMPDEST JUMPDEST PUSH2 0x5DC DUP5 DUP3 DUP6 PUSH2 0x595 JUMP JUMPDEST POP SWAP4 SWAP3 POP POP POP JUMP JUMPDEST PUSH0 DUP3 PUSH1 0x1F DUP4 ADD SLT PUSH2 0x5F8 JUMPI PUSH2 0x5F7 PUSH2 0x4E5 JUMP JUMPDEST JUMPDEST DUP2 CALLDATALOAD PUSH2 0x608 DUP5 DUP3 PUSH1 0x20 DUP7 ADD PUSH2 0x5A3 JUMP JUMPDEST SWAP2 POP POP SWAP3 SWAP2 POP POP JUMP JUMPDEST PUSH0 PUSH1 0x20 DUP3 DUP5 SUB SLT ISZERO PUSH2 0x626 JUMPI PUSH2 0x625 PUSH2 0x33A JUMP JUMPDEST JUMPDEST PUSH0 DUP3 ADD CALLDATALOAD PUSH8 0xFFFFFFFFFFFFFFFF DUP2 GT ISZERO PUSH2 0x643 JUMPI PUSH2 0x642 PUSH2 0x33E JUMP JUMPDEST JUMPDEST PUSH2 0x64F DUP5 DUP3 DUP6 ADD PUSH2 0x5E4 JUMP JUMPDEST SWAP2 POP POP SWAP3 SWAP2 POP POP JUMP JUMPDEST PUSH0 PUSH1 0x20 DUP3 ADD SWAP1 POP PUSH2 0x66B PUSH0 DUP4 ADD DUP5 PUSH2 0x410 JUMP JUMPDEST SWAP3 SWAP2 POP POP JUMP JUMPDEST PUSH0 PUSH1 0x20 DUP3 DUP5 SUB SLT ISZERO PUSH2 0x686 JUMPI PUSH2 0x685 PUSH2 0x33A JUMP JUMPDEST JUMPDEST PUSH0 PUSH2 0x693 DUP5 DUP3 DUP6 ADD PUSH2 0x493 JUMP JUMPDEST SWAP2 POP POP SWAP3 SWAP2 POP POP JUMP JUMPDEST PUSH32 0x4E487B7100000000000000000000000000000000000000000000000000000000 PUSH0 MSTORE PUSH1 0x11 PUSH1 0x4 MSTORE PUSH1 0x24 PUSH0 REVERT JUMPDEST PUSH0 PUSH2 0x6D3 DUP3 PUSH2 0x342 JUMP JUMPDEST SWAP2 POP PUSH2 0x6DE DUP4 PUSH2 0x342 JUMP JUMPDEST SWAP3 POP DUP3 DUP3 ADD SWAP1 POP DUP1 DUP3 GT ISZERO PUSH2 0x6F6 JUMPI PUSH2 0x6F5 PUSH2 0x69C JUMP JUMPDEST JUMPDEST SWAP3 SWAP2 POP POP JUMP JUMPDEST PUSH32 0x4E487B7100000000000000000000000000000000000000000000000000000000 PUSH0 MSTORE PUSH1 0x22 PUSH1 0x4 MSTORE PUSH1 0x24 PUSH0 REVERT JUMPDEST PUSH0 PUSH1 0x2 DUP3 DIV SWAP1 POP PUSH1 0x1 DUP3 AND DUP1 PUSH2 0x740 JUMPI PUSH1 0x7F DUP3 AND SWAP2 POP JUMPDEST PUSH1 0x20 DUP3 LT DUP2 SUB PUSH2 0x753 JUMPI PUSH2 0x752 PUSH2 0x6FC JUMP JUMPDEST JUMPDEST POP SWAP2 SWAP1 POP JUMP JUMPDEST PUSH0 DUP2 SWAP1 POP DUP2 PUSH0 MSTORE PUSH1 0x20 PUSH0 KECCAK256 SWAP1 POP SWAP2 SWAP1 POP JUMP JUMPDEST PUSH0 PUSH1 0x20 PUSH1 0x1F DUP4 ADD DIV SWAP1 POP SWAP2 SWAP1 POP JUMP JUMPDEST PUSH0 DUP3 DUP3 SHL SWAP1 POP SWAP3 SWAP2 POP POP JUMP JUMPDEST PUSH0 PUSH1 0x8 DUP4 MUL PUSH2 0x7B5 PUSH32 0xFFFFFFFFFFFFFFFFFFFFFFFFFFFFFFFFFFFFFFFFFFFFFFFFFFFFFFFFFFFFFFFF DUP3 PUSH2 0x77A JUMP JUMPDEST PUSH2 0x7BF DUP7 DUP4 PUSH2 0x77A JUMP JUMPDEST SWAP6 POP DUP1 NOT DUP5 AND SWAP4 POP DUP1 DUP7 AND DUP5 OR SWAP3 POP POP POP SWAP4 SWAP3 POP POP POP JUMP JUMPDEST PUSH0 DUP2 SWAP1 POP SWAP2 SWAP1 POP JUMP JUMPDEST PUSH0 PUSH2 0x7FA PUSH2 0x7F5 PUSH2 0x7F0 DUP5 PUSH2 0x342 JUMP JUMPDEST PUSH2 0x7D7 JUMP JUMPDEST PUSH2 0x342 JUMP JUMPDEST SWAP1 POP SWAP2 SWAP1 POP JUMP JUMPDEST PUSH0 DUP2 SWAP1 POP SWAP2 SWAP1 POP JUMP JUMPDEST PUSH2 0x813 DUP4 PUSH2 0x7E0 JUMP JUMPDEST PUSH2 0x827 PUSH2 0x81F DUP3 PUSH2 0x801 JUMP JUMPDEST DUP5 DUP5 SLOAD PUSH2 0x786 JUMP JUMPDEST DUP3 SSTORE POP POP POP POP JUMP JUMPDEST PUSH0 PUSH0 SWAP1 POP SWAP1 JUMP JUMPDEST PUSH2 0x83E PUSH2 0x82F JUMP JUMPDEST PUSH2 0x849 DUP2 DUP5 DUP5 PUSH2 0x80A JUMP JUMPDEST POP POP POP JUMP JUMPDEST JUMPDEST DUP2 DUP2 LT ISZERO PUSH2 0x86C JUMPI PUSH2 0x861 PUSH0 DUP3 PUSH2 0x836 JUMP JUMPDEST PUSH1 0x1 DUP2 ADD SWAP1 POP PUSH2 0x84F JUMP JUMPDEST POP POP JUMP JUMPDEST PUSH1 0x1F DUP3 GT ISZERO PUSH2 0x8B1 JUMPI PUSH2 0x882 DUP2 PUSH2 0x759 JUMP JUMPDEST PUSH2 0x88B DUP5 PUSH2 0x76B JUMP JUMPDEST DUP2 ADD PUSH1 0x20 DUP6 LT ISZERO PUSH2 0x89A JUMPI DUP2 SWAP1 POP JUMPDEST PUSH2 0x8AE PUSH2 0x8A6 DUP6 PUSH2 0x76B JUMP JUMPDEST DUP4 ADD DUP3 PUSH2 0x84E JUMP JUMPDEST POP POP JUMPDEST POP POP POP JUMP JUMPDEST PUSH0 DUP3 DUP3 SHR SWAP1 POP SWAP3 SWAP2 POP POP JUMP JUMPDEST PUSH0 PUSH2 0x8D1 PUSH0 NOT DUP5 PUSH1 0x8 MUL PUSH2 0x8B6 JUMP JUMPDEST NOT DUP1 DUP4 AND SWAP2 POP POP SWAP3 SWAP2 POP POP JUMP JUMPDEST PUSH0 PUSH2 0x8E9 DUP4 DUP4 PUSH2 0x8C2 JUMP JUMPDEST SWAP2 POP DUP3 PUSH1 0x2 MUL DUP3 OR SWAP1 POP SWAP3 SWAP2 POP POP JUMP JUMPDEST PUSH2 0x902 DUP3 PUSH2 0x3A0 JUMP JUMPDEST PUSH8 0xFFFFFFFFFFFFFFFF DUP2 GT ISZERO PUSH2 0x91B JUMPI PUSH2 0x91A PUSH2 0x4ED JUMP JUMPDEST JUMPDEST PUSH2 0x925 DUP3 SLOAD PUSH2 0x729 JUMP JUMPDEST PUSH2 0x930 DUP3 DUP3 DUP6 PUSH2 0x870 JUMP JUMPDEST PUSH0 PUSH1 0x20 SWAP1 POP PUSH1 0x1F DUP4 GT PUSH1 0x1 DUP2 EQ PUSH2 0x961 JUMPI PUSH0 DUP5 ISZERO PUSH2 0x94F JUMPI DUP3 DUP8 ADD MLOAD SWAP1 POP JUMPDEST PUSH2 0x959 DUP6 DUP3 PUSH2 0x8DE JUMP JUMPDEST DUP7 SSTORE POP PUSH2 0x9C0 JUMP JUMPDEST PUSH1 0x1F NOT DUP5 AND PUSH2 0x96F DUP7 PUSH2 0x759 JUMP JUMPDEST PUSH0 JUMPDEST DUP3 DUP2 LT ISZERO PUSH2 0x996 JUMPI DUP5 DUP10 ADD MLOAD DUP3 SSTORE PUSH1 0x1 DUP3 ADD SWAP2 POP PUSH1 0x20 DUP6 ADD SWAP5 POP PUSH1 0x20 DUP2 ADD SWAP1 POP PUSH2 0x971 JUMP JUMPDEST DUP7 DUP4 LT ISZERO PUSH2 0x9B3 JUMPI DUP5 DUP10 ADD MLOAD PUSH2 0x9AF PUSH1 0x1F DUP10 AND DUP3 PUSH2 0x8C2 JUMP JUMPDEST DUP4 SSTORE POP JUMPDEST PUSH1 0x1 PUSH1 0x2 DUP9 MUL ADD DUP9 SSTORE POP POP POP JUMPDEST POP POP POP POP POP POP JUMP JUMPDEST PUSH0 PUSH2 0x9D2 DUP3 PUSH2 0x342 JUMP JUMPDEST SWAP2 POP PUSH32 0xFFFFFFFFFFFFFFFFFFFFFFFFFFFFFFFFFFFFFFFFFFFFFFFFFFFFFFFFFFFFFFFF DUP3 SUB PUSH2 0xA04 JUMPI PUSH2 0xA03 PUSH2 0x69C JUMP JUMPDEST JUMPDEST PUSH1 0x1 DUP3 ADD SWAP1 POP SWAP2 SWAP1 POP JUMP INVALID LOG2 PUSH5 0x6970667358 0x22 SLT KECCAK256 0xD0 MULMOD DELEGATECALL EXTSTATICCALL PUSH13 0x159B928A77C8E5653AB758B131 0xD9 0xE SIGNEXTEND ADDMOD SWAP1 PUSH5 0x351851DF07 0xB1 BASEFEE NOT PUSH5 0x736F6C6343 STOP ADDMOD SAR STOP CALLER "
		},
		"gasEstimates": {
			"creation": {
				"codeDepositCost": "525800",
				"executionCost": "560",
				"totalCost": "526360"
			},
			"external": {
				"assignReputation(address,uint256)": "infinite",
				"createProposal(string)": "infinite",
				"proposalCount()": "2513",
				"proposals(uint256)": "infinite",
				"reputation(address)": "2867",
				"vote(uint256)": "infinite"
			}
		},
		"methodIdentifiers": {
			"assignReputation(address,uint256)": "44f8fea1",
			"createProposal(string)": "49c2a1a6",
			"proposalCount()": "da35c664",
			"proposals(uint256)": "013cf08b",
			"reputation(address)": "b9f79451",
			"vote(uint256)": "0121b93f"
		}
	},
	"abi": [
		{
			"inputs": [
				{
					"internalType": "address",
					"name": "user",
					"type": "address"
				},
				{
					"internalType": "uint256",
					"name": "points",
					"type": "uint256"
				}
			],
			"name": "assignReputation",
			"outputs": [],
			"stateMutability": "nonpayable",
			"type": "function"
		},
		{
			"inputs": [
				{
					"internalType": "string",
					"name": "description",
					"type": "string"
				}
			],
			"name": "createProposal",
			"outputs": [
				{
					"internalType": "uint256",
					"name": "",
					"type": "uint256"
				}
			],
			"stateMutability": "nonpayable",
			"type": "function"
		},
		{
			"inputs": [],
			"name": "proposalCount",
			"outputs": [
				{
					"internalType": "uint256",
					"name": "",
					"type": "uint256"
				}
			],
			"stateMutability": "view",
			"type": "function"
		},
		{
			"inputs": [
				{
					"internalType": "uint256",
					"name": "",
					"type": "uint256"
				}
			],
			"name": "proposals",
			"outputs": [
				{
					"internalType": "string",
					"name": "description",
					"type": "string"
				},
				{
					"internalType": "uint256",
					"name": "repVotes",
					"type": "uint256"
				}
			],
			"stateMutability": "view",
			"type": "function"
		},
		{
			"inputs": [
				{
					"internalType": "address",
					"name": "",
					"type": "address"
				}
			],
			"name": "reputation",
			"outputs": [
				{
					"internalType": "uint256",
					"name": "",
					"type": "uint256"
				}
			],
			"stateMutability": "view",
			"type": "function"
		},
		{
			"inputs": [
				{
					"internalType": "uint256",
					"name": "proposalId",
					"type": "uint256"
				}
			],
			"name": "vote",
			"outputs": [],
			"stateMutability": "nonpayable",
			"type": "function"
		}
	]
}