{
	"F/FlashCrashAutoPause.sol": {
		"FlashCrashAutoPause": {
			"abi": [
				{
					"inputs": [
						{
							"internalType": "uint256",
							"name": "_threshold",
							"type": "uint256"
						}
					],
					"stateMutability": "nonpayable",
					"type": "constructor"
				},
				{
					"inputs": [
						{
							"internalType": "address",
							"name": "owner",
							"type": "address"
						}
					],
					"name": "OwnableInvalidOwner",
					"type": "error"
				},
				{
					"inputs": [
						{
							"internalType": "address",
							"name": "account",
							"type": "address"
						}
					],
					"name": "OwnableUnauthorizedAccount",
					"type": "error"
				},
				{
					"anonymous": false,
					"inputs": [
						{
							"indexed": true,
							"internalType": "address",
							"name": "previousOwner",
							"type": "address"
						},
						{
							"indexed": true,
							"internalType": "address",
							"name": "newOwner",
							"type": "address"
						}
					],
					"name": "OwnershipTransferred",
					"type": "event"
				},
				{
					"anonymous": false,
					"inputs": [
						{
							"indexed": false,
							"internalType": "address",
							"name": "account",
							"type": "address"
						}
					],
					"name": "Paused",
					"type": "event"
				},
				{
					"anonymous": false,
					"inputs": [
						{
							"indexed": false,
							"internalType": "address",
							"name": "account",
							"type": "address"
						}
					],
					"name": "Unpaused",
					"type": "event"
				},
				{
					"inputs": [],
					"name": "executeTrade",
					"outputs": [],
					"stateMutability": "nonpayable",
					"type": "function"
				},
				{
					"inputs": [],
					"name": "lastPrice",
					"outputs": [
						{
							"internalType": "uint256",
							"name": "",
							"type": "uint256"
						}
					],
					"stateMutability": "view",
					"type": "function"
				},
				{
					"inputs": [],
					"name": "owner",
					"outputs": [
						{
							"internalType": "address",
							"name": "",
							"type": "address"
						}
					],
					"stateMutability": "view",
					"type": "function"
				},
				{
					"inputs": [],
					"name": "paused",
					"outputs": [
						{
							"internalType": "bool",
							"name": "",
							"type": "bool"
						}
					],
					"stateMutability": "view",
					"type": "function"
				},
				{
					"inputs": [],
					"name": "renounceOwnership",
					"outputs": [],
					"stateMutability": "nonpayable",
					"type": "function"
				},
				{
					"inputs": [
						{
							"internalType": "uint256",
							"name": "price",
							"type": "uint256"
						}
					],
					"name": "reportPrice",
					"outputs": [],
					"stateMutability": "nonpayable",
					"type": "function"
				},
				{
					"inputs": [],
					"name": "threshold",
					"outputs": [
						{
							"internalType": "uint256",
							"name": "",
							"type": "uint256"
						}
					],
					"stateMutability": "view",
					"type": "function"
				},
				{
					"inputs": [
						{
							"internalType": "address",
							"name": "newOwner",
							"type": "address"
						}
					],
					"name": "transferOwnership",
					"outputs": [],
					"stateMutability": "nonpayable",
					"type": "function"
				},
				{
					"inputs": [],
					"name": "unpause",
					"outputs": [],
					"stateMutability": "nonpayable",
					"type": "function"
				}
			],
			"devdoc": {
				"errors": {
					"OwnableInvalidOwner(address)": [
						{
							"details": "The owner is not a valid owner account. (eg. `address(0)`)"
						}
					],
					"OwnableUnauthorizedAccount(address)": [
						{
							"details": "The caller account is not authorized to perform an operation."
						}
					]
				},
				"events": {
					"Paused(address)": {
						"details": "Emitted when the pause is triggered by `account`."
					},
					"Unpaused(address)": {
						"details": "Emitted when the pause is lifted by `account`."
					}
				},
				"kind": "dev",
				"methods": {
					"owner()": {
						"details": "Returns the address of the current owner."
					},
					"paused()": {
						"details": "Returns true if the contract is paused, and false otherwise."
					},
					"renounceOwnership()": {
						"details": "Leaves the contract without owner. It will not be possible to call `onlyOwner` functions. Can only be called by the current owner. NOTE: Renouncing ownership will leave the contract without an owner, thereby disabling any functionality that is only available to the owner."
					},
					"transferOwnership(address)": {
						"details": "Transfers ownership of the contract to a new account (`newOwner`). Can only be called by the current owner."
					}
				},
				"version": 1
			},
			"evm": {
				"assembly": "    /* \"F/FlashCrashAutoPause.sol\":168:939  contract FlashCrashAutoPause is Pausable, Ownable {... */\n  mstore(0x40, 0x80)\n    /* \"F/FlashCrashAutoPause.sol\":285:376  constructor(uint256 _threshold) Ownable(msg.sender) {... */\n  callvalue\n  dup1\n  iszero\n  tag_1\n  jumpi\n  revert(0x00, 0x00)\ntag_1:\n  pop\n  mload(0x40)\n  sub(codesize, bytecodeSize)\n  dup1\n  bytecodeSize\n  dup4\n  codecopy\n  dup2\n  dup2\n  add\n  0x40\n  mstore\n  dup2\n  add\n  swap1\n  tag_2\n  swap2\n  swap1\n  tag_3\n  jump\t// in\ntag_2:\n    /* \"F/FlashCrashAutoPause.sol\":325:335  msg.sender */\n  caller\n    /* \"@openzeppelin/contracts/security/Pausable.sol\":1006:1011  false */\n  0x00\n    /* \"@openzeppelin/contracts/security/Pausable.sol\":996:1003  _paused */\n  0x00\n  0x00\n    /* \"@openzeppelin/contracts/security/Pausable.sol\":996:1011  _paused = false */\n  0x0100\n  exp\n  dup2\n  sload\n  dup2\n  0xff\n  mul\n  not\n  and\n  swap1\n  dup4\n  iszero\n  iszero\n  mul\n  or\n  swap1\n  sstore\n  pop\n    /* \"@openzeppelin/contracts/access/Ownable.sol\":1297:1298  0 */\n  0x00\n    /* \"@openzeppelin/contracts/access/Ownable.sol\":1273:1299  initialOwner == address(0) */\n  0xffffffffffffffffffffffffffffffffffffffff\n  and\n    /* \"@openzeppelin/contracts/access/Ownable.sol\":1273:1285  initialOwner */\n  dup2\n    /* \"@openzeppelin/contracts/access/Ownable.sol\":1273:1299  initialOwner == address(0) */\n  0xffffffffffffffffffffffffffffffffffffffff\n  and\n  sub\n    /* \"@openzeppelin/contracts/access/Ownable.sol\":1269:1364  if (initialOwner == address(0)) {... */\n  tag_9\n  jumpi\n    /* \"@openzeppelin/contracts/access/Ownable.sol\":1350:1351  0 */\n  0x00\n    /* \"@openzeppelin/contracts/access/Ownable.sol\":1322:1353  OwnableInvalidOwner(address(0)) */\n  mload(0x40)\n  0x1e4fbdf700000000000000000000000000000000000000000000000000000000\n  dup2\n  mstore\n  0x04\n  add\n  tag_10\n  swap2\n  swap1\n  tag_11\n  jump\t// in\ntag_10:\n  mload(0x40)\n  dup1\n  swap2\n  sub\n  swap1\n  revert\n    /* \"@openzeppelin/contracts/access/Ownable.sol\":1269:1364  if (initialOwner == address(0)) {... */\ntag_9:\n    /* \"@openzeppelin/contracts/access/Ownable.sol\":1373:1405  _transferOwnership(initialOwner) */\n  tag_12\n    /* \"@openzeppelin/contracts/access/Ownable.sol\":1392:1404  initialOwner */\n  dup2\n    /* \"@openzeppelin/contracts/access/Ownable.sol\":1373:1391  _transferOwnership */\n  shl(0x20, tag_13)\n    /* \"@openzeppelin/contracts/access/Ownable.sol\":1373:1405  _transferOwnership(initialOwner) */\n  0x20\n  shr\n  jump\t// in\ntag_12:\n    /* \"@openzeppelin/contracts/access/Ownable.sol\":1225:1412  constructor(address initialOwner) {... */\n  pop\n    /* \"F/FlashCrashAutoPause.sol\":359:369  _threshold */\n  dup1\n    /* \"F/FlashCrashAutoPause.sol\":347:356  threshold */\n  0x02\n    /* \"F/FlashCrashAutoPause.sol\":347:369  threshold = _threshold */\n  dup2\n  swap1\n  sstore\n  pop\n    /* \"F/FlashCrashAutoPause.sol\":285:376  constructor(uint256 _threshold) Ownable(msg.sender) {... */\n  pop\n    /* \"F/FlashCrashAutoPause.sol\":168:939  contract FlashCrashAutoPause is Pausable, Ownable {... */\n  jump(tag_15)\n    /* \"@openzeppelin/contracts/access/Ownable.sol\":2912:3099  function _transferOwnership(address newOwner) internal virtual {... */\ntag_13:\n    /* \"@openzeppelin/contracts/access/Ownable.sol\":2985:3001  address oldOwner */\n  0x00\n    /* \"@openzeppelin/contracts/access/Ownable.sol\":3004:3010  _owner */\n  0x00\n  0x01\n  swap1\n  sload\n  swap1\n  0x0100\n  exp\n  swap1\n  div\n  0xffffffffffffffffffffffffffffffffffffffff\n  and\n    /* \"@openzeppelin/contracts/access/Ownable.sol\":2985:3010  address oldOwner = _owner */\n  swap1\n  pop\n    /* \"@openzeppelin/contracts/access/Ownable.sol\":3029:3037  newOwner */\n  dup2\n    /* \"@openzeppelin/contracts/access/Ownable.sol\":3020:3026  _owner */\n  0x00\n  0x01\n    /* \"@openzeppelin/contracts/access/Ownable.sol\":3020:3037  _owner = newOwner */\n  0x0100\n  exp\n  dup2\n  sload\n  dup2\n  0xffffffffffffffffffffffffffffffffffffffff\n  mul\n  not\n  and\n  swap1\n  dup4\n  0xffffffffffffffffffffffffffffffffffffffff\n  and\n  mul\n  or\n  swap1\n  sstore\n  pop\n    /* \"@openzeppelin/contracts/access/Ownable.sol\":3083:3091  newOwner */\n  dup2\n    /* \"@openzeppelin/contracts/access/Ownable.sol\":3052:3092  OwnershipTransferred(oldOwner, newOwner) */\n  0xffffffffffffffffffffffffffffffffffffffff\n  and\n    /* \"@openzeppelin/contracts/access/Ownable.sol\":3073:3081  oldOwner */\n  dup2\n    /* \"@openzeppelin/contracts/access/Ownable.sol\":3052:3092  OwnershipTransferred(oldOwner, newOwner) */\n  0xffffffffffffffffffffffffffffffffffffffff\n  and\n  0x8be0079c531659141344cd1fd0a4f28419497f9722a3daafe3b4186f6b6457e0\n  mload(0x40)\n  mload(0x40)\n  dup1\n  swap2\n  sub\n  swap1\n  log3\n    /* \"@openzeppelin/contracts/access/Ownable.sol\":2975:3099  {... */\n  pop\n    /* \"@openzeppelin/contracts/access/Ownable.sol\":2912:3099  function _transferOwnership(address newOwner) internal virtual {... */\n  pop\n  jump\t// out\n    /* \"#utility.yul\":88:205   */\ntag_18:\n    /* \"#utility.yul\":197:198   */\n  0x00\n    /* \"#utility.yul\":194:195   */\n  0x00\n    /* \"#utility.yul\":187:199   */\n  revert\n    /* \"#utility.yul\":334:411   */\ntag_20:\n    /* \"#utility.yul\":371:378   */\n  0x00\n    /* \"#utility.yul\":400:405   */\n  dup2\n    /* \"#utility.yul\":389:405   */\n  swap1\n  pop\n    /* \"#utility.yul\":334:411   */\n  swap2\n  swap1\n  pop\n  jump\t// out\n    /* \"#utility.yul\":417:539   */\ntag_21:\n    /* \"#utility.yul\":490:514   */\n  tag_32\n    /* \"#utility.yul\":508:513   */\n  dup2\n    /* \"#utility.yul\":490:514   */\n  tag_20\n  jump\t// in\ntag_32:\n    /* \"#utility.yul\":483:488   */\n  dup2\n    /* \"#utility.yul\":480:515   */\n  eq\n    /* \"#utility.yul\":470:533   */\n  tag_33\n  jumpi\n    /* \"#utility.yul\":529:530   */\n  0x00\n    /* \"#utility.yul\":526:527   */\n  0x00\n    /* \"#utility.yul\":519:531   */\n  revert\n    /* \"#utility.yul\":470:533   */\ntag_33:\n    /* \"#utility.yul\":417:539   */\n  pop\n  jump\t// out\n    /* \"#utility.yul\":545:688   */\ntag_22:\n    /* \"#utility.yul\":602:607   */\n  0x00\n    /* \"#utility.yul\":633:639   */\n  dup2\n    /* \"#utility.yul\":627:640   */\n  mload\n    /* \"#utility.yul\":618:640   */\n  swap1\n  pop\n    /* \"#utility.yul\":649:682   */\n  tag_35\n    /* \"#utility.yul\":676:681   */\n  dup2\n    /* \"#utility.yul\":649:682   */\n  tag_21\n  jump\t// in\ntag_35:\n    /* \"#utility.yul\":545:688   */\n  swap3\n  swap2\n  pop\n  pop\n  jump\t// out\n    /* \"#utility.yul\":694:1045   */\ntag_3:\n    /* \"#utility.yul\":764:770   */\n  0x00\n    /* \"#utility.yul\":813:815   */\n  0x20\n    /* \"#utility.yul\":801:810   */\n  dup3\n    /* \"#utility.yul\":792:799   */\n  dup5\n    /* \"#utility.yul\":788:811   */\n  sub\n    /* \"#utility.yul\":784:816   */\n  slt\n    /* \"#utility.yul\":781:900   */\n  iszero\n  tag_37\n  jumpi\n    /* \"#utility.yul\":819:898   */\n  tag_38\n  tag_18\n  jump\t// in\ntag_38:\n    /* \"#utility.yul\":781:900   */\ntag_37:\n    /* \"#utility.yul\":939:940   */\n  0x00\n    /* \"#utility.yul\":964:1028   */\n  tag_39\n    /* \"#utility.yul\":1020:1027   */\n  dup5\n    /* \"#utility.yul\":1011:1017   */\n  dup3\n    /* \"#utility.yul\":1000:1009   */\n  dup6\n    /* \"#utility.yul\":996:1018   */\n  add\n    /* \"#utility.yul\":964:1028   */\n  tag_22\n  jump\t// in\ntag_39:\n    /* \"#utility.yul\":954:1028   */\n  swap2\n  pop\n    /* \"#utility.yul\":910:1038   */\n  pop\n    /* \"#utility.yul\":694:1045   */\n  swap3\n  swap2\n  pop\n  pop\n  jump\t// out\n    /* \"#utility.yul\":1051:1177   */\ntag_23:\n    /* \"#utility.yul\":1088:1095   */\n  0x00\n    /* \"#utility.yul\":1128:1170   */\n  0xffffffffffffffffffffffffffffffffffffffff\n    /* \"#utility.yul\":1121:1126   */\n  dup3\n    /* \"#utility.yul\":1117:1171   */\n  and\n    /* \"#utility.yul\":1106:1171   */\n  swap1\n  pop\n    /* \"#utility.yul\":1051:1177   */\n  swap2\n  swap1\n  pop\n  jump\t// out\n    /* \"#utility.yul\":1183:1279   */\ntag_24:\n    /* \"#utility.yul\":1220:1227   */\n  0x00\n    /* \"#utility.yul\":1249:1273   */\n  tag_42\n    /* \"#utility.yul\":1267:1272   */\n  dup3\n    /* \"#utility.yul\":1249:1273   */\n  tag_23\n  jump\t// in\ntag_42:\n    /* \"#utility.yul\":1238:1273   */\n  swap1\n  pop\n    /* \"#utility.yul\":1183:1279   */\n  swap2\n  swap1\n  pop\n  jump\t// out\n    /* \"#utility.yul\":1285:1403   */\ntag_25:\n    /* \"#utility.yul\":1372:1396   */\n  tag_44\n    /* \"#utility.yul\":1390:1395   */\n  dup2\n    /* \"#utility.yul\":1372:1396   */\n  tag_24\n  jump\t// in\ntag_44:\n    /* \"#utility.yul\":1367:1370   */\n  dup3\n    /* \"#utility.yul\":1360:1397   */\n  mstore\n    /* \"#utility.yul\":1285:1403   */\n  pop\n  pop\n  jump\t// out\n    /* \"#utility.yul\":1409:1631   */\ntag_11:\n    /* \"#utility.yul\":1502:1506   */\n  0x00\n    /* \"#utility.yul\":1540:1542   */\n  0x20\n    /* \"#utility.yul\":1529:1538   */\n  dup3\n    /* \"#utility.yul\":1525:1543   */\n  add\n    /* \"#utility.yul\":1517:1543   */\n  swap1\n  pop\n    /* \"#utility.yul\":1553:1624   */\n  tag_46\n    /* \"#utility.yul\":1621:1622   */\n  0x00\n    /* \"#utility.yul\":1610:1619   */\n  dup4\n    /* \"#utility.yul\":1606:1623   */\n  add\n    /* \"#utility.yul\":1597:1603   */\n  dup5\n    /* \"#utility.yul\":1553:1624   */\n  tag_25\n  jump\t// in\ntag_46:\n    /* \"#utility.yul\":1409:1631   */\n  swap3\n  swap2\n  pop\n  pop\n  jump\t// out\n    /* \"F/FlashCrashAutoPause.sol\":168:939  contract FlashCrashAutoPause is Pausable, Ownable {... */\ntag_15:\n  dataSize(sub_0)\n  dup1\n  dataOffset(sub_0)\n  0x00\n  codecopy\n  0x00\n  return\nstop\n\nsub_0: assembly {\n        /* \"F/FlashCrashAutoPause.sol\":168:939  contract FlashCrashAutoPause is Pausable, Ownable {... */\n      mstore(0x40, 0x80)\n      callvalue\n      dup1\n      iszero\n      tag_1\n      jumpi\n      revert(0x00, 0x00)\n    tag_1:\n      pop\n      jumpi(tag_2, lt(calldatasize, 0x04))\n      shr(0xe0, calldataload(0x00))\n      dup1\n      0x715018a6\n      gt\n      tag_12\n      jumpi\n      dup1\n      0x715018a6\n      eq\n      tag_7\n      jumpi\n      dup1\n      0x8da5cb5b\n      eq\n      tag_8\n      jumpi\n      dup1\n      0xc7f898f0\n      eq\n      tag_9\n      jumpi\n      dup1\n      0xe0c70b66\n      eq\n      tag_10\n      jumpi\n      dup1\n      0xf2fde38b\n      eq\n      tag_11\n      jumpi\n      jump(tag_2)\n    tag_12:\n      dup1\n      0x053f14da\n      eq\n      tag_3\n      jumpi\n      dup1\n      0x3f4ba83a\n      eq\n      tag_4\n      jumpi\n      dup1\n      0x42cde4e8\n      eq\n      tag_5\n      jumpi\n      dup1\n      0x5c975abb\n      eq\n      tag_6\n      jumpi\n    tag_2:\n      revert(0x00, 0x00)\n        /* \"F/FlashCrashAutoPause.sol\":224:248  uint256 public lastPrice */\n    tag_3:\n      tag_13\n      tag_14\n      jump\t// in\n    tag_13:\n      mload(0x40)\n      tag_15\n      swap2\n      swap1\n      tag_16\n      jump\t// in\n    tag_15:\n      mload(0x40)\n      dup1\n      swap2\n      sub\n      swap1\n      return\n        /* \"F/FlashCrashAutoPause.sol\":872:937  function unpause() external onlyOwner {... */\n    tag_4:\n      tag_17\n      tag_18\n      jump\t// in\n    tag_17:\n      stop\n        /* \"F/FlashCrashAutoPause.sol\":254:278  uint256 public threshold */\n    tag_5:\n      tag_19\n      tag_20\n      jump\t// in\n    tag_19:\n      mload(0x40)\n      tag_21\n      swap2\n      swap1\n      tag_16\n      jump\t// in\n    tag_21:\n      mload(0x40)\n      dup1\n      swap2\n      sub\n      swap1\n      return\n        /* \"@openzeppelin/contracts/security/Pausable.sol\":1615:1699  function paused() public view virtual returns (bool) {... */\n    tag_6:\n      tag_22\n      tag_23\n      jump\t// in\n    tag_22:\n      mload(0x40)\n      tag_24\n      swap2\n      swap1\n      tag_25\n      jump\t// in\n    tag_24:\n      mload(0x40)\n      dup1\n      swap2\n      sub\n      swap1\n      return\n        /* \"@openzeppelin/contracts/access/Ownable.sol\":2293:2394  function renounceOwnership() public virtual onlyOwner {... */\n    tag_7:\n      tag_26\n      tag_27\n      jump\t// in\n    tag_26:\n      stop\n        /* \"@openzeppelin/contracts/access/Ownable.sol\":1638:1723  function owner() public view virtual returns (address) {... */\n    tag_8:\n      tag_28\n      tag_29\n      jump\t// in\n    tag_28:\n      mload(0x40)\n      tag_30\n      swap2\n      swap1\n      tag_31\n      jump\t// in\n    tag_30:\n      mload(0x40)\n      dup1\n      swap2\n      sub\n      swap1\n      return\n        /* \"F/FlashCrashAutoPause.sol\":382:771  function reportPrice(uint256 price) external onlyOwner {... */\n    tag_9:\n      tag_32\n      0x04\n      dup1\n      calldatasize\n      sub\n      dup2\n      add\n      swap1\n      tag_33\n      swap2\n      swap1\n      tag_34\n      jump\t// in\n    tag_33:\n      tag_35\n      jump\t// in\n    tag_32:\n      stop\n        /* \"F/FlashCrashAutoPause.sol\":777:866  function executeTrade() external whenNotPaused {... */\n    tag_10:\n      tag_36\n      tag_37\n      jump\t// in\n    tag_36:\n      stop\n        /* \"@openzeppelin/contracts/access/Ownable.sol\":2543:2758  function transferOwnership(address newOwner) public virtual onlyOwner {... */\n    tag_11:\n      tag_38\n      0x04\n      dup1\n      calldatasize\n      sub\n      dup2\n      add\n      swap1\n      tag_39\n      swap2\n      swap1\n      tag_40\n      jump\t// in\n    tag_39:\n      tag_41\n      jump\t// in\n    tag_38:\n      stop\n        /* \"F/FlashCrashAutoPause.sol\":224:248  uint256 public lastPrice */\n    tag_14:\n      sload(0x01)\n      dup2\n      jump\t// out\n        /* \"F/FlashCrashAutoPause.sol\":872:937  function unpause() external onlyOwner {... */\n    tag_18:\n        /* \"@openzeppelin/contracts/access/Ownable.sol\":1531:1544  _checkOwner() */\n      tag_43\n        /* \"@openzeppelin/contracts/access/Ownable.sol\":1531:1542  _checkOwner */\n      tag_44\n        /* \"@openzeppelin/contracts/access/Ownable.sol\":1531:1544  _checkOwner() */\n      jump\t// in\n    tag_43:\n        /* \"F/FlashCrashAutoPause.sol\":920:930  _unpause() */\n      tag_46\n        /* \"F/FlashCrashAutoPause.sol\":920:928  _unpause */\n      tag_47\n        /* \"F/FlashCrashAutoPause.sol\":920:930  _unpause() */\n      jump\t// in\n    tag_46:\n        /* \"F/FlashCrashAutoPause.sol\":872:937  function unpause() external onlyOwner {... */\n      jump\t// out\n        /* \"F/FlashCrashAutoPause.sol\":254:278  uint256 public threshold */\n    tag_20:\n      sload(0x02)\n      dup2\n      jump\t// out\n        /* \"@openzeppelin/contracts/security/Pausable.sol\":1615:1699  function paused() public view virtual returns (bool) {... */\n    tag_23:\n        /* \"@openzeppelin/contracts/security/Pausable.sol\":1662:1666  bool */\n      0x00\n        /* \"@openzeppelin/contracts/security/Pausable.sol\":1685:1692  _paused */\n      0x00\n      0x00\n      swap1\n      sload\n      swap1\n      0x0100\n      exp\n      swap1\n      div\n      0xff\n      and\n        /* \"@openzeppelin/contracts/security/Pausable.sol\":1678:1692  return _paused */\n      swap1\n      pop\n        /* \"@openzeppelin/contracts/security/Pausable.sol\":1615:1699  function paused() public view virtual returns (bool) {... */\n      swap1\n      jump\t// out\n        /* \"@openzeppelin/contracts/access/Ownable.sol\":2293:2394  function renounceOwnership() public virtual onlyOwner {... */\n    tag_27:\n        /* \"@openzeppelin/contracts/access/Ownable.sol\":1531:1544  _checkOwner() */\n      tag_50\n        /* \"@openzeppelin/contracts/access/Ownable.sol\":1531:1542  _checkOwner */\n      tag_44\n        /* \"@openzeppelin/contracts/access/Ownable.sol\":1531:1544  _checkOwner() */\n      jump\t// in\n    tag_50:\n        /* \"@openzeppelin/contracts/access/Ownable.sol\":2357:2387  _transferOwnership(address(0)) */\n      tag_52\n        /* \"@openzeppelin/contracts/access/Ownable.sol\":2384:2385  0 */\n      0x00\n        /* \"@openzeppelin/contracts/access/Ownable.sol\":2357:2375  _transferOwnership */\n      tag_53\n        /* \"@openzeppelin/contracts/access/Ownable.sol\":2357:2387  _transferOwnership(address(0)) */\n      jump\t// in\n    tag_52:\n        /* \"@openzeppelin/contracts/access/Ownable.sol\":2293:2394  function renounceOwnership() public virtual onlyOwner {... */\n      jump\t// out\n        /* \"@openzeppelin/contracts/access/Ownable.sol\":1638:1723  function owner() public view virtual returns (address) {... */\n    tag_29:\n        /* \"@openzeppelin/contracts/access/Ownable.sol\":1684:1691  address */\n      0x00\n        /* \"@openzeppelin/contracts/access/Ownable.sol\":1710:1716  _owner */\n      0x00\n      0x01\n      swap1\n      sload\n      swap1\n      0x0100\n      exp\n      swap1\n      div\n      0xffffffffffffffffffffffffffffffffffffffff\n      and\n        /* \"@openzeppelin/contracts/access/Ownable.sol\":1703:1716  return _owner */\n      swap1\n      pop\n        /* \"@openzeppelin/contracts/access/Ownable.sol\":1638:1723  function owner() public view virtual returns (address) {... */\n      swap1\n      jump\t// out\n        /* \"F/FlashCrashAutoPause.sol\":382:771  function reportPrice(uint256 price) external onlyOwner {... */\n    tag_35:\n        /* \"@openzeppelin/contracts/access/Ownable.sol\":1531:1544  _checkOwner() */\n      tag_56\n        /* \"@openzeppelin/contracts/access/Ownable.sol\":1531:1542  _checkOwner */\n      tag_44\n        /* \"@openzeppelin/contracts/access/Ownable.sol\":1531:1544  _checkOwner() */\n      jump\t// in\n    tag_56:\n        /* \"F/FlashCrashAutoPause.sol\":463:464  0 */\n      0x00\n        /* \"F/FlashCrashAutoPause.sol\":455:460  price */\n      dup2\n        /* \"F/FlashCrashAutoPause.sol\":455:464  price > 0 */\n      gt\n        /* \"F/FlashCrashAutoPause.sol\":447:482  require(price > 0, \"Invalid price\") */\n      tag_58\n      jumpi\n      mload(0x40)\n      0x08c379a000000000000000000000000000000000000000000000000000000000\n      dup2\n      mstore\n      0x04\n      add\n      tag_59\n      swap1\n      tag_60\n      jump\t// in\n    tag_59:\n      mload(0x40)\n      dup1\n      swap2\n      sub\n      swap1\n      revert\n    tag_58:\n        /* \"F/FlashCrashAutoPause.sol\":509:510  0 */\n      0x00\n        /* \"F/FlashCrashAutoPause.sol\":497:506  lastPrice */\n      sload(0x01)\n        /* \"F/FlashCrashAutoPause.sol\":497:510  lastPrice > 0 */\n      gt\n        /* \"F/FlashCrashAutoPause.sol\":493:737  if (lastPrice > 0) {... */\n      iszero\n      tag_61\n      jumpi\n        /* \"F/FlashCrashAutoPause.sol\":526:538  uint256 drop */\n      0x00\n        /* \"F/FlashCrashAutoPause.sol\":553:558  price */\n      dup2\n        /* \"F/FlashCrashAutoPause.sol\":541:550  lastPrice */\n      sload(0x01)\n        /* \"F/FlashCrashAutoPause.sol\":541:558  lastPrice > price */\n      gt\n        /* \"F/FlashCrashAutoPause.sol\":541:582  lastPrice > price ? lastPrice - price : 0 */\n      tag_62\n      jumpi\n        /* \"F/FlashCrashAutoPause.sol\":581:582  0 */\n      0x00\n        /* \"F/FlashCrashAutoPause.sol\":541:582  lastPrice > price ? lastPrice - price : 0 */\n      jump(tag_63)\n    tag_62:\n        /* \"F/FlashCrashAutoPause.sol\":573:578  price */\n      dup2\n        /* \"F/FlashCrashAutoPause.sol\":561:570  lastPrice */\n      sload(0x01)\n        /* \"F/FlashCrashAutoPause.sol\":561:578  lastPrice - price */\n      tag_64\n      swap2\n      swap1\n      tag_65\n      jump\t// in\n    tag_64:\n        /* \"F/FlashCrashAutoPause.sol\":541:582  lastPrice > price ? lastPrice - price : 0 */\n    tag_63:\n        /* \"F/FlashCrashAutoPause.sol\":526:582  uint256 drop = lastPrice > price ? lastPrice - price : 0 */\n      swap1\n      pop\n        /* \"F/FlashCrashAutoPause.sol\":596:615  uint256 dropPercent */\n      0x00\n        /* \"F/FlashCrashAutoPause.sol\":633:642  lastPrice */\n      sload(0x01)\n        /* \"F/FlashCrashAutoPause.sol\":626:629  100 */\n      0x64\n        /* \"F/FlashCrashAutoPause.sol\":619:623  drop */\n      dup4\n        /* \"F/FlashCrashAutoPause.sol\":619:629  drop * 100 */\n      tag_66\n      swap2\n      swap1\n      tag_67\n      jump\t// in\n    tag_66:\n        /* \"F/FlashCrashAutoPause.sol\":618:642  (drop * 100) / lastPrice */\n      tag_68\n      swap2\n      swap1\n      tag_69\n      jump\t// in\n    tag_68:\n        /* \"F/FlashCrashAutoPause.sol\":596:642  uint256 dropPercent = (drop * 100) / lastPrice */\n      swap1\n      pop\n        /* \"F/FlashCrashAutoPause.sol\":675:684  threshold */\n      sload(0x02)\n        /* \"F/FlashCrashAutoPause.sol\":660:671  dropPercent */\n      dup2\n        /* \"F/FlashCrashAutoPause.sol\":660:684  dropPercent >= threshold */\n      lt\n        /* \"F/FlashCrashAutoPause.sol\":656:727  if (dropPercent >= threshold) {... */\n      tag_70\n      jumpi\n        /* \"F/FlashCrashAutoPause.sol\":704:712  _pause() */\n      tag_71\n        /* \"F/FlashCrashAutoPause.sol\":704:710  _pause */\n      tag_72\n        /* \"F/FlashCrashAutoPause.sol\":704:712  _pause() */\n      jump\t// in\n    tag_71:\n        /* \"F/FlashCrashAutoPause.sol\":656:727  if (dropPercent >= threshold) {... */\n    tag_70:\n        /* \"F/FlashCrashAutoPause.sol\":512:737  {... */\n      pop\n      pop\n        /* \"F/FlashCrashAutoPause.sol\":493:737  if (lastPrice > 0) {... */\n    tag_61:\n        /* \"F/FlashCrashAutoPause.sol\":759:764  price */\n      dup1\n        /* \"F/FlashCrashAutoPause.sol\":747:756  lastPrice */\n      0x01\n        /* \"F/FlashCrashAutoPause.sol\":747:764  lastPrice = price */\n      dup2\n      swap1\n      sstore\n      pop\n        /* \"F/FlashCrashAutoPause.sol\":382:771  function reportPrice(uint256 price) external onlyOwner {... */\n      pop\n      jump\t// out\n        /* \"F/FlashCrashAutoPause.sol\":777:866  function executeTrade() external whenNotPaused {... */\n    tag_37:\n        /* \"@openzeppelin/contracts/security/Pausable.sol\":1239:1258  _requireNotPaused() */\n      tag_74\n        /* \"@openzeppelin/contracts/security/Pausable.sol\":1239:1256  _requireNotPaused */\n      tag_75\n        /* \"@openzeppelin/contracts/security/Pausable.sol\":1239:1258  _requireNotPaused() */\n      jump\t// in\n    tag_74:\n        /* \"F/FlashCrashAutoPause.sol\":777:866  function executeTrade() external whenNotPaused {... */\n      jump\t// out\n        /* \"@openzeppelin/contracts/access/Ownable.sol\":2543:2758  function transferOwnership(address newOwner) public virtual onlyOwner {... */\n    tag_41:\n        /* \"@openzeppelin/contracts/access/Ownable.sol\":1531:1544  _checkOwner() */\n      tag_78\n        /* \"@openzeppelin/contracts/access/Ownable.sol\":1531:1542  _checkOwner */\n      tag_44\n        /* \"@openzeppelin/contracts/access/Ownable.sol\":1531:1544  _checkOwner() */\n      jump\t// in\n    tag_78:\n        /* \"@openzeppelin/contracts/access/Ownable.sol\":2647:2648  0 */\n      0x00\n        /* \"@openzeppelin/contracts/access/Ownable.sol\":2627:2649  newOwner == address(0) */\n      0xffffffffffffffffffffffffffffffffffffffff\n      and\n        /* \"@openzeppelin/contracts/access/Ownable.sol\":2627:2635  newOwner */\n      dup2\n        /* \"@openzeppelin/contracts/access/Ownable.sol\":2627:2649  newOwner == address(0) */\n      0xffffffffffffffffffffffffffffffffffffffff\n      and\n      sub\n        /* \"@openzeppelin/contracts/access/Ownable.sol\":2623:2714  if (newOwner == address(0)) {... */\n      tag_80\n      jumpi\n        /* \"@openzeppelin/contracts/access/Ownable.sol\":2700:2701  0 */\n      0x00\n        /* \"@openzeppelin/contracts/access/Ownable.sol\":2672:2703  OwnableInvalidOwner(address(0)) */\n      mload(0x40)\n      0x1e4fbdf700000000000000000000000000000000000000000000000000000000\n      dup2\n      mstore\n      0x04\n      add\n      tag_81\n      swap2\n      swap1\n      tag_31\n      jump\t// in\n    tag_81:\n      mload(0x40)\n      dup1\n      swap2\n      sub\n      swap1\n      revert\n        /* \"@openzeppelin/contracts/access/Ownable.sol\":2623:2714  if (newOwner == address(0)) {... */\n    tag_80:\n        /* \"@openzeppelin/contracts/access/Ownable.sol\":2723:2751  _transferOwnership(newOwner) */\n      tag_82\n        /* \"@openzeppelin/contracts/access/Ownable.sol\":2742:2750  newOwner */\n      dup2\n        /* \"@openzeppelin/contracts/access/Ownable.sol\":2723:2741  _transferOwnership */\n      tag_53\n        /* \"@openzeppelin/contracts/access/Ownable.sol\":2723:2751  _transferOwnership(newOwner) */\n      jump\t// in\n    tag_82:\n        /* \"@openzeppelin/contracts/access/Ownable.sol\":2543:2758  function transferOwnership(address newOwner) public virtual onlyOwner {... */\n      pop\n      jump\t// out\n        /* \"@openzeppelin/contracts/access/Ownable.sol\":1796:1958  function _checkOwner() internal view virtual {... */\n    tag_44:\n        /* \"@openzeppelin/contracts/access/Ownable.sol\":1866:1878  _msgSender() */\n      tag_84\n        /* \"@openzeppelin/contracts/access/Ownable.sol\":1866:1876  _msgSender */\n      tag_85\n        /* \"@openzeppelin/contracts/access/Ownable.sol\":1866:1878  _msgSender() */\n      jump\t// in\n    tag_84:\n        /* \"@openzeppelin/contracts/access/Ownable.sol\":1855:1878  owner() != _msgSender() */\n      0xffffffffffffffffffffffffffffffffffffffff\n      and\n        /* \"@openzeppelin/contracts/access/Ownable.sol\":1855:1862  owner() */\n      tag_86\n        /* \"@openzeppelin/contracts/access/Ownable.sol\":1855:1860  owner */\n      tag_29\n        /* \"@openzeppelin/contracts/access/Ownable.sol\":1855:1862  owner() */\n      jump\t// in\n    tag_86:\n        /* \"@openzeppelin/contracts/access/Ownable.sol\":1855:1878  owner() != _msgSender() */\n      0xffffffffffffffffffffffffffffffffffffffff\n      and\n      eq\n        /* \"@openzeppelin/contracts/access/Ownable.sol\":1851:1952  if (owner() != _msgSender()) {... */\n      tag_87\n      jumpi\n        /* \"@openzeppelin/contracts/access/Ownable.sol\":1928:1940  _msgSender() */\n      tag_88\n        /* \"@openzeppelin/contracts/access/Ownable.sol\":1928:1938  _msgSender */\n      tag_85\n        /* \"@openzeppelin/contracts/access/Ownable.sol\":1928:1940  _msgSender() */\n      jump\t// in\n    tag_88:\n        /* \"@openzeppelin/contracts/access/Ownable.sol\":1901:1941  OwnableUnauthorizedAccount(_msgSender()) */\n      mload(0x40)\n      0x118cdaa700000000000000000000000000000000000000000000000000000000\n      dup2\n      mstore\n      0x04\n      add\n      tag_89\n      swap2\n      swap1\n      tag_31\n      jump\t// in\n    tag_89:\n      mload(0x40)\n      dup1\n      swap2\n      sub\n      swap1\n      revert\n        /* \"@openzeppelin/contracts/access/Ownable.sol\":1851:1952  if (owner() != _msgSender()) {... */\n    tag_87:\n        /* \"@openzeppelin/contracts/access/Ownable.sol\":1796:1958  function _checkOwner() internal view virtual {... */\n      jump\t// out\n        /* \"@openzeppelin/contracts/security/Pausable.sol\":2433:2550  function _unpause() internal virtual whenPaused {... */\n    tag_47:\n        /* \"@openzeppelin/contracts/security/Pausable.sol\":1486:1502  _requirePaused() */\n      tag_91\n        /* \"@openzeppelin/contracts/security/Pausable.sol\":1486:1500  _requirePaused */\n      tag_92\n        /* \"@openzeppelin/contracts/security/Pausable.sol\":1486:1502  _requirePaused() */\n      jump\t// in\n    tag_91:\n        /* \"@openzeppelin/contracts/security/Pausable.sol\":2501:2506  false */\n      0x00\n        /* \"@openzeppelin/contracts/security/Pausable.sol\":2491:2498  _paused */\n      0x00\n      0x00\n        /* \"@openzeppelin/contracts/security/Pausable.sol\":2491:2506  _paused = false */\n      0x0100\n      exp\n      dup2\n      sload\n      dup2\n      0xff\n      mul\n      not\n      and\n      swap1\n      dup4\n      iszero\n      iszero\n      mul\n      or\n      swap1\n      sstore\n      pop\n        /* \"@openzeppelin/contracts/security/Pausable.sol\":2521:2543  Unpaused(_msgSender()) */\n      0x5db9ee0a495bf2e6ff9c91a7834c1ba4fdd244a5e8aa4e537bd38aeae4b073aa\n        /* \"@openzeppelin/contracts/security/Pausable.sol\":2530:2542  _msgSender() */\n      tag_94\n        /* \"@openzeppelin/contracts/security/Pausable.sol\":2530:2540  _msgSender */\n      tag_85\n        /* \"@openzeppelin/contracts/security/Pausable.sol\":2530:2542  _msgSender() */\n      jump\t// in\n    tag_94:\n        /* \"@openzeppelin/contracts/security/Pausable.sol\":2521:2543  Unpaused(_msgSender()) */\n      mload(0x40)\n      tag_95\n      swap2\n      swap1\n      tag_31\n      jump\t// in\n    tag_95:\n      mload(0x40)\n      dup1\n      swap2\n      sub\n      swap1\n      log1\n        /* \"@openzeppelin/contracts/security/Pausable.sol\":2433:2550  function _unpause() internal virtual whenPaused {... */\n      jump\t// out\n        /* \"@openzeppelin/contracts/access/Ownable.sol\":2912:3099  function _transferOwnership(address newOwner) internal virtual {... */\n    tag_53:\n        /* \"@openzeppelin/contracts/access/Ownable.sol\":2985:3001  address oldOwner */\n      0x00\n        /* \"@openzeppelin/contracts/access/Ownable.sol\":3004:3010  _owner */\n      0x00\n      0x01\n      swap1\n      sload\n      swap1\n      0x0100\n      exp\n      swap1\n      div\n      0xffffffffffffffffffffffffffffffffffffffff\n      and\n        /* \"@openzeppelin/contracts/access/Ownable.sol\":2985:3010  address oldOwner = _owner */\n      swap1\n      pop\n        /* \"@openzeppelin/contracts/access/Ownable.sol\":3029:3037  newOwner */\n      dup2\n        /* \"@openzeppelin/contracts/access/Ownable.sol\":3020:3026  _owner */\n      0x00\n      0x01\n        /* \"@openzeppelin/contracts/access/Ownable.sol\":3020:3037  _owner = newOwner */\n      0x0100\n      exp\n      dup2\n      sload\n      dup2\n      0xffffffffffffffffffffffffffffffffffffffff\n      mul\n      not\n      and\n      swap1\n      dup4\n      0xffffffffffffffffffffffffffffffffffffffff\n      and\n      mul\n      or\n      swap1\n      sstore\n      pop\n        /* \"@openzeppelin/contracts/access/Ownable.sol\":3083:3091  newOwner */\n      dup2\n        /* \"@openzeppelin/contracts/access/Ownable.sol\":3052:3092  OwnershipTransferred(oldOwner, newOwner) */\n      0xffffffffffffffffffffffffffffffffffffffff\n      and\n        /* \"@openzeppelin/contracts/access/Ownable.sol\":3073:3081  oldOwner */\n      dup2\n        /* \"@openzeppelin/contracts/access/Ownable.sol\":3052:3092  OwnershipTransferred(oldOwner, newOwner) */\n      0xffffffffffffffffffffffffffffffffffffffff\n      and\n      0x8be0079c531659141344cd1fd0a4f28419497f9722a3daafe3b4186f6b6457e0\n      mload(0x40)\n      mload(0x40)\n      dup1\n      swap2\n      sub\n      swap1\n      log3\n        /* \"@openzeppelin/contracts/access/Ownable.sol\":2975:3099  {... */\n      pop\n        /* \"@openzeppelin/contracts/access/Ownable.sol\":2912:3099  function _transferOwnership(address newOwner) internal virtual {... */\n      pop\n      jump\t// out\n        /* \"@openzeppelin/contracts/security/Pausable.sol\":2186:2301  function _pause() internal virtual whenNotPaused {... */\n    tag_72:\n        /* \"@openzeppelin/contracts/security/Pausable.sol\":1239:1258  _requireNotPaused() */\n      tag_98\n        /* \"@openzeppelin/contracts/security/Pausable.sol\":1239:1256  _requireNotPaused */\n      tag_75\n        /* \"@openzeppelin/contracts/security/Pausable.sol\":1239:1258  _requireNotPaused() */\n      jump\t// in\n    tag_98:\n        /* \"@openzeppelin/contracts/security/Pausable.sol\":2255:2259  true */\n      0x01\n        /* \"@openzeppelin/contracts/security/Pausable.sol\":2245:2252  _paused */\n      0x00\n      0x00\n        /* \"@openzeppelin/contracts/security/Pausable.sol\":2245:2259  _paused = true */\n      0x0100\n      exp\n      dup2\n      sload\n      dup2\n      0xff\n      mul\n      not\n      and\n      swap1\n      dup4\n      iszero\n      iszero\n      mul\n      or\n      swap1\n      sstore\n      pop\n        /* \"@openzeppelin/contracts/security/Pausable.sol\":2274:2294  Paused(_msgSender()) */\n      0x62e78cea01bee320cd4e420270b5ea74000d11b0c9f74754ebdbfc544b05a258\n        /* \"@openzeppelin/contracts/security/Pausable.sol\":2281:2293  _msgSender() */\n      tag_100\n        /* \"@openzeppelin/contracts/security/Pausable.sol\":2281:2291  _msgSender */\n      tag_85\n        /* \"@openzeppelin/contracts/security/Pausable.sol\":2281:2293  _msgSender() */\n      jump\t// in\n    tag_100:\n        /* \"@openzeppelin/contracts/security/Pausable.sol\":2274:2294  Paused(_msgSender()) */\n      mload(0x40)\n      tag_101\n      swap2\n      swap1\n      tag_31\n      jump\t// in\n    tag_101:\n      mload(0x40)\n      dup1\n      swap2\n      sub\n      swap1\n      log1\n        /* \"@openzeppelin/contracts/security/Pausable.sol\":2186:2301  function _pause() internal virtual whenNotPaused {... */\n      jump\t// out\n        /* \"@openzeppelin/contracts/security/Pausable.sol\":1767:1873  function _requireNotPaused() internal view virtual {... */\n    tag_75:\n        /* \"@openzeppelin/contracts/security/Pausable.sol\":1837:1845  paused() */\n      tag_103\n        /* \"@openzeppelin/contracts/security/Pausable.sol\":1837:1843  paused */\n      tag_23\n        /* \"@openzeppelin/contracts/security/Pausable.sol\":1837:1845  paused() */\n      jump\t// in\n    tag_103:\n        /* \"@openzeppelin/contracts/security/Pausable.sol\":1836:1845  !paused() */\n      iszero\n        /* \"@openzeppelin/contracts/security/Pausable.sol\":1828:1866  require(!paused(), \"Pausable: paused\") */\n      tag_104\n      jumpi\n      mload(0x40)\n      0x08c379a000000000000000000000000000000000000000000000000000000000\n      dup2\n      mstore\n      0x04\n      add\n      tag_105\n      swap1\n      tag_106\n      jump\t// in\n    tag_105:\n      mload(0x40)\n      dup1\n      swap2\n      sub\n      swap1\n      revert\n    tag_104:\n        /* \"@openzeppelin/contracts/security/Pausable.sol\":1767:1873  function _requireNotPaused() internal view virtual {... */\n      jump\t// out\n        /* \"@openzeppelin/contracts/utils/Context.sol\":656:752  function _msgSender() internal view virtual returns (address) {... */\n    tag_85:\n        /* \"@openzeppelin/contracts/utils/Context.sol\":709:716  address */\n      0x00\n        /* \"@openzeppelin/contracts/utils/Context.sol\":735:745  msg.sender */\n      caller\n        /* \"@openzeppelin/contracts/utils/Context.sol\":728:745  return msg.sender */\n      swap1\n      pop\n        /* \"@openzeppelin/contracts/utils/Context.sol\":656:752  function _msgSender() internal view virtual returns (address) {... */\n      swap1\n      jump\t// out\n        /* \"@openzeppelin/contracts/security/Pausable.sol\":1945:2051  function _requirePaused() internal view virtual {... */\n    tag_92:\n        /* \"@openzeppelin/contracts/security/Pausable.sol\":2011:2019  paused() */\n      tag_109\n        /* \"@openzeppelin/contracts/security/Pausable.sol\":2011:2017  paused */\n      tag_23\n        /* \"@openzeppelin/contracts/security/Pausable.sol\":2011:2019  paused() */\n      jump\t// in\n    tag_109:\n        /* \"@openzeppelin/contracts/security/Pausable.sol\":2003:2044  require(paused(), \"Pausable: not paused\") */\n      tag_110\n      jumpi\n      mload(0x40)\n      0x08c379a000000000000000000000000000000000000000000000000000000000\n      dup2\n      mstore\n      0x04\n      add\n      tag_111\n      swap1\n      tag_112\n      jump\t// in\n    tag_111:\n      mload(0x40)\n      dup1\n      swap2\n      sub\n      swap1\n      revert\n    tag_110:\n        /* \"@openzeppelin/contracts/security/Pausable.sol\":1945:2051  function _requirePaused() internal view virtual {... */\n      jump\t// out\n        /* \"#utility.yul\":7:84   */\n    tag_113:\n        /* \"#utility.yul\":44:51   */\n      0x00\n        /* \"#utility.yul\":73:78   */\n      dup2\n        /* \"#utility.yul\":62:78   */\n      swap1\n      pop\n        /* \"#utility.yul\":7:84   */\n      swap2\n      swap1\n      pop\n      jump\t// out\n        /* \"#utility.yul\":90:208   */\n    tag_114:\n        /* \"#utility.yul\":177:201   */\n      tag_139\n        /* \"#utility.yul\":195:200   */\n      dup2\n        /* \"#utility.yul\":177:201   */\n      tag_113\n      jump\t// in\n    tag_139:\n        /* \"#utility.yul\":172:175   */\n      dup3\n        /* \"#utility.yul\":165:202   */\n      mstore\n        /* \"#utility.yul\":90:208   */\n      pop\n      pop\n      jump\t// out\n        /* \"#utility.yul\":214:436   */\n    tag_16:\n        /* \"#utility.yul\":307:311   */\n      0x00\n        /* \"#utility.yul\":345:347   */\n      0x20\n        /* \"#utility.yul\":334:343   */\n      dup3\n        /* \"#utility.yul\":330:348   */\n      add\n        /* \"#utility.yul\":322:348   */\n      swap1\n      pop\n        /* \"#utility.yul\":358:429   */\n      tag_141\n        /* \"#utility.yul\":426:427   */\n      0x00\n        /* \"#utility.yul\":415:424   */\n      dup4\n        /* \"#utility.yul\":411:428   */\n      add\n        /* \"#utility.yul\":402:408   */\n      dup5\n        /* \"#utility.yul\":358:429   */\n      tag_114\n      jump\t// in\n    tag_141:\n        /* \"#utility.yul\":214:436   */\n      swap3\n      swap2\n      pop\n      pop\n      jump\t// out\n        /* \"#utility.yul\":442:532   */\n    tag_115:\n        /* \"#utility.yul\":476:483   */\n      0x00\n        /* \"#utility.yul\":519:524   */\n      dup2\n        /* \"#utility.yul\":512:525   */\n      iszero\n        /* \"#utility.yul\":505:526   */\n      iszero\n        /* \"#utility.yul\":494:526   */\n      swap1\n      pop\n        /* \"#utility.yul\":442:532   */\n      swap2\n      swap1\n      pop\n      jump\t// out\n        /* \"#utility.yul\":538:647   */\n    tag_116:\n        /* \"#utility.yul\":619:640   */\n      tag_144\n        /* \"#utility.yul\":634:639   */\n      dup2\n        /* \"#utility.yul\":619:640   */\n      tag_115\n      jump\t// in\n    tag_144:\n        /* \"#utility.yul\":614:617   */\n      dup3\n        /* \"#utility.yul\":607:641   */\n      mstore\n        /* \"#utility.yul\":538:647   */\n      pop\n      pop\n      jump\t// out\n        /* \"#utility.yul\":653:863   */\n    tag_25:\n        /* \"#utility.yul\":740:744   */\n      0x00\n        /* \"#utility.yul\":778:780   */\n      0x20\n        /* \"#utility.yul\":767:776   */\n      dup3\n        /* \"#utility.yul\":763:781   */\n      add\n        /* \"#utility.yul\":755:781   */\n      swap1\n      pop\n        /* \"#utility.yul\":791:856   */\n      tag_146\n        /* \"#utility.yul\":853:854   */\n      0x00\n        /* \"#utility.yul\":842:851   */\n      dup4\n        /* \"#utility.yul\":838:855   */\n      add\n        /* \"#utility.yul\":829:835   */\n      dup5\n        /* \"#utility.yul\":791:856   */\n      tag_116\n      jump\t// in\n    tag_146:\n        /* \"#utility.yul\":653:863   */\n      swap3\n      swap2\n      pop\n      pop\n      jump\t// out\n        /* \"#utility.yul\":869:995   */\n    tag_117:\n        /* \"#utility.yul\":906:913   */\n      0x00\n        /* \"#utility.yul\":946:988   */\n      0xffffffffffffffffffffffffffffffffffffffff\n        /* \"#utility.yul\":939:944   */\n      dup3\n        /* \"#utility.yul\":935:989   */\n      and\n        /* \"#utility.yul\":924:989   */\n      swap1\n      pop\n        /* \"#utility.yul\":869:995   */\n      swap2\n      swap1\n      pop\n      jump\t// out\n        /* \"#utility.yul\":1001:1097   */\n    tag_118:\n        /* \"#utility.yul\":1038:1045   */\n      0x00\n        /* \"#utility.yul\":1067:1091   */\n      tag_149\n        /* \"#utility.yul\":1085:1090   */\n      dup3\n        /* \"#utility.yul\":1067:1091   */\n      tag_117\n      jump\t// in\n    tag_149:\n        /* \"#utility.yul\":1056:1091   */\n      swap1\n      pop\n        /* \"#utility.yul\":1001:1097   */\n      swap2\n      swap1\n      pop\n      jump\t// out\n        /* \"#utility.yul\":1103:1221   */\n    tag_119:\n        /* \"#utility.yul\":1190:1214   */\n      tag_151\n        /* \"#utility.yul\":1208:1213   */\n      dup2\n        /* \"#utility.yul\":1190:1214   */\n      tag_118\n      jump\t// in\n    tag_151:\n        /* \"#utility.yul\":1185:1188   */\n      dup3\n        /* \"#utility.yul\":1178:1215   */\n      mstore\n        /* \"#utility.yul\":1103:1221   */\n      pop\n      pop\n      jump\t// out\n        /* \"#utility.yul\":1227:1449   */\n    tag_31:\n        /* \"#utility.yul\":1320:1324   */\n      0x00\n        /* \"#utility.yul\":1358:1360   */\n      0x20\n        /* \"#utility.yul\":1347:1356   */\n      dup3\n        /* \"#utility.yul\":1343:1361   */\n      add\n        /* \"#utility.yul\":1335:1361   */\n      swap1\n      pop\n        /* \"#utility.yul\":1371:1442   */\n      tag_153\n        /* \"#utility.yul\":1439:1440   */\n      0x00\n        /* \"#utility.yul\":1428:1437   */\n      dup4\n        /* \"#utility.yul\":1424:1441   */\n      add\n        /* \"#utility.yul\":1415:1421   */\n      dup5\n        /* \"#utility.yul\":1371:1442   */\n      tag_119\n      jump\t// in\n    tag_153:\n        /* \"#utility.yul\":1227:1449   */\n      swap3\n      swap2\n      pop\n      pop\n      jump\t// out\n        /* \"#utility.yul\":1536:1653   */\n    tag_121:\n        /* \"#utility.yul\":1645:1646   */\n      0x00\n        /* \"#utility.yul\":1642:1643   */\n      0x00\n        /* \"#utility.yul\":1635:1647   */\n      revert\n        /* \"#utility.yul\":1782:1904   */\n    tag_123:\n        /* \"#utility.yul\":1855:1879   */\n      tag_158\n        /* \"#utility.yul\":1873:1878   */\n      dup2\n        /* \"#utility.yul\":1855:1879   */\n      tag_113\n      jump\t// in\n    tag_158:\n        /* \"#utility.yul\":1848:1853   */\n      dup2\n        /* \"#utility.yul\":1845:1880   */\n      eq\n        /* \"#utility.yul\":1835:1898   */\n      tag_159\n      jumpi\n        /* \"#utility.yul\":1894:1895   */\n      0x00\n        /* \"#utility.yul\":1891:1892   */\n      0x00\n        /* \"#utility.yul\":1884:1896   */\n      revert\n        /* \"#utility.yul\":1835:1898   */\n    tag_159:\n        /* \"#utility.yul\":1782:1904   */\n      pop\n      jump\t// out\n        /* \"#utility.yul\":1910:2049   */\n    tag_124:\n        /* \"#utility.yul\":1956:1961   */\n      0x00\n        /* \"#utility.yul\":1994:2000   */\n      dup2\n        /* \"#utility.yul\":1981:2001   */\n      calldataload\n        /* \"#utility.yul\":1972:2001   */\n      swap1\n      pop\n        /* \"#utility.yul\":2010:2043   */\n      tag_161\n        /* \"#utility.yul\":2037:2042   */\n      dup2\n        /* \"#utility.yul\":2010:2043   */\n      tag_123\n      jump\t// in\n    tag_161:\n        /* \"#utility.yul\":1910:2049   */\n      swap3\n      swap2\n      pop\n      pop\n      jump\t// out\n        /* \"#utility.yul\":2055:2384   */\n    tag_34:\n        /* \"#utility.yul\":2114:2120   */\n      0x00\n        /* \"#utility.yul\":2163:2165   */\n      0x20\n        /* \"#utility.yul\":2151:2160   */\n      dup3\n        /* \"#utility.yul\":2142:2149   */\n      dup5\n        /* \"#utility.yul\":2138:2161   */\n      sub\n        /* \"#utility.yul\":2134:2166   */\n      slt\n        /* \"#utility.yul\":2131:2250   */\n      iszero\n      tag_163\n      jumpi\n        /* \"#utility.yul\":2169:2248   */\n      tag_164\n      tag_121\n      jump\t// in\n    tag_164:\n        /* \"#utility.yul\":2131:2250   */\n    tag_163:\n        /* \"#utility.yul\":2289:2290   */\n      0x00\n        /* \"#utility.yul\":2314:2367   */\n      tag_165\n        /* \"#utility.yul\":2359:2366   */\n      dup5\n        /* \"#utility.yul\":2350:2356   */\n      dup3\n        /* \"#utility.yul\":2339:2348   */\n      dup6\n        /* \"#utility.yul\":2335:2357   */\n      add\n        /* \"#utility.yul\":2314:2367   */\n      tag_124\n      jump\t// in\n    tag_165:\n        /* \"#utility.yul\":2304:2367   */\n      swap2\n      pop\n        /* \"#utility.yul\":2260:2377   */\n      pop\n        /* \"#utility.yul\":2055:2384   */\n      swap3\n      swap2\n      pop\n      pop\n      jump\t// out\n        /* \"#utility.yul\":2390:2512   */\n    tag_125:\n        /* \"#utility.yul\":2463:2487   */\n      tag_167\n        /* \"#utility.yul\":2481:2486   */\n      dup2\n        /* \"#utility.yul\":2463:2487   */\n      tag_118\n      jump\t// in\n    tag_167:\n        /* \"#utility.yul\":2456:2461   */\n      dup2\n        /* \"#utility.yul\":2453:2488   */\n      eq\n        /* \"#utility.yul\":2443:2506   */\n      tag_168\n      jumpi\n        /* \"#utility.yul\":2502:2503   */\n      0x00\n        /* \"#utility.yul\":2499:2500   */\n      0x00\n        /* \"#utility.yul\":2492:2504   */\n      revert\n        /* \"#utility.yul\":2443:2506   */\n    tag_168:\n        /* \"#utility.yul\":2390:2512   */\n      pop\n      jump\t// out\n        /* \"#utility.yul\":2518:2657   */\n    tag_126:\n        /* \"#utility.yul\":2564:2569   */\n      0x00\n        /* \"#utility.yul\":2602:2608   */\n      dup2\n        /* \"#utility.yul\":2589:2609   */\n      calldataload\n        /* \"#utility.yul\":2580:2609   */\n      swap1\n      pop\n        /* \"#utility.yul\":2618:2651   */\n      tag_170\n        /* \"#utility.yul\":2645:2650   */\n      dup2\n        /* \"#utility.yul\":2618:2651   */\n      tag_125\n      jump\t// in\n    tag_170:\n        /* \"#utility.yul\":2518:2657   */\n      swap3\n      swap2\n      pop\n      pop\n      jump\t// out\n        /* \"#utility.yul\":2663:2992   */\n    tag_40:\n        /* \"#utility.yul\":2722:2728   */\n      0x00\n        /* \"#utility.yul\":2771:2773   */\n      0x20\n        /* \"#utility.yul\":2759:2768   */\n      dup3\n        /* \"#utility.yul\":2750:2757   */\n      dup5\n        /* \"#utility.yul\":2746:2769   */\n      sub\n        /* \"#utility.yul\":2742:2774   */\n      slt\n        /* \"#utility.yul\":2739:2858   */\n      iszero\n      tag_172\n      jumpi\n        /* \"#utility.yul\":2777:2856   */\n      tag_173\n      tag_121\n      jump\t// in\n    tag_173:\n        /* \"#utility.yul\":2739:2858   */\n    tag_172:\n        /* \"#utility.yul\":2897:2898   */\n      0x00\n        /* \"#utility.yul\":2922:2975   */\n      tag_174\n        /* \"#utility.yul\":2967:2974   */\n      dup5\n        /* \"#utility.yul\":2958:2964   */\n      dup3\n        /* \"#utility.yul\":2947:2956   */\n      dup6\n        /* \"#utility.yul\":2943:2965   */\n      add\n        /* \"#utility.yul\":2922:2975   */\n      tag_126\n      jump\t// in\n    tag_174:\n        /* \"#utility.yul\":2912:2975   */\n      swap2\n      pop\n        /* \"#utility.yul\":2868:2985   */\n      pop\n        /* \"#utility.yul\":2663:2992   */\n      swap3\n      swap2\n      pop\n      pop\n      jump\t// out\n        /* \"#utility.yul\":2998:3167   */\n    tag_127:\n        /* \"#utility.yul\":3082:3093   */\n      0x00\n        /* \"#utility.yul\":3116:3122   */\n      dup3\n        /* \"#utility.yul\":3111:3114   */\n      dup3\n        /* \"#utility.yul\":3104:3123   */\n      mstore\n        /* \"#utility.yul\":3156:3160   */\n      0x20\n        /* \"#utility.yul\":3151:3154   */\n      dup3\n        /* \"#utility.yul\":3147:3161   */\n      add\n        /* \"#utility.yul\":3132:3161   */\n      swap1\n      pop\n        /* \"#utility.yul\":2998:3167   */\n      swap3\n      swap2\n      pop\n      pop\n      jump\t// out\n        /* \"#utility.yul\":3173:3336   */\n    tag_128:\n        /* \"#utility.yul\":3313:3328   */\n      0x496e76616c696420707269636500000000000000000000000000000000000000\n        /* \"#utility.yul\":3309:3310   */\n      0x00\n        /* \"#utility.yul\":3301:3307   */\n      dup3\n        /* \"#utility.yul\":3297:3311   */\n      add\n        /* \"#utility.yul\":3290:3329   */\n      mstore\n        /* \"#utility.yul\":3173:3336   */\n      pop\n      jump\t// out\n        /* \"#utility.yul\":3342:3708   */\n    tag_129:\n        /* \"#utility.yul\":3484:3487   */\n      0x00\n        /* \"#utility.yul\":3505:3572   */\n      tag_178\n        /* \"#utility.yul\":3569:3571   */\n      0x0d\n        /* \"#utility.yul\":3564:3567   */\n      dup4\n        /* \"#utility.yul\":3505:3572   */\n      tag_127\n      jump\t// in\n    tag_178:\n        /* \"#utility.yul\":3498:3572   */\n      swap2\n      pop\n        /* \"#utility.yul\":3581:3674   */\n      tag_179\n        /* \"#utility.yul\":3670:3673   */\n      dup3\n        /* \"#utility.yul\":3581:3674   */\n      tag_128\n      jump\t// in\n    tag_179:\n        /* \"#utility.yul\":3699:3701   */\n      0x20\n        /* \"#utility.yul\":3694:3697   */\n      dup3\n        /* \"#utility.yul\":3690:3702   */\n      add\n        /* \"#utility.yul\":3683:3702   */\n      swap1\n      pop\n        /* \"#utility.yul\":3342:3708   */\n      swap2\n      swap1\n      pop\n      jump\t// out\n        /* \"#utility.yul\":3714:4133   */\n    tag_60:\n        /* \"#utility.yul\":3880:3884   */\n      0x00\n        /* \"#utility.yul\":3918:3920   */\n      0x20\n        /* \"#utility.yul\":3907:3916   */\n      dup3\n        /* \"#utility.yul\":3903:3921   */\n      add\n        /* \"#utility.yul\":3895:3921   */\n      swap1\n      pop\n        /* \"#utility.yul\":3967:3976   */\n      dup2\n        /* \"#utility.yul\":3961:3965   */\n      dup2\n        /* \"#utility.yul\":3957:3977   */\n      sub\n        /* \"#utility.yul\":3953:3954   */\n      0x00\n        /* \"#utility.yul\":3942:3951   */\n      dup4\n        /* \"#utility.yul\":3938:3955   */\n      add\n        /* \"#utility.yul\":3931:3978   */\n      mstore\n        /* \"#utility.yul\":3995:4126   */\n      tag_181\n        /* \"#utility.yul\":4121:4125   */\n      dup2\n        /* \"#utility.yul\":3995:4126   */\n      tag_129\n      jump\t// in\n    tag_181:\n        /* \"#utility.yul\":3987:4126   */\n      swap1\n      pop\n        /* \"#utility.yul\":3714:4133   */\n      swap2\n      swap1\n      pop\n      jump\t// out\n        /* \"#utility.yul\":4139:4319   */\n    tag_130:\n        /* \"#utility.yul\":4187:4264   */\n      0x4e487b7100000000000000000000000000000000000000000000000000000000\n        /* \"#utility.yul\":4184:4185   */\n      0x00\n        /* \"#utility.yul\":4177:4265   */\n      mstore\n        /* \"#utility.yul\":4284:4288   */\n      0x11\n        /* \"#utility.yul\":4281:4282   */\n      0x04\n        /* \"#utility.yul\":4274:4289   */\n      mstore\n        /* \"#utility.yul\":4308:4312   */\n      0x24\n        /* \"#utility.yul\":4305:4306   */\n      0x00\n        /* \"#utility.yul\":4298:4313   */\n      revert\n        /* \"#utility.yul\":4325:4519   */\n    tag_65:\n        /* \"#utility.yul\":4365:4369   */\n      0x00\n        /* \"#utility.yul\":4385:4405   */\n      tag_184\n        /* \"#utility.yul\":4403:4404   */\n      dup3\n        /* \"#utility.yul\":4385:4405   */\n      tag_113\n      jump\t// in\n    tag_184:\n        /* \"#utility.yul\":4380:4405   */\n      swap2\n      pop\n        /* \"#utility.yul\":4419:4439   */\n      tag_185\n        /* \"#utility.yul\":4437:4438   */\n      dup4\n        /* \"#utility.yul\":4419:4439   */\n      tag_113\n      jump\t// in\n    tag_185:\n        /* \"#utility.yul\":4414:4439   */\n      swap3\n      pop\n        /* \"#utility.yul\":4463:4464   */\n      dup3\n        /* \"#utility.yul\":4460:4461   */\n      dup3\n        /* \"#utility.yul\":4456:4465   */\n      sub\n        /* \"#utility.yul\":4448:4465   */\n      swap1\n      pop\n        /* \"#utility.yul\":4487:4488   */\n      dup2\n        /* \"#utility.yul\":4481:4485   */\n      dup2\n        /* \"#utility.yul\":4478:4489   */\n      gt\n        /* \"#utility.yul\":4475:4512   */\n      iszero\n      tag_186\n      jumpi\n        /* \"#utility.yul\":4492:4510   */\n      tag_187\n      tag_130\n      jump\t// in\n    tag_187:\n        /* \"#utility.yul\":4475:4512   */\n    tag_186:\n        /* \"#utility.yul\":4325:4519   */\n      swap3\n      swap2\n      pop\n      pop\n      jump\t// out\n        /* \"#utility.yul\":4525:4935   */\n    tag_67:\n        /* \"#utility.yul\":4565:4572   */\n      0x00\n        /* \"#utility.yul\":4588:4608   */\n      tag_189\n        /* \"#utility.yul\":4606:4607   */\n      dup3\n        /* \"#utility.yul\":4588:4608   */\n      tag_113\n      jump\t// in\n    tag_189:\n        /* \"#utility.yul\":4583:4608   */\n      swap2\n      pop\n        /* \"#utility.yul\":4622:4642   */\n      tag_190\n        /* \"#utility.yul\":4640:4641   */\n      dup4\n        /* \"#utility.yul\":4622:4642   */\n      tag_113\n      jump\t// in\n    tag_190:\n        /* \"#utility.yul\":4617:4642   */\n      swap3\n      pop\n        /* \"#utility.yul\":4677:4678   */\n      dup3\n        /* \"#utility.yul\":4674:4675   */\n      dup3\n        /* \"#utility.yul\":4670:4679   */\n      mul\n        /* \"#utility.yul\":4699:4729   */\n      tag_191\n        /* \"#utility.yul\":4717:4728   */\n      dup2\n        /* \"#utility.yul\":4699:4729   */\n      tag_113\n      jump\t// in\n    tag_191:\n        /* \"#utility.yul\":4688:4729   */\n      swap2\n      pop\n        /* \"#utility.yul\":4878:4879   */\n      dup3\n        /* \"#utility.yul\":4869:4876   */\n      dup3\n        /* \"#utility.yul\":4865:4880   */\n      div\n        /* \"#utility.yul\":4862:4863   */\n      dup5\n        /* \"#utility.yul\":4859:4881   */\n      eq\n        /* \"#utility.yul\":4839:4840   */\n      dup4\n        /* \"#utility.yul\":4832:4841   */\n      iszero\n        /* \"#utility.yul\":4812:4895   */\n      or\n        /* \"#utility.yul\":4789:4928   */\n      tag_192\n      jumpi\n        /* \"#utility.yul\":4908:4926   */\n      tag_193\n      tag_130\n      jump\t// in\n    tag_193:\n        /* \"#utility.yul\":4789:4928   */\n    tag_192:\n        /* \"#utility.yul\":4573:4935   */\n      pop\n        /* \"#utility.yul\":4525:4935   */\n      swap3\n      swap2\n      pop\n      pop\n      jump\t// out\n        /* \"#utility.yul\":4941:5121   */\n    tag_131:\n        /* \"#utility.yul\":4989:5066   */\n      0x4e487b7100000000000000000000000000000000000000000000000000000000\n        /* \"#utility.yul\":4986:4987   */\n      0x00\n        /* \"#utility.yul\":4979:5067   */\n      mstore\n        /* \"#utility.yul\":5086:5090   */\n      0x12\n        /* \"#utility.yul\":5083:5084   */\n      0x04\n        /* \"#utility.yul\":5076:5091   */\n      mstore\n        /* \"#utility.yul\":5110:5114   */\n      0x24\n        /* \"#utility.yul\":5107:5108   */\n      0x00\n        /* \"#utility.yul\":5100:5115   */\n      revert\n        /* \"#utility.yul\":5127:5312   */\n    tag_69:\n        /* \"#utility.yul\":5167:5168   */\n      0x00\n        /* \"#utility.yul\":5184:5204   */\n      tag_196\n        /* \"#utility.yul\":5202:5203   */\n      dup3\n        /* \"#utility.yul\":5184:5204   */\n      tag_113\n      jump\t// in\n    tag_196:\n        /* \"#utility.yul\":5179:5204   */\n      swap2\n      pop\n        /* \"#utility.yul\":5218:5238   */\n      tag_197\n        /* \"#utility.yul\":5236:5237   */\n      dup4\n        /* \"#utility.yul\":5218:5238   */\n      tag_113\n      jump\t// in\n    tag_197:\n        /* \"#utility.yul\":5213:5238   */\n      swap3\n      pop\n        /* \"#utility.yul\":5257:5258   */\n      dup3\n        /* \"#utility.yul\":5247:5282   */\n      tag_198\n      jumpi\n        /* \"#utility.yul\":5262:5280   */\n      tag_199\n      tag_131\n      jump\t// in\n    tag_199:\n        /* \"#utility.yul\":5247:5282   */\n    tag_198:\n        /* \"#utility.yul\":5304:5305   */\n      dup3\n        /* \"#utility.yul\":5301:5302   */\n      dup3\n        /* \"#utility.yul\":5297:5306   */\n      div\n        /* \"#utility.yul\":5292:5306   */\n      swap1\n      pop\n        /* \"#utility.yul\":5127:5312   */\n      swap3\n      swap2\n      pop\n      pop\n      jump\t// out\n        /* \"#utility.yul\":5318:5484   */\n    tag_132:\n        /* \"#utility.yul\":5458:5476   */\n      0x5061757361626c653a2070617573656400000000000000000000000000000000\n        /* \"#utility.yul\":5454:5455   */\n      0x00\n        /* \"#utility.yul\":5446:5452   */\n      dup3\n        /* \"#utility.yul\":5442:5456   */\n      add\n        /* \"#utility.yul\":5435:5477   */\n      mstore\n        /* \"#utility.yul\":5318:5484   */\n      pop\n      jump\t// out\n        /* \"#utility.yul\":5490:5856   */\n    tag_133:\n        /* \"#utility.yul\":5632:5635   */\n      0x00\n        /* \"#utility.yul\":5653:5720   */\n      tag_202\n        /* \"#utility.yul\":5717:5719   */\n      0x10\n        /* \"#utility.yul\":5712:5715   */\n      dup4\n        /* \"#utility.yul\":5653:5720   */\n      tag_127\n      jump\t// in\n    tag_202:\n        /* \"#utility.yul\":5646:5720   */\n      swap2\n      pop\n        /* \"#utility.yul\":5729:5822   */\n      tag_203\n        /* \"#utility.yul\":5818:5821   */\n      dup3\n        /* \"#utility.yul\":5729:5822   */\n      tag_132\n      jump\t// in\n    tag_203:\n        /* \"#utility.yul\":5847:5849   */\n      0x20\n        /* \"#utility.yul\":5842:5845   */\n      dup3\n        /* \"#utility.yul\":5838:5850   */\n      add\n        /* \"#utility.yul\":5831:5850   */\n      swap1\n      pop\n        /* \"#utility.yul\":5490:5856   */\n      swap2\n      swap1\n      pop\n      jump\t// out\n        /* \"#utility.yul\":5862:6281   */\n    tag_106:\n        /* \"#utility.yul\":6028:6032   */\n      0x00\n        /* \"#utility.yul\":6066:6068   */\n      0x20\n        /* \"#utility.yul\":6055:6064   */\n      dup3\n        /* \"#utility.yul\":6051:6069   */\n      add\n        /* \"#utility.yul\":6043:6069   */\n      swap1\n      pop\n        /* \"#utility.yul\":6115:6124   */\n      dup2\n        /* \"#utility.yul\":6109:6113   */\n      dup2\n        /* \"#utility.yul\":6105:6125   */\n      sub\n        /* \"#utility.yul\":6101:6102   */\n      0x00\n        /* \"#utility.yul\":6090:6099   */\n      dup4\n        /* \"#utility.yul\":6086:6103   */\n      add\n        /* \"#utility.yul\":6079:6126   */\n      mstore\n        /* \"#utility.yul\":6143:6274   */\n      tag_205\n        /* \"#utility.yul\":6269:6273   */\n      dup2\n        /* \"#utility.yul\":6143:6274   */\n      tag_133\n      jump\t// in\n    tag_205:\n        /* \"#utility.yul\":6135:6274   */\n      swap1\n      pop\n        /* \"#utility.yul\":5862:6281   */\n      swap2\n      swap1\n      pop\n      jump\t// out\n        /* \"#utility.yul\":6287:6457   */\n    tag_134:\n        /* \"#utility.yul\":6427:6449   */\n      0x5061757361626c653a206e6f7420706175736564000000000000000000000000\n        /* \"#utility.yul\":6423:6424   */\n      0x00\n        /* \"#utility.yul\":6415:6421   */\n      dup3\n        /* \"#utility.yul\":6411:6425   */\n      add\n        /* \"#utility.yul\":6404:6450   */\n      mstore\n        /* \"#utility.yul\":6287:6457   */\n      pop\n      jump\t// out\n        /* \"#utility.yul\":6463:6829   */\n    tag_135:\n        /* \"#utility.yul\":6605:6608   */\n      0x00\n        /* \"#utility.yul\":6626:6693   */\n      tag_208\n        /* \"#utility.yul\":6690:6692   */\n      0x14\n        /* \"#utility.yul\":6685:6688   */\n      dup4\n        /* \"#utility.yul\":6626:6693   */\n      tag_127\n      jump\t// in\n    tag_208:\n        /* \"#utility.yul\":6619:6693   */\n      swap2\n      pop\n        /* \"#utility.yul\":6702:6795   */\n      tag_209\n        /* \"#utility.yul\":6791:6794   */\n      dup3\n        /* \"#utility.yul\":6702:6795   */\n      tag_134\n      jump\t// in\n    tag_209:\n        /* \"#utility.yul\":6820:6822   */\n      0x20\n        /* \"#utility.yul\":6815:6818   */\n      dup3\n        /* \"#utility.yul\":6811:6823   */\n      add\n        /* \"#utility.yul\":6804:6823   */\n      swap1\n      pop\n        /* \"#utility.yul\":6463:6829   */\n      swap2\n      swap1\n      pop\n      jump\t// out\n        /* \"#utility.yul\":6835:7254   */\n    tag_112:\n        /* \"#utility.yul\":7001:7005   */\n      0x00\n        /* \"#utility.yul\":7039:7041   */\n      0x20\n        /* \"#utility.yul\":7028:7037   */\n      dup3\n        /* \"#utility.yul\":7024:7042   */\n      add\n        /* \"#utility.yul\":7016:7042   */\n      swap1\n      pop\n        /* \"#utility.yul\":7088:7097   */\n      dup2\n        /* \"#utility.yul\":7082:7086   */\n      dup2\n        /* \"#utility.yul\":7078:7098   */\n      sub\n        /* \"#utility.yul\":7074:7075   */\n      0x00\n        /* \"#utility.yul\":7063:7072   */\n      dup4\n        /* \"#utility.yul\":7059:7076   */\n      add\n        /* \"#utility.yul\":7052:7099   */\n      mstore\n        /* \"#utility.yul\":7116:7247   */\n      tag_211\n        /* \"#utility.yul\":7242:7246   */\n      dup2\n        /* \"#utility.yul\":7116:7247   */\n      tag_135\n      jump\t// in\n    tag_211:\n        /* \"#utility.yul\":7108:7247   */\n      swap1\n      pop\n        /* \"#utility.yul\":6835:7254   */\n      swap2\n      swap1\n      pop\n      jump\t// out\n\n    auxdata: 0xa2646970667358221220e44b1c5fbfe8ab0f66608fb099911766f0337a9f8fa6d1500b9c68e06074a36464736f6c634300081d0033\n}\n",
				"bytecode": {
					"linkReferences": {},
					"object": "608060405234801561000f575f5ffd5b50604051610bfb380380610bfb833981810160405281019061003191906101d1565b335f5f5f6101000a81548160ff0219169083151502179055505f73ffffffffffffffffffffffffffffffffffffffff168173ffffffffffffffffffffffffffffffffffffffff16036100ba575f6040517f1e4fbdf70000000000000000000000000000000000000000000000000000000081526004016100b1919061023b565b60405180910390fd5b6100c9816100d760201b60201c565b508060028190555050610254565b5f5f60019054906101000a900473ffffffffffffffffffffffffffffffffffffffff169050815f60016101000a81548173ffffffffffffffffffffffffffffffffffffffff021916908373ffffffffffffffffffffffffffffffffffffffff1602179055508173ffffffffffffffffffffffffffffffffffffffff168173ffffffffffffffffffffffffffffffffffffffff167f8be0079c531659141344cd1fd0a4f28419497f9722a3daafe3b4186f6b6457e060405160405180910390a35050565b5f5ffd5b5f819050919050565b6101b08161019e565b81146101ba575f5ffd5b50565b5f815190506101cb816101a7565b92915050565b5f602082840312156101e6576101e561019a565b5b5f6101f3848285016101bd565b91505092915050565b5f73ffffffffffffffffffffffffffffffffffffffff82169050919050565b5f610225826101fc565b9050919050565b6102358161021b565b82525050565b5f60208201905061024e5f83018461022c565b92915050565b61099a806102615f395ff3fe608060405234801561000f575f5ffd5b5060043610610091575f3560e01c8063715018a611610064578063715018a6146100f95780638da5cb5b14610103578063c7f898f014610121578063e0c70b661461013d578063f2fde38b1461014757610091565b8063053f14da146100955780633f4ba83a146100b357806342cde4e8146100bd5780635c975abb146100db575b5f5ffd5b61009d610163565b6040516100aa91906105cc565b60405180910390f35b6100bb610169565b005b6100c561017b565b6040516100d291906105cc565b60405180910390f35b6100e3610181565b6040516100f091906105ff565b60405180910390f35b610101610195565b005b61010b6101a8565b6040516101189190610657565b60405180910390f35b61013b6004803603810190610136919061069e565b6101d0565b005b610145610281565b005b610161600480360381019061015c91906106f3565b61028b565b005b60015481565b61017161030f565b610179610396565b565b60025481565b5f5f5f9054906101000a900460ff16905090565b61019d61030f565b6101a65f6103f6565b565b5f5f60019054906101000a900473ffffffffffffffffffffffffffffffffffffffff16905090565b6101d861030f565b5f811161021a576040517f08c379a000000000000000000000000000000000000000000000000000000000815260040161021190610778565b60405180910390fd5b5f6001541115610277575f8160015411610234575f610243565b8160015461024291906107c3565b5b90505f60015460648361025691906107f6565b6102609190610864565b90506002548110610274576102736104b9565b5b50505b8060018190555050565b61028961051a565b565b61029361030f565b5f73ffffffffffffffffffffffffffffffffffffffff168173ffffffffffffffffffffffffffffffffffffffff1603610303575f6040517f1e4fbdf70000000000000000000000000000000000000000000000000000000081526004016102fa9190610657565b60405180910390fd5b61030c816103f6565b50565b610317610564565b73ffffffffffffffffffffffffffffffffffffffff166103356101a8565b73ffffffffffffffffffffffffffffffffffffffff161461039457610358610564565b6040517f118cdaa700000000000000000000000000000000000000000000000000000000815260040161038b9190610657565b60405180910390fd5b565b61039e61056b565b5f5f5f6101000a81548160ff0219169083151502179055507f5db9ee0a495bf2e6ff9c91a7834c1ba4fdd244a5e8aa4e537bd38aeae4b073aa6103df610564565b6040516103ec9190610657565b60405180910390a1565b5f5f60019054906101000a900473ffffffffffffffffffffffffffffffffffffffff169050815f60016101000a81548173ffffffffffffffffffffffffffffffffffffffff021916908373ffffffffffffffffffffffffffffffffffffffff1602179055508173ffffffffffffffffffffffffffffffffffffffff168173ffffffffffffffffffffffffffffffffffffffff167f8be0079c531659141344cd1fd0a4f28419497f9722a3daafe3b4186f6b6457e060405160405180910390a35050565b6104c161051a565b60015f5f6101000a81548160ff0219169083151502179055507f62e78cea01bee320cd4e420270b5ea74000d11b0c9f74754ebdbfc544b05a258610503610564565b6040516105109190610657565b60405180910390a1565b610522610181565b15610562576040517f08c379a0000000000000000000000000000000000000000000000000000000008152600401610559906108de565b60405180910390fd5b565b5f33905090565b610573610181565b6105b2576040517f08c379a00000000000000000000000000000000000000000000000000000000081526004016105a990610946565b60405180910390fd5b565b5f819050919050565b6105c6816105b4565b82525050565b5f6020820190506105df5f8301846105bd565b92915050565b5f8115159050919050565b6105f9816105e5565b82525050565b5f6020820190506106125f8301846105f0565b92915050565b5f73ffffffffffffffffffffffffffffffffffffffff82169050919050565b5f61064182610618565b9050919050565b61065181610637565b82525050565b5f60208201905061066a5f830184610648565b92915050565b5f5ffd5b61067d816105b4565b8114610687575f5ffd5b50565b5f8135905061069881610674565b92915050565b5f602082840312156106b3576106b2610670565b5b5f6106c08482850161068a565b91505092915050565b6106d281610637565b81146106dc575f5ffd5b50565b5f813590506106ed816106c9565b92915050565b5f6020828403121561070857610707610670565b5b5f610715848285016106df565b91505092915050565b5f82825260208201905092915050565b7f496e76616c6964207072696365000000000000000000000000000000000000005f82015250565b5f610762600d8361071e565b915061076d8261072e565b602082019050919050565b5f6020820190508181035f83015261078f81610756565b9050919050565b7f4e487b71000000000000000000000000000000000000000000000000000000005f52601160045260245ffd5b5f6107cd826105b4565b91506107d8836105b4565b92508282039050818111156107f0576107ef610796565b5b92915050565b5f610800826105b4565b915061080b836105b4565b9250828202610819816105b4565b915082820484148315176108305761082f610796565b5b5092915050565b7f4e487b71000000000000000000000000000000000000000000000000000000005f52601260045260245ffd5b5f61086e826105b4565b9150610879836105b4565b92508261088957610888610837565b5b828204905092915050565b7f5061757361626c653a20706175736564000000000000000000000000000000005f82015250565b5f6108c860108361071e565b91506108d382610894565b602082019050919050565b5f6020820190508181035f8301526108f5816108bc565b9050919050565b7f5061757361626c653a206e6f74207061757365640000000000000000000000005f82015250565b5f61093060148361071e565b915061093b826108fc565b602082019050919050565b5f6020820190508181035f83015261095d81610924565b905091905056fea2646970667358221220e44b1c5fbfe8ab0f66608fb099911766f0337a9f8fa6d1500b9c68e06074a36464736f6c634300081d0033",
					"opcodes": "PUSH1 0x80 PUSH1 0x40 MSTORE CALLVALUE DUP1 ISZERO PUSH2 0xF JUMPI PUSH0 PUSH0 REVERT JUMPDEST POP PUSH1 0x40 MLOAD PUSH2 0xBFB CODESIZE SUB DUP1 PUSH2 0xBFB DUP4 CODECOPY DUP2 DUP2 ADD PUSH1 0x40 MSTORE DUP2 ADD SWAP1 PUSH2 0x31 SWAP2 SWAP1 PUSH2 0x1D1 JUMP JUMPDEST CALLER PUSH0 PUSH0 PUSH0 PUSH2 0x100 EXP DUP2 SLOAD DUP2 PUSH1 0xFF MUL NOT AND SWAP1 DUP4 ISZERO ISZERO MUL OR SWAP1 SSTORE POP PUSH0 PUSH20 0xFFFFFFFFFFFFFFFFFFFFFFFFFFFFFFFFFFFFFFFF AND DUP2 PUSH20 0xFFFFFFFFFFFFFFFFFFFFFFFFFFFFFFFFFFFFFFFF AND SUB PUSH2 0xBA JUMPI PUSH0 PUSH1 0x40 MLOAD PUSH32 0x1E4FBDF700000000000000000000000000000000000000000000000000000000 DUP2 MSTORE PUSH1 0x4 ADD PUSH2 0xB1 SWAP2 SWAP1 PUSH2 0x23B JUMP JUMPDEST PUSH1 0x40 MLOAD DUP1 SWAP2 SUB SWAP1 REVERT JUMPDEST PUSH2 0xC9 DUP2 PUSH2 0xD7 PUSH1 0x20 SHL PUSH1 0x20 SHR JUMP JUMPDEST POP DUP1 PUSH1 0x2 DUP2 SWAP1 SSTORE POP POP PUSH2 0x254 JUMP JUMPDEST PUSH0 PUSH0 PUSH1 0x1 SWAP1 SLOAD SWAP1 PUSH2 0x100 EXP SWAP1 DIV PUSH20 0xFFFFFFFFFFFFFFFFFFFFFFFFFFFFFFFFFFFFFFFF AND SWAP1 POP DUP2 PUSH0 PUSH1 0x1 PUSH2 0x100 EXP DUP2 SLOAD DUP2 PUSH20 0xFFFFFFFFFFFFFFFFFFFFFFFFFFFFFFFFFFFFFFFF MUL NOT AND SWAP1 DUP4 PUSH20 0xFFFFFFFFFFFFFFFFFFFFFFFFFFFFFFFFFFFFFFFF AND MUL OR SWAP1 SSTORE POP DUP2 PUSH20 0xFFFFFFFFFFFFFFFFFFFFFFFFFFFFFFFFFFFFFFFF AND DUP2 PUSH20 0xFFFFFFFFFFFFFFFFFFFFFFFFFFFFFFFFFFFFFFFF AND PUSH32 0x8BE0079C531659141344CD1FD0A4F28419497F9722A3DAAFE3B4186F6B6457E0 PUSH1 0x40 MLOAD PUSH1 0x40 MLOAD DUP1 SWAP2 SUB SWAP1 LOG3 POP POP JUMP JUMPDEST PUSH0 PUSH0 REVERT JUMPDEST PUSH0 DUP2 SWAP1 POP SWAP2 SWAP1 POP JUMP JUMPDEST PUSH2 0x1B0 DUP2 PUSH2 0x19E JUMP JUMPDEST DUP2 EQ PUSH2 0x1BA JUMPI PUSH0 PUSH0 REVERT JUMPDEST POP JUMP JUMPDEST PUSH0 DUP2 MLOAD SWAP1 POP PUSH2 0x1CB DUP2 PUSH2 0x1A7 JUMP JUMPDEST SWAP3 SWAP2 POP POP JUMP JUMPDEST PUSH0 PUSH1 0x20 DUP3 DUP5 SUB SLT ISZERO PUSH2 0x1E6 JUMPI PUSH2 0x1E5 PUSH2 0x19A JUMP JUMPDEST JUMPDEST PUSH0 PUSH2 0x1F3 DUP5 DUP3 DUP6 ADD PUSH2 0x1BD JUMP JUMPDEST SWAP2 POP POP SWAP3 SWAP2 POP POP JUMP JUMPDEST PUSH0 PUSH20 0xFFFFFFFFFFFFFFFFFFFFFFFFFFFFFFFFFFFFFFFF DUP3 AND SWAP1 POP SWAP2 SWAP1 POP JUMP JUMPDEST PUSH0 PUSH2 0x225 DUP3 PUSH2 0x1FC JUMP JUMPDEST SWAP1 POP SWAP2 SWAP1 POP JUMP JUMPDEST PUSH2 0x235 DUP2 PUSH2 0x21B JUMP JUMPDEST DUP3 MSTORE POP POP JUMP JUMPDEST PUSH0 PUSH1 0x20 DUP3 ADD SWAP1 POP PUSH2 0x24E PUSH0 DUP4 ADD DUP5 PUSH2 0x22C JUMP JUMPDEST SWAP3 SWAP2 POP POP JUMP JUMPDEST PUSH2 0x99A DUP1 PUSH2 0x261 PUSH0 CODECOPY PUSH0 RETURN INVALID PUSH1 0x80 PUSH1 0x40 MSTORE CALLVALUE DUP1 ISZERO PUSH2 0xF JUMPI PUSH0 PUSH0 REVERT JUMPDEST POP PUSH1 0x4 CALLDATASIZE LT PUSH2 0x91 JUMPI PUSH0 CALLDATALOAD PUSH1 0xE0 SHR DUP1 PUSH4 0x715018A6 GT PUSH2 0x64 JUMPI DUP1 PUSH4 0x715018A6 EQ PUSH2 0xF9 JUMPI DUP1 PUSH4 0x8DA5CB5B EQ PUSH2 0x103 JUMPI DUP1 PUSH4 0xC7F898F0 EQ PUSH2 0x121 JUMPI DUP1 PUSH4 0xE0C70B66 EQ PUSH2 0x13D JUMPI DUP1 PUSH4 0xF2FDE38B EQ PUSH2 0x147 JUMPI PUSH2 0x91 JUMP JUMPDEST DUP1 PUSH4 0x53F14DA EQ PUSH2 0x95 JUMPI DUP1 PUSH4 0x3F4BA83A EQ PUSH2 0xB3 JUMPI DUP1 PUSH4 0x42CDE4E8 EQ PUSH2 0xBD JUMPI DUP1 PUSH4 0x5C975ABB EQ PUSH2 0xDB JUMPI JUMPDEST PUSH0 PUSH0 REVERT JUMPDEST PUSH2 0x9D PUSH2 0x163 JUMP JUMPDEST PUSH1 0x40 MLOAD PUSH2 0xAA SWAP2 SWAP1 PUSH2 0x5CC JUMP JUMPDEST PUSH1 0x40 MLOAD DUP1 SWAP2 SUB SWAP1 RETURN JUMPDEST PUSH2 0xBB PUSH2 0x169 JUMP JUMPDEST STOP JUMPDEST PUSH2 0xC5 PUSH2 0x17B JUMP JUMPDEST PUSH1 0x40 MLOAD PUSH2 0xD2 SWAP2 SWAP1 PUSH2 0x5CC JUMP JUMPDEST PUSH1 0x40 MLOAD DUP1 SWAP2 SUB SWAP1 RETURN JUMPDEST PUSH2 0xE3 PUSH2 0x181 JUMP JUMPDEST PUSH1 0x40 MLOAD PUSH2 0xF0 SWAP2 SWAP1 PUSH2 0x5FF JUMP JUMPDEST PUSH1 0x40 MLOAD DUP1 SWAP2 SUB SWAP1 RETURN JUMPDEST PUSH2 0x101 PUSH2 0x195 JUMP JUMPDEST STOP JUMPDEST PUSH2 0x10B PUSH2 0x1A8 JUMP JUMPDEST PUSH1 0x40 MLOAD PUSH2 0x118 SWAP2 SWAP1 PUSH2 0x657 JUMP JUMPDEST PUSH1 0x40 MLOAD DUP1 SWAP2 SUB SWAP1 RETURN JUMPDEST PUSH2 0x13B PUSH1 0x4 DUP1 CALLDATASIZE SUB DUP2 ADD SWAP1 PUSH2 0x136 SWAP2 SWAP1 PUSH2 0x69E JUMP JUMPDEST PUSH2 0x1D0 JUMP JUMPDEST STOP JUMPDEST PUSH2 0x145 PUSH2 0x281 JUMP JUMPDEST STOP JUMPDEST PUSH2 0x161 PUSH1 0x4 DUP1 CALLDATASIZE SUB DUP2 ADD SWAP1 PUSH2 0x15C SWAP2 SWAP1 PUSH2 0x6F3 JUMP JUMPDEST PUSH2 0x28B JUMP JUMPDEST STOP JUMPDEST PUSH1 0x1 SLOAD DUP2 JUMP JUMPDEST PUSH2 0x171 PUSH2 0x30F JUMP JUMPDEST PUSH2 0x179 PUSH2 0x396 JUMP JUMPDEST JUMP JUMPDEST PUSH1 0x2 SLOAD DUP2 JUMP JUMPDEST PUSH0 PUSH0 PUSH0 SWAP1 SLOAD SWAP1 PUSH2 0x100 EXP SWAP1 DIV PUSH1 0xFF AND SWAP1 POP SWAP1 JUMP JUMPDEST PUSH2 0x19D PUSH2 0x30F JUMP JUMPDEST PUSH2 0x1A6 PUSH0 PUSH2 0x3F6 JUMP JUMPDEST JUMP JUMPDEST PUSH0 PUSH0 PUSH1 0x1 SWAP1 SLOAD SWAP1 PUSH2 0x100 EXP SWAP1 DIV PUSH20 0xFFFFFFFFFFFFFFFFFFFFFFFFFFFFFFFFFFFFFFFF AND SWAP1 POP SWAP1 JUMP JUMPDEST PUSH2 0x1D8 PUSH2 0x30F JUMP JUMPDEST PUSH0 DUP2 GT PUSH2 0x21A JUMPI PUSH1 0x40 MLOAD PUSH32 0x8C379A000000000000000000000000000000000000000000000000000000000 DUP2 MSTORE PUSH1 0x4 ADD PUSH2 0x211 SWAP1 PUSH2 0x778 JUMP JUMPDEST PUSH1 0x40 MLOAD DUP1 SWAP2 SUB SWAP1 REVERT JUMPDEST PUSH0 PUSH1 0x1 SLOAD GT ISZERO PUSH2 0x277 JUMPI PUSH0 DUP2 PUSH1 0x1 SLOAD GT PUSH2 0x234 JUMPI PUSH0 PUSH2 0x243 JUMP JUMPDEST DUP2 PUSH1 0x1 SLOAD PUSH2 0x242 SWAP2 SWAP1 PUSH2 0x7C3 JUMP JUMPDEST JUMPDEST SWAP1 POP PUSH0 PUSH1 0x1 SLOAD PUSH1 0x64 DUP4 PUSH2 0x256 SWAP2 SWAP1 PUSH2 0x7F6 JUMP JUMPDEST PUSH2 0x260 SWAP2 SWAP1 PUSH2 0x864 JUMP JUMPDEST SWAP1 POP PUSH1 0x2 SLOAD DUP2 LT PUSH2 0x274 JUMPI PUSH2 0x273 PUSH2 0x4B9 JUMP JUMPDEST JUMPDEST POP POP JUMPDEST DUP1 PUSH1 0x1 DUP2 SWAP1 SSTORE POP POP JUMP JUMPDEST PUSH2 0x289 PUSH2 0x51A JUMP JUMPDEST JUMP JUMPDEST PUSH2 0x293 PUSH2 0x30F JUMP JUMPDEST PUSH0 PUSH20 0xFFFFFFFFFFFFFFFFFFFFFFFFFFFFFFFFFFFFFFFF AND DUP2 PUSH20 0xFFFFFFFFFFFFFFFFFFFFFFFFFFFFFFFFFFFFFFFF AND SUB PUSH2 0x303 JUMPI PUSH0 PUSH1 0x40 MLOAD PUSH32 0x1E4FBDF700000000000000000000000000000000000000000000000000000000 DUP2 MSTORE PUSH1 0x4 ADD PUSH2 0x2FA SWAP2 SWAP1 PUSH2 0x657 JUMP JUMPDEST PUSH1 0x40 MLOAD DUP1 SWAP2 SUB SWAP1 REVERT JUMPDEST PUSH2 0x30C DUP2 PUSH2 0x3F6 JUMP JUMPDEST POP JUMP JUMPDEST PUSH2 0x317 PUSH2 0x564 JUMP JUMPDEST PUSH20 0xFFFFFFFFFFFFFFFFFFFFFFFFFFFFFFFFFFFFFFFF AND PUSH2 0x335 PUSH2 0x1A8 JUMP JUMPDEST PUSH20 0xFFFFFFFFFFFFFFFFFFFFFFFFFFFFFFFFFFFFFFFF AND EQ PUSH2 0x394 JUMPI PUSH2 0x358 PUSH2 0x564 JUMP JUMPDEST PUSH1 0x40 MLOAD PUSH32 0x118CDAA700000000000000000000000000000000000000000000000000000000 DUP2 MSTORE PUSH1 0x4 ADD PUSH2 0x38B SWAP2 SWAP1 PUSH2 0x657 JUMP JUMPDEST PUSH1 0x40 MLOAD DUP1 SWAP2 SUB SWAP1 REVERT JUMPDEST JUMP JUMPDEST PUSH2 0x39E PUSH2 0x56B JUMP JUMPDEST PUSH0 PUSH0 PUSH0 PUSH2 0x100 EXP DUP2 SLOAD DUP2 PUSH1 0xFF MUL NOT AND SWAP1 DUP4 ISZERO ISZERO MUL OR SWAP1 SSTORE POP PUSH32 0x5DB9EE0A495BF2E6FF9C91A7834C1BA4FDD244A5E8AA4E537BD38AEAE4B073AA PUSH2 0x3DF PUSH2 0x564 JUMP JUMPDEST PUSH1 0x40 MLOAD PUSH2 0x3EC SWAP2 SWAP1 PUSH2 0x657 JUMP JUMPDEST PUSH1 0x40 MLOAD DUP1 SWAP2 SUB SWAP1 LOG1 JUMP JUMPDEST PUSH0 PUSH0 PUSH1 0x1 SWAP1 SLOAD SWAP1 PUSH2 0x100 EXP SWAP1 DIV PUSH20 0xFFFFFFFFFFFFFFFFFFFFFFFFFFFFFFFFFFFFFFFF AND SWAP1 POP DUP2 PUSH0 PUSH1 0x1 PUSH2 0x100 EXP DUP2 SLOAD DUP2 PUSH20 0xFFFFFFFFFFFFFFFFFFFFFFFFFFFFFFFFFFFFFFFF MUL NOT AND SWAP1 DUP4 PUSH20 0xFFFFFFFFFFFFFFFFFFFFFFFFFFFFFFFFFFFFFFFF AND MUL OR SWAP1 SSTORE POP DUP2 PUSH20 0xFFFFFFFFFFFFFFFFFFFFFFFFFFFFFFFFFFFFFFFF AND DUP2 PUSH20 0xFFFFFFFFFFFFFFFFFFFFFFFFFFFFFFFFFFFFFFFF AND PUSH32 0x8BE0079C531659141344CD1FD0A4F28419497F9722A3DAAFE3B4186F6B6457E0 PUSH1 0x40 MLOAD PUSH1 0x40 MLOAD DUP1 SWAP2 SUB SWAP1 LOG3 POP POP JUMP JUMPDEST PUSH2 0x4C1 PUSH2 0x51A JUMP JUMPDEST PUSH1 0x1 PUSH0 PUSH0 PUSH2 0x100 EXP DUP2 SLOAD DUP2 PUSH1 0xFF MUL NOT AND SWAP1 DUP4 ISZERO ISZERO MUL OR SWAP1 SSTORE POP PUSH32 0x62E78CEA01BEE320CD4E420270B5EA74000D11B0C9F74754EBDBFC544B05A258 PUSH2 0x503 PUSH2 0x564 JUMP JUMPDEST PUSH1 0x40 MLOAD PUSH2 0x510 SWAP2 SWAP1 PUSH2 0x657 JUMP JUMPDEST PUSH1 0x40 MLOAD DUP1 SWAP2 SUB SWAP1 LOG1 JUMP JUMPDEST PUSH2 0x522 PUSH2 0x181 JUMP JUMPDEST ISZERO PUSH2 0x562 JUMPI PUSH1 0x40 MLOAD PUSH32 0x8C379A000000000000000000000000000000000000000000000000000000000 DUP2 MSTORE PUSH1 0x4 ADD PUSH2 0x559 SWAP1 PUSH2 0x8DE JUMP JUMPDEST PUSH1 0x40 MLOAD DUP1 SWAP2 SUB SWAP1 REVERT JUMPDEST JUMP JUMPDEST PUSH0 CALLER SWAP1 POP SWAP1 JUMP JUMPDEST PUSH2 0x573 PUSH2 0x181 JUMP JUMPDEST PUSH2 0x5B2 JUMPI PUSH1 0x40 MLOAD PUSH32 0x8C379A000000000000000000000000000000000000000000000000000000000 DUP2 MSTORE PUSH1 0x4 ADD PUSH2 0x5A9 SWAP1 PUSH2 0x946 JUMP JUMPDEST PUSH1 0x40 MLOAD DUP1 SWAP2 SUB SWAP1 REVERT JUMPDEST JUMP JUMPDEST PUSH0 DUP2 SWAP1 POP SWAP2 SWAP1 POP JUMP JUMPDEST PUSH2 0x5C6 DUP2 PUSH2 0x5B4 JUMP JUMPDEST DUP3 MSTORE POP POP JUMP JUMPDEST PUSH0 PUSH1 0x20 DUP3 ADD SWAP1 POP PUSH2 0x5DF PUSH0 DUP4 ADD DUP5 PUSH2 0x5BD JUMP JUMPDEST SWAP3 SWAP2 POP POP JUMP JUMPDEST PUSH0 DUP2 ISZERO ISZERO SWAP1 POP SWAP2 SWAP1 POP JUMP JUMPDEST PUSH2 0x5F9 DUP2 PUSH2 0x5E5 JUMP JUMPDEST DUP3 MSTORE POP POP JUMP JUMPDEST PUSH0 PUSH1 0x20 DUP3 ADD SWAP1 POP PUSH2 0x612 PUSH0 DUP4 ADD DUP5 PUSH2 0x5F0 JUMP JUMPDEST SWAP3 SWAP2 POP POP JUMP JUMPDEST PUSH0 PUSH20 0xFFFFFFFFFFFFFFFFFFFFFFFFFFFFFFFFFFFFFFFF DUP3 AND SWAP1 POP SWAP2 SWAP1 POP JUMP JUMPDEST PUSH0 PUSH2 0x641 DUP3 PUSH2 0x618 JUMP JUMPDEST SWAP1 POP SWAP2 SWAP1 POP JUMP JUMPDEST PUSH2 0x651 DUP2 PUSH2 0x637 JUMP JUMPDEST DUP3 MSTORE POP POP JUMP JUMPDEST PUSH0 PUSH1 0x20 DUP3 ADD SWAP1 POP PUSH2 0x66A PUSH0 DUP4 ADD DUP5 PUSH2 0x648 JUMP JUMPDEST SWAP3 SWAP2 POP POP JUMP JUMPDEST PUSH0 PUSH0 REVERT JUMPDEST PUSH2 0x67D DUP2 PUSH2 0x5B4 JUMP JUMPDEST DUP2 EQ PUSH2 0x687 JUMPI PUSH0 PUSH0 REVERT JUMPDEST POP JUMP JUMPDEST PUSH0 DUP2 CALLDATALOAD SWAP1 POP PUSH2 0x698 DUP2 PUSH2 0x674 JUMP JUMPDEST SWAP3 SWAP2 POP POP JUMP JUMPDEST PUSH0 PUSH1 0x20 DUP3 DUP5 SUB SLT ISZERO PUSH2 0x6B3 JUMPI PUSH2 0x6B2 PUSH2 0x670 JUMP JUMPDEST JUMPDEST PUSH0 PUSH2 0x6C0 DUP5 DUP3 DUP6 ADD PUSH2 0x68A JUMP JUMPDEST SWAP2 POP POP SWAP3 SWAP2 POP POP JUMP JUMPDEST PUSH2 0x6D2 DUP2 PUSH2 0x637 JUMP JUMPDEST DUP2 EQ PUSH2 0x6DC JUMPI PUSH0 PUSH0 REVERT JUMPDEST POP JUMP JUMPDEST PUSH0 DUP2 CALLDATALOAD SWAP1 POP PUSH2 0x6ED DUP2 PUSH2 0x6C9 JUMP JUMPDEST SWAP3 SWAP2 POP POP JUMP JUMPDEST PUSH0 PUSH1 0x20 DUP3 DUP5 SUB SLT ISZERO PUSH2 0x708 JUMPI PUSH2 0x707 PUSH2 0x670 JUMP JUMPDEST JUMPDEST PUSH0 PUSH2 0x715 DUP5 DUP3 DUP6 ADD PUSH2 0x6DF JUMP JUMPDEST SWAP2 POP POP SWAP3 SWAP2 POP POP JUMP JUMPDEST PUSH0 DUP3 DUP3 MSTORE PUSH1 0x20 DUP3 ADD SWAP1 POP SWAP3 SWAP2 POP POP JUMP JUMPDEST PUSH32 0x496E76616C696420707269636500000000000000000000000000000000000000 PUSH0 DUP3 ADD MSTORE POP JUMP JUMPDEST PUSH0 PUSH2 0x762 PUSH1 0xD DUP4 PUSH2 0x71E JUMP JUMPDEST SWAP2 POP PUSH2 0x76D DUP3 PUSH2 0x72E JUMP JUMPDEST PUSH1 0x20 DUP3 ADD SWAP1 POP SWAP2 SWAP1 POP JUMP JUMPDEST PUSH0 PUSH1 0x20 DUP3 ADD SWAP1 POP DUP2 DUP2 SUB PUSH0 DUP4 ADD MSTORE PUSH2 0x78F DUP2 PUSH2 0x756 JUMP JUMPDEST SWAP1 POP SWAP2 SWAP1 POP JUMP JUMPDEST PUSH32 0x4E487B7100000000000000000000000000000000000000000000000000000000 PUSH0 MSTORE PUSH1 0x11 PUSH1 0x4 MSTORE PUSH1 0x24 PUSH0 REVERT JUMPDEST PUSH0 PUSH2 0x7CD DUP3 PUSH2 0x5B4 JUMP JUMPDEST SWAP2 POP PUSH2 0x7D8 DUP4 PUSH2 0x5B4 JUMP JUMPDEST SWAP3 POP DUP3 DUP3 SUB SWAP1 POP DUP2 DUP2 GT ISZERO PUSH2 0x7F0 JUMPI PUSH2 0x7EF PUSH2 0x796 JUMP JUMPDEST JUMPDEST SWAP3 SWAP2 POP POP JUMP JUMPDEST PUSH0 PUSH2 0x800 DUP3 PUSH2 0x5B4 JUMP JUMPDEST SWAP2 POP PUSH2 0x80B DUP4 PUSH2 0x5B4 JUMP JUMPDEST SWAP3 POP DUP3 DUP3 MUL PUSH2 0x819 DUP2 PUSH2 0x5B4 JUMP JUMPDEST SWAP2 POP DUP3 DUP3 DIV DUP5 EQ DUP4 ISZERO OR PUSH2 0x830 JUMPI PUSH2 0x82F PUSH2 0x796 JUMP JUMPDEST JUMPDEST POP SWAP3 SWAP2 POP POP JUMP JUMPDEST PUSH32 0x4E487B7100000000000000000000000000000000000000000000000000000000 PUSH0 MSTORE PUSH1 0x12 PUSH1 0x4 MSTORE PUSH1 0x24 PUSH0 REVERT JUMPDEST PUSH0 PUSH2 0x86E DUP3 PUSH2 0x5B4 JUMP JUMPDEST SWAP2 POP PUSH2 0x879 DUP4 PUSH2 0x5B4 JUMP JUMPDEST SWAP3 POP DUP3 PUSH2 0x889 JUMPI PUSH2 0x888 PUSH2 0x837 JUMP JUMPDEST JUMPDEST DUP3 DUP3 DIV SWAP1 POP SWAP3 SWAP2 POP POP JUMP JUMPDEST PUSH32 0x5061757361626C653A2070617573656400000000000000000000000000000000 PUSH0 DUP3 ADD MSTORE POP JUMP JUMPDEST PUSH0 PUSH2 0x8C8 PUSH1 0x10 DUP4 PUSH2 0x71E JUMP JUMPDEST SWAP2 POP PUSH2 0x8D3 DUP3 PUSH2 0x894 JUMP JUMPDEST PUSH1 0x20 DUP3 ADD SWAP1 POP SWAP2 SWAP1 POP JUMP JUMPDEST PUSH0 PUSH1 0x20 DUP3 ADD SWAP1 POP DUP2 DUP2 SUB PUSH0 DUP4 ADD MSTORE PUSH2 0x8F5 DUP2 PUSH2 0x8BC JUMP JUMPDEST SWAP1 POP SWAP2 SWAP1 POP JUMP JUMPDEST PUSH32 0x5061757361626C653A206E6F7420706175736564000000000000000000000000 PUSH0 DUP3 ADD MSTORE POP JUMP JUMPDEST PUSH0 PUSH2 0x930 PUSH1 0x14 DUP4 PUSH2 0x71E JUMP JUMPDEST SWAP2 POP PUSH2 0x93B DUP3 PUSH2 0x8FC JUMP JUMPDEST PUSH1 0x20 DUP3 ADD SWAP1 POP SWAP2 SWAP1 POP JUMP JUMPDEST PUSH0 PUSH1 0x20 DUP3 ADD SWAP1 POP DUP2 DUP2 SUB PUSH0 DUP4 ADD MSTORE PUSH2 0x95D DUP2 PUSH2 0x924 JUMP JUMPDEST SWAP1 POP SWAP2 SWAP1 POP JUMP INVALID LOG2 PUSH5 0x6970667358 0x22 SLT KECCAK256 RETF 0x4B SHR PUSH0 0xBF 0xE8 0xAB 0xF PUSH7 0x608FB099911766 CREATE CALLER PUSH27 0x9F8FA6D1500B9C68E06074A36464736F6C634300081D0033000000 "
				},
				"gasEstimates": {
					"creation": {
						"codeDepositCost": "491600",
						"executionCost": "infinite",
						"totalCost": "infinite"
					},
					"external": {
						"executeTrade()": "2696",
						"lastPrice()": "2426",
						"owner()": "2587",
						"paused()": "2539",
						"renounceOwnership()": "infinite",
						"reportPrice(uint256)": "infinite",
						"threshold()": "2470",
						"transferOwnership(address)": "infinite",
						"unpause()": "infinite"
					}
				},
				"methodIdentifiers": {
					"executeTrade()": "e0c70b66",
					"lastPrice()": "053f14da",
					"owner()": "8da5cb5b",
					"paused()": "5c975abb",
					"renounceOwnership()": "715018a6",
					"reportPrice(uint256)": "c7f898f0",
					"threshold()": "42cde4e8",
					"transferOwnership(address)": "f2fde38b",
					"unpause()": "3f4ba83a"
				}
			},
			"storageLayout": {
				"storage": [
					{
						"astId": 165,
						"contract": "F/FlashCrashAutoPause.sol:FlashCrashAutoPause",
						"label": "_paused",
						"offset": 0,
						"slot": "0",
						"type": "t_bool"
					},
					{
						"astId": 8,
						"contract": "F/FlashCrashAutoPause.sol:FlashCrashAutoPause",
						"label": "_owner",
						"offset": 1,
						"slot": "0",
						"type": "t_address"
					},
					{
						"astId": 295,
						"contract": "F/FlashCrashAutoPause.sol:FlashCrashAutoPause",
						"label": "lastPrice",
						"offset": 0,
						"slot": "1",
						"type": "t_uint256"
					},
					{
						"astId": 297,
						"contract": "F/FlashCrashAutoPause.sol:FlashCrashAutoPause",
						"label": "threshold",
						"offset": 0,
						"slot": "2",
						"type": "t_uint256"
					}
				],
				"types": {
					"t_address": {
						"encoding": "inplace",
						"label": "address",
						"numberOfBytes": "20"
					},
					"t_bool": {
						"encoding": "inplace",
						"label": "bool",
						"numberOfBytes": "1"
					},
					"t_uint256": {
						"encoding": "inplace",
						"label": "uint256",
						"numberOfBytes": "32"
					}
				}
			},
			"userdoc": {
				"kind": "user",
				"methods": {},
				"version": 1
			}
		}
	}
}