{
	"F/FairAIToken.sol": {
		"FairAIToken": {
			"abi": [
				{
					"inputs": [
						{
							"internalType": "uint256",
							"name": "initialSupply",
							"type": "uint256"
						},
						{
							"internalType": "uint256",
							"name": "_feePercentage",
							"type": "uint256"
						},
						{
							"internalType": "address",
							"name": "_feeRecipient",
							"type": "address"
						}
					],
					"stateMutability": "nonpayable",
					"type": "constructor"
				},
				{
					"inputs": [
						{
							"internalType": "address",
							"name": "spender",
							"type": "address"
						},
						{
							"internalType": "uint256",
							"name": "allowance",
							"type": "uint256"
						},
						{
							"internalType": "uint256",
							"name": "needed",
							"type": "uint256"
						}
					],
					"name": "ERC20InsufficientAllowance",
					"type": "error"
				},
				{
					"inputs": [
						{
							"internalType": "address",
							"name": "sender",
							"type": "address"
						},
						{
							"internalType": "uint256",
							"name": "balance",
							"type": "uint256"
						},
						{
							"internalType": "uint256",
							"name": "needed",
							"type": "uint256"
						}
					],
					"name": "ERC20InsufficientBalance",
					"type": "error"
				},
				{
					"inputs": [
						{
							"internalType": "address",
							"name": "approver",
							"type": "address"
						}
					],
					"name": "ERC20InvalidApprover",
					"type": "error"
				},
				{
					"inputs": [
						{
							"internalType": "address",
							"name": "receiver",
							"type": "address"
						}
					],
					"name": "ERC20InvalidReceiver",
					"type": "error"
				},
				{
					"inputs": [
						{
							"internalType": "address",
							"name": "sender",
							"type": "address"
						}
					],
					"name": "ERC20InvalidSender",
					"type": "error"
				},
				{
					"inputs": [
						{
							"internalType": "address",
							"name": "spender",
							"type": "address"
						}
					],
					"name": "ERC20InvalidSpender",
					"type": "error"
				},
				{
					"inputs": [
						{
							"internalType": "address",
							"name": "owner",
							"type": "address"
						}
					],
					"name": "OwnableInvalidOwner",
					"type": "error"
				},
				{
					"inputs": [
						{
							"internalType": "address",
							"name": "account",
							"type": "address"
						}
					],
					"name": "OwnableUnauthorizedAccount",
					"type": "error"
				},
				{
					"anonymous": false,
					"inputs": [
						{
							"indexed": true,
							"internalType": "address",
							"name": "owner",
							"type": "address"
						},
						{
							"indexed": true,
							"internalType": "address",
							"name": "spender",
							"type": "address"
						},
						{
							"indexed": false,
							"internalType": "uint256",
							"name": "value",
							"type": "uint256"
						}
					],
					"name": "Approval",
					"type": "event"
				},
				{
					"anonymous": false,
					"inputs": [
						{
							"indexed": false,
							"internalType": "address",
							"name": "newFeeRecipient",
							"type": "address"
						}
					],
					"name": "FeeRecipientUpdated",
					"type": "event"
				},
				{
					"anonymous": false,
					"inputs": [
						{
							"indexed": false,
							"internalType": "uint256",
							"name": "newFeePercentage",
							"type": "uint256"
						}
					],
					"name": "FeeUpdated",
					"type": "event"
				},
				{
					"anonymous": false,
					"inputs": [
						{
							"indexed": true,
							"internalType": "address",
							"name": "previousOwner",
							"type": "address"
						},
						{
							"indexed": true,
							"internalType": "address",
							"name": "newOwner",
							"type": "address"
						}
					],
					"name": "OwnershipTransferred",
					"type": "event"
				},
				{
					"anonymous": false,
					"inputs": [
						{
							"indexed": true,
							"internalType": "address",
							"name": "from",
							"type": "address"
						},
						{
							"indexed": true,
							"internalType": "address",
							"name": "to",
							"type": "address"
						},
						{
							"indexed": false,
							"internalType": "uint256",
							"name": "value",
							"type": "uint256"
						}
					],
					"name": "Transfer",
					"type": "event"
				},
				{
					"inputs": [
						{
							"internalType": "address",
							"name": "owner",
							"type": "address"
						},
						{
							"internalType": "address",
							"name": "spender",
							"type": "address"
						}
					],
					"name": "allowance",
					"outputs": [
						{
							"internalType": "uint256",
							"name": "",
							"type": "uint256"
						}
					],
					"stateMutability": "view",
					"type": "function"
				},
				{
					"inputs": [
						{
							"internalType": "address",
							"name": "spender",
							"type": "address"
						},
						{
							"internalType": "uint256",
							"name": "value",
							"type": "uint256"
						}
					],
					"name": "approve",
					"outputs": [
						{
							"internalType": "bool",
							"name": "",
							"type": "bool"
						}
					],
					"stateMutability": "nonpayable",
					"type": "function"
				},
				{
					"inputs": [
						{
							"internalType": "address",
							"name": "account",
							"type": "address"
						}
					],
					"name": "balanceOf",
					"outputs": [
						{
							"internalType": "uint256",
							"name": "",
							"type": "uint256"
						}
					],
					"stateMutability": "view",
					"type": "function"
				},
				{
					"inputs": [],
					"name": "decimals",
					"outputs": [
						{
							"internalType": "uint8",
							"name": "",
							"type": "uint8"
						}
					],
					"stateMutability": "view",
					"type": "function"
				},
				{
					"inputs": [],
					"name": "feePercentage",
					"outputs": [
						{
							"internalType": "uint256",
							"name": "",
							"type": "uint256"
						}
					],
					"stateMutability": "view",
					"type": "function"
				},
				{
					"inputs": [],
					"name": "feeRecipient",
					"outputs": [
						{
							"internalType": "address",
							"name": "",
							"type": "address"
						}
					],
					"stateMutability": "view",
					"type": "function"
				},
				{
					"inputs": [],
					"name": "name",
					"outputs": [
						{
							"internalType": "string",
							"name": "",
							"type": "string"
						}
					],
					"stateMutability": "view",
					"type": "function"
				},
				{
					"inputs": [],
					"name": "owner",
					"outputs": [
						{
							"internalType": "address",
							"name": "",
							"type": "address"
						}
					],
					"stateMutability": "view",
					"type": "function"
				},
				{
					"inputs": [],
					"name": "renounceOwnership",
					"outputs": [],
					"stateMutability": "nonpayable",
					"type": "function"
				},
				{
					"inputs": [],
					"name": "symbol",
					"outputs": [
						{
							"internalType": "string",
							"name": "",
							"type": "string"
						}
					],
					"stateMutability": "view",
					"type": "function"
				},
				{
					"inputs": [],
					"name": "totalSupply",
					"outputs": [
						{
							"internalType": "uint256",
							"name": "",
							"type": "uint256"
						}
					],
					"stateMutability": "view",
					"type": "function"
				},
				{
					"inputs": [
						{
							"internalType": "address",
							"name": "recipient",
							"type": "address"
						},
						{
							"internalType": "uint256",
							"name": "amount",
							"type": "uint256"
						}
					],
					"name": "transfer",
					"outputs": [
						{
							"internalType": "bool",
							"name": "",
							"type": "bool"
						}
					],
					"stateMutability": "nonpayable",
					"type": "function"
				},
				{
					"inputs": [
						{
							"internalType": "address",
							"name": "sender",
							"type": "address"
						},
						{
							"internalType": "address",
							"name": "recipient",
							"type": "address"
						},
						{
							"internalType": "uint256",
							"name": "amount",
							"type": "uint256"
						}
					],
					"name": "transferFrom",
					"outputs": [
						{
							"internalType": "bool",
							"name": "",
							"type": "bool"
						}
					],
					"stateMutability": "nonpayable",
					"type": "function"
				},
				{
					"inputs": [
						{
							"internalType": "address",
							"name": "newOwner",
							"type": "address"
						}
					],
					"name": "transferOwnership",
					"outputs": [],
					"stateMutability": "nonpayable",
					"type": "function"
				},
				{
					"inputs": [
						{
							"internalType": "uint256",
							"name": "newFeePercentage",
							"type": "uint256"
						}
					],
					"name": "updateFeePercentage",
					"outputs": [],
					"stateMutability": "nonpayable",
					"type": "function"
				},
				{
					"inputs": [
						{
							"internalType": "address",
							"name": "newFeeRecipient",
							"type": "address"
						}
					],
					"name": "updateFeeRecipient",
					"outputs": [],
					"stateMutability": "nonpayable",
					"type": "function"
				}
			],
			"devdoc": {
				"details": "ERC20 Token with a dynamic fee mechanism.",
				"errors": {
					"ERC20InsufficientAllowance(address,uint256,uint256)": [
						{
							"details": "Indicates a failure with the `spender`’s `allowance`. Used in transfers.",
							"params": {
								"allowance": "Amount of tokens a `spender` is allowed to operate with.",
								"needed": "Minimum amount required to perform a transfer.",
								"spender": "Address that may be allowed to operate on tokens without being their owner."
							}
						}
					],
					"ERC20InsufficientBalance(address,uint256,uint256)": [
						{
							"details": "Indicates an error related to the current `balance` of a `sender`. Used in transfers.",
							"params": {
								"balance": "Current balance for the interacting account.",
								"needed": "Minimum amount required to perform a transfer.",
								"sender": "Address whose tokens are being transferred."
							}
						}
					],
					"ERC20InvalidApprover(address)": [
						{
							"details": "Indicates a failure with the `approver` of a token to be approved. Used in approvals.",
							"params": {
								"approver": "Address initiating an approval operation."
							}
						}
					],
					"ERC20InvalidReceiver(address)": [
						{
							"details": "Indicates a failure with the token `receiver`. Used in transfers.",
							"params": {
								"receiver": "Address to which tokens are being transferred."
							}
						}
					],
					"ERC20InvalidSender(address)": [
						{
							"details": "Indicates a failure with the token `sender`. Used in transfers.",
							"params": {
								"sender": "Address whose tokens are being transferred."
							}
						}
					],
					"ERC20InvalidSpender(address)": [
						{
							"details": "Indicates a failure with the `spender` to be approved. Used in approvals.",
							"params": {
								"spender": "Address that may be allowed to operate on tokens without being their owner."
							}
						}
					],
					"OwnableInvalidOwner(address)": [
						{
							"details": "The owner is not a valid owner account. (eg. `address(0)`)"
						}
					],
					"OwnableUnauthorizedAccount(address)": [
						{
							"details": "The caller account is not authorized to perform an operation."
						}
					]
				},
				"events": {
					"Approval(address,address,uint256)": {
						"details": "Emitted when the allowance of a `spender` for an `owner` is set by a call to {approve}. `value` is the new allowance."
					},
					"Transfer(address,address,uint256)": {
						"details": "Emitted when `value` tokens are moved from one account (`from`) to another (`to`). Note that `value` may be zero."
					}
				},
				"kind": "dev",
				"methods": {
					"allowance(address,address)": {
						"details": "See {IERC20-allowance}."
					},
					"approve(address,uint256)": {
						"details": "See {IERC20-approve}. NOTE: If `value` is the maximum `uint256`, the allowance is not updated on `transferFrom`. This is semantically equivalent to an infinite approval. Requirements: - `spender` cannot be the zero address."
					},
					"balanceOf(address)": {
						"details": "See {IERC20-balanceOf}."
					},
					"constructor": {
						"details": "Constructor that mints the initial supply and sets the fee parameters.",
						"params": {
							"_feePercentage": "Initial fee percentage in basis points.",
							"_feeRecipient": "Address that will receive the transfer fees.",
							"initialSupply": "Total token supply (in the smallest unit, e.g. wei for tokens)."
						}
					},
					"decimals()": {
						"details": "Returns the number of decimals used to get its user representation. For example, if `decimals` equals `2`, a balance of `505` tokens should be displayed to a user as `5.05` (`505 / 10 ** 2`). Tokens usually opt for a value of 18, imitating the relationship between Ether and Wei. This is the default value returned by this function, unless it's overridden. NOTE: This information is only used for _display_ purposes: it in no way affects any of the arithmetic of the contract, including {IERC20-balanceOf} and {IERC20-transfer}."
					},
					"name()": {
						"details": "Returns the name of the token."
					},
					"owner()": {
						"details": "Returns the address of the current owner."
					},
					"renounceOwnership()": {
						"details": "Leaves the contract without owner. It will not be possible to call `onlyOwner` functions. Can only be called by the current owner. NOTE: Renouncing ownership will leave the contract without an owner, thereby disabling any functionality that is only available to the owner."
					},
					"symbol()": {
						"details": "Returns the symbol of the token, usually a shorter version of the name."
					},
					"totalSupply()": {
						"details": "See {IERC20-totalSupply}."
					},
					"transfer(address,uint256)": {
						"details": "Overrides the public transfer function to include fee mechanism."
					},
					"transferFrom(address,address,uint256)": {
						"details": "Overrides the public transferFrom function to include fee mechanism."
					},
					"transferOwnership(address)": {
						"details": "Transfers ownership of the contract to a new account (`newOwner`). Can only be called by the current owner."
					},
					"updateFeePercentage(uint256)": {
						"details": "Allows the owner to update the fee percentage.",
						"params": {
							"newFeePercentage": "New fee percentage in basis points. Note: The fee is capped at 10% (1000 basis points) for security."
						}
					},
					"updateFeeRecipient(address)": {
						"details": "Allows the owner to update the fee recipient address.",
						"params": {
							"newFeeRecipient": "New fee recipient address."
						}
					}
				},
				"title": "FairAIToken",
				"version": 1
			},
			"evm": {
				"assembly": "    /* \"F/FairAIToken.sol\":248:3826  contract FairAIToken is ERC20, Ownable {... */\n  mstore(0x40, 0x80)\n    /* \"F/FairAIToken.sol\":920:1281  constructor(... */\n  callvalue\n  dup1\n  iszero\n  tag_1\n  jumpi\n  revert(0x00, 0x00)\ntag_1:\n  pop\n  mload(0x40)\n  sub(codesize, bytecodeSize)\n  dup1\n  bytecodeSize\n  dup4\n  codecopy\n  dup2\n  dup2\n  add\n  0x40\n  mstore\n  dup2\n  add\n  swap1\n  tag_2\n  swap2\n  swap1\n  tag_3\n  jump\t// in\ntag_2:\n    /* \"F/FairAIToken.sol\":1071:1081  msg.sender */\n  caller\n    /* \"@openzeppelin/contracts/token/ERC20/ERC20.sol\":1601:1714  constructor(string memory name_, string memory symbol_) {... */\n  mload(0x40)\n  dup1\n  0x40\n  add\n  0x40\n  mstore\n  dup1\n  0x0d\n  dup2\n  mstore\n  0x20\n  add\n  0x4661697220414920546f6b656e00000000000000000000000000000000000000\n  dup2\n  mstore\n  pop\n  mload(0x40)\n  dup1\n  0x40\n  add\n  0x40\n  mstore\n  dup1\n  0x04\n  dup2\n  mstore\n  0x20\n  add\n  0x4641495400000000000000000000000000000000000000000000000000000000\n  dup2\n  mstore\n  pop\n    /* \"@openzeppelin/contracts/token/ERC20/ERC20.sol\":1675:1680  name_ */\n  dup2\n    /* \"@openzeppelin/contracts/token/ERC20/ERC20.sol\":1667:1672  _name */\n  0x03\n    /* \"@openzeppelin/contracts/token/ERC20/ERC20.sol\":1667:1680  _name = name_ */\n  swap1\n  dup2\n  tag_8\n  swap2\n  swap1\n  tag_9\n  jump\t// in\ntag_8:\n  pop\n    /* \"@openzeppelin/contracts/token/ERC20/ERC20.sol\":1700:1707  symbol_ */\n  dup1\n    /* \"@openzeppelin/contracts/token/ERC20/ERC20.sol\":1690:1697  _symbol */\n  0x04\n    /* \"@openzeppelin/contracts/token/ERC20/ERC20.sol\":1690:1707  _symbol = symbol_ */\n  swap1\n  dup2\n  tag_10\n  swap2\n  swap1\n  tag_9\n  jump\t// in\ntag_10:\n  pop\n    /* \"@openzeppelin/contracts/token/ERC20/ERC20.sol\":1601:1714  constructor(string memory name_, string memory symbol_) {... */\n  pop\n  pop\n    /* \"@openzeppelin/contracts/access/Ownable.sol\":1297:1298  0 */\n  0x00\n    /* \"@openzeppelin/contracts/access/Ownable.sol\":1273:1299  initialOwner == address(0) */\n  0xffffffffffffffffffffffffffffffffffffffff\n  and\n    /* \"@openzeppelin/contracts/access/Ownable.sol\":1273:1285  initialOwner */\n  dup2\n    /* \"@openzeppelin/contracts/access/Ownable.sol\":1273:1299  initialOwner == address(0) */\n  0xffffffffffffffffffffffffffffffffffffffff\n  and\n  sub\n    /* \"@openzeppelin/contracts/access/Ownable.sol\":1269:1364  if (initialOwner == address(0)) {... */\n  tag_12\n  jumpi\n    /* \"@openzeppelin/contracts/access/Ownable.sol\":1350:1351  0 */\n  0x00\n    /* \"@openzeppelin/contracts/access/Ownable.sol\":1322:1353  OwnableInvalidOwner(address(0)) */\n  mload(0x40)\n  0x1e4fbdf700000000000000000000000000000000000000000000000000000000\n  dup2\n  mstore\n  0x04\n  add\n  tag_13\n  swap2\n  swap1\n  tag_14\n  jump\t// in\ntag_13:\n  mload(0x40)\n  dup1\n  swap2\n  sub\n  swap1\n  revert\n    /* \"@openzeppelin/contracts/access/Ownable.sol\":1269:1364  if (initialOwner == address(0)) {... */\ntag_12:\n    /* \"@openzeppelin/contracts/access/Ownable.sol\":1373:1405  _transferOwnership(initialOwner) */\n  tag_15\n    /* \"@openzeppelin/contracts/access/Ownable.sol\":1392:1404  initialOwner */\n  dup2\n    /* \"@openzeppelin/contracts/access/Ownable.sol\":1373:1391  _transferOwnership */\n  shl(0x20, tag_16)\n    /* \"@openzeppelin/contracts/access/Ownable.sol\":1373:1405  _transferOwnership(initialOwner) */\n  0x20\n  shr\n  jump\t// in\ntag_15:\n    /* \"@openzeppelin/contracts/access/Ownable.sol\":1225:1412  constructor(address initialOwner) {... */\n  pop\n    /* \"F/FairAIToken.sol\":1126:1127  0 */\n  0x00\n    /* \"F/FairAIToken.sol\":1101:1128  _feeRecipient != address(0) */\n  0xffffffffffffffffffffffffffffffffffffffff\n  and\n    /* \"F/FairAIToken.sol\":1101:1114  _feeRecipient */\n  dup2\n    /* \"F/FairAIToken.sol\":1101:1128  _feeRecipient != address(0) */\n  0xffffffffffffffffffffffffffffffffffffffff\n  and\n  sub\n    /* \"F/FairAIToken.sol\":1093:1154  require(_feeRecipient != address(0), \"Invalid fee recipient\") */\n  tag_18\n  jumpi\n  mload(0x40)\n  0x08c379a000000000000000000000000000000000000000000000000000000000\n  dup2\n  mstore\n  0x04\n  add\n  tag_19\n  swap1\n  tag_20\n  jump\t// in\ntag_19:\n  mload(0x40)\n  dup1\n  swap2\n  sub\n  swap1\n  revert\ntag_18:\n    /* \"F/FairAIToken.sol\":1164:1196  _mint(msg.sender, initialSupply) */\n  tag_21\n    /* \"F/FairAIToken.sol\":1170:1180  msg.sender */\n  caller\n    /* \"F/FairAIToken.sol\":1182:1195  initialSupply */\n  dup5\n    /* \"F/FairAIToken.sol\":1164:1169  _mint */\n  shl(0x20, tag_22)\n    /* \"F/FairAIToken.sol\":1164:1196  _mint(msg.sender, initialSupply) */\n  0x20\n  shr\n  jump\t// in\ntag_21:\n    /* \"F/FairAIToken.sol\":1222:1236  _feePercentage */\n  dup2\n    /* \"F/FairAIToken.sol\":1206:1219  feePercentage */\n  0x06\n    /* \"F/FairAIToken.sol\":1206:1236  feePercentage = _feePercentage */\n  dup2\n  swap1\n  sstore\n  pop\n    /* \"F/FairAIToken.sol\":1261:1274  _feeRecipient */\n  dup1\n    /* \"F/FairAIToken.sol\":1246:1258  feeRecipient */\n  0x07\n  0x00\n    /* \"F/FairAIToken.sol\":1246:1274  feeRecipient = _feeRecipient */\n  0x0100\n  exp\n  dup2\n  sload\n  dup2\n  0xffffffffffffffffffffffffffffffffffffffff\n  mul\n  not\n  and\n  swap1\n  dup4\n  0xffffffffffffffffffffffffffffffffffffffff\n  and\n  mul\n  or\n  swap1\n  sstore\n  pop\n    /* \"F/FairAIToken.sol\":920:1281  constructor(... */\n  pop\n  pop\n  pop\n    /* \"F/FairAIToken.sol\":248:3826  contract FairAIToken is ERC20, Ownable {... */\n  jump(tag_23)\n    /* \"@openzeppelin/contracts/access/Ownable.sol\":2912:3099  function _transferOwnership(address newOwner) internal virtual {... */\ntag_16:\n    /* \"@openzeppelin/contracts/access/Ownable.sol\":2985:3001  address oldOwner */\n  0x00\n    /* \"@openzeppelin/contracts/access/Ownable.sol\":3004:3010  _owner */\n  0x05\n  0x00\n  swap1\n  sload\n  swap1\n  0x0100\n  exp\n  swap1\n  div\n  0xffffffffffffffffffffffffffffffffffffffff\n  and\n    /* \"@openzeppelin/contracts/access/Ownable.sol\":2985:3010  address oldOwner = _owner */\n  swap1\n  pop\n    /* \"@openzeppelin/contracts/access/Ownable.sol\":3029:3037  newOwner */\n  dup2\n    /* \"@openzeppelin/contracts/access/Ownable.sol\":3020:3026  _owner */\n  0x05\n  0x00\n    /* \"@openzeppelin/contracts/access/Ownable.sol\":3020:3037  _owner = newOwner */\n  0x0100\n  exp\n  dup2\n  sload\n  dup2\n  0xffffffffffffffffffffffffffffffffffffffff\n  mul\n  not\n  and\n  swap1\n  dup4\n  0xffffffffffffffffffffffffffffffffffffffff\n  and\n  mul\n  or\n  swap1\n  sstore\n  pop\n    /* \"@openzeppelin/contracts/access/Ownable.sol\":3083:3091  newOwner */\n  dup2\n    /* \"@openzeppelin/contracts/access/Ownable.sol\":3052:3092  OwnershipTransferred(oldOwner, newOwner) */\n  0xffffffffffffffffffffffffffffffffffffffff\n  and\n    /* \"@openzeppelin/contracts/access/Ownable.sol\":3073:3081  oldOwner */\n  dup2\n    /* \"@openzeppelin/contracts/access/Ownable.sol\":3052:3092  OwnershipTransferred(oldOwner, newOwner) */\n  0xffffffffffffffffffffffffffffffffffffffff\n  and\n  0x8be0079c531659141344cd1fd0a4f28419497f9722a3daafe3b4186f6b6457e0\n  mload(0x40)\n  mload(0x40)\n  dup1\n  swap2\n  sub\n  swap1\n  log3\n    /* \"@openzeppelin/contracts/access/Ownable.sol\":2975:3099  {... */\n  pop\n    /* \"@openzeppelin/contracts/access/Ownable.sol\":2912:3099  function _transferOwnership(address newOwner) internal virtual {... */\n  pop\n  jump\t// out\n    /* \"@openzeppelin/contracts/token/ERC20/ERC20.sol\":7458:7666  function _mint(address account, uint256 value) internal {... */\ntag_22:\n    /* \"@openzeppelin/contracts/token/ERC20/ERC20.sol\":7547:7548  0 */\n  0x00\n    /* \"@openzeppelin/contracts/token/ERC20/ERC20.sol\":7528:7549  account == address(0) */\n  0xffffffffffffffffffffffffffffffffffffffff\n  and\n    /* \"@openzeppelin/contracts/token/ERC20/ERC20.sol\":7528:7535  account */\n  dup3\n    /* \"@openzeppelin/contracts/token/ERC20/ERC20.sol\":7528:7549  account == address(0) */\n  0xffffffffffffffffffffffffffffffffffffffff\n  and\n  sub\n    /* \"@openzeppelin/contracts/token/ERC20/ERC20.sol\":7524:7615  if (account == address(0)) {... */\n  tag_26\n  jumpi\n    /* \"@openzeppelin/contracts/token/ERC20/ERC20.sol\":7601:7602  0 */\n  0x00\n    /* \"@openzeppelin/contracts/token/ERC20/ERC20.sol\":7572:7604  ERC20InvalidReceiver(address(0)) */\n  mload(0x40)\n  0xec442f0500000000000000000000000000000000000000000000000000000000\n  dup2\n  mstore\n  0x04\n  add\n  tag_27\n  swap2\n  swap1\n  tag_14\n  jump\t// in\ntag_27:\n  mload(0x40)\n  dup1\n  swap2\n  sub\n  swap1\n  revert\n    /* \"@openzeppelin/contracts/token/ERC20/ERC20.sol\":7524:7615  if (account == address(0)) {... */\ntag_26:\n    /* \"@openzeppelin/contracts/token/ERC20/ERC20.sol\":7624:7659  _update(address(0), account, value) */\n  tag_28\n    /* \"@openzeppelin/contracts/token/ERC20/ERC20.sol\":7640:7641  0 */\n  0x00\n    /* \"@openzeppelin/contracts/token/ERC20/ERC20.sol\":7644:7651  account */\n  dup4\n    /* \"@openzeppelin/contracts/token/ERC20/ERC20.sol\":7653:7658  value */\n  dup4\n    /* \"@openzeppelin/contracts/token/ERC20/ERC20.sol\":7624:7631  _update */\n  shl(0x20, tag_29)\n    /* \"@openzeppelin/contracts/token/ERC20/ERC20.sol\":7624:7659  _update(address(0), account, value) */\n  0x20\n  shr\n  jump\t// in\ntag_28:\n    /* \"@openzeppelin/contracts/token/ERC20/ERC20.sol\":7458:7666  function _mint(address account, uint256 value) internal {... */\n  pop\n  pop\n  jump\t// out\n    /* \"@openzeppelin/contracts/token/ERC20/ERC20.sol\":6008:7115  function _update(address from, address to, uint256 value) internal virtual {... */\ntag_29:\n    /* \"@openzeppelin/contracts/token/ERC20/ERC20.sol\":6113:6114  0 */\n  0x00\n    /* \"@openzeppelin/contracts/token/ERC20/ERC20.sol\":6097:6115  from == address(0) */\n  0xffffffffffffffffffffffffffffffffffffffff\n  and\n    /* \"@openzeppelin/contracts/token/ERC20/ERC20.sol\":6097:6101  from */\n  dup4\n    /* \"@openzeppelin/contracts/token/ERC20/ERC20.sol\":6097:6115  from == address(0) */\n  0xffffffffffffffffffffffffffffffffffffffff\n  and\n  sub\n    /* \"@openzeppelin/contracts/token/ERC20/ERC20.sol\":6093:6633  if (from == address(0)) {... */\n  tag_31\n  jumpi\n    /* \"@openzeppelin/contracts/token/ERC20/ERC20.sol\":6249:6254  value */\n  dup1\n    /* \"@openzeppelin/contracts/token/ERC20/ERC20.sol\":6233:6245  _totalSupply */\n  0x02\n  0x00\n    /* \"@openzeppelin/contracts/token/ERC20/ERC20.sol\":6233:6254  _totalSupply += value */\n  dup3\n  dup3\n  sload\n  tag_32\n  swap2\n  swap1\n  tag_33\n  jump\t// in\ntag_32:\n  swap3\n  pop\n  pop\n  dup2\n  swap1\n  sstore\n  pop\n    /* \"@openzeppelin/contracts/token/ERC20/ERC20.sol\":6093:6633  if (from == address(0)) {... */\n  jump(tag_34)\ntag_31:\n    /* \"@openzeppelin/contracts/token/ERC20/ERC20.sol\":6285:6304  uint256 fromBalance */\n  0x00\n    /* \"@openzeppelin/contracts/token/ERC20/ERC20.sol\":6307:6316  _balances */\n  0x00\n    /* \"@openzeppelin/contracts/token/ERC20/ERC20.sol\":6307:6322  _balances[from] */\n  0x00\n    /* \"@openzeppelin/contracts/token/ERC20/ERC20.sol\":6317:6321  from */\n  dup6\n    /* \"@openzeppelin/contracts/token/ERC20/ERC20.sol\":6307:6322  _balances[from] */\n  0xffffffffffffffffffffffffffffffffffffffff\n  and\n  0xffffffffffffffffffffffffffffffffffffffff\n  and\n  dup2\n  mstore\n  0x20\n  add\n  swap1\n  dup2\n  mstore\n  0x20\n  add\n  0x00\n  keccak256\n  sload\n    /* \"@openzeppelin/contracts/token/ERC20/ERC20.sol\":6285:6322  uint256 fromBalance = _balances[from] */\n  swap1\n  pop\n    /* \"@openzeppelin/contracts/token/ERC20/ERC20.sol\":6354:6359  value */\n  dup2\n    /* \"@openzeppelin/contracts/token/ERC20/ERC20.sol\":6340:6351  fromBalance */\n  dup2\n    /* \"@openzeppelin/contracts/token/ERC20/ERC20.sol\":6340:6359  fromBalance < value */\n  lt\n    /* \"@openzeppelin/contracts/token/ERC20/ERC20.sol\":6336:6451  if (fromBalance < value) {... */\n  iszero\n  tag_35\n  jumpi\n    /* \"@openzeppelin/contracts/token/ERC20/ERC20.sol\":6411:6415  from */\n  dup4\n    /* \"@openzeppelin/contracts/token/ERC20/ERC20.sol\":6417:6428  fromBalance */\n  dup2\n    /* \"@openzeppelin/contracts/token/ERC20/ERC20.sol\":6430:6435  value */\n  dup4\n    /* \"@openzeppelin/contracts/token/ERC20/ERC20.sol\":6386:6436  ERC20InsufficientBalance(from, fromBalance, value) */\n  mload(0x40)\n  0xe450d38c00000000000000000000000000000000000000000000000000000000\n  dup2\n  mstore\n  0x04\n  add\n  tag_36\n  swap4\n  swap3\n  swap2\n  swap1\n  tag_37\n  jump\t// in\ntag_36:\n  mload(0x40)\n  dup1\n  swap2\n  sub\n  swap1\n  revert\n    /* \"@openzeppelin/contracts/token/ERC20/ERC20.sol\":6336:6451  if (fromBalance < value) {... */\ntag_35:\n    /* \"@openzeppelin/contracts/token/ERC20/ERC20.sol\":6603:6608  value */\n  dup2\n    /* \"@openzeppelin/contracts/token/ERC20/ERC20.sol\":6589:6600  fromBalance */\n  dup2\n    /* \"@openzeppelin/contracts/token/ERC20/ERC20.sol\":6589:6608  fromBalance - value */\n  sub\n    /* \"@openzeppelin/contracts/token/ERC20/ERC20.sol\":6571:6580  _balances */\n  0x00\n    /* \"@openzeppelin/contracts/token/ERC20/ERC20.sol\":6571:6586  _balances[from] */\n  0x00\n    /* \"@openzeppelin/contracts/token/ERC20/ERC20.sol\":6581:6585  from */\n  dup7\n    /* \"@openzeppelin/contracts/token/ERC20/ERC20.sol\":6571:6586  _balances[from] */\n  0xffffffffffffffffffffffffffffffffffffffff\n  and\n  0xffffffffffffffffffffffffffffffffffffffff\n  and\n  dup2\n  mstore\n  0x20\n  add\n  swap1\n  dup2\n  mstore\n  0x20\n  add\n  0x00\n  keccak256\n    /* \"@openzeppelin/contracts/token/ERC20/ERC20.sol\":6571:6608  _balances[from] = fromBalance - value */\n  dup2\n  swap1\n  sstore\n  pop\n    /* \"@openzeppelin/contracts/token/ERC20/ERC20.sol\":6271:6633  {... */\n  pop\n    /* \"@openzeppelin/contracts/token/ERC20/ERC20.sol\":6093:6633  if (from == address(0)) {... */\ntag_34:\n    /* \"@openzeppelin/contracts/token/ERC20/ERC20.sol\":6661:6662  0 */\n  0x00\n    /* \"@openzeppelin/contracts/token/ERC20/ERC20.sol\":6647:6663  to == address(0) */\n  0xffffffffffffffffffffffffffffffffffffffff\n  and\n    /* \"@openzeppelin/contracts/token/ERC20/ERC20.sol\":6647:6649  to */\n  dup3\n    /* \"@openzeppelin/contracts/token/ERC20/ERC20.sol\":6647:6663  to == address(0) */\n  0xffffffffffffffffffffffffffffffffffffffff\n  and\n  sub\n    /* \"@openzeppelin/contracts/token/ERC20/ERC20.sol\":6643:7068  if (to == address(0)) {... */\n  tag_38\n  jumpi\n    /* \"@openzeppelin/contracts/token/ERC20/ERC20.sol\":6826:6831  value */\n  dup1\n    /* \"@openzeppelin/contracts/token/ERC20/ERC20.sol\":6810:6822  _totalSupply */\n  0x02\n  0x00\n    /* \"@openzeppelin/contracts/token/ERC20/ERC20.sol\":6810:6831  _totalSupply -= value */\n  dup3\n  dup3\n  sload\n  sub\n  swap3\n  pop\n  pop\n  dup2\n  swap1\n  sstore\n  pop\n    /* \"@openzeppelin/contracts/token/ERC20/ERC20.sol\":6643:7068  if (to == address(0)) {... */\n  jump(tag_39)\ntag_38:\n    /* \"@openzeppelin/contracts/token/ERC20/ERC20.sol\":7038:7043  value */\n  dup1\n    /* \"@openzeppelin/contracts/token/ERC20/ERC20.sol\":7021:7030  _balances */\n  0x00\n    /* \"@openzeppelin/contracts/token/ERC20/ERC20.sol\":7021:7034  _balances[to] */\n  0x00\n    /* \"@openzeppelin/contracts/token/ERC20/ERC20.sol\":7031:7033  to */\n  dup5\n    /* \"@openzeppelin/contracts/token/ERC20/ERC20.sol\":7021:7034  _balances[to] */\n  0xffffffffffffffffffffffffffffffffffffffff\n  and\n  0xffffffffffffffffffffffffffffffffffffffff\n  and\n  dup2\n  mstore\n  0x20\n  add\n  swap1\n  dup2\n  mstore\n  0x20\n  add\n  0x00\n  keccak256\n  0x00\n    /* \"@openzeppelin/contracts/token/ERC20/ERC20.sol\":7021:7043  _balances[to] += value */\n  dup3\n  dup3\n  sload\n  add\n  swap3\n  pop\n  pop\n  dup2\n  swap1\n  sstore\n  pop\n    /* \"@openzeppelin/contracts/token/ERC20/ERC20.sol\":6643:7068  if (to == address(0)) {... */\ntag_39:\n    /* \"@openzeppelin/contracts/token/ERC20/ERC20.sol\":7098:7100  to */\n  dup2\n    /* \"@openzeppelin/contracts/token/ERC20/ERC20.sol\":7083:7108  Transfer(from, to, value) */\n  0xffffffffffffffffffffffffffffffffffffffff\n  and\n    /* \"@openzeppelin/contracts/token/ERC20/ERC20.sol\":7092:7096  from */\n  dup4\n    /* \"@openzeppelin/contracts/token/ERC20/ERC20.sol\":7083:7108  Transfer(from, to, value) */\n  0xffffffffffffffffffffffffffffffffffffffff\n  and\n  0xddf252ad1be2c89b69c2b068fc378daa952ba7f163c4a11628f55a4df523b3ef\n    /* \"@openzeppelin/contracts/token/ERC20/ERC20.sol\":7102:7107  value */\n  dup4\n    /* \"@openzeppelin/contracts/token/ERC20/ERC20.sol\":7083:7108  Transfer(from, to, value) */\n  mload(0x40)\n  tag_40\n  swap2\n  swap1\n  tag_41\n  jump\t// in\ntag_40:\n  mload(0x40)\n  dup1\n  swap2\n  sub\n  swap1\n  log3\n    /* \"@openzeppelin/contracts/token/ERC20/ERC20.sol\":6008:7115  function _update(address from, address to, uint256 value) internal virtual {... */\n  pop\n  pop\n  pop\n  jump\t// out\n    /* \"#utility.yul\":88:205   */\ntag_43:\n    /* \"#utility.yul\":197:198   */\n  0x00\n    /* \"#utility.yul\":194:195   */\n  0x00\n    /* \"#utility.yul\":187:199   */\n  revert\n    /* \"#utility.yul\":334:411   */\ntag_45:\n    /* \"#utility.yul\":371:378   */\n  0x00\n    /* \"#utility.yul\":400:405   */\n  dup2\n    /* \"#utility.yul\":389:405   */\n  swap1\n  pop\n    /* \"#utility.yul\":334:411   */\n  swap2\n  swap1\n  pop\n  jump\t// out\n    /* \"#utility.yul\":417:539   */\ntag_46:\n    /* \"#utility.yul\":490:514   */\n  tag_83\n    /* \"#utility.yul\":508:513   */\n  dup2\n    /* \"#utility.yul\":490:514   */\n  tag_45\n  jump\t// in\ntag_83:\n    /* \"#utility.yul\":483:488   */\n  dup2\n    /* \"#utility.yul\":480:515   */\n  eq\n    /* \"#utility.yul\":470:533   */\n  tag_84\n  jumpi\n    /* \"#utility.yul\":529:530   */\n  0x00\n    /* \"#utility.yul\":526:527   */\n  0x00\n    /* \"#utility.yul\":519:531   */\n  revert\n    /* \"#utility.yul\":470:533   */\ntag_84:\n    /* \"#utility.yul\":417:539   */\n  pop\n  jump\t// out\n    /* \"#utility.yul\":545:688   */\ntag_47:\n    /* \"#utility.yul\":602:607   */\n  0x00\n    /* \"#utility.yul\":633:639   */\n  dup2\n    /* \"#utility.yul\":627:640   */\n  mload\n    /* \"#utility.yul\":618:640   */\n  swap1\n  pop\n    /* \"#utility.yul\":649:682   */\n  tag_86\n    /* \"#utility.yul\":676:681   */\n  dup2\n    /* \"#utility.yul\":649:682   */\n  tag_46\n  jump\t// in\ntag_86:\n    /* \"#utility.yul\":545:688   */\n  swap3\n  swap2\n  pop\n  pop\n  jump\t// out\n    /* \"#utility.yul\":694:820   */\ntag_48:\n    /* \"#utility.yul\":731:738   */\n  0x00\n    /* \"#utility.yul\":771:813   */\n  0xffffffffffffffffffffffffffffffffffffffff\n    /* \"#utility.yul\":764:769   */\n  dup3\n    /* \"#utility.yul\":760:814   */\n  and\n    /* \"#utility.yul\":749:814   */\n  swap1\n  pop\n    /* \"#utility.yul\":694:820   */\n  swap2\n  swap1\n  pop\n  jump\t// out\n    /* \"#utility.yul\":826:922   */\ntag_49:\n    /* \"#utility.yul\":863:870   */\n  0x00\n    /* \"#utility.yul\":892:916   */\n  tag_89\n    /* \"#utility.yul\":910:915   */\n  dup3\n    /* \"#utility.yul\":892:916   */\n  tag_48\n  jump\t// in\ntag_89:\n    /* \"#utility.yul\":881:916   */\n  swap1\n  pop\n    /* \"#utility.yul\":826:922   */\n  swap2\n  swap1\n  pop\n  jump\t// out\n    /* \"#utility.yul\":928:1050   */\ntag_50:\n    /* \"#utility.yul\":1001:1025   */\n  tag_91\n    /* \"#utility.yul\":1019:1024   */\n  dup2\n    /* \"#utility.yul\":1001:1025   */\n  tag_49\n  jump\t// in\ntag_91:\n    /* \"#utility.yul\":994:999   */\n  dup2\n    /* \"#utility.yul\":991:1026   */\n  eq\n    /* \"#utility.yul\":981:1044   */\n  tag_92\n  jumpi\n    /* \"#utility.yul\":1040:1041   */\n  0x00\n    /* \"#utility.yul\":1037:1038   */\n  0x00\n    /* \"#utility.yul\":1030:1042   */\n  revert\n    /* \"#utility.yul\":981:1044   */\ntag_92:\n    /* \"#utility.yul\":928:1050   */\n  pop\n  jump\t// out\n    /* \"#utility.yul\":1056:1199   */\ntag_51:\n    /* \"#utility.yul\":1113:1118   */\n  0x00\n    /* \"#utility.yul\":1144:1150   */\n  dup2\n    /* \"#utility.yul\":1138:1151   */\n  mload\n    /* \"#utility.yul\":1129:1151   */\n  swap1\n  pop\n    /* \"#utility.yul\":1160:1193   */\n  tag_94\n    /* \"#utility.yul\":1187:1192   */\n  dup2\n    /* \"#utility.yul\":1160:1193   */\n  tag_50\n  jump\t// in\ntag_94:\n    /* \"#utility.yul\":1056:1199   */\n  swap3\n  swap2\n  pop\n  pop\n  jump\t// out\n    /* \"#utility.yul\":1205:1868   */\ntag_3:\n    /* \"#utility.yul\":1293:1299   */\n  0x00\n    /* \"#utility.yul\":1301:1307   */\n  0x00\n    /* \"#utility.yul\":1309:1315   */\n  0x00\n    /* \"#utility.yul\":1358:1360   */\n  0x60\n    /* \"#utility.yul\":1346:1355   */\n  dup5\n    /* \"#utility.yul\":1337:1344   */\n  dup7\n    /* \"#utility.yul\":1333:1356   */\n  sub\n    /* \"#utility.yul\":1329:1361   */\n  slt\n    /* \"#utility.yul\":1326:1445   */\n  iszero\n  tag_96\n  jumpi\n    /* \"#utility.yul\":1364:1443   */\n  tag_97\n  tag_43\n  jump\t// in\ntag_97:\n    /* \"#utility.yul\":1326:1445   */\ntag_96:\n    /* \"#utility.yul\":1484:1485   */\n  0x00\n    /* \"#utility.yul\":1509:1573   */\n  tag_98\n    /* \"#utility.yul\":1565:1572   */\n  dup7\n    /* \"#utility.yul\":1556:1562   */\n  dup3\n    /* \"#utility.yul\":1545:1554   */\n  dup8\n    /* \"#utility.yul\":1541:1563   */\n  add\n    /* \"#utility.yul\":1509:1573   */\n  tag_47\n  jump\t// in\ntag_98:\n    /* \"#utility.yul\":1499:1573   */\n  swap4\n  pop\n    /* \"#utility.yul\":1455:1583   */\n  pop\n    /* \"#utility.yul\":1622:1624   */\n  0x20\n    /* \"#utility.yul\":1648:1712   */\n  tag_99\n    /* \"#utility.yul\":1704:1711   */\n  dup7\n    /* \"#utility.yul\":1695:1701   */\n  dup3\n    /* \"#utility.yul\":1684:1693   */\n  dup8\n    /* \"#utility.yul\":1680:1702   */\n  add\n    /* \"#utility.yul\":1648:1712   */\n  tag_47\n  jump\t// in\ntag_99:\n    /* \"#utility.yul\":1638:1712   */\n  swap3\n  pop\n    /* \"#utility.yul\":1593:1722   */\n  pop\n    /* \"#utility.yul\":1761:1763   */\n  0x40\n    /* \"#utility.yul\":1787:1851   */\n  tag_100\n    /* \"#utility.yul\":1843:1850   */\n  dup7\n    /* \"#utility.yul\":1834:1840   */\n  dup3\n    /* \"#utility.yul\":1823:1832   */\n  dup8\n    /* \"#utility.yul\":1819:1841   */\n  add\n    /* \"#utility.yul\":1787:1851   */\n  tag_51\n  jump\t// in\ntag_100:\n    /* \"#utility.yul\":1777:1851   */\n  swap2\n  pop\n    /* \"#utility.yul\":1732:1861   */\n  pop\n    /* \"#utility.yul\":1205:1868   */\n  swap3\n  pop\n  swap3\n  pop\n  swap3\n  jump\t// out\n    /* \"#utility.yul\":1874:1973   */\ntag_52:\n    /* \"#utility.yul\":1926:1932   */\n  0x00\n    /* \"#utility.yul\":1960:1965   */\n  dup2\n    /* \"#utility.yul\":1954:1966   */\n  mload\n    /* \"#utility.yul\":1944:1966   */\n  swap1\n  pop\n    /* \"#utility.yul\":1874:1973   */\n  swap2\n  swap1\n  pop\n  jump\t// out\n    /* \"#utility.yul\":1979:2159   */\ntag_53:\n    /* \"#utility.yul\":2027:2104   */\n  0x4e487b7100000000000000000000000000000000000000000000000000000000\n    /* \"#utility.yul\":2024:2025   */\n  0x00\n    /* \"#utility.yul\":2017:2105   */\n  mstore\n    /* \"#utility.yul\":2124:2128   */\n  0x41\n    /* \"#utility.yul\":2121:2122   */\n  0x04\n    /* \"#utility.yul\":2114:2129   */\n  mstore\n    /* \"#utility.yul\":2148:2152   */\n  0x24\n    /* \"#utility.yul\":2145:2146   */\n  0x00\n    /* \"#utility.yul\":2138:2153   */\n  revert\n    /* \"#utility.yul\":2165:2345   */\ntag_54:\n    /* \"#utility.yul\":2213:2290   */\n  0x4e487b7100000000000000000000000000000000000000000000000000000000\n    /* \"#utility.yul\":2210:2211   */\n  0x00\n    /* \"#utility.yul\":2203:2291   */\n  mstore\n    /* \"#utility.yul\":2310:2314   */\n  0x22\n    /* \"#utility.yul\":2307:2308   */\n  0x04\n    /* \"#utility.yul\":2300:2315   */\n  mstore\n    /* \"#utility.yul\":2334:2338   */\n  0x24\n    /* \"#utility.yul\":2331:2332   */\n  0x00\n    /* \"#utility.yul\":2324:2339   */\n  revert\n    /* \"#utility.yul\":2351:2671   */\ntag_55:\n    /* \"#utility.yul\":2395:2401   */\n  0x00\n    /* \"#utility.yul\":2432:2433   */\n  0x02\n    /* \"#utility.yul\":2426:2430   */\n  dup3\n    /* \"#utility.yul\":2422:2434   */\n  div\n    /* \"#utility.yul\":2412:2434   */\n  swap1\n  pop\n    /* \"#utility.yul\":2479:2480   */\n  0x01\n    /* \"#utility.yul\":2473:2477   */\n  dup3\n    /* \"#utility.yul\":2469:2481   */\n  and\n    /* \"#utility.yul\":2500:2518   */\n  dup1\n    /* \"#utility.yul\":2490:2571   */\n  tag_105\n  jumpi\n    /* \"#utility.yul\":2556:2560   */\n  0x7f\n    /* \"#utility.yul\":2548:2554   */\n  dup3\n    /* \"#utility.yul\":2544:2561   */\n  and\n    /* \"#utility.yul\":2534:2561   */\n  swap2\n  pop\n    /* \"#utility.yul\":2490:2571   */\ntag_105:\n    /* \"#utility.yul\":2618:2620   */\n  0x20\n    /* \"#utility.yul\":2610:2616   */\n  dup3\n    /* \"#utility.yul\":2607:2621   */\n  lt\n    /* \"#utility.yul\":2587:2605   */\n  dup2\n    /* \"#utility.yul\":2584:2622   */\n  sub\n    /* \"#utility.yul\":2581:2665   */\n  tag_106\n  jumpi\n    /* \"#utility.yul\":2637:2655   */\n  tag_107\n  tag_54\n  jump\t// in\ntag_107:\n    /* \"#utility.yul\":2581:2665   */\ntag_106:\n    /* \"#utility.yul\":2402:2671   */\n  pop\n    /* \"#utility.yul\":2351:2671   */\n  swap2\n  swap1\n  pop\n  jump\t// out\n    /* \"#utility.yul\":2677:2818   */\ntag_56:\n    /* \"#utility.yul\":2726:2730   */\n  0x00\n    /* \"#utility.yul\":2749:2752   */\n  dup2\n    /* \"#utility.yul\":2741:2752   */\n  swap1\n  pop\n    /* \"#utility.yul\":2772:2775   */\n  dup2\n    /* \"#utility.yul\":2769:2770   */\n  0x00\n    /* \"#utility.yul\":2762:2776   */\n  mstore\n    /* \"#utility.yul\":2806:2810   */\n  0x20\n    /* \"#utility.yul\":2803:2804   */\n  0x00\n    /* \"#utility.yul\":2793:2811   */\n  keccak256\n    /* \"#utility.yul\":2785:2811   */\n  swap1\n  pop\n    /* \"#utility.yul\":2677:2818   */\n  swap2\n  swap1\n  pop\n  jump\t// out\n    /* \"#utility.yul\":2824:2917   */\ntag_57:\n    /* \"#utility.yul\":2861:2867   */\n  0x00\n    /* \"#utility.yul\":2908:2910   */\n  0x20\n    /* \"#utility.yul\":2903:2905   */\n  0x1f\n    /* \"#utility.yul\":2896:2901   */\n  dup4\n    /* \"#utility.yul\":2892:2906   */\n  add\n    /* \"#utility.yul\":2888:2911   */\n  div\n    /* \"#utility.yul\":2878:2911   */\n  swap1\n  pop\n    /* \"#utility.yul\":2824:2917   */\n  swap2\n  swap1\n  pop\n  jump\t// out\n    /* \"#utility.yul\":2923:3030   */\ntag_58:\n    /* \"#utility.yul\":2967:2975   */\n  0x00\n    /* \"#utility.yul\":3017:3022   */\n  dup3\n    /* \"#utility.yul\":3011:3015   */\n  dup3\n    /* \"#utility.yul\":3007:3023   */\n  shl\n    /* \"#utility.yul\":2986:3023   */\n  swap1\n  pop\n    /* \"#utility.yul\":2923:3030   */\n  swap3\n  swap2\n  pop\n  pop\n  jump\t// out\n    /* \"#utility.yul\":3036:3429   */\ntag_59:\n    /* \"#utility.yul\":3105:3111   */\n  0x00\n    /* \"#utility.yul\":3155:3156   */\n  0x08\n    /* \"#utility.yul\":3143:3153   */\n  dup4\n    /* \"#utility.yul\":3139:3157   */\n  mul\n    /* \"#utility.yul\":3178:3275   */\n  tag_112\n    /* \"#utility.yul\":3208:3274   */\n  0xffffffffffffffffffffffffffffffffffffffffffffffffffffffffffffffff\n    /* \"#utility.yul\":3197:3206   */\n  dup3\n    /* \"#utility.yul\":3178:3275   */\n  tag_58\n  jump\t// in\ntag_112:\n    /* \"#utility.yul\":3296:3335   */\n  tag_113\n    /* \"#utility.yul\":3326:3334   */\n  dup7\n    /* \"#utility.yul\":3315:3324   */\n  dup4\n    /* \"#utility.yul\":3296:3335   */\n  tag_58\n  jump\t// in\ntag_113:\n    /* \"#utility.yul\":3284:3335   */\n  swap6\n  pop\n    /* \"#utility.yul\":3368:3372   */\n  dup1\n    /* \"#utility.yul\":3364:3373   */\n  not\n    /* \"#utility.yul\":3357:3362   */\n  dup5\n    /* \"#utility.yul\":3353:3374   */\n  and\n    /* \"#utility.yul\":3344:3374   */\n  swap4\n  pop\n    /* \"#utility.yul\":3417:3421   */\n  dup1\n    /* \"#utility.yul\":3407:3415   */\n  dup7\n    /* \"#utility.yul\":3403:3422   */\n  and\n    /* \"#utility.yul\":3396:3401   */\n  dup5\n    /* \"#utility.yul\":3393:3423   */\n  or\n    /* \"#utility.yul\":3383:3423   */\n  swap3\n  pop\n    /* \"#utility.yul\":3112:3429   */\n  pop\n  pop\n    /* \"#utility.yul\":3036:3429   */\n  swap4\n  swap3\n  pop\n  pop\n  pop\n  jump\t// out\n    /* \"#utility.yul\":3435:3495   */\ntag_60:\n    /* \"#utility.yul\":3463:3466   */\n  0x00\n    /* \"#utility.yul\":3484:3489   */\n  dup2\n    /* \"#utility.yul\":3477:3489   */\n  swap1\n  pop\n    /* \"#utility.yul\":3435:3495   */\n  swap2\n  swap1\n  pop\n  jump\t// out\n    /* \"#utility.yul\":3501:3643   */\ntag_61:\n    /* \"#utility.yul\":3551:3560   */\n  0x00\n    /* \"#utility.yul\":3584:3637   */\n  tag_116\n    /* \"#utility.yul\":3602:3636   */\n  tag_117\n    /* \"#utility.yul\":3611:3635   */\n  tag_118\n    /* \"#utility.yul\":3629:3634   */\n  dup5\n    /* \"#utility.yul\":3611:3635   */\n  tag_45\n  jump\t// in\ntag_118:\n    /* \"#utility.yul\":3602:3636   */\n  tag_60\n  jump\t// in\ntag_117:\n    /* \"#utility.yul\":3584:3637   */\n  tag_45\n  jump\t// in\ntag_116:\n    /* \"#utility.yul\":3571:3637   */\n  swap1\n  pop\n    /* \"#utility.yul\":3501:3643   */\n  swap2\n  swap1\n  pop\n  jump\t// out\n    /* \"#utility.yul\":3649:3724   */\ntag_62:\n    /* \"#utility.yul\":3692:3695   */\n  0x00\n    /* \"#utility.yul\":3713:3718   */\n  dup2\n    /* \"#utility.yul\":3706:3718   */\n  swap1\n  pop\n    /* \"#utility.yul\":3649:3724   */\n  swap2\n  swap1\n  pop\n  jump\t// out\n    /* \"#utility.yul\":3730:3999   */\ntag_63:\n    /* \"#utility.yul\":3840:3879   */\n  tag_121\n    /* \"#utility.yul\":3871:3878   */\n  dup4\n    /* \"#utility.yul\":3840:3879   */\n  tag_61\n  jump\t// in\ntag_121:\n    /* \"#utility.yul\":3901:3992   */\n  tag_122\n    /* \"#utility.yul\":3950:3991   */\n  tag_123\n    /* \"#utility.yul\":3974:3990   */\n  dup3\n    /* \"#utility.yul\":3950:3991   */\n  tag_62\n  jump\t// in\ntag_123:\n    /* \"#utility.yul\":3942:3948   */\n  dup5\n    /* \"#utility.yul\":3935:3939   */\n  dup5\n    /* \"#utility.yul\":3929:3940   */\n  sload\n    /* \"#utility.yul\":3901:3992   */\n  tag_59\n  jump\t// in\ntag_122:\n    /* \"#utility.yul\":3895:3899   */\n  dup3\n    /* \"#utility.yul\":3888:3993   */\n  sstore\n    /* \"#utility.yul\":3806:3999   */\n  pop\n    /* \"#utility.yul\":3730:3999   */\n  pop\n  pop\n  pop\n  jump\t// out\n    /* \"#utility.yul\":4005:4078   */\ntag_64:\n    /* \"#utility.yul\":4050:4053   */\n  0x00\n    /* \"#utility.yul\":4071:4072   */\n  0x00\n    /* \"#utility.yul\":4064:4072   */\n  swap1\n  pop\n    /* \"#utility.yul\":4005:4078   */\n  swap1\n  jump\t// out\n    /* \"#utility.yul\":4084:4273   */\ntag_65:\n    /* \"#utility.yul\":4161:4193   */\n  tag_126\n  tag_64\n  jump\t// in\ntag_126:\n    /* \"#utility.yul\":4202:4267   */\n  tag_127\n    /* \"#utility.yul\":4260:4266   */\n  dup2\n    /* \"#utility.yul\":4252:4258   */\n  dup5\n    /* \"#utility.yul\":4246:4250   */\n  dup5\n    /* \"#utility.yul\":4202:4267   */\n  tag_63\n  jump\t// in\ntag_127:\n    /* \"#utility.yul\":4137:4273   */\n  pop\n    /* \"#utility.yul\":4084:4273   */\n  pop\n  pop\n  jump\t// out\n    /* \"#utility.yul\":4279:4465   */\ntag_66:\n    /* \"#utility.yul\":4339:4459   */\ntag_129:\n    /* \"#utility.yul\":4356:4359   */\n  dup2\n    /* \"#utility.yul\":4349:4354   */\n  dup2\n    /* \"#utility.yul\":4346:4360   */\n  lt\n    /* \"#utility.yul\":4339:4459   */\n  iszero\n  tag_131\n  jumpi\n    /* \"#utility.yul\":4410:4449   */\n  tag_132\n    /* \"#utility.yul\":4447:4448   */\n  0x00\n    /* \"#utility.yul\":4440:4445   */\n  dup3\n    /* \"#utility.yul\":4410:4449   */\n  tag_65\n  jump\t// in\ntag_132:\n    /* \"#utility.yul\":4383:4384   */\n  0x01\n    /* \"#utility.yul\":4376:4381   */\n  dup2\n    /* \"#utility.yul\":4372:4385   */\n  add\n    /* \"#utility.yul\":4363:4385   */\n  swap1\n  pop\n    /* \"#utility.yul\":4339:4459   */\n  jump(tag_129)\ntag_131:\n    /* \"#utility.yul\":4279:4465   */\n  pop\n  pop\n  jump\t// out\n    /* \"#utility.yul\":4471:5014   */\ntag_67:\n    /* \"#utility.yul\":4572:4574   */\n  0x1f\n    /* \"#utility.yul\":4567:4570   */\n  dup3\n    /* \"#utility.yul\":4564:4575   */\n  gt\n    /* \"#utility.yul\":4561:5007   */\n  iszero\n  tag_134\n  jumpi\n    /* \"#utility.yul\":4606:4644   */\n  tag_135\n    /* \"#utility.yul\":4638:4643   */\n  dup2\n    /* \"#utility.yul\":4606:4644   */\n  tag_56\n  jump\t// in\ntag_135:\n    /* \"#utility.yul\":4690:4719   */\n  tag_136\n    /* \"#utility.yul\":4708:4718   */\n  dup5\n    /* \"#utility.yul\":4690:4719   */\n  tag_57\n  jump\t// in\ntag_136:\n    /* \"#utility.yul\":4680:4688   */\n  dup2\n    /* \"#utility.yul\":4676:4720   */\n  add\n    /* \"#utility.yul\":4873:4875   */\n  0x20\n    /* \"#utility.yul\":4861:4871   */\n  dup6\n    /* \"#utility.yul\":4858:4876   */\n  lt\n    /* \"#utility.yul\":4855:4904   */\n  iszero\n  tag_137\n  jumpi\n    /* \"#utility.yul\":4894:4902   */\n  dup2\n    /* \"#utility.yul\":4879:4902   */\n  swap1\n  pop\n    /* \"#utility.yul\":4855:4904   */\ntag_137:\n    /* \"#utility.yul\":4917:4997   */\n  tag_138\n    /* \"#utility.yul\":4973:4995   */\n  tag_139\n    /* \"#utility.yul\":4991:4994   */\n  dup6\n    /* \"#utility.yul\":4973:4995   */\n  tag_57\n  jump\t// in\ntag_139:\n    /* \"#utility.yul\":4963:4971   */\n  dup4\n    /* \"#utility.yul\":4959:4996   */\n  add\n    /* \"#utility.yul\":4946:4957   */\n  dup3\n    /* \"#utility.yul\":4917:4997   */\n  tag_66\n  jump\t// in\ntag_138:\n    /* \"#utility.yul\":4576:5007   */\n  pop\n  pop\n    /* \"#utility.yul\":4561:5007   */\ntag_134:\n    /* \"#utility.yul\":4471:5014   */\n  pop\n  pop\n  pop\n  jump\t// out\n    /* \"#utility.yul\":5020:5137   */\ntag_68:\n    /* \"#utility.yul\":5074:5082   */\n  0x00\n    /* \"#utility.yul\":5124:5129   */\n  dup3\n    /* \"#utility.yul\":5118:5122   */\n  dup3\n    /* \"#utility.yul\":5114:5130   */\n  shr\n    /* \"#utility.yul\":5093:5130   */\n  swap1\n  pop\n    /* \"#utility.yul\":5020:5137   */\n  swap3\n  swap2\n  pop\n  pop\n  jump\t// out\n    /* \"#utility.yul\":5143:5312   */\ntag_69:\n    /* \"#utility.yul\":5187:5193   */\n  0x00\n    /* \"#utility.yul\":5220:5271   */\n  tag_142\n    /* \"#utility.yul\":5268:5269   */\n  0x00\n    /* \"#utility.yul\":5264:5270   */\n  not\n    /* \"#utility.yul\":5256:5261   */\n  dup5\n    /* \"#utility.yul\":5253:5254   */\n  0x08\n    /* \"#utility.yul\":5249:5262   */\n  mul\n    /* \"#utility.yul\":5220:5271   */\n  tag_68\n  jump\t// in\ntag_142:\n    /* \"#utility.yul\":5216:5272   */\n  not\n    /* \"#utility.yul\":5301:5305   */\n  dup1\n    /* \"#utility.yul\":5295:5299   */\n  dup4\n    /* \"#utility.yul\":5291:5306   */\n  and\n    /* \"#utility.yul\":5281:5306   */\n  swap2\n  pop\n    /* \"#utility.yul\":5194:5312   */\n  pop\n    /* \"#utility.yul\":5143:5312   */\n  swap3\n  swap2\n  pop\n  pop\n  jump\t// out\n    /* \"#utility.yul\":5317:5612   */\ntag_70:\n    /* \"#utility.yul\":5393:5397   */\n  0x00\n    /* \"#utility.yul\":5539:5568   */\n  tag_144\n    /* \"#utility.yul\":5564:5567   */\n  dup4\n    /* \"#utility.yul\":5558:5562   */\n  dup4\n    /* \"#utility.yul\":5539:5568   */\n  tag_69\n  jump\t// in\ntag_144:\n    /* \"#utility.yul\":5531:5568   */\n  swap2\n  pop\n    /* \"#utility.yul\":5601:5604   */\n  dup3\n    /* \"#utility.yul\":5598:5599   */\n  0x02\n    /* \"#utility.yul\":5594:5605   */\n  mul\n    /* \"#utility.yul\":5588:5592   */\n  dup3\n    /* \"#utility.yul\":5585:5606   */\n  or\n    /* \"#utility.yul\":5577:5606   */\n  swap1\n  pop\n    /* \"#utility.yul\":5317:5612   */\n  swap3\n  swap2\n  pop\n  pop\n  jump\t// out\n    /* \"#utility.yul\":5617:7012   */\ntag_9:\n    /* \"#utility.yul\":5734:5771   */\n  tag_146\n    /* \"#utility.yul\":5767:5770   */\n  dup3\n    /* \"#utility.yul\":5734:5771   */\n  tag_52\n  jump\t// in\ntag_146:\n    /* \"#utility.yul\":5836:5854   */\n  0xffffffffffffffff\n    /* \"#utility.yul\":5828:5834   */\n  dup2\n    /* \"#utility.yul\":5825:5855   */\n  gt\n    /* \"#utility.yul\":5822:5878   */\n  iszero\n  tag_147\n  jumpi\n    /* \"#utility.yul\":5858:5876   */\n  tag_148\n  tag_53\n  jump\t// in\ntag_148:\n    /* \"#utility.yul\":5822:5878   */\ntag_147:\n    /* \"#utility.yul\":5902:5940   */\n  tag_149\n    /* \"#utility.yul\":5934:5938   */\n  dup3\n    /* \"#utility.yul\":5928:5939   */\n  sload\n    /* \"#utility.yul\":5902:5940   */\n  tag_55\n  jump\t// in\ntag_149:\n    /* \"#utility.yul\":5987:6054   */\n  tag_150\n    /* \"#utility.yul\":6047:6053   */\n  dup3\n    /* \"#utility.yul\":6039:6045   */\n  dup3\n    /* \"#utility.yul\":6033:6037   */\n  dup6\n    /* \"#utility.yul\":5987:6054   */\n  tag_67\n  jump\t// in\ntag_150:\n    /* \"#utility.yul\":6081:6082   */\n  0x00\n    /* \"#utility.yul\":6105:6109   */\n  0x20\n    /* \"#utility.yul\":6092:6109   */\n  swap1\n  pop\n    /* \"#utility.yul\":6137:6139   */\n  0x1f\n    /* \"#utility.yul\":6129:6135   */\n  dup4\n    /* \"#utility.yul\":6126:6140   */\n  gt\n    /* \"#utility.yul\":6154:6155   */\n  0x01\n    /* \"#utility.yul\":6149:6767   */\n  dup2\n  eq\n  tag_152\n  jumpi\n    /* \"#utility.yul\":6811:6812   */\n  0x00\n    /* \"#utility.yul\":6828:6834   */\n  dup5\n    /* \"#utility.yul\":6825:6902   */\n  iszero\n  tag_153\n  jumpi\n    /* \"#utility.yul\":6877:6886   */\n  dup3\n    /* \"#utility.yul\":6872:6875   */\n  dup8\n    /* \"#utility.yul\":6868:6887   */\n  add\n    /* \"#utility.yul\":6862:6888   */\n  mload\n    /* \"#utility.yul\":6853:6888   */\n  swap1\n  pop\n    /* \"#utility.yul\":6825:6902   */\ntag_153:\n    /* \"#utility.yul\":6928:6995   */\n  tag_154\n    /* \"#utility.yul\":6988:6994   */\n  dup6\n    /* \"#utility.yul\":6981:6986   */\n  dup3\n    /* \"#utility.yul\":6928:6995   */\n  tag_70\n  jump\t// in\ntag_154:\n    /* \"#utility.yul\":6922:6926   */\n  dup7\n    /* \"#utility.yul\":6915:6996   */\n  sstore\n    /* \"#utility.yul\":6784:7006   */\n  pop\n    /* \"#utility.yul\":6119:7006   */\n  jump(tag_151)\n    /* \"#utility.yul\":6149:6767   */\ntag_152:\n    /* \"#utility.yul\":6201:6205   */\n  0x1f\n    /* \"#utility.yul\":6197:6206   */\n  not\n    /* \"#utility.yul\":6189:6195   */\n  dup5\n    /* \"#utility.yul\":6185:6207   */\n  and\n    /* \"#utility.yul\":6235:6272   */\n  tag_155\n    /* \"#utility.yul\":6267:6271   */\n  dup7\n    /* \"#utility.yul\":6235:6272   */\n  tag_56\n  jump\t// in\ntag_155:\n    /* \"#utility.yul\":6294:6295   */\n  0x00\n    /* \"#utility.yul\":6308:6516   */\ntag_156:\n    /* \"#utility.yul\":6322:6329   */\n  dup3\n    /* \"#utility.yul\":6319:6320   */\n  dup2\n    /* \"#utility.yul\":6316:6330   */\n  lt\n    /* \"#utility.yul\":6308:6516   */\n  iszero\n  tag_158\n  jumpi\n    /* \"#utility.yul\":6401:6410   */\n  dup5\n    /* \"#utility.yul\":6396:6399   */\n  dup10\n    /* \"#utility.yul\":6392:6411   */\n  add\n    /* \"#utility.yul\":6386:6412   */\n  mload\n    /* \"#utility.yul\":6378:6384   */\n  dup3\n    /* \"#utility.yul\":6371:6413   */\n  sstore\n    /* \"#utility.yul\":6452:6453   */\n  0x01\n    /* \"#utility.yul\":6444:6450   */\n  dup3\n    /* \"#utility.yul\":6440:6454   */\n  add\n    /* \"#utility.yul\":6430:6454   */\n  swap2\n  pop\n    /* \"#utility.yul\":6499:6501   */\n  0x20\n    /* \"#utility.yul\":6488:6497   */\n  dup6\n    /* \"#utility.yul\":6484:6502   */\n  add\n    /* \"#utility.yul\":6471:6502   */\n  swap5\n  pop\n    /* \"#utility.yul\":6345:6349   */\n  0x20\n    /* \"#utility.yul\":6342:6343   */\n  dup2\n    /* \"#utility.yul\":6338:6350   */\n  add\n    /* \"#utility.yul\":6333:6350   */\n  swap1\n  pop\n    /* \"#utility.yul\":6308:6516   */\n  jump(tag_156)\ntag_158:\n    /* \"#utility.yul\":6544:6550   */\n  dup7\n    /* \"#utility.yul\":6535:6542   */\n  dup4\n    /* \"#utility.yul\":6532:6551   */\n  lt\n    /* \"#utility.yul\":6529:6708   */\n  iszero\n  tag_159\n  jumpi\n    /* \"#utility.yul\":6602:6611   */\n  dup5\n    /* \"#utility.yul\":6597:6600   */\n  dup10\n    /* \"#utility.yul\":6593:6612   */\n  add\n    /* \"#utility.yul\":6587:6613   */\n  mload\n    /* \"#utility.yul\":6645:6693   */\n  tag_160\n    /* \"#utility.yul\":6687:6691   */\n  0x1f\n    /* \"#utility.yul\":6679:6685   */\n  dup10\n    /* \"#utility.yul\":6675:6692   */\n  and\n    /* \"#utility.yul\":6664:6673   */\n  dup3\n    /* \"#utility.yul\":6645:6693   */\n  tag_69\n  jump\t// in\ntag_160:\n    /* \"#utility.yul\":6637:6643   */\n  dup4\n    /* \"#utility.yul\":6630:6694   */\n  sstore\n    /* \"#utility.yul\":6552:6708   */\n  pop\n    /* \"#utility.yul\":6529:6708   */\ntag_159:\n    /* \"#utility.yul\":6754:6755   */\n  0x01\n    /* \"#utility.yul\":6750:6751   */\n  0x02\n    /* \"#utility.yul\":6742:6748   */\n  dup9\n    /* \"#utility.yul\":6738:6752   */\n  mul\n    /* \"#utility.yul\":6734:6756   */\n  add\n    /* \"#utility.yul\":6728:6732   */\n  dup9\n    /* \"#utility.yul\":6721:6757   */\n  sstore\n    /* \"#utility.yul\":6156:6767   */\n  pop\n  pop\n  pop\n    /* \"#utility.yul\":6119:7006   */\ntag_151:\n  pop\n    /* \"#utility.yul\":5709:7012   */\n  pop\n  pop\n  pop\n    /* \"#utility.yul\":5617:7012   */\n  pop\n  pop\n  jump\t// out\n    /* \"#utility.yul\":7018:7136   */\ntag_71:\n    /* \"#utility.yul\":7105:7129   */\n  tag_162\n    /* \"#utility.yul\":7123:7128   */\n  dup2\n    /* \"#utility.yul\":7105:7129   */\n  tag_49\n  jump\t// in\ntag_162:\n    /* \"#utility.yul\":7100:7103   */\n  dup3\n    /* \"#utility.yul\":7093:7130   */\n  mstore\n    /* \"#utility.yul\":7018:7136   */\n  pop\n  pop\n  jump\t// out\n    /* \"#utility.yul\":7142:7364   */\ntag_14:\n    /* \"#utility.yul\":7235:7239   */\n  0x00\n    /* \"#utility.yul\":7273:7275   */\n  0x20\n    /* \"#utility.yul\":7262:7271   */\n  dup3\n    /* \"#utility.yul\":7258:7276   */\n  add\n    /* \"#utility.yul\":7250:7276   */\n  swap1\n  pop\n    /* \"#utility.yul\":7286:7357   */\n  tag_164\n    /* \"#utility.yul\":7354:7355   */\n  0x00\n    /* \"#utility.yul\":7343:7352   */\n  dup4\n    /* \"#utility.yul\":7339:7356   */\n  add\n    /* \"#utility.yul\":7330:7336   */\n  dup5\n    /* \"#utility.yul\":7286:7357   */\n  tag_71\n  jump\t// in\ntag_164:\n    /* \"#utility.yul\":7142:7364   */\n  swap3\n  swap2\n  pop\n  pop\n  jump\t// out\n    /* \"#utility.yul\":7370:7539   */\ntag_72:\n    /* \"#utility.yul\":7454:7465   */\n  0x00\n    /* \"#utility.yul\":7488:7494   */\n  dup3\n    /* \"#utility.yul\":7483:7486   */\n  dup3\n    /* \"#utility.yul\":7476:7495   */\n  mstore\n    /* \"#utility.yul\":7528:7532   */\n  0x20\n    /* \"#utility.yul\":7523:7526   */\n  dup3\n    /* \"#utility.yul\":7519:7533   */\n  add\n    /* \"#utility.yul\":7504:7533   */\n  swap1\n  pop\n    /* \"#utility.yul\":7370:7539   */\n  swap3\n  swap2\n  pop\n  pop\n  jump\t// out\n    /* \"#utility.yul\":7545:7716   */\ntag_73:\n    /* \"#utility.yul\":7685:7708   */\n  0x496e76616c69642066656520726563697069656e740000000000000000000000\n    /* \"#utility.yul\":7681:7682   */\n  0x00\n    /* \"#utility.yul\":7673:7679   */\n  dup3\n    /* \"#utility.yul\":7669:7683   */\n  add\n    /* \"#utility.yul\":7662:7709   */\n  mstore\n    /* \"#utility.yul\":7545:7716   */\n  pop\n  jump\t// out\n    /* \"#utility.yul\":7722:8088   */\ntag_74:\n    /* \"#utility.yul\":7864:7867   */\n  0x00\n    /* \"#utility.yul\":7885:7952   */\n  tag_168\n    /* \"#utility.yul\":7949:7951   */\n  0x15\n    /* \"#utility.yul\":7944:7947   */\n  dup4\n    /* \"#utility.yul\":7885:7952   */\n  tag_72\n  jump\t// in\ntag_168:\n    /* \"#utility.yul\":7878:7952   */\n  swap2\n  pop\n    /* \"#utility.yul\":7961:8054   */\n  tag_169\n    /* \"#utility.yul\":8050:8053   */\n  dup3\n    /* \"#utility.yul\":7961:8054   */\n  tag_73\n  jump\t// in\ntag_169:\n    /* \"#utility.yul\":8079:8081   */\n  0x20\n    /* \"#utility.yul\":8074:8077   */\n  dup3\n    /* \"#utility.yul\":8070:8082   */\n  add\n    /* \"#utility.yul\":8063:8082   */\n  swap1\n  pop\n    /* \"#utility.yul\":7722:8088   */\n  swap2\n  swap1\n  pop\n  jump\t// out\n    /* \"#utility.yul\":8094:8513   */\ntag_20:\n    /* \"#utility.yul\":8260:8264   */\n  0x00\n    /* \"#utility.yul\":8298:8300   */\n  0x20\n    /* \"#utility.yul\":8287:8296   */\n  dup3\n    /* \"#utility.yul\":8283:8301   */\n  add\n    /* \"#utility.yul\":8275:8301   */\n  swap1\n  pop\n    /* \"#utility.yul\":8347:8356   */\n  dup2\n    /* \"#utility.yul\":8341:8345   */\n  dup2\n    /* \"#utility.yul\":8337:8357   */\n  sub\n    /* \"#utility.yul\":8333:8334   */\n  0x00\n    /* \"#utility.yul\":8322:8331   */\n  dup4\n    /* \"#utility.yul\":8318:8335   */\n  add\n    /* \"#utility.yul\":8311:8358   */\n  mstore\n    /* \"#utility.yul\":8375:8506   */\n  tag_171\n    /* \"#utility.yul\":8501:8505   */\n  dup2\n    /* \"#utility.yul\":8375:8506   */\n  tag_74\n  jump\t// in\ntag_171:\n    /* \"#utility.yul\":8367:8506   */\n  swap1\n  pop\n    /* \"#utility.yul\":8094:8513   */\n  swap2\n  swap1\n  pop\n  jump\t// out\n    /* \"#utility.yul\":8519:8699   */\ntag_75:\n    /* \"#utility.yul\":8567:8644   */\n  0x4e487b7100000000000000000000000000000000000000000000000000000000\n    /* \"#utility.yul\":8564:8565   */\n  0x00\n    /* \"#utility.yul\":8557:8645   */\n  mstore\n    /* \"#utility.yul\":8664:8668   */\n  0x11\n    /* \"#utility.yul\":8661:8662   */\n  0x04\n    /* \"#utility.yul\":8654:8669   */\n  mstore\n    /* \"#utility.yul\":8688:8692   */\n  0x24\n    /* \"#utility.yul\":8685:8686   */\n  0x00\n    /* \"#utility.yul\":8678:8693   */\n  revert\n    /* \"#utility.yul\":8705:8896   */\ntag_33:\n    /* \"#utility.yul\":8745:8748   */\n  0x00\n    /* \"#utility.yul\":8764:8784   */\n  tag_174\n    /* \"#utility.yul\":8782:8783   */\n  dup3\n    /* \"#utility.yul\":8764:8784   */\n  tag_45\n  jump\t// in\ntag_174:\n    /* \"#utility.yul\":8759:8784   */\n  swap2\n  pop\n    /* \"#utility.yul\":8798:8818   */\n  tag_175\n    /* \"#utility.yul\":8816:8817   */\n  dup4\n    /* \"#utility.yul\":8798:8818   */\n  tag_45\n  jump\t// in\ntag_175:\n    /* \"#utility.yul\":8793:8818   */\n  swap3\n  pop\n    /* \"#utility.yul\":8841:8842   */\n  dup3\n    /* \"#utility.yul\":8838:8839   */\n  dup3\n    /* \"#utility.yul\":8834:8843   */\n  add\n    /* \"#utility.yul\":8827:8843   */\n  swap1\n  pop\n    /* \"#utility.yul\":8862:8865   */\n  dup1\n    /* \"#utility.yul\":8859:8860   */\n  dup3\n    /* \"#utility.yul\":8856:8866   */\n  gt\n    /* \"#utility.yul\":8853:8889   */\n  iszero\n  tag_176\n  jumpi\n    /* \"#utility.yul\":8869:8887   */\n  tag_177\n  tag_75\n  jump\t// in\ntag_177:\n    /* \"#utility.yul\":8853:8889   */\ntag_176:\n    /* \"#utility.yul\":8705:8896   */\n  swap3\n  swap2\n  pop\n  pop\n  jump\t// out\n    /* \"#utility.yul\":8902:9020   */\ntag_76:\n    /* \"#utility.yul\":8989:9013   */\n  tag_179\n    /* \"#utility.yul\":9007:9012   */\n  dup2\n    /* \"#utility.yul\":8989:9013   */\n  tag_45\n  jump\t// in\ntag_179:\n    /* \"#utility.yul\":8984:8987   */\n  dup3\n    /* \"#utility.yul\":8977:9014   */\n  mstore\n    /* \"#utility.yul\":8902:9020   */\n  pop\n  pop\n  jump\t// out\n    /* \"#utility.yul\":9026:9468   */\ntag_37:\n    /* \"#utility.yul\":9175:9179   */\n  0x00\n    /* \"#utility.yul\":9213:9215   */\n  0x60\n    /* \"#utility.yul\":9202:9211   */\n  dup3\n    /* \"#utility.yul\":9198:9216   */\n  add\n    /* \"#utility.yul\":9190:9216   */\n  swap1\n  pop\n    /* \"#utility.yul\":9226:9297   */\n  tag_181\n    /* \"#utility.yul\":9294:9295   */\n  0x00\n    /* \"#utility.yul\":9283:9292   */\n  dup4\n    /* \"#utility.yul\":9279:9296   */\n  add\n    /* \"#utility.yul\":9270:9276   */\n  dup7\n    /* \"#utility.yul\":9226:9297   */\n  tag_71\n  jump\t// in\ntag_181:\n    /* \"#utility.yul\":9307:9379   */\n  tag_182\n    /* \"#utility.yul\":9375:9377   */\n  0x20\n    /* \"#utility.yul\":9364:9373   */\n  dup4\n    /* \"#utility.yul\":9360:9378   */\n  add\n    /* \"#utility.yul\":9351:9357   */\n  dup6\n    /* \"#utility.yul\":9307:9379   */\n  tag_76\n  jump\t// in\ntag_182:\n    /* \"#utility.yul\":9389:9461   */\n  tag_183\n    /* \"#utility.yul\":9457:9459   */\n  0x40\n    /* \"#utility.yul\":9446:9455   */\n  dup4\n    /* \"#utility.yul\":9442:9460   */\n  add\n    /* \"#utility.yul\":9433:9439   */\n  dup5\n    /* \"#utility.yul\":9389:9461   */\n  tag_76\n  jump\t// in\ntag_183:\n    /* \"#utility.yul\":9026:9468   */\n  swap5\n  swap4\n  pop\n  pop\n  pop\n  pop\n  jump\t// out\n    /* \"#utility.yul\":9474:9696   */\ntag_41:\n    /* \"#utility.yul\":9567:9571   */\n  0x00\n    /* \"#utility.yul\":9605:9607   */\n  0x20\n    /* \"#utility.yul\":9594:9603   */\n  dup3\n    /* \"#utility.yul\":9590:9608   */\n  add\n    /* \"#utility.yul\":9582:9608   */\n  swap1\n  pop\n    /* \"#utility.yul\":9618:9689   */\n  tag_185\n    /* \"#utility.yul\":9686:9687   */\n  0x00\n    /* \"#utility.yul\":9675:9684   */\n  dup4\n    /* \"#utility.yul\":9671:9688   */\n  add\n    /* \"#utility.yul\":9662:9668   */\n  dup5\n    /* \"#utility.yul\":9618:9689   */\n  tag_76\n  jump\t// in\ntag_185:\n    /* \"#utility.yul\":9474:9696   */\n  swap3\n  swap2\n  pop\n  pop\n  jump\t// out\n    /* \"F/FairAIToken.sol\":248:3826  contract FairAIToken is ERC20, Ownable {... */\ntag_23:\n  dataSize(sub_0)\n  dup1\n  dataOffset(sub_0)\n  0x00\n  codecopy\n  0x00\n  return\nstop\n\nsub_0: assembly {\n        /* \"F/FairAIToken.sol\":248:3826  contract FairAIToken is ERC20, Ownable {... */\n      mstore(0x40, 0x80)\n      callvalue\n      dup1\n      iszero\n      tag_1\n      jumpi\n      revert(0x00, 0x00)\n    tag_1:\n      pop\n      jumpi(tag_2, lt(calldatasize, 0x04))\n      shr(0xe0, calldataload(0x00))\n      dup1\n      0x715018a6\n      gt\n      tag_19\n      jumpi\n      dup1\n      0xa9059cbb\n      gt\n      tag_20\n      jumpi\n      dup1\n      0xa9059cbb\n      eq\n      tag_15\n      jumpi\n      dup1\n      0xdd62ed3e\n      eq\n      tag_16\n      jumpi\n      dup1\n      0xf160d369\n      eq\n      tag_17\n      jumpi\n      dup1\n      0xf2fde38b\n      eq\n      tag_18\n      jumpi\n      jump(tag_2)\n    tag_20:\n      dup1\n      0x715018a6\n      eq\n      tag_11\n      jumpi\n      dup1\n      0x8da5cb5b\n      eq\n      tag_12\n      jumpi\n      dup1\n      0x95d89b41\n      eq\n      tag_13\n      jumpi\n      dup1\n      0xa001ecdd\n      eq\n      tag_14\n      jumpi\n      jump(tag_2)\n    tag_19:\n      dup1\n      0x313ce567\n      gt\n      tag_21\n      jumpi\n      dup1\n      0x313ce567\n      eq\n      tag_7\n      jumpi\n      dup1\n      0x46904840\n      eq\n      tag_8\n      jumpi\n      dup1\n      0x6cad3fb0\n      eq\n      tag_9\n      jumpi\n      dup1\n      0x70a08231\n      eq\n      tag_10\n      jumpi\n      jump(tag_2)\n    tag_21:\n      dup1\n      0x06fdde03\n      eq\n      tag_3\n      jumpi\n      dup1\n      0x095ea7b3\n      eq\n      tag_4\n      jumpi\n      dup1\n      0x18160ddd\n      eq\n      tag_5\n      jumpi\n      dup1\n      0x23b872dd\n      eq\n      tag_6\n      jumpi\n    tag_2:\n      revert(0x00, 0x00)\n        /* \"@openzeppelin/contracts/token/ERC20/ERC20.sol\":1779:1868  function name() public view virtual returns (string memory) {... */\n    tag_3:\n      tag_22\n      tag_23\n      jump\t// in\n    tag_22:\n      mload(0x40)\n      tag_24\n      swap2\n      swap1\n      tag_25\n      jump\t// in\n    tag_24:\n      mload(0x40)\n      dup1\n      swap2\n      sub\n      swap1\n      return\n        /* \"@openzeppelin/contracts/token/ERC20/ERC20.sol\":3998:4184  function approve(address spender, uint256 value) public virtual returns (bool) {... */\n    tag_4:\n      tag_26\n      0x04\n      dup1\n      calldatasize\n      sub\n      dup2\n      add\n      swap1\n      tag_27\n      swap2\n      swap1\n      tag_28\n      jump\t// in\n    tag_27:\n      tag_29\n      jump\t// in\n    tag_26:\n      mload(0x40)\n      tag_30\n      swap2\n      swap1\n      tag_31\n      jump\t// in\n    tag_30:\n      mload(0x40)\n      dup1\n      swap2\n      sub\n      swap1\n      return\n        /* \"@openzeppelin/contracts/token/ERC20/ERC20.sol\":2849:2946  function totalSupply() public view virtual returns (uint256) {... */\n    tag_5:\n      tag_32\n      tag_33\n      jump\t// in\n    tag_32:\n      mload(0x40)\n      tag_34\n      swap2\n      swap1\n      tag_35\n      jump\t// in\n    tag_34:\n      mload(0x40)\n      dup1\n      swap2\n      sub\n      swap1\n      return\n        /* \"F/FairAIToken.sol\":2548:2983  function transferFrom(... */\n    tag_6:\n      tag_36\n      0x04\n      dup1\n      calldatasize\n      sub\n      dup2\n      add\n      swap1\n      tag_37\n      swap2\n      swap1\n      tag_38\n      jump\t// in\n    tag_37:\n      tag_39\n      jump\t// in\n    tag_36:\n      mload(0x40)\n      tag_40\n      swap2\n      swap1\n      tag_31\n      jump\t// in\n    tag_40:\n      mload(0x40)\n      dup1\n      swap2\n      sub\n      swap1\n      return\n        /* \"@openzeppelin/contracts/token/ERC20/ERC20.sol\":2707:2789  function decimals() public view virtual returns (uint8) {... */\n    tag_7:\n      tag_41\n      tag_42\n      jump\t// in\n    tag_41:\n      mload(0x40)\n      tag_43\n      swap2\n      swap1\n      tag_44\n      jump\t// in\n    tag_43:\n      mload(0x40)\n      dup1\n      swap2\n      sub\n      swap1\n      return\n        /* \"F/FairAIToken.sol\":444:471  address public feeRecipient */\n    tag_8:\n      tag_45\n      tag_46\n      jump\t// in\n    tag_45:\n      mload(0x40)\n      tag_47\n      swap2\n      swap1\n      tag_48\n      jump\t// in\n    tag_47:\n      mload(0x40)\n      dup1\n      swap2\n      sub\n      swap1\n      return\n        /* \"F/FairAIToken.sol\":3207:3432  function updateFeePercentage(uint256 newFeePercentage) external onlyOwner {... */\n    tag_9:\n      tag_49\n      0x04\n      dup1\n      calldatasize\n      sub\n      dup2\n      add\n      swap1\n      tag_50\n      swap2\n      swap1\n      tag_51\n      jump\t// in\n    tag_50:\n      tag_52\n      jump\t// in\n    tag_49:\n      stop\n        /* \"@openzeppelin/contracts/token/ERC20/ERC20.sol\":3004:3120  function balanceOf(address account) public view virtual returns (uint256) {... */\n    tag_10:\n      tag_53\n      0x04\n      dup1\n      calldatasize\n      sub\n      dup2\n      add\n      swap1\n      tag_54\n      swap2\n      swap1\n      tag_55\n      jump\t// in\n    tag_54:\n      tag_56\n      jump\t// in\n    tag_53:\n      mload(0x40)\n      tag_57\n      swap2\n      swap1\n      tag_35\n      jump\t// in\n    tag_57:\n      mload(0x40)\n      dup1\n      swap2\n      sub\n      swap1\n      return\n        /* \"@openzeppelin/contracts/access/Ownable.sol\":2293:2394  function renounceOwnership() public virtual onlyOwner {... */\n    tag_11:\n      tag_58\n      tag_59\n      jump\t// in\n    tag_58:\n      stop\n        /* \"@openzeppelin/contracts/access/Ownable.sol\":1638:1723  function owner() public view virtual returns (address) {... */\n    tag_12:\n      tag_60\n      tag_61\n      jump\t// in\n    tag_60:\n      mload(0x40)\n      tag_62\n      swap2\n      swap1\n      tag_48\n      jump\t// in\n    tag_62:\n      mload(0x40)\n      dup1\n      swap2\n      sub\n      swap1\n      return\n        /* \"@openzeppelin/contracts/token/ERC20/ERC20.sol\":1981:2074  function symbol() public view virtual returns (string memory) {... */\n    tag_13:\n      tag_63\n      tag_64\n      jump\t// in\n    tag_63:\n      mload(0x40)\n      tag_65\n      swap2\n      swap1\n      tag_25\n      jump\t// in\n    tag_65:\n      mload(0x40)\n      dup1\n      swap2\n      sub\n      swap1\n      return\n        /* \"F/FairAIToken.sol\":355:383  uint256 public feePercentage */\n    tag_14:\n      tag_66\n      tag_67\n      jump\t// in\n    tag_66:\n      mload(0x40)\n      tag_68\n      swap2\n      swap1\n      tag_35\n      jump\t// in\n    tag_68:\n      mload(0x40)\n      dup1\n      swap2\n      sub\n      swap1\n      return\n        /* \"F/FairAIToken.sol\":2276:2445  function transfer(address recipient, uint256 amount) public override returns (bool) {... */\n    tag_15:\n      tag_69\n      0x04\n      dup1\n      calldatasize\n      sub\n      dup2\n      add\n      swap1\n      tag_70\n      swap2\n      swap1\n      tag_28\n      jump\t// in\n    tag_70:\n      tag_71\n      jump\t// in\n    tag_69:\n      mload(0x40)\n      tag_72\n      swap2\n      swap1\n      tag_31\n      jump\t// in\n    tag_72:\n      mload(0x40)\n      dup1\n      swap2\n      sub\n      swap1\n      return\n        /* \"@openzeppelin/contracts/token/ERC20/ERC20.sol\":3551:3691  function allowance(address owner, address spender) public view virtual returns (uint256) {... */\n    tag_16:\n      tag_73\n      0x04\n      dup1\n      calldatasize\n      sub\n      dup2\n      add\n      swap1\n      tag_74\n      swap2\n      swap1\n      tag_75\n      jump\t// in\n    tag_74:\n      tag_76\n      jump\t// in\n    tag_73:\n      mload(0x40)\n      tag_77\n      swap2\n      swap1\n      tag_35\n      jump\t// in\n    tag_77:\n      mload(0x40)\n      dup1\n      swap2\n      sub\n      swap1\n      return\n        /* \"F/FairAIToken.sol\":3581:3824  function updateFeeRecipient(address newFeeRecipient) external onlyOwner {... */\n    tag_17:\n      tag_78\n      0x04\n      dup1\n      calldatasize\n      sub\n      dup2\n      add\n      swap1\n      tag_79\n      swap2\n      swap1\n      tag_55\n      jump\t// in\n    tag_79:\n      tag_80\n      jump\t// in\n    tag_78:\n      stop\n        /* \"@openzeppelin/contracts/access/Ownable.sol\":2543:2758  function transferOwnership(address newOwner) public virtual onlyOwner {... */\n    tag_18:\n      tag_81\n      0x04\n      dup1\n      calldatasize\n      sub\n      dup2\n      add\n      swap1\n      tag_82\n      swap2\n      swap1\n      tag_55\n      jump\t// in\n    tag_82:\n      tag_83\n      jump\t// in\n    tag_81:\n      stop\n        /* \"@openzeppelin/contracts/token/ERC20/ERC20.sol\":1779:1868  function name() public view virtual returns (string memory) {... */\n    tag_23:\n        /* \"@openzeppelin/contracts/token/ERC20/ERC20.sol\":1824:1837  string memory */\n      0x60\n        /* \"@openzeppelin/contracts/token/ERC20/ERC20.sol\":1856:1861  _name */\n      0x03\n        /* \"@openzeppelin/contracts/token/ERC20/ERC20.sol\":1849:1861  return _name */\n      dup1\n      sload\n      tag_85\n      swap1\n      tag_86\n      jump\t// in\n    tag_85:\n      dup1\n      0x1f\n      add\n      0x20\n      dup1\n      swap2\n      div\n      mul\n      0x20\n      add\n      mload(0x40)\n      swap1\n      dup2\n      add\n      0x40\n      mstore\n      dup1\n      swap3\n      swap2\n      swap1\n      dup2\n      dup2\n      mstore\n      0x20\n      add\n      dup3\n      dup1\n      sload\n      tag_87\n      swap1\n      tag_86\n      jump\t// in\n    tag_87:\n      dup1\n      iszero\n      tag_88\n      jumpi\n      dup1\n      0x1f\n      lt\n      tag_89\n      jumpi\n      0x0100\n      dup1\n      dup4\n      sload\n      div\n      mul\n      dup4\n      mstore\n      swap2\n      0x20\n      add\n      swap2\n      jump(tag_88)\n    tag_89:\n      dup3\n      add\n      swap2\n      swap1\n      0x00\n      mstore\n      keccak256(0x00, 0x20)\n      swap1\n    tag_90:\n      dup2\n      sload\n      dup2\n      mstore\n      swap1\n      0x01\n      add\n      swap1\n      0x20\n      add\n      dup1\n      dup4\n      gt\n      tag_90\n      jumpi\n      dup3\n      swap1\n      sub\n      0x1f\n      and\n      dup3\n      add\n      swap2\n    tag_88:\n      pop\n      pop\n      pop\n      pop\n      pop\n      swap1\n      pop\n        /* \"@openzeppelin/contracts/token/ERC20/ERC20.sol\":1779:1868  function name() public view virtual returns (string memory) {... */\n      swap1\n      jump\t// out\n        /* \"@openzeppelin/contracts/token/ERC20/ERC20.sol\":3998:4184  function approve(address spender, uint256 value) public virtual returns (bool) {... */\n    tag_29:\n        /* \"@openzeppelin/contracts/token/ERC20/ERC20.sol\":4071:4075  bool */\n      0x00\n        /* \"@openzeppelin/contracts/token/ERC20/ERC20.sol\":4087:4100  address owner */\n      0x00\n        /* \"@openzeppelin/contracts/token/ERC20/ERC20.sol\":4103:4115  _msgSender() */\n      tag_92\n        /* \"@openzeppelin/contracts/token/ERC20/ERC20.sol\":4103:4113  _msgSender */\n      tag_93\n        /* \"@openzeppelin/contracts/token/ERC20/ERC20.sol\":4103:4115  _msgSender() */\n      jump\t// in\n    tag_92:\n        /* \"@openzeppelin/contracts/token/ERC20/ERC20.sol\":4087:4115  address owner = _msgSender() */\n      swap1\n      pop\n        /* \"@openzeppelin/contracts/token/ERC20/ERC20.sol\":4125:4156  _approve(owner, spender, value) */\n      tag_94\n        /* \"@openzeppelin/contracts/token/ERC20/ERC20.sol\":4134:4139  owner */\n      dup2\n        /* \"@openzeppelin/contracts/token/ERC20/ERC20.sol\":4141:4148  spender */\n      dup6\n        /* \"@openzeppelin/contracts/token/ERC20/ERC20.sol\":4150:4155  value */\n      dup6\n        /* \"@openzeppelin/contracts/token/ERC20/ERC20.sol\":4125:4133  _approve */\n      tag_95\n        /* \"@openzeppelin/contracts/token/ERC20/ERC20.sol\":4125:4156  _approve(owner, spender, value) */\n      jump\t// in\n    tag_94:\n        /* \"@openzeppelin/contracts/token/ERC20/ERC20.sol\":4173:4177  true */\n      0x01\n        /* \"@openzeppelin/contracts/token/ERC20/ERC20.sol\":4166:4177  return true */\n      swap2\n      pop\n      pop\n        /* \"@openzeppelin/contracts/token/ERC20/ERC20.sol\":3998:4184  function approve(address spender, uint256 value) public virtual returns (bool) {... */\n      swap3\n      swap2\n      pop\n      pop\n      jump\t// out\n        /* \"@openzeppelin/contracts/token/ERC20/ERC20.sol\":2849:2946  function totalSupply() public view virtual returns (uint256) {... */\n    tag_33:\n        /* \"@openzeppelin/contracts/token/ERC20/ERC20.sol\":2901:2908  uint256 */\n      0x00\n        /* \"@openzeppelin/contracts/token/ERC20/ERC20.sol\":2927:2939  _totalSupply */\n      sload(0x02)\n        /* \"@openzeppelin/contracts/token/ERC20/ERC20.sol\":2920:2939  return _totalSupply */\n      swap1\n      pop\n        /* \"@openzeppelin/contracts/token/ERC20/ERC20.sol\":2849:2946  function totalSupply() public view virtual returns (uint256) {... */\n      swap1\n      jump\t// out\n        /* \"F/FairAIToken.sol\":2548:2983  function transferFrom(... */\n    tag_39:\n        /* \"F/FairAIToken.sol\":2676:2680  bool */\n      0x00\n        /* \"F/FairAIToken.sol\":2692:2716  uint256 currentAllowance */\n      0x00\n        /* \"F/FairAIToken.sol\":2719:2748  allowance(sender, msg.sender) */\n      tag_98\n        /* \"F/FairAIToken.sol\":2729:2735  sender */\n      dup6\n        /* \"F/FairAIToken.sol\":2737:2747  msg.sender */\n      caller\n        /* \"F/FairAIToken.sol\":2719:2728  allowance */\n      tag_76\n        /* \"F/FairAIToken.sol\":2719:2748  allowance(sender, msg.sender) */\n      jump\t// in\n    tag_98:\n        /* \"F/FairAIToken.sol\":2692:2748  uint256 currentAllowance = allowance(sender, msg.sender) */\n      swap1\n      pop\n        /* \"F/FairAIToken.sol\":2786:2792  amount */\n      dup3\n        /* \"F/FairAIToken.sol\":2766:2782  currentAllowance */\n      dup2\n        /* \"F/FairAIToken.sol\":2766:2792  currentAllowance >= amount */\n      lt\n      iszero\n        /* \"F/FairAIToken.sol\":2758:2837  require(currentAllowance >= amount, \"ERC20: transfer amount exceeds allowance\") */\n      tag_99\n      jumpi\n      mload(0x40)\n      0x08c379a000000000000000000000000000000000000000000000000000000000\n      dup2\n      mstore\n      0x04\n      add\n      tag_100\n      swap1\n      tag_101\n      jump\t// in\n    tag_100:\n      mload(0x40)\n      dup1\n      swap2\n      sub\n      swap1\n      revert\n    tag_99:\n        /* \"F/FairAIToken.sol\":2847:2902  _approve(sender, msg.sender, currentAllowance - amount) */\n      tag_102\n        /* \"F/FairAIToken.sol\":2856:2862  sender */\n      dup6\n        /* \"F/FairAIToken.sol\":2864:2874  msg.sender */\n      caller\n        /* \"F/FairAIToken.sol\":2895:2901  amount */\n      dup6\n        /* \"F/FairAIToken.sol\":2876:2892  currentAllowance */\n      dup5\n        /* \"F/FairAIToken.sol\":2876:2901  currentAllowance - amount */\n      tag_103\n      swap2\n      swap1\n      tag_104\n      jump\t// in\n    tag_103:\n        /* \"F/FairAIToken.sol\":2847:2855  _approve */\n      tag_95\n        /* \"F/FairAIToken.sol\":2847:2902  _approve(sender, msg.sender, currentAllowance - amount) */\n      jump\t// in\n    tag_102:\n        /* \"F/FairAIToken.sol\":2912:2955  _transferWithFee(sender, recipient, amount) */\n      tag_105\n        /* \"F/FairAIToken.sol\":2929:2935  sender */\n      dup6\n        /* \"F/FairAIToken.sol\":2937:2946  recipient */\n      dup6\n        /* \"F/FairAIToken.sol\":2948:2954  amount */\n      dup6\n        /* \"F/FairAIToken.sol\":2912:2928  _transferWithFee */\n      tag_106\n        /* \"F/FairAIToken.sol\":2912:2955  _transferWithFee(sender, recipient, amount) */\n      jump\t// in\n    tag_105:\n        /* \"F/FairAIToken.sol\":2972:2976  true */\n      0x01\n        /* \"F/FairAIToken.sol\":2965:2976  return true */\n      swap2\n      pop\n      pop\n        /* \"F/FairAIToken.sol\":2548:2983  function transferFrom(... */\n      swap4\n      swap3\n      pop\n      pop\n      pop\n      jump\t// out\n        /* \"@openzeppelin/contracts/token/ERC20/ERC20.sol\":2707:2789  function decimals() public view virtual returns (uint8) {... */\n    tag_42:\n        /* \"@openzeppelin/contracts/token/ERC20/ERC20.sol\":2756:2761  uint8 */\n      0x00\n        /* \"@openzeppelin/contracts/token/ERC20/ERC20.sol\":2780:2782  18 */\n      0x12\n        /* \"@openzeppelin/contracts/token/ERC20/ERC20.sol\":2773:2782  return 18 */\n      swap1\n      pop\n        /* \"@openzeppelin/contracts/token/ERC20/ERC20.sol\":2707:2789  function decimals() public view virtual returns (uint8) {... */\n      swap1\n      jump\t// out\n        /* \"F/FairAIToken.sol\":444:471  address public feeRecipient */\n    tag_46:\n      0x07\n      0x00\n      swap1\n      sload\n      swap1\n      0x0100\n      exp\n      swap1\n      div\n      0xffffffffffffffffffffffffffffffffffffffff\n      and\n      dup2\n      jump\t// out\n        /* \"F/FairAIToken.sol\":3207:3432  function updateFeePercentage(uint256 newFeePercentage) external onlyOwner {... */\n    tag_52:\n        /* \"@openzeppelin/contracts/access/Ownable.sol\":1531:1544  _checkOwner() */\n      tag_109\n        /* \"@openzeppelin/contracts/access/Ownable.sol\":1531:1542  _checkOwner */\n      tag_110\n        /* \"@openzeppelin/contracts/access/Ownable.sol\":1531:1544  _checkOwner() */\n      jump\t// in\n    tag_109:\n        /* \"F/FairAIToken.sol\":3319:3323  1000 */\n      0x03e8\n        /* \"F/FairAIToken.sol\":3299:3315  newFeePercentage */\n      dup2\n        /* \"F/FairAIToken.sol\":3299:3323  newFeePercentage <= 1000 */\n      gt\n      iszero\n        /* \"F/FairAIToken.sol\":3291:3340  require(newFeePercentage <= 1000, \"Fee too high\") */\n      tag_112\n      jumpi\n      mload(0x40)\n      0x08c379a000000000000000000000000000000000000000000000000000000000\n      dup2\n      mstore\n      0x04\n      add\n      tag_113\n      swap1\n      tag_114\n      jump\t// in\n    tag_113:\n      mload(0x40)\n      dup1\n      swap2\n      sub\n      swap1\n      revert\n    tag_112:\n        /* \"F/FairAIToken.sol\":3366:3382  newFeePercentage */\n      dup1\n        /* \"F/FairAIToken.sol\":3350:3363  feePercentage */\n      0x06\n        /* \"F/FairAIToken.sol\":3350:3382  feePercentage = newFeePercentage */\n      dup2\n      swap1\n      sstore\n      pop\n        /* \"F/FairAIToken.sol\":3397:3425  FeeUpdated(newFeePercentage) */\n      0x8c4d35e54a3f2ef1134138fd8ea3daee6a3c89e10d2665996babdf70261e2c76\n        /* \"F/FairAIToken.sol\":3408:3424  newFeePercentage */\n      dup2\n        /* \"F/FairAIToken.sol\":3397:3425  FeeUpdated(newFeePercentage) */\n      mload(0x40)\n      tag_115\n      swap2\n      swap1\n      tag_35\n      jump\t// in\n    tag_115:\n      mload(0x40)\n      dup1\n      swap2\n      sub\n      swap1\n      log1\n        /* \"F/FairAIToken.sol\":3207:3432  function updateFeePercentage(uint256 newFeePercentage) external onlyOwner {... */\n      pop\n      jump\t// out\n        /* \"@openzeppelin/contracts/token/ERC20/ERC20.sol\":3004:3120  function balanceOf(address account) public view virtual returns (uint256) {... */\n    tag_56:\n        /* \"@openzeppelin/contracts/token/ERC20/ERC20.sol\":3069:3076  uint256 */\n      0x00\n        /* \"@openzeppelin/contracts/token/ERC20/ERC20.sol\":3095:3104  _balances */\n      0x00\n        /* \"@openzeppelin/contracts/token/ERC20/ERC20.sol\":3095:3113  _balances[account] */\n      0x00\n        /* \"@openzeppelin/contracts/token/ERC20/ERC20.sol\":3105:3112  account */\n      dup4\n        /* \"@openzeppelin/contracts/token/ERC20/ERC20.sol\":3095:3113  _balances[account] */\n      0xffffffffffffffffffffffffffffffffffffffff\n      and\n      0xffffffffffffffffffffffffffffffffffffffff\n      and\n      dup2\n      mstore\n      0x20\n      add\n      swap1\n      dup2\n      mstore\n      0x20\n      add\n      0x00\n      keccak256\n      sload\n        /* \"@openzeppelin/contracts/token/ERC20/ERC20.sol\":3088:3113  return _balances[account] */\n      swap1\n      pop\n        /* \"@openzeppelin/contracts/token/ERC20/ERC20.sol\":3004:3120  function balanceOf(address account) public view virtual returns (uint256) {... */\n      swap2\n      swap1\n      pop\n      jump\t// out\n        /* \"@openzeppelin/contracts/access/Ownable.sol\":2293:2394  function renounceOwnership() public virtual onlyOwner {... */\n    tag_59:\n        /* \"@openzeppelin/contracts/access/Ownable.sol\":1531:1544  _checkOwner() */\n      tag_118\n        /* \"@openzeppelin/contracts/access/Ownable.sol\":1531:1542  _checkOwner */\n      tag_110\n        /* \"@openzeppelin/contracts/access/Ownable.sol\":1531:1544  _checkOwner() */\n      jump\t// in\n    tag_118:\n        /* \"@openzeppelin/contracts/access/Ownable.sol\":2357:2387  _transferOwnership(address(0)) */\n      tag_120\n        /* \"@openzeppelin/contracts/access/Ownable.sol\":2384:2385  0 */\n      0x00\n        /* \"@openzeppelin/contracts/access/Ownable.sol\":2357:2375  _transferOwnership */\n      tag_121\n        /* \"@openzeppelin/contracts/access/Ownable.sol\":2357:2387  _transferOwnership(address(0)) */\n      jump\t// in\n    tag_120:\n        /* \"@openzeppelin/contracts/access/Ownable.sol\":2293:2394  function renounceOwnership() public virtual onlyOwner {... */\n      jump\t// out\n        /* \"@openzeppelin/contracts/access/Ownable.sol\":1638:1723  function owner() public view virtual returns (address) {... */\n    tag_61:\n        /* \"@openzeppelin/contracts/access/Ownable.sol\":1684:1691  address */\n      0x00\n        /* \"@openzeppelin/contracts/access/Ownable.sol\":1710:1716  _owner */\n      0x05\n      0x00\n      swap1\n      sload\n      swap1\n      0x0100\n      exp\n      swap1\n      div\n      0xffffffffffffffffffffffffffffffffffffffff\n      and\n        /* \"@openzeppelin/contracts/access/Ownable.sol\":1703:1716  return _owner */\n      swap1\n      pop\n        /* \"@openzeppelin/contracts/access/Ownable.sol\":1638:1723  function owner() public view virtual returns (address) {... */\n      swap1\n      jump\t// out\n        /* \"@openzeppelin/contracts/token/ERC20/ERC20.sol\":1981:2074  function symbol() public view virtual returns (string memory) {... */\n    tag_64:\n        /* \"@openzeppelin/contracts/token/ERC20/ERC20.sol\":2028:2041  string memory */\n      0x60\n        /* \"@openzeppelin/contracts/token/ERC20/ERC20.sol\":2060:2067  _symbol */\n      0x04\n        /* \"@openzeppelin/contracts/token/ERC20/ERC20.sol\":2053:2067  return _symbol */\n      dup1\n      sload\n      tag_124\n      swap1\n      tag_86\n      jump\t// in\n    tag_124:\n      dup1\n      0x1f\n      add\n      0x20\n      dup1\n      swap2\n      div\n      mul\n      0x20\n      add\n      mload(0x40)\n      swap1\n      dup2\n      add\n      0x40\n      mstore\n      dup1\n      swap3\n      swap2\n      swap1\n      dup2\n      dup2\n      mstore\n      0x20\n      add\n      dup3\n      dup1\n      sload\n      tag_125\n      swap1\n      tag_86\n      jump\t// in\n    tag_125:\n      dup1\n      iszero\n      tag_126\n      jumpi\n      dup1\n      0x1f\n      lt\n      tag_127\n      jumpi\n      0x0100\n      dup1\n      dup4\n      sload\n      div\n      mul\n      dup4\n      mstore\n      swap2\n      0x20\n      add\n      swap2\n      jump(tag_126)\n    tag_127:\n      dup3\n      add\n      swap2\n      swap1\n      0x00\n      mstore\n      keccak256(0x00, 0x20)\n      swap1\n    tag_128:\n      dup2\n      sload\n      dup2\n      mstore\n      swap1\n      0x01\n      add\n      swap1\n      0x20\n      add\n      dup1\n      dup4\n      gt\n      tag_128\n      jumpi\n      dup3\n      swap1\n      sub\n      0x1f\n      and\n      dup3\n      add\n      swap2\n    tag_126:\n      pop\n      pop\n      pop\n      pop\n      pop\n      swap1\n      pop\n        /* \"@openzeppelin/contracts/token/ERC20/ERC20.sol\":1981:2074  function symbol() public view virtual returns (string memory) {... */\n      swap1\n      jump\t// out\n        /* \"F/FairAIToken.sol\":355:383  uint256 public feePercentage */\n    tag_67:\n      sload(0x06)\n      dup2\n      jump\t// out\n        /* \"F/FairAIToken.sol\":2276:2445  function transfer(address recipient, uint256 amount) public override returns (bool) {... */\n    tag_71:\n        /* \"F/FairAIToken.sol\":2354:2358  bool */\n      0x00\n        /* \"F/FairAIToken.sol\":2370:2417  _transferWithFee(msg.sender, recipient, amount) */\n      tag_130\n        /* \"F/FairAIToken.sol\":2387:2397  msg.sender */\n      caller\n        /* \"F/FairAIToken.sol\":2399:2408  recipient */\n      dup5\n        /* \"F/FairAIToken.sol\":2410:2416  amount */\n      dup5\n        /* \"F/FairAIToken.sol\":2370:2386  _transferWithFee */\n      tag_106\n        /* \"F/FairAIToken.sol\":2370:2417  _transferWithFee(msg.sender, recipient, amount) */\n      jump\t// in\n    tag_130:\n        /* \"F/FairAIToken.sol\":2434:2438  true */\n      0x01\n        /* \"F/FairAIToken.sol\":2427:2438  return true */\n      swap1\n      pop\n        /* \"F/FairAIToken.sol\":2276:2445  function transfer(address recipient, uint256 amount) public override returns (bool) {... */\n      swap3\n      swap2\n      pop\n      pop\n      jump\t// out\n        /* \"@openzeppelin/contracts/token/ERC20/ERC20.sol\":3551:3691  function allowance(address owner, address spender) public view virtual returns (uint256) {... */\n    tag_76:\n        /* \"@openzeppelin/contracts/token/ERC20/ERC20.sol\":3631:3638  uint256 */\n      0x00\n        /* \"@openzeppelin/contracts/token/ERC20/ERC20.sol\":3657:3668  _allowances */\n      0x01\n        /* \"@openzeppelin/contracts/token/ERC20/ERC20.sol\":3657:3675  _allowances[owner] */\n      0x00\n        /* \"@openzeppelin/contracts/token/ERC20/ERC20.sol\":3669:3674  owner */\n      dup5\n        /* \"@openzeppelin/contracts/token/ERC20/ERC20.sol\":3657:3675  _allowances[owner] */\n      0xffffffffffffffffffffffffffffffffffffffff\n      and\n      0xffffffffffffffffffffffffffffffffffffffff\n      and\n      dup2\n      mstore\n      0x20\n      add\n      swap1\n      dup2\n      mstore\n      0x20\n      add\n      0x00\n      keccak256\n        /* \"@openzeppelin/contracts/token/ERC20/ERC20.sol\":3657:3684  _allowances[owner][spender] */\n      0x00\n        /* \"@openzeppelin/contracts/token/ERC20/ERC20.sol\":3676:3683  spender */\n      dup4\n        /* \"@openzeppelin/contracts/token/ERC20/ERC20.sol\":3657:3684  _allowances[owner][spender] */\n      0xffffffffffffffffffffffffffffffffffffffff\n      and\n      0xffffffffffffffffffffffffffffffffffffffff\n      and\n      dup2\n      mstore\n      0x20\n      add\n      swap1\n      dup2\n      mstore\n      0x20\n      add\n      0x00\n      keccak256\n      sload\n        /* \"@openzeppelin/contracts/token/ERC20/ERC20.sol\":3650:3684  return _allowances[owner][spender] */\n      swap1\n      pop\n        /* \"@openzeppelin/contracts/token/ERC20/ERC20.sol\":3551:3691  function allowance(address owner, address spender) public view virtual returns (uint256) {... */\n      swap3\n      swap2\n      pop\n      pop\n      jump\t// out\n        /* \"F/FairAIToken.sol\":3581:3824  function updateFeeRecipient(address newFeeRecipient) external onlyOwner {... */\n    tag_80:\n        /* \"@openzeppelin/contracts/access/Ownable.sol\":1531:1544  _checkOwner() */\n      tag_133\n        /* \"@openzeppelin/contracts/access/Ownable.sol\":1531:1542  _checkOwner */\n      tag_110\n        /* \"@openzeppelin/contracts/access/Ownable.sol\":1531:1544  _checkOwner() */\n      jump\t// in\n    tag_133:\n        /* \"F/FairAIToken.sol\":3698:3699  0 */\n      0x00\n        /* \"F/FairAIToken.sol\":3671:3700  newFeeRecipient != address(0) */\n      0xffffffffffffffffffffffffffffffffffffffff\n      and\n        /* \"F/FairAIToken.sol\":3671:3686  newFeeRecipient */\n      dup2\n        /* \"F/FairAIToken.sol\":3671:3700  newFeeRecipient != address(0) */\n      0xffffffffffffffffffffffffffffffffffffffff\n      and\n      sub\n        /* \"F/FairAIToken.sol\":3663:3726  require(newFeeRecipient != address(0), \"Invalid fee recipient\") */\n      tag_135\n      jumpi\n      mload(0x40)\n      0x08c379a000000000000000000000000000000000000000000000000000000000\n      dup2\n      mstore\n      0x04\n      add\n      tag_136\n      swap1\n      tag_137\n      jump\t// in\n    tag_136:\n      mload(0x40)\n      dup1\n      swap2\n      sub\n      swap1\n      revert\n    tag_135:\n        /* \"F/FairAIToken.sol\":3751:3766  newFeeRecipient */\n      dup1\n        /* \"F/FairAIToken.sol\":3736:3748  feeRecipient */\n      0x07\n      0x00\n        /* \"F/FairAIToken.sol\":3736:3766  feeRecipient = newFeeRecipient */\n      0x0100\n      exp\n      dup2\n      sload\n      dup2\n      0xffffffffffffffffffffffffffffffffffffffff\n      mul\n      not\n      and\n      swap1\n      dup4\n      0xffffffffffffffffffffffffffffffffffffffff\n      and\n      mul\n      or\n      swap1\n      sstore\n      pop\n        /* \"F/FairAIToken.sol\":3781:3817  FeeRecipientUpdated(newFeeRecipient) */\n      0x7a7b5a0a132f9e0581eb8527f66eae9ee89c2a3e79d4ac7e41a1f1f4d48a7fc2\n        /* \"F/FairAIToken.sol\":3801:3816  newFeeRecipient */\n      dup2\n        /* \"F/FairAIToken.sol\":3781:3817  FeeRecipientUpdated(newFeeRecipient) */\n      mload(0x40)\n      tag_138\n      swap2\n      swap1\n      tag_48\n      jump\t// in\n    tag_138:\n      mload(0x40)\n      dup1\n      swap2\n      sub\n      swap1\n      log1\n        /* \"F/FairAIToken.sol\":3581:3824  function updateFeeRecipient(address newFeeRecipient) external onlyOwner {... */\n      pop\n      jump\t// out\n        /* \"@openzeppelin/contracts/access/Ownable.sol\":2543:2758  function transferOwnership(address newOwner) public virtual onlyOwner {... */\n    tag_83:\n        /* \"@openzeppelin/contracts/access/Ownable.sol\":1531:1544  _checkOwner() */\n      tag_140\n        /* \"@openzeppelin/contracts/access/Ownable.sol\":1531:1542  _checkOwner */\n      tag_110\n        /* \"@openzeppelin/contracts/access/Ownable.sol\":1531:1544  _checkOwner() */\n      jump\t// in\n    tag_140:\n        /* \"@openzeppelin/contracts/access/Ownable.sol\":2647:2648  0 */\n      0x00\n        /* \"@openzeppelin/contracts/access/Ownable.sol\":2627:2649  newOwner == address(0) */\n      0xffffffffffffffffffffffffffffffffffffffff\n      and\n        /* \"@openzeppelin/contracts/access/Ownable.sol\":2627:2635  newOwner */\n      dup2\n        /* \"@openzeppelin/contracts/access/Ownable.sol\":2627:2649  newOwner == address(0) */\n      0xffffffffffffffffffffffffffffffffffffffff\n      and\n      sub\n        /* \"@openzeppelin/contracts/access/Ownable.sol\":2623:2714  if (newOwner == address(0)) {... */\n      tag_142\n      jumpi\n        /* \"@openzeppelin/contracts/access/Ownable.sol\":2700:2701  0 */\n      0x00\n        /* \"@openzeppelin/contracts/access/Ownable.sol\":2672:2703  OwnableInvalidOwner(address(0)) */\n      mload(0x40)\n      0x1e4fbdf700000000000000000000000000000000000000000000000000000000\n      dup2\n      mstore\n      0x04\n      add\n      tag_143\n      swap2\n      swap1\n      tag_48\n      jump\t// in\n    tag_143:\n      mload(0x40)\n      dup1\n      swap2\n      sub\n      swap1\n      revert\n        /* \"@openzeppelin/contracts/access/Ownable.sol\":2623:2714  if (newOwner == address(0)) {... */\n    tag_142:\n        /* \"@openzeppelin/contracts/access/Ownable.sol\":2723:2751  _transferOwnership(newOwner) */\n      tag_144\n        /* \"@openzeppelin/contracts/access/Ownable.sol\":2742:2750  newOwner */\n      dup2\n        /* \"@openzeppelin/contracts/access/Ownable.sol\":2723:2741  _transferOwnership */\n      tag_121\n        /* \"@openzeppelin/contracts/access/Ownable.sol\":2723:2751  _transferOwnership(newOwner) */\n      jump\t// in\n    tag_144:\n        /* \"@openzeppelin/contracts/access/Ownable.sol\":2543:2758  function transferOwnership(address newOwner) public virtual onlyOwner {... */\n      pop\n      jump\t// out\n        /* \"@openzeppelin/contracts/utils/Context.sol\":656:752  function _msgSender() internal view virtual returns (address) {... */\n    tag_93:\n        /* \"@openzeppelin/contracts/utils/Context.sol\":709:716  address */\n      0x00\n        /* \"@openzeppelin/contracts/utils/Context.sol\":735:745  msg.sender */\n      caller\n        /* \"@openzeppelin/contracts/utils/Context.sol\":728:745  return msg.sender */\n      swap1\n      pop\n        /* \"@openzeppelin/contracts/utils/Context.sol\":656:752  function _msgSender() internal view virtual returns (address) {... */\n      swap1\n      jump\t// out\n        /* \"@openzeppelin/contracts/token/ERC20/ERC20.sol\":8726:8854  function _approve(address owner, address spender, uint256 value) internal {... */\n    tag_95:\n        /* \"@openzeppelin/contracts/token/ERC20/ERC20.sol\":8810:8847  _approve(owner, spender, value, true) */\n      tag_147\n        /* \"@openzeppelin/contracts/token/ERC20/ERC20.sol\":8819:8824  owner */\n      dup4\n        /* \"@openzeppelin/contracts/token/ERC20/ERC20.sol\":8826:8833  spender */\n      dup4\n        /* \"@openzeppelin/contracts/token/ERC20/ERC20.sol\":8835:8840  value */\n      dup4\n        /* \"@openzeppelin/contracts/token/ERC20/ERC20.sol\":8842:8846  true */\n      0x01\n        /* \"@openzeppelin/contracts/token/ERC20/ERC20.sol\":8810:8818  _approve */\n      tag_148\n        /* \"@openzeppelin/contracts/token/ERC20/ERC20.sol\":8810:8847  _approve(owner, spender, value, true) */\n      jump\t// in\n    tag_147:\n        /* \"@openzeppelin/contracts/token/ERC20/ERC20.sol\":8726:8854  function _approve(address owner, address spender, uint256 value) internal {... */\n      pop\n      pop\n      pop\n      jump\t// out\n        /* \"F/FairAIToken.sol\":1575:2173  function _transferWithFee(... */\n    tag_106:\n        /* \"F/FairAIToken.sol\":1721:1722  0 */\n      0x00\n        /* \"F/FairAIToken.sol\":1705:1718  feePercentage */\n      sload(0x06)\n        /* \"F/FairAIToken.sol\":1705:1722  feePercentage > 0 */\n      gt\n        /* \"F/FairAIToken.sol\":1705:1752  feePercentage > 0 && feeRecipient != address(0) */\n      dup1\n      iszero\n      tag_150\n      jumpi\n      pop\n        /* \"F/FairAIToken.sol\":1750:1751  0 */\n      0x00\n        /* \"F/FairAIToken.sol\":1726:1752  feeRecipient != address(0) */\n      0xffffffffffffffffffffffffffffffffffffffff\n      and\n        /* \"F/FairAIToken.sol\":1726:1738  feeRecipient */\n      0x07\n      0x00\n      swap1\n      sload\n      swap1\n      0x0100\n      exp\n      swap1\n      div\n      0xffffffffffffffffffffffffffffffffffffffff\n      and\n        /* \"F/FairAIToken.sol\":1726:1752  feeRecipient != address(0) */\n      0xffffffffffffffffffffffffffffffffffffffff\n      and\n      eq\n      iszero\n        /* \"F/FairAIToken.sol\":1705:1752  feePercentage > 0 && feeRecipient != address(0) */\n    tag_150:\n        /* \"F/FairAIToken.sol\":1701:2167  if (feePercentage > 0 && feeRecipient != address(0)) {... */\n      iszero\n      tag_151\n      jumpi\n        /* \"F/FairAIToken.sol\":1768:1779  uint256 fee */\n      0x00\n        /* \"F/FairAIToken.sol\":1809:1814  10000 */\n      0x2710\n        /* \"F/FairAIToken.sol\":1792:1805  feePercentage */\n      sload(0x06)\n        /* \"F/FairAIToken.sol\":1783:1789  amount */\n      dup4\n        /* \"F/FairAIToken.sol\":1783:1805  amount * feePercentage */\n      tag_152\n      swap2\n      swap1\n      tag_153\n      jump\t// in\n    tag_152:\n        /* \"F/FairAIToken.sol\":1782:1814  (amount * feePercentage) / 10000 */\n      tag_154\n      swap2\n      swap1\n      tag_155\n      jump\t// in\n    tag_154:\n        /* \"F/FairAIToken.sol\":1768:1814  uint256 fee = (amount * feePercentage) / 10000 */\n      swap1\n      pop\n        /* \"F/FairAIToken.sol\":1828:1850  uint256 amountAfterFee */\n      0x00\n        /* \"F/FairAIToken.sol\":1862:1865  fee */\n      dup2\n        /* \"F/FairAIToken.sol\":1853:1859  amount */\n      dup4\n        /* \"F/FairAIToken.sol\":1853:1865  amount - fee */\n      tag_156\n      swap2\n      swap1\n      tag_104\n      jump\t// in\n    tag_156:\n        /* \"F/FairAIToken.sol\":1828:1865  uint256 amountAfterFee = amount - fee */\n      swap1\n      pop\n        /* \"F/FairAIToken.sol\":1923:1965  super._transfer(sender, feeRecipient, fee) */\n      tag_157\n        /* \"F/FairAIToken.sol\":1939:1945  sender */\n      dup6\n        /* \"F/FairAIToken.sol\":1947:1959  feeRecipient */\n      0x07\n      0x00\n      swap1\n      sload\n      swap1\n      0x0100\n      exp\n      swap1\n      div\n      0xffffffffffffffffffffffffffffffffffffffff\n      and\n        /* \"F/FairAIToken.sol\":1961:1964  fee */\n      dup5\n        /* \"F/FairAIToken.sol\":1923:1938  super._transfer */\n      tag_158\n        /* \"F/FairAIToken.sol\":1923:1965  super._transfer(sender, feeRecipient, fee) */\n      jump\t// in\n    tag_157:\n        /* \"F/FairAIToken.sol\":2033:2083  super._transfer(sender, recipient, amountAfterFee) */\n      tag_159\n        /* \"F/FairAIToken.sol\":2049:2055  sender */\n      dup6\n        /* \"F/FairAIToken.sol\":2057:2066  recipient */\n      dup6\n        /* \"F/FairAIToken.sol\":2068:2082  amountAfterFee */\n      dup4\n        /* \"F/FairAIToken.sol\":2033:2048  super._transfer */\n      tag_158\n        /* \"F/FairAIToken.sol\":2033:2083  super._transfer(sender, recipient, amountAfterFee) */\n      jump\t// in\n    tag_159:\n        /* \"F/FairAIToken.sol\":1754:2094  {... */\n      pop\n      pop\n        /* \"F/FairAIToken.sol\":1701:2167  if (feePercentage > 0 && feeRecipient != address(0)) {... */\n      jump(tag_160)\n    tag_151:\n        /* \"F/FairAIToken.sol\":2114:2156  super._transfer(sender, recipient, amount) */\n      tag_161\n        /* \"F/FairAIToken.sol\":2130:2136  sender */\n      dup4\n        /* \"F/FairAIToken.sol\":2138:2147  recipient */\n      dup4\n        /* \"F/FairAIToken.sol\":2149:2155  amount */\n      dup4\n        /* \"F/FairAIToken.sol\":2114:2129  super._transfer */\n      tag_158\n        /* \"F/FairAIToken.sol\":2114:2156  super._transfer(sender, recipient, amount) */\n      jump\t// in\n    tag_161:\n        /* \"F/FairAIToken.sol\":1701:2167  if (feePercentage > 0 && feeRecipient != address(0)) {... */\n    tag_160:\n        /* \"F/FairAIToken.sol\":1575:2173  function _transferWithFee(... */\n      pop\n      pop\n      pop\n      jump\t// out\n        /* \"@openzeppelin/contracts/access/Ownable.sol\":1796:1958  function _checkOwner() internal view virtual {... */\n    tag_110:\n        /* \"@openzeppelin/contracts/access/Ownable.sol\":1866:1878  _msgSender() */\n      tag_163\n        /* \"@openzeppelin/contracts/access/Ownable.sol\":1866:1876  _msgSender */\n      tag_93\n        /* \"@openzeppelin/contracts/access/Ownable.sol\":1866:1878  _msgSender() */\n      jump\t// in\n    tag_163:\n        /* \"@openzeppelin/contracts/access/Ownable.sol\":1855:1878  owner() != _msgSender() */\n      0xffffffffffffffffffffffffffffffffffffffff\n      and\n        /* \"@openzeppelin/contracts/access/Ownable.sol\":1855:1862  owner() */\n      tag_164\n        /* \"@openzeppelin/contracts/access/Ownable.sol\":1855:1860  owner */\n      tag_61\n        /* \"@openzeppelin/contracts/access/Ownable.sol\":1855:1862  owner() */\n      jump\t// in\n    tag_164:\n        /* \"@openzeppelin/contracts/access/Ownable.sol\":1855:1878  owner() != _msgSender() */\n      0xffffffffffffffffffffffffffffffffffffffff\n      and\n      eq\n        /* \"@openzeppelin/contracts/access/Ownable.sol\":1851:1952  if (owner() != _msgSender()) {... */\n      tag_165\n      jumpi\n        /* \"@openzeppelin/contracts/access/Ownable.sol\":1928:1940  _msgSender() */\n      tag_166\n        /* \"@openzeppelin/contracts/access/Ownable.sol\":1928:1938  _msgSender */\n      tag_93\n        /* \"@openzeppelin/contracts/access/Ownable.sol\":1928:1940  _msgSender() */\n      jump\t// in\n    tag_166:\n        /* \"@openzeppelin/contracts/access/Ownable.sol\":1901:1941  OwnableUnauthorizedAccount(_msgSender()) */\n      mload(0x40)\n      0x118cdaa700000000000000000000000000000000000000000000000000000000\n      dup2\n      mstore\n      0x04\n      add\n      tag_167\n      swap2\n      swap1\n      tag_48\n      jump\t// in\n    tag_167:\n      mload(0x40)\n      dup1\n      swap2\n      sub\n      swap1\n      revert\n        /* \"@openzeppelin/contracts/access/Ownable.sol\":1851:1952  if (owner() != _msgSender()) {... */\n    tag_165:\n        /* \"@openzeppelin/contracts/access/Ownable.sol\":1796:1958  function _checkOwner() internal view virtual {... */\n      jump\t// out\n        /* \"@openzeppelin/contracts/access/Ownable.sol\":2912:3099  function _transferOwnership(address newOwner) internal virtual {... */\n    tag_121:\n        /* \"@openzeppelin/contracts/access/Ownable.sol\":2985:3001  address oldOwner */\n      0x00\n        /* \"@openzeppelin/contracts/access/Ownable.sol\":3004:3010  _owner */\n      0x05\n      0x00\n      swap1\n      sload\n      swap1\n      0x0100\n      exp\n      swap1\n      div\n      0xffffffffffffffffffffffffffffffffffffffff\n      and\n        /* \"@openzeppelin/contracts/access/Ownable.sol\":2985:3010  address oldOwner = _owner */\n      swap1\n      pop\n        /* \"@openzeppelin/contracts/access/Ownable.sol\":3029:3037  newOwner */\n      dup2\n        /* \"@openzeppelin/contracts/access/Ownable.sol\":3020:3026  _owner */\n      0x05\n      0x00\n        /* \"@openzeppelin/contracts/access/Ownable.sol\":3020:3037  _owner = newOwner */\n      0x0100\n      exp\n      dup2\n      sload\n      dup2\n      0xffffffffffffffffffffffffffffffffffffffff\n      mul\n      not\n      and\n      swap1\n      dup4\n      0xffffffffffffffffffffffffffffffffffffffff\n      and\n      mul\n      or\n      swap1\n      sstore\n      pop\n        /* \"@openzeppelin/contracts/access/Ownable.sol\":3083:3091  newOwner */\n      dup2\n        /* \"@openzeppelin/contracts/access/Ownable.sol\":3052:3092  OwnershipTransferred(oldOwner, newOwner) */\n      0xffffffffffffffffffffffffffffffffffffffff\n      and\n        /* \"@openzeppelin/contracts/access/Ownable.sol\":3073:3081  oldOwner */\n      dup2\n        /* \"@openzeppelin/contracts/access/Ownable.sol\":3052:3092  OwnershipTransferred(oldOwner, newOwner) */\n      0xffffffffffffffffffffffffffffffffffffffff\n      and\n      0x8be0079c531659141344cd1fd0a4f28419497f9722a3daafe3b4186f6b6457e0\n      mload(0x40)\n      mload(0x40)\n      dup1\n      swap2\n      sub\n      swap1\n      log3\n        /* \"@openzeppelin/contracts/access/Ownable.sol\":2975:3099  {... */\n      pop\n        /* \"@openzeppelin/contracts/access/Ownable.sol\":2912:3099  function _transferOwnership(address newOwner) internal virtual {... */\n      pop\n      jump\t// out\n        /* \"@openzeppelin/contracts/token/ERC20/ERC20.sol\":9701:10133  function _approve(address owner, address spender, uint256 value, bool emitEvent) internal virtual {... */\n    tag_148:\n        /* \"@openzeppelin/contracts/token/ERC20/ERC20.sol\":9830:9831  0 */\n      0x00\n        /* \"@openzeppelin/contracts/token/ERC20/ERC20.sol\":9813:9832  owner == address(0) */\n      0xffffffffffffffffffffffffffffffffffffffff\n      and\n        /* \"@openzeppelin/contracts/token/ERC20/ERC20.sol\":9813:9818  owner */\n      dup5\n        /* \"@openzeppelin/contracts/token/ERC20/ERC20.sol\":9813:9832  owner == address(0) */\n      0xffffffffffffffffffffffffffffffffffffffff\n      and\n      sub\n        /* \"@openzeppelin/contracts/token/ERC20/ERC20.sol\":9809:9898  if (owner == address(0)) {... */\n      tag_170\n      jumpi\n        /* \"@openzeppelin/contracts/token/ERC20/ERC20.sol\":9884:9885  0 */\n      0x00\n        /* \"@openzeppelin/contracts/token/ERC20/ERC20.sol\":9855:9887  ERC20InvalidApprover(address(0)) */\n      mload(0x40)\n      0xe602df0500000000000000000000000000000000000000000000000000000000\n      dup2\n      mstore\n      0x04\n      add\n      tag_171\n      swap2\n      swap1\n      tag_48\n      jump\t// in\n    tag_171:\n      mload(0x40)\n      dup1\n      swap2\n      sub\n      swap1\n      revert\n        /* \"@openzeppelin/contracts/token/ERC20/ERC20.sol\":9809:9898  if (owner == address(0)) {... */\n    tag_170:\n        /* \"@openzeppelin/contracts/token/ERC20/ERC20.sol\":9930:9931  0 */\n      0x00\n        /* \"@openzeppelin/contracts/token/ERC20/ERC20.sol\":9911:9932  spender == address(0) */\n      0xffffffffffffffffffffffffffffffffffffffff\n      and\n        /* \"@openzeppelin/contracts/token/ERC20/ERC20.sol\":9911:9918  spender */\n      dup4\n        /* \"@openzeppelin/contracts/token/ERC20/ERC20.sol\":9911:9932  spender == address(0) */\n      0xffffffffffffffffffffffffffffffffffffffff\n      and\n      sub\n        /* \"@openzeppelin/contracts/token/ERC20/ERC20.sol\":9907:9997  if (spender == address(0)) {... */\n      tag_172\n      jumpi\n        /* \"@openzeppelin/contracts/token/ERC20/ERC20.sol\":9983:9984  0 */\n      0x00\n        /* \"@openzeppelin/contracts/token/ERC20/ERC20.sol\":9955:9986  ERC20InvalidSpender(address(0)) */\n      mload(0x40)\n      0x94280d6200000000000000000000000000000000000000000000000000000000\n      dup2\n      mstore\n      0x04\n      add\n      tag_173\n      swap2\n      swap1\n      tag_48\n      jump\t// in\n    tag_173:\n      mload(0x40)\n      dup1\n      swap2\n      sub\n      swap1\n      revert\n        /* \"@openzeppelin/contracts/token/ERC20/ERC20.sol\":9907:9997  if (spender == address(0)) {... */\n    tag_172:\n        /* \"@openzeppelin/contracts/token/ERC20/ERC20.sol\":10036:10041  value */\n      dup2\n        /* \"@openzeppelin/contracts/token/ERC20/ERC20.sol\":10006:10017  _allowances */\n      0x01\n        /* \"@openzeppelin/contracts/token/ERC20/ERC20.sol\":10006:10024  _allowances[owner] */\n      0x00\n        /* \"@openzeppelin/contracts/token/ERC20/ERC20.sol\":10018:10023  owner */\n      dup7\n        /* \"@openzeppelin/contracts/token/ERC20/ERC20.sol\":10006:10024  _allowances[owner] */\n      0xffffffffffffffffffffffffffffffffffffffff\n      and\n      0xffffffffffffffffffffffffffffffffffffffff\n      and\n      dup2\n      mstore\n      0x20\n      add\n      swap1\n      dup2\n      mstore\n      0x20\n      add\n      0x00\n      keccak256\n        /* \"@openzeppelin/contracts/token/ERC20/ERC20.sol\":10006:10033  _allowances[owner][spender] */\n      0x00\n        /* \"@openzeppelin/contracts/token/ERC20/ERC20.sol\":10025:10032  spender */\n      dup6\n        /* \"@openzeppelin/contracts/token/ERC20/ERC20.sol\":10006:10033  _allowances[owner][spender] */\n      0xffffffffffffffffffffffffffffffffffffffff\n      and\n      0xffffffffffffffffffffffffffffffffffffffff\n      and\n      dup2\n      mstore\n      0x20\n      add\n      swap1\n      dup2\n      mstore\n      0x20\n      add\n      0x00\n      keccak256\n        /* \"@openzeppelin/contracts/token/ERC20/ERC20.sol\":10006:10041  _allowances[owner][spender] = value */\n      dup2\n      swap1\n      sstore\n      pop\n        /* \"@openzeppelin/contracts/token/ERC20/ERC20.sol\":10055:10064  emitEvent */\n      dup1\n        /* \"@openzeppelin/contracts/token/ERC20/ERC20.sol\":10051:10127  if (emitEvent) {... */\n      iszero\n      tag_174\n      jumpi\n        /* \"@openzeppelin/contracts/token/ERC20/ERC20.sol\":10101:10108  spender */\n      dup3\n        /* \"@openzeppelin/contracts/token/ERC20/ERC20.sol\":10085:10116  Approval(owner, spender, value) */\n      0xffffffffffffffffffffffffffffffffffffffff\n      and\n        /* \"@openzeppelin/contracts/token/ERC20/ERC20.sol\":10094:10099  owner */\n      dup5\n        /* \"@openzeppelin/contracts/token/ERC20/ERC20.sol\":10085:10116  Approval(owner, spender, value) */\n      0xffffffffffffffffffffffffffffffffffffffff\n      and\n      0x8c5be1e5ebec7d5bd14f71427d1e84f3dd0314c0f7b2291e5b200ac8c7c3b925\n        /* \"@openzeppelin/contracts/token/ERC20/ERC20.sol\":10110:10115  value */\n      dup5\n        /* \"@openzeppelin/contracts/token/ERC20/ERC20.sol\":10085:10116  Approval(owner, spender, value) */\n      mload(0x40)\n      tag_175\n      swap2\n      swap1\n      tag_35\n      jump\t// in\n    tag_175:\n      mload(0x40)\n      dup1\n      swap2\n      sub\n      swap1\n      log3\n        /* \"@openzeppelin/contracts/token/ERC20/ERC20.sol\":10051:10127  if (emitEvent) {... */\n    tag_174:\n        /* \"@openzeppelin/contracts/token/ERC20/ERC20.sol\":9701:10133  function _approve(address owner, address spender, uint256 value, bool emitEvent) internal virtual {... */\n      pop\n      pop\n      pop\n      pop\n      jump\t// out\n        /* \"@openzeppelin/contracts/token/ERC20/ERC20.sol\":5393:5693  function _transfer(address from, address to, uint256 value) internal {... */\n    tag_158:\n        /* \"@openzeppelin/contracts/token/ERC20/ERC20.sol\":5492:5493  0 */\n      0x00\n        /* \"@openzeppelin/contracts/token/ERC20/ERC20.sol\":5476:5494  from == address(0) */\n      0xffffffffffffffffffffffffffffffffffffffff\n      and\n        /* \"@openzeppelin/contracts/token/ERC20/ERC20.sol\":5476:5480  from */\n      dup4\n        /* \"@openzeppelin/contracts/token/ERC20/ERC20.sol\":5476:5494  from == address(0) */\n      0xffffffffffffffffffffffffffffffffffffffff\n      and\n      sub\n        /* \"@openzeppelin/contracts/token/ERC20/ERC20.sol\":5472:5558  if (from == address(0)) {... */\n      tag_177\n      jumpi\n        /* \"@openzeppelin/contracts/token/ERC20/ERC20.sol\":5544:5545  0 */\n      0x00\n        /* \"@openzeppelin/contracts/token/ERC20/ERC20.sol\":5517:5547  ERC20InvalidSender(address(0)) */\n      mload(0x40)\n      0x96c6fd1e00000000000000000000000000000000000000000000000000000000\n      dup2\n      mstore\n      0x04\n      add\n      tag_178\n      swap2\n      swap1\n      tag_48\n      jump\t// in\n    tag_178:\n      mload(0x40)\n      dup1\n      swap2\n      sub\n      swap1\n      revert\n        /* \"@openzeppelin/contracts/token/ERC20/ERC20.sol\":5472:5558  if (from == address(0)) {... */\n    tag_177:\n        /* \"@openzeppelin/contracts/token/ERC20/ERC20.sol\":5585:5586  0 */\n      0x00\n        /* \"@openzeppelin/contracts/token/ERC20/ERC20.sol\":5571:5587  to == address(0) */\n      0xffffffffffffffffffffffffffffffffffffffff\n      and\n        /* \"@openzeppelin/contracts/token/ERC20/ERC20.sol\":5571:5573  to */\n      dup3\n        /* \"@openzeppelin/contracts/token/ERC20/ERC20.sol\":5571:5587  to == address(0) */\n      0xffffffffffffffffffffffffffffffffffffffff\n      and\n      sub\n        /* \"@openzeppelin/contracts/token/ERC20/ERC20.sol\":5567:5653  if (to == address(0)) {... */\n      tag_179\n      jumpi\n        /* \"@openzeppelin/contracts/token/ERC20/ERC20.sol\":5639:5640  0 */\n      0x00\n        /* \"@openzeppelin/contracts/token/ERC20/ERC20.sol\":5610:5642  ERC20InvalidReceiver(address(0)) */\n      mload(0x40)\n      0xec442f0500000000000000000000000000000000000000000000000000000000\n      dup2\n      mstore\n      0x04\n      add\n      tag_180\n      swap2\n      swap1\n      tag_48\n      jump\t// in\n    tag_180:\n      mload(0x40)\n      dup1\n      swap2\n      sub\n      swap1\n      revert\n        /* \"@openzeppelin/contracts/token/ERC20/ERC20.sol\":5567:5653  if (to == address(0)) {... */\n    tag_179:\n        /* \"@openzeppelin/contracts/token/ERC20/ERC20.sol\":5662:5686  _update(from, to, value) */\n      tag_181\n        /* \"@openzeppelin/contracts/token/ERC20/ERC20.sol\":5670:5674  from */\n      dup4\n        /* \"@openzeppelin/contracts/token/ERC20/ERC20.sol\":5676:5678  to */\n      dup4\n        /* \"@openzeppelin/contracts/token/ERC20/ERC20.sol\":5680:5685  value */\n      dup4\n        /* \"@openzeppelin/contracts/token/ERC20/ERC20.sol\":5662:5669  _update */\n      tag_182\n        /* \"@openzeppelin/contracts/token/ERC20/ERC20.sol\":5662:5686  _update(from, to, value) */\n      jump\t// in\n    tag_181:\n        /* \"@openzeppelin/contracts/token/ERC20/ERC20.sol\":5393:5693  function _transfer(address from, address to, uint256 value) internal {... */\n      pop\n      pop\n      pop\n      jump\t// out\n        /* \"@openzeppelin/contracts/token/ERC20/ERC20.sol\":6008:7115  function _update(address from, address to, uint256 value) internal virtual {... */\n    tag_182:\n        /* \"@openzeppelin/contracts/token/ERC20/ERC20.sol\":6113:6114  0 */\n      0x00\n        /* \"@openzeppelin/contracts/token/ERC20/ERC20.sol\":6097:6115  from == address(0) */\n      0xffffffffffffffffffffffffffffffffffffffff\n      and\n        /* \"@openzeppelin/contracts/token/ERC20/ERC20.sol\":6097:6101  from */\n      dup4\n        /* \"@openzeppelin/contracts/token/ERC20/ERC20.sol\":6097:6115  from == address(0) */\n      0xffffffffffffffffffffffffffffffffffffffff\n      and\n      sub\n        /* \"@openzeppelin/contracts/token/ERC20/ERC20.sol\":6093:6633  if (from == address(0)) {... */\n      tag_184\n      jumpi\n        /* \"@openzeppelin/contracts/token/ERC20/ERC20.sol\":6249:6254  value */\n      dup1\n        /* \"@openzeppelin/contracts/token/ERC20/ERC20.sol\":6233:6245  _totalSupply */\n      0x02\n      0x00\n        /* \"@openzeppelin/contracts/token/ERC20/ERC20.sol\":6233:6254  _totalSupply += value */\n      dup3\n      dup3\n      sload\n      tag_185\n      swap2\n      swap1\n      tag_186\n      jump\t// in\n    tag_185:\n      swap3\n      pop\n      pop\n      dup2\n      swap1\n      sstore\n      pop\n        /* \"@openzeppelin/contracts/token/ERC20/ERC20.sol\":6093:6633  if (from == address(0)) {... */\n      jump(tag_187)\n    tag_184:\n        /* \"@openzeppelin/contracts/token/ERC20/ERC20.sol\":6285:6304  uint256 fromBalance */\n      0x00\n        /* \"@openzeppelin/contracts/token/ERC20/ERC20.sol\":6307:6316  _balances */\n      0x00\n        /* \"@openzeppelin/contracts/token/ERC20/ERC20.sol\":6307:6322  _balances[from] */\n      0x00\n        /* \"@openzeppelin/contracts/token/ERC20/ERC20.sol\":6317:6321  from */\n      dup6\n        /* \"@openzeppelin/contracts/token/ERC20/ERC20.sol\":6307:6322  _balances[from] */\n      0xffffffffffffffffffffffffffffffffffffffff\n      and\n      0xffffffffffffffffffffffffffffffffffffffff\n      and\n      dup2\n      mstore\n      0x20\n      add\n      swap1\n      dup2\n      mstore\n      0x20\n      add\n      0x00\n      keccak256\n      sload\n        /* \"@openzeppelin/contracts/token/ERC20/ERC20.sol\":6285:6322  uint256 fromBalance = _balances[from] */\n      swap1\n      pop\n        /* \"@openzeppelin/contracts/token/ERC20/ERC20.sol\":6354:6359  value */\n      dup2\n        /* \"@openzeppelin/contracts/token/ERC20/ERC20.sol\":6340:6351  fromBalance */\n      dup2\n        /* \"@openzeppelin/contracts/token/ERC20/ERC20.sol\":6340:6359  fromBalance < value */\n      lt\n        /* \"@openzeppelin/contracts/token/ERC20/ERC20.sol\":6336:6451  if (fromBalance < value) {... */\n      iszero\n      tag_188\n      jumpi\n        /* \"@openzeppelin/contracts/token/ERC20/ERC20.sol\":6411:6415  from */\n      dup4\n        /* \"@openzeppelin/contracts/token/ERC20/ERC20.sol\":6417:6428  fromBalance */\n      dup2\n        /* \"@openzeppelin/contracts/token/ERC20/ERC20.sol\":6430:6435  value */\n      dup4\n        /* \"@openzeppelin/contracts/token/ERC20/ERC20.sol\":6386:6436  ERC20InsufficientBalance(from, fromBalance, value) */\n      mload(0x40)\n      0xe450d38c00000000000000000000000000000000000000000000000000000000\n      dup2\n      mstore\n      0x04\n      add\n      tag_189\n      swap4\n      swap3\n      swap2\n      swap1\n      tag_190\n      jump\t// in\n    tag_189:\n      mload(0x40)\n      dup1\n      swap2\n      sub\n      swap1\n      revert\n        /* \"@openzeppelin/contracts/token/ERC20/ERC20.sol\":6336:6451  if (fromBalance < value) {... */\n    tag_188:\n        /* \"@openzeppelin/contracts/token/ERC20/ERC20.sol\":6603:6608  value */\n      dup2\n        /* \"@openzeppelin/contracts/token/ERC20/ERC20.sol\":6589:6600  fromBalance */\n      dup2\n        /* \"@openzeppelin/contracts/token/ERC20/ERC20.sol\":6589:6608  fromBalance - value */\n      sub\n        /* \"@openzeppelin/contracts/token/ERC20/ERC20.sol\":6571:6580  _balances */\n      0x00\n        /* \"@openzeppelin/contracts/token/ERC20/ERC20.sol\":6571:6586  _balances[from] */\n      0x00\n        /* \"@openzeppelin/contracts/token/ERC20/ERC20.sol\":6581:6585  from */\n      dup7\n        /* \"@openzeppelin/contracts/token/ERC20/ERC20.sol\":6571:6586  _balances[from] */\n      0xffffffffffffffffffffffffffffffffffffffff\n      and\n      0xffffffffffffffffffffffffffffffffffffffff\n      and\n      dup2\n      mstore\n      0x20\n      add\n      swap1\n      dup2\n      mstore\n      0x20\n      add\n      0x00\n      keccak256\n        /* \"@openzeppelin/contracts/token/ERC20/ERC20.sol\":6571:6608  _balances[from] = fromBalance - value */\n      dup2\n      swap1\n      sstore\n      pop\n        /* \"@openzeppelin/contracts/token/ERC20/ERC20.sol\":6271:6633  {... */\n      pop\n        /* \"@openzeppelin/contracts/token/ERC20/ERC20.sol\":6093:6633  if (from == address(0)) {... */\n    tag_187:\n        /* \"@openzeppelin/contracts/token/ERC20/ERC20.sol\":6661:6662  0 */\n      0x00\n        /* \"@openzeppelin/contracts/token/ERC20/ERC20.sol\":6647:6663  to == address(0) */\n      0xffffffffffffffffffffffffffffffffffffffff\n      and\n        /* \"@openzeppelin/contracts/token/ERC20/ERC20.sol\":6647:6649  to */\n      dup3\n        /* \"@openzeppelin/contracts/token/ERC20/ERC20.sol\":6647:6663  to == address(0) */\n      0xffffffffffffffffffffffffffffffffffffffff\n      and\n      sub\n        /* \"@openzeppelin/contracts/token/ERC20/ERC20.sol\":6643:7068  if (to == address(0)) {... */\n      tag_191\n      jumpi\n        /* \"@openzeppelin/contracts/token/ERC20/ERC20.sol\":6826:6831  value */\n      dup1\n        /* \"@openzeppelin/contracts/token/ERC20/ERC20.sol\":6810:6822  _totalSupply */\n      0x02\n      0x00\n        /* \"@openzeppelin/contracts/token/ERC20/ERC20.sol\":6810:6831  _totalSupply -= value */\n      dup3\n      dup3\n      sload\n      sub\n      swap3\n      pop\n      pop\n      dup2\n      swap1\n      sstore\n      pop\n        /* \"@openzeppelin/contracts/token/ERC20/ERC20.sol\":6643:7068  if (to == address(0)) {... */\n      jump(tag_192)\n    tag_191:\n        /* \"@openzeppelin/contracts/token/ERC20/ERC20.sol\":7038:7043  value */\n      dup1\n        /* \"@openzeppelin/contracts/token/ERC20/ERC20.sol\":7021:7030  _balances */\n      0x00\n        /* \"@openzeppelin/contracts/token/ERC20/ERC20.sol\":7021:7034  _balances[to] */\n      0x00\n        /* \"@openzeppelin/contracts/token/ERC20/ERC20.sol\":7031:7033  to */\n      dup5\n        /* \"@openzeppelin/contracts/token/ERC20/ERC20.sol\":7021:7034  _balances[to] */\n      0xffffffffffffffffffffffffffffffffffffffff\n      and\n      0xffffffffffffffffffffffffffffffffffffffff\n      and\n      dup2\n      mstore\n      0x20\n      add\n      swap1\n      dup2\n      mstore\n      0x20\n      add\n      0x00\n      keccak256\n      0x00\n        /* \"@openzeppelin/contracts/token/ERC20/ERC20.sol\":7021:7043  _balances[to] += value */\n      dup3\n      dup3\n      sload\n      add\n      swap3\n      pop\n      pop\n      dup2\n      swap1\n      sstore\n      pop\n        /* \"@openzeppelin/contracts/token/ERC20/ERC20.sol\":6643:7068  if (to == address(0)) {... */\n    tag_192:\n        /* \"@openzeppelin/contracts/token/ERC20/ERC20.sol\":7098:7100  to */\n      dup2\n        /* \"@openzeppelin/contracts/token/ERC20/ERC20.sol\":7083:7108  Transfer(from, to, value) */\n      0xffffffffffffffffffffffffffffffffffffffff\n      and\n        /* \"@openzeppelin/contracts/token/ERC20/ERC20.sol\":7092:7096  from */\n      dup4\n        /* \"@openzeppelin/contracts/token/ERC20/ERC20.sol\":7083:7108  Transfer(from, to, value) */\n      0xffffffffffffffffffffffffffffffffffffffff\n      and\n      0xddf252ad1be2c89b69c2b068fc378daa952ba7f163c4a11628f55a4df523b3ef\n        /* \"@openzeppelin/contracts/token/ERC20/ERC20.sol\":7102:7107  value */\n      dup4\n        /* \"@openzeppelin/contracts/token/ERC20/ERC20.sol\":7083:7108  Transfer(from, to, value) */\n      mload(0x40)\n      tag_193\n      swap2\n      swap1\n      tag_35\n      jump\t// in\n    tag_193:\n      mload(0x40)\n      dup1\n      swap2\n      sub\n      swap1\n      log3\n        /* \"@openzeppelin/contracts/token/ERC20/ERC20.sol\":6008:7115  function _update(address from, address to, uint256 value) internal virtual {... */\n      pop\n      pop\n      pop\n      jump\t// out\n        /* \"#utility.yul\":7:106   */\n    tag_194:\n        /* \"#utility.yul\":59:65   */\n      0x00\n        /* \"#utility.yul\":93:98   */\n      dup2\n        /* \"#utility.yul\":87:99   */\n      mload\n        /* \"#utility.yul\":77:99   */\n      swap1\n      pop\n        /* \"#utility.yul\":7:106   */\n      swap2\n      swap1\n      pop\n      jump\t// out\n        /* \"#utility.yul\":112:281   */\n    tag_195:\n        /* \"#utility.yul\":196:207   */\n      0x00\n        /* \"#utility.yul\":230:236   */\n      dup3\n        /* \"#utility.yul\":225:228   */\n      dup3\n        /* \"#utility.yul\":218:237   */\n      mstore\n        /* \"#utility.yul\":270:274   */\n      0x20\n        /* \"#utility.yul\":265:268   */\n      dup3\n        /* \"#utility.yul\":261:275   */\n      add\n        /* \"#utility.yul\":246:275   */\n      swap1\n      pop\n        /* \"#utility.yul\":112:281   */\n      swap3\n      swap2\n      pop\n      pop\n      jump\t// out\n        /* \"#utility.yul\":287:426   */\n    tag_196:\n        /* \"#utility.yul\":376:382   */\n      dup3\n        /* \"#utility.yul\":371:374   */\n      dup2\n        /* \"#utility.yul\":366:369   */\n      dup4\n        /* \"#utility.yul\":360:383   */\n      mcopy\n        /* \"#utility.yul\":417:418   */\n      0x00\n        /* \"#utility.yul\":408:414   */\n      dup4\n        /* \"#utility.yul\":403:406   */\n      dup4\n        /* \"#utility.yul\":399:415   */\n      add\n        /* \"#utility.yul\":392:419   */\n      mstore\n        /* \"#utility.yul\":287:426   */\n      pop\n      pop\n      pop\n      jump\t// out\n        /* \"#utility.yul\":432:534   */\n    tag_197:\n        /* \"#utility.yul\":473:479   */\n      0x00\n        /* \"#utility.yul\":524:526   */\n      0x1f\n        /* \"#utility.yul\":520:527   */\n      not\n        /* \"#utility.yul\":515:517   */\n      0x1f\n        /* \"#utility.yul\":508:513   */\n      dup4\n        /* \"#utility.yul\":504:518   */\n      add\n        /* \"#utility.yul\":500:528   */\n      and\n        /* \"#utility.yul\":490:528   */\n      swap1\n      pop\n        /* \"#utility.yul\":432:534   */\n      swap2\n      swap1\n      pop\n      jump\t// out\n        /* \"#utility.yul\":540:917   */\n    tag_198:\n        /* \"#utility.yul\":628:631   */\n      0x00\n        /* \"#utility.yul\":656:695   */\n      tag_230\n        /* \"#utility.yul\":689:694   */\n      dup3\n        /* \"#utility.yul\":656:695   */\n      tag_194\n      jump\t// in\n    tag_230:\n        /* \"#utility.yul\":711:782   */\n      tag_231\n        /* \"#utility.yul\":775:781   */\n      dup2\n        /* \"#utility.yul\":770:773   */\n      dup6\n        /* \"#utility.yul\":711:782   */\n      tag_195\n      jump\t// in\n    tag_231:\n        /* \"#utility.yul\":704:782   */\n      swap4\n      pop\n        /* \"#utility.yul\":791:856   */\n      tag_232\n        /* \"#utility.yul\":849:855   */\n      dup2\n        /* \"#utility.yul\":844:847   */\n      dup6\n        /* \"#utility.yul\":837:841   */\n      0x20\n        /* \"#utility.yul\":830:835   */\n      dup7\n        /* \"#utility.yul\":826:842   */\n      add\n        /* \"#utility.yul\":791:856   */\n      tag_196\n      jump\t// in\n    tag_232:\n        /* \"#utility.yul\":881:910   */\n      tag_233\n        /* \"#utility.yul\":903:909   */\n      dup2\n        /* \"#utility.yul\":881:910   */\n      tag_197\n      jump\t// in\n    tag_233:\n        /* \"#utility.yul\":876:879   */\n      dup5\n        /* \"#utility.yul\":872:911   */\n      add\n        /* \"#utility.yul\":865:911   */\n      swap2\n      pop\n        /* \"#utility.yul\":632:917   */\n      pop\n        /* \"#utility.yul\":540:917   */\n      swap3\n      swap2\n      pop\n      pop\n      jump\t// out\n        /* \"#utility.yul\":923:1236   */\n    tag_25:\n        /* \"#utility.yul\":1036:1040   */\n      0x00\n        /* \"#utility.yul\":1074:1076   */\n      0x20\n        /* \"#utility.yul\":1063:1072   */\n      dup3\n        /* \"#utility.yul\":1059:1077   */\n      add\n        /* \"#utility.yul\":1051:1077   */\n      swap1\n      pop\n        /* \"#utility.yul\":1123:1132   */\n      dup2\n        /* \"#utility.yul\":1117:1121   */\n      dup2\n        /* \"#utility.yul\":1113:1133   */\n      sub\n        /* \"#utility.yul\":1109:1110   */\n      0x00\n        /* \"#utility.yul\":1098:1107   */\n      dup4\n        /* \"#utility.yul\":1094:1111   */\n      add\n        /* \"#utility.yul\":1087:1134   */\n      mstore\n        /* \"#utility.yul\":1151:1229   */\n      tag_235\n        /* \"#utility.yul\":1224:1228   */\n      dup2\n        /* \"#utility.yul\":1215:1221   */\n      dup5\n        /* \"#utility.yul\":1151:1229   */\n      tag_198\n      jump\t// in\n    tag_235:\n        /* \"#utility.yul\":1143:1229   */\n      swap1\n      pop\n        /* \"#utility.yul\":923:1236   */\n      swap3\n      swap2\n      pop\n      pop\n      jump\t// out\n        /* \"#utility.yul\":1323:1440   */\n    tag_200:\n        /* \"#utility.yul\":1432:1433   */\n      0x00\n        /* \"#utility.yul\":1429:1430   */\n      0x00\n        /* \"#utility.yul\":1422:1434   */\n      revert\n        /* \"#utility.yul\":1569:1695   */\n    tag_202:\n        /* \"#utility.yul\":1606:1613   */\n      0x00\n        /* \"#utility.yul\":1646:1688   */\n      0xffffffffffffffffffffffffffffffffffffffff\n        /* \"#utility.yul\":1639:1644   */\n      dup3\n        /* \"#utility.yul\":1635:1689   */\n      and\n        /* \"#utility.yul\":1624:1689   */\n      swap1\n      pop\n        /* \"#utility.yul\":1569:1695   */\n      swap2\n      swap1\n      pop\n      jump\t// out\n        /* \"#utility.yul\":1701:1797   */\n    tag_203:\n        /* \"#utility.yul\":1738:1745   */\n      0x00\n        /* \"#utility.yul\":1767:1791   */\n      tag_241\n        /* \"#utility.yul\":1785:1790   */\n      dup3\n        /* \"#utility.yul\":1767:1791   */\n      tag_202\n      jump\t// in\n    tag_241:\n        /* \"#utility.yul\":1756:1791   */\n      swap1\n      pop\n        /* \"#utility.yul\":1701:1797   */\n      swap2\n      swap1\n      pop\n      jump\t// out\n        /* \"#utility.yul\":1803:1925   */\n    tag_204:\n        /* \"#utility.yul\":1876:1900   */\n      tag_243\n        /* \"#utility.yul\":1894:1899   */\n      dup2\n        /* \"#utility.yul\":1876:1900   */\n      tag_203\n      jump\t// in\n    tag_243:\n        /* \"#utility.yul\":1869:1874   */\n      dup2\n        /* \"#utility.yul\":1866:1901   */\n      eq\n        /* \"#utility.yul\":1856:1919   */\n      tag_244\n      jumpi\n        /* \"#utility.yul\":1915:1916   */\n      0x00\n        /* \"#utility.yul\":1912:1913   */\n      0x00\n        /* \"#utility.yul\":1905:1917   */\n      revert\n        /* \"#utility.yul\":1856:1919   */\n    tag_244:\n        /* \"#utility.yul\":1803:1925   */\n      pop\n      jump\t// out\n        /* \"#utility.yul\":1931:2070   */\n    tag_205:\n        /* \"#utility.yul\":1977:1982   */\n      0x00\n        /* \"#utility.yul\":2015:2021   */\n      dup2\n        /* \"#utility.yul\":2002:2022   */\n      calldataload\n        /* \"#utility.yul\":1993:2022   */\n      swap1\n      pop\n        /* \"#utility.yul\":2031:2064   */\n      tag_246\n        /* \"#utility.yul\":2058:2063   */\n      dup2\n        /* \"#utility.yul\":2031:2064   */\n      tag_204\n      jump\t// in\n    tag_246:\n        /* \"#utility.yul\":1931:2070   */\n      swap3\n      swap2\n      pop\n      pop\n      jump\t// out\n        /* \"#utility.yul\":2076:2153   */\n    tag_206:\n        /* \"#utility.yul\":2113:2120   */\n      0x00\n        /* \"#utility.yul\":2142:2147   */\n      dup2\n        /* \"#utility.yul\":2131:2147   */\n      swap1\n      pop\n        /* \"#utility.yul\":2076:2153   */\n      swap2\n      swap1\n      pop\n      jump\t// out\n        /* \"#utility.yul\":2159:2281   */\n    tag_207:\n        /* \"#utility.yul\":2232:2256   */\n      tag_249\n        /* \"#utility.yul\":2250:2255   */\n      dup2\n        /* \"#utility.yul\":2232:2256   */\n      tag_206\n      jump\t// in\n    tag_249:\n        /* \"#utility.yul\":2225:2230   */\n      dup2\n        /* \"#utility.yul\":2222:2257   */\n      eq\n        /* \"#utility.yul\":2212:2275   */\n      tag_250\n      jumpi\n        /* \"#utility.yul\":2271:2272   */\n      0x00\n        /* \"#utility.yul\":2268:2269   */\n      0x00\n        /* \"#utility.yul\":2261:2273   */\n      revert\n        /* \"#utility.yul\":2212:2275   */\n    tag_250:\n        /* \"#utility.yul\":2159:2281   */\n      pop\n      jump\t// out\n        /* \"#utility.yul\":2287:2426   */\n    tag_208:\n        /* \"#utility.yul\":2333:2338   */\n      0x00\n        /* \"#utility.yul\":2371:2377   */\n      dup2\n        /* \"#utility.yul\":2358:2378   */\n      calldataload\n        /* \"#utility.yul\":2349:2378   */\n      swap1\n      pop\n        /* \"#utility.yul\":2387:2420   */\n      tag_252\n        /* \"#utility.yul\":2414:2419   */\n      dup2\n        /* \"#utility.yul\":2387:2420   */\n      tag_207\n      jump\t// in\n    tag_252:\n        /* \"#utility.yul\":2287:2426   */\n      swap3\n      swap2\n      pop\n      pop\n      jump\t// out\n        /* \"#utility.yul\":2432:2906   */\n    tag_28:\n        /* \"#utility.yul\":2500:2506   */\n      0x00\n        /* \"#utility.yul\":2508:2514   */\n      0x00\n        /* \"#utility.yul\":2557:2559   */\n      0x40\n        /* \"#utility.yul\":2545:2554   */\n      dup4\n        /* \"#utility.yul\":2536:2543   */\n      dup6\n        /* \"#utility.yul\":2532:2555   */\n      sub\n        /* \"#utility.yul\":2528:2560   */\n      slt\n        /* \"#utility.yul\":2525:2644   */\n      iszero\n      tag_254\n      jumpi\n        /* \"#utility.yul\":2563:2642   */\n      tag_255\n      tag_200\n      jump\t// in\n    tag_255:\n        /* \"#utility.yul\":2525:2644   */\n    tag_254:\n        /* \"#utility.yul\":2683:2684   */\n      0x00\n        /* \"#utility.yul\":2708:2761   */\n      tag_256\n        /* \"#utility.yul\":2753:2760   */\n      dup6\n        /* \"#utility.yul\":2744:2750   */\n      dup3\n        /* \"#utility.yul\":2733:2742   */\n      dup7\n        /* \"#utility.yul\":2729:2751   */\n      add\n        /* \"#utility.yul\":2708:2761   */\n      tag_205\n      jump\t// in\n    tag_256:\n        /* \"#utility.yul\":2698:2761   */\n      swap3\n      pop\n        /* \"#utility.yul\":2654:2771   */\n      pop\n        /* \"#utility.yul\":2810:2812   */\n      0x20\n        /* \"#utility.yul\":2836:2889   */\n      tag_257\n        /* \"#utility.yul\":2881:2888   */\n      dup6\n        /* \"#utility.yul\":2872:2878   */\n      dup3\n        /* \"#utility.yul\":2861:2870   */\n      dup7\n        /* \"#utility.yul\":2857:2879   */\n      add\n        /* \"#utility.yul\":2836:2889   */\n      tag_208\n      jump\t// in\n    tag_257:\n        /* \"#utility.yul\":2826:2889   */\n      swap2\n      pop\n        /* \"#utility.yul\":2781:2899   */\n      pop\n        /* \"#utility.yul\":2432:2906   */\n      swap3\n      pop\n      swap3\n      swap1\n      pop\n      jump\t// out\n        /* \"#utility.yul\":2912:3002   */\n    tag_209:\n        /* \"#utility.yul\":2946:2953   */\n      0x00\n        /* \"#utility.yul\":2989:2994   */\n      dup2\n        /* \"#utility.yul\":2982:2995   */\n      iszero\n        /* \"#utility.yul\":2975:2996   */\n      iszero\n        /* \"#utility.yul\":2964:2996   */\n      swap1\n      pop\n        /* \"#utility.yul\":2912:3002   */\n      swap2\n      swap1\n      pop\n      jump\t// out\n        /* \"#utility.yul\":3008:3117   */\n    tag_210:\n        /* \"#utility.yul\":3089:3110   */\n      tag_260\n        /* \"#utility.yul\":3104:3109   */\n      dup2\n        /* \"#utility.yul\":3089:3110   */\n      tag_209\n      jump\t// in\n    tag_260:\n        /* \"#utility.yul\":3084:3087   */\n      dup3\n        /* \"#utility.yul\":3077:3111   */\n      mstore\n        /* \"#utility.yul\":3008:3117   */\n      pop\n      pop\n      jump\t// out\n        /* \"#utility.yul\":3123:3333   */\n    tag_31:\n        /* \"#utility.yul\":3210:3214   */\n      0x00\n        /* \"#utility.yul\":3248:3250   */\n      0x20\n        /* \"#utility.yul\":3237:3246   */\n      dup3\n        /* \"#utility.yul\":3233:3251   */\n      add\n        /* \"#utility.yul\":3225:3251   */\n      swap1\n      pop\n        /* \"#utility.yul\":3261:3326   */\n      tag_262\n        /* \"#utility.yul\":3323:3324   */\n      0x00\n        /* \"#utility.yul\":3312:3321   */\n      dup4\n        /* \"#utility.yul\":3308:3325   */\n      add\n        /* \"#utility.yul\":3299:3305   */\n      dup5\n        /* \"#utility.yul\":3261:3326   */\n      tag_210\n      jump\t// in\n    tag_262:\n        /* \"#utility.yul\":3123:3333   */\n      swap3\n      swap2\n      pop\n      pop\n      jump\t// out\n        /* \"#utility.yul\":3339:3457   */\n    tag_211:\n        /* \"#utility.yul\":3426:3450   */\n      tag_264\n        /* \"#utility.yul\":3444:3449   */\n      dup2\n        /* \"#utility.yul\":3426:3450   */\n      tag_206\n      jump\t// in\n    tag_264:\n        /* \"#utility.yul\":3421:3424   */\n      dup3\n        /* \"#utility.yul\":3414:3451   */\n      mstore\n        /* \"#utility.yul\":3339:3457   */\n      pop\n      pop\n      jump\t// out\n        /* \"#utility.yul\":3463:3685   */\n    tag_35:\n        /* \"#utility.yul\":3556:3560   */\n      0x00\n        /* \"#utility.yul\":3594:3596   */\n      0x20\n        /* \"#utility.yul\":3583:3592   */\n      dup3\n        /* \"#utility.yul\":3579:3597   */\n      add\n        /* \"#utility.yul\":3571:3597   */\n      swap1\n      pop\n        /* \"#utility.yul\":3607:3678   */\n      tag_266\n        /* \"#utility.yul\":3675:3676   */\n      0x00\n        /* \"#utility.yul\":3664:3673   */\n      dup4\n        /* \"#utility.yul\":3660:3677   */\n      add\n        /* \"#utility.yul\":3651:3657   */\n      dup5\n        /* \"#utility.yul\":3607:3678   */\n      tag_211\n      jump\t// in\n    tag_266:\n        /* \"#utility.yul\":3463:3685   */\n      swap3\n      swap2\n      pop\n      pop\n      jump\t// out\n        /* \"#utility.yul\":3691:4310   */\n    tag_38:\n        /* \"#utility.yul\":3768:3774   */\n      0x00\n        /* \"#utility.yul\":3776:3782   */\n      0x00\n        /* \"#utility.yul\":3784:3790   */\n      0x00\n        /* \"#utility.yul\":3833:3835   */\n      0x60\n        /* \"#utility.yul\":3821:3830   */\n      dup5\n        /* \"#utility.yul\":3812:3819   */\n      dup7\n        /* \"#utility.yul\":3808:3831   */\n      sub\n        /* \"#utility.yul\":3804:3836   */\n      slt\n        /* \"#utility.yul\":3801:3920   */\n      iszero\n      tag_268\n      jumpi\n        /* \"#utility.yul\":3839:3918   */\n      tag_269\n      tag_200\n      jump\t// in\n    tag_269:\n        /* \"#utility.yul\":3801:3920   */\n    tag_268:\n        /* \"#utility.yul\":3959:3960   */\n      0x00\n        /* \"#utility.yul\":3984:4037   */\n      tag_270\n        /* \"#utility.yul\":4029:4036   */\n      dup7\n        /* \"#utility.yul\":4020:4026   */\n      dup3\n        /* \"#utility.yul\":4009:4018   */\n      dup8\n        /* \"#utility.yul\":4005:4027   */\n      add\n        /* \"#utility.yul\":3984:4037   */\n      tag_205\n      jump\t// in\n    tag_270:\n        /* \"#utility.yul\":3974:4037   */\n      swap4\n      pop\n        /* \"#utility.yul\":3930:4047   */\n      pop\n        /* \"#utility.yul\":4086:4088   */\n      0x20\n        /* \"#utility.yul\":4112:4165   */\n      tag_271\n        /* \"#utility.yul\":4157:4164   */\n      dup7\n        /* \"#utility.yul\":4148:4154   */\n      dup3\n        /* \"#utility.yul\":4137:4146   */\n      dup8\n        /* \"#utility.yul\":4133:4155   */\n      add\n        /* \"#utility.yul\":4112:4165   */\n      tag_205\n      jump\t// in\n    tag_271:\n        /* \"#utility.yul\":4102:4165   */\n      swap3\n      pop\n        /* \"#utility.yul\":4057:4175   */\n      pop\n        /* \"#utility.yul\":4214:4216   */\n      0x40\n        /* \"#utility.yul\":4240:4293   */\n      tag_272\n        /* \"#utility.yul\":4285:4292   */\n      dup7\n        /* \"#utility.yul\":4276:4282   */\n      dup3\n        /* \"#utility.yul\":4265:4274   */\n      dup8\n        /* \"#utility.yul\":4261:4283   */\n      add\n        /* \"#utility.yul\":4240:4293   */\n      tag_208\n      jump\t// in\n    tag_272:\n        /* \"#utility.yul\":4230:4293   */\n      swap2\n      pop\n        /* \"#utility.yul\":4185:4303   */\n      pop\n        /* \"#utility.yul\":3691:4310   */\n      swap3\n      pop\n      swap3\n      pop\n      swap3\n      jump\t// out\n        /* \"#utility.yul\":4316:4402   */\n    tag_212:\n        /* \"#utility.yul\":4351:4358   */\n      0x00\n        /* \"#utility.yul\":4391:4395   */\n      0xff\n        /* \"#utility.yul\":4384:4389   */\n      dup3\n        /* \"#utility.yul\":4380:4396   */\n      and\n        /* \"#utility.yul\":4369:4396   */\n      swap1\n      pop\n        /* \"#utility.yul\":4316:4402   */\n      swap2\n      swap1\n      pop\n      jump\t// out\n        /* \"#utility.yul\":4408:4520   */\n    tag_213:\n        /* \"#utility.yul\":4491:4513   */\n      tag_275\n        /* \"#utility.yul\":4507:4512   */\n      dup2\n        /* \"#utility.yul\":4491:4513   */\n      tag_212\n      jump\t// in\n    tag_275:\n        /* \"#utility.yul\":4486:4489   */\n      dup3\n        /* \"#utility.yul\":4479:4514   */\n      mstore\n        /* \"#utility.yul\":4408:4520   */\n      pop\n      pop\n      jump\t// out\n        /* \"#utility.yul\":4526:4740   */\n    tag_44:\n        /* \"#utility.yul\":4615:4619   */\n      0x00\n        /* \"#utility.yul\":4653:4655   */\n      0x20\n        /* \"#utility.yul\":4642:4651   */\n      dup3\n        /* \"#utility.yul\":4638:4656   */\n      add\n        /* \"#utility.yul\":4630:4656   */\n      swap1\n      pop\n        /* \"#utility.yul\":4666:4733   */\n      tag_277\n        /* \"#utility.yul\":4730:4731   */\n      0x00\n        /* \"#utility.yul\":4719:4728   */\n      dup4\n        /* \"#utility.yul\":4715:4732   */\n      add\n        /* \"#utility.yul\":4706:4712   */\n      dup5\n        /* \"#utility.yul\":4666:4733   */\n      tag_213\n      jump\t// in\n    tag_277:\n        /* \"#utility.yul\":4526:4740   */\n      swap3\n      swap2\n      pop\n      pop\n      jump\t// out\n        /* \"#utility.yul\":4746:4864   */\n    tag_214:\n        /* \"#utility.yul\":4833:4857   */\n      tag_279\n        /* \"#utility.yul\":4851:4856   */\n      dup2\n        /* \"#utility.yul\":4833:4857   */\n      tag_203\n      jump\t// in\n    tag_279:\n        /* \"#utility.yul\":4828:4831   */\n      dup3\n        /* \"#utility.yul\":4821:4858   */\n      mstore\n        /* \"#utility.yul\":4746:4864   */\n      pop\n      pop\n      jump\t// out\n        /* \"#utility.yul\":4870:5092   */\n    tag_48:\n        /* \"#utility.yul\":4963:4967   */\n      0x00\n        /* \"#utility.yul\":5001:5003   */\n      0x20\n        /* \"#utility.yul\":4990:4999   */\n      dup3\n        /* \"#utility.yul\":4986:5004   */\n      add\n        /* \"#utility.yul\":4978:5004   */\n      swap1\n      pop\n        /* \"#utility.yul\":5014:5085   */\n      tag_281\n        /* \"#utility.yul\":5082:5083   */\n      0x00\n        /* \"#utility.yul\":5071:5080   */\n      dup4\n        /* \"#utility.yul\":5067:5084   */\n      add\n        /* \"#utility.yul\":5058:5064   */\n      dup5\n        /* \"#utility.yul\":5014:5085   */\n      tag_214\n      jump\t// in\n    tag_281:\n        /* \"#utility.yul\":4870:5092   */\n      swap3\n      swap2\n      pop\n      pop\n      jump\t// out\n        /* \"#utility.yul\":5098:5427   */\n    tag_51:\n        /* \"#utility.yul\":5157:5163   */\n      0x00\n        /* \"#utility.yul\":5206:5208   */\n      0x20\n        /* \"#utility.yul\":5194:5203   */\n      dup3\n        /* \"#utility.yul\":5185:5192   */\n      dup5\n        /* \"#utility.yul\":5181:5204   */\n      sub\n        /* \"#utility.yul\":5177:5209   */\n      slt\n        /* \"#utility.yul\":5174:5293   */\n      iszero\n      tag_283\n      jumpi\n        /* \"#utility.yul\":5212:5291   */\n      tag_284\n      tag_200\n      jump\t// in\n    tag_284:\n        /* \"#utility.yul\":5174:5293   */\n    tag_283:\n        /* \"#utility.yul\":5332:5333   */\n      0x00\n        /* \"#utility.yul\":5357:5410   */\n      tag_285\n        /* \"#utility.yul\":5402:5409   */\n      dup5\n        /* \"#utility.yul\":5393:5399   */\n      dup3\n        /* \"#utility.yul\":5382:5391   */\n      dup6\n        /* \"#utility.yul\":5378:5400   */\n      add\n        /* \"#utility.yul\":5357:5410   */\n      tag_208\n      jump\t// in\n    tag_285:\n        /* \"#utility.yul\":5347:5410   */\n      swap2\n      pop\n        /* \"#utility.yul\":5303:5420   */\n      pop\n        /* \"#utility.yul\":5098:5427   */\n      swap3\n      swap2\n      pop\n      pop\n      jump\t// out\n        /* \"#utility.yul\":5433:5762   */\n    tag_55:\n        /* \"#utility.yul\":5492:5498   */\n      0x00\n        /* \"#utility.yul\":5541:5543   */\n      0x20\n        /* \"#utility.yul\":5529:5538   */\n      dup3\n        /* \"#utility.yul\":5520:5527   */\n      dup5\n        /* \"#utility.yul\":5516:5539   */\n      sub\n        /* \"#utility.yul\":5512:5544   */\n      slt\n        /* \"#utility.yul\":5509:5628   */\n      iszero\n      tag_287\n      jumpi\n        /* \"#utility.yul\":5547:5626   */\n      tag_288\n      tag_200\n      jump\t// in\n    tag_288:\n        /* \"#utility.yul\":5509:5628   */\n    tag_287:\n        /* \"#utility.yul\":5667:5668   */\n      0x00\n        /* \"#utility.yul\":5692:5745   */\n      tag_289\n        /* \"#utility.yul\":5737:5744   */\n      dup5\n        /* \"#utility.yul\":5728:5734   */\n      dup3\n        /* \"#utility.yul\":5717:5726   */\n      dup6\n        /* \"#utility.yul\":5713:5735   */\n      add\n        /* \"#utility.yul\":5692:5745   */\n      tag_205\n      jump\t// in\n    tag_289:\n        /* \"#utility.yul\":5682:5745   */\n      swap2\n      pop\n        /* \"#utility.yul\":5638:5755   */\n      pop\n        /* \"#utility.yul\":5433:5762   */\n      swap3\n      swap2\n      pop\n      pop\n      jump\t// out\n        /* \"#utility.yul\":5768:6242   */\n    tag_75:\n        /* \"#utility.yul\":5836:5842   */\n      0x00\n        /* \"#utility.yul\":5844:5850   */\n      0x00\n        /* \"#utility.yul\":5893:5895   */\n      0x40\n        /* \"#utility.yul\":5881:5890   */\n      dup4\n        /* \"#utility.yul\":5872:5879   */\n      dup6\n        /* \"#utility.yul\":5868:5891   */\n      sub\n        /* \"#utility.yul\":5864:5896   */\n      slt\n        /* \"#utility.yul\":5861:5980   */\n      iszero\n      tag_291\n      jumpi\n        /* \"#utility.yul\":5899:5978   */\n      tag_292\n      tag_200\n      jump\t// in\n    tag_292:\n        /* \"#utility.yul\":5861:5980   */\n    tag_291:\n        /* \"#utility.yul\":6019:6020   */\n      0x00\n        /* \"#utility.yul\":6044:6097   */\n      tag_293\n        /* \"#utility.yul\":6089:6096   */\n      dup6\n        /* \"#utility.yul\":6080:6086   */\n      dup3\n        /* \"#utility.yul\":6069:6078   */\n      dup7\n        /* \"#utility.yul\":6065:6087   */\n      add\n        /* \"#utility.yul\":6044:6097   */\n      tag_205\n      jump\t// in\n    tag_293:\n        /* \"#utility.yul\":6034:6097   */\n      swap3\n      pop\n        /* \"#utility.yul\":5990:6107   */\n      pop\n        /* \"#utility.yul\":6146:6148   */\n      0x20\n        /* \"#utility.yul\":6172:6225   */\n      tag_294\n        /* \"#utility.yul\":6217:6224   */\n      dup6\n        /* \"#utility.yul\":6208:6214   */\n      dup3\n        /* \"#utility.yul\":6197:6206   */\n      dup7\n        /* \"#utility.yul\":6193:6215   */\n      add\n        /* \"#utility.yul\":6172:6225   */\n      tag_205\n      jump\t// in\n    tag_294:\n        /* \"#utility.yul\":6162:6225   */\n      swap2\n      pop\n        /* \"#utility.yul\":6117:6235   */\n      pop\n        /* \"#utility.yul\":5768:6242   */\n      swap3\n      pop\n      swap3\n      swap1\n      pop\n      jump\t// out\n        /* \"#utility.yul\":6248:6428   */\n    tag_215:\n        /* \"#utility.yul\":6296:6373   */\n      0x4e487b7100000000000000000000000000000000000000000000000000000000\n        /* \"#utility.yul\":6293:6294   */\n      0x00\n        /* \"#utility.yul\":6286:6374   */\n      mstore\n        /* \"#utility.yul\":6393:6397   */\n      0x22\n        /* \"#utility.yul\":6390:6391   */\n      0x04\n        /* \"#utility.yul\":6383:6398   */\n      mstore\n        /* \"#utility.yul\":6417:6421   */\n      0x24\n        /* \"#utility.yul\":6414:6415   */\n      0x00\n        /* \"#utility.yul\":6407:6422   */\n      revert\n        /* \"#utility.yul\":6434:6754   */\n    tag_86:\n        /* \"#utility.yul\":6478:6484   */\n      0x00\n        /* \"#utility.yul\":6515:6516   */\n      0x02\n        /* \"#utility.yul\":6509:6513   */\n      dup3\n        /* \"#utility.yul\":6505:6517   */\n      div\n        /* \"#utility.yul\":6495:6517   */\n      swap1\n      pop\n        /* \"#utility.yul\":6562:6563   */\n      0x01\n        /* \"#utility.yul\":6556:6560   */\n      dup3\n        /* \"#utility.yul\":6552:6564   */\n      and\n        /* \"#utility.yul\":6583:6601   */\n      dup1\n        /* \"#utility.yul\":6573:6654   */\n      tag_297\n      jumpi\n        /* \"#utility.yul\":6639:6643   */\n      0x7f\n        /* \"#utility.yul\":6631:6637   */\n      dup3\n        /* \"#utility.yul\":6627:6644   */\n      and\n        /* \"#utility.yul\":6617:6644   */\n      swap2\n      pop\n        /* \"#utility.yul\":6573:6654   */\n    tag_297:\n        /* \"#utility.yul\":6701:6703   */\n      0x20\n        /* \"#utility.yul\":6693:6699   */\n      dup3\n        /* \"#utility.yul\":6690:6704   */\n      lt\n        /* \"#utility.yul\":6670:6688   */\n      dup2\n        /* \"#utility.yul\":6667:6705   */\n      sub\n        /* \"#utility.yul\":6664:6748   */\n      tag_298\n      jumpi\n        /* \"#utility.yul\":6720:6738   */\n      tag_299\n      tag_215\n      jump\t// in\n    tag_299:\n        /* \"#utility.yul\":6664:6748   */\n    tag_298:\n        /* \"#utility.yul\":6485:6754   */\n      pop\n        /* \"#utility.yul\":6434:6754   */\n      swap2\n      swap1\n      pop\n      jump\t// out\n        /* \"#utility.yul\":6760:6987   */\n    tag_216:\n        /* \"#utility.yul\":6900:6934   */\n      0x45524332303a207472616e7366657220616d6f756e7420657863656564732061\n        /* \"#utility.yul\":6896:6897   */\n      0x00\n        /* \"#utility.yul\":6888:6894   */\n      dup3\n        /* \"#utility.yul\":6884:6898   */\n      add\n        /* \"#utility.yul\":6877:6935   */\n      mstore\n        /* \"#utility.yul\":6969:6979   */\n      0x6c6c6f77616e6365000000000000000000000000000000000000000000000000\n        /* \"#utility.yul\":6964:6966   */\n      0x20\n        /* \"#utility.yul\":6956:6962   */\n      dup3\n        /* \"#utility.yul\":6952:6967   */\n      add\n        /* \"#utility.yul\":6945:6980   */\n      mstore\n        /* \"#utility.yul\":6760:6987   */\n      pop\n      jump\t// out\n        /* \"#utility.yul\":6993:7359   */\n    tag_217:\n        /* \"#utility.yul\":7135:7138   */\n      0x00\n        /* \"#utility.yul\":7156:7223   */\n      tag_302\n        /* \"#utility.yul\":7220:7222   */\n      0x28\n        /* \"#utility.yul\":7215:7218   */\n      dup4\n        /* \"#utility.yul\":7156:7223   */\n      tag_195\n      jump\t// in\n    tag_302:\n        /* \"#utility.yul\":7149:7223   */\n      swap2\n      pop\n        /* \"#utility.yul\":7232:7325   */\n      tag_303\n        /* \"#utility.yul\":7321:7324   */\n      dup3\n        /* \"#utility.yul\":7232:7325   */\n      tag_216\n      jump\t// in\n    tag_303:\n        /* \"#utility.yul\":7350:7352   */\n      0x40\n        /* \"#utility.yul\":7345:7348   */\n      dup3\n        /* \"#utility.yul\":7341:7353   */\n      add\n        /* \"#utility.yul\":7334:7353   */\n      swap1\n      pop\n        /* \"#utility.yul\":6993:7359   */\n      swap2\n      swap1\n      pop\n      jump\t// out\n        /* \"#utility.yul\":7365:7784   */\n    tag_101:\n        /* \"#utility.yul\":7531:7535   */\n      0x00\n        /* \"#utility.yul\":7569:7571   */\n      0x20\n        /* \"#utility.yul\":7558:7567   */\n      dup3\n        /* \"#utility.yul\":7554:7572   */\n      add\n        /* \"#utility.yul\":7546:7572   */\n      swap1\n      pop\n        /* \"#utility.yul\":7618:7627   */\n      dup2\n        /* \"#utility.yul\":7612:7616   */\n      dup2\n        /* \"#utility.yul\":7608:7628   */\n      sub\n        /* \"#utility.yul\":7604:7605   */\n      0x00\n        /* \"#utility.yul\":7593:7602   */\n      dup4\n        /* \"#utility.yul\":7589:7606   */\n      add\n        /* \"#utility.yul\":7582:7629   */\n      mstore\n        /* \"#utility.yul\":7646:7777   */\n      tag_305\n        /* \"#utility.yul\":7772:7776   */\n      dup2\n        /* \"#utility.yul\":7646:7777   */\n      tag_217\n      jump\t// in\n    tag_305:\n        /* \"#utility.yul\":7638:7777   */\n      swap1\n      pop\n        /* \"#utility.yul\":7365:7784   */\n      swap2\n      swap1\n      pop\n      jump\t// out\n        /* \"#utility.yul\":7790:7970   */\n    tag_218:\n        /* \"#utility.yul\":7838:7915   */\n      0x4e487b7100000000000000000000000000000000000000000000000000000000\n        /* \"#utility.yul\":7835:7836   */\n      0x00\n        /* \"#utility.yul\":7828:7916   */\n      mstore\n        /* \"#utility.yul\":7935:7939   */\n      0x11\n        /* \"#utility.yul\":7932:7933   */\n      0x04\n        /* \"#utility.yul\":7925:7940   */\n      mstore\n        /* \"#utility.yul\":7959:7963   */\n      0x24\n        /* \"#utility.yul\":7956:7957   */\n      0x00\n        /* \"#utility.yul\":7949:7964   */\n      revert\n        /* \"#utility.yul\":7976:8170   */\n    tag_104:\n        /* \"#utility.yul\":8016:8020   */\n      0x00\n        /* \"#utility.yul\":8036:8056   */\n      tag_308\n        /* \"#utility.yul\":8054:8055   */\n      dup3\n        /* \"#utility.yul\":8036:8056   */\n      tag_206\n      jump\t// in\n    tag_308:\n        /* \"#utility.yul\":8031:8056   */\n      swap2\n      pop\n        /* \"#utility.yul\":8070:8090   */\n      tag_309\n        /* \"#utility.yul\":8088:8089   */\n      dup4\n        /* \"#utility.yul\":8070:8090   */\n      tag_206\n      jump\t// in\n    tag_309:\n        /* \"#utility.yul\":8065:8090   */\n      swap3\n      pop\n        /* \"#utility.yul\":8114:8115   */\n      dup3\n        /* \"#utility.yul\":8111:8112   */\n      dup3\n        /* \"#utility.yul\":8107:8116   */\n      sub\n        /* \"#utility.yul\":8099:8116   */\n      swap1\n      pop\n        /* \"#utility.yul\":8138:8139   */\n      dup2\n        /* \"#utility.yul\":8132:8136   */\n      dup2\n        /* \"#utility.yul\":8129:8140   */\n      gt\n        /* \"#utility.yul\":8126:8163   */\n      iszero\n      tag_310\n      jumpi\n        /* \"#utility.yul\":8143:8161   */\n      tag_311\n      tag_218\n      jump\t// in\n    tag_311:\n        /* \"#utility.yul\":8126:8163   */\n    tag_310:\n        /* \"#utility.yul\":7976:8170   */\n      swap3\n      swap2\n      pop\n      pop\n      jump\t// out\n        /* \"#utility.yul\":8176:8338   */\n    tag_219:\n        /* \"#utility.yul\":8316:8330   */\n      0x46656520746f6f20686967680000000000000000000000000000000000000000\n        /* \"#utility.yul\":8312:8313   */\n      0x00\n        /* \"#utility.yul\":8304:8310   */\n      dup3\n        /* \"#utility.yul\":8300:8314   */\n      add\n        /* \"#utility.yul\":8293:8331   */\n      mstore\n        /* \"#utility.yul\":8176:8338   */\n      pop\n      jump\t// out\n        /* \"#utility.yul\":8344:8710   */\n    tag_220:\n        /* \"#utility.yul\":8486:8489   */\n      0x00\n        /* \"#utility.yul\":8507:8574   */\n      tag_314\n        /* \"#utility.yul\":8571:8573   */\n      0x0c\n        /* \"#utility.yul\":8566:8569   */\n      dup4\n        /* \"#utility.yul\":8507:8574   */\n      tag_195\n      jump\t// in\n    tag_314:\n        /* \"#utility.yul\":8500:8574   */\n      swap2\n      pop\n        /* \"#utility.yul\":8583:8676   */\n      tag_315\n        /* \"#utility.yul\":8672:8675   */\n      dup3\n        /* \"#utility.yul\":8583:8676   */\n      tag_219\n      jump\t// in\n    tag_315:\n        /* \"#utility.yul\":8701:8703   */\n      0x20\n        /* \"#utility.yul\":8696:8699   */\n      dup3\n        /* \"#utility.yul\":8692:8704   */\n      add\n        /* \"#utility.yul\":8685:8704   */\n      swap1\n      pop\n        /* \"#utility.yul\":8344:8710   */\n      swap2\n      swap1\n      pop\n      jump\t// out\n        /* \"#utility.yul\":8716:9135   */\n    tag_114:\n        /* \"#utility.yul\":8882:8886   */\n      0x00\n        /* \"#utility.yul\":8920:8922   */\n      0x20\n        /* \"#utility.yul\":8909:8918   */\n      dup3\n        /* \"#utility.yul\":8905:8923   */\n      add\n        /* \"#utility.yul\":8897:8923   */\n      swap1\n      pop\n        /* \"#utility.yul\":8969:8978   */\n      dup2\n        /* \"#utility.yul\":8963:8967   */\n      dup2\n        /* \"#utility.yul\":8959:8979   */\n      sub\n        /* \"#utility.yul\":8955:8956   */\n      0x00\n        /* \"#utility.yul\":8944:8953   */\n      dup4\n        /* \"#utility.yul\":8940:8957   */\n      add\n        /* \"#utility.yul\":8933:8980   */\n      mstore\n        /* \"#utility.yul\":8997:9128   */\n      tag_317\n        /* \"#utility.yul\":9123:9127   */\n      dup2\n        /* \"#utility.yul\":8997:9128   */\n      tag_220\n      jump\t// in\n    tag_317:\n        /* \"#utility.yul\":8989:9128   */\n      swap1\n      pop\n        /* \"#utility.yul\":8716:9135   */\n      swap2\n      swap1\n      pop\n      jump\t// out\n        /* \"#utility.yul\":9141:9312   */\n    tag_221:\n        /* \"#utility.yul\":9281:9304   */\n      0x496e76616c69642066656520726563697069656e740000000000000000000000\n        /* \"#utility.yul\":9277:9278   */\n      0x00\n        /* \"#utility.yul\":9269:9275   */\n      dup3\n        /* \"#utility.yul\":9265:9279   */\n      add\n        /* \"#utility.yul\":9258:9305   */\n      mstore\n        /* \"#utility.yul\":9141:9312   */\n      pop\n      jump\t// out\n        /* \"#utility.yul\":9318:9684   */\n    tag_222:\n        /* \"#utility.yul\":9460:9463   */\n      0x00\n        /* \"#utility.yul\":9481:9548   */\n      tag_320\n        /* \"#utility.yul\":9545:9547   */\n      0x15\n        /* \"#utility.yul\":9540:9543   */\n      dup4\n        /* \"#utility.yul\":9481:9548   */\n      tag_195\n      jump\t// in\n    tag_320:\n        /* \"#utility.yul\":9474:9548   */\n      swap2\n      pop\n        /* \"#utility.yul\":9557:9650   */\n      tag_321\n        /* \"#utility.yul\":9646:9649   */\n      dup3\n        /* \"#utility.yul\":9557:9650   */\n      tag_221\n      jump\t// in\n    tag_321:\n        /* \"#utility.yul\":9675:9677   */\n      0x20\n        /* \"#utility.yul\":9670:9673   */\n      dup3\n        /* \"#utility.yul\":9666:9678   */\n      add\n        /* \"#utility.yul\":9659:9678   */\n      swap1\n      pop\n        /* \"#utility.yul\":9318:9684   */\n      swap2\n      swap1\n      pop\n      jump\t// out\n        /* \"#utility.yul\":9690:10109   */\n    tag_137:\n        /* \"#utility.yul\":9856:9860   */\n      0x00\n        /* \"#utility.yul\":9894:9896   */\n      0x20\n        /* \"#utility.yul\":9883:9892   */\n      dup3\n        /* \"#utility.yul\":9879:9897   */\n      add\n        /* \"#utility.yul\":9871:9897   */\n      swap1\n      pop\n        /* \"#utility.yul\":9943:9952   */\n      dup2\n        /* \"#utility.yul\":9937:9941   */\n      dup2\n        /* \"#utility.yul\":9933:9953   */\n      sub\n        /* \"#utility.yul\":9929:9930   */\n      0x00\n        /* \"#utility.yul\":9918:9927   */\n      dup4\n        /* \"#utility.yul\":9914:9931   */\n      add\n        /* \"#utility.yul\":9907:9954   */\n      mstore\n        /* \"#utility.yul\":9971:10102   */\n      tag_323\n        /* \"#utility.yul\":10097:10101   */\n      dup2\n        /* \"#utility.yul\":9971:10102   */\n      tag_222\n      jump\t// in\n    tag_323:\n        /* \"#utility.yul\":9963:10102   */\n      swap1\n      pop\n        /* \"#utility.yul\":9690:10109   */\n      swap2\n      swap1\n      pop\n      jump\t// out\n        /* \"#utility.yul\":10115:10525   */\n    tag_153:\n        /* \"#utility.yul\":10155:10162   */\n      0x00\n        /* \"#utility.yul\":10178:10198   */\n      tag_325\n        /* \"#utility.yul\":10196:10197   */\n      dup3\n        /* \"#utility.yul\":10178:10198   */\n      tag_206\n      jump\t// in\n    tag_325:\n        /* \"#utility.yul\":10173:10198   */\n      swap2\n      pop\n        /* \"#utility.yul\":10212:10232   */\n      tag_326\n        /* \"#utility.yul\":10230:10231   */\n      dup4\n        /* \"#utility.yul\":10212:10232   */\n      tag_206\n      jump\t// in\n    tag_326:\n        /* \"#utility.yul\":10207:10232   */\n      swap3\n      pop\n        /* \"#utility.yul\":10267:10268   */\n      dup3\n        /* \"#utility.yul\":10264:10265   */\n      dup3\n        /* \"#utility.yul\":10260:10269   */\n      mul\n        /* \"#utility.yul\":10289:10319   */\n      tag_327\n        /* \"#utility.yul\":10307:10318   */\n      dup2\n        /* \"#utility.yul\":10289:10319   */\n      tag_206\n      jump\t// in\n    tag_327:\n        /* \"#utility.yul\":10278:10319   */\n      swap2\n      pop\n        /* \"#utility.yul\":10468:10469   */\n      dup3\n        /* \"#utility.yul\":10459:10466   */\n      dup3\n        /* \"#utility.yul\":10455:10470   */\n      div\n        /* \"#utility.yul\":10452:10453   */\n      dup5\n        /* \"#utility.yul\":10449:10471   */\n      eq\n        /* \"#utility.yul\":10429:10430   */\n      dup4\n        /* \"#utility.yul\":10422:10431   */\n      iszero\n        /* \"#utility.yul\":10402:10485   */\n      or\n        /* \"#utility.yul\":10379:10518   */\n      tag_328\n      jumpi\n        /* \"#utility.yul\":10498:10516   */\n      tag_329\n      tag_218\n      jump\t// in\n    tag_329:\n        /* \"#utility.yul\":10379:10518   */\n    tag_328:\n        /* \"#utility.yul\":10163:10525   */\n      pop\n        /* \"#utility.yul\":10115:10525   */\n      swap3\n      swap2\n      pop\n      pop\n      jump\t// out\n        /* \"#utility.yul\":10531:10711   */\n    tag_223:\n        /* \"#utility.yul\":10579:10656   */\n      0x4e487b7100000000000000000000000000000000000000000000000000000000\n        /* \"#utility.yul\":10576:10577   */\n      0x00\n        /* \"#utility.yul\":10569:10657   */\n      mstore\n        /* \"#utility.yul\":10676:10680   */\n      0x12\n        /* \"#utility.yul\":10673:10674   */\n      0x04\n        /* \"#utility.yul\":10666:10681   */\n      mstore\n        /* \"#utility.yul\":10700:10704   */\n      0x24\n        /* \"#utility.yul\":10697:10698   */\n      0x00\n        /* \"#utility.yul\":10690:10705   */\n      revert\n        /* \"#utility.yul\":10717:10902   */\n    tag_155:\n        /* \"#utility.yul\":10757:10758   */\n      0x00\n        /* \"#utility.yul\":10774:10794   */\n      tag_332\n        /* \"#utility.yul\":10792:10793   */\n      dup3\n        /* \"#utility.yul\":10774:10794   */\n      tag_206\n      jump\t// in\n    tag_332:\n        /* \"#utility.yul\":10769:10794   */\n      swap2\n      pop\n        /* \"#utility.yul\":10808:10828   */\n      tag_333\n        /* \"#utility.yul\":10826:10827   */\n      dup4\n        /* \"#utility.yul\":10808:10828   */\n      tag_206\n      jump\t// in\n    tag_333:\n        /* \"#utility.yul\":10803:10828   */\n      swap3\n      pop\n        /* \"#utility.yul\":10847:10848   */\n      dup3\n        /* \"#utility.yul\":10837:10872   */\n      tag_334\n      jumpi\n        /* \"#utility.yul\":10852:10870   */\n      tag_335\n      tag_223\n      jump\t// in\n    tag_335:\n        /* \"#utility.yul\":10837:10872   */\n    tag_334:\n        /* \"#utility.yul\":10894:10895   */\n      dup3\n        /* \"#utility.yul\":10891:10892   */\n      dup3\n        /* \"#utility.yul\":10887:10896   */\n      div\n        /* \"#utility.yul\":10882:10896   */\n      swap1\n      pop\n        /* \"#utility.yul\":10717:10902   */\n      swap3\n      swap2\n      pop\n      pop\n      jump\t// out\n        /* \"#utility.yul\":10908:11099   */\n    tag_186:\n        /* \"#utility.yul\":10948:10951   */\n      0x00\n        /* \"#utility.yul\":10967:10987   */\n      tag_337\n        /* \"#utility.yul\":10985:10986   */\n      dup3\n        /* \"#utility.yul\":10967:10987   */\n      tag_206\n      jump\t// in\n    tag_337:\n        /* \"#utility.yul\":10962:10987   */\n      swap2\n      pop\n        /* \"#utility.yul\":11001:11021   */\n      tag_338\n        /* \"#utility.yul\":11019:11020   */\n      dup4\n        /* \"#utility.yul\":11001:11021   */\n      tag_206\n      jump\t// in\n    tag_338:\n        /* \"#utility.yul\":10996:11021   */\n      swap3\n      pop\n        /* \"#utility.yul\":11044:11045   */\n      dup3\n        /* \"#utility.yul\":11041:11042   */\n      dup3\n        /* \"#utility.yul\":11037:11046   */\n      add\n        /* \"#utility.yul\":11030:11046   */\n      swap1\n      pop\n        /* \"#utility.yul\":11065:11068   */\n      dup1\n        /* \"#utility.yul\":11062:11063   */\n      dup3\n        /* \"#utility.yul\":11059:11069   */\n      gt\n        /* \"#utility.yul\":11056:11092   */\n      iszero\n      tag_339\n      jumpi\n        /* \"#utility.yul\":11072:11090   */\n      tag_340\n      tag_218\n      jump\t// in\n    tag_340:\n        /* \"#utility.yul\":11056:11092   */\n    tag_339:\n        /* \"#utility.yul\":10908:11099   */\n      swap3\n      swap2\n      pop\n      pop\n      jump\t// out\n        /* \"#utility.yul\":11105:11547   */\n    tag_190:\n        /* \"#utility.yul\":11254:11258   */\n      0x00\n        /* \"#utility.yul\":11292:11294   */\n      0x60\n        /* \"#utility.yul\":11281:11290   */\n      dup3\n        /* \"#utility.yul\":11277:11295   */\n      add\n        /* \"#utility.yul\":11269:11295   */\n      swap1\n      pop\n        /* \"#utility.yul\":11305:11376   */\n      tag_342\n        /* \"#utility.yul\":11373:11374   */\n      0x00\n        /* \"#utility.yul\":11362:11371   */\n      dup4\n        /* \"#utility.yul\":11358:11375   */\n      add\n        /* \"#utility.yul\":11349:11355   */\n      dup7\n        /* \"#utility.yul\":11305:11376   */\n      tag_214\n      jump\t// in\n    tag_342:\n        /* \"#utility.yul\":11386:11458   */\n      tag_343\n        /* \"#utility.yul\":11454:11456   */\n      0x20\n        /* \"#utility.yul\":11443:11452   */\n      dup4\n        /* \"#utility.yul\":11439:11457   */\n      add\n        /* \"#utility.yul\":11430:11436   */\n      dup6\n        /* \"#utility.yul\":11386:11458   */\n      tag_211\n      jump\t// in\n    tag_343:\n        /* \"#utility.yul\":11468:11540   */\n      tag_344\n        /* \"#utility.yul\":11536:11538   */\n      0x40\n        /* \"#utility.yul\":11525:11534   */\n      dup4\n        /* \"#utility.yul\":11521:11539   */\n      add\n        /* \"#utility.yul\":11512:11518   */\n      dup5\n        /* \"#utility.yul\":11468:11540   */\n      tag_211\n      jump\t// in\n    tag_344:\n        /* \"#utility.yul\":11105:11547   */\n      swap5\n      swap4\n      pop\n      pop\n      pop\n      pop\n      jump\t// out\n\n    auxdata: 0xa26469706673582212201b3396d89fd008092de2c881b1cfa4c64312bed61695fafafbf364330ce18a8564736f6c634300081d0033\n}\n",
				"bytecode": {
					"linkReferences": {},
					"object": "608060405234801561000f575f5ffd5b5060405161205f38038061205f833981810160405281019061003191906105ff565b336040518060400160405280600d81526020017f4661697220414920546f6b656e000000000000000000000000000000000000008152506040518060400160405280600481526020017f464149540000000000000000000000000000000000000000000000000000000081525081600390816100ad9190610883565b5080600490816100bd9190610883565b5050505f73ffffffffffffffffffffffffffffffffffffffff168173ffffffffffffffffffffffffffffffffffffffff1603610130575f6040517f1e4fbdf70000000000000000000000000000000000000000000000000000000081526004016101279190610961565b60405180910390fd5b61013f8161020d60201b60201c565b505f73ffffffffffffffffffffffffffffffffffffffff168173ffffffffffffffffffffffffffffffffffffffff16036101ae576040517f08c379a00000000000000000000000000000000000000000000000000000000081526004016101a5906109d4565b60405180910390fd5b6101be33846102d060201b60201c565b816006819055508060075f6101000a81548173ffffffffffffffffffffffffffffffffffffffff021916908373ffffffffffffffffffffffffffffffffffffffff160217905550505050610aaf565b5f60055f9054906101000a900473ffffffffffffffffffffffffffffffffffffffff1690508160055f6101000a81548173ffffffffffffffffffffffffffffffffffffffff021916908373ffffffffffffffffffffffffffffffffffffffff1602179055508173ffffffffffffffffffffffffffffffffffffffff168173ffffffffffffffffffffffffffffffffffffffff167f8be0079c531659141344cd1fd0a4f28419497f9722a3daafe3b4186f6b6457e060405160405180910390a35050565b5f73ffffffffffffffffffffffffffffffffffffffff168273ffffffffffffffffffffffffffffffffffffffff1603610340575f6040517fec442f050000000000000000000000000000000000000000000000000000000081526004016103379190610961565b60405180910390fd5b6103515f838361035560201b60201c565b5050565b5f73ffffffffffffffffffffffffffffffffffffffff168373ffffffffffffffffffffffffffffffffffffffff16036103a5578060025f8282546103999190610a1f565b92505081905550610473565b5f5f5f8573ffffffffffffffffffffffffffffffffffffffff1673ffffffffffffffffffffffffffffffffffffffff1681526020019081526020015f205490508181101561042e578381836040517fe450d38c00000000000000000000000000000000000000000000000000000000815260040161042593929190610a61565b60405180910390fd5b8181035f5f8673ffffffffffffffffffffffffffffffffffffffff1673ffffffffffffffffffffffffffffffffffffffff1681526020019081526020015f2081905550505b5f73ffffffffffffffffffffffffffffffffffffffff168273ffffffffffffffffffffffffffffffffffffffff16036104ba578060025f8282540392505081905550610504565b805f5f8473ffffffffffffffffffffffffffffffffffffffff1673ffffffffffffffffffffffffffffffffffffffff1681526020019081526020015f205f82825401925050819055505b8173ffffffffffffffffffffffffffffffffffffffff168373ffffffffffffffffffffffffffffffffffffffff167fddf252ad1be2c89b69c2b068fc378daa952ba7f163c4a11628f55a4df523b3ef836040516105619190610a96565b60405180910390a3505050565b5f5ffd5b5f819050919050565b61058481610572565b811461058e575f5ffd5b50565b5f8151905061059f8161057b565b92915050565b5f73ffffffffffffffffffffffffffffffffffffffff82169050919050565b5f6105ce826105a5565b9050919050565b6105de816105c4565b81146105e8575f5ffd5b50565b5f815190506105f9816105d5565b92915050565b5f5f5f606084860312156106165761061561056e565b5b5f61062386828701610591565b935050602061063486828701610591565b9250506040610645868287016105eb565b9150509250925092565b5f81519050919050565b7f4e487b71000000000000000000000000000000000000000000000000000000005f52604160045260245ffd5b7f4e487b71000000000000000000000000000000000000000000000000000000005f52602260045260245ffd5b5f60028204905060018216806106ca57607f821691505b6020821081036106dd576106dc610686565b5b50919050565b5f819050815f5260205f209050919050565b5f6020601f8301049050919050565b5f82821b905092915050565b5f6008830261073f7fffffffffffffffffffffffffffffffffffffffffffffffffffffffffffffffff82610704565b6107498683610704565b95508019841693508086168417925050509392505050565b5f819050919050565b5f61078461077f61077a84610572565b610761565b610572565b9050919050565b5f819050919050565b61079d8361076a565b6107b16107a98261078b565b848454610710565b825550505050565b5f5f905090565b6107c86107b9565b6107d3818484610794565b505050565b5b818110156107f6576107eb5f826107c0565b6001810190506107d9565b5050565b601f82111561083b5761080c816106e3565b610815846106f5565b81016020851015610824578190505b610838610830856106f5565b8301826107d8565b50505b505050565b5f82821c905092915050565b5f61085b5f1984600802610840565b1980831691505092915050565b5f610873838361084c565b9150826002028217905092915050565b61088c8261064f565b67ffffffffffffffff8111156108a5576108a4610659565b5b6108af82546106b3565b6108ba8282856107fa565b5f60209050601f8311600181146108eb575f84156108d9578287015190505b6108e38582610868565b86555061094a565b601f1984166108f9866106e3565b5f5b82811015610920578489015182556001820191506020850194506020810190506108fb565b8683101561093d5784890151610939601f89168261084c565b8355505b6001600288020188555050505b505050505050565b61095b816105c4565b82525050565b5f6020820190506109745f830184610952565b92915050565b5f82825260208201905092915050565b7f496e76616c69642066656520726563697069656e7400000000000000000000005f82015250565b5f6109be60158361097a565b91506109c98261098a565b602082019050919050565b5f6020820190508181035f8301526109eb816109b2565b9050919050565b7f4e487b71000000000000000000000000000000000000000000000000000000005f52601160045260245ffd5b5f610a2982610572565b9150610a3483610572565b9250828201905080821115610a4c57610a4b6109f2565b5b92915050565b610a5b81610572565b82525050565b5f606082019050610a745f830186610952565b610a816020830185610a52565b610a8e6040830184610a52565b949350505050565b5f602082019050610aa95f830184610a52565b92915050565b6115a380610abc5f395ff3fe608060405234801561000f575f5ffd5b50600436106100fe575f3560e01c8063715018a611610095578063a9059cbb11610064578063a9059cbb1461028a578063dd62ed3e146102ba578063f160d369146102ea578063f2fde38b14610306576100fe565b8063715018a6146102265780638da5cb5b1461023057806395d89b411461024e578063a001ecdd1461026c576100fe565b8063313ce567116100d1578063313ce5671461019e57806346904840146101bc5780636cad3fb0146101da57806370a08231146101f6576100fe565b806306fdde0314610102578063095ea7b31461012057806318160ddd1461015057806323b872dd1461016e575b5f5ffd5b61010a610322565b6040516101179190610fc2565b60405180910390f35b61013a60048036038101906101359190611073565b6103b2565b60405161014791906110cb565b60405180910390f35b6101586103d4565b60405161016591906110f3565b60405180910390f35b6101886004803603810190610183919061110c565b6103dd565b60405161019591906110cb565b60405180910390f35b6101a661045b565b6040516101b39190611177565b60405180910390f35b6101c4610463565b6040516101d1919061119f565b60405180910390f35b6101f460048036038101906101ef91906111b8565b610488565b005b610210600480360381019061020b91906111e3565b610516565b60405161021d91906110f3565b60405180910390f35b61022e61055b565b005b61023861056e565b604051610245919061119f565b60405180910390f35b610256610596565b6040516102639190610fc2565b60405180910390f35b610274610626565b60405161028191906110f3565b60405180910390f35b6102a4600480360381019061029f9190611073565b61062c565b6040516102b191906110cb565b60405180910390f35b6102d460048036038101906102cf919061120e565b610642565b6040516102e191906110f3565b60405180910390f35b61030460048036038101906102ff91906111e3565b6106c4565b005b610320600480360381019061031b91906111e3565b6107b4565b005b60606003805461033190611279565b80601f016020809104026020016040519081016040528092919081815260200182805461035d90611279565b80156103a85780601f1061037f576101008083540402835291602001916103a8565b820191905f5260205f20905b81548152906001019060200180831161038b57829003601f168201915b5050505050905090565b5f5f6103bc610838565b90506103c981858561083f565b600191505092915050565b5f600254905090565b5f5f6103e98533610642565b90508281101561042e576040517f08c379a000000000000000000000000000000000000000000000000000000000815260040161042590611319565b60405180910390fd5b6104448533858461043f9190611364565b61083f565b61044f858585610851565b60019150509392505050565b5f6012905090565b60075f9054906101000a900473ffffffffffffffffffffffffffffffffffffffff1681565b610490610930565b6103e88111156104d5576040517f08c379a00000000000000000000000000000000000000000000000000000000081526004016104cc906113e1565b60405180910390fd5b806006819055507f8c4d35e54a3f2ef1134138fd8ea3daee6a3c89e10d2665996babdf70261e2c768160405161050b91906110f3565b60405180910390a150565b5f5f5f8373ffffffffffffffffffffffffffffffffffffffff1673ffffffffffffffffffffffffffffffffffffffff1681526020019081526020015f20549050919050565b610563610930565b61056c5f6109b7565b565b5f60055f9054906101000a900473ffffffffffffffffffffffffffffffffffffffff16905090565b6060600480546105a590611279565b80601f01602080910402602001604051908101604052809291908181526020018280546105d190611279565b801561061c5780601f106105f35761010080835404028352916020019161061c565b820191905f5260205f20905b8154815290600101906020018083116105ff57829003601f168201915b5050505050905090565b60065481565b5f610638338484610851565b6001905092915050565b5f60015f8473ffffffffffffffffffffffffffffffffffffffff1673ffffffffffffffffffffffffffffffffffffffff1681526020019081526020015f205f8373ffffffffffffffffffffffffffffffffffffffff1673ffffffffffffffffffffffffffffffffffffffff1681526020019081526020015f2054905092915050565b6106cc610930565b5f73ffffffffffffffffffffffffffffffffffffffff168173ffffffffffffffffffffffffffffffffffffffff160361073a576040517f08c379a000000000000000000000000000000000000000000000000000000000815260040161073190611449565b60405180910390fd5b8060075f6101000a81548173ffffffffffffffffffffffffffffffffffffffff021916908373ffffffffffffffffffffffffffffffffffffffff1602179055507f7a7b5a0a132f9e0581eb8527f66eae9ee89c2a3e79d4ac7e41a1f1f4d48a7fc2816040516107a9919061119f565b60405180910390a150565b6107bc610930565b5f73ffffffffffffffffffffffffffffffffffffffff168173ffffffffffffffffffffffffffffffffffffffff160361082c575f6040517f1e4fbdf7000000000000000000000000000000000000000000000000000000008152600401610823919061119f565b60405180910390fd5b610835816109b7565b50565b5f33905090565b61084c8383836001610a7a565b505050565b5f6006541180156108af57505f73ffffffffffffffffffffffffffffffffffffffff1660075f9054906101000a900473ffffffffffffffffffffffffffffffffffffffff1673ffffffffffffffffffffffffffffffffffffffff1614155b1561091f575f612710600654836108c69190611467565b6108d091906114d5565b90505f81836108df9190611364565b905061090d8560075f9054906101000a900473ffffffffffffffffffffffffffffffffffffffff1684610c49565b610918858583610c49565b505061092b565b61092a838383610c49565b5b505050565b610938610838565b73ffffffffffffffffffffffffffffffffffffffff1661095661056e565b73ffffffffffffffffffffffffffffffffffffffff16146109b557610979610838565b6040517f118cdaa70000000000000000000000000000000000000000000000000000000081526004016109ac919061119f565b60405180910390fd5b565b5f60055f9054906101000a900473ffffffffffffffffffffffffffffffffffffffff1690508160055f6101000a81548173ffffffffffffffffffffffffffffffffffffffff021916908373ffffffffffffffffffffffffffffffffffffffff1602179055508173ffffffffffffffffffffffffffffffffffffffff168173ffffffffffffffffffffffffffffffffffffffff167f8be0079c531659141344cd1fd0a4f28419497f9722a3daafe3b4186f6b6457e060405160405180910390a35050565b5f73ffffffffffffffffffffffffffffffffffffffff168473ffffffffffffffffffffffffffffffffffffffff1603610aea575f6040517fe602df05000000000000000000000000000000000000000000000000000000008152600401610ae1919061119f565b60405180910390fd5b5f73ffffffffffffffffffffffffffffffffffffffff168373ffffffffffffffffffffffffffffffffffffffff1603610b5a575f6040517f94280d62000000000000000000000000000000000000000000000000000000008152600401610b51919061119f565b60405180910390fd5b8160015f8673ffffffffffffffffffffffffffffffffffffffff1673ffffffffffffffffffffffffffffffffffffffff1681526020019081526020015f205f8573ffffffffffffffffffffffffffffffffffffffff1673ffffffffffffffffffffffffffffffffffffffff1681526020019081526020015f20819055508015610c43578273ffffffffffffffffffffffffffffffffffffffff168473ffffffffffffffffffffffffffffffffffffffff167f8c5be1e5ebec7d5bd14f71427d1e84f3dd0314c0f7b2291e5b200ac8c7c3b92584604051610c3a91906110f3565b60405180910390a35b50505050565b5f73ffffffffffffffffffffffffffffffffffffffff168373ffffffffffffffffffffffffffffffffffffffff1603610cb9575f6040517f96c6fd1e000000000000000000000000000000000000000000000000000000008152600401610cb0919061119f565b60405180910390fd5b5f73ffffffffffffffffffffffffffffffffffffffff168273ffffffffffffffffffffffffffffffffffffffff1603610d29575f6040517fec442f05000000000000000000000000000000000000000000000000000000008152600401610d20919061119f565b60405180910390fd5b610d34838383610d39565b505050565b5f73ffffffffffffffffffffffffffffffffffffffff168373ffffffffffffffffffffffffffffffffffffffff1603610d89578060025f828254610d7d9190611505565b92505081905550610e57565b5f5f5f8573ffffffffffffffffffffffffffffffffffffffff1673ffffffffffffffffffffffffffffffffffffffff1681526020019081526020015f2054905081811015610e12578381836040517fe450d38c000000000000000000000000000000000000000000000000000000008152600401610e0993929190611538565b60405180910390fd5b8181035f5f8673ffffffffffffffffffffffffffffffffffffffff1673ffffffffffffffffffffffffffffffffffffffff1681526020019081526020015f2081905550505b5f73ffffffffffffffffffffffffffffffffffffffff168273ffffffffffffffffffffffffffffffffffffffff1603610e9e578060025f8282540392505081905550610ee8565b805f5f8473ffffffffffffffffffffffffffffffffffffffff1673ffffffffffffffffffffffffffffffffffffffff1681526020019081526020015f205f82825401925050819055505b8173ffffffffffffffffffffffffffffffffffffffff168373ffffffffffffffffffffffffffffffffffffffff167fddf252ad1be2c89b69c2b068fc378daa952ba7f163c4a11628f55a4df523b3ef83604051610f4591906110f3565b60405180910390a3505050565b5f81519050919050565b5f82825260208201905092915050565b8281835e5f83830152505050565b5f601f19601f8301169050919050565b5f610f9482610f52565b610f9e8185610f5c565b9350610fae818560208601610f6c565b610fb781610f7a565b840191505092915050565b5f6020820190508181035f830152610fda8184610f8a565b905092915050565b5f5ffd5b5f73ffffffffffffffffffffffffffffffffffffffff82169050919050565b5f61100f82610fe6565b9050919050565b61101f81611005565b8114611029575f5ffd5b50565b5f8135905061103a81611016565b92915050565b5f819050919050565b61105281611040565b811461105c575f5ffd5b50565b5f8135905061106d81611049565b92915050565b5f5f6040838503121561108957611088610fe2565b5b5f6110968582860161102c565b92505060206110a78582860161105f565b9150509250929050565b5f8115159050919050565b6110c5816110b1565b82525050565b5f6020820190506110de5f8301846110bc565b92915050565b6110ed81611040565b82525050565b5f6020820190506111065f8301846110e4565b92915050565b5f5f5f6060848603121561112357611122610fe2565b5b5f6111308682870161102c565b93505060206111418682870161102c565b92505060406111528682870161105f565b9150509250925092565b5f60ff82169050919050565b6111718161115c565b82525050565b5f60208201905061118a5f830184611168565b92915050565b61119981611005565b82525050565b5f6020820190506111b25f830184611190565b92915050565b5f602082840312156111cd576111cc610fe2565b5b5f6111da8482850161105f565b91505092915050565b5f602082840312156111f8576111f7610fe2565b5b5f6112058482850161102c565b91505092915050565b5f5f6040838503121561122457611223610fe2565b5b5f6112318582860161102c565b92505060206112428582860161102c565b9150509250929050565b7f4e487b71000000000000000000000000000000000000000000000000000000005f52602260045260245ffd5b5f600282049050600182168061129057607f821691505b6020821081036112a3576112a261124c565b5b50919050565b7f45524332303a207472616e7366657220616d6f756e74206578636565647320615f8201527f6c6c6f77616e6365000000000000000000000000000000000000000000000000602082015250565b5f611303602883610f5c565b915061130e826112a9565b604082019050919050565b5f6020820190508181035f830152611330816112f7565b9050919050565b7f4e487b71000000000000000000000000000000000000000000000000000000005f52601160045260245ffd5b5f61136e82611040565b915061137983611040565b925082820390508181111561139157611390611337565b5b92915050565b7f46656520746f6f206869676800000000000000000000000000000000000000005f82015250565b5f6113cb600c83610f5c565b91506113d682611397565b602082019050919050565b5f6020820190508181035f8301526113f8816113bf565b9050919050565b7f496e76616c69642066656520726563697069656e7400000000000000000000005f82015250565b5f611433601583610f5c565b915061143e826113ff565b602082019050919050565b5f6020820190508181035f83015261146081611427565b9050919050565b5f61147182611040565b915061147c83611040565b925082820261148a81611040565b915082820484148315176114a1576114a0611337565b5b5092915050565b7f4e487b71000000000000000000000000000000000000000000000000000000005f52601260045260245ffd5b5f6114df82611040565b91506114ea83611040565b9250826114fa576114f96114a8565b5b828204905092915050565b5f61150f82611040565b915061151a83611040565b925082820190508082111561153257611531611337565b5b92915050565b5f60608201905061154b5f830186611190565b61155860208301856110e4565b61156560408301846110e4565b94935050505056fea26469706673582212201b3396d89fd008092de2c881b1cfa4c64312bed61695fafafbf364330ce18a8564736f6c634300081d0033",
					"opcodes": "PUSH1 0x80 PUSH1 0x40 MSTORE CALLVALUE DUP1 ISZERO PUSH2 0xF JUMPI PUSH0 PUSH0 REVERT JUMPDEST POP PUSH1 0x40 MLOAD PUSH2 0x205F CODESIZE SUB DUP1 PUSH2 0x205F DUP4 CODECOPY DUP2 DUP2 ADD PUSH1 0x40 MSTORE DUP2 ADD SWAP1 PUSH2 0x31 SWAP2 SWAP1 PUSH2 0x5FF JUMP JUMPDEST CALLER PUSH1 0x40 MLOAD DUP1 PUSH1 0x40 ADD PUSH1 0x40 MSTORE DUP1 PUSH1 0xD DUP2 MSTORE PUSH1 0x20 ADD PUSH32 0x4661697220414920546F6B656E00000000000000000000000000000000000000 DUP2 MSTORE POP PUSH1 0x40 MLOAD DUP1 PUSH1 0x40 ADD PUSH1 0x40 MSTORE DUP1 PUSH1 0x4 DUP2 MSTORE PUSH1 0x20 ADD PUSH32 0x4641495400000000000000000000000000000000000000000000000000000000 DUP2 MSTORE POP DUP2 PUSH1 0x3 SWAP1 DUP2 PUSH2 0xAD SWAP2 SWAP1 PUSH2 0x883 JUMP JUMPDEST POP DUP1 PUSH1 0x4 SWAP1 DUP2 PUSH2 0xBD SWAP2 SWAP1 PUSH2 0x883 JUMP JUMPDEST POP POP POP PUSH0 PUSH20 0xFFFFFFFFFFFFFFFFFFFFFFFFFFFFFFFFFFFFFFFF AND DUP2 PUSH20 0xFFFFFFFFFFFFFFFFFFFFFFFFFFFFFFFFFFFFFFFF AND SUB PUSH2 0x130 JUMPI PUSH0 PUSH1 0x40 MLOAD PUSH32 0x1E4FBDF700000000000000000000000000000000000000000000000000000000 DUP2 MSTORE PUSH1 0x4 ADD PUSH2 0x127 SWAP2 SWAP1 PUSH2 0x961 JUMP JUMPDEST PUSH1 0x40 MLOAD DUP1 SWAP2 SUB SWAP1 REVERT JUMPDEST PUSH2 0x13F DUP2 PUSH2 0x20D PUSH1 0x20 SHL PUSH1 0x20 SHR JUMP JUMPDEST POP PUSH0 PUSH20 0xFFFFFFFFFFFFFFFFFFFFFFFFFFFFFFFFFFFFFFFF AND DUP2 PUSH20 0xFFFFFFFFFFFFFFFFFFFFFFFFFFFFFFFFFFFFFFFF AND SUB PUSH2 0x1AE JUMPI PUSH1 0x40 MLOAD PUSH32 0x8C379A000000000000000000000000000000000000000000000000000000000 DUP2 MSTORE PUSH1 0x4 ADD PUSH2 0x1A5 SWAP1 PUSH2 0x9D4 JUMP JUMPDEST PUSH1 0x40 MLOAD DUP1 SWAP2 SUB SWAP1 REVERT JUMPDEST PUSH2 0x1BE CALLER DUP5 PUSH2 0x2D0 PUSH1 0x20 SHL PUSH1 0x20 SHR JUMP JUMPDEST DUP2 PUSH1 0x6 DUP2 SWAP1 SSTORE POP DUP1 PUSH1 0x7 PUSH0 PUSH2 0x100 EXP DUP2 SLOAD DUP2 PUSH20 0xFFFFFFFFFFFFFFFFFFFFFFFFFFFFFFFFFFFFFFFF MUL NOT AND SWAP1 DUP4 PUSH20 0xFFFFFFFFFFFFFFFFFFFFFFFFFFFFFFFFFFFFFFFF AND MUL OR SWAP1 SSTORE POP POP POP POP PUSH2 0xAAF JUMP JUMPDEST PUSH0 PUSH1 0x5 PUSH0 SWAP1 SLOAD SWAP1 PUSH2 0x100 EXP SWAP1 DIV PUSH20 0xFFFFFFFFFFFFFFFFFFFFFFFFFFFFFFFFFFFFFFFF AND SWAP1 POP DUP2 PUSH1 0x5 PUSH0 PUSH2 0x100 EXP DUP2 SLOAD DUP2 PUSH20 0xFFFFFFFFFFFFFFFFFFFFFFFFFFFFFFFFFFFFFFFF MUL NOT AND SWAP1 DUP4 PUSH20 0xFFFFFFFFFFFFFFFFFFFFFFFFFFFFFFFFFFFFFFFF AND MUL OR SWAP1 SSTORE POP DUP2 PUSH20 0xFFFFFFFFFFFFFFFFFFFFFFFFFFFFFFFFFFFFFFFF AND DUP2 PUSH20 0xFFFFFFFFFFFFFFFFFFFFFFFFFFFFFFFFFFFFFFFF AND PUSH32 0x8BE0079C531659141344CD1FD0A4F28419497F9722A3DAAFE3B4186F6B6457E0 PUSH1 0x40 MLOAD PUSH1 0x40 MLOAD DUP1 SWAP2 SUB SWAP1 LOG3 POP POP JUMP JUMPDEST PUSH0 PUSH20 0xFFFFFFFFFFFFFFFFFFFFFFFFFFFFFFFFFFFFFFFF AND DUP3 PUSH20 0xFFFFFFFFFFFFFFFFFFFFFFFFFFFFFFFFFFFFFFFF AND SUB PUSH2 0x340 JUMPI PUSH0 PUSH1 0x40 MLOAD PUSH32 0xEC442F0500000000000000000000000000000000000000000000000000000000 DUP2 MSTORE PUSH1 0x4 ADD PUSH2 0x337 SWAP2 SWAP1 PUSH2 0x961 JUMP JUMPDEST PUSH1 0x40 MLOAD DUP1 SWAP2 SUB SWAP1 REVERT JUMPDEST PUSH2 0x351 PUSH0 DUP4 DUP4 PUSH2 0x355 PUSH1 0x20 SHL PUSH1 0x20 SHR JUMP JUMPDEST POP POP JUMP JUMPDEST PUSH0 PUSH20 0xFFFFFFFFFFFFFFFFFFFFFFFFFFFFFFFFFFFFFFFF AND DUP4 PUSH20 0xFFFFFFFFFFFFFFFFFFFFFFFFFFFFFFFFFFFFFFFF AND SUB PUSH2 0x3A5 JUMPI DUP1 PUSH1 0x2 PUSH0 DUP3 DUP3 SLOAD PUSH2 0x399 SWAP2 SWAP1 PUSH2 0xA1F JUMP JUMPDEST SWAP3 POP POP DUP2 SWAP1 SSTORE POP PUSH2 0x473 JUMP JUMPDEST PUSH0 PUSH0 PUSH0 DUP6 PUSH20 0xFFFFFFFFFFFFFFFFFFFFFFFFFFFFFFFFFFFFFFFF AND PUSH20 0xFFFFFFFFFFFFFFFFFFFFFFFFFFFFFFFFFFFFFFFF AND DUP2 MSTORE PUSH1 0x20 ADD SWAP1 DUP2 MSTORE PUSH1 0x20 ADD PUSH0 KECCAK256 SLOAD SWAP1 POP DUP2 DUP2 LT ISZERO PUSH2 0x42E JUMPI DUP4 DUP2 DUP4 PUSH1 0x40 MLOAD PUSH32 0xE450D38C00000000000000000000000000000000000000000000000000000000 DUP2 MSTORE PUSH1 0x4 ADD PUSH2 0x425 SWAP4 SWAP3 SWAP2 SWAP1 PUSH2 0xA61 JUMP JUMPDEST PUSH1 0x40 MLOAD DUP1 SWAP2 SUB SWAP1 REVERT JUMPDEST DUP2 DUP2 SUB PUSH0 PUSH0 DUP7 PUSH20 0xFFFFFFFFFFFFFFFFFFFFFFFFFFFFFFFFFFFFFFFF AND PUSH20 0xFFFFFFFFFFFFFFFFFFFFFFFFFFFFFFFFFFFFFFFF AND DUP2 MSTORE PUSH1 0x20 ADD SWAP1 DUP2 MSTORE PUSH1 0x20 ADD PUSH0 KECCAK256 DUP2 SWAP1 SSTORE POP POP JUMPDEST PUSH0 PUSH20 0xFFFFFFFFFFFFFFFFFFFFFFFFFFFFFFFFFFFFFFFF AND DUP3 PUSH20 0xFFFFFFFFFFFFFFFFFFFFFFFFFFFFFFFFFFFFFFFF AND SUB PUSH2 0x4BA JUMPI DUP1 PUSH1 0x2 PUSH0 DUP3 DUP3 SLOAD SUB SWAP3 POP POP DUP2 SWAP1 SSTORE POP PUSH2 0x504 JUMP JUMPDEST DUP1 PUSH0 PUSH0 DUP5 PUSH20 0xFFFFFFFFFFFFFFFFFFFFFFFFFFFFFFFFFFFFFFFF AND PUSH20 0xFFFFFFFFFFFFFFFFFFFFFFFFFFFFFFFFFFFFFFFF AND DUP2 MSTORE PUSH1 0x20 ADD SWAP1 DUP2 MSTORE PUSH1 0x20 ADD PUSH0 KECCAK256 PUSH0 DUP3 DUP3 SLOAD ADD SWAP3 POP POP DUP2 SWAP1 SSTORE POP JUMPDEST DUP2 PUSH20 0xFFFFFFFFFFFFFFFFFFFFFFFFFFFFFFFFFFFFFFFF AND DUP4 PUSH20 0xFFFFFFFFFFFFFFFFFFFFFFFFFFFFFFFFFFFFFFFF AND PUSH32 0xDDF252AD1BE2C89B69C2B068FC378DAA952BA7F163C4A11628F55A4DF523B3EF DUP4 PUSH1 0x40 MLOAD PUSH2 0x561 SWAP2 SWAP1 PUSH2 0xA96 JUMP JUMPDEST PUSH1 0x40 MLOAD DUP1 SWAP2 SUB SWAP1 LOG3 POP POP POP JUMP JUMPDEST PUSH0 PUSH0 REVERT JUMPDEST PUSH0 DUP2 SWAP1 POP SWAP2 SWAP1 POP JUMP JUMPDEST PUSH2 0x584 DUP2 PUSH2 0x572 JUMP JUMPDEST DUP2 EQ PUSH2 0x58E JUMPI PUSH0 PUSH0 REVERT JUMPDEST POP JUMP JUMPDEST PUSH0 DUP2 MLOAD SWAP1 POP PUSH2 0x59F DUP2 PUSH2 0x57B JUMP JUMPDEST SWAP3 SWAP2 POP POP JUMP JUMPDEST PUSH0 PUSH20 0xFFFFFFFFFFFFFFFFFFFFFFFFFFFFFFFFFFFFFFFF DUP3 AND SWAP1 POP SWAP2 SWAP1 POP JUMP JUMPDEST PUSH0 PUSH2 0x5CE DUP3 PUSH2 0x5A5 JUMP JUMPDEST SWAP1 POP SWAP2 SWAP1 POP JUMP JUMPDEST PUSH2 0x5DE DUP2 PUSH2 0x5C4 JUMP JUMPDEST DUP2 EQ PUSH2 0x5E8 JUMPI PUSH0 PUSH0 REVERT JUMPDEST POP JUMP JUMPDEST PUSH0 DUP2 MLOAD SWAP1 POP PUSH2 0x5F9 DUP2 PUSH2 0x5D5 JUMP JUMPDEST SWAP3 SWAP2 POP POP JUMP JUMPDEST PUSH0 PUSH0 PUSH0 PUSH1 0x60 DUP5 DUP7 SUB SLT ISZERO PUSH2 0x616 JUMPI PUSH2 0x615 PUSH2 0x56E JUMP JUMPDEST JUMPDEST PUSH0 PUSH2 0x623 DUP7 DUP3 DUP8 ADD PUSH2 0x591 JUMP JUMPDEST SWAP4 POP POP PUSH1 0x20 PUSH2 0x634 DUP7 DUP3 DUP8 ADD PUSH2 0x591 JUMP JUMPDEST SWAP3 POP POP PUSH1 0x40 PUSH2 0x645 DUP7 DUP3 DUP8 ADD PUSH2 0x5EB JUMP JUMPDEST SWAP2 POP POP SWAP3 POP SWAP3 POP SWAP3 JUMP JUMPDEST PUSH0 DUP2 MLOAD SWAP1 POP SWAP2 SWAP1 POP JUMP JUMPDEST PUSH32 0x4E487B7100000000000000000000000000000000000000000000000000000000 PUSH0 MSTORE PUSH1 0x41 PUSH1 0x4 MSTORE PUSH1 0x24 PUSH0 REVERT JUMPDEST PUSH32 0x4E487B7100000000000000000000000000000000000000000000000000000000 PUSH0 MSTORE PUSH1 0x22 PUSH1 0x4 MSTORE PUSH1 0x24 PUSH0 REVERT JUMPDEST PUSH0 PUSH1 0x2 DUP3 DIV SWAP1 POP PUSH1 0x1 DUP3 AND DUP1 PUSH2 0x6CA JUMPI PUSH1 0x7F DUP3 AND SWAP2 POP JUMPDEST PUSH1 0x20 DUP3 LT DUP2 SUB PUSH2 0x6DD JUMPI PUSH2 0x6DC PUSH2 0x686 JUMP JUMPDEST JUMPDEST POP SWAP2 SWAP1 POP JUMP JUMPDEST PUSH0 DUP2 SWAP1 POP DUP2 PUSH0 MSTORE PUSH1 0x20 PUSH0 KECCAK256 SWAP1 POP SWAP2 SWAP1 POP JUMP JUMPDEST PUSH0 PUSH1 0x20 PUSH1 0x1F DUP4 ADD DIV SWAP1 POP SWAP2 SWAP1 POP JUMP JUMPDEST PUSH0 DUP3 DUP3 SHL SWAP1 POP SWAP3 SWAP2 POP POP JUMP JUMPDEST PUSH0 PUSH1 0x8 DUP4 MUL PUSH2 0x73F PUSH32 0xFFFFFFFFFFFFFFFFFFFFFFFFFFFFFFFFFFFFFFFFFFFFFFFFFFFFFFFFFFFFFFFF DUP3 PUSH2 0x704 JUMP JUMPDEST PUSH2 0x749 DUP7 DUP4 PUSH2 0x704 JUMP JUMPDEST SWAP6 POP DUP1 NOT DUP5 AND SWAP4 POP DUP1 DUP7 AND DUP5 OR SWAP3 POP POP POP SWAP4 SWAP3 POP POP POP JUMP JUMPDEST PUSH0 DUP2 SWAP1 POP SWAP2 SWAP1 POP JUMP JUMPDEST PUSH0 PUSH2 0x784 PUSH2 0x77F PUSH2 0x77A DUP5 PUSH2 0x572 JUMP JUMPDEST PUSH2 0x761 JUMP JUMPDEST PUSH2 0x572 JUMP JUMPDEST SWAP1 POP SWAP2 SWAP1 POP JUMP JUMPDEST PUSH0 DUP2 SWAP1 POP SWAP2 SWAP1 POP JUMP JUMPDEST PUSH2 0x79D DUP4 PUSH2 0x76A JUMP JUMPDEST PUSH2 0x7B1 PUSH2 0x7A9 DUP3 PUSH2 0x78B JUMP JUMPDEST DUP5 DUP5 SLOAD PUSH2 0x710 JUMP JUMPDEST DUP3 SSTORE POP POP POP POP JUMP JUMPDEST PUSH0 PUSH0 SWAP1 POP SWAP1 JUMP JUMPDEST PUSH2 0x7C8 PUSH2 0x7B9 JUMP JUMPDEST PUSH2 0x7D3 DUP2 DUP5 DUP5 PUSH2 0x794 JUMP JUMPDEST POP POP POP JUMP JUMPDEST JUMPDEST DUP2 DUP2 LT ISZERO PUSH2 0x7F6 JUMPI PUSH2 0x7EB PUSH0 DUP3 PUSH2 0x7C0 JUMP JUMPDEST PUSH1 0x1 DUP2 ADD SWAP1 POP PUSH2 0x7D9 JUMP JUMPDEST POP POP JUMP JUMPDEST PUSH1 0x1F DUP3 GT ISZERO PUSH2 0x83B JUMPI PUSH2 0x80C DUP2 PUSH2 0x6E3 JUMP JUMPDEST PUSH2 0x815 DUP5 PUSH2 0x6F5 JUMP JUMPDEST DUP2 ADD PUSH1 0x20 DUP6 LT ISZERO PUSH2 0x824 JUMPI DUP2 SWAP1 POP JUMPDEST PUSH2 0x838 PUSH2 0x830 DUP6 PUSH2 0x6F5 JUMP JUMPDEST DUP4 ADD DUP3 PUSH2 0x7D8 JUMP JUMPDEST POP POP JUMPDEST POP POP POP JUMP JUMPDEST PUSH0 DUP3 DUP3 SHR SWAP1 POP SWAP3 SWAP2 POP POP JUMP JUMPDEST PUSH0 PUSH2 0x85B PUSH0 NOT DUP5 PUSH1 0x8 MUL PUSH2 0x840 JUMP JUMPDEST NOT DUP1 DUP4 AND SWAP2 POP POP SWAP3 SWAP2 POP POP JUMP JUMPDEST PUSH0 PUSH2 0x873 DUP4 DUP4 PUSH2 0x84C JUMP JUMPDEST SWAP2 POP DUP3 PUSH1 0x2 MUL DUP3 OR SWAP1 POP SWAP3 SWAP2 POP POP JUMP JUMPDEST PUSH2 0x88C DUP3 PUSH2 0x64F JUMP JUMPDEST PUSH8 0xFFFFFFFFFFFFFFFF DUP2 GT ISZERO PUSH2 0x8A5 JUMPI PUSH2 0x8A4 PUSH2 0x659 JUMP JUMPDEST JUMPDEST PUSH2 0x8AF DUP3 SLOAD PUSH2 0x6B3 JUMP JUMPDEST PUSH2 0x8BA DUP3 DUP3 DUP6 PUSH2 0x7FA JUMP JUMPDEST PUSH0 PUSH1 0x20 SWAP1 POP PUSH1 0x1F DUP4 GT PUSH1 0x1 DUP2 EQ PUSH2 0x8EB JUMPI PUSH0 DUP5 ISZERO PUSH2 0x8D9 JUMPI DUP3 DUP8 ADD MLOAD SWAP1 POP JUMPDEST PUSH2 0x8E3 DUP6 DUP3 PUSH2 0x868 JUMP JUMPDEST DUP7 SSTORE POP PUSH2 0x94A JUMP JUMPDEST PUSH1 0x1F NOT DUP5 AND PUSH2 0x8F9 DUP7 PUSH2 0x6E3 JUMP JUMPDEST PUSH0 JUMPDEST DUP3 DUP2 LT ISZERO PUSH2 0x920 JUMPI DUP5 DUP10 ADD MLOAD DUP3 SSTORE PUSH1 0x1 DUP3 ADD SWAP2 POP PUSH1 0x20 DUP6 ADD SWAP5 POP PUSH1 0x20 DUP2 ADD SWAP1 POP PUSH2 0x8FB JUMP JUMPDEST DUP7 DUP4 LT ISZERO PUSH2 0x93D JUMPI DUP5 DUP10 ADD MLOAD PUSH2 0x939 PUSH1 0x1F DUP10 AND DUP3 PUSH2 0x84C JUMP JUMPDEST DUP4 SSTORE POP JUMPDEST PUSH1 0x1 PUSH1 0x2 DUP9 MUL ADD DUP9 SSTORE POP POP POP JUMPDEST POP POP POP POP POP POP JUMP JUMPDEST PUSH2 0x95B DUP2 PUSH2 0x5C4 JUMP JUMPDEST DUP3 MSTORE POP POP JUMP JUMPDEST PUSH0 PUSH1 0x20 DUP3 ADD SWAP1 POP PUSH2 0x974 PUSH0 DUP4 ADD DUP5 PUSH2 0x952 JUMP JUMPDEST SWAP3 SWAP2 POP POP JUMP JUMPDEST PUSH0 DUP3 DUP3 MSTORE PUSH1 0x20 DUP3 ADD SWAP1 POP SWAP3 SWAP2 POP POP JUMP JUMPDEST PUSH32 0x496E76616C69642066656520726563697069656E740000000000000000000000 PUSH0 DUP3 ADD MSTORE POP JUMP JUMPDEST PUSH0 PUSH2 0x9BE PUSH1 0x15 DUP4 PUSH2 0x97A JUMP JUMPDEST SWAP2 POP PUSH2 0x9C9 DUP3 PUSH2 0x98A JUMP JUMPDEST PUSH1 0x20 DUP3 ADD SWAP1 POP SWAP2 SWAP1 POP JUMP JUMPDEST PUSH0 PUSH1 0x20 DUP3 ADD SWAP1 POP DUP2 DUP2 SUB PUSH0 DUP4 ADD MSTORE PUSH2 0x9EB DUP2 PUSH2 0x9B2 JUMP JUMPDEST SWAP1 POP SWAP2 SWAP1 POP JUMP JUMPDEST PUSH32 0x4E487B7100000000000000000000000000000000000000000000000000000000 PUSH0 MSTORE PUSH1 0x11 PUSH1 0x4 MSTORE PUSH1 0x24 PUSH0 REVERT JUMPDEST PUSH0 PUSH2 0xA29 DUP3 PUSH2 0x572 JUMP JUMPDEST SWAP2 POP PUSH2 0xA34 DUP4 PUSH2 0x572 JUMP JUMPDEST SWAP3 POP DUP3 DUP3 ADD SWAP1 POP DUP1 DUP3 GT ISZERO PUSH2 0xA4C JUMPI PUSH2 0xA4B PUSH2 0x9F2 JUMP JUMPDEST JUMPDEST SWAP3 SWAP2 POP POP JUMP JUMPDEST PUSH2 0xA5B DUP2 PUSH2 0x572 JUMP JUMPDEST DUP3 MSTORE POP POP JUMP JUMPDEST PUSH0 PUSH1 0x60 DUP3 ADD SWAP1 POP PUSH2 0xA74 PUSH0 DUP4 ADD DUP7 PUSH2 0x952 JUMP JUMPDEST PUSH2 0xA81 PUSH1 0x20 DUP4 ADD DUP6 PUSH2 0xA52 JUMP JUMPDEST PUSH2 0xA8E PUSH1 0x40 DUP4 ADD DUP5 PUSH2 0xA52 JUMP JUMPDEST SWAP5 SWAP4 POP POP POP POP JUMP JUMPDEST PUSH0 PUSH1 0x20 DUP3 ADD SWAP1 POP PUSH2 0xAA9 PUSH0 DUP4 ADD DUP5 PUSH2 0xA52 JUMP JUMPDEST SWAP3 SWAP2 POP POP JUMP JUMPDEST PUSH2 0x15A3 DUP1 PUSH2 0xABC PUSH0 CODECOPY PUSH0 RETURN INVALID PUSH1 0x80 PUSH1 0x40 MSTORE CALLVALUE DUP1 ISZERO PUSH2 0xF JUMPI PUSH0 PUSH0 REVERT JUMPDEST POP PUSH1 0x4 CALLDATASIZE LT PUSH2 0xFE JUMPI PUSH0 CALLDATALOAD PUSH1 0xE0 SHR DUP1 PUSH4 0x715018A6 GT PUSH2 0x95 JUMPI DUP1 PUSH4 0xA9059CBB GT PUSH2 0x64 JUMPI DUP1 PUSH4 0xA9059CBB EQ PUSH2 0x28A JUMPI DUP1 PUSH4 0xDD62ED3E EQ PUSH2 0x2BA JUMPI DUP1 PUSH4 0xF160D369 EQ PUSH2 0x2EA JUMPI DUP1 PUSH4 0xF2FDE38B EQ PUSH2 0x306 JUMPI PUSH2 0xFE JUMP JUMPDEST DUP1 PUSH4 0x715018A6 EQ PUSH2 0x226 JUMPI DUP1 PUSH4 0x8DA5CB5B EQ PUSH2 0x230 JUMPI DUP1 PUSH4 0x95D89B41 EQ PUSH2 0x24E JUMPI DUP1 PUSH4 0xA001ECDD EQ PUSH2 0x26C JUMPI PUSH2 0xFE JUMP JUMPDEST DUP1 PUSH4 0x313CE567 GT PUSH2 0xD1 JUMPI DUP1 PUSH4 0x313CE567 EQ PUSH2 0x19E JUMPI DUP1 PUSH4 0x46904840 EQ PUSH2 0x1BC JUMPI DUP1 PUSH4 0x6CAD3FB0 EQ PUSH2 0x1DA JUMPI DUP1 PUSH4 0x70A08231 EQ PUSH2 0x1F6 JUMPI PUSH2 0xFE JUMP JUMPDEST DUP1 PUSH4 0x6FDDE03 EQ PUSH2 0x102 JUMPI DUP1 PUSH4 0x95EA7B3 EQ PUSH2 0x120 JUMPI DUP1 PUSH4 0x18160DDD EQ PUSH2 0x150 JUMPI DUP1 PUSH4 0x23B872DD EQ PUSH2 0x16E JUMPI JUMPDEST PUSH0 PUSH0 REVERT JUMPDEST PUSH2 0x10A PUSH2 0x322 JUMP JUMPDEST PUSH1 0x40 MLOAD PUSH2 0x117 SWAP2 SWAP1 PUSH2 0xFC2 JUMP JUMPDEST PUSH1 0x40 MLOAD DUP1 SWAP2 SUB SWAP1 RETURN JUMPDEST PUSH2 0x13A PUSH1 0x4 DUP1 CALLDATASIZE SUB DUP2 ADD SWAP1 PUSH2 0x135 SWAP2 SWAP1 PUSH2 0x1073 JUMP JUMPDEST PUSH2 0x3B2 JUMP JUMPDEST PUSH1 0x40 MLOAD PUSH2 0x147 SWAP2 SWAP1 PUSH2 0x10CB JUMP JUMPDEST PUSH1 0x40 MLOAD DUP1 SWAP2 SUB SWAP1 RETURN JUMPDEST PUSH2 0x158 PUSH2 0x3D4 JUMP JUMPDEST PUSH1 0x40 MLOAD PUSH2 0x165 SWAP2 SWAP1 PUSH2 0x10F3 JUMP JUMPDEST PUSH1 0x40 MLOAD DUP1 SWAP2 SUB SWAP1 RETURN JUMPDEST PUSH2 0x188 PUSH1 0x4 DUP1 CALLDATASIZE SUB DUP2 ADD SWAP1 PUSH2 0x183 SWAP2 SWAP1 PUSH2 0x110C JUMP JUMPDEST PUSH2 0x3DD JUMP JUMPDEST PUSH1 0x40 MLOAD PUSH2 0x195 SWAP2 SWAP1 PUSH2 0x10CB JUMP JUMPDEST PUSH1 0x40 MLOAD DUP1 SWAP2 SUB SWAP1 RETURN JUMPDEST PUSH2 0x1A6 PUSH2 0x45B JUMP JUMPDEST PUSH1 0x40 MLOAD PUSH2 0x1B3 SWAP2 SWAP1 PUSH2 0x1177 JUMP JUMPDEST PUSH1 0x40 MLOAD DUP1 SWAP2 SUB SWAP1 RETURN JUMPDEST PUSH2 0x1C4 PUSH2 0x463 JUMP JUMPDEST PUSH1 0x40 MLOAD PUSH2 0x1D1 SWAP2 SWAP1 PUSH2 0x119F JUMP JUMPDEST PUSH1 0x40 MLOAD DUP1 SWAP2 SUB SWAP1 RETURN JUMPDEST PUSH2 0x1F4 PUSH1 0x4 DUP1 CALLDATASIZE SUB DUP2 ADD SWAP1 PUSH2 0x1EF SWAP2 SWAP1 PUSH2 0x11B8 JUMP JUMPDEST PUSH2 0x488 JUMP JUMPDEST STOP JUMPDEST PUSH2 0x210 PUSH1 0x4 DUP1 CALLDATASIZE SUB DUP2 ADD SWAP1 PUSH2 0x20B SWAP2 SWAP1 PUSH2 0x11E3 JUMP JUMPDEST PUSH2 0x516 JUMP JUMPDEST PUSH1 0x40 MLOAD PUSH2 0x21D SWAP2 SWAP1 PUSH2 0x10F3 JUMP JUMPDEST PUSH1 0x40 MLOAD DUP1 SWAP2 SUB SWAP1 RETURN JUMPDEST PUSH2 0x22E PUSH2 0x55B JUMP JUMPDEST STOP JUMPDEST PUSH2 0x238 PUSH2 0x56E JUMP JUMPDEST PUSH1 0x40 MLOAD PUSH2 0x245 SWAP2 SWAP1 PUSH2 0x119F JUMP JUMPDEST PUSH1 0x40 MLOAD DUP1 SWAP2 SUB SWAP1 RETURN JUMPDEST PUSH2 0x256 PUSH2 0x596 JUMP JUMPDEST PUSH1 0x40 MLOAD PUSH2 0x263 SWAP2 SWAP1 PUSH2 0xFC2 JUMP JUMPDEST PUSH1 0x40 MLOAD DUP1 SWAP2 SUB SWAP1 RETURN JUMPDEST PUSH2 0x274 PUSH2 0x626 JUMP JUMPDEST PUSH1 0x40 MLOAD PUSH2 0x281 SWAP2 SWAP1 PUSH2 0x10F3 JUMP JUMPDEST PUSH1 0x40 MLOAD DUP1 SWAP2 SUB SWAP1 RETURN JUMPDEST PUSH2 0x2A4 PUSH1 0x4 DUP1 CALLDATASIZE SUB DUP2 ADD SWAP1 PUSH2 0x29F SWAP2 SWAP1 PUSH2 0x1073 JUMP JUMPDEST PUSH2 0x62C JUMP JUMPDEST PUSH1 0x40 MLOAD PUSH2 0x2B1 SWAP2 SWAP1 PUSH2 0x10CB JUMP JUMPDEST PUSH1 0x40 MLOAD DUP1 SWAP2 SUB SWAP1 RETURN JUMPDEST PUSH2 0x2D4 PUSH1 0x4 DUP1 CALLDATASIZE SUB DUP2 ADD SWAP1 PUSH2 0x2CF SWAP2 SWAP1 PUSH2 0x120E JUMP JUMPDEST PUSH2 0x642 JUMP JUMPDEST PUSH1 0x40 MLOAD PUSH2 0x2E1 SWAP2 SWAP1 PUSH2 0x10F3 JUMP JUMPDEST PUSH1 0x40 MLOAD DUP1 SWAP2 SUB SWAP1 RETURN JUMPDEST PUSH2 0x304 PUSH1 0x4 DUP1 CALLDATASIZE SUB DUP2 ADD SWAP1 PUSH2 0x2FF SWAP2 SWAP1 PUSH2 0x11E3 JUMP JUMPDEST PUSH2 0x6C4 JUMP JUMPDEST STOP JUMPDEST PUSH2 0x320 PUSH1 0x4 DUP1 CALLDATASIZE SUB DUP2 ADD SWAP1 PUSH2 0x31B SWAP2 SWAP1 PUSH2 0x11E3 JUMP JUMPDEST PUSH2 0x7B4 JUMP JUMPDEST STOP JUMPDEST PUSH1 0x60 PUSH1 0x3 DUP1 SLOAD PUSH2 0x331 SWAP1 PUSH2 0x1279 JUMP JUMPDEST DUP1 PUSH1 0x1F ADD PUSH1 0x20 DUP1 SWAP2 DIV MUL PUSH1 0x20 ADD PUSH1 0x40 MLOAD SWAP1 DUP2 ADD PUSH1 0x40 MSTORE DUP1 SWAP3 SWAP2 SWAP1 DUP2 DUP2 MSTORE PUSH1 0x20 ADD DUP3 DUP1 SLOAD PUSH2 0x35D SWAP1 PUSH2 0x1279 JUMP JUMPDEST DUP1 ISZERO PUSH2 0x3A8 JUMPI DUP1 PUSH1 0x1F LT PUSH2 0x37F JUMPI PUSH2 0x100 DUP1 DUP4 SLOAD DIV MUL DUP4 MSTORE SWAP2 PUSH1 0x20 ADD SWAP2 PUSH2 0x3A8 JUMP JUMPDEST DUP3 ADD SWAP2 SWAP1 PUSH0 MSTORE PUSH1 0x20 PUSH0 KECCAK256 SWAP1 JUMPDEST DUP2 SLOAD DUP2 MSTORE SWAP1 PUSH1 0x1 ADD SWAP1 PUSH1 0x20 ADD DUP1 DUP4 GT PUSH2 0x38B JUMPI DUP3 SWAP1 SUB PUSH1 0x1F AND DUP3 ADD SWAP2 JUMPDEST POP POP POP POP POP SWAP1 POP SWAP1 JUMP JUMPDEST PUSH0 PUSH0 PUSH2 0x3BC PUSH2 0x838 JUMP JUMPDEST SWAP1 POP PUSH2 0x3C9 DUP2 DUP6 DUP6 PUSH2 0x83F JUMP JUMPDEST PUSH1 0x1 SWAP2 POP POP SWAP3 SWAP2 POP POP JUMP JUMPDEST PUSH0 PUSH1 0x2 SLOAD SWAP1 POP SWAP1 JUMP JUMPDEST PUSH0 PUSH0 PUSH2 0x3E9 DUP6 CALLER PUSH2 0x642 JUMP JUMPDEST SWAP1 POP DUP3 DUP2 LT ISZERO PUSH2 0x42E JUMPI PUSH1 0x40 MLOAD PUSH32 0x8C379A000000000000000000000000000000000000000000000000000000000 DUP2 MSTORE PUSH1 0x4 ADD PUSH2 0x425 SWAP1 PUSH2 0x1319 JUMP JUMPDEST PUSH1 0x40 MLOAD DUP1 SWAP2 SUB SWAP1 REVERT JUMPDEST PUSH2 0x444 DUP6 CALLER DUP6 DUP5 PUSH2 0x43F SWAP2 SWAP1 PUSH2 0x1364 JUMP JUMPDEST PUSH2 0x83F JUMP JUMPDEST PUSH2 0x44F DUP6 DUP6 DUP6 PUSH2 0x851 JUMP JUMPDEST PUSH1 0x1 SWAP2 POP POP SWAP4 SWAP3 POP POP POP JUMP JUMPDEST PUSH0 PUSH1 0x12 SWAP1 POP SWAP1 JUMP JUMPDEST PUSH1 0x7 PUSH0 SWAP1 SLOAD SWAP1 PUSH2 0x100 EXP SWAP1 DIV PUSH20 0xFFFFFFFFFFFFFFFFFFFFFFFFFFFFFFFFFFFFFFFF AND DUP2 JUMP JUMPDEST PUSH2 0x490 PUSH2 0x930 JUMP JUMPDEST PUSH2 0x3E8 DUP2 GT ISZERO PUSH2 0x4D5 JUMPI PUSH1 0x40 MLOAD PUSH32 0x8C379A000000000000000000000000000000000000000000000000000000000 DUP2 MSTORE PUSH1 0x4 ADD PUSH2 0x4CC SWAP1 PUSH2 0x13E1 JUMP JUMPDEST PUSH1 0x40 MLOAD DUP1 SWAP2 SUB SWAP1 REVERT JUMPDEST DUP1 PUSH1 0x6 DUP2 SWAP1 SSTORE POP PUSH32 0x8C4D35E54A3F2EF1134138FD8EA3DAEE6A3C89E10D2665996BABDF70261E2C76 DUP2 PUSH1 0x40 MLOAD PUSH2 0x50B SWAP2 SWAP1 PUSH2 0x10F3 JUMP JUMPDEST PUSH1 0x40 MLOAD DUP1 SWAP2 SUB SWAP1 LOG1 POP JUMP JUMPDEST PUSH0 PUSH0 PUSH0 DUP4 PUSH20 0xFFFFFFFFFFFFFFFFFFFFFFFFFFFFFFFFFFFFFFFF AND PUSH20 0xFFFFFFFFFFFFFFFFFFFFFFFFFFFFFFFFFFFFFFFF AND DUP2 MSTORE PUSH1 0x20 ADD SWAP1 DUP2 MSTORE PUSH1 0x20 ADD PUSH0 KECCAK256 SLOAD SWAP1 POP SWAP2 SWAP1 POP JUMP JUMPDEST PUSH2 0x563 PUSH2 0x930 JUMP JUMPDEST PUSH2 0x56C PUSH0 PUSH2 0x9B7 JUMP JUMPDEST JUMP JUMPDEST PUSH0 PUSH1 0x5 PUSH0 SWAP1 SLOAD SWAP1 PUSH2 0x100 EXP SWAP1 DIV PUSH20 0xFFFFFFFFFFFFFFFFFFFFFFFFFFFFFFFFFFFFFFFF AND SWAP1 POP SWAP1 JUMP JUMPDEST PUSH1 0x60 PUSH1 0x4 DUP1 SLOAD PUSH2 0x5A5 SWAP1 PUSH2 0x1279 JUMP JUMPDEST DUP1 PUSH1 0x1F ADD PUSH1 0x20 DUP1 SWAP2 DIV MUL PUSH1 0x20 ADD PUSH1 0x40 MLOAD SWAP1 DUP2 ADD PUSH1 0x40 MSTORE DUP1 SWAP3 SWAP2 SWAP1 DUP2 DUP2 MSTORE PUSH1 0x20 ADD DUP3 DUP1 SLOAD PUSH2 0x5D1 SWAP1 PUSH2 0x1279 JUMP JUMPDEST DUP1 ISZERO PUSH2 0x61C JUMPI DUP1 PUSH1 0x1F LT PUSH2 0x5F3 JUMPI PUSH2 0x100 DUP1 DUP4 SLOAD DIV MUL DUP4 MSTORE SWAP2 PUSH1 0x20 ADD SWAP2 PUSH2 0x61C JUMP JUMPDEST DUP3 ADD SWAP2 SWAP1 PUSH0 MSTORE PUSH1 0x20 PUSH0 KECCAK256 SWAP1 JUMPDEST DUP2 SLOAD DUP2 MSTORE SWAP1 PUSH1 0x1 ADD SWAP1 PUSH1 0x20 ADD DUP1 DUP4 GT PUSH2 0x5FF JUMPI DUP3 SWAP1 SUB PUSH1 0x1F AND DUP3 ADD SWAP2 JUMPDEST POP POP POP POP POP SWAP1 POP SWAP1 JUMP JUMPDEST PUSH1 0x6 SLOAD DUP2 JUMP JUMPDEST PUSH0 PUSH2 0x638 CALLER DUP5 DUP5 PUSH2 0x851 JUMP JUMPDEST PUSH1 0x1 SWAP1 POP SWAP3 SWAP2 POP POP JUMP JUMPDEST PUSH0 PUSH1 0x1 PUSH0 DUP5 PUSH20 0xFFFFFFFFFFFFFFFFFFFFFFFFFFFFFFFFFFFFFFFF AND PUSH20 0xFFFFFFFFFFFFFFFFFFFFFFFFFFFFFFFFFFFFFFFF AND DUP2 MSTORE PUSH1 0x20 ADD SWAP1 DUP2 MSTORE PUSH1 0x20 ADD PUSH0 KECCAK256 PUSH0 DUP4 PUSH20 0xFFFFFFFFFFFFFFFFFFFFFFFFFFFFFFFFFFFFFFFF AND PUSH20 0xFFFFFFFFFFFFFFFFFFFFFFFFFFFFFFFFFFFFFFFF AND DUP2 MSTORE PUSH1 0x20 ADD SWAP1 DUP2 MSTORE PUSH1 0x20 ADD PUSH0 KECCAK256 SLOAD SWAP1 POP SWAP3 SWAP2 POP POP JUMP JUMPDEST PUSH2 0x6CC PUSH2 0x930 JUMP JUMPDEST PUSH0 PUSH20 0xFFFFFFFFFFFFFFFFFFFFFFFFFFFFFFFFFFFFFFFF AND DUP2 PUSH20 0xFFFFFFFFFFFFFFFFFFFFFFFFFFFFFFFFFFFFFFFF AND SUB PUSH2 0x73A JUMPI PUSH1 0x40 MLOAD PUSH32 0x8C379A000000000000000000000000000000000000000000000000000000000 DUP2 MSTORE PUSH1 0x4 ADD PUSH2 0x731 SWAP1 PUSH2 0x1449 JUMP JUMPDEST PUSH1 0x40 MLOAD DUP1 SWAP2 SUB SWAP1 REVERT JUMPDEST DUP1 PUSH1 0x7 PUSH0 PUSH2 0x100 EXP DUP2 SLOAD DUP2 PUSH20 0xFFFFFFFFFFFFFFFFFFFFFFFFFFFFFFFFFFFFFFFF MUL NOT AND SWAP1 DUP4 PUSH20 0xFFFFFFFFFFFFFFFFFFFFFFFFFFFFFFFFFFFFFFFF AND MUL OR SWAP1 SSTORE POP PUSH32 0x7A7B5A0A132F9E0581EB8527F66EAE9EE89C2A3E79D4AC7E41A1F1F4D48A7FC2 DUP2 PUSH1 0x40 MLOAD PUSH2 0x7A9 SWAP2 SWAP1 PUSH2 0x119F JUMP JUMPDEST PUSH1 0x40 MLOAD DUP1 SWAP2 SUB SWAP1 LOG1 POP JUMP JUMPDEST PUSH2 0x7BC PUSH2 0x930 JUMP JUMPDEST PUSH0 PUSH20 0xFFFFFFFFFFFFFFFFFFFFFFFFFFFFFFFFFFFFFFFF AND DUP2 PUSH20 0xFFFFFFFFFFFFFFFFFFFFFFFFFFFFFFFFFFFFFFFF AND SUB PUSH2 0x82C JUMPI PUSH0 PUSH1 0x40 MLOAD PUSH32 0x1E4FBDF700000000000000000000000000000000000000000000000000000000 DUP2 MSTORE PUSH1 0x4 ADD PUSH2 0x823 SWAP2 SWAP1 PUSH2 0x119F JUMP JUMPDEST PUSH1 0x40 MLOAD DUP1 SWAP2 SUB SWAP1 REVERT JUMPDEST PUSH2 0x835 DUP2 PUSH2 0x9B7 JUMP JUMPDEST POP JUMP JUMPDEST PUSH0 CALLER SWAP1 POP SWAP1 JUMP JUMPDEST PUSH2 0x84C DUP4 DUP4 DUP4 PUSH1 0x1 PUSH2 0xA7A JUMP JUMPDEST POP POP POP JUMP JUMPDEST PUSH0 PUSH1 0x6 SLOAD GT DUP1 ISZERO PUSH2 0x8AF JUMPI POP PUSH0 PUSH20 0xFFFFFFFFFFFFFFFFFFFFFFFFFFFFFFFFFFFFFFFF AND PUSH1 0x7 PUSH0 SWAP1 SLOAD SWAP1 PUSH2 0x100 EXP SWAP1 DIV PUSH20 0xFFFFFFFFFFFFFFFFFFFFFFFFFFFFFFFFFFFFFFFF AND PUSH20 0xFFFFFFFFFFFFFFFFFFFFFFFFFFFFFFFFFFFFFFFF AND EQ ISZERO JUMPDEST ISZERO PUSH2 0x91F JUMPI PUSH0 PUSH2 0x2710 PUSH1 0x6 SLOAD DUP4 PUSH2 0x8C6 SWAP2 SWAP1 PUSH2 0x1467 JUMP JUMPDEST PUSH2 0x8D0 SWAP2 SWAP1 PUSH2 0x14D5 JUMP JUMPDEST SWAP1 POP PUSH0 DUP2 DUP4 PUSH2 0x8DF SWAP2 SWAP1 PUSH2 0x1364 JUMP JUMPDEST SWAP1 POP PUSH2 0x90D DUP6 PUSH1 0x7 PUSH0 SWAP1 SLOAD SWAP1 PUSH2 0x100 EXP SWAP1 DIV PUSH20 0xFFFFFFFFFFFFFFFFFFFFFFFFFFFFFFFFFFFFFFFF AND DUP5 PUSH2 0xC49 JUMP JUMPDEST PUSH2 0x918 DUP6 DUP6 DUP4 PUSH2 0xC49 JUMP JUMPDEST POP POP PUSH2 0x92B JUMP JUMPDEST PUSH2 0x92A DUP4 DUP4 DUP4 PUSH2 0xC49 JUMP JUMPDEST JUMPDEST POP POP POP JUMP JUMPDEST PUSH2 0x938 PUSH2 0x838 JUMP JUMPDEST PUSH20 0xFFFFFFFFFFFFFFFFFFFFFFFFFFFFFFFFFFFFFFFF AND PUSH2 0x956 PUSH2 0x56E JUMP JUMPDEST PUSH20 0xFFFFFFFFFFFFFFFFFFFFFFFFFFFFFFFFFFFFFFFF AND EQ PUSH2 0x9B5 JUMPI PUSH2 0x979 PUSH2 0x838 JUMP JUMPDEST PUSH1 0x40 MLOAD PUSH32 0x118CDAA700000000000000000000000000000000000000000000000000000000 DUP2 MSTORE PUSH1 0x4 ADD PUSH2 0x9AC SWAP2 SWAP1 PUSH2 0x119F JUMP JUMPDEST PUSH1 0x40 MLOAD DUP1 SWAP2 SUB SWAP1 REVERT JUMPDEST JUMP JUMPDEST PUSH0 PUSH1 0x5 PUSH0 SWAP1 SLOAD SWAP1 PUSH2 0x100 EXP SWAP1 DIV PUSH20 0xFFFFFFFFFFFFFFFFFFFFFFFFFFFFFFFFFFFFFFFF AND SWAP1 POP DUP2 PUSH1 0x5 PUSH0 PUSH2 0x100 EXP DUP2 SLOAD DUP2 PUSH20 0xFFFFFFFFFFFFFFFFFFFFFFFFFFFFFFFFFFFFFFFF MUL NOT AND SWAP1 DUP4 PUSH20 0xFFFFFFFFFFFFFFFFFFFFFFFFFFFFFFFFFFFFFFFF AND MUL OR SWAP1 SSTORE POP DUP2 PUSH20 0xFFFFFFFFFFFFFFFFFFFFFFFFFFFFFFFFFFFFFFFF AND DUP2 PUSH20 0xFFFFFFFFFFFFFFFFFFFFFFFFFFFFFFFFFFFFFFFF AND PUSH32 0x8BE0079C531659141344CD1FD0A4F28419497F9722A3DAAFE3B4186F6B6457E0 PUSH1 0x40 MLOAD PUSH1 0x40 MLOAD DUP1 SWAP2 SUB SWAP1 LOG3 POP POP JUMP JUMPDEST PUSH0 PUSH20 0xFFFFFFFFFFFFFFFFFFFFFFFFFFFFFFFFFFFFFFFF AND DUP5 PUSH20 0xFFFFFFFFFFFFFFFFFFFFFFFFFFFFFFFFFFFFFFFF AND SUB PUSH2 0xAEA JUMPI PUSH0 PUSH1 0x40 MLOAD PUSH32 0xE602DF0500000000000000000000000000000000000000000000000000000000 DUP2 MSTORE PUSH1 0x4 ADD PUSH2 0xAE1 SWAP2 SWAP1 PUSH2 0x119F JUMP JUMPDEST PUSH1 0x40 MLOAD DUP1 SWAP2 SUB SWAP1 REVERT JUMPDEST PUSH0 PUSH20 0xFFFFFFFFFFFFFFFFFFFFFFFFFFFFFFFFFFFFFFFF AND DUP4 PUSH20 0xFFFFFFFFFFFFFFFFFFFFFFFFFFFFFFFFFFFFFFFF AND SUB PUSH2 0xB5A JUMPI PUSH0 PUSH1 0x40 MLOAD PUSH32 0x94280D6200000000000000000000000000000000000000000000000000000000 DUP2 MSTORE PUSH1 0x4 ADD PUSH2 0xB51 SWAP2 SWAP1 PUSH2 0x119F JUMP JUMPDEST PUSH1 0x40 MLOAD DUP1 SWAP2 SUB SWAP1 REVERT JUMPDEST DUP2 PUSH1 0x1 PUSH0 DUP7 PUSH20 0xFFFFFFFFFFFFFFFFFFFFFFFFFFFFFFFFFFFFFFFF AND PUSH20 0xFFFFFFFFFFFFFFFFFFFFFFFFFFFFFFFFFFFFFFFF AND DUP2 MSTORE PUSH1 0x20 ADD SWAP1 DUP2 MSTORE PUSH1 0x20 ADD PUSH0 KECCAK256 PUSH0 DUP6 PUSH20 0xFFFFFFFFFFFFFFFFFFFFFFFFFFFFFFFFFFFFFFFF AND PUSH20 0xFFFFFFFFFFFFFFFFFFFFFFFFFFFFFFFFFFFFFFFF AND DUP2 MSTORE PUSH1 0x20 ADD SWAP1 DUP2 MSTORE PUSH1 0x20 ADD PUSH0 KECCAK256 DUP2 SWAP1 SSTORE POP DUP1 ISZERO PUSH2 0xC43 JUMPI DUP3 PUSH20 0xFFFFFFFFFFFFFFFFFFFFFFFFFFFFFFFFFFFFFFFF AND DUP5 PUSH20 0xFFFFFFFFFFFFFFFFFFFFFFFFFFFFFFFFFFFFFFFF AND PUSH32 0x8C5BE1E5EBEC7D5BD14F71427D1E84F3DD0314C0F7B2291E5B200AC8C7C3B925 DUP5 PUSH1 0x40 MLOAD PUSH2 0xC3A SWAP2 SWAP1 PUSH2 0x10F3 JUMP JUMPDEST PUSH1 0x40 MLOAD DUP1 SWAP2 SUB SWAP1 LOG3 JUMPDEST POP POP POP POP JUMP JUMPDEST PUSH0 PUSH20 0xFFFFFFFFFFFFFFFFFFFFFFFFFFFFFFFFFFFFFFFF AND DUP4 PUSH20 0xFFFFFFFFFFFFFFFFFFFFFFFFFFFFFFFFFFFFFFFF AND SUB PUSH2 0xCB9 JUMPI PUSH0 PUSH1 0x40 MLOAD PUSH32 0x96C6FD1E00000000000000000000000000000000000000000000000000000000 DUP2 MSTORE PUSH1 0x4 ADD PUSH2 0xCB0 SWAP2 SWAP1 PUSH2 0x119F JUMP JUMPDEST PUSH1 0x40 MLOAD DUP1 SWAP2 SUB SWAP1 REVERT JUMPDEST PUSH0 PUSH20 0xFFFFFFFFFFFFFFFFFFFFFFFFFFFFFFFFFFFFFFFF AND DUP3 PUSH20 0xFFFFFFFFFFFFFFFFFFFFFFFFFFFFFFFFFFFFFFFF AND SUB PUSH2 0xD29 JUMPI PUSH0 PUSH1 0x40 MLOAD PUSH32 0xEC442F0500000000000000000000000000000000000000000000000000000000 DUP2 MSTORE PUSH1 0x4 ADD PUSH2 0xD20 SWAP2 SWAP1 PUSH2 0x119F JUMP JUMPDEST PUSH1 0x40 MLOAD DUP1 SWAP2 SUB SWAP1 REVERT JUMPDEST PUSH2 0xD34 DUP4 DUP4 DUP4 PUSH2 0xD39 JUMP JUMPDEST POP POP POP JUMP JUMPDEST PUSH0 PUSH20 0xFFFFFFFFFFFFFFFFFFFFFFFFFFFFFFFFFFFFFFFF AND DUP4 PUSH20 0xFFFFFFFFFFFFFFFFFFFFFFFFFFFFFFFFFFFFFFFF AND SUB PUSH2 0xD89 JUMPI DUP1 PUSH1 0x2 PUSH0 DUP3 DUP3 SLOAD PUSH2 0xD7D SWAP2 SWAP1 PUSH2 0x1505 JUMP JUMPDEST SWAP3 POP POP DUP2 SWAP1 SSTORE POP PUSH2 0xE57 JUMP JUMPDEST PUSH0 PUSH0 PUSH0 DUP6 PUSH20 0xFFFFFFFFFFFFFFFFFFFFFFFFFFFFFFFFFFFFFFFF AND PUSH20 0xFFFFFFFFFFFFFFFFFFFFFFFFFFFFFFFFFFFFFFFF AND DUP2 MSTORE PUSH1 0x20 ADD SWAP1 DUP2 MSTORE PUSH1 0x20 ADD PUSH0 KECCAK256 SLOAD SWAP1 POP DUP2 DUP2 LT ISZERO PUSH2 0xE12 JUMPI DUP4 DUP2 DUP4 PUSH1 0x40 MLOAD PUSH32 0xE450D38C00000000000000000000000000000000000000000000000000000000 DUP2 MSTORE PUSH1 0x4 ADD PUSH2 0xE09 SWAP4 SWAP3 SWAP2 SWAP1 PUSH2 0x1538 JUMP JUMPDEST PUSH1 0x40 MLOAD DUP1 SWAP2 SUB SWAP1 REVERT JUMPDEST DUP2 DUP2 SUB PUSH0 PUSH0 DUP7 PUSH20 0xFFFFFFFFFFFFFFFFFFFFFFFFFFFFFFFFFFFFFFFF AND PUSH20 0xFFFFFFFFFFFFFFFFFFFFFFFFFFFFFFFFFFFFFFFF AND DUP2 MSTORE PUSH1 0x20 ADD SWAP1 DUP2 MSTORE PUSH1 0x20 ADD PUSH0 KECCAK256 DUP2 SWAP1 SSTORE POP POP JUMPDEST PUSH0 PUSH20 0xFFFFFFFFFFFFFFFFFFFFFFFFFFFFFFFFFFFFFFFF AND DUP3 PUSH20 0xFFFFFFFFFFFFFFFFFFFFFFFFFFFFFFFFFFFFFFFF AND SUB PUSH2 0xE9E JUMPI DUP1 PUSH1 0x2 PUSH0 DUP3 DUP3 SLOAD SUB SWAP3 POP POP DUP2 SWAP1 SSTORE POP PUSH2 0xEE8 JUMP JUMPDEST DUP1 PUSH0 PUSH0 DUP5 PUSH20 0xFFFFFFFFFFFFFFFFFFFFFFFFFFFFFFFFFFFFFFFF AND PUSH20 0xFFFFFFFFFFFFFFFFFFFFFFFFFFFFFFFFFFFFFFFF AND DUP2 MSTORE PUSH1 0x20 ADD SWAP1 DUP2 MSTORE PUSH1 0x20 ADD PUSH0 KECCAK256 PUSH0 DUP3 DUP3 SLOAD ADD SWAP3 POP POP DUP2 SWAP1 SSTORE POP JUMPDEST DUP2 PUSH20 0xFFFFFFFFFFFFFFFFFFFFFFFFFFFFFFFFFFFFFFFF AND DUP4 PUSH20 0xFFFFFFFFFFFFFFFFFFFFFFFFFFFFFFFFFFFFFFFF AND PUSH32 0xDDF252AD1BE2C89B69C2B068FC378DAA952BA7F163C4A11628F55A4DF523B3EF DUP4 PUSH1 0x40 MLOAD PUSH2 0xF45 SWAP2 SWAP1 PUSH2 0x10F3 JUMP JUMPDEST PUSH1 0x40 MLOAD DUP1 SWAP2 SUB SWAP1 LOG3 POP POP POP JUMP JUMPDEST PUSH0 DUP2 MLOAD SWAP1 POP SWAP2 SWAP1 POP JUMP JUMPDEST PUSH0 DUP3 DUP3 MSTORE PUSH1 0x20 DUP3 ADD SWAP1 POP SWAP3 SWAP2 POP POP JUMP JUMPDEST DUP3 DUP2 DUP4 MCOPY PUSH0 DUP4 DUP4 ADD MSTORE POP POP POP JUMP JUMPDEST PUSH0 PUSH1 0x1F NOT PUSH1 0x1F DUP4 ADD AND SWAP1 POP SWAP2 SWAP1 POP JUMP JUMPDEST PUSH0 PUSH2 0xF94 DUP3 PUSH2 0xF52 JUMP JUMPDEST PUSH2 0xF9E DUP2 DUP6 PUSH2 0xF5C JUMP JUMPDEST SWAP4 POP PUSH2 0xFAE DUP2 DUP6 PUSH1 0x20 DUP7 ADD PUSH2 0xF6C JUMP JUMPDEST PUSH2 0xFB7 DUP2 PUSH2 0xF7A JUMP JUMPDEST DUP5 ADD SWAP2 POP POP SWAP3 SWAP2 POP POP JUMP JUMPDEST PUSH0 PUSH1 0x20 DUP3 ADD SWAP1 POP DUP2 DUP2 SUB PUSH0 DUP4 ADD MSTORE PUSH2 0xFDA DUP2 DUP5 PUSH2 0xF8A JUMP JUMPDEST SWAP1 POP SWAP3 SWAP2 POP POP JUMP JUMPDEST PUSH0 PUSH0 REVERT JUMPDEST PUSH0 PUSH20 0xFFFFFFFFFFFFFFFFFFFFFFFFFFFFFFFFFFFFFFFF DUP3 AND SWAP1 POP SWAP2 SWAP1 POP JUMP JUMPDEST PUSH0 PUSH2 0x100F DUP3 PUSH2 0xFE6 JUMP JUMPDEST SWAP1 POP SWAP2 SWAP1 POP JUMP JUMPDEST PUSH2 0x101F DUP2 PUSH2 0x1005 JUMP JUMPDEST DUP2 EQ PUSH2 0x1029 JUMPI PUSH0 PUSH0 REVERT JUMPDEST POP JUMP JUMPDEST PUSH0 DUP2 CALLDATALOAD SWAP1 POP PUSH2 0x103A DUP2 PUSH2 0x1016 JUMP JUMPDEST SWAP3 SWAP2 POP POP JUMP JUMPDEST PUSH0 DUP2 SWAP1 POP SWAP2 SWAP1 POP JUMP JUMPDEST PUSH2 0x1052 DUP2 PUSH2 0x1040 JUMP JUMPDEST DUP2 EQ PUSH2 0x105C JUMPI PUSH0 PUSH0 REVERT JUMPDEST POP JUMP JUMPDEST PUSH0 DUP2 CALLDATALOAD SWAP1 POP PUSH2 0x106D DUP2 PUSH2 0x1049 JUMP JUMPDEST SWAP3 SWAP2 POP POP JUMP JUMPDEST PUSH0 PUSH0 PUSH1 0x40 DUP4 DUP6 SUB SLT ISZERO PUSH2 0x1089 JUMPI PUSH2 0x1088 PUSH2 0xFE2 JUMP JUMPDEST JUMPDEST PUSH0 PUSH2 0x1096 DUP6 DUP3 DUP7 ADD PUSH2 0x102C JUMP JUMPDEST SWAP3 POP POP PUSH1 0x20 PUSH2 0x10A7 DUP6 DUP3 DUP7 ADD PUSH2 0x105F JUMP JUMPDEST SWAP2 POP POP SWAP3 POP SWAP3 SWAP1 POP JUMP JUMPDEST PUSH0 DUP2 ISZERO ISZERO SWAP1 POP SWAP2 SWAP1 POP JUMP JUMPDEST PUSH2 0x10C5 DUP2 PUSH2 0x10B1 JUMP JUMPDEST DUP3 MSTORE POP POP JUMP JUMPDEST PUSH0 PUSH1 0x20 DUP3 ADD SWAP1 POP PUSH2 0x10DE PUSH0 DUP4 ADD DUP5 PUSH2 0x10BC JUMP JUMPDEST SWAP3 SWAP2 POP POP JUMP JUMPDEST PUSH2 0x10ED DUP2 PUSH2 0x1040 JUMP JUMPDEST DUP3 MSTORE POP POP JUMP JUMPDEST PUSH0 PUSH1 0x20 DUP3 ADD SWAP1 POP PUSH2 0x1106 PUSH0 DUP4 ADD DUP5 PUSH2 0x10E4 JUMP JUMPDEST SWAP3 SWAP2 POP POP JUMP JUMPDEST PUSH0 PUSH0 PUSH0 PUSH1 0x60 DUP5 DUP7 SUB SLT ISZERO PUSH2 0x1123 JUMPI PUSH2 0x1122 PUSH2 0xFE2 JUMP JUMPDEST JUMPDEST PUSH0 PUSH2 0x1130 DUP7 DUP3 DUP8 ADD PUSH2 0x102C JUMP JUMPDEST SWAP4 POP POP PUSH1 0x20 PUSH2 0x1141 DUP7 DUP3 DUP8 ADD PUSH2 0x102C JUMP JUMPDEST SWAP3 POP POP PUSH1 0x40 PUSH2 0x1152 DUP7 DUP3 DUP8 ADD PUSH2 0x105F JUMP JUMPDEST SWAP2 POP POP SWAP3 POP SWAP3 POP SWAP3 JUMP JUMPDEST PUSH0 PUSH1 0xFF DUP3 AND SWAP1 POP SWAP2 SWAP1 POP JUMP JUMPDEST PUSH2 0x1171 DUP2 PUSH2 0x115C JUMP JUMPDEST DUP3 MSTORE POP POP JUMP JUMPDEST PUSH0 PUSH1 0x20 DUP3 ADD SWAP1 POP PUSH2 0x118A PUSH0 DUP4 ADD DUP5 PUSH2 0x1168 JUMP JUMPDEST SWAP3 SWAP2 POP POP JUMP JUMPDEST PUSH2 0x1199 DUP2 PUSH2 0x1005 JUMP JUMPDEST DUP3 MSTORE POP POP JUMP JUMPDEST PUSH0 PUSH1 0x20 DUP3 ADD SWAP1 POP PUSH2 0x11B2 PUSH0 DUP4 ADD DUP5 PUSH2 0x1190 JUMP JUMPDEST SWAP3 SWAP2 POP POP JUMP JUMPDEST PUSH0 PUSH1 0x20 DUP3 DUP5 SUB SLT ISZERO PUSH2 0x11CD JUMPI PUSH2 0x11CC PUSH2 0xFE2 JUMP JUMPDEST JUMPDEST PUSH0 PUSH2 0x11DA DUP5 DUP3 DUP6 ADD PUSH2 0x105F JUMP JUMPDEST SWAP2 POP POP SWAP3 SWAP2 POP POP JUMP JUMPDEST PUSH0 PUSH1 0x20 DUP3 DUP5 SUB SLT ISZERO PUSH2 0x11F8 JUMPI PUSH2 0x11F7 PUSH2 0xFE2 JUMP JUMPDEST JUMPDEST PUSH0 PUSH2 0x1205 DUP5 DUP3 DUP6 ADD PUSH2 0x102C JUMP JUMPDEST SWAP2 POP POP SWAP3 SWAP2 POP POP JUMP JUMPDEST PUSH0 PUSH0 PUSH1 0x40 DUP4 DUP6 SUB SLT ISZERO PUSH2 0x1224 JUMPI PUSH2 0x1223 PUSH2 0xFE2 JUMP JUMPDEST JUMPDEST PUSH0 PUSH2 0x1231 DUP6 DUP3 DUP7 ADD PUSH2 0x102C JUMP JUMPDEST SWAP3 POP POP PUSH1 0x20 PUSH2 0x1242 DUP6 DUP3 DUP7 ADD PUSH2 0x102C JUMP JUMPDEST SWAP2 POP POP SWAP3 POP SWAP3 SWAP1 POP JUMP JUMPDEST PUSH32 0x4E487B7100000000000000000000000000000000000000000000000000000000 PUSH0 MSTORE PUSH1 0x22 PUSH1 0x4 MSTORE PUSH1 0x24 PUSH0 REVERT JUMPDEST PUSH0 PUSH1 0x2 DUP3 DIV SWAP1 POP PUSH1 0x1 DUP3 AND DUP1 PUSH2 0x1290 JUMPI PUSH1 0x7F DUP3 AND SWAP2 POP JUMPDEST PUSH1 0x20 DUP3 LT DUP2 SUB PUSH2 0x12A3 JUMPI PUSH2 0x12A2 PUSH2 0x124C JUMP JUMPDEST JUMPDEST POP SWAP2 SWAP1 POP JUMP JUMPDEST PUSH32 0x45524332303A207472616E7366657220616D6F756E7420657863656564732061 PUSH0 DUP3 ADD MSTORE PUSH32 0x6C6C6F77616E6365000000000000000000000000000000000000000000000000 PUSH1 0x20 DUP3 ADD MSTORE POP JUMP JUMPDEST PUSH0 PUSH2 0x1303 PUSH1 0x28 DUP4 PUSH2 0xF5C JUMP JUMPDEST SWAP2 POP PUSH2 0x130E DUP3 PUSH2 0x12A9 JUMP JUMPDEST PUSH1 0x40 DUP3 ADD SWAP1 POP SWAP2 SWAP1 POP JUMP JUMPDEST PUSH0 PUSH1 0x20 DUP3 ADD SWAP1 POP DUP2 DUP2 SUB PUSH0 DUP4 ADD MSTORE PUSH2 0x1330 DUP2 PUSH2 0x12F7 JUMP JUMPDEST SWAP1 POP SWAP2 SWAP1 POP JUMP JUMPDEST PUSH32 0x4E487B7100000000000000000000000000000000000000000000000000000000 PUSH0 MSTORE PUSH1 0x11 PUSH1 0x4 MSTORE PUSH1 0x24 PUSH0 REVERT JUMPDEST PUSH0 PUSH2 0x136E DUP3 PUSH2 0x1040 JUMP JUMPDEST SWAP2 POP PUSH2 0x1379 DUP4 PUSH2 0x1040 JUMP JUMPDEST SWAP3 POP DUP3 DUP3 SUB SWAP1 POP DUP2 DUP2 GT ISZERO PUSH2 0x1391 JUMPI PUSH2 0x1390 PUSH2 0x1337 JUMP JUMPDEST JUMPDEST SWAP3 SWAP2 POP POP JUMP JUMPDEST PUSH32 0x46656520746F6F20686967680000000000000000000000000000000000000000 PUSH0 DUP3 ADD MSTORE POP JUMP JUMPDEST PUSH0 PUSH2 0x13CB PUSH1 0xC DUP4 PUSH2 0xF5C JUMP JUMPDEST SWAP2 POP PUSH2 0x13D6 DUP3 PUSH2 0x1397 JUMP JUMPDEST PUSH1 0x20 DUP3 ADD SWAP1 POP SWAP2 SWAP1 POP JUMP JUMPDEST PUSH0 PUSH1 0x20 DUP3 ADD SWAP1 POP DUP2 DUP2 SUB PUSH0 DUP4 ADD MSTORE PUSH2 0x13F8 DUP2 PUSH2 0x13BF JUMP JUMPDEST SWAP1 POP SWAP2 SWAP1 POP JUMP JUMPDEST PUSH32 0x496E76616C69642066656520726563697069656E740000000000000000000000 PUSH0 DUP3 ADD MSTORE POP JUMP JUMPDEST PUSH0 PUSH2 0x1433 PUSH1 0x15 DUP4 PUSH2 0xF5C JUMP JUMPDEST SWAP2 POP PUSH2 0x143E DUP3 PUSH2 0x13FF JUMP JUMPDEST PUSH1 0x20 DUP3 ADD SWAP1 POP SWAP2 SWAP1 POP JUMP JUMPDEST PUSH0 PUSH1 0x20 DUP3 ADD SWAP1 POP DUP2 DUP2 SUB PUSH0 DUP4 ADD MSTORE PUSH2 0x1460 DUP2 PUSH2 0x1427 JUMP JUMPDEST SWAP1 POP SWAP2 SWAP1 POP JUMP JUMPDEST PUSH0 PUSH2 0x1471 DUP3 PUSH2 0x1040 JUMP JUMPDEST SWAP2 POP PUSH2 0x147C DUP4 PUSH2 0x1040 JUMP JUMPDEST SWAP3 POP DUP3 DUP3 MUL PUSH2 0x148A DUP2 PUSH2 0x1040 JUMP JUMPDEST SWAP2 POP DUP3 DUP3 DIV DUP5 EQ DUP4 ISZERO OR PUSH2 0x14A1 JUMPI PUSH2 0x14A0 PUSH2 0x1337 JUMP JUMPDEST JUMPDEST POP SWAP3 SWAP2 POP POP JUMP JUMPDEST PUSH32 0x4E487B7100000000000000000000000000000000000000000000000000000000 PUSH0 MSTORE PUSH1 0x12 PUSH1 0x4 MSTORE PUSH1 0x24 PUSH0 REVERT JUMPDEST PUSH0 PUSH2 0x14DF DUP3 PUSH2 0x1040 JUMP JUMPDEST SWAP2 POP PUSH2 0x14EA DUP4 PUSH2 0x1040 JUMP JUMPDEST SWAP3 POP DUP3 PUSH2 0x14FA JUMPI PUSH2 0x14F9 PUSH2 0x14A8 JUMP JUMPDEST JUMPDEST DUP3 DUP3 DIV SWAP1 POP SWAP3 SWAP2 POP POP JUMP JUMPDEST PUSH0 PUSH2 0x150F DUP3 PUSH2 0x1040 JUMP JUMPDEST SWAP2 POP PUSH2 0x151A DUP4 PUSH2 0x1040 JUMP JUMPDEST SWAP3 POP DUP3 DUP3 ADD SWAP1 POP DUP1 DUP3 GT ISZERO PUSH2 0x1532 JUMPI PUSH2 0x1531 PUSH2 0x1337 JUMP JUMPDEST JUMPDEST SWAP3 SWAP2 POP POP JUMP JUMPDEST PUSH0 PUSH1 0x60 DUP3 ADD SWAP1 POP PUSH2 0x154B PUSH0 DUP4 ADD DUP7 PUSH2 0x1190 JUMP JUMPDEST PUSH2 0x1558 PUSH1 0x20 DUP4 ADD DUP6 PUSH2 0x10E4 JUMP JUMPDEST PUSH2 0x1565 PUSH1 0x40 DUP4 ADD DUP5 PUSH2 0x10E4 JUMP JUMPDEST SWAP5 SWAP4 POP POP POP POP JUMP INVALID LOG2 PUSH5 0x6970667358 0x22 SLT KECCAK256 SHL CALLER SWAP7 0xD8 SWAP16 0xD0 ADDMOD MULMOD 0x2D 0xE2 0xC8 DUP2 0xB1 0xCF LOG4 0xC6 NUMBER SLT 0xBE 0xD6 AND SWAP6 STATICCALL STATICCALL EXTSTATICCALL RETURN PUSH5 0x330CE18A85 PUSH5 0x736F6C6343 STOP ADDMOD SAR STOP CALLER "
				},
				"gasEstimates": {
					"creation": {
						"codeDepositCost": "1107800",
						"executionCost": "infinite",
						"totalCost": "infinite"
					},
					"external": {
						"allowance(address,address)": "infinite",
						"approve(address,uint256)": "infinite",
						"balanceOf(address)": "2917",
						"decimals()": "361",
						"feePercentage()": "2514",
						"feeRecipient()": "2553",
						"name()": "infinite",
						"owner()": "2560",
						"renounceOwnership()": "infinite",
						"symbol()": "infinite",
						"totalSupply()": "2500",
						"transfer(address,uint256)": "infinite",
						"transferFrom(address,address,uint256)": "infinite",
						"transferOwnership(address)": "infinite",
						"updateFeePercentage(uint256)": "infinite",
						"updateFeeRecipient(address)": "infinite"
					},
					"internal": {
						"_transferWithFee(address,address,uint256)": "infinite"
					}
				},
				"methodIdentifiers": {
					"allowance(address,address)": "dd62ed3e",
					"approve(address,uint256)": "095ea7b3",
					"balanceOf(address)": "70a08231",
					"decimals()": "313ce567",
					"feePercentage()": "a001ecdd",
					"feeRecipient()": "46904840",
					"name()": "06fdde03",
					"owner()": "8da5cb5b",
					"renounceOwnership()": "715018a6",
					"symbol()": "95d89b41",
					"totalSupply()": "18160ddd",
					"transfer(address,uint256)": "a9059cbb",
					"transferFrom(address,address,uint256)": "23b872dd",
					"transferOwnership(address)": "f2fde38b",
					"updateFeePercentage(uint256)": "6cad3fb0",
					"updateFeeRecipient(address)": "f160d369"
				}
			},
			"storageLayout": {
				"storage": [
					{
						"astId": 307,
						"contract": "F/FairAIToken.sol:FairAIToken",
						"label": "_balances",
						"offset": 0,
						"slot": "0",
						"type": "t_mapping(t_address,t_uint256)"
					},
					{
						"astId": 313,
						"contract": "F/FairAIToken.sol:FairAIToken",
						"label": "_allowances",
						"offset": 0,
						"slot": "1",
						"type": "t_mapping(t_address,t_mapping(t_address,t_uint256))"
					},
					{
						"astId": 315,
						"contract": "F/FairAIToken.sol:FairAIToken",
						"label": "_totalSupply",
						"offset": 0,
						"slot": "2",
						"type": "t_uint256"
					},
					{
						"astId": 317,
						"contract": "F/FairAIToken.sol:FairAIToken",
						"label": "_name",
						"offset": 0,
						"slot": "3",
						"type": "t_string_storage"
					},
					{
						"astId": 319,
						"contract": "F/FairAIToken.sol:FairAIToken",
						"label": "_symbol",
						"offset": 0,
						"slot": "4",
						"type": "t_string_storage"
					},
					{
						"astId": 8,
						"contract": "F/FairAIToken.sol:FairAIToken",
						"label": "_owner",
						"offset": 0,
						"slot": "5",
						"type": "t_address"
					},
					{
						"astId": 944,
						"contract": "F/FairAIToken.sol:FairAIToken",
						"label": "feePercentage",
						"offset": 0,
						"slot": "6",
						"type": "t_uint256"
					},
					{
						"astId": 946,
						"contract": "F/FairAIToken.sol:FairAIToken",
						"label": "feeRecipient",
						"offset": 0,
						"slot": "7",
						"type": "t_address"
					}
				],
				"types": {
					"t_address": {
						"encoding": "inplace",
						"label": "address",
						"numberOfBytes": "20"
					},
					"t_mapping(t_address,t_mapping(t_address,t_uint256))": {
						"encoding": "mapping",
						"key": "t_address",
						"label": "mapping(address => mapping(address => uint256))",
						"numberOfBytes": "32",
						"value": "t_mapping(t_address,t_uint256)"
					},
					"t_mapping(t_address,t_uint256)": {
						"encoding": "mapping",
						"key": "t_address",
						"label": "mapping(address => uint256)",
						"numberOfBytes": "32",
						"value": "t_uint256"
					},
					"t_string_storage": {
						"encoding": "bytes",
						"label": "string",
						"numberOfBytes": "32"
					},
					"t_uint256": {
						"encoding": "inplace",
						"label": "uint256",
						"numberOfBytes": "32"
					}
				}
			},
			"userdoc": {
				"kind": "user",
				"methods": {},
				"version": 1
			}
		}
	}
}