{
	"L1/User-Verified Lower High Pattern.sol": {
		"UserLowerHigh": {
			"abi": [
				{
					"inputs": [
						{
							"internalType": "address",
							"name": "user",
							"type": "address"
						}
					],
					"name": "getLatestHigh",
					"outputs": [
						{
							"internalType": "uint256",
							"name": "",
							"type": "uint256"
						}
					],
					"stateMutability": "view",
					"type": "function"
				},
				{
					"inputs": [
						{
							"internalType": "address",
							"name": "",
							"type": "address"
						},
						{
							"internalType": "uint256",
							"name": "",
							"type": "uint256"
						}
					],
					"name": "highs",
					"outputs": [
						{
							"internalType": "uint256",
							"name": "",
							"type": "uint256"
						}
					],
					"stateMutability": "view",
					"type": "function"
				},
				{
					"inputs": [
						{
							"internalType": "uint256",
							"name": "newHigh",
							"type": "uint256"
						}
					],
					"name": "submitHigh",
					"outputs": [],
					"stateMutability": "nonpayable",
					"type": "function"
				}
			],
			"devdoc": {
				"kind": "dev",
				"methods": {},
				"version": 1
			},
			"evm": {
				"assembly": "    /* \"L1/User-Verified Lower High Pattern.sol\":0:512  contract UserLowerHigh {... */\n  mstore(0x40, 0x80)\n  callvalue\n  dup1\n  iszero\n  tag_1\n  jumpi\n  revert(0x00, 0x00)\ntag_1:\n  pop\n  dataSize(sub_0)\n  dup1\n  dataOffset(sub_0)\n  0x00\n  codecopy\n  0x00\n  return\nstop\n\nsub_0: assembly {\n        /* \"L1/User-Verified Lower High Pattern.sol\":0:512  contract UserLowerHigh {... */\n      mstore(0x40, 0x80)\n      callvalue\n      dup1\n      iszero\n      tag_1\n      jumpi\n      revert(0x00, 0x00)\n    tag_1:\n      pop\n      jumpi(tag_2, lt(calldatasize, 0x04))\n      shr(0xe0, calldataload(0x00))\n      dup1\n      0x7933b60e\n      eq\n      tag_3\n      jumpi\n      dup1\n      0x84ce3976\n      eq\n      tag_4\n      jumpi\n      dup1\n      0xd2b1b9d9\n      eq\n      tag_5\n      jumpi\n    tag_2:\n      revert(0x00, 0x00)\n        /* \"L1/User-Verified Lower High Pattern.sol\":78:335  function submitHigh(uint256 newHigh) external {... */\n    tag_3:\n      tag_6\n      0x04\n      dup1\n      calldatasize\n      sub\n      dup2\n      add\n      swap1\n      tag_7\n      swap2\n      swap1\n      tag_8\n      jump\t// in\n    tag_7:\n      tag_9\n      jump\t// in\n    tag_6:\n      stop\n        /* \"L1/User-Verified Lower High Pattern.sol\":29:71  mapping(address => uint256[]) public highs */\n    tag_4:\n      tag_10\n      0x04\n      dup1\n      calldatasize\n      sub\n      dup2\n      add\n      swap1\n      tag_11\n      swap2\n      swap1\n      tag_12\n      jump\t// in\n    tag_11:\n      tag_13\n      jump\t// in\n    tag_10:\n      mload(0x40)\n      tag_14\n      swap2\n      swap1\n      tag_15\n      jump\t// in\n    tag_14:\n      mload(0x40)\n      dup1\n      swap2\n      sub\n      swap1\n      return\n        /* \"L1/User-Verified Lower High Pattern.sol\":341:510  function getLatestHigh(address user) external view returns (uint256) {... */\n    tag_5:\n      tag_16\n      0x04\n      dup1\n      calldatasize\n      sub\n      dup2\n      add\n      swap1\n      tag_17\n      swap2\n      swap1\n      tag_18\n      jump\t// in\n    tag_17:\n      tag_19\n      jump\t// in\n    tag_16:\n      mload(0x40)\n      tag_20\n      swap2\n      swap1\n      tag_15\n      jump\t// in\n    tag_20:\n      mload(0x40)\n      dup1\n      swap2\n      sub\n      swap1\n      return\n        /* \"L1/User-Verified Lower High Pattern.sol\":78:335  function submitHigh(uint256 newHigh) external {... */\n    tag_9:\n        /* \"L1/User-Verified Lower High Pattern.sol\":134:145  uint256 len */\n      0x00\n        /* \"L1/User-Verified Lower High Pattern.sol\":148:153  highs */\n      0x00\n        /* \"L1/User-Verified Lower High Pattern.sol\":148:165  highs[msg.sender] */\n      0x00\n        /* \"L1/User-Verified Lower High Pattern.sol\":154:164  msg.sender */\n      caller\n        /* \"L1/User-Verified Lower High Pattern.sol\":148:165  highs[msg.sender] */\n      0xffffffffffffffffffffffffffffffffffffffff\n      and\n      0xffffffffffffffffffffffffffffffffffffffff\n      and\n      dup2\n      mstore\n      0x20\n      add\n      swap1\n      dup2\n      mstore\n      0x20\n      add\n      0x00\n      keccak256\n        /* \"L1/User-Verified Lower High Pattern.sol\":148:172  highs[msg.sender].length */\n      dup1\n      sload\n      swap1\n      pop\n        /* \"L1/User-Verified Lower High Pattern.sol\":134:172  uint256 len = highs[msg.sender].length */\n      swap1\n      pop\n        /* \"L1/User-Verified Lower High Pattern.sol\":194:195  1 */\n      0x01\n        /* \"L1/User-Verified Lower High Pattern.sol\":187:190  len */\n      dup2\n        /* \"L1/User-Verified Lower High Pattern.sol\":187:195  len >= 1 */\n      lt\n        /* \"L1/User-Verified Lower High Pattern.sol\":183:287  if (len >= 1) {... */\n      tag_22\n      jumpi\n        /* \"L1/User-Verified Lower High Pattern.sol\":229:234  highs */\n      0x00\n        /* \"L1/User-Verified Lower High Pattern.sol\":229:246  highs[msg.sender] */\n      0x00\n        /* \"L1/User-Verified Lower High Pattern.sol\":235:245  msg.sender */\n      caller\n        /* \"L1/User-Verified Lower High Pattern.sol\":229:246  highs[msg.sender] */\n      0xffffffffffffffffffffffffffffffffffffffff\n      and\n      0xffffffffffffffffffffffffffffffffffffffff\n      and\n      dup2\n      mstore\n      0x20\n      add\n      swap1\n      dup2\n      mstore\n      0x20\n      add\n      0x00\n      keccak256\n        /* \"L1/User-Verified Lower High Pattern.sol\":253:254  1 */\n      0x01\n        /* \"L1/User-Verified Lower High Pattern.sol\":247:250  len */\n      dup3\n        /* \"L1/User-Verified Lower High Pattern.sol\":247:254  len - 1 */\n      tag_23\n      swap2\n      swap1\n      tag_24\n      jump\t// in\n    tag_23:\n        /* \"L1/User-Verified Lower High Pattern.sol\":229:255  highs[msg.sender][len - 1] */\n      dup2\n      sload\n      dup2\n      lt\n      tag_25\n      jumpi\n      tag_26\n      tag_27\n      jump\t// in\n    tag_26:\n    tag_25:\n      swap1\n      0x00\n      mstore\n      keccak256(0x00, 0x20)\n      add\n      sload\n        /* \"L1/User-Verified Lower High Pattern.sol\":219:226  newHigh */\n      dup3\n        /* \"L1/User-Verified Lower High Pattern.sol\":219:255  newHigh < highs[msg.sender][len - 1] */\n      lt\n        /* \"L1/User-Verified Lower High Pattern.sol\":211:276  require(newHigh < highs[msg.sender][len - 1], \"Not a lower high\") */\n      tag_29\n      jumpi\n      mload(0x40)\n      0x08c379a000000000000000000000000000000000000000000000000000000000\n      dup2\n      mstore\n      0x04\n      add\n      tag_30\n      swap1\n      tag_31\n      jump\t// in\n    tag_30:\n      mload(0x40)\n      dup1\n      swap2\n      sub\n      swap1\n      revert\n    tag_29:\n        /* \"L1/User-Verified Lower High Pattern.sol\":183:287  if (len >= 1) {... */\n    tag_22:\n        /* \"L1/User-Verified Lower High Pattern.sol\":297:302  highs */\n      0x00\n        /* \"L1/User-Verified Lower High Pattern.sol\":297:314  highs[msg.sender] */\n      0x00\n        /* \"L1/User-Verified Lower High Pattern.sol\":303:313  msg.sender */\n      caller\n        /* \"L1/User-Verified Lower High Pattern.sol\":297:314  highs[msg.sender] */\n      0xffffffffffffffffffffffffffffffffffffffff\n      and\n      0xffffffffffffffffffffffffffffffffffffffff\n      and\n      dup2\n      mstore\n      0x20\n      add\n      swap1\n      dup2\n      mstore\n      0x20\n      add\n      0x00\n      keccak256\n        /* \"L1/User-Verified Lower High Pattern.sol\":320:327  newHigh */\n      dup3\n        /* \"L1/User-Verified Lower High Pattern.sol\":297:328  highs[msg.sender].push(newHigh) */\n      swap1\n      dup1\n      0x01\n      dup2\n      sload\n      add\n      dup1\n      dup3\n      sstore\n      dup1\n      swap2\n      pop\n      pop\n      0x01\n      swap1\n      sub\n      swap1\n      0x00\n      mstore\n      keccak256(0x00, 0x20)\n      add\n      0x00\n      swap1\n      swap2\n      swap1\n      swap2\n      swap1\n      swap2\n      pop\n      sstore\n        /* \"L1/User-Verified Lower High Pattern.sol\":124:335  {... */\n      pop\n        /* \"L1/User-Verified Lower High Pattern.sol\":78:335  function submitHigh(uint256 newHigh) external {... */\n      pop\n      jump\t// out\n        /* \"L1/User-Verified Lower High Pattern.sol\":29:71  mapping(address => uint256[]) public highs */\n    tag_13:\n      mstore(0x20, 0x00)\n      dup2\n      0x00\n      mstore\n      keccak256(0x00, 0x40)\n      dup2\n      dup2\n      sload\n      dup2\n      lt\n      tag_33\n      jumpi\n      0x00\n      dup1\n      revert\n    tag_33:\n      swap1\n      0x00\n      mstore\n      keccak256(0x00, 0x20)\n      add\n      0x00\n      swap2\n      pop\n      swap2\n      pop\n      pop\n      sload\n      dup2\n      jump\t// out\n        /* \"L1/User-Verified Lower High Pattern.sol\":341:510  function getLatestHigh(address user) external view returns (uint256) {... */\n    tag_19:\n        /* \"L1/User-Verified Lower High Pattern.sol\":401:408  uint256 */\n      0x00\n        /* \"L1/User-Verified Lower High Pattern.sol\":420:431  uint256 len */\n      0x00\n        /* \"L1/User-Verified Lower High Pattern.sol\":434:439  highs */\n      0x00\n        /* \"L1/User-Verified Lower High Pattern.sol\":434:445  highs[user] */\n      0x00\n        /* \"L1/User-Verified Lower High Pattern.sol\":440:444  user */\n      dup5\n        /* \"L1/User-Verified Lower High Pattern.sol\":434:445  highs[user] */\n      0xffffffffffffffffffffffffffffffffffffffff\n      and\n      0xffffffffffffffffffffffffffffffffffffffff\n      and\n      dup2\n      mstore\n      0x20\n      add\n      swap1\n      dup2\n      mstore\n      0x20\n      add\n      0x00\n      keccak256\n        /* \"L1/User-Verified Lower High Pattern.sol\":434:452  highs[user].length */\n      dup1\n      sload\n      swap1\n      pop\n        /* \"L1/User-Verified Lower High Pattern.sol\":420:452  uint256 len = highs[user].length */\n      swap1\n      pop\n        /* \"L1/User-Verified Lower High Pattern.sol\":475:476  0 */\n      0x00\n        /* \"L1/User-Verified Lower High Pattern.sol\":469:472  len */\n      dup2\n        /* \"L1/User-Verified Lower High Pattern.sol\":469:476  len > 0 */\n      gt\n        /* \"L1/User-Verified Lower High Pattern.sol\":469:503  len > 0 ? highs[user][len - 1] : 0 */\n      tag_36\n      jumpi\n        /* \"L1/User-Verified Lower High Pattern.sol\":502:503  0 */\n      0x00\n        /* \"L1/User-Verified Lower High Pattern.sol\":469:503  len > 0 ? highs[user][len - 1] : 0 */\n      jump(tag_37)\n    tag_36:\n        /* \"L1/User-Verified Lower High Pattern.sol\":479:484  highs */\n      0x00\n        /* \"L1/User-Verified Lower High Pattern.sol\":479:490  highs[user] */\n      0x00\n        /* \"L1/User-Verified Lower High Pattern.sol\":485:489  user */\n      dup5\n        /* \"L1/User-Verified Lower High Pattern.sol\":479:490  highs[user] */\n      0xffffffffffffffffffffffffffffffffffffffff\n      and\n      0xffffffffffffffffffffffffffffffffffffffff\n      and\n      dup2\n      mstore\n      0x20\n      add\n      swap1\n      dup2\n      mstore\n      0x20\n      add\n      0x00\n      keccak256\n        /* \"L1/User-Verified Lower High Pattern.sol\":497:498  1 */\n      0x01\n        /* \"L1/User-Verified Lower High Pattern.sol\":491:494  len */\n      dup3\n        /* \"L1/User-Verified Lower High Pattern.sol\":491:498  len - 1 */\n      tag_38\n      swap2\n      swap1\n      tag_24\n      jump\t// in\n    tag_38:\n        /* \"L1/User-Verified Lower High Pattern.sol\":479:499  highs[user][len - 1] */\n      dup2\n      sload\n      dup2\n      lt\n      tag_39\n      jumpi\n      tag_40\n      tag_27\n      jump\t// in\n    tag_40:\n    tag_39:\n      swap1\n      0x00\n      mstore\n      keccak256(0x00, 0x20)\n      add\n      sload\n        /* \"L1/User-Verified Lower High Pattern.sol\":469:503  len > 0 ? highs[user][len - 1] : 0 */\n    tag_37:\n        /* \"L1/User-Verified Lower High Pattern.sol\":462:503  return len > 0 ? highs[user][len - 1] : 0 */\n      swap2\n      pop\n      pop\n        /* \"L1/User-Verified Lower High Pattern.sol\":341:510  function getLatestHigh(address user) external view returns (uint256) {... */\n      swap2\n      swap1\n      pop\n      jump\t// out\n        /* \"#utility.yul\":88:205   */\n    tag_43:\n        /* \"#utility.yul\":197:198   */\n      0x00\n        /* \"#utility.yul\":194:195   */\n      0x00\n        /* \"#utility.yul\":187:199   */\n      revert\n        /* \"#utility.yul\":334:411   */\n    tag_45:\n        /* \"#utility.yul\":371:378   */\n      0x00\n        /* \"#utility.yul\":400:405   */\n      dup2\n        /* \"#utility.yul\":389:405   */\n      swap1\n      pop\n        /* \"#utility.yul\":334:411   */\n      swap2\n      swap1\n      pop\n      jump\t// out\n        /* \"#utility.yul\":417:539   */\n    tag_46:\n        /* \"#utility.yul\":490:514   */\n      tag_63\n        /* \"#utility.yul\":508:513   */\n      dup2\n        /* \"#utility.yul\":490:514   */\n      tag_45\n      jump\t// in\n    tag_63:\n        /* \"#utility.yul\":483:488   */\n      dup2\n        /* \"#utility.yul\":480:515   */\n      eq\n        /* \"#utility.yul\":470:533   */\n      tag_64\n      jumpi\n        /* \"#utility.yul\":529:530   */\n      0x00\n        /* \"#utility.yul\":526:527   */\n      0x00\n        /* \"#utility.yul\":519:531   */\n      revert\n        /* \"#utility.yul\":470:533   */\n    tag_64:\n        /* \"#utility.yul\":417:539   */\n      pop\n      jump\t// out\n        /* \"#utility.yul\":545:684   */\n    tag_47:\n        /* \"#utility.yul\":591:596   */\n      0x00\n        /* \"#utility.yul\":629:635   */\n      dup2\n        /* \"#utility.yul\":616:636   */\n      calldataload\n        /* \"#utility.yul\":607:636   */\n      swap1\n      pop\n        /* \"#utility.yul\":645:678   */\n      tag_66\n        /* \"#utility.yul\":672:677   */\n      dup2\n        /* \"#utility.yul\":645:678   */\n      tag_46\n      jump\t// in\n    tag_66:\n        /* \"#utility.yul\":545:684   */\n      swap3\n      swap2\n      pop\n      pop\n      jump\t// out\n        /* \"#utility.yul\":690:1019   */\n    tag_8:\n        /* \"#utility.yul\":749:755   */\n      0x00\n        /* \"#utility.yul\":798:800   */\n      0x20\n        /* \"#utility.yul\":786:795   */\n      dup3\n        /* \"#utility.yul\":777:784   */\n      dup5\n        /* \"#utility.yul\":773:796   */\n      sub\n        /* \"#utility.yul\":769:801   */\n      slt\n        /* \"#utility.yul\":766:885   */\n      iszero\n      tag_68\n      jumpi\n        /* \"#utility.yul\":804:883   */\n      tag_69\n      tag_43\n      jump\t// in\n    tag_69:\n        /* \"#utility.yul\":766:885   */\n    tag_68:\n        /* \"#utility.yul\":924:925   */\n      0x00\n        /* \"#utility.yul\":949:1002   */\n      tag_70\n        /* \"#utility.yul\":994:1001   */\n      dup5\n        /* \"#utility.yul\":985:991   */\n      dup3\n        /* \"#utility.yul\":974:983   */\n      dup6\n        /* \"#utility.yul\":970:992   */\n      add\n        /* \"#utility.yul\":949:1002   */\n      tag_47\n      jump\t// in\n    tag_70:\n        /* \"#utility.yul\":939:1002   */\n      swap2\n      pop\n        /* \"#utility.yul\":895:1012   */\n      pop\n        /* \"#utility.yul\":690:1019   */\n      swap3\n      swap2\n      pop\n      pop\n      jump\t// out\n        /* \"#utility.yul\":1025:1151   */\n    tag_48:\n        /* \"#utility.yul\":1062:1069   */\n      0x00\n        /* \"#utility.yul\":1102:1144   */\n      0xffffffffffffffffffffffffffffffffffffffff\n        /* \"#utility.yul\":1095:1100   */\n      dup3\n        /* \"#utility.yul\":1091:1145   */\n      and\n        /* \"#utility.yul\":1080:1145   */\n      swap1\n      pop\n        /* \"#utility.yul\":1025:1151   */\n      swap2\n      swap1\n      pop\n      jump\t// out\n        /* \"#utility.yul\":1157:1253   */\n    tag_49:\n        /* \"#utility.yul\":1194:1201   */\n      0x00\n        /* \"#utility.yul\":1223:1247   */\n      tag_73\n        /* \"#utility.yul\":1241:1246   */\n      dup3\n        /* \"#utility.yul\":1223:1247   */\n      tag_48\n      jump\t// in\n    tag_73:\n        /* \"#utility.yul\":1212:1247   */\n      swap1\n      pop\n        /* \"#utility.yul\":1157:1253   */\n      swap2\n      swap1\n      pop\n      jump\t// out\n        /* \"#utility.yul\":1259:1381   */\n    tag_50:\n        /* \"#utility.yul\":1332:1356   */\n      tag_75\n        /* \"#utility.yul\":1350:1355   */\n      dup2\n        /* \"#utility.yul\":1332:1356   */\n      tag_49\n      jump\t// in\n    tag_75:\n        /* \"#utility.yul\":1325:1330   */\n      dup2\n        /* \"#utility.yul\":1322:1357   */\n      eq\n        /* \"#utility.yul\":1312:1375   */\n      tag_76\n      jumpi\n        /* \"#utility.yul\":1371:1372   */\n      0x00\n        /* \"#utility.yul\":1368:1369   */\n      0x00\n        /* \"#utility.yul\":1361:1373   */\n      revert\n        /* \"#utility.yul\":1312:1375   */\n    tag_76:\n        /* \"#utility.yul\":1259:1381   */\n      pop\n      jump\t// out\n        /* \"#utility.yul\":1387:1526   */\n    tag_51:\n        /* \"#utility.yul\":1433:1438   */\n      0x00\n        /* \"#utility.yul\":1471:1477   */\n      dup2\n        /* \"#utility.yul\":1458:1478   */\n      calldataload\n        /* \"#utility.yul\":1449:1478   */\n      swap1\n      pop\n        /* \"#utility.yul\":1487:1520   */\n      tag_78\n        /* \"#utility.yul\":1514:1519   */\n      dup2\n        /* \"#utility.yul\":1487:1520   */\n      tag_50\n      jump\t// in\n    tag_78:\n        /* \"#utility.yul\":1387:1526   */\n      swap3\n      swap2\n      pop\n      pop\n      jump\t// out\n        /* \"#utility.yul\":1532:2006   */\n    tag_12:\n        /* \"#utility.yul\":1600:1606   */\n      0x00\n        /* \"#utility.yul\":1608:1614   */\n      0x00\n        /* \"#utility.yul\":1657:1659   */\n      0x40\n        /* \"#utility.yul\":1645:1654   */\n      dup4\n        /* \"#utility.yul\":1636:1643   */\n      dup6\n        /* \"#utility.yul\":1632:1655   */\n      sub\n        /* \"#utility.yul\":1628:1660   */\n      slt\n        /* \"#utility.yul\":1625:1744   */\n      iszero\n      tag_80\n      jumpi\n        /* \"#utility.yul\":1663:1742   */\n      tag_81\n      tag_43\n      jump\t// in\n    tag_81:\n        /* \"#utility.yul\":1625:1744   */\n    tag_80:\n        /* \"#utility.yul\":1783:1784   */\n      0x00\n        /* \"#utility.yul\":1808:1861   */\n      tag_82\n        /* \"#utility.yul\":1853:1860   */\n      dup6\n        /* \"#utility.yul\":1844:1850   */\n      dup3\n        /* \"#utility.yul\":1833:1842   */\n      dup7\n        /* \"#utility.yul\":1829:1851   */\n      add\n        /* \"#utility.yul\":1808:1861   */\n      tag_51\n      jump\t// in\n    tag_82:\n        /* \"#utility.yul\":1798:1861   */\n      swap3\n      pop\n        /* \"#utility.yul\":1754:1871   */\n      pop\n        /* \"#utility.yul\":1910:1912   */\n      0x20\n        /* \"#utility.yul\":1936:1989   */\n      tag_83\n        /* \"#utility.yul\":1981:1988   */\n      dup6\n        /* \"#utility.yul\":1972:1978   */\n      dup3\n        /* \"#utility.yul\":1961:1970   */\n      dup7\n        /* \"#utility.yul\":1957:1979   */\n      add\n        /* \"#utility.yul\":1936:1989   */\n      tag_47\n      jump\t// in\n    tag_83:\n        /* \"#utility.yul\":1926:1989   */\n      swap2\n      pop\n        /* \"#utility.yul\":1881:1999   */\n      pop\n        /* \"#utility.yul\":1532:2006   */\n      swap3\n      pop\n      swap3\n      swap1\n      pop\n      jump\t// out\n        /* \"#utility.yul\":2012:2130   */\n    tag_52:\n        /* \"#utility.yul\":2099:2123   */\n      tag_85\n        /* \"#utility.yul\":2117:2122   */\n      dup2\n        /* \"#utility.yul\":2099:2123   */\n      tag_45\n      jump\t// in\n    tag_85:\n        /* \"#utility.yul\":2094:2097   */\n      dup3\n        /* \"#utility.yul\":2087:2124   */\n      mstore\n        /* \"#utility.yul\":2012:2130   */\n      pop\n      pop\n      jump\t// out\n        /* \"#utility.yul\":2136:2358   */\n    tag_15:\n        /* \"#utility.yul\":2229:2233   */\n      0x00\n        /* \"#utility.yul\":2267:2269   */\n      0x20\n        /* \"#utility.yul\":2256:2265   */\n      dup3\n        /* \"#utility.yul\":2252:2270   */\n      add\n        /* \"#utility.yul\":2244:2270   */\n      swap1\n      pop\n        /* \"#utility.yul\":2280:2351   */\n      tag_87\n        /* \"#utility.yul\":2348:2349   */\n      0x00\n        /* \"#utility.yul\":2337:2346   */\n      dup4\n        /* \"#utility.yul\":2333:2350   */\n      add\n        /* \"#utility.yul\":2324:2330   */\n      dup5\n        /* \"#utility.yul\":2280:2351   */\n      tag_52\n      jump\t// in\n    tag_87:\n        /* \"#utility.yul\":2136:2358   */\n      swap3\n      swap2\n      pop\n      pop\n      jump\t// out\n        /* \"#utility.yul\":2364:2693   */\n    tag_18:\n        /* \"#utility.yul\":2423:2429   */\n      0x00\n        /* \"#utility.yul\":2472:2474   */\n      0x20\n        /* \"#utility.yul\":2460:2469   */\n      dup3\n        /* \"#utility.yul\":2451:2458   */\n      dup5\n        /* \"#utility.yul\":2447:2470   */\n      sub\n        /* \"#utility.yul\":2443:2475   */\n      slt\n        /* \"#utility.yul\":2440:2559   */\n      iszero\n      tag_89\n      jumpi\n        /* \"#utility.yul\":2478:2557   */\n      tag_90\n      tag_43\n      jump\t// in\n    tag_90:\n        /* \"#utility.yul\":2440:2559   */\n    tag_89:\n        /* \"#utility.yul\":2598:2599   */\n      0x00\n        /* \"#utility.yul\":2623:2676   */\n      tag_91\n        /* \"#utility.yul\":2668:2675   */\n      dup5\n        /* \"#utility.yul\":2659:2665   */\n      dup3\n        /* \"#utility.yul\":2648:2657   */\n      dup6\n        /* \"#utility.yul\":2644:2666   */\n      add\n        /* \"#utility.yul\":2623:2676   */\n      tag_51\n      jump\t// in\n    tag_91:\n        /* \"#utility.yul\":2613:2676   */\n      swap2\n      pop\n        /* \"#utility.yul\":2569:2686   */\n      pop\n        /* \"#utility.yul\":2364:2693   */\n      swap3\n      swap2\n      pop\n      pop\n      jump\t// out\n        /* \"#utility.yul\":2699:2879   */\n    tag_53:\n        /* \"#utility.yul\":2747:2824   */\n      0x4e487b7100000000000000000000000000000000000000000000000000000000\n        /* \"#utility.yul\":2744:2745   */\n      0x00\n        /* \"#utility.yul\":2737:2825   */\n      mstore\n        /* \"#utility.yul\":2844:2848   */\n      0x11\n        /* \"#utility.yul\":2841:2842   */\n      0x04\n        /* \"#utility.yul\":2834:2849   */\n      mstore\n        /* \"#utility.yul\":2868:2872   */\n      0x24\n        /* \"#utility.yul\":2865:2866   */\n      0x00\n        /* \"#utility.yul\":2858:2873   */\n      revert\n        /* \"#utility.yul\":2885:3079   */\n    tag_24:\n        /* \"#utility.yul\":2925:2929   */\n      0x00\n        /* \"#utility.yul\":2945:2965   */\n      tag_94\n        /* \"#utility.yul\":2963:2964   */\n      dup3\n        /* \"#utility.yul\":2945:2965   */\n      tag_45\n      jump\t// in\n    tag_94:\n        /* \"#utility.yul\":2940:2965   */\n      swap2\n      pop\n        /* \"#utility.yul\":2979:2999   */\n      tag_95\n        /* \"#utility.yul\":2997:2998   */\n      dup4\n        /* \"#utility.yul\":2979:2999   */\n      tag_45\n      jump\t// in\n    tag_95:\n        /* \"#utility.yul\":2974:2999   */\n      swap3\n      pop\n        /* \"#utility.yul\":3023:3024   */\n      dup3\n        /* \"#utility.yul\":3020:3021   */\n      dup3\n        /* \"#utility.yul\":3016:3025   */\n      sub\n        /* \"#utility.yul\":3008:3025   */\n      swap1\n      pop\n        /* \"#utility.yul\":3047:3048   */\n      dup2\n        /* \"#utility.yul\":3041:3045   */\n      dup2\n        /* \"#utility.yul\":3038:3049   */\n      gt\n        /* \"#utility.yul\":3035:3072   */\n      iszero\n      tag_96\n      jumpi\n        /* \"#utility.yul\":3052:3070   */\n      tag_97\n      tag_53\n      jump\t// in\n    tag_97:\n        /* \"#utility.yul\":3035:3072   */\n    tag_96:\n        /* \"#utility.yul\":2885:3079   */\n      swap3\n      swap2\n      pop\n      pop\n      jump\t// out\n        /* \"#utility.yul\":3085:3265   */\n    tag_27:\n        /* \"#utility.yul\":3133:3210   */\n      0x4e487b7100000000000000000000000000000000000000000000000000000000\n        /* \"#utility.yul\":3130:3131   */\n      0x00\n        /* \"#utility.yul\":3123:3211   */\n      mstore\n        /* \"#utility.yul\":3230:3234   */\n      0x32\n        /* \"#utility.yul\":3227:3228   */\n      0x04\n        /* \"#utility.yul\":3220:3235   */\n      mstore\n        /* \"#utility.yul\":3254:3258   */\n      0x24\n        /* \"#utility.yul\":3251:3252   */\n      0x00\n        /* \"#utility.yul\":3244:3259   */\n      revert\n        /* \"#utility.yul\":3271:3440   */\n    tag_54:\n        /* \"#utility.yul\":3355:3366   */\n      0x00\n        /* \"#utility.yul\":3389:3395   */\n      dup3\n        /* \"#utility.yul\":3384:3387   */\n      dup3\n        /* \"#utility.yul\":3377:3396   */\n      mstore\n        /* \"#utility.yul\":3429:3433   */\n      0x20\n        /* \"#utility.yul\":3424:3427   */\n      dup3\n        /* \"#utility.yul\":3420:3434   */\n      add\n        /* \"#utility.yul\":3405:3434   */\n      swap1\n      pop\n        /* \"#utility.yul\":3271:3440   */\n      swap3\n      swap2\n      pop\n      pop\n      jump\t// out\n        /* \"#utility.yul\":3446:3612   */\n    tag_55:\n        /* \"#utility.yul\":3586:3604   */\n      0x4e6f742061206c6f776572206869676800000000000000000000000000000000\n        /* \"#utility.yul\":3582:3583   */\n      0x00\n        /* \"#utility.yul\":3574:3580   */\n      dup3\n        /* \"#utility.yul\":3570:3584   */\n      add\n        /* \"#utility.yul\":3563:3605   */\n      mstore\n        /* \"#utility.yul\":3446:3612   */\n      pop\n      jump\t// out\n        /* \"#utility.yul\":3618:3984   */\n    tag_56:\n        /* \"#utility.yul\":3760:3763   */\n      0x00\n        /* \"#utility.yul\":3781:3848   */\n      tag_102\n        /* \"#utility.yul\":3845:3847   */\n      0x10\n        /* \"#utility.yul\":3840:3843   */\n      dup4\n        /* \"#utility.yul\":3781:3848   */\n      tag_54\n      jump\t// in\n    tag_102:\n        /* \"#utility.yul\":3774:3848   */\n      swap2\n      pop\n        /* \"#utility.yul\":3857:3950   */\n      tag_103\n        /* \"#utility.yul\":3946:3949   */\n      dup3\n        /* \"#utility.yul\":3857:3950   */\n      tag_55\n      jump\t// in\n    tag_103:\n        /* \"#utility.yul\":3975:3977   */\n      0x20\n        /* \"#utility.yul\":3970:3973   */\n      dup3\n        /* \"#utility.yul\":3966:3978   */\n      add\n        /* \"#utility.yul\":3959:3978   */\n      swap1\n      pop\n        /* \"#utility.yul\":3618:3984   */\n      swap2\n      swap1\n      pop\n      jump\t// out\n        /* \"#utility.yul\":3990:4409   */\n    tag_31:\n        /* \"#utility.yul\":4156:4160   */\n      0x00\n        /* \"#utility.yul\":4194:4196   */\n      0x20\n        /* \"#utility.yul\":4183:4192   */\n      dup3\n        /* \"#utility.yul\":4179:4197   */\n      add\n        /* \"#utility.yul\":4171:4197   */\n      swap1\n      pop\n        /* \"#utility.yul\":4243:4252   */\n      dup2\n        /* \"#utility.yul\":4237:4241   */\n      dup2\n        /* \"#utility.yul\":4233:4253   */\n      sub\n        /* \"#utility.yul\":4229:4230   */\n      0x00\n        /* \"#utility.yul\":4218:4227   */\n      dup4\n        /* \"#utility.yul\":4214:4231   */\n      add\n        /* \"#utility.yul\":4207:4254   */\n      mstore\n        /* \"#utility.yul\":4271:4402   */\n      tag_105\n        /* \"#utility.yul\":4397:4401   */\n      dup2\n        /* \"#utility.yul\":4271:4402   */\n      tag_56\n      jump\t// in\n    tag_105:\n        /* \"#utility.yul\":4263:4402   */\n      swap1\n      pop\n        /* \"#utility.yul\":3990:4409   */\n      swap2\n      swap1\n      pop\n      jump\t// out\n\n    auxdata: 0xa2646970667358221220577111627de42def69754d81bafd0c9fd1ff335c7a4529b92a5805b11284bba264736f6c634300081d0033\n}\n",
				"bytecode": {
					"linkReferences": {},
					"object": "6080604052348015600e575f5ffd5b506105828061001c5f395ff3fe608060405234801561000f575f5ffd5b506004361061003f575f3560e01c80637933b60e1461004357806384ce39761461005f578063d2b1b9d91461008f575b5f5ffd5b61005d60048036038101906100589190610331565b6100bf565b005b610079600480360381019061007491906103b6565b610213565b6040516100869190610403565b60405180910390f35b6100a960048036038101906100a4919061041c565b61023d565b6040516100b69190610403565b60405180910390f35b5f5f5f3373ffffffffffffffffffffffffffffffffffffffff1673ffffffffffffffffffffffffffffffffffffffff1681526020019081526020015f20805490509050600181106101af575f5f3373ffffffffffffffffffffffffffffffffffffffff1673ffffffffffffffffffffffffffffffffffffffff1681526020019081526020015f206001826101539190610474565b81548110610164576101636104a7565b5b905f5260205f20015482106101ae576040517f08c379a00000000000000000000000000000000000000000000000000000000081526004016101a59061052e565b60405180910390fd5b5b5f5f3373ffffffffffffffffffffffffffffffffffffffff1673ffffffffffffffffffffffffffffffffffffffff1681526020019081526020015f2082908060018154018082558091505060019003905f5260205f20015f90919091909150555050565b5f602052815f5260405f20818154811061022b575f80fd5b905f5260205f20015f91509150505481565b5f5f5f5f8473ffffffffffffffffffffffffffffffffffffffff1673ffffffffffffffffffffffffffffffffffffffff1681526020019081526020015f208054905090505f811161028e575f6102f2565b5f5f8473ffffffffffffffffffffffffffffffffffffffff1673ffffffffffffffffffffffffffffffffffffffff1681526020019081526020015f206001826102d79190610474565b815481106102e8576102e76104a7565b5b905f5260205f2001545b915050919050565b5f5ffd5b5f819050919050565b610310816102fe565b811461031a575f5ffd5b50565b5f8135905061032b81610307565b92915050565b5f60208284031215610346576103456102fa565b5b5f6103538482850161031d565b91505092915050565b5f73ffffffffffffffffffffffffffffffffffffffff82169050919050565b5f6103858261035c565b9050919050565b6103958161037b565b811461039f575f5ffd5b50565b5f813590506103b08161038c565b92915050565b5f5f604083850312156103cc576103cb6102fa565b5b5f6103d9858286016103a2565b92505060206103ea8582860161031d565b9150509250929050565b6103fd816102fe565b82525050565b5f6020820190506104165f8301846103f4565b92915050565b5f60208284031215610431576104306102fa565b5b5f61043e848285016103a2565b91505092915050565b7f4e487b71000000000000000000000000000000000000000000000000000000005f52601160045260245ffd5b5f61047e826102fe565b9150610489836102fe565b92508282039050818111156104a1576104a0610447565b5b92915050565b7f4e487b71000000000000000000000000000000000000000000000000000000005f52603260045260245ffd5b5f82825260208201905092915050565b7f4e6f742061206c6f7765722068696768000000000000000000000000000000005f82015250565b5f6105186010836104d4565b9150610523826104e4565b602082019050919050565b5f6020820190508181035f8301526105458161050c565b905091905056fea2646970667358221220577111627de42def69754d81bafd0c9fd1ff335c7a4529b92a5805b11284bba264736f6c634300081d0033",
					"opcodes": "PUSH1 0x80 PUSH1 0x40 MSTORE CALLVALUE DUP1 ISZERO PUSH1 0xE JUMPI PUSH0 PUSH0 REVERT JUMPDEST POP PUSH2 0x582 DUP1 PUSH2 0x1C PUSH0 CODECOPY PUSH0 RETURN INVALID PUSH1 0x80 PUSH1 0x40 MSTORE CALLVALUE DUP1 ISZERO PUSH2 0xF JUMPI PUSH0 PUSH0 REVERT JUMPDEST POP PUSH1 0x4 CALLDATASIZE LT PUSH2 0x3F JUMPI PUSH0 CALLDATALOAD PUSH1 0xE0 SHR DUP1 PUSH4 0x7933B60E EQ PUSH2 0x43 JUMPI DUP1 PUSH4 0x84CE3976 EQ PUSH2 0x5F JUMPI DUP1 PUSH4 0xD2B1B9D9 EQ PUSH2 0x8F JUMPI JUMPDEST PUSH0 PUSH0 REVERT JUMPDEST PUSH2 0x5D PUSH1 0x4 DUP1 CALLDATASIZE SUB DUP2 ADD SWAP1 PUSH2 0x58 SWAP2 SWAP1 PUSH2 0x331 JUMP JUMPDEST PUSH2 0xBF JUMP JUMPDEST STOP JUMPDEST PUSH2 0x79 PUSH1 0x4 DUP1 CALLDATASIZE SUB DUP2 ADD SWAP1 PUSH2 0x74 SWAP2 SWAP1 PUSH2 0x3B6 JUMP JUMPDEST PUSH2 0x213 JUMP JUMPDEST PUSH1 0x40 MLOAD PUSH2 0x86 SWAP2 SWAP1 PUSH2 0x403 JUMP JUMPDEST PUSH1 0x40 MLOAD DUP1 SWAP2 SUB SWAP1 RETURN JUMPDEST PUSH2 0xA9 PUSH1 0x4 DUP1 CALLDATASIZE SUB DUP2 ADD SWAP1 PUSH2 0xA4 SWAP2 SWAP1 PUSH2 0x41C JUMP JUMPDEST PUSH2 0x23D JUMP JUMPDEST PUSH1 0x40 MLOAD PUSH2 0xB6 SWAP2 SWAP1 PUSH2 0x403 JUMP JUMPDEST PUSH1 0x40 MLOAD DUP1 SWAP2 SUB SWAP1 RETURN JUMPDEST PUSH0 PUSH0 PUSH0 CALLER PUSH20 0xFFFFFFFFFFFFFFFFFFFFFFFFFFFFFFFFFFFFFFFF AND PUSH20 0xFFFFFFFFFFFFFFFFFFFFFFFFFFFFFFFFFFFFFFFF AND DUP2 MSTORE PUSH1 0x20 ADD SWAP1 DUP2 MSTORE PUSH1 0x20 ADD PUSH0 KECCAK256 DUP1 SLOAD SWAP1 POP SWAP1 POP PUSH1 0x1 DUP2 LT PUSH2 0x1AF JUMPI PUSH0 PUSH0 CALLER PUSH20 0xFFFFFFFFFFFFFFFFFFFFFFFFFFFFFFFFFFFFFFFF AND PUSH20 0xFFFFFFFFFFFFFFFFFFFFFFFFFFFFFFFFFFFFFFFF AND DUP2 MSTORE PUSH1 0x20 ADD SWAP1 DUP2 MSTORE PUSH1 0x20 ADD PUSH0 KECCAK256 PUSH1 0x1 DUP3 PUSH2 0x153 SWAP2 SWAP1 PUSH2 0x474 JUMP JUMPDEST DUP2 SLOAD DUP2 LT PUSH2 0x164 JUMPI PUSH2 0x163 PUSH2 0x4A7 JUMP JUMPDEST JUMPDEST SWAP1 PUSH0 MSTORE PUSH1 0x20 PUSH0 KECCAK256 ADD SLOAD DUP3 LT PUSH2 0x1AE JUMPI PUSH1 0x40 MLOAD PUSH32 0x8C379A000000000000000000000000000000000000000000000000000000000 DUP2 MSTORE PUSH1 0x4 ADD PUSH2 0x1A5 SWAP1 PUSH2 0x52E JUMP JUMPDEST PUSH1 0x40 MLOAD DUP1 SWAP2 SUB SWAP1 REVERT JUMPDEST JUMPDEST PUSH0 PUSH0 CALLER PUSH20 0xFFFFFFFFFFFFFFFFFFFFFFFFFFFFFFFFFFFFFFFF AND PUSH20 0xFFFFFFFFFFFFFFFFFFFFFFFFFFFFFFFFFFFFFFFF AND DUP2 MSTORE PUSH1 0x20 ADD SWAP1 DUP2 MSTORE PUSH1 0x20 ADD PUSH0 KECCAK256 DUP3 SWAP1 DUP1 PUSH1 0x1 DUP2 SLOAD ADD DUP1 DUP3 SSTORE DUP1 SWAP2 POP POP PUSH1 0x1 SWAP1 SUB SWAP1 PUSH0 MSTORE PUSH1 0x20 PUSH0 KECCAK256 ADD PUSH0 SWAP1 SWAP2 SWAP1 SWAP2 SWAP1 SWAP2 POP SSTORE POP POP JUMP JUMPDEST PUSH0 PUSH1 0x20 MSTORE DUP2 PUSH0 MSTORE PUSH1 0x40 PUSH0 KECCAK256 DUP2 DUP2 SLOAD DUP2 LT PUSH2 0x22B JUMPI PUSH0 DUP1 REVERT JUMPDEST SWAP1 PUSH0 MSTORE PUSH1 0x20 PUSH0 KECCAK256 ADD PUSH0 SWAP2 POP SWAP2 POP POP SLOAD DUP2 JUMP JUMPDEST PUSH0 PUSH0 PUSH0 PUSH0 DUP5 PUSH20 0xFFFFFFFFFFFFFFFFFFFFFFFFFFFFFFFFFFFFFFFF AND PUSH20 0xFFFFFFFFFFFFFFFFFFFFFFFFFFFFFFFFFFFFFFFF AND DUP2 MSTORE PUSH1 0x20 ADD SWAP1 DUP2 MSTORE PUSH1 0x20 ADD PUSH0 KECCAK256 DUP1 SLOAD SWAP1 POP SWAP1 POP PUSH0 DUP2 GT PUSH2 0x28E JUMPI PUSH0 PUSH2 0x2F2 JUMP JUMPDEST PUSH0 PUSH0 DUP5 PUSH20 0xFFFFFFFFFFFFFFFFFFFFFFFFFFFFFFFFFFFFFFFF AND PUSH20 0xFFFFFFFFFFFFFFFFFFFFFFFFFFFFFFFFFFFFFFFF AND DUP2 MSTORE PUSH1 0x20 ADD SWAP1 DUP2 MSTORE PUSH1 0x20 ADD PUSH0 KECCAK256 PUSH1 0x1 DUP3 PUSH2 0x2D7 SWAP2 SWAP1 PUSH2 0x474 JUMP JUMPDEST DUP2 SLOAD DUP2 LT PUSH2 0x2E8 JUMPI PUSH2 0x2E7 PUSH2 0x4A7 JUMP JUMPDEST JUMPDEST SWAP1 PUSH0 MSTORE PUSH1 0x20 PUSH0 KECCAK256 ADD SLOAD JUMPDEST SWAP2 POP POP SWAP2 SWAP1 POP JUMP JUMPDEST PUSH0 PUSH0 REVERT JUMPDEST PUSH0 DUP2 SWAP1 POP SWAP2 SWAP1 POP JUMP JUMPDEST PUSH2 0x310 DUP2 PUSH2 0x2FE JUMP JUMPDEST DUP2 EQ PUSH2 0x31A JUMPI PUSH0 PUSH0 REVERT JUMPDEST POP JUMP JUMPDEST PUSH0 DUP2 CALLDATALOAD SWAP1 POP PUSH2 0x32B DUP2 PUSH2 0x307 JUMP JUMPDEST SWAP3 SWAP2 POP POP JUMP JUMPDEST PUSH0 PUSH1 0x20 DUP3 DUP5 SUB SLT ISZERO PUSH2 0x346 JUMPI PUSH2 0x345 PUSH2 0x2FA JUMP JUMPDEST JUMPDEST PUSH0 PUSH2 0x353 DUP5 DUP3 DUP6 ADD PUSH2 0x31D JUMP JUMPDEST SWAP2 POP POP SWAP3 SWAP2 POP POP JUMP JUMPDEST PUSH0 PUSH20 0xFFFFFFFFFFFFFFFFFFFFFFFFFFFFFFFFFFFFFFFF DUP3 AND SWAP1 POP SWAP2 SWAP1 POP JUMP JUMPDEST PUSH0 PUSH2 0x385 DUP3 PUSH2 0x35C JUMP JUMPDEST SWAP1 POP SWAP2 SWAP1 POP JUMP JUMPDEST PUSH2 0x395 DUP2 PUSH2 0x37B JUMP JUMPDEST DUP2 EQ PUSH2 0x39F JUMPI PUSH0 PUSH0 REVERT JUMPDEST POP JUMP JUMPDEST PUSH0 DUP2 CALLDATALOAD SWAP1 POP PUSH2 0x3B0 DUP2 PUSH2 0x38C JUMP JUMPDEST SWAP3 SWAP2 POP POP JUMP JUMPDEST PUSH0 PUSH0 PUSH1 0x40 DUP4 DUP6 SUB SLT ISZERO PUSH2 0x3CC JUMPI PUSH2 0x3CB PUSH2 0x2FA JUMP JUMPDEST JUMPDEST PUSH0 PUSH2 0x3D9 DUP6 DUP3 DUP7 ADD PUSH2 0x3A2 JUMP JUMPDEST SWAP3 POP POP PUSH1 0x20 PUSH2 0x3EA DUP6 DUP3 DUP7 ADD PUSH2 0x31D JUMP JUMPDEST SWAP2 POP POP SWAP3 POP SWAP3 SWAP1 POP JUMP JUMPDEST PUSH2 0x3FD DUP2 PUSH2 0x2FE JUMP JUMPDEST DUP3 MSTORE POP POP JUMP JUMPDEST PUSH0 PUSH1 0x20 DUP3 ADD SWAP1 POP PUSH2 0x416 PUSH0 DUP4 ADD DUP5 PUSH2 0x3F4 JUMP JUMPDEST SWAP3 SWAP2 POP POP JUMP JUMPDEST PUSH0 PUSH1 0x20 DUP3 DUP5 SUB SLT ISZERO PUSH2 0x431 JUMPI PUSH2 0x430 PUSH2 0x2FA JUMP JUMPDEST JUMPDEST PUSH0 PUSH2 0x43E DUP5 DUP3 DUP6 ADD PUSH2 0x3A2 JUMP JUMPDEST SWAP2 POP POP SWAP3 SWAP2 POP POP JUMP JUMPDEST PUSH32 0x4E487B7100000000000000000000000000000000000000000000000000000000 PUSH0 MSTORE PUSH1 0x11 PUSH1 0x4 MSTORE PUSH1 0x24 PUSH0 REVERT JUMPDEST PUSH0 PUSH2 0x47E DUP3 PUSH2 0x2FE JUMP JUMPDEST SWAP2 POP PUSH2 0x489 DUP4 PUSH2 0x2FE JUMP JUMPDEST SWAP3 POP DUP3 DUP3 SUB SWAP1 POP DUP2 DUP2 GT ISZERO PUSH2 0x4A1 JUMPI PUSH2 0x4A0 PUSH2 0x447 JUMP JUMPDEST JUMPDEST SWAP3 SWAP2 POP POP JUMP JUMPDEST PUSH32 0x4E487B7100000000000000000000000000000000000000000000000000000000 PUSH0 MSTORE PUSH1 0x32 PUSH1 0x4 MSTORE PUSH1 0x24 PUSH0 REVERT JUMPDEST PUSH0 DUP3 DUP3 MSTORE PUSH1 0x20 DUP3 ADD SWAP1 POP SWAP3 SWAP2 POP POP JUMP JUMPDEST PUSH32 0x4E6F742061206C6F776572206869676800000000000000000000000000000000 PUSH0 DUP3 ADD MSTORE POP JUMP JUMPDEST PUSH0 PUSH2 0x518 PUSH1 0x10 DUP4 PUSH2 0x4D4 JUMP JUMPDEST SWAP2 POP PUSH2 0x523 DUP3 PUSH2 0x4E4 JUMP JUMPDEST PUSH1 0x20 DUP3 ADD SWAP1 POP SWAP2 SWAP1 POP JUMP JUMPDEST PUSH0 PUSH1 0x20 DUP3 ADD SWAP1 POP DUP2 DUP2 SUB PUSH0 DUP4 ADD MSTORE PUSH2 0x545 DUP2 PUSH2 0x50C JUMP JUMPDEST SWAP1 POP SWAP2 SWAP1 POP JUMP INVALID LOG2 PUSH5 0x6970667358 0x22 SLT KECCAK256 JUMPI PUSH18 0x11627DE42DEF69754D81BAFD0C9FD1FF335C PUSH27 0x4529B92A5805B11284BBA264736F6C634300081D00330000000000 "
				},
				"gasEstimates": {
					"creation": {
						"codeDepositCost": "282000",
						"executionCost": "322",
						"totalCost": "282322"
					},
					"external": {
						"getLatestHigh(address)": "infinite",
						"highs(address,uint256)": "infinite",
						"submitHigh(uint256)": "infinite"
					}
				},
				"methodIdentifiers": {
					"getLatestHigh(address)": "d2b1b9d9",
					"highs(address,uint256)": "84ce3976",
					"submitHigh(uint256)": "7933b60e"
				}
			},
			"storageLayout": {
				"storage": [
					{
						"astId": 5,
						"contract": "L1/User-Verified Lower High Pattern.sol:UserLowerHigh",
						"label": "highs",
						"offset": 0,
						"slot": "0",
						"type": "t_mapping(t_address,t_array(t_uint256)dyn_storage)"
					}
				],
				"types": {
					"t_address": {
						"encoding": "inplace",
						"label": "address",
						"numberOfBytes": "20"
					},
					"t_array(t_uint256)dyn_storage": {
						"base": "t_uint256",
						"encoding": "dynamic_array",
						"label": "uint256[]",
						"numberOfBytes": "32"
					},
					"t_mapping(t_address,t_array(t_uint256)dyn_storage)": {
						"encoding": "mapping",
						"key": "t_address",
						"label": "mapping(address => uint256[])",
						"numberOfBytes": "32",
						"value": "t_array(t_uint256)dyn_storage"
					},
					"t_uint256": {
						"encoding": "inplace",
						"label": "uint256",
						"numberOfBytes": "32"
					}
				}
			},
			"userdoc": {
				"kind": "user",
				"methods": {},
				"version": 1
			}
		}
	}
}