{
	"L1/Synthetic Long (Track Virtual Asset Price).sol": {
		"SyntheticLong": {
			"abi": [
				{
					"inputs": [
						{
							"internalType": "uint256",
							"name": "amount",
							"type": "uint256"
						}
					],
					"name": "mint",
					"outputs": [],
					"stateMutability": "payable",
					"type": "function"
				},
				{
					"inputs": [],
					"name": "price",
					"outputs": [
						{
							"internalType": "uint256",
							"name": "",
							"type": "uint256"
						}
					],
					"stateMutability": "view",
					"type": "function"
				},
				{
					"inputs": [],
					"name": "redeem",
					"outputs": [],
					"stateMutability": "nonpayable",
					"type": "function"
				},
				{
					"inputs": [
						{
							"internalType": "address",
							"name": "",
							"type": "address"
						}
					],
					"name": "synth",
					"outputs": [
						{
							"internalType": "uint256",
							"name": "",
							"type": "uint256"
						}
					],
					"stateMutability": "view",
					"type": "function"
				},
				{
					"inputs": [
						{
							"internalType": "uint256",
							"name": "newPrice",
							"type": "uint256"
						}
					],
					"name": "updatePrice",
					"outputs": [],
					"stateMutability": "nonpayable",
					"type": "function"
				},
				{
					"stateMutability": "payable",
					"type": "receive"
				}
			],
			"devdoc": {
				"kind": "dev",
				"methods": {},
				"version": 1
			},
			"evm": {
				"assembly": "    /* \"L1/Synthetic Long (Track Virtual Asset Price).sol\":0:624  contract SyntheticLong {... */\n  mstore(0x40, 0x80)\n    /* \"L1/Synthetic Long (Track Virtual Asset Price).sol\":98:108  2000 ether */\n  0x6c6b935b8bbd400000\n    /* \"L1/Synthetic Long (Track Virtual Asset Price).sol\":75:108  uint256 public price = 2000 ether */\n  0x01\n  sstore\n    /* \"L1/Synthetic Long (Track Virtual Asset Price).sol\":0:624  contract SyntheticLong {... */\n  callvalue\n  dup1\n  iszero\n  tag_1\n  jumpi\n  revert(0x00, 0x00)\ntag_1:\n  pop\n  dataSize(sub_0)\n  dup1\n  dataOffset(sub_0)\n  0x00\n  codecopy\n  0x00\n  return\nstop\n\nsub_0: assembly {\n        /* \"L1/Synthetic Long (Track Virtual Asset Price).sol\":0:624  contract SyntheticLong {... */\n      mstore(0x40, 0x80)\n      jumpi(tag_1, lt(calldatasize, 0x04))\n      shr(0xe0, calldataload(0x00))\n      dup1\n      0x59252669\n      eq\n      tag_3\n      jumpi\n      dup1\n      0x8d6cc56d\n      eq\n      tag_4\n      jumpi\n      dup1\n      0xa035b1fe\n      eq\n      tag_5\n      jumpi\n      dup1\n      0xa0712d68\n      eq\n      tag_6\n      jumpi\n      dup1\n      0xbe040fb0\n      eq\n      tag_7\n      jumpi\n      jump(tag_2)\n    tag_1:\n      jumpi(tag_2, calldatasize)\n      stop\n    tag_2:\n      revert(0x00, 0x00)\n        /* \"L1/Synthetic Long (Track Virtual Asset Price).sol\":29:69  mapping(address => uint256) public synth */\n    tag_3:\n      callvalue\n      dup1\n      iszero\n      tag_10\n      jumpi\n      revert(0x00, 0x00)\n    tag_10:\n      pop\n      tag_11\n      0x04\n      dup1\n      calldatasize\n      sub\n      dup2\n      add\n      swap1\n      tag_12\n      swap2\n      swap1\n      tag_13\n      jump\t// in\n    tag_12:\n      tag_14\n      jump\t// in\n    tag_11:\n      mload(0x40)\n      tag_15\n      swap2\n      swap1\n      tag_16\n      jump\t// in\n    tag_15:\n      mload(0x40)\n      dup1\n      swap2\n      sub\n      swap1\n      return\n        /* \"L1/Synthetic Long (Track Virtual Asset Price).sol\":267:348  function updatePrice(uint256 newPrice) external {... */\n    tag_4:\n      callvalue\n      dup1\n      iszero\n      tag_17\n      jumpi\n      revert(0x00, 0x00)\n    tag_17:\n      pop\n      tag_18\n      0x04\n      dup1\n      calldatasize\n      sub\n      dup2\n      add\n      swap1\n      tag_19\n      swap2\n      swap1\n      tag_20\n      jump\t// in\n    tag_19:\n      tag_21\n      jump\t// in\n    tag_18:\n      stop\n        /* \"L1/Synthetic Long (Track Virtual Asset Price).sol\":75:108  uint256 public price = 2000 ether */\n    tag_5:\n      callvalue\n      dup1\n      iszero\n      tag_22\n      jumpi\n      revert(0x00, 0x00)\n    tag_22:\n      pop\n      tag_23\n      tag_24\n      jump\t// in\n    tag_23:\n      mload(0x40)\n      tag_25\n      swap2\n      swap1\n      tag_16\n      jump\t// in\n    tag_25:\n      mload(0x40)\n      dup1\n      swap2\n      sub\n      swap1\n      return\n        /* \"L1/Synthetic Long (Track Virtual Asset Price).sol\":115:261  function mint(uint256 amount) external payable {... */\n    tag_6:\n      tag_26\n      0x04\n      dup1\n      calldatasize\n      sub\n      dup2\n      add\n      swap1\n      tag_27\n      swap2\n      swap1\n      tag_20\n      jump\t// in\n    tag_27:\n      tag_28\n      jump\t// in\n    tag_26:\n      stop\n        /* \"L1/Synthetic Long (Track Virtual Asset Price).sol\":354:587  function redeem() external {... */\n    tag_7:\n      callvalue\n      dup1\n      iszero\n      tag_29\n      jumpi\n      revert(0x00, 0x00)\n    tag_29:\n      pop\n      tag_30\n      tag_31\n      jump\t// in\n    tag_30:\n      stop\n        /* \"L1/Synthetic Long (Track Virtual Asset Price).sol\":29:69  mapping(address => uint256) public synth */\n    tag_14:\n      mstore(0x20, 0x00)\n      dup1\n      0x00\n      mstore\n      keccak256(0x00, 0x40)\n      0x00\n      swap2\n      pop\n      swap1\n      pop\n      sload\n      dup2\n      jump\t// out\n        /* \"L1/Synthetic Long (Track Virtual Asset Price).sol\":267:348  function updatePrice(uint256 newPrice) external {... */\n    tag_21:\n        /* \"L1/Synthetic Long (Track Virtual Asset Price).sol\":333:341  newPrice */\n      dup1\n        /* \"L1/Synthetic Long (Track Virtual Asset Price).sol\":325:330  price */\n      0x01\n        /* \"L1/Synthetic Long (Track Virtual Asset Price).sol\":325:341  price = newPrice */\n      dup2\n      swap1\n      sstore\n      pop\n        /* \"L1/Synthetic Long (Track Virtual Asset Price).sol\":267:348  function updatePrice(uint256 newPrice) external {... */\n      pop\n      jump\t// out\n        /* \"L1/Synthetic Long (Track Virtual Asset Price).sol\":75:108  uint256 public price = 2000 ether */\n    tag_24:\n      sload(0x01)\n      dup2\n      jump\t// out\n        /* \"L1/Synthetic Long (Track Virtual Asset Price).sol\":115:261  function mint(uint256 amount) external payable {... */\n    tag_28:\n        /* \"L1/Synthetic Long (Track Virtual Asset Price).sol\":193:199  amount */\n      dup1\n        /* \"L1/Synthetic Long (Track Virtual Asset Price).sol\":180:189  msg.value */\n      callvalue\n        /* \"L1/Synthetic Long (Track Virtual Asset Price).sol\":180:199  msg.value >= amount */\n      lt\n      iszero\n        /* \"L1/Synthetic Long (Track Virtual Asset Price).sol\":172:217  require(msg.value >= amount, \"Need more ETH\") */\n      tag_34\n      jumpi\n      mload(0x40)\n      0x08c379a000000000000000000000000000000000000000000000000000000000\n      dup2\n      mstore\n      0x04\n      add\n      tag_35\n      swap1\n      tag_36\n      jump\t// in\n    tag_35:\n      mload(0x40)\n      dup1\n      swap2\n      sub\n      swap1\n      revert\n    tag_34:\n        /* \"L1/Synthetic Long (Track Virtual Asset Price).sol\":248:254  amount */\n      dup1\n        /* \"L1/Synthetic Long (Track Virtual Asset Price).sol\":227:232  synth */\n      0x00\n        /* \"L1/Synthetic Long (Track Virtual Asset Price).sol\":227:244  synth[msg.sender] */\n      0x00\n        /* \"L1/Synthetic Long (Track Virtual Asset Price).sol\":233:243  msg.sender */\n      caller\n        /* \"L1/Synthetic Long (Track Virtual Asset Price).sol\":227:244  synth[msg.sender] */\n      0xffffffffffffffffffffffffffffffffffffffff\n      and\n      0xffffffffffffffffffffffffffffffffffffffff\n      and\n      dup2\n      mstore\n      0x20\n      add\n      swap1\n      dup2\n      mstore\n      0x20\n      add\n      0x00\n      keccak256\n      0x00\n        /* \"L1/Synthetic Long (Track Virtual Asset Price).sol\":227:254  synth[msg.sender] += amount */\n      dup3\n      dup3\n      sload\n      tag_37\n      swap2\n      swap1\n      tag_38\n      jump\t// in\n    tag_37:\n      swap3\n      pop\n      pop\n      dup2\n      swap1\n      sstore\n      pop\n        /* \"L1/Synthetic Long (Track Virtual Asset Price).sol\":115:261  function mint(uint256 amount) external payable {... */\n      pop\n      jump\t// out\n        /* \"L1/Synthetic Long (Track Virtual Asset Price).sol\":354:587  function redeem() external {... */\n    tag_31:\n        /* \"L1/Synthetic Long (Track Virtual Asset Price).sol\":391:402  uint256 amt */\n      0x00\n        /* \"L1/Synthetic Long (Track Virtual Asset Price).sol\":405:410  synth */\n      0x00\n        /* \"L1/Synthetic Long (Track Virtual Asset Price).sol\":405:422  synth[msg.sender] */\n      0x00\n        /* \"L1/Synthetic Long (Track Virtual Asset Price).sol\":411:421  msg.sender */\n      caller\n        /* \"L1/Synthetic Long (Track Virtual Asset Price).sol\":405:422  synth[msg.sender] */\n      0xffffffffffffffffffffffffffffffffffffffff\n      and\n      0xffffffffffffffffffffffffffffffffffffffff\n      and\n      dup2\n      mstore\n      0x20\n      add\n      swap1\n      dup2\n      mstore\n      0x20\n      add\n      0x00\n      keccak256\n      sload\n        /* \"L1/Synthetic Long (Track Virtual Asset Price).sol\":391:422  uint256 amt = synth[msg.sender] */\n      swap1\n      pop\n        /* \"L1/Synthetic Long (Track Virtual Asset Price).sol\":446:447  0 */\n      0x00\n        /* \"L1/Synthetic Long (Track Virtual Asset Price).sol\":440:443  amt */\n      dup2\n        /* \"L1/Synthetic Long (Track Virtual Asset Price).sol\":440:447  amt > 0 */\n      gt\n        /* \"L1/Synthetic Long (Track Virtual Asset Price).sol\":432:456  require(amt > 0, \"None\") */\n      tag_40\n      jumpi\n      mload(0x40)\n      0x08c379a000000000000000000000000000000000000000000000000000000000\n      dup2\n      mstore\n      0x04\n      add\n      tag_41\n      swap1\n      tag_42\n      jump\t// in\n    tag_41:\n      mload(0x40)\n      dup1\n      swap2\n      sub\n      swap1\n      revert\n    tag_40:\n        /* \"L1/Synthetic Long (Track Virtual Asset Price).sol\":486:487  0 */\n      0x00\n        /* \"L1/Synthetic Long (Track Virtual Asset Price).sol\":466:471  synth */\n      0x00\n        /* \"L1/Synthetic Long (Track Virtual Asset Price).sol\":466:483  synth[msg.sender] */\n      0x00\n        /* \"L1/Synthetic Long (Track Virtual Asset Price).sol\":472:482  msg.sender */\n      caller\n        /* \"L1/Synthetic Long (Track Virtual Asset Price).sol\":466:483  synth[msg.sender] */\n      0xffffffffffffffffffffffffffffffffffffffff\n      and\n      0xffffffffffffffffffffffffffffffffffffffff\n      and\n      dup2\n      mstore\n      0x20\n      add\n      swap1\n      dup2\n      mstore\n      0x20\n      add\n      0x00\n      keccak256\n        /* \"L1/Synthetic Long (Track Virtual Asset Price).sol\":466:487  synth[msg.sender] = 0 */\n      dup2\n      swap1\n      sstore\n      pop\n        /* \"L1/Synthetic Long (Track Virtual Asset Price).sol\":497:511  uint256 payout */\n      0x00\n        /* \"L1/Synthetic Long (Track Virtual Asset Price).sol\":530:534  1e18 */\n      0x0de0b6b3a7640000\n        /* \"L1/Synthetic Long (Track Virtual Asset Price).sol\":521:526  price */\n      sload(0x01)\n        /* \"L1/Synthetic Long (Track Virtual Asset Price).sol\":515:518  amt */\n      dup4\n        /* \"L1/Synthetic Long (Track Virtual Asset Price).sol\":515:526  amt * price */\n      tag_43\n      swap2\n      swap1\n      tag_44\n      jump\t// in\n    tag_43:\n        /* \"L1/Synthetic Long (Track Virtual Asset Price).sol\":514:534  (amt * price) / 1e18 */\n      tag_45\n      swap2\n      swap1\n      tag_46\n      jump\t// in\n    tag_45:\n        /* \"L1/Synthetic Long (Track Virtual Asset Price).sol\":497:534  uint256 payout = (amt * price) / 1e18 */\n      swap1\n      pop\n        /* \"L1/Synthetic Long (Track Virtual Asset Price).sol\":552:562  msg.sender */\n      caller\n        /* \"L1/Synthetic Long (Track Virtual Asset Price).sol\":544:572  payable(msg.sender).transfer */\n      0xffffffffffffffffffffffffffffffffffffffff\n      and\n        /* \"L1/Synthetic Long (Track Virtual Asset Price).sol\":544:580  payable(msg.sender).transfer(payout) */\n      0x08fc\n        /* \"L1/Synthetic Long (Track Virtual Asset Price).sol\":573:579  payout */\n      dup3\n        /* \"L1/Synthetic Long (Track Virtual Asset Price).sol\":544:580  payable(msg.sender).transfer(payout) */\n      swap1\n      dup2\n      iszero\n      mul\n      swap1\n      mload(0x40)\n      0x00\n      mload(0x40)\n      dup1\n      dup4\n      sub\n      dup2\n      dup6\n      dup9\n      dup9\n      call\n      swap4\n      pop\n      pop\n      pop\n      pop\n      iszero\n      dup1\n      iszero\n      tag_48\n      jumpi\n      returndatacopy(0x00, 0x00, returndatasize)\n      revert(0x00, returndatasize)\n    tag_48:\n      pop\n        /* \"L1/Synthetic Long (Track Virtual Asset Price).sol\":381:587  {... */\n      pop\n      pop\n        /* \"L1/Synthetic Long (Track Virtual Asset Price).sol\":354:587  function redeem() external {... */\n      jump\t// out\n        /* \"#utility.yul\":88:205   */\n    tag_50:\n        /* \"#utility.yul\":197:198   */\n      0x00\n        /* \"#utility.yul\":194:195   */\n      0x00\n        /* \"#utility.yul\":187:199   */\n      revert\n        /* \"#utility.yul\":334:460   */\n    tag_52:\n        /* \"#utility.yul\":371:378   */\n      0x00\n        /* \"#utility.yul\":411:453   */\n      0xffffffffffffffffffffffffffffffffffffffff\n        /* \"#utility.yul\":404:409   */\n      dup3\n        /* \"#utility.yul\":400:454   */\n      and\n        /* \"#utility.yul\":389:454   */\n      swap1\n      pop\n        /* \"#utility.yul\":334:460   */\n      swap2\n      swap1\n      pop\n      jump\t// out\n        /* \"#utility.yul\":466:562   */\n    tag_53:\n        /* \"#utility.yul\":503:510   */\n      0x00\n        /* \"#utility.yul\":532:556   */\n      tag_73\n        /* \"#utility.yul\":550:555   */\n      dup3\n        /* \"#utility.yul\":532:556   */\n      tag_52\n      jump\t// in\n    tag_73:\n        /* \"#utility.yul\":521:556   */\n      swap1\n      pop\n        /* \"#utility.yul\":466:562   */\n      swap2\n      swap1\n      pop\n      jump\t// out\n        /* \"#utility.yul\":568:690   */\n    tag_54:\n        /* \"#utility.yul\":641:665   */\n      tag_75\n        /* \"#utility.yul\":659:664   */\n      dup2\n        /* \"#utility.yul\":641:665   */\n      tag_53\n      jump\t// in\n    tag_75:\n        /* \"#utility.yul\":634:639   */\n      dup2\n        /* \"#utility.yul\":631:666   */\n      eq\n        /* \"#utility.yul\":621:684   */\n      tag_76\n      jumpi\n        /* \"#utility.yul\":680:681   */\n      0x00\n        /* \"#utility.yul\":677:678   */\n      0x00\n        /* \"#utility.yul\":670:682   */\n      revert\n        /* \"#utility.yul\":621:684   */\n    tag_76:\n        /* \"#utility.yul\":568:690   */\n      pop\n      jump\t// out\n        /* \"#utility.yul\":696:835   */\n    tag_55:\n        /* \"#utility.yul\":742:747   */\n      0x00\n        /* \"#utility.yul\":780:786   */\n      dup2\n        /* \"#utility.yul\":767:787   */\n      calldataload\n        /* \"#utility.yul\":758:787   */\n      swap1\n      pop\n        /* \"#utility.yul\":796:829   */\n      tag_78\n        /* \"#utility.yul\":823:828   */\n      dup2\n        /* \"#utility.yul\":796:829   */\n      tag_54\n      jump\t// in\n    tag_78:\n        /* \"#utility.yul\":696:835   */\n      swap3\n      swap2\n      pop\n      pop\n      jump\t// out\n        /* \"#utility.yul\":841:1170   */\n    tag_13:\n        /* \"#utility.yul\":900:906   */\n      0x00\n        /* \"#utility.yul\":949:951   */\n      0x20\n        /* \"#utility.yul\":937:946   */\n      dup3\n        /* \"#utility.yul\":928:935   */\n      dup5\n        /* \"#utility.yul\":924:947   */\n      sub\n        /* \"#utility.yul\":920:952   */\n      slt\n        /* \"#utility.yul\":917:1036   */\n      iszero\n      tag_80\n      jumpi\n        /* \"#utility.yul\":955:1034   */\n      tag_81\n      tag_50\n      jump\t// in\n    tag_81:\n        /* \"#utility.yul\":917:1036   */\n    tag_80:\n        /* \"#utility.yul\":1075:1076   */\n      0x00\n        /* \"#utility.yul\":1100:1153   */\n      tag_82\n        /* \"#utility.yul\":1145:1152   */\n      dup5\n        /* \"#utility.yul\":1136:1142   */\n      dup3\n        /* \"#utility.yul\":1125:1134   */\n      dup6\n        /* \"#utility.yul\":1121:1143   */\n      add\n        /* \"#utility.yul\":1100:1153   */\n      tag_55\n      jump\t// in\n    tag_82:\n        /* \"#utility.yul\":1090:1153   */\n      swap2\n      pop\n        /* \"#utility.yul\":1046:1163   */\n      pop\n        /* \"#utility.yul\":841:1170   */\n      swap3\n      swap2\n      pop\n      pop\n      jump\t// out\n        /* \"#utility.yul\":1176:1253   */\n    tag_56:\n        /* \"#utility.yul\":1213:1220   */\n      0x00\n        /* \"#utility.yul\":1242:1247   */\n      dup2\n        /* \"#utility.yul\":1231:1247   */\n      swap1\n      pop\n        /* \"#utility.yul\":1176:1253   */\n      swap2\n      swap1\n      pop\n      jump\t// out\n        /* \"#utility.yul\":1259:1377   */\n    tag_57:\n        /* \"#utility.yul\":1346:1370   */\n      tag_85\n        /* \"#utility.yul\":1364:1369   */\n      dup2\n        /* \"#utility.yul\":1346:1370   */\n      tag_56\n      jump\t// in\n    tag_85:\n        /* \"#utility.yul\":1341:1344   */\n      dup3\n        /* \"#utility.yul\":1334:1371   */\n      mstore\n        /* \"#utility.yul\":1259:1377   */\n      pop\n      pop\n      jump\t// out\n        /* \"#utility.yul\":1383:1605   */\n    tag_16:\n        /* \"#utility.yul\":1476:1480   */\n      0x00\n        /* \"#utility.yul\":1514:1516   */\n      0x20\n        /* \"#utility.yul\":1503:1512   */\n      dup3\n        /* \"#utility.yul\":1499:1517   */\n      add\n        /* \"#utility.yul\":1491:1517   */\n      swap1\n      pop\n        /* \"#utility.yul\":1527:1598   */\n      tag_87\n        /* \"#utility.yul\":1595:1596   */\n      0x00\n        /* \"#utility.yul\":1584:1593   */\n      dup4\n        /* \"#utility.yul\":1580:1597   */\n      add\n        /* \"#utility.yul\":1571:1577   */\n      dup5\n        /* \"#utility.yul\":1527:1598   */\n      tag_57\n      jump\t// in\n    tag_87:\n        /* \"#utility.yul\":1383:1605   */\n      swap3\n      swap2\n      pop\n      pop\n      jump\t// out\n        /* \"#utility.yul\":1611:1733   */\n    tag_58:\n        /* \"#utility.yul\":1684:1708   */\n      tag_89\n        /* \"#utility.yul\":1702:1707   */\n      dup2\n        /* \"#utility.yul\":1684:1708   */\n      tag_56\n      jump\t// in\n    tag_89:\n        /* \"#utility.yul\":1677:1682   */\n      dup2\n        /* \"#utility.yul\":1674:1709   */\n      eq\n        /* \"#utility.yul\":1664:1727   */\n      tag_90\n      jumpi\n        /* \"#utility.yul\":1723:1724   */\n      0x00\n        /* \"#utility.yul\":1720:1721   */\n      0x00\n        /* \"#utility.yul\":1713:1725   */\n      revert\n        /* \"#utility.yul\":1664:1727   */\n    tag_90:\n        /* \"#utility.yul\":1611:1733   */\n      pop\n      jump\t// out\n        /* \"#utility.yul\":1739:1878   */\n    tag_59:\n        /* \"#utility.yul\":1785:1790   */\n      0x00\n        /* \"#utility.yul\":1823:1829   */\n      dup2\n        /* \"#utility.yul\":1810:1830   */\n      calldataload\n        /* \"#utility.yul\":1801:1830   */\n      swap1\n      pop\n        /* \"#utility.yul\":1839:1872   */\n      tag_92\n        /* \"#utility.yul\":1866:1871   */\n      dup2\n        /* \"#utility.yul\":1839:1872   */\n      tag_58\n      jump\t// in\n    tag_92:\n        /* \"#utility.yul\":1739:1878   */\n      swap3\n      swap2\n      pop\n      pop\n      jump\t// out\n        /* \"#utility.yul\":1884:2213   */\n    tag_20:\n        /* \"#utility.yul\":1943:1949   */\n      0x00\n        /* \"#utility.yul\":1992:1994   */\n      0x20\n        /* \"#utility.yul\":1980:1989   */\n      dup3\n        /* \"#utility.yul\":1971:1978   */\n      dup5\n        /* \"#utility.yul\":1967:1990   */\n      sub\n        /* \"#utility.yul\":1963:1995   */\n      slt\n        /* \"#utility.yul\":1960:2079   */\n      iszero\n      tag_94\n      jumpi\n        /* \"#utility.yul\":1998:2077   */\n      tag_95\n      tag_50\n      jump\t// in\n    tag_95:\n        /* \"#utility.yul\":1960:2079   */\n    tag_94:\n        /* \"#utility.yul\":2118:2119   */\n      0x00\n        /* \"#utility.yul\":2143:2196   */\n      tag_96\n        /* \"#utility.yul\":2188:2195   */\n      dup5\n        /* \"#utility.yul\":2179:2185   */\n      dup3\n        /* \"#utility.yul\":2168:2177   */\n      dup6\n        /* \"#utility.yul\":2164:2186   */\n      add\n        /* \"#utility.yul\":2143:2196   */\n      tag_59\n      jump\t// in\n    tag_96:\n        /* \"#utility.yul\":2133:2196   */\n      swap2\n      pop\n        /* \"#utility.yul\":2089:2206   */\n      pop\n        /* \"#utility.yul\":1884:2213   */\n      swap3\n      swap2\n      pop\n      pop\n      jump\t// out\n        /* \"#utility.yul\":2219:2388   */\n    tag_60:\n        /* \"#utility.yul\":2303:2314   */\n      0x00\n        /* \"#utility.yul\":2337:2343   */\n      dup3\n        /* \"#utility.yul\":2332:2335   */\n      dup3\n        /* \"#utility.yul\":2325:2344   */\n      mstore\n        /* \"#utility.yul\":2377:2381   */\n      0x20\n        /* \"#utility.yul\":2372:2375   */\n      dup3\n        /* \"#utility.yul\":2368:2382   */\n      add\n        /* \"#utility.yul\":2353:2382   */\n      swap1\n      pop\n        /* \"#utility.yul\":2219:2388   */\n      swap3\n      swap2\n      pop\n      pop\n      jump\t// out\n        /* \"#utility.yul\":2394:2557   */\n    tag_61:\n        /* \"#utility.yul\":2534:2549   */\n      0x4e656564206d6f72652045544800000000000000000000000000000000000000\n        /* \"#utility.yul\":2530:2531   */\n      0x00\n        /* \"#utility.yul\":2522:2528   */\n      dup3\n        /* \"#utility.yul\":2518:2532   */\n      add\n        /* \"#utility.yul\":2511:2550   */\n      mstore\n        /* \"#utility.yul\":2394:2557   */\n      pop\n      jump\t// out\n        /* \"#utility.yul\":2563:2929   */\n    tag_62:\n        /* \"#utility.yul\":2705:2708   */\n      0x00\n        /* \"#utility.yul\":2726:2793   */\n      tag_100\n        /* \"#utility.yul\":2790:2792   */\n      0x0d\n        /* \"#utility.yul\":2785:2788   */\n      dup4\n        /* \"#utility.yul\":2726:2793   */\n      tag_60\n      jump\t// in\n    tag_100:\n        /* \"#utility.yul\":2719:2793   */\n      swap2\n      pop\n        /* \"#utility.yul\":2802:2895   */\n      tag_101\n        /* \"#utility.yul\":2891:2894   */\n      dup3\n        /* \"#utility.yul\":2802:2895   */\n      tag_61\n      jump\t// in\n    tag_101:\n        /* \"#utility.yul\":2920:2922   */\n      0x20\n        /* \"#utility.yul\":2915:2918   */\n      dup3\n        /* \"#utility.yul\":2911:2923   */\n      add\n        /* \"#utility.yul\":2904:2923   */\n      swap1\n      pop\n        /* \"#utility.yul\":2563:2929   */\n      swap2\n      swap1\n      pop\n      jump\t// out\n        /* \"#utility.yul\":2935:3354   */\n    tag_36:\n        /* \"#utility.yul\":3101:3105   */\n      0x00\n        /* \"#utility.yul\":3139:3141   */\n      0x20\n        /* \"#utility.yul\":3128:3137   */\n      dup3\n        /* \"#utility.yul\":3124:3142   */\n      add\n        /* \"#utility.yul\":3116:3142   */\n      swap1\n      pop\n        /* \"#utility.yul\":3188:3197   */\n      dup2\n        /* \"#utility.yul\":3182:3186   */\n      dup2\n        /* \"#utility.yul\":3178:3198   */\n      sub\n        /* \"#utility.yul\":3174:3175   */\n      0x00\n        /* \"#utility.yul\":3163:3172   */\n      dup4\n        /* \"#utility.yul\":3159:3176   */\n      add\n        /* \"#utility.yul\":3152:3199   */\n      mstore\n        /* \"#utility.yul\":3216:3347   */\n      tag_103\n        /* \"#utility.yul\":3342:3346   */\n      dup2\n        /* \"#utility.yul\":3216:3347   */\n      tag_62\n      jump\t// in\n    tag_103:\n        /* \"#utility.yul\":3208:3347   */\n      swap1\n      pop\n        /* \"#utility.yul\":2935:3354   */\n      swap2\n      swap1\n      pop\n      jump\t// out\n        /* \"#utility.yul\":3360:3540   */\n    tag_63:\n        /* \"#utility.yul\":3408:3485   */\n      0x4e487b7100000000000000000000000000000000000000000000000000000000\n        /* \"#utility.yul\":3405:3406   */\n      0x00\n        /* \"#utility.yul\":3398:3486   */\n      mstore\n        /* \"#utility.yul\":3505:3509   */\n      0x11\n        /* \"#utility.yul\":3502:3503   */\n      0x04\n        /* \"#utility.yul\":3495:3510   */\n      mstore\n        /* \"#utility.yul\":3529:3533   */\n      0x24\n        /* \"#utility.yul\":3526:3527   */\n      0x00\n        /* \"#utility.yul\":3519:3534   */\n      revert\n        /* \"#utility.yul\":3546:3737   */\n    tag_38:\n        /* \"#utility.yul\":3586:3589   */\n      0x00\n        /* \"#utility.yul\":3605:3625   */\n      tag_106\n        /* \"#utility.yul\":3623:3624   */\n      dup3\n        /* \"#utility.yul\":3605:3625   */\n      tag_56\n      jump\t// in\n    tag_106:\n        /* \"#utility.yul\":3600:3625   */\n      swap2\n      pop\n        /* \"#utility.yul\":3639:3659   */\n      tag_107\n        /* \"#utility.yul\":3657:3658   */\n      dup4\n        /* \"#utility.yul\":3639:3659   */\n      tag_56\n      jump\t// in\n    tag_107:\n        /* \"#utility.yul\":3634:3659   */\n      swap3\n      pop\n        /* \"#utility.yul\":3682:3683   */\n      dup3\n        /* \"#utility.yul\":3679:3680   */\n      dup3\n        /* \"#utility.yul\":3675:3684   */\n      add\n        /* \"#utility.yul\":3668:3684   */\n      swap1\n      pop\n        /* \"#utility.yul\":3703:3706   */\n      dup1\n        /* \"#utility.yul\":3700:3701   */\n      dup3\n        /* \"#utility.yul\":3697:3707   */\n      gt\n        /* \"#utility.yul\":3694:3730   */\n      iszero\n      tag_108\n      jumpi\n        /* \"#utility.yul\":3710:3728   */\n      tag_109\n      tag_63\n      jump\t// in\n    tag_109:\n        /* \"#utility.yul\":3694:3730   */\n    tag_108:\n        /* \"#utility.yul\":3546:3737   */\n      swap3\n      swap2\n      pop\n      pop\n      jump\t// out\n        /* \"#utility.yul\":3743:3897   */\n    tag_64:\n        /* \"#utility.yul\":3883:3889   */\n      0x4e6f6e6500000000000000000000000000000000000000000000000000000000\n        /* \"#utility.yul\":3879:3880   */\n      0x00\n        /* \"#utility.yul\":3871:3877   */\n      dup3\n        /* \"#utility.yul\":3867:3881   */\n      add\n        /* \"#utility.yul\":3860:3890   */\n      mstore\n        /* \"#utility.yul\":3743:3897   */\n      pop\n      jump\t// out\n        /* \"#utility.yul\":3903:4268   */\n    tag_65:\n        /* \"#utility.yul\":4045:4048   */\n      0x00\n        /* \"#utility.yul\":4066:4132   */\n      tag_112\n        /* \"#utility.yul\":4130:4131   */\n      0x04\n        /* \"#utility.yul\":4125:4128   */\n      dup4\n        /* \"#utility.yul\":4066:4132   */\n      tag_60\n      jump\t// in\n    tag_112:\n        /* \"#utility.yul\":4059:4132   */\n      swap2\n      pop\n        /* \"#utility.yul\":4141:4234   */\n      tag_113\n        /* \"#utility.yul\":4230:4233   */\n      dup3\n        /* \"#utility.yul\":4141:4234   */\n      tag_64\n      jump\t// in\n    tag_113:\n        /* \"#utility.yul\":4259:4261   */\n      0x20\n        /* \"#utility.yul\":4254:4257   */\n      dup3\n        /* \"#utility.yul\":4250:4262   */\n      add\n        /* \"#utility.yul\":4243:4262   */\n      swap1\n      pop\n        /* \"#utility.yul\":3903:4268   */\n      swap2\n      swap1\n      pop\n      jump\t// out\n        /* \"#utility.yul\":4274:4693   */\n    tag_42:\n        /* \"#utility.yul\":4440:4444   */\n      0x00\n        /* \"#utility.yul\":4478:4480   */\n      0x20\n        /* \"#utility.yul\":4467:4476   */\n      dup3\n        /* \"#utility.yul\":4463:4481   */\n      add\n        /* \"#utility.yul\":4455:4481   */\n      swap1\n      pop\n        /* \"#utility.yul\":4527:4536   */\n      dup2\n        /* \"#utility.yul\":4521:4525   */\n      dup2\n        /* \"#utility.yul\":4517:4537   */\n      sub\n        /* \"#utility.yul\":4513:4514   */\n      0x00\n        /* \"#utility.yul\":4502:4511   */\n      dup4\n        /* \"#utility.yul\":4498:4515   */\n      add\n        /* \"#utility.yul\":4491:4538   */\n      mstore\n        /* \"#utility.yul\":4555:4686   */\n      tag_115\n        /* \"#utility.yul\":4681:4685   */\n      dup2\n        /* \"#utility.yul\":4555:4686   */\n      tag_65\n      jump\t// in\n    tag_115:\n        /* \"#utility.yul\":4547:4686   */\n      swap1\n      pop\n        /* \"#utility.yul\":4274:4693   */\n      swap2\n      swap1\n      pop\n      jump\t// out\n        /* \"#utility.yul\":4699:5109   */\n    tag_44:\n        /* \"#utility.yul\":4739:4746   */\n      0x00\n        /* \"#utility.yul\":4762:4782   */\n      tag_117\n        /* \"#utility.yul\":4780:4781   */\n      dup3\n        /* \"#utility.yul\":4762:4782   */\n      tag_56\n      jump\t// in\n    tag_117:\n        /* \"#utility.yul\":4757:4782   */\n      swap2\n      pop\n        /* \"#utility.yul\":4796:4816   */\n      tag_118\n        /* \"#utility.yul\":4814:4815   */\n      dup4\n        /* \"#utility.yul\":4796:4816   */\n      tag_56\n      jump\t// in\n    tag_118:\n        /* \"#utility.yul\":4791:4816   */\n      swap3\n      pop\n        /* \"#utility.yul\":4851:4852   */\n      dup3\n        /* \"#utility.yul\":4848:4849   */\n      dup3\n        /* \"#utility.yul\":4844:4853   */\n      mul\n        /* \"#utility.yul\":4873:4903   */\n      tag_119\n        /* \"#utility.yul\":4891:4902   */\n      dup2\n        /* \"#utility.yul\":4873:4903   */\n      tag_56\n      jump\t// in\n    tag_119:\n        /* \"#utility.yul\":4862:4903   */\n      swap2\n      pop\n        /* \"#utility.yul\":5052:5053   */\n      dup3\n        /* \"#utility.yul\":5043:5050   */\n      dup3\n        /* \"#utility.yul\":5039:5054   */\n      div\n        /* \"#utility.yul\":5036:5037   */\n      dup5\n        /* \"#utility.yul\":5033:5055   */\n      eq\n        /* \"#utility.yul\":5013:5014   */\n      dup4\n        /* \"#utility.yul\":5006:5015   */\n      iszero\n        /* \"#utility.yul\":4986:5069   */\n      or\n        /* \"#utility.yul\":4963:5102   */\n      tag_120\n      jumpi\n        /* \"#utility.yul\":5082:5100   */\n      tag_121\n      tag_63\n      jump\t// in\n    tag_121:\n        /* \"#utility.yul\":4963:5102   */\n    tag_120:\n        /* \"#utility.yul\":4747:5109   */\n      pop\n        /* \"#utility.yul\":4699:5109   */\n      swap3\n      swap2\n      pop\n      pop\n      jump\t// out\n        /* \"#utility.yul\":5115:5295   */\n    tag_66:\n        /* \"#utility.yul\":5163:5240   */\n      0x4e487b7100000000000000000000000000000000000000000000000000000000\n        /* \"#utility.yul\":5160:5161   */\n      0x00\n        /* \"#utility.yul\":5153:5241   */\n      mstore\n        /* \"#utility.yul\":5260:5264   */\n      0x12\n        /* \"#utility.yul\":5257:5258   */\n      0x04\n        /* \"#utility.yul\":5250:5265   */\n      mstore\n        /* \"#utility.yul\":5284:5288   */\n      0x24\n        /* \"#utility.yul\":5281:5282   */\n      0x00\n        /* \"#utility.yul\":5274:5289   */\n      revert\n        /* \"#utility.yul\":5301:5486   */\n    tag_46:\n        /* \"#utility.yul\":5341:5342   */\n      0x00\n        /* \"#utility.yul\":5358:5378   */\n      tag_124\n        /* \"#utility.yul\":5376:5377   */\n      dup3\n        /* \"#utility.yul\":5358:5378   */\n      tag_56\n      jump\t// in\n    tag_124:\n        /* \"#utility.yul\":5353:5378   */\n      swap2\n      pop\n        /* \"#utility.yul\":5392:5412   */\n      tag_125\n        /* \"#utility.yul\":5410:5411   */\n      dup4\n        /* \"#utility.yul\":5392:5412   */\n      tag_56\n      jump\t// in\n    tag_125:\n        /* \"#utility.yul\":5387:5412   */\n      swap3\n      pop\n        /* \"#utility.yul\":5431:5432   */\n      dup3\n        /* \"#utility.yul\":5421:5456   */\n      tag_126\n      jumpi\n        /* \"#utility.yul\":5436:5454   */\n      tag_127\n      tag_66\n      jump\t// in\n    tag_127:\n        /* \"#utility.yul\":5421:5456   */\n    tag_126:\n        /* \"#utility.yul\":5478:5479   */\n      dup3\n        /* \"#utility.yul\":5475:5476   */\n      dup3\n        /* \"#utility.yul\":5471:5480   */\n      div\n        /* \"#utility.yul\":5466:5480   */\n      swap1\n      pop\n        /* \"#utility.yul\":5301:5486   */\n      swap3\n      swap2\n      pop\n      pop\n      jump\t// out\n\n    auxdata: 0xa2646970667358221220206036c485ac3d033f1f5d8cad19d6f8256b5ad6f5c3841e3d832d59fc23e02064736f6c634300081d0033\n}\n",
				"bytecode": {
					"linkReferences": {},
					"object": "6080604052686c6b935b8bbd400000600155348015601b575f5ffd5b50610626806100295f395ff3fe60806040526004361061004d575f3560e01c806359252669146100585780638d6cc56d14610094578063a035b1fe146100bc578063a0712d68146100e6578063be040fb01461010257610054565b3661005457005b5f5ffd5b348015610063575f5ffd5b5061007e60048036038101906100799190610361565b610118565b60405161008b91906103a4565b60405180910390f35b34801561009f575f5ffd5b506100ba60048036038101906100b591906103e7565b61012c565b005b3480156100c7575f5ffd5b506100d0610136565b6040516100dd91906103a4565b60405180910390f35b61010060048036038101906100fb91906103e7565b61013c565b005b34801561010d575f5ffd5b506101166101d4565b005b5f602052805f5260405f205f915090505481565b8060018190555050565b60015481565b8034101561017f576040517f08c379a00000000000000000000000000000000000000000000000000000000081526004016101769061046c565b60405180910390fd5b805f5f3373ffffffffffffffffffffffffffffffffffffffff1673ffffffffffffffffffffffffffffffffffffffff1681526020019081526020015f205f8282546101ca91906104b7565b9250508190555050565b5f5f5f3373ffffffffffffffffffffffffffffffffffffffff1673ffffffffffffffffffffffffffffffffffffffff1681526020019081526020015f205490505f8111610256576040517f08c379a000000000000000000000000000000000000000000000000000000000815260040161024d90610534565b60405180910390fd5b5f5f5f3373ffffffffffffffffffffffffffffffffffffffff1673ffffffffffffffffffffffffffffffffffffffff1681526020019081526020015f20819055505f670de0b6b3a7640000600154836102af9190610552565b6102b991906105c0565b90503373ffffffffffffffffffffffffffffffffffffffff166108fc8290811502906040515f60405180830381858888f193505050501580156102fe573d5f5f3e3d5ffd5b505050565b5f5ffd5b5f73ffffffffffffffffffffffffffffffffffffffff82169050919050565b5f61033082610307565b9050919050565b61034081610326565b811461034a575f5ffd5b50565b5f8135905061035b81610337565b92915050565b5f6020828403121561037657610375610303565b5b5f6103838482850161034d565b91505092915050565b5f819050919050565b61039e8161038c565b82525050565b5f6020820190506103b75f830184610395565b92915050565b6103c68161038c565b81146103d0575f5ffd5b50565b5f813590506103e1816103bd565b92915050565b5f602082840312156103fc576103fb610303565b5b5f610409848285016103d3565b91505092915050565b5f82825260208201905092915050565b7f4e656564206d6f726520455448000000000000000000000000000000000000005f82015250565b5f610456600d83610412565b915061046182610422565b602082019050919050565b5f6020820190508181035f8301526104838161044a565b9050919050565b7f4e487b71000000000000000000000000000000000000000000000000000000005f52601160045260245ffd5b5f6104c18261038c565b91506104cc8361038c565b92508282019050808211156104e4576104e361048a565b5b92915050565b7f4e6f6e65000000000000000000000000000000000000000000000000000000005f82015250565b5f61051e600483610412565b9150610529826104ea565b602082019050919050565b5f6020820190508181035f83015261054b81610512565b9050919050565b5f61055c8261038c565b91506105678361038c565b92508282026105758161038c565b9150828204841483151761058c5761058b61048a565b5b5092915050565b7f4e487b71000000000000000000000000000000000000000000000000000000005f52601260045260245ffd5b5f6105ca8261038c565b91506105d58361038c565b9250826105e5576105e4610593565b5b82820490509291505056fea2646970667358221220206036c485ac3d033f1f5d8cad19d6f8256b5ad6f5c3841e3d832d59fc23e02064736f6c634300081d0033",
					"opcodes": "PUSH1 0x80 PUSH1 0x40 MSTORE PUSH9 0x6C6B935B8BBD400000 PUSH1 0x1 SSTORE CALLVALUE DUP1 ISZERO PUSH1 0x1B JUMPI PUSH0 PUSH0 REVERT JUMPDEST POP PUSH2 0x626 DUP1 PUSH2 0x29 PUSH0 CODECOPY PUSH0 RETURN INVALID PUSH1 0x80 PUSH1 0x40 MSTORE PUSH1 0x4 CALLDATASIZE LT PUSH2 0x4D JUMPI PUSH0 CALLDATALOAD PUSH1 0xE0 SHR DUP1 PUSH4 0x59252669 EQ PUSH2 0x58 JUMPI DUP1 PUSH4 0x8D6CC56D EQ PUSH2 0x94 JUMPI DUP1 PUSH4 0xA035B1FE EQ PUSH2 0xBC JUMPI DUP1 PUSH4 0xA0712D68 EQ PUSH2 0xE6 JUMPI DUP1 PUSH4 0xBE040FB0 EQ PUSH2 0x102 JUMPI PUSH2 0x54 JUMP JUMPDEST CALLDATASIZE PUSH2 0x54 JUMPI STOP JUMPDEST PUSH0 PUSH0 REVERT JUMPDEST CALLVALUE DUP1 ISZERO PUSH2 0x63 JUMPI PUSH0 PUSH0 REVERT JUMPDEST POP PUSH2 0x7E PUSH1 0x4 DUP1 CALLDATASIZE SUB DUP2 ADD SWAP1 PUSH2 0x79 SWAP2 SWAP1 PUSH2 0x361 JUMP JUMPDEST PUSH2 0x118 JUMP JUMPDEST PUSH1 0x40 MLOAD PUSH2 0x8B SWAP2 SWAP1 PUSH2 0x3A4 JUMP JUMPDEST PUSH1 0x40 MLOAD DUP1 SWAP2 SUB SWAP1 RETURN JUMPDEST CALLVALUE DUP1 ISZERO PUSH2 0x9F JUMPI PUSH0 PUSH0 REVERT JUMPDEST POP PUSH2 0xBA PUSH1 0x4 DUP1 CALLDATASIZE SUB DUP2 ADD SWAP1 PUSH2 0xB5 SWAP2 SWAP1 PUSH2 0x3E7 JUMP JUMPDEST PUSH2 0x12C JUMP JUMPDEST STOP JUMPDEST CALLVALUE DUP1 ISZERO PUSH2 0xC7 JUMPI PUSH0 PUSH0 REVERT JUMPDEST POP PUSH2 0xD0 PUSH2 0x136 JUMP JUMPDEST PUSH1 0x40 MLOAD PUSH2 0xDD SWAP2 SWAP1 PUSH2 0x3A4 JUMP JUMPDEST PUSH1 0x40 MLOAD DUP1 SWAP2 SUB SWAP1 RETURN JUMPDEST PUSH2 0x100 PUSH1 0x4 DUP1 CALLDATASIZE SUB DUP2 ADD SWAP1 PUSH2 0xFB SWAP2 SWAP1 PUSH2 0x3E7 JUMP JUMPDEST PUSH2 0x13C JUMP JUMPDEST STOP JUMPDEST CALLVALUE DUP1 ISZERO PUSH2 0x10D JUMPI PUSH0 PUSH0 REVERT JUMPDEST POP PUSH2 0x116 PUSH2 0x1D4 JUMP JUMPDEST STOP JUMPDEST PUSH0 PUSH1 0x20 MSTORE DUP1 PUSH0 MSTORE PUSH1 0x40 PUSH0 KECCAK256 PUSH0 SWAP2 POP SWAP1 POP SLOAD DUP2 JUMP JUMPDEST DUP1 PUSH1 0x1 DUP2 SWAP1 SSTORE POP POP JUMP JUMPDEST PUSH1 0x1 SLOAD DUP2 JUMP JUMPDEST DUP1 CALLVALUE LT ISZERO PUSH2 0x17F JUMPI PUSH1 0x40 MLOAD PUSH32 0x8C379A000000000000000000000000000000000000000000000000000000000 DUP2 MSTORE PUSH1 0x4 ADD PUSH2 0x176 SWAP1 PUSH2 0x46C JUMP JUMPDEST PUSH1 0x40 MLOAD DUP1 SWAP2 SUB SWAP1 REVERT JUMPDEST DUP1 PUSH0 PUSH0 CALLER PUSH20 0xFFFFFFFFFFFFFFFFFFFFFFFFFFFFFFFFFFFFFFFF AND PUSH20 0xFFFFFFFFFFFFFFFFFFFFFFFFFFFFFFFFFFFFFFFF AND DUP2 MSTORE PUSH1 0x20 ADD SWAP1 DUP2 MSTORE PUSH1 0x20 ADD PUSH0 KECCAK256 PUSH0 DUP3 DUP3 SLOAD PUSH2 0x1CA SWAP2 SWAP1 PUSH2 0x4B7 JUMP JUMPDEST SWAP3 POP POP DUP2 SWAP1 SSTORE POP POP JUMP JUMPDEST PUSH0 PUSH0 PUSH0 CALLER PUSH20 0xFFFFFFFFFFFFFFFFFFFFFFFFFFFFFFFFFFFFFFFF AND PUSH20 0xFFFFFFFFFFFFFFFFFFFFFFFFFFFFFFFFFFFFFFFF AND DUP2 MSTORE PUSH1 0x20 ADD SWAP1 DUP2 MSTORE PUSH1 0x20 ADD PUSH0 KECCAK256 SLOAD SWAP1 POP PUSH0 DUP2 GT PUSH2 0x256 JUMPI PUSH1 0x40 MLOAD PUSH32 0x8C379A000000000000000000000000000000000000000000000000000000000 DUP2 MSTORE PUSH1 0x4 ADD PUSH2 0x24D SWAP1 PUSH2 0x534 JUMP JUMPDEST PUSH1 0x40 MLOAD DUP1 SWAP2 SUB SWAP1 REVERT JUMPDEST PUSH0 PUSH0 PUSH0 CALLER PUSH20 0xFFFFFFFFFFFFFFFFFFFFFFFFFFFFFFFFFFFFFFFF AND PUSH20 0xFFFFFFFFFFFFFFFFFFFFFFFFFFFFFFFFFFFFFFFF AND DUP2 MSTORE PUSH1 0x20 ADD SWAP1 DUP2 MSTORE PUSH1 0x20 ADD PUSH0 KECCAK256 DUP2 SWAP1 SSTORE POP PUSH0 PUSH8 0xDE0B6B3A7640000 PUSH1 0x1 SLOAD DUP4 PUSH2 0x2AF SWAP2 SWAP1 PUSH2 0x552 JUMP JUMPDEST PUSH2 0x2B9 SWAP2 SWAP1 PUSH2 0x5C0 JUMP JUMPDEST SWAP1 POP CALLER PUSH20 0xFFFFFFFFFFFFFFFFFFFFFFFFFFFFFFFFFFFFFFFF AND PUSH2 0x8FC DUP3 SWAP1 DUP2 ISZERO MUL SWAP1 PUSH1 0x40 MLOAD PUSH0 PUSH1 0x40 MLOAD DUP1 DUP4 SUB DUP2 DUP6 DUP9 DUP9 CALL SWAP4 POP POP POP POP ISZERO DUP1 ISZERO PUSH2 0x2FE JUMPI RETURNDATASIZE PUSH0 PUSH0 RETURNDATACOPY RETURNDATASIZE PUSH0 REVERT JUMPDEST POP POP POP JUMP JUMPDEST PUSH0 PUSH0 REVERT JUMPDEST PUSH0 PUSH20 0xFFFFFFFFFFFFFFFFFFFFFFFFFFFFFFFFFFFFFFFF DUP3 AND SWAP1 POP SWAP2 SWAP1 POP JUMP JUMPDEST PUSH0 PUSH2 0x330 DUP3 PUSH2 0x307 JUMP JUMPDEST SWAP1 POP SWAP2 SWAP1 POP JUMP JUMPDEST PUSH2 0x340 DUP2 PUSH2 0x326 JUMP JUMPDEST DUP2 EQ PUSH2 0x34A JUMPI PUSH0 PUSH0 REVERT JUMPDEST POP JUMP JUMPDEST PUSH0 DUP2 CALLDATALOAD SWAP1 POP PUSH2 0x35B DUP2 PUSH2 0x337 JUMP JUMPDEST SWAP3 SWAP2 POP POP JUMP JUMPDEST PUSH0 PUSH1 0x20 DUP3 DUP5 SUB SLT ISZERO PUSH2 0x376 JUMPI PUSH2 0x375 PUSH2 0x303 JUMP JUMPDEST JUMPDEST PUSH0 PUSH2 0x383 DUP5 DUP3 DUP6 ADD PUSH2 0x34D JUMP JUMPDEST SWAP2 POP POP SWAP3 SWAP2 POP POP JUMP JUMPDEST PUSH0 DUP2 SWAP1 POP SWAP2 SWAP1 POP JUMP JUMPDEST PUSH2 0x39E DUP2 PUSH2 0x38C JUMP JUMPDEST DUP3 MSTORE POP POP JUMP JUMPDEST PUSH0 PUSH1 0x20 DUP3 ADD SWAP1 POP PUSH2 0x3B7 PUSH0 DUP4 ADD DUP5 PUSH2 0x395 JUMP JUMPDEST SWAP3 SWAP2 POP POP JUMP JUMPDEST PUSH2 0x3C6 DUP2 PUSH2 0x38C JUMP JUMPDEST DUP2 EQ PUSH2 0x3D0 JUMPI PUSH0 PUSH0 REVERT JUMPDEST POP JUMP JUMPDEST PUSH0 DUP2 CALLDATALOAD SWAP1 POP PUSH2 0x3E1 DUP2 PUSH2 0x3BD JUMP JUMPDEST SWAP3 SWAP2 POP POP JUMP JUMPDEST PUSH0 PUSH1 0x20 DUP3 DUP5 SUB SLT ISZERO PUSH2 0x3FC JUMPI PUSH2 0x3FB PUSH2 0x303 JUMP JUMPDEST JUMPDEST PUSH0 PUSH2 0x409 DUP5 DUP3 DUP6 ADD PUSH2 0x3D3 JUMP JUMPDEST SWAP2 POP POP SWAP3 SWAP2 POP POP JUMP JUMPDEST PUSH0 DUP3 DUP3 MSTORE PUSH1 0x20 DUP3 ADD SWAP1 POP SWAP3 SWAP2 POP POP JUMP JUMPDEST PUSH32 0x4E656564206D6F72652045544800000000000000000000000000000000000000 PUSH0 DUP3 ADD MSTORE POP JUMP JUMPDEST PUSH0 PUSH2 0x456 PUSH1 0xD DUP4 PUSH2 0x412 JUMP JUMPDEST SWAP2 POP PUSH2 0x461 DUP3 PUSH2 0x422 JUMP JUMPDEST PUSH1 0x20 DUP3 ADD SWAP1 POP SWAP2 SWAP1 POP JUMP JUMPDEST PUSH0 PUSH1 0x20 DUP3 ADD SWAP1 POP DUP2 DUP2 SUB PUSH0 DUP4 ADD MSTORE PUSH2 0x483 DUP2 PUSH2 0x44A JUMP JUMPDEST SWAP1 POP SWAP2 SWAP1 POP JUMP JUMPDEST PUSH32 0x4E487B7100000000000000000000000000000000000000000000000000000000 PUSH0 MSTORE PUSH1 0x11 PUSH1 0x4 MSTORE PUSH1 0x24 PUSH0 REVERT JUMPDEST PUSH0 PUSH2 0x4C1 DUP3 PUSH2 0x38C JUMP JUMPDEST SWAP2 POP PUSH2 0x4CC DUP4 PUSH2 0x38C JUMP JUMPDEST SWAP3 POP DUP3 DUP3 ADD SWAP1 POP DUP1 DUP3 GT ISZERO PUSH2 0x4E4 JUMPI PUSH2 0x4E3 PUSH2 0x48A JUMP JUMPDEST JUMPDEST SWAP3 SWAP2 POP POP JUMP JUMPDEST PUSH32 0x4E6F6E6500000000000000000000000000000000000000000000000000000000 PUSH0 DUP3 ADD MSTORE POP JUMP JUMPDEST PUSH0 PUSH2 0x51E PUSH1 0x4 DUP4 PUSH2 0x412 JUMP JUMPDEST SWAP2 POP PUSH2 0x529 DUP3 PUSH2 0x4EA JUMP JUMPDEST PUSH1 0x20 DUP3 ADD SWAP1 POP SWAP2 SWAP1 POP JUMP JUMPDEST PUSH0 PUSH1 0x20 DUP3 ADD SWAP1 POP DUP2 DUP2 SUB PUSH0 DUP4 ADD MSTORE PUSH2 0x54B DUP2 PUSH2 0x512 JUMP JUMPDEST SWAP1 POP SWAP2 SWAP1 POP JUMP JUMPDEST PUSH0 PUSH2 0x55C DUP3 PUSH2 0x38C JUMP JUMPDEST SWAP2 POP PUSH2 0x567 DUP4 PUSH2 0x38C JUMP JUMPDEST SWAP3 POP DUP3 DUP3 MUL PUSH2 0x575 DUP2 PUSH2 0x38C JUMP JUMPDEST SWAP2 POP DUP3 DUP3 DIV DUP5 EQ DUP4 ISZERO OR PUSH2 0x58C JUMPI PUSH2 0x58B PUSH2 0x48A JUMP JUMPDEST JUMPDEST POP SWAP3 SWAP2 POP POP JUMP JUMPDEST PUSH32 0x4E487B7100000000000000000000000000000000000000000000000000000000 PUSH0 MSTORE PUSH1 0x12 PUSH1 0x4 MSTORE PUSH1 0x24 PUSH0 REVERT JUMPDEST PUSH0 PUSH2 0x5CA DUP3 PUSH2 0x38C JUMP JUMPDEST SWAP2 POP PUSH2 0x5D5 DUP4 PUSH2 0x38C JUMP JUMPDEST SWAP3 POP DUP3 PUSH2 0x5E5 JUMPI PUSH2 0x5E4 PUSH2 0x593 JUMP JUMPDEST JUMPDEST DUP3 DUP3 DIV SWAP1 POP SWAP3 SWAP2 POP POP JUMP INVALID LOG2 PUSH5 0x6970667358 0x22 SLT KECCAK256 KECCAK256 PUSH1 0x36 0xC4 DUP6 0xAC RETURNDATASIZE SUB EXTCODEHASH 0x1F TSTORE DUP13 0xAD NOT 0xD6 EXTCALL 0x25 PUSH12 0x5AD6F5C3841E3D832D59FC23 RJUMP 0x2064 PUSH20 0x6F6C634300081D00330000000000000000000000 "
				},
				"gasEstimates": {
					"creation": {
						"codeDepositCost": "314800",
						"executionCost": "22459",
						"totalCost": "337259"
					},
					"external": {
						"mint(uint256)": "infinite",
						"price()": "2447",
						"redeem()": "infinite",
						"synth(address)": "2779",
						"updatePrice(uint256)": "22515"
					}
				},
				"methodIdentifiers": {
					"mint(uint256)": "a0712d68",
					"price()": "a035b1fe",
					"redeem()": "be040fb0",
					"synth(address)": "59252669",
					"updatePrice(uint256)": "8d6cc56d"
				}
			},
			"storageLayout": {
				"storage": [
					{
						"astId": 4,
						"contract": "L1/Synthetic Long (Track Virtual Asset Price).sol:SyntheticLong",
						"label": "synth",
						"offset": 0,
						"slot": "0",
						"type": "t_mapping(t_address,t_uint256)"
					},
					{
						"astId": 7,
						"contract": "L1/Synthetic Long (Track Virtual Asset Price).sol:SyntheticLong",
						"label": "price",
						"offset": 0,
						"slot": "1",
						"type": "t_uint256"
					}
				],
				"types": {
					"t_address": {
						"encoding": "inplace",
						"label": "address",
						"numberOfBytes": "20"
					},
					"t_mapping(t_address,t_uint256)": {
						"encoding": "mapping",
						"key": "t_address",
						"label": "mapping(address => uint256)",
						"numberOfBytes": "32",
						"value": "t_uint256"
					},
					"t_uint256": {
						"encoding": "inplace",
						"label": "uint256",
						"numberOfBytes": "32"
					}
				}
			},
			"userdoc": {
				"kind": "user",
				"methods": {},
				"version": 1
			}
		}
	}
}