{
	"data": {
		"bytecode": {
			"linkReferences": {},
			"object": "608060405234801561001057600080fd5b50610ca2806100206000396000f3fe608060405234801561001057600080fd5b506004361061002b5760003560e01c8063dfb7af1914610030575b600080fd5b61004a6004803603810190610045919061076d565b610060565b6040516100579190610874565b60405180910390f35b60606000825167ffffffffffffffff81111561007f5761007e610566565b5b6040519080825280602002602001820160405280156100ad5781602001602082028036833780820191505090505b5090506000805b84518110156104595760008582815181106100d2576100d1610896565b5b60200260200101519050600060ff16816000015160ff160361012557806020015184848151811061010657610105610896565b5b602002602001018181525050828061011d906108f4565b935050610445565b600160ff16816000015160ff160361022657600283101561017b576040517f08c379a0000000000000000000000000000000000000000000000000000000008152600401610172906109bf565b60405180910390fd5b60008460018561018b91906109df565b8151811061019c5761019b610896565b5b602002602001015190506000856002866101b691906109df565b815181106101c7576101c6610896565b5b602002602001015190506002856101de91906109df565b9450600081836101ee9190610a13565b90508087878151811061020457610203610896565b5b602002602001018181525050858061021b906108f4565b965050505050610444565b600260ff16816000015160ff160361032f57600283101561027c576040517f08c379a000000000000000000000000000000000000000000000000000000000815260040161027390610ab9565b60405180910390fd5b60008460018561028c91906109df565b8151811061029d5761029c610896565b5b602002602001015190506000856002866102b791906109df565b815181106102c8576102c7610896565b5b602002602001015190506002856102df91906109df565b945060008183146102f15760006102f4565b60015b60ff1690508087878151811061030d5761030c610896565b5b6020026020010181815250508580610324906108f4565b965050505050610443565b600360ff16816000015160ff1603610407576001831015610385576040517f08c379a000000000000000000000000000000000000000000000000000000000815260040161037c90610b4b565b60405180910390fd5b60008460018561039591906109df565b815181106103a6576103a5610896565b5b6020026020010151905083806103bb90610b6b565b94505060018114610401576040517f08c379a00000000000000000000000000000000000000000000000000000000081526004016103f890610be0565b60405180910390fd5b50610442565b6040517f08c379a000000000000000000000000000000000000000000000000000000000815260040161043990610c4c565b60405180910390fd5b5b5b5b508080610451906108f4565b9150506100b4565b508067ffffffffffffffff81111561047457610473610566565b5b6040519080825280602002602001820160405280156104a25781602001602082028036833780820191505090505b50925060005b818110156104fd578281815181106104c3576104c2610896565b5b60200260200101518482815181106104de576104dd610896565b5b60200260200101818152505080806104f5906108f4565b9150506104a8565b507f4338a1add16bdcfea40094cd6e2e33942d617764e2ae6860ab07aee10404bfb28360405161052d9190610874565b60405180910390a15050919050565b6000604051905090565b600080fd5b600080fd5b600080fd5b6000601f19601f8301169050919050565b7f4e487b7100000000000000000000000000000000000000000000000000000000600052604160045260246000fd5b61059e82610555565b810181811067ffffffffffffffff821117156105bd576105bc610566565b5b80604052505050565b60006105d061053c565b90506105dc8282610595565b919050565b600067ffffffffffffffff8211156105fc576105fb610566565b5b602082029050602081019050919050565b600080fd5b600080fd5b600060ff82169050919050565b61062d81610617565b811461063857600080fd5b50565b60008135905061064a81610624565b92915050565b6000819050919050565b61066381610650565b811461066e57600080fd5b50565b6000813590506106808161065a565b92915050565b60006040828403121561069c5761069b610612565b5b6106a660406105c6565b905060006106b68482850161063b565b60008301525060206106ca84828501610671565b60208301525092915050565b60006106e96106e4846105e1565b6105c6565b9050808382526020820190506040840283018581111561070c5761070b61060d565b5b835b8181101561073557806107218882610686565b84526020840193505060408101905061070e565b5050509392505050565b600082601f83011261075457610753610550565b5b81356107648482602086016106d6565b91505092915050565b60006020828403121561078357610782610546565b5b600082013567ffffffffffffffff8111156107a1576107a061054b565b5b6107ad8482850161073f565b91505092915050565b600081519050919050565b600082825260208201905092915050565b6000819050602082019050919050565b6107eb81610650565b82525050565b60006107fd83836107e2565b60208301905092915050565b6000602082019050919050565b6000610821826107b6565b61082b81856107c1565b9350610836836107d2565b8060005b8381101561086757815161084e88826107f1565b975061085983610809565b92505060018101905061083a565b5085935050505092915050565b6000602082019050818103600083015261088e8184610816565b905092915050565b7f4e487b7100000000000000000000000000000000000000000000000000000000600052603260045260246000fd5b7f4e487b7100000000000000000000000000000000000000000000000000000000600052601160045260246000fd5b60006108ff82610650565b91507fffffffffffffffffffffffffffffffffffffffffffffffffffffffffffffffff8203610931576109306108c5565b5b600182019050919050565b600082825260208201905092915050565b7f414444207265717569726573206174206c65617374203220737461636b20697460008201527f656d730000000000000000000000000000000000000000000000000000000000602082015250565b60006109a960238361093c565b91506109b48261094d565b604082019050919050565b600060208201905081810360008301526109d88161099c565b9050919050565b60006109ea82610650565b91506109f583610650565b9250828203905081811115610a0d57610a0c6108c5565b5b92915050565b6000610a1e82610650565b9150610a2983610650565b9250828201905080821115610a4157610a406108c5565b5b92915050565b7f455155414c207265717569726573206174206c65617374203220737461636b2060008201527f6974656d73000000000000000000000000000000000000000000000000000000602082015250565b6000610aa360258361093c565b9150610aae82610a47565b604082019050919050565b60006020820190508181036000830152610ad281610a96565b9050919050565b7f564552494659207265717569726573206174206c65617374203120737461636b60008201527f206974656d000000000000000000000000000000000000000000000000000000602082015250565b6000610b3560258361093c565b9150610b4082610ad9565b604082019050919050565b60006020820190508181036000830152610b6481610b28565b9050919050565b6000610b7682610650565b915060008203610b8957610b886108c5565b5b600182039050919050565b7f564552494659206661696c656400000000000000000000000000000000000000600082015250565b6000610bca600d8361093c565b9150610bd582610b94565b602082019050919050565b60006020820190508181036000830152610bf981610bbd565b9050919050565b7f556e6b6e6f776e206f70636f6465000000000000000000000000000000000000600082015250565b6000610c36600e8361093c565b9150610c4182610c00565b602082019050919050565b60006020820190508181036000830152610c6581610c29565b905091905056fea26469706673582212209543a39beb4c1b02120f2c7fb32803a6c0f9a98f9a054a88ac37321e9da4cad064736f6c63430008130033",
			"opcodes": "PUSH1 0x80 PUSH1 0x40 MSTORE CALLVALUE DUP1 ISZERO PUSH2 0x10 JUMPI PUSH1 0x0 DUP1 REVERT JUMPDEST POP PUSH2 0xCA2 DUP1 PUSH2 0x20 PUSH1 0x0 CODECOPY PUSH1 0x0 RETURN INVALID PUSH1 0x80 PUSH1 0x40 MSTORE CALLVALUE DUP1 ISZERO PUSH2 0x10 JUMPI PUSH1 0x0 DUP1 REVERT JUMPDEST POP PUSH1 0x4 CALLDATASIZE LT PUSH2 0x2B JUMPI PUSH1 0x0 CALLDATALOAD PUSH1 0xE0 SHR DUP1 PUSH4 0xDFB7AF19 EQ PUSH2 0x30 JUMPI JUMPDEST PUSH1 0x0 DUP1 REVERT JUMPDEST PUSH2 0x4A PUSH1 0x4 DUP1 CALLDATASIZE SUB DUP2 ADD SWAP1 PUSH2 0x45 SWAP2 SWAP1 PUSH2 0x76D JUMP JUMPDEST PUSH2 0x60 JUMP JUMPDEST PUSH1 0x40 MLOAD PUSH2 0x57 SWAP2 SWAP1 PUSH2 0x874 JUMP JUMPDEST PUSH1 0x40 MLOAD DUP1 SWAP2 SUB SWAP1 RETURN JUMPDEST PUSH1 0x60 PUSH1 0x0 DUP3 MLOAD PUSH8 0xFFFFFFFFFFFFFFFF DUP2 GT ISZERO PUSH2 0x7F JUMPI PUSH2 0x7E PUSH2 0x566 JUMP JUMPDEST JUMPDEST PUSH1 0x40 MLOAD SWAP1 DUP1 DUP3 MSTORE DUP1 PUSH1 0x20 MUL PUSH1 0x20 ADD DUP3 ADD PUSH1 0x40 MSTORE DUP1 ISZERO PUSH2 0xAD JUMPI DUP2 PUSH1 0x20 ADD PUSH1 0x20 DUP3 MUL DUP1 CALLDATASIZE DUP4 CALLDATACOPY DUP1 DUP3 ADD SWAP2 POP POP SWAP1 POP JUMPDEST POP SWAP1 POP PUSH1 0x0 DUP1 JUMPDEST DUP5 MLOAD DUP2 LT ISZERO PUSH2 0x459 JUMPI PUSH1 0x0 DUP6 DUP3 DUP2 MLOAD DUP2 LT PUSH2 0xD2 JUMPI PUSH2 0xD1 PUSH2 0x896 JUMP JUMPDEST JUMPDEST PUSH1 0x20 MUL PUSH1 0x20 ADD ADD MLOAD SWAP1 POP PUSH1 0x0 PUSH1 0xFF AND DUP2 PUSH1 0x0 ADD MLOAD PUSH1 0xFF AND SUB PUSH2 0x125 JUMPI DUP1 PUSH1 0x20 ADD MLOAD DUP5 DUP5 DUP2 MLOAD DUP2 LT PUSH2 0x106 JUMPI PUSH2 0x105 PUSH2 0x896 JUMP JUMPDEST JUMPDEST PUSH1 0x20 MUL PUSH1 0x20 ADD ADD DUP2 DUP2 MSTORE POP POP DUP3 DUP1 PUSH2 0x11D SWAP1 PUSH2 0x8F4 JUMP JUMPDEST SWAP4 POP POP PUSH2 0x445 JUMP JUMPDEST PUSH1 0x1 PUSH1 0xFF AND DUP2 PUSH1 0x0 ADD MLOAD PUSH1 0xFF AND SUB PUSH2 0x226 JUMPI PUSH1 0x2 DUP4 LT ISZERO PUSH2 0x17B JUMPI PUSH1 0x40 MLOAD PUSH32 0x8C379A000000000000000000000000000000000000000000000000000000000 DUP2 MSTORE PUSH1 0x4 ADD PUSH2 0x172 SWAP1 PUSH2 0x9BF JUMP JUMPDEST PUSH1 0x40 MLOAD DUP1 SWAP2 SUB SWAP1 REVERT JUMPDEST PUSH1 0x0 DUP5 PUSH1 0x1 DUP6 PUSH2 0x18B SWAP2 SWAP1 PUSH2 0x9DF JUMP JUMPDEST DUP2 MLOAD DUP2 LT PUSH2 0x19C JUMPI PUSH2 0x19B PUSH2 0x896 JUMP JUMPDEST JUMPDEST PUSH1 0x20 MUL PUSH1 0x20 ADD ADD MLOAD SWAP1 POP PUSH1 0x0 DUP6 PUSH1 0x2 DUP7 PUSH2 0x1B6 SWAP2 SWAP1 PUSH2 0x9DF JUMP JUMPDEST DUP2 MLOAD DUP2 LT PUSH2 0x1C7 JUMPI PUSH2 0x1C6 PUSH2 0x896 JUMP JUMPDEST JUMPDEST PUSH1 0x20 MUL PUSH1 0x20 ADD ADD MLOAD SWAP1 POP PUSH1 0x2 DUP6 PUSH2 0x1DE SWAP2 SWAP1 PUSH2 0x9DF JUMP JUMPDEST SWAP5 POP PUSH1 0x0 DUP2 DUP4 PUSH2 0x1EE SWAP2 SWAP1 PUSH2 0xA13 JUMP JUMPDEST SWAP1 POP DUP1 DUP8 DUP8 DUP2 MLOAD DUP2 LT PUSH2 0x204 JUMPI PUSH2 0x203 PUSH2 0x896 JUMP JUMPDEST JUMPDEST PUSH1 0x20 MUL PUSH1 0x20 ADD ADD DUP2 DUP2 MSTORE POP POP DUP6 DUP1 PUSH2 0x21B SWAP1 PUSH2 0x8F4 JUMP JUMPDEST SWAP7 POP POP POP POP POP PUSH2 0x444 JUMP JUMPDEST PUSH1 0x2 PUSH1 0xFF AND DUP2 PUSH1 0x0 ADD MLOAD PUSH1 0xFF AND SUB PUSH2 0x32F JUMPI PUSH1 0x2 DUP4 LT ISZERO PUSH2 0x27C JUMPI PUSH1 0x40 MLOAD PUSH32 0x8C379A000000000000000000000000000000000000000000000000000000000 DUP2 MSTORE PUSH1 0x4 ADD PUSH2 0x273 SWAP1 PUSH2 0xAB9 JUMP JUMPDEST PUSH1 0x40 MLOAD DUP1 SWAP2 SUB SWAP1 REVERT JUMPDEST PUSH1 0x0 DUP5 PUSH1 0x1 DUP6 PUSH2 0x28C SWAP2 SWAP1 PUSH2 0x9DF JUMP JUMPDEST DUP2 MLOAD DUP2 LT PUSH2 0x29D JUMPI PUSH2 0x29C PUSH2 0x896 JUMP JUMPDEST JUMPDEST PUSH1 0x20 MUL PUSH1 0x20 ADD ADD MLOAD SWAP1 POP PUSH1 0x0 DUP6 PUSH1 0x2 DUP7 PUSH2 0x2B7 SWAP2 SWAP1 PUSH2 0x9DF JUMP JUMPDEST DUP2 MLOAD DUP2 LT PUSH2 0x2C8 JUMPI PUSH2 0x2C7 PUSH2 0x896 JUMP JUMPDEST JUMPDEST PUSH1 0x20 MUL PUSH1 0x20 ADD ADD MLOAD SWAP1 POP PUSH1 0x2 DUP6 PUSH2 0x2DF SWAP2 SWAP1 PUSH2 0x9DF JUMP JUMPDEST SWAP5 POP PUSH1 0x0 DUP2 DUP4 EQ PUSH2 0x2F1 JUMPI PUSH1 0x0 PUSH2 0x2F4 JUMP JUMPDEST PUSH1 0x1 JUMPDEST PUSH1 0xFF AND SWAP1 POP DUP1 DUP8 DUP8 DUP2 MLOAD DUP2 LT PUSH2 0x30D JUMPI PUSH2 0x30C PUSH2 0x896 JUMP JUMPDEST JUMPDEST PUSH1 0x20 MUL PUSH1 0x20 ADD ADD DUP2 DUP2 MSTORE POP POP DUP6 DUP1 PUSH2 0x324 SWAP1 PUSH2 0x8F4 JUMP JUMPDEST SWAP7 POP POP POP POP POP PUSH2 0x443 JUMP JUMPDEST PUSH1 0x3 PUSH1 0xFF AND DUP2 PUSH1 0x0 ADD MLOAD PUSH1 0xFF AND SUB PUSH2 0x407 JUMPI PUSH1 0x1 DUP4 LT ISZERO PUSH2 0x385 JUMPI PUSH1 0x40 MLOAD PUSH32 0x8C379A000000000000000000000000000000000000000000000000000000000 DUP2 MSTORE PUSH1 0x4 ADD PUSH2 0x37C SWAP1 PUSH2 0xB4B JUMP JUMPDEST PUSH1 0x40 MLOAD DUP1 SWAP2 SUB SWAP1 REVERT JUMPDEST PUSH1 0x0 DUP5 PUSH1 0x1 DUP6 PUSH2 0x395 SWAP2 SWAP1 PUSH2 0x9DF JUMP JUMPDEST DUP2 MLOAD DUP2 LT PUSH2 0x3A6 JUMPI PUSH2 0x3A5 PUSH2 0x896 JUMP JUMPDEST JUMPDEST PUSH1 0x20 MUL PUSH1 0x20 ADD ADD MLOAD SWAP1 POP DUP4 DUP1 PUSH2 0x3BB SWAP1 PUSH2 0xB6B JUMP JUMPDEST SWAP5 POP POP PUSH1 0x1 DUP2 EQ PUSH2 0x401 JUMPI PUSH1 0x40 MLOAD PUSH32 0x8C379A000000000000000000000000000000000000000000000000000000000 DUP2 MSTORE PUSH1 0x4 ADD PUSH2 0x3F8 SWAP1 PUSH2 0xBE0 JUMP JUMPDEST PUSH1 0x40 MLOAD DUP1 SWAP2 SUB SWAP1 REVERT JUMPDEST POP PUSH2 0x442 JUMP JUMPDEST PUSH1 0x40 MLOAD PUSH32 0x8C379A000000000000000000000000000000000000000000000000000000000 DUP2 MSTORE PUSH1 0x4 ADD PUSH2 0x439 SWAP1 PUSH2 0xC4C JUMP JUMPDEST PUSH1 0x40 MLOAD DUP1 SWAP2 SUB SWAP1 REVERT JUMPDEST JUMPDEST JUMPDEST JUMPDEST POP DUP1 DUP1 PUSH2 0x451 SWAP1 PUSH2 0x8F4 JUMP JUMPDEST SWAP2 POP POP PUSH2 0xB4 JUMP JUMPDEST POP DUP1 PUSH8 0xFFFFFFFFFFFFFFFF DUP2 GT ISZERO PUSH2 0x474 JUMPI PUSH2 0x473 PUSH2 0x566 JUMP JUMPDEST JUMPDEST PUSH1 0x40 MLOAD SWAP1 DUP1 DUP3 MSTORE DUP1 PUSH1 0x20 MUL PUSH1 0x20 ADD DUP3 ADD PUSH1 0x40 MSTORE DUP1 ISZERO PUSH2 0x4A2 JUMPI DUP2 PUSH1 0x20 ADD PUSH1 0x20 DUP3 MUL DUP1 CALLDATASIZE DUP4 CALLDATACOPY DUP1 DUP3 ADD SWAP2 POP POP SWAP1 POP JUMPDEST POP SWAP3 POP PUSH1 0x0 JUMPDEST DUP2 DUP2 LT ISZERO PUSH2 0x4FD JUMPI DUP3 DUP2 DUP2 MLOAD DUP2 LT PUSH2 0x4C3 JUMPI PUSH2 0x4C2 PUSH2 0x896 JUMP JUMPDEST JUMPDEST PUSH1 0x20 MUL PUSH1 0x20 ADD ADD MLOAD DUP5 DUP3 DUP2 MLOAD DUP2 LT PUSH2 0x4DE JUMPI PUSH2 0x4DD PUSH2 0x896 JUMP JUMPDEST JUMPDEST PUSH1 0x20 MUL PUSH1 0x20 ADD ADD DUP2 DUP2 MSTORE POP POP DUP1 DUP1 PUSH2 0x4F5 SWAP1 PUSH2 0x8F4 JUMP JUMPDEST SWAP2 POP POP PUSH2 0x4A8 JUMP JUMPDEST POP PUSH32 0x4338A1ADD16BDCFEA40094CD6E2E33942D617764E2AE6860AB07AEE10404BFB2 DUP4 PUSH1 0x40 MLOAD PUSH2 0x52D SWAP2 SWAP1 PUSH2 0x874 JUMP JUMPDEST PUSH1 0x40 MLOAD DUP1 SWAP2 SUB SWAP1 LOG1 POP POP SWAP2 SWAP1 POP JUMP JUMPDEST PUSH1 0x0 PUSH1 0x40 MLOAD SWAP1 POP SWAP1 JUMP JUMPDEST PUSH1 0x0 DUP1 REVERT JUMPDEST PUSH1 0x0 DUP1 REVERT JUMPDEST PUSH1 0x0 DUP1 REVERT JUMPDEST PUSH1 0x0 PUSH1 0x1F NOT PUSH1 0x1F DUP4 ADD AND SWAP1 POP SWAP2 SWAP1 POP JUMP JUMPDEST PUSH32 0x4E487B7100000000000000000000000000000000000000000000000000000000 PUSH1 0x0 MSTORE PUSH1 0x41 PUSH1 0x4 MSTORE PUSH1 0x24 PUSH1 0x0 REVERT JUMPDEST PUSH2 0x59E DUP3 PUSH2 0x555 JUMP JUMPDEST DUP2 ADD DUP2 DUP2 LT PUSH8 0xFFFFFFFFFFFFFFFF DUP3 GT OR ISZERO PUSH2 0x5BD JUMPI PUSH2 0x5BC PUSH2 0x566 JUMP JUMPDEST JUMPDEST DUP1 PUSH1 0x40 MSTORE POP POP POP JUMP JUMPDEST PUSH1 0x0 PUSH2 0x5D0 PUSH2 0x53C JUMP JUMPDEST SWAP1 POP PUSH2 0x5DC DUP3 DUP3 PUSH2 0x595 JUMP JUMPDEST SWAP2 SWAP1 POP JUMP JUMPDEST PUSH1 0x0 PUSH8 0xFFFFFFFFFFFFFFFF DUP3 GT ISZERO PUSH2 0x5FC JUMPI PUSH2 0x5FB PUSH2 0x566 JUMP JUMPDEST JUMPDEST PUSH1 0x20 DUP3 MUL SWAP1 POP PUSH1 0x20 DUP2 ADD SWAP1 POP SWAP2 SWAP1 POP JUMP JUMPDEST PUSH1 0x0 DUP1 REVERT JUMPDEST PUSH1 0x0 DUP1 REVERT JUMPDEST PUSH1 0x0 PUSH1 0xFF DUP3 AND SWAP1 POP SWAP2 SWAP1 POP JUMP JUMPDEST PUSH2 0x62D DUP2 PUSH2 0x617 JUMP JUMPDEST DUP2 EQ PUSH2 0x638 JUMPI PUSH1 0x0 DUP1 REVERT JUMPDEST POP JUMP JUMPDEST PUSH1 0x0 DUP2 CALLDATALOAD SWAP1 POP PUSH2 0x64A DUP2 PUSH2 0x624 JUMP JUMPDEST SWAP3 SWAP2 POP POP JUMP JUMPDEST PUSH1 0x0 DUP2 SWAP1 POP SWAP2 SWAP1 POP JUMP JUMPDEST PUSH2 0x663 DUP2 PUSH2 0x650 JUMP JUMPDEST DUP2 EQ PUSH2 0x66E JUMPI PUSH1 0x0 DUP1 REVERT JUMPDEST POP JUMP JUMPDEST PUSH1 0x0 DUP2 CALLDATALOAD SWAP1 POP PUSH2 0x680 DUP2 PUSH2 0x65A JUMP JUMPDEST SWAP3 SWAP2 POP POP JUMP JUMPDEST PUSH1 0x0 PUSH1 0x40 DUP3 DUP5 SUB SLT ISZERO PUSH2 0x69C JUMPI PUSH2 0x69B PUSH2 0x612 JUMP JUMPDEST JUMPDEST PUSH2 0x6A6 PUSH1 0x40 PUSH2 0x5C6 JUMP JUMPDEST SWAP1 POP PUSH1 0x0 PUSH2 0x6B6 DUP5 DUP3 DUP6 ADD PUSH2 0x63B JUMP JUMPDEST PUSH1 0x0 DUP4 ADD MSTORE POP PUSH1 0x20 PUSH2 0x6CA DUP5 DUP3 DUP6 ADD PUSH2 0x671 JUMP JUMPDEST PUSH1 0x20 DUP4 ADD MSTORE POP SWAP3 SWAP2 POP POP JUMP JUMPDEST PUSH1 0x0 PUSH2 0x6E9 PUSH2 0x6E4 DUP5 PUSH2 0x5E1 JUMP JUMPDEST PUSH2 0x5C6 JUMP JUMPDEST SWAP1 POP DUP1 DUP4 DUP3 MSTORE PUSH1 0x20 DUP3 ADD SWAP1 POP PUSH1 0x40 DUP5 MUL DUP4 ADD DUP6 DUP2 GT ISZERO PUSH2 0x70C JUMPI PUSH2 0x70B PUSH2 0x60D JUMP JUMPDEST JUMPDEST DUP4 JUMPDEST DUP2 DUP2 LT ISZERO PUSH2 0x735 JUMPI DUP1 PUSH2 0x721 DUP9 DUP3 PUSH2 0x686 JUMP JUMPDEST DUP5 MSTORE PUSH1 0x20 DUP5 ADD SWAP4 POP POP PUSH1 0x40 DUP2 ADD SWAP1 POP PUSH2 0x70E JUMP JUMPDEST POP POP POP SWAP4 SWAP3 POP POP POP JUMP JUMPDEST PUSH1 0x0 DUP3 PUSH1 0x1F DUP4 ADD SLT PUSH2 0x754 JUMPI PUSH2 0x753 PUSH2 0x550 JUMP JUMPDEST JUMPDEST DUP2 CALLDATALOAD PUSH2 0x764 DUP5 DUP3 PUSH1 0x20 DUP7 ADD PUSH2 0x6D6 JUMP JUMPDEST SWAP2 POP POP SWAP3 SWAP2 POP POP JUMP JUMPDEST PUSH1 0x0 PUSH1 0x20 DUP3 DUP5 SUB SLT ISZERO PUSH2 0x783 JUMPI PUSH2 0x782 PUSH2 0x546 JUMP JUMPDEST JUMPDEST PUSH1 0x0 DUP3 ADD CALLDATALOAD PUSH8 0xFFFFFFFFFFFFFFFF DUP2 GT ISZERO PUSH2 0x7A1 JUMPI PUSH2 0x7A0 PUSH2 0x54B JUMP JUMPDEST JUMPDEST PUSH2 0x7AD DUP5 DUP3 DUP6 ADD PUSH2 0x73F JUMP JUMPDEST SWAP2 POP POP SWAP3 SWAP2 POP POP JUMP JUMPDEST PUSH1 0x0 DUP2 MLOAD SWAP1 POP SWAP2 SWAP1 POP JUMP JUMPDEST PUSH1 0x0 DUP3 DUP3 MSTORE PUSH1 0x20 DUP3 ADD SWAP1 POP SWAP3 SWAP2 POP POP JUMP JUMPDEST PUSH1 0x0 DUP2 SWAP1 POP PUSH1 0x20 DUP3 ADD SWAP1 POP SWAP2 SWAP1 POP JUMP JUMPDEST PUSH2 0x7EB DUP2 PUSH2 0x650 JUMP JUMPDEST DUP3 MSTORE POP POP JUMP JUMPDEST PUSH1 0x0 PUSH2 0x7FD DUP4 DUP4 PUSH2 0x7E2 JUMP JUMPDEST PUSH1 0x20 DUP4 ADD SWAP1 POP SWAP3 SWAP2 POP POP JUMP JUMPDEST PUSH1 0x0 PUSH1 0x20 DUP3 ADD SWAP1 POP SWAP2 SWAP1 POP JUMP JUMPDEST PUSH1 0x0 PUSH2 0x821 DUP3 PUSH2 0x7B6 JUMP JUMPDEST PUSH2 0x82B DUP2 DUP6 PUSH2 0x7C1 JUMP JUMPDEST SWAP4 POP PUSH2 0x836 DUP4 PUSH2 0x7D2 JUMP JUMPDEST DUP1 PUSH1 0x0 JUMPDEST DUP4 DUP2 LT ISZERO PUSH2 0x867 JUMPI DUP2 MLOAD PUSH2 0x84E DUP9 DUP3 PUSH2 0x7F1 JUMP JUMPDEST SWAP8 POP PUSH2 0x859 DUP4 PUSH2 0x809 JUMP JUMPDEST SWAP3 POP POP PUSH1 0x1 DUP2 ADD SWAP1 POP PUSH2 0x83A JUMP JUMPDEST POP DUP6 SWAP4 POP POP POP POP SWAP3 SWAP2 POP POP JUMP JUMPDEST PUSH1 0x0 PUSH1 0x20 DUP3 ADD SWAP1 POP DUP2 DUP2 SUB PUSH1 0x0 DUP4 ADD MSTORE PUSH2 0x88E DUP2 DUP5 PUSH2 0x816 JUMP JUMPDEST SWAP1 POP SWAP3 SWAP2 POP POP JUMP JUMPDEST PUSH32 0x4E487B7100000000000000000000000000000000000000000000000000000000 PUSH1 0x0 MSTORE PUSH1 0x32 PUSH1 0x4 MSTORE PUSH1 0x24 PUSH1 0x0 REVERT JUMPDEST PUSH32 0x4E487B7100000000000000000000000000000000000000000000000000000000 PUSH1 0x0 MSTORE PUSH1 0x11 PUSH1 0x4 MSTORE PUSH1 0x24 PUSH1 0x0 REVERT JUMPDEST PUSH1 0x0 PUSH2 0x8FF DUP3 PUSH2 0x650 JUMP JUMPDEST SWAP2 POP PUSH32 0xFFFFFFFFFFFFFFFFFFFFFFFFFFFFFFFFFFFFFFFFFFFFFFFFFFFFFFFFFFFFFFFF DUP3 SUB PUSH2 0x931 JUMPI PUSH2 0x930 PUSH2 0x8C5 JUMP JUMPDEST JUMPDEST PUSH1 0x1 DUP3 ADD SWAP1 POP SWAP2 SWAP1 POP JUMP JUMPDEST PUSH1 0x0 DUP3 DUP3 MSTORE PUSH1 0x20 DUP3 ADD SWAP1 POP SWAP3 SWAP2 POP POP JUMP JUMPDEST PUSH32 0x414444207265717569726573206174206C65617374203220737461636B206974 PUSH1 0x0 DUP3 ADD MSTORE PUSH32 0x656D730000000000000000000000000000000000000000000000000000000000 PUSH1 0x20 DUP3 ADD MSTORE POP JUMP JUMPDEST PUSH1 0x0 PUSH2 0x9A9 PUSH1 0x23 DUP4 PUSH2 0x93C JUMP JUMPDEST SWAP2 POP PUSH2 0x9B4 DUP3 PUSH2 0x94D JUMP JUMPDEST PUSH1 0x40 DUP3 ADD SWAP1 POP SWAP2 SWAP1 POP JUMP JUMPDEST PUSH1 0x0 PUSH1 0x20 DUP3 ADD SWAP1 POP DUP2 DUP2 SUB PUSH1 0x0 DUP4 ADD MSTORE PUSH2 0x9D8 DUP2 PUSH2 0x99C JUMP JUMPDEST SWAP1 POP SWAP2 SWAP1 POP JUMP JUMPDEST PUSH1 0x0 PUSH2 0x9EA DUP3 PUSH2 0x650 JUMP JUMPDEST SWAP2 POP PUSH2 0x9F5 DUP4 PUSH2 0x650 JUMP JUMPDEST SWAP3 POP DUP3 DUP3 SUB SWAP1 POP DUP2 DUP2 GT ISZERO PUSH2 0xA0D JUMPI PUSH2 0xA0C PUSH2 0x8C5 JUMP JUMPDEST JUMPDEST SWAP3 SWAP2 POP POP JUMP JUMPDEST PUSH1 0x0 PUSH2 0xA1E DUP3 PUSH2 0x650 JUMP JUMPDEST SWAP2 POP PUSH2 0xA29 DUP4 PUSH2 0x650 JUMP JUMPDEST SWAP3 POP DUP3 DUP3 ADD SWAP1 POP DUP1 DUP3 GT ISZERO PUSH2 0xA41 JUMPI PUSH2 0xA40 PUSH2 0x8C5 JUMP JUMPDEST JUMPDEST SWAP3 SWAP2 POP POP JUMP JUMPDEST PUSH32 0x455155414C207265717569726573206174206C65617374203220737461636B20 PUSH1 0x0 DUP3 ADD MSTORE PUSH32 0x6974656D73000000000000000000000000000000000000000000000000000000 PUSH1 0x20 DUP3 ADD MSTORE POP JUMP JUMPDEST PUSH1 0x0 PUSH2 0xAA3 PUSH1 0x25 DUP4 PUSH2 0x93C JUMP JUMPDEST SWAP2 POP PUSH2 0xAAE DUP3 PUSH2 0xA47 JUMP JUMPDEST PUSH1 0x40 DUP3 ADD SWAP1 POP SWAP2 SWAP1 POP JUMP JUMPDEST PUSH1 0x0 PUSH1 0x20 DUP3 ADD SWAP1 POP DUP2 DUP2 SUB PUSH1 0x0 DUP4 ADD MSTORE PUSH2 0xAD2 DUP2 PUSH2 0xA96 JUMP JUMPDEST SWAP1 POP SWAP2 SWAP1 POP JUMP JUMPDEST PUSH32 0x564552494659207265717569726573206174206C65617374203120737461636B PUSH1 0x0 DUP3 ADD MSTORE PUSH32 0x206974656D000000000000000000000000000000000000000000000000000000 PUSH1 0x20 DUP3 ADD MSTORE POP JUMP JUMPDEST PUSH1 0x0 PUSH2 0xB35 PUSH1 0x25 DUP4 PUSH2 0x93C JUMP JUMPDEST SWAP2 POP PUSH2 0xB40 DUP3 PUSH2 0xAD9 JUMP JUMPDEST PUSH1 0x40 DUP3 ADD SWAP1 POP SWAP2 SWAP1 POP JUMP JUMPDEST PUSH1 0x0 PUSH1 0x20 DUP3 ADD SWAP1 POP DUP2 DUP2 SUB PUSH1 0x0 DUP4 ADD MSTORE PUSH2 0xB64 DUP2 PUSH2 0xB28 JUMP JUMPDEST SWAP1 POP SWAP2 SWAP1 POP JUMP JUMPDEST PUSH1 0x0 PUSH2 0xB76 DUP3 PUSH2 0x650 JUMP JUMPDEST SWAP2 POP PUSH1 0x0 DUP3 SUB PUSH2 0xB89 JUMPI PUSH2 0xB88 PUSH2 0x8C5 JUMP JUMPDEST JUMPDEST PUSH1 0x1 DUP3 SUB SWAP1 POP SWAP2 SWAP1 POP JUMP JUMPDEST PUSH32 0x564552494659206661696C656400000000000000000000000000000000000000 PUSH1 0x0 DUP3 ADD MSTORE POP JUMP JUMPDEST PUSH1 0x0 PUSH2 0xBCA PUSH1 0xD DUP4 PUSH2 0x93C JUMP JUMPDEST SWAP2 POP PUSH2 0xBD5 DUP3 PUSH2 0xB94 JUMP JUMPDEST PUSH1 0x20 DUP3 ADD SWAP1 POP SWAP2 SWAP1 POP JUMP JUMPDEST PUSH1 0x0 PUSH1 0x20 DUP3 ADD SWAP1 POP DUP2 DUP2 SUB PUSH1 0x0 DUP4 ADD MSTORE PUSH2 0xBF9 DUP2 PUSH2 0xBBD JUMP JUMPDEST SWAP1 POP SWAP2 SWAP1 POP JUMP JUMPDEST PUSH32 0x556E6B6E6F776E206F70636F6465000000000000000000000000000000000000 PUSH1 0x0 DUP3 ADD MSTORE POP JUMP JUMPDEST PUSH1 0x0 PUSH2 0xC36 PUSH1 0xE DUP4 PUSH2 0x93C JUMP JUMPDEST SWAP2 POP PUSH2 0xC41 DUP3 PUSH2 0xC00 JUMP JUMPDEST PUSH1 0x20 DUP3 ADD SWAP1 POP SWAP2 SWAP1 POP JUMP JUMPDEST PUSH1 0x0 PUSH1 0x20 DUP3 ADD SWAP1 POP DUP2 DUP2 SUB PUSH1 0x0 DUP4 ADD MSTORE PUSH2 0xC65 DUP2 PUSH2 0xC29 JUMP JUMPDEST SWAP1 POP SWAP2 SWAP1 POP JUMP INVALID LOG2 PUSH5 0x6970667358 0x22 SLT KECCAK256 SWAP6 NUMBER LOG3 SWAP12 0xEB 0x4C SHL MUL SLT 0xF 0x2C PUSH32 0xB32803A6C0F9A98F9A054A88AC37321E9DA4CAD064736F6C6343000813003300 "
		},
		"gasEstimates": {
			"creation": {
				"codeDepositCost": "646800",
				"executionCost": "683",
				"totalCost": "647483"
			},
			"external": {
				"runProgram((uint8,uint256)[])": "infinite"
			}
		},
		"methodIdentifiers": {
			"runProgram((uint8,uint256)[])": "dfb7af19"
		}
	},
	"abi": [
		{
			"anonymous": false,
			"inputs": [
				{
					"indexed": false,
					"internalType": "uint256[]",
					"name": "finalStack",
					"type": "uint256[]"
				}
			],
			"name": "ProgramExecuted",
			"type": "event"
		},
		{
			"inputs": [
				{
					"components": [
						{
							"internalType": "uint8",
							"name": "opcode",
							"type": "uint8"
						},
						{
							"internalType": "uint256",
							"name": "operand",
							"type": "uint256"
						}
					],
					"internalType": "struct BitcoinVirtualMachine.Instruction[]",
					"name": "program",
					"type": "tuple[]"
				}
			],
			"name": "runProgram",
			"outputs": [
				{
					"internalType": "uint256[]",
					"name": "finalStack",
					"type": "uint256[]"
				}
			],
			"stateMutability": "nonpayable",
			"type": "function"
		}
	]
}