{
	"data": {
		"bytecode": {
			"linkReferences": {},
			"object": "608060405234801561001057600080fd5b50610371806100206000396000f3fe608060405234801561001057600080fd5b50600436106100415760003560e01c806336bcf7d6146100465780635fd9491d146100645780638aec854214610082575b600080fd5b61004e6100a0565b60405161005b9190610113565b60405180910390f35b61006c6100a9565b6040516100799190610113565b60405180910390f35b61008a6100b0565b6040516100979190610113565b60405180910390f35b64012a05f20081565b6203345081565b60008062033450436100c2919061018c565b9050604081106100d65760009150506100f7565b8060026100e391906102f0565b64012a05f2006100f3919061018c565b9150505b90565b6000819050919050565b61010d816100fa565b82525050565b60006020820190506101286000830184610104565b92915050565b7f4e487b7100000000000000000000000000000000000000000000000000000000600052601260045260246000fd5b7f4e487b7100000000000000000000000000000000000000000000000000000000600052601160045260246000fd5b6000610197826100fa565b91506101a2836100fa565b9250826101b2576101b161012e565b5b828204905092915050565b60008160011c9050919050565b6000808291508390505b6001851115610214578086048111156101f0576101ef61015d565b5b60018516156101ff5780820291505b808102905061020d856101bd565b94506101d4565b94509492505050565b60008261022d57600190506102e9565b8161023b57600090506102e9565b8160018114610251576002811461025b5761028a565b60019150506102e9565b60ff84111561026d5761026c61015d565b5b8360020a9150848211156102845761028361015d565b5b506102e9565b5060208310610133831016604e8410600b84101617156102bf5782820a9050838111156102ba576102b961015d565b5b6102e9565b6102cc84848460016101ca565b925090508184048111156102e3576102e261015d565b5b81810290505b9392505050565b60006102fb826100fa565b9150610306836100fa565b92506103337fffffffffffffffffffffffffffffffffffffffffffffffffffffffffffffffff848461021d565b90509291505056fea2646970667358221220aa64ad02ce92704a1f16dd144238df1cb8fcf2d9ef19391bfcc1256683537b7c64736f6c63430008130033",
			"opcodes": "PUSH1 0x80 PUSH1 0x40 MSTORE CALLVALUE DUP1 ISZERO PUSH2 0x10 JUMPI PUSH1 0x0 DUP1 REVERT JUMPDEST POP PUSH2 0x371 DUP1 PUSH2 0x20 PUSH1 0x0 CODECOPY PUSH1 0x0 RETURN INVALID PUSH1 0x80 PUSH1 0x40 MSTORE CALLVALUE DUP1 ISZERO PUSH2 0x10 JUMPI PUSH1 0x0 DUP1 REVERT JUMPDEST POP PUSH1 0x4 CALLDATASIZE LT PUSH2 0x41 JUMPI PUSH1 0x0 CALLDATALOAD PUSH1 0xE0 SHR DUP1 PUSH4 0x36BCF7D6 EQ PUSH2 0x46 JUMPI DUP1 PUSH4 0x5FD9491D EQ PUSH2 0x64 JUMPI DUP1 PUSH4 0x8AEC8542 EQ PUSH2 0x82 JUMPI JUMPDEST PUSH1 0x0 DUP1 REVERT JUMPDEST PUSH2 0x4E PUSH2 0xA0 JUMP JUMPDEST PUSH1 0x40 MLOAD PUSH2 0x5B SWAP2 SWAP1 PUSH2 0x113 JUMP JUMPDEST PUSH1 0x40 MLOAD DUP1 SWAP2 SUB SWAP1 RETURN JUMPDEST PUSH2 0x6C PUSH2 0xA9 JUMP JUMPDEST PUSH1 0x40 MLOAD PUSH2 0x79 SWAP2 SWAP1 PUSH2 0x113 JUMP JUMPDEST PUSH1 0x40 MLOAD DUP1 SWAP2 SUB SWAP1 RETURN JUMPDEST PUSH2 0x8A PUSH2 0xB0 JUMP JUMPDEST PUSH1 0x40 MLOAD PUSH2 0x97 SWAP2 SWAP1 PUSH2 0x113 JUMP JUMPDEST PUSH1 0x40 MLOAD DUP1 SWAP2 SUB SWAP1 RETURN JUMPDEST PUSH5 0x12A05F200 DUP2 JUMP JUMPDEST PUSH3 0x33450 DUP2 JUMP JUMPDEST PUSH1 0x0 DUP1 PUSH3 0x33450 NUMBER PUSH2 0xC2 SWAP2 SWAP1 PUSH2 0x18C JUMP JUMPDEST SWAP1 POP PUSH1 0x40 DUP2 LT PUSH2 0xD6 JUMPI PUSH1 0x0 SWAP2 POP POP PUSH2 0xF7 JUMP JUMPDEST DUP1 PUSH1 0x2 PUSH2 0xE3 SWAP2 SWAP1 PUSH2 0x2F0 JUMP JUMPDEST PUSH5 0x12A05F200 PUSH2 0xF3 SWAP2 SWAP1 PUSH2 0x18C JUMP JUMPDEST SWAP2 POP POP JUMPDEST SWAP1 JUMP JUMPDEST PUSH1 0x0 DUP2 SWAP1 POP SWAP2 SWAP1 POP JUMP JUMPDEST PUSH2 0x10D DUP2 PUSH2 0xFA JUMP JUMPDEST DUP3 MSTORE POP POP JUMP JUMPDEST PUSH1 0x0 PUSH1 0x20 DUP3 ADD SWAP1 POP PUSH2 0x128 PUSH1 0x0 DUP4 ADD DUP5 PUSH2 0x104 JUMP JUMPDEST SWAP3 SWAP2 POP POP JUMP JUMPDEST PUSH32 0x4E487B7100000000000000000000000000000000000000000000000000000000 PUSH1 0x0 MSTORE PUSH1 0x12 PUSH1 0x4 MSTORE PUSH1 0x24 PUSH1 0x0 REVERT JUMPDEST PUSH32 0x4E487B7100000000000000000000000000000000000000000000000000000000 PUSH1 0x0 MSTORE PUSH1 0x11 PUSH1 0x4 MSTORE PUSH1 0x24 PUSH1 0x0 REVERT JUMPDEST PUSH1 0x0 PUSH2 0x197 DUP3 PUSH2 0xFA JUMP JUMPDEST SWAP2 POP PUSH2 0x1A2 DUP4 PUSH2 0xFA JUMP JUMPDEST SWAP3 POP DUP3 PUSH2 0x1B2 JUMPI PUSH2 0x1B1 PUSH2 0x12E JUMP JUMPDEST JUMPDEST DUP3 DUP3 DIV SWAP1 POP SWAP3 SWAP2 POP POP JUMP JUMPDEST PUSH1 0x0 DUP2 PUSH1 0x1 SHR SWAP1 POP SWAP2 SWAP1 POP JUMP JUMPDEST PUSH1 0x0 DUP1 DUP3 SWAP2 POP DUP4 SWAP1 POP JUMPDEST PUSH1 0x1 DUP6 GT ISZERO PUSH2 0x214 JUMPI DUP1 DUP7 DIV DUP2 GT ISZERO PUSH2 0x1F0 JUMPI PUSH2 0x1EF PUSH2 0x15D JUMP JUMPDEST JUMPDEST PUSH1 0x1 DUP6 AND ISZERO PUSH2 0x1FF JUMPI DUP1 DUP3 MUL SWAP2 POP JUMPDEST DUP1 DUP2 MUL SWAP1 POP PUSH2 0x20D DUP6 PUSH2 0x1BD JUMP JUMPDEST SWAP5 POP PUSH2 0x1D4 JUMP JUMPDEST SWAP5 POP SWAP5 SWAP3 POP POP POP JUMP JUMPDEST PUSH1 0x0 DUP3 PUSH2 0x22D JUMPI PUSH1 0x1 SWAP1 POP PUSH2 0x2E9 JUMP JUMPDEST DUP2 PUSH2 0x23B JUMPI PUSH1 0x0 SWAP1 POP PUSH2 0x2E9 JUMP JUMPDEST DUP2 PUSH1 0x1 DUP2 EQ PUSH2 0x251 JUMPI PUSH1 0x2 DUP2 EQ PUSH2 0x25B JUMPI PUSH2 0x28A JUMP JUMPDEST PUSH1 0x1 SWAP2 POP POP PUSH2 0x2E9 JUMP JUMPDEST PUSH1 0xFF DUP5 GT ISZERO PUSH2 0x26D JUMPI PUSH2 0x26C PUSH2 0x15D JUMP JUMPDEST JUMPDEST DUP4 PUSH1 0x2 EXP SWAP2 POP DUP5 DUP3 GT ISZERO PUSH2 0x284 JUMPI PUSH2 0x283 PUSH2 0x15D JUMP JUMPDEST JUMPDEST POP PUSH2 0x2E9 JUMP JUMPDEST POP PUSH1 0x20 DUP4 LT PUSH2 0x133 DUP4 LT AND PUSH1 0x4E DUP5 LT PUSH1 0xB DUP5 LT AND OR ISZERO PUSH2 0x2BF JUMPI DUP3 DUP3 EXP SWAP1 POP DUP4 DUP2 GT ISZERO PUSH2 0x2BA JUMPI PUSH2 0x2B9 PUSH2 0x15D JUMP JUMPDEST JUMPDEST PUSH2 0x2E9 JUMP JUMPDEST PUSH2 0x2CC DUP5 DUP5 DUP5 PUSH1 0x1 PUSH2 0x1CA JUMP JUMPDEST SWAP3 POP SWAP1 POP DUP2 DUP5 DIV DUP2 GT ISZERO PUSH2 0x2E3 JUMPI PUSH2 0x2E2 PUSH2 0x15D JUMP JUMPDEST JUMPDEST DUP2 DUP2 MUL SWAP1 POP JUMPDEST SWAP4 SWAP3 POP POP POP JUMP JUMPDEST PUSH1 0x0 PUSH2 0x2FB DUP3 PUSH2 0xFA JUMP JUMPDEST SWAP2 POP PUSH2 0x306 DUP4 PUSH2 0xFA JUMP JUMPDEST SWAP3 POP PUSH2 0x333 PUSH32 0xFFFFFFFFFFFFFFFFFFFFFFFFFFFFFFFFFFFFFFFFFFFFFFFFFFFFFFFFFFFFFFFF DUP5 DUP5 PUSH2 0x21D JUMP JUMPDEST SWAP1 POP SWAP3 SWAP2 POP POP JUMP INVALID LOG2 PUSH5 0x6970667358 0x22 SLT KECCAK256 0xAA PUSH5 0xAD02CE9270 0x4A 0x1F AND 0xDD EQ TIMESTAMP CODESIZE 0xDF SHR 0xB8 0xFC CALLCODE 0xD9 0xEF NOT CODECOPY SHL 0xFC 0xC1 0x25 PUSH7 0x83537B7C64736F PUSH13 0x63430008130033000000000000 "
		},
		"gasEstimates": {
			"creation": {
				"codeDepositCost": "176200",
				"executionCost": "220",
				"totalCost": "176420"
			},
			"external": {
				"HALVING_INTERVAL()": "329",
				"INITIAL_REWARD()": "307",
				"getCurrentReward()": "infinite"
			}
		},
		"methodIdentifiers": {
			"HALVING_INTERVAL()": "5fd9491d",
			"INITIAL_REWARD()": "36bcf7d6",
			"getCurrentReward()": "8aec8542"
		}
	},
	"abi": [
		{
			"inputs": [],
			"name": "HALVING_INTERVAL",
			"outputs": [
				{
					"internalType": "uint256",
					"name": "",
					"type": "uint256"
				}
			],
			"stateMutability": "view",
			"type": "function"
		},
		{
			"inputs": [],
			"name": "INITIAL_REWARD",
			"outputs": [
				{
					"internalType": "uint256",
					"name": "",
					"type": "uint256"
				}
			],
			"stateMutability": "view",
			"type": "function"
		},
		{
			"inputs": [],
			"name": "getCurrentReward",
			"outputs": [
				{
					"internalType": "uint256",
					"name": "reward",
					"type": "uint256"
				}
			],
			"stateMutability": "view",
			"type": "function"
		}
	]
}