{
	"data": {
		"bytecode": {
			"linkReferences": {},
			"object": "60806040526040518060400160405280600481526020017f42756c6c00000000000000000000000000000000000000000000000000000000815250600190816200004a919062000345565b503480156200005857600080fd5b50336000806101000a81548173ffffffffffffffffffffffffffffffffffffffff021916908373ffffffffffffffffffffffffffffffffffffffff16021790555060405180610100016040528060d0815260200162000e0060d0913960029081620000c4919062000345565b506200042c565b600081519050919050565b7f4e487b7100000000000000000000000000000000000000000000000000000000600052604160045260246000fd5b7f4e487b7100000000000000000000000000000000000000000000000000000000600052602260045260246000fd5b600060028204905060018216806200014d57607f821691505b60208210810362000163576200016262000105565b5b50919050565b60008190508160005260206000209050919050565b60006020601f8301049050919050565b600082821b905092915050565b600060088302620001cd7fffffffffffffffffffffffffffffffffffffffffffffffffffffffffffffffff826200018e565b620001d986836200018e565b95508019841693508086168417925050509392505050565b6000819050919050565b6000819050919050565b600062000226620002206200021a84620001f1565b620001fb565b620001f1565b9050919050565b6000819050919050565b620002428362000205565b6200025a62000251826200022d565b8484546200019b565b825550505050565b600090565b6200027162000262565b6200027e81848462000237565b505050565b5b81811015620002a6576200029a60008262000267565b60018101905062000284565b5050565b601f821115620002f557620002bf8162000169565b620002ca846200017e565b81016020851015620002da578190505b620002f2620002e9856200017e565b83018262000283565b50505b505050565b600082821c905092915050565b60006200031a60001984600802620002fa565b1980831691505092915050565b600062000335838362000307565b9150826002028217905092915050565b6200035082620000cb565b67ffffffffffffffff8111156200036c576200036b620000d6565b5b62000378825462000134565b62000385828285620002aa565b600060209050601f831160018114620003bd5760008415620003a8578287015190505b620003b4858262000327565b86555062000424565b601f198416620003cd8662000169565b60005b82811015620003f757848901518255600182019150602085019450602081019050620003d0565b8683101562000417578489015162000413601f89168262000307565b8355505b6001600288020188555050505b505050505050565b6109c4806200043c6000396000f3fe608060405234801561001057600080fd5b50600436106100575760003560e01c8063195c1b131461005c5780636f3d24c7146100785780638da5cb5b14610096578063a10ffbed146100b4578063aab8f0a7146100d2575b600080fd5b610076600480360381019061007191906104f4565b6100f0565b005b6100806101c8565b60405161008d91906105bc565b60405180910390f35b61009e61025a565b6040516100ab919061061f565b60405180910390f35b6100bc61027e565b6040516100c991906105bc565b60405180910390f35b6100da61030c565b6040516100e791906105bc565b60405180910390f35b60008054906101000a900473ffffffffffffffffffffffffffffffffffffffff1673ffffffffffffffffffffffffffffffffffffffff163373ffffffffffffffffffffffffffffffffffffffff161461017e576040517f08c379a000000000000000000000000000000000000000000000000000000000815260040161017590610686565b60405180910390fd5b806002908161018d91906108bc565b507f96ea924c5f27b3ed219d414e5c1a477a3fe08f71fa2b1b7f837ec7138e119df1816040516101bd91906105bc565b60405180910390a150565b6060600280546101d7906106d5565b80601f0160208091040260200160405190810160405280929190818152602001828054610203906106d5565b80156102505780601f1061022557610100808354040283529160200191610250565b820191906000526020600020905b81548152906001019060200180831161023357829003601f168201915b5050505050905090565b60008054906101000a900473ffffffffffffffffffffffffffffffffffffffff1681565b6001805461028b906106d5565b80601f01602080910402602001604051908101604052809291908181526020018280546102b7906106d5565b80156103045780601f106102d957610100808354040283529160200191610304565b820191906000526020600020905b8154815290600101906020018083116102e757829003601f168201915b505050505081565b60028054610319906106d5565b80601f0160208091040260200160405190810160405280929190818152602001828054610345906106d5565b80156103925780601f1061036757610100808354040283529160200191610392565b820191906000526020600020905b81548152906001019060200180831161037557829003601f168201915b505050505081565b6000604051905090565b600080fd5b600080fd5b600080fd5b600080fd5b6000601f19601f8301169050919050565b7f4e487b7100000000000000000000000000000000000000000000000000000000600052604160045260246000fd5b610401826103b8565b810181811067ffffffffffffffff821117156104205761041f6103c9565b5b80604052505050565b600061043361039a565b905061043f82826103f8565b919050565b600067ffffffffffffffff82111561045f5761045e6103c9565b5b610468826103b8565b9050602081019050919050565b82818337600083830152505050565b600061049761049284610444565b610429565b9050828152602081018484840111156104b3576104b26103b3565b5b6104be848285610475565b509392505050565b600082601f8301126104db576104da6103ae565b5b81356104eb848260208601610484565b91505092915050565b60006020828403121561050a576105096103a4565b5b600082013567ffffffffffffffff811115610528576105276103a9565b5b610534848285016104c6565b91505092915050565b600081519050919050565b600082825260208201905092915050565b60005b8381101561057757808201518184015260208101905061055c565b60008484015250505050565b600061058e8261053d565b6105988185610548565b93506105a8818560208601610559565b6105b1816103b8565b840191505092915050565b600060208201905081810360008301526105d68184610583565b905092915050565b600073ffffffffffffffffffffffffffffffffffffffff82169050919050565b6000610609826105de565b9050919050565b610619816105fe565b82525050565b60006020820190506106346000830184610610565b92915050565b7f4e6f7420636f6e7472616374206f776e65720000000000000000000000000000600082015250565b6000610670601283610548565b915061067b8261063a565b602082019050919050565b6000602082019050818103600083015261069f81610663565b9050919050565b7f4e487b7100000000000000000000000000000000000000000000000000000000600052602260045260246000fd5b600060028204905060018216806106ed57607f821691505b602082108103610700576106ff6106a6565b5b50919050565b60008190508160005260206000209050919050565b60006020601f8301049050919050565b600082821b905092915050565b6000600883026107687fffffffffffffffffffffffffffffffffffffffffffffffffffffffffffffffff8261072b565b610772868361072b565b95508019841693508086168417925050509392505050565b6000819050919050565b6000819050919050565b60006107b96107b46107af8461078a565b610794565b61078a565b9050919050565b6000819050919050565b6107d38361079e565b6107e76107df826107c0565b848454610738565b825550505050565b600090565b6107fc6107ef565b6108078184846107ca565b505050565b5b8181101561082b576108206000826107f4565b60018101905061080d565b5050565b601f8211156108705761084181610706565b61084a8461071b565b81016020851015610859578190505b61086d6108658561071b565b83018261080c565b50505b505050565b600082821c905092915050565b600061089360001984600802610875565b1980831691505092915050565b60006108ac8383610882565b9150826002028217905092915050565b6108c58261053d565b67ffffffffffffffff8111156108de576108dd6103c9565b5b6108e882546106d5565b6108f382828561082f565b600060209050601f8311600181146109265760008415610914578287015190505b61091e85826108a0565b865550610986565b601f19841661093486610706565b60005b8281101561095c57848901518255600182019150602085019450602081019050610937565b868310156109795784890151610975601f891682610882565b8355505b6001600288020188555050505b50505050505056fea264697066735822122002f3de42ecc3efcccc7bc1e05487338ddd374d4051e9f65aa691fe9f9acca27964736f6c6343000813003341202742756c6c2720696e2063727970746f2072656665727320746f20616e20696e766573746f722077686f206973206f7074696d69737469632061626f7574206d61726b6574207472656e64732c20657870656374696e672061737365742070726963657320746f20726973652e2042756c6c6973682073656e74696d656e74207479706963616c6c792064726976657320696e6372656173656420627579696e672070726573737572652c20737570706f7274696e6720757077617264207072696365206d6f76656d656e74732e",
			"opcodes": "PUSH1 0x80 PUSH1 0x40 MSTORE PUSH1 0x40 MLOAD DUP1 PUSH1 0x40 ADD PUSH1 0x40 MSTORE DUP1 PUSH1 0x4 DUP2 MSTORE PUSH1 0x20 ADD PUSH32 0x42756C6C00000000000000000000000000000000000000000000000000000000 DUP2 MSTORE POP PUSH1 0x1 SWAP1 DUP2 PUSH3 0x4A SWAP2 SWAP1 PUSH3 0x345 JUMP JUMPDEST POP CALLVALUE DUP1 ISZERO PUSH3 0x58 JUMPI PUSH1 0x0 DUP1 REVERT JUMPDEST POP CALLER PUSH1 0x0 DUP1 PUSH2 0x100 EXP DUP2 SLOAD DUP2 PUSH20 0xFFFFFFFFFFFFFFFFFFFFFFFFFFFFFFFFFFFFFFFF MUL NOT AND SWAP1 DUP4 PUSH20 0xFFFFFFFFFFFFFFFFFFFFFFFFFFFFFFFFFFFFFFFF AND MUL OR SWAP1 SSTORE POP PUSH1 0x40 MLOAD DUP1 PUSH2 0x100 ADD PUSH1 0x40 MSTORE DUP1 PUSH1 0xD0 DUP2 MSTORE PUSH1 0x20 ADD PUSH3 0xE00 PUSH1 0xD0 SWAP2 CODECOPY PUSH1 0x2 SWAP1 DUP2 PUSH3 0xC4 SWAP2 SWAP1 PUSH3 0x345 JUMP JUMPDEST POP PUSH3 0x42C JUMP JUMPDEST PUSH1 0x0 DUP2 MLOAD SWAP1 POP SWAP2 SWAP1 POP JUMP JUMPDEST PUSH32 0x4E487B7100000000000000000000000000000000000000000000000000000000 PUSH1 0x0 MSTORE PUSH1 0x41 PUSH1 0x4 MSTORE PUSH1 0x24 PUSH1 0x0 REVERT JUMPDEST PUSH32 0x4E487B7100000000000000000000000000000000000000000000000000000000 PUSH1 0x0 MSTORE PUSH1 0x22 PUSH1 0x4 MSTORE PUSH1 0x24 PUSH1 0x0 REVERT JUMPDEST PUSH1 0x0 PUSH1 0x2 DUP3 DIV SWAP1 POP PUSH1 0x1 DUP3 AND DUP1 PUSH3 0x14D JUMPI PUSH1 0x7F DUP3 AND SWAP2 POP JUMPDEST PUSH1 0x20 DUP3 LT DUP2 SUB PUSH3 0x163 JUMPI PUSH3 0x162 PUSH3 0x105 JUMP JUMPDEST JUMPDEST POP SWAP2 SWAP1 POP JUMP JUMPDEST PUSH1 0x0 DUP2 SWAP1 POP DUP2 PUSH1 0x0 MSTORE PUSH1 0x20 PUSH1 0x0 KECCAK256 SWAP1 POP SWAP2 SWAP1 POP JUMP JUMPDEST PUSH1 0x0 PUSH1 0x20 PUSH1 0x1F DUP4 ADD DIV SWAP1 POP SWAP2 SWAP1 POP JUMP JUMPDEST PUSH1 0x0 DUP3 DUP3 SHL SWAP1 POP SWAP3 SWAP2 POP POP JUMP JUMPDEST PUSH1 0x0 PUSH1 0x8 DUP4 MUL PUSH3 0x1CD PUSH32 0xFFFFFFFFFFFFFFFFFFFFFFFFFFFFFFFFFFFFFFFFFFFFFFFFFFFFFFFFFFFFFFFF DUP3 PUSH3 0x18E JUMP JUMPDEST PUSH3 0x1D9 DUP7 DUP4 PUSH3 0x18E JUMP JUMPDEST SWAP6 POP DUP1 NOT DUP5 AND SWAP4 POP DUP1 DUP7 AND DUP5 OR SWAP3 POP POP POP SWAP4 SWAP3 POP POP POP JUMP JUMPDEST PUSH1 0x0 DUP2 SWAP1 POP SWAP2 SWAP1 POP JUMP JUMPDEST PUSH1 0x0 DUP2 SWAP1 POP SWAP2 SWAP1 POP JUMP JUMPDEST PUSH1 0x0 PUSH3 0x226 PUSH3 0x220 PUSH3 0x21A DUP5 PUSH3 0x1F1 JUMP JUMPDEST PUSH3 0x1FB JUMP JUMPDEST PUSH3 0x1F1 JUMP JUMPDEST SWAP1 POP SWAP2 SWAP1 POP JUMP JUMPDEST PUSH1 0x0 DUP2 SWAP1 POP SWAP2 SWAP1 POP JUMP JUMPDEST PUSH3 0x242 DUP4 PUSH3 0x205 JUMP JUMPDEST PUSH3 0x25A PUSH3 0x251 DUP3 PUSH3 0x22D JUMP JUMPDEST DUP5 DUP5 SLOAD PUSH3 0x19B JUMP JUMPDEST DUP3 SSTORE POP POP POP POP JUMP JUMPDEST PUSH1 0x0 SWAP1 JUMP JUMPDEST PUSH3 0x271 PUSH3 0x262 JUMP JUMPDEST PUSH3 0x27E DUP2 DUP5 DUP5 PUSH3 0x237 JUMP JUMPDEST POP POP POP JUMP JUMPDEST JUMPDEST DUP2 DUP2 LT ISZERO PUSH3 0x2A6 JUMPI PUSH3 0x29A PUSH1 0x0 DUP3 PUSH3 0x267 JUMP JUMPDEST PUSH1 0x1 DUP2 ADD SWAP1 POP PUSH3 0x284 JUMP JUMPDEST POP POP JUMP JUMPDEST PUSH1 0x1F DUP3 GT ISZERO PUSH3 0x2F5 JUMPI PUSH3 0x2BF DUP2 PUSH3 0x169 JUMP JUMPDEST PUSH3 0x2CA DUP5 PUSH3 0x17E JUMP JUMPDEST DUP2 ADD PUSH1 0x20 DUP6 LT ISZERO PUSH3 0x2DA JUMPI DUP2 SWAP1 POP JUMPDEST PUSH3 0x2F2 PUSH3 0x2E9 DUP6 PUSH3 0x17E JUMP JUMPDEST DUP4 ADD DUP3 PUSH3 0x283 JUMP JUMPDEST POP POP JUMPDEST POP POP POP JUMP JUMPDEST PUSH1 0x0 DUP3 DUP3 SHR SWAP1 POP SWAP3 SWAP2 POP POP JUMP JUMPDEST PUSH1 0x0 PUSH3 0x31A PUSH1 0x0 NOT DUP5 PUSH1 0x8 MUL PUSH3 0x2FA JUMP JUMPDEST NOT DUP1 DUP4 AND SWAP2 POP POP SWAP3 SWAP2 POP POP JUMP JUMPDEST PUSH1 0x0 PUSH3 0x335 DUP4 DUP4 PUSH3 0x307 JUMP JUMPDEST SWAP2 POP DUP3 PUSH1 0x2 MUL DUP3 OR SWAP1 POP SWAP3 SWAP2 POP POP JUMP JUMPDEST PUSH3 0x350 DUP3 PUSH3 0xCB JUMP JUMPDEST PUSH8 0xFFFFFFFFFFFFFFFF DUP2 GT ISZERO PUSH3 0x36C JUMPI PUSH3 0x36B PUSH3 0xD6 JUMP JUMPDEST JUMPDEST PUSH3 0x378 DUP3 SLOAD PUSH3 0x134 JUMP JUMPDEST PUSH3 0x385 DUP3 DUP3 DUP6 PUSH3 0x2AA JUMP JUMPDEST PUSH1 0x0 PUSH1 0x20 SWAP1 POP PUSH1 0x1F DUP4 GT PUSH1 0x1 DUP2 EQ PUSH3 0x3BD JUMPI PUSH1 0x0 DUP5 ISZERO PUSH3 0x3A8 JUMPI DUP3 DUP8 ADD MLOAD SWAP1 POP JUMPDEST PUSH3 0x3B4 DUP6 DUP3 PUSH3 0x327 JUMP JUMPDEST DUP7 SSTORE POP PUSH3 0x424 JUMP JUMPDEST PUSH1 0x1F NOT DUP5 AND PUSH3 0x3CD DUP7 PUSH3 0x169 JUMP JUMPDEST PUSH1 0x0 JUMPDEST DUP3 DUP2 LT ISZERO PUSH3 0x3F7 JUMPI DUP5 DUP10 ADD MLOAD DUP3 SSTORE PUSH1 0x1 DUP3 ADD SWAP2 POP PUSH1 0x20 DUP6 ADD SWAP5 POP PUSH1 0x20 DUP2 ADD SWAP1 POP PUSH3 0x3D0 JUMP JUMPDEST DUP7 DUP4 LT ISZERO PUSH3 0x417 JUMPI DUP5 DUP10 ADD MLOAD PUSH3 0x413 PUSH1 0x1F DUP10 AND DUP3 PUSH3 0x307 JUMP JUMPDEST DUP4 SSTORE POP JUMPDEST PUSH1 0x1 PUSH1 0x2 DUP9 MUL ADD DUP9 SSTORE POP POP POP JUMPDEST POP POP POP POP POP POP JUMP JUMPDEST PUSH2 0x9C4 DUP1 PUSH3 0x43C PUSH1 0x0 CODECOPY PUSH1 0x0 RETURN INVALID PUSH1 0x80 PUSH1 0x40 MSTORE CALLVALUE DUP1 ISZERO PUSH2 0x10 JUMPI PUSH1 0x0 DUP1 REVERT JUMPDEST POP PUSH1 0x4 CALLDATASIZE LT PUSH2 0x57 JUMPI PUSH1 0x0 CALLDATALOAD PUSH1 0xE0 SHR DUP1 PUSH4 0x195C1B13 EQ PUSH2 0x5C JUMPI DUP1 PUSH4 0x6F3D24C7 EQ PUSH2 0x78 JUMPI DUP1 PUSH4 0x8DA5CB5B EQ PUSH2 0x96 JUMPI DUP1 PUSH4 0xA10FFBED EQ PUSH2 0xB4 JUMPI DUP1 PUSH4 0xAAB8F0A7 EQ PUSH2 0xD2 JUMPI JUMPDEST PUSH1 0x0 DUP1 REVERT JUMPDEST PUSH2 0x76 PUSH1 0x4 DUP1 CALLDATASIZE SUB DUP2 ADD SWAP1 PUSH2 0x71 SWAP2 SWAP1 PUSH2 0x4F4 JUMP JUMPDEST PUSH2 0xF0 JUMP JUMPDEST STOP JUMPDEST PUSH2 0x80 PUSH2 0x1C8 JUMP JUMPDEST PUSH1 0x40 MLOAD PUSH2 0x8D SWAP2 SWAP1 PUSH2 0x5BC JUMP JUMPDEST PUSH1 0x40 MLOAD DUP1 SWAP2 SUB SWAP1 RETURN JUMPDEST PUSH2 0x9E PUSH2 0x25A JUMP JUMPDEST PUSH1 0x40 MLOAD PUSH2 0xAB SWAP2 SWAP1 PUSH2 0x61F JUMP JUMPDEST PUSH1 0x40 MLOAD DUP1 SWAP2 SUB SWAP1 RETURN JUMPDEST PUSH2 0xBC PUSH2 0x27E JUMP JUMPDEST PUSH1 0x40 MLOAD PUSH2 0xC9 SWAP2 SWAP1 PUSH2 0x5BC JUMP JUMPDEST PUSH1 0x40 MLOAD DUP1 SWAP2 SUB SWAP1 RETURN JUMPDEST PUSH2 0xDA PUSH2 0x30C JUMP JUMPDEST PUSH1 0x40 MLOAD PUSH2 0xE7 SWAP2 SWAP1 PUSH2 0x5BC JUMP JUMPDEST PUSH1 0x40 MLOAD DUP1 SWAP2 SUB SWAP1 RETURN JUMPDEST PUSH1 0x0 DUP1 SLOAD SWAP1 PUSH2 0x100 EXP SWAP1 DIV PUSH20 0xFFFFFFFFFFFFFFFFFFFFFFFFFFFFFFFFFFFFFFFF AND PUSH20 0xFFFFFFFFFFFFFFFFFFFFFFFFFFFFFFFFFFFFFFFF AND CALLER PUSH20 0xFFFFFFFFFFFFFFFFFFFFFFFFFFFFFFFFFFFFFFFF AND EQ PUSH2 0x17E JUMPI PUSH1 0x40 MLOAD PUSH32 0x8C379A000000000000000000000000000000000000000000000000000000000 DUP2 MSTORE PUSH1 0x4 ADD PUSH2 0x175 SWAP1 PUSH2 0x686 JUMP JUMPDEST PUSH1 0x40 MLOAD DUP1 SWAP2 SUB SWAP1 REVERT JUMPDEST DUP1 PUSH1 0x2 SWAP1 DUP2 PUSH2 0x18D SWAP2 SWAP1 PUSH2 0x8BC JUMP JUMPDEST POP PUSH32 0x96EA924C5F27B3ED219D414E5C1A477A3FE08F71FA2B1B7F837EC7138E119DF1 DUP2 PUSH1 0x40 MLOAD PUSH2 0x1BD SWAP2 SWAP1 PUSH2 0x5BC JUMP JUMPDEST PUSH1 0x40 MLOAD DUP1 SWAP2 SUB SWAP1 LOG1 POP JUMP JUMPDEST PUSH1 0x60 PUSH1 0x2 DUP1 SLOAD PUSH2 0x1D7 SWAP1 PUSH2 0x6D5 JUMP JUMPDEST DUP1 PUSH1 0x1F ADD PUSH1 0x20 DUP1 SWAP2 DIV MUL PUSH1 0x20 ADD PUSH1 0x40 MLOAD SWAP1 DUP2 ADD PUSH1 0x40 MSTORE DUP1 SWAP3 SWAP2 SWAP1 DUP2 DUP2 MSTORE PUSH1 0x20 ADD DUP3 DUP1 SLOAD PUSH2 0x203 SWAP1 PUSH2 0x6D5 JUMP JUMPDEST DUP1 ISZERO PUSH2 0x250 JUMPI DUP1 PUSH1 0x1F LT PUSH2 0x225 JUMPI PUSH2 0x100 DUP1 DUP4 SLOAD DIV MUL DUP4 MSTORE SWAP2 PUSH1 0x20 ADD SWAP2 PUSH2 0x250 JUMP JUMPDEST DUP3 ADD SWAP2 SWAP1 PUSH1 0x0 MSTORE PUSH1 0x20 PUSH1 0x0 KECCAK256 SWAP1 JUMPDEST DUP2 SLOAD DUP2 MSTORE SWAP1 PUSH1 0x1 ADD SWAP1 PUSH1 0x20 ADD DUP1 DUP4 GT PUSH2 0x233 JUMPI DUP3 SWAP1 SUB PUSH1 0x1F AND DUP3 ADD SWAP2 JUMPDEST POP POP POP POP POP SWAP1 POP SWAP1 JUMP JUMPDEST PUSH1 0x0 DUP1 SLOAD SWAP1 PUSH2 0x100 EXP SWAP1 DIV PUSH20 0xFFFFFFFFFFFFFFFFFFFFFFFFFFFFFFFFFFFFFFFF AND DUP2 JUMP JUMPDEST PUSH1 0x1 DUP1 SLOAD PUSH2 0x28B SWAP1 PUSH2 0x6D5 JUMP JUMPDEST DUP1 PUSH1 0x1F ADD PUSH1 0x20 DUP1 SWAP2 DIV MUL PUSH1 0x20 ADD PUSH1 0x40 MLOAD SWAP1 DUP2 ADD PUSH1 0x40 MSTORE DUP1 SWAP3 SWAP2 SWAP1 DUP2 DUP2 MSTORE PUSH1 0x20 ADD DUP3 DUP1 SLOAD PUSH2 0x2B7 SWAP1 PUSH2 0x6D5 JUMP JUMPDEST DUP1 ISZERO PUSH2 0x304 JUMPI DUP1 PUSH1 0x1F LT PUSH2 0x2D9 JUMPI PUSH2 0x100 DUP1 DUP4 SLOAD DIV MUL DUP4 MSTORE SWAP2 PUSH1 0x20 ADD SWAP2 PUSH2 0x304 JUMP JUMPDEST DUP3 ADD SWAP2 SWAP1 PUSH1 0x0 MSTORE PUSH1 0x20 PUSH1 0x0 KECCAK256 SWAP1 JUMPDEST DUP2 SLOAD DUP2 MSTORE SWAP1 PUSH1 0x1 ADD SWAP1 PUSH1 0x20 ADD DUP1 DUP4 GT PUSH2 0x2E7 JUMPI DUP3 SWAP1 SUB PUSH1 0x1F AND DUP3 ADD SWAP2 JUMPDEST POP POP POP POP POP DUP2 JUMP JUMPDEST PUSH1 0x2 DUP1 SLOAD PUSH2 0x319 SWAP1 PUSH2 0x6D5 JUMP JUMPDEST DUP1 PUSH1 0x1F ADD PUSH1 0x20 DUP1 SWAP2 DIV MUL PUSH1 0x20 ADD PUSH1 0x40 MLOAD SWAP1 DUP2 ADD PUSH1 0x40 MSTORE DUP1 SWAP3 SWAP2 SWAP1 DUP2 DUP2 MSTORE PUSH1 0x20 ADD DUP3 DUP1 SLOAD PUSH2 0x345 SWAP1 PUSH2 0x6D5 JUMP JUMPDEST DUP1 ISZERO PUSH2 0x392 JUMPI DUP1 PUSH1 0x1F LT PUSH2 0x367 JUMPI PUSH2 0x100 DUP1 DUP4 SLOAD DIV MUL DUP4 MSTORE SWAP2 PUSH1 0x20 ADD SWAP2 PUSH2 0x392 JUMP JUMPDEST DUP3 ADD SWAP2 SWAP1 PUSH1 0x0 MSTORE PUSH1 0x20 PUSH1 0x0 KECCAK256 SWAP1 JUMPDEST DUP2 SLOAD DUP2 MSTORE SWAP1 PUSH1 0x1 ADD SWAP1 PUSH1 0x20 ADD DUP1 DUP4 GT PUSH2 0x375 JUMPI DUP3 SWAP1 SUB PUSH1 0x1F AND DUP3 ADD SWAP2 JUMPDEST POP POP POP POP POP DUP2 JUMP JUMPDEST PUSH1 0x0 PUSH1 0x40 MLOAD SWAP1 POP SWAP1 JUMP JUMPDEST PUSH1 0x0 DUP1 REVERT JUMPDEST PUSH1 0x0 DUP1 REVERT JUMPDEST PUSH1 0x0 DUP1 REVERT JUMPDEST PUSH1 0x0 DUP1 REVERT JUMPDEST PUSH1 0x0 PUSH1 0x1F NOT PUSH1 0x1F DUP4 ADD AND SWAP1 POP SWAP2 SWAP1 POP JUMP JUMPDEST PUSH32 0x4E487B7100000000000000000000000000000000000000000000000000000000 PUSH1 0x0 MSTORE PUSH1 0x41 PUSH1 0x4 MSTORE PUSH1 0x24 PUSH1 0x0 REVERT JUMPDEST PUSH2 0x401 DUP3 PUSH2 0x3B8 JUMP JUMPDEST DUP2 ADD DUP2 DUP2 LT PUSH8 0xFFFFFFFFFFFFFFFF DUP3 GT OR ISZERO PUSH2 0x420 JUMPI PUSH2 0x41F PUSH2 0x3C9 JUMP JUMPDEST JUMPDEST DUP1 PUSH1 0x40 MSTORE POP POP POP JUMP JUMPDEST PUSH1 0x0 PUSH2 0x433 PUSH2 0x39A JUMP JUMPDEST SWAP1 POP PUSH2 0x43F DUP3 DUP3 PUSH2 0x3F8 JUMP JUMPDEST SWAP2 SWAP1 POP JUMP JUMPDEST PUSH1 0x0 PUSH8 0xFFFFFFFFFFFFFFFF DUP3 GT ISZERO PUSH2 0x45F JUMPI PUSH2 0x45E PUSH2 0x3C9 JUMP JUMPDEST JUMPDEST PUSH2 0x468 DUP3 PUSH2 0x3B8 JUMP JUMPDEST SWAP1 POP PUSH1 0x20 DUP2 ADD SWAP1 POP SWAP2 SWAP1 POP JUMP JUMPDEST DUP3 DUP2 DUP4 CALLDATACOPY PUSH1 0x0 DUP4 DUP4 ADD MSTORE POP POP POP JUMP JUMPDEST PUSH1 0x0 PUSH2 0x497 PUSH2 0x492 DUP5 PUSH2 0x444 JUMP JUMPDEST PUSH2 0x429 JUMP JUMPDEST SWAP1 POP DUP3 DUP2 MSTORE PUSH1 0x20 DUP2 ADD DUP5 DUP5 DUP5 ADD GT ISZERO PUSH2 0x4B3 JUMPI PUSH2 0x4B2 PUSH2 0x3B3 JUMP JUMPDEST JUMPDEST PUSH2 0x4BE DUP5 DUP3 DUP6 PUSH2 0x475 JUMP JUMPDEST POP SWAP4 SWAP3 POP POP POP JUMP JUMPDEST PUSH1 0x0 DUP3 PUSH1 0x1F DUP4 ADD SLT PUSH2 0x4DB JUMPI PUSH2 0x4DA PUSH2 0x3AE JUMP JUMPDEST JUMPDEST DUP2 CALLDATALOAD PUSH2 0x4EB DUP5 DUP3 PUSH1 0x20 DUP7 ADD PUSH2 0x484 JUMP JUMPDEST SWAP2 POP POP SWAP3 SWAP2 POP POP JUMP JUMPDEST PUSH1 0x0 PUSH1 0x20 DUP3 DUP5 SUB SLT ISZERO PUSH2 0x50A JUMPI PUSH2 0x509 PUSH2 0x3A4 JUMP JUMPDEST JUMPDEST PUSH1 0x0 DUP3 ADD CALLDATALOAD PUSH8 0xFFFFFFFFFFFFFFFF DUP2 GT ISZERO PUSH2 0x528 JUMPI PUSH2 0x527 PUSH2 0x3A9 JUMP JUMPDEST JUMPDEST PUSH2 0x534 DUP5 DUP3 DUP6 ADD PUSH2 0x4C6 JUMP JUMPDEST SWAP2 POP POP SWAP3 SWAP2 POP POP JUMP JUMPDEST PUSH1 0x0 DUP2 MLOAD SWAP1 POP SWAP2 SWAP1 POP JUMP JUMPDEST PUSH1 0x0 DUP3 DUP3 MSTORE PUSH1 0x20 DUP3 ADD SWAP1 POP SWAP3 SWAP2 POP POP JUMP JUMPDEST PUSH1 0x0 JUMPDEST DUP4 DUP2 LT ISZERO PUSH2 0x577 JUMPI DUP1 DUP3 ADD MLOAD DUP2 DUP5 ADD MSTORE PUSH1 0x20 DUP2 ADD SWAP1 POP PUSH2 0x55C JUMP JUMPDEST PUSH1 0x0 DUP5 DUP5 ADD MSTORE POP POP POP POP JUMP JUMPDEST PUSH1 0x0 PUSH2 0x58E DUP3 PUSH2 0x53D JUMP JUMPDEST PUSH2 0x598 DUP2 DUP6 PUSH2 0x548 JUMP JUMPDEST SWAP4 POP PUSH2 0x5A8 DUP2 DUP6 PUSH1 0x20 DUP7 ADD PUSH2 0x559 JUMP JUMPDEST PUSH2 0x5B1 DUP2 PUSH2 0x3B8 JUMP JUMPDEST DUP5 ADD SWAP2 POP POP SWAP3 SWAP2 POP POP JUMP JUMPDEST PUSH1 0x0 PUSH1 0x20 DUP3 ADD SWAP1 POP DUP2 DUP2 SUB PUSH1 0x0 DUP4 ADD MSTORE PUSH2 0x5D6 DUP2 DUP5 PUSH2 0x583 JUMP JUMPDEST SWAP1 POP SWAP3 SWAP2 POP POP JUMP JUMPDEST PUSH1 0x0 PUSH20 0xFFFFFFFFFFFFFFFFFFFFFFFFFFFFFFFFFFFFFFFF DUP3 AND SWAP1 POP SWAP2 SWAP1 POP JUMP JUMPDEST PUSH1 0x0 PUSH2 0x609 DUP3 PUSH2 0x5DE JUMP JUMPDEST SWAP1 POP SWAP2 SWAP1 POP JUMP JUMPDEST PUSH2 0x619 DUP2 PUSH2 0x5FE JUMP JUMPDEST DUP3 MSTORE POP POP JUMP JUMPDEST PUSH1 0x0 PUSH1 0x20 DUP3 ADD SWAP1 POP PUSH2 0x634 PUSH1 0x0 DUP4 ADD DUP5 PUSH2 0x610 JUMP JUMPDEST SWAP3 SWAP2 POP POP JUMP JUMPDEST PUSH32 0x4E6F7420636F6E7472616374206F776E65720000000000000000000000000000 PUSH1 0x0 DUP3 ADD MSTORE POP JUMP JUMPDEST PUSH1 0x0 PUSH2 0x670 PUSH1 0x12 DUP4 PUSH2 0x548 JUMP JUMPDEST SWAP2 POP PUSH2 0x67B DUP3 PUSH2 0x63A JUMP JUMPDEST PUSH1 0x20 DUP3 ADD SWAP1 POP SWAP2 SWAP1 POP JUMP JUMPDEST PUSH1 0x0 PUSH1 0x20 DUP3 ADD SWAP1 POP DUP2 DUP2 SUB PUSH1 0x0 DUP4 ADD MSTORE PUSH2 0x69F DUP2 PUSH2 0x663 JUMP JUMPDEST SWAP1 POP SWAP2 SWAP1 POP JUMP JUMPDEST PUSH32 0x4E487B7100000000000000000000000000000000000000000000000000000000 PUSH1 0x0 MSTORE PUSH1 0x22 PUSH1 0x4 MSTORE PUSH1 0x24 PUSH1 0x0 REVERT JUMPDEST PUSH1 0x0 PUSH1 0x2 DUP3 DIV SWAP1 POP PUSH1 0x1 DUP3 AND DUP1 PUSH2 0x6ED JUMPI PUSH1 0x7F DUP3 AND SWAP2 POP JUMPDEST PUSH1 0x20 DUP3 LT DUP2 SUB PUSH2 0x700 JUMPI PUSH2 0x6FF PUSH2 0x6A6 JUMP JUMPDEST JUMPDEST POP SWAP2 SWAP1 POP JUMP JUMPDEST PUSH1 0x0 DUP2 SWAP1 POP DUP2 PUSH1 0x0 MSTORE PUSH1 0x20 PUSH1 0x0 KECCAK256 SWAP1 POP SWAP2 SWAP1 POP JUMP JUMPDEST PUSH1 0x0 PUSH1 0x20 PUSH1 0x1F DUP4 ADD DIV SWAP1 POP SWAP2 SWAP1 POP JUMP JUMPDEST PUSH1 0x0 DUP3 DUP3 SHL SWAP1 POP SWAP3 SWAP2 POP POP JUMP JUMPDEST PUSH1 0x0 PUSH1 0x8 DUP4 MUL PUSH2 0x768 PUSH32 0xFFFFFFFFFFFFFFFFFFFFFFFFFFFFFFFFFFFFFFFFFFFFFFFFFFFFFFFFFFFFFFFF DUP3 PUSH2 0x72B JUMP JUMPDEST PUSH2 0x772 DUP7 DUP4 PUSH2 0x72B JUMP JUMPDEST SWAP6 POP DUP1 NOT DUP5 AND SWAP4 POP DUP1 DUP7 AND DUP5 OR SWAP3 POP POP POP SWAP4 SWAP3 POP POP POP JUMP JUMPDEST PUSH1 0x0 DUP2 SWAP1 POP SWAP2 SWAP1 POP JUMP JUMPDEST PUSH1 0x0 DUP2 SWAP1 POP SWAP2 SWAP1 POP JUMP JUMPDEST PUSH1 0x0 PUSH2 0x7B9 PUSH2 0x7B4 PUSH2 0x7AF DUP5 PUSH2 0x78A JUMP JUMPDEST PUSH2 0x794 JUMP JUMPDEST PUSH2 0x78A JUMP JUMPDEST SWAP1 POP SWAP2 SWAP1 POP JUMP JUMPDEST PUSH1 0x0 DUP2 SWAP1 POP SWAP2 SWAP1 POP JUMP JUMPDEST PUSH2 0x7D3 DUP4 PUSH2 0x79E JUMP JUMPDEST PUSH2 0x7E7 PUSH2 0x7DF DUP3 PUSH2 0x7C0 JUMP JUMPDEST DUP5 DUP5 SLOAD PUSH2 0x738 JUMP JUMPDEST DUP3 SSTORE POP POP POP POP JUMP JUMPDEST PUSH1 0x0 SWAP1 JUMP JUMPDEST PUSH2 0x7FC PUSH2 0x7EF JUMP JUMPDEST PUSH2 0x807 DUP2 DUP5 DUP5 PUSH2 0x7CA JUMP JUMPDEST POP POP POP JUMP JUMPDEST JUMPDEST DUP2 DUP2 LT ISZERO PUSH2 0x82B JUMPI PUSH2 0x820 PUSH1 0x0 DUP3 PUSH2 0x7F4 JUMP JUMPDEST PUSH1 0x1 DUP2 ADD SWAP1 POP PUSH2 0x80D JUMP JUMPDEST POP POP JUMP JUMPDEST PUSH1 0x1F DUP3 GT ISZERO PUSH2 0x870 JUMPI PUSH2 0x841 DUP2 PUSH2 0x706 JUMP JUMPDEST PUSH2 0x84A DUP5 PUSH2 0x71B JUMP JUMPDEST DUP2 ADD PUSH1 0x20 DUP6 LT ISZERO PUSH2 0x859 JUMPI DUP2 SWAP1 POP JUMPDEST PUSH2 0x86D PUSH2 0x865 DUP6 PUSH2 0x71B JUMP JUMPDEST DUP4 ADD DUP3 PUSH2 0x80C JUMP JUMPDEST POP POP JUMPDEST POP POP POP JUMP JUMPDEST PUSH1 0x0 DUP3 DUP3 SHR SWAP1 POP SWAP3 SWAP2 POP POP JUMP JUMPDEST PUSH1 0x0 PUSH2 0x893 PUSH1 0x0 NOT DUP5 PUSH1 0x8 MUL PUSH2 0x875 JUMP JUMPDEST NOT DUP1 DUP4 AND SWAP2 POP POP SWAP3 SWAP2 POP POP JUMP JUMPDEST PUSH1 0x0 PUSH2 0x8AC DUP4 DUP4 PUSH2 0x882 JUMP JUMPDEST SWAP2 POP DUP3 PUSH1 0x2 MUL DUP3 OR SWAP1 POP SWAP3 SWAP2 POP POP JUMP JUMPDEST PUSH2 0x8C5 DUP3 PUSH2 0x53D JUMP JUMPDEST PUSH8 0xFFFFFFFFFFFFFFFF DUP2 GT ISZERO PUSH2 0x8DE JUMPI PUSH2 0x8DD PUSH2 0x3C9 JUMP JUMPDEST JUMPDEST PUSH2 0x8E8 DUP3 SLOAD PUSH2 0x6D5 JUMP JUMPDEST PUSH2 0x8F3 DUP3 DUP3 DUP6 PUSH2 0x82F JUMP JUMPDEST PUSH1 0x0 PUSH1 0x20 SWAP1 POP PUSH1 0x1F DUP4 GT PUSH1 0x1 DUP2 EQ PUSH2 0x926 JUMPI PUSH1 0x0 DUP5 ISZERO PUSH2 0x914 JUMPI DUP3 DUP8 ADD MLOAD SWAP1 POP JUMPDEST PUSH2 0x91E DUP6 DUP3 PUSH2 0x8A0 JUMP JUMPDEST DUP7 SSTORE POP PUSH2 0x986 JUMP JUMPDEST PUSH1 0x1F NOT DUP5 AND PUSH2 0x934 DUP7 PUSH2 0x706 JUMP JUMPDEST PUSH1 0x0 JUMPDEST DUP3 DUP2 LT ISZERO PUSH2 0x95C JUMPI DUP5 DUP10 ADD MLOAD DUP3 SSTORE PUSH1 0x1 DUP3 ADD SWAP2 POP PUSH1 0x20 DUP6 ADD SWAP5 POP PUSH1 0x20 DUP2 ADD SWAP1 POP PUSH2 0x937 JUMP JUMPDEST DUP7 DUP4 LT ISZERO PUSH2 0x979 JUMPI DUP5 DUP10 ADD MLOAD PUSH2 0x975 PUSH1 0x1F DUP10 AND DUP3 PUSH2 0x882 JUMP JUMPDEST DUP4 SSTORE POP JUMPDEST PUSH1 0x1 PUSH1 0x2 DUP9 MUL ADD DUP9 SSTORE POP POP POP JUMPDEST POP POP POP POP POP POP JUMP INVALID LOG2 PUSH5 0x6970667358 0x22 SLT KECCAK256 MUL RETURN 0xDE TIMESTAMP 0xEC 0xC3 0xEF 0xCC 0xCC PUSH28 0xC1E05487338DDD374D4051E9F65AA691FE9F9ACCA27964736F6C6343 STOP ADDMOD SGT STOP CALLER COINBASE KECCAK256 0x27 TIMESTAMP PUSH22 0x6C6C2720696E2063727970746F207265666572732074 PUSH16 0x20616E20696E766573746F722077686F KECCAK256 PUSH10 0x73206F7074696D697374 PUSH10 0x632061626F7574206D61 PUSH19 0x6B6574207472656E64732C2065787065637469 PUSH15 0x672061737365742070726963657320 PUSH21 0x6F20726973652E2042756C6C6973682073656E7469 PUSH14 0x656E74207479706963616C6C7920 PUSH5 0x7269766573 KECCAK256 PUSH10 0x6E637265617365642062 PUSH22 0x79696E672070726573737572652C20737570706F7274 PUSH10 0x6E672075707761726420 PUSH17 0x72696365206D6F76656D656E74732E0000 "
		},
		"gasEstimates": {
			"creation": {
				"codeDepositCost": "500000",
				"executionCost": "infinite",
				"totalCost": "infinite"
			},
			"external": {
				"definition()": "infinite",
				"getDefinition()": "infinite",
				"owner()": "2533",
				"term()": "infinite",
				"updateDefinition(string)": "infinite"
			}
		},
		"methodIdentifiers": {
			"definition()": "aab8f0a7",
			"getDefinition()": "6f3d24c7",
			"owner()": "8da5cb5b",
			"term()": "a10ffbed",
			"updateDefinition(string)": "195c1b13"
		}
	},
	"abi": [
		{
			"inputs": [],
			"stateMutability": "nonpayable",
			"type": "constructor"
		},
		{
			"anonymous": false,
			"inputs": [
				{
					"indexed": false,
					"internalType": "string",
					"name": "newDefinition",
					"type": "string"
				}
			],
			"name": "DefinitionUpdated",
			"type": "event"
		},
		{
			"inputs": [],
			"name": "definition",
			"outputs": [
				{
					"internalType": "string",
					"name": "",
					"type": "string"
				}
			],
			"stateMutability": "view",
			"type": "function"
		},
		{
			"inputs": [],
			"name": "getDefinition",
			"outputs": [
				{
					"internalType": "string",
					"name": "",
					"type": "string"
				}
			],
			"stateMutability": "view",
			"type": "function"
		},
		{
			"inputs": [],
			"name": "owner",
			"outputs": [
				{
					"internalType": "address",
					"name": "",
					"type": "address"
				}
			],
			"stateMutability": "view",
			"type": "function"
		},
		{
			"inputs": [],
			"name": "term",
			"outputs": [
				{
					"internalType": "string",
					"name": "",
					"type": "string"
				}
			],
			"stateMutability": "view",
			"type": "function"
		},
		{
			"inputs": [
				{
					"internalType": "string",
					"name": "newDefinition",
					"type": "string"
				}
			],
			"name": "updateDefinition",
			"outputs": [],
			"stateMutability": "nonpayable",
			"type": "function"
		}
	]
}