{
	"I/initialBountyOfferingTypes/tieredIBO.sol": {
		"TieredIBO": {
			"abi": [
				{
					"inputs": [
						{
							"internalType": "address",
							"name": "_token",
							"type": "address"
						},
						{
							"internalType": "uint256",
							"name": "_rewardPool",
							"type": "uint256"
						}
					],
					"stateMutability": "nonpayable",
					"type": "constructor"
				},
				{
					"inputs": [
						{
							"internalType": "address",
							"name": "owner",
							"type": "address"
						}
					],
					"name": "OwnableInvalidOwner",
					"type": "error"
				},
				{
					"inputs": [
						{
							"internalType": "address",
							"name": "account",
							"type": "address"
						}
					],
					"name": "OwnableUnauthorizedAccount",
					"type": "error"
				},
				{
					"anonymous": false,
					"inputs": [
						{
							"indexed": true,
							"internalType": "address",
							"name": "user",
							"type": "address"
						},
						{
							"indexed": false,
							"internalType": "uint8",
							"name": "category",
							"type": "uint8"
						},
						{
							"indexed": false,
							"internalType": "uint256",
							"name": "points",
							"type": "uint256"
						}
					],
					"name": "BountyAssigned",
					"type": "event"
				},
				{
					"anonymous": false,
					"inputs": [
						{
							"indexed": false,
							"internalType": "bool",
							"name": "status",
							"type": "bool"
						}
					],
					"name": "ClaimingToggled",
					"type": "event"
				},
				{
					"anonymous": false,
					"inputs": [
						{
							"indexed": true,
							"internalType": "address",
							"name": "previousOwner",
							"type": "address"
						},
						{
							"indexed": true,
							"internalType": "address",
							"name": "newOwner",
							"type": "address"
						}
					],
					"name": "OwnershipTransferred",
					"type": "event"
				},
				{
					"anonymous": false,
					"inputs": [
						{
							"indexed": true,
							"internalType": "address",
							"name": "user",
							"type": "address"
						},
						{
							"indexed": false,
							"internalType": "uint256",
							"name": "amount",
							"type": "uint256"
						}
					],
					"name": "TokensClaimed",
					"type": "event"
				},
				{
					"inputs": [],
					"name": "NUM_CATEGORIES",
					"outputs": [
						{
							"internalType": "uint8",
							"name": "",
							"type": "uint8"
						}
					],
					"stateMutability": "view",
					"type": "function"
				},
				{
					"inputs": [
						{
							"internalType": "address",
							"name": "user",
							"type": "address"
						},
						{
							"internalType": "uint8",
							"name": "category",
							"type": "uint8"
						},
						{
							"internalType": "uint256",
							"name": "points",
							"type": "uint256"
						}
					],
					"name": "assignBounty",
					"outputs": [],
					"stateMutability": "nonpayable",
					"type": "function"
				},
				{
					"inputs": [],
					"name": "claimTokens",
					"outputs": [],
					"stateMutability": "nonpayable",
					"type": "function"
				},
				{
					"inputs": [
						{
							"internalType": "address",
							"name": "",
							"type": "address"
						}
					],
					"name": "claimed",
					"outputs": [
						{
							"internalType": "bool",
							"name": "",
							"type": "bool"
						}
					],
					"stateMutability": "view",
					"type": "function"
				},
				{
					"inputs": [],
					"name": "claimingEnabled",
					"outputs": [
						{
							"internalType": "bool",
							"name": "",
							"type": "bool"
						}
					],
					"stateMutability": "view",
					"type": "function"
				},
				{
					"inputs": [
						{
							"internalType": "uint256",
							"name": "amount",
							"type": "uint256"
						}
					],
					"name": "depositRewardPool",
					"outputs": [],
					"stateMutability": "nonpayable",
					"type": "function"
				},
				{
					"inputs": [],
					"name": "owner",
					"outputs": [
						{
							"internalType": "address",
							"name": "",
							"type": "address"
						}
					],
					"stateMutability": "view",
					"type": "function"
				},
				{
					"inputs": [],
					"name": "renounceOwnership",
					"outputs": [],
					"stateMutability": "nonpayable",
					"type": "function"
				},
				{
					"inputs": [],
					"name": "rewardToken",
					"outputs": [
						{
							"internalType": "contract IERC20",
							"name": "",
							"type": "address"
						}
					],
					"stateMutability": "view",
					"type": "function"
				},
				{
					"inputs": [
						{
							"internalType": "bool",
							"name": "_status",
							"type": "bool"
						}
					],
					"name": "toggleClaiming",
					"outputs": [],
					"stateMutability": "nonpayable",
					"type": "function"
				},
				{
					"inputs": [
						{
							"internalType": "uint8",
							"name": "",
							"type": "uint8"
						}
					],
					"name": "totalPointsPerCategory",
					"outputs": [
						{
							"internalType": "uint256",
							"name": "",
							"type": "uint256"
						}
					],
					"stateMutability": "view",
					"type": "function"
				},
				{
					"inputs": [],
					"name": "totalRewardPool",
					"outputs": [
						{
							"internalType": "uint256",
							"name": "",
							"type": "uint256"
						}
					],
					"stateMutability": "view",
					"type": "function"
				},
				{
					"inputs": [
						{
							"internalType": "address",
							"name": "newOwner",
							"type": "address"
						}
					],
					"name": "transferOwnership",
					"outputs": [],
					"stateMutability": "nonpayable",
					"type": "function"
				},
				{
					"inputs": [
						{
							"internalType": "address",
							"name": "",
							"type": "address"
						},
						{
							"internalType": "uint8",
							"name": "",
							"type": "uint8"
						}
					],
					"name": "userPoints",
					"outputs": [
						{
							"internalType": "uint256",
							"name": "",
							"type": "uint256"
						}
					],
					"stateMutability": "view",
					"type": "function"
				},
				{
					"inputs": [
						{
							"internalType": "address",
							"name": "to",
							"type": "address"
						}
					],
					"name": "withdrawUnclaimed",
					"outputs": [],
					"stateMutability": "nonpayable",
					"type": "function"
				}
			],
			"devdoc": {
				"errors": {
					"OwnableInvalidOwner(address)": [
						{
							"details": "The owner is not a valid owner account. (eg. `address(0)`)"
						}
					],
					"OwnableUnauthorizedAccount(address)": [
						{
							"details": "The caller account is not authorized to perform an operation."
						}
					]
				},
				"kind": "dev",
				"methods": {
					"owner()": {
						"details": "Returns the address of the current owner."
					},
					"renounceOwnership()": {
						"details": "Leaves the contract without owner. It will not be possible to call `onlyOwner` functions. Can only be called by the current owner. NOTE: Renouncing ownership will leave the contract without an owner, thereby disabling any functionality that is only available to the owner."
					},
					"transferOwnership(address)": {
						"details": "Transfers ownership of the contract to a new account (`newOwner`). Can only be called by the current owner."
					}
				},
				"title": "Tiered Initial Bounty Offering (IBO)",
				"version": 1
			},
			"evm": {
				"assembly": "    /* \"I/initialBountyOfferingTypes/tieredIBO.sol\":322:2761  contract TieredIBO is Ownable {... */\n  mstore(0x40, 0x80)\n    /* \"I/initialBountyOfferingTypes/tieredIBO.sol\":933:1086  constructor(address _token, uint256 _rewardPool) Ownable(msg.sender) {... */\n  callvalue\n  dup1\n  iszero\n  tag_1\n  jumpi\n  revert(0x00, 0x00)\ntag_1:\n  pop\n  mload(0x40)\n  sub(codesize, bytecodeSize)\n  dup1\n  bytecodeSize\n  dup4\n  codecopy\n  dup2\n  dup2\n  add\n  0x40\n  mstore\n  dup2\n  add\n  swap1\n  tag_2\n  swap2\n  swap1\n  tag_3\n  jump\t// in\ntag_2:\n    /* \"I/initialBountyOfferingTypes/tieredIBO.sol\":990:1000  msg.sender */\n  caller\n    /* \"@openzeppelin/contracts/access/Ownable.sol\":1297:1298  0 */\n  0x00\n    /* \"@openzeppelin/contracts/access/Ownable.sol\":1273:1299  initialOwner == address(0) */\n  0xffffffffffffffffffffffffffffffffffffffff\n  and\n    /* \"@openzeppelin/contracts/access/Ownable.sol\":1273:1285  initialOwner */\n  dup2\n    /* \"@openzeppelin/contracts/access/Ownable.sol\":1273:1299  initialOwner == address(0) */\n  0xffffffffffffffffffffffffffffffffffffffff\n  and\n  sub\n    /* \"@openzeppelin/contracts/access/Ownable.sol\":1269:1364  if (initialOwner == address(0)) {... */\n  tag_7\n  jumpi\n    /* \"@openzeppelin/contracts/access/Ownable.sol\":1350:1351  0 */\n  0x00\n    /* \"@openzeppelin/contracts/access/Ownable.sol\":1322:1353  OwnableInvalidOwner(address(0)) */\n  mload(0x40)\n  0x1e4fbdf700000000000000000000000000000000000000000000000000000000\n  dup2\n  mstore\n  0x04\n  add\n  tag_8\n  swap2\n  swap1\n  tag_9\n  jump\t// in\ntag_8:\n  mload(0x40)\n  dup1\n  swap2\n  sub\n  swap1\n  revert\n    /* \"@openzeppelin/contracts/access/Ownable.sol\":1269:1364  if (initialOwner == address(0)) {... */\ntag_7:\n    /* \"@openzeppelin/contracts/access/Ownable.sol\":1373:1405  _transferOwnership(initialOwner) */\n  tag_10\n    /* \"@openzeppelin/contracts/access/Ownable.sol\":1392:1404  initialOwner */\n  dup2\n    /* \"@openzeppelin/contracts/access/Ownable.sol\":1373:1391  _transferOwnership */\n  shl(0x20, tag_11)\n    /* \"@openzeppelin/contracts/access/Ownable.sol\":1373:1405  _transferOwnership(initialOwner) */\n  0x20\n  shr\n  jump\t// in\ntag_10:\n    /* \"@openzeppelin/contracts/access/Ownable.sol\":1225:1412  constructor(address initialOwner) {... */\n  pop\n    /* \"I/initialBountyOfferingTypes/tieredIBO.sol\":1033:1039  _token */\n  dup2\n    /* \"I/initialBountyOfferingTypes/tieredIBO.sol\":1012:1023  rewardToken */\n  0x01\n  0x00\n    /* \"I/initialBountyOfferingTypes/tieredIBO.sol\":1012:1040  rewardToken = IERC20(_token) */\n  0x0100\n  exp\n  dup2\n  sload\n  dup2\n  0xffffffffffffffffffffffffffffffffffffffff\n  mul\n  not\n  and\n  swap1\n  dup4\n  0xffffffffffffffffffffffffffffffffffffffff\n  and\n  mul\n  or\n  swap1\n  sstore\n  pop\n    /* \"I/initialBountyOfferingTypes/tieredIBO.sol\":1068:1079  _rewardPool */\n  dup1\n    /* \"I/initialBountyOfferingTypes/tieredIBO.sol\":1050:1065  totalRewardPool */\n  0x02\n    /* \"I/initialBountyOfferingTypes/tieredIBO.sol\":1050:1079  totalRewardPool = _rewardPool */\n  dup2\n  swap1\n  sstore\n  pop\n    /* \"I/initialBountyOfferingTypes/tieredIBO.sol\":933:1086  constructor(address _token, uint256 _rewardPool) Ownable(msg.sender) {... */\n  pop\n  pop\n    /* \"I/initialBountyOfferingTypes/tieredIBO.sol\":322:2761  contract TieredIBO is Ownable {... */\n  jump(tag_13)\n    /* \"@openzeppelin/contracts/access/Ownable.sol\":2912:3099  function _transferOwnership(address newOwner) internal virtual {... */\ntag_11:\n    /* \"@openzeppelin/contracts/access/Ownable.sol\":2985:3001  address oldOwner */\n  0x00\n    /* \"@openzeppelin/contracts/access/Ownable.sol\":3004:3010  _owner */\n  0x00\n  0x00\n  swap1\n  sload\n  swap1\n  0x0100\n  exp\n  swap1\n  div\n  0xffffffffffffffffffffffffffffffffffffffff\n  and\n    /* \"@openzeppelin/contracts/access/Ownable.sol\":2985:3010  address oldOwner = _owner */\n  swap1\n  pop\n    /* \"@openzeppelin/contracts/access/Ownable.sol\":3029:3037  newOwner */\n  dup2\n    /* \"@openzeppelin/contracts/access/Ownable.sol\":3020:3026  _owner */\n  0x00\n  0x00\n    /* \"@openzeppelin/contracts/access/Ownable.sol\":3020:3037  _owner = newOwner */\n  0x0100\n  exp\n  dup2\n  sload\n  dup2\n  0xffffffffffffffffffffffffffffffffffffffff\n  mul\n  not\n  and\n  swap1\n  dup4\n  0xffffffffffffffffffffffffffffffffffffffff\n  and\n  mul\n  or\n  swap1\n  sstore\n  pop\n    /* \"@openzeppelin/contracts/access/Ownable.sol\":3083:3091  newOwner */\n  dup2\n    /* \"@openzeppelin/contracts/access/Ownable.sol\":3052:3092  OwnershipTransferred(oldOwner, newOwner) */\n  0xffffffffffffffffffffffffffffffffffffffff\n  and\n    /* \"@openzeppelin/contracts/access/Ownable.sol\":3073:3081  oldOwner */\n  dup2\n    /* \"@openzeppelin/contracts/access/Ownable.sol\":3052:3092  OwnershipTransferred(oldOwner, newOwner) */\n  0xffffffffffffffffffffffffffffffffffffffff\n  and\n  0x8be0079c531659141344cd1fd0a4f28419497f9722a3daafe3b4186f6b6457e0\n  mload(0x40)\n  mload(0x40)\n  dup1\n  swap2\n  sub\n  swap1\n  log3\n    /* \"@openzeppelin/contracts/access/Ownable.sol\":2975:3099  {... */\n  pop\n    /* \"@openzeppelin/contracts/access/Ownable.sol\":2912:3099  function _transferOwnership(address newOwner) internal virtual {... */\n  pop\n  jump\t// out\n    /* \"#utility.yul\":88:205   */\ntag_16:\n    /* \"#utility.yul\":197:198   */\n  0x00\n    /* \"#utility.yul\":194:195   */\n  0x00\n    /* \"#utility.yul\":187:199   */\n  revert\n    /* \"#utility.yul\":334:460   */\ntag_18:\n    /* \"#utility.yul\":371:378   */\n  0x00\n    /* \"#utility.yul\":411:453   */\n  0xffffffffffffffffffffffffffffffffffffffff\n    /* \"#utility.yul\":404:409   */\n  dup3\n    /* \"#utility.yul\":400:454   */\n  and\n    /* \"#utility.yul\":389:454   */\n  swap1\n  pop\n    /* \"#utility.yul\":334:460   */\n  swap2\n  swap1\n  pop\n  jump\t// out\n    /* \"#utility.yul\":466:562   */\ntag_19:\n    /* \"#utility.yul\":503:510   */\n  0x00\n    /* \"#utility.yul\":532:556   */\n  tag_32\n    /* \"#utility.yul\":550:555   */\n  dup3\n    /* \"#utility.yul\":532:556   */\n  tag_18\n  jump\t// in\ntag_32:\n    /* \"#utility.yul\":521:556   */\n  swap1\n  pop\n    /* \"#utility.yul\":466:562   */\n  swap2\n  swap1\n  pop\n  jump\t// out\n    /* \"#utility.yul\":568:690   */\ntag_20:\n    /* \"#utility.yul\":641:665   */\n  tag_34\n    /* \"#utility.yul\":659:664   */\n  dup2\n    /* \"#utility.yul\":641:665   */\n  tag_19\n  jump\t// in\ntag_34:\n    /* \"#utility.yul\":634:639   */\n  dup2\n    /* \"#utility.yul\":631:666   */\n  eq\n    /* \"#utility.yul\":621:684   */\n  tag_35\n  jumpi\n    /* \"#utility.yul\":680:681   */\n  0x00\n    /* \"#utility.yul\":677:678   */\n  0x00\n    /* \"#utility.yul\":670:682   */\n  revert\n    /* \"#utility.yul\":621:684   */\ntag_35:\n    /* \"#utility.yul\":568:690   */\n  pop\n  jump\t// out\n    /* \"#utility.yul\":696:839   */\ntag_21:\n    /* \"#utility.yul\":753:758   */\n  0x00\n    /* \"#utility.yul\":784:790   */\n  dup2\n    /* \"#utility.yul\":778:791   */\n  mload\n    /* \"#utility.yul\":769:791   */\n  swap1\n  pop\n    /* \"#utility.yul\":800:833   */\n  tag_37\n    /* \"#utility.yul\":827:832   */\n  dup2\n    /* \"#utility.yul\":800:833   */\n  tag_20\n  jump\t// in\ntag_37:\n    /* \"#utility.yul\":696:839   */\n  swap3\n  swap2\n  pop\n  pop\n  jump\t// out\n    /* \"#utility.yul\":845:922   */\ntag_22:\n    /* \"#utility.yul\":882:889   */\n  0x00\n    /* \"#utility.yul\":911:916   */\n  dup2\n    /* \"#utility.yul\":900:916   */\n  swap1\n  pop\n    /* \"#utility.yul\":845:922   */\n  swap2\n  swap1\n  pop\n  jump\t// out\n    /* \"#utility.yul\":928:1050   */\ntag_23:\n    /* \"#utility.yul\":1001:1025   */\n  tag_40\n    /* \"#utility.yul\":1019:1024   */\n  dup2\n    /* \"#utility.yul\":1001:1025   */\n  tag_22\n  jump\t// in\ntag_40:\n    /* \"#utility.yul\":994:999   */\n  dup2\n    /* \"#utility.yul\":991:1026   */\n  eq\n    /* \"#utility.yul\":981:1044   */\n  tag_41\n  jumpi\n    /* \"#utility.yul\":1040:1041   */\n  0x00\n    /* \"#utility.yul\":1037:1038   */\n  0x00\n    /* \"#utility.yul\":1030:1042   */\n  revert\n    /* \"#utility.yul\":981:1044   */\ntag_41:\n    /* \"#utility.yul\":928:1050   */\n  pop\n  jump\t// out\n    /* \"#utility.yul\":1056:1199   */\ntag_24:\n    /* \"#utility.yul\":1113:1118   */\n  0x00\n    /* \"#utility.yul\":1144:1150   */\n  dup2\n    /* \"#utility.yul\":1138:1151   */\n  mload\n    /* \"#utility.yul\":1129:1151   */\n  swap1\n  pop\n    /* \"#utility.yul\":1160:1193   */\n  tag_43\n    /* \"#utility.yul\":1187:1192   */\n  dup2\n    /* \"#utility.yul\":1160:1193   */\n  tag_23\n  jump\t// in\ntag_43:\n    /* \"#utility.yul\":1056:1199   */\n  swap3\n  swap2\n  pop\n  pop\n  jump\t// out\n    /* \"#utility.yul\":1205:1712   */\ntag_3:\n    /* \"#utility.yul\":1284:1290   */\n  0x00\n    /* \"#utility.yul\":1292:1298   */\n  0x00\n    /* \"#utility.yul\":1341:1343   */\n  0x40\n    /* \"#utility.yul\":1329:1338   */\n  dup4\n    /* \"#utility.yul\":1320:1327   */\n  dup6\n    /* \"#utility.yul\":1316:1339   */\n  sub\n    /* \"#utility.yul\":1312:1344   */\n  slt\n    /* \"#utility.yul\":1309:1428   */\n  iszero\n  tag_45\n  jumpi\n    /* \"#utility.yul\":1347:1426   */\n  tag_46\n  tag_16\n  jump\t// in\ntag_46:\n    /* \"#utility.yul\":1309:1428   */\ntag_45:\n    /* \"#utility.yul\":1467:1468   */\n  0x00\n    /* \"#utility.yul\":1492:1556   */\n  tag_47\n    /* \"#utility.yul\":1548:1555   */\n  dup6\n    /* \"#utility.yul\":1539:1545   */\n  dup3\n    /* \"#utility.yul\":1528:1537   */\n  dup7\n    /* \"#utility.yul\":1524:1546   */\n  add\n    /* \"#utility.yul\":1492:1556   */\n  tag_21\n  jump\t// in\ntag_47:\n    /* \"#utility.yul\":1482:1556   */\n  swap3\n  pop\n    /* \"#utility.yul\":1438:1566   */\n  pop\n    /* \"#utility.yul\":1605:1607   */\n  0x20\n    /* \"#utility.yul\":1631:1695   */\n  tag_48\n    /* \"#utility.yul\":1687:1694   */\n  dup6\n    /* \"#utility.yul\":1678:1684   */\n  dup3\n    /* \"#utility.yul\":1667:1676   */\n  dup7\n    /* \"#utility.yul\":1663:1685   */\n  add\n    /* \"#utility.yul\":1631:1695   */\n  tag_24\n  jump\t// in\ntag_48:\n    /* \"#utility.yul\":1621:1695   */\n  swap2\n  pop\n    /* \"#utility.yul\":1576:1705   */\n  pop\n    /* \"#utility.yul\":1205:1712   */\n  swap3\n  pop\n  swap3\n  swap1\n  pop\n  jump\t// out\n    /* \"#utility.yul\":1718:1836   */\ntag_25:\n    /* \"#utility.yul\":1805:1829   */\n  tag_50\n    /* \"#utility.yul\":1823:1828   */\n  dup2\n    /* \"#utility.yul\":1805:1829   */\n  tag_19\n  jump\t// in\ntag_50:\n    /* \"#utility.yul\":1800:1803   */\n  dup3\n    /* \"#utility.yul\":1793:1830   */\n  mstore\n    /* \"#utility.yul\":1718:1836   */\n  pop\n  pop\n  jump\t// out\n    /* \"#utility.yul\":1842:2064   */\ntag_9:\n    /* \"#utility.yul\":1935:1939   */\n  0x00\n    /* \"#utility.yul\":1973:1975   */\n  0x20\n    /* \"#utility.yul\":1962:1971   */\n  dup3\n    /* \"#utility.yul\":1958:1976   */\n  add\n    /* \"#utility.yul\":1950:1976   */\n  swap1\n  pop\n    /* \"#utility.yul\":1986:2057   */\n  tag_52\n    /* \"#utility.yul\":2054:2055   */\n  0x00\n    /* \"#utility.yul\":2043:2052   */\n  dup4\n    /* \"#utility.yul\":2039:2056   */\n  add\n    /* \"#utility.yul\":2030:2036   */\n  dup5\n    /* \"#utility.yul\":1986:2057   */\n  tag_25\n  jump\t// in\ntag_52:\n    /* \"#utility.yul\":1842:2064   */\n  swap3\n  swap2\n  pop\n  pop\n  jump\t// out\n    /* \"I/initialBountyOfferingTypes/tieredIBO.sol\":322:2761  contract TieredIBO is Ownable {... */\ntag_13:\n  dataSize(sub_0)\n  dup1\n  dataOffset(sub_0)\n  0x00\n  codecopy\n  0x00\n  return\nstop\n\nsub_0: assembly {\n        /* \"I/initialBountyOfferingTypes/tieredIBO.sol\":322:2761  contract TieredIBO is Ownable {... */\n      mstore(0x40, 0x80)\n      callvalue\n      dup1\n      iszero\n      tag_1\n      jumpi\n      revert(0x00, 0x00)\n    tag_1:\n      pop\n      jumpi(tag_2, lt(calldatasize, 0x04))\n      shr(0xe0, calldataload(0x00))\n      dup1\n      0x6e402ff3\n      gt\n      tag_18\n      jumpi\n      dup1\n      0xc884ef83\n      gt\n      tag_19\n      jumpi\n      dup1\n      0xc884ef83\n      eq\n      tag_14\n      jumpi\n      dup1\n      0xe2181a13\n      eq\n      tag_15\n      jumpi\n      dup1\n      0xf2fde38b\n      eq\n      tag_16\n      jumpi\n      dup1\n      0xf7c618c1\n      eq\n      tag_17\n      jumpi\n      jump(tag_2)\n    tag_19:\n      dup1\n      0x6e402ff3\n      eq\n      tag_10\n      jumpi\n      dup1\n      0x715018a6\n      eq\n      tag_11\n      jumpi\n      dup1\n      0x8da5cb5b\n      eq\n      tag_12\n      jumpi\n      dup1\n      0xa08ab0a2\n      eq\n      tag_13\n      jumpi\n      jump(tag_2)\n    tag_18:\n      dup1\n      0x0e141a9b\n      gt\n      tag_20\n      jumpi\n      dup1\n      0x0e141a9b\n      eq\n      tag_6\n      jumpi\n      dup1\n      0x0fadea30\n      eq\n      tag_7\n      jumpi\n      dup1\n      0x48c54b9d\n      eq\n      tag_8\n      jumpi\n      dup1\n      0x4c15d259\n      eq\n      tag_9\n      jumpi\n      jump(tag_2)\n    tag_20:\n      dup1\n      0x07ac01c8\n      eq\n      tag_3\n      jumpi\n      dup1\n      0x07c4d79f\n      eq\n      tag_4\n      jumpi\n      dup1\n      0x09c85e24\n      eq\n      tag_5\n      jumpi\n    tag_2:\n      revert(0x00, 0x00)\n        /* \"I/initialBountyOfferingTypes/tieredIBO.sol\":1092:1475  function assignBounty(address user, uint8 category, uint256 points) external onlyOwner {... */\n    tag_3:\n      tag_21\n      0x04\n      dup1\n      calldatasize\n      sub\n      dup2\n      add\n      swap1\n      tag_22\n      swap2\n      swap1\n      tag_23\n      jump\t// in\n    tag_22:\n      tag_24\n      jump\t// in\n    tag_21:\n      stop\n        /* \"I/initialBountyOfferingTypes/tieredIBO.sol\":537:592  mapping(uint8 => uint256) public totalPointsPerCategory */\n    tag_4:\n      tag_25\n      0x04\n      dup1\n      calldatasize\n      sub\n      dup2\n      add\n      swap1\n      tag_26\n      swap2\n      swap1\n      tag_27\n      jump\t// in\n    tag_26:\n      tag_28\n      jump\t// in\n    tag_25:\n      mload(0x40)\n      tag_29\n      swap2\n      swap1\n      tag_30\n      jump\t// in\n    tag_29:\n      mload(0x40)\n      dup1\n      swap2\n      sub\n      swap1\n      return\n        /* \"I/initialBountyOfferingTypes/tieredIBO.sol\":389:419  uint256 public totalRewardPool */\n    tag_5:\n      tag_31\n      tag_32\n      jump\t// in\n    tag_31:\n      mload(0x40)\n      tag_33\n      swap2\n      swap1\n      tag_30\n      jump\t// in\n    tag_33:\n      mload(0x40)\n      dup1\n      swap2\n      sub\n      swap1\n      return\n        /* \"I/initialBountyOfferingTypes/tieredIBO.sol\":425:452  bool public claimingEnabled */\n    tag_6:\n      tag_34\n      tag_35\n      jump\t// in\n    tag_34:\n      mload(0x40)\n      tag_36\n      swap2\n      swap1\n      tag_37\n      jump\t// in\n    tag_36:\n      mload(0x40)\n      dup1\n      swap2\n      sub\n      swap1\n      return\n        /* \"I/initialBountyOfferingTypes/tieredIBO.sol\":2587:2759  function withdrawUnclaimed(address to) external onlyOwner {... */\n    tag_7:\n      tag_38\n      0x04\n      dup1\n      calldatasize\n      sub\n      dup2\n      add\n      swap1\n      tag_39\n      swap2\n      swap1\n      tag_40\n      jump\t// in\n    tag_39:\n      tag_41\n      jump\t// in\n    tag_38:\n      stop\n        /* \"I/initialBountyOfferingTypes/tieredIBO.sol\":1625:2402  function claimTokens() external {... */\n    tag_8:\n      tag_42\n      tag_43\n      jump\t// in\n    tag_42:\n      stop\n        /* \"I/initialBountyOfferingTypes/tieredIBO.sol\":2408:2581  function depositRewardPool(uint256 amount) external onlyOwner {... */\n    tag_9:\n      tag_44\n      0x04\n      dup1\n      calldatasize\n      sub\n      dup2\n      add\n      swap1\n      tag_45\n      swap2\n      swap1\n      tag_46\n      jump\t// in\n    tag_45:\n      tag_47\n      jump\t// in\n    tag_44:\n      stop\n        /* \"I/initialBountyOfferingTypes/tieredIBO.sol\":634:697  mapping(address => mapping(uint8 => uint256)) public userPoints */\n    tag_10:\n      tag_48\n      0x04\n      dup1\n      calldatasize\n      sub\n      dup2\n      add\n      swap1\n      tag_49\n      swap2\n      swap1\n      tag_50\n      jump\t// in\n    tag_49:\n      tag_51\n      jump\t// in\n    tag_48:\n      mload(0x40)\n      tag_52\n      swap2\n      swap1\n      tag_30\n      jump\t// in\n    tag_52:\n      mload(0x40)\n      dup1\n      swap2\n      sub\n      swap1\n      return\n        /* \"@openzeppelin/contracts/access/Ownable.sol\":2293:2394  function renounceOwnership() public virtual onlyOwner {... */\n    tag_11:\n      tag_53\n      tag_54\n      jump\t// in\n    tag_53:\n      stop\n        /* \"@openzeppelin/contracts/access/Ownable.sol\":1638:1723  function owner() public view virtual returns (address) {... */\n    tag_12:\n      tag_55\n      tag_56\n      jump\t// in\n    tag_55:\n      mload(0x40)\n      tag_57\n      swap2\n      swap1\n      tag_58\n      jump\t// in\n    tag_57:\n      mload(0x40)\n      dup1\n      swap2\n      sub\n      swap1\n      return\n        /* \"I/initialBountyOfferingTypes/tieredIBO.sol\":1481:1619  function toggleClaiming(bool _status) external onlyOwner {... */\n    tag_13:\n      tag_59\n      0x04\n      dup1\n      calldatasize\n      sub\n      dup2\n      add\n      swap1\n      tag_60\n      swap2\n      swap1\n      tag_61\n      jump\t// in\n    tag_60:\n      tag_62\n      jump\t// in\n    tag_59:\n      stop\n        /* \"I/initialBountyOfferingTypes/tieredIBO.sol\":703:742  mapping(address => bool) public claimed */\n    tag_14:\n      tag_63\n      0x04\n      dup1\n      calldatasize\n      sub\n      dup2\n      add\n      swap1\n      tag_64\n      swap2\n      swap1\n      tag_40\n      jump\t// in\n    tag_64:\n      tag_65\n      jump\t// in\n    tag_63:\n      mload(0x40)\n      tag_66\n      swap2\n      swap1\n      tag_37\n      jump\t// in\n    tag_66:\n      mload(0x40)\n      dup1\n      swap2\n      sub\n      swap1\n      return\n        /* \"I/initialBountyOfferingTypes/tieredIBO.sol\":459:499  uint8 public constant NUM_CATEGORIES = 3 */\n    tag_15:\n      tag_67\n      tag_68\n      jump\t// in\n    tag_67:\n      mload(0x40)\n      tag_69\n      swap2\n      swap1\n      tag_70\n      jump\t// in\n    tag_69:\n      mload(0x40)\n      dup1\n      swap2\n      sub\n      swap1\n      return\n        /* \"@openzeppelin/contracts/access/Ownable.sol\":2543:2758  function transferOwnership(address newOwner) public virtual onlyOwner {... */\n    tag_16:\n      tag_71\n      0x04\n      dup1\n      calldatasize\n      sub\n      dup2\n      add\n      swap1\n      tag_72\n      swap2\n      swap1\n      tag_40\n      jump\t// in\n    tag_72:\n      tag_73\n      jump\t// in\n    tag_71:\n      stop\n        /* \"I/initialBountyOfferingTypes/tieredIBO.sol\":358:383  IERC20 public rewardToken */\n    tag_17:\n      tag_74\n      tag_75\n      jump\t// in\n    tag_74:\n      mload(0x40)\n      tag_76\n      swap2\n      swap1\n      tag_77\n      jump\t// in\n    tag_76:\n      mload(0x40)\n      dup1\n      swap2\n      sub\n      swap1\n      return\n        /* \"I/initialBountyOfferingTypes/tieredIBO.sol\":1092:1475  function assignBounty(address user, uint8 category, uint256 points) external onlyOwner {... */\n    tag_24:\n        /* \"@openzeppelin/contracts/access/Ownable.sol\":1531:1544  _checkOwner() */\n      tag_79\n        /* \"@openzeppelin/contracts/access/Ownable.sol\":1531:1542  _checkOwner */\n      tag_80\n        /* \"@openzeppelin/contracts/access/Ownable.sol\":1531:1544  _checkOwner() */\n      jump\t// in\n    tag_79:\n        /* \"I/initialBountyOfferingTypes/tieredIBO.sol\":1208:1209  0 */\n      0x00\n        /* \"I/initialBountyOfferingTypes/tieredIBO.sol\":1197:1205  category */\n      dup3\n        /* \"I/initialBountyOfferingTypes/tieredIBO.sol\":1197:1209  category > 0 */\n      0xff\n      and\n      gt\n        /* \"I/initialBountyOfferingTypes/tieredIBO.sol\":1197:1239  category > 0 && category <= NUM_CATEGORIES */\n      dup1\n      iszero\n      tag_82\n      jumpi\n      pop\n        /* \"I/initialBountyOfferingTypes/tieredIBO.sol\":498:499  3 */\n      0x03\n        /* \"I/initialBountyOfferingTypes/tieredIBO.sol\":1213:1239  category <= NUM_CATEGORIES */\n      0xff\n      and\n        /* \"I/initialBountyOfferingTypes/tieredIBO.sol\":1213:1221  category */\n      dup3\n        /* \"I/initialBountyOfferingTypes/tieredIBO.sol\":1213:1239  category <= NUM_CATEGORIES */\n      0xff\n      and\n      gt\n      iszero\n        /* \"I/initialBountyOfferingTypes/tieredIBO.sol\":1197:1239  category > 0 && category <= NUM_CATEGORIES */\n    tag_82:\n        /* \"I/initialBountyOfferingTypes/tieredIBO.sol\":1189:1260  require(category > 0 && category <= NUM_CATEGORIES, \"Invalid category\") */\n      tag_83\n      jumpi\n      mload(0x40)\n      0x08c379a000000000000000000000000000000000000000000000000000000000\n      dup2\n      mstore\n      0x04\n      add\n      tag_84\n      swap1\n      tag_85\n      jump\t// in\n    tag_84:\n      mload(0x40)\n      dup1\n      swap2\n      sub\n      swap1\n      revert\n    tag_83:\n        /* \"I/initialBountyOfferingTypes/tieredIBO.sol\":1279:1286  claimed */\n      0x06\n        /* \"I/initialBountyOfferingTypes/tieredIBO.sol\":1279:1292  claimed[user] */\n      0x00\n        /* \"I/initialBountyOfferingTypes/tieredIBO.sol\":1287:1291  user */\n      dup5\n        /* \"I/initialBountyOfferingTypes/tieredIBO.sol\":1279:1292  claimed[user] */\n      0xffffffffffffffffffffffffffffffffffffffff\n      and\n      0xffffffffffffffffffffffffffffffffffffffff\n      and\n      dup2\n      mstore\n      0x20\n      add\n      swap1\n      dup2\n      mstore\n      0x20\n      add\n      0x00\n      keccak256\n      0x00\n      swap1\n      sload\n      swap1\n      0x0100\n      exp\n      swap1\n      div\n      0xff\n      and\n        /* \"I/initialBountyOfferingTypes/tieredIBO.sol\":1278:1292  !claimed[user] */\n      iszero\n        /* \"I/initialBountyOfferingTypes/tieredIBO.sol\":1270:1317  require(!claimed[user], \"User already claimed\") */\n      tag_86\n      jumpi\n      mload(0x40)\n      0x08c379a000000000000000000000000000000000000000000000000000000000\n      dup2\n      mstore\n      0x04\n      add\n      tag_87\n      swap1\n      tag_88\n      jump\t// in\n    tag_87:\n      mload(0x40)\n      dup1\n      swap2\n      sub\n      swap1\n      revert\n    tag_86:\n        /* \"I/initialBountyOfferingTypes/tieredIBO.sol\":1357:1363  points */\n      dup1\n        /* \"I/initialBountyOfferingTypes/tieredIBO.sol\":1327:1337  userPoints */\n      0x05\n        /* \"I/initialBountyOfferingTypes/tieredIBO.sol\":1327:1343  userPoints[user] */\n      0x00\n        /* \"I/initialBountyOfferingTypes/tieredIBO.sol\":1338:1342  user */\n      dup6\n        /* \"I/initialBountyOfferingTypes/tieredIBO.sol\":1327:1343  userPoints[user] */\n      0xffffffffffffffffffffffffffffffffffffffff\n      and\n      0xffffffffffffffffffffffffffffffffffffffff\n      and\n      dup2\n      mstore\n      0x20\n      add\n      swap1\n      dup2\n      mstore\n      0x20\n      add\n      0x00\n      keccak256\n        /* \"I/initialBountyOfferingTypes/tieredIBO.sol\":1327:1353  userPoints[user][category] */\n      0x00\n        /* \"I/initialBountyOfferingTypes/tieredIBO.sol\":1344:1352  category */\n      dup5\n        /* \"I/initialBountyOfferingTypes/tieredIBO.sol\":1327:1353  userPoints[user][category] */\n      0xff\n      and\n      0xff\n      and\n      dup2\n      mstore\n      0x20\n      add\n      swap1\n      dup2\n      mstore\n      0x20\n      add\n      0x00\n      keccak256\n      0x00\n        /* \"I/initialBountyOfferingTypes/tieredIBO.sol\":1327:1363  userPoints[user][category] += points */\n      dup3\n      dup3\n      sload\n      tag_89\n      swap2\n      swap1\n      tag_90\n      jump\t// in\n    tag_89:\n      swap3\n      pop\n      pop\n      dup2\n      swap1\n      sstore\n      pop\n        /* \"I/initialBountyOfferingTypes/tieredIBO.sol\":1409:1415  points */\n      dup1\n        /* \"I/initialBountyOfferingTypes/tieredIBO.sol\":1373:1395  totalPointsPerCategory */\n      0x04\n        /* \"I/initialBountyOfferingTypes/tieredIBO.sol\":1373:1405  totalPointsPerCategory[category] */\n      0x00\n        /* \"I/initialBountyOfferingTypes/tieredIBO.sol\":1396:1404  category */\n      dup5\n        /* \"I/initialBountyOfferingTypes/tieredIBO.sol\":1373:1405  totalPointsPerCategory[category] */\n      0xff\n      and\n      0xff\n      and\n      dup2\n      mstore\n      0x20\n      add\n      swap1\n      dup2\n      mstore\n      0x20\n      add\n      0x00\n      keccak256\n      0x00\n        /* \"I/initialBountyOfferingTypes/tieredIBO.sol\":1373:1415  totalPointsPerCategory[category] += points */\n      dup3\n      dup3\n      sload\n      tag_91\n      swap2\n      swap1\n      tag_90\n      jump\t// in\n    tag_91:\n      swap3\n      pop\n      pop\n      dup2\n      swap1\n      sstore\n      pop\n        /* \"I/initialBountyOfferingTypes/tieredIBO.sol\":1445:1449  user */\n      dup3\n        /* \"I/initialBountyOfferingTypes/tieredIBO.sol\":1430:1468  BountyAssigned(user, category, points) */\n      0xffffffffffffffffffffffffffffffffffffffff\n      and\n      0x94be0674b88c7689b9d2ac6de315c8846f94d9d1b158aac9e0680e8cb8035fce\n        /* \"I/initialBountyOfferingTypes/tieredIBO.sol\":1451:1459  category */\n      dup4\n        /* \"I/initialBountyOfferingTypes/tieredIBO.sol\":1461:1467  points */\n      dup4\n        /* \"I/initialBountyOfferingTypes/tieredIBO.sol\":1430:1468  BountyAssigned(user, category, points) */\n      mload(0x40)\n      tag_92\n      swap3\n      swap2\n      swap1\n      tag_93\n      jump\t// in\n    tag_92:\n      mload(0x40)\n      dup1\n      swap2\n      sub\n      swap1\n      log2\n        /* \"I/initialBountyOfferingTypes/tieredIBO.sol\":1092:1475  function assignBounty(address user, uint8 category, uint256 points) external onlyOwner {... */\n      pop\n      pop\n      pop\n      jump\t// out\n        /* \"I/initialBountyOfferingTypes/tieredIBO.sol\":537:592  mapping(uint8 => uint256) public totalPointsPerCategory */\n    tag_28:\n      mstore(0x20, 0x04)\n      dup1\n      0x00\n      mstore\n      keccak256(0x00, 0x40)\n      0x00\n      swap2\n      pop\n      swap1\n      pop\n      sload\n      dup2\n      jump\t// out\n        /* \"I/initialBountyOfferingTypes/tieredIBO.sol\":389:419  uint256 public totalRewardPool */\n    tag_32:\n      sload(0x02)\n      dup2\n      jump\t// out\n        /* \"I/initialBountyOfferingTypes/tieredIBO.sol\":425:452  bool public claimingEnabled */\n    tag_35:\n      0x03\n      0x00\n      swap1\n      sload\n      swap1\n      0x0100\n      exp\n      swap1\n      div\n      0xff\n      and\n      dup2\n      jump\t// out\n        /* \"I/initialBountyOfferingTypes/tieredIBO.sol\":2587:2759  function withdrawUnclaimed(address to) external onlyOwner {... */\n    tag_41:\n        /* \"@openzeppelin/contracts/access/Ownable.sol\":1531:1544  _checkOwner() */\n      tag_95\n        /* \"@openzeppelin/contracts/access/Ownable.sol\":1531:1542  _checkOwner */\n      tag_80\n        /* \"@openzeppelin/contracts/access/Ownable.sol\":1531:1544  _checkOwner() */\n      jump\t// in\n    tag_95:\n        /* \"I/initialBountyOfferingTypes/tieredIBO.sol\":2655:2670  uint256 balance */\n      0x00\n        /* \"I/initialBountyOfferingTypes/tieredIBO.sol\":2673:2684  rewardToken */\n      0x01\n      0x00\n      swap1\n      sload\n      swap1\n      0x0100\n      exp\n      swap1\n      div\n      0xffffffffffffffffffffffffffffffffffffffff\n      and\n        /* \"I/initialBountyOfferingTypes/tieredIBO.sol\":2673:2694  rewardToken.balanceOf */\n      0xffffffffffffffffffffffffffffffffffffffff\n      and\n      0x70a08231\n        /* \"I/initialBountyOfferingTypes/tieredIBO.sol\":2703:2707  this */\n      address\n        /* \"I/initialBountyOfferingTypes/tieredIBO.sol\":2673:2709  rewardToken.balanceOf(address(this)) */\n      mload(0x40)\n      dup3\n      0xffffffff\n      and\n      0xe0\n      shl\n      dup2\n      mstore\n      0x04\n      add\n      tag_97\n      swap2\n      swap1\n      tag_58\n      jump\t// in\n    tag_97:\n      0x20\n      mload(0x40)\n      dup1\n      dup4\n      sub\n      dup2\n      dup7\n      gas\n      staticcall\n      iszero\n      dup1\n      iszero\n      tag_99\n      jumpi\n      returndatacopy(0x00, 0x00, returndatasize)\n      revert(0x00, returndatasize)\n    tag_99:\n      pop\n      pop\n      pop\n      pop\n      mload(0x40)\n      returndatasize\n      not(0x1f)\n      0x1f\n      dup3\n      add\n      and\n      dup3\n      add\n      dup1\n      0x40\n      mstore\n      pop\n      dup2\n      add\n      swap1\n      tag_100\n      swap2\n      swap1\n      tag_101\n      jump\t// in\n    tag_100:\n        /* \"I/initialBountyOfferingTypes/tieredIBO.sol\":2655:2709  uint256 balance = rewardToken.balanceOf(address(this)) */\n      swap1\n      pop\n        /* \"I/initialBountyOfferingTypes/tieredIBO.sol\":2719:2730  rewardToken */\n      0x01\n      0x00\n      swap1\n      sload\n      swap1\n      0x0100\n      exp\n      swap1\n      div\n      0xffffffffffffffffffffffffffffffffffffffff\n      and\n        /* \"I/initialBountyOfferingTypes/tieredIBO.sol\":2719:2739  rewardToken.transfer */\n      0xffffffffffffffffffffffffffffffffffffffff\n      and\n      0xa9059cbb\n        /* \"I/initialBountyOfferingTypes/tieredIBO.sol\":2740:2742  to */\n      dup4\n        /* \"I/initialBountyOfferingTypes/tieredIBO.sol\":2744:2751  balance */\n      dup4\n        /* \"I/initialBountyOfferingTypes/tieredIBO.sol\":2719:2752  rewardToken.transfer(to, balance) */\n      mload(0x40)\n      dup4\n      0xffffffff\n      and\n      0xe0\n      shl\n      dup2\n      mstore\n      0x04\n      add\n      tag_102\n      swap3\n      swap2\n      swap1\n      tag_103\n      jump\t// in\n    tag_102:\n      0x20\n      mload(0x40)\n      dup1\n      dup4\n      sub\n      dup2\n      0x00\n      dup8\n      gas\n      call\n      iszero\n      dup1\n      iszero\n      tag_105\n      jumpi\n      returndatacopy(0x00, 0x00, returndatasize)\n      revert(0x00, returndatasize)\n    tag_105:\n      pop\n      pop\n      pop\n      pop\n      mload(0x40)\n      returndatasize\n      not(0x1f)\n      0x1f\n      dup3\n      add\n      and\n      dup3\n      add\n      dup1\n      0x40\n      mstore\n      pop\n      dup2\n      add\n      swap1\n      tag_106\n      swap2\n      swap1\n      tag_107\n      jump\t// in\n    tag_106:\n      pop\n        /* \"I/initialBountyOfferingTypes/tieredIBO.sol\":2645:2759  {... */\n      pop\n        /* \"I/initialBountyOfferingTypes/tieredIBO.sol\":2587:2759  function withdrawUnclaimed(address to) external onlyOwner {... */\n      pop\n      jump\t// out\n        /* \"I/initialBountyOfferingTypes/tieredIBO.sol\":1625:2402  function claimTokens() external {... */\n    tag_43:\n        /* \"I/initialBountyOfferingTypes/tieredIBO.sol\":1675:1690  claimingEnabled */\n      0x03\n      0x00\n      swap1\n      sload\n      swap1\n      0x0100\n      exp\n      swap1\n      div\n      0xff\n      and\n        /* \"I/initialBountyOfferingTypes/tieredIBO.sol\":1667:1715  require(claimingEnabled, \"Claiming not enabled\") */\n      tag_109\n      jumpi\n      mload(0x40)\n      0x08c379a000000000000000000000000000000000000000000000000000000000\n      dup2\n      mstore\n      0x04\n      add\n      tag_110\n      swap1\n      tag_111\n      jump\t// in\n    tag_110:\n      mload(0x40)\n      dup1\n      swap2\n      sub\n      swap1\n      revert\n    tag_109:\n        /* \"I/initialBountyOfferingTypes/tieredIBO.sol\":1734:1741  claimed */\n      0x06\n        /* \"I/initialBountyOfferingTypes/tieredIBO.sol\":1734:1753  claimed[msg.sender] */\n      0x00\n        /* \"I/initialBountyOfferingTypes/tieredIBO.sol\":1742:1752  msg.sender */\n      caller\n        /* \"I/initialBountyOfferingTypes/tieredIBO.sol\":1734:1753  claimed[msg.sender] */\n      0xffffffffffffffffffffffffffffffffffffffff\n      and\n      0xffffffffffffffffffffffffffffffffffffffff\n      and\n      dup2\n      mstore\n      0x20\n      add\n      swap1\n      dup2\n      mstore\n      0x20\n      add\n      0x00\n      keccak256\n      0x00\n      swap1\n      sload\n      swap1\n      0x0100\n      exp\n      swap1\n      div\n      0xff\n      and\n        /* \"I/initialBountyOfferingTypes/tieredIBO.sol\":1733:1753  !claimed[msg.sender] */\n      iszero\n        /* \"I/initialBountyOfferingTypes/tieredIBO.sol\":1725:1773  require(!claimed[msg.sender], \"Already claimed\") */\n      tag_112\n      jumpi\n      mload(0x40)\n      0x08c379a000000000000000000000000000000000000000000000000000000000\n      dup2\n      mstore\n      0x04\n      add\n      tag_113\n      swap1\n      tag_114\n      jump\t// in\n    tag_113:\n      mload(0x40)\n      dup1\n      swap2\n      sub\n      swap1\n      revert\n    tag_112:\n        /* \"I/initialBountyOfferingTypes/tieredIBO.sol\":1783:1802  uint256 totalReward */\n      0x00\n        /* \"I/initialBountyOfferingTypes/tieredIBO.sol\":1872:1897  uint256 rewardPerCategory */\n      0x00\n        /* \"I/initialBountyOfferingTypes/tieredIBO.sol\":498:499  3 */\n      0x03\n        /* \"I/initialBountyOfferingTypes/tieredIBO.sol\":1900:1932  totalRewardPool / NUM_CATEGORIES */\n      0xff\n      and\n        /* \"I/initialBountyOfferingTypes/tieredIBO.sol\":1900:1915  totalRewardPool */\n      sload(0x02)\n        /* \"I/initialBountyOfferingTypes/tieredIBO.sol\":1900:1932  totalRewardPool / NUM_CATEGORIES */\n      tag_115\n      swap2\n      swap1\n      tag_116\n      jump\t// in\n    tag_115:\n        /* \"I/initialBountyOfferingTypes/tieredIBO.sol\":1872:1932  uint256 rewardPerCategory = totalRewardPool / NUM_CATEGORIES */\n      swap1\n      pop\n        /* \"I/initialBountyOfferingTypes/tieredIBO.sol\":1947:1956  uint8 cat */\n      0x00\n        /* \"I/initialBountyOfferingTypes/tieredIBO.sol\":1959:1960  1 */\n      0x01\n        /* \"I/initialBountyOfferingTypes/tieredIBO.sol\":1947:1960  uint8 cat = 1 */\n      swap1\n      pop\n        /* \"I/initialBountyOfferingTypes/tieredIBO.sol\":1942:2252  for (uint8 cat = 1; cat <= NUM_CATEGORIES; cat++) {... */\n    tag_117:\n        /* \"I/initialBountyOfferingTypes/tieredIBO.sol\":498:499  3 */\n      0x03\n        /* \"I/initialBountyOfferingTypes/tieredIBO.sol\":1962:1983  cat <= NUM_CATEGORIES */\n      0xff\n      and\n        /* \"I/initialBountyOfferingTypes/tieredIBO.sol\":1962:1965  cat */\n      dup2\n        /* \"I/initialBountyOfferingTypes/tieredIBO.sol\":1962:1983  cat <= NUM_CATEGORIES */\n      0xff\n      and\n      gt\n        /* \"I/initialBountyOfferingTypes/tieredIBO.sol\":1942:2252  for (uint8 cat = 1; cat <= NUM_CATEGORIES; cat++) {... */\n      tag_118\n      jumpi\n        /* \"I/initialBountyOfferingTypes/tieredIBO.sol\":2006:2027  uint256 userCatPoints */\n      0x00\n        /* \"I/initialBountyOfferingTypes/tieredIBO.sol\":2030:2040  userPoints */\n      0x05\n        /* \"I/initialBountyOfferingTypes/tieredIBO.sol\":2030:2052  userPoints[msg.sender] */\n      0x00\n        /* \"I/initialBountyOfferingTypes/tieredIBO.sol\":2041:2051  msg.sender */\n      caller\n        /* \"I/initialBountyOfferingTypes/tieredIBO.sol\":2030:2052  userPoints[msg.sender] */\n      0xffffffffffffffffffffffffffffffffffffffff\n      and\n      0xffffffffffffffffffffffffffffffffffffffff\n      and\n      dup2\n      mstore\n      0x20\n      add\n      swap1\n      dup2\n      mstore\n      0x20\n      add\n      0x00\n      keccak256\n        /* \"I/initialBountyOfferingTypes/tieredIBO.sol\":2030:2057  userPoints[msg.sender][cat] */\n      0x00\n        /* \"I/initialBountyOfferingTypes/tieredIBO.sol\":2053:2056  cat */\n      dup4\n        /* \"I/initialBountyOfferingTypes/tieredIBO.sol\":2030:2057  userPoints[msg.sender][cat] */\n      0xff\n      and\n      0xff\n      and\n      dup2\n      mstore\n      0x20\n      add\n      swap1\n      dup2\n      mstore\n      0x20\n      add\n      0x00\n      keccak256\n      sload\n        /* \"I/initialBountyOfferingTypes/tieredIBO.sol\":2006:2057  uint256 userCatPoints = userPoints[msg.sender][cat] */\n      swap1\n      pop\n        /* \"I/initialBountyOfferingTypes/tieredIBO.sol\":2091:2092  0 */\n      0x00\n        /* \"I/initialBountyOfferingTypes/tieredIBO.sol\":2075:2088  userCatPoints */\n      dup2\n        /* \"I/initialBountyOfferingTypes/tieredIBO.sol\":2075:2092  userCatPoints > 0 */\n      gt\n        /* \"I/initialBountyOfferingTypes/tieredIBO.sol\":2075:2127  userCatPoints > 0 && totalPointsPerCategory[cat] > 0 */\n      dup1\n      iszero\n      tag_120\n      jumpi\n      pop\n        /* \"I/initialBountyOfferingTypes/tieredIBO.sol\":2126:2127  0 */\n      0x00\n        /* \"I/initialBountyOfferingTypes/tieredIBO.sol\":2096:2118  totalPointsPerCategory */\n      0x04\n        /* \"I/initialBountyOfferingTypes/tieredIBO.sol\":2096:2123  totalPointsPerCategory[cat] */\n      0x00\n        /* \"I/initialBountyOfferingTypes/tieredIBO.sol\":2119:2122  cat */\n      dup5\n        /* \"I/initialBountyOfferingTypes/tieredIBO.sol\":2096:2123  totalPointsPerCategory[cat] */\n      0xff\n      and\n      0xff\n      and\n      dup2\n      mstore\n      0x20\n      add\n      swap1\n      dup2\n      mstore\n      0x20\n      add\n      0x00\n      keccak256\n      sload\n        /* \"I/initialBountyOfferingTypes/tieredIBO.sol\":2096:2127  totalPointsPerCategory[cat] > 0 */\n      gt\n        /* \"I/initialBountyOfferingTypes/tieredIBO.sol\":2075:2127  userCatPoints > 0 && totalPointsPerCategory[cat] > 0 */\n    tag_120:\n        /* \"I/initialBountyOfferingTypes/tieredIBO.sol\":2071:2242  if (userCatPoints > 0 && totalPointsPerCategory[cat] > 0) {... */\n      iszero\n      tag_121\n      jumpi\n        /* \"I/initialBountyOfferingTypes/tieredIBO.sol\":2200:2222  totalPointsPerCategory */\n      0x04\n        /* \"I/initialBountyOfferingTypes/tieredIBO.sol\":2200:2227  totalPointsPerCategory[cat] */\n      0x00\n        /* \"I/initialBountyOfferingTypes/tieredIBO.sol\":2223:2226  cat */\n      dup4\n        /* \"I/initialBountyOfferingTypes/tieredIBO.sol\":2200:2227  totalPointsPerCategory[cat] */\n      0xff\n      and\n      0xff\n      and\n      dup2\n      mstore\n      0x20\n      add\n      swap1\n      dup2\n      mstore\n      0x20\n      add\n      0x00\n      keccak256\n      sload\n        /* \"I/initialBountyOfferingTypes/tieredIBO.sol\":2179:2196  rewardPerCategory */\n      dup4\n        /* \"I/initialBountyOfferingTypes/tieredIBO.sol\":2163:2176  userCatPoints */\n      dup3\n        /* \"I/initialBountyOfferingTypes/tieredIBO.sol\":2163:2196  userCatPoints * rewardPerCategory */\n      tag_122\n      swap2\n      swap1\n      tag_123\n      jump\t// in\n    tag_122:\n        /* \"I/initialBountyOfferingTypes/tieredIBO.sol\":2162:2227  (userCatPoints * rewardPerCategory) / totalPointsPerCategory[cat] */\n      tag_124\n      swap2\n      swap1\n      tag_116\n      jump\t// in\n    tag_124:\n        /* \"I/initialBountyOfferingTypes/tieredIBO.sol\":2147:2227  totalReward += (userCatPoints * rewardPerCategory) / totalPointsPerCategory[cat] */\n      dup5\n      tag_125\n      swap2\n      swap1\n      tag_90\n      jump\t// in\n    tag_125:\n      swap4\n      pop\n        /* \"I/initialBountyOfferingTypes/tieredIBO.sol\":2071:2242  if (userCatPoints > 0 && totalPointsPerCategory[cat] > 0) {... */\n    tag_121:\n        /* \"I/initialBountyOfferingTypes/tieredIBO.sol\":1992:2252  {... */\n      pop\n        /* \"I/initialBountyOfferingTypes/tieredIBO.sol\":1985:1990  cat++ */\n      dup1\n      dup1\n      tag_126\n      swap1\n      tag_127\n      jump\t// in\n    tag_126:\n      swap2\n      pop\n      pop\n        /* \"I/initialBountyOfferingTypes/tieredIBO.sol\":1942:2252  for (uint8 cat = 1; cat <= NUM_CATEGORIES; cat++) {... */\n      jump(tag_117)\n    tag_118:\n      pop\n        /* \"I/initialBountyOfferingTypes/tieredIBO.sol\":2283:2287  true */\n      0x01\n        /* \"I/initialBountyOfferingTypes/tieredIBO.sol\":2261:2268  claimed */\n      0x06\n        /* \"I/initialBountyOfferingTypes/tieredIBO.sol\":2261:2280  claimed[msg.sender] */\n      0x00\n        /* \"I/initialBountyOfferingTypes/tieredIBO.sol\":2269:2279  msg.sender */\n      caller\n        /* \"I/initialBountyOfferingTypes/tieredIBO.sol\":2261:2280  claimed[msg.sender] */\n      0xffffffffffffffffffffffffffffffffffffffff\n      and\n      0xffffffffffffffffffffffffffffffffffffffff\n      and\n      dup2\n      mstore\n      0x20\n      add\n      swap1\n      dup2\n      mstore\n      0x20\n      add\n      0x00\n      keccak256\n      0x00\n        /* \"I/initialBountyOfferingTypes/tieredIBO.sol\":2261:2287  claimed[msg.sender] = true */\n      0x0100\n      exp\n      dup2\n      sload\n      dup2\n      0xff\n      mul\n      not\n      and\n      swap1\n      dup4\n      iszero\n      iszero\n      mul\n      or\n      swap1\n      sstore\n      pop\n        /* \"I/initialBountyOfferingTypes/tieredIBO.sol\":2297:2308  rewardToken */\n      0x01\n      0x00\n      swap1\n      sload\n      swap1\n      0x0100\n      exp\n      swap1\n      div\n      0xffffffffffffffffffffffffffffffffffffffff\n      and\n        /* \"I/initialBountyOfferingTypes/tieredIBO.sol\":2297:2317  rewardToken.transfer */\n      0xffffffffffffffffffffffffffffffffffffffff\n      and\n      0xa9059cbb\n        /* \"I/initialBountyOfferingTypes/tieredIBO.sol\":2318:2328  msg.sender */\n      caller\n        /* \"I/initialBountyOfferingTypes/tieredIBO.sol\":2330:2341  totalReward */\n      dup5\n        /* \"I/initialBountyOfferingTypes/tieredIBO.sol\":2297:2342  rewardToken.transfer(msg.sender, totalReward) */\n      mload(0x40)\n      dup4\n      0xffffffff\n      and\n      0xe0\n      shl\n      dup2\n      mstore\n      0x04\n      add\n      tag_128\n      swap3\n      swap2\n      swap1\n      tag_103\n      jump\t// in\n    tag_128:\n      0x20\n      mload(0x40)\n      dup1\n      dup4\n      sub\n      dup2\n      0x00\n      dup8\n      gas\n      call\n      iszero\n      dup1\n      iszero\n      tag_130\n      jumpi\n      returndatacopy(0x00, 0x00, returndatasize)\n      revert(0x00, returndatasize)\n    tag_130:\n      pop\n      pop\n      pop\n      pop\n      mload(0x40)\n      returndatasize\n      not(0x1f)\n      0x1f\n      dup3\n      add\n      and\n      dup3\n      add\n      dup1\n      0x40\n      mstore\n      pop\n      dup2\n      add\n      swap1\n      tag_131\n      swap2\n      swap1\n      tag_107\n      jump\t// in\n    tag_131:\n      pop\n        /* \"I/initialBountyOfferingTypes/tieredIBO.sol\":2371:2381  msg.sender */\n      caller\n        /* \"I/initialBountyOfferingTypes/tieredIBO.sol\":2357:2395  TokensClaimed(msg.sender, totalReward) */\n      0xffffffffffffffffffffffffffffffffffffffff\n      and\n      0x896e034966eaaf1adc54acc0f257056febbd300c9e47182cf761982cf1f5e430\n        /* \"I/initialBountyOfferingTypes/tieredIBO.sol\":2383:2394  totalReward */\n      dup4\n        /* \"I/initialBountyOfferingTypes/tieredIBO.sol\":2357:2395  TokensClaimed(msg.sender, totalReward) */\n      mload(0x40)\n      tag_132\n      swap2\n      swap1\n      tag_30\n      jump\t// in\n    tag_132:\n      mload(0x40)\n      dup1\n      swap2\n      sub\n      swap1\n      log2\n        /* \"I/initialBountyOfferingTypes/tieredIBO.sol\":1657:2402  {... */\n      pop\n      pop\n        /* \"I/initialBountyOfferingTypes/tieredIBO.sol\":1625:2402  function claimTokens() external {... */\n      jump\t// out\n        /* \"I/initialBountyOfferingTypes/tieredIBO.sol\":2408:2581  function depositRewardPool(uint256 amount) external onlyOwner {... */\n    tag_47:\n        /* \"@openzeppelin/contracts/access/Ownable.sol\":1531:1544  _checkOwner() */\n      tag_134\n        /* \"@openzeppelin/contracts/access/Ownable.sol\":1531:1542  _checkOwner */\n      tag_80\n        /* \"@openzeppelin/contracts/access/Ownable.sol\":1531:1544  _checkOwner() */\n      jump\t// in\n    tag_134:\n        /* \"I/initialBountyOfferingTypes/tieredIBO.sol\":2480:2491  rewardToken */\n      0x01\n      0x00\n      swap1\n      sload\n      swap1\n      0x0100\n      exp\n      swap1\n      div\n      0xffffffffffffffffffffffffffffffffffffffff\n      and\n        /* \"I/initialBountyOfferingTypes/tieredIBO.sol\":2480:2504  rewardToken.transferFrom */\n      0xffffffffffffffffffffffffffffffffffffffff\n      and\n      0x23b872dd\n        /* \"I/initialBountyOfferingTypes/tieredIBO.sol\":2505:2515  msg.sender */\n      caller\n        /* \"I/initialBountyOfferingTypes/tieredIBO.sol\":2525:2529  this */\n      address\n        /* \"I/initialBountyOfferingTypes/tieredIBO.sol\":2532:2538  amount */\n      dup5\n        /* \"I/initialBountyOfferingTypes/tieredIBO.sol\":2480:2539  rewardToken.transferFrom(msg.sender, address(this), amount) */\n      mload(0x40)\n      dup5\n      0xffffffff\n      and\n      0xe0\n      shl\n      dup2\n      mstore\n      0x04\n      add\n      tag_136\n      swap4\n      swap3\n      swap2\n      swap1\n      tag_137\n      jump\t// in\n    tag_136:\n      0x20\n      mload(0x40)\n      dup1\n      dup4\n      sub\n      dup2\n      0x00\n      dup8\n      gas\n      call\n      iszero\n      dup1\n      iszero\n      tag_139\n      jumpi\n      returndatacopy(0x00, 0x00, returndatasize)\n      revert(0x00, returndatasize)\n    tag_139:\n      pop\n      pop\n      pop\n      pop\n      mload(0x40)\n      returndatasize\n      not(0x1f)\n      0x1f\n      dup3\n      add\n      and\n      dup3\n      add\n      dup1\n      0x40\n      mstore\n      pop\n      dup2\n      add\n      swap1\n      tag_140\n      swap2\n      swap1\n      tag_107\n      jump\t// in\n    tag_140:\n      pop\n        /* \"I/initialBountyOfferingTypes/tieredIBO.sol\":2568:2574  amount */\n      dup1\n        /* \"I/initialBountyOfferingTypes/tieredIBO.sol\":2549:2564  totalRewardPool */\n      0x02\n      0x00\n        /* \"I/initialBountyOfferingTypes/tieredIBO.sol\":2549:2574  totalRewardPool += amount */\n      dup3\n      dup3\n      sload\n      tag_141\n      swap2\n      swap1\n      tag_90\n      jump\t// in\n    tag_141:\n      swap3\n      pop\n      pop\n      dup2\n      swap1\n      sstore\n      pop\n        /* \"I/initialBountyOfferingTypes/tieredIBO.sol\":2408:2581  function depositRewardPool(uint256 amount) external onlyOwner {... */\n      pop\n      jump\t// out\n        /* \"I/initialBountyOfferingTypes/tieredIBO.sol\":634:697  mapping(address => mapping(uint8 => uint256)) public userPoints */\n    tag_51:\n      mstore(0x20, 0x05)\n      dup2\n      0x00\n      mstore\n      mstore(0x20, keccak256(0x00, 0x40))\n      dup1\n      0x00\n      mstore\n      keccak256(0x00, 0x40)\n      0x00\n      swap2\n      pop\n      swap2\n      pop\n      pop\n      sload\n      dup2\n      jump\t// out\n        /* \"@openzeppelin/contracts/access/Ownable.sol\":2293:2394  function renounceOwnership() public virtual onlyOwner {... */\n    tag_54:\n        /* \"@openzeppelin/contracts/access/Ownable.sol\":1531:1544  _checkOwner() */\n      tag_143\n        /* \"@openzeppelin/contracts/access/Ownable.sol\":1531:1542  _checkOwner */\n      tag_80\n        /* \"@openzeppelin/contracts/access/Ownable.sol\":1531:1544  _checkOwner() */\n      jump\t// in\n    tag_143:\n        /* \"@openzeppelin/contracts/access/Ownable.sol\":2357:2387  _transferOwnership(address(0)) */\n      tag_145\n        /* \"@openzeppelin/contracts/access/Ownable.sol\":2384:2385  0 */\n      0x00\n        /* \"@openzeppelin/contracts/access/Ownable.sol\":2357:2375  _transferOwnership */\n      tag_146\n        /* \"@openzeppelin/contracts/access/Ownable.sol\":2357:2387  _transferOwnership(address(0)) */\n      jump\t// in\n    tag_145:\n        /* \"@openzeppelin/contracts/access/Ownable.sol\":2293:2394  function renounceOwnership() public virtual onlyOwner {... */\n      jump\t// out\n        /* \"@openzeppelin/contracts/access/Ownable.sol\":1638:1723  function owner() public view virtual returns (address) {... */\n    tag_56:\n        /* \"@openzeppelin/contracts/access/Ownable.sol\":1684:1691  address */\n      0x00\n        /* \"@openzeppelin/contracts/access/Ownable.sol\":1710:1716  _owner */\n      0x00\n      0x00\n      swap1\n      sload\n      swap1\n      0x0100\n      exp\n      swap1\n      div\n      0xffffffffffffffffffffffffffffffffffffffff\n      and\n        /* \"@openzeppelin/contracts/access/Ownable.sol\":1703:1716  return _owner */\n      swap1\n      pop\n        /* \"@openzeppelin/contracts/access/Ownable.sol\":1638:1723  function owner() public view virtual returns (address) {... */\n      swap1\n      jump\t// out\n        /* \"I/initialBountyOfferingTypes/tieredIBO.sol\":1481:1619  function toggleClaiming(bool _status) external onlyOwner {... */\n    tag_62:\n        /* \"@openzeppelin/contracts/access/Ownable.sol\":1531:1544  _checkOwner() */\n      tag_149\n        /* \"@openzeppelin/contracts/access/Ownable.sol\":1531:1542  _checkOwner */\n      tag_80\n        /* \"@openzeppelin/contracts/access/Ownable.sol\":1531:1544  _checkOwner() */\n      jump\t// in\n    tag_149:\n        /* \"I/initialBountyOfferingTypes/tieredIBO.sol\":1566:1573  _status */\n      dup1\n        /* \"I/initialBountyOfferingTypes/tieredIBO.sol\":1548:1563  claimingEnabled */\n      0x03\n      0x00\n        /* \"I/initialBountyOfferingTypes/tieredIBO.sol\":1548:1573  claimingEnabled = _status */\n      0x0100\n      exp\n      dup2\n      sload\n      dup2\n      0xff\n      mul\n      not\n      and\n      swap1\n      dup4\n      iszero\n      iszero\n      mul\n      or\n      swap1\n      sstore\n      pop\n        /* \"I/initialBountyOfferingTypes/tieredIBO.sol\":1588:1612  ClaimingToggled(_status) */\n      0x5357603b66ce52ad2bde073bf1baae8a126a96ae712f396257fa4b57169c36ab\n        /* \"I/initialBountyOfferingTypes/tieredIBO.sol\":1604:1611  _status */\n      dup2\n        /* \"I/initialBountyOfferingTypes/tieredIBO.sol\":1588:1612  ClaimingToggled(_status) */\n      mload(0x40)\n      tag_151\n      swap2\n      swap1\n      tag_37\n      jump\t// in\n    tag_151:\n      mload(0x40)\n      dup1\n      swap2\n      sub\n      swap1\n      log1\n        /* \"I/initialBountyOfferingTypes/tieredIBO.sol\":1481:1619  function toggleClaiming(bool _status) external onlyOwner {... */\n      pop\n      jump\t// out\n        /* \"I/initialBountyOfferingTypes/tieredIBO.sol\":703:742  mapping(address => bool) public claimed */\n    tag_65:\n      mstore(0x20, 0x06)\n      dup1\n      0x00\n      mstore\n      keccak256(0x00, 0x40)\n      0x00\n      swap2\n      pop\n      sload\n      swap1\n      0x0100\n      exp\n      swap1\n      div\n      0xff\n      and\n      dup2\n      jump\t// out\n        /* \"I/initialBountyOfferingTypes/tieredIBO.sol\":459:499  uint8 public constant NUM_CATEGORIES = 3 */\n    tag_68:\n        /* \"I/initialBountyOfferingTypes/tieredIBO.sol\":498:499  3 */\n      0x03\n        /* \"I/initialBountyOfferingTypes/tieredIBO.sol\":459:499  uint8 public constant NUM_CATEGORIES = 3 */\n      dup2\n      jump\t// out\n        /* \"@openzeppelin/contracts/access/Ownable.sol\":2543:2758  function transferOwnership(address newOwner) public virtual onlyOwner {... */\n    tag_73:\n        /* \"@openzeppelin/contracts/access/Ownable.sol\":1531:1544  _checkOwner() */\n      tag_153\n        /* \"@openzeppelin/contracts/access/Ownable.sol\":1531:1542  _checkOwner */\n      tag_80\n        /* \"@openzeppelin/contracts/access/Ownable.sol\":1531:1544  _checkOwner() */\n      jump\t// in\n    tag_153:\n        /* \"@openzeppelin/contracts/access/Ownable.sol\":2647:2648  0 */\n      0x00\n        /* \"@openzeppelin/contracts/access/Ownable.sol\":2627:2649  newOwner == address(0) */\n      0xffffffffffffffffffffffffffffffffffffffff\n      and\n        /* \"@openzeppelin/contracts/access/Ownable.sol\":2627:2635  newOwner */\n      dup2\n        /* \"@openzeppelin/contracts/access/Ownable.sol\":2627:2649  newOwner == address(0) */\n      0xffffffffffffffffffffffffffffffffffffffff\n      and\n      sub\n        /* \"@openzeppelin/contracts/access/Ownable.sol\":2623:2714  if (newOwner == address(0)) {... */\n      tag_155\n      jumpi\n        /* \"@openzeppelin/contracts/access/Ownable.sol\":2700:2701  0 */\n      0x00\n        /* \"@openzeppelin/contracts/access/Ownable.sol\":2672:2703  OwnableInvalidOwner(address(0)) */\n      mload(0x40)\n      0x1e4fbdf700000000000000000000000000000000000000000000000000000000\n      dup2\n      mstore\n      0x04\n      add\n      tag_156\n      swap2\n      swap1\n      tag_58\n      jump\t// in\n    tag_156:\n      mload(0x40)\n      dup1\n      swap2\n      sub\n      swap1\n      revert\n        /* \"@openzeppelin/contracts/access/Ownable.sol\":2623:2714  if (newOwner == address(0)) {... */\n    tag_155:\n        /* \"@openzeppelin/contracts/access/Ownable.sol\":2723:2751  _transferOwnership(newOwner) */\n      tag_157\n        /* \"@openzeppelin/contracts/access/Ownable.sol\":2742:2750  newOwner */\n      dup2\n        /* \"@openzeppelin/contracts/access/Ownable.sol\":2723:2741  _transferOwnership */\n      tag_146\n        /* \"@openzeppelin/contracts/access/Ownable.sol\":2723:2751  _transferOwnership(newOwner) */\n      jump\t// in\n    tag_157:\n        /* \"@openzeppelin/contracts/access/Ownable.sol\":2543:2758  function transferOwnership(address newOwner) public virtual onlyOwner {... */\n      pop\n      jump\t// out\n        /* \"I/initialBountyOfferingTypes/tieredIBO.sol\":358:383  IERC20 public rewardToken */\n    tag_75:\n      0x01\n      0x00\n      swap1\n      sload\n      swap1\n      0x0100\n      exp\n      swap1\n      div\n      0xffffffffffffffffffffffffffffffffffffffff\n      and\n      dup2\n      jump\t// out\n        /* \"@openzeppelin/contracts/access/Ownable.sol\":1796:1958  function _checkOwner() internal view virtual {... */\n    tag_80:\n        /* \"@openzeppelin/contracts/access/Ownable.sol\":1866:1878  _msgSender() */\n      tag_159\n        /* \"@openzeppelin/contracts/access/Ownable.sol\":1866:1876  _msgSender */\n      tag_160\n        /* \"@openzeppelin/contracts/access/Ownable.sol\":1866:1878  _msgSender() */\n      jump\t// in\n    tag_159:\n        /* \"@openzeppelin/contracts/access/Ownable.sol\":1855:1878  owner() != _msgSender() */\n      0xffffffffffffffffffffffffffffffffffffffff\n      and\n        /* \"@openzeppelin/contracts/access/Ownable.sol\":1855:1862  owner() */\n      tag_161\n        /* \"@openzeppelin/contracts/access/Ownable.sol\":1855:1860  owner */\n      tag_56\n        /* \"@openzeppelin/contracts/access/Ownable.sol\":1855:1862  owner() */\n      jump\t// in\n    tag_161:\n        /* \"@openzeppelin/contracts/access/Ownable.sol\":1855:1878  owner() != _msgSender() */\n      0xffffffffffffffffffffffffffffffffffffffff\n      and\n      eq\n        /* \"@openzeppelin/contracts/access/Ownable.sol\":1851:1952  if (owner() != _msgSender()) {... */\n      tag_162\n      jumpi\n        /* \"@openzeppelin/contracts/access/Ownable.sol\":1928:1940  _msgSender() */\n      tag_163\n        /* \"@openzeppelin/contracts/access/Ownable.sol\":1928:1938  _msgSender */\n      tag_160\n        /* \"@openzeppelin/contracts/access/Ownable.sol\":1928:1940  _msgSender() */\n      jump\t// in\n    tag_163:\n        /* \"@openzeppelin/contracts/access/Ownable.sol\":1901:1941  OwnableUnauthorizedAccount(_msgSender()) */\n      mload(0x40)\n      0x118cdaa700000000000000000000000000000000000000000000000000000000\n      dup2\n      mstore\n      0x04\n      add\n      tag_164\n      swap2\n      swap1\n      tag_58\n      jump\t// in\n    tag_164:\n      mload(0x40)\n      dup1\n      swap2\n      sub\n      swap1\n      revert\n        /* \"@openzeppelin/contracts/access/Ownable.sol\":1851:1952  if (owner() != _msgSender()) {... */\n    tag_162:\n        /* \"@openzeppelin/contracts/access/Ownable.sol\":1796:1958  function _checkOwner() internal view virtual {... */\n      jump\t// out\n        /* \"@openzeppelin/contracts/access/Ownable.sol\":2912:3099  function _transferOwnership(address newOwner) internal virtual {... */\n    tag_146:\n        /* \"@openzeppelin/contracts/access/Ownable.sol\":2985:3001  address oldOwner */\n      0x00\n        /* \"@openzeppelin/contracts/access/Ownable.sol\":3004:3010  _owner */\n      0x00\n      0x00\n      swap1\n      sload\n      swap1\n      0x0100\n      exp\n      swap1\n      div\n      0xffffffffffffffffffffffffffffffffffffffff\n      and\n        /* \"@openzeppelin/contracts/access/Ownable.sol\":2985:3010  address oldOwner = _owner */\n      swap1\n      pop\n        /* \"@openzeppelin/contracts/access/Ownable.sol\":3029:3037  newOwner */\n      dup2\n        /* \"@openzeppelin/contracts/access/Ownable.sol\":3020:3026  _owner */\n      0x00\n      0x00\n        /* \"@openzeppelin/contracts/access/Ownable.sol\":3020:3037  _owner = newOwner */\n      0x0100\n      exp\n      dup2\n      sload\n      dup2\n      0xffffffffffffffffffffffffffffffffffffffff\n      mul\n      not\n      and\n      swap1\n      dup4\n      0xffffffffffffffffffffffffffffffffffffffff\n      and\n      mul\n      or\n      swap1\n      sstore\n      pop\n        /* \"@openzeppelin/contracts/access/Ownable.sol\":3083:3091  newOwner */\n      dup2\n        /* \"@openzeppelin/contracts/access/Ownable.sol\":3052:3092  OwnershipTransferred(oldOwner, newOwner) */\n      0xffffffffffffffffffffffffffffffffffffffff\n      and\n        /* \"@openzeppelin/contracts/access/Ownable.sol\":3073:3081  oldOwner */\n      dup2\n        /* \"@openzeppelin/contracts/access/Ownable.sol\":3052:3092  OwnershipTransferred(oldOwner, newOwner) */\n      0xffffffffffffffffffffffffffffffffffffffff\n      and\n      0x8be0079c531659141344cd1fd0a4f28419497f9722a3daafe3b4186f6b6457e0\n      mload(0x40)\n      mload(0x40)\n      dup1\n      swap2\n      sub\n      swap1\n      log3\n        /* \"@openzeppelin/contracts/access/Ownable.sol\":2975:3099  {... */\n      pop\n        /* \"@openzeppelin/contracts/access/Ownable.sol\":2912:3099  function _transferOwnership(address newOwner) internal virtual {... */\n      pop\n      jump\t// out\n        /* \"@openzeppelin/contracts/utils/Context.sol\":656:752  function _msgSender() internal view virtual returns (address) {... */\n    tag_160:\n        /* \"@openzeppelin/contracts/utils/Context.sol\":709:716  address */\n      0x00\n        /* \"@openzeppelin/contracts/utils/Context.sol\":735:745  msg.sender */\n      caller\n        /* \"@openzeppelin/contracts/utils/Context.sol\":728:745  return msg.sender */\n      swap1\n      pop\n        /* \"@openzeppelin/contracts/utils/Context.sol\":656:752  function _msgSender() internal view virtual returns (address) {... */\n      swap1\n      jump\t// out\n        /* \"#utility.yul\":88:205   */\n    tag_168:\n        /* \"#utility.yul\":197:198   */\n      0x00\n        /* \"#utility.yul\":194:195   */\n      0x00\n        /* \"#utility.yul\":187:199   */\n      revert\n        /* \"#utility.yul\":334:460   */\n    tag_170:\n        /* \"#utility.yul\":371:378   */\n      0x00\n        /* \"#utility.yul\":411:453   */\n      0xffffffffffffffffffffffffffffffffffffffff\n        /* \"#utility.yul\":404:409   */\n      dup3\n        /* \"#utility.yul\":400:454   */\n      and\n        /* \"#utility.yul\":389:454   */\n      swap1\n      pop\n        /* \"#utility.yul\":334:460   */\n      swap2\n      swap1\n      pop\n      jump\t// out\n        /* \"#utility.yul\":466:562   */\n    tag_171:\n        /* \"#utility.yul\":503:510   */\n      0x00\n        /* \"#utility.yul\":532:556   */\n      tag_211\n        /* \"#utility.yul\":550:555   */\n      dup3\n        /* \"#utility.yul\":532:556   */\n      tag_170\n      jump\t// in\n    tag_211:\n        /* \"#utility.yul\":521:556   */\n      swap1\n      pop\n        /* \"#utility.yul\":466:562   */\n      swap2\n      swap1\n      pop\n      jump\t// out\n        /* \"#utility.yul\":568:690   */\n    tag_172:\n        /* \"#utility.yul\":641:665   */\n      tag_213\n        /* \"#utility.yul\":659:664   */\n      dup2\n        /* \"#utility.yul\":641:665   */\n      tag_171\n      jump\t// in\n    tag_213:\n        /* \"#utility.yul\":634:639   */\n      dup2\n        /* \"#utility.yul\":631:666   */\n      eq\n        /* \"#utility.yul\":621:684   */\n      tag_214\n      jumpi\n        /* \"#utility.yul\":680:681   */\n      0x00\n        /* \"#utility.yul\":677:678   */\n      0x00\n        /* \"#utility.yul\":670:682   */\n      revert\n        /* \"#utility.yul\":621:684   */\n    tag_214:\n        /* \"#utility.yul\":568:690   */\n      pop\n      jump\t// out\n        /* \"#utility.yul\":696:835   */\n    tag_173:\n        /* \"#utility.yul\":742:747   */\n      0x00\n        /* \"#utility.yul\":780:786   */\n      dup2\n        /* \"#utility.yul\":767:787   */\n      calldataload\n        /* \"#utility.yul\":758:787   */\n      swap1\n      pop\n        /* \"#utility.yul\":796:829   */\n      tag_216\n        /* \"#utility.yul\":823:828   */\n      dup2\n        /* \"#utility.yul\":796:829   */\n      tag_172\n      jump\t// in\n    tag_216:\n        /* \"#utility.yul\":696:835   */\n      swap3\n      swap2\n      pop\n      pop\n      jump\t// out\n        /* \"#utility.yul\":841:927   */\n    tag_174:\n        /* \"#utility.yul\":876:883   */\n      0x00\n        /* \"#utility.yul\":916:920   */\n      0xff\n        /* \"#utility.yul\":909:914   */\n      dup3\n        /* \"#utility.yul\":905:921   */\n      and\n        /* \"#utility.yul\":894:921   */\n      swap1\n      pop\n        /* \"#utility.yul\":841:927   */\n      swap2\n      swap1\n      pop\n      jump\t// out\n        /* \"#utility.yul\":933:1051   */\n    tag_175:\n        /* \"#utility.yul\":1004:1026   */\n      tag_219\n        /* \"#utility.yul\":1020:1025   */\n      dup2\n        /* \"#utility.yul\":1004:1026   */\n      tag_174\n      jump\t// in\n    tag_219:\n        /* \"#utility.yul\":997:1002   */\n      dup2\n        /* \"#utility.yul\":994:1027   */\n      eq\n        /* \"#utility.yul\":984:1045   */\n      tag_220\n      jumpi\n        /* \"#utility.yul\":1041:1042   */\n      0x00\n        /* \"#utility.yul\":1038:1039   */\n      0x00\n        /* \"#utility.yul\":1031:1043   */\n      revert\n        /* \"#utility.yul\":984:1045   */\n    tag_220:\n        /* \"#utility.yul\":933:1051   */\n      pop\n      jump\t// out\n        /* \"#utility.yul\":1057:1192   */\n    tag_176:\n        /* \"#utility.yul\":1101:1106   */\n      0x00\n        /* \"#utility.yul\":1139:1145   */\n      dup2\n        /* \"#utility.yul\":1126:1146   */\n      calldataload\n        /* \"#utility.yul\":1117:1146   */\n      swap1\n      pop\n        /* \"#utility.yul\":1155:1186   */\n      tag_222\n        /* \"#utility.yul\":1180:1185   */\n      dup2\n        /* \"#utility.yul\":1155:1186   */\n      tag_175\n      jump\t// in\n    tag_222:\n        /* \"#utility.yul\":1057:1192   */\n      swap3\n      swap2\n      pop\n      pop\n      jump\t// out\n        /* \"#utility.yul\":1198:1275   */\n    tag_177:\n        /* \"#utility.yul\":1235:1242   */\n      0x00\n        /* \"#utility.yul\":1264:1269   */\n      dup2\n        /* \"#utility.yul\":1253:1269   */\n      swap1\n      pop\n        /* \"#utility.yul\":1198:1275   */\n      swap2\n      swap1\n      pop\n      jump\t// out\n        /* \"#utility.yul\":1281:1403   */\n    tag_178:\n        /* \"#utility.yul\":1354:1378   */\n      tag_225\n        /* \"#utility.yul\":1372:1377   */\n      dup2\n        /* \"#utility.yul\":1354:1378   */\n      tag_177\n      jump\t// in\n    tag_225:\n        /* \"#utility.yul\":1347:1352   */\n      dup2\n        /* \"#utility.yul\":1344:1379   */\n      eq\n        /* \"#utility.yul\":1334:1397   */\n      tag_226\n      jumpi\n        /* \"#utility.yul\":1393:1394   */\n      0x00\n        /* \"#utility.yul\":1390:1391   */\n      0x00\n        /* \"#utility.yul\":1383:1395   */\n      revert\n        /* \"#utility.yul\":1334:1397   */\n    tag_226:\n        /* \"#utility.yul\":1281:1403   */\n      pop\n      jump\t// out\n        /* \"#utility.yul\":1409:1548   */\n    tag_179:\n        /* \"#utility.yul\":1455:1460   */\n      0x00\n        /* \"#utility.yul\":1493:1499   */\n      dup2\n        /* \"#utility.yul\":1480:1500   */\n      calldataload\n        /* \"#utility.yul\":1471:1500   */\n      swap1\n      pop\n        /* \"#utility.yul\":1509:1542   */\n      tag_228\n        /* \"#utility.yul\":1536:1541   */\n      dup2\n        /* \"#utility.yul\":1509:1542   */\n      tag_178\n      jump\t// in\n    tag_228:\n        /* \"#utility.yul\":1409:1548   */\n      swap3\n      swap2\n      pop\n      pop\n      jump\t// out\n        /* \"#utility.yul\":1554:2169   */\n    tag_23:\n        /* \"#utility.yul\":1629:1635   */\n      0x00\n        /* \"#utility.yul\":1637:1643   */\n      0x00\n        /* \"#utility.yul\":1645:1651   */\n      0x00\n        /* \"#utility.yul\":1694:1696   */\n      0x60\n        /* \"#utility.yul\":1682:1691   */\n      dup5\n        /* \"#utility.yul\":1673:1680   */\n      dup7\n        /* \"#utility.yul\":1669:1692   */\n      sub\n        /* \"#utility.yul\":1665:1697   */\n      slt\n        /* \"#utility.yul\":1662:1781   */\n      iszero\n      tag_230\n      jumpi\n        /* \"#utility.yul\":1700:1779   */\n      tag_231\n      tag_168\n      jump\t// in\n    tag_231:\n        /* \"#utility.yul\":1662:1781   */\n    tag_230:\n        /* \"#utility.yul\":1820:1821   */\n      0x00\n        /* \"#utility.yul\":1845:1898   */\n      tag_232\n        /* \"#utility.yul\":1890:1897   */\n      dup7\n        /* \"#utility.yul\":1881:1887   */\n      dup3\n        /* \"#utility.yul\":1870:1879   */\n      dup8\n        /* \"#utility.yul\":1866:1888   */\n      add\n        /* \"#utility.yul\":1845:1898   */\n      tag_173\n      jump\t// in\n    tag_232:\n        /* \"#utility.yul\":1835:1898   */\n      swap4\n      pop\n        /* \"#utility.yul\":1791:1908   */\n      pop\n        /* \"#utility.yul\":1947:1949   */\n      0x20\n        /* \"#utility.yul\":1973:2024   */\n      tag_233\n        /* \"#utility.yul\":2016:2023   */\n      dup7\n        /* \"#utility.yul\":2007:2013   */\n      dup3\n        /* \"#utility.yul\":1996:2005   */\n      dup8\n        /* \"#utility.yul\":1992:2014   */\n      add\n        /* \"#utility.yul\":1973:2024   */\n      tag_176\n      jump\t// in\n    tag_233:\n        /* \"#utility.yul\":1963:2024   */\n      swap3\n      pop\n        /* \"#utility.yul\":1918:2034   */\n      pop\n        /* \"#utility.yul\":2073:2075   */\n      0x40\n        /* \"#utility.yul\":2099:2152   */\n      tag_234\n        /* \"#utility.yul\":2144:2151   */\n      dup7\n        /* \"#utility.yul\":2135:2141   */\n      dup3\n        /* \"#utility.yul\":2124:2133   */\n      dup8\n        /* \"#utility.yul\":2120:2142   */\n      add\n        /* \"#utility.yul\":2099:2152   */\n      tag_179\n      jump\t// in\n    tag_234:\n        /* \"#utility.yul\":2089:2152   */\n      swap2\n      pop\n        /* \"#utility.yul\":2044:2162   */\n      pop\n        /* \"#utility.yul\":1554:2169   */\n      swap3\n      pop\n      swap3\n      pop\n      swap3\n      jump\t// out\n        /* \"#utility.yul\":2175:2500   */\n    tag_27:\n        /* \"#utility.yul\":2232:2238   */\n      0x00\n        /* \"#utility.yul\":2281:2283   */\n      0x20\n        /* \"#utility.yul\":2269:2278   */\n      dup3\n        /* \"#utility.yul\":2260:2267   */\n      dup5\n        /* \"#utility.yul\":2256:2279   */\n      sub\n        /* \"#utility.yul\":2252:2284   */\n      slt\n        /* \"#utility.yul\":2249:2368   */\n      iszero\n      tag_236\n      jumpi\n        /* \"#utility.yul\":2287:2366   */\n      tag_237\n      tag_168\n      jump\t// in\n    tag_237:\n        /* \"#utility.yul\":2249:2368   */\n    tag_236:\n        /* \"#utility.yul\":2407:2408   */\n      0x00\n        /* \"#utility.yul\":2432:2483   */\n      tag_238\n        /* \"#utility.yul\":2475:2482   */\n      dup5\n        /* \"#utility.yul\":2466:2472   */\n      dup3\n        /* \"#utility.yul\":2455:2464   */\n      dup6\n        /* \"#utility.yul\":2451:2473   */\n      add\n        /* \"#utility.yul\":2432:2483   */\n      tag_176\n      jump\t// in\n    tag_238:\n        /* \"#utility.yul\":2422:2483   */\n      swap2\n      pop\n        /* \"#utility.yul\":2378:2493   */\n      pop\n        /* \"#utility.yul\":2175:2500   */\n      swap3\n      swap2\n      pop\n      pop\n      jump\t// out\n        /* \"#utility.yul\":2506:2624   */\n    tag_180:\n        /* \"#utility.yul\":2593:2617   */\n      tag_240\n        /* \"#utility.yul\":2611:2616   */\n      dup2\n        /* \"#utility.yul\":2593:2617   */\n      tag_177\n      jump\t// in\n    tag_240:\n        /* \"#utility.yul\":2588:2591   */\n      dup3\n        /* \"#utility.yul\":2581:2618   */\n      mstore\n        /* \"#utility.yul\":2506:2624   */\n      pop\n      pop\n      jump\t// out\n        /* \"#utility.yul\":2630:2852   */\n    tag_30:\n        /* \"#utility.yul\":2723:2727   */\n      0x00\n        /* \"#utility.yul\":2761:2763   */\n      0x20\n        /* \"#utility.yul\":2750:2759   */\n      dup3\n        /* \"#utility.yul\":2746:2764   */\n      add\n        /* \"#utility.yul\":2738:2764   */\n      swap1\n      pop\n        /* \"#utility.yul\":2774:2845   */\n      tag_242\n        /* \"#utility.yul\":2842:2843   */\n      0x00\n        /* \"#utility.yul\":2831:2840   */\n      dup4\n        /* \"#utility.yul\":2827:2844   */\n      add\n        /* \"#utility.yul\":2818:2824   */\n      dup5\n        /* \"#utility.yul\":2774:2845   */\n      tag_180\n      jump\t// in\n    tag_242:\n        /* \"#utility.yul\":2630:2852   */\n      swap3\n      swap2\n      pop\n      pop\n      jump\t// out\n        /* \"#utility.yul\":2858:2948   */\n    tag_181:\n        /* \"#utility.yul\":2892:2899   */\n      0x00\n        /* \"#utility.yul\":2935:2940   */\n      dup2\n        /* \"#utility.yul\":2928:2941   */\n      iszero\n        /* \"#utility.yul\":2921:2942   */\n      iszero\n        /* \"#utility.yul\":2910:2942   */\n      swap1\n      pop\n        /* \"#utility.yul\":2858:2948   */\n      swap2\n      swap1\n      pop\n      jump\t// out\n        /* \"#utility.yul\":2954:3063   */\n    tag_182:\n        /* \"#utility.yul\":3035:3056   */\n      tag_245\n        /* \"#utility.yul\":3050:3055   */\n      dup2\n        /* \"#utility.yul\":3035:3056   */\n      tag_181\n      jump\t// in\n    tag_245:\n        /* \"#utility.yul\":3030:3033   */\n      dup3\n        /* \"#utility.yul\":3023:3057   */\n      mstore\n        /* \"#utility.yul\":2954:3063   */\n      pop\n      pop\n      jump\t// out\n        /* \"#utility.yul\":3069:3279   */\n    tag_37:\n        /* \"#utility.yul\":3156:3160   */\n      0x00\n        /* \"#utility.yul\":3194:3196   */\n      0x20\n        /* \"#utility.yul\":3183:3192   */\n      dup3\n        /* \"#utility.yul\":3179:3197   */\n      add\n        /* \"#utility.yul\":3171:3197   */\n      swap1\n      pop\n        /* \"#utility.yul\":3207:3272   */\n      tag_247\n        /* \"#utility.yul\":3269:3270   */\n      0x00\n        /* \"#utility.yul\":3258:3267   */\n      dup4\n        /* \"#utility.yul\":3254:3271   */\n      add\n        /* \"#utility.yul\":3245:3251   */\n      dup5\n        /* \"#utility.yul\":3207:3272   */\n      tag_182\n      jump\t// in\n    tag_247:\n        /* \"#utility.yul\":3069:3279   */\n      swap3\n      swap2\n      pop\n      pop\n      jump\t// out\n        /* \"#utility.yul\":3285:3614   */\n    tag_40:\n        /* \"#utility.yul\":3344:3350   */\n      0x00\n        /* \"#utility.yul\":3393:3395   */\n      0x20\n        /* \"#utility.yul\":3381:3390   */\n      dup3\n        /* \"#utility.yul\":3372:3379   */\n      dup5\n        /* \"#utility.yul\":3368:3391   */\n      sub\n        /* \"#utility.yul\":3364:3396   */\n      slt\n        /* \"#utility.yul\":3361:3480   */\n      iszero\n      tag_249\n      jumpi\n        /* \"#utility.yul\":3399:3478   */\n      tag_250\n      tag_168\n      jump\t// in\n    tag_250:\n        /* \"#utility.yul\":3361:3480   */\n    tag_249:\n        /* \"#utility.yul\":3519:3520   */\n      0x00\n        /* \"#utility.yul\":3544:3597   */\n      tag_251\n        /* \"#utility.yul\":3589:3596   */\n      dup5\n        /* \"#utility.yul\":3580:3586   */\n      dup3\n        /* \"#utility.yul\":3569:3578   */\n      dup6\n        /* \"#utility.yul\":3565:3587   */\n      add\n        /* \"#utility.yul\":3544:3597   */\n      tag_173\n      jump\t// in\n    tag_251:\n        /* \"#utility.yul\":3534:3597   */\n      swap2\n      pop\n        /* \"#utility.yul\":3490:3607   */\n      pop\n        /* \"#utility.yul\":3285:3614   */\n      swap3\n      swap2\n      pop\n      pop\n      jump\t// out\n        /* \"#utility.yul\":3620:3949   */\n    tag_46:\n        /* \"#utility.yul\":3679:3685   */\n      0x00\n        /* \"#utility.yul\":3728:3730   */\n      0x20\n        /* \"#utility.yul\":3716:3725   */\n      dup3\n        /* \"#utility.yul\":3707:3714   */\n      dup5\n        /* \"#utility.yul\":3703:3726   */\n      sub\n        /* \"#utility.yul\":3699:3731   */\n      slt\n        /* \"#utility.yul\":3696:3815   */\n      iszero\n      tag_253\n      jumpi\n        /* \"#utility.yul\":3734:3813   */\n      tag_254\n      tag_168\n      jump\t// in\n    tag_254:\n        /* \"#utility.yul\":3696:3815   */\n    tag_253:\n        /* \"#utility.yul\":3854:3855   */\n      0x00\n        /* \"#utility.yul\":3879:3932   */\n      tag_255\n        /* \"#utility.yul\":3924:3931   */\n      dup5\n        /* \"#utility.yul\":3915:3921   */\n      dup3\n        /* \"#utility.yul\":3904:3913   */\n      dup6\n        /* \"#utility.yul\":3900:3922   */\n      add\n        /* \"#utility.yul\":3879:3932   */\n      tag_179\n      jump\t// in\n    tag_255:\n        /* \"#utility.yul\":3869:3932   */\n      swap2\n      pop\n        /* \"#utility.yul\":3825:3942   */\n      pop\n        /* \"#utility.yul\":3620:3949   */\n      swap3\n      swap2\n      pop\n      pop\n      jump\t// out\n        /* \"#utility.yul\":3955:4425   */\n    tag_50:\n        /* \"#utility.yul\":4021:4027   */\n      0x00\n        /* \"#utility.yul\":4029:4035   */\n      0x00\n        /* \"#utility.yul\":4078:4080   */\n      0x40\n        /* \"#utility.yul\":4066:4075   */\n      dup4\n        /* \"#utility.yul\":4057:4064   */\n      dup6\n        /* \"#utility.yul\":4053:4076   */\n      sub\n        /* \"#utility.yul\":4049:4081   */\n      slt\n        /* \"#utility.yul\":4046:4165   */\n      iszero\n      tag_257\n      jumpi\n        /* \"#utility.yul\":4084:4163   */\n      tag_258\n      tag_168\n      jump\t// in\n    tag_258:\n        /* \"#utility.yul\":4046:4165   */\n    tag_257:\n        /* \"#utility.yul\":4204:4205   */\n      0x00\n        /* \"#utility.yul\":4229:4282   */\n      tag_259\n        /* \"#utility.yul\":4274:4281   */\n      dup6\n        /* \"#utility.yul\":4265:4271   */\n      dup3\n        /* \"#utility.yul\":4254:4263   */\n      dup7\n        /* \"#utility.yul\":4250:4272   */\n      add\n        /* \"#utility.yul\":4229:4282   */\n      tag_173\n      jump\t// in\n    tag_259:\n        /* \"#utility.yul\":4219:4282   */\n      swap3\n      pop\n        /* \"#utility.yul\":4175:4292   */\n      pop\n        /* \"#utility.yul\":4331:4333   */\n      0x20\n        /* \"#utility.yul\":4357:4408   */\n      tag_260\n        /* \"#utility.yul\":4400:4407   */\n      dup6\n        /* \"#utility.yul\":4391:4397   */\n      dup3\n        /* \"#utility.yul\":4380:4389   */\n      dup7\n        /* \"#utility.yul\":4376:4398   */\n      add\n        /* \"#utility.yul\":4357:4408   */\n      tag_176\n      jump\t// in\n    tag_260:\n        /* \"#utility.yul\":4347:4408   */\n      swap2\n      pop\n        /* \"#utility.yul\":4302:4418   */\n      pop\n        /* \"#utility.yul\":3955:4425   */\n      swap3\n      pop\n      swap3\n      swap1\n      pop\n      jump\t// out\n        /* \"#utility.yul\":4431:4549   */\n    tag_183:\n        /* \"#utility.yul\":4518:4542   */\n      tag_262\n        /* \"#utility.yul\":4536:4541   */\n      dup2\n        /* \"#utility.yul\":4518:4542   */\n      tag_171\n      jump\t// in\n    tag_262:\n        /* \"#utility.yul\":4513:4516   */\n      dup3\n        /* \"#utility.yul\":4506:4543   */\n      mstore\n        /* \"#utility.yul\":4431:4549   */\n      pop\n      pop\n      jump\t// out\n        /* \"#utility.yul\":4555:4777   */\n    tag_58:\n        /* \"#utility.yul\":4648:4652   */\n      0x00\n        /* \"#utility.yul\":4686:4688   */\n      0x20\n        /* \"#utility.yul\":4675:4684   */\n      dup3\n        /* \"#utility.yul\":4671:4689   */\n      add\n        /* \"#utility.yul\":4663:4689   */\n      swap1\n      pop\n        /* \"#utility.yul\":4699:4770   */\n      tag_264\n        /* \"#utility.yul\":4767:4768   */\n      0x00\n        /* \"#utility.yul\":4756:4765   */\n      dup4\n        /* \"#utility.yul\":4752:4769   */\n      add\n        /* \"#utility.yul\":4743:4749   */\n      dup5\n        /* \"#utility.yul\":4699:4770   */\n      tag_183\n      jump\t// in\n    tag_264:\n        /* \"#utility.yul\":4555:4777   */\n      swap3\n      swap2\n      pop\n      pop\n      jump\t// out\n        /* \"#utility.yul\":4783:4899   */\n    tag_184:\n        /* \"#utility.yul\":4853:4874   */\n      tag_266\n        /* \"#utility.yul\":4868:4873   */\n      dup2\n        /* \"#utility.yul\":4853:4874   */\n      tag_181\n      jump\t// in\n    tag_266:\n        /* \"#utility.yul\":4846:4851   */\n      dup2\n        /* \"#utility.yul\":4843:4875   */\n      eq\n        /* \"#utility.yul\":4833:4893   */\n      tag_267\n      jumpi\n        /* \"#utility.yul\":4889:4890   */\n      0x00\n        /* \"#utility.yul\":4886:4887   */\n      0x00\n        /* \"#utility.yul\":4879:4891   */\n      revert\n        /* \"#utility.yul\":4833:4893   */\n    tag_267:\n        /* \"#utility.yul\":4783:4899   */\n      pop\n      jump\t// out\n        /* \"#utility.yul\":4905:5038   */\n    tag_185:\n        /* \"#utility.yul\":4948:4953   */\n      0x00\n        /* \"#utility.yul\":4986:4992   */\n      dup2\n        /* \"#utility.yul\":4973:4993   */\n      calldataload\n        /* \"#utility.yul\":4964:4993   */\n      swap1\n      pop\n        /* \"#utility.yul\":5002:5032   */\n      tag_269\n        /* \"#utility.yul\":5026:5031   */\n      dup2\n        /* \"#utility.yul\":5002:5032   */\n      tag_184\n      jump\t// in\n    tag_269:\n        /* \"#utility.yul\":4905:5038   */\n      swap3\n      swap2\n      pop\n      pop\n      jump\t// out\n        /* \"#utility.yul\":5044:5367   */\n    tag_61:\n        /* \"#utility.yul\":5100:5106   */\n      0x00\n        /* \"#utility.yul\":5149:5151   */\n      0x20\n        /* \"#utility.yul\":5137:5146   */\n      dup3\n        /* \"#utility.yul\":5128:5135   */\n      dup5\n        /* \"#utility.yul\":5124:5147   */\n      sub\n        /* \"#utility.yul\":5120:5152   */\n      slt\n        /* \"#utility.yul\":5117:5236   */\n      iszero\n      tag_271\n      jumpi\n        /* \"#utility.yul\":5155:5234   */\n      tag_272\n      tag_168\n      jump\t// in\n    tag_272:\n        /* \"#utility.yul\":5117:5236   */\n    tag_271:\n        /* \"#utility.yul\":5275:5276   */\n      0x00\n        /* \"#utility.yul\":5300:5350   */\n      tag_273\n        /* \"#utility.yul\":5342:5349   */\n      dup5\n        /* \"#utility.yul\":5333:5339   */\n      dup3\n        /* \"#utility.yul\":5322:5331   */\n      dup6\n        /* \"#utility.yul\":5318:5340   */\n      add\n        /* \"#utility.yul\":5300:5350   */\n      tag_185\n      jump\t// in\n    tag_273:\n        /* \"#utility.yul\":5290:5350   */\n      swap2\n      pop\n        /* \"#utility.yul\":5246:5360   */\n      pop\n        /* \"#utility.yul\":5044:5367   */\n      swap3\n      swap2\n      pop\n      pop\n      jump\t// out\n        /* \"#utility.yul\":5373:5485   */\n    tag_186:\n        /* \"#utility.yul\":5456:5478   */\n      tag_275\n        /* \"#utility.yul\":5472:5477   */\n      dup2\n        /* \"#utility.yul\":5456:5478   */\n      tag_174\n      jump\t// in\n    tag_275:\n        /* \"#utility.yul\":5451:5454   */\n      dup3\n        /* \"#utility.yul\":5444:5479   */\n      mstore\n        /* \"#utility.yul\":5373:5485   */\n      pop\n      pop\n      jump\t// out\n        /* \"#utility.yul\":5491:5705   */\n    tag_70:\n        /* \"#utility.yul\":5580:5584   */\n      0x00\n        /* \"#utility.yul\":5618:5620   */\n      0x20\n        /* \"#utility.yul\":5607:5616   */\n      dup3\n        /* \"#utility.yul\":5603:5621   */\n      add\n        /* \"#utility.yul\":5595:5621   */\n      swap1\n      pop\n        /* \"#utility.yul\":5631:5698   */\n      tag_277\n        /* \"#utility.yul\":5695:5696   */\n      0x00\n        /* \"#utility.yul\":5684:5693   */\n      dup4\n        /* \"#utility.yul\":5680:5697   */\n      add\n        /* \"#utility.yul\":5671:5677   */\n      dup5\n        /* \"#utility.yul\":5631:5698   */\n      tag_186\n      jump\t// in\n    tag_277:\n        /* \"#utility.yul\":5491:5705   */\n      swap3\n      swap2\n      pop\n      pop\n      jump\t// out\n        /* \"#utility.yul\":5711:5771   */\n    tag_187:\n        /* \"#utility.yul\":5739:5742   */\n      0x00\n        /* \"#utility.yul\":5760:5765   */\n      dup2\n        /* \"#utility.yul\":5753:5765   */\n      swap1\n      pop\n        /* \"#utility.yul\":5711:5771   */\n      swap2\n      swap1\n      pop\n      jump\t// out\n        /* \"#utility.yul\":5777:5919   */\n    tag_188:\n        /* \"#utility.yul\":5827:5836   */\n      0x00\n        /* \"#utility.yul\":5860:5913   */\n      tag_280\n        /* \"#utility.yul\":5878:5912   */\n      tag_281\n        /* \"#utility.yul\":5887:5911   */\n      tag_282\n        /* \"#utility.yul\":5905:5910   */\n      dup5\n        /* \"#utility.yul\":5887:5911   */\n      tag_170\n      jump\t// in\n    tag_282:\n        /* \"#utility.yul\":5878:5912   */\n      tag_187\n      jump\t// in\n    tag_281:\n        /* \"#utility.yul\":5860:5913   */\n      tag_170\n      jump\t// in\n    tag_280:\n        /* \"#utility.yul\":5847:5913   */\n      swap1\n      pop\n        /* \"#utility.yul\":5777:5919   */\n      swap2\n      swap1\n      pop\n      jump\t// out\n        /* \"#utility.yul\":5925:6051   */\n    tag_189:\n        /* \"#utility.yul\":5975:5984   */\n      0x00\n        /* \"#utility.yul\":6008:6045   */\n      tag_284\n        /* \"#utility.yul\":6039:6044   */\n      dup3\n        /* \"#utility.yul\":6008:6045   */\n      tag_188\n      jump\t// in\n    tag_284:\n        /* \"#utility.yul\":5995:6045   */\n      swap1\n      pop\n        /* \"#utility.yul\":5925:6051   */\n      swap2\n      swap1\n      pop\n      jump\t// out\n        /* \"#utility.yul\":6057:6197   */\n    tag_190:\n        /* \"#utility.yul\":6121:6130   */\n      0x00\n        /* \"#utility.yul\":6154:6191   */\n      tag_286\n        /* \"#utility.yul\":6185:6190   */\n      dup3\n        /* \"#utility.yul\":6154:6191   */\n      tag_189\n      jump\t// in\n    tag_286:\n        /* \"#utility.yul\":6141:6191   */\n      swap1\n      pop\n        /* \"#utility.yul\":6057:6197   */\n      swap2\n      swap1\n      pop\n      jump\t// out\n        /* \"#utility.yul\":6203:6362   */\n    tag_191:\n        /* \"#utility.yul\":6304:6355   */\n      tag_288\n        /* \"#utility.yul\":6349:6354   */\n      dup2\n        /* \"#utility.yul\":6304:6355   */\n      tag_190\n      jump\t// in\n    tag_288:\n        /* \"#utility.yul\":6299:6302   */\n      dup3\n        /* \"#utility.yul\":6292:6356   */\n      mstore\n        /* \"#utility.yul\":6203:6362   */\n      pop\n      pop\n      jump\t// out\n        /* \"#utility.yul\":6368:6618   */\n    tag_77:\n        /* \"#utility.yul\":6475:6479   */\n      0x00\n        /* \"#utility.yul\":6513:6515   */\n      0x20\n        /* \"#utility.yul\":6502:6511   */\n      dup3\n        /* \"#utility.yul\":6498:6516   */\n      add\n        /* \"#utility.yul\":6490:6516   */\n      swap1\n      pop\n        /* \"#utility.yul\":6526:6611   */\n      tag_290\n        /* \"#utility.yul\":6608:6609   */\n      0x00\n        /* \"#utility.yul\":6597:6606   */\n      dup4\n        /* \"#utility.yul\":6593:6610   */\n      add\n        /* \"#utility.yul\":6584:6590   */\n      dup5\n        /* \"#utility.yul\":6526:6611   */\n      tag_191\n      jump\t// in\n    tag_290:\n        /* \"#utility.yul\":6368:6618   */\n      swap3\n      swap2\n      pop\n      pop\n      jump\t// out\n        /* \"#utility.yul\":6624:6793   */\n    tag_192:\n        /* \"#utility.yul\":6708:6719   */\n      0x00\n        /* \"#utility.yul\":6742:6748   */\n      dup3\n        /* \"#utility.yul\":6737:6740   */\n      dup3\n        /* \"#utility.yul\":6730:6749   */\n      mstore\n        /* \"#utility.yul\":6782:6786   */\n      0x20\n        /* \"#utility.yul\":6777:6780   */\n      dup3\n        /* \"#utility.yul\":6773:6787   */\n      add\n        /* \"#utility.yul\":6758:6787   */\n      swap1\n      pop\n        /* \"#utility.yul\":6624:6793   */\n      swap3\n      swap2\n      pop\n      pop\n      jump\t// out\n        /* \"#utility.yul\":6799:6965   */\n    tag_193:\n        /* \"#utility.yul\":6939:6957   */\n      0x496e76616c69642063617465676f727900000000000000000000000000000000\n        /* \"#utility.yul\":6935:6936   */\n      0x00\n        /* \"#utility.yul\":6927:6933   */\n      dup3\n        /* \"#utility.yul\":6923:6937   */\n      add\n        /* \"#utility.yul\":6916:6958   */\n      mstore\n        /* \"#utility.yul\":6799:6965   */\n      pop\n      jump\t// out\n        /* \"#utility.yul\":6971:7337   */\n    tag_194:\n        /* \"#utility.yul\":7113:7116   */\n      0x00\n        /* \"#utility.yul\":7134:7201   */\n      tag_294\n        /* \"#utility.yul\":7198:7200   */\n      0x10\n        /* \"#utility.yul\":7193:7196   */\n      dup4\n        /* \"#utility.yul\":7134:7201   */\n      tag_192\n      jump\t// in\n    tag_294:\n        /* \"#utility.yul\":7127:7201   */\n      swap2\n      pop\n        /* \"#utility.yul\":7210:7303   */\n      tag_295\n        /* \"#utility.yul\":7299:7302   */\n      dup3\n        /* \"#utility.yul\":7210:7303   */\n      tag_193\n      jump\t// in\n    tag_295:\n        /* \"#utility.yul\":7328:7330   */\n      0x20\n        /* \"#utility.yul\":7323:7326   */\n      dup3\n        /* \"#utility.yul\":7319:7331   */\n      add\n        /* \"#utility.yul\":7312:7331   */\n      swap1\n      pop\n        /* \"#utility.yul\":6971:7337   */\n      swap2\n      swap1\n      pop\n      jump\t// out\n        /* \"#utility.yul\":7343:7762   */\n    tag_85:\n        /* \"#utility.yul\":7509:7513   */\n      0x00\n        /* \"#utility.yul\":7547:7549   */\n      0x20\n        /* \"#utility.yul\":7536:7545   */\n      dup3\n        /* \"#utility.yul\":7532:7550   */\n      add\n        /* \"#utility.yul\":7524:7550   */\n      swap1\n      pop\n        /* \"#utility.yul\":7596:7605   */\n      dup2\n        /* \"#utility.yul\":7590:7594   */\n      dup2\n        /* \"#utility.yul\":7586:7606   */\n      sub\n        /* \"#utility.yul\":7582:7583   */\n      0x00\n        /* \"#utility.yul\":7571:7580   */\n      dup4\n        /* \"#utility.yul\":7567:7584   */\n      add\n        /* \"#utility.yul\":7560:7607   */\n      mstore\n        /* \"#utility.yul\":7624:7755   */\n      tag_297\n        /* \"#utility.yul\":7750:7754   */\n      dup2\n        /* \"#utility.yul\":7624:7755   */\n      tag_194\n      jump\t// in\n    tag_297:\n        /* \"#utility.yul\":7616:7755   */\n      swap1\n      pop\n        /* \"#utility.yul\":7343:7762   */\n      swap2\n      swap1\n      pop\n      jump\t// out\n        /* \"#utility.yul\":7768:7938   */\n    tag_195:\n        /* \"#utility.yul\":7908:7930   */\n      0x5573657220616c726561647920636c61696d6564000000000000000000000000\n        /* \"#utility.yul\":7904:7905   */\n      0x00\n        /* \"#utility.yul\":7896:7902   */\n      dup3\n        /* \"#utility.yul\":7892:7906   */\n      add\n        /* \"#utility.yul\":7885:7931   */\n      mstore\n        /* \"#utility.yul\":7768:7938   */\n      pop\n      jump\t// out\n        /* \"#utility.yul\":7944:8310   */\n    tag_196:\n        /* \"#utility.yul\":8086:8089   */\n      0x00\n        /* \"#utility.yul\":8107:8174   */\n      tag_300\n        /* \"#utility.yul\":8171:8173   */\n      0x14\n        /* \"#utility.yul\":8166:8169   */\n      dup4\n        /* \"#utility.yul\":8107:8174   */\n      tag_192\n      jump\t// in\n    tag_300:\n        /* \"#utility.yul\":8100:8174   */\n      swap2\n      pop\n        /* \"#utility.yul\":8183:8276   */\n      tag_301\n        /* \"#utility.yul\":8272:8275   */\n      dup3\n        /* \"#utility.yul\":8183:8276   */\n      tag_195\n      jump\t// in\n    tag_301:\n        /* \"#utility.yul\":8301:8303   */\n      0x20\n        /* \"#utility.yul\":8296:8299   */\n      dup3\n        /* \"#utility.yul\":8292:8304   */\n      add\n        /* \"#utility.yul\":8285:8304   */\n      swap1\n      pop\n        /* \"#utility.yul\":7944:8310   */\n      swap2\n      swap1\n      pop\n      jump\t// out\n        /* \"#utility.yul\":8316:8735   */\n    tag_88:\n        /* \"#utility.yul\":8482:8486   */\n      0x00\n        /* \"#utility.yul\":8520:8522   */\n      0x20\n        /* \"#utility.yul\":8509:8518   */\n      dup3\n        /* \"#utility.yul\":8505:8523   */\n      add\n        /* \"#utility.yul\":8497:8523   */\n      swap1\n      pop\n        /* \"#utility.yul\":8569:8578   */\n      dup2\n        /* \"#utility.yul\":8563:8567   */\n      dup2\n        /* \"#utility.yul\":8559:8579   */\n      sub\n        /* \"#utility.yul\":8555:8556   */\n      0x00\n        /* \"#utility.yul\":8544:8553   */\n      dup4\n        /* \"#utility.yul\":8540:8557   */\n      add\n        /* \"#utility.yul\":8533:8580   */\n      mstore\n        /* \"#utility.yul\":8597:8728   */\n      tag_303\n        /* \"#utility.yul\":8723:8727   */\n      dup2\n        /* \"#utility.yul\":8597:8728   */\n      tag_196\n      jump\t// in\n    tag_303:\n        /* \"#utility.yul\":8589:8728   */\n      swap1\n      pop\n        /* \"#utility.yul\":8316:8735   */\n      swap2\n      swap1\n      pop\n      jump\t// out\n        /* \"#utility.yul\":8741:8921   */\n    tag_197:\n        /* \"#utility.yul\":8789:8866   */\n      0x4e487b7100000000000000000000000000000000000000000000000000000000\n        /* \"#utility.yul\":8786:8787   */\n      0x00\n        /* \"#utility.yul\":8779:8867   */\n      mstore\n        /* \"#utility.yul\":8886:8890   */\n      0x11\n        /* \"#utility.yul\":8883:8884   */\n      0x04\n        /* \"#utility.yul\":8876:8891   */\n      mstore\n        /* \"#utility.yul\":8910:8914   */\n      0x24\n        /* \"#utility.yul\":8907:8908   */\n      0x00\n        /* \"#utility.yul\":8900:8915   */\n      revert\n        /* \"#utility.yul\":8927:9118   */\n    tag_90:\n        /* \"#utility.yul\":8967:8970   */\n      0x00\n        /* \"#utility.yul\":8986:9006   */\n      tag_306\n        /* \"#utility.yul\":9004:9005   */\n      dup3\n        /* \"#utility.yul\":8986:9006   */\n      tag_177\n      jump\t// in\n    tag_306:\n        /* \"#utility.yul\":8981:9006   */\n      swap2\n      pop\n        /* \"#utility.yul\":9020:9040   */\n      tag_307\n        /* \"#utility.yul\":9038:9039   */\n      dup4\n        /* \"#utility.yul\":9020:9040   */\n      tag_177\n      jump\t// in\n    tag_307:\n        /* \"#utility.yul\":9015:9040   */\n      swap3\n      pop\n        /* \"#utility.yul\":9063:9064   */\n      dup3\n        /* \"#utility.yul\":9060:9061   */\n      dup3\n        /* \"#utility.yul\":9056:9065   */\n      add\n        /* \"#utility.yul\":9049:9065   */\n      swap1\n      pop\n        /* \"#utility.yul\":9084:9087   */\n      dup1\n        /* \"#utility.yul\":9081:9082   */\n      dup3\n        /* \"#utility.yul\":9078:9088   */\n      gt\n        /* \"#utility.yul\":9075:9111   */\n      iszero\n      tag_308\n      jumpi\n        /* \"#utility.yul\":9091:9109   */\n      tag_309\n      tag_197\n      jump\t// in\n    tag_309:\n        /* \"#utility.yul\":9075:9111   */\n    tag_308:\n        /* \"#utility.yul\":8927:9118   */\n      swap3\n      swap2\n      pop\n      pop\n      jump\t// out\n        /* \"#utility.yul\":9124:9448   */\n    tag_93:\n        /* \"#utility.yul\":9241:9245   */\n      0x00\n        /* \"#utility.yul\":9279:9281   */\n      0x40\n        /* \"#utility.yul\":9268:9277   */\n      dup3\n        /* \"#utility.yul\":9264:9282   */\n      add\n        /* \"#utility.yul\":9256:9282   */\n      swap1\n      pop\n        /* \"#utility.yul\":9292:9359   */\n      tag_311\n        /* \"#utility.yul\":9356:9357   */\n      0x00\n        /* \"#utility.yul\":9345:9354   */\n      dup4\n        /* \"#utility.yul\":9341:9358   */\n      add\n        /* \"#utility.yul\":9332:9338   */\n      dup6\n        /* \"#utility.yul\":9292:9359   */\n      tag_186\n      jump\t// in\n    tag_311:\n        /* \"#utility.yul\":9369:9441   */\n      tag_312\n        /* \"#utility.yul\":9437:9439   */\n      0x20\n        /* \"#utility.yul\":9426:9435   */\n      dup4\n        /* \"#utility.yul\":9422:9440   */\n      add\n        /* \"#utility.yul\":9413:9419   */\n      dup5\n        /* \"#utility.yul\":9369:9441   */\n      tag_180\n      jump\t// in\n    tag_312:\n        /* \"#utility.yul\":9124:9448   */\n      swap4\n      swap3\n      pop\n      pop\n      pop\n      jump\t// out\n        /* \"#utility.yul\":9454:9597   */\n    tag_198:\n        /* \"#utility.yul\":9511:9516   */\n      0x00\n        /* \"#utility.yul\":9542:9548   */\n      dup2\n        /* \"#utility.yul\":9536:9549   */\n      mload\n        /* \"#utility.yul\":9527:9549   */\n      swap1\n      pop\n        /* \"#utility.yul\":9558:9591   */\n      tag_314\n        /* \"#utility.yul\":9585:9590   */\n      dup2\n        /* \"#utility.yul\":9558:9591   */\n      tag_178\n      jump\t// in\n    tag_314:\n        /* \"#utility.yul\":9454:9597   */\n      swap3\n      swap2\n      pop\n      pop\n      jump\t// out\n        /* \"#utility.yul\":9603:9954   */\n    tag_101:\n        /* \"#utility.yul\":9673:9679   */\n      0x00\n        /* \"#utility.yul\":9722:9724   */\n      0x20\n        /* \"#utility.yul\":9710:9719   */\n      dup3\n        /* \"#utility.yul\":9701:9708   */\n      dup5\n        /* \"#utility.yul\":9697:9720   */\n      sub\n        /* \"#utility.yul\":9693:9725   */\n      slt\n        /* \"#utility.yul\":9690:9809   */\n      iszero\n      tag_316\n      jumpi\n        /* \"#utility.yul\":9728:9807   */\n      tag_317\n      tag_168\n      jump\t// in\n    tag_317:\n        /* \"#utility.yul\":9690:9809   */\n    tag_316:\n        /* \"#utility.yul\":9848:9849   */\n      0x00\n        /* \"#utility.yul\":9873:9937   */\n      tag_318\n        /* \"#utility.yul\":9929:9936   */\n      dup5\n        /* \"#utility.yul\":9920:9926   */\n      dup3\n        /* \"#utility.yul\":9909:9918   */\n      dup6\n        /* \"#utility.yul\":9905:9927   */\n      add\n        /* \"#utility.yul\":9873:9937   */\n      tag_198\n      jump\t// in\n    tag_318:\n        /* \"#utility.yul\":9863:9937   */\n      swap2\n      pop\n        /* \"#utility.yul\":9819:9947   */\n      pop\n        /* \"#utility.yul\":9603:9954   */\n      swap3\n      swap2\n      pop\n      pop\n      jump\t// out\n        /* \"#utility.yul\":9960:10292   */\n    tag_103:\n        /* \"#utility.yul\":10081:10085   */\n      0x00\n        /* \"#utility.yul\":10119:10121   */\n      0x40\n        /* \"#utility.yul\":10108:10117   */\n      dup3\n        /* \"#utility.yul\":10104:10122   */\n      add\n        /* \"#utility.yul\":10096:10122   */\n      swap1\n      pop\n        /* \"#utility.yul\":10132:10203   */\n      tag_320\n        /* \"#utility.yul\":10200:10201   */\n      0x00\n        /* \"#utility.yul\":10189:10198   */\n      dup4\n        /* \"#utility.yul\":10185:10202   */\n      add\n        /* \"#utility.yul\":10176:10182   */\n      dup6\n        /* \"#utility.yul\":10132:10203   */\n      tag_183\n      jump\t// in\n    tag_320:\n        /* \"#utility.yul\":10213:10285   */\n      tag_321\n        /* \"#utility.yul\":10281:10283   */\n      0x20\n        /* \"#utility.yul\":10270:10279   */\n      dup4\n        /* \"#utility.yul\":10266:10284   */\n      add\n        /* \"#utility.yul\":10257:10263   */\n      dup5\n        /* \"#utility.yul\":10213:10285   */\n      tag_180\n      jump\t// in\n    tag_321:\n        /* \"#utility.yul\":9960:10292   */\n      swap4\n      swap3\n      pop\n      pop\n      pop\n      jump\t// out\n        /* \"#utility.yul\":10298:10435   */\n    tag_199:\n        /* \"#utility.yul\":10352:10357   */\n      0x00\n        /* \"#utility.yul\":10383:10389   */\n      dup2\n        /* \"#utility.yul\":10377:10390   */\n      mload\n        /* \"#utility.yul\":10368:10390   */\n      swap1\n      pop\n        /* \"#utility.yul\":10399:10429   */\n      tag_323\n        /* \"#utility.yul\":10423:10428   */\n      dup2\n        /* \"#utility.yul\":10399:10429   */\n      tag_184\n      jump\t// in\n    tag_323:\n        /* \"#utility.yul\":10298:10435   */\n      swap3\n      swap2\n      pop\n      pop\n      jump\t// out\n        /* \"#utility.yul\":10441:10786   */\n    tag_107:\n        /* \"#utility.yul\":10508:10514   */\n      0x00\n        /* \"#utility.yul\":10557:10559   */\n      0x20\n        /* \"#utility.yul\":10545:10554   */\n      dup3\n        /* \"#utility.yul\":10536:10543   */\n      dup5\n        /* \"#utility.yul\":10532:10555   */\n      sub\n        /* \"#utility.yul\":10528:10560   */\n      slt\n        /* \"#utility.yul\":10525:10644   */\n      iszero\n      tag_325\n      jumpi\n        /* \"#utility.yul\":10563:10642   */\n      tag_326\n      tag_168\n      jump\t// in\n    tag_326:\n        /* \"#utility.yul\":10525:10644   */\n    tag_325:\n        /* \"#utility.yul\":10683:10684   */\n      0x00\n        /* \"#utility.yul\":10708:10769   */\n      tag_327\n        /* \"#utility.yul\":10761:10768   */\n      dup5\n        /* \"#utility.yul\":10752:10758   */\n      dup3\n        /* \"#utility.yul\":10741:10750   */\n      dup6\n        /* \"#utility.yul\":10737:10759   */\n      add\n        /* \"#utility.yul\":10708:10769   */\n      tag_199\n      jump\t// in\n    tag_327:\n        /* \"#utility.yul\":10698:10769   */\n      swap2\n      pop\n        /* \"#utility.yul\":10654:10779   */\n      pop\n        /* \"#utility.yul\":10441:10786   */\n      swap3\n      swap2\n      pop\n      pop\n      jump\t// out\n        /* \"#utility.yul\":10792:10962   */\n    tag_200:\n        /* \"#utility.yul\":10932:10954   */\n      0x436c61696d696e67206e6f7420656e61626c6564000000000000000000000000\n        /* \"#utility.yul\":10928:10929   */\n      0x00\n        /* \"#utility.yul\":10920:10926   */\n      dup3\n        /* \"#utility.yul\":10916:10930   */\n      add\n        /* \"#utility.yul\":10909:10955   */\n      mstore\n        /* \"#utility.yul\":10792:10962   */\n      pop\n      jump\t// out\n        /* \"#utility.yul\":10968:11334   */\n    tag_201:\n        /* \"#utility.yul\":11110:11113   */\n      0x00\n        /* \"#utility.yul\":11131:11198   */\n      tag_330\n        /* \"#utility.yul\":11195:11197   */\n      0x14\n        /* \"#utility.yul\":11190:11193   */\n      dup4\n        /* \"#utility.yul\":11131:11198   */\n      tag_192\n      jump\t// in\n    tag_330:\n        /* \"#utility.yul\":11124:11198   */\n      swap2\n      pop\n        /* \"#utility.yul\":11207:11300   */\n      tag_331\n        /* \"#utility.yul\":11296:11299   */\n      dup3\n        /* \"#utility.yul\":11207:11300   */\n      tag_200\n      jump\t// in\n    tag_331:\n        /* \"#utility.yul\":11325:11327   */\n      0x20\n        /* \"#utility.yul\":11320:11323   */\n      dup3\n        /* \"#utility.yul\":11316:11328   */\n      add\n        /* \"#utility.yul\":11309:11328   */\n      swap1\n      pop\n        /* \"#utility.yul\":10968:11334   */\n      swap2\n      swap1\n      pop\n      jump\t// out\n        /* \"#utility.yul\":11340:11759   */\n    tag_111:\n        /* \"#utility.yul\":11506:11510   */\n      0x00\n        /* \"#utility.yul\":11544:11546   */\n      0x20\n        /* \"#utility.yul\":11533:11542   */\n      dup3\n        /* \"#utility.yul\":11529:11547   */\n      add\n        /* \"#utility.yul\":11521:11547   */\n      swap1\n      pop\n        /* \"#utility.yul\":11593:11602   */\n      dup2\n        /* \"#utility.yul\":11587:11591   */\n      dup2\n        /* \"#utility.yul\":11583:11603   */\n      sub\n        /* \"#utility.yul\":11579:11580   */\n      0x00\n        /* \"#utility.yul\":11568:11577   */\n      dup4\n        /* \"#utility.yul\":11564:11581   */\n      add\n        /* \"#utility.yul\":11557:11604   */\n      mstore\n        /* \"#utility.yul\":11621:11752   */\n      tag_333\n        /* \"#utility.yul\":11747:11751   */\n      dup2\n        /* \"#utility.yul\":11621:11752   */\n      tag_201\n      jump\t// in\n    tag_333:\n        /* \"#utility.yul\":11613:11752   */\n      swap1\n      pop\n        /* \"#utility.yul\":11340:11759   */\n      swap2\n      swap1\n      pop\n      jump\t// out\n        /* \"#utility.yul\":11765:11930   */\n    tag_202:\n        /* \"#utility.yul\":11905:11922   */\n      0x416c726561647920636c61696d65640000000000000000000000000000000000\n        /* \"#utility.yul\":11901:11902   */\n      0x00\n        /* \"#utility.yul\":11893:11899   */\n      dup3\n        /* \"#utility.yul\":11889:11903   */\n      add\n        /* \"#utility.yul\":11882:11923   */\n      mstore\n        /* \"#utility.yul\":11765:11930   */\n      pop\n      jump\t// out\n        /* \"#utility.yul\":11936:12302   */\n    tag_203:\n        /* \"#utility.yul\":12078:12081   */\n      0x00\n        /* \"#utility.yul\":12099:12166   */\n      tag_336\n        /* \"#utility.yul\":12163:12165   */\n      0x0f\n        /* \"#utility.yul\":12158:12161   */\n      dup4\n        /* \"#utility.yul\":12099:12166   */\n      tag_192\n      jump\t// in\n    tag_336:\n        /* \"#utility.yul\":12092:12166   */\n      swap2\n      pop\n        /* \"#utility.yul\":12175:12268   */\n      tag_337\n        /* \"#utility.yul\":12264:12267   */\n      dup3\n        /* \"#utility.yul\":12175:12268   */\n      tag_202\n      jump\t// in\n    tag_337:\n        /* \"#utility.yul\":12293:12295   */\n      0x20\n        /* \"#utility.yul\":12288:12291   */\n      dup3\n        /* \"#utility.yul\":12284:12296   */\n      add\n        /* \"#utility.yul\":12277:12296   */\n      swap1\n      pop\n        /* \"#utility.yul\":11936:12302   */\n      swap2\n      swap1\n      pop\n      jump\t// out\n        /* \"#utility.yul\":12308:12727   */\n    tag_114:\n        /* \"#utility.yul\":12474:12478   */\n      0x00\n        /* \"#utility.yul\":12512:12514   */\n      0x20\n        /* \"#utility.yul\":12501:12510   */\n      dup3\n        /* \"#utility.yul\":12497:12515   */\n      add\n        /* \"#utility.yul\":12489:12515   */\n      swap1\n      pop\n        /* \"#utility.yul\":12561:12570   */\n      dup2\n        /* \"#utility.yul\":12555:12559   */\n      dup2\n        /* \"#utility.yul\":12551:12571   */\n      sub\n        /* \"#utility.yul\":12547:12548   */\n      0x00\n        /* \"#utility.yul\":12536:12545   */\n      dup4\n        /* \"#utility.yul\":12532:12549   */\n      add\n        /* \"#utility.yul\":12525:12572   */\n      mstore\n        /* \"#utility.yul\":12589:12720   */\n      tag_339\n        /* \"#utility.yul\":12715:12719   */\n      dup2\n        /* \"#utility.yul\":12589:12720   */\n      tag_203\n      jump\t// in\n    tag_339:\n        /* \"#utility.yul\":12581:12720   */\n      swap1\n      pop\n        /* \"#utility.yul\":12308:12727   */\n      swap2\n      swap1\n      pop\n      jump\t// out\n        /* \"#utility.yul\":12733:12913   */\n    tag_204:\n        /* \"#utility.yul\":12781:12858   */\n      0x4e487b7100000000000000000000000000000000000000000000000000000000\n        /* \"#utility.yul\":12778:12779   */\n      0x00\n        /* \"#utility.yul\":12771:12859   */\n      mstore\n        /* \"#utility.yul\":12878:12882   */\n      0x12\n        /* \"#utility.yul\":12875:12876   */\n      0x04\n        /* \"#utility.yul\":12868:12883   */\n      mstore\n        /* \"#utility.yul\":12902:12906   */\n      0x24\n        /* \"#utility.yul\":12899:12900   */\n      0x00\n        /* \"#utility.yul\":12892:12907   */\n      revert\n        /* \"#utility.yul\":12919:13104   */\n    tag_116:\n        /* \"#utility.yul\":12959:12960   */\n      0x00\n        /* \"#utility.yul\":12976:12996   */\n      tag_342\n        /* \"#utility.yul\":12994:12995   */\n      dup3\n        /* \"#utility.yul\":12976:12996   */\n      tag_177\n      jump\t// in\n    tag_342:\n        /* \"#utility.yul\":12971:12996   */\n      swap2\n      pop\n        /* \"#utility.yul\":13010:13030   */\n      tag_343\n        /* \"#utility.yul\":13028:13029   */\n      dup4\n        /* \"#utility.yul\":13010:13030   */\n      tag_177\n      jump\t// in\n    tag_343:\n        /* \"#utility.yul\":13005:13030   */\n      swap3\n      pop\n        /* \"#utility.yul\":13049:13050   */\n      dup3\n        /* \"#utility.yul\":13039:13074   */\n      tag_344\n      jumpi\n        /* \"#utility.yul\":13054:13072   */\n      tag_345\n      tag_204\n      jump\t// in\n    tag_345:\n        /* \"#utility.yul\":13039:13074   */\n    tag_344:\n        /* \"#utility.yul\":13096:13097   */\n      dup3\n        /* \"#utility.yul\":13093:13094   */\n      dup3\n        /* \"#utility.yul\":13089:13098   */\n      div\n        /* \"#utility.yul\":13084:13098   */\n      swap1\n      pop\n        /* \"#utility.yul\":12919:13104   */\n      swap3\n      swap2\n      pop\n      pop\n      jump\t// out\n        /* \"#utility.yul\":13110:13520   */\n    tag_123:\n        /* \"#utility.yul\":13150:13157   */\n      0x00\n        /* \"#utility.yul\":13173:13193   */\n      tag_347\n        /* \"#utility.yul\":13191:13192   */\n      dup3\n        /* \"#utility.yul\":13173:13193   */\n      tag_177\n      jump\t// in\n    tag_347:\n        /* \"#utility.yul\":13168:13193   */\n      swap2\n      pop\n        /* \"#utility.yul\":13207:13227   */\n      tag_348\n        /* \"#utility.yul\":13225:13226   */\n      dup4\n        /* \"#utility.yul\":13207:13227   */\n      tag_177\n      jump\t// in\n    tag_348:\n        /* \"#utility.yul\":13202:13227   */\n      swap3\n      pop\n        /* \"#utility.yul\":13262:13263   */\n      dup3\n        /* \"#utility.yul\":13259:13260   */\n      dup3\n        /* \"#utility.yul\":13255:13264   */\n      mul\n        /* \"#utility.yul\":13284:13314   */\n      tag_349\n        /* \"#utility.yul\":13302:13313   */\n      dup2\n        /* \"#utility.yul\":13284:13314   */\n      tag_177\n      jump\t// in\n    tag_349:\n        /* \"#utility.yul\":13273:13314   */\n      swap2\n      pop\n        /* \"#utility.yul\":13463:13464   */\n      dup3\n        /* \"#utility.yul\":13454:13461   */\n      dup3\n        /* \"#utility.yul\":13450:13465   */\n      div\n        /* \"#utility.yul\":13447:13448   */\n      dup5\n        /* \"#utility.yul\":13444:13466   */\n      eq\n        /* \"#utility.yul\":13424:13425   */\n      dup4\n        /* \"#utility.yul\":13417:13426   */\n      iszero\n        /* \"#utility.yul\":13397:13480   */\n      or\n        /* \"#utility.yul\":13374:13513   */\n      tag_350\n      jumpi\n        /* \"#utility.yul\":13493:13511   */\n      tag_351\n      tag_197\n      jump\t// in\n    tag_351:\n        /* \"#utility.yul\":13374:13513   */\n    tag_350:\n        /* \"#utility.yul\":13158:13520   */\n      pop\n        /* \"#utility.yul\":13110:13520   */\n      swap3\n      swap2\n      pop\n      pop\n      jump\t// out\n        /* \"#utility.yul\":13526:13693   */\n    tag_127:\n        /* \"#utility.yul\":13563:13566   */\n      0x00\n        /* \"#utility.yul\":13586:13608   */\n      tag_353\n        /* \"#utility.yul\":13602:13607   */\n      dup3\n        /* \"#utility.yul\":13586:13608   */\n      tag_174\n      jump\t// in\n    tag_353:\n        /* \"#utility.yul\":13577:13608   */\n      swap2\n      pop\n        /* \"#utility.yul\":13630:13634   */\n      0xff\n        /* \"#utility.yul\":13623:13628   */\n      dup3\n        /* \"#utility.yul\":13620:13635   */\n      sub\n        /* \"#utility.yul\":13617:13658   */\n      tag_354\n      jumpi\n        /* \"#utility.yul\":13638:13656   */\n      tag_355\n      tag_197\n      jump\t// in\n    tag_355:\n        /* \"#utility.yul\":13617:13658   */\n    tag_354:\n        /* \"#utility.yul\":13685:13686   */\n      0x01\n        /* \"#utility.yul\":13678:13683   */\n      dup3\n        /* \"#utility.yul\":13674:13687   */\n      add\n        /* \"#utility.yul\":13667:13687   */\n      swap1\n      pop\n        /* \"#utility.yul\":13526:13693   */\n      swap2\n      swap1\n      pop\n      jump\t// out\n        /* \"#utility.yul\":13699:14141   */\n    tag_137:\n        /* \"#utility.yul\":13848:13852   */\n      0x00\n        /* \"#utility.yul\":13886:13888   */\n      0x60\n        /* \"#utility.yul\":13875:13884   */\n      dup3\n        /* \"#utility.yul\":13871:13889   */\n      add\n        /* \"#utility.yul\":13863:13889   */\n      swap1\n      pop\n        /* \"#utility.yul\":13899:13970   */\n      tag_357\n        /* \"#utility.yul\":13967:13968   */\n      0x00\n        /* \"#utility.yul\":13956:13965   */\n      dup4\n        /* \"#utility.yul\":13952:13969   */\n      add\n        /* \"#utility.yul\":13943:13949   */\n      dup7\n        /* \"#utility.yul\":13899:13970   */\n      tag_183\n      jump\t// in\n    tag_357:\n        /* \"#utility.yul\":13980:14052   */\n      tag_358\n        /* \"#utility.yul\":14048:14050   */\n      0x20\n        /* \"#utility.yul\":14037:14046   */\n      dup4\n        /* \"#utility.yul\":14033:14051   */\n      add\n        /* \"#utility.yul\":14024:14030   */\n      dup6\n        /* \"#utility.yul\":13980:14052   */\n      tag_183\n      jump\t// in\n    tag_358:\n        /* \"#utility.yul\":14062:14134   */\n      tag_359\n        /* \"#utility.yul\":14130:14132   */\n      0x40\n        /* \"#utility.yul\":14119:14128   */\n      dup4\n        /* \"#utility.yul\":14115:14133   */\n      add\n        /* \"#utility.yul\":14106:14112   */\n      dup5\n        /* \"#utility.yul\":14062:14134   */\n      tag_180\n      jump\t// in\n    tag_359:\n        /* \"#utility.yul\":13699:14141   */\n      swap5\n      swap4\n      pop\n      pop\n      pop\n      pop\n      jump\t// out\n\n    auxdata: 0xa26469706673582212202dec00b3fc0a96c68485146d83a3a2217cbbe29f1b011fa6d50487eda7899be564736f6c634300081d0033\n}\n",
				"bytecode": {
					"linkReferences": {},
					"object": "608060405234801561000f575f5ffd5b506040516116c73803806116c783398181016040528101906100319190610252565b335f73ffffffffffffffffffffffffffffffffffffffff168173ffffffffffffffffffffffffffffffffffffffff16036100a2575f6040517f1e4fbdf7000000000000000000000000000000000000000000000000000000008152600401610099919061029f565b60405180910390fd5b6100b18161010060201b60201c565b508160015f6101000a81548173ffffffffffffffffffffffffffffffffffffffff021916908373ffffffffffffffffffffffffffffffffffffffff1602179055508060028190555050506102b8565b5f5f5f9054906101000a900473ffffffffffffffffffffffffffffffffffffffff169050815f5f6101000a81548173ffffffffffffffffffffffffffffffffffffffff021916908373ffffffffffffffffffffffffffffffffffffffff1602179055508173ffffffffffffffffffffffffffffffffffffffff168173ffffffffffffffffffffffffffffffffffffffff167f8be0079c531659141344cd1fd0a4f28419497f9722a3daafe3b4186f6b6457e060405160405180910390a35050565b5f5ffd5b5f73ffffffffffffffffffffffffffffffffffffffff82169050919050565b5f6101ee826101c5565b9050919050565b6101fe816101e4565b8114610208575f5ffd5b50565b5f81519050610219816101f5565b92915050565b5f819050919050565b6102318161021f565b811461023b575f5ffd5b50565b5f8151905061024c81610228565b92915050565b5f5f60408385031215610268576102676101c1565b5b5f6102758582860161020b565b92505060206102868582860161023e565b9150509250929050565b610299816101e4565b82525050565b5f6020820190506102b25f830184610290565b92915050565b611402806102c55f395ff3fe608060405234801561000f575f5ffd5b50600436106100f3575f3560e01c80636e402ff311610095578063c884ef8311610064578063c884ef8314610235578063e2181a1314610265578063f2fde38b14610283578063f7c618c11461029f576100f3565b80636e402ff3146101c1578063715018a6146101f15780638da5cb5b146101fb578063a08ab0a214610219576100f3565b80630e141a9b116100d15780630e141a9b146101615780630fadea301461017f57806348c54b9d1461019b5780634c15d259146101a5576100f3565b806307ac01c8146100f757806307c4d79f1461011357806309c85e2414610143575b5f5ffd5b610111600480360381019061010c9190610d72565b6102bd565b005b61012d60048036038101906101289190610dc2565b610491565b60405161013a9190610dfc565b60405180910390f35b61014b6104a6565b6040516101589190610dfc565b60405180910390f35b6101696104ac565b6040516101769190610e2f565b60405180910390f35b61019960048036038101906101949190610e48565b6104be565b005b6101a3610603565b005b6101bf60048036038101906101ba9190610e73565b61091a565b005b6101db60048036038101906101d69190610e9e565b6109dc565b6040516101e89190610dfc565b60405180910390f35b6101f96109fc565b005b610203610a0f565b6040516102109190610eeb565b60405180910390f35b610233600480360381019061022e9190610f2e565b610a36565b005b61024f600480360381019061024a9190610e48565b610a91565b60405161025c9190610e2f565b60405180910390f35b61026d610aae565b60405161027a9190610f68565b60405180910390f35b61029d60048036038101906102989190610e48565b610ab3565b005b6102a7610b37565b6040516102b49190610fdc565b60405180910390f35b6102c5610b5c565b5f8260ff161180156102de5750600360ff168260ff1611155b61031d576040517f08c379a00000000000000000000000000000000000000000000000000000000081526004016103149061104f565b60405180910390fd5b60065f8473ffffffffffffffffffffffffffffffffffffffff1673ffffffffffffffffffffffffffffffffffffffff1681526020019081526020015f205f9054906101000a900460ff16156103a7576040517f08c379a000000000000000000000000000000000000000000000000000000000815260040161039e906110b7565b60405180910390fd5b8060055f8573ffffffffffffffffffffffffffffffffffffffff1673ffffffffffffffffffffffffffffffffffffffff1681526020019081526020015f205f8460ff1660ff1681526020019081526020015f205f8282546104089190611102565b925050819055508060045f8460ff1660ff1681526020019081526020015f205f8282546104359190611102565b925050819055508273ffffffffffffffffffffffffffffffffffffffff167f94be0674b88c7689b9d2ac6de315c8846f94d9d1b158aac9e0680e8cb8035fce8383604051610484929190611135565b60405180910390a2505050565b6004602052805f5260405f205f915090505481565b60025481565b60035f9054906101000a900460ff1681565b6104c6610b5c565b5f60015f9054906101000a900473ffffffffffffffffffffffffffffffffffffffff1673ffffffffffffffffffffffffffffffffffffffff166370a08231306040518263ffffffff1660e01b81526004016105219190610eeb565b602060405180830381865afa15801561053c573d5f5f3e3d5ffd5b505050506040513d601f19601f820116820180604052508101906105609190611170565b905060015f9054906101000a900473ffffffffffffffffffffffffffffffffffffffff1673ffffffffffffffffffffffffffffffffffffffff1663a9059cbb83836040518363ffffffff1660e01b81526004016105be92919061119b565b6020604051808303815f875af11580156105da573d5f5f3e3d5ffd5b505050506040513d601f19601f820116820180604052508101906105fe91906111d6565b505050565b60035f9054906101000a900460ff16610651576040517f08c379a00000000000000000000000000000000000000000000000000000000081526004016106489061124b565b60405180910390fd5b60065f3373ffffffffffffffffffffffffffffffffffffffff1673ffffffffffffffffffffffffffffffffffffffff1681526020019081526020015f205f9054906101000a900460ff16156106db576040517f08c379a00000000000000000000000000000000000000000000000000000000081526004016106d2906112b3565b60405180910390fd5b5f5f600360ff166002546106ef91906112fe565b90505f600190505b600360ff168160ff16116107d5575f60055f3373ffffffffffffffffffffffffffffffffffffffff1673ffffffffffffffffffffffffffffffffffffffff1681526020019081526020015f205f8360ff1660ff1681526020019081526020015f205490505f8111801561078057505f60045f8460ff1660ff1681526020019081526020015f2054115b156107c15760045f8360ff1660ff1681526020019081526020015f205483826107a9919061132e565b6107b391906112fe565b846107be9190611102565b93505b5080806107cd9061136f565b9150506106f7565b50600160065f3373ffffffffffffffffffffffffffffffffffffffff1673ffffffffffffffffffffffffffffffffffffffff1681526020019081526020015f205f6101000a81548160ff02191690831515021790555060015f9054906101000a900473ffffffffffffffffffffffffffffffffffffffff1673ffffffffffffffffffffffffffffffffffffffff1663a9059cbb33846040518363ffffffff1660e01b815260040161088792919061119b565b6020604051808303815f875af11580156108a3573d5f5f3e3d5ffd5b505050506040513d601f19601f820116820180604052508101906108c791906111d6565b503373ffffffffffffffffffffffffffffffffffffffff167f896e034966eaaf1adc54acc0f257056febbd300c9e47182cf761982cf1f5e4308360405161090e9190610dfc565b60405180910390a25050565b610922610b5c565b60015f9054906101000a900473ffffffffffffffffffffffffffffffffffffffff1673ffffffffffffffffffffffffffffffffffffffff166323b872dd3330846040518463ffffffff1660e01b815260040161098093929190611397565b6020604051808303815f875af115801561099c573d5f5f3e3d5ffd5b505050506040513d601f19601f820116820180604052508101906109c091906111d6565b508060025f8282546109d29190611102565b9250508190555050565b6005602052815f5260405f20602052805f5260405f205f91509150505481565b610a04610b5c565b610a0d5f610be3565b565b5f5f5f9054906101000a900473ffffffffffffffffffffffffffffffffffffffff16905090565b610a3e610b5c565b8060035f6101000a81548160ff0219169083151502179055507f5357603b66ce52ad2bde073bf1baae8a126a96ae712f396257fa4b57169c36ab81604051610a869190610e2f565b60405180910390a150565b6006602052805f5260405f205f915054906101000a900460ff1681565b600381565b610abb610b5c565b5f73ffffffffffffffffffffffffffffffffffffffff168173ffffffffffffffffffffffffffffffffffffffff1603610b2b575f6040517f1e4fbdf7000000000000000000000000000000000000000000000000000000008152600401610b229190610eeb565b60405180910390fd5b610b3481610be3565b50565b60015f9054906101000a900473ffffffffffffffffffffffffffffffffffffffff1681565b610b64610ca4565b73ffffffffffffffffffffffffffffffffffffffff16610b82610a0f565b73ffffffffffffffffffffffffffffffffffffffff1614610be157610ba5610ca4565b6040517f118cdaa7000000000000000000000000000000000000000000000000000000008152600401610bd89190610eeb565b60405180910390fd5b565b5f5f5f9054906101000a900473ffffffffffffffffffffffffffffffffffffffff169050815f5f6101000a81548173ffffffffffffffffffffffffffffffffffffffff021916908373ffffffffffffffffffffffffffffffffffffffff1602179055508173ffffffffffffffffffffffffffffffffffffffff168173ffffffffffffffffffffffffffffffffffffffff167f8be0079c531659141344cd1fd0a4f28419497f9722a3daafe3b4186f6b6457e060405160405180910390a35050565b5f33905090565b5f5ffd5b5f73ffffffffffffffffffffffffffffffffffffffff82169050919050565b5f610cd882610caf565b9050919050565b610ce881610cce565b8114610cf2575f5ffd5b50565b5f81359050610d0381610cdf565b92915050565b5f60ff82169050919050565b610d1e81610d09565b8114610d28575f5ffd5b50565b5f81359050610d3981610d15565b92915050565b5f819050919050565b610d5181610d3f565b8114610d5b575f5ffd5b50565b5f81359050610d6c81610d48565b92915050565b5f5f5f60608486031215610d8957610d88610cab565b5b5f610d9686828701610cf5565b9350506020610da786828701610d2b565b9250506040610db886828701610d5e565b9150509250925092565b5f60208284031215610dd757610dd6610cab565b5b5f610de484828501610d2b565b91505092915050565b610df681610d3f565b82525050565b5f602082019050610e0f5f830184610ded565b92915050565b5f8115159050919050565b610e2981610e15565b82525050565b5f602082019050610e425f830184610e20565b92915050565b5f60208284031215610e5d57610e5c610cab565b5b5f610e6a84828501610cf5565b91505092915050565b5f60208284031215610e8857610e87610cab565b5b5f610e9584828501610d5e565b91505092915050565b5f5f60408385031215610eb457610eb3610cab565b5b5f610ec185828601610cf5565b9250506020610ed285828601610d2b565b9150509250929050565b610ee581610cce565b82525050565b5f602082019050610efe5f830184610edc565b92915050565b610f0d81610e15565b8114610f17575f5ffd5b50565b5f81359050610f2881610f04565b92915050565b5f60208284031215610f4357610f42610cab565b5b5f610f5084828501610f1a565b91505092915050565b610f6281610d09565b82525050565b5f602082019050610f7b5f830184610f59565b92915050565b5f819050919050565b5f610fa4610f9f610f9a84610caf565b610f81565b610caf565b9050919050565b5f610fb582610f8a565b9050919050565b5f610fc682610fab565b9050919050565b610fd681610fbc565b82525050565b5f602082019050610fef5f830184610fcd565b92915050565b5f82825260208201905092915050565b7f496e76616c69642063617465676f7279000000000000000000000000000000005f82015250565b5f611039601083610ff5565b915061104482611005565b602082019050919050565b5f6020820190508181035f8301526110668161102d565b9050919050565b7f5573657220616c726561647920636c61696d65640000000000000000000000005f82015250565b5f6110a1601483610ff5565b91506110ac8261106d565b602082019050919050565b5f6020820190508181035f8301526110ce81611095565b9050919050565b7f4e487b71000000000000000000000000000000000000000000000000000000005f52601160045260245ffd5b5f61110c82610d3f565b915061111783610d3f565b925082820190508082111561112f5761112e6110d5565b5b92915050565b5f6040820190506111485f830185610f59565b6111556020830184610ded565b9392505050565b5f8151905061116a81610d48565b92915050565b5f6020828403121561118557611184610cab565b5b5f6111928482850161115c565b91505092915050565b5f6040820190506111ae5f830185610edc565b6111bb6020830184610ded565b9392505050565b5f815190506111d081610f04565b92915050565b5f602082840312156111eb576111ea610cab565b5b5f6111f8848285016111c2565b91505092915050565b7f436c61696d696e67206e6f7420656e61626c65640000000000000000000000005f82015250565b5f611235601483610ff5565b915061124082611201565b602082019050919050565b5f6020820190508181035f83015261126281611229565b9050919050565b7f416c726561647920636c61696d656400000000000000000000000000000000005f82015250565b5f61129d600f83610ff5565b91506112a882611269565b602082019050919050565b5f6020820190508181035f8301526112ca81611291565b9050919050565b7f4e487b71000000000000000000000000000000000000000000000000000000005f52601260045260245ffd5b5f61130882610d3f565b915061131383610d3f565b925082611323576113226112d1565b5b828204905092915050565b5f61133882610d3f565b915061134383610d3f565b925082820261135181610d3f565b91508282048414831517611368576113676110d5565b5b5092915050565b5f61137982610d09565b915060ff820361138c5761138b6110d5565b5b600182019050919050565b5f6060820190506113aa5f830186610edc565b6113b76020830185610edc565b6113c46040830184610ded565b94935050505056fea26469706673582212202dec00b3fc0a96c68485146d83a3a2217cbbe29f1b011fa6d50487eda7899be564736f6c634300081d0033",
					"opcodes": "PUSH1 0x80 PUSH1 0x40 MSTORE CALLVALUE DUP1 ISZERO PUSH2 0xF JUMPI PUSH0 PUSH0 REVERT JUMPDEST POP PUSH1 0x40 MLOAD PUSH2 0x16C7 CODESIZE SUB DUP1 PUSH2 0x16C7 DUP4 CODECOPY DUP2 DUP2 ADD PUSH1 0x40 MSTORE DUP2 ADD SWAP1 PUSH2 0x31 SWAP2 SWAP1 PUSH2 0x252 JUMP JUMPDEST CALLER PUSH0 PUSH20 0xFFFFFFFFFFFFFFFFFFFFFFFFFFFFFFFFFFFFFFFF AND DUP2 PUSH20 0xFFFFFFFFFFFFFFFFFFFFFFFFFFFFFFFFFFFFFFFF AND SUB PUSH2 0xA2 JUMPI PUSH0 PUSH1 0x40 MLOAD PUSH32 0x1E4FBDF700000000000000000000000000000000000000000000000000000000 DUP2 MSTORE PUSH1 0x4 ADD PUSH2 0x99 SWAP2 SWAP1 PUSH2 0x29F JUMP JUMPDEST PUSH1 0x40 MLOAD DUP1 SWAP2 SUB SWAP1 REVERT JUMPDEST PUSH2 0xB1 DUP2 PUSH2 0x100 PUSH1 0x20 SHL PUSH1 0x20 SHR JUMP JUMPDEST POP DUP2 PUSH1 0x1 PUSH0 PUSH2 0x100 EXP DUP2 SLOAD DUP2 PUSH20 0xFFFFFFFFFFFFFFFFFFFFFFFFFFFFFFFFFFFFFFFF MUL NOT AND SWAP1 DUP4 PUSH20 0xFFFFFFFFFFFFFFFFFFFFFFFFFFFFFFFFFFFFFFFF AND MUL OR SWAP1 SSTORE POP DUP1 PUSH1 0x2 DUP2 SWAP1 SSTORE POP POP POP PUSH2 0x2B8 JUMP JUMPDEST PUSH0 PUSH0 PUSH0 SWAP1 SLOAD SWAP1 PUSH2 0x100 EXP SWAP1 DIV PUSH20 0xFFFFFFFFFFFFFFFFFFFFFFFFFFFFFFFFFFFFFFFF AND SWAP1 POP DUP2 PUSH0 PUSH0 PUSH2 0x100 EXP DUP2 SLOAD DUP2 PUSH20 0xFFFFFFFFFFFFFFFFFFFFFFFFFFFFFFFFFFFFFFFF MUL NOT AND SWAP1 DUP4 PUSH20 0xFFFFFFFFFFFFFFFFFFFFFFFFFFFFFFFFFFFFFFFF AND MUL OR SWAP1 SSTORE POP DUP2 PUSH20 0xFFFFFFFFFFFFFFFFFFFFFFFFFFFFFFFFFFFFFFFF AND DUP2 PUSH20 0xFFFFFFFFFFFFFFFFFFFFFFFFFFFFFFFFFFFFFFFF AND PUSH32 0x8BE0079C531659141344CD1FD0A4F28419497F9722A3DAAFE3B4186F6B6457E0 PUSH1 0x40 MLOAD PUSH1 0x40 MLOAD DUP1 SWAP2 SUB SWAP1 LOG3 POP POP JUMP JUMPDEST PUSH0 PUSH0 REVERT JUMPDEST PUSH0 PUSH20 0xFFFFFFFFFFFFFFFFFFFFFFFFFFFFFFFFFFFFFFFF DUP3 AND SWAP1 POP SWAP2 SWAP1 POP JUMP JUMPDEST PUSH0 PUSH2 0x1EE DUP3 PUSH2 0x1C5 JUMP JUMPDEST SWAP1 POP SWAP2 SWAP1 POP JUMP JUMPDEST PUSH2 0x1FE DUP2 PUSH2 0x1E4 JUMP JUMPDEST DUP2 EQ PUSH2 0x208 JUMPI PUSH0 PUSH0 REVERT JUMPDEST POP JUMP JUMPDEST PUSH0 DUP2 MLOAD SWAP1 POP PUSH2 0x219 DUP2 PUSH2 0x1F5 JUMP JUMPDEST SWAP3 SWAP2 POP POP JUMP JUMPDEST PUSH0 DUP2 SWAP1 POP SWAP2 SWAP1 POP JUMP JUMPDEST PUSH2 0x231 DUP2 PUSH2 0x21F JUMP JUMPDEST DUP2 EQ PUSH2 0x23B JUMPI PUSH0 PUSH0 REVERT JUMPDEST POP JUMP JUMPDEST PUSH0 DUP2 MLOAD SWAP1 POP PUSH2 0x24C DUP2 PUSH2 0x228 JUMP JUMPDEST SWAP3 SWAP2 POP POP JUMP JUMPDEST PUSH0 PUSH0 PUSH1 0x40 DUP4 DUP6 SUB SLT ISZERO PUSH2 0x268 JUMPI PUSH2 0x267 PUSH2 0x1C1 JUMP JUMPDEST JUMPDEST PUSH0 PUSH2 0x275 DUP6 DUP3 DUP7 ADD PUSH2 0x20B JUMP JUMPDEST SWAP3 POP POP PUSH1 0x20 PUSH2 0x286 DUP6 DUP3 DUP7 ADD PUSH2 0x23E JUMP JUMPDEST SWAP2 POP POP SWAP3 POP SWAP3 SWAP1 POP JUMP JUMPDEST PUSH2 0x299 DUP2 PUSH2 0x1E4 JUMP JUMPDEST DUP3 MSTORE POP POP JUMP JUMPDEST PUSH0 PUSH1 0x20 DUP3 ADD SWAP1 POP PUSH2 0x2B2 PUSH0 DUP4 ADD DUP5 PUSH2 0x290 JUMP JUMPDEST SWAP3 SWAP2 POP POP JUMP JUMPDEST PUSH2 0x1402 DUP1 PUSH2 0x2C5 PUSH0 CODECOPY PUSH0 RETURN INVALID PUSH1 0x80 PUSH1 0x40 MSTORE CALLVALUE DUP1 ISZERO PUSH2 0xF JUMPI PUSH0 PUSH0 REVERT JUMPDEST POP PUSH1 0x4 CALLDATASIZE LT PUSH2 0xF3 JUMPI PUSH0 CALLDATALOAD PUSH1 0xE0 SHR DUP1 PUSH4 0x6E402FF3 GT PUSH2 0x95 JUMPI DUP1 PUSH4 0xC884EF83 GT PUSH2 0x64 JUMPI DUP1 PUSH4 0xC884EF83 EQ PUSH2 0x235 JUMPI DUP1 PUSH4 0xE2181A13 EQ PUSH2 0x265 JUMPI DUP1 PUSH4 0xF2FDE38B EQ PUSH2 0x283 JUMPI DUP1 PUSH4 0xF7C618C1 EQ PUSH2 0x29F JUMPI PUSH2 0xF3 JUMP JUMPDEST DUP1 PUSH4 0x6E402FF3 EQ PUSH2 0x1C1 JUMPI DUP1 PUSH4 0x715018A6 EQ PUSH2 0x1F1 JUMPI DUP1 PUSH4 0x8DA5CB5B EQ PUSH2 0x1FB JUMPI DUP1 PUSH4 0xA08AB0A2 EQ PUSH2 0x219 JUMPI PUSH2 0xF3 JUMP JUMPDEST DUP1 PUSH4 0xE141A9B GT PUSH2 0xD1 JUMPI DUP1 PUSH4 0xE141A9B EQ PUSH2 0x161 JUMPI DUP1 PUSH4 0xFADEA30 EQ PUSH2 0x17F JUMPI DUP1 PUSH4 0x48C54B9D EQ PUSH2 0x19B JUMPI DUP1 PUSH4 0x4C15D259 EQ PUSH2 0x1A5 JUMPI PUSH2 0xF3 JUMP JUMPDEST DUP1 PUSH4 0x7AC01C8 EQ PUSH2 0xF7 JUMPI DUP1 PUSH4 0x7C4D79F EQ PUSH2 0x113 JUMPI DUP1 PUSH4 0x9C85E24 EQ PUSH2 0x143 JUMPI JUMPDEST PUSH0 PUSH0 REVERT JUMPDEST PUSH2 0x111 PUSH1 0x4 DUP1 CALLDATASIZE SUB DUP2 ADD SWAP1 PUSH2 0x10C SWAP2 SWAP1 PUSH2 0xD72 JUMP JUMPDEST PUSH2 0x2BD JUMP JUMPDEST STOP JUMPDEST PUSH2 0x12D PUSH1 0x4 DUP1 CALLDATASIZE SUB DUP2 ADD SWAP1 PUSH2 0x128 SWAP2 SWAP1 PUSH2 0xDC2 JUMP JUMPDEST PUSH2 0x491 JUMP JUMPDEST PUSH1 0x40 MLOAD PUSH2 0x13A SWAP2 SWAP1 PUSH2 0xDFC JUMP JUMPDEST PUSH1 0x40 MLOAD DUP1 SWAP2 SUB SWAP1 RETURN JUMPDEST PUSH2 0x14B PUSH2 0x4A6 JUMP JUMPDEST PUSH1 0x40 MLOAD PUSH2 0x158 SWAP2 SWAP1 PUSH2 0xDFC JUMP JUMPDEST PUSH1 0x40 MLOAD DUP1 SWAP2 SUB SWAP1 RETURN JUMPDEST PUSH2 0x169 PUSH2 0x4AC JUMP JUMPDEST PUSH1 0x40 MLOAD PUSH2 0x176 SWAP2 SWAP1 PUSH2 0xE2F JUMP JUMPDEST PUSH1 0x40 MLOAD DUP1 SWAP2 SUB SWAP1 RETURN JUMPDEST PUSH2 0x199 PUSH1 0x4 DUP1 CALLDATASIZE SUB DUP2 ADD SWAP1 PUSH2 0x194 SWAP2 SWAP1 PUSH2 0xE48 JUMP JUMPDEST PUSH2 0x4BE JUMP JUMPDEST STOP JUMPDEST PUSH2 0x1A3 PUSH2 0x603 JUMP JUMPDEST STOP JUMPDEST PUSH2 0x1BF PUSH1 0x4 DUP1 CALLDATASIZE SUB DUP2 ADD SWAP1 PUSH2 0x1BA SWAP2 SWAP1 PUSH2 0xE73 JUMP JUMPDEST PUSH2 0x91A JUMP JUMPDEST STOP JUMPDEST PUSH2 0x1DB PUSH1 0x4 DUP1 CALLDATASIZE SUB DUP2 ADD SWAP1 PUSH2 0x1D6 SWAP2 SWAP1 PUSH2 0xE9E JUMP JUMPDEST PUSH2 0x9DC JUMP JUMPDEST PUSH1 0x40 MLOAD PUSH2 0x1E8 SWAP2 SWAP1 PUSH2 0xDFC JUMP JUMPDEST PUSH1 0x40 MLOAD DUP1 SWAP2 SUB SWAP1 RETURN JUMPDEST PUSH2 0x1F9 PUSH2 0x9FC JUMP JUMPDEST STOP JUMPDEST PUSH2 0x203 PUSH2 0xA0F JUMP JUMPDEST PUSH1 0x40 MLOAD PUSH2 0x210 SWAP2 SWAP1 PUSH2 0xEEB JUMP JUMPDEST PUSH1 0x40 MLOAD DUP1 SWAP2 SUB SWAP1 RETURN JUMPDEST PUSH2 0x233 PUSH1 0x4 DUP1 CALLDATASIZE SUB DUP2 ADD SWAP1 PUSH2 0x22E SWAP2 SWAP1 PUSH2 0xF2E JUMP JUMPDEST PUSH2 0xA36 JUMP JUMPDEST STOP JUMPDEST PUSH2 0x24F PUSH1 0x4 DUP1 CALLDATASIZE SUB DUP2 ADD SWAP1 PUSH2 0x24A SWAP2 SWAP1 PUSH2 0xE48 JUMP JUMPDEST PUSH2 0xA91 JUMP JUMPDEST PUSH1 0x40 MLOAD PUSH2 0x25C SWAP2 SWAP1 PUSH2 0xE2F JUMP JUMPDEST PUSH1 0x40 MLOAD DUP1 SWAP2 SUB SWAP1 RETURN JUMPDEST PUSH2 0x26D PUSH2 0xAAE JUMP JUMPDEST PUSH1 0x40 MLOAD PUSH2 0x27A SWAP2 SWAP1 PUSH2 0xF68 JUMP JUMPDEST PUSH1 0x40 MLOAD DUP1 SWAP2 SUB SWAP1 RETURN JUMPDEST PUSH2 0x29D PUSH1 0x4 DUP1 CALLDATASIZE SUB DUP2 ADD SWAP1 PUSH2 0x298 SWAP2 SWAP1 PUSH2 0xE48 JUMP JUMPDEST PUSH2 0xAB3 JUMP JUMPDEST STOP JUMPDEST PUSH2 0x2A7 PUSH2 0xB37 JUMP JUMPDEST PUSH1 0x40 MLOAD PUSH2 0x2B4 SWAP2 SWAP1 PUSH2 0xFDC JUMP JUMPDEST PUSH1 0x40 MLOAD DUP1 SWAP2 SUB SWAP1 RETURN JUMPDEST PUSH2 0x2C5 PUSH2 0xB5C JUMP JUMPDEST PUSH0 DUP3 PUSH1 0xFF AND GT DUP1 ISZERO PUSH2 0x2DE JUMPI POP PUSH1 0x3 PUSH1 0xFF AND DUP3 PUSH1 0xFF AND GT ISZERO JUMPDEST PUSH2 0x31D JUMPI PUSH1 0x40 MLOAD PUSH32 0x8C379A000000000000000000000000000000000000000000000000000000000 DUP2 MSTORE PUSH1 0x4 ADD PUSH2 0x314 SWAP1 PUSH2 0x104F JUMP JUMPDEST PUSH1 0x40 MLOAD DUP1 SWAP2 SUB SWAP1 REVERT JUMPDEST PUSH1 0x6 PUSH0 DUP5 PUSH20 0xFFFFFFFFFFFFFFFFFFFFFFFFFFFFFFFFFFFFFFFF AND PUSH20 0xFFFFFFFFFFFFFFFFFFFFFFFFFFFFFFFFFFFFFFFF AND DUP2 MSTORE PUSH1 0x20 ADD SWAP1 DUP2 MSTORE PUSH1 0x20 ADD PUSH0 KECCAK256 PUSH0 SWAP1 SLOAD SWAP1 PUSH2 0x100 EXP SWAP1 DIV PUSH1 0xFF AND ISZERO PUSH2 0x3A7 JUMPI PUSH1 0x40 MLOAD PUSH32 0x8C379A000000000000000000000000000000000000000000000000000000000 DUP2 MSTORE PUSH1 0x4 ADD PUSH2 0x39E SWAP1 PUSH2 0x10B7 JUMP JUMPDEST PUSH1 0x40 MLOAD DUP1 SWAP2 SUB SWAP1 REVERT JUMPDEST DUP1 PUSH1 0x5 PUSH0 DUP6 PUSH20 0xFFFFFFFFFFFFFFFFFFFFFFFFFFFFFFFFFFFFFFFF AND PUSH20 0xFFFFFFFFFFFFFFFFFFFFFFFFFFFFFFFFFFFFFFFF AND DUP2 MSTORE PUSH1 0x20 ADD SWAP1 DUP2 MSTORE PUSH1 0x20 ADD PUSH0 KECCAK256 PUSH0 DUP5 PUSH1 0xFF AND PUSH1 0xFF AND DUP2 MSTORE PUSH1 0x20 ADD SWAP1 DUP2 MSTORE PUSH1 0x20 ADD PUSH0 KECCAK256 PUSH0 DUP3 DUP3 SLOAD PUSH2 0x408 SWAP2 SWAP1 PUSH2 0x1102 JUMP JUMPDEST SWAP3 POP POP DUP2 SWAP1 SSTORE POP DUP1 PUSH1 0x4 PUSH0 DUP5 PUSH1 0xFF AND PUSH1 0xFF AND DUP2 MSTORE PUSH1 0x20 ADD SWAP1 DUP2 MSTORE PUSH1 0x20 ADD PUSH0 KECCAK256 PUSH0 DUP3 DUP3 SLOAD PUSH2 0x435 SWAP2 SWAP1 PUSH2 0x1102 JUMP JUMPDEST SWAP3 POP POP DUP2 SWAP1 SSTORE POP DUP3 PUSH20 0xFFFFFFFFFFFFFFFFFFFFFFFFFFFFFFFFFFFFFFFF AND PUSH32 0x94BE0674B88C7689B9D2AC6DE315C8846F94D9D1B158AAC9E0680E8CB8035FCE DUP4 DUP4 PUSH1 0x40 MLOAD PUSH2 0x484 SWAP3 SWAP2 SWAP1 PUSH2 0x1135 JUMP JUMPDEST PUSH1 0x40 MLOAD DUP1 SWAP2 SUB SWAP1 LOG2 POP POP POP JUMP JUMPDEST PUSH1 0x4 PUSH1 0x20 MSTORE DUP1 PUSH0 MSTORE PUSH1 0x40 PUSH0 KECCAK256 PUSH0 SWAP2 POP SWAP1 POP SLOAD DUP2 JUMP JUMPDEST PUSH1 0x2 SLOAD DUP2 JUMP JUMPDEST PUSH1 0x3 PUSH0 SWAP1 SLOAD SWAP1 PUSH2 0x100 EXP SWAP1 DIV PUSH1 0xFF AND DUP2 JUMP JUMPDEST PUSH2 0x4C6 PUSH2 0xB5C JUMP JUMPDEST PUSH0 PUSH1 0x1 PUSH0 SWAP1 SLOAD SWAP1 PUSH2 0x100 EXP SWAP1 DIV PUSH20 0xFFFFFFFFFFFFFFFFFFFFFFFFFFFFFFFFFFFFFFFF AND PUSH20 0xFFFFFFFFFFFFFFFFFFFFFFFFFFFFFFFFFFFFFFFF AND PUSH4 0x70A08231 ADDRESS PUSH1 0x40 MLOAD DUP3 PUSH4 0xFFFFFFFF AND PUSH1 0xE0 SHL DUP2 MSTORE PUSH1 0x4 ADD PUSH2 0x521 SWAP2 SWAP1 PUSH2 0xEEB JUMP JUMPDEST PUSH1 0x20 PUSH1 0x40 MLOAD DUP1 DUP4 SUB DUP2 DUP7 GAS STATICCALL ISZERO DUP1 ISZERO PUSH2 0x53C JUMPI RETURNDATASIZE PUSH0 PUSH0 RETURNDATACOPY RETURNDATASIZE PUSH0 REVERT JUMPDEST POP POP POP POP PUSH1 0x40 MLOAD RETURNDATASIZE PUSH1 0x1F NOT PUSH1 0x1F DUP3 ADD AND DUP3 ADD DUP1 PUSH1 0x40 MSTORE POP DUP2 ADD SWAP1 PUSH2 0x560 SWAP2 SWAP1 PUSH2 0x1170 JUMP JUMPDEST SWAP1 POP PUSH1 0x1 PUSH0 SWAP1 SLOAD SWAP1 PUSH2 0x100 EXP SWAP1 DIV PUSH20 0xFFFFFFFFFFFFFFFFFFFFFFFFFFFFFFFFFFFFFFFF AND PUSH20 0xFFFFFFFFFFFFFFFFFFFFFFFFFFFFFFFFFFFFFFFF AND PUSH4 0xA9059CBB DUP4 DUP4 PUSH1 0x40 MLOAD DUP4 PUSH4 0xFFFFFFFF AND PUSH1 0xE0 SHL DUP2 MSTORE PUSH1 0x4 ADD PUSH2 0x5BE SWAP3 SWAP2 SWAP1 PUSH2 0x119B JUMP JUMPDEST PUSH1 0x20 PUSH1 0x40 MLOAD DUP1 DUP4 SUB DUP2 PUSH0 DUP8 GAS CALL ISZERO DUP1 ISZERO PUSH2 0x5DA JUMPI RETURNDATASIZE PUSH0 PUSH0 RETURNDATACOPY RETURNDATASIZE PUSH0 REVERT JUMPDEST POP POP POP POP PUSH1 0x40 MLOAD RETURNDATASIZE PUSH1 0x1F NOT PUSH1 0x1F DUP3 ADD AND DUP3 ADD DUP1 PUSH1 0x40 MSTORE POP DUP2 ADD SWAP1 PUSH2 0x5FE SWAP2 SWAP1 PUSH2 0x11D6 JUMP JUMPDEST POP POP POP JUMP JUMPDEST PUSH1 0x3 PUSH0 SWAP1 SLOAD SWAP1 PUSH2 0x100 EXP SWAP1 DIV PUSH1 0xFF AND PUSH2 0x651 JUMPI PUSH1 0x40 MLOAD PUSH32 0x8C379A000000000000000000000000000000000000000000000000000000000 DUP2 MSTORE PUSH1 0x4 ADD PUSH2 0x648 SWAP1 PUSH2 0x124B JUMP JUMPDEST PUSH1 0x40 MLOAD DUP1 SWAP2 SUB SWAP1 REVERT JUMPDEST PUSH1 0x6 PUSH0 CALLER PUSH20 0xFFFFFFFFFFFFFFFFFFFFFFFFFFFFFFFFFFFFFFFF AND PUSH20 0xFFFFFFFFFFFFFFFFFFFFFFFFFFFFFFFFFFFFFFFF AND DUP2 MSTORE PUSH1 0x20 ADD SWAP1 DUP2 MSTORE PUSH1 0x20 ADD PUSH0 KECCAK256 PUSH0 SWAP1 SLOAD SWAP1 PUSH2 0x100 EXP SWAP1 DIV PUSH1 0xFF AND ISZERO PUSH2 0x6DB JUMPI PUSH1 0x40 MLOAD PUSH32 0x8C379A000000000000000000000000000000000000000000000000000000000 DUP2 MSTORE PUSH1 0x4 ADD PUSH2 0x6D2 SWAP1 PUSH2 0x12B3 JUMP JUMPDEST PUSH1 0x40 MLOAD DUP1 SWAP2 SUB SWAP1 REVERT JUMPDEST PUSH0 PUSH0 PUSH1 0x3 PUSH1 0xFF AND PUSH1 0x2 SLOAD PUSH2 0x6EF SWAP2 SWAP1 PUSH2 0x12FE JUMP JUMPDEST SWAP1 POP PUSH0 PUSH1 0x1 SWAP1 POP JUMPDEST PUSH1 0x3 PUSH1 0xFF AND DUP2 PUSH1 0xFF AND GT PUSH2 0x7D5 JUMPI PUSH0 PUSH1 0x5 PUSH0 CALLER PUSH20 0xFFFFFFFFFFFFFFFFFFFFFFFFFFFFFFFFFFFFFFFF AND PUSH20 0xFFFFFFFFFFFFFFFFFFFFFFFFFFFFFFFFFFFFFFFF AND DUP2 MSTORE PUSH1 0x20 ADD SWAP1 DUP2 MSTORE PUSH1 0x20 ADD PUSH0 KECCAK256 PUSH0 DUP4 PUSH1 0xFF AND PUSH1 0xFF AND DUP2 MSTORE PUSH1 0x20 ADD SWAP1 DUP2 MSTORE PUSH1 0x20 ADD PUSH0 KECCAK256 SLOAD SWAP1 POP PUSH0 DUP2 GT DUP1 ISZERO PUSH2 0x780 JUMPI POP PUSH0 PUSH1 0x4 PUSH0 DUP5 PUSH1 0xFF AND PUSH1 0xFF AND DUP2 MSTORE PUSH1 0x20 ADD SWAP1 DUP2 MSTORE PUSH1 0x20 ADD PUSH0 KECCAK256 SLOAD GT JUMPDEST ISZERO PUSH2 0x7C1 JUMPI PUSH1 0x4 PUSH0 DUP4 PUSH1 0xFF AND PUSH1 0xFF AND DUP2 MSTORE PUSH1 0x20 ADD SWAP1 DUP2 MSTORE PUSH1 0x20 ADD PUSH0 KECCAK256 SLOAD DUP4 DUP3 PUSH2 0x7A9 SWAP2 SWAP1 PUSH2 0x132E JUMP JUMPDEST PUSH2 0x7B3 SWAP2 SWAP1 PUSH2 0x12FE JUMP JUMPDEST DUP5 PUSH2 0x7BE SWAP2 SWAP1 PUSH2 0x1102 JUMP JUMPDEST SWAP4 POP JUMPDEST POP DUP1 DUP1 PUSH2 0x7CD SWAP1 PUSH2 0x136F JUMP JUMPDEST SWAP2 POP POP PUSH2 0x6F7 JUMP JUMPDEST POP PUSH1 0x1 PUSH1 0x6 PUSH0 CALLER PUSH20 0xFFFFFFFFFFFFFFFFFFFFFFFFFFFFFFFFFFFFFFFF AND PUSH20 0xFFFFFFFFFFFFFFFFFFFFFFFFFFFFFFFFFFFFFFFF AND DUP2 MSTORE PUSH1 0x20 ADD SWAP1 DUP2 MSTORE PUSH1 0x20 ADD PUSH0 KECCAK256 PUSH0 PUSH2 0x100 EXP DUP2 SLOAD DUP2 PUSH1 0xFF MUL NOT AND SWAP1 DUP4 ISZERO ISZERO MUL OR SWAP1 SSTORE POP PUSH1 0x1 PUSH0 SWAP1 SLOAD SWAP1 PUSH2 0x100 EXP SWAP1 DIV PUSH20 0xFFFFFFFFFFFFFFFFFFFFFFFFFFFFFFFFFFFFFFFF AND PUSH20 0xFFFFFFFFFFFFFFFFFFFFFFFFFFFFFFFFFFFFFFFF AND PUSH4 0xA9059CBB CALLER DUP5 PUSH1 0x40 MLOAD DUP4 PUSH4 0xFFFFFFFF AND PUSH1 0xE0 SHL DUP2 MSTORE PUSH1 0x4 ADD PUSH2 0x887 SWAP3 SWAP2 SWAP1 PUSH2 0x119B JUMP JUMPDEST PUSH1 0x20 PUSH1 0x40 MLOAD DUP1 DUP4 SUB DUP2 PUSH0 DUP8 GAS CALL ISZERO DUP1 ISZERO PUSH2 0x8A3 JUMPI RETURNDATASIZE PUSH0 PUSH0 RETURNDATACOPY RETURNDATASIZE PUSH0 REVERT JUMPDEST POP POP POP POP PUSH1 0x40 MLOAD RETURNDATASIZE PUSH1 0x1F NOT PUSH1 0x1F DUP3 ADD AND DUP3 ADD DUP1 PUSH1 0x40 MSTORE POP DUP2 ADD SWAP1 PUSH2 0x8C7 SWAP2 SWAP1 PUSH2 0x11D6 JUMP JUMPDEST POP CALLER PUSH20 0xFFFFFFFFFFFFFFFFFFFFFFFFFFFFFFFFFFFFFFFF AND PUSH32 0x896E034966EAAF1ADC54ACC0F257056FEBBD300C9E47182CF761982CF1F5E430 DUP4 PUSH1 0x40 MLOAD PUSH2 0x90E SWAP2 SWAP1 PUSH2 0xDFC JUMP JUMPDEST PUSH1 0x40 MLOAD DUP1 SWAP2 SUB SWAP1 LOG2 POP POP JUMP JUMPDEST PUSH2 0x922 PUSH2 0xB5C JUMP JUMPDEST PUSH1 0x1 PUSH0 SWAP1 SLOAD SWAP1 PUSH2 0x100 EXP SWAP1 DIV PUSH20 0xFFFFFFFFFFFFFFFFFFFFFFFFFFFFFFFFFFFFFFFF AND PUSH20 0xFFFFFFFFFFFFFFFFFFFFFFFFFFFFFFFFFFFFFFFF AND PUSH4 0x23B872DD CALLER ADDRESS DUP5 PUSH1 0x40 MLOAD DUP5 PUSH4 0xFFFFFFFF AND PUSH1 0xE0 SHL DUP2 MSTORE PUSH1 0x4 ADD PUSH2 0x980 SWAP4 SWAP3 SWAP2 SWAP1 PUSH2 0x1397 JUMP JUMPDEST PUSH1 0x20 PUSH1 0x40 MLOAD DUP1 DUP4 SUB DUP2 PUSH0 DUP8 GAS CALL ISZERO DUP1 ISZERO PUSH2 0x99C JUMPI RETURNDATASIZE PUSH0 PUSH0 RETURNDATACOPY RETURNDATASIZE PUSH0 REVERT JUMPDEST POP POP POP POP PUSH1 0x40 MLOAD RETURNDATASIZE PUSH1 0x1F NOT PUSH1 0x1F DUP3 ADD AND DUP3 ADD DUP1 PUSH1 0x40 MSTORE POP DUP2 ADD SWAP1 PUSH2 0x9C0 SWAP2 SWAP1 PUSH2 0x11D6 JUMP JUMPDEST POP DUP1 PUSH1 0x2 PUSH0 DUP3 DUP3 SLOAD PUSH2 0x9D2 SWAP2 SWAP1 PUSH2 0x1102 JUMP JUMPDEST SWAP3 POP POP DUP2 SWAP1 SSTORE POP POP JUMP JUMPDEST PUSH1 0x5 PUSH1 0x20 MSTORE DUP2 PUSH0 MSTORE PUSH1 0x40 PUSH0 KECCAK256 PUSH1 0x20 MSTORE DUP1 PUSH0 MSTORE PUSH1 0x40 PUSH0 KECCAK256 PUSH0 SWAP2 POP SWAP2 POP POP SLOAD DUP2 JUMP JUMPDEST PUSH2 0xA04 PUSH2 0xB5C JUMP JUMPDEST PUSH2 0xA0D PUSH0 PUSH2 0xBE3 JUMP JUMPDEST JUMP JUMPDEST PUSH0 PUSH0 PUSH0 SWAP1 SLOAD SWAP1 PUSH2 0x100 EXP SWAP1 DIV PUSH20 0xFFFFFFFFFFFFFFFFFFFFFFFFFFFFFFFFFFFFFFFF AND SWAP1 POP SWAP1 JUMP JUMPDEST PUSH2 0xA3E PUSH2 0xB5C JUMP JUMPDEST DUP1 PUSH1 0x3 PUSH0 PUSH2 0x100 EXP DUP2 SLOAD DUP2 PUSH1 0xFF MUL NOT AND SWAP1 DUP4 ISZERO ISZERO MUL OR SWAP1 SSTORE POP PUSH32 0x5357603B66CE52AD2BDE073BF1BAAE8A126A96AE712F396257FA4B57169C36AB DUP2 PUSH1 0x40 MLOAD PUSH2 0xA86 SWAP2 SWAP1 PUSH2 0xE2F JUMP JUMPDEST PUSH1 0x40 MLOAD DUP1 SWAP2 SUB SWAP1 LOG1 POP JUMP JUMPDEST PUSH1 0x6 PUSH1 0x20 MSTORE DUP1 PUSH0 MSTORE PUSH1 0x40 PUSH0 KECCAK256 PUSH0 SWAP2 POP SLOAD SWAP1 PUSH2 0x100 EXP SWAP1 DIV PUSH1 0xFF AND DUP2 JUMP JUMPDEST PUSH1 0x3 DUP2 JUMP JUMPDEST PUSH2 0xABB PUSH2 0xB5C JUMP JUMPDEST PUSH0 PUSH20 0xFFFFFFFFFFFFFFFFFFFFFFFFFFFFFFFFFFFFFFFF AND DUP2 PUSH20 0xFFFFFFFFFFFFFFFFFFFFFFFFFFFFFFFFFFFFFFFF AND SUB PUSH2 0xB2B JUMPI PUSH0 PUSH1 0x40 MLOAD PUSH32 0x1E4FBDF700000000000000000000000000000000000000000000000000000000 DUP2 MSTORE PUSH1 0x4 ADD PUSH2 0xB22 SWAP2 SWAP1 PUSH2 0xEEB JUMP JUMPDEST PUSH1 0x40 MLOAD DUP1 SWAP2 SUB SWAP1 REVERT JUMPDEST PUSH2 0xB34 DUP2 PUSH2 0xBE3 JUMP JUMPDEST POP JUMP JUMPDEST PUSH1 0x1 PUSH0 SWAP1 SLOAD SWAP1 PUSH2 0x100 EXP SWAP1 DIV PUSH20 0xFFFFFFFFFFFFFFFFFFFFFFFFFFFFFFFFFFFFFFFF AND DUP2 JUMP JUMPDEST PUSH2 0xB64 PUSH2 0xCA4 JUMP JUMPDEST PUSH20 0xFFFFFFFFFFFFFFFFFFFFFFFFFFFFFFFFFFFFFFFF AND PUSH2 0xB82 PUSH2 0xA0F JUMP JUMPDEST PUSH20 0xFFFFFFFFFFFFFFFFFFFFFFFFFFFFFFFFFFFFFFFF AND EQ PUSH2 0xBE1 JUMPI PUSH2 0xBA5 PUSH2 0xCA4 JUMP JUMPDEST PUSH1 0x40 MLOAD PUSH32 0x118CDAA700000000000000000000000000000000000000000000000000000000 DUP2 MSTORE PUSH1 0x4 ADD PUSH2 0xBD8 SWAP2 SWAP1 PUSH2 0xEEB JUMP JUMPDEST PUSH1 0x40 MLOAD DUP1 SWAP2 SUB SWAP1 REVERT JUMPDEST JUMP JUMPDEST PUSH0 PUSH0 PUSH0 SWAP1 SLOAD SWAP1 PUSH2 0x100 EXP SWAP1 DIV PUSH20 0xFFFFFFFFFFFFFFFFFFFFFFFFFFFFFFFFFFFFFFFF AND SWAP1 POP DUP2 PUSH0 PUSH0 PUSH2 0x100 EXP DUP2 SLOAD DUP2 PUSH20 0xFFFFFFFFFFFFFFFFFFFFFFFFFFFFFFFFFFFFFFFF MUL NOT AND SWAP1 DUP4 PUSH20 0xFFFFFFFFFFFFFFFFFFFFFFFFFFFFFFFFFFFFFFFF AND MUL OR SWAP1 SSTORE POP DUP2 PUSH20 0xFFFFFFFFFFFFFFFFFFFFFFFFFFFFFFFFFFFFFFFF AND DUP2 PUSH20 0xFFFFFFFFFFFFFFFFFFFFFFFFFFFFFFFFFFFFFFFF AND PUSH32 0x8BE0079C531659141344CD1FD0A4F28419497F9722A3DAAFE3B4186F6B6457E0 PUSH1 0x40 MLOAD PUSH1 0x40 MLOAD DUP1 SWAP2 SUB SWAP1 LOG3 POP POP JUMP JUMPDEST PUSH0 CALLER SWAP1 POP SWAP1 JUMP JUMPDEST PUSH0 PUSH0 REVERT JUMPDEST PUSH0 PUSH20 0xFFFFFFFFFFFFFFFFFFFFFFFFFFFFFFFFFFFFFFFF DUP3 AND SWAP1 POP SWAP2 SWAP1 POP JUMP JUMPDEST PUSH0 PUSH2 0xCD8 DUP3 PUSH2 0xCAF JUMP JUMPDEST SWAP1 POP SWAP2 SWAP1 POP JUMP JUMPDEST PUSH2 0xCE8 DUP2 PUSH2 0xCCE JUMP JUMPDEST DUP2 EQ PUSH2 0xCF2 JUMPI PUSH0 PUSH0 REVERT JUMPDEST POP JUMP JUMPDEST PUSH0 DUP2 CALLDATALOAD SWAP1 POP PUSH2 0xD03 DUP2 PUSH2 0xCDF JUMP JUMPDEST SWAP3 SWAP2 POP POP JUMP JUMPDEST PUSH0 PUSH1 0xFF DUP3 AND SWAP1 POP SWAP2 SWAP1 POP JUMP JUMPDEST PUSH2 0xD1E DUP2 PUSH2 0xD09 JUMP JUMPDEST DUP2 EQ PUSH2 0xD28 JUMPI PUSH0 PUSH0 REVERT JUMPDEST POP JUMP JUMPDEST PUSH0 DUP2 CALLDATALOAD SWAP1 POP PUSH2 0xD39 DUP2 PUSH2 0xD15 JUMP JUMPDEST SWAP3 SWAP2 POP POP JUMP JUMPDEST PUSH0 DUP2 SWAP1 POP SWAP2 SWAP1 POP JUMP JUMPDEST PUSH2 0xD51 DUP2 PUSH2 0xD3F JUMP JUMPDEST DUP2 EQ PUSH2 0xD5B JUMPI PUSH0 PUSH0 REVERT JUMPDEST POP JUMP JUMPDEST PUSH0 DUP2 CALLDATALOAD SWAP1 POP PUSH2 0xD6C DUP2 PUSH2 0xD48 JUMP JUMPDEST SWAP3 SWAP2 POP POP JUMP JUMPDEST PUSH0 PUSH0 PUSH0 PUSH1 0x60 DUP5 DUP7 SUB SLT ISZERO PUSH2 0xD89 JUMPI PUSH2 0xD88 PUSH2 0xCAB JUMP JUMPDEST JUMPDEST PUSH0 PUSH2 0xD96 DUP7 DUP3 DUP8 ADD PUSH2 0xCF5 JUMP JUMPDEST SWAP4 POP POP PUSH1 0x20 PUSH2 0xDA7 DUP7 DUP3 DUP8 ADD PUSH2 0xD2B JUMP JUMPDEST SWAP3 POP POP PUSH1 0x40 PUSH2 0xDB8 DUP7 DUP3 DUP8 ADD PUSH2 0xD5E JUMP JUMPDEST SWAP2 POP POP SWAP3 POP SWAP3 POP SWAP3 JUMP JUMPDEST PUSH0 PUSH1 0x20 DUP3 DUP5 SUB SLT ISZERO PUSH2 0xDD7 JUMPI PUSH2 0xDD6 PUSH2 0xCAB JUMP JUMPDEST JUMPDEST PUSH0 PUSH2 0xDE4 DUP5 DUP3 DUP6 ADD PUSH2 0xD2B JUMP JUMPDEST SWAP2 POP POP SWAP3 SWAP2 POP POP JUMP JUMPDEST PUSH2 0xDF6 DUP2 PUSH2 0xD3F JUMP JUMPDEST DUP3 MSTORE POP POP JUMP JUMPDEST PUSH0 PUSH1 0x20 DUP3 ADD SWAP1 POP PUSH2 0xE0F PUSH0 DUP4 ADD DUP5 PUSH2 0xDED JUMP JUMPDEST SWAP3 SWAP2 POP POP JUMP JUMPDEST PUSH0 DUP2 ISZERO ISZERO SWAP1 POP SWAP2 SWAP1 POP JUMP JUMPDEST PUSH2 0xE29 DUP2 PUSH2 0xE15 JUMP JUMPDEST DUP3 MSTORE POP POP JUMP JUMPDEST PUSH0 PUSH1 0x20 DUP3 ADD SWAP1 POP PUSH2 0xE42 PUSH0 DUP4 ADD DUP5 PUSH2 0xE20 JUMP JUMPDEST SWAP3 SWAP2 POP POP JUMP JUMPDEST PUSH0 PUSH1 0x20 DUP3 DUP5 SUB SLT ISZERO PUSH2 0xE5D JUMPI PUSH2 0xE5C PUSH2 0xCAB JUMP JUMPDEST JUMPDEST PUSH0 PUSH2 0xE6A DUP5 DUP3 DUP6 ADD PUSH2 0xCF5 JUMP JUMPDEST SWAP2 POP POP SWAP3 SWAP2 POP POP JUMP JUMPDEST PUSH0 PUSH1 0x20 DUP3 DUP5 SUB SLT ISZERO PUSH2 0xE88 JUMPI PUSH2 0xE87 PUSH2 0xCAB JUMP JUMPDEST JUMPDEST PUSH0 PUSH2 0xE95 DUP5 DUP3 DUP6 ADD PUSH2 0xD5E JUMP JUMPDEST SWAP2 POP POP SWAP3 SWAP2 POP POP JUMP JUMPDEST PUSH0 PUSH0 PUSH1 0x40 DUP4 DUP6 SUB SLT ISZERO PUSH2 0xEB4 JUMPI PUSH2 0xEB3 PUSH2 0xCAB JUMP JUMPDEST JUMPDEST PUSH0 PUSH2 0xEC1 DUP6 DUP3 DUP7 ADD PUSH2 0xCF5 JUMP JUMPDEST SWAP3 POP POP PUSH1 0x20 PUSH2 0xED2 DUP6 DUP3 DUP7 ADD PUSH2 0xD2B JUMP JUMPDEST SWAP2 POP POP SWAP3 POP SWAP3 SWAP1 POP JUMP JUMPDEST PUSH2 0xEE5 DUP2 PUSH2 0xCCE JUMP JUMPDEST DUP3 MSTORE POP POP JUMP JUMPDEST PUSH0 PUSH1 0x20 DUP3 ADD SWAP1 POP PUSH2 0xEFE PUSH0 DUP4 ADD DUP5 PUSH2 0xEDC JUMP JUMPDEST SWAP3 SWAP2 POP POP JUMP JUMPDEST PUSH2 0xF0D DUP2 PUSH2 0xE15 JUMP JUMPDEST DUP2 EQ PUSH2 0xF17 JUMPI PUSH0 PUSH0 REVERT JUMPDEST POP JUMP JUMPDEST PUSH0 DUP2 CALLDATALOAD SWAP1 POP PUSH2 0xF28 DUP2 PUSH2 0xF04 JUMP JUMPDEST SWAP3 SWAP2 POP POP JUMP JUMPDEST PUSH0 PUSH1 0x20 DUP3 DUP5 SUB SLT ISZERO PUSH2 0xF43 JUMPI PUSH2 0xF42 PUSH2 0xCAB JUMP JUMPDEST JUMPDEST PUSH0 PUSH2 0xF50 DUP5 DUP3 DUP6 ADD PUSH2 0xF1A JUMP JUMPDEST SWAP2 POP POP SWAP3 SWAP2 POP POP JUMP JUMPDEST PUSH2 0xF62 DUP2 PUSH2 0xD09 JUMP JUMPDEST DUP3 MSTORE POP POP JUMP JUMPDEST PUSH0 PUSH1 0x20 DUP3 ADD SWAP1 POP PUSH2 0xF7B PUSH0 DUP4 ADD DUP5 PUSH2 0xF59 JUMP JUMPDEST SWAP3 SWAP2 POP POP JUMP JUMPDEST PUSH0 DUP2 SWAP1 POP SWAP2 SWAP1 POP JUMP JUMPDEST PUSH0 PUSH2 0xFA4 PUSH2 0xF9F PUSH2 0xF9A DUP5 PUSH2 0xCAF JUMP JUMPDEST PUSH2 0xF81 JUMP JUMPDEST PUSH2 0xCAF JUMP JUMPDEST SWAP1 POP SWAP2 SWAP1 POP JUMP JUMPDEST PUSH0 PUSH2 0xFB5 DUP3 PUSH2 0xF8A JUMP JUMPDEST SWAP1 POP SWAP2 SWAP1 POP JUMP JUMPDEST PUSH0 PUSH2 0xFC6 DUP3 PUSH2 0xFAB JUMP JUMPDEST SWAP1 POP SWAP2 SWAP1 POP JUMP JUMPDEST PUSH2 0xFD6 DUP2 PUSH2 0xFBC JUMP JUMPDEST DUP3 MSTORE POP POP JUMP JUMPDEST PUSH0 PUSH1 0x20 DUP3 ADD SWAP1 POP PUSH2 0xFEF PUSH0 DUP4 ADD DUP5 PUSH2 0xFCD JUMP JUMPDEST SWAP3 SWAP2 POP POP JUMP JUMPDEST PUSH0 DUP3 DUP3 MSTORE PUSH1 0x20 DUP3 ADD SWAP1 POP SWAP3 SWAP2 POP POP JUMP JUMPDEST PUSH32 0x496E76616C69642063617465676F727900000000000000000000000000000000 PUSH0 DUP3 ADD MSTORE POP JUMP JUMPDEST PUSH0 PUSH2 0x1039 PUSH1 0x10 DUP4 PUSH2 0xFF5 JUMP JUMPDEST SWAP2 POP PUSH2 0x1044 DUP3 PUSH2 0x1005 JUMP JUMPDEST PUSH1 0x20 DUP3 ADD SWAP1 POP SWAP2 SWAP1 POP JUMP JUMPDEST PUSH0 PUSH1 0x20 DUP3 ADD SWAP1 POP DUP2 DUP2 SUB PUSH0 DUP4 ADD MSTORE PUSH2 0x1066 DUP2 PUSH2 0x102D JUMP JUMPDEST SWAP1 POP SWAP2 SWAP1 POP JUMP JUMPDEST PUSH32 0x5573657220616C726561647920636C61696D6564000000000000000000000000 PUSH0 DUP3 ADD MSTORE POP JUMP JUMPDEST PUSH0 PUSH2 0x10A1 PUSH1 0x14 DUP4 PUSH2 0xFF5 JUMP JUMPDEST SWAP2 POP PUSH2 0x10AC DUP3 PUSH2 0x106D JUMP JUMPDEST PUSH1 0x20 DUP3 ADD SWAP1 POP SWAP2 SWAP1 POP JUMP JUMPDEST PUSH0 PUSH1 0x20 DUP3 ADD SWAP1 POP DUP2 DUP2 SUB PUSH0 DUP4 ADD MSTORE PUSH2 0x10CE DUP2 PUSH2 0x1095 JUMP JUMPDEST SWAP1 POP SWAP2 SWAP1 POP JUMP JUMPDEST PUSH32 0x4E487B7100000000000000000000000000000000000000000000000000000000 PUSH0 MSTORE PUSH1 0x11 PUSH1 0x4 MSTORE PUSH1 0x24 PUSH0 REVERT JUMPDEST PUSH0 PUSH2 0x110C DUP3 PUSH2 0xD3F JUMP JUMPDEST SWAP2 POP PUSH2 0x1117 DUP4 PUSH2 0xD3F JUMP JUMPDEST SWAP3 POP DUP3 DUP3 ADD SWAP1 POP DUP1 DUP3 GT ISZERO PUSH2 0x112F JUMPI PUSH2 0x112E PUSH2 0x10D5 JUMP JUMPDEST JUMPDEST SWAP3 SWAP2 POP POP JUMP JUMPDEST PUSH0 PUSH1 0x40 DUP3 ADD SWAP1 POP PUSH2 0x1148 PUSH0 DUP4 ADD DUP6 PUSH2 0xF59 JUMP JUMPDEST PUSH2 0x1155 PUSH1 0x20 DUP4 ADD DUP5 PUSH2 0xDED JUMP JUMPDEST SWAP4 SWAP3 POP POP POP JUMP JUMPDEST PUSH0 DUP2 MLOAD SWAP1 POP PUSH2 0x116A DUP2 PUSH2 0xD48 JUMP JUMPDEST SWAP3 SWAP2 POP POP JUMP JUMPDEST PUSH0 PUSH1 0x20 DUP3 DUP5 SUB SLT ISZERO PUSH2 0x1185 JUMPI PUSH2 0x1184 PUSH2 0xCAB JUMP JUMPDEST JUMPDEST PUSH0 PUSH2 0x1192 DUP5 DUP3 DUP6 ADD PUSH2 0x115C JUMP JUMPDEST SWAP2 POP POP SWAP3 SWAP2 POP POP JUMP JUMPDEST PUSH0 PUSH1 0x40 DUP3 ADD SWAP1 POP PUSH2 0x11AE PUSH0 DUP4 ADD DUP6 PUSH2 0xEDC JUMP JUMPDEST PUSH2 0x11BB PUSH1 0x20 DUP4 ADD DUP5 PUSH2 0xDED JUMP JUMPDEST SWAP4 SWAP3 POP POP POP JUMP JUMPDEST PUSH0 DUP2 MLOAD SWAP1 POP PUSH2 0x11D0 DUP2 PUSH2 0xF04 JUMP JUMPDEST SWAP3 SWAP2 POP POP JUMP JUMPDEST PUSH0 PUSH1 0x20 DUP3 DUP5 SUB SLT ISZERO PUSH2 0x11EB JUMPI PUSH2 0x11EA PUSH2 0xCAB JUMP JUMPDEST JUMPDEST PUSH0 PUSH2 0x11F8 DUP5 DUP3 DUP6 ADD PUSH2 0x11C2 JUMP JUMPDEST SWAP2 POP POP SWAP3 SWAP2 POP POP JUMP JUMPDEST PUSH32 0x436C61696D696E67206E6F7420656E61626C6564000000000000000000000000 PUSH0 DUP3 ADD MSTORE POP JUMP JUMPDEST PUSH0 PUSH2 0x1235 PUSH1 0x14 DUP4 PUSH2 0xFF5 JUMP JUMPDEST SWAP2 POP PUSH2 0x1240 DUP3 PUSH2 0x1201 JUMP JUMPDEST PUSH1 0x20 DUP3 ADD SWAP1 POP SWAP2 SWAP1 POP JUMP JUMPDEST PUSH0 PUSH1 0x20 DUP3 ADD SWAP1 POP DUP2 DUP2 SUB PUSH0 DUP4 ADD MSTORE PUSH2 0x1262 DUP2 PUSH2 0x1229 JUMP JUMPDEST SWAP1 POP SWAP2 SWAP1 POP JUMP JUMPDEST PUSH32 0x416C726561647920636C61696D65640000000000000000000000000000000000 PUSH0 DUP3 ADD MSTORE POP JUMP JUMPDEST PUSH0 PUSH2 0x129D PUSH1 0xF DUP4 PUSH2 0xFF5 JUMP JUMPDEST SWAP2 POP PUSH2 0x12A8 DUP3 PUSH2 0x1269 JUMP JUMPDEST PUSH1 0x20 DUP3 ADD SWAP1 POP SWAP2 SWAP1 POP JUMP JUMPDEST PUSH0 PUSH1 0x20 DUP3 ADD SWAP1 POP DUP2 DUP2 SUB PUSH0 DUP4 ADD MSTORE PUSH2 0x12CA DUP2 PUSH2 0x1291 JUMP JUMPDEST SWAP1 POP SWAP2 SWAP1 POP JUMP JUMPDEST PUSH32 0x4E487B7100000000000000000000000000000000000000000000000000000000 PUSH0 MSTORE PUSH1 0x12 PUSH1 0x4 MSTORE PUSH1 0x24 PUSH0 REVERT JUMPDEST PUSH0 PUSH2 0x1308 DUP3 PUSH2 0xD3F JUMP JUMPDEST SWAP2 POP PUSH2 0x1313 DUP4 PUSH2 0xD3F JUMP JUMPDEST SWAP3 POP DUP3 PUSH2 0x1323 JUMPI PUSH2 0x1322 PUSH2 0x12D1 JUMP JUMPDEST JUMPDEST DUP3 DUP3 DIV SWAP1 POP SWAP3 SWAP2 POP POP JUMP JUMPDEST PUSH0 PUSH2 0x1338 DUP3 PUSH2 0xD3F JUMP JUMPDEST SWAP2 POP PUSH2 0x1343 DUP4 PUSH2 0xD3F JUMP JUMPDEST SWAP3 POP DUP3 DUP3 MUL PUSH2 0x1351 DUP2 PUSH2 0xD3F JUMP JUMPDEST SWAP2 POP DUP3 DUP3 DIV DUP5 EQ DUP4 ISZERO OR PUSH2 0x1368 JUMPI PUSH2 0x1367 PUSH2 0x10D5 JUMP JUMPDEST JUMPDEST POP SWAP3 SWAP2 POP POP JUMP JUMPDEST PUSH0 PUSH2 0x1379 DUP3 PUSH2 0xD09 JUMP JUMPDEST SWAP2 POP PUSH1 0xFF DUP3 SUB PUSH2 0x138C JUMPI PUSH2 0x138B PUSH2 0x10D5 JUMP JUMPDEST JUMPDEST PUSH1 0x1 DUP3 ADD SWAP1 POP SWAP2 SWAP1 POP JUMP JUMPDEST PUSH0 PUSH1 0x60 DUP3 ADD SWAP1 POP PUSH2 0x13AA PUSH0 DUP4 ADD DUP7 PUSH2 0xEDC JUMP JUMPDEST PUSH2 0x13B7 PUSH1 0x20 DUP4 ADD DUP6 PUSH2 0xEDC JUMP JUMPDEST PUSH2 0x13C4 PUSH1 0x40 DUP4 ADD DUP5 PUSH2 0xDED JUMP JUMPDEST SWAP5 SWAP4 POP POP POP POP JUMP INVALID LOG2 PUSH5 0x6970667358 0x22 SLT KECCAK256 0x2D EOFCREATE 0x0 0xB3 0xFC EXP SWAP7 0xC6 DUP5 DUP6 EQ PUSH14 0x83A3A2217CBBE29F1B011FA6D504 DUP8 0xED 0xA7 DUP10 SWAP12 JUMPF 0x6473 PUSH16 0x6C634300081D00330000000000000000 "
				},
				"gasEstimates": {
					"creation": {
						"codeDepositCost": "1024400",
						"executionCost": "infinite",
						"totalCost": "infinite"
					},
					"external": {
						"NUM_CATEGORIES()": "375",
						"assignBounty(address,uint8,uint256)": "infinite",
						"claimTokens()": "infinite",
						"claimed(address)": "2855",
						"claimingEnabled()": "2489",
						"depositRewardPool(uint256)": "infinite",
						"owner()": "2581",
						"renounceOwnership()": "infinite",
						"rewardToken()": "infinite",
						"toggleClaiming(bool)": "infinite",
						"totalPointsPerCategory(uint8)": "2806",
						"totalRewardPool()": "2493",
						"transferOwnership(address)": "infinite",
						"userPoints(address,uint8)": "3062",
						"withdrawUnclaimed(address)": "infinite"
					}
				},
				"methodIdentifiers": {
					"NUM_CATEGORIES()": "e2181a13",
					"assignBounty(address,uint8,uint256)": "07ac01c8",
					"claimTokens()": "48c54b9d",
					"claimed(address)": "c884ef83",
					"claimingEnabled()": "0e141a9b",
					"depositRewardPool(uint256)": "4c15d259",
					"owner()": "8da5cb5b",
					"renounceOwnership()": "715018a6",
					"rewardToken()": "f7c618c1",
					"toggleClaiming(bool)": "a08ab0a2",
					"totalPointsPerCategory(uint8)": "07c4d79f",
					"totalRewardPool()": "09c85e24",
					"transferOwnership(address)": "f2fde38b",
					"userPoints(address,uint8)": "6e402ff3",
					"withdrawUnclaimed(address)": "0fadea30"
				}
			},
			"storageLayout": {
				"storage": [
					{
						"astId": 8,
						"contract": "I/initialBountyOfferingTypes/tieredIBO.sol:TieredIBO",
						"label": "_owner",
						"offset": 0,
						"slot": "0",
						"type": "t_address"
					},
					{
						"astId": 265,
						"contract": "I/initialBountyOfferingTypes/tieredIBO.sol:TieredIBO",
						"label": "rewardToken",
						"offset": 0,
						"slot": "1",
						"type": "t_contract(IERC20)225"
					},
					{
						"astId": 267,
						"contract": "I/initialBountyOfferingTypes/tieredIBO.sol:TieredIBO",
						"label": "totalRewardPool",
						"offset": 0,
						"slot": "2",
						"type": "t_uint256"
					},
					{
						"astId": 269,
						"contract": "I/initialBountyOfferingTypes/tieredIBO.sol:TieredIBO",
						"label": "claimingEnabled",
						"offset": 0,
						"slot": "3",
						"type": "t_bool"
					},
					{
						"astId": 276,
						"contract": "I/initialBountyOfferingTypes/tieredIBO.sol:TieredIBO",
						"label": "totalPointsPerCategory",
						"offset": 0,
						"slot": "4",
						"type": "t_mapping(t_uint8,t_uint256)"
					},
					{
						"astId": 282,
						"contract": "I/initialBountyOfferingTypes/tieredIBO.sol:TieredIBO",
						"label": "userPoints",
						"offset": 0,
						"slot": "5",
						"type": "t_mapping(t_address,t_mapping(t_uint8,t_uint256))"
					},
					{
						"astId": 286,
						"contract": "I/initialBountyOfferingTypes/tieredIBO.sol:TieredIBO",
						"label": "claimed",
						"offset": 0,
						"slot": "6",
						"type": "t_mapping(t_address,t_bool)"
					}
				],
				"types": {
					"t_address": {
						"encoding": "inplace",
						"label": "address",
						"numberOfBytes": "20"
					},
					"t_bool": {
						"encoding": "inplace",
						"label": "bool",
						"numberOfBytes": "1"
					},
					"t_contract(IERC20)225": {
						"encoding": "inplace",
						"label": "contract IERC20",
						"numberOfBytes": "20"
					},
					"t_mapping(t_address,t_bool)": {
						"encoding": "mapping",
						"key": "t_address",
						"label": "mapping(address => bool)",
						"numberOfBytes": "32",
						"value": "t_bool"
					},
					"t_mapping(t_address,t_mapping(t_uint8,t_uint256))": {
						"encoding": "mapping",
						"key": "t_address",
						"label": "mapping(address => mapping(uint8 => uint256))",
						"numberOfBytes": "32",
						"value": "t_mapping(t_uint8,t_uint256)"
					},
					"t_mapping(t_uint8,t_uint256)": {
						"encoding": "mapping",
						"key": "t_uint8",
						"label": "mapping(uint8 => uint256)",
						"numberOfBytes": "32",
						"value": "t_uint256"
					},
					"t_uint256": {
						"encoding": "inplace",
						"label": "uint256",
						"numberOfBytes": "32"
					},
					"t_uint8": {
						"encoding": "inplace",
						"label": "uint8",
						"numberOfBytes": "1"
					}
				}
			},
			"userdoc": {
				"kind": "user",
				"methods": {},
				"notice": "Bounties are assigned per tier/category and rewards are distributed proportionally per tier.",
				"version": 1
			}
		}
	}
}