{
	"D/derivatives market.sol": {
		"DerivativesMarket": {
			"abi": [
				{
					"inputs": [],
					"stateMutability": "nonpayable",
					"type": "constructor"
				},
				{
					"inputs": [
						{
							"internalType": "address",
							"name": "owner",
							"type": "address"
						}
					],
					"name": "OwnableInvalidOwner",
					"type": "error"
				},
				{
					"inputs": [
						{
							"internalType": "address",
							"name": "account",
							"type": "address"
						}
					],
					"name": "OwnableUnauthorizedAccount",
					"type": "error"
				},
				{
					"anonymous": false,
					"inputs": [
						{
							"indexed": true,
							"internalType": "address",
							"name": "previousOwner",
							"type": "address"
						},
						{
							"indexed": true,
							"internalType": "address",
							"name": "newOwner",
							"type": "address"
						}
					],
					"name": "OwnershipTransferred",
					"type": "event"
				},
				{
					"anonymous": false,
					"inputs": [
						{
							"indexed": true,
							"internalType": "uint256",
							"name": "id",
							"type": "uint256"
						}
					],
					"name": "PositionCanceled",
					"type": "event"
				},
				{
					"anonymous": false,
					"inputs": [
						{
							"indexed": true,
							"internalType": "uint256",
							"name": "id",
							"type": "uint256"
						},
						{
							"indexed": false,
							"internalType": "enum DerivativesMarket.DerivativeType",
							"name": "dtype",
							"type": "uint8"
						},
						{
							"indexed": true,
							"internalType": "address",
							"name": "creator",
							"type": "address"
						},
						{
							"indexed": false,
							"internalType": "uint256",
							"name": "collateral",
							"type": "uint256"
						},
						{
							"indexed": false,
							"internalType": "uint256",
							"name": "expiry",
							"type": "uint256"
						}
					],
					"name": "PositionCreated",
					"type": "event"
				},
				{
					"anonymous": false,
					"inputs": [
						{
							"indexed": true,
							"internalType": "uint256",
							"name": "id",
							"type": "uint256"
						},
						{
							"indexed": true,
							"internalType": "address",
							"name": "counterparty",
							"type": "address"
						},
						{
							"indexed": false,
							"internalType": "uint256",
							"name": "collateral",
							"type": "uint256"
						}
					],
					"name": "PositionJoined",
					"type": "event"
				},
				{
					"anonymous": false,
					"inputs": [
						{
							"indexed": true,
							"internalType": "uint256",
							"name": "id",
							"type": "uint256"
						},
						{
							"indexed": false,
							"internalType": "address",
							"name": "winner",
							"type": "address"
						},
						{
							"indexed": false,
							"internalType": "uint256",
							"name": "totalCollateral",
							"type": "uint256"
						}
					],
					"name": "PositionSettled",
					"type": "event"
				},
				{
					"inputs": [
						{
							"internalType": "uint256",
							"name": "positionId",
							"type": "uint256"
						}
					],
					"name": "cancelPosition",
					"outputs": [],
					"stateMutability": "nonpayable",
					"type": "function"
				},
				{
					"inputs": [
						{
							"internalType": "enum DerivativesMarket.DerivativeType",
							"name": "dtype",
							"type": "uint8"
						},
						{
							"internalType": "uint256",
							"name": "collateral",
							"type": "uint256"
						},
						{
							"internalType": "uint256",
							"name": "expiry",
							"type": "uint256"
						}
					],
					"name": "createPosition",
					"outputs": [
						{
							"internalType": "uint256",
							"name": "positionId",
							"type": "uint256"
						}
					],
					"stateMutability": "payable",
					"type": "function"
				},
				{
					"inputs": [
						{
							"internalType": "uint256",
							"name": "positionId",
							"type": "uint256"
						},
						{
							"internalType": "address",
							"name": "user",
							"type": "address"
						}
					],
					"name": "getLockedCollateral",
					"outputs": [
						{
							"internalType": "uint256",
							"name": "",
							"type": "uint256"
						}
					],
					"stateMutability": "view",
					"type": "function"
				},
				{
					"inputs": [
						{
							"internalType": "uint256",
							"name": "positionId",
							"type": "uint256"
						}
					],
					"name": "getPosition",
					"outputs": [
						{
							"components": [
								{
									"internalType": "uint256",
									"name": "id",
									"type": "uint256"
								},
								{
									"internalType": "enum DerivativesMarket.DerivativeType",
									"name": "dtype",
									"type": "uint8"
								},
								{
									"internalType": "address",
									"name": "creator",
									"type": "address"
								},
								{
									"internalType": "address",
									"name": "counterparty",
									"type": "address"
								},
								{
									"internalType": "uint256",
									"name": "collateral",
									"type": "uint256"
								},
								{
									"internalType": "uint256",
									"name": "expiry",
									"type": "uint256"
								},
								{
									"internalType": "bool",
									"name": "active",
									"type": "bool"
								},
								{
									"internalType": "bool",
									"name": "settled",
									"type": "bool"
								}
							],
							"internalType": "struct DerivativesMarket.Position",
							"name": "",
							"type": "tuple"
						}
					],
					"stateMutability": "view",
					"type": "function"
				},
				{
					"inputs": [
						{
							"internalType": "uint256",
							"name": "positionId",
							"type": "uint256"
						}
					],
					"name": "joinPosition",
					"outputs": [],
					"stateMutability": "payable",
					"type": "function"
				},
				{
					"inputs": [
						{
							"internalType": "uint256",
							"name": "",
							"type": "uint256"
						},
						{
							"internalType": "address",
							"name": "",
							"type": "address"
						}
					],
					"name": "lockedCollateral",
					"outputs": [
						{
							"internalType": "uint256",
							"name": "",
							"type": "uint256"
						}
					],
					"stateMutability": "view",
					"type": "function"
				},
				{
					"inputs": [],
					"name": "nextPositionId",
					"outputs": [
						{
							"internalType": "uint256",
							"name": "",
							"type": "uint256"
						}
					],
					"stateMutability": "view",
					"type": "function"
				},
				{
					"inputs": [],
					"name": "owner",
					"outputs": [
						{
							"internalType": "address",
							"name": "",
							"type": "address"
						}
					],
					"stateMutability": "view",
					"type": "function"
				},
				{
					"inputs": [
						{
							"internalType": "uint256",
							"name": "",
							"type": "uint256"
						}
					],
					"name": "positions",
					"outputs": [
						{
							"internalType": "uint256",
							"name": "id",
							"type": "uint256"
						},
						{
							"internalType": "enum DerivativesMarket.DerivativeType",
							"name": "dtype",
							"type": "uint8"
						},
						{
							"internalType": "address",
							"name": "creator",
							"type": "address"
						},
						{
							"internalType": "address",
							"name": "counterparty",
							"type": "address"
						},
						{
							"internalType": "uint256",
							"name": "collateral",
							"type": "uint256"
						},
						{
							"internalType": "uint256",
							"name": "expiry",
							"type": "uint256"
						},
						{
							"internalType": "bool",
							"name": "active",
							"type": "bool"
						},
						{
							"internalType": "bool",
							"name": "settled",
							"type": "bool"
						}
					],
					"stateMutability": "view",
					"type": "function"
				},
				{
					"inputs": [],
					"name": "renounceOwnership",
					"outputs": [],
					"stateMutability": "nonpayable",
					"type": "function"
				},
				{
					"inputs": [
						{
							"internalType": "uint256",
							"name": "positionId",
							"type": "uint256"
						},
						{
							"internalType": "address",
							"name": "winner",
							"type": "address"
						}
					],
					"name": "settlePosition",
					"outputs": [],
					"stateMutability": "nonpayable",
					"type": "function"
				},
				{
					"inputs": [],
					"name": "totalPositions",
					"outputs": [
						{
							"internalType": "uint256",
							"name": "",
							"type": "uint256"
						}
					],
					"stateMutability": "view",
					"type": "function"
				},
				{
					"inputs": [
						{
							"internalType": "address",
							"name": "newOwner",
							"type": "address"
						}
					],
					"name": "transferOwnership",
					"outputs": [],
					"stateMutability": "nonpayable",
					"type": "function"
				}
			],
			"devdoc": {
				"errors": {
					"OwnableInvalidOwner(address)": [
						{
							"details": "The owner is not a valid owner account. (eg. `address(0)`)"
						}
					],
					"OwnableUnauthorizedAccount(address)": [
						{
							"details": "The caller account is not authorized to perform an operation."
						}
					]
				},
				"kind": "dev",
				"methods": {
					"cancelPosition(uint256)": {
						"params": {
							"positionId": "The ID of the position to cancel."
						}
					},
					"createPosition(uint8,uint256,uint256)": {
						"params": {
							"collateral": "The amount of collateral each participant must lock (in wei).",
							"dtype": "The derivative type (Future, Option, CFD, etc.).",
							"expiry": "The expiration timestamp for the position."
						},
						"returns": {
							"positionId": "The unique ID assigned to this newly created position."
						}
					},
					"getLockedCollateral(uint256,address)": {
						"params": {
							"positionId": "The position ID.",
							"user": "The user's address."
						},
						"returns": {
							"_0": "The amount of collateral locked by the user."
						}
					},
					"getPosition(uint256)": {
						"params": {
							"positionId": "The ID of the position."
						},
						"returns": {
							"_0": "The Position struct for the given ID."
						}
					},
					"joinPosition(uint256)": {
						"params": {
							"positionId": "The ID of the position to join."
						}
					},
					"owner()": {
						"details": "Returns the address of the current owner."
					},
					"renounceOwnership()": {
						"details": "Leaves the contract without owner. It will not be possible to call `onlyOwner` functions. Can only be called by the current owner. NOTE: Renouncing ownership will leave the contract without an owner, thereby disabling any functionality that is only available to the owner."
					},
					"settlePosition(uint256,address)": {
						"params": {
							"positionId": "The ID of the position to settle.",
							"winner": "The address receiving the entire locked collateral."
						}
					},
					"totalPositions()": {
						"returns": {
							"_0": "The total positions count."
						}
					},
					"transferOwnership(address)": {
						"details": "Transfers ownership of the contract to a new account (`newOwner`). Can only be called by the current owner."
					}
				},
				"title": "DerivativesMarket",
				"version": 1
			},
			"evm": {
				"assembly": "    /* \"D/derivatives market.sol\":530:7136  contract DerivativesMarket is Ownable, ReentrancyGuard {... */\n  mstore(0x40, 0x80)\n    /* \"D/derivatives market.sol\":2216:2252  constructor() Ownable(msg.sender) {} */\n  callvalue\n  dup1\n  iszero\n  tag_1\n  jumpi\n  0x00\n  dup1\n  revert\ntag_1:\n  pop\n    /* \"D/derivatives market.sol\":2238:2248  msg.sender */\n  caller\n    /* \"@openzeppelin/contracts/access/Ownable.sol\":1297:1298  0 */\n  0x00\n    /* \"@openzeppelin/contracts/access/Ownable.sol\":1273:1299  initialOwner == address(0) */\n  0xffffffffffffffffffffffffffffffffffffffff\n  and\n    /* \"@openzeppelin/contracts/access/Ownable.sol\":1273:1285  initialOwner */\n  dup2\n    /* \"@openzeppelin/contracts/access/Ownable.sol\":1273:1299  initialOwner == address(0) */\n  0xffffffffffffffffffffffffffffffffffffffff\n  and\n  sub\n    /* \"@openzeppelin/contracts/access/Ownable.sol\":1269:1364  if (initialOwner == address(0)) {... */\n  tag_6\n  jumpi\n    /* \"@openzeppelin/contracts/access/Ownable.sol\":1350:1351  0 */\n  0x00\n    /* \"@openzeppelin/contracts/access/Ownable.sol\":1322:1353  OwnableInvalidOwner(address(0)) */\n  mload(0x40)\n  0x1e4fbdf700000000000000000000000000000000000000000000000000000000\n  dup2\n  mstore\n  0x04\n  add\n  tag_7\n  swap2\n  swap1\n  tag_8\n  jump\t// in\ntag_7:\n  mload(0x40)\n  dup1\n  swap2\n  sub\n  swap1\n  revert\n    /* \"@openzeppelin/contracts/access/Ownable.sol\":1269:1364  if (initialOwner == address(0)) {... */\ntag_6:\n    /* \"@openzeppelin/contracts/access/Ownable.sol\":1373:1405  _transferOwnership(initialOwner) */\n  tag_9\n    /* \"@openzeppelin/contracts/access/Ownable.sol\":1392:1404  initialOwner */\n  dup2\n    /* \"@openzeppelin/contracts/access/Ownable.sol\":1373:1391  _transferOwnership */\n  shl(0x20, tag_10)\n    /* \"@openzeppelin/contracts/access/Ownable.sol\":1373:1405  _transferOwnership(initialOwner) */\n  0x20\n  shr\n  jump\t// in\ntag_9:\n    /* \"@openzeppelin/contracts/access/Ownable.sol\":1225:1412  constructor(address initialOwner) {... */\n  pop\n    /* \"@openzeppelin/contracts/security/ReentrancyGuard.sol\":1716:1717  1 */\n  0x01\n    /* \"@openzeppelin/contracts/security/ReentrancyGuard.sol\":1821:1828  _status */\n  dup1\n    /* \"@openzeppelin/contracts/security/ReentrancyGuard.sol\":1821:1843  _status = _NOT_ENTERED */\n  dup2\n  swap1\n  sstore\n  pop\n    /* \"D/derivatives market.sol\":530:7136  contract DerivativesMarket is Ownable, ReentrancyGuard {... */\n  jump(tag_13)\n    /* \"@openzeppelin/contracts/access/Ownable.sol\":2912:3099  function _transferOwnership(address newOwner) internal virtual {... */\ntag_10:\n    /* \"@openzeppelin/contracts/access/Ownable.sol\":2985:3001  address oldOwner */\n  0x00\n    /* \"@openzeppelin/contracts/access/Ownable.sol\":3004:3010  _owner */\n  dup1\n  0x00\n  swap1\n  sload\n  swap1\n  0x0100\n  exp\n  swap1\n  div\n  0xffffffffffffffffffffffffffffffffffffffff\n  and\n    /* \"@openzeppelin/contracts/access/Ownable.sol\":2985:3010  address oldOwner = _owner */\n  swap1\n  pop\n    /* \"@openzeppelin/contracts/access/Ownable.sol\":3029:3037  newOwner */\n  dup2\n    /* \"@openzeppelin/contracts/access/Ownable.sol\":3020:3026  _owner */\n  0x00\n  dup1\n    /* \"@openzeppelin/contracts/access/Ownable.sol\":3020:3037  _owner = newOwner */\n  0x0100\n  exp\n  dup2\n  sload\n  dup2\n  0xffffffffffffffffffffffffffffffffffffffff\n  mul\n  not\n  and\n  swap1\n  dup4\n  0xffffffffffffffffffffffffffffffffffffffff\n  and\n  mul\n  or\n  swap1\n  sstore\n  pop\n    /* \"@openzeppelin/contracts/access/Ownable.sol\":3083:3091  newOwner */\n  dup2\n    /* \"@openzeppelin/contracts/access/Ownable.sol\":3052:3092  OwnershipTransferred(oldOwner, newOwner) */\n  0xffffffffffffffffffffffffffffffffffffffff\n  and\n    /* \"@openzeppelin/contracts/access/Ownable.sol\":3073:3081  oldOwner */\n  dup2\n    /* \"@openzeppelin/contracts/access/Ownable.sol\":3052:3092  OwnershipTransferred(oldOwner, newOwner) */\n  0xffffffffffffffffffffffffffffffffffffffff\n  and\n  0x8be0079c531659141344cd1fd0a4f28419497f9722a3daafe3b4186f6b6457e0\n  mload(0x40)\n  mload(0x40)\n  dup1\n  swap2\n  sub\n  swap1\n  log3\n    /* \"@openzeppelin/contracts/access/Ownable.sol\":2975:3099  {... */\n  pop\n    /* \"@openzeppelin/contracts/access/Ownable.sol\":2912:3099  function _transferOwnership(address newOwner) internal virtual {... */\n  pop\n  jump\t// out\n    /* \"#utility.yul\":7:133   */\ntag_15:\n    /* \"#utility.yul\":44:51   */\n  0x00\n    /* \"#utility.yul\":84:126   */\n  0xffffffffffffffffffffffffffffffffffffffff\n    /* \"#utility.yul\":77:82   */\n  dup3\n    /* \"#utility.yul\":73:127   */\n  and\n    /* \"#utility.yul\":62:127   */\n  swap1\n  pop\n    /* \"#utility.yul\":7:133   */\n  swap2\n  swap1\n  pop\n  jump\t// out\n    /* \"#utility.yul\":139:235   */\ntag_16:\n    /* \"#utility.yul\":176:183   */\n  0x00\n    /* \"#utility.yul\":205:229   */\n  tag_21\n    /* \"#utility.yul\":223:228   */\n  dup3\n    /* \"#utility.yul\":205:229   */\n  tag_15\n  jump\t// in\ntag_21:\n    /* \"#utility.yul\":194:229   */\n  swap1\n  pop\n    /* \"#utility.yul\":139:235   */\n  swap2\n  swap1\n  pop\n  jump\t// out\n    /* \"#utility.yul\":241:359   */\ntag_17:\n    /* \"#utility.yul\":328:352   */\n  tag_23\n    /* \"#utility.yul\":346:351   */\n  dup2\n    /* \"#utility.yul\":328:352   */\n  tag_16\n  jump\t// in\ntag_23:\n    /* \"#utility.yul\":323:326   */\n  dup3\n    /* \"#utility.yul\":316:353   */\n  mstore\n    /* \"#utility.yul\":241:359   */\n  pop\n  pop\n  jump\t// out\n    /* \"#utility.yul\":365:587   */\ntag_8:\n    /* \"#utility.yul\":458:462   */\n  0x00\n    /* \"#utility.yul\":496:498   */\n  0x20\n    /* \"#utility.yul\":485:494   */\n  dup3\n    /* \"#utility.yul\":481:499   */\n  add\n    /* \"#utility.yul\":473:499   */\n  swap1\n  pop\n    /* \"#utility.yul\":509:580   */\n  tag_25\n    /* \"#utility.yul\":577:578   */\n  0x00\n    /* \"#utility.yul\":566:575   */\n  dup4\n    /* \"#utility.yul\":562:579   */\n  add\n    /* \"#utility.yul\":553:559   */\n  dup5\n    /* \"#utility.yul\":509:580   */\n  tag_17\n  jump\t// in\ntag_25:\n    /* \"#utility.yul\":365:587   */\n  swap3\n  swap2\n  pop\n  pop\n  jump\t// out\n    /* \"D/derivatives market.sol\":530:7136  contract DerivativesMarket is Ownable, ReentrancyGuard {... */\ntag_13:\n  dataSize(sub_0)\n  dup1\n  dataOffset(sub_0)\n  0x00\n  codecopy\n  0x00\n  return\nstop\n\nsub_0: assembly {\n        /* \"D/derivatives market.sol\":530:7136  contract DerivativesMarket is Ownable, ReentrancyGuard {... */\n      mstore(0x40, 0x80)\n      jumpi(tag_1, lt(calldatasize, 0x04))\n      shr(0xe0, calldataload(0x00))\n      dup1\n      0x899346c7\n      gt\n      tag_15\n      jumpi\n      dup1\n      0xcd4e9ffa\n      gt\n      tag_16\n      jumpi\n      dup1\n      0xcd4e9ffa\n      eq\n      tag_11\n      jumpi\n      dup1\n      0xeb02c301\n      eq\n      tag_12\n      jumpi\n      dup1\n      0xf2fde38b\n      eq\n      tag_13\n      jumpi\n      dup1\n      0xfda1fa5f\n      eq\n      tag_14\n      jumpi\n      jump(tag_1)\n    tag_16:\n      dup1\n      0x899346c7\n      eq\n      tag_8\n      jumpi\n      dup1\n      0x8da5cb5b\n      eq\n      tag_9\n      jumpi\n      dup1\n      0x99fbab88\n      eq\n      tag_10\n      jumpi\n      jump(tag_1)\n    tag_15:\n      dup1\n      0x10a7bf48\n      eq\n      tag_2\n      jumpi\n      dup1\n      0x2fdb4b1e\n      eq\n      tag_3\n      jumpi\n      dup1\n      0x4878d6fe\n      eq\n      tag_4\n      jumpi\n      dup1\n      0x59f3d12c\n      eq\n      tag_5\n      jumpi\n      dup1\n      0x5cacd7fa\n      eq\n      tag_6\n      jumpi\n      dup1\n      0x715018a6\n      eq\n      tag_7\n      jumpi\n    tag_1:\n      0x00\n      dup1\n      revert\n        /* \"D/derivatives market.sol\":4503:5401  function settlePosition(uint256 positionId, address winner) external nonReentrant onlyOwner {... */\n    tag_2:\n      callvalue\n      dup1\n      iszero\n      tag_17\n      jumpi\n      0x00\n      dup1\n      revert\n    tag_17:\n      pop\n      tag_18\n      0x04\n      dup1\n      calldatasize\n      sub\n      dup2\n      add\n      swap1\n      tag_19\n      swap2\n      swap1\n      tag_20\n      jump\t// in\n    tag_19:\n      tag_21\n      jump\t// in\n    tag_18:\n      stop\n        /* \"D/derivatives market.sol\":6739:6892  function getLockedCollateral(uint256 positionId, address user) external view returns (uint256) {... */\n    tag_3:\n      callvalue\n      dup1\n      iszero\n      tag_22\n      jumpi\n      0x00\n      dup1\n      revert\n    tag_22:\n      pop\n      tag_23\n      0x04\n      dup1\n      calldatasize\n      sub\n      dup2\n      add\n      swap1\n      tag_24\n      swap2\n      swap1\n      tag_20\n      jump\t// in\n    tag_24:\n      tag_25\n      jump\t// in\n    tag_23:\n      mload(0x40)\n      tag_26\n      swap2\n      swap1\n      tag_27\n      jump\t// in\n    tag_26:\n      mload(0x40)\n      dup1\n      swap2\n      sub\n      swap1\n      return\n        /* \"D/derivatives market.sol\":3694:4282  function joinPosition(uint256 positionId) external payable nonReentrant {... */\n    tag_4:\n      tag_28\n      0x04\n      dup1\n      calldatasize\n      sub\n      dup2\n      add\n      swap1\n      tag_29\n      swap2\n      swap1\n      tag_30\n      jump\t// in\n    tag_29:\n      tag_31\n      jump\t// in\n    tag_28:\n      stop\n        /* \"D/derivatives market.sol\":2663:3537  function createPosition(DerivativeType dtype, uint256 collateral, uint256 expiry)... */\n    tag_5:\n      tag_32\n      0x04\n      dup1\n      calldatasize\n      sub\n      dup2\n      add\n      swap1\n      tag_33\n      swap2\n      swap1\n      tag_34\n      jump\t// in\n    tag_33:\n      tag_35\n      jump\t// in\n    tag_32:\n      mload(0x40)\n      tag_36\n      swap2\n      swap1\n      tag_27\n      jump\t// in\n    tag_36:\n      mload(0x40)\n      dup1\n      swap2\n      sub\n      swap1\n      return\n        /* \"D/derivatives market.sol\":1639:1710  mapping(uint256 => mapping(address => uint256)) public lockedCollateral */\n    tag_6:\n      callvalue\n      dup1\n      iszero\n      tag_37\n      jumpi\n      0x00\n      dup1\n      revert\n    tag_37:\n      pop\n      tag_38\n      0x04\n      dup1\n      calldatasize\n      sub\n      dup2\n      add\n      swap1\n      tag_39\n      swap2\n      swap1\n      tag_20\n      jump\t// in\n    tag_39:\n      tag_40\n      jump\t// in\n    tag_38:\n      mload(0x40)\n      tag_41\n      swap2\n      swap1\n      tag_27\n      jump\t// in\n    tag_41:\n      mload(0x40)\n      dup1\n      swap2\n      sub\n      swap1\n      return\n        /* \"@openzeppelin/contracts/access/Ownable.sol\":2293:2394  function renounceOwnership() public virtual onlyOwner {... */\n    tag_7:\n      callvalue\n      dup1\n      iszero\n      tag_42\n      jumpi\n      0x00\n      dup1\n      revert\n    tag_42:\n      pop\n      tag_43\n      tag_44\n      jump\t// in\n    tag_43:\n      stop\n        /* \"D/derivatives market.sol\":1408:1437  uint256 public nextPositionId */\n    tag_8:\n      callvalue\n      dup1\n      iszero\n      tag_45\n      jumpi\n      0x00\n      dup1\n      revert\n    tag_45:\n      pop\n      tag_46\n      tag_47\n      jump\t// in\n    tag_46:\n      mload(0x40)\n      tag_48\n      swap2\n      swap1\n      tag_27\n      jump\t// in\n    tag_48:\n      mload(0x40)\n      dup1\n      swap2\n      sub\n      swap1\n      return\n        /* \"@openzeppelin/contracts/access/Ownable.sol\":1638:1723  function owner() public view virtual returns (address) {... */\n    tag_9:\n      callvalue\n      dup1\n      iszero\n      tag_49\n      jumpi\n      0x00\n      dup1\n      revert\n    tag_49:\n      pop\n      tag_50\n      tag_51\n      jump\t// in\n    tag_50:\n      mload(0x40)\n      tag_52\n      swap2\n      swap1\n      tag_53\n      jump\t// in\n    tag_52:\n      mload(0x40)\n      dup1\n      swap2\n      sub\n      swap1\n      return\n        /* \"D/derivatives market.sol\":1503:1548  mapping(uint256 => Position) public positions */\n    tag_10:\n      callvalue\n      dup1\n      iszero\n      tag_54\n      jumpi\n      0x00\n      dup1\n      revert\n    tag_54:\n      pop\n      tag_55\n      0x04\n      dup1\n      calldatasize\n      sub\n      dup2\n      add\n      swap1\n      tag_56\n      swap2\n      swap1\n      tag_30\n      jump\t// in\n    tag_56:\n      tag_57\n      jump\t// in\n    tag_55:\n      mload(0x40)\n      tag_58\n      swap9\n      swap8\n      swap7\n      swap6\n      swap5\n      swap4\n      swap3\n      swap2\n      swap1\n      tag_59\n      jump\t// in\n    tag_58:\n      mload(0x40)\n      dup1\n      swap2\n      sub\n      swap1\n      return\n        /* \"D/derivatives market.sol\":5548:6202  function cancelPosition(uint256 positionId) external nonReentrant {... */\n    tag_11:\n      callvalue\n      dup1\n      iszero\n      tag_60\n      jumpi\n      0x00\n      dup1\n      revert\n    tag_60:\n      pop\n      tag_61\n      0x04\n      dup1\n      calldatasize\n      sub\n      dup2\n      add\n      swap1\n      tag_62\n      swap2\n      swap1\n      tag_30\n      jump\t// in\n    tag_62:\n      tag_63\n      jump\t// in\n    tag_61:\n      stop\n        /* \"D/derivatives market.sol\":6381:6507  function getPosition(uint256 positionId) external view returns (Position memory) {... */\n    tag_12:\n      callvalue\n      dup1\n      iszero\n      tag_64\n      jumpi\n      0x00\n      dup1\n      revert\n    tag_64:\n      pop\n      tag_65\n      0x04\n      dup1\n      calldatasize\n      sub\n      dup2\n      add\n      swap1\n      tag_66\n      swap2\n      swap1\n      tag_30\n      jump\t// in\n    tag_66:\n      tag_67\n      jump\t// in\n    tag_65:\n      mload(0x40)\n      tag_68\n      swap2\n      swap1\n      tag_69\n      jump\t// in\n    tag_68:\n      mload(0x40)\n      dup1\n      swap2\n      sub\n      swap1\n      return\n        /* \"@openzeppelin/contracts/access/Ownable.sol\":2543:2758  function transferOwnership(address newOwner) public virtual onlyOwner {... */\n    tag_13:\n      callvalue\n      dup1\n      iszero\n      tag_70\n      jumpi\n      0x00\n      dup1\n      revert\n    tag_70:\n      pop\n      tag_71\n      0x04\n      dup1\n      calldatasize\n      sub\n      dup2\n      add\n      swap1\n      tag_72\n      swap2\n      swap1\n      tag_73\n      jump\t// in\n    tag_72:\n      tag_74\n      jump\t// in\n    tag_71:\n      stop\n        /* \"D/derivatives market.sol\":7038:7134  function totalPositions() external view returns (uint256) {... */\n    tag_14:\n      callvalue\n      dup1\n      iszero\n      tag_75\n      jumpi\n      0x00\n      dup1\n      revert\n    tag_75:\n      pop\n      tag_76\n      tag_77\n      jump\t// in\n    tag_76:\n      mload(0x40)\n      tag_78\n      swap2\n      swap1\n      tag_27\n      jump\t// in\n    tag_78:\n      mload(0x40)\n      dup1\n      swap2\n      sub\n      swap1\n      return\n        /* \"D/derivatives market.sol\":4503:5401  function settlePosition(uint256 positionId, address winner) external nonReentrant onlyOwner {... */\n    tag_21:\n        /* \"@openzeppelin/contracts/security/ReentrancyGuard.sol\":2261:2282  _nonReentrantBefore() */\n      tag_80\n        /* \"@openzeppelin/contracts/security/ReentrancyGuard.sol\":2261:2280  _nonReentrantBefore */\n      tag_81\n        /* \"@openzeppelin/contracts/security/ReentrancyGuard.sol\":2261:2282  _nonReentrantBefore() */\n      jump\t// in\n    tag_80:\n        /* \"@openzeppelin/contracts/access/Ownable.sol\":1531:1544  _checkOwner() */\n      tag_83\n        /* \"@openzeppelin/contracts/access/Ownable.sol\":1531:1542  _checkOwner */\n      tag_84\n        /* \"@openzeppelin/contracts/access/Ownable.sol\":1531:1544  _checkOwner() */\n      jump\t// in\n    tag_83:\n        /* \"D/derivatives market.sol\":4605:4625  Position storage pos */\n      0x00\n        /* \"D/derivatives market.sol\":4628:4637  positions */\n      0x03\n        /* \"D/derivatives market.sol\":4628:4649  positions[positionId] */\n      0x00\n        /* \"D/derivatives market.sol\":4638:4648  positionId */\n      dup5\n        /* \"D/derivatives market.sol\":4628:4649  positions[positionId] */\n      dup2\n      mstore\n      0x20\n      add\n      swap1\n      dup2\n      mstore\n      0x20\n      add\n      0x00\n      keccak256\n        /* \"D/derivatives market.sol\":4605:4649  Position storage pos = positions[positionId] */\n      swap1\n      pop\n        /* \"D/derivatives market.sol\":4667:4670  pos */\n      dup1\n        /* \"D/derivatives market.sol\":4667:4677  pos.active */\n      0x05\n      add\n      0x00\n      swap1\n      sload\n      swap1\n      0x0100\n      exp\n      swap1\n      div\n      0xff\n      and\n        /* \"D/derivatives market.sol\":4667:4693  pos.active && !pos.settled */\n      dup1\n      iszero\n      tag_86\n      jumpi\n      pop\n        /* \"D/derivatives market.sol\":4682:4685  pos */\n      dup1\n        /* \"D/derivatives market.sol\":4682:4693  pos.settled */\n      0x05\n      add\n      0x01\n      swap1\n      sload\n      swap1\n      0x0100\n      exp\n      swap1\n      div\n      0xff\n      and\n        /* \"D/derivatives market.sol\":4681:4693  !pos.settled */\n      iszero\n        /* \"D/derivatives market.sol\":4667:4693  pos.active && !pos.settled */\n    tag_86:\n        /* \"D/derivatives market.sol\":4659:4725  require(pos.active && !pos.settled, \"Already settled or inactive\") */\n      tag_87\n      jumpi\n      mload(0x40)\n      0x08c379a000000000000000000000000000000000000000000000000000000000\n      dup2\n      mstore\n      0x04\n      add\n      tag_88\n      swap1\n      tag_89\n      jump\t// in\n    tag_88:\n      mload(0x40)\n      dup1\n      swap2\n      sub\n      swap1\n      revert\n    tag_87:\n        /* \"D/derivatives market.sol\":4762:4765  pos */\n      dup1\n        /* \"D/derivatives market.sol\":4762:4772  pos.expiry */\n      0x04\n      add\n      sload\n        /* \"D/derivatives market.sol\":4743:4758  block.timestamp */\n      timestamp\n        /* \"D/derivatives market.sol\":4743:4772  block.timestamp >= pos.expiry */\n      lt\n      iszero\n        /* \"D/derivatives market.sol\":4735:4792  require(block.timestamp >= pos.expiry, \"Not yet expired\") */\n      tag_90\n      jumpi\n      mload(0x40)\n      0x08c379a000000000000000000000000000000000000000000000000000000000\n      dup2\n      mstore\n      0x04\n      add\n      tag_91\n      swap1\n      tag_92\n      jump\t// in\n    tag_91:\n      mload(0x40)\n      dup1\n      swap2\n      sub\n      swap1\n      revert\n    tag_90:\n        /* \"D/derivatives market.sol\":4820:4823  pos */\n      dup1\n        /* \"D/derivatives market.sol\":4820:4831  pos.creator */\n      0x01\n      add\n      0x01\n      swap1\n      sload\n      swap1\n      0x0100\n      exp\n      swap1\n      div\n      0xffffffffffffffffffffffffffffffffffffffff\n      and\n        /* \"D/derivatives market.sol\":4810:4831  winner == pos.creator */\n      0xffffffffffffffffffffffffffffffffffffffff\n      and\n        /* \"D/derivatives market.sol\":4810:4816  winner */\n      dup3\n        /* \"D/derivatives market.sol\":4810:4831  winner == pos.creator */\n      0xffffffffffffffffffffffffffffffffffffffff\n      and\n      eq\n        /* \"D/derivatives market.sol\":4810:4861  winner == pos.creator || winner == pos.counterparty */\n      dup1\n      tag_93\n      jumpi\n      pop\n        /* \"D/derivatives market.sol\":4845:4848  pos */\n      dup1\n        /* \"D/derivatives market.sol\":4845:4861  pos.counterparty */\n      0x02\n      add\n      0x00\n      swap1\n      sload\n      swap1\n      0x0100\n      exp\n      swap1\n      div\n      0xffffffffffffffffffffffffffffffffffffffff\n      and\n        /* \"D/derivatives market.sol\":4835:4861  winner == pos.counterparty */\n      0xffffffffffffffffffffffffffffffffffffffff\n      and\n        /* \"D/derivatives market.sol\":4835:4841  winner */\n      dup3\n        /* \"D/derivatives market.sol\":4835:4861  winner == pos.counterparty */\n      0xffffffffffffffffffffffffffffffffffffffff\n      and\n      eq\n        /* \"D/derivatives market.sol\":4810:4861  winner == pos.creator || winner == pos.counterparty */\n    tag_93:\n        /* \"D/derivatives market.sol\":4802:4892  require(winner == pos.creator || winner == pos.counterparty, \"Winner must be participant\") */\n      tag_94\n      jumpi\n      mload(0x40)\n      0x08c379a000000000000000000000000000000000000000000000000000000000\n      dup2\n      mstore\n      0x04\n      add\n      tag_95\n      swap1\n      tag_96\n      jump\t// in\n    tag_95:\n      mload(0x40)\n      dup1\n      swap2\n      sub\n      swap1\n      revert\n    tag_94:\n        /* \"D/derivatives market.sol\":4916:4921  false */\n      0x00\n        /* \"D/derivatives market.sol\":4903:4906  pos */\n      dup2\n        /* \"D/derivatives market.sol\":4903:4913  pos.active */\n      0x05\n      add\n      0x00\n        /* \"D/derivatives market.sol\":4903:4921  pos.active = false */\n      0x0100\n      exp\n      dup2\n      sload\n      dup2\n      0xff\n      mul\n      not\n      and\n      swap1\n      dup4\n      iszero\n      iszero\n      mul\n      or\n      swap1\n      sstore\n      pop\n        /* \"D/derivatives market.sol\":4945:4949  true */\n      0x01\n        /* \"D/derivatives market.sol\":4931:4934  pos */\n      dup2\n        /* \"D/derivatives market.sol\":4931:4942  pos.settled */\n      0x05\n      add\n      0x01\n        /* \"D/derivatives market.sol\":4931:4949  pos.settled = true */\n      0x0100\n      exp\n      dup2\n      sload\n      dup2\n      0xff\n      mul\n      not\n      and\n      swap1\n      dup4\n      iszero\n      iszero\n      mul\n      or\n      swap1\n      sstore\n      pop\n        /* \"D/derivatives market.sol\":4960:4983  uint256 totalCollateral */\n      0x00\n        /* \"D/derivatives market.sol\":5042:5058  lockedCollateral */\n      0x04\n        /* \"D/derivatives market.sol\":5042:5070  lockedCollateral[positionId] */\n      0x00\n        /* \"D/derivatives market.sol\":5059:5069  positionId */\n      dup6\n        /* \"D/derivatives market.sol\":5042:5070  lockedCollateral[positionId] */\n      dup2\n      mstore\n      0x20\n      add\n      swap1\n      dup2\n      mstore\n      0x20\n      add\n      0x00\n      keccak256\n        /* \"D/derivatives market.sol\":5042:5088  lockedCollateral[positionId][pos.counterparty] */\n      0x00\n        /* \"D/derivatives market.sol\":5071:5074  pos */\n      dup4\n        /* \"D/derivatives market.sol\":5071:5087  pos.counterparty */\n      0x02\n      add\n      0x00\n      swap1\n      sload\n      swap1\n      0x0100\n      exp\n      swap1\n      div\n      0xffffffffffffffffffffffffffffffffffffffff\n      and\n        /* \"D/derivatives market.sol\":5042:5088  lockedCollateral[positionId][pos.counterparty] */\n      0xffffffffffffffffffffffffffffffffffffffff\n      and\n      0xffffffffffffffffffffffffffffffffffffffff\n      and\n      dup2\n      mstore\n      0x20\n      add\n      swap1\n      dup2\n      mstore\n      0x20\n      add\n      0x00\n      keccak256\n      sload\n        /* \"D/derivatives market.sol\":4986:5002  lockedCollateral */\n      0x04\n        /* \"D/derivatives market.sol\":4986:5014  lockedCollateral[positionId] */\n      0x00\n        /* \"D/derivatives market.sol\":5003:5013  positionId */\n      dup7\n        /* \"D/derivatives market.sol\":4986:5014  lockedCollateral[positionId] */\n      dup2\n      mstore\n      0x20\n      add\n      swap1\n      dup2\n      mstore\n      0x20\n      add\n      0x00\n      keccak256\n        /* \"D/derivatives market.sol\":4986:5027  lockedCollateral[positionId][pos.creator] */\n      0x00\n        /* \"D/derivatives market.sol\":5015:5018  pos */\n      dup5\n        /* \"D/derivatives market.sol\":5015:5026  pos.creator */\n      0x01\n      add\n      0x01\n      swap1\n      sload\n      swap1\n      0x0100\n      exp\n      swap1\n      div\n      0xffffffffffffffffffffffffffffffffffffffff\n      and\n        /* \"D/derivatives market.sol\":4986:5027  lockedCollateral[positionId][pos.creator] */\n      0xffffffffffffffffffffffffffffffffffffffff\n      and\n      0xffffffffffffffffffffffffffffffffffffffff\n      and\n      dup2\n      mstore\n      0x20\n      add\n      swap1\n      dup2\n      mstore\n      0x20\n      add\n      0x00\n      keccak256\n      sload\n        /* \"D/derivatives market.sol\":4986:5088  lockedCollateral[positionId][pos.creator] +... */\n      tag_97\n      swap2\n      swap1\n      tag_98\n      jump\t// in\n    tag_97:\n        /* \"D/derivatives market.sol\":4960:5088  uint256 totalCollateral = lockedCollateral[positionId][pos.creator] +... */\n      swap1\n      pop\n        /* \"D/derivatives market.sol\":5142:5143  0 */\n      0x00\n        /* \"D/derivatives market.sol\":5098:5114  lockedCollateral */\n      0x04\n        /* \"D/derivatives market.sol\":5098:5126  lockedCollateral[positionId] */\n      0x00\n        /* \"D/derivatives market.sol\":5115:5125  positionId */\n      dup7\n        /* \"D/derivatives market.sol\":5098:5126  lockedCollateral[positionId] */\n      dup2\n      mstore\n      0x20\n      add\n      swap1\n      dup2\n      mstore\n      0x20\n      add\n      0x00\n      keccak256\n        /* \"D/derivatives market.sol\":5098:5139  lockedCollateral[positionId][pos.creator] */\n      0x00\n        /* \"D/derivatives market.sol\":5127:5130  pos */\n      dup5\n        /* \"D/derivatives market.sol\":5127:5138  pos.creator */\n      0x01\n      add\n      0x01\n      swap1\n      sload\n      swap1\n      0x0100\n      exp\n      swap1\n      div\n      0xffffffffffffffffffffffffffffffffffffffff\n      and\n        /* \"D/derivatives market.sol\":5098:5139  lockedCollateral[positionId][pos.creator] */\n      0xffffffffffffffffffffffffffffffffffffffff\n      and\n      0xffffffffffffffffffffffffffffffffffffffff\n      and\n      dup2\n      mstore\n      0x20\n      add\n      swap1\n      dup2\n      mstore\n      0x20\n      add\n      0x00\n      keccak256\n        /* \"D/derivatives market.sol\":5098:5143  lockedCollateral[positionId][pos.creator] = 0 */\n      dup2\n      swap1\n      sstore\n      pop\n        /* \"D/derivatives market.sol\":5202:5203  0 */\n      0x00\n        /* \"D/derivatives market.sol\":5153:5169  lockedCollateral */\n      0x04\n        /* \"D/derivatives market.sol\":5153:5181  lockedCollateral[positionId] */\n      0x00\n        /* \"D/derivatives market.sol\":5170:5180  positionId */\n      dup7\n        /* \"D/derivatives market.sol\":5153:5181  lockedCollateral[positionId] */\n      dup2\n      mstore\n      0x20\n      add\n      swap1\n      dup2\n      mstore\n      0x20\n      add\n      0x00\n      keccak256\n        /* \"D/derivatives market.sol\":5153:5199  lockedCollateral[positionId][pos.counterparty] */\n      0x00\n        /* \"D/derivatives market.sol\":5182:5185  pos */\n      dup5\n        /* \"D/derivatives market.sol\":5182:5198  pos.counterparty */\n      0x02\n      add\n      0x00\n      swap1\n      sload\n      swap1\n      0x0100\n      exp\n      swap1\n      div\n      0xffffffffffffffffffffffffffffffffffffffff\n      and\n        /* \"D/derivatives market.sol\":5153:5199  lockedCollateral[positionId][pos.counterparty] */\n      0xffffffffffffffffffffffffffffffffffffffff\n      and\n      0xffffffffffffffffffffffffffffffffffffffff\n      and\n      dup2\n      mstore\n      0x20\n      add\n      swap1\n      dup2\n      mstore\n      0x20\n      add\n      0x00\n      keccak256\n        /* \"D/derivatives market.sol\":5153:5203  lockedCollateral[positionId][pos.counterparty] = 0 */\n      dup2\n      swap1\n      sstore\n      pop\n        /* \"D/derivatives market.sol\":5215:5227  bool success */\n      0x00\n        /* \"D/derivatives market.sol\":5241:5247  winner */\n      dup4\n        /* \"D/derivatives market.sol\":5233:5253  payable(winner).call */\n      0xffffffffffffffffffffffffffffffffffffffff\n      and\n        /* \"D/derivatives market.sol\":5261:5276  totalCollateral */\n      dup3\n        /* \"D/derivatives market.sol\":5233:5281  payable(winner).call{value: totalCollateral}(\"\") */\n      mload(0x40)\n      tag_99\n      swap1\n      tag_100\n      jump\t// in\n    tag_99:\n      0x00\n      mload(0x40)\n      dup1\n      dup4\n      sub\n      dup2\n      dup6\n      dup8\n      gas\n      call\n      swap3\n      pop\n      pop\n      pop\n      returndatasize\n      dup1\n      0x00\n      dup2\n      eq\n      tag_103\n      jumpi\n      mload(0x40)\n      swap2\n      pop\n      and(add(returndatasize, 0x3f), not(0x1f))\n      dup3\n      add\n      0x40\n      mstore\n      returndatasize\n      dup3\n      mstore\n      returndatasize\n      0x00\n      0x20\n      dup5\n      add\n      returndatacopy\n      jump(tag_102)\n    tag_103:\n      0x60\n      swap2\n      pop\n    tag_102:\n      pop\n        /* \"D/derivatives market.sol\":5214:5281  (bool success, ) = payable(winner).call{value: totalCollateral}(\"\") */\n      pop\n      swap1\n      pop\n        /* \"D/derivatives market.sol\":5299:5306  success */\n      dup1\n        /* \"D/derivatives market.sol\":5291:5326  require(success, \"Transfer failed\") */\n      tag_104\n      jumpi\n      mload(0x40)\n      0x08c379a000000000000000000000000000000000000000000000000000000000\n      dup2\n      mstore\n      0x04\n      add\n      tag_105\n      swap1\n      tag_106\n      jump\t// in\n    tag_105:\n      mload(0x40)\n      dup1\n      swap2\n      sub\n      swap1\n      revert\n    tag_104:\n        /* \"D/derivatives market.sol\":5358:5368  positionId */\n      dup5\n        /* \"D/derivatives market.sol\":5342:5394  PositionSettled(positionId, winner, totalCollateral) */\n      0x98f9892eebebd6f31462317ad17c500a408bacffb142d51b60cc98ac62964d20\n        /* \"D/derivatives market.sol\":5370:5376  winner */\n      dup6\n        /* \"D/derivatives market.sol\":5378:5393  totalCollateral */\n      dup5\n        /* \"D/derivatives market.sol\":5342:5394  PositionSettled(positionId, winner, totalCollateral) */\n      mload(0x40)\n      tag_107\n      swap3\n      swap2\n      swap1\n      tag_108\n      jump\t// in\n    tag_107:\n      mload(0x40)\n      dup1\n      swap2\n      sub\n      swap1\n      log2\n        /* \"D/derivatives market.sol\":4595:5401  {... */\n      pop\n      pop\n      pop\n        /* \"@openzeppelin/contracts/security/ReentrancyGuard.sol\":2303:2323  _nonReentrantAfter() */\n      tag_109\n        /* \"@openzeppelin/contracts/security/ReentrancyGuard.sol\":2303:2321  _nonReentrantAfter */\n      tag_110\n        /* \"@openzeppelin/contracts/security/ReentrancyGuard.sol\":2303:2323  _nonReentrantAfter() */\n      jump\t// in\n    tag_109:\n        /* \"D/derivatives market.sol\":4503:5401  function settlePosition(uint256 positionId, address winner) external nonReentrant onlyOwner {... */\n      pop\n      pop\n      jump\t// out\n        /* \"D/derivatives market.sol\":6739:6892  function getLockedCollateral(uint256 positionId, address user) external view returns (uint256) {... */\n    tag_25:\n        /* \"D/derivatives market.sol\":6825:6832  uint256 */\n      0x00\n        /* \"D/derivatives market.sol\":6851:6867  lockedCollateral */\n      0x04\n        /* \"D/derivatives market.sol\":6851:6879  lockedCollateral[positionId] */\n      0x00\n        /* \"D/derivatives market.sol\":6868:6878  positionId */\n      dup5\n        /* \"D/derivatives market.sol\":6851:6879  lockedCollateral[positionId] */\n      dup2\n      mstore\n      0x20\n      add\n      swap1\n      dup2\n      mstore\n      0x20\n      add\n      0x00\n      keccak256\n        /* \"D/derivatives market.sol\":6851:6885  lockedCollateral[positionId][user] */\n      0x00\n        /* \"D/derivatives market.sol\":6880:6884  user */\n      dup4\n        /* \"D/derivatives market.sol\":6851:6885  lockedCollateral[positionId][user] */\n      0xffffffffffffffffffffffffffffffffffffffff\n      and\n      0xffffffffffffffffffffffffffffffffffffffff\n      and\n      dup2\n      mstore\n      0x20\n      add\n      swap1\n      dup2\n      mstore\n      0x20\n      add\n      0x00\n      keccak256\n      sload\n        /* \"D/derivatives market.sol\":6844:6885  return lockedCollateral[positionId][user] */\n      swap1\n      pop\n        /* \"D/derivatives market.sol\":6739:6892  function getLockedCollateral(uint256 positionId, address user) external view returns (uint256) {... */\n      swap3\n      swap2\n      pop\n      pop\n      jump\t// out\n        /* \"D/derivatives market.sol\":3694:4282  function joinPosition(uint256 positionId) external payable nonReentrant {... */\n    tag_31:\n        /* \"@openzeppelin/contracts/security/ReentrancyGuard.sol\":2261:2282  _nonReentrantBefore() */\n      tag_113\n        /* \"@openzeppelin/contracts/security/ReentrancyGuard.sol\":2261:2280  _nonReentrantBefore */\n      tag_81\n        /* \"@openzeppelin/contracts/security/ReentrancyGuard.sol\":2261:2282  _nonReentrantBefore() */\n      jump\t// in\n    tag_113:\n        /* \"D/derivatives market.sol\":3776:3796  Position storage pos */\n      0x00\n        /* \"D/derivatives market.sol\":3799:3808  positions */\n      0x03\n        /* \"D/derivatives market.sol\":3799:3820  positions[positionId] */\n      0x00\n        /* \"D/derivatives market.sol\":3809:3819  positionId */\n      dup4\n        /* \"D/derivatives market.sol\":3799:3820  positions[positionId] */\n      dup2\n      mstore\n      0x20\n      add\n      swap1\n      dup2\n      mstore\n      0x20\n      add\n      0x00\n      keccak256\n        /* \"D/derivatives market.sol\":3776:3820  Position storage pos = positions[positionId] */\n      swap1\n      pop\n        /* \"D/derivatives market.sol\":3838:3841  pos */\n      dup1\n        /* \"D/derivatives market.sol\":3838:3848  pos.active */\n      0x05\n      add\n      0x00\n      swap1\n      sload\n      swap1\n      0x0100\n      exp\n      swap1\n      div\n      0xff\n      and\n        /* \"D/derivatives market.sol\":3838:3864  pos.active && !pos.settled */\n      dup1\n      iszero\n      tag_115\n      jumpi\n      pop\n        /* \"D/derivatives market.sol\":3853:3856  pos */\n      dup1\n        /* \"D/derivatives market.sol\":3853:3864  pos.settled */\n      0x05\n      add\n      0x01\n      swap1\n      sload\n      swap1\n      0x0100\n      exp\n      swap1\n      div\n      0xff\n      and\n        /* \"D/derivatives market.sol\":3852:3864  !pos.settled */\n      iszero\n        /* \"D/derivatives market.sol\":3838:3864  pos.active && !pos.settled */\n    tag_115:\n        /* \"D/derivatives market.sol\":3830:3888  require(pos.active && !pos.settled, \"Position not active\") */\n      tag_116\n      jumpi\n      mload(0x40)\n      0x08c379a000000000000000000000000000000000000000000000000000000000\n      dup2\n      mstore\n      0x04\n      add\n      tag_117\n      swap1\n      tag_118\n      jump\t// in\n    tag_117:\n      mload(0x40)\n      dup1\n      swap2\n      sub\n      swap1\n      revert\n    tag_116:\n        /* \"D/derivatives market.sol\":3934:3935  0 */\n      0x00\n        /* \"D/derivatives market.sol\":3906:3936  pos.counterparty == address(0) */\n      0xffffffffffffffffffffffffffffffffffffffff\n      and\n        /* \"D/derivatives market.sol\":3906:3909  pos */\n      dup2\n        /* \"D/derivatives market.sol\":3906:3922  pos.counterparty */\n      0x02\n      add\n      0x00\n      swap1\n      sload\n      swap1\n      0x0100\n      exp\n      swap1\n      div\n      0xffffffffffffffffffffffffffffffffffffffff\n      and\n        /* \"D/derivatives market.sol\":3906:3936  pos.counterparty == address(0) */\n      0xffffffffffffffffffffffffffffffffffffffff\n      and\n      eq\n        /* \"D/derivatives market.sol\":3898:3964  require(pos.counterparty == address(0), \"Position already joined\") */\n      tag_119\n      jumpi\n      mload(0x40)\n      0x08c379a000000000000000000000000000000000000000000000000000000000\n      dup2\n      mstore\n      0x04\n      add\n      tag_120\n      swap1\n      tag_121\n      jump\t// in\n    tag_120:\n      mload(0x40)\n      dup1\n      swap2\n      sub\n      swap1\n      revert\n    tag_119:\n        /* \"D/derivatives market.sol\":4000:4003  pos */\n      dup1\n        /* \"D/derivatives market.sol\":4000:4010  pos.expiry */\n      0x04\n      add\n      sload\n        /* \"D/derivatives market.sol\":3982:3997  block.timestamp */\n      timestamp\n        /* \"D/derivatives market.sol\":3982:4010  block.timestamp < pos.expiry */\n      lt\n        /* \"D/derivatives market.sol\":3974:4031  require(block.timestamp < pos.expiry, \"Position expired\") */\n      tag_122\n      jumpi\n      mload(0x40)\n      0x08c379a000000000000000000000000000000000000000000000000000000000\n      dup2\n      mstore\n      0x04\n      add\n      tag_123\n      swap1\n      tag_124\n      jump\t// in\n    tag_123:\n      mload(0x40)\n      dup1\n      swap2\n      sub\n      swap1\n      revert\n    tag_122:\n        /* \"D/derivatives market.sol\":4062:4065  pos */\n      dup1\n        /* \"D/derivatives market.sol\":4062:4076  pos.collateral */\n      0x03\n      add\n      sload\n        /* \"D/derivatives market.sol\":4049:4058  msg.value */\n      callvalue\n        /* \"D/derivatives market.sol\":4049:4076  msg.value == pos.collateral */\n      eq\n        /* \"D/derivatives market.sol\":4041:4108  require(msg.value == pos.collateral, \"Incorrect collateral amount\") */\n      tag_125\n      jumpi\n      mload(0x40)\n      0x08c379a000000000000000000000000000000000000000000000000000000000\n      dup2\n      mstore\n      0x04\n      add\n      tag_126\n      swap1\n      tag_127\n      jump\t// in\n    tag_126:\n      mload(0x40)\n      dup1\n      swap2\n      sub\n      swap1\n      revert\n    tag_125:\n        /* \"D/derivatives market.sol\":4138:4148  msg.sender */\n      caller\n        /* \"D/derivatives market.sol\":4119:4122  pos */\n      dup2\n        /* \"D/derivatives market.sol\":4119:4135  pos.counterparty */\n      0x02\n      add\n      0x00\n        /* \"D/derivatives market.sol\":4119:4148  pos.counterparty = msg.sender */\n      0x0100\n      exp\n      dup2\n      sload\n      dup2\n      0xffffffffffffffffffffffffffffffffffffffff\n      mul\n      not\n      and\n      swap1\n      dup4\n      0xffffffffffffffffffffffffffffffffffffffff\n      and\n      mul\n      or\n      swap1\n      sstore\n      pop\n        /* \"D/derivatives market.sol\":4201:4210  msg.value */\n      callvalue\n        /* \"D/derivatives market.sol\":4158:4174  lockedCollateral */\n      0x04\n        /* \"D/derivatives market.sol\":4158:4186  lockedCollateral[positionId] */\n      0x00\n        /* \"D/derivatives market.sol\":4175:4185  positionId */\n      dup5\n        /* \"D/derivatives market.sol\":4158:4186  lockedCollateral[positionId] */\n      dup2\n      mstore\n      0x20\n      add\n      swap1\n      dup2\n      mstore\n      0x20\n      add\n      0x00\n      keccak256\n        /* \"D/derivatives market.sol\":4158:4198  lockedCollateral[positionId][msg.sender] */\n      0x00\n        /* \"D/derivatives market.sol\":4187:4197  msg.sender */\n      caller\n        /* \"D/derivatives market.sol\":4158:4198  lockedCollateral[positionId][msg.sender] */\n      0xffffffffffffffffffffffffffffffffffffffff\n      and\n      0xffffffffffffffffffffffffffffffffffffffff\n      and\n      dup2\n      mstore\n      0x20\n      add\n      swap1\n      dup2\n      mstore\n      0x20\n      add\n      0x00\n      keccak256\n        /* \"D/derivatives market.sol\":4158:4210  lockedCollateral[positionId][msg.sender] = msg.value */\n      dup2\n      swap1\n      sstore\n      pop\n        /* \"D/derivatives market.sol\":4253:4263  msg.sender */\n      caller\n        /* \"D/derivatives market.sol\":4226:4275  PositionJoined(positionId, msg.sender, msg.value) */\n      0xffffffffffffffffffffffffffffffffffffffff\n      and\n        /* \"D/derivatives market.sol\":4241:4251  positionId */\n      dup3\n        /* \"D/derivatives market.sol\":4226:4275  PositionJoined(positionId, msg.sender, msg.value) */\n      0x93e6e6211aa281169d87ff1c659132bed4c7fa27b695b81a329b28e58b9ce15b\n        /* \"D/derivatives market.sol\":4265:4274  msg.value */\n      callvalue\n        /* \"D/derivatives market.sol\":4226:4275  PositionJoined(positionId, msg.sender, msg.value) */\n      mload(0x40)\n      tag_128\n      swap2\n      swap1\n      tag_27\n      jump\t// in\n    tag_128:\n      mload(0x40)\n      dup1\n      swap2\n      sub\n      swap1\n      log3\n        /* \"D/derivatives market.sol\":3766:4282  {... */\n      pop\n        /* \"@openzeppelin/contracts/security/ReentrancyGuard.sol\":2303:2323  _nonReentrantAfter() */\n      tag_129\n        /* \"@openzeppelin/contracts/security/ReentrancyGuard.sol\":2303:2321  _nonReentrantAfter */\n      tag_110\n        /* \"@openzeppelin/contracts/security/ReentrancyGuard.sol\":2303:2323  _nonReentrantAfter() */\n      jump\t// in\n    tag_129:\n        /* \"D/derivatives market.sol\":3694:4282  function joinPosition(uint256 positionId) external payable nonReentrant {... */\n      pop\n      jump\t// out\n        /* \"D/derivatives market.sol\":2663:3537  function createPosition(DerivativeType dtype, uint256 collateral, uint256 expiry)... */\n    tag_35:\n        /* \"D/derivatives market.sol\":2816:2834  uint256 positionId */\n      0x00\n        /* \"@openzeppelin/contracts/security/ReentrancyGuard.sol\":2261:2282  _nonReentrantBefore() */\n      tag_131\n        /* \"@openzeppelin/contracts/security/ReentrancyGuard.sol\":2261:2280  _nonReentrantBefore */\n      tag_81\n        /* \"@openzeppelin/contracts/security/ReentrancyGuard.sol\":2261:2282  _nonReentrantBefore() */\n      jump\t// in\n    tag_131:\n        /* \"D/derivatives market.sol\":2871:2872  0 */\n      0x00\n        /* \"D/derivatives market.sol\":2858:2868  collateral */\n      dup4\n        /* \"D/derivatives market.sol\":2858:2872  collateral > 0 */\n      gt\n        /* \"D/derivatives market.sol\":2850:2899  require(collateral > 0, \"Collateral must be > 0\") */\n      tag_133\n      jumpi\n      mload(0x40)\n      0x08c379a000000000000000000000000000000000000000000000000000000000\n      dup2\n      mstore\n      0x04\n      add\n      tag_134\n      swap1\n      tag_135\n      jump\t// in\n    tag_134:\n      mload(0x40)\n      dup1\n      swap2\n      sub\n      swap1\n      revert\n    tag_133:\n        /* \"D/derivatives market.sol\":2930:2940  collateral */\n      dup3\n        /* \"D/derivatives market.sol\":2917:2926  msg.value */\n      callvalue\n        /* \"D/derivatives market.sol\":2917:2940  msg.value == collateral */\n      eq\n        /* \"D/derivatives market.sol\":2909:2972  require(msg.value == collateral, \"Incorrect collateral amount\") */\n      tag_136\n      jumpi\n      mload(0x40)\n      0x08c379a000000000000000000000000000000000000000000000000000000000\n      dup2\n      mstore\n      0x04\n      add\n      tag_137\n      swap1\n      tag_127\n      jump\t// in\n    tag_137:\n      mload(0x40)\n      dup1\n      swap2\n      sub\n      swap1\n      revert\n    tag_136:\n        /* \"D/derivatives market.sol\":2999:3014  block.timestamp */\n      timestamp\n        /* \"D/derivatives market.sol\":2990:2996  expiry */\n      dup3\n        /* \"D/derivatives market.sol\":2990:3014  expiry > block.timestamp */\n      gt\n        /* \"D/derivatives market.sol\":2982:3047  require(expiry > block.timestamp, \"Expiry must be in the future\") */\n      tag_138\n      jumpi\n      mload(0x40)\n      0x08c379a000000000000000000000000000000000000000000000000000000000\n      dup2\n      mstore\n      0x04\n      add\n      tag_139\n      swap1\n      tag_140\n      jump\t// in\n    tag_139:\n      mload(0x40)\n      dup1\n      swap2\n      sub\n      swap1\n      revert\n    tag_138:\n        /* \"D/derivatives market.sol\":3071:3085  nextPositionId */\n      0x02\n      0x00\n        /* \"D/derivatives market.sol\":3071:3087  nextPositionId++ */\n      dup2\n      sload\n      dup1\n      swap3\n      swap2\n      swap1\n      tag_141\n      swap1\n      tag_142\n      jump\t// in\n    tag_141:\n      swap2\n      swap1\n      pop\n      sstore\n        /* \"D/derivatives market.sol\":3058:3087  positionId = nextPositionId++ */\n      swap1\n      pop\n        /* \"D/derivatives market.sol\":3121:3384  Position({... */\n      mload(0x40)\n      dup1\n      0x0100\n      add\n      0x40\n      mstore\n      dup1\n        /* \"D/derivatives market.sol\":3148:3158  positionId */\n      dup3\n        /* \"D/derivatives market.sol\":3121:3384  Position({... */\n      dup2\n      mstore\n      0x20\n      add\n        /* \"D/derivatives market.sol\":3179:3184  dtype */\n      dup6\n        /* \"D/derivatives market.sol\":3121:3384  Position({... */\n      0x02\n      dup2\n      gt\n      iszero\n      tag_143\n      jumpi\n      tag_144\n      tag_145\n      jump\t// in\n    tag_144:\n    tag_143:\n      dup2\n      mstore\n      0x20\n      add\n        /* \"D/derivatives market.sol\":3207:3217  msg.sender */\n      caller\n        /* \"D/derivatives market.sol\":3121:3384  Position({... */\n      0xffffffffffffffffffffffffffffffffffffffff\n      and\n      dup2\n      mstore\n      0x20\n      add\n        /* \"D/derivatives market.sol\":3253:3254  0 */\n      0x00\n        /* \"D/derivatives market.sol\":3121:3384  Position({... */\n      0xffffffffffffffffffffffffffffffffffffffff\n      and\n      dup2\n      mstore\n      0x20\n      add\n        /* \"D/derivatives market.sol\":3281:3291  collateral */\n      dup5\n        /* \"D/derivatives market.sol\":3121:3384  Position({... */\n      dup2\n      mstore\n      0x20\n      add\n        /* \"D/derivatives market.sol\":3313:3319  expiry */\n      dup4\n        /* \"D/derivatives market.sol\":3121:3384  Position({... */\n      dup2\n      mstore\n      0x20\n      add\n        /* \"D/derivatives market.sol\":3341:3345  true */\n      0x01\n        /* \"D/derivatives market.sol\":3121:3384  Position({... */\n      iszero\n      iszero\n      dup2\n      mstore\n      0x20\n      add\n        /* \"D/derivatives market.sol\":3368:3373  false */\n      0x00\n        /* \"D/derivatives market.sol\":3121:3384  Position({... */\n      iszero\n      iszero\n      dup2\n      mstore\n      pop\n        /* \"D/derivatives market.sol\":3097:3106  positions */\n      0x03\n        /* \"D/derivatives market.sol\":3097:3118  positions[positionId] */\n      0x00\n        /* \"D/derivatives market.sol\":3107:3117  positionId */\n      dup4\n        /* \"D/derivatives market.sol\":3097:3118  positions[positionId] */\n      dup2\n      mstore\n      0x20\n      add\n      swap1\n      dup2\n      mstore\n      0x20\n      add\n      0x00\n      keccak256\n        /* \"D/derivatives market.sol\":3097:3384  positions[positionId] = Position({... */\n      0x00\n      dup3\n      add\n      mload\n      dup2\n      0x00\n      add\n      sstore\n      0x20\n      dup3\n      add\n      mload\n      dup2\n      0x01\n      add\n      exp(0x0100, 0x00)\n      dup2\n      sload\n      dup2\n      0xff\n      mul\n      not\n      and\n      swap1\n      dup4\n      0x02\n      dup2\n      gt\n      iszero\n      tag_146\n      jumpi\n      tag_147\n      tag_145\n      jump\t// in\n    tag_147:\n    tag_146:\n      mul\n      or\n      swap1\n      sstore\n      pop\n      0x40\n      dup3\n      add\n      mload\n      dup2\n      0x01\n      add\n      exp(0x0100, 0x01)\n      dup2\n      sload\n      dup2\n      0xffffffffffffffffffffffffffffffffffffffff\n      mul\n      not\n      and\n      swap1\n      dup4\n      0xffffffffffffffffffffffffffffffffffffffff\n      and\n      mul\n      or\n      swap1\n      sstore\n      pop\n      0x60\n      dup3\n      add\n      mload\n      dup2\n      0x02\n      add\n      exp(0x0100, 0x00)\n      dup2\n      sload\n      dup2\n      0xffffffffffffffffffffffffffffffffffffffff\n      mul\n      not\n      and\n      swap1\n      dup4\n      0xffffffffffffffffffffffffffffffffffffffff\n      and\n      mul\n      or\n      swap1\n      sstore\n      pop\n      0x80\n      dup3\n      add\n      mload\n      dup2\n      0x03\n      add\n      sstore\n      0xa0\n      dup3\n      add\n      mload\n      dup2\n      0x04\n      add\n      sstore\n      0xc0\n      dup3\n      add\n      mload\n      dup2\n      0x05\n      add\n      exp(0x0100, 0x00)\n      dup2\n      sload\n      dup2\n      0xff\n      mul\n      not\n      and\n      swap1\n      dup4\n      iszero\n      iszero\n      mul\n      or\n      swap1\n      sstore\n      pop\n      0xe0\n      dup3\n      add\n      mload\n      dup2\n      0x05\n      add\n      exp(0x0100, 0x01)\n      dup2\n      sload\n      dup2\n      0xff\n      mul\n      not\n      and\n      swap1\n      dup4\n      iszero\n      iszero\n      mul\n      or\n      swap1\n      sstore\n      pop\n      swap1\n      pop\n      pop\n        /* \"D/derivatives market.sol\":3438:3448  collateral */\n      dup3\n        /* \"D/derivatives market.sol\":3395:3411  lockedCollateral */\n      0x04\n        /* \"D/derivatives market.sol\":3395:3423  lockedCollateral[positionId] */\n      0x00\n        /* \"D/derivatives market.sol\":3412:3422  positionId */\n      dup4\n        /* \"D/derivatives market.sol\":3395:3423  lockedCollateral[positionId] */\n      dup2\n      mstore\n      0x20\n      add\n      swap1\n      dup2\n      mstore\n      0x20\n      add\n      0x00\n      keccak256\n        /* \"D/derivatives market.sol\":3395:3435  lockedCollateral[positionId][msg.sender] */\n      0x00\n        /* \"D/derivatives market.sol\":3424:3434  msg.sender */\n      caller\n        /* \"D/derivatives market.sol\":3395:3435  lockedCollateral[positionId][msg.sender] */\n      0xffffffffffffffffffffffffffffffffffffffff\n      and\n      0xffffffffffffffffffffffffffffffffffffffff\n      and\n      dup2\n      mstore\n      0x20\n      add\n      swap1\n      dup2\n      mstore\n      0x20\n      add\n      0x00\n      keccak256\n        /* \"D/derivatives market.sol\":3395:3448  lockedCollateral[positionId][msg.sender] = collateral */\n      dup2\n      swap1\n      sstore\n      pop\n        /* \"D/derivatives market.sol\":3499:3509  msg.sender */\n      caller\n        /* \"D/derivatives market.sol\":3464:3530  PositionCreated(positionId, dtype, msg.sender, collateral, expiry) */\n      0xffffffffffffffffffffffffffffffffffffffff\n      and\n        /* \"D/derivatives market.sol\":3480:3490  positionId */\n      dup2\n        /* \"D/derivatives market.sol\":3464:3530  PositionCreated(positionId, dtype, msg.sender, collateral, expiry) */\n      0xb5086c70750d1301e82b29ad74ff6a872d8b6aacb3e187ec285fa8050626345e\n        /* \"D/derivatives market.sol\":3492:3497  dtype */\n      dup7\n        /* \"D/derivatives market.sol\":3511:3521  collateral */\n      dup7\n        /* \"D/derivatives market.sol\":3523:3529  expiry */\n      dup7\n        /* \"D/derivatives market.sol\":3464:3530  PositionCreated(positionId, dtype, msg.sender, collateral, expiry) */\n      mload(0x40)\n      tag_148\n      swap4\n      swap3\n      swap2\n      swap1\n      tag_149\n      jump\t// in\n    tag_148:\n      mload(0x40)\n      dup1\n      swap2\n      sub\n      swap1\n      log3\n        /* \"@openzeppelin/contracts/security/ReentrancyGuard.sol\":2303:2323  _nonReentrantAfter() */\n      tag_150\n        /* \"@openzeppelin/contracts/security/ReentrancyGuard.sol\":2303:2321  _nonReentrantAfter */\n      tag_110\n        /* \"@openzeppelin/contracts/security/ReentrancyGuard.sol\":2303:2323  _nonReentrantAfter() */\n      jump\t// in\n    tag_150:\n        /* \"D/derivatives market.sol\":2663:3537  function createPosition(DerivativeType dtype, uint256 collateral, uint256 expiry)... */\n      swap4\n      swap3\n      pop\n      pop\n      pop\n      jump\t// out\n        /* \"D/derivatives market.sol\":1639:1710  mapping(uint256 => mapping(address => uint256)) public lockedCollateral */\n    tag_40:\n      mstore(0x20, 0x04)\n      dup2\n      0x00\n      mstore\n      mstore(0x20, keccak256(0x00, 0x40))\n      dup1\n      0x00\n      mstore\n      keccak256(0x00, 0x40)\n      0x00\n      swap2\n      pop\n      swap2\n      pop\n      pop\n      sload\n      dup2\n      jump\t// out\n        /* \"@openzeppelin/contracts/access/Ownable.sol\":2293:2394  function renounceOwnership() public virtual onlyOwner {... */\n    tag_44:\n        /* \"@openzeppelin/contracts/access/Ownable.sol\":1531:1544  _checkOwner() */\n      tag_152\n        /* \"@openzeppelin/contracts/access/Ownable.sol\":1531:1542  _checkOwner */\n      tag_84\n        /* \"@openzeppelin/contracts/access/Ownable.sol\":1531:1544  _checkOwner() */\n      jump\t// in\n    tag_152:\n        /* \"@openzeppelin/contracts/access/Ownable.sol\":2357:2387  _transferOwnership(address(0)) */\n      tag_154\n        /* \"@openzeppelin/contracts/access/Ownable.sol\":2384:2385  0 */\n      0x00\n        /* \"@openzeppelin/contracts/access/Ownable.sol\":2357:2375  _transferOwnership */\n      tag_155\n        /* \"@openzeppelin/contracts/access/Ownable.sol\":2357:2387  _transferOwnership(address(0)) */\n      jump\t// in\n    tag_154:\n        /* \"@openzeppelin/contracts/access/Ownable.sol\":2293:2394  function renounceOwnership() public virtual onlyOwner {... */\n      jump\t// out\n        /* \"D/derivatives market.sol\":1408:1437  uint256 public nextPositionId */\n    tag_47:\n      sload(0x02)\n      dup2\n      jump\t// out\n        /* \"@openzeppelin/contracts/access/Ownable.sol\":1638:1723  function owner() public view virtual returns (address) {... */\n    tag_51:\n        /* \"@openzeppelin/contracts/access/Ownable.sol\":1684:1691  address */\n      0x00\n        /* \"@openzeppelin/contracts/access/Ownable.sol\":1710:1716  _owner */\n      dup1\n      0x00\n      swap1\n      sload\n      swap1\n      0x0100\n      exp\n      swap1\n      div\n      0xffffffffffffffffffffffffffffffffffffffff\n      and\n        /* \"@openzeppelin/contracts/access/Ownable.sol\":1703:1716  return _owner */\n      swap1\n      pop\n        /* \"@openzeppelin/contracts/access/Ownable.sol\":1638:1723  function owner() public view virtual returns (address) {... */\n      swap1\n      jump\t// out\n        /* \"D/derivatives market.sol\":1503:1548  mapping(uint256 => Position) public positions */\n    tag_57:\n      mstore(0x20, 0x03)\n      dup1\n      0x00\n      mstore\n      keccak256(0x00, 0x40)\n      0x00\n      swap2\n      pop\n      swap1\n      pop\n      dup1\n      0x00\n      add\n      sload\n      swap1\n      dup1\n      0x01\n      add\n      0x00\n      swap1\n      sload\n      swap1\n      0x0100\n      exp\n      swap1\n      div\n      0xff\n      and\n      swap1\n      dup1\n      0x01\n      add\n      0x01\n      swap1\n      sload\n      swap1\n      0x0100\n      exp\n      swap1\n      div\n      0xffffffffffffffffffffffffffffffffffffffff\n      and\n      swap1\n      dup1\n      0x02\n      add\n      0x00\n      swap1\n      sload\n      swap1\n      0x0100\n      exp\n      swap1\n      div\n      0xffffffffffffffffffffffffffffffffffffffff\n      and\n      swap1\n      dup1\n      0x03\n      add\n      sload\n      swap1\n      dup1\n      0x04\n      add\n      sload\n      swap1\n      dup1\n      0x05\n      add\n      0x00\n      swap1\n      sload\n      swap1\n      0x0100\n      exp\n      swap1\n      div\n      0xff\n      and\n      swap1\n      dup1\n      0x05\n      add\n      0x01\n      swap1\n      sload\n      swap1\n      0x0100\n      exp\n      swap1\n      div\n      0xff\n      and\n      swap1\n      pop\n      dup9\n      jump\t// out\n        /* \"D/derivatives market.sol\":5548:6202  function cancelPosition(uint256 positionId) external nonReentrant {... */\n    tag_63:\n        /* \"@openzeppelin/contracts/security/ReentrancyGuard.sol\":2261:2282  _nonReentrantBefore() */\n      tag_158\n        /* \"@openzeppelin/contracts/security/ReentrancyGuard.sol\":2261:2280  _nonReentrantBefore */\n      tag_81\n        /* \"@openzeppelin/contracts/security/ReentrancyGuard.sol\":2261:2282  _nonReentrantBefore() */\n      jump\t// in\n    tag_158:\n        /* \"D/derivatives market.sol\":5624:5644  Position storage pos */\n      0x00\n        /* \"D/derivatives market.sol\":5647:5656  positions */\n      0x03\n        /* \"D/derivatives market.sol\":5647:5668  positions[positionId] */\n      0x00\n        /* \"D/derivatives market.sol\":5657:5667  positionId */\n      dup4\n        /* \"D/derivatives market.sol\":5647:5668  positions[positionId] */\n      dup2\n      mstore\n      0x20\n      add\n      swap1\n      dup2\n      mstore\n      0x20\n      add\n      0x00\n      keccak256\n        /* \"D/derivatives market.sol\":5624:5668  Position storage pos = positions[positionId] */\n      swap1\n      pop\n        /* \"D/derivatives market.sol\":5686:5689  pos */\n      dup1\n        /* \"D/derivatives market.sol\":5686:5696  pos.active */\n      0x05\n      add\n      0x00\n      swap1\n      sload\n      swap1\n      0x0100\n      exp\n      swap1\n      div\n      0xff\n      and\n        /* \"D/derivatives market.sol\":5686:5712  pos.active && !pos.settled */\n      dup1\n      iszero\n      tag_160\n      jumpi\n      pop\n        /* \"D/derivatives market.sol\":5701:5704  pos */\n      dup1\n        /* \"D/derivatives market.sol\":5701:5712  pos.settled */\n      0x05\n      add\n      0x01\n      swap1\n      sload\n      swap1\n      0x0100\n      exp\n      swap1\n      div\n      0xff\n      and\n        /* \"D/derivatives market.sol\":5700:5712  !pos.settled */\n      iszero\n        /* \"D/derivatives market.sol\":5686:5712  pos.active && !pos.settled */\n    tag_160:\n        /* \"D/derivatives market.sol\":5678:5736  require(pos.active && !pos.settled, \"Position not active\") */\n      tag_161\n      jumpi\n      mload(0x40)\n      0x08c379a000000000000000000000000000000000000000000000000000000000\n      dup2\n      mstore\n      0x04\n      add\n      tag_162\n      swap1\n      tag_118\n      jump\t// in\n    tag_162:\n      mload(0x40)\n      dup1\n      swap2\n      sub\n      swap1\n      revert\n    tag_161:\n        /* \"D/derivatives market.sol\":5782:5783  0 */\n      0x00\n        /* \"D/derivatives market.sol\":5754:5784  pos.counterparty == address(0) */\n      0xffffffffffffffffffffffffffffffffffffffff\n      and\n        /* \"D/derivatives market.sol\":5754:5757  pos */\n      dup2\n        /* \"D/derivatives market.sol\":5754:5770  pos.counterparty */\n      0x02\n      add\n      0x00\n      swap1\n      sload\n      swap1\n      0x0100\n      exp\n      swap1\n      div\n      0xffffffffffffffffffffffffffffffffffffffff\n      and\n        /* \"D/derivatives market.sol\":5754:5784  pos.counterparty == address(0) */\n      0xffffffffffffffffffffffffffffffffffffffff\n      and\n      eq\n        /* \"D/derivatives market.sol\":5746:5808  require(pos.counterparty == address(0), \"Counterparty joined\") */\n      tag_163\n      jumpi\n      mload(0x40)\n      0x08c379a000000000000000000000000000000000000000000000000000000000\n      dup2\n      mstore\n      0x04\n      add\n      tag_164\n      swap1\n      tag_165\n      jump\t// in\n    tag_164:\n      mload(0x40)\n      dup1\n      swap2\n      sub\n      swap1\n      revert\n    tag_163:\n        /* \"D/derivatives market.sol\":5840:5843  pos */\n      dup1\n        /* \"D/derivatives market.sol\":5840:5851  pos.creator */\n      0x01\n      add\n      0x01\n      swap1\n      sload\n      swap1\n      0x0100\n      exp\n      swap1\n      div\n      0xffffffffffffffffffffffffffffffffffffffff\n      and\n        /* \"D/derivatives market.sol\":5826:5851  msg.sender == pos.creator */\n      0xffffffffffffffffffffffffffffffffffffffff\n      and\n        /* \"D/derivatives market.sol\":5826:5836  msg.sender */\n      caller\n        /* \"D/derivatives market.sol\":5826:5851  msg.sender == pos.creator */\n      0xffffffffffffffffffffffffffffffffffffffff\n      and\n      eq\n        /* \"D/derivatives market.sol\":5818:5876  require(msg.sender == pos.creator, \"Not position creator\") */\n      tag_166\n      jumpi\n      mload(0x40)\n      0x08c379a000000000000000000000000000000000000000000000000000000000\n      dup2\n      mstore\n      0x04\n      add\n      tag_167\n      swap1\n      tag_168\n      jump\t// in\n    tag_167:\n      mload(0x40)\n      dup1\n      swap2\n      sub\n      swap1\n      revert\n    tag_166:\n        /* \"D/derivatives market.sol\":5900:5905  false */\n      0x00\n        /* \"D/derivatives market.sol\":5887:5890  pos */\n      dup2\n        /* \"D/derivatives market.sol\":5887:5897  pos.active */\n      0x05\n      add\n      0x00\n        /* \"D/derivatives market.sol\":5887:5905  pos.active = false */\n      0x0100\n      exp\n      dup2\n      sload\n      dup2\n      0xff\n      mul\n      not\n      and\n      swap1\n      dup4\n      iszero\n      iszero\n      mul\n      or\n      swap1\n      sstore\n      pop\n        /* \"D/derivatives market.sol\":5915:5929  uint256 locked */\n      0x00\n        /* \"D/derivatives market.sol\":5932:5948  lockedCollateral */\n      0x04\n        /* \"D/derivatives market.sol\":5932:5960  lockedCollateral[positionId] */\n      0x00\n        /* \"D/derivatives market.sol\":5949:5959  positionId */\n      dup5\n        /* \"D/derivatives market.sol\":5932:5960  lockedCollateral[positionId] */\n      dup2\n      mstore\n      0x20\n      add\n      swap1\n      dup2\n      mstore\n      0x20\n      add\n      0x00\n      keccak256\n        /* \"D/derivatives market.sol\":5932:5972  lockedCollateral[positionId][msg.sender] */\n      0x00\n        /* \"D/derivatives market.sol\":5961:5971  msg.sender */\n      caller\n        /* \"D/derivatives market.sol\":5932:5972  lockedCollateral[positionId][msg.sender] */\n      0xffffffffffffffffffffffffffffffffffffffff\n      and\n      0xffffffffffffffffffffffffffffffffffffffff\n      and\n      dup2\n      mstore\n      0x20\n      add\n      swap1\n      dup2\n      mstore\n      0x20\n      add\n      0x00\n      keccak256\n      sload\n        /* \"D/derivatives market.sol\":5915:5972  uint256 locked = lockedCollateral[positionId][msg.sender] */\n      swap1\n      pop\n        /* \"D/derivatives market.sol\":6025:6026  0 */\n      0x00\n        /* \"D/derivatives market.sol\":5982:5998  lockedCollateral */\n      0x04\n        /* \"D/derivatives market.sol\":5982:6010  lockedCollateral[positionId] */\n      0x00\n        /* \"D/derivatives market.sol\":5999:6009  positionId */\n      dup6\n        /* \"D/derivatives market.sol\":5982:6010  lockedCollateral[positionId] */\n      dup2\n      mstore\n      0x20\n      add\n      swap1\n      dup2\n      mstore\n      0x20\n      add\n      0x00\n      keccak256\n        /* \"D/derivatives market.sol\":5982:6022  lockedCollateral[positionId][msg.sender] */\n      0x00\n        /* \"D/derivatives market.sol\":6011:6021  msg.sender */\n      caller\n        /* \"D/derivatives market.sol\":5982:6022  lockedCollateral[positionId][msg.sender] */\n      0xffffffffffffffffffffffffffffffffffffffff\n      and\n      0xffffffffffffffffffffffffffffffffffffffff\n      and\n      dup2\n      mstore\n      0x20\n      add\n      swap1\n      dup2\n      mstore\n      0x20\n      add\n      0x00\n      keccak256\n        /* \"D/derivatives market.sol\":5982:6026  lockedCollateral[positionId][msg.sender] = 0 */\n      dup2\n      swap1\n      sstore\n      pop\n        /* \"D/derivatives market.sol\":6038:6050  bool success */\n      0x00\n        /* \"D/derivatives market.sol\":6064:6074  msg.sender */\n      caller\n        /* \"D/derivatives market.sol\":6056:6080  payable(msg.sender).call */\n      0xffffffffffffffffffffffffffffffffffffffff\n      and\n        /* \"D/derivatives market.sol\":6088:6094  locked */\n      dup3\n        /* \"D/derivatives market.sol\":6056:6099  payable(msg.sender).call{value: locked}(\"\") */\n      mload(0x40)\n      tag_169\n      swap1\n      tag_100\n      jump\t// in\n    tag_169:\n      0x00\n      mload(0x40)\n      dup1\n      dup4\n      sub\n      dup2\n      dup6\n      dup8\n      gas\n      call\n      swap3\n      pop\n      pop\n      pop\n      returndatasize\n      dup1\n      0x00\n      dup2\n      eq\n      tag_172\n      jumpi\n      mload(0x40)\n      swap2\n      pop\n      and(add(returndatasize, 0x3f), not(0x1f))\n      dup3\n      add\n      0x40\n      mstore\n      returndatasize\n      dup3\n      mstore\n      returndatasize\n      0x00\n      0x20\n      dup5\n      add\n      returndatacopy\n      jump(tag_171)\n    tag_172:\n      0x60\n      swap2\n      pop\n    tag_171:\n      pop\n        /* \"D/derivatives market.sol\":6037:6099  (bool success, ) = payable(msg.sender).call{value: locked}(\"\") */\n      pop\n      swap1\n      pop\n        /* \"D/derivatives market.sol\":6117:6124  success */\n      dup1\n        /* \"D/derivatives market.sol\":6109:6151  require(success, \"Refund transfer failed\") */\n      tag_173\n      jumpi\n      mload(0x40)\n      0x08c379a000000000000000000000000000000000000000000000000000000000\n      dup2\n      mstore\n      0x04\n      add\n      tag_174\n      swap1\n      tag_175\n      jump\t// in\n    tag_174:\n      mload(0x40)\n      dup1\n      swap2\n      sub\n      swap1\n      revert\n    tag_173:\n        /* \"D/derivatives market.sol\":6184:6194  positionId */\n      dup4\n        /* \"D/derivatives market.sol\":6167:6195  PositionCanceled(positionId) */\n      0xa8320c917d7a08141ede4cd3ad22cbe7c054020e2ba52777200aced113783f05\n      mload(0x40)\n      mload(0x40)\n      dup1\n      swap2\n      sub\n      swap1\n      log2\n        /* \"D/derivatives market.sol\":5614:6202  {... */\n      pop\n      pop\n      pop\n        /* \"@openzeppelin/contracts/security/ReentrancyGuard.sol\":2303:2323  _nonReentrantAfter() */\n      tag_176\n        /* \"@openzeppelin/contracts/security/ReentrancyGuard.sol\":2303:2321  _nonReentrantAfter */\n      tag_110\n        /* \"@openzeppelin/contracts/security/ReentrancyGuard.sol\":2303:2323  _nonReentrantAfter() */\n      jump\t// in\n    tag_176:\n        /* \"D/derivatives market.sol\":5548:6202  function cancelPosition(uint256 positionId) external nonReentrant {... */\n      pop\n      jump\t// out\n        /* \"D/derivatives market.sol\":6381:6507  function getPosition(uint256 positionId) external view returns (Position memory) {... */\n    tag_67:\n        /* \"D/derivatives market.sol\":6445:6460  Position memory */\n      tag_177\n      tag_178\n      jump\t// in\n    tag_177:\n        /* \"D/derivatives market.sol\":6479:6488  positions */\n      0x03\n        /* \"D/derivatives market.sol\":6479:6500  positions[positionId] */\n      0x00\n        /* \"D/derivatives market.sol\":6489:6499  positionId */\n      dup4\n        /* \"D/derivatives market.sol\":6479:6500  positions[positionId] */\n      dup2\n      mstore\n      0x20\n      add\n      swap1\n      dup2\n      mstore\n      0x20\n      add\n      0x00\n      keccak256\n        /* \"D/derivatives market.sol\":6472:6500  return positions[positionId] */\n      mload(0x40)\n      dup1\n      0x0100\n      add\n      0x40\n      mstore\n      swap1\n      dup2\n      0x00\n      dup3\n      add\n      sload\n      dup2\n      mstore\n      0x20\n      add\n      0x01\n      dup3\n      add\n      0x00\n      swap1\n      sload\n      swap1\n      0x0100\n      exp\n      swap1\n      div\n      0xff\n      and\n      0x02\n      dup2\n      gt\n      iszero\n      tag_180\n      jumpi\n      tag_181\n      tag_145\n      jump\t// in\n    tag_181:\n    tag_180:\n      0x02\n      dup2\n      gt\n      iszero\n      tag_182\n      jumpi\n      tag_183\n      tag_145\n      jump\t// in\n    tag_183:\n    tag_182:\n      dup2\n      mstore\n      0x20\n      add\n      0x01\n      dup3\n      add\n      0x01\n      swap1\n      sload\n      swap1\n      0x0100\n      exp\n      swap1\n      div\n      0xffffffffffffffffffffffffffffffffffffffff\n      and\n      0xffffffffffffffffffffffffffffffffffffffff\n      and\n      0xffffffffffffffffffffffffffffffffffffffff\n      and\n      dup2\n      mstore\n      0x20\n      add\n      0x02\n      dup3\n      add\n      0x00\n      swap1\n      sload\n      swap1\n      0x0100\n      exp\n      swap1\n      div\n      0xffffffffffffffffffffffffffffffffffffffff\n      and\n      0xffffffffffffffffffffffffffffffffffffffff\n      and\n      0xffffffffffffffffffffffffffffffffffffffff\n      and\n      dup2\n      mstore\n      0x20\n      add\n      0x03\n      dup3\n      add\n      sload\n      dup2\n      mstore\n      0x20\n      add\n      0x04\n      dup3\n      add\n      sload\n      dup2\n      mstore\n      0x20\n      add\n      0x05\n      dup3\n      add\n      0x00\n      swap1\n      sload\n      swap1\n      0x0100\n      exp\n      swap1\n      div\n      0xff\n      and\n      iszero\n      iszero\n      iszero\n      iszero\n      dup2\n      mstore\n      0x20\n      add\n      0x05\n      dup3\n      add\n      0x01\n      swap1\n      sload\n      swap1\n      0x0100\n      exp\n      swap1\n      div\n      0xff\n      and\n      iszero\n      iszero\n      iszero\n      iszero\n      dup2\n      mstore\n      pop\n      pop\n      swap1\n      pop\n        /* \"D/derivatives market.sol\":6381:6507  function getPosition(uint256 positionId) external view returns (Position memory) {... */\n      swap2\n      swap1\n      pop\n      jump\t// out\n        /* \"@openzeppelin/contracts/access/Ownable.sol\":2543:2758  function transferOwnership(address newOwner) public virtual onlyOwner {... */\n    tag_74:\n        /* \"@openzeppelin/contracts/access/Ownable.sol\":1531:1544  _checkOwner() */\n      tag_185\n        /* \"@openzeppelin/contracts/access/Ownable.sol\":1531:1542  _checkOwner */\n      tag_84\n        /* \"@openzeppelin/contracts/access/Ownable.sol\":1531:1544  _checkOwner() */\n      jump\t// in\n    tag_185:\n        /* \"@openzeppelin/contracts/access/Ownable.sol\":2647:2648  0 */\n      0x00\n        /* \"@openzeppelin/contracts/access/Ownable.sol\":2627:2649  newOwner == address(0) */\n      0xffffffffffffffffffffffffffffffffffffffff\n      and\n        /* \"@openzeppelin/contracts/access/Ownable.sol\":2627:2635  newOwner */\n      dup2\n        /* \"@openzeppelin/contracts/access/Ownable.sol\":2627:2649  newOwner == address(0) */\n      0xffffffffffffffffffffffffffffffffffffffff\n      and\n      sub\n        /* \"@openzeppelin/contracts/access/Ownable.sol\":2623:2714  if (newOwner == address(0)) {... */\n      tag_187\n      jumpi\n        /* \"@openzeppelin/contracts/access/Ownable.sol\":2700:2701  0 */\n      0x00\n        /* \"@openzeppelin/contracts/access/Ownable.sol\":2672:2703  OwnableInvalidOwner(address(0)) */\n      mload(0x40)\n      0x1e4fbdf700000000000000000000000000000000000000000000000000000000\n      dup2\n      mstore\n      0x04\n      add\n      tag_188\n      swap2\n      swap1\n      tag_53\n      jump\t// in\n    tag_188:\n      mload(0x40)\n      dup1\n      swap2\n      sub\n      swap1\n      revert\n        /* \"@openzeppelin/contracts/access/Ownable.sol\":2623:2714  if (newOwner == address(0)) {... */\n    tag_187:\n        /* \"@openzeppelin/contracts/access/Ownable.sol\":2723:2751  _transferOwnership(newOwner) */\n      tag_189\n        /* \"@openzeppelin/contracts/access/Ownable.sol\":2742:2750  newOwner */\n      dup2\n        /* \"@openzeppelin/contracts/access/Ownable.sol\":2723:2741  _transferOwnership */\n      tag_155\n        /* \"@openzeppelin/contracts/access/Ownable.sol\":2723:2751  _transferOwnership(newOwner) */\n      jump\t// in\n    tag_189:\n        /* \"@openzeppelin/contracts/access/Ownable.sol\":2543:2758  function transferOwnership(address newOwner) public virtual onlyOwner {... */\n      pop\n      jump\t// out\n        /* \"D/derivatives market.sol\":7038:7134  function totalPositions() external view returns (uint256) {... */\n    tag_77:\n        /* \"D/derivatives market.sol\":7087:7094  uint256 */\n      0x00\n        /* \"D/derivatives market.sol\":7113:7127  nextPositionId */\n      sload(0x02)\n        /* \"D/derivatives market.sol\":7106:7127  return nextPositionId */\n      swap1\n      pop\n        /* \"D/derivatives market.sol\":7038:7134  function totalPositions() external view returns (uint256) {... */\n      swap1\n      jump\t// out\n        /* \"@openzeppelin/contracts/security/ReentrancyGuard.sol\":2336:2623  function _nonReentrantBefore() private {... */\n    tag_81:\n        /* \"@openzeppelin/contracts/security/ReentrancyGuard.sol\":1759:1760  2 */\n      0x02\n        /* \"@openzeppelin/contracts/security/ReentrancyGuard.sol\":2468:2475  _status */\n      sload(0x01)\n        /* \"@openzeppelin/contracts/security/ReentrancyGuard.sol\":2468:2487  _status != _ENTERED */\n      sub\n        /* \"@openzeppelin/contracts/security/ReentrancyGuard.sol\":2460:2523  require(_status != _ENTERED, \"ReentrancyGuard: reentrant call\") */\n      tag_192\n      jumpi\n      mload(0x40)\n      0x08c379a000000000000000000000000000000000000000000000000000000000\n      dup2\n      mstore\n      0x04\n      add\n      tag_193\n      swap1\n      tag_194\n      jump\t// in\n    tag_193:\n      mload(0x40)\n      dup1\n      swap2\n      sub\n      swap1\n      revert\n    tag_192:\n        /* \"@openzeppelin/contracts/security/ReentrancyGuard.sol\":1759:1760  2 */\n      0x02\n        /* \"@openzeppelin/contracts/security/ReentrancyGuard.sol\":2598:2605  _status */\n      0x01\n        /* \"@openzeppelin/contracts/security/ReentrancyGuard.sol\":2598:2616  _status = _ENTERED */\n      dup2\n      swap1\n      sstore\n      pop\n        /* \"@openzeppelin/contracts/security/ReentrancyGuard.sol\":2336:2623  function _nonReentrantBefore() private {... */\n      jump\t// out\n        /* \"@openzeppelin/contracts/access/Ownable.sol\":1796:1958  function _checkOwner() internal view virtual {... */\n    tag_84:\n        /* \"@openzeppelin/contracts/access/Ownable.sol\":1866:1878  _msgSender() */\n      tag_196\n        /* \"@openzeppelin/contracts/access/Ownable.sol\":1866:1876  _msgSender */\n      tag_197\n        /* \"@openzeppelin/contracts/access/Ownable.sol\":1866:1878  _msgSender() */\n      jump\t// in\n    tag_196:\n        /* \"@openzeppelin/contracts/access/Ownable.sol\":1855:1878  owner() != _msgSender() */\n      0xffffffffffffffffffffffffffffffffffffffff\n      and\n        /* \"@openzeppelin/contracts/access/Ownable.sol\":1855:1862  owner() */\n      tag_198\n        /* \"@openzeppelin/contracts/access/Ownable.sol\":1855:1860  owner */\n      tag_51\n        /* \"@openzeppelin/contracts/access/Ownable.sol\":1855:1862  owner() */\n      jump\t// in\n    tag_198:\n        /* \"@openzeppelin/contracts/access/Ownable.sol\":1855:1878  owner() != _msgSender() */\n      0xffffffffffffffffffffffffffffffffffffffff\n      and\n      eq\n        /* \"@openzeppelin/contracts/access/Ownable.sol\":1851:1952  if (owner() != _msgSender()) {... */\n      tag_199\n      jumpi\n        /* \"@openzeppelin/contracts/access/Ownable.sol\":1928:1940  _msgSender() */\n      tag_200\n        /* \"@openzeppelin/contracts/access/Ownable.sol\":1928:1938  _msgSender */\n      tag_197\n        /* \"@openzeppelin/contracts/access/Ownable.sol\":1928:1940  _msgSender() */\n      jump\t// in\n    tag_200:\n        /* \"@openzeppelin/contracts/access/Ownable.sol\":1901:1941  OwnableUnauthorizedAccount(_msgSender()) */\n      mload(0x40)\n      0x118cdaa700000000000000000000000000000000000000000000000000000000\n      dup2\n      mstore\n      0x04\n      add\n      tag_201\n      swap2\n      swap1\n      tag_53\n      jump\t// in\n    tag_201:\n      mload(0x40)\n      dup1\n      swap2\n      sub\n      swap1\n      revert\n        /* \"@openzeppelin/contracts/access/Ownable.sol\":1851:1952  if (owner() != _msgSender()) {... */\n    tag_199:\n        /* \"@openzeppelin/contracts/access/Ownable.sol\":1796:1958  function _checkOwner() internal view virtual {... */\n      jump\t// out\n        /* \"@openzeppelin/contracts/security/ReentrancyGuard.sol\":2629:2838  function _nonReentrantAfter() private {... */\n    tag_110:\n        /* \"@openzeppelin/contracts/security/ReentrancyGuard.sol\":1716:1717  1 */\n      0x01\n        /* \"@openzeppelin/contracts/security/ReentrancyGuard.sol\":2809:2816  _status */\n      dup1\n        /* \"@openzeppelin/contracts/security/ReentrancyGuard.sol\":2809:2831  _status = _NOT_ENTERED */\n      dup2\n      swap1\n      sstore\n      pop\n        /* \"@openzeppelin/contracts/security/ReentrancyGuard.sol\":2629:2838  function _nonReentrantAfter() private {... */\n      jump\t// out\n        /* \"@openzeppelin/contracts/access/Ownable.sol\":2912:3099  function _transferOwnership(address newOwner) internal virtual {... */\n    tag_155:\n        /* \"@openzeppelin/contracts/access/Ownable.sol\":2985:3001  address oldOwner */\n      0x00\n        /* \"@openzeppelin/contracts/access/Ownable.sol\":3004:3010  _owner */\n      dup1\n      0x00\n      swap1\n      sload\n      swap1\n      0x0100\n      exp\n      swap1\n      div\n      0xffffffffffffffffffffffffffffffffffffffff\n      and\n        /* \"@openzeppelin/contracts/access/Ownable.sol\":2985:3010  address oldOwner = _owner */\n      swap1\n      pop\n        /* \"@openzeppelin/contracts/access/Ownable.sol\":3029:3037  newOwner */\n      dup2\n        /* \"@openzeppelin/contracts/access/Ownable.sol\":3020:3026  _owner */\n      0x00\n      dup1\n        /* \"@openzeppelin/contracts/access/Ownable.sol\":3020:3037  _owner = newOwner */\n      0x0100\n      exp\n      dup2\n      sload\n      dup2\n      0xffffffffffffffffffffffffffffffffffffffff\n      mul\n      not\n      and\n      swap1\n      dup4\n      0xffffffffffffffffffffffffffffffffffffffff\n      and\n      mul\n      or\n      swap1\n      sstore\n      pop\n        /* \"@openzeppelin/contracts/access/Ownable.sol\":3083:3091  newOwner */\n      dup2\n        /* \"@openzeppelin/contracts/access/Ownable.sol\":3052:3092  OwnershipTransferred(oldOwner, newOwner) */\n      0xffffffffffffffffffffffffffffffffffffffff\n      and\n        /* \"@openzeppelin/contracts/access/Ownable.sol\":3073:3081  oldOwner */\n      dup2\n        /* \"@openzeppelin/contracts/access/Ownable.sol\":3052:3092  OwnershipTransferred(oldOwner, newOwner) */\n      0xffffffffffffffffffffffffffffffffffffffff\n      and\n      0x8be0079c531659141344cd1fd0a4f28419497f9722a3daafe3b4186f6b6457e0\n      mload(0x40)\n      mload(0x40)\n      dup1\n      swap2\n      sub\n      swap1\n      log3\n        /* \"@openzeppelin/contracts/access/Ownable.sol\":2975:3099  {... */\n      pop\n        /* \"@openzeppelin/contracts/access/Ownable.sol\":2912:3099  function _transferOwnership(address newOwner) internal virtual {... */\n      pop\n      jump\t// out\n        /* \"@openzeppelin/contracts/utils/Context.sol\":656:752  function _msgSender() internal view virtual returns (address) {... */\n    tag_197:\n        /* \"@openzeppelin/contracts/utils/Context.sol\":709:716  address */\n      0x00\n        /* \"@openzeppelin/contracts/utils/Context.sol\":735:745  msg.sender */\n      caller\n        /* \"@openzeppelin/contracts/utils/Context.sol\":728:745  return msg.sender */\n      swap1\n      pop\n        /* \"@openzeppelin/contracts/utils/Context.sol\":656:752  function _msgSender() internal view virtual returns (address) {... */\n      swap1\n      jump\t// out\n    tag_178:\n      mload(0x40)\n      dup1\n      0x0100\n      add\n      0x40\n      mstore\n      dup1\n      0x00\n      dup2\n      mstore\n      0x20\n      add\n      0x00\n      0x02\n      dup2\n      gt\n      iszero\n      tag_205\n      jumpi\n      tag_206\n      tag_145\n      jump\t// in\n    tag_206:\n    tag_205:\n      dup2\n      mstore\n      0x20\n      add\n      and(0xffffffffffffffffffffffffffffffffffffffff, 0x00)\n      dup2\n      mstore\n      0x20\n      add\n      and(0xffffffffffffffffffffffffffffffffffffffff, 0x00)\n      dup2\n      mstore\n      0x20\n      add\n      0x00\n      dup2\n      mstore\n      0x20\n      add\n      0x00\n      dup2\n      mstore\n      0x20\n      add\n      iszero(iszero(0x00))\n      dup2\n      mstore\n      0x20\n      add\n      iszero(iszero(0x00))\n      dup2\n      mstore\n      pop\n      swap1\n      jump\t// out\n        /* \"#utility.yul\":88:205   */\n    tag_208:\n        /* \"#utility.yul\":197:198   */\n      0x00\n        /* \"#utility.yul\":194:195   */\n      dup1\n        /* \"#utility.yul\":187:199   */\n      revert\n        /* \"#utility.yul\":334:411   */\n    tag_210:\n        /* \"#utility.yul\":371:378   */\n      0x00\n        /* \"#utility.yul\":400:405   */\n      dup2\n        /* \"#utility.yul\":389:405   */\n      swap1\n      pop\n        /* \"#utility.yul\":334:411   */\n      swap2\n      swap1\n      pop\n      jump\t// out\n        /* \"#utility.yul\":417:539   */\n    tag_211:\n        /* \"#utility.yul\":490:514   */\n      tag_271\n        /* \"#utility.yul\":508:513   */\n      dup2\n        /* \"#utility.yul\":490:514   */\n      tag_210\n      jump\t// in\n    tag_271:\n        /* \"#utility.yul\":483:488   */\n      dup2\n        /* \"#utility.yul\":480:515   */\n      eq\n        /* \"#utility.yul\":470:533   */\n      tag_272\n      jumpi\n        /* \"#utility.yul\":529:530   */\n      0x00\n        /* \"#utility.yul\":526:527   */\n      dup1\n        /* \"#utility.yul\":519:531   */\n      revert\n        /* \"#utility.yul\":470:533   */\n    tag_272:\n        /* \"#utility.yul\":417:539   */\n      pop\n      jump\t// out\n        /* \"#utility.yul\":545:684   */\n    tag_212:\n        /* \"#utility.yul\":591:596   */\n      0x00\n        /* \"#utility.yul\":629:635   */\n      dup2\n        /* \"#utility.yul\":616:636   */\n      calldataload\n        /* \"#utility.yul\":607:636   */\n      swap1\n      pop\n        /* \"#utility.yul\":645:678   */\n      tag_274\n        /* \"#utility.yul\":672:677   */\n      dup2\n        /* \"#utility.yul\":645:678   */\n      tag_211\n      jump\t// in\n    tag_274:\n        /* \"#utility.yul\":545:684   */\n      swap3\n      swap2\n      pop\n      pop\n      jump\t// out\n        /* \"#utility.yul\":690:816   */\n    tag_213:\n        /* \"#utility.yul\":727:734   */\n      0x00\n        /* \"#utility.yul\":767:809   */\n      0xffffffffffffffffffffffffffffffffffffffff\n        /* \"#utility.yul\":760:765   */\n      dup3\n        /* \"#utility.yul\":756:810   */\n      and\n        /* \"#utility.yul\":745:810   */\n      swap1\n      pop\n        /* \"#utility.yul\":690:816   */\n      swap2\n      swap1\n      pop\n      jump\t// out\n        /* \"#utility.yul\":822:918   */\n    tag_214:\n        /* \"#utility.yul\":859:866   */\n      0x00\n        /* \"#utility.yul\":888:912   */\n      tag_277\n        /* \"#utility.yul\":906:911   */\n      dup3\n        /* \"#utility.yul\":888:912   */\n      tag_213\n      jump\t// in\n    tag_277:\n        /* \"#utility.yul\":877:912   */\n      swap1\n      pop\n        /* \"#utility.yul\":822:918   */\n      swap2\n      swap1\n      pop\n      jump\t// out\n        /* \"#utility.yul\":924:1046   */\n    tag_215:\n        /* \"#utility.yul\":997:1021   */\n      tag_279\n        /* \"#utility.yul\":1015:1020   */\n      dup2\n        /* \"#utility.yul\":997:1021   */\n      tag_214\n      jump\t// in\n    tag_279:\n        /* \"#utility.yul\":990:995   */\n      dup2\n        /* \"#utility.yul\":987:1022   */\n      eq\n        /* \"#utility.yul\":977:1040   */\n      tag_280\n      jumpi\n        /* \"#utility.yul\":1036:1037   */\n      0x00\n        /* \"#utility.yul\":1033:1034   */\n      dup1\n        /* \"#utility.yul\":1026:1038   */\n      revert\n        /* \"#utility.yul\":977:1040   */\n    tag_280:\n        /* \"#utility.yul\":924:1046   */\n      pop\n      jump\t// out\n        /* \"#utility.yul\":1052:1191   */\n    tag_216:\n        /* \"#utility.yul\":1098:1103   */\n      0x00\n        /* \"#utility.yul\":1136:1142   */\n      dup2\n        /* \"#utility.yul\":1123:1143   */\n      calldataload\n        /* \"#utility.yul\":1114:1143   */\n      swap1\n      pop\n        /* \"#utility.yul\":1152:1185   */\n      tag_282\n        /* \"#utility.yul\":1179:1184   */\n      dup2\n        /* \"#utility.yul\":1152:1185   */\n      tag_215\n      jump\t// in\n    tag_282:\n        /* \"#utility.yul\":1052:1191   */\n      swap3\n      swap2\n      pop\n      pop\n      jump\t// out\n        /* \"#utility.yul\":1197:1671   */\n    tag_20:\n        /* \"#utility.yul\":1265:1271   */\n      0x00\n        /* \"#utility.yul\":1273:1279   */\n      dup1\n        /* \"#utility.yul\":1322:1324   */\n      0x40\n        /* \"#utility.yul\":1310:1319   */\n      dup4\n        /* \"#utility.yul\":1301:1308   */\n      dup6\n        /* \"#utility.yul\":1297:1320   */\n      sub\n        /* \"#utility.yul\":1293:1325   */\n      slt\n        /* \"#utility.yul\":1290:1409   */\n      iszero\n      tag_284\n      jumpi\n        /* \"#utility.yul\":1328:1407   */\n      tag_285\n      tag_208\n      jump\t// in\n    tag_285:\n        /* \"#utility.yul\":1290:1409   */\n    tag_284:\n        /* \"#utility.yul\":1448:1449   */\n      0x00\n        /* \"#utility.yul\":1473:1526   */\n      tag_286\n        /* \"#utility.yul\":1518:1525   */\n      dup6\n        /* \"#utility.yul\":1509:1515   */\n      dup3\n        /* \"#utility.yul\":1498:1507   */\n      dup7\n        /* \"#utility.yul\":1494:1516   */\n      add\n        /* \"#utility.yul\":1473:1526   */\n      tag_212\n      jump\t// in\n    tag_286:\n        /* \"#utility.yul\":1463:1526   */\n      swap3\n      pop\n        /* \"#utility.yul\":1419:1536   */\n      pop\n        /* \"#utility.yul\":1575:1577   */\n      0x20\n        /* \"#utility.yul\":1601:1654   */\n      tag_287\n        /* \"#utility.yul\":1646:1653   */\n      dup6\n        /* \"#utility.yul\":1637:1643   */\n      dup3\n        /* \"#utility.yul\":1626:1635   */\n      dup7\n        /* \"#utility.yul\":1622:1644   */\n      add\n        /* \"#utility.yul\":1601:1654   */\n      tag_216\n      jump\t// in\n    tag_287:\n        /* \"#utility.yul\":1591:1654   */\n      swap2\n      pop\n        /* \"#utility.yul\":1546:1664   */\n      pop\n        /* \"#utility.yul\":1197:1671   */\n      swap3\n      pop\n      swap3\n      swap1\n      pop\n      jump\t// out\n        /* \"#utility.yul\":1677:1795   */\n    tag_217:\n        /* \"#utility.yul\":1764:1788   */\n      tag_289\n        /* \"#utility.yul\":1782:1787   */\n      dup2\n        /* \"#utility.yul\":1764:1788   */\n      tag_210\n      jump\t// in\n    tag_289:\n        /* \"#utility.yul\":1759:1762   */\n      dup3\n        /* \"#utility.yul\":1752:1789   */\n      mstore\n        /* \"#utility.yul\":1677:1795   */\n      pop\n      pop\n      jump\t// out\n        /* \"#utility.yul\":1801:2023   */\n    tag_27:\n        /* \"#utility.yul\":1894:1898   */\n      0x00\n        /* \"#utility.yul\":1932:1934   */\n      0x20\n        /* \"#utility.yul\":1921:1930   */\n      dup3\n        /* \"#utility.yul\":1917:1935   */\n      add\n        /* \"#utility.yul\":1909:1935   */\n      swap1\n      pop\n        /* \"#utility.yul\":1945:2016   */\n      tag_291\n        /* \"#utility.yul\":2013:2014   */\n      0x00\n        /* \"#utility.yul\":2002:2011   */\n      dup4\n        /* \"#utility.yul\":1998:2015   */\n      add\n        /* \"#utility.yul\":1989:1995   */\n      dup5\n        /* \"#utility.yul\":1945:2016   */\n      tag_217\n      jump\t// in\n    tag_291:\n        /* \"#utility.yul\":1801:2023   */\n      swap3\n      swap2\n      pop\n      pop\n      jump\t// out\n        /* \"#utility.yul\":2029:2358   */\n    tag_30:\n        /* \"#utility.yul\":2088:2094   */\n      0x00\n        /* \"#utility.yul\":2137:2139   */\n      0x20\n        /* \"#utility.yul\":2125:2134   */\n      dup3\n        /* \"#utility.yul\":2116:2123   */\n      dup5\n        /* \"#utility.yul\":2112:2135   */\n      sub\n        /* \"#utility.yul\":2108:2140   */\n      slt\n        /* \"#utility.yul\":2105:2224   */\n      iszero\n      tag_293\n      jumpi\n        /* \"#utility.yul\":2143:2222   */\n      tag_294\n      tag_208\n      jump\t// in\n    tag_294:\n        /* \"#utility.yul\":2105:2224   */\n    tag_293:\n        /* \"#utility.yul\":2263:2264   */\n      0x00\n        /* \"#utility.yul\":2288:2341   */\n      tag_295\n        /* \"#utility.yul\":2333:2340   */\n      dup5\n        /* \"#utility.yul\":2324:2330   */\n      dup3\n        /* \"#utility.yul\":2313:2322   */\n      dup6\n        /* \"#utility.yul\":2309:2331   */\n      add\n        /* \"#utility.yul\":2288:2341   */\n      tag_212\n      jump\t// in\n    tag_295:\n        /* \"#utility.yul\":2278:2341   */\n      swap2\n      pop\n        /* \"#utility.yul\":2234:2351   */\n      pop\n        /* \"#utility.yul\":2029:2358   */\n      swap3\n      swap2\n      pop\n      pop\n      jump\t// out\n        /* \"#utility.yul\":2364:2481   */\n    tag_218:\n        /* \"#utility.yul\":2455:2456   */\n      0x03\n        /* \"#utility.yul\":2448:2453   */\n      dup2\n        /* \"#utility.yul\":2445:2457   */\n      lt\n        /* \"#utility.yul\":2435:2475   */\n      tag_297\n      jumpi\n        /* \"#utility.yul\":2471:2472   */\n      0x00\n        /* \"#utility.yul\":2468:2469   */\n      dup1\n        /* \"#utility.yul\":2461:2473   */\n      revert\n        /* \"#utility.yul\":2435:2475   */\n    tag_297:\n        /* \"#utility.yul\":2364:2481   */\n      pop\n      jump\t// out\n        /* \"#utility.yul\":2487:2662   */\n    tag_219:\n        /* \"#utility.yul\":2551:2556   */\n      0x00\n        /* \"#utility.yul\":2589:2595   */\n      dup2\n        /* \"#utility.yul\":2576:2596   */\n      calldataload\n        /* \"#utility.yul\":2567:2596   */\n      swap1\n      pop\n        /* \"#utility.yul\":2605:2656   */\n      tag_299\n        /* \"#utility.yul\":2650:2655   */\n      dup2\n        /* \"#utility.yul\":2605:2656   */\n      tag_218\n      jump\t// in\n    tag_299:\n        /* \"#utility.yul\":2487:2662   */\n      swap3\n      swap2\n      pop\n      pop\n      jump\t// out\n        /* \"#utility.yul\":2668:3323   */\n    tag_34:\n        /* \"#utility.yul\":2763:2769   */\n      0x00\n        /* \"#utility.yul\":2771:2777   */\n      dup1\n        /* \"#utility.yul\":2779:2785   */\n      0x00\n        /* \"#utility.yul\":2828:2830   */\n      0x60\n        /* \"#utility.yul\":2816:2825   */\n      dup5\n        /* \"#utility.yul\":2807:2814   */\n      dup7\n        /* \"#utility.yul\":2803:2826   */\n      sub\n        /* \"#utility.yul\":2799:2831   */\n      slt\n        /* \"#utility.yul\":2796:2915   */\n      iszero\n      tag_301\n      jumpi\n        /* \"#utility.yul\":2834:2913   */\n      tag_302\n      tag_208\n      jump\t// in\n    tag_302:\n        /* \"#utility.yul\":2796:2915   */\n    tag_301:\n        /* \"#utility.yul\":2954:2955   */\n      0x00\n        /* \"#utility.yul\":2979:3050   */\n      tag_303\n        /* \"#utility.yul\":3042:3049   */\n      dup7\n        /* \"#utility.yul\":3033:3039   */\n      dup3\n        /* \"#utility.yul\":3022:3031   */\n      dup8\n        /* \"#utility.yul\":3018:3040   */\n      add\n        /* \"#utility.yul\":2979:3050   */\n      tag_219\n      jump\t// in\n    tag_303:\n        /* \"#utility.yul\":2969:3050   */\n      swap4\n      pop\n        /* \"#utility.yul\":2925:3060   */\n      pop\n        /* \"#utility.yul\":3099:3101   */\n      0x20\n        /* \"#utility.yul\":3125:3178   */\n      tag_304\n        /* \"#utility.yul\":3170:3177   */\n      dup7\n        /* \"#utility.yul\":3161:3167   */\n      dup3\n        /* \"#utility.yul\":3150:3159   */\n      dup8\n        /* \"#utility.yul\":3146:3168   */\n      add\n        /* \"#utility.yul\":3125:3178   */\n      tag_212\n      jump\t// in\n    tag_304:\n        /* \"#utility.yul\":3115:3178   */\n      swap3\n      pop\n        /* \"#utility.yul\":3070:3188   */\n      pop\n        /* \"#utility.yul\":3227:3229   */\n      0x40\n        /* \"#utility.yul\":3253:3306   */\n      tag_305\n        /* \"#utility.yul\":3298:3305   */\n      dup7\n        /* \"#utility.yul\":3289:3295   */\n      dup3\n        /* \"#utility.yul\":3278:3287   */\n      dup8\n        /* \"#utility.yul\":3274:3296   */\n      add\n        /* \"#utility.yul\":3253:3306   */\n      tag_212\n      jump\t// in\n    tag_305:\n        /* \"#utility.yul\":3243:3306   */\n      swap2\n      pop\n        /* \"#utility.yul\":3198:3316   */\n      pop\n        /* \"#utility.yul\":2668:3323   */\n      swap3\n      pop\n      swap3\n      pop\n      swap3\n      jump\t// out\n        /* \"#utility.yul\":3329:3447   */\n    tag_220:\n        /* \"#utility.yul\":3416:3440   */\n      tag_307\n        /* \"#utility.yul\":3434:3439   */\n      dup2\n        /* \"#utility.yul\":3416:3440   */\n      tag_214\n      jump\t// in\n    tag_307:\n        /* \"#utility.yul\":3411:3414   */\n      dup3\n        /* \"#utility.yul\":3404:3441   */\n      mstore\n        /* \"#utility.yul\":3329:3447   */\n      pop\n      pop\n      jump\t// out\n        /* \"#utility.yul\":3453:3675   */\n    tag_53:\n        /* \"#utility.yul\":3546:3550   */\n      0x00\n        /* \"#utility.yul\":3584:3586   */\n      0x20\n        /* \"#utility.yul\":3573:3582   */\n      dup3\n        /* \"#utility.yul\":3569:3587   */\n      add\n        /* \"#utility.yul\":3561:3587   */\n      swap1\n      pop\n        /* \"#utility.yul\":3597:3668   */\n      tag_309\n        /* \"#utility.yul\":3665:3666   */\n      0x00\n        /* \"#utility.yul\":3654:3663   */\n      dup4\n        /* \"#utility.yul\":3650:3667   */\n      add\n        /* \"#utility.yul\":3641:3647   */\n      dup5\n        /* \"#utility.yul\":3597:3668   */\n      tag_220\n      jump\t// in\n    tag_309:\n        /* \"#utility.yul\":3453:3675   */\n      swap3\n      swap2\n      pop\n      pop\n      jump\t// out\n        /* \"#utility.yul\":3681:3861   */\n    tag_145:\n        /* \"#utility.yul\":3729:3806   */\n      0x4e487b7100000000000000000000000000000000000000000000000000000000\n        /* \"#utility.yul\":3726:3727   */\n      0x00\n        /* \"#utility.yul\":3719:3807   */\n      mstore\n        /* \"#utility.yul\":3826:3830   */\n      0x21\n        /* \"#utility.yul\":3823:3824   */\n      0x04\n        /* \"#utility.yul\":3816:3831   */\n      mstore\n        /* \"#utility.yul\":3850:3854   */\n      0x24\n        /* \"#utility.yul\":3847:3848   */\n      0x00\n        /* \"#utility.yul\":3840:3855   */\n      revert\n        /* \"#utility.yul\":3867:3990   */\n    tag_221:\n        /* \"#utility.yul\":3958:3959   */\n      0x03\n        /* \"#utility.yul\":3951:3956   */\n      dup2\n        /* \"#utility.yul\":3948:3960   */\n      lt\n        /* \"#utility.yul\":3938:3984   */\n      tag_312\n      jumpi\n        /* \"#utility.yul\":3964:3982   */\n      tag_313\n      tag_145\n      jump\t// in\n    tag_313:\n        /* \"#utility.yul\":3938:3984   */\n    tag_312:\n        /* \"#utility.yul\":3867:3990   */\n      pop\n      jump\t// out\n        /* \"#utility.yul\":3996:4143   */\n    tag_222:\n        /* \"#utility.yul\":4051:4058   */\n      0x00\n        /* \"#utility.yul\":4080:4085   */\n      dup2\n        /* \"#utility.yul\":4069:4085   */\n      swap1\n      pop\n        /* \"#utility.yul\":4086:4137   */\n      tag_315\n        /* \"#utility.yul\":4131:4136   */\n      dup3\n        /* \"#utility.yul\":4086:4137   */\n      tag_221\n      jump\t// in\n    tag_315:\n        /* \"#utility.yul\":3996:4143   */\n      swap2\n      swap1\n      pop\n      jump\t// out\n        /* \"#utility.yul\":4149:4296   */\n    tag_223:\n        /* \"#utility.yul\":4215:4224   */\n      0x00\n        /* \"#utility.yul\":4248:4290   */\n      tag_317\n        /* \"#utility.yul\":4284:4289   */\n      dup3\n        /* \"#utility.yul\":4248:4290   */\n      tag_222\n      jump\t// in\n    tag_317:\n        /* \"#utility.yul\":4235:4290   */\n      swap1\n      pop\n        /* \"#utility.yul\":4149:4296   */\n      swap2\n      swap1\n      pop\n      jump\t// out\n        /* \"#utility.yul\":4302:4465   */\n    tag_224:\n        /* \"#utility.yul\":4405:4458   */\n      tag_319\n        /* \"#utility.yul\":4452:4457   */\n      dup2\n        /* \"#utility.yul\":4405:4458   */\n      tag_223\n      jump\t// in\n    tag_319:\n        /* \"#utility.yul\":4400:4403   */\n      dup3\n        /* \"#utility.yul\":4393:4459   */\n      mstore\n        /* \"#utility.yul\":4302:4465   */\n      pop\n      pop\n      jump\t// out\n        /* \"#utility.yul\":4471:4561   */\n    tag_225:\n        /* \"#utility.yul\":4505:4512   */\n      0x00\n        /* \"#utility.yul\":4548:4553   */\n      dup2\n        /* \"#utility.yul\":4541:4554   */\n      iszero\n        /* \"#utility.yul\":4534:4555   */\n      iszero\n        /* \"#utility.yul\":4523:4555   */\n      swap1\n      pop\n        /* \"#utility.yul\":4471:4561   */\n      swap2\n      swap1\n      pop\n      jump\t// out\n        /* \"#utility.yul\":4567:4676   */\n    tag_226:\n        /* \"#utility.yul\":4648:4669   */\n      tag_322\n        /* \"#utility.yul\":4663:4668   */\n      dup2\n        /* \"#utility.yul\":4648:4669   */\n      tag_225\n      jump\t// in\n    tag_322:\n        /* \"#utility.yul\":4643:4646   */\n      dup3\n        /* \"#utility.yul\":4636:4670   */\n      mstore\n        /* \"#utility.yul\":4567:4676   */\n      pop\n      pop\n      jump\t// out\n        /* \"#utility.yul\":4682:5687   */\n    tag_59:\n        /* \"#utility.yul\":4975:4979   */\n      0x00\n        /* \"#utility.yul\":5013:5016   */\n      0x0100\n        /* \"#utility.yul\":5002:5011   */\n      dup3\n        /* \"#utility.yul\":4998:5017   */\n      add\n        /* \"#utility.yul\":4990:5017   */\n      swap1\n      pop\n        /* \"#utility.yul\":5027:5098   */\n      tag_324\n        /* \"#utility.yul\":5095:5096   */\n      0x00\n        /* \"#utility.yul\":5084:5093   */\n      dup4\n        /* \"#utility.yul\":5080:5097   */\n      add\n        /* \"#utility.yul\":5071:5077   */\n      dup12\n        /* \"#utility.yul\":5027:5098   */\n      tag_217\n      jump\t// in\n    tag_324:\n        /* \"#utility.yul\":5108:5196   */\n      tag_325\n        /* \"#utility.yul\":5192:5194   */\n      0x20\n        /* \"#utility.yul\":5181:5190   */\n      dup4\n        /* \"#utility.yul\":5177:5195   */\n      add\n        /* \"#utility.yul\":5168:5174   */\n      dup11\n        /* \"#utility.yul\":5108:5196   */\n      tag_224\n      jump\t// in\n    tag_325:\n        /* \"#utility.yul\":5206:5278   */\n      tag_326\n        /* \"#utility.yul\":5274:5276   */\n      0x40\n        /* \"#utility.yul\":5263:5272   */\n      dup4\n        /* \"#utility.yul\":5259:5277   */\n      add\n        /* \"#utility.yul\":5250:5256   */\n      dup10\n        /* \"#utility.yul\":5206:5278   */\n      tag_220\n      jump\t// in\n    tag_326:\n        /* \"#utility.yul\":5288:5360   */\n      tag_327\n        /* \"#utility.yul\":5356:5358   */\n      0x60\n        /* \"#utility.yul\":5345:5354   */\n      dup4\n        /* \"#utility.yul\":5341:5359   */\n      add\n        /* \"#utility.yul\":5332:5338   */\n      dup9\n        /* \"#utility.yul\":5288:5360   */\n      tag_220\n      jump\t// in\n    tag_327:\n        /* \"#utility.yul\":5370:5443   */\n      tag_328\n        /* \"#utility.yul\":5438:5441   */\n      0x80\n        /* \"#utility.yul\":5427:5436   */\n      dup4\n        /* \"#utility.yul\":5423:5442   */\n      add\n        /* \"#utility.yul\":5414:5420   */\n      dup8\n        /* \"#utility.yul\":5370:5443   */\n      tag_217\n      jump\t// in\n    tag_328:\n        /* \"#utility.yul\":5453:5526   */\n      tag_329\n        /* \"#utility.yul\":5521:5524   */\n      0xa0\n        /* \"#utility.yul\":5510:5519   */\n      dup4\n        /* \"#utility.yul\":5506:5525   */\n      add\n        /* \"#utility.yul\":5497:5503   */\n      dup7\n        /* \"#utility.yul\":5453:5526   */\n      tag_217\n      jump\t// in\n    tag_329:\n        /* \"#utility.yul\":5536:5603   */\n      tag_330\n        /* \"#utility.yul\":5598:5601   */\n      0xc0\n        /* \"#utility.yul\":5587:5596   */\n      dup4\n        /* \"#utility.yul\":5583:5602   */\n      add\n        /* \"#utility.yul\":5574:5580   */\n      dup6\n        /* \"#utility.yul\":5536:5603   */\n      tag_226\n      jump\t// in\n    tag_330:\n        /* \"#utility.yul\":5613:5680   */\n      tag_331\n        /* \"#utility.yul\":5675:5678   */\n      0xe0\n        /* \"#utility.yul\":5664:5673   */\n      dup4\n        /* \"#utility.yul\":5660:5679   */\n      add\n        /* \"#utility.yul\":5651:5657   */\n      dup5\n        /* \"#utility.yul\":5613:5680   */\n      tag_226\n      jump\t// in\n    tag_331:\n        /* \"#utility.yul\":4682:5687   */\n      swap10\n      swap9\n      pop\n      pop\n      pop\n      pop\n      pop\n      pop\n      pop\n      pop\n      pop\n      jump\t// out\n        /* \"#utility.yul\":5693:5801   */\n    tag_227:\n        /* \"#utility.yul\":5770:5794   */\n      tag_333\n        /* \"#utility.yul\":5788:5793   */\n      dup2\n        /* \"#utility.yul\":5770:5794   */\n      tag_210\n      jump\t// in\n    tag_333:\n        /* \"#utility.yul\":5765:5768   */\n      dup3\n        /* \"#utility.yul\":5758:5795   */\n      mstore\n        /* \"#utility.yul\":5693:5801   */\n      pop\n      pop\n      jump\t// out\n        /* \"#utility.yul\":5807:5960   */\n    tag_228:\n        /* \"#utility.yul\":5900:5953   */\n      tag_335\n        /* \"#utility.yul\":5947:5952   */\n      dup2\n        /* \"#utility.yul\":5900:5953   */\n      tag_223\n      jump\t// in\n    tag_335:\n        /* \"#utility.yul\":5895:5898   */\n      dup3\n        /* \"#utility.yul\":5888:5954   */\n      mstore\n        /* \"#utility.yul\":5807:5960   */\n      pop\n      pop\n      jump\t// out\n        /* \"#utility.yul\":5966:6074   */\n    tag_229:\n        /* \"#utility.yul\":6043:6067   */\n      tag_337\n        /* \"#utility.yul\":6061:6066   */\n      dup2\n        /* \"#utility.yul\":6043:6067   */\n      tag_214\n      jump\t// in\n    tag_337:\n        /* \"#utility.yul\":6038:6041   */\n      dup3\n        /* \"#utility.yul\":6031:6068   */\n      mstore\n        /* \"#utility.yul\":5966:6074   */\n      pop\n      pop\n      jump\t// out\n        /* \"#utility.yul\":6080:6179   */\n    tag_230:\n        /* \"#utility.yul\":6151:6172   */\n      tag_339\n        /* \"#utility.yul\":6166:6171   */\n      dup2\n        /* \"#utility.yul\":6151:6172   */\n      tag_225\n      jump\t// in\n    tag_339:\n        /* \"#utility.yul\":6146:6149   */\n      dup3\n        /* \"#utility.yul\":6139:6173   */\n      mstore\n        /* \"#utility.yul\":6080:6179   */\n      pop\n      pop\n      jump\t// out\n        /* \"#utility.yul\":6263:7843   */\n    tag_231:\n        /* \"#utility.yul\":6410:6416   */\n      0x0100\n        /* \"#utility.yul\":6405:6408   */\n      dup3\n        /* \"#utility.yul\":6401:6417   */\n      add\n        /* \"#utility.yul\":6497:6501   */\n      0x00\n        /* \"#utility.yul\":6490:6495   */\n      dup3\n        /* \"#utility.yul\":6486:6502   */\n      add\n        /* \"#utility.yul\":6480:6503   */\n      mload\n        /* \"#utility.yul\":6516:6579   */\n      tag_341\n        /* \"#utility.yul\":6573:6577   */\n      0x00\n        /* \"#utility.yul\":6568:6571   */\n      dup6\n        /* \"#utility.yul\":6564:6578   */\n      add\n        /* \"#utility.yul\":6550:6562   */\n      dup3\n        /* \"#utility.yul\":6516:6579   */\n      tag_227\n      jump\t// in\n    tag_341:\n        /* \"#utility.yul\":6427:6589   */\n      pop\n        /* \"#utility.yul\":6672:6676   */\n      0x20\n        /* \"#utility.yul\":6665:6670   */\n      dup3\n        /* \"#utility.yul\":6661:6677   */\n      add\n        /* \"#utility.yul\":6655:6678   */\n      mload\n        /* \"#utility.yul\":6691:6770   */\n      tag_342\n        /* \"#utility.yul\":6764:6768   */\n      0x20\n        /* \"#utility.yul\":6759:6762   */\n      dup6\n        /* \"#utility.yul\":6755:6769   */\n      add\n        /* \"#utility.yul\":6741:6753   */\n      dup3\n        /* \"#utility.yul\":6691:6770   */\n      tag_228\n      jump\t// in\n    tag_342:\n        /* \"#utility.yul\":6599:6780   */\n      pop\n        /* \"#utility.yul\":6865:6869   */\n      0x40\n        /* \"#utility.yul\":6858:6863   */\n      dup3\n        /* \"#utility.yul\":6854:6870   */\n      add\n        /* \"#utility.yul\":6848:6871   */\n      mload\n        /* \"#utility.yul\":6884:6947   */\n      tag_343\n        /* \"#utility.yul\":6941:6945   */\n      0x40\n        /* \"#utility.yul\":6936:6939   */\n      dup6\n        /* \"#utility.yul\":6932:6946   */\n      add\n        /* \"#utility.yul\":6918:6930   */\n      dup3\n        /* \"#utility.yul\":6884:6947   */\n      tag_229\n      jump\t// in\n    tag_343:\n        /* \"#utility.yul\":6790:6957   */\n      pop\n        /* \"#utility.yul\":7047:7051   */\n      0x60\n        /* \"#utility.yul\":7040:7045   */\n      dup3\n        /* \"#utility.yul\":7036:7052   */\n      add\n        /* \"#utility.yul\":7030:7053   */\n      mload\n        /* \"#utility.yul\":7066:7129   */\n      tag_344\n        /* \"#utility.yul\":7123:7127   */\n      0x60\n        /* \"#utility.yul\":7118:7121   */\n      dup6\n        /* \"#utility.yul\":7114:7128   */\n      add\n        /* \"#utility.yul\":7100:7112   */\n      dup3\n        /* \"#utility.yul\":7066:7129   */\n      tag_229\n      jump\t// in\n    tag_344:\n        /* \"#utility.yul\":6967:7139   */\n      pop\n        /* \"#utility.yul\":7227:7231   */\n      0x80\n        /* \"#utility.yul\":7220:7225   */\n      dup3\n        /* \"#utility.yul\":7216:7232   */\n      add\n        /* \"#utility.yul\":7210:7233   */\n      mload\n        /* \"#utility.yul\":7246:7309   */\n      tag_345\n        /* \"#utility.yul\":7303:7307   */\n      0x80\n        /* \"#utility.yul\":7298:7301   */\n      dup6\n        /* \"#utility.yul\":7294:7308   */\n      add\n        /* \"#utility.yul\":7280:7292   */\n      dup3\n        /* \"#utility.yul\":7246:7309   */\n      tag_227\n      jump\t// in\n    tag_345:\n        /* \"#utility.yul\":7149:7319   */\n      pop\n        /* \"#utility.yul\":7403:7407   */\n      0xa0\n        /* \"#utility.yul\":7396:7401   */\n      dup3\n        /* \"#utility.yul\":7392:7408   */\n      add\n        /* \"#utility.yul\":7386:7409   */\n      mload\n        /* \"#utility.yul\":7422:7485   */\n      tag_346\n        /* \"#utility.yul\":7479:7483   */\n      0xa0\n        /* \"#utility.yul\":7474:7477   */\n      dup6\n        /* \"#utility.yul\":7470:7484   */\n      add\n        /* \"#utility.yul\":7456:7468   */\n      dup3\n        /* \"#utility.yul\":7422:7485   */\n      tag_227\n      jump\t// in\n    tag_346:\n        /* \"#utility.yul\":7329:7495   */\n      pop\n        /* \"#utility.yul\":7579:7583   */\n      0xc0\n        /* \"#utility.yul\":7572:7577   */\n      dup3\n        /* \"#utility.yul\":7568:7584   */\n      add\n        /* \"#utility.yul\":7562:7585   */\n      mload\n        /* \"#utility.yul\":7598:7655   */\n      tag_347\n        /* \"#utility.yul\":7649:7653   */\n      0xc0\n        /* \"#utility.yul\":7644:7647   */\n      dup6\n        /* \"#utility.yul\":7640:7654   */\n      add\n        /* \"#utility.yul\":7626:7638   */\n      dup3\n        /* \"#utility.yul\":7598:7655   */\n      tag_230\n      jump\t// in\n    tag_347:\n        /* \"#utility.yul\":7505:7665   */\n      pop\n        /* \"#utility.yul\":7750:7754   */\n      0xe0\n        /* \"#utility.yul\":7743:7748   */\n      dup3\n        /* \"#utility.yul\":7739:7755   */\n      add\n        /* \"#utility.yul\":7733:7756   */\n      mload\n        /* \"#utility.yul\":7769:7826   */\n      tag_348\n        /* \"#utility.yul\":7820:7824   */\n      0xe0\n        /* \"#utility.yul\":7815:7818   */\n      dup6\n        /* \"#utility.yul\":7811:7825   */\n      add\n        /* \"#utility.yul\":7797:7809   */\n      dup3\n        /* \"#utility.yul\":7769:7826   */\n      tag_230\n      jump\t// in\n    tag_348:\n        /* \"#utility.yul\":7675:7836   */\n      pop\n        /* \"#utility.yul\":6379:7843   */\n      pop\n        /* \"#utility.yul\":6263:7843   */\n      pop\n      pop\n      jump\t// out\n        /* \"#utility.yul\":7849:8172   */\n    tag_69:\n        /* \"#utility.yul\":7992:7996   */\n      0x00\n        /* \"#utility.yul\":8030:8033   */\n      0x0100\n        /* \"#utility.yul\":8019:8028   */\n      dup3\n        /* \"#utility.yul\":8015:8034   */\n      add\n        /* \"#utility.yul\":8007:8034   */\n      swap1\n      pop\n        /* \"#utility.yul\":8044:8165   */\n      tag_350\n        /* \"#utility.yul\":8162:8163   */\n      0x00\n        /* \"#utility.yul\":8151:8160   */\n      dup4\n        /* \"#utility.yul\":8147:8164   */\n      add\n        /* \"#utility.yul\":8138:8144   */\n      dup5\n        /* \"#utility.yul\":8044:8165   */\n      tag_231\n      jump\t// in\n    tag_350:\n        /* \"#utility.yul\":7849:8172   */\n      swap3\n      swap2\n      pop\n      pop\n      jump\t// out\n        /* \"#utility.yul\":8178:8507   */\n    tag_73:\n        /* \"#utility.yul\":8237:8243   */\n      0x00\n        /* \"#utility.yul\":8286:8288   */\n      0x20\n        /* \"#utility.yul\":8274:8283   */\n      dup3\n        /* \"#utility.yul\":8265:8272   */\n      dup5\n        /* \"#utility.yul\":8261:8284   */\n      sub\n        /* \"#utility.yul\":8257:8289   */\n      slt\n        /* \"#utility.yul\":8254:8373   */\n      iszero\n      tag_352\n      jumpi\n        /* \"#utility.yul\":8292:8371   */\n      tag_353\n      tag_208\n      jump\t// in\n    tag_353:\n        /* \"#utility.yul\":8254:8373   */\n    tag_352:\n        /* \"#utility.yul\":8412:8413   */\n      0x00\n        /* \"#utility.yul\":8437:8490   */\n      tag_354\n        /* \"#utility.yul\":8482:8489   */\n      dup5\n        /* \"#utility.yul\":8473:8479   */\n      dup3\n        /* \"#utility.yul\":8462:8471   */\n      dup6\n        /* \"#utility.yul\":8458:8480   */\n      add\n        /* \"#utility.yul\":8437:8490   */\n      tag_216\n      jump\t// in\n    tag_354:\n        /* \"#utility.yul\":8427:8490   */\n      swap2\n      pop\n        /* \"#utility.yul\":8383:8500   */\n      pop\n        /* \"#utility.yul\":8178:8507   */\n      swap3\n      swap2\n      pop\n      pop\n      jump\t// out\n        /* \"#utility.yul\":8513:8682   */\n    tag_232:\n        /* \"#utility.yul\":8597:8608   */\n      0x00\n        /* \"#utility.yul\":8631:8637   */\n      dup3\n        /* \"#utility.yul\":8626:8629   */\n      dup3\n        /* \"#utility.yul\":8619:8638   */\n      mstore\n        /* \"#utility.yul\":8671:8675   */\n      0x20\n        /* \"#utility.yul\":8666:8669   */\n      dup3\n        /* \"#utility.yul\":8662:8676   */\n      add\n        /* \"#utility.yul\":8647:8676   */\n      swap1\n      pop\n        /* \"#utility.yul\":8513:8682   */\n      swap3\n      swap2\n      pop\n      pop\n      jump\t// out\n        /* \"#utility.yul\":8688:8865   */\n    tag_233:\n        /* \"#utility.yul\":8828:8857   */\n      0x416c726561647920736574746c6564206f7220696e6163746976650000000000\n        /* \"#utility.yul\":8824:8825   */\n      0x00\n        /* \"#utility.yul\":8816:8822   */\n      dup3\n        /* \"#utility.yul\":8812:8826   */\n      add\n        /* \"#utility.yul\":8805:8858   */\n      mstore\n        /* \"#utility.yul\":8688:8865   */\n      pop\n      jump\t// out\n        /* \"#utility.yul\":8871:9237   */\n    tag_234:\n        /* \"#utility.yul\":9013:9016   */\n      0x00\n        /* \"#utility.yul\":9034:9101   */\n      tag_358\n        /* \"#utility.yul\":9098:9100   */\n      0x1b\n        /* \"#utility.yul\":9093:9096   */\n      dup4\n        /* \"#utility.yul\":9034:9101   */\n      tag_232\n      jump\t// in\n    tag_358:\n        /* \"#utility.yul\":9027:9101   */\n      swap2\n      pop\n        /* \"#utility.yul\":9110:9203   */\n      tag_359\n        /* \"#utility.yul\":9199:9202   */\n      dup3\n        /* \"#utility.yul\":9110:9203   */\n      tag_233\n      jump\t// in\n    tag_359:\n        /* \"#utility.yul\":9228:9230   */\n      0x20\n        /* \"#utility.yul\":9223:9226   */\n      dup3\n        /* \"#utility.yul\":9219:9231   */\n      add\n        /* \"#utility.yul\":9212:9231   */\n      swap1\n      pop\n        /* \"#utility.yul\":8871:9237   */\n      swap2\n      swap1\n      pop\n      jump\t// out\n        /* \"#utility.yul\":9243:9662   */\n    tag_89:\n        /* \"#utility.yul\":9409:9413   */\n      0x00\n        /* \"#utility.yul\":9447:9449   */\n      0x20\n        /* \"#utility.yul\":9436:9445   */\n      dup3\n        /* \"#utility.yul\":9432:9450   */\n      add\n        /* \"#utility.yul\":9424:9450   */\n      swap1\n      pop\n        /* \"#utility.yul\":9496:9505   */\n      dup2\n        /* \"#utility.yul\":9490:9494   */\n      dup2\n        /* \"#utility.yul\":9486:9506   */\n      sub\n        /* \"#utility.yul\":9482:9483   */\n      0x00\n        /* \"#utility.yul\":9471:9480   */\n      dup4\n        /* \"#utility.yul\":9467:9484   */\n      add\n        /* \"#utility.yul\":9460:9507   */\n      mstore\n        /* \"#utility.yul\":9524:9655   */\n      tag_361\n        /* \"#utility.yul\":9650:9654   */\n      dup2\n        /* \"#utility.yul\":9524:9655   */\n      tag_234\n      jump\t// in\n    tag_361:\n        /* \"#utility.yul\":9516:9655   */\n      swap1\n      pop\n        /* \"#utility.yul\":9243:9662   */\n      swap2\n      swap1\n      pop\n      jump\t// out\n        /* \"#utility.yul\":9668:9833   */\n    tag_235:\n        /* \"#utility.yul\":9808:9825   */\n      0x4e6f742079657420657870697265640000000000000000000000000000000000\n        /* \"#utility.yul\":9804:9805   */\n      0x00\n        /* \"#utility.yul\":9796:9802   */\n      dup3\n        /* \"#utility.yul\":9792:9806   */\n      add\n        /* \"#utility.yul\":9785:9826   */\n      mstore\n        /* \"#utility.yul\":9668:9833   */\n      pop\n      jump\t// out\n        /* \"#utility.yul\":9839:10205   */\n    tag_236:\n        /* \"#utility.yul\":9981:9984   */\n      0x00\n        /* \"#utility.yul\":10002:10069   */\n      tag_364\n        /* \"#utility.yul\":10066:10068   */\n      0x0f\n        /* \"#utility.yul\":10061:10064   */\n      dup4\n        /* \"#utility.yul\":10002:10069   */\n      tag_232\n      jump\t// in\n    tag_364:\n        /* \"#utility.yul\":9995:10069   */\n      swap2\n      pop\n        /* \"#utility.yul\":10078:10171   */\n      tag_365\n        /* \"#utility.yul\":10167:10170   */\n      dup3\n        /* \"#utility.yul\":10078:10171   */\n      tag_235\n      jump\t// in\n    tag_365:\n        /* \"#utility.yul\":10196:10198   */\n      0x20\n        /* \"#utility.yul\":10191:10194   */\n      dup3\n        /* \"#utility.yul\":10187:10199   */\n      add\n        /* \"#utility.yul\":10180:10199   */\n      swap1\n      pop\n        /* \"#utility.yul\":9839:10205   */\n      swap2\n      swap1\n      pop\n      jump\t// out\n        /* \"#utility.yul\":10211:10630   */\n    tag_92:\n        /* \"#utility.yul\":10377:10381   */\n      0x00\n        /* \"#utility.yul\":10415:10417   */\n      0x20\n        /* \"#utility.yul\":10404:10413   */\n      dup3\n        /* \"#utility.yul\":10400:10418   */\n      add\n        /* \"#utility.yul\":10392:10418   */\n      swap1\n      pop\n        /* \"#utility.yul\":10464:10473   */\n      dup2\n        /* \"#utility.yul\":10458:10462   */\n      dup2\n        /* \"#utility.yul\":10454:10474   */\n      sub\n        /* \"#utility.yul\":10450:10451   */\n      0x00\n        /* \"#utility.yul\":10439:10448   */\n      dup4\n        /* \"#utility.yul\":10435:10452   */\n      add\n        /* \"#utility.yul\":10428:10475   */\n      mstore\n        /* \"#utility.yul\":10492:10623   */\n      tag_367\n        /* \"#utility.yul\":10618:10622   */\n      dup2\n        /* \"#utility.yul\":10492:10623   */\n      tag_236\n      jump\t// in\n    tag_367:\n        /* \"#utility.yul\":10484:10623   */\n      swap1\n      pop\n        /* \"#utility.yul\":10211:10630   */\n      swap2\n      swap1\n      pop\n      jump\t// out\n        /* \"#utility.yul\":10636:10812   */\n    tag_237:\n        /* \"#utility.yul\":10776:10804   */\n      0x57696e6e6572206d757374206265207061727469636970616e74000000000000\n        /* \"#utility.yul\":10772:10773   */\n      0x00\n        /* \"#utility.yul\":10764:10770   */\n      dup3\n        /* \"#utility.yul\":10760:10774   */\n      add\n        /* \"#utility.yul\":10753:10805   */\n      mstore\n        /* \"#utility.yul\":10636:10812   */\n      pop\n      jump\t// out\n        /* \"#utility.yul\":10818:11184   */\n    tag_238:\n        /* \"#utility.yul\":10960:10963   */\n      0x00\n        /* \"#utility.yul\":10981:11048   */\n      tag_370\n        /* \"#utility.yul\":11045:11047   */\n      0x1a\n        /* \"#utility.yul\":11040:11043   */\n      dup4\n        /* \"#utility.yul\":10981:11048   */\n      tag_232\n      jump\t// in\n    tag_370:\n        /* \"#utility.yul\":10974:11048   */\n      swap2\n      pop\n        /* \"#utility.yul\":11057:11150   */\n      tag_371\n        /* \"#utility.yul\":11146:11149   */\n      dup3\n        /* \"#utility.yul\":11057:11150   */\n      tag_237\n      jump\t// in\n    tag_371:\n        /* \"#utility.yul\":11175:11177   */\n      0x20\n        /* \"#utility.yul\":11170:11173   */\n      dup3\n        /* \"#utility.yul\":11166:11178   */\n      add\n        /* \"#utility.yul\":11159:11178   */\n      swap1\n      pop\n        /* \"#utility.yul\":10818:11184   */\n      swap2\n      swap1\n      pop\n      jump\t// out\n        /* \"#utility.yul\":11190:11609   */\n    tag_96:\n        /* \"#utility.yul\":11356:11360   */\n      0x00\n        /* \"#utility.yul\":11394:11396   */\n      0x20\n        /* \"#utility.yul\":11383:11392   */\n      dup3\n        /* \"#utility.yul\":11379:11397   */\n      add\n        /* \"#utility.yul\":11371:11397   */\n      swap1\n      pop\n        /* \"#utility.yul\":11443:11452   */\n      dup2\n        /* \"#utility.yul\":11437:11441   */\n      dup2\n        /* \"#utility.yul\":11433:11453   */\n      sub\n        /* \"#utility.yul\":11429:11430   */\n      0x00\n        /* \"#utility.yul\":11418:11427   */\n      dup4\n        /* \"#utility.yul\":11414:11431   */\n      add\n        /* \"#utility.yul\":11407:11454   */\n      mstore\n        /* \"#utility.yul\":11471:11602   */\n      tag_373\n        /* \"#utility.yul\":11597:11601   */\n      dup2\n        /* \"#utility.yul\":11471:11602   */\n      tag_238\n      jump\t// in\n    tag_373:\n        /* \"#utility.yul\":11463:11602   */\n      swap1\n      pop\n        /* \"#utility.yul\":11190:11609   */\n      swap2\n      swap1\n      pop\n      jump\t// out\n        /* \"#utility.yul\":11615:11795   */\n    tag_239:\n        /* \"#utility.yul\":11663:11740   */\n      0x4e487b7100000000000000000000000000000000000000000000000000000000\n        /* \"#utility.yul\":11660:11661   */\n      0x00\n        /* \"#utility.yul\":11653:11741   */\n      mstore\n        /* \"#utility.yul\":11760:11764   */\n      0x11\n        /* \"#utility.yul\":11757:11758   */\n      0x04\n        /* \"#utility.yul\":11750:11765   */\n      mstore\n        /* \"#utility.yul\":11784:11788   */\n      0x24\n        /* \"#utility.yul\":11781:11782   */\n      0x00\n        /* \"#utility.yul\":11774:11789   */\n      revert\n        /* \"#utility.yul\":11801:11992   */\n    tag_98:\n        /* \"#utility.yul\":11841:11844   */\n      0x00\n        /* \"#utility.yul\":11860:11880   */\n      tag_376\n        /* \"#utility.yul\":11878:11879   */\n      dup3\n        /* \"#utility.yul\":11860:11880   */\n      tag_210\n      jump\t// in\n    tag_376:\n        /* \"#utility.yul\":11855:11880   */\n      swap2\n      pop\n        /* \"#utility.yul\":11894:11914   */\n      tag_377\n        /* \"#utility.yul\":11912:11913   */\n      dup4\n        /* \"#utility.yul\":11894:11914   */\n      tag_210\n      jump\t// in\n    tag_377:\n        /* \"#utility.yul\":11889:11914   */\n      swap3\n      pop\n        /* \"#utility.yul\":11937:11938   */\n      dup3\n        /* \"#utility.yul\":11934:11935   */\n      dup3\n        /* \"#utility.yul\":11930:11939   */\n      add\n        /* \"#utility.yul\":11923:11939   */\n      swap1\n      pop\n        /* \"#utility.yul\":11958:11961   */\n      dup1\n        /* \"#utility.yul\":11955:11956   */\n      dup3\n        /* \"#utility.yul\":11952:11962   */\n      gt\n        /* \"#utility.yul\":11949:11985   */\n      iszero\n      tag_378\n      jumpi\n        /* \"#utility.yul\":11965:11983   */\n      tag_379\n      tag_239\n      jump\t// in\n    tag_379:\n        /* \"#utility.yul\":11949:11985   */\n    tag_378:\n        /* \"#utility.yul\":11801:11992   */\n      swap3\n      swap2\n      pop\n      pop\n      jump\t// out\n        /* \"#utility.yul\":11998:12145   */\n    tag_240:\n        /* \"#utility.yul\":12099:12110   */\n      0x00\n        /* \"#utility.yul\":12136:12139   */\n      dup2\n        /* \"#utility.yul\":12121:12139   */\n      swap1\n      pop\n        /* \"#utility.yul\":11998:12145   */\n      swap3\n      swap2\n      pop\n      pop\n      jump\t// out\n        /* \"#utility.yul\":12151:12265   */\n    tag_241:\n      pop\n      jump\t// out\n        /* \"#utility.yul\":12271:12669   */\n    tag_242:\n        /* \"#utility.yul\":12430:12433   */\n      0x00\n        /* \"#utility.yul\":12451:12534   */\n      tag_383\n        /* \"#utility.yul\":12532:12533   */\n      0x00\n        /* \"#utility.yul\":12527:12530   */\n      dup4\n        /* \"#utility.yul\":12451:12534   */\n      tag_240\n      jump\t// in\n    tag_383:\n        /* \"#utility.yul\":12444:12534   */\n      swap2\n      pop\n        /* \"#utility.yul\":12543:12636   */\n      tag_384\n        /* \"#utility.yul\":12632:12635   */\n      dup3\n        /* \"#utility.yul\":12543:12636   */\n      tag_241\n      jump\t// in\n    tag_384:\n        /* \"#utility.yul\":12661:12662   */\n      0x00\n        /* \"#utility.yul\":12656:12659   */\n      dup3\n        /* \"#utility.yul\":12652:12663   */\n      add\n        /* \"#utility.yul\":12645:12663   */\n      swap1\n      pop\n        /* \"#utility.yul\":12271:12669   */\n      swap2\n      swap1\n      pop\n      jump\t// out\n        /* \"#utility.yul\":12675:13054   */\n    tag_100:\n        /* \"#utility.yul\":12859:12862   */\n      0x00\n        /* \"#utility.yul\":12881:13028   */\n      tag_386\n        /* \"#utility.yul\":13024:13027   */\n      dup3\n        /* \"#utility.yul\":12881:13028   */\n      tag_242\n      jump\t// in\n    tag_386:\n        /* \"#utility.yul\":12874:13028   */\n      swap2\n      pop\n        /* \"#utility.yul\":13045:13048   */\n      dup2\n        /* \"#utility.yul\":13038:13048   */\n      swap1\n      pop\n        /* \"#utility.yul\":12675:13054   */\n      swap2\n      swap1\n      pop\n      jump\t// out\n        /* \"#utility.yul\":13060:13225   */\n    tag_243:\n        /* \"#utility.yul\":13200:13217   */\n      0x5472616e73666572206661696c65640000000000000000000000000000000000\n        /* \"#utility.yul\":13196:13197   */\n      0x00\n        /* \"#utility.yul\":13188:13194   */\n      dup3\n        /* \"#utility.yul\":13184:13198   */\n      add\n        /* \"#utility.yul\":13177:13218   */\n      mstore\n        /* \"#utility.yul\":13060:13225   */\n      pop\n      jump\t// out\n        /* \"#utility.yul\":13231:13597   */\n    tag_244:\n        /* \"#utility.yul\":13373:13376   */\n      0x00\n        /* \"#utility.yul\":13394:13461   */\n      tag_389\n        /* \"#utility.yul\":13458:13460   */\n      0x0f\n        /* \"#utility.yul\":13453:13456   */\n      dup4\n        /* \"#utility.yul\":13394:13461   */\n      tag_232\n      jump\t// in\n    tag_389:\n        /* \"#utility.yul\":13387:13461   */\n      swap2\n      pop\n        /* \"#utility.yul\":13470:13563   */\n      tag_390\n        /* \"#utility.yul\":13559:13562   */\n      dup3\n        /* \"#utility.yul\":13470:13563   */\n      tag_243\n      jump\t// in\n    tag_390:\n        /* \"#utility.yul\":13588:13590   */\n      0x20\n        /* \"#utility.yul\":13583:13586   */\n      dup3\n        /* \"#utility.yul\":13579:13591   */\n      add\n        /* \"#utility.yul\":13572:13591   */\n      swap1\n      pop\n        /* \"#utility.yul\":13231:13597   */\n      swap2\n      swap1\n      pop\n      jump\t// out\n        /* \"#utility.yul\":13603:14022   */\n    tag_106:\n        /* \"#utility.yul\":13769:13773   */\n      0x00\n        /* \"#utility.yul\":13807:13809   */\n      0x20\n        /* \"#utility.yul\":13796:13805   */\n      dup3\n        /* \"#utility.yul\":13792:13810   */\n      add\n        /* \"#utility.yul\":13784:13810   */\n      swap1\n      pop\n        /* \"#utility.yul\":13856:13865   */\n      dup2\n        /* \"#utility.yul\":13850:13854   */\n      dup2\n        /* \"#utility.yul\":13846:13866   */\n      sub\n        /* \"#utility.yul\":13842:13843   */\n      0x00\n        /* \"#utility.yul\":13831:13840   */\n      dup4\n        /* \"#utility.yul\":13827:13844   */\n      add\n        /* \"#utility.yul\":13820:13867   */\n      mstore\n        /* \"#utility.yul\":13884:14015   */\n      tag_392\n        /* \"#utility.yul\":14010:14014   */\n      dup2\n        /* \"#utility.yul\":13884:14015   */\n      tag_244\n      jump\t// in\n    tag_392:\n        /* \"#utility.yul\":13876:14015   */\n      swap1\n      pop\n        /* \"#utility.yul\":13603:14022   */\n      swap2\n      swap1\n      pop\n      jump\t// out\n        /* \"#utility.yul\":14028:14360   */\n    tag_108:\n        /* \"#utility.yul\":14149:14153   */\n      0x00\n        /* \"#utility.yul\":14187:14189   */\n      0x40\n        /* \"#utility.yul\":14176:14185   */\n      dup3\n        /* \"#utility.yul\":14172:14190   */\n      add\n        /* \"#utility.yul\":14164:14190   */\n      swap1\n      pop\n        /* \"#utility.yul\":14200:14271   */\n      tag_394\n        /* \"#utility.yul\":14268:14269   */\n      0x00\n        /* \"#utility.yul\":14257:14266   */\n      dup4\n        /* \"#utility.yul\":14253:14270   */\n      add\n        /* \"#utility.yul\":14244:14250   */\n      dup6\n        /* \"#utility.yul\":14200:14271   */\n      tag_220\n      jump\t// in\n    tag_394:\n        /* \"#utility.yul\":14281:14353   */\n      tag_395\n        /* \"#utility.yul\":14349:14351   */\n      0x20\n        /* \"#utility.yul\":14338:14347   */\n      dup4\n        /* \"#utility.yul\":14334:14352   */\n      add\n        /* \"#utility.yul\":14325:14331   */\n      dup5\n        /* \"#utility.yul\":14281:14353   */\n      tag_217\n      jump\t// in\n    tag_395:\n        /* \"#utility.yul\":14028:14360   */\n      swap4\n      swap3\n      pop\n      pop\n      pop\n      jump\t// out\n        /* \"#utility.yul\":14366:14535   */\n    tag_245:\n        /* \"#utility.yul\":14506:14527   */\n      0x506f736974696f6e206e6f742061637469766500000000000000000000000000\n        /* \"#utility.yul\":14502:14503   */\n      0x00\n        /* \"#utility.yul\":14494:14500   */\n      dup3\n        /* \"#utility.yul\":14490:14504   */\n      add\n        /* \"#utility.yul\":14483:14528   */\n      mstore\n        /* \"#utility.yul\":14366:14535   */\n      pop\n      jump\t// out\n        /* \"#utility.yul\":14541:14907   */\n    tag_246:\n        /* \"#utility.yul\":14683:14686   */\n      0x00\n        /* \"#utility.yul\":14704:14771   */\n      tag_398\n        /* \"#utility.yul\":14768:14770   */\n      0x13\n        /* \"#utility.yul\":14763:14766   */\n      dup4\n        /* \"#utility.yul\":14704:14771   */\n      tag_232\n      jump\t// in\n    tag_398:\n        /* \"#utility.yul\":14697:14771   */\n      swap2\n      pop\n        /* \"#utility.yul\":14780:14873   */\n      tag_399\n        /* \"#utility.yul\":14869:14872   */\n      dup3\n        /* \"#utility.yul\":14780:14873   */\n      tag_245\n      jump\t// in\n    tag_399:\n        /* \"#utility.yul\":14898:14900   */\n      0x20\n        /* \"#utility.yul\":14893:14896   */\n      dup3\n        /* \"#utility.yul\":14889:14901   */\n      add\n        /* \"#utility.yul\":14882:14901   */\n      swap1\n      pop\n        /* \"#utility.yul\":14541:14907   */\n      swap2\n      swap1\n      pop\n      jump\t// out\n        /* \"#utility.yul\":14913:15332   */\n    tag_118:\n        /* \"#utility.yul\":15079:15083   */\n      0x00\n        /* \"#utility.yul\":15117:15119   */\n      0x20\n        /* \"#utility.yul\":15106:15115   */\n      dup3\n        /* \"#utility.yul\":15102:15120   */\n      add\n        /* \"#utility.yul\":15094:15120   */\n      swap1\n      pop\n        /* \"#utility.yul\":15166:15175   */\n      dup2\n        /* \"#utility.yul\":15160:15164   */\n      dup2\n        /* \"#utility.yul\":15156:15176   */\n      sub\n        /* \"#utility.yul\":15152:15153   */\n      0x00\n        /* \"#utility.yul\":15141:15150   */\n      dup4\n        /* \"#utility.yul\":15137:15154   */\n      add\n        /* \"#utility.yul\":15130:15177   */\n      mstore\n        /* \"#utility.yul\":15194:15325   */\n      tag_401\n        /* \"#utility.yul\":15320:15324   */\n      dup2\n        /* \"#utility.yul\":15194:15325   */\n      tag_246\n      jump\t// in\n    tag_401:\n        /* \"#utility.yul\":15186:15325   */\n      swap1\n      pop\n        /* \"#utility.yul\":14913:15332   */\n      swap2\n      swap1\n      pop\n      jump\t// out\n        /* \"#utility.yul\":15338:15511   */\n    tag_247:\n        /* \"#utility.yul\":15478:15503   */\n      0x506f736974696f6e20616c7265616479206a6f696e6564000000000000000000\n        /* \"#utility.yul\":15474:15475   */\n      0x00\n        /* \"#utility.yul\":15466:15472   */\n      dup3\n        /* \"#utility.yul\":15462:15476   */\n      add\n        /* \"#utility.yul\":15455:15504   */\n      mstore\n        /* \"#utility.yul\":15338:15511   */\n      pop\n      jump\t// out\n        /* \"#utility.yul\":15517:15883   */\n    tag_248:\n        /* \"#utility.yul\":15659:15662   */\n      0x00\n        /* \"#utility.yul\":15680:15747   */\n      tag_404\n        /* \"#utility.yul\":15744:15746   */\n      0x17\n        /* \"#utility.yul\":15739:15742   */\n      dup4\n        /* \"#utility.yul\":15680:15747   */\n      tag_232\n      jump\t// in\n    tag_404:\n        /* \"#utility.yul\":15673:15747   */\n      swap2\n      pop\n        /* \"#utility.yul\":15756:15849   */\n      tag_405\n        /* \"#utility.yul\":15845:15848   */\n      dup3\n        /* \"#utility.yul\":15756:15849   */\n      tag_247\n      jump\t// in\n    tag_405:\n        /* \"#utility.yul\":15874:15876   */\n      0x20\n        /* \"#utility.yul\":15869:15872   */\n      dup3\n        /* \"#utility.yul\":15865:15877   */\n      add\n        /* \"#utility.yul\":15858:15877   */\n      swap1\n      pop\n        /* \"#utility.yul\":15517:15883   */\n      swap2\n      swap1\n      pop\n      jump\t// out\n        /* \"#utility.yul\":15889:16308   */\n    tag_121:\n        /* \"#utility.yul\":16055:16059   */\n      0x00\n        /* \"#utility.yul\":16093:16095   */\n      0x20\n        /* \"#utility.yul\":16082:16091   */\n      dup3\n        /* \"#utility.yul\":16078:16096   */\n      add\n        /* \"#utility.yul\":16070:16096   */\n      swap1\n      pop\n        /* \"#utility.yul\":16142:16151   */\n      dup2\n        /* \"#utility.yul\":16136:16140   */\n      dup2\n        /* \"#utility.yul\":16132:16152   */\n      sub\n        /* \"#utility.yul\":16128:16129   */\n      0x00\n        /* \"#utility.yul\":16117:16126   */\n      dup4\n        /* \"#utility.yul\":16113:16130   */\n      add\n        /* \"#utility.yul\":16106:16153   */\n      mstore\n        /* \"#utility.yul\":16170:16301   */\n      tag_407\n        /* \"#utility.yul\":16296:16300   */\n      dup2\n        /* \"#utility.yul\":16170:16301   */\n      tag_248\n      jump\t// in\n    tag_407:\n        /* \"#utility.yul\":16162:16301   */\n      swap1\n      pop\n        /* \"#utility.yul\":15889:16308   */\n      swap2\n      swap1\n      pop\n      jump\t// out\n        /* \"#utility.yul\":16314:16480   */\n    tag_249:\n        /* \"#utility.yul\":16454:16472   */\n      0x506f736974696f6e206578706972656400000000000000000000000000000000\n        /* \"#utility.yul\":16450:16451   */\n      0x00\n        /* \"#utility.yul\":16442:16448   */\n      dup3\n        /* \"#utility.yul\":16438:16452   */\n      add\n        /* \"#utility.yul\":16431:16473   */\n      mstore\n        /* \"#utility.yul\":16314:16480   */\n      pop\n      jump\t// out\n        /* \"#utility.yul\":16486:16852   */\n    tag_250:\n        /* \"#utility.yul\":16628:16631   */\n      0x00\n        /* \"#utility.yul\":16649:16716   */\n      tag_410\n        /* \"#utility.yul\":16713:16715   */\n      0x10\n        /* \"#utility.yul\":16708:16711   */\n      dup4\n        /* \"#utility.yul\":16649:16716   */\n      tag_232\n      jump\t// in\n    tag_410:\n        /* \"#utility.yul\":16642:16716   */\n      swap2\n      pop\n        /* \"#utility.yul\":16725:16818   */\n      tag_411\n        /* \"#utility.yul\":16814:16817   */\n      dup3\n        /* \"#utility.yul\":16725:16818   */\n      tag_249\n      jump\t// in\n    tag_411:\n        /* \"#utility.yul\":16843:16845   */\n      0x20\n        /* \"#utility.yul\":16838:16841   */\n      dup3\n        /* \"#utility.yul\":16834:16846   */\n      add\n        /* \"#utility.yul\":16827:16846   */\n      swap1\n      pop\n        /* \"#utility.yul\":16486:16852   */\n      swap2\n      swap1\n      pop\n      jump\t// out\n        /* \"#utility.yul\":16858:17277   */\n    tag_124:\n        /* \"#utility.yul\":17024:17028   */\n      0x00\n        /* \"#utility.yul\":17062:17064   */\n      0x20\n        /* \"#utility.yul\":17051:17060   */\n      dup3\n        /* \"#utility.yul\":17047:17065   */\n      add\n        /* \"#utility.yul\":17039:17065   */\n      swap1\n      pop\n        /* \"#utility.yul\":17111:17120   */\n      dup2\n        /* \"#utility.yul\":17105:17109   */\n      dup2\n        /* \"#utility.yul\":17101:17121   */\n      sub\n        /* \"#utility.yul\":17097:17098   */\n      0x00\n        /* \"#utility.yul\":17086:17095   */\n      dup4\n        /* \"#utility.yul\":17082:17099   */\n      add\n        /* \"#utility.yul\":17075:17122   */\n      mstore\n        /* \"#utility.yul\":17139:17270   */\n      tag_413\n        /* \"#utility.yul\":17265:17269   */\n      dup2\n        /* \"#utility.yul\":17139:17270   */\n      tag_250\n      jump\t// in\n    tag_413:\n        /* \"#utility.yul\":17131:17270   */\n      swap1\n      pop\n        /* \"#utility.yul\":16858:17277   */\n      swap2\n      swap1\n      pop\n      jump\t// out\n        /* \"#utility.yul\":17283:17460   */\n    tag_251:\n        /* \"#utility.yul\":17423:17452   */\n      0x496e636f727265637420636f6c6c61746572616c20616d6f756e740000000000\n        /* \"#utility.yul\":17419:17420   */\n      0x00\n        /* \"#utility.yul\":17411:17417   */\n      dup3\n        /* \"#utility.yul\":17407:17421   */\n      add\n        /* \"#utility.yul\":17400:17453   */\n      mstore\n        /* \"#utility.yul\":17283:17460   */\n      pop\n      jump\t// out\n        /* \"#utility.yul\":17466:17832   */\n    tag_252:\n        /* \"#utility.yul\":17608:17611   */\n      0x00\n        /* \"#utility.yul\":17629:17696   */\n      tag_416\n        /* \"#utility.yul\":17693:17695   */\n      0x1b\n        /* \"#utility.yul\":17688:17691   */\n      dup4\n        /* \"#utility.yul\":17629:17696   */\n      tag_232\n      jump\t// in\n    tag_416:\n        /* \"#utility.yul\":17622:17696   */\n      swap2\n      pop\n        /* \"#utility.yul\":17705:17798   */\n      tag_417\n        /* \"#utility.yul\":17794:17797   */\n      dup3\n        /* \"#utility.yul\":17705:17798   */\n      tag_251\n      jump\t// in\n    tag_417:\n        /* \"#utility.yul\":17823:17825   */\n      0x20\n        /* \"#utility.yul\":17818:17821   */\n      dup3\n        /* \"#utility.yul\":17814:17826   */\n      add\n        /* \"#utility.yul\":17807:17826   */\n      swap1\n      pop\n        /* \"#utility.yul\":17466:17832   */\n      swap2\n      swap1\n      pop\n      jump\t// out\n        /* \"#utility.yul\":17838:18257   */\n    tag_127:\n        /* \"#utility.yul\":18004:18008   */\n      0x00\n        /* \"#utility.yul\":18042:18044   */\n      0x20\n        /* \"#utility.yul\":18031:18040   */\n      dup3\n        /* \"#utility.yul\":18027:18045   */\n      add\n        /* \"#utility.yul\":18019:18045   */\n      swap1\n      pop\n        /* \"#utility.yul\":18091:18100   */\n      dup2\n        /* \"#utility.yul\":18085:18089   */\n      dup2\n        /* \"#utility.yul\":18081:18101   */\n      sub\n        /* \"#utility.yul\":18077:18078   */\n      0x00\n        /* \"#utility.yul\":18066:18075   */\n      dup4\n        /* \"#utility.yul\":18062:18079   */\n      add\n        /* \"#utility.yul\":18055:18102   */\n      mstore\n        /* \"#utility.yul\":18119:18250   */\n      tag_419\n        /* \"#utility.yul\":18245:18249   */\n      dup2\n        /* \"#utility.yul\":18119:18250   */\n      tag_252\n      jump\t// in\n    tag_419:\n        /* \"#utility.yul\":18111:18250   */\n      swap1\n      pop\n        /* \"#utility.yul\":17838:18257   */\n      swap2\n      swap1\n      pop\n      jump\t// out\n        /* \"#utility.yul\":18263:18435   */\n    tag_253:\n        /* \"#utility.yul\":18403:18427   */\n      0x436f6c6c61746572616c206d757374206265203e203000000000000000000000\n        /* \"#utility.yul\":18399:18400   */\n      0x00\n        /* \"#utility.yul\":18391:18397   */\n      dup3\n        /* \"#utility.yul\":18387:18401   */\n      add\n        /* \"#utility.yul\":18380:18428   */\n      mstore\n        /* \"#utility.yul\":18263:18435   */\n      pop\n      jump\t// out\n        /* \"#utility.yul\":18441:18807   */\n    tag_254:\n        /* \"#utility.yul\":18583:18586   */\n      0x00\n        /* \"#utility.yul\":18604:18671   */\n      tag_422\n        /* \"#utility.yul\":18668:18670   */\n      0x16\n        /* \"#utility.yul\":18663:18666   */\n      dup4\n        /* \"#utility.yul\":18604:18671   */\n      tag_232\n      jump\t// in\n    tag_422:\n        /* \"#utility.yul\":18597:18671   */\n      swap2\n      pop\n        /* \"#utility.yul\":18680:18773   */\n      tag_423\n        /* \"#utility.yul\":18769:18772   */\n      dup3\n        /* \"#utility.yul\":18680:18773   */\n      tag_253\n      jump\t// in\n    tag_423:\n        /* \"#utility.yul\":18798:18800   */\n      0x20\n        /* \"#utility.yul\":18793:18796   */\n      dup3\n        /* \"#utility.yul\":18789:18801   */\n      add\n        /* \"#utility.yul\":18782:18801   */\n      swap1\n      pop\n        /* \"#utility.yul\":18441:18807   */\n      swap2\n      swap1\n      pop\n      jump\t// out\n        /* \"#utility.yul\":18813:19232   */\n    tag_135:\n        /* \"#utility.yul\":18979:18983   */\n      0x00\n        /* \"#utility.yul\":19017:19019   */\n      0x20\n        /* \"#utility.yul\":19006:19015   */\n      dup3\n        /* \"#utility.yul\":19002:19020   */\n      add\n        /* \"#utility.yul\":18994:19020   */\n      swap1\n      pop\n        /* \"#utility.yul\":19066:19075   */\n      dup2\n        /* \"#utility.yul\":19060:19064   */\n      dup2\n        /* \"#utility.yul\":19056:19076   */\n      sub\n        /* \"#utility.yul\":19052:19053   */\n      0x00\n        /* \"#utility.yul\":19041:19050   */\n      dup4\n        /* \"#utility.yul\":19037:19054   */\n      add\n        /* \"#utility.yul\":19030:19077   */\n      mstore\n        /* \"#utility.yul\":19094:19225   */\n      tag_425\n        /* \"#utility.yul\":19220:19224   */\n      dup2\n        /* \"#utility.yul\":19094:19225   */\n      tag_254\n      jump\t// in\n    tag_425:\n        /* \"#utility.yul\":19086:19225   */\n      swap1\n      pop\n        /* \"#utility.yul\":18813:19232   */\n      swap2\n      swap1\n      pop\n      jump\t// out\n        /* \"#utility.yul\":19238:19416   */\n    tag_255:\n        /* \"#utility.yul\":19378:19408   */\n      0x457870697279206d75737420626520696e207468652066757475726500000000\n        /* \"#utility.yul\":19374:19375   */\n      0x00\n        /* \"#utility.yul\":19366:19372   */\n      dup3\n        /* \"#utility.yul\":19362:19376   */\n      add\n        /* \"#utility.yul\":19355:19409   */\n      mstore\n        /* \"#utility.yul\":19238:19416   */\n      pop\n      jump\t// out\n        /* \"#utility.yul\":19422:19788   */\n    tag_256:\n        /* \"#utility.yul\":19564:19567   */\n      0x00\n        /* \"#utility.yul\":19585:19652   */\n      tag_428\n        /* \"#utility.yul\":19649:19651   */\n      0x1c\n        /* \"#utility.yul\":19644:19647   */\n      dup4\n        /* \"#utility.yul\":19585:19652   */\n      tag_232\n      jump\t// in\n    tag_428:\n        /* \"#utility.yul\":19578:19652   */\n      swap2\n      pop\n        /* \"#utility.yul\":19661:19754   */\n      tag_429\n        /* \"#utility.yul\":19750:19753   */\n      dup3\n        /* \"#utility.yul\":19661:19754   */\n      tag_255\n      jump\t// in\n    tag_429:\n        /* \"#utility.yul\":19779:19781   */\n      0x20\n        /* \"#utility.yul\":19774:19777   */\n      dup3\n        /* \"#utility.yul\":19770:19782   */\n      add\n        /* \"#utility.yul\":19763:19782   */\n      swap1\n      pop\n        /* \"#utility.yul\":19422:19788   */\n      swap2\n      swap1\n      pop\n      jump\t// out\n        /* \"#utility.yul\":19794:20213   */\n    tag_140:\n        /* \"#utility.yul\":19960:19964   */\n      0x00\n        /* \"#utility.yul\":19998:20000   */\n      0x20\n        /* \"#utility.yul\":19987:19996   */\n      dup3\n        /* \"#utility.yul\":19983:20001   */\n      add\n        /* \"#utility.yul\":19975:20001   */\n      swap1\n      pop\n        /* \"#utility.yul\":20047:20056   */\n      dup2\n        /* \"#utility.yul\":20041:20045   */\n      dup2\n        /* \"#utility.yul\":20037:20057   */\n      sub\n        /* \"#utility.yul\":20033:20034   */\n      0x00\n        /* \"#utility.yul\":20022:20031   */\n      dup4\n        /* \"#utility.yul\":20018:20035   */\n      add\n        /* \"#utility.yul\":20011:20058   */\n      mstore\n        /* \"#utility.yul\":20075:20206   */\n      tag_431\n        /* \"#utility.yul\":20201:20205   */\n      dup2\n        /* \"#utility.yul\":20075:20206   */\n      tag_256\n      jump\t// in\n    tag_431:\n        /* \"#utility.yul\":20067:20206   */\n      swap1\n      pop\n        /* \"#utility.yul\":19794:20213   */\n      swap2\n      swap1\n      pop\n      jump\t// out\n        /* \"#utility.yul\":20219:20452   */\n    tag_142:\n        /* \"#utility.yul\":20258:20261   */\n      0x00\n        /* \"#utility.yul\":20281:20305   */\n      tag_433\n        /* \"#utility.yul\":20299:20304   */\n      dup3\n        /* \"#utility.yul\":20281:20305   */\n      tag_210\n      jump\t// in\n    tag_433:\n        /* \"#utility.yul\":20272:20305   */\n      swap2\n      pop\n        /* \"#utility.yul\":20327:20393   */\n      0xffffffffffffffffffffffffffffffffffffffffffffffffffffffffffffffff\n        /* \"#utility.yul\":20320:20325   */\n      dup3\n        /* \"#utility.yul\":20317:20394   */\n      sub\n        /* \"#utility.yul\":20314:20417   */\n      tag_434\n      jumpi\n        /* \"#utility.yul\":20397:20415   */\n      tag_435\n      tag_239\n      jump\t// in\n    tag_435:\n        /* \"#utility.yul\":20314:20417   */\n    tag_434:\n        /* \"#utility.yul\":20444:20445   */\n      0x01\n        /* \"#utility.yul\":20437:20442   */\n      dup3\n        /* \"#utility.yul\":20433:20446   */\n      add\n        /* \"#utility.yul\":20426:20446   */\n      swap1\n      pop\n        /* \"#utility.yul\":20219:20452   */\n      swap2\n      swap1\n      pop\n      jump\t// out\n        /* \"#utility.yul\":20458:20932   */\n    tag_149:\n        /* \"#utility.yul\":20623:20627   */\n      0x00\n        /* \"#utility.yul\":20661:20663   */\n      0x60\n        /* \"#utility.yul\":20650:20659   */\n      dup3\n        /* \"#utility.yul\":20646:20664   */\n      add\n        /* \"#utility.yul\":20638:20664   */\n      swap1\n      pop\n        /* \"#utility.yul\":20674:20761   */\n      tag_437\n        /* \"#utility.yul\":20758:20759   */\n      0x00\n        /* \"#utility.yul\":20747:20756   */\n      dup4\n        /* \"#utility.yul\":20743:20760   */\n      add\n        /* \"#utility.yul\":20734:20740   */\n      dup7\n        /* \"#utility.yul\":20674:20761   */\n      tag_224\n      jump\t// in\n    tag_437:\n        /* \"#utility.yul\":20771:20843   */\n      tag_438\n        /* \"#utility.yul\":20839:20841   */\n      0x20\n        /* \"#utility.yul\":20828:20837   */\n      dup4\n        /* \"#utility.yul\":20824:20842   */\n      add\n        /* \"#utility.yul\":20815:20821   */\n      dup6\n        /* \"#utility.yul\":20771:20843   */\n      tag_217\n      jump\t// in\n    tag_438:\n        /* \"#utility.yul\":20853:20925   */\n      tag_439\n        /* \"#utility.yul\":20921:20923   */\n      0x40\n        /* \"#utility.yul\":20910:20919   */\n      dup4\n        /* \"#utility.yul\":20906:20924   */\n      add\n        /* \"#utility.yul\":20897:20903   */\n      dup5\n        /* \"#utility.yul\":20853:20925   */\n      tag_217\n      jump\t// in\n    tag_439:\n        /* \"#utility.yul\":20458:20932   */\n      swap5\n      swap4\n      pop\n      pop\n      pop\n      pop\n      jump\t// out\n        /* \"#utility.yul\":20938:21107   */\n    tag_257:\n        /* \"#utility.yul\":21078:21099   */\n      0x436f756e7465727061727479206a6f696e656400000000000000000000000000\n        /* \"#utility.yul\":21074:21075   */\n      0x00\n        /* \"#utility.yul\":21066:21072   */\n      dup3\n        /* \"#utility.yul\":21062:21076   */\n      add\n        /* \"#utility.yul\":21055:21100   */\n      mstore\n        /* \"#utility.yul\":20938:21107   */\n      pop\n      jump\t// out\n        /* \"#utility.yul\":21113:21479   */\n    tag_258:\n        /* \"#utility.yul\":21255:21258   */\n      0x00\n        /* \"#utility.yul\":21276:21343   */\n      tag_442\n        /* \"#utility.yul\":21340:21342   */\n      0x13\n        /* \"#utility.yul\":21335:21338   */\n      dup4\n        /* \"#utility.yul\":21276:21343   */\n      tag_232\n      jump\t// in\n    tag_442:\n        /* \"#utility.yul\":21269:21343   */\n      swap2\n      pop\n        /* \"#utility.yul\":21352:21445   */\n      tag_443\n        /* \"#utility.yul\":21441:21444   */\n      dup3\n        /* \"#utility.yul\":21352:21445   */\n      tag_257\n      jump\t// in\n    tag_443:\n        /* \"#utility.yul\":21470:21472   */\n      0x20\n        /* \"#utility.yul\":21465:21468   */\n      dup3\n        /* \"#utility.yul\":21461:21473   */\n      add\n        /* \"#utility.yul\":21454:21473   */\n      swap1\n      pop\n        /* \"#utility.yul\":21113:21479   */\n      swap2\n      swap1\n      pop\n      jump\t// out\n        /* \"#utility.yul\":21485:21904   */\n    tag_165:\n        /* \"#utility.yul\":21651:21655   */\n      0x00\n        /* \"#utility.yul\":21689:21691   */\n      0x20\n        /* \"#utility.yul\":21678:21687   */\n      dup3\n        /* \"#utility.yul\":21674:21692   */\n      add\n        /* \"#utility.yul\":21666:21692   */\n      swap1\n      pop\n        /* \"#utility.yul\":21738:21747   */\n      dup2\n        /* \"#utility.yul\":21732:21736   */\n      dup2\n        /* \"#utility.yul\":21728:21748   */\n      sub\n        /* \"#utility.yul\":21724:21725   */\n      0x00\n        /* \"#utility.yul\":21713:21722   */\n      dup4\n        /* \"#utility.yul\":21709:21726   */\n      add\n        /* \"#utility.yul\":21702:21749   */\n      mstore\n        /* \"#utility.yul\":21766:21897   */\n      tag_445\n        /* \"#utility.yul\":21892:21896   */\n      dup2\n        /* \"#utility.yul\":21766:21897   */\n      tag_258\n      jump\t// in\n    tag_445:\n        /* \"#utility.yul\":21758:21897   */\n      swap1\n      pop\n        /* \"#utility.yul\":21485:21904   */\n      swap2\n      swap1\n      pop\n      jump\t// out\n        /* \"#utility.yul\":21910:22080   */\n    tag_259:\n        /* \"#utility.yul\":22050:22072   */\n      0x4e6f7420706f736974696f6e2063726561746f72000000000000000000000000\n        /* \"#utility.yul\":22046:22047   */\n      0x00\n        /* \"#utility.yul\":22038:22044   */\n      dup3\n        /* \"#utility.yul\":22034:22048   */\n      add\n        /* \"#utility.yul\":22027:22073   */\n      mstore\n        /* \"#utility.yul\":21910:22080   */\n      pop\n      jump\t// out\n        /* \"#utility.yul\":22086:22452   */\n    tag_260:\n        /* \"#utility.yul\":22228:22231   */\n      0x00\n        /* \"#utility.yul\":22249:22316   */\n      tag_448\n        /* \"#utility.yul\":22313:22315   */\n      0x14\n        /* \"#utility.yul\":22308:22311   */\n      dup4\n        /* \"#utility.yul\":22249:22316   */\n      tag_232\n      jump\t// in\n    tag_448:\n        /* \"#utility.yul\":22242:22316   */\n      swap2\n      pop\n        /* \"#utility.yul\":22325:22418   */\n      tag_449\n        /* \"#utility.yul\":22414:22417   */\n      dup3\n        /* \"#utility.yul\":22325:22418   */\n      tag_259\n      jump\t// in\n    tag_449:\n        /* \"#utility.yul\":22443:22445   */\n      0x20\n        /* \"#utility.yul\":22438:22441   */\n      dup3\n        /* \"#utility.yul\":22434:22446   */\n      add\n        /* \"#utility.yul\":22427:22446   */\n      swap1\n      pop\n        /* \"#utility.yul\":22086:22452   */\n      swap2\n      swap1\n      pop\n      jump\t// out\n        /* \"#utility.yul\":22458:22877   */\n    tag_168:\n        /* \"#utility.yul\":22624:22628   */\n      0x00\n        /* \"#utility.yul\":22662:22664   */\n      0x20\n        /* \"#utility.yul\":22651:22660   */\n      dup3\n        /* \"#utility.yul\":22647:22665   */\n      add\n        /* \"#utility.yul\":22639:22665   */\n      swap1\n      pop\n        /* \"#utility.yul\":22711:22720   */\n      dup2\n        /* \"#utility.yul\":22705:22709   */\n      dup2\n        /* \"#utility.yul\":22701:22721   */\n      sub\n        /* \"#utility.yul\":22697:22698   */\n      0x00\n        /* \"#utility.yul\":22686:22695   */\n      dup4\n        /* \"#utility.yul\":22682:22699   */\n      add\n        /* \"#utility.yul\":22675:22722   */\n      mstore\n        /* \"#utility.yul\":22739:22870   */\n      tag_451\n        /* \"#utility.yul\":22865:22869   */\n      dup2\n        /* \"#utility.yul\":22739:22870   */\n      tag_260\n      jump\t// in\n    tag_451:\n        /* \"#utility.yul\":22731:22870   */\n      swap1\n      pop\n        /* \"#utility.yul\":22458:22877   */\n      swap2\n      swap1\n      pop\n      jump\t// out\n        /* \"#utility.yul\":22883:23055   */\n    tag_261:\n        /* \"#utility.yul\":23023:23047   */\n      0x526566756e64207472616e73666572206661696c656400000000000000000000\n        /* \"#utility.yul\":23019:23020   */\n      0x00\n        /* \"#utility.yul\":23011:23017   */\n      dup3\n        /* \"#utility.yul\":23007:23021   */\n      add\n        /* \"#utility.yul\":23000:23048   */\n      mstore\n        /* \"#utility.yul\":22883:23055   */\n      pop\n      jump\t// out\n        /* \"#utility.yul\":23061:23427   */\n    tag_262:\n        /* \"#utility.yul\":23203:23206   */\n      0x00\n        /* \"#utility.yul\":23224:23291   */\n      tag_454\n        /* \"#utility.yul\":23288:23290   */\n      0x16\n        /* \"#utility.yul\":23283:23286   */\n      dup4\n        /* \"#utility.yul\":23224:23291   */\n      tag_232\n      jump\t// in\n    tag_454:\n        /* \"#utility.yul\":23217:23291   */\n      swap2\n      pop\n        /* \"#utility.yul\":23300:23393   */\n      tag_455\n        /* \"#utility.yul\":23389:23392   */\n      dup3\n        /* \"#utility.yul\":23300:23393   */\n      tag_261\n      jump\t// in\n    tag_455:\n        /* \"#utility.yul\":23418:23420   */\n      0x20\n        /* \"#utility.yul\":23413:23416   */\n      dup3\n        /* \"#utility.yul\":23409:23421   */\n      add\n        /* \"#utility.yul\":23402:23421   */\n      swap1\n      pop\n        /* \"#utility.yul\":23061:23427   */\n      swap2\n      swap1\n      pop\n      jump\t// out\n        /* \"#utility.yul\":23433:23852   */\n    tag_175:\n        /* \"#utility.yul\":23599:23603   */\n      0x00\n        /* \"#utility.yul\":23637:23639   */\n      0x20\n        /* \"#utility.yul\":23626:23635   */\n      dup3\n        /* \"#utility.yul\":23622:23640   */\n      add\n        /* \"#utility.yul\":23614:23640   */\n      swap1\n      pop\n        /* \"#utility.yul\":23686:23695   */\n      dup2\n        /* \"#utility.yul\":23680:23684   */\n      dup2\n        /* \"#utility.yul\":23676:23696   */\n      sub\n        /* \"#utility.yul\":23672:23673   */\n      0x00\n        /* \"#utility.yul\":23661:23670   */\n      dup4\n        /* \"#utility.yul\":23657:23674   */\n      add\n        /* \"#utility.yul\":23650:23697   */\n      mstore\n        /* \"#utility.yul\":23714:23845   */\n      tag_457\n        /* \"#utility.yul\":23840:23844   */\n      dup2\n        /* \"#utility.yul\":23714:23845   */\n      tag_262\n      jump\t// in\n    tag_457:\n        /* \"#utility.yul\":23706:23845   */\n      swap1\n      pop\n        /* \"#utility.yul\":23433:23852   */\n      swap2\n      swap1\n      pop\n      jump\t// out\n        /* \"#utility.yul\":23858:24039   */\n    tag_263:\n        /* \"#utility.yul\":23998:24031   */\n      0x5265656e7472616e637947756172643a207265656e7472616e742063616c6c00\n        /* \"#utility.yul\":23994:23995   */\n      0x00\n        /* \"#utility.yul\":23986:23992   */\n      dup3\n        /* \"#utility.yul\":23982:23996   */\n      add\n        /* \"#utility.yul\":23975:24032   */\n      mstore\n        /* \"#utility.yul\":23858:24039   */\n      pop\n      jump\t// out\n        /* \"#utility.yul\":24045:24411   */\n    tag_264:\n        /* \"#utility.yul\":24187:24190   */\n      0x00\n        /* \"#utility.yul\":24208:24275   */\n      tag_460\n        /* \"#utility.yul\":24272:24274   */\n      0x1f\n        /* \"#utility.yul\":24267:24270   */\n      dup4\n        /* \"#utility.yul\":24208:24275   */\n      tag_232\n      jump\t// in\n    tag_460:\n        /* \"#utility.yul\":24201:24275   */\n      swap2\n      pop\n        /* \"#utility.yul\":24284:24377   */\n      tag_461\n        /* \"#utility.yul\":24373:24376   */\n      dup3\n        /* \"#utility.yul\":24284:24377   */\n      tag_263\n      jump\t// in\n    tag_461:\n        /* \"#utility.yul\":24402:24404   */\n      0x20\n        /* \"#utility.yul\":24397:24400   */\n      dup3\n        /* \"#utility.yul\":24393:24405   */\n      add\n        /* \"#utility.yul\":24386:24405   */\n      swap1\n      pop\n        /* \"#utility.yul\":24045:24411   */\n      swap2\n      swap1\n      pop\n      jump\t// out\n        /* \"#utility.yul\":24417:24836   */\n    tag_194:\n        /* \"#utility.yul\":24583:24587   */\n      0x00\n        /* \"#utility.yul\":24621:24623   */\n      0x20\n        /* \"#utility.yul\":24610:24619   */\n      dup3\n        /* \"#utility.yul\":24606:24624   */\n      add\n        /* \"#utility.yul\":24598:24624   */\n      swap1\n      pop\n        /* \"#utility.yul\":24670:24679   */\n      dup2\n        /* \"#utility.yul\":24664:24668   */\n      dup2\n        /* \"#utility.yul\":24660:24680   */\n      sub\n        /* \"#utility.yul\":24656:24657   */\n      0x00\n        /* \"#utility.yul\":24645:24654   */\n      dup4\n        /* \"#utility.yul\":24641:24658   */\n      add\n        /* \"#utility.yul\":24634:24681   */\n      mstore\n        /* \"#utility.yul\":24698:24829   */\n      tag_463\n        /* \"#utility.yul\":24824:24828   */\n      dup2\n        /* \"#utility.yul\":24698:24829   */\n      tag_264\n      jump\t// in\n    tag_463:\n        /* \"#utility.yul\":24690:24829   */\n      swap1\n      pop\n        /* \"#utility.yul\":24417:24836   */\n      swap2\n      swap1\n      pop\n      jump\t// out\n\n    auxdata: 0xa264697066735822122079972de9f3ff16c9636ecfefe76f2b7f9f63f98259972a5366de408c878825ba64736f6c63430008190033\n}\n",
				"bytecode": {
					"linkReferences": {},
					"object": "608060405234801561000f575f80fd5b50335f73ffffffffffffffffffffffffffffffffffffffff168173ffffffffffffffffffffffffffffffffffffffff1603610081575f6040517f1e4fbdf7000000000000000000000000000000000000000000000000000000008152600401610078919061019d565b60405180910390fd5b6100908161009d60201b60201c565b50600180819055506101b6565b5f805f9054906101000a900473ffffffffffffffffffffffffffffffffffffffff169050815f806101000a81548173ffffffffffffffffffffffffffffffffffffffff021916908373ffffffffffffffffffffffffffffffffffffffff1602179055508173ffffffffffffffffffffffffffffffffffffffff168173ffffffffffffffffffffffffffffffffffffffff167f8be0079c531659141344cd1fd0a4f28419497f9722a3daafe3b4186f6b6457e060405160405180910390a35050565b5f73ffffffffffffffffffffffffffffffffffffffff82169050919050565b5f6101878261015e565b9050919050565b6101978161017d565b82525050565b5f6020820190506101b05f83018461018e565b92915050565b612187806101c35f395ff3fe6080604052600436106100c1575f3560e01c8063899346c71161007e578063cd4e9ffa11610058578063cd4e9ffa1461025e578063eb02c30114610286578063f2fde38b146102c2578063fda1fa5f146102ea576100c1565b8063899346c7146101c75780638da5cb5b146101f157806399fbab881461021b576100c1565b806310a7bf48146100c55780632fdb4b1e146100ed5780634878d6fe1461012957806359f3d12c146101455780635cacd7fa14610175578063715018a6146101b1575b5f80fd5b3480156100d0575f80fd5b506100eb60048036038101906100e691906116f7565b610314565b005b3480156100f8575f80fd5b50610113600480360381019061010e91906116f7565b6107d5565b6040516101209190611744565b60405180910390f35b610143600480360381019061013e919061175d565b61082b565b005b61015f600480360381019061015a91906117ab565b610abd565b60405161016c9190611744565b60405180910390f35b348015610180575f80fd5b5061019b600480360381019061019691906116f7565b610dff565b6040516101a89190611744565b60405180910390f35b3480156101bc575f80fd5b506101c5610e1f565b005b3480156101d2575f80fd5b506101db610e32565b6040516101e89190611744565b60405180910390f35b3480156101fc575f80fd5b50610205610e38565b604051610212919061180a565b60405180910390f35b348015610226575f80fd5b50610241600480360381019061023c919061175d565b610e5f565b6040516102559897969594939291906118b0565b60405180910390f35b348015610269575f80fd5b50610284600480360381019061027f919061175d565b610f07565b005b348015610291575f80fd5b506102ac60048036038101906102a7919061175d565b611250565b6040516102b99190611a08565b60405180910390f35b3480156102cd575f80fd5b506102e860048036038101906102e39190611a22565b6113b3565b005b3480156102f5575f80fd5b506102fe611437565b60405161030b9190611744565b60405180910390f35b61031c611440565b61032461148f565b5f60035f8481526020019081526020015f209050806005015f9054906101000a900460ff16801561036457508060050160019054906101000a900460ff16155b6103a3576040517f08c379a000000000000000000000000000000000000000000000000000000000815260040161039a90611aa7565b60405180910390fd5b80600401544210156103ea576040517f08c379a00000000000000000000000000000000000000000000000000000000081526004016103e190611b0f565b60405180910390fd5b8060010160019054906101000a900473ffffffffffffffffffffffffffffffffffffffff1673ffffffffffffffffffffffffffffffffffffffff168273ffffffffffffffffffffffffffffffffffffffff1614806104965750806002015f9054906101000a900473ffffffffffffffffffffffffffffffffffffffff1673ffffffffffffffffffffffffffffffffffffffff168273ffffffffffffffffffffffffffffffffffffffff16145b6104d5576040517f08c379a00000000000000000000000000000000000000000000000000000000081526004016104cc90611b77565b60405180910390fd5b5f816005015f6101000a81548160ff02191690831515021790555060018160050160016101000a81548160ff0219169083151502179055505f60045f8581526020019081526020015f205f836002015f9054906101000a900473ffffffffffffffffffffffffffffffffffffffff1673ffffffffffffffffffffffffffffffffffffffff1673ffffffffffffffffffffffffffffffffffffffff1681526020019081526020015f205460045f8681526020019081526020015f205f8460010160019054906101000a900473ffffffffffffffffffffffffffffffffffffffff1673ffffffffffffffffffffffffffffffffffffffff1673ffffffffffffffffffffffffffffffffffffffff1681526020019081526020015f20546105f99190611bc2565b90505f60045f8681526020019081526020015f205f8460010160019054906101000a900473ffffffffffffffffffffffffffffffffffffffff1673ffffffffffffffffffffffffffffffffffffffff1673ffffffffffffffffffffffffffffffffffffffff1681526020019081526020015f20819055505f60045f8681526020019081526020015f205f846002015f9054906101000a900473ffffffffffffffffffffffffffffffffffffffff1673ffffffffffffffffffffffffffffffffffffffff1673ffffffffffffffffffffffffffffffffffffffff1681526020019081526020015f20819055505f8373ffffffffffffffffffffffffffffffffffffffff168260405161070990611c22565b5f6040518083038185875af1925050503d805f8114610743576040519150601f19603f3d011682016040523d82523d5f602084013e610748565b606091505b505090508061078c576040517f08c379a000000000000000000000000000000000000000000000000000000000815260040161078390611c80565b60405180910390fd5b847f98f9892eebebd6f31462317ad17c500a408bacffb142d51b60cc98ac62964d2085846040516107be929190611c9e565b60405180910390a25050506107d1611516565b5050565b5f60045f8481526020019081526020015f205f8373ffffffffffffffffffffffffffffffffffffffff1673ffffffffffffffffffffffffffffffffffffffff1681526020019081526020015f2054905092915050565b610833611440565b5f60035f8381526020019081526020015f209050806005015f9054906101000a900460ff16801561087357508060050160019054906101000a900460ff16155b6108b2576040517f08c379a00000000000000000000000000000000000000000000000000000000081526004016108a990611d0f565b60405180910390fd5b5f73ffffffffffffffffffffffffffffffffffffffff16816002015f9054906101000a900473ffffffffffffffffffffffffffffffffffffffff1673ffffffffffffffffffffffffffffffffffffffff1614610943576040517f08c379a000000000000000000000000000000000000000000000000000000000815260040161093a90611d77565b60405180910390fd5b80600401544210610989576040517f08c379a000000000000000000000000000000000000000000000000000000000815260040161098090611ddf565b60405180910390fd5b806003015434146109cf576040517f08c379a00000000000000000000000000000000000000000000000000000000081526004016109c690611e47565b60405180910390fd5b33816002015f6101000a81548173ffffffffffffffffffffffffffffffffffffffff021916908373ffffffffffffffffffffffffffffffffffffffff1602179055503460045f8481526020019081526020015f205f3373ffffffffffffffffffffffffffffffffffffffff1673ffffffffffffffffffffffffffffffffffffffff1681526020019081526020015f20819055503373ffffffffffffffffffffffffffffffffffffffff16827f93e6e6211aa281169d87ff1c659132bed4c7fa27b695b81a329b28e58b9ce15b34604051610aa99190611744565b60405180910390a350610aba611516565b50565b5f610ac6611440565b5f8311610b08576040517f08c379a0000000000000000000000000000000000000000000000000000000008152600401610aff90611eaf565b60405180910390fd5b823414610b4a576040517f08c379a0000000000000000000000000000000000000000000000000000000008152600401610b4190611e47565b60405180910390fd5b428211610b8c576040517f08c379a0000000000000000000000000000000000000000000000000000000008152600401610b8390611f17565b60405180910390fd5b60025f815480929190610b9e90611f35565b919050559050604051806101000160405280828152602001856002811115610bc957610bc8611823565b5b81526020013373ffffffffffffffffffffffffffffffffffffffff1681526020015f73ffffffffffffffffffffffffffffffffffffffff1681526020018481526020018381526020016001151581526020015f151581525060035f8381526020019081526020015f205f820151815f01556020820151816001015f6101000a81548160ff02191690836002811115610c6457610c63611823565b5b021790555060408201518160010160016101000a81548173ffffffffffffffffffffffffffffffffffffffff021916908373ffffffffffffffffffffffffffffffffffffffff1602179055506060820151816002015f6101000a81548173ffffffffffffffffffffffffffffffffffffffff021916908373ffffffffffffffffffffffffffffffffffffffff1602179055506080820151816003015560a0820151816004015560c0820151816005015f6101000a81548160ff02191690831515021790555060e08201518160050160016101000a81548160ff0219169083151502179055509050508260045f8381526020019081526020015f205f3373ffffffffffffffffffffffffffffffffffffffff1673ffffffffffffffffffffffffffffffffffffffff1681526020019081526020015f20819055503373ffffffffffffffffffffffffffffffffffffffff16817fb5086c70750d1301e82b29ad74ff6a872d8b6aacb3e187ec285fa8050626345e868686604051610de893929190611f7c565b60405180910390a3610df8611516565b9392505050565b6004602052815f5260405f20602052805f5260405f205f91509150505481565b610e2761148f565b610e305f61151f565b565b60025481565b5f805f9054906101000a900473ffffffffffffffffffffffffffffffffffffffff16905090565b6003602052805f5260405f205f91509050805f015490806001015f9054906101000a900460ff16908060010160019054906101000a900473ffffffffffffffffffffffffffffffffffffffff1690806002015f9054906101000a900473ffffffffffffffffffffffffffffffffffffffff1690806003015490806004015490806005015f9054906101000a900460ff16908060050160019054906101000a900460ff16905088565b610f0f611440565b5f60035f8381526020019081526020015f209050806005015f9054906101000a900460ff168015610f4f57508060050160019054906101000a900460ff16155b610f8e576040517f08c379a0000000000000000000000000000000000000000000000000000000008152600401610f8590611d0f565b60405180910390fd5b5f73ffffffffffffffffffffffffffffffffffffffff16816002015f9054906101000a900473ffffffffffffffffffffffffffffffffffffffff1673ffffffffffffffffffffffffffffffffffffffff161461101f576040517f08c379a000000000000000000000000000000000000000000000000000000000815260040161101690611ffb565b60405180910390fd5b8060010160019054906101000a900473ffffffffffffffffffffffffffffffffffffffff1673ffffffffffffffffffffffffffffffffffffffff163373ffffffffffffffffffffffffffffffffffffffff16146110b1576040517f08c379a00000000000000000000000000000000000000000000000000000000081526004016110a890612063565b60405180910390fd5b5f816005015f6101000a81548160ff0219169083151502179055505f60045f8481526020019081526020015f205f3373ffffffffffffffffffffffffffffffffffffffff1673ffffffffffffffffffffffffffffffffffffffff1681526020019081526020015f205490505f60045f8581526020019081526020015f205f3373ffffffffffffffffffffffffffffffffffffffff1673ffffffffffffffffffffffffffffffffffffffff1681526020019081526020015f20819055505f3373ffffffffffffffffffffffffffffffffffffffff168260405161119290611c22565b5f6040518083038185875af1925050503d805f81146111cc576040519150601f19603f3d011682016040523d82523d5f602084013e6111d1565b606091505b5050905080611215576040517f08c379a000000000000000000000000000000000000000000000000000000000815260040161120c906120cb565b60405180910390fd5b837fa8320c917d7a08141ede4cd3ad22cbe7c054020e2ba52777200aced113783f0560405160405180910390a250505061124d611516565b50565b6112586115e7565b60035f8381526020019081526020015f20604051806101000160405290815f8201548152602001600182015f9054906101000a900460ff1660028111156112a2576112a1611823565b5b60028111156112b4576112b3611823565b5b81526020016001820160019054906101000a900473ffffffffffffffffffffffffffffffffffffffff1673ffffffffffffffffffffffffffffffffffffffff1673ffffffffffffffffffffffffffffffffffffffff168152602001600282015f9054906101000a900473ffffffffffffffffffffffffffffffffffffffff1673ffffffffffffffffffffffffffffffffffffffff1673ffffffffffffffffffffffffffffffffffffffff1681526020016003820154815260200160048201548152602001600582015f9054906101000a900460ff161515151581526020016005820160019054906101000a900460ff1615151515815250509050919050565b6113bb61148f565b5f73ffffffffffffffffffffffffffffffffffffffff168173ffffffffffffffffffffffffffffffffffffffff160361142b575f6040517f1e4fbdf7000000000000000000000000000000000000000000000000000000008152600401611422919061180a565b60405180910390fd5b6114348161151f565b50565b5f600254905090565b600260015403611485576040517f08c379a000000000000000000000000000000000000000000000000000000000815260040161147c90612133565b60405180910390fd5b6002600181905550565b6114976115e0565b73ffffffffffffffffffffffffffffffffffffffff166114b5610e38565b73ffffffffffffffffffffffffffffffffffffffff1614611514576114d86115e0565b6040517f118cdaa700000000000000000000000000000000000000000000000000000000815260040161150b919061180a565b60405180910390fd5b565b60018081905550565b5f805f9054906101000a900473ffffffffffffffffffffffffffffffffffffffff169050815f806101000a81548173ffffffffffffffffffffffffffffffffffffffff021916908373ffffffffffffffffffffffffffffffffffffffff1602179055508173ffffffffffffffffffffffffffffffffffffffff168173ffffffffffffffffffffffffffffffffffffffff167f8be0079c531659141344cd1fd0a4f28419497f9722a3daafe3b4186f6b6457e060405160405180910390a35050565b5f33905090565b6040518061010001604052805f81526020015f600281111561160c5761160b611823565b5b81526020015f73ffffffffffffffffffffffffffffffffffffffff1681526020015f73ffffffffffffffffffffffffffffffffffffffff1681526020015f81526020015f81526020015f151581526020015f151581525090565b5f80fd5b5f819050919050565b61167c8161166a565b8114611686575f80fd5b50565b5f8135905061169781611673565b92915050565b5f73ffffffffffffffffffffffffffffffffffffffff82169050919050565b5f6116c68261169d565b9050919050565b6116d6816116bc565b81146116e0575f80fd5b50565b5f813590506116f1816116cd565b92915050565b5f806040838503121561170d5761170c611666565b5b5f61171a85828601611689565b925050602061172b858286016116e3565b9150509250929050565b61173e8161166a565b82525050565b5f6020820190506117575f830184611735565b92915050565b5f6020828403121561177257611771611666565b5b5f61177f84828501611689565b91505092915050565b60038110611794575f80fd5b50565b5f813590506117a581611788565b92915050565b5f805f606084860312156117c2576117c1611666565b5b5f6117cf86828701611797565b93505060206117e086828701611689565b92505060406117f186828701611689565b9150509250925092565b611804816116bc565b82525050565b5f60208201905061181d5f8301846117fb565b92915050565b7f4e487b71000000000000000000000000000000000000000000000000000000005f52602160045260245ffd5b6003811061186157611860611823565b5b50565b5f81905061187182611850565b919050565b5f61188082611864565b9050919050565b61189081611876565b82525050565b5f8115159050919050565b6118aa81611896565b82525050565b5f610100820190506118c45f83018b611735565b6118d1602083018a611887565b6118de60408301896117fb565b6118eb60608301886117fb565b6118f86080830187611735565b61190560a0830186611735565b61191260c08301856118a1565b61191f60e08301846118a1565b9998505050505050505050565b6119358161166a565b82525050565b61194481611876565b82525050565b611953816116bc565b82525050565b61196281611896565b82525050565b61010082015f82015161197d5f85018261192c565b506020820151611990602085018261193b565b5060408201516119a3604085018261194a565b5060608201516119b6606085018261194a565b5060808201516119c9608085018261192c565b5060a08201516119dc60a085018261192c565b5060c08201516119ef60c0850182611959565b5060e0820151611a0260e0850182611959565b50505050565b5f61010082019050611a1c5f830184611968565b92915050565b5f60208284031215611a3757611a36611666565b5b5f611a44848285016116e3565b91505092915050565b5f82825260208201905092915050565b7f416c726561647920736574746c6564206f7220696e61637469766500000000005f82015250565b5f611a91601b83611a4d565b9150611a9c82611a5d565b602082019050919050565b5f6020820190508181035f830152611abe81611a85565b9050919050565b7f4e6f7420796574206578706972656400000000000000000000000000000000005f82015250565b5f611af9600f83611a4d565b9150611b0482611ac5565b602082019050919050565b5f6020820190508181035f830152611b2681611aed565b9050919050565b7f57696e6e6572206d757374206265207061727469636970616e740000000000005f82015250565b5f611b61601a83611a4d565b9150611b6c82611b2d565b602082019050919050565b5f6020820190508181035f830152611b8e81611b55565b9050919050565b7f4e487b71000000000000000000000000000000000000000000000000000000005f52601160045260245ffd5b5f611bcc8261166a565b9150611bd78361166a565b9250828201905080821115611bef57611bee611b95565b5b92915050565b5f81905092915050565b50565b5f611c0d5f83611bf5565b9150611c1882611bff565b5f82019050919050565b5f611c2c82611c02565b9150819050919050565b7f5472616e73666572206661696c656400000000000000000000000000000000005f82015250565b5f611c6a600f83611a4d565b9150611c7582611c36565b602082019050919050565b5f6020820190508181035f830152611c9781611c5e565b9050919050565b5f604082019050611cb15f8301856117fb565b611cbe6020830184611735565b9392505050565b7f506f736974696f6e206e6f7420616374697665000000000000000000000000005f82015250565b5f611cf9601383611a4d565b9150611d0482611cc5565b602082019050919050565b5f6020820190508181035f830152611d2681611ced565b9050919050565b7f506f736974696f6e20616c7265616479206a6f696e65640000000000000000005f82015250565b5f611d61601783611a4d565b9150611d6c82611d2d565b602082019050919050565b5f6020820190508181035f830152611d8e81611d55565b9050919050565b7f506f736974696f6e2065787069726564000000000000000000000000000000005f82015250565b5f611dc9601083611a4d565b9150611dd482611d95565b602082019050919050565b5f6020820190508181035f830152611df681611dbd565b9050919050565b7f496e636f727265637420636f6c6c61746572616c20616d6f756e7400000000005f82015250565b5f611e31601b83611a4d565b9150611e3c82611dfd565b602082019050919050565b5f6020820190508181035f830152611e5e81611e25565b9050919050565b7f436f6c6c61746572616c206d757374206265203e2030000000000000000000005f82015250565b5f611e99601683611a4d565b9150611ea482611e65565b602082019050919050565b5f6020820190508181035f830152611ec681611e8d565b9050919050565b7f457870697279206d75737420626520696e2074686520667574757265000000005f82015250565b5f611f01601c83611a4d565b9150611f0c82611ecd565b602082019050919050565b5f6020820190508181035f830152611f2e81611ef5565b9050919050565b5f611f3f8261166a565b91507fffffffffffffffffffffffffffffffffffffffffffffffffffffffffffffffff8203611f7157611f70611b95565b5b600182019050919050565b5f606082019050611f8f5f830186611887565b611f9c6020830185611735565b611fa96040830184611735565b949350505050565b7f436f756e7465727061727479206a6f696e6564000000000000000000000000005f82015250565b5f611fe5601383611a4d565b9150611ff082611fb1565b602082019050919050565b5f6020820190508181035f83015261201281611fd9565b9050919050565b7f4e6f7420706f736974696f6e2063726561746f720000000000000000000000005f82015250565b5f61204d601483611a4d565b915061205882612019565b602082019050919050565b5f6020820190508181035f83015261207a81612041565b9050919050565b7f526566756e64207472616e73666572206661696c6564000000000000000000005f82015250565b5f6120b5601683611a4d565b91506120c082612081565b602082019050919050565b5f6020820190508181035f8301526120e2816120a9565b9050919050565b7f5265656e7472616e637947756172643a207265656e7472616e742063616c6c005f82015250565b5f61211d601f83611a4d565b9150612128826120e9565b602082019050919050565b5f6020820190508181035f83015261214a81612111565b905091905056fea264697066735822122079972de9f3ff16c9636ecfefe76f2b7f9f63f98259972a5366de408c878825ba64736f6c63430008190033",
					"opcodes": "PUSH1 0x80 PUSH1 0x40 MSTORE CALLVALUE DUP1 ISZERO PUSH2 0xF JUMPI PUSH0 DUP1 REVERT JUMPDEST POP CALLER PUSH0 PUSH20 0xFFFFFFFFFFFFFFFFFFFFFFFFFFFFFFFFFFFFFFFF AND DUP2 PUSH20 0xFFFFFFFFFFFFFFFFFFFFFFFFFFFFFFFFFFFFFFFF AND SUB PUSH2 0x81 JUMPI PUSH0 PUSH1 0x40 MLOAD PUSH32 0x1E4FBDF700000000000000000000000000000000000000000000000000000000 DUP2 MSTORE PUSH1 0x4 ADD PUSH2 0x78 SWAP2 SWAP1 PUSH2 0x19D JUMP JUMPDEST PUSH1 0x40 MLOAD DUP1 SWAP2 SUB SWAP1 REVERT JUMPDEST PUSH2 0x90 DUP2 PUSH2 0x9D PUSH1 0x20 SHL PUSH1 0x20 SHR JUMP JUMPDEST POP PUSH1 0x1 DUP1 DUP2 SWAP1 SSTORE POP PUSH2 0x1B6 JUMP JUMPDEST PUSH0 DUP1 PUSH0 SWAP1 SLOAD SWAP1 PUSH2 0x100 EXP SWAP1 DIV PUSH20 0xFFFFFFFFFFFFFFFFFFFFFFFFFFFFFFFFFFFFFFFF AND SWAP1 POP DUP2 PUSH0 DUP1 PUSH2 0x100 EXP DUP2 SLOAD DUP2 PUSH20 0xFFFFFFFFFFFFFFFFFFFFFFFFFFFFFFFFFFFFFFFF MUL NOT AND SWAP1 DUP4 PUSH20 0xFFFFFFFFFFFFFFFFFFFFFFFFFFFFFFFFFFFFFFFF AND MUL OR SWAP1 SSTORE POP DUP2 PUSH20 0xFFFFFFFFFFFFFFFFFFFFFFFFFFFFFFFFFFFFFFFF AND DUP2 PUSH20 0xFFFFFFFFFFFFFFFFFFFFFFFFFFFFFFFFFFFFFFFF AND PUSH32 0x8BE0079C531659141344CD1FD0A4F28419497F9722A3DAAFE3B4186F6B6457E0 PUSH1 0x40 MLOAD PUSH1 0x40 MLOAD DUP1 SWAP2 SUB SWAP1 LOG3 POP POP JUMP JUMPDEST PUSH0 PUSH20 0xFFFFFFFFFFFFFFFFFFFFFFFFFFFFFFFFFFFFFFFF DUP3 AND SWAP1 POP SWAP2 SWAP1 POP JUMP JUMPDEST PUSH0 PUSH2 0x187 DUP3 PUSH2 0x15E JUMP JUMPDEST SWAP1 POP SWAP2 SWAP1 POP JUMP JUMPDEST PUSH2 0x197 DUP2 PUSH2 0x17D JUMP JUMPDEST DUP3 MSTORE POP POP JUMP JUMPDEST PUSH0 PUSH1 0x20 DUP3 ADD SWAP1 POP PUSH2 0x1B0 PUSH0 DUP4 ADD DUP5 PUSH2 0x18E JUMP JUMPDEST SWAP3 SWAP2 POP POP JUMP JUMPDEST PUSH2 0x2187 DUP1 PUSH2 0x1C3 PUSH0 CODECOPY PUSH0 RETURN INVALID PUSH1 0x80 PUSH1 0x40 MSTORE PUSH1 0x4 CALLDATASIZE LT PUSH2 0xC1 JUMPI PUSH0 CALLDATALOAD PUSH1 0xE0 SHR DUP1 PUSH4 0x899346C7 GT PUSH2 0x7E JUMPI DUP1 PUSH4 0xCD4E9FFA GT PUSH2 0x58 JUMPI DUP1 PUSH4 0xCD4E9FFA EQ PUSH2 0x25E JUMPI DUP1 PUSH4 0xEB02C301 EQ PUSH2 0x286 JUMPI DUP1 PUSH4 0xF2FDE38B EQ PUSH2 0x2C2 JUMPI DUP1 PUSH4 0xFDA1FA5F EQ PUSH2 0x2EA JUMPI PUSH2 0xC1 JUMP JUMPDEST DUP1 PUSH4 0x899346C7 EQ PUSH2 0x1C7 JUMPI DUP1 PUSH4 0x8DA5CB5B EQ PUSH2 0x1F1 JUMPI DUP1 PUSH4 0x99FBAB88 EQ PUSH2 0x21B JUMPI PUSH2 0xC1 JUMP JUMPDEST DUP1 PUSH4 0x10A7BF48 EQ PUSH2 0xC5 JUMPI DUP1 PUSH4 0x2FDB4B1E EQ PUSH2 0xED JUMPI DUP1 PUSH4 0x4878D6FE EQ PUSH2 0x129 JUMPI DUP1 PUSH4 0x59F3D12C EQ PUSH2 0x145 JUMPI DUP1 PUSH4 0x5CACD7FA EQ PUSH2 0x175 JUMPI DUP1 PUSH4 0x715018A6 EQ PUSH2 0x1B1 JUMPI JUMPDEST PUSH0 DUP1 REVERT JUMPDEST CALLVALUE DUP1 ISZERO PUSH2 0xD0 JUMPI PUSH0 DUP1 REVERT JUMPDEST POP PUSH2 0xEB PUSH1 0x4 DUP1 CALLDATASIZE SUB DUP2 ADD SWAP1 PUSH2 0xE6 SWAP2 SWAP1 PUSH2 0x16F7 JUMP JUMPDEST PUSH2 0x314 JUMP JUMPDEST STOP JUMPDEST CALLVALUE DUP1 ISZERO PUSH2 0xF8 JUMPI PUSH0 DUP1 REVERT JUMPDEST POP PUSH2 0x113 PUSH1 0x4 DUP1 CALLDATASIZE SUB DUP2 ADD SWAP1 PUSH2 0x10E SWAP2 SWAP1 PUSH2 0x16F7 JUMP JUMPDEST PUSH2 0x7D5 JUMP JUMPDEST PUSH1 0x40 MLOAD PUSH2 0x120 SWAP2 SWAP1 PUSH2 0x1744 JUMP JUMPDEST PUSH1 0x40 MLOAD DUP1 SWAP2 SUB SWAP1 RETURN JUMPDEST PUSH2 0x143 PUSH1 0x4 DUP1 CALLDATASIZE SUB DUP2 ADD SWAP1 PUSH2 0x13E SWAP2 SWAP1 PUSH2 0x175D JUMP JUMPDEST PUSH2 0x82B JUMP JUMPDEST STOP JUMPDEST PUSH2 0x15F PUSH1 0x4 DUP1 CALLDATASIZE SUB DUP2 ADD SWAP1 PUSH2 0x15A SWAP2 SWAP1 PUSH2 0x17AB JUMP JUMPDEST PUSH2 0xABD JUMP JUMPDEST PUSH1 0x40 MLOAD PUSH2 0x16C SWAP2 SWAP1 PUSH2 0x1744 JUMP JUMPDEST PUSH1 0x40 MLOAD DUP1 SWAP2 SUB SWAP1 RETURN JUMPDEST CALLVALUE DUP1 ISZERO PUSH2 0x180 JUMPI PUSH0 DUP1 REVERT JUMPDEST POP PUSH2 0x19B PUSH1 0x4 DUP1 CALLDATASIZE SUB DUP2 ADD SWAP1 PUSH2 0x196 SWAP2 SWAP1 PUSH2 0x16F7 JUMP JUMPDEST PUSH2 0xDFF JUMP JUMPDEST PUSH1 0x40 MLOAD PUSH2 0x1A8 SWAP2 SWAP1 PUSH2 0x1744 JUMP JUMPDEST PUSH1 0x40 MLOAD DUP1 SWAP2 SUB SWAP1 RETURN JUMPDEST CALLVALUE DUP1 ISZERO PUSH2 0x1BC JUMPI PUSH0 DUP1 REVERT JUMPDEST POP PUSH2 0x1C5 PUSH2 0xE1F JUMP JUMPDEST STOP JUMPDEST CALLVALUE DUP1 ISZERO PUSH2 0x1D2 JUMPI PUSH0 DUP1 REVERT JUMPDEST POP PUSH2 0x1DB PUSH2 0xE32 JUMP JUMPDEST PUSH1 0x40 MLOAD PUSH2 0x1E8 SWAP2 SWAP1 PUSH2 0x1744 JUMP JUMPDEST PUSH1 0x40 MLOAD DUP1 SWAP2 SUB SWAP1 RETURN JUMPDEST CALLVALUE DUP1 ISZERO PUSH2 0x1FC JUMPI PUSH0 DUP1 REVERT JUMPDEST POP PUSH2 0x205 PUSH2 0xE38 JUMP JUMPDEST PUSH1 0x40 MLOAD PUSH2 0x212 SWAP2 SWAP1 PUSH2 0x180A JUMP JUMPDEST PUSH1 0x40 MLOAD DUP1 SWAP2 SUB SWAP1 RETURN JUMPDEST CALLVALUE DUP1 ISZERO PUSH2 0x226 JUMPI PUSH0 DUP1 REVERT JUMPDEST POP PUSH2 0x241 PUSH1 0x4 DUP1 CALLDATASIZE SUB DUP2 ADD SWAP1 PUSH2 0x23C SWAP2 SWAP1 PUSH2 0x175D JUMP JUMPDEST PUSH2 0xE5F JUMP JUMPDEST PUSH1 0x40 MLOAD PUSH2 0x255 SWAP9 SWAP8 SWAP7 SWAP6 SWAP5 SWAP4 SWAP3 SWAP2 SWAP1 PUSH2 0x18B0 JUMP JUMPDEST PUSH1 0x40 MLOAD DUP1 SWAP2 SUB SWAP1 RETURN JUMPDEST CALLVALUE DUP1 ISZERO PUSH2 0x269 JUMPI PUSH0 DUP1 REVERT JUMPDEST POP PUSH2 0x284 PUSH1 0x4 DUP1 CALLDATASIZE SUB DUP2 ADD SWAP1 PUSH2 0x27F SWAP2 SWAP1 PUSH2 0x175D JUMP JUMPDEST PUSH2 0xF07 JUMP JUMPDEST STOP JUMPDEST CALLVALUE DUP1 ISZERO PUSH2 0x291 JUMPI PUSH0 DUP1 REVERT JUMPDEST POP PUSH2 0x2AC PUSH1 0x4 DUP1 CALLDATASIZE SUB DUP2 ADD SWAP1 PUSH2 0x2A7 SWAP2 SWAP1 PUSH2 0x175D JUMP JUMPDEST PUSH2 0x1250 JUMP JUMPDEST PUSH1 0x40 MLOAD PUSH2 0x2B9 SWAP2 SWAP1 PUSH2 0x1A08 JUMP JUMPDEST PUSH1 0x40 MLOAD DUP1 SWAP2 SUB SWAP1 RETURN JUMPDEST CALLVALUE DUP1 ISZERO PUSH2 0x2CD JUMPI PUSH0 DUP1 REVERT JUMPDEST POP PUSH2 0x2E8 PUSH1 0x4 DUP1 CALLDATASIZE SUB DUP2 ADD SWAP1 PUSH2 0x2E3 SWAP2 SWAP1 PUSH2 0x1A22 JUMP JUMPDEST PUSH2 0x13B3 JUMP JUMPDEST STOP JUMPDEST CALLVALUE DUP1 ISZERO PUSH2 0x2F5 JUMPI PUSH0 DUP1 REVERT JUMPDEST POP PUSH2 0x2FE PUSH2 0x1437 JUMP JUMPDEST PUSH1 0x40 MLOAD PUSH2 0x30B SWAP2 SWAP1 PUSH2 0x1744 JUMP JUMPDEST PUSH1 0x40 MLOAD DUP1 SWAP2 SUB SWAP1 RETURN JUMPDEST PUSH2 0x31C PUSH2 0x1440 JUMP JUMPDEST PUSH2 0x324 PUSH2 0x148F JUMP JUMPDEST PUSH0 PUSH1 0x3 PUSH0 DUP5 DUP2 MSTORE PUSH1 0x20 ADD SWAP1 DUP2 MSTORE PUSH1 0x20 ADD PUSH0 KECCAK256 SWAP1 POP DUP1 PUSH1 0x5 ADD PUSH0 SWAP1 SLOAD SWAP1 PUSH2 0x100 EXP SWAP1 DIV PUSH1 0xFF AND DUP1 ISZERO PUSH2 0x364 JUMPI POP DUP1 PUSH1 0x5 ADD PUSH1 0x1 SWAP1 SLOAD SWAP1 PUSH2 0x100 EXP SWAP1 DIV PUSH1 0xFF AND ISZERO JUMPDEST PUSH2 0x3A3 JUMPI PUSH1 0x40 MLOAD PUSH32 0x8C379A000000000000000000000000000000000000000000000000000000000 DUP2 MSTORE PUSH1 0x4 ADD PUSH2 0x39A SWAP1 PUSH2 0x1AA7 JUMP JUMPDEST PUSH1 0x40 MLOAD DUP1 SWAP2 SUB SWAP1 REVERT JUMPDEST DUP1 PUSH1 0x4 ADD SLOAD TIMESTAMP LT ISZERO PUSH2 0x3EA JUMPI PUSH1 0x40 MLOAD PUSH32 0x8C379A000000000000000000000000000000000000000000000000000000000 DUP2 MSTORE PUSH1 0x4 ADD PUSH2 0x3E1 SWAP1 PUSH2 0x1B0F JUMP JUMPDEST PUSH1 0x40 MLOAD DUP1 SWAP2 SUB SWAP1 REVERT JUMPDEST DUP1 PUSH1 0x1 ADD PUSH1 0x1 SWAP1 SLOAD SWAP1 PUSH2 0x100 EXP SWAP1 DIV PUSH20 0xFFFFFFFFFFFFFFFFFFFFFFFFFFFFFFFFFFFFFFFF AND PUSH20 0xFFFFFFFFFFFFFFFFFFFFFFFFFFFFFFFFFFFFFFFF AND DUP3 PUSH20 0xFFFFFFFFFFFFFFFFFFFFFFFFFFFFFFFFFFFFFFFF AND EQ DUP1 PUSH2 0x496 JUMPI POP DUP1 PUSH1 0x2 ADD PUSH0 SWAP1 SLOAD SWAP1 PUSH2 0x100 EXP SWAP1 DIV PUSH20 0xFFFFFFFFFFFFFFFFFFFFFFFFFFFFFFFFFFFFFFFF AND PUSH20 0xFFFFFFFFFFFFFFFFFFFFFFFFFFFFFFFFFFFFFFFF AND DUP3 PUSH20 0xFFFFFFFFFFFFFFFFFFFFFFFFFFFFFFFFFFFFFFFF AND EQ JUMPDEST PUSH2 0x4D5 JUMPI PUSH1 0x40 MLOAD PUSH32 0x8C379A000000000000000000000000000000000000000000000000000000000 DUP2 MSTORE PUSH1 0x4 ADD PUSH2 0x4CC SWAP1 PUSH2 0x1B77 JUMP JUMPDEST PUSH1 0x40 MLOAD DUP1 SWAP2 SUB SWAP1 REVERT JUMPDEST PUSH0 DUP2 PUSH1 0x5 ADD PUSH0 PUSH2 0x100 EXP DUP2 SLOAD DUP2 PUSH1 0xFF MUL NOT AND SWAP1 DUP4 ISZERO ISZERO MUL OR SWAP1 SSTORE POP PUSH1 0x1 DUP2 PUSH1 0x5 ADD PUSH1 0x1 PUSH2 0x100 EXP DUP2 SLOAD DUP2 PUSH1 0xFF MUL NOT AND SWAP1 DUP4 ISZERO ISZERO MUL OR SWAP1 SSTORE POP PUSH0 PUSH1 0x4 PUSH0 DUP6 DUP2 MSTORE PUSH1 0x20 ADD SWAP1 DUP2 MSTORE PUSH1 0x20 ADD PUSH0 KECCAK256 PUSH0 DUP4 PUSH1 0x2 ADD PUSH0 SWAP1 SLOAD SWAP1 PUSH2 0x100 EXP SWAP1 DIV PUSH20 0xFFFFFFFFFFFFFFFFFFFFFFFFFFFFFFFFFFFFFFFF AND PUSH20 0xFFFFFFFFFFFFFFFFFFFFFFFFFFFFFFFFFFFFFFFF AND PUSH20 0xFFFFFFFFFFFFFFFFFFFFFFFFFFFFFFFFFFFFFFFF AND DUP2 MSTORE PUSH1 0x20 ADD SWAP1 DUP2 MSTORE PUSH1 0x20 ADD PUSH0 KECCAK256 SLOAD PUSH1 0x4 PUSH0 DUP7 DUP2 MSTORE PUSH1 0x20 ADD SWAP1 DUP2 MSTORE PUSH1 0x20 ADD PUSH0 KECCAK256 PUSH0 DUP5 PUSH1 0x1 ADD PUSH1 0x1 SWAP1 SLOAD SWAP1 PUSH2 0x100 EXP SWAP1 DIV PUSH20 0xFFFFFFFFFFFFFFFFFFFFFFFFFFFFFFFFFFFFFFFF AND PUSH20 0xFFFFFFFFFFFFFFFFFFFFFFFFFFFFFFFFFFFFFFFF AND PUSH20 0xFFFFFFFFFFFFFFFFFFFFFFFFFFFFFFFFFFFFFFFF AND DUP2 MSTORE PUSH1 0x20 ADD SWAP1 DUP2 MSTORE PUSH1 0x20 ADD PUSH0 KECCAK256 SLOAD PUSH2 0x5F9 SWAP2 SWAP1 PUSH2 0x1BC2 JUMP JUMPDEST SWAP1 POP PUSH0 PUSH1 0x4 PUSH0 DUP7 DUP2 MSTORE PUSH1 0x20 ADD SWAP1 DUP2 MSTORE PUSH1 0x20 ADD PUSH0 KECCAK256 PUSH0 DUP5 PUSH1 0x1 ADD PUSH1 0x1 SWAP1 SLOAD SWAP1 PUSH2 0x100 EXP SWAP1 DIV PUSH20 0xFFFFFFFFFFFFFFFFFFFFFFFFFFFFFFFFFFFFFFFF AND PUSH20 0xFFFFFFFFFFFFFFFFFFFFFFFFFFFFFFFFFFFFFFFF AND PUSH20 0xFFFFFFFFFFFFFFFFFFFFFFFFFFFFFFFFFFFFFFFF AND DUP2 MSTORE PUSH1 0x20 ADD SWAP1 DUP2 MSTORE PUSH1 0x20 ADD PUSH0 KECCAK256 DUP2 SWAP1 SSTORE POP PUSH0 PUSH1 0x4 PUSH0 DUP7 DUP2 MSTORE PUSH1 0x20 ADD SWAP1 DUP2 MSTORE PUSH1 0x20 ADD PUSH0 KECCAK256 PUSH0 DUP5 PUSH1 0x2 ADD PUSH0 SWAP1 SLOAD SWAP1 PUSH2 0x100 EXP SWAP1 DIV PUSH20 0xFFFFFFFFFFFFFFFFFFFFFFFFFFFFFFFFFFFFFFFF AND PUSH20 0xFFFFFFFFFFFFFFFFFFFFFFFFFFFFFFFFFFFFFFFF AND PUSH20 0xFFFFFFFFFFFFFFFFFFFFFFFFFFFFFFFFFFFFFFFF AND DUP2 MSTORE PUSH1 0x20 ADD SWAP1 DUP2 MSTORE PUSH1 0x20 ADD PUSH0 KECCAK256 DUP2 SWAP1 SSTORE POP PUSH0 DUP4 PUSH20 0xFFFFFFFFFFFFFFFFFFFFFFFFFFFFFFFFFFFFFFFF AND DUP3 PUSH1 0x40 MLOAD PUSH2 0x709 SWAP1 PUSH2 0x1C22 JUMP JUMPDEST PUSH0 PUSH1 0x40 MLOAD DUP1 DUP4 SUB DUP2 DUP6 DUP8 GAS CALL SWAP3 POP POP POP RETURNDATASIZE DUP1 PUSH0 DUP2 EQ PUSH2 0x743 JUMPI PUSH1 0x40 MLOAD SWAP2 POP PUSH1 0x1F NOT PUSH1 0x3F RETURNDATASIZE ADD AND DUP3 ADD PUSH1 0x40 MSTORE RETURNDATASIZE DUP3 MSTORE RETURNDATASIZE PUSH0 PUSH1 0x20 DUP5 ADD RETURNDATACOPY PUSH2 0x748 JUMP JUMPDEST PUSH1 0x60 SWAP2 POP JUMPDEST POP POP SWAP1 POP DUP1 PUSH2 0x78C JUMPI PUSH1 0x40 MLOAD PUSH32 0x8C379A000000000000000000000000000000000000000000000000000000000 DUP2 MSTORE PUSH1 0x4 ADD PUSH2 0x783 SWAP1 PUSH2 0x1C80 JUMP JUMPDEST PUSH1 0x40 MLOAD DUP1 SWAP2 SUB SWAP1 REVERT JUMPDEST DUP5 PUSH32 0x98F9892EEBEBD6F31462317AD17C500A408BACFFB142D51B60CC98AC62964D20 DUP6 DUP5 PUSH1 0x40 MLOAD PUSH2 0x7BE SWAP3 SWAP2 SWAP1 PUSH2 0x1C9E JUMP JUMPDEST PUSH1 0x40 MLOAD DUP1 SWAP2 SUB SWAP1 LOG2 POP POP POP PUSH2 0x7D1 PUSH2 0x1516 JUMP JUMPDEST POP POP JUMP JUMPDEST PUSH0 PUSH1 0x4 PUSH0 DUP5 DUP2 MSTORE PUSH1 0x20 ADD SWAP1 DUP2 MSTORE PUSH1 0x20 ADD PUSH0 KECCAK256 PUSH0 DUP4 PUSH20 0xFFFFFFFFFFFFFFFFFFFFFFFFFFFFFFFFFFFFFFFF AND PUSH20 0xFFFFFFFFFFFFFFFFFFFFFFFFFFFFFFFFFFFFFFFF AND DUP2 MSTORE PUSH1 0x20 ADD SWAP1 DUP2 MSTORE PUSH1 0x20 ADD PUSH0 KECCAK256 SLOAD SWAP1 POP SWAP3 SWAP2 POP POP JUMP JUMPDEST PUSH2 0x833 PUSH2 0x1440 JUMP JUMPDEST PUSH0 PUSH1 0x3 PUSH0 DUP4 DUP2 MSTORE PUSH1 0x20 ADD SWAP1 DUP2 MSTORE PUSH1 0x20 ADD PUSH0 KECCAK256 SWAP1 POP DUP1 PUSH1 0x5 ADD PUSH0 SWAP1 SLOAD SWAP1 PUSH2 0x100 EXP SWAP1 DIV PUSH1 0xFF AND DUP1 ISZERO PUSH2 0x873 JUMPI POP DUP1 PUSH1 0x5 ADD PUSH1 0x1 SWAP1 SLOAD SWAP1 PUSH2 0x100 EXP SWAP1 DIV PUSH1 0xFF AND ISZERO JUMPDEST PUSH2 0x8B2 JUMPI PUSH1 0x40 MLOAD PUSH32 0x8C379A000000000000000000000000000000000000000000000000000000000 DUP2 MSTORE PUSH1 0x4 ADD PUSH2 0x8A9 SWAP1 PUSH2 0x1D0F JUMP JUMPDEST PUSH1 0x40 MLOAD DUP1 SWAP2 SUB SWAP1 REVERT JUMPDEST PUSH0 PUSH20 0xFFFFFFFFFFFFFFFFFFFFFFFFFFFFFFFFFFFFFFFF AND DUP2 PUSH1 0x2 ADD PUSH0 SWAP1 SLOAD SWAP1 PUSH2 0x100 EXP SWAP1 DIV PUSH20 0xFFFFFFFFFFFFFFFFFFFFFFFFFFFFFFFFFFFFFFFF AND PUSH20 0xFFFFFFFFFFFFFFFFFFFFFFFFFFFFFFFFFFFFFFFF AND EQ PUSH2 0x943 JUMPI PUSH1 0x40 MLOAD PUSH32 0x8C379A000000000000000000000000000000000000000000000000000000000 DUP2 MSTORE PUSH1 0x4 ADD PUSH2 0x93A SWAP1 PUSH2 0x1D77 JUMP JUMPDEST PUSH1 0x40 MLOAD DUP1 SWAP2 SUB SWAP1 REVERT JUMPDEST DUP1 PUSH1 0x4 ADD SLOAD TIMESTAMP LT PUSH2 0x989 JUMPI PUSH1 0x40 MLOAD PUSH32 0x8C379A000000000000000000000000000000000000000000000000000000000 DUP2 MSTORE PUSH1 0x4 ADD PUSH2 0x980 SWAP1 PUSH2 0x1DDF JUMP JUMPDEST PUSH1 0x40 MLOAD DUP1 SWAP2 SUB SWAP1 REVERT JUMPDEST DUP1 PUSH1 0x3 ADD SLOAD CALLVALUE EQ PUSH2 0x9CF JUMPI PUSH1 0x40 MLOAD PUSH32 0x8C379A000000000000000000000000000000000000000000000000000000000 DUP2 MSTORE PUSH1 0x4 ADD PUSH2 0x9C6 SWAP1 PUSH2 0x1E47 JUMP JUMPDEST PUSH1 0x40 MLOAD DUP1 SWAP2 SUB SWAP1 REVERT JUMPDEST CALLER DUP2 PUSH1 0x2 ADD PUSH0 PUSH2 0x100 EXP DUP2 SLOAD DUP2 PUSH20 0xFFFFFFFFFFFFFFFFFFFFFFFFFFFFFFFFFFFFFFFF MUL NOT AND SWAP1 DUP4 PUSH20 0xFFFFFFFFFFFFFFFFFFFFFFFFFFFFFFFFFFFFFFFF AND MUL OR SWAP1 SSTORE POP CALLVALUE PUSH1 0x4 PUSH0 DUP5 DUP2 MSTORE PUSH1 0x20 ADD SWAP1 DUP2 MSTORE PUSH1 0x20 ADD PUSH0 KECCAK256 PUSH0 CALLER PUSH20 0xFFFFFFFFFFFFFFFFFFFFFFFFFFFFFFFFFFFFFFFF AND PUSH20 0xFFFFFFFFFFFFFFFFFFFFFFFFFFFFFFFFFFFFFFFF AND DUP2 MSTORE PUSH1 0x20 ADD SWAP1 DUP2 MSTORE PUSH1 0x20 ADD PUSH0 KECCAK256 DUP2 SWAP1 SSTORE POP CALLER PUSH20 0xFFFFFFFFFFFFFFFFFFFFFFFFFFFFFFFFFFFFFFFF AND DUP3 PUSH32 0x93E6E6211AA281169D87FF1C659132BED4C7FA27B695B81A329B28E58B9CE15B CALLVALUE PUSH1 0x40 MLOAD PUSH2 0xAA9 SWAP2 SWAP1 PUSH2 0x1744 JUMP JUMPDEST PUSH1 0x40 MLOAD DUP1 SWAP2 SUB SWAP1 LOG3 POP PUSH2 0xABA PUSH2 0x1516 JUMP JUMPDEST POP JUMP JUMPDEST PUSH0 PUSH2 0xAC6 PUSH2 0x1440 JUMP JUMPDEST PUSH0 DUP4 GT PUSH2 0xB08 JUMPI PUSH1 0x40 MLOAD PUSH32 0x8C379A000000000000000000000000000000000000000000000000000000000 DUP2 MSTORE PUSH1 0x4 ADD PUSH2 0xAFF SWAP1 PUSH2 0x1EAF JUMP JUMPDEST PUSH1 0x40 MLOAD DUP1 SWAP2 SUB SWAP1 REVERT JUMPDEST DUP3 CALLVALUE EQ PUSH2 0xB4A JUMPI PUSH1 0x40 MLOAD PUSH32 0x8C379A000000000000000000000000000000000000000000000000000000000 DUP2 MSTORE PUSH1 0x4 ADD PUSH2 0xB41 SWAP1 PUSH2 0x1E47 JUMP JUMPDEST PUSH1 0x40 MLOAD DUP1 SWAP2 SUB SWAP1 REVERT JUMPDEST TIMESTAMP DUP3 GT PUSH2 0xB8C JUMPI PUSH1 0x40 MLOAD PUSH32 0x8C379A000000000000000000000000000000000000000000000000000000000 DUP2 MSTORE PUSH1 0x4 ADD PUSH2 0xB83 SWAP1 PUSH2 0x1F17 JUMP JUMPDEST PUSH1 0x40 MLOAD DUP1 SWAP2 SUB SWAP1 REVERT JUMPDEST PUSH1 0x2 PUSH0 DUP2 SLOAD DUP1 SWAP3 SWAP2 SWAP1 PUSH2 0xB9E SWAP1 PUSH2 0x1F35 JUMP JUMPDEST SWAP2 SWAP1 POP SSTORE SWAP1 POP PUSH1 0x40 MLOAD DUP1 PUSH2 0x100 ADD PUSH1 0x40 MSTORE DUP1 DUP3 DUP2 MSTORE PUSH1 0x20 ADD DUP6 PUSH1 0x2 DUP2 GT ISZERO PUSH2 0xBC9 JUMPI PUSH2 0xBC8 PUSH2 0x1823 JUMP JUMPDEST JUMPDEST DUP2 MSTORE PUSH1 0x20 ADD CALLER PUSH20 0xFFFFFFFFFFFFFFFFFFFFFFFFFFFFFFFFFFFFFFFF AND DUP2 MSTORE PUSH1 0x20 ADD PUSH0 PUSH20 0xFFFFFFFFFFFFFFFFFFFFFFFFFFFFFFFFFFFFFFFF AND DUP2 MSTORE PUSH1 0x20 ADD DUP5 DUP2 MSTORE PUSH1 0x20 ADD DUP4 DUP2 MSTORE PUSH1 0x20 ADD PUSH1 0x1 ISZERO ISZERO DUP2 MSTORE PUSH1 0x20 ADD PUSH0 ISZERO ISZERO DUP2 MSTORE POP PUSH1 0x3 PUSH0 DUP4 DUP2 MSTORE PUSH1 0x20 ADD SWAP1 DUP2 MSTORE PUSH1 0x20 ADD PUSH0 KECCAK256 PUSH0 DUP3 ADD MLOAD DUP2 PUSH0 ADD SSTORE PUSH1 0x20 DUP3 ADD MLOAD DUP2 PUSH1 0x1 ADD PUSH0 PUSH2 0x100 EXP DUP2 SLOAD DUP2 PUSH1 0xFF MUL NOT AND SWAP1 DUP4 PUSH1 0x2 DUP2 GT ISZERO PUSH2 0xC64 JUMPI PUSH2 0xC63 PUSH2 0x1823 JUMP JUMPDEST JUMPDEST MUL OR SWAP1 SSTORE POP PUSH1 0x40 DUP3 ADD MLOAD DUP2 PUSH1 0x1 ADD PUSH1 0x1 PUSH2 0x100 EXP DUP2 SLOAD DUP2 PUSH20 0xFFFFFFFFFFFFFFFFFFFFFFFFFFFFFFFFFFFFFFFF MUL NOT AND SWAP1 DUP4 PUSH20 0xFFFFFFFFFFFFFFFFFFFFFFFFFFFFFFFFFFFFFFFF AND MUL OR SWAP1 SSTORE POP PUSH1 0x60 DUP3 ADD MLOAD DUP2 PUSH1 0x2 ADD PUSH0 PUSH2 0x100 EXP DUP2 SLOAD DUP2 PUSH20 0xFFFFFFFFFFFFFFFFFFFFFFFFFFFFFFFFFFFFFFFF MUL NOT AND SWAP1 DUP4 PUSH20 0xFFFFFFFFFFFFFFFFFFFFFFFFFFFFFFFFFFFFFFFF AND MUL OR SWAP1 SSTORE POP PUSH1 0x80 DUP3 ADD MLOAD DUP2 PUSH1 0x3 ADD SSTORE PUSH1 0xA0 DUP3 ADD MLOAD DUP2 PUSH1 0x4 ADD SSTORE PUSH1 0xC0 DUP3 ADD MLOAD DUP2 PUSH1 0x5 ADD PUSH0 PUSH2 0x100 EXP DUP2 SLOAD DUP2 PUSH1 0xFF MUL NOT AND SWAP1 DUP4 ISZERO ISZERO MUL OR SWAP1 SSTORE POP PUSH1 0xE0 DUP3 ADD MLOAD DUP2 PUSH1 0x5 ADD PUSH1 0x1 PUSH2 0x100 EXP DUP2 SLOAD DUP2 PUSH1 0xFF MUL NOT AND SWAP1 DUP4 ISZERO ISZERO MUL OR SWAP1 SSTORE POP SWAP1 POP POP DUP3 PUSH1 0x4 PUSH0 DUP4 DUP2 MSTORE PUSH1 0x20 ADD SWAP1 DUP2 MSTORE PUSH1 0x20 ADD PUSH0 KECCAK256 PUSH0 CALLER PUSH20 0xFFFFFFFFFFFFFFFFFFFFFFFFFFFFFFFFFFFFFFFF AND PUSH20 0xFFFFFFFFFFFFFFFFFFFFFFFFFFFFFFFFFFFFFFFF AND DUP2 MSTORE PUSH1 0x20 ADD SWAP1 DUP2 MSTORE PUSH1 0x20 ADD PUSH0 KECCAK256 DUP2 SWAP1 SSTORE POP CALLER PUSH20 0xFFFFFFFFFFFFFFFFFFFFFFFFFFFFFFFFFFFFFFFF AND DUP2 PUSH32 0xB5086C70750D1301E82B29AD74FF6A872D8B6AACB3E187EC285FA8050626345E DUP7 DUP7 DUP7 PUSH1 0x40 MLOAD PUSH2 0xDE8 SWAP4 SWAP3 SWAP2 SWAP1 PUSH2 0x1F7C JUMP JUMPDEST PUSH1 0x40 MLOAD DUP1 SWAP2 SUB SWAP1 LOG3 PUSH2 0xDF8 PUSH2 0x1516 JUMP JUMPDEST SWAP4 SWAP3 POP POP POP JUMP JUMPDEST PUSH1 0x4 PUSH1 0x20 MSTORE DUP2 PUSH0 MSTORE PUSH1 0x40 PUSH0 KECCAK256 PUSH1 0x20 MSTORE DUP1 PUSH0 MSTORE PUSH1 0x40 PUSH0 KECCAK256 PUSH0 SWAP2 POP SWAP2 POP POP SLOAD DUP2 JUMP JUMPDEST PUSH2 0xE27 PUSH2 0x148F JUMP JUMPDEST PUSH2 0xE30 PUSH0 PUSH2 0x151F JUMP JUMPDEST JUMP JUMPDEST PUSH1 0x2 SLOAD DUP2 JUMP JUMPDEST PUSH0 DUP1 PUSH0 SWAP1 SLOAD SWAP1 PUSH2 0x100 EXP SWAP1 DIV PUSH20 0xFFFFFFFFFFFFFFFFFFFFFFFFFFFFFFFFFFFFFFFF AND SWAP1 POP SWAP1 JUMP JUMPDEST PUSH1 0x3 PUSH1 0x20 MSTORE DUP1 PUSH0 MSTORE PUSH1 0x40 PUSH0 KECCAK256 PUSH0 SWAP2 POP SWAP1 POP DUP1 PUSH0 ADD SLOAD SWAP1 DUP1 PUSH1 0x1 ADD PUSH0 SWAP1 SLOAD SWAP1 PUSH2 0x100 EXP SWAP1 DIV PUSH1 0xFF AND SWAP1 DUP1 PUSH1 0x1 ADD PUSH1 0x1 SWAP1 SLOAD SWAP1 PUSH2 0x100 EXP SWAP1 DIV PUSH20 0xFFFFFFFFFFFFFFFFFFFFFFFFFFFFFFFFFFFFFFFF AND SWAP1 DUP1 PUSH1 0x2 ADD PUSH0 SWAP1 SLOAD SWAP1 PUSH2 0x100 EXP SWAP1 DIV PUSH20 0xFFFFFFFFFFFFFFFFFFFFFFFFFFFFFFFFFFFFFFFF AND SWAP1 DUP1 PUSH1 0x3 ADD SLOAD SWAP1 DUP1 PUSH1 0x4 ADD SLOAD SWAP1 DUP1 PUSH1 0x5 ADD PUSH0 SWAP1 SLOAD SWAP1 PUSH2 0x100 EXP SWAP1 DIV PUSH1 0xFF AND SWAP1 DUP1 PUSH1 0x5 ADD PUSH1 0x1 SWAP1 SLOAD SWAP1 PUSH2 0x100 EXP SWAP1 DIV PUSH1 0xFF AND SWAP1 POP DUP9 JUMP JUMPDEST PUSH2 0xF0F PUSH2 0x1440 JUMP JUMPDEST PUSH0 PUSH1 0x3 PUSH0 DUP4 DUP2 MSTORE PUSH1 0x20 ADD SWAP1 DUP2 MSTORE PUSH1 0x20 ADD PUSH0 KECCAK256 SWAP1 POP DUP1 PUSH1 0x5 ADD PUSH0 SWAP1 SLOAD SWAP1 PUSH2 0x100 EXP SWAP1 DIV PUSH1 0xFF AND DUP1 ISZERO PUSH2 0xF4F JUMPI POP DUP1 PUSH1 0x5 ADD PUSH1 0x1 SWAP1 SLOAD SWAP1 PUSH2 0x100 EXP SWAP1 DIV PUSH1 0xFF AND ISZERO JUMPDEST PUSH2 0xF8E JUMPI PUSH1 0x40 MLOAD PUSH32 0x8C379A000000000000000000000000000000000000000000000000000000000 DUP2 MSTORE PUSH1 0x4 ADD PUSH2 0xF85 SWAP1 PUSH2 0x1D0F JUMP JUMPDEST PUSH1 0x40 MLOAD DUP1 SWAP2 SUB SWAP1 REVERT JUMPDEST PUSH0 PUSH20 0xFFFFFFFFFFFFFFFFFFFFFFFFFFFFFFFFFFFFFFFF AND DUP2 PUSH1 0x2 ADD PUSH0 SWAP1 SLOAD SWAP1 PUSH2 0x100 EXP SWAP1 DIV PUSH20 0xFFFFFFFFFFFFFFFFFFFFFFFFFFFFFFFFFFFFFFFF AND PUSH20 0xFFFFFFFFFFFFFFFFFFFFFFFFFFFFFFFFFFFFFFFF AND EQ PUSH2 0x101F JUMPI PUSH1 0x40 MLOAD PUSH32 0x8C379A000000000000000000000000000000000000000000000000000000000 DUP2 MSTORE PUSH1 0x4 ADD PUSH2 0x1016 SWAP1 PUSH2 0x1FFB JUMP JUMPDEST PUSH1 0x40 MLOAD DUP1 SWAP2 SUB SWAP1 REVERT JUMPDEST DUP1 PUSH1 0x1 ADD PUSH1 0x1 SWAP1 SLOAD SWAP1 PUSH2 0x100 EXP SWAP1 DIV PUSH20 0xFFFFFFFFFFFFFFFFFFFFFFFFFFFFFFFFFFFFFFFF AND PUSH20 0xFFFFFFFFFFFFFFFFFFFFFFFFFFFFFFFFFFFFFFFF AND CALLER PUSH20 0xFFFFFFFFFFFFFFFFFFFFFFFFFFFFFFFFFFFFFFFF AND EQ PUSH2 0x10B1 JUMPI PUSH1 0x40 MLOAD PUSH32 0x8C379A000000000000000000000000000000000000000000000000000000000 DUP2 MSTORE PUSH1 0x4 ADD PUSH2 0x10A8 SWAP1 PUSH2 0x2063 JUMP JUMPDEST PUSH1 0x40 MLOAD DUP1 SWAP2 SUB SWAP1 REVERT JUMPDEST PUSH0 DUP2 PUSH1 0x5 ADD PUSH0 PUSH2 0x100 EXP DUP2 SLOAD DUP2 PUSH1 0xFF MUL NOT AND SWAP1 DUP4 ISZERO ISZERO MUL OR SWAP1 SSTORE POP PUSH0 PUSH1 0x4 PUSH0 DUP5 DUP2 MSTORE PUSH1 0x20 ADD SWAP1 DUP2 MSTORE PUSH1 0x20 ADD PUSH0 KECCAK256 PUSH0 CALLER PUSH20 0xFFFFFFFFFFFFFFFFFFFFFFFFFFFFFFFFFFFFFFFF AND PUSH20 0xFFFFFFFFFFFFFFFFFFFFFFFFFFFFFFFFFFFFFFFF AND DUP2 MSTORE PUSH1 0x20 ADD SWAP1 DUP2 MSTORE PUSH1 0x20 ADD PUSH0 KECCAK256 SLOAD SWAP1 POP PUSH0 PUSH1 0x4 PUSH0 DUP6 DUP2 MSTORE PUSH1 0x20 ADD SWAP1 DUP2 MSTORE PUSH1 0x20 ADD PUSH0 KECCAK256 PUSH0 CALLER PUSH20 0xFFFFFFFFFFFFFFFFFFFFFFFFFFFFFFFFFFFFFFFF AND PUSH20 0xFFFFFFFFFFFFFFFFFFFFFFFFFFFFFFFFFFFFFFFF AND DUP2 MSTORE PUSH1 0x20 ADD SWAP1 DUP2 MSTORE PUSH1 0x20 ADD PUSH0 KECCAK256 DUP2 SWAP1 SSTORE POP PUSH0 CALLER PUSH20 0xFFFFFFFFFFFFFFFFFFFFFFFFFFFFFFFFFFFFFFFF AND DUP3 PUSH1 0x40 MLOAD PUSH2 0x1192 SWAP1 PUSH2 0x1C22 JUMP JUMPDEST PUSH0 PUSH1 0x40 MLOAD DUP1 DUP4 SUB DUP2 DUP6 DUP8 GAS CALL SWAP3 POP POP POP RETURNDATASIZE DUP1 PUSH0 DUP2 EQ PUSH2 0x11CC JUMPI PUSH1 0x40 MLOAD SWAP2 POP PUSH1 0x1F NOT PUSH1 0x3F RETURNDATASIZE ADD AND DUP3 ADD PUSH1 0x40 MSTORE RETURNDATASIZE DUP3 MSTORE RETURNDATASIZE PUSH0 PUSH1 0x20 DUP5 ADD RETURNDATACOPY PUSH2 0x11D1 JUMP JUMPDEST PUSH1 0x60 SWAP2 POP JUMPDEST POP POP SWAP1 POP DUP1 PUSH2 0x1215 JUMPI PUSH1 0x40 MLOAD PUSH32 0x8C379A000000000000000000000000000000000000000000000000000000000 DUP2 MSTORE PUSH1 0x4 ADD PUSH2 0x120C SWAP1 PUSH2 0x20CB JUMP JUMPDEST PUSH1 0x40 MLOAD DUP1 SWAP2 SUB SWAP1 REVERT JUMPDEST DUP4 PUSH32 0xA8320C917D7A08141EDE4CD3AD22CBE7C054020E2BA52777200ACED113783F05 PUSH1 0x40 MLOAD PUSH1 0x40 MLOAD DUP1 SWAP2 SUB SWAP1 LOG2 POP POP POP PUSH2 0x124D PUSH2 0x1516 JUMP JUMPDEST POP JUMP JUMPDEST PUSH2 0x1258 PUSH2 0x15E7 JUMP JUMPDEST PUSH1 0x3 PUSH0 DUP4 DUP2 MSTORE PUSH1 0x20 ADD SWAP1 DUP2 MSTORE PUSH1 0x20 ADD PUSH0 KECCAK256 PUSH1 0x40 MLOAD DUP1 PUSH2 0x100 ADD PUSH1 0x40 MSTORE SWAP1 DUP2 PUSH0 DUP3 ADD SLOAD DUP2 MSTORE PUSH1 0x20 ADD PUSH1 0x1 DUP3 ADD PUSH0 SWAP1 SLOAD SWAP1 PUSH2 0x100 EXP SWAP1 DIV PUSH1 0xFF AND PUSH1 0x2 DUP2 GT ISZERO PUSH2 0x12A2 JUMPI PUSH2 0x12A1 PUSH2 0x1823 JUMP JUMPDEST JUMPDEST PUSH1 0x2 DUP2 GT ISZERO PUSH2 0x12B4 JUMPI PUSH2 0x12B3 PUSH2 0x1823 JUMP JUMPDEST JUMPDEST DUP2 MSTORE PUSH1 0x20 ADD PUSH1 0x1 DUP3 ADD PUSH1 0x1 SWAP1 SLOAD SWAP1 PUSH2 0x100 EXP SWAP1 DIV PUSH20 0xFFFFFFFFFFFFFFFFFFFFFFFFFFFFFFFFFFFFFFFF AND PUSH20 0xFFFFFFFFFFFFFFFFFFFFFFFFFFFFFFFFFFFFFFFF AND PUSH20 0xFFFFFFFFFFFFFFFFFFFFFFFFFFFFFFFFFFFFFFFF AND DUP2 MSTORE PUSH1 0x20 ADD PUSH1 0x2 DUP3 ADD PUSH0 SWAP1 SLOAD SWAP1 PUSH2 0x100 EXP SWAP1 DIV PUSH20 0xFFFFFFFFFFFFFFFFFFFFFFFFFFFFFFFFFFFFFFFF AND PUSH20 0xFFFFFFFFFFFFFFFFFFFFFFFFFFFFFFFFFFFFFFFF AND PUSH20 0xFFFFFFFFFFFFFFFFFFFFFFFFFFFFFFFFFFFFFFFF AND DUP2 MSTORE PUSH1 0x20 ADD PUSH1 0x3 DUP3 ADD SLOAD DUP2 MSTORE PUSH1 0x20 ADD PUSH1 0x4 DUP3 ADD SLOAD DUP2 MSTORE PUSH1 0x20 ADD PUSH1 0x5 DUP3 ADD PUSH0 SWAP1 SLOAD SWAP1 PUSH2 0x100 EXP SWAP1 DIV PUSH1 0xFF AND ISZERO ISZERO ISZERO ISZERO DUP2 MSTORE PUSH1 0x20 ADD PUSH1 0x5 DUP3 ADD PUSH1 0x1 SWAP1 SLOAD SWAP1 PUSH2 0x100 EXP SWAP1 DIV PUSH1 0xFF AND ISZERO ISZERO ISZERO ISZERO DUP2 MSTORE POP POP SWAP1 POP SWAP2 SWAP1 POP JUMP JUMPDEST PUSH2 0x13BB PUSH2 0x148F JUMP JUMPDEST PUSH0 PUSH20 0xFFFFFFFFFFFFFFFFFFFFFFFFFFFFFFFFFFFFFFFF AND DUP2 PUSH20 0xFFFFFFFFFFFFFFFFFFFFFFFFFFFFFFFFFFFFFFFF AND SUB PUSH2 0x142B JUMPI PUSH0 PUSH1 0x40 MLOAD PUSH32 0x1E4FBDF700000000000000000000000000000000000000000000000000000000 DUP2 MSTORE PUSH1 0x4 ADD PUSH2 0x1422 SWAP2 SWAP1 PUSH2 0x180A JUMP JUMPDEST PUSH1 0x40 MLOAD DUP1 SWAP2 SUB SWAP1 REVERT JUMPDEST PUSH2 0x1434 DUP2 PUSH2 0x151F JUMP JUMPDEST POP JUMP JUMPDEST PUSH0 PUSH1 0x2 SLOAD SWAP1 POP SWAP1 JUMP JUMPDEST PUSH1 0x2 PUSH1 0x1 SLOAD SUB PUSH2 0x1485 JUMPI PUSH1 0x40 MLOAD PUSH32 0x8C379A000000000000000000000000000000000000000000000000000000000 DUP2 MSTORE PUSH1 0x4 ADD PUSH2 0x147C SWAP1 PUSH2 0x2133 JUMP JUMPDEST PUSH1 0x40 MLOAD DUP1 SWAP2 SUB SWAP1 REVERT JUMPDEST PUSH1 0x2 PUSH1 0x1 DUP2 SWAP1 SSTORE POP JUMP JUMPDEST PUSH2 0x1497 PUSH2 0x15E0 JUMP JUMPDEST PUSH20 0xFFFFFFFFFFFFFFFFFFFFFFFFFFFFFFFFFFFFFFFF AND PUSH2 0x14B5 PUSH2 0xE38 JUMP JUMPDEST PUSH20 0xFFFFFFFFFFFFFFFFFFFFFFFFFFFFFFFFFFFFFFFF AND EQ PUSH2 0x1514 JUMPI PUSH2 0x14D8 PUSH2 0x15E0 JUMP JUMPDEST PUSH1 0x40 MLOAD PUSH32 0x118CDAA700000000000000000000000000000000000000000000000000000000 DUP2 MSTORE PUSH1 0x4 ADD PUSH2 0x150B SWAP2 SWAP1 PUSH2 0x180A JUMP JUMPDEST PUSH1 0x40 MLOAD DUP1 SWAP2 SUB SWAP1 REVERT JUMPDEST JUMP JUMPDEST PUSH1 0x1 DUP1 DUP2 SWAP1 SSTORE POP JUMP JUMPDEST PUSH0 DUP1 PUSH0 SWAP1 SLOAD SWAP1 PUSH2 0x100 EXP SWAP1 DIV PUSH20 0xFFFFFFFFFFFFFFFFFFFFFFFFFFFFFFFFFFFFFFFF AND SWAP1 POP DUP2 PUSH0 DUP1 PUSH2 0x100 EXP DUP2 SLOAD DUP2 PUSH20 0xFFFFFFFFFFFFFFFFFFFFFFFFFFFFFFFFFFFFFFFF MUL NOT AND SWAP1 DUP4 PUSH20 0xFFFFFFFFFFFFFFFFFFFFFFFFFFFFFFFFFFFFFFFF AND MUL OR SWAP1 SSTORE POP DUP2 PUSH20 0xFFFFFFFFFFFFFFFFFFFFFFFFFFFFFFFFFFFFFFFF AND DUP2 PUSH20 0xFFFFFFFFFFFFFFFFFFFFFFFFFFFFFFFFFFFFFFFF AND PUSH32 0x8BE0079C531659141344CD1FD0A4F28419497F9722A3DAAFE3B4186F6B6457E0 PUSH1 0x40 MLOAD PUSH1 0x40 MLOAD DUP1 SWAP2 SUB SWAP1 LOG3 POP POP JUMP JUMPDEST PUSH0 CALLER SWAP1 POP SWAP1 JUMP JUMPDEST PUSH1 0x40 MLOAD DUP1 PUSH2 0x100 ADD PUSH1 0x40 MSTORE DUP1 PUSH0 DUP2 MSTORE PUSH1 0x20 ADD PUSH0 PUSH1 0x2 DUP2 GT ISZERO PUSH2 0x160C JUMPI PUSH2 0x160B PUSH2 0x1823 JUMP JUMPDEST JUMPDEST DUP2 MSTORE PUSH1 0x20 ADD PUSH0 PUSH20 0xFFFFFFFFFFFFFFFFFFFFFFFFFFFFFFFFFFFFFFFF AND DUP2 MSTORE PUSH1 0x20 ADD PUSH0 PUSH20 0xFFFFFFFFFFFFFFFFFFFFFFFFFFFFFFFFFFFFFFFF AND DUP2 MSTORE PUSH1 0x20 ADD PUSH0 DUP2 MSTORE PUSH1 0x20 ADD PUSH0 DUP2 MSTORE PUSH1 0x20 ADD PUSH0 ISZERO ISZERO DUP2 MSTORE PUSH1 0x20 ADD PUSH0 ISZERO ISZERO DUP2 MSTORE POP SWAP1 JUMP JUMPDEST PUSH0 DUP1 REVERT JUMPDEST PUSH0 DUP2 SWAP1 POP SWAP2 SWAP1 POP JUMP JUMPDEST PUSH2 0x167C DUP2 PUSH2 0x166A JUMP JUMPDEST DUP2 EQ PUSH2 0x1686 JUMPI PUSH0 DUP1 REVERT JUMPDEST POP JUMP JUMPDEST PUSH0 DUP2 CALLDATALOAD SWAP1 POP PUSH2 0x1697 DUP2 PUSH2 0x1673 JUMP JUMPDEST SWAP3 SWAP2 POP POP JUMP JUMPDEST PUSH0 PUSH20 0xFFFFFFFFFFFFFFFFFFFFFFFFFFFFFFFFFFFFFFFF DUP3 AND SWAP1 POP SWAP2 SWAP1 POP JUMP JUMPDEST PUSH0 PUSH2 0x16C6 DUP3 PUSH2 0x169D JUMP JUMPDEST SWAP1 POP SWAP2 SWAP1 POP JUMP JUMPDEST PUSH2 0x16D6 DUP2 PUSH2 0x16BC JUMP JUMPDEST DUP2 EQ PUSH2 0x16E0 JUMPI PUSH0 DUP1 REVERT JUMPDEST POP JUMP JUMPDEST PUSH0 DUP2 CALLDATALOAD SWAP1 POP PUSH2 0x16F1 DUP2 PUSH2 0x16CD JUMP JUMPDEST SWAP3 SWAP2 POP POP JUMP JUMPDEST PUSH0 DUP1 PUSH1 0x40 DUP4 DUP6 SUB SLT ISZERO PUSH2 0x170D JUMPI PUSH2 0x170C PUSH2 0x1666 JUMP JUMPDEST JUMPDEST PUSH0 PUSH2 0x171A DUP6 DUP3 DUP7 ADD PUSH2 0x1689 JUMP JUMPDEST SWAP3 POP POP PUSH1 0x20 PUSH2 0x172B DUP6 DUP3 DUP7 ADD PUSH2 0x16E3 JUMP JUMPDEST SWAP2 POP POP SWAP3 POP SWAP3 SWAP1 POP JUMP JUMPDEST PUSH2 0x173E DUP2 PUSH2 0x166A JUMP JUMPDEST DUP3 MSTORE POP POP JUMP JUMPDEST PUSH0 PUSH1 0x20 DUP3 ADD SWAP1 POP PUSH2 0x1757 PUSH0 DUP4 ADD DUP5 PUSH2 0x1735 JUMP JUMPDEST SWAP3 SWAP2 POP POP JUMP JUMPDEST PUSH0 PUSH1 0x20 DUP3 DUP5 SUB SLT ISZERO PUSH2 0x1772 JUMPI PUSH2 0x1771 PUSH2 0x1666 JUMP JUMPDEST JUMPDEST PUSH0 PUSH2 0x177F DUP5 DUP3 DUP6 ADD PUSH2 0x1689 JUMP JUMPDEST SWAP2 POP POP SWAP3 SWAP2 POP POP JUMP JUMPDEST PUSH1 0x3 DUP2 LT PUSH2 0x1794 JUMPI PUSH0 DUP1 REVERT JUMPDEST POP JUMP JUMPDEST PUSH0 DUP2 CALLDATALOAD SWAP1 POP PUSH2 0x17A5 DUP2 PUSH2 0x1788 JUMP JUMPDEST SWAP3 SWAP2 POP POP JUMP JUMPDEST PUSH0 DUP1 PUSH0 PUSH1 0x60 DUP5 DUP7 SUB SLT ISZERO PUSH2 0x17C2 JUMPI PUSH2 0x17C1 PUSH2 0x1666 JUMP JUMPDEST JUMPDEST PUSH0 PUSH2 0x17CF DUP7 DUP3 DUP8 ADD PUSH2 0x1797 JUMP JUMPDEST SWAP4 POP POP PUSH1 0x20 PUSH2 0x17E0 DUP7 DUP3 DUP8 ADD PUSH2 0x1689 JUMP JUMPDEST SWAP3 POP POP PUSH1 0x40 PUSH2 0x17F1 DUP7 DUP3 DUP8 ADD PUSH2 0x1689 JUMP JUMPDEST SWAP2 POP POP SWAP3 POP SWAP3 POP SWAP3 JUMP JUMPDEST PUSH2 0x1804 DUP2 PUSH2 0x16BC JUMP JUMPDEST DUP3 MSTORE POP POP JUMP JUMPDEST PUSH0 PUSH1 0x20 DUP3 ADD SWAP1 POP PUSH2 0x181D PUSH0 DUP4 ADD DUP5 PUSH2 0x17FB JUMP JUMPDEST SWAP3 SWAP2 POP POP JUMP JUMPDEST PUSH32 0x4E487B7100000000000000000000000000000000000000000000000000000000 PUSH0 MSTORE PUSH1 0x21 PUSH1 0x4 MSTORE PUSH1 0x24 PUSH0 REVERT JUMPDEST PUSH1 0x3 DUP2 LT PUSH2 0x1861 JUMPI PUSH2 0x1860 PUSH2 0x1823 JUMP JUMPDEST JUMPDEST POP JUMP JUMPDEST PUSH0 DUP2 SWAP1 POP PUSH2 0x1871 DUP3 PUSH2 0x1850 JUMP JUMPDEST SWAP2 SWAP1 POP JUMP JUMPDEST PUSH0 PUSH2 0x1880 DUP3 PUSH2 0x1864 JUMP JUMPDEST SWAP1 POP SWAP2 SWAP1 POP JUMP JUMPDEST PUSH2 0x1890 DUP2 PUSH2 0x1876 JUMP JUMPDEST DUP3 MSTORE POP POP JUMP JUMPDEST PUSH0 DUP2 ISZERO ISZERO SWAP1 POP SWAP2 SWAP1 POP JUMP JUMPDEST PUSH2 0x18AA DUP2 PUSH2 0x1896 JUMP JUMPDEST DUP3 MSTORE POP POP JUMP JUMPDEST PUSH0 PUSH2 0x100 DUP3 ADD SWAP1 POP PUSH2 0x18C4 PUSH0 DUP4 ADD DUP12 PUSH2 0x1735 JUMP JUMPDEST PUSH2 0x18D1 PUSH1 0x20 DUP4 ADD DUP11 PUSH2 0x1887 JUMP JUMPDEST PUSH2 0x18DE PUSH1 0x40 DUP4 ADD DUP10 PUSH2 0x17FB JUMP JUMPDEST PUSH2 0x18EB PUSH1 0x60 DUP4 ADD DUP9 PUSH2 0x17FB JUMP JUMPDEST PUSH2 0x18F8 PUSH1 0x80 DUP4 ADD DUP8 PUSH2 0x1735 JUMP JUMPDEST PUSH2 0x1905 PUSH1 0xA0 DUP4 ADD DUP7 PUSH2 0x1735 JUMP JUMPDEST PUSH2 0x1912 PUSH1 0xC0 DUP4 ADD DUP6 PUSH2 0x18A1 JUMP JUMPDEST PUSH2 0x191F PUSH1 0xE0 DUP4 ADD DUP5 PUSH2 0x18A1 JUMP JUMPDEST SWAP10 SWAP9 POP POP POP POP POP POP POP POP POP JUMP JUMPDEST PUSH2 0x1935 DUP2 PUSH2 0x166A JUMP JUMPDEST DUP3 MSTORE POP POP JUMP JUMPDEST PUSH2 0x1944 DUP2 PUSH2 0x1876 JUMP JUMPDEST DUP3 MSTORE POP POP JUMP JUMPDEST PUSH2 0x1953 DUP2 PUSH2 0x16BC JUMP JUMPDEST DUP3 MSTORE POP POP JUMP JUMPDEST PUSH2 0x1962 DUP2 PUSH2 0x1896 JUMP JUMPDEST DUP3 MSTORE POP POP JUMP JUMPDEST PUSH2 0x100 DUP3 ADD PUSH0 DUP3 ADD MLOAD PUSH2 0x197D PUSH0 DUP6 ADD DUP3 PUSH2 0x192C JUMP JUMPDEST POP PUSH1 0x20 DUP3 ADD MLOAD PUSH2 0x1990 PUSH1 0x20 DUP6 ADD DUP3 PUSH2 0x193B JUMP JUMPDEST POP PUSH1 0x40 DUP3 ADD MLOAD PUSH2 0x19A3 PUSH1 0x40 DUP6 ADD DUP3 PUSH2 0x194A JUMP JUMPDEST POP PUSH1 0x60 DUP3 ADD MLOAD PUSH2 0x19B6 PUSH1 0x60 DUP6 ADD DUP3 PUSH2 0x194A JUMP JUMPDEST POP PUSH1 0x80 DUP3 ADD MLOAD PUSH2 0x19C9 PUSH1 0x80 DUP6 ADD DUP3 PUSH2 0x192C JUMP JUMPDEST POP PUSH1 0xA0 DUP3 ADD MLOAD PUSH2 0x19DC PUSH1 0xA0 DUP6 ADD DUP3 PUSH2 0x192C JUMP JUMPDEST POP PUSH1 0xC0 DUP3 ADD MLOAD PUSH2 0x19EF PUSH1 0xC0 DUP6 ADD DUP3 PUSH2 0x1959 JUMP JUMPDEST POP PUSH1 0xE0 DUP3 ADD MLOAD PUSH2 0x1A02 PUSH1 0xE0 DUP6 ADD DUP3 PUSH2 0x1959 JUMP JUMPDEST POP POP POP POP JUMP JUMPDEST PUSH0 PUSH2 0x100 DUP3 ADD SWAP1 POP PUSH2 0x1A1C PUSH0 DUP4 ADD DUP5 PUSH2 0x1968 JUMP JUMPDEST SWAP3 SWAP2 POP POP JUMP JUMPDEST PUSH0 PUSH1 0x20 DUP3 DUP5 SUB SLT ISZERO PUSH2 0x1A37 JUMPI PUSH2 0x1A36 PUSH2 0x1666 JUMP JUMPDEST JUMPDEST PUSH0 PUSH2 0x1A44 DUP5 DUP3 DUP6 ADD PUSH2 0x16E3 JUMP JUMPDEST SWAP2 POP POP SWAP3 SWAP2 POP POP JUMP JUMPDEST PUSH0 DUP3 DUP3 MSTORE PUSH1 0x20 DUP3 ADD SWAP1 POP SWAP3 SWAP2 POP POP JUMP JUMPDEST PUSH32 0x416C726561647920736574746C6564206F7220696E6163746976650000000000 PUSH0 DUP3 ADD MSTORE POP JUMP JUMPDEST PUSH0 PUSH2 0x1A91 PUSH1 0x1B DUP4 PUSH2 0x1A4D JUMP JUMPDEST SWAP2 POP PUSH2 0x1A9C DUP3 PUSH2 0x1A5D JUMP JUMPDEST PUSH1 0x20 DUP3 ADD SWAP1 POP SWAP2 SWAP1 POP JUMP JUMPDEST PUSH0 PUSH1 0x20 DUP3 ADD SWAP1 POP DUP2 DUP2 SUB PUSH0 DUP4 ADD MSTORE PUSH2 0x1ABE DUP2 PUSH2 0x1A85 JUMP JUMPDEST SWAP1 POP SWAP2 SWAP1 POP JUMP JUMPDEST PUSH32 0x4E6F742079657420657870697265640000000000000000000000000000000000 PUSH0 DUP3 ADD MSTORE POP JUMP JUMPDEST PUSH0 PUSH2 0x1AF9 PUSH1 0xF DUP4 PUSH2 0x1A4D JUMP JUMPDEST SWAP2 POP PUSH2 0x1B04 DUP3 PUSH2 0x1AC5 JUMP JUMPDEST PUSH1 0x20 DUP3 ADD SWAP1 POP SWAP2 SWAP1 POP JUMP JUMPDEST PUSH0 PUSH1 0x20 DUP3 ADD SWAP1 POP DUP2 DUP2 SUB PUSH0 DUP4 ADD MSTORE PUSH2 0x1B26 DUP2 PUSH2 0x1AED JUMP JUMPDEST SWAP1 POP SWAP2 SWAP1 POP JUMP JUMPDEST PUSH32 0x57696E6E6572206D757374206265207061727469636970616E74000000000000 PUSH0 DUP3 ADD MSTORE POP JUMP JUMPDEST PUSH0 PUSH2 0x1B61 PUSH1 0x1A DUP4 PUSH2 0x1A4D JUMP JUMPDEST SWAP2 POP PUSH2 0x1B6C DUP3 PUSH2 0x1B2D JUMP JUMPDEST PUSH1 0x20 DUP3 ADD SWAP1 POP SWAP2 SWAP1 POP JUMP JUMPDEST PUSH0 PUSH1 0x20 DUP3 ADD SWAP1 POP DUP2 DUP2 SUB PUSH0 DUP4 ADD MSTORE PUSH2 0x1B8E DUP2 PUSH2 0x1B55 JUMP JUMPDEST SWAP1 POP SWAP2 SWAP1 POP JUMP JUMPDEST PUSH32 0x4E487B7100000000000000000000000000000000000000000000000000000000 PUSH0 MSTORE PUSH1 0x11 PUSH1 0x4 MSTORE PUSH1 0x24 PUSH0 REVERT JUMPDEST PUSH0 PUSH2 0x1BCC DUP3 PUSH2 0x166A JUMP JUMPDEST SWAP2 POP PUSH2 0x1BD7 DUP4 PUSH2 0x166A JUMP JUMPDEST SWAP3 POP DUP3 DUP3 ADD SWAP1 POP DUP1 DUP3 GT ISZERO PUSH2 0x1BEF JUMPI PUSH2 0x1BEE PUSH2 0x1B95 JUMP JUMPDEST JUMPDEST SWAP3 SWAP2 POP POP JUMP JUMPDEST PUSH0 DUP2 SWAP1 POP SWAP3 SWAP2 POP POP JUMP JUMPDEST POP JUMP JUMPDEST PUSH0 PUSH2 0x1C0D PUSH0 DUP4 PUSH2 0x1BF5 JUMP JUMPDEST SWAP2 POP PUSH2 0x1C18 DUP3 PUSH2 0x1BFF JUMP JUMPDEST PUSH0 DUP3 ADD SWAP1 POP SWAP2 SWAP1 POP JUMP JUMPDEST PUSH0 PUSH2 0x1C2C DUP3 PUSH2 0x1C02 JUMP JUMPDEST SWAP2 POP DUP2 SWAP1 POP SWAP2 SWAP1 POP JUMP JUMPDEST PUSH32 0x5472616E73666572206661696C65640000000000000000000000000000000000 PUSH0 DUP3 ADD MSTORE POP JUMP JUMPDEST PUSH0 PUSH2 0x1C6A PUSH1 0xF DUP4 PUSH2 0x1A4D JUMP JUMPDEST SWAP2 POP PUSH2 0x1C75 DUP3 PUSH2 0x1C36 JUMP JUMPDEST PUSH1 0x20 DUP3 ADD SWAP1 POP SWAP2 SWAP1 POP JUMP JUMPDEST PUSH0 PUSH1 0x20 DUP3 ADD SWAP1 POP DUP2 DUP2 SUB PUSH0 DUP4 ADD MSTORE PUSH2 0x1C97 DUP2 PUSH2 0x1C5E JUMP JUMPDEST SWAP1 POP SWAP2 SWAP1 POP JUMP JUMPDEST PUSH0 PUSH1 0x40 DUP3 ADD SWAP1 POP PUSH2 0x1CB1 PUSH0 DUP4 ADD DUP6 PUSH2 0x17FB JUMP JUMPDEST PUSH2 0x1CBE PUSH1 0x20 DUP4 ADD DUP5 PUSH2 0x1735 JUMP JUMPDEST SWAP4 SWAP3 POP POP POP JUMP JUMPDEST PUSH32 0x506F736974696F6E206E6F742061637469766500000000000000000000000000 PUSH0 DUP3 ADD MSTORE POP JUMP JUMPDEST PUSH0 PUSH2 0x1CF9 PUSH1 0x13 DUP4 PUSH2 0x1A4D JUMP JUMPDEST SWAP2 POP PUSH2 0x1D04 DUP3 PUSH2 0x1CC5 JUMP JUMPDEST PUSH1 0x20 DUP3 ADD SWAP1 POP SWAP2 SWAP1 POP JUMP JUMPDEST PUSH0 PUSH1 0x20 DUP3 ADD SWAP1 POP DUP2 DUP2 SUB PUSH0 DUP4 ADD MSTORE PUSH2 0x1D26 DUP2 PUSH2 0x1CED JUMP JUMPDEST SWAP1 POP SWAP2 SWAP1 POP JUMP JUMPDEST PUSH32 0x506F736974696F6E20616C7265616479206A6F696E6564000000000000000000 PUSH0 DUP3 ADD MSTORE POP JUMP JUMPDEST PUSH0 PUSH2 0x1D61 PUSH1 0x17 DUP4 PUSH2 0x1A4D JUMP JUMPDEST SWAP2 POP PUSH2 0x1D6C DUP3 PUSH2 0x1D2D JUMP JUMPDEST PUSH1 0x20 DUP3 ADD SWAP1 POP SWAP2 SWAP1 POP JUMP JUMPDEST PUSH0 PUSH1 0x20 DUP3 ADD SWAP1 POP DUP2 DUP2 SUB PUSH0 DUP4 ADD MSTORE PUSH2 0x1D8E DUP2 PUSH2 0x1D55 JUMP JUMPDEST SWAP1 POP SWAP2 SWAP1 POP JUMP JUMPDEST PUSH32 0x506F736974696F6E206578706972656400000000000000000000000000000000 PUSH0 DUP3 ADD MSTORE POP JUMP JUMPDEST PUSH0 PUSH2 0x1DC9 PUSH1 0x10 DUP4 PUSH2 0x1A4D JUMP JUMPDEST SWAP2 POP PUSH2 0x1DD4 DUP3 PUSH2 0x1D95 JUMP JUMPDEST PUSH1 0x20 DUP3 ADD SWAP1 POP SWAP2 SWAP1 POP JUMP JUMPDEST PUSH0 PUSH1 0x20 DUP3 ADD SWAP1 POP DUP2 DUP2 SUB PUSH0 DUP4 ADD MSTORE PUSH2 0x1DF6 DUP2 PUSH2 0x1DBD JUMP JUMPDEST SWAP1 POP SWAP2 SWAP1 POP JUMP JUMPDEST PUSH32 0x496E636F727265637420636F6C6C61746572616C20616D6F756E740000000000 PUSH0 DUP3 ADD MSTORE POP JUMP JUMPDEST PUSH0 PUSH2 0x1E31 PUSH1 0x1B DUP4 PUSH2 0x1A4D JUMP JUMPDEST SWAP2 POP PUSH2 0x1E3C DUP3 PUSH2 0x1DFD JUMP JUMPDEST PUSH1 0x20 DUP3 ADD SWAP1 POP SWAP2 SWAP1 POP JUMP JUMPDEST PUSH0 PUSH1 0x20 DUP3 ADD SWAP1 POP DUP2 DUP2 SUB PUSH0 DUP4 ADD MSTORE PUSH2 0x1E5E DUP2 PUSH2 0x1E25 JUMP JUMPDEST SWAP1 POP SWAP2 SWAP1 POP JUMP JUMPDEST PUSH32 0x436F6C6C61746572616C206D757374206265203E203000000000000000000000 PUSH0 DUP3 ADD MSTORE POP JUMP JUMPDEST PUSH0 PUSH2 0x1E99 PUSH1 0x16 DUP4 PUSH2 0x1A4D JUMP JUMPDEST SWAP2 POP PUSH2 0x1EA4 DUP3 PUSH2 0x1E65 JUMP JUMPDEST PUSH1 0x20 DUP3 ADD SWAP1 POP SWAP2 SWAP1 POP JUMP JUMPDEST PUSH0 PUSH1 0x20 DUP3 ADD SWAP1 POP DUP2 DUP2 SUB PUSH0 DUP4 ADD MSTORE PUSH2 0x1EC6 DUP2 PUSH2 0x1E8D JUMP JUMPDEST SWAP1 POP SWAP2 SWAP1 POP JUMP JUMPDEST PUSH32 0x457870697279206D75737420626520696E207468652066757475726500000000 PUSH0 DUP3 ADD MSTORE POP JUMP JUMPDEST PUSH0 PUSH2 0x1F01 PUSH1 0x1C DUP4 PUSH2 0x1A4D JUMP JUMPDEST SWAP2 POP PUSH2 0x1F0C DUP3 PUSH2 0x1ECD JUMP JUMPDEST PUSH1 0x20 DUP3 ADD SWAP1 POP SWAP2 SWAP1 POP JUMP JUMPDEST PUSH0 PUSH1 0x20 DUP3 ADD SWAP1 POP DUP2 DUP2 SUB PUSH0 DUP4 ADD MSTORE PUSH2 0x1F2E DUP2 PUSH2 0x1EF5 JUMP JUMPDEST SWAP1 POP SWAP2 SWAP1 POP JUMP JUMPDEST PUSH0 PUSH2 0x1F3F DUP3 PUSH2 0x166A JUMP JUMPDEST SWAP2 POP PUSH32 0xFFFFFFFFFFFFFFFFFFFFFFFFFFFFFFFFFFFFFFFFFFFFFFFFFFFFFFFFFFFFFFFF DUP3 SUB PUSH2 0x1F71 JUMPI PUSH2 0x1F70 PUSH2 0x1B95 JUMP JUMPDEST JUMPDEST PUSH1 0x1 DUP3 ADD SWAP1 POP SWAP2 SWAP1 POP JUMP JUMPDEST PUSH0 PUSH1 0x60 DUP3 ADD SWAP1 POP PUSH2 0x1F8F PUSH0 DUP4 ADD DUP7 PUSH2 0x1887 JUMP JUMPDEST PUSH2 0x1F9C PUSH1 0x20 DUP4 ADD DUP6 PUSH2 0x1735 JUMP JUMPDEST PUSH2 0x1FA9 PUSH1 0x40 DUP4 ADD DUP5 PUSH2 0x1735 JUMP JUMPDEST SWAP5 SWAP4 POP POP POP POP JUMP JUMPDEST PUSH32 0x436F756E7465727061727479206A6F696E656400000000000000000000000000 PUSH0 DUP3 ADD MSTORE POP JUMP JUMPDEST PUSH0 PUSH2 0x1FE5 PUSH1 0x13 DUP4 PUSH2 0x1A4D JUMP JUMPDEST SWAP2 POP PUSH2 0x1FF0 DUP3 PUSH2 0x1FB1 JUMP JUMPDEST PUSH1 0x20 DUP3 ADD SWAP1 POP SWAP2 SWAP1 POP JUMP JUMPDEST PUSH0 PUSH1 0x20 DUP3 ADD SWAP1 POP DUP2 DUP2 SUB PUSH0 DUP4 ADD MSTORE PUSH2 0x2012 DUP2 PUSH2 0x1FD9 JUMP JUMPDEST SWAP1 POP SWAP2 SWAP1 POP JUMP JUMPDEST PUSH32 0x4E6F7420706F736974696F6E2063726561746F72000000000000000000000000 PUSH0 DUP3 ADD MSTORE POP JUMP JUMPDEST PUSH0 PUSH2 0x204D PUSH1 0x14 DUP4 PUSH2 0x1A4D JUMP JUMPDEST SWAP2 POP PUSH2 0x2058 DUP3 PUSH2 0x2019 JUMP JUMPDEST PUSH1 0x20 DUP3 ADD SWAP1 POP SWAP2 SWAP1 POP JUMP JUMPDEST PUSH0 PUSH1 0x20 DUP3 ADD SWAP1 POP DUP2 DUP2 SUB PUSH0 DUP4 ADD MSTORE PUSH2 0x207A DUP2 PUSH2 0x2041 JUMP JUMPDEST SWAP1 POP SWAP2 SWAP1 POP JUMP JUMPDEST PUSH32 0x526566756E64207472616E73666572206661696C656400000000000000000000 PUSH0 DUP3 ADD MSTORE POP JUMP JUMPDEST PUSH0 PUSH2 0x20B5 PUSH1 0x16 DUP4 PUSH2 0x1A4D JUMP JUMPDEST SWAP2 POP PUSH2 0x20C0 DUP3 PUSH2 0x2081 JUMP JUMPDEST PUSH1 0x20 DUP3 ADD SWAP1 POP SWAP2 SWAP1 POP JUMP JUMPDEST PUSH0 PUSH1 0x20 DUP3 ADD SWAP1 POP DUP2 DUP2 SUB PUSH0 DUP4 ADD MSTORE PUSH2 0x20E2 DUP2 PUSH2 0x20A9 JUMP JUMPDEST SWAP1 POP SWAP2 SWAP1 POP JUMP JUMPDEST PUSH32 0x5265656E7472616E637947756172643A207265656E7472616E742063616C6C00 PUSH0 DUP3 ADD MSTORE POP JUMP JUMPDEST PUSH0 PUSH2 0x211D PUSH1 0x1F DUP4 PUSH2 0x1A4D JUMP JUMPDEST SWAP2 POP PUSH2 0x2128 DUP3 PUSH2 0x20E9 JUMP JUMPDEST PUSH1 0x20 DUP3 ADD SWAP1 POP SWAP2 SWAP1 POP JUMP JUMPDEST PUSH0 PUSH1 0x20 DUP3 ADD SWAP1 POP DUP2 DUP2 SUB PUSH0 DUP4 ADD MSTORE PUSH2 0x214A DUP2 PUSH2 0x2111 JUMP JUMPDEST SWAP1 POP SWAP2 SWAP1 POP JUMP INVALID LOG2 PUSH5 0x6970667358 0x22 SLT KECCAK256 PUSH26 0x972DE9F3FF16C9636ECFEFE76F2B7F9F63F98259972A5366DE40 DUP13 DUP8 DUP9 0x25 0xBA PUSH5 0x736F6C6343 STOP ADDMOD NOT STOP CALLER "
				},
				"gasEstimates": {
					"creation": {
						"codeDepositCost": "1716600",
						"executionCost": "infinite",
						"totalCost": "infinite"
					},
					"external": {
						"cancelPosition(uint256)": "infinite",
						"createPosition(uint8,uint256,uint256)": "infinite",
						"getLockedCollateral(uint256,address)": "infinite",
						"getPosition(uint256)": "infinite",
						"joinPosition(uint256)": "infinite",
						"lockedCollateral(uint256,address)": "infinite",
						"nextPositionId()": "2448",
						"owner()": "2560",
						"positions(uint256)": "infinite",
						"renounceOwnership()": "infinite",
						"settlePosition(uint256,address)": "infinite",
						"totalPositions()": "2520",
						"transferOwnership(address)": "infinite"
					}
				},
				"methodIdentifiers": {
					"cancelPosition(uint256)": "cd4e9ffa",
					"createPosition(uint8,uint256,uint256)": "59f3d12c",
					"getLockedCollateral(uint256,address)": "2fdb4b1e",
					"getPosition(uint256)": "eb02c301",
					"joinPosition(uint256)": "4878d6fe",
					"lockedCollateral(uint256,address)": "5cacd7fa",
					"nextPositionId()": "899346c7",
					"owner()": "8da5cb5b",
					"positions(uint256)": "99fbab88",
					"renounceOwnership()": "715018a6",
					"settlePosition(uint256,address)": "10a7bf48",
					"totalPositions()": "fda1fa5f",
					"transferOwnership(address)": "f2fde38b"
				}
			},
			"storageLayout": {
				"storage": [
					{
						"astId": 8,
						"contract": "D/derivatives market.sol:DerivativesMarket",
						"label": "_owner",
						"offset": 0,
						"slot": "0",
						"type": "t_address"
					},
					{
						"astId": 158,
						"contract": "D/derivatives market.sol:DerivativesMarket",
						"label": "_status",
						"offset": 0,
						"slot": "1",
						"type": "t_uint256"
					},
					{
						"astId": 278,
						"contract": "D/derivatives market.sol:DerivativesMarket",
						"label": "nextPositionId",
						"offset": 0,
						"slot": "2",
						"type": "t_uint256"
					},
					{
						"astId": 284,
						"contract": "D/derivatives market.sol:DerivativesMarket",
						"label": "positions",
						"offset": 0,
						"slot": "3",
						"type": "t_mapping(t_uint256,t_struct(Position)275_storage)"
					},
					{
						"astId": 291,
						"contract": "D/derivatives market.sol:DerivativesMarket",
						"label": "lockedCollateral",
						"offset": 0,
						"slot": "4",
						"type": "t_mapping(t_uint256,t_mapping(t_address,t_uint256))"
					}
				],
				"types": {
					"t_address": {
						"encoding": "inplace",
						"label": "address",
						"numberOfBytes": "20"
					},
					"t_bool": {
						"encoding": "inplace",
						"label": "bool",
						"numberOfBytes": "1"
					},
					"t_enum(DerivativeType)256": {
						"encoding": "inplace",
						"label": "enum DerivativesMarket.DerivativeType",
						"numberOfBytes": "1"
					},
					"t_mapping(t_address,t_uint256)": {
						"encoding": "mapping",
						"key": "t_address",
						"label": "mapping(address => uint256)",
						"numberOfBytes": "32",
						"value": "t_uint256"
					},
					"t_mapping(t_uint256,t_mapping(t_address,t_uint256))": {
						"encoding": "mapping",
						"key": "t_uint256",
						"label": "mapping(uint256 => mapping(address => uint256))",
						"numberOfBytes": "32",
						"value": "t_mapping(t_address,t_uint256)"
					},
					"t_mapping(t_uint256,t_struct(Position)275_storage)": {
						"encoding": "mapping",
						"key": "t_uint256",
						"label": "mapping(uint256 => struct DerivativesMarket.Position)",
						"numberOfBytes": "32",
						"value": "t_struct(Position)275_storage"
					},
					"t_struct(Position)275_storage": {
						"encoding": "inplace",
						"label": "struct DerivativesMarket.Position",
						"members": [
							{
								"astId": 259,
								"contract": "D/derivatives market.sol:DerivativesMarket",
								"label": "id",
								"offset": 0,
								"slot": "0",
								"type": "t_uint256"
							},
							{
								"astId": 262,
								"contract": "D/derivatives market.sol:DerivativesMarket",
								"label": "dtype",
								"offset": 0,
								"slot": "1",
								"type": "t_enum(DerivativeType)256"
							},
							{
								"astId": 264,
								"contract": "D/derivatives market.sol:DerivativesMarket",
								"label": "creator",
								"offset": 1,
								"slot": "1",
								"type": "t_address"
							},
							{
								"astId": 266,
								"contract": "D/derivatives market.sol:DerivativesMarket",
								"label": "counterparty",
								"offset": 0,
								"slot": "2",
								"type": "t_address"
							},
							{
								"astId": 268,
								"contract": "D/derivatives market.sol:DerivativesMarket",
								"label": "collateral",
								"offset": 0,
								"slot": "3",
								"type": "t_uint256"
							},
							{
								"astId": 270,
								"contract": "D/derivatives market.sol:DerivativesMarket",
								"label": "expiry",
								"offset": 0,
								"slot": "4",
								"type": "t_uint256"
							},
							{
								"astId": 272,
								"contract": "D/derivatives market.sol:DerivativesMarket",
								"label": "active",
								"offset": 0,
								"slot": "5",
								"type": "t_bool"
							},
							{
								"astId": 274,
								"contract": "D/derivatives market.sol:DerivativesMarket",
								"label": "settled",
								"offset": 1,
								"slot": "5",
								"type": "t_bool"
							}
						],
						"numberOfBytes": "192"
					},
					"t_uint256": {
						"encoding": "inplace",
						"label": "uint256",
						"numberOfBytes": "32"
					}
				}
			},
			"userdoc": {
				"kind": "user",
				"methods": {
					"cancelPosition(uint256)": {
						"notice": "Creator can cancel a position if no counterparty has joined yet."
					},
					"constructor": {
						"notice": "Constructor sets the deployer as the initial owner."
					},
					"createPosition(uint8,uint256,uint256)": {
						"notice": "Create a new derivative position. The creator locks their collateral upon creation."
					},
					"getLockedCollateral(uint256,address)": {
						"notice": "Returns total collateral locked by a user in a specific position."
					},
					"getPosition(uint256)": {
						"notice": "Retrieve the details of a derivative position by ID."
					},
					"joinPosition(uint256)": {
						"notice": "A counterparty joins an existing position by depositing matching collateral."
					},
					"lockedCollateral(uint256,address)": {
						"notice": "Mapping of position ID and user address to locked collateral amount"
					},
					"nextPositionId()": {
						"notice": "Incremental counter for position IDs"
					},
					"positions(uint256)": {
						"notice": "Mapping of position ID to position details"
					},
					"settlePosition(uint256,address)": {
						"notice": "The owner (acting as an oracle) settles a position after expiry."
					},
					"totalPositions()": {
						"notice": "Returns the total number of positions ever created (including settled/canceled)."
					}
				},
				"notice": "A dynamic, optimized, and secure contract for creating and managing multiple derivative positions. Each position is created by a user who locks collateral, and can be joined by a counterparty with matching collateral. The contract owner (oracle) settles positions after expiry, deciding the winning party.",
				"version": 1
			}
		}
	}
}