{
	"D/depinRegistery.sol": {
		"DePinRegistry": {
			"abi": [
				{
					"inputs": [],
					"stateMutability": "nonpayable",
					"type": "constructor"
				},
				{
					"inputs": [
						{
							"internalType": "address",
							"name": "owner",
							"type": "address"
						}
					],
					"name": "OwnableInvalidOwner",
					"type": "error"
				},
				{
					"inputs": [
						{
							"internalType": "address",
							"name": "account",
							"type": "address"
						}
					],
					"name": "OwnableUnauthorizedAccount",
					"type": "error"
				},
				{
					"anonymous": false,
					"inputs": [
						{
							"indexed": true,
							"internalType": "uint256",
							"name": "id",
							"type": "uint256"
						},
						{
							"indexed": true,
							"internalType": "address",
							"name": "owner",
							"type": "address"
						},
						{
							"indexed": false,
							"internalType": "string",
							"name": "metadataURI",
							"type": "string"
						},
						{
							"indexed": false,
							"internalType": "uint256",
							"name": "timestamp",
							"type": "uint256"
						}
					],
					"name": "NodeRegistered",
					"type": "event"
				},
				{
					"anonymous": false,
					"inputs": [
						{
							"indexed": true,
							"internalType": "uint256",
							"name": "id",
							"type": "uint256"
						},
						{
							"indexed": false,
							"internalType": "uint256",
							"name": "timestamp",
							"type": "uint256"
						}
					],
					"name": "NodeRemoved",
					"type": "event"
				},
				{
					"anonymous": false,
					"inputs": [
						{
							"indexed": true,
							"internalType": "uint256",
							"name": "id",
							"type": "uint256"
						},
						{
							"indexed": false,
							"internalType": "string",
							"name": "newMetadataURI",
							"type": "string"
						},
						{
							"indexed": false,
							"internalType": "uint256",
							"name": "timestamp",
							"type": "uint256"
						}
					],
					"name": "NodeUpdated",
					"type": "event"
				},
				{
					"anonymous": false,
					"inputs": [
						{
							"indexed": true,
							"internalType": "address",
							"name": "previousOwner",
							"type": "address"
						},
						{
							"indexed": true,
							"internalType": "address",
							"name": "newOwner",
							"type": "address"
						}
					],
					"name": "OwnershipTransferred",
					"type": "event"
				},
				{
					"inputs": [],
					"name": "getActiveNodeIds",
					"outputs": [
						{
							"internalType": "uint256[]",
							"name": "",
							"type": "uint256[]"
						}
					],
					"stateMutability": "view",
					"type": "function"
				},
				{
					"inputs": [
						{
							"internalType": "uint256",
							"name": "nodeId",
							"type": "uint256"
						}
					],
					"name": "getNode",
					"outputs": [
						{
							"components": [
								{
									"internalType": "uint256",
									"name": "id",
									"type": "uint256"
								},
								{
									"internalType": "address",
									"name": "owner",
									"type": "address"
								},
								{
									"internalType": "string",
									"name": "metadataURI",
									"type": "string"
								},
								{
									"internalType": "bool",
									"name": "active",
									"type": "bool"
								},
								{
									"internalType": "uint256",
									"name": "registeredAt",
									"type": "uint256"
								}
							],
							"internalType": "struct DePinRegistry.DePinNode",
							"name": "",
							"type": "tuple"
						}
					],
					"stateMutability": "view",
					"type": "function"
				},
				{
					"inputs": [],
					"name": "nextNodeId",
					"outputs": [
						{
							"internalType": "uint256",
							"name": "",
							"type": "uint256"
						}
					],
					"stateMutability": "view",
					"type": "function"
				},
				{
					"inputs": [
						{
							"internalType": "uint256",
							"name": "",
							"type": "uint256"
						}
					],
					"name": "nodes",
					"outputs": [
						{
							"internalType": "uint256",
							"name": "id",
							"type": "uint256"
						},
						{
							"internalType": "address",
							"name": "owner",
							"type": "address"
						},
						{
							"internalType": "string",
							"name": "metadataURI",
							"type": "string"
						},
						{
							"internalType": "bool",
							"name": "active",
							"type": "bool"
						},
						{
							"internalType": "uint256",
							"name": "registeredAt",
							"type": "uint256"
						}
					],
					"stateMutability": "view",
					"type": "function"
				},
				{
					"inputs": [],
					"name": "owner",
					"outputs": [
						{
							"internalType": "address",
							"name": "",
							"type": "address"
						}
					],
					"stateMutability": "view",
					"type": "function"
				},
				{
					"inputs": [
						{
							"internalType": "string",
							"name": "metadataURI",
							"type": "string"
						}
					],
					"name": "registerNode",
					"outputs": [
						{
							"internalType": "uint256",
							"name": "nodeId",
							"type": "uint256"
						}
					],
					"stateMutability": "nonpayable",
					"type": "function"
				},
				{
					"inputs": [
						{
							"internalType": "uint256",
							"name": "nodeId",
							"type": "uint256"
						}
					],
					"name": "removeNode",
					"outputs": [],
					"stateMutability": "nonpayable",
					"type": "function"
				},
				{
					"inputs": [],
					"name": "renounceOwnership",
					"outputs": [],
					"stateMutability": "nonpayable",
					"type": "function"
				},
				{
					"inputs": [],
					"name": "totalNodes",
					"outputs": [
						{
							"internalType": "uint256",
							"name": "",
							"type": "uint256"
						}
					],
					"stateMutability": "view",
					"type": "function"
				},
				{
					"inputs": [
						{
							"internalType": "address",
							"name": "newOwner",
							"type": "address"
						}
					],
					"name": "transferOwnership",
					"outputs": [],
					"stateMutability": "nonpayable",
					"type": "function"
				},
				{
					"inputs": [
						{
							"internalType": "uint256",
							"name": "nodeId",
							"type": "uint256"
						},
						{
							"internalType": "string",
							"name": "newMetadataURI",
							"type": "string"
						}
					],
					"name": "updateNode",
					"outputs": [],
					"stateMutability": "nonpayable",
					"type": "function"
				}
			],
			"devdoc": {
				"errors": {
					"OwnableInvalidOwner(address)": [
						{
							"details": "The owner is not a valid owner account. (eg. `address(0)`)"
						}
					],
					"OwnableUnauthorizedAccount(address)": [
						{
							"details": "The caller account is not authorized to perform an operation."
						}
					]
				},
				"kind": "dev",
				"methods": {
					"getActiveNodeIds()": {
						"returns": {
							"_0": "An array of active node IDs."
						}
					},
					"getNode(uint256)": {
						"params": {
							"nodeId": "The ID of the node."
						},
						"returns": {
							"_0": "The DePinNode struct for that ID."
						}
					},
					"owner()": {
						"details": "Returns the address of the current owner."
					},
					"registerNode(string)": {
						"params": {
							"metadataURI": "A URI containing node metadata (e.g., IPFS link)."
						},
						"returns": {
							"nodeId": "The unique ID of the newly registered node."
						}
					},
					"removeNode(uint256)": {
						"params": {
							"nodeId": "The ID of the node to remove."
						}
					},
					"renounceOwnership()": {
						"details": "Leaves the contract without owner. It will not be possible to call `onlyOwner` functions. Can only be called by the current owner. NOTE: Renouncing ownership will leave the contract without an owner, thereby disabling any functionality that is only available to the owner."
					},
					"transferOwnership(address)": {
						"details": "Transfers ownership of the contract to a new account (`newOwner`). Can only be called by the current owner."
					},
					"updateNode(uint256,string)": {
						"params": {
							"newMetadataURI": "The updated URI containing node metadata.",
							"nodeId": "The ID of the node to update."
						}
					}
				},
				"title": "DePinRegistry",
				"version": 1
			},
			"evm": {
				"assembly": "    /* \"D/depinRegistery.sol\":424:4579  contract DePinRegistry is Ownable, ReentrancyGuard {... */\n  mstore(0x40, 0x80)\n    /* \"D/depinRegistery.sol\":1343:1379  constructor() Ownable(msg.sender) {} */\n  callvalue\n  dup1\n  iszero\n  tag_1\n  jumpi\n  0x00\n  dup1\n  revert\ntag_1:\n  pop\n    /* \"D/depinRegistery.sol\":1365:1375  msg.sender */\n  caller\n    /* \"@openzeppelin/contracts/access/Ownable.sol\":1297:1298  0 */\n  0x00\n    /* \"@openzeppelin/contracts/access/Ownable.sol\":1273:1299  initialOwner == address(0) */\n  0xffffffffffffffffffffffffffffffffffffffff\n  and\n    /* \"@openzeppelin/contracts/access/Ownable.sol\":1273:1285  initialOwner */\n  dup2\n    /* \"@openzeppelin/contracts/access/Ownable.sol\":1273:1299  initialOwner == address(0) */\n  0xffffffffffffffffffffffffffffffffffffffff\n  and\n  sub\n    /* \"@openzeppelin/contracts/access/Ownable.sol\":1269:1364  if (initialOwner == address(0)) {... */\n  tag_6\n  jumpi\n    /* \"@openzeppelin/contracts/access/Ownable.sol\":1350:1351  0 */\n  0x00\n    /* \"@openzeppelin/contracts/access/Ownable.sol\":1322:1353  OwnableInvalidOwner(address(0)) */\n  mload(0x40)\n  0x1e4fbdf700000000000000000000000000000000000000000000000000000000\n  dup2\n  mstore\n  0x04\n  add\n  tag_7\n  swap2\n  swap1\n  tag_8\n  jump\t// in\ntag_7:\n  mload(0x40)\n  dup1\n  swap2\n  sub\n  swap1\n  revert\n    /* \"@openzeppelin/contracts/access/Ownable.sol\":1269:1364  if (initialOwner == address(0)) {... */\ntag_6:\n    /* \"@openzeppelin/contracts/access/Ownable.sol\":1373:1405  _transferOwnership(initialOwner) */\n  tag_9\n    /* \"@openzeppelin/contracts/access/Ownable.sol\":1392:1404  initialOwner */\n  dup2\n    /* \"@openzeppelin/contracts/access/Ownable.sol\":1373:1391  _transferOwnership */\n  shl(0x20, tag_10)\n    /* \"@openzeppelin/contracts/access/Ownable.sol\":1373:1405  _transferOwnership(initialOwner) */\n  0x20\n  shr\n  jump\t// in\ntag_9:\n    /* \"@openzeppelin/contracts/access/Ownable.sol\":1225:1412  constructor(address initialOwner) {... */\n  pop\n    /* \"@openzeppelin/contracts/security/ReentrancyGuard.sol\":1716:1717  1 */\n  0x01\n    /* \"@openzeppelin/contracts/security/ReentrancyGuard.sol\":1821:1828  _status */\n  dup1\n    /* \"@openzeppelin/contracts/security/ReentrancyGuard.sol\":1821:1843  _status = _NOT_ENTERED */\n  dup2\n  swap1\n  sstore\n  pop\n    /* \"D/depinRegistery.sol\":424:4579  contract DePinRegistry is Ownable, ReentrancyGuard {... */\n  jump(tag_13)\n    /* \"@openzeppelin/contracts/access/Ownable.sol\":2912:3099  function _transferOwnership(address newOwner) internal virtual {... */\ntag_10:\n    /* \"@openzeppelin/contracts/access/Ownable.sol\":2985:3001  address oldOwner */\n  0x00\n    /* \"@openzeppelin/contracts/access/Ownable.sol\":3004:3010  _owner */\n  dup1\n  0x00\n  swap1\n  sload\n  swap1\n  0x0100\n  exp\n  swap1\n  div\n  0xffffffffffffffffffffffffffffffffffffffff\n  and\n    /* \"@openzeppelin/contracts/access/Ownable.sol\":2985:3010  address oldOwner = _owner */\n  swap1\n  pop\n    /* \"@openzeppelin/contracts/access/Ownable.sol\":3029:3037  newOwner */\n  dup2\n    /* \"@openzeppelin/contracts/access/Ownable.sol\":3020:3026  _owner */\n  0x00\n  dup1\n    /* \"@openzeppelin/contracts/access/Ownable.sol\":3020:3037  _owner = newOwner */\n  0x0100\n  exp\n  dup2\n  sload\n  dup2\n  0xffffffffffffffffffffffffffffffffffffffff\n  mul\n  not\n  and\n  swap1\n  dup4\n  0xffffffffffffffffffffffffffffffffffffffff\n  and\n  mul\n  or\n  swap1\n  sstore\n  pop\n    /* \"@openzeppelin/contracts/access/Ownable.sol\":3083:3091  newOwner */\n  dup2\n    /* \"@openzeppelin/contracts/access/Ownable.sol\":3052:3092  OwnershipTransferred(oldOwner, newOwner) */\n  0xffffffffffffffffffffffffffffffffffffffff\n  and\n    /* \"@openzeppelin/contracts/access/Ownable.sol\":3073:3081  oldOwner */\n  dup2\n    /* \"@openzeppelin/contracts/access/Ownable.sol\":3052:3092  OwnershipTransferred(oldOwner, newOwner) */\n  0xffffffffffffffffffffffffffffffffffffffff\n  and\n  0x8be0079c531659141344cd1fd0a4f28419497f9722a3daafe3b4186f6b6457e0\n  mload(0x40)\n  mload(0x40)\n  dup1\n  swap2\n  sub\n  swap1\n  log3\n    /* \"@openzeppelin/contracts/access/Ownable.sol\":2975:3099  {... */\n  pop\n    /* \"@openzeppelin/contracts/access/Ownable.sol\":2912:3099  function _transferOwnership(address newOwner) internal virtual {... */\n  pop\n  jump\t// out\n    /* \"#utility.yul\":7:133   */\ntag_15:\n    /* \"#utility.yul\":44:51   */\n  0x00\n    /* \"#utility.yul\":84:126   */\n  0xffffffffffffffffffffffffffffffffffffffff\n    /* \"#utility.yul\":77:82   */\n  dup3\n    /* \"#utility.yul\":73:127   */\n  and\n    /* \"#utility.yul\":62:127   */\n  swap1\n  pop\n    /* \"#utility.yul\":7:133   */\n  swap2\n  swap1\n  pop\n  jump\t// out\n    /* \"#utility.yul\":139:235   */\ntag_16:\n    /* \"#utility.yul\":176:183   */\n  0x00\n    /* \"#utility.yul\":205:229   */\n  tag_21\n    /* \"#utility.yul\":223:228   */\n  dup3\n    /* \"#utility.yul\":205:229   */\n  tag_15\n  jump\t// in\ntag_21:\n    /* \"#utility.yul\":194:229   */\n  swap1\n  pop\n    /* \"#utility.yul\":139:235   */\n  swap2\n  swap1\n  pop\n  jump\t// out\n    /* \"#utility.yul\":241:359   */\ntag_17:\n    /* \"#utility.yul\":328:352   */\n  tag_23\n    /* \"#utility.yul\":346:351   */\n  dup2\n    /* \"#utility.yul\":328:352   */\n  tag_16\n  jump\t// in\ntag_23:\n    /* \"#utility.yul\":323:326   */\n  dup3\n    /* \"#utility.yul\":316:353   */\n  mstore\n    /* \"#utility.yul\":241:359   */\n  pop\n  pop\n  jump\t// out\n    /* \"#utility.yul\":365:587   */\ntag_8:\n    /* \"#utility.yul\":458:462   */\n  0x00\n    /* \"#utility.yul\":496:498   */\n  0x20\n    /* \"#utility.yul\":485:494   */\n  dup3\n    /* \"#utility.yul\":481:499   */\n  add\n    /* \"#utility.yul\":473:499   */\n  swap1\n  pop\n    /* \"#utility.yul\":509:580   */\n  tag_25\n    /* \"#utility.yul\":577:578   */\n  0x00\n    /* \"#utility.yul\":566:575   */\n  dup4\n    /* \"#utility.yul\":562:579   */\n  add\n    /* \"#utility.yul\":553:559   */\n  dup5\n    /* \"#utility.yul\":509:580   */\n  tag_17\n  jump\t// in\ntag_25:\n    /* \"#utility.yul\":365:587   */\n  swap3\n  swap2\n  pop\n  pop\n  jump\t// out\n    /* \"D/depinRegistery.sol\":424:4579  contract DePinRegistry is Ownable, ReentrancyGuard {... */\ntag_13:\n  dataSize(sub_0)\n  dup1\n  dataOffset(sub_0)\n  0x00\n  codecopy\n  0x00\n  return\nstop\n\nsub_0: assembly {\n        /* \"D/depinRegistery.sol\":424:4579  contract DePinRegistry is Ownable, ReentrancyGuard {... */\n      mstore(0x40, 0x80)\n      callvalue\n      dup1\n      iszero\n      tag_1\n      jumpi\n      0x00\n      dup1\n      revert\n    tag_1:\n      pop\n      jumpi(tag_2, lt(calldatasize, 0x04))\n      shr(0xe0, calldataload(0x00))\n      dup1\n      0x53491af5\n      gt\n      tag_14\n      jumpi\n      dup1\n      0x53491af5\n      eq\n      tag_8\n      jumpi\n      dup1\n      0x715018a6\n      eq\n      tag_9\n      jumpi\n      dup1\n      0x8da5cb5b\n      eq\n      tag_10\n      jumpi\n      dup1\n      0x9592d424\n      eq\n      tag_11\n      jumpi\n      dup1\n      0xf2fde38b\n      eq\n      tag_12\n      jumpi\n      dup1\n      0xffd740df\n      eq\n      tag_13\n      jumpi\n      jump(tag_2)\n    tag_14:\n      dup1\n      0x1c53c280\n      eq\n      tag_3\n      jumpi\n      dup1\n      0x20eca391\n      eq\n      tag_4\n      jumpi\n      dup1\n      0x22ef64fe\n      eq\n      tag_5\n      jumpi\n      dup1\n      0x27c6f43e\n      eq\n      tag_6\n      jumpi\n      dup1\n      0x4f0f4aa9\n      eq\n      tag_7\n      jumpi\n    tag_2:\n      0x00\n      dup1\n      revert\n        /* \"D/depinRegistery.sol\":860:902  mapping(uint256 => DePinNode) public nodes */\n    tag_3:\n      tag_15\n      0x04\n      dup1\n      calldatasize\n      sub\n      dup2\n      add\n      swap1\n      tag_16\n      swap2\n      swap1\n      tag_17\n      jump\t// in\n    tag_16:\n      tag_18\n      jump\t// in\n    tag_15:\n      mload(0x40)\n      tag_19\n      swap6\n      swap5\n      swap4\n      swap3\n      swap2\n      swap1\n      tag_20\n      jump\t// in\n    tag_19:\n      mload(0x40)\n      dup1\n      swap2\n      sub\n      swap1\n      return\n        /* \"D/depinRegistery.sol\":779:804  uint256 public nextNodeId */\n    tag_4:\n      tag_21\n      tag_22\n      jump\t// in\n    tag_21:\n      mload(0x40)\n      tag_23\n      swap2\n      swap1\n      tag_24\n      jump\t// in\n    tag_23:\n      mload(0x40)\n      dup1\n      swap2\n      sub\n      swap1\n      return\n        /* \"D/depinRegistery.sol\":3803:3909  function getActiveNodeIds() external view returns (uint256[] memory) {... */\n    tag_5:\n      tag_25\n      tag_26\n      jump\t// in\n    tag_25:\n      mload(0x40)\n      tag_27\n      swap2\n      swap1\n      tag_28\n      jump\t// in\n    tag_27:\n      mload(0x40)\n      dup1\n      swap2\n      sub\n      swap1\n      return\n        /* \"D/depinRegistery.sol\":1585:2151  function registerNode(string calldata metadataURI)... */\n    tag_6:\n      tag_29\n      0x04\n      dup1\n      calldatasize\n      sub\n      dup2\n      add\n      swap1\n      tag_30\n      swap2\n      swap1\n      tag_31\n      jump\t// in\n    tag_30:\n      tag_32\n      jump\t// in\n    tag_29:\n      mload(0x40)\n      tag_33\n      swap2\n      swap1\n      tag_24\n      jump\t// in\n    tag_33:\n      mload(0x40)\n      dup1\n      swap2\n      sub\n      swap1\n      return\n        /* \"D/depinRegistery.sol\":3580:3691  function getNode(uint256 nodeId) external view returns (DePinNode memory) {... */\n    tag_7:\n      tag_34\n      0x04\n      dup1\n      calldatasize\n      sub\n      dup2\n      add\n      swap1\n      tag_35\n      swap2\n      swap1\n      tag_17\n      jump\t// in\n    tag_35:\n      tag_36\n      jump\t// in\n    tag_34:\n      mload(0x40)\n      tag_37\n      swap2\n      swap1\n      tag_38\n      jump\t// in\n    tag_37:\n      mload(0x40)\n      dup1\n      swap2\n      sub\n      swap1\n      return\n        /* \"D/depinRegistery.sol\":2380:2868  function updateNode(uint256 nodeId, string calldata newMetadataURI) external nonReentrant {... */\n    tag_8:\n      tag_39\n      0x04\n      dup1\n      calldatasize\n      sub\n      dup2\n      add\n      swap1\n      tag_40\n      swap2\n      swap1\n      tag_41\n      jump\t// in\n    tag_40:\n      tag_42\n      jump\t// in\n    tag_39:\n      stop\n        /* \"@openzeppelin/contracts/access/Ownable.sol\":2293:2394  function renounceOwnership() public virtual onlyOwner {... */\n    tag_9:\n      tag_43\n      tag_44\n      jump\t// in\n    tag_43:\n      stop\n        /* \"@openzeppelin/contracts/access/Ownable.sol\":1638:1723  function owner() public view virtual returns (address) {... */\n    tag_10:\n      tag_45\n      tag_46\n      jump\t// in\n    tag_45:\n      mload(0x40)\n      tag_47\n      swap2\n      swap1\n      tag_48\n      jump\t// in\n    tag_47:\n      mload(0x40)\n      dup1\n      swap2\n      sub\n      swap1\n      return\n        /* \"D/depinRegistery.sol\":4000:4088  function totalNodes() external view returns (uint256) {... */\n    tag_11:\n      tag_49\n      tag_50\n      jump\t// in\n    tag_49:\n      mload(0x40)\n      tag_51\n      swap2\n      swap1\n      tag_24\n      jump\t// in\n    tag_51:\n      mload(0x40)\n      dup1\n      swap2\n      sub\n      swap1\n      return\n        /* \"@openzeppelin/contracts/access/Ownable.sol\":2543:2758  function transferOwnership(address newOwner) public virtual onlyOwner {... */\n    tag_12:\n      tag_52\n      0x04\n      dup1\n      calldatasize\n      sub\n      dup2\n      add\n      swap1\n      tag_53\n      swap2\n      swap1\n      tag_54\n      jump\t// in\n    tag_53:\n      tag_55\n      jump\t// in\n    tag_52:\n      stop\n        /* \"D/depinRegistery.sol\":3060:3431  function removeNode(uint256 nodeId) external nonReentrant {... */\n    tag_13:\n      tag_56\n      0x04\n      dup1\n      calldatasize\n      sub\n      dup2\n      add\n      swap1\n      tag_57\n      swap2\n      swap1\n      tag_17\n      jump\t// in\n    tag_57:\n      tag_58\n      jump\t// in\n    tag_56:\n      stop\n        /* \"D/depinRegistery.sol\":860:902  mapping(uint256 => DePinNode) public nodes */\n    tag_18:\n      mstore(0x20, 0x03)\n      dup1\n      0x00\n      mstore\n      keccak256(0x00, 0x40)\n      0x00\n      swap2\n      pop\n      swap1\n      pop\n      dup1\n      0x00\n      add\n      sload\n      swap1\n      dup1\n      0x01\n      add\n      0x00\n      swap1\n      sload\n      swap1\n      0x0100\n      exp\n      swap1\n      div\n      0xffffffffffffffffffffffffffffffffffffffff\n      and\n      swap1\n      dup1\n      0x02\n      add\n      dup1\n      sload\n      tag_59\n      swap1\n      tag_60\n      jump\t// in\n    tag_59:\n      dup1\n      0x1f\n      add\n      0x20\n      dup1\n      swap2\n      div\n      mul\n      0x20\n      add\n      mload(0x40)\n      swap1\n      dup2\n      add\n      0x40\n      mstore\n      dup1\n      swap3\n      swap2\n      swap1\n      dup2\n      dup2\n      mstore\n      0x20\n      add\n      dup3\n      dup1\n      sload\n      tag_61\n      swap1\n      tag_60\n      jump\t// in\n    tag_61:\n      dup1\n      iszero\n      tag_62\n      jumpi\n      dup1\n      0x1f\n      lt\n      tag_63\n      jumpi\n      0x0100\n      dup1\n      dup4\n      sload\n      div\n      mul\n      dup4\n      mstore\n      swap2\n      0x20\n      add\n      swap2\n      jump(tag_62)\n    tag_63:\n      dup3\n      add\n      swap2\n      swap1\n      0x00\n      mstore\n      keccak256(0x00, 0x20)\n      swap1\n    tag_64:\n      dup2\n      sload\n      dup2\n      mstore\n      swap1\n      0x01\n      add\n      swap1\n      0x20\n      add\n      dup1\n      dup4\n      gt\n      tag_64\n      jumpi\n      dup3\n      swap1\n      sub\n      0x1f\n      and\n      dup3\n      add\n      swap2\n    tag_62:\n      pop\n      pop\n      pop\n      pop\n      pop\n      swap1\n      dup1\n      0x03\n      add\n      0x00\n      swap1\n      sload\n      swap1\n      0x0100\n      exp\n      swap1\n      div\n      0xff\n      and\n      swap1\n      dup1\n      0x04\n      add\n      sload\n      swap1\n      pop\n      dup6\n      jump\t// out\n        /* \"D/depinRegistery.sol\":779:804  uint256 public nextNodeId */\n    tag_22:\n      sload(0x02)\n      dup2\n      jump\t// out\n        /* \"D/depinRegistery.sol\":3803:3909  function getActiveNodeIds() external view returns (uint256[] memory) {... */\n    tag_26:\n        /* \"D/depinRegistery.sol\":3854:3870  uint256[] memory */\n      0x60\n        /* \"D/depinRegistery.sol\":3889:3902  activeNodeIds */\n      0x04\n        /* \"D/depinRegistery.sol\":3882:3902  return activeNodeIds */\n      dup1\n      sload\n      dup1\n      0x20\n      mul\n      0x20\n      add\n      mload(0x40)\n      swap1\n      dup2\n      add\n      0x40\n      mstore\n      dup1\n      swap3\n      swap2\n      swap1\n      dup2\n      dup2\n      mstore\n      0x20\n      add\n      dup3\n      dup1\n      sload\n      dup1\n      iszero\n      tag_66\n      jumpi\n      0x20\n      mul\n      dup3\n      add\n      swap2\n      swap1\n      0x00\n      mstore\n      keccak256(0x00, 0x20)\n      swap1\n    tag_67:\n      dup2\n      sload\n      dup2\n      mstore\n      0x20\n      add\n      swap1\n      0x01\n      add\n      swap1\n      dup1\n      dup4\n      gt\n      tag_67\n      jumpi\n    tag_66:\n      pop\n      pop\n      pop\n      pop\n      pop\n      swap1\n      pop\n        /* \"D/depinRegistery.sol\":3803:3909  function getActiveNodeIds() external view returns (uint256[] memory) {... */\n      swap1\n      jump\t// out\n        /* \"D/depinRegistery.sol\":1585:2151  function registerNode(string calldata metadataURI)... */\n    tag_32:\n        /* \"D/depinRegistery.sol\":1691:1705  uint256 nodeId */\n      0x00\n        /* \"@openzeppelin/contracts/security/ReentrancyGuard.sol\":2261:2282  _nonReentrantBefore() */\n      tag_69\n        /* \"@openzeppelin/contracts/security/ReentrancyGuard.sol\":2261:2280  _nonReentrantBefore */\n      tag_70\n        /* \"@openzeppelin/contracts/security/ReentrancyGuard.sol\":2261:2282  _nonReentrantBefore() */\n      jump\t// in\n    tag_69:\n        /* \"D/depinRegistery.sol\":1757:1758  0 */\n      0x00\n        /* \"D/depinRegistery.sol\":1735:1746  metadataURI */\n      dup4\n      dup4\n        /* \"D/depinRegistery.sol\":1729:1754  bytes(metadataURI).length */\n      swap1\n      pop\n        /* \"D/depinRegistery.sol\":1729:1758  bytes(metadataURI).length > 0 */\n      gt\n        /* \"D/depinRegistery.sol\":1721:1787  require(bytes(metadataURI).length > 0, \"Metadata URI is required\") */\n      tag_72\n      jumpi\n      mload(0x40)\n      0x08c379a000000000000000000000000000000000000000000000000000000000\n      dup2\n      mstore\n      0x04\n      add\n      tag_73\n      swap1\n      tag_74\n      jump\t// in\n    tag_73:\n      mload(0x40)\n      dup1\n      swap2\n      sub\n      swap1\n      revert\n    tag_72:\n        /* \"D/depinRegistery.sol\":1807:1817  nextNodeId */\n      0x02\n      0x00\n        /* \"D/depinRegistery.sol\":1807:1819  nextNodeId++ */\n      dup2\n      sload\n      dup1\n      swap3\n      swap2\n      swap1\n      tag_75\n      swap1\n      tag_76\n      jump\t// in\n    tag_75:\n      swap2\n      swap1\n      pop\n      sstore\n        /* \"D/depinRegistery.sol\":1798:1819  nodeId = nextNodeId++ */\n      swap1\n      pop\n        /* \"D/depinRegistery.sol\":1845:2028  DePinNode({... */\n      mload(0x40)\n      dup1\n      0xa0\n      add\n      0x40\n      mstore\n      dup1\n        /* \"D/depinRegistery.sol\":1873:1879  nodeId */\n      dup3\n        /* \"D/depinRegistery.sol\":1845:2028  DePinNode({... */\n      dup2\n      mstore\n      0x20\n      add\n        /* \"D/depinRegistery.sol\":1900:1910  msg.sender */\n      caller\n        /* \"D/depinRegistery.sol\":1845:2028  DePinNode({... */\n      0xffffffffffffffffffffffffffffffffffffffff\n      and\n      dup2\n      mstore\n      0x20\n      add\n        /* \"D/depinRegistery.sol\":1937:1948  metadataURI */\n      dup5\n      dup5\n        /* \"D/depinRegistery.sol\":1845:2028  DePinNode({... */\n      dup1\n      dup1\n      0x1f\n      add\n      0x20\n      dup1\n      swap2\n      div\n      mul\n      0x20\n      add\n      mload(0x40)\n      swap1\n      dup2\n      add\n      0x40\n      mstore\n      dup1\n      swap4\n      swap3\n      swap2\n      swap1\n      dup2\n      dup2\n      mstore\n      0x20\n      add\n      dup4\n      dup4\n      dup1\n      dup3\n      dup5\n      calldatacopy\n      0x00\n      dup2\n      dup5\n      add\n      mstore\n      not(0x1f)\n      0x1f\n      dup3\n      add\n      and\n      swap1\n      pop\n      dup1\n      dup4\n      add\n      swap3\n      pop\n      pop\n      pop\n      pop\n      pop\n      pop\n      pop\n      dup2\n      mstore\n      0x20\n      add\n        /* \"D/depinRegistery.sol\":1970:1974  true */\n      0x01\n        /* \"D/depinRegistery.sol\":1845:2028  DePinNode({... */\n      iszero\n      iszero\n      dup2\n      mstore\n      0x20\n      add\n        /* \"D/depinRegistery.sol\":2002:2017  block.timestamp */\n      timestamp\n        /* \"D/depinRegistery.sol\":1845:2028  DePinNode({... */\n      dup2\n      mstore\n      pop\n        /* \"D/depinRegistery.sol\":1829:1834  nodes */\n      0x03\n        /* \"D/depinRegistery.sol\":1829:1842  nodes[nodeId] */\n      0x00\n        /* \"D/depinRegistery.sol\":1835:1841  nodeId */\n      dup4\n        /* \"D/depinRegistery.sol\":1829:1842  nodes[nodeId] */\n      dup2\n      mstore\n      0x20\n      add\n      swap1\n      dup2\n      mstore\n      0x20\n      add\n      0x00\n      keccak256\n        /* \"D/depinRegistery.sol\":1829:2028  nodes[nodeId] = DePinNode({... */\n      0x00\n      dup3\n      add\n      mload\n      dup2\n      0x00\n      add\n      sstore\n      0x20\n      dup3\n      add\n      mload\n      dup2\n      0x01\n      add\n      exp(0x0100, 0x00)\n      dup2\n      sload\n      dup2\n      0xffffffffffffffffffffffffffffffffffffffff\n      mul\n      not\n      and\n      swap1\n      dup4\n      0xffffffffffffffffffffffffffffffffffffffff\n      and\n      mul\n      or\n      swap1\n      sstore\n      pop\n      0x40\n      dup3\n      add\n      mload\n      dup2\n      0x02\n      add\n      swap1\n      dup2\n      tag_77\n      swap2\n      swap1\n      tag_78\n      jump\t// in\n    tag_77:\n      pop\n      0x60\n      dup3\n      add\n      mload\n      dup2\n      0x03\n      add\n      exp(0x0100, 0x00)\n      dup2\n      sload\n      dup2\n      0xff\n      mul\n      not\n      and\n      swap1\n      dup4\n      iszero\n      iszero\n      mul\n      or\n      swap1\n      sstore\n      pop\n      0x80\n      dup3\n      add\n      mload\n      dup2\n      0x04\n      add\n      sstore\n      swap1\n      pop\n      pop\n        /* \"D/depinRegistery.sol\":2038:2051  activeNodeIds */\n      0x04\n        /* \"D/depinRegistery.sol\":2057:2063  nodeId */\n      dup2\n        /* \"D/depinRegistery.sol\":2038:2064  activeNodeIds.push(nodeId) */\n      swap1\n      dup1\n      0x01\n      dup2\n      sload\n      add\n      dup1\n      dup3\n      sstore\n      dup1\n      swap2\n      pop\n      pop\n      0x01\n      swap1\n      sub\n      swap1\n      0x00\n      mstore\n      keccak256(0x00, 0x20)\n      add\n      0x00\n      swap1\n      swap2\n      swap1\n      swap2\n      swap1\n      swap2\n      pop\n      sstore\n        /* \"D/depinRegistery.sol\":2103:2113  msg.sender */\n      caller\n        /* \"D/depinRegistery.sol\":2080:2144  NodeRegistered(nodeId, msg.sender, metadataURI, block.timestamp) */\n      0xffffffffffffffffffffffffffffffffffffffff\n      and\n        /* \"D/depinRegistery.sol\":2095:2101  nodeId */\n      dup2\n        /* \"D/depinRegistery.sol\":2080:2144  NodeRegistered(nodeId, msg.sender, metadataURI, block.timestamp) */\n      0x72fe24c5bf0e5c5b227d652cd77641bb42e2398e4e376622b7b7b5891c734ae0\n        /* \"D/depinRegistery.sol\":2115:2126  metadataURI */\n      dup6\n      dup6\n        /* \"D/depinRegistery.sol\":2128:2143  block.timestamp */\n      timestamp\n        /* \"D/depinRegistery.sol\":2080:2144  NodeRegistered(nodeId, msg.sender, metadataURI, block.timestamp) */\n      mload(0x40)\n      tag_80\n      swap4\n      swap3\n      swap2\n      swap1\n      tag_81\n      jump\t// in\n    tag_80:\n      mload(0x40)\n      dup1\n      swap2\n      sub\n      swap1\n      log3\n        /* \"@openzeppelin/contracts/security/ReentrancyGuard.sol\":2303:2323  _nonReentrantAfter() */\n      tag_82\n        /* \"@openzeppelin/contracts/security/ReentrancyGuard.sol\":2303:2321  _nonReentrantAfter */\n      tag_83\n        /* \"@openzeppelin/contracts/security/ReentrancyGuard.sol\":2303:2323  _nonReentrantAfter() */\n      jump\t// in\n    tag_82:\n        /* \"D/depinRegistery.sol\":1585:2151  function registerNode(string calldata metadataURI)... */\n      swap3\n      swap2\n      pop\n      pop\n      jump\t// out\n        /* \"D/depinRegistery.sol\":3580:3691  function getNode(uint256 nodeId) external view returns (DePinNode memory) {... */\n    tag_36:\n        /* \"D/depinRegistery.sol\":3636:3652  DePinNode memory */\n      tag_84\n      tag_85\n      jump\t// in\n    tag_84:\n        /* \"D/depinRegistery.sol\":3671:3676  nodes */\n      0x03\n        /* \"D/depinRegistery.sol\":3671:3684  nodes[nodeId] */\n      0x00\n        /* \"D/depinRegistery.sol\":3677:3683  nodeId */\n      dup4\n        /* \"D/depinRegistery.sol\":3671:3684  nodes[nodeId] */\n      dup2\n      mstore\n      0x20\n      add\n      swap1\n      dup2\n      mstore\n      0x20\n      add\n      0x00\n      keccak256\n        /* \"D/depinRegistery.sol\":3664:3684  return nodes[nodeId] */\n      mload(0x40)\n      dup1\n      0xa0\n      add\n      0x40\n      mstore\n      swap1\n      dup2\n      0x00\n      dup3\n      add\n      sload\n      dup2\n      mstore\n      0x20\n      add\n      0x01\n      dup3\n      add\n      0x00\n      swap1\n      sload\n      swap1\n      0x0100\n      exp\n      swap1\n      div\n      0xffffffffffffffffffffffffffffffffffffffff\n      and\n      0xffffffffffffffffffffffffffffffffffffffff\n      and\n      0xffffffffffffffffffffffffffffffffffffffff\n      and\n      dup2\n      mstore\n      0x20\n      add\n      0x02\n      dup3\n      add\n      dup1\n      sload\n      tag_87\n      swap1\n      tag_60\n      jump\t// in\n    tag_87:\n      dup1\n      0x1f\n      add\n      0x20\n      dup1\n      swap2\n      div\n      mul\n      0x20\n      add\n      mload(0x40)\n      swap1\n      dup2\n      add\n      0x40\n      mstore\n      dup1\n      swap3\n      swap2\n      swap1\n      dup2\n      dup2\n      mstore\n      0x20\n      add\n      dup3\n      dup1\n      sload\n      tag_88\n      swap1\n      tag_60\n      jump\t// in\n    tag_88:\n      dup1\n      iszero\n      tag_89\n      jumpi\n      dup1\n      0x1f\n      lt\n      tag_90\n      jumpi\n      0x0100\n      dup1\n      dup4\n      sload\n      div\n      mul\n      dup4\n      mstore\n      swap2\n      0x20\n      add\n      swap2\n      jump(tag_89)\n    tag_90:\n      dup3\n      add\n      swap2\n      swap1\n      0x00\n      mstore\n      keccak256(0x00, 0x20)\n      swap1\n    tag_91:\n      dup2\n      sload\n      dup2\n      mstore\n      swap1\n      0x01\n      add\n      swap1\n      0x20\n      add\n      dup1\n      dup4\n      gt\n      tag_91\n      jumpi\n      dup3\n      swap1\n      sub\n      0x1f\n      and\n      dup3\n      add\n      swap2\n    tag_89:\n      pop\n      pop\n      pop\n      pop\n      pop\n      dup2\n      mstore\n      0x20\n      add\n      0x03\n      dup3\n      add\n      0x00\n      swap1\n      sload\n      swap1\n      0x0100\n      exp\n      swap1\n      div\n      0xff\n      and\n      iszero\n      iszero\n      iszero\n      iszero\n      dup2\n      mstore\n      0x20\n      add\n      0x04\n      dup3\n      add\n      sload\n      dup2\n      mstore\n      pop\n      pop\n      swap1\n      pop\n        /* \"D/depinRegistery.sol\":3580:3691  function getNode(uint256 nodeId) external view returns (DePinNode memory) {... */\n      swap2\n      swap1\n      pop\n      jump\t// out\n        /* \"D/depinRegistery.sol\":2380:2868  function updateNode(uint256 nodeId, string calldata newMetadataURI) external nonReentrant {... */\n    tag_42:\n        /* \"@openzeppelin/contracts/security/ReentrancyGuard.sol\":2261:2282  _nonReentrantBefore() */\n      tag_93\n        /* \"@openzeppelin/contracts/security/ReentrancyGuard.sol\":2261:2280  _nonReentrantBefore */\n      tag_70\n        /* \"@openzeppelin/contracts/security/ReentrancyGuard.sol\":2261:2282  _nonReentrantBefore() */\n      jump\t// in\n    tag_93:\n        /* \"D/depinRegistery.sol\":2480:2502  DePinNode storage node */\n      0x00\n        /* \"D/depinRegistery.sol\":2505:2510  nodes */\n      0x03\n        /* \"D/depinRegistery.sol\":2505:2518  nodes[nodeId] */\n      0x00\n        /* \"D/depinRegistery.sol\":2511:2517  nodeId */\n      dup6\n        /* \"D/depinRegistery.sol\":2505:2518  nodes[nodeId] */\n      dup2\n      mstore\n      0x20\n      add\n      swap1\n      dup2\n      mstore\n      0x20\n      add\n      0x00\n      keccak256\n        /* \"D/depinRegistery.sol\":2480:2518  DePinNode storage node = nodes[nodeId] */\n      swap1\n      pop\n        /* \"D/depinRegistery.sol\":2536:2540  node */\n      dup1\n        /* \"D/depinRegistery.sol\":2536:2547  node.active */\n      0x03\n      add\n      0x00\n      swap1\n      sload\n      swap1\n      0x0100\n      exp\n      swap1\n      div\n      0xff\n      and\n        /* \"D/depinRegistery.sol\":2528:2567  require(node.active, \"Node not active\") */\n      tag_95\n      jumpi\n      mload(0x40)\n      0x08c379a000000000000000000000000000000000000000000000000000000000\n      dup2\n      mstore\n      0x04\n      add\n      tag_96\n      swap1\n      tag_97\n      jump\t// in\n    tag_96:\n      mload(0x40)\n      dup1\n      swap2\n      sub\n      swap1\n      revert\n    tag_95:\n        /* \"D/depinRegistery.sol\":2599:2609  msg.sender */\n      caller\n        /* \"D/depinRegistery.sol\":2585:2609  node.owner == msg.sender */\n      0xffffffffffffffffffffffffffffffffffffffff\n      and\n        /* \"D/depinRegistery.sol\":2585:2589  node */\n      dup2\n        /* \"D/depinRegistery.sol\":2585:2595  node.owner */\n      0x01\n      add\n      0x00\n      swap1\n      sload\n      swap1\n      0x0100\n      exp\n      swap1\n      div\n      0xffffffffffffffffffffffffffffffffffffffff\n      and\n        /* \"D/depinRegistery.sol\":2585:2609  node.owner == msg.sender */\n      0xffffffffffffffffffffffffffffffffffffffff\n      and\n      eq\n        /* \"D/depinRegistery.sol\":2577:2628  require(node.owner == msg.sender, \"Not node owner\") */\n      tag_98\n      jumpi\n      mload(0x40)\n      0x08c379a000000000000000000000000000000000000000000000000000000000\n      dup2\n      mstore\n      0x04\n      add\n      tag_99\n      swap1\n      tag_100\n      jump\t// in\n    tag_99:\n      mload(0x40)\n      dup1\n      swap2\n      sub\n      swap1\n      revert\n    tag_98:\n        /* \"D/depinRegistery.sol\":2677:2678  0 */\n      0x00\n        /* \"D/depinRegistery.sol\":2652:2666  newMetadataURI */\n      dup4\n      dup4\n        /* \"D/depinRegistery.sol\":2646:2674  bytes(newMetadataURI).length */\n      swap1\n      pop\n        /* \"D/depinRegistery.sol\":2646:2678  bytes(newMetadataURI).length > 0 */\n      gt\n        /* \"D/depinRegistery.sol\":2638:2704  require(bytes(newMetadataURI).length > 0, \"Metadata URI required\") */\n      tag_101\n      jumpi\n      mload(0x40)\n      0x08c379a000000000000000000000000000000000000000000000000000000000\n      dup2\n      mstore\n      0x04\n      add\n      tag_102\n      swap1\n      tag_103\n      jump\t// in\n    tag_102:\n      mload(0x40)\n      dup1\n      swap2\n      sub\n      swap1\n      revert\n    tag_101:\n        /* \"D/depinRegistery.sol\":2734:2748  newMetadataURI */\n      dup3\n      dup3\n        /* \"D/depinRegistery.sol\":2715:2719  node */\n      dup3\n        /* \"D/depinRegistery.sol\":2715:2731  node.metadataURI */\n      0x02\n      add\n        /* \"D/depinRegistery.sol\":2715:2748  node.metadataURI = newMetadataURI */\n      swap2\n      dup3\n      tag_104\n      swap3\n      swap2\n      swap1\n      tag_105\n      jump\t// in\n    tag_104:\n      pop\n        /* \"D/depinRegistery.sol\":2778:2793  block.timestamp */\n      timestamp\n        /* \"D/depinRegistery.sol\":2758:2762  node */\n      dup2\n        /* \"D/depinRegistery.sol\":2758:2775  node.registeredAt */\n      0x04\n      add\n        /* \"D/depinRegistery.sol\":2758:2793  node.registeredAt = block.timestamp */\n      dup2\n      swap1\n      sstore\n      pop\n        /* \"D/depinRegistery.sol\":2821:2827  nodeId */\n      dup4\n        /* \"D/depinRegistery.sol\":2809:2861  NodeUpdated(nodeId, newMetadataURI, block.timestamp) */\n      0x8e3ebc34307f854f9e606cea35c2fb39777aa387db784832d71cea84430f688e\n        /* \"D/depinRegistery.sol\":2829:2843  newMetadataURI */\n      dup5\n      dup5\n        /* \"D/depinRegistery.sol\":2845:2860  block.timestamp */\n      timestamp\n        /* \"D/depinRegistery.sol\":2809:2861  NodeUpdated(nodeId, newMetadataURI, block.timestamp) */\n      mload(0x40)\n      tag_106\n      swap4\n      swap3\n      swap2\n      swap1\n      tag_81\n      jump\t// in\n    tag_106:\n      mload(0x40)\n      dup1\n      swap2\n      sub\n      swap1\n      log2\n        /* \"D/depinRegistery.sol\":2470:2868  {... */\n      pop\n        /* \"@openzeppelin/contracts/security/ReentrancyGuard.sol\":2303:2323  _nonReentrantAfter() */\n      tag_107\n        /* \"@openzeppelin/contracts/security/ReentrancyGuard.sol\":2303:2321  _nonReentrantAfter */\n      tag_83\n        /* \"@openzeppelin/contracts/security/ReentrancyGuard.sol\":2303:2323  _nonReentrantAfter() */\n      jump\t// in\n    tag_107:\n        /* \"D/depinRegistery.sol\":2380:2868  function updateNode(uint256 nodeId, string calldata newMetadataURI) external nonReentrant {... */\n      pop\n      pop\n      pop\n      jump\t// out\n        /* \"@openzeppelin/contracts/access/Ownable.sol\":2293:2394  function renounceOwnership() public virtual onlyOwner {... */\n    tag_44:\n        /* \"@openzeppelin/contracts/access/Ownable.sol\":1531:1544  _checkOwner() */\n      tag_109\n        /* \"@openzeppelin/contracts/access/Ownable.sol\":1531:1542  _checkOwner */\n      tag_110\n        /* \"@openzeppelin/contracts/access/Ownable.sol\":1531:1544  _checkOwner() */\n      jump\t// in\n    tag_109:\n        /* \"@openzeppelin/contracts/access/Ownable.sol\":2357:2387  _transferOwnership(address(0)) */\n      tag_112\n        /* \"@openzeppelin/contracts/access/Ownable.sol\":2384:2385  0 */\n      0x00\n        /* \"@openzeppelin/contracts/access/Ownable.sol\":2357:2375  _transferOwnership */\n      tag_113\n        /* \"@openzeppelin/contracts/access/Ownable.sol\":2357:2387  _transferOwnership(address(0)) */\n      jump\t// in\n    tag_112:\n        /* \"@openzeppelin/contracts/access/Ownable.sol\":2293:2394  function renounceOwnership() public virtual onlyOwner {... */\n      jump\t// out\n        /* \"@openzeppelin/contracts/access/Ownable.sol\":1638:1723  function owner() public view virtual returns (address) {... */\n    tag_46:\n        /* \"@openzeppelin/contracts/access/Ownable.sol\":1684:1691  address */\n      0x00\n        /* \"@openzeppelin/contracts/access/Ownable.sol\":1710:1716  _owner */\n      dup1\n      0x00\n      swap1\n      sload\n      swap1\n      0x0100\n      exp\n      swap1\n      div\n      0xffffffffffffffffffffffffffffffffffffffff\n      and\n        /* \"@openzeppelin/contracts/access/Ownable.sol\":1703:1716  return _owner */\n      swap1\n      pop\n        /* \"@openzeppelin/contracts/access/Ownable.sol\":1638:1723  function owner() public view virtual returns (address) {... */\n      swap1\n      jump\t// out\n        /* \"D/depinRegistery.sol\":4000:4088  function totalNodes() external view returns (uint256) {... */\n    tag_50:\n        /* \"D/depinRegistery.sol\":4045:4052  uint256 */\n      0x00\n        /* \"D/depinRegistery.sol\":4071:4081  nextNodeId */\n      sload(0x02)\n        /* \"D/depinRegistery.sol\":4064:4081  return nextNodeId */\n      swap1\n      pop\n        /* \"D/depinRegistery.sol\":4000:4088  function totalNodes() external view returns (uint256) {... */\n      swap1\n      jump\t// out\n        /* \"@openzeppelin/contracts/access/Ownable.sol\":2543:2758  function transferOwnership(address newOwner) public virtual onlyOwner {... */\n    tag_55:\n        /* \"@openzeppelin/contracts/access/Ownable.sol\":1531:1544  _checkOwner() */\n      tag_117\n        /* \"@openzeppelin/contracts/access/Ownable.sol\":1531:1542  _checkOwner */\n      tag_110\n        /* \"@openzeppelin/contracts/access/Ownable.sol\":1531:1544  _checkOwner() */\n      jump\t// in\n    tag_117:\n        /* \"@openzeppelin/contracts/access/Ownable.sol\":2647:2648  0 */\n      0x00\n        /* \"@openzeppelin/contracts/access/Ownable.sol\":2627:2649  newOwner == address(0) */\n      0xffffffffffffffffffffffffffffffffffffffff\n      and\n        /* \"@openzeppelin/contracts/access/Ownable.sol\":2627:2635  newOwner */\n      dup2\n        /* \"@openzeppelin/contracts/access/Ownable.sol\":2627:2649  newOwner == address(0) */\n      0xffffffffffffffffffffffffffffffffffffffff\n      and\n      sub\n        /* \"@openzeppelin/contracts/access/Ownable.sol\":2623:2714  if (newOwner == address(0)) {... */\n      tag_119\n      jumpi\n        /* \"@openzeppelin/contracts/access/Ownable.sol\":2700:2701  0 */\n      0x00\n        /* \"@openzeppelin/contracts/access/Ownable.sol\":2672:2703  OwnableInvalidOwner(address(0)) */\n      mload(0x40)\n      0x1e4fbdf700000000000000000000000000000000000000000000000000000000\n      dup2\n      mstore\n      0x04\n      add\n      tag_120\n      swap2\n      swap1\n      tag_48\n      jump\t// in\n    tag_120:\n      mload(0x40)\n      dup1\n      swap2\n      sub\n      swap1\n      revert\n        /* \"@openzeppelin/contracts/access/Ownable.sol\":2623:2714  if (newOwner == address(0)) {... */\n    tag_119:\n        /* \"@openzeppelin/contracts/access/Ownable.sol\":2723:2751  _transferOwnership(newOwner) */\n      tag_121\n        /* \"@openzeppelin/contracts/access/Ownable.sol\":2742:2750  newOwner */\n      dup2\n        /* \"@openzeppelin/contracts/access/Ownable.sol\":2723:2741  _transferOwnership */\n      tag_113\n        /* \"@openzeppelin/contracts/access/Ownable.sol\":2723:2751  _transferOwnership(newOwner) */\n      jump\t// in\n    tag_121:\n        /* \"@openzeppelin/contracts/access/Ownable.sol\":2543:2758  function transferOwnership(address newOwner) public virtual onlyOwner {... */\n      pop\n      jump\t// out\n        /* \"D/depinRegistery.sol\":3060:3431  function removeNode(uint256 nodeId) external nonReentrant {... */\n    tag_58:\n        /* \"@openzeppelin/contracts/security/ReentrancyGuard.sol\":2261:2282  _nonReentrantBefore() */\n      tag_123\n        /* \"@openzeppelin/contracts/security/ReentrancyGuard.sol\":2261:2280  _nonReentrantBefore */\n      tag_70\n        /* \"@openzeppelin/contracts/security/ReentrancyGuard.sol\":2261:2282  _nonReentrantBefore() */\n      jump\t// in\n    tag_123:\n        /* \"D/depinRegistery.sol\":3128:3150  DePinNode storage node */\n      0x00\n        /* \"D/depinRegistery.sol\":3153:3158  nodes */\n      0x03\n        /* \"D/depinRegistery.sol\":3153:3166  nodes[nodeId] */\n      0x00\n        /* \"D/depinRegistery.sol\":3159:3165  nodeId */\n      dup4\n        /* \"D/depinRegistery.sol\":3153:3166  nodes[nodeId] */\n      dup2\n      mstore\n      0x20\n      add\n      swap1\n      dup2\n      mstore\n      0x20\n      add\n      0x00\n      keccak256\n        /* \"D/depinRegistery.sol\":3128:3166  DePinNode storage node = nodes[nodeId] */\n      swap1\n      pop\n        /* \"D/depinRegistery.sol\":3184:3188  node */\n      dup1\n        /* \"D/depinRegistery.sol\":3184:3195  node.active */\n      0x03\n      add\n      0x00\n      swap1\n      sload\n      swap1\n      0x0100\n      exp\n      swap1\n      div\n      0xff\n      and\n        /* \"D/depinRegistery.sol\":3176:3221  require(node.active, \"Node already inactive\") */\n      tag_125\n      jumpi\n      mload(0x40)\n      0x08c379a000000000000000000000000000000000000000000000000000000000\n      dup2\n      mstore\n      0x04\n      add\n      tag_126\n      swap1\n      tag_127\n      jump\t// in\n    tag_126:\n      mload(0x40)\n      dup1\n      swap2\n      sub\n      swap1\n      revert\n    tag_125:\n        /* \"D/depinRegistery.sol\":3253:3263  msg.sender */\n      caller\n        /* \"D/depinRegistery.sol\":3239:3263  node.owner == msg.sender */\n      0xffffffffffffffffffffffffffffffffffffffff\n      and\n        /* \"D/depinRegistery.sol\":3239:3243  node */\n      dup2\n        /* \"D/depinRegistery.sol\":3239:3249  node.owner */\n      0x01\n      add\n      0x00\n      swap1\n      sload\n      swap1\n      0x0100\n      exp\n      swap1\n      div\n      0xffffffffffffffffffffffffffffffffffffffff\n      and\n        /* \"D/depinRegistery.sol\":3239:3263  node.owner == msg.sender */\n      0xffffffffffffffffffffffffffffffffffffffff\n      and\n      eq\n        /* \"D/depinRegistery.sol\":3239:3288  node.owner == msg.sender || msg.sender == owner() */\n      dup1\n      tag_128\n      jumpi\n      pop\n        /* \"D/depinRegistery.sol\":3281:3288  owner() */\n      tag_129\n        /* \"D/depinRegistery.sol\":3281:3286  owner */\n      tag_46\n        /* \"D/depinRegistery.sol\":3281:3288  owner() */\n      jump\t// in\n    tag_129:\n        /* \"D/depinRegistery.sol\":3267:3288  msg.sender == owner() */\n      0xffffffffffffffffffffffffffffffffffffffff\n      and\n        /* \"D/depinRegistery.sol\":3267:3277  msg.sender */\n      caller\n        /* \"D/depinRegistery.sol\":3267:3288  msg.sender == owner() */\n      0xffffffffffffffffffffffffffffffffffffffff\n      and\n      eq\n        /* \"D/depinRegistery.sol\":3239:3288  node.owner == msg.sender || msg.sender == owner() */\n    tag_128:\n        /* \"D/depinRegistery.sol\":3231:3305  require(node.owner == msg.sender || msg.sender == owner(), \"Unauthorized\") */\n      tag_130\n      jumpi\n      mload(0x40)\n      0x08c379a000000000000000000000000000000000000000000000000000000000\n      dup2\n      mstore\n      0x04\n      add\n      tag_131\n      swap1\n      tag_132\n      jump\t// in\n    tag_131:\n      mload(0x40)\n      dup1\n      swap2\n      sub\n      swap1\n      revert\n    tag_130:\n        /* \"D/depinRegistery.sol\":3330:3335  false */\n      0x00\n        /* \"D/depinRegistery.sol\":3316:3320  node */\n      dup2\n        /* \"D/depinRegistery.sol\":3316:3327  node.active */\n      0x03\n      add\n      0x00\n        /* \"D/depinRegistery.sol\":3316:3335  node.active = false */\n      0x0100\n      exp\n      dup2\n      sload\n      dup2\n      0xff\n      mul\n      not\n      and\n      swap1\n      dup4\n      iszero\n      iszero\n      mul\n      or\n      swap1\n      sstore\n      pop\n        /* \"D/depinRegistery.sol\":3345:3372  _removeActiveNodeId(nodeId) */\n      tag_133\n        /* \"D/depinRegistery.sol\":3365:3371  nodeId */\n      dup3\n        /* \"D/depinRegistery.sol\":3345:3364  _removeActiveNodeId */\n      tag_134\n        /* \"D/depinRegistery.sol\":3345:3372  _removeActiveNodeId(nodeId) */\n      jump\t// in\n    tag_133:\n        /* \"D/depinRegistery.sol\":3400:3406  nodeId */\n      dup2\n        /* \"D/depinRegistery.sol\":3388:3424  NodeRemoved(nodeId, block.timestamp) */\n      0x3015bcc80829a4c53f456008e01cebb461ea9d125d417abb751518ddcab85443\n        /* \"D/depinRegistery.sol\":3408:3423  block.timestamp */\n      timestamp\n        /* \"D/depinRegistery.sol\":3388:3424  NodeRemoved(nodeId, block.timestamp) */\n      mload(0x40)\n      tag_135\n      swap2\n      swap1\n      tag_24\n      jump\t// in\n    tag_135:\n      mload(0x40)\n      dup1\n      swap2\n      sub\n      swap1\n      log2\n        /* \"D/depinRegistery.sol\":3118:3431  {... */\n      pop\n        /* \"@openzeppelin/contracts/security/ReentrancyGuard.sol\":2303:2323  _nonReentrantAfter() */\n      tag_136\n        /* \"@openzeppelin/contracts/security/ReentrancyGuard.sol\":2303:2321  _nonReentrantAfter */\n      tag_83\n        /* \"@openzeppelin/contracts/security/ReentrancyGuard.sol\":2303:2323  _nonReentrantAfter() */\n      jump\t// in\n    tag_136:\n        /* \"D/depinRegistery.sol\":3060:3431  function removeNode(uint256 nodeId) external nonReentrant {... */\n      pop\n      jump\t// out\n        /* \"@openzeppelin/contracts/security/ReentrancyGuard.sol\":2336:2623  function _nonReentrantBefore() private {... */\n    tag_70:\n        /* \"@openzeppelin/contracts/security/ReentrancyGuard.sol\":1759:1760  2 */\n      0x02\n        /* \"@openzeppelin/contracts/security/ReentrancyGuard.sol\":2468:2475  _status */\n      sload(0x01)\n        /* \"@openzeppelin/contracts/security/ReentrancyGuard.sol\":2468:2487  _status != _ENTERED */\n      sub\n        /* \"@openzeppelin/contracts/security/ReentrancyGuard.sol\":2460:2523  require(_status != _ENTERED, \"ReentrancyGuard: reentrant call\") */\n      tag_138\n      jumpi\n      mload(0x40)\n      0x08c379a000000000000000000000000000000000000000000000000000000000\n      dup2\n      mstore\n      0x04\n      add\n      tag_139\n      swap1\n      tag_140\n      jump\t// in\n    tag_139:\n      mload(0x40)\n      dup1\n      swap2\n      sub\n      swap1\n      revert\n    tag_138:\n        /* \"@openzeppelin/contracts/security/ReentrancyGuard.sol\":1759:1760  2 */\n      0x02\n        /* \"@openzeppelin/contracts/security/ReentrancyGuard.sol\":2598:2605  _status */\n      0x01\n        /* \"@openzeppelin/contracts/security/ReentrancyGuard.sol\":2598:2616  _status = _ENTERED */\n      dup2\n      swap1\n      sstore\n      pop\n        /* \"@openzeppelin/contracts/security/ReentrancyGuard.sol\":2336:2623  function _nonReentrantBefore() private {... */\n      jump\t// out\n        /* \"@openzeppelin/contracts/security/ReentrancyGuard.sol\":2629:2838  function _nonReentrantAfter() private {... */\n    tag_83:\n        /* \"@openzeppelin/contracts/security/ReentrancyGuard.sol\":1716:1717  1 */\n      0x01\n        /* \"@openzeppelin/contracts/security/ReentrancyGuard.sol\":2809:2816  _status */\n      dup1\n        /* \"@openzeppelin/contracts/security/ReentrancyGuard.sol\":2809:2831  _status = _NOT_ENTERED */\n      dup2\n      swap1\n      sstore\n      pop\n        /* \"@openzeppelin/contracts/security/ReentrancyGuard.sol\":2629:2838  function _nonReentrantAfter() private {... */\n      jump\t// out\n        /* \"@openzeppelin/contracts/access/Ownable.sol\":1796:1958  function _checkOwner() internal view virtual {... */\n    tag_110:\n        /* \"@openzeppelin/contracts/access/Ownable.sol\":1866:1878  _msgSender() */\n      tag_143\n        /* \"@openzeppelin/contracts/access/Ownable.sol\":1866:1876  _msgSender */\n      tag_144\n        /* \"@openzeppelin/contracts/access/Ownable.sol\":1866:1878  _msgSender() */\n      jump\t// in\n    tag_143:\n        /* \"@openzeppelin/contracts/access/Ownable.sol\":1855:1878  owner() != _msgSender() */\n      0xffffffffffffffffffffffffffffffffffffffff\n      and\n        /* \"@openzeppelin/contracts/access/Ownable.sol\":1855:1862  owner() */\n      tag_145\n        /* \"@openzeppelin/contracts/access/Ownable.sol\":1855:1860  owner */\n      tag_46\n        /* \"@openzeppelin/contracts/access/Ownable.sol\":1855:1862  owner() */\n      jump\t// in\n    tag_145:\n        /* \"@openzeppelin/contracts/access/Ownable.sol\":1855:1878  owner() != _msgSender() */\n      0xffffffffffffffffffffffffffffffffffffffff\n      and\n      eq\n        /* \"@openzeppelin/contracts/access/Ownable.sol\":1851:1952  if (owner() != _msgSender()) {... */\n      tag_146\n      jumpi\n        /* \"@openzeppelin/contracts/access/Ownable.sol\":1928:1940  _msgSender() */\n      tag_147\n        /* \"@openzeppelin/contracts/access/Ownable.sol\":1928:1938  _msgSender */\n      tag_144\n        /* \"@openzeppelin/contracts/access/Ownable.sol\":1928:1940  _msgSender() */\n      jump\t// in\n    tag_147:\n        /* \"@openzeppelin/contracts/access/Ownable.sol\":1901:1941  OwnableUnauthorizedAccount(_msgSender()) */\n      mload(0x40)\n      0x118cdaa700000000000000000000000000000000000000000000000000000000\n      dup2\n      mstore\n      0x04\n      add\n      tag_148\n      swap2\n      swap1\n      tag_48\n      jump\t// in\n    tag_148:\n      mload(0x40)\n      dup1\n      swap2\n      sub\n      swap1\n      revert\n        /* \"@openzeppelin/contracts/access/Ownable.sol\":1851:1952  if (owner() != _msgSender()) {... */\n    tag_146:\n        /* \"@openzeppelin/contracts/access/Ownable.sol\":1796:1958  function _checkOwner() internal view virtual {... */\n      jump\t// out\n        /* \"@openzeppelin/contracts/access/Ownable.sol\":2912:3099  function _transferOwnership(address newOwner) internal virtual {... */\n    tag_113:\n        /* \"@openzeppelin/contracts/access/Ownable.sol\":2985:3001  address oldOwner */\n      0x00\n        /* \"@openzeppelin/contracts/access/Ownable.sol\":3004:3010  _owner */\n      dup1\n      0x00\n      swap1\n      sload\n      swap1\n      0x0100\n      exp\n      swap1\n      div\n      0xffffffffffffffffffffffffffffffffffffffff\n      and\n        /* \"@openzeppelin/contracts/access/Ownable.sol\":2985:3010  address oldOwner = _owner */\n      swap1\n      pop\n        /* \"@openzeppelin/contracts/access/Ownable.sol\":3029:3037  newOwner */\n      dup2\n        /* \"@openzeppelin/contracts/access/Ownable.sol\":3020:3026  _owner */\n      0x00\n      dup1\n        /* \"@openzeppelin/contracts/access/Ownable.sol\":3020:3037  _owner = newOwner */\n      0x0100\n      exp\n      dup2\n      sload\n      dup2\n      0xffffffffffffffffffffffffffffffffffffffff\n      mul\n      not\n      and\n      swap1\n      dup4\n      0xffffffffffffffffffffffffffffffffffffffff\n      and\n      mul\n      or\n      swap1\n      sstore\n      pop\n        /* \"@openzeppelin/contracts/access/Ownable.sol\":3083:3091  newOwner */\n      dup2\n        /* \"@openzeppelin/contracts/access/Ownable.sol\":3052:3092  OwnershipTransferred(oldOwner, newOwner) */\n      0xffffffffffffffffffffffffffffffffffffffff\n      and\n        /* \"@openzeppelin/contracts/access/Ownable.sol\":3073:3081  oldOwner */\n      dup2\n        /* \"@openzeppelin/contracts/access/Ownable.sol\":3052:3092  OwnershipTransferred(oldOwner, newOwner) */\n      0xffffffffffffffffffffffffffffffffffffffff\n      and\n      0x8be0079c531659141344cd1fd0a4f28419497f9722a3daafe3b4186f6b6457e0\n      mload(0x40)\n      mload(0x40)\n      dup1\n      swap2\n      sub\n      swap1\n      log3\n        /* \"@openzeppelin/contracts/access/Ownable.sol\":2975:3099  {... */\n      pop\n        /* \"@openzeppelin/contracts/access/Ownable.sol\":2912:3099  function _transferOwnership(address newOwner) internal virtual {... */\n      pop\n      jump\t// out\n        /* \"D/depinRegistery.sol\":4230:4577  function _removeActiveNodeId(uint256 nodeId) internal {... */\n    tag_134:\n        /* \"D/depinRegistery.sol\":4294:4308  uint256 length */\n      0x00\n        /* \"D/depinRegistery.sol\":4311:4324  activeNodeIds */\n      0x04\n        /* \"D/depinRegistery.sol\":4311:4331  activeNodeIds.length */\n      dup1\n      sload\n      swap1\n      pop\n        /* \"D/depinRegistery.sol\":4294:4331  uint256 length = activeNodeIds.length */\n      swap1\n      pop\n        /* \"D/depinRegistery.sol\":4346:4355  uint256 i */\n      0x00\n        /* \"D/depinRegistery.sol\":4341:4571  for (uint256 i = 0; i < length; i++) {... */\n    tag_151:\n        /* \"D/depinRegistery.sol\":4365:4371  length */\n      dup2\n        /* \"D/depinRegistery.sol\":4361:4362  i */\n      dup2\n        /* \"D/depinRegistery.sol\":4361:4371  i < length */\n      lt\n        /* \"D/depinRegistery.sol\":4341:4571  for (uint256 i = 0; i < length; i++) {... */\n      iszero\n      tag_152\n      jumpi\n        /* \"D/depinRegistery.sol\":4416:4422  nodeId */\n      dup3\n        /* \"D/depinRegistery.sol\":4396:4409  activeNodeIds */\n      0x04\n        /* \"D/depinRegistery.sol\":4410:4411  i */\n      dup3\n        /* \"D/depinRegistery.sol\":4396:4412  activeNodeIds[i] */\n      dup2\n      sload\n      dup2\n      lt\n      tag_154\n      jumpi\n      tag_155\n      tag_156\n      jump\t// in\n    tag_155:\n    tag_154:\n      swap1\n      0x00\n      mstore\n      keccak256(0x00, 0x20)\n      add\n      sload\n        /* \"D/depinRegistery.sol\":4396:4422  activeNodeIds[i] == nodeId */\n      sub\n        /* \"D/depinRegistery.sol\":4392:4561  if (activeNodeIds[i] == nodeId) {... */\n      tag_158\n      jumpi\n        /* \"D/depinRegistery.sol\":4461:4474  activeNodeIds */\n      0x04\n        /* \"D/depinRegistery.sol\":4484:4485  1 */\n      0x01\n        /* \"D/depinRegistery.sol\":4475:4481  length */\n      dup4\n        /* \"D/depinRegistery.sol\":4475:4485  length - 1 */\n      tag_159\n      swap2\n      swap1\n      tag_160\n      jump\t// in\n    tag_159:\n        /* \"D/depinRegistery.sol\":4461:4486  activeNodeIds[length - 1] */\n      dup2\n      sload\n      dup2\n      lt\n      tag_161\n      jumpi\n      tag_162\n      tag_156\n      jump\t// in\n    tag_162:\n    tag_161:\n      swap1\n      0x00\n      mstore\n      keccak256(0x00, 0x20)\n      add\n      sload\n        /* \"D/depinRegistery.sol\":4442:4455  activeNodeIds */\n      0x04\n        /* \"D/depinRegistery.sol\":4456:4457  i */\n      dup3\n        /* \"D/depinRegistery.sol\":4442:4458  activeNodeIds[i] */\n      dup2\n      sload\n      dup2\n      lt\n      tag_164\n      jumpi\n      tag_165\n      tag_156\n      jump\t// in\n    tag_165:\n    tag_164:\n      swap1\n      0x00\n      mstore\n      keccak256(0x00, 0x20)\n      add\n        /* \"D/depinRegistery.sol\":4442:4486  activeNodeIds[i] = activeNodeIds[length - 1] */\n      dup2\n      swap1\n      sstore\n      pop\n        /* \"D/depinRegistery.sol\":4504:4517  activeNodeIds */\n      0x04\n        /* \"D/depinRegistery.sol\":4504:4523  activeNodeIds.pop() */\n      dup1\n      sload\n      dup1\n      tag_167\n      jumpi\n      tag_168\n      tag_169\n      jump\t// in\n    tag_168:\n    tag_167:\n      0x01\n      swap1\n      sub\n      dup2\n      dup2\n      swap1\n      0x00\n      mstore\n      keccak256(0x00, 0x20)\n      add\n      0x00\n      swap1\n      sstore\n      swap1\n      sstore\n        /* \"D/depinRegistery.sol\":4541:4546  break */\n      jump(tag_152)\n        /* \"D/depinRegistery.sol\":4392:4561  if (activeNodeIds[i] == nodeId) {... */\n    tag_158:\n        /* \"D/depinRegistery.sol\":4373:4376  i++ */\n      dup1\n      dup1\n      tag_171\n      swap1\n      tag_76\n      jump\t// in\n    tag_171:\n      swap2\n      pop\n      pop\n        /* \"D/depinRegistery.sol\":4341:4571  for (uint256 i = 0; i < length; i++) {... */\n      jump(tag_151)\n    tag_152:\n      pop\n        /* \"D/depinRegistery.sol\":4284:4577  {... */\n      pop\n        /* \"D/depinRegistery.sol\":4230:4577  function _removeActiveNodeId(uint256 nodeId) internal {... */\n      pop\n      jump\t// out\n        /* \"@openzeppelin/contracts/utils/Context.sol\":656:752  function _msgSender() internal view virtual returns (address) {... */\n    tag_144:\n        /* \"@openzeppelin/contracts/utils/Context.sol\":709:716  address */\n      0x00\n        /* \"@openzeppelin/contracts/utils/Context.sol\":735:745  msg.sender */\n      caller\n        /* \"@openzeppelin/contracts/utils/Context.sol\":728:745  return msg.sender */\n      swap1\n      pop\n        /* \"@openzeppelin/contracts/utils/Context.sol\":656:752  function _msgSender() internal view virtual returns (address) {... */\n      swap1\n      jump\t// out\n    tag_85:\n      mload(0x40)\n      dup1\n      0xa0\n      add\n      0x40\n      mstore\n      dup1\n      0x00\n      dup2\n      mstore\n      0x20\n      add\n      and(0xffffffffffffffffffffffffffffffffffffffff, 0x00)\n      dup2\n      mstore\n      0x20\n      add\n      0x60\n      dup2\n      mstore\n      0x20\n      add\n      iszero(iszero(0x00))\n      dup2\n      mstore\n      0x20\n      add\n      0x00\n      dup2\n      mstore\n      pop\n      swap1\n      jump\t// out\n        /* \"#utility.yul\":88:205   */\n    tag_174:\n        /* \"#utility.yul\":197:198   */\n      0x00\n        /* \"#utility.yul\":194:195   */\n      dup1\n        /* \"#utility.yul\":187:199   */\n      revert\n        /* \"#utility.yul\":211:328   */\n    tag_175:\n        /* \"#utility.yul\":320:321   */\n      0x00\n        /* \"#utility.yul\":317:318   */\n      dup1\n        /* \"#utility.yul\":310:322   */\n      revert\n        /* \"#utility.yul\":334:411   */\n    tag_176:\n        /* \"#utility.yul\":371:378   */\n      0x00\n        /* \"#utility.yul\":400:405   */\n      dup2\n        /* \"#utility.yul\":389:405   */\n      swap1\n      pop\n        /* \"#utility.yul\":334:411   */\n      swap2\n      swap1\n      pop\n      jump\t// out\n        /* \"#utility.yul\":417:539   */\n    tag_177:\n        /* \"#utility.yul\":490:514   */\n      tag_249\n        /* \"#utility.yul\":508:513   */\n      dup2\n        /* \"#utility.yul\":490:514   */\n      tag_176\n      jump\t// in\n    tag_249:\n        /* \"#utility.yul\":483:488   */\n      dup2\n        /* \"#utility.yul\":480:515   */\n      eq\n        /* \"#utility.yul\":470:533   */\n      tag_250\n      jumpi\n        /* \"#utility.yul\":529:530   */\n      0x00\n        /* \"#utility.yul\":526:527   */\n      dup1\n        /* \"#utility.yul\":519:531   */\n      revert\n        /* \"#utility.yul\":470:533   */\n    tag_250:\n        /* \"#utility.yul\":417:539   */\n      pop\n      jump\t// out\n        /* \"#utility.yul\":545:684   */\n    tag_178:\n        /* \"#utility.yul\":591:596   */\n      0x00\n        /* \"#utility.yul\":629:635   */\n      dup2\n        /* \"#utility.yul\":616:636   */\n      calldataload\n        /* \"#utility.yul\":607:636   */\n      swap1\n      pop\n        /* \"#utility.yul\":645:678   */\n      tag_252\n        /* \"#utility.yul\":672:677   */\n      dup2\n        /* \"#utility.yul\":645:678   */\n      tag_177\n      jump\t// in\n    tag_252:\n        /* \"#utility.yul\":545:684   */\n      swap3\n      swap2\n      pop\n      pop\n      jump\t// out\n        /* \"#utility.yul\":690:1019   */\n    tag_17:\n        /* \"#utility.yul\":749:755   */\n      0x00\n        /* \"#utility.yul\":798:800   */\n      0x20\n        /* \"#utility.yul\":786:795   */\n      dup3\n        /* \"#utility.yul\":777:784   */\n      dup5\n        /* \"#utility.yul\":773:796   */\n      sub\n        /* \"#utility.yul\":769:801   */\n      slt\n        /* \"#utility.yul\":766:885   */\n      iszero\n      tag_254\n      jumpi\n        /* \"#utility.yul\":804:883   */\n      tag_255\n      tag_174\n      jump\t// in\n    tag_255:\n        /* \"#utility.yul\":766:885   */\n    tag_254:\n        /* \"#utility.yul\":924:925   */\n      0x00\n        /* \"#utility.yul\":949:1002   */\n      tag_256\n        /* \"#utility.yul\":994:1001   */\n      dup5\n        /* \"#utility.yul\":985:991   */\n      dup3\n        /* \"#utility.yul\":974:983   */\n      dup6\n        /* \"#utility.yul\":970:992   */\n      add\n        /* \"#utility.yul\":949:1002   */\n      tag_178\n      jump\t// in\n    tag_256:\n        /* \"#utility.yul\":939:1002   */\n      swap2\n      pop\n        /* \"#utility.yul\":895:1012   */\n      pop\n        /* \"#utility.yul\":690:1019   */\n      swap3\n      swap2\n      pop\n      pop\n      jump\t// out\n        /* \"#utility.yul\":1025:1143   */\n    tag_179:\n        /* \"#utility.yul\":1112:1136   */\n      tag_258\n        /* \"#utility.yul\":1130:1135   */\n      dup2\n        /* \"#utility.yul\":1112:1136   */\n      tag_176\n      jump\t// in\n    tag_258:\n        /* \"#utility.yul\":1107:1110   */\n      dup3\n        /* \"#utility.yul\":1100:1137   */\n      mstore\n        /* \"#utility.yul\":1025:1143   */\n      pop\n      pop\n      jump\t// out\n        /* \"#utility.yul\":1149:1275   */\n    tag_180:\n        /* \"#utility.yul\":1186:1193   */\n      0x00\n        /* \"#utility.yul\":1226:1268   */\n      0xffffffffffffffffffffffffffffffffffffffff\n        /* \"#utility.yul\":1219:1224   */\n      dup3\n        /* \"#utility.yul\":1215:1269   */\n      and\n        /* \"#utility.yul\":1204:1269   */\n      swap1\n      pop\n        /* \"#utility.yul\":1149:1275   */\n      swap2\n      swap1\n      pop\n      jump\t// out\n        /* \"#utility.yul\":1281:1377   */\n    tag_181:\n        /* \"#utility.yul\":1318:1325   */\n      0x00\n        /* \"#utility.yul\":1347:1371   */\n      tag_261\n        /* \"#utility.yul\":1365:1370   */\n      dup3\n        /* \"#utility.yul\":1347:1371   */\n      tag_180\n      jump\t// in\n    tag_261:\n        /* \"#utility.yul\":1336:1371   */\n      swap1\n      pop\n        /* \"#utility.yul\":1281:1377   */\n      swap2\n      swap1\n      pop\n      jump\t// out\n        /* \"#utility.yul\":1383:1501   */\n    tag_182:\n        /* \"#utility.yul\":1470:1494   */\n      tag_263\n        /* \"#utility.yul\":1488:1493   */\n      dup2\n        /* \"#utility.yul\":1470:1494   */\n      tag_181\n      jump\t// in\n    tag_263:\n        /* \"#utility.yul\":1465:1468   */\n      dup3\n        /* \"#utility.yul\":1458:1495   */\n      mstore\n        /* \"#utility.yul\":1383:1501   */\n      pop\n      pop\n      jump\t// out\n        /* \"#utility.yul\":1507:1606   */\n    tag_183:\n        /* \"#utility.yul\":1559:1565   */\n      0x00\n        /* \"#utility.yul\":1593:1598   */\n      dup2\n        /* \"#utility.yul\":1587:1599   */\n      mload\n        /* \"#utility.yul\":1577:1599   */\n      swap1\n      pop\n        /* \"#utility.yul\":1507:1606   */\n      swap2\n      swap1\n      pop\n      jump\t// out\n        /* \"#utility.yul\":1612:1781   */\n    tag_184:\n        /* \"#utility.yul\":1696:1707   */\n      0x00\n        /* \"#utility.yul\":1730:1736   */\n      dup3\n        /* \"#utility.yul\":1725:1728   */\n      dup3\n        /* \"#utility.yul\":1718:1737   */\n      mstore\n        /* \"#utility.yul\":1770:1774   */\n      0x20\n        /* \"#utility.yul\":1765:1768   */\n      dup3\n        /* \"#utility.yul\":1761:1775   */\n      add\n        /* \"#utility.yul\":1746:1775   */\n      swap1\n      pop\n        /* \"#utility.yul\":1612:1781   */\n      swap3\n      swap2\n      pop\n      pop\n      jump\t// out\n        /* \"#utility.yul\":1787:2033   */\n    tag_185:\n        /* \"#utility.yul\":1868:1869   */\n      0x00\n        /* \"#utility.yul\":1878:1991   */\n    tag_267:\n        /* \"#utility.yul\":1892:1898   */\n      dup4\n        /* \"#utility.yul\":1889:1890   */\n      dup2\n        /* \"#utility.yul\":1886:1899   */\n      lt\n        /* \"#utility.yul\":1878:1991   */\n      iszero\n      tag_269\n      jumpi\n        /* \"#utility.yul\":1977:1978   */\n      dup1\n        /* \"#utility.yul\":1972:1975   */\n      dup3\n        /* \"#utility.yul\":1968:1979   */\n      add\n        /* \"#utility.yul\":1962:1980   */\n      mload\n        /* \"#utility.yul\":1958:1959   */\n      dup2\n        /* \"#utility.yul\":1953:1956   */\n      dup5\n        /* \"#utility.yul\":1949:1960   */\n      add\n        /* \"#utility.yul\":1942:1981   */\n      mstore\n        /* \"#utility.yul\":1914:1916   */\n      0x20\n        /* \"#utility.yul\":1911:1912   */\n      dup2\n        /* \"#utility.yul\":1907:1917   */\n      add\n        /* \"#utility.yul\":1902:1917   */\n      swap1\n      pop\n        /* \"#utility.yul\":1878:1991   */\n      jump(tag_267)\n    tag_269:\n        /* \"#utility.yul\":2025:2026   */\n      0x00\n        /* \"#utility.yul\":2016:2022   */\n      dup5\n        /* \"#utility.yul\":2011:2014   */\n      dup5\n        /* \"#utility.yul\":2007:2023   */\n      add\n        /* \"#utility.yul\":2000:2027   */\n      mstore\n        /* \"#utility.yul\":1849:2033   */\n      pop\n        /* \"#utility.yul\":1787:2033   */\n      pop\n      pop\n      pop\n      jump\t// out\n        /* \"#utility.yul\":2039:2141   */\n    tag_186:\n        /* \"#utility.yul\":2080:2086   */\n      0x00\n        /* \"#utility.yul\":2131:2133   */\n      0x1f\n        /* \"#utility.yul\":2127:2134   */\n      not\n        /* \"#utility.yul\":2122:2124   */\n      0x1f\n        /* \"#utility.yul\":2115:2120   */\n      dup4\n        /* \"#utility.yul\":2111:2125   */\n      add\n        /* \"#utility.yul\":2107:2135   */\n      and\n        /* \"#utility.yul\":2097:2135   */\n      swap1\n      pop\n        /* \"#utility.yul\":2039:2141   */\n      swap2\n      swap1\n      pop\n      jump\t// out\n        /* \"#utility.yul\":2147:2524   */\n    tag_187:\n        /* \"#utility.yul\":2235:2238   */\n      0x00\n        /* \"#utility.yul\":2263:2302   */\n      tag_272\n        /* \"#utility.yul\":2296:2301   */\n      dup3\n        /* \"#utility.yul\":2263:2302   */\n      tag_183\n      jump\t// in\n    tag_272:\n        /* \"#utility.yul\":2318:2389   */\n      tag_273\n        /* \"#utility.yul\":2382:2388   */\n      dup2\n        /* \"#utility.yul\":2377:2380   */\n      dup6\n        /* \"#utility.yul\":2318:2389   */\n      tag_184\n      jump\t// in\n    tag_273:\n        /* \"#utility.yul\":2311:2389   */\n      swap4\n      pop\n        /* \"#utility.yul\":2398:2463   */\n      tag_274\n        /* \"#utility.yul\":2456:2462   */\n      dup2\n        /* \"#utility.yul\":2451:2454   */\n      dup6\n        /* \"#utility.yul\":2444:2448   */\n      0x20\n        /* \"#utility.yul\":2437:2442   */\n      dup7\n        /* \"#utility.yul\":2433:2449   */\n      add\n        /* \"#utility.yul\":2398:2463   */\n      tag_185\n      jump\t// in\n    tag_274:\n        /* \"#utility.yul\":2488:2517   */\n      tag_275\n        /* \"#utility.yul\":2510:2516   */\n      dup2\n        /* \"#utility.yul\":2488:2517   */\n      tag_186\n      jump\t// in\n    tag_275:\n        /* \"#utility.yul\":2483:2486   */\n      dup5\n        /* \"#utility.yul\":2479:2518   */\n      add\n        /* \"#utility.yul\":2472:2518   */\n      swap2\n      pop\n        /* \"#utility.yul\":2239:2524   */\n      pop\n        /* \"#utility.yul\":2147:2524   */\n      swap3\n      swap2\n      pop\n      pop\n      jump\t// out\n        /* \"#utility.yul\":2530:2620   */\n    tag_188:\n        /* \"#utility.yul\":2564:2571   */\n      0x00\n        /* \"#utility.yul\":2607:2612   */\n      dup2\n        /* \"#utility.yul\":2600:2613   */\n      iszero\n        /* \"#utility.yul\":2593:2614   */\n      iszero\n        /* \"#utility.yul\":2582:2614   */\n      swap1\n      pop\n        /* \"#utility.yul\":2530:2620   */\n      swap2\n      swap1\n      pop\n      jump\t// out\n        /* \"#utility.yul\":2626:2735   */\n    tag_189:\n        /* \"#utility.yul\":2707:2728   */\n      tag_278\n        /* \"#utility.yul\":2722:2727   */\n      dup2\n        /* \"#utility.yul\":2707:2728   */\n      tag_188\n      jump\t// in\n    tag_278:\n        /* \"#utility.yul\":2702:2705   */\n      dup3\n        /* \"#utility.yul\":2695:2729   */\n      mstore\n        /* \"#utility.yul\":2626:2735   */\n      pop\n      pop\n      jump\t// out\n        /* \"#utility.yul\":2741:3484   */\n    tag_20:\n        /* \"#utility.yul\":2960:2964   */\n      0x00\n        /* \"#utility.yul\":2998:3001   */\n      0xa0\n        /* \"#utility.yul\":2987:2996   */\n      dup3\n        /* \"#utility.yul\":2983:3002   */\n      add\n        /* \"#utility.yul\":2975:3002   */\n      swap1\n      pop\n        /* \"#utility.yul\":3012:3083   */\n      tag_280\n        /* \"#utility.yul\":3080:3081   */\n      0x00\n        /* \"#utility.yul\":3069:3078   */\n      dup4\n        /* \"#utility.yul\":3065:3082   */\n      add\n        /* \"#utility.yul\":3056:3062   */\n      dup9\n        /* \"#utility.yul\":3012:3083   */\n      tag_179\n      jump\t// in\n    tag_280:\n        /* \"#utility.yul\":3093:3165   */\n      tag_281\n        /* \"#utility.yul\":3161:3163   */\n      0x20\n        /* \"#utility.yul\":3150:3159   */\n      dup4\n        /* \"#utility.yul\":3146:3164   */\n      add\n        /* \"#utility.yul\":3137:3143   */\n      dup8\n        /* \"#utility.yul\":3093:3165   */\n      tag_182\n      jump\t// in\n    tag_281:\n        /* \"#utility.yul\":3212:3221   */\n      dup2\n        /* \"#utility.yul\":3206:3210   */\n      dup2\n        /* \"#utility.yul\":3202:3222   */\n      sub\n        /* \"#utility.yul\":3197:3199   */\n      0x40\n        /* \"#utility.yul\":3186:3195   */\n      dup4\n        /* \"#utility.yul\":3182:3200   */\n      add\n        /* \"#utility.yul\":3175:3223   */\n      mstore\n        /* \"#utility.yul\":3240:3318   */\n      tag_282\n        /* \"#utility.yul\":3313:3317   */\n      dup2\n        /* \"#utility.yul\":3304:3310   */\n      dup7\n        /* \"#utility.yul\":3240:3318   */\n      tag_187\n      jump\t// in\n    tag_282:\n        /* \"#utility.yul\":3232:3318   */\n      swap1\n      pop\n        /* \"#utility.yul\":3328:3394   */\n      tag_283\n        /* \"#utility.yul\":3390:3392   */\n      0x60\n        /* \"#utility.yul\":3379:3388   */\n      dup4\n        /* \"#utility.yul\":3375:3393   */\n      add\n        /* \"#utility.yul\":3366:3372   */\n      dup6\n        /* \"#utility.yul\":3328:3394   */\n      tag_189\n      jump\t// in\n    tag_283:\n        /* \"#utility.yul\":3404:3477   */\n      tag_284\n        /* \"#utility.yul\":3472:3475   */\n      0x80\n        /* \"#utility.yul\":3461:3470   */\n      dup4\n        /* \"#utility.yul\":3457:3476   */\n      add\n        /* \"#utility.yul\":3448:3454   */\n      dup5\n        /* \"#utility.yul\":3404:3477   */\n      tag_179\n      jump\t// in\n    tag_284:\n        /* \"#utility.yul\":2741:3484   */\n      swap7\n      swap6\n      pop\n      pop\n      pop\n      pop\n      pop\n      pop\n      jump\t// out\n        /* \"#utility.yul\":3490:3712   */\n    tag_24:\n        /* \"#utility.yul\":3583:3587   */\n      0x00\n        /* \"#utility.yul\":3621:3623   */\n      0x20\n        /* \"#utility.yul\":3610:3619   */\n      dup3\n        /* \"#utility.yul\":3606:3624   */\n      add\n        /* \"#utility.yul\":3598:3624   */\n      swap1\n      pop\n        /* \"#utility.yul\":3634:3705   */\n      tag_286\n        /* \"#utility.yul\":3702:3703   */\n      0x00\n        /* \"#utility.yul\":3691:3700   */\n      dup4\n        /* \"#utility.yul\":3687:3704   */\n      add\n        /* \"#utility.yul\":3678:3684   */\n      dup5\n        /* \"#utility.yul\":3634:3705   */\n      tag_179\n      jump\t// in\n    tag_286:\n        /* \"#utility.yul\":3490:3712   */\n      swap3\n      swap2\n      pop\n      pop\n      jump\t// out\n        /* \"#utility.yul\":3718:3832   */\n    tag_190:\n        /* \"#utility.yul\":3785:3791   */\n      0x00\n        /* \"#utility.yul\":3819:3824   */\n      dup2\n        /* \"#utility.yul\":3813:3825   */\n      mload\n        /* \"#utility.yul\":3803:3825   */\n      swap1\n      pop\n        /* \"#utility.yul\":3718:3832   */\n      swap2\n      swap1\n      pop\n      jump\t// out\n        /* \"#utility.yul\":3838:4022   */\n    tag_191:\n        /* \"#utility.yul\":3937:3948   */\n      0x00\n        /* \"#utility.yul\":3971:3977   */\n      dup3\n        /* \"#utility.yul\":3966:3969   */\n      dup3\n        /* \"#utility.yul\":3959:3978   */\n      mstore\n        /* \"#utility.yul\":4011:4015   */\n      0x20\n        /* \"#utility.yul\":4006:4009   */\n      dup3\n        /* \"#utility.yul\":4002:4016   */\n      add\n        /* \"#utility.yul\":3987:4016   */\n      swap1\n      pop\n        /* \"#utility.yul\":3838:4022   */\n      swap3\n      swap2\n      pop\n      pop\n      jump\t// out\n        /* \"#utility.yul\":4028:4160   */\n    tag_192:\n        /* \"#utility.yul\":4095:4099   */\n      0x00\n        /* \"#utility.yul\":4118:4121   */\n      dup2\n        /* \"#utility.yul\":4110:4121   */\n      swap1\n      pop\n        /* \"#utility.yul\":4148:4152   */\n      0x20\n        /* \"#utility.yul\":4143:4146   */\n      dup3\n        /* \"#utility.yul\":4139:4153   */\n      add\n        /* \"#utility.yul\":4131:4153   */\n      swap1\n      pop\n        /* \"#utility.yul\":4028:4160   */\n      swap2\n      swap1\n      pop\n      jump\t// out\n        /* \"#utility.yul\":4166:4274   */\n    tag_193:\n        /* \"#utility.yul\":4243:4267   */\n      tag_291\n        /* \"#utility.yul\":4261:4266   */\n      dup2\n        /* \"#utility.yul\":4243:4267   */\n      tag_176\n      jump\t// in\n    tag_291:\n        /* \"#utility.yul\":4238:4241   */\n      dup3\n        /* \"#utility.yul\":4231:4268   */\n      mstore\n        /* \"#utility.yul\":4166:4274   */\n      pop\n      pop\n      jump\t// out\n        /* \"#utility.yul\":4280:4459   */\n    tag_194:\n        /* \"#utility.yul\":4349:4359   */\n      0x00\n        /* \"#utility.yul\":4370:4416   */\n      tag_293\n        /* \"#utility.yul\":4412:4415   */\n      dup4\n        /* \"#utility.yul\":4404:4410   */\n      dup4\n        /* \"#utility.yul\":4370:4416   */\n      tag_193\n      jump\t// in\n    tag_293:\n        /* \"#utility.yul\":4448:4452   */\n      0x20\n        /* \"#utility.yul\":4443:4446   */\n      dup4\n        /* \"#utility.yul\":4439:4453   */\n      add\n        /* \"#utility.yul\":4425:4453   */\n      swap1\n      pop\n        /* \"#utility.yul\":4280:4459   */\n      swap3\n      swap2\n      pop\n      pop\n      jump\t// out\n        /* \"#utility.yul\":4465:4578   */\n    tag_195:\n        /* \"#utility.yul\":4535:4539   */\n      0x00\n        /* \"#utility.yul\":4567:4571   */\n      0x20\n        /* \"#utility.yul\":4562:4565   */\n      dup3\n        /* \"#utility.yul\":4558:4572   */\n      add\n        /* \"#utility.yul\":4550:4572   */\n      swap1\n      pop\n        /* \"#utility.yul\":4465:4578   */\n      swap2\n      swap1\n      pop\n      jump\t// out\n        /* \"#utility.yul\":4614:5346   */\n    tag_196:\n        /* \"#utility.yul\":4733:4736   */\n      0x00\n        /* \"#utility.yul\":4762:4816   */\n      tag_296\n        /* \"#utility.yul\":4810:4815   */\n      dup3\n        /* \"#utility.yul\":4762:4816   */\n      tag_190\n      jump\t// in\n    tag_296:\n        /* \"#utility.yul\":4832:4918   */\n      tag_297\n        /* \"#utility.yul\":4911:4917   */\n      dup2\n        /* \"#utility.yul\":4906:4909   */\n      dup6\n        /* \"#utility.yul\":4832:4918   */\n      tag_191\n      jump\t// in\n    tag_297:\n        /* \"#utility.yul\":4825:4918   */\n      swap4\n      pop\n        /* \"#utility.yul\":4942:4998   */\n      tag_298\n        /* \"#utility.yul\":4992:4997   */\n      dup4\n        /* \"#utility.yul\":4942:4998   */\n      tag_192\n      jump\t// in\n    tag_298:\n        /* \"#utility.yul\":5021:5028   */\n      dup1\n        /* \"#utility.yul\":5052:5053   */\n      0x00\n        /* \"#utility.yul\":5037:5321   */\n    tag_299:\n        /* \"#utility.yul\":5062:5068   */\n      dup4\n        /* \"#utility.yul\":5059:5060   */\n      dup2\n        /* \"#utility.yul\":5056:5069   */\n      lt\n        /* \"#utility.yul\":5037:5321   */\n      iszero\n      tag_301\n      jumpi\n        /* \"#utility.yul\":5138:5144   */\n      dup2\n        /* \"#utility.yul\":5132:5145   */\n      mload\n        /* \"#utility.yul\":5165:5228   */\n      tag_302\n        /* \"#utility.yul\":5224:5227   */\n      dup9\n        /* \"#utility.yul\":5209:5222   */\n      dup3\n        /* \"#utility.yul\":5165:5228   */\n      tag_194\n      jump\t// in\n    tag_302:\n        /* \"#utility.yul\":5158:5228   */\n      swap8\n      pop\n        /* \"#utility.yul\":5251:5311   */\n      tag_303\n        /* \"#utility.yul\":5304:5310   */\n      dup4\n        /* \"#utility.yul\":5251:5311   */\n      tag_195\n      jump\t// in\n    tag_303:\n        /* \"#utility.yul\":5241:5311   */\n      swap3\n      pop\n        /* \"#utility.yul\":5097:5321   */\n      pop\n        /* \"#utility.yul\":5084:5085   */\n      0x01\n        /* \"#utility.yul\":5081:5082   */\n      dup2\n        /* \"#utility.yul\":5077:5086   */\n      add\n        /* \"#utility.yul\":5072:5086   */\n      swap1\n      pop\n        /* \"#utility.yul\":5037:5321   */\n      jump(tag_299)\n    tag_301:\n        /* \"#utility.yul\":5041:5055   */\n      pop\n        /* \"#utility.yul\":5337:5340   */\n      dup6\n        /* \"#utility.yul\":5330:5340   */\n      swap4\n      pop\n        /* \"#utility.yul\":4738:5346   */\n      pop\n      pop\n      pop\n        /* \"#utility.yul\":4614:5346   */\n      swap3\n      swap2\n      pop\n      pop\n      jump\t// out\n        /* \"#utility.yul\":5352:5725   */\n    tag_28:\n        /* \"#utility.yul\":5495:5499   */\n      0x00\n        /* \"#utility.yul\":5533:5535   */\n      0x20\n        /* \"#utility.yul\":5522:5531   */\n      dup3\n        /* \"#utility.yul\":5518:5536   */\n      add\n        /* \"#utility.yul\":5510:5536   */\n      swap1\n      pop\n        /* \"#utility.yul\":5582:5591   */\n      dup2\n        /* \"#utility.yul\":5576:5580   */\n      dup2\n        /* \"#utility.yul\":5572:5592   */\n      sub\n        /* \"#utility.yul\":5568:5569   */\n      0x00\n        /* \"#utility.yul\":5557:5566   */\n      dup4\n        /* \"#utility.yul\":5553:5570   */\n      add\n        /* \"#utility.yul\":5546:5593   */\n      mstore\n        /* \"#utility.yul\":5610:5718   */\n      tag_305\n        /* \"#utility.yul\":5713:5717   */\n      dup2\n        /* \"#utility.yul\":5704:5710   */\n      dup5\n        /* \"#utility.yul\":5610:5718   */\n      tag_196\n      jump\t// in\n    tag_305:\n        /* \"#utility.yul\":5602:5718   */\n      swap1\n      pop\n        /* \"#utility.yul\":5352:5725   */\n      swap3\n      swap2\n      pop\n      pop\n      jump\t// out\n        /* \"#utility.yul\":5731:5848   */\n    tag_197:\n        /* \"#utility.yul\":5840:5841   */\n      0x00\n        /* \"#utility.yul\":5837:5838   */\n      dup1\n        /* \"#utility.yul\":5830:5842   */\n      revert\n        /* \"#utility.yul\":5854:5971   */\n    tag_198:\n        /* \"#utility.yul\":5963:5964   */\n      0x00\n        /* \"#utility.yul\":5960:5961   */\n      dup1\n        /* \"#utility.yul\":5953:5965   */\n      revert\n        /* \"#utility.yul\":5977:6094   */\n    tag_199:\n        /* \"#utility.yul\":6086:6087   */\n      0x00\n        /* \"#utility.yul\":6083:6084   */\n      dup1\n        /* \"#utility.yul\":6076:6088   */\n      revert\n        /* \"#utility.yul\":6114:6667   */\n    tag_200:\n        /* \"#utility.yul\":6172:6180   */\n      0x00\n        /* \"#utility.yul\":6182:6188   */\n      dup1\n        /* \"#utility.yul\":6232:6235   */\n      dup4\n        /* \"#utility.yul\":6225:6229   */\n      0x1f\n        /* \"#utility.yul\":6217:6223   */\n      dup5\n        /* \"#utility.yul\":6213:6230   */\n      add\n        /* \"#utility.yul\":6209:6236   */\n      slt\n        /* \"#utility.yul\":6199:6321   */\n      tag_310\n      jumpi\n        /* \"#utility.yul\":6240:6319   */\n      tag_311\n      tag_197\n      jump\t// in\n    tag_311:\n        /* \"#utility.yul\":6199:6321   */\n    tag_310:\n        /* \"#utility.yul\":6353:6359   */\n      dup3\n        /* \"#utility.yul\":6340:6360   */\n      calldataload\n        /* \"#utility.yul\":6330:6360   */\n      swap1\n      pop\n        /* \"#utility.yul\":6383:6401   */\n      0xffffffffffffffff\n        /* \"#utility.yul\":6375:6381   */\n      dup2\n        /* \"#utility.yul\":6372:6402   */\n      gt\n        /* \"#utility.yul\":6369:6486   */\n      iszero\n      tag_312\n      jumpi\n        /* \"#utility.yul\":6405:6484   */\n      tag_313\n      tag_198\n      jump\t// in\n    tag_313:\n        /* \"#utility.yul\":6369:6486   */\n    tag_312:\n        /* \"#utility.yul\":6519:6523   */\n      0x20\n        /* \"#utility.yul\":6511:6517   */\n      dup4\n        /* \"#utility.yul\":6507:6524   */\n      add\n        /* \"#utility.yul\":6495:6524   */\n      swap2\n      pop\n        /* \"#utility.yul\":6573:6576   */\n      dup4\n        /* \"#utility.yul\":6565:6569   */\n      0x01\n        /* \"#utility.yul\":6557:6563   */\n      dup3\n        /* \"#utility.yul\":6553:6570   */\n      mul\n        /* \"#utility.yul\":6543:6551   */\n      dup4\n        /* \"#utility.yul\":6539:6571   */\n      add\n        /* \"#utility.yul\":6536:6577   */\n      gt\n        /* \"#utility.yul\":6533:6661   */\n      iszero\n      tag_314\n      jumpi\n        /* \"#utility.yul\":6580:6659   */\n      tag_315\n      tag_199\n      jump\t// in\n    tag_315:\n        /* \"#utility.yul\":6533:6661   */\n    tag_314:\n        /* \"#utility.yul\":6114:6667   */\n      swap3\n      pop\n      swap3\n      swap1\n      pop\n      jump\t// out\n        /* \"#utility.yul\":6673:7202   */\n    tag_31:\n        /* \"#utility.yul\":6744:6750   */\n      0x00\n        /* \"#utility.yul\":6752:6758   */\n      dup1\n        /* \"#utility.yul\":6801:6803   */\n      0x20\n        /* \"#utility.yul\":6789:6798   */\n      dup4\n        /* \"#utility.yul\":6780:6787   */\n      dup6\n        /* \"#utility.yul\":6776:6799   */\n      sub\n        /* \"#utility.yul\":6772:6804   */\n      slt\n        /* \"#utility.yul\":6769:6888   */\n      iszero\n      tag_317\n      jumpi\n        /* \"#utility.yul\":6807:6886   */\n      tag_318\n      tag_174\n      jump\t// in\n    tag_318:\n        /* \"#utility.yul\":6769:6888   */\n    tag_317:\n        /* \"#utility.yul\":6955:6956   */\n      0x00\n        /* \"#utility.yul\":6944:6953   */\n      dup4\n        /* \"#utility.yul\":6940:6957   */\n      add\n        /* \"#utility.yul\":6927:6958   */\n      calldataload\n        /* \"#utility.yul\":6985:7003   */\n      0xffffffffffffffff\n        /* \"#utility.yul\":6977:6983   */\n      dup2\n        /* \"#utility.yul\":6974:7004   */\n      gt\n        /* \"#utility.yul\":6971:7088   */\n      iszero\n      tag_319\n      jumpi\n        /* \"#utility.yul\":7007:7086   */\n      tag_320\n      tag_175\n      jump\t// in\n    tag_320:\n        /* \"#utility.yul\":6971:7088   */\n    tag_319:\n        /* \"#utility.yul\":7120:7185   */\n      tag_321\n        /* \"#utility.yul\":7177:7184   */\n      dup6\n        /* \"#utility.yul\":7168:7174   */\n      dup3\n        /* \"#utility.yul\":7157:7166   */\n      dup7\n        /* \"#utility.yul\":7153:7175   */\n      add\n        /* \"#utility.yul\":7120:7185   */\n      tag_200\n      jump\t// in\n    tag_321:\n        /* \"#utility.yul\":7102:7185   */\n      swap3\n      pop\n      swap3\n      pop\n        /* \"#utility.yul\":6898:7195   */\n      pop\n        /* \"#utility.yul\":6673:7202   */\n      swap3\n      pop\n      swap3\n      swap1\n      pop\n      jump\t// out\n        /* \"#utility.yul\":7208:7316   */\n    tag_201:\n        /* \"#utility.yul\":7285:7309   */\n      tag_323\n        /* \"#utility.yul\":7303:7308   */\n      dup2\n        /* \"#utility.yul\":7285:7309   */\n      tag_181\n      jump\t// in\n    tag_323:\n        /* \"#utility.yul\":7280:7283   */\n      dup3\n        /* \"#utility.yul\":7273:7310   */\n      mstore\n        /* \"#utility.yul\":7208:7316   */\n      pop\n      pop\n      jump\t// out\n        /* \"#utility.yul\":7322:7481   */\n    tag_202:\n        /* \"#utility.yul\":7396:7407   */\n      0x00\n        /* \"#utility.yul\":7430:7436   */\n      dup3\n        /* \"#utility.yul\":7425:7428   */\n      dup3\n        /* \"#utility.yul\":7418:7437   */\n      mstore\n        /* \"#utility.yul\":7470:7474   */\n      0x20\n        /* \"#utility.yul\":7465:7468   */\n      dup3\n        /* \"#utility.yul\":7461:7475   */\n      add\n        /* \"#utility.yul\":7446:7475   */\n      swap1\n      pop\n        /* \"#utility.yul\":7322:7481   */\n      swap3\n      swap2\n      pop\n      pop\n      jump\t// out\n        /* \"#utility.yul\":7487:7844   */\n    tag_203:\n        /* \"#utility.yul\":7565:7568   */\n      0x00\n        /* \"#utility.yul\":7593:7632   */\n      tag_326\n        /* \"#utility.yul\":7626:7631   */\n      dup3\n        /* \"#utility.yul\":7593:7632   */\n      tag_183\n      jump\t// in\n    tag_326:\n        /* \"#utility.yul\":7648:7709   */\n      tag_327\n        /* \"#utility.yul\":7702:7708   */\n      dup2\n        /* \"#utility.yul\":7697:7700   */\n      dup6\n        /* \"#utility.yul\":7648:7709   */\n      tag_202\n      jump\t// in\n    tag_327:\n        /* \"#utility.yul\":7641:7709   */\n      swap4\n      pop\n        /* \"#utility.yul\":7718:7783   */\n      tag_328\n        /* \"#utility.yul\":7776:7782   */\n      dup2\n        /* \"#utility.yul\":7771:7774   */\n      dup6\n        /* \"#utility.yul\":7764:7768   */\n      0x20\n        /* \"#utility.yul\":7757:7762   */\n      dup7\n        /* \"#utility.yul\":7753:7769   */\n      add\n        /* \"#utility.yul\":7718:7783   */\n      tag_185\n      jump\t// in\n    tag_328:\n        /* \"#utility.yul\":7808:7837   */\n      tag_329\n        /* \"#utility.yul\":7830:7836   */\n      dup2\n        /* \"#utility.yul\":7808:7837   */\n      tag_186\n      jump\t// in\n    tag_329:\n        /* \"#utility.yul\":7803:7806   */\n      dup5\n        /* \"#utility.yul\":7799:7838   */\n      add\n        /* \"#utility.yul\":7792:7838   */\n      swap2\n      pop\n        /* \"#utility.yul\":7569:7844   */\n      pop\n        /* \"#utility.yul\":7487:7844   */\n      swap3\n      swap2\n      pop\n      pop\n      jump\t// out\n        /* \"#utility.yul\":7850:7949   */\n    tag_204:\n        /* \"#utility.yul\":7921:7942   */\n      tag_331\n        /* \"#utility.yul\":7936:7941   */\n      dup2\n        /* \"#utility.yul\":7921:7942   */\n      tag_188\n      jump\t// in\n    tag_331:\n        /* \"#utility.yul\":7916:7919   */\n      dup3\n        /* \"#utility.yul\":7909:7943   */\n      mstore\n        /* \"#utility.yul\":7850:7949   */\n      pop\n      pop\n      jump\t// out\n        /* \"#utility.yul\":8027:9167   */\n    tag_205:\n        /* \"#utility.yul\":8148:8151   */\n      0x00\n        /* \"#utility.yul\":8184:8188   */\n      0xa0\n        /* \"#utility.yul\":8179:8182   */\n      dup4\n        /* \"#utility.yul\":8175:8189   */\n      add\n        /* \"#utility.yul\":8269:8273   */\n      0x00\n        /* \"#utility.yul\":8262:8267   */\n      dup4\n        /* \"#utility.yul\":8258:8274   */\n      add\n        /* \"#utility.yul\":8252:8275   */\n      mload\n        /* \"#utility.yul\":8288:8351   */\n      tag_333\n        /* \"#utility.yul\":8345:8349   */\n      0x00\n        /* \"#utility.yul\":8340:8343   */\n      dup7\n        /* \"#utility.yul\":8336:8350   */\n      add\n        /* \"#utility.yul\":8322:8334   */\n      dup3\n        /* \"#utility.yul\":8288:8351   */\n      tag_193\n      jump\t// in\n    tag_333:\n        /* \"#utility.yul\":8199:8361   */\n      pop\n        /* \"#utility.yul\":8444:8448   */\n      0x20\n        /* \"#utility.yul\":8437:8442   */\n      dup4\n        /* \"#utility.yul\":8433:8449   */\n      add\n        /* \"#utility.yul\":8427:8450   */\n      mload\n        /* \"#utility.yul\":8463:8526   */\n      tag_334\n        /* \"#utility.yul\":8520:8524   */\n      0x20\n        /* \"#utility.yul\":8515:8518   */\n      dup7\n        /* \"#utility.yul\":8511:8525   */\n      add\n        /* \"#utility.yul\":8497:8509   */\n      dup3\n        /* \"#utility.yul\":8463:8526   */\n      tag_201\n      jump\t// in\n    tag_334:\n        /* \"#utility.yul\":8371:8536   */\n      pop\n        /* \"#utility.yul\":8625:8629   */\n      0x40\n        /* \"#utility.yul\":8618:8623   */\n      dup4\n        /* \"#utility.yul\":8614:8630   */\n      add\n        /* \"#utility.yul\":8608:8631   */\n      mload\n        /* \"#utility.yul\":8678:8681   */\n      dup5\n        /* \"#utility.yul\":8672:8676   */\n      dup3\n        /* \"#utility.yul\":8668:8682   */\n      sub\n        /* \"#utility.yul\":8661:8665   */\n      0x40\n        /* \"#utility.yul\":8656:8659   */\n      dup7\n        /* \"#utility.yul\":8652:8666   */\n      add\n        /* \"#utility.yul\":8645:8683   */\n      mstore\n        /* \"#utility.yul\":8704:8777   */\n      tag_335\n        /* \"#utility.yul\":8772:8776   */\n      dup3\n        /* \"#utility.yul\":8758:8770   */\n      dup3\n        /* \"#utility.yul\":8704:8777   */\n      tag_203\n      jump\t// in\n    tag_335:\n        /* \"#utility.yul\":8696:8777   */\n      swap2\n      pop\n        /* \"#utility.yul\":8546:8788   */\n      pop\n        /* \"#utility.yul\":8872:8876   */\n      0x60\n        /* \"#utility.yul\":8865:8870   */\n      dup4\n        /* \"#utility.yul\":8861:8877   */\n      add\n        /* \"#utility.yul\":8855:8878   */\n      mload\n        /* \"#utility.yul\":8891:8948   */\n      tag_336\n        /* \"#utility.yul\":8942:8946   */\n      0x60\n        /* \"#utility.yul\":8937:8940   */\n      dup7\n        /* \"#utility.yul\":8933:8947   */\n      add\n        /* \"#utility.yul\":8919:8931   */\n      dup3\n        /* \"#utility.yul\":8891:8948   */\n      tag_204\n      jump\t// in\n    tag_336:\n        /* \"#utility.yul\":8798:8958   */\n      pop\n        /* \"#utility.yul\":9048:9052   */\n      0x80\n        /* \"#utility.yul\":9041:9046   */\n      dup4\n        /* \"#utility.yul\":9037:9053   */\n      add\n        /* \"#utility.yul\":9031:9054   */\n      mload\n        /* \"#utility.yul\":9067:9130   */\n      tag_337\n        /* \"#utility.yul\":9124:9128   */\n      0x80\n        /* \"#utility.yul\":9119:9122   */\n      dup7\n        /* \"#utility.yul\":9115:9129   */\n      add\n        /* \"#utility.yul\":9101:9113   */\n      dup3\n        /* \"#utility.yul\":9067:9130   */\n      tag_193\n      jump\t// in\n    tag_337:\n        /* \"#utility.yul\":8968:9140   */\n      pop\n        /* \"#utility.yul\":9157:9161   */\n      dup1\n        /* \"#utility.yul\":9150:9161   */\n      swap2\n      pop\n        /* \"#utility.yul\":8153:9167   */\n      pop\n        /* \"#utility.yul\":8027:9167   */\n      swap3\n      swap2\n      pop\n      pop\n      jump\t// out\n        /* \"#utility.yul\":9173:9550   */\n    tag_38:\n        /* \"#utility.yul\":9318:9322   */\n      0x00\n        /* \"#utility.yul\":9356:9358   */\n      0x20\n        /* \"#utility.yul\":9345:9354   */\n      dup3\n        /* \"#utility.yul\":9341:9359   */\n      add\n        /* \"#utility.yul\":9333:9359   */\n      swap1\n      pop\n        /* \"#utility.yul\":9405:9414   */\n      dup2\n        /* \"#utility.yul\":9399:9403   */\n      dup2\n        /* \"#utility.yul\":9395:9415   */\n      sub\n        /* \"#utility.yul\":9391:9392   */\n      0x00\n        /* \"#utility.yul\":9380:9389   */\n      dup4\n        /* \"#utility.yul\":9376:9393   */\n      add\n        /* \"#utility.yul\":9369:9416   */\n      mstore\n        /* \"#utility.yul\":9433:9543   */\n      tag_339\n        /* \"#utility.yul\":9538:9542   */\n      dup2\n        /* \"#utility.yul\":9529:9535   */\n      dup5\n        /* \"#utility.yul\":9433:9543   */\n      tag_205\n      jump\t// in\n    tag_339:\n        /* \"#utility.yul\":9425:9543   */\n      swap1\n      pop\n        /* \"#utility.yul\":9173:9550   */\n      swap3\n      swap2\n      pop\n      pop\n      jump\t// out\n        /* \"#utility.yul\":9556:10230   */\n    tag_41:\n        /* \"#utility.yul\":9636:9642   */\n      0x00\n        /* \"#utility.yul\":9644:9650   */\n      dup1\n        /* \"#utility.yul\":9652:9658   */\n      0x00\n        /* \"#utility.yul\":9701:9703   */\n      0x40\n        /* \"#utility.yul\":9689:9698   */\n      dup5\n        /* \"#utility.yul\":9680:9687   */\n      dup7\n        /* \"#utility.yul\":9676:9699   */\n      sub\n        /* \"#utility.yul\":9672:9704   */\n      slt\n        /* \"#utility.yul\":9669:9788   */\n      iszero\n      tag_341\n      jumpi\n        /* \"#utility.yul\":9707:9786   */\n      tag_342\n      tag_174\n      jump\t// in\n    tag_342:\n        /* \"#utility.yul\":9669:9788   */\n    tag_341:\n        /* \"#utility.yul\":9827:9828   */\n      0x00\n        /* \"#utility.yul\":9852:9905   */\n      tag_343\n        /* \"#utility.yul\":9897:9904   */\n      dup7\n        /* \"#utility.yul\":9888:9894   */\n      dup3\n        /* \"#utility.yul\":9877:9886   */\n      dup8\n        /* \"#utility.yul\":9873:9895   */\n      add\n        /* \"#utility.yul\":9852:9905   */\n      tag_178\n      jump\t// in\n    tag_343:\n        /* \"#utility.yul\":9842:9905   */\n      swap4\n      pop\n        /* \"#utility.yul\":9798:9915   */\n      pop\n        /* \"#utility.yul\":9982:9984   */\n      0x20\n        /* \"#utility.yul\":9971:9980   */\n      dup5\n        /* \"#utility.yul\":9967:9985   */\n      add\n        /* \"#utility.yul\":9954:9986   */\n      calldataload\n        /* \"#utility.yul\":10013:10031   */\n      0xffffffffffffffff\n        /* \"#utility.yul\":10005:10011   */\n      dup2\n        /* \"#utility.yul\":10002:10032   */\n      gt\n        /* \"#utility.yul\":9999:10116   */\n      iszero\n      tag_344\n      jumpi\n        /* \"#utility.yul\":10035:10114   */\n      tag_345\n      tag_175\n      jump\t// in\n    tag_345:\n        /* \"#utility.yul\":9999:10116   */\n    tag_344:\n        /* \"#utility.yul\":10148:10213   */\n      tag_346\n        /* \"#utility.yul\":10205:10212   */\n      dup7\n        /* \"#utility.yul\":10196:10202   */\n      dup3\n        /* \"#utility.yul\":10185:10194   */\n      dup8\n        /* \"#utility.yul\":10181:10203   */\n      add\n        /* \"#utility.yul\":10148:10213   */\n      tag_200\n      jump\t// in\n    tag_346:\n        /* \"#utility.yul\":10130:10213   */\n      swap3\n      pop\n      swap3\n      pop\n        /* \"#utility.yul\":9925:10223   */\n      pop\n        /* \"#utility.yul\":9556:10230   */\n      swap3\n      pop\n      swap3\n      pop\n      swap3\n      jump\t// out\n        /* \"#utility.yul\":10236:10458   */\n    tag_48:\n        /* \"#utility.yul\":10329:10333   */\n      0x00\n        /* \"#utility.yul\":10367:10369   */\n      0x20\n        /* \"#utility.yul\":10356:10365   */\n      dup3\n        /* \"#utility.yul\":10352:10370   */\n      add\n        /* \"#utility.yul\":10344:10370   */\n      swap1\n      pop\n        /* \"#utility.yul\":10380:10451   */\n      tag_348\n        /* \"#utility.yul\":10448:10449   */\n      0x00\n        /* \"#utility.yul\":10437:10446   */\n      dup4\n        /* \"#utility.yul\":10433:10450   */\n      add\n        /* \"#utility.yul\":10424:10430   */\n      dup5\n        /* \"#utility.yul\":10380:10451   */\n      tag_182\n      jump\t// in\n    tag_348:\n        /* \"#utility.yul\":10236:10458   */\n      swap3\n      swap2\n      pop\n      pop\n      jump\t// out\n        /* \"#utility.yul\":10464:10586   */\n    tag_206:\n        /* \"#utility.yul\":10537:10561   */\n      tag_350\n        /* \"#utility.yul\":10555:10560   */\n      dup2\n        /* \"#utility.yul\":10537:10561   */\n      tag_181\n      jump\t// in\n    tag_350:\n        /* \"#utility.yul\":10530:10535   */\n      dup2\n        /* \"#utility.yul\":10527:10562   */\n      eq\n        /* \"#utility.yul\":10517:10580   */\n      tag_351\n      jumpi\n        /* \"#utility.yul\":10576:10577   */\n      0x00\n        /* \"#utility.yul\":10573:10574   */\n      dup1\n        /* \"#utility.yul\":10566:10578   */\n      revert\n        /* \"#utility.yul\":10517:10580   */\n    tag_351:\n        /* \"#utility.yul\":10464:10586   */\n      pop\n      jump\t// out\n        /* \"#utility.yul\":10592:10731   */\n    tag_207:\n        /* \"#utility.yul\":10638:10643   */\n      0x00\n        /* \"#utility.yul\":10676:10682   */\n      dup2\n        /* \"#utility.yul\":10663:10683   */\n      calldataload\n        /* \"#utility.yul\":10654:10683   */\n      swap1\n      pop\n        /* \"#utility.yul\":10692:10725   */\n      tag_353\n        /* \"#utility.yul\":10719:10724   */\n      dup2\n        /* \"#utility.yul\":10692:10725   */\n      tag_206\n      jump\t// in\n    tag_353:\n        /* \"#utility.yul\":10592:10731   */\n      swap3\n      swap2\n      pop\n      pop\n      jump\t// out\n        /* \"#utility.yul\":10737:11066   */\n    tag_54:\n        /* \"#utility.yul\":10796:10802   */\n      0x00\n        /* \"#utility.yul\":10845:10847   */\n      0x20\n        /* \"#utility.yul\":10833:10842   */\n      dup3\n        /* \"#utility.yul\":10824:10831   */\n      dup5\n        /* \"#utility.yul\":10820:10843   */\n      sub\n        /* \"#utility.yul\":10816:10848   */\n      slt\n        /* \"#utility.yul\":10813:10932   */\n      iszero\n      tag_355\n      jumpi\n        /* \"#utility.yul\":10851:10930   */\n      tag_356\n      tag_174\n      jump\t// in\n    tag_356:\n        /* \"#utility.yul\":10813:10932   */\n    tag_355:\n        /* \"#utility.yul\":10971:10972   */\n      0x00\n        /* \"#utility.yul\":10996:11049   */\n      tag_357\n        /* \"#utility.yul\":11041:11048   */\n      dup5\n        /* \"#utility.yul\":11032:11038   */\n      dup3\n        /* \"#utility.yul\":11021:11030   */\n      dup6\n        /* \"#utility.yul\":11017:11039   */\n      add\n        /* \"#utility.yul\":10996:11049   */\n      tag_207\n      jump\t// in\n    tag_357:\n        /* \"#utility.yul\":10986:11049   */\n      swap2\n      pop\n        /* \"#utility.yul\":10942:11059   */\n      pop\n        /* \"#utility.yul\":10737:11066   */\n      swap3\n      swap2\n      pop\n      pop\n      jump\t// out\n        /* \"#utility.yul\":11072:11252   */\n    tag_208:\n        /* \"#utility.yul\":11120:11197   */\n      0x4e487b7100000000000000000000000000000000000000000000000000000000\n        /* \"#utility.yul\":11117:11118   */\n      0x00\n        /* \"#utility.yul\":11110:11198   */\n      mstore\n        /* \"#utility.yul\":11217:11221   */\n      0x22\n        /* \"#utility.yul\":11214:11215   */\n      0x04\n        /* \"#utility.yul\":11207:11222   */\n      mstore\n        /* \"#utility.yul\":11241:11245   */\n      0x24\n        /* \"#utility.yul\":11238:11239   */\n      0x00\n        /* \"#utility.yul\":11231:11246   */\n      revert\n        /* \"#utility.yul\":11258:11578   */\n    tag_60:\n        /* \"#utility.yul\":11302:11308   */\n      0x00\n        /* \"#utility.yul\":11339:11340   */\n      0x02\n        /* \"#utility.yul\":11333:11337   */\n      dup3\n        /* \"#utility.yul\":11329:11341   */\n      div\n        /* \"#utility.yul\":11319:11341   */\n      swap1\n      pop\n        /* \"#utility.yul\":11386:11387   */\n      0x01\n        /* \"#utility.yul\":11380:11384   */\n      dup3\n        /* \"#utility.yul\":11376:11388   */\n      and\n        /* \"#utility.yul\":11407:11425   */\n      dup1\n        /* \"#utility.yul\":11397:11478   */\n      tag_360\n      jumpi\n        /* \"#utility.yul\":11463:11467   */\n      0x7f\n        /* \"#utility.yul\":11455:11461   */\n      dup3\n        /* \"#utility.yul\":11451:11468   */\n      and\n        /* \"#utility.yul\":11441:11468   */\n      swap2\n      pop\n        /* \"#utility.yul\":11397:11478   */\n    tag_360:\n        /* \"#utility.yul\":11525:11527   */\n      0x20\n        /* \"#utility.yul\":11517:11523   */\n      dup3\n        /* \"#utility.yul\":11514:11528   */\n      lt\n        /* \"#utility.yul\":11494:11512   */\n      dup2\n        /* \"#utility.yul\":11491:11529   */\n      sub\n        /* \"#utility.yul\":11488:11572   */\n      tag_361\n      jumpi\n        /* \"#utility.yul\":11544:11562   */\n      tag_362\n      tag_208\n      jump\t// in\n    tag_362:\n        /* \"#utility.yul\":11488:11572   */\n    tag_361:\n        /* \"#utility.yul\":11309:11578   */\n      pop\n        /* \"#utility.yul\":11258:11578   */\n      swap2\n      swap1\n      pop\n      jump\t// out\n        /* \"#utility.yul\":11584:11758   */\n    tag_209:\n        /* \"#utility.yul\":11724:11750   */\n      0x4d65746164617461205552492069732072657175697265640000000000000000\n        /* \"#utility.yul\":11720:11721   */\n      0x00\n        /* \"#utility.yul\":11712:11718   */\n      dup3\n        /* \"#utility.yul\":11708:11722   */\n      add\n        /* \"#utility.yul\":11701:11751   */\n      mstore\n        /* \"#utility.yul\":11584:11758   */\n      pop\n      jump\t// out\n        /* \"#utility.yul\":11764:12130   */\n    tag_210:\n        /* \"#utility.yul\":11906:11909   */\n      0x00\n        /* \"#utility.yul\":11927:11994   */\n      tag_365\n        /* \"#utility.yul\":11991:11993   */\n      0x18\n        /* \"#utility.yul\":11986:11989   */\n      dup4\n        /* \"#utility.yul\":11927:11994   */\n      tag_184\n      jump\t// in\n    tag_365:\n        /* \"#utility.yul\":11920:11994   */\n      swap2\n      pop\n        /* \"#utility.yul\":12003:12096   */\n      tag_366\n        /* \"#utility.yul\":12092:12095   */\n      dup3\n        /* \"#utility.yul\":12003:12096   */\n      tag_209\n      jump\t// in\n    tag_366:\n        /* \"#utility.yul\":12121:12123   */\n      0x20\n        /* \"#utility.yul\":12116:12119   */\n      dup3\n        /* \"#utility.yul\":12112:12124   */\n      add\n        /* \"#utility.yul\":12105:12124   */\n      swap1\n      pop\n        /* \"#utility.yul\":11764:12130   */\n      swap2\n      swap1\n      pop\n      jump\t// out\n        /* \"#utility.yul\":12136:12555   */\n    tag_74:\n        /* \"#utility.yul\":12302:12306   */\n      0x00\n        /* \"#utility.yul\":12340:12342   */\n      0x20\n        /* \"#utility.yul\":12329:12338   */\n      dup3\n        /* \"#utility.yul\":12325:12343   */\n      add\n        /* \"#utility.yul\":12317:12343   */\n      swap1\n      pop\n        /* \"#utility.yul\":12389:12398   */\n      dup2\n        /* \"#utility.yul\":12383:12387   */\n      dup2\n        /* \"#utility.yul\":12379:12399   */\n      sub\n        /* \"#utility.yul\":12375:12376   */\n      0x00\n        /* \"#utility.yul\":12364:12373   */\n      dup4\n        /* \"#utility.yul\":12360:12377   */\n      add\n        /* \"#utility.yul\":12353:12400   */\n      mstore\n        /* \"#utility.yul\":12417:12548   */\n      tag_368\n        /* \"#utility.yul\":12543:12547   */\n      dup2\n        /* \"#utility.yul\":12417:12548   */\n      tag_210\n      jump\t// in\n    tag_368:\n        /* \"#utility.yul\":12409:12548   */\n      swap1\n      pop\n        /* \"#utility.yul\":12136:12555   */\n      swap2\n      swap1\n      pop\n      jump\t// out\n        /* \"#utility.yul\":12561:12741   */\n    tag_211:\n        /* \"#utility.yul\":12609:12686   */\n      0x4e487b7100000000000000000000000000000000000000000000000000000000\n        /* \"#utility.yul\":12606:12607   */\n      0x00\n        /* \"#utility.yul\":12599:12687   */\n      mstore\n        /* \"#utility.yul\":12706:12710   */\n      0x11\n        /* \"#utility.yul\":12703:12704   */\n      0x04\n        /* \"#utility.yul\":12696:12711   */\n      mstore\n        /* \"#utility.yul\":12730:12734   */\n      0x24\n        /* \"#utility.yul\":12727:12728   */\n      0x00\n        /* \"#utility.yul\":12720:12735   */\n      revert\n        /* \"#utility.yul\":12747:12980   */\n    tag_76:\n        /* \"#utility.yul\":12786:12789   */\n      0x00\n        /* \"#utility.yul\":12809:12833   */\n      tag_371\n        /* \"#utility.yul\":12827:12832   */\n      dup3\n        /* \"#utility.yul\":12809:12833   */\n      tag_176\n      jump\t// in\n    tag_371:\n        /* \"#utility.yul\":12800:12833   */\n      swap2\n      pop\n        /* \"#utility.yul\":12855:12921   */\n      0xffffffffffffffffffffffffffffffffffffffffffffffffffffffffffffffff\n        /* \"#utility.yul\":12848:12853   */\n      dup3\n        /* \"#utility.yul\":12845:12922   */\n      sub\n        /* \"#utility.yul\":12842:12945   */\n      tag_372\n      jumpi\n        /* \"#utility.yul\":12925:12943   */\n      tag_373\n      tag_211\n      jump\t// in\n    tag_373:\n        /* \"#utility.yul\":12842:12945   */\n    tag_372:\n        /* \"#utility.yul\":12972:12973   */\n      0x01\n        /* \"#utility.yul\":12965:12970   */\n      dup3\n        /* \"#utility.yul\":12961:12974   */\n      add\n        /* \"#utility.yul\":12954:12974   */\n      swap1\n      pop\n        /* \"#utility.yul\":12747:12980   */\n      swap2\n      swap1\n      pop\n      jump\t// out\n        /* \"#utility.yul\":12986:13166   */\n    tag_212:\n        /* \"#utility.yul\":13034:13111   */\n      0x4e487b7100000000000000000000000000000000000000000000000000000000\n        /* \"#utility.yul\":13031:13032   */\n      0x00\n        /* \"#utility.yul\":13024:13112   */\n      mstore\n        /* \"#utility.yul\":13131:13135   */\n      0x41\n        /* \"#utility.yul\":13128:13129   */\n      0x04\n        /* \"#utility.yul\":13121:13136   */\n      mstore\n        /* \"#utility.yul\":13155:13159   */\n      0x24\n        /* \"#utility.yul\":13152:13153   */\n      0x00\n        /* \"#utility.yul\":13145:13160   */\n      revert\n        /* \"#utility.yul\":13172:13313   */\n    tag_213:\n        /* \"#utility.yul\":13221:13225   */\n      0x00\n        /* \"#utility.yul\":13244:13247   */\n      dup2\n        /* \"#utility.yul\":13236:13247   */\n      swap1\n      pop\n        /* \"#utility.yul\":13267:13270   */\n      dup2\n        /* \"#utility.yul\":13264:13265   */\n      0x00\n        /* \"#utility.yul\":13257:13271   */\n      mstore\n        /* \"#utility.yul\":13301:13305   */\n      0x20\n        /* \"#utility.yul\":13298:13299   */\n      0x00\n        /* \"#utility.yul\":13288:13306   */\n      keccak256\n        /* \"#utility.yul\":13280:13306   */\n      swap1\n      pop\n        /* \"#utility.yul\":13172:13313   */\n      swap2\n      swap1\n      pop\n      jump\t// out\n        /* \"#utility.yul\":13319:13412   */\n    tag_214:\n        /* \"#utility.yul\":13356:13362   */\n      0x00\n        /* \"#utility.yul\":13403:13405   */\n      0x20\n        /* \"#utility.yul\":13398:13400   */\n      0x1f\n        /* \"#utility.yul\":13391:13396   */\n      dup4\n        /* \"#utility.yul\":13387:13401   */\n      add\n        /* \"#utility.yul\":13383:13406   */\n      div\n        /* \"#utility.yul\":13373:13406   */\n      swap1\n      pop\n        /* \"#utility.yul\":13319:13412   */\n      swap2\n      swap1\n      pop\n      jump\t// out\n        /* \"#utility.yul\":13418:13525   */\n    tag_215:\n        /* \"#utility.yul\":13462:13470   */\n      0x00\n        /* \"#utility.yul\":13512:13517   */\n      dup3\n        /* \"#utility.yul\":13506:13510   */\n      dup3\n        /* \"#utility.yul\":13502:13518   */\n      shl\n        /* \"#utility.yul\":13481:13518   */\n      swap1\n      pop\n        /* \"#utility.yul\":13418:13525   */\n      swap3\n      swap2\n      pop\n      pop\n      jump\t// out\n        /* \"#utility.yul\":13531:13924   */\n    tag_216:\n        /* \"#utility.yul\":13600:13606   */\n      0x00\n        /* \"#utility.yul\":13650:13651   */\n      0x08\n        /* \"#utility.yul\":13638:13648   */\n      dup4\n        /* \"#utility.yul\":13634:13652   */\n      mul\n        /* \"#utility.yul\":13673:13770   */\n      tag_379\n        /* \"#utility.yul\":13703:13769   */\n      0xffffffffffffffffffffffffffffffffffffffffffffffffffffffffffffffff\n        /* \"#utility.yul\":13692:13701   */\n      dup3\n        /* \"#utility.yul\":13673:13770   */\n      tag_215\n      jump\t// in\n    tag_379:\n        /* \"#utility.yul\":13791:13830   */\n      tag_380\n        /* \"#utility.yul\":13821:13829   */\n      dup7\n        /* \"#utility.yul\":13810:13819   */\n      dup4\n        /* \"#utility.yul\":13791:13830   */\n      tag_215\n      jump\t// in\n    tag_380:\n        /* \"#utility.yul\":13779:13830   */\n      swap6\n      pop\n        /* \"#utility.yul\":13863:13867   */\n      dup1\n        /* \"#utility.yul\":13859:13868   */\n      not\n        /* \"#utility.yul\":13852:13857   */\n      dup5\n        /* \"#utility.yul\":13848:13869   */\n      and\n        /* \"#utility.yul\":13839:13869   */\n      swap4\n      pop\n        /* \"#utility.yul\":13912:13916   */\n      dup1\n        /* \"#utility.yul\":13902:13910   */\n      dup7\n        /* \"#utility.yul\":13898:13917   */\n      and\n        /* \"#utility.yul\":13891:13896   */\n      dup5\n        /* \"#utility.yul\":13888:13918   */\n      or\n        /* \"#utility.yul\":13878:13918   */\n      swap3\n      pop\n        /* \"#utility.yul\":13607:13924   */\n      pop\n      pop\n        /* \"#utility.yul\":13531:13924   */\n      swap4\n      swap3\n      pop\n      pop\n      pop\n      jump\t// out\n        /* \"#utility.yul\":13930:13990   */\n    tag_217:\n        /* \"#utility.yul\":13958:13961   */\n      0x00\n        /* \"#utility.yul\":13979:13984   */\n      dup2\n        /* \"#utility.yul\":13972:13984   */\n      swap1\n      pop\n        /* \"#utility.yul\":13930:13990   */\n      swap2\n      swap1\n      pop\n      jump\t// out\n        /* \"#utility.yul\":13996:14138   */\n    tag_218:\n        /* \"#utility.yul\":14046:14055   */\n      0x00\n        /* \"#utility.yul\":14079:14132   */\n      tag_383\n        /* \"#utility.yul\":14097:14131   */\n      tag_384\n        /* \"#utility.yul\":14106:14130   */\n      tag_385\n        /* \"#utility.yul\":14124:14129   */\n      dup5\n        /* \"#utility.yul\":14106:14130   */\n      tag_176\n      jump\t// in\n    tag_385:\n        /* \"#utility.yul\":14097:14131   */\n      tag_217\n      jump\t// in\n    tag_384:\n        /* \"#utility.yul\":14079:14132   */\n      tag_176\n      jump\t// in\n    tag_383:\n        /* \"#utility.yul\":14066:14132   */\n      swap1\n      pop\n        /* \"#utility.yul\":13996:14138   */\n      swap2\n      swap1\n      pop\n      jump\t// out\n        /* \"#utility.yul\":14144:14219   */\n    tag_219:\n        /* \"#utility.yul\":14187:14190   */\n      0x00\n        /* \"#utility.yul\":14208:14213   */\n      dup2\n        /* \"#utility.yul\":14201:14213   */\n      swap1\n      pop\n        /* \"#utility.yul\":14144:14219   */\n      swap2\n      swap1\n      pop\n      jump\t// out\n        /* \"#utility.yul\":14225:14494   */\n    tag_220:\n        /* \"#utility.yul\":14335:14374   */\n      tag_388\n        /* \"#utility.yul\":14366:14373   */\n      dup4\n        /* \"#utility.yul\":14335:14374   */\n      tag_218\n      jump\t// in\n    tag_388:\n        /* \"#utility.yul\":14396:14487   */\n      tag_389\n        /* \"#utility.yul\":14445:14486   */\n      tag_390\n        /* \"#utility.yul\":14469:14485   */\n      dup3\n        /* \"#utility.yul\":14445:14486   */\n      tag_219\n      jump\t// in\n    tag_390:\n        /* \"#utility.yul\":14437:14443   */\n      dup5\n        /* \"#utility.yul\":14430:14434   */\n      dup5\n        /* \"#utility.yul\":14424:14435   */\n      sload\n        /* \"#utility.yul\":14396:14487   */\n      tag_216\n      jump\t// in\n    tag_389:\n        /* \"#utility.yul\":14390:14394   */\n      dup3\n        /* \"#utility.yul\":14383:14488   */\n      sstore\n        /* \"#utility.yul\":14301:14494   */\n      pop\n        /* \"#utility.yul\":14225:14494   */\n      pop\n      pop\n      pop\n      jump\t// out\n        /* \"#utility.yul\":14500:14573   */\n    tag_221:\n        /* \"#utility.yul\":14545:14548   */\n      0x00\n        /* \"#utility.yul\":14500:14573   */\n      swap1\n      jump\t// out\n        /* \"#utility.yul\":14579:14768   */\n    tag_222:\n        /* \"#utility.yul\":14656:14688   */\n      tag_393\n      tag_221\n      jump\t// in\n    tag_393:\n        /* \"#utility.yul\":14697:14762   */\n      tag_394\n        /* \"#utility.yul\":14755:14761   */\n      dup2\n        /* \"#utility.yul\":14747:14753   */\n      dup5\n        /* \"#utility.yul\":14741:14745   */\n      dup5\n        /* \"#utility.yul\":14697:14762   */\n      tag_220\n      jump\t// in\n    tag_394:\n        /* \"#utility.yul\":14632:14768   */\n      pop\n        /* \"#utility.yul\":14579:14768   */\n      pop\n      pop\n      jump\t// out\n        /* \"#utility.yul\":14774:14960   */\n    tag_223:\n        /* \"#utility.yul\":14834:14954   */\n    tag_396:\n        /* \"#utility.yul\":14851:14854   */\n      dup2\n        /* \"#utility.yul\":14844:14849   */\n      dup2\n        /* \"#utility.yul\":14841:14855   */\n      lt\n        /* \"#utility.yul\":14834:14954   */\n      iszero\n      tag_398\n      jumpi\n        /* \"#utility.yul\":14905:14944   */\n      tag_399\n        /* \"#utility.yul\":14942:14943   */\n      0x00\n        /* \"#utility.yul\":14935:14940   */\n      dup3\n        /* \"#utility.yul\":14905:14944   */\n      tag_222\n      jump\t// in\n    tag_399:\n        /* \"#utility.yul\":14878:14879   */\n      0x01\n        /* \"#utility.yul\":14871:14876   */\n      dup2\n        /* \"#utility.yul\":14867:14880   */\n      add\n        /* \"#utility.yul\":14858:14880   */\n      swap1\n      pop\n        /* \"#utility.yul\":14834:14954   */\n      jump(tag_396)\n    tag_398:\n        /* \"#utility.yul\":14774:14960   */\n      pop\n      pop\n      jump\t// out\n        /* \"#utility.yul\":14966:15509   */\n    tag_224:\n        /* \"#utility.yul\":15067:15069   */\n      0x1f\n        /* \"#utility.yul\":15062:15065   */\n      dup3\n        /* \"#utility.yul\":15059:15070   */\n      gt\n        /* \"#utility.yul\":15056:15502   */\n      iszero\n      tag_401\n      jumpi\n        /* \"#utility.yul\":15101:15139   */\n      tag_402\n        /* \"#utility.yul\":15133:15138   */\n      dup2\n        /* \"#utility.yul\":15101:15139   */\n      tag_213\n      jump\t// in\n    tag_402:\n        /* \"#utility.yul\":15185:15214   */\n      tag_403\n        /* \"#utility.yul\":15203:15213   */\n      dup5\n        /* \"#utility.yul\":15185:15214   */\n      tag_214\n      jump\t// in\n    tag_403:\n        /* \"#utility.yul\":15175:15183   */\n      dup2\n        /* \"#utility.yul\":15171:15215   */\n      add\n        /* \"#utility.yul\":15368:15370   */\n      0x20\n        /* \"#utility.yul\":15356:15366   */\n      dup6\n        /* \"#utility.yul\":15353:15371   */\n      lt\n        /* \"#utility.yul\":15350:15399   */\n      iszero\n      tag_404\n      jumpi\n        /* \"#utility.yul\":15389:15397   */\n      dup2\n        /* \"#utility.yul\":15374:15397   */\n      swap1\n      pop\n        /* \"#utility.yul\":15350:15399   */\n    tag_404:\n        /* \"#utility.yul\":15412:15492   */\n      tag_405\n        /* \"#utility.yul\":15468:15490   */\n      tag_406\n        /* \"#utility.yul\":15486:15489   */\n      dup6\n        /* \"#utility.yul\":15468:15490   */\n      tag_214\n      jump\t// in\n    tag_406:\n        /* \"#utility.yul\":15458:15466   */\n      dup4\n        /* \"#utility.yul\":15454:15491   */\n      add\n        /* \"#utility.yul\":15441:15452   */\n      dup3\n        /* \"#utility.yul\":15412:15492   */\n      tag_223\n      jump\t// in\n    tag_405:\n        /* \"#utility.yul\":15071:15502   */\n      pop\n      pop\n        /* \"#utility.yul\":15056:15502   */\n    tag_401:\n        /* \"#utility.yul\":14966:15509   */\n      pop\n      pop\n      pop\n      jump\t// out\n        /* \"#utility.yul\":15515:15632   */\n    tag_225:\n        /* \"#utility.yul\":15569:15577   */\n      0x00\n        /* \"#utility.yul\":15619:15624   */\n      dup3\n        /* \"#utility.yul\":15613:15617   */\n      dup3\n        /* \"#utility.yul\":15609:15625   */\n      shr\n        /* \"#utility.yul\":15588:15625   */\n      swap1\n      pop\n        /* \"#utility.yul\":15515:15632   */\n      swap3\n      swap2\n      pop\n      pop\n      jump\t// out\n        /* \"#utility.yul\":15638:15807   */\n    tag_226:\n        /* \"#utility.yul\":15682:15688   */\n      0x00\n        /* \"#utility.yul\":15715:15766   */\n      tag_409\n        /* \"#utility.yul\":15763:15764   */\n      0x00\n        /* \"#utility.yul\":15759:15765   */\n      not\n        /* \"#utility.yul\":15751:15756   */\n      dup5\n        /* \"#utility.yul\":15748:15749   */\n      0x08\n        /* \"#utility.yul\":15744:15757   */\n      mul\n        /* \"#utility.yul\":15715:15766   */\n      tag_225\n      jump\t// in\n    tag_409:\n        /* \"#utility.yul\":15711:15767   */\n      not\n        /* \"#utility.yul\":15796:15800   */\n      dup1\n        /* \"#utility.yul\":15790:15794   */\n      dup4\n        /* \"#utility.yul\":15786:15801   */\n      and\n        /* \"#utility.yul\":15776:15801   */\n      swap2\n      pop\n        /* \"#utility.yul\":15689:15807   */\n      pop\n        /* \"#utility.yul\":15638:15807   */\n      swap3\n      swap2\n      pop\n      pop\n      jump\t// out\n        /* \"#utility.yul\":15812:16107   */\n    tag_227:\n        /* \"#utility.yul\":15888:15892   */\n      0x00\n        /* \"#utility.yul\":16034:16063   */\n      tag_411\n        /* \"#utility.yul\":16059:16062   */\n      dup4\n        /* \"#utility.yul\":16053:16057   */\n      dup4\n        /* \"#utility.yul\":16034:16063   */\n      tag_226\n      jump\t// in\n    tag_411:\n        /* \"#utility.yul\":16026:16063   */\n      swap2\n      pop\n        /* \"#utility.yul\":16096:16099   */\n      dup3\n        /* \"#utility.yul\":16093:16094   */\n      0x02\n        /* \"#utility.yul\":16089:16100   */\n      mul\n        /* \"#utility.yul\":16083:16087   */\n      dup3\n        /* \"#utility.yul\":16080:16101   */\n      or\n        /* \"#utility.yul\":16072:16101   */\n      swap1\n      pop\n        /* \"#utility.yul\":15812:16107   */\n      swap3\n      swap2\n      pop\n      pop\n      jump\t// out\n        /* \"#utility.yul\":16112:17507   */\n    tag_78:\n        /* \"#utility.yul\":16229:16266   */\n      tag_413\n        /* \"#utility.yul\":16262:16265   */\n      dup3\n        /* \"#utility.yul\":16229:16266   */\n      tag_183\n      jump\t// in\n    tag_413:\n        /* \"#utility.yul\":16331:16349   */\n      0xffffffffffffffff\n        /* \"#utility.yul\":16323:16329   */\n      dup2\n        /* \"#utility.yul\":16320:16350   */\n      gt\n        /* \"#utility.yul\":16317:16373   */\n      iszero\n      tag_414\n      jumpi\n        /* \"#utility.yul\":16353:16371   */\n      tag_415\n      tag_212\n      jump\t// in\n    tag_415:\n        /* \"#utility.yul\":16317:16373   */\n    tag_414:\n        /* \"#utility.yul\":16397:16435   */\n      tag_416\n        /* \"#utility.yul\":16429:16433   */\n      dup3\n        /* \"#utility.yul\":16423:16434   */\n      sload\n        /* \"#utility.yul\":16397:16435   */\n      tag_60\n      jump\t// in\n    tag_416:\n        /* \"#utility.yul\":16482:16549   */\n      tag_417\n        /* \"#utility.yul\":16542:16548   */\n      dup3\n        /* \"#utility.yul\":16534:16540   */\n      dup3\n        /* \"#utility.yul\":16528:16532   */\n      dup6\n        /* \"#utility.yul\":16482:16549   */\n      tag_224\n      jump\t// in\n    tag_417:\n        /* \"#utility.yul\":16576:16577   */\n      0x00\n        /* \"#utility.yul\":16600:16604   */\n      0x20\n        /* \"#utility.yul\":16587:16604   */\n      swap1\n      pop\n        /* \"#utility.yul\":16632:16634   */\n      0x1f\n        /* \"#utility.yul\":16624:16630   */\n      dup4\n        /* \"#utility.yul\":16621:16635   */\n      gt\n        /* \"#utility.yul\":16649:16650   */\n      0x01\n        /* \"#utility.yul\":16644:17262   */\n      dup2\n      eq\n      tag_419\n      jumpi\n        /* \"#utility.yul\":17306:17307   */\n      0x00\n        /* \"#utility.yul\":17323:17329   */\n      dup5\n        /* \"#utility.yul\":17320:17397   */\n      iszero\n      tag_420\n      jumpi\n        /* \"#utility.yul\":17372:17381   */\n      dup3\n        /* \"#utility.yul\":17367:17370   */\n      dup8\n        /* \"#utility.yul\":17363:17382   */\n      add\n        /* \"#utility.yul\":17357:17383   */\n      mload\n        /* \"#utility.yul\":17348:17383   */\n      swap1\n      pop\n        /* \"#utility.yul\":17320:17397   */\n    tag_420:\n        /* \"#utility.yul\":17423:17490   */\n      tag_421\n        /* \"#utility.yul\":17483:17489   */\n      dup6\n        /* \"#utility.yul\":17476:17481   */\n      dup3\n        /* \"#utility.yul\":17423:17490   */\n      tag_227\n      jump\t// in\n    tag_421:\n        /* \"#utility.yul\":17417:17421   */\n      dup7\n        /* \"#utility.yul\":17410:17491   */\n      sstore\n        /* \"#utility.yul\":17279:17501   */\n      pop\n        /* \"#utility.yul\":16614:17501   */\n      jump(tag_418)\n        /* \"#utility.yul\":16644:17262   */\n    tag_419:\n        /* \"#utility.yul\":16696:16700   */\n      0x1f\n        /* \"#utility.yul\":16692:16701   */\n      not\n        /* \"#utility.yul\":16684:16690   */\n      dup5\n        /* \"#utility.yul\":16680:16702   */\n      and\n        /* \"#utility.yul\":16730:16767   */\n      tag_422\n        /* \"#utility.yul\":16762:16766   */\n      dup7\n        /* \"#utility.yul\":16730:16767   */\n      tag_213\n      jump\t// in\n    tag_422:\n        /* \"#utility.yul\":16789:16790   */\n      0x00\n        /* \"#utility.yul\":16803:17011   */\n    tag_423:\n        /* \"#utility.yul\":16817:16824   */\n      dup3\n        /* \"#utility.yul\":16814:16815   */\n      dup2\n        /* \"#utility.yul\":16811:16825   */\n      lt\n        /* \"#utility.yul\":16803:17011   */\n      iszero\n      tag_425\n      jumpi\n        /* \"#utility.yul\":16896:16905   */\n      dup5\n        /* \"#utility.yul\":16891:16894   */\n      dup10\n        /* \"#utility.yul\":16887:16906   */\n      add\n        /* \"#utility.yul\":16881:16907   */\n      mload\n        /* \"#utility.yul\":16873:16879   */\n      dup3\n        /* \"#utility.yul\":16866:16908   */\n      sstore\n        /* \"#utility.yul\":16947:16948   */\n      0x01\n        /* \"#utility.yul\":16939:16945   */\n      dup3\n        /* \"#utility.yul\":16935:16949   */\n      add\n        /* \"#utility.yul\":16925:16949   */\n      swap2\n      pop\n        /* \"#utility.yul\":16994:16996   */\n      0x20\n        /* \"#utility.yul\":16983:16992   */\n      dup6\n        /* \"#utility.yul\":16979:16997   */\n      add\n        /* \"#utility.yul\":16966:16997   */\n      swap5\n      pop\n        /* \"#utility.yul\":16840:16844   */\n      0x20\n        /* \"#utility.yul\":16837:16838   */\n      dup2\n        /* \"#utility.yul\":16833:16845   */\n      add\n        /* \"#utility.yul\":16828:16845   */\n      swap1\n      pop\n        /* \"#utility.yul\":16803:17011   */\n      jump(tag_423)\n    tag_425:\n        /* \"#utility.yul\":17039:17045   */\n      dup7\n        /* \"#utility.yul\":17030:17037   */\n      dup4\n        /* \"#utility.yul\":17027:17046   */\n      lt\n        /* \"#utility.yul\":17024:17203   */\n      iszero\n      tag_426\n      jumpi\n        /* \"#utility.yul\":17097:17106   */\n      dup5\n        /* \"#utility.yul\":17092:17095   */\n      dup10\n        /* \"#utility.yul\":17088:17107   */\n      add\n        /* \"#utility.yul\":17082:17108   */\n      mload\n        /* \"#utility.yul\":17140:17188   */\n      tag_427\n        /* \"#utility.yul\":17182:17186   */\n      0x1f\n        /* \"#utility.yul\":17174:17180   */\n      dup10\n        /* \"#utility.yul\":17170:17187   */\n      and\n        /* \"#utility.yul\":17159:17168   */\n      dup3\n        /* \"#utility.yul\":17140:17188   */\n      tag_226\n      jump\t// in\n    tag_427:\n        /* \"#utility.yul\":17132:17138   */\n      dup4\n        /* \"#utility.yul\":17125:17189   */\n      sstore\n        /* \"#utility.yul\":17047:17203   */\n      pop\n        /* \"#utility.yul\":17024:17203   */\n    tag_426:\n        /* \"#utility.yul\":17249:17250   */\n      0x01\n        /* \"#utility.yul\":17245:17246   */\n      0x02\n        /* \"#utility.yul\":17237:17243   */\n      dup9\n        /* \"#utility.yul\":17233:17247   */\n      mul\n        /* \"#utility.yul\":17229:17251   */\n      add\n        /* \"#utility.yul\":17223:17227   */\n      dup9\n        /* \"#utility.yul\":17216:17252   */\n      sstore\n        /* \"#utility.yul\":16651:17262   */\n      pop\n      pop\n      pop\n        /* \"#utility.yul\":16614:17501   */\n    tag_418:\n      pop\n        /* \"#utility.yul\":16204:17507   */\n      pop\n      pop\n      pop\n        /* \"#utility.yul\":16112:17507   */\n      pop\n      pop\n      jump\t// out\n        /* \"#utility.yul\":17513:17659   */\n    tag_228:\n        /* \"#utility.yul\":17610:17616   */\n      dup3\n        /* \"#utility.yul\":17605:17608   */\n      dup2\n        /* \"#utility.yul\":17600:17603   */\n      dup4\n        /* \"#utility.yul\":17587:17617   */\n      calldatacopy\n        /* \"#utility.yul\":17651:17652   */\n      0x00\n        /* \"#utility.yul\":17642:17648   */\n      dup4\n        /* \"#utility.yul\":17637:17640   */\n      dup4\n        /* \"#utility.yul\":17633:17649   */\n      add\n        /* \"#utility.yul\":17626:17653   */\n      mstore\n        /* \"#utility.yul\":17513:17659   */\n      pop\n      pop\n      pop\n      jump\t// out\n        /* \"#utility.yul\":17689:18006   */\n    tag_229:\n        /* \"#utility.yul\":17787:17790   */\n      0x00\n        /* \"#utility.yul\":17808:17879   */\n      tag_430\n        /* \"#utility.yul\":17872:17878   */\n      dup4\n        /* \"#utility.yul\":17867:17870   */\n      dup6\n        /* \"#utility.yul\":17808:17879   */\n      tag_184\n      jump\t// in\n    tag_430:\n        /* \"#utility.yul\":17801:17879   */\n      swap4\n      pop\n        /* \"#utility.yul\":17889:17945   */\n      tag_431\n        /* \"#utility.yul\":17938:17944   */\n      dup4\n        /* \"#utility.yul\":17933:17936   */\n      dup6\n        /* \"#utility.yul\":17926:17931   */\n      dup5\n        /* \"#utility.yul\":17889:17945   */\n      tag_228\n      jump\t// in\n    tag_431:\n        /* \"#utility.yul\":17970:17999   */\n      tag_432\n        /* \"#utility.yul\":17992:17998   */\n      dup4\n        /* \"#utility.yul\":17970:17999   */\n      tag_186\n      jump\t// in\n    tag_432:\n        /* \"#utility.yul\":17965:17968   */\n      dup5\n        /* \"#utility.yul\":17961:18000   */\n      add\n        /* \"#utility.yul\":17954:18000   */\n      swap1\n      pop\n        /* \"#utility.yul\":17689:18006   */\n      swap4\n      swap3\n      pop\n      pop\n      pop\n      jump\t// out\n        /* \"#utility.yul\":18012:18455   */\n    tag_81:\n        /* \"#utility.yul\":18163:18167   */\n      0x00\n        /* \"#utility.yul\":18201:18203   */\n      0x40\n        /* \"#utility.yul\":18190:18199   */\n      dup3\n        /* \"#utility.yul\":18186:18204   */\n      add\n        /* \"#utility.yul\":18178:18204   */\n      swap1\n      pop\n        /* \"#utility.yul\":18250:18259   */\n      dup2\n        /* \"#utility.yul\":18244:18248   */\n      dup2\n        /* \"#utility.yul\":18240:18260   */\n      sub\n        /* \"#utility.yul\":18236:18237   */\n      0x00\n        /* \"#utility.yul\":18225:18234   */\n      dup4\n        /* \"#utility.yul\":18221:18238   */\n      add\n        /* \"#utility.yul\":18214:18261   */\n      mstore\n        /* \"#utility.yul\":18278:18366   */\n      tag_434\n        /* \"#utility.yul\":18361:18365   */\n      dup2\n        /* \"#utility.yul\":18352:18358   */\n      dup6\n        /* \"#utility.yul\":18344:18350   */\n      dup8\n        /* \"#utility.yul\":18278:18366   */\n      tag_229\n      jump\t// in\n    tag_434:\n        /* \"#utility.yul\":18270:18366   */\n      swap1\n      pop\n        /* \"#utility.yul\":18376:18448   */\n      tag_435\n        /* \"#utility.yul\":18444:18446   */\n      0x20\n        /* \"#utility.yul\":18433:18442   */\n      dup4\n        /* \"#utility.yul\":18429:18447   */\n      add\n        /* \"#utility.yul\":18420:18426   */\n      dup5\n        /* \"#utility.yul\":18376:18448   */\n      tag_179\n      jump\t// in\n    tag_435:\n        /* \"#utility.yul\":18012:18455   */\n      swap5\n      swap4\n      pop\n      pop\n      pop\n      pop\n      jump\t// out\n        /* \"#utility.yul\":18461:18626   */\n    tag_230:\n        /* \"#utility.yul\":18601:18618   */\n      0x4e6f6465206e6f74206163746976650000000000000000000000000000000000\n        /* \"#utility.yul\":18597:18598   */\n      0x00\n        /* \"#utility.yul\":18589:18595   */\n      dup3\n        /* \"#utility.yul\":18585:18599   */\n      add\n        /* \"#utility.yul\":18578:18619   */\n      mstore\n        /* \"#utility.yul\":18461:18626   */\n      pop\n      jump\t// out\n        /* \"#utility.yul\":18632:18998   */\n    tag_231:\n        /* \"#utility.yul\":18774:18777   */\n      0x00\n        /* \"#utility.yul\":18795:18862   */\n      tag_438\n        /* \"#utility.yul\":18859:18861   */\n      0x0f\n        /* \"#utility.yul\":18854:18857   */\n      dup4\n        /* \"#utility.yul\":18795:18862   */\n      tag_184\n      jump\t// in\n    tag_438:\n        /* \"#utility.yul\":18788:18862   */\n      swap2\n      pop\n        /* \"#utility.yul\":18871:18964   */\n      tag_439\n        /* \"#utility.yul\":18960:18963   */\n      dup3\n        /* \"#utility.yul\":18871:18964   */\n      tag_230\n      jump\t// in\n    tag_439:\n        /* \"#utility.yul\":18989:18991   */\n      0x20\n        /* \"#utility.yul\":18984:18987   */\n      dup3\n        /* \"#utility.yul\":18980:18992   */\n      add\n        /* \"#utility.yul\":18973:18992   */\n      swap1\n      pop\n        /* \"#utility.yul\":18632:18998   */\n      swap2\n      swap1\n      pop\n      jump\t// out\n        /* \"#utility.yul\":19004:19423   */\n    tag_97:\n        /* \"#utility.yul\":19170:19174   */\n      0x00\n        /* \"#utility.yul\":19208:19210   */\n      0x20\n        /* \"#utility.yul\":19197:19206   */\n      dup3\n        /* \"#utility.yul\":19193:19211   */\n      add\n        /* \"#utility.yul\":19185:19211   */\n      swap1\n      pop\n        /* \"#utility.yul\":19257:19266   */\n      dup2\n        /* \"#utility.yul\":19251:19255   */\n      dup2\n        /* \"#utility.yul\":19247:19267   */\n      sub\n        /* \"#utility.yul\":19243:19244   */\n      0x00\n        /* \"#utility.yul\":19232:19241   */\n      dup4\n        /* \"#utility.yul\":19228:19245   */\n      add\n        /* \"#utility.yul\":19221:19268   */\n      mstore\n        /* \"#utility.yul\":19285:19416   */\n      tag_441\n        /* \"#utility.yul\":19411:19415   */\n      dup2\n        /* \"#utility.yul\":19285:19416   */\n      tag_231\n      jump\t// in\n    tag_441:\n        /* \"#utility.yul\":19277:19416   */\n      swap1\n      pop\n        /* \"#utility.yul\":19004:19423   */\n      swap2\n      swap1\n      pop\n      jump\t// out\n        /* \"#utility.yul\":19429:19593   */\n    tag_232:\n        /* \"#utility.yul\":19569:19585   */\n      0x4e6f74206e6f6465206f776e6572000000000000000000000000000000000000\n        /* \"#utility.yul\":19565:19566   */\n      0x00\n        /* \"#utility.yul\":19557:19563   */\n      dup3\n        /* \"#utility.yul\":19553:19567   */\n      add\n        /* \"#utility.yul\":19546:19586   */\n      mstore\n        /* \"#utility.yul\":19429:19593   */\n      pop\n      jump\t// out\n        /* \"#utility.yul\":19599:19965   */\n    tag_233:\n        /* \"#utility.yul\":19741:19744   */\n      0x00\n        /* \"#utility.yul\":19762:19829   */\n      tag_444\n        /* \"#utility.yul\":19826:19828   */\n      0x0e\n        /* \"#utility.yul\":19821:19824   */\n      dup4\n        /* \"#utility.yul\":19762:19829   */\n      tag_184\n      jump\t// in\n    tag_444:\n        /* \"#utility.yul\":19755:19829   */\n      swap2\n      pop\n        /* \"#utility.yul\":19838:19931   */\n      tag_445\n        /* \"#utility.yul\":19927:19930   */\n      dup3\n        /* \"#utility.yul\":19838:19931   */\n      tag_232\n      jump\t// in\n    tag_445:\n        /* \"#utility.yul\":19956:19958   */\n      0x20\n        /* \"#utility.yul\":19951:19954   */\n      dup3\n        /* \"#utility.yul\":19947:19959   */\n      add\n        /* \"#utility.yul\":19940:19959   */\n      swap1\n      pop\n        /* \"#utility.yul\":19599:19965   */\n      swap2\n      swap1\n      pop\n      jump\t// out\n        /* \"#utility.yul\":19971:20390   */\n    tag_100:\n        /* \"#utility.yul\":20137:20141   */\n      0x00\n        /* \"#utility.yul\":20175:20177   */\n      0x20\n        /* \"#utility.yul\":20164:20173   */\n      dup3\n        /* \"#utility.yul\":20160:20178   */\n      add\n        /* \"#utility.yul\":20152:20178   */\n      swap1\n      pop\n        /* \"#utility.yul\":20224:20233   */\n      dup2\n        /* \"#utility.yul\":20218:20222   */\n      dup2\n        /* \"#utility.yul\":20214:20234   */\n      sub\n        /* \"#utility.yul\":20210:20211   */\n      0x00\n        /* \"#utility.yul\":20199:20208   */\n      dup4\n        /* \"#utility.yul\":20195:20212   */\n      add\n        /* \"#utility.yul\":20188:20235   */\n      mstore\n        /* \"#utility.yul\":20252:20383   */\n      tag_447\n        /* \"#utility.yul\":20378:20382   */\n      dup2\n        /* \"#utility.yul\":20252:20383   */\n      tag_233\n      jump\t// in\n    tag_447:\n        /* \"#utility.yul\":20244:20383   */\n      swap1\n      pop\n        /* \"#utility.yul\":19971:20390   */\n      swap2\n      swap1\n      pop\n      jump\t// out\n        /* \"#utility.yul\":20396:20567   */\n    tag_234:\n        /* \"#utility.yul\":20536:20559   */\n      0x4d65746164617461205552492072657175697265640000000000000000000000\n        /* \"#utility.yul\":20532:20533   */\n      0x00\n        /* \"#utility.yul\":20524:20530   */\n      dup3\n        /* \"#utility.yul\":20520:20534   */\n      add\n        /* \"#utility.yul\":20513:20560   */\n      mstore\n        /* \"#utility.yul\":20396:20567   */\n      pop\n      jump\t// out\n        /* \"#utility.yul\":20573:20939   */\n    tag_235:\n        /* \"#utility.yul\":20715:20718   */\n      0x00\n        /* \"#utility.yul\":20736:20803   */\n      tag_450\n        /* \"#utility.yul\":20800:20802   */\n      0x15\n        /* \"#utility.yul\":20795:20798   */\n      dup4\n        /* \"#utility.yul\":20736:20803   */\n      tag_184\n      jump\t// in\n    tag_450:\n        /* \"#utility.yul\":20729:20803   */\n      swap2\n      pop\n        /* \"#utility.yul\":20812:20905   */\n      tag_451\n        /* \"#utility.yul\":20901:20904   */\n      dup3\n        /* \"#utility.yul\":20812:20905   */\n      tag_234\n      jump\t// in\n    tag_451:\n        /* \"#utility.yul\":20930:20932   */\n      0x20\n        /* \"#utility.yul\":20925:20928   */\n      dup3\n        /* \"#utility.yul\":20921:20933   */\n      add\n        /* \"#utility.yul\":20914:20933   */\n      swap1\n      pop\n        /* \"#utility.yul\":20573:20939   */\n      swap2\n      swap1\n      pop\n      jump\t// out\n        /* \"#utility.yul\":20945:21364   */\n    tag_103:\n        /* \"#utility.yul\":21111:21115   */\n      0x00\n        /* \"#utility.yul\":21149:21151   */\n      0x20\n        /* \"#utility.yul\":21138:21147   */\n      dup3\n        /* \"#utility.yul\":21134:21152   */\n      add\n        /* \"#utility.yul\":21126:21152   */\n      swap1\n      pop\n        /* \"#utility.yul\":21198:21207   */\n      dup2\n        /* \"#utility.yul\":21192:21196   */\n      dup2\n        /* \"#utility.yul\":21188:21208   */\n      sub\n        /* \"#utility.yul\":21184:21185   */\n      0x00\n        /* \"#utility.yul\":21173:21182   */\n      dup4\n        /* \"#utility.yul\":21169:21186   */\n      add\n        /* \"#utility.yul\":21162:21209   */\n      mstore\n        /* \"#utility.yul\":21226:21357   */\n      tag_453\n        /* \"#utility.yul\":21352:21356   */\n      dup2\n        /* \"#utility.yul\":21226:21357   */\n      tag_235\n      jump\t// in\n    tag_453:\n        /* \"#utility.yul\":21218:21357   */\n      swap1\n      pop\n        /* \"#utility.yul\":20945:21364   */\n      swap2\n      swap1\n      pop\n      jump\t// out\n        /* \"#utility.yul\":21370:21467   */\n    tag_236:\n        /* \"#utility.yul\":21429:21435   */\n      0x00\n        /* \"#utility.yul\":21457:21460   */\n      dup3\n        /* \"#utility.yul\":21447:21460   */\n      swap1\n      pop\n        /* \"#utility.yul\":21370:21467   */\n      swap3\n      swap2\n      pop\n      pop\n      jump\t// out\n        /* \"#utility.yul\":21473:22876   */\n    tag_105:\n        /* \"#utility.yul\":21597:21641   */\n      tag_456\n        /* \"#utility.yul\":21637:21640   */\n      dup4\n        /* \"#utility.yul\":21632:21635   */\n      dup4\n        /* \"#utility.yul\":21597:21641   */\n      tag_236\n      jump\t// in\n    tag_456:\n        /* \"#utility.yul\":21706:21724   */\n      0xffffffffffffffff\n        /* \"#utility.yul\":21698:21704   */\n      dup2\n        /* \"#utility.yul\":21695:21725   */\n      gt\n        /* \"#utility.yul\":21692:21748   */\n      iszero\n      tag_457\n      jumpi\n        /* \"#utility.yul\":21728:21746   */\n      tag_458\n      tag_212\n      jump\t// in\n    tag_458:\n        /* \"#utility.yul\":21692:21748   */\n    tag_457:\n        /* \"#utility.yul\":21772:21810   */\n      tag_459\n        /* \"#utility.yul\":21804:21808   */\n      dup3\n        /* \"#utility.yul\":21798:21809   */\n      sload\n        /* \"#utility.yul\":21772:21810   */\n      tag_60\n      jump\t// in\n    tag_459:\n        /* \"#utility.yul\":21857:21924   */\n      tag_460\n        /* \"#utility.yul\":21917:21923   */\n      dup3\n        /* \"#utility.yul\":21909:21915   */\n      dup3\n        /* \"#utility.yul\":21903:21907   */\n      dup6\n        /* \"#utility.yul\":21857:21924   */\n      tag_224\n      jump\t// in\n    tag_460:\n        /* \"#utility.yul\":21951:21952   */\n      0x00\n        /* \"#utility.yul\":21980:21982   */\n      0x1f\n        /* \"#utility.yul\":21972:21978   */\n      dup4\n        /* \"#utility.yul\":21969:21983   */\n      gt\n        /* \"#utility.yul\":21997:21998   */\n      0x01\n        /* \"#utility.yul\":21992:22624   */\n      dup2\n      eq\n      tag_462\n      jumpi\n        /* \"#utility.yul\":22668:22669   */\n      0x00\n        /* \"#utility.yul\":22685:22691   */\n      dup5\n        /* \"#utility.yul\":22682:22766   */\n      iszero\n      tag_463\n      jumpi\n        /* \"#utility.yul\":22741:22750   */\n      dup3\n        /* \"#utility.yul\":22736:22739   */\n      dup8\n        /* \"#utility.yul\":22732:22751   */\n      add\n        /* \"#utility.yul\":22719:22752   */\n      calldataload\n        /* \"#utility.yul\":22710:22752   */\n      swap1\n      pop\n        /* \"#utility.yul\":22682:22766   */\n    tag_463:\n        /* \"#utility.yul\":22792:22859   */\n      tag_464\n        /* \"#utility.yul\":22852:22858   */\n      dup6\n        /* \"#utility.yul\":22845:22850   */\n      dup3\n        /* \"#utility.yul\":22792:22859   */\n      tag_227\n      jump\t// in\n    tag_464:\n        /* \"#utility.yul\":22786:22790   */\n      dup7\n        /* \"#utility.yul\":22779:22860   */\n      sstore\n        /* \"#utility.yul\":22641:22870   */\n      pop\n        /* \"#utility.yul\":21962:22870   */\n      jump(tag_461)\n        /* \"#utility.yul\":21992:22624   */\n    tag_462:\n        /* \"#utility.yul\":22044:22048   */\n      0x1f\n        /* \"#utility.yul\":22040:22049   */\n      not\n        /* \"#utility.yul\":22032:22038   */\n      dup5\n        /* \"#utility.yul\":22028:22050   */\n      and\n        /* \"#utility.yul\":22078:22115   */\n      tag_465\n        /* \"#utility.yul\":22110:22114   */\n      dup7\n        /* \"#utility.yul\":22078:22115   */\n      tag_213\n      jump\t// in\n    tag_465:\n        /* \"#utility.yul\":22137:22138   */\n      0x00\n        /* \"#utility.yul\":22151:22366   */\n    tag_466:\n        /* \"#utility.yul\":22165:22172   */\n      dup3\n        /* \"#utility.yul\":22162:22163   */\n      dup2\n        /* \"#utility.yul\":22159:22173   */\n      lt\n        /* \"#utility.yul\":22151:22366   */\n      iszero\n      tag_468\n      jumpi\n        /* \"#utility.yul\":22251:22260   */\n      dup5\n        /* \"#utility.yul\":22246:22249   */\n      dup10\n        /* \"#utility.yul\":22242:22261   */\n      add\n        /* \"#utility.yul\":22229:22262   */\n      calldataload\n        /* \"#utility.yul\":22221:22227   */\n      dup3\n        /* \"#utility.yul\":22214:22263   */\n      sstore\n        /* \"#utility.yul\":22302:22303   */\n      0x01\n        /* \"#utility.yul\":22294:22300   */\n      dup3\n        /* \"#utility.yul\":22290:22304   */\n      add\n        /* \"#utility.yul\":22280:22304   */\n      swap2\n      pop\n        /* \"#utility.yul\":22349:22351   */\n      0x20\n        /* \"#utility.yul\":22338:22347   */\n      dup6\n        /* \"#utility.yul\":22334:22352   */\n      add\n        /* \"#utility.yul\":22321:22352   */\n      swap5\n      pop\n        /* \"#utility.yul\":22188:22192   */\n      0x20\n        /* \"#utility.yul\":22185:22186   */\n      dup2\n        /* \"#utility.yul\":22181:22193   */\n      add\n        /* \"#utility.yul\":22176:22193   */\n      swap1\n      pop\n        /* \"#utility.yul\":22151:22366   */\n      jump(tag_466)\n    tag_468:\n        /* \"#utility.yul\":22394:22400   */\n      dup7\n        /* \"#utility.yul\":22385:22392   */\n      dup4\n        /* \"#utility.yul\":22382:22401   */\n      lt\n        /* \"#utility.yul\":22379:22565   */\n      iszero\n      tag_469\n      jumpi\n        /* \"#utility.yul\":22459:22468   */\n      dup5\n        /* \"#utility.yul\":22454:22457   */\n      dup10\n        /* \"#utility.yul\":22450:22469   */\n      add\n        /* \"#utility.yul\":22437:22470   */\n      calldataload\n        /* \"#utility.yul\":22502:22550   */\n      tag_470\n        /* \"#utility.yul\":22544:22548   */\n      0x1f\n        /* \"#utility.yul\":22536:22542   */\n      dup10\n        /* \"#utility.yul\":22532:22549   */\n      and\n        /* \"#utility.yul\":22521:22530   */\n      dup3\n        /* \"#utility.yul\":22502:22550   */\n      tag_226\n      jump\t// in\n    tag_470:\n        /* \"#utility.yul\":22494:22500   */\n      dup4\n        /* \"#utility.yul\":22487:22551   */\n      sstore\n        /* \"#utility.yul\":22402:22565   */\n      pop\n        /* \"#utility.yul\":22379:22565   */\n    tag_469:\n        /* \"#utility.yul\":22611:22612   */\n      0x01\n        /* \"#utility.yul\":22607:22608   */\n      0x02\n        /* \"#utility.yul\":22599:22605   */\n      dup9\n        /* \"#utility.yul\":22595:22609   */\n      mul\n        /* \"#utility.yul\":22591:22613   */\n      add\n        /* \"#utility.yul\":22585:22589   */\n      dup9\n        /* \"#utility.yul\":22578:22614   */\n      sstore\n        /* \"#utility.yul\":21999:22624   */\n      pop\n      pop\n      pop\n        /* \"#utility.yul\":21962:22870   */\n    tag_461:\n      pop\n        /* \"#utility.yul\":21572:22876   */\n      pop\n      pop\n      pop\n        /* \"#utility.yul\":21473:22876   */\n      pop\n      pop\n      pop\n      jump\t// out\n        /* \"#utility.yul\":22882:23053   */\n    tag_237:\n        /* \"#utility.yul\":23022:23045   */\n      0x4e6f646520616c726561647920696e6163746976650000000000000000000000\n        /* \"#utility.yul\":23018:23019   */\n      0x00\n        /* \"#utility.yul\":23010:23016   */\n      dup3\n        /* \"#utility.yul\":23006:23020   */\n      add\n        /* \"#utility.yul\":22999:23046   */\n      mstore\n        /* \"#utility.yul\":22882:23053   */\n      pop\n      jump\t// out\n        /* \"#utility.yul\":23059:23425   */\n    tag_238:\n        /* \"#utility.yul\":23201:23204   */\n      0x00\n        /* \"#utility.yul\":23222:23289   */\n      tag_473\n        /* \"#utility.yul\":23286:23288   */\n      0x15\n        /* \"#utility.yul\":23281:23284   */\n      dup4\n        /* \"#utility.yul\":23222:23289   */\n      tag_184\n      jump\t// in\n    tag_473:\n        /* \"#utility.yul\":23215:23289   */\n      swap2\n      pop\n        /* \"#utility.yul\":23298:23391   */\n      tag_474\n        /* \"#utility.yul\":23387:23390   */\n      dup3\n        /* \"#utility.yul\":23298:23391   */\n      tag_237\n      jump\t// in\n    tag_474:\n        /* \"#utility.yul\":23416:23418   */\n      0x20\n        /* \"#utility.yul\":23411:23414   */\n      dup3\n        /* \"#utility.yul\":23407:23419   */\n      add\n        /* \"#utility.yul\":23400:23419   */\n      swap1\n      pop\n        /* \"#utility.yul\":23059:23425   */\n      swap2\n      swap1\n      pop\n      jump\t// out\n        /* \"#utility.yul\":23431:23850   */\n    tag_127:\n        /* \"#utility.yul\":23597:23601   */\n      0x00\n        /* \"#utility.yul\":23635:23637   */\n      0x20\n        /* \"#utility.yul\":23624:23633   */\n      dup3\n        /* \"#utility.yul\":23620:23638   */\n      add\n        /* \"#utility.yul\":23612:23638   */\n      swap1\n      pop\n        /* \"#utility.yul\":23684:23693   */\n      dup2\n        /* \"#utility.yul\":23678:23682   */\n      dup2\n        /* \"#utility.yul\":23674:23694   */\n      sub\n        /* \"#utility.yul\":23670:23671   */\n      0x00\n        /* \"#utility.yul\":23659:23668   */\n      dup4\n        /* \"#utility.yul\":23655:23672   */\n      add\n        /* \"#utility.yul\":23648:23695   */\n      mstore\n        /* \"#utility.yul\":23712:23843   */\n      tag_476\n        /* \"#utility.yul\":23838:23842   */\n      dup2\n        /* \"#utility.yul\":23712:23843   */\n      tag_238\n      jump\t// in\n    tag_476:\n        /* \"#utility.yul\":23704:23843   */\n      swap1\n      pop\n        /* \"#utility.yul\":23431:23850   */\n      swap2\n      swap1\n      pop\n      jump\t// out\n        /* \"#utility.yul\":23856:24018   */\n    tag_239:\n        /* \"#utility.yul\":23996:24010   */\n      0x556e617574686f72697a65640000000000000000000000000000000000000000\n        /* \"#utility.yul\":23992:23993   */\n      0x00\n        /* \"#utility.yul\":23984:23990   */\n      dup3\n        /* \"#utility.yul\":23980:23994   */\n      add\n        /* \"#utility.yul\":23973:24011   */\n      mstore\n        /* \"#utility.yul\":23856:24018   */\n      pop\n      jump\t// out\n        /* \"#utility.yul\":24024:24390   */\n    tag_240:\n        /* \"#utility.yul\":24166:24169   */\n      0x00\n        /* \"#utility.yul\":24187:24254   */\n      tag_479\n        /* \"#utility.yul\":24251:24253   */\n      0x0c\n        /* \"#utility.yul\":24246:24249   */\n      dup4\n        /* \"#utility.yul\":24187:24254   */\n      tag_184\n      jump\t// in\n    tag_479:\n        /* \"#utility.yul\":24180:24254   */\n      swap2\n      pop\n        /* \"#utility.yul\":24263:24356   */\n      tag_480\n        /* \"#utility.yul\":24352:24355   */\n      dup3\n        /* \"#utility.yul\":24263:24356   */\n      tag_239\n      jump\t// in\n    tag_480:\n        /* \"#utility.yul\":24381:24383   */\n      0x20\n        /* \"#utility.yul\":24376:24379   */\n      dup3\n        /* \"#utility.yul\":24372:24384   */\n      add\n        /* \"#utility.yul\":24365:24384   */\n      swap1\n      pop\n        /* \"#utility.yul\":24024:24390   */\n      swap2\n      swap1\n      pop\n      jump\t// out\n        /* \"#utility.yul\":24396:24815   */\n    tag_132:\n        /* \"#utility.yul\":24562:24566   */\n      0x00\n        /* \"#utility.yul\":24600:24602   */\n      0x20\n        /* \"#utility.yul\":24589:24598   */\n      dup3\n        /* \"#utility.yul\":24585:24603   */\n      add\n        /* \"#utility.yul\":24577:24603   */\n      swap1\n      pop\n        /* \"#utility.yul\":24649:24658   */\n      dup2\n        /* \"#utility.yul\":24643:24647   */\n      dup2\n        /* \"#utility.yul\":24639:24659   */\n      sub\n        /* \"#utility.yul\":24635:24636   */\n      0x00\n        /* \"#utility.yul\":24624:24633   */\n      dup4\n        /* \"#utility.yul\":24620:24637   */\n      add\n        /* \"#utility.yul\":24613:24660   */\n      mstore\n        /* \"#utility.yul\":24677:24808   */\n      tag_482\n        /* \"#utility.yul\":24803:24807   */\n      dup2\n        /* \"#utility.yul\":24677:24808   */\n      tag_240\n      jump\t// in\n    tag_482:\n        /* \"#utility.yul\":24669:24808   */\n      swap1\n      pop\n        /* \"#utility.yul\":24396:24815   */\n      swap2\n      swap1\n      pop\n      jump\t// out\n        /* \"#utility.yul\":24821:25002   */\n    tag_241:\n        /* \"#utility.yul\":24961:24994   */\n      0x5265656e7472616e637947756172643a207265656e7472616e742063616c6c00\n        /* \"#utility.yul\":24957:24958   */\n      0x00\n        /* \"#utility.yul\":24949:24955   */\n      dup3\n        /* \"#utility.yul\":24945:24959   */\n      add\n        /* \"#utility.yul\":24938:24995   */\n      mstore\n        /* \"#utility.yul\":24821:25002   */\n      pop\n      jump\t// out\n        /* \"#utility.yul\":25008:25374   */\n    tag_242:\n        /* \"#utility.yul\":25150:25153   */\n      0x00\n        /* \"#utility.yul\":25171:25238   */\n      tag_485\n        /* \"#utility.yul\":25235:25237   */\n      0x1f\n        /* \"#utility.yul\":25230:25233   */\n      dup4\n        /* \"#utility.yul\":25171:25238   */\n      tag_184\n      jump\t// in\n    tag_485:\n        /* \"#utility.yul\":25164:25238   */\n      swap2\n      pop\n        /* \"#utility.yul\":25247:25340   */\n      tag_486\n        /* \"#utility.yul\":25336:25339   */\n      dup3\n        /* \"#utility.yul\":25247:25340   */\n      tag_241\n      jump\t// in\n    tag_486:\n        /* \"#utility.yul\":25365:25367   */\n      0x20\n        /* \"#utility.yul\":25360:25363   */\n      dup3\n        /* \"#utility.yul\":25356:25368   */\n      add\n        /* \"#utility.yul\":25349:25368   */\n      swap1\n      pop\n        /* \"#utility.yul\":25008:25374   */\n      swap2\n      swap1\n      pop\n      jump\t// out\n        /* \"#utility.yul\":25380:25799   */\n    tag_140:\n        /* \"#utility.yul\":25546:25550   */\n      0x00\n        /* \"#utility.yul\":25584:25586   */\n      0x20\n        /* \"#utility.yul\":25573:25582   */\n      dup3\n        /* \"#utility.yul\":25569:25587   */\n      add\n        /* \"#utility.yul\":25561:25587   */\n      swap1\n      pop\n        /* \"#utility.yul\":25633:25642   */\n      dup2\n        /* \"#utility.yul\":25627:25631   */\n      dup2\n        /* \"#utility.yul\":25623:25643   */\n      sub\n        /* \"#utility.yul\":25619:25620   */\n      0x00\n        /* \"#utility.yul\":25608:25617   */\n      dup4\n        /* \"#utility.yul\":25604:25621   */\n      add\n        /* \"#utility.yul\":25597:25644   */\n      mstore\n        /* \"#utility.yul\":25661:25792   */\n      tag_488\n        /* \"#utility.yul\":25787:25791   */\n      dup2\n        /* \"#utility.yul\":25661:25792   */\n      tag_242\n      jump\t// in\n    tag_488:\n        /* \"#utility.yul\":25653:25792   */\n      swap1\n      pop\n        /* \"#utility.yul\":25380:25799   */\n      swap2\n      swap1\n      pop\n      jump\t// out\n        /* \"#utility.yul\":25805:25985   */\n    tag_156:\n        /* \"#utility.yul\":25853:25930   */\n      0x4e487b7100000000000000000000000000000000000000000000000000000000\n        /* \"#utility.yul\":25850:25851   */\n      0x00\n        /* \"#utility.yul\":25843:25931   */\n      mstore\n        /* \"#utility.yul\":25950:25954   */\n      0x32\n        /* \"#utility.yul\":25947:25948   */\n      0x04\n        /* \"#utility.yul\":25940:25955   */\n      mstore\n        /* \"#utility.yul\":25974:25978   */\n      0x24\n        /* \"#utility.yul\":25971:25972   */\n      0x00\n        /* \"#utility.yul\":25964:25979   */\n      revert\n        /* \"#utility.yul\":25991:26185   */\n    tag_160:\n        /* \"#utility.yul\":26031:26035   */\n      0x00\n        /* \"#utility.yul\":26051:26071   */\n      tag_491\n        /* \"#utility.yul\":26069:26070   */\n      dup3\n        /* \"#utility.yul\":26051:26071   */\n      tag_176\n      jump\t// in\n    tag_491:\n        /* \"#utility.yul\":26046:26071   */\n      swap2\n      pop\n        /* \"#utility.yul\":26085:26105   */\n      tag_492\n        /* \"#utility.yul\":26103:26104   */\n      dup4\n        /* \"#utility.yul\":26085:26105   */\n      tag_176\n      jump\t// in\n    tag_492:\n        /* \"#utility.yul\":26080:26105   */\n      swap3\n      pop\n        /* \"#utility.yul\":26129:26130   */\n      dup3\n        /* \"#utility.yul\":26126:26127   */\n      dup3\n        /* \"#utility.yul\":26122:26131   */\n      sub\n        /* \"#utility.yul\":26114:26131   */\n      swap1\n      pop\n        /* \"#utility.yul\":26153:26154   */\n      dup2\n        /* \"#utility.yul\":26147:26151   */\n      dup2\n        /* \"#utility.yul\":26144:26155   */\n      gt\n        /* \"#utility.yul\":26141:26178   */\n      iszero\n      tag_493\n      jumpi\n        /* \"#utility.yul\":26158:26176   */\n      tag_494\n      tag_211\n      jump\t// in\n    tag_494:\n        /* \"#utility.yul\":26141:26178   */\n    tag_493:\n        /* \"#utility.yul\":25991:26185   */\n      swap3\n      swap2\n      pop\n      pop\n      jump\t// out\n        /* \"#utility.yul\":26191:26371   */\n    tag_169:\n        /* \"#utility.yul\":26239:26316   */\n      0x4e487b7100000000000000000000000000000000000000000000000000000000\n        /* \"#utility.yul\":26236:26237   */\n      0x00\n        /* \"#utility.yul\":26229:26317   */\n      mstore\n        /* \"#utility.yul\":26336:26340   */\n      0x31\n        /* \"#utility.yul\":26333:26334   */\n      0x04\n        /* \"#utility.yul\":26326:26341   */\n      mstore\n        /* \"#utility.yul\":26360:26364   */\n      0x24\n        /* \"#utility.yul\":26357:26358   */\n      0x00\n        /* \"#utility.yul\":26350:26365   */\n      revert\n\n    auxdata: 0xa2646970667358221220a5459fbeecf109f10cfaba66390c27b4b78637d59e12ccabc0cf3dc7ec7db33564736f6c63430008140033\n}\n",
				"bytecode": {
					"linkReferences": {},
					"object": "608060405234801562000010575f80fd5b50335f73ffffffffffffffffffffffffffffffffffffffff168173ffffffffffffffffffffffffffffffffffffffff160362000085575f6040517f1e4fbdf70000000000000000000000000000000000000000000000000000000081526004016200007c9190620001a8565b60405180910390fd5b6200009681620000a460201b60201c565b5060018081905550620001c3565b5f805f9054906101000a900473ffffffffffffffffffffffffffffffffffffffff169050815f806101000a81548173ffffffffffffffffffffffffffffffffffffffff021916908373ffffffffffffffffffffffffffffffffffffffff1602179055508173ffffffffffffffffffffffffffffffffffffffff168173ffffffffffffffffffffffffffffffffffffffff167f8be0079c531659141344cd1fd0a4f28419497f9722a3daafe3b4186f6b6457e060405160405180910390a35050565b5f73ffffffffffffffffffffffffffffffffffffffff82169050919050565b5f620001908262000165565b9050919050565b620001a28162000184565b82525050565b5f602082019050620001bd5f83018462000197565b92915050565b611ab580620001d15f395ff3fe608060405234801561000f575f80fd5b50600436106100a7575f3560e01c806353491af51161006f57806353491af51461017b578063715018a6146101975780638da5cb5b146101a15780639592d424146101bf578063f2fde38b146101dd578063ffd740df146101f9576100a7565b80631c53c280146100ab57806320eca391146100df57806322ef64fe146100fd57806327c6f43e1461011b5780634f0f4aa91461014b575b5f80fd5b6100c560048036038101906100c09190610d9a565b610215565b6040516100d6959493929190610eb7565b60405180910390f35b6100e76102f8565b6040516100f49190610f0f565b60405180910390f35b6101056102fe565b6040516101129190610fdf565b60405180910390f35b61013560048036038101906101309190611060565b610354565b6040516101429190610f0f565b60405180910390f35b61016560048036038101906101609190610d9a565b610565565b6040516101729190611184565b60405180910390f35b610195600480360381019061019091906111a4565b6106a2565b005b61019f61084b565b005b6101a961085e565b6040516101b69190611201565b60405180910390f35b6101c7610885565b6040516101d49190610f0f565b60405180910390f35b6101f760048036038101906101f29190611244565b61088e565b005b610213600480360381019061020e9190610d9a565b610912565b005b6003602052805f5260405f205f91509050805f015490806001015f9054906101000a900473ffffffffffffffffffffffffffffffffffffffff169080600201805461025f9061129c565b80601f016020809104026020016040519081016040528092919081815260200182805461028b9061129c565b80156102d65780601f106102ad576101008083540402835291602001916102d6565b820191905f5260205f20905b8154815290600101906020018083116102b957829003601f168201915b505050505090806003015f9054906101000a900460ff16908060040154905085565b60025481565b6060600480548060200260200160405190810160405280929190818152602001828054801561034a57602002820191905f5260205f20905b815481526020019060010190808311610336575b5050505050905090565b5f61035d610ab4565b5f83839050116103a2576040517f08c379a000000000000000000000000000000000000000000000000000000000815260040161039990611316565b60405180910390fd5b60025f8154809291906103b490611361565b9190505590506040518060a001604052808281526020013373ffffffffffffffffffffffffffffffffffffffff16815260200184848080601f0160208091040260200160405190810160405280939291908181526020018383808284375f81840152601f19601f8201169050808301925050505050505081526020016001151581526020014281525060035f8381526020019081526020015f205f820151815f01556020820151816001015f6101000a81548173ffffffffffffffffffffffffffffffffffffffff021916908373ffffffffffffffffffffffffffffffffffffffff16021790555060408201518160020190816104b19190611572565b506060820151816003015f6101000a81548160ff02191690831515021790555060808201518160040155905050600481908060018154018082558091505060019003905f5260205f20015f90919091909150553373ffffffffffffffffffffffffffffffffffffffff16817f72fe24c5bf0e5c5b227d652cd77641bb42e2398e4e376622b7b7b5891c734ae085854260405161054f9392919061167b565b60405180910390a361055f610b03565b92915050565b61056d610d1c565b60035f8381526020019081526020015f206040518060a00160405290815f8201548152602001600182015f9054906101000a900473ffffffffffffffffffffffffffffffffffffffff1673ffffffffffffffffffffffffffffffffffffffff1673ffffffffffffffffffffffffffffffffffffffff1681526020016002820180546105f79061129c565b80601f01602080910402602001604051908101604052809291908181526020018280546106239061129c565b801561066e5780601f106106455761010080835404028352916020019161066e565b820191905f5260205f20905b81548152906001019060200180831161065157829003601f168201915b50505050508152602001600382015f9054906101000a900460ff161515151581526020016004820154815250509050919050565b6106aa610ab4565b5f60035f8581526020019081526020015f209050806003015f9054906101000a900460ff1661070e576040517f08c379a0000000000000000000000000000000000000000000000000000000008152600401610705906116f5565b60405180910390fd5b3373ffffffffffffffffffffffffffffffffffffffff16816001015f9054906101000a900473ffffffffffffffffffffffffffffffffffffffff1673ffffffffffffffffffffffffffffffffffffffff161461079f576040517f08c379a00000000000000000000000000000000000000000000000000000000081526004016107969061175d565b60405180910390fd5b5f83839050116107e4576040517f08c379a00000000000000000000000000000000000000000000000000000000081526004016107db906117c5565b60405180910390fd5b82828260020191826107f79291906117ed565b50428160040181905550837f8e3ebc34307f854f9e606cea35c2fb39777aa387db784832d71cea84430f688e8484426040516108359392919061167b565b60405180910390a250610846610b03565b505050565b610853610b0c565b61085c5f610b93565b565b5f805f9054906101000a900473ffffffffffffffffffffffffffffffffffffffff16905090565b5f600254905090565b610896610b0c565b5f73ffffffffffffffffffffffffffffffffffffffff168173ffffffffffffffffffffffffffffffffffffffff1603610906575f6040517f1e4fbdf70000000000000000000000000000000000000000000000000000000081526004016108fd9190611201565b60405180910390fd5b61090f81610b93565b50565b61091a610ab4565b5f60035f8381526020019081526020015f209050806003015f9054906101000a900460ff1661097e576040517f08c379a000000000000000000000000000000000000000000000000000000000815260040161097590611904565b60405180910390fd5b3373ffffffffffffffffffffffffffffffffffffffff16816001015f9054906101000a900473ffffffffffffffffffffffffffffffffffffffff1673ffffffffffffffffffffffffffffffffffffffff161480610a0d57506109de61085e565b73ffffffffffffffffffffffffffffffffffffffff163373ffffffffffffffffffffffffffffffffffffffff16145b610a4c576040517f08c379a0000000000000000000000000000000000000000000000000000000008152600401610a439061196c565b60405180910390fd5b5f816003015f6101000a81548160ff021916908315150217905550610a7082610c54565b817f3015bcc80829a4c53f456008e01cebb461ea9d125d417abb751518ddcab8544342604051610aa09190610f0f565b60405180910390a250610ab1610b03565b50565b600260015403610af9576040517f08c379a0000000000000000000000000000000000000000000000000000000008152600401610af0906119d4565b60405180910390fd5b6002600181905550565b60018081905550565b610b14610d15565b73ffffffffffffffffffffffffffffffffffffffff16610b3261085e565b73ffffffffffffffffffffffffffffffffffffffff1614610b9157610b55610d15565b6040517f118cdaa7000000000000000000000000000000000000000000000000000000008152600401610b889190611201565b60405180910390fd5b565b5f805f9054906101000a900473ffffffffffffffffffffffffffffffffffffffff169050815f806101000a81548173ffffffffffffffffffffffffffffffffffffffff021916908373ffffffffffffffffffffffffffffffffffffffff1602179055508173ffffffffffffffffffffffffffffffffffffffff168173ffffffffffffffffffffffffffffffffffffffff167f8be0079c531659141344cd1fd0a4f28419497f9722a3daafe3b4186f6b6457e060405160405180910390a35050565b5f60048054905090505f5b81811015610d10578260048281548110610c7c57610c7b6119f2565b5b905f5260205f20015403610cfd576004600183610c999190611a1f565b81548110610caa57610ca96119f2565b5b905f5260205f20015460048281548110610cc757610cc66119f2565b5b905f5260205f2001819055506004805480610ce557610ce4611a52565b5b600190038181905f5260205f20015f90559055610d10565b8080610d0890611361565b915050610c5f565b505050565b5f33905090565b6040518060a001604052805f81526020015f73ffffffffffffffffffffffffffffffffffffffff168152602001606081526020015f151581526020015f81525090565b5f80fd5b5f80fd5b5f819050919050565b610d7981610d67565b8114610d83575f80fd5b50565b5f81359050610d9481610d70565b92915050565b5f60208284031215610daf57610dae610d5f565b5b5f610dbc84828501610d86565b91505092915050565b610dce81610d67565b82525050565b5f73ffffffffffffffffffffffffffffffffffffffff82169050919050565b5f610dfd82610dd4565b9050919050565b610e0d81610df3565b82525050565b5f81519050919050565b5f82825260208201905092915050565b5f5b83811015610e4a578082015181840152602081019050610e2f565b5f8484015250505050565b5f601f19601f8301169050919050565b5f610e6f82610e13565b610e798185610e1d565b9350610e89818560208601610e2d565b610e9281610e55565b840191505092915050565b5f8115159050919050565b610eb181610e9d565b82525050565b5f60a082019050610eca5f830188610dc5565b610ed76020830187610e04565b8181036040830152610ee98186610e65565b9050610ef86060830185610ea8565b610f056080830184610dc5565b9695505050505050565b5f602082019050610f225f830184610dc5565b92915050565b5f81519050919050565b5f82825260208201905092915050565b5f819050602082019050919050565b610f5a81610d67565b82525050565b5f610f6b8383610f51565b60208301905092915050565b5f602082019050919050565b5f610f8d82610f28565b610f978185610f32565b9350610fa283610f42565b805f5b83811015610fd2578151610fb98882610f60565b9750610fc483610f77565b925050600181019050610fa5565b5085935050505092915050565b5f6020820190508181035f830152610ff78184610f83565b905092915050565b5f80fd5b5f80fd5b5f80fd5b5f8083601f8401126110205761101f610fff565b5b8235905067ffffffffffffffff81111561103d5761103c611003565b5b60208301915083600182028301111561105957611058611007565b5b9250929050565b5f806020838503121561107657611075610d5f565b5b5f83013567ffffffffffffffff81111561109357611092610d63565b5b61109f8582860161100b565b92509250509250929050565b6110b481610df3565b82525050565b5f82825260208201905092915050565b5f6110d482610e13565b6110de81856110ba565b93506110ee818560208601610e2d565b6110f781610e55565b840191505092915050565b61110b81610e9d565b82525050565b5f60a083015f8301516111265f860182610f51565b50602083015161113960208601826110ab565b506040830151848203604086015261115182826110ca565b91505060608301516111666060860182611102565b5060808301516111796080860182610f51565b508091505092915050565b5f6020820190508181035f83015261119c8184611111565b905092915050565b5f805f604084860312156111bb576111ba610d5f565b5b5f6111c886828701610d86565b935050602084013567ffffffffffffffff8111156111e9576111e8610d63565b5b6111f58682870161100b565b92509250509250925092565b5f6020820190506112145f830184610e04565b92915050565b61122381610df3565b811461122d575f80fd5b50565b5f8135905061123e8161121a565b92915050565b5f6020828403121561125957611258610d5f565b5b5f61126684828501611230565b91505092915050565b7f4e487b71000000000000000000000000000000000000000000000000000000005f52602260045260245ffd5b5f60028204905060018216806112b357607f821691505b6020821081036112c6576112c561126f565b5b50919050565b7f4d657461646174612055524920697320726571756972656400000000000000005f82015250565b5f611300601883610e1d565b915061130b826112cc565b602082019050919050565b5f6020820190508181035f83015261132d816112f4565b9050919050565b7f4e487b71000000000000000000000000000000000000000000000000000000005f52601160045260245ffd5b5f61136b82610d67565b91507fffffffffffffffffffffffffffffffffffffffffffffffffffffffffffffffff820361139d5761139c611334565b5b600182019050919050565b7f4e487b71000000000000000000000000000000000000000000000000000000005f52604160045260245ffd5b5f819050815f5260205f209050919050565b5f6020601f8301049050919050565b5f82821b905092915050565b5f600883026114317fffffffffffffffffffffffffffffffffffffffffffffffffffffffffffffffff826113f6565b61143b86836113f6565b95508019841693508086168417925050509392505050565b5f819050919050565b5f61147661147161146c84610d67565b611453565b610d67565b9050919050565b5f819050919050565b61148f8361145c565b6114a361149b8261147d565b848454611402565b825550505050565b5f90565b6114b76114ab565b6114c2818484611486565b505050565b5b818110156114e5576114da5f826114af565b6001810190506114c8565b5050565b601f82111561152a576114fb816113d5565b611504846113e7565b81016020851015611513578190505b61152761151f856113e7565b8301826114c7565b50505b505050565b5f82821c905092915050565b5f61154a5f198460080261152f565b1980831691505092915050565b5f611562838361153b565b9150826002028217905092915050565b61157b82610e13565b67ffffffffffffffff811115611594576115936113a8565b5b61159e825461129c565b6115a98282856114e9565b5f60209050601f8311600181146115da575f84156115c8578287015190505b6115d28582611557565b865550611639565b601f1984166115e8866113d5565b5f5b8281101561160f578489015182556001820191506020850194506020810190506115ea565b8683101561162c5784890151611628601f89168261153b565b8355505b6001600288020188555050505b505050505050565b828183375f83830152505050565b5f61165a8385610e1d565b9350611667838584611641565b61167083610e55565b840190509392505050565b5f6040820190508181035f83015261169481858761164f565b90506116a36020830184610dc5565b949350505050565b7f4e6f6465206e6f742061637469766500000000000000000000000000000000005f82015250565b5f6116df600f83610e1d565b91506116ea826116ab565b602082019050919050565b5f6020820190508181035f83015261170c816116d3565b9050919050565b7f4e6f74206e6f6465206f776e65720000000000000000000000000000000000005f82015250565b5f611747600e83610e1d565b915061175282611713565b602082019050919050565b5f6020820190508181035f8301526117748161173b565b9050919050565b7f4d657461646174612055524920726571756972656400000000000000000000005f82015250565b5f6117af601583610e1d565b91506117ba8261177b565b602082019050919050565b5f6020820190508181035f8301526117dc816117a3565b9050919050565b5f82905092915050565b6117f783836117e3565b67ffffffffffffffff8111156118105761180f6113a8565b5b61181a825461129c565b6118258282856114e9565b5f601f831160018114611852575f8415611840578287013590505b61184a8582611557565b8655506118b1565b601f198416611860866113d5565b5f5b8281101561188757848901358255600182019150602085019450602081019050611862565b868310156118a457848901356118a0601f89168261153b565b8355505b6001600288020188555050505b50505050505050565b7f4e6f646520616c726561647920696e61637469766500000000000000000000005f82015250565b5f6118ee601583610e1d565b91506118f9826118ba565b602082019050919050565b5f6020820190508181035f83015261191b816118e2565b9050919050565b7f556e617574686f72697a656400000000000000000000000000000000000000005f82015250565b5f611956600c83610e1d565b915061196182611922565b602082019050919050565b5f6020820190508181035f8301526119838161194a565b9050919050565b7f5265656e7472616e637947756172643a207265656e7472616e742063616c6c005f82015250565b5f6119be601f83610e1d565b91506119c98261198a565b602082019050919050565b5f6020820190508181035f8301526119eb816119b2565b9050919050565b7f4e487b71000000000000000000000000000000000000000000000000000000005f52603260045260245ffd5b5f611a2982610d67565b9150611a3483610d67565b9250828203905081811115611a4c57611a4b611334565b5b92915050565b7f4e487b71000000000000000000000000000000000000000000000000000000005f52603160045260245ffdfea2646970667358221220a5459fbeecf109f10cfaba66390c27b4b78637d59e12ccabc0cf3dc7ec7db33564736f6c63430008140033",
					"opcodes": "PUSH1 0x80 PUSH1 0x40 MSTORE CALLVALUE DUP1 ISZERO PUSH3 0x10 JUMPI PUSH0 DUP1 REVERT JUMPDEST POP CALLER PUSH0 PUSH20 0xFFFFFFFFFFFFFFFFFFFFFFFFFFFFFFFFFFFFFFFF AND DUP2 PUSH20 0xFFFFFFFFFFFFFFFFFFFFFFFFFFFFFFFFFFFFFFFF AND SUB PUSH3 0x85 JUMPI PUSH0 PUSH1 0x40 MLOAD PUSH32 0x1E4FBDF700000000000000000000000000000000000000000000000000000000 DUP2 MSTORE PUSH1 0x4 ADD PUSH3 0x7C SWAP2 SWAP1 PUSH3 0x1A8 JUMP JUMPDEST PUSH1 0x40 MLOAD DUP1 SWAP2 SUB SWAP1 REVERT JUMPDEST PUSH3 0x96 DUP2 PUSH3 0xA4 PUSH1 0x20 SHL PUSH1 0x20 SHR JUMP JUMPDEST POP PUSH1 0x1 DUP1 DUP2 SWAP1 SSTORE POP PUSH3 0x1C3 JUMP JUMPDEST PUSH0 DUP1 PUSH0 SWAP1 SLOAD SWAP1 PUSH2 0x100 EXP SWAP1 DIV PUSH20 0xFFFFFFFFFFFFFFFFFFFFFFFFFFFFFFFFFFFFFFFF AND SWAP1 POP DUP2 PUSH0 DUP1 PUSH2 0x100 EXP DUP2 SLOAD DUP2 PUSH20 0xFFFFFFFFFFFFFFFFFFFFFFFFFFFFFFFFFFFFFFFF MUL NOT AND SWAP1 DUP4 PUSH20 0xFFFFFFFFFFFFFFFFFFFFFFFFFFFFFFFFFFFFFFFF AND MUL OR SWAP1 SSTORE POP DUP2 PUSH20 0xFFFFFFFFFFFFFFFFFFFFFFFFFFFFFFFFFFFFFFFF AND DUP2 PUSH20 0xFFFFFFFFFFFFFFFFFFFFFFFFFFFFFFFFFFFFFFFF AND PUSH32 0x8BE0079C531659141344CD1FD0A4F28419497F9722A3DAAFE3B4186F6B6457E0 PUSH1 0x40 MLOAD PUSH1 0x40 MLOAD DUP1 SWAP2 SUB SWAP1 LOG3 POP POP JUMP JUMPDEST PUSH0 PUSH20 0xFFFFFFFFFFFFFFFFFFFFFFFFFFFFFFFFFFFFFFFF DUP3 AND SWAP1 POP SWAP2 SWAP1 POP JUMP JUMPDEST PUSH0 PUSH3 0x190 DUP3 PUSH3 0x165 JUMP JUMPDEST SWAP1 POP SWAP2 SWAP1 POP JUMP JUMPDEST PUSH3 0x1A2 DUP2 PUSH3 0x184 JUMP JUMPDEST DUP3 MSTORE POP POP JUMP JUMPDEST PUSH0 PUSH1 0x20 DUP3 ADD SWAP1 POP PUSH3 0x1BD PUSH0 DUP4 ADD DUP5 PUSH3 0x197 JUMP JUMPDEST SWAP3 SWAP2 POP POP JUMP JUMPDEST PUSH2 0x1AB5 DUP1 PUSH3 0x1D1 PUSH0 CODECOPY PUSH0 RETURN INVALID PUSH1 0x80 PUSH1 0x40 MSTORE CALLVALUE DUP1 ISZERO PUSH2 0xF JUMPI PUSH0 DUP1 REVERT JUMPDEST POP PUSH1 0x4 CALLDATASIZE LT PUSH2 0xA7 JUMPI PUSH0 CALLDATALOAD PUSH1 0xE0 SHR DUP1 PUSH4 0x53491AF5 GT PUSH2 0x6F JUMPI DUP1 PUSH4 0x53491AF5 EQ PUSH2 0x17B JUMPI DUP1 PUSH4 0x715018A6 EQ PUSH2 0x197 JUMPI DUP1 PUSH4 0x8DA5CB5B EQ PUSH2 0x1A1 JUMPI DUP1 PUSH4 0x9592D424 EQ PUSH2 0x1BF JUMPI DUP1 PUSH4 0xF2FDE38B EQ PUSH2 0x1DD JUMPI DUP1 PUSH4 0xFFD740DF EQ PUSH2 0x1F9 JUMPI PUSH2 0xA7 JUMP JUMPDEST DUP1 PUSH4 0x1C53C280 EQ PUSH2 0xAB JUMPI DUP1 PUSH4 0x20ECA391 EQ PUSH2 0xDF JUMPI DUP1 PUSH4 0x22EF64FE EQ PUSH2 0xFD JUMPI DUP1 PUSH4 0x27C6F43E EQ PUSH2 0x11B JUMPI DUP1 PUSH4 0x4F0F4AA9 EQ PUSH2 0x14B JUMPI JUMPDEST PUSH0 DUP1 REVERT JUMPDEST PUSH2 0xC5 PUSH1 0x4 DUP1 CALLDATASIZE SUB DUP2 ADD SWAP1 PUSH2 0xC0 SWAP2 SWAP1 PUSH2 0xD9A JUMP JUMPDEST PUSH2 0x215 JUMP JUMPDEST PUSH1 0x40 MLOAD PUSH2 0xD6 SWAP6 SWAP5 SWAP4 SWAP3 SWAP2 SWAP1 PUSH2 0xEB7 JUMP JUMPDEST PUSH1 0x40 MLOAD DUP1 SWAP2 SUB SWAP1 RETURN JUMPDEST PUSH2 0xE7 PUSH2 0x2F8 JUMP JUMPDEST PUSH1 0x40 MLOAD PUSH2 0xF4 SWAP2 SWAP1 PUSH2 0xF0F JUMP JUMPDEST PUSH1 0x40 MLOAD DUP1 SWAP2 SUB SWAP1 RETURN JUMPDEST PUSH2 0x105 PUSH2 0x2FE JUMP JUMPDEST PUSH1 0x40 MLOAD PUSH2 0x112 SWAP2 SWAP1 PUSH2 0xFDF JUMP JUMPDEST PUSH1 0x40 MLOAD DUP1 SWAP2 SUB SWAP1 RETURN JUMPDEST PUSH2 0x135 PUSH1 0x4 DUP1 CALLDATASIZE SUB DUP2 ADD SWAP1 PUSH2 0x130 SWAP2 SWAP1 PUSH2 0x1060 JUMP JUMPDEST PUSH2 0x354 JUMP JUMPDEST PUSH1 0x40 MLOAD PUSH2 0x142 SWAP2 SWAP1 PUSH2 0xF0F JUMP JUMPDEST PUSH1 0x40 MLOAD DUP1 SWAP2 SUB SWAP1 RETURN JUMPDEST PUSH2 0x165 PUSH1 0x4 DUP1 CALLDATASIZE SUB DUP2 ADD SWAP1 PUSH2 0x160 SWAP2 SWAP1 PUSH2 0xD9A JUMP JUMPDEST PUSH2 0x565 JUMP JUMPDEST PUSH1 0x40 MLOAD PUSH2 0x172 SWAP2 SWAP1 PUSH2 0x1184 JUMP JUMPDEST PUSH1 0x40 MLOAD DUP1 SWAP2 SUB SWAP1 RETURN JUMPDEST PUSH2 0x195 PUSH1 0x4 DUP1 CALLDATASIZE SUB DUP2 ADD SWAP1 PUSH2 0x190 SWAP2 SWAP1 PUSH2 0x11A4 JUMP JUMPDEST PUSH2 0x6A2 JUMP JUMPDEST STOP JUMPDEST PUSH2 0x19F PUSH2 0x84B JUMP JUMPDEST STOP JUMPDEST PUSH2 0x1A9 PUSH2 0x85E JUMP JUMPDEST PUSH1 0x40 MLOAD PUSH2 0x1B6 SWAP2 SWAP1 PUSH2 0x1201 JUMP JUMPDEST PUSH1 0x40 MLOAD DUP1 SWAP2 SUB SWAP1 RETURN JUMPDEST PUSH2 0x1C7 PUSH2 0x885 JUMP JUMPDEST PUSH1 0x40 MLOAD PUSH2 0x1D4 SWAP2 SWAP1 PUSH2 0xF0F JUMP JUMPDEST PUSH1 0x40 MLOAD DUP1 SWAP2 SUB SWAP1 RETURN JUMPDEST PUSH2 0x1F7 PUSH1 0x4 DUP1 CALLDATASIZE SUB DUP2 ADD SWAP1 PUSH2 0x1F2 SWAP2 SWAP1 PUSH2 0x1244 JUMP JUMPDEST PUSH2 0x88E JUMP JUMPDEST STOP JUMPDEST PUSH2 0x213 PUSH1 0x4 DUP1 CALLDATASIZE SUB DUP2 ADD SWAP1 PUSH2 0x20E SWAP2 SWAP1 PUSH2 0xD9A JUMP JUMPDEST PUSH2 0x912 JUMP JUMPDEST STOP JUMPDEST PUSH1 0x3 PUSH1 0x20 MSTORE DUP1 PUSH0 MSTORE PUSH1 0x40 PUSH0 KECCAK256 PUSH0 SWAP2 POP SWAP1 POP DUP1 PUSH0 ADD SLOAD SWAP1 DUP1 PUSH1 0x1 ADD PUSH0 SWAP1 SLOAD SWAP1 PUSH2 0x100 EXP SWAP1 DIV PUSH20 0xFFFFFFFFFFFFFFFFFFFFFFFFFFFFFFFFFFFFFFFF AND SWAP1 DUP1 PUSH1 0x2 ADD DUP1 SLOAD PUSH2 0x25F SWAP1 PUSH2 0x129C JUMP JUMPDEST DUP1 PUSH1 0x1F ADD PUSH1 0x20 DUP1 SWAP2 DIV MUL PUSH1 0x20 ADD PUSH1 0x40 MLOAD SWAP1 DUP2 ADD PUSH1 0x40 MSTORE DUP1 SWAP3 SWAP2 SWAP1 DUP2 DUP2 MSTORE PUSH1 0x20 ADD DUP3 DUP1 SLOAD PUSH2 0x28B SWAP1 PUSH2 0x129C JUMP JUMPDEST DUP1 ISZERO PUSH2 0x2D6 JUMPI DUP1 PUSH1 0x1F LT PUSH2 0x2AD JUMPI PUSH2 0x100 DUP1 DUP4 SLOAD DIV MUL DUP4 MSTORE SWAP2 PUSH1 0x20 ADD SWAP2 PUSH2 0x2D6 JUMP JUMPDEST DUP3 ADD SWAP2 SWAP1 PUSH0 MSTORE PUSH1 0x20 PUSH0 KECCAK256 SWAP1 JUMPDEST DUP2 SLOAD DUP2 MSTORE SWAP1 PUSH1 0x1 ADD SWAP1 PUSH1 0x20 ADD DUP1 DUP4 GT PUSH2 0x2B9 JUMPI DUP3 SWAP1 SUB PUSH1 0x1F AND DUP3 ADD SWAP2 JUMPDEST POP POP POP POP POP SWAP1 DUP1 PUSH1 0x3 ADD PUSH0 SWAP1 SLOAD SWAP1 PUSH2 0x100 EXP SWAP1 DIV PUSH1 0xFF AND SWAP1 DUP1 PUSH1 0x4 ADD SLOAD SWAP1 POP DUP6 JUMP JUMPDEST PUSH1 0x2 SLOAD DUP2 JUMP JUMPDEST PUSH1 0x60 PUSH1 0x4 DUP1 SLOAD DUP1 PUSH1 0x20 MUL PUSH1 0x20 ADD PUSH1 0x40 MLOAD SWAP1 DUP2 ADD PUSH1 0x40 MSTORE DUP1 SWAP3 SWAP2 SWAP1 DUP2 DUP2 MSTORE PUSH1 0x20 ADD DUP3 DUP1 SLOAD DUP1 ISZERO PUSH2 0x34A JUMPI PUSH1 0x20 MUL DUP3 ADD SWAP2 SWAP1 PUSH0 MSTORE PUSH1 0x20 PUSH0 KECCAK256 SWAP1 JUMPDEST DUP2 SLOAD DUP2 MSTORE PUSH1 0x20 ADD SWAP1 PUSH1 0x1 ADD SWAP1 DUP1 DUP4 GT PUSH2 0x336 JUMPI JUMPDEST POP POP POP POP POP SWAP1 POP SWAP1 JUMP JUMPDEST PUSH0 PUSH2 0x35D PUSH2 0xAB4 JUMP JUMPDEST PUSH0 DUP4 DUP4 SWAP1 POP GT PUSH2 0x3A2 JUMPI PUSH1 0x40 MLOAD PUSH32 0x8C379A000000000000000000000000000000000000000000000000000000000 DUP2 MSTORE PUSH1 0x4 ADD PUSH2 0x399 SWAP1 PUSH2 0x1316 JUMP JUMPDEST PUSH1 0x40 MLOAD DUP1 SWAP2 SUB SWAP1 REVERT JUMPDEST PUSH1 0x2 PUSH0 DUP2 SLOAD DUP1 SWAP3 SWAP2 SWAP1 PUSH2 0x3B4 SWAP1 PUSH2 0x1361 JUMP JUMPDEST SWAP2 SWAP1 POP SSTORE SWAP1 POP PUSH1 0x40 MLOAD DUP1 PUSH1 0xA0 ADD PUSH1 0x40 MSTORE DUP1 DUP3 DUP2 MSTORE PUSH1 0x20 ADD CALLER PUSH20 0xFFFFFFFFFFFFFFFFFFFFFFFFFFFFFFFFFFFFFFFF AND DUP2 MSTORE PUSH1 0x20 ADD DUP5 DUP5 DUP1 DUP1 PUSH1 0x1F ADD PUSH1 0x20 DUP1 SWAP2 DIV MUL PUSH1 0x20 ADD PUSH1 0x40 MLOAD SWAP1 DUP2 ADD PUSH1 0x40 MSTORE DUP1 SWAP4 SWAP3 SWAP2 SWAP1 DUP2 DUP2 MSTORE PUSH1 0x20 ADD DUP4 DUP4 DUP1 DUP3 DUP5 CALLDATACOPY PUSH0 DUP2 DUP5 ADD MSTORE PUSH1 0x1F NOT PUSH1 0x1F DUP3 ADD AND SWAP1 POP DUP1 DUP4 ADD SWAP3 POP POP POP POP POP POP POP DUP2 MSTORE PUSH1 0x20 ADD PUSH1 0x1 ISZERO ISZERO DUP2 MSTORE PUSH1 0x20 ADD TIMESTAMP DUP2 MSTORE POP PUSH1 0x3 PUSH0 DUP4 DUP2 MSTORE PUSH1 0x20 ADD SWAP1 DUP2 MSTORE PUSH1 0x20 ADD PUSH0 KECCAK256 PUSH0 DUP3 ADD MLOAD DUP2 PUSH0 ADD SSTORE PUSH1 0x20 DUP3 ADD MLOAD DUP2 PUSH1 0x1 ADD PUSH0 PUSH2 0x100 EXP DUP2 SLOAD DUP2 PUSH20 0xFFFFFFFFFFFFFFFFFFFFFFFFFFFFFFFFFFFFFFFF MUL NOT AND SWAP1 DUP4 PUSH20 0xFFFFFFFFFFFFFFFFFFFFFFFFFFFFFFFFFFFFFFFF AND MUL OR SWAP1 SSTORE POP PUSH1 0x40 DUP3 ADD MLOAD DUP2 PUSH1 0x2 ADD SWAP1 DUP2 PUSH2 0x4B1 SWAP2 SWAP1 PUSH2 0x1572 JUMP JUMPDEST POP PUSH1 0x60 DUP3 ADD MLOAD DUP2 PUSH1 0x3 ADD PUSH0 PUSH2 0x100 EXP DUP2 SLOAD DUP2 PUSH1 0xFF MUL NOT AND SWAP1 DUP4 ISZERO ISZERO MUL OR SWAP1 SSTORE POP PUSH1 0x80 DUP3 ADD MLOAD DUP2 PUSH1 0x4 ADD SSTORE SWAP1 POP POP PUSH1 0x4 DUP2 SWAP1 DUP1 PUSH1 0x1 DUP2 SLOAD ADD DUP1 DUP3 SSTORE DUP1 SWAP2 POP POP PUSH1 0x1 SWAP1 SUB SWAP1 PUSH0 MSTORE PUSH1 0x20 PUSH0 KECCAK256 ADD PUSH0 SWAP1 SWAP2 SWAP1 SWAP2 SWAP1 SWAP2 POP SSTORE CALLER PUSH20 0xFFFFFFFFFFFFFFFFFFFFFFFFFFFFFFFFFFFFFFFF AND DUP2 PUSH32 0x72FE24C5BF0E5C5B227D652CD77641BB42E2398E4E376622B7B7B5891C734AE0 DUP6 DUP6 TIMESTAMP PUSH1 0x40 MLOAD PUSH2 0x54F SWAP4 SWAP3 SWAP2 SWAP1 PUSH2 0x167B JUMP JUMPDEST PUSH1 0x40 MLOAD DUP1 SWAP2 SUB SWAP1 LOG3 PUSH2 0x55F PUSH2 0xB03 JUMP JUMPDEST SWAP3 SWAP2 POP POP JUMP JUMPDEST PUSH2 0x56D PUSH2 0xD1C JUMP JUMPDEST PUSH1 0x3 PUSH0 DUP4 DUP2 MSTORE PUSH1 0x20 ADD SWAP1 DUP2 MSTORE PUSH1 0x20 ADD PUSH0 KECCAK256 PUSH1 0x40 MLOAD DUP1 PUSH1 0xA0 ADD PUSH1 0x40 MSTORE SWAP1 DUP2 PUSH0 DUP3 ADD SLOAD DUP2 MSTORE PUSH1 0x20 ADD PUSH1 0x1 DUP3 ADD PUSH0 SWAP1 SLOAD SWAP1 PUSH2 0x100 EXP SWAP1 DIV PUSH20 0xFFFFFFFFFFFFFFFFFFFFFFFFFFFFFFFFFFFFFFFF AND PUSH20 0xFFFFFFFFFFFFFFFFFFFFFFFFFFFFFFFFFFFFFFFF AND PUSH20 0xFFFFFFFFFFFFFFFFFFFFFFFFFFFFFFFFFFFFFFFF AND DUP2 MSTORE PUSH1 0x20 ADD PUSH1 0x2 DUP3 ADD DUP1 SLOAD PUSH2 0x5F7 SWAP1 PUSH2 0x129C JUMP JUMPDEST DUP1 PUSH1 0x1F ADD PUSH1 0x20 DUP1 SWAP2 DIV MUL PUSH1 0x20 ADD PUSH1 0x40 MLOAD SWAP1 DUP2 ADD PUSH1 0x40 MSTORE DUP1 SWAP3 SWAP2 SWAP1 DUP2 DUP2 MSTORE PUSH1 0x20 ADD DUP3 DUP1 SLOAD PUSH2 0x623 SWAP1 PUSH2 0x129C JUMP JUMPDEST DUP1 ISZERO PUSH2 0x66E JUMPI DUP1 PUSH1 0x1F LT PUSH2 0x645 JUMPI PUSH2 0x100 DUP1 DUP4 SLOAD DIV MUL DUP4 MSTORE SWAP2 PUSH1 0x20 ADD SWAP2 PUSH2 0x66E JUMP JUMPDEST DUP3 ADD SWAP2 SWAP1 PUSH0 MSTORE PUSH1 0x20 PUSH0 KECCAK256 SWAP1 JUMPDEST DUP2 SLOAD DUP2 MSTORE SWAP1 PUSH1 0x1 ADD SWAP1 PUSH1 0x20 ADD DUP1 DUP4 GT PUSH2 0x651 JUMPI DUP3 SWAP1 SUB PUSH1 0x1F AND DUP3 ADD SWAP2 JUMPDEST POP POP POP POP POP DUP2 MSTORE PUSH1 0x20 ADD PUSH1 0x3 DUP3 ADD PUSH0 SWAP1 SLOAD SWAP1 PUSH2 0x100 EXP SWAP1 DIV PUSH1 0xFF AND ISZERO ISZERO ISZERO ISZERO DUP2 MSTORE PUSH1 0x20 ADD PUSH1 0x4 DUP3 ADD SLOAD DUP2 MSTORE POP POP SWAP1 POP SWAP2 SWAP1 POP JUMP JUMPDEST PUSH2 0x6AA PUSH2 0xAB4 JUMP JUMPDEST PUSH0 PUSH1 0x3 PUSH0 DUP6 DUP2 MSTORE PUSH1 0x20 ADD SWAP1 DUP2 MSTORE PUSH1 0x20 ADD PUSH0 KECCAK256 SWAP1 POP DUP1 PUSH1 0x3 ADD PUSH0 SWAP1 SLOAD SWAP1 PUSH2 0x100 EXP SWAP1 DIV PUSH1 0xFF AND PUSH2 0x70E JUMPI PUSH1 0x40 MLOAD PUSH32 0x8C379A000000000000000000000000000000000000000000000000000000000 DUP2 MSTORE PUSH1 0x4 ADD PUSH2 0x705 SWAP1 PUSH2 0x16F5 JUMP JUMPDEST PUSH1 0x40 MLOAD DUP1 SWAP2 SUB SWAP1 REVERT JUMPDEST CALLER PUSH20 0xFFFFFFFFFFFFFFFFFFFFFFFFFFFFFFFFFFFFFFFF AND DUP2 PUSH1 0x1 ADD PUSH0 SWAP1 SLOAD SWAP1 PUSH2 0x100 EXP SWAP1 DIV PUSH20 0xFFFFFFFFFFFFFFFFFFFFFFFFFFFFFFFFFFFFFFFF AND PUSH20 0xFFFFFFFFFFFFFFFFFFFFFFFFFFFFFFFFFFFFFFFF AND EQ PUSH2 0x79F JUMPI PUSH1 0x40 MLOAD PUSH32 0x8C379A000000000000000000000000000000000000000000000000000000000 DUP2 MSTORE PUSH1 0x4 ADD PUSH2 0x796 SWAP1 PUSH2 0x175D JUMP JUMPDEST PUSH1 0x40 MLOAD DUP1 SWAP2 SUB SWAP1 REVERT JUMPDEST PUSH0 DUP4 DUP4 SWAP1 POP GT PUSH2 0x7E4 JUMPI PUSH1 0x40 MLOAD PUSH32 0x8C379A000000000000000000000000000000000000000000000000000000000 DUP2 MSTORE PUSH1 0x4 ADD PUSH2 0x7DB SWAP1 PUSH2 0x17C5 JUMP JUMPDEST PUSH1 0x40 MLOAD DUP1 SWAP2 SUB SWAP1 REVERT JUMPDEST DUP3 DUP3 DUP3 PUSH1 0x2 ADD SWAP2 DUP3 PUSH2 0x7F7 SWAP3 SWAP2 SWAP1 PUSH2 0x17ED JUMP JUMPDEST POP TIMESTAMP DUP2 PUSH1 0x4 ADD DUP2 SWAP1 SSTORE POP DUP4 PUSH32 0x8E3EBC34307F854F9E606CEA35C2FB39777AA387DB784832D71CEA84430F688E DUP5 DUP5 TIMESTAMP PUSH1 0x40 MLOAD PUSH2 0x835 SWAP4 SWAP3 SWAP2 SWAP1 PUSH2 0x167B JUMP JUMPDEST PUSH1 0x40 MLOAD DUP1 SWAP2 SUB SWAP1 LOG2 POP PUSH2 0x846 PUSH2 0xB03 JUMP JUMPDEST POP POP POP JUMP JUMPDEST PUSH2 0x853 PUSH2 0xB0C JUMP JUMPDEST PUSH2 0x85C PUSH0 PUSH2 0xB93 JUMP JUMPDEST JUMP JUMPDEST PUSH0 DUP1 PUSH0 SWAP1 SLOAD SWAP1 PUSH2 0x100 EXP SWAP1 DIV PUSH20 0xFFFFFFFFFFFFFFFFFFFFFFFFFFFFFFFFFFFFFFFF AND SWAP1 POP SWAP1 JUMP JUMPDEST PUSH0 PUSH1 0x2 SLOAD SWAP1 POP SWAP1 JUMP JUMPDEST PUSH2 0x896 PUSH2 0xB0C JUMP JUMPDEST PUSH0 PUSH20 0xFFFFFFFFFFFFFFFFFFFFFFFFFFFFFFFFFFFFFFFF AND DUP2 PUSH20 0xFFFFFFFFFFFFFFFFFFFFFFFFFFFFFFFFFFFFFFFF AND SUB PUSH2 0x906 JUMPI PUSH0 PUSH1 0x40 MLOAD PUSH32 0x1E4FBDF700000000000000000000000000000000000000000000000000000000 DUP2 MSTORE PUSH1 0x4 ADD PUSH2 0x8FD SWAP2 SWAP1 PUSH2 0x1201 JUMP JUMPDEST PUSH1 0x40 MLOAD DUP1 SWAP2 SUB SWAP1 REVERT JUMPDEST PUSH2 0x90F DUP2 PUSH2 0xB93 JUMP JUMPDEST POP JUMP JUMPDEST PUSH2 0x91A PUSH2 0xAB4 JUMP JUMPDEST PUSH0 PUSH1 0x3 PUSH0 DUP4 DUP2 MSTORE PUSH1 0x20 ADD SWAP1 DUP2 MSTORE PUSH1 0x20 ADD PUSH0 KECCAK256 SWAP1 POP DUP1 PUSH1 0x3 ADD PUSH0 SWAP1 SLOAD SWAP1 PUSH2 0x100 EXP SWAP1 DIV PUSH1 0xFF AND PUSH2 0x97E JUMPI PUSH1 0x40 MLOAD PUSH32 0x8C379A000000000000000000000000000000000000000000000000000000000 DUP2 MSTORE PUSH1 0x4 ADD PUSH2 0x975 SWAP1 PUSH2 0x1904 JUMP JUMPDEST PUSH1 0x40 MLOAD DUP1 SWAP2 SUB SWAP1 REVERT JUMPDEST CALLER PUSH20 0xFFFFFFFFFFFFFFFFFFFFFFFFFFFFFFFFFFFFFFFF AND DUP2 PUSH1 0x1 ADD PUSH0 SWAP1 SLOAD SWAP1 PUSH2 0x100 EXP SWAP1 DIV PUSH20 0xFFFFFFFFFFFFFFFFFFFFFFFFFFFFFFFFFFFFFFFF AND PUSH20 0xFFFFFFFFFFFFFFFFFFFFFFFFFFFFFFFFFFFFFFFF AND EQ DUP1 PUSH2 0xA0D JUMPI POP PUSH2 0x9DE PUSH2 0x85E JUMP JUMPDEST PUSH20 0xFFFFFFFFFFFFFFFFFFFFFFFFFFFFFFFFFFFFFFFF AND CALLER PUSH20 0xFFFFFFFFFFFFFFFFFFFFFFFFFFFFFFFFFFFFFFFF AND EQ JUMPDEST PUSH2 0xA4C JUMPI PUSH1 0x40 MLOAD PUSH32 0x8C379A000000000000000000000000000000000000000000000000000000000 DUP2 MSTORE PUSH1 0x4 ADD PUSH2 0xA43 SWAP1 PUSH2 0x196C JUMP JUMPDEST PUSH1 0x40 MLOAD DUP1 SWAP2 SUB SWAP1 REVERT JUMPDEST PUSH0 DUP2 PUSH1 0x3 ADD PUSH0 PUSH2 0x100 EXP DUP2 SLOAD DUP2 PUSH1 0xFF MUL NOT AND SWAP1 DUP4 ISZERO ISZERO MUL OR SWAP1 SSTORE POP PUSH2 0xA70 DUP3 PUSH2 0xC54 JUMP JUMPDEST DUP2 PUSH32 0x3015BCC80829A4C53F456008E01CEBB461EA9D125D417ABB751518DDCAB85443 TIMESTAMP PUSH1 0x40 MLOAD PUSH2 0xAA0 SWAP2 SWAP1 PUSH2 0xF0F JUMP JUMPDEST PUSH1 0x40 MLOAD DUP1 SWAP2 SUB SWAP1 LOG2 POP PUSH2 0xAB1 PUSH2 0xB03 JUMP JUMPDEST POP JUMP JUMPDEST PUSH1 0x2 PUSH1 0x1 SLOAD SUB PUSH2 0xAF9 JUMPI PUSH1 0x40 MLOAD PUSH32 0x8C379A000000000000000000000000000000000000000000000000000000000 DUP2 MSTORE PUSH1 0x4 ADD PUSH2 0xAF0 SWAP1 PUSH2 0x19D4 JUMP JUMPDEST PUSH1 0x40 MLOAD DUP1 SWAP2 SUB SWAP1 REVERT JUMPDEST PUSH1 0x2 PUSH1 0x1 DUP2 SWAP1 SSTORE POP JUMP JUMPDEST PUSH1 0x1 DUP1 DUP2 SWAP1 SSTORE POP JUMP JUMPDEST PUSH2 0xB14 PUSH2 0xD15 JUMP JUMPDEST PUSH20 0xFFFFFFFFFFFFFFFFFFFFFFFFFFFFFFFFFFFFFFFF AND PUSH2 0xB32 PUSH2 0x85E JUMP JUMPDEST PUSH20 0xFFFFFFFFFFFFFFFFFFFFFFFFFFFFFFFFFFFFFFFF AND EQ PUSH2 0xB91 JUMPI PUSH2 0xB55 PUSH2 0xD15 JUMP JUMPDEST PUSH1 0x40 MLOAD PUSH32 0x118CDAA700000000000000000000000000000000000000000000000000000000 DUP2 MSTORE PUSH1 0x4 ADD PUSH2 0xB88 SWAP2 SWAP1 PUSH2 0x1201 JUMP JUMPDEST PUSH1 0x40 MLOAD DUP1 SWAP2 SUB SWAP1 REVERT JUMPDEST JUMP JUMPDEST PUSH0 DUP1 PUSH0 SWAP1 SLOAD SWAP1 PUSH2 0x100 EXP SWAP1 DIV PUSH20 0xFFFFFFFFFFFFFFFFFFFFFFFFFFFFFFFFFFFFFFFF AND SWAP1 POP DUP2 PUSH0 DUP1 PUSH2 0x100 EXP DUP2 SLOAD DUP2 PUSH20 0xFFFFFFFFFFFFFFFFFFFFFFFFFFFFFFFFFFFFFFFF MUL NOT AND SWAP1 DUP4 PUSH20 0xFFFFFFFFFFFFFFFFFFFFFFFFFFFFFFFFFFFFFFFF AND MUL OR SWAP1 SSTORE POP DUP2 PUSH20 0xFFFFFFFFFFFFFFFFFFFFFFFFFFFFFFFFFFFFFFFF AND DUP2 PUSH20 0xFFFFFFFFFFFFFFFFFFFFFFFFFFFFFFFFFFFFFFFF AND PUSH32 0x8BE0079C531659141344CD1FD0A4F28419497F9722A3DAAFE3B4186F6B6457E0 PUSH1 0x40 MLOAD PUSH1 0x40 MLOAD DUP1 SWAP2 SUB SWAP1 LOG3 POP POP JUMP JUMPDEST PUSH0 PUSH1 0x4 DUP1 SLOAD SWAP1 POP SWAP1 POP PUSH0 JUMPDEST DUP2 DUP2 LT ISZERO PUSH2 0xD10 JUMPI DUP3 PUSH1 0x4 DUP3 DUP2 SLOAD DUP2 LT PUSH2 0xC7C JUMPI PUSH2 0xC7B PUSH2 0x19F2 JUMP JUMPDEST JUMPDEST SWAP1 PUSH0 MSTORE PUSH1 0x20 PUSH0 KECCAK256 ADD SLOAD SUB PUSH2 0xCFD JUMPI PUSH1 0x4 PUSH1 0x1 DUP4 PUSH2 0xC99 SWAP2 SWAP1 PUSH2 0x1A1F JUMP JUMPDEST DUP2 SLOAD DUP2 LT PUSH2 0xCAA JUMPI PUSH2 0xCA9 PUSH2 0x19F2 JUMP JUMPDEST JUMPDEST SWAP1 PUSH0 MSTORE PUSH1 0x20 PUSH0 KECCAK256 ADD SLOAD PUSH1 0x4 DUP3 DUP2 SLOAD DUP2 LT PUSH2 0xCC7 JUMPI PUSH2 0xCC6 PUSH2 0x19F2 JUMP JUMPDEST JUMPDEST SWAP1 PUSH0 MSTORE PUSH1 0x20 PUSH0 KECCAK256 ADD DUP2 SWAP1 SSTORE POP PUSH1 0x4 DUP1 SLOAD DUP1 PUSH2 0xCE5 JUMPI PUSH2 0xCE4 PUSH2 0x1A52 JUMP JUMPDEST JUMPDEST PUSH1 0x1 SWAP1 SUB DUP2 DUP2 SWAP1 PUSH0 MSTORE PUSH1 0x20 PUSH0 KECCAK256 ADD PUSH0 SWAP1 SSTORE SWAP1 SSTORE PUSH2 0xD10 JUMP JUMPDEST DUP1 DUP1 PUSH2 0xD08 SWAP1 PUSH2 0x1361 JUMP JUMPDEST SWAP2 POP POP PUSH2 0xC5F JUMP JUMPDEST POP POP POP JUMP JUMPDEST PUSH0 CALLER SWAP1 POP SWAP1 JUMP JUMPDEST PUSH1 0x40 MLOAD DUP1 PUSH1 0xA0 ADD PUSH1 0x40 MSTORE DUP1 PUSH0 DUP2 MSTORE PUSH1 0x20 ADD PUSH0 PUSH20 0xFFFFFFFFFFFFFFFFFFFFFFFFFFFFFFFFFFFFFFFF AND DUP2 MSTORE PUSH1 0x20 ADD PUSH1 0x60 DUP2 MSTORE PUSH1 0x20 ADD PUSH0 ISZERO ISZERO DUP2 MSTORE PUSH1 0x20 ADD PUSH0 DUP2 MSTORE POP SWAP1 JUMP JUMPDEST PUSH0 DUP1 REVERT JUMPDEST PUSH0 DUP1 REVERT JUMPDEST PUSH0 DUP2 SWAP1 POP SWAP2 SWAP1 POP JUMP JUMPDEST PUSH2 0xD79 DUP2 PUSH2 0xD67 JUMP JUMPDEST DUP2 EQ PUSH2 0xD83 JUMPI PUSH0 DUP1 REVERT JUMPDEST POP JUMP JUMPDEST PUSH0 DUP2 CALLDATALOAD SWAP1 POP PUSH2 0xD94 DUP2 PUSH2 0xD70 JUMP JUMPDEST SWAP3 SWAP2 POP POP JUMP JUMPDEST PUSH0 PUSH1 0x20 DUP3 DUP5 SUB SLT ISZERO PUSH2 0xDAF JUMPI PUSH2 0xDAE PUSH2 0xD5F JUMP JUMPDEST JUMPDEST PUSH0 PUSH2 0xDBC DUP5 DUP3 DUP6 ADD PUSH2 0xD86 JUMP JUMPDEST SWAP2 POP POP SWAP3 SWAP2 POP POP JUMP JUMPDEST PUSH2 0xDCE DUP2 PUSH2 0xD67 JUMP JUMPDEST DUP3 MSTORE POP POP JUMP JUMPDEST PUSH0 PUSH20 0xFFFFFFFFFFFFFFFFFFFFFFFFFFFFFFFFFFFFFFFF DUP3 AND SWAP1 POP SWAP2 SWAP1 POP JUMP JUMPDEST PUSH0 PUSH2 0xDFD DUP3 PUSH2 0xDD4 JUMP JUMPDEST SWAP1 POP SWAP2 SWAP1 POP JUMP JUMPDEST PUSH2 0xE0D DUP2 PUSH2 0xDF3 JUMP JUMPDEST DUP3 MSTORE POP POP JUMP JUMPDEST PUSH0 DUP2 MLOAD SWAP1 POP SWAP2 SWAP1 POP JUMP JUMPDEST PUSH0 DUP3 DUP3 MSTORE PUSH1 0x20 DUP3 ADD SWAP1 POP SWAP3 SWAP2 POP POP JUMP JUMPDEST PUSH0 JUMPDEST DUP4 DUP2 LT ISZERO PUSH2 0xE4A JUMPI DUP1 DUP3 ADD MLOAD DUP2 DUP5 ADD MSTORE PUSH1 0x20 DUP2 ADD SWAP1 POP PUSH2 0xE2F JUMP JUMPDEST PUSH0 DUP5 DUP5 ADD MSTORE POP POP POP POP JUMP JUMPDEST PUSH0 PUSH1 0x1F NOT PUSH1 0x1F DUP4 ADD AND SWAP1 POP SWAP2 SWAP1 POP JUMP JUMPDEST PUSH0 PUSH2 0xE6F DUP3 PUSH2 0xE13 JUMP JUMPDEST PUSH2 0xE79 DUP2 DUP6 PUSH2 0xE1D JUMP JUMPDEST SWAP4 POP PUSH2 0xE89 DUP2 DUP6 PUSH1 0x20 DUP7 ADD PUSH2 0xE2D JUMP JUMPDEST PUSH2 0xE92 DUP2 PUSH2 0xE55 JUMP JUMPDEST DUP5 ADD SWAP2 POP POP SWAP3 SWAP2 POP POP JUMP JUMPDEST PUSH0 DUP2 ISZERO ISZERO SWAP1 POP SWAP2 SWAP1 POP JUMP JUMPDEST PUSH2 0xEB1 DUP2 PUSH2 0xE9D JUMP JUMPDEST DUP3 MSTORE POP POP JUMP JUMPDEST PUSH0 PUSH1 0xA0 DUP3 ADD SWAP1 POP PUSH2 0xECA PUSH0 DUP4 ADD DUP9 PUSH2 0xDC5 JUMP JUMPDEST PUSH2 0xED7 PUSH1 0x20 DUP4 ADD DUP8 PUSH2 0xE04 JUMP JUMPDEST DUP2 DUP2 SUB PUSH1 0x40 DUP4 ADD MSTORE PUSH2 0xEE9 DUP2 DUP7 PUSH2 0xE65 JUMP JUMPDEST SWAP1 POP PUSH2 0xEF8 PUSH1 0x60 DUP4 ADD DUP6 PUSH2 0xEA8 JUMP JUMPDEST PUSH2 0xF05 PUSH1 0x80 DUP4 ADD DUP5 PUSH2 0xDC5 JUMP JUMPDEST SWAP7 SWAP6 POP POP POP POP POP POP JUMP JUMPDEST PUSH0 PUSH1 0x20 DUP3 ADD SWAP1 POP PUSH2 0xF22 PUSH0 DUP4 ADD DUP5 PUSH2 0xDC5 JUMP JUMPDEST SWAP3 SWAP2 POP POP JUMP JUMPDEST PUSH0 DUP2 MLOAD SWAP1 POP SWAP2 SWAP1 POP JUMP JUMPDEST PUSH0 DUP3 DUP3 MSTORE PUSH1 0x20 DUP3 ADD SWAP1 POP SWAP3 SWAP2 POP POP JUMP JUMPDEST PUSH0 DUP2 SWAP1 POP PUSH1 0x20 DUP3 ADD SWAP1 POP SWAP2 SWAP1 POP JUMP JUMPDEST PUSH2 0xF5A DUP2 PUSH2 0xD67 JUMP JUMPDEST DUP3 MSTORE POP POP JUMP JUMPDEST PUSH0 PUSH2 0xF6B DUP4 DUP4 PUSH2 0xF51 JUMP JUMPDEST PUSH1 0x20 DUP4 ADD SWAP1 POP SWAP3 SWAP2 POP POP JUMP JUMPDEST PUSH0 PUSH1 0x20 DUP3 ADD SWAP1 POP SWAP2 SWAP1 POP JUMP JUMPDEST PUSH0 PUSH2 0xF8D DUP3 PUSH2 0xF28 JUMP JUMPDEST PUSH2 0xF97 DUP2 DUP6 PUSH2 0xF32 JUMP JUMPDEST SWAP4 POP PUSH2 0xFA2 DUP4 PUSH2 0xF42 JUMP JUMPDEST DUP1 PUSH0 JUMPDEST DUP4 DUP2 LT ISZERO PUSH2 0xFD2 JUMPI DUP2 MLOAD PUSH2 0xFB9 DUP9 DUP3 PUSH2 0xF60 JUMP JUMPDEST SWAP8 POP PUSH2 0xFC4 DUP4 PUSH2 0xF77 JUMP JUMPDEST SWAP3 POP POP PUSH1 0x1 DUP2 ADD SWAP1 POP PUSH2 0xFA5 JUMP JUMPDEST POP DUP6 SWAP4 POP POP POP POP SWAP3 SWAP2 POP POP JUMP JUMPDEST PUSH0 PUSH1 0x20 DUP3 ADD SWAP1 POP DUP2 DUP2 SUB PUSH0 DUP4 ADD MSTORE PUSH2 0xFF7 DUP2 DUP5 PUSH2 0xF83 JUMP JUMPDEST SWAP1 POP SWAP3 SWAP2 POP POP JUMP JUMPDEST PUSH0 DUP1 REVERT JUMPDEST PUSH0 DUP1 REVERT JUMPDEST PUSH0 DUP1 REVERT JUMPDEST PUSH0 DUP1 DUP4 PUSH1 0x1F DUP5 ADD SLT PUSH2 0x1020 JUMPI PUSH2 0x101F PUSH2 0xFFF JUMP JUMPDEST JUMPDEST DUP3 CALLDATALOAD SWAP1 POP PUSH8 0xFFFFFFFFFFFFFFFF DUP2 GT ISZERO PUSH2 0x103D JUMPI PUSH2 0x103C PUSH2 0x1003 JUMP JUMPDEST JUMPDEST PUSH1 0x20 DUP4 ADD SWAP2 POP DUP4 PUSH1 0x1 DUP3 MUL DUP4 ADD GT ISZERO PUSH2 0x1059 JUMPI PUSH2 0x1058 PUSH2 0x1007 JUMP JUMPDEST JUMPDEST SWAP3 POP SWAP3 SWAP1 POP JUMP JUMPDEST PUSH0 DUP1 PUSH1 0x20 DUP4 DUP6 SUB SLT ISZERO PUSH2 0x1076 JUMPI PUSH2 0x1075 PUSH2 0xD5F JUMP JUMPDEST JUMPDEST PUSH0 DUP4 ADD CALLDATALOAD PUSH8 0xFFFFFFFFFFFFFFFF DUP2 GT ISZERO PUSH2 0x1093 JUMPI PUSH2 0x1092 PUSH2 0xD63 JUMP JUMPDEST JUMPDEST PUSH2 0x109F DUP6 DUP3 DUP7 ADD PUSH2 0x100B JUMP JUMPDEST SWAP3 POP SWAP3 POP POP SWAP3 POP SWAP3 SWAP1 POP JUMP JUMPDEST PUSH2 0x10B4 DUP2 PUSH2 0xDF3 JUMP JUMPDEST DUP3 MSTORE POP POP JUMP JUMPDEST PUSH0 DUP3 DUP3 MSTORE PUSH1 0x20 DUP3 ADD SWAP1 POP SWAP3 SWAP2 POP POP JUMP JUMPDEST PUSH0 PUSH2 0x10D4 DUP3 PUSH2 0xE13 JUMP JUMPDEST PUSH2 0x10DE DUP2 DUP6 PUSH2 0x10BA JUMP JUMPDEST SWAP4 POP PUSH2 0x10EE DUP2 DUP6 PUSH1 0x20 DUP7 ADD PUSH2 0xE2D JUMP JUMPDEST PUSH2 0x10F7 DUP2 PUSH2 0xE55 JUMP JUMPDEST DUP5 ADD SWAP2 POP POP SWAP3 SWAP2 POP POP JUMP JUMPDEST PUSH2 0x110B DUP2 PUSH2 0xE9D JUMP JUMPDEST DUP3 MSTORE POP POP JUMP JUMPDEST PUSH0 PUSH1 0xA0 DUP4 ADD PUSH0 DUP4 ADD MLOAD PUSH2 0x1126 PUSH0 DUP7 ADD DUP3 PUSH2 0xF51 JUMP JUMPDEST POP PUSH1 0x20 DUP4 ADD MLOAD PUSH2 0x1139 PUSH1 0x20 DUP7 ADD DUP3 PUSH2 0x10AB JUMP JUMPDEST POP PUSH1 0x40 DUP4 ADD MLOAD DUP5 DUP3 SUB PUSH1 0x40 DUP7 ADD MSTORE PUSH2 0x1151 DUP3 DUP3 PUSH2 0x10CA JUMP JUMPDEST SWAP2 POP POP PUSH1 0x60 DUP4 ADD MLOAD PUSH2 0x1166 PUSH1 0x60 DUP7 ADD DUP3 PUSH2 0x1102 JUMP JUMPDEST POP PUSH1 0x80 DUP4 ADD MLOAD PUSH2 0x1179 PUSH1 0x80 DUP7 ADD DUP3 PUSH2 0xF51 JUMP JUMPDEST POP DUP1 SWAP2 POP POP SWAP3 SWAP2 POP POP JUMP JUMPDEST PUSH0 PUSH1 0x20 DUP3 ADD SWAP1 POP DUP2 DUP2 SUB PUSH0 DUP4 ADD MSTORE PUSH2 0x119C DUP2 DUP5 PUSH2 0x1111 JUMP JUMPDEST SWAP1 POP SWAP3 SWAP2 POP POP JUMP JUMPDEST PUSH0 DUP1 PUSH0 PUSH1 0x40 DUP5 DUP7 SUB SLT ISZERO PUSH2 0x11BB JUMPI PUSH2 0x11BA PUSH2 0xD5F JUMP JUMPDEST JUMPDEST PUSH0 PUSH2 0x11C8 DUP7 DUP3 DUP8 ADD PUSH2 0xD86 JUMP JUMPDEST SWAP4 POP POP PUSH1 0x20 DUP5 ADD CALLDATALOAD PUSH8 0xFFFFFFFFFFFFFFFF DUP2 GT ISZERO PUSH2 0x11E9 JUMPI PUSH2 0x11E8 PUSH2 0xD63 JUMP JUMPDEST JUMPDEST PUSH2 0x11F5 DUP7 DUP3 DUP8 ADD PUSH2 0x100B JUMP JUMPDEST SWAP3 POP SWAP3 POP POP SWAP3 POP SWAP3 POP SWAP3 JUMP JUMPDEST PUSH0 PUSH1 0x20 DUP3 ADD SWAP1 POP PUSH2 0x1214 PUSH0 DUP4 ADD DUP5 PUSH2 0xE04 JUMP JUMPDEST SWAP3 SWAP2 POP POP JUMP JUMPDEST PUSH2 0x1223 DUP2 PUSH2 0xDF3 JUMP JUMPDEST DUP2 EQ PUSH2 0x122D JUMPI PUSH0 DUP1 REVERT JUMPDEST POP JUMP JUMPDEST PUSH0 DUP2 CALLDATALOAD SWAP1 POP PUSH2 0x123E DUP2 PUSH2 0x121A JUMP JUMPDEST SWAP3 SWAP2 POP POP JUMP JUMPDEST PUSH0 PUSH1 0x20 DUP3 DUP5 SUB SLT ISZERO PUSH2 0x1259 JUMPI PUSH2 0x1258 PUSH2 0xD5F JUMP JUMPDEST JUMPDEST PUSH0 PUSH2 0x1266 DUP5 DUP3 DUP6 ADD PUSH2 0x1230 JUMP JUMPDEST SWAP2 POP POP SWAP3 SWAP2 POP POP JUMP JUMPDEST PUSH32 0x4E487B7100000000000000000000000000000000000000000000000000000000 PUSH0 MSTORE PUSH1 0x22 PUSH1 0x4 MSTORE PUSH1 0x24 PUSH0 REVERT JUMPDEST PUSH0 PUSH1 0x2 DUP3 DIV SWAP1 POP PUSH1 0x1 DUP3 AND DUP1 PUSH2 0x12B3 JUMPI PUSH1 0x7F DUP3 AND SWAP2 POP JUMPDEST PUSH1 0x20 DUP3 LT DUP2 SUB PUSH2 0x12C6 JUMPI PUSH2 0x12C5 PUSH2 0x126F JUMP JUMPDEST JUMPDEST POP SWAP2 SWAP1 POP JUMP JUMPDEST PUSH32 0x4D65746164617461205552492069732072657175697265640000000000000000 PUSH0 DUP3 ADD MSTORE POP JUMP JUMPDEST PUSH0 PUSH2 0x1300 PUSH1 0x18 DUP4 PUSH2 0xE1D JUMP JUMPDEST SWAP2 POP PUSH2 0x130B DUP3 PUSH2 0x12CC JUMP JUMPDEST PUSH1 0x20 DUP3 ADD SWAP1 POP SWAP2 SWAP1 POP JUMP JUMPDEST PUSH0 PUSH1 0x20 DUP3 ADD SWAP1 POP DUP2 DUP2 SUB PUSH0 DUP4 ADD MSTORE PUSH2 0x132D DUP2 PUSH2 0x12F4 JUMP JUMPDEST SWAP1 POP SWAP2 SWAP1 POP JUMP JUMPDEST PUSH32 0x4E487B7100000000000000000000000000000000000000000000000000000000 PUSH0 MSTORE PUSH1 0x11 PUSH1 0x4 MSTORE PUSH1 0x24 PUSH0 REVERT JUMPDEST PUSH0 PUSH2 0x136B DUP3 PUSH2 0xD67 JUMP JUMPDEST SWAP2 POP PUSH32 0xFFFFFFFFFFFFFFFFFFFFFFFFFFFFFFFFFFFFFFFFFFFFFFFFFFFFFFFFFFFFFFFF DUP3 SUB PUSH2 0x139D JUMPI PUSH2 0x139C PUSH2 0x1334 JUMP JUMPDEST JUMPDEST PUSH1 0x1 DUP3 ADD SWAP1 POP SWAP2 SWAP1 POP JUMP JUMPDEST PUSH32 0x4E487B7100000000000000000000000000000000000000000000000000000000 PUSH0 MSTORE PUSH1 0x41 PUSH1 0x4 MSTORE PUSH1 0x24 PUSH0 REVERT JUMPDEST PUSH0 DUP2 SWAP1 POP DUP2 PUSH0 MSTORE PUSH1 0x20 PUSH0 KECCAK256 SWAP1 POP SWAP2 SWAP1 POP JUMP JUMPDEST PUSH0 PUSH1 0x20 PUSH1 0x1F DUP4 ADD DIV SWAP1 POP SWAP2 SWAP1 POP JUMP JUMPDEST PUSH0 DUP3 DUP3 SHL SWAP1 POP SWAP3 SWAP2 POP POP JUMP JUMPDEST PUSH0 PUSH1 0x8 DUP4 MUL PUSH2 0x1431 PUSH32 0xFFFFFFFFFFFFFFFFFFFFFFFFFFFFFFFFFFFFFFFFFFFFFFFFFFFFFFFFFFFFFFFF DUP3 PUSH2 0x13F6 JUMP JUMPDEST PUSH2 0x143B DUP7 DUP4 PUSH2 0x13F6 JUMP JUMPDEST SWAP6 POP DUP1 NOT DUP5 AND SWAP4 POP DUP1 DUP7 AND DUP5 OR SWAP3 POP POP POP SWAP4 SWAP3 POP POP POP JUMP JUMPDEST PUSH0 DUP2 SWAP1 POP SWAP2 SWAP1 POP JUMP JUMPDEST PUSH0 PUSH2 0x1476 PUSH2 0x1471 PUSH2 0x146C DUP5 PUSH2 0xD67 JUMP JUMPDEST PUSH2 0x1453 JUMP JUMPDEST PUSH2 0xD67 JUMP JUMPDEST SWAP1 POP SWAP2 SWAP1 POP JUMP JUMPDEST PUSH0 DUP2 SWAP1 POP SWAP2 SWAP1 POP JUMP JUMPDEST PUSH2 0x148F DUP4 PUSH2 0x145C JUMP JUMPDEST PUSH2 0x14A3 PUSH2 0x149B DUP3 PUSH2 0x147D JUMP JUMPDEST DUP5 DUP5 SLOAD PUSH2 0x1402 JUMP JUMPDEST DUP3 SSTORE POP POP POP POP JUMP JUMPDEST PUSH0 SWAP1 JUMP JUMPDEST PUSH2 0x14B7 PUSH2 0x14AB JUMP JUMPDEST PUSH2 0x14C2 DUP2 DUP5 DUP5 PUSH2 0x1486 JUMP JUMPDEST POP POP POP JUMP JUMPDEST JUMPDEST DUP2 DUP2 LT ISZERO PUSH2 0x14E5 JUMPI PUSH2 0x14DA PUSH0 DUP3 PUSH2 0x14AF JUMP JUMPDEST PUSH1 0x1 DUP2 ADD SWAP1 POP PUSH2 0x14C8 JUMP JUMPDEST POP POP JUMP JUMPDEST PUSH1 0x1F DUP3 GT ISZERO PUSH2 0x152A JUMPI PUSH2 0x14FB DUP2 PUSH2 0x13D5 JUMP JUMPDEST PUSH2 0x1504 DUP5 PUSH2 0x13E7 JUMP JUMPDEST DUP2 ADD PUSH1 0x20 DUP6 LT ISZERO PUSH2 0x1513 JUMPI DUP2 SWAP1 POP JUMPDEST PUSH2 0x1527 PUSH2 0x151F DUP6 PUSH2 0x13E7 JUMP JUMPDEST DUP4 ADD DUP3 PUSH2 0x14C7 JUMP JUMPDEST POP POP JUMPDEST POP POP POP JUMP JUMPDEST PUSH0 DUP3 DUP3 SHR SWAP1 POP SWAP3 SWAP2 POP POP JUMP JUMPDEST PUSH0 PUSH2 0x154A PUSH0 NOT DUP5 PUSH1 0x8 MUL PUSH2 0x152F JUMP JUMPDEST NOT DUP1 DUP4 AND SWAP2 POP POP SWAP3 SWAP2 POP POP JUMP JUMPDEST PUSH0 PUSH2 0x1562 DUP4 DUP4 PUSH2 0x153B JUMP JUMPDEST SWAP2 POP DUP3 PUSH1 0x2 MUL DUP3 OR SWAP1 POP SWAP3 SWAP2 POP POP JUMP JUMPDEST PUSH2 0x157B DUP3 PUSH2 0xE13 JUMP JUMPDEST PUSH8 0xFFFFFFFFFFFFFFFF DUP2 GT ISZERO PUSH2 0x1594 JUMPI PUSH2 0x1593 PUSH2 0x13A8 JUMP JUMPDEST JUMPDEST PUSH2 0x159E DUP3 SLOAD PUSH2 0x129C JUMP JUMPDEST PUSH2 0x15A9 DUP3 DUP3 DUP6 PUSH2 0x14E9 JUMP JUMPDEST PUSH0 PUSH1 0x20 SWAP1 POP PUSH1 0x1F DUP4 GT PUSH1 0x1 DUP2 EQ PUSH2 0x15DA JUMPI PUSH0 DUP5 ISZERO PUSH2 0x15C8 JUMPI DUP3 DUP8 ADD MLOAD SWAP1 POP JUMPDEST PUSH2 0x15D2 DUP6 DUP3 PUSH2 0x1557 JUMP JUMPDEST DUP7 SSTORE POP PUSH2 0x1639 JUMP JUMPDEST PUSH1 0x1F NOT DUP5 AND PUSH2 0x15E8 DUP7 PUSH2 0x13D5 JUMP JUMPDEST PUSH0 JUMPDEST DUP3 DUP2 LT ISZERO PUSH2 0x160F JUMPI DUP5 DUP10 ADD MLOAD DUP3 SSTORE PUSH1 0x1 DUP3 ADD SWAP2 POP PUSH1 0x20 DUP6 ADD SWAP5 POP PUSH1 0x20 DUP2 ADD SWAP1 POP PUSH2 0x15EA JUMP JUMPDEST DUP7 DUP4 LT ISZERO PUSH2 0x162C JUMPI DUP5 DUP10 ADD MLOAD PUSH2 0x1628 PUSH1 0x1F DUP10 AND DUP3 PUSH2 0x153B JUMP JUMPDEST DUP4 SSTORE POP JUMPDEST PUSH1 0x1 PUSH1 0x2 DUP9 MUL ADD DUP9 SSTORE POP POP POP JUMPDEST POP POP POP POP POP POP JUMP JUMPDEST DUP3 DUP2 DUP4 CALLDATACOPY PUSH0 DUP4 DUP4 ADD MSTORE POP POP POP JUMP JUMPDEST PUSH0 PUSH2 0x165A DUP4 DUP6 PUSH2 0xE1D JUMP JUMPDEST SWAP4 POP PUSH2 0x1667 DUP4 DUP6 DUP5 PUSH2 0x1641 JUMP JUMPDEST PUSH2 0x1670 DUP4 PUSH2 0xE55 JUMP JUMPDEST DUP5 ADD SWAP1 POP SWAP4 SWAP3 POP POP POP JUMP JUMPDEST PUSH0 PUSH1 0x40 DUP3 ADD SWAP1 POP DUP2 DUP2 SUB PUSH0 DUP4 ADD MSTORE PUSH2 0x1694 DUP2 DUP6 DUP8 PUSH2 0x164F JUMP JUMPDEST SWAP1 POP PUSH2 0x16A3 PUSH1 0x20 DUP4 ADD DUP5 PUSH2 0xDC5 JUMP JUMPDEST SWAP5 SWAP4 POP POP POP POP JUMP JUMPDEST PUSH32 0x4E6F6465206E6F74206163746976650000000000000000000000000000000000 PUSH0 DUP3 ADD MSTORE POP JUMP JUMPDEST PUSH0 PUSH2 0x16DF PUSH1 0xF DUP4 PUSH2 0xE1D JUMP JUMPDEST SWAP2 POP PUSH2 0x16EA DUP3 PUSH2 0x16AB JUMP JUMPDEST PUSH1 0x20 DUP3 ADD SWAP1 POP SWAP2 SWAP1 POP JUMP JUMPDEST PUSH0 PUSH1 0x20 DUP3 ADD SWAP1 POP DUP2 DUP2 SUB PUSH0 DUP4 ADD MSTORE PUSH2 0x170C DUP2 PUSH2 0x16D3 JUMP JUMPDEST SWAP1 POP SWAP2 SWAP1 POP JUMP JUMPDEST PUSH32 0x4E6F74206E6F6465206F776E6572000000000000000000000000000000000000 PUSH0 DUP3 ADD MSTORE POP JUMP JUMPDEST PUSH0 PUSH2 0x1747 PUSH1 0xE DUP4 PUSH2 0xE1D JUMP JUMPDEST SWAP2 POP PUSH2 0x1752 DUP3 PUSH2 0x1713 JUMP JUMPDEST PUSH1 0x20 DUP3 ADD SWAP1 POP SWAP2 SWAP1 POP JUMP JUMPDEST PUSH0 PUSH1 0x20 DUP3 ADD SWAP1 POP DUP2 DUP2 SUB PUSH0 DUP4 ADD MSTORE PUSH2 0x1774 DUP2 PUSH2 0x173B JUMP JUMPDEST SWAP1 POP SWAP2 SWAP1 POP JUMP JUMPDEST PUSH32 0x4D65746164617461205552492072657175697265640000000000000000000000 PUSH0 DUP3 ADD MSTORE POP JUMP JUMPDEST PUSH0 PUSH2 0x17AF PUSH1 0x15 DUP4 PUSH2 0xE1D JUMP JUMPDEST SWAP2 POP PUSH2 0x17BA DUP3 PUSH2 0x177B JUMP JUMPDEST PUSH1 0x20 DUP3 ADD SWAP1 POP SWAP2 SWAP1 POP JUMP JUMPDEST PUSH0 PUSH1 0x20 DUP3 ADD SWAP1 POP DUP2 DUP2 SUB PUSH0 DUP4 ADD MSTORE PUSH2 0x17DC DUP2 PUSH2 0x17A3 JUMP JUMPDEST SWAP1 POP SWAP2 SWAP1 POP JUMP JUMPDEST PUSH0 DUP3 SWAP1 POP SWAP3 SWAP2 POP POP JUMP JUMPDEST PUSH2 0x17F7 DUP4 DUP4 PUSH2 0x17E3 JUMP JUMPDEST PUSH8 0xFFFFFFFFFFFFFFFF DUP2 GT ISZERO PUSH2 0x1810 JUMPI PUSH2 0x180F PUSH2 0x13A8 JUMP JUMPDEST JUMPDEST PUSH2 0x181A DUP3 SLOAD PUSH2 0x129C JUMP JUMPDEST PUSH2 0x1825 DUP3 DUP3 DUP6 PUSH2 0x14E9 JUMP JUMPDEST PUSH0 PUSH1 0x1F DUP4 GT PUSH1 0x1 DUP2 EQ PUSH2 0x1852 JUMPI PUSH0 DUP5 ISZERO PUSH2 0x1840 JUMPI DUP3 DUP8 ADD CALLDATALOAD SWAP1 POP JUMPDEST PUSH2 0x184A DUP6 DUP3 PUSH2 0x1557 JUMP JUMPDEST DUP7 SSTORE POP PUSH2 0x18B1 JUMP JUMPDEST PUSH1 0x1F NOT DUP5 AND PUSH2 0x1860 DUP7 PUSH2 0x13D5 JUMP JUMPDEST PUSH0 JUMPDEST DUP3 DUP2 LT ISZERO PUSH2 0x1887 JUMPI DUP5 DUP10 ADD CALLDATALOAD DUP3 SSTORE PUSH1 0x1 DUP3 ADD SWAP2 POP PUSH1 0x20 DUP6 ADD SWAP5 POP PUSH1 0x20 DUP2 ADD SWAP1 POP PUSH2 0x1862 JUMP JUMPDEST DUP7 DUP4 LT ISZERO PUSH2 0x18A4 JUMPI DUP5 DUP10 ADD CALLDATALOAD PUSH2 0x18A0 PUSH1 0x1F DUP10 AND DUP3 PUSH2 0x153B JUMP JUMPDEST DUP4 SSTORE POP JUMPDEST PUSH1 0x1 PUSH1 0x2 DUP9 MUL ADD DUP9 SSTORE POP POP POP JUMPDEST POP POP POP POP POP POP POP JUMP JUMPDEST PUSH32 0x4E6F646520616C726561647920696E6163746976650000000000000000000000 PUSH0 DUP3 ADD MSTORE POP JUMP JUMPDEST PUSH0 PUSH2 0x18EE PUSH1 0x15 DUP4 PUSH2 0xE1D JUMP JUMPDEST SWAP2 POP PUSH2 0x18F9 DUP3 PUSH2 0x18BA JUMP JUMPDEST PUSH1 0x20 DUP3 ADD SWAP1 POP SWAP2 SWAP1 POP JUMP JUMPDEST PUSH0 PUSH1 0x20 DUP3 ADD SWAP1 POP DUP2 DUP2 SUB PUSH0 DUP4 ADD MSTORE PUSH2 0x191B DUP2 PUSH2 0x18E2 JUMP JUMPDEST SWAP1 POP SWAP2 SWAP1 POP JUMP JUMPDEST PUSH32 0x556E617574686F72697A65640000000000000000000000000000000000000000 PUSH0 DUP3 ADD MSTORE POP JUMP JUMPDEST PUSH0 PUSH2 0x1956 PUSH1 0xC DUP4 PUSH2 0xE1D JUMP JUMPDEST SWAP2 POP PUSH2 0x1961 DUP3 PUSH2 0x1922 JUMP JUMPDEST PUSH1 0x20 DUP3 ADD SWAP1 POP SWAP2 SWAP1 POP JUMP JUMPDEST PUSH0 PUSH1 0x20 DUP3 ADD SWAP1 POP DUP2 DUP2 SUB PUSH0 DUP4 ADD MSTORE PUSH2 0x1983 DUP2 PUSH2 0x194A JUMP JUMPDEST SWAP1 POP SWAP2 SWAP1 POP JUMP JUMPDEST PUSH32 0x5265656E7472616E637947756172643A207265656E7472616E742063616C6C00 PUSH0 DUP3 ADD MSTORE POP JUMP JUMPDEST PUSH0 PUSH2 0x19BE PUSH1 0x1F DUP4 PUSH2 0xE1D JUMP JUMPDEST SWAP2 POP PUSH2 0x19C9 DUP3 PUSH2 0x198A JUMP JUMPDEST PUSH1 0x20 DUP3 ADD SWAP1 POP SWAP2 SWAP1 POP JUMP JUMPDEST PUSH0 PUSH1 0x20 DUP3 ADD SWAP1 POP DUP2 DUP2 SUB PUSH0 DUP4 ADD MSTORE PUSH2 0x19EB DUP2 PUSH2 0x19B2 JUMP JUMPDEST SWAP1 POP SWAP2 SWAP1 POP JUMP JUMPDEST PUSH32 0x4E487B7100000000000000000000000000000000000000000000000000000000 PUSH0 MSTORE PUSH1 0x32 PUSH1 0x4 MSTORE PUSH1 0x24 PUSH0 REVERT JUMPDEST PUSH0 PUSH2 0x1A29 DUP3 PUSH2 0xD67 JUMP JUMPDEST SWAP2 POP PUSH2 0x1A34 DUP4 PUSH2 0xD67 JUMP JUMPDEST SWAP3 POP DUP3 DUP3 SUB SWAP1 POP DUP2 DUP2 GT ISZERO PUSH2 0x1A4C JUMPI PUSH2 0x1A4B PUSH2 0x1334 JUMP JUMPDEST JUMPDEST SWAP3 SWAP2 POP POP JUMP JUMPDEST PUSH32 0x4E487B7100000000000000000000000000000000000000000000000000000000 PUSH0 MSTORE PUSH1 0x31 PUSH1 0x4 MSTORE PUSH1 0x24 PUSH0 REVERT INVALID LOG2 PUSH5 0x6970667358 0x22 SLT KECCAK256 0xA5 GASLIMIT SWAP16 0xBE 0xEC CALL MULMOD CALL 0xC STATICCALL 0xBA PUSH7 0x390C27B4B78637 0xD5 SWAP15 SLT 0xCC 0xAB 0xC0 0xCF RETURNDATASIZE 0xC7 0xEC PUSH30 0xB33564736F6C634300081400330000000000000000000000000000000000 "
				},
				"gasEstimates": {
					"creation": {
						"codeDepositCost": "1367400",
						"executionCost": "infinite",
						"totalCost": "infinite"
					},
					"external": {
						"getActiveNodeIds()": "infinite",
						"getNode(uint256)": "infinite",
						"nextNodeId()": "2448",
						"nodes(uint256)": "infinite",
						"owner()": "2559",
						"registerNode(string)": "infinite",
						"removeNode(uint256)": "infinite",
						"renounceOwnership()": "infinite",
						"totalNodes()": "2498",
						"transferOwnership(address)": "infinite",
						"updateNode(uint256,string)": "infinite"
					},
					"internal": {
						"_removeActiveNodeId(uint256)": "infinite"
					}
				},
				"methodIdentifiers": {
					"getActiveNodeIds()": "22ef64fe",
					"getNode(uint256)": "4f0f4aa9",
					"nextNodeId()": "20eca391",
					"nodes(uint256)": "1c53c280",
					"owner()": "8da5cb5b",
					"registerNode(string)": "27c6f43e",
					"removeNode(uint256)": "ffd740df",
					"renounceOwnership()": "715018a6",
					"totalNodes()": "9592d424",
					"transferOwnership(address)": "f2fde38b",
					"updateNode(uint256,string)": "53491af5"
				}
			},
			"storageLayout": {
				"storage": [
					{
						"astId": 8,
						"contract": "D/depinRegistery.sol:DePinRegistry",
						"label": "_owner",
						"offset": 0,
						"slot": "0",
						"type": "t_address"
					},
					{
						"astId": 158,
						"contract": "D/depinRegistery.sol:DePinRegistry",
						"label": "_status",
						"offset": 0,
						"slot": "1",
						"type": "t_uint256"
					},
					{
						"astId": 265,
						"contract": "D/depinRegistery.sol:DePinRegistry",
						"label": "nextNodeId",
						"offset": 0,
						"slot": "2",
						"type": "t_uint256"
					},
					{
						"astId": 270,
						"contract": "D/depinRegistery.sol:DePinRegistry",
						"label": "nodes",
						"offset": 0,
						"slot": "3",
						"type": "t_mapping(t_uint256,t_struct(DePinNode)263_storage)"
					},
					{
						"astId": 273,
						"contract": "D/depinRegistery.sol:DePinRegistry",
						"label": "activeNodeIds",
						"offset": 0,
						"slot": "4",
						"type": "t_array(t_uint256)dyn_storage"
					}
				],
				"types": {
					"t_address": {
						"encoding": "inplace",
						"label": "address",
						"numberOfBytes": "20"
					},
					"t_array(t_uint256)dyn_storage": {
						"base": "t_uint256",
						"encoding": "dynamic_array",
						"label": "uint256[]",
						"numberOfBytes": "32"
					},
					"t_bool": {
						"encoding": "inplace",
						"label": "bool",
						"numberOfBytes": "1"
					},
					"t_mapping(t_uint256,t_struct(DePinNode)263_storage)": {
						"encoding": "mapping",
						"key": "t_uint256",
						"label": "mapping(uint256 => struct DePinRegistry.DePinNode)",
						"numberOfBytes": "32",
						"value": "t_struct(DePinNode)263_storage"
					},
					"t_string_storage": {
						"encoding": "bytes",
						"label": "string",
						"numberOfBytes": "32"
					},
					"t_struct(DePinNode)263_storage": {
						"encoding": "inplace",
						"label": "struct DePinRegistry.DePinNode",
						"members": [
							{
								"astId": 254,
								"contract": "D/depinRegistery.sol:DePinRegistry",
								"label": "id",
								"offset": 0,
								"slot": "0",
								"type": "t_uint256"
							},
							{
								"astId": 256,
								"contract": "D/depinRegistery.sol:DePinRegistry",
								"label": "owner",
								"offset": 0,
								"slot": "1",
								"type": "t_address"
							},
							{
								"astId": 258,
								"contract": "D/depinRegistery.sol:DePinRegistry",
								"label": "metadataURI",
								"offset": 0,
								"slot": "2",
								"type": "t_string_storage"
							},
							{
								"astId": 260,
								"contract": "D/depinRegistery.sol:DePinRegistry",
								"label": "active",
								"offset": 0,
								"slot": "3",
								"type": "t_bool"
							},
							{
								"astId": 262,
								"contract": "D/depinRegistery.sol:DePinRegistry",
								"label": "registeredAt",
								"offset": 0,
								"slot": "4",
								"type": "t_uint256"
							}
						],
						"numberOfBytes": "160"
					},
					"t_uint256": {
						"encoding": "inplace",
						"label": "uint256",
						"numberOfBytes": "32"
					}
				}
			},
			"userdoc": {
				"kind": "user",
				"methods": {
					"constructor": {
						"notice": "Constructor sets the deployer as initial owner."
					},
					"getActiveNodeIds()": {
						"notice": "Retrieves IDs of all currently active nodes."
					},
					"getNode(uint256)": {
						"notice": "Retrieves details of a node by ID."
					},
					"registerNode(string)": {
						"notice": "Registers a new DePin node dynamically."
					},
					"removeNode(uint256)": {
						"notice": "Removes (marks as inactive) a node from the registry.  Only the node owner or the contract owner can do this."
					},
					"totalNodes()": {
						"notice": "Returns the total number of nodes ever created (including inactive)."
					},
					"updateNode(uint256,string)": {
						"notice": "Updates the metadata of an existing DePin node. Only the node owner can call this."
					}
				},
				"notice": "A dynamic, optimized, and secure registry for Decentralized Physical Infrastructure (DePin) nodes. The owner and node owners can register, update, and remove DePin nodes, with an array tracking active nodes.",
				"version": 1
			}
		}
	}
}