{
	"D/decentralizedGPU.sol": {
		"DecentralizedGPU": {
			"abi": [
				{
					"inputs": [],
					"stateMutability": "nonpayable",
					"type": "constructor"
				},
				{
					"inputs": [
						{
							"internalType": "address",
							"name": "owner",
							"type": "address"
						}
					],
					"name": "OwnableInvalidOwner",
					"type": "error"
				},
				{
					"inputs": [
						{
							"internalType": "address",
							"name": "account",
							"type": "address"
						}
					],
					"name": "OwnableUnauthorizedAccount",
					"type": "error"
				},
				{
					"anonymous": false,
					"inputs": [
						{
							"indexed": true,
							"internalType": "uint256",
							"name": "gpuId",
							"type": "uint256"
						},
						{
							"indexed": true,
							"internalType": "address",
							"name": "owner",
							"type": "address"
						}
					],
					"name": "GPURegistered",
					"type": "event"
				},
				{
					"anonymous": false,
					"inputs": [
						{
							"indexed": true,
							"internalType": "uint256",
							"name": "rentalId",
							"type": "uint256"
						},
						{
							"indexed": true,
							"internalType": "uint256",
							"name": "gpuId",
							"type": "uint256"
						},
						{
							"indexed": true,
							"internalType": "address",
							"name": "renter",
							"type": "address"
						}
					],
					"name": "GPURented",
					"type": "event"
				},
				{
					"anonymous": false,
					"inputs": [
						{
							"indexed": true,
							"internalType": "address",
							"name": "previousOwner",
							"type": "address"
						},
						{
							"indexed": true,
							"internalType": "address",
							"name": "newOwner",
							"type": "address"
						}
					],
					"name": "OwnershipTransferred",
					"type": "event"
				},
				{
					"anonymous": false,
					"inputs": [
						{
							"indexed": true,
							"internalType": "uint256",
							"name": "rentalId",
							"type": "uint256"
						},
						{
							"indexed": true,
							"internalType": "uint256",
							"name": "gpuId",
							"type": "uint256"
						},
						{
							"indexed": true,
							"internalType": "address",
							"name": "renter",
							"type": "address"
						},
						{
							"indexed": false,
							"internalType": "uint256",
							"name": "amountPaid",
							"type": "uint256"
						}
					],
					"name": "RentalEnded",
					"type": "event"
				},
				{
					"inputs": [
						{
							"internalType": "uint256",
							"name": "rentalId",
							"type": "uint256"
						}
					],
					"name": "endRental",
					"outputs": [],
					"stateMutability": "nonpayable",
					"type": "function"
				},
				{
					"inputs": [
						{
							"internalType": "uint256",
							"name": "gpuId",
							"type": "uint256"
						}
					],
					"name": "getGPU",
					"outputs": [
						{
							"components": [
								{
									"internalType": "uint256",
									"name": "gpuId",
									"type": "uint256"
								},
								{
									"internalType": "address",
									"name": "owner",
									"type": "address"
								},
								{
									"internalType": "string",
									"name": "gpuSpecs",
									"type": "string"
								},
								{
									"internalType": "uint256",
									"name": "hourlyRateWei",
									"type": "uint256"
								},
								{
									"internalType": "bool",
									"name": "available",
									"type": "bool"
								}
							],
							"internalType": "struct DecentralizedGPU.GPU",
							"name": "",
							"type": "tuple"
						}
					],
					"stateMutability": "view",
					"type": "function"
				},
				{
					"inputs": [
						{
							"internalType": "address",
							"name": "gpuOwner",
							"type": "address"
						}
					],
					"name": "getGPUsByOwner",
					"outputs": [
						{
							"internalType": "uint256[]",
							"name": "",
							"type": "uint256[]"
						}
					],
					"stateMutability": "view",
					"type": "function"
				},
				{
					"inputs": [
						{
							"internalType": "uint256",
							"name": "rentalId",
							"type": "uint256"
						}
					],
					"name": "getRental",
					"outputs": [
						{
							"components": [
								{
									"internalType": "uint256",
									"name": "rentalId",
									"type": "uint256"
								},
								{
									"internalType": "uint256",
									"name": "gpuId",
									"type": "uint256"
								},
								{
									"internalType": "address",
									"name": "renter",
									"type": "address"
								},
								{
									"internalType": "uint256",
									"name": "startTime",
									"type": "uint256"
								},
								{
									"internalType": "uint256",
									"name": "endTime",
									"type": "uint256"
								},
								{
									"internalType": "uint256",
									"name": "totalPaid",
									"type": "uint256"
								},
								{
									"internalType": "bool",
									"name": "active",
									"type": "bool"
								}
							],
							"internalType": "struct DecentralizedGPU.Rental",
							"name": "",
							"type": "tuple"
						}
					],
					"stateMutability": "view",
					"type": "function"
				},
				{
					"inputs": [
						{
							"internalType": "uint256",
							"name": "",
							"type": "uint256"
						}
					],
					"name": "gpus",
					"outputs": [
						{
							"internalType": "uint256",
							"name": "gpuId",
							"type": "uint256"
						},
						{
							"internalType": "address",
							"name": "owner",
							"type": "address"
						},
						{
							"internalType": "string",
							"name": "gpuSpecs",
							"type": "string"
						},
						{
							"internalType": "uint256",
							"name": "hourlyRateWei",
							"type": "uint256"
						},
						{
							"internalType": "bool",
							"name": "available",
							"type": "bool"
						}
					],
					"stateMutability": "view",
					"type": "function"
				},
				{
					"inputs": [],
					"name": "owner",
					"outputs": [
						{
							"internalType": "address",
							"name": "",
							"type": "address"
						}
					],
					"stateMutability": "view",
					"type": "function"
				},
				{
					"inputs": [
						{
							"internalType": "address",
							"name": "",
							"type": "address"
						},
						{
							"internalType": "uint256",
							"name": "",
							"type": "uint256"
						}
					],
					"name": "ownerGPUs",
					"outputs": [
						{
							"internalType": "uint256",
							"name": "",
							"type": "uint256"
						}
					],
					"stateMutability": "view",
					"type": "function"
				},
				{
					"inputs": [
						{
							"internalType": "string",
							"name": "gpuSpecs",
							"type": "string"
						},
						{
							"internalType": "uint256",
							"name": "hourlyRateWei",
							"type": "uint256"
						}
					],
					"name": "registerGPU",
					"outputs": [],
					"stateMutability": "nonpayable",
					"type": "function"
				},
				{
					"inputs": [],
					"name": "renounceOwnership",
					"outputs": [],
					"stateMutability": "nonpayable",
					"type": "function"
				},
				{
					"inputs": [
						{
							"internalType": "uint256",
							"name": "gpuId",
							"type": "uint256"
						},
						{
							"internalType": "uint256",
							"name": "hoursToRent",
							"type": "uint256"
						}
					],
					"name": "rentGPU",
					"outputs": [],
					"stateMutability": "payable",
					"type": "function"
				},
				{
					"inputs": [
						{
							"internalType": "uint256",
							"name": "",
							"type": "uint256"
						}
					],
					"name": "rentals",
					"outputs": [
						{
							"internalType": "uint256",
							"name": "rentalId",
							"type": "uint256"
						},
						{
							"internalType": "uint256",
							"name": "gpuId",
							"type": "uint256"
						},
						{
							"internalType": "address",
							"name": "renter",
							"type": "address"
						},
						{
							"internalType": "uint256",
							"name": "startTime",
							"type": "uint256"
						},
						{
							"internalType": "uint256",
							"name": "endTime",
							"type": "uint256"
						},
						{
							"internalType": "uint256",
							"name": "totalPaid",
							"type": "uint256"
						},
						{
							"internalType": "bool",
							"name": "active",
							"type": "bool"
						}
					],
					"stateMutability": "view",
					"type": "function"
				},
				{
					"inputs": [
						{
							"internalType": "address",
							"name": "newOwner",
							"type": "address"
						}
					],
					"name": "transferOwnership",
					"outputs": [],
					"stateMutability": "nonpayable",
					"type": "function"
				}
			],
			"devdoc": {
				"errors": {
					"OwnableInvalidOwner(address)": [
						{
							"details": "The owner is not a valid owner account. (eg. `address(0)`)"
						}
					],
					"OwnableUnauthorizedAccount(address)": [
						{
							"details": "The caller account is not authorized to perform an operation."
						}
					]
				},
				"kind": "dev",
				"methods": {
					"owner()": {
						"details": "Returns the address of the current owner."
					},
					"renounceOwnership()": {
						"details": "Leaves the contract without owner. It will not be possible to call `onlyOwner` functions. Can only be called by the current owner. NOTE: Renouncing ownership will leave the contract without an owner, thereby disabling any functionality that is only available to the owner."
					},
					"transferOwnership(address)": {
						"details": "Transfers ownership of the contract to a new account (`newOwner`). Can only be called by the current owner."
					}
				},
				"title": "DecentralizedGPU",
				"version": 1
			},
			"evm": {
				"assembly": "    /* \"D/decentralizedGPU.sol\":283:4158  contract DecentralizedGPU is Ownable, ReentrancyGuard {... */\n  mstore(0x40, 0x80)\n    /* \"D/decentralizedGPU.sol\":1222:1258  constructor() Ownable(msg.sender) {} */\n  callvalue\n  dup1\n  iszero\n  tag_1\n  jumpi\n  revert(0x00, 0x00)\ntag_1:\n  pop\n    /* \"D/decentralizedGPU.sol\":1244:1254  msg.sender */\n  caller\n    /* \"@openzeppelin/contracts/access/Ownable.sol\":1297:1298  0 */\n  0x00\n    /* \"@openzeppelin/contracts/access/Ownable.sol\":1273:1299  initialOwner == address(0) */\n  0xffffffffffffffffffffffffffffffffffffffff\n  and\n    /* \"@openzeppelin/contracts/access/Ownable.sol\":1273:1285  initialOwner */\n  dup2\n    /* \"@openzeppelin/contracts/access/Ownable.sol\":1273:1299  initialOwner == address(0) */\n  0xffffffffffffffffffffffffffffffffffffffff\n  and\n  sub\n    /* \"@openzeppelin/contracts/access/Ownable.sol\":1269:1364  if (initialOwner == address(0)) {... */\n  tag_6\n  jumpi\n    /* \"@openzeppelin/contracts/access/Ownable.sol\":1350:1351  0 */\n  0x00\n    /* \"@openzeppelin/contracts/access/Ownable.sol\":1322:1353  OwnableInvalidOwner(address(0)) */\n  mload(0x40)\n  0x1e4fbdf700000000000000000000000000000000000000000000000000000000\n  dup2\n  mstore\n  0x04\n  add\n  tag_7\n  swap2\n  swap1\n  tag_8\n  jump\t// in\ntag_7:\n  mload(0x40)\n  dup1\n  swap2\n  sub\n  swap1\n  revert\n    /* \"@openzeppelin/contracts/access/Ownable.sol\":1269:1364  if (initialOwner == address(0)) {... */\ntag_6:\n    /* \"@openzeppelin/contracts/access/Ownable.sol\":1373:1405  _transferOwnership(initialOwner) */\n  tag_9\n    /* \"@openzeppelin/contracts/access/Ownable.sol\":1392:1404  initialOwner */\n  dup2\n    /* \"@openzeppelin/contracts/access/Ownable.sol\":1373:1391  _transferOwnership */\n  shl(0x20, tag_10)\n    /* \"@openzeppelin/contracts/access/Ownable.sol\":1373:1405  _transferOwnership(initialOwner) */\n  0x20\n  shr\n  jump\t// in\ntag_9:\n    /* \"@openzeppelin/contracts/access/Ownable.sol\":1225:1412  constructor(address initialOwner) {... */\n  pop\n    /* \"@openzeppelin/contracts/security/ReentrancyGuard.sol\":1716:1717  1 */\n  0x01\n    /* \"@openzeppelin/contracts/security/ReentrancyGuard.sol\":1821:1828  _status */\n  dup1\n    /* \"@openzeppelin/contracts/security/ReentrancyGuard.sol\":1821:1843  _status = _NOT_ENTERED */\n  dup2\n  swap1\n  sstore\n  pop\n    /* \"D/decentralizedGPU.sol\":283:4158  contract DecentralizedGPU is Ownable, ReentrancyGuard {... */\n  jump(tag_13)\n    /* \"@openzeppelin/contracts/access/Ownable.sol\":2912:3099  function _transferOwnership(address newOwner) internal virtual {... */\ntag_10:\n    /* \"@openzeppelin/contracts/access/Ownable.sol\":2985:3001  address oldOwner */\n  0x00\n    /* \"@openzeppelin/contracts/access/Ownable.sol\":3004:3010  _owner */\n  0x00\n  0x00\n  swap1\n  sload\n  swap1\n  0x0100\n  exp\n  swap1\n  div\n  0xffffffffffffffffffffffffffffffffffffffff\n  and\n    /* \"@openzeppelin/contracts/access/Ownable.sol\":2985:3010  address oldOwner = _owner */\n  swap1\n  pop\n    /* \"@openzeppelin/contracts/access/Ownable.sol\":3029:3037  newOwner */\n  dup2\n    /* \"@openzeppelin/contracts/access/Ownable.sol\":3020:3026  _owner */\n  0x00\n  0x00\n    /* \"@openzeppelin/contracts/access/Ownable.sol\":3020:3037  _owner = newOwner */\n  0x0100\n  exp\n  dup2\n  sload\n  dup2\n  0xffffffffffffffffffffffffffffffffffffffff\n  mul\n  not\n  and\n  swap1\n  dup4\n  0xffffffffffffffffffffffffffffffffffffffff\n  and\n  mul\n  or\n  swap1\n  sstore\n  pop\n    /* \"@openzeppelin/contracts/access/Ownable.sol\":3083:3091  newOwner */\n  dup2\n    /* \"@openzeppelin/contracts/access/Ownable.sol\":3052:3092  OwnershipTransferred(oldOwner, newOwner) */\n  0xffffffffffffffffffffffffffffffffffffffff\n  and\n    /* \"@openzeppelin/contracts/access/Ownable.sol\":3073:3081  oldOwner */\n  dup2\n    /* \"@openzeppelin/contracts/access/Ownable.sol\":3052:3092  OwnershipTransferred(oldOwner, newOwner) */\n  0xffffffffffffffffffffffffffffffffffffffff\n  and\n  0x8be0079c531659141344cd1fd0a4f28419497f9722a3daafe3b4186f6b6457e0\n  mload(0x40)\n  mload(0x40)\n  dup1\n  swap2\n  sub\n  swap1\n  log3\n    /* \"@openzeppelin/contracts/access/Ownable.sol\":2975:3099  {... */\n  pop\n    /* \"@openzeppelin/contracts/access/Ownable.sol\":2912:3099  function _transferOwnership(address newOwner) internal virtual {... */\n  pop\n  jump\t// out\n    /* \"#utility.yul\":7:133   */\ntag_15:\n    /* \"#utility.yul\":44:51   */\n  0x00\n    /* \"#utility.yul\":84:126   */\n  0xffffffffffffffffffffffffffffffffffffffff\n    /* \"#utility.yul\":77:82   */\n  dup3\n    /* \"#utility.yul\":73:127   */\n  and\n    /* \"#utility.yul\":62:127   */\n  swap1\n  pop\n    /* \"#utility.yul\":7:133   */\n  swap2\n  swap1\n  pop\n  jump\t// out\n    /* \"#utility.yul\":139:235   */\ntag_16:\n    /* \"#utility.yul\":176:183   */\n  0x00\n    /* \"#utility.yul\":205:229   */\n  tag_21\n    /* \"#utility.yul\":223:228   */\n  dup3\n    /* \"#utility.yul\":205:229   */\n  tag_15\n  jump\t// in\ntag_21:\n    /* \"#utility.yul\":194:229   */\n  swap1\n  pop\n    /* \"#utility.yul\":139:235   */\n  swap2\n  swap1\n  pop\n  jump\t// out\n    /* \"#utility.yul\":241:359   */\ntag_17:\n    /* \"#utility.yul\":328:352   */\n  tag_23\n    /* \"#utility.yul\":346:351   */\n  dup2\n    /* \"#utility.yul\":328:352   */\n  tag_16\n  jump\t// in\ntag_23:\n    /* \"#utility.yul\":323:326   */\n  dup3\n    /* \"#utility.yul\":316:353   */\n  mstore\n    /* \"#utility.yul\":241:359   */\n  pop\n  pop\n  jump\t// out\n    /* \"#utility.yul\":365:587   */\ntag_8:\n    /* \"#utility.yul\":458:462   */\n  0x00\n    /* \"#utility.yul\":496:498   */\n  0x20\n    /* \"#utility.yul\":485:494   */\n  dup3\n    /* \"#utility.yul\":481:499   */\n  add\n    /* \"#utility.yul\":473:499   */\n  swap1\n  pop\n    /* \"#utility.yul\":509:580   */\n  tag_25\n    /* \"#utility.yul\":577:578   */\n  0x00\n    /* \"#utility.yul\":566:575   */\n  dup4\n    /* \"#utility.yul\":562:579   */\n  add\n    /* \"#utility.yul\":553:559   */\n  dup5\n    /* \"#utility.yul\":509:580   */\n  tag_17\n  jump\t// in\ntag_25:\n    /* \"#utility.yul\":365:587   */\n  swap3\n  swap2\n  pop\n  pop\n  jump\t// out\n    /* \"D/decentralizedGPU.sol\":283:4158  contract DecentralizedGPU is Ownable, ReentrancyGuard {... */\ntag_13:\n  dataSize(sub_0)\n  dup1\n  dataOffset(sub_0)\n  0x00\n  codecopy\n  0x00\n  return\nstop\n\nsub_0: assembly {\n        /* \"D/decentralizedGPU.sol\":283:4158  contract DecentralizedGPU is Ownable, ReentrancyGuard {... */\n      mstore(0x40, 0x80)\n      jumpi(tag_1, lt(calldatasize, 0x04))\n      shr(0xe0, calldataload(0x00))\n      dup1\n      0x82cb05e5\n      gt\n      tag_14\n      jumpi\n      dup1\n      0x82cb05e5\n      eq\n      tag_8\n      jumpi\n      dup1\n      0x8c3e13b4\n      eq\n      tag_9\n      jumpi\n      dup1\n      0x8da5cb5b\n      eq\n      tag_10\n      jumpi\n      dup1\n      0x97491d6f\n      eq\n      tag_11\n      jumpi\n      dup1\n      0xaf94a1d1\n      eq\n      tag_12\n      jumpi\n      dup1\n      0xf2fde38b\n      eq\n      tag_13\n      jumpi\n      jump(tag_1)\n    tag_14:\n      dup1\n      0x0e64d5c7\n      eq\n      tag_2\n      jumpi\n      dup1\n      0x39b3667e\n      eq\n      tag_3\n      jumpi\n      dup1\n      0x6389ed91\n      eq\n      tag_4\n      jumpi\n      dup1\n      0x652bd29e\n      eq\n      tag_5\n      jumpi\n      dup1\n      0x6e37b9a1\n      eq\n      tag_6\n      jumpi\n      dup1\n      0x715018a6\n      eq\n      tag_7\n      jumpi\n    tag_1:\n      revert(0x00, 0x00)\n        /* \"D/decentralizedGPU.sol\":1940:3126  function rentGPU(uint256 gpuId, uint256 hoursToRent) external payable nonReentrant {... */\n    tag_2:\n      tag_15\n      0x04\n      dup1\n      calldatasize\n      sub\n      dup2\n      add\n      swap1\n      tag_16\n      swap2\n      swap1\n      tag_17\n      jump\t// in\n    tag_16:\n      tag_18\n      jump\t// in\n    tag_15:\n      stop\n        /* \"D/decentralizedGPU.sol\":799:834  mapping(uint256 => GPU) public gpus */\n    tag_3:\n      callvalue\n      dup1\n      iszero\n      tag_19\n      jumpi\n      revert(0x00, 0x00)\n    tag_19:\n      pop\n      tag_20\n      0x04\n      dup1\n      calldatasize\n      sub\n      dup2\n      add\n      swap1\n      tag_21\n      swap2\n      swap1\n      tag_22\n      jump\t// in\n    tag_21:\n      tag_23\n      jump\t// in\n    tag_20:\n      mload(0x40)\n      tag_24\n      swap6\n      swap5\n      swap4\n      swap3\n      swap2\n      swap1\n      tag_25\n      jump\t// in\n    tag_24:\n      mload(0x40)\n      dup1\n      swap2\n      sub\n      swap1\n      return\n        /* \"D/decentralizedGPU.sol\":3714:3815  function getGPU(uint256 gpuId) external view returns (GPU memory) {... */\n    tag_4:\n      callvalue\n      dup1\n      iszero\n      tag_26\n      jumpi\n      revert(0x00, 0x00)\n    tag_26:\n      pop\n      tag_27\n      0x04\n      dup1\n      calldatasize\n      sub\n      dup2\n      add\n      swap1\n      tag_28\n      swap2\n      swap1\n      tag_22\n      jump\t// in\n    tag_28:\n      tag_29\n      jump\t// in\n    tag_27:\n      mload(0x40)\n      tag_30\n      swap2\n      swap1\n      tag_31\n      jump\t// in\n    tag_30:\n      mload(0x40)\n      dup1\n      swap2\n      sub\n      swap1\n      return\n        /* \"D/decentralizedGPU.sol\":3858:3974  function getRental(uint256 rentalId) external view returns (Rental memory) {... */\n    tag_5:\n      callvalue\n      dup1\n      iszero\n      tag_32\n      jumpi\n      revert(0x00, 0x00)\n    tag_32:\n      pop\n      tag_33\n      0x04\n      dup1\n      calldatasize\n      sub\n      dup2\n      add\n      swap1\n      tag_34\n      swap2\n      swap1\n      tag_22\n      jump\t// in\n    tag_34:\n      tag_35\n      jump\t// in\n    tag_33:\n      mload(0x40)\n      tag_36\n      swap2\n      swap1\n      tag_37\n      jump\t// in\n    tag_36:\n      mload(0x40)\n      dup1\n      swap2\n      sub\n      swap1\n      return\n        /* \"D/decentralizedGPU.sol\":1315:1884  function registerGPU(string calldata gpuSpecs, uint256 hourlyRateWei) external nonReentrant {... */\n    tag_6:\n      callvalue\n      dup1\n      iszero\n      tag_38\n      jumpi\n      revert(0x00, 0x00)\n    tag_38:\n      pop\n      tag_39\n      0x04\n      dup1\n      calldatasize\n      sub\n      dup2\n      add\n      swap1\n      tag_40\n      swap2\n      swap1\n      tag_41\n      jump\t// in\n    tag_40:\n      tag_42\n      jump\t// in\n    tag_39:\n      stop\n        /* \"@openzeppelin/contracts/access/Ownable.sol\":2293:2394  function renounceOwnership() public virtual onlyOwner {... */\n    tag_7:\n      callvalue\n      dup1\n      iszero\n      tag_43\n      jumpi\n      revert(0x00, 0x00)\n    tag_43:\n      pop\n      tag_44\n      tag_45\n      jump\t// in\n    tag_44:\n      stop\n        /* \"D/decentralizedGPU.sol\":4030:4156  function getGPUsByOwner(address gpuOwner) external view returns (uint256[] memory) {... */\n    tag_8:\n      callvalue\n      dup1\n      iszero\n      tag_46\n      jumpi\n      revert(0x00, 0x00)\n    tag_46:\n      pop\n      tag_47\n      0x04\n      dup1\n      calldatasize\n      sub\n      dup2\n      add\n      swap1\n      tag_48\n      swap2\n      swap1\n      tag_49\n      jump\t// in\n    tag_48:\n      tag_50\n      jump\t// in\n    tag_47:\n      mload(0x40)\n      tag_51\n      swap2\n      swap1\n      tag_52\n      jump\t// in\n    tag_51:\n      mload(0x40)\n      dup1\n      swap2\n      sub\n      swap1\n      return\n        /* \"D/decentralizedGPU.sol\":887:933  mapping(address => uint256[]) public ownerGPUs */\n    tag_9:\n      callvalue\n      dup1\n      iszero\n      tag_53\n      jumpi\n      revert(0x00, 0x00)\n    tag_53:\n      pop\n      tag_54\n      0x04\n      dup1\n      calldatasize\n      sub\n      dup2\n      add\n      swap1\n      tag_55\n      swap2\n      swap1\n      tag_56\n      jump\t// in\n    tag_55:\n      tag_57\n      jump\t// in\n    tag_54:\n      mload(0x40)\n      tag_58\n      swap2\n      swap1\n      tag_59\n      jump\t// in\n    tag_58:\n      mload(0x40)\n      dup1\n      swap2\n      sub\n      swap1\n      return\n        /* \"@openzeppelin/contracts/access/Ownable.sol\":1638:1723  function owner() public view virtual returns (address) {... */\n    tag_10:\n      callvalue\n      dup1\n      iszero\n      tag_60\n      jumpi\n      revert(0x00, 0x00)\n    tag_60:\n      pop\n      tag_61\n      tag_62\n      jump\t// in\n    tag_61:\n      mload(0x40)\n      tag_63\n      swap2\n      swap1\n      tag_64\n      jump\t// in\n    tag_63:\n      mload(0x40)\n      dup1\n      swap2\n      sub\n      swap1\n      return\n        /* \"D/decentralizedGPU.sol\":3195:3674  function endRental(uint256 rentalId) external nonReentrant {... */\n    tag_11:\n      callvalue\n      dup1\n      iszero\n      tag_65\n      jumpi\n      revert(0x00, 0x00)\n    tag_65:\n      pop\n      tag_66\n      0x04\n      dup1\n      calldatasize\n      sub\n      dup2\n      add\n      swap1\n      tag_67\n      swap2\n      swap1\n      tag_22\n      jump\t// in\n    tag_67:\n      tag_68\n      jump\t// in\n    tag_66:\n      stop\n        /* \"D/decentralizedGPU.sol\":840:881  mapping(uint256 => Rental) public rentals */\n    tag_12:\n      callvalue\n      dup1\n      iszero\n      tag_69\n      jumpi\n      revert(0x00, 0x00)\n    tag_69:\n      pop\n      tag_70\n      0x04\n      dup1\n      calldatasize\n      sub\n      dup2\n      add\n      swap1\n      tag_71\n      swap2\n      swap1\n      tag_22\n      jump\t// in\n    tag_71:\n      tag_72\n      jump\t// in\n    tag_70:\n      mload(0x40)\n      tag_73\n      swap8\n      swap7\n      swap6\n      swap5\n      swap4\n      swap3\n      swap2\n      swap1\n      tag_74\n      jump\t// in\n    tag_73:\n      mload(0x40)\n      dup1\n      swap2\n      sub\n      swap1\n      return\n        /* \"@openzeppelin/contracts/access/Ownable.sol\":2543:2758  function transferOwnership(address newOwner) public virtual onlyOwner {... */\n    tag_13:\n      callvalue\n      dup1\n      iszero\n      tag_75\n      jumpi\n      revert(0x00, 0x00)\n    tag_75:\n      pop\n      tag_76\n      0x04\n      dup1\n      calldatasize\n      sub\n      dup2\n      add\n      swap1\n      tag_77\n      swap2\n      swap1\n      tag_49\n      jump\t// in\n    tag_77:\n      tag_78\n      jump\t// in\n    tag_76:\n      stop\n        /* \"D/decentralizedGPU.sol\":1940:3126  function rentGPU(uint256 gpuId, uint256 hoursToRent) external payable nonReentrant {... */\n    tag_18:\n        /* \"@openzeppelin/contracts/security/ReentrancyGuard.sol\":2261:2282  _nonReentrantBefore() */\n      tag_80\n        /* \"@openzeppelin/contracts/security/ReentrancyGuard.sol\":2261:2280  _nonReentrantBefore */\n      tag_81\n        /* \"@openzeppelin/contracts/security/ReentrancyGuard.sol\":2261:2282  _nonReentrantBefore() */\n      jump\t// in\n    tag_80:\n        /* \"D/decentralizedGPU.sol\":2033:2048  GPU storage gpu */\n      0x00\n        /* \"D/decentralizedGPU.sol\":2051:2055  gpus */\n      0x04\n        /* \"D/decentralizedGPU.sol\":2051:2062  gpus[gpuId] */\n      0x00\n        /* \"D/decentralizedGPU.sol\":2056:2061  gpuId */\n      dup5\n        /* \"D/decentralizedGPU.sol\":2051:2062  gpus[gpuId] */\n      dup2\n      mstore\n      0x20\n      add\n      swap1\n      dup2\n      mstore\n      0x20\n      add\n      0x00\n      keccak256\n        /* \"D/decentralizedGPU.sol\":2033:2062  GPU storage gpu = gpus[gpuId] */\n      swap1\n      pop\n        /* \"D/decentralizedGPU.sol\":2080:2083  gpu */\n      dup1\n        /* \"D/decentralizedGPU.sol\":2080:2093  gpu.available */\n      0x04\n      add\n      0x00\n      swap1\n      sload\n      swap1\n      0x0100\n      exp\n      swap1\n      div\n      0xff\n      and\n        /* \"D/decentralizedGPU.sol\":2072:2115  require(gpu.available, \"GPU not available\") */\n      tag_83\n      jumpi\n      mload(0x40)\n      0x08c379a000000000000000000000000000000000000000000000000000000000\n      dup2\n      mstore\n      0x04\n      add\n      tag_84\n      swap1\n      tag_85\n      jump\t// in\n    tag_84:\n      mload(0x40)\n      dup1\n      swap2\n      sub\n      swap1\n      revert\n    tag_83:\n        /* \"D/decentralizedGPU.sol\":2147:2148  0 */\n      0x00\n        /* \"D/decentralizedGPU.sol\":2133:2144  hoursToRent */\n      dup3\n        /* \"D/decentralizedGPU.sol\":2133:2148  hoursToRent > 0 */\n      gt\n        /* \"D/decentralizedGPU.sol\":2125:2175  require(hoursToRent > 0, \"Rent duration required\") */\n      tag_86\n      jumpi\n      mload(0x40)\n      0x08c379a000000000000000000000000000000000000000000000000000000000\n      dup2\n      mstore\n      0x04\n      add\n      tag_87\n      swap1\n      tag_88\n      jump\t// in\n    tag_87:\n      mload(0x40)\n      dup1\n      swap2\n      sub\n      swap1\n      revert\n    tag_86:\n        /* \"D/decentralizedGPU.sol\":2186:2203  uint256 totalCost */\n      0x00\n        /* \"D/decentralizedGPU.sol\":2226:2237  hoursToRent */\n      dup3\n        /* \"D/decentralizedGPU.sol\":2206:2209  gpu */\n      dup3\n        /* \"D/decentralizedGPU.sol\":2206:2223  gpu.hourlyRateWei */\n      0x03\n      add\n      sload\n        /* \"D/decentralizedGPU.sol\":2206:2237  gpu.hourlyRateWei * hoursToRent */\n      tag_89\n      swap2\n      swap1\n      tag_90\n      jump\t// in\n    tag_89:\n        /* \"D/decentralizedGPU.sol\":2186:2237  uint256 totalCost = gpu.hourlyRateWei * hoursToRent */\n      swap1\n      pop\n        /* \"D/decentralizedGPU.sol\":2268:2277  totalCost */\n      dup1\n        /* \"D/decentralizedGPU.sol\":2255:2264  msg.value */\n      callvalue\n        /* \"D/decentralizedGPU.sol\":2255:2277  msg.value >= totalCost */\n      lt\n      iszero\n        /* \"D/decentralizedGPU.sol\":2247:2302  require(msg.value >= totalCost, \"Insufficient payment\") */\n      tag_91\n      jumpi\n      mload(0x40)\n      0x08c379a000000000000000000000000000000000000000000000000000000000\n      dup2\n      mstore\n      0x04\n      add\n      tag_92\n      swap1\n      tag_93\n      jump\t// in\n    tag_92:\n      mload(0x40)\n      dup1\n      swap2\n      sub\n      swap1\n      revert\n    tag_91:\n        /* \"D/decentralizedGPU.sol\":2329:2334  false */\n      0x00\n        /* \"D/decentralizedGPU.sol\":2313:2316  gpu */\n      dup3\n        /* \"D/decentralizedGPU.sol\":2313:2326  gpu.available */\n      0x04\n      add\n      0x00\n        /* \"D/decentralizedGPU.sol\":2313:2334  gpu.available = false */\n      0x0100\n      exp\n      dup2\n      sload\n      dup2\n      0xff\n      mul\n      not\n      and\n      swap1\n      dup4\n      iszero\n      iszero\n      mul\n      or\n      swap1\n      sstore\n      pop\n        /* \"D/decentralizedGPU.sol\":2345:2361  uint256 rentalId */\n      0x00\n        /* \"D/decentralizedGPU.sol\":2364:2376  nextRentalId */\n      0x03\n      0x00\n        /* \"D/decentralizedGPU.sol\":2364:2378  nextRentalId++ */\n      dup2\n      sload\n      dup1\n      swap3\n      swap2\n      swap1\n      tag_94\n      swap1\n      tag_95\n      jump\t// in\n    tag_94:\n      swap2\n      swap1\n      pop\n      sstore\n        /* \"D/decentralizedGPU.sol\":2345:2378  uint256 rentalId = nextRentalId++ */\n      swap1\n      pop\n        /* \"D/decentralizedGPU.sol\":2408:2680  Rental({... */\n      mload(0x40)\n      dup1\n      0xe0\n      add\n      0x40\n      mstore\n      dup1\n        /* \"D/decentralizedGPU.sol\":2439:2447  rentalId */\n      dup3\n        /* \"D/decentralizedGPU.sol\":2408:2680  Rental({... */\n      dup2\n      mstore\n      0x20\n      add\n        /* \"D/decentralizedGPU.sol\":2468:2473  gpuId */\n      dup7\n        /* \"D/decentralizedGPU.sol\":2408:2680  Rental({... */\n      dup2\n      mstore\n      0x20\n      add\n        /* \"D/decentralizedGPU.sol\":2495:2505  msg.sender */\n      caller\n        /* \"D/decentralizedGPU.sol\":2408:2680  Rental({... */\n      0xffffffffffffffffffffffffffffffffffffffff\n      and\n      dup2\n      mstore\n      0x20\n      add\n        /* \"D/decentralizedGPU.sol\":2530:2545  block.timestamp */\n      timestamp\n        /* \"D/decentralizedGPU.sol\":2408:2680  Rental({... */\n      dup2\n      mstore\n      0x20\n      add\n        /* \"D/decentralizedGPU.sol\":2601:2608  1 hours */\n      0x0e10\n        /* \"D/decentralizedGPU.sol\":2587:2598  hoursToRent */\n      dup7\n        /* \"D/decentralizedGPU.sol\":2587:2608  hoursToRent * 1 hours */\n      tag_96\n      swap2\n      swap1\n      tag_90\n      jump\t// in\n    tag_96:\n        /* \"D/decentralizedGPU.sol\":2568:2583  block.timestamp */\n      timestamp\n        /* \"D/decentralizedGPU.sol\":2568:2609  block.timestamp + (hoursToRent * 1 hours) */\n      tag_97\n      swap2\n      swap1\n      tag_98\n      jump\t// in\n    tag_97:\n        /* \"D/decentralizedGPU.sol\":2408:2680  Rental({... */\n      dup2\n      mstore\n      0x20\n      add\n        /* \"D/decentralizedGPU.sol\":2634:2643  totalCost */\n      dup4\n        /* \"D/decentralizedGPU.sol\":2408:2680  Rental({... */\n      dup2\n      mstore\n      0x20\n      add\n        /* \"D/decentralizedGPU.sol\":2665:2669  true */\n      0x01\n        /* \"D/decentralizedGPU.sol\":2408:2680  Rental({... */\n      iszero\n      iszero\n      dup2\n      mstore\n      pop\n        /* \"D/decentralizedGPU.sol\":2388:2395  rentals */\n      0x05\n        /* \"D/decentralizedGPU.sol\":2388:2405  rentals[rentalId] */\n      0x00\n        /* \"D/decentralizedGPU.sol\":2396:2404  rentalId */\n      dup4\n        /* \"D/decentralizedGPU.sol\":2388:2405  rentals[rentalId] */\n      dup2\n      mstore\n      0x20\n      add\n      swap1\n      dup2\n      mstore\n      0x20\n      add\n      0x00\n      keccak256\n        /* \"D/decentralizedGPU.sol\":2388:2680  rentals[rentalId] = Rental({... */\n      0x00\n      dup3\n      add\n      mload\n      dup2\n      0x00\n      add\n      sstore\n      0x20\n      dup3\n      add\n      mload\n      dup2\n      0x01\n      add\n      sstore\n      0x40\n      dup3\n      add\n      mload\n      dup2\n      0x02\n      add\n      exp(0x0100, 0x00)\n      dup2\n      sload\n      dup2\n      0xffffffffffffffffffffffffffffffffffffffff\n      mul\n      not\n      and\n      swap1\n      dup4\n      0xffffffffffffffffffffffffffffffffffffffff\n      and\n      mul\n      or\n      swap1\n      sstore\n      pop\n      0x60\n      dup3\n      add\n      mload\n      dup2\n      0x03\n      add\n      sstore\n      0x80\n      dup3\n      add\n      mload\n      dup2\n      0x04\n      add\n      sstore\n      0xa0\n      dup3\n      add\n      mload\n      dup2\n      0x05\n      add\n      sstore\n      0xc0\n      dup3\n      add\n      mload\n      dup2\n      0x06\n      add\n      exp(0x0100, 0x00)\n      dup2\n      sload\n      dup2\n      0xff\n      mul\n      not\n      and\n      swap1\n      dup4\n      iszero\n      iszero\n      mul\n      or\n      swap1\n      sstore\n      pop\n      swap1\n      pop\n      pop\n        /* \"D/decentralizedGPU.sol\":2745:2754  bool sent */\n      0x00\n        /* \"D/decentralizedGPU.sol\":2767:2770  gpu */\n      dup4\n        /* \"D/decentralizedGPU.sol\":2767:2776  gpu.owner */\n      0x01\n      add\n      0x00\n      swap1\n      sload\n      swap1\n      0x0100\n      exp\n      swap1\n      div\n      0xffffffffffffffffffffffffffffffffffffffff\n      and\n        /* \"D/decentralizedGPU.sol\":2759:2782  payable(gpu.owner).call */\n      0xffffffffffffffffffffffffffffffffffffffff\n      and\n        /* \"D/decentralizedGPU.sol\":2790:2799  totalCost */\n      dup4\n        /* \"D/decentralizedGPU.sol\":2759:2804  payable(gpu.owner).call{value: totalCost}(\"\") */\n      mload(0x40)\n      tag_99\n      swap1\n      tag_100\n      jump\t// in\n    tag_99:\n      0x00\n      mload(0x40)\n      dup1\n      dup4\n      sub\n      dup2\n      dup6\n      dup8\n      gas\n      call\n      swap3\n      pop\n      pop\n      pop\n      returndatasize\n      dup1\n      0x00\n      dup2\n      eq\n      tag_103\n      jumpi\n      mload(0x40)\n      swap2\n      pop\n      and(add(returndatasize, 0x3f), not(0x1f))\n      dup3\n      add\n      0x40\n      mstore\n      returndatasize\n      dup3\n      mstore\n      returndatasize\n      0x00\n      0x20\n      dup5\n      add\n      returndatacopy\n      jump(tag_102)\n    tag_103:\n      0x60\n      swap2\n      pop\n    tag_102:\n      pop\n        /* \"D/decentralizedGPU.sol\":2744:2804  (bool sent,) = payable(gpu.owner).call{value: totalCost}(\"\") */\n      pop\n      swap1\n      pop\n        /* \"D/decentralizedGPU.sol\":2822:2826  sent */\n      dup1\n        /* \"D/decentralizedGPU.sol\":2814:2845  require(sent, \"Payment failed\") */\n      tag_104\n      jumpi\n      mload(0x40)\n      0x08c379a000000000000000000000000000000000000000000000000000000000\n      dup2\n      mstore\n      0x04\n      add\n      tag_105\n      swap1\n      tag_106\n      jump\t// in\n    tag_105:\n      mload(0x40)\n      dup1\n      swap2\n      sub\n      swap1\n      revert\n    tag_104:\n        /* \"D/decentralizedGPU.sol\":2909:2918  totalCost */\n      dup3\n        /* \"D/decentralizedGPU.sol\":2897:2906  msg.value */\n      callvalue\n        /* \"D/decentralizedGPU.sol\":2897:2918  msg.value > totalCost */\n      gt\n        /* \"D/decentralizedGPU.sol\":2893:3066  if (msg.value > totalCost) {... */\n      iszero\n      tag_107\n      jumpi\n        /* \"D/decentralizedGPU.sol\":2935:2946  bool refund */\n      0x00\n        /* \"D/decentralizedGPU.sol\":2959:2969  msg.sender */\n      caller\n        /* \"D/decentralizedGPU.sol\":2951:2975  payable(msg.sender).call */\n      0xffffffffffffffffffffffffffffffffffffffff\n      and\n        /* \"D/decentralizedGPU.sol\":2995:3004  totalCost */\n      dup5\n        /* \"D/decentralizedGPU.sol\":2983:2992  msg.value */\n      callvalue\n        /* \"D/decentralizedGPU.sol\":2983:3004  msg.value - totalCost */\n      tag_108\n      swap2\n      swap1\n      tag_109\n      jump\t// in\n    tag_108:\n        /* \"D/decentralizedGPU.sol\":2951:3009  payable(msg.sender).call{value: msg.value - totalCost}(\"\") */\n      mload(0x40)\n      tag_110\n      swap1\n      tag_100\n      jump\t// in\n    tag_110:\n      0x00\n      mload(0x40)\n      dup1\n      dup4\n      sub\n      dup2\n      dup6\n      dup8\n      gas\n      call\n      swap3\n      pop\n      pop\n      pop\n      returndatasize\n      dup1\n      0x00\n      dup2\n      eq\n      tag_113\n      jumpi\n      mload(0x40)\n      swap2\n      pop\n      and(add(returndatasize, 0x3f), not(0x1f))\n      dup3\n      add\n      0x40\n      mstore\n      returndatasize\n      dup3\n      mstore\n      returndatasize\n      0x00\n      0x20\n      dup5\n      add\n      returndatacopy\n      jump(tag_112)\n    tag_113:\n      0x60\n      swap2\n      pop\n    tag_112:\n      pop\n        /* \"D/decentralizedGPU.sol\":2934:3009  (bool refund,) = payable(msg.sender).call{value: msg.value - totalCost}(\"\") */\n      pop\n      swap1\n      pop\n        /* \"D/decentralizedGPU.sol\":3031:3037  refund */\n      dup1\n        /* \"D/decentralizedGPU.sol\":3023:3055  require(refund, \"Refund failed\") */\n      tag_114\n      jumpi\n      mload(0x40)\n      0x08c379a000000000000000000000000000000000000000000000000000000000\n      dup2\n      mstore\n      0x04\n      add\n      tag_115\n      swap1\n      tag_116\n      jump\t// in\n    tag_115:\n      mload(0x40)\n      dup1\n      swap2\n      sub\n      swap1\n      revert\n    tag_114:\n        /* \"D/decentralizedGPU.sol\":2920:3066  {... */\n      pop\n        /* \"D/decentralizedGPU.sol\":2893:3066  if (msg.value > totalCost) {... */\n    tag_107:\n        /* \"D/decentralizedGPU.sol\":3108:3118  msg.sender */\n      caller\n        /* \"D/decentralizedGPU.sol\":3081:3119  GPURented(rentalId, gpuId, msg.sender) */\n      0xffffffffffffffffffffffffffffffffffffffff\n      and\n        /* \"D/decentralizedGPU.sol\":3101:3106  gpuId */\n      dup7\n        /* \"D/decentralizedGPU.sol\":3091:3099  rentalId */\n      dup4\n        /* \"D/decentralizedGPU.sol\":3081:3119  GPURented(rentalId, gpuId, msg.sender) */\n      0xd70b183971c661a9a151dc824d0449b4d75b4aace9100d1167cfa75ed19c071f\n      mload(0x40)\n      mload(0x40)\n      dup1\n      swap2\n      sub\n      swap1\n      log4\n        /* \"D/decentralizedGPU.sol\":2023:3126  {... */\n      pop\n      pop\n      pop\n      pop\n        /* \"@openzeppelin/contracts/security/ReentrancyGuard.sol\":2303:2323  _nonReentrantAfter() */\n      tag_117\n        /* \"@openzeppelin/contracts/security/ReentrancyGuard.sol\":2303:2321  _nonReentrantAfter */\n      tag_118\n        /* \"@openzeppelin/contracts/security/ReentrancyGuard.sol\":2303:2323  _nonReentrantAfter() */\n      jump\t// in\n    tag_117:\n        /* \"D/decentralizedGPU.sol\":1940:3126  function rentGPU(uint256 gpuId, uint256 hoursToRent) external payable nonReentrant {... */\n      pop\n      pop\n      jump\t// out\n        /* \"D/decentralizedGPU.sol\":799:834  mapping(uint256 => GPU) public gpus */\n    tag_23:\n      mstore(0x20, 0x04)\n      dup1\n      0x00\n      mstore\n      keccak256(0x00, 0x40)\n      0x00\n      swap2\n      pop\n      swap1\n      pop\n      dup1\n      0x00\n      add\n      sload\n      swap1\n      dup1\n      0x01\n      add\n      0x00\n      swap1\n      sload\n      swap1\n      0x0100\n      exp\n      swap1\n      div\n      0xffffffffffffffffffffffffffffffffffffffff\n      and\n      swap1\n      dup1\n      0x02\n      add\n      dup1\n      sload\n      tag_119\n      swap1\n      tag_120\n      jump\t// in\n    tag_119:\n      dup1\n      0x1f\n      add\n      0x20\n      dup1\n      swap2\n      div\n      mul\n      0x20\n      add\n      mload(0x40)\n      swap1\n      dup2\n      add\n      0x40\n      mstore\n      dup1\n      swap3\n      swap2\n      swap1\n      dup2\n      dup2\n      mstore\n      0x20\n      add\n      dup3\n      dup1\n      sload\n      tag_121\n      swap1\n      tag_120\n      jump\t// in\n    tag_121:\n      dup1\n      iszero\n      tag_122\n      jumpi\n      dup1\n      0x1f\n      lt\n      tag_123\n      jumpi\n      0x0100\n      dup1\n      dup4\n      sload\n      div\n      mul\n      dup4\n      mstore\n      swap2\n      0x20\n      add\n      swap2\n      jump(tag_122)\n    tag_123:\n      dup3\n      add\n      swap2\n      swap1\n      0x00\n      mstore\n      keccak256(0x00, 0x20)\n      swap1\n    tag_124:\n      dup2\n      sload\n      dup2\n      mstore\n      swap1\n      0x01\n      add\n      swap1\n      0x20\n      add\n      dup1\n      dup4\n      gt\n      tag_124\n      jumpi\n      dup3\n      swap1\n      sub\n      0x1f\n      and\n      dup3\n      add\n      swap2\n    tag_122:\n      pop\n      pop\n      pop\n      pop\n      pop\n      swap1\n      dup1\n      0x03\n      add\n      sload\n      swap1\n      dup1\n      0x04\n      add\n      0x00\n      swap1\n      sload\n      swap1\n      0x0100\n      exp\n      swap1\n      div\n      0xff\n      and\n      swap1\n      pop\n      dup6\n      jump\t// out\n        /* \"D/decentralizedGPU.sol\":3714:3815  function getGPU(uint256 gpuId) external view returns (GPU memory) {... */\n    tag_29:\n        /* \"D/decentralizedGPU.sol\":3768:3778  GPU memory */\n      tag_125\n      tag_126\n      jump\t// in\n    tag_125:\n        /* \"D/decentralizedGPU.sol\":3797:3801  gpus */\n      0x04\n        /* \"D/decentralizedGPU.sol\":3797:3808  gpus[gpuId] */\n      0x00\n        /* \"D/decentralizedGPU.sol\":3802:3807  gpuId */\n      dup4\n        /* \"D/decentralizedGPU.sol\":3797:3808  gpus[gpuId] */\n      dup2\n      mstore\n      0x20\n      add\n      swap1\n      dup2\n      mstore\n      0x20\n      add\n      0x00\n      keccak256\n        /* \"D/decentralizedGPU.sol\":3790:3808  return gpus[gpuId] */\n      mload(0x40)\n      dup1\n      0xa0\n      add\n      0x40\n      mstore\n      swap1\n      dup2\n      0x00\n      dup3\n      add\n      sload\n      dup2\n      mstore\n      0x20\n      add\n      0x01\n      dup3\n      add\n      0x00\n      swap1\n      sload\n      swap1\n      0x0100\n      exp\n      swap1\n      div\n      0xffffffffffffffffffffffffffffffffffffffff\n      and\n      0xffffffffffffffffffffffffffffffffffffffff\n      and\n      0xffffffffffffffffffffffffffffffffffffffff\n      and\n      dup2\n      mstore\n      0x20\n      add\n      0x02\n      dup3\n      add\n      dup1\n      sload\n      tag_128\n      swap1\n      tag_120\n      jump\t// in\n    tag_128:\n      dup1\n      0x1f\n      add\n      0x20\n      dup1\n      swap2\n      div\n      mul\n      0x20\n      add\n      mload(0x40)\n      swap1\n      dup2\n      add\n      0x40\n      mstore\n      dup1\n      swap3\n      swap2\n      swap1\n      dup2\n      dup2\n      mstore\n      0x20\n      add\n      dup3\n      dup1\n      sload\n      tag_129\n      swap1\n      tag_120\n      jump\t// in\n    tag_129:\n      dup1\n      iszero\n      tag_130\n      jumpi\n      dup1\n      0x1f\n      lt\n      tag_131\n      jumpi\n      0x0100\n      dup1\n      dup4\n      sload\n      div\n      mul\n      dup4\n      mstore\n      swap2\n      0x20\n      add\n      swap2\n      jump(tag_130)\n    tag_131:\n      dup3\n      add\n      swap2\n      swap1\n      0x00\n      mstore\n      keccak256(0x00, 0x20)\n      swap1\n    tag_132:\n      dup2\n      sload\n      dup2\n      mstore\n      swap1\n      0x01\n      add\n      swap1\n      0x20\n      add\n      dup1\n      dup4\n      gt\n      tag_132\n      jumpi\n      dup3\n      swap1\n      sub\n      0x1f\n      and\n      dup3\n      add\n      swap2\n    tag_130:\n      pop\n      pop\n      pop\n      pop\n      pop\n      dup2\n      mstore\n      0x20\n      add\n      0x03\n      dup3\n      add\n      sload\n      dup2\n      mstore\n      0x20\n      add\n      0x04\n      dup3\n      add\n      0x00\n      swap1\n      sload\n      swap1\n      0x0100\n      exp\n      swap1\n      div\n      0xff\n      and\n      iszero\n      iszero\n      iszero\n      iszero\n      dup2\n      mstore\n      pop\n      pop\n      swap1\n      pop\n        /* \"D/decentralizedGPU.sol\":3714:3815  function getGPU(uint256 gpuId) external view returns (GPU memory) {... */\n      swap2\n      swap1\n      pop\n      jump\t// out\n        /* \"D/decentralizedGPU.sol\":3858:3974  function getRental(uint256 rentalId) external view returns (Rental memory) {... */\n    tag_35:\n        /* \"D/decentralizedGPU.sol\":3918:3931  Rental memory */\n      tag_133\n      tag_134\n      jump\t// in\n    tag_133:\n        /* \"D/decentralizedGPU.sol\":3950:3957  rentals */\n      0x05\n        /* \"D/decentralizedGPU.sol\":3950:3967  rentals[rentalId] */\n      0x00\n        /* \"D/decentralizedGPU.sol\":3958:3966  rentalId */\n      dup4\n        /* \"D/decentralizedGPU.sol\":3950:3967  rentals[rentalId] */\n      dup2\n      mstore\n      0x20\n      add\n      swap1\n      dup2\n      mstore\n      0x20\n      add\n      0x00\n      keccak256\n        /* \"D/decentralizedGPU.sol\":3943:3967  return rentals[rentalId] */\n      mload(0x40)\n      dup1\n      0xe0\n      add\n      0x40\n      mstore\n      swap1\n      dup2\n      0x00\n      dup3\n      add\n      sload\n      dup2\n      mstore\n      0x20\n      add\n      0x01\n      dup3\n      add\n      sload\n      dup2\n      mstore\n      0x20\n      add\n      0x02\n      dup3\n      add\n      0x00\n      swap1\n      sload\n      swap1\n      0x0100\n      exp\n      swap1\n      div\n      0xffffffffffffffffffffffffffffffffffffffff\n      and\n      0xffffffffffffffffffffffffffffffffffffffff\n      and\n      0xffffffffffffffffffffffffffffffffffffffff\n      and\n      dup2\n      mstore\n      0x20\n      add\n      0x03\n      dup3\n      add\n      sload\n      dup2\n      mstore\n      0x20\n      add\n      0x04\n      dup3\n      add\n      sload\n      dup2\n      mstore\n      0x20\n      add\n      0x05\n      dup3\n      add\n      sload\n      dup2\n      mstore\n      0x20\n      add\n      0x06\n      dup3\n      add\n      0x00\n      swap1\n      sload\n      swap1\n      0x0100\n      exp\n      swap1\n      div\n      0xff\n      and\n      iszero\n      iszero\n      iszero\n      iszero\n      dup2\n      mstore\n      pop\n      pop\n      swap1\n      pop\n        /* \"D/decentralizedGPU.sol\":3858:3974  function getRental(uint256 rentalId) external view returns (Rental memory) {... */\n      swap2\n      swap1\n      pop\n      jump\t// out\n        /* \"D/decentralizedGPU.sol\":1315:1884  function registerGPU(string calldata gpuSpecs, uint256 hourlyRateWei) external nonReentrant {... */\n    tag_42:\n        /* \"@openzeppelin/contracts/security/ReentrancyGuard.sol\":2261:2282  _nonReentrantBefore() */\n      tag_137\n        /* \"@openzeppelin/contracts/security/ReentrancyGuard.sol\":2261:2280  _nonReentrantBefore */\n      tag_81\n        /* \"@openzeppelin/contracts/security/ReentrancyGuard.sol\":2261:2282  _nonReentrantBefore() */\n      jump\t// in\n    tag_137:\n        /* \"D/decentralizedGPU.sol\":1450:1451  0 */\n      0x00\n        /* \"D/decentralizedGPU.sol\":1431:1439  gpuSpecs */\n      dup4\n      dup4\n        /* \"D/decentralizedGPU.sol\":1425:1447  bytes(gpuSpecs).length */\n      swap1\n      pop\n        /* \"D/decentralizedGPU.sol\":1425:1451  bytes(gpuSpecs).length > 0 */\n      gt\n        /* \"D/decentralizedGPU.sol\":1417:1474  require(bytes(gpuSpecs).length > 0, \"GPU specs required\") */\n      tag_139\n      jumpi\n      mload(0x40)\n      0x08c379a000000000000000000000000000000000000000000000000000000000\n      dup2\n      mstore\n      0x04\n      add\n      tag_140\n      swap1\n      tag_141\n      jump\t// in\n    tag_140:\n      mload(0x40)\n      dup1\n      swap2\n      sub\n      swap1\n      revert\n    tag_139:\n        /* \"D/decentralizedGPU.sol\":1508:1509  0 */\n      0x00\n        /* \"D/decentralizedGPU.sol\":1492:1505  hourlyRateWei */\n      dup2\n        /* \"D/decentralizedGPU.sol\":1492:1509  hourlyRateWei > 0 */\n      gt\n        /* \"D/decentralizedGPU.sol\":1484:1548  require(hourlyRateWei > 0, \"Hourly rate must be greater than 0\") */\n      tag_142\n      jumpi\n      mload(0x40)\n      0x08c379a000000000000000000000000000000000000000000000000000000000\n      dup2\n      mstore\n      0x04\n      add\n      tag_143\n      swap1\n      tag_144\n      jump\t// in\n    tag_143:\n      mload(0x40)\n      dup1\n      swap2\n      sub\n      swap1\n      revert\n    tag_142:\n        /* \"D/decentralizedGPU.sol\":1559:1572  uint256 gpuId */\n      0x00\n        /* \"D/decentralizedGPU.sol\":1575:1584  nextGpuId */\n      0x02\n      0x00\n        /* \"D/decentralizedGPU.sol\":1575:1586  nextGpuId++ */\n      dup2\n      sload\n      dup1\n      swap3\n      swap2\n      swap1\n      tag_145\n      swap1\n      tag_95\n      jump\t// in\n    tag_145:\n      swap2\n      swap1\n      pop\n      sstore\n        /* \"D/decentralizedGPU.sol\":1559:1586  uint256 gpuId = nextGpuId++ */\n      swap1\n      pop\n        /* \"D/decentralizedGPU.sol\":1610:1785  GPU({... */\n      mload(0x40)\n      dup1\n      0xa0\n      add\n      0x40\n      mstore\n      dup1\n        /* \"D/decentralizedGPU.sol\":1635:1640  gpuId */\n      dup3\n        /* \"D/decentralizedGPU.sol\":1610:1785  GPU({... */\n      dup2\n      mstore\n      0x20\n      add\n        /* \"D/decentralizedGPU.sol\":1661:1671  msg.sender */\n      caller\n        /* \"D/decentralizedGPU.sol\":1610:1785  GPU({... */\n      0xffffffffffffffffffffffffffffffffffffffff\n      and\n      dup2\n      mstore\n      0x20\n      add\n        /* \"D/decentralizedGPU.sol\":1695:1703  gpuSpecs */\n      dup6\n      dup6\n        /* \"D/decentralizedGPU.sol\":1610:1785  GPU({... */\n      dup1\n      dup1\n      0x1f\n      add\n      0x20\n      dup1\n      swap2\n      div\n      mul\n      0x20\n      add\n      mload(0x40)\n      swap1\n      dup2\n      add\n      0x40\n      mstore\n      dup1\n      swap4\n      swap3\n      swap2\n      swap1\n      dup2\n      dup2\n      mstore\n      0x20\n      add\n      dup4\n      dup4\n      dup1\n      dup3\n      dup5\n      calldatacopy\n      0x00\n      dup2\n      dup5\n      add\n      mstore\n      not(0x1f)\n      0x1f\n      dup3\n      add\n      and\n      swap1\n      pop\n      dup1\n      dup4\n      add\n      swap3\n      pop\n      pop\n      pop\n      pop\n      pop\n      pop\n      pop\n      dup2\n      mstore\n      0x20\n      add\n        /* \"D/decentralizedGPU.sol\":1732:1745  hourlyRateWei */\n      dup4\n        /* \"D/decentralizedGPU.sol\":1610:1785  GPU({... */\n      dup2\n      mstore\n      0x20\n      add\n        /* \"D/decentralizedGPU.sol\":1770:1774  true */\n      0x01\n        /* \"D/decentralizedGPU.sol\":1610:1785  GPU({... */\n      iszero\n      iszero\n      dup2\n      mstore\n      pop\n        /* \"D/decentralizedGPU.sol\":1596:1600  gpus */\n      0x04\n        /* \"D/decentralizedGPU.sol\":1596:1607  gpus[gpuId] */\n      0x00\n        /* \"D/decentralizedGPU.sol\":1601:1606  gpuId */\n      dup4\n        /* \"D/decentralizedGPU.sol\":1596:1607  gpus[gpuId] */\n      dup2\n      mstore\n      0x20\n      add\n      swap1\n      dup2\n      mstore\n      0x20\n      add\n      0x00\n      keccak256\n        /* \"D/decentralizedGPU.sol\":1596:1785  gpus[gpuId] = GPU({... */\n      0x00\n      dup3\n      add\n      mload\n      dup2\n      0x00\n      add\n      sstore\n      0x20\n      dup3\n      add\n      mload\n      dup2\n      0x01\n      add\n      exp(0x0100, 0x00)\n      dup2\n      sload\n      dup2\n      0xffffffffffffffffffffffffffffffffffffffff\n      mul\n      not\n      and\n      swap1\n      dup4\n      0xffffffffffffffffffffffffffffffffffffffff\n      and\n      mul\n      or\n      swap1\n      sstore\n      pop\n      0x40\n      dup3\n      add\n      mload\n      dup2\n      0x02\n      add\n      swap1\n      dup2\n      tag_146\n      swap2\n      swap1\n      tag_147\n      jump\t// in\n    tag_146:\n      pop\n      0x60\n      dup3\n      add\n      mload\n      dup2\n      0x03\n      add\n      sstore\n      0x80\n      dup3\n      add\n      mload\n      dup2\n      0x04\n      add\n      exp(0x0100, 0x00)\n      dup2\n      sload\n      dup2\n      0xff\n      mul\n      not\n      and\n      swap1\n      dup4\n      iszero\n      iszero\n      mul\n      or\n      swap1\n      sstore\n      pop\n      swap1\n      pop\n      pop\n        /* \"D/decentralizedGPU.sol\":1796:1805  ownerGPUs */\n      0x06\n        /* \"D/decentralizedGPU.sol\":1796:1817  ownerGPUs[msg.sender] */\n      0x00\n        /* \"D/decentralizedGPU.sol\":1806:1816  msg.sender */\n      caller\n        /* \"D/decentralizedGPU.sol\":1796:1817  ownerGPUs[msg.sender] */\n      0xffffffffffffffffffffffffffffffffffffffff\n      and\n      0xffffffffffffffffffffffffffffffffffffffff\n      and\n      dup2\n      mstore\n      0x20\n      add\n      swap1\n      dup2\n      mstore\n      0x20\n      add\n      0x00\n      keccak256\n        /* \"D/decentralizedGPU.sol\":1823:1828  gpuId */\n      dup2\n        /* \"D/decentralizedGPU.sol\":1796:1829  ownerGPUs[msg.sender].push(gpuId) */\n      swap1\n      dup1\n      0x01\n      dup2\n      sload\n      add\n      dup1\n      dup3\n      sstore\n      dup1\n      swap2\n      pop\n      pop\n      0x01\n      swap1\n      sub\n      swap1\n      0x00\n      mstore\n      keccak256(0x00, 0x20)\n      add\n      0x00\n      swap1\n      swap2\n      swap1\n      swap2\n      swap1\n      swap2\n      pop\n      sstore\n        /* \"D/decentralizedGPU.sol\":1866:1876  msg.sender */\n      caller\n        /* \"D/decentralizedGPU.sol\":1845:1877  GPURegistered(gpuId, msg.sender) */\n      0xffffffffffffffffffffffffffffffffffffffff\n      and\n        /* \"D/decentralizedGPU.sol\":1859:1864  gpuId */\n      dup2\n        /* \"D/decentralizedGPU.sol\":1845:1877  GPURegistered(gpuId, msg.sender) */\n      0xe284dd765e7ac52a09e2b878ddde2dd8097ba235e1557a6dd394a445fad9f2e9\n      mload(0x40)\n      mload(0x40)\n      dup1\n      swap2\n      sub\n      swap1\n      log3\n        /* \"D/decentralizedGPU.sol\":1407:1884  {... */\n      pop\n        /* \"@openzeppelin/contracts/security/ReentrancyGuard.sol\":2303:2323  _nonReentrantAfter() */\n      tag_149\n        /* \"@openzeppelin/contracts/security/ReentrancyGuard.sol\":2303:2321  _nonReentrantAfter */\n      tag_118\n        /* \"@openzeppelin/contracts/security/ReentrancyGuard.sol\":2303:2323  _nonReentrantAfter() */\n      jump\t// in\n    tag_149:\n        /* \"D/decentralizedGPU.sol\":1315:1884  function registerGPU(string calldata gpuSpecs, uint256 hourlyRateWei) external nonReentrant {... */\n      pop\n      pop\n      pop\n      jump\t// out\n        /* \"@openzeppelin/contracts/access/Ownable.sol\":2293:2394  function renounceOwnership() public virtual onlyOwner {... */\n    tag_45:\n        /* \"@openzeppelin/contracts/access/Ownable.sol\":1531:1544  _checkOwner() */\n      tag_151\n        /* \"@openzeppelin/contracts/access/Ownable.sol\":1531:1542  _checkOwner */\n      tag_152\n        /* \"@openzeppelin/contracts/access/Ownable.sol\":1531:1544  _checkOwner() */\n      jump\t// in\n    tag_151:\n        /* \"@openzeppelin/contracts/access/Ownable.sol\":2357:2387  _transferOwnership(address(0)) */\n      tag_154\n        /* \"@openzeppelin/contracts/access/Ownable.sol\":2384:2385  0 */\n      0x00\n        /* \"@openzeppelin/contracts/access/Ownable.sol\":2357:2375  _transferOwnership */\n      tag_155\n        /* \"@openzeppelin/contracts/access/Ownable.sol\":2357:2387  _transferOwnership(address(0)) */\n      jump\t// in\n    tag_154:\n        /* \"@openzeppelin/contracts/access/Ownable.sol\":2293:2394  function renounceOwnership() public virtual onlyOwner {... */\n      jump\t// out\n        /* \"D/decentralizedGPU.sol\":4030:4156  function getGPUsByOwner(address gpuOwner) external view returns (uint256[] memory) {... */\n    tag_50:\n        /* \"D/decentralizedGPU.sol\":4095:4111  uint256[] memory */\n      0x60\n        /* \"D/decentralizedGPU.sol\":4130:4139  ownerGPUs */\n      0x06\n        /* \"D/decentralizedGPU.sol\":4130:4149  ownerGPUs[gpuOwner] */\n      0x00\n        /* \"D/decentralizedGPU.sol\":4140:4148  gpuOwner */\n      dup4\n        /* \"D/decentralizedGPU.sol\":4130:4149  ownerGPUs[gpuOwner] */\n      0xffffffffffffffffffffffffffffffffffffffff\n      and\n      0xffffffffffffffffffffffffffffffffffffffff\n      and\n      dup2\n      mstore\n      0x20\n      add\n      swap1\n      dup2\n      mstore\n      0x20\n      add\n      0x00\n      keccak256\n        /* \"D/decentralizedGPU.sol\":4123:4149  return ownerGPUs[gpuOwner] */\n      dup1\n      sload\n      dup1\n      0x20\n      mul\n      0x20\n      add\n      mload(0x40)\n      swap1\n      dup2\n      add\n      0x40\n      mstore\n      dup1\n      swap3\n      swap2\n      swap1\n      dup2\n      dup2\n      mstore\n      0x20\n      add\n      dup3\n      dup1\n      sload\n      dup1\n      iszero\n      tag_157\n      jumpi\n      0x20\n      mul\n      dup3\n      add\n      swap2\n      swap1\n      0x00\n      mstore\n      keccak256(0x00, 0x20)\n      swap1\n    tag_158:\n      dup2\n      sload\n      dup2\n      mstore\n      0x20\n      add\n      swap1\n      0x01\n      add\n      swap1\n      dup1\n      dup4\n      gt\n      tag_158\n      jumpi\n    tag_157:\n      pop\n      pop\n      pop\n      pop\n      pop\n      swap1\n      pop\n        /* \"D/decentralizedGPU.sol\":4030:4156  function getGPUsByOwner(address gpuOwner) external view returns (uint256[] memory) {... */\n      swap2\n      swap1\n      pop\n      jump\t// out\n        /* \"D/decentralizedGPU.sol\":887:933  mapping(address => uint256[]) public ownerGPUs */\n    tag_57:\n      mstore(0x20, 0x06)\n      dup2\n      0x00\n      mstore\n      keccak256(0x00, 0x40)\n      dup2\n      dup2\n      sload\n      dup2\n      lt\n      tag_159\n      jumpi\n      0x00\n      dup1\n      revert\n    tag_159:\n      swap1\n      0x00\n      mstore\n      keccak256(0x00, 0x20)\n      add\n      0x00\n      swap2\n      pop\n      swap2\n      pop\n      pop\n      sload\n      dup2\n      jump\t// out\n        /* \"@openzeppelin/contracts/access/Ownable.sol\":1638:1723  function owner() public view virtual returns (address) {... */\n    tag_62:\n        /* \"@openzeppelin/contracts/access/Ownable.sol\":1684:1691  address */\n      0x00\n        /* \"@openzeppelin/contracts/access/Ownable.sol\":1710:1716  _owner */\n      0x00\n      0x00\n      swap1\n      sload\n      swap1\n      0x0100\n      exp\n      swap1\n      div\n      0xffffffffffffffffffffffffffffffffffffffff\n      and\n        /* \"@openzeppelin/contracts/access/Ownable.sol\":1703:1716  return _owner */\n      swap1\n      pop\n        /* \"@openzeppelin/contracts/access/Ownable.sol\":1638:1723  function owner() public view virtual returns (address) {... */\n      swap1\n      jump\t// out\n        /* \"D/decentralizedGPU.sol\":3195:3674  function endRental(uint256 rentalId) external nonReentrant {... */\n    tag_68:\n        /* \"@openzeppelin/contracts/security/ReentrancyGuard.sol\":2261:2282  _nonReentrantBefore() */\n      tag_163\n        /* \"@openzeppelin/contracts/security/ReentrancyGuard.sol\":2261:2280  _nonReentrantBefore */\n      tag_81\n        /* \"@openzeppelin/contracts/security/ReentrancyGuard.sol\":2261:2282  _nonReentrantBefore() */\n      jump\t// in\n    tag_163:\n        /* \"D/decentralizedGPU.sol\":3264:3285  Rental storage rental */\n      0x00\n        /* \"D/decentralizedGPU.sol\":3288:3295  rentals */\n      0x05\n        /* \"D/decentralizedGPU.sol\":3288:3305  rentals[rentalId] */\n      0x00\n        /* \"D/decentralizedGPU.sol\":3296:3304  rentalId */\n      dup4\n        /* \"D/decentralizedGPU.sol\":3288:3305  rentals[rentalId] */\n      dup2\n      mstore\n      0x20\n      add\n      swap1\n      dup2\n      mstore\n      0x20\n      add\n      0x00\n      keccak256\n        /* \"D/decentralizedGPU.sol\":3264:3305  Rental storage rental = rentals[rentalId] */\n      swap1\n      pop\n        /* \"D/decentralizedGPU.sol\":3315:3330  GPU storage gpu */\n      0x00\n        /* \"D/decentralizedGPU.sol\":3333:3337  gpus */\n      0x04\n        /* \"D/decentralizedGPU.sol\":3333:3351  gpus[rental.gpuId] */\n      0x00\n        /* \"D/decentralizedGPU.sol\":3338:3344  rental */\n      dup4\n        /* \"D/decentralizedGPU.sol\":3338:3350  rental.gpuId */\n      0x01\n      add\n      sload\n        /* \"D/decentralizedGPU.sol\":3333:3351  gpus[rental.gpuId] */\n      dup2\n      mstore\n      0x20\n      add\n      swap1\n      dup2\n      mstore\n      0x20\n      add\n      0x00\n      keccak256\n        /* \"D/decentralizedGPU.sol\":3315:3351  GPU storage gpu = gpus[rental.gpuId] */\n      swap1\n      pop\n        /* \"D/decentralizedGPU.sol\":3370:3376  rental */\n      dup2\n        /* \"D/decentralizedGPU.sol\":3370:3383  rental.active */\n      0x06\n      add\n      0x00\n      swap1\n      sload\n      swap1\n      0x0100\n      exp\n      swap1\n      div\n      0xff\n      and\n        /* \"D/decentralizedGPU.sol\":3362:3408  require(rental.active, \"Rental already ended\") */\n      tag_165\n      jumpi\n      mload(0x40)\n      0x08c379a000000000000000000000000000000000000000000000000000000000\n      dup2\n      mstore\n      0x04\n      add\n      tag_166\n      swap1\n      tag_167\n      jump\t// in\n    tag_166:\n      mload(0x40)\n      dup1\n      swap2\n      sub\n      swap1\n      revert\n    tag_165:\n        /* \"D/decentralizedGPU.sol\":3445:3451  rental */\n      dup2\n        /* \"D/decentralizedGPU.sol\":3445:3459  rental.endTime */\n      0x04\n      add\n      sload\n        /* \"D/decentralizedGPU.sol\":3426:3441  block.timestamp */\n      timestamp\n        /* \"D/decentralizedGPU.sol\":3426:3459  block.timestamp >= rental.endTime */\n      lt\n      iszero\n        /* \"D/decentralizedGPU.sol\":3426:3486  block.timestamp >= rental.endTime || msg.sender == gpu.owner */\n      dup1\n      tag_168\n      jumpi\n      pop\n        /* \"D/decentralizedGPU.sol\":3477:3480  gpu */\n      dup1\n        /* \"D/decentralizedGPU.sol\":3477:3486  gpu.owner */\n      0x01\n      add\n      0x00\n      swap1\n      sload\n      swap1\n      0x0100\n      exp\n      swap1\n      div\n      0xffffffffffffffffffffffffffffffffffffffff\n      and\n        /* \"D/decentralizedGPU.sol\":3463:3486  msg.sender == gpu.owner */\n      0xffffffffffffffffffffffffffffffffffffffff\n      and\n        /* \"D/decentralizedGPU.sol\":3463:3473  msg.sender */\n      caller\n        /* \"D/decentralizedGPU.sol\":3463:3486  msg.sender == gpu.owner */\n      0xffffffffffffffffffffffffffffffffffffffff\n      and\n      eq\n        /* \"D/decentralizedGPU.sol\":3426:3486  block.timestamp >= rental.endTime || msg.sender == gpu.owner */\n    tag_168:\n        /* \"D/decentralizedGPU.sol\":3418:3521  require(block.timestamp >= rental.endTime || msg.sender == gpu.owner, \"Rental ongoing or unauthorized\") */\n      tag_169\n      jumpi\n      mload(0x40)\n      0x08c379a000000000000000000000000000000000000000000000000000000000\n      dup2\n      mstore\n      0x04\n      add\n      tag_170\n      swap1\n      tag_171\n      jump\t// in\n    tag_170:\n      mload(0x40)\n      dup1\n      swap2\n      sub\n      swap1\n      revert\n    tag_169:\n        /* \"D/decentralizedGPU.sol\":3548:3553  false */\n      0x00\n        /* \"D/decentralizedGPU.sol\":3532:3538  rental */\n      dup3\n        /* \"D/decentralizedGPU.sol\":3532:3545  rental.active */\n      0x06\n      add\n      0x00\n        /* \"D/decentralizedGPU.sol\":3532:3553  rental.active = false */\n      0x0100\n      exp\n      dup2\n      sload\n      dup2\n      0xff\n      mul\n      not\n      and\n      swap1\n      dup4\n      iszero\n      iszero\n      mul\n      or\n      swap1\n      sstore\n      pop\n        /* \"D/decentralizedGPU.sol\":3579:3583  true */\n      0x01\n        /* \"D/decentralizedGPU.sol\":3563:3566  gpu */\n      dup2\n        /* \"D/decentralizedGPU.sol\":3563:3576  gpu.available */\n      0x04\n      add\n      0x00\n        /* \"D/decentralizedGPU.sol\":3563:3583  gpu.available = true */\n      0x0100\n      exp\n      dup2\n      sload\n      dup2\n      0xff\n      mul\n      not\n      and\n      swap1\n      dup4\n      iszero\n      iszero\n      mul\n      or\n      swap1\n      sstore\n      pop\n        /* \"D/decentralizedGPU.sol\":3635:3641  rental */\n      dup2\n        /* \"D/decentralizedGPU.sol\":3635:3648  rental.renter */\n      0x02\n      add\n      0x00\n      swap1\n      sload\n      swap1\n      0x0100\n      exp\n      swap1\n      div\n      0xffffffffffffffffffffffffffffffffffffffff\n      and\n        /* \"D/decentralizedGPU.sol\":3599:3667  RentalEnded(rentalId, rental.gpuId, rental.renter, rental.totalPaid) */\n      0xffffffffffffffffffffffffffffffffffffffff\n      and\n        /* \"D/decentralizedGPU.sol\":3621:3627  rental */\n      dup3\n        /* \"D/decentralizedGPU.sol\":3621:3633  rental.gpuId */\n      0x01\n      add\n      sload\n        /* \"D/decentralizedGPU.sol\":3611:3619  rentalId */\n      dup5\n        /* \"D/decentralizedGPU.sol\":3599:3667  RentalEnded(rentalId, rental.gpuId, rental.renter, rental.totalPaid) */\n      0x9029911798a27031bb9f46434e021a30a97443750dee7d58e4aaa0741726694e\n        /* \"D/decentralizedGPU.sol\":3650:3656  rental */\n      dup6\n        /* \"D/decentralizedGPU.sol\":3650:3666  rental.totalPaid */\n      0x05\n      add\n      sload\n        /* \"D/decentralizedGPU.sol\":3599:3667  RentalEnded(rentalId, rental.gpuId, rental.renter, rental.totalPaid) */\n      mload(0x40)\n      tag_172\n      swap2\n      swap1\n      tag_59\n      jump\t// in\n    tag_172:\n      mload(0x40)\n      dup1\n      swap2\n      sub\n      swap1\n      log4\n        /* \"D/decentralizedGPU.sol\":3254:3674  {... */\n      pop\n      pop\n        /* \"@openzeppelin/contracts/security/ReentrancyGuard.sol\":2303:2323  _nonReentrantAfter() */\n      tag_173\n        /* \"@openzeppelin/contracts/security/ReentrancyGuard.sol\":2303:2321  _nonReentrantAfter */\n      tag_118\n        /* \"@openzeppelin/contracts/security/ReentrancyGuard.sol\":2303:2323  _nonReentrantAfter() */\n      jump\t// in\n    tag_173:\n        /* \"D/decentralizedGPU.sol\":3195:3674  function endRental(uint256 rentalId) external nonReentrant {... */\n      pop\n      jump\t// out\n        /* \"D/decentralizedGPU.sol\":840:881  mapping(uint256 => Rental) public rentals */\n    tag_72:\n      mstore(0x20, 0x05)\n      dup1\n      0x00\n      mstore\n      keccak256(0x00, 0x40)\n      0x00\n      swap2\n      pop\n      swap1\n      pop\n      dup1\n      0x00\n      add\n      sload\n      swap1\n      dup1\n      0x01\n      add\n      sload\n      swap1\n      dup1\n      0x02\n      add\n      0x00\n      swap1\n      sload\n      swap1\n      0x0100\n      exp\n      swap1\n      div\n      0xffffffffffffffffffffffffffffffffffffffff\n      and\n      swap1\n      dup1\n      0x03\n      add\n      sload\n      swap1\n      dup1\n      0x04\n      add\n      sload\n      swap1\n      dup1\n      0x05\n      add\n      sload\n      swap1\n      dup1\n      0x06\n      add\n      0x00\n      swap1\n      sload\n      swap1\n      0x0100\n      exp\n      swap1\n      div\n      0xff\n      and\n      swap1\n      pop\n      dup8\n      jump\t// out\n        /* \"@openzeppelin/contracts/access/Ownable.sol\":2543:2758  function transferOwnership(address newOwner) public virtual onlyOwner {... */\n    tag_78:\n        /* \"@openzeppelin/contracts/access/Ownable.sol\":1531:1544  _checkOwner() */\n      tag_175\n        /* \"@openzeppelin/contracts/access/Ownable.sol\":1531:1542  _checkOwner */\n      tag_152\n        /* \"@openzeppelin/contracts/access/Ownable.sol\":1531:1544  _checkOwner() */\n      jump\t// in\n    tag_175:\n        /* \"@openzeppelin/contracts/access/Ownable.sol\":2647:2648  0 */\n      0x00\n        /* \"@openzeppelin/contracts/access/Ownable.sol\":2627:2649  newOwner == address(0) */\n      0xffffffffffffffffffffffffffffffffffffffff\n      and\n        /* \"@openzeppelin/contracts/access/Ownable.sol\":2627:2635  newOwner */\n      dup2\n        /* \"@openzeppelin/contracts/access/Ownable.sol\":2627:2649  newOwner == address(0) */\n      0xffffffffffffffffffffffffffffffffffffffff\n      and\n      sub\n        /* \"@openzeppelin/contracts/access/Ownable.sol\":2623:2714  if (newOwner == address(0)) {... */\n      tag_177\n      jumpi\n        /* \"@openzeppelin/contracts/access/Ownable.sol\":2700:2701  0 */\n      0x00\n        /* \"@openzeppelin/contracts/access/Ownable.sol\":2672:2703  OwnableInvalidOwner(address(0)) */\n      mload(0x40)\n      0x1e4fbdf700000000000000000000000000000000000000000000000000000000\n      dup2\n      mstore\n      0x04\n      add\n      tag_178\n      swap2\n      swap1\n      tag_64\n      jump\t// in\n    tag_178:\n      mload(0x40)\n      dup1\n      swap2\n      sub\n      swap1\n      revert\n        /* \"@openzeppelin/contracts/access/Ownable.sol\":2623:2714  if (newOwner == address(0)) {... */\n    tag_177:\n        /* \"@openzeppelin/contracts/access/Ownable.sol\":2723:2751  _transferOwnership(newOwner) */\n      tag_179\n        /* \"@openzeppelin/contracts/access/Ownable.sol\":2742:2750  newOwner */\n      dup2\n        /* \"@openzeppelin/contracts/access/Ownable.sol\":2723:2741  _transferOwnership */\n      tag_155\n        /* \"@openzeppelin/contracts/access/Ownable.sol\":2723:2751  _transferOwnership(newOwner) */\n      jump\t// in\n    tag_179:\n        /* \"@openzeppelin/contracts/access/Ownable.sol\":2543:2758  function transferOwnership(address newOwner) public virtual onlyOwner {... */\n      pop\n      jump\t// out\n        /* \"@openzeppelin/contracts/security/ReentrancyGuard.sol\":2336:2623  function _nonReentrantBefore() private {... */\n    tag_81:\n        /* \"@openzeppelin/contracts/security/ReentrancyGuard.sol\":1759:1760  2 */\n      0x02\n        /* \"@openzeppelin/contracts/security/ReentrancyGuard.sol\":2468:2475  _status */\n      sload(0x01)\n        /* \"@openzeppelin/contracts/security/ReentrancyGuard.sol\":2468:2487  _status != _ENTERED */\n      sub\n        /* \"@openzeppelin/contracts/security/ReentrancyGuard.sol\":2460:2523  require(_status != _ENTERED, \"ReentrancyGuard: reentrant call\") */\n      tag_181\n      jumpi\n      mload(0x40)\n      0x08c379a000000000000000000000000000000000000000000000000000000000\n      dup2\n      mstore\n      0x04\n      add\n      tag_182\n      swap1\n      tag_183\n      jump\t// in\n    tag_182:\n      mload(0x40)\n      dup1\n      swap2\n      sub\n      swap1\n      revert\n    tag_181:\n        /* \"@openzeppelin/contracts/security/ReentrancyGuard.sol\":1759:1760  2 */\n      0x02\n        /* \"@openzeppelin/contracts/security/ReentrancyGuard.sol\":2598:2605  _status */\n      0x01\n        /* \"@openzeppelin/contracts/security/ReentrancyGuard.sol\":2598:2616  _status = _ENTERED */\n      dup2\n      swap1\n      sstore\n      pop\n        /* \"@openzeppelin/contracts/security/ReentrancyGuard.sol\":2336:2623  function _nonReentrantBefore() private {... */\n      jump\t// out\n        /* \"@openzeppelin/contracts/security/ReentrancyGuard.sol\":2629:2838  function _nonReentrantAfter() private {... */\n    tag_118:\n        /* \"@openzeppelin/contracts/security/ReentrancyGuard.sol\":1716:1717  1 */\n      0x01\n        /* \"@openzeppelin/contracts/security/ReentrancyGuard.sol\":2809:2816  _status */\n      dup1\n        /* \"@openzeppelin/contracts/security/ReentrancyGuard.sol\":2809:2831  _status = _NOT_ENTERED */\n      dup2\n      swap1\n      sstore\n      pop\n        /* \"@openzeppelin/contracts/security/ReentrancyGuard.sol\":2629:2838  function _nonReentrantAfter() private {... */\n      jump\t// out\n        /* \"@openzeppelin/contracts/access/Ownable.sol\":1796:1958  function _checkOwner() internal view virtual {... */\n    tag_152:\n        /* \"@openzeppelin/contracts/access/Ownable.sol\":1866:1878  _msgSender() */\n      tag_186\n        /* \"@openzeppelin/contracts/access/Ownable.sol\":1866:1876  _msgSender */\n      tag_187\n        /* \"@openzeppelin/contracts/access/Ownable.sol\":1866:1878  _msgSender() */\n      jump\t// in\n    tag_186:\n        /* \"@openzeppelin/contracts/access/Ownable.sol\":1855:1878  owner() != _msgSender() */\n      0xffffffffffffffffffffffffffffffffffffffff\n      and\n        /* \"@openzeppelin/contracts/access/Ownable.sol\":1855:1862  owner() */\n      tag_188\n        /* \"@openzeppelin/contracts/access/Ownable.sol\":1855:1860  owner */\n      tag_62\n        /* \"@openzeppelin/contracts/access/Ownable.sol\":1855:1862  owner() */\n      jump\t// in\n    tag_188:\n        /* \"@openzeppelin/contracts/access/Ownable.sol\":1855:1878  owner() != _msgSender() */\n      0xffffffffffffffffffffffffffffffffffffffff\n      and\n      eq\n        /* \"@openzeppelin/contracts/access/Ownable.sol\":1851:1952  if (owner() != _msgSender()) {... */\n      tag_189\n      jumpi\n        /* \"@openzeppelin/contracts/access/Ownable.sol\":1928:1940  _msgSender() */\n      tag_190\n        /* \"@openzeppelin/contracts/access/Ownable.sol\":1928:1938  _msgSender */\n      tag_187\n        /* \"@openzeppelin/contracts/access/Ownable.sol\":1928:1940  _msgSender() */\n      jump\t// in\n    tag_190:\n        /* \"@openzeppelin/contracts/access/Ownable.sol\":1901:1941  OwnableUnauthorizedAccount(_msgSender()) */\n      mload(0x40)\n      0x118cdaa700000000000000000000000000000000000000000000000000000000\n      dup2\n      mstore\n      0x04\n      add\n      tag_191\n      swap2\n      swap1\n      tag_64\n      jump\t// in\n    tag_191:\n      mload(0x40)\n      dup1\n      swap2\n      sub\n      swap1\n      revert\n        /* \"@openzeppelin/contracts/access/Ownable.sol\":1851:1952  if (owner() != _msgSender()) {... */\n    tag_189:\n        /* \"@openzeppelin/contracts/access/Ownable.sol\":1796:1958  function _checkOwner() internal view virtual {... */\n      jump\t// out\n        /* \"@openzeppelin/contracts/access/Ownable.sol\":2912:3099  function _transferOwnership(address newOwner) internal virtual {... */\n    tag_155:\n        /* \"@openzeppelin/contracts/access/Ownable.sol\":2985:3001  address oldOwner */\n      0x00\n        /* \"@openzeppelin/contracts/access/Ownable.sol\":3004:3010  _owner */\n      0x00\n      0x00\n      swap1\n      sload\n      swap1\n      0x0100\n      exp\n      swap1\n      div\n      0xffffffffffffffffffffffffffffffffffffffff\n      and\n        /* \"@openzeppelin/contracts/access/Ownable.sol\":2985:3010  address oldOwner = _owner */\n      swap1\n      pop\n        /* \"@openzeppelin/contracts/access/Ownable.sol\":3029:3037  newOwner */\n      dup2\n        /* \"@openzeppelin/contracts/access/Ownable.sol\":3020:3026  _owner */\n      0x00\n      0x00\n        /* \"@openzeppelin/contracts/access/Ownable.sol\":3020:3037  _owner = newOwner */\n      0x0100\n      exp\n      dup2\n      sload\n      dup2\n      0xffffffffffffffffffffffffffffffffffffffff\n      mul\n      not\n      and\n      swap1\n      dup4\n      0xffffffffffffffffffffffffffffffffffffffff\n      and\n      mul\n      or\n      swap1\n      sstore\n      pop\n        /* \"@openzeppelin/contracts/access/Ownable.sol\":3083:3091  newOwner */\n      dup2\n        /* \"@openzeppelin/contracts/access/Ownable.sol\":3052:3092  OwnershipTransferred(oldOwner, newOwner) */\n      0xffffffffffffffffffffffffffffffffffffffff\n      and\n        /* \"@openzeppelin/contracts/access/Ownable.sol\":3073:3081  oldOwner */\n      dup2\n        /* \"@openzeppelin/contracts/access/Ownable.sol\":3052:3092  OwnershipTransferred(oldOwner, newOwner) */\n      0xffffffffffffffffffffffffffffffffffffffff\n      and\n      0x8be0079c531659141344cd1fd0a4f28419497f9722a3daafe3b4186f6b6457e0\n      mload(0x40)\n      mload(0x40)\n      dup1\n      swap2\n      sub\n      swap1\n      log3\n        /* \"@openzeppelin/contracts/access/Ownable.sol\":2975:3099  {... */\n      pop\n        /* \"@openzeppelin/contracts/access/Ownable.sol\":2912:3099  function _transferOwnership(address newOwner) internal virtual {... */\n      pop\n      jump\t// out\n        /* \"@openzeppelin/contracts/utils/Context.sol\":656:752  function _msgSender() internal view virtual returns (address) {... */\n    tag_187:\n        /* \"@openzeppelin/contracts/utils/Context.sol\":709:716  address */\n      0x00\n        /* \"@openzeppelin/contracts/utils/Context.sol\":735:745  msg.sender */\n      caller\n        /* \"@openzeppelin/contracts/utils/Context.sol\":728:745  return msg.sender */\n      swap1\n      pop\n        /* \"@openzeppelin/contracts/utils/Context.sol\":656:752  function _msgSender() internal view virtual returns (address) {... */\n      swap1\n      jump\t// out\n    tag_126:\n      mload(0x40)\n      dup1\n      0xa0\n      add\n      0x40\n      mstore\n      dup1\n      0x00\n      dup2\n      mstore\n      0x20\n      add\n      and(0xffffffffffffffffffffffffffffffffffffffff, 0x00)\n      dup2\n      mstore\n      0x20\n      add\n      0x60\n      dup2\n      mstore\n      0x20\n      add\n      0x00\n      dup2\n      mstore\n      0x20\n      add\n      iszero(iszero(0x00))\n      dup2\n      mstore\n      pop\n      swap1\n      jump\t// out\n    tag_134:\n      mload(0x40)\n      dup1\n      0xe0\n      add\n      0x40\n      mstore\n      dup1\n      0x00\n      dup2\n      mstore\n      0x20\n      add\n      0x00\n      dup2\n      mstore\n      0x20\n      add\n      and(0xffffffffffffffffffffffffffffffffffffffff, 0x00)\n      dup2\n      mstore\n      0x20\n      add\n      0x00\n      dup2\n      mstore\n      0x20\n      add\n      0x00\n      dup2\n      mstore\n      0x20\n      add\n      0x00\n      dup2\n      mstore\n      0x20\n      add\n      iszero(iszero(0x00))\n      dup2\n      mstore\n      pop\n      swap1\n      jump\t// out\n        /* \"#utility.yul\":88:205   */\n    tag_195:\n        /* \"#utility.yul\":197:198   */\n      0x00\n        /* \"#utility.yul\":194:195   */\n      0x00\n        /* \"#utility.yul\":187:199   */\n      revert\n        /* \"#utility.yul\":211:328   */\n    tag_196:\n        /* \"#utility.yul\":320:321   */\n      0x00\n        /* \"#utility.yul\":317:318   */\n      0x00\n        /* \"#utility.yul\":310:322   */\n      revert\n        /* \"#utility.yul\":334:411   */\n    tag_197:\n        /* \"#utility.yul\":371:378   */\n      0x00\n        /* \"#utility.yul\":400:405   */\n      dup2\n        /* \"#utility.yul\":389:405   */\n      swap1\n      pop\n        /* \"#utility.yul\":334:411   */\n      swap2\n      swap1\n      pop\n      jump\t// out\n        /* \"#utility.yul\":417:539   */\n    tag_198:\n        /* \"#utility.yul\":490:514   */\n      tag_277\n        /* \"#utility.yul\":508:513   */\n      dup2\n        /* \"#utility.yul\":490:514   */\n      tag_197\n      jump\t// in\n    tag_277:\n        /* \"#utility.yul\":483:488   */\n      dup2\n        /* \"#utility.yul\":480:515   */\n      eq\n        /* \"#utility.yul\":470:533   */\n      tag_278\n      jumpi\n        /* \"#utility.yul\":529:530   */\n      0x00\n        /* \"#utility.yul\":526:527   */\n      0x00\n        /* \"#utility.yul\":519:531   */\n      revert\n        /* \"#utility.yul\":470:533   */\n    tag_278:\n        /* \"#utility.yul\":417:539   */\n      pop\n      jump\t// out\n        /* \"#utility.yul\":545:684   */\n    tag_199:\n        /* \"#utility.yul\":591:596   */\n      0x00\n        /* \"#utility.yul\":629:635   */\n      dup2\n        /* \"#utility.yul\":616:636   */\n      calldataload\n        /* \"#utility.yul\":607:636   */\n      swap1\n      pop\n        /* \"#utility.yul\":645:678   */\n      tag_280\n        /* \"#utility.yul\":672:677   */\n      dup2\n        /* \"#utility.yul\":645:678   */\n      tag_198\n      jump\t// in\n    tag_280:\n        /* \"#utility.yul\":545:684   */\n      swap3\n      swap2\n      pop\n      pop\n      jump\t// out\n        /* \"#utility.yul\":690:1164   */\n    tag_17:\n        /* \"#utility.yul\":758:764   */\n      0x00\n        /* \"#utility.yul\":766:772   */\n      0x00\n        /* \"#utility.yul\":815:817   */\n      0x40\n        /* \"#utility.yul\":803:812   */\n      dup4\n        /* \"#utility.yul\":794:801   */\n      dup6\n        /* \"#utility.yul\":790:813   */\n      sub\n        /* \"#utility.yul\":786:818   */\n      slt\n        /* \"#utility.yul\":783:902   */\n      iszero\n      tag_282\n      jumpi\n        /* \"#utility.yul\":821:900   */\n      tag_283\n      tag_195\n      jump\t// in\n    tag_283:\n        /* \"#utility.yul\":783:902   */\n    tag_282:\n        /* \"#utility.yul\":941:942   */\n      0x00\n        /* \"#utility.yul\":966:1019   */\n      tag_284\n        /* \"#utility.yul\":1011:1018   */\n      dup6\n        /* \"#utility.yul\":1002:1008   */\n      dup3\n        /* \"#utility.yul\":991:1000   */\n      dup7\n        /* \"#utility.yul\":987:1009   */\n      add\n        /* \"#utility.yul\":966:1019   */\n      tag_199\n      jump\t// in\n    tag_284:\n        /* \"#utility.yul\":956:1019   */\n      swap3\n      pop\n        /* \"#utility.yul\":912:1029   */\n      pop\n        /* \"#utility.yul\":1068:1070   */\n      0x20\n        /* \"#utility.yul\":1094:1147   */\n      tag_285\n        /* \"#utility.yul\":1139:1146   */\n      dup6\n        /* \"#utility.yul\":1130:1136   */\n      dup3\n        /* \"#utility.yul\":1119:1128   */\n      dup7\n        /* \"#utility.yul\":1115:1137   */\n      add\n        /* \"#utility.yul\":1094:1147   */\n      tag_199\n      jump\t// in\n    tag_285:\n        /* \"#utility.yul\":1084:1147   */\n      swap2\n      pop\n        /* \"#utility.yul\":1039:1157   */\n      pop\n        /* \"#utility.yul\":690:1164   */\n      swap3\n      pop\n      swap3\n      swap1\n      pop\n      jump\t// out\n        /* \"#utility.yul\":1170:1499   */\n    tag_22:\n        /* \"#utility.yul\":1229:1235   */\n      0x00\n        /* \"#utility.yul\":1278:1280   */\n      0x20\n        /* \"#utility.yul\":1266:1275   */\n      dup3\n        /* \"#utility.yul\":1257:1264   */\n      dup5\n        /* \"#utility.yul\":1253:1276   */\n      sub\n        /* \"#utility.yul\":1249:1281   */\n      slt\n        /* \"#utility.yul\":1246:1365   */\n      iszero\n      tag_287\n      jumpi\n        /* \"#utility.yul\":1284:1363   */\n      tag_288\n      tag_195\n      jump\t// in\n    tag_288:\n        /* \"#utility.yul\":1246:1365   */\n    tag_287:\n        /* \"#utility.yul\":1404:1405   */\n      0x00\n        /* \"#utility.yul\":1429:1482   */\n      tag_289\n        /* \"#utility.yul\":1474:1481   */\n      dup5\n        /* \"#utility.yul\":1465:1471   */\n      dup3\n        /* \"#utility.yul\":1454:1463   */\n      dup6\n        /* \"#utility.yul\":1450:1472   */\n      add\n        /* \"#utility.yul\":1429:1482   */\n      tag_199\n      jump\t// in\n    tag_289:\n        /* \"#utility.yul\":1419:1482   */\n      swap2\n      pop\n        /* \"#utility.yul\":1375:1492   */\n      pop\n        /* \"#utility.yul\":1170:1499   */\n      swap3\n      swap2\n      pop\n      pop\n      jump\t// out\n        /* \"#utility.yul\":1505:1623   */\n    tag_200:\n        /* \"#utility.yul\":1592:1616   */\n      tag_291\n        /* \"#utility.yul\":1610:1615   */\n      dup2\n        /* \"#utility.yul\":1592:1616   */\n      tag_197\n      jump\t// in\n    tag_291:\n        /* \"#utility.yul\":1587:1590   */\n      dup3\n        /* \"#utility.yul\":1580:1617   */\n      mstore\n        /* \"#utility.yul\":1505:1623   */\n      pop\n      pop\n      jump\t// out\n        /* \"#utility.yul\":1629:1755   */\n    tag_201:\n        /* \"#utility.yul\":1666:1673   */\n      0x00\n        /* \"#utility.yul\":1706:1748   */\n      0xffffffffffffffffffffffffffffffffffffffff\n        /* \"#utility.yul\":1699:1704   */\n      dup3\n        /* \"#utility.yul\":1695:1749   */\n      and\n        /* \"#utility.yul\":1684:1749   */\n      swap1\n      pop\n        /* \"#utility.yul\":1629:1755   */\n      swap2\n      swap1\n      pop\n      jump\t// out\n        /* \"#utility.yul\":1761:1857   */\n    tag_202:\n        /* \"#utility.yul\":1798:1805   */\n      0x00\n        /* \"#utility.yul\":1827:1851   */\n      tag_294\n        /* \"#utility.yul\":1845:1850   */\n      dup3\n        /* \"#utility.yul\":1827:1851   */\n      tag_201\n      jump\t// in\n    tag_294:\n        /* \"#utility.yul\":1816:1851   */\n      swap1\n      pop\n        /* \"#utility.yul\":1761:1857   */\n      swap2\n      swap1\n      pop\n      jump\t// out\n        /* \"#utility.yul\":1863:1981   */\n    tag_203:\n        /* \"#utility.yul\":1950:1974   */\n      tag_296\n        /* \"#utility.yul\":1968:1973   */\n      dup2\n        /* \"#utility.yul\":1950:1974   */\n      tag_202\n      jump\t// in\n    tag_296:\n        /* \"#utility.yul\":1945:1948   */\n      dup3\n        /* \"#utility.yul\":1938:1975   */\n      mstore\n        /* \"#utility.yul\":1863:1981   */\n      pop\n      pop\n      jump\t// out\n        /* \"#utility.yul\":1987:2086   */\n    tag_204:\n        /* \"#utility.yul\":2039:2045   */\n      0x00\n        /* \"#utility.yul\":2073:2078   */\n      dup2\n        /* \"#utility.yul\":2067:2079   */\n      mload\n        /* \"#utility.yul\":2057:2079   */\n      swap1\n      pop\n        /* \"#utility.yul\":1987:2086   */\n      swap2\n      swap1\n      pop\n      jump\t// out\n        /* \"#utility.yul\":2092:2261   */\n    tag_205:\n        /* \"#utility.yul\":2176:2187   */\n      0x00\n        /* \"#utility.yul\":2210:2216   */\n      dup3\n        /* \"#utility.yul\":2205:2208   */\n      dup3\n        /* \"#utility.yul\":2198:2217   */\n      mstore\n        /* \"#utility.yul\":2250:2254   */\n      0x20\n        /* \"#utility.yul\":2245:2248   */\n      dup3\n        /* \"#utility.yul\":2241:2255   */\n      add\n        /* \"#utility.yul\":2226:2255   */\n      swap1\n      pop\n        /* \"#utility.yul\":2092:2261   */\n      swap3\n      swap2\n      pop\n      pop\n      jump\t// out\n        /* \"#utility.yul\":2267:2406   */\n    tag_206:\n        /* \"#utility.yul\":2356:2362   */\n      dup3\n        /* \"#utility.yul\":2351:2354   */\n      dup2\n        /* \"#utility.yul\":2346:2349   */\n      dup4\n        /* \"#utility.yul\":2340:2363   */\n      mcopy\n        /* \"#utility.yul\":2397:2398   */\n      0x00\n        /* \"#utility.yul\":2388:2394   */\n      dup4\n        /* \"#utility.yul\":2383:2386   */\n      dup4\n        /* \"#utility.yul\":2379:2395   */\n      add\n        /* \"#utility.yul\":2372:2399   */\n      mstore\n        /* \"#utility.yul\":2267:2406   */\n      pop\n      pop\n      pop\n      jump\t// out\n        /* \"#utility.yul\":2412:2514   */\n    tag_207:\n        /* \"#utility.yul\":2453:2459   */\n      0x00\n        /* \"#utility.yul\":2504:2506   */\n      0x1f\n        /* \"#utility.yul\":2500:2507   */\n      not\n        /* \"#utility.yul\":2495:2497   */\n      0x1f\n        /* \"#utility.yul\":2488:2493   */\n      dup4\n        /* \"#utility.yul\":2484:2498   */\n      add\n        /* \"#utility.yul\":2480:2508   */\n      and\n        /* \"#utility.yul\":2470:2508   */\n      swap1\n      pop\n        /* \"#utility.yul\":2412:2514   */\n      swap2\n      swap1\n      pop\n      jump\t// out\n        /* \"#utility.yul\":2520:2897   */\n    tag_208:\n        /* \"#utility.yul\":2608:2611   */\n      0x00\n        /* \"#utility.yul\":2636:2675   */\n      tag_302\n        /* \"#utility.yul\":2669:2674   */\n      dup3\n        /* \"#utility.yul\":2636:2675   */\n      tag_204\n      jump\t// in\n    tag_302:\n        /* \"#utility.yul\":2691:2762   */\n      tag_303\n        /* \"#utility.yul\":2755:2761   */\n      dup2\n        /* \"#utility.yul\":2750:2753   */\n      dup6\n        /* \"#utility.yul\":2691:2762   */\n      tag_205\n      jump\t// in\n    tag_303:\n        /* \"#utility.yul\":2684:2762   */\n      swap4\n      pop\n        /* \"#utility.yul\":2771:2836   */\n      tag_304\n        /* \"#utility.yul\":2829:2835   */\n      dup2\n        /* \"#utility.yul\":2824:2827   */\n      dup6\n        /* \"#utility.yul\":2817:2821   */\n      0x20\n        /* \"#utility.yul\":2810:2815   */\n      dup7\n        /* \"#utility.yul\":2806:2822   */\n      add\n        /* \"#utility.yul\":2771:2836   */\n      tag_206\n      jump\t// in\n    tag_304:\n        /* \"#utility.yul\":2861:2890   */\n      tag_305\n        /* \"#utility.yul\":2883:2889   */\n      dup2\n        /* \"#utility.yul\":2861:2890   */\n      tag_207\n      jump\t// in\n    tag_305:\n        /* \"#utility.yul\":2856:2859   */\n      dup5\n        /* \"#utility.yul\":2852:2891   */\n      add\n        /* \"#utility.yul\":2845:2891   */\n      swap2\n      pop\n        /* \"#utility.yul\":2612:2897   */\n      pop\n        /* \"#utility.yul\":2520:2897   */\n      swap3\n      swap2\n      pop\n      pop\n      jump\t// out\n        /* \"#utility.yul\":2903:2993   */\n    tag_209:\n        /* \"#utility.yul\":2937:2944   */\n      0x00\n        /* \"#utility.yul\":2980:2985   */\n      dup2\n        /* \"#utility.yul\":2973:2986   */\n      iszero\n        /* \"#utility.yul\":2966:2987   */\n      iszero\n        /* \"#utility.yul\":2955:2987   */\n      swap1\n      pop\n        /* \"#utility.yul\":2903:2993   */\n      swap2\n      swap1\n      pop\n      jump\t// out\n        /* \"#utility.yul\":2999:3108   */\n    tag_210:\n        /* \"#utility.yul\":3080:3101   */\n      tag_308\n        /* \"#utility.yul\":3095:3100   */\n      dup2\n        /* \"#utility.yul\":3080:3101   */\n      tag_209\n      jump\t// in\n    tag_308:\n        /* \"#utility.yul\":3075:3078   */\n      dup3\n        /* \"#utility.yul\":3068:3102   */\n      mstore\n        /* \"#utility.yul\":2999:3108   */\n      pop\n      pop\n      jump\t// out\n        /* \"#utility.yul\":3114:3857   */\n    tag_25:\n        /* \"#utility.yul\":3333:3337   */\n      0x00\n        /* \"#utility.yul\":3371:3374   */\n      0xa0\n        /* \"#utility.yul\":3360:3369   */\n      dup3\n        /* \"#utility.yul\":3356:3375   */\n      add\n        /* \"#utility.yul\":3348:3375   */\n      swap1\n      pop\n        /* \"#utility.yul\":3385:3456   */\n      tag_310\n        /* \"#utility.yul\":3453:3454   */\n      0x00\n        /* \"#utility.yul\":3442:3451   */\n      dup4\n        /* \"#utility.yul\":3438:3455   */\n      add\n        /* \"#utility.yul\":3429:3435   */\n      dup9\n        /* \"#utility.yul\":3385:3456   */\n      tag_200\n      jump\t// in\n    tag_310:\n        /* \"#utility.yul\":3466:3538   */\n      tag_311\n        /* \"#utility.yul\":3534:3536   */\n      0x20\n        /* \"#utility.yul\":3523:3532   */\n      dup4\n        /* \"#utility.yul\":3519:3537   */\n      add\n        /* \"#utility.yul\":3510:3516   */\n      dup8\n        /* \"#utility.yul\":3466:3538   */\n      tag_203\n      jump\t// in\n    tag_311:\n        /* \"#utility.yul\":3585:3594   */\n      dup2\n        /* \"#utility.yul\":3579:3583   */\n      dup2\n        /* \"#utility.yul\":3575:3595   */\n      sub\n        /* \"#utility.yul\":3570:3572   */\n      0x40\n        /* \"#utility.yul\":3559:3568   */\n      dup4\n        /* \"#utility.yul\":3555:3573   */\n      add\n        /* \"#utility.yul\":3548:3596   */\n      mstore\n        /* \"#utility.yul\":3613:3691   */\n      tag_312\n        /* \"#utility.yul\":3686:3690   */\n      dup2\n        /* \"#utility.yul\":3677:3683   */\n      dup7\n        /* \"#utility.yul\":3613:3691   */\n      tag_208\n      jump\t// in\n    tag_312:\n        /* \"#utility.yul\":3605:3691   */\n      swap1\n      pop\n        /* \"#utility.yul\":3701:3773   */\n      tag_313\n        /* \"#utility.yul\":3769:3771   */\n      0x60\n        /* \"#utility.yul\":3758:3767   */\n      dup4\n        /* \"#utility.yul\":3754:3772   */\n      add\n        /* \"#utility.yul\":3745:3751   */\n      dup6\n        /* \"#utility.yul\":3701:3773   */\n      tag_200\n      jump\t// in\n    tag_313:\n        /* \"#utility.yul\":3783:3850   */\n      tag_314\n        /* \"#utility.yul\":3845:3848   */\n      0x80\n        /* \"#utility.yul\":3834:3843   */\n      dup4\n        /* \"#utility.yul\":3830:3849   */\n      add\n        /* \"#utility.yul\":3821:3827   */\n      dup5\n        /* \"#utility.yul\":3783:3850   */\n      tag_210\n      jump\t// in\n    tag_314:\n        /* \"#utility.yul\":3114:3857   */\n      swap7\n      swap6\n      pop\n      pop\n      pop\n      pop\n      pop\n      pop\n      jump\t// out\n        /* \"#utility.yul\":3863:3971   */\n    tag_211:\n        /* \"#utility.yul\":3940:3964   */\n      tag_316\n        /* \"#utility.yul\":3958:3963   */\n      dup2\n        /* \"#utility.yul\":3940:3964   */\n      tag_197\n      jump\t// in\n    tag_316:\n        /* \"#utility.yul\":3935:3938   */\n      dup3\n        /* \"#utility.yul\":3928:3965   */\n      mstore\n        /* \"#utility.yul\":3863:3971   */\n      pop\n      pop\n      jump\t// out\n        /* \"#utility.yul\":3977:4085   */\n    tag_212:\n        /* \"#utility.yul\":4054:4078   */\n      tag_318\n        /* \"#utility.yul\":4072:4077   */\n      dup2\n        /* \"#utility.yul\":4054:4078   */\n      tag_202\n      jump\t// in\n    tag_318:\n        /* \"#utility.yul\":4049:4052   */\n      dup3\n        /* \"#utility.yul\":4042:4079   */\n      mstore\n        /* \"#utility.yul\":3977:4085   */\n      pop\n      pop\n      jump\t// out\n        /* \"#utility.yul\":4091:4250   */\n    tag_213:\n        /* \"#utility.yul\":4165:4176   */\n      0x00\n        /* \"#utility.yul\":4199:4205   */\n      dup3\n        /* \"#utility.yul\":4194:4197   */\n      dup3\n        /* \"#utility.yul\":4187:4206   */\n      mstore\n        /* \"#utility.yul\":4239:4243   */\n      0x20\n        /* \"#utility.yul\":4234:4237   */\n      dup3\n        /* \"#utility.yul\":4230:4244   */\n      add\n        /* \"#utility.yul\":4215:4244   */\n      swap1\n      pop\n        /* \"#utility.yul\":4091:4250   */\n      swap3\n      swap2\n      pop\n      pop\n      jump\t// out\n        /* \"#utility.yul\":4256:4613   */\n    tag_214:\n        /* \"#utility.yul\":4334:4337   */\n      0x00\n        /* \"#utility.yul\":4362:4401   */\n      tag_321\n        /* \"#utility.yul\":4395:4400   */\n      dup3\n        /* \"#utility.yul\":4362:4401   */\n      tag_204\n      jump\t// in\n    tag_321:\n        /* \"#utility.yul\":4417:4478   */\n      tag_322\n        /* \"#utility.yul\":4471:4477   */\n      dup2\n        /* \"#utility.yul\":4466:4469   */\n      dup6\n        /* \"#utility.yul\":4417:4478   */\n      tag_213\n      jump\t// in\n    tag_322:\n        /* \"#utility.yul\":4410:4478   */\n      swap4\n      pop\n        /* \"#utility.yul\":4487:4552   */\n      tag_323\n        /* \"#utility.yul\":4545:4551   */\n      dup2\n        /* \"#utility.yul\":4540:4543   */\n      dup6\n        /* \"#utility.yul\":4533:4537   */\n      0x20\n        /* \"#utility.yul\":4526:4531   */\n      dup7\n        /* \"#utility.yul\":4522:4538   */\n      add\n        /* \"#utility.yul\":4487:4552   */\n      tag_206\n      jump\t// in\n    tag_323:\n        /* \"#utility.yul\":4577:4606   */\n      tag_324\n        /* \"#utility.yul\":4599:4605   */\n      dup2\n        /* \"#utility.yul\":4577:4606   */\n      tag_207\n      jump\t// in\n    tag_324:\n        /* \"#utility.yul\":4572:4575   */\n      dup5\n        /* \"#utility.yul\":4568:4607   */\n      add\n        /* \"#utility.yul\":4561:4607   */\n      swap2\n      pop\n        /* \"#utility.yul\":4338:4613   */\n      pop\n        /* \"#utility.yul\":4256:4613   */\n      swap3\n      swap2\n      pop\n      pop\n      jump\t// out\n        /* \"#utility.yul\":4619:4718   */\n    tag_215:\n        /* \"#utility.yul\":4690:4711   */\n      tag_326\n        /* \"#utility.yul\":4705:4710   */\n      dup2\n        /* \"#utility.yul\":4690:4711   */\n      tag_209\n      jump\t// in\n    tag_326:\n        /* \"#utility.yul\":4685:4688   */\n      dup3\n        /* \"#utility.yul\":4678:4712   */\n      mstore\n        /* \"#utility.yul\":4619:4718   */\n      pop\n      pop\n      jump\t// out\n        /* \"#utility.yul\":4790:5922   */\n    tag_216:\n        /* \"#utility.yul\":4899:4902   */\n      0x00\n        /* \"#utility.yul\":4935:4939   */\n      0xa0\n        /* \"#utility.yul\":4930:4933   */\n      dup4\n        /* \"#utility.yul\":4926:4940   */\n      add\n        /* \"#utility.yul\":5023:5027   */\n      0x00\n        /* \"#utility.yul\":5016:5021   */\n      dup4\n        /* \"#utility.yul\":5012:5028   */\n      add\n        /* \"#utility.yul\":5006:5029   */\n      mload\n        /* \"#utility.yul\":5042:5105   */\n      tag_328\n        /* \"#utility.yul\":5099:5103   */\n      0x00\n        /* \"#utility.yul\":5094:5097   */\n      dup7\n        /* \"#utility.yul\":5090:5104   */\n      add\n        /* \"#utility.yul\":5076:5088   */\n      dup3\n        /* \"#utility.yul\":5042:5105   */\n      tag_211\n      jump\t// in\n    tag_328:\n        /* \"#utility.yul\":4950:5115   */\n      pop\n        /* \"#utility.yul\":5198:5202   */\n      0x20\n        /* \"#utility.yul\":5191:5196   */\n      dup4\n        /* \"#utility.yul\":5187:5203   */\n      add\n        /* \"#utility.yul\":5181:5204   */\n      mload\n        /* \"#utility.yul\":5217:5280   */\n      tag_329\n        /* \"#utility.yul\":5274:5278   */\n      0x20\n        /* \"#utility.yul\":5269:5272   */\n      dup7\n        /* \"#utility.yul\":5265:5279   */\n      add\n        /* \"#utility.yul\":5251:5263   */\n      dup3\n        /* \"#utility.yul\":5217:5280   */\n      tag_212\n      jump\t// in\n    tag_329:\n        /* \"#utility.yul\":5125:5290   */\n      pop\n        /* \"#utility.yul\":5376:5380   */\n      0x40\n        /* \"#utility.yul\":5369:5374   */\n      dup4\n        /* \"#utility.yul\":5365:5381   */\n      add\n        /* \"#utility.yul\":5359:5382   */\n      mload\n        /* \"#utility.yul\":5429:5432   */\n      dup5\n        /* \"#utility.yul\":5423:5427   */\n      dup3\n        /* \"#utility.yul\":5419:5433   */\n      sub\n        /* \"#utility.yul\":5412:5416   */\n      0x40\n        /* \"#utility.yul\":5407:5410   */\n      dup7\n        /* \"#utility.yul\":5403:5417   */\n      add\n        /* \"#utility.yul\":5396:5434   */\n      mstore\n        /* \"#utility.yul\":5455:5528   */\n      tag_330\n        /* \"#utility.yul\":5523:5527   */\n      dup3\n        /* \"#utility.yul\":5509:5521   */\n      dup3\n        /* \"#utility.yul\":5455:5528   */\n      tag_214\n      jump\t// in\n    tag_330:\n        /* \"#utility.yul\":5447:5528   */\n      swap2\n      pop\n        /* \"#utility.yul\":5300:5539   */\n      pop\n        /* \"#utility.yul\":5630:5634   */\n      0x60\n        /* \"#utility.yul\":5623:5628   */\n      dup4\n        /* \"#utility.yul\":5619:5635   */\n      add\n        /* \"#utility.yul\":5613:5636   */\n      mload\n        /* \"#utility.yul\":5649:5712   */\n      tag_331\n        /* \"#utility.yul\":5706:5710   */\n      0x60\n        /* \"#utility.yul\":5701:5704   */\n      dup7\n        /* \"#utility.yul\":5697:5711   */\n      add\n        /* \"#utility.yul\":5683:5695   */\n      dup3\n        /* \"#utility.yul\":5649:5712   */\n      tag_211\n      jump\t// in\n    tag_331:\n        /* \"#utility.yul\":5549:5722   */\n      pop\n        /* \"#utility.yul\":5809:5813   */\n      0x80\n        /* \"#utility.yul\":5802:5807   */\n      dup4\n        /* \"#utility.yul\":5798:5814   */\n      add\n        /* \"#utility.yul\":5792:5815   */\n      mload\n        /* \"#utility.yul\":5828:5885   */\n      tag_332\n        /* \"#utility.yul\":5879:5883   */\n      0x80\n        /* \"#utility.yul\":5874:5877   */\n      dup7\n        /* \"#utility.yul\":5870:5884   */\n      add\n        /* \"#utility.yul\":5856:5868   */\n      dup3\n        /* \"#utility.yul\":5828:5885   */\n      tag_215\n      jump\t// in\n    tag_332:\n        /* \"#utility.yul\":5732:5895   */\n      pop\n        /* \"#utility.yul\":5912:5916   */\n      dup1\n        /* \"#utility.yul\":5905:5916   */\n      swap2\n      pop\n        /* \"#utility.yul\":4904:5922   */\n      pop\n        /* \"#utility.yul\":4790:5922   */\n      swap3\n      swap2\n      pop\n      pop\n      jump\t// out\n        /* \"#utility.yul\":5928:6281   */\n    tag_31:\n        /* \"#utility.yul\":6061:6065   */\n      0x00\n        /* \"#utility.yul\":6099:6101   */\n      0x20\n        /* \"#utility.yul\":6088:6097   */\n      dup3\n        /* \"#utility.yul\":6084:6102   */\n      add\n        /* \"#utility.yul\":6076:6102   */\n      swap1\n      pop\n        /* \"#utility.yul\":6148:6157   */\n      dup2\n        /* \"#utility.yul\":6142:6146   */\n      dup2\n        /* \"#utility.yul\":6138:6158   */\n      sub\n        /* \"#utility.yul\":6134:6135   */\n      0x00\n        /* \"#utility.yul\":6123:6132   */\n      dup4\n        /* \"#utility.yul\":6119:6136   */\n      add\n        /* \"#utility.yul\":6112:6159   */\n      mstore\n        /* \"#utility.yul\":6176:6274   */\n      tag_334\n        /* \"#utility.yul\":6269:6273   */\n      dup2\n        /* \"#utility.yul\":6260:6266   */\n      dup5\n        /* \"#utility.yul\":6176:6274   */\n      tag_216\n      jump\t// in\n    tag_334:\n        /* \"#utility.yul\":6168:6274   */\n      swap1\n      pop\n        /* \"#utility.yul\":5928:6281   */\n      swap3\n      swap2\n      pop\n      pop\n      jump\t// out\n        /* \"#utility.yul\":6359:7748   */\n    tag_217:\n        /* \"#utility.yul\":6502:6506   */\n      0xe0\n        /* \"#utility.yul\":6497:6500   */\n      dup3\n        /* \"#utility.yul\":6493:6507   */\n      add\n        /* \"#utility.yul\":6593:6597   */\n      0x00\n        /* \"#utility.yul\":6586:6591   */\n      dup3\n        /* \"#utility.yul\":6582:6598   */\n      add\n        /* \"#utility.yul\":6576:6599   */\n      mload\n        /* \"#utility.yul\":6612:6675   */\n      tag_336\n        /* \"#utility.yul\":6669:6673   */\n      0x00\n        /* \"#utility.yul\":6664:6667   */\n      dup6\n        /* \"#utility.yul\":6660:6674   */\n      add\n        /* \"#utility.yul\":6646:6658   */\n      dup3\n        /* \"#utility.yul\":6612:6675   */\n      tag_211\n      jump\t// in\n    tag_336:\n        /* \"#utility.yul\":6517:6685   */\n      pop\n        /* \"#utility.yul\":6768:6772   */\n      0x20\n        /* \"#utility.yul\":6761:6766   */\n      dup3\n        /* \"#utility.yul\":6757:6773   */\n      add\n        /* \"#utility.yul\":6751:6774   */\n      mload\n        /* \"#utility.yul\":6787:6850   */\n      tag_337\n        /* \"#utility.yul\":6844:6848   */\n      0x20\n        /* \"#utility.yul\":6839:6842   */\n      dup6\n        /* \"#utility.yul\":6835:6849   */\n      add\n        /* \"#utility.yul\":6821:6833   */\n      dup3\n        /* \"#utility.yul\":6787:6850   */\n      tag_211\n      jump\t// in\n    tag_337:\n        /* \"#utility.yul\":6695:6860   */\n      pop\n        /* \"#utility.yul\":6944:6948   */\n      0x40\n        /* \"#utility.yul\":6937:6942   */\n      dup3\n        /* \"#utility.yul\":6933:6949   */\n      add\n        /* \"#utility.yul\":6927:6950   */\n      mload\n        /* \"#utility.yul\":6963:7026   */\n      tag_338\n        /* \"#utility.yul\":7020:7024   */\n      0x40\n        /* \"#utility.yul\":7015:7018   */\n      dup6\n        /* \"#utility.yul\":7011:7025   */\n      add\n        /* \"#utility.yul\":6997:7009   */\n      dup3\n        /* \"#utility.yul\":6963:7026   */\n      tag_212\n      jump\t// in\n    tag_338:\n        /* \"#utility.yul\":6870:7036   */\n      pop\n        /* \"#utility.yul\":7123:7127   */\n      0x60\n        /* \"#utility.yul\":7116:7121   */\n      dup3\n        /* \"#utility.yul\":7112:7128   */\n      add\n        /* \"#utility.yul\":7106:7129   */\n      mload\n        /* \"#utility.yul\":7142:7205   */\n      tag_339\n        /* \"#utility.yul\":7199:7203   */\n      0x60\n        /* \"#utility.yul\":7194:7197   */\n      dup6\n        /* \"#utility.yul\":7190:7204   */\n      add\n        /* \"#utility.yul\":7176:7188   */\n      dup3\n        /* \"#utility.yul\":7142:7205   */\n      tag_211\n      jump\t// in\n    tag_339:\n        /* \"#utility.yul\":7046:7215   */\n      pop\n        /* \"#utility.yul\":7300:7304   */\n      0x80\n        /* \"#utility.yul\":7293:7298   */\n      dup3\n        /* \"#utility.yul\":7289:7305   */\n      add\n        /* \"#utility.yul\":7283:7306   */\n      mload\n        /* \"#utility.yul\":7319:7382   */\n      tag_340\n        /* \"#utility.yul\":7376:7380   */\n      0x80\n        /* \"#utility.yul\":7371:7374   */\n      dup6\n        /* \"#utility.yul\":7367:7381   */\n      add\n        /* \"#utility.yul\":7353:7365   */\n      dup3\n        /* \"#utility.yul\":7319:7382   */\n      tag_211\n      jump\t// in\n    tag_340:\n        /* \"#utility.yul\":7225:7392   */\n      pop\n        /* \"#utility.yul\":7479:7483   */\n      0xa0\n        /* \"#utility.yul\":7472:7477   */\n      dup3\n        /* \"#utility.yul\":7468:7484   */\n      add\n        /* \"#utility.yul\":7462:7485   */\n      mload\n        /* \"#utility.yul\":7498:7561   */\n      tag_341\n        /* \"#utility.yul\":7555:7559   */\n      0xa0\n        /* \"#utility.yul\":7550:7553   */\n      dup6\n        /* \"#utility.yul\":7546:7560   */\n      add\n        /* \"#utility.yul\":7532:7544   */\n      dup3\n        /* \"#utility.yul\":7498:7561   */\n      tag_211\n      jump\t// in\n    tag_341:\n        /* \"#utility.yul\":7402:7571   */\n      pop\n        /* \"#utility.yul\":7655:7659   */\n      0xc0\n        /* \"#utility.yul\":7648:7653   */\n      dup3\n        /* \"#utility.yul\":7644:7660   */\n      add\n        /* \"#utility.yul\":7638:7661   */\n      mload\n        /* \"#utility.yul\":7674:7731   */\n      tag_342\n        /* \"#utility.yul\":7725:7729   */\n      0xc0\n        /* \"#utility.yul\":7720:7723   */\n      dup6\n        /* \"#utility.yul\":7716:7730   */\n      add\n        /* \"#utility.yul\":7702:7714   */\n      dup3\n        /* \"#utility.yul\":7674:7731   */\n      tag_215\n      jump\t// in\n    tag_342:\n        /* \"#utility.yul\":7581:7741   */\n      pop\n        /* \"#utility.yul\":6471:7748   */\n      pop\n        /* \"#utility.yul\":6359:7748   */\n      pop\n      pop\n      jump\t// out\n        /* \"#utility.yul\":7754:8069   */\n    tag_37:\n        /* \"#utility.yul\":7893:7897   */\n      0x00\n        /* \"#utility.yul\":7931:7934   */\n      0xe0\n        /* \"#utility.yul\":7920:7929   */\n      dup3\n        /* \"#utility.yul\":7916:7935   */\n      add\n        /* \"#utility.yul\":7908:7935   */\n      swap1\n      pop\n        /* \"#utility.yul\":7945:8062   */\n      tag_344\n        /* \"#utility.yul\":8059:8060   */\n      0x00\n        /* \"#utility.yul\":8048:8057   */\n      dup4\n        /* \"#utility.yul\":8044:8061   */\n      add\n        /* \"#utility.yul\":8035:8041   */\n      dup5\n        /* \"#utility.yul\":7945:8062   */\n      tag_217\n      jump\t// in\n    tag_344:\n        /* \"#utility.yul\":7754:8069   */\n      swap3\n      swap2\n      pop\n      pop\n      jump\t// out\n        /* \"#utility.yul\":8075:8192   */\n    tag_218:\n        /* \"#utility.yul\":8184:8185   */\n      0x00\n        /* \"#utility.yul\":8181:8182   */\n      0x00\n        /* \"#utility.yul\":8174:8186   */\n      revert\n        /* \"#utility.yul\":8198:8315   */\n    tag_219:\n        /* \"#utility.yul\":8307:8308   */\n      0x00\n        /* \"#utility.yul\":8304:8305   */\n      0x00\n        /* \"#utility.yul\":8297:8309   */\n      revert\n        /* \"#utility.yul\":8321:8438   */\n    tag_220:\n        /* \"#utility.yul\":8430:8431   */\n      0x00\n        /* \"#utility.yul\":8427:8428   */\n      0x00\n        /* \"#utility.yul\":8420:8432   */\n      revert\n        /* \"#utility.yul\":8458:9011   */\n    tag_221:\n        /* \"#utility.yul\":8516:8524   */\n      0x00\n        /* \"#utility.yul\":8526:8532   */\n      0x00\n        /* \"#utility.yul\":8576:8579   */\n      dup4\n        /* \"#utility.yul\":8569:8573   */\n      0x1f\n        /* \"#utility.yul\":8561:8567   */\n      dup5\n        /* \"#utility.yul\":8557:8574   */\n      add\n        /* \"#utility.yul\":8553:8580   */\n      slt\n        /* \"#utility.yul\":8543:8665   */\n      tag_349\n      jumpi\n        /* \"#utility.yul\":8584:8663   */\n      tag_350\n      tag_218\n      jump\t// in\n    tag_350:\n        /* \"#utility.yul\":8543:8665   */\n    tag_349:\n        /* \"#utility.yul\":8697:8703   */\n      dup3\n        /* \"#utility.yul\":8684:8704   */\n      calldataload\n        /* \"#utility.yul\":8674:8704   */\n      swap1\n      pop\n        /* \"#utility.yul\":8727:8745   */\n      0xffffffffffffffff\n        /* \"#utility.yul\":8719:8725   */\n      dup2\n        /* \"#utility.yul\":8716:8746   */\n      gt\n        /* \"#utility.yul\":8713:8830   */\n      iszero\n      tag_351\n      jumpi\n        /* \"#utility.yul\":8749:8828   */\n      tag_352\n      tag_219\n      jump\t// in\n    tag_352:\n        /* \"#utility.yul\":8713:8830   */\n    tag_351:\n        /* \"#utility.yul\":8863:8867   */\n      0x20\n        /* \"#utility.yul\":8855:8861   */\n      dup4\n        /* \"#utility.yul\":8851:8868   */\n      add\n        /* \"#utility.yul\":8839:8868   */\n      swap2\n      pop\n        /* \"#utility.yul\":8917:8920   */\n      dup4\n        /* \"#utility.yul\":8909:8913   */\n      0x01\n        /* \"#utility.yul\":8901:8907   */\n      dup3\n        /* \"#utility.yul\":8897:8914   */\n      mul\n        /* \"#utility.yul\":8887:8895   */\n      dup4\n        /* \"#utility.yul\":8883:8915   */\n      add\n        /* \"#utility.yul\":8880:8921   */\n      gt\n        /* \"#utility.yul\":8877:9005   */\n      iszero\n      tag_353\n      jumpi\n        /* \"#utility.yul\":8924:9003   */\n      tag_354\n      tag_220\n      jump\t// in\n    tag_354:\n        /* \"#utility.yul\":8877:9005   */\n    tag_353:\n        /* \"#utility.yul\":8458:9011   */\n      swap3\n      pop\n      swap3\n      swap1\n      pop\n      jump\t// out\n        /* \"#utility.yul\":9017:9691   */\n    tag_41:\n        /* \"#utility.yul\":9097:9103   */\n      0x00\n        /* \"#utility.yul\":9105:9111   */\n      0x00\n        /* \"#utility.yul\":9113:9119   */\n      0x00\n        /* \"#utility.yul\":9162:9164   */\n      0x40\n        /* \"#utility.yul\":9150:9159   */\n      dup5\n        /* \"#utility.yul\":9141:9148   */\n      dup7\n        /* \"#utility.yul\":9137:9160   */\n      sub\n        /* \"#utility.yul\":9133:9165   */\n      slt\n        /* \"#utility.yul\":9130:9249   */\n      iszero\n      tag_356\n      jumpi\n        /* \"#utility.yul\":9168:9247   */\n      tag_357\n      tag_195\n      jump\t// in\n    tag_357:\n        /* \"#utility.yul\":9130:9249   */\n    tag_356:\n        /* \"#utility.yul\":9316:9317   */\n      0x00\n        /* \"#utility.yul\":9305:9314   */\n      dup5\n        /* \"#utility.yul\":9301:9318   */\n      add\n        /* \"#utility.yul\":9288:9319   */\n      calldataload\n        /* \"#utility.yul\":9346:9364   */\n      0xffffffffffffffff\n        /* \"#utility.yul\":9338:9344   */\n      dup2\n        /* \"#utility.yul\":9335:9365   */\n      gt\n        /* \"#utility.yul\":9332:9449   */\n      iszero\n      tag_358\n      jumpi\n        /* \"#utility.yul\":9368:9447   */\n      tag_359\n      tag_196\n      jump\t// in\n    tag_359:\n        /* \"#utility.yul\":9332:9449   */\n    tag_358:\n        /* \"#utility.yul\":9481:9546   */\n      tag_360\n        /* \"#utility.yul\":9538:9545   */\n      dup7\n        /* \"#utility.yul\":9529:9535   */\n      dup3\n        /* \"#utility.yul\":9518:9527   */\n      dup8\n        /* \"#utility.yul\":9514:9536   */\n      add\n        /* \"#utility.yul\":9481:9546   */\n      tag_221\n      jump\t// in\n    tag_360:\n        /* \"#utility.yul\":9463:9546   */\n      swap4\n      pop\n      swap4\n      pop\n        /* \"#utility.yul\":9259:9556   */\n      pop\n        /* \"#utility.yul\":9595:9597   */\n      0x20\n        /* \"#utility.yul\":9621:9674   */\n      tag_361\n        /* \"#utility.yul\":9666:9673   */\n      dup7\n        /* \"#utility.yul\":9657:9663   */\n      dup3\n        /* \"#utility.yul\":9646:9655   */\n      dup8\n        /* \"#utility.yul\":9642:9664   */\n      add\n        /* \"#utility.yul\":9621:9674   */\n      tag_199\n      jump\t// in\n    tag_361:\n        /* \"#utility.yul\":9611:9674   */\n      swap2\n      pop\n        /* \"#utility.yul\":9566:9684   */\n      pop\n        /* \"#utility.yul\":9017:9691   */\n      swap3\n      pop\n      swap3\n      pop\n      swap3\n      jump\t// out\n        /* \"#utility.yul\":9697:9819   */\n    tag_222:\n        /* \"#utility.yul\":9770:9794   */\n      tag_363\n        /* \"#utility.yul\":9788:9793   */\n      dup2\n        /* \"#utility.yul\":9770:9794   */\n      tag_202\n      jump\t// in\n    tag_363:\n        /* \"#utility.yul\":9763:9768   */\n      dup2\n        /* \"#utility.yul\":9760:9795   */\n      eq\n        /* \"#utility.yul\":9750:9813   */\n      tag_364\n      jumpi\n        /* \"#utility.yul\":9809:9810   */\n      0x00\n        /* \"#utility.yul\":9806:9807   */\n      0x00\n        /* \"#utility.yul\":9799:9811   */\n      revert\n        /* \"#utility.yul\":9750:9813   */\n    tag_364:\n        /* \"#utility.yul\":9697:9819   */\n      pop\n      jump\t// out\n        /* \"#utility.yul\":9825:9964   */\n    tag_223:\n        /* \"#utility.yul\":9871:9876   */\n      0x00\n        /* \"#utility.yul\":9909:9915   */\n      dup2\n        /* \"#utility.yul\":9896:9916   */\n      calldataload\n        /* \"#utility.yul\":9887:9916   */\n      swap1\n      pop\n        /* \"#utility.yul\":9925:9958   */\n      tag_366\n        /* \"#utility.yul\":9952:9957   */\n      dup2\n        /* \"#utility.yul\":9925:9958   */\n      tag_222\n      jump\t// in\n    tag_366:\n        /* \"#utility.yul\":9825:9964   */\n      swap3\n      swap2\n      pop\n      pop\n      jump\t// out\n        /* \"#utility.yul\":9970:10299   */\n    tag_49:\n        /* \"#utility.yul\":10029:10035   */\n      0x00\n        /* \"#utility.yul\":10078:10080   */\n      0x20\n        /* \"#utility.yul\":10066:10075   */\n      dup3\n        /* \"#utility.yul\":10057:10064   */\n      dup5\n        /* \"#utility.yul\":10053:10076   */\n      sub\n        /* \"#utility.yul\":10049:10081   */\n      slt\n        /* \"#utility.yul\":10046:10165   */\n      iszero\n      tag_368\n      jumpi\n        /* \"#utility.yul\":10084:10163   */\n      tag_369\n      tag_195\n      jump\t// in\n    tag_369:\n        /* \"#utility.yul\":10046:10165   */\n    tag_368:\n        /* \"#utility.yul\":10204:10205   */\n      0x00\n        /* \"#utility.yul\":10229:10282   */\n      tag_370\n        /* \"#utility.yul\":10274:10281   */\n      dup5\n        /* \"#utility.yul\":10265:10271   */\n      dup3\n        /* \"#utility.yul\":10254:10263   */\n      dup6\n        /* \"#utility.yul\":10250:10272   */\n      add\n        /* \"#utility.yul\":10229:10282   */\n      tag_223\n      jump\t// in\n    tag_370:\n        /* \"#utility.yul\":10219:10282   */\n      swap2\n      pop\n        /* \"#utility.yul\":10175:10292   */\n      pop\n        /* \"#utility.yul\":9970:10299   */\n      swap3\n      swap2\n      pop\n      pop\n      jump\t// out\n        /* \"#utility.yul\":10305:10419   */\n    tag_224:\n        /* \"#utility.yul\":10372:10378   */\n      0x00\n        /* \"#utility.yul\":10406:10411   */\n      dup2\n        /* \"#utility.yul\":10400:10412   */\n      mload\n        /* \"#utility.yul\":10390:10412   */\n      swap1\n      pop\n        /* \"#utility.yul\":10305:10419   */\n      swap2\n      swap1\n      pop\n      jump\t// out\n        /* \"#utility.yul\":10425:10609   */\n    tag_225:\n        /* \"#utility.yul\":10524:10535   */\n      0x00\n        /* \"#utility.yul\":10558:10564   */\n      dup3\n        /* \"#utility.yul\":10553:10556   */\n      dup3\n        /* \"#utility.yul\":10546:10565   */\n      mstore\n        /* \"#utility.yul\":10598:10602   */\n      0x20\n        /* \"#utility.yul\":10593:10596   */\n      dup3\n        /* \"#utility.yul\":10589:10603   */\n      add\n        /* \"#utility.yul\":10574:10603   */\n      swap1\n      pop\n        /* \"#utility.yul\":10425:10609   */\n      swap3\n      swap2\n      pop\n      pop\n      jump\t// out\n        /* \"#utility.yul\":10615:10747   */\n    tag_226:\n        /* \"#utility.yul\":10682:10686   */\n      0x00\n        /* \"#utility.yul\":10705:10708   */\n      dup2\n        /* \"#utility.yul\":10697:10708   */\n      swap1\n      pop\n        /* \"#utility.yul\":10735:10739   */\n      0x20\n        /* \"#utility.yul\":10730:10733   */\n      dup3\n        /* \"#utility.yul\":10726:10740   */\n      add\n        /* \"#utility.yul\":10718:10740   */\n      swap1\n      pop\n        /* \"#utility.yul\":10615:10747   */\n      swap2\n      swap1\n      pop\n      jump\t// out\n        /* \"#utility.yul\":10753:10932   */\n    tag_227:\n        /* \"#utility.yul\":10822:10832   */\n      0x00\n        /* \"#utility.yul\":10843:10889   */\n      tag_375\n        /* \"#utility.yul\":10885:10888   */\n      dup4\n        /* \"#utility.yul\":10877:10883   */\n      dup4\n        /* \"#utility.yul\":10843:10889   */\n      tag_211\n      jump\t// in\n    tag_375:\n        /* \"#utility.yul\":10921:10925   */\n      0x20\n        /* \"#utility.yul\":10916:10919   */\n      dup4\n        /* \"#utility.yul\":10912:10926   */\n      add\n        /* \"#utility.yul\":10898:10926   */\n      swap1\n      pop\n        /* \"#utility.yul\":10753:10932   */\n      swap3\n      swap2\n      pop\n      pop\n      jump\t// out\n        /* \"#utility.yul\":10938:11051   */\n    tag_228:\n        /* \"#utility.yul\":11008:11012   */\n      0x00\n        /* \"#utility.yul\":11040:11044   */\n      0x20\n        /* \"#utility.yul\":11035:11038   */\n      dup3\n        /* \"#utility.yul\":11031:11045   */\n      add\n        /* \"#utility.yul\":11023:11045   */\n      swap1\n      pop\n        /* \"#utility.yul\":10938:11051   */\n      swap2\n      swap1\n      pop\n      jump\t// out\n        /* \"#utility.yul\":11087:11819   */\n    tag_229:\n        /* \"#utility.yul\":11206:11209   */\n      0x00\n        /* \"#utility.yul\":11235:11289   */\n      tag_378\n        /* \"#utility.yul\":11283:11288   */\n      dup3\n        /* \"#utility.yul\":11235:11289   */\n      tag_224\n      jump\t// in\n    tag_378:\n        /* \"#utility.yul\":11305:11391   */\n      tag_379\n        /* \"#utility.yul\":11384:11390   */\n      dup2\n        /* \"#utility.yul\":11379:11382   */\n      dup6\n        /* \"#utility.yul\":11305:11391   */\n      tag_225\n      jump\t// in\n    tag_379:\n        /* \"#utility.yul\":11298:11391   */\n      swap4\n      pop\n        /* \"#utility.yul\":11415:11471   */\n      tag_380\n        /* \"#utility.yul\":11465:11470   */\n      dup4\n        /* \"#utility.yul\":11415:11471   */\n      tag_226\n      jump\t// in\n    tag_380:\n        /* \"#utility.yul\":11494:11501   */\n      dup1\n        /* \"#utility.yul\":11525:11526   */\n      0x00\n        /* \"#utility.yul\":11510:11794   */\n    tag_381:\n        /* \"#utility.yul\":11535:11541   */\n      dup4\n        /* \"#utility.yul\":11532:11533   */\n      dup2\n        /* \"#utility.yul\":11529:11542   */\n      lt\n        /* \"#utility.yul\":11510:11794   */\n      iszero\n      tag_383\n      jumpi\n        /* \"#utility.yul\":11611:11617   */\n      dup2\n        /* \"#utility.yul\":11605:11618   */\n      mload\n        /* \"#utility.yul\":11638:11701   */\n      tag_384\n        /* \"#utility.yul\":11697:11700   */\n      dup9\n        /* \"#utility.yul\":11682:11695   */\n      dup3\n        /* \"#utility.yul\":11638:11701   */\n      tag_227\n      jump\t// in\n    tag_384:\n        /* \"#utility.yul\":11631:11701   */\n      swap8\n      pop\n        /* \"#utility.yul\":11724:11784   */\n      tag_385\n        /* \"#utility.yul\":11777:11783   */\n      dup4\n        /* \"#utility.yul\":11724:11784   */\n      tag_228\n      jump\t// in\n    tag_385:\n        /* \"#utility.yul\":11714:11784   */\n      swap3\n      pop\n        /* \"#utility.yul\":11570:11794   */\n      pop\n        /* \"#utility.yul\":11557:11558   */\n      0x01\n        /* \"#utility.yul\":11554:11555   */\n      dup2\n        /* \"#utility.yul\":11550:11559   */\n      add\n        /* \"#utility.yul\":11545:11559   */\n      swap1\n      pop\n        /* \"#utility.yul\":11510:11794   */\n      jump(tag_381)\n    tag_383:\n        /* \"#utility.yul\":11514:11528   */\n      pop\n        /* \"#utility.yul\":11810:11813   */\n      dup6\n        /* \"#utility.yul\":11803:11813   */\n      swap4\n      pop\n        /* \"#utility.yul\":11211:11819   */\n      pop\n      pop\n      pop\n        /* \"#utility.yul\":11087:11819   */\n      swap3\n      swap2\n      pop\n      pop\n      jump\t// out\n        /* \"#utility.yul\":11825:12198   */\n    tag_52:\n        /* \"#utility.yul\":11968:11972   */\n      0x00\n        /* \"#utility.yul\":12006:12008   */\n      0x20\n        /* \"#utility.yul\":11995:12004   */\n      dup3\n        /* \"#utility.yul\":11991:12009   */\n      add\n        /* \"#utility.yul\":11983:12009   */\n      swap1\n      pop\n        /* \"#utility.yul\":12055:12064   */\n      dup2\n        /* \"#utility.yul\":12049:12053   */\n      dup2\n        /* \"#utility.yul\":12045:12065   */\n      sub\n        /* \"#utility.yul\":12041:12042   */\n      0x00\n        /* \"#utility.yul\":12030:12039   */\n      dup4\n        /* \"#utility.yul\":12026:12043   */\n      add\n        /* \"#utility.yul\":12019:12066   */\n      mstore\n        /* \"#utility.yul\":12083:12191   */\n      tag_387\n        /* \"#utility.yul\":12186:12190   */\n      dup2\n        /* \"#utility.yul\":12177:12183   */\n      dup5\n        /* \"#utility.yul\":12083:12191   */\n      tag_229\n      jump\t// in\n    tag_387:\n        /* \"#utility.yul\":12075:12191   */\n      swap1\n      pop\n        /* \"#utility.yul\":11825:12198   */\n      swap3\n      swap2\n      pop\n      pop\n      jump\t// out\n        /* \"#utility.yul\":12204:12678   */\n    tag_56:\n        /* \"#utility.yul\":12272:12278   */\n      0x00\n        /* \"#utility.yul\":12280:12286   */\n      0x00\n        /* \"#utility.yul\":12329:12331   */\n      0x40\n        /* \"#utility.yul\":12317:12326   */\n      dup4\n        /* \"#utility.yul\":12308:12315   */\n      dup6\n        /* \"#utility.yul\":12304:12327   */\n      sub\n        /* \"#utility.yul\":12300:12332   */\n      slt\n        /* \"#utility.yul\":12297:12416   */\n      iszero\n      tag_389\n      jumpi\n        /* \"#utility.yul\":12335:12414   */\n      tag_390\n      tag_195\n      jump\t// in\n    tag_390:\n        /* \"#utility.yul\":12297:12416   */\n    tag_389:\n        /* \"#utility.yul\":12455:12456   */\n      0x00\n        /* \"#utility.yul\":12480:12533   */\n      tag_391\n        /* \"#utility.yul\":12525:12532   */\n      dup6\n        /* \"#utility.yul\":12516:12522   */\n      dup3\n        /* \"#utility.yul\":12505:12514   */\n      dup7\n        /* \"#utility.yul\":12501:12523   */\n      add\n        /* \"#utility.yul\":12480:12533   */\n      tag_223\n      jump\t// in\n    tag_391:\n        /* \"#utility.yul\":12470:12533   */\n      swap3\n      pop\n        /* \"#utility.yul\":12426:12543   */\n      pop\n        /* \"#utility.yul\":12582:12584   */\n      0x20\n        /* \"#utility.yul\":12608:12661   */\n      tag_392\n        /* \"#utility.yul\":12653:12660   */\n      dup6\n        /* \"#utility.yul\":12644:12650   */\n      dup3\n        /* \"#utility.yul\":12633:12642   */\n      dup7\n        /* \"#utility.yul\":12629:12651   */\n      add\n        /* \"#utility.yul\":12608:12661   */\n      tag_199\n      jump\t// in\n    tag_392:\n        /* \"#utility.yul\":12598:12661   */\n      swap2\n      pop\n        /* \"#utility.yul\":12553:12671   */\n      pop\n        /* \"#utility.yul\":12204:12678   */\n      swap3\n      pop\n      swap3\n      swap1\n      pop\n      jump\t// out\n        /* \"#utility.yul\":12684:12906   */\n    tag_59:\n        /* \"#utility.yul\":12777:12781   */\n      0x00\n        /* \"#utility.yul\":12815:12817   */\n      0x20\n        /* \"#utility.yul\":12804:12813   */\n      dup3\n        /* \"#utility.yul\":12800:12818   */\n      add\n        /* \"#utility.yul\":12792:12818   */\n      swap1\n      pop\n        /* \"#utility.yul\":12828:12899   */\n      tag_394\n        /* \"#utility.yul\":12896:12897   */\n      0x00\n        /* \"#utility.yul\":12885:12894   */\n      dup4\n        /* \"#utility.yul\":12881:12898   */\n      add\n        /* \"#utility.yul\":12872:12878   */\n      dup5\n        /* \"#utility.yul\":12828:12899   */\n      tag_200\n      jump\t// in\n    tag_394:\n        /* \"#utility.yul\":12684:12906   */\n      swap3\n      swap2\n      pop\n      pop\n      jump\t// out\n        /* \"#utility.yul\":12912:13134   */\n    tag_64:\n        /* \"#utility.yul\":13005:13009   */\n      0x00\n        /* \"#utility.yul\":13043:13045   */\n      0x20\n        /* \"#utility.yul\":13032:13041   */\n      dup3\n        /* \"#utility.yul\":13028:13046   */\n      add\n        /* \"#utility.yul\":13020:13046   */\n      swap1\n      pop\n        /* \"#utility.yul\":13056:13127   */\n      tag_396\n        /* \"#utility.yul\":13124:13125   */\n      0x00\n        /* \"#utility.yul\":13113:13122   */\n      dup4\n        /* \"#utility.yul\":13109:13126   */\n      add\n        /* \"#utility.yul\":13100:13106   */\n      dup5\n        /* \"#utility.yul\":13056:13127   */\n      tag_203\n      jump\t// in\n    tag_396:\n        /* \"#utility.yul\":12912:13134   */\n      swap3\n      swap2\n      pop\n      pop\n      jump\t// out\n        /* \"#utility.yul\":13140:14014   */\n    tag_74:\n        /* \"#utility.yul\":13395:13399   */\n      0x00\n        /* \"#utility.yul\":13433:13436   */\n      0xe0\n        /* \"#utility.yul\":13422:13431   */\n      dup3\n        /* \"#utility.yul\":13418:13437   */\n      add\n        /* \"#utility.yul\":13410:13437   */\n      swap1\n      pop\n        /* \"#utility.yul\":13447:13518   */\n      tag_398\n        /* \"#utility.yul\":13515:13516   */\n      0x00\n        /* \"#utility.yul\":13504:13513   */\n      dup4\n        /* \"#utility.yul\":13500:13517   */\n      add\n        /* \"#utility.yul\":13491:13497   */\n      dup11\n        /* \"#utility.yul\":13447:13518   */\n      tag_200\n      jump\t// in\n    tag_398:\n        /* \"#utility.yul\":13528:13600   */\n      tag_399\n        /* \"#utility.yul\":13596:13598   */\n      0x20\n        /* \"#utility.yul\":13585:13594   */\n      dup4\n        /* \"#utility.yul\":13581:13599   */\n      add\n        /* \"#utility.yul\":13572:13578   */\n      dup10\n        /* \"#utility.yul\":13528:13600   */\n      tag_200\n      jump\t// in\n    tag_399:\n        /* \"#utility.yul\":13610:13682   */\n      tag_400\n        /* \"#utility.yul\":13678:13680   */\n      0x40\n        /* \"#utility.yul\":13667:13676   */\n      dup4\n        /* \"#utility.yul\":13663:13681   */\n      add\n        /* \"#utility.yul\":13654:13660   */\n      dup9\n        /* \"#utility.yul\":13610:13682   */\n      tag_203\n      jump\t// in\n    tag_400:\n        /* \"#utility.yul\":13692:13764   */\n      tag_401\n        /* \"#utility.yul\":13760:13762   */\n      0x60\n        /* \"#utility.yul\":13749:13758   */\n      dup4\n        /* \"#utility.yul\":13745:13763   */\n      add\n        /* \"#utility.yul\":13736:13742   */\n      dup8\n        /* \"#utility.yul\":13692:13764   */\n      tag_200\n      jump\t// in\n    tag_401:\n        /* \"#utility.yul\":13774:13847   */\n      tag_402\n        /* \"#utility.yul\":13842:13845   */\n      0x80\n        /* \"#utility.yul\":13831:13840   */\n      dup4\n        /* \"#utility.yul\":13827:13846   */\n      add\n        /* \"#utility.yul\":13818:13824   */\n      dup7\n        /* \"#utility.yul\":13774:13847   */\n      tag_200\n      jump\t// in\n    tag_402:\n        /* \"#utility.yul\":13857:13930   */\n      tag_403\n        /* \"#utility.yul\":13925:13928   */\n      0xa0\n        /* \"#utility.yul\":13914:13923   */\n      dup4\n        /* \"#utility.yul\":13910:13929   */\n      add\n        /* \"#utility.yul\":13901:13907   */\n      dup6\n        /* \"#utility.yul\":13857:13930   */\n      tag_200\n      jump\t// in\n    tag_403:\n        /* \"#utility.yul\":13940:14007   */\n      tag_404\n        /* \"#utility.yul\":14002:14005   */\n      0xc0\n        /* \"#utility.yul\":13991:14000   */\n      dup4\n        /* \"#utility.yul\":13987:14006   */\n      add\n        /* \"#utility.yul\":13978:13984   */\n      dup5\n        /* \"#utility.yul\":13940:14007   */\n      tag_210\n      jump\t// in\n    tag_404:\n        /* \"#utility.yul\":13140:14014   */\n      swap9\n      swap8\n      pop\n      pop\n      pop\n      pop\n      pop\n      pop\n      pop\n      pop\n      jump\t// out\n        /* \"#utility.yul\":14020:14187   */\n    tag_230:\n        /* \"#utility.yul\":14160:14179   */\n      0x475055206e6f7420617661696c61626c65000000000000000000000000000000\n        /* \"#utility.yul\":14156:14157   */\n      0x00\n        /* \"#utility.yul\":14148:14154   */\n      dup3\n        /* \"#utility.yul\":14144:14158   */\n      add\n        /* \"#utility.yul\":14137:14180   */\n      mstore\n        /* \"#utility.yul\":14020:14187   */\n      pop\n      jump\t// out\n        /* \"#utility.yul\":14193:14559   */\n    tag_231:\n        /* \"#utility.yul\":14335:14338   */\n      0x00\n        /* \"#utility.yul\":14356:14423   */\n      tag_407\n        /* \"#utility.yul\":14420:14422   */\n      0x11\n        /* \"#utility.yul\":14415:14418   */\n      dup4\n        /* \"#utility.yul\":14356:14423   */\n      tag_205\n      jump\t// in\n    tag_407:\n        /* \"#utility.yul\":14349:14423   */\n      swap2\n      pop\n        /* \"#utility.yul\":14432:14525   */\n      tag_408\n        /* \"#utility.yul\":14521:14524   */\n      dup3\n        /* \"#utility.yul\":14432:14525   */\n      tag_230\n      jump\t// in\n    tag_408:\n        /* \"#utility.yul\":14550:14552   */\n      0x20\n        /* \"#utility.yul\":14545:14548   */\n      dup3\n        /* \"#utility.yul\":14541:14553   */\n      add\n        /* \"#utility.yul\":14534:14553   */\n      swap1\n      pop\n        /* \"#utility.yul\":14193:14559   */\n      swap2\n      swap1\n      pop\n      jump\t// out\n        /* \"#utility.yul\":14565:14984   */\n    tag_85:\n        /* \"#utility.yul\":14731:14735   */\n      0x00\n        /* \"#utility.yul\":14769:14771   */\n      0x20\n        /* \"#utility.yul\":14758:14767   */\n      dup3\n        /* \"#utility.yul\":14754:14772   */\n      add\n        /* \"#utility.yul\":14746:14772   */\n      swap1\n      pop\n        /* \"#utility.yul\":14818:14827   */\n      dup2\n        /* \"#utility.yul\":14812:14816   */\n      dup2\n        /* \"#utility.yul\":14808:14828   */\n      sub\n        /* \"#utility.yul\":14804:14805   */\n      0x00\n        /* \"#utility.yul\":14793:14802   */\n      dup4\n        /* \"#utility.yul\":14789:14806   */\n      add\n        /* \"#utility.yul\":14782:14829   */\n      mstore\n        /* \"#utility.yul\":14846:14977   */\n      tag_410\n        /* \"#utility.yul\":14972:14976   */\n      dup2\n        /* \"#utility.yul\":14846:14977   */\n      tag_231\n      jump\t// in\n    tag_410:\n        /* \"#utility.yul\":14838:14977   */\n      swap1\n      pop\n        /* \"#utility.yul\":14565:14984   */\n      swap2\n      swap1\n      pop\n      jump\t// out\n        /* \"#utility.yul\":14990:15162   */\n    tag_232:\n        /* \"#utility.yul\":15130:15154   */\n      0x52656e74206475726174696f6e20726571756972656400000000000000000000\n        /* \"#utility.yul\":15126:15127   */\n      0x00\n        /* \"#utility.yul\":15118:15124   */\n      dup3\n        /* \"#utility.yul\":15114:15128   */\n      add\n        /* \"#utility.yul\":15107:15155   */\n      mstore\n        /* \"#utility.yul\":14990:15162   */\n      pop\n      jump\t// out\n        /* \"#utility.yul\":15168:15534   */\n    tag_233:\n        /* \"#utility.yul\":15310:15313   */\n      0x00\n        /* \"#utility.yul\":15331:15398   */\n      tag_413\n        /* \"#utility.yul\":15395:15397   */\n      0x16\n        /* \"#utility.yul\":15390:15393   */\n      dup4\n        /* \"#utility.yul\":15331:15398   */\n      tag_205\n      jump\t// in\n    tag_413:\n        /* \"#utility.yul\":15324:15398   */\n      swap2\n      pop\n        /* \"#utility.yul\":15407:15500   */\n      tag_414\n        /* \"#utility.yul\":15496:15499   */\n      dup3\n        /* \"#utility.yul\":15407:15500   */\n      tag_232\n      jump\t// in\n    tag_414:\n        /* \"#utility.yul\":15525:15527   */\n      0x20\n        /* \"#utility.yul\":15520:15523   */\n      dup3\n        /* \"#utility.yul\":15516:15528   */\n      add\n        /* \"#utility.yul\":15509:15528   */\n      swap1\n      pop\n        /* \"#utility.yul\":15168:15534   */\n      swap2\n      swap1\n      pop\n      jump\t// out\n        /* \"#utility.yul\":15540:15959   */\n    tag_88:\n        /* \"#utility.yul\":15706:15710   */\n      0x00\n        /* \"#utility.yul\":15744:15746   */\n      0x20\n        /* \"#utility.yul\":15733:15742   */\n      dup3\n        /* \"#utility.yul\":15729:15747   */\n      add\n        /* \"#utility.yul\":15721:15747   */\n      swap1\n      pop\n        /* \"#utility.yul\":15793:15802   */\n      dup2\n        /* \"#utility.yul\":15787:15791   */\n      dup2\n        /* \"#utility.yul\":15783:15803   */\n      sub\n        /* \"#utility.yul\":15779:15780   */\n      0x00\n        /* \"#utility.yul\":15768:15777   */\n      dup4\n        /* \"#utility.yul\":15764:15781   */\n      add\n        /* \"#utility.yul\":15757:15804   */\n      mstore\n        /* \"#utility.yul\":15821:15952   */\n      tag_416\n        /* \"#utility.yul\":15947:15951   */\n      dup2\n        /* \"#utility.yul\":15821:15952   */\n      tag_233\n      jump\t// in\n    tag_416:\n        /* \"#utility.yul\":15813:15952   */\n      swap1\n      pop\n        /* \"#utility.yul\":15540:15959   */\n      swap2\n      swap1\n      pop\n      jump\t// out\n        /* \"#utility.yul\":15965:16145   */\n    tag_234:\n        /* \"#utility.yul\":16013:16090   */\n      0x4e487b7100000000000000000000000000000000000000000000000000000000\n        /* \"#utility.yul\":16010:16011   */\n      0x00\n        /* \"#utility.yul\":16003:16091   */\n      mstore\n        /* \"#utility.yul\":16110:16114   */\n      0x11\n        /* \"#utility.yul\":16107:16108   */\n      0x04\n        /* \"#utility.yul\":16100:16115   */\n      mstore\n        /* \"#utility.yul\":16134:16138   */\n      0x24\n        /* \"#utility.yul\":16131:16132   */\n      0x00\n        /* \"#utility.yul\":16124:16139   */\n      revert\n        /* \"#utility.yul\":16151:16561   */\n    tag_90:\n        /* \"#utility.yul\":16191:16198   */\n      0x00\n        /* \"#utility.yul\":16214:16234   */\n      tag_419\n        /* \"#utility.yul\":16232:16233   */\n      dup3\n        /* \"#utility.yul\":16214:16234   */\n      tag_197\n      jump\t// in\n    tag_419:\n        /* \"#utility.yul\":16209:16234   */\n      swap2\n      pop\n        /* \"#utility.yul\":16248:16268   */\n      tag_420\n        /* \"#utility.yul\":16266:16267   */\n      dup4\n        /* \"#utility.yul\":16248:16268   */\n      tag_197\n      jump\t// in\n    tag_420:\n        /* \"#utility.yul\":16243:16268   */\n      swap3\n      pop\n        /* \"#utility.yul\":16303:16304   */\n      dup3\n        /* \"#utility.yul\":16300:16301   */\n      dup3\n        /* \"#utility.yul\":16296:16305   */\n      mul\n        /* \"#utility.yul\":16325:16355   */\n      tag_421\n        /* \"#utility.yul\":16343:16354   */\n      dup2\n        /* \"#utility.yul\":16325:16355   */\n      tag_197\n      jump\t// in\n    tag_421:\n        /* \"#utility.yul\":16314:16355   */\n      swap2\n      pop\n        /* \"#utility.yul\":16504:16505   */\n      dup3\n        /* \"#utility.yul\":16495:16502   */\n      dup3\n        /* \"#utility.yul\":16491:16506   */\n      div\n        /* \"#utility.yul\":16488:16489   */\n      dup5\n        /* \"#utility.yul\":16485:16507   */\n      eq\n        /* \"#utility.yul\":16465:16466   */\n      dup4\n        /* \"#utility.yul\":16458:16467   */\n      iszero\n        /* \"#utility.yul\":16438:16521   */\n      or\n        /* \"#utility.yul\":16415:16554   */\n      tag_422\n      jumpi\n        /* \"#utility.yul\":16534:16552   */\n      tag_423\n      tag_234\n      jump\t// in\n    tag_423:\n        /* \"#utility.yul\":16415:16554   */\n    tag_422:\n        /* \"#utility.yul\":16199:16561   */\n      pop\n        /* \"#utility.yul\":16151:16561   */\n      swap3\n      swap2\n      pop\n      pop\n      jump\t// out\n        /* \"#utility.yul\":16567:16737   */\n    tag_235:\n        /* \"#utility.yul\":16707:16729   */\n      0x496e73756666696369656e74207061796d656e74000000000000000000000000\n        /* \"#utility.yul\":16703:16704   */\n      0x00\n        /* \"#utility.yul\":16695:16701   */\n      dup3\n        /* \"#utility.yul\":16691:16705   */\n      add\n        /* \"#utility.yul\":16684:16730   */\n      mstore\n        /* \"#utility.yul\":16567:16737   */\n      pop\n      jump\t// out\n        /* \"#utility.yul\":16743:17109   */\n    tag_236:\n        /* \"#utility.yul\":16885:16888   */\n      0x00\n        /* \"#utility.yul\":16906:16973   */\n      tag_426\n        /* \"#utility.yul\":16970:16972   */\n      0x14\n        /* \"#utility.yul\":16965:16968   */\n      dup4\n        /* \"#utility.yul\":16906:16973   */\n      tag_205\n      jump\t// in\n    tag_426:\n        /* \"#utility.yul\":16899:16973   */\n      swap2\n      pop\n        /* \"#utility.yul\":16982:17075   */\n      tag_427\n        /* \"#utility.yul\":17071:17074   */\n      dup3\n        /* \"#utility.yul\":16982:17075   */\n      tag_235\n      jump\t// in\n    tag_427:\n        /* \"#utility.yul\":17100:17102   */\n      0x20\n        /* \"#utility.yul\":17095:17098   */\n      dup3\n        /* \"#utility.yul\":17091:17103   */\n      add\n        /* \"#utility.yul\":17084:17103   */\n      swap1\n      pop\n        /* \"#utility.yul\":16743:17109   */\n      swap2\n      swap1\n      pop\n      jump\t// out\n        /* \"#utility.yul\":17115:17534   */\n    tag_93:\n        /* \"#utility.yul\":17281:17285   */\n      0x00\n        /* \"#utility.yul\":17319:17321   */\n      0x20\n        /* \"#utility.yul\":17308:17317   */\n      dup3\n        /* \"#utility.yul\":17304:17322   */\n      add\n        /* \"#utility.yul\":17296:17322   */\n      swap1\n      pop\n        /* \"#utility.yul\":17368:17377   */\n      dup2\n        /* \"#utility.yul\":17362:17366   */\n      dup2\n        /* \"#utility.yul\":17358:17378   */\n      sub\n        /* \"#utility.yul\":17354:17355   */\n      0x00\n        /* \"#utility.yul\":17343:17352   */\n      dup4\n        /* \"#utility.yul\":17339:17356   */\n      add\n        /* \"#utility.yul\":17332:17379   */\n      mstore\n        /* \"#utility.yul\":17396:17527   */\n      tag_429\n        /* \"#utility.yul\":17522:17526   */\n      dup2\n        /* \"#utility.yul\":17396:17527   */\n      tag_236\n      jump\t// in\n    tag_429:\n        /* \"#utility.yul\":17388:17527   */\n      swap1\n      pop\n        /* \"#utility.yul\":17115:17534   */\n      swap2\n      swap1\n      pop\n      jump\t// out\n        /* \"#utility.yul\":17540:17773   */\n    tag_95:\n        /* \"#utility.yul\":17579:17582   */\n      0x00\n        /* \"#utility.yul\":17602:17626   */\n      tag_431\n        /* \"#utility.yul\":17620:17625   */\n      dup3\n        /* \"#utility.yul\":17602:17626   */\n      tag_197\n      jump\t// in\n    tag_431:\n        /* \"#utility.yul\":17593:17626   */\n      swap2\n      pop\n        /* \"#utility.yul\":17648:17714   */\n      0xffffffffffffffffffffffffffffffffffffffffffffffffffffffffffffffff\n        /* \"#utility.yul\":17641:17646   */\n      dup3\n        /* \"#utility.yul\":17638:17715   */\n      sub\n        /* \"#utility.yul\":17635:17738   */\n      tag_432\n      jumpi\n        /* \"#utility.yul\":17718:17736   */\n      tag_433\n      tag_234\n      jump\t// in\n    tag_433:\n        /* \"#utility.yul\":17635:17738   */\n    tag_432:\n        /* \"#utility.yul\":17765:17766   */\n      0x01\n        /* \"#utility.yul\":17758:17763   */\n      dup3\n        /* \"#utility.yul\":17754:17767   */\n      add\n        /* \"#utility.yul\":17747:17767   */\n      swap1\n      pop\n        /* \"#utility.yul\":17540:17773   */\n      swap2\n      swap1\n      pop\n      jump\t// out\n        /* \"#utility.yul\":17779:17970   */\n    tag_98:\n        /* \"#utility.yul\":17819:17822   */\n      0x00\n        /* \"#utility.yul\":17838:17858   */\n      tag_435\n        /* \"#utility.yul\":17856:17857   */\n      dup3\n        /* \"#utility.yul\":17838:17858   */\n      tag_197\n      jump\t// in\n    tag_435:\n        /* \"#utility.yul\":17833:17858   */\n      swap2\n      pop\n        /* \"#utility.yul\":17872:17892   */\n      tag_436\n        /* \"#utility.yul\":17890:17891   */\n      dup4\n        /* \"#utility.yul\":17872:17892   */\n      tag_197\n      jump\t// in\n    tag_436:\n        /* \"#utility.yul\":17867:17892   */\n      swap3\n      pop\n        /* \"#utility.yul\":17915:17916   */\n      dup3\n        /* \"#utility.yul\":17912:17913   */\n      dup3\n        /* \"#utility.yul\":17908:17917   */\n      add\n        /* \"#utility.yul\":17901:17917   */\n      swap1\n      pop\n        /* \"#utility.yul\":17936:17939   */\n      dup1\n        /* \"#utility.yul\":17933:17934   */\n      dup3\n        /* \"#utility.yul\":17930:17940   */\n      gt\n        /* \"#utility.yul\":17927:17963   */\n      iszero\n      tag_437\n      jumpi\n        /* \"#utility.yul\":17943:17961   */\n      tag_438\n      tag_234\n      jump\t// in\n    tag_438:\n        /* \"#utility.yul\":17927:17963   */\n    tag_437:\n        /* \"#utility.yul\":17779:17970   */\n      swap3\n      swap2\n      pop\n      pop\n      jump\t// out\n        /* \"#utility.yul\":17976:18123   */\n    tag_237:\n        /* \"#utility.yul\":18077:18088   */\n      0x00\n        /* \"#utility.yul\":18114:18117   */\n      dup2\n        /* \"#utility.yul\":18099:18117   */\n      swap1\n      pop\n        /* \"#utility.yul\":17976:18123   */\n      swap3\n      swap2\n      pop\n      pop\n      jump\t// out\n        /* \"#utility.yul\":18129:18243   */\n    tag_238:\n      pop\n      jump\t// out\n        /* \"#utility.yul\":18249:18647   */\n    tag_239:\n        /* \"#utility.yul\":18408:18411   */\n      0x00\n        /* \"#utility.yul\":18429:18512   */\n      tag_442\n        /* \"#utility.yul\":18510:18511   */\n      0x00\n        /* \"#utility.yul\":18505:18508   */\n      dup4\n        /* \"#utility.yul\":18429:18512   */\n      tag_237\n      jump\t// in\n    tag_442:\n        /* \"#utility.yul\":18422:18512   */\n      swap2\n      pop\n        /* \"#utility.yul\":18521:18614   */\n      tag_443\n        /* \"#utility.yul\":18610:18613   */\n      dup3\n        /* \"#utility.yul\":18521:18614   */\n      tag_238\n      jump\t// in\n    tag_443:\n        /* \"#utility.yul\":18639:18640   */\n      0x00\n        /* \"#utility.yul\":18634:18637   */\n      dup3\n        /* \"#utility.yul\":18630:18641   */\n      add\n        /* \"#utility.yul\":18623:18641   */\n      swap1\n      pop\n        /* \"#utility.yul\":18249:18647   */\n      swap2\n      swap1\n      pop\n      jump\t// out\n        /* \"#utility.yul\":18653:19032   */\n    tag_100:\n        /* \"#utility.yul\":18837:18840   */\n      0x00\n        /* \"#utility.yul\":18859:19006   */\n      tag_445\n        /* \"#utility.yul\":19002:19005   */\n      dup3\n        /* \"#utility.yul\":18859:19006   */\n      tag_239\n      jump\t// in\n    tag_445:\n        /* \"#utility.yul\":18852:19006   */\n      swap2\n      pop\n        /* \"#utility.yul\":19023:19026   */\n      dup2\n        /* \"#utility.yul\":19016:19026   */\n      swap1\n      pop\n        /* \"#utility.yul\":18653:19032   */\n      swap2\n      swap1\n      pop\n      jump\t// out\n        /* \"#utility.yul\":19038:19202   */\n    tag_240:\n        /* \"#utility.yul\":19178:19194   */\n      0x5061796d656e74206661696c6564000000000000000000000000000000000000\n        /* \"#utility.yul\":19174:19175   */\n      0x00\n        /* \"#utility.yul\":19166:19172   */\n      dup3\n        /* \"#utility.yul\":19162:19176   */\n      add\n        /* \"#utility.yul\":19155:19195   */\n      mstore\n        /* \"#utility.yul\":19038:19202   */\n      pop\n      jump\t// out\n        /* \"#utility.yul\":19208:19574   */\n    tag_241:\n        /* \"#utility.yul\":19350:19353   */\n      0x00\n        /* \"#utility.yul\":19371:19438   */\n      tag_448\n        /* \"#utility.yul\":19435:19437   */\n      0x0e\n        /* \"#utility.yul\":19430:19433   */\n      dup4\n        /* \"#utility.yul\":19371:19438   */\n      tag_205\n      jump\t// in\n    tag_448:\n        /* \"#utility.yul\":19364:19438   */\n      swap2\n      pop\n        /* \"#utility.yul\":19447:19540   */\n      tag_449\n        /* \"#utility.yul\":19536:19539   */\n      dup3\n        /* \"#utility.yul\":19447:19540   */\n      tag_240\n      jump\t// in\n    tag_449:\n        /* \"#utility.yul\":19565:19567   */\n      0x20\n        /* \"#utility.yul\":19560:19563   */\n      dup3\n        /* \"#utility.yul\":19556:19568   */\n      add\n        /* \"#utility.yul\":19549:19568   */\n      swap1\n      pop\n        /* \"#utility.yul\":19208:19574   */\n      swap2\n      swap1\n      pop\n      jump\t// out\n        /* \"#utility.yul\":19580:19999   */\n    tag_106:\n        /* \"#utility.yul\":19746:19750   */\n      0x00\n        /* \"#utility.yul\":19784:19786   */\n      0x20\n        /* \"#utility.yul\":19773:19782   */\n      dup3\n        /* \"#utility.yul\":19769:19787   */\n      add\n        /* \"#utility.yul\":19761:19787   */\n      swap1\n      pop\n        /* \"#utility.yul\":19833:19842   */\n      dup2\n        /* \"#utility.yul\":19827:19831   */\n      dup2\n        /* \"#utility.yul\":19823:19843   */\n      sub\n        /* \"#utility.yul\":19819:19820   */\n      0x00\n        /* \"#utility.yul\":19808:19817   */\n      dup4\n        /* \"#utility.yul\":19804:19821   */\n      add\n        /* \"#utility.yul\":19797:19844   */\n      mstore\n        /* \"#utility.yul\":19861:19992   */\n      tag_451\n        /* \"#utility.yul\":19987:19991   */\n      dup2\n        /* \"#utility.yul\":19861:19992   */\n      tag_241\n      jump\t// in\n    tag_451:\n        /* \"#utility.yul\":19853:19992   */\n      swap1\n      pop\n        /* \"#utility.yul\":19580:19999   */\n      swap2\n      swap1\n      pop\n      jump\t// out\n        /* \"#utility.yul\":20005:20199   */\n    tag_109:\n        /* \"#utility.yul\":20045:20049   */\n      0x00\n        /* \"#utility.yul\":20065:20085   */\n      tag_453\n        /* \"#utility.yul\":20083:20084   */\n      dup3\n        /* \"#utility.yul\":20065:20085   */\n      tag_197\n      jump\t// in\n    tag_453:\n        /* \"#utility.yul\":20060:20085   */\n      swap2\n      pop\n        /* \"#utility.yul\":20099:20119   */\n      tag_454\n        /* \"#utility.yul\":20117:20118   */\n      dup4\n        /* \"#utility.yul\":20099:20119   */\n      tag_197\n      jump\t// in\n    tag_454:\n        /* \"#utility.yul\":20094:20119   */\n      swap3\n      pop\n        /* \"#utility.yul\":20143:20144   */\n      dup3\n        /* \"#utility.yul\":20140:20141   */\n      dup3\n        /* \"#utility.yul\":20136:20145   */\n      sub\n        /* \"#utility.yul\":20128:20145   */\n      swap1\n      pop\n        /* \"#utility.yul\":20167:20168   */\n      dup2\n        /* \"#utility.yul\":20161:20165   */\n      dup2\n        /* \"#utility.yul\":20158:20169   */\n      gt\n        /* \"#utility.yul\":20155:20192   */\n      iszero\n      tag_455\n      jumpi\n        /* \"#utility.yul\":20172:20190   */\n      tag_456\n      tag_234\n      jump\t// in\n    tag_456:\n        /* \"#utility.yul\":20155:20192   */\n    tag_455:\n        /* \"#utility.yul\":20005:20199   */\n      swap3\n      swap2\n      pop\n      pop\n      jump\t// out\n        /* \"#utility.yul\":20205:20368   */\n    tag_242:\n        /* \"#utility.yul\":20345:20360   */\n      0x526566756e64206661696c656400000000000000000000000000000000000000\n        /* \"#utility.yul\":20341:20342   */\n      0x00\n        /* \"#utility.yul\":20333:20339   */\n      dup3\n        /* \"#utility.yul\":20329:20343   */\n      add\n        /* \"#utility.yul\":20322:20361   */\n      mstore\n        /* \"#utility.yul\":20205:20368   */\n      pop\n      jump\t// out\n        /* \"#utility.yul\":20374:20740   */\n    tag_243:\n        /* \"#utility.yul\":20516:20519   */\n      0x00\n        /* \"#utility.yul\":20537:20604   */\n      tag_459\n        /* \"#utility.yul\":20601:20603   */\n      0x0d\n        /* \"#utility.yul\":20596:20599   */\n      dup4\n        /* \"#utility.yul\":20537:20604   */\n      tag_205\n      jump\t// in\n    tag_459:\n        /* \"#utility.yul\":20530:20604   */\n      swap2\n      pop\n        /* \"#utility.yul\":20613:20706   */\n      tag_460\n        /* \"#utility.yul\":20702:20705   */\n      dup3\n        /* \"#utility.yul\":20613:20706   */\n      tag_242\n      jump\t// in\n    tag_460:\n        /* \"#utility.yul\":20731:20733   */\n      0x20\n        /* \"#utility.yul\":20726:20729   */\n      dup3\n        /* \"#utility.yul\":20722:20734   */\n      add\n        /* \"#utility.yul\":20715:20734   */\n      swap1\n      pop\n        /* \"#utility.yul\":20374:20740   */\n      swap2\n      swap1\n      pop\n      jump\t// out\n        /* \"#utility.yul\":20746:21165   */\n    tag_116:\n        /* \"#utility.yul\":20912:20916   */\n      0x00\n        /* \"#utility.yul\":20950:20952   */\n      0x20\n        /* \"#utility.yul\":20939:20948   */\n      dup3\n        /* \"#utility.yul\":20935:20953   */\n      add\n        /* \"#utility.yul\":20927:20953   */\n      swap1\n      pop\n        /* \"#utility.yul\":20999:21008   */\n      dup2\n        /* \"#utility.yul\":20993:20997   */\n      dup2\n        /* \"#utility.yul\":20989:21009   */\n      sub\n        /* \"#utility.yul\":20985:20986   */\n      0x00\n        /* \"#utility.yul\":20974:20983   */\n      dup4\n        /* \"#utility.yul\":20970:20987   */\n      add\n        /* \"#utility.yul\":20963:21010   */\n      mstore\n        /* \"#utility.yul\":21027:21158   */\n      tag_462\n        /* \"#utility.yul\":21153:21157   */\n      dup2\n        /* \"#utility.yul\":21027:21158   */\n      tag_243\n      jump\t// in\n    tag_462:\n        /* \"#utility.yul\":21019:21158   */\n      swap1\n      pop\n        /* \"#utility.yul\":20746:21165   */\n      swap2\n      swap1\n      pop\n      jump\t// out\n        /* \"#utility.yul\":21171:21351   */\n    tag_244:\n        /* \"#utility.yul\":21219:21296   */\n      0x4e487b7100000000000000000000000000000000000000000000000000000000\n        /* \"#utility.yul\":21216:21217   */\n      0x00\n        /* \"#utility.yul\":21209:21297   */\n      mstore\n        /* \"#utility.yul\":21316:21320   */\n      0x22\n        /* \"#utility.yul\":21313:21314   */\n      0x04\n        /* \"#utility.yul\":21306:21321   */\n      mstore\n        /* \"#utility.yul\":21340:21344   */\n      0x24\n        /* \"#utility.yul\":21337:21338   */\n      0x00\n        /* \"#utility.yul\":21330:21345   */\n      revert\n        /* \"#utility.yul\":21357:21677   */\n    tag_120:\n        /* \"#utility.yul\":21401:21407   */\n      0x00\n        /* \"#utility.yul\":21438:21439   */\n      0x02\n        /* \"#utility.yul\":21432:21436   */\n      dup3\n        /* \"#utility.yul\":21428:21440   */\n      div\n        /* \"#utility.yul\":21418:21440   */\n      swap1\n      pop\n        /* \"#utility.yul\":21485:21486   */\n      0x01\n        /* \"#utility.yul\":21479:21483   */\n      dup3\n        /* \"#utility.yul\":21475:21487   */\n      and\n        /* \"#utility.yul\":21506:21524   */\n      dup1\n        /* \"#utility.yul\":21496:21577   */\n      tag_465\n      jumpi\n        /* \"#utility.yul\":21562:21566   */\n      0x7f\n        /* \"#utility.yul\":21554:21560   */\n      dup3\n        /* \"#utility.yul\":21550:21567   */\n      and\n        /* \"#utility.yul\":21540:21567   */\n      swap2\n      pop\n        /* \"#utility.yul\":21496:21577   */\n    tag_465:\n        /* \"#utility.yul\":21624:21626   */\n      0x20\n        /* \"#utility.yul\":21616:21622   */\n      dup3\n        /* \"#utility.yul\":21613:21627   */\n      lt\n        /* \"#utility.yul\":21593:21611   */\n      dup2\n        /* \"#utility.yul\":21590:21628   */\n      sub\n        /* \"#utility.yul\":21587:21671   */\n      tag_466\n      jumpi\n        /* \"#utility.yul\":21643:21661   */\n      tag_467\n      tag_244\n      jump\t// in\n    tag_467:\n        /* \"#utility.yul\":21587:21671   */\n    tag_466:\n        /* \"#utility.yul\":21408:21677   */\n      pop\n        /* \"#utility.yul\":21357:21677   */\n      swap2\n      swap1\n      pop\n      jump\t// out\n        /* \"#utility.yul\":21683:21851   */\n    tag_245:\n        /* \"#utility.yul\":21823:21843   */\n      0x4750552073706563732072657175697265640000000000000000000000000000\n        /* \"#utility.yul\":21819:21820   */\n      0x00\n        /* \"#utility.yul\":21811:21817   */\n      dup3\n        /* \"#utility.yul\":21807:21821   */\n      add\n        /* \"#utility.yul\":21800:21844   */\n      mstore\n        /* \"#utility.yul\":21683:21851   */\n      pop\n      jump\t// out\n        /* \"#utility.yul\":21857:22223   */\n    tag_246:\n        /* \"#utility.yul\":21999:22002   */\n      0x00\n        /* \"#utility.yul\":22020:22087   */\n      tag_470\n        /* \"#utility.yul\":22084:22086   */\n      0x12\n        /* \"#utility.yul\":22079:22082   */\n      dup4\n        /* \"#utility.yul\":22020:22087   */\n      tag_205\n      jump\t// in\n    tag_470:\n        /* \"#utility.yul\":22013:22087   */\n      swap2\n      pop\n        /* \"#utility.yul\":22096:22189   */\n      tag_471\n        /* \"#utility.yul\":22185:22188   */\n      dup3\n        /* \"#utility.yul\":22096:22189   */\n      tag_245\n      jump\t// in\n    tag_471:\n        /* \"#utility.yul\":22214:22216   */\n      0x20\n        /* \"#utility.yul\":22209:22212   */\n      dup3\n        /* \"#utility.yul\":22205:22217   */\n      add\n        /* \"#utility.yul\":22198:22217   */\n      swap1\n      pop\n        /* \"#utility.yul\":21857:22223   */\n      swap2\n      swap1\n      pop\n      jump\t// out\n        /* \"#utility.yul\":22229:22648   */\n    tag_141:\n        /* \"#utility.yul\":22395:22399   */\n      0x00\n        /* \"#utility.yul\":22433:22435   */\n      0x20\n        /* \"#utility.yul\":22422:22431   */\n      dup3\n        /* \"#utility.yul\":22418:22436   */\n      add\n        /* \"#utility.yul\":22410:22436   */\n      swap1\n      pop\n        /* \"#utility.yul\":22482:22491   */\n      dup2\n        /* \"#utility.yul\":22476:22480   */\n      dup2\n        /* \"#utility.yul\":22472:22492   */\n      sub\n        /* \"#utility.yul\":22468:22469   */\n      0x00\n        /* \"#utility.yul\":22457:22466   */\n      dup4\n        /* \"#utility.yul\":22453:22470   */\n      add\n        /* \"#utility.yul\":22446:22493   */\n      mstore\n        /* \"#utility.yul\":22510:22641   */\n      tag_473\n        /* \"#utility.yul\":22636:22640   */\n      dup2\n        /* \"#utility.yul\":22510:22641   */\n      tag_246\n      jump\t// in\n    tag_473:\n        /* \"#utility.yul\":22502:22641   */\n      swap1\n      pop\n        /* \"#utility.yul\":22229:22648   */\n      swap2\n      swap1\n      pop\n      jump\t// out\n        /* \"#utility.yul\":22654:22875   */\n    tag_247:\n        /* \"#utility.yul\":22794:22828   */\n      0x486f75726c792072617465206d7573742062652067726561746572207468616e\n        /* \"#utility.yul\":22790:22791   */\n      0x00\n        /* \"#utility.yul\":22782:22788   */\n      dup3\n        /* \"#utility.yul\":22778:22792   */\n      add\n        /* \"#utility.yul\":22771:22829   */\n      mstore\n        /* \"#utility.yul\":22863:22867   */\n      0x2030000000000000000000000000000000000000000000000000000000000000\n        /* \"#utility.yul\":22858:22860   */\n      0x20\n        /* \"#utility.yul\":22850:22856   */\n      dup3\n        /* \"#utility.yul\":22846:22861   */\n      add\n        /* \"#utility.yul\":22839:22868   */\n      mstore\n        /* \"#utility.yul\":22654:22875   */\n      pop\n      jump\t// out\n        /* \"#utility.yul\":22881:23247   */\n    tag_248:\n        /* \"#utility.yul\":23023:23026   */\n      0x00\n        /* \"#utility.yul\":23044:23111   */\n      tag_476\n        /* \"#utility.yul\":23108:23110   */\n      0x22\n        /* \"#utility.yul\":23103:23106   */\n      dup4\n        /* \"#utility.yul\":23044:23111   */\n      tag_205\n      jump\t// in\n    tag_476:\n        /* \"#utility.yul\":23037:23111   */\n      swap2\n      pop\n        /* \"#utility.yul\":23120:23213   */\n      tag_477\n        /* \"#utility.yul\":23209:23212   */\n      dup3\n        /* \"#utility.yul\":23120:23213   */\n      tag_247\n      jump\t// in\n    tag_477:\n        /* \"#utility.yul\":23238:23240   */\n      0x40\n        /* \"#utility.yul\":23233:23236   */\n      dup3\n        /* \"#utility.yul\":23229:23241   */\n      add\n        /* \"#utility.yul\":23222:23241   */\n      swap1\n      pop\n        /* \"#utility.yul\":22881:23247   */\n      swap2\n      swap1\n      pop\n      jump\t// out\n        /* \"#utility.yul\":23253:23672   */\n    tag_144:\n        /* \"#utility.yul\":23419:23423   */\n      0x00\n        /* \"#utility.yul\":23457:23459   */\n      0x20\n        /* \"#utility.yul\":23446:23455   */\n      dup3\n        /* \"#utility.yul\":23442:23460   */\n      add\n        /* \"#utility.yul\":23434:23460   */\n      swap1\n      pop\n        /* \"#utility.yul\":23506:23515   */\n      dup2\n        /* \"#utility.yul\":23500:23504   */\n      dup2\n        /* \"#utility.yul\":23496:23516   */\n      sub\n        /* \"#utility.yul\":23492:23493   */\n      0x00\n        /* \"#utility.yul\":23481:23490   */\n      dup4\n        /* \"#utility.yul\":23477:23494   */\n      add\n        /* \"#utility.yul\":23470:23517   */\n      mstore\n        /* \"#utility.yul\":23534:23665   */\n      tag_479\n        /* \"#utility.yul\":23660:23664   */\n      dup2\n        /* \"#utility.yul\":23534:23665   */\n      tag_248\n      jump\t// in\n    tag_479:\n        /* \"#utility.yul\":23526:23665   */\n      swap1\n      pop\n        /* \"#utility.yul\":23253:23672   */\n      swap2\n      swap1\n      pop\n      jump\t// out\n        /* \"#utility.yul\":23678:23858   */\n    tag_249:\n        /* \"#utility.yul\":23726:23803   */\n      0x4e487b7100000000000000000000000000000000000000000000000000000000\n        /* \"#utility.yul\":23723:23724   */\n      0x00\n        /* \"#utility.yul\":23716:23804   */\n      mstore\n        /* \"#utility.yul\":23823:23827   */\n      0x41\n        /* \"#utility.yul\":23820:23821   */\n      0x04\n        /* \"#utility.yul\":23813:23828   */\n      mstore\n        /* \"#utility.yul\":23847:23851   */\n      0x24\n        /* \"#utility.yul\":23844:23845   */\n      0x00\n        /* \"#utility.yul\":23837:23852   */\n      revert\n        /* \"#utility.yul\":23864:24005   */\n    tag_250:\n        /* \"#utility.yul\":23913:23917   */\n      0x00\n        /* \"#utility.yul\":23936:23939   */\n      dup2\n        /* \"#utility.yul\":23928:23939   */\n      swap1\n      pop\n        /* \"#utility.yul\":23959:23962   */\n      dup2\n        /* \"#utility.yul\":23956:23957   */\n      0x00\n        /* \"#utility.yul\":23949:23963   */\n      mstore\n        /* \"#utility.yul\":23993:23997   */\n      0x20\n        /* \"#utility.yul\":23990:23991   */\n      0x00\n        /* \"#utility.yul\":23980:23998   */\n      keccak256\n        /* \"#utility.yul\":23972:23998   */\n      swap1\n      pop\n        /* \"#utility.yul\":23864:24005   */\n      swap2\n      swap1\n      pop\n      jump\t// out\n        /* \"#utility.yul\":24011:24104   */\n    tag_251:\n        /* \"#utility.yul\":24048:24054   */\n      0x00\n        /* \"#utility.yul\":24095:24097   */\n      0x20\n        /* \"#utility.yul\":24090:24092   */\n      0x1f\n        /* \"#utility.yul\":24083:24088   */\n      dup4\n        /* \"#utility.yul\":24079:24093   */\n      add\n        /* \"#utility.yul\":24075:24098   */\n      div\n        /* \"#utility.yul\":24065:24098   */\n      swap1\n      pop\n        /* \"#utility.yul\":24011:24104   */\n      swap2\n      swap1\n      pop\n      jump\t// out\n        /* \"#utility.yul\":24110:24217   */\n    tag_252:\n        /* \"#utility.yul\":24154:24162   */\n      0x00\n        /* \"#utility.yul\":24204:24209   */\n      dup3\n        /* \"#utility.yul\":24198:24202   */\n      dup3\n        /* \"#utility.yul\":24194:24210   */\n      shl\n        /* \"#utility.yul\":24173:24210   */\n      swap1\n      pop\n        /* \"#utility.yul\":24110:24217   */\n      swap3\n      swap2\n      pop\n      pop\n      jump\t// out\n        /* \"#utility.yul\":24223:24616   */\n    tag_253:\n        /* \"#utility.yul\":24292:24298   */\n      0x00\n        /* \"#utility.yul\":24342:24343   */\n      0x08\n        /* \"#utility.yul\":24330:24340   */\n      dup4\n        /* \"#utility.yul\":24326:24344   */\n      mul\n        /* \"#utility.yul\":24365:24462   */\n      tag_485\n        /* \"#utility.yul\":24395:24461   */\n      0xffffffffffffffffffffffffffffffffffffffffffffffffffffffffffffffff\n        /* \"#utility.yul\":24384:24393   */\n      dup3\n        /* \"#utility.yul\":24365:24462   */\n      tag_252\n      jump\t// in\n    tag_485:\n        /* \"#utility.yul\":24483:24522   */\n      tag_486\n        /* \"#utility.yul\":24513:24521   */\n      dup7\n        /* \"#utility.yul\":24502:24511   */\n      dup4\n        /* \"#utility.yul\":24483:24522   */\n      tag_252\n      jump\t// in\n    tag_486:\n        /* \"#utility.yul\":24471:24522   */\n      swap6\n      pop\n        /* \"#utility.yul\":24555:24559   */\n      dup1\n        /* \"#utility.yul\":24551:24560   */\n      not\n        /* \"#utility.yul\":24544:24549   */\n      dup5\n        /* \"#utility.yul\":24540:24561   */\n      and\n        /* \"#utility.yul\":24531:24561   */\n      swap4\n      pop\n        /* \"#utility.yul\":24604:24608   */\n      dup1\n        /* \"#utility.yul\":24594:24602   */\n      dup7\n        /* \"#utility.yul\":24590:24609   */\n      and\n        /* \"#utility.yul\":24583:24588   */\n      dup5\n        /* \"#utility.yul\":24580:24610   */\n      or\n        /* \"#utility.yul\":24570:24610   */\n      swap3\n      pop\n        /* \"#utility.yul\":24299:24616   */\n      pop\n      pop\n        /* \"#utility.yul\":24223:24616   */\n      swap4\n      swap3\n      pop\n      pop\n      pop\n      jump\t// out\n        /* \"#utility.yul\":24622:24682   */\n    tag_254:\n        /* \"#utility.yul\":24650:24653   */\n      0x00\n        /* \"#utility.yul\":24671:24676   */\n      dup2\n        /* \"#utility.yul\":24664:24676   */\n      swap1\n      pop\n        /* \"#utility.yul\":24622:24682   */\n      swap2\n      swap1\n      pop\n      jump\t// out\n        /* \"#utility.yul\":24688:24830   */\n    tag_255:\n        /* \"#utility.yul\":24738:24747   */\n      0x00\n        /* \"#utility.yul\":24771:24824   */\n      tag_489\n        /* \"#utility.yul\":24789:24823   */\n      tag_490\n        /* \"#utility.yul\":24798:24822   */\n      tag_491\n        /* \"#utility.yul\":24816:24821   */\n      dup5\n        /* \"#utility.yul\":24798:24822   */\n      tag_197\n      jump\t// in\n    tag_491:\n        /* \"#utility.yul\":24789:24823   */\n      tag_254\n      jump\t// in\n    tag_490:\n        /* \"#utility.yul\":24771:24824   */\n      tag_197\n      jump\t// in\n    tag_489:\n        /* \"#utility.yul\":24758:24824   */\n      swap1\n      pop\n        /* \"#utility.yul\":24688:24830   */\n      swap2\n      swap1\n      pop\n      jump\t// out\n        /* \"#utility.yul\":24836:24911   */\n    tag_256:\n        /* \"#utility.yul\":24879:24882   */\n      0x00\n        /* \"#utility.yul\":24900:24905   */\n      dup2\n        /* \"#utility.yul\":24893:24905   */\n      swap1\n      pop\n        /* \"#utility.yul\":24836:24911   */\n      swap2\n      swap1\n      pop\n      jump\t// out\n        /* \"#utility.yul\":24917:25186   */\n    tag_257:\n        /* \"#utility.yul\":25027:25066   */\n      tag_494\n        /* \"#utility.yul\":25058:25065   */\n      dup4\n        /* \"#utility.yul\":25027:25066   */\n      tag_255\n      jump\t// in\n    tag_494:\n        /* \"#utility.yul\":25088:25179   */\n      tag_495\n        /* \"#utility.yul\":25137:25178   */\n      tag_496\n        /* \"#utility.yul\":25161:25177   */\n      dup3\n        /* \"#utility.yul\":25137:25178   */\n      tag_256\n      jump\t// in\n    tag_496:\n        /* \"#utility.yul\":25129:25135   */\n      dup5\n        /* \"#utility.yul\":25122:25126   */\n      dup5\n        /* \"#utility.yul\":25116:25127   */\n      sload\n        /* \"#utility.yul\":25088:25179   */\n      tag_253\n      jump\t// in\n    tag_495:\n        /* \"#utility.yul\":25082:25086   */\n      dup3\n        /* \"#utility.yul\":25075:25180   */\n      sstore\n        /* \"#utility.yul\":24993:25186   */\n      pop\n        /* \"#utility.yul\":24917:25186   */\n      pop\n      pop\n      pop\n      jump\t// out\n        /* \"#utility.yul\":25192:25265   */\n    tag_258:\n        /* \"#utility.yul\":25237:25240   */\n      0x00\n        /* \"#utility.yul\":25258:25259   */\n      0x00\n        /* \"#utility.yul\":25251:25259   */\n      swap1\n      pop\n        /* \"#utility.yul\":25192:25265   */\n      swap1\n      jump\t// out\n        /* \"#utility.yul\":25271:25460   */\n    tag_259:\n        /* \"#utility.yul\":25348:25380   */\n      tag_499\n      tag_258\n      jump\t// in\n    tag_499:\n        /* \"#utility.yul\":25389:25454   */\n      tag_500\n        /* \"#utility.yul\":25447:25453   */\n      dup2\n        /* \"#utility.yul\":25439:25445   */\n      dup5\n        /* \"#utility.yul\":25433:25437   */\n      dup5\n        /* \"#utility.yul\":25389:25454   */\n      tag_257\n      jump\t// in\n    tag_500:\n        /* \"#utility.yul\":25324:25460   */\n      pop\n        /* \"#utility.yul\":25271:25460   */\n      pop\n      pop\n      jump\t// out\n        /* \"#utility.yul\":25466:25652   */\n    tag_260:\n        /* \"#utility.yul\":25526:25646   */\n    tag_502:\n        /* \"#utility.yul\":25543:25546   */\n      dup2\n        /* \"#utility.yul\":25536:25541   */\n      dup2\n        /* \"#utility.yul\":25533:25547   */\n      lt\n        /* \"#utility.yul\":25526:25646   */\n      iszero\n      tag_504\n      jumpi\n        /* \"#utility.yul\":25597:25636   */\n      tag_505\n        /* \"#utility.yul\":25634:25635   */\n      0x00\n        /* \"#utility.yul\":25627:25632   */\n      dup3\n        /* \"#utility.yul\":25597:25636   */\n      tag_259\n      jump\t// in\n    tag_505:\n        /* \"#utility.yul\":25570:25571   */\n      0x01\n        /* \"#utility.yul\":25563:25568   */\n      dup2\n        /* \"#utility.yul\":25559:25572   */\n      add\n        /* \"#utility.yul\":25550:25572   */\n      swap1\n      pop\n        /* \"#utility.yul\":25526:25646   */\n      jump(tag_502)\n    tag_504:\n        /* \"#utility.yul\":25466:25652   */\n      pop\n      pop\n      jump\t// out\n        /* \"#utility.yul\":25658:26201   */\n    tag_261:\n        /* \"#utility.yul\":25759:25761   */\n      0x1f\n        /* \"#utility.yul\":25754:25757   */\n      dup3\n        /* \"#utility.yul\":25751:25762   */\n      gt\n        /* \"#utility.yul\":25748:26194   */\n      iszero\n      tag_507\n      jumpi\n        /* \"#utility.yul\":25793:25831   */\n      tag_508\n        /* \"#utility.yul\":25825:25830   */\n      dup2\n        /* \"#utility.yul\":25793:25831   */\n      tag_250\n      jump\t// in\n    tag_508:\n        /* \"#utility.yul\":25877:25906   */\n      tag_509\n        /* \"#utility.yul\":25895:25905   */\n      dup5\n        /* \"#utility.yul\":25877:25906   */\n      tag_251\n      jump\t// in\n    tag_509:\n        /* \"#utility.yul\":25867:25875   */\n      dup2\n        /* \"#utility.yul\":25863:25907   */\n      add\n        /* \"#utility.yul\":26060:26062   */\n      0x20\n        /* \"#utility.yul\":26048:26058   */\n      dup6\n        /* \"#utility.yul\":26045:26063   */\n      lt\n        /* \"#utility.yul\":26042:26091   */\n      iszero\n      tag_510\n      jumpi\n        /* \"#utility.yul\":26081:26089   */\n      dup2\n        /* \"#utility.yul\":26066:26089   */\n      swap1\n      pop\n        /* \"#utility.yul\":26042:26091   */\n    tag_510:\n        /* \"#utility.yul\":26104:26184   */\n      tag_511\n        /* \"#utility.yul\":26160:26182   */\n      tag_512\n        /* \"#utility.yul\":26178:26181   */\n      dup6\n        /* \"#utility.yul\":26160:26182   */\n      tag_251\n      jump\t// in\n    tag_512:\n        /* \"#utility.yul\":26150:26158   */\n      dup4\n        /* \"#utility.yul\":26146:26183   */\n      add\n        /* \"#utility.yul\":26133:26144   */\n      dup3\n        /* \"#utility.yul\":26104:26184   */\n      tag_260\n      jump\t// in\n    tag_511:\n        /* \"#utility.yul\":25763:26194   */\n      pop\n      pop\n        /* \"#utility.yul\":25748:26194   */\n    tag_507:\n        /* \"#utility.yul\":25658:26201   */\n      pop\n      pop\n      pop\n      jump\t// out\n        /* \"#utility.yul\":26207:26324   */\n    tag_262:\n        /* \"#utility.yul\":26261:26269   */\n      0x00\n        /* \"#utility.yul\":26311:26316   */\n      dup3\n        /* \"#utility.yul\":26305:26309   */\n      dup3\n        /* \"#utility.yul\":26301:26317   */\n      shr\n        /* \"#utility.yul\":26280:26317   */\n      swap1\n      pop\n        /* \"#utility.yul\":26207:26324   */\n      swap3\n      swap2\n      pop\n      pop\n      jump\t// out\n        /* \"#utility.yul\":26330:26499   */\n    tag_263:\n        /* \"#utility.yul\":26374:26380   */\n      0x00\n        /* \"#utility.yul\":26407:26458   */\n      tag_515\n        /* \"#utility.yul\":26455:26456   */\n      0x00\n        /* \"#utility.yul\":26451:26457   */\n      not\n        /* \"#utility.yul\":26443:26448   */\n      dup5\n        /* \"#utility.yul\":26440:26441   */\n      0x08\n        /* \"#utility.yul\":26436:26449   */\n      mul\n        /* \"#utility.yul\":26407:26458   */\n      tag_262\n      jump\t// in\n    tag_515:\n        /* \"#utility.yul\":26403:26459   */\n      not\n        /* \"#utility.yul\":26488:26492   */\n      dup1\n        /* \"#utility.yul\":26482:26486   */\n      dup4\n        /* \"#utility.yul\":26478:26493   */\n      and\n        /* \"#utility.yul\":26468:26493   */\n      swap2\n      pop\n        /* \"#utility.yul\":26381:26499   */\n      pop\n        /* \"#utility.yul\":26330:26499   */\n      swap3\n      swap2\n      pop\n      pop\n      jump\t// out\n        /* \"#utility.yul\":26504:26799   */\n    tag_264:\n        /* \"#utility.yul\":26580:26584   */\n      0x00\n        /* \"#utility.yul\":26726:26755   */\n      tag_517\n        /* \"#utility.yul\":26751:26754   */\n      dup4\n        /* \"#utility.yul\":26745:26749   */\n      dup4\n        /* \"#utility.yul\":26726:26755   */\n      tag_263\n      jump\t// in\n    tag_517:\n        /* \"#utility.yul\":26718:26755   */\n      swap2\n      pop\n        /* \"#utility.yul\":26788:26791   */\n      dup3\n        /* \"#utility.yul\":26785:26786   */\n      0x02\n        /* \"#utility.yul\":26781:26792   */\n      mul\n        /* \"#utility.yul\":26775:26779   */\n      dup3\n        /* \"#utility.yul\":26772:26793   */\n      or\n        /* \"#utility.yul\":26764:26793   */\n      swap1\n      pop\n        /* \"#utility.yul\":26504:26799   */\n      swap3\n      swap2\n      pop\n      pop\n      jump\t// out\n        /* \"#utility.yul\":26804:28199   */\n    tag_147:\n        /* \"#utility.yul\":26921:26958   */\n      tag_519\n        /* \"#utility.yul\":26954:26957   */\n      dup3\n        /* \"#utility.yul\":26921:26958   */\n      tag_204\n      jump\t// in\n    tag_519:\n        /* \"#utility.yul\":27023:27041   */\n      0xffffffffffffffff\n        /* \"#utility.yul\":27015:27021   */\n      dup2\n        /* \"#utility.yul\":27012:27042   */\n      gt\n        /* \"#utility.yul\":27009:27065   */\n      iszero\n      tag_520\n      jumpi\n        /* \"#utility.yul\":27045:27063   */\n      tag_521\n      tag_249\n      jump\t// in\n    tag_521:\n        /* \"#utility.yul\":27009:27065   */\n    tag_520:\n        /* \"#utility.yul\":27089:27127   */\n      tag_522\n        /* \"#utility.yul\":27121:27125   */\n      dup3\n        /* \"#utility.yul\":27115:27126   */\n      sload\n        /* \"#utility.yul\":27089:27127   */\n      tag_120\n      jump\t// in\n    tag_522:\n        /* \"#utility.yul\":27174:27241   */\n      tag_523\n        /* \"#utility.yul\":27234:27240   */\n      dup3\n        /* \"#utility.yul\":27226:27232   */\n      dup3\n        /* \"#utility.yul\":27220:27224   */\n      dup6\n        /* \"#utility.yul\":27174:27241   */\n      tag_261\n      jump\t// in\n    tag_523:\n        /* \"#utility.yul\":27268:27269   */\n      0x00\n        /* \"#utility.yul\":27292:27296   */\n      0x20\n        /* \"#utility.yul\":27279:27296   */\n      swap1\n      pop\n        /* \"#utility.yul\":27324:27326   */\n      0x1f\n        /* \"#utility.yul\":27316:27322   */\n      dup4\n        /* \"#utility.yul\":27313:27327   */\n      gt\n        /* \"#utility.yul\":27341:27342   */\n      0x01\n        /* \"#utility.yul\":27336:27954   */\n      dup2\n      eq\n      tag_525\n      jumpi\n        /* \"#utility.yul\":27998:27999   */\n      0x00\n        /* \"#utility.yul\":28015:28021   */\n      dup5\n        /* \"#utility.yul\":28012:28089   */\n      iszero\n      tag_526\n      jumpi\n        /* \"#utility.yul\":28064:28073   */\n      dup3\n        /* \"#utility.yul\":28059:28062   */\n      dup8\n        /* \"#utility.yul\":28055:28074   */\n      add\n        /* \"#utility.yul\":28049:28075   */\n      mload\n        /* \"#utility.yul\":28040:28075   */\n      swap1\n      pop\n        /* \"#utility.yul\":28012:28089   */\n    tag_526:\n        /* \"#utility.yul\":28115:28182   */\n      tag_527\n        /* \"#utility.yul\":28175:28181   */\n      dup6\n        /* \"#utility.yul\":28168:28173   */\n      dup3\n        /* \"#utility.yul\":28115:28182   */\n      tag_264\n      jump\t// in\n    tag_527:\n        /* \"#utility.yul\":28109:28113   */\n      dup7\n        /* \"#utility.yul\":28102:28183   */\n      sstore\n        /* \"#utility.yul\":27971:28193   */\n      pop\n        /* \"#utility.yul\":27306:28193   */\n      jump(tag_524)\n        /* \"#utility.yul\":27336:27954   */\n    tag_525:\n        /* \"#utility.yul\":27388:27392   */\n      0x1f\n        /* \"#utility.yul\":27384:27393   */\n      not\n        /* \"#utility.yul\":27376:27382   */\n      dup5\n        /* \"#utility.yul\":27372:27394   */\n      and\n        /* \"#utility.yul\":27422:27459   */\n      tag_528\n        /* \"#utility.yul\":27454:27458   */\n      dup7\n        /* \"#utility.yul\":27422:27459   */\n      tag_250\n      jump\t// in\n    tag_528:\n        /* \"#utility.yul\":27481:27482   */\n      0x00\n        /* \"#utility.yul\":27495:27703   */\n    tag_529:\n        /* \"#utility.yul\":27509:27516   */\n      dup3\n        /* \"#utility.yul\":27506:27507   */\n      dup2\n        /* \"#utility.yul\":27503:27517   */\n      lt\n        /* \"#utility.yul\":27495:27703   */\n      iszero\n      tag_531\n      jumpi\n        /* \"#utility.yul\":27588:27597   */\n      dup5\n        /* \"#utility.yul\":27583:27586   */\n      dup10\n        /* \"#utility.yul\":27579:27598   */\n      add\n        /* \"#utility.yul\":27573:27599   */\n      mload\n        /* \"#utility.yul\":27565:27571   */\n      dup3\n        /* \"#utility.yul\":27558:27600   */\n      sstore\n        /* \"#utility.yul\":27639:27640   */\n      0x01\n        /* \"#utility.yul\":27631:27637   */\n      dup3\n        /* \"#utility.yul\":27627:27641   */\n      add\n        /* \"#utility.yul\":27617:27641   */\n      swap2\n      pop\n        /* \"#utility.yul\":27686:27688   */\n      0x20\n        /* \"#utility.yul\":27675:27684   */\n      dup6\n        /* \"#utility.yul\":27671:27689   */\n      add\n        /* \"#utility.yul\":27658:27689   */\n      swap5\n      pop\n        /* \"#utility.yul\":27532:27536   */\n      0x20\n        /* \"#utility.yul\":27529:27530   */\n      dup2\n        /* \"#utility.yul\":27525:27537   */\n      add\n        /* \"#utility.yul\":27520:27537   */\n      swap1\n      pop\n        /* \"#utility.yul\":27495:27703   */\n      jump(tag_529)\n    tag_531:\n        /* \"#utility.yul\":27731:27737   */\n      dup7\n        /* \"#utility.yul\":27722:27729   */\n      dup4\n        /* \"#utility.yul\":27719:27738   */\n      lt\n        /* \"#utility.yul\":27716:27895   */\n      iszero\n      tag_532\n      jumpi\n        /* \"#utility.yul\":27789:27798   */\n      dup5\n        /* \"#utility.yul\":27784:27787   */\n      dup10\n        /* \"#utility.yul\":27780:27799   */\n      add\n        /* \"#utility.yul\":27774:27800   */\n      mload\n        /* \"#utility.yul\":27832:27880   */\n      tag_533\n        /* \"#utility.yul\":27874:27878   */\n      0x1f\n        /* \"#utility.yul\":27866:27872   */\n      dup10\n        /* \"#utility.yul\":27862:27879   */\n      and\n        /* \"#utility.yul\":27851:27860   */\n      dup3\n        /* \"#utility.yul\":27832:27880   */\n      tag_263\n      jump\t// in\n    tag_533:\n        /* \"#utility.yul\":27824:27830   */\n      dup4\n        /* \"#utility.yul\":27817:27881   */\n      sstore\n        /* \"#utility.yul\":27739:27895   */\n      pop\n        /* \"#utility.yul\":27716:27895   */\n    tag_532:\n        /* \"#utility.yul\":27941:27942   */\n      0x01\n        /* \"#utility.yul\":27937:27938   */\n      0x02\n        /* \"#utility.yul\":27929:27935   */\n      dup9\n        /* \"#utility.yul\":27925:27939   */\n      mul\n        /* \"#utility.yul\":27921:27943   */\n      add\n        /* \"#utility.yul\":27915:27919   */\n      dup9\n        /* \"#utility.yul\":27908:27944   */\n      sstore\n        /* \"#utility.yul\":27343:27954   */\n      pop\n      pop\n      pop\n        /* \"#utility.yul\":27306:28193   */\n    tag_524:\n      pop\n        /* \"#utility.yul\":26896:28199   */\n      pop\n      pop\n      pop\n        /* \"#utility.yul\":26804:28199   */\n      pop\n      pop\n      jump\t// out\n        /* \"#utility.yul\":28205:28375   */\n    tag_265:\n        /* \"#utility.yul\":28345:28367   */\n      0x52656e74616c20616c726561647920656e646564000000000000000000000000\n        /* \"#utility.yul\":28341:28342   */\n      0x00\n        /* \"#utility.yul\":28333:28339   */\n      dup3\n        /* \"#utility.yul\":28329:28343   */\n      add\n        /* \"#utility.yul\":28322:28368   */\n      mstore\n        /* \"#utility.yul\":28205:28375   */\n      pop\n      jump\t// out\n        /* \"#utility.yul\":28381:28747   */\n    tag_266:\n        /* \"#utility.yul\":28523:28526   */\n      0x00\n        /* \"#utility.yul\":28544:28611   */\n      tag_536\n        /* \"#utility.yul\":28608:28610   */\n      0x14\n        /* \"#utility.yul\":28603:28606   */\n      dup4\n        /* \"#utility.yul\":28544:28611   */\n      tag_205\n      jump\t// in\n    tag_536:\n        /* \"#utility.yul\":28537:28611   */\n      swap2\n      pop\n        /* \"#utility.yul\":28620:28713   */\n      tag_537\n        /* \"#utility.yul\":28709:28712   */\n      dup3\n        /* \"#utility.yul\":28620:28713   */\n      tag_265\n      jump\t// in\n    tag_537:\n        /* \"#utility.yul\":28738:28740   */\n      0x20\n        /* \"#utility.yul\":28733:28736   */\n      dup3\n        /* \"#utility.yul\":28729:28741   */\n      add\n        /* \"#utility.yul\":28722:28741   */\n      swap1\n      pop\n        /* \"#utility.yul\":28381:28747   */\n      swap2\n      swap1\n      pop\n      jump\t// out\n        /* \"#utility.yul\":28753:29172   */\n    tag_167:\n        /* \"#utility.yul\":28919:28923   */\n      0x00\n        /* \"#utility.yul\":28957:28959   */\n      0x20\n        /* \"#utility.yul\":28946:28955   */\n      dup3\n        /* \"#utility.yul\":28942:28960   */\n      add\n        /* \"#utility.yul\":28934:28960   */\n      swap1\n      pop\n        /* \"#utility.yul\":29006:29015   */\n      dup2\n        /* \"#utility.yul\":29000:29004   */\n      dup2\n        /* \"#utility.yul\":28996:29016   */\n      sub\n        /* \"#utility.yul\":28992:28993   */\n      0x00\n        /* \"#utility.yul\":28981:28990   */\n      dup4\n        /* \"#utility.yul\":28977:28994   */\n      add\n        /* \"#utility.yul\":28970:29017   */\n      mstore\n        /* \"#utility.yul\":29034:29165   */\n      tag_539\n        /* \"#utility.yul\":29160:29164   */\n      dup2\n        /* \"#utility.yul\":29034:29165   */\n      tag_266\n      jump\t// in\n    tag_539:\n        /* \"#utility.yul\":29026:29165   */\n      swap1\n      pop\n        /* \"#utility.yul\":28753:29172   */\n      swap2\n      swap1\n      pop\n      jump\t// out\n        /* \"#utility.yul\":29178:29358   */\n    tag_267:\n        /* \"#utility.yul\":29318:29350   */\n      0x52656e74616c206f6e676f696e67206f7220756e617574686f72697a65640000\n        /* \"#utility.yul\":29314:29315   */\n      0x00\n        /* \"#utility.yul\":29306:29312   */\n      dup3\n        /* \"#utility.yul\":29302:29316   */\n      add\n        /* \"#utility.yul\":29295:29351   */\n      mstore\n        /* \"#utility.yul\":29178:29358   */\n      pop\n      jump\t// out\n        /* \"#utility.yul\":29364:29730   */\n    tag_268:\n        /* \"#utility.yul\":29506:29509   */\n      0x00\n        /* \"#utility.yul\":29527:29594   */\n      tag_542\n        /* \"#utility.yul\":29591:29593   */\n      0x1e\n        /* \"#utility.yul\":29586:29589   */\n      dup4\n        /* \"#utility.yul\":29527:29594   */\n      tag_205\n      jump\t// in\n    tag_542:\n        /* \"#utility.yul\":29520:29594   */\n      swap2\n      pop\n        /* \"#utility.yul\":29603:29696   */\n      tag_543\n        /* \"#utility.yul\":29692:29695   */\n      dup3\n        /* \"#utility.yul\":29603:29696   */\n      tag_267\n      jump\t// in\n    tag_543:\n        /* \"#utility.yul\":29721:29723   */\n      0x20\n        /* \"#utility.yul\":29716:29719   */\n      dup3\n        /* \"#utility.yul\":29712:29724   */\n      add\n        /* \"#utility.yul\":29705:29724   */\n      swap1\n      pop\n        /* \"#utility.yul\":29364:29730   */\n      swap2\n      swap1\n      pop\n      jump\t// out\n        /* \"#utility.yul\":29736:30155   */\n    tag_171:\n        /* \"#utility.yul\":29902:29906   */\n      0x00\n        /* \"#utility.yul\":29940:29942   */\n      0x20\n        /* \"#utility.yul\":29929:29938   */\n      dup3\n        /* \"#utility.yul\":29925:29943   */\n      add\n        /* \"#utility.yul\":29917:29943   */\n      swap1\n      pop\n        /* \"#utility.yul\":29989:29998   */\n      dup2\n        /* \"#utility.yul\":29983:29987   */\n      dup2\n        /* \"#utility.yul\":29979:29999   */\n      sub\n        /* \"#utility.yul\":29975:29976   */\n      0x00\n        /* \"#utility.yul\":29964:29973   */\n      dup4\n        /* \"#utility.yul\":29960:29977   */\n      add\n        /* \"#utility.yul\":29953:30000   */\n      mstore\n        /* \"#utility.yul\":30017:30148   */\n      tag_545\n        /* \"#utility.yul\":30143:30147   */\n      dup2\n        /* \"#utility.yul\":30017:30148   */\n      tag_268\n      jump\t// in\n    tag_545:\n        /* \"#utility.yul\":30009:30148   */\n      swap1\n      pop\n        /* \"#utility.yul\":29736:30155   */\n      swap2\n      swap1\n      pop\n      jump\t// out\n        /* \"#utility.yul\":30161:30342   */\n    tag_269:\n        /* \"#utility.yul\":30301:30334   */\n      0x5265656e7472616e637947756172643a207265656e7472616e742063616c6c00\n        /* \"#utility.yul\":30297:30298   */\n      0x00\n        /* \"#utility.yul\":30289:30295   */\n      dup3\n        /* \"#utility.yul\":30285:30299   */\n      add\n        /* \"#utility.yul\":30278:30335   */\n      mstore\n        /* \"#utility.yul\":30161:30342   */\n      pop\n      jump\t// out\n        /* \"#utility.yul\":30348:30714   */\n    tag_270:\n        /* \"#utility.yul\":30490:30493   */\n      0x00\n        /* \"#utility.yul\":30511:30578   */\n      tag_548\n        /* \"#utility.yul\":30575:30577   */\n      0x1f\n        /* \"#utility.yul\":30570:30573   */\n      dup4\n        /* \"#utility.yul\":30511:30578   */\n      tag_205\n      jump\t// in\n    tag_548:\n        /* \"#utility.yul\":30504:30578   */\n      swap2\n      pop\n        /* \"#utility.yul\":30587:30680   */\n      tag_549\n        /* \"#utility.yul\":30676:30679   */\n      dup3\n        /* \"#utility.yul\":30587:30680   */\n      tag_269\n      jump\t// in\n    tag_549:\n        /* \"#utility.yul\":30705:30707   */\n      0x20\n        /* \"#utility.yul\":30700:30703   */\n      dup3\n        /* \"#utility.yul\":30696:30708   */\n      add\n        /* \"#utility.yul\":30689:30708   */\n      swap1\n      pop\n        /* \"#utility.yul\":30348:30714   */\n      swap2\n      swap1\n      pop\n      jump\t// out\n        /* \"#utility.yul\":30720:31139   */\n    tag_183:\n        /* \"#utility.yul\":30886:30890   */\n      0x00\n        /* \"#utility.yul\":30924:30926   */\n      0x20\n        /* \"#utility.yul\":30913:30922   */\n      dup3\n        /* \"#utility.yul\":30909:30927   */\n      add\n        /* \"#utility.yul\":30901:30927   */\n      swap1\n      pop\n        /* \"#utility.yul\":30973:30982   */\n      dup2\n        /* \"#utility.yul\":30967:30971   */\n      dup2\n        /* \"#utility.yul\":30963:30983   */\n      sub\n        /* \"#utility.yul\":30959:30960   */\n      0x00\n        /* \"#utility.yul\":30948:30957   */\n      dup4\n        /* \"#utility.yul\":30944:30961   */\n      add\n        /* \"#utility.yul\":30937:30984   */\n      mstore\n        /* \"#utility.yul\":31001:31132   */\n      tag_551\n        /* \"#utility.yul\":31127:31131   */\n      dup2\n        /* \"#utility.yul\":31001:31132   */\n      tag_270\n      jump\t// in\n    tag_551:\n        /* \"#utility.yul\":30993:31132   */\n      swap1\n      pop\n        /* \"#utility.yul\":30720:31139   */\n      swap2\n      swap1\n      pop\n      jump\t// out\n\n    auxdata: 0xa264697066735822122011eb65e6d6ef9d478cb350602e6b00149e4c51009e2843f3f2beeb6e54ebe64264736f6c634300081d0033\n}\n",
				"bytecode": {
					"linkReferences": {},
					"object": "608060405234801561000f575f5ffd5b50335f73ffffffffffffffffffffffffffffffffffffffff168173ffffffffffffffffffffffffffffffffffffffff1603610081575f6040517f1e4fbdf7000000000000000000000000000000000000000000000000000000008152600401610078919061019d565b60405180910390fd5b6100908161009d60201b60201c565b50600180819055506101b6565b5f5f5f9054906101000a900473ffffffffffffffffffffffffffffffffffffffff169050815f5f6101000a81548173ffffffffffffffffffffffffffffffffffffffff021916908373ffffffffffffffffffffffffffffffffffffffff1602179055508173ffffffffffffffffffffffffffffffffffffffff168173ffffffffffffffffffffffffffffffffffffffff167f8be0079c531659141344cd1fd0a4f28419497f9722a3daafe3b4186f6b6457e060405160405180910390a35050565b5f73ffffffffffffffffffffffffffffffffffffffff82169050919050565b5f6101878261015e565b9050919050565b6101978161017d565b82525050565b5f6020820190506101b05f83018461018e565b92915050565b612176806101c35f395ff3fe6080604052600436106100a6575f3560e01c806382cb05e51161006357806382cb05e5146101bc5780638c3e13b4146101f85780638da5cb5b1461023457806397491d6f1461025e578063af94a1d114610286578063f2fde38b146102c8576100a6565b80630e64d5c7146100aa57806339b3667e146100c65780636389ed9114610106578063652bd29e146101425780636e37b9a11461017e578063715018a6146101a6575b5f5ffd5b6100c460048036038101906100bf91906112b7565b6102f0565b005b3480156100d1575f5ffd5b506100ec60048036038101906100e791906112f5565b610712565b6040516100fd9594939291906113f8565b60405180910390f35b348015610111575f5ffd5b5061012c600480360381019061012791906112f5565b6107f5565b6040516101399190611538565b60405180910390f35b34801561014d575f5ffd5b50610168600480360381019061016391906112f5565b610932565b60405161017591906115e4565b60405180910390f35b348015610189575f5ffd5b506101a4600480360381019061019f919061165e565b6109fd565b005b3480156101b1575f5ffd5b506101ba610c7c565b005b3480156101c7575f5ffd5b506101e260048036038101906101dd91906116e5565b610c8f565b6040516101ef91906117b8565b60405180910390f35b348015610203575f5ffd5b5061021e600480360381019061021991906117d8565b610d22565b60405161022b9190611816565b60405180910390f35b34801561023f575f5ffd5b50610248610d4d565b604051610255919061182f565b60405180910390f35b348015610269575f5ffd5b50610284600480360381019061027f91906112f5565b610d74565b005b348015610291575f5ffd5b506102ac60048036038101906102a791906112f5565b610f57565b6040516102bf9796959493929190611848565b60405180910390f35b3480156102d3575f5ffd5b506102ee60048036038101906102e991906116e5565b610fc0565b005b6102f8611044565b5f60045f8481526020019081526020015f209050806004015f9054906101000a900460ff1661035c576040517f08c379a0000000000000000000000000000000000000000000000000000000008152600401610353906118ff565b60405180910390fd5b5f821161039e576040517f08c379a000000000000000000000000000000000000000000000000000000000815260040161039590611967565b60405180910390fd5b5f8282600301546103af91906119b2565b9050803410156103f4576040517f08c379a00000000000000000000000000000000000000000000000000000000081526004016103eb90611a3d565b60405180910390fd5b5f826004015f6101000a81548160ff0219169083151502179055505f60035f81548092919061042290611a5b565b9190505590506040518060e001604052808281526020018681526020013373ffffffffffffffffffffffffffffffffffffffff168152602001428152602001610e108661046f91906119b2565b4261047a9190611aa2565b81526020018381526020016001151581525060055f8381526020019081526020015f205f820151815f0155602082015181600101556040820151816002015f6101000a81548173ffffffffffffffffffffffffffffffffffffffff021916908373ffffffffffffffffffffffffffffffffffffffff160217905550606082015181600301556080820151816004015560a0820151816005015560c0820151816006015f6101000a81548160ff0219169083151502179055509050505f836001015f9054906101000a900473ffffffffffffffffffffffffffffffffffffffff1673ffffffffffffffffffffffffffffffffffffffff168360405161057d90611b02565b5f6040518083038185875af1925050503d805f81146105b7576040519150601f19603f3d011682016040523d82523d5f602084013e6105bc565b606091505b5050905080610600576040517f08c379a00000000000000000000000000000000000000000000000000000000081526004016105f790611b60565b60405180910390fd5b823411156106bd575f3373ffffffffffffffffffffffffffffffffffffffff16843461062c9190611b7e565b60405161063890611b02565b5f6040518083038185875af1925050503d805f8114610672576040519150601f19603f3d011682016040523d82523d5f602084013e610677565b606091505b50509050806106bb576040517f08c379a00000000000000000000000000000000000000000000000000000000081526004016106b290611bfb565b60405180910390fd5b505b3373ffffffffffffffffffffffffffffffffffffffff1686837fd70b183971c661a9a151dc824d0449b4d75b4aace9100d1167cfa75ed19c071f60405160405180910390a45050505061070e611093565b5050565b6004602052805f5260405f205f91509050805f015490806001015f9054906101000a900473ffffffffffffffffffffffffffffffffffffffff169080600201805461075c90611c46565b80601f016020809104026020016040519081016040528092919081815260200182805461078890611c46565b80156107d35780601f106107aa576101008083540402835291602001916107d3565b820191905f5260205f20905b8154815290600101906020018083116107b657829003601f168201915b505050505090806003015490806004015f9054906101000a900460ff16905085565b6107fd6111eb565b60045f8381526020019081526020015f206040518060a00160405290815f8201548152602001600182015f9054906101000a900473ffffffffffffffffffffffffffffffffffffffff1673ffffffffffffffffffffffffffffffffffffffff1673ffffffffffffffffffffffffffffffffffffffff16815260200160028201805461088790611c46565b80601f01602080910402602001604051908101604052809291908181526020018280546108b390611c46565b80156108fe5780601f106108d5576101008083540402835291602001916108fe565b820191905f5260205f20905b8154815290600101906020018083116108e157829003601f168201915b5050505050815260200160038201548152602001600482015f9054906101000a900460ff1615151515815250509050919050565b61093a61122e565b60055f8381526020019081526020015f206040518060e00160405290815f820154815260200160018201548152602001600282015f9054906101000a900473ffffffffffffffffffffffffffffffffffffffff1673ffffffffffffffffffffffffffffffffffffffff1673ffffffffffffffffffffffffffffffffffffffff168152602001600382015481526020016004820154815260200160058201548152602001600682015f9054906101000a900460ff1615151515815250509050919050565b610a05611044565b5f8383905011610a4a576040517f08c379a0000000000000000000000000000000000000000000000000000000008152600401610a4190611cc0565b60405180910390fd5b5f8111610a8c576040517f08c379a0000000000000000000000000000000000000000000000000000000008152600401610a8390611d4e565b60405180910390fd5b5f60025f815480929190610a9f90611a5b565b9190505590506040518060a001604052808281526020013373ffffffffffffffffffffffffffffffffffffffff16815260200185858080601f0160208091040260200160405190810160405280939291908181526020018383808284375f81840152601f19601f8201169050808301925050505050505081526020018381526020016001151581525060045f8381526020019081526020015f205f820151815f01556020820151816001015f6101000a81548173ffffffffffffffffffffffffffffffffffffffff021916908373ffffffffffffffffffffffffffffffffffffffff1602179055506040820151816002019081610b9c9190611f39565b50606082015181600301556080820151816004015f6101000a81548160ff02191690831515021790555090505060065f3373ffffffffffffffffffffffffffffffffffffffff1673ffffffffffffffffffffffffffffffffffffffff1681526020019081526020015f2081908060018154018082558091505060019003905f5260205f20015f90919091909150553373ffffffffffffffffffffffffffffffffffffffff16817fe284dd765e7ac52a09e2b878ddde2dd8097ba235e1557a6dd394a445fad9f2e960405160405180910390a350610c77611093565b505050565b610c8461109c565b610c8d5f611123565b565b606060065f8373ffffffffffffffffffffffffffffffffffffffff1673ffffffffffffffffffffffffffffffffffffffff1681526020019081526020015f20805480602002602001604051908101604052809291908181526020018280548015610d1657602002820191905f5260205f20905b815481526020019060010190808311610d02575b50505050509050919050565b6006602052815f5260405f208181548110610d3b575f80fd5b905f5260205f20015f91509150505481565b5f5f5f9054906101000a900473ffffffffffffffffffffffffffffffffffffffff16905090565b610d7c611044565b5f60055f8381526020019081526020015f2090505f60045f836001015481526020019081526020015f209050816006015f9054906101000a900460ff16610df8576040517f08c379a0000000000000000000000000000000000000000000000000000000008152600401610def90612052565b60405180910390fd5b816004015442101580610e595750806001015f9054906101000a900473ffffffffffffffffffffffffffffffffffffffff1673ffffffffffffffffffffffffffffffffffffffff163373ffffffffffffffffffffffffffffffffffffffff16145b610e98576040517f08c379a0000000000000000000000000000000000000000000000000000000008152600401610e8f906120ba565b60405180910390fd5b5f826006015f6101000a81548160ff0219169083151502179055506001816004015f6101000a81548160ff021916908315150217905550816002015f9054906101000a900473ffffffffffffffffffffffffffffffffffffffff1673ffffffffffffffffffffffffffffffffffffffff168260010154847f9029911798a27031bb9f46434e021a30a97443750dee7d58e4aaa0741726694e8560050154604051610f429190611816565b60405180910390a45050610f54611093565b50565b6005602052805f5260405f205f91509050805f015490806001015490806002015f9054906101000a900473ffffffffffffffffffffffffffffffffffffffff1690806003015490806004015490806005015490806006015f9054906101000a900460ff16905087565b610fc861109c565b5f73ffffffffffffffffffffffffffffffffffffffff168173ffffffffffffffffffffffffffffffffffffffff1603611038575f6040517f1e4fbdf700000000000000000000000000000000000000000000000000000000815260040161102f919061182f565b60405180910390fd5b61104181611123565b50565b600260015403611089576040517f08c379a000000000000000000000000000000000000000000000000000000000815260040161108090612122565b60405180910390fd5b6002600181905550565b60018081905550565b6110a46111e4565b73ffffffffffffffffffffffffffffffffffffffff166110c2610d4d565b73ffffffffffffffffffffffffffffffffffffffff1614611121576110e56111e4565b6040517f118cdaa7000000000000000000000000000000000000000000000000000000008152600401611118919061182f565b60405180910390fd5b565b5f5f5f9054906101000a900473ffffffffffffffffffffffffffffffffffffffff169050815f5f6101000a81548173ffffffffffffffffffffffffffffffffffffffff021916908373ffffffffffffffffffffffffffffffffffffffff1602179055508173ffffffffffffffffffffffffffffffffffffffff168173ffffffffffffffffffffffffffffffffffffffff167f8be0079c531659141344cd1fd0a4f28419497f9722a3daafe3b4186f6b6457e060405160405180910390a35050565b5f33905090565b6040518060a001604052805f81526020015f73ffffffffffffffffffffffffffffffffffffffff168152602001606081526020015f81526020015f151581525090565b6040518060e001604052805f81526020015f81526020015f73ffffffffffffffffffffffffffffffffffffffff1681526020015f81526020015f81526020015f81526020015f151581525090565b5f5ffd5b5f5ffd5b5f819050919050565b61129681611284565b81146112a0575f5ffd5b50565b5f813590506112b18161128d565b92915050565b5f5f604083850312156112cd576112cc61127c565b5b5f6112da858286016112a3565b92505060206112eb858286016112a3565b9150509250929050565b5f6020828403121561130a5761130961127c565b5b5f611317848285016112a3565b91505092915050565b61132981611284565b82525050565b5f73ffffffffffffffffffffffffffffffffffffffff82169050919050565b5f6113588261132f565b9050919050565b6113688161134e565b82525050565b5f81519050919050565b5f82825260208201905092915050565b8281835e5f83830152505050565b5f601f19601f8301169050919050565b5f6113b08261136e565b6113ba8185611378565b93506113ca818560208601611388565b6113d381611396565b840191505092915050565b5f8115159050919050565b6113f2816113de565b82525050565b5f60a08201905061140b5f830188611320565b611418602083018761135f565b818103604083015261142a81866113a6565b90506114396060830185611320565b61144660808301846113e9565b9695505050505050565b61145981611284565b82525050565b6114688161134e565b82525050565b5f82825260208201905092915050565b5f6114888261136e565b611492818561146e565b93506114a2818560208601611388565b6114ab81611396565b840191505092915050565b6114bf816113de565b82525050565b5f60a083015f8301516114da5f860182611450565b5060208301516114ed602086018261145f565b5060408301518482036040860152611505828261147e565b915050606083015161151a6060860182611450565b50608083015161152d60808601826114b6565b508091505092915050565b5f6020820190508181035f83015261155081846114c5565b905092915050565b60e082015f82015161156c5f850182611450565b50602082015161157f6020850182611450565b506040820151611592604085018261145f565b5060608201516115a56060850182611450565b5060808201516115b86080850182611450565b5060a08201516115cb60a0850182611450565b5060c08201516115de60c08501826114b6565b50505050565b5f60e0820190506115f75f830184611558565b92915050565b5f5ffd5b5f5ffd5b5f5ffd5b5f5f83601f84011261161e5761161d6115fd565b5b8235905067ffffffffffffffff81111561163b5761163a611601565b5b60208301915083600182028301111561165757611656611605565b5b9250929050565b5f5f5f604084860312156116755761167461127c565b5b5f84013567ffffffffffffffff81111561169257611691611280565b5b61169e86828701611609565b935093505060206116b1868287016112a3565b9150509250925092565b6116c48161134e565b81146116ce575f5ffd5b50565b5f813590506116df816116bb565b92915050565b5f602082840312156116fa576116f961127c565b5b5f611707848285016116d1565b91505092915050565b5f81519050919050565b5f82825260208201905092915050565b5f819050602082019050919050565b5f6117448383611450565b60208301905092915050565b5f602082019050919050565b5f61176682611710565b611770818561171a565b935061177b8361172a565b805f5b838110156117ab5781516117928882611739565b975061179d83611750565b92505060018101905061177e565b5085935050505092915050565b5f6020820190508181035f8301526117d0818461175c565b905092915050565b5f5f604083850312156117ee576117ed61127c565b5b5f6117fb858286016116d1565b925050602061180c858286016112a3565b9150509250929050565b5f6020820190506118295f830184611320565b92915050565b5f6020820190506118425f83018461135f565b92915050565b5f60e08201905061185b5f83018a611320565b6118686020830189611320565b611875604083018861135f565b6118826060830187611320565b61188f6080830186611320565b61189c60a0830185611320565b6118a960c08301846113e9565b98975050505050505050565b7f475055206e6f7420617661696c61626c650000000000000000000000000000005f82015250565b5f6118e9601183611378565b91506118f4826118b5565b602082019050919050565b5f6020820190508181035f830152611916816118dd565b9050919050565b7f52656e74206475726174696f6e207265717569726564000000000000000000005f82015250565b5f611951601683611378565b915061195c8261191d565b602082019050919050565b5f6020820190508181035f83015261197e81611945565b9050919050565b7f4e487b71000000000000000000000000000000000000000000000000000000005f52601160045260245ffd5b5f6119bc82611284565b91506119c783611284565b92508282026119d581611284565b915082820484148315176119ec576119eb611985565b5b5092915050565b7f496e73756666696369656e74207061796d656e740000000000000000000000005f82015250565b5f611a27601483611378565b9150611a32826119f3565b602082019050919050565b5f6020820190508181035f830152611a5481611a1b565b9050919050565b5f611a6582611284565b91507fffffffffffffffffffffffffffffffffffffffffffffffffffffffffffffffff8203611a9757611a96611985565b5b600182019050919050565b5f611aac82611284565b9150611ab783611284565b9250828201905080821115611acf57611ace611985565b5b92915050565b5f81905092915050565b50565b5f611aed5f83611ad5565b9150611af882611adf565b5f82019050919050565b5f611b0c82611ae2565b9150819050919050565b7f5061796d656e74206661696c65640000000000000000000000000000000000005f82015250565b5f611b4a600e83611378565b9150611b5582611b16565b602082019050919050565b5f6020820190508181035f830152611b7781611b3e565b9050919050565b5f611b8882611284565b9150611b9383611284565b9250828203905081811115611bab57611baa611985565b5b92915050565b7f526566756e64206661696c6564000000000000000000000000000000000000005f82015250565b5f611be5600d83611378565b9150611bf082611bb1565b602082019050919050565b5f6020820190508181035f830152611c1281611bd9565b9050919050565b7f4e487b71000000000000000000000000000000000000000000000000000000005f52602260045260245ffd5b5f6002820490506001821680611c5d57607f821691505b602082108103611c7057611c6f611c19565b5b50919050565b7f47505520737065637320726571756972656400000000000000000000000000005f82015250565b5f611caa601283611378565b9150611cb582611c76565b602082019050919050565b5f6020820190508181035f830152611cd781611c9e565b9050919050565b7f486f75726c792072617465206d7573742062652067726561746572207468616e5f8201527f2030000000000000000000000000000000000000000000000000000000000000602082015250565b5f611d38602283611378565b9150611d4382611cde565b604082019050919050565b5f6020820190508181035f830152611d6581611d2c565b9050919050565b7f4e487b71000000000000000000000000000000000000000000000000000000005f52604160045260245ffd5b5f819050815f5260205f209050919050565b5f6020601f8301049050919050565b5f82821b905092915050565b5f60088302611df57fffffffffffffffffffffffffffffffffffffffffffffffffffffffffffffffff82611dba565b611dff8683611dba565b95508019841693508086168417925050509392505050565b5f819050919050565b5f611e3a611e35611e3084611284565b611e17565b611284565b9050919050565b5f819050919050565b611e5383611e20565b611e67611e5f82611e41565b848454611dc6565b825550505050565b5f5f905090565b611e7e611e6f565b611e89818484611e4a565b505050565b5b81811015611eac57611ea15f82611e76565b600181019050611e8f565b5050565b601f821115611ef157611ec281611d99565b611ecb84611dab565b81016020851015611eda578190505b611eee611ee685611dab565b830182611e8e565b50505b505050565b5f82821c905092915050565b5f611f115f1984600802611ef6565b1980831691505092915050565b5f611f298383611f02565b9150826002028217905092915050565b611f428261136e565b67ffffffffffffffff811115611f5b57611f5a611d6c565b5b611f658254611c46565b611f70828285611eb0565b5f60209050601f831160018114611fa1575f8415611f8f578287015190505b611f998582611f1e565b865550612000565b601f198416611faf86611d99565b5f5b82811015611fd657848901518255600182019150602085019450602081019050611fb1565b86831015611ff35784890151611fef601f891682611f02565b8355505b6001600288020188555050505b505050505050565b7f52656e74616c20616c726561647920656e6465640000000000000000000000005f82015250565b5f61203c601483611378565b915061204782612008565b602082019050919050565b5f6020820190508181035f83015261206981612030565b9050919050565b7f52656e74616c206f6e676f696e67206f7220756e617574686f72697a656400005f82015250565b5f6120a4601e83611378565b91506120af82612070565b602082019050919050565b5f6020820190508181035f8301526120d181612098565b9050919050565b7f5265656e7472616e637947756172643a207265656e7472616e742063616c6c005f82015250565b5f61210c601f83611378565b9150612117826120d8565b602082019050919050565b5f6020820190508181035f83015261213981612100565b905091905056fea264697066735822122011eb65e6d6ef9d478cb350602e6b00149e4c51009e2843f3f2beeb6e54ebe64264736f6c634300081d0033",
					"opcodes": "PUSH1 0x80 PUSH1 0x40 MSTORE CALLVALUE DUP1 ISZERO PUSH2 0xF JUMPI PUSH0 PUSH0 REVERT JUMPDEST POP CALLER PUSH0 PUSH20 0xFFFFFFFFFFFFFFFFFFFFFFFFFFFFFFFFFFFFFFFF AND DUP2 PUSH20 0xFFFFFFFFFFFFFFFFFFFFFFFFFFFFFFFFFFFFFFFF AND SUB PUSH2 0x81 JUMPI PUSH0 PUSH1 0x40 MLOAD PUSH32 0x1E4FBDF700000000000000000000000000000000000000000000000000000000 DUP2 MSTORE PUSH1 0x4 ADD PUSH2 0x78 SWAP2 SWAP1 PUSH2 0x19D JUMP JUMPDEST PUSH1 0x40 MLOAD DUP1 SWAP2 SUB SWAP1 REVERT JUMPDEST PUSH2 0x90 DUP2 PUSH2 0x9D PUSH1 0x20 SHL PUSH1 0x20 SHR JUMP JUMPDEST POP PUSH1 0x1 DUP1 DUP2 SWAP1 SSTORE POP PUSH2 0x1B6 JUMP JUMPDEST PUSH0 PUSH0 PUSH0 SWAP1 SLOAD SWAP1 PUSH2 0x100 EXP SWAP1 DIV PUSH20 0xFFFFFFFFFFFFFFFFFFFFFFFFFFFFFFFFFFFFFFFF AND SWAP1 POP DUP2 PUSH0 PUSH0 PUSH2 0x100 EXP DUP2 SLOAD DUP2 PUSH20 0xFFFFFFFFFFFFFFFFFFFFFFFFFFFFFFFFFFFFFFFF MUL NOT AND SWAP1 DUP4 PUSH20 0xFFFFFFFFFFFFFFFFFFFFFFFFFFFFFFFFFFFFFFFF AND MUL OR SWAP1 SSTORE POP DUP2 PUSH20 0xFFFFFFFFFFFFFFFFFFFFFFFFFFFFFFFFFFFFFFFF AND DUP2 PUSH20 0xFFFFFFFFFFFFFFFFFFFFFFFFFFFFFFFFFFFFFFFF AND PUSH32 0x8BE0079C531659141344CD1FD0A4F28419497F9722A3DAAFE3B4186F6B6457E0 PUSH1 0x40 MLOAD PUSH1 0x40 MLOAD DUP1 SWAP2 SUB SWAP1 LOG3 POP POP JUMP JUMPDEST PUSH0 PUSH20 0xFFFFFFFFFFFFFFFFFFFFFFFFFFFFFFFFFFFFFFFF DUP3 AND SWAP1 POP SWAP2 SWAP1 POP JUMP JUMPDEST PUSH0 PUSH2 0x187 DUP3 PUSH2 0x15E JUMP JUMPDEST SWAP1 POP SWAP2 SWAP1 POP JUMP JUMPDEST PUSH2 0x197 DUP2 PUSH2 0x17D JUMP JUMPDEST DUP3 MSTORE POP POP JUMP JUMPDEST PUSH0 PUSH1 0x20 DUP3 ADD SWAP1 POP PUSH2 0x1B0 PUSH0 DUP4 ADD DUP5 PUSH2 0x18E JUMP JUMPDEST SWAP3 SWAP2 POP POP JUMP JUMPDEST PUSH2 0x2176 DUP1 PUSH2 0x1C3 PUSH0 CODECOPY PUSH0 RETURN INVALID PUSH1 0x80 PUSH1 0x40 MSTORE PUSH1 0x4 CALLDATASIZE LT PUSH2 0xA6 JUMPI PUSH0 CALLDATALOAD PUSH1 0xE0 SHR DUP1 PUSH4 0x82CB05E5 GT PUSH2 0x63 JUMPI DUP1 PUSH4 0x82CB05E5 EQ PUSH2 0x1BC JUMPI DUP1 PUSH4 0x8C3E13B4 EQ PUSH2 0x1F8 JUMPI DUP1 PUSH4 0x8DA5CB5B EQ PUSH2 0x234 JUMPI DUP1 PUSH4 0x97491D6F EQ PUSH2 0x25E JUMPI DUP1 PUSH4 0xAF94A1D1 EQ PUSH2 0x286 JUMPI DUP1 PUSH4 0xF2FDE38B EQ PUSH2 0x2C8 JUMPI PUSH2 0xA6 JUMP JUMPDEST DUP1 PUSH4 0xE64D5C7 EQ PUSH2 0xAA JUMPI DUP1 PUSH4 0x39B3667E EQ PUSH2 0xC6 JUMPI DUP1 PUSH4 0x6389ED91 EQ PUSH2 0x106 JUMPI DUP1 PUSH4 0x652BD29E EQ PUSH2 0x142 JUMPI DUP1 PUSH4 0x6E37B9A1 EQ PUSH2 0x17E JUMPI DUP1 PUSH4 0x715018A6 EQ PUSH2 0x1A6 JUMPI JUMPDEST PUSH0 PUSH0 REVERT JUMPDEST PUSH2 0xC4 PUSH1 0x4 DUP1 CALLDATASIZE SUB DUP2 ADD SWAP1 PUSH2 0xBF SWAP2 SWAP1 PUSH2 0x12B7 JUMP JUMPDEST PUSH2 0x2F0 JUMP JUMPDEST STOP JUMPDEST CALLVALUE DUP1 ISZERO PUSH2 0xD1 JUMPI PUSH0 PUSH0 REVERT JUMPDEST POP PUSH2 0xEC PUSH1 0x4 DUP1 CALLDATASIZE SUB DUP2 ADD SWAP1 PUSH2 0xE7 SWAP2 SWAP1 PUSH2 0x12F5 JUMP JUMPDEST PUSH2 0x712 JUMP JUMPDEST PUSH1 0x40 MLOAD PUSH2 0xFD SWAP6 SWAP5 SWAP4 SWAP3 SWAP2 SWAP1 PUSH2 0x13F8 JUMP JUMPDEST PUSH1 0x40 MLOAD DUP1 SWAP2 SUB SWAP1 RETURN JUMPDEST CALLVALUE DUP1 ISZERO PUSH2 0x111 JUMPI PUSH0 PUSH0 REVERT JUMPDEST POP PUSH2 0x12C PUSH1 0x4 DUP1 CALLDATASIZE SUB DUP2 ADD SWAP1 PUSH2 0x127 SWAP2 SWAP1 PUSH2 0x12F5 JUMP JUMPDEST PUSH2 0x7F5 JUMP JUMPDEST PUSH1 0x40 MLOAD PUSH2 0x139 SWAP2 SWAP1 PUSH2 0x1538 JUMP JUMPDEST PUSH1 0x40 MLOAD DUP1 SWAP2 SUB SWAP1 RETURN JUMPDEST CALLVALUE DUP1 ISZERO PUSH2 0x14D JUMPI PUSH0 PUSH0 REVERT JUMPDEST POP PUSH2 0x168 PUSH1 0x4 DUP1 CALLDATASIZE SUB DUP2 ADD SWAP1 PUSH2 0x163 SWAP2 SWAP1 PUSH2 0x12F5 JUMP JUMPDEST PUSH2 0x932 JUMP JUMPDEST PUSH1 0x40 MLOAD PUSH2 0x175 SWAP2 SWAP1 PUSH2 0x15E4 JUMP JUMPDEST PUSH1 0x40 MLOAD DUP1 SWAP2 SUB SWAP1 RETURN JUMPDEST CALLVALUE DUP1 ISZERO PUSH2 0x189 JUMPI PUSH0 PUSH0 REVERT JUMPDEST POP PUSH2 0x1A4 PUSH1 0x4 DUP1 CALLDATASIZE SUB DUP2 ADD SWAP1 PUSH2 0x19F SWAP2 SWAP1 PUSH2 0x165E JUMP JUMPDEST PUSH2 0x9FD JUMP JUMPDEST STOP JUMPDEST CALLVALUE DUP1 ISZERO PUSH2 0x1B1 JUMPI PUSH0 PUSH0 REVERT JUMPDEST POP PUSH2 0x1BA PUSH2 0xC7C JUMP JUMPDEST STOP JUMPDEST CALLVALUE DUP1 ISZERO PUSH2 0x1C7 JUMPI PUSH0 PUSH0 REVERT JUMPDEST POP PUSH2 0x1E2 PUSH1 0x4 DUP1 CALLDATASIZE SUB DUP2 ADD SWAP1 PUSH2 0x1DD SWAP2 SWAP1 PUSH2 0x16E5 JUMP JUMPDEST PUSH2 0xC8F JUMP JUMPDEST PUSH1 0x40 MLOAD PUSH2 0x1EF SWAP2 SWAP1 PUSH2 0x17B8 JUMP JUMPDEST PUSH1 0x40 MLOAD DUP1 SWAP2 SUB SWAP1 RETURN JUMPDEST CALLVALUE DUP1 ISZERO PUSH2 0x203 JUMPI PUSH0 PUSH0 REVERT JUMPDEST POP PUSH2 0x21E PUSH1 0x4 DUP1 CALLDATASIZE SUB DUP2 ADD SWAP1 PUSH2 0x219 SWAP2 SWAP1 PUSH2 0x17D8 JUMP JUMPDEST PUSH2 0xD22 JUMP JUMPDEST PUSH1 0x40 MLOAD PUSH2 0x22B SWAP2 SWAP1 PUSH2 0x1816 JUMP JUMPDEST PUSH1 0x40 MLOAD DUP1 SWAP2 SUB SWAP1 RETURN JUMPDEST CALLVALUE DUP1 ISZERO PUSH2 0x23F JUMPI PUSH0 PUSH0 REVERT JUMPDEST POP PUSH2 0x248 PUSH2 0xD4D JUMP JUMPDEST PUSH1 0x40 MLOAD PUSH2 0x255 SWAP2 SWAP1 PUSH2 0x182F JUMP JUMPDEST PUSH1 0x40 MLOAD DUP1 SWAP2 SUB SWAP1 RETURN JUMPDEST CALLVALUE DUP1 ISZERO PUSH2 0x269 JUMPI PUSH0 PUSH0 REVERT JUMPDEST POP PUSH2 0x284 PUSH1 0x4 DUP1 CALLDATASIZE SUB DUP2 ADD SWAP1 PUSH2 0x27F SWAP2 SWAP1 PUSH2 0x12F5 JUMP JUMPDEST PUSH2 0xD74 JUMP JUMPDEST STOP JUMPDEST CALLVALUE DUP1 ISZERO PUSH2 0x291 JUMPI PUSH0 PUSH0 REVERT JUMPDEST POP PUSH2 0x2AC PUSH1 0x4 DUP1 CALLDATASIZE SUB DUP2 ADD SWAP1 PUSH2 0x2A7 SWAP2 SWAP1 PUSH2 0x12F5 JUMP JUMPDEST PUSH2 0xF57 JUMP JUMPDEST PUSH1 0x40 MLOAD PUSH2 0x2BF SWAP8 SWAP7 SWAP6 SWAP5 SWAP4 SWAP3 SWAP2 SWAP1 PUSH2 0x1848 JUMP JUMPDEST PUSH1 0x40 MLOAD DUP1 SWAP2 SUB SWAP1 RETURN JUMPDEST CALLVALUE DUP1 ISZERO PUSH2 0x2D3 JUMPI PUSH0 PUSH0 REVERT JUMPDEST POP PUSH2 0x2EE PUSH1 0x4 DUP1 CALLDATASIZE SUB DUP2 ADD SWAP1 PUSH2 0x2E9 SWAP2 SWAP1 PUSH2 0x16E5 JUMP JUMPDEST PUSH2 0xFC0 JUMP JUMPDEST STOP JUMPDEST PUSH2 0x2F8 PUSH2 0x1044 JUMP JUMPDEST PUSH0 PUSH1 0x4 PUSH0 DUP5 DUP2 MSTORE PUSH1 0x20 ADD SWAP1 DUP2 MSTORE PUSH1 0x20 ADD PUSH0 KECCAK256 SWAP1 POP DUP1 PUSH1 0x4 ADD PUSH0 SWAP1 SLOAD SWAP1 PUSH2 0x100 EXP SWAP1 DIV PUSH1 0xFF AND PUSH2 0x35C JUMPI PUSH1 0x40 MLOAD PUSH32 0x8C379A000000000000000000000000000000000000000000000000000000000 DUP2 MSTORE PUSH1 0x4 ADD PUSH2 0x353 SWAP1 PUSH2 0x18FF JUMP JUMPDEST PUSH1 0x40 MLOAD DUP1 SWAP2 SUB SWAP1 REVERT JUMPDEST PUSH0 DUP3 GT PUSH2 0x39E JUMPI PUSH1 0x40 MLOAD PUSH32 0x8C379A000000000000000000000000000000000000000000000000000000000 DUP2 MSTORE PUSH1 0x4 ADD PUSH2 0x395 SWAP1 PUSH2 0x1967 JUMP JUMPDEST PUSH1 0x40 MLOAD DUP1 SWAP2 SUB SWAP1 REVERT JUMPDEST PUSH0 DUP3 DUP3 PUSH1 0x3 ADD SLOAD PUSH2 0x3AF SWAP2 SWAP1 PUSH2 0x19B2 JUMP JUMPDEST SWAP1 POP DUP1 CALLVALUE LT ISZERO PUSH2 0x3F4 JUMPI PUSH1 0x40 MLOAD PUSH32 0x8C379A000000000000000000000000000000000000000000000000000000000 DUP2 MSTORE PUSH1 0x4 ADD PUSH2 0x3EB SWAP1 PUSH2 0x1A3D JUMP JUMPDEST PUSH1 0x40 MLOAD DUP1 SWAP2 SUB SWAP1 REVERT JUMPDEST PUSH0 DUP3 PUSH1 0x4 ADD PUSH0 PUSH2 0x100 EXP DUP2 SLOAD DUP2 PUSH1 0xFF MUL NOT AND SWAP1 DUP4 ISZERO ISZERO MUL OR SWAP1 SSTORE POP PUSH0 PUSH1 0x3 PUSH0 DUP2 SLOAD DUP1 SWAP3 SWAP2 SWAP1 PUSH2 0x422 SWAP1 PUSH2 0x1A5B JUMP JUMPDEST SWAP2 SWAP1 POP SSTORE SWAP1 POP PUSH1 0x40 MLOAD DUP1 PUSH1 0xE0 ADD PUSH1 0x40 MSTORE DUP1 DUP3 DUP2 MSTORE PUSH1 0x20 ADD DUP7 DUP2 MSTORE PUSH1 0x20 ADD CALLER PUSH20 0xFFFFFFFFFFFFFFFFFFFFFFFFFFFFFFFFFFFFFFFF AND DUP2 MSTORE PUSH1 0x20 ADD TIMESTAMP DUP2 MSTORE PUSH1 0x20 ADD PUSH2 0xE10 DUP7 PUSH2 0x46F SWAP2 SWAP1 PUSH2 0x19B2 JUMP JUMPDEST TIMESTAMP PUSH2 0x47A SWAP2 SWAP1 PUSH2 0x1AA2 JUMP JUMPDEST DUP2 MSTORE PUSH1 0x20 ADD DUP4 DUP2 MSTORE PUSH1 0x20 ADD PUSH1 0x1 ISZERO ISZERO DUP2 MSTORE POP PUSH1 0x5 PUSH0 DUP4 DUP2 MSTORE PUSH1 0x20 ADD SWAP1 DUP2 MSTORE PUSH1 0x20 ADD PUSH0 KECCAK256 PUSH0 DUP3 ADD MLOAD DUP2 PUSH0 ADD SSTORE PUSH1 0x20 DUP3 ADD MLOAD DUP2 PUSH1 0x1 ADD SSTORE PUSH1 0x40 DUP3 ADD MLOAD DUP2 PUSH1 0x2 ADD PUSH0 PUSH2 0x100 EXP DUP2 SLOAD DUP2 PUSH20 0xFFFFFFFFFFFFFFFFFFFFFFFFFFFFFFFFFFFFFFFF MUL NOT AND SWAP1 DUP4 PUSH20 0xFFFFFFFFFFFFFFFFFFFFFFFFFFFFFFFFFFFFFFFF AND MUL OR SWAP1 SSTORE POP PUSH1 0x60 DUP3 ADD MLOAD DUP2 PUSH1 0x3 ADD SSTORE PUSH1 0x80 DUP3 ADD MLOAD DUP2 PUSH1 0x4 ADD SSTORE PUSH1 0xA0 DUP3 ADD MLOAD DUP2 PUSH1 0x5 ADD SSTORE PUSH1 0xC0 DUP3 ADD MLOAD DUP2 PUSH1 0x6 ADD PUSH0 PUSH2 0x100 EXP DUP2 SLOAD DUP2 PUSH1 0xFF MUL NOT AND SWAP1 DUP4 ISZERO ISZERO MUL OR SWAP1 SSTORE POP SWAP1 POP POP PUSH0 DUP4 PUSH1 0x1 ADD PUSH0 SWAP1 SLOAD SWAP1 PUSH2 0x100 EXP SWAP1 DIV PUSH20 0xFFFFFFFFFFFFFFFFFFFFFFFFFFFFFFFFFFFFFFFF AND PUSH20 0xFFFFFFFFFFFFFFFFFFFFFFFFFFFFFFFFFFFFFFFF AND DUP4 PUSH1 0x40 MLOAD PUSH2 0x57D SWAP1 PUSH2 0x1B02 JUMP JUMPDEST PUSH0 PUSH1 0x40 MLOAD DUP1 DUP4 SUB DUP2 DUP6 DUP8 GAS CALL SWAP3 POP POP POP RETURNDATASIZE DUP1 PUSH0 DUP2 EQ PUSH2 0x5B7 JUMPI PUSH1 0x40 MLOAD SWAP2 POP PUSH1 0x1F NOT PUSH1 0x3F RETURNDATASIZE ADD AND DUP3 ADD PUSH1 0x40 MSTORE RETURNDATASIZE DUP3 MSTORE RETURNDATASIZE PUSH0 PUSH1 0x20 DUP5 ADD RETURNDATACOPY PUSH2 0x5BC JUMP JUMPDEST PUSH1 0x60 SWAP2 POP JUMPDEST POP POP SWAP1 POP DUP1 PUSH2 0x600 JUMPI PUSH1 0x40 MLOAD PUSH32 0x8C379A000000000000000000000000000000000000000000000000000000000 DUP2 MSTORE PUSH1 0x4 ADD PUSH2 0x5F7 SWAP1 PUSH2 0x1B60 JUMP JUMPDEST PUSH1 0x40 MLOAD DUP1 SWAP2 SUB SWAP1 REVERT JUMPDEST DUP3 CALLVALUE GT ISZERO PUSH2 0x6BD JUMPI PUSH0 CALLER PUSH20 0xFFFFFFFFFFFFFFFFFFFFFFFFFFFFFFFFFFFFFFFF AND DUP5 CALLVALUE PUSH2 0x62C SWAP2 SWAP1 PUSH2 0x1B7E JUMP JUMPDEST PUSH1 0x40 MLOAD PUSH2 0x638 SWAP1 PUSH2 0x1B02 JUMP JUMPDEST PUSH0 PUSH1 0x40 MLOAD DUP1 DUP4 SUB DUP2 DUP6 DUP8 GAS CALL SWAP3 POP POP POP RETURNDATASIZE DUP1 PUSH0 DUP2 EQ PUSH2 0x672 JUMPI PUSH1 0x40 MLOAD SWAP2 POP PUSH1 0x1F NOT PUSH1 0x3F RETURNDATASIZE ADD AND DUP3 ADD PUSH1 0x40 MSTORE RETURNDATASIZE DUP3 MSTORE RETURNDATASIZE PUSH0 PUSH1 0x20 DUP5 ADD RETURNDATACOPY PUSH2 0x677 JUMP JUMPDEST PUSH1 0x60 SWAP2 POP JUMPDEST POP POP SWAP1 POP DUP1 PUSH2 0x6BB JUMPI PUSH1 0x40 MLOAD PUSH32 0x8C379A000000000000000000000000000000000000000000000000000000000 DUP2 MSTORE PUSH1 0x4 ADD PUSH2 0x6B2 SWAP1 PUSH2 0x1BFB JUMP JUMPDEST PUSH1 0x40 MLOAD DUP1 SWAP2 SUB SWAP1 REVERT JUMPDEST POP JUMPDEST CALLER PUSH20 0xFFFFFFFFFFFFFFFFFFFFFFFFFFFFFFFFFFFFFFFF AND DUP7 DUP4 PUSH32 0xD70B183971C661A9A151DC824D0449B4D75B4AACE9100D1167CFA75ED19C071F PUSH1 0x40 MLOAD PUSH1 0x40 MLOAD DUP1 SWAP2 SUB SWAP1 LOG4 POP POP POP POP PUSH2 0x70E PUSH2 0x1093 JUMP JUMPDEST POP POP JUMP JUMPDEST PUSH1 0x4 PUSH1 0x20 MSTORE DUP1 PUSH0 MSTORE PUSH1 0x40 PUSH0 KECCAK256 PUSH0 SWAP2 POP SWAP1 POP DUP1 PUSH0 ADD SLOAD SWAP1 DUP1 PUSH1 0x1 ADD PUSH0 SWAP1 SLOAD SWAP1 PUSH2 0x100 EXP SWAP1 DIV PUSH20 0xFFFFFFFFFFFFFFFFFFFFFFFFFFFFFFFFFFFFFFFF AND SWAP1 DUP1 PUSH1 0x2 ADD DUP1 SLOAD PUSH2 0x75C SWAP1 PUSH2 0x1C46 JUMP JUMPDEST DUP1 PUSH1 0x1F ADD PUSH1 0x20 DUP1 SWAP2 DIV MUL PUSH1 0x20 ADD PUSH1 0x40 MLOAD SWAP1 DUP2 ADD PUSH1 0x40 MSTORE DUP1 SWAP3 SWAP2 SWAP1 DUP2 DUP2 MSTORE PUSH1 0x20 ADD DUP3 DUP1 SLOAD PUSH2 0x788 SWAP1 PUSH2 0x1C46 JUMP JUMPDEST DUP1 ISZERO PUSH2 0x7D3 JUMPI DUP1 PUSH1 0x1F LT PUSH2 0x7AA JUMPI PUSH2 0x100 DUP1 DUP4 SLOAD DIV MUL DUP4 MSTORE SWAP2 PUSH1 0x20 ADD SWAP2 PUSH2 0x7D3 JUMP JUMPDEST DUP3 ADD SWAP2 SWAP1 PUSH0 MSTORE PUSH1 0x20 PUSH0 KECCAK256 SWAP1 JUMPDEST DUP2 SLOAD DUP2 MSTORE SWAP1 PUSH1 0x1 ADD SWAP1 PUSH1 0x20 ADD DUP1 DUP4 GT PUSH2 0x7B6 JUMPI DUP3 SWAP1 SUB PUSH1 0x1F AND DUP3 ADD SWAP2 JUMPDEST POP POP POP POP POP SWAP1 DUP1 PUSH1 0x3 ADD SLOAD SWAP1 DUP1 PUSH1 0x4 ADD PUSH0 SWAP1 SLOAD SWAP1 PUSH2 0x100 EXP SWAP1 DIV PUSH1 0xFF AND SWAP1 POP DUP6 JUMP JUMPDEST PUSH2 0x7FD PUSH2 0x11EB JUMP JUMPDEST PUSH1 0x4 PUSH0 DUP4 DUP2 MSTORE PUSH1 0x20 ADD SWAP1 DUP2 MSTORE PUSH1 0x20 ADD PUSH0 KECCAK256 PUSH1 0x40 MLOAD DUP1 PUSH1 0xA0 ADD PUSH1 0x40 MSTORE SWAP1 DUP2 PUSH0 DUP3 ADD SLOAD DUP2 MSTORE PUSH1 0x20 ADD PUSH1 0x1 DUP3 ADD PUSH0 SWAP1 SLOAD SWAP1 PUSH2 0x100 EXP SWAP1 DIV PUSH20 0xFFFFFFFFFFFFFFFFFFFFFFFFFFFFFFFFFFFFFFFF AND PUSH20 0xFFFFFFFFFFFFFFFFFFFFFFFFFFFFFFFFFFFFFFFF AND PUSH20 0xFFFFFFFFFFFFFFFFFFFFFFFFFFFFFFFFFFFFFFFF AND DUP2 MSTORE PUSH1 0x20 ADD PUSH1 0x2 DUP3 ADD DUP1 SLOAD PUSH2 0x887 SWAP1 PUSH2 0x1C46 JUMP JUMPDEST DUP1 PUSH1 0x1F ADD PUSH1 0x20 DUP1 SWAP2 DIV MUL PUSH1 0x20 ADD PUSH1 0x40 MLOAD SWAP1 DUP2 ADD PUSH1 0x40 MSTORE DUP1 SWAP3 SWAP2 SWAP1 DUP2 DUP2 MSTORE PUSH1 0x20 ADD DUP3 DUP1 SLOAD PUSH2 0x8B3 SWAP1 PUSH2 0x1C46 JUMP JUMPDEST DUP1 ISZERO PUSH2 0x8FE JUMPI DUP1 PUSH1 0x1F LT PUSH2 0x8D5 JUMPI PUSH2 0x100 DUP1 DUP4 SLOAD DIV MUL DUP4 MSTORE SWAP2 PUSH1 0x20 ADD SWAP2 PUSH2 0x8FE JUMP JUMPDEST DUP3 ADD SWAP2 SWAP1 PUSH0 MSTORE PUSH1 0x20 PUSH0 KECCAK256 SWAP1 JUMPDEST DUP2 SLOAD DUP2 MSTORE SWAP1 PUSH1 0x1 ADD SWAP1 PUSH1 0x20 ADD DUP1 DUP4 GT PUSH2 0x8E1 JUMPI DUP3 SWAP1 SUB PUSH1 0x1F AND DUP3 ADD SWAP2 JUMPDEST POP POP POP POP POP DUP2 MSTORE PUSH1 0x20 ADD PUSH1 0x3 DUP3 ADD SLOAD DUP2 MSTORE PUSH1 0x20 ADD PUSH1 0x4 DUP3 ADD PUSH0 SWAP1 SLOAD SWAP1 PUSH2 0x100 EXP SWAP1 DIV PUSH1 0xFF AND ISZERO ISZERO ISZERO ISZERO DUP2 MSTORE POP POP SWAP1 POP SWAP2 SWAP1 POP JUMP JUMPDEST PUSH2 0x93A PUSH2 0x122E JUMP JUMPDEST PUSH1 0x5 PUSH0 DUP4 DUP2 MSTORE PUSH1 0x20 ADD SWAP1 DUP2 MSTORE PUSH1 0x20 ADD PUSH0 KECCAK256 PUSH1 0x40 MLOAD DUP1 PUSH1 0xE0 ADD PUSH1 0x40 MSTORE SWAP1 DUP2 PUSH0 DUP3 ADD SLOAD DUP2 MSTORE PUSH1 0x20 ADD PUSH1 0x1 DUP3 ADD SLOAD DUP2 MSTORE PUSH1 0x20 ADD PUSH1 0x2 DUP3 ADD PUSH0 SWAP1 SLOAD SWAP1 PUSH2 0x100 EXP SWAP1 DIV PUSH20 0xFFFFFFFFFFFFFFFFFFFFFFFFFFFFFFFFFFFFFFFF AND PUSH20 0xFFFFFFFFFFFFFFFFFFFFFFFFFFFFFFFFFFFFFFFF AND PUSH20 0xFFFFFFFFFFFFFFFFFFFFFFFFFFFFFFFFFFFFFFFF AND DUP2 MSTORE PUSH1 0x20 ADD PUSH1 0x3 DUP3 ADD SLOAD DUP2 MSTORE PUSH1 0x20 ADD PUSH1 0x4 DUP3 ADD SLOAD DUP2 MSTORE PUSH1 0x20 ADD PUSH1 0x5 DUP3 ADD SLOAD DUP2 MSTORE PUSH1 0x20 ADD PUSH1 0x6 DUP3 ADD PUSH0 SWAP1 SLOAD SWAP1 PUSH2 0x100 EXP SWAP1 DIV PUSH1 0xFF AND ISZERO ISZERO ISZERO ISZERO DUP2 MSTORE POP POP SWAP1 POP SWAP2 SWAP1 POP JUMP JUMPDEST PUSH2 0xA05 PUSH2 0x1044 JUMP JUMPDEST PUSH0 DUP4 DUP4 SWAP1 POP GT PUSH2 0xA4A JUMPI PUSH1 0x40 MLOAD PUSH32 0x8C379A000000000000000000000000000000000000000000000000000000000 DUP2 MSTORE PUSH1 0x4 ADD PUSH2 0xA41 SWAP1 PUSH2 0x1CC0 JUMP JUMPDEST PUSH1 0x40 MLOAD DUP1 SWAP2 SUB SWAP1 REVERT JUMPDEST PUSH0 DUP2 GT PUSH2 0xA8C JUMPI PUSH1 0x40 MLOAD PUSH32 0x8C379A000000000000000000000000000000000000000000000000000000000 DUP2 MSTORE PUSH1 0x4 ADD PUSH2 0xA83 SWAP1 PUSH2 0x1D4E JUMP JUMPDEST PUSH1 0x40 MLOAD DUP1 SWAP2 SUB SWAP1 REVERT JUMPDEST PUSH0 PUSH1 0x2 PUSH0 DUP2 SLOAD DUP1 SWAP3 SWAP2 SWAP1 PUSH2 0xA9F SWAP1 PUSH2 0x1A5B JUMP JUMPDEST SWAP2 SWAP1 POP SSTORE SWAP1 POP PUSH1 0x40 MLOAD DUP1 PUSH1 0xA0 ADD PUSH1 0x40 MSTORE DUP1 DUP3 DUP2 MSTORE PUSH1 0x20 ADD CALLER PUSH20 0xFFFFFFFFFFFFFFFFFFFFFFFFFFFFFFFFFFFFFFFF AND DUP2 MSTORE PUSH1 0x20 ADD DUP6 DUP6 DUP1 DUP1 PUSH1 0x1F ADD PUSH1 0x20 DUP1 SWAP2 DIV MUL PUSH1 0x20 ADD PUSH1 0x40 MLOAD SWAP1 DUP2 ADD PUSH1 0x40 MSTORE DUP1 SWAP4 SWAP3 SWAP2 SWAP1 DUP2 DUP2 MSTORE PUSH1 0x20 ADD DUP4 DUP4 DUP1 DUP3 DUP5 CALLDATACOPY PUSH0 DUP2 DUP5 ADD MSTORE PUSH1 0x1F NOT PUSH1 0x1F DUP3 ADD AND SWAP1 POP DUP1 DUP4 ADD SWAP3 POP POP POP POP POP POP POP DUP2 MSTORE PUSH1 0x20 ADD DUP4 DUP2 MSTORE PUSH1 0x20 ADD PUSH1 0x1 ISZERO ISZERO DUP2 MSTORE POP PUSH1 0x4 PUSH0 DUP4 DUP2 MSTORE PUSH1 0x20 ADD SWAP1 DUP2 MSTORE PUSH1 0x20 ADD PUSH0 KECCAK256 PUSH0 DUP3 ADD MLOAD DUP2 PUSH0 ADD SSTORE PUSH1 0x20 DUP3 ADD MLOAD DUP2 PUSH1 0x1 ADD PUSH0 PUSH2 0x100 EXP DUP2 SLOAD DUP2 PUSH20 0xFFFFFFFFFFFFFFFFFFFFFFFFFFFFFFFFFFFFFFFF MUL NOT AND SWAP1 DUP4 PUSH20 0xFFFFFFFFFFFFFFFFFFFFFFFFFFFFFFFFFFFFFFFF AND MUL OR SWAP1 SSTORE POP PUSH1 0x40 DUP3 ADD MLOAD DUP2 PUSH1 0x2 ADD SWAP1 DUP2 PUSH2 0xB9C SWAP2 SWAP1 PUSH2 0x1F39 JUMP JUMPDEST POP PUSH1 0x60 DUP3 ADD MLOAD DUP2 PUSH1 0x3 ADD SSTORE PUSH1 0x80 DUP3 ADD MLOAD DUP2 PUSH1 0x4 ADD PUSH0 PUSH2 0x100 EXP DUP2 SLOAD DUP2 PUSH1 0xFF MUL NOT AND SWAP1 DUP4 ISZERO ISZERO MUL OR SWAP1 SSTORE POP SWAP1 POP POP PUSH1 0x6 PUSH0 CALLER PUSH20 0xFFFFFFFFFFFFFFFFFFFFFFFFFFFFFFFFFFFFFFFF AND PUSH20 0xFFFFFFFFFFFFFFFFFFFFFFFFFFFFFFFFFFFFFFFF AND DUP2 MSTORE PUSH1 0x20 ADD SWAP1 DUP2 MSTORE PUSH1 0x20 ADD PUSH0 KECCAK256 DUP2 SWAP1 DUP1 PUSH1 0x1 DUP2 SLOAD ADD DUP1 DUP3 SSTORE DUP1 SWAP2 POP POP PUSH1 0x1 SWAP1 SUB SWAP1 PUSH0 MSTORE PUSH1 0x20 PUSH0 KECCAK256 ADD PUSH0 SWAP1 SWAP2 SWAP1 SWAP2 SWAP1 SWAP2 POP SSTORE CALLER PUSH20 0xFFFFFFFFFFFFFFFFFFFFFFFFFFFFFFFFFFFFFFFF AND DUP2 PUSH32 0xE284DD765E7AC52A09E2B878DDDE2DD8097BA235E1557A6DD394A445FAD9F2E9 PUSH1 0x40 MLOAD PUSH1 0x40 MLOAD DUP1 SWAP2 SUB SWAP1 LOG3 POP PUSH2 0xC77 PUSH2 0x1093 JUMP JUMPDEST POP POP POP JUMP JUMPDEST PUSH2 0xC84 PUSH2 0x109C JUMP JUMPDEST PUSH2 0xC8D PUSH0 PUSH2 0x1123 JUMP JUMPDEST JUMP JUMPDEST PUSH1 0x60 PUSH1 0x6 PUSH0 DUP4 PUSH20 0xFFFFFFFFFFFFFFFFFFFFFFFFFFFFFFFFFFFFFFFF AND PUSH20 0xFFFFFFFFFFFFFFFFFFFFFFFFFFFFFFFFFFFFFFFF AND DUP2 MSTORE PUSH1 0x20 ADD SWAP1 DUP2 MSTORE PUSH1 0x20 ADD PUSH0 KECCAK256 DUP1 SLOAD DUP1 PUSH1 0x20 MUL PUSH1 0x20 ADD PUSH1 0x40 MLOAD SWAP1 DUP2 ADD PUSH1 0x40 MSTORE DUP1 SWAP3 SWAP2 SWAP1 DUP2 DUP2 MSTORE PUSH1 0x20 ADD DUP3 DUP1 SLOAD DUP1 ISZERO PUSH2 0xD16 JUMPI PUSH1 0x20 MUL DUP3 ADD SWAP2 SWAP1 PUSH0 MSTORE PUSH1 0x20 PUSH0 KECCAK256 SWAP1 JUMPDEST DUP2 SLOAD DUP2 MSTORE PUSH1 0x20 ADD SWAP1 PUSH1 0x1 ADD SWAP1 DUP1 DUP4 GT PUSH2 0xD02 JUMPI JUMPDEST POP POP POP POP POP SWAP1 POP SWAP2 SWAP1 POP JUMP JUMPDEST PUSH1 0x6 PUSH1 0x20 MSTORE DUP2 PUSH0 MSTORE PUSH1 0x40 PUSH0 KECCAK256 DUP2 DUP2 SLOAD DUP2 LT PUSH2 0xD3B JUMPI PUSH0 DUP1 REVERT JUMPDEST SWAP1 PUSH0 MSTORE PUSH1 0x20 PUSH0 KECCAK256 ADD PUSH0 SWAP2 POP SWAP2 POP POP SLOAD DUP2 JUMP JUMPDEST PUSH0 PUSH0 PUSH0 SWAP1 SLOAD SWAP1 PUSH2 0x100 EXP SWAP1 DIV PUSH20 0xFFFFFFFFFFFFFFFFFFFFFFFFFFFFFFFFFFFFFFFF AND SWAP1 POP SWAP1 JUMP JUMPDEST PUSH2 0xD7C PUSH2 0x1044 JUMP JUMPDEST PUSH0 PUSH1 0x5 PUSH0 DUP4 DUP2 MSTORE PUSH1 0x20 ADD SWAP1 DUP2 MSTORE PUSH1 0x20 ADD PUSH0 KECCAK256 SWAP1 POP PUSH0 PUSH1 0x4 PUSH0 DUP4 PUSH1 0x1 ADD SLOAD DUP2 MSTORE PUSH1 0x20 ADD SWAP1 DUP2 MSTORE PUSH1 0x20 ADD PUSH0 KECCAK256 SWAP1 POP DUP2 PUSH1 0x6 ADD PUSH0 SWAP1 SLOAD SWAP1 PUSH2 0x100 EXP SWAP1 DIV PUSH1 0xFF AND PUSH2 0xDF8 JUMPI PUSH1 0x40 MLOAD PUSH32 0x8C379A000000000000000000000000000000000000000000000000000000000 DUP2 MSTORE PUSH1 0x4 ADD PUSH2 0xDEF SWAP1 PUSH2 0x2052 JUMP JUMPDEST PUSH1 0x40 MLOAD DUP1 SWAP2 SUB SWAP1 REVERT JUMPDEST DUP2 PUSH1 0x4 ADD SLOAD TIMESTAMP LT ISZERO DUP1 PUSH2 0xE59 JUMPI POP DUP1 PUSH1 0x1 ADD PUSH0 SWAP1 SLOAD SWAP1 PUSH2 0x100 EXP SWAP1 DIV PUSH20 0xFFFFFFFFFFFFFFFFFFFFFFFFFFFFFFFFFFFFFFFF AND PUSH20 0xFFFFFFFFFFFFFFFFFFFFFFFFFFFFFFFFFFFFFFFF AND CALLER PUSH20 0xFFFFFFFFFFFFFFFFFFFFFFFFFFFFFFFFFFFFFFFF AND EQ JUMPDEST PUSH2 0xE98 JUMPI PUSH1 0x40 MLOAD PUSH32 0x8C379A000000000000000000000000000000000000000000000000000000000 DUP2 MSTORE PUSH1 0x4 ADD PUSH2 0xE8F SWAP1 PUSH2 0x20BA JUMP JUMPDEST PUSH1 0x40 MLOAD DUP1 SWAP2 SUB SWAP1 REVERT JUMPDEST PUSH0 DUP3 PUSH1 0x6 ADD PUSH0 PUSH2 0x100 EXP DUP2 SLOAD DUP2 PUSH1 0xFF MUL NOT AND SWAP1 DUP4 ISZERO ISZERO MUL OR SWAP1 SSTORE POP PUSH1 0x1 DUP2 PUSH1 0x4 ADD PUSH0 PUSH2 0x100 EXP DUP2 SLOAD DUP2 PUSH1 0xFF MUL NOT AND SWAP1 DUP4 ISZERO ISZERO MUL OR SWAP1 SSTORE POP DUP2 PUSH1 0x2 ADD PUSH0 SWAP1 SLOAD SWAP1 PUSH2 0x100 EXP SWAP1 DIV PUSH20 0xFFFFFFFFFFFFFFFFFFFFFFFFFFFFFFFFFFFFFFFF AND PUSH20 0xFFFFFFFFFFFFFFFFFFFFFFFFFFFFFFFFFFFFFFFF AND DUP3 PUSH1 0x1 ADD SLOAD DUP5 PUSH32 0x9029911798A27031BB9F46434E021A30A97443750DEE7D58E4AAA0741726694E DUP6 PUSH1 0x5 ADD SLOAD PUSH1 0x40 MLOAD PUSH2 0xF42 SWAP2 SWAP1 PUSH2 0x1816 JUMP JUMPDEST PUSH1 0x40 MLOAD DUP1 SWAP2 SUB SWAP1 LOG4 POP POP PUSH2 0xF54 PUSH2 0x1093 JUMP JUMPDEST POP JUMP JUMPDEST PUSH1 0x5 PUSH1 0x20 MSTORE DUP1 PUSH0 MSTORE PUSH1 0x40 PUSH0 KECCAK256 PUSH0 SWAP2 POP SWAP1 POP DUP1 PUSH0 ADD SLOAD SWAP1 DUP1 PUSH1 0x1 ADD SLOAD SWAP1 DUP1 PUSH1 0x2 ADD PUSH0 SWAP1 SLOAD SWAP1 PUSH2 0x100 EXP SWAP1 DIV PUSH20 0xFFFFFFFFFFFFFFFFFFFFFFFFFFFFFFFFFFFFFFFF AND SWAP1 DUP1 PUSH1 0x3 ADD SLOAD SWAP1 DUP1 PUSH1 0x4 ADD SLOAD SWAP1 DUP1 PUSH1 0x5 ADD SLOAD SWAP1 DUP1 PUSH1 0x6 ADD PUSH0 SWAP1 SLOAD SWAP1 PUSH2 0x100 EXP SWAP1 DIV PUSH1 0xFF AND SWAP1 POP DUP8 JUMP JUMPDEST PUSH2 0xFC8 PUSH2 0x109C JUMP JUMPDEST PUSH0 PUSH20 0xFFFFFFFFFFFFFFFFFFFFFFFFFFFFFFFFFFFFFFFF AND DUP2 PUSH20 0xFFFFFFFFFFFFFFFFFFFFFFFFFFFFFFFFFFFFFFFF AND SUB PUSH2 0x1038 JUMPI PUSH0 PUSH1 0x40 MLOAD PUSH32 0x1E4FBDF700000000000000000000000000000000000000000000000000000000 DUP2 MSTORE PUSH1 0x4 ADD PUSH2 0x102F SWAP2 SWAP1 PUSH2 0x182F JUMP JUMPDEST PUSH1 0x40 MLOAD DUP1 SWAP2 SUB SWAP1 REVERT JUMPDEST PUSH2 0x1041 DUP2 PUSH2 0x1123 JUMP JUMPDEST POP JUMP JUMPDEST PUSH1 0x2 PUSH1 0x1 SLOAD SUB PUSH2 0x1089 JUMPI PUSH1 0x40 MLOAD PUSH32 0x8C379A000000000000000000000000000000000000000000000000000000000 DUP2 MSTORE PUSH1 0x4 ADD PUSH2 0x1080 SWAP1 PUSH2 0x2122 JUMP JUMPDEST PUSH1 0x40 MLOAD DUP1 SWAP2 SUB SWAP1 REVERT JUMPDEST PUSH1 0x2 PUSH1 0x1 DUP2 SWAP1 SSTORE POP JUMP JUMPDEST PUSH1 0x1 DUP1 DUP2 SWAP1 SSTORE POP JUMP JUMPDEST PUSH2 0x10A4 PUSH2 0x11E4 JUMP JUMPDEST PUSH20 0xFFFFFFFFFFFFFFFFFFFFFFFFFFFFFFFFFFFFFFFF AND PUSH2 0x10C2 PUSH2 0xD4D JUMP JUMPDEST PUSH20 0xFFFFFFFFFFFFFFFFFFFFFFFFFFFFFFFFFFFFFFFF AND EQ PUSH2 0x1121 JUMPI PUSH2 0x10E5 PUSH2 0x11E4 JUMP JUMPDEST PUSH1 0x40 MLOAD PUSH32 0x118CDAA700000000000000000000000000000000000000000000000000000000 DUP2 MSTORE PUSH1 0x4 ADD PUSH2 0x1118 SWAP2 SWAP1 PUSH2 0x182F JUMP JUMPDEST PUSH1 0x40 MLOAD DUP1 SWAP2 SUB SWAP1 REVERT JUMPDEST JUMP JUMPDEST PUSH0 PUSH0 PUSH0 SWAP1 SLOAD SWAP1 PUSH2 0x100 EXP SWAP1 DIV PUSH20 0xFFFFFFFFFFFFFFFFFFFFFFFFFFFFFFFFFFFFFFFF AND SWAP1 POP DUP2 PUSH0 PUSH0 PUSH2 0x100 EXP DUP2 SLOAD DUP2 PUSH20 0xFFFFFFFFFFFFFFFFFFFFFFFFFFFFFFFFFFFFFFFF MUL NOT AND SWAP1 DUP4 PUSH20 0xFFFFFFFFFFFFFFFFFFFFFFFFFFFFFFFFFFFFFFFF AND MUL OR SWAP1 SSTORE POP DUP2 PUSH20 0xFFFFFFFFFFFFFFFFFFFFFFFFFFFFFFFFFFFFFFFF AND DUP2 PUSH20 0xFFFFFFFFFFFFFFFFFFFFFFFFFFFFFFFFFFFFFFFF AND PUSH32 0x8BE0079C531659141344CD1FD0A4F28419497F9722A3DAAFE3B4186F6B6457E0 PUSH1 0x40 MLOAD PUSH1 0x40 MLOAD DUP1 SWAP2 SUB SWAP1 LOG3 POP POP JUMP JUMPDEST PUSH0 CALLER SWAP1 POP SWAP1 JUMP JUMPDEST PUSH1 0x40 MLOAD DUP1 PUSH1 0xA0 ADD PUSH1 0x40 MSTORE DUP1 PUSH0 DUP2 MSTORE PUSH1 0x20 ADD PUSH0 PUSH20 0xFFFFFFFFFFFFFFFFFFFFFFFFFFFFFFFFFFFFFFFF AND DUP2 MSTORE PUSH1 0x20 ADD PUSH1 0x60 DUP2 MSTORE PUSH1 0x20 ADD PUSH0 DUP2 MSTORE PUSH1 0x20 ADD PUSH0 ISZERO ISZERO DUP2 MSTORE POP SWAP1 JUMP JUMPDEST PUSH1 0x40 MLOAD DUP1 PUSH1 0xE0 ADD PUSH1 0x40 MSTORE DUP1 PUSH0 DUP2 MSTORE PUSH1 0x20 ADD PUSH0 DUP2 MSTORE PUSH1 0x20 ADD PUSH0 PUSH20 0xFFFFFFFFFFFFFFFFFFFFFFFFFFFFFFFFFFFFFFFF AND DUP2 MSTORE PUSH1 0x20 ADD PUSH0 DUP2 MSTORE PUSH1 0x20 ADD PUSH0 DUP2 MSTORE PUSH1 0x20 ADD PUSH0 DUP2 MSTORE PUSH1 0x20 ADD PUSH0 ISZERO ISZERO DUP2 MSTORE POP SWAP1 JUMP JUMPDEST PUSH0 PUSH0 REVERT JUMPDEST PUSH0 PUSH0 REVERT JUMPDEST PUSH0 DUP2 SWAP1 POP SWAP2 SWAP1 POP JUMP JUMPDEST PUSH2 0x1296 DUP2 PUSH2 0x1284 JUMP JUMPDEST DUP2 EQ PUSH2 0x12A0 JUMPI PUSH0 PUSH0 REVERT JUMPDEST POP JUMP JUMPDEST PUSH0 DUP2 CALLDATALOAD SWAP1 POP PUSH2 0x12B1 DUP2 PUSH2 0x128D JUMP JUMPDEST SWAP3 SWAP2 POP POP JUMP JUMPDEST PUSH0 PUSH0 PUSH1 0x40 DUP4 DUP6 SUB SLT ISZERO PUSH2 0x12CD JUMPI PUSH2 0x12CC PUSH2 0x127C JUMP JUMPDEST JUMPDEST PUSH0 PUSH2 0x12DA DUP6 DUP3 DUP7 ADD PUSH2 0x12A3 JUMP JUMPDEST SWAP3 POP POP PUSH1 0x20 PUSH2 0x12EB DUP6 DUP3 DUP7 ADD PUSH2 0x12A3 JUMP JUMPDEST SWAP2 POP POP SWAP3 POP SWAP3 SWAP1 POP JUMP JUMPDEST PUSH0 PUSH1 0x20 DUP3 DUP5 SUB SLT ISZERO PUSH2 0x130A JUMPI PUSH2 0x1309 PUSH2 0x127C JUMP JUMPDEST JUMPDEST PUSH0 PUSH2 0x1317 DUP5 DUP3 DUP6 ADD PUSH2 0x12A3 JUMP JUMPDEST SWAP2 POP POP SWAP3 SWAP2 POP POP JUMP JUMPDEST PUSH2 0x1329 DUP2 PUSH2 0x1284 JUMP JUMPDEST DUP3 MSTORE POP POP JUMP JUMPDEST PUSH0 PUSH20 0xFFFFFFFFFFFFFFFFFFFFFFFFFFFFFFFFFFFFFFFF DUP3 AND SWAP1 POP SWAP2 SWAP1 POP JUMP JUMPDEST PUSH0 PUSH2 0x1358 DUP3 PUSH2 0x132F JUMP JUMPDEST SWAP1 POP SWAP2 SWAP1 POP JUMP JUMPDEST PUSH2 0x1368 DUP2 PUSH2 0x134E JUMP JUMPDEST DUP3 MSTORE POP POP JUMP JUMPDEST PUSH0 DUP2 MLOAD SWAP1 POP SWAP2 SWAP1 POP JUMP JUMPDEST PUSH0 DUP3 DUP3 MSTORE PUSH1 0x20 DUP3 ADD SWAP1 POP SWAP3 SWAP2 POP POP JUMP JUMPDEST DUP3 DUP2 DUP4 MCOPY PUSH0 DUP4 DUP4 ADD MSTORE POP POP POP JUMP JUMPDEST PUSH0 PUSH1 0x1F NOT PUSH1 0x1F DUP4 ADD AND SWAP1 POP SWAP2 SWAP1 POP JUMP JUMPDEST PUSH0 PUSH2 0x13B0 DUP3 PUSH2 0x136E JUMP JUMPDEST PUSH2 0x13BA DUP2 DUP6 PUSH2 0x1378 JUMP JUMPDEST SWAP4 POP PUSH2 0x13CA DUP2 DUP6 PUSH1 0x20 DUP7 ADD PUSH2 0x1388 JUMP JUMPDEST PUSH2 0x13D3 DUP2 PUSH2 0x1396 JUMP JUMPDEST DUP5 ADD SWAP2 POP POP SWAP3 SWAP2 POP POP JUMP JUMPDEST PUSH0 DUP2 ISZERO ISZERO SWAP1 POP SWAP2 SWAP1 POP JUMP JUMPDEST PUSH2 0x13F2 DUP2 PUSH2 0x13DE JUMP JUMPDEST DUP3 MSTORE POP POP JUMP JUMPDEST PUSH0 PUSH1 0xA0 DUP3 ADD SWAP1 POP PUSH2 0x140B PUSH0 DUP4 ADD DUP9 PUSH2 0x1320 JUMP JUMPDEST PUSH2 0x1418 PUSH1 0x20 DUP4 ADD DUP8 PUSH2 0x135F JUMP JUMPDEST DUP2 DUP2 SUB PUSH1 0x40 DUP4 ADD MSTORE PUSH2 0x142A DUP2 DUP7 PUSH2 0x13A6 JUMP JUMPDEST SWAP1 POP PUSH2 0x1439 PUSH1 0x60 DUP4 ADD DUP6 PUSH2 0x1320 JUMP JUMPDEST PUSH2 0x1446 PUSH1 0x80 DUP4 ADD DUP5 PUSH2 0x13E9 JUMP JUMPDEST SWAP7 SWAP6 POP POP POP POP POP POP JUMP JUMPDEST PUSH2 0x1459 DUP2 PUSH2 0x1284 JUMP JUMPDEST DUP3 MSTORE POP POP JUMP JUMPDEST PUSH2 0x1468 DUP2 PUSH2 0x134E JUMP JUMPDEST DUP3 MSTORE POP POP JUMP JUMPDEST PUSH0 DUP3 DUP3 MSTORE PUSH1 0x20 DUP3 ADD SWAP1 POP SWAP3 SWAP2 POP POP JUMP JUMPDEST PUSH0 PUSH2 0x1488 DUP3 PUSH2 0x136E JUMP JUMPDEST PUSH2 0x1492 DUP2 DUP6 PUSH2 0x146E JUMP JUMPDEST SWAP4 POP PUSH2 0x14A2 DUP2 DUP6 PUSH1 0x20 DUP7 ADD PUSH2 0x1388 JUMP JUMPDEST PUSH2 0x14AB DUP2 PUSH2 0x1396 JUMP JUMPDEST DUP5 ADD SWAP2 POP POP SWAP3 SWAP2 POP POP JUMP JUMPDEST PUSH2 0x14BF DUP2 PUSH2 0x13DE JUMP JUMPDEST DUP3 MSTORE POP POP JUMP JUMPDEST PUSH0 PUSH1 0xA0 DUP4 ADD PUSH0 DUP4 ADD MLOAD PUSH2 0x14DA PUSH0 DUP7 ADD DUP3 PUSH2 0x1450 JUMP JUMPDEST POP PUSH1 0x20 DUP4 ADD MLOAD PUSH2 0x14ED PUSH1 0x20 DUP7 ADD DUP3 PUSH2 0x145F JUMP JUMPDEST POP PUSH1 0x40 DUP4 ADD MLOAD DUP5 DUP3 SUB PUSH1 0x40 DUP7 ADD MSTORE PUSH2 0x1505 DUP3 DUP3 PUSH2 0x147E JUMP JUMPDEST SWAP2 POP POP PUSH1 0x60 DUP4 ADD MLOAD PUSH2 0x151A PUSH1 0x60 DUP7 ADD DUP3 PUSH2 0x1450 JUMP JUMPDEST POP PUSH1 0x80 DUP4 ADD MLOAD PUSH2 0x152D PUSH1 0x80 DUP7 ADD DUP3 PUSH2 0x14B6 JUMP JUMPDEST POP DUP1 SWAP2 POP POP SWAP3 SWAP2 POP POP JUMP JUMPDEST PUSH0 PUSH1 0x20 DUP3 ADD SWAP1 POP DUP2 DUP2 SUB PUSH0 DUP4 ADD MSTORE PUSH2 0x1550 DUP2 DUP5 PUSH2 0x14C5 JUMP JUMPDEST SWAP1 POP SWAP3 SWAP2 POP POP JUMP JUMPDEST PUSH1 0xE0 DUP3 ADD PUSH0 DUP3 ADD MLOAD PUSH2 0x156C PUSH0 DUP6 ADD DUP3 PUSH2 0x1450 JUMP JUMPDEST POP PUSH1 0x20 DUP3 ADD MLOAD PUSH2 0x157F PUSH1 0x20 DUP6 ADD DUP3 PUSH2 0x1450 JUMP JUMPDEST POP PUSH1 0x40 DUP3 ADD MLOAD PUSH2 0x1592 PUSH1 0x40 DUP6 ADD DUP3 PUSH2 0x145F JUMP JUMPDEST POP PUSH1 0x60 DUP3 ADD MLOAD PUSH2 0x15A5 PUSH1 0x60 DUP6 ADD DUP3 PUSH2 0x1450 JUMP JUMPDEST POP PUSH1 0x80 DUP3 ADD MLOAD PUSH2 0x15B8 PUSH1 0x80 DUP6 ADD DUP3 PUSH2 0x1450 JUMP JUMPDEST POP PUSH1 0xA0 DUP3 ADD MLOAD PUSH2 0x15CB PUSH1 0xA0 DUP6 ADD DUP3 PUSH2 0x1450 JUMP JUMPDEST POP PUSH1 0xC0 DUP3 ADD MLOAD PUSH2 0x15DE PUSH1 0xC0 DUP6 ADD DUP3 PUSH2 0x14B6 JUMP JUMPDEST POP POP POP POP JUMP JUMPDEST PUSH0 PUSH1 0xE0 DUP3 ADD SWAP1 POP PUSH2 0x15F7 PUSH0 DUP4 ADD DUP5 PUSH2 0x1558 JUMP JUMPDEST SWAP3 SWAP2 POP POP JUMP JUMPDEST PUSH0 PUSH0 REVERT JUMPDEST PUSH0 PUSH0 REVERT JUMPDEST PUSH0 PUSH0 REVERT JUMPDEST PUSH0 PUSH0 DUP4 PUSH1 0x1F DUP5 ADD SLT PUSH2 0x161E JUMPI PUSH2 0x161D PUSH2 0x15FD JUMP JUMPDEST JUMPDEST DUP3 CALLDATALOAD SWAP1 POP PUSH8 0xFFFFFFFFFFFFFFFF DUP2 GT ISZERO PUSH2 0x163B JUMPI PUSH2 0x163A PUSH2 0x1601 JUMP JUMPDEST JUMPDEST PUSH1 0x20 DUP4 ADD SWAP2 POP DUP4 PUSH1 0x1 DUP3 MUL DUP4 ADD GT ISZERO PUSH2 0x1657 JUMPI PUSH2 0x1656 PUSH2 0x1605 JUMP JUMPDEST JUMPDEST SWAP3 POP SWAP3 SWAP1 POP JUMP JUMPDEST PUSH0 PUSH0 PUSH0 PUSH1 0x40 DUP5 DUP7 SUB SLT ISZERO PUSH2 0x1675 JUMPI PUSH2 0x1674 PUSH2 0x127C JUMP JUMPDEST JUMPDEST PUSH0 DUP5 ADD CALLDATALOAD PUSH8 0xFFFFFFFFFFFFFFFF DUP2 GT ISZERO PUSH2 0x1692 JUMPI PUSH2 0x1691 PUSH2 0x1280 JUMP JUMPDEST JUMPDEST PUSH2 0x169E DUP7 DUP3 DUP8 ADD PUSH2 0x1609 JUMP JUMPDEST SWAP4 POP SWAP4 POP POP PUSH1 0x20 PUSH2 0x16B1 DUP7 DUP3 DUP8 ADD PUSH2 0x12A3 JUMP JUMPDEST SWAP2 POP POP SWAP3 POP SWAP3 POP SWAP3 JUMP JUMPDEST PUSH2 0x16C4 DUP2 PUSH2 0x134E JUMP JUMPDEST DUP2 EQ PUSH2 0x16CE JUMPI PUSH0 PUSH0 REVERT JUMPDEST POP JUMP JUMPDEST PUSH0 DUP2 CALLDATALOAD SWAP1 POP PUSH2 0x16DF DUP2 PUSH2 0x16BB JUMP JUMPDEST SWAP3 SWAP2 POP POP JUMP JUMPDEST PUSH0 PUSH1 0x20 DUP3 DUP5 SUB SLT ISZERO PUSH2 0x16FA JUMPI PUSH2 0x16F9 PUSH2 0x127C JUMP JUMPDEST JUMPDEST PUSH0 PUSH2 0x1707 DUP5 DUP3 DUP6 ADD PUSH2 0x16D1 JUMP JUMPDEST SWAP2 POP POP SWAP3 SWAP2 POP POP JUMP JUMPDEST PUSH0 DUP2 MLOAD SWAP1 POP SWAP2 SWAP1 POP JUMP JUMPDEST PUSH0 DUP3 DUP3 MSTORE PUSH1 0x20 DUP3 ADD SWAP1 POP SWAP3 SWAP2 POP POP JUMP JUMPDEST PUSH0 DUP2 SWAP1 POP PUSH1 0x20 DUP3 ADD SWAP1 POP SWAP2 SWAP1 POP JUMP JUMPDEST PUSH0 PUSH2 0x1744 DUP4 DUP4 PUSH2 0x1450 JUMP JUMPDEST PUSH1 0x20 DUP4 ADD SWAP1 POP SWAP3 SWAP2 POP POP JUMP JUMPDEST PUSH0 PUSH1 0x20 DUP3 ADD SWAP1 POP SWAP2 SWAP1 POP JUMP JUMPDEST PUSH0 PUSH2 0x1766 DUP3 PUSH2 0x1710 JUMP JUMPDEST PUSH2 0x1770 DUP2 DUP6 PUSH2 0x171A JUMP JUMPDEST SWAP4 POP PUSH2 0x177B DUP4 PUSH2 0x172A JUMP JUMPDEST DUP1 PUSH0 JUMPDEST DUP4 DUP2 LT ISZERO PUSH2 0x17AB JUMPI DUP2 MLOAD PUSH2 0x1792 DUP9 DUP3 PUSH2 0x1739 JUMP JUMPDEST SWAP8 POP PUSH2 0x179D DUP4 PUSH2 0x1750 JUMP JUMPDEST SWAP3 POP POP PUSH1 0x1 DUP2 ADD SWAP1 POP PUSH2 0x177E JUMP JUMPDEST POP DUP6 SWAP4 POP POP POP POP SWAP3 SWAP2 POP POP JUMP JUMPDEST PUSH0 PUSH1 0x20 DUP3 ADD SWAP1 POP DUP2 DUP2 SUB PUSH0 DUP4 ADD MSTORE PUSH2 0x17D0 DUP2 DUP5 PUSH2 0x175C JUMP JUMPDEST SWAP1 POP SWAP3 SWAP2 POP POP JUMP JUMPDEST PUSH0 PUSH0 PUSH1 0x40 DUP4 DUP6 SUB SLT ISZERO PUSH2 0x17EE JUMPI PUSH2 0x17ED PUSH2 0x127C JUMP JUMPDEST JUMPDEST PUSH0 PUSH2 0x17FB DUP6 DUP3 DUP7 ADD PUSH2 0x16D1 JUMP JUMPDEST SWAP3 POP POP PUSH1 0x20 PUSH2 0x180C DUP6 DUP3 DUP7 ADD PUSH2 0x12A3 JUMP JUMPDEST SWAP2 POP POP SWAP3 POP SWAP3 SWAP1 POP JUMP JUMPDEST PUSH0 PUSH1 0x20 DUP3 ADD SWAP1 POP PUSH2 0x1829 PUSH0 DUP4 ADD DUP5 PUSH2 0x1320 JUMP JUMPDEST SWAP3 SWAP2 POP POP JUMP JUMPDEST PUSH0 PUSH1 0x20 DUP3 ADD SWAP1 POP PUSH2 0x1842 PUSH0 DUP4 ADD DUP5 PUSH2 0x135F JUMP JUMPDEST SWAP3 SWAP2 POP POP JUMP JUMPDEST PUSH0 PUSH1 0xE0 DUP3 ADD SWAP1 POP PUSH2 0x185B PUSH0 DUP4 ADD DUP11 PUSH2 0x1320 JUMP JUMPDEST PUSH2 0x1868 PUSH1 0x20 DUP4 ADD DUP10 PUSH2 0x1320 JUMP JUMPDEST PUSH2 0x1875 PUSH1 0x40 DUP4 ADD DUP9 PUSH2 0x135F JUMP JUMPDEST PUSH2 0x1882 PUSH1 0x60 DUP4 ADD DUP8 PUSH2 0x1320 JUMP JUMPDEST PUSH2 0x188F PUSH1 0x80 DUP4 ADD DUP7 PUSH2 0x1320 JUMP JUMPDEST PUSH2 0x189C PUSH1 0xA0 DUP4 ADD DUP6 PUSH2 0x1320 JUMP JUMPDEST PUSH2 0x18A9 PUSH1 0xC0 DUP4 ADD DUP5 PUSH2 0x13E9 JUMP JUMPDEST SWAP9 SWAP8 POP POP POP POP POP POP POP POP JUMP JUMPDEST PUSH32 0x475055206E6F7420617661696C61626C65000000000000000000000000000000 PUSH0 DUP3 ADD MSTORE POP JUMP JUMPDEST PUSH0 PUSH2 0x18E9 PUSH1 0x11 DUP4 PUSH2 0x1378 JUMP JUMPDEST SWAP2 POP PUSH2 0x18F4 DUP3 PUSH2 0x18B5 JUMP JUMPDEST PUSH1 0x20 DUP3 ADD SWAP1 POP SWAP2 SWAP1 POP JUMP JUMPDEST PUSH0 PUSH1 0x20 DUP3 ADD SWAP1 POP DUP2 DUP2 SUB PUSH0 DUP4 ADD MSTORE PUSH2 0x1916 DUP2 PUSH2 0x18DD JUMP JUMPDEST SWAP1 POP SWAP2 SWAP1 POP JUMP JUMPDEST PUSH32 0x52656E74206475726174696F6E20726571756972656400000000000000000000 PUSH0 DUP3 ADD MSTORE POP JUMP JUMPDEST PUSH0 PUSH2 0x1951 PUSH1 0x16 DUP4 PUSH2 0x1378 JUMP JUMPDEST SWAP2 POP PUSH2 0x195C DUP3 PUSH2 0x191D JUMP JUMPDEST PUSH1 0x20 DUP3 ADD SWAP1 POP SWAP2 SWAP1 POP JUMP JUMPDEST PUSH0 PUSH1 0x20 DUP3 ADD SWAP1 POP DUP2 DUP2 SUB PUSH0 DUP4 ADD MSTORE PUSH2 0x197E DUP2 PUSH2 0x1945 JUMP JUMPDEST SWAP1 POP SWAP2 SWAP1 POP JUMP JUMPDEST PUSH32 0x4E487B7100000000000000000000000000000000000000000000000000000000 PUSH0 MSTORE PUSH1 0x11 PUSH1 0x4 MSTORE PUSH1 0x24 PUSH0 REVERT JUMPDEST PUSH0 PUSH2 0x19BC DUP3 PUSH2 0x1284 JUMP JUMPDEST SWAP2 POP PUSH2 0x19C7 DUP4 PUSH2 0x1284 JUMP JUMPDEST SWAP3 POP DUP3 DUP3 MUL PUSH2 0x19D5 DUP2 PUSH2 0x1284 JUMP JUMPDEST SWAP2 POP DUP3 DUP3 DIV DUP5 EQ DUP4 ISZERO OR PUSH2 0x19EC JUMPI PUSH2 0x19EB PUSH2 0x1985 JUMP JUMPDEST JUMPDEST POP SWAP3 SWAP2 POP POP JUMP JUMPDEST PUSH32 0x496E73756666696369656E74207061796D656E74000000000000000000000000 PUSH0 DUP3 ADD MSTORE POP JUMP JUMPDEST PUSH0 PUSH2 0x1A27 PUSH1 0x14 DUP4 PUSH2 0x1378 JUMP JUMPDEST SWAP2 POP PUSH2 0x1A32 DUP3 PUSH2 0x19F3 JUMP JUMPDEST PUSH1 0x20 DUP3 ADD SWAP1 POP SWAP2 SWAP1 POP JUMP JUMPDEST PUSH0 PUSH1 0x20 DUP3 ADD SWAP1 POP DUP2 DUP2 SUB PUSH0 DUP4 ADD MSTORE PUSH2 0x1A54 DUP2 PUSH2 0x1A1B JUMP JUMPDEST SWAP1 POP SWAP2 SWAP1 POP JUMP JUMPDEST PUSH0 PUSH2 0x1A65 DUP3 PUSH2 0x1284 JUMP JUMPDEST SWAP2 POP PUSH32 0xFFFFFFFFFFFFFFFFFFFFFFFFFFFFFFFFFFFFFFFFFFFFFFFFFFFFFFFFFFFFFFFF DUP3 SUB PUSH2 0x1A97 JUMPI PUSH2 0x1A96 PUSH2 0x1985 JUMP JUMPDEST JUMPDEST PUSH1 0x1 DUP3 ADD SWAP1 POP SWAP2 SWAP1 POP JUMP JUMPDEST PUSH0 PUSH2 0x1AAC DUP3 PUSH2 0x1284 JUMP JUMPDEST SWAP2 POP PUSH2 0x1AB7 DUP4 PUSH2 0x1284 JUMP JUMPDEST SWAP3 POP DUP3 DUP3 ADD SWAP1 POP DUP1 DUP3 GT ISZERO PUSH2 0x1ACF JUMPI PUSH2 0x1ACE PUSH2 0x1985 JUMP JUMPDEST JUMPDEST SWAP3 SWAP2 POP POP JUMP JUMPDEST PUSH0 DUP2 SWAP1 POP SWAP3 SWAP2 POP POP JUMP JUMPDEST POP JUMP JUMPDEST PUSH0 PUSH2 0x1AED PUSH0 DUP4 PUSH2 0x1AD5 JUMP JUMPDEST SWAP2 POP PUSH2 0x1AF8 DUP3 PUSH2 0x1ADF JUMP JUMPDEST PUSH0 DUP3 ADD SWAP1 POP SWAP2 SWAP1 POP JUMP JUMPDEST PUSH0 PUSH2 0x1B0C DUP3 PUSH2 0x1AE2 JUMP JUMPDEST SWAP2 POP DUP2 SWAP1 POP SWAP2 SWAP1 POP JUMP JUMPDEST PUSH32 0x5061796D656E74206661696C6564000000000000000000000000000000000000 PUSH0 DUP3 ADD MSTORE POP JUMP JUMPDEST PUSH0 PUSH2 0x1B4A PUSH1 0xE DUP4 PUSH2 0x1378 JUMP JUMPDEST SWAP2 POP PUSH2 0x1B55 DUP3 PUSH2 0x1B16 JUMP JUMPDEST PUSH1 0x20 DUP3 ADD SWAP1 POP SWAP2 SWAP1 POP JUMP JUMPDEST PUSH0 PUSH1 0x20 DUP3 ADD SWAP1 POP DUP2 DUP2 SUB PUSH0 DUP4 ADD MSTORE PUSH2 0x1B77 DUP2 PUSH2 0x1B3E JUMP JUMPDEST SWAP1 POP SWAP2 SWAP1 POP JUMP JUMPDEST PUSH0 PUSH2 0x1B88 DUP3 PUSH2 0x1284 JUMP JUMPDEST SWAP2 POP PUSH2 0x1B93 DUP4 PUSH2 0x1284 JUMP JUMPDEST SWAP3 POP DUP3 DUP3 SUB SWAP1 POP DUP2 DUP2 GT ISZERO PUSH2 0x1BAB JUMPI PUSH2 0x1BAA PUSH2 0x1985 JUMP JUMPDEST JUMPDEST SWAP3 SWAP2 POP POP JUMP JUMPDEST PUSH32 0x526566756E64206661696C656400000000000000000000000000000000000000 PUSH0 DUP3 ADD MSTORE POP JUMP JUMPDEST PUSH0 PUSH2 0x1BE5 PUSH1 0xD DUP4 PUSH2 0x1378 JUMP JUMPDEST SWAP2 POP PUSH2 0x1BF0 DUP3 PUSH2 0x1BB1 JUMP JUMPDEST PUSH1 0x20 DUP3 ADD SWAP1 POP SWAP2 SWAP1 POP JUMP JUMPDEST PUSH0 PUSH1 0x20 DUP3 ADD SWAP1 POP DUP2 DUP2 SUB PUSH0 DUP4 ADD MSTORE PUSH2 0x1C12 DUP2 PUSH2 0x1BD9 JUMP JUMPDEST SWAP1 POP SWAP2 SWAP1 POP JUMP JUMPDEST PUSH32 0x4E487B7100000000000000000000000000000000000000000000000000000000 PUSH0 MSTORE PUSH1 0x22 PUSH1 0x4 MSTORE PUSH1 0x24 PUSH0 REVERT JUMPDEST PUSH0 PUSH1 0x2 DUP3 DIV SWAP1 POP PUSH1 0x1 DUP3 AND DUP1 PUSH2 0x1C5D JUMPI PUSH1 0x7F DUP3 AND SWAP2 POP JUMPDEST PUSH1 0x20 DUP3 LT DUP2 SUB PUSH2 0x1C70 JUMPI PUSH2 0x1C6F PUSH2 0x1C19 JUMP JUMPDEST JUMPDEST POP SWAP2 SWAP1 POP JUMP JUMPDEST PUSH32 0x4750552073706563732072657175697265640000000000000000000000000000 PUSH0 DUP3 ADD MSTORE POP JUMP JUMPDEST PUSH0 PUSH2 0x1CAA PUSH1 0x12 DUP4 PUSH2 0x1378 JUMP JUMPDEST SWAP2 POP PUSH2 0x1CB5 DUP3 PUSH2 0x1C76 JUMP JUMPDEST PUSH1 0x20 DUP3 ADD SWAP1 POP SWAP2 SWAP1 POP JUMP JUMPDEST PUSH0 PUSH1 0x20 DUP3 ADD SWAP1 POP DUP2 DUP2 SUB PUSH0 DUP4 ADD MSTORE PUSH2 0x1CD7 DUP2 PUSH2 0x1C9E JUMP JUMPDEST SWAP1 POP SWAP2 SWAP1 POP JUMP JUMPDEST PUSH32 0x486F75726C792072617465206D7573742062652067726561746572207468616E PUSH0 DUP3 ADD MSTORE PUSH32 0x2030000000000000000000000000000000000000000000000000000000000000 PUSH1 0x20 DUP3 ADD MSTORE POP JUMP JUMPDEST PUSH0 PUSH2 0x1D38 PUSH1 0x22 DUP4 PUSH2 0x1378 JUMP JUMPDEST SWAP2 POP PUSH2 0x1D43 DUP3 PUSH2 0x1CDE JUMP JUMPDEST PUSH1 0x40 DUP3 ADD SWAP1 POP SWAP2 SWAP1 POP JUMP JUMPDEST PUSH0 PUSH1 0x20 DUP3 ADD SWAP1 POP DUP2 DUP2 SUB PUSH0 DUP4 ADD MSTORE PUSH2 0x1D65 DUP2 PUSH2 0x1D2C JUMP JUMPDEST SWAP1 POP SWAP2 SWAP1 POP JUMP JUMPDEST PUSH32 0x4E487B7100000000000000000000000000000000000000000000000000000000 PUSH0 MSTORE PUSH1 0x41 PUSH1 0x4 MSTORE PUSH1 0x24 PUSH0 REVERT JUMPDEST PUSH0 DUP2 SWAP1 POP DUP2 PUSH0 MSTORE PUSH1 0x20 PUSH0 KECCAK256 SWAP1 POP SWAP2 SWAP1 POP JUMP JUMPDEST PUSH0 PUSH1 0x20 PUSH1 0x1F DUP4 ADD DIV SWAP1 POP SWAP2 SWAP1 POP JUMP JUMPDEST PUSH0 DUP3 DUP3 SHL SWAP1 POP SWAP3 SWAP2 POP POP JUMP JUMPDEST PUSH0 PUSH1 0x8 DUP4 MUL PUSH2 0x1DF5 PUSH32 0xFFFFFFFFFFFFFFFFFFFFFFFFFFFFFFFFFFFFFFFFFFFFFFFFFFFFFFFFFFFFFFFF DUP3 PUSH2 0x1DBA JUMP JUMPDEST PUSH2 0x1DFF DUP7 DUP4 PUSH2 0x1DBA JUMP JUMPDEST SWAP6 POP DUP1 NOT DUP5 AND SWAP4 POP DUP1 DUP7 AND DUP5 OR SWAP3 POP POP POP SWAP4 SWAP3 POP POP POP JUMP JUMPDEST PUSH0 DUP2 SWAP1 POP SWAP2 SWAP1 POP JUMP JUMPDEST PUSH0 PUSH2 0x1E3A PUSH2 0x1E35 PUSH2 0x1E30 DUP5 PUSH2 0x1284 JUMP JUMPDEST PUSH2 0x1E17 JUMP JUMPDEST PUSH2 0x1284 JUMP JUMPDEST SWAP1 POP SWAP2 SWAP1 POP JUMP JUMPDEST PUSH0 DUP2 SWAP1 POP SWAP2 SWAP1 POP JUMP JUMPDEST PUSH2 0x1E53 DUP4 PUSH2 0x1E20 JUMP JUMPDEST PUSH2 0x1E67 PUSH2 0x1E5F DUP3 PUSH2 0x1E41 JUMP JUMPDEST DUP5 DUP5 SLOAD PUSH2 0x1DC6 JUMP JUMPDEST DUP3 SSTORE POP POP POP POP JUMP JUMPDEST PUSH0 PUSH0 SWAP1 POP SWAP1 JUMP JUMPDEST PUSH2 0x1E7E PUSH2 0x1E6F JUMP JUMPDEST PUSH2 0x1E89 DUP2 DUP5 DUP5 PUSH2 0x1E4A JUMP JUMPDEST POP POP POP JUMP JUMPDEST JUMPDEST DUP2 DUP2 LT ISZERO PUSH2 0x1EAC JUMPI PUSH2 0x1EA1 PUSH0 DUP3 PUSH2 0x1E76 JUMP JUMPDEST PUSH1 0x1 DUP2 ADD SWAP1 POP PUSH2 0x1E8F JUMP JUMPDEST POP POP JUMP JUMPDEST PUSH1 0x1F DUP3 GT ISZERO PUSH2 0x1EF1 JUMPI PUSH2 0x1EC2 DUP2 PUSH2 0x1D99 JUMP JUMPDEST PUSH2 0x1ECB DUP5 PUSH2 0x1DAB JUMP JUMPDEST DUP2 ADD PUSH1 0x20 DUP6 LT ISZERO PUSH2 0x1EDA JUMPI DUP2 SWAP1 POP JUMPDEST PUSH2 0x1EEE PUSH2 0x1EE6 DUP6 PUSH2 0x1DAB JUMP JUMPDEST DUP4 ADD DUP3 PUSH2 0x1E8E JUMP JUMPDEST POP POP JUMPDEST POP POP POP JUMP JUMPDEST PUSH0 DUP3 DUP3 SHR SWAP1 POP SWAP3 SWAP2 POP POP JUMP JUMPDEST PUSH0 PUSH2 0x1F11 PUSH0 NOT DUP5 PUSH1 0x8 MUL PUSH2 0x1EF6 JUMP JUMPDEST NOT DUP1 DUP4 AND SWAP2 POP POP SWAP3 SWAP2 POP POP JUMP JUMPDEST PUSH0 PUSH2 0x1F29 DUP4 DUP4 PUSH2 0x1F02 JUMP JUMPDEST SWAP2 POP DUP3 PUSH1 0x2 MUL DUP3 OR SWAP1 POP SWAP3 SWAP2 POP POP JUMP JUMPDEST PUSH2 0x1F42 DUP3 PUSH2 0x136E JUMP JUMPDEST PUSH8 0xFFFFFFFFFFFFFFFF DUP2 GT ISZERO PUSH2 0x1F5B JUMPI PUSH2 0x1F5A PUSH2 0x1D6C JUMP JUMPDEST JUMPDEST PUSH2 0x1F65 DUP3 SLOAD PUSH2 0x1C46 JUMP JUMPDEST PUSH2 0x1F70 DUP3 DUP3 DUP6 PUSH2 0x1EB0 JUMP JUMPDEST PUSH0 PUSH1 0x20 SWAP1 POP PUSH1 0x1F DUP4 GT PUSH1 0x1 DUP2 EQ PUSH2 0x1FA1 JUMPI PUSH0 DUP5 ISZERO PUSH2 0x1F8F JUMPI DUP3 DUP8 ADD MLOAD SWAP1 POP JUMPDEST PUSH2 0x1F99 DUP6 DUP3 PUSH2 0x1F1E JUMP JUMPDEST DUP7 SSTORE POP PUSH2 0x2000 JUMP JUMPDEST PUSH1 0x1F NOT DUP5 AND PUSH2 0x1FAF DUP7 PUSH2 0x1D99 JUMP JUMPDEST PUSH0 JUMPDEST DUP3 DUP2 LT ISZERO PUSH2 0x1FD6 JUMPI DUP5 DUP10 ADD MLOAD DUP3 SSTORE PUSH1 0x1 DUP3 ADD SWAP2 POP PUSH1 0x20 DUP6 ADD SWAP5 POP PUSH1 0x20 DUP2 ADD SWAP1 POP PUSH2 0x1FB1 JUMP JUMPDEST DUP7 DUP4 LT ISZERO PUSH2 0x1FF3 JUMPI DUP5 DUP10 ADD MLOAD PUSH2 0x1FEF PUSH1 0x1F DUP10 AND DUP3 PUSH2 0x1F02 JUMP JUMPDEST DUP4 SSTORE POP JUMPDEST PUSH1 0x1 PUSH1 0x2 DUP9 MUL ADD DUP9 SSTORE POP POP POP JUMPDEST POP POP POP POP POP POP JUMP JUMPDEST PUSH32 0x52656E74616C20616C726561647920656E646564000000000000000000000000 PUSH0 DUP3 ADD MSTORE POP JUMP JUMPDEST PUSH0 PUSH2 0x203C PUSH1 0x14 DUP4 PUSH2 0x1378 JUMP JUMPDEST SWAP2 POP PUSH2 0x2047 DUP3 PUSH2 0x2008 JUMP JUMPDEST PUSH1 0x20 DUP3 ADD SWAP1 POP SWAP2 SWAP1 POP JUMP JUMPDEST PUSH0 PUSH1 0x20 DUP3 ADD SWAP1 POP DUP2 DUP2 SUB PUSH0 DUP4 ADD MSTORE PUSH2 0x2069 DUP2 PUSH2 0x2030 JUMP JUMPDEST SWAP1 POP SWAP2 SWAP1 POP JUMP JUMPDEST PUSH32 0x52656E74616C206F6E676F696E67206F7220756E617574686F72697A65640000 PUSH0 DUP3 ADD MSTORE POP JUMP JUMPDEST PUSH0 PUSH2 0x20A4 PUSH1 0x1E DUP4 PUSH2 0x1378 JUMP JUMPDEST SWAP2 POP PUSH2 0x20AF DUP3 PUSH2 0x2070 JUMP JUMPDEST PUSH1 0x20 DUP3 ADD SWAP1 POP SWAP2 SWAP1 POP JUMP JUMPDEST PUSH0 PUSH1 0x20 DUP3 ADD SWAP1 POP DUP2 DUP2 SUB PUSH0 DUP4 ADD MSTORE PUSH2 0x20D1 DUP2 PUSH2 0x2098 JUMP JUMPDEST SWAP1 POP SWAP2 SWAP1 POP JUMP JUMPDEST PUSH32 0x5265656E7472616E637947756172643A207265656E7472616E742063616C6C00 PUSH0 DUP3 ADD MSTORE POP JUMP JUMPDEST PUSH0 PUSH2 0x210C PUSH1 0x1F DUP4 PUSH2 0x1378 JUMP JUMPDEST SWAP2 POP PUSH2 0x2117 DUP3 PUSH2 0x20D8 JUMP JUMPDEST PUSH1 0x20 DUP3 ADD SWAP1 POP SWAP2 SWAP1 POP JUMP JUMPDEST PUSH0 PUSH1 0x20 DUP3 ADD SWAP1 POP DUP2 DUP2 SUB PUSH0 DUP4 ADD MSTORE PUSH2 0x2139 DUP2 PUSH2 0x2100 JUMP JUMPDEST SWAP1 POP SWAP2 SWAP1 POP JUMP INVALID LOG2 PUSH5 0x6970667358 0x22 SLT KECCAK256 GT 0xEB PUSH6 0xE6D6EF9D478C 0xB3 POP PUSH1 0x2E PUSH12 0x149E4C51009E2843F3F2BE 0xEB PUSH15 0x54EBE64264736F6C634300081D0033 "
				},
				"gasEstimates": {
					"creation": {
						"codeDepositCost": "1713200",
						"executionCost": "infinite",
						"totalCost": "infinite"
					},
					"external": {
						"endRental(uint256)": "infinite",
						"getGPU(uint256)": "infinite",
						"getGPUsByOwner(address)": "infinite",
						"getRental(uint256)": "infinite",
						"gpus(uint256)": "infinite",
						"owner()": "2558",
						"ownerGPUs(address,uint256)": "infinite",
						"registerGPU(string,uint256)": "infinite",
						"renounceOwnership()": "infinite",
						"rentGPU(uint256,uint256)": "infinite",
						"rentals(uint256)": "infinite",
						"transferOwnership(address)": "infinite"
					}
				},
				"methodIdentifiers": {
					"endRental(uint256)": "97491d6f",
					"getGPU(uint256)": "6389ed91",
					"getGPUsByOwner(address)": "82cb05e5",
					"getRental(uint256)": "652bd29e",
					"gpus(uint256)": "39b3667e",
					"owner()": "8da5cb5b",
					"ownerGPUs(address,uint256)": "8c3e13b4",
					"registerGPU(string,uint256)": "6e37b9a1",
					"renounceOwnership()": "715018a6",
					"rentGPU(uint256,uint256)": "0e64d5c7",
					"rentals(uint256)": "af94a1d1",
					"transferOwnership(address)": "f2fde38b"
				}
			},
			"storageLayout": {
				"storage": [
					{
						"astId": 8,
						"contract": "D/decentralizedGPU.sol:DecentralizedGPU",
						"label": "_owner",
						"offset": 0,
						"slot": "0",
						"type": "t_address"
					},
					{
						"astId": 158,
						"contract": "D/decentralizedGPU.sol:DecentralizedGPU",
						"label": "_status",
						"offset": 0,
						"slot": "1",
						"type": "t_uint256"
					},
					{
						"astId": 279,
						"contract": "D/decentralizedGPU.sol:DecentralizedGPU",
						"label": "nextGpuId",
						"offset": 0,
						"slot": "2",
						"type": "t_uint256"
					},
					{
						"astId": 281,
						"contract": "D/decentralizedGPU.sol:DecentralizedGPU",
						"label": "nextRentalId",
						"offset": 0,
						"slot": "3",
						"type": "t_uint256"
					},
					{
						"astId": 286,
						"contract": "D/decentralizedGPU.sol:DecentralizedGPU",
						"label": "gpus",
						"offset": 0,
						"slot": "4",
						"type": "t_mapping(t_uint256,t_struct(GPU)262_storage)"
					},
					{
						"astId": 291,
						"contract": "D/decentralizedGPU.sol:DecentralizedGPU",
						"label": "rentals",
						"offset": 0,
						"slot": "5",
						"type": "t_mapping(t_uint256,t_struct(Rental)277_storage)"
					},
					{
						"astId": 296,
						"contract": "D/decentralizedGPU.sol:DecentralizedGPU",
						"label": "ownerGPUs",
						"offset": 0,
						"slot": "6",
						"type": "t_mapping(t_address,t_array(t_uint256)dyn_storage)"
					}
				],
				"types": {
					"t_address": {
						"encoding": "inplace",
						"label": "address",
						"numberOfBytes": "20"
					},
					"t_array(t_uint256)dyn_storage": {
						"base": "t_uint256",
						"encoding": "dynamic_array",
						"label": "uint256[]",
						"numberOfBytes": "32"
					},
					"t_bool": {
						"encoding": "inplace",
						"label": "bool",
						"numberOfBytes": "1"
					},
					"t_mapping(t_address,t_array(t_uint256)dyn_storage)": {
						"encoding": "mapping",
						"key": "t_address",
						"label": "mapping(address => uint256[])",
						"numberOfBytes": "32",
						"value": "t_array(t_uint256)dyn_storage"
					},
					"t_mapping(t_uint256,t_struct(GPU)262_storage)": {
						"encoding": "mapping",
						"key": "t_uint256",
						"label": "mapping(uint256 => struct DecentralizedGPU.GPU)",
						"numberOfBytes": "32",
						"value": "t_struct(GPU)262_storage"
					},
					"t_mapping(t_uint256,t_struct(Rental)277_storage)": {
						"encoding": "mapping",
						"key": "t_uint256",
						"label": "mapping(uint256 => struct DecentralizedGPU.Rental)",
						"numberOfBytes": "32",
						"value": "t_struct(Rental)277_storage"
					},
					"t_string_storage": {
						"encoding": "bytes",
						"label": "string",
						"numberOfBytes": "32"
					},
					"t_struct(GPU)262_storage": {
						"encoding": "inplace",
						"label": "struct DecentralizedGPU.GPU",
						"members": [
							{
								"astId": 253,
								"contract": "D/decentralizedGPU.sol:DecentralizedGPU",
								"label": "gpuId",
								"offset": 0,
								"slot": "0",
								"type": "t_uint256"
							},
							{
								"astId": 255,
								"contract": "D/decentralizedGPU.sol:DecentralizedGPU",
								"label": "owner",
								"offset": 0,
								"slot": "1",
								"type": "t_address"
							},
							{
								"astId": 257,
								"contract": "D/decentralizedGPU.sol:DecentralizedGPU",
								"label": "gpuSpecs",
								"offset": 0,
								"slot": "2",
								"type": "t_string_storage"
							},
							{
								"astId": 259,
								"contract": "D/decentralizedGPU.sol:DecentralizedGPU",
								"label": "hourlyRateWei",
								"offset": 0,
								"slot": "3",
								"type": "t_uint256"
							},
							{
								"astId": 261,
								"contract": "D/decentralizedGPU.sol:DecentralizedGPU",
								"label": "available",
								"offset": 0,
								"slot": "4",
								"type": "t_bool"
							}
						],
						"numberOfBytes": "160"
					},
					"t_struct(Rental)277_storage": {
						"encoding": "inplace",
						"label": "struct DecentralizedGPU.Rental",
						"members": [
							{
								"astId": 264,
								"contract": "D/decentralizedGPU.sol:DecentralizedGPU",
								"label": "rentalId",
								"offset": 0,
								"slot": "0",
								"type": "t_uint256"
							},
							{
								"astId": 266,
								"contract": "D/decentralizedGPU.sol:DecentralizedGPU",
								"label": "gpuId",
								"offset": 0,
								"slot": "1",
								"type": "t_uint256"
							},
							{
								"astId": 268,
								"contract": "D/decentralizedGPU.sol:DecentralizedGPU",
								"label": "renter",
								"offset": 0,
								"slot": "2",
								"type": "t_address"
							},
							{
								"astId": 270,
								"contract": "D/decentralizedGPU.sol:DecentralizedGPU",
								"label": "startTime",
								"offset": 0,
								"slot": "3",
								"type": "t_uint256"
							},
							{
								"astId": 272,
								"contract": "D/decentralizedGPU.sol:DecentralizedGPU",
								"label": "endTime",
								"offset": 0,
								"slot": "4",
								"type": "t_uint256"
							},
							{
								"astId": 274,
								"contract": "D/decentralizedGPU.sol:DecentralizedGPU",
								"label": "totalPaid",
								"offset": 0,
								"slot": "5",
								"type": "t_uint256"
							},
							{
								"astId": 276,
								"contract": "D/decentralizedGPU.sol:DecentralizedGPU",
								"label": "active",
								"offset": 0,
								"slot": "6",
								"type": "t_bool"
							}
						],
						"numberOfBytes": "224"
					},
					"t_uint256": {
						"encoding": "inplace",
						"label": "uint256",
						"numberOfBytes": "32"
					}
				}
			},
			"userdoc": {
				"kind": "user",
				"methods": {
					"endRental(uint256)": {
						"notice": "End GPU rental and mark GPU as available again"
					},
					"getGPU(uint256)": {
						"notice": "Fetch GPU details"
					},
					"getGPUsByOwner(address)": {
						"notice": "Fetch GPUs registered by an owner"
					},
					"getRental(uint256)": {
						"notice": "Fetch Rental details"
					},
					"registerGPU(string,uint256)": {
						"notice": "Register GPU resources dynamically"
					},
					"rentGPU(uint256,uint256)": {
						"notice": "Rent an available GPU dynamically"
					}
				},
				"notice": "Enables decentralized GPU resource sharing and renting dynamically.",
				"version": 1
			}
		}
	}
}