{
	"D/delisting.sol": {
		"DelistingRegistry": {
			"abi": [
				{
					"inputs": [],
					"stateMutability": "nonpayable",
					"type": "constructor"
				},
				{
					"inputs": [
						{
							"internalType": "address",
							"name": "owner",
							"type": "address"
						}
					],
					"name": "OwnableInvalidOwner",
					"type": "error"
				},
				{
					"inputs": [
						{
							"internalType": "address",
							"name": "account",
							"type": "address"
						}
					],
					"name": "OwnableUnauthorizedAccount",
					"type": "error"
				},
				{
					"anonymous": false,
					"inputs": [
						{
							"indexed": true,
							"internalType": "uint256",
							"name": "assetId",
							"type": "uint256"
						},
						{
							"indexed": false,
							"internalType": "uint256",
							"name": "delistingDate",
							"type": "uint256"
						}
					],
					"name": "AssetDelisted",
					"type": "event"
				},
				{
					"anonymous": false,
					"inputs": [
						{
							"indexed": true,
							"internalType": "uint256",
							"name": "assetId",
							"type": "uint256"
						},
						{
							"indexed": false,
							"internalType": "string",
							"name": "name",
							"type": "string"
						},
						{
							"indexed": false,
							"internalType": "string",
							"name": "symbol",
							"type": "string"
						},
						{
							"indexed": false,
							"internalType": "uint256",
							"name": "listingDate",
							"type": "uint256"
						}
					],
					"name": "AssetListed",
					"type": "event"
				},
				{
					"anonymous": false,
					"inputs": [
						{
							"indexed": true,
							"internalType": "uint256",
							"name": "assetId",
							"type": "uint256"
						},
						{
							"indexed": false,
							"internalType": "string",
							"name": "name",
							"type": "string"
						},
						{
							"indexed": false,
							"internalType": "string",
							"name": "symbol",
							"type": "string"
						}
					],
					"name": "AssetUpdated",
					"type": "event"
				},
				{
					"anonymous": false,
					"inputs": [
						{
							"indexed": true,
							"internalType": "address",
							"name": "previousOwner",
							"type": "address"
						},
						{
							"indexed": true,
							"internalType": "address",
							"name": "newOwner",
							"type": "address"
						}
					],
					"name": "OwnershipTransferred",
					"type": "event"
				},
				{
					"inputs": [
						{
							"internalType": "uint256",
							"name": "",
							"type": "uint256"
						}
					],
					"name": "assets",
					"outputs": [
						{
							"internalType": "uint256",
							"name": "assetId",
							"type": "uint256"
						},
						{
							"internalType": "string",
							"name": "name",
							"type": "string"
						},
						{
							"internalType": "string",
							"name": "symbol",
							"type": "string"
						},
						{
							"internalType": "uint256",
							"name": "listingDate",
							"type": "uint256"
						},
						{
							"internalType": "bool",
							"name": "isListed",
							"type": "bool"
						}
					],
					"stateMutability": "view",
					"type": "function"
				},
				{
					"inputs": [
						{
							"internalType": "uint256",
							"name": "assetId",
							"type": "uint256"
						}
					],
					"name": "delistAsset",
					"outputs": [],
					"stateMutability": "nonpayable",
					"type": "function"
				},
				{
					"inputs": [],
					"name": "getActiveAssetIds",
					"outputs": [
						{
							"internalType": "uint256[]",
							"name": "",
							"type": "uint256[]"
						}
					],
					"stateMutability": "view",
					"type": "function"
				},
				{
					"inputs": [
						{
							"internalType": "uint256",
							"name": "assetId",
							"type": "uint256"
						}
					],
					"name": "getAsset",
					"outputs": [
						{
							"components": [
								{
									"internalType": "uint256",
									"name": "assetId",
									"type": "uint256"
								},
								{
									"internalType": "string",
									"name": "name",
									"type": "string"
								},
								{
									"internalType": "string",
									"name": "symbol",
									"type": "string"
								},
								{
									"internalType": "uint256",
									"name": "listingDate",
									"type": "uint256"
								},
								{
									"internalType": "bool",
									"name": "isListed",
									"type": "bool"
								}
							],
							"internalType": "struct DelistingRegistry.Asset",
							"name": "",
							"type": "tuple"
						}
					],
					"stateMutability": "view",
					"type": "function"
				},
				{
					"inputs": [
						{
							"internalType": "string",
							"name": "name",
							"type": "string"
						},
						{
							"internalType": "string",
							"name": "symbol",
							"type": "string"
						}
					],
					"name": "listAsset",
					"outputs": [
						{
							"internalType": "uint256",
							"name": "assetId",
							"type": "uint256"
						}
					],
					"stateMutability": "nonpayable",
					"type": "function"
				},
				{
					"inputs": [],
					"name": "nextAssetId",
					"outputs": [
						{
							"internalType": "uint256",
							"name": "",
							"type": "uint256"
						}
					],
					"stateMutability": "view",
					"type": "function"
				},
				{
					"inputs": [],
					"name": "owner",
					"outputs": [
						{
							"internalType": "address",
							"name": "",
							"type": "address"
						}
					],
					"stateMutability": "view",
					"type": "function"
				},
				{
					"inputs": [],
					"name": "renounceOwnership",
					"outputs": [],
					"stateMutability": "nonpayable",
					"type": "function"
				},
				{
					"inputs": [],
					"name": "totalAssets",
					"outputs": [
						{
							"internalType": "uint256",
							"name": "",
							"type": "uint256"
						}
					],
					"stateMutability": "view",
					"type": "function"
				},
				{
					"inputs": [
						{
							"internalType": "address",
							"name": "newOwner",
							"type": "address"
						}
					],
					"name": "transferOwnership",
					"outputs": [],
					"stateMutability": "nonpayable",
					"type": "function"
				},
				{
					"inputs": [
						{
							"internalType": "uint256",
							"name": "assetId",
							"type": "uint256"
						},
						{
							"internalType": "string",
							"name": "newName",
							"type": "string"
						},
						{
							"internalType": "string",
							"name": "newSymbol",
							"type": "string"
						}
					],
					"name": "updateAsset",
					"outputs": [],
					"stateMutability": "nonpayable",
					"type": "function"
				}
			],
			"devdoc": {
				"errors": {
					"OwnableInvalidOwner(address)": [
						{
							"details": "The owner is not a valid owner account. (eg. `address(0)`)"
						}
					],
					"OwnableUnauthorizedAccount(address)": [
						{
							"details": "The caller account is not authorized to perform an operation."
						}
					]
				},
				"kind": "dev",
				"methods": {
					"delistAsset(uint256)": {
						"params": {
							"assetId": "The asset's ID."
						}
					},
					"getActiveAssetIds()": {
						"returns": {
							"_0": "An array of active asset IDs."
						}
					},
					"getAsset(uint256)": {
						"params": {
							"assetId": "The asset's ID."
						},
						"returns": {
							"_0": "The Asset struct."
						}
					},
					"listAsset(string,string)": {
						"params": {
							"name": "The name of the asset.",
							"symbol": "The symbol of the asset."
						},
						"returns": {
							"assetId": "The unique ID assigned to the asset."
						}
					},
					"owner()": {
						"details": "Returns the address of the current owner."
					},
					"renounceOwnership()": {
						"details": "Leaves the contract without owner. It will not be possible to call `onlyOwner` functions. Can only be called by the current owner. NOTE: Renouncing ownership will leave the contract without an owner, thereby disabling any functionality that is only available to the owner."
					},
					"totalAssets()": {
						"returns": {
							"_0": "The total asset count."
						}
					},
					"transferOwnership(address)": {
						"details": "Transfers ownership of the contract to a new account (`newOwner`). Can only be called by the current owner."
					},
					"updateAsset(uint256,string,string)": {
						"params": {
							"assetId": "The asset's ID.",
							"newName": "The new name.",
							"newSymbol": "The new symbol."
						}
					}
				},
				"title": "DelistingRegistry",
				"version": 1
			},
			"evm": {
				"assembly": "    /* \"D/delisting.sol\":383:4300  contract DelistingRegistry is Ownable, ReentrancyGuard {... */\n  mstore(0x40, 0x80)\n    /* \"D/delisting.sol\":1049:1085  constructor() Ownable(msg.sender) {} */\n  callvalue\n  dup1\n  iszero\n  tag_1\n  jumpi\n  revert(0x00, 0x00)\ntag_1:\n  pop\n    /* \"D/delisting.sol\":1071:1081  msg.sender */\n  caller\n    /* \"@openzeppelin/contracts/access/Ownable.sol\":1297:1298  0 */\n  0x00\n    /* \"@openzeppelin/contracts/access/Ownable.sol\":1273:1299  initialOwner == address(0) */\n  0xffffffffffffffffffffffffffffffffffffffff\n  and\n    /* \"@openzeppelin/contracts/access/Ownable.sol\":1273:1285  initialOwner */\n  dup2\n    /* \"@openzeppelin/contracts/access/Ownable.sol\":1273:1299  initialOwner == address(0) */\n  0xffffffffffffffffffffffffffffffffffffffff\n  and\n  sub\n    /* \"@openzeppelin/contracts/access/Ownable.sol\":1269:1364  if (initialOwner == address(0)) {... */\n  tag_6\n  jumpi\n    /* \"@openzeppelin/contracts/access/Ownable.sol\":1350:1351  0 */\n  0x00\n    /* \"@openzeppelin/contracts/access/Ownable.sol\":1322:1353  OwnableInvalidOwner(address(0)) */\n  mload(0x40)\n  0x1e4fbdf700000000000000000000000000000000000000000000000000000000\n  dup2\n  mstore\n  0x04\n  add\n  tag_7\n  swap2\n  swap1\n  tag_8\n  jump\t// in\ntag_7:\n  mload(0x40)\n  dup1\n  swap2\n  sub\n  swap1\n  revert\n    /* \"@openzeppelin/contracts/access/Ownable.sol\":1269:1364  if (initialOwner == address(0)) {... */\ntag_6:\n    /* \"@openzeppelin/contracts/access/Ownable.sol\":1373:1405  _transferOwnership(initialOwner) */\n  tag_9\n    /* \"@openzeppelin/contracts/access/Ownable.sol\":1392:1404  initialOwner */\n  dup2\n    /* \"@openzeppelin/contracts/access/Ownable.sol\":1373:1391  _transferOwnership */\n  shl(0x20, tag_10)\n    /* \"@openzeppelin/contracts/access/Ownable.sol\":1373:1405  _transferOwnership(initialOwner) */\n  0x20\n  shr\n  jump\t// in\ntag_9:\n    /* \"@openzeppelin/contracts/access/Ownable.sol\":1225:1412  constructor(address initialOwner) {... */\n  pop\n    /* \"@openzeppelin/contracts/security/ReentrancyGuard.sol\":1716:1717  1 */\n  0x01\n    /* \"@openzeppelin/contracts/security/ReentrancyGuard.sol\":1821:1828  _status */\n  dup1\n    /* \"@openzeppelin/contracts/security/ReentrancyGuard.sol\":1821:1843  _status = _NOT_ENTERED */\n  dup2\n  swap1\n  sstore\n  pop\n    /* \"D/delisting.sol\":383:4300  contract DelistingRegistry is Ownable, ReentrancyGuard {... */\n  jump(tag_13)\n    /* \"@openzeppelin/contracts/access/Ownable.sol\":2912:3099  function _transferOwnership(address newOwner) internal virtual {... */\ntag_10:\n    /* \"@openzeppelin/contracts/access/Ownable.sol\":2985:3001  address oldOwner */\n  0x00\n    /* \"@openzeppelin/contracts/access/Ownable.sol\":3004:3010  _owner */\n  0x00\n  0x00\n  swap1\n  sload\n  swap1\n  0x0100\n  exp\n  swap1\n  div\n  0xffffffffffffffffffffffffffffffffffffffff\n  and\n    /* \"@openzeppelin/contracts/access/Ownable.sol\":2985:3010  address oldOwner = _owner */\n  swap1\n  pop\n    /* \"@openzeppelin/contracts/access/Ownable.sol\":3029:3037  newOwner */\n  dup2\n    /* \"@openzeppelin/contracts/access/Ownable.sol\":3020:3026  _owner */\n  0x00\n  0x00\n    /* \"@openzeppelin/contracts/access/Ownable.sol\":3020:3037  _owner = newOwner */\n  0x0100\n  exp\n  dup2\n  sload\n  dup2\n  0xffffffffffffffffffffffffffffffffffffffff\n  mul\n  not\n  and\n  swap1\n  dup4\n  0xffffffffffffffffffffffffffffffffffffffff\n  and\n  mul\n  or\n  swap1\n  sstore\n  pop\n    /* \"@openzeppelin/contracts/access/Ownable.sol\":3083:3091  newOwner */\n  dup2\n    /* \"@openzeppelin/contracts/access/Ownable.sol\":3052:3092  OwnershipTransferred(oldOwner, newOwner) */\n  0xffffffffffffffffffffffffffffffffffffffff\n  and\n    /* \"@openzeppelin/contracts/access/Ownable.sol\":3073:3081  oldOwner */\n  dup2\n    /* \"@openzeppelin/contracts/access/Ownable.sol\":3052:3092  OwnershipTransferred(oldOwner, newOwner) */\n  0xffffffffffffffffffffffffffffffffffffffff\n  and\n  0x8be0079c531659141344cd1fd0a4f28419497f9722a3daafe3b4186f6b6457e0\n  mload(0x40)\n  mload(0x40)\n  dup1\n  swap2\n  sub\n  swap1\n  log3\n    /* \"@openzeppelin/contracts/access/Ownable.sol\":2975:3099  {... */\n  pop\n    /* \"@openzeppelin/contracts/access/Ownable.sol\":2912:3099  function _transferOwnership(address newOwner) internal virtual {... */\n  pop\n  jump\t// out\n    /* \"#utility.yul\":7:133   */\ntag_15:\n    /* \"#utility.yul\":44:51   */\n  0x00\n    /* \"#utility.yul\":84:126   */\n  0xffffffffffffffffffffffffffffffffffffffff\n    /* \"#utility.yul\":77:82   */\n  dup3\n    /* \"#utility.yul\":73:127   */\n  and\n    /* \"#utility.yul\":62:127   */\n  swap1\n  pop\n    /* \"#utility.yul\":7:133   */\n  swap2\n  swap1\n  pop\n  jump\t// out\n    /* \"#utility.yul\":139:235   */\ntag_16:\n    /* \"#utility.yul\":176:183   */\n  0x00\n    /* \"#utility.yul\":205:229   */\n  tag_21\n    /* \"#utility.yul\":223:228   */\n  dup3\n    /* \"#utility.yul\":205:229   */\n  tag_15\n  jump\t// in\ntag_21:\n    /* \"#utility.yul\":194:229   */\n  swap1\n  pop\n    /* \"#utility.yul\":139:235   */\n  swap2\n  swap1\n  pop\n  jump\t// out\n    /* \"#utility.yul\":241:359   */\ntag_17:\n    /* \"#utility.yul\":328:352   */\n  tag_23\n    /* \"#utility.yul\":346:351   */\n  dup2\n    /* \"#utility.yul\":328:352   */\n  tag_16\n  jump\t// in\ntag_23:\n    /* \"#utility.yul\":323:326   */\n  dup3\n    /* \"#utility.yul\":316:353   */\n  mstore\n    /* \"#utility.yul\":241:359   */\n  pop\n  pop\n  jump\t// out\n    /* \"#utility.yul\":365:587   */\ntag_8:\n    /* \"#utility.yul\":458:462   */\n  0x00\n    /* \"#utility.yul\":496:498   */\n  0x20\n    /* \"#utility.yul\":485:494   */\n  dup3\n    /* \"#utility.yul\":481:499   */\n  add\n    /* \"#utility.yul\":473:499   */\n  swap1\n  pop\n    /* \"#utility.yul\":509:580   */\n  tag_25\n    /* \"#utility.yul\":577:578   */\n  0x00\n    /* \"#utility.yul\":566:575   */\n  dup4\n    /* \"#utility.yul\":562:579   */\n  add\n    /* \"#utility.yul\":553:559   */\n  dup5\n    /* \"#utility.yul\":509:580   */\n  tag_17\n  jump\t// in\ntag_25:\n    /* \"#utility.yul\":365:587   */\n  swap3\n  swap2\n  pop\n  pop\n  jump\t// out\n    /* \"D/delisting.sol\":383:4300  contract DelistingRegistry is Ownable, ReentrancyGuard {... */\ntag_13:\n  dataSize(sub_0)\n  dup1\n  dataOffset(sub_0)\n  0x00\n  codecopy\n  0x00\n  return\nstop\n\nsub_0: assembly {\n        /* \"D/delisting.sol\":383:4300  contract DelistingRegistry is Ownable, ReentrancyGuard {... */\n      mstore(0x40, 0x80)\n      callvalue\n      dup1\n      iszero\n      tag_1\n      jumpi\n      revert(0x00, 0x00)\n    tag_1:\n      pop\n      jumpi(tag_2, lt(calldatasize, 0x04))\n      shr(0xe0, calldataload(0x00))\n      dup1\n      0x8da5cb5b\n      gt\n      tag_14\n      jumpi\n      dup1\n      0x8da5cb5b\n      eq\n      tag_8\n      jumpi\n      dup1\n      0x8ed91318\n      eq\n      tag_9\n      jumpi\n      dup1\n      0x90c43087\n      eq\n      tag_10\n      jumpi\n      dup1\n      0xcf35bdd0\n      eq\n      tag_11\n      jumpi\n      dup1\n      0xeac8f5b8\n      eq\n      tag_12\n      jumpi\n      dup1\n      0xf2fde38b\n      eq\n      tag_13\n      jumpi\n      jump(tag_2)\n    tag_14:\n      dup1\n      0x01e1d114\n      eq\n      tag_3\n      jumpi\n      dup1\n      0x24828557\n      eq\n      tag_4\n      jumpi\n      dup1\n      0x43d7c778\n      eq\n      tag_5\n      jumpi\n      dup1\n      0x51fd697e\n      eq\n      tag_6\n      jumpi\n      dup1\n      0x715018a6\n      eq\n      tag_7\n      jumpi\n    tag_2:\n      revert(0x00, 0x00)\n        /* \"D/delisting.sol\":4208:4298  function totalAssets() external view returns (uint256) {... */\n    tag_3:\n      tag_15\n      tag_16\n      jump\t// in\n    tag_15:\n      mload(0x40)\n      tag_17\n      swap2\n      swap1\n      tag_18\n      jump\t// in\n    tag_17:\n      mload(0x40)\n      dup1\n      swap2\n      sub\n      swap1\n      return\n        /* \"D/delisting.sol\":3990:4098  function getActiveAssetIds() external view returns (uint256[] memory) {... */\n    tag_4:\n      tag_19\n      tag_20\n      jump\t// in\n    tag_19:\n      mload(0x40)\n      tag_21\n      swap2\n      swap1\n      tag_22\n      jump\t// in\n    tag_21:\n      mload(0x40)\n      dup1\n      swap2\n      sub\n      swap1\n      return\n        /* \"D/delisting.sol\":2797:3101  function delistAsset(uint256 assetId) external onlyOwner nonReentrant {... */\n    tag_5:\n      tag_23\n      0x04\n      dup1\n      calldatasize\n      sub\n      dup2\n      add\n      swap1\n      tag_24\n      swap2\n      swap1\n      tag_25\n      jump\t// in\n    tag_24:\n      tag_26\n      jump\t// in\n    tag_23:\n      stop\n        /* \"D/delisting.sol\":1277:1907  function listAsset(string calldata name, string calldata symbol)... */\n    tag_6:\n      tag_27\n      0x04\n      dup1\n      calldatasize\n      sub\n      dup2\n      add\n      swap1\n      tag_28\n      swap2\n      swap1\n      tag_29\n      jump\t// in\n    tag_28:\n      tag_30\n      jump\t// in\n    tag_27:\n      mload(0x40)\n      tag_31\n      swap2\n      swap1\n      tag_18\n      jump\t// in\n    tag_31:\n      mload(0x40)\n      dup1\n      swap2\n      sub\n      swap1\n      return\n        /* \"@openzeppelin/contracts/access/Ownable.sol\":2293:2394  function renounceOwnership() public virtual onlyOwner {... */\n    tag_7:\n      tag_32\n      tag_33\n      jump\t// in\n    tag_32:\n      stop\n        /* \"@openzeppelin/contracts/access/Ownable.sol\":1638:1723  function owner() public view virtual returns (address) {... */\n    tag_8:\n      tag_34\n      tag_35\n      jump\t// in\n    tag_34:\n      mload(0x40)\n      tag_36\n      swap2\n      swap1\n      tag_37\n      jump\t// in\n    tag_36:\n      mload(0x40)\n      dup1\n      swap2\n      sub\n      swap1\n      return\n        /* \"D/delisting.sol\":595:621  uint256 public nextAssetId */\n    tag_9:\n      tag_38\n      tag_39\n      jump\t// in\n    tag_38:\n      mload(0x40)\n      tag_40\n      swap2\n      swap1\n      tag_18\n      jump\t// in\n    tag_40:\n      mload(0x40)\n      dup1\n      swap2\n      sub\n      swap1\n      return\n        /* \"D/delisting.sol\":2091:2718  function updateAsset(uint256 assetId, string calldata newName, string calldata newSymbol)... */\n    tag_10:\n      tag_41\n      0x04\n      dup1\n      calldatasize\n      sub\n      dup2\n      add\n      swap1\n      tag_42\n      swap2\n      swap1\n      tag_43\n      jump\t// in\n    tag_42:\n      tag_44\n      jump\t// in\n    tag_41:\n      stop\n        /* \"D/delisting.sol\":627:666  mapping(uint256 => Asset) public assets */\n    tag_11:\n      tag_45\n      0x04\n      dup1\n      calldatasize\n      sub\n      dup2\n      add\n      swap1\n      tag_46\n      swap2\n      swap1\n      tag_25\n      jump\t// in\n    tag_46:\n      tag_47\n      jump\t// in\n    tag_45:\n      mload(0x40)\n      tag_48\n      swap6\n      swap5\n      swap4\n      swap3\n      swap2\n      swap1\n      tag_49\n      jump\t// in\n    tag_48:\n      mload(0x40)\n      dup1\n      swap2\n      sub\n      swap1\n      return\n        /* \"D/delisting.sol\":3695:3881  function getAsset(uint256 assetId) external view returns (Asset memory) {... */\n    tag_12:\n      tag_50\n      0x04\n      dup1\n      calldatasize\n      sub\n      dup2\n      add\n      swap1\n      tag_51\n      swap2\n      swap1\n      tag_25\n      jump\t// in\n    tag_51:\n      tag_52\n      jump\t// in\n    tag_50:\n      mload(0x40)\n      tag_53\n      swap2\n      swap1\n      tag_54\n      jump\t// in\n    tag_53:\n      mload(0x40)\n      dup1\n      swap2\n      sub\n      swap1\n      return\n        /* \"@openzeppelin/contracts/access/Ownable.sol\":2543:2758  function transferOwnership(address newOwner) public virtual onlyOwner {... */\n    tag_13:\n      tag_55\n      0x04\n      dup1\n      calldatasize\n      sub\n      dup2\n      add\n      swap1\n      tag_56\n      swap2\n      swap1\n      tag_57\n      jump\t// in\n    tag_56:\n      tag_58\n      jump\t// in\n    tag_55:\n      stop\n        /* \"D/delisting.sol\":4208:4298  function totalAssets() external view returns (uint256) {... */\n    tag_16:\n        /* \"D/delisting.sol\":4254:4261  uint256 */\n      0x00\n        /* \"D/delisting.sol\":4280:4291  nextAssetId */\n      sload(0x02)\n        /* \"D/delisting.sol\":4273:4291  return nextAssetId */\n      swap1\n      pop\n        /* \"D/delisting.sol\":4208:4298  function totalAssets() external view returns (uint256) {... */\n      swap1\n      jump\t// out\n        /* \"D/delisting.sol\":3990:4098  function getActiveAssetIds() external view returns (uint256[] memory) {... */\n    tag_20:\n        /* \"D/delisting.sol\":4042:4058  uint256[] memory */\n      0x60\n        /* \"D/delisting.sol\":4077:4091  listedAssetIds */\n      0x04\n        /* \"D/delisting.sol\":4070:4091  return listedAssetIds */\n      dup1\n      sload\n      dup1\n      0x20\n      mul\n      0x20\n      add\n      mload(0x40)\n      swap1\n      dup2\n      add\n      0x40\n      mstore\n      dup1\n      swap3\n      swap2\n      swap1\n      dup2\n      dup2\n      mstore\n      0x20\n      add\n      dup3\n      dup1\n      sload\n      dup1\n      iszero\n      tag_61\n      jumpi\n      0x20\n      mul\n      dup3\n      add\n      swap2\n      swap1\n      0x00\n      mstore\n      keccak256(0x00, 0x20)\n      swap1\n    tag_62:\n      dup2\n      sload\n      dup2\n      mstore\n      0x20\n      add\n      swap1\n      0x01\n      add\n      swap1\n      dup1\n      dup4\n      gt\n      tag_62\n      jumpi\n    tag_61:\n      pop\n      pop\n      pop\n      pop\n      pop\n      swap1\n      pop\n        /* \"D/delisting.sol\":3990:4098  function getActiveAssetIds() external view returns (uint256[] memory) {... */\n      swap1\n      jump\t// out\n        /* \"D/delisting.sol\":2797:3101  function delistAsset(uint256 assetId) external onlyOwner nonReentrant {... */\n    tag_26:\n        /* \"@openzeppelin/contracts/access/Ownable.sol\":1531:1544  _checkOwner() */\n      tag_64\n        /* \"@openzeppelin/contracts/access/Ownable.sol\":1531:1542  _checkOwner */\n      tag_65\n        /* \"@openzeppelin/contracts/access/Ownable.sol\":1531:1544  _checkOwner() */\n      jump\t// in\n    tag_64:\n        /* \"@openzeppelin/contracts/security/ReentrancyGuard.sol\":2261:2282  _nonReentrantBefore() */\n      tag_67\n        /* \"@openzeppelin/contracts/security/ReentrancyGuard.sol\":2261:2280  _nonReentrantBefore */\n      tag_68\n        /* \"@openzeppelin/contracts/security/ReentrancyGuard.sol\":2261:2282  _nonReentrantBefore() */\n      jump\t// in\n    tag_67:\n        /* \"D/delisting.sol\":2877:2896  Asset storage asset */\n      0x00\n        /* \"D/delisting.sol\":2899:2905  assets */\n      0x03\n        /* \"D/delisting.sol\":2899:2914  assets[assetId] */\n      0x00\n        /* \"D/delisting.sol\":2906:2913  assetId */\n      dup4\n        /* \"D/delisting.sol\":2899:2914  assets[assetId] */\n      dup2\n      mstore\n      0x20\n      add\n      swap1\n      dup2\n      mstore\n      0x20\n      add\n      0x00\n      keccak256\n        /* \"D/delisting.sol\":2877:2914  Asset storage asset = assets[assetId] */\n      swap1\n      pop\n        /* \"D/delisting.sol\":2932:2937  asset */\n      dup1\n        /* \"D/delisting.sol\":2932:2946  asset.isListed */\n      0x04\n      add\n      0x00\n      swap1\n      sload\n      swap1\n      0x0100\n      exp\n      swap1\n      div\n      0xff\n      and\n        /* \"D/delisting.sol\":2924:2973  require(asset.isListed, \"Asset already delisted\") */\n      tag_70\n      jumpi\n      mload(0x40)\n      0x08c379a000000000000000000000000000000000000000000000000000000000\n      dup2\n      mstore\n      0x04\n      add\n      tag_71\n      swap1\n      tag_72\n      jump\t// in\n    tag_71:\n      mload(0x40)\n      dup1\n      swap2\n      sub\n      swap1\n      revert\n    tag_70:\n        /* \"D/delisting.sol\":3001:3006  false */\n      0x00\n        /* \"D/delisting.sol\":2984:2989  asset */\n      dup2\n        /* \"D/delisting.sol\":2984:2998  asset.isListed */\n      0x04\n      add\n      0x00\n        /* \"D/delisting.sol\":2984:3006  asset.isListed = false */\n      0x0100\n      exp\n      dup2\n      sload\n      dup2\n      0xff\n      mul\n      not\n      and\n      swap1\n      dup4\n      iszero\n      iszero\n      mul\n      or\n      swap1\n      sstore\n      pop\n        /* \"D/delisting.sol\":3016:3039  _removeAssetId(assetId) */\n      tag_73\n        /* \"D/delisting.sol\":3031:3038  assetId */\n      dup3\n        /* \"D/delisting.sol\":3016:3030  _removeAssetId */\n      tag_74\n        /* \"D/delisting.sol\":3016:3039  _removeAssetId(assetId) */\n      jump\t// in\n    tag_73:\n        /* \"D/delisting.sol\":3069:3076  assetId */\n      dup2\n        /* \"D/delisting.sol\":3055:3094  AssetDelisted(assetId, block.timestamp) */\n      0x767124ad53ad1e6527b34a0aff47147e993d99fce57ec1c8804e8e6eec1a0203\n        /* \"D/delisting.sol\":3078:3093  block.timestamp */\n      timestamp\n        /* \"D/delisting.sol\":3055:3094  AssetDelisted(assetId, block.timestamp) */\n      mload(0x40)\n      tag_75\n      swap2\n      swap1\n      tag_18\n      jump\t// in\n    tag_75:\n      mload(0x40)\n      dup1\n      swap2\n      sub\n      swap1\n      log2\n        /* \"D/delisting.sol\":2867:3101  {... */\n      pop\n        /* \"@openzeppelin/contracts/security/ReentrancyGuard.sol\":2303:2323  _nonReentrantAfter() */\n      tag_76\n        /* \"@openzeppelin/contracts/security/ReentrancyGuard.sol\":2303:2321  _nonReentrantAfter */\n      tag_77\n        /* \"@openzeppelin/contracts/security/ReentrancyGuard.sol\":2303:2323  _nonReentrantAfter() */\n      jump\t// in\n    tag_76:\n        /* \"D/delisting.sol\":2797:3101  function delistAsset(uint256 assetId) external onlyOwner nonReentrant {... */\n      pop\n      jump\t// out\n        /* \"D/delisting.sol\":1277:1907  function listAsset(string calldata name, string calldata symbol)... */\n    tag_30:\n        /* \"D/delisting.sol\":1415:1430  uint256 assetId */\n      0x00\n        /* \"@openzeppelin/contracts/access/Ownable.sol\":1531:1544  _checkOwner() */\n      tag_79\n        /* \"@openzeppelin/contracts/access/Ownable.sol\":1531:1542  _checkOwner */\n      tag_65\n        /* \"@openzeppelin/contracts/access/Ownable.sol\":1531:1544  _checkOwner() */\n      jump\t// in\n    tag_79:\n        /* \"@openzeppelin/contracts/security/ReentrancyGuard.sol\":2261:2282  _nonReentrantBefore() */\n      tag_81\n        /* \"@openzeppelin/contracts/security/ReentrancyGuard.sol\":2261:2280  _nonReentrantBefore */\n      tag_68\n        /* \"@openzeppelin/contracts/security/ReentrancyGuard.sol\":2261:2282  _nonReentrantBefore() */\n      jump\t// in\n    tag_81:\n        /* \"D/delisting.sol\":1475:1476  0 */\n      0x00\n        /* \"D/delisting.sol\":1460:1464  name */\n      dup6\n      dup6\n        /* \"D/delisting.sol\":1454:1472  bytes(name).length */\n      swap1\n      pop\n        /* \"D/delisting.sol\":1454:1476  bytes(name).length > 0 */\n      gt\n        /* \"D/delisting.sol\":1446:1494  require(bytes(name).length > 0, \"Name required\") */\n      tag_83\n      jumpi\n      mload(0x40)\n      0x08c379a000000000000000000000000000000000000000000000000000000000\n      dup2\n      mstore\n      0x04\n      add\n      tag_84\n      swap1\n      tag_85\n      jump\t// in\n    tag_84:\n      mload(0x40)\n      dup1\n      swap2\n      sub\n      swap1\n      revert\n    tag_83:\n        /* \"D/delisting.sol\":1535:1536  0 */\n      0x00\n        /* \"D/delisting.sol\":1518:1524  symbol */\n      dup4\n      dup4\n        /* \"D/delisting.sol\":1512:1532  bytes(symbol).length */\n      swap1\n      pop\n        /* \"D/delisting.sol\":1512:1536  bytes(symbol).length > 0 */\n      gt\n        /* \"D/delisting.sol\":1504:1556  require(bytes(symbol).length > 0, \"Symbol required\") */\n      tag_86\n      jumpi\n      mload(0x40)\n      0x08c379a000000000000000000000000000000000000000000000000000000000\n      dup2\n      mstore\n      0x04\n      add\n      tag_87\n      swap1\n      tag_88\n      jump\t// in\n    tag_87:\n      mload(0x40)\n      dup1\n      swap2\n      sub\n      swap1\n      revert\n    tag_86:\n        /* \"D/delisting.sol\":1585:1596  nextAssetId */\n      0x02\n      0x00\n        /* \"D/delisting.sol\":1585:1598  nextAssetId++ */\n      dup2\n      sload\n      dup1\n      swap3\n      swap2\n      swap1\n      tag_89\n      swap1\n      tag_90\n      jump\t// in\n    tag_89:\n      swap2\n      swap1\n      pop\n      sstore\n        /* \"D/delisting.sol\":1575:1598  assetId = nextAssetId++ */\n      swap1\n      pop\n        /* \"D/delisting.sol\":1626:1795  Asset({... */\n      mload(0x40)\n      dup1\n      0xa0\n      add\n      0x40\n      mstore\n      dup1\n        /* \"D/delisting.sol\":1655:1662  assetId */\n      dup3\n        /* \"D/delisting.sol\":1626:1795  Asset({... */\n      dup2\n      mstore\n      0x20\n      add\n        /* \"D/delisting.sol\":1682:1686  name */\n      dup7\n      dup7\n        /* \"D/delisting.sol\":1626:1795  Asset({... */\n      dup1\n      dup1\n      0x1f\n      add\n      0x20\n      dup1\n      swap2\n      div\n      mul\n      0x20\n      add\n      mload(0x40)\n      swap1\n      dup2\n      add\n      0x40\n      mstore\n      dup1\n      swap4\n      swap3\n      swap2\n      swap1\n      dup2\n      dup2\n      mstore\n      0x20\n      add\n      dup4\n      dup4\n      dup1\n      dup3\n      dup5\n      calldatacopy\n      0x00\n      dup2\n      dup5\n      add\n      mstore\n      not(0x1f)\n      0x1f\n      dup3\n      add\n      and\n      swap1\n      pop\n      dup1\n      dup4\n      add\n      swap3\n      pop\n      pop\n      pop\n      pop\n      pop\n      pop\n      pop\n      dup2\n      mstore\n      0x20\n      add\n        /* \"D/delisting.sol\":1708:1714  symbol */\n      dup5\n      dup5\n        /* \"D/delisting.sol\":1626:1795  Asset({... */\n      dup1\n      dup1\n      0x1f\n      add\n      0x20\n      dup1\n      swap2\n      div\n      mul\n      0x20\n      add\n      mload(0x40)\n      swap1\n      dup2\n      add\n      0x40\n      mstore\n      dup1\n      swap4\n      swap3\n      swap2\n      swap1\n      dup2\n      dup2\n      mstore\n      0x20\n      add\n      dup4\n      dup4\n      dup1\n      dup3\n      dup5\n      calldatacopy\n      0x00\n      dup2\n      dup5\n      add\n      mstore\n      not(0x1f)\n      0x1f\n      dup3\n      add\n      and\n      swap1\n      pop\n      dup1\n      dup4\n      add\n      swap3\n      pop\n      pop\n      pop\n      pop\n      pop\n      pop\n      pop\n      dup2\n      mstore\n      0x20\n      add\n        /* \"D/delisting.sol\":1741:1756  block.timestamp */\n      timestamp\n        /* \"D/delisting.sol\":1626:1795  Asset({... */\n      dup2\n      mstore\n      0x20\n      add\n        /* \"D/delisting.sol\":1780:1784  true */\n      0x01\n        /* \"D/delisting.sol\":1626:1795  Asset({... */\n      iszero\n      iszero\n      dup2\n      mstore\n      pop\n        /* \"D/delisting.sol\":1608:1614  assets */\n      0x03\n        /* \"D/delisting.sol\":1608:1623  assets[assetId] */\n      0x00\n        /* \"D/delisting.sol\":1615:1622  assetId */\n      dup4\n        /* \"D/delisting.sol\":1608:1623  assets[assetId] */\n      dup2\n      mstore\n      0x20\n      add\n      swap1\n      dup2\n      mstore\n      0x20\n      add\n      0x00\n      keccak256\n        /* \"D/delisting.sol\":1608:1795  assets[assetId] = Asset({... */\n      0x00\n      dup3\n      add\n      mload\n      dup2\n      0x00\n      add\n      sstore\n      0x20\n      dup3\n      add\n      mload\n      dup2\n      0x01\n      add\n      swap1\n      dup2\n      tag_91\n      swap2\n      swap1\n      tag_92\n      jump\t// in\n    tag_91:\n      pop\n      0x40\n      dup3\n      add\n      mload\n      dup2\n      0x02\n      add\n      swap1\n      dup2\n      tag_93\n      swap2\n      swap1\n      tag_92\n      jump\t// in\n    tag_93:\n      pop\n      0x60\n      dup3\n      add\n      mload\n      dup2\n      0x03\n      add\n      sstore\n      0x80\n      dup3\n      add\n      mload\n      dup2\n      0x04\n      add\n      exp(0x0100, 0x00)\n      dup2\n      sload\n      dup2\n      0xff\n      mul\n      not\n      and\n      swap1\n      dup4\n      iszero\n      iszero\n      mul\n      or\n      swap1\n      sstore\n      pop\n      swap1\n      pop\n      pop\n        /* \"D/delisting.sol\":1805:1819  listedAssetIds */\n      0x04\n        /* \"D/delisting.sol\":1825:1832  assetId */\n      dup2\n        /* \"D/delisting.sol\":1805:1833  listedAssetIds.push(assetId) */\n      swap1\n      dup1\n      0x01\n      dup2\n      sload\n      add\n      dup1\n      dup3\n      sstore\n      dup1\n      swap2\n      pop\n      pop\n      0x01\n      swap1\n      sub\n      swap1\n      0x00\n      mstore\n      keccak256(0x00, 0x20)\n      add\n      0x00\n      swap1\n      swap2\n      swap1\n      swap2\n      swap1\n      swap2\n      pop\n      sstore\n        /* \"D/delisting.sol\":1861:1868  assetId */\n      dup1\n        /* \"D/delisting.sol\":1849:1900  AssetListed(assetId, name, symbol, block.timestamp) */\n      0xfcfd8b736a89a5e9928f75dc7e826dbe2f29390fb8dc8ea137ac1d143d33a89a\n        /* \"D/delisting.sol\":1870:1874  name */\n      dup7\n      dup7\n        /* \"D/delisting.sol\":1876:1882  symbol */\n      dup7\n      dup7\n        /* \"D/delisting.sol\":1884:1899  block.timestamp */\n      timestamp\n        /* \"D/delisting.sol\":1849:1900  AssetListed(assetId, name, symbol, block.timestamp) */\n      mload(0x40)\n      tag_95\n      swap6\n      swap5\n      swap4\n      swap3\n      swap2\n      swap1\n      tag_96\n      jump\t// in\n    tag_95:\n      mload(0x40)\n      dup1\n      swap2\n      sub\n      swap1\n      log2\n        /* \"@openzeppelin/contracts/security/ReentrancyGuard.sol\":2303:2323  _nonReentrantAfter() */\n      tag_97\n        /* \"@openzeppelin/contracts/security/ReentrancyGuard.sol\":2303:2321  _nonReentrantAfter */\n      tag_77\n        /* \"@openzeppelin/contracts/security/ReentrancyGuard.sol\":2303:2323  _nonReentrantAfter() */\n      jump\t// in\n    tag_97:\n        /* \"D/delisting.sol\":1277:1907  function listAsset(string calldata name, string calldata symbol)... */\n      swap5\n      swap4\n      pop\n      pop\n      pop\n      pop\n      jump\t// out\n        /* \"@openzeppelin/contracts/access/Ownable.sol\":2293:2394  function renounceOwnership() public virtual onlyOwner {... */\n    tag_33:\n        /* \"@openzeppelin/contracts/access/Ownable.sol\":1531:1544  _checkOwner() */\n      tag_99\n        /* \"@openzeppelin/contracts/access/Ownable.sol\":1531:1542  _checkOwner */\n      tag_65\n        /* \"@openzeppelin/contracts/access/Ownable.sol\":1531:1544  _checkOwner() */\n      jump\t// in\n    tag_99:\n        /* \"@openzeppelin/contracts/access/Ownable.sol\":2357:2387  _transferOwnership(address(0)) */\n      tag_101\n        /* \"@openzeppelin/contracts/access/Ownable.sol\":2384:2385  0 */\n      0x00\n        /* \"@openzeppelin/contracts/access/Ownable.sol\":2357:2375  _transferOwnership */\n      tag_102\n        /* \"@openzeppelin/contracts/access/Ownable.sol\":2357:2387  _transferOwnership(address(0)) */\n      jump\t// in\n    tag_101:\n        /* \"@openzeppelin/contracts/access/Ownable.sol\":2293:2394  function renounceOwnership() public virtual onlyOwner {... */\n      jump\t// out\n        /* \"@openzeppelin/contracts/access/Ownable.sol\":1638:1723  function owner() public view virtual returns (address) {... */\n    tag_35:\n        /* \"@openzeppelin/contracts/access/Ownable.sol\":1684:1691  address */\n      0x00\n        /* \"@openzeppelin/contracts/access/Ownable.sol\":1710:1716  _owner */\n      0x00\n      0x00\n      swap1\n      sload\n      swap1\n      0x0100\n      exp\n      swap1\n      div\n      0xffffffffffffffffffffffffffffffffffffffff\n      and\n        /* \"@openzeppelin/contracts/access/Ownable.sol\":1703:1716  return _owner */\n      swap1\n      pop\n        /* \"@openzeppelin/contracts/access/Ownable.sol\":1638:1723  function owner() public view virtual returns (address) {... */\n      swap1\n      jump\t// out\n        /* \"D/delisting.sol\":595:621  uint256 public nextAssetId */\n    tag_39:\n      sload(0x02)\n      dup2\n      jump\t// out\n        /* \"D/delisting.sol\":2091:2718  function updateAsset(uint256 assetId, string calldata newName, string calldata newSymbol)... */\n    tag_44:\n        /* \"@openzeppelin/contracts/access/Ownable.sol\":1531:1544  _checkOwner() */\n      tag_105\n        /* \"@openzeppelin/contracts/access/Ownable.sol\":1531:1542  _checkOwner */\n      tag_65\n        /* \"@openzeppelin/contracts/access/Ownable.sol\":1531:1544  _checkOwner() */\n      jump\t// in\n    tag_105:\n        /* \"@openzeppelin/contracts/security/ReentrancyGuard.sol\":2261:2282  _nonReentrantBefore() */\n      tag_107\n        /* \"@openzeppelin/contracts/security/ReentrancyGuard.sol\":2261:2280  _nonReentrantBefore */\n      tag_68\n        /* \"@openzeppelin/contracts/security/ReentrancyGuard.sol\":2261:2282  _nonReentrantBefore() */\n      jump\t// in\n    tag_107:\n        /* \"D/delisting.sol\":2251:2270  Asset storage asset */\n      0x00\n        /* \"D/delisting.sol\":2273:2279  assets */\n      0x03\n        /* \"D/delisting.sol\":2273:2288  assets[assetId] */\n      0x00\n        /* \"D/delisting.sol\":2280:2287  assetId */\n      dup8\n        /* \"D/delisting.sol\":2273:2288  assets[assetId] */\n      dup2\n      mstore\n      0x20\n      add\n      swap1\n      dup2\n      mstore\n      0x20\n      add\n      0x00\n      keccak256\n        /* \"D/delisting.sol\":2251:2288  Asset storage asset = assets[assetId] */\n      swap1\n      pop\n        /* \"D/delisting.sol\":2306:2311  asset */\n      dup1\n        /* \"D/delisting.sol\":2306:2320  asset.isListed */\n      0x04\n      add\n      0x00\n      swap1\n      sload\n      swap1\n      0x0100\n      exp\n      swap1\n      div\n      0xff\n      and\n        /* \"D/delisting.sol\":2298:2341  require(asset.isListed, \"Asset not listed\") */\n      tag_109\n      jumpi\n      mload(0x40)\n      0x08c379a000000000000000000000000000000000000000000000000000000000\n      dup2\n      mstore\n      0x04\n      add\n      tag_110\n      swap1\n      tag_111\n      jump\t// in\n    tag_110:\n      mload(0x40)\n      dup1\n      swap2\n      sub\n      swap1\n      revert\n    tag_109:\n        /* \"D/delisting.sol\":2383:2384  0 */\n      0x00\n        /* \"D/delisting.sol\":2365:2372  newName */\n      dup6\n      dup6\n        /* \"D/delisting.sol\":2359:2380  bytes(newName).length */\n      swap1\n      pop\n        /* \"D/delisting.sol\":2359:2384  bytes(newName).length > 0 */\n      gt\n        /* \"D/delisting.sol\":2351:2402  require(bytes(newName).length > 0, \"Name required\") */\n      tag_112\n      jumpi\n      mload(0x40)\n      0x08c379a000000000000000000000000000000000000000000000000000000000\n      dup2\n      mstore\n      0x04\n      add\n      tag_113\n      swap1\n      tag_85\n      jump\t// in\n    tag_113:\n      mload(0x40)\n      dup1\n      swap2\n      sub\n      swap1\n      revert\n    tag_112:\n        /* \"D/delisting.sol\":2446:2447  0 */\n      0x00\n        /* \"D/delisting.sol\":2426:2435  newSymbol */\n      dup4\n      dup4\n        /* \"D/delisting.sol\":2420:2443  bytes(newSymbol).length */\n      swap1\n      pop\n        /* \"D/delisting.sol\":2420:2447  bytes(newSymbol).length > 0 */\n      gt\n        /* \"D/delisting.sol\":2412:2467  require(bytes(newSymbol).length > 0, \"Symbol required\") */\n      tag_114\n      jumpi\n      mload(0x40)\n      0x08c379a000000000000000000000000000000000000000000000000000000000\n      dup2\n      mstore\n      0x04\n      add\n      tag_115\n      swap1\n      tag_88\n      jump\t// in\n    tag_115:\n      mload(0x40)\n      dup1\n      swap2\n      sub\n      swap1\n      revert\n    tag_114:\n        /* \"D/delisting.sol\":2491:2498  newName */\n      dup5\n      dup5\n        /* \"D/delisting.sol\":2478:2483  asset */\n      dup3\n        /* \"D/delisting.sol\":2478:2488  asset.name */\n      0x01\n      add\n        /* \"D/delisting.sol\":2478:2498  asset.name = newName */\n      swap2\n      dup3\n      tag_116\n      swap3\n      swap2\n      swap1\n      tag_117\n      jump\t// in\n    tag_116:\n      pop\n        /* \"D/delisting.sol\":2523:2532  newSymbol */\n      dup3\n      dup3\n        /* \"D/delisting.sol\":2508:2513  asset */\n      dup3\n        /* \"D/delisting.sol\":2508:2520  asset.symbol */\n      0x02\n      add\n        /* \"D/delisting.sol\":2508:2532  asset.symbol = newSymbol */\n      swap2\n      dup3\n      tag_118\n      swap3\n      swap2\n      swap1\n      tag_117\n      jump\t// in\n    tag_118:\n      pop\n        /* \"D/delisting.sol\":2639:2654  block.timestamp */\n      timestamp\n        /* \"D/delisting.sol\":2619:2624  asset */\n      dup2\n        /* \"D/delisting.sol\":2619:2636  asset.listingDate */\n      0x03\n      add\n        /* \"D/delisting.sol\":2619:2654  asset.listingDate = block.timestamp */\n      dup2\n      swap1\n      sstore\n      pop\n        /* \"D/delisting.sol\":2683:2690  assetId */\n      dup6\n        /* \"D/delisting.sol\":2670:2711  AssetUpdated(assetId, newName, newSymbol) */\n      0xac6577f410e34a2651d9e99d6b30d7f819cd4b8489498882e79edd6e960ebee5\n        /* \"D/delisting.sol\":2692:2699  newName */\n      dup7\n      dup7\n        /* \"D/delisting.sol\":2701:2710  newSymbol */\n      dup7\n      dup7\n        /* \"D/delisting.sol\":2670:2711  AssetUpdated(assetId, newName, newSymbol) */\n      mload(0x40)\n      tag_119\n      swap5\n      swap4\n      swap3\n      swap2\n      swap1\n      tag_120\n      jump\t// in\n    tag_119:\n      mload(0x40)\n      dup1\n      swap2\n      sub\n      swap1\n      log2\n        /* \"D/delisting.sol\":2241:2718  {... */\n      pop\n        /* \"@openzeppelin/contracts/security/ReentrancyGuard.sol\":2303:2323  _nonReentrantAfter() */\n      tag_121\n        /* \"@openzeppelin/contracts/security/ReentrancyGuard.sol\":2303:2321  _nonReentrantAfter */\n      tag_77\n        /* \"@openzeppelin/contracts/security/ReentrancyGuard.sol\":2303:2323  _nonReentrantAfter() */\n      jump\t// in\n    tag_121:\n        /* \"D/delisting.sol\":2091:2718  function updateAsset(uint256 assetId, string calldata newName, string calldata newSymbol)... */\n      pop\n      pop\n      pop\n      pop\n      pop\n      jump\t// out\n        /* \"D/delisting.sol\":627:666  mapping(uint256 => Asset) public assets */\n    tag_47:\n      mstore(0x20, 0x03)\n      dup1\n      0x00\n      mstore\n      keccak256(0x00, 0x40)\n      0x00\n      swap2\n      pop\n      swap1\n      pop\n      dup1\n      0x00\n      add\n      sload\n      swap1\n      dup1\n      0x01\n      add\n      dup1\n      sload\n      tag_122\n      swap1\n      tag_123\n      jump\t// in\n    tag_122:\n      dup1\n      0x1f\n      add\n      0x20\n      dup1\n      swap2\n      div\n      mul\n      0x20\n      add\n      mload(0x40)\n      swap1\n      dup2\n      add\n      0x40\n      mstore\n      dup1\n      swap3\n      swap2\n      swap1\n      dup2\n      dup2\n      mstore\n      0x20\n      add\n      dup3\n      dup1\n      sload\n      tag_124\n      swap1\n      tag_123\n      jump\t// in\n    tag_124:\n      dup1\n      iszero\n      tag_125\n      jumpi\n      dup1\n      0x1f\n      lt\n      tag_126\n      jumpi\n      0x0100\n      dup1\n      dup4\n      sload\n      div\n      mul\n      dup4\n      mstore\n      swap2\n      0x20\n      add\n      swap2\n      jump(tag_125)\n    tag_126:\n      dup3\n      add\n      swap2\n      swap1\n      0x00\n      mstore\n      keccak256(0x00, 0x20)\n      swap1\n    tag_127:\n      dup2\n      sload\n      dup2\n      mstore\n      swap1\n      0x01\n      add\n      swap1\n      0x20\n      add\n      dup1\n      dup4\n      gt\n      tag_127\n      jumpi\n      dup3\n      swap1\n      sub\n      0x1f\n      and\n      dup3\n      add\n      swap2\n    tag_125:\n      pop\n      pop\n      pop\n      pop\n      pop\n      swap1\n      dup1\n      0x02\n      add\n      dup1\n      sload\n      tag_128\n      swap1\n      tag_123\n      jump\t// in\n    tag_128:\n      dup1\n      0x1f\n      add\n      0x20\n      dup1\n      swap2\n      div\n      mul\n      0x20\n      add\n      mload(0x40)\n      swap1\n      dup2\n      add\n      0x40\n      mstore\n      dup1\n      swap3\n      swap2\n      swap1\n      dup2\n      dup2\n      mstore\n      0x20\n      add\n      dup3\n      dup1\n      sload\n      tag_129\n      swap1\n      tag_123\n      jump\t// in\n    tag_129:\n      dup1\n      iszero\n      tag_130\n      jumpi\n      dup1\n      0x1f\n      lt\n      tag_131\n      jumpi\n      0x0100\n      dup1\n      dup4\n      sload\n      div\n      mul\n      dup4\n      mstore\n      swap2\n      0x20\n      add\n      swap2\n      jump(tag_130)\n    tag_131:\n      dup3\n      add\n      swap2\n      swap1\n      0x00\n      mstore\n      keccak256(0x00, 0x20)\n      swap1\n    tag_132:\n      dup2\n      sload\n      dup2\n      mstore\n      swap1\n      0x01\n      add\n      swap1\n      0x20\n      add\n      dup1\n      dup4\n      gt\n      tag_132\n      jumpi\n      dup3\n      swap1\n      sub\n      0x1f\n      and\n      dup3\n      add\n      swap2\n    tag_130:\n      pop\n      pop\n      pop\n      pop\n      pop\n      swap1\n      dup1\n      0x03\n      add\n      sload\n      swap1\n      dup1\n      0x04\n      add\n      0x00\n      swap1\n      sload\n      swap1\n      0x0100\n      exp\n      swap1\n      div\n      0xff\n      and\n      swap1\n      pop\n      dup6\n      jump\t// out\n        /* \"D/delisting.sol\":3695:3881  function getAsset(uint256 assetId) external view returns (Asset memory) {... */\n    tag_52:\n        /* \"D/delisting.sol\":3753:3765  Asset memory */\n      tag_133\n      tag_134\n      jump\t// in\n    tag_133:\n        /* \"D/delisting.sol\":3816:3817  0 */\n      0x00\n        /* \"D/delisting.sol\":3785:3791  assets */\n      0x03\n        /* \"D/delisting.sol\":3785:3800  assets[assetId] */\n      0x00\n        /* \"D/delisting.sol\":3792:3799  assetId */\n      dup5\n        /* \"D/delisting.sol\":3785:3800  assets[assetId] */\n      dup2\n      mstore\n      0x20\n      add\n      swap1\n      dup2\n      mstore\n      0x20\n      add\n      0x00\n      keccak256\n        /* \"D/delisting.sol\":3785:3812  assets[assetId].listingDate */\n      0x03\n      add\n      sload\n        /* \"D/delisting.sol\":3785:3817  assets[assetId].listingDate != 0 */\n      sub\n        /* \"D/delisting.sol\":3777:3842  require(assets[assetId].listingDate != 0, \"Asset does not exist\") */\n      tag_136\n      jumpi\n      mload(0x40)\n      0x08c379a000000000000000000000000000000000000000000000000000000000\n      dup2\n      mstore\n      0x04\n      add\n      tag_137\n      swap1\n      tag_138\n      jump\t// in\n    tag_137:\n      mload(0x40)\n      dup1\n      swap2\n      sub\n      swap1\n      revert\n    tag_136:\n        /* \"D/delisting.sol\":3859:3865  assets */\n      0x03\n        /* \"D/delisting.sol\":3859:3874  assets[assetId] */\n      0x00\n        /* \"D/delisting.sol\":3866:3873  assetId */\n      dup4\n        /* \"D/delisting.sol\":3859:3874  assets[assetId] */\n      dup2\n      mstore\n      0x20\n      add\n      swap1\n      dup2\n      mstore\n      0x20\n      add\n      0x00\n      keccak256\n        /* \"D/delisting.sol\":3852:3874  return assets[assetId] */\n      mload(0x40)\n      dup1\n      0xa0\n      add\n      0x40\n      mstore\n      swap1\n      dup2\n      0x00\n      dup3\n      add\n      sload\n      dup2\n      mstore\n      0x20\n      add\n      0x01\n      dup3\n      add\n      dup1\n      sload\n      tag_139\n      swap1\n      tag_123\n      jump\t// in\n    tag_139:\n      dup1\n      0x1f\n      add\n      0x20\n      dup1\n      swap2\n      div\n      mul\n      0x20\n      add\n      mload(0x40)\n      swap1\n      dup2\n      add\n      0x40\n      mstore\n      dup1\n      swap3\n      swap2\n      swap1\n      dup2\n      dup2\n      mstore\n      0x20\n      add\n      dup3\n      dup1\n      sload\n      tag_140\n      swap1\n      tag_123\n      jump\t// in\n    tag_140:\n      dup1\n      iszero\n      tag_141\n      jumpi\n      dup1\n      0x1f\n      lt\n      tag_142\n      jumpi\n      0x0100\n      dup1\n      dup4\n      sload\n      div\n      mul\n      dup4\n      mstore\n      swap2\n      0x20\n      add\n      swap2\n      jump(tag_141)\n    tag_142:\n      dup3\n      add\n      swap2\n      swap1\n      0x00\n      mstore\n      keccak256(0x00, 0x20)\n      swap1\n    tag_143:\n      dup2\n      sload\n      dup2\n      mstore\n      swap1\n      0x01\n      add\n      swap1\n      0x20\n      add\n      dup1\n      dup4\n      gt\n      tag_143\n      jumpi\n      dup3\n      swap1\n      sub\n      0x1f\n      and\n      dup3\n      add\n      swap2\n    tag_141:\n      pop\n      pop\n      pop\n      pop\n      pop\n      dup2\n      mstore\n      0x20\n      add\n      0x02\n      dup3\n      add\n      dup1\n      sload\n      tag_144\n      swap1\n      tag_123\n      jump\t// in\n    tag_144:\n      dup1\n      0x1f\n      add\n      0x20\n      dup1\n      swap2\n      div\n      mul\n      0x20\n      add\n      mload(0x40)\n      swap1\n      dup2\n      add\n      0x40\n      mstore\n      dup1\n      swap3\n      swap2\n      swap1\n      dup2\n      dup2\n      mstore\n      0x20\n      add\n      dup3\n      dup1\n      sload\n      tag_145\n      swap1\n      tag_123\n      jump\t// in\n    tag_145:\n      dup1\n      iszero\n      tag_146\n      jumpi\n      dup1\n      0x1f\n      lt\n      tag_147\n      jumpi\n      0x0100\n      dup1\n      dup4\n      sload\n      div\n      mul\n      dup4\n      mstore\n      swap2\n      0x20\n      add\n      swap2\n      jump(tag_146)\n    tag_147:\n      dup3\n      add\n      swap2\n      swap1\n      0x00\n      mstore\n      keccak256(0x00, 0x20)\n      swap1\n    tag_148:\n      dup2\n      sload\n      dup2\n      mstore\n      swap1\n      0x01\n      add\n      swap1\n      0x20\n      add\n      dup1\n      dup4\n      gt\n      tag_148\n      jumpi\n      dup3\n      swap1\n      sub\n      0x1f\n      and\n      dup3\n      add\n      swap2\n    tag_146:\n      pop\n      pop\n      pop\n      pop\n      pop\n      dup2\n      mstore\n      0x20\n      add\n      0x03\n      dup3\n      add\n      sload\n      dup2\n      mstore\n      0x20\n      add\n      0x04\n      dup3\n      add\n      0x00\n      swap1\n      sload\n      swap1\n      0x0100\n      exp\n      swap1\n      div\n      0xff\n      and\n      iszero\n      iszero\n      iszero\n      iszero\n      dup2\n      mstore\n      pop\n      pop\n      swap1\n      pop\n        /* \"D/delisting.sol\":3695:3881  function getAsset(uint256 assetId) external view returns (Asset memory) {... */\n      swap2\n      swap1\n      pop\n      jump\t// out\n        /* \"@openzeppelin/contracts/access/Ownable.sol\":2543:2758  function transferOwnership(address newOwner) public virtual onlyOwner {... */\n    tag_58:\n        /* \"@openzeppelin/contracts/access/Ownable.sol\":1531:1544  _checkOwner() */\n      tag_150\n        /* \"@openzeppelin/contracts/access/Ownable.sol\":1531:1542  _checkOwner */\n      tag_65\n        /* \"@openzeppelin/contracts/access/Ownable.sol\":1531:1544  _checkOwner() */\n      jump\t// in\n    tag_150:\n        /* \"@openzeppelin/contracts/access/Ownable.sol\":2647:2648  0 */\n      0x00\n        /* \"@openzeppelin/contracts/access/Ownable.sol\":2627:2649  newOwner == address(0) */\n      0xffffffffffffffffffffffffffffffffffffffff\n      and\n        /* \"@openzeppelin/contracts/access/Ownable.sol\":2627:2635  newOwner */\n      dup2\n        /* \"@openzeppelin/contracts/access/Ownable.sol\":2627:2649  newOwner == address(0) */\n      0xffffffffffffffffffffffffffffffffffffffff\n      and\n      sub\n        /* \"@openzeppelin/contracts/access/Ownable.sol\":2623:2714  if (newOwner == address(0)) {... */\n      tag_152\n      jumpi\n        /* \"@openzeppelin/contracts/access/Ownable.sol\":2700:2701  0 */\n      0x00\n        /* \"@openzeppelin/contracts/access/Ownable.sol\":2672:2703  OwnableInvalidOwner(address(0)) */\n      mload(0x40)\n      0x1e4fbdf700000000000000000000000000000000000000000000000000000000\n      dup2\n      mstore\n      0x04\n      add\n      tag_153\n      swap2\n      swap1\n      tag_37\n      jump\t// in\n    tag_153:\n      mload(0x40)\n      dup1\n      swap2\n      sub\n      swap1\n      revert\n        /* \"@openzeppelin/contracts/access/Ownable.sol\":2623:2714  if (newOwner == address(0)) {... */\n    tag_152:\n        /* \"@openzeppelin/contracts/access/Ownable.sol\":2723:2751  _transferOwnership(newOwner) */\n      tag_154\n        /* \"@openzeppelin/contracts/access/Ownable.sol\":2742:2750  newOwner */\n      dup2\n        /* \"@openzeppelin/contracts/access/Ownable.sol\":2723:2741  _transferOwnership */\n      tag_102\n        /* \"@openzeppelin/contracts/access/Ownable.sol\":2723:2751  _transferOwnership(newOwner) */\n      jump\t// in\n    tag_154:\n        /* \"@openzeppelin/contracts/access/Ownable.sol\":2543:2758  function transferOwnership(address newOwner) public virtual onlyOwner {... */\n      pop\n      jump\t// out\n        /* \"@openzeppelin/contracts/access/Ownable.sol\":1796:1958  function _checkOwner() internal view virtual {... */\n    tag_65:\n        /* \"@openzeppelin/contracts/access/Ownable.sol\":1866:1878  _msgSender() */\n      tag_156\n        /* \"@openzeppelin/contracts/access/Ownable.sol\":1866:1876  _msgSender */\n      tag_157\n        /* \"@openzeppelin/contracts/access/Ownable.sol\":1866:1878  _msgSender() */\n      jump\t// in\n    tag_156:\n        /* \"@openzeppelin/contracts/access/Ownable.sol\":1855:1878  owner() != _msgSender() */\n      0xffffffffffffffffffffffffffffffffffffffff\n      and\n        /* \"@openzeppelin/contracts/access/Ownable.sol\":1855:1862  owner() */\n      tag_158\n        /* \"@openzeppelin/contracts/access/Ownable.sol\":1855:1860  owner */\n      tag_35\n        /* \"@openzeppelin/contracts/access/Ownable.sol\":1855:1862  owner() */\n      jump\t// in\n    tag_158:\n        /* \"@openzeppelin/contracts/access/Ownable.sol\":1855:1878  owner() != _msgSender() */\n      0xffffffffffffffffffffffffffffffffffffffff\n      and\n      eq\n        /* \"@openzeppelin/contracts/access/Ownable.sol\":1851:1952  if (owner() != _msgSender()) {... */\n      tag_159\n      jumpi\n        /* \"@openzeppelin/contracts/access/Ownable.sol\":1928:1940  _msgSender() */\n      tag_160\n        /* \"@openzeppelin/contracts/access/Ownable.sol\":1928:1938  _msgSender */\n      tag_157\n        /* \"@openzeppelin/contracts/access/Ownable.sol\":1928:1940  _msgSender() */\n      jump\t// in\n    tag_160:\n        /* \"@openzeppelin/contracts/access/Ownable.sol\":1901:1941  OwnableUnauthorizedAccount(_msgSender()) */\n      mload(0x40)\n      0x118cdaa700000000000000000000000000000000000000000000000000000000\n      dup2\n      mstore\n      0x04\n      add\n      tag_161\n      swap2\n      swap1\n      tag_37\n      jump\t// in\n    tag_161:\n      mload(0x40)\n      dup1\n      swap2\n      sub\n      swap1\n      revert\n        /* \"@openzeppelin/contracts/access/Ownable.sol\":1851:1952  if (owner() != _msgSender()) {... */\n    tag_159:\n        /* \"@openzeppelin/contracts/access/Ownable.sol\":1796:1958  function _checkOwner() internal view virtual {... */\n      jump\t// out\n        /* \"@openzeppelin/contracts/security/ReentrancyGuard.sol\":2336:2623  function _nonReentrantBefore() private {... */\n    tag_68:\n        /* \"@openzeppelin/contracts/security/ReentrancyGuard.sol\":1759:1760  2 */\n      0x02\n        /* \"@openzeppelin/contracts/security/ReentrancyGuard.sol\":2468:2475  _status */\n      sload(0x01)\n        /* \"@openzeppelin/contracts/security/ReentrancyGuard.sol\":2468:2487  _status != _ENTERED */\n      sub\n        /* \"@openzeppelin/contracts/security/ReentrancyGuard.sol\":2460:2523  require(_status != _ENTERED, \"ReentrancyGuard: reentrant call\") */\n      tag_163\n      jumpi\n      mload(0x40)\n      0x08c379a000000000000000000000000000000000000000000000000000000000\n      dup2\n      mstore\n      0x04\n      add\n      tag_164\n      swap1\n      tag_165\n      jump\t// in\n    tag_164:\n      mload(0x40)\n      dup1\n      swap2\n      sub\n      swap1\n      revert\n    tag_163:\n        /* \"@openzeppelin/contracts/security/ReentrancyGuard.sol\":1759:1760  2 */\n      0x02\n        /* \"@openzeppelin/contracts/security/ReentrancyGuard.sol\":2598:2605  _status */\n      0x01\n        /* \"@openzeppelin/contracts/security/ReentrancyGuard.sol\":2598:2616  _status = _ENTERED */\n      dup2\n      swap1\n      sstore\n      pop\n        /* \"@openzeppelin/contracts/security/ReentrancyGuard.sol\":2336:2623  function _nonReentrantBefore() private {... */\n      jump\t// out\n        /* \"D/delisting.sol\":3230:3570  function _removeAssetId(uint256 assetId) internal {... */\n    tag_74:\n        /* \"D/delisting.sol\":3290:3301  uint256 len */\n      0x00\n        /* \"D/delisting.sol\":3304:3318  listedAssetIds */\n      0x04\n        /* \"D/delisting.sol\":3304:3325  listedAssetIds.length */\n      dup1\n      sload\n      swap1\n      pop\n        /* \"D/delisting.sol\":3290:3325  uint256 len = listedAssetIds.length */\n      swap1\n      pop\n        /* \"D/delisting.sol\":3340:3349  uint256 i */\n      0x00\n        /* \"D/delisting.sol\":3352:3353  0 */\n      0x00\n        /* \"D/delisting.sol\":3340:3353  uint256 i = 0 */\n      swap1\n      pop\n        /* \"D/delisting.sol\":3335:3564  for (uint256 i = 0; i < len; i++) {... */\n    tag_167:\n        /* \"D/delisting.sol\":3359:3362  len */\n      dup2\n        /* \"D/delisting.sol\":3355:3356  i */\n      dup2\n        /* \"D/delisting.sol\":3355:3362  i < len */\n      lt\n        /* \"D/delisting.sol\":3335:3564  for (uint256 i = 0; i < len; i++) {... */\n      iszero\n      tag_168\n      jumpi\n        /* \"D/delisting.sol\":3408:3415  assetId */\n      dup3\n        /* \"D/delisting.sol\":3387:3401  listedAssetIds */\n      0x04\n        /* \"D/delisting.sol\":3402:3403  i */\n      dup3\n        /* \"D/delisting.sol\":3387:3404  listedAssetIds[i] */\n      dup2\n      sload\n      dup2\n      lt\n      tag_170\n      jumpi\n      tag_171\n      tag_172\n      jump\t// in\n    tag_171:\n    tag_170:\n      swap1\n      0x00\n      mstore\n      keccak256(0x00, 0x20)\n      add\n      sload\n        /* \"D/delisting.sol\":3387:3415  listedAssetIds[i] == assetId */\n      sub\n        /* \"D/delisting.sol\":3383:3554  if (listedAssetIds[i] == assetId) {... */\n      tag_174\n      jumpi\n        /* \"D/delisting.sol\":3455:3469  listedAssetIds */\n      0x04\n        /* \"D/delisting.sol\":3476:3477  1 */\n      0x01\n        /* \"D/delisting.sol\":3470:3473  len */\n      dup4\n        /* \"D/delisting.sol\":3470:3477  len - 1 */\n      tag_175\n      swap2\n      swap1\n      tag_176\n      jump\t// in\n    tag_175:\n        /* \"D/delisting.sol\":3455:3478  listedAssetIds[len - 1] */\n      dup2\n      sload\n      dup2\n      lt\n      tag_177\n      jumpi\n      tag_178\n      tag_172\n      jump\t// in\n    tag_178:\n    tag_177:\n      swap1\n      0x00\n      mstore\n      keccak256(0x00, 0x20)\n      add\n      sload\n        /* \"D/delisting.sol\":3435:3449  listedAssetIds */\n      0x04\n        /* \"D/delisting.sol\":3450:3451  i */\n      dup3\n        /* \"D/delisting.sol\":3435:3452  listedAssetIds[i] */\n      dup2\n      sload\n      dup2\n      lt\n      tag_180\n      jumpi\n      tag_181\n      tag_172\n      jump\t// in\n    tag_181:\n    tag_180:\n      swap1\n      0x00\n      mstore\n      keccak256(0x00, 0x20)\n      add\n        /* \"D/delisting.sol\":3435:3478  listedAssetIds[i] = listedAssetIds[len - 1] */\n      dup2\n      swap1\n      sstore\n      pop\n        /* \"D/delisting.sol\":3496:3510  listedAssetIds */\n      0x04\n        /* \"D/delisting.sol\":3496:3516  listedAssetIds.pop() */\n      dup1\n      sload\n      dup1\n      tag_183\n      jumpi\n      tag_184\n      tag_185\n      jump\t// in\n    tag_184:\n    tag_183:\n      0x01\n      swap1\n      sub\n      dup2\n      dup2\n      swap1\n      0x00\n      mstore\n      keccak256(0x00, 0x20)\n      add\n      0x00\n      swap1\n      sstore\n      swap1\n      sstore\n        /* \"D/delisting.sol\":3534:3539  break */\n      jump(tag_168)\n        /* \"D/delisting.sol\":3383:3554  if (listedAssetIds[i] == assetId) {... */\n    tag_174:\n        /* \"D/delisting.sol\":3364:3367  i++ */\n      dup1\n      dup1\n      0x01\n      add\n      swap2\n      pop\n      pop\n        /* \"D/delisting.sol\":3335:3564  for (uint256 i = 0; i < len; i++) {... */\n      jump(tag_167)\n    tag_168:\n      pop\n        /* \"D/delisting.sol\":3280:3570  {... */\n      pop\n        /* \"D/delisting.sol\":3230:3570  function _removeAssetId(uint256 assetId) internal {... */\n      pop\n      jump\t// out\n        /* \"@openzeppelin/contracts/security/ReentrancyGuard.sol\":2629:2838  function _nonReentrantAfter() private {... */\n    tag_77:\n        /* \"@openzeppelin/contracts/security/ReentrancyGuard.sol\":1716:1717  1 */\n      0x01\n        /* \"@openzeppelin/contracts/security/ReentrancyGuard.sol\":2809:2816  _status */\n      dup1\n        /* \"@openzeppelin/contracts/security/ReentrancyGuard.sol\":2809:2831  _status = _NOT_ENTERED */\n      dup2\n      swap1\n      sstore\n      pop\n        /* \"@openzeppelin/contracts/security/ReentrancyGuard.sol\":2629:2838  function _nonReentrantAfter() private {... */\n      jump\t// out\n        /* \"@openzeppelin/contracts/access/Ownable.sol\":2912:3099  function _transferOwnership(address newOwner) internal virtual {... */\n    tag_102:\n        /* \"@openzeppelin/contracts/access/Ownable.sol\":2985:3001  address oldOwner */\n      0x00\n        /* \"@openzeppelin/contracts/access/Ownable.sol\":3004:3010  _owner */\n      0x00\n      0x00\n      swap1\n      sload\n      swap1\n      0x0100\n      exp\n      swap1\n      div\n      0xffffffffffffffffffffffffffffffffffffffff\n      and\n        /* \"@openzeppelin/contracts/access/Ownable.sol\":2985:3010  address oldOwner = _owner */\n      swap1\n      pop\n        /* \"@openzeppelin/contracts/access/Ownable.sol\":3029:3037  newOwner */\n      dup2\n        /* \"@openzeppelin/contracts/access/Ownable.sol\":3020:3026  _owner */\n      0x00\n      0x00\n        /* \"@openzeppelin/contracts/access/Ownable.sol\":3020:3037  _owner = newOwner */\n      0x0100\n      exp\n      dup2\n      sload\n      dup2\n      0xffffffffffffffffffffffffffffffffffffffff\n      mul\n      not\n      and\n      swap1\n      dup4\n      0xffffffffffffffffffffffffffffffffffffffff\n      and\n      mul\n      or\n      swap1\n      sstore\n      pop\n        /* \"@openzeppelin/contracts/access/Ownable.sol\":3083:3091  newOwner */\n      dup2\n        /* \"@openzeppelin/contracts/access/Ownable.sol\":3052:3092  OwnershipTransferred(oldOwner, newOwner) */\n      0xffffffffffffffffffffffffffffffffffffffff\n      and\n        /* \"@openzeppelin/contracts/access/Ownable.sol\":3073:3081  oldOwner */\n      dup2\n        /* \"@openzeppelin/contracts/access/Ownable.sol\":3052:3092  OwnershipTransferred(oldOwner, newOwner) */\n      0xffffffffffffffffffffffffffffffffffffffff\n      and\n      0x8be0079c531659141344cd1fd0a4f28419497f9722a3daafe3b4186f6b6457e0\n      mload(0x40)\n      mload(0x40)\n      dup1\n      swap2\n      sub\n      swap1\n      log3\n        /* \"@openzeppelin/contracts/access/Ownable.sol\":2975:3099  {... */\n      pop\n        /* \"@openzeppelin/contracts/access/Ownable.sol\":2912:3099  function _transferOwnership(address newOwner) internal virtual {... */\n      pop\n      jump\t// out\n        /* \"@openzeppelin/contracts/utils/Context.sol\":656:752  function _msgSender() internal view virtual returns (address) {... */\n    tag_157:\n        /* \"@openzeppelin/contracts/utils/Context.sol\":709:716  address */\n      0x00\n        /* \"@openzeppelin/contracts/utils/Context.sol\":735:745  msg.sender */\n      caller\n        /* \"@openzeppelin/contracts/utils/Context.sol\":728:745  return msg.sender */\n      swap1\n      pop\n        /* \"@openzeppelin/contracts/utils/Context.sol\":656:752  function _msgSender() internal view virtual returns (address) {... */\n      swap1\n      jump\t// out\n    tag_134:\n      mload(0x40)\n      dup1\n      0xa0\n      add\n      0x40\n      mstore\n      dup1\n      0x00\n      dup2\n      mstore\n      0x20\n      add\n      0x60\n      dup2\n      mstore\n      0x20\n      add\n      0x60\n      dup2\n      mstore\n      0x20\n      add\n      0x00\n      dup2\n      mstore\n      0x20\n      add\n      iszero(iszero(0x00))\n      dup2\n      mstore\n      pop\n      swap1\n      jump\t// out\n        /* \"#utility.yul\":7:84   */\n    tag_190:\n        /* \"#utility.yul\":44:51   */\n      0x00\n        /* \"#utility.yul\":73:78   */\n      dup2\n        /* \"#utility.yul\":62:78   */\n      swap1\n      pop\n        /* \"#utility.yul\":7:84   */\n      swap2\n      swap1\n      pop\n      jump\t// out\n        /* \"#utility.yul\":90:208   */\n    tag_191:\n        /* \"#utility.yul\":177:201   */\n      tag_260\n        /* \"#utility.yul\":195:200   */\n      dup2\n        /* \"#utility.yul\":177:201   */\n      tag_190\n      jump\t// in\n    tag_260:\n        /* \"#utility.yul\":172:175   */\n      dup3\n        /* \"#utility.yul\":165:202   */\n      mstore\n        /* \"#utility.yul\":90:208   */\n      pop\n      pop\n      jump\t// out\n        /* \"#utility.yul\":214:436   */\n    tag_18:\n        /* \"#utility.yul\":307:311   */\n      0x00\n        /* \"#utility.yul\":345:347   */\n      0x20\n        /* \"#utility.yul\":334:343   */\n      dup3\n        /* \"#utility.yul\":330:348   */\n      add\n        /* \"#utility.yul\":322:348   */\n      swap1\n      pop\n        /* \"#utility.yul\":358:429   */\n      tag_262\n        /* \"#utility.yul\":426:427   */\n      0x00\n        /* \"#utility.yul\":415:424   */\n      dup4\n        /* \"#utility.yul\":411:428   */\n      add\n        /* \"#utility.yul\":402:408   */\n      dup5\n        /* \"#utility.yul\":358:429   */\n      tag_191\n      jump\t// in\n    tag_262:\n        /* \"#utility.yul\":214:436   */\n      swap3\n      swap2\n      pop\n      pop\n      jump\t// out\n        /* \"#utility.yul\":442:556   */\n    tag_192:\n        /* \"#utility.yul\":509:515   */\n      0x00\n        /* \"#utility.yul\":543:548   */\n      dup2\n        /* \"#utility.yul\":537:549   */\n      mload\n        /* \"#utility.yul\":527:549   */\n      swap1\n      pop\n        /* \"#utility.yul\":442:556   */\n      swap2\n      swap1\n      pop\n      jump\t// out\n        /* \"#utility.yul\":562:746   */\n    tag_193:\n        /* \"#utility.yul\":661:672   */\n      0x00\n        /* \"#utility.yul\":695:701   */\n      dup3\n        /* \"#utility.yul\":690:693   */\n      dup3\n        /* \"#utility.yul\":683:702   */\n      mstore\n        /* \"#utility.yul\":735:739   */\n      0x20\n        /* \"#utility.yul\":730:733   */\n      dup3\n        /* \"#utility.yul\":726:740   */\n      add\n        /* \"#utility.yul\":711:740   */\n      swap1\n      pop\n        /* \"#utility.yul\":562:746   */\n      swap3\n      swap2\n      pop\n      pop\n      jump\t// out\n        /* \"#utility.yul\":752:884   */\n    tag_194:\n        /* \"#utility.yul\":819:823   */\n      0x00\n        /* \"#utility.yul\":842:845   */\n      dup2\n        /* \"#utility.yul\":834:845   */\n      swap1\n      pop\n        /* \"#utility.yul\":872:876   */\n      0x20\n        /* \"#utility.yul\":867:870   */\n      dup3\n        /* \"#utility.yul\":863:877   */\n      add\n        /* \"#utility.yul\":855:877   */\n      swap1\n      pop\n        /* \"#utility.yul\":752:884   */\n      swap2\n      swap1\n      pop\n      jump\t// out\n        /* \"#utility.yul\":890:998   */\n    tag_195:\n        /* \"#utility.yul\":967:991   */\n      tag_267\n        /* \"#utility.yul\":985:990   */\n      dup2\n        /* \"#utility.yul\":967:991   */\n      tag_190\n      jump\t// in\n    tag_267:\n        /* \"#utility.yul\":962:965   */\n      dup3\n        /* \"#utility.yul\":955:992   */\n      mstore\n        /* \"#utility.yul\":890:998   */\n      pop\n      pop\n      jump\t// out\n        /* \"#utility.yul\":1004:1183   */\n    tag_196:\n        /* \"#utility.yul\":1073:1083   */\n      0x00\n        /* \"#utility.yul\":1094:1140   */\n      tag_269\n        /* \"#utility.yul\":1136:1139   */\n      dup4\n        /* \"#utility.yul\":1128:1134   */\n      dup4\n        /* \"#utility.yul\":1094:1140   */\n      tag_195\n      jump\t// in\n    tag_269:\n        /* \"#utility.yul\":1172:1176   */\n      0x20\n        /* \"#utility.yul\":1167:1170   */\n      dup4\n        /* \"#utility.yul\":1163:1177   */\n      add\n        /* \"#utility.yul\":1149:1177   */\n      swap1\n      pop\n        /* \"#utility.yul\":1004:1183   */\n      swap3\n      swap2\n      pop\n      pop\n      jump\t// out\n        /* \"#utility.yul\":1189:1302   */\n    tag_197:\n        /* \"#utility.yul\":1259:1263   */\n      0x00\n        /* \"#utility.yul\":1291:1295   */\n      0x20\n        /* \"#utility.yul\":1286:1289   */\n      dup3\n        /* \"#utility.yul\":1282:1296   */\n      add\n        /* \"#utility.yul\":1274:1296   */\n      swap1\n      pop\n        /* \"#utility.yul\":1189:1302   */\n      swap2\n      swap1\n      pop\n      jump\t// out\n        /* \"#utility.yul\":1338:2070   */\n    tag_198:\n        /* \"#utility.yul\":1457:1460   */\n      0x00\n        /* \"#utility.yul\":1486:1540   */\n      tag_272\n        /* \"#utility.yul\":1534:1539   */\n      dup3\n        /* \"#utility.yul\":1486:1540   */\n      tag_192\n      jump\t// in\n    tag_272:\n        /* \"#utility.yul\":1556:1642   */\n      tag_273\n        /* \"#utility.yul\":1635:1641   */\n      dup2\n        /* \"#utility.yul\":1630:1633   */\n      dup6\n        /* \"#utility.yul\":1556:1642   */\n      tag_193\n      jump\t// in\n    tag_273:\n        /* \"#utility.yul\":1549:1642   */\n      swap4\n      pop\n        /* \"#utility.yul\":1666:1722   */\n      tag_274\n        /* \"#utility.yul\":1716:1721   */\n      dup4\n        /* \"#utility.yul\":1666:1722   */\n      tag_194\n      jump\t// in\n    tag_274:\n        /* \"#utility.yul\":1745:1752   */\n      dup1\n        /* \"#utility.yul\":1776:1777   */\n      0x00\n        /* \"#utility.yul\":1761:2045   */\n    tag_275:\n        /* \"#utility.yul\":1786:1792   */\n      dup4\n        /* \"#utility.yul\":1783:1784   */\n      dup2\n        /* \"#utility.yul\":1780:1793   */\n      lt\n        /* \"#utility.yul\":1761:2045   */\n      iszero\n      tag_277\n      jumpi\n        /* \"#utility.yul\":1862:1868   */\n      dup2\n        /* \"#utility.yul\":1856:1869   */\n      mload\n        /* \"#utility.yul\":1889:1952   */\n      tag_278\n        /* \"#utility.yul\":1948:1951   */\n      dup9\n        /* \"#utility.yul\":1933:1946   */\n      dup3\n        /* \"#utility.yul\":1889:1952   */\n      tag_196\n      jump\t// in\n    tag_278:\n        /* \"#utility.yul\":1882:1952   */\n      swap8\n      pop\n        /* \"#utility.yul\":1975:2035   */\n      tag_279\n        /* \"#utility.yul\":2028:2034   */\n      dup4\n        /* \"#utility.yul\":1975:2035   */\n      tag_197\n      jump\t// in\n    tag_279:\n        /* \"#utility.yul\":1965:2035   */\n      swap3\n      pop\n        /* \"#utility.yul\":1821:2045   */\n      pop\n        /* \"#utility.yul\":1808:1809   */\n      0x01\n        /* \"#utility.yul\":1805:1806   */\n      dup2\n        /* \"#utility.yul\":1801:1810   */\n      add\n        /* \"#utility.yul\":1796:1810   */\n      swap1\n      pop\n        /* \"#utility.yul\":1761:2045   */\n      jump(tag_275)\n    tag_277:\n        /* \"#utility.yul\":1765:1779   */\n      pop\n        /* \"#utility.yul\":2061:2064   */\n      dup6\n        /* \"#utility.yul\":2054:2064   */\n      swap4\n      pop\n        /* \"#utility.yul\":1462:2070   */\n      pop\n      pop\n      pop\n        /* \"#utility.yul\":1338:2070   */\n      swap3\n      swap2\n      pop\n      pop\n      jump\t// out\n        /* \"#utility.yul\":2076:2449   */\n    tag_22:\n        /* \"#utility.yul\":2219:2223   */\n      0x00\n        /* \"#utility.yul\":2257:2259   */\n      0x20\n        /* \"#utility.yul\":2246:2255   */\n      dup3\n        /* \"#utility.yul\":2242:2260   */\n      add\n        /* \"#utility.yul\":2234:2260   */\n      swap1\n      pop\n        /* \"#utility.yul\":2306:2315   */\n      dup2\n        /* \"#utility.yul\":2300:2304   */\n      dup2\n        /* \"#utility.yul\":2296:2316   */\n      sub\n        /* \"#utility.yul\":2292:2293   */\n      0x00\n        /* \"#utility.yul\":2281:2290   */\n      dup4\n        /* \"#utility.yul\":2277:2294   */\n      add\n        /* \"#utility.yul\":2270:2317   */\n      mstore\n        /* \"#utility.yul\":2334:2442   */\n      tag_281\n        /* \"#utility.yul\":2437:2441   */\n      dup2\n        /* \"#utility.yul\":2428:2434   */\n      dup5\n        /* \"#utility.yul\":2334:2442   */\n      tag_198\n      jump\t// in\n    tag_281:\n        /* \"#utility.yul\":2326:2442   */\n      swap1\n      pop\n        /* \"#utility.yul\":2076:2449   */\n      swap3\n      swap2\n      pop\n      pop\n      jump\t// out\n        /* \"#utility.yul\":2536:2653   */\n    tag_200:\n        /* \"#utility.yul\":2645:2646   */\n      0x00\n        /* \"#utility.yul\":2642:2643   */\n      0x00\n        /* \"#utility.yul\":2635:2647   */\n      revert\n        /* \"#utility.yul\":2659:2776   */\n    tag_201:\n        /* \"#utility.yul\":2768:2769   */\n      0x00\n        /* \"#utility.yul\":2765:2766   */\n      0x00\n        /* \"#utility.yul\":2758:2770   */\n      revert\n        /* \"#utility.yul\":2782:2904   */\n    tag_202:\n        /* \"#utility.yul\":2855:2879   */\n      tag_286\n        /* \"#utility.yul\":2873:2878   */\n      dup2\n        /* \"#utility.yul\":2855:2879   */\n      tag_190\n      jump\t// in\n    tag_286:\n        /* \"#utility.yul\":2848:2853   */\n      dup2\n        /* \"#utility.yul\":2845:2880   */\n      eq\n        /* \"#utility.yul\":2835:2898   */\n      tag_287\n      jumpi\n        /* \"#utility.yul\":2894:2895   */\n      0x00\n        /* \"#utility.yul\":2891:2892   */\n      0x00\n        /* \"#utility.yul\":2884:2896   */\n      revert\n        /* \"#utility.yul\":2835:2898   */\n    tag_287:\n        /* \"#utility.yul\":2782:2904   */\n      pop\n      jump\t// out\n        /* \"#utility.yul\":2910:3049   */\n    tag_203:\n        /* \"#utility.yul\":2956:2961   */\n      0x00\n        /* \"#utility.yul\":2994:3000   */\n      dup2\n        /* \"#utility.yul\":2981:3001   */\n      calldataload\n        /* \"#utility.yul\":2972:3001   */\n      swap1\n      pop\n        /* \"#utility.yul\":3010:3043   */\n      tag_289\n        /* \"#utility.yul\":3037:3042   */\n      dup2\n        /* \"#utility.yul\":3010:3043   */\n      tag_202\n      jump\t// in\n    tag_289:\n        /* \"#utility.yul\":2910:3049   */\n      swap3\n      swap2\n      pop\n      pop\n      jump\t// out\n        /* \"#utility.yul\":3055:3384   */\n    tag_25:\n        /* \"#utility.yul\":3114:3120   */\n      0x00\n        /* \"#utility.yul\":3163:3165   */\n      0x20\n        /* \"#utility.yul\":3151:3160   */\n      dup3\n        /* \"#utility.yul\":3142:3149   */\n      dup5\n        /* \"#utility.yul\":3138:3161   */\n      sub\n        /* \"#utility.yul\":3134:3166   */\n      slt\n        /* \"#utility.yul\":3131:3250   */\n      iszero\n      tag_291\n      jumpi\n        /* \"#utility.yul\":3169:3248   */\n      tag_292\n      tag_200\n      jump\t// in\n    tag_292:\n        /* \"#utility.yul\":3131:3250   */\n    tag_291:\n        /* \"#utility.yul\":3289:3290   */\n      0x00\n        /* \"#utility.yul\":3314:3367   */\n      tag_293\n        /* \"#utility.yul\":3359:3366   */\n      dup5\n        /* \"#utility.yul\":3350:3356   */\n      dup3\n        /* \"#utility.yul\":3339:3348   */\n      dup6\n        /* \"#utility.yul\":3335:3357   */\n      add\n        /* \"#utility.yul\":3314:3367   */\n      tag_203\n      jump\t// in\n    tag_293:\n        /* \"#utility.yul\":3304:3367   */\n      swap2\n      pop\n        /* \"#utility.yul\":3260:3377   */\n      pop\n        /* \"#utility.yul\":3055:3384   */\n      swap3\n      swap2\n      pop\n      pop\n      jump\t// out\n        /* \"#utility.yul\":3390:3507   */\n    tag_204:\n        /* \"#utility.yul\":3499:3500   */\n      0x00\n        /* \"#utility.yul\":3496:3497   */\n      0x00\n        /* \"#utility.yul\":3489:3501   */\n      revert\n        /* \"#utility.yul\":3513:3630   */\n    tag_205:\n        /* \"#utility.yul\":3622:3623   */\n      0x00\n        /* \"#utility.yul\":3619:3620   */\n      0x00\n        /* \"#utility.yul\":3612:3624   */\n      revert\n        /* \"#utility.yul\":3636:3753   */\n    tag_206:\n        /* \"#utility.yul\":3745:3746   */\n      0x00\n        /* \"#utility.yul\":3742:3743   */\n      0x00\n        /* \"#utility.yul\":3735:3747   */\n      revert\n        /* \"#utility.yul\":3773:4326   */\n    tag_207:\n        /* \"#utility.yul\":3831:3839   */\n      0x00\n        /* \"#utility.yul\":3841:3847   */\n      0x00\n        /* \"#utility.yul\":3891:3894   */\n      dup4\n        /* \"#utility.yul\":3884:3888   */\n      0x1f\n        /* \"#utility.yul\":3876:3882   */\n      dup5\n        /* \"#utility.yul\":3872:3889   */\n      add\n        /* \"#utility.yul\":3868:3895   */\n      slt\n        /* \"#utility.yul\":3858:3980   */\n      tag_298\n      jumpi\n        /* \"#utility.yul\":3899:3978   */\n      tag_299\n      tag_204\n      jump\t// in\n    tag_299:\n        /* \"#utility.yul\":3858:3980   */\n    tag_298:\n        /* \"#utility.yul\":4012:4018   */\n      dup3\n        /* \"#utility.yul\":3999:4019   */\n      calldataload\n        /* \"#utility.yul\":3989:4019   */\n      swap1\n      pop\n        /* \"#utility.yul\":4042:4060   */\n      0xffffffffffffffff\n        /* \"#utility.yul\":4034:4040   */\n      dup2\n        /* \"#utility.yul\":4031:4061   */\n      gt\n        /* \"#utility.yul\":4028:4145   */\n      iszero\n      tag_300\n      jumpi\n        /* \"#utility.yul\":4064:4143   */\n      tag_301\n      tag_205\n      jump\t// in\n    tag_301:\n        /* \"#utility.yul\":4028:4145   */\n    tag_300:\n        /* \"#utility.yul\":4178:4182   */\n      0x20\n        /* \"#utility.yul\":4170:4176   */\n      dup4\n        /* \"#utility.yul\":4166:4183   */\n      add\n        /* \"#utility.yul\":4154:4183   */\n      swap2\n      pop\n        /* \"#utility.yul\":4232:4235   */\n      dup4\n        /* \"#utility.yul\":4224:4228   */\n      0x01\n        /* \"#utility.yul\":4216:4222   */\n      dup3\n        /* \"#utility.yul\":4212:4229   */\n      mul\n        /* \"#utility.yul\":4202:4210   */\n      dup4\n        /* \"#utility.yul\":4198:4230   */\n      add\n        /* \"#utility.yul\":4195:4236   */\n      gt\n        /* \"#utility.yul\":4192:4320   */\n      iszero\n      tag_302\n      jumpi\n        /* \"#utility.yul\":4239:4318   */\n      tag_303\n      tag_206\n      jump\t// in\n    tag_303:\n        /* \"#utility.yul\":4192:4320   */\n    tag_302:\n        /* \"#utility.yul\":3773:4326   */\n      swap3\n      pop\n      swap3\n      swap1\n      pop\n      jump\t// out\n        /* \"#utility.yul\":4332:5206   */\n    tag_29:\n        /* \"#utility.yul\":4424:4430   */\n      0x00\n        /* \"#utility.yul\":4432:4438   */\n      0x00\n        /* \"#utility.yul\":4440:4446   */\n      0x00\n        /* \"#utility.yul\":4448:4454   */\n      0x00\n        /* \"#utility.yul\":4497:4499   */\n      0x40\n        /* \"#utility.yul\":4485:4494   */\n      dup6\n        /* \"#utility.yul\":4476:4483   */\n      dup8\n        /* \"#utility.yul\":4472:4495   */\n      sub\n        /* \"#utility.yul\":4468:4500   */\n      slt\n        /* \"#utility.yul\":4465:4584   */\n      iszero\n      tag_305\n      jumpi\n        /* \"#utility.yul\":4503:4582   */\n      tag_306\n      tag_200\n      jump\t// in\n    tag_306:\n        /* \"#utility.yul\":4465:4584   */\n    tag_305:\n        /* \"#utility.yul\":4651:4652   */\n      0x00\n        /* \"#utility.yul\":4640:4649   */\n      dup6\n        /* \"#utility.yul\":4636:4653   */\n      add\n        /* \"#utility.yul\":4623:4654   */\n      calldataload\n        /* \"#utility.yul\":4681:4699   */\n      0xffffffffffffffff\n        /* \"#utility.yul\":4673:4679   */\n      dup2\n        /* \"#utility.yul\":4670:4700   */\n      gt\n        /* \"#utility.yul\":4667:4784   */\n      iszero\n      tag_307\n      jumpi\n        /* \"#utility.yul\":4703:4782   */\n      tag_308\n      tag_201\n      jump\t// in\n    tag_308:\n        /* \"#utility.yul\":4667:4784   */\n    tag_307:\n        /* \"#utility.yul\":4816:4881   */\n      tag_309\n        /* \"#utility.yul\":4873:4880   */\n      dup8\n        /* \"#utility.yul\":4864:4870   */\n      dup3\n        /* \"#utility.yul\":4853:4862   */\n      dup9\n        /* \"#utility.yul\":4849:4871   */\n      add\n        /* \"#utility.yul\":4816:4881   */\n      tag_207\n      jump\t// in\n    tag_309:\n        /* \"#utility.yul\":4798:4881   */\n      swap5\n      pop\n      swap5\n      pop\n        /* \"#utility.yul\":4594:4891   */\n      pop\n        /* \"#utility.yul\":4958:4960   */\n      0x20\n        /* \"#utility.yul\":4947:4956   */\n      dup6\n        /* \"#utility.yul\":4943:4961   */\n      add\n        /* \"#utility.yul\":4930:4962   */\n      calldataload\n        /* \"#utility.yul\":4989:5007   */\n      0xffffffffffffffff\n        /* \"#utility.yul\":4981:4987   */\n      dup2\n        /* \"#utility.yul\":4978:5008   */\n      gt\n        /* \"#utility.yul\":4975:5092   */\n      iszero\n      tag_310\n      jumpi\n        /* \"#utility.yul\":5011:5090   */\n      tag_311\n      tag_201\n      jump\t// in\n    tag_311:\n        /* \"#utility.yul\":4975:5092   */\n    tag_310:\n        /* \"#utility.yul\":5124:5189   */\n      tag_312\n        /* \"#utility.yul\":5181:5188   */\n      dup8\n        /* \"#utility.yul\":5172:5178   */\n      dup3\n        /* \"#utility.yul\":5161:5170   */\n      dup9\n        /* \"#utility.yul\":5157:5179   */\n      add\n        /* \"#utility.yul\":5124:5189   */\n      tag_207\n      jump\t// in\n    tag_312:\n        /* \"#utility.yul\":5106:5189   */\n      swap3\n      pop\n      swap3\n      pop\n        /* \"#utility.yul\":4901:5199   */\n      pop\n        /* \"#utility.yul\":4332:5206   */\n      swap3\n      swap6\n      swap2\n      swap5\n      pop\n      swap3\n      pop\n      jump\t// out\n        /* \"#utility.yul\":5212:5338   */\n    tag_208:\n        /* \"#utility.yul\":5249:5256   */\n      0x00\n        /* \"#utility.yul\":5289:5331   */\n      0xffffffffffffffffffffffffffffffffffffffff\n        /* \"#utility.yul\":5282:5287   */\n      dup3\n        /* \"#utility.yul\":5278:5332   */\n      and\n        /* \"#utility.yul\":5267:5332   */\n      swap1\n      pop\n        /* \"#utility.yul\":5212:5338   */\n      swap2\n      swap1\n      pop\n      jump\t// out\n        /* \"#utility.yul\":5344:5440   */\n    tag_209:\n        /* \"#utility.yul\":5381:5388   */\n      0x00\n        /* \"#utility.yul\":5410:5434   */\n      tag_315\n        /* \"#utility.yul\":5428:5433   */\n      dup3\n        /* \"#utility.yul\":5410:5434   */\n      tag_208\n      jump\t// in\n    tag_315:\n        /* \"#utility.yul\":5399:5434   */\n      swap1\n      pop\n        /* \"#utility.yul\":5344:5440   */\n      swap2\n      swap1\n      pop\n      jump\t// out\n        /* \"#utility.yul\":5446:5564   */\n    tag_210:\n        /* \"#utility.yul\":5533:5557   */\n      tag_317\n        /* \"#utility.yul\":5551:5556   */\n      dup2\n        /* \"#utility.yul\":5533:5557   */\n      tag_209\n      jump\t// in\n    tag_317:\n        /* \"#utility.yul\":5528:5531   */\n      dup3\n        /* \"#utility.yul\":5521:5558   */\n      mstore\n        /* \"#utility.yul\":5446:5564   */\n      pop\n      pop\n      jump\t// out\n        /* \"#utility.yul\":5570:5792   */\n    tag_37:\n        /* \"#utility.yul\":5663:5667   */\n      0x00\n        /* \"#utility.yul\":5701:5703   */\n      0x20\n        /* \"#utility.yul\":5690:5699   */\n      dup3\n        /* \"#utility.yul\":5686:5704   */\n      add\n        /* \"#utility.yul\":5678:5704   */\n      swap1\n      pop\n        /* \"#utility.yul\":5714:5785   */\n      tag_319\n        /* \"#utility.yul\":5782:5783   */\n      0x00\n        /* \"#utility.yul\":5771:5780   */\n      dup4\n        /* \"#utility.yul\":5767:5784   */\n      add\n        /* \"#utility.yul\":5758:5764   */\n      dup5\n        /* \"#utility.yul\":5714:5785   */\n      tag_210\n      jump\t// in\n    tag_319:\n        /* \"#utility.yul\":5570:5792   */\n      swap3\n      swap2\n      pop\n      pop\n      jump\t// out\n        /* \"#utility.yul\":5798:6817   */\n    tag_43:\n        /* \"#utility.yul\":5899:5905   */\n      0x00\n        /* \"#utility.yul\":5907:5913   */\n      0x00\n        /* \"#utility.yul\":5915:5921   */\n      0x00\n        /* \"#utility.yul\":5923:5929   */\n      0x00\n        /* \"#utility.yul\":5931:5937   */\n      0x00\n        /* \"#utility.yul\":5980:5982   */\n      0x60\n        /* \"#utility.yul\":5968:5977   */\n      dup7\n        /* \"#utility.yul\":5959:5966   */\n      dup9\n        /* \"#utility.yul\":5955:5978   */\n      sub\n        /* \"#utility.yul\":5951:5983   */\n      slt\n        /* \"#utility.yul\":5948:6067   */\n      iszero\n      tag_321\n      jumpi\n        /* \"#utility.yul\":5986:6065   */\n      tag_322\n      tag_200\n      jump\t// in\n    tag_322:\n        /* \"#utility.yul\":5948:6067   */\n    tag_321:\n        /* \"#utility.yul\":6106:6107   */\n      0x00\n        /* \"#utility.yul\":6131:6184   */\n      tag_323\n        /* \"#utility.yul\":6176:6183   */\n      dup9\n        /* \"#utility.yul\":6167:6173   */\n      dup3\n        /* \"#utility.yul\":6156:6165   */\n      dup10\n        /* \"#utility.yul\":6152:6174   */\n      add\n        /* \"#utility.yul\":6131:6184   */\n      tag_203\n      jump\t// in\n    tag_323:\n        /* \"#utility.yul\":6121:6184   */\n      swap6\n      pop\n        /* \"#utility.yul\":6077:6194   */\n      pop\n        /* \"#utility.yul\":6261:6263   */\n      0x20\n        /* \"#utility.yul\":6250:6259   */\n      dup7\n        /* \"#utility.yul\":6246:6264   */\n      add\n        /* \"#utility.yul\":6233:6265   */\n      calldataload\n        /* \"#utility.yul\":6292:6310   */\n      0xffffffffffffffff\n        /* \"#utility.yul\":6284:6290   */\n      dup2\n        /* \"#utility.yul\":6281:6311   */\n      gt\n        /* \"#utility.yul\":6278:6395   */\n      iszero\n      tag_324\n      jumpi\n        /* \"#utility.yul\":6314:6393   */\n      tag_325\n      tag_201\n      jump\t// in\n    tag_325:\n        /* \"#utility.yul\":6278:6395   */\n    tag_324:\n        /* \"#utility.yul\":6427:6492   */\n      tag_326\n        /* \"#utility.yul\":6484:6491   */\n      dup9\n        /* \"#utility.yul\":6475:6481   */\n      dup3\n        /* \"#utility.yul\":6464:6473   */\n      dup10\n        /* \"#utility.yul\":6460:6482   */\n      add\n        /* \"#utility.yul\":6427:6492   */\n      tag_207\n      jump\t// in\n    tag_326:\n        /* \"#utility.yul\":6409:6492   */\n      swap5\n      pop\n      swap5\n      pop\n        /* \"#utility.yul\":6204:6502   */\n      pop\n        /* \"#utility.yul\":6569:6571   */\n      0x40\n        /* \"#utility.yul\":6558:6567   */\n      dup7\n        /* \"#utility.yul\":6554:6572   */\n      add\n        /* \"#utility.yul\":6541:6573   */\n      calldataload\n        /* \"#utility.yul\":6600:6618   */\n      0xffffffffffffffff\n        /* \"#utility.yul\":6592:6598   */\n      dup2\n        /* \"#utility.yul\":6589:6619   */\n      gt\n        /* \"#utility.yul\":6586:6703   */\n      iszero\n      tag_327\n      jumpi\n        /* \"#utility.yul\":6622:6701   */\n      tag_328\n      tag_201\n      jump\t// in\n    tag_328:\n        /* \"#utility.yul\":6586:6703   */\n    tag_327:\n        /* \"#utility.yul\":6735:6800   */\n      tag_329\n        /* \"#utility.yul\":6792:6799   */\n      dup9\n        /* \"#utility.yul\":6783:6789   */\n      dup3\n        /* \"#utility.yul\":6772:6781   */\n      dup10\n        /* \"#utility.yul\":6768:6790   */\n      add\n        /* \"#utility.yul\":6735:6800   */\n      tag_207\n      jump\t// in\n    tag_329:\n        /* \"#utility.yul\":6717:6800   */\n      swap3\n      pop\n      swap3\n      pop\n        /* \"#utility.yul\":6512:6810   */\n      pop\n        /* \"#utility.yul\":5798:6817   */\n      swap3\n      swap6\n      pop\n      swap3\n      swap6\n      swap1\n      swap4\n      pop\n      jump\t// out\n        /* \"#utility.yul\":6823:6922   */\n    tag_211:\n        /* \"#utility.yul\":6875:6881   */\n      0x00\n        /* \"#utility.yul\":6909:6914   */\n      dup2\n        /* \"#utility.yul\":6903:6915   */\n      mload\n        /* \"#utility.yul\":6893:6915   */\n      swap1\n      pop\n        /* \"#utility.yul\":6823:6922   */\n      swap2\n      swap1\n      pop\n      jump\t// out\n        /* \"#utility.yul\":6928:7097   */\n    tag_212:\n        /* \"#utility.yul\":7012:7023   */\n      0x00\n        /* \"#utility.yul\":7046:7052   */\n      dup3\n        /* \"#utility.yul\":7041:7044   */\n      dup3\n        /* \"#utility.yul\":7034:7053   */\n      mstore\n        /* \"#utility.yul\":7086:7090   */\n      0x20\n        /* \"#utility.yul\":7081:7084   */\n      dup3\n        /* \"#utility.yul\":7077:7091   */\n      add\n        /* \"#utility.yul\":7062:7091   */\n      swap1\n      pop\n        /* \"#utility.yul\":6928:7097   */\n      swap3\n      swap2\n      pop\n      pop\n      jump\t// out\n        /* \"#utility.yul\":7103:7242   */\n    tag_213:\n        /* \"#utility.yul\":7192:7198   */\n      dup3\n        /* \"#utility.yul\":7187:7190   */\n      dup2\n        /* \"#utility.yul\":7182:7185   */\n      dup4\n        /* \"#utility.yul\":7176:7199   */\n      mcopy\n        /* \"#utility.yul\":7233:7234   */\n      0x00\n        /* \"#utility.yul\":7224:7230   */\n      dup4\n        /* \"#utility.yul\":7219:7222   */\n      dup4\n        /* \"#utility.yul\":7215:7231   */\n      add\n        /* \"#utility.yul\":7208:7235   */\n      mstore\n        /* \"#utility.yul\":7103:7242   */\n      pop\n      pop\n      pop\n      jump\t// out\n        /* \"#utility.yul\":7248:7350   */\n    tag_214:\n        /* \"#utility.yul\":7289:7295   */\n      0x00\n        /* \"#utility.yul\":7340:7342   */\n      0x1f\n        /* \"#utility.yul\":7336:7343   */\n      not\n        /* \"#utility.yul\":7331:7333   */\n      0x1f\n        /* \"#utility.yul\":7324:7329   */\n      dup4\n        /* \"#utility.yul\":7320:7334   */\n      add\n        /* \"#utility.yul\":7316:7344   */\n      and\n        /* \"#utility.yul\":7306:7344   */\n      swap1\n      pop\n        /* \"#utility.yul\":7248:7350   */\n      swap2\n      swap1\n      pop\n      jump\t// out\n        /* \"#utility.yul\":7356:7733   */\n    tag_215:\n        /* \"#utility.yul\":7444:7447   */\n      0x00\n        /* \"#utility.yul\":7472:7511   */\n      tag_335\n        /* \"#utility.yul\":7505:7510   */\n      dup3\n        /* \"#utility.yul\":7472:7511   */\n      tag_211\n      jump\t// in\n    tag_335:\n        /* \"#utility.yul\":7527:7598   */\n      tag_336\n        /* \"#utility.yul\":7591:7597   */\n      dup2\n        /* \"#utility.yul\":7586:7589   */\n      dup6\n        /* \"#utility.yul\":7527:7598   */\n      tag_212\n      jump\t// in\n    tag_336:\n        /* \"#utility.yul\":7520:7598   */\n      swap4\n      pop\n        /* \"#utility.yul\":7607:7672   */\n      tag_337\n        /* \"#utility.yul\":7665:7671   */\n      dup2\n        /* \"#utility.yul\":7660:7663   */\n      dup6\n        /* \"#utility.yul\":7653:7657   */\n      0x20\n        /* \"#utility.yul\":7646:7651   */\n      dup7\n        /* \"#utility.yul\":7642:7658   */\n      add\n        /* \"#utility.yul\":7607:7672   */\n      tag_213\n      jump\t// in\n    tag_337:\n        /* \"#utility.yul\":7697:7726   */\n      tag_338\n        /* \"#utility.yul\":7719:7725   */\n      dup2\n        /* \"#utility.yul\":7697:7726   */\n      tag_214\n      jump\t// in\n    tag_338:\n        /* \"#utility.yul\":7692:7695   */\n      dup5\n        /* \"#utility.yul\":7688:7727   */\n      add\n        /* \"#utility.yul\":7681:7727   */\n      swap2\n      pop\n        /* \"#utility.yul\":7448:7733   */\n      pop\n        /* \"#utility.yul\":7356:7733   */\n      swap3\n      swap2\n      pop\n      pop\n      jump\t// out\n        /* \"#utility.yul\":7739:7829   */\n    tag_216:\n        /* \"#utility.yul\":7773:7780   */\n      0x00\n        /* \"#utility.yul\":7816:7821   */\n      dup2\n        /* \"#utility.yul\":7809:7822   */\n      iszero\n        /* \"#utility.yul\":7802:7823   */\n      iszero\n        /* \"#utility.yul\":7791:7823   */\n      swap1\n      pop\n        /* \"#utility.yul\":7739:7829   */\n      swap2\n      swap1\n      pop\n      jump\t// out\n        /* \"#utility.yul\":7835:7944   */\n    tag_217:\n        /* \"#utility.yul\":7916:7937   */\n      tag_341\n        /* \"#utility.yul\":7931:7936   */\n      dup2\n        /* \"#utility.yul\":7916:7937   */\n      tag_216\n      jump\t// in\n    tag_341:\n        /* \"#utility.yul\":7911:7914   */\n      dup3\n        /* \"#utility.yul\":7904:7938   */\n      mstore\n        /* \"#utility.yul\":7835:7944   */\n      pop\n      pop\n      jump\t// out\n        /* \"#utility.yul\":7950:8784   */\n    tag_49:\n        /* \"#utility.yul\":8189:8193   */\n      0x00\n        /* \"#utility.yul\":8227:8230   */\n      0xa0\n        /* \"#utility.yul\":8216:8225   */\n      dup3\n        /* \"#utility.yul\":8212:8231   */\n      add\n        /* \"#utility.yul\":8204:8231   */\n      swap1\n      pop\n        /* \"#utility.yul\":8241:8312   */\n      tag_343\n        /* \"#utility.yul\":8309:8310   */\n      0x00\n        /* \"#utility.yul\":8298:8307   */\n      dup4\n        /* \"#utility.yul\":8294:8311   */\n      add\n        /* \"#utility.yul\":8285:8291   */\n      dup9\n        /* \"#utility.yul\":8241:8312   */\n      tag_191\n      jump\t// in\n    tag_343:\n        /* \"#utility.yul\":8359:8368   */\n      dup2\n        /* \"#utility.yul\":8353:8357   */\n      dup2\n        /* \"#utility.yul\":8349:8369   */\n      sub\n        /* \"#utility.yul\":8344:8346   */\n      0x20\n        /* \"#utility.yul\":8333:8342   */\n      dup4\n        /* \"#utility.yul\":8329:8347   */\n      add\n        /* \"#utility.yul\":8322:8370   */\n      mstore\n        /* \"#utility.yul\":8387:8465   */\n      tag_344\n        /* \"#utility.yul\":8460:8464   */\n      dup2\n        /* \"#utility.yul\":8451:8457   */\n      dup8\n        /* \"#utility.yul\":8387:8465   */\n      tag_215\n      jump\t// in\n    tag_344:\n        /* \"#utility.yul\":8379:8465   */\n      swap1\n      pop\n        /* \"#utility.yul\":8512:8521   */\n      dup2\n        /* \"#utility.yul\":8506:8510   */\n      dup2\n        /* \"#utility.yul\":8502:8522   */\n      sub\n        /* \"#utility.yul\":8497:8499   */\n      0x40\n        /* \"#utility.yul\":8486:8495   */\n      dup4\n        /* \"#utility.yul\":8482:8500   */\n      add\n        /* \"#utility.yul\":8475:8523   */\n      mstore\n        /* \"#utility.yul\":8540:8618   */\n      tag_345\n        /* \"#utility.yul\":8613:8617   */\n      dup2\n        /* \"#utility.yul\":8604:8610   */\n      dup7\n        /* \"#utility.yul\":8540:8618   */\n      tag_215\n      jump\t// in\n    tag_345:\n        /* \"#utility.yul\":8532:8618   */\n      swap1\n      pop\n        /* \"#utility.yul\":8628:8700   */\n      tag_346\n        /* \"#utility.yul\":8696:8698   */\n      0x60\n        /* \"#utility.yul\":8685:8694   */\n      dup4\n        /* \"#utility.yul\":8681:8699   */\n      add\n        /* \"#utility.yul\":8672:8678   */\n      dup6\n        /* \"#utility.yul\":8628:8700   */\n      tag_191\n      jump\t// in\n    tag_346:\n        /* \"#utility.yul\":8710:8777   */\n      tag_347\n        /* \"#utility.yul\":8772:8775   */\n      0x80\n        /* \"#utility.yul\":8761:8770   */\n      dup4\n        /* \"#utility.yul\":8757:8776   */\n      add\n        /* \"#utility.yul\":8748:8754   */\n      dup5\n        /* \"#utility.yul\":8710:8777   */\n      tag_217\n      jump\t// in\n    tag_347:\n        /* \"#utility.yul\":7950:8784   */\n      swap7\n      swap6\n      pop\n      pop\n      pop\n      pop\n      pop\n      pop\n      jump\t// out\n        /* \"#utility.yul\":8790:8949   */\n    tag_218:\n        /* \"#utility.yul\":8864:8875   */\n      0x00\n        /* \"#utility.yul\":8898:8904   */\n      dup3\n        /* \"#utility.yul\":8893:8896   */\n      dup3\n        /* \"#utility.yul\":8886:8905   */\n      mstore\n        /* \"#utility.yul\":8938:8942   */\n      0x20\n        /* \"#utility.yul\":8933:8936   */\n      dup3\n        /* \"#utility.yul\":8929:8943   */\n      add\n        /* \"#utility.yul\":8914:8943   */\n      swap1\n      pop\n        /* \"#utility.yul\":8790:8949   */\n      swap3\n      swap2\n      pop\n      pop\n      jump\t// out\n        /* \"#utility.yul\":8955:9312   */\n    tag_219:\n        /* \"#utility.yul\":9033:9036   */\n      0x00\n        /* \"#utility.yul\":9061:9100   */\n      tag_350\n        /* \"#utility.yul\":9094:9099   */\n      dup3\n        /* \"#utility.yul\":9061:9100   */\n      tag_211\n      jump\t// in\n    tag_350:\n        /* \"#utility.yul\":9116:9177   */\n      tag_351\n        /* \"#utility.yul\":9170:9176   */\n      dup2\n        /* \"#utility.yul\":9165:9168   */\n      dup6\n        /* \"#utility.yul\":9116:9177   */\n      tag_218\n      jump\t// in\n    tag_351:\n        /* \"#utility.yul\":9109:9177   */\n      swap4\n      pop\n        /* \"#utility.yul\":9186:9251   */\n      tag_352\n        /* \"#utility.yul\":9244:9250   */\n      dup2\n        /* \"#utility.yul\":9239:9242   */\n      dup6\n        /* \"#utility.yul\":9232:9236   */\n      0x20\n        /* \"#utility.yul\":9225:9230   */\n      dup7\n        /* \"#utility.yul\":9221:9237   */\n      add\n        /* \"#utility.yul\":9186:9251   */\n      tag_213\n      jump\t// in\n    tag_352:\n        /* \"#utility.yul\":9276:9305   */\n      tag_353\n        /* \"#utility.yul\":9298:9304   */\n      dup2\n        /* \"#utility.yul\":9276:9305   */\n      tag_214\n      jump\t// in\n    tag_353:\n        /* \"#utility.yul\":9271:9274   */\n      dup5\n        /* \"#utility.yul\":9267:9306   */\n      add\n        /* \"#utility.yul\":9260:9306   */\n      swap2\n      pop\n        /* \"#utility.yul\":9037:9312   */\n      pop\n        /* \"#utility.yul\":8955:9312   */\n      swap3\n      swap2\n      pop\n      pop\n      jump\t// out\n        /* \"#utility.yul\":9318:9417   */\n    tag_220:\n        /* \"#utility.yul\":9389:9410   */\n      tag_355\n        /* \"#utility.yul\":9404:9409   */\n      dup2\n        /* \"#utility.yul\":9389:9410   */\n      tag_216\n      jump\t// in\n    tag_355:\n        /* \"#utility.yul\":9384:9387   */\n      dup3\n        /* \"#utility.yul\":9377:9411   */\n      mstore\n        /* \"#utility.yul\":9318:9417   */\n      pop\n      pop\n      jump\t// out\n        /* \"#utility.yul\":9495:10698   */\n    tag_221:\n        /* \"#utility.yul\":9608:9611   */\n      0x00\n        /* \"#utility.yul\":9644:9648   */\n      0xa0\n        /* \"#utility.yul\":9639:9642   */\n      dup4\n        /* \"#utility.yul\":9635:9649   */\n      add\n        /* \"#utility.yul\":9734:9738   */\n      0x00\n        /* \"#utility.yul\":9727:9732   */\n      dup4\n        /* \"#utility.yul\":9723:9739   */\n      add\n        /* \"#utility.yul\":9717:9740   */\n      mload\n        /* \"#utility.yul\":9753:9816   */\n      tag_357\n        /* \"#utility.yul\":9810:9814   */\n      0x00\n        /* \"#utility.yul\":9805:9808   */\n      dup7\n        /* \"#utility.yul\":9801:9815   */\n      add\n        /* \"#utility.yul\":9787:9799   */\n      dup3\n        /* \"#utility.yul\":9753:9816   */\n      tag_195\n      jump\t// in\n    tag_357:\n        /* \"#utility.yul\":9659:9826   */\n      pop\n        /* \"#utility.yul\":9908:9912   */\n      0x20\n        /* \"#utility.yul\":9901:9906   */\n      dup4\n        /* \"#utility.yul\":9897:9913   */\n      add\n        /* \"#utility.yul\":9891:9914   */\n      mload\n        /* \"#utility.yul\":9961:9964   */\n      dup5\n        /* \"#utility.yul\":9955:9959   */\n      dup3\n        /* \"#utility.yul\":9951:9965   */\n      sub\n        /* \"#utility.yul\":9944:9948   */\n      0x20\n        /* \"#utility.yul\":9939:9942   */\n      dup7\n        /* \"#utility.yul\":9935:9949   */\n      add\n        /* \"#utility.yul\":9928:9966   */\n      mstore\n        /* \"#utility.yul\":9987:10060   */\n      tag_358\n        /* \"#utility.yul\":10055:10059   */\n      dup3\n        /* \"#utility.yul\":10041:10053   */\n      dup3\n        /* \"#utility.yul\":9987:10060   */\n      tag_219\n      jump\t// in\n    tag_358:\n        /* \"#utility.yul\":9979:10060   */\n      swap2\n      pop\n        /* \"#utility.yul\":9836:10071   */\n      pop\n        /* \"#utility.yul\":10155:10159   */\n      0x40\n        /* \"#utility.yul\":10148:10153   */\n      dup4\n        /* \"#utility.yul\":10144:10160   */\n      add\n        /* \"#utility.yul\":10138:10161   */\n      mload\n        /* \"#utility.yul\":10208:10211   */\n      dup5\n        /* \"#utility.yul\":10202:10206   */\n      dup3\n        /* \"#utility.yul\":10198:10212   */\n      sub\n        /* \"#utility.yul\":10191:10195   */\n      0x40\n        /* \"#utility.yul\":10186:10189   */\n      dup7\n        /* \"#utility.yul\":10182:10196   */\n      add\n        /* \"#utility.yul\":10175:10213   */\n      mstore\n        /* \"#utility.yul\":10234:10307   */\n      tag_359\n        /* \"#utility.yul\":10302:10306   */\n      dup3\n        /* \"#utility.yul\":10288:10300   */\n      dup3\n        /* \"#utility.yul\":10234:10307   */\n      tag_219\n      jump\t// in\n    tag_359:\n        /* \"#utility.yul\":10226:10307   */\n      swap2\n      pop\n        /* \"#utility.yul\":10081:10318   */\n      pop\n        /* \"#utility.yul\":10407:10411   */\n      0x60\n        /* \"#utility.yul\":10400:10405   */\n      dup4\n        /* \"#utility.yul\":10396:10412   */\n      add\n        /* \"#utility.yul\":10390:10413   */\n      mload\n        /* \"#utility.yul\":10426:10489   */\n      tag_360\n        /* \"#utility.yul\":10483:10487   */\n      0x60\n        /* \"#utility.yul\":10478:10481   */\n      dup7\n        /* \"#utility.yul\":10474:10488   */\n      add\n        /* \"#utility.yul\":10460:10472   */\n      dup3\n        /* \"#utility.yul\":10426:10489   */\n      tag_195\n      jump\t// in\n    tag_360:\n        /* \"#utility.yul\":10328:10499   */\n      pop\n        /* \"#utility.yul\":10585:10589   */\n      0x80\n        /* \"#utility.yul\":10578:10583   */\n      dup4\n        /* \"#utility.yul\":10574:10590   */\n      add\n        /* \"#utility.yul\":10568:10591   */\n      mload\n        /* \"#utility.yul\":10604:10661   */\n      tag_361\n        /* \"#utility.yul\":10655:10659   */\n      0x80\n        /* \"#utility.yul\":10650:10653   */\n      dup7\n        /* \"#utility.yul\":10646:10660   */\n      add\n        /* \"#utility.yul\":10632:10644   */\n      dup3\n        /* \"#utility.yul\":10604:10661   */\n      tag_220\n      jump\t// in\n    tag_361:\n        /* \"#utility.yul\":10509:10671   */\n      pop\n        /* \"#utility.yul\":10688:10692   */\n      dup1\n        /* \"#utility.yul\":10681:10692   */\n      swap2\n      pop\n        /* \"#utility.yul\":9613:10698   */\n      pop\n        /* \"#utility.yul\":9495:10698   */\n      swap3\n      swap2\n      pop\n      pop\n      jump\t// out\n        /* \"#utility.yul\":10704:11065   */\n    tag_54:\n        /* \"#utility.yul\":10841:10845   */\n      0x00\n        /* \"#utility.yul\":10879:10881   */\n      0x20\n        /* \"#utility.yul\":10868:10877   */\n      dup3\n        /* \"#utility.yul\":10864:10882   */\n      add\n        /* \"#utility.yul\":10856:10882   */\n      swap1\n      pop\n        /* \"#utility.yul\":10928:10937   */\n      dup2\n        /* \"#utility.yul\":10922:10926   */\n      dup2\n        /* \"#utility.yul\":10918:10938   */\n      sub\n        /* \"#utility.yul\":10914:10915   */\n      0x00\n        /* \"#utility.yul\":10903:10912   */\n      dup4\n        /* \"#utility.yul\":10899:10916   */\n      add\n        /* \"#utility.yul\":10892:10939   */\n      mstore\n        /* \"#utility.yul\":10956:11058   */\n      tag_363\n        /* \"#utility.yul\":11053:11057   */\n      dup2\n        /* \"#utility.yul\":11044:11050   */\n      dup5\n        /* \"#utility.yul\":10956:11058   */\n      tag_221\n      jump\t// in\n    tag_363:\n        /* \"#utility.yul\":10948:11058   */\n      swap1\n      pop\n        /* \"#utility.yul\":10704:11065   */\n      swap3\n      swap2\n      pop\n      pop\n      jump\t// out\n        /* \"#utility.yul\":11071:11193   */\n    tag_222:\n        /* \"#utility.yul\":11144:11168   */\n      tag_365\n        /* \"#utility.yul\":11162:11167   */\n      dup2\n        /* \"#utility.yul\":11144:11168   */\n      tag_209\n      jump\t// in\n    tag_365:\n        /* \"#utility.yul\":11137:11142   */\n      dup2\n        /* \"#utility.yul\":11134:11169   */\n      eq\n        /* \"#utility.yul\":11124:11187   */\n      tag_366\n      jumpi\n        /* \"#utility.yul\":11183:11184   */\n      0x00\n        /* \"#utility.yul\":11180:11181   */\n      0x00\n        /* \"#utility.yul\":11173:11185   */\n      revert\n        /* \"#utility.yul\":11124:11187   */\n    tag_366:\n        /* \"#utility.yul\":11071:11193   */\n      pop\n      jump\t// out\n        /* \"#utility.yul\":11199:11338   */\n    tag_223:\n        /* \"#utility.yul\":11245:11250   */\n      0x00\n        /* \"#utility.yul\":11283:11289   */\n      dup2\n        /* \"#utility.yul\":11270:11290   */\n      calldataload\n        /* \"#utility.yul\":11261:11290   */\n      swap1\n      pop\n        /* \"#utility.yul\":11299:11332   */\n      tag_368\n        /* \"#utility.yul\":11326:11331   */\n      dup2\n        /* \"#utility.yul\":11299:11332   */\n      tag_222\n      jump\t// in\n    tag_368:\n        /* \"#utility.yul\":11199:11338   */\n      swap3\n      swap2\n      pop\n      pop\n      jump\t// out\n        /* \"#utility.yul\":11344:11673   */\n    tag_57:\n        /* \"#utility.yul\":11403:11409   */\n      0x00\n        /* \"#utility.yul\":11452:11454   */\n      0x20\n        /* \"#utility.yul\":11440:11449   */\n      dup3\n        /* \"#utility.yul\":11431:11438   */\n      dup5\n        /* \"#utility.yul\":11427:11450   */\n      sub\n        /* \"#utility.yul\":11423:11455   */\n      slt\n        /* \"#utility.yul\":11420:11539   */\n      iszero\n      tag_370\n      jumpi\n        /* \"#utility.yul\":11458:11537   */\n      tag_371\n      tag_200\n      jump\t// in\n    tag_371:\n        /* \"#utility.yul\":11420:11539   */\n    tag_370:\n        /* \"#utility.yul\":11578:11579   */\n      0x00\n        /* \"#utility.yul\":11603:11656   */\n      tag_372\n        /* \"#utility.yul\":11648:11655   */\n      dup5\n        /* \"#utility.yul\":11639:11645   */\n      dup3\n        /* \"#utility.yul\":11628:11637   */\n      dup6\n        /* \"#utility.yul\":11624:11646   */\n      add\n        /* \"#utility.yul\":11603:11656   */\n      tag_223\n      jump\t// in\n    tag_372:\n        /* \"#utility.yul\":11593:11656   */\n      swap2\n      pop\n        /* \"#utility.yul\":11549:11666   */\n      pop\n        /* \"#utility.yul\":11344:11673   */\n      swap3\n      swap2\n      pop\n      pop\n      jump\t// out\n        /* \"#utility.yul\":11679:11851   */\n    tag_224:\n        /* \"#utility.yul\":11819:11843   */\n      0x417373657420616c72656164792064656c697374656400000000000000000000\n        /* \"#utility.yul\":11815:11816   */\n      0x00\n        /* \"#utility.yul\":11807:11813   */\n      dup3\n        /* \"#utility.yul\":11803:11817   */\n      add\n        /* \"#utility.yul\":11796:11844   */\n      mstore\n        /* \"#utility.yul\":11679:11851   */\n      pop\n      jump\t// out\n        /* \"#utility.yul\":11857:12223   */\n    tag_225:\n        /* \"#utility.yul\":11999:12002   */\n      0x00\n        /* \"#utility.yul\":12020:12087   */\n      tag_375\n        /* \"#utility.yul\":12084:12086   */\n      0x16\n        /* \"#utility.yul\":12079:12082   */\n      dup4\n        /* \"#utility.yul\":12020:12087   */\n      tag_212\n      jump\t// in\n    tag_375:\n        /* \"#utility.yul\":12013:12087   */\n      swap2\n      pop\n        /* \"#utility.yul\":12096:12189   */\n      tag_376\n        /* \"#utility.yul\":12185:12188   */\n      dup3\n        /* \"#utility.yul\":12096:12189   */\n      tag_224\n      jump\t// in\n    tag_376:\n        /* \"#utility.yul\":12214:12216   */\n      0x20\n        /* \"#utility.yul\":12209:12212   */\n      dup3\n        /* \"#utility.yul\":12205:12217   */\n      add\n        /* \"#utility.yul\":12198:12217   */\n      swap1\n      pop\n        /* \"#utility.yul\":11857:12223   */\n      swap2\n      swap1\n      pop\n      jump\t// out\n        /* \"#utility.yul\":12229:12648   */\n    tag_72:\n        /* \"#utility.yul\":12395:12399   */\n      0x00\n        /* \"#utility.yul\":12433:12435   */\n      0x20\n        /* \"#utility.yul\":12422:12431   */\n      dup3\n        /* \"#utility.yul\":12418:12436   */\n      add\n        /* \"#utility.yul\":12410:12436   */\n      swap1\n      pop\n        /* \"#utility.yul\":12482:12491   */\n      dup2\n        /* \"#utility.yul\":12476:12480   */\n      dup2\n        /* \"#utility.yul\":12472:12492   */\n      sub\n        /* \"#utility.yul\":12468:12469   */\n      0x00\n        /* \"#utility.yul\":12457:12466   */\n      dup4\n        /* \"#utility.yul\":12453:12470   */\n      add\n        /* \"#utility.yul\":12446:12493   */\n      mstore\n        /* \"#utility.yul\":12510:12641   */\n      tag_378\n        /* \"#utility.yul\":12636:12640   */\n      dup2\n        /* \"#utility.yul\":12510:12641   */\n      tag_225\n      jump\t// in\n    tag_378:\n        /* \"#utility.yul\":12502:12641   */\n      swap1\n      pop\n        /* \"#utility.yul\":12229:12648   */\n      swap2\n      swap1\n      pop\n      jump\t// out\n        /* \"#utility.yul\":12654:12817   */\n    tag_226:\n        /* \"#utility.yul\":12794:12809   */\n      0x4e616d6520726571756972656400000000000000000000000000000000000000\n        /* \"#utility.yul\":12790:12791   */\n      0x00\n        /* \"#utility.yul\":12782:12788   */\n      dup3\n        /* \"#utility.yul\":12778:12792   */\n      add\n        /* \"#utility.yul\":12771:12810   */\n      mstore\n        /* \"#utility.yul\":12654:12817   */\n      pop\n      jump\t// out\n        /* \"#utility.yul\":12823:13189   */\n    tag_227:\n        /* \"#utility.yul\":12965:12968   */\n      0x00\n        /* \"#utility.yul\":12986:13053   */\n      tag_381\n        /* \"#utility.yul\":13050:13052   */\n      0x0d\n        /* \"#utility.yul\":13045:13048   */\n      dup4\n        /* \"#utility.yul\":12986:13053   */\n      tag_212\n      jump\t// in\n    tag_381:\n        /* \"#utility.yul\":12979:13053   */\n      swap2\n      pop\n        /* \"#utility.yul\":13062:13155   */\n      tag_382\n        /* \"#utility.yul\":13151:13154   */\n      dup3\n        /* \"#utility.yul\":13062:13155   */\n      tag_226\n      jump\t// in\n    tag_382:\n        /* \"#utility.yul\":13180:13182   */\n      0x20\n        /* \"#utility.yul\":13175:13178   */\n      dup3\n        /* \"#utility.yul\":13171:13183   */\n      add\n        /* \"#utility.yul\":13164:13183   */\n      swap1\n      pop\n        /* \"#utility.yul\":12823:13189   */\n      swap2\n      swap1\n      pop\n      jump\t// out\n        /* \"#utility.yul\":13195:13614   */\n    tag_85:\n        /* \"#utility.yul\":13361:13365   */\n      0x00\n        /* \"#utility.yul\":13399:13401   */\n      0x20\n        /* \"#utility.yul\":13388:13397   */\n      dup3\n        /* \"#utility.yul\":13384:13402   */\n      add\n        /* \"#utility.yul\":13376:13402   */\n      swap1\n      pop\n        /* \"#utility.yul\":13448:13457   */\n      dup2\n        /* \"#utility.yul\":13442:13446   */\n      dup2\n        /* \"#utility.yul\":13438:13458   */\n      sub\n        /* \"#utility.yul\":13434:13435   */\n      0x00\n        /* \"#utility.yul\":13423:13432   */\n      dup4\n        /* \"#utility.yul\":13419:13436   */\n      add\n        /* \"#utility.yul\":13412:13459   */\n      mstore\n        /* \"#utility.yul\":13476:13607   */\n      tag_384\n        /* \"#utility.yul\":13602:13606   */\n      dup2\n        /* \"#utility.yul\":13476:13607   */\n      tag_227\n      jump\t// in\n    tag_384:\n        /* \"#utility.yul\":13468:13607   */\n      swap1\n      pop\n        /* \"#utility.yul\":13195:13614   */\n      swap2\n      swap1\n      pop\n      jump\t// out\n        /* \"#utility.yul\":13620:13785   */\n    tag_228:\n        /* \"#utility.yul\":13760:13777   */\n      0x53796d626f6c2072657175697265640000000000000000000000000000000000\n        /* \"#utility.yul\":13756:13757   */\n      0x00\n        /* \"#utility.yul\":13748:13754   */\n      dup3\n        /* \"#utility.yul\":13744:13758   */\n      add\n        /* \"#utility.yul\":13737:13778   */\n      mstore\n        /* \"#utility.yul\":13620:13785   */\n      pop\n      jump\t// out\n        /* \"#utility.yul\":13791:14157   */\n    tag_229:\n        /* \"#utility.yul\":13933:13936   */\n      0x00\n        /* \"#utility.yul\":13954:14021   */\n      tag_387\n        /* \"#utility.yul\":14018:14020   */\n      0x0f\n        /* \"#utility.yul\":14013:14016   */\n      dup4\n        /* \"#utility.yul\":13954:14021   */\n      tag_212\n      jump\t// in\n    tag_387:\n        /* \"#utility.yul\":13947:14021   */\n      swap2\n      pop\n        /* \"#utility.yul\":14030:14123   */\n      tag_388\n        /* \"#utility.yul\":14119:14122   */\n      dup3\n        /* \"#utility.yul\":14030:14123   */\n      tag_228\n      jump\t// in\n    tag_388:\n        /* \"#utility.yul\":14148:14150   */\n      0x20\n        /* \"#utility.yul\":14143:14146   */\n      dup3\n        /* \"#utility.yul\":14139:14151   */\n      add\n        /* \"#utility.yul\":14132:14151   */\n      swap1\n      pop\n        /* \"#utility.yul\":13791:14157   */\n      swap2\n      swap1\n      pop\n      jump\t// out\n        /* \"#utility.yul\":14163:14582   */\n    tag_88:\n        /* \"#utility.yul\":14329:14333   */\n      0x00\n        /* \"#utility.yul\":14367:14369   */\n      0x20\n        /* \"#utility.yul\":14356:14365   */\n      dup3\n        /* \"#utility.yul\":14352:14370   */\n      add\n        /* \"#utility.yul\":14344:14370   */\n      swap1\n      pop\n        /* \"#utility.yul\":14416:14425   */\n      dup2\n        /* \"#utility.yul\":14410:14414   */\n      dup2\n        /* \"#utility.yul\":14406:14426   */\n      sub\n        /* \"#utility.yul\":14402:14403   */\n      0x00\n        /* \"#utility.yul\":14391:14400   */\n      dup4\n        /* \"#utility.yul\":14387:14404   */\n      add\n        /* \"#utility.yul\":14380:14427   */\n      mstore\n        /* \"#utility.yul\":14444:14575   */\n      tag_390\n        /* \"#utility.yul\":14570:14574   */\n      dup2\n        /* \"#utility.yul\":14444:14575   */\n      tag_229\n      jump\t// in\n    tag_390:\n        /* \"#utility.yul\":14436:14575   */\n      swap1\n      pop\n        /* \"#utility.yul\":14163:14582   */\n      swap2\n      swap1\n      pop\n      jump\t// out\n        /* \"#utility.yul\":14588:14768   */\n    tag_230:\n        /* \"#utility.yul\":14636:14713   */\n      0x4e487b7100000000000000000000000000000000000000000000000000000000\n        /* \"#utility.yul\":14633:14634   */\n      0x00\n        /* \"#utility.yul\":14626:14714   */\n      mstore\n        /* \"#utility.yul\":14733:14737   */\n      0x11\n        /* \"#utility.yul\":14730:14731   */\n      0x04\n        /* \"#utility.yul\":14723:14738   */\n      mstore\n        /* \"#utility.yul\":14757:14761   */\n      0x24\n        /* \"#utility.yul\":14754:14755   */\n      0x00\n        /* \"#utility.yul\":14747:14762   */\n      revert\n        /* \"#utility.yul\":14774:15007   */\n    tag_90:\n        /* \"#utility.yul\":14813:14816   */\n      0x00\n        /* \"#utility.yul\":14836:14860   */\n      tag_393\n        /* \"#utility.yul\":14854:14859   */\n      dup3\n        /* \"#utility.yul\":14836:14860   */\n      tag_190\n      jump\t// in\n    tag_393:\n        /* \"#utility.yul\":14827:14860   */\n      swap2\n      pop\n        /* \"#utility.yul\":14882:14948   */\n      0xffffffffffffffffffffffffffffffffffffffffffffffffffffffffffffffff\n        /* \"#utility.yul\":14875:14880   */\n      dup3\n        /* \"#utility.yul\":14872:14949   */\n      sub\n        /* \"#utility.yul\":14869:14972   */\n      tag_394\n      jumpi\n        /* \"#utility.yul\":14952:14970   */\n      tag_395\n      tag_230\n      jump\t// in\n    tag_395:\n        /* \"#utility.yul\":14869:14972   */\n    tag_394:\n        /* \"#utility.yul\":14999:15000   */\n      0x01\n        /* \"#utility.yul\":14992:14997   */\n      dup3\n        /* \"#utility.yul\":14988:15001   */\n      add\n        /* \"#utility.yul\":14981:15001   */\n      swap1\n      pop\n        /* \"#utility.yul\":14774:15007   */\n      swap2\n      swap1\n      pop\n      jump\t// out\n        /* \"#utility.yul\":15013:15193   */\n    tag_231:\n        /* \"#utility.yul\":15061:15138   */\n      0x4e487b7100000000000000000000000000000000000000000000000000000000\n        /* \"#utility.yul\":15058:15059   */\n      0x00\n        /* \"#utility.yul\":15051:15139   */\n      mstore\n        /* \"#utility.yul\":15158:15162   */\n      0x41\n        /* \"#utility.yul\":15155:15156   */\n      0x04\n        /* \"#utility.yul\":15148:15163   */\n      mstore\n        /* \"#utility.yul\":15182:15186   */\n      0x24\n        /* \"#utility.yul\":15179:15180   */\n      0x00\n        /* \"#utility.yul\":15172:15187   */\n      revert\n        /* \"#utility.yul\":15199:15379   */\n    tag_232:\n        /* \"#utility.yul\":15247:15324   */\n      0x4e487b7100000000000000000000000000000000000000000000000000000000\n        /* \"#utility.yul\":15244:15245   */\n      0x00\n        /* \"#utility.yul\":15237:15325   */\n      mstore\n        /* \"#utility.yul\":15344:15348   */\n      0x22\n        /* \"#utility.yul\":15341:15342   */\n      0x04\n        /* \"#utility.yul\":15334:15349   */\n      mstore\n        /* \"#utility.yul\":15368:15372   */\n      0x24\n        /* \"#utility.yul\":15365:15366   */\n      0x00\n        /* \"#utility.yul\":15358:15373   */\n      revert\n        /* \"#utility.yul\":15385:15705   */\n    tag_123:\n        /* \"#utility.yul\":15429:15435   */\n      0x00\n        /* \"#utility.yul\":15466:15467   */\n      0x02\n        /* \"#utility.yul\":15460:15464   */\n      dup3\n        /* \"#utility.yul\":15456:15468   */\n      div\n        /* \"#utility.yul\":15446:15468   */\n      swap1\n      pop\n        /* \"#utility.yul\":15513:15514   */\n      0x01\n        /* \"#utility.yul\":15507:15511   */\n      dup3\n        /* \"#utility.yul\":15503:15515   */\n      and\n        /* \"#utility.yul\":15534:15552   */\n      dup1\n        /* \"#utility.yul\":15524:15605   */\n      tag_399\n      jumpi\n        /* \"#utility.yul\":15590:15594   */\n      0x7f\n        /* \"#utility.yul\":15582:15588   */\n      dup3\n        /* \"#utility.yul\":15578:15595   */\n      and\n        /* \"#utility.yul\":15568:15595   */\n      swap2\n      pop\n        /* \"#utility.yul\":15524:15605   */\n    tag_399:\n        /* \"#utility.yul\":15652:15654   */\n      0x20\n        /* \"#utility.yul\":15644:15650   */\n      dup3\n        /* \"#utility.yul\":15641:15655   */\n      lt\n        /* \"#utility.yul\":15621:15639   */\n      dup2\n        /* \"#utility.yul\":15618:15656   */\n      sub\n        /* \"#utility.yul\":15615:15699   */\n      tag_400\n      jumpi\n        /* \"#utility.yul\":15671:15689   */\n      tag_401\n      tag_232\n      jump\t// in\n    tag_401:\n        /* \"#utility.yul\":15615:15699   */\n    tag_400:\n        /* \"#utility.yul\":15436:15705   */\n      pop\n        /* \"#utility.yul\":15385:15705   */\n      swap2\n      swap1\n      pop\n      jump\t// out\n        /* \"#utility.yul\":15711:15852   */\n    tag_233:\n        /* \"#utility.yul\":15760:15764   */\n      0x00\n        /* \"#utility.yul\":15783:15786   */\n      dup2\n        /* \"#utility.yul\":15775:15786   */\n      swap1\n      pop\n        /* \"#utility.yul\":15806:15809   */\n      dup2\n        /* \"#utility.yul\":15803:15804   */\n      0x00\n        /* \"#utility.yul\":15796:15810   */\n      mstore\n        /* \"#utility.yul\":15840:15844   */\n      0x20\n        /* \"#utility.yul\":15837:15838   */\n      0x00\n        /* \"#utility.yul\":15827:15845   */\n      keccak256\n        /* \"#utility.yul\":15819:15845   */\n      swap1\n      pop\n        /* \"#utility.yul\":15711:15852   */\n      swap2\n      swap1\n      pop\n      jump\t// out\n        /* \"#utility.yul\":15858:15951   */\n    tag_234:\n        /* \"#utility.yul\":15895:15901   */\n      0x00\n        /* \"#utility.yul\":15942:15944   */\n      0x20\n        /* \"#utility.yul\":15937:15939   */\n      0x1f\n        /* \"#utility.yul\":15930:15935   */\n      dup4\n        /* \"#utility.yul\":15926:15940   */\n      add\n        /* \"#utility.yul\":15922:15945   */\n      div\n        /* \"#utility.yul\":15912:15945   */\n      swap1\n      pop\n        /* \"#utility.yul\":15858:15951   */\n      swap2\n      swap1\n      pop\n      jump\t// out\n        /* \"#utility.yul\":15957:16064   */\n    tag_235:\n        /* \"#utility.yul\":16001:16009   */\n      0x00\n        /* \"#utility.yul\":16051:16056   */\n      dup3\n        /* \"#utility.yul\":16045:16049   */\n      dup3\n        /* \"#utility.yul\":16041:16057   */\n      shl\n        /* \"#utility.yul\":16020:16057   */\n      swap1\n      pop\n        /* \"#utility.yul\":15957:16064   */\n      swap3\n      swap2\n      pop\n      pop\n      jump\t// out\n        /* \"#utility.yul\":16070:16463   */\n    tag_236:\n        /* \"#utility.yul\":16139:16145   */\n      0x00\n        /* \"#utility.yul\":16189:16190   */\n      0x08\n        /* \"#utility.yul\":16177:16187   */\n      dup4\n        /* \"#utility.yul\":16173:16191   */\n      mul\n        /* \"#utility.yul\":16212:16309   */\n      tag_406\n        /* \"#utility.yul\":16242:16308   */\n      0xffffffffffffffffffffffffffffffffffffffffffffffffffffffffffffffff\n        /* \"#utility.yul\":16231:16240   */\n      dup3\n        /* \"#utility.yul\":16212:16309   */\n      tag_235\n      jump\t// in\n    tag_406:\n        /* \"#utility.yul\":16330:16369   */\n      tag_407\n        /* \"#utility.yul\":16360:16368   */\n      dup7\n        /* \"#utility.yul\":16349:16358   */\n      dup4\n        /* \"#utility.yul\":16330:16369   */\n      tag_235\n      jump\t// in\n    tag_407:\n        /* \"#utility.yul\":16318:16369   */\n      swap6\n      pop\n        /* \"#utility.yul\":16402:16406   */\n      dup1\n        /* \"#utility.yul\":16398:16407   */\n      not\n        /* \"#utility.yul\":16391:16396   */\n      dup5\n        /* \"#utility.yul\":16387:16408   */\n      and\n        /* \"#utility.yul\":16378:16408   */\n      swap4\n      pop\n        /* \"#utility.yul\":16451:16455   */\n      dup1\n        /* \"#utility.yul\":16441:16449   */\n      dup7\n        /* \"#utility.yul\":16437:16456   */\n      and\n        /* \"#utility.yul\":16430:16435   */\n      dup5\n        /* \"#utility.yul\":16427:16457   */\n      or\n        /* \"#utility.yul\":16417:16457   */\n      swap3\n      pop\n        /* \"#utility.yul\":16146:16463   */\n      pop\n      pop\n        /* \"#utility.yul\":16070:16463   */\n      swap4\n      swap3\n      pop\n      pop\n      pop\n      jump\t// out\n        /* \"#utility.yul\":16469:16529   */\n    tag_237:\n        /* \"#utility.yul\":16497:16500   */\n      0x00\n        /* \"#utility.yul\":16518:16523   */\n      dup2\n        /* \"#utility.yul\":16511:16523   */\n      swap1\n      pop\n        /* \"#utility.yul\":16469:16529   */\n      swap2\n      swap1\n      pop\n      jump\t// out\n        /* \"#utility.yul\":16535:16677   */\n    tag_238:\n        /* \"#utility.yul\":16585:16594   */\n      0x00\n        /* \"#utility.yul\":16618:16671   */\n      tag_410\n        /* \"#utility.yul\":16636:16670   */\n      tag_411\n        /* \"#utility.yul\":16645:16669   */\n      tag_412\n        /* \"#utility.yul\":16663:16668   */\n      dup5\n        /* \"#utility.yul\":16645:16669   */\n      tag_190\n      jump\t// in\n    tag_412:\n        /* \"#utility.yul\":16636:16670   */\n      tag_237\n      jump\t// in\n    tag_411:\n        /* \"#utility.yul\":16618:16671   */\n      tag_190\n      jump\t// in\n    tag_410:\n        /* \"#utility.yul\":16605:16671   */\n      swap1\n      pop\n        /* \"#utility.yul\":16535:16677   */\n      swap2\n      swap1\n      pop\n      jump\t// out\n        /* \"#utility.yul\":16683:16758   */\n    tag_239:\n        /* \"#utility.yul\":16726:16729   */\n      0x00\n        /* \"#utility.yul\":16747:16752   */\n      dup2\n        /* \"#utility.yul\":16740:16752   */\n      swap1\n      pop\n        /* \"#utility.yul\":16683:16758   */\n      swap2\n      swap1\n      pop\n      jump\t// out\n        /* \"#utility.yul\":16764:17033   */\n    tag_240:\n        /* \"#utility.yul\":16874:16913   */\n      tag_415\n        /* \"#utility.yul\":16905:16912   */\n      dup4\n        /* \"#utility.yul\":16874:16913   */\n      tag_238\n      jump\t// in\n    tag_415:\n        /* \"#utility.yul\":16935:17026   */\n      tag_416\n        /* \"#utility.yul\":16984:17025   */\n      tag_417\n        /* \"#utility.yul\":17008:17024   */\n      dup3\n        /* \"#utility.yul\":16984:17025   */\n      tag_239\n      jump\t// in\n    tag_417:\n        /* \"#utility.yul\":16976:16982   */\n      dup5\n        /* \"#utility.yul\":16969:16973   */\n      dup5\n        /* \"#utility.yul\":16963:16974   */\n      sload\n        /* \"#utility.yul\":16935:17026   */\n      tag_236\n      jump\t// in\n    tag_416:\n        /* \"#utility.yul\":16929:16933   */\n      dup3\n        /* \"#utility.yul\":16922:17027   */\n      sstore\n        /* \"#utility.yul\":16840:17033   */\n      pop\n        /* \"#utility.yul\":16764:17033   */\n      pop\n      pop\n      pop\n      jump\t// out\n        /* \"#utility.yul\":17039:17112   */\n    tag_241:\n        /* \"#utility.yul\":17084:17087   */\n      0x00\n        /* \"#utility.yul\":17105:17106   */\n      0x00\n        /* \"#utility.yul\":17098:17106   */\n      swap1\n      pop\n        /* \"#utility.yul\":17039:17112   */\n      swap1\n      jump\t// out\n        /* \"#utility.yul\":17118:17307   */\n    tag_242:\n        /* \"#utility.yul\":17195:17227   */\n      tag_420\n      tag_241\n      jump\t// in\n    tag_420:\n        /* \"#utility.yul\":17236:17301   */\n      tag_421\n        /* \"#utility.yul\":17294:17300   */\n      dup2\n        /* \"#utility.yul\":17286:17292   */\n      dup5\n        /* \"#utility.yul\":17280:17284   */\n      dup5\n        /* \"#utility.yul\":17236:17301   */\n      tag_240\n      jump\t// in\n    tag_421:\n        /* \"#utility.yul\":17171:17307   */\n      pop\n        /* \"#utility.yul\":17118:17307   */\n      pop\n      pop\n      jump\t// out\n        /* \"#utility.yul\":17313:17499   */\n    tag_243:\n        /* \"#utility.yul\":17373:17493   */\n    tag_423:\n        /* \"#utility.yul\":17390:17393   */\n      dup2\n        /* \"#utility.yul\":17383:17388   */\n      dup2\n        /* \"#utility.yul\":17380:17394   */\n      lt\n        /* \"#utility.yul\":17373:17493   */\n      iszero\n      tag_425\n      jumpi\n        /* \"#utility.yul\":17444:17483   */\n      tag_426\n        /* \"#utility.yul\":17481:17482   */\n      0x00\n        /* \"#utility.yul\":17474:17479   */\n      dup3\n        /* \"#utility.yul\":17444:17483   */\n      tag_242\n      jump\t// in\n    tag_426:\n        /* \"#utility.yul\":17417:17418   */\n      0x01\n        /* \"#utility.yul\":17410:17415   */\n      dup2\n        /* \"#utility.yul\":17406:17419   */\n      add\n        /* \"#utility.yul\":17397:17419   */\n      swap1\n      pop\n        /* \"#utility.yul\":17373:17493   */\n      jump(tag_423)\n    tag_425:\n        /* \"#utility.yul\":17313:17499   */\n      pop\n      pop\n      jump\t// out\n        /* \"#utility.yul\":17505:18048   */\n    tag_244:\n        /* \"#utility.yul\":17606:17608   */\n      0x1f\n        /* \"#utility.yul\":17601:17604   */\n      dup3\n        /* \"#utility.yul\":17598:17609   */\n      gt\n        /* \"#utility.yul\":17595:18041   */\n      iszero\n      tag_428\n      jumpi\n        /* \"#utility.yul\":17640:17678   */\n      tag_429\n        /* \"#utility.yul\":17672:17677   */\n      dup2\n        /* \"#utility.yul\":17640:17678   */\n      tag_233\n      jump\t// in\n    tag_429:\n        /* \"#utility.yul\":17724:17753   */\n      tag_430\n        /* \"#utility.yul\":17742:17752   */\n      dup5\n        /* \"#utility.yul\":17724:17753   */\n      tag_234\n      jump\t// in\n    tag_430:\n        /* \"#utility.yul\":17714:17722   */\n      dup2\n        /* \"#utility.yul\":17710:17754   */\n      add\n        /* \"#utility.yul\":17907:17909   */\n      0x20\n        /* \"#utility.yul\":17895:17905   */\n      dup6\n        /* \"#utility.yul\":17892:17910   */\n      lt\n        /* \"#utility.yul\":17889:17938   */\n      iszero\n      tag_431\n      jumpi\n        /* \"#utility.yul\":17928:17936   */\n      dup2\n        /* \"#utility.yul\":17913:17936   */\n      swap1\n      pop\n        /* \"#utility.yul\":17889:17938   */\n    tag_431:\n        /* \"#utility.yul\":17951:18031   */\n      tag_432\n        /* \"#utility.yul\":18007:18029   */\n      tag_433\n        /* \"#utility.yul\":18025:18028   */\n      dup6\n        /* \"#utility.yul\":18007:18029   */\n      tag_234\n      jump\t// in\n    tag_433:\n        /* \"#utility.yul\":17997:18005   */\n      dup4\n        /* \"#utility.yul\":17993:18030   */\n      add\n        /* \"#utility.yul\":17980:17991   */\n      dup3\n        /* \"#utility.yul\":17951:18031   */\n      tag_243\n      jump\t// in\n    tag_432:\n        /* \"#utility.yul\":17610:18041   */\n      pop\n      pop\n        /* \"#utility.yul\":17595:18041   */\n    tag_428:\n        /* \"#utility.yul\":17505:18048   */\n      pop\n      pop\n      pop\n      jump\t// out\n        /* \"#utility.yul\":18054:18171   */\n    tag_245:\n        /* \"#utility.yul\":18108:18116   */\n      0x00\n        /* \"#utility.yul\":18158:18163   */\n      dup3\n        /* \"#utility.yul\":18152:18156   */\n      dup3\n        /* \"#utility.yul\":18148:18164   */\n      shr\n        /* \"#utility.yul\":18127:18164   */\n      swap1\n      pop\n        /* \"#utility.yul\":18054:18171   */\n      swap3\n      swap2\n      pop\n      pop\n      jump\t// out\n        /* \"#utility.yul\":18177:18346   */\n    tag_246:\n        /* \"#utility.yul\":18221:18227   */\n      0x00\n        /* \"#utility.yul\":18254:18305   */\n      tag_436\n        /* \"#utility.yul\":18302:18303   */\n      0x00\n        /* \"#utility.yul\":18298:18304   */\n      not\n        /* \"#utility.yul\":18290:18295   */\n      dup5\n        /* \"#utility.yul\":18287:18288   */\n      0x08\n        /* \"#utility.yul\":18283:18296   */\n      mul\n        /* \"#utility.yul\":18254:18305   */\n      tag_245\n      jump\t// in\n    tag_436:\n        /* \"#utility.yul\":18250:18306   */\n      not\n        /* \"#utility.yul\":18335:18339   */\n      dup1\n        /* \"#utility.yul\":18329:18333   */\n      dup4\n        /* \"#utility.yul\":18325:18340   */\n      and\n        /* \"#utility.yul\":18315:18340   */\n      swap2\n      pop\n        /* \"#utility.yul\":18228:18346   */\n      pop\n        /* \"#utility.yul\":18177:18346   */\n      swap3\n      swap2\n      pop\n      pop\n      jump\t// out\n        /* \"#utility.yul\":18351:18646   */\n    tag_247:\n        /* \"#utility.yul\":18427:18431   */\n      0x00\n        /* \"#utility.yul\":18573:18602   */\n      tag_438\n        /* \"#utility.yul\":18598:18601   */\n      dup4\n        /* \"#utility.yul\":18592:18596   */\n      dup4\n        /* \"#utility.yul\":18573:18602   */\n      tag_246\n      jump\t// in\n    tag_438:\n        /* \"#utility.yul\":18565:18602   */\n      swap2\n      pop\n        /* \"#utility.yul\":18635:18638   */\n      dup3\n        /* \"#utility.yul\":18632:18633   */\n      0x02\n        /* \"#utility.yul\":18628:18639   */\n      mul\n        /* \"#utility.yul\":18622:18626   */\n      dup3\n        /* \"#utility.yul\":18619:18640   */\n      or\n        /* \"#utility.yul\":18611:18640   */\n      swap1\n      pop\n        /* \"#utility.yul\":18351:18646   */\n      swap3\n      swap2\n      pop\n      pop\n      jump\t// out\n        /* \"#utility.yul\":18651:20046   */\n    tag_92:\n        /* \"#utility.yul\":18768:18805   */\n      tag_440\n        /* \"#utility.yul\":18801:18804   */\n      dup3\n        /* \"#utility.yul\":18768:18805   */\n      tag_211\n      jump\t// in\n    tag_440:\n        /* \"#utility.yul\":18870:18888   */\n      0xffffffffffffffff\n        /* \"#utility.yul\":18862:18868   */\n      dup2\n        /* \"#utility.yul\":18859:18889   */\n      gt\n        /* \"#utility.yul\":18856:18912   */\n      iszero\n      tag_441\n      jumpi\n        /* \"#utility.yul\":18892:18910   */\n      tag_442\n      tag_231\n      jump\t// in\n    tag_442:\n        /* \"#utility.yul\":18856:18912   */\n    tag_441:\n        /* \"#utility.yul\":18936:18974   */\n      tag_443\n        /* \"#utility.yul\":18968:18972   */\n      dup3\n        /* \"#utility.yul\":18962:18973   */\n      sload\n        /* \"#utility.yul\":18936:18974   */\n      tag_123\n      jump\t// in\n    tag_443:\n        /* \"#utility.yul\":19021:19088   */\n      tag_444\n        /* \"#utility.yul\":19081:19087   */\n      dup3\n        /* \"#utility.yul\":19073:19079   */\n      dup3\n        /* \"#utility.yul\":19067:19071   */\n      dup6\n        /* \"#utility.yul\":19021:19088   */\n      tag_244\n      jump\t// in\n    tag_444:\n        /* \"#utility.yul\":19115:19116   */\n      0x00\n        /* \"#utility.yul\":19139:19143   */\n      0x20\n        /* \"#utility.yul\":19126:19143   */\n      swap1\n      pop\n        /* \"#utility.yul\":19171:19173   */\n      0x1f\n        /* \"#utility.yul\":19163:19169   */\n      dup4\n        /* \"#utility.yul\":19160:19174   */\n      gt\n        /* \"#utility.yul\":19188:19189   */\n      0x01\n        /* \"#utility.yul\":19183:19801   */\n      dup2\n      eq\n      tag_446\n      jumpi\n        /* \"#utility.yul\":19845:19846   */\n      0x00\n        /* \"#utility.yul\":19862:19868   */\n      dup5\n        /* \"#utility.yul\":19859:19936   */\n      iszero\n      tag_447\n      jumpi\n        /* \"#utility.yul\":19911:19920   */\n      dup3\n        /* \"#utility.yul\":19906:19909   */\n      dup8\n        /* \"#utility.yul\":19902:19921   */\n      add\n        /* \"#utility.yul\":19896:19922   */\n      mload\n        /* \"#utility.yul\":19887:19922   */\n      swap1\n      pop\n        /* \"#utility.yul\":19859:19936   */\n    tag_447:\n        /* \"#utility.yul\":19962:20029   */\n      tag_448\n        /* \"#utility.yul\":20022:20028   */\n      dup6\n        /* \"#utility.yul\":20015:20020   */\n      dup3\n        /* \"#utility.yul\":19962:20029   */\n      tag_247\n      jump\t// in\n    tag_448:\n        /* \"#utility.yul\":19956:19960   */\n      dup7\n        /* \"#utility.yul\":19949:20030   */\n      sstore\n        /* \"#utility.yul\":19818:20040   */\n      pop\n        /* \"#utility.yul\":19153:20040   */\n      jump(tag_445)\n        /* \"#utility.yul\":19183:19801   */\n    tag_446:\n        /* \"#utility.yul\":19235:19239   */\n      0x1f\n        /* \"#utility.yul\":19231:19240   */\n      not\n        /* \"#utility.yul\":19223:19229   */\n      dup5\n        /* \"#utility.yul\":19219:19241   */\n      and\n        /* \"#utility.yul\":19269:19306   */\n      tag_449\n        /* \"#utility.yul\":19301:19305   */\n      dup7\n        /* \"#utility.yul\":19269:19306   */\n      tag_233\n      jump\t// in\n    tag_449:\n        /* \"#utility.yul\":19328:19329   */\n      0x00\n        /* \"#utility.yul\":19342:19550   */\n    tag_450:\n        /* \"#utility.yul\":19356:19363   */\n      dup3\n        /* \"#utility.yul\":19353:19354   */\n      dup2\n        /* \"#utility.yul\":19350:19364   */\n      lt\n        /* \"#utility.yul\":19342:19550   */\n      iszero\n      tag_452\n      jumpi\n        /* \"#utility.yul\":19435:19444   */\n      dup5\n        /* \"#utility.yul\":19430:19433   */\n      dup10\n        /* \"#utility.yul\":19426:19445   */\n      add\n        /* \"#utility.yul\":19420:19446   */\n      mload\n        /* \"#utility.yul\":19412:19418   */\n      dup3\n        /* \"#utility.yul\":19405:19447   */\n      sstore\n        /* \"#utility.yul\":19486:19487   */\n      0x01\n        /* \"#utility.yul\":19478:19484   */\n      dup3\n        /* \"#utility.yul\":19474:19488   */\n      add\n        /* \"#utility.yul\":19464:19488   */\n      swap2\n      pop\n        /* \"#utility.yul\":19533:19535   */\n      0x20\n        /* \"#utility.yul\":19522:19531   */\n      dup6\n        /* \"#utility.yul\":19518:19536   */\n      add\n        /* \"#utility.yul\":19505:19536   */\n      swap5\n      pop\n        /* \"#utility.yul\":19379:19383   */\n      0x20\n        /* \"#utility.yul\":19376:19377   */\n      dup2\n        /* \"#utility.yul\":19372:19384   */\n      add\n        /* \"#utility.yul\":19367:19384   */\n      swap1\n      pop\n        /* \"#utility.yul\":19342:19550   */\n      jump(tag_450)\n    tag_452:\n        /* \"#utility.yul\":19578:19584   */\n      dup7\n        /* \"#utility.yul\":19569:19576   */\n      dup4\n        /* \"#utility.yul\":19566:19585   */\n      lt\n        /* \"#utility.yul\":19563:19742   */\n      iszero\n      tag_453\n      jumpi\n        /* \"#utility.yul\":19636:19645   */\n      dup5\n        /* \"#utility.yul\":19631:19634   */\n      dup10\n        /* \"#utility.yul\":19627:19646   */\n      add\n        /* \"#utility.yul\":19621:19647   */\n      mload\n        /* \"#utility.yul\":19679:19727   */\n      tag_454\n        /* \"#utility.yul\":19721:19725   */\n      0x1f\n        /* \"#utility.yul\":19713:19719   */\n      dup10\n        /* \"#utility.yul\":19709:19726   */\n      and\n        /* \"#utility.yul\":19698:19707   */\n      dup3\n        /* \"#utility.yul\":19679:19727   */\n      tag_246\n      jump\t// in\n    tag_454:\n        /* \"#utility.yul\":19671:19677   */\n      dup4\n        /* \"#utility.yul\":19664:19728   */\n      sstore\n        /* \"#utility.yul\":19586:19742   */\n      pop\n        /* \"#utility.yul\":19563:19742   */\n    tag_453:\n        /* \"#utility.yul\":19788:19789   */\n      0x01\n        /* \"#utility.yul\":19784:19785   */\n      0x02\n        /* \"#utility.yul\":19776:19782   */\n      dup9\n        /* \"#utility.yul\":19772:19786   */\n      mul\n        /* \"#utility.yul\":19768:19790   */\n      add\n        /* \"#utility.yul\":19762:19766   */\n      dup9\n        /* \"#utility.yul\":19755:19791   */\n      sstore\n        /* \"#utility.yul\":19190:19801   */\n      pop\n      pop\n      pop\n        /* \"#utility.yul\":19153:20040   */\n    tag_445:\n      pop\n        /* \"#utility.yul\":18743:20046   */\n      pop\n      pop\n      pop\n        /* \"#utility.yul\":18651:20046   */\n      pop\n      pop\n      jump\t// out\n        /* \"#utility.yul\":20052:20200   */\n    tag_248:\n        /* \"#utility.yul\":20150:20156   */\n      dup3\n        /* \"#utility.yul\":20145:20148   */\n      dup2\n        /* \"#utility.yul\":20140:20143   */\n      dup4\n        /* \"#utility.yul\":20127:20157   */\n      calldatacopy\n        /* \"#utility.yul\":20191:20192   */\n      0x00\n        /* \"#utility.yul\":20182:20188   */\n      dup4\n        /* \"#utility.yul\":20177:20180   */\n      dup4\n        /* \"#utility.yul\":20173:20189   */\n      add\n        /* \"#utility.yul\":20166:20193   */\n      mstore\n        /* \"#utility.yul\":20052:20200   */\n      pop\n      pop\n      pop\n      jump\t// out\n        /* \"#utility.yul\":20230:20547   */\n    tag_249:\n        /* \"#utility.yul\":20328:20331   */\n      0x00\n        /* \"#utility.yul\":20349:20420   */\n      tag_457\n        /* \"#utility.yul\":20413:20419   */\n      dup4\n        /* \"#utility.yul\":20408:20411   */\n      dup6\n        /* \"#utility.yul\":20349:20420   */\n      tag_212\n      jump\t// in\n    tag_457:\n        /* \"#utility.yul\":20342:20420   */\n      swap4\n      pop\n        /* \"#utility.yul\":20430:20486   */\n      tag_458\n        /* \"#utility.yul\":20479:20485   */\n      dup4\n        /* \"#utility.yul\":20474:20477   */\n      dup6\n        /* \"#utility.yul\":20467:20472   */\n      dup5\n        /* \"#utility.yul\":20430:20486   */\n      tag_248\n      jump\t// in\n    tag_458:\n        /* \"#utility.yul\":20511:20540   */\n      tag_459\n        /* \"#utility.yul\":20533:20539   */\n      dup4\n        /* \"#utility.yul\":20511:20540   */\n      tag_214\n      jump\t// in\n    tag_459:\n        /* \"#utility.yul\":20506:20509   */\n      dup5\n        /* \"#utility.yul\":20502:20541   */\n      add\n        /* \"#utility.yul\":20495:20541   */\n      swap1\n      pop\n        /* \"#utility.yul\":20230:20547   */\n      swap4\n      swap3\n      pop\n      pop\n      pop\n      jump\t// out\n        /* \"#utility.yul\":20553:21217   */\n    tag_96:\n        /* \"#utility.yul\":20762:20766   */\n      0x00\n        /* \"#utility.yul\":20800:20802   */\n      0x60\n        /* \"#utility.yul\":20789:20798   */\n      dup3\n        /* \"#utility.yul\":20785:20803   */\n      add\n        /* \"#utility.yul\":20777:20803   */\n      swap1\n      pop\n        /* \"#utility.yul\":20849:20858   */\n      dup2\n        /* \"#utility.yul\":20843:20847   */\n      dup2\n        /* \"#utility.yul\":20839:20859   */\n      sub\n        /* \"#utility.yul\":20835:20836   */\n      0x00\n        /* \"#utility.yul\":20824:20833   */\n      dup4\n        /* \"#utility.yul\":20820:20837   */\n      add\n        /* \"#utility.yul\":20813:20860   */\n      mstore\n        /* \"#utility.yul\":20877:20965   */\n      tag_461\n        /* \"#utility.yul\":20960:20964   */\n      dup2\n        /* \"#utility.yul\":20951:20957   */\n      dup8\n        /* \"#utility.yul\":20943:20949   */\n      dup10\n        /* \"#utility.yul\":20877:20965   */\n      tag_249\n      jump\t// in\n    tag_461:\n        /* \"#utility.yul\":20869:20965   */\n      swap1\n      pop\n        /* \"#utility.yul\":21012:21021   */\n      dup2\n        /* \"#utility.yul\":21006:21010   */\n      dup2\n        /* \"#utility.yul\":21002:21022   */\n      sub\n        /* \"#utility.yul\":20997:20999   */\n      0x20\n        /* \"#utility.yul\":20986:20995   */\n      dup4\n        /* \"#utility.yul\":20982:21000   */\n      add\n        /* \"#utility.yul\":20975:21023   */\n      mstore\n        /* \"#utility.yul\":21040:21128   */\n      tag_462\n        /* \"#utility.yul\":21123:21127   */\n      dup2\n        /* \"#utility.yul\":21114:21120   */\n      dup6\n        /* \"#utility.yul\":21106:21112   */\n      dup8\n        /* \"#utility.yul\":21040:21128   */\n      tag_249\n      jump\t// in\n    tag_462:\n        /* \"#utility.yul\":21032:21128   */\n      swap1\n      pop\n        /* \"#utility.yul\":21138:21210   */\n      tag_463\n        /* \"#utility.yul\":21206:21208   */\n      0x40\n        /* \"#utility.yul\":21195:21204   */\n      dup4\n        /* \"#utility.yul\":21191:21209   */\n      add\n        /* \"#utility.yul\":21182:21188   */\n      dup5\n        /* \"#utility.yul\":21138:21210   */\n      tag_191\n      jump\t// in\n    tag_463:\n        /* \"#utility.yul\":20553:21217   */\n      swap7\n      swap6\n      pop\n      pop\n      pop\n      pop\n      pop\n      pop\n      jump\t// out\n        /* \"#utility.yul\":21223:21389   */\n    tag_250:\n        /* \"#utility.yul\":21363:21381   */\n      0x4173736574206e6f74206c697374656400000000000000000000000000000000\n        /* \"#utility.yul\":21359:21360   */\n      0x00\n        /* \"#utility.yul\":21351:21357   */\n      dup3\n        /* \"#utility.yul\":21347:21361   */\n      add\n        /* \"#utility.yul\":21340:21382   */\n      mstore\n        /* \"#utility.yul\":21223:21389   */\n      pop\n      jump\t// out\n        /* \"#utility.yul\":21395:21761   */\n    tag_251:\n        /* \"#utility.yul\":21537:21540   */\n      0x00\n        /* \"#utility.yul\":21558:21625   */\n      tag_466\n        /* \"#utility.yul\":21622:21624   */\n      0x10\n        /* \"#utility.yul\":21617:21620   */\n      dup4\n        /* \"#utility.yul\":21558:21625   */\n      tag_212\n      jump\t// in\n    tag_466:\n        /* \"#utility.yul\":21551:21625   */\n      swap2\n      pop\n        /* \"#utility.yul\":21634:21727   */\n      tag_467\n        /* \"#utility.yul\":21723:21726   */\n      dup3\n        /* \"#utility.yul\":21634:21727   */\n      tag_250\n      jump\t// in\n    tag_467:\n        /* \"#utility.yul\":21752:21754   */\n      0x20\n        /* \"#utility.yul\":21747:21750   */\n      dup3\n        /* \"#utility.yul\":21743:21755   */\n      add\n        /* \"#utility.yul\":21736:21755   */\n      swap1\n      pop\n        /* \"#utility.yul\":21395:21761   */\n      swap2\n      swap1\n      pop\n      jump\t// out\n        /* \"#utility.yul\":21767:22186   */\n    tag_111:\n        /* \"#utility.yul\":21933:21937   */\n      0x00\n        /* \"#utility.yul\":21971:21973   */\n      0x20\n        /* \"#utility.yul\":21960:21969   */\n      dup3\n        /* \"#utility.yul\":21956:21974   */\n      add\n        /* \"#utility.yul\":21948:21974   */\n      swap1\n      pop\n        /* \"#utility.yul\":22020:22029   */\n      dup2\n        /* \"#utility.yul\":22014:22018   */\n      dup2\n        /* \"#utility.yul\":22010:22030   */\n      sub\n        /* \"#utility.yul\":22006:22007   */\n      0x00\n        /* \"#utility.yul\":21995:22004   */\n      dup4\n        /* \"#utility.yul\":21991:22008   */\n      add\n        /* \"#utility.yul\":21984:22031   */\n      mstore\n        /* \"#utility.yul\":22048:22179   */\n      tag_469\n        /* \"#utility.yul\":22174:22178   */\n      dup2\n        /* \"#utility.yul\":22048:22179   */\n      tag_251\n      jump\t// in\n    tag_469:\n        /* \"#utility.yul\":22040:22179   */\n      swap1\n      pop\n        /* \"#utility.yul\":21767:22186   */\n      swap2\n      swap1\n      pop\n      jump\t// out\n        /* \"#utility.yul\":22192:22289   */\n    tag_252:\n        /* \"#utility.yul\":22251:22257   */\n      0x00\n        /* \"#utility.yul\":22279:22282   */\n      dup3\n        /* \"#utility.yul\":22269:22282   */\n      swap1\n      pop\n        /* \"#utility.yul\":22192:22289   */\n      swap3\n      swap2\n      pop\n      pop\n      jump\t// out\n        /* \"#utility.yul\":22295:23698   */\n    tag_117:\n        /* \"#utility.yul\":22419:22463   */\n      tag_472\n        /* \"#utility.yul\":22459:22462   */\n      dup4\n        /* \"#utility.yul\":22454:22457   */\n      dup4\n        /* \"#utility.yul\":22419:22463   */\n      tag_252\n      jump\t// in\n    tag_472:\n        /* \"#utility.yul\":22528:22546   */\n      0xffffffffffffffff\n        /* \"#utility.yul\":22520:22526   */\n      dup2\n        /* \"#utility.yul\":22517:22547   */\n      gt\n        /* \"#utility.yul\":22514:22570   */\n      iszero\n      tag_473\n      jumpi\n        /* \"#utility.yul\":22550:22568   */\n      tag_474\n      tag_231\n      jump\t// in\n    tag_474:\n        /* \"#utility.yul\":22514:22570   */\n    tag_473:\n        /* \"#utility.yul\":22594:22632   */\n      tag_475\n        /* \"#utility.yul\":22626:22630   */\n      dup3\n        /* \"#utility.yul\":22620:22631   */\n      sload\n        /* \"#utility.yul\":22594:22632   */\n      tag_123\n      jump\t// in\n    tag_475:\n        /* \"#utility.yul\":22679:22746   */\n      tag_476\n        /* \"#utility.yul\":22739:22745   */\n      dup3\n        /* \"#utility.yul\":22731:22737   */\n      dup3\n        /* \"#utility.yul\":22725:22729   */\n      dup6\n        /* \"#utility.yul\":22679:22746   */\n      tag_244\n      jump\t// in\n    tag_476:\n        /* \"#utility.yul\":22773:22774   */\n      0x00\n        /* \"#utility.yul\":22802:22804   */\n      0x1f\n        /* \"#utility.yul\":22794:22800   */\n      dup4\n        /* \"#utility.yul\":22791:22805   */\n      gt\n        /* \"#utility.yul\":22819:22820   */\n      0x01\n        /* \"#utility.yul\":22814:23446   */\n      dup2\n      eq\n      tag_478\n      jumpi\n        /* \"#utility.yul\":23490:23491   */\n      0x00\n        /* \"#utility.yul\":23507:23513   */\n      dup5\n        /* \"#utility.yul\":23504:23588   */\n      iszero\n      tag_479\n      jumpi\n        /* \"#utility.yul\":23563:23572   */\n      dup3\n        /* \"#utility.yul\":23558:23561   */\n      dup8\n        /* \"#utility.yul\":23554:23573   */\n      add\n        /* \"#utility.yul\":23541:23574   */\n      calldataload\n        /* \"#utility.yul\":23532:23574   */\n      swap1\n      pop\n        /* \"#utility.yul\":23504:23588   */\n    tag_479:\n        /* \"#utility.yul\":23614:23681   */\n      tag_480\n        /* \"#utility.yul\":23674:23680   */\n      dup6\n        /* \"#utility.yul\":23667:23672   */\n      dup3\n        /* \"#utility.yul\":23614:23681   */\n      tag_247\n      jump\t// in\n    tag_480:\n        /* \"#utility.yul\":23608:23612   */\n      dup7\n        /* \"#utility.yul\":23601:23682   */\n      sstore\n        /* \"#utility.yul\":23463:23692   */\n      pop\n        /* \"#utility.yul\":22784:23692   */\n      jump(tag_477)\n        /* \"#utility.yul\":22814:23446   */\n    tag_478:\n        /* \"#utility.yul\":22866:22870   */\n      0x1f\n        /* \"#utility.yul\":22862:22871   */\n      not\n        /* \"#utility.yul\":22854:22860   */\n      dup5\n        /* \"#utility.yul\":22850:22872   */\n      and\n        /* \"#utility.yul\":22900:22937   */\n      tag_481\n        /* \"#utility.yul\":22932:22936   */\n      dup7\n        /* \"#utility.yul\":22900:22937   */\n      tag_233\n      jump\t// in\n    tag_481:\n        /* \"#utility.yul\":22959:22960   */\n      0x00\n        /* \"#utility.yul\":22973:23188   */\n    tag_482:\n        /* \"#utility.yul\":22987:22994   */\n      dup3\n        /* \"#utility.yul\":22984:22985   */\n      dup2\n        /* \"#utility.yul\":22981:22995   */\n      lt\n        /* \"#utility.yul\":22973:23188   */\n      iszero\n      tag_484\n      jumpi\n        /* \"#utility.yul\":23073:23082   */\n      dup5\n        /* \"#utility.yul\":23068:23071   */\n      dup10\n        /* \"#utility.yul\":23064:23083   */\n      add\n        /* \"#utility.yul\":23051:23084   */\n      calldataload\n        /* \"#utility.yul\":23043:23049   */\n      dup3\n        /* \"#utility.yul\":23036:23085   */\n      sstore\n        /* \"#utility.yul\":23124:23125   */\n      0x01\n        /* \"#utility.yul\":23116:23122   */\n      dup3\n        /* \"#utility.yul\":23112:23126   */\n      add\n        /* \"#utility.yul\":23102:23126   */\n      swap2\n      pop\n        /* \"#utility.yul\":23171:23173   */\n      0x20\n        /* \"#utility.yul\":23160:23169   */\n      dup6\n        /* \"#utility.yul\":23156:23174   */\n      add\n        /* \"#utility.yul\":23143:23174   */\n      swap5\n      pop\n        /* \"#utility.yul\":23010:23014   */\n      0x20\n        /* \"#utility.yul\":23007:23008   */\n      dup2\n        /* \"#utility.yul\":23003:23015   */\n      add\n        /* \"#utility.yul\":22998:23015   */\n      swap1\n      pop\n        /* \"#utility.yul\":22973:23188   */\n      jump(tag_482)\n    tag_484:\n        /* \"#utility.yul\":23216:23222   */\n      dup7\n        /* \"#utility.yul\":23207:23214   */\n      dup4\n        /* \"#utility.yul\":23204:23223   */\n      lt\n        /* \"#utility.yul\":23201:23387   */\n      iszero\n      tag_485\n      jumpi\n        /* \"#utility.yul\":23281:23290   */\n      dup5\n        /* \"#utility.yul\":23276:23279   */\n      dup10\n        /* \"#utility.yul\":23272:23291   */\n      add\n        /* \"#utility.yul\":23259:23292   */\n      calldataload\n        /* \"#utility.yul\":23324:23372   */\n      tag_486\n        /* \"#utility.yul\":23366:23370   */\n      0x1f\n        /* \"#utility.yul\":23358:23364   */\n      dup10\n        /* \"#utility.yul\":23354:23371   */\n      and\n        /* \"#utility.yul\":23343:23352   */\n      dup3\n        /* \"#utility.yul\":23324:23372   */\n      tag_246\n      jump\t// in\n    tag_486:\n        /* \"#utility.yul\":23316:23322   */\n      dup4\n        /* \"#utility.yul\":23309:23373   */\n      sstore\n        /* \"#utility.yul\":23224:23387   */\n      pop\n        /* \"#utility.yul\":23201:23387   */\n    tag_485:\n        /* \"#utility.yul\":23433:23434   */\n      0x01\n        /* \"#utility.yul\":23429:23430   */\n      0x02\n        /* \"#utility.yul\":23421:23427   */\n      dup9\n        /* \"#utility.yul\":23417:23431   */\n      mul\n        /* \"#utility.yul\":23413:23435   */\n      add\n        /* \"#utility.yul\":23407:23411   */\n      dup9\n        /* \"#utility.yul\":23400:23436   */\n      sstore\n        /* \"#utility.yul\":22821:23446   */\n      pop\n      pop\n      pop\n        /* \"#utility.yul\":22784:23692   */\n    tag_477:\n      pop\n        /* \"#utility.yul\":22394:23698   */\n      pop\n      pop\n      pop\n        /* \"#utility.yul\":22295:23698   */\n      pop\n      pop\n      pop\n      jump\t// out\n        /* \"#utility.yul\":23704:24258   */\n    tag_120:\n        /* \"#utility.yul\":23885:23889   */\n      0x00\n        /* \"#utility.yul\":23923:23925   */\n      0x40\n        /* \"#utility.yul\":23912:23921   */\n      dup3\n        /* \"#utility.yul\":23908:23926   */\n      add\n        /* \"#utility.yul\":23900:23926   */\n      swap1\n      pop\n        /* \"#utility.yul\":23972:23981   */\n      dup2\n        /* \"#utility.yul\":23966:23970   */\n      dup2\n        /* \"#utility.yul\":23962:23982   */\n      sub\n        /* \"#utility.yul\":23958:23959   */\n      0x00\n        /* \"#utility.yul\":23947:23956   */\n      dup4\n        /* \"#utility.yul\":23943:23960   */\n      add\n        /* \"#utility.yul\":23936:23983   */\n      mstore\n        /* \"#utility.yul\":24000:24088   */\n      tag_488\n        /* \"#utility.yul\":24083:24087   */\n      dup2\n        /* \"#utility.yul\":24074:24080   */\n      dup7\n        /* \"#utility.yul\":24066:24072   */\n      dup9\n        /* \"#utility.yul\":24000:24088   */\n      tag_249\n      jump\t// in\n    tag_488:\n        /* \"#utility.yul\":23992:24088   */\n      swap1\n      pop\n        /* \"#utility.yul\":24135:24144   */\n      dup2\n        /* \"#utility.yul\":24129:24133   */\n      dup2\n        /* \"#utility.yul\":24125:24145   */\n      sub\n        /* \"#utility.yul\":24120:24122   */\n      0x20\n        /* \"#utility.yul\":24109:24118   */\n      dup4\n        /* \"#utility.yul\":24105:24123   */\n      add\n        /* \"#utility.yul\":24098:24146   */\n      mstore\n        /* \"#utility.yul\":24163:24251   */\n      tag_489\n        /* \"#utility.yul\":24246:24250   */\n      dup2\n        /* \"#utility.yul\":24237:24243   */\n      dup5\n        /* \"#utility.yul\":24229:24235   */\n      dup7\n        /* \"#utility.yul\":24163:24251   */\n      tag_249\n      jump\t// in\n    tag_489:\n        /* \"#utility.yul\":24155:24251   */\n      swap1\n      pop\n        /* \"#utility.yul\":23704:24258   */\n      swap6\n      swap5\n      pop\n      pop\n      pop\n      pop\n      pop\n      jump\t// out\n        /* \"#utility.yul\":24264:24434   */\n    tag_253:\n        /* \"#utility.yul\":24404:24426   */\n      0x417373657420646f6573206e6f74206578697374000000000000000000000000\n        /* \"#utility.yul\":24400:24401   */\n      0x00\n        /* \"#utility.yul\":24392:24398   */\n      dup3\n        /* \"#utility.yul\":24388:24402   */\n      add\n        /* \"#utility.yul\":24381:24427   */\n      mstore\n        /* \"#utility.yul\":24264:24434   */\n      pop\n      jump\t// out\n        /* \"#utility.yul\":24440:24806   */\n    tag_254:\n        /* \"#utility.yul\":24582:24585   */\n      0x00\n        /* \"#utility.yul\":24603:24670   */\n      tag_492\n        /* \"#utility.yul\":24667:24669   */\n      0x14\n        /* \"#utility.yul\":24662:24665   */\n      dup4\n        /* \"#utility.yul\":24603:24670   */\n      tag_212\n      jump\t// in\n    tag_492:\n        /* \"#utility.yul\":24596:24670   */\n      swap2\n      pop\n        /* \"#utility.yul\":24679:24772   */\n      tag_493\n        /* \"#utility.yul\":24768:24771   */\n      dup3\n        /* \"#utility.yul\":24679:24772   */\n      tag_253\n      jump\t// in\n    tag_493:\n        /* \"#utility.yul\":24797:24799   */\n      0x20\n        /* \"#utility.yul\":24792:24795   */\n      dup3\n        /* \"#utility.yul\":24788:24800   */\n      add\n        /* \"#utility.yul\":24781:24800   */\n      swap1\n      pop\n        /* \"#utility.yul\":24440:24806   */\n      swap2\n      swap1\n      pop\n      jump\t// out\n        /* \"#utility.yul\":24812:25231   */\n    tag_138:\n        /* \"#utility.yul\":24978:24982   */\n      0x00\n        /* \"#utility.yul\":25016:25018   */\n      0x20\n        /* \"#utility.yul\":25005:25014   */\n      dup3\n        /* \"#utility.yul\":25001:25019   */\n      add\n        /* \"#utility.yul\":24993:25019   */\n      swap1\n      pop\n        /* \"#utility.yul\":25065:25074   */\n      dup2\n        /* \"#utility.yul\":25059:25063   */\n      dup2\n        /* \"#utility.yul\":25055:25075   */\n      sub\n        /* \"#utility.yul\":25051:25052   */\n      0x00\n        /* \"#utility.yul\":25040:25049   */\n      dup4\n        /* \"#utility.yul\":25036:25053   */\n      add\n        /* \"#utility.yul\":25029:25076   */\n      mstore\n        /* \"#utility.yul\":25093:25224   */\n      tag_495\n        /* \"#utility.yul\":25219:25223   */\n      dup2\n        /* \"#utility.yul\":25093:25224   */\n      tag_254\n      jump\t// in\n    tag_495:\n        /* \"#utility.yul\":25085:25224   */\n      swap1\n      pop\n        /* \"#utility.yul\":24812:25231   */\n      swap2\n      swap1\n      pop\n      jump\t// out\n        /* \"#utility.yul\":25237:25418   */\n    tag_255:\n        /* \"#utility.yul\":25377:25410   */\n      0x5265656e7472616e637947756172643a207265656e7472616e742063616c6c00\n        /* \"#utility.yul\":25373:25374   */\n      0x00\n        /* \"#utility.yul\":25365:25371   */\n      dup3\n        /* \"#utility.yul\":25361:25375   */\n      add\n        /* \"#utility.yul\":25354:25411   */\n      mstore\n        /* \"#utility.yul\":25237:25418   */\n      pop\n      jump\t// out\n        /* \"#utility.yul\":25424:25790   */\n    tag_256:\n        /* \"#utility.yul\":25566:25569   */\n      0x00\n        /* \"#utility.yul\":25587:25654   */\n      tag_498\n        /* \"#utility.yul\":25651:25653   */\n      0x1f\n        /* \"#utility.yul\":25646:25649   */\n      dup4\n        /* \"#utility.yul\":25587:25654   */\n      tag_212\n      jump\t// in\n    tag_498:\n        /* \"#utility.yul\":25580:25654   */\n      swap2\n      pop\n        /* \"#utility.yul\":25663:25756   */\n      tag_499\n        /* \"#utility.yul\":25752:25755   */\n      dup3\n        /* \"#utility.yul\":25663:25756   */\n      tag_255\n      jump\t// in\n    tag_499:\n        /* \"#utility.yul\":25781:25783   */\n      0x20\n        /* \"#utility.yul\":25776:25779   */\n      dup3\n        /* \"#utility.yul\":25772:25784   */\n      add\n        /* \"#utility.yul\":25765:25784   */\n      swap1\n      pop\n        /* \"#utility.yul\":25424:25790   */\n      swap2\n      swap1\n      pop\n      jump\t// out\n        /* \"#utility.yul\":25796:26215   */\n    tag_165:\n        /* \"#utility.yul\":25962:25966   */\n      0x00\n        /* \"#utility.yul\":26000:26002   */\n      0x20\n        /* \"#utility.yul\":25989:25998   */\n      dup3\n        /* \"#utility.yul\":25985:26003   */\n      add\n        /* \"#utility.yul\":25977:26003   */\n      swap1\n      pop\n        /* \"#utility.yul\":26049:26058   */\n      dup2\n        /* \"#utility.yul\":26043:26047   */\n      dup2\n        /* \"#utility.yul\":26039:26059   */\n      sub\n        /* \"#utility.yul\":26035:26036   */\n      0x00\n        /* \"#utility.yul\":26024:26033   */\n      dup4\n        /* \"#utility.yul\":26020:26037   */\n      add\n        /* \"#utility.yul\":26013:26060   */\n      mstore\n        /* \"#utility.yul\":26077:26208   */\n      tag_501\n        /* \"#utility.yul\":26203:26207   */\n      dup2\n        /* \"#utility.yul\":26077:26208   */\n      tag_256\n      jump\t// in\n    tag_501:\n        /* \"#utility.yul\":26069:26208   */\n      swap1\n      pop\n        /* \"#utility.yul\":25796:26215   */\n      swap2\n      swap1\n      pop\n      jump\t// out\n        /* \"#utility.yul\":26221:26401   */\n    tag_172:\n        /* \"#utility.yul\":26269:26346   */\n      0x4e487b7100000000000000000000000000000000000000000000000000000000\n        /* \"#utility.yul\":26266:26267   */\n      0x00\n        /* \"#utility.yul\":26259:26347   */\n      mstore\n        /* \"#utility.yul\":26366:26370   */\n      0x32\n        /* \"#utility.yul\":26363:26364   */\n      0x04\n        /* \"#utility.yul\":26356:26371   */\n      mstore\n        /* \"#utility.yul\":26390:26394   */\n      0x24\n        /* \"#utility.yul\":26387:26388   */\n      0x00\n        /* \"#utility.yul\":26380:26395   */\n      revert\n        /* \"#utility.yul\":26407:26601   */\n    tag_176:\n        /* \"#utility.yul\":26447:26451   */\n      0x00\n        /* \"#utility.yul\":26467:26487   */\n      tag_504\n        /* \"#utility.yul\":26485:26486   */\n      dup3\n        /* \"#utility.yul\":26467:26487   */\n      tag_190\n      jump\t// in\n    tag_504:\n        /* \"#utility.yul\":26462:26487   */\n      swap2\n      pop\n        /* \"#utility.yul\":26501:26521   */\n      tag_505\n        /* \"#utility.yul\":26519:26520   */\n      dup4\n        /* \"#utility.yul\":26501:26521   */\n      tag_190\n      jump\t// in\n    tag_505:\n        /* \"#utility.yul\":26496:26521   */\n      swap3\n      pop\n        /* \"#utility.yul\":26545:26546   */\n      dup3\n        /* \"#utility.yul\":26542:26543   */\n      dup3\n        /* \"#utility.yul\":26538:26547   */\n      sub\n        /* \"#utility.yul\":26530:26547   */\n      swap1\n      pop\n        /* \"#utility.yul\":26569:26570   */\n      dup2\n        /* \"#utility.yul\":26563:26567   */\n      dup2\n        /* \"#utility.yul\":26560:26571   */\n      gt\n        /* \"#utility.yul\":26557:26594   */\n      iszero\n      tag_506\n      jumpi\n        /* \"#utility.yul\":26574:26592   */\n      tag_507\n      tag_230\n      jump\t// in\n    tag_507:\n        /* \"#utility.yul\":26557:26594   */\n    tag_506:\n        /* \"#utility.yul\":26407:26601   */\n      swap3\n      swap2\n      pop\n      pop\n      jump\t// out\n        /* \"#utility.yul\":26607:26787   */\n    tag_185:\n        /* \"#utility.yul\":26655:26732   */\n      0x4e487b7100000000000000000000000000000000000000000000000000000000\n        /* \"#utility.yul\":26652:26653   */\n      0x00\n        /* \"#utility.yul\":26645:26733   */\n      mstore\n        /* \"#utility.yul\":26752:26756   */\n      0x31\n        /* \"#utility.yul\":26749:26750   */\n      0x04\n        /* \"#utility.yul\":26742:26757   */\n      mstore\n        /* \"#utility.yul\":26776:26780   */\n      0x24\n        /* \"#utility.yul\":26773:26774   */\n      0x00\n        /* \"#utility.yul\":26766:26781   */\n      revert\n\n    auxdata: 0xa26469706673582212209d6797553c4666d28fa6aa13677bb46475a75f91fb993761fb306e907bce3b9c64736f6c634300081d0033\n}\n",
				"bytecode": {
					"linkReferences": {},
					"object": "608060405234801561000f575f5ffd5b50335f73ffffffffffffffffffffffffffffffffffffffff168173ffffffffffffffffffffffffffffffffffffffff1603610081575f6040517f1e4fbdf7000000000000000000000000000000000000000000000000000000008152600401610078919061019d565b60405180910390fd5b6100908161009d60201b60201c565b50600180819055506101b6565b5f5f5f9054906101000a900473ffffffffffffffffffffffffffffffffffffffff169050815f5f6101000a81548173ffffffffffffffffffffffffffffffffffffffff021916908373ffffffffffffffffffffffffffffffffffffffff1602179055508173ffffffffffffffffffffffffffffffffffffffff168173ffffffffffffffffffffffffffffffffffffffff167f8be0079c531659141344cd1fd0a4f28419497f9722a3daafe3b4186f6b6457e060405160405180910390a35050565b5f73ffffffffffffffffffffffffffffffffffffffff82169050919050565b5f6101878261015e565b9050919050565b6101978161017d565b82525050565b5f6020820190506101b05f83018461018e565b92915050565b611b13806101c35f395ff3fe608060405234801561000f575f5ffd5b50600436106100a7575f3560e01c80638da5cb5b1161006f5780638da5cb5b1461013d5780638ed913181461015b57806390c4308714610179578063cf35bdd014610195578063eac8f5b8146101c9578063f2fde38b146101f9576100a7565b806301e1d114146100ab57806324828557146100c957806343d7c778146100e757806351fd697e14610103578063715018a614610133575b5f5ffd5b6100b3610215565b6040516100c09190610d9e565b60405180910390f35b6100d161021e565b6040516100de9190610e6e565b60405180910390f35b61010160048036038101906100fc9190610ec0565b610274565b005b61011d60048036038101906101189190610f4c565b610350565b60405161012a9190610d9e565b60405180910390f35b61013b61059a565b005b6101456105ad565b6040516101529190611009565b60405180910390f35b6101636105d4565b6040516101709190610d9e565b60405180910390f35b610193600480360381019061018e9190611022565b6105da565b005b6101af60048036038101906101aa9190610ec0565b610757565b6040516101c095949392919061113d565b60405180910390f35b6101e360048036038101906101de9190610ec0565b6108a1565b6040516101f0919061126d565b60405180910390f35b610213600480360381019061020e91906112b7565b610a6f565b005b5f600254905090565b6060600480548060200260200160405190810160405280929190818152602001828054801561026a57602002820191905f5260205f20905b815481526020019060010190808311610256575b5050505050905090565b61027c610af3565b610284610b7a565b5f60035f8381526020019081526020015f209050806004015f9054906101000a900460ff166102e8576040517f08c379a00000000000000000000000000000000000000000000000000000000081526004016102df9061132c565b60405180910390fd5b5f816004015f6101000a81548160ff02191690831515021790555061030c82610bc9565b817f767124ad53ad1e6527b34a0aff47147e993d99fce57ec1c8804e8e6eec1a02034260405161033c9190610d9e565b60405180910390a25061034d610c87565b50565b5f610359610af3565b610361610b7a565b5f85859050116103a6576040517f08c379a000000000000000000000000000000000000000000000000000000000815260040161039d90611394565b60405180910390fd5b5f83839050116103eb576040517f08c379a00000000000000000000000000000000000000000000000000000000081526004016103e2906113fc565b60405180910390fd5b60025f8154809291906103fd90611447565b9190505590506040518060a0016040528082815260200186868080601f0160208091040260200160405190810160405280939291908181526020018383808284375f81840152601f19601f82011690508083019250505050505050815260200184848080601f0160208091040260200160405190810160405280939291908181526020018383808284375f81840152601f19601f8201169050808301925050505050505081526020014281526020016001151581525060035f8381526020019081526020015f205f820151815f015560208201518160010190816104e191906116b8565b5060408201518160020190816104f791906116b8565b50606082015181600301556080820151816004015f6101000a81548160ff021916908315150217905550905050600481908060018154018082558091505060019003905f5260205f20015f9091909190915055807ffcfd8b736a89a5e9928f75dc7e826dbe2f29390fb8dc8ea137ac1d143d33a89a86868686426040516105829594939291906117c1565b60405180910390a2610592610c87565b949350505050565b6105a2610af3565b6105ab5f610c90565b565b5f5f5f9054906101000a900473ffffffffffffffffffffffffffffffffffffffff16905090565b60025481565b6105e2610af3565b6105ea610b7a565b5f60035f8781526020019081526020015f209050806004015f9054906101000a900460ff1661064e576040517f08c379a000000000000000000000000000000000000000000000000000000000815260040161064590611852565b60405180910390fd5b5f8585905011610693576040517f08c379a000000000000000000000000000000000000000000000000000000000815260040161068a90611394565b60405180910390fd5b5f83839050116106d8576040517f08c379a00000000000000000000000000000000000000000000000000000000081526004016106cf906113fc565b60405180910390fd5b84848260010191826106eb92919061187a565b5082828260020191826106ff92919061187a565b50428160030181905550857fac6577f410e34a2651d9e99d6b30d7f819cd4b8489498882e79edd6e960ebee58686868660405161073f9493929190611947565b60405180910390a250610750610c87565b5050505050565b6003602052805f5260405f205f91509050805f01549080600101805461077c906114e8565b80601f01602080910402602001604051908101604052809291908181526020018280546107a8906114e8565b80156107f35780601f106107ca576101008083540402835291602001916107f3565b820191905f5260205f20905b8154815290600101906020018083116107d657829003601f168201915b505050505090806002018054610808906114e8565b80601f0160208091040260200160405190810160405280929190818152602001828054610834906114e8565b801561087f5780601f106108565761010080835404028352916020019161087f565b820191905f5260205f20905b81548152906001019060200180831161086257829003601f168201915b505050505090806003015490806004015f9054906101000a900460ff16905085565b6108a9610d58565b5f60035f8481526020019081526020015f2060030154036108ff576040517f08c379a00000000000000000000000000000000000000000000000000000000081526004016108f6906119ca565b60405180910390fd5b60035f8381526020019081526020015f206040518060a00160405290815f8201548152602001600182018054610934906114e8565b80601f0160208091040260200160405190810160405280929190818152602001828054610960906114e8565b80156109ab5780601f10610982576101008083540402835291602001916109ab565b820191905f5260205f20905b81548152906001019060200180831161098e57829003601f168201915b505050505081526020016002820180546109c4906114e8565b80601f01602080910402602001604051908101604052809291908181526020018280546109f0906114e8565b8015610a3b5780601f10610a1257610100808354040283529160200191610a3b565b820191905f5260205f20905b815481529060010190602001808311610a1e57829003601f168201915b5050505050815260200160038201548152602001600482015f9054906101000a900460ff1615151515815250509050919050565b610a77610af3565b5f73ffffffffffffffffffffffffffffffffffffffff168173ffffffffffffffffffffffffffffffffffffffff1603610ae7575f6040517f1e4fbdf7000000000000000000000000000000000000000000000000000000008152600401610ade9190611009565b60405180910390fd5b610af081610c90565b50565b610afb610d51565b73ffffffffffffffffffffffffffffffffffffffff16610b196105ad565b73ffffffffffffffffffffffffffffffffffffffff1614610b7857610b3c610d51565b6040517f118cdaa7000000000000000000000000000000000000000000000000000000008152600401610b6f9190611009565b60405180910390fd5b565b600260015403610bbf576040517f08c379a0000000000000000000000000000000000000000000000000000000008152600401610bb690611a32565b60405180910390fd5b6002600181905550565b5f60048054905090505f5f90505b81811015610c82578260048281548110610bf457610bf3611a50565b5b905f5260205f20015403610c75576004600183610c119190611a7d565b81548110610c2257610c21611a50565b5b905f5260205f20015460048281548110610c3f57610c3e611a50565b5b905f5260205f2001819055506004805480610c5d57610c5c611ab0565b5b600190038181905f5260205f20015f90559055610c82565b8080600101915050610bd7565b505050565b60018081905550565b5f5f5f9054906101000a900473ffffffffffffffffffffffffffffffffffffffff169050815f5f6101000a81548173ffffffffffffffffffffffffffffffffffffffff021916908373ffffffffffffffffffffffffffffffffffffffff1602179055508173ffffffffffffffffffffffffffffffffffffffff168173ffffffffffffffffffffffffffffffffffffffff167f8be0079c531659141344cd1fd0a4f28419497f9722a3daafe3b4186f6b6457e060405160405180910390a35050565b5f33905090565b6040518060a001604052805f815260200160608152602001606081526020015f81526020015f151581525090565b5f819050919050565b610d9881610d86565b82525050565b5f602082019050610db15f830184610d8f565b92915050565b5f81519050919050565b5f82825260208201905092915050565b5f819050602082019050919050565b610de981610d86565b82525050565b5f610dfa8383610de0565b60208301905092915050565b5f602082019050919050565b5f610e1c82610db7565b610e268185610dc1565b9350610e3183610dd1565b805f5b83811015610e61578151610e488882610def565b9750610e5383610e06565b925050600181019050610e34565b5085935050505092915050565b5f6020820190508181035f830152610e868184610e12565b905092915050565b5f5ffd5b5f5ffd5b610e9f81610d86565b8114610ea9575f5ffd5b50565b5f81359050610eba81610e96565b92915050565b5f60208284031215610ed557610ed4610e8e565b5b5f610ee284828501610eac565b91505092915050565b5f5ffd5b5f5ffd5b5f5ffd5b5f5f83601f840112610f0c57610f0b610eeb565b5b8235905067ffffffffffffffff811115610f2957610f28610eef565b5b602083019150836001820283011115610f4557610f44610ef3565b5b9250929050565b5f5f5f5f60408587031215610f6457610f63610e8e565b5b5f85013567ffffffffffffffff811115610f8157610f80610e92565b5b610f8d87828801610ef7565b9450945050602085013567ffffffffffffffff811115610fb057610faf610e92565b5b610fbc87828801610ef7565b925092505092959194509250565b5f73ffffffffffffffffffffffffffffffffffffffff82169050919050565b5f610ff382610fca565b9050919050565b61100381610fe9565b82525050565b5f60208201905061101c5f830184610ffa565b92915050565b5f5f5f5f5f6060868803121561103b5761103a610e8e565b5b5f61104888828901610eac565b955050602086013567ffffffffffffffff81111561106957611068610e92565b5b61107588828901610ef7565b9450945050604086013567ffffffffffffffff81111561109857611097610e92565b5b6110a488828901610ef7565b92509250509295509295909350565b5f81519050919050565b5f82825260208201905092915050565b8281835e5f83830152505050565b5f601f19601f8301169050919050565b5f6110f5826110b3565b6110ff81856110bd565b935061110f8185602086016110cd565b611118816110db565b840191505092915050565b5f8115159050919050565b61113781611123565b82525050565b5f60a0820190506111505f830188610d8f565b818103602083015261116281876110eb565b9050818103604083015261117681866110eb565b90506111856060830185610d8f565b611192608083018461112e565b9695505050505050565b5f82825260208201905092915050565b5f6111b6826110b3565b6111c0818561119c565b93506111d08185602086016110cd565b6111d9816110db565b840191505092915050565b6111ed81611123565b82525050565b5f60a083015f8301516112085f860182610de0565b506020830151848203602086015261122082826111ac565b9150506040830151848203604086015261123a82826111ac565b915050606083015161124f6060860182610de0565b50608083015161126260808601826111e4565b508091505092915050565b5f6020820190508181035f83015261128581846111f3565b905092915050565b61129681610fe9565b81146112a0575f5ffd5b50565b5f813590506112b18161128d565b92915050565b5f602082840312156112cc576112cb610e8e565b5b5f6112d9848285016112a3565b91505092915050565b7f417373657420616c72656164792064656c6973746564000000000000000000005f82015250565b5f6113166016836110bd565b9150611321826112e2565b602082019050919050565b5f6020820190508181035f8301526113438161130a565b9050919050565b7f4e616d65207265717569726564000000000000000000000000000000000000005f82015250565b5f61137e600d836110bd565b91506113898261134a565b602082019050919050565b5f6020820190508181035f8301526113ab81611372565b9050919050565b7f53796d626f6c20726571756972656400000000000000000000000000000000005f82015250565b5f6113e6600f836110bd565b91506113f1826113b2565b602082019050919050565b5f6020820190508181035f830152611413816113da565b9050919050565b7f4e487b71000000000000000000000000000000000000000000000000000000005f52601160045260245ffd5b5f61145182610d86565b91507fffffffffffffffffffffffffffffffffffffffffffffffffffffffffffffffff82036114835761148261141a565b5b600182019050919050565b7f4e487b71000000000000000000000000000000000000000000000000000000005f52604160045260245ffd5b7f4e487b71000000000000000000000000000000000000000000000000000000005f52602260045260245ffd5b5f60028204905060018216806114ff57607f821691505b602082108103611512576115116114bb565b5b50919050565b5f819050815f5260205f209050919050565b5f6020601f8301049050919050565b5f82821b905092915050565b5f600883026115747fffffffffffffffffffffffffffffffffffffffffffffffffffffffffffffffff82611539565b61157e8683611539565b95508019841693508086168417925050509392505050565b5f819050919050565b5f6115b96115b46115af84610d86565b611596565b610d86565b9050919050565b5f819050919050565b6115d28361159f565b6115e66115de826115c0565b848454611545565b825550505050565b5f5f905090565b6115fd6115ee565b6116088184846115c9565b505050565b5b8181101561162b576116205f826115f5565b60018101905061160e565b5050565b601f8211156116705761164181611518565b61164a8461152a565b81016020851015611659578190505b61166d6116658561152a565b83018261160d565b50505b505050565b5f82821c905092915050565b5f6116905f1984600802611675565b1980831691505092915050565b5f6116a88383611681565b9150826002028217905092915050565b6116c1826110b3565b67ffffffffffffffff8111156116da576116d961148e565b5b6116e482546114e8565b6116ef82828561162f565b5f60209050601f831160018114611720575f841561170e578287015190505b611718858261169d565b86555061177f565b601f19841661172e86611518565b5f5b8281101561175557848901518255600182019150602085019450602081019050611730565b86831015611772578489015161176e601f891682611681565b8355505b6001600288020188555050505b505050505050565b828183375f83830152505050565b5f6117a083856110bd565b93506117ad838584611787565b6117b6836110db565b840190509392505050565b5f6060820190508181035f8301526117da818789611795565b905081810360208301526117ef818587611795565b90506117fe6040830184610d8f565b9695505050505050565b7f4173736574206e6f74206c6973746564000000000000000000000000000000005f82015250565b5f61183c6010836110bd565b915061184782611808565b602082019050919050565b5f6020820190508181035f83015261186981611830565b9050919050565b5f82905092915050565b6118848383611870565b67ffffffffffffffff81111561189d5761189c61148e565b5b6118a782546114e8565b6118b282828561162f565b5f601f8311600181146118df575f84156118cd578287013590505b6118d7858261169d565b86555061193e565b601f1984166118ed86611518565b5f5b82811015611914578489013582556001820191506020850194506020810190506118ef565b86831015611931578489013561192d601f891682611681565b8355505b6001600288020188555050505b50505050505050565b5f6040820190508181035f830152611960818688611795565b90508181036020830152611975818486611795565b905095945050505050565b7f417373657420646f6573206e6f742065786973740000000000000000000000005f82015250565b5f6119b46014836110bd565b91506119bf82611980565b602082019050919050565b5f6020820190508181035f8301526119e1816119a8565b9050919050565b7f5265656e7472616e637947756172643a207265656e7472616e742063616c6c005f82015250565b5f611a1c601f836110bd565b9150611a27826119e8565b602082019050919050565b5f6020820190508181035f830152611a4981611a10565b9050919050565b7f4e487b71000000000000000000000000000000000000000000000000000000005f52603260045260245ffd5b5f611a8782610d86565b9150611a9283610d86565b9250828203905081811115611aaa57611aa961141a565b5b92915050565b7f4e487b71000000000000000000000000000000000000000000000000000000005f52603160045260245ffdfea26469706673582212209d6797553c4666d28fa6aa13677bb46475a75f91fb993761fb306e907bce3b9c64736f6c634300081d0033",
					"opcodes": "PUSH1 0x80 PUSH1 0x40 MSTORE CALLVALUE DUP1 ISZERO PUSH2 0xF JUMPI PUSH0 PUSH0 REVERT JUMPDEST POP CALLER PUSH0 PUSH20 0xFFFFFFFFFFFFFFFFFFFFFFFFFFFFFFFFFFFFFFFF AND DUP2 PUSH20 0xFFFFFFFFFFFFFFFFFFFFFFFFFFFFFFFFFFFFFFFF AND SUB PUSH2 0x81 JUMPI PUSH0 PUSH1 0x40 MLOAD PUSH32 0x1E4FBDF700000000000000000000000000000000000000000000000000000000 DUP2 MSTORE PUSH1 0x4 ADD PUSH2 0x78 SWAP2 SWAP1 PUSH2 0x19D JUMP JUMPDEST PUSH1 0x40 MLOAD DUP1 SWAP2 SUB SWAP1 REVERT JUMPDEST PUSH2 0x90 DUP2 PUSH2 0x9D PUSH1 0x20 SHL PUSH1 0x20 SHR JUMP JUMPDEST POP PUSH1 0x1 DUP1 DUP2 SWAP1 SSTORE POP PUSH2 0x1B6 JUMP JUMPDEST PUSH0 PUSH0 PUSH0 SWAP1 SLOAD SWAP1 PUSH2 0x100 EXP SWAP1 DIV PUSH20 0xFFFFFFFFFFFFFFFFFFFFFFFFFFFFFFFFFFFFFFFF AND SWAP1 POP DUP2 PUSH0 PUSH0 PUSH2 0x100 EXP DUP2 SLOAD DUP2 PUSH20 0xFFFFFFFFFFFFFFFFFFFFFFFFFFFFFFFFFFFFFFFF MUL NOT AND SWAP1 DUP4 PUSH20 0xFFFFFFFFFFFFFFFFFFFFFFFFFFFFFFFFFFFFFFFF AND MUL OR SWAP1 SSTORE POP DUP2 PUSH20 0xFFFFFFFFFFFFFFFFFFFFFFFFFFFFFFFFFFFFFFFF AND DUP2 PUSH20 0xFFFFFFFFFFFFFFFFFFFFFFFFFFFFFFFFFFFFFFFF AND PUSH32 0x8BE0079C531659141344CD1FD0A4F28419497F9722A3DAAFE3B4186F6B6457E0 PUSH1 0x40 MLOAD PUSH1 0x40 MLOAD DUP1 SWAP2 SUB SWAP1 LOG3 POP POP JUMP JUMPDEST PUSH0 PUSH20 0xFFFFFFFFFFFFFFFFFFFFFFFFFFFFFFFFFFFFFFFF DUP3 AND SWAP1 POP SWAP2 SWAP1 POP JUMP JUMPDEST PUSH0 PUSH2 0x187 DUP3 PUSH2 0x15E JUMP JUMPDEST SWAP1 POP SWAP2 SWAP1 POP JUMP JUMPDEST PUSH2 0x197 DUP2 PUSH2 0x17D JUMP JUMPDEST DUP3 MSTORE POP POP JUMP JUMPDEST PUSH0 PUSH1 0x20 DUP3 ADD SWAP1 POP PUSH2 0x1B0 PUSH0 DUP4 ADD DUP5 PUSH2 0x18E JUMP JUMPDEST SWAP3 SWAP2 POP POP JUMP JUMPDEST PUSH2 0x1B13 DUP1 PUSH2 0x1C3 PUSH0 CODECOPY PUSH0 RETURN INVALID PUSH1 0x80 PUSH1 0x40 MSTORE CALLVALUE DUP1 ISZERO PUSH2 0xF JUMPI PUSH0 PUSH0 REVERT JUMPDEST POP PUSH1 0x4 CALLDATASIZE LT PUSH2 0xA7 JUMPI PUSH0 CALLDATALOAD PUSH1 0xE0 SHR DUP1 PUSH4 0x8DA5CB5B GT PUSH2 0x6F JUMPI DUP1 PUSH4 0x8DA5CB5B EQ PUSH2 0x13D JUMPI DUP1 PUSH4 0x8ED91318 EQ PUSH2 0x15B JUMPI DUP1 PUSH4 0x90C43087 EQ PUSH2 0x179 JUMPI DUP1 PUSH4 0xCF35BDD0 EQ PUSH2 0x195 JUMPI DUP1 PUSH4 0xEAC8F5B8 EQ PUSH2 0x1C9 JUMPI DUP1 PUSH4 0xF2FDE38B EQ PUSH2 0x1F9 JUMPI PUSH2 0xA7 JUMP JUMPDEST DUP1 PUSH4 0x1E1D114 EQ PUSH2 0xAB JUMPI DUP1 PUSH4 0x24828557 EQ PUSH2 0xC9 JUMPI DUP1 PUSH4 0x43D7C778 EQ PUSH2 0xE7 JUMPI DUP1 PUSH4 0x51FD697E EQ PUSH2 0x103 JUMPI DUP1 PUSH4 0x715018A6 EQ PUSH2 0x133 JUMPI JUMPDEST PUSH0 PUSH0 REVERT JUMPDEST PUSH2 0xB3 PUSH2 0x215 JUMP JUMPDEST PUSH1 0x40 MLOAD PUSH2 0xC0 SWAP2 SWAP1 PUSH2 0xD9E JUMP JUMPDEST PUSH1 0x40 MLOAD DUP1 SWAP2 SUB SWAP1 RETURN JUMPDEST PUSH2 0xD1 PUSH2 0x21E JUMP JUMPDEST PUSH1 0x40 MLOAD PUSH2 0xDE SWAP2 SWAP1 PUSH2 0xE6E JUMP JUMPDEST PUSH1 0x40 MLOAD DUP1 SWAP2 SUB SWAP1 RETURN JUMPDEST PUSH2 0x101 PUSH1 0x4 DUP1 CALLDATASIZE SUB DUP2 ADD SWAP1 PUSH2 0xFC SWAP2 SWAP1 PUSH2 0xEC0 JUMP JUMPDEST PUSH2 0x274 JUMP JUMPDEST STOP JUMPDEST PUSH2 0x11D PUSH1 0x4 DUP1 CALLDATASIZE SUB DUP2 ADD SWAP1 PUSH2 0x118 SWAP2 SWAP1 PUSH2 0xF4C JUMP JUMPDEST PUSH2 0x350 JUMP JUMPDEST PUSH1 0x40 MLOAD PUSH2 0x12A SWAP2 SWAP1 PUSH2 0xD9E JUMP JUMPDEST PUSH1 0x40 MLOAD DUP1 SWAP2 SUB SWAP1 RETURN JUMPDEST PUSH2 0x13B PUSH2 0x59A JUMP JUMPDEST STOP JUMPDEST PUSH2 0x145 PUSH2 0x5AD JUMP JUMPDEST PUSH1 0x40 MLOAD PUSH2 0x152 SWAP2 SWAP1 PUSH2 0x1009 JUMP JUMPDEST PUSH1 0x40 MLOAD DUP1 SWAP2 SUB SWAP1 RETURN JUMPDEST PUSH2 0x163 PUSH2 0x5D4 JUMP JUMPDEST PUSH1 0x40 MLOAD PUSH2 0x170 SWAP2 SWAP1 PUSH2 0xD9E JUMP JUMPDEST PUSH1 0x40 MLOAD DUP1 SWAP2 SUB SWAP1 RETURN JUMPDEST PUSH2 0x193 PUSH1 0x4 DUP1 CALLDATASIZE SUB DUP2 ADD SWAP1 PUSH2 0x18E SWAP2 SWAP1 PUSH2 0x1022 JUMP JUMPDEST PUSH2 0x5DA JUMP JUMPDEST STOP JUMPDEST PUSH2 0x1AF PUSH1 0x4 DUP1 CALLDATASIZE SUB DUP2 ADD SWAP1 PUSH2 0x1AA SWAP2 SWAP1 PUSH2 0xEC0 JUMP JUMPDEST PUSH2 0x757 JUMP JUMPDEST PUSH1 0x40 MLOAD PUSH2 0x1C0 SWAP6 SWAP5 SWAP4 SWAP3 SWAP2 SWAP1 PUSH2 0x113D JUMP JUMPDEST PUSH1 0x40 MLOAD DUP1 SWAP2 SUB SWAP1 RETURN JUMPDEST PUSH2 0x1E3 PUSH1 0x4 DUP1 CALLDATASIZE SUB DUP2 ADD SWAP1 PUSH2 0x1DE SWAP2 SWAP1 PUSH2 0xEC0 JUMP JUMPDEST PUSH2 0x8A1 JUMP JUMPDEST PUSH1 0x40 MLOAD PUSH2 0x1F0 SWAP2 SWAP1 PUSH2 0x126D JUMP JUMPDEST PUSH1 0x40 MLOAD DUP1 SWAP2 SUB SWAP1 RETURN JUMPDEST PUSH2 0x213 PUSH1 0x4 DUP1 CALLDATASIZE SUB DUP2 ADD SWAP1 PUSH2 0x20E SWAP2 SWAP1 PUSH2 0x12B7 JUMP JUMPDEST PUSH2 0xA6F JUMP JUMPDEST STOP JUMPDEST PUSH0 PUSH1 0x2 SLOAD SWAP1 POP SWAP1 JUMP JUMPDEST PUSH1 0x60 PUSH1 0x4 DUP1 SLOAD DUP1 PUSH1 0x20 MUL PUSH1 0x20 ADD PUSH1 0x40 MLOAD SWAP1 DUP2 ADD PUSH1 0x40 MSTORE DUP1 SWAP3 SWAP2 SWAP1 DUP2 DUP2 MSTORE PUSH1 0x20 ADD DUP3 DUP1 SLOAD DUP1 ISZERO PUSH2 0x26A JUMPI PUSH1 0x20 MUL DUP3 ADD SWAP2 SWAP1 PUSH0 MSTORE PUSH1 0x20 PUSH0 KECCAK256 SWAP1 JUMPDEST DUP2 SLOAD DUP2 MSTORE PUSH1 0x20 ADD SWAP1 PUSH1 0x1 ADD SWAP1 DUP1 DUP4 GT PUSH2 0x256 JUMPI JUMPDEST POP POP POP POP POP SWAP1 POP SWAP1 JUMP JUMPDEST PUSH2 0x27C PUSH2 0xAF3 JUMP JUMPDEST PUSH2 0x284 PUSH2 0xB7A JUMP JUMPDEST PUSH0 PUSH1 0x3 PUSH0 DUP4 DUP2 MSTORE PUSH1 0x20 ADD SWAP1 DUP2 MSTORE PUSH1 0x20 ADD PUSH0 KECCAK256 SWAP1 POP DUP1 PUSH1 0x4 ADD PUSH0 SWAP1 SLOAD SWAP1 PUSH2 0x100 EXP SWAP1 DIV PUSH1 0xFF AND PUSH2 0x2E8 JUMPI PUSH1 0x40 MLOAD PUSH32 0x8C379A000000000000000000000000000000000000000000000000000000000 DUP2 MSTORE PUSH1 0x4 ADD PUSH2 0x2DF SWAP1 PUSH2 0x132C JUMP JUMPDEST PUSH1 0x40 MLOAD DUP1 SWAP2 SUB SWAP1 REVERT JUMPDEST PUSH0 DUP2 PUSH1 0x4 ADD PUSH0 PUSH2 0x100 EXP DUP2 SLOAD DUP2 PUSH1 0xFF MUL NOT AND SWAP1 DUP4 ISZERO ISZERO MUL OR SWAP1 SSTORE POP PUSH2 0x30C DUP3 PUSH2 0xBC9 JUMP JUMPDEST DUP2 PUSH32 0x767124AD53AD1E6527B34A0AFF47147E993D99FCE57EC1C8804E8E6EEC1A0203 TIMESTAMP PUSH1 0x40 MLOAD PUSH2 0x33C SWAP2 SWAP1 PUSH2 0xD9E JUMP JUMPDEST PUSH1 0x40 MLOAD DUP1 SWAP2 SUB SWAP1 LOG2 POP PUSH2 0x34D PUSH2 0xC87 JUMP JUMPDEST POP JUMP JUMPDEST PUSH0 PUSH2 0x359 PUSH2 0xAF3 JUMP JUMPDEST PUSH2 0x361 PUSH2 0xB7A JUMP JUMPDEST PUSH0 DUP6 DUP6 SWAP1 POP GT PUSH2 0x3A6 JUMPI PUSH1 0x40 MLOAD PUSH32 0x8C379A000000000000000000000000000000000000000000000000000000000 DUP2 MSTORE PUSH1 0x4 ADD PUSH2 0x39D SWAP1 PUSH2 0x1394 JUMP JUMPDEST PUSH1 0x40 MLOAD DUP1 SWAP2 SUB SWAP1 REVERT JUMPDEST PUSH0 DUP4 DUP4 SWAP1 POP GT PUSH2 0x3EB JUMPI PUSH1 0x40 MLOAD PUSH32 0x8C379A000000000000000000000000000000000000000000000000000000000 DUP2 MSTORE PUSH1 0x4 ADD PUSH2 0x3E2 SWAP1 PUSH2 0x13FC JUMP JUMPDEST PUSH1 0x40 MLOAD DUP1 SWAP2 SUB SWAP1 REVERT JUMPDEST PUSH1 0x2 PUSH0 DUP2 SLOAD DUP1 SWAP3 SWAP2 SWAP1 PUSH2 0x3FD SWAP1 PUSH2 0x1447 JUMP JUMPDEST SWAP2 SWAP1 POP SSTORE SWAP1 POP PUSH1 0x40 MLOAD DUP1 PUSH1 0xA0 ADD PUSH1 0x40 MSTORE DUP1 DUP3 DUP2 MSTORE PUSH1 0x20 ADD DUP7 DUP7 DUP1 DUP1 PUSH1 0x1F ADD PUSH1 0x20 DUP1 SWAP2 DIV MUL PUSH1 0x20 ADD PUSH1 0x40 MLOAD SWAP1 DUP2 ADD PUSH1 0x40 MSTORE DUP1 SWAP4 SWAP3 SWAP2 SWAP1 DUP2 DUP2 MSTORE PUSH1 0x20 ADD DUP4 DUP4 DUP1 DUP3 DUP5 CALLDATACOPY PUSH0 DUP2 DUP5 ADD MSTORE PUSH1 0x1F NOT PUSH1 0x1F DUP3 ADD AND SWAP1 POP DUP1 DUP4 ADD SWAP3 POP POP POP POP POP POP POP DUP2 MSTORE PUSH1 0x20 ADD DUP5 DUP5 DUP1 DUP1 PUSH1 0x1F ADD PUSH1 0x20 DUP1 SWAP2 DIV MUL PUSH1 0x20 ADD PUSH1 0x40 MLOAD SWAP1 DUP2 ADD PUSH1 0x40 MSTORE DUP1 SWAP4 SWAP3 SWAP2 SWAP1 DUP2 DUP2 MSTORE PUSH1 0x20 ADD DUP4 DUP4 DUP1 DUP3 DUP5 CALLDATACOPY PUSH0 DUP2 DUP5 ADD MSTORE PUSH1 0x1F NOT PUSH1 0x1F DUP3 ADD AND SWAP1 POP DUP1 DUP4 ADD SWAP3 POP POP POP POP POP POP POP DUP2 MSTORE PUSH1 0x20 ADD TIMESTAMP DUP2 MSTORE PUSH1 0x20 ADD PUSH1 0x1 ISZERO ISZERO DUP2 MSTORE POP PUSH1 0x3 PUSH0 DUP4 DUP2 MSTORE PUSH1 0x20 ADD SWAP1 DUP2 MSTORE PUSH1 0x20 ADD PUSH0 KECCAK256 PUSH0 DUP3 ADD MLOAD DUP2 PUSH0 ADD SSTORE PUSH1 0x20 DUP3 ADD MLOAD DUP2 PUSH1 0x1 ADD SWAP1 DUP2 PUSH2 0x4E1 SWAP2 SWAP1 PUSH2 0x16B8 JUMP JUMPDEST POP PUSH1 0x40 DUP3 ADD MLOAD DUP2 PUSH1 0x2 ADD SWAP1 DUP2 PUSH2 0x4F7 SWAP2 SWAP1 PUSH2 0x16B8 JUMP JUMPDEST POP PUSH1 0x60 DUP3 ADD MLOAD DUP2 PUSH1 0x3 ADD SSTORE PUSH1 0x80 DUP3 ADD MLOAD DUP2 PUSH1 0x4 ADD PUSH0 PUSH2 0x100 EXP DUP2 SLOAD DUP2 PUSH1 0xFF MUL NOT AND SWAP1 DUP4 ISZERO ISZERO MUL OR SWAP1 SSTORE POP SWAP1 POP POP PUSH1 0x4 DUP2 SWAP1 DUP1 PUSH1 0x1 DUP2 SLOAD ADD DUP1 DUP3 SSTORE DUP1 SWAP2 POP POP PUSH1 0x1 SWAP1 SUB SWAP1 PUSH0 MSTORE PUSH1 0x20 PUSH0 KECCAK256 ADD PUSH0 SWAP1 SWAP2 SWAP1 SWAP2 SWAP1 SWAP2 POP SSTORE DUP1 PUSH32 0xFCFD8B736A89A5E9928F75DC7E826DBE2F29390FB8DC8EA137AC1D143D33A89A DUP7 DUP7 DUP7 DUP7 TIMESTAMP PUSH1 0x40 MLOAD PUSH2 0x582 SWAP6 SWAP5 SWAP4 SWAP3 SWAP2 SWAP1 PUSH2 0x17C1 JUMP JUMPDEST PUSH1 0x40 MLOAD DUP1 SWAP2 SUB SWAP1 LOG2 PUSH2 0x592 PUSH2 0xC87 JUMP JUMPDEST SWAP5 SWAP4 POP POP POP POP JUMP JUMPDEST PUSH2 0x5A2 PUSH2 0xAF3 JUMP JUMPDEST PUSH2 0x5AB PUSH0 PUSH2 0xC90 JUMP JUMPDEST JUMP JUMPDEST PUSH0 PUSH0 PUSH0 SWAP1 SLOAD SWAP1 PUSH2 0x100 EXP SWAP1 DIV PUSH20 0xFFFFFFFFFFFFFFFFFFFFFFFFFFFFFFFFFFFFFFFF AND SWAP1 POP SWAP1 JUMP JUMPDEST PUSH1 0x2 SLOAD DUP2 JUMP JUMPDEST PUSH2 0x5E2 PUSH2 0xAF3 JUMP JUMPDEST PUSH2 0x5EA PUSH2 0xB7A JUMP JUMPDEST PUSH0 PUSH1 0x3 PUSH0 DUP8 DUP2 MSTORE PUSH1 0x20 ADD SWAP1 DUP2 MSTORE PUSH1 0x20 ADD PUSH0 KECCAK256 SWAP1 POP DUP1 PUSH1 0x4 ADD PUSH0 SWAP1 SLOAD SWAP1 PUSH2 0x100 EXP SWAP1 DIV PUSH1 0xFF AND PUSH2 0x64E JUMPI PUSH1 0x40 MLOAD PUSH32 0x8C379A000000000000000000000000000000000000000000000000000000000 DUP2 MSTORE PUSH1 0x4 ADD PUSH2 0x645 SWAP1 PUSH2 0x1852 JUMP JUMPDEST PUSH1 0x40 MLOAD DUP1 SWAP2 SUB SWAP1 REVERT JUMPDEST PUSH0 DUP6 DUP6 SWAP1 POP GT PUSH2 0x693 JUMPI PUSH1 0x40 MLOAD PUSH32 0x8C379A000000000000000000000000000000000000000000000000000000000 DUP2 MSTORE PUSH1 0x4 ADD PUSH2 0x68A SWAP1 PUSH2 0x1394 JUMP JUMPDEST PUSH1 0x40 MLOAD DUP1 SWAP2 SUB SWAP1 REVERT JUMPDEST PUSH0 DUP4 DUP4 SWAP1 POP GT PUSH2 0x6D8 JUMPI PUSH1 0x40 MLOAD PUSH32 0x8C379A000000000000000000000000000000000000000000000000000000000 DUP2 MSTORE PUSH1 0x4 ADD PUSH2 0x6CF SWAP1 PUSH2 0x13FC JUMP JUMPDEST PUSH1 0x40 MLOAD DUP1 SWAP2 SUB SWAP1 REVERT JUMPDEST DUP5 DUP5 DUP3 PUSH1 0x1 ADD SWAP2 DUP3 PUSH2 0x6EB SWAP3 SWAP2 SWAP1 PUSH2 0x187A JUMP JUMPDEST POP DUP3 DUP3 DUP3 PUSH1 0x2 ADD SWAP2 DUP3 PUSH2 0x6FF SWAP3 SWAP2 SWAP1 PUSH2 0x187A JUMP JUMPDEST POP TIMESTAMP DUP2 PUSH1 0x3 ADD DUP2 SWAP1 SSTORE POP DUP6 PUSH32 0xAC6577F410E34A2651D9E99D6B30D7F819CD4B8489498882E79EDD6E960EBEE5 DUP7 DUP7 DUP7 DUP7 PUSH1 0x40 MLOAD PUSH2 0x73F SWAP5 SWAP4 SWAP3 SWAP2 SWAP1 PUSH2 0x1947 JUMP JUMPDEST PUSH1 0x40 MLOAD DUP1 SWAP2 SUB SWAP1 LOG2 POP PUSH2 0x750 PUSH2 0xC87 JUMP JUMPDEST POP POP POP POP POP JUMP JUMPDEST PUSH1 0x3 PUSH1 0x20 MSTORE DUP1 PUSH0 MSTORE PUSH1 0x40 PUSH0 KECCAK256 PUSH0 SWAP2 POP SWAP1 POP DUP1 PUSH0 ADD SLOAD SWAP1 DUP1 PUSH1 0x1 ADD DUP1 SLOAD PUSH2 0x77C SWAP1 PUSH2 0x14E8 JUMP JUMPDEST DUP1 PUSH1 0x1F ADD PUSH1 0x20 DUP1 SWAP2 DIV MUL PUSH1 0x20 ADD PUSH1 0x40 MLOAD SWAP1 DUP2 ADD PUSH1 0x40 MSTORE DUP1 SWAP3 SWAP2 SWAP1 DUP2 DUP2 MSTORE PUSH1 0x20 ADD DUP3 DUP1 SLOAD PUSH2 0x7A8 SWAP1 PUSH2 0x14E8 JUMP JUMPDEST DUP1 ISZERO PUSH2 0x7F3 JUMPI DUP1 PUSH1 0x1F LT PUSH2 0x7CA JUMPI PUSH2 0x100 DUP1 DUP4 SLOAD DIV MUL DUP4 MSTORE SWAP2 PUSH1 0x20 ADD SWAP2 PUSH2 0x7F3 JUMP JUMPDEST DUP3 ADD SWAP2 SWAP1 PUSH0 MSTORE PUSH1 0x20 PUSH0 KECCAK256 SWAP1 JUMPDEST DUP2 SLOAD DUP2 MSTORE SWAP1 PUSH1 0x1 ADD SWAP1 PUSH1 0x20 ADD DUP1 DUP4 GT PUSH2 0x7D6 JUMPI DUP3 SWAP1 SUB PUSH1 0x1F AND DUP3 ADD SWAP2 JUMPDEST POP POP POP POP POP SWAP1 DUP1 PUSH1 0x2 ADD DUP1 SLOAD PUSH2 0x808 SWAP1 PUSH2 0x14E8 JUMP JUMPDEST DUP1 PUSH1 0x1F ADD PUSH1 0x20 DUP1 SWAP2 DIV MUL PUSH1 0x20 ADD PUSH1 0x40 MLOAD SWAP1 DUP2 ADD PUSH1 0x40 MSTORE DUP1 SWAP3 SWAP2 SWAP1 DUP2 DUP2 MSTORE PUSH1 0x20 ADD DUP3 DUP1 SLOAD PUSH2 0x834 SWAP1 PUSH2 0x14E8 JUMP JUMPDEST DUP1 ISZERO PUSH2 0x87F JUMPI DUP1 PUSH1 0x1F LT PUSH2 0x856 JUMPI PUSH2 0x100 DUP1 DUP4 SLOAD DIV MUL DUP4 MSTORE SWAP2 PUSH1 0x20 ADD SWAP2 PUSH2 0x87F JUMP JUMPDEST DUP3 ADD SWAP2 SWAP1 PUSH0 MSTORE PUSH1 0x20 PUSH0 KECCAK256 SWAP1 JUMPDEST DUP2 SLOAD DUP2 MSTORE SWAP1 PUSH1 0x1 ADD SWAP1 PUSH1 0x20 ADD DUP1 DUP4 GT PUSH2 0x862 JUMPI DUP3 SWAP1 SUB PUSH1 0x1F AND DUP3 ADD SWAP2 JUMPDEST POP POP POP POP POP SWAP1 DUP1 PUSH1 0x3 ADD SLOAD SWAP1 DUP1 PUSH1 0x4 ADD PUSH0 SWAP1 SLOAD SWAP1 PUSH2 0x100 EXP SWAP1 DIV PUSH1 0xFF AND SWAP1 POP DUP6 JUMP JUMPDEST PUSH2 0x8A9 PUSH2 0xD58 JUMP JUMPDEST PUSH0 PUSH1 0x3 PUSH0 DUP5 DUP2 MSTORE PUSH1 0x20 ADD SWAP1 DUP2 MSTORE PUSH1 0x20 ADD PUSH0 KECCAK256 PUSH1 0x3 ADD SLOAD SUB PUSH2 0x8FF JUMPI PUSH1 0x40 MLOAD PUSH32 0x8C379A000000000000000000000000000000000000000000000000000000000 DUP2 MSTORE PUSH1 0x4 ADD PUSH2 0x8F6 SWAP1 PUSH2 0x19CA JUMP JUMPDEST PUSH1 0x40 MLOAD DUP1 SWAP2 SUB SWAP1 REVERT JUMPDEST PUSH1 0x3 PUSH0 DUP4 DUP2 MSTORE PUSH1 0x20 ADD SWAP1 DUP2 MSTORE PUSH1 0x20 ADD PUSH0 KECCAK256 PUSH1 0x40 MLOAD DUP1 PUSH1 0xA0 ADD PUSH1 0x40 MSTORE SWAP1 DUP2 PUSH0 DUP3 ADD SLOAD DUP2 MSTORE PUSH1 0x20 ADD PUSH1 0x1 DUP3 ADD DUP1 SLOAD PUSH2 0x934 SWAP1 PUSH2 0x14E8 JUMP JUMPDEST DUP1 PUSH1 0x1F ADD PUSH1 0x20 DUP1 SWAP2 DIV MUL PUSH1 0x20 ADD PUSH1 0x40 MLOAD SWAP1 DUP2 ADD PUSH1 0x40 MSTORE DUP1 SWAP3 SWAP2 SWAP1 DUP2 DUP2 MSTORE PUSH1 0x20 ADD DUP3 DUP1 SLOAD PUSH2 0x960 SWAP1 PUSH2 0x14E8 JUMP JUMPDEST DUP1 ISZERO PUSH2 0x9AB JUMPI DUP1 PUSH1 0x1F LT PUSH2 0x982 JUMPI PUSH2 0x100 DUP1 DUP4 SLOAD DIV MUL DUP4 MSTORE SWAP2 PUSH1 0x20 ADD SWAP2 PUSH2 0x9AB JUMP JUMPDEST DUP3 ADD SWAP2 SWAP1 PUSH0 MSTORE PUSH1 0x20 PUSH0 KECCAK256 SWAP1 JUMPDEST DUP2 SLOAD DUP2 MSTORE SWAP1 PUSH1 0x1 ADD SWAP1 PUSH1 0x20 ADD DUP1 DUP4 GT PUSH2 0x98E JUMPI DUP3 SWAP1 SUB PUSH1 0x1F AND DUP3 ADD SWAP2 JUMPDEST POP POP POP POP POP DUP2 MSTORE PUSH1 0x20 ADD PUSH1 0x2 DUP3 ADD DUP1 SLOAD PUSH2 0x9C4 SWAP1 PUSH2 0x14E8 JUMP JUMPDEST DUP1 PUSH1 0x1F ADD PUSH1 0x20 DUP1 SWAP2 DIV MUL PUSH1 0x20 ADD PUSH1 0x40 MLOAD SWAP1 DUP2 ADD PUSH1 0x40 MSTORE DUP1 SWAP3 SWAP2 SWAP1 DUP2 DUP2 MSTORE PUSH1 0x20 ADD DUP3 DUP1 SLOAD PUSH2 0x9F0 SWAP1 PUSH2 0x14E8 JUMP JUMPDEST DUP1 ISZERO PUSH2 0xA3B JUMPI DUP1 PUSH1 0x1F LT PUSH2 0xA12 JUMPI PUSH2 0x100 DUP1 DUP4 SLOAD DIV MUL DUP4 MSTORE SWAP2 PUSH1 0x20 ADD SWAP2 PUSH2 0xA3B JUMP JUMPDEST DUP3 ADD SWAP2 SWAP1 PUSH0 MSTORE PUSH1 0x20 PUSH0 KECCAK256 SWAP1 JUMPDEST DUP2 SLOAD DUP2 MSTORE SWAP1 PUSH1 0x1 ADD SWAP1 PUSH1 0x20 ADD DUP1 DUP4 GT PUSH2 0xA1E JUMPI DUP3 SWAP1 SUB PUSH1 0x1F AND DUP3 ADD SWAP2 JUMPDEST POP POP POP POP POP DUP2 MSTORE PUSH1 0x20 ADD PUSH1 0x3 DUP3 ADD SLOAD DUP2 MSTORE PUSH1 0x20 ADD PUSH1 0x4 DUP3 ADD PUSH0 SWAP1 SLOAD SWAP1 PUSH2 0x100 EXP SWAP1 DIV PUSH1 0xFF AND ISZERO ISZERO ISZERO ISZERO DUP2 MSTORE POP POP SWAP1 POP SWAP2 SWAP1 POP JUMP JUMPDEST PUSH2 0xA77 PUSH2 0xAF3 JUMP JUMPDEST PUSH0 PUSH20 0xFFFFFFFFFFFFFFFFFFFFFFFFFFFFFFFFFFFFFFFF AND DUP2 PUSH20 0xFFFFFFFFFFFFFFFFFFFFFFFFFFFFFFFFFFFFFFFF AND SUB PUSH2 0xAE7 JUMPI PUSH0 PUSH1 0x40 MLOAD PUSH32 0x1E4FBDF700000000000000000000000000000000000000000000000000000000 DUP2 MSTORE PUSH1 0x4 ADD PUSH2 0xADE SWAP2 SWAP1 PUSH2 0x1009 JUMP JUMPDEST PUSH1 0x40 MLOAD DUP1 SWAP2 SUB SWAP1 REVERT JUMPDEST PUSH2 0xAF0 DUP2 PUSH2 0xC90 JUMP JUMPDEST POP JUMP JUMPDEST PUSH2 0xAFB PUSH2 0xD51 JUMP JUMPDEST PUSH20 0xFFFFFFFFFFFFFFFFFFFFFFFFFFFFFFFFFFFFFFFF AND PUSH2 0xB19 PUSH2 0x5AD JUMP JUMPDEST PUSH20 0xFFFFFFFFFFFFFFFFFFFFFFFFFFFFFFFFFFFFFFFF AND EQ PUSH2 0xB78 JUMPI PUSH2 0xB3C PUSH2 0xD51 JUMP JUMPDEST PUSH1 0x40 MLOAD PUSH32 0x118CDAA700000000000000000000000000000000000000000000000000000000 DUP2 MSTORE PUSH1 0x4 ADD PUSH2 0xB6F SWAP2 SWAP1 PUSH2 0x1009 JUMP JUMPDEST PUSH1 0x40 MLOAD DUP1 SWAP2 SUB SWAP1 REVERT JUMPDEST JUMP JUMPDEST PUSH1 0x2 PUSH1 0x1 SLOAD SUB PUSH2 0xBBF JUMPI PUSH1 0x40 MLOAD PUSH32 0x8C379A000000000000000000000000000000000000000000000000000000000 DUP2 MSTORE PUSH1 0x4 ADD PUSH2 0xBB6 SWAP1 PUSH2 0x1A32 JUMP JUMPDEST PUSH1 0x40 MLOAD DUP1 SWAP2 SUB SWAP1 REVERT JUMPDEST PUSH1 0x2 PUSH1 0x1 DUP2 SWAP1 SSTORE POP JUMP JUMPDEST PUSH0 PUSH1 0x4 DUP1 SLOAD SWAP1 POP SWAP1 POP PUSH0 PUSH0 SWAP1 POP JUMPDEST DUP2 DUP2 LT ISZERO PUSH2 0xC82 JUMPI DUP3 PUSH1 0x4 DUP3 DUP2 SLOAD DUP2 LT PUSH2 0xBF4 JUMPI PUSH2 0xBF3 PUSH2 0x1A50 JUMP JUMPDEST JUMPDEST SWAP1 PUSH0 MSTORE PUSH1 0x20 PUSH0 KECCAK256 ADD SLOAD SUB PUSH2 0xC75 JUMPI PUSH1 0x4 PUSH1 0x1 DUP4 PUSH2 0xC11 SWAP2 SWAP1 PUSH2 0x1A7D JUMP JUMPDEST DUP2 SLOAD DUP2 LT PUSH2 0xC22 JUMPI PUSH2 0xC21 PUSH2 0x1A50 JUMP JUMPDEST JUMPDEST SWAP1 PUSH0 MSTORE PUSH1 0x20 PUSH0 KECCAK256 ADD SLOAD PUSH1 0x4 DUP3 DUP2 SLOAD DUP2 LT PUSH2 0xC3F JUMPI PUSH2 0xC3E PUSH2 0x1A50 JUMP JUMPDEST JUMPDEST SWAP1 PUSH0 MSTORE PUSH1 0x20 PUSH0 KECCAK256 ADD DUP2 SWAP1 SSTORE POP PUSH1 0x4 DUP1 SLOAD DUP1 PUSH2 0xC5D JUMPI PUSH2 0xC5C PUSH2 0x1AB0 JUMP JUMPDEST JUMPDEST PUSH1 0x1 SWAP1 SUB DUP2 DUP2 SWAP1 PUSH0 MSTORE PUSH1 0x20 PUSH0 KECCAK256 ADD PUSH0 SWAP1 SSTORE SWAP1 SSTORE PUSH2 0xC82 JUMP JUMPDEST DUP1 DUP1 PUSH1 0x1 ADD SWAP2 POP POP PUSH2 0xBD7 JUMP JUMPDEST POP POP POP JUMP JUMPDEST PUSH1 0x1 DUP1 DUP2 SWAP1 SSTORE POP JUMP JUMPDEST PUSH0 PUSH0 PUSH0 SWAP1 SLOAD SWAP1 PUSH2 0x100 EXP SWAP1 DIV PUSH20 0xFFFFFFFFFFFFFFFFFFFFFFFFFFFFFFFFFFFFFFFF AND SWAP1 POP DUP2 PUSH0 PUSH0 PUSH2 0x100 EXP DUP2 SLOAD DUP2 PUSH20 0xFFFFFFFFFFFFFFFFFFFFFFFFFFFFFFFFFFFFFFFF MUL NOT AND SWAP1 DUP4 PUSH20 0xFFFFFFFFFFFFFFFFFFFFFFFFFFFFFFFFFFFFFFFF AND MUL OR SWAP1 SSTORE POP DUP2 PUSH20 0xFFFFFFFFFFFFFFFFFFFFFFFFFFFFFFFFFFFFFFFF AND DUP2 PUSH20 0xFFFFFFFFFFFFFFFFFFFFFFFFFFFFFFFFFFFFFFFF AND PUSH32 0x8BE0079C531659141344CD1FD0A4F28419497F9722A3DAAFE3B4186F6B6457E0 PUSH1 0x40 MLOAD PUSH1 0x40 MLOAD DUP1 SWAP2 SUB SWAP1 LOG3 POP POP JUMP JUMPDEST PUSH0 CALLER SWAP1 POP SWAP1 JUMP JUMPDEST PUSH1 0x40 MLOAD DUP1 PUSH1 0xA0 ADD PUSH1 0x40 MSTORE DUP1 PUSH0 DUP2 MSTORE PUSH1 0x20 ADD PUSH1 0x60 DUP2 MSTORE PUSH1 0x20 ADD PUSH1 0x60 DUP2 MSTORE PUSH1 0x20 ADD PUSH0 DUP2 MSTORE PUSH1 0x20 ADD PUSH0 ISZERO ISZERO DUP2 MSTORE POP SWAP1 JUMP JUMPDEST PUSH0 DUP2 SWAP1 POP SWAP2 SWAP1 POP JUMP JUMPDEST PUSH2 0xD98 DUP2 PUSH2 0xD86 JUMP JUMPDEST DUP3 MSTORE POP POP JUMP JUMPDEST PUSH0 PUSH1 0x20 DUP3 ADD SWAP1 POP PUSH2 0xDB1 PUSH0 DUP4 ADD DUP5 PUSH2 0xD8F JUMP JUMPDEST SWAP3 SWAP2 POP POP JUMP JUMPDEST PUSH0 DUP2 MLOAD SWAP1 POP SWAP2 SWAP1 POP JUMP JUMPDEST PUSH0 DUP3 DUP3 MSTORE PUSH1 0x20 DUP3 ADD SWAP1 POP SWAP3 SWAP2 POP POP JUMP JUMPDEST PUSH0 DUP2 SWAP1 POP PUSH1 0x20 DUP3 ADD SWAP1 POP SWAP2 SWAP1 POP JUMP JUMPDEST PUSH2 0xDE9 DUP2 PUSH2 0xD86 JUMP JUMPDEST DUP3 MSTORE POP POP JUMP JUMPDEST PUSH0 PUSH2 0xDFA DUP4 DUP4 PUSH2 0xDE0 JUMP JUMPDEST PUSH1 0x20 DUP4 ADD SWAP1 POP SWAP3 SWAP2 POP POP JUMP JUMPDEST PUSH0 PUSH1 0x20 DUP3 ADD SWAP1 POP SWAP2 SWAP1 POP JUMP JUMPDEST PUSH0 PUSH2 0xE1C DUP3 PUSH2 0xDB7 JUMP JUMPDEST PUSH2 0xE26 DUP2 DUP6 PUSH2 0xDC1 JUMP JUMPDEST SWAP4 POP PUSH2 0xE31 DUP4 PUSH2 0xDD1 JUMP JUMPDEST DUP1 PUSH0 JUMPDEST DUP4 DUP2 LT ISZERO PUSH2 0xE61 JUMPI DUP2 MLOAD PUSH2 0xE48 DUP9 DUP3 PUSH2 0xDEF JUMP JUMPDEST SWAP8 POP PUSH2 0xE53 DUP4 PUSH2 0xE06 JUMP JUMPDEST SWAP3 POP POP PUSH1 0x1 DUP2 ADD SWAP1 POP PUSH2 0xE34 JUMP JUMPDEST POP DUP6 SWAP4 POP POP POP POP SWAP3 SWAP2 POP POP JUMP JUMPDEST PUSH0 PUSH1 0x20 DUP3 ADD SWAP1 POP DUP2 DUP2 SUB PUSH0 DUP4 ADD MSTORE PUSH2 0xE86 DUP2 DUP5 PUSH2 0xE12 JUMP JUMPDEST SWAP1 POP SWAP3 SWAP2 POP POP JUMP JUMPDEST PUSH0 PUSH0 REVERT JUMPDEST PUSH0 PUSH0 REVERT JUMPDEST PUSH2 0xE9F DUP2 PUSH2 0xD86 JUMP JUMPDEST DUP2 EQ PUSH2 0xEA9 JUMPI PUSH0 PUSH0 REVERT JUMPDEST POP JUMP JUMPDEST PUSH0 DUP2 CALLDATALOAD SWAP1 POP PUSH2 0xEBA DUP2 PUSH2 0xE96 JUMP JUMPDEST SWAP3 SWAP2 POP POP JUMP JUMPDEST PUSH0 PUSH1 0x20 DUP3 DUP5 SUB SLT ISZERO PUSH2 0xED5 JUMPI PUSH2 0xED4 PUSH2 0xE8E JUMP JUMPDEST JUMPDEST PUSH0 PUSH2 0xEE2 DUP5 DUP3 DUP6 ADD PUSH2 0xEAC JUMP JUMPDEST SWAP2 POP POP SWAP3 SWAP2 POP POP JUMP JUMPDEST PUSH0 PUSH0 REVERT JUMPDEST PUSH0 PUSH0 REVERT JUMPDEST PUSH0 PUSH0 REVERT JUMPDEST PUSH0 PUSH0 DUP4 PUSH1 0x1F DUP5 ADD SLT PUSH2 0xF0C JUMPI PUSH2 0xF0B PUSH2 0xEEB JUMP JUMPDEST JUMPDEST DUP3 CALLDATALOAD SWAP1 POP PUSH8 0xFFFFFFFFFFFFFFFF DUP2 GT ISZERO PUSH2 0xF29 JUMPI PUSH2 0xF28 PUSH2 0xEEF JUMP JUMPDEST JUMPDEST PUSH1 0x20 DUP4 ADD SWAP2 POP DUP4 PUSH1 0x1 DUP3 MUL DUP4 ADD GT ISZERO PUSH2 0xF45 JUMPI PUSH2 0xF44 PUSH2 0xEF3 JUMP JUMPDEST JUMPDEST SWAP3 POP SWAP3 SWAP1 POP JUMP JUMPDEST PUSH0 PUSH0 PUSH0 PUSH0 PUSH1 0x40 DUP6 DUP8 SUB SLT ISZERO PUSH2 0xF64 JUMPI PUSH2 0xF63 PUSH2 0xE8E JUMP JUMPDEST JUMPDEST PUSH0 DUP6 ADD CALLDATALOAD PUSH8 0xFFFFFFFFFFFFFFFF DUP2 GT ISZERO PUSH2 0xF81 JUMPI PUSH2 0xF80 PUSH2 0xE92 JUMP JUMPDEST JUMPDEST PUSH2 0xF8D DUP8 DUP3 DUP9 ADD PUSH2 0xEF7 JUMP JUMPDEST SWAP5 POP SWAP5 POP POP PUSH1 0x20 DUP6 ADD CALLDATALOAD PUSH8 0xFFFFFFFFFFFFFFFF DUP2 GT ISZERO PUSH2 0xFB0 JUMPI PUSH2 0xFAF PUSH2 0xE92 JUMP JUMPDEST JUMPDEST PUSH2 0xFBC DUP8 DUP3 DUP9 ADD PUSH2 0xEF7 JUMP JUMPDEST SWAP3 POP SWAP3 POP POP SWAP3 SWAP6 SWAP2 SWAP5 POP SWAP3 POP JUMP JUMPDEST PUSH0 PUSH20 0xFFFFFFFFFFFFFFFFFFFFFFFFFFFFFFFFFFFFFFFF DUP3 AND SWAP1 POP SWAP2 SWAP1 POP JUMP JUMPDEST PUSH0 PUSH2 0xFF3 DUP3 PUSH2 0xFCA JUMP JUMPDEST SWAP1 POP SWAP2 SWAP1 POP JUMP JUMPDEST PUSH2 0x1003 DUP2 PUSH2 0xFE9 JUMP JUMPDEST DUP3 MSTORE POP POP JUMP JUMPDEST PUSH0 PUSH1 0x20 DUP3 ADD SWAP1 POP PUSH2 0x101C PUSH0 DUP4 ADD DUP5 PUSH2 0xFFA JUMP JUMPDEST SWAP3 SWAP2 POP POP JUMP JUMPDEST PUSH0 PUSH0 PUSH0 PUSH0 PUSH0 PUSH1 0x60 DUP7 DUP9 SUB SLT ISZERO PUSH2 0x103B JUMPI PUSH2 0x103A PUSH2 0xE8E JUMP JUMPDEST JUMPDEST PUSH0 PUSH2 0x1048 DUP9 DUP3 DUP10 ADD PUSH2 0xEAC JUMP JUMPDEST SWAP6 POP POP PUSH1 0x20 DUP7 ADD CALLDATALOAD PUSH8 0xFFFFFFFFFFFFFFFF DUP2 GT ISZERO PUSH2 0x1069 JUMPI PUSH2 0x1068 PUSH2 0xE92 JUMP JUMPDEST JUMPDEST PUSH2 0x1075 DUP9 DUP3 DUP10 ADD PUSH2 0xEF7 JUMP JUMPDEST SWAP5 POP SWAP5 POP POP PUSH1 0x40 DUP7 ADD CALLDATALOAD PUSH8 0xFFFFFFFFFFFFFFFF DUP2 GT ISZERO PUSH2 0x1098 JUMPI PUSH2 0x1097 PUSH2 0xE92 JUMP JUMPDEST JUMPDEST PUSH2 0x10A4 DUP9 DUP3 DUP10 ADD PUSH2 0xEF7 JUMP JUMPDEST SWAP3 POP SWAP3 POP POP SWAP3 SWAP6 POP SWAP3 SWAP6 SWAP1 SWAP4 POP JUMP JUMPDEST PUSH0 DUP2 MLOAD SWAP1 POP SWAP2 SWAP1 POP JUMP JUMPDEST PUSH0 DUP3 DUP3 MSTORE PUSH1 0x20 DUP3 ADD SWAP1 POP SWAP3 SWAP2 POP POP JUMP JUMPDEST DUP3 DUP2 DUP4 MCOPY PUSH0 DUP4 DUP4 ADD MSTORE POP POP POP JUMP JUMPDEST PUSH0 PUSH1 0x1F NOT PUSH1 0x1F DUP4 ADD AND SWAP1 POP SWAP2 SWAP1 POP JUMP JUMPDEST PUSH0 PUSH2 0x10F5 DUP3 PUSH2 0x10B3 JUMP JUMPDEST PUSH2 0x10FF DUP2 DUP6 PUSH2 0x10BD JUMP JUMPDEST SWAP4 POP PUSH2 0x110F DUP2 DUP6 PUSH1 0x20 DUP7 ADD PUSH2 0x10CD JUMP JUMPDEST PUSH2 0x1118 DUP2 PUSH2 0x10DB JUMP JUMPDEST DUP5 ADD SWAP2 POP POP SWAP3 SWAP2 POP POP JUMP JUMPDEST PUSH0 DUP2 ISZERO ISZERO SWAP1 POP SWAP2 SWAP1 POP JUMP JUMPDEST PUSH2 0x1137 DUP2 PUSH2 0x1123 JUMP JUMPDEST DUP3 MSTORE POP POP JUMP JUMPDEST PUSH0 PUSH1 0xA0 DUP3 ADD SWAP1 POP PUSH2 0x1150 PUSH0 DUP4 ADD DUP9 PUSH2 0xD8F JUMP JUMPDEST DUP2 DUP2 SUB PUSH1 0x20 DUP4 ADD MSTORE PUSH2 0x1162 DUP2 DUP8 PUSH2 0x10EB JUMP JUMPDEST SWAP1 POP DUP2 DUP2 SUB PUSH1 0x40 DUP4 ADD MSTORE PUSH2 0x1176 DUP2 DUP7 PUSH2 0x10EB JUMP JUMPDEST SWAP1 POP PUSH2 0x1185 PUSH1 0x60 DUP4 ADD DUP6 PUSH2 0xD8F JUMP JUMPDEST PUSH2 0x1192 PUSH1 0x80 DUP4 ADD DUP5 PUSH2 0x112E JUMP JUMPDEST SWAP7 SWAP6 POP POP POP POP POP POP JUMP JUMPDEST PUSH0 DUP3 DUP3 MSTORE PUSH1 0x20 DUP3 ADD SWAP1 POP SWAP3 SWAP2 POP POP JUMP JUMPDEST PUSH0 PUSH2 0x11B6 DUP3 PUSH2 0x10B3 JUMP JUMPDEST PUSH2 0x11C0 DUP2 DUP6 PUSH2 0x119C JUMP JUMPDEST SWAP4 POP PUSH2 0x11D0 DUP2 DUP6 PUSH1 0x20 DUP7 ADD PUSH2 0x10CD JUMP JUMPDEST PUSH2 0x11D9 DUP2 PUSH2 0x10DB JUMP JUMPDEST DUP5 ADD SWAP2 POP POP SWAP3 SWAP2 POP POP JUMP JUMPDEST PUSH2 0x11ED DUP2 PUSH2 0x1123 JUMP JUMPDEST DUP3 MSTORE POP POP JUMP JUMPDEST PUSH0 PUSH1 0xA0 DUP4 ADD PUSH0 DUP4 ADD MLOAD PUSH2 0x1208 PUSH0 DUP7 ADD DUP3 PUSH2 0xDE0 JUMP JUMPDEST POP PUSH1 0x20 DUP4 ADD MLOAD DUP5 DUP3 SUB PUSH1 0x20 DUP7 ADD MSTORE PUSH2 0x1220 DUP3 DUP3 PUSH2 0x11AC JUMP JUMPDEST SWAP2 POP POP PUSH1 0x40 DUP4 ADD MLOAD DUP5 DUP3 SUB PUSH1 0x40 DUP7 ADD MSTORE PUSH2 0x123A DUP3 DUP3 PUSH2 0x11AC JUMP JUMPDEST SWAP2 POP POP PUSH1 0x60 DUP4 ADD MLOAD PUSH2 0x124F PUSH1 0x60 DUP7 ADD DUP3 PUSH2 0xDE0 JUMP JUMPDEST POP PUSH1 0x80 DUP4 ADD MLOAD PUSH2 0x1262 PUSH1 0x80 DUP7 ADD DUP3 PUSH2 0x11E4 JUMP JUMPDEST POP DUP1 SWAP2 POP POP SWAP3 SWAP2 POP POP JUMP JUMPDEST PUSH0 PUSH1 0x20 DUP3 ADD SWAP1 POP DUP2 DUP2 SUB PUSH0 DUP4 ADD MSTORE PUSH2 0x1285 DUP2 DUP5 PUSH2 0x11F3 JUMP JUMPDEST SWAP1 POP SWAP3 SWAP2 POP POP JUMP JUMPDEST PUSH2 0x1296 DUP2 PUSH2 0xFE9 JUMP JUMPDEST DUP2 EQ PUSH2 0x12A0 JUMPI PUSH0 PUSH0 REVERT JUMPDEST POP JUMP JUMPDEST PUSH0 DUP2 CALLDATALOAD SWAP1 POP PUSH2 0x12B1 DUP2 PUSH2 0x128D JUMP JUMPDEST SWAP3 SWAP2 POP POP JUMP JUMPDEST PUSH0 PUSH1 0x20 DUP3 DUP5 SUB SLT ISZERO PUSH2 0x12CC JUMPI PUSH2 0x12CB PUSH2 0xE8E JUMP JUMPDEST JUMPDEST PUSH0 PUSH2 0x12D9 DUP5 DUP3 DUP6 ADD PUSH2 0x12A3 JUMP JUMPDEST SWAP2 POP POP SWAP3 SWAP2 POP POP JUMP JUMPDEST PUSH32 0x417373657420616C72656164792064656C697374656400000000000000000000 PUSH0 DUP3 ADD MSTORE POP JUMP JUMPDEST PUSH0 PUSH2 0x1316 PUSH1 0x16 DUP4 PUSH2 0x10BD JUMP JUMPDEST SWAP2 POP PUSH2 0x1321 DUP3 PUSH2 0x12E2 JUMP JUMPDEST PUSH1 0x20 DUP3 ADD SWAP1 POP SWAP2 SWAP1 POP JUMP JUMPDEST PUSH0 PUSH1 0x20 DUP3 ADD SWAP1 POP DUP2 DUP2 SUB PUSH0 DUP4 ADD MSTORE PUSH2 0x1343 DUP2 PUSH2 0x130A JUMP JUMPDEST SWAP1 POP SWAP2 SWAP1 POP JUMP JUMPDEST PUSH32 0x4E616D6520726571756972656400000000000000000000000000000000000000 PUSH0 DUP3 ADD MSTORE POP JUMP JUMPDEST PUSH0 PUSH2 0x137E PUSH1 0xD DUP4 PUSH2 0x10BD JUMP JUMPDEST SWAP2 POP PUSH2 0x1389 DUP3 PUSH2 0x134A JUMP JUMPDEST PUSH1 0x20 DUP3 ADD SWAP1 POP SWAP2 SWAP1 POP JUMP JUMPDEST PUSH0 PUSH1 0x20 DUP3 ADD SWAP1 POP DUP2 DUP2 SUB PUSH0 DUP4 ADD MSTORE PUSH2 0x13AB DUP2 PUSH2 0x1372 JUMP JUMPDEST SWAP1 POP SWAP2 SWAP1 POP JUMP JUMPDEST PUSH32 0x53796D626F6C2072657175697265640000000000000000000000000000000000 PUSH0 DUP3 ADD MSTORE POP JUMP JUMPDEST PUSH0 PUSH2 0x13E6 PUSH1 0xF DUP4 PUSH2 0x10BD JUMP JUMPDEST SWAP2 POP PUSH2 0x13F1 DUP3 PUSH2 0x13B2 JUMP JUMPDEST PUSH1 0x20 DUP3 ADD SWAP1 POP SWAP2 SWAP1 POP JUMP JUMPDEST PUSH0 PUSH1 0x20 DUP3 ADD SWAP1 POP DUP2 DUP2 SUB PUSH0 DUP4 ADD MSTORE PUSH2 0x1413 DUP2 PUSH2 0x13DA JUMP JUMPDEST SWAP1 POP SWAP2 SWAP1 POP JUMP JUMPDEST PUSH32 0x4E487B7100000000000000000000000000000000000000000000000000000000 PUSH0 MSTORE PUSH1 0x11 PUSH1 0x4 MSTORE PUSH1 0x24 PUSH0 REVERT JUMPDEST PUSH0 PUSH2 0x1451 DUP3 PUSH2 0xD86 JUMP JUMPDEST SWAP2 POP PUSH32 0xFFFFFFFFFFFFFFFFFFFFFFFFFFFFFFFFFFFFFFFFFFFFFFFFFFFFFFFFFFFFFFFF DUP3 SUB PUSH2 0x1483 JUMPI PUSH2 0x1482 PUSH2 0x141A JUMP JUMPDEST JUMPDEST PUSH1 0x1 DUP3 ADD SWAP1 POP SWAP2 SWAP1 POP JUMP JUMPDEST PUSH32 0x4E487B7100000000000000000000000000000000000000000000000000000000 PUSH0 MSTORE PUSH1 0x41 PUSH1 0x4 MSTORE PUSH1 0x24 PUSH0 REVERT JUMPDEST PUSH32 0x4E487B7100000000000000000000000000000000000000000000000000000000 PUSH0 MSTORE PUSH1 0x22 PUSH1 0x4 MSTORE PUSH1 0x24 PUSH0 REVERT JUMPDEST PUSH0 PUSH1 0x2 DUP3 DIV SWAP1 POP PUSH1 0x1 DUP3 AND DUP1 PUSH2 0x14FF JUMPI PUSH1 0x7F DUP3 AND SWAP2 POP JUMPDEST PUSH1 0x20 DUP3 LT DUP2 SUB PUSH2 0x1512 JUMPI PUSH2 0x1511 PUSH2 0x14BB JUMP JUMPDEST JUMPDEST POP SWAP2 SWAP1 POP JUMP JUMPDEST PUSH0 DUP2 SWAP1 POP DUP2 PUSH0 MSTORE PUSH1 0x20 PUSH0 KECCAK256 SWAP1 POP SWAP2 SWAP1 POP JUMP JUMPDEST PUSH0 PUSH1 0x20 PUSH1 0x1F DUP4 ADD DIV SWAP1 POP SWAP2 SWAP1 POP JUMP JUMPDEST PUSH0 DUP3 DUP3 SHL SWAP1 POP SWAP3 SWAP2 POP POP JUMP JUMPDEST PUSH0 PUSH1 0x8 DUP4 MUL PUSH2 0x1574 PUSH32 0xFFFFFFFFFFFFFFFFFFFFFFFFFFFFFFFFFFFFFFFFFFFFFFFFFFFFFFFFFFFFFFFF DUP3 PUSH2 0x1539 JUMP JUMPDEST PUSH2 0x157E DUP7 DUP4 PUSH2 0x1539 JUMP JUMPDEST SWAP6 POP DUP1 NOT DUP5 AND SWAP4 POP DUP1 DUP7 AND DUP5 OR SWAP3 POP POP POP SWAP4 SWAP3 POP POP POP JUMP JUMPDEST PUSH0 DUP2 SWAP1 POP SWAP2 SWAP1 POP JUMP JUMPDEST PUSH0 PUSH2 0x15B9 PUSH2 0x15B4 PUSH2 0x15AF DUP5 PUSH2 0xD86 JUMP JUMPDEST PUSH2 0x1596 JUMP JUMPDEST PUSH2 0xD86 JUMP JUMPDEST SWAP1 POP SWAP2 SWAP1 POP JUMP JUMPDEST PUSH0 DUP2 SWAP1 POP SWAP2 SWAP1 POP JUMP JUMPDEST PUSH2 0x15D2 DUP4 PUSH2 0x159F JUMP JUMPDEST PUSH2 0x15E6 PUSH2 0x15DE DUP3 PUSH2 0x15C0 JUMP JUMPDEST DUP5 DUP5 SLOAD PUSH2 0x1545 JUMP JUMPDEST DUP3 SSTORE POP POP POP POP JUMP JUMPDEST PUSH0 PUSH0 SWAP1 POP SWAP1 JUMP JUMPDEST PUSH2 0x15FD PUSH2 0x15EE JUMP JUMPDEST PUSH2 0x1608 DUP2 DUP5 DUP5 PUSH2 0x15C9 JUMP JUMPDEST POP POP POP JUMP JUMPDEST JUMPDEST DUP2 DUP2 LT ISZERO PUSH2 0x162B JUMPI PUSH2 0x1620 PUSH0 DUP3 PUSH2 0x15F5 JUMP JUMPDEST PUSH1 0x1 DUP2 ADD SWAP1 POP PUSH2 0x160E JUMP JUMPDEST POP POP JUMP JUMPDEST PUSH1 0x1F DUP3 GT ISZERO PUSH2 0x1670 JUMPI PUSH2 0x1641 DUP2 PUSH2 0x1518 JUMP JUMPDEST PUSH2 0x164A DUP5 PUSH2 0x152A JUMP JUMPDEST DUP2 ADD PUSH1 0x20 DUP6 LT ISZERO PUSH2 0x1659 JUMPI DUP2 SWAP1 POP JUMPDEST PUSH2 0x166D PUSH2 0x1665 DUP6 PUSH2 0x152A JUMP JUMPDEST DUP4 ADD DUP3 PUSH2 0x160D JUMP JUMPDEST POP POP JUMPDEST POP POP POP JUMP JUMPDEST PUSH0 DUP3 DUP3 SHR SWAP1 POP SWAP3 SWAP2 POP POP JUMP JUMPDEST PUSH0 PUSH2 0x1690 PUSH0 NOT DUP5 PUSH1 0x8 MUL PUSH2 0x1675 JUMP JUMPDEST NOT DUP1 DUP4 AND SWAP2 POP POP SWAP3 SWAP2 POP POP JUMP JUMPDEST PUSH0 PUSH2 0x16A8 DUP4 DUP4 PUSH2 0x1681 JUMP JUMPDEST SWAP2 POP DUP3 PUSH1 0x2 MUL DUP3 OR SWAP1 POP SWAP3 SWAP2 POP POP JUMP JUMPDEST PUSH2 0x16C1 DUP3 PUSH2 0x10B3 JUMP JUMPDEST PUSH8 0xFFFFFFFFFFFFFFFF DUP2 GT ISZERO PUSH2 0x16DA JUMPI PUSH2 0x16D9 PUSH2 0x148E JUMP JUMPDEST JUMPDEST PUSH2 0x16E4 DUP3 SLOAD PUSH2 0x14E8 JUMP JUMPDEST PUSH2 0x16EF DUP3 DUP3 DUP6 PUSH2 0x162F JUMP JUMPDEST PUSH0 PUSH1 0x20 SWAP1 POP PUSH1 0x1F DUP4 GT PUSH1 0x1 DUP2 EQ PUSH2 0x1720 JUMPI PUSH0 DUP5 ISZERO PUSH2 0x170E JUMPI DUP3 DUP8 ADD MLOAD SWAP1 POP JUMPDEST PUSH2 0x1718 DUP6 DUP3 PUSH2 0x169D JUMP JUMPDEST DUP7 SSTORE POP PUSH2 0x177F JUMP JUMPDEST PUSH1 0x1F NOT DUP5 AND PUSH2 0x172E DUP7 PUSH2 0x1518 JUMP JUMPDEST PUSH0 JUMPDEST DUP3 DUP2 LT ISZERO PUSH2 0x1755 JUMPI DUP5 DUP10 ADD MLOAD DUP3 SSTORE PUSH1 0x1 DUP3 ADD SWAP2 POP PUSH1 0x20 DUP6 ADD SWAP5 POP PUSH1 0x20 DUP2 ADD SWAP1 POP PUSH2 0x1730 JUMP JUMPDEST DUP7 DUP4 LT ISZERO PUSH2 0x1772 JUMPI DUP5 DUP10 ADD MLOAD PUSH2 0x176E PUSH1 0x1F DUP10 AND DUP3 PUSH2 0x1681 JUMP JUMPDEST DUP4 SSTORE POP JUMPDEST PUSH1 0x1 PUSH1 0x2 DUP9 MUL ADD DUP9 SSTORE POP POP POP JUMPDEST POP POP POP POP POP POP JUMP JUMPDEST DUP3 DUP2 DUP4 CALLDATACOPY PUSH0 DUP4 DUP4 ADD MSTORE POP POP POP JUMP JUMPDEST PUSH0 PUSH2 0x17A0 DUP4 DUP6 PUSH2 0x10BD JUMP JUMPDEST SWAP4 POP PUSH2 0x17AD DUP4 DUP6 DUP5 PUSH2 0x1787 JUMP JUMPDEST PUSH2 0x17B6 DUP4 PUSH2 0x10DB JUMP JUMPDEST DUP5 ADD SWAP1 POP SWAP4 SWAP3 POP POP POP JUMP JUMPDEST PUSH0 PUSH1 0x60 DUP3 ADD SWAP1 POP DUP2 DUP2 SUB PUSH0 DUP4 ADD MSTORE PUSH2 0x17DA DUP2 DUP8 DUP10 PUSH2 0x1795 JUMP JUMPDEST SWAP1 POP DUP2 DUP2 SUB PUSH1 0x20 DUP4 ADD MSTORE PUSH2 0x17EF DUP2 DUP6 DUP8 PUSH2 0x1795 JUMP JUMPDEST SWAP1 POP PUSH2 0x17FE PUSH1 0x40 DUP4 ADD DUP5 PUSH2 0xD8F JUMP JUMPDEST SWAP7 SWAP6 POP POP POP POP POP POP JUMP JUMPDEST PUSH32 0x4173736574206E6F74206C697374656400000000000000000000000000000000 PUSH0 DUP3 ADD MSTORE POP JUMP JUMPDEST PUSH0 PUSH2 0x183C PUSH1 0x10 DUP4 PUSH2 0x10BD JUMP JUMPDEST SWAP2 POP PUSH2 0x1847 DUP3 PUSH2 0x1808 JUMP JUMPDEST PUSH1 0x20 DUP3 ADD SWAP1 POP SWAP2 SWAP1 POP JUMP JUMPDEST PUSH0 PUSH1 0x20 DUP3 ADD SWAP1 POP DUP2 DUP2 SUB PUSH0 DUP4 ADD MSTORE PUSH2 0x1869 DUP2 PUSH2 0x1830 JUMP JUMPDEST SWAP1 POP SWAP2 SWAP1 POP JUMP JUMPDEST PUSH0 DUP3 SWAP1 POP SWAP3 SWAP2 POP POP JUMP JUMPDEST PUSH2 0x1884 DUP4 DUP4 PUSH2 0x1870 JUMP JUMPDEST PUSH8 0xFFFFFFFFFFFFFFFF DUP2 GT ISZERO PUSH2 0x189D JUMPI PUSH2 0x189C PUSH2 0x148E JUMP JUMPDEST JUMPDEST PUSH2 0x18A7 DUP3 SLOAD PUSH2 0x14E8 JUMP JUMPDEST PUSH2 0x18B2 DUP3 DUP3 DUP6 PUSH2 0x162F JUMP JUMPDEST PUSH0 PUSH1 0x1F DUP4 GT PUSH1 0x1 DUP2 EQ PUSH2 0x18DF JUMPI PUSH0 DUP5 ISZERO PUSH2 0x18CD JUMPI DUP3 DUP8 ADD CALLDATALOAD SWAP1 POP JUMPDEST PUSH2 0x18D7 DUP6 DUP3 PUSH2 0x169D JUMP JUMPDEST DUP7 SSTORE POP PUSH2 0x193E JUMP JUMPDEST PUSH1 0x1F NOT DUP5 AND PUSH2 0x18ED DUP7 PUSH2 0x1518 JUMP JUMPDEST PUSH0 JUMPDEST DUP3 DUP2 LT ISZERO PUSH2 0x1914 JUMPI DUP5 DUP10 ADD CALLDATALOAD DUP3 SSTORE PUSH1 0x1 DUP3 ADD SWAP2 POP PUSH1 0x20 DUP6 ADD SWAP5 POP PUSH1 0x20 DUP2 ADD SWAP1 POP PUSH2 0x18EF JUMP JUMPDEST DUP7 DUP4 LT ISZERO PUSH2 0x1931 JUMPI DUP5 DUP10 ADD CALLDATALOAD PUSH2 0x192D PUSH1 0x1F DUP10 AND DUP3 PUSH2 0x1681 JUMP JUMPDEST DUP4 SSTORE POP JUMPDEST PUSH1 0x1 PUSH1 0x2 DUP9 MUL ADD DUP9 SSTORE POP POP POP JUMPDEST POP POP POP POP POP POP POP JUMP JUMPDEST PUSH0 PUSH1 0x40 DUP3 ADD SWAP1 POP DUP2 DUP2 SUB PUSH0 DUP4 ADD MSTORE PUSH2 0x1960 DUP2 DUP7 DUP9 PUSH2 0x1795 JUMP JUMPDEST SWAP1 POP DUP2 DUP2 SUB PUSH1 0x20 DUP4 ADD MSTORE PUSH2 0x1975 DUP2 DUP5 DUP7 PUSH2 0x1795 JUMP JUMPDEST SWAP1 POP SWAP6 SWAP5 POP POP POP POP POP JUMP JUMPDEST PUSH32 0x417373657420646F6573206E6F74206578697374000000000000000000000000 PUSH0 DUP3 ADD MSTORE POP JUMP JUMPDEST PUSH0 PUSH2 0x19B4 PUSH1 0x14 DUP4 PUSH2 0x10BD JUMP JUMPDEST SWAP2 POP PUSH2 0x19BF DUP3 PUSH2 0x1980 JUMP JUMPDEST PUSH1 0x20 DUP3 ADD SWAP1 POP SWAP2 SWAP1 POP JUMP JUMPDEST PUSH0 PUSH1 0x20 DUP3 ADD SWAP1 POP DUP2 DUP2 SUB PUSH0 DUP4 ADD MSTORE PUSH2 0x19E1 DUP2 PUSH2 0x19A8 JUMP JUMPDEST SWAP1 POP SWAP2 SWAP1 POP JUMP JUMPDEST PUSH32 0x5265656E7472616E637947756172643A207265656E7472616E742063616C6C00 PUSH0 DUP3 ADD MSTORE POP JUMP JUMPDEST PUSH0 PUSH2 0x1A1C PUSH1 0x1F DUP4 PUSH2 0x10BD JUMP JUMPDEST SWAP2 POP PUSH2 0x1A27 DUP3 PUSH2 0x19E8 JUMP JUMPDEST PUSH1 0x20 DUP3 ADD SWAP1 POP SWAP2 SWAP1 POP JUMP JUMPDEST PUSH0 PUSH1 0x20 DUP3 ADD SWAP1 POP DUP2 DUP2 SUB PUSH0 DUP4 ADD MSTORE PUSH2 0x1A49 DUP2 PUSH2 0x1A10 JUMP JUMPDEST SWAP1 POP SWAP2 SWAP1 POP JUMP JUMPDEST PUSH32 0x4E487B7100000000000000000000000000000000000000000000000000000000 PUSH0 MSTORE PUSH1 0x32 PUSH1 0x4 MSTORE PUSH1 0x24 PUSH0 REVERT JUMPDEST PUSH0 PUSH2 0x1A87 DUP3 PUSH2 0xD86 JUMP JUMPDEST SWAP2 POP PUSH2 0x1A92 DUP4 PUSH2 0xD86 JUMP JUMPDEST SWAP3 POP DUP3 DUP3 SUB SWAP1 POP DUP2 DUP2 GT ISZERO PUSH2 0x1AAA JUMPI PUSH2 0x1AA9 PUSH2 0x141A JUMP JUMPDEST JUMPDEST SWAP3 SWAP2 POP POP JUMP JUMPDEST PUSH32 0x4E487B7100000000000000000000000000000000000000000000000000000000 PUSH0 MSTORE PUSH1 0x31 PUSH1 0x4 MSTORE PUSH1 0x24 PUSH0 REVERT INVALID LOG2 PUSH5 0x6970667358 0x22 SLT KECCAK256 SWAP14 PUSH8 0x97553C4666D28FA6 0xAA SGT PUSH8 0x7BB46475A75F91FB SWAP10 CALLDATACOPY PUSH2 0xFB30 PUSH15 0x907BCE3B9C64736F6C634300081D00 CALLER "
				},
				"gasEstimates": {
					"creation": {
						"codeDepositCost": "1386200",
						"executionCost": "infinite",
						"totalCost": "infinite"
					},
					"external": {
						"assets(uint256)": "infinite",
						"delistAsset(uint256)": "infinite",
						"getActiveAssetIds()": "infinite",
						"getAsset(uint256)": "infinite",
						"listAsset(string,string)": "infinite",
						"nextAssetId()": "2447",
						"owner()": "2514",
						"renounceOwnership()": "infinite",
						"totalAssets()": "2433",
						"transferOwnership(address)": "infinite",
						"updateAsset(uint256,string,string)": "infinite"
					},
					"internal": {
						"_removeAssetId(uint256)": "infinite"
					}
				},
				"methodIdentifiers": {
					"assets(uint256)": "cf35bdd0",
					"delistAsset(uint256)": "43d7c778",
					"getActiveAssetIds()": "24828557",
					"getAsset(uint256)": "eac8f5b8",
					"listAsset(string,string)": "51fd697e",
					"nextAssetId()": "8ed91318",
					"owner()": "8da5cb5b",
					"renounceOwnership()": "715018a6",
					"totalAssets()": "01e1d114",
					"transferOwnership(address)": "f2fde38b",
					"updateAsset(uint256,string,string)": "90c43087"
				}
			},
			"storageLayout": {
				"storage": [
					{
						"astId": 8,
						"contract": "D/delisting.sol:DelistingRegistry",
						"label": "_owner",
						"offset": 0,
						"slot": "0",
						"type": "t_address"
					},
					{
						"astId": 158,
						"contract": "D/delisting.sol:DelistingRegistry",
						"label": "_status",
						"offset": 0,
						"slot": "1",
						"type": "t_uint256"
					},
					{
						"astId": 264,
						"contract": "D/delisting.sol:DelistingRegistry",
						"label": "nextAssetId",
						"offset": 0,
						"slot": "2",
						"type": "t_uint256"
					},
					{
						"astId": 269,
						"contract": "D/delisting.sol:DelistingRegistry",
						"label": "assets",
						"offset": 0,
						"slot": "3",
						"type": "t_mapping(t_uint256,t_struct(Asset)262_storage)"
					},
					{
						"astId": 272,
						"contract": "D/delisting.sol:DelistingRegistry",
						"label": "listedAssetIds",
						"offset": 0,
						"slot": "4",
						"type": "t_array(t_uint256)dyn_storage"
					}
				],
				"types": {
					"t_address": {
						"encoding": "inplace",
						"label": "address",
						"numberOfBytes": "20"
					},
					"t_array(t_uint256)dyn_storage": {
						"base": "t_uint256",
						"encoding": "dynamic_array",
						"label": "uint256[]",
						"numberOfBytes": "32"
					},
					"t_bool": {
						"encoding": "inplace",
						"label": "bool",
						"numberOfBytes": "1"
					},
					"t_mapping(t_uint256,t_struct(Asset)262_storage)": {
						"encoding": "mapping",
						"key": "t_uint256",
						"label": "mapping(uint256 => struct DelistingRegistry.Asset)",
						"numberOfBytes": "32",
						"value": "t_struct(Asset)262_storage"
					},
					"t_string_storage": {
						"encoding": "bytes",
						"label": "string",
						"numberOfBytes": "32"
					},
					"t_struct(Asset)262_storage": {
						"encoding": "inplace",
						"label": "struct DelistingRegistry.Asset",
						"members": [
							{
								"astId": 253,
								"contract": "D/delisting.sol:DelistingRegistry",
								"label": "assetId",
								"offset": 0,
								"slot": "0",
								"type": "t_uint256"
							},
							{
								"astId": 255,
								"contract": "D/delisting.sol:DelistingRegistry",
								"label": "name",
								"offset": 0,
								"slot": "1",
								"type": "t_string_storage"
							},
							{
								"astId": 257,
								"contract": "D/delisting.sol:DelistingRegistry",
								"label": "symbol",
								"offset": 0,
								"slot": "2",
								"type": "t_string_storage"
							},
							{
								"astId": 259,
								"contract": "D/delisting.sol:DelistingRegistry",
								"label": "listingDate",
								"offset": 0,
								"slot": "3",
								"type": "t_uint256"
							},
							{
								"astId": 261,
								"contract": "D/delisting.sol:DelistingRegistry",
								"label": "isListed",
								"offset": 0,
								"slot": "4",
								"type": "t_bool"
							}
						],
						"numberOfBytes": "160"
					},
					"t_uint256": {
						"encoding": "inplace",
						"label": "uint256",
						"numberOfBytes": "32"
					}
				}
			},
			"userdoc": {
				"kind": "user",
				"methods": {
					"constructor": {
						"notice": "Constructor sets the deployer as the initial owner."
					},
					"delistAsset(uint256)": {
						"notice": "Delists an asset."
					},
					"getActiveAssetIds()": {
						"notice": "Retrieves all active (listed) asset IDs."
					},
					"getAsset(uint256)": {
						"notice": "Retrieves an asset's details."
					},
					"listAsset(string,string)": {
						"notice": "Lists a new asset."
					},
					"totalAssets()": {
						"notice": "Returns the total number of assets ever created."
					},
					"updateAsset(uint256,string,string)": {
						"notice": "Updates details of an existing listed asset."
					}
				},
				"notice": "This contract allows the owner to list assets and later delist or update them dynamically. Each asset has an ID, name, symbol, listing date, and an active status.",
				"version": 1
			}
		}
	}
}