{
	"D/deadCateBounce.sol": {
		"DeadCatBounceDetector": {
			"abi": [
				{
					"inputs": [
						{
							"internalType": "uint256",
							"name": "_declineThreshold",
							"type": "uint256"
						},
						{
							"internalType": "uint256",
							"name": "_bounceThreshold",
							"type": "uint256"
						}
					],
					"stateMutability": "nonpayable",
					"type": "constructor"
				},
				{
					"inputs": [
						{
							"internalType": "address",
							"name": "owner",
							"type": "address"
						}
					],
					"name": "OwnableInvalidOwner",
					"type": "error"
				},
				{
					"inputs": [
						{
							"internalType": "address",
							"name": "account",
							"type": "address"
						}
					],
					"name": "OwnableUnauthorizedAccount",
					"type": "error"
				},
				{
					"anonymous": false,
					"inputs": [
						{
							"indexed": true,
							"internalType": "uint256",
							"name": "index",
							"type": "uint256"
						},
						{
							"indexed": false,
							"internalType": "uint256",
							"name": "initialDeclinePrice",
							"type": "uint256"
						},
						{
							"indexed": false,
							"internalType": "uint256",
							"name": "bouncePrice",
							"type": "uint256"
						},
						{
							"indexed": false,
							"internalType": "uint256",
							"name": "finalDeclinePrice",
							"type": "uint256"
						}
					],
					"name": "BounceRecorded",
					"type": "event"
				},
				{
					"anonymous": false,
					"inputs": [
						{
							"indexed": true,
							"internalType": "address",
							"name": "previousOwner",
							"type": "address"
						},
						{
							"indexed": true,
							"internalType": "address",
							"name": "newOwner",
							"type": "address"
						}
					],
					"name": "OwnershipTransferred",
					"type": "event"
				},
				{
					"anonymous": false,
					"inputs": [
						{
							"indexed": false,
							"internalType": "uint256",
							"name": "declineThreshold",
							"type": "uint256"
						},
						{
							"indexed": false,
							"internalType": "uint256",
							"name": "bounceThreshold",
							"type": "uint256"
						}
					],
					"name": "ParametersUpdated",
					"type": "event"
				},
				{
					"inputs": [
						{
							"internalType": "uint256",
							"name": "",
							"type": "uint256"
						}
					],
					"name": "bounceEvents",
					"outputs": [
						{
							"internalType": "uint256",
							"name": "initialDeclinePrice",
							"type": "uint256"
						},
						{
							"internalType": "uint256",
							"name": "bouncePrice",
							"type": "uint256"
						},
						{
							"internalType": "uint256",
							"name": "finalDeclinePrice",
							"type": "uint256"
						},
						{
							"internalType": "uint256",
							"name": "timestamp",
							"type": "uint256"
						}
					],
					"stateMutability": "view",
					"type": "function"
				},
				{
					"inputs": [],
					"name": "bounceThreshold",
					"outputs": [
						{
							"internalType": "uint256",
							"name": "",
							"type": "uint256"
						}
					],
					"stateMutability": "view",
					"type": "function"
				},
				{
					"inputs": [],
					"name": "declineThreshold",
					"outputs": [
						{
							"internalType": "uint256",
							"name": "",
							"type": "uint256"
						}
					],
					"stateMutability": "view",
					"type": "function"
				},
				{
					"inputs": [
						{
							"internalType": "uint256",
							"name": "index",
							"type": "uint256"
						}
					],
					"name": "getBounceEvent",
					"outputs": [
						{
							"components": [
								{
									"internalType": "uint256",
									"name": "initialDeclinePrice",
									"type": "uint256"
								},
								{
									"internalType": "uint256",
									"name": "bouncePrice",
									"type": "uint256"
								},
								{
									"internalType": "uint256",
									"name": "finalDeclinePrice",
									"type": "uint256"
								},
								{
									"internalType": "uint256",
									"name": "timestamp",
									"type": "uint256"
								}
							],
							"internalType": "struct DeadCatBounceDetector.BounceEvent",
							"name": "",
							"type": "tuple"
						}
					],
					"stateMutability": "view",
					"type": "function"
				},
				{
					"inputs": [],
					"name": "getBounceEventCount",
					"outputs": [
						{
							"internalType": "uint256",
							"name": "",
							"type": "uint256"
						}
					],
					"stateMutability": "view",
					"type": "function"
				},
				{
					"inputs": [],
					"name": "owner",
					"outputs": [
						{
							"internalType": "address",
							"name": "",
							"type": "address"
						}
					],
					"stateMutability": "view",
					"type": "function"
				},
				{
					"inputs": [],
					"name": "renounceOwnership",
					"outputs": [],
					"stateMutability": "nonpayable",
					"type": "function"
				},
				{
					"inputs": [
						{
							"internalType": "uint256",
							"name": "initialDeclinePrice",
							"type": "uint256"
						},
						{
							"internalType": "uint256",
							"name": "lowestPrice",
							"type": "uint256"
						},
						{
							"internalType": "uint256",
							"name": "bouncePrice",
							"type": "uint256"
						},
						{
							"internalType": "uint256",
							"name": "finalDeclinePrice",
							"type": "uint256"
						}
					],
					"name": "submitBounceEvent",
					"outputs": [],
					"stateMutability": "nonpayable",
					"type": "function"
				},
				{
					"inputs": [
						{
							"internalType": "address",
							"name": "newOwner",
							"type": "address"
						}
					],
					"name": "transferOwnership",
					"outputs": [],
					"stateMutability": "nonpayable",
					"type": "function"
				},
				{
					"inputs": [
						{
							"internalType": "uint256",
							"name": "_declineThreshold",
							"type": "uint256"
						},
						{
							"internalType": "uint256",
							"name": "_bounceThreshold",
							"type": "uint256"
						}
					],
					"name": "updateParameters",
					"outputs": [],
					"stateMutability": "nonpayable",
					"type": "function"
				}
			],
			"devdoc": {
				"errors": {
					"OwnableInvalidOwner(address)": [
						{
							"details": "The owner is not a valid owner account. (eg. `address(0)`)"
						}
					],
					"OwnableUnauthorizedAccount(address)": [
						{
							"details": "The caller account is not authorized to perform an operation."
						}
					]
				},
				"kind": "dev",
				"methods": {
					"owner()": {
						"details": "Returns the address of the current owner."
					},
					"renounceOwnership()": {
						"details": "Leaves the contract without owner. It will not be possible to call `onlyOwner` functions. Can only be called by the current owner. NOTE: Renouncing ownership will leave the contract without an owner, thereby disabling any functionality that is only available to the owner."
					},
					"submitBounceEvent(uint256,uint256,uint256,uint256)": {
						"params": {
							"bouncePrice": "- Price after bounce occurs.",
							"finalDeclinePrice": "- Price after bounce ends and decline resumes.",
							"initialDeclinePrice": "- Price at start of decline.",
							"lowestPrice": "- Lowest price after decline."
						}
					},
					"transferOwnership(address)": {
						"details": "Transfers ownership of the contract to a new account (`newOwner`). Can only be called by the current owner."
					}
				},
				"title": "DeadCatBounceDetector",
				"version": 1
			},
			"evm": {
				"assembly": "    /* \"D/deadCateBounce.sol\":397:4119  contract DeadCatBounceDetector is Ownable, ReentrancyGuard {... */\n  mstore(0x40, 0x80)\n    /* \"D/deadCateBounce.sol\":1335:1685  constructor(uint256 _declineThreshold, uint256 _bounceThreshold) Ownable(msg.sender) {... */\n  callvalue\n  dup1\n  iszero\n  tag_1\n  jumpi\n  revert(0x00, 0x00)\ntag_1:\n  pop\n  mload(0x40)\n  sub(codesize, bytecodeSize)\n  dup1\n  bytecodeSize\n  dup4\n  codecopy\n  dup2\n  dup2\n  add\n  0x40\n  mstore\n  dup2\n  add\n  swap1\n  tag_2\n  swap2\n  swap1\n  tag_3\n  jump\t// in\ntag_2:\n    /* \"D/deadCateBounce.sol\":1408:1418  msg.sender */\n  caller\n    /* \"@openzeppelin/contracts/access/Ownable.sol\":1297:1298  0 */\n  0x00\n    /* \"@openzeppelin/contracts/access/Ownable.sol\":1273:1299  initialOwner == address(0) */\n  0xffffffffffffffffffffffffffffffffffffffff\n  and\n    /* \"@openzeppelin/contracts/access/Ownable.sol\":1273:1285  initialOwner */\n  dup2\n    /* \"@openzeppelin/contracts/access/Ownable.sol\":1273:1299  initialOwner == address(0) */\n  0xffffffffffffffffffffffffffffffffffffffff\n  and\n  sub\n    /* \"@openzeppelin/contracts/access/Ownable.sol\":1269:1364  if (initialOwner == address(0)) {... */\n  tag_8\n  jumpi\n    /* \"@openzeppelin/contracts/access/Ownable.sol\":1350:1351  0 */\n  0x00\n    /* \"@openzeppelin/contracts/access/Ownable.sol\":1322:1353  OwnableInvalidOwner(address(0)) */\n  mload(0x40)\n  0x1e4fbdf700000000000000000000000000000000000000000000000000000000\n  dup2\n  mstore\n  0x04\n  add\n  tag_9\n  swap2\n  swap1\n  tag_10\n  jump\t// in\ntag_9:\n  mload(0x40)\n  dup1\n  swap2\n  sub\n  swap1\n  revert\n    /* \"@openzeppelin/contracts/access/Ownable.sol\":1269:1364  if (initialOwner == address(0)) {... */\ntag_8:\n    /* \"@openzeppelin/contracts/access/Ownable.sol\":1373:1405  _transferOwnership(initialOwner) */\n  tag_11\n    /* \"@openzeppelin/contracts/access/Ownable.sol\":1392:1404  initialOwner */\n  dup2\n    /* \"@openzeppelin/contracts/access/Ownable.sol\":1373:1391  _transferOwnership */\n  shl(0x20, tag_12)\n    /* \"@openzeppelin/contracts/access/Ownable.sol\":1373:1405  _transferOwnership(initialOwner) */\n  0x20\n  shr\n  jump\t// in\ntag_11:\n    /* \"@openzeppelin/contracts/access/Ownable.sol\":1225:1412  constructor(address initialOwner) {... */\n  pop\n    /* \"@openzeppelin/contracts/security/ReentrancyGuard.sol\":1716:1717  1 */\n  0x01\n    /* \"@openzeppelin/contracts/security/ReentrancyGuard.sol\":1821:1828  _status */\n  dup1\n    /* \"@openzeppelin/contracts/security/ReentrancyGuard.sol\":1821:1843  _status = _NOT_ENTERED */\n  dup2\n  swap1\n  sstore\n  pop\n    /* \"D/deadCateBounce.sol\":1458:1459  0 */\n  0x00\n    /* \"D/deadCateBounce.sol\":1438:1455  _declineThreshold */\n  dup3\n    /* \"D/deadCateBounce.sol\":1438:1459  _declineThreshold > 0 */\n  gt\n    /* \"D/deadCateBounce.sol\":1438:1483  _declineThreshold > 0 && _bounceThreshold > 0 */\n  dup1\n  iszero\n  tag_15\n  jumpi\n  pop\n    /* \"D/deadCateBounce.sol\":1482:1483  0 */\n  0x00\n    /* \"D/deadCateBounce.sol\":1463:1479  _bounceThreshold */\n  dup2\n    /* \"D/deadCateBounce.sol\":1463:1483  _bounceThreshold > 0 */\n  gt\n    /* \"D/deadCateBounce.sol\":1438:1483  _declineThreshold > 0 && _bounceThreshold > 0 */\ntag_15:\n    /* \"D/deadCateBounce.sol\":1430:1521  require(_declineThreshold > 0 && _bounceThreshold > 0, \"Thresholds must be greater than 0\") */\n  tag_16\n  jumpi\n  mload(0x40)\n  0x08c379a000000000000000000000000000000000000000000000000000000000\n  dup2\n  mstore\n  0x04\n  add\n  tag_17\n  swap1\n  tag_18\n  jump\t// in\ntag_17:\n  mload(0x40)\n  dup1\n  swap2\n  sub\n  swap1\n  revert\ntag_16:\n    /* \"D/deadCateBounce.sol\":1550:1567  _declineThreshold */\n  dup2\n    /* \"D/deadCateBounce.sol\":1531:1547  declineThreshold */\n  0x02\n    /* \"D/deadCateBounce.sol\":1531:1567  declineThreshold = _declineThreshold */\n  dup2\n  swap1\n  sstore\n  pop\n    /* \"D/deadCateBounce.sol\":1595:1611  _bounceThreshold */\n  dup1\n    /* \"D/deadCateBounce.sol\":1577:1592  bounceThreshold */\n  0x03\n    /* \"D/deadCateBounce.sol\":1577:1611  bounceThreshold = _bounceThreshold */\n  dup2\n  swap1\n  sstore\n  pop\n    /* \"D/deadCateBounce.sol\":1626:1678  ParametersUpdated(declineThreshold, bounceThreshold) */\n  0xfaccb0639ff7851e0e24f3b2d9ab03cd62ffb63f5b4d90aaeff85bb078c1fa48\n    /* \"D/deadCateBounce.sol\":1644:1660  declineThreshold */\n  sload(0x02)\n    /* \"D/deadCateBounce.sol\":1662:1677  bounceThreshold */\n  sload(0x03)\n    /* \"D/deadCateBounce.sol\":1626:1678  ParametersUpdated(declineThreshold, bounceThreshold) */\n  mload(0x40)\n  tag_19\n  swap3\n  swap2\n  swap1\n  tag_20\n  jump\t// in\ntag_19:\n  mload(0x40)\n  dup1\n  swap2\n  sub\n  swap1\n  log1\n    /* \"D/deadCateBounce.sol\":1335:1685  constructor(uint256 _declineThreshold, uint256 _bounceThreshold) Ownable(msg.sender) {... */\n  pop\n  pop\n    /* \"D/deadCateBounce.sol\":397:4119  contract DeadCatBounceDetector is Ownable, ReentrancyGuard {... */\n  jump(tag_21)\n    /* \"@openzeppelin/contracts/access/Ownable.sol\":2912:3099  function _transferOwnership(address newOwner) internal virtual {... */\ntag_12:\n    /* \"@openzeppelin/contracts/access/Ownable.sol\":2985:3001  address oldOwner */\n  0x00\n    /* \"@openzeppelin/contracts/access/Ownable.sol\":3004:3010  _owner */\n  0x00\n  0x00\n  swap1\n  sload\n  swap1\n  0x0100\n  exp\n  swap1\n  div\n  0xffffffffffffffffffffffffffffffffffffffff\n  and\n    /* \"@openzeppelin/contracts/access/Ownable.sol\":2985:3010  address oldOwner = _owner */\n  swap1\n  pop\n    /* \"@openzeppelin/contracts/access/Ownable.sol\":3029:3037  newOwner */\n  dup2\n    /* \"@openzeppelin/contracts/access/Ownable.sol\":3020:3026  _owner */\n  0x00\n  0x00\n    /* \"@openzeppelin/contracts/access/Ownable.sol\":3020:3037  _owner = newOwner */\n  0x0100\n  exp\n  dup2\n  sload\n  dup2\n  0xffffffffffffffffffffffffffffffffffffffff\n  mul\n  not\n  and\n  swap1\n  dup4\n  0xffffffffffffffffffffffffffffffffffffffff\n  and\n  mul\n  or\n  swap1\n  sstore\n  pop\n    /* \"@openzeppelin/contracts/access/Ownable.sol\":3083:3091  newOwner */\n  dup2\n    /* \"@openzeppelin/contracts/access/Ownable.sol\":3052:3092  OwnershipTransferred(oldOwner, newOwner) */\n  0xffffffffffffffffffffffffffffffffffffffff\n  and\n    /* \"@openzeppelin/contracts/access/Ownable.sol\":3073:3081  oldOwner */\n  dup2\n    /* \"@openzeppelin/contracts/access/Ownable.sol\":3052:3092  OwnershipTransferred(oldOwner, newOwner) */\n  0xffffffffffffffffffffffffffffffffffffffff\n  and\n  0x8be0079c531659141344cd1fd0a4f28419497f9722a3daafe3b4186f6b6457e0\n  mload(0x40)\n  mload(0x40)\n  dup1\n  swap2\n  sub\n  swap1\n  log3\n    /* \"@openzeppelin/contracts/access/Ownable.sol\":2975:3099  {... */\n  pop\n    /* \"@openzeppelin/contracts/access/Ownable.sol\":2912:3099  function _transferOwnership(address newOwner) internal virtual {... */\n  pop\n  jump\t// out\n    /* \"#utility.yul\":88:205   */\ntag_24:\n    /* \"#utility.yul\":197:198   */\n  0x00\n    /* \"#utility.yul\":194:195   */\n  0x00\n    /* \"#utility.yul\":187:199   */\n  revert\n    /* \"#utility.yul\":334:411   */\ntag_26:\n    /* \"#utility.yul\":371:378   */\n  0x00\n    /* \"#utility.yul\":400:405   */\n  dup2\n    /* \"#utility.yul\":389:405   */\n  swap1\n  pop\n    /* \"#utility.yul\":334:411   */\n  swap2\n  swap1\n  pop\n  jump\t// out\n    /* \"#utility.yul\":417:539   */\ntag_27:\n    /* \"#utility.yul\":490:514   */\n  tag_42\n    /* \"#utility.yul\":508:513   */\n  dup2\n    /* \"#utility.yul\":490:514   */\n  tag_26\n  jump\t// in\ntag_42:\n    /* \"#utility.yul\":483:488   */\n  dup2\n    /* \"#utility.yul\":480:515   */\n  eq\n    /* \"#utility.yul\":470:533   */\n  tag_43\n  jumpi\n    /* \"#utility.yul\":529:530   */\n  0x00\n    /* \"#utility.yul\":526:527   */\n  0x00\n    /* \"#utility.yul\":519:531   */\n  revert\n    /* \"#utility.yul\":470:533   */\ntag_43:\n    /* \"#utility.yul\":417:539   */\n  pop\n  jump\t// out\n    /* \"#utility.yul\":545:688   */\ntag_28:\n    /* \"#utility.yul\":602:607   */\n  0x00\n    /* \"#utility.yul\":633:639   */\n  dup2\n    /* \"#utility.yul\":627:640   */\n  mload\n    /* \"#utility.yul\":618:640   */\n  swap1\n  pop\n    /* \"#utility.yul\":649:682   */\n  tag_45\n    /* \"#utility.yul\":676:681   */\n  dup2\n    /* \"#utility.yul\":649:682   */\n  tag_27\n  jump\t// in\ntag_45:\n    /* \"#utility.yul\":545:688   */\n  swap3\n  swap2\n  pop\n  pop\n  jump\t// out\n    /* \"#utility.yul\":694:1201   */\ntag_3:\n    /* \"#utility.yul\":773:779   */\n  0x00\n    /* \"#utility.yul\":781:787   */\n  0x00\n    /* \"#utility.yul\":830:832   */\n  0x40\n    /* \"#utility.yul\":818:827   */\n  dup4\n    /* \"#utility.yul\":809:816   */\n  dup6\n    /* \"#utility.yul\":805:828   */\n  sub\n    /* \"#utility.yul\":801:833   */\n  slt\n    /* \"#utility.yul\":798:917   */\n  iszero\n  tag_47\n  jumpi\n    /* \"#utility.yul\":836:915   */\n  tag_48\n  tag_24\n  jump\t// in\ntag_48:\n    /* \"#utility.yul\":798:917   */\ntag_47:\n    /* \"#utility.yul\":956:957   */\n  0x00\n    /* \"#utility.yul\":981:1045   */\n  tag_49\n    /* \"#utility.yul\":1037:1044   */\n  dup6\n    /* \"#utility.yul\":1028:1034   */\n  dup3\n    /* \"#utility.yul\":1017:1026   */\n  dup7\n    /* \"#utility.yul\":1013:1035   */\n  add\n    /* \"#utility.yul\":981:1045   */\n  tag_28\n  jump\t// in\ntag_49:\n    /* \"#utility.yul\":971:1045   */\n  swap3\n  pop\n    /* \"#utility.yul\":927:1055   */\n  pop\n    /* \"#utility.yul\":1094:1096   */\n  0x20\n    /* \"#utility.yul\":1120:1184   */\n  tag_50\n    /* \"#utility.yul\":1176:1183   */\n  dup6\n    /* \"#utility.yul\":1167:1173   */\n  dup3\n    /* \"#utility.yul\":1156:1165   */\n  dup7\n    /* \"#utility.yul\":1152:1174   */\n  add\n    /* \"#utility.yul\":1120:1184   */\n  tag_28\n  jump\t// in\ntag_50:\n    /* \"#utility.yul\":1110:1184   */\n  swap2\n  pop\n    /* \"#utility.yul\":1065:1194   */\n  pop\n    /* \"#utility.yul\":694:1201   */\n  swap3\n  pop\n  swap3\n  swap1\n  pop\n  jump\t// out\n    /* \"#utility.yul\":1207:1333   */\ntag_29:\n    /* \"#utility.yul\":1244:1251   */\n  0x00\n    /* \"#utility.yul\":1284:1326   */\n  0xffffffffffffffffffffffffffffffffffffffff\n    /* \"#utility.yul\":1277:1282   */\n  dup3\n    /* \"#utility.yul\":1273:1327   */\n  and\n    /* \"#utility.yul\":1262:1327   */\n  swap1\n  pop\n    /* \"#utility.yul\":1207:1333   */\n  swap2\n  swap1\n  pop\n  jump\t// out\n    /* \"#utility.yul\":1339:1435   */\ntag_30:\n    /* \"#utility.yul\":1376:1383   */\n  0x00\n    /* \"#utility.yul\":1405:1429   */\n  tag_53\n    /* \"#utility.yul\":1423:1428   */\n  dup3\n    /* \"#utility.yul\":1405:1429   */\n  tag_29\n  jump\t// in\ntag_53:\n    /* \"#utility.yul\":1394:1429   */\n  swap1\n  pop\n    /* \"#utility.yul\":1339:1435   */\n  swap2\n  swap1\n  pop\n  jump\t// out\n    /* \"#utility.yul\":1441:1559   */\ntag_31:\n    /* \"#utility.yul\":1528:1552   */\n  tag_55\n    /* \"#utility.yul\":1546:1551   */\n  dup2\n    /* \"#utility.yul\":1528:1552   */\n  tag_30\n  jump\t// in\ntag_55:\n    /* \"#utility.yul\":1523:1526   */\n  dup3\n    /* \"#utility.yul\":1516:1553   */\n  mstore\n    /* \"#utility.yul\":1441:1559   */\n  pop\n  pop\n  jump\t// out\n    /* \"#utility.yul\":1565:1787   */\ntag_10:\n    /* \"#utility.yul\":1658:1662   */\n  0x00\n    /* \"#utility.yul\":1696:1698   */\n  0x20\n    /* \"#utility.yul\":1685:1694   */\n  dup3\n    /* \"#utility.yul\":1681:1699   */\n  add\n    /* \"#utility.yul\":1673:1699   */\n  swap1\n  pop\n    /* \"#utility.yul\":1709:1780   */\n  tag_57\n    /* \"#utility.yul\":1777:1778   */\n  0x00\n    /* \"#utility.yul\":1766:1775   */\n  dup4\n    /* \"#utility.yul\":1762:1779   */\n  add\n    /* \"#utility.yul\":1753:1759   */\n  dup5\n    /* \"#utility.yul\":1709:1780   */\n  tag_31\n  jump\t// in\ntag_57:\n    /* \"#utility.yul\":1565:1787   */\n  swap3\n  swap2\n  pop\n  pop\n  jump\t// out\n    /* \"#utility.yul\":1793:1962   */\ntag_32:\n    /* \"#utility.yul\":1877:1888   */\n  0x00\n    /* \"#utility.yul\":1911:1917   */\n  dup3\n    /* \"#utility.yul\":1906:1909   */\n  dup3\n    /* \"#utility.yul\":1899:1918   */\n  mstore\n    /* \"#utility.yul\":1951:1955   */\n  0x20\n    /* \"#utility.yul\":1946:1949   */\n  dup3\n    /* \"#utility.yul\":1942:1956   */\n  add\n    /* \"#utility.yul\":1927:1956   */\n  swap1\n  pop\n    /* \"#utility.yul\":1793:1962   */\n  swap3\n  swap2\n  pop\n  pop\n  jump\t// out\n    /* \"#utility.yul\":1968:2188   */\ntag_33:\n    /* \"#utility.yul\":2108:2142   */\n  0x5468726573686f6c6473206d7573742062652067726561746572207468616e20\n    /* \"#utility.yul\":2104:2105   */\n  0x00\n    /* \"#utility.yul\":2096:2102   */\n  dup3\n    /* \"#utility.yul\":2092:2106   */\n  add\n    /* \"#utility.yul\":2085:2143   */\n  mstore\n    /* \"#utility.yul\":2177:2180   */\n  0x3000000000000000000000000000000000000000000000000000000000000000\n    /* \"#utility.yul\":2172:2174   */\n  0x20\n    /* \"#utility.yul\":2164:2170   */\n  dup3\n    /* \"#utility.yul\":2160:2175   */\n  add\n    /* \"#utility.yul\":2153:2181   */\n  mstore\n    /* \"#utility.yul\":1968:2188   */\n  pop\n  jump\t// out\n    /* \"#utility.yul\":2194:2560   */\ntag_34:\n    /* \"#utility.yul\":2336:2339   */\n  0x00\n    /* \"#utility.yul\":2357:2424   */\n  tag_61\n    /* \"#utility.yul\":2421:2423   */\n  0x21\n    /* \"#utility.yul\":2416:2419   */\n  dup4\n    /* \"#utility.yul\":2357:2424   */\n  tag_32\n  jump\t// in\ntag_61:\n    /* \"#utility.yul\":2350:2424   */\n  swap2\n  pop\n    /* \"#utility.yul\":2433:2526   */\n  tag_62\n    /* \"#utility.yul\":2522:2525   */\n  dup3\n    /* \"#utility.yul\":2433:2526   */\n  tag_33\n  jump\t// in\ntag_62:\n    /* \"#utility.yul\":2551:2553   */\n  0x40\n    /* \"#utility.yul\":2546:2549   */\n  dup3\n    /* \"#utility.yul\":2542:2554   */\n  add\n    /* \"#utility.yul\":2535:2554   */\n  swap1\n  pop\n    /* \"#utility.yul\":2194:2560   */\n  swap2\n  swap1\n  pop\n  jump\t// out\n    /* \"#utility.yul\":2566:2985   */\ntag_18:\n    /* \"#utility.yul\":2732:2736   */\n  0x00\n    /* \"#utility.yul\":2770:2772   */\n  0x20\n    /* \"#utility.yul\":2759:2768   */\n  dup3\n    /* \"#utility.yul\":2755:2773   */\n  add\n    /* \"#utility.yul\":2747:2773   */\n  swap1\n  pop\n    /* \"#utility.yul\":2819:2828   */\n  dup2\n    /* \"#utility.yul\":2813:2817   */\n  dup2\n    /* \"#utility.yul\":2809:2829   */\n  sub\n    /* \"#utility.yul\":2805:2806   */\n  0x00\n    /* \"#utility.yul\":2794:2803   */\n  dup4\n    /* \"#utility.yul\":2790:2807   */\n  add\n    /* \"#utility.yul\":2783:2830   */\n  mstore\n    /* \"#utility.yul\":2847:2978   */\n  tag_64\n    /* \"#utility.yul\":2973:2977   */\n  dup2\n    /* \"#utility.yul\":2847:2978   */\n  tag_34\n  jump\t// in\ntag_64:\n    /* \"#utility.yul\":2839:2978   */\n  swap1\n  pop\n    /* \"#utility.yul\":2566:2985   */\n  swap2\n  swap1\n  pop\n  jump\t// out\n    /* \"#utility.yul\":2991:3109   */\ntag_35:\n    /* \"#utility.yul\":3078:3102   */\n  tag_66\n    /* \"#utility.yul\":3096:3101   */\n  dup2\n    /* \"#utility.yul\":3078:3102   */\n  tag_26\n  jump\t// in\ntag_66:\n    /* \"#utility.yul\":3073:3076   */\n  dup3\n    /* \"#utility.yul\":3066:3103   */\n  mstore\n    /* \"#utility.yul\":2991:3109   */\n  pop\n  pop\n  jump\t// out\n    /* \"#utility.yul\":3115:3447   */\ntag_20:\n    /* \"#utility.yul\":3236:3240   */\n  0x00\n    /* \"#utility.yul\":3274:3276   */\n  0x40\n    /* \"#utility.yul\":3263:3272   */\n  dup3\n    /* \"#utility.yul\":3259:3277   */\n  add\n    /* \"#utility.yul\":3251:3277   */\n  swap1\n  pop\n    /* \"#utility.yul\":3287:3358   */\n  tag_68\n    /* \"#utility.yul\":3355:3356   */\n  0x00\n    /* \"#utility.yul\":3344:3353   */\n  dup4\n    /* \"#utility.yul\":3340:3357   */\n  add\n    /* \"#utility.yul\":3331:3337   */\n  dup6\n    /* \"#utility.yul\":3287:3358   */\n  tag_35\n  jump\t// in\ntag_68:\n    /* \"#utility.yul\":3368:3440   */\n  tag_69\n    /* \"#utility.yul\":3436:3438   */\n  0x20\n    /* \"#utility.yul\":3425:3434   */\n  dup4\n    /* \"#utility.yul\":3421:3439   */\n  add\n    /* \"#utility.yul\":3412:3418   */\n  dup5\n    /* \"#utility.yul\":3368:3440   */\n  tag_35\n  jump\t// in\ntag_69:\n    /* \"#utility.yul\":3115:3447   */\n  swap4\n  swap3\n  pop\n  pop\n  pop\n  jump\t// out\n    /* \"D/deadCateBounce.sol\":397:4119  contract DeadCatBounceDetector is Ownable, ReentrancyGuard {... */\ntag_21:\n  dataSize(sub_0)\n  dup1\n  dataOffset(sub_0)\n  0x00\n  codecopy\n  0x00\n  return\nstop\n\nsub_0: assembly {\n        /* \"D/deadCateBounce.sol\":397:4119  contract DeadCatBounceDetector is Ownable, ReentrancyGuard {... */\n      mstore(0x40, 0x80)\n      callvalue\n      dup1\n      iszero\n      tag_1\n      jumpi\n      revert(0x00, 0x00)\n    tag_1:\n      pop\n      jumpi(tag_2, lt(calldatasize, 0x04))\n      shr(0xe0, calldataload(0x00))\n      dup1\n      0x8da5cb5b\n      gt\n      tag_13\n      jumpi\n      dup1\n      0x8da5cb5b\n      eq\n      tag_8\n      jumpi\n      dup1\n      0x98043a49\n      eq\n      tag_9\n      jumpi\n      dup1\n      0xd9b24ced\n      eq\n      tag_10\n      jumpi\n      dup1\n      0xf2fde38b\n      eq\n      tag_11\n      jumpi\n      dup1\n      0xf8442ca3\n      eq\n      tag_12\n      jumpi\n      jump(tag_2)\n    tag_13:\n      dup1\n      0x16128211\n      eq\n      tag_3\n      jumpi\n      dup1\n      0x2b0f350f\n      eq\n      tag_4\n      jumpi\n      dup1\n      0x55c11333\n      eq\n      tag_5\n      jumpi\n      dup1\n      0x715018a6\n      eq\n      tag_6\n      jumpi\n      dup1\n      0x7ad33fce\n      eq\n      tag_7\n      jumpi\n    tag_2:\n      revert(0x00, 0x00)\n        /* \"D/deadCateBounce.sol\":1745:2108  function updateParameters(uint256 _declineThreshold, uint256 _bounceThreshold) external onlyOwner {... */\n    tag_3:\n      tag_14\n      0x04\n      dup1\n      calldatasize\n      sub\n      dup2\n      add\n      swap1\n      tag_15\n      swap2\n      swap1\n      tag_16\n      jump\t// in\n    tag_15:\n      tag_17\n      jump\t// in\n    tag_14:\n      stop\n        /* \"D/deadCateBounce.sol\":717:748  uint256 public declineThreshold */\n    tag_4:\n      tag_18\n      tag_19\n      jump\t// in\n    tag_18:\n      mload(0x40)\n      tag_20\n      swap2\n      swap1\n      tag_21\n      jump\t// in\n    tag_20:\n      mload(0x40)\n      dup1\n      swap2\n      sub\n      swap1\n      return\n        /* \"D/deadCateBounce.sol\":3746:3852  function getBounceEventCount() external view returns (uint256) {... */\n    tag_5:\n      tag_22\n      tag_23\n      jump\t// in\n    tag_22:\n      mload(0x40)\n      tag_24\n      swap2\n      swap1\n      tag_21\n      jump\t// in\n    tag_24:\n      mload(0x40)\n      dup1\n      swap2\n      sub\n      swap1\n      return\n        /* \"@openzeppelin/contracts/access/Ownable.sol\":2293:2394  function renounceOwnership() public virtual onlyOwner {... */\n    tag_6:\n      tag_25\n      tag_26\n      jump\t// in\n    tag_25:\n      stop\n        /* \"D/deadCateBounce.sol\":816:846  uint256 public bounceThreshold */\n    tag_7:\n      tag_27\n      tag_28\n      jump\t// in\n    tag_27:\n      mload(0x40)\n      tag_29\n      swap2\n      swap1\n      tag_21\n      jump\t// in\n    tag_29:\n      mload(0x40)\n      dup1\n      swap2\n      sub\n      swap1\n      return\n        /* \"@openzeppelin/contracts/access/Ownable.sol\":1638:1723  function owner() public view virtual returns (address) {... */\n    tag_8:\n      tag_30\n      tag_31\n      jump\t// in\n    tag_30:\n      mload(0x40)\n      tag_32\n      swap2\n      swap1\n      tag_33\n      jump\t// in\n    tag_32:\n      mload(0x40)\n      dup1\n      swap2\n      sub\n      swap1\n      return\n        /* \"D/deadCateBounce.sol\":962:995  BounceEvent[] public bounceEvents */\n    tag_9:\n      tag_34\n      0x04\n      dup1\n      calldatasize\n      sub\n      dup2\n      add\n      swap1\n      tag_35\n      swap2\n      swap1\n      tag_36\n      jump\t// in\n    tag_35:\n      tag_37\n      jump\t// in\n    tag_34:\n      mload(0x40)\n      tag_38\n      swap5\n      swap4\n      swap3\n      swap2\n      swap1\n      tag_39\n      jump\t// in\n    tag_38:\n      mload(0x40)\n      dup1\n      swap2\n      sub\n      swap1\n      return\n        /* \"D/deadCateBounce.sol\":2453:3678  function submitBounceEvent(... */\n    tag_10:\n      tag_40\n      0x04\n      dup1\n      calldatasize\n      sub\n      dup2\n      add\n      swap1\n      tag_41\n      swap2\n      swap1\n      tag_42\n      jump\t// in\n    tag_41:\n      tag_43\n      jump\t// in\n    tag_40:\n      stop\n        /* \"@openzeppelin/contracts/access/Ownable.sol\":2543:2758  function transferOwnership(address newOwner) public virtual onlyOwner {... */\n    tag_11:\n      tag_44\n      0x04\n      dup1\n      calldatasize\n      sub\n      dup2\n      add\n      swap1\n      tag_45\n      swap2\n      swap1\n      tag_46\n      jump\t// in\n    tag_45:\n      tag_47\n      jump\t// in\n    tag_44:\n      stop\n        /* \"D/deadCateBounce.sol\":3918:4117  function getBounceEvent(uint256 index) external view returns (BounceEvent memory) {... */\n    tag_12:\n      tag_48\n      0x04\n      dup1\n      calldatasize\n      sub\n      dup2\n      add\n      swap1\n      tag_49\n      swap2\n      swap1\n      tag_36\n      jump\t// in\n    tag_49:\n      tag_50\n      jump\t// in\n    tag_48:\n      mload(0x40)\n      tag_51\n      swap2\n      swap1\n      tag_52\n      jump\t// in\n    tag_51:\n      mload(0x40)\n      dup1\n      swap2\n      sub\n      swap1\n      return\n        /* \"D/deadCateBounce.sol\":1745:2108  function updateParameters(uint256 _declineThreshold, uint256 _bounceThreshold) external onlyOwner {... */\n    tag_17:\n        /* \"@openzeppelin/contracts/access/Ownable.sol\":1531:1544  _checkOwner() */\n      tag_54\n        /* \"@openzeppelin/contracts/access/Ownable.sol\":1531:1542  _checkOwner */\n      tag_55\n        /* \"@openzeppelin/contracts/access/Ownable.sol\":1531:1544  _checkOwner() */\n      jump\t// in\n    tag_54:\n        /* \"D/deadCateBounce.sol\":1881:1882  0 */\n      0x00\n        /* \"D/deadCateBounce.sol\":1861:1878  _declineThreshold */\n      dup3\n        /* \"D/deadCateBounce.sol\":1861:1882  _declineThreshold > 0 */\n      gt\n        /* \"D/deadCateBounce.sol\":1861:1906  _declineThreshold > 0 && _bounceThreshold > 0 */\n      dup1\n      iszero\n      tag_57\n      jumpi\n      pop\n        /* \"D/deadCateBounce.sol\":1905:1906  0 */\n      0x00\n        /* \"D/deadCateBounce.sol\":1886:1902  _bounceThreshold */\n      dup2\n        /* \"D/deadCateBounce.sol\":1886:1906  _bounceThreshold > 0 */\n      gt\n        /* \"D/deadCateBounce.sol\":1861:1906  _declineThreshold > 0 && _bounceThreshold > 0 */\n    tag_57:\n        /* \"D/deadCateBounce.sol\":1853:1944  require(_declineThreshold > 0 && _bounceThreshold > 0, \"Thresholds must be greater than 0\") */\n      tag_58\n      jumpi\n      mload(0x40)\n      0x08c379a000000000000000000000000000000000000000000000000000000000\n      dup2\n      mstore\n      0x04\n      add\n      tag_59\n      swap1\n      tag_60\n      jump\t// in\n    tag_59:\n      mload(0x40)\n      dup1\n      swap2\n      sub\n      swap1\n      revert\n    tag_58:\n        /* \"D/deadCateBounce.sol\":1973:1990  _declineThreshold */\n      dup2\n        /* \"D/deadCateBounce.sol\":1954:1970  declineThreshold */\n      0x02\n        /* \"D/deadCateBounce.sol\":1954:1990  declineThreshold = _declineThreshold */\n      dup2\n      swap1\n      sstore\n      pop\n        /* \"D/deadCateBounce.sol\":2018:2034  _bounceThreshold */\n      dup1\n        /* \"D/deadCateBounce.sol\":2000:2015  bounceThreshold */\n      0x03\n        /* \"D/deadCateBounce.sol\":2000:2034  bounceThreshold = _bounceThreshold */\n      dup2\n      swap1\n      sstore\n      pop\n        /* \"D/deadCateBounce.sol\":2049:2101  ParametersUpdated(declineThreshold, bounceThreshold) */\n      0xfaccb0639ff7851e0e24f3b2d9ab03cd62ffb63f5b4d90aaeff85bb078c1fa48\n        /* \"D/deadCateBounce.sol\":2067:2083  declineThreshold */\n      sload(0x02)\n        /* \"D/deadCateBounce.sol\":2085:2100  bounceThreshold */\n      sload(0x03)\n        /* \"D/deadCateBounce.sol\":2049:2101  ParametersUpdated(declineThreshold, bounceThreshold) */\n      mload(0x40)\n      tag_61\n      swap3\n      swap2\n      swap1\n      tag_62\n      jump\t// in\n    tag_61:\n      mload(0x40)\n      dup1\n      swap2\n      sub\n      swap1\n      log1\n        /* \"D/deadCateBounce.sol\":1745:2108  function updateParameters(uint256 _declineThreshold, uint256 _bounceThreshold) external onlyOwner {... */\n      pop\n      pop\n      jump\t// out\n        /* \"D/deadCateBounce.sol\":717:748  uint256 public declineThreshold */\n    tag_19:\n      sload(0x02)\n      dup2\n      jump\t// out\n        /* \"D/deadCateBounce.sol\":3746:3852  function getBounceEventCount() external view returns (uint256) {... */\n    tag_23:\n        /* \"D/deadCateBounce.sol\":3800:3807  uint256 */\n      0x00\n        /* \"D/deadCateBounce.sol\":3826:3838  bounceEvents */\n      0x04\n        /* \"D/deadCateBounce.sol\":3826:3845  bounceEvents.length */\n      dup1\n      sload\n      swap1\n      pop\n        /* \"D/deadCateBounce.sol\":3819:3845  return bounceEvents.length */\n      swap1\n      pop\n        /* \"D/deadCateBounce.sol\":3746:3852  function getBounceEventCount() external view returns (uint256) {... */\n      swap1\n      jump\t// out\n        /* \"@openzeppelin/contracts/access/Ownable.sol\":2293:2394  function renounceOwnership() public virtual onlyOwner {... */\n    tag_26:\n        /* \"@openzeppelin/contracts/access/Ownable.sol\":1531:1544  _checkOwner() */\n      tag_65\n        /* \"@openzeppelin/contracts/access/Ownable.sol\":1531:1542  _checkOwner */\n      tag_55\n        /* \"@openzeppelin/contracts/access/Ownable.sol\":1531:1544  _checkOwner() */\n      jump\t// in\n    tag_65:\n        /* \"@openzeppelin/contracts/access/Ownable.sol\":2357:2387  _transferOwnership(address(0)) */\n      tag_67\n        /* \"@openzeppelin/contracts/access/Ownable.sol\":2384:2385  0 */\n      0x00\n        /* \"@openzeppelin/contracts/access/Ownable.sol\":2357:2375  _transferOwnership */\n      tag_68\n        /* \"@openzeppelin/contracts/access/Ownable.sol\":2357:2387  _transferOwnership(address(0)) */\n      jump\t// in\n    tag_67:\n        /* \"@openzeppelin/contracts/access/Ownable.sol\":2293:2394  function renounceOwnership() public virtual onlyOwner {... */\n      jump\t// out\n        /* \"D/deadCateBounce.sol\":816:846  uint256 public bounceThreshold */\n    tag_28:\n      sload(0x03)\n      dup2\n      jump\t// out\n        /* \"@openzeppelin/contracts/access/Ownable.sol\":1638:1723  function owner() public view virtual returns (address) {... */\n    tag_31:\n        /* \"@openzeppelin/contracts/access/Ownable.sol\":1684:1691  address */\n      0x00\n        /* \"@openzeppelin/contracts/access/Ownable.sol\":1710:1716  _owner */\n      0x00\n      0x00\n      swap1\n      sload\n      swap1\n      0x0100\n      exp\n      swap1\n      div\n      0xffffffffffffffffffffffffffffffffffffffff\n      and\n        /* \"@openzeppelin/contracts/access/Ownable.sol\":1703:1716  return _owner */\n      swap1\n      pop\n        /* \"@openzeppelin/contracts/access/Ownable.sol\":1638:1723  function owner() public view virtual returns (address) {... */\n      swap1\n      jump\t// out\n        /* \"D/deadCateBounce.sol\":962:995  BounceEvent[] public bounceEvents */\n    tag_37:\n      0x04\n      dup2\n      dup2\n      sload\n      dup2\n      lt\n      tag_70\n      jumpi\n      0x00\n      dup1\n      revert\n    tag_70:\n      swap1\n      0x00\n      mstore\n      keccak256(0x00, 0x20)\n      swap1\n      0x04\n      mul\n      add\n      0x00\n      swap2\n      pop\n      swap1\n      pop\n      dup1\n      0x00\n      add\n      sload\n      swap1\n      dup1\n      0x01\n      add\n      sload\n      swap1\n      dup1\n      0x02\n      add\n      sload\n      swap1\n      dup1\n      0x03\n      add\n      sload\n      swap1\n      pop\n      dup5\n      jump\t// out\n        /* \"D/deadCateBounce.sol\":2453:3678  function submitBounceEvent(... */\n    tag_43:\n        /* \"@openzeppelin/contracts/access/Ownable.sol\":1531:1544  _checkOwner() */\n      tag_73\n        /* \"@openzeppelin/contracts/access/Ownable.sol\":1531:1542  _checkOwner */\n      tag_55\n        /* \"@openzeppelin/contracts/access/Ownable.sol\":1531:1544  _checkOwner() */\n      jump\t// in\n    tag_73:\n        /* \"@openzeppelin/contracts/security/ReentrancyGuard.sol\":2261:2282  _nonReentrantBefore() */\n      tag_75\n        /* \"@openzeppelin/contracts/security/ReentrancyGuard.sol\":2261:2280  _nonReentrantBefore */\n      tag_76\n        /* \"@openzeppelin/contracts/security/ReentrancyGuard.sol\":2261:2282  _nonReentrantBefore() */\n      jump\t// in\n    tag_75:\n        /* \"D/deadCateBounce.sol\":2701:2712  lowestPrice */\n      dup3\n        /* \"D/deadCateBounce.sol\":2679:2698  initialDeclinePrice */\n      dup5\n        /* \"D/deadCateBounce.sol\":2679:2712  initialDeclinePrice > lowestPrice */\n      gt\n        /* \"D/deadCateBounce.sol\":2679:2753  initialDeclinePrice > lowestPrice &&... */\n      dup1\n      iszero\n      tag_78\n      jumpi\n      pop\n        /* \"D/deadCateBounce.sol\":2742:2753  lowestPrice */\n      dup3\n        /* \"D/deadCateBounce.sol\":2728:2739  bouncePrice */\n      dup3\n        /* \"D/deadCateBounce.sol\":2728:2753  bouncePrice > lowestPrice */\n      gt\n        /* \"D/deadCateBounce.sol\":2679:2753  initialDeclinePrice > lowestPrice &&... */\n    tag_78:\n        /* \"D/deadCateBounce.sol\":2679:2802  initialDeclinePrice > lowestPrice &&... */\n      dup1\n      iszero\n      tag_79\n      jumpi\n      pop\n        /* \"D/deadCateBounce.sol\":2783:2802  initialDeclinePrice */\n      dup4\n        /* \"D/deadCateBounce.sol\":2769:2780  bouncePrice */\n      dup3\n        /* \"D/deadCateBounce.sol\":2769:2802  bouncePrice < initialDeclinePrice */\n      lt\n        /* \"D/deadCateBounce.sol\":2679:2802  initialDeclinePrice > lowestPrice &&... */\n    tag_79:\n        /* \"D/deadCateBounce.sol\":2679:2849  initialDeclinePrice > lowestPrice &&... */\n      dup1\n      iszero\n      tag_80\n      jumpi\n      pop\n        /* \"D/deadCateBounce.sol\":2838:2849  bouncePrice */\n      dup2\n        /* \"D/deadCateBounce.sol\":2818:2835  finalDeclinePrice */\n      dup2\n        /* \"D/deadCateBounce.sol\":2818:2849  finalDeclinePrice < bouncePrice */\n      lt\n        /* \"D/deadCateBounce.sol\":2679:2849  initialDeclinePrice > lowestPrice &&... */\n    tag_80:\n        /* \"D/deadCateBounce.sol\":2658:2920  require(... */\n      tag_81\n      jumpi\n      mload(0x40)\n      0x08c379a000000000000000000000000000000000000000000000000000000000\n      dup2\n      mstore\n      0x04\n      add\n      tag_82\n      swap1\n      tag_83\n      jump\t// in\n    tag_82:\n      mload(0x40)\n      dup1\n      swap2\n      sub\n      swap1\n      revert\n    tag_81:\n        /* \"D/deadCateBounce.sol\":2931:2953  uint256 declinePercent */\n      0x00\n        /* \"D/deadCateBounce.sol\":3004:3023  initialDeclinePrice */\n      dup5\n        /* \"D/deadCateBounce.sol\":2995:3000  10000 */\n      0x2710\n        /* \"D/deadCateBounce.sol\":2980:2991  lowestPrice */\n      dup6\n        /* \"D/deadCateBounce.sol\":2958:2977  initialDeclinePrice */\n      dup8\n        /* \"D/deadCateBounce.sol\":2958:2991  initialDeclinePrice - lowestPrice */\n      tag_84\n      swap2\n      swap1\n      tag_85\n      jump\t// in\n    tag_84:\n        /* \"D/deadCateBounce.sol\":2957:3000  (initialDeclinePrice - lowestPrice) * 10000 */\n      tag_86\n      swap2\n      swap1\n      tag_87\n      jump\t// in\n    tag_86:\n        /* \"D/deadCateBounce.sol\":2956:3023  ((initialDeclinePrice - lowestPrice) * 10000) / initialDeclinePrice */\n      tag_88\n      swap2\n      swap1\n      tag_89\n      jump\t// in\n    tag_88:\n        /* \"D/deadCateBounce.sol\":2931:3023  uint256 declinePercent = ((initialDeclinePrice - lowestPrice) * 10000) / initialDeclinePrice */\n      swap1\n      pop\n        /* \"D/deadCateBounce.sol\":3033:3054  uint256 bouncePercent */\n      0x00\n        /* \"D/deadCateBounce.sol\":3097:3116  initialDeclinePrice */\n      dup6\n        /* \"D/deadCateBounce.sol\":3088:3093  10000 */\n      0x2710\n        /* \"D/deadCateBounce.sol\":3073:3084  lowestPrice */\n      dup7\n        /* \"D/deadCateBounce.sol\":3059:3070  bouncePrice */\n      dup7\n        /* \"D/deadCateBounce.sol\":3059:3084  bouncePrice - lowestPrice */\n      tag_90\n      swap2\n      swap1\n      tag_85\n      jump\t// in\n    tag_90:\n        /* \"D/deadCateBounce.sol\":3058:3093  (bouncePrice - lowestPrice) * 10000 */\n      tag_91\n      swap2\n      swap1\n      tag_87\n      jump\t// in\n    tag_91:\n        /* \"D/deadCateBounce.sol\":3057:3116  ((bouncePrice - lowestPrice) * 10000) / initialDeclinePrice */\n      tag_92\n      swap2\n      swap1\n      tag_89\n      jump\t// in\n    tag_92:\n        /* \"D/deadCateBounce.sol\":3033:3116  uint256 bouncePercent = ((bouncePrice - lowestPrice) * 10000) / initialDeclinePrice */\n      swap1\n      pop\n        /* \"D/deadCateBounce.sol\":3153:3169  declineThreshold */\n      sload(0x02)\n        /* \"D/deadCateBounce.sol\":3135:3149  declinePercent */\n      dup3\n        /* \"D/deadCateBounce.sol\":3135:3169  declinePercent >= declineThreshold */\n      lt\n      iszero\n        /* \"D/deadCateBounce.sol\":3127:3204  require(declinePercent >= declineThreshold, \"Initial decline not sufficient\") */\n      tag_93\n      jumpi\n      mload(0x40)\n      0x08c379a000000000000000000000000000000000000000000000000000000000\n      dup2\n      mstore\n      0x04\n      add\n      tag_94\n      swap1\n      tag_95\n      jump\t// in\n    tag_94:\n      mload(0x40)\n      dup1\n      swap2\n      sub\n      swap1\n      revert\n    tag_93:\n        /* \"D/deadCateBounce.sol\":3239:3254  bounceThreshold */\n      sload(0x03)\n        /* \"D/deadCateBounce.sol\":3222:3235  bouncePercent */\n      dup2\n        /* \"D/deadCateBounce.sol\":3222:3254  bouncePercent >= bounceThreshold */\n      lt\n      iszero\n        /* \"D/deadCateBounce.sol\":3214:3280  require(bouncePercent >= bounceThreshold, \"Bounce not sufficient\") */\n      tag_96\n      jumpi\n      mload(0x40)\n      0x08c379a000000000000000000000000000000000000000000000000000000000\n      dup2\n      mstore\n      0x04\n      add\n      tag_97\n      swap1\n      tag_98\n      jump\t// in\n    tag_97:\n      mload(0x40)\n      dup1\n      swap2\n      sub\n      swap1\n      revert\n    tag_96:\n        /* \"D/deadCateBounce.sol\":3291:3318  BounceEvent memory newEvent */\n      0x00\n        /* \"D/deadCateBounce.sol\":3321:3526  BounceEvent({... */\n      mload(0x40)\n      dup1\n      0x80\n      add\n      0x40\n      mstore\n      dup1\n        /* \"D/deadCateBounce.sol\":3368:3387  initialDeclinePrice */\n      dup9\n        /* \"D/deadCateBounce.sol\":3321:3526  BounceEvent({... */\n      dup2\n      mstore\n      0x20\n      add\n        /* \"D/deadCateBounce.sol\":3414:3425  bouncePrice */\n      dup7\n        /* \"D/deadCateBounce.sol\":3321:3526  BounceEvent({... */\n      dup2\n      mstore\n      0x20\n      add\n        /* \"D/deadCateBounce.sol\":3458:3475  finalDeclinePrice */\n      dup6\n        /* \"D/deadCateBounce.sol\":3321:3526  BounceEvent({... */\n      dup2\n      mstore\n      0x20\n      add\n        /* \"D/deadCateBounce.sol\":3500:3515  block.timestamp */\n      timestamp\n        /* \"D/deadCateBounce.sol\":3321:3526  BounceEvent({... */\n      dup2\n      mstore\n      pop\n        /* \"D/deadCateBounce.sol\":3291:3526  BounceEvent memory newEvent = BounceEvent({... */\n      swap1\n      pop\n        /* \"D/deadCateBounce.sol\":3537:3549  bounceEvents */\n      0x04\n        /* \"D/deadCateBounce.sol\":3555:3563  newEvent */\n      dup2\n        /* \"D/deadCateBounce.sol\":3537:3564  bounceEvents.push(newEvent) */\n      swap1\n      dup1\n      0x01\n      dup2\n      sload\n      add\n      dup1\n      dup3\n      sstore\n      dup1\n      swap2\n      pop\n      pop\n      0x01\n      swap1\n      sub\n      swap1\n      0x00\n      mstore\n      keccak256(0x00, 0x20)\n      swap1\n      0x04\n      mul\n      add\n      0x00\n      swap1\n      swap2\n      swap1\n      swap2\n      swap1\n      swap2\n      pop\n      0x00\n      dup3\n      add\n      mload\n      dup2\n      0x00\n      add\n      sstore\n      0x20\n      dup3\n      add\n      mload\n      dup2\n      0x01\n      add\n      sstore\n      0x40\n      dup3\n      add\n      mload\n      dup2\n      0x02\n      add\n      sstore\n      0x60\n      dup3\n      add\n      mload\n      dup2\n      0x03\n      add\n      sstore\n      pop\n      pop\n        /* \"D/deadCateBounce.sol\":3616:3617  1 */\n      0x01\n        /* \"D/deadCateBounce.sol\":3594:3606  bounceEvents */\n      0x04\n        /* \"D/deadCateBounce.sol\":3594:3613  bounceEvents.length */\n      dup1\n      sload\n      swap1\n      pop\n        /* \"D/deadCateBounce.sol\":3594:3617  bounceEvents.length - 1 */\n      tag_100\n      swap2\n      swap1\n      tag_85\n      jump\t// in\n    tag_100:\n        /* \"D/deadCateBounce.sol\":3579:3671  BounceRecorded(bounceEvents.length - 1, initialDeclinePrice, bouncePrice, finalDeclinePrice) */\n      0x63b8d7ae2e518078419d93133526c4cc7568f905f81deb1c249ca02d86f62e9c\n        /* \"D/deadCateBounce.sol\":3619:3638  initialDeclinePrice */\n      dup9\n        /* \"D/deadCateBounce.sol\":3640:3651  bouncePrice */\n      dup8\n        /* \"D/deadCateBounce.sol\":3653:3670  finalDeclinePrice */\n      dup8\n        /* \"D/deadCateBounce.sol\":3579:3671  BounceRecorded(bounceEvents.length - 1, initialDeclinePrice, bouncePrice, finalDeclinePrice) */\n      mload(0x40)\n      tag_101\n      swap4\n      swap3\n      swap2\n      swap1\n      tag_102\n      jump\t// in\n    tag_101:\n      mload(0x40)\n      dup1\n      swap2\n      sub\n      swap1\n      log2\n        /* \"D/deadCateBounce.sol\":2648:3678  {... */\n      pop\n      pop\n      pop\n        /* \"@openzeppelin/contracts/security/ReentrancyGuard.sol\":2303:2323  _nonReentrantAfter() */\n      tag_103\n        /* \"@openzeppelin/contracts/security/ReentrancyGuard.sol\":2303:2321  _nonReentrantAfter */\n      tag_104\n        /* \"@openzeppelin/contracts/security/ReentrancyGuard.sol\":2303:2323  _nonReentrantAfter() */\n      jump\t// in\n    tag_103:\n        /* \"D/deadCateBounce.sol\":2453:3678  function submitBounceEvent(... */\n      pop\n      pop\n      pop\n      pop\n      jump\t// out\n        /* \"@openzeppelin/contracts/access/Ownable.sol\":2543:2758  function transferOwnership(address newOwner) public virtual onlyOwner {... */\n    tag_47:\n        /* \"@openzeppelin/contracts/access/Ownable.sol\":1531:1544  _checkOwner() */\n      tag_106\n        /* \"@openzeppelin/contracts/access/Ownable.sol\":1531:1542  _checkOwner */\n      tag_55\n        /* \"@openzeppelin/contracts/access/Ownable.sol\":1531:1544  _checkOwner() */\n      jump\t// in\n    tag_106:\n        /* \"@openzeppelin/contracts/access/Ownable.sol\":2647:2648  0 */\n      0x00\n        /* \"@openzeppelin/contracts/access/Ownable.sol\":2627:2649  newOwner == address(0) */\n      0xffffffffffffffffffffffffffffffffffffffff\n      and\n        /* \"@openzeppelin/contracts/access/Ownable.sol\":2627:2635  newOwner */\n      dup2\n        /* \"@openzeppelin/contracts/access/Ownable.sol\":2627:2649  newOwner == address(0) */\n      0xffffffffffffffffffffffffffffffffffffffff\n      and\n      sub\n        /* \"@openzeppelin/contracts/access/Ownable.sol\":2623:2714  if (newOwner == address(0)) {... */\n      tag_108\n      jumpi\n        /* \"@openzeppelin/contracts/access/Ownable.sol\":2700:2701  0 */\n      0x00\n        /* \"@openzeppelin/contracts/access/Ownable.sol\":2672:2703  OwnableInvalidOwner(address(0)) */\n      mload(0x40)\n      0x1e4fbdf700000000000000000000000000000000000000000000000000000000\n      dup2\n      mstore\n      0x04\n      add\n      tag_109\n      swap2\n      swap1\n      tag_33\n      jump\t// in\n    tag_109:\n      mload(0x40)\n      dup1\n      swap2\n      sub\n      swap1\n      revert\n        /* \"@openzeppelin/contracts/access/Ownable.sol\":2623:2714  if (newOwner == address(0)) {... */\n    tag_108:\n        /* \"@openzeppelin/contracts/access/Ownable.sol\":2723:2751  _transferOwnership(newOwner) */\n      tag_110\n        /* \"@openzeppelin/contracts/access/Ownable.sol\":2742:2750  newOwner */\n      dup2\n        /* \"@openzeppelin/contracts/access/Ownable.sol\":2723:2741  _transferOwnership */\n      tag_68\n        /* \"@openzeppelin/contracts/access/Ownable.sol\":2723:2751  _transferOwnership(newOwner) */\n      jump\t// in\n    tag_110:\n        /* \"@openzeppelin/contracts/access/Ownable.sol\":2543:2758  function transferOwnership(address newOwner) public virtual onlyOwner {... */\n      pop\n      jump\t// out\n        /* \"D/deadCateBounce.sol\":3918:4117  function getBounceEvent(uint256 index) external view returns (BounceEvent memory) {... */\n    tag_50:\n        /* \"D/deadCateBounce.sol\":3980:3998  BounceEvent memory */\n      tag_111\n      tag_112\n      jump\t// in\n    tag_111:\n        /* \"D/deadCateBounce.sol\":4026:4038  bounceEvents */\n      0x04\n        /* \"D/deadCateBounce.sol\":4026:4045  bounceEvents.length */\n      dup1\n      sload\n      swap1\n      pop\n        /* \"D/deadCateBounce.sol\":4018:4023  index */\n      dup3\n        /* \"D/deadCateBounce.sol\":4018:4045  index < bounceEvents.length */\n      lt\n        /* \"D/deadCateBounce.sol\":4010:4074  require(index < bounceEvents.length, \"Event index out of range\") */\n      tag_114\n      jumpi\n      mload(0x40)\n      0x08c379a000000000000000000000000000000000000000000000000000000000\n      dup2\n      mstore\n      0x04\n      add\n      tag_115\n      swap1\n      tag_116\n      jump\t// in\n    tag_115:\n      mload(0x40)\n      dup1\n      swap2\n      sub\n      swap1\n      revert\n    tag_114:\n        /* \"D/deadCateBounce.sol\":4091:4103  bounceEvents */\n      0x04\n        /* \"D/deadCateBounce.sol\":4104:4109  index */\n      dup3\n        /* \"D/deadCateBounce.sol\":4091:4110  bounceEvents[index] */\n      dup2\n      sload\n      dup2\n      lt\n      tag_117\n      jumpi\n      tag_118\n      tag_119\n      jump\t// in\n    tag_118:\n    tag_117:\n      swap1\n      0x00\n      mstore\n      keccak256(0x00, 0x20)\n      swap1\n      0x04\n      mul\n      add\n        /* \"D/deadCateBounce.sol\":4084:4110  return bounceEvents[index] */\n      mload(0x40)\n      dup1\n      0x80\n      add\n      0x40\n      mstore\n      swap1\n      dup2\n      0x00\n      dup3\n      add\n      sload\n      dup2\n      mstore\n      0x20\n      add\n      0x01\n      dup3\n      add\n      sload\n      dup2\n      mstore\n      0x20\n      add\n      0x02\n      dup3\n      add\n      sload\n      dup2\n      mstore\n      0x20\n      add\n      0x03\n      dup3\n      add\n      sload\n      dup2\n      mstore\n      pop\n      pop\n      swap1\n      pop\n        /* \"D/deadCateBounce.sol\":3918:4117  function getBounceEvent(uint256 index) external view returns (BounceEvent memory) {... */\n      swap2\n      swap1\n      pop\n      jump\t// out\n        /* \"@openzeppelin/contracts/access/Ownable.sol\":1796:1958  function _checkOwner() internal view virtual {... */\n    tag_55:\n        /* \"@openzeppelin/contracts/access/Ownable.sol\":1866:1878  _msgSender() */\n      tag_122\n        /* \"@openzeppelin/contracts/access/Ownable.sol\":1866:1876  _msgSender */\n      tag_123\n        /* \"@openzeppelin/contracts/access/Ownable.sol\":1866:1878  _msgSender() */\n      jump\t// in\n    tag_122:\n        /* \"@openzeppelin/contracts/access/Ownable.sol\":1855:1878  owner() != _msgSender() */\n      0xffffffffffffffffffffffffffffffffffffffff\n      and\n        /* \"@openzeppelin/contracts/access/Ownable.sol\":1855:1862  owner() */\n      tag_124\n        /* \"@openzeppelin/contracts/access/Ownable.sol\":1855:1860  owner */\n      tag_31\n        /* \"@openzeppelin/contracts/access/Ownable.sol\":1855:1862  owner() */\n      jump\t// in\n    tag_124:\n        /* \"@openzeppelin/contracts/access/Ownable.sol\":1855:1878  owner() != _msgSender() */\n      0xffffffffffffffffffffffffffffffffffffffff\n      and\n      eq\n        /* \"@openzeppelin/contracts/access/Ownable.sol\":1851:1952  if (owner() != _msgSender()) {... */\n      tag_125\n      jumpi\n        /* \"@openzeppelin/contracts/access/Ownable.sol\":1928:1940  _msgSender() */\n      tag_126\n        /* \"@openzeppelin/contracts/access/Ownable.sol\":1928:1938  _msgSender */\n      tag_123\n        /* \"@openzeppelin/contracts/access/Ownable.sol\":1928:1940  _msgSender() */\n      jump\t// in\n    tag_126:\n        /* \"@openzeppelin/contracts/access/Ownable.sol\":1901:1941  OwnableUnauthorizedAccount(_msgSender()) */\n      mload(0x40)\n      0x118cdaa700000000000000000000000000000000000000000000000000000000\n      dup2\n      mstore\n      0x04\n      add\n      tag_127\n      swap2\n      swap1\n      tag_33\n      jump\t// in\n    tag_127:\n      mload(0x40)\n      dup1\n      swap2\n      sub\n      swap1\n      revert\n        /* \"@openzeppelin/contracts/access/Ownable.sol\":1851:1952  if (owner() != _msgSender()) {... */\n    tag_125:\n        /* \"@openzeppelin/contracts/access/Ownable.sol\":1796:1958  function _checkOwner() internal view virtual {... */\n      jump\t// out\n        /* \"@openzeppelin/contracts/access/Ownable.sol\":2912:3099  function _transferOwnership(address newOwner) internal virtual {... */\n    tag_68:\n        /* \"@openzeppelin/contracts/access/Ownable.sol\":2985:3001  address oldOwner */\n      0x00\n        /* \"@openzeppelin/contracts/access/Ownable.sol\":3004:3010  _owner */\n      0x00\n      0x00\n      swap1\n      sload\n      swap1\n      0x0100\n      exp\n      swap1\n      div\n      0xffffffffffffffffffffffffffffffffffffffff\n      and\n        /* \"@openzeppelin/contracts/access/Ownable.sol\":2985:3010  address oldOwner = _owner */\n      swap1\n      pop\n        /* \"@openzeppelin/contracts/access/Ownable.sol\":3029:3037  newOwner */\n      dup2\n        /* \"@openzeppelin/contracts/access/Ownable.sol\":3020:3026  _owner */\n      0x00\n      0x00\n        /* \"@openzeppelin/contracts/access/Ownable.sol\":3020:3037  _owner = newOwner */\n      0x0100\n      exp\n      dup2\n      sload\n      dup2\n      0xffffffffffffffffffffffffffffffffffffffff\n      mul\n      not\n      and\n      swap1\n      dup4\n      0xffffffffffffffffffffffffffffffffffffffff\n      and\n      mul\n      or\n      swap1\n      sstore\n      pop\n        /* \"@openzeppelin/contracts/access/Ownable.sol\":3083:3091  newOwner */\n      dup2\n        /* \"@openzeppelin/contracts/access/Ownable.sol\":3052:3092  OwnershipTransferred(oldOwner, newOwner) */\n      0xffffffffffffffffffffffffffffffffffffffff\n      and\n        /* \"@openzeppelin/contracts/access/Ownable.sol\":3073:3081  oldOwner */\n      dup2\n        /* \"@openzeppelin/contracts/access/Ownable.sol\":3052:3092  OwnershipTransferred(oldOwner, newOwner) */\n      0xffffffffffffffffffffffffffffffffffffffff\n      and\n      0x8be0079c531659141344cd1fd0a4f28419497f9722a3daafe3b4186f6b6457e0\n      mload(0x40)\n      mload(0x40)\n      dup1\n      swap2\n      sub\n      swap1\n      log3\n        /* \"@openzeppelin/contracts/access/Ownable.sol\":2975:3099  {... */\n      pop\n        /* \"@openzeppelin/contracts/access/Ownable.sol\":2912:3099  function _transferOwnership(address newOwner) internal virtual {... */\n      pop\n      jump\t// out\n        /* \"@openzeppelin/contracts/security/ReentrancyGuard.sol\":2336:2623  function _nonReentrantBefore() private {... */\n    tag_76:\n        /* \"@openzeppelin/contracts/security/ReentrancyGuard.sol\":1759:1760  2 */\n      0x02\n        /* \"@openzeppelin/contracts/security/ReentrancyGuard.sol\":2468:2475  _status */\n      sload(0x01)\n        /* \"@openzeppelin/contracts/security/ReentrancyGuard.sol\":2468:2487  _status != _ENTERED */\n      sub\n        /* \"@openzeppelin/contracts/security/ReentrancyGuard.sol\":2460:2523  require(_status != _ENTERED, \"ReentrancyGuard: reentrant call\") */\n      tag_130\n      jumpi\n      mload(0x40)\n      0x08c379a000000000000000000000000000000000000000000000000000000000\n      dup2\n      mstore\n      0x04\n      add\n      tag_131\n      swap1\n      tag_132\n      jump\t// in\n    tag_131:\n      mload(0x40)\n      dup1\n      swap2\n      sub\n      swap1\n      revert\n    tag_130:\n        /* \"@openzeppelin/contracts/security/ReentrancyGuard.sol\":1759:1760  2 */\n      0x02\n        /* \"@openzeppelin/contracts/security/ReentrancyGuard.sol\":2598:2605  _status */\n      0x01\n        /* \"@openzeppelin/contracts/security/ReentrancyGuard.sol\":2598:2616  _status = _ENTERED */\n      dup2\n      swap1\n      sstore\n      pop\n        /* \"@openzeppelin/contracts/security/ReentrancyGuard.sol\":2336:2623  function _nonReentrantBefore() private {... */\n      jump\t// out\n        /* \"@openzeppelin/contracts/security/ReentrancyGuard.sol\":2629:2838  function _nonReentrantAfter() private {... */\n    tag_104:\n        /* \"@openzeppelin/contracts/security/ReentrancyGuard.sol\":1716:1717  1 */\n      0x01\n        /* \"@openzeppelin/contracts/security/ReentrancyGuard.sol\":2809:2816  _status */\n      dup1\n        /* \"@openzeppelin/contracts/security/ReentrancyGuard.sol\":2809:2831  _status = _NOT_ENTERED */\n      dup2\n      swap1\n      sstore\n      pop\n        /* \"@openzeppelin/contracts/security/ReentrancyGuard.sol\":2629:2838  function _nonReentrantAfter() private {... */\n      jump\t// out\n        /* \"@openzeppelin/contracts/utils/Context.sol\":656:752  function _msgSender() internal view virtual returns (address) {... */\n    tag_123:\n        /* \"@openzeppelin/contracts/utils/Context.sol\":709:716  address */\n      0x00\n        /* \"@openzeppelin/contracts/utils/Context.sol\":735:745  msg.sender */\n      caller\n        /* \"@openzeppelin/contracts/utils/Context.sol\":728:745  return msg.sender */\n      swap1\n      pop\n        /* \"@openzeppelin/contracts/utils/Context.sol\":656:752  function _msgSender() internal view virtual returns (address) {... */\n      swap1\n      jump\t// out\n    tag_112:\n      mload(0x40)\n      dup1\n      0x80\n      add\n      0x40\n      mstore\n      dup1\n      0x00\n      dup2\n      mstore\n      0x20\n      add\n      0x00\n      dup2\n      mstore\n      0x20\n      add\n      0x00\n      dup2\n      mstore\n      0x20\n      add\n      0x00\n      dup2\n      mstore\n      pop\n      swap1\n      jump\t// out\n        /* \"#utility.yul\":88:205   */\n    tag_136:\n        /* \"#utility.yul\":197:198   */\n      0x00\n        /* \"#utility.yul\":194:195   */\n      0x00\n        /* \"#utility.yul\":187:199   */\n      revert\n        /* \"#utility.yul\":334:411   */\n    tag_138:\n        /* \"#utility.yul\":371:378   */\n      0x00\n        /* \"#utility.yul\":400:405   */\n      dup2\n        /* \"#utility.yul\":389:405   */\n      swap1\n      pop\n        /* \"#utility.yul\":334:411   */\n      swap2\n      swap1\n      pop\n      jump\t// out\n        /* \"#utility.yul\":417:539   */\n    tag_139:\n        /* \"#utility.yul\":490:514   */\n      tag_170\n        /* \"#utility.yul\":508:513   */\n      dup2\n        /* \"#utility.yul\":490:514   */\n      tag_138\n      jump\t// in\n    tag_170:\n        /* \"#utility.yul\":483:488   */\n      dup2\n        /* \"#utility.yul\":480:515   */\n      eq\n        /* \"#utility.yul\":470:533   */\n      tag_171\n      jumpi\n        /* \"#utility.yul\":529:530   */\n      0x00\n        /* \"#utility.yul\":526:527   */\n      0x00\n        /* \"#utility.yul\":519:531   */\n      revert\n        /* \"#utility.yul\":470:533   */\n    tag_171:\n        /* \"#utility.yul\":417:539   */\n      pop\n      jump\t// out\n        /* \"#utility.yul\":545:684   */\n    tag_140:\n        /* \"#utility.yul\":591:596   */\n      0x00\n        /* \"#utility.yul\":629:635   */\n      dup2\n        /* \"#utility.yul\":616:636   */\n      calldataload\n        /* \"#utility.yul\":607:636   */\n      swap1\n      pop\n        /* \"#utility.yul\":645:678   */\n      tag_173\n        /* \"#utility.yul\":672:677   */\n      dup2\n        /* \"#utility.yul\":645:678   */\n      tag_139\n      jump\t// in\n    tag_173:\n        /* \"#utility.yul\":545:684   */\n      swap3\n      swap2\n      pop\n      pop\n      jump\t// out\n        /* \"#utility.yul\":690:1164   */\n    tag_16:\n        /* \"#utility.yul\":758:764   */\n      0x00\n        /* \"#utility.yul\":766:772   */\n      0x00\n        /* \"#utility.yul\":815:817   */\n      0x40\n        /* \"#utility.yul\":803:812   */\n      dup4\n        /* \"#utility.yul\":794:801   */\n      dup6\n        /* \"#utility.yul\":790:813   */\n      sub\n        /* \"#utility.yul\":786:818   */\n      slt\n        /* \"#utility.yul\":783:902   */\n      iszero\n      tag_175\n      jumpi\n        /* \"#utility.yul\":821:900   */\n      tag_176\n      tag_136\n      jump\t// in\n    tag_176:\n        /* \"#utility.yul\":783:902   */\n    tag_175:\n        /* \"#utility.yul\":941:942   */\n      0x00\n        /* \"#utility.yul\":966:1019   */\n      tag_177\n        /* \"#utility.yul\":1011:1018   */\n      dup6\n        /* \"#utility.yul\":1002:1008   */\n      dup3\n        /* \"#utility.yul\":991:1000   */\n      dup7\n        /* \"#utility.yul\":987:1009   */\n      add\n        /* \"#utility.yul\":966:1019   */\n      tag_140\n      jump\t// in\n    tag_177:\n        /* \"#utility.yul\":956:1019   */\n      swap3\n      pop\n        /* \"#utility.yul\":912:1029   */\n      pop\n        /* \"#utility.yul\":1068:1070   */\n      0x20\n        /* \"#utility.yul\":1094:1147   */\n      tag_178\n        /* \"#utility.yul\":1139:1146   */\n      dup6\n        /* \"#utility.yul\":1130:1136   */\n      dup3\n        /* \"#utility.yul\":1119:1128   */\n      dup7\n        /* \"#utility.yul\":1115:1137   */\n      add\n        /* \"#utility.yul\":1094:1147   */\n      tag_140\n      jump\t// in\n    tag_178:\n        /* \"#utility.yul\":1084:1147   */\n      swap2\n      pop\n        /* \"#utility.yul\":1039:1157   */\n      pop\n        /* \"#utility.yul\":690:1164   */\n      swap3\n      pop\n      swap3\n      swap1\n      pop\n      jump\t// out\n        /* \"#utility.yul\":1170:1288   */\n    tag_141:\n        /* \"#utility.yul\":1257:1281   */\n      tag_180\n        /* \"#utility.yul\":1275:1280   */\n      dup2\n        /* \"#utility.yul\":1257:1281   */\n      tag_138\n      jump\t// in\n    tag_180:\n        /* \"#utility.yul\":1252:1255   */\n      dup3\n        /* \"#utility.yul\":1245:1282   */\n      mstore\n        /* \"#utility.yul\":1170:1288   */\n      pop\n      pop\n      jump\t// out\n        /* \"#utility.yul\":1294:1516   */\n    tag_21:\n        /* \"#utility.yul\":1387:1391   */\n      0x00\n        /* \"#utility.yul\":1425:1427   */\n      0x20\n        /* \"#utility.yul\":1414:1423   */\n      dup3\n        /* \"#utility.yul\":1410:1428   */\n      add\n        /* \"#utility.yul\":1402:1428   */\n      swap1\n      pop\n        /* \"#utility.yul\":1438:1509   */\n      tag_182\n        /* \"#utility.yul\":1506:1507   */\n      0x00\n        /* \"#utility.yul\":1495:1504   */\n      dup4\n        /* \"#utility.yul\":1491:1508   */\n      add\n        /* \"#utility.yul\":1482:1488   */\n      dup5\n        /* \"#utility.yul\":1438:1509   */\n      tag_141\n      jump\t// in\n    tag_182:\n        /* \"#utility.yul\":1294:1516   */\n      swap3\n      swap2\n      pop\n      pop\n      jump\t// out\n        /* \"#utility.yul\":1522:1648   */\n    tag_142:\n        /* \"#utility.yul\":1559:1566   */\n      0x00\n        /* \"#utility.yul\":1599:1641   */\n      0xffffffffffffffffffffffffffffffffffffffff\n        /* \"#utility.yul\":1592:1597   */\n      dup3\n        /* \"#utility.yul\":1588:1642   */\n      and\n        /* \"#utility.yul\":1577:1642   */\n      swap1\n      pop\n        /* \"#utility.yul\":1522:1648   */\n      swap2\n      swap1\n      pop\n      jump\t// out\n        /* \"#utility.yul\":1654:1750   */\n    tag_143:\n        /* \"#utility.yul\":1691:1698   */\n      0x00\n        /* \"#utility.yul\":1720:1744   */\n      tag_185\n        /* \"#utility.yul\":1738:1743   */\n      dup3\n        /* \"#utility.yul\":1720:1744   */\n      tag_142\n      jump\t// in\n    tag_185:\n        /* \"#utility.yul\":1709:1744   */\n      swap1\n      pop\n        /* \"#utility.yul\":1654:1750   */\n      swap2\n      swap1\n      pop\n      jump\t// out\n        /* \"#utility.yul\":1756:1874   */\n    tag_144:\n        /* \"#utility.yul\":1843:1867   */\n      tag_187\n        /* \"#utility.yul\":1861:1866   */\n      dup2\n        /* \"#utility.yul\":1843:1867   */\n      tag_143\n      jump\t// in\n    tag_187:\n        /* \"#utility.yul\":1838:1841   */\n      dup3\n        /* \"#utility.yul\":1831:1868   */\n      mstore\n        /* \"#utility.yul\":1756:1874   */\n      pop\n      pop\n      jump\t// out\n        /* \"#utility.yul\":1880:2102   */\n    tag_33:\n        /* \"#utility.yul\":1973:1977   */\n      0x00\n        /* \"#utility.yul\":2011:2013   */\n      0x20\n        /* \"#utility.yul\":2000:2009   */\n      dup3\n        /* \"#utility.yul\":1996:2014   */\n      add\n        /* \"#utility.yul\":1988:2014   */\n      swap1\n      pop\n        /* \"#utility.yul\":2024:2095   */\n      tag_189\n        /* \"#utility.yul\":2092:2093   */\n      0x00\n        /* \"#utility.yul\":2081:2090   */\n      dup4\n        /* \"#utility.yul\":2077:2094   */\n      add\n        /* \"#utility.yul\":2068:2074   */\n      dup5\n        /* \"#utility.yul\":2024:2095   */\n      tag_144\n      jump\t// in\n    tag_189:\n        /* \"#utility.yul\":1880:2102   */\n      swap3\n      swap2\n      pop\n      pop\n      jump\t// out\n        /* \"#utility.yul\":2108:2437   */\n    tag_36:\n        /* \"#utility.yul\":2167:2173   */\n      0x00\n        /* \"#utility.yul\":2216:2218   */\n      0x20\n        /* \"#utility.yul\":2204:2213   */\n      dup3\n        /* \"#utility.yul\":2195:2202   */\n      dup5\n        /* \"#utility.yul\":2191:2214   */\n      sub\n        /* \"#utility.yul\":2187:2219   */\n      slt\n        /* \"#utility.yul\":2184:2303   */\n      iszero\n      tag_191\n      jumpi\n        /* \"#utility.yul\":2222:2301   */\n      tag_192\n      tag_136\n      jump\t// in\n    tag_192:\n        /* \"#utility.yul\":2184:2303   */\n    tag_191:\n        /* \"#utility.yul\":2342:2343   */\n      0x00\n        /* \"#utility.yul\":2367:2420   */\n      tag_193\n        /* \"#utility.yul\":2412:2419   */\n      dup5\n        /* \"#utility.yul\":2403:2409   */\n      dup3\n        /* \"#utility.yul\":2392:2401   */\n      dup6\n        /* \"#utility.yul\":2388:2410   */\n      add\n        /* \"#utility.yul\":2367:2420   */\n      tag_140\n      jump\t// in\n    tag_193:\n        /* \"#utility.yul\":2357:2420   */\n      swap2\n      pop\n        /* \"#utility.yul\":2313:2430   */\n      pop\n        /* \"#utility.yul\":2108:2437   */\n      swap3\n      swap2\n      pop\n      pop\n      jump\t// out\n        /* \"#utility.yul\":2443:2996   */\n    tag_39:\n        /* \"#utility.yul\":2620:2624   */\n      0x00\n        /* \"#utility.yul\":2658:2661   */\n      0x80\n        /* \"#utility.yul\":2647:2656   */\n      dup3\n        /* \"#utility.yul\":2643:2662   */\n      add\n        /* \"#utility.yul\":2635:2662   */\n      swap1\n      pop\n        /* \"#utility.yul\":2672:2743   */\n      tag_195\n        /* \"#utility.yul\":2740:2741   */\n      0x00\n        /* \"#utility.yul\":2729:2738   */\n      dup4\n        /* \"#utility.yul\":2725:2742   */\n      add\n        /* \"#utility.yul\":2716:2722   */\n      dup8\n        /* \"#utility.yul\":2672:2743   */\n      tag_141\n      jump\t// in\n    tag_195:\n        /* \"#utility.yul\":2753:2825   */\n      tag_196\n        /* \"#utility.yul\":2821:2823   */\n      0x20\n        /* \"#utility.yul\":2810:2819   */\n      dup4\n        /* \"#utility.yul\":2806:2824   */\n      add\n        /* \"#utility.yul\":2797:2803   */\n      dup7\n        /* \"#utility.yul\":2753:2825   */\n      tag_141\n      jump\t// in\n    tag_196:\n        /* \"#utility.yul\":2835:2907   */\n      tag_197\n        /* \"#utility.yul\":2903:2905   */\n      0x40\n        /* \"#utility.yul\":2892:2901   */\n      dup4\n        /* \"#utility.yul\":2888:2906   */\n      add\n        /* \"#utility.yul\":2879:2885   */\n      dup6\n        /* \"#utility.yul\":2835:2907   */\n      tag_141\n      jump\t// in\n    tag_197:\n        /* \"#utility.yul\":2917:2989   */\n      tag_198\n        /* \"#utility.yul\":2985:2987   */\n      0x60\n        /* \"#utility.yul\":2974:2983   */\n      dup4\n        /* \"#utility.yul\":2970:2988   */\n      add\n        /* \"#utility.yul\":2961:2967   */\n      dup5\n        /* \"#utility.yul\":2917:2989   */\n      tag_141\n      jump\t// in\n    tag_198:\n        /* \"#utility.yul\":2443:2996   */\n      swap6\n      swap5\n      pop\n      pop\n      pop\n      pop\n      pop\n      jump\t// out\n        /* \"#utility.yul\":3002:3767   */\n    tag_42:\n        /* \"#utility.yul\":3088:3094   */\n      0x00\n        /* \"#utility.yul\":3096:3102   */\n      0x00\n        /* \"#utility.yul\":3104:3110   */\n      0x00\n        /* \"#utility.yul\":3112:3118   */\n      0x00\n        /* \"#utility.yul\":3161:3164   */\n      0x80\n        /* \"#utility.yul\":3149:3158   */\n      dup6\n        /* \"#utility.yul\":3140:3147   */\n      dup8\n        /* \"#utility.yul\":3136:3159   */\n      sub\n        /* \"#utility.yul\":3132:3165   */\n      slt\n        /* \"#utility.yul\":3129:3249   */\n      iszero\n      tag_200\n      jumpi\n        /* \"#utility.yul\":3168:3247   */\n      tag_201\n      tag_136\n      jump\t// in\n    tag_201:\n        /* \"#utility.yul\":3129:3249   */\n    tag_200:\n        /* \"#utility.yul\":3288:3289   */\n      0x00\n        /* \"#utility.yul\":3313:3366   */\n      tag_202\n        /* \"#utility.yul\":3358:3365   */\n      dup8\n        /* \"#utility.yul\":3349:3355   */\n      dup3\n        /* \"#utility.yul\":3338:3347   */\n      dup9\n        /* \"#utility.yul\":3334:3356   */\n      add\n        /* \"#utility.yul\":3313:3366   */\n      tag_140\n      jump\t// in\n    tag_202:\n        /* \"#utility.yul\":3303:3366   */\n      swap5\n      pop\n        /* \"#utility.yul\":3259:3376   */\n      pop\n        /* \"#utility.yul\":3415:3417   */\n      0x20\n        /* \"#utility.yul\":3441:3494   */\n      tag_203\n        /* \"#utility.yul\":3486:3493   */\n      dup8\n        /* \"#utility.yul\":3477:3483   */\n      dup3\n        /* \"#utility.yul\":3466:3475   */\n      dup9\n        /* \"#utility.yul\":3462:3484   */\n      add\n        /* \"#utility.yul\":3441:3494   */\n      tag_140\n      jump\t// in\n    tag_203:\n        /* \"#utility.yul\":3431:3494   */\n      swap4\n      pop\n        /* \"#utility.yul\":3386:3504   */\n      pop\n        /* \"#utility.yul\":3543:3545   */\n      0x40\n        /* \"#utility.yul\":3569:3622   */\n      tag_204\n        /* \"#utility.yul\":3614:3621   */\n      dup8\n        /* \"#utility.yul\":3605:3611   */\n      dup3\n        /* \"#utility.yul\":3594:3603   */\n      dup9\n        /* \"#utility.yul\":3590:3612   */\n      add\n        /* \"#utility.yul\":3569:3622   */\n      tag_140\n      jump\t// in\n    tag_204:\n        /* \"#utility.yul\":3559:3622   */\n      swap3\n      pop\n        /* \"#utility.yul\":3514:3632   */\n      pop\n        /* \"#utility.yul\":3671:3673   */\n      0x60\n        /* \"#utility.yul\":3697:3750   */\n      tag_205\n        /* \"#utility.yul\":3742:3749   */\n      dup8\n        /* \"#utility.yul\":3733:3739   */\n      dup3\n        /* \"#utility.yul\":3722:3731   */\n      dup9\n        /* \"#utility.yul\":3718:3740   */\n      add\n        /* \"#utility.yul\":3697:3750   */\n      tag_140\n      jump\t// in\n    tag_205:\n        /* \"#utility.yul\":3687:3750   */\n      swap2\n      pop\n        /* \"#utility.yul\":3642:3760   */\n      pop\n        /* \"#utility.yul\":3002:3767   */\n      swap3\n      swap6\n      swap2\n      swap5\n      pop\n      swap3\n      pop\n      jump\t// out\n        /* \"#utility.yul\":3773:3895   */\n    tag_145:\n        /* \"#utility.yul\":3846:3870   */\n      tag_207\n        /* \"#utility.yul\":3864:3869   */\n      dup2\n        /* \"#utility.yul\":3846:3870   */\n      tag_143\n      jump\t// in\n    tag_207:\n        /* \"#utility.yul\":3839:3844   */\n      dup2\n        /* \"#utility.yul\":3836:3871   */\n      eq\n        /* \"#utility.yul\":3826:3889   */\n      tag_208\n      jumpi\n        /* \"#utility.yul\":3885:3886   */\n      0x00\n        /* \"#utility.yul\":3882:3883   */\n      0x00\n        /* \"#utility.yul\":3875:3887   */\n      revert\n        /* \"#utility.yul\":3826:3889   */\n    tag_208:\n        /* \"#utility.yul\":3773:3895   */\n      pop\n      jump\t// out\n        /* \"#utility.yul\":3901:4040   */\n    tag_146:\n        /* \"#utility.yul\":3947:3952   */\n      0x00\n        /* \"#utility.yul\":3985:3991   */\n      dup2\n        /* \"#utility.yul\":3972:3992   */\n      calldataload\n        /* \"#utility.yul\":3963:3992   */\n      swap1\n      pop\n        /* \"#utility.yul\":4001:4034   */\n      tag_210\n        /* \"#utility.yul\":4028:4033   */\n      dup2\n        /* \"#utility.yul\":4001:4034   */\n      tag_145\n      jump\t// in\n    tag_210:\n        /* \"#utility.yul\":3901:4040   */\n      swap3\n      swap2\n      pop\n      pop\n      jump\t// out\n        /* \"#utility.yul\":4046:4375   */\n    tag_46:\n        /* \"#utility.yul\":4105:4111   */\n      0x00\n        /* \"#utility.yul\":4154:4156   */\n      0x20\n        /* \"#utility.yul\":4142:4151   */\n      dup3\n        /* \"#utility.yul\":4133:4140   */\n      dup5\n        /* \"#utility.yul\":4129:4152   */\n      sub\n        /* \"#utility.yul\":4125:4157   */\n      slt\n        /* \"#utility.yul\":4122:4241   */\n      iszero\n      tag_212\n      jumpi\n        /* \"#utility.yul\":4160:4239   */\n      tag_213\n      tag_136\n      jump\t// in\n    tag_213:\n        /* \"#utility.yul\":4122:4241   */\n    tag_212:\n        /* \"#utility.yul\":4280:4281   */\n      0x00\n        /* \"#utility.yul\":4305:4358   */\n      tag_214\n        /* \"#utility.yul\":4350:4357   */\n      dup5\n        /* \"#utility.yul\":4341:4347   */\n      dup3\n        /* \"#utility.yul\":4330:4339   */\n      dup6\n        /* \"#utility.yul\":4326:4348   */\n      add\n        /* \"#utility.yul\":4305:4358   */\n      tag_146\n      jump\t// in\n    tag_214:\n        /* \"#utility.yul\":4295:4358   */\n      swap2\n      pop\n        /* \"#utility.yul\":4251:4368   */\n      pop\n        /* \"#utility.yul\":4046:4375   */\n      swap3\n      swap2\n      pop\n      pop\n      jump\t// out\n        /* \"#utility.yul\":4381:4489   */\n    tag_147:\n        /* \"#utility.yul\":4458:4482   */\n      tag_216\n        /* \"#utility.yul\":4476:4481   */\n      dup2\n        /* \"#utility.yul\":4458:4482   */\n      tag_138\n      jump\t// in\n    tag_216:\n        /* \"#utility.yul\":4453:4456   */\n      dup3\n        /* \"#utility.yul\":4446:4483   */\n      mstore\n        /* \"#utility.yul\":4381:4489   */\n      pop\n      pop\n      jump\t// out\n        /* \"#utility.yul\":4587:5488   */\n    tag_148:\n        /* \"#utility.yul\":4740:4744   */\n      0x80\n        /* \"#utility.yul\":4735:4738   */\n      dup3\n        /* \"#utility.yul\":4731:4745   */\n      add\n        /* \"#utility.yul\":4842:4846   */\n      0x00\n        /* \"#utility.yul\":4835:4840   */\n      dup3\n        /* \"#utility.yul\":4831:4847   */\n      add\n        /* \"#utility.yul\":4825:4848   */\n      mload\n        /* \"#utility.yul\":4861:4924   */\n      tag_218\n        /* \"#utility.yul\":4918:4922   */\n      0x00\n        /* \"#utility.yul\":4913:4916   */\n      dup6\n        /* \"#utility.yul\":4909:4923   */\n      add\n        /* \"#utility.yul\":4895:4907   */\n      dup3\n        /* \"#utility.yul\":4861:4924   */\n      tag_147\n      jump\t// in\n    tag_218:\n        /* \"#utility.yul\":4755:4934   */\n      pop\n        /* \"#utility.yul\":5023:5027   */\n      0x20\n        /* \"#utility.yul\":5016:5021   */\n      dup3\n        /* \"#utility.yul\":5012:5028   */\n      add\n        /* \"#utility.yul\":5006:5029   */\n      mload\n        /* \"#utility.yul\":5042:5105   */\n      tag_219\n        /* \"#utility.yul\":5099:5103   */\n      0x20\n        /* \"#utility.yul\":5094:5097   */\n      dup6\n        /* \"#utility.yul\":5090:5104   */\n      add\n        /* \"#utility.yul\":5076:5088   */\n      dup3\n        /* \"#utility.yul\":5042:5105   */\n      tag_147\n      jump\t// in\n    tag_219:\n        /* \"#utility.yul\":4944:5115   */\n      pop\n        /* \"#utility.yul\":5210:5214   */\n      0x40\n        /* \"#utility.yul\":5203:5208   */\n      dup3\n        /* \"#utility.yul\":5199:5215   */\n      add\n        /* \"#utility.yul\":5193:5216   */\n      mload\n        /* \"#utility.yul\":5229:5292   */\n      tag_220\n        /* \"#utility.yul\":5286:5290   */\n      0x40\n        /* \"#utility.yul\":5281:5284   */\n      dup6\n        /* \"#utility.yul\":5277:5291   */\n      add\n        /* \"#utility.yul\":5263:5275   */\n      dup3\n        /* \"#utility.yul\":5229:5292   */\n      tag_147\n      jump\t// in\n    tag_220:\n        /* \"#utility.yul\":5125:5302   */\n      pop\n        /* \"#utility.yul\":5389:5393   */\n      0x60\n        /* \"#utility.yul\":5382:5387   */\n      dup3\n        /* \"#utility.yul\":5378:5394   */\n      add\n        /* \"#utility.yul\":5372:5395   */\n      mload\n        /* \"#utility.yul\":5408:5471   */\n      tag_221\n        /* \"#utility.yul\":5465:5469   */\n      0x60\n        /* \"#utility.yul\":5460:5463   */\n      dup6\n        /* \"#utility.yul\":5456:5470   */\n      add\n        /* \"#utility.yul\":5442:5454   */\n      dup3\n        /* \"#utility.yul\":5408:5471   */\n      tag_147\n      jump\t// in\n    tag_221:\n        /* \"#utility.yul\":5312:5481   */\n      pop\n        /* \"#utility.yul\":4709:5488   */\n      pop\n        /* \"#utility.yul\":4587:5488   */\n      pop\n      pop\n      jump\t// out\n        /* \"#utility.yul\":5494:5829   */\n    tag_52:\n        /* \"#utility.yul\":5643:5647   */\n      0x00\n        /* \"#utility.yul\":5681:5684   */\n      0x80\n        /* \"#utility.yul\":5670:5679   */\n      dup3\n        /* \"#utility.yul\":5666:5685   */\n      add\n        /* \"#utility.yul\":5658:5685   */\n      swap1\n      pop\n        /* \"#utility.yul\":5695:5822   */\n      tag_223\n        /* \"#utility.yul\":5819:5820   */\n      0x00\n        /* \"#utility.yul\":5808:5817   */\n      dup4\n        /* \"#utility.yul\":5804:5821   */\n      add\n        /* \"#utility.yul\":5795:5801   */\n      dup5\n        /* \"#utility.yul\":5695:5822   */\n      tag_148\n      jump\t// in\n    tag_223:\n        /* \"#utility.yul\":5494:5829   */\n      swap3\n      swap2\n      pop\n      pop\n      jump\t// out\n        /* \"#utility.yul\":5835:6004   */\n    tag_149:\n        /* \"#utility.yul\":5919:5930   */\n      0x00\n        /* \"#utility.yul\":5953:5959   */\n      dup3\n        /* \"#utility.yul\":5948:5951   */\n      dup3\n        /* \"#utility.yul\":5941:5960   */\n      mstore\n        /* \"#utility.yul\":5993:5997   */\n      0x20\n        /* \"#utility.yul\":5988:5991   */\n      dup3\n        /* \"#utility.yul\":5984:5998   */\n      add\n        /* \"#utility.yul\":5969:5998   */\n      swap1\n      pop\n        /* \"#utility.yul\":5835:6004   */\n      swap3\n      swap2\n      pop\n      pop\n      jump\t// out\n        /* \"#utility.yul\":6010:6230   */\n    tag_150:\n        /* \"#utility.yul\":6150:6184   */\n      0x5468726573686f6c6473206d7573742062652067726561746572207468616e20\n        /* \"#utility.yul\":6146:6147   */\n      0x00\n        /* \"#utility.yul\":6138:6144   */\n      dup3\n        /* \"#utility.yul\":6134:6148   */\n      add\n        /* \"#utility.yul\":6127:6185   */\n      mstore\n        /* \"#utility.yul\":6219:6222   */\n      0x3000000000000000000000000000000000000000000000000000000000000000\n        /* \"#utility.yul\":6214:6216   */\n      0x20\n        /* \"#utility.yul\":6206:6212   */\n      dup3\n        /* \"#utility.yul\":6202:6217   */\n      add\n        /* \"#utility.yul\":6195:6223   */\n      mstore\n        /* \"#utility.yul\":6010:6230   */\n      pop\n      jump\t// out\n        /* \"#utility.yul\":6236:6602   */\n    tag_151:\n        /* \"#utility.yul\":6378:6381   */\n      0x00\n        /* \"#utility.yul\":6399:6466   */\n      tag_227\n        /* \"#utility.yul\":6463:6465   */\n      0x21\n        /* \"#utility.yul\":6458:6461   */\n      dup4\n        /* \"#utility.yul\":6399:6466   */\n      tag_149\n      jump\t// in\n    tag_227:\n        /* \"#utility.yul\":6392:6466   */\n      swap2\n      pop\n        /* \"#utility.yul\":6475:6568   */\n      tag_228\n        /* \"#utility.yul\":6564:6567   */\n      dup3\n        /* \"#utility.yul\":6475:6568   */\n      tag_150\n      jump\t// in\n    tag_228:\n        /* \"#utility.yul\":6593:6595   */\n      0x40\n        /* \"#utility.yul\":6588:6591   */\n      dup3\n        /* \"#utility.yul\":6584:6596   */\n      add\n        /* \"#utility.yul\":6577:6596   */\n      swap1\n      pop\n        /* \"#utility.yul\":6236:6602   */\n      swap2\n      swap1\n      pop\n      jump\t// out\n        /* \"#utility.yul\":6608:7027   */\n    tag_60:\n        /* \"#utility.yul\":6774:6778   */\n      0x00\n        /* \"#utility.yul\":6812:6814   */\n      0x20\n        /* \"#utility.yul\":6801:6810   */\n      dup3\n        /* \"#utility.yul\":6797:6815   */\n      add\n        /* \"#utility.yul\":6789:6815   */\n      swap1\n      pop\n        /* \"#utility.yul\":6861:6870   */\n      dup2\n        /* \"#utility.yul\":6855:6859   */\n      dup2\n        /* \"#utility.yul\":6851:6871   */\n      sub\n        /* \"#utility.yul\":6847:6848   */\n      0x00\n        /* \"#utility.yul\":6836:6845   */\n      dup4\n        /* \"#utility.yul\":6832:6849   */\n      add\n        /* \"#utility.yul\":6825:6872   */\n      mstore\n        /* \"#utility.yul\":6889:7020   */\n      tag_230\n        /* \"#utility.yul\":7015:7019   */\n      dup2\n        /* \"#utility.yul\":6889:7020   */\n      tag_151\n      jump\t// in\n    tag_230:\n        /* \"#utility.yul\":6881:7020   */\n      swap1\n      pop\n        /* \"#utility.yul\":6608:7027   */\n      swap2\n      swap1\n      pop\n      jump\t// out\n        /* \"#utility.yul\":7033:7365   */\n    tag_62:\n        /* \"#utility.yul\":7154:7158   */\n      0x00\n        /* \"#utility.yul\":7192:7194   */\n      0x40\n        /* \"#utility.yul\":7181:7190   */\n      dup3\n        /* \"#utility.yul\":7177:7195   */\n      add\n        /* \"#utility.yul\":7169:7195   */\n      swap1\n      pop\n        /* \"#utility.yul\":7205:7276   */\n      tag_232\n        /* \"#utility.yul\":7273:7274   */\n      0x00\n        /* \"#utility.yul\":7262:7271   */\n      dup4\n        /* \"#utility.yul\":7258:7275   */\n      add\n        /* \"#utility.yul\":7249:7255   */\n      dup6\n        /* \"#utility.yul\":7205:7276   */\n      tag_141\n      jump\t// in\n    tag_232:\n        /* \"#utility.yul\":7286:7358   */\n      tag_233\n        /* \"#utility.yul\":7354:7356   */\n      0x20\n        /* \"#utility.yul\":7343:7352   */\n      dup4\n        /* \"#utility.yul\":7339:7357   */\n      add\n        /* \"#utility.yul\":7330:7336   */\n      dup5\n        /* \"#utility.yul\":7286:7358   */\n      tag_141\n      jump\t// in\n    tag_233:\n        /* \"#utility.yul\":7033:7365   */\n      swap4\n      swap3\n      pop\n      pop\n      pop\n      jump\t// out\n        /* \"#utility.yul\":7371:7603   */\n    tag_152:\n        /* \"#utility.yul\":7511:7545   */\n      0x50726963657320646f206e6f74207265666c65637420612076616c6964204465\n        /* \"#utility.yul\":7507:7508   */\n      0x00\n        /* \"#utility.yul\":7499:7505   */\n      dup3\n        /* \"#utility.yul\":7495:7509   */\n      add\n        /* \"#utility.yul\":7488:7546   */\n      mstore\n        /* \"#utility.yul\":7580:7595   */\n      0x61642043617420426f756e636500000000000000000000000000000000000000\n        /* \"#utility.yul\":7575:7577   */\n      0x20\n        /* \"#utility.yul\":7567:7573   */\n      dup3\n        /* \"#utility.yul\":7563:7578   */\n      add\n        /* \"#utility.yul\":7556:7596   */\n      mstore\n        /* \"#utility.yul\":7371:7603   */\n      pop\n      jump\t// out\n        /* \"#utility.yul\":7609:7975   */\n    tag_153:\n        /* \"#utility.yul\":7751:7754   */\n      0x00\n        /* \"#utility.yul\":7772:7839   */\n      tag_236\n        /* \"#utility.yul\":7836:7838   */\n      0x2d\n        /* \"#utility.yul\":7831:7834   */\n      dup4\n        /* \"#utility.yul\":7772:7839   */\n      tag_149\n      jump\t// in\n    tag_236:\n        /* \"#utility.yul\":7765:7839   */\n      swap2\n      pop\n        /* \"#utility.yul\":7848:7941   */\n      tag_237\n        /* \"#utility.yul\":7937:7940   */\n      dup3\n        /* \"#utility.yul\":7848:7941   */\n      tag_152\n      jump\t// in\n    tag_237:\n        /* \"#utility.yul\":7966:7968   */\n      0x40\n        /* \"#utility.yul\":7961:7964   */\n      dup3\n        /* \"#utility.yul\":7957:7969   */\n      add\n        /* \"#utility.yul\":7950:7969   */\n      swap1\n      pop\n        /* \"#utility.yul\":7609:7975   */\n      swap2\n      swap1\n      pop\n      jump\t// out\n        /* \"#utility.yul\":7981:8400   */\n    tag_83:\n        /* \"#utility.yul\":8147:8151   */\n      0x00\n        /* \"#utility.yul\":8185:8187   */\n      0x20\n        /* \"#utility.yul\":8174:8183   */\n      dup3\n        /* \"#utility.yul\":8170:8188   */\n      add\n        /* \"#utility.yul\":8162:8188   */\n      swap1\n      pop\n        /* \"#utility.yul\":8234:8243   */\n      dup2\n        /* \"#utility.yul\":8228:8232   */\n      dup2\n        /* \"#utility.yul\":8224:8244   */\n      sub\n        /* \"#utility.yul\":8220:8221   */\n      0x00\n        /* \"#utility.yul\":8209:8218   */\n      dup4\n        /* \"#utility.yul\":8205:8222   */\n      add\n        /* \"#utility.yul\":8198:8245   */\n      mstore\n        /* \"#utility.yul\":8262:8393   */\n      tag_239\n        /* \"#utility.yul\":8388:8392   */\n      dup2\n        /* \"#utility.yul\":8262:8393   */\n      tag_153\n      jump\t// in\n    tag_239:\n        /* \"#utility.yul\":8254:8393   */\n      swap1\n      pop\n        /* \"#utility.yul\":7981:8400   */\n      swap2\n      swap1\n      pop\n      jump\t// out\n        /* \"#utility.yul\":8406:8586   */\n    tag_154:\n        /* \"#utility.yul\":8454:8531   */\n      0x4e487b7100000000000000000000000000000000000000000000000000000000\n        /* \"#utility.yul\":8451:8452   */\n      0x00\n        /* \"#utility.yul\":8444:8532   */\n      mstore\n        /* \"#utility.yul\":8551:8555   */\n      0x11\n        /* \"#utility.yul\":8548:8549   */\n      0x04\n        /* \"#utility.yul\":8541:8556   */\n      mstore\n        /* \"#utility.yul\":8575:8579   */\n      0x24\n        /* \"#utility.yul\":8572:8573   */\n      0x00\n        /* \"#utility.yul\":8565:8580   */\n      revert\n        /* \"#utility.yul\":8592:8786   */\n    tag_85:\n        /* \"#utility.yul\":8632:8636   */\n      0x00\n        /* \"#utility.yul\":8652:8672   */\n      tag_242\n        /* \"#utility.yul\":8670:8671   */\n      dup3\n        /* \"#utility.yul\":8652:8672   */\n      tag_138\n      jump\t// in\n    tag_242:\n        /* \"#utility.yul\":8647:8672   */\n      swap2\n      pop\n        /* \"#utility.yul\":8686:8706   */\n      tag_243\n        /* \"#utility.yul\":8704:8705   */\n      dup4\n        /* \"#utility.yul\":8686:8706   */\n      tag_138\n      jump\t// in\n    tag_243:\n        /* \"#utility.yul\":8681:8706   */\n      swap3\n      pop\n        /* \"#utility.yul\":8730:8731   */\n      dup3\n        /* \"#utility.yul\":8727:8728   */\n      dup3\n        /* \"#utility.yul\":8723:8732   */\n      sub\n        /* \"#utility.yul\":8715:8732   */\n      swap1\n      pop\n        /* \"#utility.yul\":8754:8755   */\n      dup2\n        /* \"#utility.yul\":8748:8752   */\n      dup2\n        /* \"#utility.yul\":8745:8756   */\n      gt\n        /* \"#utility.yul\":8742:8779   */\n      iszero\n      tag_244\n      jumpi\n        /* \"#utility.yul\":8759:8777   */\n      tag_245\n      tag_154\n      jump\t// in\n    tag_245:\n        /* \"#utility.yul\":8742:8779   */\n    tag_244:\n        /* \"#utility.yul\":8592:8786   */\n      swap3\n      swap2\n      pop\n      pop\n      jump\t// out\n        /* \"#utility.yul\":8792:9202   */\n    tag_87:\n        /* \"#utility.yul\":8832:8839   */\n      0x00\n        /* \"#utility.yul\":8855:8875   */\n      tag_247\n        /* \"#utility.yul\":8873:8874   */\n      dup3\n        /* \"#utility.yul\":8855:8875   */\n      tag_138\n      jump\t// in\n    tag_247:\n        /* \"#utility.yul\":8850:8875   */\n      swap2\n      pop\n        /* \"#utility.yul\":8889:8909   */\n      tag_248\n        /* \"#utility.yul\":8907:8908   */\n      dup4\n        /* \"#utility.yul\":8889:8909   */\n      tag_138\n      jump\t// in\n    tag_248:\n        /* \"#utility.yul\":8884:8909   */\n      swap3\n      pop\n        /* \"#utility.yul\":8944:8945   */\n      dup3\n        /* \"#utility.yul\":8941:8942   */\n      dup3\n        /* \"#utility.yul\":8937:8946   */\n      mul\n        /* \"#utility.yul\":8966:8996   */\n      tag_249\n        /* \"#utility.yul\":8984:8995   */\n      dup2\n        /* \"#utility.yul\":8966:8996   */\n      tag_138\n      jump\t// in\n    tag_249:\n        /* \"#utility.yul\":8955:8996   */\n      swap2\n      pop\n        /* \"#utility.yul\":9145:9146   */\n      dup3\n        /* \"#utility.yul\":9136:9143   */\n      dup3\n        /* \"#utility.yul\":9132:9147   */\n      div\n        /* \"#utility.yul\":9129:9130   */\n      dup5\n        /* \"#utility.yul\":9126:9148   */\n      eq\n        /* \"#utility.yul\":9106:9107   */\n      dup4\n        /* \"#utility.yul\":9099:9108   */\n      iszero\n        /* \"#utility.yul\":9079:9162   */\n      or\n        /* \"#utility.yul\":9056:9195   */\n      tag_250\n      jumpi\n        /* \"#utility.yul\":9175:9193   */\n      tag_251\n      tag_154\n      jump\t// in\n    tag_251:\n        /* \"#utility.yul\":9056:9195   */\n    tag_250:\n        /* \"#utility.yul\":8840:9202   */\n      pop\n        /* \"#utility.yul\":8792:9202   */\n      swap3\n      swap2\n      pop\n      pop\n      jump\t// out\n        /* \"#utility.yul\":9208:9388   */\n    tag_155:\n        /* \"#utility.yul\":9256:9333   */\n      0x4e487b7100000000000000000000000000000000000000000000000000000000\n        /* \"#utility.yul\":9253:9254   */\n      0x00\n        /* \"#utility.yul\":9246:9334   */\n      mstore\n        /* \"#utility.yul\":9353:9357   */\n      0x12\n        /* \"#utility.yul\":9350:9351   */\n      0x04\n        /* \"#utility.yul\":9343:9358   */\n      mstore\n        /* \"#utility.yul\":9377:9381   */\n      0x24\n        /* \"#utility.yul\":9374:9375   */\n      0x00\n        /* \"#utility.yul\":9367:9382   */\n      revert\n        /* \"#utility.yul\":9394:9579   */\n    tag_89:\n        /* \"#utility.yul\":9434:9435   */\n      0x00\n        /* \"#utility.yul\":9451:9471   */\n      tag_254\n        /* \"#utility.yul\":9469:9470   */\n      dup3\n        /* \"#utility.yul\":9451:9471   */\n      tag_138\n      jump\t// in\n    tag_254:\n        /* \"#utility.yul\":9446:9471   */\n      swap2\n      pop\n        /* \"#utility.yul\":9485:9505   */\n      tag_255\n        /* \"#utility.yul\":9503:9504   */\n      dup4\n        /* \"#utility.yul\":9485:9505   */\n      tag_138\n      jump\t// in\n    tag_255:\n        /* \"#utility.yul\":9480:9505   */\n      swap3\n      pop\n        /* \"#utility.yul\":9524:9525   */\n      dup3\n        /* \"#utility.yul\":9514:9549   */\n      tag_256\n      jumpi\n        /* \"#utility.yul\":9529:9547   */\n      tag_257\n      tag_155\n      jump\t// in\n    tag_257:\n        /* \"#utility.yul\":9514:9549   */\n    tag_256:\n        /* \"#utility.yul\":9571:9572   */\n      dup3\n        /* \"#utility.yul\":9568:9569   */\n      dup3\n        /* \"#utility.yul\":9564:9573   */\n      div\n        /* \"#utility.yul\":9559:9573   */\n      swap1\n      pop\n        /* \"#utility.yul\":9394:9579   */\n      swap3\n      swap2\n      pop\n      pop\n      jump\t// out\n        /* \"#utility.yul\":9585:9765   */\n    tag_156:\n        /* \"#utility.yul\":9725:9757   */\n      0x496e697469616c206465636c696e65206e6f742073756666696369656e740000\n        /* \"#utility.yul\":9721:9722   */\n      0x00\n        /* \"#utility.yul\":9713:9719   */\n      dup3\n        /* \"#utility.yul\":9709:9723   */\n      add\n        /* \"#utility.yul\":9702:9758   */\n      mstore\n        /* \"#utility.yul\":9585:9765   */\n      pop\n      jump\t// out\n        /* \"#utility.yul\":9771:10137   */\n    tag_157:\n        /* \"#utility.yul\":9913:9916   */\n      0x00\n        /* \"#utility.yul\":9934:10001   */\n      tag_260\n        /* \"#utility.yul\":9998:10000   */\n      0x1e\n        /* \"#utility.yul\":9993:9996   */\n      dup4\n        /* \"#utility.yul\":9934:10001   */\n      tag_149\n      jump\t// in\n    tag_260:\n        /* \"#utility.yul\":9927:10001   */\n      swap2\n      pop\n        /* \"#utility.yul\":10010:10103   */\n      tag_261\n        /* \"#utility.yul\":10099:10102   */\n      dup3\n        /* \"#utility.yul\":10010:10103   */\n      tag_156\n      jump\t// in\n    tag_261:\n        /* \"#utility.yul\":10128:10130   */\n      0x20\n        /* \"#utility.yul\":10123:10126   */\n      dup3\n        /* \"#utility.yul\":10119:10131   */\n      add\n        /* \"#utility.yul\":10112:10131   */\n      swap1\n      pop\n        /* \"#utility.yul\":9771:10137   */\n      swap2\n      swap1\n      pop\n      jump\t// out\n        /* \"#utility.yul\":10143:10562   */\n    tag_95:\n        /* \"#utility.yul\":10309:10313   */\n      0x00\n        /* \"#utility.yul\":10347:10349   */\n      0x20\n        /* \"#utility.yul\":10336:10345   */\n      dup3\n        /* \"#utility.yul\":10332:10350   */\n      add\n        /* \"#utility.yul\":10324:10350   */\n      swap1\n      pop\n        /* \"#utility.yul\":10396:10405   */\n      dup2\n        /* \"#utility.yul\":10390:10394   */\n      dup2\n        /* \"#utility.yul\":10386:10406   */\n      sub\n        /* \"#utility.yul\":10382:10383   */\n      0x00\n        /* \"#utility.yul\":10371:10380   */\n      dup4\n        /* \"#utility.yul\":10367:10384   */\n      add\n        /* \"#utility.yul\":10360:10407   */\n      mstore\n        /* \"#utility.yul\":10424:10555   */\n      tag_263\n        /* \"#utility.yul\":10550:10554   */\n      dup2\n        /* \"#utility.yul\":10424:10555   */\n      tag_157\n      jump\t// in\n    tag_263:\n        /* \"#utility.yul\":10416:10555   */\n      swap1\n      pop\n        /* \"#utility.yul\":10143:10562   */\n      swap2\n      swap1\n      pop\n      jump\t// out\n        /* \"#utility.yul\":10568:10739   */\n    tag_158:\n        /* \"#utility.yul\":10708:10731   */\n      0x426f756e6365206e6f742073756666696369656e740000000000000000000000\n        /* \"#utility.yul\":10704:10705   */\n      0x00\n        /* \"#utility.yul\":10696:10702   */\n      dup3\n        /* \"#utility.yul\":10692:10706   */\n      add\n        /* \"#utility.yul\":10685:10732   */\n      mstore\n        /* \"#utility.yul\":10568:10739   */\n      pop\n      jump\t// out\n        /* \"#utility.yul\":10745:11111   */\n    tag_159:\n        /* \"#utility.yul\":10887:10890   */\n      0x00\n        /* \"#utility.yul\":10908:10975   */\n      tag_266\n        /* \"#utility.yul\":10972:10974   */\n      0x15\n        /* \"#utility.yul\":10967:10970   */\n      dup4\n        /* \"#utility.yul\":10908:10975   */\n      tag_149\n      jump\t// in\n    tag_266:\n        /* \"#utility.yul\":10901:10975   */\n      swap2\n      pop\n        /* \"#utility.yul\":10984:11077   */\n      tag_267\n        /* \"#utility.yul\":11073:11076   */\n      dup3\n        /* \"#utility.yul\":10984:11077   */\n      tag_158\n      jump\t// in\n    tag_267:\n        /* \"#utility.yul\":11102:11104   */\n      0x20\n        /* \"#utility.yul\":11097:11100   */\n      dup3\n        /* \"#utility.yul\":11093:11105   */\n      add\n        /* \"#utility.yul\":11086:11105   */\n      swap1\n      pop\n        /* \"#utility.yul\":10745:11111   */\n      swap2\n      swap1\n      pop\n      jump\t// out\n        /* \"#utility.yul\":11117:11536   */\n    tag_98:\n        /* \"#utility.yul\":11283:11287   */\n      0x00\n        /* \"#utility.yul\":11321:11323   */\n      0x20\n        /* \"#utility.yul\":11310:11319   */\n      dup3\n        /* \"#utility.yul\":11306:11324   */\n      add\n        /* \"#utility.yul\":11298:11324   */\n      swap1\n      pop\n        /* \"#utility.yul\":11370:11379   */\n      dup2\n        /* \"#utility.yul\":11364:11368   */\n      dup2\n        /* \"#utility.yul\":11360:11380   */\n      sub\n        /* \"#utility.yul\":11356:11357   */\n      0x00\n        /* \"#utility.yul\":11345:11354   */\n      dup4\n        /* \"#utility.yul\":11341:11358   */\n      add\n        /* \"#utility.yul\":11334:11381   */\n      mstore\n        /* \"#utility.yul\":11398:11529   */\n      tag_269\n        /* \"#utility.yul\":11524:11528   */\n      dup2\n        /* \"#utility.yul\":11398:11529   */\n      tag_159\n      jump\t// in\n    tag_269:\n        /* \"#utility.yul\":11390:11529   */\n      swap1\n      pop\n        /* \"#utility.yul\":11117:11536   */\n      swap2\n      swap1\n      pop\n      jump\t// out\n        /* \"#utility.yul\":11542:11984   */\n    tag_102:\n        /* \"#utility.yul\":11691:11695   */\n      0x00\n        /* \"#utility.yul\":11729:11731   */\n      0x60\n        /* \"#utility.yul\":11718:11727   */\n      dup3\n        /* \"#utility.yul\":11714:11732   */\n      add\n        /* \"#utility.yul\":11706:11732   */\n      swap1\n      pop\n        /* \"#utility.yul\":11742:11813   */\n      tag_271\n        /* \"#utility.yul\":11810:11811   */\n      0x00\n        /* \"#utility.yul\":11799:11808   */\n      dup4\n        /* \"#utility.yul\":11795:11812   */\n      add\n        /* \"#utility.yul\":11786:11792   */\n      dup7\n        /* \"#utility.yul\":11742:11813   */\n      tag_141\n      jump\t// in\n    tag_271:\n        /* \"#utility.yul\":11823:11895   */\n      tag_272\n        /* \"#utility.yul\":11891:11893   */\n      0x20\n        /* \"#utility.yul\":11880:11889   */\n      dup4\n        /* \"#utility.yul\":11876:11894   */\n      add\n        /* \"#utility.yul\":11867:11873   */\n      dup6\n        /* \"#utility.yul\":11823:11895   */\n      tag_141\n      jump\t// in\n    tag_272:\n        /* \"#utility.yul\":11905:11977   */\n      tag_273\n        /* \"#utility.yul\":11973:11975   */\n      0x40\n        /* \"#utility.yul\":11962:11971   */\n      dup4\n        /* \"#utility.yul\":11958:11976   */\n      add\n        /* \"#utility.yul\":11949:11955   */\n      dup5\n        /* \"#utility.yul\":11905:11977   */\n      tag_141\n      jump\t// in\n    tag_273:\n        /* \"#utility.yul\":11542:11984   */\n      swap5\n      swap4\n      pop\n      pop\n      pop\n      pop\n      jump\t// out\n        /* \"#utility.yul\":11990:12164   */\n    tag_160:\n        /* \"#utility.yul\":12130:12156   */\n      0x4576656e7420696e646578206f7574206f662072616e67650000000000000000\n        /* \"#utility.yul\":12126:12127   */\n      0x00\n        /* \"#utility.yul\":12118:12124   */\n      dup3\n        /* \"#utility.yul\":12114:12128   */\n      add\n        /* \"#utility.yul\":12107:12157   */\n      mstore\n        /* \"#utility.yul\":11990:12164   */\n      pop\n      jump\t// out\n        /* \"#utility.yul\":12170:12536   */\n    tag_161:\n        /* \"#utility.yul\":12312:12315   */\n      0x00\n        /* \"#utility.yul\":12333:12400   */\n      tag_276\n        /* \"#utility.yul\":12397:12399   */\n      0x18\n        /* \"#utility.yul\":12392:12395   */\n      dup4\n        /* \"#utility.yul\":12333:12400   */\n      tag_149\n      jump\t// in\n    tag_276:\n        /* \"#utility.yul\":12326:12400   */\n      swap2\n      pop\n        /* \"#utility.yul\":12409:12502   */\n      tag_277\n        /* \"#utility.yul\":12498:12501   */\n      dup3\n        /* \"#utility.yul\":12409:12502   */\n      tag_160\n      jump\t// in\n    tag_277:\n        /* \"#utility.yul\":12527:12529   */\n      0x20\n        /* \"#utility.yul\":12522:12525   */\n      dup3\n        /* \"#utility.yul\":12518:12530   */\n      add\n        /* \"#utility.yul\":12511:12530   */\n      swap1\n      pop\n        /* \"#utility.yul\":12170:12536   */\n      swap2\n      swap1\n      pop\n      jump\t// out\n        /* \"#utility.yul\":12542:12961   */\n    tag_116:\n        /* \"#utility.yul\":12708:12712   */\n      0x00\n        /* \"#utility.yul\":12746:12748   */\n      0x20\n        /* \"#utility.yul\":12735:12744   */\n      dup3\n        /* \"#utility.yul\":12731:12749   */\n      add\n        /* \"#utility.yul\":12723:12749   */\n      swap1\n      pop\n        /* \"#utility.yul\":12795:12804   */\n      dup2\n        /* \"#utility.yul\":12789:12793   */\n      dup2\n        /* \"#utility.yul\":12785:12805   */\n      sub\n        /* \"#utility.yul\":12781:12782   */\n      0x00\n        /* \"#utility.yul\":12770:12779   */\n      dup4\n        /* \"#utility.yul\":12766:12783   */\n      add\n        /* \"#utility.yul\":12759:12806   */\n      mstore\n        /* \"#utility.yul\":12823:12954   */\n      tag_279\n        /* \"#utility.yul\":12949:12953   */\n      dup2\n        /* \"#utility.yul\":12823:12954   */\n      tag_161\n      jump\t// in\n    tag_279:\n        /* \"#utility.yul\":12815:12954   */\n      swap1\n      pop\n        /* \"#utility.yul\":12542:12961   */\n      swap2\n      swap1\n      pop\n      jump\t// out\n        /* \"#utility.yul\":12967:13147   */\n    tag_119:\n        /* \"#utility.yul\":13015:13092   */\n      0x4e487b7100000000000000000000000000000000000000000000000000000000\n        /* \"#utility.yul\":13012:13013   */\n      0x00\n        /* \"#utility.yul\":13005:13093   */\n      mstore\n        /* \"#utility.yul\":13112:13116   */\n      0x32\n        /* \"#utility.yul\":13109:13110   */\n      0x04\n        /* \"#utility.yul\":13102:13117   */\n      mstore\n        /* \"#utility.yul\":13136:13140   */\n      0x24\n        /* \"#utility.yul\":13133:13134   */\n      0x00\n        /* \"#utility.yul\":13126:13141   */\n      revert\n        /* \"#utility.yul\":13153:13334   */\n    tag_162:\n        /* \"#utility.yul\":13293:13326   */\n      0x5265656e7472616e637947756172643a207265656e7472616e742063616c6c00\n        /* \"#utility.yul\":13289:13290   */\n      0x00\n        /* \"#utility.yul\":13281:13287   */\n      dup3\n        /* \"#utility.yul\":13277:13291   */\n      add\n        /* \"#utility.yul\":13270:13327   */\n      mstore\n        /* \"#utility.yul\":13153:13334   */\n      pop\n      jump\t// out\n        /* \"#utility.yul\":13340:13706   */\n    tag_163:\n        /* \"#utility.yul\":13482:13485   */\n      0x00\n        /* \"#utility.yul\":13503:13570   */\n      tag_283\n        /* \"#utility.yul\":13567:13569   */\n      0x1f\n        /* \"#utility.yul\":13562:13565   */\n      dup4\n        /* \"#utility.yul\":13503:13570   */\n      tag_149\n      jump\t// in\n    tag_283:\n        /* \"#utility.yul\":13496:13570   */\n      swap2\n      pop\n        /* \"#utility.yul\":13579:13672   */\n      tag_284\n        /* \"#utility.yul\":13668:13671   */\n      dup3\n        /* \"#utility.yul\":13579:13672   */\n      tag_162\n      jump\t// in\n    tag_284:\n        /* \"#utility.yul\":13697:13699   */\n      0x20\n        /* \"#utility.yul\":13692:13695   */\n      dup3\n        /* \"#utility.yul\":13688:13700   */\n      add\n        /* \"#utility.yul\":13681:13700   */\n      swap1\n      pop\n        /* \"#utility.yul\":13340:13706   */\n      swap2\n      swap1\n      pop\n      jump\t// out\n        /* \"#utility.yul\":13712:14131   */\n    tag_132:\n        /* \"#utility.yul\":13878:13882   */\n      0x00\n        /* \"#utility.yul\":13916:13918   */\n      0x20\n        /* \"#utility.yul\":13905:13914   */\n      dup3\n        /* \"#utility.yul\":13901:13919   */\n      add\n        /* \"#utility.yul\":13893:13919   */\n      swap1\n      pop\n        /* \"#utility.yul\":13965:13974   */\n      dup2\n        /* \"#utility.yul\":13959:13963   */\n      dup2\n        /* \"#utility.yul\":13955:13975   */\n      sub\n        /* \"#utility.yul\":13951:13952   */\n      0x00\n        /* \"#utility.yul\":13940:13949   */\n      dup4\n        /* \"#utility.yul\":13936:13953   */\n      add\n        /* \"#utility.yul\":13929:13976   */\n      mstore\n        /* \"#utility.yul\":13993:14124   */\n      tag_286\n        /* \"#utility.yul\":14119:14123   */\n      dup2\n        /* \"#utility.yul\":13993:14124   */\n      tag_163\n      jump\t// in\n    tag_286:\n        /* \"#utility.yul\":13985:14124   */\n      swap1\n      pop\n        /* \"#utility.yul\":13712:14131   */\n      swap2\n      swap1\n      pop\n      jump\t// out\n\n    auxdata: 0xa2646970667358221220df25c251700566737f5e3e2b673f0d89ddcc75abeb64e8e0c84165d96f5b77c464736f6c634300081d0033\n}\n",
				"bytecode": {
					"linkReferences": {},
					"object": "608060405234801561000f575f5ffd5b5060405161130638038061130683398181016040528101906100319190610250565b335f73ffffffffffffffffffffffffffffffffffffffff168173ffffffffffffffffffffffffffffffffffffffff16036100a2575f6040517f1e4fbdf700000000000000000000000000000000000000000000000000000000815260040161009991906102cd565b60405180910390fd5b6100b18161015860201b60201c565b50600180819055505f821180156100c757505f81115b610106576040517f08c379a00000000000000000000000000000000000000000000000000000000081526004016100fd90610366565b60405180910390fd5b81600281905550806003819055507ffaccb0639ff7851e0e24f3b2d9ab03cd62ffb63f5b4d90aaeff85bb078c1fa48600254600354604051610149929190610393565b60405180910390a150506103ba565b5f5f5f9054906101000a900473ffffffffffffffffffffffffffffffffffffffff169050815f5f6101000a81548173ffffffffffffffffffffffffffffffffffffffff021916908373ffffffffffffffffffffffffffffffffffffffff1602179055508173ffffffffffffffffffffffffffffffffffffffff168173ffffffffffffffffffffffffffffffffffffffff167f8be0079c531659141344cd1fd0a4f28419497f9722a3daafe3b4186f6b6457e060405160405180910390a35050565b5f5ffd5b5f819050919050565b61022f8161021d565b8114610239575f5ffd5b50565b5f8151905061024a81610226565b92915050565b5f5f6040838503121561026657610265610219565b5b5f6102738582860161023c565b92505060206102848582860161023c565b9150509250929050565b5f73ffffffffffffffffffffffffffffffffffffffff82169050919050565b5f6102b78261028e565b9050919050565b6102c7816102ad565b82525050565b5f6020820190506102e05f8301846102be565b92915050565b5f82825260208201905092915050565b7f5468726573686f6c6473206d7573742062652067726561746572207468616e205f8201527f3000000000000000000000000000000000000000000000000000000000000000602082015250565b5f6103506021836102e6565b915061035b826102f6565b604082019050919050565b5f6020820190508181035f83015261037d81610344565b9050919050565b61038d8161021d565b82525050565b5f6040820190506103a65f830185610384565b6103b36020830184610384565b9392505050565b610f3f806103c75f395ff3fe608060405234801561000f575f5ffd5b506004361061009c575f3560e01c80638da5cb5b116100645780638da5cb5b1461012057806398043a491461013e578063d9b24ced14610171578063f2fde38b1461018d578063f8442ca3146101a95761009c565b806316128211146100a05780632b0f350f146100bc57806355c11333146100da578063715018a6146100f85780637ad33fce14610102575b5f5ffd5b6100ba60048036038101906100b59190610856565b6101d9565b005b6100c461027d565b6040516100d191906108a3565b60405180910390f35b6100e2610283565b6040516100ef91906108a3565b60405180910390f35b61010061028f565b005b61010a6102a2565b60405161011791906108a3565b60405180910390f35b6101286102a8565b60405161013591906108fb565b60405180910390f35b61015860048036038101906101539190610914565b6102cf565b604051610168949392919061093f565b60405180910390f35b61018b60048036038101906101869190610982565b61030a565b005b6101a760048036038101906101a29190610a10565b610528565b005b6101c360048036038101906101be9190610914565b6105ac565b6040516101d09190610a9d565b60405180910390f35b6101e1610654565b5f821180156101ef57505f81115b61022e576040517f08c379a000000000000000000000000000000000000000000000000000000000815260040161022590610b36565b60405180910390fd5b81600281905550806003819055507ffaccb0639ff7851e0e24f3b2d9ab03cd62ffb63f5b4d90aaeff85bb078c1fa48600254600354604051610271929190610b54565b60405180910390a15050565b60025481565b5f600480549050905090565b610297610654565b6102a05f6106db565b565b60035481565b5f5f5f9054906101000a900473ffffffffffffffffffffffffffffffffffffffff16905090565b600481815481106102de575f80fd5b905f5260205f2090600402015f91509050805f0154908060010154908060020154908060030154905084565b610312610654565b61031a61079c565b828411801561032857508282115b801561033357508382105b801561033e57508181105b61037d576040517f08c379a000000000000000000000000000000000000000000000000000000000815260040161037490610beb565b60405180910390fd5b5f84612710858761038e9190610c36565b6103989190610c69565b6103a29190610cd7565b90505f8561271086866103b59190610c36565b6103bf9190610c69565b6103c99190610cd7565b9050600254821015610410576040517f08c379a000000000000000000000000000000000000000000000000000000000815260040161040790610d51565b60405180910390fd5b600354811015610455576040517f08c379a000000000000000000000000000000000000000000000000000000000815260040161044c90610db9565b60405180910390fd5b5f6040518060800160405280888152602001868152602001858152602001428152509050600481908060018154018082558091505060019003905f5260205f2090600402015f909190919091505f820151815f0155602082015181600101556040820151816002015560608201518160030155505060016004805490506104dc9190610c36565b7f63b8d7ae2e518078419d93133526c4cc7568f905f81deb1c249ca02d86f62e9c88878760405161050f93929190610dd7565b60405180910390a25050506105226107eb565b50505050565b610530610654565b5f73ffffffffffffffffffffffffffffffffffffffff168173ffffffffffffffffffffffffffffffffffffffff16036105a0575f6040517f1e4fbdf700000000000000000000000000000000000000000000000000000000815260040161059791906108fb565b60405180910390fd5b6105a9816106db565b50565b6105b46107fb565b60048054905082106105fb576040517f08c379a00000000000000000000000000000000000000000000000000000000081526004016105f290610e56565b60405180910390fd5b6004828154811061060f5761060e610e74565b5b905f5260205f2090600402016040518060800160405290815f820154815260200160018201548152602001600282015481526020016003820154815250509050919050565b61065c6107f4565b73ffffffffffffffffffffffffffffffffffffffff1661067a6102a8565b73ffffffffffffffffffffffffffffffffffffffff16146106d95761069d6107f4565b6040517f118cdaa70000000000000000000000000000000000000000000000000000000081526004016106d091906108fb565b60405180910390fd5b565b5f5f5f9054906101000a900473ffffffffffffffffffffffffffffffffffffffff169050815f5f6101000a81548173ffffffffffffffffffffffffffffffffffffffff021916908373ffffffffffffffffffffffffffffffffffffffff1602179055508173ffffffffffffffffffffffffffffffffffffffff168173ffffffffffffffffffffffffffffffffffffffff167f8be0079c531659141344cd1fd0a4f28419497f9722a3daafe3b4186f6b6457e060405160405180910390a35050565b6002600154036107e1576040517f08c379a00000000000000000000000000000000000000000000000000000000081526004016107d890610eeb565b60405180910390fd5b6002600181905550565b60018081905550565b5f33905090565b60405180608001604052805f81526020015f81526020015f81526020015f81525090565b5f5ffd5b5f819050919050565b61083581610823565b811461083f575f5ffd5b50565b5f813590506108508161082c565b92915050565b5f5f6040838503121561086c5761086b61081f565b5b5f61087985828601610842565b925050602061088a85828601610842565b9150509250929050565b61089d81610823565b82525050565b5f6020820190506108b65f830184610894565b92915050565b5f73ffffffffffffffffffffffffffffffffffffffff82169050919050565b5f6108e5826108bc565b9050919050565b6108f5816108db565b82525050565b5f60208201905061090e5f8301846108ec565b92915050565b5f602082840312156109295761092861081f565b5b5f61093684828501610842565b91505092915050565b5f6080820190506109525f830187610894565b61095f6020830186610894565b61096c6040830185610894565b6109796060830184610894565b95945050505050565b5f5f5f5f6080858703121561099a5761099961081f565b5b5f6109a787828801610842565b94505060206109b887828801610842565b93505060406109c987828801610842565b92505060606109da87828801610842565b91505092959194509250565b6109ef816108db565b81146109f9575f5ffd5b50565b5f81359050610a0a816109e6565b92915050565b5f60208284031215610a2557610a2461081f565b5b5f610a32848285016109fc565b91505092915050565b610a4481610823565b82525050565b608082015f820151610a5e5f850182610a3b565b506020820151610a716020850182610a3b565b506040820151610a846040850182610a3b565b506060820151610a976060850182610a3b565b50505050565b5f608082019050610ab05f830184610a4a565b92915050565b5f82825260208201905092915050565b7f5468726573686f6c6473206d7573742062652067726561746572207468616e205f8201527f3000000000000000000000000000000000000000000000000000000000000000602082015250565b5f610b20602183610ab6565b9150610b2b82610ac6565b604082019050919050565b5f6020820190508181035f830152610b4d81610b14565b9050919050565b5f604082019050610b675f830185610894565b610b746020830184610894565b9392505050565b7f50726963657320646f206e6f74207265666c65637420612076616c69642044655f8201527f61642043617420426f756e636500000000000000000000000000000000000000602082015250565b5f610bd5602d83610ab6565b9150610be082610b7b565b604082019050919050565b5f6020820190508181035f830152610c0281610bc9565b9050919050565b7f4e487b71000000000000000000000000000000000000000000000000000000005f52601160045260245ffd5b5f610c4082610823565b9150610c4b83610823565b9250828203905081811115610c6357610c62610c09565b5b92915050565b5f610c7382610823565b9150610c7e83610823565b9250828202610c8c81610823565b91508282048414831517610ca357610ca2610c09565b5b5092915050565b7f4e487b71000000000000000000000000000000000000000000000000000000005f52601260045260245ffd5b5f610ce182610823565b9150610cec83610823565b925082610cfc57610cfb610caa565b5b828204905092915050565b7f496e697469616c206465636c696e65206e6f742073756666696369656e7400005f82015250565b5f610d3b601e83610ab6565b9150610d4682610d07565b602082019050919050565b5f6020820190508181035f830152610d6881610d2f565b9050919050565b7f426f756e6365206e6f742073756666696369656e7400000000000000000000005f82015250565b5f610da3601583610ab6565b9150610dae82610d6f565b602082019050919050565b5f6020820190508181035f830152610dd081610d97565b9050919050565b5f606082019050610dea5f830186610894565b610df76020830185610894565b610e046040830184610894565b949350505050565b7f4576656e7420696e646578206f7574206f662072616e676500000000000000005f82015250565b5f610e40601883610ab6565b9150610e4b82610e0c565b602082019050919050565b5f6020820190508181035f830152610e6d81610e34565b9050919050565b7f4e487b71000000000000000000000000000000000000000000000000000000005f52603260045260245ffd5b7f5265656e7472616e637947756172643a207265656e7472616e742063616c6c005f82015250565b5f610ed5601f83610ab6565b9150610ee082610ea1565b602082019050919050565b5f6020820190508181035f830152610f0281610ec9565b905091905056fea2646970667358221220df25c251700566737f5e3e2b673f0d89ddcc75abeb64e8e0c84165d96f5b77c464736f6c634300081d0033",
					"opcodes": "PUSH1 0x80 PUSH1 0x40 MSTORE CALLVALUE DUP1 ISZERO PUSH2 0xF JUMPI PUSH0 PUSH0 REVERT JUMPDEST POP PUSH1 0x40 MLOAD PUSH2 0x1306 CODESIZE SUB DUP1 PUSH2 0x1306 DUP4 CODECOPY DUP2 DUP2 ADD PUSH1 0x40 MSTORE DUP2 ADD SWAP1 PUSH2 0x31 SWAP2 SWAP1 PUSH2 0x250 JUMP JUMPDEST CALLER PUSH0 PUSH20 0xFFFFFFFFFFFFFFFFFFFFFFFFFFFFFFFFFFFFFFFF AND DUP2 PUSH20 0xFFFFFFFFFFFFFFFFFFFFFFFFFFFFFFFFFFFFFFFF AND SUB PUSH2 0xA2 JUMPI PUSH0 PUSH1 0x40 MLOAD PUSH32 0x1E4FBDF700000000000000000000000000000000000000000000000000000000 DUP2 MSTORE PUSH1 0x4 ADD PUSH2 0x99 SWAP2 SWAP1 PUSH2 0x2CD JUMP JUMPDEST PUSH1 0x40 MLOAD DUP1 SWAP2 SUB SWAP1 REVERT JUMPDEST PUSH2 0xB1 DUP2 PUSH2 0x158 PUSH1 0x20 SHL PUSH1 0x20 SHR JUMP JUMPDEST POP PUSH1 0x1 DUP1 DUP2 SWAP1 SSTORE POP PUSH0 DUP3 GT DUP1 ISZERO PUSH2 0xC7 JUMPI POP PUSH0 DUP2 GT JUMPDEST PUSH2 0x106 JUMPI PUSH1 0x40 MLOAD PUSH32 0x8C379A000000000000000000000000000000000000000000000000000000000 DUP2 MSTORE PUSH1 0x4 ADD PUSH2 0xFD SWAP1 PUSH2 0x366 JUMP JUMPDEST PUSH1 0x40 MLOAD DUP1 SWAP2 SUB SWAP1 REVERT JUMPDEST DUP2 PUSH1 0x2 DUP2 SWAP1 SSTORE POP DUP1 PUSH1 0x3 DUP2 SWAP1 SSTORE POP PUSH32 0xFACCB0639FF7851E0E24F3B2D9AB03CD62FFB63F5B4D90AAEFF85BB078C1FA48 PUSH1 0x2 SLOAD PUSH1 0x3 SLOAD PUSH1 0x40 MLOAD PUSH2 0x149 SWAP3 SWAP2 SWAP1 PUSH2 0x393 JUMP JUMPDEST PUSH1 0x40 MLOAD DUP1 SWAP2 SUB SWAP1 LOG1 POP POP PUSH2 0x3BA JUMP JUMPDEST PUSH0 PUSH0 PUSH0 SWAP1 SLOAD SWAP1 PUSH2 0x100 EXP SWAP1 DIV PUSH20 0xFFFFFFFFFFFFFFFFFFFFFFFFFFFFFFFFFFFFFFFF AND SWAP1 POP DUP2 PUSH0 PUSH0 PUSH2 0x100 EXP DUP2 SLOAD DUP2 PUSH20 0xFFFFFFFFFFFFFFFFFFFFFFFFFFFFFFFFFFFFFFFF MUL NOT AND SWAP1 DUP4 PUSH20 0xFFFFFFFFFFFFFFFFFFFFFFFFFFFFFFFFFFFFFFFF AND MUL OR SWAP1 SSTORE POP DUP2 PUSH20 0xFFFFFFFFFFFFFFFFFFFFFFFFFFFFFFFFFFFFFFFF AND DUP2 PUSH20 0xFFFFFFFFFFFFFFFFFFFFFFFFFFFFFFFFFFFFFFFF AND PUSH32 0x8BE0079C531659141344CD1FD0A4F28419497F9722A3DAAFE3B4186F6B6457E0 PUSH1 0x40 MLOAD PUSH1 0x40 MLOAD DUP1 SWAP2 SUB SWAP1 LOG3 POP POP JUMP JUMPDEST PUSH0 PUSH0 REVERT JUMPDEST PUSH0 DUP2 SWAP1 POP SWAP2 SWAP1 POP JUMP JUMPDEST PUSH2 0x22F DUP2 PUSH2 0x21D JUMP JUMPDEST DUP2 EQ PUSH2 0x239 JUMPI PUSH0 PUSH0 REVERT JUMPDEST POP JUMP JUMPDEST PUSH0 DUP2 MLOAD SWAP1 POP PUSH2 0x24A DUP2 PUSH2 0x226 JUMP JUMPDEST SWAP3 SWAP2 POP POP JUMP JUMPDEST PUSH0 PUSH0 PUSH1 0x40 DUP4 DUP6 SUB SLT ISZERO PUSH2 0x266 JUMPI PUSH2 0x265 PUSH2 0x219 JUMP JUMPDEST JUMPDEST PUSH0 PUSH2 0x273 DUP6 DUP3 DUP7 ADD PUSH2 0x23C JUMP JUMPDEST SWAP3 POP POP PUSH1 0x20 PUSH2 0x284 DUP6 DUP3 DUP7 ADD PUSH2 0x23C JUMP JUMPDEST SWAP2 POP POP SWAP3 POP SWAP3 SWAP1 POP JUMP JUMPDEST PUSH0 PUSH20 0xFFFFFFFFFFFFFFFFFFFFFFFFFFFFFFFFFFFFFFFF DUP3 AND SWAP1 POP SWAP2 SWAP1 POP JUMP JUMPDEST PUSH0 PUSH2 0x2B7 DUP3 PUSH2 0x28E JUMP JUMPDEST SWAP1 POP SWAP2 SWAP1 POP JUMP JUMPDEST PUSH2 0x2C7 DUP2 PUSH2 0x2AD JUMP JUMPDEST DUP3 MSTORE POP POP JUMP JUMPDEST PUSH0 PUSH1 0x20 DUP3 ADD SWAP1 POP PUSH2 0x2E0 PUSH0 DUP4 ADD DUP5 PUSH2 0x2BE JUMP JUMPDEST SWAP3 SWAP2 POP POP JUMP JUMPDEST PUSH0 DUP3 DUP3 MSTORE PUSH1 0x20 DUP3 ADD SWAP1 POP SWAP3 SWAP2 POP POP JUMP JUMPDEST PUSH32 0x5468726573686F6C6473206D7573742062652067726561746572207468616E20 PUSH0 DUP3 ADD MSTORE PUSH32 0x3000000000000000000000000000000000000000000000000000000000000000 PUSH1 0x20 DUP3 ADD MSTORE POP JUMP JUMPDEST PUSH0 PUSH2 0x350 PUSH1 0x21 DUP4 PUSH2 0x2E6 JUMP JUMPDEST SWAP2 POP PUSH2 0x35B DUP3 PUSH2 0x2F6 JUMP JUMPDEST PUSH1 0x40 DUP3 ADD SWAP1 POP SWAP2 SWAP1 POP JUMP JUMPDEST PUSH0 PUSH1 0x20 DUP3 ADD SWAP1 POP DUP2 DUP2 SUB PUSH0 DUP4 ADD MSTORE PUSH2 0x37D DUP2 PUSH2 0x344 JUMP JUMPDEST SWAP1 POP SWAP2 SWAP1 POP JUMP JUMPDEST PUSH2 0x38D DUP2 PUSH2 0x21D JUMP JUMPDEST DUP3 MSTORE POP POP JUMP JUMPDEST PUSH0 PUSH1 0x40 DUP3 ADD SWAP1 POP PUSH2 0x3A6 PUSH0 DUP4 ADD DUP6 PUSH2 0x384 JUMP JUMPDEST PUSH2 0x3B3 PUSH1 0x20 DUP4 ADD DUP5 PUSH2 0x384 JUMP JUMPDEST SWAP4 SWAP3 POP POP POP JUMP JUMPDEST PUSH2 0xF3F DUP1 PUSH2 0x3C7 PUSH0 CODECOPY PUSH0 RETURN INVALID PUSH1 0x80 PUSH1 0x40 MSTORE CALLVALUE DUP1 ISZERO PUSH2 0xF JUMPI PUSH0 PUSH0 REVERT JUMPDEST POP PUSH1 0x4 CALLDATASIZE LT PUSH2 0x9C JUMPI PUSH0 CALLDATALOAD PUSH1 0xE0 SHR DUP1 PUSH4 0x8DA5CB5B GT PUSH2 0x64 JUMPI DUP1 PUSH4 0x8DA5CB5B EQ PUSH2 0x120 JUMPI DUP1 PUSH4 0x98043A49 EQ PUSH2 0x13E JUMPI DUP1 PUSH4 0xD9B24CED EQ PUSH2 0x171 JUMPI DUP1 PUSH4 0xF2FDE38B EQ PUSH2 0x18D JUMPI DUP1 PUSH4 0xF8442CA3 EQ PUSH2 0x1A9 JUMPI PUSH2 0x9C JUMP JUMPDEST DUP1 PUSH4 0x16128211 EQ PUSH2 0xA0 JUMPI DUP1 PUSH4 0x2B0F350F EQ PUSH2 0xBC JUMPI DUP1 PUSH4 0x55C11333 EQ PUSH2 0xDA JUMPI DUP1 PUSH4 0x715018A6 EQ PUSH2 0xF8 JUMPI DUP1 PUSH4 0x7AD33FCE EQ PUSH2 0x102 JUMPI JUMPDEST PUSH0 PUSH0 REVERT JUMPDEST PUSH2 0xBA PUSH1 0x4 DUP1 CALLDATASIZE SUB DUP2 ADD SWAP1 PUSH2 0xB5 SWAP2 SWAP1 PUSH2 0x856 JUMP JUMPDEST PUSH2 0x1D9 JUMP JUMPDEST STOP JUMPDEST PUSH2 0xC4 PUSH2 0x27D JUMP JUMPDEST PUSH1 0x40 MLOAD PUSH2 0xD1 SWAP2 SWAP1 PUSH2 0x8A3 JUMP JUMPDEST PUSH1 0x40 MLOAD DUP1 SWAP2 SUB SWAP1 RETURN JUMPDEST PUSH2 0xE2 PUSH2 0x283 JUMP JUMPDEST PUSH1 0x40 MLOAD PUSH2 0xEF SWAP2 SWAP1 PUSH2 0x8A3 JUMP JUMPDEST PUSH1 0x40 MLOAD DUP1 SWAP2 SUB SWAP1 RETURN JUMPDEST PUSH2 0x100 PUSH2 0x28F JUMP JUMPDEST STOP JUMPDEST PUSH2 0x10A PUSH2 0x2A2 JUMP JUMPDEST PUSH1 0x40 MLOAD PUSH2 0x117 SWAP2 SWAP1 PUSH2 0x8A3 JUMP JUMPDEST PUSH1 0x40 MLOAD DUP1 SWAP2 SUB SWAP1 RETURN JUMPDEST PUSH2 0x128 PUSH2 0x2A8 JUMP JUMPDEST PUSH1 0x40 MLOAD PUSH2 0x135 SWAP2 SWAP1 PUSH2 0x8FB JUMP JUMPDEST PUSH1 0x40 MLOAD DUP1 SWAP2 SUB SWAP1 RETURN JUMPDEST PUSH2 0x158 PUSH1 0x4 DUP1 CALLDATASIZE SUB DUP2 ADD SWAP1 PUSH2 0x153 SWAP2 SWAP1 PUSH2 0x914 JUMP JUMPDEST PUSH2 0x2CF JUMP JUMPDEST PUSH1 0x40 MLOAD PUSH2 0x168 SWAP5 SWAP4 SWAP3 SWAP2 SWAP1 PUSH2 0x93F JUMP JUMPDEST PUSH1 0x40 MLOAD DUP1 SWAP2 SUB SWAP1 RETURN JUMPDEST PUSH2 0x18B PUSH1 0x4 DUP1 CALLDATASIZE SUB DUP2 ADD SWAP1 PUSH2 0x186 SWAP2 SWAP1 PUSH2 0x982 JUMP JUMPDEST PUSH2 0x30A JUMP JUMPDEST STOP JUMPDEST PUSH2 0x1A7 PUSH1 0x4 DUP1 CALLDATASIZE SUB DUP2 ADD SWAP1 PUSH2 0x1A2 SWAP2 SWAP1 PUSH2 0xA10 JUMP JUMPDEST PUSH2 0x528 JUMP JUMPDEST STOP JUMPDEST PUSH2 0x1C3 PUSH1 0x4 DUP1 CALLDATASIZE SUB DUP2 ADD SWAP1 PUSH2 0x1BE SWAP2 SWAP1 PUSH2 0x914 JUMP JUMPDEST PUSH2 0x5AC JUMP JUMPDEST PUSH1 0x40 MLOAD PUSH2 0x1D0 SWAP2 SWAP1 PUSH2 0xA9D JUMP JUMPDEST PUSH1 0x40 MLOAD DUP1 SWAP2 SUB SWAP1 RETURN JUMPDEST PUSH2 0x1E1 PUSH2 0x654 JUMP JUMPDEST PUSH0 DUP3 GT DUP1 ISZERO PUSH2 0x1EF JUMPI POP PUSH0 DUP2 GT JUMPDEST PUSH2 0x22E JUMPI PUSH1 0x40 MLOAD PUSH32 0x8C379A000000000000000000000000000000000000000000000000000000000 DUP2 MSTORE PUSH1 0x4 ADD PUSH2 0x225 SWAP1 PUSH2 0xB36 JUMP JUMPDEST PUSH1 0x40 MLOAD DUP1 SWAP2 SUB SWAP1 REVERT JUMPDEST DUP2 PUSH1 0x2 DUP2 SWAP1 SSTORE POP DUP1 PUSH1 0x3 DUP2 SWAP1 SSTORE POP PUSH32 0xFACCB0639FF7851E0E24F3B2D9AB03CD62FFB63F5B4D90AAEFF85BB078C1FA48 PUSH1 0x2 SLOAD PUSH1 0x3 SLOAD PUSH1 0x40 MLOAD PUSH2 0x271 SWAP3 SWAP2 SWAP1 PUSH2 0xB54 JUMP JUMPDEST PUSH1 0x40 MLOAD DUP1 SWAP2 SUB SWAP1 LOG1 POP POP JUMP JUMPDEST PUSH1 0x2 SLOAD DUP2 JUMP JUMPDEST PUSH0 PUSH1 0x4 DUP1 SLOAD SWAP1 POP SWAP1 POP SWAP1 JUMP JUMPDEST PUSH2 0x297 PUSH2 0x654 JUMP JUMPDEST PUSH2 0x2A0 PUSH0 PUSH2 0x6DB JUMP JUMPDEST JUMP JUMPDEST PUSH1 0x3 SLOAD DUP2 JUMP JUMPDEST PUSH0 PUSH0 PUSH0 SWAP1 SLOAD SWAP1 PUSH2 0x100 EXP SWAP1 DIV PUSH20 0xFFFFFFFFFFFFFFFFFFFFFFFFFFFFFFFFFFFFFFFF AND SWAP1 POP SWAP1 JUMP JUMPDEST PUSH1 0x4 DUP2 DUP2 SLOAD DUP2 LT PUSH2 0x2DE JUMPI PUSH0 DUP1 REVERT JUMPDEST SWAP1 PUSH0 MSTORE PUSH1 0x20 PUSH0 KECCAK256 SWAP1 PUSH1 0x4 MUL ADD PUSH0 SWAP2 POP SWAP1 POP DUP1 PUSH0 ADD SLOAD SWAP1 DUP1 PUSH1 0x1 ADD SLOAD SWAP1 DUP1 PUSH1 0x2 ADD SLOAD SWAP1 DUP1 PUSH1 0x3 ADD SLOAD SWAP1 POP DUP5 JUMP JUMPDEST PUSH2 0x312 PUSH2 0x654 JUMP JUMPDEST PUSH2 0x31A PUSH2 0x79C JUMP JUMPDEST DUP3 DUP5 GT DUP1 ISZERO PUSH2 0x328 JUMPI POP DUP3 DUP3 GT JUMPDEST DUP1 ISZERO PUSH2 0x333 JUMPI POP DUP4 DUP3 LT JUMPDEST DUP1 ISZERO PUSH2 0x33E JUMPI POP DUP2 DUP2 LT JUMPDEST PUSH2 0x37D JUMPI PUSH1 0x40 MLOAD PUSH32 0x8C379A000000000000000000000000000000000000000000000000000000000 DUP2 MSTORE PUSH1 0x4 ADD PUSH2 0x374 SWAP1 PUSH2 0xBEB JUMP JUMPDEST PUSH1 0x40 MLOAD DUP1 SWAP2 SUB SWAP1 REVERT JUMPDEST PUSH0 DUP5 PUSH2 0x2710 DUP6 DUP8 PUSH2 0x38E SWAP2 SWAP1 PUSH2 0xC36 JUMP JUMPDEST PUSH2 0x398 SWAP2 SWAP1 PUSH2 0xC69 JUMP JUMPDEST PUSH2 0x3A2 SWAP2 SWAP1 PUSH2 0xCD7 JUMP JUMPDEST SWAP1 POP PUSH0 DUP6 PUSH2 0x2710 DUP7 DUP7 PUSH2 0x3B5 SWAP2 SWAP1 PUSH2 0xC36 JUMP JUMPDEST PUSH2 0x3BF SWAP2 SWAP1 PUSH2 0xC69 JUMP JUMPDEST PUSH2 0x3C9 SWAP2 SWAP1 PUSH2 0xCD7 JUMP JUMPDEST SWAP1 POP PUSH1 0x2 SLOAD DUP3 LT ISZERO PUSH2 0x410 JUMPI PUSH1 0x40 MLOAD PUSH32 0x8C379A000000000000000000000000000000000000000000000000000000000 DUP2 MSTORE PUSH1 0x4 ADD PUSH2 0x407 SWAP1 PUSH2 0xD51 JUMP JUMPDEST PUSH1 0x40 MLOAD DUP1 SWAP2 SUB SWAP1 REVERT JUMPDEST PUSH1 0x3 SLOAD DUP2 LT ISZERO PUSH2 0x455 JUMPI PUSH1 0x40 MLOAD PUSH32 0x8C379A000000000000000000000000000000000000000000000000000000000 DUP2 MSTORE PUSH1 0x4 ADD PUSH2 0x44C SWAP1 PUSH2 0xDB9 JUMP JUMPDEST PUSH1 0x40 MLOAD DUP1 SWAP2 SUB SWAP1 REVERT JUMPDEST PUSH0 PUSH1 0x40 MLOAD DUP1 PUSH1 0x80 ADD PUSH1 0x40 MSTORE DUP1 DUP9 DUP2 MSTORE PUSH1 0x20 ADD DUP7 DUP2 MSTORE PUSH1 0x20 ADD DUP6 DUP2 MSTORE PUSH1 0x20 ADD TIMESTAMP DUP2 MSTORE POP SWAP1 POP PUSH1 0x4 DUP2 SWAP1 DUP1 PUSH1 0x1 DUP2 SLOAD ADD DUP1 DUP3 SSTORE DUP1 SWAP2 POP POP PUSH1 0x1 SWAP1 SUB SWAP1 PUSH0 MSTORE PUSH1 0x20 PUSH0 KECCAK256 SWAP1 PUSH1 0x4 MUL ADD PUSH0 SWAP1 SWAP2 SWAP1 SWAP2 SWAP1 SWAP2 POP PUSH0 DUP3 ADD MLOAD DUP2 PUSH0 ADD SSTORE PUSH1 0x20 DUP3 ADD MLOAD DUP2 PUSH1 0x1 ADD SSTORE PUSH1 0x40 DUP3 ADD MLOAD DUP2 PUSH1 0x2 ADD SSTORE PUSH1 0x60 DUP3 ADD MLOAD DUP2 PUSH1 0x3 ADD SSTORE POP POP PUSH1 0x1 PUSH1 0x4 DUP1 SLOAD SWAP1 POP PUSH2 0x4DC SWAP2 SWAP1 PUSH2 0xC36 JUMP JUMPDEST PUSH32 0x63B8D7AE2E518078419D93133526C4CC7568F905F81DEB1C249CA02D86F62E9C DUP9 DUP8 DUP8 PUSH1 0x40 MLOAD PUSH2 0x50F SWAP4 SWAP3 SWAP2 SWAP1 PUSH2 0xDD7 JUMP JUMPDEST PUSH1 0x40 MLOAD DUP1 SWAP2 SUB SWAP1 LOG2 POP POP POP PUSH2 0x522 PUSH2 0x7EB JUMP JUMPDEST POP POP POP POP JUMP JUMPDEST PUSH2 0x530 PUSH2 0x654 JUMP JUMPDEST PUSH0 PUSH20 0xFFFFFFFFFFFFFFFFFFFFFFFFFFFFFFFFFFFFFFFF AND DUP2 PUSH20 0xFFFFFFFFFFFFFFFFFFFFFFFFFFFFFFFFFFFFFFFF AND SUB PUSH2 0x5A0 JUMPI PUSH0 PUSH1 0x40 MLOAD PUSH32 0x1E4FBDF700000000000000000000000000000000000000000000000000000000 DUP2 MSTORE PUSH1 0x4 ADD PUSH2 0x597 SWAP2 SWAP1 PUSH2 0x8FB JUMP JUMPDEST PUSH1 0x40 MLOAD DUP1 SWAP2 SUB SWAP1 REVERT JUMPDEST PUSH2 0x5A9 DUP2 PUSH2 0x6DB JUMP JUMPDEST POP JUMP JUMPDEST PUSH2 0x5B4 PUSH2 0x7FB JUMP JUMPDEST PUSH1 0x4 DUP1 SLOAD SWAP1 POP DUP3 LT PUSH2 0x5FB JUMPI PUSH1 0x40 MLOAD PUSH32 0x8C379A000000000000000000000000000000000000000000000000000000000 DUP2 MSTORE PUSH1 0x4 ADD PUSH2 0x5F2 SWAP1 PUSH2 0xE56 JUMP JUMPDEST PUSH1 0x40 MLOAD DUP1 SWAP2 SUB SWAP1 REVERT JUMPDEST PUSH1 0x4 DUP3 DUP2 SLOAD DUP2 LT PUSH2 0x60F JUMPI PUSH2 0x60E PUSH2 0xE74 JUMP JUMPDEST JUMPDEST SWAP1 PUSH0 MSTORE PUSH1 0x20 PUSH0 KECCAK256 SWAP1 PUSH1 0x4 MUL ADD PUSH1 0x40 MLOAD DUP1 PUSH1 0x80 ADD PUSH1 0x40 MSTORE SWAP1 DUP2 PUSH0 DUP3 ADD SLOAD DUP2 MSTORE PUSH1 0x20 ADD PUSH1 0x1 DUP3 ADD SLOAD DUP2 MSTORE PUSH1 0x20 ADD PUSH1 0x2 DUP3 ADD SLOAD DUP2 MSTORE PUSH1 0x20 ADD PUSH1 0x3 DUP3 ADD SLOAD DUP2 MSTORE POP POP SWAP1 POP SWAP2 SWAP1 POP JUMP JUMPDEST PUSH2 0x65C PUSH2 0x7F4 JUMP JUMPDEST PUSH20 0xFFFFFFFFFFFFFFFFFFFFFFFFFFFFFFFFFFFFFFFF AND PUSH2 0x67A PUSH2 0x2A8 JUMP JUMPDEST PUSH20 0xFFFFFFFFFFFFFFFFFFFFFFFFFFFFFFFFFFFFFFFF AND EQ PUSH2 0x6D9 JUMPI PUSH2 0x69D PUSH2 0x7F4 JUMP JUMPDEST PUSH1 0x40 MLOAD PUSH32 0x118CDAA700000000000000000000000000000000000000000000000000000000 DUP2 MSTORE PUSH1 0x4 ADD PUSH2 0x6D0 SWAP2 SWAP1 PUSH2 0x8FB JUMP JUMPDEST PUSH1 0x40 MLOAD DUP1 SWAP2 SUB SWAP1 REVERT JUMPDEST JUMP JUMPDEST PUSH0 PUSH0 PUSH0 SWAP1 SLOAD SWAP1 PUSH2 0x100 EXP SWAP1 DIV PUSH20 0xFFFFFFFFFFFFFFFFFFFFFFFFFFFFFFFFFFFFFFFF AND SWAP1 POP DUP2 PUSH0 PUSH0 PUSH2 0x100 EXP DUP2 SLOAD DUP2 PUSH20 0xFFFFFFFFFFFFFFFFFFFFFFFFFFFFFFFFFFFFFFFF MUL NOT AND SWAP1 DUP4 PUSH20 0xFFFFFFFFFFFFFFFFFFFFFFFFFFFFFFFFFFFFFFFF AND MUL OR SWAP1 SSTORE POP DUP2 PUSH20 0xFFFFFFFFFFFFFFFFFFFFFFFFFFFFFFFFFFFFFFFF AND DUP2 PUSH20 0xFFFFFFFFFFFFFFFFFFFFFFFFFFFFFFFFFFFFFFFF AND PUSH32 0x8BE0079C531659141344CD1FD0A4F28419497F9722A3DAAFE3B4186F6B6457E0 PUSH1 0x40 MLOAD PUSH1 0x40 MLOAD DUP1 SWAP2 SUB SWAP1 LOG3 POP POP JUMP JUMPDEST PUSH1 0x2 PUSH1 0x1 SLOAD SUB PUSH2 0x7E1 JUMPI PUSH1 0x40 MLOAD PUSH32 0x8C379A000000000000000000000000000000000000000000000000000000000 DUP2 MSTORE PUSH1 0x4 ADD PUSH2 0x7D8 SWAP1 PUSH2 0xEEB JUMP JUMPDEST PUSH1 0x40 MLOAD DUP1 SWAP2 SUB SWAP1 REVERT JUMPDEST PUSH1 0x2 PUSH1 0x1 DUP2 SWAP1 SSTORE POP JUMP JUMPDEST PUSH1 0x1 DUP1 DUP2 SWAP1 SSTORE POP JUMP JUMPDEST PUSH0 CALLER SWAP1 POP SWAP1 JUMP JUMPDEST PUSH1 0x40 MLOAD DUP1 PUSH1 0x80 ADD PUSH1 0x40 MSTORE DUP1 PUSH0 DUP2 MSTORE PUSH1 0x20 ADD PUSH0 DUP2 MSTORE PUSH1 0x20 ADD PUSH0 DUP2 MSTORE PUSH1 0x20 ADD PUSH0 DUP2 MSTORE POP SWAP1 JUMP JUMPDEST PUSH0 PUSH0 REVERT JUMPDEST PUSH0 DUP2 SWAP1 POP SWAP2 SWAP1 POP JUMP JUMPDEST PUSH2 0x835 DUP2 PUSH2 0x823 JUMP JUMPDEST DUP2 EQ PUSH2 0x83F JUMPI PUSH0 PUSH0 REVERT JUMPDEST POP JUMP JUMPDEST PUSH0 DUP2 CALLDATALOAD SWAP1 POP PUSH2 0x850 DUP2 PUSH2 0x82C JUMP JUMPDEST SWAP3 SWAP2 POP POP JUMP JUMPDEST PUSH0 PUSH0 PUSH1 0x40 DUP4 DUP6 SUB SLT ISZERO PUSH2 0x86C JUMPI PUSH2 0x86B PUSH2 0x81F JUMP JUMPDEST JUMPDEST PUSH0 PUSH2 0x879 DUP6 DUP3 DUP7 ADD PUSH2 0x842 JUMP JUMPDEST SWAP3 POP POP PUSH1 0x20 PUSH2 0x88A DUP6 DUP3 DUP7 ADD PUSH2 0x842 JUMP JUMPDEST SWAP2 POP POP SWAP3 POP SWAP3 SWAP1 POP JUMP JUMPDEST PUSH2 0x89D DUP2 PUSH2 0x823 JUMP JUMPDEST DUP3 MSTORE POP POP JUMP JUMPDEST PUSH0 PUSH1 0x20 DUP3 ADD SWAP1 POP PUSH2 0x8B6 PUSH0 DUP4 ADD DUP5 PUSH2 0x894 JUMP JUMPDEST SWAP3 SWAP2 POP POP JUMP JUMPDEST PUSH0 PUSH20 0xFFFFFFFFFFFFFFFFFFFFFFFFFFFFFFFFFFFFFFFF DUP3 AND SWAP1 POP SWAP2 SWAP1 POP JUMP JUMPDEST PUSH0 PUSH2 0x8E5 DUP3 PUSH2 0x8BC JUMP JUMPDEST SWAP1 POP SWAP2 SWAP1 POP JUMP JUMPDEST PUSH2 0x8F5 DUP2 PUSH2 0x8DB JUMP JUMPDEST DUP3 MSTORE POP POP JUMP JUMPDEST PUSH0 PUSH1 0x20 DUP3 ADD SWAP1 POP PUSH2 0x90E PUSH0 DUP4 ADD DUP5 PUSH2 0x8EC JUMP JUMPDEST SWAP3 SWAP2 POP POP JUMP JUMPDEST PUSH0 PUSH1 0x20 DUP3 DUP5 SUB SLT ISZERO PUSH2 0x929 JUMPI PUSH2 0x928 PUSH2 0x81F JUMP JUMPDEST JUMPDEST PUSH0 PUSH2 0x936 DUP5 DUP3 DUP6 ADD PUSH2 0x842 JUMP JUMPDEST SWAP2 POP POP SWAP3 SWAP2 POP POP JUMP JUMPDEST PUSH0 PUSH1 0x80 DUP3 ADD SWAP1 POP PUSH2 0x952 PUSH0 DUP4 ADD DUP8 PUSH2 0x894 JUMP JUMPDEST PUSH2 0x95F PUSH1 0x20 DUP4 ADD DUP7 PUSH2 0x894 JUMP JUMPDEST PUSH2 0x96C PUSH1 0x40 DUP4 ADD DUP6 PUSH2 0x894 JUMP JUMPDEST PUSH2 0x979 PUSH1 0x60 DUP4 ADD DUP5 PUSH2 0x894 JUMP JUMPDEST SWAP6 SWAP5 POP POP POP POP POP JUMP JUMPDEST PUSH0 PUSH0 PUSH0 PUSH0 PUSH1 0x80 DUP6 DUP8 SUB SLT ISZERO PUSH2 0x99A JUMPI PUSH2 0x999 PUSH2 0x81F JUMP JUMPDEST JUMPDEST PUSH0 PUSH2 0x9A7 DUP8 DUP3 DUP9 ADD PUSH2 0x842 JUMP JUMPDEST SWAP5 POP POP PUSH1 0x20 PUSH2 0x9B8 DUP8 DUP3 DUP9 ADD PUSH2 0x842 JUMP JUMPDEST SWAP4 POP POP PUSH1 0x40 PUSH2 0x9C9 DUP8 DUP3 DUP9 ADD PUSH2 0x842 JUMP JUMPDEST SWAP3 POP POP PUSH1 0x60 PUSH2 0x9DA DUP8 DUP3 DUP9 ADD PUSH2 0x842 JUMP JUMPDEST SWAP2 POP POP SWAP3 SWAP6 SWAP2 SWAP5 POP SWAP3 POP JUMP JUMPDEST PUSH2 0x9EF DUP2 PUSH2 0x8DB JUMP JUMPDEST DUP2 EQ PUSH2 0x9F9 JUMPI PUSH0 PUSH0 REVERT JUMPDEST POP JUMP JUMPDEST PUSH0 DUP2 CALLDATALOAD SWAP1 POP PUSH2 0xA0A DUP2 PUSH2 0x9E6 JUMP JUMPDEST SWAP3 SWAP2 POP POP JUMP JUMPDEST PUSH0 PUSH1 0x20 DUP3 DUP5 SUB SLT ISZERO PUSH2 0xA25 JUMPI PUSH2 0xA24 PUSH2 0x81F JUMP JUMPDEST JUMPDEST PUSH0 PUSH2 0xA32 DUP5 DUP3 DUP6 ADD PUSH2 0x9FC JUMP JUMPDEST SWAP2 POP POP SWAP3 SWAP2 POP POP JUMP JUMPDEST PUSH2 0xA44 DUP2 PUSH2 0x823 JUMP JUMPDEST DUP3 MSTORE POP POP JUMP JUMPDEST PUSH1 0x80 DUP3 ADD PUSH0 DUP3 ADD MLOAD PUSH2 0xA5E PUSH0 DUP6 ADD DUP3 PUSH2 0xA3B JUMP JUMPDEST POP PUSH1 0x20 DUP3 ADD MLOAD PUSH2 0xA71 PUSH1 0x20 DUP6 ADD DUP3 PUSH2 0xA3B JUMP JUMPDEST POP PUSH1 0x40 DUP3 ADD MLOAD PUSH2 0xA84 PUSH1 0x40 DUP6 ADD DUP3 PUSH2 0xA3B JUMP JUMPDEST POP PUSH1 0x60 DUP3 ADD MLOAD PUSH2 0xA97 PUSH1 0x60 DUP6 ADD DUP3 PUSH2 0xA3B JUMP JUMPDEST POP POP POP POP JUMP JUMPDEST PUSH0 PUSH1 0x80 DUP3 ADD SWAP1 POP PUSH2 0xAB0 PUSH0 DUP4 ADD DUP5 PUSH2 0xA4A JUMP JUMPDEST SWAP3 SWAP2 POP POP JUMP JUMPDEST PUSH0 DUP3 DUP3 MSTORE PUSH1 0x20 DUP3 ADD SWAP1 POP SWAP3 SWAP2 POP POP JUMP JUMPDEST PUSH32 0x5468726573686F6C6473206D7573742062652067726561746572207468616E20 PUSH0 DUP3 ADD MSTORE PUSH32 0x3000000000000000000000000000000000000000000000000000000000000000 PUSH1 0x20 DUP3 ADD MSTORE POP JUMP JUMPDEST PUSH0 PUSH2 0xB20 PUSH1 0x21 DUP4 PUSH2 0xAB6 JUMP JUMPDEST SWAP2 POP PUSH2 0xB2B DUP3 PUSH2 0xAC6 JUMP JUMPDEST PUSH1 0x40 DUP3 ADD SWAP1 POP SWAP2 SWAP1 POP JUMP JUMPDEST PUSH0 PUSH1 0x20 DUP3 ADD SWAP1 POP DUP2 DUP2 SUB PUSH0 DUP4 ADD MSTORE PUSH2 0xB4D DUP2 PUSH2 0xB14 JUMP JUMPDEST SWAP1 POP SWAP2 SWAP1 POP JUMP JUMPDEST PUSH0 PUSH1 0x40 DUP3 ADD SWAP1 POP PUSH2 0xB67 PUSH0 DUP4 ADD DUP6 PUSH2 0x894 JUMP JUMPDEST PUSH2 0xB74 PUSH1 0x20 DUP4 ADD DUP5 PUSH2 0x894 JUMP JUMPDEST SWAP4 SWAP3 POP POP POP JUMP JUMPDEST PUSH32 0x50726963657320646F206E6F74207265666C65637420612076616C6964204465 PUSH0 DUP3 ADD MSTORE PUSH32 0x61642043617420426F756E636500000000000000000000000000000000000000 PUSH1 0x20 DUP3 ADD MSTORE POP JUMP JUMPDEST PUSH0 PUSH2 0xBD5 PUSH1 0x2D DUP4 PUSH2 0xAB6 JUMP JUMPDEST SWAP2 POP PUSH2 0xBE0 DUP3 PUSH2 0xB7B JUMP JUMPDEST PUSH1 0x40 DUP3 ADD SWAP1 POP SWAP2 SWAP1 POP JUMP JUMPDEST PUSH0 PUSH1 0x20 DUP3 ADD SWAP1 POP DUP2 DUP2 SUB PUSH0 DUP4 ADD MSTORE PUSH2 0xC02 DUP2 PUSH2 0xBC9 JUMP JUMPDEST SWAP1 POP SWAP2 SWAP1 POP JUMP JUMPDEST PUSH32 0x4E487B7100000000000000000000000000000000000000000000000000000000 PUSH0 MSTORE PUSH1 0x11 PUSH1 0x4 MSTORE PUSH1 0x24 PUSH0 REVERT JUMPDEST PUSH0 PUSH2 0xC40 DUP3 PUSH2 0x823 JUMP JUMPDEST SWAP2 POP PUSH2 0xC4B DUP4 PUSH2 0x823 JUMP JUMPDEST SWAP3 POP DUP3 DUP3 SUB SWAP1 POP DUP2 DUP2 GT ISZERO PUSH2 0xC63 JUMPI PUSH2 0xC62 PUSH2 0xC09 JUMP JUMPDEST JUMPDEST SWAP3 SWAP2 POP POP JUMP JUMPDEST PUSH0 PUSH2 0xC73 DUP3 PUSH2 0x823 JUMP JUMPDEST SWAP2 POP PUSH2 0xC7E DUP4 PUSH2 0x823 JUMP JUMPDEST SWAP3 POP DUP3 DUP3 MUL PUSH2 0xC8C DUP2 PUSH2 0x823 JUMP JUMPDEST SWAP2 POP DUP3 DUP3 DIV DUP5 EQ DUP4 ISZERO OR PUSH2 0xCA3 JUMPI PUSH2 0xCA2 PUSH2 0xC09 JUMP JUMPDEST JUMPDEST POP SWAP3 SWAP2 POP POP JUMP JUMPDEST PUSH32 0x4E487B7100000000000000000000000000000000000000000000000000000000 PUSH0 MSTORE PUSH1 0x12 PUSH1 0x4 MSTORE PUSH1 0x24 PUSH0 REVERT JUMPDEST PUSH0 PUSH2 0xCE1 DUP3 PUSH2 0x823 JUMP JUMPDEST SWAP2 POP PUSH2 0xCEC DUP4 PUSH2 0x823 JUMP JUMPDEST SWAP3 POP DUP3 PUSH2 0xCFC JUMPI PUSH2 0xCFB PUSH2 0xCAA JUMP JUMPDEST JUMPDEST DUP3 DUP3 DIV SWAP1 POP SWAP3 SWAP2 POP POP JUMP JUMPDEST PUSH32 0x496E697469616C206465636C696E65206E6F742073756666696369656E740000 PUSH0 DUP3 ADD MSTORE POP JUMP JUMPDEST PUSH0 PUSH2 0xD3B PUSH1 0x1E DUP4 PUSH2 0xAB6 JUMP JUMPDEST SWAP2 POP PUSH2 0xD46 DUP3 PUSH2 0xD07 JUMP JUMPDEST PUSH1 0x20 DUP3 ADD SWAP1 POP SWAP2 SWAP1 POP JUMP JUMPDEST PUSH0 PUSH1 0x20 DUP3 ADD SWAP1 POP DUP2 DUP2 SUB PUSH0 DUP4 ADD MSTORE PUSH2 0xD68 DUP2 PUSH2 0xD2F JUMP JUMPDEST SWAP1 POP SWAP2 SWAP1 POP JUMP JUMPDEST PUSH32 0x426F756E6365206E6F742073756666696369656E740000000000000000000000 PUSH0 DUP3 ADD MSTORE POP JUMP JUMPDEST PUSH0 PUSH2 0xDA3 PUSH1 0x15 DUP4 PUSH2 0xAB6 JUMP JUMPDEST SWAP2 POP PUSH2 0xDAE DUP3 PUSH2 0xD6F JUMP JUMPDEST PUSH1 0x20 DUP3 ADD SWAP1 POP SWAP2 SWAP1 POP JUMP JUMPDEST PUSH0 PUSH1 0x20 DUP3 ADD SWAP1 POP DUP2 DUP2 SUB PUSH0 DUP4 ADD MSTORE PUSH2 0xDD0 DUP2 PUSH2 0xD97 JUMP JUMPDEST SWAP1 POP SWAP2 SWAP1 POP JUMP JUMPDEST PUSH0 PUSH1 0x60 DUP3 ADD SWAP1 POP PUSH2 0xDEA PUSH0 DUP4 ADD DUP7 PUSH2 0x894 JUMP JUMPDEST PUSH2 0xDF7 PUSH1 0x20 DUP4 ADD DUP6 PUSH2 0x894 JUMP JUMPDEST PUSH2 0xE04 PUSH1 0x40 DUP4 ADD DUP5 PUSH2 0x894 JUMP JUMPDEST SWAP5 SWAP4 POP POP POP POP JUMP JUMPDEST PUSH32 0x4576656E7420696E646578206F7574206F662072616E67650000000000000000 PUSH0 DUP3 ADD MSTORE POP JUMP JUMPDEST PUSH0 PUSH2 0xE40 PUSH1 0x18 DUP4 PUSH2 0xAB6 JUMP JUMPDEST SWAP2 POP PUSH2 0xE4B DUP3 PUSH2 0xE0C JUMP JUMPDEST PUSH1 0x20 DUP3 ADD SWAP1 POP SWAP2 SWAP1 POP JUMP JUMPDEST PUSH0 PUSH1 0x20 DUP3 ADD SWAP1 POP DUP2 DUP2 SUB PUSH0 DUP4 ADD MSTORE PUSH2 0xE6D DUP2 PUSH2 0xE34 JUMP JUMPDEST SWAP1 POP SWAP2 SWAP1 POP JUMP JUMPDEST PUSH32 0x4E487B7100000000000000000000000000000000000000000000000000000000 PUSH0 MSTORE PUSH1 0x32 PUSH1 0x4 MSTORE PUSH1 0x24 PUSH0 REVERT JUMPDEST PUSH32 0x5265656E7472616E637947756172643A207265656E7472616E742063616C6C00 PUSH0 DUP3 ADD MSTORE POP JUMP JUMPDEST PUSH0 PUSH2 0xED5 PUSH1 0x1F DUP4 PUSH2 0xAB6 JUMP JUMPDEST SWAP2 POP PUSH2 0xEE0 DUP3 PUSH2 0xEA1 JUMP JUMPDEST PUSH1 0x20 DUP3 ADD SWAP1 POP SWAP2 SWAP1 POP JUMP JUMPDEST PUSH0 PUSH1 0x20 DUP3 ADD SWAP1 POP DUP2 DUP2 SUB PUSH0 DUP4 ADD MSTORE PUSH2 0xF02 DUP2 PUSH2 0xEC9 JUMP JUMPDEST SWAP1 POP SWAP2 SWAP1 POP JUMP INVALID LOG2 PUSH5 0x6970667358 0x22 SLT KECCAK256 0xDF 0x25 0xC2 MLOAD PUSH17 0x566737F5E3E2B673F0D89DDCC75ABEB64 0xE8 RJUMP 0xC841 PUSH6 0xD96F5B77C464 PUSH20 0x6F6C634300081D00330000000000000000000000 "
				},
				"gasEstimates": {
					"creation": {
						"codeDepositCost": "780600",
						"executionCost": "infinite",
						"totalCost": "infinite"
					},
					"external": {
						"bounceEvents(uint256)": "infinite",
						"bounceThreshold()": "2514",
						"declineThreshold()": "2448",
						"getBounceEvent(uint256)": "infinite",
						"getBounceEventCount()": "2485",
						"owner()": "2514",
						"renounceOwnership()": "infinite",
						"submitBounceEvent(uint256,uint256,uint256,uint256)": "infinite",
						"transferOwnership(address)": "infinite",
						"updateParameters(uint256,uint256)": "infinite"
					}
				},
				"methodIdentifiers": {
					"bounceEvents(uint256)": "98043a49",
					"bounceThreshold()": "7ad33fce",
					"declineThreshold()": "2b0f350f",
					"getBounceEvent(uint256)": "f8442ca3",
					"getBounceEventCount()": "55c11333",
					"owner()": "8da5cb5b",
					"renounceOwnership()": "715018a6",
					"submitBounceEvent(uint256,uint256,uint256,uint256)": "d9b24ced",
					"transferOwnership(address)": "f2fde38b",
					"updateParameters(uint256,uint256)": "16128211"
				}
			},
			"storageLayout": {
				"storage": [
					{
						"astId": 8,
						"contract": "D/deadCateBounce.sol:DeadCatBounceDetector",
						"label": "_owner",
						"offset": 0,
						"slot": "0",
						"type": "t_address"
					},
					{
						"astId": 158,
						"contract": "D/deadCateBounce.sol:DeadCatBounceDetector",
						"label": "_status",
						"offset": 0,
						"slot": "1",
						"type": "t_uint256"
					},
					{
						"astId": 263,
						"contract": "D/deadCateBounce.sol:DeadCatBounceDetector",
						"label": "declineThreshold",
						"offset": 0,
						"slot": "2",
						"type": "t_uint256"
					},
					{
						"astId": 265,
						"contract": "D/deadCateBounce.sol:DeadCatBounceDetector",
						"label": "bounceThreshold",
						"offset": 0,
						"slot": "3",
						"type": "t_uint256"
					},
					{
						"astId": 269,
						"contract": "D/deadCateBounce.sol:DeadCatBounceDetector",
						"label": "bounceEvents",
						"offset": 0,
						"slot": "4",
						"type": "t_array(t_struct(BounceEvent)261_storage)dyn_storage"
					}
				],
				"types": {
					"t_address": {
						"encoding": "inplace",
						"label": "address",
						"numberOfBytes": "20"
					},
					"t_array(t_struct(BounceEvent)261_storage)dyn_storage": {
						"base": "t_struct(BounceEvent)261_storage",
						"encoding": "dynamic_array",
						"label": "struct DeadCatBounceDetector.BounceEvent[]",
						"numberOfBytes": "32"
					},
					"t_struct(BounceEvent)261_storage": {
						"encoding": "inplace",
						"label": "struct DeadCatBounceDetector.BounceEvent",
						"members": [
							{
								"astId": 254,
								"contract": "D/deadCateBounce.sol:DeadCatBounceDetector",
								"label": "initialDeclinePrice",
								"offset": 0,
								"slot": "0",
								"type": "t_uint256"
							},
							{
								"astId": 256,
								"contract": "D/deadCateBounce.sol:DeadCatBounceDetector",
								"label": "bouncePrice",
								"offset": 0,
								"slot": "1",
								"type": "t_uint256"
							},
							{
								"astId": 258,
								"contract": "D/deadCateBounce.sol:DeadCatBounceDetector",
								"label": "finalDeclinePrice",
								"offset": 0,
								"slot": "2",
								"type": "t_uint256"
							},
							{
								"astId": 260,
								"contract": "D/deadCateBounce.sol:DeadCatBounceDetector",
								"label": "timestamp",
								"offset": 0,
								"slot": "3",
								"type": "t_uint256"
							}
						],
						"numberOfBytes": "128"
					},
					"t_uint256": {
						"encoding": "inplace",
						"label": "uint256",
						"numberOfBytes": "32"
					}
				}
			},
			"userdoc": {
				"kind": "user",
				"methods": {
					"constructor": {
						"notice": "Constructor initializes parameters (example defaults: 20% decline, 5% bounce)"
					},
					"getBounceEvent(uint256)": {
						"notice": "Retrieves a specific bounce event by index."
					},
					"getBounceEventCount()": {
						"notice": "Returns the number of recorded bounce events."
					},
					"submitBounceEvent(uint256,uint256,uint256,uint256)": {
						"notice": "Owner submits price points to validate and record a bounce event."
					},
					"updateParameters(uint256,uint256)": {
						"notice": "Owner updates parameters dynamically."
					}
				},
				"notice": "Contract dynamically identifies and records \"Dead Cat Bounce\" events based on configurable criteria. Only the owner (admin) can update the parameters and submit price data.",
				"version": 1
			}
		}
	}
}