{
	"D/dataAvailabilitySampling.sol": {
		"DataAvailabilitySampling": {
			"abi": [
				{
					"inputs": [],
					"stateMutability": "nonpayable",
					"type": "constructor"
				},
				{
					"inputs": [
						{
							"internalType": "address",
							"name": "owner",
							"type": "address"
						}
					],
					"name": "OwnableInvalidOwner",
					"type": "error"
				},
				{
					"inputs": [
						{
							"internalType": "address",
							"name": "account",
							"type": "address"
						}
					],
					"name": "OwnableUnauthorizedAccount",
					"type": "error"
				},
				{
					"anonymous": false,
					"inputs": [
						{
							"indexed": false,
							"internalType": "bytes32",
							"name": "newDataRoot",
							"type": "bytes32"
						}
					],
					"name": "DataRootUpdated",
					"type": "event"
				},
				{
					"anonymous": false,
					"inputs": [
						{
							"indexed": true,
							"internalType": "address",
							"name": "previousOwner",
							"type": "address"
						},
						{
							"indexed": true,
							"internalType": "address",
							"name": "newOwner",
							"type": "address"
						}
					],
					"name": "OwnershipTransferred",
					"type": "event"
				},
				{
					"anonymous": false,
					"inputs": [
						{
							"indexed": false,
							"internalType": "uint256",
							"name": "newRequiredSamples",
							"type": "uint256"
						}
					],
					"name": "RequiredSamplesUpdated",
					"type": "event"
				},
				{
					"anonymous": false,
					"inputs": [
						{
							"indexed": true,
							"internalType": "address",
							"name": "sampler",
							"type": "address"
						},
						{
							"indexed": false,
							"internalType": "uint256",
							"name": "sampleIndex",
							"type": "uint256"
						},
						{
							"indexed": false,
							"internalType": "bool",
							"name": "valid",
							"type": "bool"
						}
					],
					"name": "SampleSubmitted",
					"type": "event"
				},
				{
					"inputs": [],
					"name": "dataRoot",
					"outputs": [
						{
							"internalType": "bytes32",
							"name": "",
							"type": "bytes32"
						}
					],
					"stateMutability": "view",
					"type": "function"
				},
				{
					"inputs": [],
					"name": "isDataAvailable",
					"outputs": [
						{
							"internalType": "bool",
							"name": "available",
							"type": "bool"
						}
					],
					"stateMutability": "view",
					"type": "function"
				},
				{
					"inputs": [],
					"name": "owner",
					"outputs": [
						{
							"internalType": "address",
							"name": "",
							"type": "address"
						}
					],
					"stateMutability": "view",
					"type": "function"
				},
				{
					"inputs": [],
					"name": "renounceOwnership",
					"outputs": [],
					"stateMutability": "nonpayable",
					"type": "function"
				},
				{
					"inputs": [],
					"name": "requiredSamples",
					"outputs": [
						{
							"internalType": "uint256",
							"name": "",
							"type": "uint256"
						}
					],
					"stateMutability": "view",
					"type": "function"
				},
				{
					"inputs": [
						{
							"internalType": "address",
							"name": "",
							"type": "address"
						},
						{
							"internalType": "uint256",
							"name": "",
							"type": "uint256"
						}
					],
					"name": "sampleSubmitted",
					"outputs": [
						{
							"internalType": "bool",
							"name": "",
							"type": "bool"
						}
					],
					"stateMutability": "view",
					"type": "function"
				},
				{
					"inputs": [
						{
							"internalType": "uint256",
							"name": "sampleIndex",
							"type": "uint256"
						},
						{
							"internalType": "bytes32",
							"name": "leaf",
							"type": "bytes32"
						},
						{
							"internalType": "bytes32[]",
							"name": "proof",
							"type": "bytes32[]"
						}
					],
					"name": "submitSample",
					"outputs": [],
					"stateMutability": "nonpayable",
					"type": "function"
				},
				{
					"inputs": [],
					"name": "totalSamples",
					"outputs": [
						{
							"internalType": "uint256",
							"name": "",
							"type": "uint256"
						}
					],
					"stateMutability": "view",
					"type": "function"
				},
				{
					"inputs": [
						{
							"internalType": "address",
							"name": "newOwner",
							"type": "address"
						}
					],
					"name": "transferOwnership",
					"outputs": [],
					"stateMutability": "nonpayable",
					"type": "function"
				},
				{
					"inputs": [
						{
							"internalType": "bytes32",
							"name": "_dataRoot",
							"type": "bytes32"
						}
					],
					"name": "updateDataRoot",
					"outputs": [],
					"stateMutability": "nonpayable",
					"type": "function"
				},
				{
					"inputs": [
						{
							"internalType": "uint256",
							"name": "_requiredSamples",
							"type": "uint256"
						}
					],
					"name": "updateRequiredSamples",
					"outputs": [],
					"stateMutability": "nonpayable",
					"type": "function"
				},
				{
					"inputs": [],
					"name": "validSamples",
					"outputs": [
						{
							"internalType": "uint256",
							"name": "",
							"type": "uint256"
						}
					],
					"stateMutability": "view",
					"type": "function"
				}
			],
			"devdoc": {
				"errors": {
					"OwnableInvalidOwner(address)": [
						{
							"details": "The owner is not a valid owner account. (eg. `address(0)`)"
						}
					],
					"OwnableUnauthorizedAccount(address)": [
						{
							"details": "The caller account is not authorized to perform an operation."
						}
					]
				},
				"kind": "dev",
				"methods": {
					"isDataAvailable()": {
						"returns": {
							"available": "True if validSamples meets or exceeds requiredSamples."
						}
					},
					"owner()": {
						"details": "Returns the address of the current owner."
					},
					"renounceOwnership()": {
						"details": "Leaves the contract without owner. It will not be possible to call `onlyOwner` functions. Can only be called by the current owner. NOTE: Renouncing ownership will leave the contract without an owner, thereby disabling any functionality that is only available to the owner."
					},
					"submitSample(uint256,bytes32,bytes32[])": {
						"params": {
							"leaf": "The hash of the data chunk.",
							"proof": "The Merkle proof that the leaf is in the dataset.",
							"sampleIndex": "The index of the sample."
						}
					},
					"transferOwnership(address)": {
						"details": "Transfers ownership of the contract to a new account (`newOwner`). Can only be called by the current owner."
					},
					"updateDataRoot(bytes32)": {
						"params": {
							"_dataRoot": "The new Merkle root."
						}
					},
					"updateRequiredSamples(uint256)": {
						"params": {
							"_requiredSamples": "The number of valid samples needed."
						}
					}
				},
				"title": "DataAvailabilitySampling",
				"version": 1
			},
			"evm": {
				"assembly": "    /* \"D/dataAvailabilitySampling.sol\":640:3551  contract DataAvailabilitySampling is Ownable, ReentrancyGuard {... */\n  mstore(0x40, 0x80)\n    /* \"D/dataAvailabilitySampling.sol\":1490:1581  constructor() Ownable(msg.sender) {... */\n  callvalue\n  dup1\n  iszero\n  tag_1\n  jumpi\n  revert(0x00, 0x00)\ntag_1:\n  pop\n    /* \"D/dataAvailabilitySampling.sol\":1512:1522  msg.sender */\n  caller\n    /* \"@openzeppelin/contracts/access/Ownable.sol\":1297:1298  0 */\n  0x00\n    /* \"@openzeppelin/contracts/access/Ownable.sol\":1273:1299  initialOwner == address(0) */\n  0xffffffffffffffffffffffffffffffffffffffff\n  and\n    /* \"@openzeppelin/contracts/access/Ownable.sol\":1273:1285  initialOwner */\n  dup2\n    /* \"@openzeppelin/contracts/access/Ownable.sol\":1273:1299  initialOwner == address(0) */\n  0xffffffffffffffffffffffffffffffffffffffff\n  and\n  sub\n    /* \"@openzeppelin/contracts/access/Ownable.sol\":1269:1364  if (initialOwner == address(0)) {... */\n  tag_6\n  jumpi\n    /* \"@openzeppelin/contracts/access/Ownable.sol\":1350:1351  0 */\n  0x00\n    /* \"@openzeppelin/contracts/access/Ownable.sol\":1322:1353  OwnableInvalidOwner(address(0)) */\n  mload(0x40)\n  0x1e4fbdf700000000000000000000000000000000000000000000000000000000\n  dup2\n  mstore\n  0x04\n  add\n  tag_7\n  swap2\n  swap1\n  tag_8\n  jump\t// in\ntag_7:\n  mload(0x40)\n  dup1\n  swap2\n  sub\n  swap1\n  revert\n    /* \"@openzeppelin/contracts/access/Ownable.sol\":1269:1364  if (initialOwner == address(0)) {... */\ntag_6:\n    /* \"@openzeppelin/contracts/access/Ownable.sol\":1373:1405  _transferOwnership(initialOwner) */\n  tag_9\n    /* \"@openzeppelin/contracts/access/Ownable.sol\":1392:1404  initialOwner */\n  dup2\n    /* \"@openzeppelin/contracts/access/Ownable.sol\":1373:1391  _transferOwnership */\n  shl(0x20, tag_10)\n    /* \"@openzeppelin/contracts/access/Ownable.sol\":1373:1405  _transferOwnership(initialOwner) */\n  0x20\n  shr\n  jump\t// in\ntag_9:\n    /* \"@openzeppelin/contracts/access/Ownable.sol\":1225:1412  constructor(address initialOwner) {... */\n  pop\n    /* \"@openzeppelin/contracts/security/ReentrancyGuard.sol\":1716:1717  1 */\n  0x01\n    /* \"@openzeppelin/contracts/security/ReentrancyGuard.sol\":1821:1828  _status */\n  dup1\n    /* \"@openzeppelin/contracts/security/ReentrancyGuard.sol\":1821:1843  _status = _NOT_ENTERED */\n  dup2\n  swap1\n  sstore\n  pop\n    /* \"D/dataAvailabilitySampling.sol\":640:3551  contract DataAvailabilitySampling is Ownable, ReentrancyGuard {... */\n  jump(tag_13)\n    /* \"@openzeppelin/contracts/access/Ownable.sol\":2912:3099  function _transferOwnership(address newOwner) internal virtual {... */\ntag_10:\n    /* \"@openzeppelin/contracts/access/Ownable.sol\":2985:3001  address oldOwner */\n  0x00\n    /* \"@openzeppelin/contracts/access/Ownable.sol\":3004:3010  _owner */\n  0x00\n  0x00\n  swap1\n  sload\n  swap1\n  0x0100\n  exp\n  swap1\n  div\n  0xffffffffffffffffffffffffffffffffffffffff\n  and\n    /* \"@openzeppelin/contracts/access/Ownable.sol\":2985:3010  address oldOwner = _owner */\n  swap1\n  pop\n    /* \"@openzeppelin/contracts/access/Ownable.sol\":3029:3037  newOwner */\n  dup2\n    /* \"@openzeppelin/contracts/access/Ownable.sol\":3020:3026  _owner */\n  0x00\n  0x00\n    /* \"@openzeppelin/contracts/access/Ownable.sol\":3020:3037  _owner = newOwner */\n  0x0100\n  exp\n  dup2\n  sload\n  dup2\n  0xffffffffffffffffffffffffffffffffffffffff\n  mul\n  not\n  and\n  swap1\n  dup4\n  0xffffffffffffffffffffffffffffffffffffffff\n  and\n  mul\n  or\n  swap1\n  sstore\n  pop\n    /* \"@openzeppelin/contracts/access/Ownable.sol\":3083:3091  newOwner */\n  dup2\n    /* \"@openzeppelin/contracts/access/Ownable.sol\":3052:3092  OwnershipTransferred(oldOwner, newOwner) */\n  0xffffffffffffffffffffffffffffffffffffffff\n  and\n    /* \"@openzeppelin/contracts/access/Ownable.sol\":3073:3081  oldOwner */\n  dup2\n    /* \"@openzeppelin/contracts/access/Ownable.sol\":3052:3092  OwnershipTransferred(oldOwner, newOwner) */\n  0xffffffffffffffffffffffffffffffffffffffff\n  and\n  0x8be0079c531659141344cd1fd0a4f28419497f9722a3daafe3b4186f6b6457e0\n  mload(0x40)\n  mload(0x40)\n  dup1\n  swap2\n  sub\n  swap1\n  log3\n    /* \"@openzeppelin/contracts/access/Ownable.sol\":2975:3099  {... */\n  pop\n    /* \"@openzeppelin/contracts/access/Ownable.sol\":2912:3099  function _transferOwnership(address newOwner) internal virtual {... */\n  pop\n  jump\t// out\n    /* \"#utility.yul\":7:133   */\ntag_15:\n    /* \"#utility.yul\":44:51   */\n  0x00\n    /* \"#utility.yul\":84:126   */\n  0xffffffffffffffffffffffffffffffffffffffff\n    /* \"#utility.yul\":77:82   */\n  dup3\n    /* \"#utility.yul\":73:127   */\n  and\n    /* \"#utility.yul\":62:127   */\n  swap1\n  pop\n    /* \"#utility.yul\":7:133   */\n  swap2\n  swap1\n  pop\n  jump\t// out\n    /* \"#utility.yul\":139:235   */\ntag_16:\n    /* \"#utility.yul\":176:183   */\n  0x00\n    /* \"#utility.yul\":205:229   */\n  tag_21\n    /* \"#utility.yul\":223:228   */\n  dup3\n    /* \"#utility.yul\":205:229   */\n  tag_15\n  jump\t// in\ntag_21:\n    /* \"#utility.yul\":194:229   */\n  swap1\n  pop\n    /* \"#utility.yul\":139:235   */\n  swap2\n  swap1\n  pop\n  jump\t// out\n    /* \"#utility.yul\":241:359   */\ntag_17:\n    /* \"#utility.yul\":328:352   */\n  tag_23\n    /* \"#utility.yul\":346:351   */\n  dup2\n    /* \"#utility.yul\":328:352   */\n  tag_16\n  jump\t// in\ntag_23:\n    /* \"#utility.yul\":323:326   */\n  dup3\n    /* \"#utility.yul\":316:353   */\n  mstore\n    /* \"#utility.yul\":241:359   */\n  pop\n  pop\n  jump\t// out\n    /* \"#utility.yul\":365:587   */\ntag_8:\n    /* \"#utility.yul\":458:462   */\n  0x00\n    /* \"#utility.yul\":496:498   */\n  0x20\n    /* \"#utility.yul\":485:494   */\n  dup3\n    /* \"#utility.yul\":481:499   */\n  add\n    /* \"#utility.yul\":473:499   */\n  swap1\n  pop\n    /* \"#utility.yul\":509:580   */\n  tag_25\n    /* \"#utility.yul\":577:578   */\n  0x00\n    /* \"#utility.yul\":566:575   */\n  dup4\n    /* \"#utility.yul\":562:579   */\n  add\n    /* \"#utility.yul\":553:559   */\n  dup5\n    /* \"#utility.yul\":509:580   */\n  tag_17\n  jump\t// in\ntag_25:\n    /* \"#utility.yul\":365:587   */\n  swap3\n  swap2\n  pop\n  pop\n  jump\t// out\n    /* \"D/dataAvailabilitySampling.sol\":640:3551  contract DataAvailabilitySampling is Ownable, ReentrancyGuard {... */\ntag_13:\n  dataSize(sub_0)\n  dup1\n  dataOffset(sub_0)\n  0x00\n  codecopy\n  0x00\n  return\nstop\n\nsub_0: assembly {\n        /* \"D/dataAvailabilitySampling.sol\":640:3551  contract DataAvailabilitySampling is Ownable, ReentrancyGuard {... */\n      mstore(0x40, 0x80)\n      callvalue\n      dup1\n      iszero\n      tag_1\n      jumpi\n      revert(0x00, 0x00)\n    tag_1:\n      pop\n      jumpi(tag_2, lt(calldatasize, 0x04))\n      shr(0xe0, calldataload(0x00))\n      dup1\n      0x8aeb41f5\n      gt\n      tag_15\n      jumpi\n      dup1\n      0x8aeb41f5\n      eq\n      tag_9\n      jumpi\n      dup1\n      0x8da5cb5b\n      eq\n      tag_10\n      jumpi\n      dup1\n      0x994e2076\n      eq\n      tag_11\n      jumpi\n      dup1\n      0xa886f4c9\n      eq\n      tag_12\n      jumpi\n      dup1\n      0xdbcebae6\n      eq\n      tag_13\n      jumpi\n      dup1\n      0xf2fde38b\n      eq\n      tag_14\n      jumpi\n      jump(tag_2)\n    tag_15:\n      dup1\n      0x02108dd4\n      eq\n      tag_3\n      jumpi\n      dup1\n      0x021bcf9b\n      eq\n      tag_4\n      jumpi\n      dup1\n      0x6dff3584\n      eq\n      tag_5\n      jumpi\n      dup1\n      0x715018a6\n      eq\n      tag_6\n      jumpi\n      dup1\n      0x7cf5894d\n      eq\n      tag_7\n      jumpi\n      dup1\n      0x85556c07\n      eq\n      tag_8\n      jumpi\n    tag_2:\n      revert(0x00, 0x00)\n        /* \"D/dataAvailabilitySampling.sol\":2586:3248  function submitSample(... */\n    tag_3:\n      tag_16\n      0x04\n      dup1\n      calldatasize\n      sub\n      dup2\n      add\n      swap1\n      tag_17\n      swap2\n      swap1\n      tag_18\n      jump\t// in\n    tag_17:\n      tag_19\n      jump\t// in\n    tag_16:\n      stop\n        /* \"D/dataAvailabilitySampling.sol\":828:855  uint256 public totalSamples */\n    tag_4:\n      tag_20\n      tag_21\n      jump\t// in\n    tag_20:\n      mload(0x40)\n      tag_22\n      swap2\n      swap1\n      tag_23\n      jump\t// in\n    tag_22:\n      mload(0x40)\n      dup1\n      swap2\n      sub\n      swap1\n      return\n        /* \"D/dataAvailabilitySampling.sol\":767:790  bytes32 public dataRoot */\n    tag_5:\n      tag_24\n      tag_25\n      jump\t// in\n    tag_24:\n      mload(0x40)\n      tag_26\n      swap2\n      swap1\n      tag_27\n      jump\t// in\n    tag_26:\n      mload(0x40)\n      dup1\n      swap2\n      sub\n      swap1\n      return\n        /* \"@openzeppelin/contracts/access/Ownable.sol\":2293:2394  function renounceOwnership() public virtual onlyOwner {... */\n    tag_6:\n      tag_28\n      tag_29\n      jump\t// in\n    tag_28:\n      stop\n        /* \"D/dataAvailabilitySampling.sol\":1762:1954  function updateDataRoot(bytes32 _dataRoot) external onlyOwner {... */\n    tag_7:\n      tag_30\n      0x04\n      dup1\n      calldatasize\n      sub\n      dup2\n      add\n      swap1\n      tag_31\n      swap2\n      swap1\n      tag_32\n      jump\t// in\n    tag_31:\n      tag_33\n      jump\t// in\n    tag_30:\n      stop\n        /* \"D/dataAvailabilitySampling.sol\":1130:1197  mapping(address => mapping(uint256 => bool)) public sampleSubmitted */\n    tag_8:\n      tag_34\n      0x04\n      dup1\n      calldatasize\n      sub\n      dup2\n      add\n      swap1\n      tag_35\n      swap2\n      swap1\n      tag_36\n      jump\t// in\n    tag_35:\n      tag_37\n      jump\t// in\n    tag_34:\n      mload(0x40)\n      tag_38\n      swap2\n      swap1\n      tag_39\n      jump\t// in\n    tag_38:\n      mload(0x40)\n      dup1\n      swap2\n      sub\n      swap1\n      return\n        /* \"D/dataAvailabilitySampling.sol\":997:1027  uint256 public requiredSamples */\n    tag_9:\n      tag_40\n      tag_41\n      jump\t// in\n    tag_40:\n      mload(0x40)\n      tag_42\n      swap2\n      swap1\n      tag_23\n      jump\t// in\n    tag_42:\n      mload(0x40)\n      dup1\n      swap2\n      sub\n      swap1\n      return\n        /* \"@openzeppelin/contracts/access/Ownable.sol\":1638:1723  function owner() public view virtual returns (address) {... */\n    tag_10:\n      tag_43\n      tag_44\n      jump\t// in\n    tag_43:\n      mload(0x40)\n      tag_45\n      swap2\n      swap1\n      tag_46\n      jump\t// in\n    tag_45:\n      mload(0x40)\n      dup1\n      swap2\n      sub\n      swap1\n      return\n        /* \"D/dataAvailabilitySampling.sol\":3423:3549  function isDataAvailable() external view returns (bool available) {... */\n    tag_11:\n      tag_47\n      tag_48\n      jump\t// in\n    tag_47:\n      mload(0x40)\n      tag_49\n      swap2\n      swap1\n      tag_39\n      jump\t// in\n    tag_49:\n      mload(0x40)\n      dup1\n      swap2\n      sub\n      swap1\n      return\n        /* \"D/dataAvailabilitySampling.sol\":892:919  uint256 public validSamples */\n    tag_12:\n      tag_50\n      tag_51\n      jump\t// in\n    tag_50:\n      mload(0x40)\n      tag_52\n      swap2\n      swap1\n      tag_23\n      jump\t// in\n    tag_52:\n      mload(0x40)\n      dup1\n      swap2\n      sub\n      swap1\n      return\n        /* \"D/dataAvailabilitySampling.sol\":2087:2340  function updateRequiredSamples(uint256 _requiredSamples) external onlyOwner {... */\n    tag_13:\n      tag_53\n      0x04\n      dup1\n      calldatasize\n      sub\n      dup2\n      add\n      swap1\n      tag_54\n      swap2\n      swap1\n      tag_55\n      jump\t// in\n    tag_54:\n      tag_56\n      jump\t// in\n    tag_53:\n      stop\n        /* \"@openzeppelin/contracts/access/Ownable.sol\":2543:2758  function transferOwnership(address newOwner) public virtual onlyOwner {... */\n    tag_14:\n      tag_57\n      0x04\n      dup1\n      calldatasize\n      sub\n      dup2\n      add\n      swap1\n      tag_58\n      swap2\n      swap1\n      tag_59\n      jump\t// in\n    tag_58:\n      tag_60\n      jump\t// in\n    tag_57:\n      stop\n        /* \"D/dataAvailabilitySampling.sol\":2586:3248  function submitSample(... */\n    tag_19:\n        /* \"@openzeppelin/contracts/security/ReentrancyGuard.sol\":2261:2282  _nonReentrantBefore() */\n      tag_62\n        /* \"@openzeppelin/contracts/security/ReentrancyGuard.sol\":2261:2280  _nonReentrantBefore */\n      tag_63\n        /* \"@openzeppelin/contracts/security/ReentrancyGuard.sol\":2261:2282  _nonReentrantBefore() */\n      jump\t// in\n    tag_62:\n        /* \"D/dataAvailabilitySampling.sol\":2759:2760  0 */\n      0x00\n        /* \"D/dataAvailabilitySampling.sol\":2751:2761  bytes32(0) */\n      0x00\n      shl\n        /* \"D/dataAvailabilitySampling.sol\":2739:2747  dataRoot */\n      sload(0x02)\n        /* \"D/dataAvailabilitySampling.sol\":2739:2761  dataRoot != bytes32(0) */\n      sub\n        /* \"D/dataAvailabilitySampling.sol\":2731:2783  require(dataRoot != bytes32(0), \"Data root not set\") */\n      tag_65\n      jumpi\n      mload(0x40)\n      0x08c379a000000000000000000000000000000000000000000000000000000000\n      dup2\n      mstore\n      0x04\n      add\n      tag_66\n      swap1\n      tag_67\n      jump\t// in\n    tag_66:\n      mload(0x40)\n      dup1\n      swap2\n      sub\n      swap1\n      revert\n    tag_65:\n        /* \"D/dataAvailabilitySampling.sol\":2802:2817  sampleSubmitted */\n      0x06\n        /* \"D/dataAvailabilitySampling.sol\":2802:2829  sampleSubmitted[msg.sender] */\n      0x00\n        /* \"D/dataAvailabilitySampling.sol\":2818:2828  msg.sender */\n      caller\n        /* \"D/dataAvailabilitySampling.sol\":2802:2829  sampleSubmitted[msg.sender] */\n      0xffffffffffffffffffffffffffffffffffffffff\n      and\n      0xffffffffffffffffffffffffffffffffffffffff\n      and\n      dup2\n      mstore\n      0x20\n      add\n      swap1\n      dup2\n      mstore\n      0x20\n      add\n      0x00\n      keccak256\n        /* \"D/dataAvailabilitySampling.sol\":2802:2842  sampleSubmitted[msg.sender][sampleIndex] */\n      0x00\n        /* \"D/dataAvailabilitySampling.sol\":2830:2841  sampleIndex */\n      dup6\n        /* \"D/dataAvailabilitySampling.sol\":2802:2842  sampleSubmitted[msg.sender][sampleIndex] */\n      dup2\n      mstore\n      0x20\n      add\n      swap1\n      dup2\n      mstore\n      0x20\n      add\n      0x00\n      keccak256\n      0x00\n      swap1\n      sload\n      swap1\n      0x0100\n      exp\n      swap1\n      div\n      0xff\n      and\n        /* \"D/dataAvailabilitySampling.sol\":2801:2842  !sampleSubmitted[msg.sender][sampleIndex] */\n      iszero\n        /* \"D/dataAvailabilitySampling.sol\":2793:2886  require(!sampleSubmitted[msg.sender][sampleIndex], \"Sample already submitted for this index\") */\n      tag_68\n      jumpi\n      mload(0x40)\n      0x08c379a000000000000000000000000000000000000000000000000000000000\n      dup2\n      mstore\n      0x04\n      add\n      tag_69\n      swap1\n      tag_70\n      jump\t// in\n    tag_69:\n      mload(0x40)\n      dup1\n      swap2\n      sub\n      swap1\n      revert\n    tag_68:\n        /* \"D/dataAvailabilitySampling.sol\":2981:2985  true */\n      0x01\n        /* \"D/dataAvailabilitySampling.sol\":2938:2953  sampleSubmitted */\n      0x06\n        /* \"D/dataAvailabilitySampling.sol\":2938:2965  sampleSubmitted[msg.sender] */\n      0x00\n        /* \"D/dataAvailabilitySampling.sol\":2954:2964  msg.sender */\n      caller\n        /* \"D/dataAvailabilitySampling.sol\":2938:2965  sampleSubmitted[msg.sender] */\n      0xffffffffffffffffffffffffffffffffffffffff\n      and\n      0xffffffffffffffffffffffffffffffffffffffff\n      and\n      dup2\n      mstore\n      0x20\n      add\n      swap1\n      dup2\n      mstore\n      0x20\n      add\n      0x00\n      keccak256\n        /* \"D/dataAvailabilitySampling.sol\":2938:2978  sampleSubmitted[msg.sender][sampleIndex] */\n      0x00\n        /* \"D/dataAvailabilitySampling.sol\":2966:2977  sampleIndex */\n      dup7\n        /* \"D/dataAvailabilitySampling.sol\":2938:2978  sampleSubmitted[msg.sender][sampleIndex] */\n      dup2\n      mstore\n      0x20\n      add\n      swap1\n      dup2\n      mstore\n      0x20\n      add\n      0x00\n      keccak256\n      0x00\n        /* \"D/dataAvailabilitySampling.sol\":2938:2985  sampleSubmitted[msg.sender][sampleIndex] = true */\n      0x0100\n      exp\n      dup2\n      sload\n      dup2\n      0xff\n      mul\n      not\n      and\n      swap1\n      dup4\n      iszero\n      iszero\n      mul\n      or\n      swap1\n      sstore\n      pop\n        /* \"D/dataAvailabilitySampling.sol\":2995:3007  totalSamples */\n      0x03\n      0x00\n        /* \"D/dataAvailabilitySampling.sol\":2995:3009  totalSamples++ */\n      dup2\n      sload\n      dup1\n      swap3\n      swap2\n      swap1\n      tag_71\n      swap1\n      tag_72\n      jump\t// in\n    tag_71:\n      swap2\n      swap1\n      pop\n      sstore\n      pop\n        /* \"D/dataAvailabilitySampling.sol\":3065:3075  bool valid */\n      0x00\n        /* \"D/dataAvailabilitySampling.sol\":3078:3119  MerkleProof.verify(proof, dataRoot, leaf) */\n      tag_73\n        /* \"D/dataAvailabilitySampling.sol\":3097:3102  proof */\n      dup4\n      dup4\n        /* \"D/dataAvailabilitySampling.sol\":3078:3119  MerkleProof.verify(proof, dataRoot, leaf) */\n      dup1\n      dup1\n      0x20\n      mul\n      0x20\n      add\n      mload(0x40)\n      swap1\n      dup2\n      add\n      0x40\n      mstore\n      dup1\n      swap4\n      swap3\n      swap2\n      swap1\n      dup2\n      dup2\n      mstore\n      0x20\n      add\n      dup4\n      dup4\n      0x20\n      mul\n      dup1\n      dup3\n      dup5\n      calldatacopy\n      0x00\n      dup2\n      dup5\n      add\n      mstore\n      not(0x1f)\n      0x1f\n      dup3\n      add\n      and\n      swap1\n      pop\n      dup1\n      dup4\n      add\n      swap3\n      pop\n      pop\n      pop\n      pop\n      pop\n      pop\n      pop\n        /* \"D/dataAvailabilitySampling.sol\":3104:3112  dataRoot */\n      sload(0x02)\n        /* \"D/dataAvailabilitySampling.sol\":3114:3118  leaf */\n      dup7\n        /* \"D/dataAvailabilitySampling.sol\":3078:3096  MerkleProof.verify */\n      tag_74\n        /* \"D/dataAvailabilitySampling.sol\":3078:3119  MerkleProof.verify(proof, dataRoot, leaf) */\n      jump\t// in\n    tag_73:\n        /* \"D/dataAvailabilitySampling.sol\":3065:3119  bool valid = MerkleProof.verify(proof, dataRoot, leaf) */\n      swap1\n      pop\n        /* \"D/dataAvailabilitySampling.sol\":3133:3138  valid */\n      dup1\n        /* \"D/dataAvailabilitySampling.sol\":3129:3179  if (valid) {... */\n      iszero\n      tag_75\n      jumpi\n        /* \"D/dataAvailabilitySampling.sol\":3154:3166  validSamples */\n      0x04\n      0x00\n        /* \"D/dataAvailabilitySampling.sol\":3154:3168  validSamples++ */\n      dup2\n      sload\n      dup1\n      swap3\n      swap2\n      swap1\n      tag_76\n      swap1\n      tag_72\n      jump\t// in\n    tag_76:\n      swap2\n      swap1\n      pop\n      sstore\n      pop\n        /* \"D/dataAvailabilitySampling.sol\":3129:3179  if (valid) {... */\n    tag_75:\n        /* \"D/dataAvailabilitySampling.sol\":3210:3220  msg.sender */\n      caller\n        /* \"D/dataAvailabilitySampling.sol\":3194:3241  SampleSubmitted(msg.sender, sampleIndex, valid) */\n      0xffffffffffffffffffffffffffffffffffffffff\n      and\n      0x67029c13a7c2e4d18183f4b1dbebb895abe509bf82c32b86955567e7c3bdc9e9\n        /* \"D/dataAvailabilitySampling.sol\":3222:3233  sampleIndex */\n      dup7\n        /* \"D/dataAvailabilitySampling.sol\":3235:3240  valid */\n      dup4\n        /* \"D/dataAvailabilitySampling.sol\":3194:3241  SampleSubmitted(msg.sender, sampleIndex, valid) */\n      mload(0x40)\n      tag_77\n      swap3\n      swap2\n      swap1\n      tag_78\n      jump\t// in\n    tag_77:\n      mload(0x40)\n      dup1\n      swap2\n      sub\n      swap1\n      log2\n        /* \"D/dataAvailabilitySampling.sol\":2721:3248  {... */\n      pop\n        /* \"@openzeppelin/contracts/security/ReentrancyGuard.sol\":2303:2323  _nonReentrantAfter() */\n      tag_79\n        /* \"@openzeppelin/contracts/security/ReentrancyGuard.sol\":2303:2321  _nonReentrantAfter */\n      tag_80\n        /* \"@openzeppelin/contracts/security/ReentrancyGuard.sol\":2303:2323  _nonReentrantAfter() */\n      jump\t// in\n    tag_79:\n        /* \"D/dataAvailabilitySampling.sol\":2586:3248  function submitSample(... */\n      pop\n      pop\n      pop\n      pop\n      jump\t// out\n        /* \"D/dataAvailabilitySampling.sol\":828:855  uint256 public totalSamples */\n    tag_21:\n      sload(0x03)\n      dup2\n      jump\t// out\n        /* \"D/dataAvailabilitySampling.sol\":767:790  bytes32 public dataRoot */\n    tag_25:\n      sload(0x02)\n      dup2\n      jump\t// out\n        /* \"@openzeppelin/contracts/access/Ownable.sol\":2293:2394  function renounceOwnership() public virtual onlyOwner {... */\n    tag_29:\n        /* \"@openzeppelin/contracts/access/Ownable.sol\":1531:1544  _checkOwner() */\n      tag_82\n        /* \"@openzeppelin/contracts/access/Ownable.sol\":1531:1542  _checkOwner */\n      tag_83\n        /* \"@openzeppelin/contracts/access/Ownable.sol\":1531:1544  _checkOwner() */\n      jump\t// in\n    tag_82:\n        /* \"@openzeppelin/contracts/access/Ownable.sol\":2357:2387  _transferOwnership(address(0)) */\n      tag_85\n        /* \"@openzeppelin/contracts/access/Ownable.sol\":2384:2385  0 */\n      0x00\n        /* \"@openzeppelin/contracts/access/Ownable.sol\":2357:2375  _transferOwnership */\n      tag_86\n        /* \"@openzeppelin/contracts/access/Ownable.sol\":2357:2387  _transferOwnership(address(0)) */\n      jump\t// in\n    tag_85:\n        /* \"@openzeppelin/contracts/access/Ownable.sol\":2293:2394  function renounceOwnership() public virtual onlyOwner {... */\n      jump\t// out\n        /* \"D/dataAvailabilitySampling.sol\":1762:1954  function updateDataRoot(bytes32 _dataRoot) external onlyOwner {... */\n    tag_33:\n        /* \"@openzeppelin/contracts/access/Ownable.sol\":1531:1544  _checkOwner() */\n      tag_88\n        /* \"@openzeppelin/contracts/access/Ownable.sol\":1531:1542  _checkOwner */\n      tag_83\n        /* \"@openzeppelin/contracts/access/Ownable.sol\":1531:1544  _checkOwner() */\n      jump\t// in\n    tag_88:\n        /* \"D/dataAvailabilitySampling.sol\":1845:1854  _dataRoot */\n      dup1\n        /* \"D/dataAvailabilitySampling.sol\":1834:1842  dataRoot */\n      0x02\n        /* \"D/dataAvailabilitySampling.sol\":1834:1854  dataRoot = _dataRoot */\n      dup2\n      swap1\n      sstore\n      pop\n        /* \"D/dataAvailabilitySampling.sol\":1879:1880  0 */\n      0x00\n        /* \"D/dataAvailabilitySampling.sol\":1864:1876  totalSamples */\n      0x03\n        /* \"D/dataAvailabilitySampling.sol\":1864:1880  totalSamples = 0 */\n      dup2\n      swap1\n      sstore\n      pop\n        /* \"D/dataAvailabilitySampling.sol\":1905:1906  0 */\n      0x00\n        /* \"D/dataAvailabilitySampling.sol\":1890:1902  validSamples */\n      0x04\n        /* \"D/dataAvailabilitySampling.sol\":1890:1906  validSamples = 0 */\n      dup2\n      swap1\n      sstore\n      pop\n        /* \"D/dataAvailabilitySampling.sol\":1921:1947  DataRootUpdated(_dataRoot) */\n      0x3ef9f871d3fa30b23a7971bd4ce885f1edc4d2c8c177b87b307e75475854e522\n        /* \"D/dataAvailabilitySampling.sol\":1937:1946  _dataRoot */\n      dup2\n        /* \"D/dataAvailabilitySampling.sol\":1921:1947  DataRootUpdated(_dataRoot) */\n      mload(0x40)\n      tag_90\n      swap2\n      swap1\n      tag_27\n      jump\t// in\n    tag_90:\n      mload(0x40)\n      dup1\n      swap2\n      sub\n      swap1\n      log1\n        /* \"D/dataAvailabilitySampling.sol\":1762:1954  function updateDataRoot(bytes32 _dataRoot) external onlyOwner {... */\n      pop\n      jump\t// out\n        /* \"D/dataAvailabilitySampling.sol\":1130:1197  mapping(address => mapping(uint256 => bool)) public sampleSubmitted */\n    tag_37:\n      mstore(0x20, 0x06)\n      dup2\n      0x00\n      mstore\n      mstore(0x20, keccak256(0x00, 0x40))\n      dup1\n      0x00\n      mstore\n      keccak256(0x00, 0x40)\n      0x00\n      swap2\n      pop\n      swap2\n      pop\n      swap1\n      sload\n      swap1\n      0x0100\n      exp\n      swap1\n      div\n      0xff\n      and\n      dup2\n      jump\t// out\n        /* \"D/dataAvailabilitySampling.sol\":997:1027  uint256 public requiredSamples */\n    tag_41:\n      sload(0x05)\n      dup2\n      jump\t// out\n        /* \"@openzeppelin/contracts/access/Ownable.sol\":1638:1723  function owner() public view virtual returns (address) {... */\n    tag_44:\n        /* \"@openzeppelin/contracts/access/Ownable.sol\":1684:1691  address */\n      0x00\n        /* \"@openzeppelin/contracts/access/Ownable.sol\":1710:1716  _owner */\n      0x00\n      0x00\n      swap1\n      sload\n      swap1\n      0x0100\n      exp\n      swap1\n      div\n      0xffffffffffffffffffffffffffffffffffffffff\n      and\n        /* \"@openzeppelin/contracts/access/Ownable.sol\":1703:1716  return _owner */\n      swap1\n      pop\n        /* \"@openzeppelin/contracts/access/Ownable.sol\":1638:1723  function owner() public view virtual returns (address) {... */\n      swap1\n      jump\t// out\n        /* \"D/dataAvailabilitySampling.sol\":3423:3549  function isDataAvailable() external view returns (bool available) {... */\n    tag_48:\n        /* \"D/dataAvailabilitySampling.sol\":3473:3487  bool available */\n      0x00\n        /* \"D/dataAvailabilitySampling.sol\":3527:3542  requiredSamples */\n      sload(0x05)\n        /* \"D/dataAvailabilitySampling.sol\":3511:3523  validSamples */\n      sload(0x04)\n        /* \"D/dataAvailabilitySampling.sol\":3511:3542  validSamples >= requiredSamples */\n      lt\n      iszero\n        /* \"D/dataAvailabilitySampling.sol\":3499:3542  available = validSamples >= requiredSamples */\n      swap1\n      pop\n        /* \"D/dataAvailabilitySampling.sol\":3423:3549  function isDataAvailable() external view returns (bool available) {... */\n      swap1\n      jump\t// out\n        /* \"D/dataAvailabilitySampling.sol\":892:919  uint256 public validSamples */\n    tag_51:\n      sload(0x04)\n      dup2\n      jump\t// out\n        /* \"D/dataAvailabilitySampling.sol\":2087:2340  function updateRequiredSamples(uint256 _requiredSamples) external onlyOwner {... */\n    tag_56:\n        /* \"@openzeppelin/contracts/access/Ownable.sol\":1531:1544  _checkOwner() */\n      tag_94\n        /* \"@openzeppelin/contracts/access/Ownable.sol\":1531:1542  _checkOwner */\n      tag_83\n        /* \"@openzeppelin/contracts/access/Ownable.sol\":1531:1544  _checkOwner() */\n      jump\t// in\n    tag_94:\n        /* \"D/dataAvailabilitySampling.sol\":2200:2201  0 */\n      0x00\n        /* \"D/dataAvailabilitySampling.sol\":2181:2197  _requiredSamples */\n      dup2\n        /* \"D/dataAvailabilitySampling.sol\":2181:2201  _requiredSamples > 0 */\n      gt\n        /* \"D/dataAvailabilitySampling.sol\":2173:2234  require(_requiredSamples > 0, \"Required samples must be > 0\") */\n      tag_96\n      jumpi\n      mload(0x40)\n      0x08c379a000000000000000000000000000000000000000000000000000000000\n      dup2\n      mstore\n      0x04\n      add\n      tag_97\n      swap1\n      tag_98\n      jump\t// in\n    tag_97:\n      mload(0x40)\n      dup1\n      swap2\n      sub\n      swap1\n      revert\n    tag_96:\n        /* \"D/dataAvailabilitySampling.sol\":2262:2278  _requiredSamples */\n      dup1\n        /* \"D/dataAvailabilitySampling.sol\":2244:2259  requiredSamples */\n      0x05\n        /* \"D/dataAvailabilitySampling.sol\":2244:2278  requiredSamples = _requiredSamples */\n      dup2\n      swap1\n      sstore\n      pop\n        /* \"D/dataAvailabilitySampling.sol\":2293:2333  RequiredSamplesUpdated(_requiredSamples) */\n      0x8d6dcb7c3fc9858baf5e2b16f2f78ff2ee6b2bc94d975d1249b3cd2252413d85\n        /* \"D/dataAvailabilitySampling.sol\":2316:2332  _requiredSamples */\n      dup2\n        /* \"D/dataAvailabilitySampling.sol\":2293:2333  RequiredSamplesUpdated(_requiredSamples) */\n      mload(0x40)\n      tag_99\n      swap2\n      swap1\n      tag_23\n      jump\t// in\n    tag_99:\n      mload(0x40)\n      dup1\n      swap2\n      sub\n      swap1\n      log1\n        /* \"D/dataAvailabilitySampling.sol\":2087:2340  function updateRequiredSamples(uint256 _requiredSamples) external onlyOwner {... */\n      pop\n      jump\t// out\n        /* \"@openzeppelin/contracts/access/Ownable.sol\":2543:2758  function transferOwnership(address newOwner) public virtual onlyOwner {... */\n    tag_60:\n        /* \"@openzeppelin/contracts/access/Ownable.sol\":1531:1544  _checkOwner() */\n      tag_101\n        /* \"@openzeppelin/contracts/access/Ownable.sol\":1531:1542  _checkOwner */\n      tag_83\n        /* \"@openzeppelin/contracts/access/Ownable.sol\":1531:1544  _checkOwner() */\n      jump\t// in\n    tag_101:\n        /* \"@openzeppelin/contracts/access/Ownable.sol\":2647:2648  0 */\n      0x00\n        /* \"@openzeppelin/contracts/access/Ownable.sol\":2627:2649  newOwner == address(0) */\n      0xffffffffffffffffffffffffffffffffffffffff\n      and\n        /* \"@openzeppelin/contracts/access/Ownable.sol\":2627:2635  newOwner */\n      dup2\n        /* \"@openzeppelin/contracts/access/Ownable.sol\":2627:2649  newOwner == address(0) */\n      0xffffffffffffffffffffffffffffffffffffffff\n      and\n      sub\n        /* \"@openzeppelin/contracts/access/Ownable.sol\":2623:2714  if (newOwner == address(0)) {... */\n      tag_103\n      jumpi\n        /* \"@openzeppelin/contracts/access/Ownable.sol\":2700:2701  0 */\n      0x00\n        /* \"@openzeppelin/contracts/access/Ownable.sol\":2672:2703  OwnableInvalidOwner(address(0)) */\n      mload(0x40)\n      0x1e4fbdf700000000000000000000000000000000000000000000000000000000\n      dup2\n      mstore\n      0x04\n      add\n      tag_104\n      swap2\n      swap1\n      tag_46\n      jump\t// in\n    tag_104:\n      mload(0x40)\n      dup1\n      swap2\n      sub\n      swap1\n      revert\n        /* \"@openzeppelin/contracts/access/Ownable.sol\":2623:2714  if (newOwner == address(0)) {... */\n    tag_103:\n        /* \"@openzeppelin/contracts/access/Ownable.sol\":2723:2751  _transferOwnership(newOwner) */\n      tag_105\n        /* \"@openzeppelin/contracts/access/Ownable.sol\":2742:2750  newOwner */\n      dup2\n        /* \"@openzeppelin/contracts/access/Ownable.sol\":2723:2741  _transferOwnership */\n      tag_86\n        /* \"@openzeppelin/contracts/access/Ownable.sol\":2723:2751  _transferOwnership(newOwner) */\n      jump\t// in\n    tag_105:\n        /* \"@openzeppelin/contracts/access/Ownable.sol\":2543:2758  function transferOwnership(address newOwner) public virtual onlyOwner {... */\n      pop\n      jump\t// out\n        /* \"@openzeppelin/contracts/security/ReentrancyGuard.sol\":2336:2623  function _nonReentrantBefore() private {... */\n    tag_63:\n        /* \"@openzeppelin/contracts/security/ReentrancyGuard.sol\":1759:1760  2 */\n      0x02\n        /* \"@openzeppelin/contracts/security/ReentrancyGuard.sol\":2468:2475  _status */\n      sload(0x01)\n        /* \"@openzeppelin/contracts/security/ReentrancyGuard.sol\":2468:2487  _status != _ENTERED */\n      sub\n        /* \"@openzeppelin/contracts/security/ReentrancyGuard.sol\":2460:2523  require(_status != _ENTERED, \"ReentrancyGuard: reentrant call\") */\n      tag_107\n      jumpi\n      mload(0x40)\n      0x08c379a000000000000000000000000000000000000000000000000000000000\n      dup2\n      mstore\n      0x04\n      add\n      tag_108\n      swap1\n      tag_109\n      jump\t// in\n    tag_108:\n      mload(0x40)\n      dup1\n      swap2\n      sub\n      swap1\n      revert\n    tag_107:\n        /* \"@openzeppelin/contracts/security/ReentrancyGuard.sol\":1759:1760  2 */\n      0x02\n        /* \"@openzeppelin/contracts/security/ReentrancyGuard.sol\":2598:2605  _status */\n      0x01\n        /* \"@openzeppelin/contracts/security/ReentrancyGuard.sol\":2598:2616  _status = _ENTERED */\n      dup2\n      swap1\n      sstore\n      pop\n        /* \"@openzeppelin/contracts/security/ReentrancyGuard.sol\":2336:2623  function _nonReentrantBefore() private {... */\n      jump\t// out\n        /* \"@openzeppelin/contracts/utils/cryptography/MerkleProof.sol\":1902:2056  function verify(bytes32[] memory proof, bytes32 root, bytes32 leaf) internal pure returns (bool) {... */\n    tag_74:\n        /* \"@openzeppelin/contracts/utils/cryptography/MerkleProof.sol\":1993:1997  bool */\n      0x00\n        /* \"@openzeppelin/contracts/utils/cryptography/MerkleProof.sol\":2045:2049  root */\n      dup3\n        /* \"@openzeppelin/contracts/utils/cryptography/MerkleProof.sol\":2016:2041  processProof(proof, leaf) */\n      tag_111\n        /* \"@openzeppelin/contracts/utils/cryptography/MerkleProof.sol\":2029:2034  proof */\n      dup6\n        /* \"@openzeppelin/contracts/utils/cryptography/MerkleProof.sol\":2036:2040  leaf */\n      dup5\n        /* \"@openzeppelin/contracts/utils/cryptography/MerkleProof.sol\":2016:2028  processProof */\n      tag_112\n        /* \"@openzeppelin/contracts/utils/cryptography/MerkleProof.sol\":2016:2041  processProof(proof, leaf) */\n      jump\t// in\n    tag_111:\n        /* \"@openzeppelin/contracts/utils/cryptography/MerkleProof.sol\":2016:2049  processProof(proof, leaf) == root */\n      eq\n        /* \"@openzeppelin/contracts/utils/cryptography/MerkleProof.sol\":2009:2049  return processProof(proof, leaf) == root */\n      swap1\n      pop\n        /* \"@openzeppelin/contracts/utils/cryptography/MerkleProof.sol\":1902:2056  function verify(bytes32[] memory proof, bytes32 root, bytes32 leaf) internal pure returns (bool) {... */\n      swap4\n      swap3\n      pop\n      pop\n      pop\n      jump\t// out\n        /* \"@openzeppelin/contracts/security/ReentrancyGuard.sol\":2629:2838  function _nonReentrantAfter() private {... */\n    tag_80:\n        /* \"@openzeppelin/contracts/security/ReentrancyGuard.sol\":1716:1717  1 */\n      0x01\n        /* \"@openzeppelin/contracts/security/ReentrancyGuard.sol\":2809:2816  _status */\n      dup1\n        /* \"@openzeppelin/contracts/security/ReentrancyGuard.sol\":2809:2831  _status = _NOT_ENTERED */\n      dup2\n      swap1\n      sstore\n      pop\n        /* \"@openzeppelin/contracts/security/ReentrancyGuard.sol\":2629:2838  function _nonReentrantAfter() private {... */\n      jump\t// out\n        /* \"@openzeppelin/contracts/access/Ownable.sol\":1796:1958  function _checkOwner() internal view virtual {... */\n    tag_83:\n        /* \"@openzeppelin/contracts/access/Ownable.sol\":1866:1878  _msgSender() */\n      tag_115\n        /* \"@openzeppelin/contracts/access/Ownable.sol\":1866:1876  _msgSender */\n      tag_116\n        /* \"@openzeppelin/contracts/access/Ownable.sol\":1866:1878  _msgSender() */\n      jump\t// in\n    tag_115:\n        /* \"@openzeppelin/contracts/access/Ownable.sol\":1855:1878  owner() != _msgSender() */\n      0xffffffffffffffffffffffffffffffffffffffff\n      and\n        /* \"@openzeppelin/contracts/access/Ownable.sol\":1855:1862  owner() */\n      tag_117\n        /* \"@openzeppelin/contracts/access/Ownable.sol\":1855:1860  owner */\n      tag_44\n        /* \"@openzeppelin/contracts/access/Ownable.sol\":1855:1862  owner() */\n      jump\t// in\n    tag_117:\n        /* \"@openzeppelin/contracts/access/Ownable.sol\":1855:1878  owner() != _msgSender() */\n      0xffffffffffffffffffffffffffffffffffffffff\n      and\n      eq\n        /* \"@openzeppelin/contracts/access/Ownable.sol\":1851:1952  if (owner() != _msgSender()) {... */\n      tag_118\n      jumpi\n        /* \"@openzeppelin/contracts/access/Ownable.sol\":1928:1940  _msgSender() */\n      tag_119\n        /* \"@openzeppelin/contracts/access/Ownable.sol\":1928:1938  _msgSender */\n      tag_116\n        /* \"@openzeppelin/contracts/access/Ownable.sol\":1928:1940  _msgSender() */\n      jump\t// in\n    tag_119:\n        /* \"@openzeppelin/contracts/access/Ownable.sol\":1901:1941  OwnableUnauthorizedAccount(_msgSender()) */\n      mload(0x40)\n      0x118cdaa700000000000000000000000000000000000000000000000000000000\n      dup2\n      mstore\n      0x04\n      add\n      tag_120\n      swap2\n      swap1\n      tag_46\n      jump\t// in\n    tag_120:\n      mload(0x40)\n      dup1\n      swap2\n      sub\n      swap1\n      revert\n        /* \"@openzeppelin/contracts/access/Ownable.sol\":1851:1952  if (owner() != _msgSender()) {... */\n    tag_118:\n        /* \"@openzeppelin/contracts/access/Ownable.sol\":1796:1958  function _checkOwner() internal view virtual {... */\n      jump\t// out\n        /* \"@openzeppelin/contracts/access/Ownable.sol\":2912:3099  function _transferOwnership(address newOwner) internal virtual {... */\n    tag_86:\n        /* \"@openzeppelin/contracts/access/Ownable.sol\":2985:3001  address oldOwner */\n      0x00\n        /* \"@openzeppelin/contracts/access/Ownable.sol\":3004:3010  _owner */\n      0x00\n      0x00\n      swap1\n      sload\n      swap1\n      0x0100\n      exp\n      swap1\n      div\n      0xffffffffffffffffffffffffffffffffffffffff\n      and\n        /* \"@openzeppelin/contracts/access/Ownable.sol\":2985:3010  address oldOwner = _owner */\n      swap1\n      pop\n        /* \"@openzeppelin/contracts/access/Ownable.sol\":3029:3037  newOwner */\n      dup2\n        /* \"@openzeppelin/contracts/access/Ownable.sol\":3020:3026  _owner */\n      0x00\n      0x00\n        /* \"@openzeppelin/contracts/access/Ownable.sol\":3020:3037  _owner = newOwner */\n      0x0100\n      exp\n      dup2\n      sload\n      dup2\n      0xffffffffffffffffffffffffffffffffffffffff\n      mul\n      not\n      and\n      swap1\n      dup4\n      0xffffffffffffffffffffffffffffffffffffffff\n      and\n      mul\n      or\n      swap1\n      sstore\n      pop\n        /* \"@openzeppelin/contracts/access/Ownable.sol\":3083:3091  newOwner */\n      dup2\n        /* \"@openzeppelin/contracts/access/Ownable.sol\":3052:3092  OwnershipTransferred(oldOwner, newOwner) */\n      0xffffffffffffffffffffffffffffffffffffffff\n      and\n        /* \"@openzeppelin/contracts/access/Ownable.sol\":3073:3081  oldOwner */\n      dup2\n        /* \"@openzeppelin/contracts/access/Ownable.sol\":3052:3092  OwnershipTransferred(oldOwner, newOwner) */\n      0xffffffffffffffffffffffffffffffffffffffff\n      and\n      0x8be0079c531659141344cd1fd0a4f28419497f9722a3daafe3b4186f6b6457e0\n      mload(0x40)\n      mload(0x40)\n      dup1\n      swap2\n      sub\n      swap1\n      log3\n        /* \"@openzeppelin/contracts/access/Ownable.sol\":2975:3099  {... */\n      pop\n        /* \"@openzeppelin/contracts/access/Ownable.sol\":2912:3099  function _transferOwnership(address newOwner) internal virtual {... */\n      pop\n      jump\t// out\n        /* \"@openzeppelin/contracts/utils/cryptography/MerkleProof.sol\":2457:2765  function processProof(bytes32[] memory proof, bytes32 leaf) internal pure returns (bytes32) {... */\n    tag_112:\n        /* \"@openzeppelin/contracts/utils/cryptography/MerkleProof.sol\":2540:2547  bytes32 */\n      0x00\n        /* \"@openzeppelin/contracts/utils/cryptography/MerkleProof.sol\":2559:2579  bytes32 computedHash */\n      0x00\n        /* \"@openzeppelin/contracts/utils/cryptography/MerkleProof.sol\":2582:2586  leaf */\n      dup3\n        /* \"@openzeppelin/contracts/utils/cryptography/MerkleProof.sol\":2559:2586  bytes32 computedHash = leaf */\n      swap1\n      pop\n        /* \"@openzeppelin/contracts/utils/cryptography/MerkleProof.sol\":2601:2610  uint256 i */\n      0x00\n        /* \"@openzeppelin/contracts/utils/cryptography/MerkleProof.sol\":2613:2614  0 */\n      0x00\n        /* \"@openzeppelin/contracts/utils/cryptography/MerkleProof.sol\":2601:2614  uint256 i = 0 */\n      swap1\n      pop\n        /* \"@openzeppelin/contracts/utils/cryptography/MerkleProof.sol\":2596:2730  for (uint256 i = 0; i < proof.length; i++) {... */\n    tag_123:\n        /* \"@openzeppelin/contracts/utils/cryptography/MerkleProof.sol\":2620:2625  proof */\n      dup5\n        /* \"@openzeppelin/contracts/utils/cryptography/MerkleProof.sol\":2620:2632  proof.length */\n      mload\n        /* \"@openzeppelin/contracts/utils/cryptography/MerkleProof.sol\":2616:2617  i */\n      dup2\n        /* \"@openzeppelin/contracts/utils/cryptography/MerkleProof.sol\":2616:2632  i < proof.length */\n      lt\n        /* \"@openzeppelin/contracts/utils/cryptography/MerkleProof.sol\":2596:2730  for (uint256 i = 0; i < proof.length; i++) {... */\n      iszero\n      tag_124\n      jumpi\n        /* \"@openzeppelin/contracts/utils/cryptography/MerkleProof.sol\":2668:2719  Hashes.commutativeKeccak256(computedHash, proof[i]) */\n      tag_126\n        /* \"@openzeppelin/contracts/utils/cryptography/MerkleProof.sol\":2696:2708  computedHash */\n      dup3\n        /* \"@openzeppelin/contracts/utils/cryptography/MerkleProof.sol\":2710:2715  proof */\n      dup7\n        /* \"@openzeppelin/contracts/utils/cryptography/MerkleProof.sol\":2716:2717  i */\n      dup4\n        /* \"@openzeppelin/contracts/utils/cryptography/MerkleProof.sol\":2710:2718  proof[i] */\n      dup2\n      mload\n      dup2\n      lt\n      tag_127\n      jumpi\n      tag_128\n      tag_129\n      jump\t// in\n    tag_128:\n    tag_127:\n      0x20\n      mul\n      0x20\n      add\n      add\n      mload\n        /* \"@openzeppelin/contracts/utils/cryptography/MerkleProof.sol\":2668:2695  Hashes.commutativeKeccak256 */\n      tag_130\n        /* \"@openzeppelin/contracts/utils/cryptography/MerkleProof.sol\":2668:2719  Hashes.commutativeKeccak256(computedHash, proof[i]) */\n      jump\t// in\n    tag_126:\n        /* \"@openzeppelin/contracts/utils/cryptography/MerkleProof.sol\":2653:2719  computedHash = Hashes.commutativeKeccak256(computedHash, proof[i]) */\n      swap2\n      pop\n        /* \"@openzeppelin/contracts/utils/cryptography/MerkleProof.sol\":2634:2637  i++ */\n      dup1\n      dup1\n      0x01\n      add\n      swap2\n      pop\n      pop\n        /* \"@openzeppelin/contracts/utils/cryptography/MerkleProof.sol\":2596:2730  for (uint256 i = 0; i < proof.length; i++) {... */\n      jump(tag_123)\n    tag_124:\n      pop\n        /* \"@openzeppelin/contracts/utils/cryptography/MerkleProof.sol\":2746:2758  computedHash */\n      dup1\n        /* \"@openzeppelin/contracts/utils/cryptography/MerkleProof.sol\":2739:2758  return computedHash */\n      swap2\n      pop\n      pop\n        /* \"@openzeppelin/contracts/utils/cryptography/MerkleProof.sol\":2457:2765  function processProof(bytes32[] memory proof, bytes32 leaf) internal pure returns (bytes32) {... */\n      swap3\n      swap2\n      pop\n      pop\n      jump\t// out\n        /* \"@openzeppelin/contracts/utils/Context.sol\":656:752  function _msgSender() internal view virtual returns (address) {... */\n    tag_116:\n        /* \"@openzeppelin/contracts/utils/Context.sol\":709:716  address */\n      0x00\n        /* \"@openzeppelin/contracts/utils/Context.sol\":735:745  msg.sender */\n      caller\n        /* \"@openzeppelin/contracts/utils/Context.sol\":728:745  return msg.sender */\n      swap1\n      pop\n        /* \"@openzeppelin/contracts/utils/Context.sol\":656:752  function _msgSender() internal view virtual returns (address) {... */\n      swap1\n      jump\t// out\n        /* \"@openzeppelin/contracts/utils/cryptography/Hashes.sol\":504:673  function commutativeKeccak256(bytes32 a, bytes32 b) internal pure returns (bytes32) {... */\n    tag_130:\n        /* \"@openzeppelin/contracts/utils/cryptography/Hashes.sol\":579:586  bytes32 */\n      0x00\n        /* \"@openzeppelin/contracts/utils/cryptography/Hashes.sol\":609:610  b */\n      dup2\n        /* \"@openzeppelin/contracts/utils/cryptography/Hashes.sol\":605:606  a */\n      dup4\n        /* \"@openzeppelin/contracts/utils/cryptography/Hashes.sol\":605:610  a < b */\n      lt\n        /* \"@openzeppelin/contracts/utils/cryptography/Hashes.sol\":605:666  a < b ? _efficientKeccak256(a, b) : _efficientKeccak256(b, a) */\n      tag_133\n      jumpi\n        /* \"@openzeppelin/contracts/utils/cryptography/Hashes.sol\":641:666  _efficientKeccak256(b, a) */\n      tag_134\n        /* \"@openzeppelin/contracts/utils/cryptography/Hashes.sol\":661:662  b */\n      dup3\n        /* \"@openzeppelin/contracts/utils/cryptography/Hashes.sol\":664:665  a */\n      dup5\n        /* \"@openzeppelin/contracts/utils/cryptography/Hashes.sol\":641:660  _efficientKeccak256 */\n      tag_135\n        /* \"@openzeppelin/contracts/utils/cryptography/Hashes.sol\":641:666  _efficientKeccak256(b, a) */\n      jump\t// in\n    tag_134:\n        /* \"@openzeppelin/contracts/utils/cryptography/Hashes.sol\":605:666  a < b ? _efficientKeccak256(a, b) : _efficientKeccak256(b, a) */\n      jump(tag_136)\n    tag_133:\n        /* \"@openzeppelin/contracts/utils/cryptography/Hashes.sol\":613:638  _efficientKeccak256(a, b) */\n      tag_137\n        /* \"@openzeppelin/contracts/utils/cryptography/Hashes.sol\":633:634  a */\n      dup4\n        /* \"@openzeppelin/contracts/utils/cryptography/Hashes.sol\":636:637  b */\n      dup4\n        /* \"@openzeppelin/contracts/utils/cryptography/Hashes.sol\":613:632  _efficientKeccak256 */\n      tag_135\n        /* \"@openzeppelin/contracts/utils/cryptography/Hashes.sol\":613:638  _efficientKeccak256(a, b) */\n      jump\t// in\n    tag_137:\n        /* \"@openzeppelin/contracts/utils/cryptography/Hashes.sol\":605:666  a < b ? _efficientKeccak256(a, b) : _efficientKeccak256(b, a) */\n    tag_136:\n        /* \"@openzeppelin/contracts/utils/cryptography/Hashes.sol\":598:666  return a < b ? _efficientKeccak256(a, b) : _efficientKeccak256(b, a) */\n      swap1\n      pop\n        /* \"@openzeppelin/contracts/utils/cryptography/Hashes.sol\":504:673  function commutativeKeccak256(bytes32 a, bytes32 b) internal pure returns (bytes32) {... */\n      swap3\n      swap2\n      pop\n      pop\n      jump\t// out\n        /* \"@openzeppelin/contracts/utils/cryptography/Hashes.sol\":793:1032  function _efficientKeccak256(bytes32 a, bytes32 b) private pure returns (bytes32 value) {... */\n    tag_135:\n        /* \"@openzeppelin/contracts/utils/cryptography/Hashes.sol\":866:879  bytes32 value */\n      0x00\n        /* \"@openzeppelin/contracts/utils/cryptography/Hashes.sol\":943:944  a */\n      dup3\n        /* \"@openzeppelin/contracts/utils/cryptography/Hashes.sol\":937:941  0x00 */\n      0x00\n        /* \"@openzeppelin/contracts/utils/cryptography/Hashes.sol\":930:945  mstore(0x00, a) */\n      mstore\n        /* \"@openzeppelin/contracts/utils/cryptography/Hashes.sol\":971:972  b */\n      dup2\n        /* \"@openzeppelin/contracts/utils/cryptography/Hashes.sol\":965:969  0x20 */\n      0x20\n        /* \"@openzeppelin/contracts/utils/cryptography/Hashes.sol\":958:973  mstore(0x20, b) */\n      mstore\n        /* \"@openzeppelin/contracts/utils/cryptography/Hashes.sol\":1011:1015  0x40 */\n      0x40\n        /* \"@openzeppelin/contracts/utils/cryptography/Hashes.sol\":1005:1009  0x00 */\n      0x00\n        /* \"@openzeppelin/contracts/utils/cryptography/Hashes.sol\":995:1016  keccak256(0x00, 0x40) */\n      keccak256\n        /* \"@openzeppelin/contracts/utils/cryptography/Hashes.sol\":986:1016  value := keccak256(0x00, 0x40) */\n      swap1\n      pop\n        /* \"@openzeppelin/contracts/utils/cryptography/Hashes.sol\":793:1032  function _efficientKeccak256(bytes32 a, bytes32 b) private pure returns (bytes32 value) {... */\n      swap3\n      swap2\n      pop\n      pop\n      jump\t// out\n        /* \"#utility.yul\":88:205   */\n    tag_140:\n        /* \"#utility.yul\":197:198   */\n      0x00\n        /* \"#utility.yul\":194:195   */\n      0x00\n        /* \"#utility.yul\":187:199   */\n      revert\n        /* \"#utility.yul\":211:328   */\n    tag_141:\n        /* \"#utility.yul\":320:321   */\n      0x00\n        /* \"#utility.yul\":317:318   */\n      0x00\n        /* \"#utility.yul\":310:322   */\n      revert\n        /* \"#utility.yul\":334:411   */\n    tag_142:\n        /* \"#utility.yul\":371:378   */\n      0x00\n        /* \"#utility.yul\":400:405   */\n      dup2\n        /* \"#utility.yul\":389:405   */\n      swap1\n      pop\n        /* \"#utility.yul\":334:411   */\n      swap2\n      swap1\n      pop\n      jump\t// out\n        /* \"#utility.yul\":417:539   */\n    tag_143:\n        /* \"#utility.yul\":490:514   */\n      tag_177\n        /* \"#utility.yul\":508:513   */\n      dup2\n        /* \"#utility.yul\":490:514   */\n      tag_142\n      jump\t// in\n    tag_177:\n        /* \"#utility.yul\":483:488   */\n      dup2\n        /* \"#utility.yul\":480:515   */\n      eq\n        /* \"#utility.yul\":470:533   */\n      tag_178\n      jumpi\n        /* \"#utility.yul\":529:530   */\n      0x00\n        /* \"#utility.yul\":526:527   */\n      0x00\n        /* \"#utility.yul\":519:531   */\n      revert\n        /* \"#utility.yul\":470:533   */\n    tag_178:\n        /* \"#utility.yul\":417:539   */\n      pop\n      jump\t// out\n        /* \"#utility.yul\":545:684   */\n    tag_144:\n        /* \"#utility.yul\":591:596   */\n      0x00\n        /* \"#utility.yul\":629:635   */\n      dup2\n        /* \"#utility.yul\":616:636   */\n      calldataload\n        /* \"#utility.yul\":607:636   */\n      swap1\n      pop\n        /* \"#utility.yul\":645:678   */\n      tag_180\n        /* \"#utility.yul\":672:677   */\n      dup2\n        /* \"#utility.yul\":645:678   */\n      tag_143\n      jump\t// in\n    tag_180:\n        /* \"#utility.yul\":545:684   */\n      swap3\n      swap2\n      pop\n      pop\n      jump\t// out\n        /* \"#utility.yul\":690:767   */\n    tag_145:\n        /* \"#utility.yul\":727:734   */\n      0x00\n        /* \"#utility.yul\":756:761   */\n      dup2\n        /* \"#utility.yul\":745:761   */\n      swap1\n      pop\n        /* \"#utility.yul\":690:767   */\n      swap2\n      swap1\n      pop\n      jump\t// out\n        /* \"#utility.yul\":773:895   */\n    tag_146:\n        /* \"#utility.yul\":846:870   */\n      tag_183\n        /* \"#utility.yul\":864:869   */\n      dup2\n        /* \"#utility.yul\":846:870   */\n      tag_145\n      jump\t// in\n    tag_183:\n        /* \"#utility.yul\":839:844   */\n      dup2\n        /* \"#utility.yul\":836:871   */\n      eq\n        /* \"#utility.yul\":826:889   */\n      tag_184\n      jumpi\n        /* \"#utility.yul\":885:886   */\n      0x00\n        /* \"#utility.yul\":882:883   */\n      0x00\n        /* \"#utility.yul\":875:887   */\n      revert\n        /* \"#utility.yul\":826:889   */\n    tag_184:\n        /* \"#utility.yul\":773:895   */\n      pop\n      jump\t// out\n        /* \"#utility.yul\":901:1040   */\n    tag_147:\n        /* \"#utility.yul\":947:952   */\n      0x00\n        /* \"#utility.yul\":985:991   */\n      dup2\n        /* \"#utility.yul\":972:992   */\n      calldataload\n        /* \"#utility.yul\":963:992   */\n      swap1\n      pop\n        /* \"#utility.yul\":1001:1034   */\n      tag_186\n        /* \"#utility.yul\":1028:1033   */\n      dup2\n        /* \"#utility.yul\":1001:1034   */\n      tag_146\n      jump\t// in\n    tag_186:\n        /* \"#utility.yul\":901:1040   */\n      swap3\n      swap2\n      pop\n      pop\n      jump\t// out\n        /* \"#utility.yul\":1046:1163   */\n    tag_148:\n        /* \"#utility.yul\":1155:1156   */\n      0x00\n        /* \"#utility.yul\":1152:1153   */\n      0x00\n        /* \"#utility.yul\":1145:1157   */\n      revert\n        /* \"#utility.yul\":1169:1286   */\n    tag_149:\n        /* \"#utility.yul\":1278:1279   */\n      0x00\n        /* \"#utility.yul\":1275:1276   */\n      0x00\n        /* \"#utility.yul\":1268:1280   */\n      revert\n        /* \"#utility.yul\":1292:1409   */\n    tag_150:\n        /* \"#utility.yul\":1401:1402   */\n      0x00\n        /* \"#utility.yul\":1398:1399   */\n      0x00\n        /* \"#utility.yul\":1391:1403   */\n      revert\n        /* \"#utility.yul\":1432:2000   */\n    tag_151:\n        /* \"#utility.yul\":1505:1513   */\n      0x00\n        /* \"#utility.yul\":1515:1521   */\n      0x00\n        /* \"#utility.yul\":1565:1568   */\n      dup4\n        /* \"#utility.yul\":1558:1562   */\n      0x1f\n        /* \"#utility.yul\":1550:1556   */\n      dup5\n        /* \"#utility.yul\":1546:1563   */\n      add\n        /* \"#utility.yul\":1542:1569   */\n      slt\n        /* \"#utility.yul\":1532:1654   */\n      tag_191\n      jumpi\n        /* \"#utility.yul\":1573:1652   */\n      tag_192\n      tag_148\n      jump\t// in\n    tag_192:\n        /* \"#utility.yul\":1532:1654   */\n    tag_191:\n        /* \"#utility.yul\":1686:1692   */\n      dup3\n        /* \"#utility.yul\":1673:1693   */\n      calldataload\n        /* \"#utility.yul\":1663:1693   */\n      swap1\n      pop\n        /* \"#utility.yul\":1716:1734   */\n      0xffffffffffffffff\n        /* \"#utility.yul\":1708:1714   */\n      dup2\n        /* \"#utility.yul\":1705:1735   */\n      gt\n        /* \"#utility.yul\":1702:1819   */\n      iszero\n      tag_193\n      jumpi\n        /* \"#utility.yul\":1738:1817   */\n      tag_194\n      tag_149\n      jump\t// in\n    tag_194:\n        /* \"#utility.yul\":1702:1819   */\n    tag_193:\n        /* \"#utility.yul\":1852:1856   */\n      0x20\n        /* \"#utility.yul\":1844:1850   */\n      dup4\n        /* \"#utility.yul\":1840:1857   */\n      add\n        /* \"#utility.yul\":1828:1857   */\n      swap2\n      pop\n        /* \"#utility.yul\":1906:1909   */\n      dup4\n        /* \"#utility.yul\":1898:1902   */\n      0x20\n        /* \"#utility.yul\":1890:1896   */\n      dup3\n        /* \"#utility.yul\":1886:1903   */\n      mul\n        /* \"#utility.yul\":1876:1884   */\n      dup4\n        /* \"#utility.yul\":1872:1904   */\n      add\n        /* \"#utility.yul\":1869:1910   */\n      gt\n        /* \"#utility.yul\":1866:1994   */\n      iszero\n      tag_195\n      jumpi\n        /* \"#utility.yul\":1913:1992   */\n      tag_196\n      tag_150\n      jump\t// in\n    tag_196:\n        /* \"#utility.yul\":1866:1994   */\n    tag_195:\n        /* \"#utility.yul\":1432:2000   */\n      swap3\n      pop\n      swap3\n      swap1\n      pop\n      jump\t// out\n        /* \"#utility.yul\":2006:2855   */\n    tag_18:\n        /* \"#utility.yul\":2110:2116   */\n      0x00\n        /* \"#utility.yul\":2118:2124   */\n      0x00\n        /* \"#utility.yul\":2126:2132   */\n      0x00\n        /* \"#utility.yul\":2134:2140   */\n      0x00\n        /* \"#utility.yul\":2183:2185   */\n      0x60\n        /* \"#utility.yul\":2171:2180   */\n      dup6\n        /* \"#utility.yul\":2162:2169   */\n      dup8\n        /* \"#utility.yul\":2158:2181   */\n      sub\n        /* \"#utility.yul\":2154:2186   */\n      slt\n        /* \"#utility.yul\":2151:2270   */\n      iszero\n      tag_198\n      jumpi\n        /* \"#utility.yul\":2189:2268   */\n      tag_199\n      tag_140\n      jump\t// in\n    tag_199:\n        /* \"#utility.yul\":2151:2270   */\n    tag_198:\n        /* \"#utility.yul\":2309:2310   */\n      0x00\n        /* \"#utility.yul\":2334:2387   */\n      tag_200\n        /* \"#utility.yul\":2379:2386   */\n      dup8\n        /* \"#utility.yul\":2370:2376   */\n      dup3\n        /* \"#utility.yul\":2359:2368   */\n      dup9\n        /* \"#utility.yul\":2355:2377   */\n      add\n        /* \"#utility.yul\":2334:2387   */\n      tag_144\n      jump\t// in\n    tag_200:\n        /* \"#utility.yul\":2324:2387   */\n      swap5\n      pop\n        /* \"#utility.yul\":2280:2397   */\n      pop\n        /* \"#utility.yul\":2436:2438   */\n      0x20\n        /* \"#utility.yul\":2462:2515   */\n      tag_201\n        /* \"#utility.yul\":2507:2514   */\n      dup8\n        /* \"#utility.yul\":2498:2504   */\n      dup3\n        /* \"#utility.yul\":2487:2496   */\n      dup9\n        /* \"#utility.yul\":2483:2505   */\n      add\n        /* \"#utility.yul\":2462:2515   */\n      tag_147\n      jump\t// in\n    tag_201:\n        /* \"#utility.yul\":2452:2515   */\n      swap4\n      pop\n        /* \"#utility.yul\":2407:2525   */\n      pop\n        /* \"#utility.yul\":2592:2594   */\n      0x40\n        /* \"#utility.yul\":2581:2590   */\n      dup6\n        /* \"#utility.yul\":2577:2595   */\n      add\n        /* \"#utility.yul\":2564:2596   */\n      calldataload\n        /* \"#utility.yul\":2623:2641   */\n      0xffffffffffffffff\n        /* \"#utility.yul\":2615:2621   */\n      dup2\n        /* \"#utility.yul\":2612:2642   */\n      gt\n        /* \"#utility.yul\":2609:2726   */\n      iszero\n      tag_202\n      jumpi\n        /* \"#utility.yul\":2645:2724   */\n      tag_203\n      tag_141\n      jump\t// in\n    tag_203:\n        /* \"#utility.yul\":2609:2726   */\n    tag_202:\n        /* \"#utility.yul\":2758:2838   */\n      tag_204\n        /* \"#utility.yul\":2830:2837   */\n      dup8\n        /* \"#utility.yul\":2821:2827   */\n      dup3\n        /* \"#utility.yul\":2810:2819   */\n      dup9\n        /* \"#utility.yul\":2806:2828   */\n      add\n        /* \"#utility.yul\":2758:2838   */\n      tag_151\n      jump\t// in\n    tag_204:\n        /* \"#utility.yul\":2740:2838   */\n      swap3\n      pop\n      swap3\n      pop\n        /* \"#utility.yul\":2535:2848   */\n      pop\n        /* \"#utility.yul\":2006:2855   */\n      swap3\n      swap6\n      swap2\n      swap5\n      pop\n      swap3\n      pop\n      jump\t// out\n        /* \"#utility.yul\":2861:2979   */\n    tag_152:\n        /* \"#utility.yul\":2948:2972   */\n      tag_206\n        /* \"#utility.yul\":2966:2971   */\n      dup2\n        /* \"#utility.yul\":2948:2972   */\n      tag_142\n      jump\t// in\n    tag_206:\n        /* \"#utility.yul\":2943:2946   */\n      dup3\n        /* \"#utility.yul\":2936:2973   */\n      mstore\n        /* \"#utility.yul\":2861:2979   */\n      pop\n      pop\n      jump\t// out\n        /* \"#utility.yul\":2985:3207   */\n    tag_23:\n        /* \"#utility.yul\":3078:3082   */\n      0x00\n        /* \"#utility.yul\":3116:3118   */\n      0x20\n        /* \"#utility.yul\":3105:3114   */\n      dup3\n        /* \"#utility.yul\":3101:3119   */\n      add\n        /* \"#utility.yul\":3093:3119   */\n      swap1\n      pop\n        /* \"#utility.yul\":3129:3200   */\n      tag_208\n        /* \"#utility.yul\":3197:3198   */\n      0x00\n        /* \"#utility.yul\":3186:3195   */\n      dup4\n        /* \"#utility.yul\":3182:3199   */\n      add\n        /* \"#utility.yul\":3173:3179   */\n      dup5\n        /* \"#utility.yul\":3129:3200   */\n      tag_152\n      jump\t// in\n    tag_208:\n        /* \"#utility.yul\":2985:3207   */\n      swap3\n      swap2\n      pop\n      pop\n      jump\t// out\n        /* \"#utility.yul\":3213:3331   */\n    tag_153:\n        /* \"#utility.yul\":3300:3324   */\n      tag_210\n        /* \"#utility.yul\":3318:3323   */\n      dup2\n        /* \"#utility.yul\":3300:3324   */\n      tag_145\n      jump\t// in\n    tag_210:\n        /* \"#utility.yul\":3295:3298   */\n      dup3\n        /* \"#utility.yul\":3288:3325   */\n      mstore\n        /* \"#utility.yul\":3213:3331   */\n      pop\n      pop\n      jump\t// out\n        /* \"#utility.yul\":3337:3559   */\n    tag_27:\n        /* \"#utility.yul\":3430:3434   */\n      0x00\n        /* \"#utility.yul\":3468:3470   */\n      0x20\n        /* \"#utility.yul\":3457:3466   */\n      dup3\n        /* \"#utility.yul\":3453:3471   */\n      add\n        /* \"#utility.yul\":3445:3471   */\n      swap1\n      pop\n        /* \"#utility.yul\":3481:3552   */\n      tag_212\n        /* \"#utility.yul\":3549:3550   */\n      0x00\n        /* \"#utility.yul\":3538:3547   */\n      dup4\n        /* \"#utility.yul\":3534:3551   */\n      add\n        /* \"#utility.yul\":3525:3531   */\n      dup5\n        /* \"#utility.yul\":3481:3552   */\n      tag_153\n      jump\t// in\n    tag_212:\n        /* \"#utility.yul\":3337:3559   */\n      swap3\n      swap2\n      pop\n      pop\n      jump\t// out\n        /* \"#utility.yul\":3565:3894   */\n    tag_32:\n        /* \"#utility.yul\":3624:3630   */\n      0x00\n        /* \"#utility.yul\":3673:3675   */\n      0x20\n        /* \"#utility.yul\":3661:3670   */\n      dup3\n        /* \"#utility.yul\":3652:3659   */\n      dup5\n        /* \"#utility.yul\":3648:3671   */\n      sub\n        /* \"#utility.yul\":3644:3676   */\n      slt\n        /* \"#utility.yul\":3641:3760   */\n      iszero\n      tag_214\n      jumpi\n        /* \"#utility.yul\":3679:3758   */\n      tag_215\n      tag_140\n      jump\t// in\n    tag_215:\n        /* \"#utility.yul\":3641:3760   */\n    tag_214:\n        /* \"#utility.yul\":3799:3800   */\n      0x00\n        /* \"#utility.yul\":3824:3877   */\n      tag_216\n        /* \"#utility.yul\":3869:3876   */\n      dup5\n        /* \"#utility.yul\":3860:3866   */\n      dup3\n        /* \"#utility.yul\":3849:3858   */\n      dup6\n        /* \"#utility.yul\":3845:3867   */\n      add\n        /* \"#utility.yul\":3824:3877   */\n      tag_147\n      jump\t// in\n    tag_216:\n        /* \"#utility.yul\":3814:3877   */\n      swap2\n      pop\n        /* \"#utility.yul\":3770:3887   */\n      pop\n        /* \"#utility.yul\":3565:3894   */\n      swap3\n      swap2\n      pop\n      pop\n      jump\t// out\n        /* \"#utility.yul\":3900:4026   */\n    tag_154:\n        /* \"#utility.yul\":3937:3944   */\n      0x00\n        /* \"#utility.yul\":3977:4019   */\n      0xffffffffffffffffffffffffffffffffffffffff\n        /* \"#utility.yul\":3970:3975   */\n      dup3\n        /* \"#utility.yul\":3966:4020   */\n      and\n        /* \"#utility.yul\":3955:4020   */\n      swap1\n      pop\n        /* \"#utility.yul\":3900:4026   */\n      swap2\n      swap1\n      pop\n      jump\t// out\n        /* \"#utility.yul\":4032:4128   */\n    tag_155:\n        /* \"#utility.yul\":4069:4076   */\n      0x00\n        /* \"#utility.yul\":4098:4122   */\n      tag_219\n        /* \"#utility.yul\":4116:4121   */\n      dup3\n        /* \"#utility.yul\":4098:4122   */\n      tag_154\n      jump\t// in\n    tag_219:\n        /* \"#utility.yul\":4087:4122   */\n      swap1\n      pop\n        /* \"#utility.yul\":4032:4128   */\n      swap2\n      swap1\n      pop\n      jump\t// out\n        /* \"#utility.yul\":4134:4256   */\n    tag_156:\n        /* \"#utility.yul\":4207:4231   */\n      tag_221\n        /* \"#utility.yul\":4225:4230   */\n      dup2\n        /* \"#utility.yul\":4207:4231   */\n      tag_155\n      jump\t// in\n    tag_221:\n        /* \"#utility.yul\":4200:4205   */\n      dup2\n        /* \"#utility.yul\":4197:4232   */\n      eq\n        /* \"#utility.yul\":4187:4250   */\n      tag_222\n      jumpi\n        /* \"#utility.yul\":4246:4247   */\n      0x00\n        /* \"#utility.yul\":4243:4244   */\n      0x00\n        /* \"#utility.yul\":4236:4248   */\n      revert\n        /* \"#utility.yul\":4187:4250   */\n    tag_222:\n        /* \"#utility.yul\":4134:4256   */\n      pop\n      jump\t// out\n        /* \"#utility.yul\":4262:4401   */\n    tag_157:\n        /* \"#utility.yul\":4308:4313   */\n      0x00\n        /* \"#utility.yul\":4346:4352   */\n      dup2\n        /* \"#utility.yul\":4333:4353   */\n      calldataload\n        /* \"#utility.yul\":4324:4353   */\n      swap1\n      pop\n        /* \"#utility.yul\":4362:4395   */\n      tag_224\n        /* \"#utility.yul\":4389:4394   */\n      dup2\n        /* \"#utility.yul\":4362:4395   */\n      tag_156\n      jump\t// in\n    tag_224:\n        /* \"#utility.yul\":4262:4401   */\n      swap3\n      swap2\n      pop\n      pop\n      jump\t// out\n        /* \"#utility.yul\":4407:4881   */\n    tag_36:\n        /* \"#utility.yul\":4475:4481   */\n      0x00\n        /* \"#utility.yul\":4483:4489   */\n      0x00\n        /* \"#utility.yul\":4532:4534   */\n      0x40\n        /* \"#utility.yul\":4520:4529   */\n      dup4\n        /* \"#utility.yul\":4511:4518   */\n      dup6\n        /* \"#utility.yul\":4507:4530   */\n      sub\n        /* \"#utility.yul\":4503:4535   */\n      slt\n        /* \"#utility.yul\":4500:4619   */\n      iszero\n      tag_226\n      jumpi\n        /* \"#utility.yul\":4538:4617   */\n      tag_227\n      tag_140\n      jump\t// in\n    tag_227:\n        /* \"#utility.yul\":4500:4619   */\n    tag_226:\n        /* \"#utility.yul\":4658:4659   */\n      0x00\n        /* \"#utility.yul\":4683:4736   */\n      tag_228\n        /* \"#utility.yul\":4728:4735   */\n      dup6\n        /* \"#utility.yul\":4719:4725   */\n      dup3\n        /* \"#utility.yul\":4708:4717   */\n      dup7\n        /* \"#utility.yul\":4704:4726   */\n      add\n        /* \"#utility.yul\":4683:4736   */\n      tag_157\n      jump\t// in\n    tag_228:\n        /* \"#utility.yul\":4673:4736   */\n      swap3\n      pop\n        /* \"#utility.yul\":4629:4746   */\n      pop\n        /* \"#utility.yul\":4785:4787   */\n      0x20\n        /* \"#utility.yul\":4811:4864   */\n      tag_229\n        /* \"#utility.yul\":4856:4863   */\n      dup6\n        /* \"#utility.yul\":4847:4853   */\n      dup3\n        /* \"#utility.yul\":4836:4845   */\n      dup7\n        /* \"#utility.yul\":4832:4854   */\n      add\n        /* \"#utility.yul\":4811:4864   */\n      tag_144\n      jump\t// in\n    tag_229:\n        /* \"#utility.yul\":4801:4864   */\n      swap2\n      pop\n        /* \"#utility.yul\":4756:4874   */\n      pop\n        /* \"#utility.yul\":4407:4881   */\n      swap3\n      pop\n      swap3\n      swap1\n      pop\n      jump\t// out\n        /* \"#utility.yul\":4887:4977   */\n    tag_158:\n        /* \"#utility.yul\":4921:4928   */\n      0x00\n        /* \"#utility.yul\":4964:4969   */\n      dup2\n        /* \"#utility.yul\":4957:4970   */\n      iszero\n        /* \"#utility.yul\":4950:4971   */\n      iszero\n        /* \"#utility.yul\":4939:4971   */\n      swap1\n      pop\n        /* \"#utility.yul\":4887:4977   */\n      swap2\n      swap1\n      pop\n      jump\t// out\n        /* \"#utility.yul\":4983:5092   */\n    tag_159:\n        /* \"#utility.yul\":5064:5085   */\n      tag_232\n        /* \"#utility.yul\":5079:5084   */\n      dup2\n        /* \"#utility.yul\":5064:5085   */\n      tag_158\n      jump\t// in\n    tag_232:\n        /* \"#utility.yul\":5059:5062   */\n      dup3\n        /* \"#utility.yul\":5052:5086   */\n      mstore\n        /* \"#utility.yul\":4983:5092   */\n      pop\n      pop\n      jump\t// out\n        /* \"#utility.yul\":5098:5308   */\n    tag_39:\n        /* \"#utility.yul\":5185:5189   */\n      0x00\n        /* \"#utility.yul\":5223:5225   */\n      0x20\n        /* \"#utility.yul\":5212:5221   */\n      dup3\n        /* \"#utility.yul\":5208:5226   */\n      add\n        /* \"#utility.yul\":5200:5226   */\n      swap1\n      pop\n        /* \"#utility.yul\":5236:5301   */\n      tag_234\n        /* \"#utility.yul\":5298:5299   */\n      0x00\n        /* \"#utility.yul\":5287:5296   */\n      dup4\n        /* \"#utility.yul\":5283:5300   */\n      add\n        /* \"#utility.yul\":5274:5280   */\n      dup5\n        /* \"#utility.yul\":5236:5301   */\n      tag_159\n      jump\t// in\n    tag_234:\n        /* \"#utility.yul\":5098:5308   */\n      swap3\n      swap2\n      pop\n      pop\n      jump\t// out\n        /* \"#utility.yul\":5314:5432   */\n    tag_160:\n        /* \"#utility.yul\":5401:5425   */\n      tag_236\n        /* \"#utility.yul\":5419:5424   */\n      dup2\n        /* \"#utility.yul\":5401:5425   */\n      tag_155\n      jump\t// in\n    tag_236:\n        /* \"#utility.yul\":5396:5399   */\n      dup3\n        /* \"#utility.yul\":5389:5426   */\n      mstore\n        /* \"#utility.yul\":5314:5432   */\n      pop\n      pop\n      jump\t// out\n        /* \"#utility.yul\":5438:5660   */\n    tag_46:\n        /* \"#utility.yul\":5531:5535   */\n      0x00\n        /* \"#utility.yul\":5569:5571   */\n      0x20\n        /* \"#utility.yul\":5558:5567   */\n      dup3\n        /* \"#utility.yul\":5554:5572   */\n      add\n        /* \"#utility.yul\":5546:5572   */\n      swap1\n      pop\n        /* \"#utility.yul\":5582:5653   */\n      tag_238\n        /* \"#utility.yul\":5650:5651   */\n      0x00\n        /* \"#utility.yul\":5639:5648   */\n      dup4\n        /* \"#utility.yul\":5635:5652   */\n      add\n        /* \"#utility.yul\":5626:5632   */\n      dup5\n        /* \"#utility.yul\":5582:5653   */\n      tag_160\n      jump\t// in\n    tag_238:\n        /* \"#utility.yul\":5438:5660   */\n      swap3\n      swap2\n      pop\n      pop\n      jump\t// out\n        /* \"#utility.yul\":5666:5995   */\n    tag_55:\n        /* \"#utility.yul\":5725:5731   */\n      0x00\n        /* \"#utility.yul\":5774:5776   */\n      0x20\n        /* \"#utility.yul\":5762:5771   */\n      dup3\n        /* \"#utility.yul\":5753:5760   */\n      dup5\n        /* \"#utility.yul\":5749:5772   */\n      sub\n        /* \"#utility.yul\":5745:5777   */\n      slt\n        /* \"#utility.yul\":5742:5861   */\n      iszero\n      tag_240\n      jumpi\n        /* \"#utility.yul\":5780:5859   */\n      tag_241\n      tag_140\n      jump\t// in\n    tag_241:\n        /* \"#utility.yul\":5742:5861   */\n    tag_240:\n        /* \"#utility.yul\":5900:5901   */\n      0x00\n        /* \"#utility.yul\":5925:5978   */\n      tag_242\n        /* \"#utility.yul\":5970:5977   */\n      dup5\n        /* \"#utility.yul\":5961:5967   */\n      dup3\n        /* \"#utility.yul\":5950:5959   */\n      dup6\n        /* \"#utility.yul\":5946:5968   */\n      add\n        /* \"#utility.yul\":5925:5978   */\n      tag_144\n      jump\t// in\n    tag_242:\n        /* \"#utility.yul\":5915:5978   */\n      swap2\n      pop\n        /* \"#utility.yul\":5871:5988   */\n      pop\n        /* \"#utility.yul\":5666:5995   */\n      swap3\n      swap2\n      pop\n      pop\n      jump\t// out\n        /* \"#utility.yul\":6001:6330   */\n    tag_59:\n        /* \"#utility.yul\":6060:6066   */\n      0x00\n        /* \"#utility.yul\":6109:6111   */\n      0x20\n        /* \"#utility.yul\":6097:6106   */\n      dup3\n        /* \"#utility.yul\":6088:6095   */\n      dup5\n        /* \"#utility.yul\":6084:6107   */\n      sub\n        /* \"#utility.yul\":6080:6112   */\n      slt\n        /* \"#utility.yul\":6077:6196   */\n      iszero\n      tag_244\n      jumpi\n        /* \"#utility.yul\":6115:6194   */\n      tag_245\n      tag_140\n      jump\t// in\n    tag_245:\n        /* \"#utility.yul\":6077:6196   */\n    tag_244:\n        /* \"#utility.yul\":6235:6236   */\n      0x00\n        /* \"#utility.yul\":6260:6313   */\n      tag_246\n        /* \"#utility.yul\":6305:6312   */\n      dup5\n        /* \"#utility.yul\":6296:6302   */\n      dup3\n        /* \"#utility.yul\":6285:6294   */\n      dup6\n        /* \"#utility.yul\":6281:6303   */\n      add\n        /* \"#utility.yul\":6260:6313   */\n      tag_157\n      jump\t// in\n    tag_246:\n        /* \"#utility.yul\":6250:6313   */\n      swap2\n      pop\n        /* \"#utility.yul\":6206:6323   */\n      pop\n        /* \"#utility.yul\":6001:6330   */\n      swap3\n      swap2\n      pop\n      pop\n      jump\t// out\n        /* \"#utility.yul\":6336:6505   */\n    tag_161:\n        /* \"#utility.yul\":6420:6431   */\n      0x00\n        /* \"#utility.yul\":6454:6460   */\n      dup3\n        /* \"#utility.yul\":6449:6452   */\n      dup3\n        /* \"#utility.yul\":6442:6461   */\n      mstore\n        /* \"#utility.yul\":6494:6498   */\n      0x20\n        /* \"#utility.yul\":6489:6492   */\n      dup3\n        /* \"#utility.yul\":6485:6499   */\n      add\n        /* \"#utility.yul\":6470:6499   */\n      swap1\n      pop\n        /* \"#utility.yul\":6336:6505   */\n      swap3\n      swap2\n      pop\n      pop\n      jump\t// out\n        /* \"#utility.yul\":6511:6678   */\n    tag_162:\n        /* \"#utility.yul\":6651:6670   */\n      0x4461746120726f6f74206e6f7420736574000000000000000000000000000000\n        /* \"#utility.yul\":6647:6648   */\n      0x00\n        /* \"#utility.yul\":6639:6645   */\n      dup3\n        /* \"#utility.yul\":6635:6649   */\n      add\n        /* \"#utility.yul\":6628:6671   */\n      mstore\n        /* \"#utility.yul\":6511:6678   */\n      pop\n      jump\t// out\n        /* \"#utility.yul\":6684:7050   */\n    tag_163:\n        /* \"#utility.yul\":6826:6829   */\n      0x00\n        /* \"#utility.yul\":6847:6914   */\n      tag_250\n        /* \"#utility.yul\":6911:6913   */\n      0x11\n        /* \"#utility.yul\":6906:6909   */\n      dup4\n        /* \"#utility.yul\":6847:6914   */\n      tag_161\n      jump\t// in\n    tag_250:\n        /* \"#utility.yul\":6840:6914   */\n      swap2\n      pop\n        /* \"#utility.yul\":6923:7016   */\n      tag_251\n        /* \"#utility.yul\":7012:7015   */\n      dup3\n        /* \"#utility.yul\":6923:7016   */\n      tag_162\n      jump\t// in\n    tag_251:\n        /* \"#utility.yul\":7041:7043   */\n      0x20\n        /* \"#utility.yul\":7036:7039   */\n      dup3\n        /* \"#utility.yul\":7032:7044   */\n      add\n        /* \"#utility.yul\":7025:7044   */\n      swap1\n      pop\n        /* \"#utility.yul\":6684:7050   */\n      swap2\n      swap1\n      pop\n      jump\t// out\n        /* \"#utility.yul\":7056:7475   */\n    tag_67:\n        /* \"#utility.yul\":7222:7226   */\n      0x00\n        /* \"#utility.yul\":7260:7262   */\n      0x20\n        /* \"#utility.yul\":7249:7258   */\n      dup3\n        /* \"#utility.yul\":7245:7263   */\n      add\n        /* \"#utility.yul\":7237:7263   */\n      swap1\n      pop\n        /* \"#utility.yul\":7309:7318   */\n      dup2\n        /* \"#utility.yul\":7303:7307   */\n      dup2\n        /* \"#utility.yul\":7299:7319   */\n      sub\n        /* \"#utility.yul\":7295:7296   */\n      0x00\n        /* \"#utility.yul\":7284:7293   */\n      dup4\n        /* \"#utility.yul\":7280:7297   */\n      add\n        /* \"#utility.yul\":7273:7320   */\n      mstore\n        /* \"#utility.yul\":7337:7468   */\n      tag_253\n        /* \"#utility.yul\":7463:7467   */\n      dup2\n        /* \"#utility.yul\":7337:7468   */\n      tag_163\n      jump\t// in\n    tag_253:\n        /* \"#utility.yul\":7329:7468   */\n      swap1\n      pop\n        /* \"#utility.yul\":7056:7475   */\n      swap2\n      swap1\n      pop\n      jump\t// out\n        /* \"#utility.yul\":7481:7707   */\n    tag_164:\n        /* \"#utility.yul\":7621:7655   */\n      0x53616d706c6520616c7265616479207375626d697474656420666f7220746869\n        /* \"#utility.yul\":7617:7618   */\n      0x00\n        /* \"#utility.yul\":7609:7615   */\n      dup3\n        /* \"#utility.yul\":7605:7619   */\n      add\n        /* \"#utility.yul\":7598:7656   */\n      mstore\n        /* \"#utility.yul\":7690:7699   */\n      0x7320696e64657800000000000000000000000000000000000000000000000000\n        /* \"#utility.yul\":7685:7687   */\n      0x20\n        /* \"#utility.yul\":7677:7683   */\n      dup3\n        /* \"#utility.yul\":7673:7688   */\n      add\n        /* \"#utility.yul\":7666:7700   */\n      mstore\n        /* \"#utility.yul\":7481:7707   */\n      pop\n      jump\t// out\n        /* \"#utility.yul\":7713:8079   */\n    tag_165:\n        /* \"#utility.yul\":7855:7858   */\n      0x00\n        /* \"#utility.yul\":7876:7943   */\n      tag_256\n        /* \"#utility.yul\":7940:7942   */\n      0x27\n        /* \"#utility.yul\":7935:7938   */\n      dup4\n        /* \"#utility.yul\":7876:7943   */\n      tag_161\n      jump\t// in\n    tag_256:\n        /* \"#utility.yul\":7869:7943   */\n      swap2\n      pop\n        /* \"#utility.yul\":7952:8045   */\n      tag_257\n        /* \"#utility.yul\":8041:8044   */\n      dup3\n        /* \"#utility.yul\":7952:8045   */\n      tag_164\n      jump\t// in\n    tag_257:\n        /* \"#utility.yul\":8070:8072   */\n      0x40\n        /* \"#utility.yul\":8065:8068   */\n      dup3\n        /* \"#utility.yul\":8061:8073   */\n      add\n        /* \"#utility.yul\":8054:8073   */\n      swap1\n      pop\n        /* \"#utility.yul\":7713:8079   */\n      swap2\n      swap1\n      pop\n      jump\t// out\n        /* \"#utility.yul\":8085:8504   */\n    tag_70:\n        /* \"#utility.yul\":8251:8255   */\n      0x00\n        /* \"#utility.yul\":8289:8291   */\n      0x20\n        /* \"#utility.yul\":8278:8287   */\n      dup3\n        /* \"#utility.yul\":8274:8292   */\n      add\n        /* \"#utility.yul\":8266:8292   */\n      swap1\n      pop\n        /* \"#utility.yul\":8338:8347   */\n      dup2\n        /* \"#utility.yul\":8332:8336   */\n      dup2\n        /* \"#utility.yul\":8328:8348   */\n      sub\n        /* \"#utility.yul\":8324:8325   */\n      0x00\n        /* \"#utility.yul\":8313:8322   */\n      dup4\n        /* \"#utility.yul\":8309:8326   */\n      add\n        /* \"#utility.yul\":8302:8349   */\n      mstore\n        /* \"#utility.yul\":8366:8497   */\n      tag_259\n        /* \"#utility.yul\":8492:8496   */\n      dup2\n        /* \"#utility.yul\":8366:8497   */\n      tag_165\n      jump\t// in\n    tag_259:\n        /* \"#utility.yul\":8358:8497   */\n      swap1\n      pop\n        /* \"#utility.yul\":8085:8504   */\n      swap2\n      swap1\n      pop\n      jump\t// out\n        /* \"#utility.yul\":8510:8690   */\n    tag_166:\n        /* \"#utility.yul\":8558:8635   */\n      0x4e487b7100000000000000000000000000000000000000000000000000000000\n        /* \"#utility.yul\":8555:8556   */\n      0x00\n        /* \"#utility.yul\":8548:8636   */\n      mstore\n        /* \"#utility.yul\":8655:8659   */\n      0x11\n        /* \"#utility.yul\":8652:8653   */\n      0x04\n        /* \"#utility.yul\":8645:8660   */\n      mstore\n        /* \"#utility.yul\":8679:8683   */\n      0x24\n        /* \"#utility.yul\":8676:8677   */\n      0x00\n        /* \"#utility.yul\":8669:8684   */\n      revert\n        /* \"#utility.yul\":8696:8929   */\n    tag_72:\n        /* \"#utility.yul\":8735:8738   */\n      0x00\n        /* \"#utility.yul\":8758:8782   */\n      tag_262\n        /* \"#utility.yul\":8776:8781   */\n      dup3\n        /* \"#utility.yul\":8758:8782   */\n      tag_142\n      jump\t// in\n    tag_262:\n        /* \"#utility.yul\":8749:8782   */\n      swap2\n      pop\n        /* \"#utility.yul\":8804:8870   */\n      0xffffffffffffffffffffffffffffffffffffffffffffffffffffffffffffffff\n        /* \"#utility.yul\":8797:8802   */\n      dup3\n        /* \"#utility.yul\":8794:8871   */\n      sub\n        /* \"#utility.yul\":8791:8894   */\n      tag_263\n      jumpi\n        /* \"#utility.yul\":8874:8892   */\n      tag_264\n      tag_166\n      jump\t// in\n    tag_264:\n        /* \"#utility.yul\":8791:8894   */\n    tag_263:\n        /* \"#utility.yul\":8921:8922   */\n      0x01\n        /* \"#utility.yul\":8914:8919   */\n      dup3\n        /* \"#utility.yul\":8910:8923   */\n      add\n        /* \"#utility.yul\":8903:8923   */\n      swap1\n      pop\n        /* \"#utility.yul\":8696:8929   */\n      swap2\n      swap1\n      pop\n      jump\t// out\n        /* \"#utility.yul\":8935:9255   */\n    tag_78:\n        /* \"#utility.yul\":9050:9054   */\n      0x00\n        /* \"#utility.yul\":9088:9090   */\n      0x40\n        /* \"#utility.yul\":9077:9086   */\n      dup3\n        /* \"#utility.yul\":9073:9091   */\n      add\n        /* \"#utility.yul\":9065:9091   */\n      swap1\n      pop\n        /* \"#utility.yul\":9101:9172   */\n      tag_266\n        /* \"#utility.yul\":9169:9170   */\n      0x00\n        /* \"#utility.yul\":9158:9167   */\n      dup4\n        /* \"#utility.yul\":9154:9171   */\n      add\n        /* \"#utility.yul\":9145:9151   */\n      dup6\n        /* \"#utility.yul\":9101:9172   */\n      tag_152\n      jump\t// in\n    tag_266:\n        /* \"#utility.yul\":9182:9248   */\n      tag_267\n        /* \"#utility.yul\":9244:9246   */\n      0x20\n        /* \"#utility.yul\":9233:9242   */\n      dup4\n        /* \"#utility.yul\":9229:9247   */\n      add\n        /* \"#utility.yul\":9220:9226   */\n      dup5\n        /* \"#utility.yul\":9182:9248   */\n      tag_159\n      jump\t// in\n    tag_267:\n        /* \"#utility.yul\":8935:9255   */\n      swap4\n      swap3\n      pop\n      pop\n      pop\n      jump\t// out\n        /* \"#utility.yul\":9261:9439   */\n    tag_167:\n        /* \"#utility.yul\":9401:9431   */\n      0x52657175697265642073616d706c6573206d757374206265203e203000000000\n        /* \"#utility.yul\":9397:9398   */\n      0x00\n        /* \"#utility.yul\":9389:9395   */\n      dup3\n        /* \"#utility.yul\":9385:9399   */\n      add\n        /* \"#utility.yul\":9378:9432   */\n      mstore\n        /* \"#utility.yul\":9261:9439   */\n      pop\n      jump\t// out\n        /* \"#utility.yul\":9445:9811   */\n    tag_168:\n        /* \"#utility.yul\":9587:9590   */\n      0x00\n        /* \"#utility.yul\":9608:9675   */\n      tag_270\n        /* \"#utility.yul\":9672:9674   */\n      0x1c\n        /* \"#utility.yul\":9667:9670   */\n      dup4\n        /* \"#utility.yul\":9608:9675   */\n      tag_161\n      jump\t// in\n    tag_270:\n        /* \"#utility.yul\":9601:9675   */\n      swap2\n      pop\n        /* \"#utility.yul\":9684:9777   */\n      tag_271\n        /* \"#utility.yul\":9773:9776   */\n      dup3\n        /* \"#utility.yul\":9684:9777   */\n      tag_167\n      jump\t// in\n    tag_271:\n        /* \"#utility.yul\":9802:9804   */\n      0x20\n        /* \"#utility.yul\":9797:9800   */\n      dup3\n        /* \"#utility.yul\":9793:9805   */\n      add\n        /* \"#utility.yul\":9786:9805   */\n      swap1\n      pop\n        /* \"#utility.yul\":9445:9811   */\n      swap2\n      swap1\n      pop\n      jump\t// out\n        /* \"#utility.yul\":9817:10236   */\n    tag_98:\n        /* \"#utility.yul\":9983:9987   */\n      0x00\n        /* \"#utility.yul\":10021:10023   */\n      0x20\n        /* \"#utility.yul\":10010:10019   */\n      dup3\n        /* \"#utility.yul\":10006:10024   */\n      add\n        /* \"#utility.yul\":9998:10024   */\n      swap1\n      pop\n        /* \"#utility.yul\":10070:10079   */\n      dup2\n        /* \"#utility.yul\":10064:10068   */\n      dup2\n        /* \"#utility.yul\":10060:10080   */\n      sub\n        /* \"#utility.yul\":10056:10057   */\n      0x00\n        /* \"#utility.yul\":10045:10054   */\n      dup4\n        /* \"#utility.yul\":10041:10058   */\n      add\n        /* \"#utility.yul\":10034:10081   */\n      mstore\n        /* \"#utility.yul\":10098:10229   */\n      tag_273\n        /* \"#utility.yul\":10224:10228   */\n      dup2\n        /* \"#utility.yul\":10098:10229   */\n      tag_168\n      jump\t// in\n    tag_273:\n        /* \"#utility.yul\":10090:10229   */\n      swap1\n      pop\n        /* \"#utility.yul\":9817:10236   */\n      swap2\n      swap1\n      pop\n      jump\t// out\n        /* \"#utility.yul\":10242:10423   */\n    tag_169:\n        /* \"#utility.yul\":10382:10415   */\n      0x5265656e7472616e637947756172643a207265656e7472616e742063616c6c00\n        /* \"#utility.yul\":10378:10379   */\n      0x00\n        /* \"#utility.yul\":10370:10376   */\n      dup3\n        /* \"#utility.yul\":10366:10380   */\n      add\n        /* \"#utility.yul\":10359:10416   */\n      mstore\n        /* \"#utility.yul\":10242:10423   */\n      pop\n      jump\t// out\n        /* \"#utility.yul\":10429:10795   */\n    tag_170:\n        /* \"#utility.yul\":10571:10574   */\n      0x00\n        /* \"#utility.yul\":10592:10659   */\n      tag_276\n        /* \"#utility.yul\":10656:10658   */\n      0x1f\n        /* \"#utility.yul\":10651:10654   */\n      dup4\n        /* \"#utility.yul\":10592:10659   */\n      tag_161\n      jump\t// in\n    tag_276:\n        /* \"#utility.yul\":10585:10659   */\n      swap2\n      pop\n        /* \"#utility.yul\":10668:10761   */\n      tag_277\n        /* \"#utility.yul\":10757:10760   */\n      dup3\n        /* \"#utility.yul\":10668:10761   */\n      tag_169\n      jump\t// in\n    tag_277:\n        /* \"#utility.yul\":10786:10788   */\n      0x20\n        /* \"#utility.yul\":10781:10784   */\n      dup3\n        /* \"#utility.yul\":10777:10789   */\n      add\n        /* \"#utility.yul\":10770:10789   */\n      swap1\n      pop\n        /* \"#utility.yul\":10429:10795   */\n      swap2\n      swap1\n      pop\n      jump\t// out\n        /* \"#utility.yul\":10801:11220   */\n    tag_109:\n        /* \"#utility.yul\":10967:10971   */\n      0x00\n        /* \"#utility.yul\":11005:11007   */\n      0x20\n        /* \"#utility.yul\":10994:11003   */\n      dup3\n        /* \"#utility.yul\":10990:11008   */\n      add\n        /* \"#utility.yul\":10982:11008   */\n      swap1\n      pop\n        /* \"#utility.yul\":11054:11063   */\n      dup2\n        /* \"#utility.yul\":11048:11052   */\n      dup2\n        /* \"#utility.yul\":11044:11064   */\n      sub\n        /* \"#utility.yul\":11040:11041   */\n      0x00\n        /* \"#utility.yul\":11029:11038   */\n      dup4\n        /* \"#utility.yul\":11025:11042   */\n      add\n        /* \"#utility.yul\":11018:11065   */\n      mstore\n        /* \"#utility.yul\":11082:11213   */\n      tag_279\n        /* \"#utility.yul\":11208:11212   */\n      dup2\n        /* \"#utility.yul\":11082:11213   */\n      tag_170\n      jump\t// in\n    tag_279:\n        /* \"#utility.yul\":11074:11213   */\n      swap1\n      pop\n        /* \"#utility.yul\":10801:11220   */\n      swap2\n      swap1\n      pop\n      jump\t// out\n        /* \"#utility.yul\":11226:11406   */\n    tag_129:\n        /* \"#utility.yul\":11274:11351   */\n      0x4e487b7100000000000000000000000000000000000000000000000000000000\n        /* \"#utility.yul\":11271:11272   */\n      0x00\n        /* \"#utility.yul\":11264:11352   */\n      mstore\n        /* \"#utility.yul\":11371:11375   */\n      0x32\n        /* \"#utility.yul\":11368:11369   */\n      0x04\n        /* \"#utility.yul\":11361:11376   */\n      mstore\n        /* \"#utility.yul\":11395:11399   */\n      0x24\n        /* \"#utility.yul\":11392:11393   */\n      0x00\n        /* \"#utility.yul\":11385:11400   */\n      revert\n\n    auxdata: 0xa2646970667358221220695a52aa1ca11e06d99f1091d3a44eac75bbd0ecfb70696fe1fdc0f0ea0ec98a64736f6c634300081d0033\n}\n",
				"bytecode": {
					"linkReferences": {},
					"object": "608060405234801561000f575f5ffd5b50335f73ffffffffffffffffffffffffffffffffffffffff168173ffffffffffffffffffffffffffffffffffffffff1603610081575f6040517f1e4fbdf7000000000000000000000000000000000000000000000000000000008152600401610078919061019d565b60405180910390fd5b6100908161009d60201b60201c565b50600180819055506101b6565b5f5f5f9054906101000a900473ffffffffffffffffffffffffffffffffffffffff169050815f5f6101000a81548173ffffffffffffffffffffffffffffffffffffffff021916908373ffffffffffffffffffffffffffffffffffffffff1602179055508173ffffffffffffffffffffffffffffffffffffffff168173ffffffffffffffffffffffffffffffffffffffff167f8be0079c531659141344cd1fd0a4f28419497f9722a3daafe3b4186f6b6457e060405160405180910390a35050565b5f73ffffffffffffffffffffffffffffffffffffffff82169050919050565b5f6101878261015e565b9050919050565b6101978161017d565b82525050565b5f6020820190506101b05f83018461018e565b92915050565b610e57806101c35f395ff3fe608060405234801561000f575f5ffd5b50600436106100b2575f3560e01c80638aeb41f51161006f5780638aeb41f5146101645780638da5cb5b14610182578063994e2076146101a0578063a886f4c9146101be578063dbcebae6146101dc578063f2fde38b146101f8576100b2565b806302108dd4146100b6578063021bcf9b146100d25780636dff3584146100f0578063715018a61461010e5780637cf5894d1461011857806385556c0714610134575b5f5ffd5b6100d060048036038101906100cb919061094e565b610214565b005b6100da610443565b6040516100e791906109ce565b60405180910390f35b6100f8610449565b60405161010591906109f6565b60405180910390f35b61011661044f565b005b610132600480360381019061012d9190610a0f565b610462565b005b61014e60048036038101906101499190610a94565b6104b9565b60405161015b9190610aec565b60405180910390f35b61016c6104e3565b60405161017991906109ce565b60405180910390f35b61018a6104e9565b6040516101979190610b14565b60405180910390f35b6101a8610510565b6040516101b59190610aec565b60405180910390f35b6101c661051e565b6040516101d391906109ce565b60405180910390f35b6101f660048036038101906101f19190610b2d565b610524565b005b610212600480360381019061020d9190610b58565b6105af565b005b61021c610633565b5f5f1b60025403610262576040517f08c379a000000000000000000000000000000000000000000000000000000000815260040161025990610bdd565b60405180910390fd5b60065f3373ffffffffffffffffffffffffffffffffffffffff1673ffffffffffffffffffffffffffffffffffffffff1681526020019081526020015f205f8581526020019081526020015f205f9054906101000a900460ff16156102fb576040517f08c379a00000000000000000000000000000000000000000000000000000000081526004016102f290610c6b565b60405180910390fd5b600160065f3373ffffffffffffffffffffffffffffffffffffffff1673ffffffffffffffffffffffffffffffffffffffff1681526020019081526020015f205f8681526020019081526020015f205f6101000a81548160ff02191690831515021790555060035f81548092919061037190610cb6565b91905055505f6103c48383808060200260200160405190810160405280939291908181526020018383602002808284375f81840152601f19601f8201169050808301925050505050505060025486610682565b905080156103e45760045f8154809291906103de90610cb6565b91905055505b3373ffffffffffffffffffffffffffffffffffffffff167f67029c13a7c2e4d18183f4b1dbebb895abe509bf82c32b86955567e7c3bdc9e9868360405161042c929190610cfd565b60405180910390a25061043d610698565b50505050565b60035481565b60025481565b6104576106a1565b6104605f610728565b565b61046a6106a1565b806002819055505f6003819055505f6004819055507f3ef9f871d3fa30b23a7971bd4ce885f1edc4d2c8c177b87b307e75475854e522816040516104ae91906109f6565b60405180910390a150565b6006602052815f5260405f20602052805f5260405f205f915091509054906101000a900460ff1681565b60055481565b5f5f5f9054906101000a900473ffffffffffffffffffffffffffffffffffffffff16905090565b5f6005546004541015905090565b60045481565b61052c6106a1565b5f811161056e576040517f08c379a000000000000000000000000000000000000000000000000000000000815260040161056590610d6e565b60405180910390fd5b806005819055507f8d6dcb7c3fc9858baf5e2b16f2f78ff2ee6b2bc94d975d1249b3cd2252413d85816040516105a491906109ce565b60405180910390a150565b6105b76106a1565b5f73ffffffffffffffffffffffffffffffffffffffff168173ffffffffffffffffffffffffffffffffffffffff1603610627575f6040517f1e4fbdf700000000000000000000000000000000000000000000000000000000815260040161061e9190610b14565b60405180910390fd5b61063081610728565b50565b600260015403610678576040517f08c379a000000000000000000000000000000000000000000000000000000000815260040161066f90610dd6565b60405180910390fd5b6002600181905550565b5f8261068e85846107e9565b1490509392505050565b60018081905550565b6106a961083a565b73ffffffffffffffffffffffffffffffffffffffff166106c76104e9565b73ffffffffffffffffffffffffffffffffffffffff1614610726576106ea61083a565b6040517f118cdaa700000000000000000000000000000000000000000000000000000000815260040161071d9190610b14565b60405180910390fd5b565b5f5f5f9054906101000a900473ffffffffffffffffffffffffffffffffffffffff169050815f5f6101000a81548173ffffffffffffffffffffffffffffffffffffffff021916908373ffffffffffffffffffffffffffffffffffffffff1602179055508173ffffffffffffffffffffffffffffffffffffffff168173ffffffffffffffffffffffffffffffffffffffff167f8be0079c531659141344cd1fd0a4f28419497f9722a3daafe3b4186f6b6457e060405160405180910390a35050565b5f5f8290505f5f90505b845181101561082f576108208286838151811061081357610812610df4565b5b6020026020010151610841565b915080806001019150506107f3565b508091505092915050565b5f33905090565b5f81831061085857610853828461086b565b610863565b610862838361086b565b5b905092915050565b5f825f528160205260405f20905092915050565b5f5ffd5b5f5ffd5b5f819050919050565b61089981610887565b81146108a3575f5ffd5b50565b5f813590506108b481610890565b92915050565b5f819050919050565b6108cc816108ba565b81146108d6575f5ffd5b50565b5f813590506108e7816108c3565b92915050565b5f5ffd5b5f5ffd5b5f5ffd5b5f5f83601f84011261090e5761090d6108ed565b5b8235905067ffffffffffffffff81111561092b5761092a6108f1565b5b602083019150836020820283011115610947576109466108f5565b5b9250929050565b5f5f5f5f606085870312156109665761096561087f565b5b5f610973878288016108a6565b9450506020610984878288016108d9565b935050604085013567ffffffffffffffff8111156109a5576109a4610883565b5b6109b1878288016108f9565b925092505092959194509250565b6109c881610887565b82525050565b5f6020820190506109e15f8301846109bf565b92915050565b6109f0816108ba565b82525050565b5f602082019050610a095f8301846109e7565b92915050565b5f60208284031215610a2457610a2361087f565b5b5f610a31848285016108d9565b91505092915050565b5f73ffffffffffffffffffffffffffffffffffffffff82169050919050565b5f610a6382610a3a565b9050919050565b610a7381610a59565b8114610a7d575f5ffd5b50565b5f81359050610a8e81610a6a565b92915050565b5f5f60408385031215610aaa57610aa961087f565b5b5f610ab785828601610a80565b9250506020610ac8858286016108a6565b9150509250929050565b5f8115159050919050565b610ae681610ad2565b82525050565b5f602082019050610aff5f830184610add565b92915050565b610b0e81610a59565b82525050565b5f602082019050610b275f830184610b05565b92915050565b5f60208284031215610b4257610b4161087f565b5b5f610b4f848285016108a6565b91505092915050565b5f60208284031215610b6d57610b6c61087f565b5b5f610b7a84828501610a80565b91505092915050565b5f82825260208201905092915050565b7f4461746120726f6f74206e6f74207365740000000000000000000000000000005f82015250565b5f610bc7601183610b83565b9150610bd282610b93565b602082019050919050565b5f6020820190508181035f830152610bf481610bbb565b9050919050565b7f53616d706c6520616c7265616479207375626d697474656420666f72207468695f8201527f7320696e64657800000000000000000000000000000000000000000000000000602082015250565b5f610c55602783610b83565b9150610c6082610bfb565b604082019050919050565b5f6020820190508181035f830152610c8281610c49565b9050919050565b7f4e487b71000000000000000000000000000000000000000000000000000000005f52601160045260245ffd5b5f610cc082610887565b91507fffffffffffffffffffffffffffffffffffffffffffffffffffffffffffffffff8203610cf257610cf1610c89565b5b600182019050919050565b5f604082019050610d105f8301856109bf565b610d1d6020830184610add565b9392505050565b7f52657175697265642073616d706c6573206d757374206265203e2030000000005f82015250565b5f610d58601c83610b83565b9150610d6382610d24565b602082019050919050565b5f6020820190508181035f830152610d8581610d4c565b9050919050565b7f5265656e7472616e637947756172643a207265656e7472616e742063616c6c005f82015250565b5f610dc0601f83610b83565b9150610dcb82610d8c565b602082019050919050565b5f6020820190508181035f830152610ded81610db4565b9050919050565b7f4e487b71000000000000000000000000000000000000000000000000000000005f52603260045260245ffdfea2646970667358221220695a52aa1ca11e06d99f1091d3a44eac75bbd0ecfb70696fe1fdc0f0ea0ec98a64736f6c634300081d0033",
					"opcodes": "PUSH1 0x80 PUSH1 0x40 MSTORE CALLVALUE DUP1 ISZERO PUSH2 0xF JUMPI PUSH0 PUSH0 REVERT JUMPDEST POP CALLER PUSH0 PUSH20 0xFFFFFFFFFFFFFFFFFFFFFFFFFFFFFFFFFFFFFFFF AND DUP2 PUSH20 0xFFFFFFFFFFFFFFFFFFFFFFFFFFFFFFFFFFFFFFFF AND SUB PUSH2 0x81 JUMPI PUSH0 PUSH1 0x40 MLOAD PUSH32 0x1E4FBDF700000000000000000000000000000000000000000000000000000000 DUP2 MSTORE PUSH1 0x4 ADD PUSH2 0x78 SWAP2 SWAP1 PUSH2 0x19D JUMP JUMPDEST PUSH1 0x40 MLOAD DUP1 SWAP2 SUB SWAP1 REVERT JUMPDEST PUSH2 0x90 DUP2 PUSH2 0x9D PUSH1 0x20 SHL PUSH1 0x20 SHR JUMP JUMPDEST POP PUSH1 0x1 DUP1 DUP2 SWAP1 SSTORE POP PUSH2 0x1B6 JUMP JUMPDEST PUSH0 PUSH0 PUSH0 SWAP1 SLOAD SWAP1 PUSH2 0x100 EXP SWAP1 DIV PUSH20 0xFFFFFFFFFFFFFFFFFFFFFFFFFFFFFFFFFFFFFFFF AND SWAP1 POP DUP2 PUSH0 PUSH0 PUSH2 0x100 EXP DUP2 SLOAD DUP2 PUSH20 0xFFFFFFFFFFFFFFFFFFFFFFFFFFFFFFFFFFFFFFFF MUL NOT AND SWAP1 DUP4 PUSH20 0xFFFFFFFFFFFFFFFFFFFFFFFFFFFFFFFFFFFFFFFF AND MUL OR SWAP1 SSTORE POP DUP2 PUSH20 0xFFFFFFFFFFFFFFFFFFFFFFFFFFFFFFFFFFFFFFFF AND DUP2 PUSH20 0xFFFFFFFFFFFFFFFFFFFFFFFFFFFFFFFFFFFFFFFF AND PUSH32 0x8BE0079C531659141344CD1FD0A4F28419497F9722A3DAAFE3B4186F6B6457E0 PUSH1 0x40 MLOAD PUSH1 0x40 MLOAD DUP1 SWAP2 SUB SWAP1 LOG3 POP POP JUMP JUMPDEST PUSH0 PUSH20 0xFFFFFFFFFFFFFFFFFFFFFFFFFFFFFFFFFFFFFFFF DUP3 AND SWAP1 POP SWAP2 SWAP1 POP JUMP JUMPDEST PUSH0 PUSH2 0x187 DUP3 PUSH2 0x15E JUMP JUMPDEST SWAP1 POP SWAP2 SWAP1 POP JUMP JUMPDEST PUSH2 0x197 DUP2 PUSH2 0x17D JUMP JUMPDEST DUP3 MSTORE POP POP JUMP JUMPDEST PUSH0 PUSH1 0x20 DUP3 ADD SWAP1 POP PUSH2 0x1B0 PUSH0 DUP4 ADD DUP5 PUSH2 0x18E JUMP JUMPDEST SWAP3 SWAP2 POP POP JUMP JUMPDEST PUSH2 0xE57 DUP1 PUSH2 0x1C3 PUSH0 CODECOPY PUSH0 RETURN INVALID PUSH1 0x80 PUSH1 0x40 MSTORE CALLVALUE DUP1 ISZERO PUSH2 0xF JUMPI PUSH0 PUSH0 REVERT JUMPDEST POP PUSH1 0x4 CALLDATASIZE LT PUSH2 0xB2 JUMPI PUSH0 CALLDATALOAD PUSH1 0xE0 SHR DUP1 PUSH4 0x8AEB41F5 GT PUSH2 0x6F JUMPI DUP1 PUSH4 0x8AEB41F5 EQ PUSH2 0x164 JUMPI DUP1 PUSH4 0x8DA5CB5B EQ PUSH2 0x182 JUMPI DUP1 PUSH4 0x994E2076 EQ PUSH2 0x1A0 JUMPI DUP1 PUSH4 0xA886F4C9 EQ PUSH2 0x1BE JUMPI DUP1 PUSH4 0xDBCEBAE6 EQ PUSH2 0x1DC JUMPI DUP1 PUSH4 0xF2FDE38B EQ PUSH2 0x1F8 JUMPI PUSH2 0xB2 JUMP JUMPDEST DUP1 PUSH4 0x2108DD4 EQ PUSH2 0xB6 JUMPI DUP1 PUSH4 0x21BCF9B EQ PUSH2 0xD2 JUMPI DUP1 PUSH4 0x6DFF3584 EQ PUSH2 0xF0 JUMPI DUP1 PUSH4 0x715018A6 EQ PUSH2 0x10E JUMPI DUP1 PUSH4 0x7CF5894D EQ PUSH2 0x118 JUMPI DUP1 PUSH4 0x85556C07 EQ PUSH2 0x134 JUMPI JUMPDEST PUSH0 PUSH0 REVERT JUMPDEST PUSH2 0xD0 PUSH1 0x4 DUP1 CALLDATASIZE SUB DUP2 ADD SWAP1 PUSH2 0xCB SWAP2 SWAP1 PUSH2 0x94E JUMP JUMPDEST PUSH2 0x214 JUMP JUMPDEST STOP JUMPDEST PUSH2 0xDA PUSH2 0x443 JUMP JUMPDEST PUSH1 0x40 MLOAD PUSH2 0xE7 SWAP2 SWAP1 PUSH2 0x9CE JUMP JUMPDEST PUSH1 0x40 MLOAD DUP1 SWAP2 SUB SWAP1 RETURN JUMPDEST PUSH2 0xF8 PUSH2 0x449 JUMP JUMPDEST PUSH1 0x40 MLOAD PUSH2 0x105 SWAP2 SWAP1 PUSH2 0x9F6 JUMP JUMPDEST PUSH1 0x40 MLOAD DUP1 SWAP2 SUB SWAP1 RETURN JUMPDEST PUSH2 0x116 PUSH2 0x44F JUMP JUMPDEST STOP JUMPDEST PUSH2 0x132 PUSH1 0x4 DUP1 CALLDATASIZE SUB DUP2 ADD SWAP1 PUSH2 0x12D SWAP2 SWAP1 PUSH2 0xA0F JUMP JUMPDEST PUSH2 0x462 JUMP JUMPDEST STOP JUMPDEST PUSH2 0x14E PUSH1 0x4 DUP1 CALLDATASIZE SUB DUP2 ADD SWAP1 PUSH2 0x149 SWAP2 SWAP1 PUSH2 0xA94 JUMP JUMPDEST PUSH2 0x4B9 JUMP JUMPDEST PUSH1 0x40 MLOAD PUSH2 0x15B SWAP2 SWAP1 PUSH2 0xAEC JUMP JUMPDEST PUSH1 0x40 MLOAD DUP1 SWAP2 SUB SWAP1 RETURN JUMPDEST PUSH2 0x16C PUSH2 0x4E3 JUMP JUMPDEST PUSH1 0x40 MLOAD PUSH2 0x179 SWAP2 SWAP1 PUSH2 0x9CE JUMP JUMPDEST PUSH1 0x40 MLOAD DUP1 SWAP2 SUB SWAP1 RETURN JUMPDEST PUSH2 0x18A PUSH2 0x4E9 JUMP JUMPDEST PUSH1 0x40 MLOAD PUSH2 0x197 SWAP2 SWAP1 PUSH2 0xB14 JUMP JUMPDEST PUSH1 0x40 MLOAD DUP1 SWAP2 SUB SWAP1 RETURN JUMPDEST PUSH2 0x1A8 PUSH2 0x510 JUMP JUMPDEST PUSH1 0x40 MLOAD PUSH2 0x1B5 SWAP2 SWAP1 PUSH2 0xAEC JUMP JUMPDEST PUSH1 0x40 MLOAD DUP1 SWAP2 SUB SWAP1 RETURN JUMPDEST PUSH2 0x1C6 PUSH2 0x51E JUMP JUMPDEST PUSH1 0x40 MLOAD PUSH2 0x1D3 SWAP2 SWAP1 PUSH2 0x9CE JUMP JUMPDEST PUSH1 0x40 MLOAD DUP1 SWAP2 SUB SWAP1 RETURN JUMPDEST PUSH2 0x1F6 PUSH1 0x4 DUP1 CALLDATASIZE SUB DUP2 ADD SWAP1 PUSH2 0x1F1 SWAP2 SWAP1 PUSH2 0xB2D JUMP JUMPDEST PUSH2 0x524 JUMP JUMPDEST STOP JUMPDEST PUSH2 0x212 PUSH1 0x4 DUP1 CALLDATASIZE SUB DUP2 ADD SWAP1 PUSH2 0x20D SWAP2 SWAP1 PUSH2 0xB58 JUMP JUMPDEST PUSH2 0x5AF JUMP JUMPDEST STOP JUMPDEST PUSH2 0x21C PUSH2 0x633 JUMP JUMPDEST PUSH0 PUSH0 SHL PUSH1 0x2 SLOAD SUB PUSH2 0x262 JUMPI PUSH1 0x40 MLOAD PUSH32 0x8C379A000000000000000000000000000000000000000000000000000000000 DUP2 MSTORE PUSH1 0x4 ADD PUSH2 0x259 SWAP1 PUSH2 0xBDD JUMP JUMPDEST PUSH1 0x40 MLOAD DUP1 SWAP2 SUB SWAP1 REVERT JUMPDEST PUSH1 0x6 PUSH0 CALLER PUSH20 0xFFFFFFFFFFFFFFFFFFFFFFFFFFFFFFFFFFFFFFFF AND PUSH20 0xFFFFFFFFFFFFFFFFFFFFFFFFFFFFFFFFFFFFFFFF AND DUP2 MSTORE PUSH1 0x20 ADD SWAP1 DUP2 MSTORE PUSH1 0x20 ADD PUSH0 KECCAK256 PUSH0 DUP6 DUP2 MSTORE PUSH1 0x20 ADD SWAP1 DUP2 MSTORE PUSH1 0x20 ADD PUSH0 KECCAK256 PUSH0 SWAP1 SLOAD SWAP1 PUSH2 0x100 EXP SWAP1 DIV PUSH1 0xFF AND ISZERO PUSH2 0x2FB JUMPI PUSH1 0x40 MLOAD PUSH32 0x8C379A000000000000000000000000000000000000000000000000000000000 DUP2 MSTORE PUSH1 0x4 ADD PUSH2 0x2F2 SWAP1 PUSH2 0xC6B JUMP JUMPDEST PUSH1 0x40 MLOAD DUP1 SWAP2 SUB SWAP1 REVERT JUMPDEST PUSH1 0x1 PUSH1 0x6 PUSH0 CALLER PUSH20 0xFFFFFFFFFFFFFFFFFFFFFFFFFFFFFFFFFFFFFFFF AND PUSH20 0xFFFFFFFFFFFFFFFFFFFFFFFFFFFFFFFFFFFFFFFF AND DUP2 MSTORE PUSH1 0x20 ADD SWAP1 DUP2 MSTORE PUSH1 0x20 ADD PUSH0 KECCAK256 PUSH0 DUP7 DUP2 MSTORE PUSH1 0x20 ADD SWAP1 DUP2 MSTORE PUSH1 0x20 ADD PUSH0 KECCAK256 PUSH0 PUSH2 0x100 EXP DUP2 SLOAD DUP2 PUSH1 0xFF MUL NOT AND SWAP1 DUP4 ISZERO ISZERO MUL OR SWAP1 SSTORE POP PUSH1 0x3 PUSH0 DUP2 SLOAD DUP1 SWAP3 SWAP2 SWAP1 PUSH2 0x371 SWAP1 PUSH2 0xCB6 JUMP JUMPDEST SWAP2 SWAP1 POP SSTORE POP PUSH0 PUSH2 0x3C4 DUP4 DUP4 DUP1 DUP1 PUSH1 0x20 MUL PUSH1 0x20 ADD PUSH1 0x40 MLOAD SWAP1 DUP2 ADD PUSH1 0x40 MSTORE DUP1 SWAP4 SWAP3 SWAP2 SWAP1 DUP2 DUP2 MSTORE PUSH1 0x20 ADD DUP4 DUP4 PUSH1 0x20 MUL DUP1 DUP3 DUP5 CALLDATACOPY PUSH0 DUP2 DUP5 ADD MSTORE PUSH1 0x1F NOT PUSH1 0x1F DUP3 ADD AND SWAP1 POP DUP1 DUP4 ADD SWAP3 POP POP POP POP POP POP POP PUSH1 0x2 SLOAD DUP7 PUSH2 0x682 JUMP JUMPDEST SWAP1 POP DUP1 ISZERO PUSH2 0x3E4 JUMPI PUSH1 0x4 PUSH0 DUP2 SLOAD DUP1 SWAP3 SWAP2 SWAP1 PUSH2 0x3DE SWAP1 PUSH2 0xCB6 JUMP JUMPDEST SWAP2 SWAP1 POP SSTORE POP JUMPDEST CALLER PUSH20 0xFFFFFFFFFFFFFFFFFFFFFFFFFFFFFFFFFFFFFFFF AND PUSH32 0x67029C13A7C2E4D18183F4B1DBEBB895ABE509BF82C32B86955567E7C3BDC9E9 DUP7 DUP4 PUSH1 0x40 MLOAD PUSH2 0x42C SWAP3 SWAP2 SWAP1 PUSH2 0xCFD JUMP JUMPDEST PUSH1 0x40 MLOAD DUP1 SWAP2 SUB SWAP1 LOG2 POP PUSH2 0x43D PUSH2 0x698 JUMP JUMPDEST POP POP POP POP JUMP JUMPDEST PUSH1 0x3 SLOAD DUP2 JUMP JUMPDEST PUSH1 0x2 SLOAD DUP2 JUMP JUMPDEST PUSH2 0x457 PUSH2 0x6A1 JUMP JUMPDEST PUSH2 0x460 PUSH0 PUSH2 0x728 JUMP JUMPDEST JUMP JUMPDEST PUSH2 0x46A PUSH2 0x6A1 JUMP JUMPDEST DUP1 PUSH1 0x2 DUP2 SWAP1 SSTORE POP PUSH0 PUSH1 0x3 DUP2 SWAP1 SSTORE POP PUSH0 PUSH1 0x4 DUP2 SWAP1 SSTORE POP PUSH32 0x3EF9F871D3FA30B23A7971BD4CE885F1EDC4D2C8C177B87B307E75475854E522 DUP2 PUSH1 0x40 MLOAD PUSH2 0x4AE SWAP2 SWAP1 PUSH2 0x9F6 JUMP JUMPDEST PUSH1 0x40 MLOAD DUP1 SWAP2 SUB SWAP1 LOG1 POP JUMP JUMPDEST PUSH1 0x6 PUSH1 0x20 MSTORE DUP2 PUSH0 MSTORE PUSH1 0x40 PUSH0 KECCAK256 PUSH1 0x20 MSTORE DUP1 PUSH0 MSTORE PUSH1 0x40 PUSH0 KECCAK256 PUSH0 SWAP2 POP SWAP2 POP SWAP1 SLOAD SWAP1 PUSH2 0x100 EXP SWAP1 DIV PUSH1 0xFF AND DUP2 JUMP JUMPDEST PUSH1 0x5 SLOAD DUP2 JUMP JUMPDEST PUSH0 PUSH0 PUSH0 SWAP1 SLOAD SWAP1 PUSH2 0x100 EXP SWAP1 DIV PUSH20 0xFFFFFFFFFFFFFFFFFFFFFFFFFFFFFFFFFFFFFFFF AND SWAP1 POP SWAP1 JUMP JUMPDEST PUSH0 PUSH1 0x5 SLOAD PUSH1 0x4 SLOAD LT ISZERO SWAP1 POP SWAP1 JUMP JUMPDEST PUSH1 0x4 SLOAD DUP2 JUMP JUMPDEST PUSH2 0x52C PUSH2 0x6A1 JUMP JUMPDEST PUSH0 DUP2 GT PUSH2 0x56E JUMPI PUSH1 0x40 MLOAD PUSH32 0x8C379A000000000000000000000000000000000000000000000000000000000 DUP2 MSTORE PUSH1 0x4 ADD PUSH2 0x565 SWAP1 PUSH2 0xD6E JUMP JUMPDEST PUSH1 0x40 MLOAD DUP1 SWAP2 SUB SWAP1 REVERT JUMPDEST DUP1 PUSH1 0x5 DUP2 SWAP1 SSTORE POP PUSH32 0x8D6DCB7C3FC9858BAF5E2B16F2F78FF2EE6B2BC94D975D1249B3CD2252413D85 DUP2 PUSH1 0x40 MLOAD PUSH2 0x5A4 SWAP2 SWAP1 PUSH2 0x9CE JUMP JUMPDEST PUSH1 0x40 MLOAD DUP1 SWAP2 SUB SWAP1 LOG1 POP JUMP JUMPDEST PUSH2 0x5B7 PUSH2 0x6A1 JUMP JUMPDEST PUSH0 PUSH20 0xFFFFFFFFFFFFFFFFFFFFFFFFFFFFFFFFFFFFFFFF AND DUP2 PUSH20 0xFFFFFFFFFFFFFFFFFFFFFFFFFFFFFFFFFFFFFFFF AND SUB PUSH2 0x627 JUMPI PUSH0 PUSH1 0x40 MLOAD PUSH32 0x1E4FBDF700000000000000000000000000000000000000000000000000000000 DUP2 MSTORE PUSH1 0x4 ADD PUSH2 0x61E SWAP2 SWAP1 PUSH2 0xB14 JUMP JUMPDEST PUSH1 0x40 MLOAD DUP1 SWAP2 SUB SWAP1 REVERT JUMPDEST PUSH2 0x630 DUP2 PUSH2 0x728 JUMP JUMPDEST POP JUMP JUMPDEST PUSH1 0x2 PUSH1 0x1 SLOAD SUB PUSH2 0x678 JUMPI PUSH1 0x40 MLOAD PUSH32 0x8C379A000000000000000000000000000000000000000000000000000000000 DUP2 MSTORE PUSH1 0x4 ADD PUSH2 0x66F SWAP1 PUSH2 0xDD6 JUMP JUMPDEST PUSH1 0x40 MLOAD DUP1 SWAP2 SUB SWAP1 REVERT JUMPDEST PUSH1 0x2 PUSH1 0x1 DUP2 SWAP1 SSTORE POP JUMP JUMPDEST PUSH0 DUP3 PUSH2 0x68E DUP6 DUP5 PUSH2 0x7E9 JUMP JUMPDEST EQ SWAP1 POP SWAP4 SWAP3 POP POP POP JUMP JUMPDEST PUSH1 0x1 DUP1 DUP2 SWAP1 SSTORE POP JUMP JUMPDEST PUSH2 0x6A9 PUSH2 0x83A JUMP JUMPDEST PUSH20 0xFFFFFFFFFFFFFFFFFFFFFFFFFFFFFFFFFFFFFFFF AND PUSH2 0x6C7 PUSH2 0x4E9 JUMP JUMPDEST PUSH20 0xFFFFFFFFFFFFFFFFFFFFFFFFFFFFFFFFFFFFFFFF AND EQ PUSH2 0x726 JUMPI PUSH2 0x6EA PUSH2 0x83A JUMP JUMPDEST PUSH1 0x40 MLOAD PUSH32 0x118CDAA700000000000000000000000000000000000000000000000000000000 DUP2 MSTORE PUSH1 0x4 ADD PUSH2 0x71D SWAP2 SWAP1 PUSH2 0xB14 JUMP JUMPDEST PUSH1 0x40 MLOAD DUP1 SWAP2 SUB SWAP1 REVERT JUMPDEST JUMP JUMPDEST PUSH0 PUSH0 PUSH0 SWAP1 SLOAD SWAP1 PUSH2 0x100 EXP SWAP1 DIV PUSH20 0xFFFFFFFFFFFFFFFFFFFFFFFFFFFFFFFFFFFFFFFF AND SWAP1 POP DUP2 PUSH0 PUSH0 PUSH2 0x100 EXP DUP2 SLOAD DUP2 PUSH20 0xFFFFFFFFFFFFFFFFFFFFFFFFFFFFFFFFFFFFFFFF MUL NOT AND SWAP1 DUP4 PUSH20 0xFFFFFFFFFFFFFFFFFFFFFFFFFFFFFFFFFFFFFFFF AND MUL OR SWAP1 SSTORE POP DUP2 PUSH20 0xFFFFFFFFFFFFFFFFFFFFFFFFFFFFFFFFFFFFFFFF AND DUP2 PUSH20 0xFFFFFFFFFFFFFFFFFFFFFFFFFFFFFFFFFFFFFFFF AND PUSH32 0x8BE0079C531659141344CD1FD0A4F28419497F9722A3DAAFE3B4186F6B6457E0 PUSH1 0x40 MLOAD PUSH1 0x40 MLOAD DUP1 SWAP2 SUB SWAP1 LOG3 POP POP JUMP JUMPDEST PUSH0 PUSH0 DUP3 SWAP1 POP PUSH0 PUSH0 SWAP1 POP JUMPDEST DUP5 MLOAD DUP2 LT ISZERO PUSH2 0x82F JUMPI PUSH2 0x820 DUP3 DUP7 DUP4 DUP2 MLOAD DUP2 LT PUSH2 0x813 JUMPI PUSH2 0x812 PUSH2 0xDF4 JUMP JUMPDEST JUMPDEST PUSH1 0x20 MUL PUSH1 0x20 ADD ADD MLOAD PUSH2 0x841 JUMP JUMPDEST SWAP2 POP DUP1 DUP1 PUSH1 0x1 ADD SWAP2 POP POP PUSH2 0x7F3 JUMP JUMPDEST POP DUP1 SWAP2 POP POP SWAP3 SWAP2 POP POP JUMP JUMPDEST PUSH0 CALLER SWAP1 POP SWAP1 JUMP JUMPDEST PUSH0 DUP2 DUP4 LT PUSH2 0x858 JUMPI PUSH2 0x853 DUP3 DUP5 PUSH2 0x86B JUMP JUMPDEST PUSH2 0x863 JUMP JUMPDEST PUSH2 0x862 DUP4 DUP4 PUSH2 0x86B JUMP JUMPDEST JUMPDEST SWAP1 POP SWAP3 SWAP2 POP POP JUMP JUMPDEST PUSH0 DUP3 PUSH0 MSTORE DUP2 PUSH1 0x20 MSTORE PUSH1 0x40 PUSH0 KECCAK256 SWAP1 POP SWAP3 SWAP2 POP POP JUMP JUMPDEST PUSH0 PUSH0 REVERT JUMPDEST PUSH0 PUSH0 REVERT JUMPDEST PUSH0 DUP2 SWAP1 POP SWAP2 SWAP1 POP JUMP JUMPDEST PUSH2 0x899 DUP2 PUSH2 0x887 JUMP JUMPDEST DUP2 EQ PUSH2 0x8A3 JUMPI PUSH0 PUSH0 REVERT JUMPDEST POP JUMP JUMPDEST PUSH0 DUP2 CALLDATALOAD SWAP1 POP PUSH2 0x8B4 DUP2 PUSH2 0x890 JUMP JUMPDEST SWAP3 SWAP2 POP POP JUMP JUMPDEST PUSH0 DUP2 SWAP1 POP SWAP2 SWAP1 POP JUMP JUMPDEST PUSH2 0x8CC DUP2 PUSH2 0x8BA JUMP JUMPDEST DUP2 EQ PUSH2 0x8D6 JUMPI PUSH0 PUSH0 REVERT JUMPDEST POP JUMP JUMPDEST PUSH0 DUP2 CALLDATALOAD SWAP1 POP PUSH2 0x8E7 DUP2 PUSH2 0x8C3 JUMP JUMPDEST SWAP3 SWAP2 POP POP JUMP JUMPDEST PUSH0 PUSH0 REVERT JUMPDEST PUSH0 PUSH0 REVERT JUMPDEST PUSH0 PUSH0 REVERT JUMPDEST PUSH0 PUSH0 DUP4 PUSH1 0x1F DUP5 ADD SLT PUSH2 0x90E JUMPI PUSH2 0x90D PUSH2 0x8ED JUMP JUMPDEST JUMPDEST DUP3 CALLDATALOAD SWAP1 POP PUSH8 0xFFFFFFFFFFFFFFFF DUP2 GT ISZERO PUSH2 0x92B JUMPI PUSH2 0x92A PUSH2 0x8F1 JUMP JUMPDEST JUMPDEST PUSH1 0x20 DUP4 ADD SWAP2 POP DUP4 PUSH1 0x20 DUP3 MUL DUP4 ADD GT ISZERO PUSH2 0x947 JUMPI PUSH2 0x946 PUSH2 0x8F5 JUMP JUMPDEST JUMPDEST SWAP3 POP SWAP3 SWAP1 POP JUMP JUMPDEST PUSH0 PUSH0 PUSH0 PUSH0 PUSH1 0x60 DUP6 DUP8 SUB SLT ISZERO PUSH2 0x966 JUMPI PUSH2 0x965 PUSH2 0x87F JUMP JUMPDEST JUMPDEST PUSH0 PUSH2 0x973 DUP8 DUP3 DUP9 ADD PUSH2 0x8A6 JUMP JUMPDEST SWAP5 POP POP PUSH1 0x20 PUSH2 0x984 DUP8 DUP3 DUP9 ADD PUSH2 0x8D9 JUMP JUMPDEST SWAP4 POP POP PUSH1 0x40 DUP6 ADD CALLDATALOAD PUSH8 0xFFFFFFFFFFFFFFFF DUP2 GT ISZERO PUSH2 0x9A5 JUMPI PUSH2 0x9A4 PUSH2 0x883 JUMP JUMPDEST JUMPDEST PUSH2 0x9B1 DUP8 DUP3 DUP9 ADD PUSH2 0x8F9 JUMP JUMPDEST SWAP3 POP SWAP3 POP POP SWAP3 SWAP6 SWAP2 SWAP5 POP SWAP3 POP JUMP JUMPDEST PUSH2 0x9C8 DUP2 PUSH2 0x887 JUMP JUMPDEST DUP3 MSTORE POP POP JUMP JUMPDEST PUSH0 PUSH1 0x20 DUP3 ADD SWAP1 POP PUSH2 0x9E1 PUSH0 DUP4 ADD DUP5 PUSH2 0x9BF JUMP JUMPDEST SWAP3 SWAP2 POP POP JUMP JUMPDEST PUSH2 0x9F0 DUP2 PUSH2 0x8BA JUMP JUMPDEST DUP3 MSTORE POP POP JUMP JUMPDEST PUSH0 PUSH1 0x20 DUP3 ADD SWAP1 POP PUSH2 0xA09 PUSH0 DUP4 ADD DUP5 PUSH2 0x9E7 JUMP JUMPDEST SWAP3 SWAP2 POP POP JUMP JUMPDEST PUSH0 PUSH1 0x20 DUP3 DUP5 SUB SLT ISZERO PUSH2 0xA24 JUMPI PUSH2 0xA23 PUSH2 0x87F JUMP JUMPDEST JUMPDEST PUSH0 PUSH2 0xA31 DUP5 DUP3 DUP6 ADD PUSH2 0x8D9 JUMP JUMPDEST SWAP2 POP POP SWAP3 SWAP2 POP POP JUMP JUMPDEST PUSH0 PUSH20 0xFFFFFFFFFFFFFFFFFFFFFFFFFFFFFFFFFFFFFFFF DUP3 AND SWAP1 POP SWAP2 SWAP1 POP JUMP JUMPDEST PUSH0 PUSH2 0xA63 DUP3 PUSH2 0xA3A JUMP JUMPDEST SWAP1 POP SWAP2 SWAP1 POP JUMP JUMPDEST PUSH2 0xA73 DUP2 PUSH2 0xA59 JUMP JUMPDEST DUP2 EQ PUSH2 0xA7D JUMPI PUSH0 PUSH0 REVERT JUMPDEST POP JUMP JUMPDEST PUSH0 DUP2 CALLDATALOAD SWAP1 POP PUSH2 0xA8E DUP2 PUSH2 0xA6A JUMP JUMPDEST SWAP3 SWAP2 POP POP JUMP JUMPDEST PUSH0 PUSH0 PUSH1 0x40 DUP4 DUP6 SUB SLT ISZERO PUSH2 0xAAA JUMPI PUSH2 0xAA9 PUSH2 0x87F JUMP JUMPDEST JUMPDEST PUSH0 PUSH2 0xAB7 DUP6 DUP3 DUP7 ADD PUSH2 0xA80 JUMP JUMPDEST SWAP3 POP POP PUSH1 0x20 PUSH2 0xAC8 DUP6 DUP3 DUP7 ADD PUSH2 0x8A6 JUMP JUMPDEST SWAP2 POP POP SWAP3 POP SWAP3 SWAP1 POP JUMP JUMPDEST PUSH0 DUP2 ISZERO ISZERO SWAP1 POP SWAP2 SWAP1 POP JUMP JUMPDEST PUSH2 0xAE6 DUP2 PUSH2 0xAD2 JUMP JUMPDEST DUP3 MSTORE POP POP JUMP JUMPDEST PUSH0 PUSH1 0x20 DUP3 ADD SWAP1 POP PUSH2 0xAFF PUSH0 DUP4 ADD DUP5 PUSH2 0xADD JUMP JUMPDEST SWAP3 SWAP2 POP POP JUMP JUMPDEST PUSH2 0xB0E DUP2 PUSH2 0xA59 JUMP JUMPDEST DUP3 MSTORE POP POP JUMP JUMPDEST PUSH0 PUSH1 0x20 DUP3 ADD SWAP1 POP PUSH2 0xB27 PUSH0 DUP4 ADD DUP5 PUSH2 0xB05 JUMP JUMPDEST SWAP3 SWAP2 POP POP JUMP JUMPDEST PUSH0 PUSH1 0x20 DUP3 DUP5 SUB SLT ISZERO PUSH2 0xB42 JUMPI PUSH2 0xB41 PUSH2 0x87F JUMP JUMPDEST JUMPDEST PUSH0 PUSH2 0xB4F DUP5 DUP3 DUP6 ADD PUSH2 0x8A6 JUMP JUMPDEST SWAP2 POP POP SWAP3 SWAP2 POP POP JUMP JUMPDEST PUSH0 PUSH1 0x20 DUP3 DUP5 SUB SLT ISZERO PUSH2 0xB6D JUMPI PUSH2 0xB6C PUSH2 0x87F JUMP JUMPDEST JUMPDEST PUSH0 PUSH2 0xB7A DUP5 DUP3 DUP6 ADD PUSH2 0xA80 JUMP JUMPDEST SWAP2 POP POP SWAP3 SWAP2 POP POP JUMP JUMPDEST PUSH0 DUP3 DUP3 MSTORE PUSH1 0x20 DUP3 ADD SWAP1 POP SWAP3 SWAP2 POP POP JUMP JUMPDEST PUSH32 0x4461746120726F6F74206E6F7420736574000000000000000000000000000000 PUSH0 DUP3 ADD MSTORE POP JUMP JUMPDEST PUSH0 PUSH2 0xBC7 PUSH1 0x11 DUP4 PUSH2 0xB83 JUMP JUMPDEST SWAP2 POP PUSH2 0xBD2 DUP3 PUSH2 0xB93 JUMP JUMPDEST PUSH1 0x20 DUP3 ADD SWAP1 POP SWAP2 SWAP1 POP JUMP JUMPDEST PUSH0 PUSH1 0x20 DUP3 ADD SWAP1 POP DUP2 DUP2 SUB PUSH0 DUP4 ADD MSTORE PUSH2 0xBF4 DUP2 PUSH2 0xBBB JUMP JUMPDEST SWAP1 POP SWAP2 SWAP1 POP JUMP JUMPDEST PUSH32 0x53616D706C6520616C7265616479207375626D697474656420666F7220746869 PUSH0 DUP3 ADD MSTORE PUSH32 0x7320696E64657800000000000000000000000000000000000000000000000000 PUSH1 0x20 DUP3 ADD MSTORE POP JUMP JUMPDEST PUSH0 PUSH2 0xC55 PUSH1 0x27 DUP4 PUSH2 0xB83 JUMP JUMPDEST SWAP2 POP PUSH2 0xC60 DUP3 PUSH2 0xBFB JUMP JUMPDEST PUSH1 0x40 DUP3 ADD SWAP1 POP SWAP2 SWAP1 POP JUMP JUMPDEST PUSH0 PUSH1 0x20 DUP3 ADD SWAP1 POP DUP2 DUP2 SUB PUSH0 DUP4 ADD MSTORE PUSH2 0xC82 DUP2 PUSH2 0xC49 JUMP JUMPDEST SWAP1 POP SWAP2 SWAP1 POP JUMP JUMPDEST PUSH32 0x4E487B7100000000000000000000000000000000000000000000000000000000 PUSH0 MSTORE PUSH1 0x11 PUSH1 0x4 MSTORE PUSH1 0x24 PUSH0 REVERT JUMPDEST PUSH0 PUSH2 0xCC0 DUP3 PUSH2 0x887 JUMP JUMPDEST SWAP2 POP PUSH32 0xFFFFFFFFFFFFFFFFFFFFFFFFFFFFFFFFFFFFFFFFFFFFFFFFFFFFFFFFFFFFFFFF DUP3 SUB PUSH2 0xCF2 JUMPI PUSH2 0xCF1 PUSH2 0xC89 JUMP JUMPDEST JUMPDEST PUSH1 0x1 DUP3 ADD SWAP1 POP SWAP2 SWAP1 POP JUMP JUMPDEST PUSH0 PUSH1 0x40 DUP3 ADD SWAP1 POP PUSH2 0xD10 PUSH0 DUP4 ADD DUP6 PUSH2 0x9BF JUMP JUMPDEST PUSH2 0xD1D PUSH1 0x20 DUP4 ADD DUP5 PUSH2 0xADD JUMP JUMPDEST SWAP4 SWAP3 POP POP POP JUMP JUMPDEST PUSH32 0x52657175697265642073616D706C6573206D757374206265203E203000000000 PUSH0 DUP3 ADD MSTORE POP JUMP JUMPDEST PUSH0 PUSH2 0xD58 PUSH1 0x1C DUP4 PUSH2 0xB83 JUMP JUMPDEST SWAP2 POP PUSH2 0xD63 DUP3 PUSH2 0xD24 JUMP JUMPDEST PUSH1 0x20 DUP3 ADD SWAP1 POP SWAP2 SWAP1 POP JUMP JUMPDEST PUSH0 PUSH1 0x20 DUP3 ADD SWAP1 POP DUP2 DUP2 SUB PUSH0 DUP4 ADD MSTORE PUSH2 0xD85 DUP2 PUSH2 0xD4C JUMP JUMPDEST SWAP1 POP SWAP2 SWAP1 POP JUMP JUMPDEST PUSH32 0x5265656E7472616E637947756172643A207265656E7472616E742063616C6C00 PUSH0 DUP3 ADD MSTORE POP JUMP JUMPDEST PUSH0 PUSH2 0xDC0 PUSH1 0x1F DUP4 PUSH2 0xB83 JUMP JUMPDEST SWAP2 POP PUSH2 0xDCB DUP3 PUSH2 0xD8C JUMP JUMPDEST PUSH1 0x20 DUP3 ADD SWAP1 POP SWAP2 SWAP1 POP JUMP JUMPDEST PUSH0 PUSH1 0x20 DUP3 ADD SWAP1 POP DUP2 DUP2 SUB PUSH0 DUP4 ADD MSTORE PUSH2 0xDED DUP2 PUSH2 0xDB4 JUMP JUMPDEST SWAP1 POP SWAP2 SWAP1 POP JUMP JUMPDEST PUSH32 0x4E487B7100000000000000000000000000000000000000000000000000000000 PUSH0 MSTORE PUSH1 0x32 PUSH1 0x4 MSTORE PUSH1 0x24 PUSH0 REVERT INVALID LOG2 PUSH5 0x6970667358 0x22 SLT KECCAK256 PUSH10 0x5A52AA1CA11E06D99F10 SWAP2 0xD3 LOG4 0x4E 0xAC PUSH22 0xBBD0ECFB70696FE1FDC0F0EA0EC98A64736F6C634300 ADDMOD SAR STOP CALLER "
				},
				"gasEstimates": {
					"creation": {
						"codeDepositCost": "734200",
						"executionCost": "infinite",
						"totalCost": "infinite"
					},
					"external": {
						"dataRoot()": "2470",
						"isDataAvailable()": "4591",
						"owner()": "2536",
						"renounceOwnership()": "infinite",
						"requiredSamples()": "2425",
						"sampleSubmitted(address,uint256)": "3181",
						"submitSample(uint256,bytes32,bytes32[])": "infinite",
						"totalSamples()": "2448",
						"transferOwnership(address)": "infinite",
						"updateDataRoot(bytes32)": "infinite",
						"updateRequiredSamples(uint256)": "infinite",
						"validSamples()": "2491"
					}
				},
				"methodIdentifiers": {
					"dataRoot()": "6dff3584",
					"isDataAvailable()": "994e2076",
					"owner()": "8da5cb5b",
					"renounceOwnership()": "715018a6",
					"requiredSamples()": "8aeb41f5",
					"sampleSubmitted(address,uint256)": "85556c07",
					"submitSample(uint256,bytes32,bytes32[])": "02108dd4",
					"totalSamples()": "021bcf9b",
					"transferOwnership(address)": "f2fde38b",
					"updateDataRoot(bytes32)": "7cf5894d",
					"updateRequiredSamples(uint256)": "dbcebae6",
					"validSamples()": "a886f4c9"
				}
			},
			"storageLayout": {
				"storage": [
					{
						"astId": 8,
						"contract": "D/dataAvailabilitySampling.sol:DataAvailabilitySampling",
						"label": "_owner",
						"offset": 0,
						"slot": "0",
						"type": "t_address"
					},
					{
						"astId": 158,
						"contract": "D/dataAvailabilitySampling.sol:DataAvailabilitySampling",
						"label": "_status",
						"offset": 0,
						"slot": "1",
						"type": "t_uint256"
					},
					{
						"astId": 1367,
						"contract": "D/dataAvailabilitySampling.sol:DataAvailabilitySampling",
						"label": "dataRoot",
						"offset": 0,
						"slot": "2",
						"type": "t_bytes32"
					},
					{
						"astId": 1369,
						"contract": "D/dataAvailabilitySampling.sol:DataAvailabilitySampling",
						"label": "totalSamples",
						"offset": 0,
						"slot": "3",
						"type": "t_uint256"
					},
					{
						"astId": 1371,
						"contract": "D/dataAvailabilitySampling.sol:DataAvailabilitySampling",
						"label": "validSamples",
						"offset": 0,
						"slot": "4",
						"type": "t_uint256"
					},
					{
						"astId": 1373,
						"contract": "D/dataAvailabilitySampling.sol:DataAvailabilitySampling",
						"label": "requiredSamples",
						"offset": 0,
						"slot": "5",
						"type": "t_uint256"
					},
					{
						"astId": 1379,
						"contract": "D/dataAvailabilitySampling.sol:DataAvailabilitySampling",
						"label": "sampleSubmitted",
						"offset": 0,
						"slot": "6",
						"type": "t_mapping(t_address,t_mapping(t_uint256,t_bool))"
					}
				],
				"types": {
					"t_address": {
						"encoding": "inplace",
						"label": "address",
						"numberOfBytes": "20"
					},
					"t_bool": {
						"encoding": "inplace",
						"label": "bool",
						"numberOfBytes": "1"
					},
					"t_bytes32": {
						"encoding": "inplace",
						"label": "bytes32",
						"numberOfBytes": "32"
					},
					"t_mapping(t_address,t_mapping(t_uint256,t_bool))": {
						"encoding": "mapping",
						"key": "t_address",
						"label": "mapping(address => mapping(uint256 => bool))",
						"numberOfBytes": "32",
						"value": "t_mapping(t_uint256,t_bool)"
					},
					"t_mapping(t_uint256,t_bool)": {
						"encoding": "mapping",
						"key": "t_uint256",
						"label": "mapping(uint256 => bool)",
						"numberOfBytes": "32",
						"value": "t_bool"
					},
					"t_uint256": {
						"encoding": "inplace",
						"label": "uint256",
						"numberOfBytes": "32"
					}
				}
			},
			"userdoc": {
				"kind": "user",
				"methods": {
					"constructor": {
						"notice": "Constructor sets the deployer as the initial owner."
					},
					"isDataAvailable()": {
						"notice": "Checks whether the data is considered available based on valid samples."
					},
					"submitSample(uint256,bytes32,bytes32[])": {
						"notice": "Submits a sample for data availability verification."
					},
					"updateDataRoot(bytes32)": {
						"notice": "Sets or updates the Merkle root representing the off-chain dataset. Resets sample counters when updated."
					},
					"updateRequiredSamples(uint256)": {
						"notice": "Sets the required number of valid samples."
					}
				},
				"notice": "This contract allows the owner to set a Merkle root representing an off‑chain dataset. Participants submit samples (with sample index, leaf, and Merkle proof) to verify that data is available. The contract tracks the total and valid samples, and once the number of valid samples meets the threshold, the data is considered available.",
				"version": 1
			}
		}
	}
}