{
	"D/distributed proof of security.sol": {
		"DPoSec": {
			"abi": [
				{
					"inputs": [
						{
							"internalType": "address",
							"name": "_stakingToken",
							"type": "address"
						}
					],
					"stateMutability": "nonpayable",
					"type": "constructor"
				},
				{
					"inputs": [
						{
							"internalType": "address",
							"name": "owner",
							"type": "address"
						}
					],
					"name": "OwnableInvalidOwner",
					"type": "error"
				},
				{
					"inputs": [
						{
							"internalType": "address",
							"name": "account",
							"type": "address"
						}
					],
					"name": "OwnableUnauthorizedAccount",
					"type": "error"
				},
				{
					"anonymous": false,
					"inputs": [
						{
							"indexed": true,
							"internalType": "address",
							"name": "previousOwner",
							"type": "address"
						},
						{
							"indexed": true,
							"internalType": "address",
							"name": "newOwner",
							"type": "address"
						}
					],
					"name": "OwnershipTransferred",
					"type": "event"
				},
				{
					"anonymous": false,
					"inputs": [
						{
							"indexed": true,
							"internalType": "address",
							"name": "watcher",
							"type": "address"
						},
						{
							"indexed": false,
							"internalType": "uint256",
							"name": "slashAmount",
							"type": "uint256"
						}
					],
					"name": "Slashed",
					"type": "event"
				},
				{
					"anonymous": false,
					"inputs": [
						{
							"indexed": true,
							"internalType": "address",
							"name": "watcher",
							"type": "address"
						},
						{
							"indexed": false,
							"internalType": "uint256",
							"name": "amount",
							"type": "uint256"
						}
					],
					"name": "Staked",
					"type": "event"
				},
				{
					"anonymous": false,
					"inputs": [
						{
							"indexed": true,
							"internalType": "address",
							"name": "watcher",
							"type": "address"
						},
						{
							"indexed": false,
							"internalType": "uint256",
							"name": "amount",
							"type": "uint256"
						}
					],
					"name": "Unstaked",
					"type": "event"
				},
				{
					"anonymous": false,
					"inputs": [
						{
							"indexed": true,
							"internalType": "address",
							"name": "watcher",
							"type": "address"
						}
					],
					"name": "WatcherRegistered",
					"type": "event"
				},
				{
					"anonymous": false,
					"inputs": [
						{
							"indexed": true,
							"internalType": "address",
							"name": "watcher",
							"type": "address"
						}
					],
					"name": "WatcherUnregistered",
					"type": "event"
				},
				{
					"inputs": [
						{
							"internalType": "address",
							"name": "watcher",
							"type": "address"
						}
					],
					"name": "getStakedBalance",
					"outputs": [
						{
							"internalType": "uint256",
							"name": "",
							"type": "uint256"
						}
					],
					"stateMutability": "view",
					"type": "function"
				},
				{
					"inputs": [
						{
							"internalType": "address",
							"name": "watcher",
							"type": "address"
						}
					],
					"name": "isActiveWatcher",
					"outputs": [
						{
							"internalType": "bool",
							"name": "",
							"type": "bool"
						}
					],
					"stateMutability": "view",
					"type": "function"
				},
				{
					"inputs": [],
					"name": "owner",
					"outputs": [
						{
							"internalType": "address",
							"name": "",
							"type": "address"
						}
					],
					"stateMutability": "view",
					"type": "function"
				},
				{
					"inputs": [
						{
							"internalType": "address",
							"name": "watcher",
							"type": "address"
						}
					],
					"name": "registerWatcher",
					"outputs": [],
					"stateMutability": "nonpayable",
					"type": "function"
				},
				{
					"inputs": [],
					"name": "renounceOwnership",
					"outputs": [],
					"stateMutability": "nonpayable",
					"type": "function"
				},
				{
					"inputs": [
						{
							"internalType": "address",
							"name": "watcher",
							"type": "address"
						},
						{
							"internalType": "uint256",
							"name": "slashAmount",
							"type": "uint256"
						},
						{
							"internalType": "address",
							"name": "recipient",
							"type": "address"
						}
					],
					"name": "slash",
					"outputs": [],
					"stateMutability": "nonpayable",
					"type": "function"
				},
				{
					"inputs": [
						{
							"internalType": "uint256",
							"name": "amount",
							"type": "uint256"
						}
					],
					"name": "stake",
					"outputs": [],
					"stateMutability": "nonpayable",
					"type": "function"
				},
				{
					"inputs": [],
					"name": "stakingToken",
					"outputs": [
						{
							"internalType": "contract IERC20",
							"name": "",
							"type": "address"
						}
					],
					"stateMutability": "view",
					"type": "function"
				},
				{
					"inputs": [],
					"name": "totalStaked",
					"outputs": [
						{
							"internalType": "uint256",
							"name": "",
							"type": "uint256"
						}
					],
					"stateMutability": "view",
					"type": "function"
				},
				{
					"inputs": [
						{
							"internalType": "address",
							"name": "newOwner",
							"type": "address"
						}
					],
					"name": "transferOwnership",
					"outputs": [],
					"stateMutability": "nonpayable",
					"type": "function"
				},
				{
					"inputs": [
						{
							"internalType": "address",
							"name": "watcher",
							"type": "address"
						}
					],
					"name": "unregisterWatcher",
					"outputs": [],
					"stateMutability": "nonpayable",
					"type": "function"
				},
				{
					"inputs": [
						{
							"internalType": "uint256",
							"name": "amount",
							"type": "uint256"
						}
					],
					"name": "unstake",
					"outputs": [],
					"stateMutability": "nonpayable",
					"type": "function"
				},
				{
					"inputs": [
						{
							"internalType": "address",
							"name": "",
							"type": "address"
						}
					],
					"name": "watchers",
					"outputs": [
						{
							"internalType": "address",
							"name": "watcherAddress",
							"type": "address"
						},
						{
							"internalType": "uint256",
							"name": "stakedBalance",
							"type": "uint256"
						},
						{
							"internalType": "bool",
							"name": "active",
							"type": "bool"
						}
					],
					"stateMutability": "view",
					"type": "function"
				}
			],
			"devdoc": {
				"errors": {
					"OwnableInvalidOwner(address)": [
						{
							"details": "The owner is not a valid owner account. (eg. `address(0)`)"
						}
					],
					"OwnableUnauthorizedAccount(address)": [
						{
							"details": "The caller account is not authorized to perform an operation."
						}
					]
				},
				"kind": "dev",
				"methods": {
					"constructor": {
						"params": {
							"_stakingToken": "The ERC20 token contract address used for staking."
						}
					},
					"getStakedBalance(address)": {
						"params": {
							"watcher": "The address of the watcher."
						},
						"returns": {
							"_0": "The amount of staked tokens."
						}
					},
					"isActiveWatcher(address)": {
						"params": {
							"watcher": "The address to check."
						},
						"returns": {
							"_0": "True if watcher is active, false otherwise."
						}
					},
					"owner()": {
						"details": "Returns the address of the current owner."
					},
					"registerWatcher(address)": {
						"params": {
							"watcher": "The address of the watcher to register."
						}
					},
					"renounceOwnership()": {
						"details": "Leaves the contract without owner. It will not be possible to call `onlyOwner` functions. Can only be called by the current owner. NOTE: Renouncing ownership will leave the contract without an owner, thereby disabling any functionality that is only available to the owner."
					},
					"slash(address,uint256,address)": {
						"params": {
							"recipient": "The address that receives the slashed stake. Typically the protocol treasury or the contract's address.",
							"slashAmount": "The amount to slash from the watcher's stake.",
							"watcher": "The address of the watcher to slash."
						}
					},
					"stake(uint256)": {
						"params": {
							"amount": "The number of tokens to stake."
						}
					},
					"transferOwnership(address)": {
						"details": "Transfers ownership of the contract to a new account (`newOwner`). Can only be called by the current owner."
					},
					"unregisterWatcher(address)": {
						"params": {
							"watcher": "The address of the watcher to unregister."
						}
					},
					"unstake(uint256)": {
						"params": {
							"amount": "The number of tokens to unstake."
						}
					}
				},
				"title": "DPoSec (Distributed Proof of Security)",
				"version": 1
			},
			"evm": {
				"assembly": "    /* \"D/distributed proof of security.sol\":718:6903  contract DPoSec is Ownable, ReentrancyGuard {... */\n  mstore(0x40, 0x80)\n    /* \"D/distributed proof of security.sol\":1756:1935  constructor(address _stakingToken) Ownable(msg.sender) {... */\n  callvalue\n  dup1\n  iszero\n  tag_1\n  jumpi\n  revert(0x00, 0x00)\ntag_1:\n  pop\n  mload(0x40)\n  sub(codesize, bytecodeSize)\n  dup1\n  bytecodeSize\n  dup4\n  codecopy\n  dup2\n  dup2\n  add\n  0x40\n  mstore\n  dup2\n  add\n  swap1\n  tag_2\n  swap2\n  swap1\n  tag_3\n  jump\t// in\ntag_2:\n    /* \"D/distributed proof of security.sol\":1799:1809  msg.sender */\n  caller\n    /* \"@openzeppelin/contracts/access/Ownable.sol\":1297:1298  0 */\n  0x00\n    /* \"@openzeppelin/contracts/access/Ownable.sol\":1273:1299  initialOwner == address(0) */\n  0xffffffffffffffffffffffffffffffffffffffff\n  and\n    /* \"@openzeppelin/contracts/access/Ownable.sol\":1273:1285  initialOwner */\n  dup2\n    /* \"@openzeppelin/contracts/access/Ownable.sol\":1273:1299  initialOwner == address(0) */\n  0xffffffffffffffffffffffffffffffffffffffff\n  and\n  sub\n    /* \"@openzeppelin/contracts/access/Ownable.sol\":1269:1364  if (initialOwner == address(0)) {... */\n  tag_8\n  jumpi\n    /* \"@openzeppelin/contracts/access/Ownable.sol\":1350:1351  0 */\n  0x00\n    /* \"@openzeppelin/contracts/access/Ownable.sol\":1322:1353  OwnableInvalidOwner(address(0)) */\n  mload(0x40)\n  0x1e4fbdf700000000000000000000000000000000000000000000000000000000\n  dup2\n  mstore\n  0x04\n  add\n  tag_9\n  swap2\n  swap1\n  tag_10\n  jump\t// in\ntag_9:\n  mload(0x40)\n  dup1\n  swap2\n  sub\n  swap1\n  revert\n    /* \"@openzeppelin/contracts/access/Ownable.sol\":1269:1364  if (initialOwner == address(0)) {... */\ntag_8:\n    /* \"@openzeppelin/contracts/access/Ownable.sol\":1373:1405  _transferOwnership(initialOwner) */\n  tag_11\n    /* \"@openzeppelin/contracts/access/Ownable.sol\":1392:1404  initialOwner */\n  dup2\n    /* \"@openzeppelin/contracts/access/Ownable.sol\":1373:1391  _transferOwnership */\n  shl(0x20, tag_12)\n    /* \"@openzeppelin/contracts/access/Ownable.sol\":1373:1405  _transferOwnership(initialOwner) */\n  0x20\n  shr\n  jump\t// in\ntag_11:\n    /* \"@openzeppelin/contracts/access/Ownable.sol\":1225:1412  constructor(address initialOwner) {... */\n  pop\n    /* \"@openzeppelin/contracts/security/ReentrancyGuard.sol\":1716:1717  1 */\n  0x01\n    /* \"@openzeppelin/contracts/security/ReentrancyGuard.sol\":1821:1828  _status */\n  dup1\n    /* \"@openzeppelin/contracts/security/ReentrancyGuard.sol\":1821:1843  _status = _NOT_ENTERED */\n  dup2\n  swap1\n  sstore\n  pop\n    /* \"D/distributed proof of security.sol\":1854:1855  0 */\n  0x00\n    /* \"D/distributed proof of security.sol\":1829:1856  _stakingToken != address(0) */\n  0xffffffffffffffffffffffffffffffffffffffff\n  and\n    /* \"D/distributed proof of security.sol\":1829:1842  _stakingToken */\n  dup2\n    /* \"D/distributed proof of security.sol\":1829:1856  _stakingToken != address(0) */\n  0xffffffffffffffffffffffffffffffffffffffff\n  and\n  sub\n    /* \"D/distributed proof of security.sol\":1821:1882  require(_stakingToken != address(0), \"Invalid token address\") */\n  tag_15\n  jumpi\n  mload(0x40)\n  0x08c379a000000000000000000000000000000000000000000000000000000000\n  dup2\n  mstore\n  0x04\n  add\n  tag_16\n  swap1\n  tag_17\n  jump\t// in\ntag_16:\n  mload(0x40)\n  dup1\n  swap2\n  sub\n  swap1\n  revert\ntag_15:\n    /* \"D/distributed proof of security.sol\":1914:1927  _stakingToken */\n  dup1\n    /* \"D/distributed proof of security.sol\":1892:1904  stakingToken */\n  0x02\n  0x00\n    /* \"D/distributed proof of security.sol\":1892:1928  stakingToken = IERC20(_stakingToken) */\n  0x0100\n  exp\n  dup2\n  sload\n  dup2\n  0xffffffffffffffffffffffffffffffffffffffff\n  mul\n  not\n  and\n  swap1\n  dup4\n  0xffffffffffffffffffffffffffffffffffffffff\n  and\n  mul\n  or\n  swap1\n  sstore\n  pop\n    /* \"D/distributed proof of security.sol\":1756:1935  constructor(address _stakingToken) Ownable(msg.sender) {... */\n  pop\n    /* \"D/distributed proof of security.sol\":718:6903  contract DPoSec is Ownable, ReentrancyGuard {... */\n  jump(tag_18)\n    /* \"@openzeppelin/contracts/access/Ownable.sol\":2912:3099  function _transferOwnership(address newOwner) internal virtual {... */\ntag_12:\n    /* \"@openzeppelin/contracts/access/Ownable.sol\":2985:3001  address oldOwner */\n  0x00\n    /* \"@openzeppelin/contracts/access/Ownable.sol\":3004:3010  _owner */\n  0x00\n  0x00\n  swap1\n  sload\n  swap1\n  0x0100\n  exp\n  swap1\n  div\n  0xffffffffffffffffffffffffffffffffffffffff\n  and\n    /* \"@openzeppelin/contracts/access/Ownable.sol\":2985:3010  address oldOwner = _owner */\n  swap1\n  pop\n    /* \"@openzeppelin/contracts/access/Ownable.sol\":3029:3037  newOwner */\n  dup2\n    /* \"@openzeppelin/contracts/access/Ownable.sol\":3020:3026  _owner */\n  0x00\n  0x00\n    /* \"@openzeppelin/contracts/access/Ownable.sol\":3020:3037  _owner = newOwner */\n  0x0100\n  exp\n  dup2\n  sload\n  dup2\n  0xffffffffffffffffffffffffffffffffffffffff\n  mul\n  not\n  and\n  swap1\n  dup4\n  0xffffffffffffffffffffffffffffffffffffffff\n  and\n  mul\n  or\n  swap1\n  sstore\n  pop\n    /* \"@openzeppelin/contracts/access/Ownable.sol\":3083:3091  newOwner */\n  dup2\n    /* \"@openzeppelin/contracts/access/Ownable.sol\":3052:3092  OwnershipTransferred(oldOwner, newOwner) */\n  0xffffffffffffffffffffffffffffffffffffffff\n  and\n    /* \"@openzeppelin/contracts/access/Ownable.sol\":3073:3081  oldOwner */\n  dup2\n    /* \"@openzeppelin/contracts/access/Ownable.sol\":3052:3092  OwnershipTransferred(oldOwner, newOwner) */\n  0xffffffffffffffffffffffffffffffffffffffff\n  and\n  0x8be0079c531659141344cd1fd0a4f28419497f9722a3daafe3b4186f6b6457e0\n  mload(0x40)\n  mload(0x40)\n  dup1\n  swap2\n  sub\n  swap1\n  log3\n    /* \"@openzeppelin/contracts/access/Ownable.sol\":2975:3099  {... */\n  pop\n    /* \"@openzeppelin/contracts/access/Ownable.sol\":2912:3099  function _transferOwnership(address newOwner) internal virtual {... */\n  pop\n  jump\t// out\n    /* \"#utility.yul\":88:205   */\ntag_21:\n    /* \"#utility.yul\":197:198   */\n  0x00\n    /* \"#utility.yul\":194:195   */\n  0x00\n    /* \"#utility.yul\":187:199   */\n  revert\n    /* \"#utility.yul\":334:460   */\ntag_23:\n    /* \"#utility.yul\":371:378   */\n  0x00\n    /* \"#utility.yul\":411:453   */\n  0xffffffffffffffffffffffffffffffffffffffff\n    /* \"#utility.yul\":404:409   */\n  dup3\n    /* \"#utility.yul\":400:454   */\n  and\n    /* \"#utility.yul\":389:454   */\n  swap1\n  pop\n    /* \"#utility.yul\":334:460   */\n  swap2\n  swap1\n  pop\n  jump\t// out\n    /* \"#utility.yul\":466:562   */\ntag_24:\n    /* \"#utility.yul\":503:510   */\n  0x00\n    /* \"#utility.yul\":532:556   */\n  tag_37\n    /* \"#utility.yul\":550:555   */\n  dup3\n    /* \"#utility.yul\":532:556   */\n  tag_23\n  jump\t// in\ntag_37:\n    /* \"#utility.yul\":521:556   */\n  swap1\n  pop\n    /* \"#utility.yul\":466:562   */\n  swap2\n  swap1\n  pop\n  jump\t// out\n    /* \"#utility.yul\":568:690   */\ntag_25:\n    /* \"#utility.yul\":641:665   */\n  tag_39\n    /* \"#utility.yul\":659:664   */\n  dup2\n    /* \"#utility.yul\":641:665   */\n  tag_24\n  jump\t// in\ntag_39:\n    /* \"#utility.yul\":634:639   */\n  dup2\n    /* \"#utility.yul\":631:666   */\n  eq\n    /* \"#utility.yul\":621:684   */\n  tag_40\n  jumpi\n    /* \"#utility.yul\":680:681   */\n  0x00\n    /* \"#utility.yul\":677:678   */\n  0x00\n    /* \"#utility.yul\":670:682   */\n  revert\n    /* \"#utility.yul\":621:684   */\ntag_40:\n    /* \"#utility.yul\":568:690   */\n  pop\n  jump\t// out\n    /* \"#utility.yul\":696:839   */\ntag_26:\n    /* \"#utility.yul\":753:758   */\n  0x00\n    /* \"#utility.yul\":784:790   */\n  dup2\n    /* \"#utility.yul\":778:791   */\n  mload\n    /* \"#utility.yul\":769:791   */\n  swap1\n  pop\n    /* \"#utility.yul\":800:833   */\n  tag_42\n    /* \"#utility.yul\":827:832   */\n  dup2\n    /* \"#utility.yul\":800:833   */\n  tag_25\n  jump\t// in\ntag_42:\n    /* \"#utility.yul\":696:839   */\n  swap3\n  swap2\n  pop\n  pop\n  jump\t// out\n    /* \"#utility.yul\":845:1196   */\ntag_3:\n    /* \"#utility.yul\":915:921   */\n  0x00\n    /* \"#utility.yul\":964:966   */\n  0x20\n    /* \"#utility.yul\":952:961   */\n  dup3\n    /* \"#utility.yul\":943:950   */\n  dup5\n    /* \"#utility.yul\":939:962   */\n  sub\n    /* \"#utility.yul\":935:967   */\n  slt\n    /* \"#utility.yul\":932:1051   */\n  iszero\n  tag_44\n  jumpi\n    /* \"#utility.yul\":970:1049   */\n  tag_45\n  tag_21\n  jump\t// in\ntag_45:\n    /* \"#utility.yul\":932:1051   */\ntag_44:\n    /* \"#utility.yul\":1090:1091   */\n  0x00\n    /* \"#utility.yul\":1115:1179   */\n  tag_46\n    /* \"#utility.yul\":1171:1178   */\n  dup5\n    /* \"#utility.yul\":1162:1168   */\n  dup3\n    /* \"#utility.yul\":1151:1160   */\n  dup6\n    /* \"#utility.yul\":1147:1169   */\n  add\n    /* \"#utility.yul\":1115:1179   */\n  tag_26\n  jump\t// in\ntag_46:\n    /* \"#utility.yul\":1105:1179   */\n  swap2\n  pop\n    /* \"#utility.yul\":1061:1189   */\n  pop\n    /* \"#utility.yul\":845:1196   */\n  swap3\n  swap2\n  pop\n  pop\n  jump\t// out\n    /* \"#utility.yul\":1202:1320   */\ntag_27:\n    /* \"#utility.yul\":1289:1313   */\n  tag_48\n    /* \"#utility.yul\":1307:1312   */\n  dup2\n    /* \"#utility.yul\":1289:1313   */\n  tag_24\n  jump\t// in\ntag_48:\n    /* \"#utility.yul\":1284:1287   */\n  dup3\n    /* \"#utility.yul\":1277:1314   */\n  mstore\n    /* \"#utility.yul\":1202:1320   */\n  pop\n  pop\n  jump\t// out\n    /* \"#utility.yul\":1326:1548   */\ntag_10:\n    /* \"#utility.yul\":1419:1423   */\n  0x00\n    /* \"#utility.yul\":1457:1459   */\n  0x20\n    /* \"#utility.yul\":1446:1455   */\n  dup3\n    /* \"#utility.yul\":1442:1460   */\n  add\n    /* \"#utility.yul\":1434:1460   */\n  swap1\n  pop\n    /* \"#utility.yul\":1470:1541   */\n  tag_50\n    /* \"#utility.yul\":1538:1539   */\n  0x00\n    /* \"#utility.yul\":1527:1536   */\n  dup4\n    /* \"#utility.yul\":1523:1540   */\n  add\n    /* \"#utility.yul\":1514:1520   */\n  dup5\n    /* \"#utility.yul\":1470:1541   */\n  tag_27\n  jump\t// in\ntag_50:\n    /* \"#utility.yul\":1326:1548   */\n  swap3\n  swap2\n  pop\n  pop\n  jump\t// out\n    /* \"#utility.yul\":1554:1723   */\ntag_28:\n    /* \"#utility.yul\":1638:1649   */\n  0x00\n    /* \"#utility.yul\":1672:1678   */\n  dup3\n    /* \"#utility.yul\":1667:1670   */\n  dup3\n    /* \"#utility.yul\":1660:1679   */\n  mstore\n    /* \"#utility.yul\":1712:1716   */\n  0x20\n    /* \"#utility.yul\":1707:1710   */\n  dup3\n    /* \"#utility.yul\":1703:1717   */\n  add\n    /* \"#utility.yul\":1688:1717   */\n  swap1\n  pop\n    /* \"#utility.yul\":1554:1723   */\n  swap3\n  swap2\n  pop\n  pop\n  jump\t// out\n    /* \"#utility.yul\":1729:1900   */\ntag_29:\n    /* \"#utility.yul\":1869:1892   */\n  0x496e76616c696420746f6b656e20616464726573730000000000000000000000\n    /* \"#utility.yul\":1865:1866   */\n  0x00\n    /* \"#utility.yul\":1857:1863   */\n  dup3\n    /* \"#utility.yul\":1853:1867   */\n  add\n    /* \"#utility.yul\":1846:1893   */\n  mstore\n    /* \"#utility.yul\":1729:1900   */\n  pop\n  jump\t// out\n    /* \"#utility.yul\":1906:2272   */\ntag_30:\n    /* \"#utility.yul\":2048:2051   */\n  0x00\n    /* \"#utility.yul\":2069:2136   */\n  tag_54\n    /* \"#utility.yul\":2133:2135   */\n  0x15\n    /* \"#utility.yul\":2128:2131   */\n  dup4\n    /* \"#utility.yul\":2069:2136   */\n  tag_28\n  jump\t// in\ntag_54:\n    /* \"#utility.yul\":2062:2136   */\n  swap2\n  pop\n    /* \"#utility.yul\":2145:2238   */\n  tag_55\n    /* \"#utility.yul\":2234:2237   */\n  dup3\n    /* \"#utility.yul\":2145:2238   */\n  tag_29\n  jump\t// in\ntag_55:\n    /* \"#utility.yul\":2263:2265   */\n  0x20\n    /* \"#utility.yul\":2258:2261   */\n  dup3\n    /* \"#utility.yul\":2254:2266   */\n  add\n    /* \"#utility.yul\":2247:2266   */\n  swap1\n  pop\n    /* \"#utility.yul\":1906:2272   */\n  swap2\n  swap1\n  pop\n  jump\t// out\n    /* \"#utility.yul\":2278:2697   */\ntag_17:\n    /* \"#utility.yul\":2444:2448   */\n  0x00\n    /* \"#utility.yul\":2482:2484   */\n  0x20\n    /* \"#utility.yul\":2471:2480   */\n  dup3\n    /* \"#utility.yul\":2467:2485   */\n  add\n    /* \"#utility.yul\":2459:2485   */\n  swap1\n  pop\n    /* \"#utility.yul\":2531:2540   */\n  dup2\n    /* \"#utility.yul\":2525:2529   */\n  dup2\n    /* \"#utility.yul\":2521:2541   */\n  sub\n    /* \"#utility.yul\":2517:2518   */\n  0x00\n    /* \"#utility.yul\":2506:2515   */\n  dup4\n    /* \"#utility.yul\":2502:2519   */\n  add\n    /* \"#utility.yul\":2495:2542   */\n  mstore\n    /* \"#utility.yul\":2559:2690   */\n  tag_57\n    /* \"#utility.yul\":2685:2689   */\n  dup2\n    /* \"#utility.yul\":2559:2690   */\n  tag_30\n  jump\t// in\ntag_57:\n    /* \"#utility.yul\":2551:2690   */\n  swap1\n  pop\n    /* \"#utility.yul\":2278:2697   */\n  swap2\n  swap1\n  pop\n  jump\t// out\n    /* \"D/distributed proof of security.sol\":718:6903  contract DPoSec is Ownable, ReentrancyGuard {... */\ntag_18:\n  dataSize(sub_0)\n  dup1\n  dataOffset(sub_0)\n  0x00\n  codecopy\n  0x00\n  return\nstop\n\nsub_0: assembly {\n        /* \"D/distributed proof of security.sol\":718:6903  contract DPoSec is Ownable, ReentrancyGuard {... */\n      mstore(0x40, 0x80)\n      callvalue\n      dup1\n      iszero\n      tag_1\n      jumpi\n      revert(0x00, 0x00)\n    tag_1:\n      pop\n      jumpi(tag_2, lt(calldatasize, 0x04))\n      shr(0xe0, calldataload(0x00))\n      dup1\n      0x817b1cd2\n      gt\n      tag_16\n      jumpi\n      dup1\n      0xaa65f706\n      gt\n      tag_17\n      jumpi\n      dup1\n      0xaa65f706\n      eq\n      tag_12\n      jumpi\n      dup1\n      0xbfac5990\n      eq\n      tag_13\n      jumpi\n      dup1\n      0xf2fde38b\n      eq\n      tag_14\n      jumpi\n      dup1\n      0xf854fbd2\n      eq\n      tag_15\n      jumpi\n      jump(tag_2)\n    tag_17:\n      dup1\n      0x817b1cd2\n      eq\n      tag_9\n      jumpi\n      dup1\n      0x8da5cb5b\n      eq\n      tag_10\n      jumpi\n      dup1\n      0xa694fc3a\n      eq\n      tag_11\n      jumpi\n      jump(tag_2)\n    tag_16:\n      dup1\n      0x2e17de78\n      eq\n      tag_3\n      jumpi\n      dup1\n      0x3a02a42d\n      eq\n      tag_4\n      jumpi\n      dup1\n      0x3b27c012\n      eq\n      tag_5\n      jumpi\n      dup1\n      0x596150d7\n      eq\n      tag_6\n      jumpi\n      dup1\n      0x715018a6\n      eq\n      tag_7\n      jumpi\n      dup1\n      0x72f702f3\n      eq\n      tag_8\n      jumpi\n    tag_2:\n      revert(0x00, 0x00)\n        /* \"D/distributed proof of security.sol\":4337:4858  function unstake(uint256 amount) external nonReentrant {... */\n    tag_3:\n      tag_18\n      0x04\n      dup1\n      calldatasize\n      sub\n      dup2\n      add\n      swap1\n      tag_19\n      swap2\n      swap1\n      tag_20\n      jump\t// in\n    tag_19:\n      tag_21\n      jump\t// in\n    tag_18:\n      stop\n        /* \"D/distributed proof of security.sol\":6472:6602  function getStakedBalance(address watcher) external view returns (uint256) {... */\n    tag_4:\n      tag_22\n      0x04\n      dup1\n      calldatasize\n      sub\n      dup2\n      add\n      swap1\n      tag_23\n      swap2\n      swap1\n      tag_24\n      jump\t// in\n    tag_23:\n      tag_25\n      jump\t// in\n    tag_22:\n      mload(0x40)\n      tag_26\n      swap2\n      swap1\n      tag_27\n      jump\t// in\n    tag_26:\n      mload(0x40)\n      dup1\n      swap2\n      sub\n      swap1\n      return\n        /* \"D/distributed proof of security.sol\":2867:3326  function unregisterWatcher(address watcher) external onlyOwner {... */\n    tag_5:\n      tag_28\n      0x04\n      dup1\n      calldatasize\n      sub\n      dup2\n      add\n      swap1\n      tag_29\n      swap2\n      swap1\n      tag_24\n      jump\t// in\n    tag_29:\n      tag_30\n      jump\t// in\n    tag_28:\n      stop\n        /* \"D/distributed proof of security.sol\":1117:1160  mapping(address => Watcher) public watchers */\n    tag_6:\n      tag_31\n      0x04\n      dup1\n      calldatasize\n      sub\n      dup2\n      add\n      swap1\n      tag_32\n      swap2\n      swap1\n      tag_24\n      jump\t// in\n    tag_32:\n      tag_33\n      jump\t// in\n    tag_31:\n      mload(0x40)\n      tag_34\n      swap4\n      swap3\n      swap2\n      swap1\n      tag_35\n      jump\t// in\n    tag_34:\n      mload(0x40)\n      dup1\n      swap2\n      sub\n      swap1\n      return\n        /* \"@openzeppelin/contracts/access/Ownable.sol\":2293:2394  function renounceOwnership() public virtual onlyOwner {... */\n    tag_7:\n      tag_36\n      tag_37\n      jump\t// in\n    tag_36:\n      stop\n        /* \"D/distributed proof of security.sol\":858:884  IERC20 public stakingToken */\n    tag_8:\n      tag_38\n      tag_39\n      jump\t// in\n    tag_38:\n      mload(0x40)\n      tag_40\n      swap2\n      swap1\n      tag_41\n      jump\t// in\n    tag_40:\n      mload(0x40)\n      dup1\n      swap2\n      sub\n      swap1\n      return\n        /* \"D/distributed proof of security.sol\":1228:1254  uint256 public totalStaked */\n    tag_9:\n      tag_42\n      tag_43\n      jump\t// in\n    tag_42:\n      mload(0x40)\n      tag_44\n      swap2\n      swap1\n      tag_27\n      jump\t// in\n    tag_44:\n      mload(0x40)\n      dup1\n      swap2\n      sub\n      swap1\n      return\n        /* \"@openzeppelin/contracts/access/Ownable.sol\":1638:1723  function owner() public view virtual returns (address) {... */\n    tag_10:\n      tag_45\n      tag_46\n      jump\t// in\n    tag_45:\n      mload(0x40)\n      tag_47\n      swap2\n      swap1\n      tag_48\n      jump\t// in\n    tag_47:\n      mload(0x40)\n      dup1\n      swap2\n      sub\n      swap1\n      return\n        /* \"D/distributed proof of security.sol\":3676:4142  function stake(uint256 amount) external nonReentrant {... */\n    tag_11:\n      tag_49\n      0x04\n      dup1\n      calldatasize\n      sub\n      dup2\n      add\n      swap1\n      tag_50\n      swap2\n      swap1\n      tag_20\n      jump\t// in\n    tag_50:\n      tag_51\n      jump\t// in\n    tag_49:\n      stop\n        /* \"D/distributed proof of security.sol\":6782:6901  function isActiveWatcher(address watcher) external view returns (bool) {... */\n    tag_12:\n      tag_52\n      0x04\n      dup1\n      calldatasize\n      sub\n      dup2\n      add\n      swap1\n      tag_53\n      swap2\n      swap1\n      tag_24\n      jump\t// in\n    tag_53:\n      tag_54\n      jump\t// in\n    tag_52:\n      mload(0x40)\n      tag_55\n      swap2\n      swap1\n      tag_56\n      jump\t// in\n    tag_55:\n      mload(0x40)\n      dup1\n      swap2\n      sub\n      swap1\n      return\n        /* \"D/distributed proof of security.sol\":5526:6130  function slash(address watcher, uint256 slashAmount, address recipient) external onlyOwner nonReentrant {... */\n    tag_13:\n      tag_57\n      0x04\n      dup1\n      calldatasize\n      sub\n      dup2\n      add\n      swap1\n      tag_58\n      swap2\n      swap1\n      tag_59\n      jump\t// in\n    tag_58:\n      tag_60\n      jump\t// in\n    tag_57:\n      stop\n        /* \"@openzeppelin/contracts/access/Ownable.sol\":2543:2758  function transferOwnership(address newOwner) public virtual onlyOwner {... */\n    tag_14:\n      tag_61\n      0x04\n      dup1\n      calldatasize\n      sub\n      dup2\n      add\n      swap1\n      tag_62\n      swap2\n      swap1\n      tag_24\n      jump\t// in\n    tag_62:\n      tag_63\n      jump\t// in\n    tag_61:\n      stop\n        /* \"D/distributed proof of security.sol\":2273:2617  function registerWatcher(address watcher) external onlyOwner {... */\n    tag_15:\n      tag_64\n      0x04\n      dup1\n      calldatasize\n      sub\n      dup2\n      add\n      swap1\n      tag_65\n      swap2\n      swap1\n      tag_24\n      jump\t// in\n    tag_65:\n      tag_66\n      jump\t// in\n    tag_64:\n      stop\n        /* \"D/distributed proof of security.sol\":4337:4858  function unstake(uint256 amount) external nonReentrant {... */\n    tag_21:\n        /* \"@openzeppelin/contracts/security/ReentrancyGuard.sol\":2261:2282  _nonReentrantBefore() */\n      tag_68\n        /* \"@openzeppelin/contracts/security/ReentrancyGuard.sol\":2261:2280  _nonReentrantBefore */\n      tag_69\n        /* \"@openzeppelin/contracts/security/ReentrancyGuard.sol\":2261:2282  _nonReentrantBefore() */\n      jump\t// in\n    tag_68:\n        /* \"D/distributed proof of security.sol\":4419:4420  0 */\n      0x00\n        /* \"D/distributed proof of security.sol\":4410:4416  amount */\n      dup2\n        /* \"D/distributed proof of security.sol\":4410:4420  amount > 0 */\n      gt\n        /* \"D/distributed proof of security.sol\":4402:4451  require(amount > 0, \"Unstake amount must be > 0\") */\n      tag_71\n      jumpi\n      mload(0x40)\n      0x08c379a000000000000000000000000000000000000000000000000000000000\n      dup2\n      mstore\n      0x04\n      add\n      tag_72\n      swap1\n      tag_73\n      jump\t// in\n    tag_72:\n      mload(0x40)\n      dup1\n      swap2\n      sub\n      swap1\n      revert\n    tag_71:\n        /* \"D/distributed proof of security.sol\":4461:4478  Watcher storage w */\n      0x00\n        /* \"D/distributed proof of security.sol\":4481:4489  watchers */\n      0x03\n        /* \"D/distributed proof of security.sol\":4481:4501  watchers[msg.sender] */\n      0x00\n        /* \"D/distributed proof of security.sol\":4490:4500  msg.sender */\n      caller\n        /* \"D/distributed proof of security.sol\":4481:4501  watchers[msg.sender] */\n      0xffffffffffffffffffffffffffffffffffffffff\n      and\n      0xffffffffffffffffffffffffffffffffffffffff\n      and\n      dup2\n      mstore\n      0x20\n      add\n      swap1\n      dup2\n      mstore\n      0x20\n      add\n      0x00\n      keccak256\n        /* \"D/distributed proof of security.sol\":4461:4501  Watcher storage w = watchers[msg.sender] */\n      swap1\n      pop\n        /* \"D/distributed proof of security.sol\":4519:4520  w */\n      dup1\n        /* \"D/distributed proof of security.sol\":4519:4527  w.active */\n      0x02\n      add\n      0x00\n      swap1\n      sload\n      swap1\n      0x0100\n      exp\n      swap1\n      div\n      0xff\n      and\n        /* \"D/distributed proof of security.sol\":4511:4553  require(w.active, \"Not an active watcher\") */\n      tag_74\n      jumpi\n      mload(0x40)\n      0x08c379a000000000000000000000000000000000000000000000000000000000\n      dup2\n      mstore\n      0x04\n      add\n      tag_75\n      swap1\n      tag_76\n      jump\t// in\n    tag_75:\n      mload(0x40)\n      dup1\n      swap2\n      sub\n      swap1\n      revert\n    tag_74:\n        /* \"D/distributed proof of security.sol\":4590:4596  amount */\n      dup2\n        /* \"D/distributed proof of security.sol\":4571:4572  w */\n      dup2\n        /* \"D/distributed proof of security.sol\":4571:4586  w.stakedBalance */\n      0x01\n      add\n      sload\n        /* \"D/distributed proof of security.sol\":4571:4596  w.stakedBalance >= amount */\n      lt\n      iszero\n        /* \"D/distributed proof of security.sol\":4563:4628  require(w.stakedBalance >= amount, \"Insufficient staked balance\") */\n      tag_77\n      jumpi\n      mload(0x40)\n      0x08c379a000000000000000000000000000000000000000000000000000000000\n      dup2\n      mstore\n      0x04\n      add\n      tag_78\n      swap1\n      tag_79\n      jump\t// in\n    tag_78:\n      mload(0x40)\n      dup1\n      swap2\n      sub\n      swap1\n      revert\n    tag_77:\n        /* \"D/distributed proof of security.sol\":4658:4664  amount */\n      dup2\n        /* \"D/distributed proof of security.sol\":4639:4640  w */\n      dup2\n        /* \"D/distributed proof of security.sol\":4639:4654  w.stakedBalance */\n      0x01\n      add\n      0x00\n        /* \"D/distributed proof of security.sol\":4639:4664  w.stakedBalance -= amount */\n      dup3\n      dup3\n      sload\n      tag_80\n      swap2\n      swap1\n      tag_81\n      jump\t// in\n    tag_80:\n      swap3\n      pop\n      pop\n      dup2\n      swap1\n      sstore\n      pop\n        /* \"D/distributed proof of security.sol\":4689:4695  amount */\n      dup2\n        /* \"D/distributed proof of security.sol\":4674:4685  totalStaked */\n      0x04\n      0x00\n        /* \"D/distributed proof of security.sol\":4674:4695  totalStaked -= amount */\n      dup3\n      dup3\n      sload\n      tag_82\n      swap2\n      swap1\n      tag_81\n      jump\t// in\n    tag_82:\n      swap3\n      pop\n      pop\n      dup2\n      swap1\n      sstore\n      pop\n        /* \"D/distributed proof of security.sol\":4706:4718  bool success */\n      0x00\n        /* \"D/distributed proof of security.sol\":4721:4733  stakingToken */\n      0x02\n      0x00\n      swap1\n      sload\n      swap1\n      0x0100\n      exp\n      swap1\n      div\n      0xffffffffffffffffffffffffffffffffffffffff\n      and\n        /* \"D/distributed proof of security.sol\":4721:4742  stakingToken.transfer */\n      0xffffffffffffffffffffffffffffffffffffffff\n      and\n      0xa9059cbb\n        /* \"D/distributed proof of security.sol\":4743:4753  msg.sender */\n      caller\n        /* \"D/distributed proof of security.sol\":4755:4761  amount */\n      dup6\n        /* \"D/distributed proof of security.sol\":4721:4762  stakingToken.transfer(msg.sender, amount) */\n      mload(0x40)\n      dup4\n      0xffffffff\n      and\n      0xe0\n      shl\n      dup2\n      mstore\n      0x04\n      add\n      tag_83\n      swap3\n      swap2\n      swap1\n      tag_84\n      jump\t// in\n    tag_83:\n      0x20\n      mload(0x40)\n      dup1\n      dup4\n      sub\n      dup2\n      0x00\n      dup8\n      gas\n      call\n      iszero\n      dup1\n      iszero\n      tag_86\n      jumpi\n      returndatacopy(0x00, 0x00, returndatasize)\n      revert(0x00, returndatasize)\n    tag_86:\n      pop\n      pop\n      pop\n      pop\n      mload(0x40)\n      returndatasize\n      not(0x1f)\n      0x1f\n      dup3\n      add\n      and\n      dup3\n      add\n      dup1\n      0x40\n      mstore\n      pop\n      dup2\n      add\n      swap1\n      tag_87\n      swap2\n      swap1\n      tag_88\n      jump\t// in\n    tag_87:\n        /* \"D/distributed proof of security.sol\":4706:4762  bool success = stakingToken.transfer(msg.sender, amount) */\n      swap1\n      pop\n        /* \"D/distributed proof of security.sol\":4780:4787  success */\n      dup1\n        /* \"D/distributed proof of security.sol\":4772:4807  require(success, \"Transfer failed\") */\n      tag_89\n      jumpi\n      mload(0x40)\n      0x08c379a000000000000000000000000000000000000000000000000000000000\n      dup2\n      mstore\n      0x04\n      add\n      tag_90\n      swap1\n      tag_91\n      jump\t// in\n    tag_90:\n      mload(0x40)\n      dup1\n      swap2\n      sub\n      swap1\n      revert\n    tag_89:\n        /* \"D/distributed proof of security.sol\":4832:4842  msg.sender */\n      caller\n        /* \"D/distributed proof of security.sol\":4823:4851  Unstaked(msg.sender, amount) */\n      0xffffffffffffffffffffffffffffffffffffffff\n      and\n      0x0f5bb82176feb1b5e747e28471aa92156a04d9f3ab9f45f28e2d704232b93f75\n        /* \"D/distributed proof of security.sol\":4844:4850  amount */\n      dup5\n        /* \"D/distributed proof of security.sol\":4823:4851  Unstaked(msg.sender, amount) */\n      mload(0x40)\n      tag_92\n      swap2\n      swap1\n      tag_27\n      jump\t// in\n    tag_92:\n      mload(0x40)\n      dup1\n      swap2\n      sub\n      swap1\n      log2\n        /* \"D/distributed proof of security.sol\":4392:4858  {... */\n      pop\n      pop\n        /* \"@openzeppelin/contracts/security/ReentrancyGuard.sol\":2303:2323  _nonReentrantAfter() */\n      tag_93\n        /* \"@openzeppelin/contracts/security/ReentrancyGuard.sol\":2303:2321  _nonReentrantAfter */\n      tag_94\n        /* \"@openzeppelin/contracts/security/ReentrancyGuard.sol\":2303:2323  _nonReentrantAfter() */\n      jump\t// in\n    tag_93:\n        /* \"D/distributed proof of security.sol\":4337:4858  function unstake(uint256 amount) external nonReentrant {... */\n      pop\n      jump\t// out\n        /* \"D/distributed proof of security.sol\":6472:6602  function getStakedBalance(address watcher) external view returns (uint256) {... */\n    tag_25:\n        /* \"D/distributed proof of security.sol\":6538:6545  uint256 */\n      0x00\n        /* \"D/distributed proof of security.sol\":6564:6572  watchers */\n      0x03\n        /* \"D/distributed proof of security.sol\":6564:6581  watchers[watcher] */\n      0x00\n        /* \"D/distributed proof of security.sol\":6573:6580  watcher */\n      dup4\n        /* \"D/distributed proof of security.sol\":6564:6581  watchers[watcher] */\n      0xffffffffffffffffffffffffffffffffffffffff\n      and\n      0xffffffffffffffffffffffffffffffffffffffff\n      and\n      dup2\n      mstore\n      0x20\n      add\n      swap1\n      dup2\n      mstore\n      0x20\n      add\n      0x00\n      keccak256\n        /* \"D/distributed proof of security.sol\":6564:6595  watchers[watcher].stakedBalance */\n      0x01\n      add\n      sload\n        /* \"D/distributed proof of security.sol\":6557:6595  return watchers[watcher].stakedBalance */\n      swap1\n      pop\n        /* \"D/distributed proof of security.sol\":6472:6602  function getStakedBalance(address watcher) external view returns (uint256) {... */\n      swap2\n      swap1\n      pop\n      jump\t// out\n        /* \"D/distributed proof of security.sol\":2867:3326  function unregisterWatcher(address watcher) external onlyOwner {... */\n    tag_30:\n        /* \"@openzeppelin/contracts/access/Ownable.sol\":1531:1544  _checkOwner() */\n      tag_97\n        /* \"@openzeppelin/contracts/access/Ownable.sol\":1531:1542  _checkOwner */\n      tag_98\n        /* \"@openzeppelin/contracts/access/Ownable.sol\":1531:1544  _checkOwner() */\n      jump\t// in\n    tag_97:\n        /* \"D/distributed proof of security.sol\":2940:2957  Watcher storage w */\n      0x00\n        /* \"D/distributed proof of security.sol\":2960:2968  watchers */\n      0x03\n        /* \"D/distributed proof of security.sol\":2960:2977  watchers[watcher] */\n      0x00\n        /* \"D/distributed proof of security.sol\":2969:2976  watcher */\n      dup4\n        /* \"D/distributed proof of security.sol\":2960:2977  watchers[watcher] */\n      0xffffffffffffffffffffffffffffffffffffffff\n      and\n      0xffffffffffffffffffffffffffffffffffffffff\n      and\n      dup2\n      mstore\n      0x20\n      add\n      swap1\n      dup2\n      mstore\n      0x20\n      add\n      0x00\n      keccak256\n        /* \"D/distributed proof of security.sol\":2940:2977  Watcher storage w = watchers[watcher] */\n      swap1\n      pop\n        /* \"D/distributed proof of security.sol\":2995:2996  w */\n      dup1\n        /* \"D/distributed proof of security.sol\":2995:3003  w.active */\n      0x02\n      add\n      0x00\n      swap1\n      sload\n      swap1\n      0x0100\n      exp\n      swap1\n      div\n      0xff\n      and\n        /* \"D/distributed proof of security.sol\":2987:3030  require(w.active, \"Watcher not registered\") */\n      tag_100\n      jumpi\n      mload(0x40)\n      0x08c379a000000000000000000000000000000000000000000000000000000000\n      dup2\n      mstore\n      0x04\n      add\n      tag_101\n      swap1\n      tag_102\n      jump\t// in\n    tag_101:\n      mload(0x40)\n      dup1\n      swap2\n      sub\n      swap1\n      revert\n    tag_100:\n        /* \"D/distributed proof of security.sol\":3271:3276  false */\n      0x00\n        /* \"D/distributed proof of security.sol\":3260:3261  w */\n      dup2\n        /* \"D/distributed proof of security.sol\":3260:3268  w.active */\n      0x02\n      add\n      0x00\n        /* \"D/distributed proof of security.sol\":3260:3276  w.active = false */\n      0x0100\n      exp\n      dup2\n      sload\n      dup2\n      0xff\n      mul\n      not\n      and\n      swap1\n      dup4\n      iszero\n      iszero\n      mul\n      or\n      swap1\n      sstore\n      pop\n        /* \"D/distributed proof of security.sol\":3311:3318  watcher */\n      dup2\n        /* \"D/distributed proof of security.sol\":3291:3319  WatcherUnregistered(watcher) */\n      0xffffffffffffffffffffffffffffffffffffffff\n      and\n      0x22de3c485cc8e59969cde8a1634777844364479dd9da4b31f3174273488cd17c\n      mload(0x40)\n      mload(0x40)\n      dup1\n      swap2\n      sub\n      swap1\n      log2\n        /* \"D/distributed proof of security.sol\":2930:3326  {... */\n      pop\n        /* \"D/distributed proof of security.sol\":2867:3326  function unregisterWatcher(address watcher) external onlyOwner {... */\n      pop\n      jump\t// out\n        /* \"D/distributed proof of security.sol\":1117:1160  mapping(address => Watcher) public watchers */\n    tag_33:\n      mstore(0x20, 0x03)\n      dup1\n      0x00\n      mstore\n      keccak256(0x00, 0x40)\n      0x00\n      swap2\n      pop\n      swap1\n      pop\n      dup1\n      0x00\n      add\n      0x00\n      swap1\n      sload\n      swap1\n      0x0100\n      exp\n      swap1\n      div\n      0xffffffffffffffffffffffffffffffffffffffff\n      and\n      swap1\n      dup1\n      0x01\n      add\n      sload\n      swap1\n      dup1\n      0x02\n      add\n      0x00\n      swap1\n      sload\n      swap1\n      0x0100\n      exp\n      swap1\n      div\n      0xff\n      and\n      swap1\n      pop\n      dup4\n      jump\t// out\n        /* \"@openzeppelin/contracts/access/Ownable.sol\":2293:2394  function renounceOwnership() public virtual onlyOwner {... */\n    tag_37:\n        /* \"@openzeppelin/contracts/access/Ownable.sol\":1531:1544  _checkOwner() */\n      tag_104\n        /* \"@openzeppelin/contracts/access/Ownable.sol\":1531:1542  _checkOwner */\n      tag_98\n        /* \"@openzeppelin/contracts/access/Ownable.sol\":1531:1544  _checkOwner() */\n      jump\t// in\n    tag_104:\n        /* \"@openzeppelin/contracts/access/Ownable.sol\":2357:2387  _transferOwnership(address(0)) */\n      tag_106\n        /* \"@openzeppelin/contracts/access/Ownable.sol\":2384:2385  0 */\n      0x00\n        /* \"@openzeppelin/contracts/access/Ownable.sol\":2357:2375  _transferOwnership */\n      tag_107\n        /* \"@openzeppelin/contracts/access/Ownable.sol\":2357:2387  _transferOwnership(address(0)) */\n      jump\t// in\n    tag_106:\n        /* \"@openzeppelin/contracts/access/Ownable.sol\":2293:2394  function renounceOwnership() public virtual onlyOwner {... */\n      jump\t// out\n        /* \"D/distributed proof of security.sol\":858:884  IERC20 public stakingToken */\n    tag_39:\n      0x02\n      0x00\n      swap1\n      sload\n      swap1\n      0x0100\n      exp\n      swap1\n      div\n      0xffffffffffffffffffffffffffffffffffffffff\n      and\n      dup2\n      jump\t// out\n        /* \"D/distributed proof of security.sol\":1228:1254  uint256 public totalStaked */\n    tag_43:\n      sload(0x04)\n      dup2\n      jump\t// out\n        /* \"@openzeppelin/contracts/access/Ownable.sol\":1638:1723  function owner() public view virtual returns (address) {... */\n    tag_46:\n        /* \"@openzeppelin/contracts/access/Ownable.sol\":1684:1691  address */\n      0x00\n        /* \"@openzeppelin/contracts/access/Ownable.sol\":1710:1716  _owner */\n      0x00\n      0x00\n      swap1\n      sload\n      swap1\n      0x0100\n      exp\n      swap1\n      div\n      0xffffffffffffffffffffffffffffffffffffffff\n      and\n        /* \"@openzeppelin/contracts/access/Ownable.sol\":1703:1716  return _owner */\n      swap1\n      pop\n        /* \"@openzeppelin/contracts/access/Ownable.sol\":1638:1723  function owner() public view virtual returns (address) {... */\n      swap1\n      jump\t// out\n        /* \"D/distributed proof of security.sol\":3676:4142  function stake(uint256 amount) external nonReentrant {... */\n    tag_51:\n        /* \"@openzeppelin/contracts/security/ReentrancyGuard.sol\":2261:2282  _nonReentrantBefore() */\n      tag_110\n        /* \"@openzeppelin/contracts/security/ReentrancyGuard.sol\":2261:2280  _nonReentrantBefore */\n      tag_69\n        /* \"@openzeppelin/contracts/security/ReentrancyGuard.sol\":2261:2282  _nonReentrantBefore() */\n      jump\t// in\n    tag_110:\n        /* \"D/distributed proof of security.sol\":3756:3757  0 */\n      0x00\n        /* \"D/distributed proof of security.sol\":3747:3753  amount */\n      dup2\n        /* \"D/distributed proof of security.sol\":3747:3757  amount > 0 */\n      gt\n        /* \"D/distributed proof of security.sol\":3739:3786  require(amount > 0, \"Stake amount must be > 0\") */\n      tag_112\n      jumpi\n      mload(0x40)\n      0x08c379a000000000000000000000000000000000000000000000000000000000\n      dup2\n      mstore\n      0x04\n      add\n      tag_113\n      swap1\n      tag_114\n      jump\t// in\n    tag_113:\n      mload(0x40)\n      dup1\n      swap2\n      sub\n      swap1\n      revert\n    tag_112:\n        /* \"D/distributed proof of security.sol\":3796:3813  Watcher storage w */\n      0x00\n        /* \"D/distributed proof of security.sol\":3816:3824  watchers */\n      0x03\n        /* \"D/distributed proof of security.sol\":3816:3836  watchers[msg.sender] */\n      0x00\n        /* \"D/distributed proof of security.sol\":3825:3835  msg.sender */\n      caller\n        /* \"D/distributed proof of security.sol\":3816:3836  watchers[msg.sender] */\n      0xffffffffffffffffffffffffffffffffffffffff\n      and\n      0xffffffffffffffffffffffffffffffffffffffff\n      and\n      dup2\n      mstore\n      0x20\n      add\n      swap1\n      dup2\n      mstore\n      0x20\n      add\n      0x00\n      keccak256\n        /* \"D/distributed proof of security.sol\":3796:3836  Watcher storage w = watchers[msg.sender] */\n      swap1\n      pop\n        /* \"D/distributed proof of security.sol\":3854:3855  w */\n      dup1\n        /* \"D/distributed proof of security.sol\":3854:3862  w.active */\n      0x02\n      add\n      0x00\n      swap1\n      sload\n      swap1\n      0x0100\n      exp\n      swap1\n      div\n      0xff\n      and\n        /* \"D/distributed proof of security.sol\":3846:3888  require(w.active, \"Not an active watcher\") */\n      tag_115\n      jumpi\n      mload(0x40)\n      0x08c379a000000000000000000000000000000000000000000000000000000000\n      dup2\n      mstore\n      0x04\n      add\n      tag_116\n      swap1\n      tag_76\n      jump\t// in\n    tag_116:\n      mload(0x40)\n      dup1\n      swap2\n      sub\n      swap1\n      revert\n    tag_115:\n        /* \"D/distributed proof of security.sol\":3898:3910  bool success */\n      0x00\n        /* \"D/distributed proof of security.sol\":3913:3925  stakingToken */\n      0x02\n      0x00\n      swap1\n      sload\n      swap1\n      0x0100\n      exp\n      swap1\n      div\n      0xffffffffffffffffffffffffffffffffffffffff\n      and\n        /* \"D/distributed proof of security.sol\":3913:3938  stakingToken.transferFrom */\n      0xffffffffffffffffffffffffffffffffffffffff\n      and\n      0x23b872dd\n        /* \"D/distributed proof of security.sol\":3939:3949  msg.sender */\n      caller\n        /* \"D/distributed proof of security.sol\":3959:3963  this */\n      address\n        /* \"D/distributed proof of security.sol\":3966:3972  amount */\n      dup7\n        /* \"D/distributed proof of security.sol\":3913:3973  stakingToken.transferFrom(msg.sender, address(this), amount) */\n      mload(0x40)\n      dup5\n      0xffffffff\n      and\n      0xe0\n      shl\n      dup2\n      mstore\n      0x04\n      add\n      tag_117\n      swap4\n      swap3\n      swap2\n      swap1\n      tag_118\n      jump\t// in\n    tag_117:\n      0x20\n      mload(0x40)\n      dup1\n      dup4\n      sub\n      dup2\n      0x00\n      dup8\n      gas\n      call\n      iszero\n      dup1\n      iszero\n      tag_120\n      jumpi\n      returndatacopy(0x00, 0x00, returndatasize)\n      revert(0x00, returndatasize)\n    tag_120:\n      pop\n      pop\n      pop\n      pop\n      mload(0x40)\n      returndatasize\n      not(0x1f)\n      0x1f\n      dup3\n      add\n      and\n      dup3\n      add\n      dup1\n      0x40\n      mstore\n      pop\n      dup2\n      add\n      swap1\n      tag_121\n      swap2\n      swap1\n      tag_88\n      jump\t// in\n    tag_121:\n        /* \"D/distributed proof of security.sol\":3898:3973  bool success = stakingToken.transferFrom(msg.sender, address(this), amount) */\n      swap1\n      pop\n        /* \"D/distributed proof of security.sol\":3991:3998  success */\n      dup1\n        /* \"D/distributed proof of security.sol\":3983:4018  require(success, \"Transfer failed\") */\n      tag_122\n      jumpi\n      mload(0x40)\n      0x08c379a000000000000000000000000000000000000000000000000000000000\n      dup2\n      mstore\n      0x04\n      add\n      tag_123\n      swap1\n      tag_91\n      jump\t// in\n    tag_123:\n      mload(0x40)\n      dup1\n      swap2\n      sub\n      swap1\n      revert\n    tag_122:\n        /* \"D/distributed proof of security.sol\":4056:4062  amount */\n      dup3\n        /* \"D/distributed proof of security.sol\":4037:4038  w */\n      dup3\n        /* \"D/distributed proof of security.sol\":4037:4052  w.stakedBalance */\n      0x01\n      add\n      0x00\n        /* \"D/distributed proof of security.sol\":4037:4062  w.stakedBalance += amount */\n      dup3\n      dup3\n      sload\n      tag_124\n      swap2\n      swap1\n      tag_125\n      jump\t// in\n    tag_124:\n      swap3\n      pop\n      pop\n      dup2\n      swap1\n      sstore\n      pop\n        /* \"D/distributed proof of security.sol\":4087:4093  amount */\n      dup3\n        /* \"D/distributed proof of security.sol\":4072:4083  totalStaked */\n      0x04\n      0x00\n        /* \"D/distributed proof of security.sol\":4072:4093  totalStaked += amount */\n      dup3\n      dup3\n      sload\n      tag_126\n      swap2\n      swap1\n      tag_125\n      jump\t// in\n    tag_126:\n      swap3\n      pop\n      pop\n      dup2\n      swap1\n      sstore\n      pop\n        /* \"D/distributed proof of security.sol\":4116:4126  msg.sender */\n      caller\n        /* \"D/distributed proof of security.sol\":4109:4135  Staked(msg.sender, amount) */\n      0xffffffffffffffffffffffffffffffffffffffff\n      and\n      0x9e71bc8eea02a63969f509818f2dafb9254532904319f9dbda79b67bd34a5f3d\n        /* \"D/distributed proof of security.sol\":4128:4134  amount */\n      dup5\n        /* \"D/distributed proof of security.sol\":4109:4135  Staked(msg.sender, amount) */\n      mload(0x40)\n      tag_127\n      swap2\n      swap1\n      tag_27\n      jump\t// in\n    tag_127:\n      mload(0x40)\n      dup1\n      swap2\n      sub\n      swap1\n      log2\n        /* \"D/distributed proof of security.sol\":3729:4142  {... */\n      pop\n      pop\n        /* \"@openzeppelin/contracts/security/ReentrancyGuard.sol\":2303:2323  _nonReentrantAfter() */\n      tag_128\n        /* \"@openzeppelin/contracts/security/ReentrancyGuard.sol\":2303:2321  _nonReentrantAfter */\n      tag_94\n        /* \"@openzeppelin/contracts/security/ReentrancyGuard.sol\":2303:2323  _nonReentrantAfter() */\n      jump\t// in\n    tag_128:\n        /* \"D/distributed proof of security.sol\":3676:4142  function stake(uint256 amount) external nonReentrant {... */\n      pop\n      jump\t// out\n        /* \"D/distributed proof of security.sol\":6782:6901  function isActiveWatcher(address watcher) external view returns (bool) {... */\n    tag_54:\n        /* \"D/distributed proof of security.sol\":6847:6851  bool */\n      0x00\n        /* \"D/distributed proof of security.sol\":6870:6878  watchers */\n      0x03\n        /* \"D/distributed proof of security.sol\":6870:6887  watchers[watcher] */\n      0x00\n        /* \"D/distributed proof of security.sol\":6879:6886  watcher */\n      dup4\n        /* \"D/distributed proof of security.sol\":6870:6887  watchers[watcher] */\n      0xffffffffffffffffffffffffffffffffffffffff\n      and\n      0xffffffffffffffffffffffffffffffffffffffff\n      and\n      dup2\n      mstore\n      0x20\n      add\n      swap1\n      dup2\n      mstore\n      0x20\n      add\n      0x00\n      keccak256\n        /* \"D/distributed proof of security.sol\":6870:6894  watchers[watcher].active */\n      0x02\n      add\n      0x00\n      swap1\n      sload\n      swap1\n      0x0100\n      exp\n      swap1\n      div\n      0xff\n      and\n        /* \"D/distributed proof of security.sol\":6863:6894  return watchers[watcher].active */\n      swap1\n      pop\n        /* \"D/distributed proof of security.sol\":6782:6901  function isActiveWatcher(address watcher) external view returns (bool) {... */\n      swap2\n      swap1\n      pop\n      jump\t// out\n        /* \"D/distributed proof of security.sol\":5526:6130  function slash(address watcher, uint256 slashAmount, address recipient) external onlyOwner nonReentrant {... */\n    tag_60:\n        /* \"@openzeppelin/contracts/access/Ownable.sol\":1531:1544  _checkOwner() */\n      tag_131\n        /* \"@openzeppelin/contracts/access/Ownable.sol\":1531:1542  _checkOwner */\n      tag_98\n        /* \"@openzeppelin/contracts/access/Ownable.sol\":1531:1544  _checkOwner() */\n      jump\t// in\n    tag_131:\n        /* \"@openzeppelin/contracts/security/ReentrancyGuard.sol\":2261:2282  _nonReentrantBefore() */\n      tag_133\n        /* \"@openzeppelin/contracts/security/ReentrancyGuard.sol\":2261:2280  _nonReentrantBefore */\n      tag_69\n        /* \"@openzeppelin/contracts/security/ReentrancyGuard.sol\":2261:2282  _nonReentrantBefore() */\n      jump\t// in\n    tag_133:\n        /* \"D/distributed proof of security.sol\":5640:5657  Watcher storage w */\n      0x00\n        /* \"D/distributed proof of security.sol\":5660:5668  watchers */\n      0x03\n        /* \"D/distributed proof of security.sol\":5660:5677  watchers[watcher] */\n      0x00\n        /* \"D/distributed proof of security.sol\":5669:5676  watcher */\n      dup6\n        /* \"D/distributed proof of security.sol\":5660:5677  watchers[watcher] */\n      0xffffffffffffffffffffffffffffffffffffffff\n      and\n      0xffffffffffffffffffffffffffffffffffffffff\n      and\n      dup2\n      mstore\n      0x20\n      add\n      swap1\n      dup2\n      mstore\n      0x20\n      add\n      0x00\n      keccak256\n        /* \"D/distributed proof of security.sol\":5640:5677  Watcher storage w = watchers[watcher] */\n      swap1\n      pop\n        /* \"D/distributed proof of security.sol\":5695:5696  w */\n      dup1\n        /* \"D/distributed proof of security.sol\":5695:5703  w.active */\n      0x02\n      add\n      0x00\n      swap1\n      sload\n      swap1\n      0x0100\n      exp\n      swap1\n      div\n      0xff\n      and\n        /* \"D/distributed proof of security.sol\":5687:5729  require(w.active, \"Not an active watcher\") */\n      tag_135\n      jumpi\n      mload(0x40)\n      0x08c379a000000000000000000000000000000000000000000000000000000000\n      dup2\n      mstore\n      0x04\n      add\n      tag_136\n      swap1\n      tag_76\n      jump\t// in\n    tag_136:\n      mload(0x40)\n      dup1\n      swap2\n      sub\n      swap1\n      revert\n    tag_135:\n        /* \"D/distributed proof of security.sol\":5766:5777  slashAmount */\n      dup3\n        /* \"D/distributed proof of security.sol\":5747:5748  w */\n      dup2\n        /* \"D/distributed proof of security.sol\":5747:5762  w.stakedBalance */\n      0x01\n      add\n      sload\n        /* \"D/distributed proof of security.sol\":5747:5777  w.stakedBalance >= slashAmount */\n      lt\n      iszero\n        /* \"D/distributed proof of security.sol\":5739:5810  require(w.stakedBalance >= slashAmount, \"Slash exceeds staked balance\") */\n      tag_137\n      jumpi\n      mload(0x40)\n      0x08c379a000000000000000000000000000000000000000000000000000000000\n      dup2\n      mstore\n      0x04\n      add\n      tag_138\n      swap1\n      tag_139\n      jump\t// in\n    tag_138:\n      mload(0x40)\n      dup1\n      swap2\n      sub\n      swap1\n      revert\n    tag_137:\n        /* \"D/distributed proof of security.sol\":5849:5850  0 */\n      0x00\n        /* \"D/distributed proof of security.sol\":5828:5851  recipient != address(0) */\n      0xffffffffffffffffffffffffffffffffffffffff\n      and\n        /* \"D/distributed proof of security.sol\":5828:5837  recipient */\n      dup3\n        /* \"D/distributed proof of security.sol\":5828:5851  recipient != address(0) */\n      0xffffffffffffffffffffffffffffffffffffffff\n      and\n      sub\n        /* \"D/distributed proof of security.sol\":5820:5879  require(recipient != address(0), \"Invalid slash recipient\") */\n      tag_140\n      jumpi\n      mload(0x40)\n      0x08c379a000000000000000000000000000000000000000000000000000000000\n      dup2\n      mstore\n      0x04\n      add\n      tag_141\n      swap1\n      tag_142\n      jump\t// in\n    tag_141:\n      mload(0x40)\n      dup1\n      swap2\n      sub\n      swap1\n      revert\n    tag_140:\n        /* \"D/distributed proof of security.sol\":5909:5920  slashAmount */\n      dup3\n        /* \"D/distributed proof of security.sol\":5890:5891  w */\n      dup2\n        /* \"D/distributed proof of security.sol\":5890:5905  w.stakedBalance */\n      0x01\n      add\n      0x00\n        /* \"D/distributed proof of security.sol\":5890:5920  w.stakedBalance -= slashAmount */\n      dup3\n      dup3\n      sload\n      tag_143\n      swap2\n      swap1\n      tag_81\n      jump\t// in\n    tag_143:\n      swap3\n      pop\n      pop\n      dup2\n      swap1\n      sstore\n      pop\n        /* \"D/distributed proof of security.sol\":5945:5956  slashAmount */\n      dup3\n        /* \"D/distributed proof of security.sol\":5930:5941  totalStaked */\n      0x04\n      0x00\n        /* \"D/distributed proof of security.sol\":5930:5956  totalStaked -= slashAmount */\n      dup3\n      dup3\n      sload\n      tag_144\n      swap2\n      swap1\n      tag_81\n      jump\t// in\n    tag_144:\n      swap3\n      pop\n      pop\n      dup2\n      swap1\n      sstore\n      pop\n        /* \"D/distributed proof of security.sol\":5967:5979  bool success */\n      0x00\n        /* \"D/distributed proof of security.sol\":5982:5994  stakingToken */\n      0x02\n      0x00\n      swap1\n      sload\n      swap1\n      0x0100\n      exp\n      swap1\n      div\n      0xffffffffffffffffffffffffffffffffffffffff\n      and\n        /* \"D/distributed proof of security.sol\":5982:6003  stakingToken.transfer */\n      0xffffffffffffffffffffffffffffffffffffffff\n      and\n      0xa9059cbb\n        /* \"D/distributed proof of security.sol\":6004:6013  recipient */\n      dup5\n        /* \"D/distributed proof of security.sol\":6015:6026  slashAmount */\n      dup7\n        /* \"D/distributed proof of security.sol\":5982:6027  stakingToken.transfer(recipient, slashAmount) */\n      mload(0x40)\n      dup4\n      0xffffffff\n      and\n      0xe0\n      shl\n      dup2\n      mstore\n      0x04\n      add\n      tag_145\n      swap3\n      swap2\n      swap1\n      tag_84\n      jump\t// in\n    tag_145:\n      0x20\n      mload(0x40)\n      dup1\n      dup4\n      sub\n      dup2\n      0x00\n      dup8\n      gas\n      call\n      iszero\n      dup1\n      iszero\n      tag_147\n      jumpi\n      returndatacopy(0x00, 0x00, returndatasize)\n      revert(0x00, returndatasize)\n    tag_147:\n      pop\n      pop\n      pop\n      pop\n      mload(0x40)\n      returndatasize\n      not(0x1f)\n      0x1f\n      dup3\n      add\n      and\n      dup3\n      add\n      dup1\n      0x40\n      mstore\n      pop\n      dup2\n      add\n      swap1\n      tag_148\n      swap2\n      swap1\n      tag_88\n      jump\t// in\n    tag_148:\n        /* \"D/distributed proof of security.sol\":5967:6027  bool success = stakingToken.transfer(recipient, slashAmount) */\n      swap1\n      pop\n        /* \"D/distributed proof of security.sol\":6045:6052  success */\n      dup1\n        /* \"D/distributed proof of security.sol\":6037:6078  require(success, \"Slash transfer failed\") */\n      tag_149\n      jumpi\n      mload(0x40)\n      0x08c379a000000000000000000000000000000000000000000000000000000000\n      dup2\n      mstore\n      0x04\n      add\n      tag_150\n      swap1\n      tag_151\n      jump\t// in\n    tag_150:\n      mload(0x40)\n      dup1\n      swap2\n      sub\n      swap1\n      revert\n    tag_149:\n        /* \"D/distributed proof of security.sol\":6102:6109  watcher */\n      dup5\n        /* \"D/distributed proof of security.sol\":6094:6123  Slashed(watcher, slashAmount) */\n      0xffffffffffffffffffffffffffffffffffffffff\n      and\n      0x4ed05e9673c26d2ed44f7ef6a7f2942df0ee3b5e1e17db4b99f9dcd261a339cd\n        /* \"D/distributed proof of security.sol\":6111:6122  slashAmount */\n      dup6\n        /* \"D/distributed proof of security.sol\":6094:6123  Slashed(watcher, slashAmount) */\n      mload(0x40)\n      tag_152\n      swap2\n      swap1\n      tag_27\n      jump\t// in\n    tag_152:\n      mload(0x40)\n      dup1\n      swap2\n      sub\n      swap1\n      log2\n        /* \"D/distributed proof of security.sol\":5630:6130  {... */\n      pop\n      pop\n        /* \"@openzeppelin/contracts/security/ReentrancyGuard.sol\":2303:2323  _nonReentrantAfter() */\n      tag_153\n        /* \"@openzeppelin/contracts/security/ReentrancyGuard.sol\":2303:2321  _nonReentrantAfter */\n      tag_94\n        /* \"@openzeppelin/contracts/security/ReentrancyGuard.sol\":2303:2323  _nonReentrantAfter() */\n      jump\t// in\n    tag_153:\n        /* \"D/distributed proof of security.sol\":5526:6130  function slash(address watcher, uint256 slashAmount, address recipient) external onlyOwner nonReentrant {... */\n      pop\n      pop\n      pop\n      jump\t// out\n        /* \"@openzeppelin/contracts/access/Ownable.sol\":2543:2758  function transferOwnership(address newOwner) public virtual onlyOwner {... */\n    tag_63:\n        /* \"@openzeppelin/contracts/access/Ownable.sol\":1531:1544  _checkOwner() */\n      tag_155\n        /* \"@openzeppelin/contracts/access/Ownable.sol\":1531:1542  _checkOwner */\n      tag_98\n        /* \"@openzeppelin/contracts/access/Ownable.sol\":1531:1544  _checkOwner() */\n      jump\t// in\n    tag_155:\n        /* \"@openzeppelin/contracts/access/Ownable.sol\":2647:2648  0 */\n      0x00\n        /* \"@openzeppelin/contracts/access/Ownable.sol\":2627:2649  newOwner == address(0) */\n      0xffffffffffffffffffffffffffffffffffffffff\n      and\n        /* \"@openzeppelin/contracts/access/Ownable.sol\":2627:2635  newOwner */\n      dup2\n        /* \"@openzeppelin/contracts/access/Ownable.sol\":2627:2649  newOwner == address(0) */\n      0xffffffffffffffffffffffffffffffffffffffff\n      and\n      sub\n        /* \"@openzeppelin/contracts/access/Ownable.sol\":2623:2714  if (newOwner == address(0)) {... */\n      tag_157\n      jumpi\n        /* \"@openzeppelin/contracts/access/Ownable.sol\":2700:2701  0 */\n      0x00\n        /* \"@openzeppelin/contracts/access/Ownable.sol\":2672:2703  OwnableInvalidOwner(address(0)) */\n      mload(0x40)\n      0x1e4fbdf700000000000000000000000000000000000000000000000000000000\n      dup2\n      mstore\n      0x04\n      add\n      tag_158\n      swap2\n      swap1\n      tag_48\n      jump\t// in\n    tag_158:\n      mload(0x40)\n      dup1\n      swap2\n      sub\n      swap1\n      revert\n        /* \"@openzeppelin/contracts/access/Ownable.sol\":2623:2714  if (newOwner == address(0)) {... */\n    tag_157:\n        /* \"@openzeppelin/contracts/access/Ownable.sol\":2723:2751  _transferOwnership(newOwner) */\n      tag_159\n        /* \"@openzeppelin/contracts/access/Ownable.sol\":2742:2750  newOwner */\n      dup2\n        /* \"@openzeppelin/contracts/access/Ownable.sol\":2723:2741  _transferOwnership */\n      tag_107\n        /* \"@openzeppelin/contracts/access/Ownable.sol\":2723:2751  _transferOwnership(newOwner) */\n      jump\t// in\n    tag_159:\n        /* \"@openzeppelin/contracts/access/Ownable.sol\":2543:2758  function transferOwnership(address newOwner) public virtual onlyOwner {... */\n      pop\n      jump\t// out\n        /* \"D/distributed proof of security.sol\":2273:2617  function registerWatcher(address watcher) external onlyOwner {... */\n    tag_66:\n        /* \"@openzeppelin/contracts/access/Ownable.sol\":1531:1544  _checkOwner() */\n      tag_161\n        /* \"@openzeppelin/contracts/access/Ownable.sol\":1531:1542  _checkOwner */\n      tag_98\n        /* \"@openzeppelin/contracts/access/Ownable.sol\":1531:1544  _checkOwner() */\n      jump\t// in\n    tag_161:\n        /* \"D/distributed proof of security.sol\":2371:2372  0 */\n      0x00\n        /* \"D/distributed proof of security.sol\":2352:2373  watcher != address(0) */\n      0xffffffffffffffffffffffffffffffffffffffff\n      and\n        /* \"D/distributed proof of security.sol\":2352:2359  watcher */\n      dup2\n        /* \"D/distributed proof of security.sol\":2352:2373  watcher != address(0) */\n      0xffffffffffffffffffffffffffffffffffffffff\n      and\n      sub\n        /* \"D/distributed proof of security.sol\":2344:2401  require(watcher != address(0), \"Invalid watcher address\") */\n      tag_163\n      jumpi\n      mload(0x40)\n      0x08c379a000000000000000000000000000000000000000000000000000000000\n      dup2\n      mstore\n      0x04\n      add\n      tag_164\n      swap1\n      tag_165\n      jump\t// in\n    tag_164:\n      mload(0x40)\n      dup1\n      swap2\n      sub\n      swap1\n      revert\n    tag_163:\n        /* \"D/distributed proof of security.sol\":2411:2428  Watcher storage w */\n      0x00\n        /* \"D/distributed proof of security.sol\":2431:2439  watchers */\n      0x03\n        /* \"D/distributed proof of security.sol\":2431:2448  watchers[watcher] */\n      0x00\n        /* \"D/distributed proof of security.sol\":2440:2447  watcher */\n      dup4\n        /* \"D/distributed proof of security.sol\":2431:2448  watchers[watcher] */\n      0xffffffffffffffffffffffffffffffffffffffff\n      and\n      0xffffffffffffffffffffffffffffffffffffffff\n      and\n      dup2\n      mstore\n      0x20\n      add\n      swap1\n      dup2\n      mstore\n      0x20\n      add\n      0x00\n      keccak256\n        /* \"D/distributed proof of security.sol\":2411:2448  Watcher storage w = watchers[watcher] */\n      swap1\n      pop\n        /* \"D/distributed proof of security.sol\":2467:2468  w */\n      dup1\n        /* \"D/distributed proof of security.sol\":2467:2475  w.active */\n      0x02\n      add\n      0x00\n      swap1\n      sload\n      swap1\n      0x0100\n      exp\n      swap1\n      div\n      0xff\n      and\n        /* \"D/distributed proof of security.sol\":2466:2475  !w.active */\n      iszero\n        /* \"D/distributed proof of security.sol\":2458:2506  require(!w.active, \"Watcher already registered\") */\n      tag_166\n      jumpi\n      mload(0x40)\n      0x08c379a000000000000000000000000000000000000000000000000000000000\n      dup2\n      mstore\n      0x04\n      add\n      tag_167\n      swap1\n      tag_168\n      jump\t// in\n    tag_167:\n      mload(0x40)\n      dup1\n      swap2\n      sub\n      swap1\n      revert\n    tag_166:\n        /* \"D/distributed proof of security.sol\":2536:2543  watcher */\n      dup2\n        /* \"D/distributed proof of security.sol\":2517:2518  w */\n      dup2\n        /* \"D/distributed proof of security.sol\":2517:2533  w.watcherAddress */\n      0x00\n      add\n      0x00\n        /* \"D/distributed proof of security.sol\":2517:2543  w.watcherAddress = watcher */\n      0x0100\n      exp\n      dup2\n      sload\n      dup2\n      0xffffffffffffffffffffffffffffffffffffffff\n      mul\n      not\n      and\n      swap1\n      dup4\n      0xffffffffffffffffffffffffffffffffffffffff\n      and\n      mul\n      or\n      swap1\n      sstore\n      pop\n        /* \"D/distributed proof of security.sol\":2564:2568  true */\n      0x01\n        /* \"D/distributed proof of security.sol\":2553:2554  w */\n      dup2\n        /* \"D/distributed proof of security.sol\":2553:2561  w.active */\n      0x02\n      add\n      0x00\n        /* \"D/distributed proof of security.sol\":2553:2568  w.active = true */\n      0x0100\n      exp\n      dup2\n      sload\n      dup2\n      0xff\n      mul\n      not\n      and\n      swap1\n      dup4\n      iszero\n      iszero\n      mul\n      or\n      swap1\n      sstore\n      pop\n        /* \"D/distributed proof of security.sol\":2602:2609  watcher */\n      dup2\n        /* \"D/distributed proof of security.sol\":2584:2610  WatcherRegistered(watcher) */\n      0xffffffffffffffffffffffffffffffffffffffff\n      and\n      0x8ceee2bb9ffa614e8f92ce61ff7ab1658eb8c19eaa983439dae3ced63e1a3d69\n      mload(0x40)\n      mload(0x40)\n      dup1\n      swap2\n      sub\n      swap1\n      log2\n        /* \"D/distributed proof of security.sol\":2334:2617  {... */\n      pop\n        /* \"D/distributed proof of security.sol\":2273:2617  function registerWatcher(address watcher) external onlyOwner {... */\n      pop\n      jump\t// out\n        /* \"@openzeppelin/contracts/security/ReentrancyGuard.sol\":2336:2623  function _nonReentrantBefore() private {... */\n    tag_69:\n        /* \"@openzeppelin/contracts/security/ReentrancyGuard.sol\":1759:1760  2 */\n      0x02\n        /* \"@openzeppelin/contracts/security/ReentrancyGuard.sol\":2468:2475  _status */\n      sload(0x01)\n        /* \"@openzeppelin/contracts/security/ReentrancyGuard.sol\":2468:2487  _status != _ENTERED */\n      sub\n        /* \"@openzeppelin/contracts/security/ReentrancyGuard.sol\":2460:2523  require(_status != _ENTERED, \"ReentrancyGuard: reentrant call\") */\n      tag_170\n      jumpi\n      mload(0x40)\n      0x08c379a000000000000000000000000000000000000000000000000000000000\n      dup2\n      mstore\n      0x04\n      add\n      tag_171\n      swap1\n      tag_172\n      jump\t// in\n    tag_171:\n      mload(0x40)\n      dup1\n      swap2\n      sub\n      swap1\n      revert\n    tag_170:\n        /* \"@openzeppelin/contracts/security/ReentrancyGuard.sol\":1759:1760  2 */\n      0x02\n        /* \"@openzeppelin/contracts/security/ReentrancyGuard.sol\":2598:2605  _status */\n      0x01\n        /* \"@openzeppelin/contracts/security/ReentrancyGuard.sol\":2598:2616  _status = _ENTERED */\n      dup2\n      swap1\n      sstore\n      pop\n        /* \"@openzeppelin/contracts/security/ReentrancyGuard.sol\":2336:2623  function _nonReentrantBefore() private {... */\n      jump\t// out\n        /* \"@openzeppelin/contracts/security/ReentrancyGuard.sol\":2629:2838  function _nonReentrantAfter() private {... */\n    tag_94:\n        /* \"@openzeppelin/contracts/security/ReentrancyGuard.sol\":1716:1717  1 */\n      0x01\n        /* \"@openzeppelin/contracts/security/ReentrancyGuard.sol\":2809:2816  _status */\n      dup1\n        /* \"@openzeppelin/contracts/security/ReentrancyGuard.sol\":2809:2831  _status = _NOT_ENTERED */\n      dup2\n      swap1\n      sstore\n      pop\n        /* \"@openzeppelin/contracts/security/ReentrancyGuard.sol\":2629:2838  function _nonReentrantAfter() private {... */\n      jump\t// out\n        /* \"@openzeppelin/contracts/access/Ownable.sol\":1796:1958  function _checkOwner() internal view virtual {... */\n    tag_98:\n        /* \"@openzeppelin/contracts/access/Ownable.sol\":1866:1878  _msgSender() */\n      tag_175\n        /* \"@openzeppelin/contracts/access/Ownable.sol\":1866:1876  _msgSender */\n      tag_176\n        /* \"@openzeppelin/contracts/access/Ownable.sol\":1866:1878  _msgSender() */\n      jump\t// in\n    tag_175:\n        /* \"@openzeppelin/contracts/access/Ownable.sol\":1855:1878  owner() != _msgSender() */\n      0xffffffffffffffffffffffffffffffffffffffff\n      and\n        /* \"@openzeppelin/contracts/access/Ownable.sol\":1855:1862  owner() */\n      tag_177\n        /* \"@openzeppelin/contracts/access/Ownable.sol\":1855:1860  owner */\n      tag_46\n        /* \"@openzeppelin/contracts/access/Ownable.sol\":1855:1862  owner() */\n      jump\t// in\n    tag_177:\n        /* \"@openzeppelin/contracts/access/Ownable.sol\":1855:1878  owner() != _msgSender() */\n      0xffffffffffffffffffffffffffffffffffffffff\n      and\n      eq\n        /* \"@openzeppelin/contracts/access/Ownable.sol\":1851:1952  if (owner() != _msgSender()) {... */\n      tag_178\n      jumpi\n        /* \"@openzeppelin/contracts/access/Ownable.sol\":1928:1940  _msgSender() */\n      tag_179\n        /* \"@openzeppelin/contracts/access/Ownable.sol\":1928:1938  _msgSender */\n      tag_176\n        /* \"@openzeppelin/contracts/access/Ownable.sol\":1928:1940  _msgSender() */\n      jump\t// in\n    tag_179:\n        /* \"@openzeppelin/contracts/access/Ownable.sol\":1901:1941  OwnableUnauthorizedAccount(_msgSender()) */\n      mload(0x40)\n      0x118cdaa700000000000000000000000000000000000000000000000000000000\n      dup2\n      mstore\n      0x04\n      add\n      tag_180\n      swap2\n      swap1\n      tag_48\n      jump\t// in\n    tag_180:\n      mload(0x40)\n      dup1\n      swap2\n      sub\n      swap1\n      revert\n        /* \"@openzeppelin/contracts/access/Ownable.sol\":1851:1952  if (owner() != _msgSender()) {... */\n    tag_178:\n        /* \"@openzeppelin/contracts/access/Ownable.sol\":1796:1958  function _checkOwner() internal view virtual {... */\n      jump\t// out\n        /* \"@openzeppelin/contracts/access/Ownable.sol\":2912:3099  function _transferOwnership(address newOwner) internal virtual {... */\n    tag_107:\n        /* \"@openzeppelin/contracts/access/Ownable.sol\":2985:3001  address oldOwner */\n      0x00\n        /* \"@openzeppelin/contracts/access/Ownable.sol\":3004:3010  _owner */\n      0x00\n      0x00\n      swap1\n      sload\n      swap1\n      0x0100\n      exp\n      swap1\n      div\n      0xffffffffffffffffffffffffffffffffffffffff\n      and\n        /* \"@openzeppelin/contracts/access/Ownable.sol\":2985:3010  address oldOwner = _owner */\n      swap1\n      pop\n        /* \"@openzeppelin/contracts/access/Ownable.sol\":3029:3037  newOwner */\n      dup2\n        /* \"@openzeppelin/contracts/access/Ownable.sol\":3020:3026  _owner */\n      0x00\n      0x00\n        /* \"@openzeppelin/contracts/access/Ownable.sol\":3020:3037  _owner = newOwner */\n      0x0100\n      exp\n      dup2\n      sload\n      dup2\n      0xffffffffffffffffffffffffffffffffffffffff\n      mul\n      not\n      and\n      swap1\n      dup4\n      0xffffffffffffffffffffffffffffffffffffffff\n      and\n      mul\n      or\n      swap1\n      sstore\n      pop\n        /* \"@openzeppelin/contracts/access/Ownable.sol\":3083:3091  newOwner */\n      dup2\n        /* \"@openzeppelin/contracts/access/Ownable.sol\":3052:3092  OwnershipTransferred(oldOwner, newOwner) */\n      0xffffffffffffffffffffffffffffffffffffffff\n      and\n        /* \"@openzeppelin/contracts/access/Ownable.sol\":3073:3081  oldOwner */\n      dup2\n        /* \"@openzeppelin/contracts/access/Ownable.sol\":3052:3092  OwnershipTransferred(oldOwner, newOwner) */\n      0xffffffffffffffffffffffffffffffffffffffff\n      and\n      0x8be0079c531659141344cd1fd0a4f28419497f9722a3daafe3b4186f6b6457e0\n      mload(0x40)\n      mload(0x40)\n      dup1\n      swap2\n      sub\n      swap1\n      log3\n        /* \"@openzeppelin/contracts/access/Ownable.sol\":2975:3099  {... */\n      pop\n        /* \"@openzeppelin/contracts/access/Ownable.sol\":2912:3099  function _transferOwnership(address newOwner) internal virtual {... */\n      pop\n      jump\t// out\n        /* \"@openzeppelin/contracts/utils/Context.sol\":656:752  function _msgSender() internal view virtual returns (address) {... */\n    tag_176:\n        /* \"@openzeppelin/contracts/utils/Context.sol\":709:716  address */\n      0x00\n        /* \"@openzeppelin/contracts/utils/Context.sol\":735:745  msg.sender */\n      caller\n        /* \"@openzeppelin/contracts/utils/Context.sol\":728:745  return msg.sender */\n      swap1\n      pop\n        /* \"@openzeppelin/contracts/utils/Context.sol\":656:752  function _msgSender() internal view virtual returns (address) {... */\n      swap1\n      jump\t// out\n        /* \"#utility.yul\":88:205   */\n    tag_184:\n        /* \"#utility.yul\":197:198   */\n      0x00\n        /* \"#utility.yul\":194:195   */\n      0x00\n        /* \"#utility.yul\":187:199   */\n      revert\n        /* \"#utility.yul\":334:411   */\n    tag_186:\n        /* \"#utility.yul\":371:378   */\n      0x00\n        /* \"#utility.yul\":400:405   */\n      dup2\n        /* \"#utility.yul\":389:405   */\n      swap1\n      pop\n        /* \"#utility.yul\":334:411   */\n      swap2\n      swap1\n      pop\n      jump\t// out\n        /* \"#utility.yul\":417:539   */\n    tag_187:\n        /* \"#utility.yul\":490:514   */\n      tag_236\n        /* \"#utility.yul\":508:513   */\n      dup2\n        /* \"#utility.yul\":490:514   */\n      tag_186\n      jump\t// in\n    tag_236:\n        /* \"#utility.yul\":483:488   */\n      dup2\n        /* \"#utility.yul\":480:515   */\n      eq\n        /* \"#utility.yul\":470:533   */\n      tag_237\n      jumpi\n        /* \"#utility.yul\":529:530   */\n      0x00\n        /* \"#utility.yul\":526:527   */\n      0x00\n        /* \"#utility.yul\":519:531   */\n      revert\n        /* \"#utility.yul\":470:533   */\n    tag_237:\n        /* \"#utility.yul\":417:539   */\n      pop\n      jump\t// out\n        /* \"#utility.yul\":545:684   */\n    tag_188:\n        /* \"#utility.yul\":591:596   */\n      0x00\n        /* \"#utility.yul\":629:635   */\n      dup2\n        /* \"#utility.yul\":616:636   */\n      calldataload\n        /* \"#utility.yul\":607:636   */\n      swap1\n      pop\n        /* \"#utility.yul\":645:678   */\n      tag_239\n        /* \"#utility.yul\":672:677   */\n      dup2\n        /* \"#utility.yul\":645:678   */\n      tag_187\n      jump\t// in\n    tag_239:\n        /* \"#utility.yul\":545:684   */\n      swap3\n      swap2\n      pop\n      pop\n      jump\t// out\n        /* \"#utility.yul\":690:1019   */\n    tag_20:\n        /* \"#utility.yul\":749:755   */\n      0x00\n        /* \"#utility.yul\":798:800   */\n      0x20\n        /* \"#utility.yul\":786:795   */\n      dup3\n        /* \"#utility.yul\":777:784   */\n      dup5\n        /* \"#utility.yul\":773:796   */\n      sub\n        /* \"#utility.yul\":769:801   */\n      slt\n        /* \"#utility.yul\":766:885   */\n      iszero\n      tag_241\n      jumpi\n        /* \"#utility.yul\":804:883   */\n      tag_242\n      tag_184\n      jump\t// in\n    tag_242:\n        /* \"#utility.yul\":766:885   */\n    tag_241:\n        /* \"#utility.yul\":924:925   */\n      0x00\n        /* \"#utility.yul\":949:1002   */\n      tag_243\n        /* \"#utility.yul\":994:1001   */\n      dup5\n        /* \"#utility.yul\":985:991   */\n      dup3\n        /* \"#utility.yul\":974:983   */\n      dup6\n        /* \"#utility.yul\":970:992   */\n      add\n        /* \"#utility.yul\":949:1002   */\n      tag_188\n      jump\t// in\n    tag_243:\n        /* \"#utility.yul\":939:1002   */\n      swap2\n      pop\n        /* \"#utility.yul\":895:1012   */\n      pop\n        /* \"#utility.yul\":690:1019   */\n      swap3\n      swap2\n      pop\n      pop\n      jump\t// out\n        /* \"#utility.yul\":1025:1151   */\n    tag_189:\n        /* \"#utility.yul\":1062:1069   */\n      0x00\n        /* \"#utility.yul\":1102:1144   */\n      0xffffffffffffffffffffffffffffffffffffffff\n        /* \"#utility.yul\":1095:1100   */\n      dup3\n        /* \"#utility.yul\":1091:1145   */\n      and\n        /* \"#utility.yul\":1080:1145   */\n      swap1\n      pop\n        /* \"#utility.yul\":1025:1151   */\n      swap2\n      swap1\n      pop\n      jump\t// out\n        /* \"#utility.yul\":1157:1253   */\n    tag_190:\n        /* \"#utility.yul\":1194:1201   */\n      0x00\n        /* \"#utility.yul\":1223:1247   */\n      tag_246\n        /* \"#utility.yul\":1241:1246   */\n      dup3\n        /* \"#utility.yul\":1223:1247   */\n      tag_189\n      jump\t// in\n    tag_246:\n        /* \"#utility.yul\":1212:1247   */\n      swap1\n      pop\n        /* \"#utility.yul\":1157:1253   */\n      swap2\n      swap1\n      pop\n      jump\t// out\n        /* \"#utility.yul\":1259:1381   */\n    tag_191:\n        /* \"#utility.yul\":1332:1356   */\n      tag_248\n        /* \"#utility.yul\":1350:1355   */\n      dup2\n        /* \"#utility.yul\":1332:1356   */\n      tag_190\n      jump\t// in\n    tag_248:\n        /* \"#utility.yul\":1325:1330   */\n      dup2\n        /* \"#utility.yul\":1322:1357   */\n      eq\n        /* \"#utility.yul\":1312:1375   */\n      tag_249\n      jumpi\n        /* \"#utility.yul\":1371:1372   */\n      0x00\n        /* \"#utility.yul\":1368:1369   */\n      0x00\n        /* \"#utility.yul\":1361:1373   */\n      revert\n        /* \"#utility.yul\":1312:1375   */\n    tag_249:\n        /* \"#utility.yul\":1259:1381   */\n      pop\n      jump\t// out\n        /* \"#utility.yul\":1387:1526   */\n    tag_192:\n        /* \"#utility.yul\":1433:1438   */\n      0x00\n        /* \"#utility.yul\":1471:1477   */\n      dup2\n        /* \"#utility.yul\":1458:1478   */\n      calldataload\n        /* \"#utility.yul\":1449:1478   */\n      swap1\n      pop\n        /* \"#utility.yul\":1487:1520   */\n      tag_251\n        /* \"#utility.yul\":1514:1519   */\n      dup2\n        /* \"#utility.yul\":1487:1520   */\n      tag_191\n      jump\t// in\n    tag_251:\n        /* \"#utility.yul\":1387:1526   */\n      swap3\n      swap2\n      pop\n      pop\n      jump\t// out\n        /* \"#utility.yul\":1532:1861   */\n    tag_24:\n        /* \"#utility.yul\":1591:1597   */\n      0x00\n        /* \"#utility.yul\":1640:1642   */\n      0x20\n        /* \"#utility.yul\":1628:1637   */\n      dup3\n        /* \"#utility.yul\":1619:1626   */\n      dup5\n        /* \"#utility.yul\":1615:1638   */\n      sub\n        /* \"#utility.yul\":1611:1643   */\n      slt\n        /* \"#utility.yul\":1608:1727   */\n      iszero\n      tag_253\n      jumpi\n        /* \"#utility.yul\":1646:1725   */\n      tag_254\n      tag_184\n      jump\t// in\n    tag_254:\n        /* \"#utility.yul\":1608:1727   */\n    tag_253:\n        /* \"#utility.yul\":1766:1767   */\n      0x00\n        /* \"#utility.yul\":1791:1844   */\n      tag_255\n        /* \"#utility.yul\":1836:1843   */\n      dup5\n        /* \"#utility.yul\":1827:1833   */\n      dup3\n        /* \"#utility.yul\":1816:1825   */\n      dup6\n        /* \"#utility.yul\":1812:1834   */\n      add\n        /* \"#utility.yul\":1791:1844   */\n      tag_192\n      jump\t// in\n    tag_255:\n        /* \"#utility.yul\":1781:1844   */\n      swap2\n      pop\n        /* \"#utility.yul\":1737:1854   */\n      pop\n        /* \"#utility.yul\":1532:1861   */\n      swap3\n      swap2\n      pop\n      pop\n      jump\t// out\n        /* \"#utility.yul\":1867:1985   */\n    tag_193:\n        /* \"#utility.yul\":1954:1978   */\n      tag_257\n        /* \"#utility.yul\":1972:1977   */\n      dup2\n        /* \"#utility.yul\":1954:1978   */\n      tag_186\n      jump\t// in\n    tag_257:\n        /* \"#utility.yul\":1949:1952   */\n      dup3\n        /* \"#utility.yul\":1942:1979   */\n      mstore\n        /* \"#utility.yul\":1867:1985   */\n      pop\n      pop\n      jump\t// out\n        /* \"#utility.yul\":1991:2213   */\n    tag_27:\n        /* \"#utility.yul\":2084:2088   */\n      0x00\n        /* \"#utility.yul\":2122:2124   */\n      0x20\n        /* \"#utility.yul\":2111:2120   */\n      dup3\n        /* \"#utility.yul\":2107:2125   */\n      add\n        /* \"#utility.yul\":2099:2125   */\n      swap1\n      pop\n        /* \"#utility.yul\":2135:2206   */\n      tag_259\n        /* \"#utility.yul\":2203:2204   */\n      0x00\n        /* \"#utility.yul\":2192:2201   */\n      dup4\n        /* \"#utility.yul\":2188:2205   */\n      add\n        /* \"#utility.yul\":2179:2185   */\n      dup5\n        /* \"#utility.yul\":2135:2206   */\n      tag_193\n      jump\t// in\n    tag_259:\n        /* \"#utility.yul\":1991:2213   */\n      swap3\n      swap2\n      pop\n      pop\n      jump\t// out\n        /* \"#utility.yul\":2219:2337   */\n    tag_194:\n        /* \"#utility.yul\":2306:2330   */\n      tag_261\n        /* \"#utility.yul\":2324:2329   */\n      dup2\n        /* \"#utility.yul\":2306:2330   */\n      tag_190\n      jump\t// in\n    tag_261:\n        /* \"#utility.yul\":2301:2304   */\n      dup3\n        /* \"#utility.yul\":2294:2331   */\n      mstore\n        /* \"#utility.yul\":2219:2337   */\n      pop\n      pop\n      jump\t// out\n        /* \"#utility.yul\":2343:2433   */\n    tag_195:\n        /* \"#utility.yul\":2377:2384   */\n      0x00\n        /* \"#utility.yul\":2420:2425   */\n      dup2\n        /* \"#utility.yul\":2413:2426   */\n      iszero\n        /* \"#utility.yul\":2406:2427   */\n      iszero\n        /* \"#utility.yul\":2395:2427   */\n      swap1\n      pop\n        /* \"#utility.yul\":2343:2433   */\n      swap2\n      swap1\n      pop\n      jump\t// out\n        /* \"#utility.yul\":2439:2548   */\n    tag_196:\n        /* \"#utility.yul\":2520:2541   */\n      tag_264\n        /* \"#utility.yul\":2535:2540   */\n      dup2\n        /* \"#utility.yul\":2520:2541   */\n      tag_195\n      jump\t// in\n    tag_264:\n        /* \"#utility.yul\":2515:2518   */\n      dup3\n        /* \"#utility.yul\":2508:2542   */\n      mstore\n        /* \"#utility.yul\":2439:2548   */\n      pop\n      pop\n      jump\t// out\n        /* \"#utility.yul\":2554:2984   */\n    tag_35:\n        /* \"#utility.yul\":2697:2701   */\n      0x00\n        /* \"#utility.yul\":2735:2737   */\n      0x60\n        /* \"#utility.yul\":2724:2733   */\n      dup3\n        /* \"#utility.yul\":2720:2738   */\n      add\n        /* \"#utility.yul\":2712:2738   */\n      swap1\n      pop\n        /* \"#utility.yul\":2748:2819   */\n      tag_266\n        /* \"#utility.yul\":2816:2817   */\n      0x00\n        /* \"#utility.yul\":2805:2814   */\n      dup4\n        /* \"#utility.yul\":2801:2818   */\n      add\n        /* \"#utility.yul\":2792:2798   */\n      dup7\n        /* \"#utility.yul\":2748:2819   */\n      tag_194\n      jump\t// in\n    tag_266:\n        /* \"#utility.yul\":2829:2901   */\n      tag_267\n        /* \"#utility.yul\":2897:2899   */\n      0x20\n        /* \"#utility.yul\":2886:2895   */\n      dup4\n        /* \"#utility.yul\":2882:2900   */\n      add\n        /* \"#utility.yul\":2873:2879   */\n      dup6\n        /* \"#utility.yul\":2829:2901   */\n      tag_193\n      jump\t// in\n    tag_267:\n        /* \"#utility.yul\":2911:2977   */\n      tag_268\n        /* \"#utility.yul\":2973:2975   */\n      0x40\n        /* \"#utility.yul\":2962:2971   */\n      dup4\n        /* \"#utility.yul\":2958:2976   */\n      add\n        /* \"#utility.yul\":2949:2955   */\n      dup5\n        /* \"#utility.yul\":2911:2977   */\n      tag_196\n      jump\t// in\n    tag_268:\n        /* \"#utility.yul\":2554:2984   */\n      swap5\n      swap4\n      pop\n      pop\n      pop\n      pop\n      jump\t// out\n        /* \"#utility.yul\":2990:3050   */\n    tag_197:\n        /* \"#utility.yul\":3018:3021   */\n      0x00\n        /* \"#utility.yul\":3039:3044   */\n      dup2\n        /* \"#utility.yul\":3032:3044   */\n      swap1\n      pop\n        /* \"#utility.yul\":2990:3050   */\n      swap2\n      swap1\n      pop\n      jump\t// out\n        /* \"#utility.yul\":3056:3198   */\n    tag_198:\n        /* \"#utility.yul\":3106:3115   */\n      0x00\n        /* \"#utility.yul\":3139:3192   */\n      tag_271\n        /* \"#utility.yul\":3157:3191   */\n      tag_272\n        /* \"#utility.yul\":3166:3190   */\n      tag_273\n        /* \"#utility.yul\":3184:3189   */\n      dup5\n        /* \"#utility.yul\":3166:3190   */\n      tag_189\n      jump\t// in\n    tag_273:\n        /* \"#utility.yul\":3157:3191   */\n      tag_197\n      jump\t// in\n    tag_272:\n        /* \"#utility.yul\":3139:3192   */\n      tag_189\n      jump\t// in\n    tag_271:\n        /* \"#utility.yul\":3126:3192   */\n      swap1\n      pop\n        /* \"#utility.yul\":3056:3198   */\n      swap2\n      swap1\n      pop\n      jump\t// out\n        /* \"#utility.yul\":3204:3330   */\n    tag_199:\n        /* \"#utility.yul\":3254:3263   */\n      0x00\n        /* \"#utility.yul\":3287:3324   */\n      tag_275\n        /* \"#utility.yul\":3318:3323   */\n      dup3\n        /* \"#utility.yul\":3287:3324   */\n      tag_198\n      jump\t// in\n    tag_275:\n        /* \"#utility.yul\":3274:3324   */\n      swap1\n      pop\n        /* \"#utility.yul\":3204:3330   */\n      swap2\n      swap1\n      pop\n      jump\t// out\n        /* \"#utility.yul\":3336:3476   */\n    tag_200:\n        /* \"#utility.yul\":3400:3409   */\n      0x00\n        /* \"#utility.yul\":3433:3470   */\n      tag_277\n        /* \"#utility.yul\":3464:3469   */\n      dup3\n        /* \"#utility.yul\":3433:3470   */\n      tag_199\n      jump\t// in\n    tag_277:\n        /* \"#utility.yul\":3420:3470   */\n      swap1\n      pop\n        /* \"#utility.yul\":3336:3476   */\n      swap2\n      swap1\n      pop\n      jump\t// out\n        /* \"#utility.yul\":3482:3641   */\n    tag_201:\n        /* \"#utility.yul\":3583:3634   */\n      tag_279\n        /* \"#utility.yul\":3628:3633   */\n      dup2\n        /* \"#utility.yul\":3583:3634   */\n      tag_200\n      jump\t// in\n    tag_279:\n        /* \"#utility.yul\":3578:3581   */\n      dup3\n        /* \"#utility.yul\":3571:3635   */\n      mstore\n        /* \"#utility.yul\":3482:3641   */\n      pop\n      pop\n      jump\t// out\n        /* \"#utility.yul\":3647:3897   */\n    tag_41:\n        /* \"#utility.yul\":3754:3758   */\n      0x00\n        /* \"#utility.yul\":3792:3794   */\n      0x20\n        /* \"#utility.yul\":3781:3790   */\n      dup3\n        /* \"#utility.yul\":3777:3795   */\n      add\n        /* \"#utility.yul\":3769:3795   */\n      swap1\n      pop\n        /* \"#utility.yul\":3805:3890   */\n      tag_281\n        /* \"#utility.yul\":3887:3888   */\n      0x00\n        /* \"#utility.yul\":3876:3885   */\n      dup4\n        /* \"#utility.yul\":3872:3889   */\n      add\n        /* \"#utility.yul\":3863:3869   */\n      dup5\n        /* \"#utility.yul\":3805:3890   */\n      tag_201\n      jump\t// in\n    tag_281:\n        /* \"#utility.yul\":3647:3897   */\n      swap3\n      swap2\n      pop\n      pop\n      jump\t// out\n        /* \"#utility.yul\":3903:4125   */\n    tag_48:\n        /* \"#utility.yul\":3996:4000   */\n      0x00\n        /* \"#utility.yul\":4034:4036   */\n      0x20\n        /* \"#utility.yul\":4023:4032   */\n      dup3\n        /* \"#utility.yul\":4019:4037   */\n      add\n        /* \"#utility.yul\":4011:4037   */\n      swap1\n      pop\n        /* \"#utility.yul\":4047:4118   */\n      tag_283\n        /* \"#utility.yul\":4115:4116   */\n      0x00\n        /* \"#utility.yul\":4104:4113   */\n      dup4\n        /* \"#utility.yul\":4100:4117   */\n      add\n        /* \"#utility.yul\":4091:4097   */\n      dup5\n        /* \"#utility.yul\":4047:4118   */\n      tag_194\n      jump\t// in\n    tag_283:\n        /* \"#utility.yul\":3903:4125   */\n      swap3\n      swap2\n      pop\n      pop\n      jump\t// out\n        /* \"#utility.yul\":4131:4341   */\n    tag_56:\n        /* \"#utility.yul\":4218:4222   */\n      0x00\n        /* \"#utility.yul\":4256:4258   */\n      0x20\n        /* \"#utility.yul\":4245:4254   */\n      dup3\n        /* \"#utility.yul\":4241:4259   */\n      add\n        /* \"#utility.yul\":4233:4259   */\n      swap1\n      pop\n        /* \"#utility.yul\":4269:4334   */\n      tag_285\n        /* \"#utility.yul\":4331:4332   */\n      0x00\n        /* \"#utility.yul\":4320:4329   */\n      dup4\n        /* \"#utility.yul\":4316:4333   */\n      add\n        /* \"#utility.yul\":4307:4313   */\n      dup5\n        /* \"#utility.yul\":4269:4334   */\n      tag_196\n      jump\t// in\n    tag_285:\n        /* \"#utility.yul\":4131:4341   */\n      swap3\n      swap2\n      pop\n      pop\n      jump\t// out\n        /* \"#utility.yul\":4347:4966   */\n    tag_59:\n        /* \"#utility.yul\":4424:4430   */\n      0x00\n        /* \"#utility.yul\":4432:4438   */\n      0x00\n        /* \"#utility.yul\":4440:4446   */\n      0x00\n        /* \"#utility.yul\":4489:4491   */\n      0x60\n        /* \"#utility.yul\":4477:4486   */\n      dup5\n        /* \"#utility.yul\":4468:4475   */\n      dup7\n        /* \"#utility.yul\":4464:4487   */\n      sub\n        /* \"#utility.yul\":4460:4492   */\n      slt\n        /* \"#utility.yul\":4457:4576   */\n      iszero\n      tag_287\n      jumpi\n        /* \"#utility.yul\":4495:4574   */\n      tag_288\n      tag_184\n      jump\t// in\n    tag_288:\n        /* \"#utility.yul\":4457:4576   */\n    tag_287:\n        /* \"#utility.yul\":4615:4616   */\n      0x00\n        /* \"#utility.yul\":4640:4693   */\n      tag_289\n        /* \"#utility.yul\":4685:4692   */\n      dup7\n        /* \"#utility.yul\":4676:4682   */\n      dup3\n        /* \"#utility.yul\":4665:4674   */\n      dup8\n        /* \"#utility.yul\":4661:4683   */\n      add\n        /* \"#utility.yul\":4640:4693   */\n      tag_192\n      jump\t// in\n    tag_289:\n        /* \"#utility.yul\":4630:4693   */\n      swap4\n      pop\n        /* \"#utility.yul\":4586:4703   */\n      pop\n        /* \"#utility.yul\":4742:4744   */\n      0x20\n        /* \"#utility.yul\":4768:4821   */\n      tag_290\n        /* \"#utility.yul\":4813:4820   */\n      dup7\n        /* \"#utility.yul\":4804:4810   */\n      dup3\n        /* \"#utility.yul\":4793:4802   */\n      dup8\n        /* \"#utility.yul\":4789:4811   */\n      add\n        /* \"#utility.yul\":4768:4821   */\n      tag_188\n      jump\t// in\n    tag_290:\n        /* \"#utility.yul\":4758:4821   */\n      swap3\n      pop\n        /* \"#utility.yul\":4713:4831   */\n      pop\n        /* \"#utility.yul\":4870:4872   */\n      0x40\n        /* \"#utility.yul\":4896:4949   */\n      tag_291\n        /* \"#utility.yul\":4941:4948   */\n      dup7\n        /* \"#utility.yul\":4932:4938   */\n      dup3\n        /* \"#utility.yul\":4921:4930   */\n      dup8\n        /* \"#utility.yul\":4917:4939   */\n      add\n        /* \"#utility.yul\":4896:4949   */\n      tag_192\n      jump\t// in\n    tag_291:\n        /* \"#utility.yul\":4886:4949   */\n      swap2\n      pop\n        /* \"#utility.yul\":4841:4959   */\n      pop\n        /* \"#utility.yul\":4347:4966   */\n      swap3\n      pop\n      swap3\n      pop\n      swap3\n      jump\t// out\n        /* \"#utility.yul\":4972:5141   */\n    tag_202:\n        /* \"#utility.yul\":5056:5067   */\n      0x00\n        /* \"#utility.yul\":5090:5096   */\n      dup3\n        /* \"#utility.yul\":5085:5088   */\n      dup3\n        /* \"#utility.yul\":5078:5097   */\n      mstore\n        /* \"#utility.yul\":5130:5134   */\n      0x20\n        /* \"#utility.yul\":5125:5128   */\n      dup3\n        /* \"#utility.yul\":5121:5135   */\n      add\n        /* \"#utility.yul\":5106:5135   */\n      swap1\n      pop\n        /* \"#utility.yul\":4972:5141   */\n      swap3\n      swap2\n      pop\n      pop\n      jump\t// out\n        /* \"#utility.yul\":5147:5323   */\n    tag_203:\n        /* \"#utility.yul\":5287:5315   */\n      0x556e7374616b6520616d6f756e74206d757374206265203e2030000000000000\n        /* \"#utility.yul\":5283:5284   */\n      0x00\n        /* \"#utility.yul\":5275:5281   */\n      dup3\n        /* \"#utility.yul\":5271:5285   */\n      add\n        /* \"#utility.yul\":5264:5316   */\n      mstore\n        /* \"#utility.yul\":5147:5323   */\n      pop\n      jump\t// out\n        /* \"#utility.yul\":5329:5695   */\n    tag_204:\n        /* \"#utility.yul\":5471:5474   */\n      0x00\n        /* \"#utility.yul\":5492:5559   */\n      tag_295\n        /* \"#utility.yul\":5556:5558   */\n      0x1a\n        /* \"#utility.yul\":5551:5554   */\n      dup4\n        /* \"#utility.yul\":5492:5559   */\n      tag_202\n      jump\t// in\n    tag_295:\n        /* \"#utility.yul\":5485:5559   */\n      swap2\n      pop\n        /* \"#utility.yul\":5568:5661   */\n      tag_296\n        /* \"#utility.yul\":5657:5660   */\n      dup3\n        /* \"#utility.yul\":5568:5661   */\n      tag_203\n      jump\t// in\n    tag_296:\n        /* \"#utility.yul\":5686:5688   */\n      0x20\n        /* \"#utility.yul\":5681:5684   */\n      dup3\n        /* \"#utility.yul\":5677:5689   */\n      add\n        /* \"#utility.yul\":5670:5689   */\n      swap1\n      pop\n        /* \"#utility.yul\":5329:5695   */\n      swap2\n      swap1\n      pop\n      jump\t// out\n        /* \"#utility.yul\":5701:6120   */\n    tag_73:\n        /* \"#utility.yul\":5867:5871   */\n      0x00\n        /* \"#utility.yul\":5905:5907   */\n      0x20\n        /* \"#utility.yul\":5894:5903   */\n      dup3\n        /* \"#utility.yul\":5890:5908   */\n      add\n        /* \"#utility.yul\":5882:5908   */\n      swap1\n      pop\n        /* \"#utility.yul\":5954:5963   */\n      dup2\n        /* \"#utility.yul\":5948:5952   */\n      dup2\n        /* \"#utility.yul\":5944:5964   */\n      sub\n        /* \"#utility.yul\":5940:5941   */\n      0x00\n        /* \"#utility.yul\":5929:5938   */\n      dup4\n        /* \"#utility.yul\":5925:5942   */\n      add\n        /* \"#utility.yul\":5918:5965   */\n      mstore\n        /* \"#utility.yul\":5982:6113   */\n      tag_298\n        /* \"#utility.yul\":6108:6112   */\n      dup2\n        /* \"#utility.yul\":5982:6113   */\n      tag_204\n      jump\t// in\n    tag_298:\n        /* \"#utility.yul\":5974:6113   */\n      swap1\n      pop\n        /* \"#utility.yul\":5701:6120   */\n      swap2\n      swap1\n      pop\n      jump\t// out\n        /* \"#utility.yul\":6126:6297   */\n    tag_205:\n        /* \"#utility.yul\":6266:6289   */\n      0x4e6f7420616e2061637469766520776174636865720000000000000000000000\n        /* \"#utility.yul\":6262:6263   */\n      0x00\n        /* \"#utility.yul\":6254:6260   */\n      dup3\n        /* \"#utility.yul\":6250:6264   */\n      add\n        /* \"#utility.yul\":6243:6290   */\n      mstore\n        /* \"#utility.yul\":6126:6297   */\n      pop\n      jump\t// out\n        /* \"#utility.yul\":6303:6669   */\n    tag_206:\n        /* \"#utility.yul\":6445:6448   */\n      0x00\n        /* \"#utility.yul\":6466:6533   */\n      tag_301\n        /* \"#utility.yul\":6530:6532   */\n      0x15\n        /* \"#utility.yul\":6525:6528   */\n      dup4\n        /* \"#utility.yul\":6466:6533   */\n      tag_202\n      jump\t// in\n    tag_301:\n        /* \"#utility.yul\":6459:6533   */\n      swap2\n      pop\n        /* \"#utility.yul\":6542:6635   */\n      tag_302\n        /* \"#utility.yul\":6631:6634   */\n      dup3\n        /* \"#utility.yul\":6542:6635   */\n      tag_205\n      jump\t// in\n    tag_302:\n        /* \"#utility.yul\":6660:6662   */\n      0x20\n        /* \"#utility.yul\":6655:6658   */\n      dup3\n        /* \"#utility.yul\":6651:6663   */\n      add\n        /* \"#utility.yul\":6644:6663   */\n      swap1\n      pop\n        /* \"#utility.yul\":6303:6669   */\n      swap2\n      swap1\n      pop\n      jump\t// out\n        /* \"#utility.yul\":6675:7094   */\n    tag_76:\n        /* \"#utility.yul\":6841:6845   */\n      0x00\n        /* \"#utility.yul\":6879:6881   */\n      0x20\n        /* \"#utility.yul\":6868:6877   */\n      dup3\n        /* \"#utility.yul\":6864:6882   */\n      add\n        /* \"#utility.yul\":6856:6882   */\n      swap1\n      pop\n        /* \"#utility.yul\":6928:6937   */\n      dup2\n        /* \"#utility.yul\":6922:6926   */\n      dup2\n        /* \"#utility.yul\":6918:6938   */\n      sub\n        /* \"#utility.yul\":6914:6915   */\n      0x00\n        /* \"#utility.yul\":6903:6912   */\n      dup4\n        /* \"#utility.yul\":6899:6916   */\n      add\n        /* \"#utility.yul\":6892:6939   */\n      mstore\n        /* \"#utility.yul\":6956:7087   */\n      tag_304\n        /* \"#utility.yul\":7082:7086   */\n      dup2\n        /* \"#utility.yul\":6956:7087   */\n      tag_206\n      jump\t// in\n    tag_304:\n        /* \"#utility.yul\":6948:7087   */\n      swap1\n      pop\n        /* \"#utility.yul\":6675:7094   */\n      swap2\n      swap1\n      pop\n      jump\t// out\n        /* \"#utility.yul\":7100:7277   */\n    tag_207:\n        /* \"#utility.yul\":7240:7269   */\n      0x496e73756666696369656e74207374616b65642062616c616e63650000000000\n        /* \"#utility.yul\":7236:7237   */\n      0x00\n        /* \"#utility.yul\":7228:7234   */\n      dup3\n        /* \"#utility.yul\":7224:7238   */\n      add\n        /* \"#utility.yul\":7217:7270   */\n      mstore\n        /* \"#utility.yul\":7100:7277   */\n      pop\n      jump\t// out\n        /* \"#utility.yul\":7283:7649   */\n    tag_208:\n        /* \"#utility.yul\":7425:7428   */\n      0x00\n        /* \"#utility.yul\":7446:7513   */\n      tag_307\n        /* \"#utility.yul\":7510:7512   */\n      0x1b\n        /* \"#utility.yul\":7505:7508   */\n      dup4\n        /* \"#utility.yul\":7446:7513   */\n      tag_202\n      jump\t// in\n    tag_307:\n        /* \"#utility.yul\":7439:7513   */\n      swap2\n      pop\n        /* \"#utility.yul\":7522:7615   */\n      tag_308\n        /* \"#utility.yul\":7611:7614   */\n      dup3\n        /* \"#utility.yul\":7522:7615   */\n      tag_207\n      jump\t// in\n    tag_308:\n        /* \"#utility.yul\":7640:7642   */\n      0x20\n        /* \"#utility.yul\":7635:7638   */\n      dup3\n        /* \"#utility.yul\":7631:7643   */\n      add\n        /* \"#utility.yul\":7624:7643   */\n      swap1\n      pop\n        /* \"#utility.yul\":7283:7649   */\n      swap2\n      swap1\n      pop\n      jump\t// out\n        /* \"#utility.yul\":7655:8074   */\n    tag_79:\n        /* \"#utility.yul\":7821:7825   */\n      0x00\n        /* \"#utility.yul\":7859:7861   */\n      0x20\n        /* \"#utility.yul\":7848:7857   */\n      dup3\n        /* \"#utility.yul\":7844:7862   */\n      add\n        /* \"#utility.yul\":7836:7862   */\n      swap1\n      pop\n        /* \"#utility.yul\":7908:7917   */\n      dup2\n        /* \"#utility.yul\":7902:7906   */\n      dup2\n        /* \"#utility.yul\":7898:7918   */\n      sub\n        /* \"#utility.yul\":7894:7895   */\n      0x00\n        /* \"#utility.yul\":7883:7892   */\n      dup4\n        /* \"#utility.yul\":7879:7896   */\n      add\n        /* \"#utility.yul\":7872:7919   */\n      mstore\n        /* \"#utility.yul\":7936:8067   */\n      tag_310\n        /* \"#utility.yul\":8062:8066   */\n      dup2\n        /* \"#utility.yul\":7936:8067   */\n      tag_208\n      jump\t// in\n    tag_310:\n        /* \"#utility.yul\":7928:8067   */\n      swap1\n      pop\n        /* \"#utility.yul\":7655:8074   */\n      swap2\n      swap1\n      pop\n      jump\t// out\n        /* \"#utility.yul\":8080:8260   */\n    tag_209:\n        /* \"#utility.yul\":8128:8205   */\n      0x4e487b7100000000000000000000000000000000000000000000000000000000\n        /* \"#utility.yul\":8125:8126   */\n      0x00\n        /* \"#utility.yul\":8118:8206   */\n      mstore\n        /* \"#utility.yul\":8225:8229   */\n      0x11\n        /* \"#utility.yul\":8222:8223   */\n      0x04\n        /* \"#utility.yul\":8215:8230   */\n      mstore\n        /* \"#utility.yul\":8249:8253   */\n      0x24\n        /* \"#utility.yul\":8246:8247   */\n      0x00\n        /* \"#utility.yul\":8239:8254   */\n      revert\n        /* \"#utility.yul\":8266:8460   */\n    tag_81:\n        /* \"#utility.yul\":8306:8310   */\n      0x00\n        /* \"#utility.yul\":8326:8346   */\n      tag_313\n        /* \"#utility.yul\":8344:8345   */\n      dup3\n        /* \"#utility.yul\":8326:8346   */\n      tag_186\n      jump\t// in\n    tag_313:\n        /* \"#utility.yul\":8321:8346   */\n      swap2\n      pop\n        /* \"#utility.yul\":8360:8380   */\n      tag_314\n        /* \"#utility.yul\":8378:8379   */\n      dup4\n        /* \"#utility.yul\":8360:8380   */\n      tag_186\n      jump\t// in\n    tag_314:\n        /* \"#utility.yul\":8355:8380   */\n      swap3\n      pop\n        /* \"#utility.yul\":8404:8405   */\n      dup3\n        /* \"#utility.yul\":8401:8402   */\n      dup3\n        /* \"#utility.yul\":8397:8406   */\n      sub\n        /* \"#utility.yul\":8389:8406   */\n      swap1\n      pop\n        /* \"#utility.yul\":8428:8429   */\n      dup2\n        /* \"#utility.yul\":8422:8426   */\n      dup2\n        /* \"#utility.yul\":8419:8430   */\n      gt\n        /* \"#utility.yul\":8416:8453   */\n      iszero\n      tag_315\n      jumpi\n        /* \"#utility.yul\":8433:8451   */\n      tag_316\n      tag_209\n      jump\t// in\n    tag_316:\n        /* \"#utility.yul\":8416:8453   */\n    tag_315:\n        /* \"#utility.yul\":8266:8460   */\n      swap3\n      swap2\n      pop\n      pop\n      jump\t// out\n        /* \"#utility.yul\":8466:8798   */\n    tag_84:\n        /* \"#utility.yul\":8587:8591   */\n      0x00\n        /* \"#utility.yul\":8625:8627   */\n      0x40\n        /* \"#utility.yul\":8614:8623   */\n      dup3\n        /* \"#utility.yul\":8610:8628   */\n      add\n        /* \"#utility.yul\":8602:8628   */\n      swap1\n      pop\n        /* \"#utility.yul\":8638:8709   */\n      tag_318\n        /* \"#utility.yul\":8706:8707   */\n      0x00\n        /* \"#utility.yul\":8695:8704   */\n      dup4\n        /* \"#utility.yul\":8691:8708   */\n      add\n        /* \"#utility.yul\":8682:8688   */\n      dup6\n        /* \"#utility.yul\":8638:8709   */\n      tag_194\n      jump\t// in\n    tag_318:\n        /* \"#utility.yul\":8719:8791   */\n      tag_319\n        /* \"#utility.yul\":8787:8789   */\n      0x20\n        /* \"#utility.yul\":8776:8785   */\n      dup4\n        /* \"#utility.yul\":8772:8790   */\n      add\n        /* \"#utility.yul\":8763:8769   */\n      dup5\n        /* \"#utility.yul\":8719:8791   */\n      tag_193\n      jump\t// in\n    tag_319:\n        /* \"#utility.yul\":8466:8798   */\n      swap4\n      swap3\n      pop\n      pop\n      pop\n      jump\t// out\n        /* \"#utility.yul\":8804:8920   */\n    tag_210:\n        /* \"#utility.yul\":8874:8895   */\n      tag_321\n        /* \"#utility.yul\":8889:8894   */\n      dup2\n        /* \"#utility.yul\":8874:8895   */\n      tag_195\n      jump\t// in\n    tag_321:\n        /* \"#utility.yul\":8867:8872   */\n      dup2\n        /* \"#utility.yul\":8864:8896   */\n      eq\n        /* \"#utility.yul\":8854:8914   */\n      tag_322\n      jumpi\n        /* \"#utility.yul\":8910:8911   */\n      0x00\n        /* \"#utility.yul\":8907:8908   */\n      0x00\n        /* \"#utility.yul\":8900:8912   */\n      revert\n        /* \"#utility.yul\":8854:8914   */\n    tag_322:\n        /* \"#utility.yul\":8804:8920   */\n      pop\n      jump\t// out\n        /* \"#utility.yul\":8926:9063   */\n    tag_211:\n        /* \"#utility.yul\":8980:8985   */\n      0x00\n        /* \"#utility.yul\":9011:9017   */\n      dup2\n        /* \"#utility.yul\":9005:9018   */\n      mload\n        /* \"#utility.yul\":8996:9018   */\n      swap1\n      pop\n        /* \"#utility.yul\":9027:9057   */\n      tag_324\n        /* \"#utility.yul\":9051:9056   */\n      dup2\n        /* \"#utility.yul\":9027:9057   */\n      tag_210\n      jump\t// in\n    tag_324:\n        /* \"#utility.yul\":8926:9063   */\n      swap3\n      swap2\n      pop\n      pop\n      jump\t// out\n        /* \"#utility.yul\":9069:9414   */\n    tag_88:\n        /* \"#utility.yul\":9136:9142   */\n      0x00\n        /* \"#utility.yul\":9185:9187   */\n      0x20\n        /* \"#utility.yul\":9173:9182   */\n      dup3\n        /* \"#utility.yul\":9164:9171   */\n      dup5\n        /* \"#utility.yul\":9160:9183   */\n      sub\n        /* \"#utility.yul\":9156:9188   */\n      slt\n        /* \"#utility.yul\":9153:9272   */\n      iszero\n      tag_326\n      jumpi\n        /* \"#utility.yul\":9191:9270   */\n      tag_327\n      tag_184\n      jump\t// in\n    tag_327:\n        /* \"#utility.yul\":9153:9272   */\n    tag_326:\n        /* \"#utility.yul\":9311:9312   */\n      0x00\n        /* \"#utility.yul\":9336:9397   */\n      tag_328\n        /* \"#utility.yul\":9389:9396   */\n      dup5\n        /* \"#utility.yul\":9380:9386   */\n      dup3\n        /* \"#utility.yul\":9369:9378   */\n      dup6\n        /* \"#utility.yul\":9365:9387   */\n      add\n        /* \"#utility.yul\":9336:9397   */\n      tag_211\n      jump\t// in\n    tag_328:\n        /* \"#utility.yul\":9326:9397   */\n      swap2\n      pop\n        /* \"#utility.yul\":9282:9407   */\n      pop\n        /* \"#utility.yul\":9069:9414   */\n      swap3\n      swap2\n      pop\n      pop\n      jump\t// out\n        /* \"#utility.yul\":9420:9585   */\n    tag_212:\n        /* \"#utility.yul\":9560:9577   */\n      0x5472616e73666572206661696c65640000000000000000000000000000000000\n        /* \"#utility.yul\":9556:9557   */\n      0x00\n        /* \"#utility.yul\":9548:9554   */\n      dup3\n        /* \"#utility.yul\":9544:9558   */\n      add\n        /* \"#utility.yul\":9537:9578   */\n      mstore\n        /* \"#utility.yul\":9420:9585   */\n      pop\n      jump\t// out\n        /* \"#utility.yul\":9591:9957   */\n    tag_213:\n        /* \"#utility.yul\":9733:9736   */\n      0x00\n        /* \"#utility.yul\":9754:9821   */\n      tag_331\n        /* \"#utility.yul\":9818:9820   */\n      0x0f\n        /* \"#utility.yul\":9813:9816   */\n      dup4\n        /* \"#utility.yul\":9754:9821   */\n      tag_202\n      jump\t// in\n    tag_331:\n        /* \"#utility.yul\":9747:9821   */\n      swap2\n      pop\n        /* \"#utility.yul\":9830:9923   */\n      tag_332\n        /* \"#utility.yul\":9919:9922   */\n      dup3\n        /* \"#utility.yul\":9830:9923   */\n      tag_212\n      jump\t// in\n    tag_332:\n        /* \"#utility.yul\":9948:9950   */\n      0x20\n        /* \"#utility.yul\":9943:9946   */\n      dup3\n        /* \"#utility.yul\":9939:9951   */\n      add\n        /* \"#utility.yul\":9932:9951   */\n      swap1\n      pop\n        /* \"#utility.yul\":9591:9957   */\n      swap2\n      swap1\n      pop\n      jump\t// out\n        /* \"#utility.yul\":9963:10382   */\n    tag_91:\n        /* \"#utility.yul\":10129:10133   */\n      0x00\n        /* \"#utility.yul\":10167:10169   */\n      0x20\n        /* \"#utility.yul\":10156:10165   */\n      dup3\n        /* \"#utility.yul\":10152:10170   */\n      add\n        /* \"#utility.yul\":10144:10170   */\n      swap1\n      pop\n        /* \"#utility.yul\":10216:10225   */\n      dup2\n        /* \"#utility.yul\":10210:10214   */\n      dup2\n        /* \"#utility.yul\":10206:10226   */\n      sub\n        /* \"#utility.yul\":10202:10203   */\n      0x00\n        /* \"#utility.yul\":10191:10200   */\n      dup4\n        /* \"#utility.yul\":10187:10204   */\n      add\n        /* \"#utility.yul\":10180:10227   */\n      mstore\n        /* \"#utility.yul\":10244:10375   */\n      tag_334\n        /* \"#utility.yul\":10370:10374   */\n      dup2\n        /* \"#utility.yul\":10244:10375   */\n      tag_213\n      jump\t// in\n    tag_334:\n        /* \"#utility.yul\":10236:10375   */\n      swap1\n      pop\n        /* \"#utility.yul\":9963:10382   */\n      swap2\n      swap1\n      pop\n      jump\t// out\n        /* \"#utility.yul\":10388:10560   */\n    tag_214:\n        /* \"#utility.yul\":10528:10552   */\n      0x57617463686572206e6f74207265676973746572656400000000000000000000\n        /* \"#utility.yul\":10524:10525   */\n      0x00\n        /* \"#utility.yul\":10516:10522   */\n      dup3\n        /* \"#utility.yul\":10512:10526   */\n      add\n        /* \"#utility.yul\":10505:10553   */\n      mstore\n        /* \"#utility.yul\":10388:10560   */\n      pop\n      jump\t// out\n        /* \"#utility.yul\":10566:10932   */\n    tag_215:\n        /* \"#utility.yul\":10708:10711   */\n      0x00\n        /* \"#utility.yul\":10729:10796   */\n      tag_337\n        /* \"#utility.yul\":10793:10795   */\n      0x16\n        /* \"#utility.yul\":10788:10791   */\n      dup4\n        /* \"#utility.yul\":10729:10796   */\n      tag_202\n      jump\t// in\n    tag_337:\n        /* \"#utility.yul\":10722:10796   */\n      swap2\n      pop\n        /* \"#utility.yul\":10805:10898   */\n      tag_338\n        /* \"#utility.yul\":10894:10897   */\n      dup3\n        /* \"#utility.yul\":10805:10898   */\n      tag_214\n      jump\t// in\n    tag_338:\n        /* \"#utility.yul\":10923:10925   */\n      0x20\n        /* \"#utility.yul\":10918:10921   */\n      dup3\n        /* \"#utility.yul\":10914:10926   */\n      add\n        /* \"#utility.yul\":10907:10926   */\n      swap1\n      pop\n        /* \"#utility.yul\":10566:10932   */\n      swap2\n      swap1\n      pop\n      jump\t// out\n        /* \"#utility.yul\":10938:11357   */\n    tag_102:\n        /* \"#utility.yul\":11104:11108   */\n      0x00\n        /* \"#utility.yul\":11142:11144   */\n      0x20\n        /* \"#utility.yul\":11131:11140   */\n      dup3\n        /* \"#utility.yul\":11127:11145   */\n      add\n        /* \"#utility.yul\":11119:11145   */\n      swap1\n      pop\n        /* \"#utility.yul\":11191:11200   */\n      dup2\n        /* \"#utility.yul\":11185:11189   */\n      dup2\n        /* \"#utility.yul\":11181:11201   */\n      sub\n        /* \"#utility.yul\":11177:11178   */\n      0x00\n        /* \"#utility.yul\":11166:11175   */\n      dup4\n        /* \"#utility.yul\":11162:11179   */\n      add\n        /* \"#utility.yul\":11155:11202   */\n      mstore\n        /* \"#utility.yul\":11219:11350   */\n      tag_340\n        /* \"#utility.yul\":11345:11349   */\n      dup2\n        /* \"#utility.yul\":11219:11350   */\n      tag_215\n      jump\t// in\n    tag_340:\n        /* \"#utility.yul\":11211:11350   */\n      swap1\n      pop\n        /* \"#utility.yul\":10938:11357   */\n      swap2\n      swap1\n      pop\n      jump\t// out\n        /* \"#utility.yul\":11363:11537   */\n    tag_216:\n        /* \"#utility.yul\":11503:11529   */\n      0x5374616b6520616d6f756e74206d757374206265203e20300000000000000000\n        /* \"#utility.yul\":11499:11500   */\n      0x00\n        /* \"#utility.yul\":11491:11497   */\n      dup3\n        /* \"#utility.yul\":11487:11501   */\n      add\n        /* \"#utility.yul\":11480:11530   */\n      mstore\n        /* \"#utility.yul\":11363:11537   */\n      pop\n      jump\t// out\n        /* \"#utility.yul\":11543:11909   */\n    tag_217:\n        /* \"#utility.yul\":11685:11688   */\n      0x00\n        /* \"#utility.yul\":11706:11773   */\n      tag_343\n        /* \"#utility.yul\":11770:11772   */\n      0x18\n        /* \"#utility.yul\":11765:11768   */\n      dup4\n        /* \"#utility.yul\":11706:11773   */\n      tag_202\n      jump\t// in\n    tag_343:\n        /* \"#utility.yul\":11699:11773   */\n      swap2\n      pop\n        /* \"#utility.yul\":11782:11875   */\n      tag_344\n        /* \"#utility.yul\":11871:11874   */\n      dup3\n        /* \"#utility.yul\":11782:11875   */\n      tag_216\n      jump\t// in\n    tag_344:\n        /* \"#utility.yul\":11900:11902   */\n      0x20\n        /* \"#utility.yul\":11895:11898   */\n      dup3\n        /* \"#utility.yul\":11891:11903   */\n      add\n        /* \"#utility.yul\":11884:11903   */\n      swap1\n      pop\n        /* \"#utility.yul\":11543:11909   */\n      swap2\n      swap1\n      pop\n      jump\t// out\n        /* \"#utility.yul\":11915:12334   */\n    tag_114:\n        /* \"#utility.yul\":12081:12085   */\n      0x00\n        /* \"#utility.yul\":12119:12121   */\n      0x20\n        /* \"#utility.yul\":12108:12117   */\n      dup3\n        /* \"#utility.yul\":12104:12122   */\n      add\n        /* \"#utility.yul\":12096:12122   */\n      swap1\n      pop\n        /* \"#utility.yul\":12168:12177   */\n      dup2\n        /* \"#utility.yul\":12162:12166   */\n      dup2\n        /* \"#utility.yul\":12158:12178   */\n      sub\n        /* \"#utility.yul\":12154:12155   */\n      0x00\n        /* \"#utility.yul\":12143:12152   */\n      dup4\n        /* \"#utility.yul\":12139:12156   */\n      add\n        /* \"#utility.yul\":12132:12179   */\n      mstore\n        /* \"#utility.yul\":12196:12327   */\n      tag_346\n        /* \"#utility.yul\":12322:12326   */\n      dup2\n        /* \"#utility.yul\":12196:12327   */\n      tag_217\n      jump\t// in\n    tag_346:\n        /* \"#utility.yul\":12188:12327   */\n      swap1\n      pop\n        /* \"#utility.yul\":11915:12334   */\n      swap2\n      swap1\n      pop\n      jump\t// out\n        /* \"#utility.yul\":12340:12782   */\n    tag_118:\n        /* \"#utility.yul\":12489:12493   */\n      0x00\n        /* \"#utility.yul\":12527:12529   */\n      0x60\n        /* \"#utility.yul\":12516:12525   */\n      dup3\n        /* \"#utility.yul\":12512:12530   */\n      add\n        /* \"#utility.yul\":12504:12530   */\n      swap1\n      pop\n        /* \"#utility.yul\":12540:12611   */\n      tag_348\n        /* \"#utility.yul\":12608:12609   */\n      0x00\n        /* \"#utility.yul\":12597:12606   */\n      dup4\n        /* \"#utility.yul\":12593:12610   */\n      add\n        /* \"#utility.yul\":12584:12590   */\n      dup7\n        /* \"#utility.yul\":12540:12611   */\n      tag_194\n      jump\t// in\n    tag_348:\n        /* \"#utility.yul\":12621:12693   */\n      tag_349\n        /* \"#utility.yul\":12689:12691   */\n      0x20\n        /* \"#utility.yul\":12678:12687   */\n      dup4\n        /* \"#utility.yul\":12674:12692   */\n      add\n        /* \"#utility.yul\":12665:12671   */\n      dup6\n        /* \"#utility.yul\":12621:12693   */\n      tag_194\n      jump\t// in\n    tag_349:\n        /* \"#utility.yul\":12703:12775   */\n      tag_350\n        /* \"#utility.yul\":12771:12773   */\n      0x40\n        /* \"#utility.yul\":12760:12769   */\n      dup4\n        /* \"#utility.yul\":12756:12774   */\n      add\n        /* \"#utility.yul\":12747:12753   */\n      dup5\n        /* \"#utility.yul\":12703:12775   */\n      tag_193\n      jump\t// in\n    tag_350:\n        /* \"#utility.yul\":12340:12782   */\n      swap5\n      swap4\n      pop\n      pop\n      pop\n      pop\n      jump\t// out\n        /* \"#utility.yul\":12788:12979   */\n    tag_125:\n        /* \"#utility.yul\":12828:12831   */\n      0x00\n        /* \"#utility.yul\":12847:12867   */\n      tag_352\n        /* \"#utility.yul\":12865:12866   */\n      dup3\n        /* \"#utility.yul\":12847:12867   */\n      tag_186\n      jump\t// in\n    tag_352:\n        /* \"#utility.yul\":12842:12867   */\n      swap2\n      pop\n        /* \"#utility.yul\":12881:12901   */\n      tag_353\n        /* \"#utility.yul\":12899:12900   */\n      dup4\n        /* \"#utility.yul\":12881:12901   */\n      tag_186\n      jump\t// in\n    tag_353:\n        /* \"#utility.yul\":12876:12901   */\n      swap3\n      pop\n        /* \"#utility.yul\":12924:12925   */\n      dup3\n        /* \"#utility.yul\":12921:12922   */\n      dup3\n        /* \"#utility.yul\":12917:12926   */\n      add\n        /* \"#utility.yul\":12910:12926   */\n      swap1\n      pop\n        /* \"#utility.yul\":12945:12948   */\n      dup1\n        /* \"#utility.yul\":12942:12943   */\n      dup3\n        /* \"#utility.yul\":12939:12949   */\n      gt\n        /* \"#utility.yul\":12936:12972   */\n      iszero\n      tag_354\n      jumpi\n        /* \"#utility.yul\":12952:12970   */\n      tag_355\n      tag_209\n      jump\t// in\n    tag_355:\n        /* \"#utility.yul\":12936:12972   */\n    tag_354:\n        /* \"#utility.yul\":12788:12979   */\n      swap3\n      swap2\n      pop\n      pop\n      jump\t// out\n        /* \"#utility.yul\":12985:13163   */\n    tag_218:\n        /* \"#utility.yul\":13125:13155   */\n      0x536c6173682065786365656473207374616b65642062616c616e636500000000\n        /* \"#utility.yul\":13121:13122   */\n      0x00\n        /* \"#utility.yul\":13113:13119   */\n      dup3\n        /* \"#utility.yul\":13109:13123   */\n      add\n        /* \"#utility.yul\":13102:13156   */\n      mstore\n        /* \"#utility.yul\":12985:13163   */\n      pop\n      jump\t// out\n        /* \"#utility.yul\":13169:13535   */\n    tag_219:\n        /* \"#utility.yul\":13311:13314   */\n      0x00\n        /* \"#utility.yul\":13332:13399   */\n      tag_358\n        /* \"#utility.yul\":13396:13398   */\n      0x1c\n        /* \"#utility.yul\":13391:13394   */\n      dup4\n        /* \"#utility.yul\":13332:13399   */\n      tag_202\n      jump\t// in\n    tag_358:\n        /* \"#utility.yul\":13325:13399   */\n      swap2\n      pop\n        /* \"#utility.yul\":13408:13501   */\n      tag_359\n        /* \"#utility.yul\":13497:13500   */\n      dup3\n        /* \"#utility.yul\":13408:13501   */\n      tag_218\n      jump\t// in\n    tag_359:\n        /* \"#utility.yul\":13526:13528   */\n      0x20\n        /* \"#utility.yul\":13521:13524   */\n      dup3\n        /* \"#utility.yul\":13517:13529   */\n      add\n        /* \"#utility.yul\":13510:13529   */\n      swap1\n      pop\n        /* \"#utility.yul\":13169:13535   */\n      swap2\n      swap1\n      pop\n      jump\t// out\n        /* \"#utility.yul\":13541:13960   */\n    tag_139:\n        /* \"#utility.yul\":13707:13711   */\n      0x00\n        /* \"#utility.yul\":13745:13747   */\n      0x20\n        /* \"#utility.yul\":13734:13743   */\n      dup3\n        /* \"#utility.yul\":13730:13748   */\n      add\n        /* \"#utility.yul\":13722:13748   */\n      swap1\n      pop\n        /* \"#utility.yul\":13794:13803   */\n      dup2\n        /* \"#utility.yul\":13788:13792   */\n      dup2\n        /* \"#utility.yul\":13784:13804   */\n      sub\n        /* \"#utility.yul\":13780:13781   */\n      0x00\n        /* \"#utility.yul\":13769:13778   */\n      dup4\n        /* \"#utility.yul\":13765:13782   */\n      add\n        /* \"#utility.yul\":13758:13805   */\n      mstore\n        /* \"#utility.yul\":13822:13953   */\n      tag_361\n        /* \"#utility.yul\":13948:13952   */\n      dup2\n        /* \"#utility.yul\":13822:13953   */\n      tag_219\n      jump\t// in\n    tag_361:\n        /* \"#utility.yul\":13814:13953   */\n      swap1\n      pop\n        /* \"#utility.yul\":13541:13960   */\n      swap2\n      swap1\n      pop\n      jump\t// out\n        /* \"#utility.yul\":13966:14139   */\n    tag_220:\n        /* \"#utility.yul\":14106:14131   */\n      0x496e76616c696420736c61736820726563697069656e74000000000000000000\n        /* \"#utility.yul\":14102:14103   */\n      0x00\n        /* \"#utility.yul\":14094:14100   */\n      dup3\n        /* \"#utility.yul\":14090:14104   */\n      add\n        /* \"#utility.yul\":14083:14132   */\n      mstore\n        /* \"#utility.yul\":13966:14139   */\n      pop\n      jump\t// out\n        /* \"#utility.yul\":14145:14511   */\n    tag_221:\n        /* \"#utility.yul\":14287:14290   */\n      0x00\n        /* \"#utility.yul\":14308:14375   */\n      tag_364\n        /* \"#utility.yul\":14372:14374   */\n      0x17\n        /* \"#utility.yul\":14367:14370   */\n      dup4\n        /* \"#utility.yul\":14308:14375   */\n      tag_202\n      jump\t// in\n    tag_364:\n        /* \"#utility.yul\":14301:14375   */\n      swap2\n      pop\n        /* \"#utility.yul\":14384:14477   */\n      tag_365\n        /* \"#utility.yul\":14473:14476   */\n      dup3\n        /* \"#utility.yul\":14384:14477   */\n      tag_220\n      jump\t// in\n    tag_365:\n        /* \"#utility.yul\":14502:14504   */\n      0x20\n        /* \"#utility.yul\":14497:14500   */\n      dup3\n        /* \"#utility.yul\":14493:14505   */\n      add\n        /* \"#utility.yul\":14486:14505   */\n      swap1\n      pop\n        /* \"#utility.yul\":14145:14511   */\n      swap2\n      swap1\n      pop\n      jump\t// out\n        /* \"#utility.yul\":14517:14936   */\n    tag_142:\n        /* \"#utility.yul\":14683:14687   */\n      0x00\n        /* \"#utility.yul\":14721:14723   */\n      0x20\n        /* \"#utility.yul\":14710:14719   */\n      dup3\n        /* \"#utility.yul\":14706:14724   */\n      add\n        /* \"#utility.yul\":14698:14724   */\n      swap1\n      pop\n        /* \"#utility.yul\":14770:14779   */\n      dup2\n        /* \"#utility.yul\":14764:14768   */\n      dup2\n        /* \"#utility.yul\":14760:14780   */\n      sub\n        /* \"#utility.yul\":14756:14757   */\n      0x00\n        /* \"#utility.yul\":14745:14754   */\n      dup4\n        /* \"#utility.yul\":14741:14758   */\n      add\n        /* \"#utility.yul\":14734:14781   */\n      mstore\n        /* \"#utility.yul\":14798:14929   */\n      tag_367\n        /* \"#utility.yul\":14924:14928   */\n      dup2\n        /* \"#utility.yul\":14798:14929   */\n      tag_221\n      jump\t// in\n    tag_367:\n        /* \"#utility.yul\":14790:14929   */\n      swap1\n      pop\n        /* \"#utility.yul\":14517:14936   */\n      swap2\n      swap1\n      pop\n      jump\t// out\n        /* \"#utility.yul\":14942:15113   */\n    tag_222:\n        /* \"#utility.yul\":15082:15105   */\n      0x536c617368207472616e73666572206661696c65640000000000000000000000\n        /* \"#utility.yul\":15078:15079   */\n      0x00\n        /* \"#utility.yul\":15070:15076   */\n      dup3\n        /* \"#utility.yul\":15066:15080   */\n      add\n        /* \"#utility.yul\":15059:15106   */\n      mstore\n        /* \"#utility.yul\":14942:15113   */\n      pop\n      jump\t// out\n        /* \"#utility.yul\":15119:15485   */\n    tag_223:\n        /* \"#utility.yul\":15261:15264   */\n      0x00\n        /* \"#utility.yul\":15282:15349   */\n      tag_370\n        /* \"#utility.yul\":15346:15348   */\n      0x15\n        /* \"#utility.yul\":15341:15344   */\n      dup4\n        /* \"#utility.yul\":15282:15349   */\n      tag_202\n      jump\t// in\n    tag_370:\n        /* \"#utility.yul\":15275:15349   */\n      swap2\n      pop\n        /* \"#utility.yul\":15358:15451   */\n      tag_371\n        /* \"#utility.yul\":15447:15450   */\n      dup3\n        /* \"#utility.yul\":15358:15451   */\n      tag_222\n      jump\t// in\n    tag_371:\n        /* \"#utility.yul\":15476:15478   */\n      0x20\n        /* \"#utility.yul\":15471:15474   */\n      dup3\n        /* \"#utility.yul\":15467:15479   */\n      add\n        /* \"#utility.yul\":15460:15479   */\n      swap1\n      pop\n        /* \"#utility.yul\":15119:15485   */\n      swap2\n      swap1\n      pop\n      jump\t// out\n        /* \"#utility.yul\":15491:15910   */\n    tag_151:\n        /* \"#utility.yul\":15657:15661   */\n      0x00\n        /* \"#utility.yul\":15695:15697   */\n      0x20\n        /* \"#utility.yul\":15684:15693   */\n      dup3\n        /* \"#utility.yul\":15680:15698   */\n      add\n        /* \"#utility.yul\":15672:15698   */\n      swap1\n      pop\n        /* \"#utility.yul\":15744:15753   */\n      dup2\n        /* \"#utility.yul\":15738:15742   */\n      dup2\n        /* \"#utility.yul\":15734:15754   */\n      sub\n        /* \"#utility.yul\":15730:15731   */\n      0x00\n        /* \"#utility.yul\":15719:15728   */\n      dup4\n        /* \"#utility.yul\":15715:15732   */\n      add\n        /* \"#utility.yul\":15708:15755   */\n      mstore\n        /* \"#utility.yul\":15772:15903   */\n      tag_373\n        /* \"#utility.yul\":15898:15902   */\n      dup2\n        /* \"#utility.yul\":15772:15903   */\n      tag_223\n      jump\t// in\n    tag_373:\n        /* \"#utility.yul\":15764:15903   */\n      swap1\n      pop\n        /* \"#utility.yul\":15491:15910   */\n      swap2\n      swap1\n      pop\n      jump\t// out\n        /* \"#utility.yul\":15916:16089   */\n    tag_224:\n        /* \"#utility.yul\":16056:16081   */\n      0x496e76616c696420776174636865722061646472657373000000000000000000\n        /* \"#utility.yul\":16052:16053   */\n      0x00\n        /* \"#utility.yul\":16044:16050   */\n      dup3\n        /* \"#utility.yul\":16040:16054   */\n      add\n        /* \"#utility.yul\":16033:16082   */\n      mstore\n        /* \"#utility.yul\":15916:16089   */\n      pop\n      jump\t// out\n        /* \"#utility.yul\":16095:16461   */\n    tag_225:\n        /* \"#utility.yul\":16237:16240   */\n      0x00\n        /* \"#utility.yul\":16258:16325   */\n      tag_376\n        /* \"#utility.yul\":16322:16324   */\n      0x17\n        /* \"#utility.yul\":16317:16320   */\n      dup4\n        /* \"#utility.yul\":16258:16325   */\n      tag_202\n      jump\t// in\n    tag_376:\n        /* \"#utility.yul\":16251:16325   */\n      swap2\n      pop\n        /* \"#utility.yul\":16334:16427   */\n      tag_377\n        /* \"#utility.yul\":16423:16426   */\n      dup3\n        /* \"#utility.yul\":16334:16427   */\n      tag_224\n      jump\t// in\n    tag_377:\n        /* \"#utility.yul\":16452:16454   */\n      0x20\n        /* \"#utility.yul\":16447:16450   */\n      dup3\n        /* \"#utility.yul\":16443:16455   */\n      add\n        /* \"#utility.yul\":16436:16455   */\n      swap1\n      pop\n        /* \"#utility.yul\":16095:16461   */\n      swap2\n      swap1\n      pop\n      jump\t// out\n        /* \"#utility.yul\":16467:16886   */\n    tag_165:\n        /* \"#utility.yul\":16633:16637   */\n      0x00\n        /* \"#utility.yul\":16671:16673   */\n      0x20\n        /* \"#utility.yul\":16660:16669   */\n      dup3\n        /* \"#utility.yul\":16656:16674   */\n      add\n        /* \"#utility.yul\":16648:16674   */\n      swap1\n      pop\n        /* \"#utility.yul\":16720:16729   */\n      dup2\n        /* \"#utility.yul\":16714:16718   */\n      dup2\n        /* \"#utility.yul\":16710:16730   */\n      sub\n        /* \"#utility.yul\":16706:16707   */\n      0x00\n        /* \"#utility.yul\":16695:16704   */\n      dup4\n        /* \"#utility.yul\":16691:16708   */\n      add\n        /* \"#utility.yul\":16684:16731   */\n      mstore\n        /* \"#utility.yul\":16748:16879   */\n      tag_379\n        /* \"#utility.yul\":16874:16878   */\n      dup2\n        /* \"#utility.yul\":16748:16879   */\n      tag_225\n      jump\t// in\n    tag_379:\n        /* \"#utility.yul\":16740:16879   */\n      swap1\n      pop\n        /* \"#utility.yul\":16467:16886   */\n      swap2\n      swap1\n      pop\n      jump\t// out\n        /* \"#utility.yul\":16892:17068   */\n    tag_226:\n        /* \"#utility.yul\":17032:17060   */\n      0x5761746368657220616c72656164792072656769737465726564000000000000\n        /* \"#utility.yul\":17028:17029   */\n      0x00\n        /* \"#utility.yul\":17020:17026   */\n      dup3\n        /* \"#utility.yul\":17016:17030   */\n      add\n        /* \"#utility.yul\":17009:17061   */\n      mstore\n        /* \"#utility.yul\":16892:17068   */\n      pop\n      jump\t// out\n        /* \"#utility.yul\":17074:17440   */\n    tag_227:\n        /* \"#utility.yul\":17216:17219   */\n      0x00\n        /* \"#utility.yul\":17237:17304   */\n      tag_382\n        /* \"#utility.yul\":17301:17303   */\n      0x1a\n        /* \"#utility.yul\":17296:17299   */\n      dup4\n        /* \"#utility.yul\":17237:17304   */\n      tag_202\n      jump\t// in\n    tag_382:\n        /* \"#utility.yul\":17230:17304   */\n      swap2\n      pop\n        /* \"#utility.yul\":17313:17406   */\n      tag_383\n        /* \"#utility.yul\":17402:17405   */\n      dup3\n        /* \"#utility.yul\":17313:17406   */\n      tag_226\n      jump\t// in\n    tag_383:\n        /* \"#utility.yul\":17431:17433   */\n      0x20\n        /* \"#utility.yul\":17426:17429   */\n      dup3\n        /* \"#utility.yul\":17422:17434   */\n      add\n        /* \"#utility.yul\":17415:17434   */\n      swap1\n      pop\n        /* \"#utility.yul\":17074:17440   */\n      swap2\n      swap1\n      pop\n      jump\t// out\n        /* \"#utility.yul\":17446:17865   */\n    tag_168:\n        /* \"#utility.yul\":17612:17616   */\n      0x00\n        /* \"#utility.yul\":17650:17652   */\n      0x20\n        /* \"#utility.yul\":17639:17648   */\n      dup3\n        /* \"#utility.yul\":17635:17653   */\n      add\n        /* \"#utility.yul\":17627:17653   */\n      swap1\n      pop\n        /* \"#utility.yul\":17699:17708   */\n      dup2\n        /* \"#utility.yul\":17693:17697   */\n      dup2\n        /* \"#utility.yul\":17689:17709   */\n      sub\n        /* \"#utility.yul\":17685:17686   */\n      0x00\n        /* \"#utility.yul\":17674:17683   */\n      dup4\n        /* \"#utility.yul\":17670:17687   */\n      add\n        /* \"#utility.yul\":17663:17710   */\n      mstore\n        /* \"#utility.yul\":17727:17858   */\n      tag_385\n        /* \"#utility.yul\":17853:17857   */\n      dup2\n        /* \"#utility.yul\":17727:17858   */\n      tag_227\n      jump\t// in\n    tag_385:\n        /* \"#utility.yul\":17719:17858   */\n      swap1\n      pop\n        /* \"#utility.yul\":17446:17865   */\n      swap2\n      swap1\n      pop\n      jump\t// out\n        /* \"#utility.yul\":17871:18052   */\n    tag_228:\n        /* \"#utility.yul\":18011:18044   */\n      0x5265656e7472616e637947756172643a207265656e7472616e742063616c6c00\n        /* \"#utility.yul\":18007:18008   */\n      0x00\n        /* \"#utility.yul\":17999:18005   */\n      dup3\n        /* \"#utility.yul\":17995:18009   */\n      add\n        /* \"#utility.yul\":17988:18045   */\n      mstore\n        /* \"#utility.yul\":17871:18052   */\n      pop\n      jump\t// out\n        /* \"#utility.yul\":18058:18424   */\n    tag_229:\n        /* \"#utility.yul\":18200:18203   */\n      0x00\n        /* \"#utility.yul\":18221:18288   */\n      tag_388\n        /* \"#utility.yul\":18285:18287   */\n      0x1f\n        /* \"#utility.yul\":18280:18283   */\n      dup4\n        /* \"#utility.yul\":18221:18288   */\n      tag_202\n      jump\t// in\n    tag_388:\n        /* \"#utility.yul\":18214:18288   */\n      swap2\n      pop\n        /* \"#utility.yul\":18297:18390   */\n      tag_389\n        /* \"#utility.yul\":18386:18389   */\n      dup3\n        /* \"#utility.yul\":18297:18390   */\n      tag_228\n      jump\t// in\n    tag_389:\n        /* \"#utility.yul\":18415:18417   */\n      0x20\n        /* \"#utility.yul\":18410:18413   */\n      dup3\n        /* \"#utility.yul\":18406:18418   */\n      add\n        /* \"#utility.yul\":18399:18418   */\n      swap1\n      pop\n        /* \"#utility.yul\":18058:18424   */\n      swap2\n      swap1\n      pop\n      jump\t// out\n        /* \"#utility.yul\":18430:18849   */\n    tag_172:\n        /* \"#utility.yul\":18596:18600   */\n      0x00\n        /* \"#utility.yul\":18634:18636   */\n      0x20\n        /* \"#utility.yul\":18623:18632   */\n      dup3\n        /* \"#utility.yul\":18619:18637   */\n      add\n        /* \"#utility.yul\":18611:18637   */\n      swap1\n      pop\n        /* \"#utility.yul\":18683:18692   */\n      dup2\n        /* \"#utility.yul\":18677:18681   */\n      dup2\n        /* \"#utility.yul\":18673:18693   */\n      sub\n        /* \"#utility.yul\":18669:18670   */\n      0x00\n        /* \"#utility.yul\":18658:18667   */\n      dup4\n        /* \"#utility.yul\":18654:18671   */\n      add\n        /* \"#utility.yul\":18647:18694   */\n      mstore\n        /* \"#utility.yul\":18711:18842   */\n      tag_391\n        /* \"#utility.yul\":18837:18841   */\n      dup2\n        /* \"#utility.yul\":18711:18842   */\n      tag_229\n      jump\t// in\n    tag_391:\n        /* \"#utility.yul\":18703:18842   */\n      swap1\n      pop\n        /* \"#utility.yul\":18430:18849   */\n      swap2\n      swap1\n      pop\n      jump\t// out\n\n    auxdata: 0xa2646970667358221220ecdeb7ba3142032164905806ee4530b7756ca245a0b39f8c060d9714ec24e0cc64736f6c634300081d0033\n}\n",
				"bytecode": {
					"linkReferences": {},
					"object": "608060405234801561000f575f5ffd5b50604051611c5c380380611c5c8339818101604052810190610031919061028c565b335f73ffffffffffffffffffffffffffffffffffffffff168173ffffffffffffffffffffffffffffffffffffffff16036100a2575f6040517f1e4fbdf700000000000000000000000000000000000000000000000000000000815260040161009991906102c6565b60405180910390fd5b6100b18161016d60201b60201c565b50600180819055505f73ffffffffffffffffffffffffffffffffffffffff168173ffffffffffffffffffffffffffffffffffffffff1603610127576040517f08c379a000000000000000000000000000000000000000000000000000000000815260040161011e90610339565b60405180910390fd5b8060025f6101000a81548173ffffffffffffffffffffffffffffffffffffffff021916908373ffffffffffffffffffffffffffffffffffffffff16021790555050610357565b5f5f5f9054906101000a900473ffffffffffffffffffffffffffffffffffffffff169050815f5f6101000a81548173ffffffffffffffffffffffffffffffffffffffff021916908373ffffffffffffffffffffffffffffffffffffffff1602179055508173ffffffffffffffffffffffffffffffffffffffff168173ffffffffffffffffffffffffffffffffffffffff167f8be0079c531659141344cd1fd0a4f28419497f9722a3daafe3b4186f6b6457e060405160405180910390a35050565b5f5ffd5b5f73ffffffffffffffffffffffffffffffffffffffff82169050919050565b5f61025b82610232565b9050919050565b61026b81610251565b8114610275575f5ffd5b50565b5f8151905061028681610262565b92915050565b5f602082840312156102a1576102a061022e565b5b5f6102ae84828501610278565b91505092915050565b6102c081610251565b82525050565b5f6020820190506102d95f8301846102b7565b92915050565b5f82825260208201905092915050565b7f496e76616c696420746f6b656e206164647265737300000000000000000000005f82015250565b5f6103236015836102df565b915061032e826102ef565b602082019050919050565b5f6020820190508181035f83015261035081610317565b9050919050565b6118f8806103645f395ff3fe608060405234801561000f575f5ffd5b50600436106100cd575f3560e01c8063817b1cd21161008a578063aa65f70611610064578063aa65f706146101eb578063bfac59901461021b578063f2fde38b14610237578063f854fbd214610253576100cd565b8063817b1cd2146101935780638da5cb5b146101b1578063a694fc3a146101cf576100cd565b80632e17de78146100d15780633a02a42d146100ed5780633b27c0121461011d578063596150d714610139578063715018a61461016b57806372f702f314610175575b5f5ffd5b6100eb60048036038101906100e69190611062565b61026f565b005b610107600480360381019061010291906110e7565b6104fc565b6040516101149190611121565b60405180910390f35b610137600480360381019061013291906110e7565b610545565b005b610153600480360381019061014e91906110e7565b61063f565b60405161016293929190611163565b60405180910390f35b610173610690565b005b61017d6106a3565b60405161018a91906111f3565b60405180910390f35b61019b6106c8565b6040516101a89190611121565b60405180910390f35b6101b96106ce565b6040516101c6919061120c565b60405180910390f35b6101e960048036038101906101e49190611062565b6106f5565b005b610205600480360381019061020091906110e7565b61093d565b6040516102129190611225565b60405180910390f35b6102356004803603810190610230919061123e565b610992565b005b610251600480360381019061024c91906110e7565b610c55565b005b61026d600480360381019061026891906110e7565b610cd9565b005b610277610e84565b5f81116102b9576040517f08c379a00000000000000000000000000000000000000000000000000000000081526004016102b0906112e8565b60405180910390fd5b5f60035f3373ffffffffffffffffffffffffffffffffffffffff1673ffffffffffffffffffffffffffffffffffffffff1681526020019081526020015f209050806002015f9054906101000a900460ff16610349576040517f08c379a000000000000000000000000000000000000000000000000000000000815260040161034090611350565b60405180910390fd5b8181600101541015610390576040517f08c379a0000000000000000000000000000000000000000000000000000000008152600401610387906113b8565b60405180910390fd5b81816001015f8282546103a39190611403565b925050819055508160045f8282546103bb9190611403565b925050819055505f60025f9054906101000a900473ffffffffffffffffffffffffffffffffffffffff1673ffffffffffffffffffffffffffffffffffffffff1663a9059cbb33856040518363ffffffff1660e01b815260040161041f929190611436565b6020604051808303815f875af115801561043b573d5f5f3e3d5ffd5b505050506040513d601f19601f8201168201806040525081019061045f9190611487565b9050806104a1576040517f08c379a0000000000000000000000000000000000000000000000000000000008152600401610498906114fc565b60405180910390fd5b3373ffffffffffffffffffffffffffffffffffffffff167f0f5bb82176feb1b5e747e28471aa92156a04d9f3ab9f45f28e2d704232b93f75846040516104e79190611121565b60405180910390a250506104f9610ed3565b50565b5f60035f8373ffffffffffffffffffffffffffffffffffffffff1673ffffffffffffffffffffffffffffffffffffffff1681526020019081526020015f20600101549050919050565b61054d610edc565b5f60035f8373ffffffffffffffffffffffffffffffffffffffff1673ffffffffffffffffffffffffffffffffffffffff1681526020019081526020015f209050806002015f9054906101000a900460ff166105dd576040517f08c379a00000000000000000000000000000000000000000000000000000000081526004016105d490611564565b60405180910390fd5b5f816002015f6101000a81548160ff0219169083151502179055508173ffffffffffffffffffffffffffffffffffffffff167f22de3c485cc8e59969cde8a1634777844364479dd9da4b31f3174273488cd17c60405160405180910390a25050565b6003602052805f5260405f205f91509050805f015f9054906101000a900473ffffffffffffffffffffffffffffffffffffffff1690806001015490806002015f9054906101000a900460ff16905083565b610698610edc565b6106a15f610f63565b565b60025f9054906101000a900473ffffffffffffffffffffffffffffffffffffffff1681565b60045481565b5f5f5f9054906101000a900473ffffffffffffffffffffffffffffffffffffffff16905090565b6106fd610e84565b5f811161073f576040517f08c379a0000000000000000000000000000000000000000000000000000000008152600401610736906115cc565b60405180910390fd5b5f60035f3373ffffffffffffffffffffffffffffffffffffffff1673ffffffffffffffffffffffffffffffffffffffff1681526020019081526020015f209050806002015f9054906101000a900460ff166107cf576040517f08c379a00000000000000000000000000000000000000000000000000000000081526004016107c690611350565b60405180910390fd5b5f60025f9054906101000a900473ffffffffffffffffffffffffffffffffffffffff1673ffffffffffffffffffffffffffffffffffffffff166323b872dd3330866040518463ffffffff1660e01b815260040161082e939291906115ea565b6020604051808303815f875af115801561084a573d5f5f3e3d5ffd5b505050506040513d601f19601f8201168201806040525081019061086e9190611487565b9050806108b0576040517f08c379a00000000000000000000000000000000000000000000000000000000081526004016108a7906114fc565b60405180910390fd5b82826001015f8282546108c3919061161f565b925050819055508260045f8282546108db919061161f565b925050819055503373ffffffffffffffffffffffffffffffffffffffff167f9e71bc8eea02a63969f509818f2dafb9254532904319f9dbda79b67bd34a5f3d846040516109289190611121565b60405180910390a2505061093a610ed3565b50565b5f60035f8373ffffffffffffffffffffffffffffffffffffffff1673ffffffffffffffffffffffffffffffffffffffff1681526020019081526020015f206002015f9054906101000a900460ff169050919050565b61099a610edc565b6109a2610e84565b5f60035f8573ffffffffffffffffffffffffffffffffffffffff1673ffffffffffffffffffffffffffffffffffffffff1681526020019081526020015f209050806002015f9054906101000a900460ff16610a32576040517f08c379a0000000000000000000000000000000000000000000000000000000008152600401610a2990611350565b60405180910390fd5b8281600101541015610a79576040517f08c379a0000000000000000000000000000000000000000000000000000000008152600401610a709061169c565b60405180910390fd5b5f73ffffffffffffffffffffffffffffffffffffffff168273ffffffffffffffffffffffffffffffffffffffff1603610ae7576040517f08c379a0000000000000000000000000000000000000000000000000000000008152600401610ade90611704565b60405180910390fd5b82816001015f828254610afa9190611403565b925050819055508260045f828254610b129190611403565b925050819055505f60025f9054906101000a900473ffffffffffffffffffffffffffffffffffffffff1673ffffffffffffffffffffffffffffffffffffffff1663a9059cbb84866040518363ffffffff1660e01b8152600401610b76929190611436565b6020604051808303815f875af1158015610b92573d5f5f3e3d5ffd5b505050506040513d601f19601f82011682018060405250810190610bb69190611487565b905080610bf8576040517f08c379a0000000000000000000000000000000000000000000000000000000008152600401610bef9061176c565b60405180910390fd5b8473ffffffffffffffffffffffffffffffffffffffff167f4ed05e9673c26d2ed44f7ef6a7f2942df0ee3b5e1e17db4b99f9dcd261a339cd85604051610c3e9190611121565b60405180910390a25050610c50610ed3565b505050565b610c5d610edc565b5f73ffffffffffffffffffffffffffffffffffffffff168173ffffffffffffffffffffffffffffffffffffffff1603610ccd575f6040517f1e4fbdf7000000000000000000000000000000000000000000000000000000008152600401610cc4919061120c565b60405180910390fd5b610cd681610f63565b50565b610ce1610edc565b5f73ffffffffffffffffffffffffffffffffffffffff168173ffffffffffffffffffffffffffffffffffffffff1603610d4f576040517f08c379a0000000000000000000000000000000000000000000000000000000008152600401610d46906117d4565b60405180910390fd5b5f60035f8373ffffffffffffffffffffffffffffffffffffffff1673ffffffffffffffffffffffffffffffffffffffff1681526020019081526020015f209050806002015f9054906101000a900460ff1615610de0576040517f08c379a0000000000000000000000000000000000000000000000000000000008152600401610dd79061183c565b60405180910390fd5b81815f015f6101000a81548173ffffffffffffffffffffffffffffffffffffffff021916908373ffffffffffffffffffffffffffffffffffffffff1602179055506001816002015f6101000a81548160ff0219169083151502179055508173ffffffffffffffffffffffffffffffffffffffff167f8ceee2bb9ffa614e8f92ce61ff7ab1658eb8c19eaa983439dae3ced63e1a3d6960405160405180910390a25050565b600260015403610ec9576040517f08c379a0000000000000000000000000000000000000000000000000000000008152600401610ec0906118a4565b60405180910390fd5b6002600181905550565b60018081905550565b610ee4611024565b73ffffffffffffffffffffffffffffffffffffffff16610f026106ce565b73ffffffffffffffffffffffffffffffffffffffff1614610f6157610f25611024565b6040517f118cdaa7000000000000000000000000000000000000000000000000000000008152600401610f58919061120c565b60405180910390fd5b565b5f5f5f9054906101000a900473ffffffffffffffffffffffffffffffffffffffff169050815f5f6101000a81548173ffffffffffffffffffffffffffffffffffffffff021916908373ffffffffffffffffffffffffffffffffffffffff1602179055508173ffffffffffffffffffffffffffffffffffffffff168173ffffffffffffffffffffffffffffffffffffffff167f8be0079c531659141344cd1fd0a4f28419497f9722a3daafe3b4186f6b6457e060405160405180910390a35050565b5f33905090565b5f5ffd5b5f819050919050565b6110418161102f565b811461104b575f5ffd5b50565b5f8135905061105c81611038565b92915050565b5f602082840312156110775761107661102b565b5b5f6110848482850161104e565b91505092915050565b5f73ffffffffffffffffffffffffffffffffffffffff82169050919050565b5f6110b68261108d565b9050919050565b6110c6816110ac565b81146110d0575f5ffd5b50565b5f813590506110e1816110bd565b92915050565b5f602082840312156110fc576110fb61102b565b5b5f611109848285016110d3565b91505092915050565b61111b8161102f565b82525050565b5f6020820190506111345f830184611112565b92915050565b611143816110ac565b82525050565b5f8115159050919050565b61115d81611149565b82525050565b5f6060820190506111765f83018661113a565b6111836020830185611112565b6111906040830184611154565b949350505050565b5f819050919050565b5f6111bb6111b66111b18461108d565b611198565b61108d565b9050919050565b5f6111cc826111a1565b9050919050565b5f6111dd826111c2565b9050919050565b6111ed816111d3565b82525050565b5f6020820190506112065f8301846111e4565b92915050565b5f60208201905061121f5f83018461113a565b92915050565b5f6020820190506112385f830184611154565b92915050565b5f5f5f606084860312156112555761125461102b565b5b5f611262868287016110d3565b93505060206112738682870161104e565b9250506040611284868287016110d3565b9150509250925092565b5f82825260208201905092915050565b7f556e7374616b6520616d6f756e74206d757374206265203e20300000000000005f82015250565b5f6112d2601a8361128e565b91506112dd8261129e565b602082019050919050565b5f6020820190508181035f8301526112ff816112c6565b9050919050565b7f4e6f7420616e20616374697665207761746368657200000000000000000000005f82015250565b5f61133a60158361128e565b915061134582611306565b602082019050919050565b5f6020820190508181035f8301526113678161132e565b9050919050565b7f496e73756666696369656e74207374616b65642062616c616e636500000000005f82015250565b5f6113a2601b8361128e565b91506113ad8261136e565b602082019050919050565b5f6020820190508181035f8301526113cf81611396565b9050919050565b7f4e487b71000000000000000000000000000000000000000000000000000000005f52601160045260245ffd5b5f61140d8261102f565b91506114188361102f565b92508282039050818111156114305761142f6113d6565b5b92915050565b5f6040820190506114495f83018561113a565b6114566020830184611112565b9392505050565b61146681611149565b8114611470575f5ffd5b50565b5f815190506114818161145d565b92915050565b5f6020828403121561149c5761149b61102b565b5b5f6114a984828501611473565b91505092915050565b7f5472616e73666572206661696c656400000000000000000000000000000000005f82015250565b5f6114e6600f8361128e565b91506114f1826114b2565b602082019050919050565b5f6020820190508181035f830152611513816114da565b9050919050565b7f57617463686572206e6f742072656769737465726564000000000000000000005f82015250565b5f61154e60168361128e565b91506115598261151a565b602082019050919050565b5f6020820190508181035f83015261157b81611542565b9050919050565b7f5374616b6520616d6f756e74206d757374206265203e203000000000000000005f82015250565b5f6115b660188361128e565b91506115c182611582565b602082019050919050565b5f6020820190508181035f8301526115e3816115aa565b9050919050565b5f6060820190506115fd5f83018661113a565b61160a602083018561113a565b6116176040830184611112565b949350505050565b5f6116298261102f565b91506116348361102f565b925082820190508082111561164c5761164b6113d6565b5b92915050565b7f536c6173682065786365656473207374616b65642062616c616e6365000000005f82015250565b5f611686601c8361128e565b915061169182611652565b602082019050919050565b5f6020820190508181035f8301526116b38161167a565b9050919050565b7f496e76616c696420736c61736820726563697069656e740000000000000000005f82015250565b5f6116ee60178361128e565b91506116f9826116ba565b602082019050919050565b5f6020820190508181035f83015261171b816116e2565b9050919050565b7f536c617368207472616e73666572206661696c656400000000000000000000005f82015250565b5f61175660158361128e565b915061176182611722565b602082019050919050565b5f6020820190508181035f8301526117838161174a565b9050919050565b7f496e76616c6964207761746368657220616464726573730000000000000000005f82015250565b5f6117be60178361128e565b91506117c98261178a565b602082019050919050565b5f6020820190508181035f8301526117eb816117b2565b9050919050565b7f5761746368657220616c726561647920726567697374657265640000000000005f82015250565b5f611826601a8361128e565b9150611831826117f2565b602082019050919050565b5f6020820190508181035f8301526118538161181a565b9050919050565b7f5265656e7472616e637947756172643a207265656e7472616e742063616c6c005f82015250565b5f61188e601f8361128e565b91506118998261185a565b602082019050919050565b5f6020820190508181035f8301526118bb81611882565b905091905056fea2646970667358221220ecdeb7ba3142032164905806ee4530b7756ca245a0b39f8c060d9714ec24e0cc64736f6c634300081d0033",
					"opcodes": "PUSH1 0x80 PUSH1 0x40 MSTORE CALLVALUE DUP1 ISZERO PUSH2 0xF JUMPI PUSH0 PUSH0 REVERT JUMPDEST POP PUSH1 0x40 MLOAD PUSH2 0x1C5C CODESIZE SUB DUP1 PUSH2 0x1C5C DUP4 CODECOPY DUP2 DUP2 ADD PUSH1 0x40 MSTORE DUP2 ADD SWAP1 PUSH2 0x31 SWAP2 SWAP1 PUSH2 0x28C JUMP JUMPDEST CALLER PUSH0 PUSH20 0xFFFFFFFFFFFFFFFFFFFFFFFFFFFFFFFFFFFFFFFF AND DUP2 PUSH20 0xFFFFFFFFFFFFFFFFFFFFFFFFFFFFFFFFFFFFFFFF AND SUB PUSH2 0xA2 JUMPI PUSH0 PUSH1 0x40 MLOAD PUSH32 0x1E4FBDF700000000000000000000000000000000000000000000000000000000 DUP2 MSTORE PUSH1 0x4 ADD PUSH2 0x99 SWAP2 SWAP1 PUSH2 0x2C6 JUMP JUMPDEST PUSH1 0x40 MLOAD DUP1 SWAP2 SUB SWAP1 REVERT JUMPDEST PUSH2 0xB1 DUP2 PUSH2 0x16D PUSH1 0x20 SHL PUSH1 0x20 SHR JUMP JUMPDEST POP PUSH1 0x1 DUP1 DUP2 SWAP1 SSTORE POP PUSH0 PUSH20 0xFFFFFFFFFFFFFFFFFFFFFFFFFFFFFFFFFFFFFFFF AND DUP2 PUSH20 0xFFFFFFFFFFFFFFFFFFFFFFFFFFFFFFFFFFFFFFFF AND SUB PUSH2 0x127 JUMPI PUSH1 0x40 MLOAD PUSH32 0x8C379A000000000000000000000000000000000000000000000000000000000 DUP2 MSTORE PUSH1 0x4 ADD PUSH2 0x11E SWAP1 PUSH2 0x339 JUMP JUMPDEST PUSH1 0x40 MLOAD DUP1 SWAP2 SUB SWAP1 REVERT JUMPDEST DUP1 PUSH1 0x2 PUSH0 PUSH2 0x100 EXP DUP2 SLOAD DUP2 PUSH20 0xFFFFFFFFFFFFFFFFFFFFFFFFFFFFFFFFFFFFFFFF MUL NOT AND SWAP1 DUP4 PUSH20 0xFFFFFFFFFFFFFFFFFFFFFFFFFFFFFFFFFFFFFFFF AND MUL OR SWAP1 SSTORE POP POP PUSH2 0x357 JUMP JUMPDEST PUSH0 PUSH0 PUSH0 SWAP1 SLOAD SWAP1 PUSH2 0x100 EXP SWAP1 DIV PUSH20 0xFFFFFFFFFFFFFFFFFFFFFFFFFFFFFFFFFFFFFFFF AND SWAP1 POP DUP2 PUSH0 PUSH0 PUSH2 0x100 EXP DUP2 SLOAD DUP2 PUSH20 0xFFFFFFFFFFFFFFFFFFFFFFFFFFFFFFFFFFFFFFFF MUL NOT AND SWAP1 DUP4 PUSH20 0xFFFFFFFFFFFFFFFFFFFFFFFFFFFFFFFFFFFFFFFF AND MUL OR SWAP1 SSTORE POP DUP2 PUSH20 0xFFFFFFFFFFFFFFFFFFFFFFFFFFFFFFFFFFFFFFFF AND DUP2 PUSH20 0xFFFFFFFFFFFFFFFFFFFFFFFFFFFFFFFFFFFFFFFF AND PUSH32 0x8BE0079C531659141344CD1FD0A4F28419497F9722A3DAAFE3B4186F6B6457E0 PUSH1 0x40 MLOAD PUSH1 0x40 MLOAD DUP1 SWAP2 SUB SWAP1 LOG3 POP POP JUMP JUMPDEST PUSH0 PUSH0 REVERT JUMPDEST PUSH0 PUSH20 0xFFFFFFFFFFFFFFFFFFFFFFFFFFFFFFFFFFFFFFFF DUP3 AND SWAP1 POP SWAP2 SWAP1 POP JUMP JUMPDEST PUSH0 PUSH2 0x25B DUP3 PUSH2 0x232 JUMP JUMPDEST SWAP1 POP SWAP2 SWAP1 POP JUMP JUMPDEST PUSH2 0x26B DUP2 PUSH2 0x251 JUMP JUMPDEST DUP2 EQ PUSH2 0x275 JUMPI PUSH0 PUSH0 REVERT JUMPDEST POP JUMP JUMPDEST PUSH0 DUP2 MLOAD SWAP1 POP PUSH2 0x286 DUP2 PUSH2 0x262 JUMP JUMPDEST SWAP3 SWAP2 POP POP JUMP JUMPDEST PUSH0 PUSH1 0x20 DUP3 DUP5 SUB SLT ISZERO PUSH2 0x2A1 JUMPI PUSH2 0x2A0 PUSH2 0x22E JUMP JUMPDEST JUMPDEST PUSH0 PUSH2 0x2AE DUP5 DUP3 DUP6 ADD PUSH2 0x278 JUMP JUMPDEST SWAP2 POP POP SWAP3 SWAP2 POP POP JUMP JUMPDEST PUSH2 0x2C0 DUP2 PUSH2 0x251 JUMP JUMPDEST DUP3 MSTORE POP POP JUMP JUMPDEST PUSH0 PUSH1 0x20 DUP3 ADD SWAP1 POP PUSH2 0x2D9 PUSH0 DUP4 ADD DUP5 PUSH2 0x2B7 JUMP JUMPDEST SWAP3 SWAP2 POP POP JUMP JUMPDEST PUSH0 DUP3 DUP3 MSTORE PUSH1 0x20 DUP3 ADD SWAP1 POP SWAP3 SWAP2 POP POP JUMP JUMPDEST PUSH32 0x496E76616C696420746F6B656E20616464726573730000000000000000000000 PUSH0 DUP3 ADD MSTORE POP JUMP JUMPDEST PUSH0 PUSH2 0x323 PUSH1 0x15 DUP4 PUSH2 0x2DF JUMP JUMPDEST SWAP2 POP PUSH2 0x32E DUP3 PUSH2 0x2EF JUMP JUMPDEST PUSH1 0x20 DUP3 ADD SWAP1 POP SWAP2 SWAP1 POP JUMP JUMPDEST PUSH0 PUSH1 0x20 DUP3 ADD SWAP1 POP DUP2 DUP2 SUB PUSH0 DUP4 ADD MSTORE PUSH2 0x350 DUP2 PUSH2 0x317 JUMP JUMPDEST SWAP1 POP SWAP2 SWAP1 POP JUMP JUMPDEST PUSH2 0x18F8 DUP1 PUSH2 0x364 PUSH0 CODECOPY PUSH0 RETURN INVALID PUSH1 0x80 PUSH1 0x40 MSTORE CALLVALUE DUP1 ISZERO PUSH2 0xF JUMPI PUSH0 PUSH0 REVERT JUMPDEST POP PUSH1 0x4 CALLDATASIZE LT PUSH2 0xCD JUMPI PUSH0 CALLDATALOAD PUSH1 0xE0 SHR DUP1 PUSH4 0x817B1CD2 GT PUSH2 0x8A JUMPI DUP1 PUSH4 0xAA65F706 GT PUSH2 0x64 JUMPI DUP1 PUSH4 0xAA65F706 EQ PUSH2 0x1EB JUMPI DUP1 PUSH4 0xBFAC5990 EQ PUSH2 0x21B JUMPI DUP1 PUSH4 0xF2FDE38B EQ PUSH2 0x237 JUMPI DUP1 PUSH4 0xF854FBD2 EQ PUSH2 0x253 JUMPI PUSH2 0xCD JUMP JUMPDEST DUP1 PUSH4 0x817B1CD2 EQ PUSH2 0x193 JUMPI DUP1 PUSH4 0x8DA5CB5B EQ PUSH2 0x1B1 JUMPI DUP1 PUSH4 0xA694FC3A EQ PUSH2 0x1CF JUMPI PUSH2 0xCD JUMP JUMPDEST DUP1 PUSH4 0x2E17DE78 EQ PUSH2 0xD1 JUMPI DUP1 PUSH4 0x3A02A42D EQ PUSH2 0xED JUMPI DUP1 PUSH4 0x3B27C012 EQ PUSH2 0x11D JUMPI DUP1 PUSH4 0x596150D7 EQ PUSH2 0x139 JUMPI DUP1 PUSH4 0x715018A6 EQ PUSH2 0x16B JUMPI DUP1 PUSH4 0x72F702F3 EQ PUSH2 0x175 JUMPI JUMPDEST PUSH0 PUSH0 REVERT JUMPDEST PUSH2 0xEB PUSH1 0x4 DUP1 CALLDATASIZE SUB DUP2 ADD SWAP1 PUSH2 0xE6 SWAP2 SWAP1 PUSH2 0x1062 JUMP JUMPDEST PUSH2 0x26F JUMP JUMPDEST STOP JUMPDEST PUSH2 0x107 PUSH1 0x4 DUP1 CALLDATASIZE SUB DUP2 ADD SWAP1 PUSH2 0x102 SWAP2 SWAP1 PUSH2 0x10E7 JUMP JUMPDEST PUSH2 0x4FC JUMP JUMPDEST PUSH1 0x40 MLOAD PUSH2 0x114 SWAP2 SWAP1 PUSH2 0x1121 JUMP JUMPDEST PUSH1 0x40 MLOAD DUP1 SWAP2 SUB SWAP1 RETURN JUMPDEST PUSH2 0x137 PUSH1 0x4 DUP1 CALLDATASIZE SUB DUP2 ADD SWAP1 PUSH2 0x132 SWAP2 SWAP1 PUSH2 0x10E7 JUMP JUMPDEST PUSH2 0x545 JUMP JUMPDEST STOP JUMPDEST PUSH2 0x153 PUSH1 0x4 DUP1 CALLDATASIZE SUB DUP2 ADD SWAP1 PUSH2 0x14E SWAP2 SWAP1 PUSH2 0x10E7 JUMP JUMPDEST PUSH2 0x63F JUMP JUMPDEST PUSH1 0x40 MLOAD PUSH2 0x162 SWAP4 SWAP3 SWAP2 SWAP1 PUSH2 0x1163 JUMP JUMPDEST PUSH1 0x40 MLOAD DUP1 SWAP2 SUB SWAP1 RETURN JUMPDEST PUSH2 0x173 PUSH2 0x690 JUMP JUMPDEST STOP JUMPDEST PUSH2 0x17D PUSH2 0x6A3 JUMP JUMPDEST PUSH1 0x40 MLOAD PUSH2 0x18A SWAP2 SWAP1 PUSH2 0x11F3 JUMP JUMPDEST PUSH1 0x40 MLOAD DUP1 SWAP2 SUB SWAP1 RETURN JUMPDEST PUSH2 0x19B PUSH2 0x6C8 JUMP JUMPDEST PUSH1 0x40 MLOAD PUSH2 0x1A8 SWAP2 SWAP1 PUSH2 0x1121 JUMP JUMPDEST PUSH1 0x40 MLOAD DUP1 SWAP2 SUB SWAP1 RETURN JUMPDEST PUSH2 0x1B9 PUSH2 0x6CE JUMP JUMPDEST PUSH1 0x40 MLOAD PUSH2 0x1C6 SWAP2 SWAP1 PUSH2 0x120C JUMP JUMPDEST PUSH1 0x40 MLOAD DUP1 SWAP2 SUB SWAP1 RETURN JUMPDEST PUSH2 0x1E9 PUSH1 0x4 DUP1 CALLDATASIZE SUB DUP2 ADD SWAP1 PUSH2 0x1E4 SWAP2 SWAP1 PUSH2 0x1062 JUMP JUMPDEST PUSH2 0x6F5 JUMP JUMPDEST STOP JUMPDEST PUSH2 0x205 PUSH1 0x4 DUP1 CALLDATASIZE SUB DUP2 ADD SWAP1 PUSH2 0x200 SWAP2 SWAP1 PUSH2 0x10E7 JUMP JUMPDEST PUSH2 0x93D JUMP JUMPDEST PUSH1 0x40 MLOAD PUSH2 0x212 SWAP2 SWAP1 PUSH2 0x1225 JUMP JUMPDEST PUSH1 0x40 MLOAD DUP1 SWAP2 SUB SWAP1 RETURN JUMPDEST PUSH2 0x235 PUSH1 0x4 DUP1 CALLDATASIZE SUB DUP2 ADD SWAP1 PUSH2 0x230 SWAP2 SWAP1 PUSH2 0x123E JUMP JUMPDEST PUSH2 0x992 JUMP JUMPDEST STOP JUMPDEST PUSH2 0x251 PUSH1 0x4 DUP1 CALLDATASIZE SUB DUP2 ADD SWAP1 PUSH2 0x24C SWAP2 SWAP1 PUSH2 0x10E7 JUMP JUMPDEST PUSH2 0xC55 JUMP JUMPDEST STOP JUMPDEST PUSH2 0x26D PUSH1 0x4 DUP1 CALLDATASIZE SUB DUP2 ADD SWAP1 PUSH2 0x268 SWAP2 SWAP1 PUSH2 0x10E7 JUMP JUMPDEST PUSH2 0xCD9 JUMP JUMPDEST STOP JUMPDEST PUSH2 0x277 PUSH2 0xE84 JUMP JUMPDEST PUSH0 DUP2 GT PUSH2 0x2B9 JUMPI PUSH1 0x40 MLOAD PUSH32 0x8C379A000000000000000000000000000000000000000000000000000000000 DUP2 MSTORE PUSH1 0x4 ADD PUSH2 0x2B0 SWAP1 PUSH2 0x12E8 JUMP JUMPDEST PUSH1 0x40 MLOAD DUP1 SWAP2 SUB SWAP1 REVERT JUMPDEST PUSH0 PUSH1 0x3 PUSH0 CALLER PUSH20 0xFFFFFFFFFFFFFFFFFFFFFFFFFFFFFFFFFFFFFFFF AND PUSH20 0xFFFFFFFFFFFFFFFFFFFFFFFFFFFFFFFFFFFFFFFF AND DUP2 MSTORE PUSH1 0x20 ADD SWAP1 DUP2 MSTORE PUSH1 0x20 ADD PUSH0 KECCAK256 SWAP1 POP DUP1 PUSH1 0x2 ADD PUSH0 SWAP1 SLOAD SWAP1 PUSH2 0x100 EXP SWAP1 DIV PUSH1 0xFF AND PUSH2 0x349 JUMPI PUSH1 0x40 MLOAD PUSH32 0x8C379A000000000000000000000000000000000000000000000000000000000 DUP2 MSTORE PUSH1 0x4 ADD PUSH2 0x340 SWAP1 PUSH2 0x1350 JUMP JUMPDEST PUSH1 0x40 MLOAD DUP1 SWAP2 SUB SWAP1 REVERT JUMPDEST DUP2 DUP2 PUSH1 0x1 ADD SLOAD LT ISZERO PUSH2 0x390 JUMPI PUSH1 0x40 MLOAD PUSH32 0x8C379A000000000000000000000000000000000000000000000000000000000 DUP2 MSTORE PUSH1 0x4 ADD PUSH2 0x387 SWAP1 PUSH2 0x13B8 JUMP JUMPDEST PUSH1 0x40 MLOAD DUP1 SWAP2 SUB SWAP1 REVERT JUMPDEST DUP2 DUP2 PUSH1 0x1 ADD PUSH0 DUP3 DUP3 SLOAD PUSH2 0x3A3 SWAP2 SWAP1 PUSH2 0x1403 JUMP JUMPDEST SWAP3 POP POP DUP2 SWAP1 SSTORE POP DUP2 PUSH1 0x4 PUSH0 DUP3 DUP3 SLOAD PUSH2 0x3BB SWAP2 SWAP1 PUSH2 0x1403 JUMP JUMPDEST SWAP3 POP POP DUP2 SWAP1 SSTORE POP PUSH0 PUSH1 0x2 PUSH0 SWAP1 SLOAD SWAP1 PUSH2 0x100 EXP SWAP1 DIV PUSH20 0xFFFFFFFFFFFFFFFFFFFFFFFFFFFFFFFFFFFFFFFF AND PUSH20 0xFFFFFFFFFFFFFFFFFFFFFFFFFFFFFFFFFFFFFFFF AND PUSH4 0xA9059CBB CALLER DUP6 PUSH1 0x40 MLOAD DUP4 PUSH4 0xFFFFFFFF AND PUSH1 0xE0 SHL DUP2 MSTORE PUSH1 0x4 ADD PUSH2 0x41F SWAP3 SWAP2 SWAP1 PUSH2 0x1436 JUMP JUMPDEST PUSH1 0x20 PUSH1 0x40 MLOAD DUP1 DUP4 SUB DUP2 PUSH0 DUP8 GAS CALL ISZERO DUP1 ISZERO PUSH2 0x43B JUMPI RETURNDATASIZE PUSH0 PUSH0 RETURNDATACOPY RETURNDATASIZE PUSH0 REVERT JUMPDEST POP POP POP POP PUSH1 0x40 MLOAD RETURNDATASIZE PUSH1 0x1F NOT PUSH1 0x1F DUP3 ADD AND DUP3 ADD DUP1 PUSH1 0x40 MSTORE POP DUP2 ADD SWAP1 PUSH2 0x45F SWAP2 SWAP1 PUSH2 0x1487 JUMP JUMPDEST SWAP1 POP DUP1 PUSH2 0x4A1 JUMPI PUSH1 0x40 MLOAD PUSH32 0x8C379A000000000000000000000000000000000000000000000000000000000 DUP2 MSTORE PUSH1 0x4 ADD PUSH2 0x498 SWAP1 PUSH2 0x14FC JUMP JUMPDEST PUSH1 0x40 MLOAD DUP1 SWAP2 SUB SWAP1 REVERT JUMPDEST CALLER PUSH20 0xFFFFFFFFFFFFFFFFFFFFFFFFFFFFFFFFFFFFFFFF AND PUSH32 0xF5BB82176FEB1B5E747E28471AA92156A04D9F3AB9F45F28E2D704232B93F75 DUP5 PUSH1 0x40 MLOAD PUSH2 0x4E7 SWAP2 SWAP1 PUSH2 0x1121 JUMP JUMPDEST PUSH1 0x40 MLOAD DUP1 SWAP2 SUB SWAP1 LOG2 POP POP PUSH2 0x4F9 PUSH2 0xED3 JUMP JUMPDEST POP JUMP JUMPDEST PUSH0 PUSH1 0x3 PUSH0 DUP4 PUSH20 0xFFFFFFFFFFFFFFFFFFFFFFFFFFFFFFFFFFFFFFFF AND PUSH20 0xFFFFFFFFFFFFFFFFFFFFFFFFFFFFFFFFFFFFFFFF AND DUP2 MSTORE PUSH1 0x20 ADD SWAP1 DUP2 MSTORE PUSH1 0x20 ADD PUSH0 KECCAK256 PUSH1 0x1 ADD SLOAD SWAP1 POP SWAP2 SWAP1 POP JUMP JUMPDEST PUSH2 0x54D PUSH2 0xEDC JUMP JUMPDEST PUSH0 PUSH1 0x3 PUSH0 DUP4 PUSH20 0xFFFFFFFFFFFFFFFFFFFFFFFFFFFFFFFFFFFFFFFF AND PUSH20 0xFFFFFFFFFFFFFFFFFFFFFFFFFFFFFFFFFFFFFFFF AND DUP2 MSTORE PUSH1 0x20 ADD SWAP1 DUP2 MSTORE PUSH1 0x20 ADD PUSH0 KECCAK256 SWAP1 POP DUP1 PUSH1 0x2 ADD PUSH0 SWAP1 SLOAD SWAP1 PUSH2 0x100 EXP SWAP1 DIV PUSH1 0xFF AND PUSH2 0x5DD JUMPI PUSH1 0x40 MLOAD PUSH32 0x8C379A000000000000000000000000000000000000000000000000000000000 DUP2 MSTORE PUSH1 0x4 ADD PUSH2 0x5D4 SWAP1 PUSH2 0x1564 JUMP JUMPDEST PUSH1 0x40 MLOAD DUP1 SWAP2 SUB SWAP1 REVERT JUMPDEST PUSH0 DUP2 PUSH1 0x2 ADD PUSH0 PUSH2 0x100 EXP DUP2 SLOAD DUP2 PUSH1 0xFF MUL NOT AND SWAP1 DUP4 ISZERO ISZERO MUL OR SWAP1 SSTORE POP DUP2 PUSH20 0xFFFFFFFFFFFFFFFFFFFFFFFFFFFFFFFFFFFFFFFF AND PUSH32 0x22DE3C485CC8E59969CDE8A1634777844364479DD9DA4B31F3174273488CD17C PUSH1 0x40 MLOAD PUSH1 0x40 MLOAD DUP1 SWAP2 SUB SWAP1 LOG2 POP POP JUMP JUMPDEST PUSH1 0x3 PUSH1 0x20 MSTORE DUP1 PUSH0 MSTORE PUSH1 0x40 PUSH0 KECCAK256 PUSH0 SWAP2 POP SWAP1 POP DUP1 PUSH0 ADD PUSH0 SWAP1 SLOAD SWAP1 PUSH2 0x100 EXP SWAP1 DIV PUSH20 0xFFFFFFFFFFFFFFFFFFFFFFFFFFFFFFFFFFFFFFFF AND SWAP1 DUP1 PUSH1 0x1 ADD SLOAD SWAP1 DUP1 PUSH1 0x2 ADD PUSH0 SWAP1 SLOAD SWAP1 PUSH2 0x100 EXP SWAP1 DIV PUSH1 0xFF AND SWAP1 POP DUP4 JUMP JUMPDEST PUSH2 0x698 PUSH2 0xEDC JUMP JUMPDEST PUSH2 0x6A1 PUSH0 PUSH2 0xF63 JUMP JUMPDEST JUMP JUMPDEST PUSH1 0x2 PUSH0 SWAP1 SLOAD SWAP1 PUSH2 0x100 EXP SWAP1 DIV PUSH20 0xFFFFFFFFFFFFFFFFFFFFFFFFFFFFFFFFFFFFFFFF AND DUP2 JUMP JUMPDEST PUSH1 0x4 SLOAD DUP2 JUMP JUMPDEST PUSH0 PUSH0 PUSH0 SWAP1 SLOAD SWAP1 PUSH2 0x100 EXP SWAP1 DIV PUSH20 0xFFFFFFFFFFFFFFFFFFFFFFFFFFFFFFFFFFFFFFFF AND SWAP1 POP SWAP1 JUMP JUMPDEST PUSH2 0x6FD PUSH2 0xE84 JUMP JUMPDEST PUSH0 DUP2 GT PUSH2 0x73F JUMPI PUSH1 0x40 MLOAD PUSH32 0x8C379A000000000000000000000000000000000000000000000000000000000 DUP2 MSTORE PUSH1 0x4 ADD PUSH2 0x736 SWAP1 PUSH2 0x15CC JUMP JUMPDEST PUSH1 0x40 MLOAD DUP1 SWAP2 SUB SWAP1 REVERT JUMPDEST PUSH0 PUSH1 0x3 PUSH0 CALLER PUSH20 0xFFFFFFFFFFFFFFFFFFFFFFFFFFFFFFFFFFFFFFFF AND PUSH20 0xFFFFFFFFFFFFFFFFFFFFFFFFFFFFFFFFFFFFFFFF AND DUP2 MSTORE PUSH1 0x20 ADD SWAP1 DUP2 MSTORE PUSH1 0x20 ADD PUSH0 KECCAK256 SWAP1 POP DUP1 PUSH1 0x2 ADD PUSH0 SWAP1 SLOAD SWAP1 PUSH2 0x100 EXP SWAP1 DIV PUSH1 0xFF AND PUSH2 0x7CF JUMPI PUSH1 0x40 MLOAD PUSH32 0x8C379A000000000000000000000000000000000000000000000000000000000 DUP2 MSTORE PUSH1 0x4 ADD PUSH2 0x7C6 SWAP1 PUSH2 0x1350 JUMP JUMPDEST PUSH1 0x40 MLOAD DUP1 SWAP2 SUB SWAP1 REVERT JUMPDEST PUSH0 PUSH1 0x2 PUSH0 SWAP1 SLOAD SWAP1 PUSH2 0x100 EXP SWAP1 DIV PUSH20 0xFFFFFFFFFFFFFFFFFFFFFFFFFFFFFFFFFFFFFFFF AND PUSH20 0xFFFFFFFFFFFFFFFFFFFFFFFFFFFFFFFFFFFFFFFF AND PUSH4 0x23B872DD CALLER ADDRESS DUP7 PUSH1 0x40 MLOAD DUP5 PUSH4 0xFFFFFFFF AND PUSH1 0xE0 SHL DUP2 MSTORE PUSH1 0x4 ADD PUSH2 0x82E SWAP4 SWAP3 SWAP2 SWAP1 PUSH2 0x15EA JUMP JUMPDEST PUSH1 0x20 PUSH1 0x40 MLOAD DUP1 DUP4 SUB DUP2 PUSH0 DUP8 GAS CALL ISZERO DUP1 ISZERO PUSH2 0x84A JUMPI RETURNDATASIZE PUSH0 PUSH0 RETURNDATACOPY RETURNDATASIZE PUSH0 REVERT JUMPDEST POP POP POP POP PUSH1 0x40 MLOAD RETURNDATASIZE PUSH1 0x1F NOT PUSH1 0x1F DUP3 ADD AND DUP3 ADD DUP1 PUSH1 0x40 MSTORE POP DUP2 ADD SWAP1 PUSH2 0x86E SWAP2 SWAP1 PUSH2 0x1487 JUMP JUMPDEST SWAP1 POP DUP1 PUSH2 0x8B0 JUMPI PUSH1 0x40 MLOAD PUSH32 0x8C379A000000000000000000000000000000000000000000000000000000000 DUP2 MSTORE PUSH1 0x4 ADD PUSH2 0x8A7 SWAP1 PUSH2 0x14FC JUMP JUMPDEST PUSH1 0x40 MLOAD DUP1 SWAP2 SUB SWAP1 REVERT JUMPDEST DUP3 DUP3 PUSH1 0x1 ADD PUSH0 DUP3 DUP3 SLOAD PUSH2 0x8C3 SWAP2 SWAP1 PUSH2 0x161F JUMP JUMPDEST SWAP3 POP POP DUP2 SWAP1 SSTORE POP DUP3 PUSH1 0x4 PUSH0 DUP3 DUP3 SLOAD PUSH2 0x8DB SWAP2 SWAP1 PUSH2 0x161F JUMP JUMPDEST SWAP3 POP POP DUP2 SWAP1 SSTORE POP CALLER PUSH20 0xFFFFFFFFFFFFFFFFFFFFFFFFFFFFFFFFFFFFFFFF AND PUSH32 0x9E71BC8EEA02A63969F509818F2DAFB9254532904319F9DBDA79B67BD34A5F3D DUP5 PUSH1 0x40 MLOAD PUSH2 0x928 SWAP2 SWAP1 PUSH2 0x1121 JUMP JUMPDEST PUSH1 0x40 MLOAD DUP1 SWAP2 SUB SWAP1 LOG2 POP POP PUSH2 0x93A PUSH2 0xED3 JUMP JUMPDEST POP JUMP JUMPDEST PUSH0 PUSH1 0x3 PUSH0 DUP4 PUSH20 0xFFFFFFFFFFFFFFFFFFFFFFFFFFFFFFFFFFFFFFFF AND PUSH20 0xFFFFFFFFFFFFFFFFFFFFFFFFFFFFFFFFFFFFFFFF AND DUP2 MSTORE PUSH1 0x20 ADD SWAP1 DUP2 MSTORE PUSH1 0x20 ADD PUSH0 KECCAK256 PUSH1 0x2 ADD PUSH0 SWAP1 SLOAD SWAP1 PUSH2 0x100 EXP SWAP1 DIV PUSH1 0xFF AND SWAP1 POP SWAP2 SWAP1 POP JUMP JUMPDEST PUSH2 0x99A PUSH2 0xEDC JUMP JUMPDEST PUSH2 0x9A2 PUSH2 0xE84 JUMP JUMPDEST PUSH0 PUSH1 0x3 PUSH0 DUP6 PUSH20 0xFFFFFFFFFFFFFFFFFFFFFFFFFFFFFFFFFFFFFFFF AND PUSH20 0xFFFFFFFFFFFFFFFFFFFFFFFFFFFFFFFFFFFFFFFF AND DUP2 MSTORE PUSH1 0x20 ADD SWAP1 DUP2 MSTORE PUSH1 0x20 ADD PUSH0 KECCAK256 SWAP1 POP DUP1 PUSH1 0x2 ADD PUSH0 SWAP1 SLOAD SWAP1 PUSH2 0x100 EXP SWAP1 DIV PUSH1 0xFF AND PUSH2 0xA32 JUMPI PUSH1 0x40 MLOAD PUSH32 0x8C379A000000000000000000000000000000000000000000000000000000000 DUP2 MSTORE PUSH1 0x4 ADD PUSH2 0xA29 SWAP1 PUSH2 0x1350 JUMP JUMPDEST PUSH1 0x40 MLOAD DUP1 SWAP2 SUB SWAP1 REVERT JUMPDEST DUP3 DUP2 PUSH1 0x1 ADD SLOAD LT ISZERO PUSH2 0xA79 JUMPI PUSH1 0x40 MLOAD PUSH32 0x8C379A000000000000000000000000000000000000000000000000000000000 DUP2 MSTORE PUSH1 0x4 ADD PUSH2 0xA70 SWAP1 PUSH2 0x169C JUMP JUMPDEST PUSH1 0x40 MLOAD DUP1 SWAP2 SUB SWAP1 REVERT JUMPDEST PUSH0 PUSH20 0xFFFFFFFFFFFFFFFFFFFFFFFFFFFFFFFFFFFFFFFF AND DUP3 PUSH20 0xFFFFFFFFFFFFFFFFFFFFFFFFFFFFFFFFFFFFFFFF AND SUB PUSH2 0xAE7 JUMPI PUSH1 0x40 MLOAD PUSH32 0x8C379A000000000000000000000000000000000000000000000000000000000 DUP2 MSTORE PUSH1 0x4 ADD PUSH2 0xADE SWAP1 PUSH2 0x1704 JUMP JUMPDEST PUSH1 0x40 MLOAD DUP1 SWAP2 SUB SWAP1 REVERT JUMPDEST DUP3 DUP2 PUSH1 0x1 ADD PUSH0 DUP3 DUP3 SLOAD PUSH2 0xAFA SWAP2 SWAP1 PUSH2 0x1403 JUMP JUMPDEST SWAP3 POP POP DUP2 SWAP1 SSTORE POP DUP3 PUSH1 0x4 PUSH0 DUP3 DUP3 SLOAD PUSH2 0xB12 SWAP2 SWAP1 PUSH2 0x1403 JUMP JUMPDEST SWAP3 POP POP DUP2 SWAP1 SSTORE POP PUSH0 PUSH1 0x2 PUSH0 SWAP1 SLOAD SWAP1 PUSH2 0x100 EXP SWAP1 DIV PUSH20 0xFFFFFFFFFFFFFFFFFFFFFFFFFFFFFFFFFFFFFFFF AND PUSH20 0xFFFFFFFFFFFFFFFFFFFFFFFFFFFFFFFFFFFFFFFF AND PUSH4 0xA9059CBB DUP5 DUP7 PUSH1 0x40 MLOAD DUP4 PUSH4 0xFFFFFFFF AND PUSH1 0xE0 SHL DUP2 MSTORE PUSH1 0x4 ADD PUSH2 0xB76 SWAP3 SWAP2 SWAP1 PUSH2 0x1436 JUMP JUMPDEST PUSH1 0x20 PUSH1 0x40 MLOAD DUP1 DUP4 SUB DUP2 PUSH0 DUP8 GAS CALL ISZERO DUP1 ISZERO PUSH2 0xB92 JUMPI RETURNDATASIZE PUSH0 PUSH0 RETURNDATACOPY RETURNDATASIZE PUSH0 REVERT JUMPDEST POP POP POP POP PUSH1 0x40 MLOAD RETURNDATASIZE PUSH1 0x1F NOT PUSH1 0x1F DUP3 ADD AND DUP3 ADD DUP1 PUSH1 0x40 MSTORE POP DUP2 ADD SWAP1 PUSH2 0xBB6 SWAP2 SWAP1 PUSH2 0x1487 JUMP JUMPDEST SWAP1 POP DUP1 PUSH2 0xBF8 JUMPI PUSH1 0x40 MLOAD PUSH32 0x8C379A000000000000000000000000000000000000000000000000000000000 DUP2 MSTORE PUSH1 0x4 ADD PUSH2 0xBEF SWAP1 PUSH2 0x176C JUMP JUMPDEST PUSH1 0x40 MLOAD DUP1 SWAP2 SUB SWAP1 REVERT JUMPDEST DUP5 PUSH20 0xFFFFFFFFFFFFFFFFFFFFFFFFFFFFFFFFFFFFFFFF AND PUSH32 0x4ED05E9673C26D2ED44F7EF6A7F2942DF0EE3B5E1E17DB4B99F9DCD261A339CD DUP6 PUSH1 0x40 MLOAD PUSH2 0xC3E SWAP2 SWAP1 PUSH2 0x1121 JUMP JUMPDEST PUSH1 0x40 MLOAD DUP1 SWAP2 SUB SWAP1 LOG2 POP POP PUSH2 0xC50 PUSH2 0xED3 JUMP JUMPDEST POP POP POP JUMP JUMPDEST PUSH2 0xC5D PUSH2 0xEDC JUMP JUMPDEST PUSH0 PUSH20 0xFFFFFFFFFFFFFFFFFFFFFFFFFFFFFFFFFFFFFFFF AND DUP2 PUSH20 0xFFFFFFFFFFFFFFFFFFFFFFFFFFFFFFFFFFFFFFFF AND SUB PUSH2 0xCCD JUMPI PUSH0 PUSH1 0x40 MLOAD PUSH32 0x1E4FBDF700000000000000000000000000000000000000000000000000000000 DUP2 MSTORE PUSH1 0x4 ADD PUSH2 0xCC4 SWAP2 SWAP1 PUSH2 0x120C JUMP JUMPDEST PUSH1 0x40 MLOAD DUP1 SWAP2 SUB SWAP1 REVERT JUMPDEST PUSH2 0xCD6 DUP2 PUSH2 0xF63 JUMP JUMPDEST POP JUMP JUMPDEST PUSH2 0xCE1 PUSH2 0xEDC JUMP JUMPDEST PUSH0 PUSH20 0xFFFFFFFFFFFFFFFFFFFFFFFFFFFFFFFFFFFFFFFF AND DUP2 PUSH20 0xFFFFFFFFFFFFFFFFFFFFFFFFFFFFFFFFFFFFFFFF AND SUB PUSH2 0xD4F JUMPI PUSH1 0x40 MLOAD PUSH32 0x8C379A000000000000000000000000000000000000000000000000000000000 DUP2 MSTORE PUSH1 0x4 ADD PUSH2 0xD46 SWAP1 PUSH2 0x17D4 JUMP JUMPDEST PUSH1 0x40 MLOAD DUP1 SWAP2 SUB SWAP1 REVERT JUMPDEST PUSH0 PUSH1 0x3 PUSH0 DUP4 PUSH20 0xFFFFFFFFFFFFFFFFFFFFFFFFFFFFFFFFFFFFFFFF AND PUSH20 0xFFFFFFFFFFFFFFFFFFFFFFFFFFFFFFFFFFFFFFFF AND DUP2 MSTORE PUSH1 0x20 ADD SWAP1 DUP2 MSTORE PUSH1 0x20 ADD PUSH0 KECCAK256 SWAP1 POP DUP1 PUSH1 0x2 ADD PUSH0 SWAP1 SLOAD SWAP1 PUSH2 0x100 EXP SWAP1 DIV PUSH1 0xFF AND ISZERO PUSH2 0xDE0 JUMPI PUSH1 0x40 MLOAD PUSH32 0x8C379A000000000000000000000000000000000000000000000000000000000 DUP2 MSTORE PUSH1 0x4 ADD PUSH2 0xDD7 SWAP1 PUSH2 0x183C JUMP JUMPDEST PUSH1 0x40 MLOAD DUP1 SWAP2 SUB SWAP1 REVERT JUMPDEST DUP2 DUP2 PUSH0 ADD PUSH0 PUSH2 0x100 EXP DUP2 SLOAD DUP2 PUSH20 0xFFFFFFFFFFFFFFFFFFFFFFFFFFFFFFFFFFFFFFFF MUL NOT AND SWAP1 DUP4 PUSH20 0xFFFFFFFFFFFFFFFFFFFFFFFFFFFFFFFFFFFFFFFF AND MUL OR SWAP1 SSTORE POP PUSH1 0x1 DUP2 PUSH1 0x2 ADD PUSH0 PUSH2 0x100 EXP DUP2 SLOAD DUP2 PUSH1 0xFF MUL NOT AND SWAP1 DUP4 ISZERO ISZERO MUL OR SWAP1 SSTORE POP DUP2 PUSH20 0xFFFFFFFFFFFFFFFFFFFFFFFFFFFFFFFFFFFFFFFF AND PUSH32 0x8CEEE2BB9FFA614E8F92CE61FF7AB1658EB8C19EAA983439DAE3CED63E1A3D69 PUSH1 0x40 MLOAD PUSH1 0x40 MLOAD DUP1 SWAP2 SUB SWAP1 LOG2 POP POP JUMP JUMPDEST PUSH1 0x2 PUSH1 0x1 SLOAD SUB PUSH2 0xEC9 JUMPI PUSH1 0x40 MLOAD PUSH32 0x8C379A000000000000000000000000000000000000000000000000000000000 DUP2 MSTORE PUSH1 0x4 ADD PUSH2 0xEC0 SWAP1 PUSH2 0x18A4 JUMP JUMPDEST PUSH1 0x40 MLOAD DUP1 SWAP2 SUB SWAP1 REVERT JUMPDEST PUSH1 0x2 PUSH1 0x1 DUP2 SWAP1 SSTORE POP JUMP JUMPDEST PUSH1 0x1 DUP1 DUP2 SWAP1 SSTORE POP JUMP JUMPDEST PUSH2 0xEE4 PUSH2 0x1024 JUMP JUMPDEST PUSH20 0xFFFFFFFFFFFFFFFFFFFFFFFFFFFFFFFFFFFFFFFF AND PUSH2 0xF02 PUSH2 0x6CE JUMP JUMPDEST PUSH20 0xFFFFFFFFFFFFFFFFFFFFFFFFFFFFFFFFFFFFFFFF AND EQ PUSH2 0xF61 JUMPI PUSH2 0xF25 PUSH2 0x1024 JUMP JUMPDEST PUSH1 0x40 MLOAD PUSH32 0x118CDAA700000000000000000000000000000000000000000000000000000000 DUP2 MSTORE PUSH1 0x4 ADD PUSH2 0xF58 SWAP2 SWAP1 PUSH2 0x120C JUMP JUMPDEST PUSH1 0x40 MLOAD DUP1 SWAP2 SUB SWAP1 REVERT JUMPDEST JUMP JUMPDEST PUSH0 PUSH0 PUSH0 SWAP1 SLOAD SWAP1 PUSH2 0x100 EXP SWAP1 DIV PUSH20 0xFFFFFFFFFFFFFFFFFFFFFFFFFFFFFFFFFFFFFFFF AND SWAP1 POP DUP2 PUSH0 PUSH0 PUSH2 0x100 EXP DUP2 SLOAD DUP2 PUSH20 0xFFFFFFFFFFFFFFFFFFFFFFFFFFFFFFFFFFFFFFFF MUL NOT AND SWAP1 DUP4 PUSH20 0xFFFFFFFFFFFFFFFFFFFFFFFFFFFFFFFFFFFFFFFF AND MUL OR SWAP1 SSTORE POP DUP2 PUSH20 0xFFFFFFFFFFFFFFFFFFFFFFFFFFFFFFFFFFFFFFFF AND DUP2 PUSH20 0xFFFFFFFFFFFFFFFFFFFFFFFFFFFFFFFFFFFFFFFF AND PUSH32 0x8BE0079C531659141344CD1FD0A4F28419497F9722A3DAAFE3B4186F6B6457E0 PUSH1 0x40 MLOAD PUSH1 0x40 MLOAD DUP1 SWAP2 SUB SWAP1 LOG3 POP POP JUMP JUMPDEST PUSH0 CALLER SWAP1 POP SWAP1 JUMP JUMPDEST PUSH0 PUSH0 REVERT JUMPDEST PUSH0 DUP2 SWAP1 POP SWAP2 SWAP1 POP JUMP JUMPDEST PUSH2 0x1041 DUP2 PUSH2 0x102F JUMP JUMPDEST DUP2 EQ PUSH2 0x104B JUMPI PUSH0 PUSH0 REVERT JUMPDEST POP JUMP JUMPDEST PUSH0 DUP2 CALLDATALOAD SWAP1 POP PUSH2 0x105C DUP2 PUSH2 0x1038 JUMP JUMPDEST SWAP3 SWAP2 POP POP JUMP JUMPDEST PUSH0 PUSH1 0x20 DUP3 DUP5 SUB SLT ISZERO PUSH2 0x1077 JUMPI PUSH2 0x1076 PUSH2 0x102B JUMP JUMPDEST JUMPDEST PUSH0 PUSH2 0x1084 DUP5 DUP3 DUP6 ADD PUSH2 0x104E JUMP JUMPDEST SWAP2 POP POP SWAP3 SWAP2 POP POP JUMP JUMPDEST PUSH0 PUSH20 0xFFFFFFFFFFFFFFFFFFFFFFFFFFFFFFFFFFFFFFFF DUP3 AND SWAP1 POP SWAP2 SWAP1 POP JUMP JUMPDEST PUSH0 PUSH2 0x10B6 DUP3 PUSH2 0x108D JUMP JUMPDEST SWAP1 POP SWAP2 SWAP1 POP JUMP JUMPDEST PUSH2 0x10C6 DUP2 PUSH2 0x10AC JUMP JUMPDEST DUP2 EQ PUSH2 0x10D0 JUMPI PUSH0 PUSH0 REVERT JUMPDEST POP JUMP JUMPDEST PUSH0 DUP2 CALLDATALOAD SWAP1 POP PUSH2 0x10E1 DUP2 PUSH2 0x10BD JUMP JUMPDEST SWAP3 SWAP2 POP POP JUMP JUMPDEST PUSH0 PUSH1 0x20 DUP3 DUP5 SUB SLT ISZERO PUSH2 0x10FC JUMPI PUSH2 0x10FB PUSH2 0x102B JUMP JUMPDEST JUMPDEST PUSH0 PUSH2 0x1109 DUP5 DUP3 DUP6 ADD PUSH2 0x10D3 JUMP JUMPDEST SWAP2 POP POP SWAP3 SWAP2 POP POP JUMP JUMPDEST PUSH2 0x111B DUP2 PUSH2 0x102F JUMP JUMPDEST DUP3 MSTORE POP POP JUMP JUMPDEST PUSH0 PUSH1 0x20 DUP3 ADD SWAP1 POP PUSH2 0x1134 PUSH0 DUP4 ADD DUP5 PUSH2 0x1112 JUMP JUMPDEST SWAP3 SWAP2 POP POP JUMP JUMPDEST PUSH2 0x1143 DUP2 PUSH2 0x10AC JUMP JUMPDEST DUP3 MSTORE POP POP JUMP JUMPDEST PUSH0 DUP2 ISZERO ISZERO SWAP1 POP SWAP2 SWAP1 POP JUMP JUMPDEST PUSH2 0x115D DUP2 PUSH2 0x1149 JUMP JUMPDEST DUP3 MSTORE POP POP JUMP JUMPDEST PUSH0 PUSH1 0x60 DUP3 ADD SWAP1 POP PUSH2 0x1176 PUSH0 DUP4 ADD DUP7 PUSH2 0x113A JUMP JUMPDEST PUSH2 0x1183 PUSH1 0x20 DUP4 ADD DUP6 PUSH2 0x1112 JUMP JUMPDEST PUSH2 0x1190 PUSH1 0x40 DUP4 ADD DUP5 PUSH2 0x1154 JUMP JUMPDEST SWAP5 SWAP4 POP POP POP POP JUMP JUMPDEST PUSH0 DUP2 SWAP1 POP SWAP2 SWAP1 POP JUMP JUMPDEST PUSH0 PUSH2 0x11BB PUSH2 0x11B6 PUSH2 0x11B1 DUP5 PUSH2 0x108D JUMP JUMPDEST PUSH2 0x1198 JUMP JUMPDEST PUSH2 0x108D JUMP JUMPDEST SWAP1 POP SWAP2 SWAP1 POP JUMP JUMPDEST PUSH0 PUSH2 0x11CC DUP3 PUSH2 0x11A1 JUMP JUMPDEST SWAP1 POP SWAP2 SWAP1 POP JUMP JUMPDEST PUSH0 PUSH2 0x11DD DUP3 PUSH2 0x11C2 JUMP JUMPDEST SWAP1 POP SWAP2 SWAP1 POP JUMP JUMPDEST PUSH2 0x11ED DUP2 PUSH2 0x11D3 JUMP JUMPDEST DUP3 MSTORE POP POP JUMP JUMPDEST PUSH0 PUSH1 0x20 DUP3 ADD SWAP1 POP PUSH2 0x1206 PUSH0 DUP4 ADD DUP5 PUSH2 0x11E4 JUMP JUMPDEST SWAP3 SWAP2 POP POP JUMP JUMPDEST PUSH0 PUSH1 0x20 DUP3 ADD SWAP1 POP PUSH2 0x121F PUSH0 DUP4 ADD DUP5 PUSH2 0x113A JUMP JUMPDEST SWAP3 SWAP2 POP POP JUMP JUMPDEST PUSH0 PUSH1 0x20 DUP3 ADD SWAP1 POP PUSH2 0x1238 PUSH0 DUP4 ADD DUP5 PUSH2 0x1154 JUMP JUMPDEST SWAP3 SWAP2 POP POP JUMP JUMPDEST PUSH0 PUSH0 PUSH0 PUSH1 0x60 DUP5 DUP7 SUB SLT ISZERO PUSH2 0x1255 JUMPI PUSH2 0x1254 PUSH2 0x102B JUMP JUMPDEST JUMPDEST PUSH0 PUSH2 0x1262 DUP7 DUP3 DUP8 ADD PUSH2 0x10D3 JUMP JUMPDEST SWAP4 POP POP PUSH1 0x20 PUSH2 0x1273 DUP7 DUP3 DUP8 ADD PUSH2 0x104E JUMP JUMPDEST SWAP3 POP POP PUSH1 0x40 PUSH2 0x1284 DUP7 DUP3 DUP8 ADD PUSH2 0x10D3 JUMP JUMPDEST SWAP2 POP POP SWAP3 POP SWAP3 POP SWAP3 JUMP JUMPDEST PUSH0 DUP3 DUP3 MSTORE PUSH1 0x20 DUP3 ADD SWAP1 POP SWAP3 SWAP2 POP POP JUMP JUMPDEST PUSH32 0x556E7374616B6520616D6F756E74206D757374206265203E2030000000000000 PUSH0 DUP3 ADD MSTORE POP JUMP JUMPDEST PUSH0 PUSH2 0x12D2 PUSH1 0x1A DUP4 PUSH2 0x128E JUMP JUMPDEST SWAP2 POP PUSH2 0x12DD DUP3 PUSH2 0x129E JUMP JUMPDEST PUSH1 0x20 DUP3 ADD SWAP1 POP SWAP2 SWAP1 POP JUMP JUMPDEST PUSH0 PUSH1 0x20 DUP3 ADD SWAP1 POP DUP2 DUP2 SUB PUSH0 DUP4 ADD MSTORE PUSH2 0x12FF DUP2 PUSH2 0x12C6 JUMP JUMPDEST SWAP1 POP SWAP2 SWAP1 POP JUMP JUMPDEST PUSH32 0x4E6F7420616E2061637469766520776174636865720000000000000000000000 PUSH0 DUP3 ADD MSTORE POP JUMP JUMPDEST PUSH0 PUSH2 0x133A PUSH1 0x15 DUP4 PUSH2 0x128E JUMP JUMPDEST SWAP2 POP PUSH2 0x1345 DUP3 PUSH2 0x1306 JUMP JUMPDEST PUSH1 0x20 DUP3 ADD SWAP1 POP SWAP2 SWAP1 POP JUMP JUMPDEST PUSH0 PUSH1 0x20 DUP3 ADD SWAP1 POP DUP2 DUP2 SUB PUSH0 DUP4 ADD MSTORE PUSH2 0x1367 DUP2 PUSH2 0x132E JUMP JUMPDEST SWAP1 POP SWAP2 SWAP1 POP JUMP JUMPDEST PUSH32 0x496E73756666696369656E74207374616B65642062616C616E63650000000000 PUSH0 DUP3 ADD MSTORE POP JUMP JUMPDEST PUSH0 PUSH2 0x13A2 PUSH1 0x1B DUP4 PUSH2 0x128E JUMP JUMPDEST SWAP2 POP PUSH2 0x13AD DUP3 PUSH2 0x136E JUMP JUMPDEST PUSH1 0x20 DUP3 ADD SWAP1 POP SWAP2 SWAP1 POP JUMP JUMPDEST PUSH0 PUSH1 0x20 DUP3 ADD SWAP1 POP DUP2 DUP2 SUB PUSH0 DUP4 ADD MSTORE PUSH2 0x13CF DUP2 PUSH2 0x1396 JUMP JUMPDEST SWAP1 POP SWAP2 SWAP1 POP JUMP JUMPDEST PUSH32 0x4E487B7100000000000000000000000000000000000000000000000000000000 PUSH0 MSTORE PUSH1 0x11 PUSH1 0x4 MSTORE PUSH1 0x24 PUSH0 REVERT JUMPDEST PUSH0 PUSH2 0x140D DUP3 PUSH2 0x102F JUMP JUMPDEST SWAP2 POP PUSH2 0x1418 DUP4 PUSH2 0x102F JUMP JUMPDEST SWAP3 POP DUP3 DUP3 SUB SWAP1 POP DUP2 DUP2 GT ISZERO PUSH2 0x1430 JUMPI PUSH2 0x142F PUSH2 0x13D6 JUMP JUMPDEST JUMPDEST SWAP3 SWAP2 POP POP JUMP JUMPDEST PUSH0 PUSH1 0x40 DUP3 ADD SWAP1 POP PUSH2 0x1449 PUSH0 DUP4 ADD DUP6 PUSH2 0x113A JUMP JUMPDEST PUSH2 0x1456 PUSH1 0x20 DUP4 ADD DUP5 PUSH2 0x1112 JUMP JUMPDEST SWAP4 SWAP3 POP POP POP JUMP JUMPDEST PUSH2 0x1466 DUP2 PUSH2 0x1149 JUMP JUMPDEST DUP2 EQ PUSH2 0x1470 JUMPI PUSH0 PUSH0 REVERT JUMPDEST POP JUMP JUMPDEST PUSH0 DUP2 MLOAD SWAP1 POP PUSH2 0x1481 DUP2 PUSH2 0x145D JUMP JUMPDEST SWAP3 SWAP2 POP POP JUMP JUMPDEST PUSH0 PUSH1 0x20 DUP3 DUP5 SUB SLT ISZERO PUSH2 0x149C JUMPI PUSH2 0x149B PUSH2 0x102B JUMP JUMPDEST JUMPDEST PUSH0 PUSH2 0x14A9 DUP5 DUP3 DUP6 ADD PUSH2 0x1473 JUMP JUMPDEST SWAP2 POP POP SWAP3 SWAP2 POP POP JUMP JUMPDEST PUSH32 0x5472616E73666572206661696C65640000000000000000000000000000000000 PUSH0 DUP3 ADD MSTORE POP JUMP JUMPDEST PUSH0 PUSH2 0x14E6 PUSH1 0xF DUP4 PUSH2 0x128E JUMP JUMPDEST SWAP2 POP PUSH2 0x14F1 DUP3 PUSH2 0x14B2 JUMP JUMPDEST PUSH1 0x20 DUP3 ADD SWAP1 POP SWAP2 SWAP1 POP JUMP JUMPDEST PUSH0 PUSH1 0x20 DUP3 ADD SWAP1 POP DUP2 DUP2 SUB PUSH0 DUP4 ADD MSTORE PUSH2 0x1513 DUP2 PUSH2 0x14DA JUMP JUMPDEST SWAP1 POP SWAP2 SWAP1 POP JUMP JUMPDEST PUSH32 0x57617463686572206E6F74207265676973746572656400000000000000000000 PUSH0 DUP3 ADD MSTORE POP JUMP JUMPDEST PUSH0 PUSH2 0x154E PUSH1 0x16 DUP4 PUSH2 0x128E JUMP JUMPDEST SWAP2 POP PUSH2 0x1559 DUP3 PUSH2 0x151A JUMP JUMPDEST PUSH1 0x20 DUP3 ADD SWAP1 POP SWAP2 SWAP1 POP JUMP JUMPDEST PUSH0 PUSH1 0x20 DUP3 ADD SWAP1 POP DUP2 DUP2 SUB PUSH0 DUP4 ADD MSTORE PUSH2 0x157B DUP2 PUSH2 0x1542 JUMP JUMPDEST SWAP1 POP SWAP2 SWAP1 POP JUMP JUMPDEST PUSH32 0x5374616B6520616D6F756E74206D757374206265203E20300000000000000000 PUSH0 DUP3 ADD MSTORE POP JUMP JUMPDEST PUSH0 PUSH2 0x15B6 PUSH1 0x18 DUP4 PUSH2 0x128E JUMP JUMPDEST SWAP2 POP PUSH2 0x15C1 DUP3 PUSH2 0x1582 JUMP JUMPDEST PUSH1 0x20 DUP3 ADD SWAP1 POP SWAP2 SWAP1 POP JUMP JUMPDEST PUSH0 PUSH1 0x20 DUP3 ADD SWAP1 POP DUP2 DUP2 SUB PUSH0 DUP4 ADD MSTORE PUSH2 0x15E3 DUP2 PUSH2 0x15AA JUMP JUMPDEST SWAP1 POP SWAP2 SWAP1 POP JUMP JUMPDEST PUSH0 PUSH1 0x60 DUP3 ADD SWAP1 POP PUSH2 0x15FD PUSH0 DUP4 ADD DUP7 PUSH2 0x113A JUMP JUMPDEST PUSH2 0x160A PUSH1 0x20 DUP4 ADD DUP6 PUSH2 0x113A JUMP JUMPDEST PUSH2 0x1617 PUSH1 0x40 DUP4 ADD DUP5 PUSH2 0x1112 JUMP JUMPDEST SWAP5 SWAP4 POP POP POP POP JUMP JUMPDEST PUSH0 PUSH2 0x1629 DUP3 PUSH2 0x102F JUMP JUMPDEST SWAP2 POP PUSH2 0x1634 DUP4 PUSH2 0x102F JUMP JUMPDEST SWAP3 POP DUP3 DUP3 ADD SWAP1 POP DUP1 DUP3 GT ISZERO PUSH2 0x164C JUMPI PUSH2 0x164B PUSH2 0x13D6 JUMP JUMPDEST JUMPDEST SWAP3 SWAP2 POP POP JUMP JUMPDEST PUSH32 0x536C6173682065786365656473207374616B65642062616C616E636500000000 PUSH0 DUP3 ADD MSTORE POP JUMP JUMPDEST PUSH0 PUSH2 0x1686 PUSH1 0x1C DUP4 PUSH2 0x128E JUMP JUMPDEST SWAP2 POP PUSH2 0x1691 DUP3 PUSH2 0x1652 JUMP JUMPDEST PUSH1 0x20 DUP3 ADD SWAP1 POP SWAP2 SWAP1 POP JUMP JUMPDEST PUSH0 PUSH1 0x20 DUP3 ADD SWAP1 POP DUP2 DUP2 SUB PUSH0 DUP4 ADD MSTORE PUSH2 0x16B3 DUP2 PUSH2 0x167A JUMP JUMPDEST SWAP1 POP SWAP2 SWAP1 POP JUMP JUMPDEST PUSH32 0x496E76616C696420736C61736820726563697069656E74000000000000000000 PUSH0 DUP3 ADD MSTORE POP JUMP JUMPDEST PUSH0 PUSH2 0x16EE PUSH1 0x17 DUP4 PUSH2 0x128E JUMP JUMPDEST SWAP2 POP PUSH2 0x16F9 DUP3 PUSH2 0x16BA JUMP JUMPDEST PUSH1 0x20 DUP3 ADD SWAP1 POP SWAP2 SWAP1 POP JUMP JUMPDEST PUSH0 PUSH1 0x20 DUP3 ADD SWAP1 POP DUP2 DUP2 SUB PUSH0 DUP4 ADD MSTORE PUSH2 0x171B DUP2 PUSH2 0x16E2 JUMP JUMPDEST SWAP1 POP SWAP2 SWAP1 POP JUMP JUMPDEST PUSH32 0x536C617368207472616E73666572206661696C65640000000000000000000000 PUSH0 DUP3 ADD MSTORE POP JUMP JUMPDEST PUSH0 PUSH2 0x1756 PUSH1 0x15 DUP4 PUSH2 0x128E JUMP JUMPDEST SWAP2 POP PUSH2 0x1761 DUP3 PUSH2 0x1722 JUMP JUMPDEST PUSH1 0x20 DUP3 ADD SWAP1 POP SWAP2 SWAP1 POP JUMP JUMPDEST PUSH0 PUSH1 0x20 DUP3 ADD SWAP1 POP DUP2 DUP2 SUB PUSH0 DUP4 ADD MSTORE PUSH2 0x1783 DUP2 PUSH2 0x174A JUMP JUMPDEST SWAP1 POP SWAP2 SWAP1 POP JUMP JUMPDEST PUSH32 0x496E76616C696420776174636865722061646472657373000000000000000000 PUSH0 DUP3 ADD MSTORE POP JUMP JUMPDEST PUSH0 PUSH2 0x17BE PUSH1 0x17 DUP4 PUSH2 0x128E JUMP JUMPDEST SWAP2 POP PUSH2 0x17C9 DUP3 PUSH2 0x178A JUMP JUMPDEST PUSH1 0x20 DUP3 ADD SWAP1 POP SWAP2 SWAP1 POP JUMP JUMPDEST PUSH0 PUSH1 0x20 DUP3 ADD SWAP1 POP DUP2 DUP2 SUB PUSH0 DUP4 ADD MSTORE PUSH2 0x17EB DUP2 PUSH2 0x17B2 JUMP JUMPDEST SWAP1 POP SWAP2 SWAP1 POP JUMP JUMPDEST PUSH32 0x5761746368657220616C72656164792072656769737465726564000000000000 PUSH0 DUP3 ADD MSTORE POP JUMP JUMPDEST PUSH0 PUSH2 0x1826 PUSH1 0x1A DUP4 PUSH2 0x128E JUMP JUMPDEST SWAP2 POP PUSH2 0x1831 DUP3 PUSH2 0x17F2 JUMP JUMPDEST PUSH1 0x20 DUP3 ADD SWAP1 POP SWAP2 SWAP1 POP JUMP JUMPDEST PUSH0 PUSH1 0x20 DUP3 ADD SWAP1 POP DUP2 DUP2 SUB PUSH0 DUP4 ADD MSTORE PUSH2 0x1853 DUP2 PUSH2 0x181A JUMP JUMPDEST SWAP1 POP SWAP2 SWAP1 POP JUMP JUMPDEST PUSH32 0x5265656E7472616E637947756172643A207265656E7472616E742063616C6C00 PUSH0 DUP3 ADD MSTORE POP JUMP JUMPDEST PUSH0 PUSH2 0x188E PUSH1 0x1F DUP4 PUSH2 0x128E JUMP JUMPDEST SWAP2 POP PUSH2 0x1899 DUP3 PUSH2 0x185A JUMP JUMPDEST PUSH1 0x20 DUP3 ADD SWAP1 POP SWAP2 SWAP1 POP JUMP JUMPDEST PUSH0 PUSH1 0x20 DUP3 ADD SWAP1 POP DUP2 DUP2 SUB PUSH0 DUP4 ADD MSTORE PUSH2 0x18BB DUP2 PUSH2 0x1882 JUMP JUMPDEST SWAP1 POP SWAP2 SWAP1 POP JUMP INVALID LOG2 PUSH5 0x6970667358 0x22 SLT KECCAK256 EOFCREATE 0xDE 0xB7 0xBA BALANCE TIMESTAMP SUB 0x21 PUSH5 0x905806EE45 ADDRESS 0xB7 PUSH22 0x6CA245A0B39F8C060D9714EC24E0CC64736F6C634300 ADDMOD SAR STOP CALLER "
				},
				"gasEstimates": {
					"creation": {
						"codeDepositCost": "1278400",
						"executionCost": "infinite",
						"totalCost": "infinite"
					},
					"external": {
						"getStakedBalance(address)": "2858",
						"isActiveWatcher(address)": "2898",
						"owner()": "2559",
						"registerWatcher(address)": "infinite",
						"renounceOwnership()": "infinite",
						"slash(address,uint256,address)": "infinite",
						"stake(uint256)": "infinite",
						"stakingToken()": "infinite",
						"totalStaked()": "2448",
						"transferOwnership(address)": "infinite",
						"unregisterWatcher(address)": "infinite",
						"unstake(uint256)": "infinite",
						"watchers(address)": "infinite"
					}
				},
				"methodIdentifiers": {
					"getStakedBalance(address)": "3a02a42d",
					"isActiveWatcher(address)": "aa65f706",
					"owner()": "8da5cb5b",
					"registerWatcher(address)": "f854fbd2",
					"renounceOwnership()": "715018a6",
					"slash(address,uint256,address)": "bfac5990",
					"stake(uint256)": "a694fc3a",
					"stakingToken()": "72f702f3",
					"totalStaked()": "817b1cd2",
					"transferOwnership(address)": "f2fde38b",
					"unregisterWatcher(address)": "3b27c012",
					"unstake(uint256)": "2e17de78",
					"watchers(address)": "596150d7"
				}
			},
			"storageLayout": {
				"storage": [
					{
						"astId": 8,
						"contract": "D/distributed proof of security.sol:DPoSec",
						"label": "_owner",
						"offset": 0,
						"slot": "0",
						"type": "t_address"
					},
					{
						"astId": 158,
						"contract": "D/distributed proof of security.sol:DPoSec",
						"label": "_status",
						"offset": 0,
						"slot": "1",
						"type": "t_uint256"
					},
					{
						"astId": 277,
						"contract": "D/distributed proof of security.sol:DPoSec",
						"label": "stakingToken",
						"offset": 0,
						"slot": "2",
						"type": "t_contract(IERC20)268"
					},
					{
						"astId": 290,
						"contract": "D/distributed proof of security.sol:DPoSec",
						"label": "watchers",
						"offset": 0,
						"slot": "3",
						"type": "t_mapping(t_address,t_struct(Watcher)285_storage)"
					},
					{
						"astId": 292,
						"contract": "D/distributed proof of security.sol:DPoSec",
						"label": "totalStaked",
						"offset": 0,
						"slot": "4",
						"type": "t_uint256"
					}
				],
				"types": {
					"t_address": {
						"encoding": "inplace",
						"label": "address",
						"numberOfBytes": "20"
					},
					"t_bool": {
						"encoding": "inplace",
						"label": "bool",
						"numberOfBytes": "1"
					},
					"t_contract(IERC20)268": {
						"encoding": "inplace",
						"label": "contract IERC20",
						"numberOfBytes": "20"
					},
					"t_mapping(t_address,t_struct(Watcher)285_storage)": {
						"encoding": "mapping",
						"key": "t_address",
						"label": "mapping(address => struct DPoSec.Watcher)",
						"numberOfBytes": "32",
						"value": "t_struct(Watcher)285_storage"
					},
					"t_struct(Watcher)285_storage": {
						"encoding": "inplace",
						"label": "struct DPoSec.Watcher",
						"members": [
							{
								"astId": 280,
								"contract": "D/distributed proof of security.sol:DPoSec",
								"label": "watcherAddress",
								"offset": 0,
								"slot": "0",
								"type": "t_address"
							},
							{
								"astId": 282,
								"contract": "D/distributed proof of security.sol:DPoSec",
								"label": "stakedBalance",
								"offset": 0,
								"slot": "1",
								"type": "t_uint256"
							},
							{
								"astId": 284,
								"contract": "D/distributed proof of security.sol:DPoSec",
								"label": "active",
								"offset": 0,
								"slot": "2",
								"type": "t_bool"
							}
						],
						"numberOfBytes": "96"
					},
					"t_uint256": {
						"encoding": "inplace",
						"label": "uint256",
						"numberOfBytes": "32"
					}
				}
			},
			"userdoc": {
				"kind": "user",
				"methods": {
					"constructor": {
						"notice": "Constructor sets the deployer as the contract owner and the ERC20 staking token."
					},
					"getStakedBalance(address)": {
						"notice": "Returns the staked balance of a watcher."
					},
					"isActiveWatcher(address)": {
						"notice": "Checks if an address is currently an active watcher."
					},
					"registerWatcher(address)": {
						"notice": "The owner registers a new watcher, enabling them to stake tokens."
					},
					"slash(address,uint256,address)": {
						"notice": "The owner slashes a specified amount from a watcher's stake, sending it to the owner or a slash recipient."
					},
					"stake(uint256)": {
						"notice": "A registered watcher stakes an amount of tokens. Must have approved this contract for that amount."
					},
					"stakingToken()": {
						"notice": "The ERC20 token used for staking (e.g. a stablecoin or governance token)."
					},
					"unregisterWatcher(address)": {
						"notice": "The owner un-registers a watcher, preventing future stake changes.  The watcher must unstake before being fully removed, or the owner can slash if needed."
					},
					"unstake(uint256)": {
						"notice": "A watcher unstakes some of their tokens.  In a real system, you might have timelocks or partial restrictions."
					}
				},
				"notice": "A dynamic and optimized contract where watchers stake tokens to provide security services. The owner can register watchers, slash watchers if they fail security checks, and watchers can stake or unstake.",
				"version": 1
			}
		}
	}
}