{
	"D/doubleSpendingtypes.sol": {
		"DoubleSpendingTypesDemo": {
			"abi": [
				{
					"anonymous": false,
					"inputs": [
						{
							"indexed": true,
							"internalType": "address",
							"name": "user",
							"type": "address"
						},
						{
							"indexed": false,
							"internalType": "uint256",
							"name": "amount",
							"type": "uint256"
						}
					],
					"name": "Deposited",
					"type": "event"
				},
				{
					"anonymous": false,
					"inputs": [
						{
							"indexed": true,
							"internalType": "address",
							"name": "user",
							"type": "address"
						},
						{
							"indexed": false,
							"internalType": "uint256",
							"name": "amount",
							"type": "uint256"
						},
						{
							"indexed": false,
							"internalType": "string",
							"name": "description",
							"type": "string"
						}
					],
					"name": "FinneyAttackDeposit",
					"type": "event"
				},
				{
					"anonymous": false,
					"inputs": [
						{
							"indexed": true,
							"internalType": "address",
							"name": "user",
							"type": "address"
						},
						{
							"indexed": false,
							"internalType": "uint256",
							"name": "amount",
							"type": "uint256"
						},
						{
							"indexed": false,
							"internalType": "uint256",
							"name": "nonce",
							"type": "uint256"
						},
						{
							"indexed": false,
							"internalType": "string",
							"name": "description",
							"type": "string"
						}
					],
					"name": "RaceAttackSpend",
					"type": "event"
				},
				{
					"anonymous": false,
					"inputs": [
						{
							"indexed": true,
							"internalType": "address",
							"name": "user",
							"type": "address"
						},
						{
							"indexed": false,
							"internalType": "string",
							"name": "description",
							"type": "string"
						}
					],
					"name": "Vector76AttackSimulation",
					"type": "event"
				},
				{
					"anonymous": false,
					"inputs": [
						{
							"indexed": true,
							"internalType": "address",
							"name": "user",
							"type": "address"
						},
						{
							"indexed": false,
							"internalType": "uint256",
							"name": "amount",
							"type": "uint256"
						}
					],
					"name": "Withdrawn",
					"type": "event"
				},
				{
					"inputs": [
						{
							"internalType": "address",
							"name": "",
							"type": "address"
						}
					],
					"name": "balances",
					"outputs": [
						{
							"internalType": "uint256",
							"name": "",
							"type": "uint256"
						}
					],
					"stateMutability": "view",
					"type": "function"
				},
				{
					"inputs": [],
					"name": "deposit",
					"outputs": [],
					"stateMutability": "payable",
					"type": "function"
				},
				{
					"inputs": [],
					"name": "finneyAttackDeposit",
					"outputs": [],
					"stateMutability": "payable",
					"type": "function"
				},
				{
					"inputs": [
						{
							"internalType": "uint256",
							"name": "amount",
							"type": "uint256"
						},
						{
							"internalType": "uint256",
							"name": "nonce",
							"type": "uint256"
						}
					],
					"name": "raceAttackSpend",
					"outputs": [],
					"stateMutability": "nonpayable",
					"type": "function"
				},
				{
					"inputs": [
						{
							"internalType": "address",
							"name": "",
							"type": "address"
						},
						{
							"internalType": "uint256",
							"name": "",
							"type": "uint256"
						}
					],
					"name": "usedNonces",
					"outputs": [
						{
							"internalType": "bool",
							"name": "",
							"type": "bool"
						}
					],
					"stateMutability": "view",
					"type": "function"
				},
				{
					"inputs": [],
					"name": "vector76AttackDemo",
					"outputs": [],
					"stateMutability": "nonpayable",
					"type": "function"
				},
				{
					"inputs": [],
					"name": "withdraw",
					"outputs": [],
					"stateMutability": "nonpayable",
					"type": "function"
				}
			],
			"devdoc": {
				"kind": "dev",
				"methods": {
					"raceAttackSpend(uint256,uint256)": {
						"params": {
							"amount": "The portion of the user's on-chain balance they want to spend.",
							"nonce": "A unique user-chosen identifier to ensure no double usage."
						}
					}
				},
				"title": "DoubleSpendingTypesDemo",
				"version": 1
			},
			"evm": {
				"assembly": "    /* \"D/doubleSpendingtypes.sol\":355:5243  contract DoubleSpendingTypesDemo is ReentrancyGuard {... */\n  mstore(0x40, 0x80)\n  callvalue\n  dup1\n  iszero\n  tag_1\n  jumpi\n  revert(0x00, 0x00)\ntag_1:\n  pop\n    /* \"@openzeppelin/contracts/security/ReentrancyGuard.sol\":1716:1717  1 */\n  0x01\n    /* \"@openzeppelin/contracts/security/ReentrancyGuard.sol\":1821:1828  _status */\n  0x00\n    /* \"@openzeppelin/contracts/security/ReentrancyGuard.sol\":1821:1843  _status = _NOT_ENTERED */\n  dup2\n  swap1\n  sstore\n  pop\n    /* \"D/doubleSpendingtypes.sol\":355:5243  contract DoubleSpendingTypesDemo is ReentrancyGuard {... */\n  dataSize(sub_0)\n  dup1\n  dataOffset(sub_0)\n  0x00\n  codecopy\n  0x00\n  return\nstop\n\nsub_0: assembly {\n        /* \"D/doubleSpendingtypes.sol\":355:5243  contract DoubleSpendingTypesDemo is ReentrancyGuard {... */\n      mstore(0x40, 0x80)\n      jumpi(tag_1, lt(calldatasize, 0x04))\n      shr(0xe0, calldataload(0x00))\n      dup1\n      0x6a8a6894\n      gt\n      tag_9\n      jumpi\n      dup1\n      0x6a8a6894\n      eq\n      tag_5\n      jumpi\n      dup1\n      0xb8718751\n      eq\n      tag_6\n      jumpi\n      dup1\n      0xd0e30db0\n      eq\n      tag_7\n      jumpi\n      dup1\n      0xef9e4b39\n      eq\n      tag_8\n      jumpi\n      jump(tag_1)\n    tag_9:\n      dup1\n      0x27e235e3\n      eq\n      tag_2\n      jumpi\n      dup1\n      0x3ccfd60b\n      eq\n      tag_3\n      jumpi\n      dup1\n      0x53869072\n      eq\n      tag_4\n      jumpi\n    tag_1:\n      revert(0x00, 0x00)\n        /* \"D/doubleSpendingtypes.sol\":720:763  mapping(address => uint256) public balances */\n    tag_2:\n      callvalue\n      dup1\n      iszero\n      tag_10\n      jumpi\n      revert(0x00, 0x00)\n    tag_10:\n      pop\n      tag_11\n      0x04\n      dup1\n      calldatasize\n      sub\n      dup2\n      add\n      swap1\n      tag_12\n      swap2\n      swap1\n      tag_13\n      jump\t// in\n    tag_12:\n      tag_14\n      jump\t// in\n    tag_11:\n      mload(0x40)\n      tag_15\n      swap2\n      swap1\n      tag_16\n      jump\t// in\n    tag_15:\n      mload(0x40)\n      dup1\n      swap2\n      sub\n      swap1\n      return\n        /* \"D/doubleSpendingtypes.sol\":2184:2520  function withdraw() external nonReentrant {... */\n    tag_3:\n      callvalue\n      dup1\n      iszero\n      tag_17\n      jumpi\n      revert(0x00, 0x00)\n    tag_17:\n      pop\n      tag_18\n      tag_19\n      jump\t// in\n    tag_18:\n      stop\n        /* \"D/doubleSpendingtypes.sol\":4971:5241  function vector76AttackDemo() external nonReentrant {... */\n    tag_4:\n      callvalue\n      dup1\n      iszero\n      tag_20\n      jumpi\n      revert(0x00, 0x00)\n    tag_20:\n      pop\n      tag_21\n      tag_22\n      jump\t// in\n    tag_21:\n      stop\n        /* \"D/doubleSpendingtypes.sol\":1137:1199  mapping(address => mapping(uint256 => bool)) public usedNonces */\n    tag_5:\n      callvalue\n      dup1\n      iszero\n      tag_23\n      jumpi\n      revert(0x00, 0x00)\n    tag_23:\n      pop\n      tag_24\n      0x04\n      dup1\n      calldatasize\n      sub\n      dup2\n      add\n      swap1\n      tag_25\n      swap2\n      swap1\n      tag_26\n      jump\t// in\n    tag_25:\n      tag_27\n      jump\t// in\n    tag_24:\n      mload(0x40)\n      tag_28\n      swap2\n      swap1\n      tag_29\n      jump\t// in\n    tag_28:\n      mload(0x40)\n      dup1\n      swap2\n      sub\n      swap1\n      return\n        /* \"D/doubleSpendingtypes.sol\":4184:4463  function finneyAttackDeposit() external payable nonReentrant {... */\n    tag_6:\n      tag_30\n      tag_31\n      jump\t// in\n    tag_30:\n      stop\n        /* \"D/doubleSpendingtypes.sol\":1903:2101  function deposit() external payable nonReentrant {... */\n    tag_7:\n      tag_32\n      tag_33\n      jump\t// in\n    tag_32:\n      stop\n        /* \"D/doubleSpendingtypes.sol\":2993:3704  function raceAttackSpend(uint256 amount, uint256 nonce) external nonReentrant {... */\n    tag_8:\n      callvalue\n      dup1\n      iszero\n      tag_34\n      jumpi\n      revert(0x00, 0x00)\n    tag_34:\n      pop\n      tag_35\n      0x04\n      dup1\n      calldatasize\n      sub\n      dup2\n      add\n      swap1\n      tag_36\n      swap2\n      swap1\n      tag_37\n      jump\t// in\n    tag_36:\n      tag_38\n      jump\t// in\n    tag_35:\n      stop\n        /* \"D/doubleSpendingtypes.sol\":720:763  mapping(address => uint256) public balances */\n    tag_14:\n      mstore(0x20, 0x01)\n      dup1\n      0x00\n      mstore\n      keccak256(0x00, 0x40)\n      0x00\n      swap2\n      pop\n      swap1\n      pop\n      sload\n      dup2\n      jump\t// out\n        /* \"D/doubleSpendingtypes.sol\":2184:2520  function withdraw() external nonReentrant {... */\n    tag_19:\n        /* \"@openzeppelin/contracts/security/ReentrancyGuard.sol\":2261:2282  _nonReentrantBefore() */\n      tag_40\n        /* \"@openzeppelin/contracts/security/ReentrancyGuard.sol\":2261:2280  _nonReentrantBefore */\n      tag_41\n        /* \"@openzeppelin/contracts/security/ReentrancyGuard.sol\":2261:2282  _nonReentrantBefore() */\n      jump\t// in\n    tag_40:\n        /* \"D/doubleSpendingtypes.sol\":2236:2247  uint256 bal */\n      0x00\n        /* \"D/doubleSpendingtypes.sol\":2250:2258  balances */\n      0x01\n        /* \"D/doubleSpendingtypes.sol\":2250:2270  balances[msg.sender] */\n      0x00\n        /* \"D/doubleSpendingtypes.sol\":2259:2269  msg.sender */\n      caller\n        /* \"D/doubleSpendingtypes.sol\":2250:2270  balances[msg.sender] */\n      0xffffffffffffffffffffffffffffffffffffffff\n      and\n      0xffffffffffffffffffffffffffffffffffffffff\n      and\n      dup2\n      mstore\n      0x20\n      add\n      swap1\n      dup2\n      mstore\n      0x20\n      add\n      0x00\n      keccak256\n      sload\n        /* \"D/doubleSpendingtypes.sol\":2236:2270  uint256 bal = balances[msg.sender] */\n      swap1\n      pop\n        /* \"D/doubleSpendingtypes.sol\":2294:2295  0 */\n      0x00\n        /* \"D/doubleSpendingtypes.sol\":2288:2291  bal */\n      dup2\n        /* \"D/doubleSpendingtypes.sol\":2288:2295  bal > 0 */\n      gt\n        /* \"D/doubleSpendingtypes.sol\":2280:2320  require(bal > 0, \"No funds to withdraw\") */\n      tag_43\n      jumpi\n      mload(0x40)\n      0x08c379a000000000000000000000000000000000000000000000000000000000\n      dup2\n      mstore\n      0x04\n      add\n      tag_44\n      swap1\n      tag_45\n      jump\t// in\n    tag_44:\n      mload(0x40)\n      dup1\n      swap2\n      sub\n      swap1\n      revert\n    tag_43:\n        /* \"D/doubleSpendingtypes.sol\":2353:2354  0 */\n      0x00\n        /* \"D/doubleSpendingtypes.sol\":2330:2338  balances */\n      0x01\n        /* \"D/doubleSpendingtypes.sol\":2330:2350  balances[msg.sender] */\n      0x00\n        /* \"D/doubleSpendingtypes.sol\":2339:2349  msg.sender */\n      caller\n        /* \"D/doubleSpendingtypes.sol\":2330:2350  balances[msg.sender] */\n      0xffffffffffffffffffffffffffffffffffffffff\n      and\n      0xffffffffffffffffffffffffffffffffffffffff\n      and\n      dup2\n      mstore\n      0x20\n      add\n      swap1\n      dup2\n      mstore\n      0x20\n      add\n      0x00\n      keccak256\n        /* \"D/doubleSpendingtypes.sol\":2330:2354  balances[msg.sender] = 0 */\n      dup2\n      swap1\n      sstore\n      pop\n        /* \"D/doubleSpendingtypes.sol\":2366:2378  bool success */\n      0x00\n        /* \"D/doubleSpendingtypes.sol\":2392:2402  msg.sender */\n      caller\n        /* \"D/doubleSpendingtypes.sol\":2384:2408  payable(msg.sender).call */\n      0xffffffffffffffffffffffffffffffffffffffff\n      and\n        /* \"D/doubleSpendingtypes.sol\":2416:2419  bal */\n      dup3\n        /* \"D/doubleSpendingtypes.sol\":2384:2424  payable(msg.sender).call{value: bal}(\"\") */\n      mload(0x40)\n      tag_46\n      swap1\n      tag_47\n      jump\t// in\n    tag_46:\n      0x00\n      mload(0x40)\n      dup1\n      dup4\n      sub\n      dup2\n      dup6\n      dup8\n      gas\n      call\n      swap3\n      pop\n      pop\n      pop\n      returndatasize\n      dup1\n      0x00\n      dup2\n      eq\n      tag_50\n      jumpi\n      mload(0x40)\n      swap2\n      pop\n      and(add(returndatasize, 0x3f), not(0x1f))\n      dup3\n      add\n      0x40\n      mstore\n      returndatasize\n      dup3\n      mstore\n      returndatasize\n      0x00\n      0x20\n      dup5\n      add\n      returndatacopy\n      jump(tag_49)\n    tag_50:\n      0x60\n      swap2\n      pop\n    tag_49:\n      pop\n        /* \"D/doubleSpendingtypes.sol\":2365:2424  (bool success, ) = payable(msg.sender).call{value: bal}(\"\") */\n      pop\n      swap1\n      pop\n        /* \"D/doubleSpendingtypes.sol\":2442:2449  success */\n      dup1\n        /* \"D/doubleSpendingtypes.sol\":2434:2471  require(success, \"Withdrawal failed\") */\n      tag_51\n      jumpi\n      mload(0x40)\n      0x08c379a000000000000000000000000000000000000000000000000000000000\n      dup2\n      mstore\n      0x04\n      add\n      tag_52\n      swap1\n      tag_53\n      jump\t// in\n    tag_52:\n      mload(0x40)\n      dup1\n      swap2\n      sub\n      swap1\n      revert\n    tag_51:\n        /* \"D/doubleSpendingtypes.sol\":2497:2507  msg.sender */\n      caller\n        /* \"D/doubleSpendingtypes.sol\":2487:2513  Withdrawn(msg.sender, bal) */\n      0xffffffffffffffffffffffffffffffffffffffff\n      and\n      0x7084f5476618d8e60b11ef0d7d3f06914655adb8793e28ff7f018d4c76d505d5\n        /* \"D/doubleSpendingtypes.sol\":2509:2512  bal */\n      dup4\n        /* \"D/doubleSpendingtypes.sol\":2487:2513  Withdrawn(msg.sender, bal) */\n      mload(0x40)\n      tag_54\n      swap2\n      swap1\n      tag_16\n      jump\t// in\n    tag_54:\n      mload(0x40)\n      dup1\n      swap2\n      sub\n      swap1\n      log2\n        /* \"D/doubleSpendingtypes.sol\":2226:2520  {... */\n      pop\n      pop\n        /* \"@openzeppelin/contracts/security/ReentrancyGuard.sol\":2303:2323  _nonReentrantAfter() */\n      tag_55\n        /* \"@openzeppelin/contracts/security/ReentrancyGuard.sol\":2303:2321  _nonReentrantAfter */\n      tag_56\n        /* \"@openzeppelin/contracts/security/ReentrancyGuard.sol\":2303:2323  _nonReentrantAfter() */\n      jump\t// in\n    tag_55:\n        /* \"D/doubleSpendingtypes.sol\":2184:2520  function withdraw() external nonReentrant {... */\n      jump\t// out\n        /* \"D/doubleSpendingtypes.sol\":4971:5241  function vector76AttackDemo() external nonReentrant {... */\n    tag_22:\n        /* \"@openzeppelin/contracts/security/ReentrancyGuard.sol\":2261:2282  _nonReentrantBefore() */\n      tag_58\n        /* \"@openzeppelin/contracts/security/ReentrancyGuard.sol\":2261:2280  _nonReentrantBefore */\n      tag_41\n        /* \"@openzeppelin/contracts/security/ReentrancyGuard.sol\":2261:2282  _nonReentrantBefore() */\n      jump\t// in\n    tag_58:\n        /* \"D/doubleSpendingtypes.sol\":5165:5175  msg.sender */\n      caller\n        /* \"D/doubleSpendingtypes.sol\":5140:5234  Vector76AttackSimulation(msg.sender, \"Local on-chain state final from contract's perspective\") */\n      0xffffffffffffffffffffffffffffffffffffffff\n      and\n      0x97f28f08a400937f3152518ab1449f15397bd7ed562b85ab6985818447d6b33d\n      mload(0x40)\n      tag_60\n      swap1\n      tag_61\n      jump\t// in\n    tag_60:\n      mload(0x40)\n      dup1\n      swap2\n      sub\n      swap1\n      log2\n        /* \"@openzeppelin/contracts/security/ReentrancyGuard.sol\":2303:2323  _nonReentrantAfter() */\n      tag_62\n        /* \"@openzeppelin/contracts/security/ReentrancyGuard.sol\":2303:2321  _nonReentrantAfter */\n      tag_56\n        /* \"@openzeppelin/contracts/security/ReentrancyGuard.sol\":2303:2323  _nonReentrantAfter() */\n      jump\t// in\n    tag_62:\n        /* \"D/doubleSpendingtypes.sol\":4971:5241  function vector76AttackDemo() external nonReentrant {... */\n      jump\t// out\n        /* \"D/doubleSpendingtypes.sol\":1137:1199  mapping(address => mapping(uint256 => bool)) public usedNonces */\n    tag_27:\n      mstore(0x20, 0x02)\n      dup2\n      0x00\n      mstore\n      mstore(0x20, keccak256(0x00, 0x40))\n      dup1\n      0x00\n      mstore\n      keccak256(0x00, 0x40)\n      0x00\n      swap2\n      pop\n      swap2\n      pop\n      swap1\n      sload\n      swap1\n      0x0100\n      exp\n      swap1\n      div\n      0xff\n      and\n      dup2\n      jump\t// out\n        /* \"D/doubleSpendingtypes.sol\":4184:4463  function finneyAttackDeposit() external payable nonReentrant {... */\n    tag_31:\n        /* \"@openzeppelin/contracts/security/ReentrancyGuard.sol\":2261:2282  _nonReentrantBefore() */\n      tag_64\n        /* \"@openzeppelin/contracts/security/ReentrancyGuard.sol\":2261:2280  _nonReentrantBefore */\n      tag_41\n        /* \"@openzeppelin/contracts/security/ReentrancyGuard.sol\":2261:2282  _nonReentrantBefore() */\n      jump\t// in\n    tag_64:\n        /* \"D/doubleSpendingtypes.sol\":4275:4276  0 */\n      0x00\n        /* \"D/doubleSpendingtypes.sol\":4263:4272  msg.value */\n      callvalue\n        /* \"D/doubleSpendingtypes.sol\":4263:4276  msg.value > 0 */\n      gt\n        /* \"D/doubleSpendingtypes.sol\":4255:4294  require(msg.value > 0, \"No Ether sent\") */\n      tag_66\n      jumpi\n      mload(0x40)\n      0x08c379a000000000000000000000000000000000000000000000000000000000\n      dup2\n      mstore\n      0x04\n      add\n      tag_67\n      swap1\n      tag_68\n      jump\t// in\n    tag_67:\n      mload(0x40)\n      dup1\n      swap2\n      sub\n      swap1\n      revert\n    tag_66:\n        /* \"D/doubleSpendingtypes.sol\":4328:4337  msg.value */\n      callvalue\n        /* \"D/doubleSpendingtypes.sol\":4304:4312  balances */\n      0x01\n        /* \"D/doubleSpendingtypes.sol\":4304:4324  balances[msg.sender] */\n      0x00\n        /* \"D/doubleSpendingtypes.sol\":4313:4323  msg.sender */\n      caller\n        /* \"D/doubleSpendingtypes.sol\":4304:4324  balances[msg.sender] */\n      0xffffffffffffffffffffffffffffffffffffffff\n      and\n      0xffffffffffffffffffffffffffffffffffffffff\n      and\n      dup2\n      mstore\n      0x20\n      add\n      swap1\n      dup2\n      mstore\n      0x20\n      add\n      0x00\n      keccak256\n      0x00\n        /* \"D/doubleSpendingtypes.sol\":4304:4337  balances[msg.sender] += msg.value */\n      dup3\n      dup3\n      sload\n      tag_69\n      swap2\n      swap1\n      tag_70\n      jump\t// in\n    tag_69:\n      swap3\n      pop\n      pop\n      dup2\n      swap1\n      sstore\n      pop\n        /* \"D/doubleSpendingtypes.sol\":4373:4383  msg.sender */\n      caller\n        /* \"D/doubleSpendingtypes.sol\":4353:4456  FinneyAttackDeposit(msg.sender, msg.value, \"On-chain finality mitigates typical Finney Attack replays\") */\n      0xffffffffffffffffffffffffffffffffffffffff\n      and\n      0xfdfdd5231a3d0b9d8fef4537311e980eff42c7f5df31c0befb02a985cf3c5928\n        /* \"D/doubleSpendingtypes.sol\":4385:4394  msg.value */\n      callvalue\n        /* \"D/doubleSpendingtypes.sol\":4353:4456  FinneyAttackDeposit(msg.sender, msg.value, \"On-chain finality mitigates typical Finney Attack replays\") */\n      mload(0x40)\n      tag_71\n      swap2\n      swap1\n      tag_72\n      jump\t// in\n    tag_71:\n      mload(0x40)\n      dup1\n      swap2\n      sub\n      swap1\n      log2\n        /* \"@openzeppelin/contracts/security/ReentrancyGuard.sol\":2303:2323  _nonReentrantAfter() */\n      tag_73\n        /* \"@openzeppelin/contracts/security/ReentrancyGuard.sol\":2303:2321  _nonReentrantAfter */\n      tag_56\n        /* \"@openzeppelin/contracts/security/ReentrancyGuard.sol\":2303:2323  _nonReentrantAfter() */\n      jump\t// in\n    tag_73:\n        /* \"D/doubleSpendingtypes.sol\":4184:4463  function finneyAttackDeposit() external payable nonReentrant {... */\n      jump\t// out\n        /* \"D/doubleSpendingtypes.sol\":1903:2101  function deposit() external payable nonReentrant {... */\n    tag_33:\n        /* \"@openzeppelin/contracts/security/ReentrancyGuard.sol\":2261:2282  _nonReentrantBefore() */\n      tag_75\n        /* \"@openzeppelin/contracts/security/ReentrancyGuard.sol\":2261:2280  _nonReentrantBefore */\n      tag_41\n        /* \"@openzeppelin/contracts/security/ReentrancyGuard.sol\":2261:2282  _nonReentrantBefore() */\n      jump\t// in\n    tag_75:\n        /* \"D/doubleSpendingtypes.sol\":1982:1983  0 */\n      0x00\n        /* \"D/doubleSpendingtypes.sol\":1970:1979  msg.value */\n      callvalue\n        /* \"D/doubleSpendingtypes.sol\":1970:1983  msg.value > 0 */\n      gt\n        /* \"D/doubleSpendingtypes.sol\":1962:2004  require(msg.value > 0, \"Must deposit > 0\") */\n      tag_77\n      jumpi\n      mload(0x40)\n      0x08c379a000000000000000000000000000000000000000000000000000000000\n      dup2\n      mstore\n      0x04\n      add\n      tag_78\n      swap1\n      tag_79\n      jump\t// in\n    tag_78:\n      mload(0x40)\n      dup1\n      swap2\n      sub\n      swap1\n      revert\n    tag_77:\n        /* \"D/doubleSpendingtypes.sol\":2038:2047  msg.value */\n      callvalue\n        /* \"D/doubleSpendingtypes.sol\":2014:2022  balances */\n      0x01\n        /* \"D/doubleSpendingtypes.sol\":2014:2034  balances[msg.sender] */\n      0x00\n        /* \"D/doubleSpendingtypes.sol\":2023:2033  msg.sender */\n      caller\n        /* \"D/doubleSpendingtypes.sol\":2014:2034  balances[msg.sender] */\n      0xffffffffffffffffffffffffffffffffffffffff\n      and\n      0xffffffffffffffffffffffffffffffffffffffff\n      and\n      dup2\n      mstore\n      0x20\n      add\n      swap1\n      dup2\n      mstore\n      0x20\n      add\n      0x00\n      keccak256\n      0x00\n        /* \"D/doubleSpendingtypes.sol\":2014:2047  balances[msg.sender] += msg.value */\n      dup3\n      dup3\n      sload\n      tag_80\n      swap2\n      swap1\n      tag_70\n      jump\t// in\n    tag_80:\n      swap3\n      pop\n      pop\n      dup2\n      swap1\n      sstore\n      pop\n        /* \"D/doubleSpendingtypes.sol\":2072:2082  msg.sender */\n      caller\n        /* \"D/doubleSpendingtypes.sol\":2062:2094  Deposited(msg.sender, msg.value) */\n      0xffffffffffffffffffffffffffffffffffffffff\n      and\n      0x2da466a7b24304f47e87fa2e1e5a81b9831ce54fec19055ce277ca2f39ba42c4\n        /* \"D/doubleSpendingtypes.sol\":2084:2093  msg.value */\n      callvalue\n        /* \"D/doubleSpendingtypes.sol\":2062:2094  Deposited(msg.sender, msg.value) */\n      mload(0x40)\n      tag_81\n      swap2\n      swap1\n      tag_16\n      jump\t// in\n    tag_81:\n      mload(0x40)\n      dup1\n      swap2\n      sub\n      swap1\n      log2\n        /* \"@openzeppelin/contracts/security/ReentrancyGuard.sol\":2303:2323  _nonReentrantAfter() */\n      tag_82\n        /* \"@openzeppelin/contracts/security/ReentrancyGuard.sol\":2303:2321  _nonReentrantAfter */\n      tag_56\n        /* \"@openzeppelin/contracts/security/ReentrancyGuard.sol\":2303:2323  _nonReentrantAfter() */\n      jump\t// in\n    tag_82:\n        /* \"D/doubleSpendingtypes.sol\":1903:2101  function deposit() external payable nonReentrant {... */\n      jump\t// out\n        /* \"D/doubleSpendingtypes.sol\":2993:3704  function raceAttackSpend(uint256 amount, uint256 nonce) external nonReentrant {... */\n    tag_38:\n        /* \"@openzeppelin/contracts/security/ReentrancyGuard.sol\":2261:2282  _nonReentrantBefore() */\n      tag_84\n        /* \"@openzeppelin/contracts/security/ReentrancyGuard.sol\":2261:2280  _nonReentrantBefore */\n      tag_41\n        /* \"@openzeppelin/contracts/security/ReentrancyGuard.sol\":2261:2282  _nonReentrantBefore() */\n      jump\t// in\n    tag_84:\n        /* \"D/doubleSpendingtypes.sol\":3098:3099  0 */\n      0x00\n        /* \"D/doubleSpendingtypes.sol\":3089:3095  amount */\n      dup3\n        /* \"D/doubleSpendingtypes.sol\":3089:3099  amount > 0 */\n      gt\n        /* \"D/doubleSpendingtypes.sol\":3081:3128  require(amount > 0, \"Spend amount must be > 0\") */\n      tag_86\n      jumpi\n      mload(0x40)\n      0x08c379a000000000000000000000000000000000000000000000000000000000\n      dup2\n      mstore\n      0x04\n      add\n      tag_87\n      swap1\n      tag_88\n      jump\t// in\n    tag_87:\n      mload(0x40)\n      dup1\n      swap2\n      sub\n      swap1\n      revert\n    tag_86:\n        /* \"D/doubleSpendingtypes.sol\":3170:3176  amount */\n      dup2\n        /* \"D/doubleSpendingtypes.sol\":3146:3154  balances */\n      0x01\n        /* \"D/doubleSpendingtypes.sol\":3146:3166  balances[msg.sender] */\n      0x00\n        /* \"D/doubleSpendingtypes.sol\":3155:3165  msg.sender */\n      caller\n        /* \"D/doubleSpendingtypes.sol\":3146:3166  balances[msg.sender] */\n      0xffffffffffffffffffffffffffffffffffffffff\n      and\n      0xffffffffffffffffffffffffffffffffffffffff\n      and\n      dup2\n      mstore\n      0x20\n      add\n      swap1\n      dup2\n      mstore\n      0x20\n      add\n      0x00\n      keccak256\n      sload\n        /* \"D/doubleSpendingtypes.sol\":3146:3176  balances[msg.sender] >= amount */\n      lt\n      iszero\n        /* \"D/doubleSpendingtypes.sol\":3138:3201  require(balances[msg.sender] >= amount, \"Insufficient balance\") */\n      tag_89\n      jumpi\n      mload(0x40)\n      0x08c379a000000000000000000000000000000000000000000000000000000000\n      dup2\n      mstore\n      0x04\n      add\n      tag_90\n      swap1\n      tag_91\n      jump\t// in\n    tag_90:\n      mload(0x40)\n      dup1\n      swap2\n      sub\n      swap1\n      revert\n    tag_89:\n        /* \"D/doubleSpendingtypes.sol\":3220:3230  usedNonces */\n      0x02\n        /* \"D/doubleSpendingtypes.sol\":3220:3242  usedNonces[msg.sender] */\n      0x00\n        /* \"D/doubleSpendingtypes.sol\":3231:3241  msg.sender */\n      caller\n        /* \"D/doubleSpendingtypes.sol\":3220:3242  usedNonces[msg.sender] */\n      0xffffffffffffffffffffffffffffffffffffffff\n      and\n      0xffffffffffffffffffffffffffffffffffffffff\n      and\n      dup2\n      mstore\n      0x20\n      add\n      swap1\n      dup2\n      mstore\n      0x20\n      add\n      0x00\n      keccak256\n        /* \"D/doubleSpendingtypes.sol\":3220:3249  usedNonces[msg.sender][nonce] */\n      0x00\n        /* \"D/doubleSpendingtypes.sol\":3243:3248  nonce */\n      dup3\n        /* \"D/doubleSpendingtypes.sol\":3220:3249  usedNonces[msg.sender][nonce] */\n      dup2\n      mstore\n      0x20\n      add\n      swap1\n      dup2\n      mstore\n      0x20\n      add\n      0x00\n      keccak256\n      0x00\n      swap1\n      sload\n      swap1\n      0x0100\n      exp\n      swap1\n      div\n      0xff\n      and\n        /* \"D/doubleSpendingtypes.sol\":3219:3249  !usedNonces[msg.sender][nonce] */\n      iszero\n        /* \"D/doubleSpendingtypes.sol\":3211:3295  require(!usedNonces[msg.sender][nonce], \"Nonce already used (race attack attempt?)\") */\n      tag_92\n      jumpi\n      mload(0x40)\n      0x08c379a000000000000000000000000000000000000000000000000000000000\n      dup2\n      mstore\n      0x04\n      add\n      tag_93\n      swap1\n      tag_94\n      jump\t// in\n    tag_93:\n      mload(0x40)\n      dup1\n      swap2\n      sub\n      swap1\n      revert\n    tag_92:\n        /* \"D/doubleSpendingtypes.sol\":3368:3372  true */\n      0x01\n        /* \"D/doubleSpendingtypes.sol\":3336:3346  usedNonces */\n      0x02\n        /* \"D/doubleSpendingtypes.sol\":3336:3358  usedNonces[msg.sender] */\n      0x00\n        /* \"D/doubleSpendingtypes.sol\":3347:3357  msg.sender */\n      caller\n        /* \"D/doubleSpendingtypes.sol\":3336:3358  usedNonces[msg.sender] */\n      0xffffffffffffffffffffffffffffffffffffffff\n      and\n      0xffffffffffffffffffffffffffffffffffffffff\n      and\n      dup2\n      mstore\n      0x20\n      add\n      swap1\n      dup2\n      mstore\n      0x20\n      add\n      0x00\n      keccak256\n        /* \"D/doubleSpendingtypes.sol\":3336:3365  usedNonces[msg.sender][nonce] */\n      0x00\n        /* \"D/doubleSpendingtypes.sol\":3359:3364  nonce */\n      dup4\n        /* \"D/doubleSpendingtypes.sol\":3336:3365  usedNonces[msg.sender][nonce] */\n      dup2\n      mstore\n      0x20\n      add\n      swap1\n      dup2\n      mstore\n      0x20\n      add\n      0x00\n      keccak256\n      0x00\n        /* \"D/doubleSpendingtypes.sol\":3336:3372  usedNonces[msg.sender][nonce] = true */\n      0x0100\n      exp\n      dup2\n      sload\n      dup2\n      0xff\n      mul\n      not\n      and\n      swap1\n      dup4\n      iszero\n      iszero\n      mul\n      or\n      swap1\n      sstore\n      pop\n        /* \"D/doubleSpendingtypes.sol\":3456:3462  amount */\n      dup2\n        /* \"D/doubleSpendingtypes.sol\":3432:3440  balances */\n      0x01\n        /* \"D/doubleSpendingtypes.sol\":3432:3452  balances[msg.sender] */\n      0x00\n        /* \"D/doubleSpendingtypes.sol\":3441:3451  msg.sender */\n      caller\n        /* \"D/doubleSpendingtypes.sol\":3432:3452  balances[msg.sender] */\n      0xffffffffffffffffffffffffffffffffffffffff\n      and\n      0xffffffffffffffffffffffffffffffffffffffff\n      and\n      dup2\n      mstore\n      0x20\n      add\n      swap1\n      dup2\n      mstore\n      0x20\n      add\n      0x00\n      keccak256\n      0x00\n        /* \"D/doubleSpendingtypes.sol\":3432:3462  balances[msg.sender] -= amount */\n      dup3\n      dup3\n      sload\n      tag_95\n      swap2\n      swap1\n      tag_96\n      jump\t// in\n    tag_95:\n      swap3\n      pop\n      pop\n      dup2\n      swap1\n      sstore\n      pop\n        /* \"D/doubleSpendingtypes.sol\":3615:3625  msg.sender */\n      caller\n        /* \"D/doubleSpendingtypes.sol\":3599:3697  RaceAttackSpend(msg.sender, amount, nonce, \"Race Attack spend with nonce-based replay prevention\") */\n      0xffffffffffffffffffffffffffffffffffffffff\n      and\n      0x45f858e3a4e321bc6c114bf4bf83692bbbe7cdbd7905989376c1249da43f6712\n        /* \"D/doubleSpendingtypes.sol\":3627:3633  amount */\n      dup4\n        /* \"D/doubleSpendingtypes.sol\":3635:3640  nonce */\n      dup4\n        /* \"D/doubleSpendingtypes.sol\":3599:3697  RaceAttackSpend(msg.sender, amount, nonce, \"Race Attack spend with nonce-based replay prevention\") */\n      mload(0x40)\n      tag_97\n      swap3\n      swap2\n      swap1\n      tag_98\n      jump\t// in\n    tag_97:\n      mload(0x40)\n      dup1\n      swap2\n      sub\n      swap1\n      log2\n        /* \"@openzeppelin/contracts/security/ReentrancyGuard.sol\":2303:2323  _nonReentrantAfter() */\n      tag_99\n        /* \"@openzeppelin/contracts/security/ReentrancyGuard.sol\":2303:2321  _nonReentrantAfter */\n      tag_56\n        /* \"@openzeppelin/contracts/security/ReentrancyGuard.sol\":2303:2323  _nonReentrantAfter() */\n      jump\t// in\n    tag_99:\n        /* \"D/doubleSpendingtypes.sol\":2993:3704  function raceAttackSpend(uint256 amount, uint256 nonce) external nonReentrant {... */\n      pop\n      pop\n      jump\t// out\n        /* \"@openzeppelin/contracts/security/ReentrancyGuard.sol\":2336:2623  function _nonReentrantBefore() private {... */\n    tag_41:\n        /* \"@openzeppelin/contracts/security/ReentrancyGuard.sol\":1759:1760  2 */\n      0x02\n        /* \"@openzeppelin/contracts/security/ReentrancyGuard.sol\":2468:2475  _status */\n      sload(0x00)\n        /* \"@openzeppelin/contracts/security/ReentrancyGuard.sol\":2468:2487  _status != _ENTERED */\n      sub\n        /* \"@openzeppelin/contracts/security/ReentrancyGuard.sol\":2460:2523  require(_status != _ENTERED, \"ReentrancyGuard: reentrant call\") */\n      tag_101\n      jumpi\n      mload(0x40)\n      0x08c379a000000000000000000000000000000000000000000000000000000000\n      dup2\n      mstore\n      0x04\n      add\n      tag_102\n      swap1\n      tag_103\n      jump\t// in\n    tag_102:\n      mload(0x40)\n      dup1\n      swap2\n      sub\n      swap1\n      revert\n    tag_101:\n        /* \"@openzeppelin/contracts/security/ReentrancyGuard.sol\":1759:1760  2 */\n      0x02\n        /* \"@openzeppelin/contracts/security/ReentrancyGuard.sol\":2598:2605  _status */\n      0x00\n        /* \"@openzeppelin/contracts/security/ReentrancyGuard.sol\":2598:2616  _status = _ENTERED */\n      dup2\n      swap1\n      sstore\n      pop\n        /* \"@openzeppelin/contracts/security/ReentrancyGuard.sol\":2336:2623  function _nonReentrantBefore() private {... */\n      jump\t// out\n        /* \"@openzeppelin/contracts/security/ReentrancyGuard.sol\":2629:2838  function _nonReentrantAfter() private {... */\n    tag_56:\n        /* \"@openzeppelin/contracts/security/ReentrancyGuard.sol\":1716:1717  1 */\n      0x01\n        /* \"@openzeppelin/contracts/security/ReentrancyGuard.sol\":2809:2816  _status */\n      0x00\n        /* \"@openzeppelin/contracts/security/ReentrancyGuard.sol\":2809:2831  _status = _NOT_ENTERED */\n      dup2\n      swap1\n      sstore\n      pop\n        /* \"@openzeppelin/contracts/security/ReentrancyGuard.sol\":2629:2838  function _nonReentrantAfter() private {... */\n      jump\t// out\n        /* \"#utility.yul\":88:205   */\n    tag_106:\n        /* \"#utility.yul\":197:198   */\n      0x00\n        /* \"#utility.yul\":194:195   */\n      0x00\n        /* \"#utility.yul\":187:199   */\n      revert\n        /* \"#utility.yul\":334:460   */\n    tag_108:\n        /* \"#utility.yul\":371:378   */\n      0x00\n        /* \"#utility.yul\":411:453   */\n      0xffffffffffffffffffffffffffffffffffffffff\n        /* \"#utility.yul\":404:409   */\n      dup3\n        /* \"#utility.yul\":400:454   */\n      and\n        /* \"#utility.yul\":389:454   */\n      swap1\n      pop\n        /* \"#utility.yul\":334:460   */\n      swap2\n      swap1\n      pop\n      jump\t// out\n        /* \"#utility.yul\":466:562   */\n    tag_109:\n        /* \"#utility.yul\":503:510   */\n      0x00\n        /* \"#utility.yul\":532:556   */\n      tag_151\n        /* \"#utility.yul\":550:555   */\n      dup3\n        /* \"#utility.yul\":532:556   */\n      tag_108\n      jump\t// in\n    tag_151:\n        /* \"#utility.yul\":521:556   */\n      swap1\n      pop\n        /* \"#utility.yul\":466:562   */\n      swap2\n      swap1\n      pop\n      jump\t// out\n        /* \"#utility.yul\":568:690   */\n    tag_110:\n        /* \"#utility.yul\":641:665   */\n      tag_153\n        /* \"#utility.yul\":659:664   */\n      dup2\n        /* \"#utility.yul\":641:665   */\n      tag_109\n      jump\t// in\n    tag_153:\n        /* \"#utility.yul\":634:639   */\n      dup2\n        /* \"#utility.yul\":631:666   */\n      eq\n        /* \"#utility.yul\":621:684   */\n      tag_154\n      jumpi\n        /* \"#utility.yul\":680:681   */\n      0x00\n        /* \"#utility.yul\":677:678   */\n      0x00\n        /* \"#utility.yul\":670:682   */\n      revert\n        /* \"#utility.yul\":621:684   */\n    tag_154:\n        /* \"#utility.yul\":568:690   */\n      pop\n      jump\t// out\n        /* \"#utility.yul\":696:835   */\n    tag_111:\n        /* \"#utility.yul\":742:747   */\n      0x00\n        /* \"#utility.yul\":780:786   */\n      dup2\n        /* \"#utility.yul\":767:787   */\n      calldataload\n        /* \"#utility.yul\":758:787   */\n      swap1\n      pop\n        /* \"#utility.yul\":796:829   */\n      tag_156\n        /* \"#utility.yul\":823:828   */\n      dup2\n        /* \"#utility.yul\":796:829   */\n      tag_110\n      jump\t// in\n    tag_156:\n        /* \"#utility.yul\":696:835   */\n      swap3\n      swap2\n      pop\n      pop\n      jump\t// out\n        /* \"#utility.yul\":841:1170   */\n    tag_13:\n        /* \"#utility.yul\":900:906   */\n      0x00\n        /* \"#utility.yul\":949:951   */\n      0x20\n        /* \"#utility.yul\":937:946   */\n      dup3\n        /* \"#utility.yul\":928:935   */\n      dup5\n        /* \"#utility.yul\":924:947   */\n      sub\n        /* \"#utility.yul\":920:952   */\n      slt\n        /* \"#utility.yul\":917:1036   */\n      iszero\n      tag_158\n      jumpi\n        /* \"#utility.yul\":955:1034   */\n      tag_159\n      tag_106\n      jump\t// in\n    tag_159:\n        /* \"#utility.yul\":917:1036   */\n    tag_158:\n        /* \"#utility.yul\":1075:1076   */\n      0x00\n        /* \"#utility.yul\":1100:1153   */\n      tag_160\n        /* \"#utility.yul\":1145:1152   */\n      dup5\n        /* \"#utility.yul\":1136:1142   */\n      dup3\n        /* \"#utility.yul\":1125:1134   */\n      dup6\n        /* \"#utility.yul\":1121:1143   */\n      add\n        /* \"#utility.yul\":1100:1153   */\n      tag_111\n      jump\t// in\n    tag_160:\n        /* \"#utility.yul\":1090:1153   */\n      swap2\n      pop\n        /* \"#utility.yul\":1046:1163   */\n      pop\n        /* \"#utility.yul\":841:1170   */\n      swap3\n      swap2\n      pop\n      pop\n      jump\t// out\n        /* \"#utility.yul\":1176:1253   */\n    tag_112:\n        /* \"#utility.yul\":1213:1220   */\n      0x00\n        /* \"#utility.yul\":1242:1247   */\n      dup2\n        /* \"#utility.yul\":1231:1247   */\n      swap1\n      pop\n        /* \"#utility.yul\":1176:1253   */\n      swap2\n      swap1\n      pop\n      jump\t// out\n        /* \"#utility.yul\":1259:1377   */\n    tag_113:\n        /* \"#utility.yul\":1346:1370   */\n      tag_163\n        /* \"#utility.yul\":1364:1369   */\n      dup2\n        /* \"#utility.yul\":1346:1370   */\n      tag_112\n      jump\t// in\n    tag_163:\n        /* \"#utility.yul\":1341:1344   */\n      dup3\n        /* \"#utility.yul\":1334:1371   */\n      mstore\n        /* \"#utility.yul\":1259:1377   */\n      pop\n      pop\n      jump\t// out\n        /* \"#utility.yul\":1383:1605   */\n    tag_16:\n        /* \"#utility.yul\":1476:1480   */\n      0x00\n        /* \"#utility.yul\":1514:1516   */\n      0x20\n        /* \"#utility.yul\":1503:1512   */\n      dup3\n        /* \"#utility.yul\":1499:1517   */\n      add\n        /* \"#utility.yul\":1491:1517   */\n      swap1\n      pop\n        /* \"#utility.yul\":1527:1598   */\n      tag_165\n        /* \"#utility.yul\":1595:1596   */\n      0x00\n        /* \"#utility.yul\":1584:1593   */\n      dup4\n        /* \"#utility.yul\":1580:1597   */\n      add\n        /* \"#utility.yul\":1571:1577   */\n      dup5\n        /* \"#utility.yul\":1527:1598   */\n      tag_113\n      jump\t// in\n    tag_165:\n        /* \"#utility.yul\":1383:1605   */\n      swap3\n      swap2\n      pop\n      pop\n      jump\t// out\n        /* \"#utility.yul\":1611:1733   */\n    tag_114:\n        /* \"#utility.yul\":1684:1708   */\n      tag_167\n        /* \"#utility.yul\":1702:1707   */\n      dup2\n        /* \"#utility.yul\":1684:1708   */\n      tag_112\n      jump\t// in\n    tag_167:\n        /* \"#utility.yul\":1677:1682   */\n      dup2\n        /* \"#utility.yul\":1674:1709   */\n      eq\n        /* \"#utility.yul\":1664:1727   */\n      tag_168\n      jumpi\n        /* \"#utility.yul\":1723:1724   */\n      0x00\n        /* \"#utility.yul\":1720:1721   */\n      0x00\n        /* \"#utility.yul\":1713:1725   */\n      revert\n        /* \"#utility.yul\":1664:1727   */\n    tag_168:\n        /* \"#utility.yul\":1611:1733   */\n      pop\n      jump\t// out\n        /* \"#utility.yul\":1739:1878   */\n    tag_115:\n        /* \"#utility.yul\":1785:1790   */\n      0x00\n        /* \"#utility.yul\":1823:1829   */\n      dup2\n        /* \"#utility.yul\":1810:1830   */\n      calldataload\n        /* \"#utility.yul\":1801:1830   */\n      swap1\n      pop\n        /* \"#utility.yul\":1839:1872   */\n      tag_170\n        /* \"#utility.yul\":1866:1871   */\n      dup2\n        /* \"#utility.yul\":1839:1872   */\n      tag_114\n      jump\t// in\n    tag_170:\n        /* \"#utility.yul\":1739:1878   */\n      swap3\n      swap2\n      pop\n      pop\n      jump\t// out\n        /* \"#utility.yul\":1884:2358   */\n    tag_26:\n        /* \"#utility.yul\":1952:1958   */\n      0x00\n        /* \"#utility.yul\":1960:1966   */\n      0x00\n        /* \"#utility.yul\":2009:2011   */\n      0x40\n        /* \"#utility.yul\":1997:2006   */\n      dup4\n        /* \"#utility.yul\":1988:1995   */\n      dup6\n        /* \"#utility.yul\":1984:2007   */\n      sub\n        /* \"#utility.yul\":1980:2012   */\n      slt\n        /* \"#utility.yul\":1977:2096   */\n      iszero\n      tag_172\n      jumpi\n        /* \"#utility.yul\":2015:2094   */\n      tag_173\n      tag_106\n      jump\t// in\n    tag_173:\n        /* \"#utility.yul\":1977:2096   */\n    tag_172:\n        /* \"#utility.yul\":2135:2136   */\n      0x00\n        /* \"#utility.yul\":2160:2213   */\n      tag_174\n        /* \"#utility.yul\":2205:2212   */\n      dup6\n        /* \"#utility.yul\":2196:2202   */\n      dup3\n        /* \"#utility.yul\":2185:2194   */\n      dup7\n        /* \"#utility.yul\":2181:2203   */\n      add\n        /* \"#utility.yul\":2160:2213   */\n      tag_111\n      jump\t// in\n    tag_174:\n        /* \"#utility.yul\":2150:2213   */\n      swap3\n      pop\n        /* \"#utility.yul\":2106:2223   */\n      pop\n        /* \"#utility.yul\":2262:2264   */\n      0x20\n        /* \"#utility.yul\":2288:2341   */\n      tag_175\n        /* \"#utility.yul\":2333:2340   */\n      dup6\n        /* \"#utility.yul\":2324:2330   */\n      dup3\n        /* \"#utility.yul\":2313:2322   */\n      dup7\n        /* \"#utility.yul\":2309:2331   */\n      add\n        /* \"#utility.yul\":2288:2341   */\n      tag_115\n      jump\t// in\n    tag_175:\n        /* \"#utility.yul\":2278:2341   */\n      swap2\n      pop\n        /* \"#utility.yul\":2233:2351   */\n      pop\n        /* \"#utility.yul\":1884:2358   */\n      swap3\n      pop\n      swap3\n      swap1\n      pop\n      jump\t// out\n        /* \"#utility.yul\":2364:2454   */\n    tag_116:\n        /* \"#utility.yul\":2398:2405   */\n      0x00\n        /* \"#utility.yul\":2441:2446   */\n      dup2\n        /* \"#utility.yul\":2434:2447   */\n      iszero\n        /* \"#utility.yul\":2427:2448   */\n      iszero\n        /* \"#utility.yul\":2416:2448   */\n      swap1\n      pop\n        /* \"#utility.yul\":2364:2454   */\n      swap2\n      swap1\n      pop\n      jump\t// out\n        /* \"#utility.yul\":2460:2569   */\n    tag_117:\n        /* \"#utility.yul\":2541:2562   */\n      tag_178\n        /* \"#utility.yul\":2556:2561   */\n      dup2\n        /* \"#utility.yul\":2541:2562   */\n      tag_116\n      jump\t// in\n    tag_178:\n        /* \"#utility.yul\":2536:2539   */\n      dup3\n        /* \"#utility.yul\":2529:2563   */\n      mstore\n        /* \"#utility.yul\":2460:2569   */\n      pop\n      pop\n      jump\t// out\n        /* \"#utility.yul\":2575:2785   */\n    tag_29:\n        /* \"#utility.yul\":2662:2666   */\n      0x00\n        /* \"#utility.yul\":2700:2702   */\n      0x20\n        /* \"#utility.yul\":2689:2698   */\n      dup3\n        /* \"#utility.yul\":2685:2703   */\n      add\n        /* \"#utility.yul\":2677:2703   */\n      swap1\n      pop\n        /* \"#utility.yul\":2713:2778   */\n      tag_180\n        /* \"#utility.yul\":2775:2776   */\n      0x00\n        /* \"#utility.yul\":2764:2773   */\n      dup4\n        /* \"#utility.yul\":2760:2777   */\n      add\n        /* \"#utility.yul\":2751:2757   */\n      dup5\n        /* \"#utility.yul\":2713:2778   */\n      tag_117\n      jump\t// in\n    tag_180:\n        /* \"#utility.yul\":2575:2785   */\n      swap3\n      swap2\n      pop\n      pop\n      jump\t// out\n        /* \"#utility.yul\":2791:3265   */\n    tag_37:\n        /* \"#utility.yul\":2859:2865   */\n      0x00\n        /* \"#utility.yul\":2867:2873   */\n      0x00\n        /* \"#utility.yul\":2916:2918   */\n      0x40\n        /* \"#utility.yul\":2904:2913   */\n      dup4\n        /* \"#utility.yul\":2895:2902   */\n      dup6\n        /* \"#utility.yul\":2891:2914   */\n      sub\n        /* \"#utility.yul\":2887:2919   */\n      slt\n        /* \"#utility.yul\":2884:3003   */\n      iszero\n      tag_182\n      jumpi\n        /* \"#utility.yul\":2922:3001   */\n      tag_183\n      tag_106\n      jump\t// in\n    tag_183:\n        /* \"#utility.yul\":2884:3003   */\n    tag_182:\n        /* \"#utility.yul\":3042:3043   */\n      0x00\n        /* \"#utility.yul\":3067:3120   */\n      tag_184\n        /* \"#utility.yul\":3112:3119   */\n      dup6\n        /* \"#utility.yul\":3103:3109   */\n      dup3\n        /* \"#utility.yul\":3092:3101   */\n      dup7\n        /* \"#utility.yul\":3088:3110   */\n      add\n        /* \"#utility.yul\":3067:3120   */\n      tag_115\n      jump\t// in\n    tag_184:\n        /* \"#utility.yul\":3057:3120   */\n      swap3\n      pop\n        /* \"#utility.yul\":3013:3130   */\n      pop\n        /* \"#utility.yul\":3169:3171   */\n      0x20\n        /* \"#utility.yul\":3195:3248   */\n      tag_185\n        /* \"#utility.yul\":3240:3247   */\n      dup6\n        /* \"#utility.yul\":3231:3237   */\n      dup3\n        /* \"#utility.yul\":3220:3229   */\n      dup7\n        /* \"#utility.yul\":3216:3238   */\n      add\n        /* \"#utility.yul\":3195:3248   */\n      tag_115\n      jump\t// in\n    tag_185:\n        /* \"#utility.yul\":3185:3248   */\n      swap2\n      pop\n        /* \"#utility.yul\":3140:3258   */\n      pop\n        /* \"#utility.yul\":2791:3265   */\n      swap3\n      pop\n      swap3\n      swap1\n      pop\n      jump\t// out\n        /* \"#utility.yul\":3271:3440   */\n    tag_118:\n        /* \"#utility.yul\":3355:3366   */\n      0x00\n        /* \"#utility.yul\":3389:3395   */\n      dup3\n        /* \"#utility.yul\":3384:3387   */\n      dup3\n        /* \"#utility.yul\":3377:3396   */\n      mstore\n        /* \"#utility.yul\":3429:3433   */\n      0x20\n        /* \"#utility.yul\":3424:3427   */\n      dup3\n        /* \"#utility.yul\":3420:3434   */\n      add\n        /* \"#utility.yul\":3405:3434   */\n      swap1\n      pop\n        /* \"#utility.yul\":3271:3440   */\n      swap3\n      swap2\n      pop\n      pop\n      jump\t// out\n        /* \"#utility.yul\":3446:3616   */\n    tag_119:\n        /* \"#utility.yul\":3586:3608   */\n      0x4e6f2066756e647320746f207769746864726177000000000000000000000000\n        /* \"#utility.yul\":3582:3583   */\n      0x00\n        /* \"#utility.yul\":3574:3580   */\n      dup3\n        /* \"#utility.yul\":3570:3584   */\n      add\n        /* \"#utility.yul\":3563:3609   */\n      mstore\n        /* \"#utility.yul\":3446:3616   */\n      pop\n      jump\t// out\n        /* \"#utility.yul\":3622:3988   */\n    tag_120:\n        /* \"#utility.yul\":3764:3767   */\n      0x00\n        /* \"#utility.yul\":3785:3852   */\n      tag_189\n        /* \"#utility.yul\":3849:3851   */\n      0x14\n        /* \"#utility.yul\":3844:3847   */\n      dup4\n        /* \"#utility.yul\":3785:3852   */\n      tag_118\n      jump\t// in\n    tag_189:\n        /* \"#utility.yul\":3778:3852   */\n      swap2\n      pop\n        /* \"#utility.yul\":3861:3954   */\n      tag_190\n        /* \"#utility.yul\":3950:3953   */\n      dup3\n        /* \"#utility.yul\":3861:3954   */\n      tag_119\n      jump\t// in\n    tag_190:\n        /* \"#utility.yul\":3979:3981   */\n      0x20\n        /* \"#utility.yul\":3974:3977   */\n      dup3\n        /* \"#utility.yul\":3970:3982   */\n      add\n        /* \"#utility.yul\":3963:3982   */\n      swap1\n      pop\n        /* \"#utility.yul\":3622:3988   */\n      swap2\n      swap1\n      pop\n      jump\t// out\n        /* \"#utility.yul\":3994:4413   */\n    tag_45:\n        /* \"#utility.yul\":4160:4164   */\n      0x00\n        /* \"#utility.yul\":4198:4200   */\n      0x20\n        /* \"#utility.yul\":4187:4196   */\n      dup3\n        /* \"#utility.yul\":4183:4201   */\n      add\n        /* \"#utility.yul\":4175:4201   */\n      swap1\n      pop\n        /* \"#utility.yul\":4247:4256   */\n      dup2\n        /* \"#utility.yul\":4241:4245   */\n      dup2\n        /* \"#utility.yul\":4237:4257   */\n      sub\n        /* \"#utility.yul\":4233:4234   */\n      0x00\n        /* \"#utility.yul\":4222:4231   */\n      dup4\n        /* \"#utility.yul\":4218:4235   */\n      add\n        /* \"#utility.yul\":4211:4258   */\n      mstore\n        /* \"#utility.yul\":4275:4406   */\n      tag_192\n        /* \"#utility.yul\":4401:4405   */\n      dup2\n        /* \"#utility.yul\":4275:4406   */\n      tag_120\n      jump\t// in\n    tag_192:\n        /* \"#utility.yul\":4267:4406   */\n      swap1\n      pop\n        /* \"#utility.yul\":3994:4413   */\n      swap2\n      swap1\n      pop\n      jump\t// out\n        /* \"#utility.yul\":4419:4566   */\n    tag_121:\n        /* \"#utility.yul\":4520:4531   */\n      0x00\n        /* \"#utility.yul\":4557:4560   */\n      dup2\n        /* \"#utility.yul\":4542:4560   */\n      swap1\n      pop\n        /* \"#utility.yul\":4419:4566   */\n      swap3\n      swap2\n      pop\n      pop\n      jump\t// out\n        /* \"#utility.yul\":4572:4686   */\n    tag_122:\n      pop\n      jump\t// out\n        /* \"#utility.yul\":4692:5090   */\n    tag_123:\n        /* \"#utility.yul\":4851:4854   */\n      0x00\n        /* \"#utility.yul\":4872:4955   */\n      tag_196\n        /* \"#utility.yul\":4953:4954   */\n      0x00\n        /* \"#utility.yul\":4948:4951   */\n      dup4\n        /* \"#utility.yul\":4872:4955   */\n      tag_121\n      jump\t// in\n    tag_196:\n        /* \"#utility.yul\":4865:4955   */\n      swap2\n      pop\n        /* \"#utility.yul\":4964:5057   */\n      tag_197\n        /* \"#utility.yul\":5053:5056   */\n      dup3\n        /* \"#utility.yul\":4964:5057   */\n      tag_122\n      jump\t// in\n    tag_197:\n        /* \"#utility.yul\":5082:5083   */\n      0x00\n        /* \"#utility.yul\":5077:5080   */\n      dup3\n        /* \"#utility.yul\":5073:5084   */\n      add\n        /* \"#utility.yul\":5066:5084   */\n      swap1\n      pop\n        /* \"#utility.yul\":4692:5090   */\n      swap2\n      swap1\n      pop\n      jump\t// out\n        /* \"#utility.yul\":5096:5475   */\n    tag_47:\n        /* \"#utility.yul\":5280:5283   */\n      0x00\n        /* \"#utility.yul\":5302:5449   */\n      tag_199\n        /* \"#utility.yul\":5445:5448   */\n      dup3\n        /* \"#utility.yul\":5302:5449   */\n      tag_123\n      jump\t// in\n    tag_199:\n        /* \"#utility.yul\":5295:5449   */\n      swap2\n      pop\n        /* \"#utility.yul\":5466:5469   */\n      dup2\n        /* \"#utility.yul\":5459:5469   */\n      swap1\n      pop\n        /* \"#utility.yul\":5096:5475   */\n      swap2\n      swap1\n      pop\n      jump\t// out\n        /* \"#utility.yul\":5481:5648   */\n    tag_124:\n        /* \"#utility.yul\":5621:5640   */\n      0x5769746864726177616c206661696c6564000000000000000000000000000000\n        /* \"#utility.yul\":5617:5618   */\n      0x00\n        /* \"#utility.yul\":5609:5615   */\n      dup3\n        /* \"#utility.yul\":5605:5619   */\n      add\n        /* \"#utility.yul\":5598:5641   */\n      mstore\n        /* \"#utility.yul\":5481:5648   */\n      pop\n      jump\t// out\n        /* \"#utility.yul\":5654:6020   */\n    tag_125:\n        /* \"#utility.yul\":5796:5799   */\n      0x00\n        /* \"#utility.yul\":5817:5884   */\n      tag_202\n        /* \"#utility.yul\":5881:5883   */\n      0x11\n        /* \"#utility.yul\":5876:5879   */\n      dup4\n        /* \"#utility.yul\":5817:5884   */\n      tag_118\n      jump\t// in\n    tag_202:\n        /* \"#utility.yul\":5810:5884   */\n      swap2\n      pop\n        /* \"#utility.yul\":5893:5986   */\n      tag_203\n        /* \"#utility.yul\":5982:5985   */\n      dup3\n        /* \"#utility.yul\":5893:5986   */\n      tag_124\n      jump\t// in\n    tag_203:\n        /* \"#utility.yul\":6011:6013   */\n      0x20\n        /* \"#utility.yul\":6006:6009   */\n      dup3\n        /* \"#utility.yul\":6002:6014   */\n      add\n        /* \"#utility.yul\":5995:6014   */\n      swap1\n      pop\n        /* \"#utility.yul\":5654:6020   */\n      swap2\n      swap1\n      pop\n      jump\t// out\n        /* \"#utility.yul\":6026:6445   */\n    tag_53:\n        /* \"#utility.yul\":6192:6196   */\n      0x00\n        /* \"#utility.yul\":6230:6232   */\n      0x20\n        /* \"#utility.yul\":6219:6228   */\n      dup3\n        /* \"#utility.yul\":6215:6233   */\n      add\n        /* \"#utility.yul\":6207:6233   */\n      swap1\n      pop\n        /* \"#utility.yul\":6279:6288   */\n      dup2\n        /* \"#utility.yul\":6273:6277   */\n      dup2\n        /* \"#utility.yul\":6269:6289   */\n      sub\n        /* \"#utility.yul\":6265:6266   */\n      0x00\n        /* \"#utility.yul\":6254:6263   */\n      dup4\n        /* \"#utility.yul\":6250:6267   */\n      add\n        /* \"#utility.yul\":6243:6290   */\n      mstore\n        /* \"#utility.yul\":6307:6438   */\n      tag_205\n        /* \"#utility.yul\":6433:6437   */\n      dup2\n        /* \"#utility.yul\":6307:6438   */\n      tag_125\n      jump\t// in\n    tag_205:\n        /* \"#utility.yul\":6299:6438   */\n      swap1\n      pop\n        /* \"#utility.yul\":6026:6445   */\n      swap2\n      swap1\n      pop\n      jump\t// out\n        /* \"#utility.yul\":6451:6692   */\n    tag_126:\n        /* \"#utility.yul\":6591:6625   */\n      0x4c6f63616c206f6e2d636861696e2073746174652066696e616c2066726f6d20\n        /* \"#utility.yul\":6587:6588   */\n      0x00\n        /* \"#utility.yul\":6579:6585   */\n      dup3\n        /* \"#utility.yul\":6575:6589   */\n      add\n        /* \"#utility.yul\":6568:6626   */\n      mstore\n        /* \"#utility.yul\":6660:6684   */\n      0x636f6e7472616374277320706572737065637469766500000000000000000000\n        /* \"#utility.yul\":6655:6657   */\n      0x20\n        /* \"#utility.yul\":6647:6653   */\n      dup3\n        /* \"#utility.yul\":6643:6658   */\n      add\n        /* \"#utility.yul\":6636:6685   */\n      mstore\n        /* \"#utility.yul\":6451:6692   */\n      pop\n      jump\t// out\n        /* \"#utility.yul\":6698:7064   */\n    tag_127:\n        /* \"#utility.yul\":6840:6843   */\n      0x00\n        /* \"#utility.yul\":6861:6928   */\n      tag_208\n        /* \"#utility.yul\":6925:6927   */\n      0x36\n        /* \"#utility.yul\":6920:6923   */\n      dup4\n        /* \"#utility.yul\":6861:6928   */\n      tag_118\n      jump\t// in\n    tag_208:\n        /* \"#utility.yul\":6854:6928   */\n      swap2\n      pop\n        /* \"#utility.yul\":6937:7030   */\n      tag_209\n        /* \"#utility.yul\":7026:7029   */\n      dup3\n        /* \"#utility.yul\":6937:7030   */\n      tag_126\n      jump\t// in\n    tag_209:\n        /* \"#utility.yul\":7055:7057   */\n      0x40\n        /* \"#utility.yul\":7050:7053   */\n      dup3\n        /* \"#utility.yul\":7046:7058   */\n      add\n        /* \"#utility.yul\":7039:7058   */\n      swap1\n      pop\n        /* \"#utility.yul\":6698:7064   */\n      swap2\n      swap1\n      pop\n      jump\t// out\n        /* \"#utility.yul\":7070:7489   */\n    tag_61:\n        /* \"#utility.yul\":7236:7240   */\n      0x00\n        /* \"#utility.yul\":7274:7276   */\n      0x20\n        /* \"#utility.yul\":7263:7272   */\n      dup3\n        /* \"#utility.yul\":7259:7277   */\n      add\n        /* \"#utility.yul\":7251:7277   */\n      swap1\n      pop\n        /* \"#utility.yul\":7323:7332   */\n      dup2\n        /* \"#utility.yul\":7317:7321   */\n      dup2\n        /* \"#utility.yul\":7313:7333   */\n      sub\n        /* \"#utility.yul\":7309:7310   */\n      0x00\n        /* \"#utility.yul\":7298:7307   */\n      dup4\n        /* \"#utility.yul\":7294:7311   */\n      add\n        /* \"#utility.yul\":7287:7334   */\n      mstore\n        /* \"#utility.yul\":7351:7482   */\n      tag_211\n        /* \"#utility.yul\":7477:7481   */\n      dup2\n        /* \"#utility.yul\":7351:7482   */\n      tag_127\n      jump\t// in\n    tag_211:\n        /* \"#utility.yul\":7343:7482   */\n      swap1\n      pop\n        /* \"#utility.yul\":7070:7489   */\n      swap2\n      swap1\n      pop\n      jump\t// out\n        /* \"#utility.yul\":7495:7658   */\n    tag_128:\n        /* \"#utility.yul\":7635:7650   */\n      0x4e6f2045746865722073656e7400000000000000000000000000000000000000\n        /* \"#utility.yul\":7631:7632   */\n      0x00\n        /* \"#utility.yul\":7623:7629   */\n      dup3\n        /* \"#utility.yul\":7619:7633   */\n      add\n        /* \"#utility.yul\":7612:7651   */\n      mstore\n        /* \"#utility.yul\":7495:7658   */\n      pop\n      jump\t// out\n        /* \"#utility.yul\":7664:8030   */\n    tag_129:\n        /* \"#utility.yul\":7806:7809   */\n      0x00\n        /* \"#utility.yul\":7827:7894   */\n      tag_214\n        /* \"#utility.yul\":7891:7893   */\n      0x0d\n        /* \"#utility.yul\":7886:7889   */\n      dup4\n        /* \"#utility.yul\":7827:7894   */\n      tag_118\n      jump\t// in\n    tag_214:\n        /* \"#utility.yul\":7820:7894   */\n      swap2\n      pop\n        /* \"#utility.yul\":7903:7996   */\n      tag_215\n        /* \"#utility.yul\":7992:7995   */\n      dup3\n        /* \"#utility.yul\":7903:7996   */\n      tag_128\n      jump\t// in\n    tag_215:\n        /* \"#utility.yul\":8021:8023   */\n      0x20\n        /* \"#utility.yul\":8016:8019   */\n      dup3\n        /* \"#utility.yul\":8012:8024   */\n      add\n        /* \"#utility.yul\":8005:8024   */\n      swap1\n      pop\n        /* \"#utility.yul\":7664:8030   */\n      swap2\n      swap1\n      pop\n      jump\t// out\n        /* \"#utility.yul\":8036:8455   */\n    tag_68:\n        /* \"#utility.yul\":8202:8206   */\n      0x00\n        /* \"#utility.yul\":8240:8242   */\n      0x20\n        /* \"#utility.yul\":8229:8238   */\n      dup3\n        /* \"#utility.yul\":8225:8243   */\n      add\n        /* \"#utility.yul\":8217:8243   */\n      swap1\n      pop\n        /* \"#utility.yul\":8289:8298   */\n      dup2\n        /* \"#utility.yul\":8283:8287   */\n      dup2\n        /* \"#utility.yul\":8279:8299   */\n      sub\n        /* \"#utility.yul\":8275:8276   */\n      0x00\n        /* \"#utility.yul\":8264:8273   */\n      dup4\n        /* \"#utility.yul\":8260:8277   */\n      add\n        /* \"#utility.yul\":8253:8300   */\n      mstore\n        /* \"#utility.yul\":8317:8448   */\n      tag_217\n        /* \"#utility.yul\":8443:8447   */\n      dup2\n        /* \"#utility.yul\":8317:8448   */\n      tag_129\n      jump\t// in\n    tag_217:\n        /* \"#utility.yul\":8309:8448   */\n      swap1\n      pop\n        /* \"#utility.yul\":8036:8455   */\n      swap2\n      swap1\n      pop\n      jump\t// out\n        /* \"#utility.yul\":8461:8641   */\n    tag_130:\n        /* \"#utility.yul\":8509:8586   */\n      0x4e487b7100000000000000000000000000000000000000000000000000000000\n        /* \"#utility.yul\":8506:8507   */\n      0x00\n        /* \"#utility.yul\":8499:8587   */\n      mstore\n        /* \"#utility.yul\":8606:8610   */\n      0x11\n        /* \"#utility.yul\":8603:8604   */\n      0x04\n        /* \"#utility.yul\":8596:8611   */\n      mstore\n        /* \"#utility.yul\":8630:8634   */\n      0x24\n        /* \"#utility.yul\":8627:8628   */\n      0x00\n        /* \"#utility.yul\":8620:8635   */\n      revert\n        /* \"#utility.yul\":8647:8838   */\n    tag_70:\n        /* \"#utility.yul\":8687:8690   */\n      0x00\n        /* \"#utility.yul\":8706:8726   */\n      tag_220\n        /* \"#utility.yul\":8724:8725   */\n      dup3\n        /* \"#utility.yul\":8706:8726   */\n      tag_112\n      jump\t// in\n    tag_220:\n        /* \"#utility.yul\":8701:8726   */\n      swap2\n      pop\n        /* \"#utility.yul\":8740:8760   */\n      tag_221\n        /* \"#utility.yul\":8758:8759   */\n      dup4\n        /* \"#utility.yul\":8740:8760   */\n      tag_112\n      jump\t// in\n    tag_221:\n        /* \"#utility.yul\":8735:8760   */\n      swap3\n      pop\n        /* \"#utility.yul\":8783:8784   */\n      dup3\n        /* \"#utility.yul\":8780:8781   */\n      dup3\n        /* \"#utility.yul\":8776:8785   */\n      add\n        /* \"#utility.yul\":8769:8785   */\n      swap1\n      pop\n        /* \"#utility.yul\":8804:8807   */\n      dup1\n        /* \"#utility.yul\":8801:8802   */\n      dup3\n        /* \"#utility.yul\":8798:8808   */\n      gt\n        /* \"#utility.yul\":8795:8831   */\n      iszero\n      tag_222\n      jumpi\n        /* \"#utility.yul\":8811:8829   */\n      tag_223\n      tag_130\n      jump\t// in\n    tag_223:\n        /* \"#utility.yul\":8795:8831   */\n    tag_222:\n        /* \"#utility.yul\":8647:8838   */\n      swap3\n      swap2\n      pop\n      pop\n      jump\t// out\n        /* \"#utility.yul\":8844:9088   */\n    tag_131:\n        /* \"#utility.yul\":8984:9018   */\n      0x4f6e2d636861696e2066696e616c697479206d69746967617465732074797069\n        /* \"#utility.yul\":8980:8981   */\n      0x00\n        /* \"#utility.yul\":8972:8978   */\n      dup3\n        /* \"#utility.yul\":8968:8982   */\n      add\n        /* \"#utility.yul\":8961:9019   */\n      mstore\n        /* \"#utility.yul\":9053:9080   */\n      0x63616c2046696e6e65792041747461636b207265706c61797300000000000000\n        /* \"#utility.yul\":9048:9050   */\n      0x20\n        /* \"#utility.yul\":9040:9046   */\n      dup3\n        /* \"#utility.yul\":9036:9051   */\n      add\n        /* \"#utility.yul\":9029:9081   */\n      mstore\n        /* \"#utility.yul\":8844:9088   */\n      pop\n      jump\t// out\n        /* \"#utility.yul\":9094:9460   */\n    tag_132:\n        /* \"#utility.yul\":9236:9239   */\n      0x00\n        /* \"#utility.yul\":9257:9324   */\n      tag_226\n        /* \"#utility.yul\":9321:9323   */\n      0x39\n        /* \"#utility.yul\":9316:9319   */\n      dup4\n        /* \"#utility.yul\":9257:9324   */\n      tag_118\n      jump\t// in\n    tag_226:\n        /* \"#utility.yul\":9250:9324   */\n      swap2\n      pop\n        /* \"#utility.yul\":9333:9426   */\n      tag_227\n        /* \"#utility.yul\":9422:9425   */\n      dup3\n        /* \"#utility.yul\":9333:9426   */\n      tag_131\n      jump\t// in\n    tag_227:\n        /* \"#utility.yul\":9451:9453   */\n      0x40\n        /* \"#utility.yul\":9446:9449   */\n      dup3\n        /* \"#utility.yul\":9442:9454   */\n      add\n        /* \"#utility.yul\":9435:9454   */\n      swap1\n      pop\n        /* \"#utility.yul\":9094:9460   */\n      swap2\n      swap1\n      pop\n      jump\t// out\n        /* \"#utility.yul\":9466:9995   */\n    tag_72:\n        /* \"#utility.yul\":9660:9664   */\n      0x00\n        /* \"#utility.yul\":9698:9700   */\n      0x40\n        /* \"#utility.yul\":9687:9696   */\n      dup3\n        /* \"#utility.yul\":9683:9701   */\n      add\n        /* \"#utility.yul\":9675:9701   */\n      swap1\n      pop\n        /* \"#utility.yul\":9711:9782   */\n      tag_229\n        /* \"#utility.yul\":9779:9780   */\n      0x00\n        /* \"#utility.yul\":9768:9777   */\n      dup4\n        /* \"#utility.yul\":9764:9781   */\n      add\n        /* \"#utility.yul\":9755:9761   */\n      dup5\n        /* \"#utility.yul\":9711:9782   */\n      tag_113\n      jump\t// in\n    tag_229:\n        /* \"#utility.yul\":9829:9838   */\n      dup2\n        /* \"#utility.yul\":9823:9827   */\n      dup2\n        /* \"#utility.yul\":9819:9839   */\n      sub\n        /* \"#utility.yul\":9814:9816   */\n      0x20\n        /* \"#utility.yul\":9803:9812   */\n      dup4\n        /* \"#utility.yul\":9799:9817   */\n      add\n        /* \"#utility.yul\":9792:9840   */\n      mstore\n        /* \"#utility.yul\":9857:9988   */\n      tag_230\n        /* \"#utility.yul\":9983:9987   */\n      dup2\n        /* \"#utility.yul\":9857:9988   */\n      tag_132\n      jump\t// in\n    tag_230:\n        /* \"#utility.yul\":9849:9988   */\n      swap1\n      pop\n        /* \"#utility.yul\":9466:9995   */\n      swap3\n      swap2\n      pop\n      pop\n      jump\t// out\n        /* \"#utility.yul\":10001:10167   */\n    tag_133:\n        /* \"#utility.yul\":10141:10159   */\n      0x4d757374206465706f736974203e203000000000000000000000000000000000\n        /* \"#utility.yul\":10137:10138   */\n      0x00\n        /* \"#utility.yul\":10129:10135   */\n      dup3\n        /* \"#utility.yul\":10125:10139   */\n      add\n        /* \"#utility.yul\":10118:10160   */\n      mstore\n        /* \"#utility.yul\":10001:10167   */\n      pop\n      jump\t// out\n        /* \"#utility.yul\":10173:10539   */\n    tag_134:\n        /* \"#utility.yul\":10315:10318   */\n      0x00\n        /* \"#utility.yul\":10336:10403   */\n      tag_233\n        /* \"#utility.yul\":10400:10402   */\n      0x10\n        /* \"#utility.yul\":10395:10398   */\n      dup4\n        /* \"#utility.yul\":10336:10403   */\n      tag_118\n      jump\t// in\n    tag_233:\n        /* \"#utility.yul\":10329:10403   */\n      swap2\n      pop\n        /* \"#utility.yul\":10412:10505   */\n      tag_234\n        /* \"#utility.yul\":10501:10504   */\n      dup3\n        /* \"#utility.yul\":10412:10505   */\n      tag_133\n      jump\t// in\n    tag_234:\n        /* \"#utility.yul\":10530:10532   */\n      0x20\n        /* \"#utility.yul\":10525:10528   */\n      dup3\n        /* \"#utility.yul\":10521:10533   */\n      add\n        /* \"#utility.yul\":10514:10533   */\n      swap1\n      pop\n        /* \"#utility.yul\":10173:10539   */\n      swap2\n      swap1\n      pop\n      jump\t// out\n        /* \"#utility.yul\":10545:10964   */\n    tag_79:\n        /* \"#utility.yul\":10711:10715   */\n      0x00\n        /* \"#utility.yul\":10749:10751   */\n      0x20\n        /* \"#utility.yul\":10738:10747   */\n      dup3\n        /* \"#utility.yul\":10734:10752   */\n      add\n        /* \"#utility.yul\":10726:10752   */\n      swap1\n      pop\n        /* \"#utility.yul\":10798:10807   */\n      dup2\n        /* \"#utility.yul\":10792:10796   */\n      dup2\n        /* \"#utility.yul\":10788:10808   */\n      sub\n        /* \"#utility.yul\":10784:10785   */\n      0x00\n        /* \"#utility.yul\":10773:10782   */\n      dup4\n        /* \"#utility.yul\":10769:10786   */\n      add\n        /* \"#utility.yul\":10762:10809   */\n      mstore\n        /* \"#utility.yul\":10826:10957   */\n      tag_236\n        /* \"#utility.yul\":10952:10956   */\n      dup2\n        /* \"#utility.yul\":10826:10957   */\n      tag_134\n      jump\t// in\n    tag_236:\n        /* \"#utility.yul\":10818:10957   */\n      swap1\n      pop\n        /* \"#utility.yul\":10545:10964   */\n      swap2\n      swap1\n      pop\n      jump\t// out\n        /* \"#utility.yul\":10970:11144   */\n    tag_135:\n        /* \"#utility.yul\":11110:11136   */\n      0x5370656e6420616d6f756e74206d757374206265203e20300000000000000000\n        /* \"#utility.yul\":11106:11107   */\n      0x00\n        /* \"#utility.yul\":11098:11104   */\n      dup3\n        /* \"#utility.yul\":11094:11108   */\n      add\n        /* \"#utility.yul\":11087:11137   */\n      mstore\n        /* \"#utility.yul\":10970:11144   */\n      pop\n      jump\t// out\n        /* \"#utility.yul\":11150:11516   */\n    tag_136:\n        /* \"#utility.yul\":11292:11295   */\n      0x00\n        /* \"#utility.yul\":11313:11380   */\n      tag_239\n        /* \"#utility.yul\":11377:11379   */\n      0x18\n        /* \"#utility.yul\":11372:11375   */\n      dup4\n        /* \"#utility.yul\":11313:11380   */\n      tag_118\n      jump\t// in\n    tag_239:\n        /* \"#utility.yul\":11306:11380   */\n      swap2\n      pop\n        /* \"#utility.yul\":11389:11482   */\n      tag_240\n        /* \"#utility.yul\":11478:11481   */\n      dup3\n        /* \"#utility.yul\":11389:11482   */\n      tag_135\n      jump\t// in\n    tag_240:\n        /* \"#utility.yul\":11507:11509   */\n      0x20\n        /* \"#utility.yul\":11502:11505   */\n      dup3\n        /* \"#utility.yul\":11498:11510   */\n      add\n        /* \"#utility.yul\":11491:11510   */\n      swap1\n      pop\n        /* \"#utility.yul\":11150:11516   */\n      swap2\n      swap1\n      pop\n      jump\t// out\n        /* \"#utility.yul\":11522:11941   */\n    tag_88:\n        /* \"#utility.yul\":11688:11692   */\n      0x00\n        /* \"#utility.yul\":11726:11728   */\n      0x20\n        /* \"#utility.yul\":11715:11724   */\n      dup3\n        /* \"#utility.yul\":11711:11729   */\n      add\n        /* \"#utility.yul\":11703:11729   */\n      swap1\n      pop\n        /* \"#utility.yul\":11775:11784   */\n      dup2\n        /* \"#utility.yul\":11769:11773   */\n      dup2\n        /* \"#utility.yul\":11765:11785   */\n      sub\n        /* \"#utility.yul\":11761:11762   */\n      0x00\n        /* \"#utility.yul\":11750:11759   */\n      dup4\n        /* \"#utility.yul\":11746:11763   */\n      add\n        /* \"#utility.yul\":11739:11786   */\n      mstore\n        /* \"#utility.yul\":11803:11934   */\n      tag_242\n        /* \"#utility.yul\":11929:11933   */\n      dup2\n        /* \"#utility.yul\":11803:11934   */\n      tag_136\n      jump\t// in\n    tag_242:\n        /* \"#utility.yul\":11795:11934   */\n      swap1\n      pop\n        /* \"#utility.yul\":11522:11941   */\n      swap2\n      swap1\n      pop\n      jump\t// out\n        /* \"#utility.yul\":11947:12117   */\n    tag_137:\n        /* \"#utility.yul\":12087:12109   */\n      0x496e73756666696369656e742062616c616e6365000000000000000000000000\n        /* \"#utility.yul\":12083:12084   */\n      0x00\n        /* \"#utility.yul\":12075:12081   */\n      dup3\n        /* \"#utility.yul\":12071:12085   */\n      add\n        /* \"#utility.yul\":12064:12110   */\n      mstore\n        /* \"#utility.yul\":11947:12117   */\n      pop\n      jump\t// out\n        /* \"#utility.yul\":12123:12489   */\n    tag_138:\n        /* \"#utility.yul\":12265:12268   */\n      0x00\n        /* \"#utility.yul\":12286:12353   */\n      tag_245\n        /* \"#utility.yul\":12350:12352   */\n      0x14\n        /* \"#utility.yul\":12345:12348   */\n      dup4\n        /* \"#utility.yul\":12286:12353   */\n      tag_118\n      jump\t// in\n    tag_245:\n        /* \"#utility.yul\":12279:12353   */\n      swap2\n      pop\n        /* \"#utility.yul\":12362:12455   */\n      tag_246\n        /* \"#utility.yul\":12451:12454   */\n      dup3\n        /* \"#utility.yul\":12362:12455   */\n      tag_137\n      jump\t// in\n    tag_246:\n        /* \"#utility.yul\":12480:12482   */\n      0x20\n        /* \"#utility.yul\":12475:12478   */\n      dup3\n        /* \"#utility.yul\":12471:12483   */\n      add\n        /* \"#utility.yul\":12464:12483   */\n      swap1\n      pop\n        /* \"#utility.yul\":12123:12489   */\n      swap2\n      swap1\n      pop\n      jump\t// out\n        /* \"#utility.yul\":12495:12914   */\n    tag_91:\n        /* \"#utility.yul\":12661:12665   */\n      0x00\n        /* \"#utility.yul\":12699:12701   */\n      0x20\n        /* \"#utility.yul\":12688:12697   */\n      dup3\n        /* \"#utility.yul\":12684:12702   */\n      add\n        /* \"#utility.yul\":12676:12702   */\n      swap1\n      pop\n        /* \"#utility.yul\":12748:12757   */\n      dup2\n        /* \"#utility.yul\":12742:12746   */\n      dup2\n        /* \"#utility.yul\":12738:12758   */\n      sub\n        /* \"#utility.yul\":12734:12735   */\n      0x00\n        /* \"#utility.yul\":12723:12732   */\n      dup4\n        /* \"#utility.yul\":12719:12736   */\n      add\n        /* \"#utility.yul\":12712:12759   */\n      mstore\n        /* \"#utility.yul\":12776:12907   */\n      tag_248\n        /* \"#utility.yul\":12902:12906   */\n      dup2\n        /* \"#utility.yul\":12776:12907   */\n      tag_138\n      jump\t// in\n    tag_248:\n        /* \"#utility.yul\":12768:12907   */\n      swap1\n      pop\n        /* \"#utility.yul\":12495:12914   */\n      swap2\n      swap1\n      pop\n      jump\t// out\n        /* \"#utility.yul\":12920:13148   */\n    tag_139:\n        /* \"#utility.yul\":13060:13094   */\n      0x4e6f6e636520616c726561647920757365642028726163652061747461636b20\n        /* \"#utility.yul\":13056:13057   */\n      0x00\n        /* \"#utility.yul\":13048:13054   */\n      dup3\n        /* \"#utility.yul\":13044:13058   */\n      add\n        /* \"#utility.yul\":13037:13095   */\n      mstore\n        /* \"#utility.yul\":13129:13140   */\n      0x617474656d70743f290000000000000000000000000000000000000000000000\n        /* \"#utility.yul\":13124:13126   */\n      0x20\n        /* \"#utility.yul\":13116:13122   */\n      dup3\n        /* \"#utility.yul\":13112:13127   */\n      add\n        /* \"#utility.yul\":13105:13141   */\n      mstore\n        /* \"#utility.yul\":12920:13148   */\n      pop\n      jump\t// out\n        /* \"#utility.yul\":13154:13520   */\n    tag_140:\n        /* \"#utility.yul\":13296:13299   */\n      0x00\n        /* \"#utility.yul\":13317:13384   */\n      tag_251\n        /* \"#utility.yul\":13381:13383   */\n      0x29\n        /* \"#utility.yul\":13376:13379   */\n      dup4\n        /* \"#utility.yul\":13317:13384   */\n      tag_118\n      jump\t// in\n    tag_251:\n        /* \"#utility.yul\":13310:13384   */\n      swap2\n      pop\n        /* \"#utility.yul\":13393:13486   */\n      tag_252\n        /* \"#utility.yul\":13482:13485   */\n      dup3\n        /* \"#utility.yul\":13393:13486   */\n      tag_139\n      jump\t// in\n    tag_252:\n        /* \"#utility.yul\":13511:13513   */\n      0x40\n        /* \"#utility.yul\":13506:13509   */\n      dup3\n        /* \"#utility.yul\":13502:13514   */\n      add\n        /* \"#utility.yul\":13495:13514   */\n      swap1\n      pop\n        /* \"#utility.yul\":13154:13520   */\n      swap2\n      swap1\n      pop\n      jump\t// out\n        /* \"#utility.yul\":13526:13945   */\n    tag_94:\n        /* \"#utility.yul\":13692:13696   */\n      0x00\n        /* \"#utility.yul\":13730:13732   */\n      0x20\n        /* \"#utility.yul\":13719:13728   */\n      dup3\n        /* \"#utility.yul\":13715:13733   */\n      add\n        /* \"#utility.yul\":13707:13733   */\n      swap1\n      pop\n        /* \"#utility.yul\":13779:13788   */\n      dup2\n        /* \"#utility.yul\":13773:13777   */\n      dup2\n        /* \"#utility.yul\":13769:13789   */\n      sub\n        /* \"#utility.yul\":13765:13766   */\n      0x00\n        /* \"#utility.yul\":13754:13763   */\n      dup4\n        /* \"#utility.yul\":13750:13767   */\n      add\n        /* \"#utility.yul\":13743:13790   */\n      mstore\n        /* \"#utility.yul\":13807:13938   */\n      tag_254\n        /* \"#utility.yul\":13933:13937   */\n      dup2\n        /* \"#utility.yul\":13807:13938   */\n      tag_140\n      jump\t// in\n    tag_254:\n        /* \"#utility.yul\":13799:13938   */\n      swap1\n      pop\n        /* \"#utility.yul\":13526:13945   */\n      swap2\n      swap1\n      pop\n      jump\t// out\n        /* \"#utility.yul\":13951:14145   */\n    tag_96:\n        /* \"#utility.yul\":13991:13995   */\n      0x00\n        /* \"#utility.yul\":14011:14031   */\n      tag_256\n        /* \"#utility.yul\":14029:14030   */\n      dup3\n        /* \"#utility.yul\":14011:14031   */\n      tag_112\n      jump\t// in\n    tag_256:\n        /* \"#utility.yul\":14006:14031   */\n      swap2\n      pop\n        /* \"#utility.yul\":14045:14065   */\n      tag_257\n        /* \"#utility.yul\":14063:14064   */\n      dup4\n        /* \"#utility.yul\":14045:14065   */\n      tag_112\n      jump\t// in\n    tag_257:\n        /* \"#utility.yul\":14040:14065   */\n      swap3\n      pop\n        /* \"#utility.yul\":14089:14090   */\n      dup3\n        /* \"#utility.yul\":14086:14087   */\n      dup3\n        /* \"#utility.yul\":14082:14091   */\n      sub\n        /* \"#utility.yul\":14074:14091   */\n      swap1\n      pop\n        /* \"#utility.yul\":14113:14114   */\n      dup2\n        /* \"#utility.yul\":14107:14111   */\n      dup2\n        /* \"#utility.yul\":14104:14115   */\n      gt\n        /* \"#utility.yul\":14101:14138   */\n      iszero\n      tag_258\n      jumpi\n        /* \"#utility.yul\":14118:14136   */\n      tag_259\n      tag_130\n      jump\t// in\n    tag_259:\n        /* \"#utility.yul\":14101:14138   */\n    tag_258:\n        /* \"#utility.yul\":13951:14145   */\n      swap3\n      swap2\n      pop\n      pop\n      jump\t// out\n        /* \"#utility.yul\":14151:14390   */\n    tag_141:\n        /* \"#utility.yul\":14291:14325   */\n      0x526163652041747461636b207370656e642077697468206e6f6e63652d626173\n        /* \"#utility.yul\":14287:14288   */\n      0x00\n        /* \"#utility.yul\":14279:14285   */\n      dup3\n        /* \"#utility.yul\":14275:14289   */\n      add\n        /* \"#utility.yul\":14268:14326   */\n      mstore\n        /* \"#utility.yul\":14360:14382   */\n      0x6564207265706c61792070726576656e74696f6e000000000000000000000000\n        /* \"#utility.yul\":14355:14357   */\n      0x20\n        /* \"#utility.yul\":14347:14353   */\n      dup3\n        /* \"#utility.yul\":14343:14358   */\n      add\n        /* \"#utility.yul\":14336:14383   */\n      mstore\n        /* \"#utility.yul\":14151:14390   */\n      pop\n      jump\t// out\n        /* \"#utility.yul\":14396:14762   */\n    tag_142:\n        /* \"#utility.yul\":14538:14541   */\n      0x00\n        /* \"#utility.yul\":14559:14626   */\n      tag_262\n        /* \"#utility.yul\":14623:14625   */\n      0x34\n        /* \"#utility.yul\":14618:14621   */\n      dup4\n        /* \"#utility.yul\":14559:14626   */\n      tag_118\n      jump\t// in\n    tag_262:\n        /* \"#utility.yul\":14552:14626   */\n      swap2\n      pop\n        /* \"#utility.yul\":14635:14728   */\n      tag_263\n        /* \"#utility.yul\":14724:14727   */\n      dup3\n        /* \"#utility.yul\":14635:14728   */\n      tag_141\n      jump\t// in\n    tag_263:\n        /* \"#utility.yul\":14753:14755   */\n      0x40\n        /* \"#utility.yul\":14748:14751   */\n      dup3\n        /* \"#utility.yul\":14744:14756   */\n      add\n        /* \"#utility.yul\":14737:14756   */\n      swap1\n      pop\n        /* \"#utility.yul\":14396:14762   */\n      swap2\n      swap1\n      pop\n      jump\t// out\n        /* \"#utility.yul\":14768:15407   */\n    tag_98:\n        /* \"#utility.yul\":14990:14994   */\n      0x00\n        /* \"#utility.yul\":15028:15030   */\n      0x60\n        /* \"#utility.yul\":15017:15026   */\n      dup3\n        /* \"#utility.yul\":15013:15031   */\n      add\n        /* \"#utility.yul\":15005:15031   */\n      swap1\n      pop\n        /* \"#utility.yul\":15041:15112   */\n      tag_265\n        /* \"#utility.yul\":15109:15110   */\n      0x00\n        /* \"#utility.yul\":15098:15107   */\n      dup4\n        /* \"#utility.yul\":15094:15111   */\n      add\n        /* \"#utility.yul\":15085:15091   */\n      dup6\n        /* \"#utility.yul\":15041:15112   */\n      tag_113\n      jump\t// in\n    tag_265:\n        /* \"#utility.yul\":15122:15194   */\n      tag_266\n        /* \"#utility.yul\":15190:15192   */\n      0x20\n        /* \"#utility.yul\":15179:15188   */\n      dup4\n        /* \"#utility.yul\":15175:15193   */\n      add\n        /* \"#utility.yul\":15166:15172   */\n      dup5\n        /* \"#utility.yul\":15122:15194   */\n      tag_113\n      jump\t// in\n    tag_266:\n        /* \"#utility.yul\":15241:15250   */\n      dup2\n        /* \"#utility.yul\":15235:15239   */\n      dup2\n        /* \"#utility.yul\":15231:15251   */\n      sub\n        /* \"#utility.yul\":15226:15228   */\n      0x40\n        /* \"#utility.yul\":15215:15224   */\n      dup4\n        /* \"#utility.yul\":15211:15229   */\n      add\n        /* \"#utility.yul\":15204:15252   */\n      mstore\n        /* \"#utility.yul\":15269:15400   */\n      tag_267\n        /* \"#utility.yul\":15395:15399   */\n      dup2\n        /* \"#utility.yul\":15269:15400   */\n      tag_142\n      jump\t// in\n    tag_267:\n        /* \"#utility.yul\":15261:15400   */\n      swap1\n      pop\n        /* \"#utility.yul\":14768:15407   */\n      swap4\n      swap3\n      pop\n      pop\n      pop\n      jump\t// out\n        /* \"#utility.yul\":15413:15594   */\n    tag_143:\n        /* \"#utility.yul\":15553:15586   */\n      0x5265656e7472616e637947756172643a207265656e7472616e742063616c6c00\n        /* \"#utility.yul\":15549:15550   */\n      0x00\n        /* \"#utility.yul\":15541:15547   */\n      dup3\n        /* \"#utility.yul\":15537:15551   */\n      add\n        /* \"#utility.yul\":15530:15587   */\n      mstore\n        /* \"#utility.yul\":15413:15594   */\n      pop\n      jump\t// out\n        /* \"#utility.yul\":15600:15966   */\n    tag_144:\n        /* \"#utility.yul\":15742:15745   */\n      0x00\n        /* \"#utility.yul\":15763:15830   */\n      tag_270\n        /* \"#utility.yul\":15827:15829   */\n      0x1f\n        /* \"#utility.yul\":15822:15825   */\n      dup4\n        /* \"#utility.yul\":15763:15830   */\n      tag_118\n      jump\t// in\n    tag_270:\n        /* \"#utility.yul\":15756:15830   */\n      swap2\n      pop\n        /* \"#utility.yul\":15839:15932   */\n      tag_271\n        /* \"#utility.yul\":15928:15931   */\n      dup3\n        /* \"#utility.yul\":15839:15932   */\n      tag_143\n      jump\t// in\n    tag_271:\n        /* \"#utility.yul\":15957:15959   */\n      0x20\n        /* \"#utility.yul\":15952:15955   */\n      dup3\n        /* \"#utility.yul\":15948:15960   */\n      add\n        /* \"#utility.yul\":15941:15960   */\n      swap1\n      pop\n        /* \"#utility.yul\":15600:15966   */\n      swap2\n      swap1\n      pop\n      jump\t// out\n        /* \"#utility.yul\":15972:16391   */\n    tag_103:\n        /* \"#utility.yul\":16138:16142   */\n      0x00\n        /* \"#utility.yul\":16176:16178   */\n      0x20\n        /* \"#utility.yul\":16165:16174   */\n      dup3\n        /* \"#utility.yul\":16161:16179   */\n      add\n        /* \"#utility.yul\":16153:16179   */\n      swap1\n      pop\n        /* \"#utility.yul\":16225:16234   */\n      dup2\n        /* \"#utility.yul\":16219:16223   */\n      dup2\n        /* \"#utility.yul\":16215:16235   */\n      sub\n        /* \"#utility.yul\":16211:16212   */\n      0x00\n        /* \"#utility.yul\":16200:16209   */\n      dup4\n        /* \"#utility.yul\":16196:16213   */\n      add\n        /* \"#utility.yul\":16189:16236   */\n      mstore\n        /* \"#utility.yul\":16253:16384   */\n      tag_273\n        /* \"#utility.yul\":16379:16383   */\n      dup2\n        /* \"#utility.yul\":16253:16384   */\n      tag_144\n      jump\t// in\n    tag_273:\n        /* \"#utility.yul\":16245:16384   */\n      swap1\n      pop\n        /* \"#utility.yul\":15972:16391   */\n      swap2\n      swap1\n      pop\n      jump\t// out\n\n    auxdata: 0xa26469706673582212204e965bed3c9d6c2e2cbe14f55d15a6448beb1cff0c35715de7a583f4cef926bb64736f6c634300081d0033\n}\n",
				"bytecode": {
					"linkReferences": {},
					"object": "6080604052348015600e575f5ffd5b5060015f8190555061105c806100235f395ff3fe60806040526004361061006f575f3560e01c80636a8a68941161004d5780636a8a6894146100db578063b871875114610117578063d0e30db014610121578063ef9e4b391461012b5761006f565b806327e235e3146100735780633ccfd60b146100af57806353869072146100c5575b5f5ffd5b34801561007e575f5ffd5b50610099600480360381019061009491906108d3565b610153565b6040516100a69190610916565b60405180910390f35b3480156100ba575f5ffd5b506100c3610168565b005b3480156100d0575f5ffd5b506100d9610337565b005b3480156100e6575f5ffd5b5061010160048036038101906100fc9190610959565b610395565b60405161010e91906109b1565b60405180910390f35b61011f6103bf565b005b6101296104b4565b005b348015610136575f5ffd5b50610151600480360381019061014c91906109ca565b6105a9565b005b6001602052805f5260405f205f915090505481565b61017061081f565b5f60015f3373ffffffffffffffffffffffffffffffffffffffff1673ffffffffffffffffffffffffffffffffffffffff1681526020019081526020015f205490505f81116101f3576040517f08c379a00000000000000000000000000000000000000000000000000000000081526004016101ea90610a62565b60405180910390fd5b5f60015f3373ffffffffffffffffffffffffffffffffffffffff1673ffffffffffffffffffffffffffffffffffffffff1681526020019081526020015f20819055505f3373ffffffffffffffffffffffffffffffffffffffff168260405161025a90610aad565b5f6040518083038185875af1925050503d805f8114610294576040519150601f19603f3d011682016040523d82523d5f602084013e610299565b606091505b50509050806102dd576040517f08c379a00000000000000000000000000000000000000000000000000000000081526004016102d490610b0b565b60405180910390fd5b3373ffffffffffffffffffffffffffffffffffffffff167f7084f5476618d8e60b11ef0d7d3f06914655adb8793e28ff7f018d4c76d505d5836040516103239190610916565b60405180910390a2505061033561086c565b565b61033f61081f565b3373ffffffffffffffffffffffffffffffffffffffff167f97f28f08a400937f3152518ab1449f15397bd7ed562b85ab6985818447d6b33d60405161038390610b99565b60405180910390a261039361086c565b565b6002602052815f5260405f20602052805f5260405f205f915091509054906101000a900460ff1681565b6103c761081f565b5f3411610409576040517f08c379a000000000000000000000000000000000000000000000000000000000815260040161040090610c01565b60405180910390fd5b3460015f3373ffffffffffffffffffffffffffffffffffffffff1673ffffffffffffffffffffffffffffffffffffffff1681526020019081526020015f205f8282546104559190610c4c565b925050819055503373ffffffffffffffffffffffffffffffffffffffff167ffdfdd5231a3d0b9d8fef4537311e980eff42c7f5df31c0befb02a985cf3c5928346040516104a29190610cef565b60405180910390a26104b261086c565b565b6104bc61081f565b5f34116104fe576040517f08c379a00000000000000000000000000000000000000000000000000000000081526004016104f590610d65565b60405180910390fd5b3460015f3373ffffffffffffffffffffffffffffffffffffffff1673ffffffffffffffffffffffffffffffffffffffff1681526020019081526020015f205f82825461054a9190610c4c565b925050819055503373ffffffffffffffffffffffffffffffffffffffff167f2da466a7b24304f47e87fa2e1e5a81b9831ce54fec19055ce277ca2f39ba42c4346040516105979190610916565b60405180910390a26105a761086c565b565b6105b161081f565b5f82116105f3576040517f08c379a00000000000000000000000000000000000000000000000000000000081526004016105ea90610dcd565b60405180910390fd5b8160015f3373ffffffffffffffffffffffffffffffffffffffff1673ffffffffffffffffffffffffffffffffffffffff1681526020019081526020015f20541015610673576040517f08c379a000000000000000000000000000000000000000000000000000000000815260040161066a90610e35565b60405180910390fd5b60025f3373ffffffffffffffffffffffffffffffffffffffff1673ffffffffffffffffffffffffffffffffffffffff1681526020019081526020015f205f8281526020019081526020015f205f9054906101000a900460ff161561070c576040517f08c379a000000000000000000000000000000000000000000000000000000000815260040161070390610ec3565b60405180910390fd5b600160025f3373ffffffffffffffffffffffffffffffffffffffff1673ffffffffffffffffffffffffffffffffffffffff1681526020019081526020015f205f8381526020019081526020015f205f6101000a81548160ff0219169083151502179055508160015f3373ffffffffffffffffffffffffffffffffffffffff1673ffffffffffffffffffffffffffffffffffffffff1681526020019081526020015f205f8282546107bc9190610ee1565b925050819055503373ffffffffffffffffffffffffffffffffffffffff167f45f858e3a4e321bc6c114bf4bf83692bbbe7cdbd7905989376c1249da43f6712838360405161080b929190610f84565b60405180910390a261081b61086c565b5050565b60025f5403610863576040517f08c379a000000000000000000000000000000000000000000000000000000000815260040161085a90611008565b60405180910390fd5b60025f81905550565b60015f81905550565b5f5ffd5b5f73ffffffffffffffffffffffffffffffffffffffff82169050919050565b5f6108a282610879565b9050919050565b6108b281610898565b81146108bc575f5ffd5b50565b5f813590506108cd816108a9565b92915050565b5f602082840312156108e8576108e7610875565b5b5f6108f5848285016108bf565b91505092915050565b5f819050919050565b610910816108fe565b82525050565b5f6020820190506109295f830184610907565b92915050565b610938816108fe565b8114610942575f5ffd5b50565b5f813590506109538161092f565b92915050565b5f5f6040838503121561096f5761096e610875565b5b5f61097c858286016108bf565b925050602061098d85828601610945565b9150509250929050565b5f8115159050919050565b6109ab81610997565b82525050565b5f6020820190506109c45f8301846109a2565b92915050565b5f5f604083850312156109e0576109df610875565b5b5f6109ed85828601610945565b92505060206109fe85828601610945565b9150509250929050565b5f82825260208201905092915050565b7f4e6f2066756e647320746f2077697468647261770000000000000000000000005f82015250565b5f610a4c601483610a08565b9150610a5782610a18565b602082019050919050565b5f6020820190508181035f830152610a7981610a40565b9050919050565b5f81905092915050565b50565b5f610a985f83610a80565b9150610aa382610a8a565b5f82019050919050565b5f610ab782610a8d565b9150819050919050565b7f5769746864726177616c206661696c65640000000000000000000000000000005f82015250565b5f610af5601183610a08565b9150610b0082610ac1565b602082019050919050565b5f6020820190508181035f830152610b2281610ae9565b9050919050565b7f4c6f63616c206f6e2d636861696e2073746174652066696e616c2066726f6d205f8201527f636f6e7472616374277320706572737065637469766500000000000000000000602082015250565b5f610b83603683610a08565b9150610b8e82610b29565b604082019050919050565b5f6020820190508181035f830152610bb081610b77565b9050919050565b7f4e6f2045746865722073656e74000000000000000000000000000000000000005f82015250565b5f610beb600d83610a08565b9150610bf682610bb7565b602082019050919050565b5f6020820190508181035f830152610c1881610bdf565b9050919050565b7f4e487b71000000000000000000000000000000000000000000000000000000005f52601160045260245ffd5b5f610c56826108fe565b9150610c61836108fe565b9250828201905080821115610c7957610c78610c1f565b5b92915050565b7f4f6e2d636861696e2066696e616c697479206d697469676174657320747970695f8201527f63616c2046696e6e65792041747461636b207265706c61797300000000000000602082015250565b5f610cd9603983610a08565b9150610ce482610c7f565b604082019050919050565b5f604082019050610d025f830184610907565b8181036020830152610d1381610ccd565b905092915050565b7f4d757374206465706f736974203e2030000000000000000000000000000000005f82015250565b5f610d4f601083610a08565b9150610d5a82610d1b565b602082019050919050565b5f6020820190508181035f830152610d7c81610d43565b9050919050565b7f5370656e6420616d6f756e74206d757374206265203e203000000000000000005f82015250565b5f610db7601883610a08565b9150610dc282610d83565b602082019050919050565b5f6020820190508181035f830152610de481610dab565b9050919050565b7f496e73756666696369656e742062616c616e63650000000000000000000000005f82015250565b5f610e1f601483610a08565b9150610e2a82610deb565b602082019050919050565b5f6020820190508181035f830152610e4c81610e13565b9050919050565b7f4e6f6e636520616c726561647920757365642028726163652061747461636b205f8201527f617474656d70743f290000000000000000000000000000000000000000000000602082015250565b5f610ead602983610a08565b9150610eb882610e53565b604082019050919050565b5f6020820190508181035f830152610eda81610ea1565b9050919050565b5f610eeb826108fe565b9150610ef6836108fe565b9250828203905081811115610f0e57610f0d610c1f565b5b92915050565b7f526163652041747461636b207370656e642077697468206e6f6e63652d6261735f8201527f6564207265706c61792070726576656e74696f6e000000000000000000000000602082015250565b5f610f6e603483610a08565b9150610f7982610f14565b604082019050919050565b5f606082019050610f975f830185610907565b610fa46020830184610907565b8181036040830152610fb581610f62565b90509392505050565b7f5265656e7472616e637947756172643a207265656e7472616e742063616c6c005f82015250565b5f610ff2601f83610a08565b9150610ffd82610fbe565b602082019050919050565b5f6020820190508181035f83015261101f81610fe6565b905091905056fea26469706673582212204e965bed3c9d6c2e2cbe14f55d15a6448beb1cff0c35715de7a583f4cef926bb64736f6c634300081d0033",
					"opcodes": "PUSH1 0x80 PUSH1 0x40 MSTORE CALLVALUE DUP1 ISZERO PUSH1 0xE JUMPI PUSH0 PUSH0 REVERT JUMPDEST POP PUSH1 0x1 PUSH0 DUP2 SWAP1 SSTORE POP PUSH2 0x105C DUP1 PUSH2 0x23 PUSH0 CODECOPY PUSH0 RETURN INVALID PUSH1 0x80 PUSH1 0x40 MSTORE PUSH1 0x4 CALLDATASIZE LT PUSH2 0x6F JUMPI PUSH0 CALLDATALOAD PUSH1 0xE0 SHR DUP1 PUSH4 0x6A8A6894 GT PUSH2 0x4D JUMPI DUP1 PUSH4 0x6A8A6894 EQ PUSH2 0xDB JUMPI DUP1 PUSH4 0xB8718751 EQ PUSH2 0x117 JUMPI DUP1 PUSH4 0xD0E30DB0 EQ PUSH2 0x121 JUMPI DUP1 PUSH4 0xEF9E4B39 EQ PUSH2 0x12B JUMPI PUSH2 0x6F JUMP JUMPDEST DUP1 PUSH4 0x27E235E3 EQ PUSH2 0x73 JUMPI DUP1 PUSH4 0x3CCFD60B EQ PUSH2 0xAF JUMPI DUP1 PUSH4 0x53869072 EQ PUSH2 0xC5 JUMPI JUMPDEST PUSH0 PUSH0 REVERT JUMPDEST CALLVALUE DUP1 ISZERO PUSH2 0x7E JUMPI PUSH0 PUSH0 REVERT JUMPDEST POP PUSH2 0x99 PUSH1 0x4 DUP1 CALLDATASIZE SUB DUP2 ADD SWAP1 PUSH2 0x94 SWAP2 SWAP1 PUSH2 0x8D3 JUMP JUMPDEST PUSH2 0x153 JUMP JUMPDEST PUSH1 0x40 MLOAD PUSH2 0xA6 SWAP2 SWAP1 PUSH2 0x916 JUMP JUMPDEST PUSH1 0x40 MLOAD DUP1 SWAP2 SUB SWAP1 RETURN JUMPDEST CALLVALUE DUP1 ISZERO PUSH2 0xBA JUMPI PUSH0 PUSH0 REVERT JUMPDEST POP PUSH2 0xC3 PUSH2 0x168 JUMP JUMPDEST STOP JUMPDEST CALLVALUE DUP1 ISZERO PUSH2 0xD0 JUMPI PUSH0 PUSH0 REVERT JUMPDEST POP PUSH2 0xD9 PUSH2 0x337 JUMP JUMPDEST STOP JUMPDEST CALLVALUE DUP1 ISZERO PUSH2 0xE6 JUMPI PUSH0 PUSH0 REVERT JUMPDEST POP PUSH2 0x101 PUSH1 0x4 DUP1 CALLDATASIZE SUB DUP2 ADD SWAP1 PUSH2 0xFC SWAP2 SWAP1 PUSH2 0x959 JUMP JUMPDEST PUSH2 0x395 JUMP JUMPDEST PUSH1 0x40 MLOAD PUSH2 0x10E SWAP2 SWAP1 PUSH2 0x9B1 JUMP JUMPDEST PUSH1 0x40 MLOAD DUP1 SWAP2 SUB SWAP1 RETURN JUMPDEST PUSH2 0x11F PUSH2 0x3BF JUMP JUMPDEST STOP JUMPDEST PUSH2 0x129 PUSH2 0x4B4 JUMP JUMPDEST STOP JUMPDEST CALLVALUE DUP1 ISZERO PUSH2 0x136 JUMPI PUSH0 PUSH0 REVERT JUMPDEST POP PUSH2 0x151 PUSH1 0x4 DUP1 CALLDATASIZE SUB DUP2 ADD SWAP1 PUSH2 0x14C SWAP2 SWAP1 PUSH2 0x9CA JUMP JUMPDEST PUSH2 0x5A9 JUMP JUMPDEST STOP JUMPDEST PUSH1 0x1 PUSH1 0x20 MSTORE DUP1 PUSH0 MSTORE PUSH1 0x40 PUSH0 KECCAK256 PUSH0 SWAP2 POP SWAP1 POP SLOAD DUP2 JUMP JUMPDEST PUSH2 0x170 PUSH2 0x81F JUMP JUMPDEST PUSH0 PUSH1 0x1 PUSH0 CALLER PUSH20 0xFFFFFFFFFFFFFFFFFFFFFFFFFFFFFFFFFFFFFFFF AND PUSH20 0xFFFFFFFFFFFFFFFFFFFFFFFFFFFFFFFFFFFFFFFF AND DUP2 MSTORE PUSH1 0x20 ADD SWAP1 DUP2 MSTORE PUSH1 0x20 ADD PUSH0 KECCAK256 SLOAD SWAP1 POP PUSH0 DUP2 GT PUSH2 0x1F3 JUMPI PUSH1 0x40 MLOAD PUSH32 0x8C379A000000000000000000000000000000000000000000000000000000000 DUP2 MSTORE PUSH1 0x4 ADD PUSH2 0x1EA SWAP1 PUSH2 0xA62 JUMP JUMPDEST PUSH1 0x40 MLOAD DUP1 SWAP2 SUB SWAP1 REVERT JUMPDEST PUSH0 PUSH1 0x1 PUSH0 CALLER PUSH20 0xFFFFFFFFFFFFFFFFFFFFFFFFFFFFFFFFFFFFFFFF AND PUSH20 0xFFFFFFFFFFFFFFFFFFFFFFFFFFFFFFFFFFFFFFFF AND DUP2 MSTORE PUSH1 0x20 ADD SWAP1 DUP2 MSTORE PUSH1 0x20 ADD PUSH0 KECCAK256 DUP2 SWAP1 SSTORE POP PUSH0 CALLER PUSH20 0xFFFFFFFFFFFFFFFFFFFFFFFFFFFFFFFFFFFFFFFF AND DUP3 PUSH1 0x40 MLOAD PUSH2 0x25A SWAP1 PUSH2 0xAAD JUMP JUMPDEST PUSH0 PUSH1 0x40 MLOAD DUP1 DUP4 SUB DUP2 DUP6 DUP8 GAS CALL SWAP3 POP POP POP RETURNDATASIZE DUP1 PUSH0 DUP2 EQ PUSH2 0x294 JUMPI PUSH1 0x40 MLOAD SWAP2 POP PUSH1 0x1F NOT PUSH1 0x3F RETURNDATASIZE ADD AND DUP3 ADD PUSH1 0x40 MSTORE RETURNDATASIZE DUP3 MSTORE RETURNDATASIZE PUSH0 PUSH1 0x20 DUP5 ADD RETURNDATACOPY PUSH2 0x299 JUMP JUMPDEST PUSH1 0x60 SWAP2 POP JUMPDEST POP POP SWAP1 POP DUP1 PUSH2 0x2DD JUMPI PUSH1 0x40 MLOAD PUSH32 0x8C379A000000000000000000000000000000000000000000000000000000000 DUP2 MSTORE PUSH1 0x4 ADD PUSH2 0x2D4 SWAP1 PUSH2 0xB0B JUMP JUMPDEST PUSH1 0x40 MLOAD DUP1 SWAP2 SUB SWAP1 REVERT JUMPDEST CALLER PUSH20 0xFFFFFFFFFFFFFFFFFFFFFFFFFFFFFFFFFFFFFFFF AND PUSH32 0x7084F5476618D8E60B11EF0D7D3F06914655ADB8793E28FF7F018D4C76D505D5 DUP4 PUSH1 0x40 MLOAD PUSH2 0x323 SWAP2 SWAP1 PUSH2 0x916 JUMP JUMPDEST PUSH1 0x40 MLOAD DUP1 SWAP2 SUB SWAP1 LOG2 POP POP PUSH2 0x335 PUSH2 0x86C JUMP JUMPDEST JUMP JUMPDEST PUSH2 0x33F PUSH2 0x81F JUMP JUMPDEST CALLER PUSH20 0xFFFFFFFFFFFFFFFFFFFFFFFFFFFFFFFFFFFFFFFF AND PUSH32 0x97F28F08A400937F3152518AB1449F15397BD7ED562B85AB6985818447D6B33D PUSH1 0x40 MLOAD PUSH2 0x383 SWAP1 PUSH2 0xB99 JUMP JUMPDEST PUSH1 0x40 MLOAD DUP1 SWAP2 SUB SWAP1 LOG2 PUSH2 0x393 PUSH2 0x86C JUMP JUMPDEST JUMP JUMPDEST PUSH1 0x2 PUSH1 0x20 MSTORE DUP2 PUSH0 MSTORE PUSH1 0x40 PUSH0 KECCAK256 PUSH1 0x20 MSTORE DUP1 PUSH0 MSTORE PUSH1 0x40 PUSH0 KECCAK256 PUSH0 SWAP2 POP SWAP2 POP SWAP1 SLOAD SWAP1 PUSH2 0x100 EXP SWAP1 DIV PUSH1 0xFF AND DUP2 JUMP JUMPDEST PUSH2 0x3C7 PUSH2 0x81F JUMP JUMPDEST PUSH0 CALLVALUE GT PUSH2 0x409 JUMPI PUSH1 0x40 MLOAD PUSH32 0x8C379A000000000000000000000000000000000000000000000000000000000 DUP2 MSTORE PUSH1 0x4 ADD PUSH2 0x400 SWAP1 PUSH2 0xC01 JUMP JUMPDEST PUSH1 0x40 MLOAD DUP1 SWAP2 SUB SWAP1 REVERT JUMPDEST CALLVALUE PUSH1 0x1 PUSH0 CALLER PUSH20 0xFFFFFFFFFFFFFFFFFFFFFFFFFFFFFFFFFFFFFFFF AND PUSH20 0xFFFFFFFFFFFFFFFFFFFFFFFFFFFFFFFFFFFFFFFF AND DUP2 MSTORE PUSH1 0x20 ADD SWAP1 DUP2 MSTORE PUSH1 0x20 ADD PUSH0 KECCAK256 PUSH0 DUP3 DUP3 SLOAD PUSH2 0x455 SWAP2 SWAP1 PUSH2 0xC4C JUMP JUMPDEST SWAP3 POP POP DUP2 SWAP1 SSTORE POP CALLER PUSH20 0xFFFFFFFFFFFFFFFFFFFFFFFFFFFFFFFFFFFFFFFF AND PUSH32 0xFDFDD5231A3D0B9D8FEF4537311E980EFF42C7F5DF31C0BEFB02A985CF3C5928 CALLVALUE PUSH1 0x40 MLOAD PUSH2 0x4A2 SWAP2 SWAP1 PUSH2 0xCEF JUMP JUMPDEST PUSH1 0x40 MLOAD DUP1 SWAP2 SUB SWAP1 LOG2 PUSH2 0x4B2 PUSH2 0x86C JUMP JUMPDEST JUMP JUMPDEST PUSH2 0x4BC PUSH2 0x81F JUMP JUMPDEST PUSH0 CALLVALUE GT PUSH2 0x4FE JUMPI PUSH1 0x40 MLOAD PUSH32 0x8C379A000000000000000000000000000000000000000000000000000000000 DUP2 MSTORE PUSH1 0x4 ADD PUSH2 0x4F5 SWAP1 PUSH2 0xD65 JUMP JUMPDEST PUSH1 0x40 MLOAD DUP1 SWAP2 SUB SWAP1 REVERT JUMPDEST CALLVALUE PUSH1 0x1 PUSH0 CALLER PUSH20 0xFFFFFFFFFFFFFFFFFFFFFFFFFFFFFFFFFFFFFFFF AND PUSH20 0xFFFFFFFFFFFFFFFFFFFFFFFFFFFFFFFFFFFFFFFF AND DUP2 MSTORE PUSH1 0x20 ADD SWAP1 DUP2 MSTORE PUSH1 0x20 ADD PUSH0 KECCAK256 PUSH0 DUP3 DUP3 SLOAD PUSH2 0x54A SWAP2 SWAP1 PUSH2 0xC4C JUMP JUMPDEST SWAP3 POP POP DUP2 SWAP1 SSTORE POP CALLER PUSH20 0xFFFFFFFFFFFFFFFFFFFFFFFFFFFFFFFFFFFFFFFF AND PUSH32 0x2DA466A7B24304F47E87FA2E1E5A81B9831CE54FEC19055CE277CA2F39BA42C4 CALLVALUE PUSH1 0x40 MLOAD PUSH2 0x597 SWAP2 SWAP1 PUSH2 0x916 JUMP JUMPDEST PUSH1 0x40 MLOAD DUP1 SWAP2 SUB SWAP1 LOG2 PUSH2 0x5A7 PUSH2 0x86C JUMP JUMPDEST JUMP JUMPDEST PUSH2 0x5B1 PUSH2 0x81F JUMP JUMPDEST PUSH0 DUP3 GT PUSH2 0x5F3 JUMPI PUSH1 0x40 MLOAD PUSH32 0x8C379A000000000000000000000000000000000000000000000000000000000 DUP2 MSTORE PUSH1 0x4 ADD PUSH2 0x5EA SWAP1 PUSH2 0xDCD JUMP JUMPDEST PUSH1 0x40 MLOAD DUP1 SWAP2 SUB SWAP1 REVERT JUMPDEST DUP2 PUSH1 0x1 PUSH0 CALLER PUSH20 0xFFFFFFFFFFFFFFFFFFFFFFFFFFFFFFFFFFFFFFFF AND PUSH20 0xFFFFFFFFFFFFFFFFFFFFFFFFFFFFFFFFFFFFFFFF AND DUP2 MSTORE PUSH1 0x20 ADD SWAP1 DUP2 MSTORE PUSH1 0x20 ADD PUSH0 KECCAK256 SLOAD LT ISZERO PUSH2 0x673 JUMPI PUSH1 0x40 MLOAD PUSH32 0x8C379A000000000000000000000000000000000000000000000000000000000 DUP2 MSTORE PUSH1 0x4 ADD PUSH2 0x66A SWAP1 PUSH2 0xE35 JUMP JUMPDEST PUSH1 0x40 MLOAD DUP1 SWAP2 SUB SWAP1 REVERT JUMPDEST PUSH1 0x2 PUSH0 CALLER PUSH20 0xFFFFFFFFFFFFFFFFFFFFFFFFFFFFFFFFFFFFFFFF AND PUSH20 0xFFFFFFFFFFFFFFFFFFFFFFFFFFFFFFFFFFFFFFFF AND DUP2 MSTORE PUSH1 0x20 ADD SWAP1 DUP2 MSTORE PUSH1 0x20 ADD PUSH0 KECCAK256 PUSH0 DUP3 DUP2 MSTORE PUSH1 0x20 ADD SWAP1 DUP2 MSTORE PUSH1 0x20 ADD PUSH0 KECCAK256 PUSH0 SWAP1 SLOAD SWAP1 PUSH2 0x100 EXP SWAP1 DIV PUSH1 0xFF AND ISZERO PUSH2 0x70C JUMPI PUSH1 0x40 MLOAD PUSH32 0x8C379A000000000000000000000000000000000000000000000000000000000 DUP2 MSTORE PUSH1 0x4 ADD PUSH2 0x703 SWAP1 PUSH2 0xEC3 JUMP JUMPDEST PUSH1 0x40 MLOAD DUP1 SWAP2 SUB SWAP1 REVERT JUMPDEST PUSH1 0x1 PUSH1 0x2 PUSH0 CALLER PUSH20 0xFFFFFFFFFFFFFFFFFFFFFFFFFFFFFFFFFFFFFFFF AND PUSH20 0xFFFFFFFFFFFFFFFFFFFFFFFFFFFFFFFFFFFFFFFF AND DUP2 MSTORE PUSH1 0x20 ADD SWAP1 DUP2 MSTORE PUSH1 0x20 ADD PUSH0 KECCAK256 PUSH0 DUP4 DUP2 MSTORE PUSH1 0x20 ADD SWAP1 DUP2 MSTORE PUSH1 0x20 ADD PUSH0 KECCAK256 PUSH0 PUSH2 0x100 EXP DUP2 SLOAD DUP2 PUSH1 0xFF MUL NOT AND SWAP1 DUP4 ISZERO ISZERO MUL OR SWAP1 SSTORE POP DUP2 PUSH1 0x1 PUSH0 CALLER PUSH20 0xFFFFFFFFFFFFFFFFFFFFFFFFFFFFFFFFFFFFFFFF AND PUSH20 0xFFFFFFFFFFFFFFFFFFFFFFFFFFFFFFFFFFFFFFFF AND DUP2 MSTORE PUSH1 0x20 ADD SWAP1 DUP2 MSTORE PUSH1 0x20 ADD PUSH0 KECCAK256 PUSH0 DUP3 DUP3 SLOAD PUSH2 0x7BC SWAP2 SWAP1 PUSH2 0xEE1 JUMP JUMPDEST SWAP3 POP POP DUP2 SWAP1 SSTORE POP CALLER PUSH20 0xFFFFFFFFFFFFFFFFFFFFFFFFFFFFFFFFFFFFFFFF AND PUSH32 0x45F858E3A4E321BC6C114BF4BF83692BBBE7CDBD7905989376C1249DA43F6712 DUP4 DUP4 PUSH1 0x40 MLOAD PUSH2 0x80B SWAP3 SWAP2 SWAP1 PUSH2 0xF84 JUMP JUMPDEST PUSH1 0x40 MLOAD DUP1 SWAP2 SUB SWAP1 LOG2 PUSH2 0x81B PUSH2 0x86C JUMP JUMPDEST POP POP JUMP JUMPDEST PUSH1 0x2 PUSH0 SLOAD SUB PUSH2 0x863 JUMPI PUSH1 0x40 MLOAD PUSH32 0x8C379A000000000000000000000000000000000000000000000000000000000 DUP2 MSTORE PUSH1 0x4 ADD PUSH2 0x85A SWAP1 PUSH2 0x1008 JUMP JUMPDEST PUSH1 0x40 MLOAD DUP1 SWAP2 SUB SWAP1 REVERT JUMPDEST PUSH1 0x2 PUSH0 DUP2 SWAP1 SSTORE POP JUMP JUMPDEST PUSH1 0x1 PUSH0 DUP2 SWAP1 SSTORE POP JUMP JUMPDEST PUSH0 PUSH0 REVERT JUMPDEST PUSH0 PUSH20 0xFFFFFFFFFFFFFFFFFFFFFFFFFFFFFFFFFFFFFFFF DUP3 AND SWAP1 POP SWAP2 SWAP1 POP JUMP JUMPDEST PUSH0 PUSH2 0x8A2 DUP3 PUSH2 0x879 JUMP JUMPDEST SWAP1 POP SWAP2 SWAP1 POP JUMP JUMPDEST PUSH2 0x8B2 DUP2 PUSH2 0x898 JUMP JUMPDEST DUP2 EQ PUSH2 0x8BC JUMPI PUSH0 PUSH0 REVERT JUMPDEST POP JUMP JUMPDEST PUSH0 DUP2 CALLDATALOAD SWAP1 POP PUSH2 0x8CD DUP2 PUSH2 0x8A9 JUMP JUMPDEST SWAP3 SWAP2 POP POP JUMP JUMPDEST PUSH0 PUSH1 0x20 DUP3 DUP5 SUB SLT ISZERO PUSH2 0x8E8 JUMPI PUSH2 0x8E7 PUSH2 0x875 JUMP JUMPDEST JUMPDEST PUSH0 PUSH2 0x8F5 DUP5 DUP3 DUP6 ADD PUSH2 0x8BF JUMP JUMPDEST SWAP2 POP POP SWAP3 SWAP2 POP POP JUMP JUMPDEST PUSH0 DUP2 SWAP1 POP SWAP2 SWAP1 POP JUMP JUMPDEST PUSH2 0x910 DUP2 PUSH2 0x8FE JUMP JUMPDEST DUP3 MSTORE POP POP JUMP JUMPDEST PUSH0 PUSH1 0x20 DUP3 ADD SWAP1 POP PUSH2 0x929 PUSH0 DUP4 ADD DUP5 PUSH2 0x907 JUMP JUMPDEST SWAP3 SWAP2 POP POP JUMP JUMPDEST PUSH2 0x938 DUP2 PUSH2 0x8FE JUMP JUMPDEST DUP2 EQ PUSH2 0x942 JUMPI PUSH0 PUSH0 REVERT JUMPDEST POP JUMP JUMPDEST PUSH0 DUP2 CALLDATALOAD SWAP1 POP PUSH2 0x953 DUP2 PUSH2 0x92F JUMP JUMPDEST SWAP3 SWAP2 POP POP JUMP JUMPDEST PUSH0 PUSH0 PUSH1 0x40 DUP4 DUP6 SUB SLT ISZERO PUSH2 0x96F JUMPI PUSH2 0x96E PUSH2 0x875 JUMP JUMPDEST JUMPDEST PUSH0 PUSH2 0x97C DUP6 DUP3 DUP7 ADD PUSH2 0x8BF JUMP JUMPDEST SWAP3 POP POP PUSH1 0x20 PUSH2 0x98D DUP6 DUP3 DUP7 ADD PUSH2 0x945 JUMP JUMPDEST SWAP2 POP POP SWAP3 POP SWAP3 SWAP1 POP JUMP JUMPDEST PUSH0 DUP2 ISZERO ISZERO SWAP1 POP SWAP2 SWAP1 POP JUMP JUMPDEST PUSH2 0x9AB DUP2 PUSH2 0x997 JUMP JUMPDEST DUP3 MSTORE POP POP JUMP JUMPDEST PUSH0 PUSH1 0x20 DUP3 ADD SWAP1 POP PUSH2 0x9C4 PUSH0 DUP4 ADD DUP5 PUSH2 0x9A2 JUMP JUMPDEST SWAP3 SWAP2 POP POP JUMP JUMPDEST PUSH0 PUSH0 PUSH1 0x40 DUP4 DUP6 SUB SLT ISZERO PUSH2 0x9E0 JUMPI PUSH2 0x9DF PUSH2 0x875 JUMP JUMPDEST JUMPDEST PUSH0 PUSH2 0x9ED DUP6 DUP3 DUP7 ADD PUSH2 0x945 JUMP JUMPDEST SWAP3 POP POP PUSH1 0x20 PUSH2 0x9FE DUP6 DUP3 DUP7 ADD PUSH2 0x945 JUMP JUMPDEST SWAP2 POP POP SWAP3 POP SWAP3 SWAP1 POP JUMP JUMPDEST PUSH0 DUP3 DUP3 MSTORE PUSH1 0x20 DUP3 ADD SWAP1 POP SWAP3 SWAP2 POP POP JUMP JUMPDEST PUSH32 0x4E6F2066756E647320746F207769746864726177000000000000000000000000 PUSH0 DUP3 ADD MSTORE POP JUMP JUMPDEST PUSH0 PUSH2 0xA4C PUSH1 0x14 DUP4 PUSH2 0xA08 JUMP JUMPDEST SWAP2 POP PUSH2 0xA57 DUP3 PUSH2 0xA18 JUMP JUMPDEST PUSH1 0x20 DUP3 ADD SWAP1 POP SWAP2 SWAP1 POP JUMP JUMPDEST PUSH0 PUSH1 0x20 DUP3 ADD SWAP1 POP DUP2 DUP2 SUB PUSH0 DUP4 ADD MSTORE PUSH2 0xA79 DUP2 PUSH2 0xA40 JUMP JUMPDEST SWAP1 POP SWAP2 SWAP1 POP JUMP JUMPDEST PUSH0 DUP2 SWAP1 POP SWAP3 SWAP2 POP POP JUMP JUMPDEST POP JUMP JUMPDEST PUSH0 PUSH2 0xA98 PUSH0 DUP4 PUSH2 0xA80 JUMP JUMPDEST SWAP2 POP PUSH2 0xAA3 DUP3 PUSH2 0xA8A JUMP JUMPDEST PUSH0 DUP3 ADD SWAP1 POP SWAP2 SWAP1 POP JUMP JUMPDEST PUSH0 PUSH2 0xAB7 DUP3 PUSH2 0xA8D JUMP JUMPDEST SWAP2 POP DUP2 SWAP1 POP SWAP2 SWAP1 POP JUMP JUMPDEST PUSH32 0x5769746864726177616C206661696C6564000000000000000000000000000000 PUSH0 DUP3 ADD MSTORE POP JUMP JUMPDEST PUSH0 PUSH2 0xAF5 PUSH1 0x11 DUP4 PUSH2 0xA08 JUMP JUMPDEST SWAP2 POP PUSH2 0xB00 DUP3 PUSH2 0xAC1 JUMP JUMPDEST PUSH1 0x20 DUP3 ADD SWAP1 POP SWAP2 SWAP1 POP JUMP JUMPDEST PUSH0 PUSH1 0x20 DUP3 ADD SWAP1 POP DUP2 DUP2 SUB PUSH0 DUP4 ADD MSTORE PUSH2 0xB22 DUP2 PUSH2 0xAE9 JUMP JUMPDEST SWAP1 POP SWAP2 SWAP1 POP JUMP JUMPDEST PUSH32 0x4C6F63616C206F6E2D636861696E2073746174652066696E616C2066726F6D20 PUSH0 DUP3 ADD MSTORE PUSH32 0x636F6E7472616374277320706572737065637469766500000000000000000000 PUSH1 0x20 DUP3 ADD MSTORE POP JUMP JUMPDEST PUSH0 PUSH2 0xB83 PUSH1 0x36 DUP4 PUSH2 0xA08 JUMP JUMPDEST SWAP2 POP PUSH2 0xB8E DUP3 PUSH2 0xB29 JUMP JUMPDEST PUSH1 0x40 DUP3 ADD SWAP1 POP SWAP2 SWAP1 POP JUMP JUMPDEST PUSH0 PUSH1 0x20 DUP3 ADD SWAP1 POP DUP2 DUP2 SUB PUSH0 DUP4 ADD MSTORE PUSH2 0xBB0 DUP2 PUSH2 0xB77 JUMP JUMPDEST SWAP1 POP SWAP2 SWAP1 POP JUMP JUMPDEST PUSH32 0x4E6F2045746865722073656E7400000000000000000000000000000000000000 PUSH0 DUP3 ADD MSTORE POP JUMP JUMPDEST PUSH0 PUSH2 0xBEB PUSH1 0xD DUP4 PUSH2 0xA08 JUMP JUMPDEST SWAP2 POP PUSH2 0xBF6 DUP3 PUSH2 0xBB7 JUMP JUMPDEST PUSH1 0x20 DUP3 ADD SWAP1 POP SWAP2 SWAP1 POP JUMP JUMPDEST PUSH0 PUSH1 0x20 DUP3 ADD SWAP1 POP DUP2 DUP2 SUB PUSH0 DUP4 ADD MSTORE PUSH2 0xC18 DUP2 PUSH2 0xBDF JUMP JUMPDEST SWAP1 POP SWAP2 SWAP1 POP JUMP JUMPDEST PUSH32 0x4E487B7100000000000000000000000000000000000000000000000000000000 PUSH0 MSTORE PUSH1 0x11 PUSH1 0x4 MSTORE PUSH1 0x24 PUSH0 REVERT JUMPDEST PUSH0 PUSH2 0xC56 DUP3 PUSH2 0x8FE JUMP JUMPDEST SWAP2 POP PUSH2 0xC61 DUP4 PUSH2 0x8FE JUMP JUMPDEST SWAP3 POP DUP3 DUP3 ADD SWAP1 POP DUP1 DUP3 GT ISZERO PUSH2 0xC79 JUMPI PUSH2 0xC78 PUSH2 0xC1F JUMP JUMPDEST JUMPDEST SWAP3 SWAP2 POP POP JUMP JUMPDEST PUSH32 0x4F6E2D636861696E2066696E616C697479206D69746967617465732074797069 PUSH0 DUP3 ADD MSTORE PUSH32 0x63616C2046696E6E65792041747461636B207265706C61797300000000000000 PUSH1 0x20 DUP3 ADD MSTORE POP JUMP JUMPDEST PUSH0 PUSH2 0xCD9 PUSH1 0x39 DUP4 PUSH2 0xA08 JUMP JUMPDEST SWAP2 POP PUSH2 0xCE4 DUP3 PUSH2 0xC7F JUMP JUMPDEST PUSH1 0x40 DUP3 ADD SWAP1 POP SWAP2 SWAP1 POP JUMP JUMPDEST PUSH0 PUSH1 0x40 DUP3 ADD SWAP1 POP PUSH2 0xD02 PUSH0 DUP4 ADD DUP5 PUSH2 0x907 JUMP JUMPDEST DUP2 DUP2 SUB PUSH1 0x20 DUP4 ADD MSTORE PUSH2 0xD13 DUP2 PUSH2 0xCCD JUMP JUMPDEST SWAP1 POP SWAP3 SWAP2 POP POP JUMP JUMPDEST PUSH32 0x4D757374206465706F736974203E203000000000000000000000000000000000 PUSH0 DUP3 ADD MSTORE POP JUMP JUMPDEST PUSH0 PUSH2 0xD4F PUSH1 0x10 DUP4 PUSH2 0xA08 JUMP JUMPDEST SWAP2 POP PUSH2 0xD5A DUP3 PUSH2 0xD1B JUMP JUMPDEST PUSH1 0x20 DUP3 ADD SWAP1 POP SWAP2 SWAP1 POP JUMP JUMPDEST PUSH0 PUSH1 0x20 DUP3 ADD SWAP1 POP DUP2 DUP2 SUB PUSH0 DUP4 ADD MSTORE PUSH2 0xD7C DUP2 PUSH2 0xD43 JUMP JUMPDEST SWAP1 POP SWAP2 SWAP1 POP JUMP JUMPDEST PUSH32 0x5370656E6420616D6F756E74206D757374206265203E20300000000000000000 PUSH0 DUP3 ADD MSTORE POP JUMP JUMPDEST PUSH0 PUSH2 0xDB7 PUSH1 0x18 DUP4 PUSH2 0xA08 JUMP JUMPDEST SWAP2 POP PUSH2 0xDC2 DUP3 PUSH2 0xD83 JUMP JUMPDEST PUSH1 0x20 DUP3 ADD SWAP1 POP SWAP2 SWAP1 POP JUMP JUMPDEST PUSH0 PUSH1 0x20 DUP3 ADD SWAP1 POP DUP2 DUP2 SUB PUSH0 DUP4 ADD MSTORE PUSH2 0xDE4 DUP2 PUSH2 0xDAB JUMP JUMPDEST SWAP1 POP SWAP2 SWAP1 POP JUMP JUMPDEST PUSH32 0x496E73756666696369656E742062616C616E6365000000000000000000000000 PUSH0 DUP3 ADD MSTORE POP JUMP JUMPDEST PUSH0 PUSH2 0xE1F PUSH1 0x14 DUP4 PUSH2 0xA08 JUMP JUMPDEST SWAP2 POP PUSH2 0xE2A DUP3 PUSH2 0xDEB JUMP JUMPDEST PUSH1 0x20 DUP3 ADD SWAP1 POP SWAP2 SWAP1 POP JUMP JUMPDEST PUSH0 PUSH1 0x20 DUP3 ADD SWAP1 POP DUP2 DUP2 SUB PUSH0 DUP4 ADD MSTORE PUSH2 0xE4C DUP2 PUSH2 0xE13 JUMP JUMPDEST SWAP1 POP SWAP2 SWAP1 POP JUMP JUMPDEST PUSH32 0x4E6F6E636520616C726561647920757365642028726163652061747461636B20 PUSH0 DUP3 ADD MSTORE PUSH32 0x617474656D70743F290000000000000000000000000000000000000000000000 PUSH1 0x20 DUP3 ADD MSTORE POP JUMP JUMPDEST PUSH0 PUSH2 0xEAD PUSH1 0x29 DUP4 PUSH2 0xA08 JUMP JUMPDEST SWAP2 POP PUSH2 0xEB8 DUP3 PUSH2 0xE53 JUMP JUMPDEST PUSH1 0x40 DUP3 ADD SWAP1 POP SWAP2 SWAP1 POP JUMP JUMPDEST PUSH0 PUSH1 0x20 DUP3 ADD SWAP1 POP DUP2 DUP2 SUB PUSH0 DUP4 ADD MSTORE PUSH2 0xEDA DUP2 PUSH2 0xEA1 JUMP JUMPDEST SWAP1 POP SWAP2 SWAP1 POP JUMP JUMPDEST PUSH0 PUSH2 0xEEB DUP3 PUSH2 0x8FE JUMP JUMPDEST SWAP2 POP PUSH2 0xEF6 DUP4 PUSH2 0x8FE JUMP JUMPDEST SWAP3 POP DUP3 DUP3 SUB SWAP1 POP DUP2 DUP2 GT ISZERO PUSH2 0xF0E JUMPI PUSH2 0xF0D PUSH2 0xC1F JUMP JUMPDEST JUMPDEST SWAP3 SWAP2 POP POP JUMP JUMPDEST PUSH32 0x526163652041747461636B207370656E642077697468206E6F6E63652D626173 PUSH0 DUP3 ADD MSTORE PUSH32 0x6564207265706C61792070726576656E74696F6E000000000000000000000000 PUSH1 0x20 DUP3 ADD MSTORE POP JUMP JUMPDEST PUSH0 PUSH2 0xF6E PUSH1 0x34 DUP4 PUSH2 0xA08 JUMP JUMPDEST SWAP2 POP PUSH2 0xF79 DUP3 PUSH2 0xF14 JUMP JUMPDEST PUSH1 0x40 DUP3 ADD SWAP1 POP SWAP2 SWAP1 POP JUMP JUMPDEST PUSH0 PUSH1 0x60 DUP3 ADD SWAP1 POP PUSH2 0xF97 PUSH0 DUP4 ADD DUP6 PUSH2 0x907 JUMP JUMPDEST PUSH2 0xFA4 PUSH1 0x20 DUP4 ADD DUP5 PUSH2 0x907 JUMP JUMPDEST DUP2 DUP2 SUB PUSH1 0x40 DUP4 ADD MSTORE PUSH2 0xFB5 DUP2 PUSH2 0xF62 JUMP JUMPDEST SWAP1 POP SWAP4 SWAP3 POP POP POP JUMP JUMPDEST PUSH32 0x5265656E7472616E637947756172643A207265656E7472616E742063616C6C00 PUSH0 DUP3 ADD MSTORE POP JUMP JUMPDEST PUSH0 PUSH2 0xFF2 PUSH1 0x1F DUP4 PUSH2 0xA08 JUMP JUMPDEST SWAP2 POP PUSH2 0xFFD DUP3 PUSH2 0xFBE JUMP JUMPDEST PUSH1 0x20 DUP3 ADD SWAP1 POP SWAP2 SWAP1 POP JUMP JUMPDEST PUSH0 PUSH1 0x20 DUP3 ADD SWAP1 POP DUP2 DUP2 SUB PUSH0 DUP4 ADD MSTORE PUSH2 0x101F DUP2 PUSH2 0xFE6 JUMP JUMPDEST SWAP1 POP SWAP2 SWAP1 POP JUMP INVALID LOG2 PUSH5 0x6970667358 0x22 SLT KECCAK256 0x4E SWAP7 JUMPDEST 0xED EXTCODECOPY SWAP14 PUSH13 0x2E2CBE14F55D15A6448BEB1CFF 0xC CALLDATALOAD PUSH18 0x5DE7A583F4CEF926BB64736F6C634300081D STOP CALLER "
				},
				"gasEstimates": {
					"creation": {
						"codeDepositCost": "837600",
						"executionCost": "22981",
						"totalCost": "860581"
					},
					"external": {
						"balances(address)": "2803",
						"deposit()": "infinite",
						"finneyAttackDeposit()": "infinite",
						"raceAttackSpend(uint256,uint256)": "infinite",
						"usedNonces(address,uint256)": "3070",
						"vector76AttackDemo()": "31938",
						"withdraw()": "infinite"
					}
				},
				"methodIdentifiers": {
					"balances(address)": "27e235e3",
					"deposit()": "d0e30db0",
					"finneyAttackDeposit()": "b8718751",
					"raceAttackSpend(uint256,uint256)": "ef9e4b39",
					"usedNonces(address,uint256)": "6a8a6894",
					"vector76AttackDemo()": "53869072",
					"withdraw()": "3ccfd60b"
				}
			},
			"storageLayout": {
				"storage": [
					{
						"astId": 10,
						"contract": "D/doubleSpendingtypes.sol:DoubleSpendingTypesDemo",
						"label": "_status",
						"offset": 0,
						"slot": "0",
						"type": "t_uint256"
					},
					{
						"astId": 75,
						"contract": "D/doubleSpendingtypes.sol:DoubleSpendingTypesDemo",
						"label": "balances",
						"offset": 0,
						"slot": "1",
						"type": "t_mapping(t_address,t_uint256)"
					},
					{
						"astId": 82,
						"contract": "D/doubleSpendingtypes.sol:DoubleSpendingTypesDemo",
						"label": "usedNonces",
						"offset": 0,
						"slot": "2",
						"type": "t_mapping(t_address,t_mapping(t_uint256,t_bool))"
					}
				],
				"types": {
					"t_address": {
						"encoding": "inplace",
						"label": "address",
						"numberOfBytes": "20"
					},
					"t_bool": {
						"encoding": "inplace",
						"label": "bool",
						"numberOfBytes": "1"
					},
					"t_mapping(t_address,t_mapping(t_uint256,t_bool))": {
						"encoding": "mapping",
						"key": "t_address",
						"label": "mapping(address => mapping(uint256 => bool))",
						"numberOfBytes": "32",
						"value": "t_mapping(t_uint256,t_bool)"
					},
					"t_mapping(t_address,t_uint256)": {
						"encoding": "mapping",
						"key": "t_address",
						"label": "mapping(address => uint256)",
						"numberOfBytes": "32",
						"value": "t_uint256"
					},
					"t_mapping(t_uint256,t_bool)": {
						"encoding": "mapping",
						"key": "t_uint256",
						"label": "mapping(uint256 => bool)",
						"numberOfBytes": "32",
						"value": "t_bool"
					},
					"t_uint256": {
						"encoding": "inplace",
						"label": "uint256",
						"numberOfBytes": "32"
					}
				}
			},
			"userdoc": {
				"kind": "user",
				"methods": {
					"balances(address)": {
						"notice": "Mapping from user => Ether balance (simple deposit system)."
					},
					"deposit()": {
						"notice": "Users deposit Ether, credited to their on-chain balance."
					},
					"finneyAttackDeposit()": {
						"notice": "Simulates a Finney Attack deposit. If re-broadcast, only the mined transaction is final on-chain."
					},
					"raceAttackSpend(uint256,uint256)": {
						"notice": "\"Spend\" scenario requiring a unique nonce to mitigate race/replay attacks."
					},
					"usedNonces(address,uint256)": {
						"notice": "Mapping from user => (nonce => bool) to mark used nonces for each spend operation."
					},
					"vector76AttackDemo()": {
						"notice": "Demonstrates local on-chain finality for a transaction once it's in a mined block."
					},
					"withdraw()": {
						"notice": "Users withdraw their entire balance (a simple pull pattern)."
					}
				},
				"notice": "Demonstrates three types of double-spend attacks (Race Attack, Finney Attack, Vector76 Attack), along with on-chain mitigations. This contract is for educational demonstration only.",
				"version": 1
			}
		}
	}
}