{
	"D/dyor.sol": {
		"DYORRegistry": {
			"abi": [
				{
					"anonymous": false,
					"inputs": [
						{
							"indexed": true,
							"internalType": "address",
							"name": "user",
							"type": "address"
						},
						{
							"indexed": false,
							"internalType": "string",
							"name": "url",
							"type": "string"
						},
						{
							"indexed": false,
							"internalType": "string",
							"name": "note",
							"type": "string"
						},
						{
							"indexed": false,
							"internalType": "uint256",
							"name": "timestamp",
							"type": "uint256"
						}
					],
					"name": "SubmissionCreated",
					"type": "event"
				},
				{
					"anonymous": false,
					"inputs": [
						{
							"indexed": true,
							"internalType": "address",
							"name": "user",
							"type": "address"
						},
						{
							"indexed": false,
							"internalType": "uint256",
							"name": "timestamp",
							"type": "uint256"
						}
					],
					"name": "SubmissionRemoved",
					"type": "event"
				},
				{
					"anonymous": false,
					"inputs": [
						{
							"indexed": true,
							"internalType": "address",
							"name": "user",
							"type": "address"
						},
						{
							"indexed": false,
							"internalType": "string",
							"name": "newUrl",
							"type": "string"
						},
						{
							"indexed": false,
							"internalType": "string",
							"name": "newNote",
							"type": "string"
						},
						{
							"indexed": false,
							"internalType": "uint256",
							"name": "timestamp",
							"type": "uint256"
						}
					],
					"name": "SubmissionUpdated",
					"type": "event"
				},
				{
					"inputs": [
						{
							"internalType": "string",
							"name": "url",
							"type": "string"
						},
						{
							"internalType": "string",
							"name": "note",
							"type": "string"
						}
					],
					"name": "createSubmission",
					"outputs": [],
					"stateMutability": "nonpayable",
					"type": "function"
				},
				{
					"inputs": [],
					"name": "removeSubmission",
					"outputs": [],
					"stateMutability": "nonpayable",
					"type": "function"
				},
				{
					"inputs": [
						{
							"internalType": "address",
							"name": "",
							"type": "address"
						}
					],
					"name": "submissions",
					"outputs": [
						{
							"internalType": "string",
							"name": "url",
							"type": "string"
						},
						{
							"internalType": "string",
							"name": "note",
							"type": "string"
						},
						{
							"internalType": "uint256",
							"name": "timestamp",
							"type": "uint256"
						},
						{
							"internalType": "bool",
							"name": "active",
							"type": "bool"
						}
					],
					"stateMutability": "view",
					"type": "function"
				},
				{
					"inputs": [
						{
							"internalType": "string",
							"name": "newUrl",
							"type": "string"
						},
						{
							"internalType": "string",
							"name": "newNote",
							"type": "string"
						}
					],
					"name": "updateSubmission",
					"outputs": [],
					"stateMutability": "nonpayable",
					"type": "function"
				}
			],
			"devdoc": {
				"kind": "dev",
				"methods": {
					"createSubmission(string,string)": {
						"params": {
							"note": "A note describing the research.",
							"url": "The URL (or IPFS hash) pointing to the research document."
						}
					},
					"updateSubmission(string,string)": {
						"params": {
							"newNote": "The new note describing the research.",
							"newUrl": "The new URL (or IPFS hash) for the research document."
						}
					}
				},
				"title": "DYORRegistry",
				"version": 1
			},
			"evm": {
				"assembly": "    /* \"D/dyor.sol\":375:3107  contract DYORRegistry is ReentrancyGuard {... */\n  mstore(0x40, 0x80)\n  callvalue\n  dup1\n  iszero\n  tag_1\n  jumpi\n  0x00\n  dup1\n  revert\ntag_1:\n  pop\n    /* \"@openzeppelin/contracts/security/ReentrancyGuard.sol\":1716:1717  1 */\n  0x01\n    /* \"@openzeppelin/contracts/security/ReentrancyGuard.sol\":1821:1828  _status */\n  0x00\n    /* \"@openzeppelin/contracts/security/ReentrancyGuard.sol\":1821:1843  _status = _NOT_ENTERED */\n  dup2\n  swap1\n  sstore\n  pop\n    /* \"D/dyor.sol\":375:3107  contract DYORRegistry is ReentrancyGuard {... */\n  dataSize(sub_0)\n  dup1\n  dataOffset(sub_0)\n  0x00\n  codecopy\n  0x00\n  return\nstop\n\nsub_0: assembly {\n        /* \"D/dyor.sol\":375:3107  contract DYORRegistry is ReentrancyGuard {... */\n      mstore(0x40, 0x80)\n      callvalue\n      dup1\n      iszero\n      tag_1\n      jumpi\n      0x00\n      dup1\n      revert\n    tag_1:\n      pop\n      jumpi(tag_2, lt(calldatasize, 0x04))\n      shr(0xe0, calldataload(0x00))\n      dup1\n      0x6053e9e5\n      eq\n      tag_3\n      jumpi\n      dup1\n      0x89e14e16\n      eq\n      tag_4\n      jumpi\n      dup1\n      0x921eecdc\n      eq\n      tag_5\n      jumpi\n      dup1\n      0x98937047\n      eq\n      tag_6\n      jumpi\n    tag_2:\n      0x00\n      dup1\n      revert\n        /* \"D/dyor.sol\":1419:1996  function createSubmission(string calldata url, string calldata note)... */\n    tag_3:\n      tag_7\n      0x04\n      dup1\n      calldatasize\n      sub\n      dup2\n      add\n      swap1\n      tag_8\n      swap2\n      swap1\n      tag_9\n      jump\t// in\n    tag_8:\n      tag_10\n      jump\t// in\n    tag_7:\n      stop\n        /* \"D/dyor.sol\":886:943  mapping(address => ResearchSubmission) public submissions */\n    tag_4:\n      tag_11\n      0x04\n      dup1\n      calldatasize\n      sub\n      dup2\n      add\n      swap1\n      tag_12\n      swap2\n      swap1\n      tag_13\n      jump\t// in\n    tag_12:\n      tag_14\n      jump\t// in\n    tag_11:\n      mload(0x40)\n      tag_15\n      swap5\n      swap4\n      swap3\n      swap2\n      swap1\n      tag_16\n      jump\t// in\n    tag_15:\n      mload(0x40)\n      dup1\n      swap2\n      sub\n      swap1\n      return\n        /* \"D/dyor.sol\":2856:3105  function removeSubmission() external nonReentrant {... */\n    tag_5:\n      tag_17\n      tag_18\n      jump\t// in\n    tag_17:\n      stop\n        /* \"D/dyor.sol\":2196:2778  function updateSubmission(string calldata newUrl, string calldata newNote)... */\n    tag_6:\n      tag_19\n      0x04\n      dup1\n      calldatasize\n      sub\n      dup2\n      add\n      swap1\n      tag_20\n      swap2\n      swap1\n      tag_9\n      jump\t// in\n    tag_20:\n      tag_21\n      jump\t// in\n    tag_19:\n      stop\n        /* \"D/dyor.sol\":1419:1996  function createSubmission(string calldata url, string calldata note)... */\n    tag_10:\n        /* \"@openzeppelin/contracts/security/ReentrancyGuard.sol\":2261:2282  _nonReentrantBefore() */\n      tag_23\n        /* \"@openzeppelin/contracts/security/ReentrancyGuard.sol\":2261:2280  _nonReentrantBefore */\n      tag_24\n        /* \"@openzeppelin/contracts/security/ReentrancyGuard.sol\":2261:2282  _nonReentrantBefore() */\n      jump\t// in\n    tag_23:\n        /* \"D/dyor.sol\":1549:1560  submissions */\n      0x01\n        /* \"D/dyor.sol\":1549:1572  submissions[msg.sender] */\n      0x00\n        /* \"D/dyor.sol\":1561:1571  msg.sender */\n      caller\n        /* \"D/dyor.sol\":1549:1572  submissions[msg.sender] */\n      0xffffffffffffffffffffffffffffffffffffffff\n      and\n      0xffffffffffffffffffffffffffffffffffffffff\n      and\n      dup2\n      mstore\n      0x20\n      add\n      swap1\n      dup2\n      mstore\n      0x20\n      add\n      0x00\n      keccak256\n        /* \"D/dyor.sol\":1549:1579  submissions[msg.sender].active */\n      0x03\n      add\n      0x00\n      swap1\n      sload\n      swap1\n      0x0100\n      exp\n      swap1\n      div\n      0xff\n      and\n        /* \"D/dyor.sol\":1548:1579  !submissions[msg.sender].active */\n      iszero\n        /* \"D/dyor.sol\":1540:1609  require(!submissions[msg.sender].active, \"Submission already exists\") */\n      tag_26\n      jumpi\n      mload(0x40)\n      0x08c379a000000000000000000000000000000000000000000000000000000000\n      dup2\n      mstore\n      0x04\n      add\n      tag_27\n      swap1\n      tag_28\n      jump\t// in\n    tag_27:\n      mload(0x40)\n      dup1\n      swap2\n      sub\n      swap1\n      revert\n    tag_26:\n        /* \"D/dyor.sol\":1647:1648  0 */\n      0x00\n        /* \"D/dyor.sol\":1633:1636  url */\n      dup5\n      dup5\n        /* \"D/dyor.sol\":1627:1644  bytes(url).length */\n      swap1\n      pop\n        /* \"D/dyor.sol\":1627:1648  bytes(url).length > 0 */\n      gt\n        /* \"D/dyor.sol\":1619:1672  require(bytes(url).length > 0, \"URL cannot be empty\") */\n      tag_29\n      jumpi\n      mload(0x40)\n      0x08c379a000000000000000000000000000000000000000000000000000000000\n      dup2\n      mstore\n      0x04\n      add\n      tag_30\n      swap1\n      tag_31\n      jump\t// in\n    tag_30:\n      mload(0x40)\n      dup1\n      swap2\n      sub\n      swap1\n      revert\n    tag_29:\n        /* \"D/dyor.sol\":1711:1712  0 */\n      0x00\n        /* \"D/dyor.sol\":1696:1700  note */\n      dup3\n      dup3\n        /* \"D/dyor.sol\":1690:1708  bytes(note).length */\n      swap1\n      pop\n        /* \"D/dyor.sol\":1690:1712  bytes(note).length > 0 */\n      gt\n        /* \"D/dyor.sol\":1682:1737  require(bytes(note).length > 0, \"Note cannot be empty\") */\n      tag_32\n      jumpi\n      mload(0x40)\n      0x08c379a000000000000000000000000000000000000000000000000000000000\n      dup2\n      mstore\n      0x04\n      add\n      tag_33\n      swap1\n      tag_34\n      jump\t// in\n    tag_33:\n      mload(0x40)\n      dup1\n      swap2\n      sub\n      swap1\n      revert\n    tag_32:\n        /* \"D/dyor.sol\":1774:1916  ResearchSubmission({... */\n      mload(0x40)\n      dup1\n      0x80\n      add\n      0x40\n      mstore\n      dup1\n        /* \"D/dyor.sol\":1812:1815  url */\n      dup6\n      dup6\n        /* \"D/dyor.sol\":1774:1916  ResearchSubmission({... */\n      dup1\n      dup1\n      0x1f\n      add\n      0x20\n      dup1\n      swap2\n      div\n      mul\n      0x20\n      add\n      mload(0x40)\n      swap1\n      dup2\n      add\n      0x40\n      mstore\n      dup1\n      swap4\n      swap3\n      swap2\n      swap1\n      dup2\n      dup2\n      mstore\n      0x20\n      add\n      dup4\n      dup4\n      dup1\n      dup3\n      dup5\n      calldatacopy\n      0x00\n      dup2\n      dup5\n      add\n      mstore\n      not(0x1f)\n      0x1f\n      dup3\n      add\n      and\n      swap1\n      pop\n      dup1\n      dup4\n      add\n      swap3\n      pop\n      pop\n      pop\n      pop\n      pop\n      pop\n      pop\n      dup2\n      mstore\n      0x20\n      add\n        /* \"D/dyor.sol\":1835:1839  note */\n      dup4\n      dup4\n        /* \"D/dyor.sol\":1774:1916  ResearchSubmission({... */\n      dup1\n      dup1\n      0x1f\n      add\n      0x20\n      dup1\n      swap2\n      div\n      mul\n      0x20\n      add\n      mload(0x40)\n      swap1\n      dup2\n      add\n      0x40\n      mstore\n      dup1\n      swap4\n      swap3\n      swap2\n      swap1\n      dup2\n      dup2\n      mstore\n      0x20\n      add\n      dup4\n      dup4\n      dup1\n      dup3\n      dup5\n      calldatacopy\n      0x00\n      dup2\n      dup5\n      add\n      mstore\n      not(0x1f)\n      0x1f\n      dup3\n      add\n      and\n      swap1\n      pop\n      dup1\n      dup4\n      add\n      swap3\n      pop\n      pop\n      pop\n      pop\n      pop\n      pop\n      pop\n      dup2\n      mstore\n      0x20\n      add\n        /* \"D/dyor.sol\":1864:1879  block.timestamp */\n      timestamp\n        /* \"D/dyor.sol\":1774:1916  ResearchSubmission({... */\n      dup2\n      mstore\n      0x20\n      add\n        /* \"D/dyor.sol\":1901:1905  true */\n      0x01\n        /* \"D/dyor.sol\":1774:1916  ResearchSubmission({... */\n      iszero\n      iszero\n      dup2\n      mstore\n      pop\n        /* \"D/dyor.sol\":1748:1759  submissions */\n      0x01\n        /* \"D/dyor.sol\":1748:1771  submissions[msg.sender] */\n      0x00\n        /* \"D/dyor.sol\":1760:1770  msg.sender */\n      caller\n        /* \"D/dyor.sol\":1748:1771  submissions[msg.sender] */\n      0xffffffffffffffffffffffffffffffffffffffff\n      and\n      0xffffffffffffffffffffffffffffffffffffffff\n      and\n      dup2\n      mstore\n      0x20\n      add\n      swap1\n      dup2\n      mstore\n      0x20\n      add\n      0x00\n      keccak256\n        /* \"D/dyor.sol\":1748:1916  submissions[msg.sender] = ResearchSubmission({... */\n      0x00\n      dup3\n      add\n      mload\n      dup2\n      0x00\n      add\n      swap1\n      dup2\n      tag_35\n      swap2\n      swap1\n      tag_36\n      jump\t// in\n    tag_35:\n      pop\n      0x20\n      dup3\n      add\n      mload\n      dup2\n      0x01\n      add\n      swap1\n      dup2\n      tag_37\n      swap2\n      swap1\n      tag_36\n      jump\t// in\n    tag_37:\n      pop\n      0x40\n      dup3\n      add\n      mload\n      dup2\n      0x02\n      add\n      sstore\n      0x60\n      dup3\n      add\n      mload\n      dup2\n      0x03\n      add\n      exp(0x0100, 0x00)\n      dup2\n      sload\n      dup2\n      0xff\n      mul\n      not\n      and\n      swap1\n      dup4\n      iszero\n      iszero\n      mul\n      or\n      swap1\n      sstore\n      pop\n      swap1\n      pop\n      pop\n        /* \"D/dyor.sol\":1950:1960  msg.sender */\n      caller\n        /* \"D/dyor.sol\":1932:1989  SubmissionCreated(msg.sender, url, note, block.timestamp) */\n      0xffffffffffffffffffffffffffffffffffffffff\n      and\n      0x334169e3f29a6403da0093c1c0920e489ef219944ebb813b15fc804a32eca7e5\n        /* \"D/dyor.sol\":1962:1965  url */\n      dup6\n      dup6\n        /* \"D/dyor.sol\":1967:1971  note */\n      dup6\n      dup6\n        /* \"D/dyor.sol\":1973:1988  block.timestamp */\n      timestamp\n        /* \"D/dyor.sol\":1932:1989  SubmissionCreated(msg.sender, url, note, block.timestamp) */\n      mload(0x40)\n      tag_38\n      swap6\n      swap5\n      swap4\n      swap3\n      swap2\n      swap1\n      tag_39\n      jump\t// in\n    tag_38:\n      mload(0x40)\n      dup1\n      swap2\n      sub\n      swap1\n      log2\n        /* \"@openzeppelin/contracts/security/ReentrancyGuard.sol\":2303:2323  _nonReentrantAfter() */\n      tag_40\n        /* \"@openzeppelin/contracts/security/ReentrancyGuard.sol\":2303:2321  _nonReentrantAfter */\n      tag_41\n        /* \"@openzeppelin/contracts/security/ReentrancyGuard.sol\":2303:2323  _nonReentrantAfter() */\n      jump\t// in\n    tag_40:\n        /* \"D/dyor.sol\":1419:1996  function createSubmission(string calldata url, string calldata note)... */\n      pop\n      pop\n      pop\n      pop\n      jump\t// out\n        /* \"D/dyor.sol\":886:943  mapping(address => ResearchSubmission) public submissions */\n    tag_14:\n      mstore(0x20, 0x01)\n      dup1\n      0x00\n      mstore\n      keccak256(0x00, 0x40)\n      0x00\n      swap2\n      pop\n      swap1\n      pop\n      dup1\n      0x00\n      add\n      dup1\n      sload\n      tag_42\n      swap1\n      tag_43\n      jump\t// in\n    tag_42:\n      dup1\n      0x1f\n      add\n      0x20\n      dup1\n      swap2\n      div\n      mul\n      0x20\n      add\n      mload(0x40)\n      swap1\n      dup2\n      add\n      0x40\n      mstore\n      dup1\n      swap3\n      swap2\n      swap1\n      dup2\n      dup2\n      mstore\n      0x20\n      add\n      dup3\n      dup1\n      sload\n      tag_44\n      swap1\n      tag_43\n      jump\t// in\n    tag_44:\n      dup1\n      iszero\n      tag_45\n      jumpi\n      dup1\n      0x1f\n      lt\n      tag_46\n      jumpi\n      0x0100\n      dup1\n      dup4\n      sload\n      div\n      mul\n      dup4\n      mstore\n      swap2\n      0x20\n      add\n      swap2\n      jump(tag_45)\n    tag_46:\n      dup3\n      add\n      swap2\n      swap1\n      0x00\n      mstore\n      keccak256(0x00, 0x20)\n      swap1\n    tag_47:\n      dup2\n      sload\n      dup2\n      mstore\n      swap1\n      0x01\n      add\n      swap1\n      0x20\n      add\n      dup1\n      dup4\n      gt\n      tag_47\n      jumpi\n      dup3\n      swap1\n      sub\n      0x1f\n      and\n      dup3\n      add\n      swap2\n    tag_45:\n      pop\n      pop\n      pop\n      pop\n      pop\n      swap1\n      dup1\n      0x01\n      add\n      dup1\n      sload\n      tag_48\n      swap1\n      tag_43\n      jump\t// in\n    tag_48:\n      dup1\n      0x1f\n      add\n      0x20\n      dup1\n      swap2\n      div\n      mul\n      0x20\n      add\n      mload(0x40)\n      swap1\n      dup2\n      add\n      0x40\n      mstore\n      dup1\n      swap3\n      swap2\n      swap1\n      dup2\n      dup2\n      mstore\n      0x20\n      add\n      dup3\n      dup1\n      sload\n      tag_49\n      swap1\n      tag_43\n      jump\t// in\n    tag_49:\n      dup1\n      iszero\n      tag_50\n      jumpi\n      dup1\n      0x1f\n      lt\n      tag_51\n      jumpi\n      0x0100\n      dup1\n      dup4\n      sload\n      div\n      mul\n      dup4\n      mstore\n      swap2\n      0x20\n      add\n      swap2\n      jump(tag_50)\n    tag_51:\n      dup3\n      add\n      swap2\n      swap1\n      0x00\n      mstore\n      keccak256(0x00, 0x20)\n      swap1\n    tag_52:\n      dup2\n      sload\n      dup2\n      mstore\n      swap1\n      0x01\n      add\n      swap1\n      0x20\n      add\n      dup1\n      dup4\n      gt\n      tag_52\n      jumpi\n      dup3\n      swap1\n      sub\n      0x1f\n      and\n      dup3\n      add\n      swap2\n    tag_50:\n      pop\n      pop\n      pop\n      pop\n      pop\n      swap1\n      dup1\n      0x02\n      add\n      sload\n      swap1\n      dup1\n      0x03\n      add\n      0x00\n      swap1\n      sload\n      swap1\n      0x0100\n      exp\n      swap1\n      div\n      0xff\n      and\n      swap1\n      pop\n      dup5\n      jump\t// out\n        /* \"D/dyor.sol\":2856:3105  function removeSubmission() external nonReentrant {... */\n    tag_18:\n        /* \"@openzeppelin/contracts/security/ReentrancyGuard.sol\":2261:2282  _nonReentrantBefore() */\n      tag_54\n        /* \"@openzeppelin/contracts/security/ReentrancyGuard.sol\":2261:2280  _nonReentrantBefore */\n      tag_24\n        /* \"@openzeppelin/contracts/security/ReentrancyGuard.sol\":2261:2282  _nonReentrantBefore() */\n      jump\t// in\n    tag_54:\n        /* \"D/dyor.sol\":2924:2935  submissions */\n      0x01\n        /* \"D/dyor.sol\":2924:2947  submissions[msg.sender] */\n      0x00\n        /* \"D/dyor.sol\":2936:2946  msg.sender */\n      caller\n        /* \"D/dyor.sol\":2924:2947  submissions[msg.sender] */\n      0xffffffffffffffffffffffffffffffffffffffff\n      and\n      0xffffffffffffffffffffffffffffffffffffffff\n      and\n      dup2\n      mstore\n      0x20\n      add\n      swap1\n      dup2\n      mstore\n      0x20\n      add\n      0x00\n      keccak256\n        /* \"D/dyor.sol\":2924:2954  submissions[msg.sender].active */\n      0x03\n      add\n      0x00\n      swap1\n      sload\n      swap1\n      0x0100\n      exp\n      swap1\n      div\n      0xff\n      and\n        /* \"D/dyor.sol\":2916:2989  require(submissions[msg.sender].active, \"No active submission to remove\") */\n      tag_56\n      jumpi\n      mload(0x40)\n      0x08c379a000000000000000000000000000000000000000000000000000000000\n      dup2\n      mstore\n      0x04\n      add\n      tag_57\n      swap1\n      tag_58\n      jump\t// in\n    tag_57:\n      mload(0x40)\n      dup1\n      swap2\n      sub\n      swap1\n      revert\n    tag_56:\n        /* \"D/dyor.sol\":3032:3037  false */\n      0x00\n        /* \"D/dyor.sol\":2999:3010  submissions */\n      0x01\n        /* \"D/dyor.sol\":2999:3022  submissions[msg.sender] */\n      0x00\n        /* \"D/dyor.sol\":3011:3021  msg.sender */\n      caller\n        /* \"D/dyor.sol\":2999:3022  submissions[msg.sender] */\n      0xffffffffffffffffffffffffffffffffffffffff\n      and\n      0xffffffffffffffffffffffffffffffffffffffff\n      and\n      dup2\n      mstore\n      0x20\n      add\n      swap1\n      dup2\n      mstore\n      0x20\n      add\n      0x00\n      keccak256\n        /* \"D/dyor.sol\":2999:3029  submissions[msg.sender].active */\n      0x03\n      add\n      0x00\n        /* \"D/dyor.sol\":2999:3037  submissions[msg.sender].active = false */\n      0x0100\n      exp\n      dup2\n      sload\n      dup2\n      0xff\n      mul\n      not\n      and\n      swap1\n      dup4\n      iszero\n      iszero\n      mul\n      or\n      swap1\n      sstore\n      pop\n        /* \"D/dyor.sol\":3070:3080  msg.sender */\n      caller\n        /* \"D/dyor.sol\":3052:3098  SubmissionRemoved(msg.sender, block.timestamp) */\n      0xffffffffffffffffffffffffffffffffffffffff\n      and\n      0xec39295276a9bfe8318d16b06780fd42fb6ec9bffc66ba99908b57ab79ee63c0\n        /* \"D/dyor.sol\":3082:3097  block.timestamp */\n      timestamp\n        /* \"D/dyor.sol\":3052:3098  SubmissionRemoved(msg.sender, block.timestamp) */\n      mload(0x40)\n      tag_59\n      swap2\n      swap1\n      tag_60\n      jump\t// in\n    tag_59:\n      mload(0x40)\n      dup1\n      swap2\n      sub\n      swap1\n      log2\n        /* \"@openzeppelin/contracts/security/ReentrancyGuard.sol\":2303:2323  _nonReentrantAfter() */\n      tag_61\n        /* \"@openzeppelin/contracts/security/ReentrancyGuard.sol\":2303:2321  _nonReentrantAfter */\n      tag_41\n        /* \"@openzeppelin/contracts/security/ReentrancyGuard.sol\":2303:2323  _nonReentrantAfter() */\n      jump\t// in\n    tag_61:\n        /* \"D/dyor.sol\":2856:3105  function removeSubmission() external nonReentrant {... */\n      jump\t// out\n        /* \"D/dyor.sol\":2196:2778  function updateSubmission(string calldata newUrl, string calldata newNote)... */\n    tag_21:\n        /* \"@openzeppelin/contracts/security/ReentrancyGuard.sol\":2261:2282  _nonReentrantBefore() */\n      tag_63\n        /* \"@openzeppelin/contracts/security/ReentrancyGuard.sol\":2261:2280  _nonReentrantBefore */\n      tag_24\n        /* \"@openzeppelin/contracts/security/ReentrancyGuard.sol\":2261:2282  _nonReentrantBefore() */\n      jump\t// in\n    tag_63:\n        /* \"D/dyor.sol\":2331:2342  submissions */\n      0x01\n        /* \"D/dyor.sol\":2331:2354  submissions[msg.sender] */\n      0x00\n        /* \"D/dyor.sol\":2343:2353  msg.sender */\n      caller\n        /* \"D/dyor.sol\":2331:2354  submissions[msg.sender] */\n      0xffffffffffffffffffffffffffffffffffffffff\n      and\n      0xffffffffffffffffffffffffffffffffffffffff\n      and\n      dup2\n      mstore\n      0x20\n      add\n      swap1\n      dup2\n      mstore\n      0x20\n      add\n      0x00\n      keccak256\n        /* \"D/dyor.sol\":2331:2361  submissions[msg.sender].active */\n      0x03\n      add\n      0x00\n      swap1\n      sload\n      swap1\n      0x0100\n      exp\n      swap1\n      div\n      0xff\n      and\n        /* \"D/dyor.sol\":2323:2396  require(submissions[msg.sender].active, \"No active submission to update\") */\n      tag_65\n      jumpi\n      mload(0x40)\n      0x08c379a000000000000000000000000000000000000000000000000000000000\n      dup2\n      mstore\n      0x04\n      add\n      tag_66\n      swap1\n      tag_67\n      jump\t// in\n    tag_66:\n      mload(0x40)\n      dup1\n      swap2\n      sub\n      swap1\n      revert\n    tag_65:\n        /* \"D/dyor.sol\":2437:2438  0 */\n      0x00\n        /* \"D/dyor.sol\":2420:2426  newUrl */\n      dup5\n      dup5\n        /* \"D/dyor.sol\":2414:2434  bytes(newUrl).length */\n      swap1\n      pop\n        /* \"D/dyor.sol\":2414:2438  bytes(newUrl).length > 0 */\n      gt\n        /* \"D/dyor.sol\":2406:2462  require(bytes(newUrl).length > 0, \"URL cannot be empty\") */\n      tag_68\n      jumpi\n      mload(0x40)\n      0x08c379a000000000000000000000000000000000000000000000000000000000\n      dup2\n      mstore\n      0x04\n      add\n      tag_69\n      swap1\n      tag_31\n      jump\t// in\n    tag_69:\n      mload(0x40)\n      dup1\n      swap2\n      sub\n      swap1\n      revert\n    tag_68:\n        /* \"D/dyor.sol\":2504:2505  0 */\n      0x00\n        /* \"D/dyor.sol\":2486:2493  newNote */\n      dup3\n      dup3\n        /* \"D/dyor.sol\":2480:2501  bytes(newNote).length */\n      swap1\n      pop\n        /* \"D/dyor.sol\":2480:2505  bytes(newNote).length > 0 */\n      gt\n        /* \"D/dyor.sol\":2472:2530  require(bytes(newNote).length > 0, \"Note cannot be empty\") */\n      tag_70\n      jumpi\n      mload(0x40)\n      0x08c379a000000000000000000000000000000000000000000000000000000000\n      dup2\n      mstore\n      0x04\n      add\n      tag_71\n      swap1\n      tag_34\n      jump\t// in\n    tag_71:\n      mload(0x40)\n      dup1\n      swap2\n      sub\n      swap1\n      revert\n    tag_70:\n        /* \"D/dyor.sol\":2541:2571  ResearchSubmission storage sub */\n      0x00\n        /* \"D/dyor.sol\":2574:2585  submissions */\n      0x01\n        /* \"D/dyor.sol\":2574:2597  submissions[msg.sender] */\n      0x00\n        /* \"D/dyor.sol\":2586:2596  msg.sender */\n      caller\n        /* \"D/dyor.sol\":2574:2597  submissions[msg.sender] */\n      0xffffffffffffffffffffffffffffffffffffffff\n      and\n      0xffffffffffffffffffffffffffffffffffffffff\n      and\n      dup2\n      mstore\n      0x20\n      add\n      swap1\n      dup2\n      mstore\n      0x20\n      add\n      0x00\n      keccak256\n        /* \"D/dyor.sol\":2541:2597  ResearchSubmission storage sub = submissions[msg.sender] */\n      swap1\n      pop\n        /* \"D/dyor.sol\":2617:2623  newUrl */\n      dup5\n      dup5\n        /* \"D/dyor.sol\":2607:2610  sub */\n      dup3\n        /* \"D/dyor.sol\":2607:2614  sub.url */\n      0x00\n      add\n        /* \"D/dyor.sol\":2607:2623  sub.url = newUrl */\n      swap2\n      dup3\n      tag_72\n      swap3\n      swap2\n      swap1\n      tag_73\n      jump\t// in\n    tag_72:\n      pop\n        /* \"D/dyor.sol\":2644:2651  newNote */\n      dup3\n      dup3\n        /* \"D/dyor.sol\":2633:2636  sub */\n      dup3\n        /* \"D/dyor.sol\":2633:2641  sub.note */\n      0x01\n      add\n        /* \"D/dyor.sol\":2633:2651  sub.note = newNote */\n      swap2\n      dup3\n      tag_74\n      swap3\n      swap2\n      swap1\n      tag_73\n      jump\t// in\n    tag_74:\n      pop\n        /* \"D/dyor.sol\":2677:2692  block.timestamp */\n      timestamp\n        /* \"D/dyor.sol\":2661:2664  sub */\n      dup2\n        /* \"D/dyor.sol\":2661:2674  sub.timestamp */\n      0x02\n      add\n        /* \"D/dyor.sol\":2661:2692  sub.timestamp = block.timestamp */\n      dup2\n      swap1\n      sstore\n      pop\n        /* \"D/dyor.sol\":2726:2736  msg.sender */\n      caller\n        /* \"D/dyor.sol\":2708:2771  SubmissionUpdated(msg.sender, newUrl, newNote, block.timestamp) */\n      0xffffffffffffffffffffffffffffffffffffffff\n      and\n      0xeab8c4f9f868ea37d0813163636940f1cd4d12d87b469a2e7442b72dbeff7d1a\n        /* \"D/dyor.sol\":2738:2744  newUrl */\n      dup7\n      dup7\n        /* \"D/dyor.sol\":2746:2753  newNote */\n      dup7\n      dup7\n        /* \"D/dyor.sol\":2755:2770  block.timestamp */\n      timestamp\n        /* \"D/dyor.sol\":2708:2771  SubmissionUpdated(msg.sender, newUrl, newNote, block.timestamp) */\n      mload(0x40)\n      tag_75\n      swap6\n      swap5\n      swap4\n      swap3\n      swap2\n      swap1\n      tag_39\n      jump\t// in\n    tag_75:\n      mload(0x40)\n      dup1\n      swap2\n      sub\n      swap1\n      log2\n        /* \"D/dyor.sol\":2313:2778  {... */\n      pop\n        /* \"@openzeppelin/contracts/security/ReentrancyGuard.sol\":2303:2323  _nonReentrantAfter() */\n      tag_76\n        /* \"@openzeppelin/contracts/security/ReentrancyGuard.sol\":2303:2321  _nonReentrantAfter */\n      tag_41\n        /* \"@openzeppelin/contracts/security/ReentrancyGuard.sol\":2303:2323  _nonReentrantAfter() */\n      jump\t// in\n    tag_76:\n        /* \"D/dyor.sol\":2196:2778  function updateSubmission(string calldata newUrl, string calldata newNote)... */\n      pop\n      pop\n      pop\n      pop\n      jump\t// out\n        /* \"@openzeppelin/contracts/security/ReentrancyGuard.sol\":2336:2623  function _nonReentrantBefore() private {... */\n    tag_24:\n        /* \"@openzeppelin/contracts/security/ReentrancyGuard.sol\":1759:1760  2 */\n      0x02\n        /* \"@openzeppelin/contracts/security/ReentrancyGuard.sol\":2468:2475  _status */\n      sload(0x00)\n        /* \"@openzeppelin/contracts/security/ReentrancyGuard.sol\":2468:2487  _status != _ENTERED */\n      sub\n        /* \"@openzeppelin/contracts/security/ReentrancyGuard.sol\":2460:2523  require(_status != _ENTERED, \"ReentrancyGuard: reentrant call\") */\n      tag_78\n      jumpi\n      mload(0x40)\n      0x08c379a000000000000000000000000000000000000000000000000000000000\n      dup2\n      mstore\n      0x04\n      add\n      tag_79\n      swap1\n      tag_80\n      jump\t// in\n    tag_79:\n      mload(0x40)\n      dup1\n      swap2\n      sub\n      swap1\n      revert\n    tag_78:\n        /* \"@openzeppelin/contracts/security/ReentrancyGuard.sol\":1759:1760  2 */\n      0x02\n        /* \"@openzeppelin/contracts/security/ReentrancyGuard.sol\":2598:2605  _status */\n      0x00\n        /* \"@openzeppelin/contracts/security/ReentrancyGuard.sol\":2598:2616  _status = _ENTERED */\n      dup2\n      swap1\n      sstore\n      pop\n        /* \"@openzeppelin/contracts/security/ReentrancyGuard.sol\":2336:2623  function _nonReentrantBefore() private {... */\n      jump\t// out\n        /* \"@openzeppelin/contracts/security/ReentrancyGuard.sol\":2629:2838  function _nonReentrantAfter() private {... */\n    tag_41:\n        /* \"@openzeppelin/contracts/security/ReentrancyGuard.sol\":1716:1717  1 */\n      0x01\n        /* \"@openzeppelin/contracts/security/ReentrancyGuard.sol\":2809:2816  _status */\n      0x00\n        /* \"@openzeppelin/contracts/security/ReentrancyGuard.sol\":2809:2831  _status = _NOT_ENTERED */\n      dup2\n      swap1\n      sstore\n      pop\n        /* \"@openzeppelin/contracts/security/ReentrancyGuard.sol\":2629:2838  function _nonReentrantAfter() private {... */\n      jump\t// out\n        /* \"#utility.yul\":88:205   */\n    tag_83:\n        /* \"#utility.yul\":197:198   */\n      0x00\n        /* \"#utility.yul\":194:195   */\n      dup1\n        /* \"#utility.yul\":187:199   */\n      revert\n        /* \"#utility.yul\":211:328   */\n    tag_84:\n        /* \"#utility.yul\":320:321   */\n      0x00\n        /* \"#utility.yul\":317:318   */\n      dup1\n        /* \"#utility.yul\":310:322   */\n      revert\n        /* \"#utility.yul\":334:451   */\n    tag_85:\n        /* \"#utility.yul\":443:444   */\n      0x00\n        /* \"#utility.yul\":440:441   */\n      dup1\n        /* \"#utility.yul\":433:445   */\n      revert\n        /* \"#utility.yul\":457:574   */\n    tag_86:\n        /* \"#utility.yul\":566:567   */\n      0x00\n        /* \"#utility.yul\":563:564   */\n      dup1\n        /* \"#utility.yul\":556:568   */\n      revert\n        /* \"#utility.yul\":580:697   */\n    tag_87:\n        /* \"#utility.yul\":689:690   */\n      0x00\n        /* \"#utility.yul\":686:687   */\n      dup1\n        /* \"#utility.yul\":679:691   */\n      revert\n        /* \"#utility.yul\":717:1270   */\n    tag_88:\n        /* \"#utility.yul\":775:783   */\n      0x00\n        /* \"#utility.yul\":785:791   */\n      dup1\n        /* \"#utility.yul\":835:838   */\n      dup4\n        /* \"#utility.yul\":828:832   */\n      0x1f\n        /* \"#utility.yul\":820:826   */\n      dup5\n        /* \"#utility.yul\":816:833   */\n      add\n        /* \"#utility.yul\":812:839   */\n      slt\n        /* \"#utility.yul\":802:924   */\n      tag_142\n      jumpi\n        /* \"#utility.yul\":843:922   */\n      tag_143\n      tag_85\n      jump\t// in\n    tag_143:\n        /* \"#utility.yul\":802:924   */\n    tag_142:\n        /* \"#utility.yul\":956:962   */\n      dup3\n        /* \"#utility.yul\":943:963   */\n      calldataload\n        /* \"#utility.yul\":933:963   */\n      swap1\n      pop\n        /* \"#utility.yul\":986:1004   */\n      0xffffffffffffffff\n        /* \"#utility.yul\":978:984   */\n      dup2\n        /* \"#utility.yul\":975:1005   */\n      gt\n        /* \"#utility.yul\":972:1089   */\n      iszero\n      tag_144\n      jumpi\n        /* \"#utility.yul\":1008:1087   */\n      tag_145\n      tag_86\n      jump\t// in\n    tag_145:\n        /* \"#utility.yul\":972:1089   */\n    tag_144:\n        /* \"#utility.yul\":1122:1126   */\n      0x20\n        /* \"#utility.yul\":1114:1120   */\n      dup4\n        /* \"#utility.yul\":1110:1127   */\n      add\n        /* \"#utility.yul\":1098:1127   */\n      swap2\n      pop\n        /* \"#utility.yul\":1176:1179   */\n      dup4\n        /* \"#utility.yul\":1168:1172   */\n      0x01\n        /* \"#utility.yul\":1160:1166   */\n      dup3\n        /* \"#utility.yul\":1156:1173   */\n      mul\n        /* \"#utility.yul\":1146:1154   */\n      dup4\n        /* \"#utility.yul\":1142:1174   */\n      add\n        /* \"#utility.yul\":1139:1180   */\n      gt\n        /* \"#utility.yul\":1136:1264   */\n      iszero\n      tag_146\n      jumpi\n        /* \"#utility.yul\":1183:1262   */\n      tag_147\n      tag_87\n      jump\t// in\n    tag_147:\n        /* \"#utility.yul\":1136:1264   */\n    tag_146:\n        /* \"#utility.yul\":717:1270   */\n      swap3\n      pop\n      swap3\n      swap1\n      pop\n      jump\t// out\n        /* \"#utility.yul\":1276:2150   */\n    tag_9:\n        /* \"#utility.yul\":1368:1374   */\n      0x00\n        /* \"#utility.yul\":1376:1382   */\n      dup1\n        /* \"#utility.yul\":1384:1390   */\n      0x00\n        /* \"#utility.yul\":1392:1398   */\n      dup1\n        /* \"#utility.yul\":1441:1443   */\n      0x40\n        /* \"#utility.yul\":1429:1438   */\n      dup6\n        /* \"#utility.yul\":1420:1427   */\n      dup8\n        /* \"#utility.yul\":1416:1439   */\n      sub\n        /* \"#utility.yul\":1412:1444   */\n      slt\n        /* \"#utility.yul\":1409:1528   */\n      iszero\n      tag_149\n      jumpi\n        /* \"#utility.yul\":1447:1526   */\n      tag_150\n      tag_83\n      jump\t// in\n    tag_150:\n        /* \"#utility.yul\":1409:1528   */\n    tag_149:\n        /* \"#utility.yul\":1595:1596   */\n      0x00\n        /* \"#utility.yul\":1584:1593   */\n      dup6\n        /* \"#utility.yul\":1580:1597   */\n      add\n        /* \"#utility.yul\":1567:1598   */\n      calldataload\n        /* \"#utility.yul\":1625:1643   */\n      0xffffffffffffffff\n        /* \"#utility.yul\":1617:1623   */\n      dup2\n        /* \"#utility.yul\":1614:1644   */\n      gt\n        /* \"#utility.yul\":1611:1728   */\n      iszero\n      tag_151\n      jumpi\n        /* \"#utility.yul\":1647:1726   */\n      tag_152\n      tag_84\n      jump\t// in\n    tag_152:\n        /* \"#utility.yul\":1611:1728   */\n    tag_151:\n        /* \"#utility.yul\":1760:1825   */\n      tag_153\n        /* \"#utility.yul\":1817:1824   */\n      dup8\n        /* \"#utility.yul\":1808:1814   */\n      dup3\n        /* \"#utility.yul\":1797:1806   */\n      dup9\n        /* \"#utility.yul\":1793:1815   */\n      add\n        /* \"#utility.yul\":1760:1825   */\n      tag_88\n      jump\t// in\n    tag_153:\n        /* \"#utility.yul\":1742:1825   */\n      swap5\n      pop\n      swap5\n      pop\n        /* \"#utility.yul\":1538:1835   */\n      pop\n        /* \"#utility.yul\":1902:1904   */\n      0x20\n        /* \"#utility.yul\":1891:1900   */\n      dup6\n        /* \"#utility.yul\":1887:1905   */\n      add\n        /* \"#utility.yul\":1874:1906   */\n      calldataload\n        /* \"#utility.yul\":1933:1951   */\n      0xffffffffffffffff\n        /* \"#utility.yul\":1925:1931   */\n      dup2\n        /* \"#utility.yul\":1922:1952   */\n      gt\n        /* \"#utility.yul\":1919:2036   */\n      iszero\n      tag_154\n      jumpi\n        /* \"#utility.yul\":1955:2034   */\n      tag_155\n      tag_84\n      jump\t// in\n    tag_155:\n        /* \"#utility.yul\":1919:2036   */\n    tag_154:\n        /* \"#utility.yul\":2068:2133   */\n      tag_156\n        /* \"#utility.yul\":2125:2132   */\n      dup8\n        /* \"#utility.yul\":2116:2122   */\n      dup3\n        /* \"#utility.yul\":2105:2114   */\n      dup9\n        /* \"#utility.yul\":2101:2123   */\n      add\n        /* \"#utility.yul\":2068:2133   */\n      tag_88\n      jump\t// in\n    tag_156:\n        /* \"#utility.yul\":2050:2133   */\n      swap3\n      pop\n      swap3\n      pop\n        /* \"#utility.yul\":1845:2143   */\n      pop\n        /* \"#utility.yul\":1276:2150   */\n      swap3\n      swap6\n      swap2\n      swap5\n      pop\n      swap3\n      pop\n      jump\t// out\n        /* \"#utility.yul\":2156:2282   */\n    tag_89:\n        /* \"#utility.yul\":2193:2200   */\n      0x00\n        /* \"#utility.yul\":2233:2275   */\n      0xffffffffffffffffffffffffffffffffffffffff\n        /* \"#utility.yul\":2226:2231   */\n      dup3\n        /* \"#utility.yul\":2222:2276   */\n      and\n        /* \"#utility.yul\":2211:2276   */\n      swap1\n      pop\n        /* \"#utility.yul\":2156:2282   */\n      swap2\n      swap1\n      pop\n      jump\t// out\n        /* \"#utility.yul\":2288:2384   */\n    tag_90:\n        /* \"#utility.yul\":2325:2332   */\n      0x00\n        /* \"#utility.yul\":2354:2378   */\n      tag_159\n        /* \"#utility.yul\":2372:2377   */\n      dup3\n        /* \"#utility.yul\":2354:2378   */\n      tag_89\n      jump\t// in\n    tag_159:\n        /* \"#utility.yul\":2343:2378   */\n      swap1\n      pop\n        /* \"#utility.yul\":2288:2384   */\n      swap2\n      swap1\n      pop\n      jump\t// out\n        /* \"#utility.yul\":2390:2512   */\n    tag_91:\n        /* \"#utility.yul\":2463:2487   */\n      tag_161\n        /* \"#utility.yul\":2481:2486   */\n      dup2\n        /* \"#utility.yul\":2463:2487   */\n      tag_90\n      jump\t// in\n    tag_161:\n        /* \"#utility.yul\":2456:2461   */\n      dup2\n        /* \"#utility.yul\":2453:2488   */\n      eq\n        /* \"#utility.yul\":2443:2506   */\n      tag_162\n      jumpi\n        /* \"#utility.yul\":2502:2503   */\n      0x00\n        /* \"#utility.yul\":2499:2500   */\n      dup1\n        /* \"#utility.yul\":2492:2504   */\n      revert\n        /* \"#utility.yul\":2443:2506   */\n    tag_162:\n        /* \"#utility.yul\":2390:2512   */\n      pop\n      jump\t// out\n        /* \"#utility.yul\":2518:2657   */\n    tag_92:\n        /* \"#utility.yul\":2564:2569   */\n      0x00\n        /* \"#utility.yul\":2602:2608   */\n      dup2\n        /* \"#utility.yul\":2589:2609   */\n      calldataload\n        /* \"#utility.yul\":2580:2609   */\n      swap1\n      pop\n        /* \"#utility.yul\":2618:2651   */\n      tag_164\n        /* \"#utility.yul\":2645:2650   */\n      dup2\n        /* \"#utility.yul\":2618:2651   */\n      tag_91\n      jump\t// in\n    tag_164:\n        /* \"#utility.yul\":2518:2657   */\n      swap3\n      swap2\n      pop\n      pop\n      jump\t// out\n        /* \"#utility.yul\":2663:2992   */\n    tag_13:\n        /* \"#utility.yul\":2722:2728   */\n      0x00\n        /* \"#utility.yul\":2771:2773   */\n      0x20\n        /* \"#utility.yul\":2759:2768   */\n      dup3\n        /* \"#utility.yul\":2750:2757   */\n      dup5\n        /* \"#utility.yul\":2746:2769   */\n      sub\n        /* \"#utility.yul\":2742:2774   */\n      slt\n        /* \"#utility.yul\":2739:2858   */\n      iszero\n      tag_166\n      jumpi\n        /* \"#utility.yul\":2777:2856   */\n      tag_167\n      tag_83\n      jump\t// in\n    tag_167:\n        /* \"#utility.yul\":2739:2858   */\n    tag_166:\n        /* \"#utility.yul\":2897:2898   */\n      0x00\n        /* \"#utility.yul\":2922:2975   */\n      tag_168\n        /* \"#utility.yul\":2967:2974   */\n      dup5\n        /* \"#utility.yul\":2958:2964   */\n      dup3\n        /* \"#utility.yul\":2947:2956   */\n      dup6\n        /* \"#utility.yul\":2943:2965   */\n      add\n        /* \"#utility.yul\":2922:2975   */\n      tag_92\n      jump\t// in\n    tag_168:\n        /* \"#utility.yul\":2912:2975   */\n      swap2\n      pop\n        /* \"#utility.yul\":2868:2985   */\n      pop\n        /* \"#utility.yul\":2663:2992   */\n      swap3\n      swap2\n      pop\n      pop\n      jump\t// out\n        /* \"#utility.yul\":2998:3097   */\n    tag_93:\n        /* \"#utility.yul\":3050:3056   */\n      0x00\n        /* \"#utility.yul\":3084:3089   */\n      dup2\n        /* \"#utility.yul\":3078:3090   */\n      mload\n        /* \"#utility.yul\":3068:3090   */\n      swap1\n      pop\n        /* \"#utility.yul\":2998:3097   */\n      swap2\n      swap1\n      pop\n      jump\t// out\n        /* \"#utility.yul\":3103:3272   */\n    tag_94:\n        /* \"#utility.yul\":3187:3198   */\n      0x00\n        /* \"#utility.yul\":3221:3227   */\n      dup3\n        /* \"#utility.yul\":3216:3219   */\n      dup3\n        /* \"#utility.yul\":3209:3228   */\n      mstore\n        /* \"#utility.yul\":3261:3265   */\n      0x20\n        /* \"#utility.yul\":3256:3259   */\n      dup3\n        /* \"#utility.yul\":3252:3266   */\n      add\n        /* \"#utility.yul\":3237:3266   */\n      swap1\n      pop\n        /* \"#utility.yul\":3103:3272   */\n      swap3\n      swap2\n      pop\n      pop\n      jump\t// out\n        /* \"#utility.yul\":3278:3524   */\n    tag_95:\n        /* \"#utility.yul\":3359:3360   */\n      0x00\n        /* \"#utility.yul\":3369:3482   */\n    tag_172:\n        /* \"#utility.yul\":3383:3389   */\n      dup4\n        /* \"#utility.yul\":3380:3381   */\n      dup2\n        /* \"#utility.yul\":3377:3390   */\n      lt\n        /* \"#utility.yul\":3369:3482   */\n      iszero\n      tag_174\n      jumpi\n        /* \"#utility.yul\":3468:3469   */\n      dup1\n        /* \"#utility.yul\":3463:3466   */\n      dup3\n        /* \"#utility.yul\":3459:3470   */\n      add\n        /* \"#utility.yul\":3453:3471   */\n      mload\n        /* \"#utility.yul\":3449:3450   */\n      dup2\n        /* \"#utility.yul\":3444:3447   */\n      dup5\n        /* \"#utility.yul\":3440:3451   */\n      add\n        /* \"#utility.yul\":3433:3472   */\n      mstore\n        /* \"#utility.yul\":3405:3407   */\n      0x20\n        /* \"#utility.yul\":3402:3403   */\n      dup2\n        /* \"#utility.yul\":3398:3408   */\n      add\n        /* \"#utility.yul\":3393:3408   */\n      swap1\n      pop\n        /* \"#utility.yul\":3369:3482   */\n      jump(tag_172)\n    tag_174:\n        /* \"#utility.yul\":3516:3517   */\n      0x00\n        /* \"#utility.yul\":3507:3513   */\n      dup5\n        /* \"#utility.yul\":3502:3505   */\n      dup5\n        /* \"#utility.yul\":3498:3514   */\n      add\n        /* \"#utility.yul\":3491:3518   */\n      mstore\n        /* \"#utility.yul\":3340:3524   */\n      pop\n        /* \"#utility.yul\":3278:3524   */\n      pop\n      pop\n      pop\n      jump\t// out\n        /* \"#utility.yul\":3530:3632   */\n    tag_96:\n        /* \"#utility.yul\":3571:3577   */\n      0x00\n        /* \"#utility.yul\":3622:3624   */\n      0x1f\n        /* \"#utility.yul\":3618:3625   */\n      not\n        /* \"#utility.yul\":3613:3615   */\n      0x1f\n        /* \"#utility.yul\":3606:3611   */\n      dup4\n        /* \"#utility.yul\":3602:3616   */\n      add\n        /* \"#utility.yul\":3598:3626   */\n      and\n        /* \"#utility.yul\":3588:3626   */\n      swap1\n      pop\n        /* \"#utility.yul\":3530:3632   */\n      swap2\n      swap1\n      pop\n      jump\t// out\n        /* \"#utility.yul\":3638:4015   */\n    tag_97:\n        /* \"#utility.yul\":3726:3729   */\n      0x00\n        /* \"#utility.yul\":3754:3793   */\n      tag_177\n        /* \"#utility.yul\":3787:3792   */\n      dup3\n        /* \"#utility.yul\":3754:3793   */\n      tag_93\n      jump\t// in\n    tag_177:\n        /* \"#utility.yul\":3809:3880   */\n      tag_178\n        /* \"#utility.yul\":3873:3879   */\n      dup2\n        /* \"#utility.yul\":3868:3871   */\n      dup6\n        /* \"#utility.yul\":3809:3880   */\n      tag_94\n      jump\t// in\n    tag_178:\n        /* \"#utility.yul\":3802:3880   */\n      swap4\n      pop\n        /* \"#utility.yul\":3889:3954   */\n      tag_179\n        /* \"#utility.yul\":3947:3953   */\n      dup2\n        /* \"#utility.yul\":3942:3945   */\n      dup6\n        /* \"#utility.yul\":3935:3939   */\n      0x20\n        /* \"#utility.yul\":3928:3933   */\n      dup7\n        /* \"#utility.yul\":3924:3940   */\n      add\n        /* \"#utility.yul\":3889:3954   */\n      tag_95\n      jump\t// in\n    tag_179:\n        /* \"#utility.yul\":3979:4008   */\n      tag_180\n        /* \"#utility.yul\":4001:4007   */\n      dup2\n        /* \"#utility.yul\":3979:4008   */\n      tag_96\n      jump\t// in\n    tag_180:\n        /* \"#utility.yul\":3974:3977   */\n      dup5\n        /* \"#utility.yul\":3970:4009   */\n      add\n        /* \"#utility.yul\":3963:4009   */\n      swap2\n      pop\n        /* \"#utility.yul\":3730:4015   */\n      pop\n        /* \"#utility.yul\":3638:4015   */\n      swap3\n      swap2\n      pop\n      pop\n      jump\t// out\n        /* \"#utility.yul\":4021:4098   */\n    tag_98:\n        /* \"#utility.yul\":4058:4065   */\n      0x00\n        /* \"#utility.yul\":4087:4092   */\n      dup2\n        /* \"#utility.yul\":4076:4092   */\n      swap1\n      pop\n        /* \"#utility.yul\":4021:4098   */\n      swap2\n      swap1\n      pop\n      jump\t// out\n        /* \"#utility.yul\":4104:4222   */\n    tag_99:\n        /* \"#utility.yul\":4191:4215   */\n      tag_183\n        /* \"#utility.yul\":4209:4214   */\n      dup2\n        /* \"#utility.yul\":4191:4215   */\n      tag_98\n      jump\t// in\n    tag_183:\n        /* \"#utility.yul\":4186:4189   */\n      dup3\n        /* \"#utility.yul\":4179:4216   */\n      mstore\n        /* \"#utility.yul\":4104:4222   */\n      pop\n      pop\n      jump\t// out\n        /* \"#utility.yul\":4228:4318   */\n    tag_100:\n        /* \"#utility.yul\":4262:4269   */\n      0x00\n        /* \"#utility.yul\":4305:4310   */\n      dup2\n        /* \"#utility.yul\":4298:4311   */\n      iszero\n        /* \"#utility.yul\":4291:4312   */\n      iszero\n        /* \"#utility.yul\":4280:4312   */\n      swap1\n      pop\n        /* \"#utility.yul\":4228:4318   */\n      swap2\n      swap1\n      pop\n      jump\t// out\n        /* \"#utility.yul\":4324:4433   */\n    tag_101:\n        /* \"#utility.yul\":4405:4426   */\n      tag_186\n        /* \"#utility.yul\":4420:4425   */\n      dup2\n        /* \"#utility.yul\":4405:4426   */\n      tag_100\n      jump\t// in\n    tag_186:\n        /* \"#utility.yul\":4400:4403   */\n      dup3\n        /* \"#utility.yul\":4393:4427   */\n      mstore\n        /* \"#utility.yul\":4324:4433   */\n      pop\n      pop\n      jump\t// out\n        /* \"#utility.yul\":4439:5162   */\n    tag_16:\n        /* \"#utility.yul\":4650:4654   */\n      0x00\n        /* \"#utility.yul\":4688:4691   */\n      0x80\n        /* \"#utility.yul\":4677:4686   */\n      dup3\n        /* \"#utility.yul\":4673:4692   */\n      add\n        /* \"#utility.yul\":4665:4692   */\n      swap1\n      pop\n        /* \"#utility.yul\":4738:4747   */\n      dup2\n        /* \"#utility.yul\":4732:4736   */\n      dup2\n        /* \"#utility.yul\":4728:4748   */\n      sub\n        /* \"#utility.yul\":4724:4725   */\n      0x00\n        /* \"#utility.yul\":4713:4722   */\n      dup4\n        /* \"#utility.yul\":4709:4726   */\n      add\n        /* \"#utility.yul\":4702:4749   */\n      mstore\n        /* \"#utility.yul\":4766:4844   */\n      tag_188\n        /* \"#utility.yul\":4839:4843   */\n      dup2\n        /* \"#utility.yul\":4830:4836   */\n      dup8\n        /* \"#utility.yul\":4766:4844   */\n      tag_97\n      jump\t// in\n    tag_188:\n        /* \"#utility.yul\":4758:4844   */\n      swap1\n      pop\n        /* \"#utility.yul\":4891:4900   */\n      dup2\n        /* \"#utility.yul\":4885:4889   */\n      dup2\n        /* \"#utility.yul\":4881:4901   */\n      sub\n        /* \"#utility.yul\":4876:4878   */\n      0x20\n        /* \"#utility.yul\":4865:4874   */\n      dup4\n        /* \"#utility.yul\":4861:4879   */\n      add\n        /* \"#utility.yul\":4854:4902   */\n      mstore\n        /* \"#utility.yul\":4919:4997   */\n      tag_189\n        /* \"#utility.yul\":4992:4996   */\n      dup2\n        /* \"#utility.yul\":4983:4989   */\n      dup7\n        /* \"#utility.yul\":4919:4997   */\n      tag_97\n      jump\t// in\n    tag_189:\n        /* \"#utility.yul\":4911:4997   */\n      swap1\n      pop\n        /* \"#utility.yul\":5007:5079   */\n      tag_190\n        /* \"#utility.yul\":5075:5077   */\n      0x40\n        /* \"#utility.yul\":5064:5073   */\n      dup4\n        /* \"#utility.yul\":5060:5078   */\n      add\n        /* \"#utility.yul\":5051:5057   */\n      dup6\n        /* \"#utility.yul\":5007:5079   */\n      tag_99\n      jump\t// in\n    tag_190:\n        /* \"#utility.yul\":5089:5155   */\n      tag_191\n        /* \"#utility.yul\":5151:5153   */\n      0x60\n        /* \"#utility.yul\":5140:5149   */\n      dup4\n        /* \"#utility.yul\":5136:5154   */\n      add\n        /* \"#utility.yul\":5127:5133   */\n      dup5\n        /* \"#utility.yul\":5089:5155   */\n      tag_101\n      jump\t// in\n    tag_191:\n        /* \"#utility.yul\":4439:5162   */\n      swap6\n      swap5\n      pop\n      pop\n      pop\n      pop\n      pop\n      jump\t// out\n        /* \"#utility.yul\":5168:5343   */\n    tag_102:\n        /* \"#utility.yul\":5308:5335   */\n      0x5375626d697373696f6e20616c72656164792065786973747300000000000000\n        /* \"#utility.yul\":5304:5305   */\n      0x00\n        /* \"#utility.yul\":5296:5302   */\n      dup3\n        /* \"#utility.yul\":5292:5306   */\n      add\n        /* \"#utility.yul\":5285:5336   */\n      mstore\n        /* \"#utility.yul\":5168:5343   */\n      pop\n      jump\t// out\n        /* \"#utility.yul\":5349:5715   */\n    tag_103:\n        /* \"#utility.yul\":5491:5494   */\n      0x00\n        /* \"#utility.yul\":5512:5579   */\n      tag_194\n        /* \"#utility.yul\":5576:5578   */\n      0x19\n        /* \"#utility.yul\":5571:5574   */\n      dup4\n        /* \"#utility.yul\":5512:5579   */\n      tag_94\n      jump\t// in\n    tag_194:\n        /* \"#utility.yul\":5505:5579   */\n      swap2\n      pop\n        /* \"#utility.yul\":5588:5681   */\n      tag_195\n        /* \"#utility.yul\":5677:5680   */\n      dup3\n        /* \"#utility.yul\":5588:5681   */\n      tag_102\n      jump\t// in\n    tag_195:\n        /* \"#utility.yul\":5706:5708   */\n      0x20\n        /* \"#utility.yul\":5701:5704   */\n      dup3\n        /* \"#utility.yul\":5697:5709   */\n      add\n        /* \"#utility.yul\":5690:5709   */\n      swap1\n      pop\n        /* \"#utility.yul\":5349:5715   */\n      swap2\n      swap1\n      pop\n      jump\t// out\n        /* \"#utility.yul\":5721:6140   */\n    tag_28:\n        /* \"#utility.yul\":5887:5891   */\n      0x00\n        /* \"#utility.yul\":5925:5927   */\n      0x20\n        /* \"#utility.yul\":5914:5923   */\n      dup3\n        /* \"#utility.yul\":5910:5928   */\n      add\n        /* \"#utility.yul\":5902:5928   */\n      swap1\n      pop\n        /* \"#utility.yul\":5974:5983   */\n      dup2\n        /* \"#utility.yul\":5968:5972   */\n      dup2\n        /* \"#utility.yul\":5964:5984   */\n      sub\n        /* \"#utility.yul\":5960:5961   */\n      0x00\n        /* \"#utility.yul\":5949:5958   */\n      dup4\n        /* \"#utility.yul\":5945:5962   */\n      add\n        /* \"#utility.yul\":5938:5985   */\n      mstore\n        /* \"#utility.yul\":6002:6133   */\n      tag_197\n        /* \"#utility.yul\":6128:6132   */\n      dup2\n        /* \"#utility.yul\":6002:6133   */\n      tag_103\n      jump\t// in\n    tag_197:\n        /* \"#utility.yul\":5994:6133   */\n      swap1\n      pop\n        /* \"#utility.yul\":5721:6140   */\n      swap2\n      swap1\n      pop\n      jump\t// out\n        /* \"#utility.yul\":6146:6315   */\n    tag_104:\n        /* \"#utility.yul\":6286:6307   */\n      0x55524c2063616e6e6f7420626520656d70747900000000000000000000000000\n        /* \"#utility.yul\":6282:6283   */\n      0x00\n        /* \"#utility.yul\":6274:6280   */\n      dup3\n        /* \"#utility.yul\":6270:6284   */\n      add\n        /* \"#utility.yul\":6263:6308   */\n      mstore\n        /* \"#utility.yul\":6146:6315   */\n      pop\n      jump\t// out\n        /* \"#utility.yul\":6321:6687   */\n    tag_105:\n        /* \"#utility.yul\":6463:6466   */\n      0x00\n        /* \"#utility.yul\":6484:6551   */\n      tag_200\n        /* \"#utility.yul\":6548:6550   */\n      0x13\n        /* \"#utility.yul\":6543:6546   */\n      dup4\n        /* \"#utility.yul\":6484:6551   */\n      tag_94\n      jump\t// in\n    tag_200:\n        /* \"#utility.yul\":6477:6551   */\n      swap2\n      pop\n        /* \"#utility.yul\":6560:6653   */\n      tag_201\n        /* \"#utility.yul\":6649:6652   */\n      dup3\n        /* \"#utility.yul\":6560:6653   */\n      tag_104\n      jump\t// in\n    tag_201:\n        /* \"#utility.yul\":6678:6680   */\n      0x20\n        /* \"#utility.yul\":6673:6676   */\n      dup3\n        /* \"#utility.yul\":6669:6681   */\n      add\n        /* \"#utility.yul\":6662:6681   */\n      swap1\n      pop\n        /* \"#utility.yul\":6321:6687   */\n      swap2\n      swap1\n      pop\n      jump\t// out\n        /* \"#utility.yul\":6693:7112   */\n    tag_31:\n        /* \"#utility.yul\":6859:6863   */\n      0x00\n        /* \"#utility.yul\":6897:6899   */\n      0x20\n        /* \"#utility.yul\":6886:6895   */\n      dup3\n        /* \"#utility.yul\":6882:6900   */\n      add\n        /* \"#utility.yul\":6874:6900   */\n      swap1\n      pop\n        /* \"#utility.yul\":6946:6955   */\n      dup2\n        /* \"#utility.yul\":6940:6944   */\n      dup2\n        /* \"#utility.yul\":6936:6956   */\n      sub\n        /* \"#utility.yul\":6932:6933   */\n      0x00\n        /* \"#utility.yul\":6921:6930   */\n      dup4\n        /* \"#utility.yul\":6917:6934   */\n      add\n        /* \"#utility.yul\":6910:6957   */\n      mstore\n        /* \"#utility.yul\":6974:7105   */\n      tag_203\n        /* \"#utility.yul\":7100:7104   */\n      dup2\n        /* \"#utility.yul\":6974:7105   */\n      tag_105\n      jump\t// in\n    tag_203:\n        /* \"#utility.yul\":6966:7105   */\n      swap1\n      pop\n        /* \"#utility.yul\":6693:7112   */\n      swap2\n      swap1\n      pop\n      jump\t// out\n        /* \"#utility.yul\":7118:7288   */\n    tag_106:\n        /* \"#utility.yul\":7258:7280   */\n      0x4e6f74652063616e6e6f7420626520656d707479000000000000000000000000\n        /* \"#utility.yul\":7254:7255   */\n      0x00\n        /* \"#utility.yul\":7246:7252   */\n      dup3\n        /* \"#utility.yul\":7242:7256   */\n      add\n        /* \"#utility.yul\":7235:7281   */\n      mstore\n        /* \"#utility.yul\":7118:7288   */\n      pop\n      jump\t// out\n        /* \"#utility.yul\":7294:7660   */\n    tag_107:\n        /* \"#utility.yul\":7436:7439   */\n      0x00\n        /* \"#utility.yul\":7457:7524   */\n      tag_206\n        /* \"#utility.yul\":7521:7523   */\n      0x14\n        /* \"#utility.yul\":7516:7519   */\n      dup4\n        /* \"#utility.yul\":7457:7524   */\n      tag_94\n      jump\t// in\n    tag_206:\n        /* \"#utility.yul\":7450:7524   */\n      swap2\n      pop\n        /* \"#utility.yul\":7533:7626   */\n      tag_207\n        /* \"#utility.yul\":7622:7625   */\n      dup3\n        /* \"#utility.yul\":7533:7626   */\n      tag_106\n      jump\t// in\n    tag_207:\n        /* \"#utility.yul\":7651:7653   */\n      0x20\n        /* \"#utility.yul\":7646:7649   */\n      dup3\n        /* \"#utility.yul\":7642:7654   */\n      add\n        /* \"#utility.yul\":7635:7654   */\n      swap1\n      pop\n        /* \"#utility.yul\":7294:7660   */\n      swap2\n      swap1\n      pop\n      jump\t// out\n        /* \"#utility.yul\":7666:8085   */\n    tag_34:\n        /* \"#utility.yul\":7832:7836   */\n      0x00\n        /* \"#utility.yul\":7870:7872   */\n      0x20\n        /* \"#utility.yul\":7859:7868   */\n      dup3\n        /* \"#utility.yul\":7855:7873   */\n      add\n        /* \"#utility.yul\":7847:7873   */\n      swap1\n      pop\n        /* \"#utility.yul\":7919:7928   */\n      dup2\n        /* \"#utility.yul\":7913:7917   */\n      dup2\n        /* \"#utility.yul\":7909:7929   */\n      sub\n        /* \"#utility.yul\":7905:7906   */\n      0x00\n        /* \"#utility.yul\":7894:7903   */\n      dup4\n        /* \"#utility.yul\":7890:7907   */\n      add\n        /* \"#utility.yul\":7883:7930   */\n      mstore\n        /* \"#utility.yul\":7947:8078   */\n      tag_209\n        /* \"#utility.yul\":8073:8077   */\n      dup2\n        /* \"#utility.yul\":7947:8078   */\n      tag_107\n      jump\t// in\n    tag_209:\n        /* \"#utility.yul\":7939:8078   */\n      swap1\n      pop\n        /* \"#utility.yul\":7666:8085   */\n      swap2\n      swap1\n      pop\n      jump\t// out\n        /* \"#utility.yul\":8091:8271   */\n    tag_108:\n        /* \"#utility.yul\":8139:8216   */\n      0x4e487b7100000000000000000000000000000000000000000000000000000000\n        /* \"#utility.yul\":8136:8137   */\n      0x00\n        /* \"#utility.yul\":8129:8217   */\n      mstore\n        /* \"#utility.yul\":8236:8240   */\n      0x41\n        /* \"#utility.yul\":8233:8234   */\n      0x04\n        /* \"#utility.yul\":8226:8241   */\n      mstore\n        /* \"#utility.yul\":8260:8264   */\n      0x24\n        /* \"#utility.yul\":8257:8258   */\n      0x00\n        /* \"#utility.yul\":8250:8265   */\n      revert\n        /* \"#utility.yul\":8277:8457   */\n    tag_109:\n        /* \"#utility.yul\":8325:8402   */\n      0x4e487b7100000000000000000000000000000000000000000000000000000000\n        /* \"#utility.yul\":8322:8323   */\n      0x00\n        /* \"#utility.yul\":8315:8403   */\n      mstore\n        /* \"#utility.yul\":8422:8426   */\n      0x22\n        /* \"#utility.yul\":8419:8420   */\n      0x04\n        /* \"#utility.yul\":8412:8427   */\n      mstore\n        /* \"#utility.yul\":8446:8450   */\n      0x24\n        /* \"#utility.yul\":8443:8444   */\n      0x00\n        /* \"#utility.yul\":8436:8451   */\n      revert\n        /* \"#utility.yul\":8463:8783   */\n    tag_43:\n        /* \"#utility.yul\":8507:8513   */\n      0x00\n        /* \"#utility.yul\":8544:8545   */\n      0x02\n        /* \"#utility.yul\":8538:8542   */\n      dup3\n        /* \"#utility.yul\":8534:8546   */\n      div\n        /* \"#utility.yul\":8524:8546   */\n      swap1\n      pop\n        /* \"#utility.yul\":8591:8592   */\n      0x01\n        /* \"#utility.yul\":8585:8589   */\n      dup3\n        /* \"#utility.yul\":8581:8593   */\n      and\n        /* \"#utility.yul\":8612:8630   */\n      dup1\n        /* \"#utility.yul\":8602:8683   */\n      tag_213\n      jumpi\n        /* \"#utility.yul\":8668:8672   */\n      0x7f\n        /* \"#utility.yul\":8660:8666   */\n      dup3\n        /* \"#utility.yul\":8656:8673   */\n      and\n        /* \"#utility.yul\":8646:8673   */\n      swap2\n      pop\n        /* \"#utility.yul\":8602:8683   */\n    tag_213:\n        /* \"#utility.yul\":8730:8732   */\n      0x20\n        /* \"#utility.yul\":8722:8728   */\n      dup3\n        /* \"#utility.yul\":8719:8733   */\n      lt\n        /* \"#utility.yul\":8699:8717   */\n      dup2\n        /* \"#utility.yul\":8696:8734   */\n      sub\n        /* \"#utility.yul\":8693:8777   */\n      tag_214\n      jumpi\n        /* \"#utility.yul\":8749:8767   */\n      tag_215\n      tag_109\n      jump\t// in\n    tag_215:\n        /* \"#utility.yul\":8693:8777   */\n    tag_214:\n        /* \"#utility.yul\":8514:8783   */\n      pop\n        /* \"#utility.yul\":8463:8783   */\n      swap2\n      swap1\n      pop\n      jump\t// out\n        /* \"#utility.yul\":8789:8930   */\n    tag_110:\n        /* \"#utility.yul\":8838:8842   */\n      0x00\n        /* \"#utility.yul\":8861:8864   */\n      dup2\n        /* \"#utility.yul\":8853:8864   */\n      swap1\n      pop\n        /* \"#utility.yul\":8884:8887   */\n      dup2\n        /* \"#utility.yul\":8881:8882   */\n      0x00\n        /* \"#utility.yul\":8874:8888   */\n      mstore\n        /* \"#utility.yul\":8918:8922   */\n      0x20\n        /* \"#utility.yul\":8915:8916   */\n      0x00\n        /* \"#utility.yul\":8905:8923   */\n      keccak256\n        /* \"#utility.yul\":8897:8923   */\n      swap1\n      pop\n        /* \"#utility.yul\":8789:8930   */\n      swap2\n      swap1\n      pop\n      jump\t// out\n        /* \"#utility.yul\":8936:9029   */\n    tag_111:\n        /* \"#utility.yul\":8973:8979   */\n      0x00\n        /* \"#utility.yul\":9020:9022   */\n      0x20\n        /* \"#utility.yul\":9015:9017   */\n      0x1f\n        /* \"#utility.yul\":9008:9013   */\n      dup4\n        /* \"#utility.yul\":9004:9018   */\n      add\n        /* \"#utility.yul\":9000:9023   */\n      div\n        /* \"#utility.yul\":8990:9023   */\n      swap1\n      pop\n        /* \"#utility.yul\":8936:9029   */\n      swap2\n      swap1\n      pop\n      jump\t// out\n        /* \"#utility.yul\":9035:9142   */\n    tag_112:\n        /* \"#utility.yul\":9079:9087   */\n      0x00\n        /* \"#utility.yul\":9129:9134   */\n      dup3\n        /* \"#utility.yul\":9123:9127   */\n      dup3\n        /* \"#utility.yul\":9119:9135   */\n      shl\n        /* \"#utility.yul\":9098:9135   */\n      swap1\n      pop\n        /* \"#utility.yul\":9035:9142   */\n      swap3\n      swap2\n      pop\n      pop\n      jump\t// out\n        /* \"#utility.yul\":9148:9541   */\n    tag_113:\n        /* \"#utility.yul\":9217:9223   */\n      0x00\n        /* \"#utility.yul\":9267:9268   */\n      0x08\n        /* \"#utility.yul\":9255:9265   */\n      dup4\n        /* \"#utility.yul\":9251:9269   */\n      mul\n        /* \"#utility.yul\":9290:9387   */\n      tag_220\n        /* \"#utility.yul\":9320:9386   */\n      0xffffffffffffffffffffffffffffffffffffffffffffffffffffffffffffffff\n        /* \"#utility.yul\":9309:9318   */\n      dup3\n        /* \"#utility.yul\":9290:9387   */\n      tag_112\n      jump\t// in\n    tag_220:\n        /* \"#utility.yul\":9408:9447   */\n      tag_221\n        /* \"#utility.yul\":9438:9446   */\n      dup7\n        /* \"#utility.yul\":9427:9436   */\n      dup4\n        /* \"#utility.yul\":9408:9447   */\n      tag_112\n      jump\t// in\n    tag_221:\n        /* \"#utility.yul\":9396:9447   */\n      swap6\n      pop\n        /* \"#utility.yul\":9480:9484   */\n      dup1\n        /* \"#utility.yul\":9476:9485   */\n      not\n        /* \"#utility.yul\":9469:9474   */\n      dup5\n        /* \"#utility.yul\":9465:9486   */\n      and\n        /* \"#utility.yul\":9456:9486   */\n      swap4\n      pop\n        /* \"#utility.yul\":9529:9533   */\n      dup1\n        /* \"#utility.yul\":9519:9527   */\n      dup7\n        /* \"#utility.yul\":9515:9534   */\n      and\n        /* \"#utility.yul\":9508:9513   */\n      dup5\n        /* \"#utility.yul\":9505:9535   */\n      or\n        /* \"#utility.yul\":9495:9535   */\n      swap3\n      pop\n        /* \"#utility.yul\":9224:9541   */\n      pop\n      pop\n        /* \"#utility.yul\":9148:9541   */\n      swap4\n      swap3\n      pop\n      pop\n      pop\n      jump\t// out\n        /* \"#utility.yul\":9547:9607   */\n    tag_114:\n        /* \"#utility.yul\":9575:9578   */\n      0x00\n        /* \"#utility.yul\":9596:9601   */\n      dup2\n        /* \"#utility.yul\":9589:9601   */\n      swap1\n      pop\n        /* \"#utility.yul\":9547:9607   */\n      swap2\n      swap1\n      pop\n      jump\t// out\n        /* \"#utility.yul\":9613:9755   */\n    tag_115:\n        /* \"#utility.yul\":9663:9672   */\n      0x00\n        /* \"#utility.yul\":9696:9749   */\n      tag_224\n        /* \"#utility.yul\":9714:9748   */\n      tag_225\n        /* \"#utility.yul\":9723:9747   */\n      tag_226\n        /* \"#utility.yul\":9741:9746   */\n      dup5\n        /* \"#utility.yul\":9723:9747   */\n      tag_98\n      jump\t// in\n    tag_226:\n        /* \"#utility.yul\":9714:9748   */\n      tag_114\n      jump\t// in\n    tag_225:\n        /* \"#utility.yul\":9696:9749   */\n      tag_98\n      jump\t// in\n    tag_224:\n        /* \"#utility.yul\":9683:9749   */\n      swap1\n      pop\n        /* \"#utility.yul\":9613:9755   */\n      swap2\n      swap1\n      pop\n      jump\t// out\n        /* \"#utility.yul\":9761:9836   */\n    tag_116:\n        /* \"#utility.yul\":9804:9807   */\n      0x00\n        /* \"#utility.yul\":9825:9830   */\n      dup2\n        /* \"#utility.yul\":9818:9830   */\n      swap1\n      pop\n        /* \"#utility.yul\":9761:9836   */\n      swap2\n      swap1\n      pop\n      jump\t// out\n        /* \"#utility.yul\":9842:10111   */\n    tag_117:\n        /* \"#utility.yul\":9952:9991   */\n      tag_229\n        /* \"#utility.yul\":9983:9990   */\n      dup4\n        /* \"#utility.yul\":9952:9991   */\n      tag_115\n      jump\t// in\n    tag_229:\n        /* \"#utility.yul\":10013:10104   */\n      tag_230\n        /* \"#utility.yul\":10062:10103   */\n      tag_231\n        /* \"#utility.yul\":10086:10102   */\n      dup3\n        /* \"#utility.yul\":10062:10103   */\n      tag_116\n      jump\t// in\n    tag_231:\n        /* \"#utility.yul\":10054:10060   */\n      dup5\n        /* \"#utility.yul\":10047:10051   */\n      dup5\n        /* \"#utility.yul\":10041:10052   */\n      sload\n        /* \"#utility.yul\":10013:10104   */\n      tag_113\n      jump\t// in\n    tag_230:\n        /* \"#utility.yul\":10007:10011   */\n      dup3\n        /* \"#utility.yul\":10000:10105   */\n      sstore\n        /* \"#utility.yul\":9918:10111   */\n      pop\n        /* \"#utility.yul\":9842:10111   */\n      pop\n      pop\n      pop\n      jump\t// out\n        /* \"#utility.yul\":10117:10190   */\n    tag_118:\n        /* \"#utility.yul\":10162:10165   */\n      0x00\n        /* \"#utility.yul\":10117:10190   */\n      swap1\n      jump\t// out\n        /* \"#utility.yul\":10196:10385   */\n    tag_119:\n        /* \"#utility.yul\":10273:10305   */\n      tag_234\n      tag_118\n      jump\t// in\n    tag_234:\n        /* \"#utility.yul\":10314:10379   */\n      tag_235\n        /* \"#utility.yul\":10372:10378   */\n      dup2\n        /* \"#utility.yul\":10364:10370   */\n      dup5\n        /* \"#utility.yul\":10358:10362   */\n      dup5\n        /* \"#utility.yul\":10314:10379   */\n      tag_117\n      jump\t// in\n    tag_235:\n        /* \"#utility.yul\":10249:10385   */\n      pop\n        /* \"#utility.yul\":10196:10385   */\n      pop\n      pop\n      jump\t// out\n        /* \"#utility.yul\":10391:10577   */\n    tag_120:\n        /* \"#utility.yul\":10451:10571   */\n    tag_237:\n        /* \"#utility.yul\":10468:10471   */\n      dup2\n        /* \"#utility.yul\":10461:10466   */\n      dup2\n        /* \"#utility.yul\":10458:10472   */\n      lt\n        /* \"#utility.yul\":10451:10571   */\n      iszero\n      tag_239\n      jumpi\n        /* \"#utility.yul\":10522:10561   */\n      tag_240\n        /* \"#utility.yul\":10559:10560   */\n      0x00\n        /* \"#utility.yul\":10552:10557   */\n      dup3\n        /* \"#utility.yul\":10522:10561   */\n      tag_119\n      jump\t// in\n    tag_240:\n        /* \"#utility.yul\":10495:10496   */\n      0x01\n        /* \"#utility.yul\":10488:10493   */\n      dup2\n        /* \"#utility.yul\":10484:10497   */\n      add\n        /* \"#utility.yul\":10475:10497   */\n      swap1\n      pop\n        /* \"#utility.yul\":10451:10571   */\n      jump(tag_237)\n    tag_239:\n        /* \"#utility.yul\":10391:10577   */\n      pop\n      pop\n      jump\t// out\n        /* \"#utility.yul\":10583:11126   */\n    tag_121:\n        /* \"#utility.yul\":10684:10686   */\n      0x1f\n        /* \"#utility.yul\":10679:10682   */\n      dup3\n        /* \"#utility.yul\":10676:10687   */\n      gt\n        /* \"#utility.yul\":10673:11119   */\n      iszero\n      tag_242\n      jumpi\n        /* \"#utility.yul\":10718:10756   */\n      tag_243\n        /* \"#utility.yul\":10750:10755   */\n      dup2\n        /* \"#utility.yul\":10718:10756   */\n      tag_110\n      jump\t// in\n    tag_243:\n        /* \"#utility.yul\":10802:10831   */\n      tag_244\n        /* \"#utility.yul\":10820:10830   */\n      dup5\n        /* \"#utility.yul\":10802:10831   */\n      tag_111\n      jump\t// in\n    tag_244:\n        /* \"#utility.yul\":10792:10800   */\n      dup2\n        /* \"#utility.yul\":10788:10832   */\n      add\n        /* \"#utility.yul\":10985:10987   */\n      0x20\n        /* \"#utility.yul\":10973:10983   */\n      dup6\n        /* \"#utility.yul\":10970:10988   */\n      lt\n        /* \"#utility.yul\":10967:11016   */\n      iszero\n      tag_245\n      jumpi\n        /* \"#utility.yul\":11006:11014   */\n      dup2\n        /* \"#utility.yul\":10991:11014   */\n      swap1\n      pop\n        /* \"#utility.yul\":10967:11016   */\n    tag_245:\n        /* \"#utility.yul\":11029:11109   */\n      tag_246\n        /* \"#utility.yul\":11085:11107   */\n      tag_247\n        /* \"#utility.yul\":11103:11106   */\n      dup6\n        /* \"#utility.yul\":11085:11107   */\n      tag_111\n      jump\t// in\n    tag_247:\n        /* \"#utility.yul\":11075:11083   */\n      dup4\n        /* \"#utility.yul\":11071:11108   */\n      add\n        /* \"#utility.yul\":11058:11069   */\n      dup3\n        /* \"#utility.yul\":11029:11109   */\n      tag_120\n      jump\t// in\n    tag_246:\n        /* \"#utility.yul\":10688:11119   */\n      pop\n      pop\n        /* \"#utility.yul\":10673:11119   */\n    tag_242:\n        /* \"#utility.yul\":10583:11126   */\n      pop\n      pop\n      pop\n      jump\t// out\n        /* \"#utility.yul\":11132:11249   */\n    tag_122:\n        /* \"#utility.yul\":11186:11194   */\n      0x00\n        /* \"#utility.yul\":11236:11241   */\n      dup3\n        /* \"#utility.yul\":11230:11234   */\n      dup3\n        /* \"#utility.yul\":11226:11242   */\n      shr\n        /* \"#utility.yul\":11205:11242   */\n      swap1\n      pop\n        /* \"#utility.yul\":11132:11249   */\n      swap3\n      swap2\n      pop\n      pop\n      jump\t// out\n        /* \"#utility.yul\":11255:11424   */\n    tag_123:\n        /* \"#utility.yul\":11299:11305   */\n      0x00\n        /* \"#utility.yul\":11332:11383   */\n      tag_250\n        /* \"#utility.yul\":11380:11381   */\n      0x00\n        /* \"#utility.yul\":11376:11382   */\n      not\n        /* \"#utility.yul\":11368:11373   */\n      dup5\n        /* \"#utility.yul\":11365:11366   */\n      0x08\n        /* \"#utility.yul\":11361:11374   */\n      mul\n        /* \"#utility.yul\":11332:11383   */\n      tag_122\n      jump\t// in\n    tag_250:\n        /* \"#utility.yul\":11328:11384   */\n      not\n        /* \"#utility.yul\":11413:11417   */\n      dup1\n        /* \"#utility.yul\":11407:11411   */\n      dup4\n        /* \"#utility.yul\":11403:11418   */\n      and\n        /* \"#utility.yul\":11393:11418   */\n      swap2\n      pop\n        /* \"#utility.yul\":11306:11424   */\n      pop\n        /* \"#utility.yul\":11255:11424   */\n      swap3\n      swap2\n      pop\n      pop\n      jump\t// out\n        /* \"#utility.yul\":11429:11724   */\n    tag_124:\n        /* \"#utility.yul\":11505:11509   */\n      0x00\n        /* \"#utility.yul\":11651:11680   */\n      tag_252\n        /* \"#utility.yul\":11676:11679   */\n      dup4\n        /* \"#utility.yul\":11670:11674   */\n      dup4\n        /* \"#utility.yul\":11651:11680   */\n      tag_123\n      jump\t// in\n    tag_252:\n        /* \"#utility.yul\":11643:11680   */\n      swap2\n      pop\n        /* \"#utility.yul\":11713:11716   */\n      dup3\n        /* \"#utility.yul\":11710:11711   */\n      0x02\n        /* \"#utility.yul\":11706:11717   */\n      mul\n        /* \"#utility.yul\":11700:11704   */\n      dup3\n        /* \"#utility.yul\":11697:11718   */\n      or\n        /* \"#utility.yul\":11689:11718   */\n      swap1\n      pop\n        /* \"#utility.yul\":11429:11724   */\n      swap3\n      swap2\n      pop\n      pop\n      jump\t// out\n        /* \"#utility.yul\":11729:13124   */\n    tag_36:\n        /* \"#utility.yul\":11846:11883   */\n      tag_254\n        /* \"#utility.yul\":11879:11882   */\n      dup3\n        /* \"#utility.yul\":11846:11883   */\n      tag_93\n      jump\t// in\n    tag_254:\n        /* \"#utility.yul\":11948:11966   */\n      0xffffffffffffffff\n        /* \"#utility.yul\":11940:11946   */\n      dup2\n        /* \"#utility.yul\":11937:11967   */\n      gt\n        /* \"#utility.yul\":11934:11990   */\n      iszero\n      tag_255\n      jumpi\n        /* \"#utility.yul\":11970:11988   */\n      tag_256\n      tag_108\n      jump\t// in\n    tag_256:\n        /* \"#utility.yul\":11934:11990   */\n    tag_255:\n        /* \"#utility.yul\":12014:12052   */\n      tag_257\n        /* \"#utility.yul\":12046:12050   */\n      dup3\n        /* \"#utility.yul\":12040:12051   */\n      sload\n        /* \"#utility.yul\":12014:12052   */\n      tag_43\n      jump\t// in\n    tag_257:\n        /* \"#utility.yul\":12099:12166   */\n      tag_258\n        /* \"#utility.yul\":12159:12165   */\n      dup3\n        /* \"#utility.yul\":12151:12157   */\n      dup3\n        /* \"#utility.yul\":12145:12149   */\n      dup6\n        /* \"#utility.yul\":12099:12166   */\n      tag_121\n      jump\t// in\n    tag_258:\n        /* \"#utility.yul\":12193:12194   */\n      0x00\n        /* \"#utility.yul\":12217:12221   */\n      0x20\n        /* \"#utility.yul\":12204:12221   */\n      swap1\n      pop\n        /* \"#utility.yul\":12249:12251   */\n      0x1f\n        /* \"#utility.yul\":12241:12247   */\n      dup4\n        /* \"#utility.yul\":12238:12252   */\n      gt\n        /* \"#utility.yul\":12266:12267   */\n      0x01\n        /* \"#utility.yul\":12261:12879   */\n      dup2\n      eq\n      tag_260\n      jumpi\n        /* \"#utility.yul\":12923:12924   */\n      0x00\n        /* \"#utility.yul\":12940:12946   */\n      dup5\n        /* \"#utility.yul\":12937:13014   */\n      iszero\n      tag_261\n      jumpi\n        /* \"#utility.yul\":12989:12998   */\n      dup3\n        /* \"#utility.yul\":12984:12987   */\n      dup8\n        /* \"#utility.yul\":12980:12999   */\n      add\n        /* \"#utility.yul\":12974:13000   */\n      mload\n        /* \"#utility.yul\":12965:13000   */\n      swap1\n      pop\n        /* \"#utility.yul\":12937:13014   */\n    tag_261:\n        /* \"#utility.yul\":13040:13107   */\n      tag_262\n        /* \"#utility.yul\":13100:13106   */\n      dup6\n        /* \"#utility.yul\":13093:13098   */\n      dup3\n        /* \"#utility.yul\":13040:13107   */\n      tag_124\n      jump\t// in\n    tag_262:\n        /* \"#utility.yul\":13034:13038   */\n      dup7\n        /* \"#utility.yul\":13027:13108   */\n      sstore\n        /* \"#utility.yul\":12896:13118   */\n      pop\n        /* \"#utility.yul\":12231:13118   */\n      jump(tag_259)\n        /* \"#utility.yul\":12261:12879   */\n    tag_260:\n        /* \"#utility.yul\":12313:12317   */\n      0x1f\n        /* \"#utility.yul\":12309:12318   */\n      not\n        /* \"#utility.yul\":12301:12307   */\n      dup5\n        /* \"#utility.yul\":12297:12319   */\n      and\n        /* \"#utility.yul\":12347:12384   */\n      tag_263\n        /* \"#utility.yul\":12379:12383   */\n      dup7\n        /* \"#utility.yul\":12347:12384   */\n      tag_110\n      jump\t// in\n    tag_263:\n        /* \"#utility.yul\":12406:12407   */\n      0x00\n        /* \"#utility.yul\":12420:12628   */\n    tag_264:\n        /* \"#utility.yul\":12434:12441   */\n      dup3\n        /* \"#utility.yul\":12431:12432   */\n      dup2\n        /* \"#utility.yul\":12428:12442   */\n      lt\n        /* \"#utility.yul\":12420:12628   */\n      iszero\n      tag_266\n      jumpi\n        /* \"#utility.yul\":12513:12522   */\n      dup5\n        /* \"#utility.yul\":12508:12511   */\n      dup10\n        /* \"#utility.yul\":12504:12523   */\n      add\n        /* \"#utility.yul\":12498:12524   */\n      mload\n        /* \"#utility.yul\":12490:12496   */\n      dup3\n        /* \"#utility.yul\":12483:12525   */\n      sstore\n        /* \"#utility.yul\":12564:12565   */\n      0x01\n        /* \"#utility.yul\":12556:12562   */\n      dup3\n        /* \"#utility.yul\":12552:12566   */\n      add\n        /* \"#utility.yul\":12542:12566   */\n      swap2\n      pop\n        /* \"#utility.yul\":12611:12613   */\n      0x20\n        /* \"#utility.yul\":12600:12609   */\n      dup6\n        /* \"#utility.yul\":12596:12614   */\n      add\n        /* \"#utility.yul\":12583:12614   */\n      swap5\n      pop\n        /* \"#utility.yul\":12457:12461   */\n      0x20\n        /* \"#utility.yul\":12454:12455   */\n      dup2\n        /* \"#utility.yul\":12450:12462   */\n      add\n        /* \"#utility.yul\":12445:12462   */\n      swap1\n      pop\n        /* \"#utility.yul\":12420:12628   */\n      jump(tag_264)\n    tag_266:\n        /* \"#utility.yul\":12656:12662   */\n      dup7\n        /* \"#utility.yul\":12647:12654   */\n      dup4\n        /* \"#utility.yul\":12644:12663   */\n      lt\n        /* \"#utility.yul\":12641:12820   */\n      iszero\n      tag_267\n      jumpi\n        /* \"#utility.yul\":12714:12723   */\n      dup5\n        /* \"#utility.yul\":12709:12712   */\n      dup10\n        /* \"#utility.yul\":12705:12724   */\n      add\n        /* \"#utility.yul\":12699:12725   */\n      mload\n        /* \"#utility.yul\":12757:12805   */\n      tag_268\n        /* \"#utility.yul\":12799:12803   */\n      0x1f\n        /* \"#utility.yul\":12791:12797   */\n      dup10\n        /* \"#utility.yul\":12787:12804   */\n      and\n        /* \"#utility.yul\":12776:12785   */\n      dup3\n        /* \"#utility.yul\":12757:12805   */\n      tag_123\n      jump\t// in\n    tag_268:\n        /* \"#utility.yul\":12749:12755   */\n      dup4\n        /* \"#utility.yul\":12742:12806   */\n      sstore\n        /* \"#utility.yul\":12664:12820   */\n      pop\n        /* \"#utility.yul\":12641:12820   */\n    tag_267:\n        /* \"#utility.yul\":12866:12867   */\n      0x01\n        /* \"#utility.yul\":12862:12863   */\n      0x02\n        /* \"#utility.yul\":12854:12860   */\n      dup9\n        /* \"#utility.yul\":12850:12864   */\n      mul\n        /* \"#utility.yul\":12846:12868   */\n      add\n        /* \"#utility.yul\":12840:12844   */\n      dup9\n        /* \"#utility.yul\":12833:12869   */\n      sstore\n        /* \"#utility.yul\":12268:12879   */\n      pop\n      pop\n      pop\n        /* \"#utility.yul\":12231:13118   */\n    tag_259:\n      pop\n        /* \"#utility.yul\":11821:13124   */\n      pop\n      pop\n      pop\n        /* \"#utility.yul\":11729:13124   */\n      pop\n      pop\n      jump\t// out\n        /* \"#utility.yul\":13130:13276   */\n    tag_125:\n        /* \"#utility.yul\":13227:13233   */\n      dup3\n        /* \"#utility.yul\":13222:13225   */\n      dup2\n        /* \"#utility.yul\":13217:13220   */\n      dup4\n        /* \"#utility.yul\":13204:13234   */\n      calldatacopy\n        /* \"#utility.yul\":13268:13269   */\n      0x00\n        /* \"#utility.yul\":13259:13265   */\n      dup4\n        /* \"#utility.yul\":13254:13257   */\n      dup4\n        /* \"#utility.yul\":13250:13266   */\n      add\n        /* \"#utility.yul\":13243:13270   */\n      mstore\n        /* \"#utility.yul\":13130:13276   */\n      pop\n      pop\n      pop\n      jump\t// out\n        /* \"#utility.yul\":13306:13623   */\n    tag_126:\n        /* \"#utility.yul\":13404:13407   */\n      0x00\n        /* \"#utility.yul\":13425:13496   */\n      tag_271\n        /* \"#utility.yul\":13489:13495   */\n      dup4\n        /* \"#utility.yul\":13484:13487   */\n      dup6\n        /* \"#utility.yul\":13425:13496   */\n      tag_94\n      jump\t// in\n    tag_271:\n        /* \"#utility.yul\":13418:13496   */\n      swap4\n      pop\n        /* \"#utility.yul\":13506:13562   */\n      tag_272\n        /* \"#utility.yul\":13555:13561   */\n      dup4\n        /* \"#utility.yul\":13550:13553   */\n      dup6\n        /* \"#utility.yul\":13543:13548   */\n      dup5\n        /* \"#utility.yul\":13506:13562   */\n      tag_125\n      jump\t// in\n    tag_272:\n        /* \"#utility.yul\":13587:13616   */\n      tag_273\n        /* \"#utility.yul\":13609:13615   */\n      dup4\n        /* \"#utility.yul\":13587:13616   */\n      tag_96\n      jump\t// in\n    tag_273:\n        /* \"#utility.yul\":13582:13585   */\n      dup5\n        /* \"#utility.yul\":13578:13617   */\n      add\n        /* \"#utility.yul\":13571:13617   */\n      swap1\n      pop\n        /* \"#utility.yul\":13306:13623   */\n      swap4\n      swap3\n      pop\n      pop\n      pop\n      jump\t// out\n        /* \"#utility.yul\":13629:14293   */\n    tag_39:\n        /* \"#utility.yul\":13838:13842   */\n      0x00\n        /* \"#utility.yul\":13876:13878   */\n      0x60\n        /* \"#utility.yul\":13865:13874   */\n      dup3\n        /* \"#utility.yul\":13861:13879   */\n      add\n        /* \"#utility.yul\":13853:13879   */\n      swap1\n      pop\n        /* \"#utility.yul\":13925:13934   */\n      dup2\n        /* \"#utility.yul\":13919:13923   */\n      dup2\n        /* \"#utility.yul\":13915:13935   */\n      sub\n        /* \"#utility.yul\":13911:13912   */\n      0x00\n        /* \"#utility.yul\":13900:13909   */\n      dup4\n        /* \"#utility.yul\":13896:13913   */\n      add\n        /* \"#utility.yul\":13889:13936   */\n      mstore\n        /* \"#utility.yul\":13953:14041   */\n      tag_275\n        /* \"#utility.yul\":14036:14040   */\n      dup2\n        /* \"#utility.yul\":14027:14033   */\n      dup8\n        /* \"#utility.yul\":14019:14025   */\n      dup10\n        /* \"#utility.yul\":13953:14041   */\n      tag_126\n      jump\t// in\n    tag_275:\n        /* \"#utility.yul\":13945:14041   */\n      swap1\n      pop\n        /* \"#utility.yul\":14088:14097   */\n      dup2\n        /* \"#utility.yul\":14082:14086   */\n      dup2\n        /* \"#utility.yul\":14078:14098   */\n      sub\n        /* \"#utility.yul\":14073:14075   */\n      0x20\n        /* \"#utility.yul\":14062:14071   */\n      dup4\n        /* \"#utility.yul\":14058:14076   */\n      add\n        /* \"#utility.yul\":14051:14099   */\n      mstore\n        /* \"#utility.yul\":14116:14204   */\n      tag_276\n        /* \"#utility.yul\":14199:14203   */\n      dup2\n        /* \"#utility.yul\":14190:14196   */\n      dup6\n        /* \"#utility.yul\":14182:14188   */\n      dup8\n        /* \"#utility.yul\":14116:14204   */\n      tag_126\n      jump\t// in\n    tag_276:\n        /* \"#utility.yul\":14108:14204   */\n      swap1\n      pop\n        /* \"#utility.yul\":14214:14286   */\n      tag_277\n        /* \"#utility.yul\":14282:14284   */\n      0x40\n        /* \"#utility.yul\":14271:14280   */\n      dup4\n        /* \"#utility.yul\":14267:14285   */\n      add\n        /* \"#utility.yul\":14258:14264   */\n      dup5\n        /* \"#utility.yul\":14214:14286   */\n      tag_99\n      jump\t// in\n    tag_277:\n        /* \"#utility.yul\":13629:14293   */\n      swap7\n      swap6\n      pop\n      pop\n      pop\n      pop\n      pop\n      pop\n      jump\t// out\n        /* \"#utility.yul\":14299:14479   */\n    tag_127:\n        /* \"#utility.yul\":14439:14471   */\n      0x4e6f20616374697665207375626d697373696f6e20746f2072656d6f76650000\n        /* \"#utility.yul\":14435:14436   */\n      0x00\n        /* \"#utility.yul\":14427:14433   */\n      dup3\n        /* \"#utility.yul\":14423:14437   */\n      add\n        /* \"#utility.yul\":14416:14472   */\n      mstore\n        /* \"#utility.yul\":14299:14479   */\n      pop\n      jump\t// out\n        /* \"#utility.yul\":14485:14851   */\n    tag_128:\n        /* \"#utility.yul\":14627:14630   */\n      0x00\n        /* \"#utility.yul\":14648:14715   */\n      tag_280\n        /* \"#utility.yul\":14712:14714   */\n      0x1e\n        /* \"#utility.yul\":14707:14710   */\n      dup4\n        /* \"#utility.yul\":14648:14715   */\n      tag_94\n      jump\t// in\n    tag_280:\n        /* \"#utility.yul\":14641:14715   */\n      swap2\n      pop\n        /* \"#utility.yul\":14724:14817   */\n      tag_281\n        /* \"#utility.yul\":14813:14816   */\n      dup3\n        /* \"#utility.yul\":14724:14817   */\n      tag_127\n      jump\t// in\n    tag_281:\n        /* \"#utility.yul\":14842:14844   */\n      0x20\n        /* \"#utility.yul\":14837:14840   */\n      dup3\n        /* \"#utility.yul\":14833:14845   */\n      add\n        /* \"#utility.yul\":14826:14845   */\n      swap1\n      pop\n        /* \"#utility.yul\":14485:14851   */\n      swap2\n      swap1\n      pop\n      jump\t// out\n        /* \"#utility.yul\":14857:15276   */\n    tag_58:\n        /* \"#utility.yul\":15023:15027   */\n      0x00\n        /* \"#utility.yul\":15061:15063   */\n      0x20\n        /* \"#utility.yul\":15050:15059   */\n      dup3\n        /* \"#utility.yul\":15046:15064   */\n      add\n        /* \"#utility.yul\":15038:15064   */\n      swap1\n      pop\n        /* \"#utility.yul\":15110:15119   */\n      dup2\n        /* \"#utility.yul\":15104:15108   */\n      dup2\n        /* \"#utility.yul\":15100:15120   */\n      sub\n        /* \"#utility.yul\":15096:15097   */\n      0x00\n        /* \"#utility.yul\":15085:15094   */\n      dup4\n        /* \"#utility.yul\":15081:15098   */\n      add\n        /* \"#utility.yul\":15074:15121   */\n      mstore\n        /* \"#utility.yul\":15138:15269   */\n      tag_283\n        /* \"#utility.yul\":15264:15268   */\n      dup2\n        /* \"#utility.yul\":15138:15269   */\n      tag_128\n      jump\t// in\n    tag_283:\n        /* \"#utility.yul\":15130:15269   */\n      swap1\n      pop\n        /* \"#utility.yul\":14857:15276   */\n      swap2\n      swap1\n      pop\n      jump\t// out\n        /* \"#utility.yul\":15282:15504   */\n    tag_60:\n        /* \"#utility.yul\":15375:15379   */\n      0x00\n        /* \"#utility.yul\":15413:15415   */\n      0x20\n        /* \"#utility.yul\":15402:15411   */\n      dup3\n        /* \"#utility.yul\":15398:15416   */\n      add\n        /* \"#utility.yul\":15390:15416   */\n      swap1\n      pop\n        /* \"#utility.yul\":15426:15497   */\n      tag_285\n        /* \"#utility.yul\":15494:15495   */\n      0x00\n        /* \"#utility.yul\":15483:15492   */\n      dup4\n        /* \"#utility.yul\":15479:15496   */\n      add\n        /* \"#utility.yul\":15470:15476   */\n      dup5\n        /* \"#utility.yul\":15426:15497   */\n      tag_99\n      jump\t// in\n    tag_285:\n        /* \"#utility.yul\":15282:15504   */\n      swap3\n      swap2\n      pop\n      pop\n      jump\t// out\n        /* \"#utility.yul\":15510:15690   */\n    tag_129:\n        /* \"#utility.yul\":15650:15682   */\n      0x4e6f20616374697665207375626d697373696f6e20746f207570646174650000\n        /* \"#utility.yul\":15646:15647   */\n      0x00\n        /* \"#utility.yul\":15638:15644   */\n      dup3\n        /* \"#utility.yul\":15634:15648   */\n      add\n        /* \"#utility.yul\":15627:15683   */\n      mstore\n        /* \"#utility.yul\":15510:15690   */\n      pop\n      jump\t// out\n        /* \"#utility.yul\":15696:16062   */\n    tag_130:\n        /* \"#utility.yul\":15838:15841   */\n      0x00\n        /* \"#utility.yul\":15859:15926   */\n      tag_288\n        /* \"#utility.yul\":15923:15925   */\n      0x1e\n        /* \"#utility.yul\":15918:15921   */\n      dup4\n        /* \"#utility.yul\":15859:15926   */\n      tag_94\n      jump\t// in\n    tag_288:\n        /* \"#utility.yul\":15852:15926   */\n      swap2\n      pop\n        /* \"#utility.yul\":15935:16028   */\n      tag_289\n        /* \"#utility.yul\":16024:16027   */\n      dup3\n        /* \"#utility.yul\":15935:16028   */\n      tag_129\n      jump\t// in\n    tag_289:\n        /* \"#utility.yul\":16053:16055   */\n      0x20\n        /* \"#utility.yul\":16048:16051   */\n      dup3\n        /* \"#utility.yul\":16044:16056   */\n      add\n        /* \"#utility.yul\":16037:16056   */\n      swap1\n      pop\n        /* \"#utility.yul\":15696:16062   */\n      swap2\n      swap1\n      pop\n      jump\t// out\n        /* \"#utility.yul\":16068:16487   */\n    tag_67:\n        /* \"#utility.yul\":16234:16238   */\n      0x00\n        /* \"#utility.yul\":16272:16274   */\n      0x20\n        /* \"#utility.yul\":16261:16270   */\n      dup3\n        /* \"#utility.yul\":16257:16275   */\n      add\n        /* \"#utility.yul\":16249:16275   */\n      swap1\n      pop\n        /* \"#utility.yul\":16321:16330   */\n      dup2\n        /* \"#utility.yul\":16315:16319   */\n      dup2\n        /* \"#utility.yul\":16311:16331   */\n      sub\n        /* \"#utility.yul\":16307:16308   */\n      0x00\n        /* \"#utility.yul\":16296:16305   */\n      dup4\n        /* \"#utility.yul\":16292:16309   */\n      add\n        /* \"#utility.yul\":16285:16332   */\n      mstore\n        /* \"#utility.yul\":16349:16480   */\n      tag_291\n        /* \"#utility.yul\":16475:16479   */\n      dup2\n        /* \"#utility.yul\":16349:16480   */\n      tag_130\n      jump\t// in\n    tag_291:\n        /* \"#utility.yul\":16341:16480   */\n      swap1\n      pop\n        /* \"#utility.yul\":16068:16487   */\n      swap2\n      swap1\n      pop\n      jump\t// out\n        /* \"#utility.yul\":16493:16590   */\n    tag_131:\n        /* \"#utility.yul\":16552:16558   */\n      0x00\n        /* \"#utility.yul\":16580:16583   */\n      dup3\n        /* \"#utility.yul\":16570:16583   */\n      swap1\n      pop\n        /* \"#utility.yul\":16493:16590   */\n      swap3\n      swap2\n      pop\n      pop\n      jump\t// out\n        /* \"#utility.yul\":16596:17999   */\n    tag_73:\n        /* \"#utility.yul\":16720:16764   */\n      tag_294\n        /* \"#utility.yul\":16760:16763   */\n      dup4\n        /* \"#utility.yul\":16755:16758   */\n      dup4\n        /* \"#utility.yul\":16720:16764   */\n      tag_131\n      jump\t// in\n    tag_294:\n        /* \"#utility.yul\":16829:16847   */\n      0xffffffffffffffff\n        /* \"#utility.yul\":16821:16827   */\n      dup2\n        /* \"#utility.yul\":16818:16848   */\n      gt\n        /* \"#utility.yul\":16815:16871   */\n      iszero\n      tag_295\n      jumpi\n        /* \"#utility.yul\":16851:16869   */\n      tag_296\n      tag_108\n      jump\t// in\n    tag_296:\n        /* \"#utility.yul\":16815:16871   */\n    tag_295:\n        /* \"#utility.yul\":16895:16933   */\n      tag_297\n        /* \"#utility.yul\":16927:16931   */\n      dup3\n        /* \"#utility.yul\":16921:16932   */\n      sload\n        /* \"#utility.yul\":16895:16933   */\n      tag_43\n      jump\t// in\n    tag_297:\n        /* \"#utility.yul\":16980:17047   */\n      tag_298\n        /* \"#utility.yul\":17040:17046   */\n      dup3\n        /* \"#utility.yul\":17032:17038   */\n      dup3\n        /* \"#utility.yul\":17026:17030   */\n      dup6\n        /* \"#utility.yul\":16980:17047   */\n      tag_121\n      jump\t// in\n    tag_298:\n        /* \"#utility.yul\":17074:17075   */\n      0x00\n        /* \"#utility.yul\":17103:17105   */\n      0x1f\n        /* \"#utility.yul\":17095:17101   */\n      dup4\n        /* \"#utility.yul\":17092:17106   */\n      gt\n        /* \"#utility.yul\":17120:17121   */\n      0x01\n        /* \"#utility.yul\":17115:17747   */\n      dup2\n      eq\n      tag_300\n      jumpi\n        /* \"#utility.yul\":17791:17792   */\n      0x00\n        /* \"#utility.yul\":17808:17814   */\n      dup5\n        /* \"#utility.yul\":17805:17889   */\n      iszero\n      tag_301\n      jumpi\n        /* \"#utility.yul\":17864:17873   */\n      dup3\n        /* \"#utility.yul\":17859:17862   */\n      dup8\n        /* \"#utility.yul\":17855:17874   */\n      add\n        /* \"#utility.yul\":17842:17875   */\n      calldataload\n        /* \"#utility.yul\":17833:17875   */\n      swap1\n      pop\n        /* \"#utility.yul\":17805:17889   */\n    tag_301:\n        /* \"#utility.yul\":17915:17982   */\n      tag_302\n        /* \"#utility.yul\":17975:17981   */\n      dup6\n        /* \"#utility.yul\":17968:17973   */\n      dup3\n        /* \"#utility.yul\":17915:17982   */\n      tag_124\n      jump\t// in\n    tag_302:\n        /* \"#utility.yul\":17909:17913   */\n      dup7\n        /* \"#utility.yul\":17902:17983   */\n      sstore\n        /* \"#utility.yul\":17764:17993   */\n      pop\n        /* \"#utility.yul\":17085:17993   */\n      jump(tag_299)\n        /* \"#utility.yul\":17115:17747   */\n    tag_300:\n        /* \"#utility.yul\":17167:17171   */\n      0x1f\n        /* \"#utility.yul\":17163:17172   */\n      not\n        /* \"#utility.yul\":17155:17161   */\n      dup5\n        /* \"#utility.yul\":17151:17173   */\n      and\n        /* \"#utility.yul\":17201:17238   */\n      tag_303\n        /* \"#utility.yul\":17233:17237   */\n      dup7\n        /* \"#utility.yul\":17201:17238   */\n      tag_110\n      jump\t// in\n    tag_303:\n        /* \"#utility.yul\":17260:17261   */\n      0x00\n        /* \"#utility.yul\":17274:17489   */\n    tag_304:\n        /* \"#utility.yul\":17288:17295   */\n      dup3\n        /* \"#utility.yul\":17285:17286   */\n      dup2\n        /* \"#utility.yul\":17282:17296   */\n      lt\n        /* \"#utility.yul\":17274:17489   */\n      iszero\n      tag_306\n      jumpi\n        /* \"#utility.yul\":17374:17383   */\n      dup5\n        /* \"#utility.yul\":17369:17372   */\n      dup10\n        /* \"#utility.yul\":17365:17384   */\n      add\n        /* \"#utility.yul\":17352:17385   */\n      calldataload\n        /* \"#utility.yul\":17344:17350   */\n      dup3\n        /* \"#utility.yul\":17337:17386   */\n      sstore\n        /* \"#utility.yul\":17425:17426   */\n      0x01\n        /* \"#utility.yul\":17417:17423   */\n      dup3\n        /* \"#utility.yul\":17413:17427   */\n      add\n        /* \"#utility.yul\":17403:17427   */\n      swap2\n      pop\n        /* \"#utility.yul\":17472:17474   */\n      0x20\n        /* \"#utility.yul\":17461:17470   */\n      dup6\n        /* \"#utility.yul\":17457:17475   */\n      add\n        /* \"#utility.yul\":17444:17475   */\n      swap5\n      pop\n        /* \"#utility.yul\":17311:17315   */\n      0x20\n        /* \"#utility.yul\":17308:17309   */\n      dup2\n        /* \"#utility.yul\":17304:17316   */\n      add\n        /* \"#utility.yul\":17299:17316   */\n      swap1\n      pop\n        /* \"#utility.yul\":17274:17489   */\n      jump(tag_304)\n    tag_306:\n        /* \"#utility.yul\":17517:17523   */\n      dup7\n        /* \"#utility.yul\":17508:17515   */\n      dup4\n        /* \"#utility.yul\":17505:17524   */\n      lt\n        /* \"#utility.yul\":17502:17688   */\n      iszero\n      tag_307\n      jumpi\n        /* \"#utility.yul\":17582:17591   */\n      dup5\n        /* \"#utility.yul\":17577:17580   */\n      dup10\n        /* \"#utility.yul\":17573:17592   */\n      add\n        /* \"#utility.yul\":17560:17593   */\n      calldataload\n        /* \"#utility.yul\":17625:17673   */\n      tag_308\n        /* \"#utility.yul\":17667:17671   */\n      0x1f\n        /* \"#utility.yul\":17659:17665   */\n      dup10\n        /* \"#utility.yul\":17655:17672   */\n      and\n        /* \"#utility.yul\":17644:17653   */\n      dup3\n        /* \"#utility.yul\":17625:17673   */\n      tag_123\n      jump\t// in\n    tag_308:\n        /* \"#utility.yul\":17617:17623   */\n      dup4\n        /* \"#utility.yul\":17610:17674   */\n      sstore\n        /* \"#utility.yul\":17525:17688   */\n      pop\n        /* \"#utility.yul\":17502:17688   */\n    tag_307:\n        /* \"#utility.yul\":17734:17735   */\n      0x01\n        /* \"#utility.yul\":17730:17731   */\n      0x02\n        /* \"#utility.yul\":17722:17728   */\n      dup9\n        /* \"#utility.yul\":17718:17732   */\n      mul\n        /* \"#utility.yul\":17714:17736   */\n      add\n        /* \"#utility.yul\":17708:17712   */\n      dup9\n        /* \"#utility.yul\":17701:17737   */\n      sstore\n        /* \"#utility.yul\":17122:17747   */\n      pop\n      pop\n      pop\n        /* \"#utility.yul\":17085:17993   */\n    tag_299:\n      pop\n        /* \"#utility.yul\":16695:17999   */\n      pop\n      pop\n      pop\n        /* \"#utility.yul\":16596:17999   */\n      pop\n      pop\n      pop\n      jump\t// out\n        /* \"#utility.yul\":18005:18186   */\n    tag_132:\n        /* \"#utility.yul\":18145:18178   */\n      0x5265656e7472616e637947756172643a207265656e7472616e742063616c6c00\n        /* \"#utility.yul\":18141:18142   */\n      0x00\n        /* \"#utility.yul\":18133:18139   */\n      dup3\n        /* \"#utility.yul\":18129:18143   */\n      add\n        /* \"#utility.yul\":18122:18179   */\n      mstore\n        /* \"#utility.yul\":18005:18186   */\n      pop\n      jump\t// out\n        /* \"#utility.yul\":18192:18558   */\n    tag_133:\n        /* \"#utility.yul\":18334:18337   */\n      0x00\n        /* \"#utility.yul\":18355:18422   */\n      tag_311\n        /* \"#utility.yul\":18419:18421   */\n      0x1f\n        /* \"#utility.yul\":18414:18417   */\n      dup4\n        /* \"#utility.yul\":18355:18422   */\n      tag_94\n      jump\t// in\n    tag_311:\n        /* \"#utility.yul\":18348:18422   */\n      swap2\n      pop\n        /* \"#utility.yul\":18431:18524   */\n      tag_312\n        /* \"#utility.yul\":18520:18523   */\n      dup3\n        /* \"#utility.yul\":18431:18524   */\n      tag_132\n      jump\t// in\n    tag_312:\n        /* \"#utility.yul\":18549:18551   */\n      0x20\n        /* \"#utility.yul\":18544:18547   */\n      dup3\n        /* \"#utility.yul\":18540:18552   */\n      add\n        /* \"#utility.yul\":18533:18552   */\n      swap1\n      pop\n        /* \"#utility.yul\":18192:18558   */\n      swap2\n      swap1\n      pop\n      jump\t// out\n        /* \"#utility.yul\":18564:18983   */\n    tag_80:\n        /* \"#utility.yul\":18730:18734   */\n      0x00\n        /* \"#utility.yul\":18768:18770   */\n      0x20\n        /* \"#utility.yul\":18757:18766   */\n      dup3\n        /* \"#utility.yul\":18753:18771   */\n      add\n        /* \"#utility.yul\":18745:18771   */\n      swap1\n      pop\n        /* \"#utility.yul\":18817:18826   */\n      dup2\n        /* \"#utility.yul\":18811:18815   */\n      dup2\n        /* \"#utility.yul\":18807:18827   */\n      sub\n        /* \"#utility.yul\":18803:18804   */\n      0x00\n        /* \"#utility.yul\":18792:18801   */\n      dup4\n        /* \"#utility.yul\":18788:18805   */\n      add\n        /* \"#utility.yul\":18781:18828   */\n      mstore\n        /* \"#utility.yul\":18845:18976   */\n      tag_314\n        /* \"#utility.yul\":18971:18975   */\n      dup2\n        /* \"#utility.yul\":18845:18976   */\n      tag_133\n      jump\t// in\n    tag_314:\n        /* \"#utility.yul\":18837:18976   */\n      swap1\n      pop\n        /* \"#utility.yul\":18564:18983   */\n      swap2\n      swap1\n      pop\n      jump\t// out\n\n    auxdata: 0xa2646970667358221220409e0ed90ee483022245e1c6a2e926429b4b1071f8bebd22223cac910ef41ddd64736f6c63430008140033\n}\n",
				"bytecode": {
					"linkReferences": {},
					"object": "608060405234801561000f575f80fd5b5060015f819055506111d9806100245f395ff3fe608060405234801561000f575f80fd5b506004361061004a575f3560e01c80636053e9e51461004e57806389e14e161461006a578063921eecdc1461009d57806398937047146100a7575b5f80fd5b610068600480360381019061006391906108bc565b6100c3565b005b610084600480360381019061007f9190610994565b610383565b6040516100949493929190610a7b565b60405180910390f35b6100a56104c7565b005b6100c160048036038101906100bc91906108bc565b61060a565b005b6100cb6107fd565b60015f3373ffffffffffffffffffffffffffffffffffffffff1673ffffffffffffffffffffffffffffffffffffffff1681526020019081526020015f206003015f9054906101000a900460ff1615610158576040517f08c379a000000000000000000000000000000000000000000000000000000000815260040161014f90610b16565b60405180910390fd5b5f848490501161019d576040517f08c379a000000000000000000000000000000000000000000000000000000000815260040161019490610b7e565b60405180910390fd5b5f82829050116101e2576040517f08c379a00000000000000000000000000000000000000000000000000000000081526004016101d990610be6565b60405180910390fd5b604051806080016040528085858080601f0160208091040260200160405190810160405280939291908181526020018383808284375f81840152601f19601f82011690508083019250505050505050815260200183838080601f0160208091040260200160405190810160405280939291908181526020018383808284375f81840152601f19601f8201169050808301925050505050505081526020014281526020016001151581525060015f3373ffffffffffffffffffffffffffffffffffffffff1673ffffffffffffffffffffffffffffffffffffffff1681526020019081526020015f205f820151815f0190816102dc9190610e2b565b5060208201518160010190816102f29190610e2b565b50604082015181600201556060820151816003015f6101000a81548160ff0219169083151502179055509050503373ffffffffffffffffffffffffffffffffffffffff167f334169e3f29a6403da0093c1c0920e489ef219944ebb813b15fc804a32eca7e5858585854260405161036d959493929190610f34565b60405180910390a261037d61084a565b50505050565b6001602052805f5260405f205f91509050805f0180546103a290610c5e565b80601f01602080910402602001604051908101604052809291908181526020018280546103ce90610c5e565b80156104195780601f106103f057610100808354040283529160200191610419565b820191905f5260205f20905b8154815290600101906020018083116103fc57829003601f168201915b50505050509080600101805461042e90610c5e565b80601f016020809104026020016040519081016040528092919081815260200182805461045a90610c5e565b80156104a55780601f1061047c576101008083540402835291602001916104a5565b820191905f5260205f20905b81548152906001019060200180831161048857829003601f168201915b505050505090806002015490806003015f9054906101000a900460ff16905084565b6104cf6107fd565b60015f3373ffffffffffffffffffffffffffffffffffffffff1673ffffffffffffffffffffffffffffffffffffffff1681526020019081526020015f206003015f9054906101000a900460ff1661055b576040517f08c379a000000000000000000000000000000000000000000000000000000000815260040161055290610fc5565b60405180910390fd5b5f60015f3373ffffffffffffffffffffffffffffffffffffffff1673ffffffffffffffffffffffffffffffffffffffff1681526020019081526020015f206003015f6101000a81548160ff0219169083151502179055503373ffffffffffffffffffffffffffffffffffffffff167fec39295276a9bfe8318d16b06780fd42fb6ec9bffc66ba99908b57ab79ee63c0426040516105f89190610fe3565b60405180910390a261060861084a565b565b6106126107fd565b60015f3373ffffffffffffffffffffffffffffffffffffffff1673ffffffffffffffffffffffffffffffffffffffff1681526020019081526020015f206003015f9054906101000a900460ff1661069e576040517f08c379a000000000000000000000000000000000000000000000000000000000815260040161069590611046565b60405180910390fd5b5f84849050116106e3576040517f08c379a00000000000000000000000000000000000000000000000000000000081526004016106da90610b7e565b60405180910390fd5b5f8282905011610728576040517f08c379a000000000000000000000000000000000000000000000000000000000815260040161071f90610be6565b60405180910390fd5b5f60015f3373ffffffffffffffffffffffffffffffffffffffff1673ffffffffffffffffffffffffffffffffffffffff1681526020019081526020015f2090508484825f01918261077a92919061106e565b50828282600101918261078e92919061106e565b504281600201819055503373ffffffffffffffffffffffffffffffffffffffff167feab8c4f9f868ea37d0813163636940f1cd4d12d87b469a2e7442b72dbeff7d1a86868686426040516107e6959493929190610f34565b60405180910390a2506107f761084a565b50505050565b60025f5403610841576040517f08c379a000000000000000000000000000000000000000000000000000000000815260040161083890611185565b60405180910390fd5b60025f81905550565b60015f81905550565b5f80fd5b5f80fd5b5f80fd5b5f80fd5b5f80fd5b5f8083601f84011261087c5761087b61085b565b5b8235905067ffffffffffffffff8111156108995761089861085f565b5b6020830191508360018202830111156108b5576108b4610863565b5b9250929050565b5f805f80604085870312156108d4576108d3610853565b5b5f85013567ffffffffffffffff8111156108f1576108f0610857565b5b6108fd87828801610867565b9450945050602085013567ffffffffffffffff8111156109205761091f610857565b5b61092c87828801610867565b925092505092959194509250565b5f73ffffffffffffffffffffffffffffffffffffffff82169050919050565b5f6109638261093a565b9050919050565b61097381610959565b811461097d575f80fd5b50565b5f8135905061098e8161096a565b92915050565b5f602082840312156109a9576109a8610853565b5b5f6109b684828501610980565b91505092915050565b5f81519050919050565b5f82825260208201905092915050565b5f5b838110156109f65780820151818401526020810190506109db565b5f8484015250505050565b5f601f19601f8301169050919050565b5f610a1b826109bf565b610a2581856109c9565b9350610a358185602086016109d9565b610a3e81610a01565b840191505092915050565b5f819050919050565b610a5b81610a49565b82525050565b5f8115159050919050565b610a7581610a61565b82525050565b5f6080820190508181035f830152610a938187610a11565b90508181036020830152610aa78186610a11565b9050610ab66040830185610a52565b610ac36060830184610a6c565b95945050505050565b7f5375626d697373696f6e20616c726561647920657869737473000000000000005f82015250565b5f610b006019836109c9565b9150610b0b82610acc565b602082019050919050565b5f6020820190508181035f830152610b2d81610af4565b9050919050565b7f55524c2063616e6e6f7420626520656d707479000000000000000000000000005f82015250565b5f610b686013836109c9565b9150610b7382610b34565b602082019050919050565b5f6020820190508181035f830152610b9581610b5c565b9050919050565b7f4e6f74652063616e6e6f7420626520656d7074790000000000000000000000005f82015250565b5f610bd06014836109c9565b9150610bdb82610b9c565b602082019050919050565b5f6020820190508181035f830152610bfd81610bc4565b9050919050565b7f4e487b71000000000000000000000000000000000000000000000000000000005f52604160045260245ffd5b7f4e487b71000000000000000000000000000000000000000000000000000000005f52602260045260245ffd5b5f6002820490506001821680610c7557607f821691505b602082108103610c8857610c87610c31565b5b50919050565b5f819050815f5260205f209050919050565b5f6020601f8301049050919050565b5f82821b905092915050565b5f60088302610cea7fffffffffffffffffffffffffffffffffffffffffffffffffffffffffffffffff82610caf565b610cf48683610caf565b95508019841693508086168417925050509392505050565b5f819050919050565b5f610d2f610d2a610d2584610a49565b610d0c565b610a49565b9050919050565b5f819050919050565b610d4883610d15565b610d5c610d5482610d36565b848454610cbb565b825550505050565b5f90565b610d70610d64565b610d7b818484610d3f565b505050565b5b81811015610d9e57610d935f82610d68565b600181019050610d81565b5050565b601f821115610de357610db481610c8e565b610dbd84610ca0565b81016020851015610dcc578190505b610de0610dd885610ca0565b830182610d80565b50505b505050565b5f82821c905092915050565b5f610e035f1984600802610de8565b1980831691505092915050565b5f610e1b8383610df4565b9150826002028217905092915050565b610e34826109bf565b67ffffffffffffffff811115610e4d57610e4c610c04565b5b610e578254610c5e565b610e62828285610da2565b5f60209050601f831160018114610e93575f8415610e81578287015190505b610e8b8582610e10565b865550610ef2565b601f198416610ea186610c8e565b5f5b82811015610ec857848901518255600182019150602085019450602081019050610ea3565b86831015610ee55784890151610ee1601f891682610df4565b8355505b6001600288020188555050505b505050505050565b828183375f83830152505050565b5f610f1383856109c9565b9350610f20838584610efa565b610f2983610a01565b840190509392505050565b5f6060820190508181035f830152610f4d818789610f08565b90508181036020830152610f62818587610f08565b9050610f716040830184610a52565b9695505050505050565b7f4e6f20616374697665207375626d697373696f6e20746f2072656d6f766500005f82015250565b5f610faf601e836109c9565b9150610fba82610f7b565b602082019050919050565b5f6020820190508181035f830152610fdc81610fa3565b9050919050565b5f602082019050610ff65f830184610a52565b92915050565b7f4e6f20616374697665207375626d697373696f6e20746f2075706461746500005f82015250565b5f611030601e836109c9565b915061103b82610ffc565b602082019050919050565b5f6020820190508181035f83015261105d81611024565b9050919050565b5f82905092915050565b6110788383611064565b67ffffffffffffffff81111561109157611090610c04565b5b61109b8254610c5e565b6110a6828285610da2565b5f601f8311600181146110d3575f84156110c1578287013590505b6110cb8582610e10565b865550611132565b601f1984166110e186610c8e565b5f5b82811015611108578489013582556001820191506020850194506020810190506110e3565b868310156111255784890135611121601f891682610df4565b8355505b6001600288020188555050505b50505050505050565b7f5265656e7472616e637947756172643a207265656e7472616e742063616c6c005f82015250565b5f61116f601f836109c9565b915061117a8261113b565b602082019050919050565b5f6020820190508181035f83015261119c81611163565b905091905056fea2646970667358221220409e0ed90ee483022245e1c6a2e926429b4b1071f8bebd22223cac910ef41ddd64736f6c63430008140033",
					"opcodes": "PUSH1 0x80 PUSH1 0x40 MSTORE CALLVALUE DUP1 ISZERO PUSH2 0xF JUMPI PUSH0 DUP1 REVERT JUMPDEST POP PUSH1 0x1 PUSH0 DUP2 SWAP1 SSTORE POP PUSH2 0x11D9 DUP1 PUSH2 0x24 PUSH0 CODECOPY PUSH0 RETURN INVALID PUSH1 0x80 PUSH1 0x40 MSTORE CALLVALUE DUP1 ISZERO PUSH2 0xF JUMPI PUSH0 DUP1 REVERT JUMPDEST POP PUSH1 0x4 CALLDATASIZE LT PUSH2 0x4A JUMPI PUSH0 CALLDATALOAD PUSH1 0xE0 SHR DUP1 PUSH4 0x6053E9E5 EQ PUSH2 0x4E JUMPI DUP1 PUSH4 0x89E14E16 EQ PUSH2 0x6A JUMPI DUP1 PUSH4 0x921EECDC EQ PUSH2 0x9D JUMPI DUP1 PUSH4 0x98937047 EQ PUSH2 0xA7 JUMPI JUMPDEST PUSH0 DUP1 REVERT JUMPDEST PUSH2 0x68 PUSH1 0x4 DUP1 CALLDATASIZE SUB DUP2 ADD SWAP1 PUSH2 0x63 SWAP2 SWAP1 PUSH2 0x8BC JUMP JUMPDEST PUSH2 0xC3 JUMP JUMPDEST STOP JUMPDEST PUSH2 0x84 PUSH1 0x4 DUP1 CALLDATASIZE SUB DUP2 ADD SWAP1 PUSH2 0x7F SWAP2 SWAP1 PUSH2 0x994 JUMP JUMPDEST PUSH2 0x383 JUMP JUMPDEST PUSH1 0x40 MLOAD PUSH2 0x94 SWAP5 SWAP4 SWAP3 SWAP2 SWAP1 PUSH2 0xA7B JUMP JUMPDEST PUSH1 0x40 MLOAD DUP1 SWAP2 SUB SWAP1 RETURN JUMPDEST PUSH2 0xA5 PUSH2 0x4C7 JUMP JUMPDEST STOP JUMPDEST PUSH2 0xC1 PUSH1 0x4 DUP1 CALLDATASIZE SUB DUP2 ADD SWAP1 PUSH2 0xBC SWAP2 SWAP1 PUSH2 0x8BC JUMP JUMPDEST PUSH2 0x60A JUMP JUMPDEST STOP JUMPDEST PUSH2 0xCB PUSH2 0x7FD JUMP JUMPDEST PUSH1 0x1 PUSH0 CALLER PUSH20 0xFFFFFFFFFFFFFFFFFFFFFFFFFFFFFFFFFFFFFFFF AND PUSH20 0xFFFFFFFFFFFFFFFFFFFFFFFFFFFFFFFFFFFFFFFF AND DUP2 MSTORE PUSH1 0x20 ADD SWAP1 DUP2 MSTORE PUSH1 0x20 ADD PUSH0 KECCAK256 PUSH1 0x3 ADD PUSH0 SWAP1 SLOAD SWAP1 PUSH2 0x100 EXP SWAP1 DIV PUSH1 0xFF AND ISZERO PUSH2 0x158 JUMPI PUSH1 0x40 MLOAD PUSH32 0x8C379A000000000000000000000000000000000000000000000000000000000 DUP2 MSTORE PUSH1 0x4 ADD PUSH2 0x14F SWAP1 PUSH2 0xB16 JUMP JUMPDEST PUSH1 0x40 MLOAD DUP1 SWAP2 SUB SWAP1 REVERT JUMPDEST PUSH0 DUP5 DUP5 SWAP1 POP GT PUSH2 0x19D JUMPI PUSH1 0x40 MLOAD PUSH32 0x8C379A000000000000000000000000000000000000000000000000000000000 DUP2 MSTORE PUSH1 0x4 ADD PUSH2 0x194 SWAP1 PUSH2 0xB7E JUMP JUMPDEST PUSH1 0x40 MLOAD DUP1 SWAP2 SUB SWAP1 REVERT JUMPDEST PUSH0 DUP3 DUP3 SWAP1 POP GT PUSH2 0x1E2 JUMPI PUSH1 0x40 MLOAD PUSH32 0x8C379A000000000000000000000000000000000000000000000000000000000 DUP2 MSTORE PUSH1 0x4 ADD PUSH2 0x1D9 SWAP1 PUSH2 0xBE6 JUMP JUMPDEST PUSH1 0x40 MLOAD DUP1 SWAP2 SUB SWAP1 REVERT JUMPDEST PUSH1 0x40 MLOAD DUP1 PUSH1 0x80 ADD PUSH1 0x40 MSTORE DUP1 DUP6 DUP6 DUP1 DUP1 PUSH1 0x1F ADD PUSH1 0x20 DUP1 SWAP2 DIV MUL PUSH1 0x20 ADD PUSH1 0x40 MLOAD SWAP1 DUP2 ADD PUSH1 0x40 MSTORE DUP1 SWAP4 SWAP3 SWAP2 SWAP1 DUP2 DUP2 MSTORE PUSH1 0x20 ADD DUP4 DUP4 DUP1 DUP3 DUP5 CALLDATACOPY PUSH0 DUP2 DUP5 ADD MSTORE PUSH1 0x1F NOT PUSH1 0x1F DUP3 ADD AND SWAP1 POP DUP1 DUP4 ADD SWAP3 POP POP POP POP POP POP POP DUP2 MSTORE PUSH1 0x20 ADD DUP4 DUP4 DUP1 DUP1 PUSH1 0x1F ADD PUSH1 0x20 DUP1 SWAP2 DIV MUL PUSH1 0x20 ADD PUSH1 0x40 MLOAD SWAP1 DUP2 ADD PUSH1 0x40 MSTORE DUP1 SWAP4 SWAP3 SWAP2 SWAP1 DUP2 DUP2 MSTORE PUSH1 0x20 ADD DUP4 DUP4 DUP1 DUP3 DUP5 CALLDATACOPY PUSH0 DUP2 DUP5 ADD MSTORE PUSH1 0x1F NOT PUSH1 0x1F DUP3 ADD AND SWAP1 POP DUP1 DUP4 ADD SWAP3 POP POP POP POP POP POP POP DUP2 MSTORE PUSH1 0x20 ADD TIMESTAMP DUP2 MSTORE PUSH1 0x20 ADD PUSH1 0x1 ISZERO ISZERO DUP2 MSTORE POP PUSH1 0x1 PUSH0 CALLER PUSH20 0xFFFFFFFFFFFFFFFFFFFFFFFFFFFFFFFFFFFFFFFF AND PUSH20 0xFFFFFFFFFFFFFFFFFFFFFFFFFFFFFFFFFFFFFFFF AND DUP2 MSTORE PUSH1 0x20 ADD SWAP1 DUP2 MSTORE PUSH1 0x20 ADD PUSH0 KECCAK256 PUSH0 DUP3 ADD MLOAD DUP2 PUSH0 ADD SWAP1 DUP2 PUSH2 0x2DC SWAP2 SWAP1 PUSH2 0xE2B JUMP JUMPDEST POP PUSH1 0x20 DUP3 ADD MLOAD DUP2 PUSH1 0x1 ADD SWAP1 DUP2 PUSH2 0x2F2 SWAP2 SWAP1 PUSH2 0xE2B JUMP JUMPDEST POP PUSH1 0x40 DUP3 ADD MLOAD DUP2 PUSH1 0x2 ADD SSTORE PUSH1 0x60 DUP3 ADD MLOAD DUP2 PUSH1 0x3 ADD PUSH0 PUSH2 0x100 EXP DUP2 SLOAD DUP2 PUSH1 0xFF MUL NOT AND SWAP1 DUP4 ISZERO ISZERO MUL OR SWAP1 SSTORE POP SWAP1 POP POP CALLER PUSH20 0xFFFFFFFFFFFFFFFFFFFFFFFFFFFFFFFFFFFFFFFF AND PUSH32 0x334169E3F29A6403DA0093C1C0920E489EF219944EBB813B15FC804A32ECA7E5 DUP6 DUP6 DUP6 DUP6 TIMESTAMP PUSH1 0x40 MLOAD PUSH2 0x36D SWAP6 SWAP5 SWAP4 SWAP3 SWAP2 SWAP1 PUSH2 0xF34 JUMP JUMPDEST PUSH1 0x40 MLOAD DUP1 SWAP2 SUB SWAP1 LOG2 PUSH2 0x37D PUSH2 0x84A JUMP JUMPDEST POP POP POP POP JUMP JUMPDEST PUSH1 0x1 PUSH1 0x20 MSTORE DUP1 PUSH0 MSTORE PUSH1 0x40 PUSH0 KECCAK256 PUSH0 SWAP2 POP SWAP1 POP DUP1 PUSH0 ADD DUP1 SLOAD PUSH2 0x3A2 SWAP1 PUSH2 0xC5E JUMP JUMPDEST DUP1 PUSH1 0x1F ADD PUSH1 0x20 DUP1 SWAP2 DIV MUL PUSH1 0x20 ADD PUSH1 0x40 MLOAD SWAP1 DUP2 ADD PUSH1 0x40 MSTORE DUP1 SWAP3 SWAP2 SWAP1 DUP2 DUP2 MSTORE PUSH1 0x20 ADD DUP3 DUP1 SLOAD PUSH2 0x3CE SWAP1 PUSH2 0xC5E JUMP JUMPDEST DUP1 ISZERO PUSH2 0x419 JUMPI DUP1 PUSH1 0x1F LT PUSH2 0x3F0 JUMPI PUSH2 0x100 DUP1 DUP4 SLOAD DIV MUL DUP4 MSTORE SWAP2 PUSH1 0x20 ADD SWAP2 PUSH2 0x419 JUMP JUMPDEST DUP3 ADD SWAP2 SWAP1 PUSH0 MSTORE PUSH1 0x20 PUSH0 KECCAK256 SWAP1 JUMPDEST DUP2 SLOAD DUP2 MSTORE SWAP1 PUSH1 0x1 ADD SWAP1 PUSH1 0x20 ADD DUP1 DUP4 GT PUSH2 0x3FC JUMPI DUP3 SWAP1 SUB PUSH1 0x1F AND DUP3 ADD SWAP2 JUMPDEST POP POP POP POP POP SWAP1 DUP1 PUSH1 0x1 ADD DUP1 SLOAD PUSH2 0x42E SWAP1 PUSH2 0xC5E JUMP JUMPDEST DUP1 PUSH1 0x1F ADD PUSH1 0x20 DUP1 SWAP2 DIV MUL PUSH1 0x20 ADD PUSH1 0x40 MLOAD SWAP1 DUP2 ADD PUSH1 0x40 MSTORE DUP1 SWAP3 SWAP2 SWAP1 DUP2 DUP2 MSTORE PUSH1 0x20 ADD DUP3 DUP1 SLOAD PUSH2 0x45A SWAP1 PUSH2 0xC5E JUMP JUMPDEST DUP1 ISZERO PUSH2 0x4A5 JUMPI DUP1 PUSH1 0x1F LT PUSH2 0x47C JUMPI PUSH2 0x100 DUP1 DUP4 SLOAD DIV MUL DUP4 MSTORE SWAP2 PUSH1 0x20 ADD SWAP2 PUSH2 0x4A5 JUMP JUMPDEST DUP3 ADD SWAP2 SWAP1 PUSH0 MSTORE PUSH1 0x20 PUSH0 KECCAK256 SWAP1 JUMPDEST DUP2 SLOAD DUP2 MSTORE SWAP1 PUSH1 0x1 ADD SWAP1 PUSH1 0x20 ADD DUP1 DUP4 GT PUSH2 0x488 JUMPI DUP3 SWAP1 SUB PUSH1 0x1F AND DUP3 ADD SWAP2 JUMPDEST POP POP POP POP POP SWAP1 DUP1 PUSH1 0x2 ADD SLOAD SWAP1 DUP1 PUSH1 0x3 ADD PUSH0 SWAP1 SLOAD SWAP1 PUSH2 0x100 EXP SWAP1 DIV PUSH1 0xFF AND SWAP1 POP DUP5 JUMP JUMPDEST PUSH2 0x4CF PUSH2 0x7FD JUMP JUMPDEST PUSH1 0x1 PUSH0 CALLER PUSH20 0xFFFFFFFFFFFFFFFFFFFFFFFFFFFFFFFFFFFFFFFF AND PUSH20 0xFFFFFFFFFFFFFFFFFFFFFFFFFFFFFFFFFFFFFFFF AND DUP2 MSTORE PUSH1 0x20 ADD SWAP1 DUP2 MSTORE PUSH1 0x20 ADD PUSH0 KECCAK256 PUSH1 0x3 ADD PUSH0 SWAP1 SLOAD SWAP1 PUSH2 0x100 EXP SWAP1 DIV PUSH1 0xFF AND PUSH2 0x55B JUMPI PUSH1 0x40 MLOAD PUSH32 0x8C379A000000000000000000000000000000000000000000000000000000000 DUP2 MSTORE PUSH1 0x4 ADD PUSH2 0x552 SWAP1 PUSH2 0xFC5 JUMP JUMPDEST PUSH1 0x40 MLOAD DUP1 SWAP2 SUB SWAP1 REVERT JUMPDEST PUSH0 PUSH1 0x1 PUSH0 CALLER PUSH20 0xFFFFFFFFFFFFFFFFFFFFFFFFFFFFFFFFFFFFFFFF AND PUSH20 0xFFFFFFFFFFFFFFFFFFFFFFFFFFFFFFFFFFFFFFFF AND DUP2 MSTORE PUSH1 0x20 ADD SWAP1 DUP2 MSTORE PUSH1 0x20 ADD PUSH0 KECCAK256 PUSH1 0x3 ADD PUSH0 PUSH2 0x100 EXP DUP2 SLOAD DUP2 PUSH1 0xFF MUL NOT AND SWAP1 DUP4 ISZERO ISZERO MUL OR SWAP1 SSTORE POP CALLER PUSH20 0xFFFFFFFFFFFFFFFFFFFFFFFFFFFFFFFFFFFFFFFF AND PUSH32 0xEC39295276A9BFE8318D16B06780FD42FB6EC9BFFC66BA99908B57AB79EE63C0 TIMESTAMP PUSH1 0x40 MLOAD PUSH2 0x5F8 SWAP2 SWAP1 PUSH2 0xFE3 JUMP JUMPDEST PUSH1 0x40 MLOAD DUP1 SWAP2 SUB SWAP1 LOG2 PUSH2 0x608 PUSH2 0x84A JUMP JUMPDEST JUMP JUMPDEST PUSH2 0x612 PUSH2 0x7FD JUMP JUMPDEST PUSH1 0x1 PUSH0 CALLER PUSH20 0xFFFFFFFFFFFFFFFFFFFFFFFFFFFFFFFFFFFFFFFF AND PUSH20 0xFFFFFFFFFFFFFFFFFFFFFFFFFFFFFFFFFFFFFFFF AND DUP2 MSTORE PUSH1 0x20 ADD SWAP1 DUP2 MSTORE PUSH1 0x20 ADD PUSH0 KECCAK256 PUSH1 0x3 ADD PUSH0 SWAP1 SLOAD SWAP1 PUSH2 0x100 EXP SWAP1 DIV PUSH1 0xFF AND PUSH2 0x69E JUMPI PUSH1 0x40 MLOAD PUSH32 0x8C379A000000000000000000000000000000000000000000000000000000000 DUP2 MSTORE PUSH1 0x4 ADD PUSH2 0x695 SWAP1 PUSH2 0x1046 JUMP JUMPDEST PUSH1 0x40 MLOAD DUP1 SWAP2 SUB SWAP1 REVERT JUMPDEST PUSH0 DUP5 DUP5 SWAP1 POP GT PUSH2 0x6E3 JUMPI PUSH1 0x40 MLOAD PUSH32 0x8C379A000000000000000000000000000000000000000000000000000000000 DUP2 MSTORE PUSH1 0x4 ADD PUSH2 0x6DA SWAP1 PUSH2 0xB7E JUMP JUMPDEST PUSH1 0x40 MLOAD DUP1 SWAP2 SUB SWAP1 REVERT JUMPDEST PUSH0 DUP3 DUP3 SWAP1 POP GT PUSH2 0x728 JUMPI PUSH1 0x40 MLOAD PUSH32 0x8C379A000000000000000000000000000000000000000000000000000000000 DUP2 MSTORE PUSH1 0x4 ADD PUSH2 0x71F SWAP1 PUSH2 0xBE6 JUMP JUMPDEST PUSH1 0x40 MLOAD DUP1 SWAP2 SUB SWAP1 REVERT JUMPDEST PUSH0 PUSH1 0x1 PUSH0 CALLER PUSH20 0xFFFFFFFFFFFFFFFFFFFFFFFFFFFFFFFFFFFFFFFF AND PUSH20 0xFFFFFFFFFFFFFFFFFFFFFFFFFFFFFFFFFFFFFFFF AND DUP2 MSTORE PUSH1 0x20 ADD SWAP1 DUP2 MSTORE PUSH1 0x20 ADD PUSH0 KECCAK256 SWAP1 POP DUP5 DUP5 DUP3 PUSH0 ADD SWAP2 DUP3 PUSH2 0x77A SWAP3 SWAP2 SWAP1 PUSH2 0x106E JUMP JUMPDEST POP DUP3 DUP3 DUP3 PUSH1 0x1 ADD SWAP2 DUP3 PUSH2 0x78E SWAP3 SWAP2 SWAP1 PUSH2 0x106E JUMP JUMPDEST POP TIMESTAMP DUP2 PUSH1 0x2 ADD DUP2 SWAP1 SSTORE POP CALLER PUSH20 0xFFFFFFFFFFFFFFFFFFFFFFFFFFFFFFFFFFFFFFFF AND PUSH32 0xEAB8C4F9F868EA37D0813163636940F1CD4D12D87B469A2E7442B72DBEFF7D1A DUP7 DUP7 DUP7 DUP7 TIMESTAMP PUSH1 0x40 MLOAD PUSH2 0x7E6 SWAP6 SWAP5 SWAP4 SWAP3 SWAP2 SWAP1 PUSH2 0xF34 JUMP JUMPDEST PUSH1 0x40 MLOAD DUP1 SWAP2 SUB SWAP1 LOG2 POP PUSH2 0x7F7 PUSH2 0x84A JUMP JUMPDEST POP POP POP POP JUMP JUMPDEST PUSH1 0x2 PUSH0 SLOAD SUB PUSH2 0x841 JUMPI PUSH1 0x40 MLOAD PUSH32 0x8C379A000000000000000000000000000000000000000000000000000000000 DUP2 MSTORE PUSH1 0x4 ADD PUSH2 0x838 SWAP1 PUSH2 0x1185 JUMP JUMPDEST PUSH1 0x40 MLOAD DUP1 SWAP2 SUB SWAP1 REVERT JUMPDEST PUSH1 0x2 PUSH0 DUP2 SWAP1 SSTORE POP JUMP JUMPDEST PUSH1 0x1 PUSH0 DUP2 SWAP1 SSTORE POP JUMP JUMPDEST PUSH0 DUP1 REVERT JUMPDEST PUSH0 DUP1 REVERT JUMPDEST PUSH0 DUP1 REVERT JUMPDEST PUSH0 DUP1 REVERT JUMPDEST PUSH0 DUP1 REVERT JUMPDEST PUSH0 DUP1 DUP4 PUSH1 0x1F DUP5 ADD SLT PUSH2 0x87C JUMPI PUSH2 0x87B PUSH2 0x85B JUMP JUMPDEST JUMPDEST DUP3 CALLDATALOAD SWAP1 POP PUSH8 0xFFFFFFFFFFFFFFFF DUP2 GT ISZERO PUSH2 0x899 JUMPI PUSH2 0x898 PUSH2 0x85F JUMP JUMPDEST JUMPDEST PUSH1 0x20 DUP4 ADD SWAP2 POP DUP4 PUSH1 0x1 DUP3 MUL DUP4 ADD GT ISZERO PUSH2 0x8B5 JUMPI PUSH2 0x8B4 PUSH2 0x863 JUMP JUMPDEST JUMPDEST SWAP3 POP SWAP3 SWAP1 POP JUMP JUMPDEST PUSH0 DUP1 PUSH0 DUP1 PUSH1 0x40 DUP6 DUP8 SUB SLT ISZERO PUSH2 0x8D4 JUMPI PUSH2 0x8D3 PUSH2 0x853 JUMP JUMPDEST JUMPDEST PUSH0 DUP6 ADD CALLDATALOAD PUSH8 0xFFFFFFFFFFFFFFFF DUP2 GT ISZERO PUSH2 0x8F1 JUMPI PUSH2 0x8F0 PUSH2 0x857 JUMP JUMPDEST JUMPDEST PUSH2 0x8FD DUP8 DUP3 DUP9 ADD PUSH2 0x867 JUMP JUMPDEST SWAP5 POP SWAP5 POP POP PUSH1 0x20 DUP6 ADD CALLDATALOAD PUSH8 0xFFFFFFFFFFFFFFFF DUP2 GT ISZERO PUSH2 0x920 JUMPI PUSH2 0x91F PUSH2 0x857 JUMP JUMPDEST JUMPDEST PUSH2 0x92C DUP8 DUP3 DUP9 ADD PUSH2 0x867 JUMP JUMPDEST SWAP3 POP SWAP3 POP POP SWAP3 SWAP6 SWAP2 SWAP5 POP SWAP3 POP JUMP JUMPDEST PUSH0 PUSH20 0xFFFFFFFFFFFFFFFFFFFFFFFFFFFFFFFFFFFFFFFF DUP3 AND SWAP1 POP SWAP2 SWAP1 POP JUMP JUMPDEST PUSH0 PUSH2 0x963 DUP3 PUSH2 0x93A JUMP JUMPDEST SWAP1 POP SWAP2 SWAP1 POP JUMP JUMPDEST PUSH2 0x973 DUP2 PUSH2 0x959 JUMP JUMPDEST DUP2 EQ PUSH2 0x97D JUMPI PUSH0 DUP1 REVERT JUMPDEST POP JUMP JUMPDEST PUSH0 DUP2 CALLDATALOAD SWAP1 POP PUSH2 0x98E DUP2 PUSH2 0x96A JUMP JUMPDEST SWAP3 SWAP2 POP POP JUMP JUMPDEST PUSH0 PUSH1 0x20 DUP3 DUP5 SUB SLT ISZERO PUSH2 0x9A9 JUMPI PUSH2 0x9A8 PUSH2 0x853 JUMP JUMPDEST JUMPDEST PUSH0 PUSH2 0x9B6 DUP5 DUP3 DUP6 ADD PUSH2 0x980 JUMP JUMPDEST SWAP2 POP POP SWAP3 SWAP2 POP POP JUMP JUMPDEST PUSH0 DUP2 MLOAD SWAP1 POP SWAP2 SWAP1 POP JUMP JUMPDEST PUSH0 DUP3 DUP3 MSTORE PUSH1 0x20 DUP3 ADD SWAP1 POP SWAP3 SWAP2 POP POP JUMP JUMPDEST PUSH0 JUMPDEST DUP4 DUP2 LT ISZERO PUSH2 0x9F6 JUMPI DUP1 DUP3 ADD MLOAD DUP2 DUP5 ADD MSTORE PUSH1 0x20 DUP2 ADD SWAP1 POP PUSH2 0x9DB JUMP JUMPDEST PUSH0 DUP5 DUP5 ADD MSTORE POP POP POP POP JUMP JUMPDEST PUSH0 PUSH1 0x1F NOT PUSH1 0x1F DUP4 ADD AND SWAP1 POP SWAP2 SWAP1 POP JUMP JUMPDEST PUSH0 PUSH2 0xA1B DUP3 PUSH2 0x9BF JUMP JUMPDEST PUSH2 0xA25 DUP2 DUP6 PUSH2 0x9C9 JUMP JUMPDEST SWAP4 POP PUSH2 0xA35 DUP2 DUP6 PUSH1 0x20 DUP7 ADD PUSH2 0x9D9 JUMP JUMPDEST PUSH2 0xA3E DUP2 PUSH2 0xA01 JUMP JUMPDEST DUP5 ADD SWAP2 POP POP SWAP3 SWAP2 POP POP JUMP JUMPDEST PUSH0 DUP2 SWAP1 POP SWAP2 SWAP1 POP JUMP JUMPDEST PUSH2 0xA5B DUP2 PUSH2 0xA49 JUMP JUMPDEST DUP3 MSTORE POP POP JUMP JUMPDEST PUSH0 DUP2 ISZERO ISZERO SWAP1 POP SWAP2 SWAP1 POP JUMP JUMPDEST PUSH2 0xA75 DUP2 PUSH2 0xA61 JUMP JUMPDEST DUP3 MSTORE POP POP JUMP JUMPDEST PUSH0 PUSH1 0x80 DUP3 ADD SWAP1 POP DUP2 DUP2 SUB PUSH0 DUP4 ADD MSTORE PUSH2 0xA93 DUP2 DUP8 PUSH2 0xA11 JUMP JUMPDEST SWAP1 POP DUP2 DUP2 SUB PUSH1 0x20 DUP4 ADD MSTORE PUSH2 0xAA7 DUP2 DUP7 PUSH2 0xA11 JUMP JUMPDEST SWAP1 POP PUSH2 0xAB6 PUSH1 0x40 DUP4 ADD DUP6 PUSH2 0xA52 JUMP JUMPDEST PUSH2 0xAC3 PUSH1 0x60 DUP4 ADD DUP5 PUSH2 0xA6C JUMP JUMPDEST SWAP6 SWAP5 POP POP POP POP POP JUMP JUMPDEST PUSH32 0x5375626D697373696F6E20616C72656164792065786973747300000000000000 PUSH0 DUP3 ADD MSTORE POP JUMP JUMPDEST PUSH0 PUSH2 0xB00 PUSH1 0x19 DUP4 PUSH2 0x9C9 JUMP JUMPDEST SWAP2 POP PUSH2 0xB0B DUP3 PUSH2 0xACC JUMP JUMPDEST PUSH1 0x20 DUP3 ADD SWAP1 POP SWAP2 SWAP1 POP JUMP JUMPDEST PUSH0 PUSH1 0x20 DUP3 ADD SWAP1 POP DUP2 DUP2 SUB PUSH0 DUP4 ADD MSTORE PUSH2 0xB2D DUP2 PUSH2 0xAF4 JUMP JUMPDEST SWAP1 POP SWAP2 SWAP1 POP JUMP JUMPDEST PUSH32 0x55524C2063616E6E6F7420626520656D70747900000000000000000000000000 PUSH0 DUP3 ADD MSTORE POP JUMP JUMPDEST PUSH0 PUSH2 0xB68 PUSH1 0x13 DUP4 PUSH2 0x9C9 JUMP JUMPDEST SWAP2 POP PUSH2 0xB73 DUP3 PUSH2 0xB34 JUMP JUMPDEST PUSH1 0x20 DUP3 ADD SWAP1 POP SWAP2 SWAP1 POP JUMP JUMPDEST PUSH0 PUSH1 0x20 DUP3 ADD SWAP1 POP DUP2 DUP2 SUB PUSH0 DUP4 ADD MSTORE PUSH2 0xB95 DUP2 PUSH2 0xB5C JUMP JUMPDEST SWAP1 POP SWAP2 SWAP1 POP JUMP JUMPDEST PUSH32 0x4E6F74652063616E6E6F7420626520656D707479000000000000000000000000 PUSH0 DUP3 ADD MSTORE POP JUMP JUMPDEST PUSH0 PUSH2 0xBD0 PUSH1 0x14 DUP4 PUSH2 0x9C9 JUMP JUMPDEST SWAP2 POP PUSH2 0xBDB DUP3 PUSH2 0xB9C JUMP JUMPDEST PUSH1 0x20 DUP3 ADD SWAP1 POP SWAP2 SWAP1 POP JUMP JUMPDEST PUSH0 PUSH1 0x20 DUP3 ADD SWAP1 POP DUP2 DUP2 SUB PUSH0 DUP4 ADD MSTORE PUSH2 0xBFD DUP2 PUSH2 0xBC4 JUMP JUMPDEST SWAP1 POP SWAP2 SWAP1 POP JUMP JUMPDEST PUSH32 0x4E487B7100000000000000000000000000000000000000000000000000000000 PUSH0 MSTORE PUSH1 0x41 PUSH1 0x4 MSTORE PUSH1 0x24 PUSH0 REVERT JUMPDEST PUSH32 0x4E487B7100000000000000000000000000000000000000000000000000000000 PUSH0 MSTORE PUSH1 0x22 PUSH1 0x4 MSTORE PUSH1 0x24 PUSH0 REVERT JUMPDEST PUSH0 PUSH1 0x2 DUP3 DIV SWAP1 POP PUSH1 0x1 DUP3 AND DUP1 PUSH2 0xC75 JUMPI PUSH1 0x7F DUP3 AND SWAP2 POP JUMPDEST PUSH1 0x20 DUP3 LT DUP2 SUB PUSH2 0xC88 JUMPI PUSH2 0xC87 PUSH2 0xC31 JUMP JUMPDEST JUMPDEST POP SWAP2 SWAP1 POP JUMP JUMPDEST PUSH0 DUP2 SWAP1 POP DUP2 PUSH0 MSTORE PUSH1 0x20 PUSH0 KECCAK256 SWAP1 POP SWAP2 SWAP1 POP JUMP JUMPDEST PUSH0 PUSH1 0x20 PUSH1 0x1F DUP4 ADD DIV SWAP1 POP SWAP2 SWAP1 POP JUMP JUMPDEST PUSH0 DUP3 DUP3 SHL SWAP1 POP SWAP3 SWAP2 POP POP JUMP JUMPDEST PUSH0 PUSH1 0x8 DUP4 MUL PUSH2 0xCEA PUSH32 0xFFFFFFFFFFFFFFFFFFFFFFFFFFFFFFFFFFFFFFFFFFFFFFFFFFFFFFFFFFFFFFFF DUP3 PUSH2 0xCAF JUMP JUMPDEST PUSH2 0xCF4 DUP7 DUP4 PUSH2 0xCAF JUMP JUMPDEST SWAP6 POP DUP1 NOT DUP5 AND SWAP4 POP DUP1 DUP7 AND DUP5 OR SWAP3 POP POP POP SWAP4 SWAP3 POP POP POP JUMP JUMPDEST PUSH0 DUP2 SWAP1 POP SWAP2 SWAP1 POP JUMP JUMPDEST PUSH0 PUSH2 0xD2F PUSH2 0xD2A PUSH2 0xD25 DUP5 PUSH2 0xA49 JUMP JUMPDEST PUSH2 0xD0C JUMP JUMPDEST PUSH2 0xA49 JUMP JUMPDEST SWAP1 POP SWAP2 SWAP1 POP JUMP JUMPDEST PUSH0 DUP2 SWAP1 POP SWAP2 SWAP1 POP JUMP JUMPDEST PUSH2 0xD48 DUP4 PUSH2 0xD15 JUMP JUMPDEST PUSH2 0xD5C PUSH2 0xD54 DUP3 PUSH2 0xD36 JUMP JUMPDEST DUP5 DUP5 SLOAD PUSH2 0xCBB JUMP JUMPDEST DUP3 SSTORE POP POP POP POP JUMP JUMPDEST PUSH0 SWAP1 JUMP JUMPDEST PUSH2 0xD70 PUSH2 0xD64 JUMP JUMPDEST PUSH2 0xD7B DUP2 DUP5 DUP5 PUSH2 0xD3F JUMP JUMPDEST POP POP POP JUMP JUMPDEST JUMPDEST DUP2 DUP2 LT ISZERO PUSH2 0xD9E JUMPI PUSH2 0xD93 PUSH0 DUP3 PUSH2 0xD68 JUMP JUMPDEST PUSH1 0x1 DUP2 ADD SWAP1 POP PUSH2 0xD81 JUMP JUMPDEST POP POP JUMP JUMPDEST PUSH1 0x1F DUP3 GT ISZERO PUSH2 0xDE3 JUMPI PUSH2 0xDB4 DUP2 PUSH2 0xC8E JUMP JUMPDEST PUSH2 0xDBD DUP5 PUSH2 0xCA0 JUMP JUMPDEST DUP2 ADD PUSH1 0x20 DUP6 LT ISZERO PUSH2 0xDCC JUMPI DUP2 SWAP1 POP JUMPDEST PUSH2 0xDE0 PUSH2 0xDD8 DUP6 PUSH2 0xCA0 JUMP JUMPDEST DUP4 ADD DUP3 PUSH2 0xD80 JUMP JUMPDEST POP POP JUMPDEST POP POP POP JUMP JUMPDEST PUSH0 DUP3 DUP3 SHR SWAP1 POP SWAP3 SWAP2 POP POP JUMP JUMPDEST PUSH0 PUSH2 0xE03 PUSH0 NOT DUP5 PUSH1 0x8 MUL PUSH2 0xDE8 JUMP JUMPDEST NOT DUP1 DUP4 AND SWAP2 POP POP SWAP3 SWAP2 POP POP JUMP JUMPDEST PUSH0 PUSH2 0xE1B DUP4 DUP4 PUSH2 0xDF4 JUMP JUMPDEST SWAP2 POP DUP3 PUSH1 0x2 MUL DUP3 OR SWAP1 POP SWAP3 SWAP2 POP POP JUMP JUMPDEST PUSH2 0xE34 DUP3 PUSH2 0x9BF JUMP JUMPDEST PUSH8 0xFFFFFFFFFFFFFFFF DUP2 GT ISZERO PUSH2 0xE4D JUMPI PUSH2 0xE4C PUSH2 0xC04 JUMP JUMPDEST JUMPDEST PUSH2 0xE57 DUP3 SLOAD PUSH2 0xC5E JUMP JUMPDEST PUSH2 0xE62 DUP3 DUP3 DUP6 PUSH2 0xDA2 JUMP JUMPDEST PUSH0 PUSH1 0x20 SWAP1 POP PUSH1 0x1F DUP4 GT PUSH1 0x1 DUP2 EQ PUSH2 0xE93 JUMPI PUSH0 DUP5 ISZERO PUSH2 0xE81 JUMPI DUP3 DUP8 ADD MLOAD SWAP1 POP JUMPDEST PUSH2 0xE8B DUP6 DUP3 PUSH2 0xE10 JUMP JUMPDEST DUP7 SSTORE POP PUSH2 0xEF2 JUMP JUMPDEST PUSH1 0x1F NOT DUP5 AND PUSH2 0xEA1 DUP7 PUSH2 0xC8E JUMP JUMPDEST PUSH0 JUMPDEST DUP3 DUP2 LT ISZERO PUSH2 0xEC8 JUMPI DUP5 DUP10 ADD MLOAD DUP3 SSTORE PUSH1 0x1 DUP3 ADD SWAP2 POP PUSH1 0x20 DUP6 ADD SWAP5 POP PUSH1 0x20 DUP2 ADD SWAP1 POP PUSH2 0xEA3 JUMP JUMPDEST DUP7 DUP4 LT ISZERO PUSH2 0xEE5 JUMPI DUP5 DUP10 ADD MLOAD PUSH2 0xEE1 PUSH1 0x1F DUP10 AND DUP3 PUSH2 0xDF4 JUMP JUMPDEST DUP4 SSTORE POP JUMPDEST PUSH1 0x1 PUSH1 0x2 DUP9 MUL ADD DUP9 SSTORE POP POP POP JUMPDEST POP POP POP POP POP POP JUMP JUMPDEST DUP3 DUP2 DUP4 CALLDATACOPY PUSH0 DUP4 DUP4 ADD MSTORE POP POP POP JUMP JUMPDEST PUSH0 PUSH2 0xF13 DUP4 DUP6 PUSH2 0x9C9 JUMP JUMPDEST SWAP4 POP PUSH2 0xF20 DUP4 DUP6 DUP5 PUSH2 0xEFA JUMP JUMPDEST PUSH2 0xF29 DUP4 PUSH2 0xA01 JUMP JUMPDEST DUP5 ADD SWAP1 POP SWAP4 SWAP3 POP POP POP JUMP JUMPDEST PUSH0 PUSH1 0x60 DUP3 ADD SWAP1 POP DUP2 DUP2 SUB PUSH0 DUP4 ADD MSTORE PUSH2 0xF4D DUP2 DUP8 DUP10 PUSH2 0xF08 JUMP JUMPDEST SWAP1 POP DUP2 DUP2 SUB PUSH1 0x20 DUP4 ADD MSTORE PUSH2 0xF62 DUP2 DUP6 DUP8 PUSH2 0xF08 JUMP JUMPDEST SWAP1 POP PUSH2 0xF71 PUSH1 0x40 DUP4 ADD DUP5 PUSH2 0xA52 JUMP JUMPDEST SWAP7 SWAP6 POP POP POP POP POP POP JUMP JUMPDEST PUSH32 0x4E6F20616374697665207375626D697373696F6E20746F2072656D6F76650000 PUSH0 DUP3 ADD MSTORE POP JUMP JUMPDEST PUSH0 PUSH2 0xFAF PUSH1 0x1E DUP4 PUSH2 0x9C9 JUMP JUMPDEST SWAP2 POP PUSH2 0xFBA DUP3 PUSH2 0xF7B JUMP JUMPDEST PUSH1 0x20 DUP3 ADD SWAP1 POP SWAP2 SWAP1 POP JUMP JUMPDEST PUSH0 PUSH1 0x20 DUP3 ADD SWAP1 POP DUP2 DUP2 SUB PUSH0 DUP4 ADD MSTORE PUSH2 0xFDC DUP2 PUSH2 0xFA3 JUMP JUMPDEST SWAP1 POP SWAP2 SWAP1 POP JUMP JUMPDEST PUSH0 PUSH1 0x20 DUP3 ADD SWAP1 POP PUSH2 0xFF6 PUSH0 DUP4 ADD DUP5 PUSH2 0xA52 JUMP JUMPDEST SWAP3 SWAP2 POP POP JUMP JUMPDEST PUSH32 0x4E6F20616374697665207375626D697373696F6E20746F207570646174650000 PUSH0 DUP3 ADD MSTORE POP JUMP JUMPDEST PUSH0 PUSH2 0x1030 PUSH1 0x1E DUP4 PUSH2 0x9C9 JUMP JUMPDEST SWAP2 POP PUSH2 0x103B DUP3 PUSH2 0xFFC JUMP JUMPDEST PUSH1 0x20 DUP3 ADD SWAP1 POP SWAP2 SWAP1 POP JUMP JUMPDEST PUSH0 PUSH1 0x20 DUP3 ADD SWAP1 POP DUP2 DUP2 SUB PUSH0 DUP4 ADD MSTORE PUSH2 0x105D DUP2 PUSH2 0x1024 JUMP JUMPDEST SWAP1 POP SWAP2 SWAP1 POP JUMP JUMPDEST PUSH0 DUP3 SWAP1 POP SWAP3 SWAP2 POP POP JUMP JUMPDEST PUSH2 0x1078 DUP4 DUP4 PUSH2 0x1064 JUMP JUMPDEST PUSH8 0xFFFFFFFFFFFFFFFF DUP2 GT ISZERO PUSH2 0x1091 JUMPI PUSH2 0x1090 PUSH2 0xC04 JUMP JUMPDEST JUMPDEST PUSH2 0x109B DUP3 SLOAD PUSH2 0xC5E JUMP JUMPDEST PUSH2 0x10A6 DUP3 DUP3 DUP6 PUSH2 0xDA2 JUMP JUMPDEST PUSH0 PUSH1 0x1F DUP4 GT PUSH1 0x1 DUP2 EQ PUSH2 0x10D3 JUMPI PUSH0 DUP5 ISZERO PUSH2 0x10C1 JUMPI DUP3 DUP8 ADD CALLDATALOAD SWAP1 POP JUMPDEST PUSH2 0x10CB DUP6 DUP3 PUSH2 0xE10 JUMP JUMPDEST DUP7 SSTORE POP PUSH2 0x1132 JUMP JUMPDEST PUSH1 0x1F NOT DUP5 AND PUSH2 0x10E1 DUP7 PUSH2 0xC8E JUMP JUMPDEST PUSH0 JUMPDEST DUP3 DUP2 LT ISZERO PUSH2 0x1108 JUMPI DUP5 DUP10 ADD CALLDATALOAD DUP3 SSTORE PUSH1 0x1 DUP3 ADD SWAP2 POP PUSH1 0x20 DUP6 ADD SWAP5 POP PUSH1 0x20 DUP2 ADD SWAP1 POP PUSH2 0x10E3 JUMP JUMPDEST DUP7 DUP4 LT ISZERO PUSH2 0x1125 JUMPI DUP5 DUP10 ADD CALLDATALOAD PUSH2 0x1121 PUSH1 0x1F DUP10 AND DUP3 PUSH2 0xDF4 JUMP JUMPDEST DUP4 SSTORE POP JUMPDEST PUSH1 0x1 PUSH1 0x2 DUP9 MUL ADD DUP9 SSTORE POP POP POP JUMPDEST POP POP POP POP POP POP POP JUMP JUMPDEST PUSH32 0x5265656E7472616E637947756172643A207265656E7472616E742063616C6C00 PUSH0 DUP3 ADD MSTORE POP JUMP JUMPDEST PUSH0 PUSH2 0x116F PUSH1 0x1F DUP4 PUSH2 0x9C9 JUMP JUMPDEST SWAP2 POP PUSH2 0x117A DUP3 PUSH2 0x113B JUMP JUMPDEST PUSH1 0x20 DUP3 ADD SWAP1 POP SWAP2 SWAP1 POP JUMP JUMPDEST PUSH0 PUSH1 0x20 DUP3 ADD SWAP1 POP DUP2 DUP2 SUB PUSH0 DUP4 ADD MSTORE PUSH2 0x119C DUP2 PUSH2 0x1163 JUMP JUMPDEST SWAP1 POP SWAP2 SWAP1 POP JUMP INVALID LOG2 PUSH5 0x6970667358 0x22 SLT KECCAK256 BLOCKHASH SWAP15 0xE 0xD9 0xE 0xE4 DUP4 MUL 0x22 GASLIMIT 0xE1 0xC6 LOG2 0xE9 0x26 TIMESTAMP SWAP12 0x4B LT PUSH18 0xF8BEBD22223CAC910EF41DDD64736F6C6343 STOP ADDMOD EQ STOP CALLER "
				},
				"gasEstimates": {
					"creation": {
						"codeDepositCost": "913800",
						"executionCost": "23059",
						"totalCost": "936859"
					},
					"external": {
						"createSubmission(string,string)": "infinite",
						"removeSubmission()": "74734",
						"submissions(address)": "infinite",
						"updateSubmission(string,string)": "infinite"
					}
				},
				"methodIdentifiers": {
					"createSubmission(string,string)": "6053e9e5",
					"removeSubmission()": "921eecdc",
					"submissions(address)": "89e14e16",
					"updateSubmission(string,string)": "98937047"
				}
			},
			"storageLayout": {
				"storage": [
					{
						"astId": 10,
						"contract": "D/dyor.sol:DYORRegistry",
						"label": "_status",
						"offset": 0,
						"slot": "0",
						"type": "t_uint256"
					},
					{
						"astId": 86,
						"contract": "D/dyor.sol:DYORRegistry",
						"label": "submissions",
						"offset": 0,
						"slot": "1",
						"type": "t_mapping(t_address,t_struct(ResearchSubmission)80_storage)"
					}
				],
				"types": {
					"t_address": {
						"encoding": "inplace",
						"label": "address",
						"numberOfBytes": "20"
					},
					"t_bool": {
						"encoding": "inplace",
						"label": "bool",
						"numberOfBytes": "1"
					},
					"t_mapping(t_address,t_struct(ResearchSubmission)80_storage)": {
						"encoding": "mapping",
						"key": "t_address",
						"label": "mapping(address => struct DYORRegistry.ResearchSubmission)",
						"numberOfBytes": "32",
						"value": "t_struct(ResearchSubmission)80_storage"
					},
					"t_string_storage": {
						"encoding": "bytes",
						"label": "string",
						"numberOfBytes": "32"
					},
					"t_struct(ResearchSubmission)80_storage": {
						"encoding": "inplace",
						"label": "struct DYORRegistry.ResearchSubmission",
						"members": [
							{
								"astId": 73,
								"contract": "D/dyor.sol:DYORRegistry",
								"label": "url",
								"offset": 0,
								"slot": "0",
								"type": "t_string_storage"
							},
							{
								"astId": 75,
								"contract": "D/dyor.sol:DYORRegistry",
								"label": "note",
								"offset": 0,
								"slot": "1",
								"type": "t_string_storage"
							},
							{
								"astId": 77,
								"contract": "D/dyor.sol:DYORRegistry",
								"label": "timestamp",
								"offset": 0,
								"slot": "2",
								"type": "t_uint256"
							},
							{
								"astId": 79,
								"contract": "D/dyor.sol:DYORRegistry",
								"label": "active",
								"offset": 0,
								"slot": "3",
								"type": "t_bool"
							}
						],
						"numberOfBytes": "128"
					},
					"t_uint256": {
						"encoding": "inplace",
						"label": "uint256",
						"numberOfBytes": "32"
					}
				}
			},
			"userdoc": {
				"kind": "user",
				"methods": {
					"createSubmission(string,string)": {
						"notice": "Creates a new research submission."
					},
					"removeSubmission()": {
						"notice": "Removes (deactivates) the caller's research submission."
					},
					"submissions(address)": {
						"notice": "Mapping from user address to their research submission."
					},
					"updateSubmission(string,string)": {
						"notice": "Updates an existing research submission."
					}
				},
				"notice": "A dynamic and optimized registry for \"Do Your Own Research\" submissions. Users can record their research by submitting a URL (or IPFS hash) along with a note, update their submission, or remove it if desired.",
				"version": 1
			}
		}
	}
}