{
	"D/diversifiedProofOfStake.sol": {
		"DiversifiedProofOfStake": {
			"abi": [
				{
					"inputs": [],
					"stateMutability": "nonpayable",
					"type": "constructor"
				},
				{
					"inputs": [
						{
							"internalType": "address",
							"name": "owner",
							"type": "address"
						}
					],
					"name": "OwnableInvalidOwner",
					"type": "error"
				},
				{
					"inputs": [
						{
							"internalType": "address",
							"name": "account",
							"type": "address"
						}
					],
					"name": "OwnableUnauthorizedAccount",
					"type": "error"
				},
				{
					"anonymous": false,
					"inputs": [
						{
							"indexed": true,
							"internalType": "address",
							"name": "previousOwner",
							"type": "address"
						},
						{
							"indexed": true,
							"internalType": "address",
							"name": "newOwner",
							"type": "address"
						}
					],
					"name": "OwnershipTransferred",
					"type": "event"
				},
				{
					"anonymous": false,
					"inputs": [
						{
							"indexed": true,
							"internalType": "address",
							"name": "user",
							"type": "address"
						},
						{
							"indexed": true,
							"internalType": "address",
							"name": "token",
							"type": "address"
						},
						{
							"indexed": false,
							"internalType": "uint256",
							"name": "amount",
							"type": "uint256"
						}
					],
					"name": "Staked",
					"type": "event"
				},
				{
					"anonymous": false,
					"inputs": [
						{
							"indexed": true,
							"internalType": "address",
							"name": "token",
							"type": "address"
						},
						{
							"indexed": false,
							"internalType": "uint256",
							"name": "weightBps",
							"type": "uint256"
						}
					],
					"name": "TokenAdded",
					"type": "event"
				},
				{
					"anonymous": false,
					"inputs": [
						{
							"indexed": true,
							"internalType": "address",
							"name": "token",
							"type": "address"
						}
					],
					"name": "TokenRemoved",
					"type": "event"
				},
				{
					"anonymous": false,
					"inputs": [
						{
							"indexed": true,
							"internalType": "address",
							"name": "token",
							"type": "address"
						},
						{
							"indexed": false,
							"internalType": "uint256",
							"name": "newWeightBps",
							"type": "uint256"
						}
					],
					"name": "TokenUpdated",
					"type": "event"
				},
				{
					"anonymous": false,
					"inputs": [
						{
							"indexed": true,
							"internalType": "address",
							"name": "user",
							"type": "address"
						},
						{
							"indexed": true,
							"internalType": "address",
							"name": "token",
							"type": "address"
						},
						{
							"indexed": false,
							"internalType": "uint256",
							"name": "amount",
							"type": "uint256"
						}
					],
					"name": "Unstaked",
					"type": "event"
				},
				{
					"inputs": [
						{
							"internalType": "address",
							"name": "token",
							"type": "address"
						},
						{
							"internalType": "uint256",
							"name": "weightBps",
							"type": "uint256"
						}
					],
					"name": "addStakeToken",
					"outputs": [],
					"stateMutability": "nonpayable",
					"type": "function"
				},
				{
					"inputs": [
						{
							"internalType": "uint256",
							"name": "index",
							"type": "uint256"
						}
					],
					"name": "getStakeToken",
					"outputs": [
						{
							"components": [
								{
									"internalType": "address",
									"name": "token",
									"type": "address"
								},
								{
									"internalType": "uint256",
									"name": "weightBps",
									"type": "uint256"
								},
								{
									"internalType": "bool",
									"name": "active",
									"type": "bool"
								}
							],
							"internalType": "struct DiversifiedProofOfStake.StakeToken",
							"name": "",
							"type": "tuple"
						}
					],
					"stateMutability": "view",
					"type": "function"
				},
				{
					"inputs": [
						{
							"internalType": "address",
							"name": "user",
							"type": "address"
						}
					],
					"name": "getUserVotingPower",
					"outputs": [
						{
							"internalType": "uint256",
							"name": "totalVotingPower",
							"type": "uint256"
						}
					],
					"stateMutability": "view",
					"type": "function"
				},
				{
					"inputs": [],
					"name": "owner",
					"outputs": [
						{
							"internalType": "address",
							"name": "",
							"type": "address"
						}
					],
					"stateMutability": "view",
					"type": "function"
				},
				{
					"inputs": [
						{
							"internalType": "address",
							"name": "token",
							"type": "address"
						}
					],
					"name": "removeStakeToken",
					"outputs": [],
					"stateMutability": "nonpayable",
					"type": "function"
				},
				{
					"inputs": [],
					"name": "renounceOwnership",
					"outputs": [],
					"stateMutability": "nonpayable",
					"type": "function"
				},
				{
					"inputs": [
						{
							"internalType": "address",
							"name": "token",
							"type": "address"
						},
						{
							"internalType": "uint256",
							"name": "amount",
							"type": "uint256"
						}
					],
					"name": "stake",
					"outputs": [],
					"stateMutability": "nonpayable",
					"type": "function"
				},
				{
					"inputs": [
						{
							"internalType": "address",
							"name": "",
							"type": "address"
						}
					],
					"name": "stakeTokenIndexPlusOne",
					"outputs": [
						{
							"internalType": "uint256",
							"name": "",
							"type": "uint256"
						}
					],
					"stateMutability": "view",
					"type": "function"
				},
				{
					"inputs": [
						{
							"internalType": "uint256",
							"name": "",
							"type": "uint256"
						}
					],
					"name": "stakeTokens",
					"outputs": [
						{
							"internalType": "address",
							"name": "token",
							"type": "address"
						},
						{
							"internalType": "uint256",
							"name": "weightBps",
							"type": "uint256"
						},
						{
							"internalType": "bool",
							"name": "active",
							"type": "bool"
						}
					],
					"stateMutability": "view",
					"type": "function"
				},
				{
					"inputs": [],
					"name": "totalStakeTokens",
					"outputs": [
						{
							"internalType": "uint256",
							"name": "",
							"type": "uint256"
						}
					],
					"stateMutability": "view",
					"type": "function"
				},
				{
					"inputs": [],
					"name": "totalWeightsBps",
					"outputs": [
						{
							"internalType": "uint256",
							"name": "",
							"type": "uint256"
						}
					],
					"stateMutability": "view",
					"type": "function"
				},
				{
					"inputs": [
						{
							"internalType": "address",
							"name": "newOwner",
							"type": "address"
						}
					],
					"name": "transferOwnership",
					"outputs": [],
					"stateMutability": "nonpayable",
					"type": "function"
				},
				{
					"inputs": [
						{
							"internalType": "address",
							"name": "token",
							"type": "address"
						},
						{
							"internalType": "uint256",
							"name": "amount",
							"type": "uint256"
						}
					],
					"name": "unstake",
					"outputs": [],
					"stateMutability": "nonpayable",
					"type": "function"
				},
				{
					"inputs": [
						{
							"internalType": "address",
							"name": "token",
							"type": "address"
						},
						{
							"internalType": "uint256",
							"name": "newWeightBps",
							"type": "uint256"
						}
					],
					"name": "updateStakeToken",
					"outputs": [],
					"stateMutability": "nonpayable",
					"type": "function"
				},
				{
					"inputs": [
						{
							"internalType": "address",
							"name": "",
							"type": "address"
						},
						{
							"internalType": "address",
							"name": "",
							"type": "address"
						}
					],
					"name": "userStakes",
					"outputs": [
						{
							"internalType": "uint256",
							"name": "",
							"type": "uint256"
						}
					],
					"stateMutability": "view",
					"type": "function"
				}
			],
			"devdoc": {
				"errors": {
					"OwnableInvalidOwner(address)": [
						{
							"details": "The owner is not a valid owner account. (eg. `address(0)`)"
						}
					],
					"OwnableUnauthorizedAccount(address)": [
						{
							"details": "The caller account is not authorized to perform an operation."
						}
					]
				},
				"kind": "dev",
				"methods": {
					"addStakeToken(address,uint256)": {
						"params": {
							"token": "The ERC20 token address to whitelist for staking.",
							"weightBps": "The weight in basis points for this token."
						}
					},
					"getStakeToken(uint256)": {
						"params": {
							"index": "The index in the array."
						},
						"returns": {
							"_0": "A StakeToken struct with token address, weightBps, and active status."
						}
					},
					"getUserVotingPower(address)": {
						"params": {
							"user": "The user address."
						},
						"returns": {
							"totalVotingPower": "The sum of (balanceOf(token) * weightBps) for all active tokens."
						}
					},
					"owner()": {
						"details": "Returns the address of the current owner."
					},
					"removeStakeToken(address)": {
						"params": {
							"token": "The token address to remove."
						}
					},
					"renounceOwnership()": {
						"details": "Leaves the contract without owner. It will not be possible to call `onlyOwner` functions. Can only be called by the current owner. NOTE: Renouncing ownership will leave the contract without an owner, thereby disabling any functionality that is only available to the owner."
					},
					"stake(address,uint256)": {
						"params": {
							"amount": "The amount of tokens to stake.",
							"token": "The token to stake."
						}
					},
					"totalStakeTokens()": {
						"returns": {
							"_0": "The length of stakeTokens array."
						}
					},
					"transferOwnership(address)": {
						"details": "Transfers ownership of the contract to a new account (`newOwner`). Can only be called by the current owner."
					},
					"unstake(address,uint256)": {
						"params": {
							"amount": "The amount to unstake.",
							"token": "The token to unstake."
						}
					},
					"updateStakeToken(address,uint256)": {
						"params": {
							"newWeightBps": "The new weight in basis points.",
							"token": "The token address to update."
						}
					}
				},
				"title": "DiversifiedProofOfStake",
				"version": 1
			},
			"evm": {
				"assembly": "    /* \"D/diversifiedProofOfStake.sol\":935:7939  contract DiversifiedProofOfStake is Ownable, ReentrancyGuard {... */\n  mstore(0x40, 0x80)\n    /* \"D/diversifiedProofOfStake.sol\":2350:2386  constructor() Ownable(msg.sender) {} */\n  callvalue\n  dup1\n  iszero\n  tag_1\n  jumpi\n  revert(0x00, 0x00)\ntag_1:\n  pop\n    /* \"D/diversifiedProofOfStake.sol\":2372:2382  msg.sender */\n  caller\n    /* \"@openzeppelin/contracts/access/Ownable.sol\":1297:1298  0 */\n  0x00\n    /* \"@openzeppelin/contracts/access/Ownable.sol\":1273:1299  initialOwner == address(0) */\n  0xffffffffffffffffffffffffffffffffffffffff\n  and\n    /* \"@openzeppelin/contracts/access/Ownable.sol\":1273:1285  initialOwner */\n  dup2\n    /* \"@openzeppelin/contracts/access/Ownable.sol\":1273:1299  initialOwner == address(0) */\n  0xffffffffffffffffffffffffffffffffffffffff\n  and\n  sub\n    /* \"@openzeppelin/contracts/access/Ownable.sol\":1269:1364  if (initialOwner == address(0)) {... */\n  tag_6\n  jumpi\n    /* \"@openzeppelin/contracts/access/Ownable.sol\":1350:1351  0 */\n  0x00\n    /* \"@openzeppelin/contracts/access/Ownable.sol\":1322:1353  OwnableInvalidOwner(address(0)) */\n  mload(0x40)\n  0x1e4fbdf700000000000000000000000000000000000000000000000000000000\n  dup2\n  mstore\n  0x04\n  add\n  tag_7\n  swap2\n  swap1\n  tag_8\n  jump\t// in\ntag_7:\n  mload(0x40)\n  dup1\n  swap2\n  sub\n  swap1\n  revert\n    /* \"@openzeppelin/contracts/access/Ownable.sol\":1269:1364  if (initialOwner == address(0)) {... */\ntag_6:\n    /* \"@openzeppelin/contracts/access/Ownable.sol\":1373:1405  _transferOwnership(initialOwner) */\n  tag_9\n    /* \"@openzeppelin/contracts/access/Ownable.sol\":1392:1404  initialOwner */\n  dup2\n    /* \"@openzeppelin/contracts/access/Ownable.sol\":1373:1391  _transferOwnership */\n  shl(0x20, tag_10)\n    /* \"@openzeppelin/contracts/access/Ownable.sol\":1373:1405  _transferOwnership(initialOwner) */\n  0x20\n  shr\n  jump\t// in\ntag_9:\n    /* \"@openzeppelin/contracts/access/Ownable.sol\":1225:1412  constructor(address initialOwner) {... */\n  pop\n    /* \"@openzeppelin/contracts/security/ReentrancyGuard.sol\":1716:1717  1 */\n  0x01\n    /* \"@openzeppelin/contracts/security/ReentrancyGuard.sol\":1821:1828  _status */\n  dup1\n    /* \"@openzeppelin/contracts/security/ReentrancyGuard.sol\":1821:1843  _status = _NOT_ENTERED */\n  dup2\n  swap1\n  sstore\n  pop\n    /* \"D/diversifiedProofOfStake.sol\":935:7939  contract DiversifiedProofOfStake is Ownable, ReentrancyGuard {... */\n  jump(tag_13)\n    /* \"@openzeppelin/contracts/access/Ownable.sol\":2912:3099  function _transferOwnership(address newOwner) internal virtual {... */\ntag_10:\n    /* \"@openzeppelin/contracts/access/Ownable.sol\":2985:3001  address oldOwner */\n  0x00\n    /* \"@openzeppelin/contracts/access/Ownable.sol\":3004:3010  _owner */\n  0x00\n  0x00\n  swap1\n  sload\n  swap1\n  0x0100\n  exp\n  swap1\n  div\n  0xffffffffffffffffffffffffffffffffffffffff\n  and\n    /* \"@openzeppelin/contracts/access/Ownable.sol\":2985:3010  address oldOwner = _owner */\n  swap1\n  pop\n    /* \"@openzeppelin/contracts/access/Ownable.sol\":3029:3037  newOwner */\n  dup2\n    /* \"@openzeppelin/contracts/access/Ownable.sol\":3020:3026  _owner */\n  0x00\n  0x00\n    /* \"@openzeppelin/contracts/access/Ownable.sol\":3020:3037  _owner = newOwner */\n  0x0100\n  exp\n  dup2\n  sload\n  dup2\n  0xffffffffffffffffffffffffffffffffffffffff\n  mul\n  not\n  and\n  swap1\n  dup4\n  0xffffffffffffffffffffffffffffffffffffffff\n  and\n  mul\n  or\n  swap1\n  sstore\n  pop\n    /* \"@openzeppelin/contracts/access/Ownable.sol\":3083:3091  newOwner */\n  dup2\n    /* \"@openzeppelin/contracts/access/Ownable.sol\":3052:3092  OwnershipTransferred(oldOwner, newOwner) */\n  0xffffffffffffffffffffffffffffffffffffffff\n  and\n    /* \"@openzeppelin/contracts/access/Ownable.sol\":3073:3081  oldOwner */\n  dup2\n    /* \"@openzeppelin/contracts/access/Ownable.sol\":3052:3092  OwnershipTransferred(oldOwner, newOwner) */\n  0xffffffffffffffffffffffffffffffffffffffff\n  and\n  0x8be0079c531659141344cd1fd0a4f28419497f9722a3daafe3b4186f6b6457e0\n  mload(0x40)\n  mload(0x40)\n  dup1\n  swap2\n  sub\n  swap1\n  log3\n    /* \"@openzeppelin/contracts/access/Ownable.sol\":2975:3099  {... */\n  pop\n    /* \"@openzeppelin/contracts/access/Ownable.sol\":2912:3099  function _transferOwnership(address newOwner) internal virtual {... */\n  pop\n  jump\t// out\n    /* \"#utility.yul\":7:133   */\ntag_15:\n    /* \"#utility.yul\":44:51   */\n  0x00\n    /* \"#utility.yul\":84:126   */\n  0xffffffffffffffffffffffffffffffffffffffff\n    /* \"#utility.yul\":77:82   */\n  dup3\n    /* \"#utility.yul\":73:127   */\n  and\n    /* \"#utility.yul\":62:127   */\n  swap1\n  pop\n    /* \"#utility.yul\":7:133   */\n  swap2\n  swap1\n  pop\n  jump\t// out\n    /* \"#utility.yul\":139:235   */\ntag_16:\n    /* \"#utility.yul\":176:183   */\n  0x00\n    /* \"#utility.yul\":205:229   */\n  tag_21\n    /* \"#utility.yul\":223:228   */\n  dup3\n    /* \"#utility.yul\":205:229   */\n  tag_15\n  jump\t// in\ntag_21:\n    /* \"#utility.yul\":194:229   */\n  swap1\n  pop\n    /* \"#utility.yul\":139:235   */\n  swap2\n  swap1\n  pop\n  jump\t// out\n    /* \"#utility.yul\":241:359   */\ntag_17:\n    /* \"#utility.yul\":328:352   */\n  tag_23\n    /* \"#utility.yul\":346:351   */\n  dup2\n    /* \"#utility.yul\":328:352   */\n  tag_16\n  jump\t// in\ntag_23:\n    /* \"#utility.yul\":323:326   */\n  dup3\n    /* \"#utility.yul\":316:353   */\n  mstore\n    /* \"#utility.yul\":241:359   */\n  pop\n  pop\n  jump\t// out\n    /* \"#utility.yul\":365:587   */\ntag_8:\n    /* \"#utility.yul\":458:462   */\n  0x00\n    /* \"#utility.yul\":496:498   */\n  0x20\n    /* \"#utility.yul\":485:494   */\n  dup3\n    /* \"#utility.yul\":481:499   */\n  add\n    /* \"#utility.yul\":473:499   */\n  swap1\n  pop\n    /* \"#utility.yul\":509:580   */\n  tag_25\n    /* \"#utility.yul\":577:578   */\n  0x00\n    /* \"#utility.yul\":566:575   */\n  dup4\n    /* \"#utility.yul\":562:579   */\n  add\n    /* \"#utility.yul\":553:559   */\n  dup5\n    /* \"#utility.yul\":509:580   */\n  tag_17\n  jump\t// in\ntag_25:\n    /* \"#utility.yul\":365:587   */\n  swap3\n  swap2\n  pop\n  pop\n  jump\t// out\n    /* \"D/diversifiedProofOfStake.sol\":935:7939  contract DiversifiedProofOfStake is Ownable, ReentrancyGuard {... */\ntag_13:\n  dataSize(sub_0)\n  dup1\n  dataOffset(sub_0)\n  0x00\n  codecopy\n  0x00\n  return\nstop\n\nsub_0: assembly {\n        /* \"D/diversifiedProofOfStake.sol\":935:7939  contract DiversifiedProofOfStake is Ownable, ReentrancyGuard {... */\n      mstore(0x40, 0x80)\n      callvalue\n      dup1\n      iszero\n      tag_1\n      jumpi\n      revert(0x00, 0x00)\n    tag_1:\n      pop\n      jumpi(tag_2, lt(calldatasize, 0x04))\n      shr(0xe0, calldataload(0x00))\n      dup1\n      0x81f7d942\n      gt\n      tag_18\n      jumpi\n      dup1\n      0xadc9772e\n      gt\n      tag_19\n      jumpi\n      dup1\n      0xadc9772e\n      eq\n      tag_14\n      jumpi\n      dup1\n      0xc2a672e0\n      eq\n      tag_15\n      jumpi\n      dup1\n      0xd838d6f8\n      eq\n      tag_16\n      jumpi\n      dup1\n      0xf2fde38b\n      eq\n      tag_17\n      jumpi\n      jump(tag_2)\n    tag_19:\n      dup1\n      0x81f7d942\n      eq\n      tag_10\n      jumpi\n      dup1\n      0x862d2d7c\n      eq\n      tag_11\n      jumpi\n      dup1\n      0x8da5cb5b\n      eq\n      tag_12\n      jumpi\n      dup1\n      0xa8f715af\n      eq\n      tag_13\n      jumpi\n      jump(tag_2)\n    tag_18:\n      dup1\n      0x40a65823\n      gt\n      tag_20\n      jumpi\n      dup1\n      0x40a65823\n      eq\n      tag_6\n      jumpi\n      dup1\n      0x5e534428\n      eq\n      tag_7\n      jumpi\n      dup1\n      0x715018a6\n      eq\n      tag_8\n      jumpi\n      dup1\n      0x7547c7a3\n      eq\n      tag_9\n      jumpi\n      jump(tag_2)\n    tag_20:\n      dup1\n      0x0baca2e5\n      eq\n      tag_3\n      jumpi\n      dup1\n      0x166866c7\n      eq\n      tag_4\n      jumpi\n      dup1\n      0x1898a37c\n      eq\n      tag_5\n      jumpi\n    tag_2:\n      revert(0x00, 0x00)\n        /* \"D/diversifiedProofOfStake.sol\":7380:7937  function getUserVotingPower(address user) external view returns (uint256 totalVotingPower) {... */\n    tag_3:\n      tag_21\n      0x04\n      dup1\n      calldatasize\n      sub\n      dup2\n      add\n      swap1\n      tag_22\n      swap2\n      swap1\n      tag_23\n      jump\t// in\n    tag_22:\n      tag_24\n      jump\t// in\n    tag_21:\n      mload(0x40)\n      tag_25\n      swap2\n      swap1\n      tag_26\n      jump\t// in\n    tag_25:\n      mload(0x40)\n      dup1\n      swap2\n      sub\n      swap1\n      return\n        /* \"D/diversifiedProofOfStake.sol\":4400:4900  function removeStakeToken(address token) external onlyOwner {... */\n    tag_4:\n      tag_27\n      0x04\n      dup1\n      calldatasize\n      sub\n      dup2\n      add\n      swap1\n      tag_28\n      swap2\n      swap1\n      tag_23\n      jump\t// in\n    tag_28:\n      tag_29\n      jump\t// in\n    tag_27:\n      stop\n        /* \"D/diversifiedProofOfStake.sol\":1417:1474  mapping(address => uint256) public stakeTokenIndexPlusOne */\n    tag_5:\n      tag_30\n      0x04\n      dup1\n      calldatasize\n      sub\n      dup2\n      add\n      swap1\n      tag_31\n      swap2\n      swap1\n      tag_23\n      jump\t// in\n    tag_31:\n      tag_32\n      jump\t// in\n    tag_30:\n      mload(0x40)\n      tag_33\n      swap2\n      swap1\n      tag_26\n      jump\t// in\n    tag_33:\n      mload(0x40)\n      dup1\n      swap2\n      sub\n      swap1\n      return\n        /* \"D/diversifiedProofOfStake.sol\":6593:6695  function totalStakeTokens() external view returns (uint256) {... */\n    tag_6:\n      tag_34\n      tag_35\n      jump\t// in\n    tag_34:\n      mload(0x40)\n      tag_36\n      swap2\n      swap1\n      tag_26\n      jump\t// in\n    tag_36:\n      mload(0x40)\n      dup1\n      swap2\n      sub\n      swap1\n      return\n        /* \"D/diversifiedProofOfStake.sol\":6914:7103  function getStakeToken(uint256 index) external view returns (StakeToken memory) {... */\n    tag_7:\n      tag_37\n      0x04\n      dup1\n      calldatasize\n      sub\n      dup2\n      add\n      swap1\n      tag_38\n      swap2\n      swap1\n      tag_39\n      jump\t// in\n    tag_38:\n      tag_40\n      jump\t// in\n    tag_37:\n      mload(0x40)\n      tag_41\n      swap2\n      swap1\n      tag_42\n      jump\t// in\n    tag_41:\n      mload(0x40)\n      dup1\n      swap2\n      sub\n      swap1\n      return\n        /* \"@openzeppelin/contracts/access/Ownable.sol\":2293:2394  function renounceOwnership() public virtual onlyOwner {... */\n    tag_8:\n      tag_43\n      tag_44\n      jump\t// in\n    tag_43:\n      stop\n        /* \"D/diversifiedProofOfStake.sol\":1301:1332  StakeToken[] public stakeTokens */\n    tag_9:\n      tag_45\n      0x04\n      dup1\n      calldatasize\n      sub\n      dup2\n      add\n      swap1\n      tag_46\n      swap2\n      swap1\n      tag_39\n      jump\t// in\n    tag_46:\n      tag_47\n      jump\t// in\n    tag_45:\n      mload(0x40)\n      tag_48\n      swap4\n      swap3\n      swap2\n      swap1\n      tag_49\n      jump\t// in\n    tag_48:\n      mload(0x40)\n      dup1\n      swap2\n      sub\n      swap1\n      return\n        /* \"D/diversifiedProofOfStake.sol\":2654:3293  function addStakeToken(address token, uint256 weightBps) external onlyOwner {... */\n    tag_10:\n      tag_50\n      0x04\n      dup1\n      calldatasize\n      sub\n      dup2\n      add\n      swap1\n      tag_51\n      swap2\n      swap1\n      tag_52\n      jump\t// in\n    tag_51:\n      tag_53\n      jump\t// in\n    tag_50:\n      stop\n        /* \"D/diversifiedProofOfStake.sol\":1762:1827  mapping(address => mapping(address => uint256)) public userStakes */\n    tag_11:\n      tag_54\n      0x04\n      dup1\n      calldatasize\n      sub\n      dup2\n      add\n      swap1\n      tag_55\n      swap2\n      swap1\n      tag_56\n      jump\t// in\n    tag_55:\n      tag_57\n      jump\t// in\n    tag_54:\n      mload(0x40)\n      tag_58\n      swap2\n      swap1\n      tag_26\n      jump\t// in\n    tag_58:\n      mload(0x40)\n      dup1\n      swap2\n      sub\n      swap1\n      return\n        /* \"@openzeppelin/contracts/access/Ownable.sol\":1638:1723  function owner() public view virtual returns (address) {... */\n    tag_12:\n      tag_59\n      tag_60\n      jump\t// in\n    tag_59:\n      mload(0x40)\n      tag_61\n      swap2\n      swap1\n      tag_62\n      jump\t// in\n    tag_61:\n      mload(0x40)\n      dup1\n      swap2\n      sub\n      swap1\n      return\n        /* \"D/diversifiedProofOfStake.sol\":3506:4173  function updateStakeToken(address token, uint256 newWeightBps) external onlyOwner {... */\n    tag_13:\n      tag_63\n      0x04\n      dup1\n      calldatasize\n      sub\n      dup2\n      add\n      swap1\n      tag_64\n      swap2\n      swap1\n      tag_52\n      jump\t// in\n    tag_64:\n      tag_65\n      jump\t// in\n    tag_63:\n      stop\n        /* \"D/diversifiedProofOfStake.sol\":5143:5737  function stake(address token, uint256 amount) external nonReentrant {... */\n    tag_14:\n      tag_66\n      0x04\n      dup1\n      calldatasize\n      sub\n      dup2\n      add\n      swap1\n      tag_67\n      swap2\n      swap1\n      tag_52\n      jump\t// in\n    tag_67:\n      tag_68\n      jump\t// in\n    tag_66:\n      stop\n        /* \"D/diversifiedProofOfStake.sol\":5917:6417  function unstake(address token, uint256 amount) external nonReentrant {... */\n    tag_15:\n      tag_69\n      0x04\n      dup1\n      calldatasize\n      sub\n      dup2\n      add\n      swap1\n      tag_70\n      swap2\n      swap1\n      tag_52\n      jump\t// in\n    tag_70:\n      tag_71\n      jump\t// in\n    tag_69:\n      stop\n        /* \"D/diversifiedProofOfStake.sol\":1573:1603  uint256 public totalWeightsBps */\n    tag_16:\n      tag_72\n      tag_73\n      jump\t// in\n    tag_72:\n      mload(0x40)\n      tag_74\n      swap2\n      swap1\n      tag_26\n      jump\t// in\n    tag_74:\n      mload(0x40)\n      dup1\n      swap2\n      sub\n      swap1\n      return\n        /* \"@openzeppelin/contracts/access/Ownable.sol\":2543:2758  function transferOwnership(address newOwner) public virtual onlyOwner {... */\n    tag_17:\n      tag_75\n      0x04\n      dup1\n      calldatasize\n      sub\n      dup2\n      add\n      swap1\n      tag_76\n      swap2\n      swap1\n      tag_23\n      jump\t// in\n    tag_76:\n      tag_77\n      jump\t// in\n    tag_75:\n      stop\n        /* \"D/diversifiedProofOfStake.sol\":7380:7937  function getUserVotingPower(address user) external view returns (uint256 totalVotingPower) {... */\n    tag_24:\n        /* \"D/diversifiedProofOfStake.sol\":7445:7469  uint256 totalVotingPower */\n      0x00\n        /* \"D/diversifiedProofOfStake.sol\":7486:7495  uint256 i */\n      0x00\n        /* \"D/diversifiedProofOfStake.sol\":7498:7499  0 */\n      0x00\n        /* \"D/diversifiedProofOfStake.sol\":7486:7499  uint256 i = 0 */\n      swap1\n      pop\n        /* \"D/diversifiedProofOfStake.sol\":7481:7759  for (uint256 i = 0; i < stakeTokens.length; i++) {... */\n    tag_79:\n        /* \"D/diversifiedProofOfStake.sol\":7505:7516  stakeTokens */\n      0x02\n        /* \"D/diversifiedProofOfStake.sol\":7505:7523  stakeTokens.length */\n      dup1\n      sload\n      swap1\n      pop\n        /* \"D/diversifiedProofOfStake.sol\":7501:7502  i */\n      dup2\n        /* \"D/diversifiedProofOfStake.sol\":7501:7523  i < stakeTokens.length */\n      lt\n        /* \"D/diversifiedProofOfStake.sol\":7481:7759  for (uint256 i = 0; i < stakeTokens.length; i++) {... */\n      iszero\n      tag_80\n      jumpi\n        /* \"D/diversifiedProofOfStake.sol\":7544:7564  StakeToken memory st */\n      0x00\n        /* \"D/diversifiedProofOfStake.sol\":7567:7578  stakeTokens */\n      0x02\n        /* \"D/diversifiedProofOfStake.sol\":7579:7580  i */\n      dup3\n        /* \"D/diversifiedProofOfStake.sol\":7567:7581  stakeTokens[i] */\n      dup2\n      sload\n      dup2\n      lt\n      tag_82\n      jumpi\n      tag_83\n      tag_84\n      jump\t// in\n    tag_83:\n    tag_82:\n      swap1\n      0x00\n      mstore\n      keccak256(0x00, 0x20)\n      swap1\n      0x03\n      mul\n      add\n        /* \"D/diversifiedProofOfStake.sol\":7544:7581  StakeToken memory st = stakeTokens[i] */\n      mload(0x40)\n      dup1\n      0x60\n      add\n      0x40\n      mstore\n      swap1\n      dup2\n      0x00\n      dup3\n      add\n      0x00\n      swap1\n      sload\n      swap1\n      0x0100\n      exp\n      swap1\n      div\n      0xffffffffffffffffffffffffffffffffffffffff\n      and\n      0xffffffffffffffffffffffffffffffffffffffff\n      and\n      0xffffffffffffffffffffffffffffffffffffffff\n      and\n      dup2\n      mstore\n      0x20\n      add\n      0x01\n      dup3\n      add\n      sload\n      dup2\n      mstore\n      0x20\n      add\n      0x02\n      dup3\n      add\n      0x00\n      swap1\n      sload\n      swap1\n      0x0100\n      exp\n      swap1\n      div\n      0xff\n      and\n      iszero\n      iszero\n      iszero\n      iszero\n      dup2\n      mstore\n      pop\n      pop\n      swap1\n      pop\n        /* \"D/diversifiedProofOfStake.sol\":7599:7601  st */\n      dup1\n        /* \"D/diversifiedProofOfStake.sol\":7599:7608  st.active */\n      0x40\n      add\n      mload\n        /* \"D/diversifiedProofOfStake.sol\":7595:7749  if (st.active) {... */\n      iszero\n      tag_86\n      jumpi\n        /* \"D/diversifiedProofOfStake.sol\":7628:7643  uint256 balance */\n      0x00\n        /* \"D/diversifiedProofOfStake.sol\":7646:7656  userStakes */\n      0x05\n        /* \"D/diversifiedProofOfStake.sol\":7646:7662  userStakes[user] */\n      0x00\n        /* \"D/diversifiedProofOfStake.sol\":7657:7661  user */\n      dup7\n        /* \"D/diversifiedProofOfStake.sol\":7646:7662  userStakes[user] */\n      0xffffffffffffffffffffffffffffffffffffffff\n      and\n      0xffffffffffffffffffffffffffffffffffffffff\n      and\n      dup2\n      mstore\n      0x20\n      add\n      swap1\n      dup2\n      mstore\n      0x20\n      add\n      0x00\n      keccak256\n        /* \"D/diversifiedProofOfStake.sol\":7646:7672  userStakes[user][st.token] */\n      0x00\n        /* \"D/diversifiedProofOfStake.sol\":7663:7665  st */\n      dup4\n        /* \"D/diversifiedProofOfStake.sol\":7663:7671  st.token */\n      0x00\n      add\n      mload\n        /* \"D/diversifiedProofOfStake.sol\":7646:7672  userStakes[user][st.token] */\n      0xffffffffffffffffffffffffffffffffffffffff\n      and\n      0xffffffffffffffffffffffffffffffffffffffff\n      and\n      dup2\n      mstore\n      0x20\n      add\n      swap1\n      dup2\n      mstore\n      0x20\n      add\n      0x00\n      keccak256\n      sload\n        /* \"D/diversifiedProofOfStake.sol\":7628:7672  uint256 balance = userStakes[user][st.token] */\n      swap1\n      pop\n        /* \"D/diversifiedProofOfStake.sol\":7721:7723  st */\n      dup2\n        /* \"D/diversifiedProofOfStake.sol\":7721:7733  st.weightBps */\n      0x20\n      add\n      mload\n        /* \"D/diversifiedProofOfStake.sol\":7711:7718  balance */\n      dup2\n        /* \"D/diversifiedProofOfStake.sol\":7711:7733  balance * st.weightBps */\n      tag_87\n      swap2\n      swap1\n      tag_88\n      jump\t// in\n    tag_87:\n        /* \"D/diversifiedProofOfStake.sol\":7690:7734  totalVotingPower += (balance * st.weightBps) */\n      dup5\n      tag_89\n      swap2\n      swap1\n      tag_90\n      jump\t// in\n    tag_89:\n      swap4\n      pop\n        /* \"D/diversifiedProofOfStake.sol\":7610:7749  {... */\n      pop\n        /* \"D/diversifiedProofOfStake.sol\":7595:7749  if (st.active) {... */\n    tag_86:\n        /* \"D/diversifiedProofOfStake.sol\":7530:7759  {... */\n      pop\n        /* \"D/diversifiedProofOfStake.sol\":7525:7528  i++ */\n      dup1\n      dup1\n      0x01\n      add\n      swap2\n      pop\n      pop\n        /* \"D/diversifiedProofOfStake.sol\":7481:7759  for (uint256 i = 0; i < stakeTokens.length; i++) {... */\n      jump(tag_79)\n    tag_80:\n      pop\n        /* \"D/diversifiedProofOfStake.sol\":7380:7937  function getUserVotingPower(address user) external view returns (uint256 totalVotingPower) {... */\n      swap2\n      swap1\n      pop\n      jump\t// out\n        /* \"D/diversifiedProofOfStake.sol\":4400:4900  function removeStakeToken(address token) external onlyOwner {... */\n    tag_29:\n        /* \"@openzeppelin/contracts/access/Ownable.sol\":1531:1544  _checkOwner() */\n      tag_92\n        /* \"@openzeppelin/contracts/access/Ownable.sol\":1531:1542  _checkOwner */\n      tag_93\n        /* \"@openzeppelin/contracts/access/Ownable.sol\":1531:1544  _checkOwner() */\n      jump\t// in\n    tag_92:\n        /* \"D/diversifiedProofOfStake.sol\":4470:4488  uint256 idxPlusOne */\n      0x00\n        /* \"D/diversifiedProofOfStake.sol\":4491:4513  stakeTokenIndexPlusOne */\n      0x03\n        /* \"D/diversifiedProofOfStake.sol\":4491:4520  stakeTokenIndexPlusOne[token] */\n      0x00\n        /* \"D/diversifiedProofOfStake.sol\":4514:4519  token */\n      dup4\n        /* \"D/diversifiedProofOfStake.sol\":4491:4520  stakeTokenIndexPlusOne[token] */\n      0xffffffffffffffffffffffffffffffffffffffff\n      and\n      0xffffffffffffffffffffffffffffffffffffffff\n      and\n      dup2\n      mstore\n      0x20\n      add\n      swap1\n      dup2\n      mstore\n      0x20\n      add\n      0x00\n      keccak256\n      sload\n        /* \"D/diversifiedProofOfStake.sol\":4470:4520  uint256 idxPlusOne = stakeTokenIndexPlusOne[token] */\n      swap1\n      pop\n        /* \"D/diversifiedProofOfStake.sol\":4552:4553  0 */\n      0x00\n        /* \"D/diversifiedProofOfStake.sol\":4538:4548  idxPlusOne */\n      dup2\n        /* \"D/diversifiedProofOfStake.sol\":4538:4553  idxPlusOne != 0 */\n      sub\n        /* \"D/diversifiedProofOfStake.sol\":4530:4574  require(idxPlusOne != 0, \"Token not in set\") */\n      tag_95\n      jumpi\n      mload(0x40)\n      0x08c379a000000000000000000000000000000000000000000000000000000000\n      dup2\n      mstore\n      0x04\n      add\n      tag_96\n      swap1\n      tag_97\n      jump\t// in\n    tag_96:\n      mload(0x40)\n      dup1\n      swap2\n      sub\n      swap1\n      revert\n    tag_95:\n        /* \"D/diversifiedProofOfStake.sol\":4584:4597  uint256 index */\n      0x00\n        /* \"D/diversifiedProofOfStake.sol\":4613:4614  1 */\n      0x01\n        /* \"D/diversifiedProofOfStake.sol\":4600:4610  idxPlusOne */\n      dup3\n        /* \"D/diversifiedProofOfStake.sol\":4600:4614  idxPlusOne - 1 */\n      tag_98\n      swap2\n      swap1\n      tag_99\n      jump\t// in\n    tag_98:\n        /* \"D/diversifiedProofOfStake.sol\":4584:4614  uint256 index = idxPlusOne - 1 */\n      swap1\n      pop\n        /* \"D/diversifiedProofOfStake.sol\":4624:4645  StakeToken storage st */\n      0x00\n        /* \"D/diversifiedProofOfStake.sol\":4648:4659  stakeTokens */\n      0x02\n        /* \"D/diversifiedProofOfStake.sol\":4660:4665  index */\n      dup3\n        /* \"D/diversifiedProofOfStake.sol\":4648:4666  stakeTokens[index] */\n      dup2\n      sload\n      dup2\n      lt\n      tag_100\n      jumpi\n      tag_101\n      tag_84\n      jump\t// in\n    tag_101:\n    tag_100:\n      swap1\n      0x00\n      mstore\n      keccak256(0x00, 0x20)\n      swap1\n      0x03\n      mul\n      add\n        /* \"D/diversifiedProofOfStake.sol\":4624:4666  StakeToken storage st = stakeTokens[index] */\n      swap1\n      pop\n        /* \"D/diversifiedProofOfStake.sol\":4684:4686  st */\n      dup1\n        /* \"D/diversifiedProofOfStake.sol\":4684:4693  st.active */\n      0x02\n      add\n      0x00\n      swap1\n      sload\n      swap1\n      0x0100\n      exp\n      swap1\n      div\n      0xff\n      and\n        /* \"D/diversifiedProofOfStake.sol\":4676:4720  require(st.active, \"Token already inactive\") */\n      tag_103\n      jumpi\n      mload(0x40)\n      0x08c379a000000000000000000000000000000000000000000000000000000000\n      dup2\n      mstore\n      0x04\n      add\n      tag_104\n      swap1\n      tag_105\n      jump\t// in\n    tag_104:\n      mload(0x40)\n      dup1\n      swap2\n      sub\n      swap1\n      revert\n    tag_103:\n        /* \"D/diversifiedProofOfStake.sol\":4743:4748  false */\n      0x00\n        /* \"D/diversifiedProofOfStake.sol\":4731:4733  st */\n      dup2\n        /* \"D/diversifiedProofOfStake.sol\":4731:4740  st.active */\n      0x02\n      add\n      0x00\n        /* \"D/diversifiedProofOfStake.sol\":4731:4748  st.active = false */\n      0x0100\n      exp\n      dup2\n      sload\n      dup2\n      0xff\n      mul\n      not\n      and\n      swap1\n      dup4\n      iszero\n      iszero\n      mul\n      or\n      swap1\n      sstore\n      pop\n        /* \"D/diversifiedProofOfStake.sol\":4777:4779  st */\n      dup1\n        /* \"D/diversifiedProofOfStake.sol\":4777:4789  st.weightBps */\n      0x01\n      add\n      sload\n        /* \"D/diversifiedProofOfStake.sol\":4758:4773  totalWeightsBps */\n      0x04\n      0x00\n        /* \"D/diversifiedProofOfStake.sol\":4758:4789  totalWeightsBps -= st.weightBps */\n      dup3\n      dup3\n      sload\n      tag_106\n      swap2\n      swap1\n      tag_99\n      jump\t// in\n    tag_106:\n      swap3\n      pop\n      pop\n      dup2\n      swap1\n      sstore\n      pop\n        /* \"D/diversifiedProofOfStake.sol\":4814:4815  0 */\n      0x00\n        /* \"D/diversifiedProofOfStake.sol\":4799:4801  st */\n      dup2\n        /* \"D/diversifiedProofOfStake.sol\":4799:4811  st.weightBps */\n      0x01\n      add\n        /* \"D/diversifiedProofOfStake.sol\":4799:4815  st.weightBps = 0 */\n      dup2\n      swap1\n      sstore\n      pop\n        /* \"D/diversifiedProofOfStake.sol\":4857:4858  0 */\n      0x00\n        /* \"D/diversifiedProofOfStake.sol\":4825:4847  stakeTokenIndexPlusOne */\n      0x03\n        /* \"D/diversifiedProofOfStake.sol\":4825:4854  stakeTokenIndexPlusOne[token] */\n      0x00\n        /* \"D/diversifiedProofOfStake.sol\":4848:4853  token */\n      dup7\n        /* \"D/diversifiedProofOfStake.sol\":4825:4854  stakeTokenIndexPlusOne[token] */\n      0xffffffffffffffffffffffffffffffffffffffff\n      and\n      0xffffffffffffffffffffffffffffffffffffffff\n      and\n      dup2\n      mstore\n      0x20\n      add\n      swap1\n      dup2\n      mstore\n      0x20\n      add\n      0x00\n      keccak256\n        /* \"D/diversifiedProofOfStake.sol\":4825:4858  stakeTokenIndexPlusOne[token] = 0 */\n      dup2\n      swap1\n      sstore\n      pop\n        /* \"D/diversifiedProofOfStake.sol\":4887:4892  token */\n      dup4\n        /* \"D/diversifiedProofOfStake.sol\":4874:4893  TokenRemoved(token) */\n      0xffffffffffffffffffffffffffffffffffffffff\n      and\n      0x4c910b69fe65a61f7531b9c5042b2329ca7179c77290aa7e2eb3afa3c8511fd3\n      mload(0x40)\n      mload(0x40)\n      dup1\n      swap2\n      sub\n      swap1\n      log2\n        /* \"D/diversifiedProofOfStake.sol\":4460:4900  {... */\n      pop\n      pop\n      pop\n        /* \"D/diversifiedProofOfStake.sol\":4400:4900  function removeStakeToken(address token) external onlyOwner {... */\n      pop\n      jump\t// out\n        /* \"D/diversifiedProofOfStake.sol\":1417:1474  mapping(address => uint256) public stakeTokenIndexPlusOne */\n    tag_32:\n      mstore(0x20, 0x03)\n      dup1\n      0x00\n      mstore\n      keccak256(0x00, 0x40)\n      0x00\n      swap2\n      pop\n      swap1\n      pop\n      sload\n      dup2\n      jump\t// out\n        /* \"D/diversifiedProofOfStake.sol\":6593:6695  function totalStakeTokens() external view returns (uint256) {... */\n    tag_35:\n        /* \"D/diversifiedProofOfStake.sol\":6644:6651  uint256 */\n      0x00\n        /* \"D/diversifiedProofOfStake.sol\":6670:6681  stakeTokens */\n      0x02\n        /* \"D/diversifiedProofOfStake.sol\":6670:6688  stakeTokens.length */\n      dup1\n      sload\n      swap1\n      pop\n        /* \"D/diversifiedProofOfStake.sol\":6663:6688  return stakeTokens.length */\n      swap1\n      pop\n        /* \"D/diversifiedProofOfStake.sol\":6593:6695  function totalStakeTokens() external view returns (uint256) {... */\n      swap1\n      jump\t// out\n        /* \"D/diversifiedProofOfStake.sol\":6914:7103  function getStakeToken(uint256 index) external view returns (StakeToken memory) {... */\n    tag_40:\n        /* \"D/diversifiedProofOfStake.sol\":6975:6992  StakeToken memory */\n      tag_108\n      tag_109\n      jump\t// in\n    tag_108:\n        /* \"D/diversifiedProofOfStake.sol\":7020:7031  stakeTokens */\n      0x02\n        /* \"D/diversifiedProofOfStake.sol\":7020:7038  stakeTokens.length */\n      dup1\n      sload\n      swap1\n      pop\n        /* \"D/diversifiedProofOfStake.sol\":7012:7017  index */\n      dup3\n        /* \"D/diversifiedProofOfStake.sol\":7012:7038  index < stakeTokens.length */\n      lt\n        /* \"D/diversifiedProofOfStake.sol\":7004:7061  require(index < stakeTokens.length, \"Index out of range\") */\n      tag_111\n      jumpi\n      mload(0x40)\n      0x08c379a000000000000000000000000000000000000000000000000000000000\n      dup2\n      mstore\n      0x04\n      add\n      tag_112\n      swap1\n      tag_113\n      jump\t// in\n    tag_112:\n      mload(0x40)\n      dup1\n      swap2\n      sub\n      swap1\n      revert\n    tag_111:\n        /* \"D/diversifiedProofOfStake.sol\":7078:7089  stakeTokens */\n      0x02\n        /* \"D/diversifiedProofOfStake.sol\":7090:7095  index */\n      dup3\n        /* \"D/diversifiedProofOfStake.sol\":7078:7096  stakeTokens[index] */\n      dup2\n      sload\n      dup2\n      lt\n      tag_114\n      jumpi\n      tag_115\n      tag_84\n      jump\t// in\n    tag_115:\n    tag_114:\n      swap1\n      0x00\n      mstore\n      keccak256(0x00, 0x20)\n      swap1\n      0x03\n      mul\n      add\n        /* \"D/diversifiedProofOfStake.sol\":7071:7096  return stakeTokens[index] */\n      mload(0x40)\n      dup1\n      0x60\n      add\n      0x40\n      mstore\n      swap1\n      dup2\n      0x00\n      dup3\n      add\n      0x00\n      swap1\n      sload\n      swap1\n      0x0100\n      exp\n      swap1\n      div\n      0xffffffffffffffffffffffffffffffffffffffff\n      and\n      0xffffffffffffffffffffffffffffffffffffffff\n      and\n      0xffffffffffffffffffffffffffffffffffffffff\n      and\n      dup2\n      mstore\n      0x20\n      add\n      0x01\n      dup3\n      add\n      sload\n      dup2\n      mstore\n      0x20\n      add\n      0x02\n      dup3\n      add\n      0x00\n      swap1\n      sload\n      swap1\n      0x0100\n      exp\n      swap1\n      div\n      0xff\n      and\n      iszero\n      iszero\n      iszero\n      iszero\n      dup2\n      mstore\n      pop\n      pop\n      swap1\n      pop\n        /* \"D/diversifiedProofOfStake.sol\":6914:7103  function getStakeToken(uint256 index) external view returns (StakeToken memory) {... */\n      swap2\n      swap1\n      pop\n      jump\t// out\n        /* \"@openzeppelin/contracts/access/Ownable.sol\":2293:2394  function renounceOwnership() public virtual onlyOwner {... */\n    tag_44:\n        /* \"@openzeppelin/contracts/access/Ownable.sol\":1531:1544  _checkOwner() */\n      tag_118\n        /* \"@openzeppelin/contracts/access/Ownable.sol\":1531:1542  _checkOwner */\n      tag_93\n        /* \"@openzeppelin/contracts/access/Ownable.sol\":1531:1544  _checkOwner() */\n      jump\t// in\n    tag_118:\n        /* \"@openzeppelin/contracts/access/Ownable.sol\":2357:2387  _transferOwnership(address(0)) */\n      tag_120\n        /* \"@openzeppelin/contracts/access/Ownable.sol\":2384:2385  0 */\n      0x00\n        /* \"@openzeppelin/contracts/access/Ownable.sol\":2357:2375  _transferOwnership */\n      tag_121\n        /* \"@openzeppelin/contracts/access/Ownable.sol\":2357:2387  _transferOwnership(address(0)) */\n      jump\t// in\n    tag_120:\n        /* \"@openzeppelin/contracts/access/Ownable.sol\":2293:2394  function renounceOwnership() public virtual onlyOwner {... */\n      jump\t// out\n        /* \"D/diversifiedProofOfStake.sol\":1301:1332  StakeToken[] public stakeTokens */\n    tag_47:\n      0x02\n      dup2\n      dup2\n      sload\n      dup2\n      lt\n      tag_122\n      jumpi\n      0x00\n      dup1\n      revert\n    tag_122:\n      swap1\n      0x00\n      mstore\n      keccak256(0x00, 0x20)\n      swap1\n      0x03\n      mul\n      add\n      0x00\n      swap2\n      pop\n      swap1\n      pop\n      dup1\n      0x00\n      add\n      0x00\n      swap1\n      sload\n      swap1\n      0x0100\n      exp\n      swap1\n      div\n      0xffffffffffffffffffffffffffffffffffffffff\n      and\n      swap1\n      dup1\n      0x01\n      add\n      sload\n      swap1\n      dup1\n      0x02\n      add\n      0x00\n      swap1\n      sload\n      swap1\n      0x0100\n      exp\n      swap1\n      div\n      0xff\n      and\n      swap1\n      pop\n      dup4\n      jump\t// out\n        /* \"D/diversifiedProofOfStake.sol\":2654:3293  function addStakeToken(address token, uint256 weightBps) external onlyOwner {... */\n    tag_53:\n        /* \"@openzeppelin/contracts/access/Ownable.sol\":1531:1544  _checkOwner() */\n      tag_125\n        /* \"@openzeppelin/contracts/access/Ownable.sol\":1531:1542  _checkOwner */\n      tag_93\n        /* \"@openzeppelin/contracts/access/Ownable.sol\":1531:1544  _checkOwner() */\n      jump\t// in\n    tag_125:\n        /* \"D/diversifiedProofOfStake.sol\":2765:2766  0 */\n      0x00\n        /* \"D/diversifiedProofOfStake.sol\":2748:2767  token != address(0) */\n      0xffffffffffffffffffffffffffffffffffffffff\n      and\n        /* \"D/diversifiedProofOfStake.sol\":2748:2753  token */\n      dup3\n        /* \"D/diversifiedProofOfStake.sol\":2748:2767  token != address(0) */\n      0xffffffffffffffffffffffffffffffffffffffff\n      and\n      sub\n        /* \"D/diversifiedProofOfStake.sol\":2740:2793  require(token != address(0), \"Invalid token address\") */\n      tag_127\n      jumpi\n      mload(0x40)\n      0x08c379a000000000000000000000000000000000000000000000000000000000\n      dup2\n      mstore\n      0x04\n      add\n      tag_128\n      swap1\n      tag_129\n      jump\t// in\n    tag_128:\n      mload(0x40)\n      dup1\n      swap2\n      sub\n      swap1\n      revert\n    tag_127:\n        /* \"D/diversifiedProofOfStake.sol\":2823:2824  0 */\n      0x00\n        /* \"D/diversifiedProofOfStake.sol\":2811:2820  weightBps */\n      dup2\n        /* \"D/diversifiedProofOfStake.sol\":2811:2824  weightBps > 0 */\n      gt\n        /* \"D/diversifiedProofOfStake.sol\":2803:2847  require(weightBps > 0, \"Weight must be > 0\") */\n      tag_130\n      jumpi\n      mload(0x40)\n      0x08c379a000000000000000000000000000000000000000000000000000000000\n      dup2\n      mstore\n      0x04\n      add\n      tag_131\n      swap1\n      tag_132\n      jump\t// in\n    tag_131:\n      mload(0x40)\n      dup1\n      swap2\n      sub\n      swap1\n      revert\n    tag_130:\n        /* \"D/diversifiedProofOfStake.sol\":2898:2899  0 */\n      0x00\n        /* \"D/diversifiedProofOfStake.sol\":2865:2887  stakeTokenIndexPlusOne */\n      0x03\n        /* \"D/diversifiedProofOfStake.sol\":2865:2894  stakeTokenIndexPlusOne[token] */\n      0x00\n        /* \"D/diversifiedProofOfStake.sol\":2888:2893  token */\n      dup5\n        /* \"D/diversifiedProofOfStake.sol\":2865:2894  stakeTokenIndexPlusOne[token] */\n      0xffffffffffffffffffffffffffffffffffffffff\n      and\n      0xffffffffffffffffffffffffffffffffffffffff\n      and\n      dup2\n      mstore\n      0x20\n      add\n      swap1\n      dup2\n      mstore\n      0x20\n      add\n      0x00\n      keccak256\n      sload\n        /* \"D/diversifiedProofOfStake.sol\":2865:2899  stakeTokenIndexPlusOne[token] == 0 */\n      eq\n        /* \"D/diversifiedProofOfStake.sol\":2857:2923  require(stakeTokenIndexPlusOne[token] == 0, \"Token already added\") */\n      tag_133\n      jumpi\n      mload(0x40)\n      0x08c379a000000000000000000000000000000000000000000000000000000000\n      dup2\n      mstore\n      0x04\n      add\n      tag_134\n      swap1\n      tag_135\n      jump\t// in\n    tag_134:\n      mload(0x40)\n      dup1\n      swap2\n      sub\n      swap1\n      revert\n    tag_133:\n        /* \"D/diversifiedProofOfStake.sol\":2972:2977  10000 */\n      0x2710\n        /* \"D/diversifiedProofOfStake.sol\":2959:2968  weightBps */\n      dup2\n        /* \"D/diversifiedProofOfStake.sol\":2941:2956  totalWeightsBps */\n      sload(0x04)\n        /* \"D/diversifiedProofOfStake.sol\":2941:2968  totalWeightsBps + weightBps */\n      tag_136\n      swap2\n      swap1\n      tag_90\n      jump\t// in\n    tag_136:\n        /* \"D/diversifiedProofOfStake.sol\":2941:2977  totalWeightsBps + weightBps <= 10000 */\n      gt\n      iszero\n        /* \"D/diversifiedProofOfStake.sol\":2933:3007  require(totalWeightsBps + weightBps <= 10000, \"Total weight exceeds 100%\") */\n      tag_137\n      jumpi\n      mload(0x40)\n      0x08c379a000000000000000000000000000000000000000000000000000000000\n      dup2\n      mstore\n      0x04\n      add\n      tag_138\n      swap1\n      tag_139\n      jump\t// in\n    tag_138:\n      mload(0x40)\n      dup1\n      swap2\n      sub\n      swap1\n      revert\n    tag_137:\n        /* \"D/diversifiedProofOfStake.sol\":3018:3029  stakeTokens */\n      0x02\n        /* \"D/diversifiedProofOfStake.sol\":3035:3143  StakeToken({... */\n      mload(0x40)\n      dup1\n      0x60\n      add\n      0x40\n      mstore\n      dup1\n        /* \"D/diversifiedProofOfStake.sol\":3067:3072  token */\n      dup5\n        /* \"D/diversifiedProofOfStake.sol\":3035:3143  StakeToken({... */\n      0xffffffffffffffffffffffffffffffffffffffff\n      and\n      dup2\n      mstore\n      0x20\n      add\n        /* \"D/diversifiedProofOfStake.sol\":3097:3106  weightBps */\n      dup4\n        /* \"D/diversifiedProofOfStake.sol\":3035:3143  StakeToken({... */\n      dup2\n      mstore\n      0x20\n      add\n        /* \"D/diversifiedProofOfStake.sol\":3128:3132  true */\n      0x01\n        /* \"D/diversifiedProofOfStake.sol\":3035:3143  StakeToken({... */\n      iszero\n      iszero\n      dup2\n      mstore\n      pop\n        /* \"D/diversifiedProofOfStake.sol\":3018:3144  stakeTokens.push(StakeToken({... */\n      swap1\n      dup1\n      0x01\n      dup2\n      sload\n      add\n      dup1\n      dup3\n      sstore\n      dup1\n      swap2\n      pop\n      pop\n      0x01\n      swap1\n      sub\n      swap1\n      0x00\n      mstore\n      keccak256(0x00, 0x20)\n      swap1\n      0x03\n      mul\n      add\n      0x00\n      swap1\n      swap2\n      swap1\n      swap2\n      swap1\n      swap2\n      pop\n      0x00\n      dup3\n      add\n      mload\n      dup2\n      0x00\n      add\n      exp(0x0100, 0x00)\n      dup2\n      sload\n      dup2\n      0xffffffffffffffffffffffffffffffffffffffff\n      mul\n      not\n      and\n      swap1\n      dup4\n      0xffffffffffffffffffffffffffffffffffffffff\n      and\n      mul\n      or\n      swap1\n      sstore\n      pop\n      0x20\n      dup3\n      add\n      mload\n      dup2\n      0x01\n      add\n      sstore\n      0x40\n      dup3\n      add\n      mload\n      dup2\n      0x02\n      add\n      exp(0x0100, 0x00)\n      dup2\n      sload\n      dup2\n      0xff\n      mul\n      not\n      and\n      swap1\n      dup4\n      iszero\n      iszero\n      mul\n      or\n      swap1\n      sstore\n      pop\n      pop\n      pop\n        /* \"D/diversifiedProofOfStake.sol\":3186:3197  stakeTokens */\n      0x02\n        /* \"D/diversifiedProofOfStake.sol\":3186:3204  stakeTokens.length */\n      dup1\n      sload\n      swap1\n      pop\n        /* \"D/diversifiedProofOfStake.sol\":3154:3176  stakeTokenIndexPlusOne */\n      0x03\n        /* \"D/diversifiedProofOfStake.sol\":3154:3183  stakeTokenIndexPlusOne[token] */\n      0x00\n        /* \"D/diversifiedProofOfStake.sol\":3177:3182  token */\n      dup5\n        /* \"D/diversifiedProofOfStake.sol\":3154:3183  stakeTokenIndexPlusOne[token] */\n      0xffffffffffffffffffffffffffffffffffffffff\n      and\n      0xffffffffffffffffffffffffffffffffffffffff\n      and\n      dup2\n      mstore\n      0x20\n      add\n      swap1\n      dup2\n      mstore\n      0x20\n      add\n      0x00\n      keccak256\n        /* \"D/diversifiedProofOfStake.sol\":3154:3204  stakeTokenIndexPlusOne[token] = stakeTokens.length */\n      dup2\n      swap1\n      sstore\n      pop\n        /* \"D/diversifiedProofOfStake.sol\":3233:3242  weightBps */\n      dup1\n        /* \"D/diversifiedProofOfStake.sol\":3214:3229  totalWeightsBps */\n      0x04\n      0x00\n        /* \"D/diversifiedProofOfStake.sol\":3214:3242  totalWeightsBps += weightBps */\n      dup3\n      dup3\n      sload\n      tag_141\n      swap2\n      swap1\n      tag_90\n      jump\t// in\n    tag_141:\n      swap3\n      pop\n      pop\n      dup2\n      swap1\n      sstore\n      pop\n        /* \"D/diversifiedProofOfStake.sol\":3269:3274  token */\n      dup2\n        /* \"D/diversifiedProofOfStake.sol\":3258:3286  TokenAdded(token, weightBps) */\n      0xffffffffffffffffffffffffffffffffffffffff\n      and\n      0xf4c563a3ea86ff1f4275e8c207df0375a51963f2b831b7bf4da8be938d92876c\n        /* \"D/diversifiedProofOfStake.sol\":3276:3285  weightBps */\n      dup3\n        /* \"D/diversifiedProofOfStake.sol\":3258:3286  TokenAdded(token, weightBps) */\n      mload(0x40)\n      tag_142\n      swap2\n      swap1\n      tag_26\n      jump\t// in\n    tag_142:\n      mload(0x40)\n      dup1\n      swap2\n      sub\n      swap1\n      log2\n        /* \"D/diversifiedProofOfStake.sol\":2654:3293  function addStakeToken(address token, uint256 weightBps) external onlyOwner {... */\n      pop\n      pop\n      jump\t// out\n        /* \"D/diversifiedProofOfStake.sol\":1762:1827  mapping(address => mapping(address => uint256)) public userStakes */\n    tag_57:\n      mstore(0x20, 0x05)\n      dup2\n      0x00\n      mstore\n      mstore(0x20, keccak256(0x00, 0x40))\n      dup1\n      0x00\n      mstore\n      keccak256(0x00, 0x40)\n      0x00\n      swap2\n      pop\n      swap2\n      pop\n      pop\n      sload\n      dup2\n      jump\t// out\n        /* \"@openzeppelin/contracts/access/Ownable.sol\":1638:1723  function owner() public view virtual returns (address) {... */\n    tag_60:\n        /* \"@openzeppelin/contracts/access/Ownable.sol\":1684:1691  address */\n      0x00\n        /* \"@openzeppelin/contracts/access/Ownable.sol\":1710:1716  _owner */\n      0x00\n      0x00\n      swap1\n      sload\n      swap1\n      0x0100\n      exp\n      swap1\n      div\n      0xffffffffffffffffffffffffffffffffffffffff\n      and\n        /* \"@openzeppelin/contracts/access/Ownable.sol\":1703:1716  return _owner */\n      swap1\n      pop\n        /* \"@openzeppelin/contracts/access/Ownable.sol\":1638:1723  function owner() public view virtual returns (address) {... */\n      swap1\n      jump\t// out\n        /* \"D/diversifiedProofOfStake.sol\":3506:4173  function updateStakeToken(address token, uint256 newWeightBps) external onlyOwner {... */\n    tag_65:\n        /* \"@openzeppelin/contracts/access/Ownable.sol\":1531:1544  _checkOwner() */\n      tag_145\n        /* \"@openzeppelin/contracts/access/Ownable.sol\":1531:1542  _checkOwner */\n      tag_93\n        /* \"@openzeppelin/contracts/access/Ownable.sol\":1531:1544  _checkOwner() */\n      jump\t// in\n    tag_145:\n        /* \"D/diversifiedProofOfStake.sol\":3598:3616  uint256 idxPlusOne */\n      0x00\n        /* \"D/diversifiedProofOfStake.sol\":3619:3641  stakeTokenIndexPlusOne */\n      0x03\n        /* \"D/diversifiedProofOfStake.sol\":3619:3648  stakeTokenIndexPlusOne[token] */\n      0x00\n        /* \"D/diversifiedProofOfStake.sol\":3642:3647  token */\n      dup5\n        /* \"D/diversifiedProofOfStake.sol\":3619:3648  stakeTokenIndexPlusOne[token] */\n      0xffffffffffffffffffffffffffffffffffffffff\n      and\n      0xffffffffffffffffffffffffffffffffffffffff\n      and\n      dup2\n      mstore\n      0x20\n      add\n      swap1\n      dup2\n      mstore\n      0x20\n      add\n      0x00\n      keccak256\n      sload\n        /* \"D/diversifiedProofOfStake.sol\":3598:3648  uint256 idxPlusOne = stakeTokenIndexPlusOne[token] */\n      swap1\n      pop\n        /* \"D/diversifiedProofOfStake.sol\":3680:3681  0 */\n      0x00\n        /* \"D/diversifiedProofOfStake.sol\":3666:3676  idxPlusOne */\n      dup2\n        /* \"D/diversifiedProofOfStake.sol\":3666:3681  idxPlusOne != 0 */\n      sub\n        /* \"D/diversifiedProofOfStake.sol\":3658:3702  require(idxPlusOne != 0, \"Token not in set\") */\n      tag_147\n      jumpi\n      mload(0x40)\n      0x08c379a000000000000000000000000000000000000000000000000000000000\n      dup2\n      mstore\n      0x04\n      add\n      tag_148\n      swap1\n      tag_97\n      jump\t// in\n    tag_148:\n      mload(0x40)\n      dup1\n      swap2\n      sub\n      swap1\n      revert\n    tag_147:\n        /* \"D/diversifiedProofOfStake.sol\":3712:3725  uint256 index */\n      0x00\n        /* \"D/diversifiedProofOfStake.sol\":3741:3742  1 */\n      0x01\n        /* \"D/diversifiedProofOfStake.sol\":3728:3738  idxPlusOne */\n      dup3\n        /* \"D/diversifiedProofOfStake.sol\":3728:3742  idxPlusOne - 1 */\n      tag_149\n      swap2\n      swap1\n      tag_99\n      jump\t// in\n    tag_149:\n        /* \"D/diversifiedProofOfStake.sol\":3712:3742  uint256 index = idxPlusOne - 1 */\n      swap1\n      pop\n        /* \"D/diversifiedProofOfStake.sol\":3752:3773  StakeToken storage st */\n      0x00\n        /* \"D/diversifiedProofOfStake.sol\":3776:3787  stakeTokens */\n      0x02\n        /* \"D/diversifiedProofOfStake.sol\":3788:3793  index */\n      dup3\n        /* \"D/diversifiedProofOfStake.sol\":3776:3794  stakeTokens[index] */\n      dup2\n      sload\n      dup2\n      lt\n      tag_150\n      jumpi\n      tag_151\n      tag_84\n      jump\t// in\n    tag_151:\n    tag_150:\n      swap1\n      0x00\n      mstore\n      keccak256(0x00, 0x20)\n      swap1\n      0x03\n      mul\n      add\n        /* \"D/diversifiedProofOfStake.sol\":3752:3794  StakeToken storage st = stakeTokens[index] */\n      swap1\n      pop\n        /* \"D/diversifiedProofOfStake.sol\":3812:3814  st */\n      dup1\n        /* \"D/diversifiedProofOfStake.sol\":3812:3821  st.active */\n      0x02\n      add\n      0x00\n      swap1\n      sload\n      swap1\n      0x0100\n      exp\n      swap1\n      div\n      0xff\n      and\n        /* \"D/diversifiedProofOfStake.sol\":3804:3843  require(st.active, \"Token is inactive\") */\n      tag_153\n      jumpi\n      mload(0x40)\n      0x08c379a000000000000000000000000000000000000000000000000000000000\n      dup2\n      mstore\n      0x04\n      add\n      tag_154\n      swap1\n      tag_155\n      jump\t// in\n    tag_154:\n      mload(0x40)\n      dup1\n      swap2\n      sub\n      swap1\n      revert\n    tag_153:\n        /* \"D/diversifiedProofOfStake.sol\":3876:3877  0 */\n      0x00\n        /* \"D/diversifiedProofOfStake.sol\":3861:3873  newWeightBps */\n      dup5\n        /* \"D/diversifiedProofOfStake.sol\":3861:3877  newWeightBps > 0 */\n      gt\n        /* \"D/diversifiedProofOfStake.sol\":3853:3900  require(newWeightBps > 0, \"Weight must be > 0\") */\n      tag_156\n      jumpi\n      mload(0x40)\n      0x08c379a000000000000000000000000000000000000000000000000000000000\n      dup2\n      mstore\n      0x04\n      add\n      tag_157\n      swap1\n      tag_132\n      jump\t// in\n    tag_157:\n      mload(0x40)\n      dup1\n      swap2\n      sub\n      swap1\n      revert\n    tag_156:\n        /* \"D/diversifiedProofOfStake.sol\":3996:4008  newWeightBps */\n      dup4\n        /* \"D/diversifiedProofOfStake.sol\":3981:3983  st */\n      dup2\n        /* \"D/diversifiedProofOfStake.sol\":3981:3993  st.weightBps */\n      0x01\n      add\n      sload\n        /* \"D/diversifiedProofOfStake.sol\":3963:3978  totalWeightsBps */\n      sload(0x04)\n        /* \"D/diversifiedProofOfStake.sol\":3963:3993  totalWeightsBps - st.weightBps */\n      tag_158\n      swap2\n      swap1\n      tag_99\n      jump\t// in\n    tag_158:\n        /* \"D/diversifiedProofOfStake.sol\":3963:4008  totalWeightsBps - st.weightBps + newWeightBps */\n      tag_159\n      swap2\n      swap1\n      tag_90\n      jump\t// in\n    tag_159:\n        /* \"D/diversifiedProofOfStake.sol\":3945:3960  totalWeightsBps */\n      0x04\n        /* \"D/diversifiedProofOfStake.sol\":3945:4008  totalWeightsBps = totalWeightsBps - st.weightBps + newWeightBps */\n      dup2\n      swap1\n      sstore\n      pop\n        /* \"D/diversifiedProofOfStake.sol\":4045:4050  10000 */\n      0x2710\n        /* \"D/diversifiedProofOfStake.sol\":4026:4041  totalWeightsBps */\n      sload(0x04)\n        /* \"D/diversifiedProofOfStake.sol\":4026:4050  totalWeightsBps <= 10000 */\n      gt\n      iszero\n        /* \"D/diversifiedProofOfStake.sol\":4018:4080  require(totalWeightsBps <= 10000, \"Total weight exceeds 100%\") */\n      tag_160\n      jumpi\n      mload(0x40)\n      0x08c379a000000000000000000000000000000000000000000000000000000000\n      dup2\n      mstore\n      0x04\n      add\n      tag_161\n      swap1\n      tag_139\n      jump\t// in\n    tag_161:\n      mload(0x40)\n      dup1\n      swap2\n      sub\n      swap1\n      revert\n    tag_160:\n        /* \"D/diversifiedProofOfStake.sol\":4105:4117  newWeightBps */\n      dup4\n        /* \"D/diversifiedProofOfStake.sol\":4090:4092  st */\n      dup2\n        /* \"D/diversifiedProofOfStake.sol\":4090:4102  st.weightBps */\n      0x01\n      add\n        /* \"D/diversifiedProofOfStake.sol\":4090:4117  st.weightBps = newWeightBps */\n      dup2\n      swap1\n      sstore\n      pop\n        /* \"D/diversifiedProofOfStake.sol\":4146:4151  token */\n      dup5\n        /* \"D/diversifiedProofOfStake.sol\":4133:4166  TokenUpdated(token, newWeightBps) */\n      0xffffffffffffffffffffffffffffffffffffffff\n      and\n      0xc2d539e6a806d81b0892f23b002d25b825425d13a98bb6f486438b6b7bc0ce3a\n        /* \"D/diversifiedProofOfStake.sol\":4153:4165  newWeightBps */\n      dup6\n        /* \"D/diversifiedProofOfStake.sol\":4133:4166  TokenUpdated(token, newWeightBps) */\n      mload(0x40)\n      tag_162\n      swap2\n      swap1\n      tag_26\n      jump\t// in\n    tag_162:\n      mload(0x40)\n      dup1\n      swap2\n      sub\n      swap1\n      log2\n        /* \"D/diversifiedProofOfStake.sol\":3588:4173  {... */\n      pop\n      pop\n      pop\n        /* \"D/diversifiedProofOfStake.sol\":3506:4173  function updateStakeToken(address token, uint256 newWeightBps) external onlyOwner {... */\n      pop\n      pop\n      jump\t// out\n        /* \"D/diversifiedProofOfStake.sol\":5143:5737  function stake(address token, uint256 amount) external nonReentrant {... */\n    tag_68:\n        /* \"@openzeppelin/contracts/security/ReentrancyGuard.sol\":2261:2282  _nonReentrantBefore() */\n      tag_164\n        /* \"@openzeppelin/contracts/security/ReentrancyGuard.sol\":2261:2280  _nonReentrantBefore */\n      tag_165\n        /* \"@openzeppelin/contracts/security/ReentrancyGuard.sol\":2261:2282  _nonReentrantBefore() */\n      jump\t// in\n    tag_164:\n        /* \"D/diversifiedProofOfStake.sol\":5238:5239  0 */\n      0x00\n        /* \"D/diversifiedProofOfStake.sol\":5229:5235  amount */\n      dup2\n        /* \"D/diversifiedProofOfStake.sol\":5229:5239  amount > 0 */\n      gt\n        /* \"D/diversifiedProofOfStake.sol\":5221:5269  require(amount > 0, \"Staked amount must be > 0\") */\n      tag_167\n      jumpi\n      mload(0x40)\n      0x08c379a000000000000000000000000000000000000000000000000000000000\n      dup2\n      mstore\n      0x04\n      add\n      tag_168\n      swap1\n      tag_169\n      jump\t// in\n    tag_168:\n      mload(0x40)\n      dup1\n      swap2\n      sub\n      swap1\n      revert\n    tag_167:\n        /* \"D/diversifiedProofOfStake.sol\":5279:5297  uint256 idxPlusOne */\n      0x00\n        /* \"D/diversifiedProofOfStake.sol\":5300:5322  stakeTokenIndexPlusOne */\n      0x03\n        /* \"D/diversifiedProofOfStake.sol\":5300:5329  stakeTokenIndexPlusOne[token] */\n      0x00\n        /* \"D/diversifiedProofOfStake.sol\":5323:5328  token */\n      dup5\n        /* \"D/diversifiedProofOfStake.sol\":5300:5329  stakeTokenIndexPlusOne[token] */\n      0xffffffffffffffffffffffffffffffffffffffff\n      and\n      0xffffffffffffffffffffffffffffffffffffffff\n      and\n      dup2\n      mstore\n      0x20\n      add\n      swap1\n      dup2\n      mstore\n      0x20\n      add\n      0x00\n      keccak256\n      sload\n        /* \"D/diversifiedProofOfStake.sol\":5279:5329  uint256 idxPlusOne = stakeTokenIndexPlusOne[token] */\n      swap1\n      pop\n        /* \"D/diversifiedProofOfStake.sol\":5361:5362  0 */\n      0x00\n        /* \"D/diversifiedProofOfStake.sol\":5347:5357  idxPlusOne */\n      dup2\n        /* \"D/diversifiedProofOfStake.sol\":5347:5362  idxPlusOne != 0 */\n      sub\n        /* \"D/diversifiedProofOfStake.sol\":5339:5383  require(idxPlusOne != 0, \"Token not in set\") */\n      tag_170\n      jumpi\n      mload(0x40)\n      0x08c379a000000000000000000000000000000000000000000000000000000000\n      dup2\n      mstore\n      0x04\n      add\n      tag_171\n      swap1\n      tag_97\n      jump\t// in\n    tag_171:\n      mload(0x40)\n      dup1\n      swap2\n      sub\n      swap1\n      revert\n    tag_170:\n        /* \"D/diversifiedProofOfStake.sol\":5393:5413  StakeToken memory st */\n      0x00\n        /* \"D/diversifiedProofOfStake.sol\":5416:5427  stakeTokens */\n      0x02\n        /* \"D/diversifiedProofOfStake.sol\":5441:5442  1 */\n      0x01\n        /* \"D/diversifiedProofOfStake.sol\":5428:5438  idxPlusOne */\n      dup4\n        /* \"D/diversifiedProofOfStake.sol\":5428:5442  idxPlusOne - 1 */\n      tag_172\n      swap2\n      swap1\n      tag_99\n      jump\t// in\n    tag_172:\n        /* \"D/diversifiedProofOfStake.sol\":5416:5443  stakeTokens[idxPlusOne - 1] */\n      dup2\n      sload\n      dup2\n      lt\n      tag_173\n      jumpi\n      tag_174\n      tag_84\n      jump\t// in\n    tag_174:\n    tag_173:\n      swap1\n      0x00\n      mstore\n      keccak256(0x00, 0x20)\n      swap1\n      0x03\n      mul\n      add\n        /* \"D/diversifiedProofOfStake.sol\":5393:5443  StakeToken memory st = stakeTokens[idxPlusOne - 1] */\n      mload(0x40)\n      dup1\n      0x60\n      add\n      0x40\n      mstore\n      swap1\n      dup2\n      0x00\n      dup3\n      add\n      0x00\n      swap1\n      sload\n      swap1\n      0x0100\n      exp\n      swap1\n      div\n      0xffffffffffffffffffffffffffffffffffffffff\n      and\n      0xffffffffffffffffffffffffffffffffffffffff\n      and\n      0xffffffffffffffffffffffffffffffffffffffff\n      and\n      dup2\n      mstore\n      0x20\n      add\n      0x01\n      dup3\n      add\n      sload\n      dup2\n      mstore\n      0x20\n      add\n      0x02\n      dup3\n      add\n      0x00\n      swap1\n      sload\n      swap1\n      0x0100\n      exp\n      swap1\n      div\n      0xff\n      and\n      iszero\n      iszero\n      iszero\n      iszero\n      dup2\n      mstore\n      pop\n      pop\n      swap1\n      pop\n        /* \"D/diversifiedProofOfStake.sol\":5461:5463  st */\n      dup1\n        /* \"D/diversifiedProofOfStake.sol\":5461:5470  st.active */\n      0x40\n      add\n      mload\n        /* \"D/diversifiedProofOfStake.sol\":5453:5492  require(st.active, \"Token is inactive\") */\n      tag_176\n      jumpi\n      mload(0x40)\n      0x08c379a000000000000000000000000000000000000000000000000000000000\n      dup2\n      mstore\n      0x04\n      add\n      tag_177\n      swap1\n      tag_155\n      jump\t// in\n    tag_177:\n      mload(0x40)\n      dup1\n      swap2\n      sub\n      swap1\n      revert\n    tag_176:\n        /* \"D/diversifiedProofOfStake.sol\":5511:5523  bool success */\n      0x00\n        /* \"D/diversifiedProofOfStake.sol\":5533:5538  token */\n      dup5\n        /* \"D/diversifiedProofOfStake.sol\":5526:5552  IERC20(token).transferFrom */\n      0xffffffffffffffffffffffffffffffffffffffff\n      and\n      0x23b872dd\n        /* \"D/diversifiedProofOfStake.sol\":5553:5563  msg.sender */\n      caller\n        /* \"D/diversifiedProofOfStake.sol\":5573:5577  this */\n      address\n        /* \"D/diversifiedProofOfStake.sol\":5580:5586  amount */\n      dup8\n        /* \"D/diversifiedProofOfStake.sol\":5526:5587  IERC20(token).transferFrom(msg.sender, address(this), amount) */\n      mload(0x40)\n      dup5\n      0xffffffff\n      and\n      0xe0\n      shl\n      dup2\n      mstore\n      0x04\n      add\n      tag_178\n      swap4\n      swap3\n      swap2\n      swap1\n      tag_179\n      jump\t// in\n    tag_178:\n      0x20\n      mload(0x40)\n      dup1\n      dup4\n      sub\n      dup2\n      0x00\n      dup8\n      gas\n      call\n      iszero\n      dup1\n      iszero\n      tag_181\n      jumpi\n      returndatacopy(0x00, 0x00, returndatasize)\n      revert(0x00, returndatasize)\n    tag_181:\n      pop\n      pop\n      pop\n      pop\n      mload(0x40)\n      returndatasize\n      not(0x1f)\n      0x1f\n      dup3\n      add\n      and\n      dup3\n      add\n      dup1\n      0x40\n      mstore\n      pop\n      dup2\n      add\n      swap1\n      tag_182\n      swap2\n      swap1\n      tag_183\n      jump\t// in\n    tag_182:\n        /* \"D/diversifiedProofOfStake.sol\":5511:5587  bool success = IERC20(token).transferFrom(msg.sender, address(this), amount) */\n      swap1\n      pop\n        /* \"D/diversifiedProofOfStake.sol\":5605:5612  success */\n      dup1\n        /* \"D/diversifiedProofOfStake.sol\":5597:5632  require(success, \"Transfer failed\") */\n      tag_184\n      jumpi\n      mload(0x40)\n      0x08c379a000000000000000000000000000000000000000000000000000000000\n      dup2\n      mstore\n      0x04\n      add\n      tag_185\n      swap1\n      tag_186\n      jump\t// in\n    tag_185:\n      mload(0x40)\n      dup1\n      swap2\n      sub\n      swap1\n      revert\n    tag_184:\n        /* \"D/diversifiedProofOfStake.sol\":5675:5681  amount */\n      dup4\n        /* \"D/diversifiedProofOfStake.sol\":5642:5652  userStakes */\n      0x05\n        /* \"D/diversifiedProofOfStake.sol\":5642:5664  userStakes[msg.sender] */\n      0x00\n        /* \"D/diversifiedProofOfStake.sol\":5653:5663  msg.sender */\n      caller\n        /* \"D/diversifiedProofOfStake.sol\":5642:5664  userStakes[msg.sender] */\n      0xffffffffffffffffffffffffffffffffffffffff\n      and\n      0xffffffffffffffffffffffffffffffffffffffff\n      and\n      dup2\n      mstore\n      0x20\n      add\n      swap1\n      dup2\n      mstore\n      0x20\n      add\n      0x00\n      keccak256\n        /* \"D/diversifiedProofOfStake.sol\":5642:5671  userStakes[msg.sender][token] */\n      0x00\n        /* \"D/diversifiedProofOfStake.sol\":5665:5670  token */\n      dup8\n        /* \"D/diversifiedProofOfStake.sol\":5642:5671  userStakes[msg.sender][token] */\n      0xffffffffffffffffffffffffffffffffffffffff\n      and\n      0xffffffffffffffffffffffffffffffffffffffff\n      and\n      dup2\n      mstore\n      0x20\n      add\n      swap1\n      dup2\n      mstore\n      0x20\n      add\n      0x00\n      keccak256\n      0x00\n        /* \"D/diversifiedProofOfStake.sol\":5642:5681  userStakes[msg.sender][token] += amount */\n      dup3\n      dup3\n      sload\n      tag_187\n      swap2\n      swap1\n      tag_90\n      jump\t// in\n    tag_187:\n      swap3\n      pop\n      pop\n      dup2\n      swap1\n      sstore\n      pop\n        /* \"D/diversifiedProofOfStake.sol\":5716:5721  token */\n      dup5\n        /* \"D/diversifiedProofOfStake.sol\":5697:5730  Staked(msg.sender, token, amount) */\n      0xffffffffffffffffffffffffffffffffffffffff\n      and\n        /* \"D/diversifiedProofOfStake.sol\":5704:5714  msg.sender */\n      caller\n        /* \"D/diversifiedProofOfStake.sol\":5697:5730  Staked(msg.sender, token, amount) */\n      0xffffffffffffffffffffffffffffffffffffffff\n      and\n      0x5dac0c1b1112564a045ba943c9d50270893e8e826c49be8e7073adc713ab7bd7\n        /* \"D/diversifiedProofOfStake.sol\":5723:5729  amount */\n      dup7\n        /* \"D/diversifiedProofOfStake.sol\":5697:5730  Staked(msg.sender, token, amount) */\n      mload(0x40)\n      tag_188\n      swap2\n      swap1\n      tag_26\n      jump\t// in\n    tag_188:\n      mload(0x40)\n      dup1\n      swap2\n      sub\n      swap1\n      log3\n        /* \"D/diversifiedProofOfStake.sol\":5211:5737  {... */\n      pop\n      pop\n      pop\n        /* \"@openzeppelin/contracts/security/ReentrancyGuard.sol\":2303:2323  _nonReentrantAfter() */\n      tag_189\n        /* \"@openzeppelin/contracts/security/ReentrancyGuard.sol\":2303:2321  _nonReentrantAfter */\n      tag_190\n        /* \"@openzeppelin/contracts/security/ReentrancyGuard.sol\":2303:2323  _nonReentrantAfter() */\n      jump\t// in\n    tag_189:\n        /* \"D/diversifiedProofOfStake.sol\":5143:5737  function stake(address token, uint256 amount) external nonReentrant {... */\n      pop\n      pop\n      jump\t// out\n        /* \"D/diversifiedProofOfStake.sol\":5917:6417  function unstake(address token, uint256 amount) external nonReentrant {... */\n    tag_71:\n        /* \"@openzeppelin/contracts/security/ReentrancyGuard.sol\":2261:2282  _nonReentrantBefore() */\n      tag_192\n        /* \"@openzeppelin/contracts/security/ReentrancyGuard.sol\":2261:2280  _nonReentrantBefore */\n      tag_165\n        /* \"@openzeppelin/contracts/security/ReentrancyGuard.sol\":2261:2282  _nonReentrantBefore() */\n      jump\t// in\n    tag_192:\n        /* \"D/diversifiedProofOfStake.sol\":6014:6015  0 */\n      0x00\n        /* \"D/diversifiedProofOfStake.sol\":6005:6011  amount */\n      dup2\n        /* \"D/diversifiedProofOfStake.sol\":6005:6015  amount > 0 */\n      gt\n        /* \"D/diversifiedProofOfStake.sol\":5997:6046  require(amount > 0, \"Unstake amount must be > 0\") */\n      tag_194\n      jumpi\n      mload(0x40)\n      0x08c379a000000000000000000000000000000000000000000000000000000000\n      dup2\n      mstore\n      0x04\n      add\n      tag_195\n      swap1\n      tag_196\n      jump\t// in\n    tag_195:\n      mload(0x40)\n      dup1\n      swap2\n      sub\n      swap1\n      revert\n    tag_194:\n        /* \"D/diversifiedProofOfStake.sol\":6056:6077  uint256 stakedBalance */\n      0x00\n        /* \"D/diversifiedProofOfStake.sol\":6080:6090  userStakes */\n      0x05\n        /* \"D/diversifiedProofOfStake.sol\":6080:6102  userStakes[msg.sender] */\n      0x00\n        /* \"D/diversifiedProofOfStake.sol\":6091:6101  msg.sender */\n      caller\n        /* \"D/diversifiedProofOfStake.sol\":6080:6102  userStakes[msg.sender] */\n      0xffffffffffffffffffffffffffffffffffffffff\n      and\n      0xffffffffffffffffffffffffffffffffffffffff\n      and\n      dup2\n      mstore\n      0x20\n      add\n      swap1\n      dup2\n      mstore\n      0x20\n      add\n      0x00\n      keccak256\n        /* \"D/diversifiedProofOfStake.sol\":6080:6109  userStakes[msg.sender][token] */\n      0x00\n        /* \"D/diversifiedProofOfStake.sol\":6103:6108  token */\n      dup5\n        /* \"D/diversifiedProofOfStake.sol\":6080:6109  userStakes[msg.sender][token] */\n      0xffffffffffffffffffffffffffffffffffffffff\n      and\n      0xffffffffffffffffffffffffffffffffffffffff\n      and\n      dup2\n      mstore\n      0x20\n      add\n      swap1\n      dup2\n      mstore\n      0x20\n      add\n      0x00\n      keccak256\n      sload\n        /* \"D/diversifiedProofOfStake.sol\":6056:6109  uint256 stakedBalance = userStakes[msg.sender][token] */\n      swap1\n      pop\n        /* \"D/diversifiedProofOfStake.sol\":6144:6150  amount */\n      dup2\n        /* \"D/diversifiedProofOfStake.sol\":6127:6140  stakedBalance */\n      dup2\n        /* \"D/diversifiedProofOfStake.sol\":6127:6150  stakedBalance >= amount */\n      lt\n      iszero\n        /* \"D/diversifiedProofOfStake.sol\":6119:6182  require(stakedBalance >= amount, \"Insufficient staked balance\") */\n      tag_197\n      jumpi\n      mload(0x40)\n      0x08c379a000000000000000000000000000000000000000000000000000000000\n      dup2\n      mstore\n      0x04\n      add\n      tag_198\n      swap1\n      tag_199\n      jump\t// in\n    tag_198:\n      mload(0x40)\n      dup1\n      swap2\n      sub\n      swap1\n      revert\n    tag_197:\n        /* \"D/diversifiedProofOfStake.sol\":6241:6247  amount */\n      dup2\n        /* \"D/diversifiedProofOfStake.sol\":6225:6238  stakedBalance */\n      dup2\n        /* \"D/diversifiedProofOfStake.sol\":6225:6247  stakedBalance - amount */\n      tag_200\n      swap2\n      swap1\n      tag_99\n      jump\t// in\n    tag_200:\n        /* \"D/diversifiedProofOfStake.sol\":6193:6203  userStakes */\n      0x05\n        /* \"D/diversifiedProofOfStake.sol\":6193:6215  userStakes[msg.sender] */\n      0x00\n        /* \"D/diversifiedProofOfStake.sol\":6204:6214  msg.sender */\n      caller\n        /* \"D/diversifiedProofOfStake.sol\":6193:6215  userStakes[msg.sender] */\n      0xffffffffffffffffffffffffffffffffffffffff\n      and\n      0xffffffffffffffffffffffffffffffffffffffff\n      and\n      dup2\n      mstore\n      0x20\n      add\n      swap1\n      dup2\n      mstore\n      0x20\n      add\n      0x00\n      keccak256\n        /* \"D/diversifiedProofOfStake.sol\":6193:6222  userStakes[msg.sender][token] */\n      0x00\n        /* \"D/diversifiedProofOfStake.sol\":6216:6221  token */\n      dup6\n        /* \"D/diversifiedProofOfStake.sol\":6193:6222  userStakes[msg.sender][token] */\n      0xffffffffffffffffffffffffffffffffffffffff\n      and\n      0xffffffffffffffffffffffffffffffffffffffff\n      and\n      dup2\n      mstore\n      0x20\n      add\n      swap1\n      dup2\n      mstore\n      0x20\n      add\n      0x00\n      keccak256\n        /* \"D/diversifiedProofOfStake.sol\":6193:6247  userStakes[msg.sender][token] = stakedBalance - amount */\n      dup2\n      swap1\n      sstore\n      pop\n        /* \"D/diversifiedProofOfStake.sol\":6257:6269  bool success */\n      0x00\n        /* \"D/diversifiedProofOfStake.sol\":6279:6284  token */\n      dup4\n        /* \"D/diversifiedProofOfStake.sol\":6272:6294  IERC20(token).transfer */\n      0xffffffffffffffffffffffffffffffffffffffff\n      and\n      0xa9059cbb\n        /* \"D/diversifiedProofOfStake.sol\":6295:6305  msg.sender */\n      caller\n        /* \"D/diversifiedProofOfStake.sol\":6307:6313  amount */\n      dup6\n        /* \"D/diversifiedProofOfStake.sol\":6272:6314  IERC20(token).transfer(msg.sender, amount) */\n      mload(0x40)\n      dup4\n      0xffffffff\n      and\n      0xe0\n      shl\n      dup2\n      mstore\n      0x04\n      add\n      tag_201\n      swap3\n      swap2\n      swap1\n      tag_202\n      jump\t// in\n    tag_201:\n      0x20\n      mload(0x40)\n      dup1\n      dup4\n      sub\n      dup2\n      0x00\n      dup8\n      gas\n      call\n      iszero\n      dup1\n      iszero\n      tag_204\n      jumpi\n      returndatacopy(0x00, 0x00, returndatasize)\n      revert(0x00, returndatasize)\n    tag_204:\n      pop\n      pop\n      pop\n      pop\n      mload(0x40)\n      returndatasize\n      not(0x1f)\n      0x1f\n      dup3\n      add\n      and\n      dup3\n      add\n      dup1\n      0x40\n      mstore\n      pop\n      dup2\n      add\n      swap1\n      tag_205\n      swap2\n      swap1\n      tag_183\n      jump\t// in\n    tag_205:\n        /* \"D/diversifiedProofOfStake.sol\":6257:6314  bool success = IERC20(token).transfer(msg.sender, amount) */\n      swap1\n      pop\n        /* \"D/diversifiedProofOfStake.sol\":6332:6339  success */\n      dup1\n        /* \"D/diversifiedProofOfStake.sol\":6324:6359  require(success, \"Transfer failed\") */\n      tag_206\n      jumpi\n      mload(0x40)\n      0x08c379a000000000000000000000000000000000000000000000000000000000\n      dup2\n      mstore\n      0x04\n      add\n      tag_207\n      swap1\n      tag_186\n      jump\t// in\n    tag_207:\n      mload(0x40)\n      dup1\n      swap2\n      sub\n      swap1\n      revert\n    tag_206:\n        /* \"D/diversifiedProofOfStake.sol\":6396:6401  token */\n      dup4\n        /* \"D/diversifiedProofOfStake.sol\":6375:6410  Unstaked(msg.sender, token, amount) */\n      0xffffffffffffffffffffffffffffffffffffffff\n      and\n        /* \"D/diversifiedProofOfStake.sol\":6384:6394  msg.sender */\n      caller\n        /* \"D/diversifiedProofOfStake.sol\":6375:6410  Unstaked(msg.sender, token, amount) */\n      0xffffffffffffffffffffffffffffffffffffffff\n      and\n      0xd8654fcc8cf5b36d30b3f5e4688fc78118e6d68de60b9994e09902268b57c3e3\n        /* \"D/diversifiedProofOfStake.sol\":6403:6409  amount */\n      dup6\n        /* \"D/diversifiedProofOfStake.sol\":6375:6410  Unstaked(msg.sender, token, amount) */\n      mload(0x40)\n      tag_208\n      swap2\n      swap1\n      tag_26\n      jump\t// in\n    tag_208:\n      mload(0x40)\n      dup1\n      swap2\n      sub\n      swap1\n      log3\n        /* \"D/diversifiedProofOfStake.sol\":5987:6417  {... */\n      pop\n      pop\n        /* \"@openzeppelin/contracts/security/ReentrancyGuard.sol\":2303:2323  _nonReentrantAfter() */\n      tag_209\n        /* \"@openzeppelin/contracts/security/ReentrancyGuard.sol\":2303:2321  _nonReentrantAfter */\n      tag_190\n        /* \"@openzeppelin/contracts/security/ReentrancyGuard.sol\":2303:2323  _nonReentrantAfter() */\n      jump\t// in\n    tag_209:\n        /* \"D/diversifiedProofOfStake.sol\":5917:6417  function unstake(address token, uint256 amount) external nonReentrant {... */\n      pop\n      pop\n      jump\t// out\n        /* \"D/diversifiedProofOfStake.sol\":1573:1603  uint256 public totalWeightsBps */\n    tag_73:\n      sload(0x04)\n      dup2\n      jump\t// out\n        /* \"@openzeppelin/contracts/access/Ownable.sol\":2543:2758  function transferOwnership(address newOwner) public virtual onlyOwner {... */\n    tag_77:\n        /* \"@openzeppelin/contracts/access/Ownable.sol\":1531:1544  _checkOwner() */\n      tag_211\n        /* \"@openzeppelin/contracts/access/Ownable.sol\":1531:1542  _checkOwner */\n      tag_93\n        /* \"@openzeppelin/contracts/access/Ownable.sol\":1531:1544  _checkOwner() */\n      jump\t// in\n    tag_211:\n        /* \"@openzeppelin/contracts/access/Ownable.sol\":2647:2648  0 */\n      0x00\n        /* \"@openzeppelin/contracts/access/Ownable.sol\":2627:2649  newOwner == address(0) */\n      0xffffffffffffffffffffffffffffffffffffffff\n      and\n        /* \"@openzeppelin/contracts/access/Ownable.sol\":2627:2635  newOwner */\n      dup2\n        /* \"@openzeppelin/contracts/access/Ownable.sol\":2627:2649  newOwner == address(0) */\n      0xffffffffffffffffffffffffffffffffffffffff\n      and\n      sub\n        /* \"@openzeppelin/contracts/access/Ownable.sol\":2623:2714  if (newOwner == address(0)) {... */\n      tag_213\n      jumpi\n        /* \"@openzeppelin/contracts/access/Ownable.sol\":2700:2701  0 */\n      0x00\n        /* \"@openzeppelin/contracts/access/Ownable.sol\":2672:2703  OwnableInvalidOwner(address(0)) */\n      mload(0x40)\n      0x1e4fbdf700000000000000000000000000000000000000000000000000000000\n      dup2\n      mstore\n      0x04\n      add\n      tag_214\n      swap2\n      swap1\n      tag_62\n      jump\t// in\n    tag_214:\n      mload(0x40)\n      dup1\n      swap2\n      sub\n      swap1\n      revert\n        /* \"@openzeppelin/contracts/access/Ownable.sol\":2623:2714  if (newOwner == address(0)) {... */\n    tag_213:\n        /* \"@openzeppelin/contracts/access/Ownable.sol\":2723:2751  _transferOwnership(newOwner) */\n      tag_215\n        /* \"@openzeppelin/contracts/access/Ownable.sol\":2742:2750  newOwner */\n      dup2\n        /* \"@openzeppelin/contracts/access/Ownable.sol\":2723:2741  _transferOwnership */\n      tag_121\n        /* \"@openzeppelin/contracts/access/Ownable.sol\":2723:2751  _transferOwnership(newOwner) */\n      jump\t// in\n    tag_215:\n        /* \"@openzeppelin/contracts/access/Ownable.sol\":2543:2758  function transferOwnership(address newOwner) public virtual onlyOwner {... */\n      pop\n      jump\t// out\n        /* \"@openzeppelin/contracts/access/Ownable.sol\":1796:1958  function _checkOwner() internal view virtual {... */\n    tag_93:\n        /* \"@openzeppelin/contracts/access/Ownable.sol\":1866:1878  _msgSender() */\n      tag_217\n        /* \"@openzeppelin/contracts/access/Ownable.sol\":1866:1876  _msgSender */\n      tag_218\n        /* \"@openzeppelin/contracts/access/Ownable.sol\":1866:1878  _msgSender() */\n      jump\t// in\n    tag_217:\n        /* \"@openzeppelin/contracts/access/Ownable.sol\":1855:1878  owner() != _msgSender() */\n      0xffffffffffffffffffffffffffffffffffffffff\n      and\n        /* \"@openzeppelin/contracts/access/Ownable.sol\":1855:1862  owner() */\n      tag_219\n        /* \"@openzeppelin/contracts/access/Ownable.sol\":1855:1860  owner */\n      tag_60\n        /* \"@openzeppelin/contracts/access/Ownable.sol\":1855:1862  owner() */\n      jump\t// in\n    tag_219:\n        /* \"@openzeppelin/contracts/access/Ownable.sol\":1855:1878  owner() != _msgSender() */\n      0xffffffffffffffffffffffffffffffffffffffff\n      and\n      eq\n        /* \"@openzeppelin/contracts/access/Ownable.sol\":1851:1952  if (owner() != _msgSender()) {... */\n      tag_220\n      jumpi\n        /* \"@openzeppelin/contracts/access/Ownable.sol\":1928:1940  _msgSender() */\n      tag_221\n        /* \"@openzeppelin/contracts/access/Ownable.sol\":1928:1938  _msgSender */\n      tag_218\n        /* \"@openzeppelin/contracts/access/Ownable.sol\":1928:1940  _msgSender() */\n      jump\t// in\n    tag_221:\n        /* \"@openzeppelin/contracts/access/Ownable.sol\":1901:1941  OwnableUnauthorizedAccount(_msgSender()) */\n      mload(0x40)\n      0x118cdaa700000000000000000000000000000000000000000000000000000000\n      dup2\n      mstore\n      0x04\n      add\n      tag_222\n      swap2\n      swap1\n      tag_62\n      jump\t// in\n    tag_222:\n      mload(0x40)\n      dup1\n      swap2\n      sub\n      swap1\n      revert\n        /* \"@openzeppelin/contracts/access/Ownable.sol\":1851:1952  if (owner() != _msgSender()) {... */\n    tag_220:\n        /* \"@openzeppelin/contracts/access/Ownable.sol\":1796:1958  function _checkOwner() internal view virtual {... */\n      jump\t// out\n        /* \"@openzeppelin/contracts/access/Ownable.sol\":2912:3099  function _transferOwnership(address newOwner) internal virtual {... */\n    tag_121:\n        /* \"@openzeppelin/contracts/access/Ownable.sol\":2985:3001  address oldOwner */\n      0x00\n        /* \"@openzeppelin/contracts/access/Ownable.sol\":3004:3010  _owner */\n      0x00\n      0x00\n      swap1\n      sload\n      swap1\n      0x0100\n      exp\n      swap1\n      div\n      0xffffffffffffffffffffffffffffffffffffffff\n      and\n        /* \"@openzeppelin/contracts/access/Ownable.sol\":2985:3010  address oldOwner = _owner */\n      swap1\n      pop\n        /* \"@openzeppelin/contracts/access/Ownable.sol\":3029:3037  newOwner */\n      dup2\n        /* \"@openzeppelin/contracts/access/Ownable.sol\":3020:3026  _owner */\n      0x00\n      0x00\n        /* \"@openzeppelin/contracts/access/Ownable.sol\":3020:3037  _owner = newOwner */\n      0x0100\n      exp\n      dup2\n      sload\n      dup2\n      0xffffffffffffffffffffffffffffffffffffffff\n      mul\n      not\n      and\n      swap1\n      dup4\n      0xffffffffffffffffffffffffffffffffffffffff\n      and\n      mul\n      or\n      swap1\n      sstore\n      pop\n        /* \"@openzeppelin/contracts/access/Ownable.sol\":3083:3091  newOwner */\n      dup2\n        /* \"@openzeppelin/contracts/access/Ownable.sol\":3052:3092  OwnershipTransferred(oldOwner, newOwner) */\n      0xffffffffffffffffffffffffffffffffffffffff\n      and\n        /* \"@openzeppelin/contracts/access/Ownable.sol\":3073:3081  oldOwner */\n      dup2\n        /* \"@openzeppelin/contracts/access/Ownable.sol\":3052:3092  OwnershipTransferred(oldOwner, newOwner) */\n      0xffffffffffffffffffffffffffffffffffffffff\n      and\n      0x8be0079c531659141344cd1fd0a4f28419497f9722a3daafe3b4186f6b6457e0\n      mload(0x40)\n      mload(0x40)\n      dup1\n      swap2\n      sub\n      swap1\n      log3\n        /* \"@openzeppelin/contracts/access/Ownable.sol\":2975:3099  {... */\n      pop\n        /* \"@openzeppelin/contracts/access/Ownable.sol\":2912:3099  function _transferOwnership(address newOwner) internal virtual {... */\n      pop\n      jump\t// out\n        /* \"@openzeppelin/contracts/security/ReentrancyGuard.sol\":2336:2623  function _nonReentrantBefore() private {... */\n    tag_165:\n        /* \"@openzeppelin/contracts/security/ReentrancyGuard.sol\":1759:1760  2 */\n      0x02\n        /* \"@openzeppelin/contracts/security/ReentrancyGuard.sol\":2468:2475  _status */\n      sload(0x01)\n        /* \"@openzeppelin/contracts/security/ReentrancyGuard.sol\":2468:2487  _status != _ENTERED */\n      sub\n        /* \"@openzeppelin/contracts/security/ReentrancyGuard.sol\":2460:2523  require(_status != _ENTERED, \"ReentrancyGuard: reentrant call\") */\n      tag_225\n      jumpi\n      mload(0x40)\n      0x08c379a000000000000000000000000000000000000000000000000000000000\n      dup2\n      mstore\n      0x04\n      add\n      tag_226\n      swap1\n      tag_227\n      jump\t// in\n    tag_226:\n      mload(0x40)\n      dup1\n      swap2\n      sub\n      swap1\n      revert\n    tag_225:\n        /* \"@openzeppelin/contracts/security/ReentrancyGuard.sol\":1759:1760  2 */\n      0x02\n        /* \"@openzeppelin/contracts/security/ReentrancyGuard.sol\":2598:2605  _status */\n      0x01\n        /* \"@openzeppelin/contracts/security/ReentrancyGuard.sol\":2598:2616  _status = _ENTERED */\n      dup2\n      swap1\n      sstore\n      pop\n        /* \"@openzeppelin/contracts/security/ReentrancyGuard.sol\":2336:2623  function _nonReentrantBefore() private {... */\n      jump\t// out\n        /* \"@openzeppelin/contracts/security/ReentrancyGuard.sol\":2629:2838  function _nonReentrantAfter() private {... */\n    tag_190:\n        /* \"@openzeppelin/contracts/security/ReentrancyGuard.sol\":1716:1717  1 */\n      0x01\n        /* \"@openzeppelin/contracts/security/ReentrancyGuard.sol\":2809:2816  _status */\n      dup1\n        /* \"@openzeppelin/contracts/security/ReentrancyGuard.sol\":2809:2831  _status = _NOT_ENTERED */\n      dup2\n      swap1\n      sstore\n      pop\n        /* \"@openzeppelin/contracts/security/ReentrancyGuard.sol\":2629:2838  function _nonReentrantAfter() private {... */\n      jump\t// out\n        /* \"@openzeppelin/contracts/utils/Context.sol\":656:752  function _msgSender() internal view virtual returns (address) {... */\n    tag_218:\n        /* \"@openzeppelin/contracts/utils/Context.sol\":709:716  address */\n      0x00\n        /* \"@openzeppelin/contracts/utils/Context.sol\":735:745  msg.sender */\n      caller\n        /* \"@openzeppelin/contracts/utils/Context.sol\":728:745  return msg.sender */\n      swap1\n      pop\n        /* \"@openzeppelin/contracts/utils/Context.sol\":656:752  function _msgSender() internal view virtual returns (address) {... */\n      swap1\n      jump\t// out\n    tag_109:\n      mload(0x40)\n      dup1\n      0x60\n      add\n      0x40\n      mstore\n      dup1\n      and(0xffffffffffffffffffffffffffffffffffffffff, 0x00)\n      dup2\n      mstore\n      0x20\n      add\n      0x00\n      dup2\n      mstore\n      0x20\n      add\n      iszero(iszero(0x00))\n      dup2\n      mstore\n      pop\n      swap1\n      jump\t// out\n        /* \"#utility.yul\":88:205   */\n    tag_231:\n        /* \"#utility.yul\":197:198   */\n      0x00\n        /* \"#utility.yul\":194:195   */\n      0x00\n        /* \"#utility.yul\":187:199   */\n      revert\n        /* \"#utility.yul\":334:460   */\n    tag_233:\n        /* \"#utility.yul\":371:378   */\n      0x00\n        /* \"#utility.yul\":411:453   */\n      0xffffffffffffffffffffffffffffffffffffffff\n        /* \"#utility.yul\":404:409   */\n      dup3\n        /* \"#utility.yul\":400:454   */\n      and\n        /* \"#utility.yul\":389:454   */\n      swap1\n      pop\n        /* \"#utility.yul\":334:460   */\n      swap2\n      swap1\n      pop\n      jump\t// out\n        /* \"#utility.yul\":466:562   */\n    tag_234:\n        /* \"#utility.yul\":503:510   */\n      0x00\n        /* \"#utility.yul\":532:556   */\n      tag_284\n        /* \"#utility.yul\":550:555   */\n      dup3\n        /* \"#utility.yul\":532:556   */\n      tag_233\n      jump\t// in\n    tag_284:\n        /* \"#utility.yul\":521:556   */\n      swap1\n      pop\n        /* \"#utility.yul\":466:562   */\n      swap2\n      swap1\n      pop\n      jump\t// out\n        /* \"#utility.yul\":568:690   */\n    tag_235:\n        /* \"#utility.yul\":641:665   */\n      tag_286\n        /* \"#utility.yul\":659:664   */\n      dup2\n        /* \"#utility.yul\":641:665   */\n      tag_234\n      jump\t// in\n    tag_286:\n        /* \"#utility.yul\":634:639   */\n      dup2\n        /* \"#utility.yul\":631:666   */\n      eq\n        /* \"#utility.yul\":621:684   */\n      tag_287\n      jumpi\n        /* \"#utility.yul\":680:681   */\n      0x00\n        /* \"#utility.yul\":677:678   */\n      0x00\n        /* \"#utility.yul\":670:682   */\n      revert\n        /* \"#utility.yul\":621:684   */\n    tag_287:\n        /* \"#utility.yul\":568:690   */\n      pop\n      jump\t// out\n        /* \"#utility.yul\":696:835   */\n    tag_236:\n        /* \"#utility.yul\":742:747   */\n      0x00\n        /* \"#utility.yul\":780:786   */\n      dup2\n        /* \"#utility.yul\":767:787   */\n      calldataload\n        /* \"#utility.yul\":758:787   */\n      swap1\n      pop\n        /* \"#utility.yul\":796:829   */\n      tag_289\n        /* \"#utility.yul\":823:828   */\n      dup2\n        /* \"#utility.yul\":796:829   */\n      tag_235\n      jump\t// in\n    tag_289:\n        /* \"#utility.yul\":696:835   */\n      swap3\n      swap2\n      pop\n      pop\n      jump\t// out\n        /* \"#utility.yul\":841:1170   */\n    tag_23:\n        /* \"#utility.yul\":900:906   */\n      0x00\n        /* \"#utility.yul\":949:951   */\n      0x20\n        /* \"#utility.yul\":937:946   */\n      dup3\n        /* \"#utility.yul\":928:935   */\n      dup5\n        /* \"#utility.yul\":924:947   */\n      sub\n        /* \"#utility.yul\":920:952   */\n      slt\n        /* \"#utility.yul\":917:1036   */\n      iszero\n      tag_291\n      jumpi\n        /* \"#utility.yul\":955:1034   */\n      tag_292\n      tag_231\n      jump\t// in\n    tag_292:\n        /* \"#utility.yul\":917:1036   */\n    tag_291:\n        /* \"#utility.yul\":1075:1076   */\n      0x00\n        /* \"#utility.yul\":1100:1153   */\n      tag_293\n        /* \"#utility.yul\":1145:1152   */\n      dup5\n        /* \"#utility.yul\":1136:1142   */\n      dup3\n        /* \"#utility.yul\":1125:1134   */\n      dup6\n        /* \"#utility.yul\":1121:1143   */\n      add\n        /* \"#utility.yul\":1100:1153   */\n      tag_236\n      jump\t// in\n    tag_293:\n        /* \"#utility.yul\":1090:1153   */\n      swap2\n      pop\n        /* \"#utility.yul\":1046:1163   */\n      pop\n        /* \"#utility.yul\":841:1170   */\n      swap3\n      swap2\n      pop\n      pop\n      jump\t// out\n        /* \"#utility.yul\":1176:1253   */\n    tag_237:\n        /* \"#utility.yul\":1213:1220   */\n      0x00\n        /* \"#utility.yul\":1242:1247   */\n      dup2\n        /* \"#utility.yul\":1231:1247   */\n      swap1\n      pop\n        /* \"#utility.yul\":1176:1253   */\n      swap2\n      swap1\n      pop\n      jump\t// out\n        /* \"#utility.yul\":1259:1377   */\n    tag_238:\n        /* \"#utility.yul\":1346:1370   */\n      tag_296\n        /* \"#utility.yul\":1364:1369   */\n      dup2\n        /* \"#utility.yul\":1346:1370   */\n      tag_237\n      jump\t// in\n    tag_296:\n        /* \"#utility.yul\":1341:1344   */\n      dup3\n        /* \"#utility.yul\":1334:1371   */\n      mstore\n        /* \"#utility.yul\":1259:1377   */\n      pop\n      pop\n      jump\t// out\n        /* \"#utility.yul\":1383:1605   */\n    tag_26:\n        /* \"#utility.yul\":1476:1480   */\n      0x00\n        /* \"#utility.yul\":1514:1516   */\n      0x20\n        /* \"#utility.yul\":1503:1512   */\n      dup3\n        /* \"#utility.yul\":1499:1517   */\n      add\n        /* \"#utility.yul\":1491:1517   */\n      swap1\n      pop\n        /* \"#utility.yul\":1527:1598   */\n      tag_298\n        /* \"#utility.yul\":1595:1596   */\n      0x00\n        /* \"#utility.yul\":1584:1593   */\n      dup4\n        /* \"#utility.yul\":1580:1597   */\n      add\n        /* \"#utility.yul\":1571:1577   */\n      dup5\n        /* \"#utility.yul\":1527:1598   */\n      tag_238\n      jump\t// in\n    tag_298:\n        /* \"#utility.yul\":1383:1605   */\n      swap3\n      swap2\n      pop\n      pop\n      jump\t// out\n        /* \"#utility.yul\":1611:1733   */\n    tag_239:\n        /* \"#utility.yul\":1684:1708   */\n      tag_300\n        /* \"#utility.yul\":1702:1707   */\n      dup2\n        /* \"#utility.yul\":1684:1708   */\n      tag_237\n      jump\t// in\n    tag_300:\n        /* \"#utility.yul\":1677:1682   */\n      dup2\n        /* \"#utility.yul\":1674:1709   */\n      eq\n        /* \"#utility.yul\":1664:1727   */\n      tag_301\n      jumpi\n        /* \"#utility.yul\":1723:1724   */\n      0x00\n        /* \"#utility.yul\":1720:1721   */\n      0x00\n        /* \"#utility.yul\":1713:1725   */\n      revert\n        /* \"#utility.yul\":1664:1727   */\n    tag_301:\n        /* \"#utility.yul\":1611:1733   */\n      pop\n      jump\t// out\n        /* \"#utility.yul\":1739:1878   */\n    tag_240:\n        /* \"#utility.yul\":1785:1790   */\n      0x00\n        /* \"#utility.yul\":1823:1829   */\n      dup2\n        /* \"#utility.yul\":1810:1830   */\n      calldataload\n        /* \"#utility.yul\":1801:1830   */\n      swap1\n      pop\n        /* \"#utility.yul\":1839:1872   */\n      tag_303\n        /* \"#utility.yul\":1866:1871   */\n      dup2\n        /* \"#utility.yul\":1839:1872   */\n      tag_239\n      jump\t// in\n    tag_303:\n        /* \"#utility.yul\":1739:1878   */\n      swap3\n      swap2\n      pop\n      pop\n      jump\t// out\n        /* \"#utility.yul\":1884:2213   */\n    tag_39:\n        /* \"#utility.yul\":1943:1949   */\n      0x00\n        /* \"#utility.yul\":1992:1994   */\n      0x20\n        /* \"#utility.yul\":1980:1989   */\n      dup3\n        /* \"#utility.yul\":1971:1978   */\n      dup5\n        /* \"#utility.yul\":1967:1990   */\n      sub\n        /* \"#utility.yul\":1963:1995   */\n      slt\n        /* \"#utility.yul\":1960:2079   */\n      iszero\n      tag_305\n      jumpi\n        /* \"#utility.yul\":1998:2077   */\n      tag_306\n      tag_231\n      jump\t// in\n    tag_306:\n        /* \"#utility.yul\":1960:2079   */\n    tag_305:\n        /* \"#utility.yul\":2118:2119   */\n      0x00\n        /* \"#utility.yul\":2143:2196   */\n      tag_307\n        /* \"#utility.yul\":2188:2195   */\n      dup5\n        /* \"#utility.yul\":2179:2185   */\n      dup3\n        /* \"#utility.yul\":2168:2177   */\n      dup6\n        /* \"#utility.yul\":2164:2186   */\n      add\n        /* \"#utility.yul\":2143:2196   */\n      tag_240\n      jump\t// in\n    tag_307:\n        /* \"#utility.yul\":2133:2196   */\n      swap2\n      pop\n        /* \"#utility.yul\":2089:2206   */\n      pop\n        /* \"#utility.yul\":1884:2213   */\n      swap3\n      swap2\n      pop\n      pop\n      jump\t// out\n        /* \"#utility.yul\":2219:2327   */\n    tag_241:\n        /* \"#utility.yul\":2296:2320   */\n      tag_309\n        /* \"#utility.yul\":2314:2319   */\n      dup2\n        /* \"#utility.yul\":2296:2320   */\n      tag_234\n      jump\t// in\n    tag_309:\n        /* \"#utility.yul\":2291:2294   */\n      dup3\n        /* \"#utility.yul\":2284:2321   */\n      mstore\n        /* \"#utility.yul\":2219:2327   */\n      pop\n      pop\n      jump\t// out\n        /* \"#utility.yul\":2333:2441   */\n    tag_242:\n        /* \"#utility.yul\":2410:2434   */\n      tag_311\n        /* \"#utility.yul\":2428:2433   */\n      dup2\n        /* \"#utility.yul\":2410:2434   */\n      tag_237\n      jump\t// in\n    tag_311:\n        /* \"#utility.yul\":2405:2408   */\n      dup3\n        /* \"#utility.yul\":2398:2435   */\n      mstore\n        /* \"#utility.yul\":2333:2441   */\n      pop\n      pop\n      jump\t// out\n        /* \"#utility.yul\":2447:2537   */\n    tag_243:\n        /* \"#utility.yul\":2481:2488   */\n      0x00\n        /* \"#utility.yul\":2524:2529   */\n      dup2\n        /* \"#utility.yul\":2517:2530   */\n      iszero\n        /* \"#utility.yul\":2510:2531   */\n      iszero\n        /* \"#utility.yul\":2499:2531   */\n      swap1\n      pop\n        /* \"#utility.yul\":2447:2537   */\n      swap2\n      swap1\n      pop\n      jump\t// out\n        /* \"#utility.yul\":2543:2642   */\n    tag_244:\n        /* \"#utility.yul\":2614:2635   */\n      tag_314\n        /* \"#utility.yul\":2629:2634   */\n      dup2\n        /* \"#utility.yul\":2614:2635   */\n      tag_243\n      jump\t// in\n    tag_314:\n        /* \"#utility.yul\":2609:2612   */\n      dup3\n        /* \"#utility.yul\":2602:2636   */\n      mstore\n        /* \"#utility.yul\":2543:2642   */\n      pop\n      pop\n      jump\t// out\n        /* \"#utility.yul\":2742:3429   */\n    tag_245:\n        /* \"#utility.yul\":2893:2897   */\n      0x60\n        /* \"#utility.yul\":2888:2891   */\n      dup3\n        /* \"#utility.yul\":2884:2898   */\n      add\n        /* \"#utility.yul\":2981:2985   */\n      0x00\n        /* \"#utility.yul\":2974:2979   */\n      dup3\n        /* \"#utility.yul\":2970:2986   */\n      add\n        /* \"#utility.yul\":2964:2987   */\n      mload\n        /* \"#utility.yul\":3000:3063   */\n      tag_316\n        /* \"#utility.yul\":3057:3061   */\n      0x00\n        /* \"#utility.yul\":3052:3055   */\n      dup6\n        /* \"#utility.yul\":3048:3062   */\n      add\n        /* \"#utility.yul\":3034:3046   */\n      dup3\n        /* \"#utility.yul\":3000:3063   */\n      tag_241\n      jump\t// in\n    tag_316:\n        /* \"#utility.yul\":2908:3073   */\n      pop\n        /* \"#utility.yul\":3160:3164   */\n      0x20\n        /* \"#utility.yul\":3153:3158   */\n      dup3\n        /* \"#utility.yul\":3149:3165   */\n      add\n        /* \"#utility.yul\":3143:3166   */\n      mload\n        /* \"#utility.yul\":3179:3242   */\n      tag_317\n        /* \"#utility.yul\":3236:3240   */\n      0x20\n        /* \"#utility.yul\":3231:3234   */\n      dup6\n        /* \"#utility.yul\":3227:3241   */\n      add\n        /* \"#utility.yul\":3213:3225   */\n      dup3\n        /* \"#utility.yul\":3179:3242   */\n      tag_242\n      jump\t// in\n    tag_317:\n        /* \"#utility.yul\":3083:3252   */\n      pop\n        /* \"#utility.yul\":3336:3340   */\n      0x40\n        /* \"#utility.yul\":3329:3334   */\n      dup3\n        /* \"#utility.yul\":3325:3341   */\n      add\n        /* \"#utility.yul\":3319:3342   */\n      mload\n        /* \"#utility.yul\":3355:3412   */\n      tag_318\n        /* \"#utility.yul\":3406:3410   */\n      0x40\n        /* \"#utility.yul\":3401:3404   */\n      dup6\n        /* \"#utility.yul\":3397:3411   */\n      add\n        /* \"#utility.yul\":3383:3395   */\n      dup3\n        /* \"#utility.yul\":3355:3412   */\n      tag_244\n      jump\t// in\n    tag_318:\n        /* \"#utility.yul\":3262:3422   */\n      pop\n        /* \"#utility.yul\":2862:3429   */\n      pop\n        /* \"#utility.yul\":2742:3429   */\n      pop\n      pop\n      jump\t// out\n        /* \"#utility.yul\":3435:3765   */\n    tag_42:\n        /* \"#utility.yul\":3582:3586   */\n      0x00\n        /* \"#utility.yul\":3620:3622   */\n      0x60\n        /* \"#utility.yul\":3609:3618   */\n      dup3\n        /* \"#utility.yul\":3605:3623   */\n      add\n        /* \"#utility.yul\":3597:3623   */\n      swap1\n      pop\n        /* \"#utility.yul\":3633:3758   */\n      tag_320\n        /* \"#utility.yul\":3755:3756   */\n      0x00\n        /* \"#utility.yul\":3744:3753   */\n      dup4\n        /* \"#utility.yul\":3740:3757   */\n      add\n        /* \"#utility.yul\":3731:3737   */\n      dup5\n        /* \"#utility.yul\":3633:3758   */\n      tag_245\n      jump\t// in\n    tag_320:\n        /* \"#utility.yul\":3435:3765   */\n      swap3\n      swap2\n      pop\n      pop\n      jump\t// out\n        /* \"#utility.yul\":3771:3889   */\n    tag_246:\n        /* \"#utility.yul\":3858:3882   */\n      tag_322\n        /* \"#utility.yul\":3876:3881   */\n      dup2\n        /* \"#utility.yul\":3858:3882   */\n      tag_234\n      jump\t// in\n    tag_322:\n        /* \"#utility.yul\":3853:3856   */\n      dup3\n        /* \"#utility.yul\":3846:3883   */\n      mstore\n        /* \"#utility.yul\":3771:3889   */\n      pop\n      pop\n      jump\t// out\n        /* \"#utility.yul\":3895:4004   */\n    tag_247:\n        /* \"#utility.yul\":3976:3997   */\n      tag_324\n        /* \"#utility.yul\":3991:3996   */\n      dup2\n        /* \"#utility.yul\":3976:3997   */\n      tag_243\n      jump\t// in\n    tag_324:\n        /* \"#utility.yul\":3971:3974   */\n      dup3\n        /* \"#utility.yul\":3964:3998   */\n      mstore\n        /* \"#utility.yul\":3895:4004   */\n      pop\n      pop\n      jump\t// out\n        /* \"#utility.yul\":4010:4440   */\n    tag_49:\n        /* \"#utility.yul\":4153:4157   */\n      0x00\n        /* \"#utility.yul\":4191:4193   */\n      0x60\n        /* \"#utility.yul\":4180:4189   */\n      dup3\n        /* \"#utility.yul\":4176:4194   */\n      add\n        /* \"#utility.yul\":4168:4194   */\n      swap1\n      pop\n        /* \"#utility.yul\":4204:4275   */\n      tag_326\n        /* \"#utility.yul\":4272:4273   */\n      0x00\n        /* \"#utility.yul\":4261:4270   */\n      dup4\n        /* \"#utility.yul\":4257:4274   */\n      add\n        /* \"#utility.yul\":4248:4254   */\n      dup7\n        /* \"#utility.yul\":4204:4275   */\n      tag_246\n      jump\t// in\n    tag_326:\n        /* \"#utility.yul\":4285:4357   */\n      tag_327\n        /* \"#utility.yul\":4353:4355   */\n      0x20\n        /* \"#utility.yul\":4342:4351   */\n      dup4\n        /* \"#utility.yul\":4338:4356   */\n      add\n        /* \"#utility.yul\":4329:4335   */\n      dup6\n        /* \"#utility.yul\":4285:4357   */\n      tag_238\n      jump\t// in\n    tag_327:\n        /* \"#utility.yul\":4367:4433   */\n      tag_328\n        /* \"#utility.yul\":4429:4431   */\n      0x40\n        /* \"#utility.yul\":4418:4427   */\n      dup4\n        /* \"#utility.yul\":4414:4432   */\n      add\n        /* \"#utility.yul\":4405:4411   */\n      dup5\n        /* \"#utility.yul\":4367:4433   */\n      tag_247\n      jump\t// in\n    tag_328:\n        /* \"#utility.yul\":4010:4440   */\n      swap5\n      swap4\n      pop\n      pop\n      pop\n      pop\n      jump\t// out\n        /* \"#utility.yul\":4446:4920   */\n    tag_52:\n        /* \"#utility.yul\":4514:4520   */\n      0x00\n        /* \"#utility.yul\":4522:4528   */\n      0x00\n        /* \"#utility.yul\":4571:4573   */\n      0x40\n        /* \"#utility.yul\":4559:4568   */\n      dup4\n        /* \"#utility.yul\":4550:4557   */\n      dup6\n        /* \"#utility.yul\":4546:4569   */\n      sub\n        /* \"#utility.yul\":4542:4574   */\n      slt\n        /* \"#utility.yul\":4539:4658   */\n      iszero\n      tag_330\n      jumpi\n        /* \"#utility.yul\":4577:4656   */\n      tag_331\n      tag_231\n      jump\t// in\n    tag_331:\n        /* \"#utility.yul\":4539:4658   */\n    tag_330:\n        /* \"#utility.yul\":4697:4698   */\n      0x00\n        /* \"#utility.yul\":4722:4775   */\n      tag_332\n        /* \"#utility.yul\":4767:4774   */\n      dup6\n        /* \"#utility.yul\":4758:4764   */\n      dup3\n        /* \"#utility.yul\":4747:4756   */\n      dup7\n        /* \"#utility.yul\":4743:4765   */\n      add\n        /* \"#utility.yul\":4722:4775   */\n      tag_236\n      jump\t// in\n    tag_332:\n        /* \"#utility.yul\":4712:4775   */\n      swap3\n      pop\n        /* \"#utility.yul\":4668:4785   */\n      pop\n        /* \"#utility.yul\":4824:4826   */\n      0x20\n        /* \"#utility.yul\":4850:4903   */\n      tag_333\n        /* \"#utility.yul\":4895:4902   */\n      dup6\n        /* \"#utility.yul\":4886:4892   */\n      dup3\n        /* \"#utility.yul\":4875:4884   */\n      dup7\n        /* \"#utility.yul\":4871:4893   */\n      add\n        /* \"#utility.yul\":4850:4903   */\n      tag_240\n      jump\t// in\n    tag_333:\n        /* \"#utility.yul\":4840:4903   */\n      swap2\n      pop\n        /* \"#utility.yul\":4795:4913   */\n      pop\n        /* \"#utility.yul\":4446:4920   */\n      swap3\n      pop\n      swap3\n      swap1\n      pop\n      jump\t// out\n        /* \"#utility.yul\":4926:5400   */\n    tag_56:\n        /* \"#utility.yul\":4994:5000   */\n      0x00\n        /* \"#utility.yul\":5002:5008   */\n      0x00\n        /* \"#utility.yul\":5051:5053   */\n      0x40\n        /* \"#utility.yul\":5039:5048   */\n      dup4\n        /* \"#utility.yul\":5030:5037   */\n      dup6\n        /* \"#utility.yul\":5026:5049   */\n      sub\n        /* \"#utility.yul\":5022:5054   */\n      slt\n        /* \"#utility.yul\":5019:5138   */\n      iszero\n      tag_335\n      jumpi\n        /* \"#utility.yul\":5057:5136   */\n      tag_336\n      tag_231\n      jump\t// in\n    tag_336:\n        /* \"#utility.yul\":5019:5138   */\n    tag_335:\n        /* \"#utility.yul\":5177:5178   */\n      0x00\n        /* \"#utility.yul\":5202:5255   */\n      tag_337\n        /* \"#utility.yul\":5247:5254   */\n      dup6\n        /* \"#utility.yul\":5238:5244   */\n      dup3\n        /* \"#utility.yul\":5227:5236   */\n      dup7\n        /* \"#utility.yul\":5223:5245   */\n      add\n        /* \"#utility.yul\":5202:5255   */\n      tag_236\n      jump\t// in\n    tag_337:\n        /* \"#utility.yul\":5192:5255   */\n      swap3\n      pop\n        /* \"#utility.yul\":5148:5265   */\n      pop\n        /* \"#utility.yul\":5304:5306   */\n      0x20\n        /* \"#utility.yul\":5330:5383   */\n      tag_338\n        /* \"#utility.yul\":5375:5382   */\n      dup6\n        /* \"#utility.yul\":5366:5372   */\n      dup3\n        /* \"#utility.yul\":5355:5364   */\n      dup7\n        /* \"#utility.yul\":5351:5373   */\n      add\n        /* \"#utility.yul\":5330:5383   */\n      tag_236\n      jump\t// in\n    tag_338:\n        /* \"#utility.yul\":5320:5383   */\n      swap2\n      pop\n        /* \"#utility.yul\":5275:5393   */\n      pop\n        /* \"#utility.yul\":4926:5400   */\n      swap3\n      pop\n      swap3\n      swap1\n      pop\n      jump\t// out\n        /* \"#utility.yul\":5406:5628   */\n    tag_62:\n        /* \"#utility.yul\":5499:5503   */\n      0x00\n        /* \"#utility.yul\":5537:5539   */\n      0x20\n        /* \"#utility.yul\":5526:5535   */\n      dup3\n        /* \"#utility.yul\":5522:5540   */\n      add\n        /* \"#utility.yul\":5514:5540   */\n      swap1\n      pop\n        /* \"#utility.yul\":5550:5621   */\n      tag_340\n        /* \"#utility.yul\":5618:5619   */\n      0x00\n        /* \"#utility.yul\":5607:5616   */\n      dup4\n        /* \"#utility.yul\":5603:5620   */\n      add\n        /* \"#utility.yul\":5594:5600   */\n      dup5\n        /* \"#utility.yul\":5550:5621   */\n      tag_246\n      jump\t// in\n    tag_340:\n        /* \"#utility.yul\":5406:5628   */\n      swap3\n      swap2\n      pop\n      pop\n      jump\t// out\n        /* \"#utility.yul\":5634:5814   */\n    tag_84:\n        /* \"#utility.yul\":5682:5759   */\n      0x4e487b7100000000000000000000000000000000000000000000000000000000\n        /* \"#utility.yul\":5679:5680   */\n      0x00\n        /* \"#utility.yul\":5672:5760   */\n      mstore\n        /* \"#utility.yul\":5779:5783   */\n      0x32\n        /* \"#utility.yul\":5776:5777   */\n      0x04\n        /* \"#utility.yul\":5769:5784   */\n      mstore\n        /* \"#utility.yul\":5803:5807   */\n      0x24\n        /* \"#utility.yul\":5800:5801   */\n      0x00\n        /* \"#utility.yul\":5793:5808   */\n      revert\n        /* \"#utility.yul\":5820:6000   */\n    tag_248:\n        /* \"#utility.yul\":5868:5945   */\n      0x4e487b7100000000000000000000000000000000000000000000000000000000\n        /* \"#utility.yul\":5865:5866   */\n      0x00\n        /* \"#utility.yul\":5858:5946   */\n      mstore\n        /* \"#utility.yul\":5965:5969   */\n      0x11\n        /* \"#utility.yul\":5962:5963   */\n      0x04\n        /* \"#utility.yul\":5955:5970   */\n      mstore\n        /* \"#utility.yul\":5989:5993   */\n      0x24\n        /* \"#utility.yul\":5986:5987   */\n      0x00\n        /* \"#utility.yul\":5979:5994   */\n      revert\n        /* \"#utility.yul\":6006:6416   */\n    tag_88:\n        /* \"#utility.yul\":6046:6053   */\n      0x00\n        /* \"#utility.yul\":6069:6089   */\n      tag_344\n        /* \"#utility.yul\":6087:6088   */\n      dup3\n        /* \"#utility.yul\":6069:6089   */\n      tag_237\n      jump\t// in\n    tag_344:\n        /* \"#utility.yul\":6064:6089   */\n      swap2\n      pop\n        /* \"#utility.yul\":6103:6123   */\n      tag_345\n        /* \"#utility.yul\":6121:6122   */\n      dup4\n        /* \"#utility.yul\":6103:6123   */\n      tag_237\n      jump\t// in\n    tag_345:\n        /* \"#utility.yul\":6098:6123   */\n      swap3\n      pop\n        /* \"#utility.yul\":6158:6159   */\n      dup3\n        /* \"#utility.yul\":6155:6156   */\n      dup3\n        /* \"#utility.yul\":6151:6160   */\n      mul\n        /* \"#utility.yul\":6180:6210   */\n      tag_346\n        /* \"#utility.yul\":6198:6209   */\n      dup2\n        /* \"#utility.yul\":6180:6210   */\n      tag_237\n      jump\t// in\n    tag_346:\n        /* \"#utility.yul\":6169:6210   */\n      swap2\n      pop\n        /* \"#utility.yul\":6359:6360   */\n      dup3\n        /* \"#utility.yul\":6350:6357   */\n      dup3\n        /* \"#utility.yul\":6346:6361   */\n      div\n        /* \"#utility.yul\":6343:6344   */\n      dup5\n        /* \"#utility.yul\":6340:6362   */\n      eq\n        /* \"#utility.yul\":6320:6321   */\n      dup4\n        /* \"#utility.yul\":6313:6322   */\n      iszero\n        /* \"#utility.yul\":6293:6376   */\n      or\n        /* \"#utility.yul\":6270:6409   */\n      tag_347\n      jumpi\n        /* \"#utility.yul\":6389:6407   */\n      tag_348\n      tag_248\n      jump\t// in\n    tag_348:\n        /* \"#utility.yul\":6270:6409   */\n    tag_347:\n        /* \"#utility.yul\":6054:6416   */\n      pop\n        /* \"#utility.yul\":6006:6416   */\n      swap3\n      swap2\n      pop\n      pop\n      jump\t// out\n        /* \"#utility.yul\":6422:6613   */\n    tag_90:\n        /* \"#utility.yul\":6462:6465   */\n      0x00\n        /* \"#utility.yul\":6481:6501   */\n      tag_350\n        /* \"#utility.yul\":6499:6500   */\n      dup3\n        /* \"#utility.yul\":6481:6501   */\n      tag_237\n      jump\t// in\n    tag_350:\n        /* \"#utility.yul\":6476:6501   */\n      swap2\n      pop\n        /* \"#utility.yul\":6515:6535   */\n      tag_351\n        /* \"#utility.yul\":6533:6534   */\n      dup4\n        /* \"#utility.yul\":6515:6535   */\n      tag_237\n      jump\t// in\n    tag_351:\n        /* \"#utility.yul\":6510:6535   */\n      swap3\n      pop\n        /* \"#utility.yul\":6558:6559   */\n      dup3\n        /* \"#utility.yul\":6555:6556   */\n      dup3\n        /* \"#utility.yul\":6551:6560   */\n      add\n        /* \"#utility.yul\":6544:6560   */\n      swap1\n      pop\n        /* \"#utility.yul\":6579:6582   */\n      dup1\n        /* \"#utility.yul\":6576:6577   */\n      dup3\n        /* \"#utility.yul\":6573:6583   */\n      gt\n        /* \"#utility.yul\":6570:6606   */\n      iszero\n      tag_352\n      jumpi\n        /* \"#utility.yul\":6586:6604   */\n      tag_353\n      tag_248\n      jump\t// in\n    tag_353:\n        /* \"#utility.yul\":6570:6606   */\n    tag_352:\n        /* \"#utility.yul\":6422:6613   */\n      swap3\n      swap2\n      pop\n      pop\n      jump\t// out\n        /* \"#utility.yul\":6619:6788   */\n    tag_249:\n        /* \"#utility.yul\":6703:6714   */\n      0x00\n        /* \"#utility.yul\":6737:6743   */\n      dup3\n        /* \"#utility.yul\":6732:6735   */\n      dup3\n        /* \"#utility.yul\":6725:6744   */\n      mstore\n        /* \"#utility.yul\":6777:6781   */\n      0x20\n        /* \"#utility.yul\":6772:6775   */\n      dup3\n        /* \"#utility.yul\":6768:6782   */\n      add\n        /* \"#utility.yul\":6753:6782   */\n      swap1\n      pop\n        /* \"#utility.yul\":6619:6788   */\n      swap3\n      swap2\n      pop\n      pop\n      jump\t// out\n        /* \"#utility.yul\":6794:6960   */\n    tag_250:\n        /* \"#utility.yul\":6934:6952   */\n      0x546f6b656e206e6f7420696e2073657400000000000000000000000000000000\n        /* \"#utility.yul\":6930:6931   */\n      0x00\n        /* \"#utility.yul\":6922:6928   */\n      dup3\n        /* \"#utility.yul\":6918:6932   */\n      add\n        /* \"#utility.yul\":6911:6953   */\n      mstore\n        /* \"#utility.yul\":6794:6960   */\n      pop\n      jump\t// out\n        /* \"#utility.yul\":6966:7332   */\n    tag_251:\n        /* \"#utility.yul\":7108:7111   */\n      0x00\n        /* \"#utility.yul\":7129:7196   */\n      tag_357\n        /* \"#utility.yul\":7193:7195   */\n      0x10\n        /* \"#utility.yul\":7188:7191   */\n      dup4\n        /* \"#utility.yul\":7129:7196   */\n      tag_249\n      jump\t// in\n    tag_357:\n        /* \"#utility.yul\":7122:7196   */\n      swap2\n      pop\n        /* \"#utility.yul\":7205:7298   */\n      tag_358\n        /* \"#utility.yul\":7294:7297   */\n      dup3\n        /* \"#utility.yul\":7205:7298   */\n      tag_250\n      jump\t// in\n    tag_358:\n        /* \"#utility.yul\":7323:7325   */\n      0x20\n        /* \"#utility.yul\":7318:7321   */\n      dup3\n        /* \"#utility.yul\":7314:7326   */\n      add\n        /* \"#utility.yul\":7307:7326   */\n      swap1\n      pop\n        /* \"#utility.yul\":6966:7332   */\n      swap2\n      swap1\n      pop\n      jump\t// out\n        /* \"#utility.yul\":7338:7757   */\n    tag_97:\n        /* \"#utility.yul\":7504:7508   */\n      0x00\n        /* \"#utility.yul\":7542:7544   */\n      0x20\n        /* \"#utility.yul\":7531:7540   */\n      dup3\n        /* \"#utility.yul\":7527:7545   */\n      add\n        /* \"#utility.yul\":7519:7545   */\n      swap1\n      pop\n        /* \"#utility.yul\":7591:7600   */\n      dup2\n        /* \"#utility.yul\":7585:7589   */\n      dup2\n        /* \"#utility.yul\":7581:7601   */\n      sub\n        /* \"#utility.yul\":7577:7578   */\n      0x00\n        /* \"#utility.yul\":7566:7575   */\n      dup4\n        /* \"#utility.yul\":7562:7579   */\n      add\n        /* \"#utility.yul\":7555:7602   */\n      mstore\n        /* \"#utility.yul\":7619:7750   */\n      tag_360\n        /* \"#utility.yul\":7745:7749   */\n      dup2\n        /* \"#utility.yul\":7619:7750   */\n      tag_251\n      jump\t// in\n    tag_360:\n        /* \"#utility.yul\":7611:7750   */\n      swap1\n      pop\n        /* \"#utility.yul\":7338:7757   */\n      swap2\n      swap1\n      pop\n      jump\t// out\n        /* \"#utility.yul\":7763:7957   */\n    tag_99:\n        /* \"#utility.yul\":7803:7807   */\n      0x00\n        /* \"#utility.yul\":7823:7843   */\n      tag_362\n        /* \"#utility.yul\":7841:7842   */\n      dup3\n        /* \"#utility.yul\":7823:7843   */\n      tag_237\n      jump\t// in\n    tag_362:\n        /* \"#utility.yul\":7818:7843   */\n      swap2\n      pop\n        /* \"#utility.yul\":7857:7877   */\n      tag_363\n        /* \"#utility.yul\":7875:7876   */\n      dup4\n        /* \"#utility.yul\":7857:7877   */\n      tag_237\n      jump\t// in\n    tag_363:\n        /* \"#utility.yul\":7852:7877   */\n      swap3\n      pop\n        /* \"#utility.yul\":7901:7902   */\n      dup3\n        /* \"#utility.yul\":7898:7899   */\n      dup3\n        /* \"#utility.yul\":7894:7903   */\n      sub\n        /* \"#utility.yul\":7886:7903   */\n      swap1\n      pop\n        /* \"#utility.yul\":7925:7926   */\n      dup2\n        /* \"#utility.yul\":7919:7923   */\n      dup2\n        /* \"#utility.yul\":7916:7927   */\n      gt\n        /* \"#utility.yul\":7913:7950   */\n      iszero\n      tag_364\n      jumpi\n        /* \"#utility.yul\":7930:7948   */\n      tag_365\n      tag_248\n      jump\t// in\n    tag_365:\n        /* \"#utility.yul\":7913:7950   */\n    tag_364:\n        /* \"#utility.yul\":7763:7957   */\n      swap3\n      swap2\n      pop\n      pop\n      jump\t// out\n        /* \"#utility.yul\":7963:8135   */\n    tag_252:\n        /* \"#utility.yul\":8103:8127   */\n      0x546f6b656e20616c726561647920696e61637469766500000000000000000000\n        /* \"#utility.yul\":8099:8100   */\n      0x00\n        /* \"#utility.yul\":8091:8097   */\n      dup3\n        /* \"#utility.yul\":8087:8101   */\n      add\n        /* \"#utility.yul\":8080:8128   */\n      mstore\n        /* \"#utility.yul\":7963:8135   */\n      pop\n      jump\t// out\n        /* \"#utility.yul\":8141:8507   */\n    tag_253:\n        /* \"#utility.yul\":8283:8286   */\n      0x00\n        /* \"#utility.yul\":8304:8371   */\n      tag_368\n        /* \"#utility.yul\":8368:8370   */\n      0x16\n        /* \"#utility.yul\":8363:8366   */\n      dup4\n        /* \"#utility.yul\":8304:8371   */\n      tag_249\n      jump\t// in\n    tag_368:\n        /* \"#utility.yul\":8297:8371   */\n      swap2\n      pop\n        /* \"#utility.yul\":8380:8473   */\n      tag_369\n        /* \"#utility.yul\":8469:8472   */\n      dup3\n        /* \"#utility.yul\":8380:8473   */\n      tag_252\n      jump\t// in\n    tag_369:\n        /* \"#utility.yul\":8498:8500   */\n      0x20\n        /* \"#utility.yul\":8493:8496   */\n      dup3\n        /* \"#utility.yul\":8489:8501   */\n      add\n        /* \"#utility.yul\":8482:8501   */\n      swap1\n      pop\n        /* \"#utility.yul\":8141:8507   */\n      swap2\n      swap1\n      pop\n      jump\t// out\n        /* \"#utility.yul\":8513:8932   */\n    tag_105:\n        /* \"#utility.yul\":8679:8683   */\n      0x00\n        /* \"#utility.yul\":8717:8719   */\n      0x20\n        /* \"#utility.yul\":8706:8715   */\n      dup3\n        /* \"#utility.yul\":8702:8720   */\n      add\n        /* \"#utility.yul\":8694:8720   */\n      swap1\n      pop\n        /* \"#utility.yul\":8766:8775   */\n      dup2\n        /* \"#utility.yul\":8760:8764   */\n      dup2\n        /* \"#utility.yul\":8756:8776   */\n      sub\n        /* \"#utility.yul\":8752:8753   */\n      0x00\n        /* \"#utility.yul\":8741:8750   */\n      dup4\n        /* \"#utility.yul\":8737:8754   */\n      add\n        /* \"#utility.yul\":8730:8777   */\n      mstore\n        /* \"#utility.yul\":8794:8925   */\n      tag_371\n        /* \"#utility.yul\":8920:8924   */\n      dup2\n        /* \"#utility.yul\":8794:8925   */\n      tag_253\n      jump\t// in\n    tag_371:\n        /* \"#utility.yul\":8786:8925   */\n      swap1\n      pop\n        /* \"#utility.yul\":8513:8932   */\n      swap2\n      swap1\n      pop\n      jump\t// out\n        /* \"#utility.yul\":8938:9106   */\n    tag_254:\n        /* \"#utility.yul\":9078:9098   */\n      0x496e646578206f7574206f662072616e67650000000000000000000000000000\n        /* \"#utility.yul\":9074:9075   */\n      0x00\n        /* \"#utility.yul\":9066:9072   */\n      dup3\n        /* \"#utility.yul\":9062:9076   */\n      add\n        /* \"#utility.yul\":9055:9099   */\n      mstore\n        /* \"#utility.yul\":8938:9106   */\n      pop\n      jump\t// out\n        /* \"#utility.yul\":9112:9478   */\n    tag_255:\n        /* \"#utility.yul\":9254:9257   */\n      0x00\n        /* \"#utility.yul\":9275:9342   */\n      tag_374\n        /* \"#utility.yul\":9339:9341   */\n      0x12\n        /* \"#utility.yul\":9334:9337   */\n      dup4\n        /* \"#utility.yul\":9275:9342   */\n      tag_249\n      jump\t// in\n    tag_374:\n        /* \"#utility.yul\":9268:9342   */\n      swap2\n      pop\n        /* \"#utility.yul\":9351:9444   */\n      tag_375\n        /* \"#utility.yul\":9440:9443   */\n      dup3\n        /* \"#utility.yul\":9351:9444   */\n      tag_254\n      jump\t// in\n    tag_375:\n        /* \"#utility.yul\":9469:9471   */\n      0x20\n        /* \"#utility.yul\":9464:9467   */\n      dup3\n        /* \"#utility.yul\":9460:9472   */\n      add\n        /* \"#utility.yul\":9453:9472   */\n      swap1\n      pop\n        /* \"#utility.yul\":9112:9478   */\n      swap2\n      swap1\n      pop\n      jump\t// out\n        /* \"#utility.yul\":9484:9903   */\n    tag_113:\n        /* \"#utility.yul\":9650:9654   */\n      0x00\n        /* \"#utility.yul\":9688:9690   */\n      0x20\n        /* \"#utility.yul\":9677:9686   */\n      dup3\n        /* \"#utility.yul\":9673:9691   */\n      add\n        /* \"#utility.yul\":9665:9691   */\n      swap1\n      pop\n        /* \"#utility.yul\":9737:9746   */\n      dup2\n        /* \"#utility.yul\":9731:9735   */\n      dup2\n        /* \"#utility.yul\":9727:9747   */\n      sub\n        /* \"#utility.yul\":9723:9724   */\n      0x00\n        /* \"#utility.yul\":9712:9721   */\n      dup4\n        /* \"#utility.yul\":9708:9725   */\n      add\n        /* \"#utility.yul\":9701:9748   */\n      mstore\n        /* \"#utility.yul\":9765:9896   */\n      tag_377\n        /* \"#utility.yul\":9891:9895   */\n      dup2\n        /* \"#utility.yul\":9765:9896   */\n      tag_255\n      jump\t// in\n    tag_377:\n        /* \"#utility.yul\":9757:9896   */\n      swap1\n      pop\n        /* \"#utility.yul\":9484:9903   */\n      swap2\n      swap1\n      pop\n      jump\t// out\n        /* \"#utility.yul\":9909:10080   */\n    tag_256:\n        /* \"#utility.yul\":10049:10072   */\n      0x496e76616c696420746f6b656e20616464726573730000000000000000000000\n        /* \"#utility.yul\":10045:10046   */\n      0x00\n        /* \"#utility.yul\":10037:10043   */\n      dup3\n        /* \"#utility.yul\":10033:10047   */\n      add\n        /* \"#utility.yul\":10026:10073   */\n      mstore\n        /* \"#utility.yul\":9909:10080   */\n      pop\n      jump\t// out\n        /* \"#utility.yul\":10086:10452   */\n    tag_257:\n        /* \"#utility.yul\":10228:10231   */\n      0x00\n        /* \"#utility.yul\":10249:10316   */\n      tag_380\n        /* \"#utility.yul\":10313:10315   */\n      0x15\n        /* \"#utility.yul\":10308:10311   */\n      dup4\n        /* \"#utility.yul\":10249:10316   */\n      tag_249\n      jump\t// in\n    tag_380:\n        /* \"#utility.yul\":10242:10316   */\n      swap2\n      pop\n        /* \"#utility.yul\":10325:10418   */\n      tag_381\n        /* \"#utility.yul\":10414:10417   */\n      dup3\n        /* \"#utility.yul\":10325:10418   */\n      tag_256\n      jump\t// in\n    tag_381:\n        /* \"#utility.yul\":10443:10445   */\n      0x20\n        /* \"#utility.yul\":10438:10441   */\n      dup3\n        /* \"#utility.yul\":10434:10446   */\n      add\n        /* \"#utility.yul\":10427:10446   */\n      swap1\n      pop\n        /* \"#utility.yul\":10086:10452   */\n      swap2\n      swap1\n      pop\n      jump\t// out\n        /* \"#utility.yul\":10458:10877   */\n    tag_129:\n        /* \"#utility.yul\":10624:10628   */\n      0x00\n        /* \"#utility.yul\":10662:10664   */\n      0x20\n        /* \"#utility.yul\":10651:10660   */\n      dup3\n        /* \"#utility.yul\":10647:10665   */\n      add\n        /* \"#utility.yul\":10639:10665   */\n      swap1\n      pop\n        /* \"#utility.yul\":10711:10720   */\n      dup2\n        /* \"#utility.yul\":10705:10709   */\n      dup2\n        /* \"#utility.yul\":10701:10721   */\n      sub\n        /* \"#utility.yul\":10697:10698   */\n      0x00\n        /* \"#utility.yul\":10686:10695   */\n      dup4\n        /* \"#utility.yul\":10682:10699   */\n      add\n        /* \"#utility.yul\":10675:10722   */\n      mstore\n        /* \"#utility.yul\":10739:10870   */\n      tag_383\n        /* \"#utility.yul\":10865:10869   */\n      dup2\n        /* \"#utility.yul\":10739:10870   */\n      tag_257\n      jump\t// in\n    tag_383:\n        /* \"#utility.yul\":10731:10870   */\n      swap1\n      pop\n        /* \"#utility.yul\":10458:10877   */\n      swap2\n      swap1\n      pop\n      jump\t// out\n        /* \"#utility.yul\":10883:11051   */\n    tag_258:\n        /* \"#utility.yul\":11023:11043   */\n      0x576569676874206d757374206265203e20300000000000000000000000000000\n        /* \"#utility.yul\":11019:11020   */\n      0x00\n        /* \"#utility.yul\":11011:11017   */\n      dup3\n        /* \"#utility.yul\":11007:11021   */\n      add\n        /* \"#utility.yul\":11000:11044   */\n      mstore\n        /* \"#utility.yul\":10883:11051   */\n      pop\n      jump\t// out\n        /* \"#utility.yul\":11057:11423   */\n    tag_259:\n        /* \"#utility.yul\":11199:11202   */\n      0x00\n        /* \"#utility.yul\":11220:11287   */\n      tag_386\n        /* \"#utility.yul\":11284:11286   */\n      0x12\n        /* \"#utility.yul\":11279:11282   */\n      dup4\n        /* \"#utility.yul\":11220:11287   */\n      tag_249\n      jump\t// in\n    tag_386:\n        /* \"#utility.yul\":11213:11287   */\n      swap2\n      pop\n        /* \"#utility.yul\":11296:11389   */\n      tag_387\n        /* \"#utility.yul\":11385:11388   */\n      dup3\n        /* \"#utility.yul\":11296:11389   */\n      tag_258\n      jump\t// in\n    tag_387:\n        /* \"#utility.yul\":11414:11416   */\n      0x20\n        /* \"#utility.yul\":11409:11412   */\n      dup3\n        /* \"#utility.yul\":11405:11417   */\n      add\n        /* \"#utility.yul\":11398:11417   */\n      swap1\n      pop\n        /* \"#utility.yul\":11057:11423   */\n      swap2\n      swap1\n      pop\n      jump\t// out\n        /* \"#utility.yul\":11429:11848   */\n    tag_132:\n        /* \"#utility.yul\":11595:11599   */\n      0x00\n        /* \"#utility.yul\":11633:11635   */\n      0x20\n        /* \"#utility.yul\":11622:11631   */\n      dup3\n        /* \"#utility.yul\":11618:11636   */\n      add\n        /* \"#utility.yul\":11610:11636   */\n      swap1\n      pop\n        /* \"#utility.yul\":11682:11691   */\n      dup2\n        /* \"#utility.yul\":11676:11680   */\n      dup2\n        /* \"#utility.yul\":11672:11692   */\n      sub\n        /* \"#utility.yul\":11668:11669   */\n      0x00\n        /* \"#utility.yul\":11657:11666   */\n      dup4\n        /* \"#utility.yul\":11653:11670   */\n      add\n        /* \"#utility.yul\":11646:11693   */\n      mstore\n        /* \"#utility.yul\":11710:11841   */\n      tag_389\n        /* \"#utility.yul\":11836:11840   */\n      dup2\n        /* \"#utility.yul\":11710:11841   */\n      tag_259\n      jump\t// in\n    tag_389:\n        /* \"#utility.yul\":11702:11841   */\n      swap1\n      pop\n        /* \"#utility.yul\":11429:11848   */\n      swap2\n      swap1\n      pop\n      jump\t// out\n        /* \"#utility.yul\":11854:12023   */\n    tag_260:\n        /* \"#utility.yul\":11994:12015   */\n      0x546f6b656e20616c726561647920616464656400000000000000000000000000\n        /* \"#utility.yul\":11990:11991   */\n      0x00\n        /* \"#utility.yul\":11982:11988   */\n      dup3\n        /* \"#utility.yul\":11978:11992   */\n      add\n        /* \"#utility.yul\":11971:12016   */\n      mstore\n        /* \"#utility.yul\":11854:12023   */\n      pop\n      jump\t// out\n        /* \"#utility.yul\":12029:12395   */\n    tag_261:\n        /* \"#utility.yul\":12171:12174   */\n      0x00\n        /* \"#utility.yul\":12192:12259   */\n      tag_392\n        /* \"#utility.yul\":12256:12258   */\n      0x13\n        /* \"#utility.yul\":12251:12254   */\n      dup4\n        /* \"#utility.yul\":12192:12259   */\n      tag_249\n      jump\t// in\n    tag_392:\n        /* \"#utility.yul\":12185:12259   */\n      swap2\n      pop\n        /* \"#utility.yul\":12268:12361   */\n      tag_393\n        /* \"#utility.yul\":12357:12360   */\n      dup3\n        /* \"#utility.yul\":12268:12361   */\n      tag_260\n      jump\t// in\n    tag_393:\n        /* \"#utility.yul\":12386:12388   */\n      0x20\n        /* \"#utility.yul\":12381:12384   */\n      dup3\n        /* \"#utility.yul\":12377:12389   */\n      add\n        /* \"#utility.yul\":12370:12389   */\n      swap1\n      pop\n        /* \"#utility.yul\":12029:12395   */\n      swap2\n      swap1\n      pop\n      jump\t// out\n        /* \"#utility.yul\":12401:12820   */\n    tag_135:\n        /* \"#utility.yul\":12567:12571   */\n      0x00\n        /* \"#utility.yul\":12605:12607   */\n      0x20\n        /* \"#utility.yul\":12594:12603   */\n      dup3\n        /* \"#utility.yul\":12590:12608   */\n      add\n        /* \"#utility.yul\":12582:12608   */\n      swap1\n      pop\n        /* \"#utility.yul\":12654:12663   */\n      dup2\n        /* \"#utility.yul\":12648:12652   */\n      dup2\n        /* \"#utility.yul\":12644:12664   */\n      sub\n        /* \"#utility.yul\":12640:12641   */\n      0x00\n        /* \"#utility.yul\":12629:12638   */\n      dup4\n        /* \"#utility.yul\":12625:12642   */\n      add\n        /* \"#utility.yul\":12618:12665   */\n      mstore\n        /* \"#utility.yul\":12682:12813   */\n      tag_395\n        /* \"#utility.yul\":12808:12812   */\n      dup2\n        /* \"#utility.yul\":12682:12813   */\n      tag_261\n      jump\t// in\n    tag_395:\n        /* \"#utility.yul\":12674:12813   */\n      swap1\n      pop\n        /* \"#utility.yul\":12401:12820   */\n      swap2\n      swap1\n      pop\n      jump\t// out\n        /* \"#utility.yul\":12826:13001   */\n    tag_262:\n        /* \"#utility.yul\":12966:12993   */\n      0x546f74616c207765696768742065786365656473203130302500000000000000\n        /* \"#utility.yul\":12962:12963   */\n      0x00\n        /* \"#utility.yul\":12954:12960   */\n      dup3\n        /* \"#utility.yul\":12950:12964   */\n      add\n        /* \"#utility.yul\":12943:12994   */\n      mstore\n        /* \"#utility.yul\":12826:13001   */\n      pop\n      jump\t// out\n        /* \"#utility.yul\":13007:13373   */\n    tag_263:\n        /* \"#utility.yul\":13149:13152   */\n      0x00\n        /* \"#utility.yul\":13170:13237   */\n      tag_398\n        /* \"#utility.yul\":13234:13236   */\n      0x19\n        /* \"#utility.yul\":13229:13232   */\n      dup4\n        /* \"#utility.yul\":13170:13237   */\n      tag_249\n      jump\t// in\n    tag_398:\n        /* \"#utility.yul\":13163:13237   */\n      swap2\n      pop\n        /* \"#utility.yul\":13246:13339   */\n      tag_399\n        /* \"#utility.yul\":13335:13338   */\n      dup3\n        /* \"#utility.yul\":13246:13339   */\n      tag_262\n      jump\t// in\n    tag_399:\n        /* \"#utility.yul\":13364:13366   */\n      0x20\n        /* \"#utility.yul\":13359:13362   */\n      dup3\n        /* \"#utility.yul\":13355:13367   */\n      add\n        /* \"#utility.yul\":13348:13367   */\n      swap1\n      pop\n        /* \"#utility.yul\":13007:13373   */\n      swap2\n      swap1\n      pop\n      jump\t// out\n        /* \"#utility.yul\":13379:13798   */\n    tag_139:\n        /* \"#utility.yul\":13545:13549   */\n      0x00\n        /* \"#utility.yul\":13583:13585   */\n      0x20\n        /* \"#utility.yul\":13572:13581   */\n      dup3\n        /* \"#utility.yul\":13568:13586   */\n      add\n        /* \"#utility.yul\":13560:13586   */\n      swap1\n      pop\n        /* \"#utility.yul\":13632:13641   */\n      dup2\n        /* \"#utility.yul\":13626:13630   */\n      dup2\n        /* \"#utility.yul\":13622:13642   */\n      sub\n        /* \"#utility.yul\":13618:13619   */\n      0x00\n        /* \"#utility.yul\":13607:13616   */\n      dup4\n        /* \"#utility.yul\":13603:13620   */\n      add\n        /* \"#utility.yul\":13596:13643   */\n      mstore\n        /* \"#utility.yul\":13660:13791   */\n      tag_401\n        /* \"#utility.yul\":13786:13790   */\n      dup2\n        /* \"#utility.yul\":13660:13791   */\n      tag_263\n      jump\t// in\n    tag_401:\n        /* \"#utility.yul\":13652:13791   */\n      swap1\n      pop\n        /* \"#utility.yul\":13379:13798   */\n      swap2\n      swap1\n      pop\n      jump\t// out\n        /* \"#utility.yul\":13804:13971   */\n    tag_264:\n        /* \"#utility.yul\":13944:13963   */\n      0x546f6b656e20697320696e616374697665000000000000000000000000000000\n        /* \"#utility.yul\":13940:13941   */\n      0x00\n        /* \"#utility.yul\":13932:13938   */\n      dup3\n        /* \"#utility.yul\":13928:13942   */\n      add\n        /* \"#utility.yul\":13921:13964   */\n      mstore\n        /* \"#utility.yul\":13804:13971   */\n      pop\n      jump\t// out\n        /* \"#utility.yul\":13977:14343   */\n    tag_265:\n        /* \"#utility.yul\":14119:14122   */\n      0x00\n        /* \"#utility.yul\":14140:14207   */\n      tag_404\n        /* \"#utility.yul\":14204:14206   */\n      0x11\n        /* \"#utility.yul\":14199:14202   */\n      dup4\n        /* \"#utility.yul\":14140:14207   */\n      tag_249\n      jump\t// in\n    tag_404:\n        /* \"#utility.yul\":14133:14207   */\n      swap2\n      pop\n        /* \"#utility.yul\":14216:14309   */\n      tag_405\n        /* \"#utility.yul\":14305:14308   */\n      dup3\n        /* \"#utility.yul\":14216:14309   */\n      tag_264\n      jump\t// in\n    tag_405:\n        /* \"#utility.yul\":14334:14336   */\n      0x20\n        /* \"#utility.yul\":14329:14332   */\n      dup3\n        /* \"#utility.yul\":14325:14337   */\n      add\n        /* \"#utility.yul\":14318:14337   */\n      swap1\n      pop\n        /* \"#utility.yul\":13977:14343   */\n      swap2\n      swap1\n      pop\n      jump\t// out\n        /* \"#utility.yul\":14349:14768   */\n    tag_155:\n        /* \"#utility.yul\":14515:14519   */\n      0x00\n        /* \"#utility.yul\":14553:14555   */\n      0x20\n        /* \"#utility.yul\":14542:14551   */\n      dup3\n        /* \"#utility.yul\":14538:14556   */\n      add\n        /* \"#utility.yul\":14530:14556   */\n      swap1\n      pop\n        /* \"#utility.yul\":14602:14611   */\n      dup2\n        /* \"#utility.yul\":14596:14600   */\n      dup2\n        /* \"#utility.yul\":14592:14612   */\n      sub\n        /* \"#utility.yul\":14588:14589   */\n      0x00\n        /* \"#utility.yul\":14577:14586   */\n      dup4\n        /* \"#utility.yul\":14573:14590   */\n      add\n        /* \"#utility.yul\":14566:14613   */\n      mstore\n        /* \"#utility.yul\":14630:14761   */\n      tag_407\n        /* \"#utility.yul\":14756:14760   */\n      dup2\n        /* \"#utility.yul\":14630:14761   */\n      tag_265\n      jump\t// in\n    tag_407:\n        /* \"#utility.yul\":14622:14761   */\n      swap1\n      pop\n        /* \"#utility.yul\":14349:14768   */\n      swap2\n      swap1\n      pop\n      jump\t// out\n        /* \"#utility.yul\":14774:14949   */\n    tag_266:\n        /* \"#utility.yul\":14914:14941   */\n      0x5374616b656420616d6f756e74206d757374206265203e203000000000000000\n        /* \"#utility.yul\":14910:14911   */\n      0x00\n        /* \"#utility.yul\":14902:14908   */\n      dup3\n        /* \"#utility.yul\":14898:14912   */\n      add\n        /* \"#utility.yul\":14891:14942   */\n      mstore\n        /* \"#utility.yul\":14774:14949   */\n      pop\n      jump\t// out\n        /* \"#utility.yul\":14955:15321   */\n    tag_267:\n        /* \"#utility.yul\":15097:15100   */\n      0x00\n        /* \"#utility.yul\":15118:15185   */\n      tag_410\n        /* \"#utility.yul\":15182:15184   */\n      0x19\n        /* \"#utility.yul\":15177:15180   */\n      dup4\n        /* \"#utility.yul\":15118:15185   */\n      tag_249\n      jump\t// in\n    tag_410:\n        /* \"#utility.yul\":15111:15185   */\n      swap2\n      pop\n        /* \"#utility.yul\":15194:15287   */\n      tag_411\n        /* \"#utility.yul\":15283:15286   */\n      dup3\n        /* \"#utility.yul\":15194:15287   */\n      tag_266\n      jump\t// in\n    tag_411:\n        /* \"#utility.yul\":15312:15314   */\n      0x20\n        /* \"#utility.yul\":15307:15310   */\n      dup3\n        /* \"#utility.yul\":15303:15315   */\n      add\n        /* \"#utility.yul\":15296:15315   */\n      swap1\n      pop\n        /* \"#utility.yul\":14955:15321   */\n      swap2\n      swap1\n      pop\n      jump\t// out\n        /* \"#utility.yul\":15327:15746   */\n    tag_169:\n        /* \"#utility.yul\":15493:15497   */\n      0x00\n        /* \"#utility.yul\":15531:15533   */\n      0x20\n        /* \"#utility.yul\":15520:15529   */\n      dup3\n        /* \"#utility.yul\":15516:15534   */\n      add\n        /* \"#utility.yul\":15508:15534   */\n      swap1\n      pop\n        /* \"#utility.yul\":15580:15589   */\n      dup2\n        /* \"#utility.yul\":15574:15578   */\n      dup2\n        /* \"#utility.yul\":15570:15590   */\n      sub\n        /* \"#utility.yul\":15566:15567   */\n      0x00\n        /* \"#utility.yul\":15555:15564   */\n      dup4\n        /* \"#utility.yul\":15551:15568   */\n      add\n        /* \"#utility.yul\":15544:15591   */\n      mstore\n        /* \"#utility.yul\":15608:15739   */\n      tag_413\n        /* \"#utility.yul\":15734:15738   */\n      dup2\n        /* \"#utility.yul\":15608:15739   */\n      tag_267\n      jump\t// in\n    tag_413:\n        /* \"#utility.yul\":15600:15739   */\n      swap1\n      pop\n        /* \"#utility.yul\":15327:15746   */\n      swap2\n      swap1\n      pop\n      jump\t// out\n        /* \"#utility.yul\":15752:16194   */\n    tag_179:\n        /* \"#utility.yul\":15901:15905   */\n      0x00\n        /* \"#utility.yul\":15939:15941   */\n      0x60\n        /* \"#utility.yul\":15928:15937   */\n      dup3\n        /* \"#utility.yul\":15924:15942   */\n      add\n        /* \"#utility.yul\":15916:15942   */\n      swap1\n      pop\n        /* \"#utility.yul\":15952:16023   */\n      tag_415\n        /* \"#utility.yul\":16020:16021   */\n      0x00\n        /* \"#utility.yul\":16009:16018   */\n      dup4\n        /* \"#utility.yul\":16005:16022   */\n      add\n        /* \"#utility.yul\":15996:16002   */\n      dup7\n        /* \"#utility.yul\":15952:16023   */\n      tag_246\n      jump\t// in\n    tag_415:\n        /* \"#utility.yul\":16033:16105   */\n      tag_416\n        /* \"#utility.yul\":16101:16103   */\n      0x20\n        /* \"#utility.yul\":16090:16099   */\n      dup4\n        /* \"#utility.yul\":16086:16104   */\n      add\n        /* \"#utility.yul\":16077:16083   */\n      dup6\n        /* \"#utility.yul\":16033:16105   */\n      tag_246\n      jump\t// in\n    tag_416:\n        /* \"#utility.yul\":16115:16187   */\n      tag_417\n        /* \"#utility.yul\":16183:16185   */\n      0x40\n        /* \"#utility.yul\":16172:16181   */\n      dup4\n        /* \"#utility.yul\":16168:16186   */\n      add\n        /* \"#utility.yul\":16159:16165   */\n      dup5\n        /* \"#utility.yul\":16115:16187   */\n      tag_238\n      jump\t// in\n    tag_417:\n        /* \"#utility.yul\":15752:16194   */\n      swap5\n      swap4\n      pop\n      pop\n      pop\n      pop\n      jump\t// out\n        /* \"#utility.yul\":16200:16316   */\n    tag_268:\n        /* \"#utility.yul\":16270:16291   */\n      tag_419\n        /* \"#utility.yul\":16285:16290   */\n      dup2\n        /* \"#utility.yul\":16270:16291   */\n      tag_243\n      jump\t// in\n    tag_419:\n        /* \"#utility.yul\":16263:16268   */\n      dup2\n        /* \"#utility.yul\":16260:16292   */\n      eq\n        /* \"#utility.yul\":16250:16310   */\n      tag_420\n      jumpi\n        /* \"#utility.yul\":16306:16307   */\n      0x00\n        /* \"#utility.yul\":16303:16304   */\n      0x00\n        /* \"#utility.yul\":16296:16308   */\n      revert\n        /* \"#utility.yul\":16250:16310   */\n    tag_420:\n        /* \"#utility.yul\":16200:16316   */\n      pop\n      jump\t// out\n        /* \"#utility.yul\":16322:16459   */\n    tag_269:\n        /* \"#utility.yul\":16376:16381   */\n      0x00\n        /* \"#utility.yul\":16407:16413   */\n      dup2\n        /* \"#utility.yul\":16401:16414   */\n      mload\n        /* \"#utility.yul\":16392:16414   */\n      swap1\n      pop\n        /* \"#utility.yul\":16423:16453   */\n      tag_422\n        /* \"#utility.yul\":16447:16452   */\n      dup2\n        /* \"#utility.yul\":16423:16453   */\n      tag_268\n      jump\t// in\n    tag_422:\n        /* \"#utility.yul\":16322:16459   */\n      swap3\n      swap2\n      pop\n      pop\n      jump\t// out\n        /* \"#utility.yul\":16465:16810   */\n    tag_183:\n        /* \"#utility.yul\":16532:16538   */\n      0x00\n        /* \"#utility.yul\":16581:16583   */\n      0x20\n        /* \"#utility.yul\":16569:16578   */\n      dup3\n        /* \"#utility.yul\":16560:16567   */\n      dup5\n        /* \"#utility.yul\":16556:16579   */\n      sub\n        /* \"#utility.yul\":16552:16584   */\n      slt\n        /* \"#utility.yul\":16549:16668   */\n      iszero\n      tag_424\n      jumpi\n        /* \"#utility.yul\":16587:16666   */\n      tag_425\n      tag_231\n      jump\t// in\n    tag_425:\n        /* \"#utility.yul\":16549:16668   */\n    tag_424:\n        /* \"#utility.yul\":16707:16708   */\n      0x00\n        /* \"#utility.yul\":16732:16793   */\n      tag_426\n        /* \"#utility.yul\":16785:16792   */\n      dup5\n        /* \"#utility.yul\":16776:16782   */\n      dup3\n        /* \"#utility.yul\":16765:16774   */\n      dup6\n        /* \"#utility.yul\":16761:16783   */\n      add\n        /* \"#utility.yul\":16732:16793   */\n      tag_269\n      jump\t// in\n    tag_426:\n        /* \"#utility.yul\":16722:16793   */\n      swap2\n      pop\n        /* \"#utility.yul\":16678:16803   */\n      pop\n        /* \"#utility.yul\":16465:16810   */\n      swap3\n      swap2\n      pop\n      pop\n      jump\t// out\n        /* \"#utility.yul\":16816:16981   */\n    tag_270:\n        /* \"#utility.yul\":16956:16973   */\n      0x5472616e73666572206661696c65640000000000000000000000000000000000\n        /* \"#utility.yul\":16952:16953   */\n      0x00\n        /* \"#utility.yul\":16944:16950   */\n      dup3\n        /* \"#utility.yul\":16940:16954   */\n      add\n        /* \"#utility.yul\":16933:16974   */\n      mstore\n        /* \"#utility.yul\":16816:16981   */\n      pop\n      jump\t// out\n        /* \"#utility.yul\":16987:17353   */\n    tag_271:\n        /* \"#utility.yul\":17129:17132   */\n      0x00\n        /* \"#utility.yul\":17150:17217   */\n      tag_429\n        /* \"#utility.yul\":17214:17216   */\n      0x0f\n        /* \"#utility.yul\":17209:17212   */\n      dup4\n        /* \"#utility.yul\":17150:17217   */\n      tag_249\n      jump\t// in\n    tag_429:\n        /* \"#utility.yul\":17143:17217   */\n      swap2\n      pop\n        /* \"#utility.yul\":17226:17319   */\n      tag_430\n        /* \"#utility.yul\":17315:17318   */\n      dup3\n        /* \"#utility.yul\":17226:17319   */\n      tag_270\n      jump\t// in\n    tag_430:\n        /* \"#utility.yul\":17344:17346   */\n      0x20\n        /* \"#utility.yul\":17339:17342   */\n      dup3\n        /* \"#utility.yul\":17335:17347   */\n      add\n        /* \"#utility.yul\":17328:17347   */\n      swap1\n      pop\n        /* \"#utility.yul\":16987:17353   */\n      swap2\n      swap1\n      pop\n      jump\t// out\n        /* \"#utility.yul\":17359:17778   */\n    tag_186:\n        /* \"#utility.yul\":17525:17529   */\n      0x00\n        /* \"#utility.yul\":17563:17565   */\n      0x20\n        /* \"#utility.yul\":17552:17561   */\n      dup3\n        /* \"#utility.yul\":17548:17566   */\n      add\n        /* \"#utility.yul\":17540:17566   */\n      swap1\n      pop\n        /* \"#utility.yul\":17612:17621   */\n      dup2\n        /* \"#utility.yul\":17606:17610   */\n      dup2\n        /* \"#utility.yul\":17602:17622   */\n      sub\n        /* \"#utility.yul\":17598:17599   */\n      0x00\n        /* \"#utility.yul\":17587:17596   */\n      dup4\n        /* \"#utility.yul\":17583:17600   */\n      add\n        /* \"#utility.yul\":17576:17623   */\n      mstore\n        /* \"#utility.yul\":17640:17771   */\n      tag_432\n        /* \"#utility.yul\":17766:17770   */\n      dup2\n        /* \"#utility.yul\":17640:17771   */\n      tag_271\n      jump\t// in\n    tag_432:\n        /* \"#utility.yul\":17632:17771   */\n      swap1\n      pop\n        /* \"#utility.yul\":17359:17778   */\n      swap2\n      swap1\n      pop\n      jump\t// out\n        /* \"#utility.yul\":17784:17960   */\n    tag_272:\n        /* \"#utility.yul\":17924:17952   */\n      0x556e7374616b6520616d6f756e74206d757374206265203e2030000000000000\n        /* \"#utility.yul\":17920:17921   */\n      0x00\n        /* \"#utility.yul\":17912:17918   */\n      dup3\n        /* \"#utility.yul\":17908:17922   */\n      add\n        /* \"#utility.yul\":17901:17953   */\n      mstore\n        /* \"#utility.yul\":17784:17960   */\n      pop\n      jump\t// out\n        /* \"#utility.yul\":17966:18332   */\n    tag_273:\n        /* \"#utility.yul\":18108:18111   */\n      0x00\n        /* \"#utility.yul\":18129:18196   */\n      tag_435\n        /* \"#utility.yul\":18193:18195   */\n      0x1a\n        /* \"#utility.yul\":18188:18191   */\n      dup4\n        /* \"#utility.yul\":18129:18196   */\n      tag_249\n      jump\t// in\n    tag_435:\n        /* \"#utility.yul\":18122:18196   */\n      swap2\n      pop\n        /* \"#utility.yul\":18205:18298   */\n      tag_436\n        /* \"#utility.yul\":18294:18297   */\n      dup3\n        /* \"#utility.yul\":18205:18298   */\n      tag_272\n      jump\t// in\n    tag_436:\n        /* \"#utility.yul\":18323:18325   */\n      0x20\n        /* \"#utility.yul\":18318:18321   */\n      dup3\n        /* \"#utility.yul\":18314:18326   */\n      add\n        /* \"#utility.yul\":18307:18326   */\n      swap1\n      pop\n        /* \"#utility.yul\":17966:18332   */\n      swap2\n      swap1\n      pop\n      jump\t// out\n        /* \"#utility.yul\":18338:18757   */\n    tag_196:\n        /* \"#utility.yul\":18504:18508   */\n      0x00\n        /* \"#utility.yul\":18542:18544   */\n      0x20\n        /* \"#utility.yul\":18531:18540   */\n      dup3\n        /* \"#utility.yul\":18527:18545   */\n      add\n        /* \"#utility.yul\":18519:18545   */\n      swap1\n      pop\n        /* \"#utility.yul\":18591:18600   */\n      dup2\n        /* \"#utility.yul\":18585:18589   */\n      dup2\n        /* \"#utility.yul\":18581:18601   */\n      sub\n        /* \"#utility.yul\":18577:18578   */\n      0x00\n        /* \"#utility.yul\":18566:18575   */\n      dup4\n        /* \"#utility.yul\":18562:18579   */\n      add\n        /* \"#utility.yul\":18555:18602   */\n      mstore\n        /* \"#utility.yul\":18619:18750   */\n      tag_438\n        /* \"#utility.yul\":18745:18749   */\n      dup2\n        /* \"#utility.yul\":18619:18750   */\n      tag_273\n      jump\t// in\n    tag_438:\n        /* \"#utility.yul\":18611:18750   */\n      swap1\n      pop\n        /* \"#utility.yul\":18338:18757   */\n      swap2\n      swap1\n      pop\n      jump\t// out\n        /* \"#utility.yul\":18763:18940   */\n    tag_274:\n        /* \"#utility.yul\":18903:18932   */\n      0x496e73756666696369656e74207374616b65642062616c616e63650000000000\n        /* \"#utility.yul\":18899:18900   */\n      0x00\n        /* \"#utility.yul\":18891:18897   */\n      dup3\n        /* \"#utility.yul\":18887:18901   */\n      add\n        /* \"#utility.yul\":18880:18933   */\n      mstore\n        /* \"#utility.yul\":18763:18940   */\n      pop\n      jump\t// out\n        /* \"#utility.yul\":18946:19312   */\n    tag_275:\n        /* \"#utility.yul\":19088:19091   */\n      0x00\n        /* \"#utility.yul\":19109:19176   */\n      tag_441\n        /* \"#utility.yul\":19173:19175   */\n      0x1b\n        /* \"#utility.yul\":19168:19171   */\n      dup4\n        /* \"#utility.yul\":19109:19176   */\n      tag_249\n      jump\t// in\n    tag_441:\n        /* \"#utility.yul\":19102:19176   */\n      swap2\n      pop\n        /* \"#utility.yul\":19185:19278   */\n      tag_442\n        /* \"#utility.yul\":19274:19277   */\n      dup3\n        /* \"#utility.yul\":19185:19278   */\n      tag_274\n      jump\t// in\n    tag_442:\n        /* \"#utility.yul\":19303:19305   */\n      0x20\n        /* \"#utility.yul\":19298:19301   */\n      dup3\n        /* \"#utility.yul\":19294:19306   */\n      add\n        /* \"#utility.yul\":19287:19306   */\n      swap1\n      pop\n        /* \"#utility.yul\":18946:19312   */\n      swap2\n      swap1\n      pop\n      jump\t// out\n        /* \"#utility.yul\":19318:19737   */\n    tag_199:\n        /* \"#utility.yul\":19484:19488   */\n      0x00\n        /* \"#utility.yul\":19522:19524   */\n      0x20\n        /* \"#utility.yul\":19511:19520   */\n      dup3\n        /* \"#utility.yul\":19507:19525   */\n      add\n        /* \"#utility.yul\":19499:19525   */\n      swap1\n      pop\n        /* \"#utility.yul\":19571:19580   */\n      dup2\n        /* \"#utility.yul\":19565:19569   */\n      dup2\n        /* \"#utility.yul\":19561:19581   */\n      sub\n        /* \"#utility.yul\":19557:19558   */\n      0x00\n        /* \"#utility.yul\":19546:19555   */\n      dup4\n        /* \"#utility.yul\":19542:19559   */\n      add\n        /* \"#utility.yul\":19535:19582   */\n      mstore\n        /* \"#utility.yul\":19599:19730   */\n      tag_444\n        /* \"#utility.yul\":19725:19729   */\n      dup2\n        /* \"#utility.yul\":19599:19730   */\n      tag_275\n      jump\t// in\n    tag_444:\n        /* \"#utility.yul\":19591:19730   */\n      swap1\n      pop\n        /* \"#utility.yul\":19318:19737   */\n      swap2\n      swap1\n      pop\n      jump\t// out\n        /* \"#utility.yul\":19743:20075   */\n    tag_202:\n        /* \"#utility.yul\":19864:19868   */\n      0x00\n        /* \"#utility.yul\":19902:19904   */\n      0x40\n        /* \"#utility.yul\":19891:19900   */\n      dup3\n        /* \"#utility.yul\":19887:19905   */\n      add\n        /* \"#utility.yul\":19879:19905   */\n      swap1\n      pop\n        /* \"#utility.yul\":19915:19986   */\n      tag_446\n        /* \"#utility.yul\":19983:19984   */\n      0x00\n        /* \"#utility.yul\":19972:19981   */\n      dup4\n        /* \"#utility.yul\":19968:19985   */\n      add\n        /* \"#utility.yul\":19959:19965   */\n      dup6\n        /* \"#utility.yul\":19915:19986   */\n      tag_246\n      jump\t// in\n    tag_446:\n        /* \"#utility.yul\":19996:20068   */\n      tag_447\n        /* \"#utility.yul\":20064:20066   */\n      0x20\n        /* \"#utility.yul\":20053:20062   */\n      dup4\n        /* \"#utility.yul\":20049:20067   */\n      add\n        /* \"#utility.yul\":20040:20046   */\n      dup5\n        /* \"#utility.yul\":19996:20068   */\n      tag_238\n      jump\t// in\n    tag_447:\n        /* \"#utility.yul\":19743:20075   */\n      swap4\n      swap3\n      pop\n      pop\n      pop\n      jump\t// out\n        /* \"#utility.yul\":20081:20262   */\n    tag_276:\n        /* \"#utility.yul\":20221:20254   */\n      0x5265656e7472616e637947756172643a207265656e7472616e742063616c6c00\n        /* \"#utility.yul\":20217:20218   */\n      0x00\n        /* \"#utility.yul\":20209:20215   */\n      dup3\n        /* \"#utility.yul\":20205:20219   */\n      add\n        /* \"#utility.yul\":20198:20255   */\n      mstore\n        /* \"#utility.yul\":20081:20262   */\n      pop\n      jump\t// out\n        /* \"#utility.yul\":20268:20634   */\n    tag_277:\n        /* \"#utility.yul\":20410:20413   */\n      0x00\n        /* \"#utility.yul\":20431:20498   */\n      tag_450\n        /* \"#utility.yul\":20495:20497   */\n      0x1f\n        /* \"#utility.yul\":20490:20493   */\n      dup4\n        /* \"#utility.yul\":20431:20498   */\n      tag_249\n      jump\t// in\n    tag_450:\n        /* \"#utility.yul\":20424:20498   */\n      swap2\n      pop\n        /* \"#utility.yul\":20507:20600   */\n      tag_451\n        /* \"#utility.yul\":20596:20599   */\n      dup3\n        /* \"#utility.yul\":20507:20600   */\n      tag_276\n      jump\t// in\n    tag_451:\n        /* \"#utility.yul\":20625:20627   */\n      0x20\n        /* \"#utility.yul\":20620:20623   */\n      dup3\n        /* \"#utility.yul\":20616:20628   */\n      add\n        /* \"#utility.yul\":20609:20628   */\n      swap1\n      pop\n        /* \"#utility.yul\":20268:20634   */\n      swap2\n      swap1\n      pop\n      jump\t// out\n        /* \"#utility.yul\":20640:21059   */\n    tag_227:\n        /* \"#utility.yul\":20806:20810   */\n      0x00\n        /* \"#utility.yul\":20844:20846   */\n      0x20\n        /* \"#utility.yul\":20833:20842   */\n      dup3\n        /* \"#utility.yul\":20829:20847   */\n      add\n        /* \"#utility.yul\":20821:20847   */\n      swap1\n      pop\n        /* \"#utility.yul\":20893:20902   */\n      dup2\n        /* \"#utility.yul\":20887:20891   */\n      dup2\n        /* \"#utility.yul\":20883:20903   */\n      sub\n        /* \"#utility.yul\":20879:20880   */\n      0x00\n        /* \"#utility.yul\":20868:20877   */\n      dup4\n        /* \"#utility.yul\":20864:20881   */\n      add\n        /* \"#utility.yul\":20857:20904   */\n      mstore\n        /* \"#utility.yul\":20921:21052   */\n      tag_453\n        /* \"#utility.yul\":21047:21051   */\n      dup2\n        /* \"#utility.yul\":20921:21052   */\n      tag_277\n      jump\t// in\n    tag_453:\n        /* \"#utility.yul\":20913:21052   */\n      swap1\n      pop\n        /* \"#utility.yul\":20640:21059   */\n      swap2\n      swap1\n      pop\n      jump\t// out\n\n    auxdata: 0xa2646970667358221220bcf7f0f7ecb7435b0970ae5e82f3f765d0b74d279eef6208f0ccaeb56e6b713964736f6c634300081d0033\n}\n",
				"bytecode": {
					"linkReferences": {},
					"object": "608060405234801561000f575f5ffd5b50335f73ffffffffffffffffffffffffffffffffffffffff168173ffffffffffffffffffffffffffffffffffffffff1603610081575f6040517f1e4fbdf7000000000000000000000000000000000000000000000000000000008152600401610078919061019d565b60405180910390fd5b6100908161009d60201b60201c565b50600180819055506101b6565b5f5f5f9054906101000a900473ffffffffffffffffffffffffffffffffffffffff169050815f5f6101000a81548173ffffffffffffffffffffffffffffffffffffffff021916908373ffffffffffffffffffffffffffffffffffffffff1602179055508173ffffffffffffffffffffffffffffffffffffffff168173ffffffffffffffffffffffffffffffffffffffff167f8be0079c531659141344cd1fd0a4f28419497f9722a3daafe3b4186f6b6457e060405160405180910390a35050565b5f73ffffffffffffffffffffffffffffffffffffffff82169050919050565b5f6101878261015e565b9050919050565b6101978161017d565b82525050565b5f6020820190506101b05f83018461018e565b92915050565b611faa806101c35f395ff3fe608060405234801561000f575f5ffd5b50600436106100f3575f3560e01c806381f7d94211610095578063adc9772e11610064578063adc9772e14610283578063c2a672e01461029f578063d838d6f8146102bb578063f2fde38b146102d9576100f3565b806381f7d942146101fd578063862d2d7c146102195780638da5cb5b14610249578063a8f715af14610267576100f3565b806340a65823116100d157806340a65823146101735780635e53442814610191578063715018a6146101c15780637547c7a3146101cb576100f3565b80630baca2e5146100f7578063166866c7146101275780631898a37c14610143575b5f5ffd5b610111600480360381019061010c9190611640565b6102f5565b60405161011e9190611683565b60405180910390f35b610141600480360381019061013c9190611640565b61046a565b005b61015d60048036038101906101589190611640565b610643565b60405161016a9190611683565b60405180910390f35b61017b610658565b6040516101889190611683565b60405180910390f35b6101ab60048036038101906101a691906116c6565b610664565b6040516101b89190611769565b60405180910390f35b6101c961075d565b005b6101e560048036038101906101e091906116c6565b610770565b6040516101f4939291906117a0565b60405180910390f35b610217600480360381019061021291906117d5565b6107d0565b005b610233600480360381019061022e9190611813565b610ad5565b6040516102409190611683565b60405180910390f35b610251610af5565b60405161025e9190611851565b60405180910390f35b610281600480360381019061027c91906117d5565b610b1c565b005b61029d600480360381019061029891906117d5565b610d34565b005b6102b960048036038101906102b491906117d5565b6110b9565b005b6102c361137b565b6040516102d09190611683565b60405180910390f35b6102f360048036038101906102ee9190611640565b611381565b005b5f5f5f90505b600280549050811015610464575f6002828154811061031d5761031c61186a565b5b905f5260205f2090600302016040518060600160405290815f82015f9054906101000a900473ffffffffffffffffffffffffffffffffffffffff1673ffffffffffffffffffffffffffffffffffffffff1673ffffffffffffffffffffffffffffffffffffffff16815260200160018201548152602001600282015f9054906101000a900460ff1615151515815250509050806040015115610456575f60055f8673ffffffffffffffffffffffffffffffffffffffff1673ffffffffffffffffffffffffffffffffffffffff1681526020019081526020015f205f835f015173ffffffffffffffffffffffffffffffffffffffff1673ffffffffffffffffffffffffffffffffffffffff1681526020019081526020015f2054905081602001518161044791906118c4565b846104529190611905565b9350505b5080806001019150506102fb565b50919050565b610472611405565b5f60035f8373ffffffffffffffffffffffffffffffffffffffff1673ffffffffffffffffffffffffffffffffffffffff1681526020019081526020015f205490505f81036104f5576040517f08c379a00000000000000000000000000000000000000000000000000000000081526004016104ec90611992565b60405180910390fd5b5f60018261050391906119b0565b90505f6002828154811061051a5761051961186a565b5b905f5260205f2090600302019050806002015f9054906101000a900460ff16610578576040517f08c379a000000000000000000000000000000000000000000000000000000000815260040161056f90611a2d565b60405180910390fd5b5f816002015f6101000a81548160ff021916908315150217905550806001015460045f8282546105a891906119b0565b925050819055505f81600101819055505f60035f8673ffffffffffffffffffffffffffffffffffffffff1673ffffffffffffffffffffffffffffffffffffffff1681526020019081526020015f20819055508373ffffffffffffffffffffffffffffffffffffffff167f4c910b69fe65a61f7531b9c5042b2329ca7179c77290aa7e2eb3afa3c8511fd360405160405180910390a250505050565b6003602052805f5260405f205f915090505481565b5f600280549050905090565b61066c6115ac565b60028054905082106106b3576040517f08c379a00000000000000000000000000000000000000000000000000000000081526004016106aa90611a95565b60405180910390fd5b600282815481106106c7576106c661186a565b5b905f5260205f2090600302016040518060600160405290815f82015f9054906101000a900473ffffffffffffffffffffffffffffffffffffffff1673ffffffffffffffffffffffffffffffffffffffff1673ffffffffffffffffffffffffffffffffffffffff16815260200160018201548152602001600282015f9054906101000a900460ff1615151515815250509050919050565b610765611405565b61076e5f61148c565b565b6002818154811061077f575f80fd5b905f5260205f2090600302015f91509050805f015f9054906101000a900473ffffffffffffffffffffffffffffffffffffffff1690806001015490806002015f9054906101000a900460ff16905083565b6107d8611405565b5f73ffffffffffffffffffffffffffffffffffffffff168273ffffffffffffffffffffffffffffffffffffffff1603610846576040517f08c379a000000000000000000000000000000000000000000000000000000000815260040161083d90611afd565b60405180910390fd5b5f8111610888576040517f08c379a000000000000000000000000000000000000000000000000000000000815260040161087f90611b65565b60405180910390fd5b5f60035f8473ffffffffffffffffffffffffffffffffffffffff1673ffffffffffffffffffffffffffffffffffffffff1681526020019081526020015f205414610907576040517f08c379a00000000000000000000000000000000000000000000000000000000081526004016108fe90611bcd565b60405180910390fd5b612710816004546109189190611905565b1115610959576040517f08c379a000000000000000000000000000000000000000000000000000000000815260040161095090611c35565b60405180910390fd5b600260405180606001604052808473ffffffffffffffffffffffffffffffffffffffff16815260200183815260200160011515815250908060018154018082558091505060019003905f5260205f2090600302015f909190919091505f820151815f015f6101000a81548173ffffffffffffffffffffffffffffffffffffffff021916908373ffffffffffffffffffffffffffffffffffffffff160217905550602082015181600101556040820151816002015f6101000a81548160ff021916908315150217905550505060028054905060035f8473ffffffffffffffffffffffffffffffffffffffff1673ffffffffffffffffffffffffffffffffffffffff1681526020019081526020015f20819055508060045f828254610a7c9190611905565b925050819055508173ffffffffffffffffffffffffffffffffffffffff167ff4c563a3ea86ff1f4275e8c207df0375a51963f2b831b7bf4da8be938d92876c82604051610ac99190611683565b60405180910390a25050565b6005602052815f5260405f20602052805f5260405f205f91509150505481565b5f5f5f9054906101000a900473ffffffffffffffffffffffffffffffffffffffff16905090565b610b24611405565b5f60035f8473ffffffffffffffffffffffffffffffffffffffff1673ffffffffffffffffffffffffffffffffffffffff1681526020019081526020015f205490505f8103610ba7576040517f08c379a0000000000000000000000000000000000000000000000000000000008152600401610b9e90611992565b60405180910390fd5b5f600182610bb591906119b0565b90505f60028281548110610bcc57610bcb61186a565b5b905f5260205f2090600302019050806002015f9054906101000a900460ff16610c2a576040517f08c379a0000000000000000000000000000000000000000000000000000000008152600401610c2190611c9d565b60405180910390fd5b5f8411610c6c576040517f08c379a0000000000000000000000000000000000000000000000000000000008152600401610c6390611b65565b60405180910390fd5b838160010154600454610c7f91906119b0565b610c899190611905565b6004819055506127106004541115610cd6576040517f08c379a0000000000000000000000000000000000000000000000000000000008152600401610ccd90611c35565b60405180910390fd5b8381600101819055508473ffffffffffffffffffffffffffffffffffffffff167fc2d539e6a806d81b0892f23b002d25b825425d13a98bb6f486438b6b7bc0ce3a85604051610d259190611683565b60405180910390a25050505050565b610d3c61154d565b5f8111610d7e576040517f08c379a0000000000000000000000000000000000000000000000000000000008152600401610d7590611d05565b60405180910390fd5b5f60035f8473ffffffffffffffffffffffffffffffffffffffff1673ffffffffffffffffffffffffffffffffffffffff1681526020019081526020015f205490505f8103610e01576040517f08c379a0000000000000000000000000000000000000000000000000000000008152600401610df890611992565b60405180910390fd5b5f6002600183610e1191906119b0565b81548110610e2257610e2161186a565b5b905f5260205f2090600302016040518060600160405290815f82015f9054906101000a900473ffffffffffffffffffffffffffffffffffffffff1673ffffffffffffffffffffffffffffffffffffffff1673ffffffffffffffffffffffffffffffffffffffff16815260200160018201548152602001600282015f9054906101000a900460ff16151515158152505090508060400151610ef7576040517f08c379a0000000000000000000000000000000000000000000000000000000008152600401610eee90611c9d565b60405180910390fd5b5f8473ffffffffffffffffffffffffffffffffffffffff166323b872dd3330876040518463ffffffff1660e01b8152600401610f3593929190611d23565b6020604051808303815f875af1158015610f51573d5f5f3e3d5ffd5b505050506040513d601f19601f82011682018060405250810190610f759190611d82565b905080610fb7576040517f08c379a0000000000000000000000000000000000000000000000000000000008152600401610fae90611df7565b60405180910390fd5b8360055f3373ffffffffffffffffffffffffffffffffffffffff1673ffffffffffffffffffffffffffffffffffffffff1681526020019081526020015f205f8773ffffffffffffffffffffffffffffffffffffffff1673ffffffffffffffffffffffffffffffffffffffff1681526020019081526020015f205f82825461103e9190611905565b925050819055508473ffffffffffffffffffffffffffffffffffffffff163373ffffffffffffffffffffffffffffffffffffffff167f5dac0c1b1112564a045ba943c9d50270893e8e826c49be8e7073adc713ab7bd7866040516110a29190611683565b60405180910390a35050506110b561159c565b5050565b6110c161154d565b5f8111611103576040517f08c379a00000000000000000000000000000000000000000000000000000000081526004016110fa90611e5f565b60405180910390fd5b5f60055f3373ffffffffffffffffffffffffffffffffffffffff1673ffffffffffffffffffffffffffffffffffffffff1681526020019081526020015f205f8473ffffffffffffffffffffffffffffffffffffffff1673ffffffffffffffffffffffffffffffffffffffff1681526020019081526020015f20549050818110156111c2576040517f08c379a00000000000000000000000000000000000000000000000000000000081526004016111b990611ec7565b60405180910390fd5b81816111ce91906119b0565b60055f3373ffffffffffffffffffffffffffffffffffffffff1673ffffffffffffffffffffffffffffffffffffffff1681526020019081526020015f205f8573ffffffffffffffffffffffffffffffffffffffff1673ffffffffffffffffffffffffffffffffffffffff1681526020019081526020015f20819055505f8373ffffffffffffffffffffffffffffffffffffffff1663a9059cbb33856040518363ffffffff1660e01b8152600401611286929190611ee5565b6020604051808303815f875af11580156112a2573d5f5f3e3d5ffd5b505050506040513d601f19601f820116820180604052508101906112c69190611d82565b905080611308576040517f08c379a00000000000000000000000000000000000000000000000000000000081526004016112ff90611df7565b60405180910390fd5b8373ffffffffffffffffffffffffffffffffffffffff163373ffffffffffffffffffffffffffffffffffffffff167fd8654fcc8cf5b36d30b3f5e4688fc78118e6d68de60b9994e09902268b57c3e3856040516113659190611683565b60405180910390a3505061137761159c565b5050565b60045481565b611389611405565b5f73ffffffffffffffffffffffffffffffffffffffff168173ffffffffffffffffffffffffffffffffffffffff16036113f9575f6040517f1e4fbdf70000000000000000000000000000000000000000000000000000000081526004016113f09190611851565b60405180910390fd5b6114028161148c565b50565b61140d6115a5565b73ffffffffffffffffffffffffffffffffffffffff1661142b610af5565b73ffffffffffffffffffffffffffffffffffffffff161461148a5761144e6115a5565b6040517f118cdaa70000000000000000000000000000000000000000000000000000000081526004016114819190611851565b60405180910390fd5b565b5f5f5f9054906101000a900473ffffffffffffffffffffffffffffffffffffffff169050815f5f6101000a81548173ffffffffffffffffffffffffffffffffffffffff021916908373ffffffffffffffffffffffffffffffffffffffff1602179055508173ffffffffffffffffffffffffffffffffffffffff168173ffffffffffffffffffffffffffffffffffffffff167f8be0079c531659141344cd1fd0a4f28419497f9722a3daafe3b4186f6b6457e060405160405180910390a35050565b600260015403611592576040517f08c379a000000000000000000000000000000000000000000000000000000000815260040161158990611f56565b60405180910390fd5b6002600181905550565b60018081905550565b5f33905090565b60405180606001604052805f73ffffffffffffffffffffffffffffffffffffffff1681526020015f81526020015f151581525090565b5f5ffd5b5f73ffffffffffffffffffffffffffffffffffffffff82169050919050565b5f61160f826115e6565b9050919050565b61161f81611605565b8114611629575f5ffd5b50565b5f8135905061163a81611616565b92915050565b5f60208284031215611655576116546115e2565b5b5f6116628482850161162c565b91505092915050565b5f819050919050565b61167d8161166b565b82525050565b5f6020820190506116965f830184611674565b92915050565b6116a58161166b565b81146116af575f5ffd5b50565b5f813590506116c08161169c565b92915050565b5f602082840312156116db576116da6115e2565b5b5f6116e8848285016116b2565b91505092915050565b6116fa81611605565b82525050565b6117098161166b565b82525050565b5f8115159050919050565b6117238161170f565b82525050565b606082015f82015161173d5f8501826116f1565b5060208201516117506020850182611700565b506040820151611763604085018261171a565b50505050565b5f60608201905061177c5f830184611729565b92915050565b61178b81611605565b82525050565b61179a8161170f565b82525050565b5f6060820190506117b35f830186611782565b6117c06020830185611674565b6117cd6040830184611791565b949350505050565b5f5f604083850312156117eb576117ea6115e2565b5b5f6117f88582860161162c565b9250506020611809858286016116b2565b9150509250929050565b5f5f60408385031215611829576118286115e2565b5b5f6118368582860161162c565b92505060206118478582860161162c565b9150509250929050565b5f6020820190506118645f830184611782565b92915050565b7f4e487b71000000000000000000000000000000000000000000000000000000005f52603260045260245ffd5b7f4e487b71000000000000000000000000000000000000000000000000000000005f52601160045260245ffd5b5f6118ce8261166b565b91506118d98361166b565b92508282026118e78161166b565b915082820484148315176118fe576118fd611897565b5b5092915050565b5f61190f8261166b565b915061191a8361166b565b925082820190508082111561193257611931611897565b5b92915050565b5f82825260208201905092915050565b7f546f6b656e206e6f7420696e20736574000000000000000000000000000000005f82015250565b5f61197c601083611938565b915061198782611948565b602082019050919050565b5f6020820190508181035f8301526119a981611970565b9050919050565b5f6119ba8261166b565b91506119c58361166b565b92508282039050818111156119dd576119dc611897565b5b92915050565b7f546f6b656e20616c726561647920696e616374697665000000000000000000005f82015250565b5f611a17601683611938565b9150611a22826119e3565b602082019050919050565b5f6020820190508181035f830152611a4481611a0b565b9050919050565b7f496e646578206f7574206f662072616e676500000000000000000000000000005f82015250565b5f611a7f601283611938565b9150611a8a82611a4b565b602082019050919050565b5f6020820190508181035f830152611aac81611a73565b9050919050565b7f496e76616c696420746f6b656e206164647265737300000000000000000000005f82015250565b5f611ae7601583611938565b9150611af282611ab3565b602082019050919050565b5f6020820190508181035f830152611b1481611adb565b9050919050565b7f576569676874206d757374206265203e203000000000000000000000000000005f82015250565b5f611b4f601283611938565b9150611b5a82611b1b565b602082019050919050565b5f6020820190508181035f830152611b7c81611b43565b9050919050565b7f546f6b656e20616c7265616479206164646564000000000000000000000000005f82015250565b5f611bb7601383611938565b9150611bc282611b83565b602082019050919050565b5f6020820190508181035f830152611be481611bab565b9050919050565b7f546f74616c2077656967687420657863656564732031303025000000000000005f82015250565b5f611c1f601983611938565b9150611c2a82611beb565b602082019050919050565b5f6020820190508181035f830152611c4c81611c13565b9050919050565b7f546f6b656e20697320696e6163746976650000000000000000000000000000005f82015250565b5f611c87601183611938565b9150611c9282611c53565b602082019050919050565b5f6020820190508181035f830152611cb481611c7b565b9050919050565b7f5374616b656420616d6f756e74206d757374206265203e2030000000000000005f82015250565b5f611cef601983611938565b9150611cfa82611cbb565b602082019050919050565b5f6020820190508181035f830152611d1c81611ce3565b9050919050565b5f606082019050611d365f830186611782565b611d436020830185611782565b611d506040830184611674565b949350505050565b611d618161170f565b8114611d6b575f5ffd5b50565b5f81519050611d7c81611d58565b92915050565b5f60208284031215611d9757611d966115e2565b5b5f611da484828501611d6e565b91505092915050565b7f5472616e73666572206661696c656400000000000000000000000000000000005f82015250565b5f611de1600f83611938565b9150611dec82611dad565b602082019050919050565b5f6020820190508181035f830152611e0e81611dd5565b9050919050565b7f556e7374616b6520616d6f756e74206d757374206265203e20300000000000005f82015250565b5f611e49601a83611938565b9150611e5482611e15565b602082019050919050565b5f6020820190508181035f830152611e7681611e3d565b9050919050565b7f496e73756666696369656e74207374616b65642062616c616e636500000000005f82015250565b5f611eb1601b83611938565b9150611ebc82611e7d565b602082019050919050565b5f6020820190508181035f830152611ede81611ea5565b9050919050565b5f604082019050611ef85f830185611782565b611f056020830184611674565b9392505050565b7f5265656e7472616e637947756172643a207265656e7472616e742063616c6c005f82015250565b5f611f40601f83611938565b9150611f4b82611f0c565b602082019050919050565b5f6020820190508181035f830152611f6d81611f34565b905091905056fea2646970667358221220bcf7f0f7ecb7435b0970ae5e82f3f765d0b74d279eef6208f0ccaeb56e6b713964736f6c634300081d0033",
					"opcodes": "PUSH1 0x80 PUSH1 0x40 MSTORE CALLVALUE DUP1 ISZERO PUSH2 0xF JUMPI PUSH0 PUSH0 REVERT JUMPDEST POP CALLER PUSH0 PUSH20 0xFFFFFFFFFFFFFFFFFFFFFFFFFFFFFFFFFFFFFFFF AND DUP2 PUSH20 0xFFFFFFFFFFFFFFFFFFFFFFFFFFFFFFFFFFFFFFFF AND SUB PUSH2 0x81 JUMPI PUSH0 PUSH1 0x40 MLOAD PUSH32 0x1E4FBDF700000000000000000000000000000000000000000000000000000000 DUP2 MSTORE PUSH1 0x4 ADD PUSH2 0x78 SWAP2 SWAP1 PUSH2 0x19D JUMP JUMPDEST PUSH1 0x40 MLOAD DUP1 SWAP2 SUB SWAP1 REVERT JUMPDEST PUSH2 0x90 DUP2 PUSH2 0x9D PUSH1 0x20 SHL PUSH1 0x20 SHR JUMP JUMPDEST POP PUSH1 0x1 DUP1 DUP2 SWAP1 SSTORE POP PUSH2 0x1B6 JUMP JUMPDEST PUSH0 PUSH0 PUSH0 SWAP1 SLOAD SWAP1 PUSH2 0x100 EXP SWAP1 DIV PUSH20 0xFFFFFFFFFFFFFFFFFFFFFFFFFFFFFFFFFFFFFFFF AND SWAP1 POP DUP2 PUSH0 PUSH0 PUSH2 0x100 EXP DUP2 SLOAD DUP2 PUSH20 0xFFFFFFFFFFFFFFFFFFFFFFFFFFFFFFFFFFFFFFFF MUL NOT AND SWAP1 DUP4 PUSH20 0xFFFFFFFFFFFFFFFFFFFFFFFFFFFFFFFFFFFFFFFF AND MUL OR SWAP1 SSTORE POP DUP2 PUSH20 0xFFFFFFFFFFFFFFFFFFFFFFFFFFFFFFFFFFFFFFFF AND DUP2 PUSH20 0xFFFFFFFFFFFFFFFFFFFFFFFFFFFFFFFFFFFFFFFF AND PUSH32 0x8BE0079C531659141344CD1FD0A4F28419497F9722A3DAAFE3B4186F6B6457E0 PUSH1 0x40 MLOAD PUSH1 0x40 MLOAD DUP1 SWAP2 SUB SWAP1 LOG3 POP POP JUMP JUMPDEST PUSH0 PUSH20 0xFFFFFFFFFFFFFFFFFFFFFFFFFFFFFFFFFFFFFFFF DUP3 AND SWAP1 POP SWAP2 SWAP1 POP JUMP JUMPDEST PUSH0 PUSH2 0x187 DUP3 PUSH2 0x15E JUMP JUMPDEST SWAP1 POP SWAP2 SWAP1 POP JUMP JUMPDEST PUSH2 0x197 DUP2 PUSH2 0x17D JUMP JUMPDEST DUP3 MSTORE POP POP JUMP JUMPDEST PUSH0 PUSH1 0x20 DUP3 ADD SWAP1 POP PUSH2 0x1B0 PUSH0 DUP4 ADD DUP5 PUSH2 0x18E JUMP JUMPDEST SWAP3 SWAP2 POP POP JUMP JUMPDEST PUSH2 0x1FAA DUP1 PUSH2 0x1C3 PUSH0 CODECOPY PUSH0 RETURN INVALID PUSH1 0x80 PUSH1 0x40 MSTORE CALLVALUE DUP1 ISZERO PUSH2 0xF JUMPI PUSH0 PUSH0 REVERT JUMPDEST POP PUSH1 0x4 CALLDATASIZE LT PUSH2 0xF3 JUMPI PUSH0 CALLDATALOAD PUSH1 0xE0 SHR DUP1 PUSH4 0x81F7D942 GT PUSH2 0x95 JUMPI DUP1 PUSH4 0xADC9772E GT PUSH2 0x64 JUMPI DUP1 PUSH4 0xADC9772E EQ PUSH2 0x283 JUMPI DUP1 PUSH4 0xC2A672E0 EQ PUSH2 0x29F JUMPI DUP1 PUSH4 0xD838D6F8 EQ PUSH2 0x2BB JUMPI DUP1 PUSH4 0xF2FDE38B EQ PUSH2 0x2D9 JUMPI PUSH2 0xF3 JUMP JUMPDEST DUP1 PUSH4 0x81F7D942 EQ PUSH2 0x1FD JUMPI DUP1 PUSH4 0x862D2D7C EQ PUSH2 0x219 JUMPI DUP1 PUSH4 0x8DA5CB5B EQ PUSH2 0x249 JUMPI DUP1 PUSH4 0xA8F715AF EQ PUSH2 0x267 JUMPI PUSH2 0xF3 JUMP JUMPDEST DUP1 PUSH4 0x40A65823 GT PUSH2 0xD1 JUMPI DUP1 PUSH4 0x40A65823 EQ PUSH2 0x173 JUMPI DUP1 PUSH4 0x5E534428 EQ PUSH2 0x191 JUMPI DUP1 PUSH4 0x715018A6 EQ PUSH2 0x1C1 JUMPI DUP1 PUSH4 0x7547C7A3 EQ PUSH2 0x1CB JUMPI PUSH2 0xF3 JUMP JUMPDEST DUP1 PUSH4 0xBACA2E5 EQ PUSH2 0xF7 JUMPI DUP1 PUSH4 0x166866C7 EQ PUSH2 0x127 JUMPI DUP1 PUSH4 0x1898A37C EQ PUSH2 0x143 JUMPI JUMPDEST PUSH0 PUSH0 REVERT JUMPDEST PUSH2 0x111 PUSH1 0x4 DUP1 CALLDATASIZE SUB DUP2 ADD SWAP1 PUSH2 0x10C SWAP2 SWAP1 PUSH2 0x1640 JUMP JUMPDEST PUSH2 0x2F5 JUMP JUMPDEST PUSH1 0x40 MLOAD PUSH2 0x11E SWAP2 SWAP1 PUSH2 0x1683 JUMP JUMPDEST PUSH1 0x40 MLOAD DUP1 SWAP2 SUB SWAP1 RETURN JUMPDEST PUSH2 0x141 PUSH1 0x4 DUP1 CALLDATASIZE SUB DUP2 ADD SWAP1 PUSH2 0x13C SWAP2 SWAP1 PUSH2 0x1640 JUMP JUMPDEST PUSH2 0x46A JUMP JUMPDEST STOP JUMPDEST PUSH2 0x15D PUSH1 0x4 DUP1 CALLDATASIZE SUB DUP2 ADD SWAP1 PUSH2 0x158 SWAP2 SWAP1 PUSH2 0x1640 JUMP JUMPDEST PUSH2 0x643 JUMP JUMPDEST PUSH1 0x40 MLOAD PUSH2 0x16A SWAP2 SWAP1 PUSH2 0x1683 JUMP JUMPDEST PUSH1 0x40 MLOAD DUP1 SWAP2 SUB SWAP1 RETURN JUMPDEST PUSH2 0x17B PUSH2 0x658 JUMP JUMPDEST PUSH1 0x40 MLOAD PUSH2 0x188 SWAP2 SWAP1 PUSH2 0x1683 JUMP JUMPDEST PUSH1 0x40 MLOAD DUP1 SWAP2 SUB SWAP1 RETURN JUMPDEST PUSH2 0x1AB PUSH1 0x4 DUP1 CALLDATASIZE SUB DUP2 ADD SWAP1 PUSH2 0x1A6 SWAP2 SWAP1 PUSH2 0x16C6 JUMP JUMPDEST PUSH2 0x664 JUMP JUMPDEST PUSH1 0x40 MLOAD PUSH2 0x1B8 SWAP2 SWAP1 PUSH2 0x1769 JUMP JUMPDEST PUSH1 0x40 MLOAD DUP1 SWAP2 SUB SWAP1 RETURN JUMPDEST PUSH2 0x1C9 PUSH2 0x75D JUMP JUMPDEST STOP JUMPDEST PUSH2 0x1E5 PUSH1 0x4 DUP1 CALLDATASIZE SUB DUP2 ADD SWAP1 PUSH2 0x1E0 SWAP2 SWAP1 PUSH2 0x16C6 JUMP JUMPDEST PUSH2 0x770 JUMP JUMPDEST PUSH1 0x40 MLOAD PUSH2 0x1F4 SWAP4 SWAP3 SWAP2 SWAP1 PUSH2 0x17A0 JUMP JUMPDEST PUSH1 0x40 MLOAD DUP1 SWAP2 SUB SWAP1 RETURN JUMPDEST PUSH2 0x217 PUSH1 0x4 DUP1 CALLDATASIZE SUB DUP2 ADD SWAP1 PUSH2 0x212 SWAP2 SWAP1 PUSH2 0x17D5 JUMP JUMPDEST PUSH2 0x7D0 JUMP JUMPDEST STOP JUMPDEST PUSH2 0x233 PUSH1 0x4 DUP1 CALLDATASIZE SUB DUP2 ADD SWAP1 PUSH2 0x22E SWAP2 SWAP1 PUSH2 0x1813 JUMP JUMPDEST PUSH2 0xAD5 JUMP JUMPDEST PUSH1 0x40 MLOAD PUSH2 0x240 SWAP2 SWAP1 PUSH2 0x1683 JUMP JUMPDEST PUSH1 0x40 MLOAD DUP1 SWAP2 SUB SWAP1 RETURN JUMPDEST PUSH2 0x251 PUSH2 0xAF5 JUMP JUMPDEST PUSH1 0x40 MLOAD PUSH2 0x25E SWAP2 SWAP1 PUSH2 0x1851 JUMP JUMPDEST PUSH1 0x40 MLOAD DUP1 SWAP2 SUB SWAP1 RETURN JUMPDEST PUSH2 0x281 PUSH1 0x4 DUP1 CALLDATASIZE SUB DUP2 ADD SWAP1 PUSH2 0x27C SWAP2 SWAP1 PUSH2 0x17D5 JUMP JUMPDEST PUSH2 0xB1C JUMP JUMPDEST STOP JUMPDEST PUSH2 0x29D PUSH1 0x4 DUP1 CALLDATASIZE SUB DUP2 ADD SWAP1 PUSH2 0x298 SWAP2 SWAP1 PUSH2 0x17D5 JUMP JUMPDEST PUSH2 0xD34 JUMP JUMPDEST STOP JUMPDEST PUSH2 0x2B9 PUSH1 0x4 DUP1 CALLDATASIZE SUB DUP2 ADD SWAP1 PUSH2 0x2B4 SWAP2 SWAP1 PUSH2 0x17D5 JUMP JUMPDEST PUSH2 0x10B9 JUMP JUMPDEST STOP JUMPDEST PUSH2 0x2C3 PUSH2 0x137B JUMP JUMPDEST PUSH1 0x40 MLOAD PUSH2 0x2D0 SWAP2 SWAP1 PUSH2 0x1683 JUMP JUMPDEST PUSH1 0x40 MLOAD DUP1 SWAP2 SUB SWAP1 RETURN JUMPDEST PUSH2 0x2F3 PUSH1 0x4 DUP1 CALLDATASIZE SUB DUP2 ADD SWAP1 PUSH2 0x2EE SWAP2 SWAP1 PUSH2 0x1640 JUMP JUMPDEST PUSH2 0x1381 JUMP JUMPDEST STOP JUMPDEST PUSH0 PUSH0 PUSH0 SWAP1 POP JUMPDEST PUSH1 0x2 DUP1 SLOAD SWAP1 POP DUP2 LT ISZERO PUSH2 0x464 JUMPI PUSH0 PUSH1 0x2 DUP3 DUP2 SLOAD DUP2 LT PUSH2 0x31D JUMPI PUSH2 0x31C PUSH2 0x186A JUMP JUMPDEST JUMPDEST SWAP1 PUSH0 MSTORE PUSH1 0x20 PUSH0 KECCAK256 SWAP1 PUSH1 0x3 MUL ADD PUSH1 0x40 MLOAD DUP1 PUSH1 0x60 ADD PUSH1 0x40 MSTORE SWAP1 DUP2 PUSH0 DUP3 ADD PUSH0 SWAP1 SLOAD SWAP1 PUSH2 0x100 EXP SWAP1 DIV PUSH20 0xFFFFFFFFFFFFFFFFFFFFFFFFFFFFFFFFFFFFFFFF AND PUSH20 0xFFFFFFFFFFFFFFFFFFFFFFFFFFFFFFFFFFFFFFFF AND PUSH20 0xFFFFFFFFFFFFFFFFFFFFFFFFFFFFFFFFFFFFFFFF AND DUP2 MSTORE PUSH1 0x20 ADD PUSH1 0x1 DUP3 ADD SLOAD DUP2 MSTORE PUSH1 0x20 ADD PUSH1 0x2 DUP3 ADD PUSH0 SWAP1 SLOAD SWAP1 PUSH2 0x100 EXP SWAP1 DIV PUSH1 0xFF AND ISZERO ISZERO ISZERO ISZERO DUP2 MSTORE POP POP SWAP1 POP DUP1 PUSH1 0x40 ADD MLOAD ISZERO PUSH2 0x456 JUMPI PUSH0 PUSH1 0x5 PUSH0 DUP7 PUSH20 0xFFFFFFFFFFFFFFFFFFFFFFFFFFFFFFFFFFFFFFFF AND PUSH20 0xFFFFFFFFFFFFFFFFFFFFFFFFFFFFFFFFFFFFFFFF AND DUP2 MSTORE PUSH1 0x20 ADD SWAP1 DUP2 MSTORE PUSH1 0x20 ADD PUSH0 KECCAK256 PUSH0 DUP4 PUSH0 ADD MLOAD PUSH20 0xFFFFFFFFFFFFFFFFFFFFFFFFFFFFFFFFFFFFFFFF AND PUSH20 0xFFFFFFFFFFFFFFFFFFFFFFFFFFFFFFFFFFFFFFFF AND DUP2 MSTORE PUSH1 0x20 ADD SWAP1 DUP2 MSTORE PUSH1 0x20 ADD PUSH0 KECCAK256 SLOAD SWAP1 POP DUP2 PUSH1 0x20 ADD MLOAD DUP2 PUSH2 0x447 SWAP2 SWAP1 PUSH2 0x18C4 JUMP JUMPDEST DUP5 PUSH2 0x452 SWAP2 SWAP1 PUSH2 0x1905 JUMP JUMPDEST SWAP4 POP POP JUMPDEST POP DUP1 DUP1 PUSH1 0x1 ADD SWAP2 POP POP PUSH2 0x2FB JUMP JUMPDEST POP SWAP2 SWAP1 POP JUMP JUMPDEST PUSH2 0x472 PUSH2 0x1405 JUMP JUMPDEST PUSH0 PUSH1 0x3 PUSH0 DUP4 PUSH20 0xFFFFFFFFFFFFFFFFFFFFFFFFFFFFFFFFFFFFFFFF AND PUSH20 0xFFFFFFFFFFFFFFFFFFFFFFFFFFFFFFFFFFFFFFFF AND DUP2 MSTORE PUSH1 0x20 ADD SWAP1 DUP2 MSTORE PUSH1 0x20 ADD PUSH0 KECCAK256 SLOAD SWAP1 POP PUSH0 DUP2 SUB PUSH2 0x4F5 JUMPI PUSH1 0x40 MLOAD PUSH32 0x8C379A000000000000000000000000000000000000000000000000000000000 DUP2 MSTORE PUSH1 0x4 ADD PUSH2 0x4EC SWAP1 PUSH2 0x1992 JUMP JUMPDEST PUSH1 0x40 MLOAD DUP1 SWAP2 SUB SWAP1 REVERT JUMPDEST PUSH0 PUSH1 0x1 DUP3 PUSH2 0x503 SWAP2 SWAP1 PUSH2 0x19B0 JUMP JUMPDEST SWAP1 POP PUSH0 PUSH1 0x2 DUP3 DUP2 SLOAD DUP2 LT PUSH2 0x51A JUMPI PUSH2 0x519 PUSH2 0x186A JUMP JUMPDEST JUMPDEST SWAP1 PUSH0 MSTORE PUSH1 0x20 PUSH0 KECCAK256 SWAP1 PUSH1 0x3 MUL ADD SWAP1 POP DUP1 PUSH1 0x2 ADD PUSH0 SWAP1 SLOAD SWAP1 PUSH2 0x100 EXP SWAP1 DIV PUSH1 0xFF AND PUSH2 0x578 JUMPI PUSH1 0x40 MLOAD PUSH32 0x8C379A000000000000000000000000000000000000000000000000000000000 DUP2 MSTORE PUSH1 0x4 ADD PUSH2 0x56F SWAP1 PUSH2 0x1A2D JUMP JUMPDEST PUSH1 0x40 MLOAD DUP1 SWAP2 SUB SWAP1 REVERT JUMPDEST PUSH0 DUP2 PUSH1 0x2 ADD PUSH0 PUSH2 0x100 EXP DUP2 SLOAD DUP2 PUSH1 0xFF MUL NOT AND SWAP1 DUP4 ISZERO ISZERO MUL OR SWAP1 SSTORE POP DUP1 PUSH1 0x1 ADD SLOAD PUSH1 0x4 PUSH0 DUP3 DUP3 SLOAD PUSH2 0x5A8 SWAP2 SWAP1 PUSH2 0x19B0 JUMP JUMPDEST SWAP3 POP POP DUP2 SWAP1 SSTORE POP PUSH0 DUP2 PUSH1 0x1 ADD DUP2 SWAP1 SSTORE POP PUSH0 PUSH1 0x3 PUSH0 DUP7 PUSH20 0xFFFFFFFFFFFFFFFFFFFFFFFFFFFFFFFFFFFFFFFF AND PUSH20 0xFFFFFFFFFFFFFFFFFFFFFFFFFFFFFFFFFFFFFFFF AND DUP2 MSTORE PUSH1 0x20 ADD SWAP1 DUP2 MSTORE PUSH1 0x20 ADD PUSH0 KECCAK256 DUP2 SWAP1 SSTORE POP DUP4 PUSH20 0xFFFFFFFFFFFFFFFFFFFFFFFFFFFFFFFFFFFFFFFF AND PUSH32 0x4C910B69FE65A61F7531B9C5042B2329CA7179C77290AA7E2EB3AFA3C8511FD3 PUSH1 0x40 MLOAD PUSH1 0x40 MLOAD DUP1 SWAP2 SUB SWAP1 LOG2 POP POP POP POP JUMP JUMPDEST PUSH1 0x3 PUSH1 0x20 MSTORE DUP1 PUSH0 MSTORE PUSH1 0x40 PUSH0 KECCAK256 PUSH0 SWAP2 POP SWAP1 POP SLOAD DUP2 JUMP JUMPDEST PUSH0 PUSH1 0x2 DUP1 SLOAD SWAP1 POP SWAP1 POP SWAP1 JUMP JUMPDEST PUSH2 0x66C PUSH2 0x15AC JUMP JUMPDEST PUSH1 0x2 DUP1 SLOAD SWAP1 POP DUP3 LT PUSH2 0x6B3 JUMPI PUSH1 0x40 MLOAD PUSH32 0x8C379A000000000000000000000000000000000000000000000000000000000 DUP2 MSTORE PUSH1 0x4 ADD PUSH2 0x6AA SWAP1 PUSH2 0x1A95 JUMP JUMPDEST PUSH1 0x40 MLOAD DUP1 SWAP2 SUB SWAP1 REVERT JUMPDEST PUSH1 0x2 DUP3 DUP2 SLOAD DUP2 LT PUSH2 0x6C7 JUMPI PUSH2 0x6C6 PUSH2 0x186A JUMP JUMPDEST JUMPDEST SWAP1 PUSH0 MSTORE PUSH1 0x20 PUSH0 KECCAK256 SWAP1 PUSH1 0x3 MUL ADD PUSH1 0x40 MLOAD DUP1 PUSH1 0x60 ADD PUSH1 0x40 MSTORE SWAP1 DUP2 PUSH0 DUP3 ADD PUSH0 SWAP1 SLOAD SWAP1 PUSH2 0x100 EXP SWAP1 DIV PUSH20 0xFFFFFFFFFFFFFFFFFFFFFFFFFFFFFFFFFFFFFFFF AND PUSH20 0xFFFFFFFFFFFFFFFFFFFFFFFFFFFFFFFFFFFFFFFF AND PUSH20 0xFFFFFFFFFFFFFFFFFFFFFFFFFFFFFFFFFFFFFFFF AND DUP2 MSTORE PUSH1 0x20 ADD PUSH1 0x1 DUP3 ADD SLOAD DUP2 MSTORE PUSH1 0x20 ADD PUSH1 0x2 DUP3 ADD PUSH0 SWAP1 SLOAD SWAP1 PUSH2 0x100 EXP SWAP1 DIV PUSH1 0xFF AND ISZERO ISZERO ISZERO ISZERO DUP2 MSTORE POP POP SWAP1 POP SWAP2 SWAP1 POP JUMP JUMPDEST PUSH2 0x765 PUSH2 0x1405 JUMP JUMPDEST PUSH2 0x76E PUSH0 PUSH2 0x148C JUMP JUMPDEST JUMP JUMPDEST PUSH1 0x2 DUP2 DUP2 SLOAD DUP2 LT PUSH2 0x77F JUMPI PUSH0 DUP1 REVERT JUMPDEST SWAP1 PUSH0 MSTORE PUSH1 0x20 PUSH0 KECCAK256 SWAP1 PUSH1 0x3 MUL ADD PUSH0 SWAP2 POP SWAP1 POP DUP1 PUSH0 ADD PUSH0 SWAP1 SLOAD SWAP1 PUSH2 0x100 EXP SWAP1 DIV PUSH20 0xFFFFFFFFFFFFFFFFFFFFFFFFFFFFFFFFFFFFFFFF AND SWAP1 DUP1 PUSH1 0x1 ADD SLOAD SWAP1 DUP1 PUSH1 0x2 ADD PUSH0 SWAP1 SLOAD SWAP1 PUSH2 0x100 EXP SWAP1 DIV PUSH1 0xFF AND SWAP1 POP DUP4 JUMP JUMPDEST PUSH2 0x7D8 PUSH2 0x1405 JUMP JUMPDEST PUSH0 PUSH20 0xFFFFFFFFFFFFFFFFFFFFFFFFFFFFFFFFFFFFFFFF AND DUP3 PUSH20 0xFFFFFFFFFFFFFFFFFFFFFFFFFFFFFFFFFFFFFFFF AND SUB PUSH2 0x846 JUMPI PUSH1 0x40 MLOAD PUSH32 0x8C379A000000000000000000000000000000000000000000000000000000000 DUP2 MSTORE PUSH1 0x4 ADD PUSH2 0x83D SWAP1 PUSH2 0x1AFD JUMP JUMPDEST PUSH1 0x40 MLOAD DUP1 SWAP2 SUB SWAP1 REVERT JUMPDEST PUSH0 DUP2 GT PUSH2 0x888 JUMPI PUSH1 0x40 MLOAD PUSH32 0x8C379A000000000000000000000000000000000000000000000000000000000 DUP2 MSTORE PUSH1 0x4 ADD PUSH2 0x87F SWAP1 PUSH2 0x1B65 JUMP JUMPDEST PUSH1 0x40 MLOAD DUP1 SWAP2 SUB SWAP1 REVERT JUMPDEST PUSH0 PUSH1 0x3 PUSH0 DUP5 PUSH20 0xFFFFFFFFFFFFFFFFFFFFFFFFFFFFFFFFFFFFFFFF AND PUSH20 0xFFFFFFFFFFFFFFFFFFFFFFFFFFFFFFFFFFFFFFFF AND DUP2 MSTORE PUSH1 0x20 ADD SWAP1 DUP2 MSTORE PUSH1 0x20 ADD PUSH0 KECCAK256 SLOAD EQ PUSH2 0x907 JUMPI PUSH1 0x40 MLOAD PUSH32 0x8C379A000000000000000000000000000000000000000000000000000000000 DUP2 MSTORE PUSH1 0x4 ADD PUSH2 0x8FE SWAP1 PUSH2 0x1BCD JUMP JUMPDEST PUSH1 0x40 MLOAD DUP1 SWAP2 SUB SWAP1 REVERT JUMPDEST PUSH2 0x2710 DUP2 PUSH1 0x4 SLOAD PUSH2 0x918 SWAP2 SWAP1 PUSH2 0x1905 JUMP JUMPDEST GT ISZERO PUSH2 0x959 JUMPI PUSH1 0x40 MLOAD PUSH32 0x8C379A000000000000000000000000000000000000000000000000000000000 DUP2 MSTORE PUSH1 0x4 ADD PUSH2 0x950 SWAP1 PUSH2 0x1C35 JUMP JUMPDEST PUSH1 0x40 MLOAD DUP1 SWAP2 SUB SWAP1 REVERT JUMPDEST PUSH1 0x2 PUSH1 0x40 MLOAD DUP1 PUSH1 0x60 ADD PUSH1 0x40 MSTORE DUP1 DUP5 PUSH20 0xFFFFFFFFFFFFFFFFFFFFFFFFFFFFFFFFFFFFFFFF AND DUP2 MSTORE PUSH1 0x20 ADD DUP4 DUP2 MSTORE PUSH1 0x20 ADD PUSH1 0x1 ISZERO ISZERO DUP2 MSTORE POP SWAP1 DUP1 PUSH1 0x1 DUP2 SLOAD ADD DUP1 DUP3 SSTORE DUP1 SWAP2 POP POP PUSH1 0x1 SWAP1 SUB SWAP1 PUSH0 MSTORE PUSH1 0x20 PUSH0 KECCAK256 SWAP1 PUSH1 0x3 MUL ADD PUSH0 SWAP1 SWAP2 SWAP1 SWAP2 SWAP1 SWAP2 POP PUSH0 DUP3 ADD MLOAD DUP2 PUSH0 ADD PUSH0 PUSH2 0x100 EXP DUP2 SLOAD DUP2 PUSH20 0xFFFFFFFFFFFFFFFFFFFFFFFFFFFFFFFFFFFFFFFF MUL NOT AND SWAP1 DUP4 PUSH20 0xFFFFFFFFFFFFFFFFFFFFFFFFFFFFFFFFFFFFFFFF AND MUL OR SWAP1 SSTORE POP PUSH1 0x20 DUP3 ADD MLOAD DUP2 PUSH1 0x1 ADD SSTORE PUSH1 0x40 DUP3 ADD MLOAD DUP2 PUSH1 0x2 ADD PUSH0 PUSH2 0x100 EXP DUP2 SLOAD DUP2 PUSH1 0xFF MUL NOT AND SWAP1 DUP4 ISZERO ISZERO MUL OR SWAP1 SSTORE POP POP POP PUSH1 0x2 DUP1 SLOAD SWAP1 POP PUSH1 0x3 PUSH0 DUP5 PUSH20 0xFFFFFFFFFFFFFFFFFFFFFFFFFFFFFFFFFFFFFFFF AND PUSH20 0xFFFFFFFFFFFFFFFFFFFFFFFFFFFFFFFFFFFFFFFF AND DUP2 MSTORE PUSH1 0x20 ADD SWAP1 DUP2 MSTORE PUSH1 0x20 ADD PUSH0 KECCAK256 DUP2 SWAP1 SSTORE POP DUP1 PUSH1 0x4 PUSH0 DUP3 DUP3 SLOAD PUSH2 0xA7C SWAP2 SWAP1 PUSH2 0x1905 JUMP JUMPDEST SWAP3 POP POP DUP2 SWAP1 SSTORE POP DUP2 PUSH20 0xFFFFFFFFFFFFFFFFFFFFFFFFFFFFFFFFFFFFFFFF AND PUSH32 0xF4C563A3EA86FF1F4275E8C207DF0375A51963F2B831B7BF4DA8BE938D92876C DUP3 PUSH1 0x40 MLOAD PUSH2 0xAC9 SWAP2 SWAP1 PUSH2 0x1683 JUMP JUMPDEST PUSH1 0x40 MLOAD DUP1 SWAP2 SUB SWAP1 LOG2 POP POP JUMP JUMPDEST PUSH1 0x5 PUSH1 0x20 MSTORE DUP2 PUSH0 MSTORE PUSH1 0x40 PUSH0 KECCAK256 PUSH1 0x20 MSTORE DUP1 PUSH0 MSTORE PUSH1 0x40 PUSH0 KECCAK256 PUSH0 SWAP2 POP SWAP2 POP POP SLOAD DUP2 JUMP JUMPDEST PUSH0 PUSH0 PUSH0 SWAP1 SLOAD SWAP1 PUSH2 0x100 EXP SWAP1 DIV PUSH20 0xFFFFFFFFFFFFFFFFFFFFFFFFFFFFFFFFFFFFFFFF AND SWAP1 POP SWAP1 JUMP JUMPDEST PUSH2 0xB24 PUSH2 0x1405 JUMP JUMPDEST PUSH0 PUSH1 0x3 PUSH0 DUP5 PUSH20 0xFFFFFFFFFFFFFFFFFFFFFFFFFFFFFFFFFFFFFFFF AND PUSH20 0xFFFFFFFFFFFFFFFFFFFFFFFFFFFFFFFFFFFFFFFF AND DUP2 MSTORE PUSH1 0x20 ADD SWAP1 DUP2 MSTORE PUSH1 0x20 ADD PUSH0 KECCAK256 SLOAD SWAP1 POP PUSH0 DUP2 SUB PUSH2 0xBA7 JUMPI PUSH1 0x40 MLOAD PUSH32 0x8C379A000000000000000000000000000000000000000000000000000000000 DUP2 MSTORE PUSH1 0x4 ADD PUSH2 0xB9E SWAP1 PUSH2 0x1992 JUMP JUMPDEST PUSH1 0x40 MLOAD DUP1 SWAP2 SUB SWAP1 REVERT JUMPDEST PUSH0 PUSH1 0x1 DUP3 PUSH2 0xBB5 SWAP2 SWAP1 PUSH2 0x19B0 JUMP JUMPDEST SWAP1 POP PUSH0 PUSH1 0x2 DUP3 DUP2 SLOAD DUP2 LT PUSH2 0xBCC JUMPI PUSH2 0xBCB PUSH2 0x186A JUMP JUMPDEST JUMPDEST SWAP1 PUSH0 MSTORE PUSH1 0x20 PUSH0 KECCAK256 SWAP1 PUSH1 0x3 MUL ADD SWAP1 POP DUP1 PUSH1 0x2 ADD PUSH0 SWAP1 SLOAD SWAP1 PUSH2 0x100 EXP SWAP1 DIV PUSH1 0xFF AND PUSH2 0xC2A JUMPI PUSH1 0x40 MLOAD PUSH32 0x8C379A000000000000000000000000000000000000000000000000000000000 DUP2 MSTORE PUSH1 0x4 ADD PUSH2 0xC21 SWAP1 PUSH2 0x1C9D JUMP JUMPDEST PUSH1 0x40 MLOAD DUP1 SWAP2 SUB SWAP1 REVERT JUMPDEST PUSH0 DUP5 GT PUSH2 0xC6C JUMPI PUSH1 0x40 MLOAD PUSH32 0x8C379A000000000000000000000000000000000000000000000000000000000 DUP2 MSTORE PUSH1 0x4 ADD PUSH2 0xC63 SWAP1 PUSH2 0x1B65 JUMP JUMPDEST PUSH1 0x40 MLOAD DUP1 SWAP2 SUB SWAP1 REVERT JUMPDEST DUP4 DUP2 PUSH1 0x1 ADD SLOAD PUSH1 0x4 SLOAD PUSH2 0xC7F SWAP2 SWAP1 PUSH2 0x19B0 JUMP JUMPDEST PUSH2 0xC89 SWAP2 SWAP1 PUSH2 0x1905 JUMP JUMPDEST PUSH1 0x4 DUP2 SWAP1 SSTORE POP PUSH2 0x2710 PUSH1 0x4 SLOAD GT ISZERO PUSH2 0xCD6 JUMPI PUSH1 0x40 MLOAD PUSH32 0x8C379A000000000000000000000000000000000000000000000000000000000 DUP2 MSTORE PUSH1 0x4 ADD PUSH2 0xCCD SWAP1 PUSH2 0x1C35 JUMP JUMPDEST PUSH1 0x40 MLOAD DUP1 SWAP2 SUB SWAP1 REVERT JUMPDEST DUP4 DUP2 PUSH1 0x1 ADD DUP2 SWAP1 SSTORE POP DUP5 PUSH20 0xFFFFFFFFFFFFFFFFFFFFFFFFFFFFFFFFFFFFFFFF AND PUSH32 0xC2D539E6A806D81B0892F23B002D25B825425D13A98BB6F486438B6B7BC0CE3A DUP6 PUSH1 0x40 MLOAD PUSH2 0xD25 SWAP2 SWAP1 PUSH2 0x1683 JUMP JUMPDEST PUSH1 0x40 MLOAD DUP1 SWAP2 SUB SWAP1 LOG2 POP POP POP POP POP JUMP JUMPDEST PUSH2 0xD3C PUSH2 0x154D JUMP JUMPDEST PUSH0 DUP2 GT PUSH2 0xD7E JUMPI PUSH1 0x40 MLOAD PUSH32 0x8C379A000000000000000000000000000000000000000000000000000000000 DUP2 MSTORE PUSH1 0x4 ADD PUSH2 0xD75 SWAP1 PUSH2 0x1D05 JUMP JUMPDEST PUSH1 0x40 MLOAD DUP1 SWAP2 SUB SWAP1 REVERT JUMPDEST PUSH0 PUSH1 0x3 PUSH0 DUP5 PUSH20 0xFFFFFFFFFFFFFFFFFFFFFFFFFFFFFFFFFFFFFFFF AND PUSH20 0xFFFFFFFFFFFFFFFFFFFFFFFFFFFFFFFFFFFFFFFF AND DUP2 MSTORE PUSH1 0x20 ADD SWAP1 DUP2 MSTORE PUSH1 0x20 ADD PUSH0 KECCAK256 SLOAD SWAP1 POP PUSH0 DUP2 SUB PUSH2 0xE01 JUMPI PUSH1 0x40 MLOAD PUSH32 0x8C379A000000000000000000000000000000000000000000000000000000000 DUP2 MSTORE PUSH1 0x4 ADD PUSH2 0xDF8 SWAP1 PUSH2 0x1992 JUMP JUMPDEST PUSH1 0x40 MLOAD DUP1 SWAP2 SUB SWAP1 REVERT JUMPDEST PUSH0 PUSH1 0x2 PUSH1 0x1 DUP4 PUSH2 0xE11 SWAP2 SWAP1 PUSH2 0x19B0 JUMP JUMPDEST DUP2 SLOAD DUP2 LT PUSH2 0xE22 JUMPI PUSH2 0xE21 PUSH2 0x186A JUMP JUMPDEST JUMPDEST SWAP1 PUSH0 MSTORE PUSH1 0x20 PUSH0 KECCAK256 SWAP1 PUSH1 0x3 MUL ADD PUSH1 0x40 MLOAD DUP1 PUSH1 0x60 ADD PUSH1 0x40 MSTORE SWAP1 DUP2 PUSH0 DUP3 ADD PUSH0 SWAP1 SLOAD SWAP1 PUSH2 0x100 EXP SWAP1 DIV PUSH20 0xFFFFFFFFFFFFFFFFFFFFFFFFFFFFFFFFFFFFFFFF AND PUSH20 0xFFFFFFFFFFFFFFFFFFFFFFFFFFFFFFFFFFFFFFFF AND PUSH20 0xFFFFFFFFFFFFFFFFFFFFFFFFFFFFFFFFFFFFFFFF AND DUP2 MSTORE PUSH1 0x20 ADD PUSH1 0x1 DUP3 ADD SLOAD DUP2 MSTORE PUSH1 0x20 ADD PUSH1 0x2 DUP3 ADD PUSH0 SWAP1 SLOAD SWAP1 PUSH2 0x100 EXP SWAP1 DIV PUSH1 0xFF AND ISZERO ISZERO ISZERO ISZERO DUP2 MSTORE POP POP SWAP1 POP DUP1 PUSH1 0x40 ADD MLOAD PUSH2 0xEF7 JUMPI PUSH1 0x40 MLOAD PUSH32 0x8C379A000000000000000000000000000000000000000000000000000000000 DUP2 MSTORE PUSH1 0x4 ADD PUSH2 0xEEE SWAP1 PUSH2 0x1C9D JUMP JUMPDEST PUSH1 0x40 MLOAD DUP1 SWAP2 SUB SWAP1 REVERT JUMPDEST PUSH0 DUP5 PUSH20 0xFFFFFFFFFFFFFFFFFFFFFFFFFFFFFFFFFFFFFFFF AND PUSH4 0x23B872DD CALLER ADDRESS DUP8 PUSH1 0x40 MLOAD DUP5 PUSH4 0xFFFFFFFF AND PUSH1 0xE0 SHL DUP2 MSTORE PUSH1 0x4 ADD PUSH2 0xF35 SWAP4 SWAP3 SWAP2 SWAP1 PUSH2 0x1D23 JUMP JUMPDEST PUSH1 0x20 PUSH1 0x40 MLOAD DUP1 DUP4 SUB DUP2 PUSH0 DUP8 GAS CALL ISZERO DUP1 ISZERO PUSH2 0xF51 JUMPI RETURNDATASIZE PUSH0 PUSH0 RETURNDATACOPY RETURNDATASIZE PUSH0 REVERT JUMPDEST POP POP POP POP PUSH1 0x40 MLOAD RETURNDATASIZE PUSH1 0x1F NOT PUSH1 0x1F DUP3 ADD AND DUP3 ADD DUP1 PUSH1 0x40 MSTORE POP DUP2 ADD SWAP1 PUSH2 0xF75 SWAP2 SWAP1 PUSH2 0x1D82 JUMP JUMPDEST SWAP1 POP DUP1 PUSH2 0xFB7 JUMPI PUSH1 0x40 MLOAD PUSH32 0x8C379A000000000000000000000000000000000000000000000000000000000 DUP2 MSTORE PUSH1 0x4 ADD PUSH2 0xFAE SWAP1 PUSH2 0x1DF7 JUMP JUMPDEST PUSH1 0x40 MLOAD DUP1 SWAP2 SUB SWAP1 REVERT JUMPDEST DUP4 PUSH1 0x5 PUSH0 CALLER PUSH20 0xFFFFFFFFFFFFFFFFFFFFFFFFFFFFFFFFFFFFFFFF AND PUSH20 0xFFFFFFFFFFFFFFFFFFFFFFFFFFFFFFFFFFFFFFFF AND DUP2 MSTORE PUSH1 0x20 ADD SWAP1 DUP2 MSTORE PUSH1 0x20 ADD PUSH0 KECCAK256 PUSH0 DUP8 PUSH20 0xFFFFFFFFFFFFFFFFFFFFFFFFFFFFFFFFFFFFFFFF AND PUSH20 0xFFFFFFFFFFFFFFFFFFFFFFFFFFFFFFFFFFFFFFFF AND DUP2 MSTORE PUSH1 0x20 ADD SWAP1 DUP2 MSTORE PUSH1 0x20 ADD PUSH0 KECCAK256 PUSH0 DUP3 DUP3 SLOAD PUSH2 0x103E SWAP2 SWAP1 PUSH2 0x1905 JUMP JUMPDEST SWAP3 POP POP DUP2 SWAP1 SSTORE POP DUP5 PUSH20 0xFFFFFFFFFFFFFFFFFFFFFFFFFFFFFFFFFFFFFFFF AND CALLER PUSH20 0xFFFFFFFFFFFFFFFFFFFFFFFFFFFFFFFFFFFFFFFF AND PUSH32 0x5DAC0C1B1112564A045BA943C9D50270893E8E826C49BE8E7073ADC713AB7BD7 DUP7 PUSH1 0x40 MLOAD PUSH2 0x10A2 SWAP2 SWAP1 PUSH2 0x1683 JUMP JUMPDEST PUSH1 0x40 MLOAD DUP1 SWAP2 SUB SWAP1 LOG3 POP POP POP PUSH2 0x10B5 PUSH2 0x159C JUMP JUMPDEST POP POP JUMP JUMPDEST PUSH2 0x10C1 PUSH2 0x154D JUMP JUMPDEST PUSH0 DUP2 GT PUSH2 0x1103 JUMPI PUSH1 0x40 MLOAD PUSH32 0x8C379A000000000000000000000000000000000000000000000000000000000 DUP2 MSTORE PUSH1 0x4 ADD PUSH2 0x10FA SWAP1 PUSH2 0x1E5F JUMP JUMPDEST PUSH1 0x40 MLOAD DUP1 SWAP2 SUB SWAP1 REVERT JUMPDEST PUSH0 PUSH1 0x5 PUSH0 CALLER PUSH20 0xFFFFFFFFFFFFFFFFFFFFFFFFFFFFFFFFFFFFFFFF AND PUSH20 0xFFFFFFFFFFFFFFFFFFFFFFFFFFFFFFFFFFFFFFFF AND DUP2 MSTORE PUSH1 0x20 ADD SWAP1 DUP2 MSTORE PUSH1 0x20 ADD PUSH0 KECCAK256 PUSH0 DUP5 PUSH20 0xFFFFFFFFFFFFFFFFFFFFFFFFFFFFFFFFFFFFFFFF AND PUSH20 0xFFFFFFFFFFFFFFFFFFFFFFFFFFFFFFFFFFFFFFFF AND DUP2 MSTORE PUSH1 0x20 ADD SWAP1 DUP2 MSTORE PUSH1 0x20 ADD PUSH0 KECCAK256 SLOAD SWAP1 POP DUP2 DUP2 LT ISZERO PUSH2 0x11C2 JUMPI PUSH1 0x40 MLOAD PUSH32 0x8C379A000000000000000000000000000000000000000000000000000000000 DUP2 MSTORE PUSH1 0x4 ADD PUSH2 0x11B9 SWAP1 PUSH2 0x1EC7 JUMP JUMPDEST PUSH1 0x40 MLOAD DUP1 SWAP2 SUB SWAP1 REVERT JUMPDEST DUP2 DUP2 PUSH2 0x11CE SWAP2 SWAP1 PUSH2 0x19B0 JUMP JUMPDEST PUSH1 0x5 PUSH0 CALLER PUSH20 0xFFFFFFFFFFFFFFFFFFFFFFFFFFFFFFFFFFFFFFFF AND PUSH20 0xFFFFFFFFFFFFFFFFFFFFFFFFFFFFFFFFFFFFFFFF AND DUP2 MSTORE PUSH1 0x20 ADD SWAP1 DUP2 MSTORE PUSH1 0x20 ADD PUSH0 KECCAK256 PUSH0 DUP6 PUSH20 0xFFFFFFFFFFFFFFFFFFFFFFFFFFFFFFFFFFFFFFFF AND PUSH20 0xFFFFFFFFFFFFFFFFFFFFFFFFFFFFFFFFFFFFFFFF AND DUP2 MSTORE PUSH1 0x20 ADD SWAP1 DUP2 MSTORE PUSH1 0x20 ADD PUSH0 KECCAK256 DUP2 SWAP1 SSTORE POP PUSH0 DUP4 PUSH20 0xFFFFFFFFFFFFFFFFFFFFFFFFFFFFFFFFFFFFFFFF AND PUSH4 0xA9059CBB CALLER DUP6 PUSH1 0x40 MLOAD DUP4 PUSH4 0xFFFFFFFF AND PUSH1 0xE0 SHL DUP2 MSTORE PUSH1 0x4 ADD PUSH2 0x1286 SWAP3 SWAP2 SWAP1 PUSH2 0x1EE5 JUMP JUMPDEST PUSH1 0x20 PUSH1 0x40 MLOAD DUP1 DUP4 SUB DUP2 PUSH0 DUP8 GAS CALL ISZERO DUP1 ISZERO PUSH2 0x12A2 JUMPI RETURNDATASIZE PUSH0 PUSH0 RETURNDATACOPY RETURNDATASIZE PUSH0 REVERT JUMPDEST POP POP POP POP PUSH1 0x40 MLOAD RETURNDATASIZE PUSH1 0x1F NOT PUSH1 0x1F DUP3 ADD AND DUP3 ADD DUP1 PUSH1 0x40 MSTORE POP DUP2 ADD SWAP1 PUSH2 0x12C6 SWAP2 SWAP1 PUSH2 0x1D82 JUMP JUMPDEST SWAP1 POP DUP1 PUSH2 0x1308 JUMPI PUSH1 0x40 MLOAD PUSH32 0x8C379A000000000000000000000000000000000000000000000000000000000 DUP2 MSTORE PUSH1 0x4 ADD PUSH2 0x12FF SWAP1 PUSH2 0x1DF7 JUMP JUMPDEST PUSH1 0x40 MLOAD DUP1 SWAP2 SUB SWAP1 REVERT JUMPDEST DUP4 PUSH20 0xFFFFFFFFFFFFFFFFFFFFFFFFFFFFFFFFFFFFFFFF AND CALLER PUSH20 0xFFFFFFFFFFFFFFFFFFFFFFFFFFFFFFFFFFFFFFFF AND PUSH32 0xD8654FCC8CF5B36D30B3F5E4688FC78118E6D68DE60B9994E09902268B57C3E3 DUP6 PUSH1 0x40 MLOAD PUSH2 0x1365 SWAP2 SWAP1 PUSH2 0x1683 JUMP JUMPDEST PUSH1 0x40 MLOAD DUP1 SWAP2 SUB SWAP1 LOG3 POP POP PUSH2 0x1377 PUSH2 0x159C JUMP JUMPDEST POP POP JUMP JUMPDEST PUSH1 0x4 SLOAD DUP2 JUMP JUMPDEST PUSH2 0x1389 PUSH2 0x1405 JUMP JUMPDEST PUSH0 PUSH20 0xFFFFFFFFFFFFFFFFFFFFFFFFFFFFFFFFFFFFFFFF AND DUP2 PUSH20 0xFFFFFFFFFFFFFFFFFFFFFFFFFFFFFFFFFFFFFFFF AND SUB PUSH2 0x13F9 JUMPI PUSH0 PUSH1 0x40 MLOAD PUSH32 0x1E4FBDF700000000000000000000000000000000000000000000000000000000 DUP2 MSTORE PUSH1 0x4 ADD PUSH2 0x13F0 SWAP2 SWAP1 PUSH2 0x1851 JUMP JUMPDEST PUSH1 0x40 MLOAD DUP1 SWAP2 SUB SWAP1 REVERT JUMPDEST PUSH2 0x1402 DUP2 PUSH2 0x148C JUMP JUMPDEST POP JUMP JUMPDEST PUSH2 0x140D PUSH2 0x15A5 JUMP JUMPDEST PUSH20 0xFFFFFFFFFFFFFFFFFFFFFFFFFFFFFFFFFFFFFFFF AND PUSH2 0x142B PUSH2 0xAF5 JUMP JUMPDEST PUSH20 0xFFFFFFFFFFFFFFFFFFFFFFFFFFFFFFFFFFFFFFFF AND EQ PUSH2 0x148A JUMPI PUSH2 0x144E PUSH2 0x15A5 JUMP JUMPDEST PUSH1 0x40 MLOAD PUSH32 0x118CDAA700000000000000000000000000000000000000000000000000000000 DUP2 MSTORE PUSH1 0x4 ADD PUSH2 0x1481 SWAP2 SWAP1 PUSH2 0x1851 JUMP JUMPDEST PUSH1 0x40 MLOAD DUP1 SWAP2 SUB SWAP1 REVERT JUMPDEST JUMP JUMPDEST PUSH0 PUSH0 PUSH0 SWAP1 SLOAD SWAP1 PUSH2 0x100 EXP SWAP1 DIV PUSH20 0xFFFFFFFFFFFFFFFFFFFFFFFFFFFFFFFFFFFFFFFF AND SWAP1 POP DUP2 PUSH0 PUSH0 PUSH2 0x100 EXP DUP2 SLOAD DUP2 PUSH20 0xFFFFFFFFFFFFFFFFFFFFFFFFFFFFFFFFFFFFFFFF MUL NOT AND SWAP1 DUP4 PUSH20 0xFFFFFFFFFFFFFFFFFFFFFFFFFFFFFFFFFFFFFFFF AND MUL OR SWAP1 SSTORE POP DUP2 PUSH20 0xFFFFFFFFFFFFFFFFFFFFFFFFFFFFFFFFFFFFFFFF AND DUP2 PUSH20 0xFFFFFFFFFFFFFFFFFFFFFFFFFFFFFFFFFFFFFFFF AND PUSH32 0x8BE0079C531659141344CD1FD0A4F28419497F9722A3DAAFE3B4186F6B6457E0 PUSH1 0x40 MLOAD PUSH1 0x40 MLOAD DUP1 SWAP2 SUB SWAP1 LOG3 POP POP JUMP JUMPDEST PUSH1 0x2 PUSH1 0x1 SLOAD SUB PUSH2 0x1592 JUMPI PUSH1 0x40 MLOAD PUSH32 0x8C379A000000000000000000000000000000000000000000000000000000000 DUP2 MSTORE PUSH1 0x4 ADD PUSH2 0x1589 SWAP1 PUSH2 0x1F56 JUMP JUMPDEST PUSH1 0x40 MLOAD DUP1 SWAP2 SUB SWAP1 REVERT JUMPDEST PUSH1 0x2 PUSH1 0x1 DUP2 SWAP1 SSTORE POP JUMP JUMPDEST PUSH1 0x1 DUP1 DUP2 SWAP1 SSTORE POP JUMP JUMPDEST PUSH0 CALLER SWAP1 POP SWAP1 JUMP JUMPDEST PUSH1 0x40 MLOAD DUP1 PUSH1 0x60 ADD PUSH1 0x40 MSTORE DUP1 PUSH0 PUSH20 0xFFFFFFFFFFFFFFFFFFFFFFFFFFFFFFFFFFFFFFFF AND DUP2 MSTORE PUSH1 0x20 ADD PUSH0 DUP2 MSTORE PUSH1 0x20 ADD PUSH0 ISZERO ISZERO DUP2 MSTORE POP SWAP1 JUMP JUMPDEST PUSH0 PUSH0 REVERT JUMPDEST PUSH0 PUSH20 0xFFFFFFFFFFFFFFFFFFFFFFFFFFFFFFFFFFFFFFFF DUP3 AND SWAP1 POP SWAP2 SWAP1 POP JUMP JUMPDEST PUSH0 PUSH2 0x160F DUP3 PUSH2 0x15E6 JUMP JUMPDEST SWAP1 POP SWAP2 SWAP1 POP JUMP JUMPDEST PUSH2 0x161F DUP2 PUSH2 0x1605 JUMP JUMPDEST DUP2 EQ PUSH2 0x1629 JUMPI PUSH0 PUSH0 REVERT JUMPDEST POP JUMP JUMPDEST PUSH0 DUP2 CALLDATALOAD SWAP1 POP PUSH2 0x163A DUP2 PUSH2 0x1616 JUMP JUMPDEST SWAP3 SWAP2 POP POP JUMP JUMPDEST PUSH0 PUSH1 0x20 DUP3 DUP5 SUB SLT ISZERO PUSH2 0x1655 JUMPI PUSH2 0x1654 PUSH2 0x15E2 JUMP JUMPDEST JUMPDEST PUSH0 PUSH2 0x1662 DUP5 DUP3 DUP6 ADD PUSH2 0x162C JUMP JUMPDEST SWAP2 POP POP SWAP3 SWAP2 POP POP JUMP JUMPDEST PUSH0 DUP2 SWAP1 POP SWAP2 SWAP1 POP JUMP JUMPDEST PUSH2 0x167D DUP2 PUSH2 0x166B JUMP JUMPDEST DUP3 MSTORE POP POP JUMP JUMPDEST PUSH0 PUSH1 0x20 DUP3 ADD SWAP1 POP PUSH2 0x1696 PUSH0 DUP4 ADD DUP5 PUSH2 0x1674 JUMP JUMPDEST SWAP3 SWAP2 POP POP JUMP JUMPDEST PUSH2 0x16A5 DUP2 PUSH2 0x166B JUMP JUMPDEST DUP2 EQ PUSH2 0x16AF JUMPI PUSH0 PUSH0 REVERT JUMPDEST POP JUMP JUMPDEST PUSH0 DUP2 CALLDATALOAD SWAP1 POP PUSH2 0x16C0 DUP2 PUSH2 0x169C JUMP JUMPDEST SWAP3 SWAP2 POP POP JUMP JUMPDEST PUSH0 PUSH1 0x20 DUP3 DUP5 SUB SLT ISZERO PUSH2 0x16DB JUMPI PUSH2 0x16DA PUSH2 0x15E2 JUMP JUMPDEST JUMPDEST PUSH0 PUSH2 0x16E8 DUP5 DUP3 DUP6 ADD PUSH2 0x16B2 JUMP JUMPDEST SWAP2 POP POP SWAP3 SWAP2 POP POP JUMP JUMPDEST PUSH2 0x16FA DUP2 PUSH2 0x1605 JUMP JUMPDEST DUP3 MSTORE POP POP JUMP JUMPDEST PUSH2 0x1709 DUP2 PUSH2 0x166B JUMP JUMPDEST DUP3 MSTORE POP POP JUMP JUMPDEST PUSH0 DUP2 ISZERO ISZERO SWAP1 POP SWAP2 SWAP1 POP JUMP JUMPDEST PUSH2 0x1723 DUP2 PUSH2 0x170F JUMP JUMPDEST DUP3 MSTORE POP POP JUMP JUMPDEST PUSH1 0x60 DUP3 ADD PUSH0 DUP3 ADD MLOAD PUSH2 0x173D PUSH0 DUP6 ADD DUP3 PUSH2 0x16F1 JUMP JUMPDEST POP PUSH1 0x20 DUP3 ADD MLOAD PUSH2 0x1750 PUSH1 0x20 DUP6 ADD DUP3 PUSH2 0x1700 JUMP JUMPDEST POP PUSH1 0x40 DUP3 ADD MLOAD PUSH2 0x1763 PUSH1 0x40 DUP6 ADD DUP3 PUSH2 0x171A JUMP JUMPDEST POP POP POP POP JUMP JUMPDEST PUSH0 PUSH1 0x60 DUP3 ADD SWAP1 POP PUSH2 0x177C PUSH0 DUP4 ADD DUP5 PUSH2 0x1729 JUMP JUMPDEST SWAP3 SWAP2 POP POP JUMP JUMPDEST PUSH2 0x178B DUP2 PUSH2 0x1605 JUMP JUMPDEST DUP3 MSTORE POP POP JUMP JUMPDEST PUSH2 0x179A DUP2 PUSH2 0x170F JUMP JUMPDEST DUP3 MSTORE POP POP JUMP JUMPDEST PUSH0 PUSH1 0x60 DUP3 ADD SWAP1 POP PUSH2 0x17B3 PUSH0 DUP4 ADD DUP7 PUSH2 0x1782 JUMP JUMPDEST PUSH2 0x17C0 PUSH1 0x20 DUP4 ADD DUP6 PUSH2 0x1674 JUMP JUMPDEST PUSH2 0x17CD PUSH1 0x40 DUP4 ADD DUP5 PUSH2 0x1791 JUMP JUMPDEST SWAP5 SWAP4 POP POP POP POP JUMP JUMPDEST PUSH0 PUSH0 PUSH1 0x40 DUP4 DUP6 SUB SLT ISZERO PUSH2 0x17EB JUMPI PUSH2 0x17EA PUSH2 0x15E2 JUMP JUMPDEST JUMPDEST PUSH0 PUSH2 0x17F8 DUP6 DUP3 DUP7 ADD PUSH2 0x162C JUMP JUMPDEST SWAP3 POP POP PUSH1 0x20 PUSH2 0x1809 DUP6 DUP3 DUP7 ADD PUSH2 0x16B2 JUMP JUMPDEST SWAP2 POP POP SWAP3 POP SWAP3 SWAP1 POP JUMP JUMPDEST PUSH0 PUSH0 PUSH1 0x40 DUP4 DUP6 SUB SLT ISZERO PUSH2 0x1829 JUMPI PUSH2 0x1828 PUSH2 0x15E2 JUMP JUMPDEST JUMPDEST PUSH0 PUSH2 0x1836 DUP6 DUP3 DUP7 ADD PUSH2 0x162C JUMP JUMPDEST SWAP3 POP POP PUSH1 0x20 PUSH2 0x1847 DUP6 DUP3 DUP7 ADD PUSH2 0x162C JUMP JUMPDEST SWAP2 POP POP SWAP3 POP SWAP3 SWAP1 POP JUMP JUMPDEST PUSH0 PUSH1 0x20 DUP3 ADD SWAP1 POP PUSH2 0x1864 PUSH0 DUP4 ADD DUP5 PUSH2 0x1782 JUMP JUMPDEST SWAP3 SWAP2 POP POP JUMP JUMPDEST PUSH32 0x4E487B7100000000000000000000000000000000000000000000000000000000 PUSH0 MSTORE PUSH1 0x32 PUSH1 0x4 MSTORE PUSH1 0x24 PUSH0 REVERT JUMPDEST PUSH32 0x4E487B7100000000000000000000000000000000000000000000000000000000 PUSH0 MSTORE PUSH1 0x11 PUSH1 0x4 MSTORE PUSH1 0x24 PUSH0 REVERT JUMPDEST PUSH0 PUSH2 0x18CE DUP3 PUSH2 0x166B JUMP JUMPDEST SWAP2 POP PUSH2 0x18D9 DUP4 PUSH2 0x166B JUMP JUMPDEST SWAP3 POP DUP3 DUP3 MUL PUSH2 0x18E7 DUP2 PUSH2 0x166B JUMP JUMPDEST SWAP2 POP DUP3 DUP3 DIV DUP5 EQ DUP4 ISZERO OR PUSH2 0x18FE JUMPI PUSH2 0x18FD PUSH2 0x1897 JUMP JUMPDEST JUMPDEST POP SWAP3 SWAP2 POP POP JUMP JUMPDEST PUSH0 PUSH2 0x190F DUP3 PUSH2 0x166B JUMP JUMPDEST SWAP2 POP PUSH2 0x191A DUP4 PUSH2 0x166B JUMP JUMPDEST SWAP3 POP DUP3 DUP3 ADD SWAP1 POP DUP1 DUP3 GT ISZERO PUSH2 0x1932 JUMPI PUSH2 0x1931 PUSH2 0x1897 JUMP JUMPDEST JUMPDEST SWAP3 SWAP2 POP POP JUMP JUMPDEST PUSH0 DUP3 DUP3 MSTORE PUSH1 0x20 DUP3 ADD SWAP1 POP SWAP3 SWAP2 POP POP JUMP JUMPDEST PUSH32 0x546F6B656E206E6F7420696E2073657400000000000000000000000000000000 PUSH0 DUP3 ADD MSTORE POP JUMP JUMPDEST PUSH0 PUSH2 0x197C PUSH1 0x10 DUP4 PUSH2 0x1938 JUMP JUMPDEST SWAP2 POP PUSH2 0x1987 DUP3 PUSH2 0x1948 JUMP JUMPDEST PUSH1 0x20 DUP3 ADD SWAP1 POP SWAP2 SWAP1 POP JUMP JUMPDEST PUSH0 PUSH1 0x20 DUP3 ADD SWAP1 POP DUP2 DUP2 SUB PUSH0 DUP4 ADD MSTORE PUSH2 0x19A9 DUP2 PUSH2 0x1970 JUMP JUMPDEST SWAP1 POP SWAP2 SWAP1 POP JUMP JUMPDEST PUSH0 PUSH2 0x19BA DUP3 PUSH2 0x166B JUMP JUMPDEST SWAP2 POP PUSH2 0x19C5 DUP4 PUSH2 0x166B JUMP JUMPDEST SWAP3 POP DUP3 DUP3 SUB SWAP1 POP DUP2 DUP2 GT ISZERO PUSH2 0x19DD JUMPI PUSH2 0x19DC PUSH2 0x1897 JUMP JUMPDEST JUMPDEST SWAP3 SWAP2 POP POP JUMP JUMPDEST PUSH32 0x546F6B656E20616C726561647920696E61637469766500000000000000000000 PUSH0 DUP3 ADD MSTORE POP JUMP JUMPDEST PUSH0 PUSH2 0x1A17 PUSH1 0x16 DUP4 PUSH2 0x1938 JUMP JUMPDEST SWAP2 POP PUSH2 0x1A22 DUP3 PUSH2 0x19E3 JUMP JUMPDEST PUSH1 0x20 DUP3 ADD SWAP1 POP SWAP2 SWAP1 POP JUMP JUMPDEST PUSH0 PUSH1 0x20 DUP3 ADD SWAP1 POP DUP2 DUP2 SUB PUSH0 DUP4 ADD MSTORE PUSH2 0x1A44 DUP2 PUSH2 0x1A0B JUMP JUMPDEST SWAP1 POP SWAP2 SWAP1 POP JUMP JUMPDEST PUSH32 0x496E646578206F7574206F662072616E67650000000000000000000000000000 PUSH0 DUP3 ADD MSTORE POP JUMP JUMPDEST PUSH0 PUSH2 0x1A7F PUSH1 0x12 DUP4 PUSH2 0x1938 JUMP JUMPDEST SWAP2 POP PUSH2 0x1A8A DUP3 PUSH2 0x1A4B JUMP JUMPDEST PUSH1 0x20 DUP3 ADD SWAP1 POP SWAP2 SWAP1 POP JUMP JUMPDEST PUSH0 PUSH1 0x20 DUP3 ADD SWAP1 POP DUP2 DUP2 SUB PUSH0 DUP4 ADD MSTORE PUSH2 0x1AAC DUP2 PUSH2 0x1A73 JUMP JUMPDEST SWAP1 POP SWAP2 SWAP1 POP JUMP JUMPDEST PUSH32 0x496E76616C696420746F6B656E20616464726573730000000000000000000000 PUSH0 DUP3 ADD MSTORE POP JUMP JUMPDEST PUSH0 PUSH2 0x1AE7 PUSH1 0x15 DUP4 PUSH2 0x1938 JUMP JUMPDEST SWAP2 POP PUSH2 0x1AF2 DUP3 PUSH2 0x1AB3 JUMP JUMPDEST PUSH1 0x20 DUP3 ADD SWAP1 POP SWAP2 SWAP1 POP JUMP JUMPDEST PUSH0 PUSH1 0x20 DUP3 ADD SWAP1 POP DUP2 DUP2 SUB PUSH0 DUP4 ADD MSTORE PUSH2 0x1B14 DUP2 PUSH2 0x1ADB JUMP JUMPDEST SWAP1 POP SWAP2 SWAP1 POP JUMP JUMPDEST PUSH32 0x576569676874206D757374206265203E20300000000000000000000000000000 PUSH0 DUP3 ADD MSTORE POP JUMP JUMPDEST PUSH0 PUSH2 0x1B4F PUSH1 0x12 DUP4 PUSH2 0x1938 JUMP JUMPDEST SWAP2 POP PUSH2 0x1B5A DUP3 PUSH2 0x1B1B JUMP JUMPDEST PUSH1 0x20 DUP3 ADD SWAP1 POP SWAP2 SWAP1 POP JUMP JUMPDEST PUSH0 PUSH1 0x20 DUP3 ADD SWAP1 POP DUP2 DUP2 SUB PUSH0 DUP4 ADD MSTORE PUSH2 0x1B7C DUP2 PUSH2 0x1B43 JUMP JUMPDEST SWAP1 POP SWAP2 SWAP1 POP JUMP JUMPDEST PUSH32 0x546F6B656E20616C726561647920616464656400000000000000000000000000 PUSH0 DUP3 ADD MSTORE POP JUMP JUMPDEST PUSH0 PUSH2 0x1BB7 PUSH1 0x13 DUP4 PUSH2 0x1938 JUMP JUMPDEST SWAP2 POP PUSH2 0x1BC2 DUP3 PUSH2 0x1B83 JUMP JUMPDEST PUSH1 0x20 DUP3 ADD SWAP1 POP SWAP2 SWAP1 POP JUMP JUMPDEST PUSH0 PUSH1 0x20 DUP3 ADD SWAP1 POP DUP2 DUP2 SUB PUSH0 DUP4 ADD MSTORE PUSH2 0x1BE4 DUP2 PUSH2 0x1BAB JUMP JUMPDEST SWAP1 POP SWAP2 SWAP1 POP JUMP JUMPDEST PUSH32 0x546F74616C207765696768742065786365656473203130302500000000000000 PUSH0 DUP3 ADD MSTORE POP JUMP JUMPDEST PUSH0 PUSH2 0x1C1F PUSH1 0x19 DUP4 PUSH2 0x1938 JUMP JUMPDEST SWAP2 POP PUSH2 0x1C2A DUP3 PUSH2 0x1BEB JUMP JUMPDEST PUSH1 0x20 DUP3 ADD SWAP1 POP SWAP2 SWAP1 POP JUMP JUMPDEST PUSH0 PUSH1 0x20 DUP3 ADD SWAP1 POP DUP2 DUP2 SUB PUSH0 DUP4 ADD MSTORE PUSH2 0x1C4C DUP2 PUSH2 0x1C13 JUMP JUMPDEST SWAP1 POP SWAP2 SWAP1 POP JUMP JUMPDEST PUSH32 0x546F6B656E20697320696E616374697665000000000000000000000000000000 PUSH0 DUP3 ADD MSTORE POP JUMP JUMPDEST PUSH0 PUSH2 0x1C87 PUSH1 0x11 DUP4 PUSH2 0x1938 JUMP JUMPDEST SWAP2 POP PUSH2 0x1C92 DUP3 PUSH2 0x1C53 JUMP JUMPDEST PUSH1 0x20 DUP3 ADD SWAP1 POP SWAP2 SWAP1 POP JUMP JUMPDEST PUSH0 PUSH1 0x20 DUP3 ADD SWAP1 POP DUP2 DUP2 SUB PUSH0 DUP4 ADD MSTORE PUSH2 0x1CB4 DUP2 PUSH2 0x1C7B JUMP JUMPDEST SWAP1 POP SWAP2 SWAP1 POP JUMP JUMPDEST PUSH32 0x5374616B656420616D6F756E74206D757374206265203E203000000000000000 PUSH0 DUP3 ADD MSTORE POP JUMP JUMPDEST PUSH0 PUSH2 0x1CEF PUSH1 0x19 DUP4 PUSH2 0x1938 JUMP JUMPDEST SWAP2 POP PUSH2 0x1CFA DUP3 PUSH2 0x1CBB JUMP JUMPDEST PUSH1 0x20 DUP3 ADD SWAP1 POP SWAP2 SWAP1 POP JUMP JUMPDEST PUSH0 PUSH1 0x20 DUP3 ADD SWAP1 POP DUP2 DUP2 SUB PUSH0 DUP4 ADD MSTORE PUSH2 0x1D1C DUP2 PUSH2 0x1CE3 JUMP JUMPDEST SWAP1 POP SWAP2 SWAP1 POP JUMP JUMPDEST PUSH0 PUSH1 0x60 DUP3 ADD SWAP1 POP PUSH2 0x1D36 PUSH0 DUP4 ADD DUP7 PUSH2 0x1782 JUMP JUMPDEST PUSH2 0x1D43 PUSH1 0x20 DUP4 ADD DUP6 PUSH2 0x1782 JUMP JUMPDEST PUSH2 0x1D50 PUSH1 0x40 DUP4 ADD DUP5 PUSH2 0x1674 JUMP JUMPDEST SWAP5 SWAP4 POP POP POP POP JUMP JUMPDEST PUSH2 0x1D61 DUP2 PUSH2 0x170F JUMP JUMPDEST DUP2 EQ PUSH2 0x1D6B JUMPI PUSH0 PUSH0 REVERT JUMPDEST POP JUMP JUMPDEST PUSH0 DUP2 MLOAD SWAP1 POP PUSH2 0x1D7C DUP2 PUSH2 0x1D58 JUMP JUMPDEST SWAP3 SWAP2 POP POP JUMP JUMPDEST PUSH0 PUSH1 0x20 DUP3 DUP5 SUB SLT ISZERO PUSH2 0x1D97 JUMPI PUSH2 0x1D96 PUSH2 0x15E2 JUMP JUMPDEST JUMPDEST PUSH0 PUSH2 0x1DA4 DUP5 DUP3 DUP6 ADD PUSH2 0x1D6E JUMP JUMPDEST SWAP2 POP POP SWAP3 SWAP2 POP POP JUMP JUMPDEST PUSH32 0x5472616E73666572206661696C65640000000000000000000000000000000000 PUSH0 DUP3 ADD MSTORE POP JUMP JUMPDEST PUSH0 PUSH2 0x1DE1 PUSH1 0xF DUP4 PUSH2 0x1938 JUMP JUMPDEST SWAP2 POP PUSH2 0x1DEC DUP3 PUSH2 0x1DAD JUMP JUMPDEST PUSH1 0x20 DUP3 ADD SWAP1 POP SWAP2 SWAP1 POP JUMP JUMPDEST PUSH0 PUSH1 0x20 DUP3 ADD SWAP1 POP DUP2 DUP2 SUB PUSH0 DUP4 ADD MSTORE PUSH2 0x1E0E DUP2 PUSH2 0x1DD5 JUMP JUMPDEST SWAP1 POP SWAP2 SWAP1 POP JUMP JUMPDEST PUSH32 0x556E7374616B6520616D6F756E74206D757374206265203E2030000000000000 PUSH0 DUP3 ADD MSTORE POP JUMP JUMPDEST PUSH0 PUSH2 0x1E49 PUSH1 0x1A DUP4 PUSH2 0x1938 JUMP JUMPDEST SWAP2 POP PUSH2 0x1E54 DUP3 PUSH2 0x1E15 JUMP JUMPDEST PUSH1 0x20 DUP3 ADD SWAP1 POP SWAP2 SWAP1 POP JUMP JUMPDEST PUSH0 PUSH1 0x20 DUP3 ADD SWAP1 POP DUP2 DUP2 SUB PUSH0 DUP4 ADD MSTORE PUSH2 0x1E76 DUP2 PUSH2 0x1E3D JUMP JUMPDEST SWAP1 POP SWAP2 SWAP1 POP JUMP JUMPDEST PUSH32 0x496E73756666696369656E74207374616B65642062616C616E63650000000000 PUSH0 DUP3 ADD MSTORE POP JUMP JUMPDEST PUSH0 PUSH2 0x1EB1 PUSH1 0x1B DUP4 PUSH2 0x1938 JUMP JUMPDEST SWAP2 POP PUSH2 0x1EBC DUP3 PUSH2 0x1E7D JUMP JUMPDEST PUSH1 0x20 DUP3 ADD SWAP1 POP SWAP2 SWAP1 POP JUMP JUMPDEST PUSH0 PUSH1 0x20 DUP3 ADD SWAP1 POP DUP2 DUP2 SUB PUSH0 DUP4 ADD MSTORE PUSH2 0x1EDE DUP2 PUSH2 0x1EA5 JUMP JUMPDEST SWAP1 POP SWAP2 SWAP1 POP JUMP JUMPDEST PUSH0 PUSH1 0x40 DUP3 ADD SWAP1 POP PUSH2 0x1EF8 PUSH0 DUP4 ADD DUP6 PUSH2 0x1782 JUMP JUMPDEST PUSH2 0x1F05 PUSH1 0x20 DUP4 ADD DUP5 PUSH2 0x1674 JUMP JUMPDEST SWAP4 SWAP3 POP POP POP JUMP JUMPDEST PUSH32 0x5265656E7472616E637947756172643A207265656E7472616E742063616C6C00 PUSH0 DUP3 ADD MSTORE POP JUMP JUMPDEST PUSH0 PUSH2 0x1F40 PUSH1 0x1F DUP4 PUSH2 0x1938 JUMP JUMPDEST SWAP2 POP PUSH2 0x1F4B DUP3 PUSH2 0x1F0C JUMP JUMPDEST PUSH1 0x20 DUP3 ADD SWAP1 POP SWAP2 SWAP1 POP JUMP JUMPDEST PUSH0 PUSH1 0x20 DUP3 ADD SWAP1 POP DUP2 DUP2 SUB PUSH0 DUP4 ADD MSTORE PUSH2 0x1F6D DUP2 PUSH2 0x1F34 JUMP JUMPDEST SWAP1 POP SWAP2 SWAP1 POP JUMP INVALID LOG2 PUSH5 0x6970667358 0x22 SLT KECCAK256 0xBC 0xF7 CREATE 0xF7 EOFCREATE 0xB7 NUMBER JUMPDEST MULMOD PUSH17 0xAE5E82F3F765D0B74D279EEF6208F0CCAE 0xB5 PUSH15 0x6B713964736F6C634300081D003300 "
				},
				"gasEstimates": {
					"creation": {
						"codeDepositCost": "1621200",
						"executionCost": "infinite",
						"totalCost": "infinite"
					},
					"external": {
						"addStakeToken(address,uint256)": "infinite",
						"getStakeToken(uint256)": "infinite",
						"getUserVotingPower(address)": "infinite",
						"owner()": "2581",
						"removeStakeToken(address)": "infinite",
						"renounceOwnership()": "infinite",
						"stake(address,uint256)": "infinite",
						"stakeTokenIndexPlusOne(address)": "2870",
						"stakeTokens(uint256)": "infinite",
						"totalStakeTokens()": "2463",
						"totalWeightsBps()": "2491",
						"transferOwnership(address)": "infinite",
						"unstake(address,uint256)": "infinite",
						"updateStakeToken(address,uint256)": "infinite",
						"userStakes(address,address)": "infinite"
					}
				},
				"methodIdentifiers": {
					"addStakeToken(address,uint256)": "81f7d942",
					"getStakeToken(uint256)": "5e534428",
					"getUserVotingPower(address)": "0baca2e5",
					"owner()": "8da5cb5b",
					"removeStakeToken(address)": "166866c7",
					"renounceOwnership()": "715018a6",
					"stake(address,uint256)": "adc9772e",
					"stakeTokenIndexPlusOne(address)": "1898a37c",
					"stakeTokens(uint256)": "7547c7a3",
					"totalStakeTokens()": "40a65823",
					"totalWeightsBps()": "d838d6f8",
					"transferOwnership(address)": "f2fde38b",
					"unstake(address,uint256)": "c2a672e0",
					"updateStakeToken(address,uint256)": "a8f715af",
					"userStakes(address,address)": "862d2d7c"
				}
			},
			"storageLayout": {
				"storage": [
					{
						"astId": 8,
						"contract": "D/diversifiedProofOfStake.sol:DiversifiedProofOfStake",
						"label": "_owner",
						"offset": 0,
						"slot": "0",
						"type": "t_address"
					},
					{
						"astId": 158,
						"contract": "D/diversifiedProofOfStake.sol:DiversifiedProofOfStake",
						"label": "_status",
						"offset": 0,
						"slot": "1",
						"type": "t_uint256"
					},
					{
						"astId": 301,
						"contract": "D/diversifiedProofOfStake.sol:DiversifiedProofOfStake",
						"label": "stakeTokens",
						"offset": 0,
						"slot": "2",
						"type": "t_array(t_struct(StakeToken)297_storage)dyn_storage"
					},
					{
						"astId": 305,
						"contract": "D/diversifiedProofOfStake.sol:DiversifiedProofOfStake",
						"label": "stakeTokenIndexPlusOne",
						"offset": 0,
						"slot": "3",
						"type": "t_mapping(t_address,t_uint256)"
					},
					{
						"astId": 308,
						"contract": "D/diversifiedProofOfStake.sol:DiversifiedProofOfStake",
						"label": "totalWeightsBps",
						"offset": 0,
						"slot": "4",
						"type": "t_uint256"
					},
					{
						"astId": 315,
						"contract": "D/diversifiedProofOfStake.sol:DiversifiedProofOfStake",
						"label": "userStakes",
						"offset": 0,
						"slot": "5",
						"type": "t_mapping(t_address,t_mapping(t_address,t_uint256))"
					}
				],
				"types": {
					"t_address": {
						"encoding": "inplace",
						"label": "address",
						"numberOfBytes": "20"
					},
					"t_array(t_struct(StakeToken)297_storage)dyn_storage": {
						"base": "t_struct(StakeToken)297_storage",
						"encoding": "dynamic_array",
						"label": "struct DiversifiedProofOfStake.StakeToken[]",
						"numberOfBytes": "32"
					},
					"t_bool": {
						"encoding": "inplace",
						"label": "bool",
						"numberOfBytes": "1"
					},
					"t_mapping(t_address,t_mapping(t_address,t_uint256))": {
						"encoding": "mapping",
						"key": "t_address",
						"label": "mapping(address => mapping(address => uint256))",
						"numberOfBytes": "32",
						"value": "t_mapping(t_address,t_uint256)"
					},
					"t_mapping(t_address,t_uint256)": {
						"encoding": "mapping",
						"key": "t_address",
						"label": "mapping(address => uint256)",
						"numberOfBytes": "32",
						"value": "t_uint256"
					},
					"t_struct(StakeToken)297_storage": {
						"encoding": "inplace",
						"label": "struct DiversifiedProofOfStake.StakeToken",
						"members": [
							{
								"astId": 292,
								"contract": "D/diversifiedProofOfStake.sol:DiversifiedProofOfStake",
								"label": "token",
								"offset": 0,
								"slot": "0",
								"type": "t_address"
							},
							{
								"astId": 294,
								"contract": "D/diversifiedProofOfStake.sol:DiversifiedProofOfStake",
								"label": "weightBps",
								"offset": 0,
								"slot": "1",
								"type": "t_uint256"
							},
							{
								"astId": 296,
								"contract": "D/diversifiedProofOfStake.sol:DiversifiedProofOfStake",
								"label": "active",
								"offset": 0,
								"slot": "2",
								"type": "t_bool"
							}
						],
						"numberOfBytes": "96"
					},
					"t_uint256": {
						"encoding": "inplace",
						"label": "uint256",
						"numberOfBytes": "32"
					}
				}
			},
			"userdoc": {
				"kind": "user",
				"methods": {
					"addStakeToken(address,uint256)": {
						"notice": "Adds a new token to the staking set with a certain weight in basis points."
					},
					"constructor": {
						"notice": "Constructor sets deployer as the initial owner. Using Ownable(msg.sender) to fix “no arguments for base constructor” error."
					},
					"getStakeToken(uint256)": {
						"notice": "Retrieves the stake token info by index in the stakeTokens array."
					},
					"getUserVotingPower(address)": {
						"notice": "Calculates the total stake (voting power) of a user across all staked tokens, as sum of (balance * weightBps)."
					},
					"removeStakeToken(address)": {
						"notice": "Removes (deactivates) a token from the set, so no new staking in it. Already staked user balances remain.  Weight is removed from totalWeightsBps."
					},
					"stake(address,uint256)": {
						"notice": "A user stakes a certain amount of a whitelisted token. The user must have approved this contract."
					},
					"totalStakeTokens()": {
						"notice": "Returns the total number of tokens in the stake set (including inactive)."
					},
					"totalWeightsBps()": {
						"notice": "Sum of all active token weights in basis points. Must be <= 10000 for 100%."
					},
					"unstake(address,uint256)": {
						"notice": "A user unstakes (withdraws) some amount of a previously staked token."
					},
					"updateStakeToken(address,uint256)": {
						"notice": "Updates the weight of an existing token. Must still keep total weights <= 10000."
					},
					"userStakes(address,address)": {
						"notice": "Mapping from user => (token => staked balance). Each user can stake multiple tokens. We'll track each token balance separately."
					}
				},
				"notice": "A dynamic, optimized contract letting users stake multiple ERC20 tokens (a \"diversified\" set) to gain voting power. Each whitelisted token has a weight (basis points). A user’s total stake is sum of (token balance * weight). The owner can add or remove tokens and update weights.",
				"version": 1
			}
		}
	}
}