{
	"M/Self-Destruct Kill Switch Malware.sol": {
		"KillSwitch": {
			"abi": [
				{
					"inputs": [],
					"name": "kill",
					"outputs": [],
					"stateMutability": "nonpayable",
					"type": "function"
				},
				{
					"inputs": [],
					"name": "owner",
					"outputs": [
						{
							"internalType": "address",
							"name": "",
							"type": "address"
						}
					],
					"stateMutability": "view",
					"type": "function"
				},
				{
					"stateMutability": "payable",
					"type": "receive"
				}
			],
			"devdoc": {
				"kind": "dev",
				"methods": {},
				"version": 1
			},
			"evm": {
				"assembly": "    /* \"M/Self-Destruct Kill Switch Malware.sol\":0:252  contract KillSwitch {... */\n  mstore(0x40, 0x80)\n    /* \"M/Self-Destruct Kill Switch Malware.sol\":49:59  msg.sender */\n  caller\n    /* \"M/Self-Destruct Kill Switch Malware.sol\":26:59  address public owner = msg.sender */\n  0x00\n  exp(0x0100, 0x00)\n  dup2\n  sload\n  dup2\n  0xffffffffffffffffffffffffffffffffffffffff\n  mul\n  not\n  and\n  swap1\n  dup4\n  0xffffffffffffffffffffffffffffffffffffffff\n  and\n  mul\n  or\n  swap1\n  sstore\n  pop\n    /* \"M/Self-Destruct Kill Switch Malware.sol\":0:252  contract KillSwitch {... */\n  callvalue\n  dup1\n  iszero\n  tag_1\n  jumpi\n  revert(0x00, 0x00)\ntag_1:\n  pop\n  dataSize(sub_0)\n  dup1\n  dataOffset(sub_0)\n  0x00\n  codecopy\n  0x00\n  return\nstop\n\nsub_0: assembly {\n        /* \"M/Self-Destruct Kill Switch Malware.sol\":0:252  contract KillSwitch {... */\n      mstore(0x40, 0x80)\n      jumpi(tag_1, lt(calldatasize, 0x04))\n      shr(0xe0, calldataload(0x00))\n      dup1\n      0x41c0e1b5\n      eq\n      tag_3\n      jumpi\n      dup1\n      0x8da5cb5b\n      eq\n      tag_4\n      jumpi\n      jump(tag_2)\n    tag_1:\n      jumpi(tag_2, calldatasize)\n      stop\n    tag_2:\n      revert(0x00, 0x00)\n        /* \"M/Self-Destruct Kill Switch Malware.sol\":66:215  function kill() external {... */\n    tag_3:\n      callvalue\n      dup1\n      iszero\n      tag_7\n      jumpi\n      revert(0x00, 0x00)\n    tag_7:\n      pop\n      tag_8\n      tag_9\n      jump\t// in\n    tag_8:\n      stop\n        /* \"M/Self-Destruct Kill Switch Malware.sol\":26:59  address public owner = msg.sender */\n    tag_4:\n      callvalue\n      dup1\n      iszero\n      tag_10\n      jumpi\n      revert(0x00, 0x00)\n    tag_10:\n      pop\n      tag_11\n      tag_12\n      jump\t// in\n    tag_11:\n      mload(0x40)\n      tag_13\n      swap2\n      swap1\n      tag_14\n      jump\t// in\n    tag_13:\n      mload(0x40)\n      dup1\n      swap2\n      sub\n      swap1\n      return\n        /* \"M/Self-Destruct Kill Switch Malware.sol\":66:215  function kill() external {... */\n    tag_9:\n        /* \"M/Self-Destruct Kill Switch Malware.sol\":123:128  owner */\n      0x00\n      0x00\n      swap1\n      sload\n      swap1\n      0x0100\n      exp\n      swap1\n      div\n      0xffffffffffffffffffffffffffffffffffffffff\n      and\n        /* \"M/Self-Destruct Kill Switch Malware.sol\":109:128  msg.sender == owner */\n      0xffffffffffffffffffffffffffffffffffffffff\n      and\n        /* \"M/Self-Destruct Kill Switch Malware.sol\":109:119  msg.sender */\n      caller\n        /* \"M/Self-Destruct Kill Switch Malware.sol\":109:128  msg.sender == owner */\n      0xffffffffffffffffffffffffffffffffffffffff\n      and\n      eq\n        /* \"M/Self-Destruct Kill Switch Malware.sol\":101:142  require(msg.sender == owner, \"Not owner\") */\n      tag_16\n      jumpi\n      mload(0x40)\n      0x08c379a000000000000000000000000000000000000000000000000000000000\n      dup2\n      mstore\n      0x04\n      add\n      tag_17\n      swap1\n      tag_18\n      jump\t// in\n    tag_17:\n      mload(0x40)\n      dup1\n      swap2\n      sub\n      swap1\n      revert\n    tag_16:\n        /* \"M/Self-Destruct Kill Switch Malware.sol\":173:178  owner */\n      0x00\n      0x00\n      swap1\n      sload\n      swap1\n      0x0100\n      exp\n      swap1\n      div\n      0xffffffffffffffffffffffffffffffffffffffff\n      and\n        /* \"M/Self-Destruct Kill Switch Malware.sol\":152:180  selfdestruct(payable(owner)) */\n      0xffffffffffffffffffffffffffffffffffffffff\n      and\n      selfdestruct\n        /* \"M/Self-Destruct Kill Switch Malware.sol\":26:59  address public owner = msg.sender */\n    tag_12:\n      0x00\n      0x00\n      swap1\n      sload\n      swap1\n      0x0100\n      exp\n      swap1\n      div\n      0xffffffffffffffffffffffffffffffffffffffff\n      and\n      dup2\n      jump\t// out\n        /* \"#utility.yul\":7:133   */\n    tag_19:\n        /* \"#utility.yul\":44:51   */\n      0x00\n        /* \"#utility.yul\":84:126   */\n      0xffffffffffffffffffffffffffffffffffffffff\n        /* \"#utility.yul\":77:82   */\n      dup3\n        /* \"#utility.yul\":73:127   */\n      and\n        /* \"#utility.yul\":62:127   */\n      swap1\n      pop\n        /* \"#utility.yul\":7:133   */\n      swap2\n      swap1\n      pop\n      jump\t// out\n        /* \"#utility.yul\":139:235   */\n    tag_20:\n        /* \"#utility.yul\":176:183   */\n      0x00\n        /* \"#utility.yul\":205:229   */\n      tag_28\n        /* \"#utility.yul\":223:228   */\n      dup3\n        /* \"#utility.yul\":205:229   */\n      tag_19\n      jump\t// in\n    tag_28:\n        /* \"#utility.yul\":194:229   */\n      swap1\n      pop\n        /* \"#utility.yul\":139:235   */\n      swap2\n      swap1\n      pop\n      jump\t// out\n        /* \"#utility.yul\":241:359   */\n    tag_21:\n        /* \"#utility.yul\":328:352   */\n      tag_30\n        /* \"#utility.yul\":346:351   */\n      dup2\n        /* \"#utility.yul\":328:352   */\n      tag_20\n      jump\t// in\n    tag_30:\n        /* \"#utility.yul\":323:326   */\n      dup3\n        /* \"#utility.yul\":316:353   */\n      mstore\n        /* \"#utility.yul\":241:359   */\n      pop\n      pop\n      jump\t// out\n        /* \"#utility.yul\":365:587   */\n    tag_14:\n        /* \"#utility.yul\":458:462   */\n      0x00\n        /* \"#utility.yul\":496:498   */\n      0x20\n        /* \"#utility.yul\":485:494   */\n      dup3\n        /* \"#utility.yul\":481:499   */\n      add\n        /* \"#utility.yul\":473:499   */\n      swap1\n      pop\n        /* \"#utility.yul\":509:580   */\n      tag_32\n        /* \"#utility.yul\":577:578   */\n      0x00\n        /* \"#utility.yul\":566:575   */\n      dup4\n        /* \"#utility.yul\":562:579   */\n      add\n        /* \"#utility.yul\":553:559   */\n      dup5\n        /* \"#utility.yul\":509:580   */\n      tag_21\n      jump\t// in\n    tag_32:\n        /* \"#utility.yul\":365:587   */\n      swap3\n      swap2\n      pop\n      pop\n      jump\t// out\n        /* \"#utility.yul\":593:762   */\n    tag_22:\n        /* \"#utility.yul\":677:688   */\n      0x00\n        /* \"#utility.yul\":711:717   */\n      dup3\n        /* \"#utility.yul\":706:709   */\n      dup3\n        /* \"#utility.yul\":699:718   */\n      mstore\n        /* \"#utility.yul\":751:755   */\n      0x20\n        /* \"#utility.yul\":746:749   */\n      dup3\n        /* \"#utility.yul\":742:756   */\n      add\n        /* \"#utility.yul\":727:756   */\n      swap1\n      pop\n        /* \"#utility.yul\":593:762   */\n      swap3\n      swap2\n      pop\n      pop\n      jump\t// out\n        /* \"#utility.yul\":768:927   */\n    tag_23:\n        /* \"#utility.yul\":908:919   */\n      0x4e6f74206f776e65720000000000000000000000000000000000000000000000\n        /* \"#utility.yul\":904:905   */\n      0x00\n        /* \"#utility.yul\":896:902   */\n      dup3\n        /* \"#utility.yul\":892:906   */\n      add\n        /* \"#utility.yul\":885:920   */\n      mstore\n        /* \"#utility.yul\":768:927   */\n      pop\n      jump\t// out\n        /* \"#utility.yul\":933:1298   */\n    tag_24:\n        /* \"#utility.yul\":1075:1078   */\n      0x00\n        /* \"#utility.yul\":1096:1162   */\n      tag_36\n        /* \"#utility.yul\":1160:1161   */\n      0x09\n        /* \"#utility.yul\":1155:1158   */\n      dup4\n        /* \"#utility.yul\":1096:1162   */\n      tag_22\n      jump\t// in\n    tag_36:\n        /* \"#utility.yul\":1089:1162   */\n      swap2\n      pop\n        /* \"#utility.yul\":1171:1264   */\n      tag_37\n        /* \"#utility.yul\":1260:1263   */\n      dup3\n        /* \"#utility.yul\":1171:1264   */\n      tag_23\n      jump\t// in\n    tag_37:\n        /* \"#utility.yul\":1289:1291   */\n      0x20\n        /* \"#utility.yul\":1284:1287   */\n      dup3\n        /* \"#utility.yul\":1280:1292   */\n      add\n        /* \"#utility.yul\":1273:1292   */\n      swap1\n      pop\n        /* \"#utility.yul\":933:1298   */\n      swap2\n      swap1\n      pop\n      jump\t// out\n        /* \"#utility.yul\":1304:1723   */\n    tag_18:\n        /* \"#utility.yul\":1470:1474   */\n      0x00\n        /* \"#utility.yul\":1508:1510   */\n      0x20\n        /* \"#utility.yul\":1497:1506   */\n      dup3\n        /* \"#utility.yul\":1493:1511   */\n      add\n        /* \"#utility.yul\":1485:1511   */\n      swap1\n      pop\n        /* \"#utility.yul\":1557:1566   */\n      dup2\n        /* \"#utility.yul\":1551:1555   */\n      dup2\n        /* \"#utility.yul\":1547:1567   */\n      sub\n        /* \"#utility.yul\":1543:1544   */\n      0x00\n        /* \"#utility.yul\":1532:1541   */\n      dup4\n        /* \"#utility.yul\":1528:1545   */\n      add\n        /* \"#utility.yul\":1521:1568   */\n      mstore\n        /* \"#utility.yul\":1585:1716   */\n      tag_39\n        /* \"#utility.yul\":1711:1715   */\n      dup2\n        /* \"#utility.yul\":1585:1716   */\n      tag_24\n      jump\t// in\n    tag_39:\n        /* \"#utility.yul\":1577:1716   */\n      swap1\n      pop\n        /* \"#utility.yul\":1304:1723   */\n      swap2\n      swap1\n      pop\n      jump\t// out\n\n    auxdata: 0xa26469706673582212202fc354cb7b4151092cc79e7b2edc29e8c01c670bc8da6df8151b969dc48e44aa64736f6c634300081d0033\n}\n",
				"bytecode": {
					"linkReferences": {},
					"object": "6080604052335f5f6101000a81548173ffffffffffffffffffffffffffffffffffffffff021916908373ffffffffffffffffffffffffffffffffffffffff160217905550348015604d575f5ffd5b506102688061005b5f395ff3fe60806040526004361061002c575f3560e01c806341c0e1b5146100375780638da5cb5b1461004d57610033565b3661003357005b5f5ffd5b348015610042575f5ffd5b5061004b610077565b005b348015610058575f5ffd5b5061006161013e565b60405161006e91906101a1565b60405180910390f35b5f5f9054906101000a900473ffffffffffffffffffffffffffffffffffffffff1673ffffffffffffffffffffffffffffffffffffffff163373ffffffffffffffffffffffffffffffffffffffff1614610105576040517f08c379a00000000000000000000000000000000000000000000000000000000081526004016100fc90610214565b60405180910390fd5b5f5f9054906101000a900473ffffffffffffffffffffffffffffffffffffffff1673ffffffffffffffffffffffffffffffffffffffff16ff5b5f5f9054906101000a900473ffffffffffffffffffffffffffffffffffffffff1681565b5f73ffffffffffffffffffffffffffffffffffffffff82169050919050565b5f61018b82610162565b9050919050565b61019b81610181565b82525050565b5f6020820190506101b45f830184610192565b92915050565b5f82825260208201905092915050565b7f4e6f74206f776e657200000000000000000000000000000000000000000000005f82015250565b5f6101fe6009836101ba565b9150610209826101ca565b602082019050919050565b5f6020820190508181035f83015261022b816101f2565b905091905056fea26469706673582212202fc354cb7b4151092cc79e7b2edc29e8c01c670bc8da6df8151b969dc48e44aa64736f6c634300081d0033",
					"opcodes": "PUSH1 0x80 PUSH1 0x40 MSTORE CALLER PUSH0 PUSH0 PUSH2 0x100 EXP DUP2 SLOAD DUP2 PUSH20 0xFFFFFFFFFFFFFFFFFFFFFFFFFFFFFFFFFFFFFFFF MUL NOT AND SWAP1 DUP4 PUSH20 0xFFFFFFFFFFFFFFFFFFFFFFFFFFFFFFFFFFFFFFFF AND MUL OR SWAP1 SSTORE POP CALLVALUE DUP1 ISZERO PUSH1 0x4D JUMPI PUSH0 PUSH0 REVERT JUMPDEST POP PUSH2 0x268 DUP1 PUSH2 0x5B PUSH0 CODECOPY PUSH0 RETURN INVALID PUSH1 0x80 PUSH1 0x40 MSTORE PUSH1 0x4 CALLDATASIZE LT PUSH2 0x2C JUMPI PUSH0 CALLDATALOAD PUSH1 0xE0 SHR DUP1 PUSH4 0x41C0E1B5 EQ PUSH2 0x37 JUMPI DUP1 PUSH4 0x8DA5CB5B EQ PUSH2 0x4D JUMPI PUSH2 0x33 JUMP JUMPDEST CALLDATASIZE PUSH2 0x33 JUMPI STOP JUMPDEST PUSH0 PUSH0 REVERT JUMPDEST CALLVALUE DUP1 ISZERO PUSH2 0x42 JUMPI PUSH0 PUSH0 REVERT JUMPDEST POP PUSH2 0x4B PUSH2 0x77 JUMP JUMPDEST STOP JUMPDEST CALLVALUE DUP1 ISZERO PUSH2 0x58 JUMPI PUSH0 PUSH0 REVERT JUMPDEST POP PUSH2 0x61 PUSH2 0x13E JUMP JUMPDEST PUSH1 0x40 MLOAD PUSH2 0x6E SWAP2 SWAP1 PUSH2 0x1A1 JUMP JUMPDEST PUSH1 0x40 MLOAD DUP1 SWAP2 SUB SWAP1 RETURN JUMPDEST PUSH0 PUSH0 SWAP1 SLOAD SWAP1 PUSH2 0x100 EXP SWAP1 DIV PUSH20 0xFFFFFFFFFFFFFFFFFFFFFFFFFFFFFFFFFFFFFFFF AND PUSH20 0xFFFFFFFFFFFFFFFFFFFFFFFFFFFFFFFFFFFFFFFF AND CALLER PUSH20 0xFFFFFFFFFFFFFFFFFFFFFFFFFFFFFFFFFFFFFFFF AND EQ PUSH2 0x105 JUMPI PUSH1 0x40 MLOAD PUSH32 0x8C379A000000000000000000000000000000000000000000000000000000000 DUP2 MSTORE PUSH1 0x4 ADD PUSH2 0xFC SWAP1 PUSH2 0x214 JUMP JUMPDEST PUSH1 0x40 MLOAD DUP1 SWAP2 SUB SWAP1 REVERT JUMPDEST PUSH0 PUSH0 SWAP1 SLOAD SWAP1 PUSH2 0x100 EXP SWAP1 DIV PUSH20 0xFFFFFFFFFFFFFFFFFFFFFFFFFFFFFFFFFFFFFFFF AND PUSH20 0xFFFFFFFFFFFFFFFFFFFFFFFFFFFFFFFFFFFFFFFF AND SELFDESTRUCT JUMPDEST PUSH0 PUSH0 SWAP1 SLOAD SWAP1 PUSH2 0x100 EXP SWAP1 DIV PUSH20 0xFFFFFFFFFFFFFFFFFFFFFFFFFFFFFFFFFFFFFFFF AND DUP2 JUMP JUMPDEST PUSH0 PUSH20 0xFFFFFFFFFFFFFFFFFFFFFFFFFFFFFFFFFFFFFFFF DUP3 AND SWAP1 POP SWAP2 SWAP1 POP JUMP JUMPDEST PUSH0 PUSH2 0x18B DUP3 PUSH2 0x162 JUMP JUMPDEST SWAP1 POP SWAP2 SWAP1 POP JUMP JUMPDEST PUSH2 0x19B DUP2 PUSH2 0x181 JUMP JUMPDEST DUP3 MSTORE POP POP JUMP JUMPDEST PUSH0 PUSH1 0x20 DUP3 ADD SWAP1 POP PUSH2 0x1B4 PUSH0 DUP4 ADD DUP5 PUSH2 0x192 JUMP JUMPDEST SWAP3 SWAP2 POP POP JUMP JUMPDEST PUSH0 DUP3 DUP3 MSTORE PUSH1 0x20 DUP3 ADD SWAP1 POP SWAP3 SWAP2 POP POP JUMP JUMPDEST PUSH32 0x4E6F74206F776E65720000000000000000000000000000000000000000000000 PUSH0 DUP3 ADD MSTORE POP JUMP JUMPDEST PUSH0 PUSH2 0x1FE PUSH1 0x9 DUP4 PUSH2 0x1BA JUMP JUMPDEST SWAP2 POP PUSH2 0x209 DUP3 PUSH2 0x1CA JUMP JUMPDEST PUSH1 0x20 DUP3 ADD SWAP1 POP SWAP2 SWAP1 POP JUMP JUMPDEST PUSH0 PUSH1 0x20 DUP3 ADD SWAP1 POP DUP2 DUP2 SUB PUSH0 DUP4 ADD MSTORE PUSH2 0x22B DUP2 PUSH2 0x1F2 JUMP JUMPDEST SWAP1 POP SWAP2 SWAP1 POP JUMP INVALID LOG2 PUSH5 0x6970667358 0x22 SLT KECCAK256 0x2F 0xC3 SLOAD 0xCB PUSH28 0x4151092CC79E7B2EDC29E8C01C670BC8DA6DF8151B969DC48E44AA64 PUSH20 0x6F6C634300081D00330000000000000000000000 "
				},
				"gasEstimates": {
					"creation": {
						"codeDepositCost": "123200",
						"executionCost": "24433",
						"totalCost": "147633"
					},
					"external": {
						"kill()": "32023",
						"owner()": "2507"
					}
				},
				"methodIdentifiers": {
					"kill()": "41c0e1b5",
					"owner()": "8da5cb5b"
				}
			},
			"storageLayout": {
				"storage": [
					{
						"astId": 4,
						"contract": "M/Self-Destruct Kill Switch Malware.sol:KillSwitch",
						"label": "owner",
						"offset": 0,
						"slot": "0",
						"type": "t_address"
					}
				],
				"types": {
					"t_address": {
						"encoding": "inplace",
						"label": "address",
						"numberOfBytes": "20"
					}
				}
			},
			"userdoc": {
				"kind": "user",
				"methods": {},
				"version": 1
			}
		}
	}
}