{
	"B/Blue Sky Crypto Protocol.sol": {
		"BlueSkyCryptoProtocol": {
			"abi": [
				{
					"inputs": [],
					"stateMutability": "nonpayable",
					"type": "constructor"
				},
				{
					"anonymous": false,
					"inputs": [
						{
							"indexed": true,
							"internalType": "uint256",
							"name": "proposalId",
							"type": "uint256"
						},
						{
							"indexed": false,
							"internalType": "bool",
							"name": "accepted",
							"type": "bool"
						}
					],
					"name": "ProposalFinalized",
					"type": "event"
				},
				{
					"anonymous": false,
					"inputs": [
						{
							"indexed": true,
							"internalType": "uint256",
							"name": "proposalId",
							"type": "uint256"
						},
						{
							"indexed": true,
							"internalType": "address",
							"name": "proposer",
							"type": "address"
						},
						{
							"indexed": false,
							"internalType": "string",
							"name": "description",
							"type": "string"
						}
					],
					"name": "ProposalSubmitted",
					"type": "event"
				},
				{
					"anonymous": false,
					"inputs": [
						{
							"indexed": true,
							"internalType": "uint256",
							"name": "proposalId",
							"type": "uint256"
						},
						{
							"indexed": true,
							"internalType": "address",
							"name": "voter",
							"type": "address"
						},
						{
							"indexed": false,
							"internalType": "uint256",
							"name": "newVoteCount",
							"type": "uint256"
						}
					],
					"name": "ProposalVoted",
					"type": "event"
				},
				{
					"inputs": [
						{
							"internalType": "uint256",
							"name": "_proposalId",
							"type": "uint256"
						}
					],
					"name": "finalizeProposal",
					"outputs": [],
					"stateMutability": "nonpayable",
					"type": "function"
				},
				{
					"inputs": [
						{
							"internalType": "uint256",
							"name": "_proposalId",
							"type": "uint256"
						}
					],
					"name": "getProposal",
					"outputs": [
						{
							"components": [
								{
									"internalType": "uint256",
									"name": "id",
									"type": "uint256"
								},
								{
									"internalType": "address",
									"name": "proposer",
									"type": "address"
								},
								{
									"internalType": "string",
									"name": "description",
									"type": "string"
								},
								{
									"internalType": "uint256",
									"name": "voteCount",
									"type": "uint256"
								},
								{
									"internalType": "bool",
									"name": "finalized",
									"type": "bool"
								}
							],
							"internalType": "struct BlueSkyCryptoProtocol.Proposal",
							"name": "",
							"type": "tuple"
						}
					],
					"stateMutability": "view",
					"type": "function"
				},
				{
					"inputs": [
						{
							"internalType": "address",
							"name": "",
							"type": "address"
						},
						{
							"internalType": "uint256",
							"name": "",
							"type": "uint256"
						}
					],
					"name": "hasVoted",
					"outputs": [
						{
							"internalType": "bool",
							"name": "",
							"type": "bool"
						}
					],
					"stateMutability": "view",
					"type": "function"
				},
				{
					"inputs": [],
					"name": "owner",
					"outputs": [
						{
							"internalType": "address",
							"name": "",
							"type": "address"
						}
					],
					"stateMutability": "view",
					"type": "function"
				},
				{
					"inputs": [],
					"name": "proposalCount",
					"outputs": [
						{
							"internalType": "uint256",
							"name": "",
							"type": "uint256"
						}
					],
					"stateMutability": "view",
					"type": "function"
				},
				{
					"inputs": [
						{
							"internalType": "uint256",
							"name": "",
							"type": "uint256"
						}
					],
					"name": "proposals",
					"outputs": [
						{
							"internalType": "uint256",
							"name": "id",
							"type": "uint256"
						},
						{
							"internalType": "address",
							"name": "proposer",
							"type": "address"
						},
						{
							"internalType": "string",
							"name": "description",
							"type": "string"
						},
						{
							"internalType": "uint256",
							"name": "voteCount",
							"type": "uint256"
						},
						{
							"internalType": "bool",
							"name": "finalized",
							"type": "bool"
						}
					],
					"stateMutability": "view",
					"type": "function"
				},
				{
					"inputs": [
						{
							"internalType": "string",
							"name": "_description",
							"type": "string"
						}
					],
					"name": "submitProposal",
					"outputs": [],
					"stateMutability": "nonpayable",
					"type": "function"
				},
				{
					"inputs": [
						{
							"internalType": "uint256",
							"name": "_proposalId",
							"type": "uint256"
						}
					],
					"name": "voteForProposal",
					"outputs": [],
					"stateMutability": "nonpayable",
					"type": "function"
				}
			],
			"devdoc": {
				"kind": "dev",
				"methods": {
					"finalizeProposal(uint256)": {
						"params": {
							"_proposalId": "The ID of the proposal to finalize."
						}
					},
					"getProposal(uint256)": {
						"params": {
							"_proposalId": "The ID of the proposal."
						},
						"returns": {
							"_0": "The Proposal struct."
						}
					},
					"submitProposal(string)": {
						"params": {
							"_description": "A short description of the proposal."
						}
					},
					"voteForProposal(uint256)": {
						"params": {
							"_proposalId": "The ID of the proposal to vote for."
						}
					}
				},
				"title": "BlueSkyCryptoProtocol",
				"version": 1
			},
			"evm": {
				"assembly": "    /* \"B/Blue Sky Crypto Protocol.sol\":189:3255  contract BlueSkyCryptoProtocol {... */\n  mstore(0x40, 0x80)\n    /* \"B/Blue Sky Crypto Protocol.sol\":1135:1184  constructor() {... */\n  callvalue\n  dup1\n  iszero\n  tag_1\n  jumpi\n  0x00\n  dup1\n  revert\ntag_1:\n  pop\n    /* \"B/Blue Sky Crypto Protocol.sol\":1167:1177  msg.sender */\n  caller\n    /* \"B/Blue Sky Crypto Protocol.sol\":1159:1164  owner */\n  0x00\n  dup1\n    /* \"B/Blue Sky Crypto Protocol.sol\":1159:1177  owner = msg.sender */\n  0x0100\n  exp\n  dup2\n  sload\n  dup2\n  0xffffffffffffffffffffffffffffffffffffffff\n  mul\n  not\n  and\n  swap1\n  dup4\n  0xffffffffffffffffffffffffffffffffffffffff\n  and\n  mul\n  or\n  swap1\n  sstore\n  pop\n    /* \"B/Blue Sky Crypto Protocol.sol\":189:3255  contract BlueSkyCryptoProtocol {... */\n  dataSize(sub_0)\n  dup1\n  dataOffset(sub_0)\n  0x00\n  codecopy\n  0x00\n  return\nstop\n\nsub_0: assembly {\n        /* \"B/Blue Sky Crypto Protocol.sol\":189:3255  contract BlueSkyCryptoProtocol {... */\n      mstore(0x40, 0x80)\n      callvalue\n      dup1\n      iszero\n      tag_1\n      jumpi\n      0x00\n      dup1\n      revert\n    tag_1:\n      pop\n      jumpi(tag_2, lt(calldatasize, 0x04))\n      shr(0xe0, calldataload(0x00))\n      dup1\n      0x5652077c\n      gt\n      tag_11\n      jumpi\n      dup1\n      0x5652077c\n      eq\n      tag_7\n      jumpi\n      dup1\n      0x8da5cb5b\n      eq\n      tag_8\n      jumpi\n      dup1\n      0xc7f758a8\n      eq\n      tag_9\n      jumpi\n      dup1\n      0xda35c664\n      eq\n      tag_10\n      jumpi\n      jump(tag_2)\n    tag_11:\n      dup1\n      0x013cf08b\n      eq\n      tag_3\n      jumpi\n      dup1\n      0x045c6ce0\n      eq\n      tag_4\n      jumpi\n      dup1\n      0x373d6d5e\n      eq\n      tag_5\n      jumpi\n      dup1\n      0x42545825\n      eq\n      tag_6\n      jumpi\n    tag_2:\n      0x00\n      dup1\n      revert\n        /* \"B/Blue Sky Crypto Protocol.sol\":494:539  mapping(uint256 => Proposal) public proposals */\n    tag_3:\n      tag_12\n      0x04\n      dup1\n      calldatasize\n      sub\n      dup2\n      add\n      swap1\n      tag_13\n      swap2\n      swap1\n      tag_14\n      jump\t// in\n    tag_13:\n      tag_15\n      jump\t// in\n    tag_12:\n      mload(0x40)\n      tag_16\n      swap6\n      swap5\n      swap4\n      swap3\n      swap2\n      swap1\n      tag_17\n      jump\t// in\n    tag_16:\n      mload(0x40)\n      dup1\n      swap2\n      sub\n      swap1\n      return\n        /* \"B/Blue Sky Crypto Protocol.sol\":1795:2279  function voteForProposal(uint256 _proposalId) external {... */\n    tag_4:\n      tag_18\n      0x04\n      dup1\n      calldatasize\n      sub\n      dup2\n      add\n      swap1\n      tag_19\n      swap2\n      swap1\n      tag_14\n      jump\t// in\n    tag_19:\n      tag_20\n      jump\t// in\n    tag_18:\n      stop\n        /* \"B/Blue Sky Crypto Protocol.sol\":1294:1679  function submitProposal(string calldata _description) external {... */\n    tag_5:\n      tag_21\n      0x04\n      dup1\n      calldatasize\n      sub\n      dup2\n      add\n      swap1\n      tag_22\n      swap2\n      swap1\n      tag_23\n      jump\t// in\n    tag_22:\n      tag_24\n      jump\t// in\n    tag_21:\n      stop\n        /* \"B/Blue Sky Crypto Protocol.sol\":620:680  mapping(address => mapping(uint256 => bool)) public hasVoted */\n    tag_6:\n      tag_25\n      0x04\n      dup1\n      calldatasize\n      sub\n      dup2\n      add\n      swap1\n      tag_26\n      swap2\n      swap1\n      tag_27\n      jump\t// in\n    tag_26:\n      tag_28\n      jump\t// in\n    tag_25:\n      mload(0x40)\n      tag_29\n      swap2\n      swap1\n      tag_30\n      jump\t// in\n    tag_29:\n      mload(0x40)\n      dup1\n      swap2\n      sub\n      swap1\n      return\n        /* \"B/Blue Sky Crypto Protocol.sol\":2414:2911  function finalizeProposal(uint256 _proposalId) external onlyOwner {... */\n    tag_7:\n      tag_31\n      0x04\n      dup1\n      calldatasize\n      sub\n      dup2\n      add\n      swap1\n      tag_32\n      swap2\n      swap1\n      tag_14\n      jump\t// in\n    tag_32:\n      tag_33\n      jump\t// in\n    tag_31:\n      stop\n        /* \"B/Blue Sky Crypto Protocol.sol\":226:246  address public owner */\n    tag_8:\n      tag_34\n      tag_35\n      jump\t// in\n    tag_34:\n      mload(0x40)\n      tag_36\n      swap2\n      swap1\n      tag_37\n      jump\t// in\n    tag_36:\n      mload(0x40)\n      dup1\n      swap2\n      sub\n      swap1\n      return\n        /* \"B/Blue Sky Crypto Protocol.sol\":3052:3253  function getProposal(uint256 _proposalId) external view returns (Proposal memory) {... */\n    tag_9:\n      tag_38\n      0x04\n      dup1\n      calldatasize\n      sub\n      dup2\n      add\n      swap1\n      tag_39\n      swap2\n      swap1\n      tag_14\n      jump\t// in\n    tag_39:\n      tag_40\n      jump\t// in\n    tag_38:\n      mload(0x40)\n      tag_41\n      swap2\n      swap1\n      tag_42\n      jump\t// in\n    tag_41:\n      mload(0x40)\n      dup1\n      swap2\n      sub\n      swap1\n      return\n        /* \"B/Blue Sky Crypto Protocol.sol\":252:280  uint256 public proposalCount */\n    tag_10:\n      tag_43\n      tag_44\n      jump\t// in\n    tag_43:\n      mload(0x40)\n      tag_45\n      swap2\n      swap1\n      tag_46\n      jump\t// in\n    tag_45:\n      mload(0x40)\n      dup1\n      swap2\n      sub\n      swap1\n      return\n        /* \"B/Blue Sky Crypto Protocol.sol\":494:539  mapping(uint256 => Proposal) public proposals */\n    tag_15:\n      mstore(0x20, 0x02)\n      dup1\n      0x00\n      mstore\n      keccak256(0x00, 0x40)\n      0x00\n      swap2\n      pop\n      swap1\n      pop\n      dup1\n      0x00\n      add\n      sload\n      swap1\n      dup1\n      0x01\n      add\n      0x00\n      swap1\n      sload\n      swap1\n      0x0100\n      exp\n      swap1\n      div\n      0xffffffffffffffffffffffffffffffffffffffff\n      and\n      swap1\n      dup1\n      0x02\n      add\n      dup1\n      sload\n      tag_47\n      swap1\n      tag_48\n      jump\t// in\n    tag_47:\n      dup1\n      0x1f\n      add\n      0x20\n      dup1\n      swap2\n      div\n      mul\n      0x20\n      add\n      mload(0x40)\n      swap1\n      dup2\n      add\n      0x40\n      mstore\n      dup1\n      swap3\n      swap2\n      swap1\n      dup2\n      dup2\n      mstore\n      0x20\n      add\n      dup3\n      dup1\n      sload\n      tag_49\n      swap1\n      tag_48\n      jump\t// in\n    tag_49:\n      dup1\n      iszero\n      tag_50\n      jumpi\n      dup1\n      0x1f\n      lt\n      tag_51\n      jumpi\n      0x0100\n      dup1\n      dup4\n      sload\n      div\n      mul\n      dup4\n      mstore\n      swap2\n      0x20\n      add\n      swap2\n      jump(tag_50)\n    tag_51:\n      dup3\n      add\n      swap2\n      swap1\n      0x00\n      mstore\n      keccak256(0x00, 0x20)\n      swap1\n    tag_52:\n      dup2\n      sload\n      dup2\n      mstore\n      swap1\n      0x01\n      add\n      swap1\n      0x20\n      add\n      dup1\n      dup4\n      gt\n      tag_52\n      jumpi\n      dup3\n      swap1\n      sub\n      0x1f\n      and\n      dup3\n      add\n      swap2\n    tag_50:\n      pop\n      pop\n      pop\n      pop\n      pop\n      swap1\n      dup1\n      0x03\n      add\n      sload\n      swap1\n      dup1\n      0x04\n      add\n      0x00\n      swap1\n      sload\n      swap1\n      0x0100\n      exp\n      swap1\n      div\n      0xff\n      and\n      swap1\n      pop\n      dup6\n      jump\t// out\n        /* \"B/Blue Sky Crypto Protocol.sol\":1795:2279  function voteForProposal(uint256 _proposalId) external {... */\n    tag_20:\n        /* \"B/Blue Sky Crypto Protocol.sol\":1882:1895  proposalCount */\n      sload(0x01)\n        /* \"B/Blue Sky Crypto Protocol.sol\":1868:1879  _proposalId */\n      dup2\n        /* \"B/Blue Sky Crypto Protocol.sol\":1868:1895  _proposalId < proposalCount */\n      lt\n        /* \"B/Blue Sky Crypto Protocol.sol\":1860:1919  require(_proposalId < proposalCount, \"Invalid proposal ID\") */\n      tag_54\n      jumpi\n      mload(0x40)\n      0x08c379a000000000000000000000000000000000000000000000000000000000\n      dup2\n      mstore\n      0x04\n      add\n      tag_55\n      swap1\n      tag_56\n      jump\t// in\n    tag_55:\n      mload(0x40)\n      dup1\n      swap2\n      sub\n      swap1\n      revert\n    tag_54:\n        /* \"B/Blue Sky Crypto Protocol.sol\":1938:1946  hasVoted */\n      0x03\n        /* \"B/Blue Sky Crypto Protocol.sol\":1938:1958  hasVoted[msg.sender] */\n      0x00\n        /* \"B/Blue Sky Crypto Protocol.sol\":1947:1957  msg.sender */\n      caller\n        /* \"B/Blue Sky Crypto Protocol.sol\":1938:1958  hasVoted[msg.sender] */\n      0xffffffffffffffffffffffffffffffffffffffff\n      and\n      0xffffffffffffffffffffffffffffffffffffffff\n      and\n      dup2\n      mstore\n      0x20\n      add\n      swap1\n      dup2\n      mstore\n      0x20\n      add\n      0x00\n      keccak256\n        /* \"B/Blue Sky Crypto Protocol.sol\":1938:1971  hasVoted[msg.sender][_proposalId] */\n      0x00\n        /* \"B/Blue Sky Crypto Protocol.sol\":1959:1970  _proposalId */\n      dup3\n        /* \"B/Blue Sky Crypto Protocol.sol\":1938:1971  hasVoted[msg.sender][_proposalId] */\n      dup2\n      mstore\n      0x20\n      add\n      swap1\n      dup2\n      mstore\n      0x20\n      add\n      0x00\n      keccak256\n      0x00\n      swap1\n      sload\n      swap1\n      0x0100\n      exp\n      swap1\n      div\n      0xff\n      and\n        /* \"B/Blue Sky Crypto Protocol.sol\":1937:1971  !hasVoted[msg.sender][_proposalId] */\n      iszero\n        /* \"B/Blue Sky Crypto Protocol.sol\":1929:2007  require(!hasVoted[msg.sender][_proposalId], \"Already voted for this proposal\") */\n      tag_57\n      jumpi\n      mload(0x40)\n      0x08c379a000000000000000000000000000000000000000000000000000000000\n      dup2\n      mstore\n      0x04\n      add\n      tag_58\n      swap1\n      tag_59\n      jump\t// in\n    tag_58:\n      mload(0x40)\n      dup1\n      swap2\n      sub\n      swap1\n      revert\n    tag_57:\n        /* \"B/Blue Sky Crypto Protocol.sol\":2026:2035  proposals */\n      0x02\n        /* \"B/Blue Sky Crypto Protocol.sol\":2026:2048  proposals[_proposalId] */\n      0x00\n        /* \"B/Blue Sky Crypto Protocol.sol\":2036:2047  _proposalId */\n      dup3\n        /* \"B/Blue Sky Crypto Protocol.sol\":2026:2048  proposals[_proposalId] */\n      dup2\n      mstore\n      0x20\n      add\n      swap1\n      dup2\n      mstore\n      0x20\n      add\n      0x00\n      keccak256\n        /* \"B/Blue Sky Crypto Protocol.sol\":2026:2058  proposals[_proposalId].finalized */\n      0x04\n      add\n      0x00\n      swap1\n      sload\n      swap1\n      0x0100\n      exp\n      swap1\n      div\n      0xff\n      and\n        /* \"B/Blue Sky Crypto Protocol.sol\":2025:2058  !proposals[_proposalId].finalized */\n      iszero\n        /* \"B/Blue Sky Crypto Protocol.sol\":2017:2089  require(!proposals[_proposalId].finalized, \"Proposal already finalized\") */\n      tag_60\n      jumpi\n      mload(0x40)\n      0x08c379a000000000000000000000000000000000000000000000000000000000\n      dup2\n      mstore\n      0x04\n      add\n      tag_61\n      swap1\n      tag_62\n      jump\t// in\n    tag_61:\n      mload(0x40)\n      dup1\n      swap2\n      sub\n      swap1\n      revert\n    tag_60:\n        /* \"B/Blue Sky Crypto Protocol.sol\":2100:2109  proposals */\n      0x02\n        /* \"B/Blue Sky Crypto Protocol.sol\":2100:2122  proposals[_proposalId] */\n      0x00\n        /* \"B/Blue Sky Crypto Protocol.sol\":2110:2121  _proposalId */\n      dup3\n        /* \"B/Blue Sky Crypto Protocol.sol\":2100:2122  proposals[_proposalId] */\n      dup2\n      mstore\n      0x20\n      add\n      swap1\n      dup2\n      mstore\n      0x20\n      add\n      0x00\n      keccak256\n        /* \"B/Blue Sky Crypto Protocol.sol\":2100:2132  proposals[_proposalId].voteCount */\n      0x03\n      add\n      0x00\n        /* \"B/Blue Sky Crypto Protocol.sol\":2100:2134  proposals[_proposalId].voteCount++ */\n      dup2\n      sload\n      dup1\n      swap3\n      swap2\n      swap1\n      tag_63\n      swap1\n      tag_64\n      jump\t// in\n    tag_63:\n      swap2\n      swap1\n      pop\n      sstore\n      pop\n        /* \"B/Blue Sky Crypto Protocol.sol\":2180:2184  true */\n      0x01\n        /* \"B/Blue Sky Crypto Protocol.sol\":2144:2152  hasVoted */\n      0x03\n        /* \"B/Blue Sky Crypto Protocol.sol\":2144:2164  hasVoted[msg.sender] */\n      0x00\n        /* \"B/Blue Sky Crypto Protocol.sol\":2153:2163  msg.sender */\n      caller\n        /* \"B/Blue Sky Crypto Protocol.sol\":2144:2164  hasVoted[msg.sender] */\n      0xffffffffffffffffffffffffffffffffffffffff\n      and\n      0xffffffffffffffffffffffffffffffffffffffff\n      and\n      dup2\n      mstore\n      0x20\n      add\n      swap1\n      dup2\n      mstore\n      0x20\n      add\n      0x00\n      keccak256\n        /* \"B/Blue Sky Crypto Protocol.sol\":2144:2177  hasVoted[msg.sender][_proposalId] */\n      0x00\n        /* \"B/Blue Sky Crypto Protocol.sol\":2165:2176  _proposalId */\n      dup4\n        /* \"B/Blue Sky Crypto Protocol.sol\":2144:2177  hasVoted[msg.sender][_proposalId] */\n      dup2\n      mstore\n      0x20\n      add\n      swap1\n      dup2\n      mstore\n      0x20\n      add\n      0x00\n      keccak256\n      0x00\n        /* \"B/Blue Sky Crypto Protocol.sol\":2144:2184  hasVoted[msg.sender][_proposalId] = true */\n      0x0100\n      exp\n      dup2\n      sload\n      dup2\n      0xff\n      mul\n      not\n      and\n      swap1\n      dup4\n      iszero\n      iszero\n      mul\n      or\n      swap1\n      sstore\n      pop\n        /* \"B/Blue Sky Crypto Protocol.sol\":2227:2237  msg.sender */\n      caller\n        /* \"B/Blue Sky Crypto Protocol.sol\":2200:2272  ProposalVoted(_proposalId, msg.sender, proposals[_proposalId].voteCount) */\n      0xffffffffffffffffffffffffffffffffffffffff\n      and\n        /* \"B/Blue Sky Crypto Protocol.sol\":2214:2225  _proposalId */\n      dup2\n        /* \"B/Blue Sky Crypto Protocol.sol\":2200:2272  ProposalVoted(_proposalId, msg.sender, proposals[_proposalId].voteCount) */\n      0x12602b81b4b3a6bc77534c571e8af3d316246bc5e5bea24efdf512ff6715da15\n        /* \"B/Blue Sky Crypto Protocol.sol\":2239:2248  proposals */\n      0x02\n        /* \"B/Blue Sky Crypto Protocol.sol\":2239:2261  proposals[_proposalId] */\n      0x00\n        /* \"B/Blue Sky Crypto Protocol.sol\":2249:2260  _proposalId */\n      dup6\n        /* \"B/Blue Sky Crypto Protocol.sol\":2239:2261  proposals[_proposalId] */\n      dup2\n      mstore\n      0x20\n      add\n      swap1\n      dup2\n      mstore\n      0x20\n      add\n      0x00\n      keccak256\n        /* \"B/Blue Sky Crypto Protocol.sol\":2239:2271  proposals[_proposalId].voteCount */\n      0x03\n      add\n      sload\n        /* \"B/Blue Sky Crypto Protocol.sol\":2200:2272  ProposalVoted(_proposalId, msg.sender, proposals[_proposalId].voteCount) */\n      mload(0x40)\n      tag_65\n      swap2\n      swap1\n      tag_46\n      jump\t// in\n    tag_65:\n      mload(0x40)\n      dup1\n      swap2\n      sub\n      swap1\n      log3\n        /* \"B/Blue Sky Crypto Protocol.sol\":1795:2279  function voteForProposal(uint256 _proposalId) external {... */\n      pop\n      jump\t// out\n        /* \"B/Blue Sky Crypto Protocol.sol\":1294:1679  function submitProposal(string calldata _description) external {... */\n    tag_24:\n        /* \"B/Blue Sky Crypto Protocol.sol\":1394:1574  Proposal({... */\n      mload(0x40)\n      dup1\n      0xa0\n      add\n      0x40\n      mstore\n      dup1\n        /* \"B/Blue Sky Crypto Protocol.sol\":1421:1434  proposalCount */\n      sload(0x01)\n        /* \"B/Blue Sky Crypto Protocol.sol\":1394:1574  Proposal({... */\n      dup2\n      mstore\n      0x20\n      add\n        /* \"B/Blue Sky Crypto Protocol.sol\":1458:1468  msg.sender */\n      caller\n        /* \"B/Blue Sky Crypto Protocol.sol\":1394:1574  Proposal({... */\n      0xffffffffffffffffffffffffffffffffffffffff\n      and\n      dup2\n      mstore\n      0x20\n      add\n        /* \"B/Blue Sky Crypto Protocol.sol\":1495:1507  _description */\n      dup4\n      dup4\n        /* \"B/Blue Sky Crypto Protocol.sol\":1394:1574  Proposal({... */\n      dup1\n      dup1\n      0x1f\n      add\n      0x20\n      dup1\n      swap2\n      div\n      mul\n      0x20\n      add\n      mload(0x40)\n      swap1\n      dup2\n      add\n      0x40\n      mstore\n      dup1\n      swap4\n      swap3\n      swap2\n      swap1\n      dup2\n      dup2\n      mstore\n      0x20\n      add\n      dup4\n      dup4\n      dup1\n      dup3\n      dup5\n      calldatacopy\n      0x00\n      dup2\n      dup5\n      add\n      mstore\n      not(0x1f)\n      0x1f\n      dup3\n      add\n      and\n      swap1\n      pop\n      dup1\n      dup4\n      add\n      swap3\n      pop\n      pop\n      pop\n      pop\n      pop\n      pop\n      pop\n      dup2\n      mstore\n      0x20\n      add\n        /* \"B/Blue Sky Crypto Protocol.sol\":1532:1533  0 */\n      0x00\n        /* \"B/Blue Sky Crypto Protocol.sol\":1394:1574  Proposal({... */\n      dup2\n      mstore\n      0x20\n      add\n        /* \"B/Blue Sky Crypto Protocol.sol\":1558:1563  false */\n      0x00\n        /* \"B/Blue Sky Crypto Protocol.sol\":1394:1574  Proposal({... */\n      iszero\n      iszero\n      dup2\n      mstore\n      pop\n        /* \"B/Blue Sky Crypto Protocol.sol\":1367:1376  proposals */\n      0x02\n        /* \"B/Blue Sky Crypto Protocol.sol\":1367:1391  proposals[proposalCount] */\n      0x00\n        /* \"B/Blue Sky Crypto Protocol.sol\":1377:1390  proposalCount */\n      sload(0x01)\n        /* \"B/Blue Sky Crypto Protocol.sol\":1367:1391  proposals[proposalCount] */\n      dup2\n      mstore\n      0x20\n      add\n      swap1\n      dup2\n      mstore\n      0x20\n      add\n      0x00\n      keccak256\n        /* \"B/Blue Sky Crypto Protocol.sol\":1367:1574  proposals[proposalCount] = Proposal({... */\n      0x00\n      dup3\n      add\n      mload\n      dup2\n      0x00\n      add\n      sstore\n      0x20\n      dup3\n      add\n      mload\n      dup2\n      0x01\n      add\n      exp(0x0100, 0x00)\n      dup2\n      sload\n      dup2\n      0xffffffffffffffffffffffffffffffffffffffff\n      mul\n      not\n      and\n      swap1\n      dup4\n      0xffffffffffffffffffffffffffffffffffffffff\n      and\n      mul\n      or\n      swap1\n      sstore\n      pop\n      0x40\n      dup3\n      add\n      mload\n      dup2\n      0x02\n      add\n      swap1\n      dup2\n      tag_67\n      swap2\n      swap1\n      tag_68\n      jump\t// in\n    tag_67:\n      pop\n      0x60\n      dup3\n      add\n      mload\n      dup2\n      0x03\n      add\n      sstore\n      0x80\n      dup3\n      add\n      mload\n      dup2\n      0x04\n      add\n      exp(0x0100, 0x00)\n      dup2\n      sload\n      dup2\n      0xff\n      mul\n      not\n      and\n      swap1\n      dup4\n      iszero\n      iszero\n      mul\n      or\n      swap1\n      sstore\n      pop\n      swap1\n      pop\n      pop\n        /* \"B/Blue Sky Crypto Protocol.sol\":1622:1632  msg.sender */\n      caller\n        /* \"B/Blue Sky Crypto Protocol.sol\":1589:1647  ProposalSubmitted(proposalCount, msg.sender, _description) */\n      0xffffffffffffffffffffffffffffffffffffffff\n      and\n        /* \"B/Blue Sky Crypto Protocol.sol\":1607:1620  proposalCount */\n      sload(0x01)\n        /* \"B/Blue Sky Crypto Protocol.sol\":1589:1647  ProposalSubmitted(proposalCount, msg.sender, _description) */\n      0xba63161e1c7e096aaf63cb63b137eeea26b870df0007c6e2ad029bae55d65179\n        /* \"B/Blue Sky Crypto Protocol.sol\":1634:1646  _description */\n      dup5\n      dup5\n        /* \"B/Blue Sky Crypto Protocol.sol\":1589:1647  ProposalSubmitted(proposalCount, msg.sender, _description) */\n      mload(0x40)\n      tag_69\n      swap3\n      swap2\n      swap1\n      tag_70\n      jump\t// in\n    tag_69:\n      mload(0x40)\n      dup1\n      swap2\n      sub\n      swap1\n      log3\n        /* \"B/Blue Sky Crypto Protocol.sol\":1657:1670  proposalCount */\n      0x01\n      0x00\n        /* \"B/Blue Sky Crypto Protocol.sol\":1657:1672  proposalCount++ */\n      dup2\n      sload\n      dup1\n      swap3\n      swap2\n      swap1\n      tag_71\n      swap1\n      tag_64\n      jump\t// in\n    tag_71:\n      swap2\n      swap1\n      pop\n      sstore\n      pop\n        /* \"B/Blue Sky Crypto Protocol.sol\":1294:1679  function submitProposal(string calldata _description) external {... */\n      pop\n      pop\n      jump\t// out\n        /* \"B/Blue Sky Crypto Protocol.sol\":620:680  mapping(address => mapping(uint256 => bool)) public hasVoted */\n    tag_28:\n      mstore(0x20, 0x03)\n      dup2\n      0x00\n      mstore\n      mstore(0x20, keccak256(0x00, 0x40))\n      dup1\n      0x00\n      mstore\n      keccak256(0x00, 0x40)\n      0x00\n      swap2\n      pop\n      swap2\n      pop\n      swap1\n      sload\n      swap1\n      0x0100\n      exp\n      swap1\n      div\n      0xff\n      and\n      dup2\n      jump\t// out\n        /* \"B/Blue Sky Crypto Protocol.sol\":2414:2911  function finalizeProposal(uint256 _proposalId) external onlyOwner {... */\n    tag_33:\n        /* \"B/Blue Sky Crypto Protocol.sol\":1014:1019  owner */\n      0x00\n      dup1\n      sload\n      swap1\n      0x0100\n      exp\n      swap1\n      div\n      0xffffffffffffffffffffffffffffffffffffffff\n      and\n        /* \"B/Blue Sky Crypto Protocol.sol\":1000:1019  msg.sender == owner */\n      0xffffffffffffffffffffffffffffffffffffffff\n      and\n        /* \"B/Blue Sky Crypto Protocol.sol\":1000:1010  msg.sender */\n      caller\n        /* \"B/Blue Sky Crypto Protocol.sol\":1000:1019  msg.sender == owner */\n      0xffffffffffffffffffffffffffffffffffffffff\n      and\n      eq\n        /* \"B/Blue Sky Crypto Protocol.sol\":992:1042  require(msg.sender == owner, \"Not contract owner\") */\n      tag_73\n      jumpi\n      mload(0x40)\n      0x08c379a000000000000000000000000000000000000000000000000000000000\n      dup2\n      mstore\n      0x04\n      add\n      tag_74\n      swap1\n      tag_75\n      jump\t// in\n    tag_74:\n      mload(0x40)\n      dup1\n      swap2\n      sub\n      swap1\n      revert\n    tag_73:\n        /* \"B/Blue Sky Crypto Protocol.sol\":2512:2525  proposalCount */\n      sload(0x01)\n        /* \"B/Blue Sky Crypto Protocol.sol\":2498:2509  _proposalId */\n      dup2\n        /* \"B/Blue Sky Crypto Protocol.sol\":2498:2525  _proposalId < proposalCount */\n      lt\n        /* \"B/Blue Sky Crypto Protocol.sol\":2490:2549  require(_proposalId < proposalCount, \"Invalid proposal ID\") */\n      tag_77\n      jumpi\n      mload(0x40)\n      0x08c379a000000000000000000000000000000000000000000000000000000000\n      dup2\n      mstore\n      0x04\n      add\n      tag_78\n      swap1\n      tag_56\n      jump\t// in\n    tag_78:\n      mload(0x40)\n      dup1\n      swap2\n      sub\n      swap1\n      revert\n    tag_77:\n        /* \"B/Blue Sky Crypto Protocol.sol\":2559:2584  Proposal storage proposal */\n      0x00\n        /* \"B/Blue Sky Crypto Protocol.sol\":2587:2596  proposals */\n      0x02\n        /* \"B/Blue Sky Crypto Protocol.sol\":2587:2609  proposals[_proposalId] */\n      0x00\n        /* \"B/Blue Sky Crypto Protocol.sol\":2597:2608  _proposalId */\n      dup4\n        /* \"B/Blue Sky Crypto Protocol.sol\":2587:2609  proposals[_proposalId] */\n      dup2\n      mstore\n      0x20\n      add\n      swap1\n      dup2\n      mstore\n      0x20\n      add\n      0x00\n      keccak256\n        /* \"B/Blue Sky Crypto Protocol.sol\":2559:2609  Proposal storage proposal = proposals[_proposalId] */\n      swap1\n      pop\n        /* \"B/Blue Sky Crypto Protocol.sol\":2628:2636  proposal */\n      dup1\n        /* \"B/Blue Sky Crypto Protocol.sol\":2628:2646  proposal.finalized */\n      0x04\n      add\n      0x00\n      swap1\n      sload\n      swap1\n      0x0100\n      exp\n      swap1\n      div\n      0xff\n      and\n        /* \"B/Blue Sky Crypto Protocol.sol\":2627:2646  !proposal.finalized */\n      iszero\n        /* \"B/Blue Sky Crypto Protocol.sol\":2619:2677  require(!proposal.finalized, \"Proposal already finalized\") */\n      tag_79\n      jumpi\n      mload(0x40)\n      0x08c379a000000000000000000000000000000000000000000000000000000000\n      dup2\n      mstore\n      0x04\n      add\n      tag_80\n      swap1\n      tag_62\n      jump\t// in\n    tag_80:\n      mload(0x40)\n      dup1\n      swap2\n      sub\n      swap1\n      revert\n    tag_79:\n        /* \"B/Blue Sky Crypto Protocol.sol\":2774:2778  true */\n      0x01\n        /* \"B/Blue Sky Crypto Protocol.sol\":2753:2761  proposal */\n      dup2\n        /* \"B/Blue Sky Crypto Protocol.sol\":2753:2771  proposal.finalized */\n      0x04\n      add\n      0x00\n        /* \"B/Blue Sky Crypto Protocol.sol\":2753:2778  proposal.finalized = true */\n      0x0100\n      exp\n      dup2\n      sload\n      dup2\n      0xff\n      mul\n      not\n      and\n      swap1\n      dup4\n      iszero\n      iszero\n      mul\n      or\n      swap1\n      sstore\n      pop\n        /* \"B/Blue Sky Crypto Protocol.sol\":2886:2897  _proposalId */\n      dup2\n        /* \"B/Blue Sky Crypto Protocol.sol\":2868:2904  ProposalFinalized(_proposalId, true) */\n      0xb5ac567fcf1b069e0235e4f16734625c6cf54c1b40517fd9eb85517f6e1265a7\n        /* \"B/Blue Sky Crypto Protocol.sol\":2899:2903  true */\n      0x01\n        /* \"B/Blue Sky Crypto Protocol.sol\":2868:2904  ProposalFinalized(_proposalId, true) */\n      mload(0x40)\n      tag_81\n      swap2\n      swap1\n      tag_30\n      jump\t// in\n    tag_81:\n      mload(0x40)\n      dup1\n      swap2\n      sub\n      swap1\n      log2\n        /* \"B/Blue Sky Crypto Protocol.sol\":2480:2911  {... */\n      pop\n        /* \"B/Blue Sky Crypto Protocol.sol\":2414:2911  function finalizeProposal(uint256 _proposalId) external onlyOwner {... */\n      pop\n      jump\t// out\n        /* \"B/Blue Sky Crypto Protocol.sol\":226:246  address public owner */\n    tag_35:\n      0x00\n      dup1\n      sload\n      swap1\n      0x0100\n      exp\n      swap1\n      div\n      0xffffffffffffffffffffffffffffffffffffffff\n      and\n      dup2\n      jump\t// out\n        /* \"B/Blue Sky Crypto Protocol.sol\":3052:3253  function getProposal(uint256 _proposalId) external view returns (Proposal memory) {... */\n    tag_40:\n        /* \"B/Blue Sky Crypto Protocol.sol\":3117:3132  Proposal memory */\n      tag_82\n      tag_83\n      jump\t// in\n    tag_82:\n        /* \"B/Blue Sky Crypto Protocol.sol\":3166:3179  proposalCount */\n      sload(0x01)\n        /* \"B/Blue Sky Crypto Protocol.sol\":3152:3163  _proposalId */\n      dup3\n        /* \"B/Blue Sky Crypto Protocol.sol\":3152:3179  _proposalId < proposalCount */\n      lt\n        /* \"B/Blue Sky Crypto Protocol.sol\":3144:3207  require(_proposalId < proposalCount, \"Proposal does not exist\") */\n      tag_85\n      jumpi\n      mload(0x40)\n      0x08c379a000000000000000000000000000000000000000000000000000000000\n      dup2\n      mstore\n      0x04\n      add\n      tag_86\n      swap1\n      tag_87\n      jump\t// in\n    tag_86:\n      mload(0x40)\n      dup1\n      swap2\n      sub\n      swap1\n      revert\n    tag_85:\n        /* \"B/Blue Sky Crypto Protocol.sol\":3224:3233  proposals */\n      0x02\n        /* \"B/Blue Sky Crypto Protocol.sol\":3224:3246  proposals[_proposalId] */\n      0x00\n        /* \"B/Blue Sky Crypto Protocol.sol\":3234:3245  _proposalId */\n      dup4\n        /* \"B/Blue Sky Crypto Protocol.sol\":3224:3246  proposals[_proposalId] */\n      dup2\n      mstore\n      0x20\n      add\n      swap1\n      dup2\n      mstore\n      0x20\n      add\n      0x00\n      keccak256\n        /* \"B/Blue Sky Crypto Protocol.sol\":3217:3246  return proposals[_proposalId] */\n      mload(0x40)\n      dup1\n      0xa0\n      add\n      0x40\n      mstore\n      swap1\n      dup2\n      0x00\n      dup3\n      add\n      sload\n      dup2\n      mstore\n      0x20\n      add\n      0x01\n      dup3\n      add\n      0x00\n      swap1\n      sload\n      swap1\n      0x0100\n      exp\n      swap1\n      div\n      0xffffffffffffffffffffffffffffffffffffffff\n      and\n      0xffffffffffffffffffffffffffffffffffffffff\n      and\n      0xffffffffffffffffffffffffffffffffffffffff\n      and\n      dup2\n      mstore\n      0x20\n      add\n      0x02\n      dup3\n      add\n      dup1\n      sload\n      tag_88\n      swap1\n      tag_48\n      jump\t// in\n    tag_88:\n      dup1\n      0x1f\n      add\n      0x20\n      dup1\n      swap2\n      div\n      mul\n      0x20\n      add\n      mload(0x40)\n      swap1\n      dup2\n      add\n      0x40\n      mstore\n      dup1\n      swap3\n      swap2\n      swap1\n      dup2\n      dup2\n      mstore\n      0x20\n      add\n      dup3\n      dup1\n      sload\n      tag_89\n      swap1\n      tag_48\n      jump\t// in\n    tag_89:\n      dup1\n      iszero\n      tag_90\n      jumpi\n      dup1\n      0x1f\n      lt\n      tag_91\n      jumpi\n      0x0100\n      dup1\n      dup4\n      sload\n      div\n      mul\n      dup4\n      mstore\n      swap2\n      0x20\n      add\n      swap2\n      jump(tag_90)\n    tag_91:\n      dup3\n      add\n      swap2\n      swap1\n      0x00\n      mstore\n      keccak256(0x00, 0x20)\n      swap1\n    tag_92:\n      dup2\n      sload\n      dup2\n      mstore\n      swap1\n      0x01\n      add\n      swap1\n      0x20\n      add\n      dup1\n      dup4\n      gt\n      tag_92\n      jumpi\n      dup3\n      swap1\n      sub\n      0x1f\n      and\n      dup3\n      add\n      swap2\n    tag_90:\n      pop\n      pop\n      pop\n      pop\n      pop\n      dup2\n      mstore\n      0x20\n      add\n      0x03\n      dup3\n      add\n      sload\n      dup2\n      mstore\n      0x20\n      add\n      0x04\n      dup3\n      add\n      0x00\n      swap1\n      sload\n      swap1\n      0x0100\n      exp\n      swap1\n      div\n      0xff\n      and\n      iszero\n      iszero\n      iszero\n      iszero\n      dup2\n      mstore\n      pop\n      pop\n      swap1\n      pop\n        /* \"B/Blue Sky Crypto Protocol.sol\":3052:3253  function getProposal(uint256 _proposalId) external view returns (Proposal memory) {... */\n      swap2\n      swap1\n      pop\n      jump\t// out\n        /* \"B/Blue Sky Crypto Protocol.sol\":252:280  uint256 public proposalCount */\n    tag_44:\n      sload(0x01)\n      dup2\n      jump\t// out\n    tag_83:\n      mload(0x40)\n      dup1\n      0xa0\n      add\n      0x40\n      mstore\n      dup1\n      0x00\n      dup2\n      mstore\n      0x20\n      add\n      and(0xffffffffffffffffffffffffffffffffffffffff, 0x00)\n      dup2\n      mstore\n      0x20\n      add\n      0x60\n      dup2\n      mstore\n      0x20\n      add\n      0x00\n      dup2\n      mstore\n      0x20\n      add\n      iszero(iszero(0x00))\n      dup2\n      mstore\n      pop\n      swap1\n      jump\t// out\n        /* \"#utility.yul\":88:205   */\n    tag_94:\n        /* \"#utility.yul\":197:198   */\n      0x00\n        /* \"#utility.yul\":194:195   */\n      dup1\n        /* \"#utility.yul\":187:199   */\n      revert\n        /* \"#utility.yul\":211:328   */\n    tag_95:\n        /* \"#utility.yul\":320:321   */\n      0x00\n        /* \"#utility.yul\":317:318   */\n      dup1\n        /* \"#utility.yul\":310:322   */\n      revert\n        /* \"#utility.yul\":334:411   */\n    tag_96:\n        /* \"#utility.yul\":371:378   */\n      0x00\n        /* \"#utility.yul\":400:405   */\n      dup2\n        /* \"#utility.yul\":389:405   */\n      swap1\n      pop\n        /* \"#utility.yul\":334:411   */\n      swap2\n      swap1\n      pop\n      jump\t// out\n        /* \"#utility.yul\":417:539   */\n    tag_97:\n        /* \"#utility.yul\":490:514   */\n      tag_158\n        /* \"#utility.yul\":508:513   */\n      dup2\n        /* \"#utility.yul\":490:514   */\n      tag_96\n      jump\t// in\n    tag_158:\n        /* \"#utility.yul\":483:488   */\n      dup2\n        /* \"#utility.yul\":480:515   */\n      eq\n        /* \"#utility.yul\":470:533   */\n      tag_159\n      jumpi\n        /* \"#utility.yul\":529:530   */\n      0x00\n        /* \"#utility.yul\":526:527   */\n      dup1\n        /* \"#utility.yul\":519:531   */\n      revert\n        /* \"#utility.yul\":470:533   */\n    tag_159:\n        /* \"#utility.yul\":417:539   */\n      pop\n      jump\t// out\n        /* \"#utility.yul\":545:684   */\n    tag_98:\n        /* \"#utility.yul\":591:596   */\n      0x00\n        /* \"#utility.yul\":629:635   */\n      dup2\n        /* \"#utility.yul\":616:636   */\n      calldataload\n        /* \"#utility.yul\":607:636   */\n      swap1\n      pop\n        /* \"#utility.yul\":645:678   */\n      tag_161\n        /* \"#utility.yul\":672:677   */\n      dup2\n        /* \"#utility.yul\":645:678   */\n      tag_97\n      jump\t// in\n    tag_161:\n        /* \"#utility.yul\":545:684   */\n      swap3\n      swap2\n      pop\n      pop\n      jump\t// out\n        /* \"#utility.yul\":690:1019   */\n    tag_14:\n        /* \"#utility.yul\":749:755   */\n      0x00\n        /* \"#utility.yul\":798:800   */\n      0x20\n        /* \"#utility.yul\":786:795   */\n      dup3\n        /* \"#utility.yul\":777:784   */\n      dup5\n        /* \"#utility.yul\":773:796   */\n      sub\n        /* \"#utility.yul\":769:801   */\n      slt\n        /* \"#utility.yul\":766:885   */\n      iszero\n      tag_163\n      jumpi\n        /* \"#utility.yul\":804:883   */\n      tag_164\n      tag_94\n      jump\t// in\n    tag_164:\n        /* \"#utility.yul\":766:885   */\n    tag_163:\n        /* \"#utility.yul\":924:925   */\n      0x00\n        /* \"#utility.yul\":949:1002   */\n      tag_165\n        /* \"#utility.yul\":994:1001   */\n      dup5\n        /* \"#utility.yul\":985:991   */\n      dup3\n        /* \"#utility.yul\":974:983   */\n      dup6\n        /* \"#utility.yul\":970:992   */\n      add\n        /* \"#utility.yul\":949:1002   */\n      tag_98\n      jump\t// in\n    tag_165:\n        /* \"#utility.yul\":939:1002   */\n      swap2\n      pop\n        /* \"#utility.yul\":895:1012   */\n      pop\n        /* \"#utility.yul\":690:1019   */\n      swap3\n      swap2\n      pop\n      pop\n      jump\t// out\n        /* \"#utility.yul\":1025:1143   */\n    tag_99:\n        /* \"#utility.yul\":1112:1136   */\n      tag_167\n        /* \"#utility.yul\":1130:1135   */\n      dup2\n        /* \"#utility.yul\":1112:1136   */\n      tag_96\n      jump\t// in\n    tag_167:\n        /* \"#utility.yul\":1107:1110   */\n      dup3\n        /* \"#utility.yul\":1100:1137   */\n      mstore\n        /* \"#utility.yul\":1025:1143   */\n      pop\n      pop\n      jump\t// out\n        /* \"#utility.yul\":1149:1275   */\n    tag_100:\n        /* \"#utility.yul\":1186:1193   */\n      0x00\n        /* \"#utility.yul\":1226:1268   */\n      0xffffffffffffffffffffffffffffffffffffffff\n        /* \"#utility.yul\":1219:1224   */\n      dup3\n        /* \"#utility.yul\":1215:1269   */\n      and\n        /* \"#utility.yul\":1204:1269   */\n      swap1\n      pop\n        /* \"#utility.yul\":1149:1275   */\n      swap2\n      swap1\n      pop\n      jump\t// out\n        /* \"#utility.yul\":1281:1377   */\n    tag_101:\n        /* \"#utility.yul\":1318:1325   */\n      0x00\n        /* \"#utility.yul\":1347:1371   */\n      tag_170\n        /* \"#utility.yul\":1365:1370   */\n      dup3\n        /* \"#utility.yul\":1347:1371   */\n      tag_100\n      jump\t// in\n    tag_170:\n        /* \"#utility.yul\":1336:1371   */\n      swap1\n      pop\n        /* \"#utility.yul\":1281:1377   */\n      swap2\n      swap1\n      pop\n      jump\t// out\n        /* \"#utility.yul\":1383:1501   */\n    tag_102:\n        /* \"#utility.yul\":1470:1494   */\n      tag_172\n        /* \"#utility.yul\":1488:1493   */\n      dup2\n        /* \"#utility.yul\":1470:1494   */\n      tag_101\n      jump\t// in\n    tag_172:\n        /* \"#utility.yul\":1465:1468   */\n      dup3\n        /* \"#utility.yul\":1458:1495   */\n      mstore\n        /* \"#utility.yul\":1383:1501   */\n      pop\n      pop\n      jump\t// out\n        /* \"#utility.yul\":1507:1606   */\n    tag_103:\n        /* \"#utility.yul\":1559:1565   */\n      0x00\n        /* \"#utility.yul\":1593:1598   */\n      dup2\n        /* \"#utility.yul\":1587:1599   */\n      mload\n        /* \"#utility.yul\":1577:1599   */\n      swap1\n      pop\n        /* \"#utility.yul\":1507:1606   */\n      swap2\n      swap1\n      pop\n      jump\t// out\n        /* \"#utility.yul\":1612:1781   */\n    tag_104:\n        /* \"#utility.yul\":1696:1707   */\n      0x00\n        /* \"#utility.yul\":1730:1736   */\n      dup3\n        /* \"#utility.yul\":1725:1728   */\n      dup3\n        /* \"#utility.yul\":1718:1737   */\n      mstore\n        /* \"#utility.yul\":1770:1774   */\n      0x20\n        /* \"#utility.yul\":1765:1768   */\n      dup3\n        /* \"#utility.yul\":1761:1775   */\n      add\n        /* \"#utility.yul\":1746:1775   */\n      swap1\n      pop\n        /* \"#utility.yul\":1612:1781   */\n      swap3\n      swap2\n      pop\n      pop\n      jump\t// out\n        /* \"#utility.yul\":1787:2033   */\n    tag_105:\n        /* \"#utility.yul\":1868:1869   */\n      0x00\n        /* \"#utility.yul\":1878:1991   */\n    tag_176:\n        /* \"#utility.yul\":1892:1898   */\n      dup4\n        /* \"#utility.yul\":1889:1890   */\n      dup2\n        /* \"#utility.yul\":1886:1899   */\n      lt\n        /* \"#utility.yul\":1878:1991   */\n      iszero\n      tag_178\n      jumpi\n        /* \"#utility.yul\":1977:1978   */\n      dup1\n        /* \"#utility.yul\":1972:1975   */\n      dup3\n        /* \"#utility.yul\":1968:1979   */\n      add\n        /* \"#utility.yul\":1962:1980   */\n      mload\n        /* \"#utility.yul\":1958:1959   */\n      dup2\n        /* \"#utility.yul\":1953:1956   */\n      dup5\n        /* \"#utility.yul\":1949:1960   */\n      add\n        /* \"#utility.yul\":1942:1981   */\n      mstore\n        /* \"#utility.yul\":1914:1916   */\n      0x20\n        /* \"#utility.yul\":1911:1912   */\n      dup2\n        /* \"#utility.yul\":1907:1917   */\n      add\n        /* \"#utility.yul\":1902:1917   */\n      swap1\n      pop\n        /* \"#utility.yul\":1878:1991   */\n      jump(tag_176)\n    tag_178:\n        /* \"#utility.yul\":2025:2026   */\n      0x00\n        /* \"#utility.yul\":2016:2022   */\n      dup5\n        /* \"#utility.yul\":2011:2014   */\n      dup5\n        /* \"#utility.yul\":2007:2023   */\n      add\n        /* \"#utility.yul\":2000:2027   */\n      mstore\n        /* \"#utility.yul\":1849:2033   */\n      pop\n        /* \"#utility.yul\":1787:2033   */\n      pop\n      pop\n      pop\n      jump\t// out\n        /* \"#utility.yul\":2039:2141   */\n    tag_106:\n        /* \"#utility.yul\":2080:2086   */\n      0x00\n        /* \"#utility.yul\":2131:2133   */\n      0x1f\n        /* \"#utility.yul\":2127:2134   */\n      not\n        /* \"#utility.yul\":2122:2124   */\n      0x1f\n        /* \"#utility.yul\":2115:2120   */\n      dup4\n        /* \"#utility.yul\":2111:2125   */\n      add\n        /* \"#utility.yul\":2107:2135   */\n      and\n        /* \"#utility.yul\":2097:2135   */\n      swap1\n      pop\n        /* \"#utility.yul\":2039:2141   */\n      swap2\n      swap1\n      pop\n      jump\t// out\n        /* \"#utility.yul\":2147:2524   */\n    tag_107:\n        /* \"#utility.yul\":2235:2238   */\n      0x00\n        /* \"#utility.yul\":2263:2302   */\n      tag_181\n        /* \"#utility.yul\":2296:2301   */\n      dup3\n        /* \"#utility.yul\":2263:2302   */\n      tag_103\n      jump\t// in\n    tag_181:\n        /* \"#utility.yul\":2318:2389   */\n      tag_182\n        /* \"#utility.yul\":2382:2388   */\n      dup2\n        /* \"#utility.yul\":2377:2380   */\n      dup6\n        /* \"#utility.yul\":2318:2389   */\n      tag_104\n      jump\t// in\n    tag_182:\n        /* \"#utility.yul\":2311:2389   */\n      swap4\n      pop\n        /* \"#utility.yul\":2398:2463   */\n      tag_183\n        /* \"#utility.yul\":2456:2462   */\n      dup2\n        /* \"#utility.yul\":2451:2454   */\n      dup6\n        /* \"#utility.yul\":2444:2448   */\n      0x20\n        /* \"#utility.yul\":2437:2442   */\n      dup7\n        /* \"#utility.yul\":2433:2449   */\n      add\n        /* \"#utility.yul\":2398:2463   */\n      tag_105\n      jump\t// in\n    tag_183:\n        /* \"#utility.yul\":2488:2517   */\n      tag_184\n        /* \"#utility.yul\":2510:2516   */\n      dup2\n        /* \"#utility.yul\":2488:2517   */\n      tag_106\n      jump\t// in\n    tag_184:\n        /* \"#utility.yul\":2483:2486   */\n      dup5\n        /* \"#utility.yul\":2479:2518   */\n      add\n        /* \"#utility.yul\":2472:2518   */\n      swap2\n      pop\n        /* \"#utility.yul\":2239:2524   */\n      pop\n        /* \"#utility.yul\":2147:2524   */\n      swap3\n      swap2\n      pop\n      pop\n      jump\t// out\n        /* \"#utility.yul\":2530:2620   */\n    tag_108:\n        /* \"#utility.yul\":2564:2571   */\n      0x00\n        /* \"#utility.yul\":2607:2612   */\n      dup2\n        /* \"#utility.yul\":2600:2613   */\n      iszero\n        /* \"#utility.yul\":2593:2614   */\n      iszero\n        /* \"#utility.yul\":2582:2614   */\n      swap1\n      pop\n        /* \"#utility.yul\":2530:2620   */\n      swap2\n      swap1\n      pop\n      jump\t// out\n        /* \"#utility.yul\":2626:2735   */\n    tag_109:\n        /* \"#utility.yul\":2707:2728   */\n      tag_187\n        /* \"#utility.yul\":2722:2727   */\n      dup2\n        /* \"#utility.yul\":2707:2728   */\n      tag_108\n      jump\t// in\n    tag_187:\n        /* \"#utility.yul\":2702:2705   */\n      dup3\n        /* \"#utility.yul\":2695:2729   */\n      mstore\n        /* \"#utility.yul\":2626:2735   */\n      pop\n      pop\n      jump\t// out\n        /* \"#utility.yul\":2741:3484   */\n    tag_17:\n        /* \"#utility.yul\":2960:2964   */\n      0x00\n        /* \"#utility.yul\":2998:3001   */\n      0xa0\n        /* \"#utility.yul\":2987:2996   */\n      dup3\n        /* \"#utility.yul\":2983:3002   */\n      add\n        /* \"#utility.yul\":2975:3002   */\n      swap1\n      pop\n        /* \"#utility.yul\":3012:3083   */\n      tag_189\n        /* \"#utility.yul\":3080:3081   */\n      0x00\n        /* \"#utility.yul\":3069:3078   */\n      dup4\n        /* \"#utility.yul\":3065:3082   */\n      add\n        /* \"#utility.yul\":3056:3062   */\n      dup9\n        /* \"#utility.yul\":3012:3083   */\n      tag_99\n      jump\t// in\n    tag_189:\n        /* \"#utility.yul\":3093:3165   */\n      tag_190\n        /* \"#utility.yul\":3161:3163   */\n      0x20\n        /* \"#utility.yul\":3150:3159   */\n      dup4\n        /* \"#utility.yul\":3146:3164   */\n      add\n        /* \"#utility.yul\":3137:3143   */\n      dup8\n        /* \"#utility.yul\":3093:3165   */\n      tag_102\n      jump\t// in\n    tag_190:\n        /* \"#utility.yul\":3212:3221   */\n      dup2\n        /* \"#utility.yul\":3206:3210   */\n      dup2\n        /* \"#utility.yul\":3202:3222   */\n      sub\n        /* \"#utility.yul\":3197:3199   */\n      0x40\n        /* \"#utility.yul\":3186:3195   */\n      dup4\n        /* \"#utility.yul\":3182:3200   */\n      add\n        /* \"#utility.yul\":3175:3223   */\n      mstore\n        /* \"#utility.yul\":3240:3318   */\n      tag_191\n        /* \"#utility.yul\":3313:3317   */\n      dup2\n        /* \"#utility.yul\":3304:3310   */\n      dup7\n        /* \"#utility.yul\":3240:3318   */\n      tag_107\n      jump\t// in\n    tag_191:\n        /* \"#utility.yul\":3232:3318   */\n      swap1\n      pop\n        /* \"#utility.yul\":3328:3400   */\n      tag_192\n        /* \"#utility.yul\":3396:3398   */\n      0x60\n        /* \"#utility.yul\":3385:3394   */\n      dup4\n        /* \"#utility.yul\":3381:3399   */\n      add\n        /* \"#utility.yul\":3372:3378   */\n      dup6\n        /* \"#utility.yul\":3328:3400   */\n      tag_99\n      jump\t// in\n    tag_192:\n        /* \"#utility.yul\":3410:3477   */\n      tag_193\n        /* \"#utility.yul\":3472:3475   */\n      0x80\n        /* \"#utility.yul\":3461:3470   */\n      dup4\n        /* \"#utility.yul\":3457:3476   */\n      add\n        /* \"#utility.yul\":3448:3454   */\n      dup5\n        /* \"#utility.yul\":3410:3477   */\n      tag_109\n      jump\t// in\n    tag_193:\n        /* \"#utility.yul\":2741:3484   */\n      swap7\n      swap6\n      pop\n      pop\n      pop\n      pop\n      pop\n      pop\n      jump\t// out\n        /* \"#utility.yul\":3490:3607   */\n    tag_110:\n        /* \"#utility.yul\":3599:3600   */\n      0x00\n        /* \"#utility.yul\":3596:3597   */\n      dup1\n        /* \"#utility.yul\":3589:3601   */\n      revert\n        /* \"#utility.yul\":3613:3730   */\n    tag_111:\n        /* \"#utility.yul\":3722:3723   */\n      0x00\n        /* \"#utility.yul\":3719:3720   */\n      dup1\n        /* \"#utility.yul\":3712:3724   */\n      revert\n        /* \"#utility.yul\":3736:3853   */\n    tag_112:\n        /* \"#utility.yul\":3845:3846   */\n      0x00\n        /* \"#utility.yul\":3842:3843   */\n      dup1\n        /* \"#utility.yul\":3835:3847   */\n      revert\n        /* \"#utility.yul\":3873:4426   */\n    tag_113:\n        /* \"#utility.yul\":3931:3939   */\n      0x00\n        /* \"#utility.yul\":3941:3947   */\n      dup1\n        /* \"#utility.yul\":3991:3994   */\n      dup4\n        /* \"#utility.yul\":3984:3988   */\n      0x1f\n        /* \"#utility.yul\":3976:3982   */\n      dup5\n        /* \"#utility.yul\":3972:3989   */\n      add\n        /* \"#utility.yul\":3968:3995   */\n      slt\n        /* \"#utility.yul\":3958:4080   */\n      tag_198\n      jumpi\n        /* \"#utility.yul\":3999:4078   */\n      tag_199\n      tag_110\n      jump\t// in\n    tag_199:\n        /* \"#utility.yul\":3958:4080   */\n    tag_198:\n        /* \"#utility.yul\":4112:4118   */\n      dup3\n        /* \"#utility.yul\":4099:4119   */\n      calldataload\n        /* \"#utility.yul\":4089:4119   */\n      swap1\n      pop\n        /* \"#utility.yul\":4142:4160   */\n      0xffffffffffffffff\n        /* \"#utility.yul\":4134:4140   */\n      dup2\n        /* \"#utility.yul\":4131:4161   */\n      gt\n        /* \"#utility.yul\":4128:4245   */\n      iszero\n      tag_200\n      jumpi\n        /* \"#utility.yul\":4164:4243   */\n      tag_201\n      tag_111\n      jump\t// in\n    tag_201:\n        /* \"#utility.yul\":4128:4245   */\n    tag_200:\n        /* \"#utility.yul\":4278:4282   */\n      0x20\n        /* \"#utility.yul\":4270:4276   */\n      dup4\n        /* \"#utility.yul\":4266:4283   */\n      add\n        /* \"#utility.yul\":4254:4283   */\n      swap2\n      pop\n        /* \"#utility.yul\":4332:4335   */\n      dup4\n        /* \"#utility.yul\":4324:4328   */\n      0x01\n        /* \"#utility.yul\":4316:4322   */\n      dup3\n        /* \"#utility.yul\":4312:4329   */\n      mul\n        /* \"#utility.yul\":4302:4310   */\n      dup4\n        /* \"#utility.yul\":4298:4330   */\n      add\n        /* \"#utility.yul\":4295:4336   */\n      gt\n        /* \"#utility.yul\":4292:4420   */\n      iszero\n      tag_202\n      jumpi\n        /* \"#utility.yul\":4339:4418   */\n      tag_203\n      tag_112\n      jump\t// in\n    tag_203:\n        /* \"#utility.yul\":4292:4420   */\n    tag_202:\n        /* \"#utility.yul\":3873:4426   */\n      swap3\n      pop\n      swap3\n      swap1\n      pop\n      jump\t// out\n        /* \"#utility.yul\":4432:4961   */\n    tag_23:\n        /* \"#utility.yul\":4503:4509   */\n      0x00\n        /* \"#utility.yul\":4511:4517   */\n      dup1\n        /* \"#utility.yul\":4560:4562   */\n      0x20\n        /* \"#utility.yul\":4548:4557   */\n      dup4\n        /* \"#utility.yul\":4539:4546   */\n      dup6\n        /* \"#utility.yul\":4535:4558   */\n      sub\n        /* \"#utility.yul\":4531:4563   */\n      slt\n        /* \"#utility.yul\":4528:4647   */\n      iszero\n      tag_205\n      jumpi\n        /* \"#utility.yul\":4566:4645   */\n      tag_206\n      tag_94\n      jump\t// in\n    tag_206:\n        /* \"#utility.yul\":4528:4647   */\n    tag_205:\n        /* \"#utility.yul\":4714:4715   */\n      0x00\n        /* \"#utility.yul\":4703:4712   */\n      dup4\n        /* \"#utility.yul\":4699:4716   */\n      add\n        /* \"#utility.yul\":4686:4717   */\n      calldataload\n        /* \"#utility.yul\":4744:4762   */\n      0xffffffffffffffff\n        /* \"#utility.yul\":4736:4742   */\n      dup2\n        /* \"#utility.yul\":4733:4763   */\n      gt\n        /* \"#utility.yul\":4730:4847   */\n      iszero\n      tag_207\n      jumpi\n        /* \"#utility.yul\":4766:4845   */\n      tag_208\n      tag_95\n      jump\t// in\n    tag_208:\n        /* \"#utility.yul\":4730:4847   */\n    tag_207:\n        /* \"#utility.yul\":4879:4944   */\n      tag_209\n        /* \"#utility.yul\":4936:4943   */\n      dup6\n        /* \"#utility.yul\":4927:4933   */\n      dup3\n        /* \"#utility.yul\":4916:4925   */\n      dup7\n        /* \"#utility.yul\":4912:4934   */\n      add\n        /* \"#utility.yul\":4879:4944   */\n      tag_113\n      jump\t// in\n    tag_209:\n        /* \"#utility.yul\":4861:4944   */\n      swap3\n      pop\n      swap3\n      pop\n        /* \"#utility.yul\":4657:4954   */\n      pop\n        /* \"#utility.yul\":4432:4961   */\n      swap3\n      pop\n      swap3\n      swap1\n      pop\n      jump\t// out\n        /* \"#utility.yul\":4967:5089   */\n    tag_114:\n        /* \"#utility.yul\":5040:5064   */\n      tag_211\n        /* \"#utility.yul\":5058:5063   */\n      dup2\n        /* \"#utility.yul\":5040:5064   */\n      tag_101\n      jump\t// in\n    tag_211:\n        /* \"#utility.yul\":5033:5038   */\n      dup2\n        /* \"#utility.yul\":5030:5065   */\n      eq\n        /* \"#utility.yul\":5020:5083   */\n      tag_212\n      jumpi\n        /* \"#utility.yul\":5079:5080   */\n      0x00\n        /* \"#utility.yul\":5076:5077   */\n      dup1\n        /* \"#utility.yul\":5069:5081   */\n      revert\n        /* \"#utility.yul\":5020:5083   */\n    tag_212:\n        /* \"#utility.yul\":4967:5089   */\n      pop\n      jump\t// out\n        /* \"#utility.yul\":5095:5234   */\n    tag_115:\n        /* \"#utility.yul\":5141:5146   */\n      0x00\n        /* \"#utility.yul\":5179:5185   */\n      dup2\n        /* \"#utility.yul\":5166:5186   */\n      calldataload\n        /* \"#utility.yul\":5157:5186   */\n      swap1\n      pop\n        /* \"#utility.yul\":5195:5228   */\n      tag_214\n        /* \"#utility.yul\":5222:5227   */\n      dup2\n        /* \"#utility.yul\":5195:5228   */\n      tag_114\n      jump\t// in\n    tag_214:\n        /* \"#utility.yul\":5095:5234   */\n      swap3\n      swap2\n      pop\n      pop\n      jump\t// out\n        /* \"#utility.yul\":5240:5714   */\n    tag_27:\n        /* \"#utility.yul\":5308:5314   */\n      0x00\n        /* \"#utility.yul\":5316:5322   */\n      dup1\n        /* \"#utility.yul\":5365:5367   */\n      0x40\n        /* \"#utility.yul\":5353:5362   */\n      dup4\n        /* \"#utility.yul\":5344:5351   */\n      dup6\n        /* \"#utility.yul\":5340:5363   */\n      sub\n        /* \"#utility.yul\":5336:5368   */\n      slt\n        /* \"#utility.yul\":5333:5452   */\n      iszero\n      tag_216\n      jumpi\n        /* \"#utility.yul\":5371:5450   */\n      tag_217\n      tag_94\n      jump\t// in\n    tag_217:\n        /* \"#utility.yul\":5333:5452   */\n    tag_216:\n        /* \"#utility.yul\":5491:5492   */\n      0x00\n        /* \"#utility.yul\":5516:5569   */\n      tag_218\n        /* \"#utility.yul\":5561:5568   */\n      dup6\n        /* \"#utility.yul\":5552:5558   */\n      dup3\n        /* \"#utility.yul\":5541:5550   */\n      dup7\n        /* \"#utility.yul\":5537:5559   */\n      add\n        /* \"#utility.yul\":5516:5569   */\n      tag_115\n      jump\t// in\n    tag_218:\n        /* \"#utility.yul\":5506:5569   */\n      swap3\n      pop\n        /* \"#utility.yul\":5462:5579   */\n      pop\n        /* \"#utility.yul\":5618:5620   */\n      0x20\n        /* \"#utility.yul\":5644:5697   */\n      tag_219\n        /* \"#utility.yul\":5689:5696   */\n      dup6\n        /* \"#utility.yul\":5680:5686   */\n      dup3\n        /* \"#utility.yul\":5669:5678   */\n      dup7\n        /* \"#utility.yul\":5665:5687   */\n      add\n        /* \"#utility.yul\":5644:5697   */\n      tag_98\n      jump\t// in\n    tag_219:\n        /* \"#utility.yul\":5634:5697   */\n      swap2\n      pop\n        /* \"#utility.yul\":5589:5707   */\n      pop\n        /* \"#utility.yul\":5240:5714   */\n      swap3\n      pop\n      swap3\n      swap1\n      pop\n      jump\t// out\n        /* \"#utility.yul\":5720:5930   */\n    tag_30:\n        /* \"#utility.yul\":5807:5811   */\n      0x00\n        /* \"#utility.yul\":5845:5847   */\n      0x20\n        /* \"#utility.yul\":5834:5843   */\n      dup3\n        /* \"#utility.yul\":5830:5848   */\n      add\n        /* \"#utility.yul\":5822:5848   */\n      swap1\n      pop\n        /* \"#utility.yul\":5858:5923   */\n      tag_221\n        /* \"#utility.yul\":5920:5921   */\n      0x00\n        /* \"#utility.yul\":5909:5918   */\n      dup4\n        /* \"#utility.yul\":5905:5922   */\n      add\n        /* \"#utility.yul\":5896:5902   */\n      dup5\n        /* \"#utility.yul\":5858:5923   */\n      tag_109\n      jump\t// in\n    tag_221:\n        /* \"#utility.yul\":5720:5930   */\n      swap3\n      swap2\n      pop\n      pop\n      jump\t// out\n        /* \"#utility.yul\":5936:6158   */\n    tag_37:\n        /* \"#utility.yul\":6029:6033   */\n      0x00\n        /* \"#utility.yul\":6067:6069   */\n      0x20\n        /* \"#utility.yul\":6056:6065   */\n      dup3\n        /* \"#utility.yul\":6052:6070   */\n      add\n        /* \"#utility.yul\":6044:6070   */\n      swap1\n      pop\n        /* \"#utility.yul\":6080:6151   */\n      tag_223\n        /* \"#utility.yul\":6148:6149   */\n      0x00\n        /* \"#utility.yul\":6137:6146   */\n      dup4\n        /* \"#utility.yul\":6133:6150   */\n      add\n        /* \"#utility.yul\":6124:6130   */\n      dup5\n        /* \"#utility.yul\":6080:6151   */\n      tag_102\n      jump\t// in\n    tag_223:\n        /* \"#utility.yul\":5936:6158   */\n      swap3\n      swap2\n      pop\n      pop\n      jump\t// out\n        /* \"#utility.yul\":6164:6272   */\n    tag_116:\n        /* \"#utility.yul\":6241:6265   */\n      tag_225\n        /* \"#utility.yul\":6259:6264   */\n      dup2\n        /* \"#utility.yul\":6241:6265   */\n      tag_96\n      jump\t// in\n    tag_225:\n        /* \"#utility.yul\":6236:6239   */\n      dup3\n        /* \"#utility.yul\":6229:6266   */\n      mstore\n        /* \"#utility.yul\":6164:6272   */\n      pop\n      pop\n      jump\t// out\n        /* \"#utility.yul\":6278:6386   */\n    tag_117:\n        /* \"#utility.yul\":6355:6379   */\n      tag_227\n        /* \"#utility.yul\":6373:6378   */\n      dup2\n        /* \"#utility.yul\":6355:6379   */\n      tag_101\n      jump\t// in\n    tag_227:\n        /* \"#utility.yul\":6350:6353   */\n      dup3\n        /* \"#utility.yul\":6343:6380   */\n      mstore\n        /* \"#utility.yul\":6278:6386   */\n      pop\n      pop\n      jump\t// out\n        /* \"#utility.yul\":6392:6551   */\n    tag_118:\n        /* \"#utility.yul\":6466:6477   */\n      0x00\n        /* \"#utility.yul\":6500:6506   */\n      dup3\n        /* \"#utility.yul\":6495:6498   */\n      dup3\n        /* \"#utility.yul\":6488:6507   */\n      mstore\n        /* \"#utility.yul\":6540:6544   */\n      0x20\n        /* \"#utility.yul\":6535:6538   */\n      dup3\n        /* \"#utility.yul\":6531:6545   */\n      add\n        /* \"#utility.yul\":6516:6545   */\n      swap1\n      pop\n        /* \"#utility.yul\":6392:6551   */\n      swap3\n      swap2\n      pop\n      pop\n      jump\t// out\n        /* \"#utility.yul\":6557:6914   */\n    tag_119:\n        /* \"#utility.yul\":6635:6638   */\n      0x00\n        /* \"#utility.yul\":6663:6702   */\n      tag_230\n        /* \"#utility.yul\":6696:6701   */\n      dup3\n        /* \"#utility.yul\":6663:6702   */\n      tag_103\n      jump\t// in\n    tag_230:\n        /* \"#utility.yul\":6718:6779   */\n      tag_231\n        /* \"#utility.yul\":6772:6778   */\n      dup2\n        /* \"#utility.yul\":6767:6770   */\n      dup6\n        /* \"#utility.yul\":6718:6779   */\n      tag_118\n      jump\t// in\n    tag_231:\n        /* \"#utility.yul\":6711:6779   */\n      swap4\n      pop\n        /* \"#utility.yul\":6788:6853   */\n      tag_232\n        /* \"#utility.yul\":6846:6852   */\n      dup2\n        /* \"#utility.yul\":6841:6844   */\n      dup6\n        /* \"#utility.yul\":6834:6838   */\n      0x20\n        /* \"#utility.yul\":6827:6832   */\n      dup7\n        /* \"#utility.yul\":6823:6839   */\n      add\n        /* \"#utility.yul\":6788:6853   */\n      tag_105\n      jump\t// in\n    tag_232:\n        /* \"#utility.yul\":6878:6907   */\n      tag_233\n        /* \"#utility.yul\":6900:6906   */\n      dup2\n        /* \"#utility.yul\":6878:6907   */\n      tag_106\n      jump\t// in\n    tag_233:\n        /* \"#utility.yul\":6873:6876   */\n      dup5\n        /* \"#utility.yul\":6869:6908   */\n      add\n        /* \"#utility.yul\":6862:6908   */\n      swap2\n      pop\n        /* \"#utility.yul\":6639:6914   */\n      pop\n        /* \"#utility.yul\":6557:6914   */\n      swap3\n      swap2\n      pop\n      pop\n      jump\t// out\n        /* \"#utility.yul\":6920:7019   */\n    tag_120:\n        /* \"#utility.yul\":6991:7012   */\n      tag_235\n        /* \"#utility.yul\":7006:7011   */\n      dup2\n        /* \"#utility.yul\":6991:7012   */\n      tag_108\n      jump\t// in\n    tag_235:\n        /* \"#utility.yul\":6986:6989   */\n      dup3\n        /* \"#utility.yul\":6979:7013   */\n      mstore\n        /* \"#utility.yul\":6920:7019   */\n      pop\n      pop\n      jump\t// out\n        /* \"#utility.yul\":7111:8250   */\n    tag_121:\n        /* \"#utility.yul\":7228:7231   */\n      0x00\n        /* \"#utility.yul\":7264:7268   */\n      0xa0\n        /* \"#utility.yul\":7259:7262   */\n      dup4\n        /* \"#utility.yul\":7255:7269   */\n      add\n        /* \"#utility.yul\":7349:7353   */\n      0x00\n        /* \"#utility.yul\":7342:7347   */\n      dup4\n        /* \"#utility.yul\":7338:7354   */\n      add\n        /* \"#utility.yul\":7332:7355   */\n      mload\n        /* \"#utility.yul\":7368:7431   */\n      tag_237\n        /* \"#utility.yul\":7425:7429   */\n      0x00\n        /* \"#utility.yul\":7420:7423   */\n      dup7\n        /* \"#utility.yul\":7416:7430   */\n      add\n        /* \"#utility.yul\":7402:7414   */\n      dup3\n        /* \"#utility.yul\":7368:7431   */\n      tag_116\n      jump\t// in\n    tag_237:\n        /* \"#utility.yul\":7279:7441   */\n      pop\n        /* \"#utility.yul\":7527:7531   */\n      0x20\n        /* \"#utility.yul\":7520:7525   */\n      dup4\n        /* \"#utility.yul\":7516:7532   */\n      add\n        /* \"#utility.yul\":7510:7533   */\n      mload\n        /* \"#utility.yul\":7546:7609   */\n      tag_238\n        /* \"#utility.yul\":7603:7607   */\n      0x20\n        /* \"#utility.yul\":7598:7601   */\n      dup7\n        /* \"#utility.yul\":7594:7608   */\n      add\n        /* \"#utility.yul\":7580:7592   */\n      dup3\n        /* \"#utility.yul\":7546:7609   */\n      tag_117\n      jump\t// in\n    tag_238:\n        /* \"#utility.yul\":7451:7619   */\n      pop\n        /* \"#utility.yul\":7708:7712   */\n      0x40\n        /* \"#utility.yul\":7701:7706   */\n      dup4\n        /* \"#utility.yul\":7697:7713   */\n      add\n        /* \"#utility.yul\":7691:7714   */\n      mload\n        /* \"#utility.yul\":7761:7764   */\n      dup5\n        /* \"#utility.yul\":7755:7759   */\n      dup3\n        /* \"#utility.yul\":7751:7765   */\n      sub\n        /* \"#utility.yul\":7744:7748   */\n      0x40\n        /* \"#utility.yul\":7739:7742   */\n      dup7\n        /* \"#utility.yul\":7735:7749   */\n      add\n        /* \"#utility.yul\":7728:7766   */\n      mstore\n        /* \"#utility.yul\":7787:7860   */\n      tag_239\n        /* \"#utility.yul\":7855:7859   */\n      dup3\n        /* \"#utility.yul\":7841:7853   */\n      dup3\n        /* \"#utility.yul\":7787:7860   */\n      tag_119\n      jump\t// in\n    tag_239:\n        /* \"#utility.yul\":7779:7860   */\n      swap2\n      pop\n        /* \"#utility.yul\":7629:7871   */\n      pop\n        /* \"#utility.yul\":7958:7962   */\n      0x60\n        /* \"#utility.yul\":7951:7956   */\n      dup4\n        /* \"#utility.yul\":7947:7963   */\n      add\n        /* \"#utility.yul\":7941:7964   */\n      mload\n        /* \"#utility.yul\":7977:8040   */\n      tag_240\n        /* \"#utility.yul\":8034:8038   */\n      0x60\n        /* \"#utility.yul\":8029:8032   */\n      dup7\n        /* \"#utility.yul\":8025:8039   */\n      add\n        /* \"#utility.yul\":8011:8023   */\n      dup3\n        /* \"#utility.yul\":7977:8040   */\n      tag_116\n      jump\t// in\n    tag_240:\n        /* \"#utility.yul\":7881:8050   */\n      pop\n        /* \"#utility.yul\":8137:8141   */\n      0x80\n        /* \"#utility.yul\":8130:8135   */\n      dup4\n        /* \"#utility.yul\":8126:8142   */\n      add\n        /* \"#utility.yul\":8120:8143   */\n      mload\n        /* \"#utility.yul\":8156:8213   */\n      tag_241\n        /* \"#utility.yul\":8207:8211   */\n      0x80\n        /* \"#utility.yul\":8202:8205   */\n      dup7\n        /* \"#utility.yul\":8198:8212   */\n      add\n        /* \"#utility.yul\":8184:8196   */\n      dup3\n        /* \"#utility.yul\":8156:8213   */\n      tag_120\n      jump\t// in\n    tag_241:\n        /* \"#utility.yul\":8060:8223   */\n      pop\n        /* \"#utility.yul\":8240:8244   */\n      dup1\n        /* \"#utility.yul\":8233:8244   */\n      swap2\n      pop\n        /* \"#utility.yul\":7233:8250   */\n      pop\n        /* \"#utility.yul\":7111:8250   */\n      swap3\n      swap2\n      pop\n      pop\n      jump\t// out\n        /* \"#utility.yul\":8256:8625   */\n    tag_42:\n        /* \"#utility.yul\":8397:8401   */\n      0x00\n        /* \"#utility.yul\":8435:8437   */\n      0x20\n        /* \"#utility.yul\":8424:8433   */\n      dup3\n        /* \"#utility.yul\":8420:8438   */\n      add\n        /* \"#utility.yul\":8412:8438   */\n      swap1\n      pop\n        /* \"#utility.yul\":8484:8493   */\n      dup2\n        /* \"#utility.yul\":8478:8482   */\n      dup2\n        /* \"#utility.yul\":8474:8494   */\n      sub\n        /* \"#utility.yul\":8470:8471   */\n      0x00\n        /* \"#utility.yul\":8459:8468   */\n      dup4\n        /* \"#utility.yul\":8455:8472   */\n      add\n        /* \"#utility.yul\":8448:8495   */\n      mstore\n        /* \"#utility.yul\":8512:8618   */\n      tag_243\n        /* \"#utility.yul\":8613:8617   */\n      dup2\n        /* \"#utility.yul\":8604:8610   */\n      dup5\n        /* \"#utility.yul\":8512:8618   */\n      tag_121\n      jump\t// in\n    tag_243:\n        /* \"#utility.yul\":8504:8618   */\n      swap1\n      pop\n        /* \"#utility.yul\":8256:8625   */\n      swap3\n      swap2\n      pop\n      pop\n      jump\t// out\n        /* \"#utility.yul\":8631:8853   */\n    tag_46:\n        /* \"#utility.yul\":8724:8728   */\n      0x00\n        /* \"#utility.yul\":8762:8764   */\n      0x20\n        /* \"#utility.yul\":8751:8760   */\n      dup3\n        /* \"#utility.yul\":8747:8765   */\n      add\n        /* \"#utility.yul\":8739:8765   */\n      swap1\n      pop\n        /* \"#utility.yul\":8775:8846   */\n      tag_245\n        /* \"#utility.yul\":8843:8844   */\n      0x00\n        /* \"#utility.yul\":8832:8841   */\n      dup4\n        /* \"#utility.yul\":8828:8845   */\n      add\n        /* \"#utility.yul\":8819:8825   */\n      dup5\n        /* \"#utility.yul\":8775:8846   */\n      tag_99\n      jump\t// in\n    tag_245:\n        /* \"#utility.yul\":8631:8853   */\n      swap3\n      swap2\n      pop\n      pop\n      jump\t// out\n        /* \"#utility.yul\":8859:9039   */\n    tag_122:\n        /* \"#utility.yul\":8907:8984   */\n      0x4e487b7100000000000000000000000000000000000000000000000000000000\n        /* \"#utility.yul\":8904:8905   */\n      0x00\n        /* \"#utility.yul\":8897:8985   */\n      mstore\n        /* \"#utility.yul\":9004:9008   */\n      0x22\n        /* \"#utility.yul\":9001:9002   */\n      0x04\n        /* \"#utility.yul\":8994:9009   */\n      mstore\n        /* \"#utility.yul\":9028:9032   */\n      0x24\n        /* \"#utility.yul\":9025:9026   */\n      0x00\n        /* \"#utility.yul\":9018:9033   */\n      revert\n        /* \"#utility.yul\":9045:9365   */\n    tag_48:\n        /* \"#utility.yul\":9089:9095   */\n      0x00\n        /* \"#utility.yul\":9126:9127   */\n      0x02\n        /* \"#utility.yul\":9120:9124   */\n      dup3\n        /* \"#utility.yul\":9116:9128   */\n      div\n        /* \"#utility.yul\":9106:9128   */\n      swap1\n      pop\n        /* \"#utility.yul\":9173:9174   */\n      0x01\n        /* \"#utility.yul\":9167:9171   */\n      dup3\n        /* \"#utility.yul\":9163:9175   */\n      and\n        /* \"#utility.yul\":9194:9212   */\n      dup1\n        /* \"#utility.yul\":9184:9265   */\n      tag_248\n      jumpi\n        /* \"#utility.yul\":9250:9254   */\n      0x7f\n        /* \"#utility.yul\":9242:9248   */\n      dup3\n        /* \"#utility.yul\":9238:9255   */\n      and\n        /* \"#utility.yul\":9228:9255   */\n      swap2\n      pop\n        /* \"#utility.yul\":9184:9265   */\n    tag_248:\n        /* \"#utility.yul\":9312:9314   */\n      0x20\n        /* \"#utility.yul\":9304:9310   */\n      dup3\n        /* \"#utility.yul\":9301:9315   */\n      lt\n        /* \"#utility.yul\":9281:9299   */\n      dup2\n        /* \"#utility.yul\":9278:9316   */\n      sub\n        /* \"#utility.yul\":9275:9359   */\n      tag_249\n      jumpi\n        /* \"#utility.yul\":9331:9349   */\n      tag_250\n      tag_122\n      jump\t// in\n    tag_250:\n        /* \"#utility.yul\":9275:9359   */\n    tag_249:\n        /* \"#utility.yul\":9096:9365   */\n      pop\n        /* \"#utility.yul\":9045:9365   */\n      swap2\n      swap1\n      pop\n      jump\t// out\n        /* \"#utility.yul\":9371:9540   */\n    tag_123:\n        /* \"#utility.yul\":9511:9532   */\n      0x496e76616c69642070726f706f73616c20494400000000000000000000000000\n        /* \"#utility.yul\":9507:9508   */\n      0x00\n        /* \"#utility.yul\":9499:9505   */\n      dup3\n        /* \"#utility.yul\":9495:9509   */\n      add\n        /* \"#utility.yul\":9488:9533   */\n      mstore\n        /* \"#utility.yul\":9371:9540   */\n      pop\n      jump\t// out\n        /* \"#utility.yul\":9546:9912   */\n    tag_124:\n        /* \"#utility.yul\":9688:9691   */\n      0x00\n        /* \"#utility.yul\":9709:9776   */\n      tag_253\n        /* \"#utility.yul\":9773:9775   */\n      0x13\n        /* \"#utility.yul\":9768:9771   */\n      dup4\n        /* \"#utility.yul\":9709:9776   */\n      tag_104\n      jump\t// in\n    tag_253:\n        /* \"#utility.yul\":9702:9776   */\n      swap2\n      pop\n        /* \"#utility.yul\":9785:9878   */\n      tag_254\n        /* \"#utility.yul\":9874:9877   */\n      dup3\n        /* \"#utility.yul\":9785:9878   */\n      tag_123\n      jump\t// in\n    tag_254:\n        /* \"#utility.yul\":9903:9905   */\n      0x20\n        /* \"#utility.yul\":9898:9901   */\n      dup3\n        /* \"#utility.yul\":9894:9906   */\n      add\n        /* \"#utility.yul\":9887:9906   */\n      swap1\n      pop\n        /* \"#utility.yul\":9546:9912   */\n      swap2\n      swap1\n      pop\n      jump\t// out\n        /* \"#utility.yul\":9918:10337   */\n    tag_56:\n        /* \"#utility.yul\":10084:10088   */\n      0x00\n        /* \"#utility.yul\":10122:10124   */\n      0x20\n        /* \"#utility.yul\":10111:10120   */\n      dup3\n        /* \"#utility.yul\":10107:10125   */\n      add\n        /* \"#utility.yul\":10099:10125   */\n      swap1\n      pop\n        /* \"#utility.yul\":10171:10180   */\n      dup2\n        /* \"#utility.yul\":10165:10169   */\n      dup2\n        /* \"#utility.yul\":10161:10181   */\n      sub\n        /* \"#utility.yul\":10157:10158   */\n      0x00\n        /* \"#utility.yul\":10146:10155   */\n      dup4\n        /* \"#utility.yul\":10142:10159   */\n      add\n        /* \"#utility.yul\":10135:10182   */\n      mstore\n        /* \"#utility.yul\":10199:10330   */\n      tag_256\n        /* \"#utility.yul\":10325:10329   */\n      dup2\n        /* \"#utility.yul\":10199:10330   */\n      tag_124\n      jump\t// in\n    tag_256:\n        /* \"#utility.yul\":10191:10330   */\n      swap1\n      pop\n        /* \"#utility.yul\":9918:10337   */\n      swap2\n      swap1\n      pop\n      jump\t// out\n        /* \"#utility.yul\":10343:10524   */\n    tag_125:\n        /* \"#utility.yul\":10483:10516   */\n      0x416c726561647920766f74656420666f7220746869732070726f706f73616c00\n        /* \"#utility.yul\":10479:10480   */\n      0x00\n        /* \"#utility.yul\":10471:10477   */\n      dup3\n        /* \"#utility.yul\":10467:10481   */\n      add\n        /* \"#utility.yul\":10460:10517   */\n      mstore\n        /* \"#utility.yul\":10343:10524   */\n      pop\n      jump\t// out\n        /* \"#utility.yul\":10530:10896   */\n    tag_126:\n        /* \"#utility.yul\":10672:10675   */\n      0x00\n        /* \"#utility.yul\":10693:10760   */\n      tag_259\n        /* \"#utility.yul\":10757:10759   */\n      0x1f\n        /* \"#utility.yul\":10752:10755   */\n      dup4\n        /* \"#utility.yul\":10693:10760   */\n      tag_104\n      jump\t// in\n    tag_259:\n        /* \"#utility.yul\":10686:10760   */\n      swap2\n      pop\n        /* \"#utility.yul\":10769:10862   */\n      tag_260\n        /* \"#utility.yul\":10858:10861   */\n      dup3\n        /* \"#utility.yul\":10769:10862   */\n      tag_125\n      jump\t// in\n    tag_260:\n        /* \"#utility.yul\":10887:10889   */\n      0x20\n        /* \"#utility.yul\":10882:10885   */\n      dup3\n        /* \"#utility.yul\":10878:10890   */\n      add\n        /* \"#utility.yul\":10871:10890   */\n      swap1\n      pop\n        /* \"#utility.yul\":10530:10896   */\n      swap2\n      swap1\n      pop\n      jump\t// out\n        /* \"#utility.yul\":10902:11321   */\n    tag_59:\n        /* \"#utility.yul\":11068:11072   */\n      0x00\n        /* \"#utility.yul\":11106:11108   */\n      0x20\n        /* \"#utility.yul\":11095:11104   */\n      dup3\n        /* \"#utility.yul\":11091:11109   */\n      add\n        /* \"#utility.yul\":11083:11109   */\n      swap1\n      pop\n        /* \"#utility.yul\":11155:11164   */\n      dup2\n        /* \"#utility.yul\":11149:11153   */\n      dup2\n        /* \"#utility.yul\":11145:11165   */\n      sub\n        /* \"#utility.yul\":11141:11142   */\n      0x00\n        /* \"#utility.yul\":11130:11139   */\n      dup4\n        /* \"#utility.yul\":11126:11143   */\n      add\n        /* \"#utility.yul\":11119:11166   */\n      mstore\n        /* \"#utility.yul\":11183:11314   */\n      tag_262\n        /* \"#utility.yul\":11309:11313   */\n      dup2\n        /* \"#utility.yul\":11183:11314   */\n      tag_126\n      jump\t// in\n    tag_262:\n        /* \"#utility.yul\":11175:11314   */\n      swap1\n      pop\n        /* \"#utility.yul\":10902:11321   */\n      swap2\n      swap1\n      pop\n      jump\t// out\n        /* \"#utility.yul\":11327:11503   */\n    tag_127:\n        /* \"#utility.yul\":11467:11495   */\n      0x50726f706f73616c20616c72656164792066696e616c697a6564000000000000\n        /* \"#utility.yul\":11463:11464   */\n      0x00\n        /* \"#utility.yul\":11455:11461   */\n      dup3\n        /* \"#utility.yul\":11451:11465   */\n      add\n        /* \"#utility.yul\":11444:11496   */\n      mstore\n        /* \"#utility.yul\":11327:11503   */\n      pop\n      jump\t// out\n        /* \"#utility.yul\":11509:11875   */\n    tag_128:\n        /* \"#utility.yul\":11651:11654   */\n      0x00\n        /* \"#utility.yul\":11672:11739   */\n      tag_265\n        /* \"#utility.yul\":11736:11738   */\n      0x1a\n        /* \"#utility.yul\":11731:11734   */\n      dup4\n        /* \"#utility.yul\":11672:11739   */\n      tag_104\n      jump\t// in\n    tag_265:\n        /* \"#utility.yul\":11665:11739   */\n      swap2\n      pop\n        /* \"#utility.yul\":11748:11841   */\n      tag_266\n        /* \"#utility.yul\":11837:11840   */\n      dup3\n        /* \"#utility.yul\":11748:11841   */\n      tag_127\n      jump\t// in\n    tag_266:\n        /* \"#utility.yul\":11866:11868   */\n      0x20\n        /* \"#utility.yul\":11861:11864   */\n      dup3\n        /* \"#utility.yul\":11857:11869   */\n      add\n        /* \"#utility.yul\":11850:11869   */\n      swap1\n      pop\n        /* \"#utility.yul\":11509:11875   */\n      swap2\n      swap1\n      pop\n      jump\t// out\n        /* \"#utility.yul\":11881:12300   */\n    tag_62:\n        /* \"#utility.yul\":12047:12051   */\n      0x00\n        /* \"#utility.yul\":12085:12087   */\n      0x20\n        /* \"#utility.yul\":12074:12083   */\n      dup3\n        /* \"#utility.yul\":12070:12088   */\n      add\n        /* \"#utility.yul\":12062:12088   */\n      swap1\n      pop\n        /* \"#utility.yul\":12134:12143   */\n      dup2\n        /* \"#utility.yul\":12128:12132   */\n      dup2\n        /* \"#utility.yul\":12124:12144   */\n      sub\n        /* \"#utility.yul\":12120:12121   */\n      0x00\n        /* \"#utility.yul\":12109:12118   */\n      dup4\n        /* \"#utility.yul\":12105:12122   */\n      add\n        /* \"#utility.yul\":12098:12145   */\n      mstore\n        /* \"#utility.yul\":12162:12293   */\n      tag_268\n        /* \"#utility.yul\":12288:12292   */\n      dup2\n        /* \"#utility.yul\":12162:12293   */\n      tag_128\n      jump\t// in\n    tag_268:\n        /* \"#utility.yul\":12154:12293   */\n      swap1\n      pop\n        /* \"#utility.yul\":11881:12300   */\n      swap2\n      swap1\n      pop\n      jump\t// out\n        /* \"#utility.yul\":12306:12486   */\n    tag_129:\n        /* \"#utility.yul\":12354:12431   */\n      0x4e487b7100000000000000000000000000000000000000000000000000000000\n        /* \"#utility.yul\":12351:12352   */\n      0x00\n        /* \"#utility.yul\":12344:12432   */\n      mstore\n        /* \"#utility.yul\":12451:12455   */\n      0x11\n        /* \"#utility.yul\":12448:12449   */\n      0x04\n        /* \"#utility.yul\":12441:12456   */\n      mstore\n        /* \"#utility.yul\":12475:12479   */\n      0x24\n        /* \"#utility.yul\":12472:12473   */\n      0x00\n        /* \"#utility.yul\":12465:12480   */\n      revert\n        /* \"#utility.yul\":12492:12725   */\n    tag_64:\n        /* \"#utility.yul\":12531:12534   */\n      0x00\n        /* \"#utility.yul\":12554:12578   */\n      tag_271\n        /* \"#utility.yul\":12572:12577   */\n      dup3\n        /* \"#utility.yul\":12554:12578   */\n      tag_96\n      jump\t// in\n    tag_271:\n        /* \"#utility.yul\":12545:12578   */\n      swap2\n      pop\n        /* \"#utility.yul\":12600:12666   */\n      0xffffffffffffffffffffffffffffffffffffffffffffffffffffffffffffffff\n        /* \"#utility.yul\":12593:12598   */\n      dup3\n        /* \"#utility.yul\":12590:12667   */\n      sub\n        /* \"#utility.yul\":12587:12690   */\n      tag_272\n      jumpi\n        /* \"#utility.yul\":12670:12688   */\n      tag_273\n      tag_129\n      jump\t// in\n    tag_273:\n        /* \"#utility.yul\":12587:12690   */\n    tag_272:\n        /* \"#utility.yul\":12717:12718   */\n      0x01\n        /* \"#utility.yul\":12710:12715   */\n      dup3\n        /* \"#utility.yul\":12706:12719   */\n      add\n        /* \"#utility.yul\":12699:12719   */\n      swap1\n      pop\n        /* \"#utility.yul\":12492:12725   */\n      swap2\n      swap1\n      pop\n      jump\t// out\n        /* \"#utility.yul\":12731:12911   */\n    tag_130:\n        /* \"#utility.yul\":12779:12856   */\n      0x4e487b7100000000000000000000000000000000000000000000000000000000\n        /* \"#utility.yul\":12776:12777   */\n      0x00\n        /* \"#utility.yul\":12769:12857   */\n      mstore\n        /* \"#utility.yul\":12876:12880   */\n      0x41\n        /* \"#utility.yul\":12873:12874   */\n      0x04\n        /* \"#utility.yul\":12866:12881   */\n      mstore\n        /* \"#utility.yul\":12900:12904   */\n      0x24\n        /* \"#utility.yul\":12897:12898   */\n      0x00\n        /* \"#utility.yul\":12890:12905   */\n      revert\n        /* \"#utility.yul\":12917:13058   */\n    tag_131:\n        /* \"#utility.yul\":12966:12970   */\n      0x00\n        /* \"#utility.yul\":12989:12992   */\n      dup2\n        /* \"#utility.yul\":12981:12992   */\n      swap1\n      pop\n        /* \"#utility.yul\":13012:13015   */\n      dup2\n        /* \"#utility.yul\":13009:13010   */\n      0x00\n        /* \"#utility.yul\":13002:13016   */\n      mstore\n        /* \"#utility.yul\":13046:13050   */\n      0x20\n        /* \"#utility.yul\":13043:13044   */\n      0x00\n        /* \"#utility.yul\":13033:13051   */\n      keccak256\n        /* \"#utility.yul\":13025:13051   */\n      swap1\n      pop\n        /* \"#utility.yul\":12917:13058   */\n      swap2\n      swap1\n      pop\n      jump\t// out\n        /* \"#utility.yul\":13064:13157   */\n    tag_132:\n        /* \"#utility.yul\":13101:13107   */\n      0x00\n        /* \"#utility.yul\":13148:13150   */\n      0x20\n        /* \"#utility.yul\":13143:13145   */\n      0x1f\n        /* \"#utility.yul\":13136:13141   */\n      dup4\n        /* \"#utility.yul\":13132:13146   */\n      add\n        /* \"#utility.yul\":13128:13151   */\n      div\n        /* \"#utility.yul\":13118:13151   */\n      swap1\n      pop\n        /* \"#utility.yul\":13064:13157   */\n      swap2\n      swap1\n      pop\n      jump\t// out\n        /* \"#utility.yul\":13163:13270   */\n    tag_133:\n        /* \"#utility.yul\":13207:13215   */\n      0x00\n        /* \"#utility.yul\":13257:13262   */\n      dup3\n        /* \"#utility.yul\":13251:13255   */\n      dup3\n        /* \"#utility.yul\":13247:13263   */\n      shl\n        /* \"#utility.yul\":13226:13263   */\n      swap1\n      pop\n        /* \"#utility.yul\":13163:13270   */\n      swap3\n      swap2\n      pop\n      pop\n      jump\t// out\n        /* \"#utility.yul\":13276:13669   */\n    tag_134:\n        /* \"#utility.yul\":13345:13351   */\n      0x00\n        /* \"#utility.yul\":13395:13396   */\n      0x08\n        /* \"#utility.yul\":13383:13393   */\n      dup4\n        /* \"#utility.yul\":13379:13397   */\n      mul\n        /* \"#utility.yul\":13418:13515   */\n      tag_279\n        /* \"#utility.yul\":13448:13514   */\n      0xffffffffffffffffffffffffffffffffffffffffffffffffffffffffffffffff\n        /* \"#utility.yul\":13437:13446   */\n      dup3\n        /* \"#utility.yul\":13418:13515   */\n      tag_133\n      jump\t// in\n    tag_279:\n        /* \"#utility.yul\":13536:13575   */\n      tag_280\n        /* \"#utility.yul\":13566:13574   */\n      dup7\n        /* \"#utility.yul\":13555:13564   */\n      dup4\n        /* \"#utility.yul\":13536:13575   */\n      tag_133\n      jump\t// in\n    tag_280:\n        /* \"#utility.yul\":13524:13575   */\n      swap6\n      pop\n        /* \"#utility.yul\":13608:13612   */\n      dup1\n        /* \"#utility.yul\":13604:13613   */\n      not\n        /* \"#utility.yul\":13597:13602   */\n      dup5\n        /* \"#utility.yul\":13593:13614   */\n      and\n        /* \"#utility.yul\":13584:13614   */\n      swap4\n      pop\n        /* \"#utility.yul\":13657:13661   */\n      dup1\n        /* \"#utility.yul\":13647:13655   */\n      dup7\n        /* \"#utility.yul\":13643:13662   */\n      and\n        /* \"#utility.yul\":13636:13641   */\n      dup5\n        /* \"#utility.yul\":13633:13663   */\n      or\n        /* \"#utility.yul\":13623:13663   */\n      swap3\n      pop\n        /* \"#utility.yul\":13352:13669   */\n      pop\n      pop\n        /* \"#utility.yul\":13276:13669   */\n      swap4\n      swap3\n      pop\n      pop\n      pop\n      jump\t// out\n        /* \"#utility.yul\":13675:13735   */\n    tag_135:\n        /* \"#utility.yul\":13703:13706   */\n      0x00\n        /* \"#utility.yul\":13724:13729   */\n      dup2\n        /* \"#utility.yul\":13717:13729   */\n      swap1\n      pop\n        /* \"#utility.yul\":13675:13735   */\n      swap2\n      swap1\n      pop\n      jump\t// out\n        /* \"#utility.yul\":13741:13883   */\n    tag_136:\n        /* \"#utility.yul\":13791:13800   */\n      0x00\n        /* \"#utility.yul\":13824:13877   */\n      tag_283\n        /* \"#utility.yul\":13842:13876   */\n      tag_284\n        /* \"#utility.yul\":13851:13875   */\n      tag_285\n        /* \"#utility.yul\":13869:13874   */\n      dup5\n        /* \"#utility.yul\":13851:13875   */\n      tag_96\n      jump\t// in\n    tag_285:\n        /* \"#utility.yul\":13842:13876   */\n      tag_135\n      jump\t// in\n    tag_284:\n        /* \"#utility.yul\":13824:13877   */\n      tag_96\n      jump\t// in\n    tag_283:\n        /* \"#utility.yul\":13811:13877   */\n      swap1\n      pop\n        /* \"#utility.yul\":13741:13883   */\n      swap2\n      swap1\n      pop\n      jump\t// out\n        /* \"#utility.yul\":13889:13964   */\n    tag_137:\n        /* \"#utility.yul\":13932:13935   */\n      0x00\n        /* \"#utility.yul\":13953:13958   */\n      dup2\n        /* \"#utility.yul\":13946:13958   */\n      swap1\n      pop\n        /* \"#utility.yul\":13889:13964   */\n      swap2\n      swap1\n      pop\n      jump\t// out\n        /* \"#utility.yul\":13970:14239   */\n    tag_138:\n        /* \"#utility.yul\":14080:14119   */\n      tag_288\n        /* \"#utility.yul\":14111:14118   */\n      dup4\n        /* \"#utility.yul\":14080:14119   */\n      tag_136\n      jump\t// in\n    tag_288:\n        /* \"#utility.yul\":14141:14232   */\n      tag_289\n        /* \"#utility.yul\":14190:14231   */\n      tag_290\n        /* \"#utility.yul\":14214:14230   */\n      dup3\n        /* \"#utility.yul\":14190:14231   */\n      tag_137\n      jump\t// in\n    tag_290:\n        /* \"#utility.yul\":14182:14188   */\n      dup5\n        /* \"#utility.yul\":14175:14179   */\n      dup5\n        /* \"#utility.yul\":14169:14180   */\n      sload\n        /* \"#utility.yul\":14141:14232   */\n      tag_134\n      jump\t// in\n    tag_289:\n        /* \"#utility.yul\":14135:14139   */\n      dup3\n        /* \"#utility.yul\":14128:14233   */\n      sstore\n        /* \"#utility.yul\":14046:14239   */\n      pop\n        /* \"#utility.yul\":13970:14239   */\n      pop\n      pop\n      pop\n      jump\t// out\n        /* \"#utility.yul\":14245:14318   */\n    tag_139:\n        /* \"#utility.yul\":14290:14293   */\n      0x00\n        /* \"#utility.yul\":14245:14318   */\n      swap1\n      jump\t// out\n        /* \"#utility.yul\":14324:14513   */\n    tag_140:\n        /* \"#utility.yul\":14401:14433   */\n      tag_293\n      tag_139\n      jump\t// in\n    tag_293:\n        /* \"#utility.yul\":14442:14507   */\n      tag_294\n        /* \"#utility.yul\":14500:14506   */\n      dup2\n        /* \"#utility.yul\":14492:14498   */\n      dup5\n        /* \"#utility.yul\":14486:14490   */\n      dup5\n        /* \"#utility.yul\":14442:14507   */\n      tag_138\n      jump\t// in\n    tag_294:\n        /* \"#utility.yul\":14377:14513   */\n      pop\n        /* \"#utility.yul\":14324:14513   */\n      pop\n      pop\n      jump\t// out\n        /* \"#utility.yul\":14519:14705   */\n    tag_141:\n        /* \"#utility.yul\":14579:14699   */\n    tag_296:\n        /* \"#utility.yul\":14596:14599   */\n      dup2\n        /* \"#utility.yul\":14589:14594   */\n      dup2\n        /* \"#utility.yul\":14586:14600   */\n      lt\n        /* \"#utility.yul\":14579:14699   */\n      iszero\n      tag_298\n      jumpi\n        /* \"#utility.yul\":14650:14689   */\n      tag_299\n        /* \"#utility.yul\":14687:14688   */\n      0x00\n        /* \"#utility.yul\":14680:14685   */\n      dup3\n        /* \"#utility.yul\":14650:14689   */\n      tag_140\n      jump\t// in\n    tag_299:\n        /* \"#utility.yul\":14623:14624   */\n      0x01\n        /* \"#utility.yul\":14616:14621   */\n      dup2\n        /* \"#utility.yul\":14612:14625   */\n      add\n        /* \"#utility.yul\":14603:14625   */\n      swap1\n      pop\n        /* \"#utility.yul\":14579:14699   */\n      jump(tag_296)\n    tag_298:\n        /* \"#utility.yul\":14519:14705   */\n      pop\n      pop\n      jump\t// out\n        /* \"#utility.yul\":14711:15254   */\n    tag_142:\n        /* \"#utility.yul\":14812:14814   */\n      0x1f\n        /* \"#utility.yul\":14807:14810   */\n      dup3\n        /* \"#utility.yul\":14804:14815   */\n      gt\n        /* \"#utility.yul\":14801:15247   */\n      iszero\n      tag_301\n      jumpi\n        /* \"#utility.yul\":14846:14884   */\n      tag_302\n        /* \"#utility.yul\":14878:14883   */\n      dup2\n        /* \"#utility.yul\":14846:14884   */\n      tag_131\n      jump\t// in\n    tag_302:\n        /* \"#utility.yul\":14930:14959   */\n      tag_303\n        /* \"#utility.yul\":14948:14958   */\n      dup5\n        /* \"#utility.yul\":14930:14959   */\n      tag_132\n      jump\t// in\n    tag_303:\n        /* \"#utility.yul\":14920:14928   */\n      dup2\n        /* \"#utility.yul\":14916:14960   */\n      add\n        /* \"#utility.yul\":15113:15115   */\n      0x20\n        /* \"#utility.yul\":15101:15111   */\n      dup6\n        /* \"#utility.yul\":15098:15116   */\n      lt\n        /* \"#utility.yul\":15095:15144   */\n      iszero\n      tag_304\n      jumpi\n        /* \"#utility.yul\":15134:15142   */\n      dup2\n        /* \"#utility.yul\":15119:15142   */\n      swap1\n      pop\n        /* \"#utility.yul\":15095:15144   */\n    tag_304:\n        /* \"#utility.yul\":15157:15237   */\n      tag_305\n        /* \"#utility.yul\":15213:15235   */\n      tag_306\n        /* \"#utility.yul\":15231:15234   */\n      dup6\n        /* \"#utility.yul\":15213:15235   */\n      tag_132\n      jump\t// in\n    tag_306:\n        /* \"#utility.yul\":15203:15211   */\n      dup4\n        /* \"#utility.yul\":15199:15236   */\n      add\n        /* \"#utility.yul\":15186:15197   */\n      dup3\n        /* \"#utility.yul\":15157:15237   */\n      tag_141\n      jump\t// in\n    tag_305:\n        /* \"#utility.yul\":14816:15247   */\n      pop\n      pop\n        /* \"#utility.yul\":14801:15247   */\n    tag_301:\n        /* \"#utility.yul\":14711:15254   */\n      pop\n      pop\n      pop\n      jump\t// out\n        /* \"#utility.yul\":15260:15377   */\n    tag_143:\n        /* \"#utility.yul\":15314:15322   */\n      0x00\n        /* \"#utility.yul\":15364:15369   */\n      dup3\n        /* \"#utility.yul\":15358:15362   */\n      dup3\n        /* \"#utility.yul\":15354:15370   */\n      shr\n        /* \"#utility.yul\":15333:15370   */\n      swap1\n      pop\n        /* \"#utility.yul\":15260:15377   */\n      swap3\n      swap2\n      pop\n      pop\n      jump\t// out\n        /* \"#utility.yul\":15383:15552   */\n    tag_144:\n        /* \"#utility.yul\":15427:15433   */\n      0x00\n        /* \"#utility.yul\":15460:15511   */\n      tag_309\n        /* \"#utility.yul\":15508:15509   */\n      0x00\n        /* \"#utility.yul\":15504:15510   */\n      not\n        /* \"#utility.yul\":15496:15501   */\n      dup5\n        /* \"#utility.yul\":15493:15494   */\n      0x08\n        /* \"#utility.yul\":15489:15502   */\n      mul\n        /* \"#utility.yul\":15460:15511   */\n      tag_143\n      jump\t// in\n    tag_309:\n        /* \"#utility.yul\":15456:15512   */\n      not\n        /* \"#utility.yul\":15541:15545   */\n      dup1\n        /* \"#utility.yul\":15535:15539   */\n      dup4\n        /* \"#utility.yul\":15531:15546   */\n      and\n        /* \"#utility.yul\":15521:15546   */\n      swap2\n      pop\n        /* \"#utility.yul\":15434:15552   */\n      pop\n        /* \"#utility.yul\":15383:15552   */\n      swap3\n      swap2\n      pop\n      pop\n      jump\t// out\n        /* \"#utility.yul\":15557:15852   */\n    tag_145:\n        /* \"#utility.yul\":15633:15637   */\n      0x00\n        /* \"#utility.yul\":15779:15808   */\n      tag_311\n        /* \"#utility.yul\":15804:15807   */\n      dup4\n        /* \"#utility.yul\":15798:15802   */\n      dup4\n        /* \"#utility.yul\":15779:15808   */\n      tag_144\n      jump\t// in\n    tag_311:\n        /* \"#utility.yul\":15771:15808   */\n      swap2\n      pop\n        /* \"#utility.yul\":15841:15844   */\n      dup3\n        /* \"#utility.yul\":15838:15839   */\n      0x02\n        /* \"#utility.yul\":15834:15845   */\n      mul\n        /* \"#utility.yul\":15828:15832   */\n      dup3\n        /* \"#utility.yul\":15825:15846   */\n      or\n        /* \"#utility.yul\":15817:15846   */\n      swap1\n      pop\n        /* \"#utility.yul\":15557:15852   */\n      swap3\n      swap2\n      pop\n      pop\n      jump\t// out\n        /* \"#utility.yul\":15857:17252   */\n    tag_68:\n        /* \"#utility.yul\":15974:16011   */\n      tag_313\n        /* \"#utility.yul\":16007:16010   */\n      dup3\n        /* \"#utility.yul\":15974:16011   */\n      tag_103\n      jump\t// in\n    tag_313:\n        /* \"#utility.yul\":16076:16094   */\n      0xffffffffffffffff\n        /* \"#utility.yul\":16068:16074   */\n      dup2\n        /* \"#utility.yul\":16065:16095   */\n      gt\n        /* \"#utility.yul\":16062:16118   */\n      iszero\n      tag_314\n      jumpi\n        /* \"#utility.yul\":16098:16116   */\n      tag_315\n      tag_130\n      jump\t// in\n    tag_315:\n        /* \"#utility.yul\":16062:16118   */\n    tag_314:\n        /* \"#utility.yul\":16142:16180   */\n      tag_316\n        /* \"#utility.yul\":16174:16178   */\n      dup3\n        /* \"#utility.yul\":16168:16179   */\n      sload\n        /* \"#utility.yul\":16142:16180   */\n      tag_48\n      jump\t// in\n    tag_316:\n        /* \"#utility.yul\":16227:16294   */\n      tag_317\n        /* \"#utility.yul\":16287:16293   */\n      dup3\n        /* \"#utility.yul\":16279:16285   */\n      dup3\n        /* \"#utility.yul\":16273:16277   */\n      dup6\n        /* \"#utility.yul\":16227:16294   */\n      tag_142\n      jump\t// in\n    tag_317:\n        /* \"#utility.yul\":16321:16322   */\n      0x00\n        /* \"#utility.yul\":16345:16349   */\n      0x20\n        /* \"#utility.yul\":16332:16349   */\n      swap1\n      pop\n        /* \"#utility.yul\":16377:16379   */\n      0x1f\n        /* \"#utility.yul\":16369:16375   */\n      dup4\n        /* \"#utility.yul\":16366:16380   */\n      gt\n        /* \"#utility.yul\":16394:16395   */\n      0x01\n        /* \"#utility.yul\":16389:17007   */\n      dup2\n      eq\n      tag_319\n      jumpi\n        /* \"#utility.yul\":17051:17052   */\n      0x00\n        /* \"#utility.yul\":17068:17074   */\n      dup5\n        /* \"#utility.yul\":17065:17142   */\n      iszero\n      tag_320\n      jumpi\n        /* \"#utility.yul\":17117:17126   */\n      dup3\n        /* \"#utility.yul\":17112:17115   */\n      dup8\n        /* \"#utility.yul\":17108:17127   */\n      add\n        /* \"#utility.yul\":17102:17128   */\n      mload\n        /* \"#utility.yul\":17093:17128   */\n      swap1\n      pop\n        /* \"#utility.yul\":17065:17142   */\n    tag_320:\n        /* \"#utility.yul\":17168:17235   */\n      tag_321\n        /* \"#utility.yul\":17228:17234   */\n      dup6\n        /* \"#utility.yul\":17221:17226   */\n      dup3\n        /* \"#utility.yul\":17168:17235   */\n      tag_145\n      jump\t// in\n    tag_321:\n        /* \"#utility.yul\":17162:17166   */\n      dup7\n        /* \"#utility.yul\":17155:17236   */\n      sstore\n        /* \"#utility.yul\":17024:17246   */\n      pop\n        /* \"#utility.yul\":16359:17246   */\n      jump(tag_318)\n        /* \"#utility.yul\":16389:17007   */\n    tag_319:\n        /* \"#utility.yul\":16441:16445   */\n      0x1f\n        /* \"#utility.yul\":16437:16446   */\n      not\n        /* \"#utility.yul\":16429:16435   */\n      dup5\n        /* \"#utility.yul\":16425:16447   */\n      and\n        /* \"#utility.yul\":16475:16512   */\n      tag_322\n        /* \"#utility.yul\":16507:16511   */\n      dup7\n        /* \"#utility.yul\":16475:16512   */\n      tag_131\n      jump\t// in\n    tag_322:\n        /* \"#utility.yul\":16534:16535   */\n      0x00\n        /* \"#utility.yul\":16548:16756   */\n    tag_323:\n        /* \"#utility.yul\":16562:16569   */\n      dup3\n        /* \"#utility.yul\":16559:16560   */\n      dup2\n        /* \"#utility.yul\":16556:16570   */\n      lt\n        /* \"#utility.yul\":16548:16756   */\n      iszero\n      tag_325\n      jumpi\n        /* \"#utility.yul\":16641:16650   */\n      dup5\n        /* \"#utility.yul\":16636:16639   */\n      dup10\n        /* \"#utility.yul\":16632:16651   */\n      add\n        /* \"#utility.yul\":16626:16652   */\n      mload\n        /* \"#utility.yul\":16618:16624   */\n      dup3\n        /* \"#utility.yul\":16611:16653   */\n      sstore\n        /* \"#utility.yul\":16692:16693   */\n      0x01\n        /* \"#utility.yul\":16684:16690   */\n      dup3\n        /* \"#utility.yul\":16680:16694   */\n      add\n        /* \"#utility.yul\":16670:16694   */\n      swap2\n      pop\n        /* \"#utility.yul\":16739:16741   */\n      0x20\n        /* \"#utility.yul\":16728:16737   */\n      dup6\n        /* \"#utility.yul\":16724:16742   */\n      add\n        /* \"#utility.yul\":16711:16742   */\n      swap5\n      pop\n        /* \"#utility.yul\":16585:16589   */\n      0x20\n        /* \"#utility.yul\":16582:16583   */\n      dup2\n        /* \"#utility.yul\":16578:16590   */\n      add\n        /* \"#utility.yul\":16573:16590   */\n      swap1\n      pop\n        /* \"#utility.yul\":16548:16756   */\n      jump(tag_323)\n    tag_325:\n        /* \"#utility.yul\":16784:16790   */\n      dup7\n        /* \"#utility.yul\":16775:16782   */\n      dup4\n        /* \"#utility.yul\":16772:16791   */\n      lt\n        /* \"#utility.yul\":16769:16948   */\n      iszero\n      tag_326\n      jumpi\n        /* \"#utility.yul\":16842:16851   */\n      dup5\n        /* \"#utility.yul\":16837:16840   */\n      dup10\n        /* \"#utility.yul\":16833:16852   */\n      add\n        /* \"#utility.yul\":16827:16853   */\n      mload\n        /* \"#utility.yul\":16885:16933   */\n      tag_327\n        /* \"#utility.yul\":16927:16931   */\n      0x1f\n        /* \"#utility.yul\":16919:16925   */\n      dup10\n        /* \"#utility.yul\":16915:16932   */\n      and\n        /* \"#utility.yul\":16904:16913   */\n      dup3\n        /* \"#utility.yul\":16885:16933   */\n      tag_144\n      jump\t// in\n    tag_327:\n        /* \"#utility.yul\":16877:16883   */\n      dup4\n        /* \"#utility.yul\":16870:16934   */\n      sstore\n        /* \"#utility.yul\":16792:16948   */\n      pop\n        /* \"#utility.yul\":16769:16948   */\n    tag_326:\n        /* \"#utility.yul\":16994:16995   */\n      0x01\n        /* \"#utility.yul\":16990:16991   */\n      0x02\n        /* \"#utility.yul\":16982:16988   */\n      dup9\n        /* \"#utility.yul\":16978:16992   */\n      mul\n        /* \"#utility.yul\":16974:16996   */\n      add\n        /* \"#utility.yul\":16968:16972   */\n      dup9\n        /* \"#utility.yul\":16961:16997   */\n      sstore\n        /* \"#utility.yul\":16396:17007   */\n      pop\n      pop\n      pop\n        /* \"#utility.yul\":16359:17246   */\n    tag_318:\n      pop\n        /* \"#utility.yul\":15949:17252   */\n      pop\n      pop\n      pop\n        /* \"#utility.yul\":15857:17252   */\n      pop\n      pop\n      jump\t// out\n        /* \"#utility.yul\":17258:17404   */\n    tag_146:\n        /* \"#utility.yul\":17355:17361   */\n      dup3\n        /* \"#utility.yul\":17350:17353   */\n      dup2\n        /* \"#utility.yul\":17345:17348   */\n      dup4\n        /* \"#utility.yul\":17332:17362   */\n      calldatacopy\n        /* \"#utility.yul\":17396:17397   */\n      0x00\n        /* \"#utility.yul\":17387:17393   */\n      dup4\n        /* \"#utility.yul\":17382:17385   */\n      dup4\n        /* \"#utility.yul\":17378:17394   */\n      add\n        /* \"#utility.yul\":17371:17398   */\n      mstore\n        /* \"#utility.yul\":17258:17404   */\n      pop\n      pop\n      pop\n      jump\t// out\n        /* \"#utility.yul\":17434:17751   */\n    tag_147:\n        /* \"#utility.yul\":17532:17535   */\n      0x00\n        /* \"#utility.yul\":17553:17624   */\n      tag_330\n        /* \"#utility.yul\":17617:17623   */\n      dup4\n        /* \"#utility.yul\":17612:17615   */\n      dup6\n        /* \"#utility.yul\":17553:17624   */\n      tag_104\n      jump\t// in\n    tag_330:\n        /* \"#utility.yul\":17546:17624   */\n      swap4\n      pop\n        /* \"#utility.yul\":17634:17690   */\n      tag_331\n        /* \"#utility.yul\":17683:17689   */\n      dup4\n        /* \"#utility.yul\":17678:17681   */\n      dup6\n        /* \"#utility.yul\":17671:17676   */\n      dup5\n        /* \"#utility.yul\":17634:17690   */\n      tag_146\n      jump\t// in\n    tag_331:\n        /* \"#utility.yul\":17715:17744   */\n      tag_332\n        /* \"#utility.yul\":17737:17743   */\n      dup4\n        /* \"#utility.yul\":17715:17744   */\n      tag_106\n      jump\t// in\n    tag_332:\n        /* \"#utility.yul\":17710:17713   */\n      dup5\n        /* \"#utility.yul\":17706:17745   */\n      add\n        /* \"#utility.yul\":17699:17745   */\n      swap1\n      pop\n        /* \"#utility.yul\":17434:17751   */\n      swap4\n      swap3\n      pop\n      pop\n      pop\n      jump\t// out\n        /* \"#utility.yul\":17757:18090   */\n    tag_70:\n        /* \"#utility.yul\":17880:17884   */\n      0x00\n        /* \"#utility.yul\":17918:17920   */\n      0x20\n        /* \"#utility.yul\":17907:17916   */\n      dup3\n        /* \"#utility.yul\":17903:17921   */\n      add\n        /* \"#utility.yul\":17895:17921   */\n      swap1\n      pop\n        /* \"#utility.yul\":17967:17976   */\n      dup2\n        /* \"#utility.yul\":17961:17965   */\n      dup2\n        /* \"#utility.yul\":17957:17977   */\n      sub\n        /* \"#utility.yul\":17953:17954   */\n      0x00\n        /* \"#utility.yul\":17942:17951   */\n      dup4\n        /* \"#utility.yul\":17938:17955   */\n      add\n        /* \"#utility.yul\":17931:17978   */\n      mstore\n        /* \"#utility.yul\":17995:18083   */\n      tag_334\n        /* \"#utility.yul\":18078:18082   */\n      dup2\n        /* \"#utility.yul\":18069:18075   */\n      dup5\n        /* \"#utility.yul\":18061:18067   */\n      dup7\n        /* \"#utility.yul\":17995:18083   */\n      tag_147\n      jump\t// in\n    tag_334:\n        /* \"#utility.yul\":17987:18083   */\n      swap1\n      pop\n        /* \"#utility.yul\":17757:18090   */\n      swap4\n      swap3\n      pop\n      pop\n      pop\n      jump\t// out\n        /* \"#utility.yul\":18096:18264   */\n    tag_148:\n        /* \"#utility.yul\":18236:18256   */\n      0x4e6f7420636f6e7472616374206f776e65720000000000000000000000000000\n        /* \"#utility.yul\":18232:18233   */\n      0x00\n        /* \"#utility.yul\":18224:18230   */\n      dup3\n        /* \"#utility.yul\":18220:18234   */\n      add\n        /* \"#utility.yul\":18213:18257   */\n      mstore\n        /* \"#utility.yul\":18096:18264   */\n      pop\n      jump\t// out\n        /* \"#utility.yul\":18270:18636   */\n    tag_149:\n        /* \"#utility.yul\":18412:18415   */\n      0x00\n        /* \"#utility.yul\":18433:18500   */\n      tag_337\n        /* \"#utility.yul\":18497:18499   */\n      0x12\n        /* \"#utility.yul\":18492:18495   */\n      dup4\n        /* \"#utility.yul\":18433:18500   */\n      tag_104\n      jump\t// in\n    tag_337:\n        /* \"#utility.yul\":18426:18500   */\n      swap2\n      pop\n        /* \"#utility.yul\":18509:18602   */\n      tag_338\n        /* \"#utility.yul\":18598:18601   */\n      dup3\n        /* \"#utility.yul\":18509:18602   */\n      tag_148\n      jump\t// in\n    tag_338:\n        /* \"#utility.yul\":18627:18629   */\n      0x20\n        /* \"#utility.yul\":18622:18625   */\n      dup3\n        /* \"#utility.yul\":18618:18630   */\n      add\n        /* \"#utility.yul\":18611:18630   */\n      swap1\n      pop\n        /* \"#utility.yul\":18270:18636   */\n      swap2\n      swap1\n      pop\n      jump\t// out\n        /* \"#utility.yul\":18642:19061   */\n    tag_75:\n        /* \"#utility.yul\":18808:18812   */\n      0x00\n        /* \"#utility.yul\":18846:18848   */\n      0x20\n        /* \"#utility.yul\":18835:18844   */\n      dup3\n        /* \"#utility.yul\":18831:18849   */\n      add\n        /* \"#utility.yul\":18823:18849   */\n      swap1\n      pop\n        /* \"#utility.yul\":18895:18904   */\n      dup2\n        /* \"#utility.yul\":18889:18893   */\n      dup2\n        /* \"#utility.yul\":18885:18905   */\n      sub\n        /* \"#utility.yul\":18881:18882   */\n      0x00\n        /* \"#utility.yul\":18870:18879   */\n      dup4\n        /* \"#utility.yul\":18866:18883   */\n      add\n        /* \"#utility.yul\":18859:18906   */\n      mstore\n        /* \"#utility.yul\":18923:19054   */\n      tag_340\n        /* \"#utility.yul\":19049:19053   */\n      dup2\n        /* \"#utility.yul\":18923:19054   */\n      tag_149\n      jump\t// in\n    tag_340:\n        /* \"#utility.yul\":18915:19054   */\n      swap1\n      pop\n        /* \"#utility.yul\":18642:19061   */\n      swap2\n      swap1\n      pop\n      jump\t// out\n        /* \"#utility.yul\":19067:19240   */\n    tag_150:\n        /* \"#utility.yul\":19207:19232   */\n      0x50726f706f73616c20646f6573206e6f74206578697374000000000000000000\n        /* \"#utility.yul\":19203:19204   */\n      0x00\n        /* \"#utility.yul\":19195:19201   */\n      dup3\n        /* \"#utility.yul\":19191:19205   */\n      add\n        /* \"#utility.yul\":19184:19233   */\n      mstore\n        /* \"#utility.yul\":19067:19240   */\n      pop\n      jump\t// out\n        /* \"#utility.yul\":19246:19612   */\n    tag_151:\n        /* \"#utility.yul\":19388:19391   */\n      0x00\n        /* \"#utility.yul\":19409:19476   */\n      tag_343\n        /* \"#utility.yul\":19473:19475   */\n      0x17\n        /* \"#utility.yul\":19468:19471   */\n      dup4\n        /* \"#utility.yul\":19409:19476   */\n      tag_104\n      jump\t// in\n    tag_343:\n        /* \"#utility.yul\":19402:19476   */\n      swap2\n      pop\n        /* \"#utility.yul\":19485:19578   */\n      tag_344\n        /* \"#utility.yul\":19574:19577   */\n      dup3\n        /* \"#utility.yul\":19485:19578   */\n      tag_150\n      jump\t// in\n    tag_344:\n        /* \"#utility.yul\":19603:19605   */\n      0x20\n        /* \"#utility.yul\":19598:19601   */\n      dup3\n        /* \"#utility.yul\":19594:19606   */\n      add\n        /* \"#utility.yul\":19587:19606   */\n      swap1\n      pop\n        /* \"#utility.yul\":19246:19612   */\n      swap2\n      swap1\n      pop\n      jump\t// out\n        /* \"#utility.yul\":19618:20037   */\n    tag_87:\n        /* \"#utility.yul\":19784:19788   */\n      0x00\n        /* \"#utility.yul\":19822:19824   */\n      0x20\n        /* \"#utility.yul\":19811:19820   */\n      dup3\n        /* \"#utility.yul\":19807:19825   */\n      add\n        /* \"#utility.yul\":19799:19825   */\n      swap1\n      pop\n        /* \"#utility.yul\":19871:19880   */\n      dup2\n        /* \"#utility.yul\":19865:19869   */\n      dup2\n        /* \"#utility.yul\":19861:19881   */\n      sub\n        /* \"#utility.yul\":19857:19858   */\n      0x00\n        /* \"#utility.yul\":19846:19855   */\n      dup4\n        /* \"#utility.yul\":19842:19859   */\n      add\n        /* \"#utility.yul\":19835:19882   */\n      mstore\n        /* \"#utility.yul\":19899:20030   */\n      tag_346\n        /* \"#utility.yul\":20025:20029   */\n      dup2\n        /* \"#utility.yul\":19899:20030   */\n      tag_151\n      jump\t// in\n    tag_346:\n        /* \"#utility.yul\":19891:20030   */\n      swap1\n      pop\n        /* \"#utility.yul\":19618:20037   */\n      swap2\n      swap1\n      pop\n      jump\t// out\n\n    auxdata: 0xa26469706673582212206915b999e30b3a893f8187d3bfd0631aaa79d1d92e8ae0cfc1c1f63212c5c9d064736f6c63430008130033\n}\n",
				"bytecode": {
					"linkReferences": {},
					"object": "608060405234801561001057600080fd5b50336000806101000a81548173ffffffffffffffffffffffffffffffffffffffff021916908373ffffffffffffffffffffffffffffffffffffffff1602179055506114b1806100606000396000f3fe608060405234801561001057600080fd5b50600436106100885760003560e01c80635652077c1161005b5780635652077c146101295780638da5cb5b14610145578063c7f758a814610163578063da35c6641461019357610088565b8063013cf08b1461008d578063045c6ce0146100c1578063373d6d5e146100dd57806342545825146100f9575b600080fd5b6100a760048036038101906100a29190610a7b565b6101b1565b6040516100b8959493929190610ba3565b60405180910390f35b6100db60048036038101906100d69190610a7b565b61029c565b005b6100f760048036038101906100f29190610c62565b6104df565b005b610113600480360381019061010e9190610cdb565b61067e565b6040516101209190610d1b565b60405180910390f35b610143600480360381019061013e9190610a7b565b6106ad565b005b61014d610842565b60405161015a9190610d36565b60405180910390f35b61017d60048036038101906101789190610a7b565b610866565b60405161018a9190610e3e565b60405180910390f35b61019b6109ee565b6040516101a89190610e60565b60405180910390f35b60026020528060005260406000206000915090508060000154908060010160009054906101000a900473ffffffffffffffffffffffffffffffffffffffff169080600201805461020090610eaa565b80601f016020809104026020016040519081016040528092919081815260200182805461022c90610eaa565b80156102795780601f1061024e57610100808354040283529160200191610279565b820191906000526020600020905b81548152906001019060200180831161025c57829003601f168201915b5050505050908060030154908060040160009054906101000a900460ff16905085565b60015481106102e0576040517f08c379a00000000000000000000000000000000000000000000000000000000081526004016102d790610f27565b60405180910390fd5b600360003373ffffffffffffffffffffffffffffffffffffffff1673ffffffffffffffffffffffffffffffffffffffff168152602001908152602001600020600082815260200190815260200160002060009054906101000a900460ff161561037e576040517f08c379a000000000000000000000000000000000000000000000000000000000815260040161037590610f93565b60405180910390fd5b6002600082815260200190815260200160002060040160009054906101000a900460ff16156103e2576040517f08c379a00000000000000000000000000000000000000000000000000000000081526004016103d990610fff565b60405180910390fd5b6002600082815260200190815260200160002060030160008154809291906104099061104e565b91905055506001600360003373ffffffffffffffffffffffffffffffffffffffff1673ffffffffffffffffffffffffffffffffffffffff168152602001908152602001600020600083815260200190815260200160002060006101000a81548160ff0219169083151502179055503373ffffffffffffffffffffffffffffffffffffffff16817f12602b81b4b3a6bc77534c571e8af3d316246bc5e5bea24efdf512ff6715da1560026000858152602001908152602001600020600301546040516104d49190610e60565b60405180910390a350565b6040518060a0016040528060015481526020013373ffffffffffffffffffffffffffffffffffffffff16815260200183838080601f016020809104026020016040519081016040528093929190818152602001838380828437600081840152601f19601f82011690508083019250505050505050815260200160008152602001600015158152506002600060015481526020019081526020016000206000820151816000015560208201518160010160006101000a81548173ffffffffffffffffffffffffffffffffffffffff021916908373ffffffffffffffffffffffffffffffffffffffff16021790555060408201518160020190816105e19190611271565b506060820151816003015560808201518160040160006101000a81548160ff0219169083151502179055509050503373ffffffffffffffffffffffffffffffffffffffff166001547fba63161e1c7e096aaf63cb63b137eeea26b870df0007c6e2ad029bae55d65179848460405161065a92919061137f565b60405180910390a3600160008154809291906106759061104e565b91905055505050565b60036020528160005260406000206020528060005260406000206000915091509054906101000a900460ff1681565b60008054906101000a900473ffffffffffffffffffffffffffffffffffffffff1673ffffffffffffffffffffffffffffffffffffffff163373ffffffffffffffffffffffffffffffffffffffff161461073b576040517f08c379a0000000000000000000000000000000000000000000000000000000008152600401610732906113ef565b60405180910390fd5b600154811061077f576040517f08c379a000000000000000000000000000000000000000000000000000000000815260040161077690610f27565b60405180910390fd5b60006002600083815260200190815260200160002090508060040160009054906101000a900460ff16156107e8576040517f08c379a00000000000000000000000000000000000000000000000000000000081526004016107df90610fff565b60405180910390fd5b60018160040160006101000a81548160ff021916908315150217905550817fb5ac567fcf1b069e0235e4f16734625c6cf54c1b40517fd9eb85517f6e1265a760016040516108369190610d1b565b60405180910390a25050565b60008054906101000a900473ffffffffffffffffffffffffffffffffffffffff1681565b61086e6109f4565b60015482106108b2576040517f08c379a00000000000000000000000000000000000000000000000000000000081526004016108a99061145b565b60405180910390fd5b600260008381526020019081526020016000206040518060a0016040529081600082015481526020016001820160009054906101000a900473ffffffffffffffffffffffffffffffffffffffff1673ffffffffffffffffffffffffffffffffffffffff1673ffffffffffffffffffffffffffffffffffffffff16815260200160028201805461094090610eaa565b80601f016020809104026020016040519081016040528092919081815260200182805461096c90610eaa565b80156109b95780601f1061098e576101008083540402835291602001916109b9565b820191906000526020600020905b81548152906001019060200180831161099c57829003601f168201915b50505050508152602001600382015481526020016004820160009054906101000a900460ff1615151515815250509050919050565b60015481565b6040518060a0016040528060008152602001600073ffffffffffffffffffffffffffffffffffffffff16815260200160608152602001600081526020016000151581525090565b600080fd5b600080fd5b6000819050919050565b610a5881610a45565b8114610a6357600080fd5b50565b600081359050610a7581610a4f565b92915050565b600060208284031215610a9157610a90610a3b565b5b6000610a9f84828501610a66565b91505092915050565b610ab181610a45565b82525050565b600073ffffffffffffffffffffffffffffffffffffffff82169050919050565b6000610ae282610ab7565b9050919050565b610af281610ad7565b82525050565b600081519050919050565b600082825260208201905092915050565b60005b83811015610b32578082015181840152602081019050610b17565b60008484015250505050565b6000601f19601f8301169050919050565b6000610b5a82610af8565b610b648185610b03565b9350610b74818560208601610b14565b610b7d81610b3e565b840191505092915050565b60008115159050919050565b610b9d81610b88565b82525050565b600060a082019050610bb86000830188610aa8565b610bc56020830187610ae9565b8181036040830152610bd78186610b4f565b9050610be66060830185610aa8565b610bf36080830184610b94565b9695505050505050565b600080fd5b600080fd5b600080fd5b60008083601f840112610c2257610c21610bfd565b5b8235905067ffffffffffffffff811115610c3f57610c3e610c02565b5b602083019150836001820283011115610c5b57610c5a610c07565b5b9250929050565b60008060208385031215610c7957610c78610a3b565b5b600083013567ffffffffffffffff811115610c9757610c96610a40565b5b610ca385828601610c0c565b92509250509250929050565b610cb881610ad7565b8114610cc357600080fd5b50565b600081359050610cd581610caf565b92915050565b60008060408385031215610cf257610cf1610a3b565b5b6000610d0085828601610cc6565b9250506020610d1185828601610a66565b9150509250929050565b6000602082019050610d306000830184610b94565b92915050565b6000602082019050610d4b6000830184610ae9565b92915050565b610d5a81610a45565b82525050565b610d6981610ad7565b82525050565b600082825260208201905092915050565b6000610d8b82610af8565b610d958185610d6f565b9350610da5818560208601610b14565b610dae81610b3e565b840191505092915050565b610dc281610b88565b82525050565b600060a083016000830151610de06000860182610d51565b506020830151610df36020860182610d60565b5060408301518482036040860152610e0b8282610d80565b9150506060830151610e206060860182610d51565b506080830151610e336080860182610db9565b508091505092915050565b60006020820190508181036000830152610e588184610dc8565b905092915050565b6000602082019050610e756000830184610aa8565b92915050565b7f4e487b7100000000000000000000000000000000000000000000000000000000600052602260045260246000fd5b60006002820490506001821680610ec257607f821691505b602082108103610ed557610ed4610e7b565b5b50919050565b7f496e76616c69642070726f706f73616c20494400000000000000000000000000600082015250565b6000610f11601383610b03565b9150610f1c82610edb565b602082019050919050565b60006020820190508181036000830152610f4081610f04565b9050919050565b7f416c726561647920766f74656420666f7220746869732070726f706f73616c00600082015250565b6000610f7d601f83610b03565b9150610f8882610f47565b602082019050919050565b60006020820190508181036000830152610fac81610f70565b9050919050565b7f50726f706f73616c20616c72656164792066696e616c697a6564000000000000600082015250565b6000610fe9601a83610b03565b9150610ff482610fb3565b602082019050919050565b6000602082019050818103600083015261101881610fdc565b9050919050565b7f4e487b7100000000000000000000000000000000000000000000000000000000600052601160045260246000fd5b600061105982610a45565b91507fffffffffffffffffffffffffffffffffffffffffffffffffffffffffffffffff820361108b5761108a61101f565b5b600182019050919050565b7f4e487b7100000000000000000000000000000000000000000000000000000000600052604160045260246000fd5b60008190508160005260206000209050919050565b60006020601f8301049050919050565b600082821b905092915050565b6000600883026111277fffffffffffffffffffffffffffffffffffffffffffffffffffffffffffffffff826110ea565b61113186836110ea565b95508019841693508086168417925050509392505050565b6000819050919050565b600061116e61116961116484610a45565b611149565b610a45565b9050919050565b6000819050919050565b61118883611153565b61119c61119482611175565b8484546110f7565b825550505050565b600090565b6111b16111a4565b6111bc81848461117f565b505050565b5b818110156111e0576111d56000826111a9565b6001810190506111c2565b5050565b601f821115611225576111f6816110c5565b6111ff846110da565b8101602085101561120e578190505b61122261121a856110da565b8301826111c1565b50505b505050565b600082821c905092915050565b60006112486000198460080261122a565b1980831691505092915050565b60006112618383611237565b9150826002028217905092915050565b61127a82610af8565b67ffffffffffffffff81111561129357611292611096565b5b61129d8254610eaa565b6112a88282856111e4565b600060209050601f8311600181146112db57600084156112c9578287015190505b6112d38582611255565b86555061133b565b601f1984166112e9866110c5565b60005b82811015611311578489015182556001820191506020850194506020810190506112ec565b8683101561132e578489015161132a601f891682611237565b8355505b6001600288020188555050505b505050505050565b82818337600083830152505050565b600061135e8385610b03565b935061136b838584611343565b61137483610b3e565b840190509392505050565b6000602082019050818103600083015261139a818486611352565b90509392505050565b7f4e6f7420636f6e7472616374206f776e65720000000000000000000000000000600082015250565b60006113d9601283610b03565b91506113e4826113a3565b602082019050919050565b60006020820190508181036000830152611408816113cc565b9050919050565b7f50726f706f73616c20646f6573206e6f74206578697374000000000000000000600082015250565b6000611445601783610b03565b91506114508261140f565b602082019050919050565b6000602082019050818103600083015261147481611438565b905091905056fea26469706673582212206915b999e30b3a893f8187d3bfd0631aaa79d1d92e8ae0cfc1c1f63212c5c9d064736f6c63430008130033",
					"opcodes": "PUSH1 0x80 PUSH1 0x40 MSTORE CALLVALUE DUP1 ISZERO PUSH2 0x10 JUMPI PUSH1 0x0 DUP1 REVERT JUMPDEST POP CALLER PUSH1 0x0 DUP1 PUSH2 0x100 EXP DUP2 SLOAD DUP2 PUSH20 0xFFFFFFFFFFFFFFFFFFFFFFFFFFFFFFFFFFFFFFFF MUL NOT AND SWAP1 DUP4 PUSH20 0xFFFFFFFFFFFFFFFFFFFFFFFFFFFFFFFFFFFFFFFF AND MUL OR SWAP1 SSTORE POP PUSH2 0x14B1 DUP1 PUSH2 0x60 PUSH1 0x0 CODECOPY PUSH1 0x0 RETURN INVALID PUSH1 0x80 PUSH1 0x40 MSTORE CALLVALUE DUP1 ISZERO PUSH2 0x10 JUMPI PUSH1 0x0 DUP1 REVERT JUMPDEST POP PUSH1 0x4 CALLDATASIZE LT PUSH2 0x88 JUMPI PUSH1 0x0 CALLDATALOAD PUSH1 0xE0 SHR DUP1 PUSH4 0x5652077C GT PUSH2 0x5B JUMPI DUP1 PUSH4 0x5652077C EQ PUSH2 0x129 JUMPI DUP1 PUSH4 0x8DA5CB5B EQ PUSH2 0x145 JUMPI DUP1 PUSH4 0xC7F758A8 EQ PUSH2 0x163 JUMPI DUP1 PUSH4 0xDA35C664 EQ PUSH2 0x193 JUMPI PUSH2 0x88 JUMP JUMPDEST DUP1 PUSH4 0x13CF08B EQ PUSH2 0x8D JUMPI DUP1 PUSH4 0x45C6CE0 EQ PUSH2 0xC1 JUMPI DUP1 PUSH4 0x373D6D5E EQ PUSH2 0xDD JUMPI DUP1 PUSH4 0x42545825 EQ PUSH2 0xF9 JUMPI JUMPDEST PUSH1 0x0 DUP1 REVERT JUMPDEST PUSH2 0xA7 PUSH1 0x4 DUP1 CALLDATASIZE SUB DUP2 ADD SWAP1 PUSH2 0xA2 SWAP2 SWAP1 PUSH2 0xA7B JUMP JUMPDEST PUSH2 0x1B1 JUMP JUMPDEST PUSH1 0x40 MLOAD PUSH2 0xB8 SWAP6 SWAP5 SWAP4 SWAP3 SWAP2 SWAP1 PUSH2 0xBA3 JUMP JUMPDEST PUSH1 0x40 MLOAD DUP1 SWAP2 SUB SWAP1 RETURN JUMPDEST PUSH2 0xDB PUSH1 0x4 DUP1 CALLDATASIZE SUB DUP2 ADD SWAP1 PUSH2 0xD6 SWAP2 SWAP1 PUSH2 0xA7B JUMP JUMPDEST PUSH2 0x29C JUMP JUMPDEST STOP JUMPDEST PUSH2 0xF7 PUSH1 0x4 DUP1 CALLDATASIZE SUB DUP2 ADD SWAP1 PUSH2 0xF2 SWAP2 SWAP1 PUSH2 0xC62 JUMP JUMPDEST PUSH2 0x4DF JUMP JUMPDEST STOP JUMPDEST PUSH2 0x113 PUSH1 0x4 DUP1 CALLDATASIZE SUB DUP2 ADD SWAP1 PUSH2 0x10E SWAP2 SWAP1 PUSH2 0xCDB JUMP JUMPDEST PUSH2 0x67E JUMP JUMPDEST PUSH1 0x40 MLOAD PUSH2 0x120 SWAP2 SWAP1 PUSH2 0xD1B JUMP JUMPDEST PUSH1 0x40 MLOAD DUP1 SWAP2 SUB SWAP1 RETURN JUMPDEST PUSH2 0x143 PUSH1 0x4 DUP1 CALLDATASIZE SUB DUP2 ADD SWAP1 PUSH2 0x13E SWAP2 SWAP1 PUSH2 0xA7B JUMP JUMPDEST PUSH2 0x6AD JUMP JUMPDEST STOP JUMPDEST PUSH2 0x14D PUSH2 0x842 JUMP JUMPDEST PUSH1 0x40 MLOAD PUSH2 0x15A SWAP2 SWAP1 PUSH2 0xD36 JUMP JUMPDEST PUSH1 0x40 MLOAD DUP1 SWAP2 SUB SWAP1 RETURN JUMPDEST PUSH2 0x17D PUSH1 0x4 DUP1 CALLDATASIZE SUB DUP2 ADD SWAP1 PUSH2 0x178 SWAP2 SWAP1 PUSH2 0xA7B JUMP JUMPDEST PUSH2 0x866 JUMP JUMPDEST PUSH1 0x40 MLOAD PUSH2 0x18A SWAP2 SWAP1 PUSH2 0xE3E JUMP JUMPDEST PUSH1 0x40 MLOAD DUP1 SWAP2 SUB SWAP1 RETURN JUMPDEST PUSH2 0x19B PUSH2 0x9EE JUMP JUMPDEST PUSH1 0x40 MLOAD PUSH2 0x1A8 SWAP2 SWAP1 PUSH2 0xE60 JUMP JUMPDEST PUSH1 0x40 MLOAD DUP1 SWAP2 SUB SWAP1 RETURN JUMPDEST PUSH1 0x2 PUSH1 0x20 MSTORE DUP1 PUSH1 0x0 MSTORE PUSH1 0x40 PUSH1 0x0 KECCAK256 PUSH1 0x0 SWAP2 POP SWAP1 POP DUP1 PUSH1 0x0 ADD SLOAD SWAP1 DUP1 PUSH1 0x1 ADD PUSH1 0x0 SWAP1 SLOAD SWAP1 PUSH2 0x100 EXP SWAP1 DIV PUSH20 0xFFFFFFFFFFFFFFFFFFFFFFFFFFFFFFFFFFFFFFFF AND SWAP1 DUP1 PUSH1 0x2 ADD DUP1 SLOAD PUSH2 0x200 SWAP1 PUSH2 0xEAA JUMP JUMPDEST DUP1 PUSH1 0x1F ADD PUSH1 0x20 DUP1 SWAP2 DIV MUL PUSH1 0x20 ADD PUSH1 0x40 MLOAD SWAP1 DUP2 ADD PUSH1 0x40 MSTORE DUP1 SWAP3 SWAP2 SWAP1 DUP2 DUP2 MSTORE PUSH1 0x20 ADD DUP3 DUP1 SLOAD PUSH2 0x22C SWAP1 PUSH2 0xEAA JUMP JUMPDEST DUP1 ISZERO PUSH2 0x279 JUMPI DUP1 PUSH1 0x1F LT PUSH2 0x24E JUMPI PUSH2 0x100 DUP1 DUP4 SLOAD DIV MUL DUP4 MSTORE SWAP2 PUSH1 0x20 ADD SWAP2 PUSH2 0x279 JUMP JUMPDEST DUP3 ADD SWAP2 SWAP1 PUSH1 0x0 MSTORE PUSH1 0x20 PUSH1 0x0 KECCAK256 SWAP1 JUMPDEST DUP2 SLOAD DUP2 MSTORE SWAP1 PUSH1 0x1 ADD SWAP1 PUSH1 0x20 ADD DUP1 DUP4 GT PUSH2 0x25C JUMPI DUP3 SWAP1 SUB PUSH1 0x1F AND DUP3 ADD SWAP2 JUMPDEST POP POP POP POP POP SWAP1 DUP1 PUSH1 0x3 ADD SLOAD SWAP1 DUP1 PUSH1 0x4 ADD PUSH1 0x0 SWAP1 SLOAD SWAP1 PUSH2 0x100 EXP SWAP1 DIV PUSH1 0xFF AND SWAP1 POP DUP6 JUMP JUMPDEST PUSH1 0x1 SLOAD DUP2 LT PUSH2 0x2E0 JUMPI PUSH1 0x40 MLOAD PUSH32 0x8C379A000000000000000000000000000000000000000000000000000000000 DUP2 MSTORE PUSH1 0x4 ADD PUSH2 0x2D7 SWAP1 PUSH2 0xF27 JUMP JUMPDEST PUSH1 0x40 MLOAD DUP1 SWAP2 SUB SWAP1 REVERT JUMPDEST PUSH1 0x3 PUSH1 0x0 CALLER PUSH20 0xFFFFFFFFFFFFFFFFFFFFFFFFFFFFFFFFFFFFFFFF AND PUSH20 0xFFFFFFFFFFFFFFFFFFFFFFFFFFFFFFFFFFFFFFFF AND DUP2 MSTORE PUSH1 0x20 ADD SWAP1 DUP2 MSTORE PUSH1 0x20 ADD PUSH1 0x0 KECCAK256 PUSH1 0x0 DUP3 DUP2 MSTORE PUSH1 0x20 ADD SWAP1 DUP2 MSTORE PUSH1 0x20 ADD PUSH1 0x0 KECCAK256 PUSH1 0x0 SWAP1 SLOAD SWAP1 PUSH2 0x100 EXP SWAP1 DIV PUSH1 0xFF AND ISZERO PUSH2 0x37E JUMPI PUSH1 0x40 MLOAD PUSH32 0x8C379A000000000000000000000000000000000000000000000000000000000 DUP2 MSTORE PUSH1 0x4 ADD PUSH2 0x375 SWAP1 PUSH2 0xF93 JUMP JUMPDEST PUSH1 0x40 MLOAD DUP1 SWAP2 SUB SWAP1 REVERT JUMPDEST PUSH1 0x2 PUSH1 0x0 DUP3 DUP2 MSTORE PUSH1 0x20 ADD SWAP1 DUP2 MSTORE PUSH1 0x20 ADD PUSH1 0x0 KECCAK256 PUSH1 0x4 ADD PUSH1 0x0 SWAP1 SLOAD SWAP1 PUSH2 0x100 EXP SWAP1 DIV PUSH1 0xFF AND ISZERO PUSH2 0x3E2 JUMPI PUSH1 0x40 MLOAD PUSH32 0x8C379A000000000000000000000000000000000000000000000000000000000 DUP2 MSTORE PUSH1 0x4 ADD PUSH2 0x3D9 SWAP1 PUSH2 0xFFF JUMP JUMPDEST PUSH1 0x40 MLOAD DUP1 SWAP2 SUB SWAP1 REVERT JUMPDEST PUSH1 0x2 PUSH1 0x0 DUP3 DUP2 MSTORE PUSH1 0x20 ADD SWAP1 DUP2 MSTORE PUSH1 0x20 ADD PUSH1 0x0 KECCAK256 PUSH1 0x3 ADD PUSH1 0x0 DUP2 SLOAD DUP1 SWAP3 SWAP2 SWAP1 PUSH2 0x409 SWAP1 PUSH2 0x104E JUMP JUMPDEST SWAP2 SWAP1 POP SSTORE POP PUSH1 0x1 PUSH1 0x3 PUSH1 0x0 CALLER PUSH20 0xFFFFFFFFFFFFFFFFFFFFFFFFFFFFFFFFFFFFFFFF AND PUSH20 0xFFFFFFFFFFFFFFFFFFFFFFFFFFFFFFFFFFFFFFFF AND DUP2 MSTORE PUSH1 0x20 ADD SWAP1 DUP2 MSTORE PUSH1 0x20 ADD PUSH1 0x0 KECCAK256 PUSH1 0x0 DUP4 DUP2 MSTORE PUSH1 0x20 ADD SWAP1 DUP2 MSTORE PUSH1 0x20 ADD PUSH1 0x0 KECCAK256 PUSH1 0x0 PUSH2 0x100 EXP DUP2 SLOAD DUP2 PUSH1 0xFF MUL NOT AND SWAP1 DUP4 ISZERO ISZERO MUL OR SWAP1 SSTORE POP CALLER PUSH20 0xFFFFFFFFFFFFFFFFFFFFFFFFFFFFFFFFFFFFFFFF AND DUP2 PUSH32 0x12602B81B4B3A6BC77534C571E8AF3D316246BC5E5BEA24EFDF512FF6715DA15 PUSH1 0x2 PUSH1 0x0 DUP6 DUP2 MSTORE PUSH1 0x20 ADD SWAP1 DUP2 MSTORE PUSH1 0x20 ADD PUSH1 0x0 KECCAK256 PUSH1 0x3 ADD SLOAD PUSH1 0x40 MLOAD PUSH2 0x4D4 SWAP2 SWAP1 PUSH2 0xE60 JUMP JUMPDEST PUSH1 0x40 MLOAD DUP1 SWAP2 SUB SWAP1 LOG3 POP JUMP JUMPDEST PUSH1 0x40 MLOAD DUP1 PUSH1 0xA0 ADD PUSH1 0x40 MSTORE DUP1 PUSH1 0x1 SLOAD DUP2 MSTORE PUSH1 0x20 ADD CALLER PUSH20 0xFFFFFFFFFFFFFFFFFFFFFFFFFFFFFFFFFFFFFFFF AND DUP2 MSTORE PUSH1 0x20 ADD DUP4 DUP4 DUP1 DUP1 PUSH1 0x1F ADD PUSH1 0x20 DUP1 SWAP2 DIV MUL PUSH1 0x20 ADD PUSH1 0x40 MLOAD SWAP1 DUP2 ADD PUSH1 0x40 MSTORE DUP1 SWAP4 SWAP3 SWAP2 SWAP1 DUP2 DUP2 MSTORE PUSH1 0x20 ADD DUP4 DUP4 DUP1 DUP3 DUP5 CALLDATACOPY PUSH1 0x0 DUP2 DUP5 ADD MSTORE PUSH1 0x1F NOT PUSH1 0x1F DUP3 ADD AND SWAP1 POP DUP1 DUP4 ADD SWAP3 POP POP POP POP POP POP POP DUP2 MSTORE PUSH1 0x20 ADD PUSH1 0x0 DUP2 MSTORE PUSH1 0x20 ADD PUSH1 0x0 ISZERO ISZERO DUP2 MSTORE POP PUSH1 0x2 PUSH1 0x0 PUSH1 0x1 SLOAD DUP2 MSTORE PUSH1 0x20 ADD SWAP1 DUP2 MSTORE PUSH1 0x20 ADD PUSH1 0x0 KECCAK256 PUSH1 0x0 DUP3 ADD MLOAD DUP2 PUSH1 0x0 ADD SSTORE PUSH1 0x20 DUP3 ADD MLOAD DUP2 PUSH1 0x1 ADD PUSH1 0x0 PUSH2 0x100 EXP DUP2 SLOAD DUP2 PUSH20 0xFFFFFFFFFFFFFFFFFFFFFFFFFFFFFFFFFFFFFFFF MUL NOT AND SWAP1 DUP4 PUSH20 0xFFFFFFFFFFFFFFFFFFFFFFFFFFFFFFFFFFFFFFFF AND MUL OR SWAP1 SSTORE POP PUSH1 0x40 DUP3 ADD MLOAD DUP2 PUSH1 0x2 ADD SWAP1 DUP2 PUSH2 0x5E1 SWAP2 SWAP1 PUSH2 0x1271 JUMP JUMPDEST POP PUSH1 0x60 DUP3 ADD MLOAD DUP2 PUSH1 0x3 ADD SSTORE PUSH1 0x80 DUP3 ADD MLOAD DUP2 PUSH1 0x4 ADD PUSH1 0x0 PUSH2 0x100 EXP DUP2 SLOAD DUP2 PUSH1 0xFF MUL NOT AND SWAP1 DUP4 ISZERO ISZERO MUL OR SWAP1 SSTORE POP SWAP1 POP POP CALLER PUSH20 0xFFFFFFFFFFFFFFFFFFFFFFFFFFFFFFFFFFFFFFFF AND PUSH1 0x1 SLOAD PUSH32 0xBA63161E1C7E096AAF63CB63B137EEEA26B870DF0007C6E2AD029BAE55D65179 DUP5 DUP5 PUSH1 0x40 MLOAD PUSH2 0x65A SWAP3 SWAP2 SWAP1 PUSH2 0x137F JUMP JUMPDEST PUSH1 0x40 MLOAD DUP1 SWAP2 SUB SWAP1 LOG3 PUSH1 0x1 PUSH1 0x0 DUP2 SLOAD DUP1 SWAP3 SWAP2 SWAP1 PUSH2 0x675 SWAP1 PUSH2 0x104E JUMP JUMPDEST SWAP2 SWAP1 POP SSTORE POP POP POP JUMP JUMPDEST PUSH1 0x3 PUSH1 0x20 MSTORE DUP2 PUSH1 0x0 MSTORE PUSH1 0x40 PUSH1 0x0 KECCAK256 PUSH1 0x20 MSTORE DUP1 PUSH1 0x0 MSTORE PUSH1 0x40 PUSH1 0x0 KECCAK256 PUSH1 0x0 SWAP2 POP SWAP2 POP SWAP1 SLOAD SWAP1 PUSH2 0x100 EXP SWAP1 DIV PUSH1 0xFF AND DUP2 JUMP JUMPDEST PUSH1 0x0 DUP1 SLOAD SWAP1 PUSH2 0x100 EXP SWAP1 DIV PUSH20 0xFFFFFFFFFFFFFFFFFFFFFFFFFFFFFFFFFFFFFFFF AND PUSH20 0xFFFFFFFFFFFFFFFFFFFFFFFFFFFFFFFFFFFFFFFF AND CALLER PUSH20 0xFFFFFFFFFFFFFFFFFFFFFFFFFFFFFFFFFFFFFFFF AND EQ PUSH2 0x73B JUMPI PUSH1 0x40 MLOAD PUSH32 0x8C379A000000000000000000000000000000000000000000000000000000000 DUP2 MSTORE PUSH1 0x4 ADD PUSH2 0x732 SWAP1 PUSH2 0x13EF JUMP JUMPDEST PUSH1 0x40 MLOAD DUP1 SWAP2 SUB SWAP1 REVERT JUMPDEST PUSH1 0x1 SLOAD DUP2 LT PUSH2 0x77F JUMPI PUSH1 0x40 MLOAD PUSH32 0x8C379A000000000000000000000000000000000000000000000000000000000 DUP2 MSTORE PUSH1 0x4 ADD PUSH2 0x776 SWAP1 PUSH2 0xF27 JUMP JUMPDEST PUSH1 0x40 MLOAD DUP1 SWAP2 SUB SWAP1 REVERT JUMPDEST PUSH1 0x0 PUSH1 0x2 PUSH1 0x0 DUP4 DUP2 MSTORE PUSH1 0x20 ADD SWAP1 DUP2 MSTORE PUSH1 0x20 ADD PUSH1 0x0 KECCAK256 SWAP1 POP DUP1 PUSH1 0x4 ADD PUSH1 0x0 SWAP1 SLOAD SWAP1 PUSH2 0x100 EXP SWAP1 DIV PUSH1 0xFF AND ISZERO PUSH2 0x7E8 JUMPI PUSH1 0x40 MLOAD PUSH32 0x8C379A000000000000000000000000000000000000000000000000000000000 DUP2 MSTORE PUSH1 0x4 ADD PUSH2 0x7DF SWAP1 PUSH2 0xFFF JUMP JUMPDEST PUSH1 0x40 MLOAD DUP1 SWAP2 SUB SWAP1 REVERT JUMPDEST PUSH1 0x1 DUP2 PUSH1 0x4 ADD PUSH1 0x0 PUSH2 0x100 EXP DUP2 SLOAD DUP2 PUSH1 0xFF MUL NOT AND SWAP1 DUP4 ISZERO ISZERO MUL OR SWAP1 SSTORE POP DUP2 PUSH32 0xB5AC567FCF1B069E0235E4F16734625C6CF54C1B40517FD9EB85517F6E1265A7 PUSH1 0x1 PUSH1 0x40 MLOAD PUSH2 0x836 SWAP2 SWAP1 PUSH2 0xD1B JUMP JUMPDEST PUSH1 0x40 MLOAD DUP1 SWAP2 SUB SWAP1 LOG2 POP POP JUMP JUMPDEST PUSH1 0x0 DUP1 SLOAD SWAP1 PUSH2 0x100 EXP SWAP1 DIV PUSH20 0xFFFFFFFFFFFFFFFFFFFFFFFFFFFFFFFFFFFFFFFF AND DUP2 JUMP JUMPDEST PUSH2 0x86E PUSH2 0x9F4 JUMP JUMPDEST PUSH1 0x1 SLOAD DUP3 LT PUSH2 0x8B2 JUMPI PUSH1 0x40 MLOAD PUSH32 0x8C379A000000000000000000000000000000000000000000000000000000000 DUP2 MSTORE PUSH1 0x4 ADD PUSH2 0x8A9 SWAP1 PUSH2 0x145B JUMP JUMPDEST PUSH1 0x40 MLOAD DUP1 SWAP2 SUB SWAP1 REVERT JUMPDEST PUSH1 0x2 PUSH1 0x0 DUP4 DUP2 MSTORE PUSH1 0x20 ADD SWAP1 DUP2 MSTORE PUSH1 0x20 ADD PUSH1 0x0 KECCAK256 PUSH1 0x40 MLOAD DUP1 PUSH1 0xA0 ADD PUSH1 0x40 MSTORE SWAP1 DUP2 PUSH1 0x0 DUP3 ADD SLOAD DUP2 MSTORE PUSH1 0x20 ADD PUSH1 0x1 DUP3 ADD PUSH1 0x0 SWAP1 SLOAD SWAP1 PUSH2 0x100 EXP SWAP1 DIV PUSH20 0xFFFFFFFFFFFFFFFFFFFFFFFFFFFFFFFFFFFFFFFF AND PUSH20 0xFFFFFFFFFFFFFFFFFFFFFFFFFFFFFFFFFFFFFFFF AND PUSH20 0xFFFFFFFFFFFFFFFFFFFFFFFFFFFFFFFFFFFFFFFF AND DUP2 MSTORE PUSH1 0x20 ADD PUSH1 0x2 DUP3 ADD DUP1 SLOAD PUSH2 0x940 SWAP1 PUSH2 0xEAA JUMP JUMPDEST DUP1 PUSH1 0x1F ADD PUSH1 0x20 DUP1 SWAP2 DIV MUL PUSH1 0x20 ADD PUSH1 0x40 MLOAD SWAP1 DUP2 ADD PUSH1 0x40 MSTORE DUP1 SWAP3 SWAP2 SWAP1 DUP2 DUP2 MSTORE PUSH1 0x20 ADD DUP3 DUP1 SLOAD PUSH2 0x96C SWAP1 PUSH2 0xEAA JUMP JUMPDEST DUP1 ISZERO PUSH2 0x9B9 JUMPI DUP1 PUSH1 0x1F LT PUSH2 0x98E JUMPI PUSH2 0x100 DUP1 DUP4 SLOAD DIV MUL DUP4 MSTORE SWAP2 PUSH1 0x20 ADD SWAP2 PUSH2 0x9B9 JUMP JUMPDEST DUP3 ADD SWAP2 SWAP1 PUSH1 0x0 MSTORE PUSH1 0x20 PUSH1 0x0 KECCAK256 SWAP1 JUMPDEST DUP2 SLOAD DUP2 MSTORE SWAP1 PUSH1 0x1 ADD SWAP1 PUSH1 0x20 ADD DUP1 DUP4 GT PUSH2 0x99C JUMPI DUP3 SWAP1 SUB PUSH1 0x1F AND DUP3 ADD SWAP2 JUMPDEST POP POP POP POP POP DUP2 MSTORE PUSH1 0x20 ADD PUSH1 0x3 DUP3 ADD SLOAD DUP2 MSTORE PUSH1 0x20 ADD PUSH1 0x4 DUP3 ADD PUSH1 0x0 SWAP1 SLOAD SWAP1 PUSH2 0x100 EXP SWAP1 DIV PUSH1 0xFF AND ISZERO ISZERO ISZERO ISZERO DUP2 MSTORE POP POP SWAP1 POP SWAP2 SWAP1 POP JUMP JUMPDEST PUSH1 0x1 SLOAD DUP2 JUMP JUMPDEST PUSH1 0x40 MLOAD DUP1 PUSH1 0xA0 ADD PUSH1 0x40 MSTORE DUP1 PUSH1 0x0 DUP2 MSTORE PUSH1 0x20 ADD PUSH1 0x0 PUSH20 0xFFFFFFFFFFFFFFFFFFFFFFFFFFFFFFFFFFFFFFFF AND DUP2 MSTORE PUSH1 0x20 ADD PUSH1 0x60 DUP2 MSTORE PUSH1 0x20 ADD PUSH1 0x0 DUP2 MSTORE PUSH1 0x20 ADD PUSH1 0x0 ISZERO ISZERO DUP2 MSTORE POP SWAP1 JUMP JUMPDEST PUSH1 0x0 DUP1 REVERT JUMPDEST PUSH1 0x0 DUP1 REVERT JUMPDEST PUSH1 0x0 DUP2 SWAP1 POP SWAP2 SWAP1 POP JUMP JUMPDEST PUSH2 0xA58 DUP2 PUSH2 0xA45 JUMP JUMPDEST DUP2 EQ PUSH2 0xA63 JUMPI PUSH1 0x0 DUP1 REVERT JUMPDEST POP JUMP JUMPDEST PUSH1 0x0 DUP2 CALLDATALOAD SWAP1 POP PUSH2 0xA75 DUP2 PUSH2 0xA4F JUMP JUMPDEST SWAP3 SWAP2 POP POP JUMP JUMPDEST PUSH1 0x0 PUSH1 0x20 DUP3 DUP5 SUB SLT ISZERO PUSH2 0xA91 JUMPI PUSH2 0xA90 PUSH2 0xA3B JUMP JUMPDEST JUMPDEST PUSH1 0x0 PUSH2 0xA9F DUP5 DUP3 DUP6 ADD PUSH2 0xA66 JUMP JUMPDEST SWAP2 POP POP SWAP3 SWAP2 POP POP JUMP JUMPDEST PUSH2 0xAB1 DUP2 PUSH2 0xA45 JUMP JUMPDEST DUP3 MSTORE POP POP JUMP JUMPDEST PUSH1 0x0 PUSH20 0xFFFFFFFFFFFFFFFFFFFFFFFFFFFFFFFFFFFFFFFF DUP3 AND SWAP1 POP SWAP2 SWAP1 POP JUMP JUMPDEST PUSH1 0x0 PUSH2 0xAE2 DUP3 PUSH2 0xAB7 JUMP JUMPDEST SWAP1 POP SWAP2 SWAP1 POP JUMP JUMPDEST PUSH2 0xAF2 DUP2 PUSH2 0xAD7 JUMP JUMPDEST DUP3 MSTORE POP POP JUMP JUMPDEST PUSH1 0x0 DUP2 MLOAD SWAP1 POP SWAP2 SWAP1 POP JUMP JUMPDEST PUSH1 0x0 DUP3 DUP3 MSTORE PUSH1 0x20 DUP3 ADD SWAP1 POP SWAP3 SWAP2 POP POP JUMP JUMPDEST PUSH1 0x0 JUMPDEST DUP4 DUP2 LT ISZERO PUSH2 0xB32 JUMPI DUP1 DUP3 ADD MLOAD DUP2 DUP5 ADD MSTORE PUSH1 0x20 DUP2 ADD SWAP1 POP PUSH2 0xB17 JUMP JUMPDEST PUSH1 0x0 DUP5 DUP5 ADD MSTORE POP POP POP POP JUMP JUMPDEST PUSH1 0x0 PUSH1 0x1F NOT PUSH1 0x1F DUP4 ADD AND SWAP1 POP SWAP2 SWAP1 POP JUMP JUMPDEST PUSH1 0x0 PUSH2 0xB5A DUP3 PUSH2 0xAF8 JUMP JUMPDEST PUSH2 0xB64 DUP2 DUP6 PUSH2 0xB03 JUMP JUMPDEST SWAP4 POP PUSH2 0xB74 DUP2 DUP6 PUSH1 0x20 DUP7 ADD PUSH2 0xB14 JUMP JUMPDEST PUSH2 0xB7D DUP2 PUSH2 0xB3E JUMP JUMPDEST DUP5 ADD SWAP2 POP POP SWAP3 SWAP2 POP POP JUMP JUMPDEST PUSH1 0x0 DUP2 ISZERO ISZERO SWAP1 POP SWAP2 SWAP1 POP JUMP JUMPDEST PUSH2 0xB9D DUP2 PUSH2 0xB88 JUMP JUMPDEST DUP3 MSTORE POP POP JUMP JUMPDEST PUSH1 0x0 PUSH1 0xA0 DUP3 ADD SWAP1 POP PUSH2 0xBB8 PUSH1 0x0 DUP4 ADD DUP9 PUSH2 0xAA8 JUMP JUMPDEST PUSH2 0xBC5 PUSH1 0x20 DUP4 ADD DUP8 PUSH2 0xAE9 JUMP JUMPDEST DUP2 DUP2 SUB PUSH1 0x40 DUP4 ADD MSTORE PUSH2 0xBD7 DUP2 DUP7 PUSH2 0xB4F JUMP JUMPDEST SWAP1 POP PUSH2 0xBE6 PUSH1 0x60 DUP4 ADD DUP6 PUSH2 0xAA8 JUMP JUMPDEST PUSH2 0xBF3 PUSH1 0x80 DUP4 ADD DUP5 PUSH2 0xB94 JUMP JUMPDEST SWAP7 SWAP6 POP POP POP POP POP POP JUMP JUMPDEST PUSH1 0x0 DUP1 REVERT JUMPDEST PUSH1 0x0 DUP1 REVERT JUMPDEST PUSH1 0x0 DUP1 REVERT JUMPDEST PUSH1 0x0 DUP1 DUP4 PUSH1 0x1F DUP5 ADD SLT PUSH2 0xC22 JUMPI PUSH2 0xC21 PUSH2 0xBFD JUMP JUMPDEST JUMPDEST DUP3 CALLDATALOAD SWAP1 POP PUSH8 0xFFFFFFFFFFFFFFFF DUP2 GT ISZERO PUSH2 0xC3F JUMPI PUSH2 0xC3E PUSH2 0xC02 JUMP JUMPDEST JUMPDEST PUSH1 0x20 DUP4 ADD SWAP2 POP DUP4 PUSH1 0x1 DUP3 MUL DUP4 ADD GT ISZERO PUSH2 0xC5B JUMPI PUSH2 0xC5A PUSH2 0xC07 JUMP JUMPDEST JUMPDEST SWAP3 POP SWAP3 SWAP1 POP JUMP JUMPDEST PUSH1 0x0 DUP1 PUSH1 0x20 DUP4 DUP6 SUB SLT ISZERO PUSH2 0xC79 JUMPI PUSH2 0xC78 PUSH2 0xA3B JUMP JUMPDEST JUMPDEST PUSH1 0x0 DUP4 ADD CALLDATALOAD PUSH8 0xFFFFFFFFFFFFFFFF DUP2 GT ISZERO PUSH2 0xC97 JUMPI PUSH2 0xC96 PUSH2 0xA40 JUMP JUMPDEST JUMPDEST PUSH2 0xCA3 DUP6 DUP3 DUP7 ADD PUSH2 0xC0C JUMP JUMPDEST SWAP3 POP SWAP3 POP POP SWAP3 POP SWAP3 SWAP1 POP JUMP JUMPDEST PUSH2 0xCB8 DUP2 PUSH2 0xAD7 JUMP JUMPDEST DUP2 EQ PUSH2 0xCC3 JUMPI PUSH1 0x0 DUP1 REVERT JUMPDEST POP JUMP JUMPDEST PUSH1 0x0 DUP2 CALLDATALOAD SWAP1 POP PUSH2 0xCD5 DUP2 PUSH2 0xCAF JUMP JUMPDEST SWAP3 SWAP2 POP POP JUMP JUMPDEST PUSH1 0x0 DUP1 PUSH1 0x40 DUP4 DUP6 SUB SLT ISZERO PUSH2 0xCF2 JUMPI PUSH2 0xCF1 PUSH2 0xA3B JUMP JUMPDEST JUMPDEST PUSH1 0x0 PUSH2 0xD00 DUP6 DUP3 DUP7 ADD PUSH2 0xCC6 JUMP JUMPDEST SWAP3 POP POP PUSH1 0x20 PUSH2 0xD11 DUP6 DUP3 DUP7 ADD PUSH2 0xA66 JUMP JUMPDEST SWAP2 POP POP SWAP3 POP SWAP3 SWAP1 POP JUMP JUMPDEST PUSH1 0x0 PUSH1 0x20 DUP3 ADD SWAP1 POP PUSH2 0xD30 PUSH1 0x0 DUP4 ADD DUP5 PUSH2 0xB94 JUMP JUMPDEST SWAP3 SWAP2 POP POP JUMP JUMPDEST PUSH1 0x0 PUSH1 0x20 DUP3 ADD SWAP1 POP PUSH2 0xD4B PUSH1 0x0 DUP4 ADD DUP5 PUSH2 0xAE9 JUMP JUMPDEST SWAP3 SWAP2 POP POP JUMP JUMPDEST PUSH2 0xD5A DUP2 PUSH2 0xA45 JUMP JUMPDEST DUP3 MSTORE POP POP JUMP JUMPDEST PUSH2 0xD69 DUP2 PUSH2 0xAD7 JUMP JUMPDEST DUP3 MSTORE POP POP JUMP JUMPDEST PUSH1 0x0 DUP3 DUP3 MSTORE PUSH1 0x20 DUP3 ADD SWAP1 POP SWAP3 SWAP2 POP POP JUMP JUMPDEST PUSH1 0x0 PUSH2 0xD8B DUP3 PUSH2 0xAF8 JUMP JUMPDEST PUSH2 0xD95 DUP2 DUP6 PUSH2 0xD6F JUMP JUMPDEST SWAP4 POP PUSH2 0xDA5 DUP2 DUP6 PUSH1 0x20 DUP7 ADD PUSH2 0xB14 JUMP JUMPDEST PUSH2 0xDAE DUP2 PUSH2 0xB3E JUMP JUMPDEST DUP5 ADD SWAP2 POP POP SWAP3 SWAP2 POP POP JUMP JUMPDEST PUSH2 0xDC2 DUP2 PUSH2 0xB88 JUMP JUMPDEST DUP3 MSTORE POP POP JUMP JUMPDEST PUSH1 0x0 PUSH1 0xA0 DUP4 ADD PUSH1 0x0 DUP4 ADD MLOAD PUSH2 0xDE0 PUSH1 0x0 DUP7 ADD DUP3 PUSH2 0xD51 JUMP JUMPDEST POP PUSH1 0x20 DUP4 ADD MLOAD PUSH2 0xDF3 PUSH1 0x20 DUP7 ADD DUP3 PUSH2 0xD60 JUMP JUMPDEST POP PUSH1 0x40 DUP4 ADD MLOAD DUP5 DUP3 SUB PUSH1 0x40 DUP7 ADD MSTORE PUSH2 0xE0B DUP3 DUP3 PUSH2 0xD80 JUMP JUMPDEST SWAP2 POP POP PUSH1 0x60 DUP4 ADD MLOAD PUSH2 0xE20 PUSH1 0x60 DUP7 ADD DUP3 PUSH2 0xD51 JUMP JUMPDEST POP PUSH1 0x80 DUP4 ADD MLOAD PUSH2 0xE33 PUSH1 0x80 DUP7 ADD DUP3 PUSH2 0xDB9 JUMP JUMPDEST POP DUP1 SWAP2 POP POP SWAP3 SWAP2 POP POP JUMP JUMPDEST PUSH1 0x0 PUSH1 0x20 DUP3 ADD SWAP1 POP DUP2 DUP2 SUB PUSH1 0x0 DUP4 ADD MSTORE PUSH2 0xE58 DUP2 DUP5 PUSH2 0xDC8 JUMP JUMPDEST SWAP1 POP SWAP3 SWAP2 POP POP JUMP JUMPDEST PUSH1 0x0 PUSH1 0x20 DUP3 ADD SWAP1 POP PUSH2 0xE75 PUSH1 0x0 DUP4 ADD DUP5 PUSH2 0xAA8 JUMP JUMPDEST SWAP3 SWAP2 POP POP JUMP JUMPDEST PUSH32 0x4E487B7100000000000000000000000000000000000000000000000000000000 PUSH1 0x0 MSTORE PUSH1 0x22 PUSH1 0x4 MSTORE PUSH1 0x24 PUSH1 0x0 REVERT JUMPDEST PUSH1 0x0 PUSH1 0x2 DUP3 DIV SWAP1 POP PUSH1 0x1 DUP3 AND DUP1 PUSH2 0xEC2 JUMPI PUSH1 0x7F DUP3 AND SWAP2 POP JUMPDEST PUSH1 0x20 DUP3 LT DUP2 SUB PUSH2 0xED5 JUMPI PUSH2 0xED4 PUSH2 0xE7B JUMP JUMPDEST JUMPDEST POP SWAP2 SWAP1 POP JUMP JUMPDEST PUSH32 0x496E76616C69642070726F706F73616C20494400000000000000000000000000 PUSH1 0x0 DUP3 ADD MSTORE POP JUMP JUMPDEST PUSH1 0x0 PUSH2 0xF11 PUSH1 0x13 DUP4 PUSH2 0xB03 JUMP JUMPDEST SWAP2 POP PUSH2 0xF1C DUP3 PUSH2 0xEDB JUMP JUMPDEST PUSH1 0x20 DUP3 ADD SWAP1 POP SWAP2 SWAP1 POP JUMP JUMPDEST PUSH1 0x0 PUSH1 0x20 DUP3 ADD SWAP1 POP DUP2 DUP2 SUB PUSH1 0x0 DUP4 ADD MSTORE PUSH2 0xF40 DUP2 PUSH2 0xF04 JUMP JUMPDEST SWAP1 POP SWAP2 SWAP1 POP JUMP JUMPDEST PUSH32 0x416C726561647920766F74656420666F7220746869732070726F706F73616C00 PUSH1 0x0 DUP3 ADD MSTORE POP JUMP JUMPDEST PUSH1 0x0 PUSH2 0xF7D PUSH1 0x1F DUP4 PUSH2 0xB03 JUMP JUMPDEST SWAP2 POP PUSH2 0xF88 DUP3 PUSH2 0xF47 JUMP JUMPDEST PUSH1 0x20 DUP3 ADD SWAP1 POP SWAP2 SWAP1 POP JUMP JUMPDEST PUSH1 0x0 PUSH1 0x20 DUP3 ADD SWAP1 POP DUP2 DUP2 SUB PUSH1 0x0 DUP4 ADD MSTORE PUSH2 0xFAC DUP2 PUSH2 0xF70 JUMP JUMPDEST SWAP1 POP SWAP2 SWAP1 POP JUMP JUMPDEST PUSH32 0x50726F706F73616C20616C72656164792066696E616C697A6564000000000000 PUSH1 0x0 DUP3 ADD MSTORE POP JUMP JUMPDEST PUSH1 0x0 PUSH2 0xFE9 PUSH1 0x1A DUP4 PUSH2 0xB03 JUMP JUMPDEST SWAP2 POP PUSH2 0xFF4 DUP3 PUSH2 0xFB3 JUMP JUMPDEST PUSH1 0x20 DUP3 ADD SWAP1 POP SWAP2 SWAP1 POP JUMP JUMPDEST PUSH1 0x0 PUSH1 0x20 DUP3 ADD SWAP1 POP DUP2 DUP2 SUB PUSH1 0x0 DUP4 ADD MSTORE PUSH2 0x1018 DUP2 PUSH2 0xFDC JUMP JUMPDEST SWAP1 POP SWAP2 SWAP1 POP JUMP JUMPDEST PUSH32 0x4E487B7100000000000000000000000000000000000000000000000000000000 PUSH1 0x0 MSTORE PUSH1 0x11 PUSH1 0x4 MSTORE PUSH1 0x24 PUSH1 0x0 REVERT JUMPDEST PUSH1 0x0 PUSH2 0x1059 DUP3 PUSH2 0xA45 JUMP JUMPDEST SWAP2 POP PUSH32 0xFFFFFFFFFFFFFFFFFFFFFFFFFFFFFFFFFFFFFFFFFFFFFFFFFFFFFFFFFFFFFFFF DUP3 SUB PUSH2 0x108B JUMPI PUSH2 0x108A PUSH2 0x101F JUMP JUMPDEST JUMPDEST PUSH1 0x1 DUP3 ADD SWAP1 POP SWAP2 SWAP1 POP JUMP JUMPDEST PUSH32 0x4E487B7100000000000000000000000000000000000000000000000000000000 PUSH1 0x0 MSTORE PUSH1 0x41 PUSH1 0x4 MSTORE PUSH1 0x24 PUSH1 0x0 REVERT JUMPDEST PUSH1 0x0 DUP2 SWAP1 POP DUP2 PUSH1 0x0 MSTORE PUSH1 0x20 PUSH1 0x0 KECCAK256 SWAP1 POP SWAP2 SWAP1 POP JUMP JUMPDEST PUSH1 0x0 PUSH1 0x20 PUSH1 0x1F DUP4 ADD DIV SWAP1 POP SWAP2 SWAP1 POP JUMP JUMPDEST PUSH1 0x0 DUP3 DUP3 SHL SWAP1 POP SWAP3 SWAP2 POP POP JUMP JUMPDEST PUSH1 0x0 PUSH1 0x8 DUP4 MUL PUSH2 0x1127 PUSH32 0xFFFFFFFFFFFFFFFFFFFFFFFFFFFFFFFFFFFFFFFFFFFFFFFFFFFFFFFFFFFFFFFF DUP3 PUSH2 0x10EA JUMP JUMPDEST PUSH2 0x1131 DUP7 DUP4 PUSH2 0x10EA JUMP JUMPDEST SWAP6 POP DUP1 NOT DUP5 AND SWAP4 POP DUP1 DUP7 AND DUP5 OR SWAP3 POP POP POP SWAP4 SWAP3 POP POP POP JUMP JUMPDEST PUSH1 0x0 DUP2 SWAP1 POP SWAP2 SWAP1 POP JUMP JUMPDEST PUSH1 0x0 PUSH2 0x116E PUSH2 0x1169 PUSH2 0x1164 DUP5 PUSH2 0xA45 JUMP JUMPDEST PUSH2 0x1149 JUMP JUMPDEST PUSH2 0xA45 JUMP JUMPDEST SWAP1 POP SWAP2 SWAP1 POP JUMP JUMPDEST PUSH1 0x0 DUP2 SWAP1 POP SWAP2 SWAP1 POP JUMP JUMPDEST PUSH2 0x1188 DUP4 PUSH2 0x1153 JUMP JUMPDEST PUSH2 0x119C PUSH2 0x1194 DUP3 PUSH2 0x1175 JUMP JUMPDEST DUP5 DUP5 SLOAD PUSH2 0x10F7 JUMP JUMPDEST DUP3 SSTORE POP POP POP POP JUMP JUMPDEST PUSH1 0x0 SWAP1 JUMP JUMPDEST PUSH2 0x11B1 PUSH2 0x11A4 JUMP JUMPDEST PUSH2 0x11BC DUP2 DUP5 DUP5 PUSH2 0x117F JUMP JUMPDEST POP POP POP JUMP JUMPDEST JUMPDEST DUP2 DUP2 LT ISZERO PUSH2 0x11E0 JUMPI PUSH2 0x11D5 PUSH1 0x0 DUP3 PUSH2 0x11A9 JUMP JUMPDEST PUSH1 0x1 DUP2 ADD SWAP1 POP PUSH2 0x11C2 JUMP JUMPDEST POP POP JUMP JUMPDEST PUSH1 0x1F DUP3 GT ISZERO PUSH2 0x1225 JUMPI PUSH2 0x11F6 DUP2 PUSH2 0x10C5 JUMP JUMPDEST PUSH2 0x11FF DUP5 PUSH2 0x10DA JUMP JUMPDEST DUP2 ADD PUSH1 0x20 DUP6 LT ISZERO PUSH2 0x120E JUMPI DUP2 SWAP1 POP JUMPDEST PUSH2 0x1222 PUSH2 0x121A DUP6 PUSH2 0x10DA JUMP JUMPDEST DUP4 ADD DUP3 PUSH2 0x11C1 JUMP JUMPDEST POP POP JUMPDEST POP POP POP JUMP JUMPDEST PUSH1 0x0 DUP3 DUP3 SHR SWAP1 POP SWAP3 SWAP2 POP POP JUMP JUMPDEST PUSH1 0x0 PUSH2 0x1248 PUSH1 0x0 NOT DUP5 PUSH1 0x8 MUL PUSH2 0x122A JUMP JUMPDEST NOT DUP1 DUP4 AND SWAP2 POP POP SWAP3 SWAP2 POP POP JUMP JUMPDEST PUSH1 0x0 PUSH2 0x1261 DUP4 DUP4 PUSH2 0x1237 JUMP JUMPDEST SWAP2 POP DUP3 PUSH1 0x2 MUL DUP3 OR SWAP1 POP SWAP3 SWAP2 POP POP JUMP JUMPDEST PUSH2 0x127A DUP3 PUSH2 0xAF8 JUMP JUMPDEST PUSH8 0xFFFFFFFFFFFFFFFF DUP2 GT ISZERO PUSH2 0x1293 JUMPI PUSH2 0x1292 PUSH2 0x1096 JUMP JUMPDEST JUMPDEST PUSH2 0x129D DUP3 SLOAD PUSH2 0xEAA JUMP JUMPDEST PUSH2 0x12A8 DUP3 DUP3 DUP6 PUSH2 0x11E4 JUMP JUMPDEST PUSH1 0x0 PUSH1 0x20 SWAP1 POP PUSH1 0x1F DUP4 GT PUSH1 0x1 DUP2 EQ PUSH2 0x12DB JUMPI PUSH1 0x0 DUP5 ISZERO PUSH2 0x12C9 JUMPI DUP3 DUP8 ADD MLOAD SWAP1 POP JUMPDEST PUSH2 0x12D3 DUP6 DUP3 PUSH2 0x1255 JUMP JUMPDEST DUP7 SSTORE POP PUSH2 0x133B JUMP JUMPDEST PUSH1 0x1F NOT DUP5 AND PUSH2 0x12E9 DUP7 PUSH2 0x10C5 JUMP JUMPDEST PUSH1 0x0 JUMPDEST DUP3 DUP2 LT ISZERO PUSH2 0x1311 JUMPI DUP5 DUP10 ADD MLOAD DUP3 SSTORE PUSH1 0x1 DUP3 ADD SWAP2 POP PUSH1 0x20 DUP6 ADD SWAP5 POP PUSH1 0x20 DUP2 ADD SWAP1 POP PUSH2 0x12EC JUMP JUMPDEST DUP7 DUP4 LT ISZERO PUSH2 0x132E JUMPI DUP5 DUP10 ADD MLOAD PUSH2 0x132A PUSH1 0x1F DUP10 AND DUP3 PUSH2 0x1237 JUMP JUMPDEST DUP4 SSTORE POP JUMPDEST PUSH1 0x1 PUSH1 0x2 DUP9 MUL ADD DUP9 SSTORE POP POP POP JUMPDEST POP POP POP POP POP POP JUMP JUMPDEST DUP3 DUP2 DUP4 CALLDATACOPY PUSH1 0x0 DUP4 DUP4 ADD MSTORE POP POP POP JUMP JUMPDEST PUSH1 0x0 PUSH2 0x135E DUP4 DUP6 PUSH2 0xB03 JUMP JUMPDEST SWAP4 POP PUSH2 0x136B DUP4 DUP6 DUP5 PUSH2 0x1343 JUMP JUMPDEST PUSH2 0x1374 DUP4 PUSH2 0xB3E JUMP JUMPDEST DUP5 ADD SWAP1 POP SWAP4 SWAP3 POP POP POP JUMP JUMPDEST PUSH1 0x0 PUSH1 0x20 DUP3 ADD SWAP1 POP DUP2 DUP2 SUB PUSH1 0x0 DUP4 ADD MSTORE PUSH2 0x139A DUP2 DUP5 DUP7 PUSH2 0x1352 JUMP JUMPDEST SWAP1 POP SWAP4 SWAP3 POP POP POP JUMP JUMPDEST PUSH32 0x4E6F7420636F6E7472616374206F776E65720000000000000000000000000000 PUSH1 0x0 DUP3 ADD MSTORE POP JUMP JUMPDEST PUSH1 0x0 PUSH2 0x13D9 PUSH1 0x12 DUP4 PUSH2 0xB03 JUMP JUMPDEST SWAP2 POP PUSH2 0x13E4 DUP3 PUSH2 0x13A3 JUMP JUMPDEST PUSH1 0x20 DUP3 ADD SWAP1 POP SWAP2 SWAP1 POP JUMP JUMPDEST PUSH1 0x0 PUSH1 0x20 DUP3 ADD SWAP1 POP DUP2 DUP2 SUB PUSH1 0x0 DUP4 ADD MSTORE PUSH2 0x1408 DUP2 PUSH2 0x13CC JUMP JUMPDEST SWAP1 POP SWAP2 SWAP1 POP JUMP JUMPDEST PUSH32 0x50726F706F73616C20646F6573206E6F74206578697374000000000000000000 PUSH1 0x0 DUP3 ADD MSTORE POP JUMP JUMPDEST PUSH1 0x0 PUSH2 0x1445 PUSH1 0x17 DUP4 PUSH2 0xB03 JUMP JUMPDEST SWAP2 POP PUSH2 0x1450 DUP3 PUSH2 0x140F JUMP JUMPDEST PUSH1 0x20 DUP3 ADD SWAP1 POP SWAP2 SWAP1 POP JUMP JUMPDEST PUSH1 0x0 PUSH1 0x20 DUP3 ADD SWAP1 POP DUP2 DUP2 SUB PUSH1 0x0 DUP4 ADD MSTORE PUSH2 0x1474 DUP2 PUSH2 0x1438 JUMP JUMPDEST SWAP1 POP SWAP2 SWAP1 POP JUMP INVALID LOG2 PUSH5 0x6970667358 0x22 SLT KECCAK256 PUSH10 0x15B999E30B3A893F8187 0xD3 0xBF 0xD0 PUSH4 0x1AAA79D1 0xD9 0x2E DUP11 0xE0 0xCF 0xC1 0xC1 0xF6 ORIGIN SLT 0xC5 0xC9 0xD0 PUSH5 0x736F6C6343 STOP ADDMOD SGT STOP CALLER "
				},
				"gasEstimates": {
					"creation": {
						"codeDepositCost": "1059400",
						"executionCost": "25366",
						"totalCost": "1084766"
					},
					"external": {
						"finalizeProposal(uint256)": "32797",
						"getProposal(uint256)": "infinite",
						"hasVoted(address,uint256)": "3154",
						"owner()": "2533",
						"proposalCount()": "2495",
						"proposals(uint256)": "infinite",
						"submitProposal(string)": "infinite",
						"voteForProposal(uint256)": "infinite"
					}
				},
				"methodIdentifiers": {
					"finalizeProposal(uint256)": "5652077c",
					"getProposal(uint256)": "c7f758a8",
					"hasVoted(address,uint256)": "42545825",
					"owner()": "8da5cb5b",
					"proposalCount()": "da35c664",
					"proposals(uint256)": "013cf08b",
					"submitProposal(string)": "373d6d5e",
					"voteForProposal(uint256)": "045c6ce0"
				}
			},
			"storageLayout": {
				"storage": [
					{
						"astId": 4,
						"contract": "B/Blue Sky Crypto Protocol.sol:BlueSkyCryptoProtocol",
						"label": "owner",
						"offset": 0,
						"slot": "0",
						"type": "t_address"
					},
					{
						"astId": 6,
						"contract": "B/Blue Sky Crypto Protocol.sol:BlueSkyCryptoProtocol",
						"label": "proposalCount",
						"offset": 0,
						"slot": "1",
						"type": "t_uint256"
					},
					{
						"astId": 22,
						"contract": "B/Blue Sky Crypto Protocol.sol:BlueSkyCryptoProtocol",
						"label": "proposals",
						"offset": 0,
						"slot": "2",
						"type": "t_mapping(t_uint256,t_struct(Proposal)17_storage)"
					},
					{
						"astId": 28,
						"contract": "B/Blue Sky Crypto Protocol.sol:BlueSkyCryptoProtocol",
						"label": "hasVoted",
						"offset": 0,
						"slot": "3",
						"type": "t_mapping(t_address,t_mapping(t_uint256,t_bool))"
					}
				],
				"types": {
					"t_address": {
						"encoding": "inplace",
						"label": "address",
						"numberOfBytes": "20"
					},
					"t_bool": {
						"encoding": "inplace",
						"label": "bool",
						"numberOfBytes": "1"
					},
					"t_mapping(t_address,t_mapping(t_uint256,t_bool))": {
						"encoding": "mapping",
						"key": "t_address",
						"label": "mapping(address => mapping(uint256 => bool))",
						"numberOfBytes": "32",
						"value": "t_mapping(t_uint256,t_bool)"
					},
					"t_mapping(t_uint256,t_bool)": {
						"encoding": "mapping",
						"key": "t_uint256",
						"label": "mapping(uint256 => bool)",
						"numberOfBytes": "32",
						"value": "t_bool"
					},
					"t_mapping(t_uint256,t_struct(Proposal)17_storage)": {
						"encoding": "mapping",
						"key": "t_uint256",
						"label": "mapping(uint256 => struct BlueSkyCryptoProtocol.Proposal)",
						"numberOfBytes": "32",
						"value": "t_struct(Proposal)17_storage"
					},
					"t_string_storage": {
						"encoding": "bytes",
						"label": "string",
						"numberOfBytes": "32"
					},
					"t_struct(Proposal)17_storage": {
						"encoding": "inplace",
						"label": "struct BlueSkyCryptoProtocol.Proposal",
						"members": [
							{
								"astId": 8,
								"contract": "B/Blue Sky Crypto Protocol.sol:BlueSkyCryptoProtocol",
								"label": "id",
								"offset": 0,
								"slot": "0",
								"type": "t_uint256"
							},
							{
								"astId": 10,
								"contract": "B/Blue Sky Crypto Protocol.sol:BlueSkyCryptoProtocol",
								"label": "proposer",
								"offset": 0,
								"slot": "1",
								"type": "t_address"
							},
							{
								"astId": 12,
								"contract": "B/Blue Sky Crypto Protocol.sol:BlueSkyCryptoProtocol",
								"label": "description",
								"offset": 0,
								"slot": "2",
								"type": "t_string_storage"
							},
							{
								"astId": 14,
								"contract": "B/Blue Sky Crypto Protocol.sol:BlueSkyCryptoProtocol",
								"label": "voteCount",
								"offset": 0,
								"slot": "3",
								"type": "t_uint256"
							},
							{
								"astId": 16,
								"contract": "B/Blue Sky Crypto Protocol.sol:BlueSkyCryptoProtocol",
								"label": "finalized",
								"offset": 0,
								"slot": "4",
								"type": "t_bool"
							}
						],
						"numberOfBytes": "160"
					},
					"t_uint256": {
						"encoding": "inplace",
						"label": "uint256",
						"numberOfBytes": "32"
					}
				}
			},
			"userdoc": {
				"kind": "user",
				"methods": {
					"constructor": {
						"notice": "Constructor sets the deployer as the contract owner."
					},
					"finalizeProposal(uint256)": {
						"notice": "Finalize a proposal (only callable by the owner)."
					},
					"getProposal(uint256)": {
						"notice": "Retrieve a proposal by its ID."
					},
					"submitProposal(string)": {
						"notice": "Submit a new proposal."
					},
					"voteForProposal(uint256)": {
						"notice": "Vote for an existing proposal."
					}
				},
				"notice": "A decentralized platform for submitting and voting on innovative blockchain proposals.",
				"version": 1
			}
		}
	}
}