{
	"B/bitstreams.sol": {
		"BitstreamOperations": {
			"abi": [
				{
					"inputs": [
						{
							"internalType": "uint256",
							"name": "bitstream",
							"type": "uint256"
						},
						{
							"internalType": "uint8",
							"name": "index",
							"type": "uint8"
						}
					],
					"name": "clearBit",
					"outputs": [
						{
							"internalType": "uint256",
							"name": "",
							"type": "uint256"
						}
					],
					"stateMutability": "pure",
					"type": "function"
				},
				{
					"inputs": [
						{
							"internalType": "uint256",
							"name": "bitstream",
							"type": "uint256"
						},
						{
							"internalType": "uint8",
							"name": "length",
							"type": "uint8"
						}
					],
					"name": "decodeBooleans",
					"outputs": [
						{
							"internalType": "bool[]",
							"name": "bits",
							"type": "bool[]"
						}
					],
					"stateMutability": "pure",
					"type": "function"
				},
				{
					"inputs": [
						{
							"internalType": "bool[]",
							"name": "bits",
							"type": "bool[]"
						}
					],
					"name": "encodeBooleans",
					"outputs": [
						{
							"internalType": "uint256",
							"name": "bitstream",
							"type": "uint256"
						}
					],
					"stateMutability": "pure",
					"type": "function"
				},
				{
					"inputs": [
						{
							"internalType": "uint256",
							"name": "bitstream",
							"type": "uint256"
						},
						{
							"internalType": "uint8",
							"name": "index",
							"type": "uint8"
						}
					],
					"name": "setBit",
					"outputs": [
						{
							"internalType": "uint256",
							"name": "",
							"type": "uint256"
						}
					],
					"stateMutability": "pure",
					"type": "function"
				},
				{
					"inputs": [
						{
							"internalType": "uint256",
							"name": "bitstream",
							"type": "uint256"
						},
						{
							"internalType": "uint8",
							"name": "index",
							"type": "uint8"
						}
					],
					"name": "toggleBit",
					"outputs": [
						{
							"internalType": "uint256",
							"name": "",
							"type": "uint256"
						}
					],
					"stateMutability": "pure",
					"type": "function"
				}
			],
			"devdoc": {
				"kind": "dev",
				"methods": {
					"clearBit(uint256,uint8)": {
						"params": {
							"bitstream": "The original bitstream.",
							"index": "The index of the bit to clear (0-indexed)."
						},
						"returns": {
							"_0": "The new bitstream with the bit at `index` cleared (set to 0)."
						}
					},
					"decodeBooleans(uint256,uint8)": {
						"params": {
							"bitstream": "The uint256 bitstream to decode.",
							"length": "The number of bits to decode."
						},
						"returns": {
							"bits": "An array of booleans representing the decoded bitstream."
						}
					},
					"encodeBooleans(bool[])": {
						"params": {
							"bits": "An array of booleans to encode."
						},
						"returns": {
							"bitstream": "A uint256 representing the encoded bitstream."
						}
					},
					"setBit(uint256,uint8)": {
						"params": {
							"bitstream": "The original bitstream.",
							"index": "The index of the bit to set (0-indexed)."
						},
						"returns": {
							"_0": "The new bitstream with the bit at `index` set to 1."
						}
					},
					"toggleBit(uint256,uint8)": {
						"params": {
							"bitstream": "The original bitstream.",
							"index": "The index of the bit to toggle (0-indexed)."
						},
						"returns": {
							"_0": "The new bitstream with the bit at `index` toggled."
						}
					}
				},
				"title": "BitstreamOperations",
				"version": 1
			},
			"evm": {
				"assembly": "    /* \"B/bitstreams.sol\":275:2593  contract BitstreamOperations {... */\n  mstore(0x40, 0x80)\n  callvalue\n  dup1\n  iszero\n  tag_1\n  jumpi\n  0x00\n  dup1\n  revert\ntag_1:\n  pop\n  dataSize(sub_0)\n  dup1\n  dataOffset(sub_0)\n  0x00\n  codecopy\n  0x00\n  return\nstop\n\nsub_0: assembly {\n        /* \"B/bitstreams.sol\":275:2593  contract BitstreamOperations {... */\n      mstore(0x40, 0x80)\n      callvalue\n      dup1\n      iszero\n      tag_1\n      jumpi\n      0x00\n      dup1\n      revert\n    tag_1:\n      pop\n      jumpi(tag_2, lt(calldatasize, 0x04))\n      shr(0xe0, calldataload(0x00))\n      dup1\n      0x4ee29090\n      eq\n      tag_3\n      jumpi\n      dup1\n      0x5fc781e4\n      eq\n      tag_4\n      jumpi\n      dup1\n      0x6df384db\n      eq\n      tag_5\n      jumpi\n      dup1\n      0xb1f85130\n      eq\n      tag_6\n      jumpi\n      dup1\n      0xc406504f\n      eq\n      tag_7\n      jumpi\n    tag_2:\n      0x00\n      dup1\n      revert\n        /* \"B/bitstreams.sol\":1534:1712  function setBit(uint256 bitstream, uint8 index) public pure returns (uint256) {... */\n    tag_3:\n      tag_8\n      0x04\n      dup1\n      calldatasize\n      sub\n      dup2\n      add\n      swap1\n      tag_9\n      swap2\n      swap1\n      tag_10\n      jump\t// in\n    tag_9:\n      tag_11\n      jump\t// in\n    tag_8:\n      mload(0x40)\n      tag_12\n      swap2\n      swap1\n      tag_13\n      jump\t// in\n    tag_12:\n      mload(0x40)\n      dup1\n      swap2\n      sub\n      swap1\n      return\n        /* \"B/bitstreams.sol\":1975:2156  function clearBit(uint256 bitstream, uint8 index) public pure returns (uint256) {... */\n    tag_4:\n      tag_14\n      0x04\n      dup1\n      calldatasize\n      sub\n      dup2\n      add\n      swap1\n      tag_15\n      swap2\n      swap1\n      tag_10\n      jump\t// in\n    tag_15:\n      tag_16\n      jump\t// in\n    tag_14:\n      mload(0x40)\n      tag_17\n      swap2\n      swap1\n      tag_13\n      jump\t// in\n    tag_17:\n      mload(0x40)\n      dup1\n      swap2\n      sub\n      swap1\n      return\n        /* \"B/bitstreams.sol\":1039:1285  function decodeBooleans(uint256 bitstream, uint8 length) public pure returns (bool[] memory bits) {... */\n    tag_5:\n      tag_18\n      0x04\n      dup1\n      calldatasize\n      sub\n      dup2\n      add\n      swap1\n      tag_19\n      swap2\n      swap1\n      tag_10\n      jump\t// in\n    tag_19:\n      tag_20\n      jump\t// in\n    tag_18:\n      mload(0x40)\n      tag_21\n      swap2\n      swap1\n      tag_22\n      jump\t// in\n    tag_21:\n      mload(0x40)\n      dup1\n      swap2\n      sub\n      swap1\n      return\n        /* \"B/bitstreams.sol\":2410:2591  function toggleBit(uint256 bitstream, uint8 index) public pure returns (uint256) {... */\n    tag_6:\n      tag_23\n      0x04\n      dup1\n      calldatasize\n      sub\n      dup2\n      add\n      swap1\n      tag_24\n      swap2\n      swap1\n      tag_10\n      jump\t// in\n    tag_24:\n      tag_25\n      jump\t// in\n    tag_23:\n      mload(0x40)\n      tag_26\n      swap2\n      swap1\n      tag_13\n      jump\t// in\n    tag_26:\n      mload(0x40)\n      dup1\n      swap2\n      sub\n      swap1\n      return\n        /* \"B/bitstreams.sol\":513:769  function encodeBooleans(bool[] memory bits) public pure returns (uint256 bitstream) {... */\n    tag_7:\n      tag_27\n      0x04\n      dup1\n      calldatasize\n      sub\n      dup2\n      add\n      swap1\n      tag_28\n      swap2\n      swap1\n      tag_29\n      jump\t// in\n    tag_28:\n      tag_30\n      jump\t// in\n    tag_27:\n      mload(0x40)\n      tag_31\n      swap2\n      swap1\n      tag_13\n      jump\t// in\n    tag_31:\n      mload(0x40)\n      dup1\n      swap2\n      sub\n      swap1\n      return\n        /* \"B/bitstreams.sol\":1534:1712  function setBit(uint256 bitstream, uint8 index) public pure returns (uint256) {... */\n    tag_11:\n        /* \"B/bitstreams.sol\":1603:1610  uint256 */\n      0x00\n        /* \"B/bitstreams.sol\":1638:1641  256 */\n      0x0100\n        /* \"B/bitstreams.sol\":1630:1635  index */\n      dup3\n        /* \"B/bitstreams.sol\":1630:1641  index < 256 */\n      0xff\n      and\n      lt\n        /* \"B/bitstreams.sol\":1622:1664  require(index < 256, \"Index out of range\") */\n      tag_33\n      jumpi\n      mload(0x40)\n      0x08c379a000000000000000000000000000000000000000000000000000000000\n      dup2\n      mstore\n      0x04\n      add\n      tag_34\n      swap1\n      tag_35\n      jump\t// in\n    tag_34:\n      mload(0x40)\n      dup1\n      swap2\n      sub\n      swap1\n      revert\n    tag_33:\n        /* \"B/bitstreams.sol\":1699:1704  index */\n      dup2\n        /* \"B/bitstreams.sol\":1694:1704  1 << index */\n      0xff\n      and\n        /* \"B/bitstreams.sol\":1694:1695  1 */\n      0x01\n        /* \"B/bitstreams.sol\":1694:1704  1 << index */\n      swap1\n      shl\n        /* \"B/bitstreams.sol\":1681:1690  bitstream */\n      dup4\n        /* \"B/bitstreams.sol\":1681:1705  bitstream | (1 << index) */\n      or\n        /* \"B/bitstreams.sol\":1674:1705  return bitstream | (1 << index) */\n      swap1\n      pop\n        /* \"B/bitstreams.sol\":1534:1712  function setBit(uint256 bitstream, uint8 index) public pure returns (uint256) {... */\n      swap3\n      swap2\n      pop\n      pop\n      jump\t// out\n        /* \"B/bitstreams.sol\":1975:2156  function clearBit(uint256 bitstream, uint8 index) public pure returns (uint256) {... */\n    tag_16:\n        /* \"B/bitstreams.sol\":2046:2053  uint256 */\n      0x00\n        /* \"B/bitstreams.sol\":2081:2084  256 */\n      0x0100\n        /* \"B/bitstreams.sol\":2073:2078  index */\n      dup3\n        /* \"B/bitstreams.sol\":2073:2084  index < 256 */\n      0xff\n      and\n      lt\n        /* \"B/bitstreams.sol\":2065:2107  require(index < 256, \"Index out of range\") */\n      tag_37\n      jumpi\n      mload(0x40)\n      0x08c379a000000000000000000000000000000000000000000000000000000000\n      dup2\n      mstore\n      0x04\n      add\n      tag_38\n      swap1\n      tag_35\n      jump\t// in\n    tag_38:\n      mload(0x40)\n      dup1\n      swap2\n      sub\n      swap1\n      revert\n    tag_37:\n        /* \"B/bitstreams.sol\":2143:2148  index */\n      dup2\n        /* \"B/bitstreams.sol\":2138:2148  1 << index */\n      0xff\n      and\n        /* \"B/bitstreams.sol\":2138:2139  1 */\n      0x01\n        /* \"B/bitstreams.sol\":2138:2148  1 << index */\n      swap1\n      shl\n        /* \"B/bitstreams.sol\":2136:2149  ~(1 << index) */\n      not\n        /* \"B/bitstreams.sol\":2124:2133  bitstream */\n      dup4\n        /* \"B/bitstreams.sol\":2124:2149  bitstream & ~(1 << index) */\n      and\n        /* \"B/bitstreams.sol\":2117:2149  return bitstream & ~(1 << index) */\n      swap1\n      pop\n        /* \"B/bitstreams.sol\":1975:2156  function clearBit(uint256 bitstream, uint8 index) public pure returns (uint256) {... */\n      swap3\n      swap2\n      pop\n      pop\n      jump\t// out\n        /* \"B/bitstreams.sol\":1039:1285  function decodeBooleans(uint256 bitstream, uint8 length) public pure returns (bool[] memory bits) {... */\n    tag_20:\n        /* \"B/bitstreams.sol\":1117:1135  bool[] memory bits */\n      0x60\n        /* \"B/bitstreams.sol\":1165:1171  length */\n      dup2\n        /* \"B/bitstreams.sol\":1154:1172  new bool[](length) */\n      0xff\n      and\n      0xffffffffffffffff\n      dup2\n      gt\n      iszero\n      tag_40\n      jumpi\n      tag_41\n      tag_42\n      jump\t// in\n    tag_41:\n    tag_40:\n      mload(0x40)\n      swap1\n      dup1\n      dup3\n      mstore\n      dup1\n      0x20\n      mul\n      0x20\n      add\n      dup3\n      add\n      0x40\n      mstore\n      dup1\n      iszero\n      tag_43\n      jumpi\n      dup2\n      0x20\n      add\n      0x20\n      dup3\n      mul\n      dup1\n      calldatasize\n      dup4\n      calldatacopy\n      dup1\n      dup3\n      add\n      swap2\n      pop\n      pop\n      swap1\n      pop\n    tag_43:\n      pop\n        /* \"B/bitstreams.sol\":1147:1172  bits = new bool[](length) */\n      swap1\n      pop\n        /* \"B/bitstreams.sol\":1187:1194  uint8 i */\n      0x00\n        /* \"B/bitstreams.sol\":1182:1279  for (uint8 i = 0; i < length; i++) {... */\n    tag_44:\n        /* \"B/bitstreams.sol\":1204:1210  length */\n      dup3\n        /* \"B/bitstreams.sol\":1200:1210  i < length */\n      0xff\n      and\n        /* \"B/bitstreams.sol\":1200:1201  i */\n      dup2\n        /* \"B/bitstreams.sol\":1200:1210  i < length */\n      0xff\n      and\n      lt\n        /* \"B/bitstreams.sol\":1182:1279  for (uint8 i = 0; i < length; i++) {... */\n      iszero\n      tag_45\n      jumpi\n        /* \"B/bitstreams.sol\":1267:1268  1 */\n      0x01\n        /* \"B/bitstreams.sol\":1261:1262  1 */\n      dup1\n        /* \"B/bitstreams.sol\":1256:1257  i */\n      dup3\n        /* \"B/bitstreams.sol\":1243:1257  bitstream >> i */\n      0xff\n      and\n        /* \"B/bitstreams.sol\":1243:1252  bitstream */\n      dup7\n        /* \"B/bitstreams.sol\":1243:1257  bitstream >> i */\n      swap1\n      shr\n        /* \"B/bitstreams.sol\":1242:1262  (bitstream >> i) & 1 */\n      and\n        /* \"B/bitstreams.sol\":1241:1268  ((bitstream >> i) & 1) == 1 */\n      eq\n        /* \"B/bitstreams.sol\":1231:1235  bits */\n      dup3\n        /* \"B/bitstreams.sol\":1236:1237  i */\n      dup3\n        /* \"B/bitstreams.sol\":1231:1238  bits[i] */\n      0xff\n      and\n      dup2\n      mload\n      dup2\n      lt\n      tag_47\n      jumpi\n      tag_48\n      tag_49\n      jump\t// in\n    tag_48:\n    tag_47:\n      0x20\n      mul\n      0x20\n      add\n      add\n        /* \"B/bitstreams.sol\":1231:1268  bits[i] = ((bitstream >> i) & 1) == 1 */\n      swap1\n      iszero\n      iszero\n      swap1\n      dup2\n      iszero\n      iszero\n      dup2\n      mstore\n      pop\n      pop\n        /* \"B/bitstreams.sol\":1212:1215  i++ */\n      dup1\n      dup1\n      tag_50\n      swap1\n      tag_51\n      jump\t// in\n    tag_50:\n      swap2\n      pop\n      pop\n        /* \"B/bitstreams.sol\":1182:1279  for (uint8 i = 0; i < length; i++) {... */\n      jump(tag_44)\n    tag_45:\n      pop\n        /* \"B/bitstreams.sol\":1039:1285  function decodeBooleans(uint256 bitstream, uint8 length) public pure returns (bool[] memory bits) {... */\n      swap3\n      swap2\n      pop\n      pop\n      jump\t// out\n        /* \"B/bitstreams.sol\":2410:2591  function toggleBit(uint256 bitstream, uint8 index) public pure returns (uint256) {... */\n    tag_25:\n        /* \"B/bitstreams.sol\":2482:2489  uint256 */\n      0x00\n        /* \"B/bitstreams.sol\":2517:2520  256 */\n      0x0100\n        /* \"B/bitstreams.sol\":2509:2514  index */\n      dup3\n        /* \"B/bitstreams.sol\":2509:2520  index < 256 */\n      0xff\n      and\n      lt\n        /* \"B/bitstreams.sol\":2501:2543  require(index < 256, \"Index out of range\") */\n      tag_53\n      jumpi\n      mload(0x40)\n      0x08c379a000000000000000000000000000000000000000000000000000000000\n      dup2\n      mstore\n      0x04\n      add\n      tag_54\n      swap1\n      tag_35\n      jump\t// in\n    tag_54:\n      mload(0x40)\n      dup1\n      swap2\n      sub\n      swap1\n      revert\n    tag_53:\n        /* \"B/bitstreams.sol\":2578:2583  index */\n      dup2\n        /* \"B/bitstreams.sol\":2573:2583  1 << index */\n      0xff\n      and\n        /* \"B/bitstreams.sol\":2573:2574  1 */\n      0x01\n        /* \"B/bitstreams.sol\":2573:2583  1 << index */\n      swap1\n      shl\n        /* \"B/bitstreams.sol\":2560:2569  bitstream */\n      dup4\n        /* \"B/bitstreams.sol\":2560:2584  bitstream ^ (1 << index) */\n      xor\n        /* \"B/bitstreams.sol\":2553:2584  return bitstream ^ (1 << index) */\n      swap1\n      pop\n        /* \"B/bitstreams.sol\":2410:2591  function toggleBit(uint256 bitstream, uint8 index) public pure returns (uint256) {... */\n      swap3\n      swap2\n      pop\n      pop\n      jump\t// out\n        /* \"B/bitstreams.sol\":513:769  function encodeBooleans(bool[] memory bits) public pure returns (uint256 bitstream) {... */\n    tag_30:\n        /* \"B/bitstreams.sol\":578:595  uint256 bitstream */\n      0x00\n        /* \"B/bitstreams.sol\":635:644  uint256 i */\n      dup1\n        /* \"B/bitstreams.sol\":630:763  for (uint256 i = 0; i < bits.length; i++) {... */\n    tag_56:\n        /* \"B/bitstreams.sol\":654:658  bits */\n      dup3\n        /* \"B/bitstreams.sol\":654:665  bits.length */\n      mload\n        /* \"B/bitstreams.sol\":650:651  i */\n      dup2\n        /* \"B/bitstreams.sol\":650:665  i < bits.length */\n      lt\n        /* \"B/bitstreams.sol\":630:763  for (uint256 i = 0; i < bits.length; i++) {... */\n      iszero\n      tag_57\n      jumpi\n        /* \"B/bitstreams.sol\":690:694  bits */\n      dup3\n        /* \"B/bitstreams.sol\":695:696  i */\n      dup2\n        /* \"B/bitstreams.sol\":690:697  bits[i] */\n      dup2\n      mload\n      dup2\n      lt\n      tag_59\n      jumpi\n      tag_60\n      tag_49\n      jump\t// in\n    tag_60:\n    tag_59:\n      0x20\n      mul\n      0x20\n      add\n      add\n      mload\n        /* \"B/bitstreams.sol\":686:753  if (bits[i]) {... */\n      iszero\n      tag_61\n      jumpi\n        /* \"B/bitstreams.sol\":736:737  i */\n      dup1\n        /* \"B/bitstreams.sol\":731:732  1 */\n      0x01\n        /* \"B/bitstreams.sol\":731:737  1 << i */\n      swap1\n      shl\n        /* \"B/bitstreams.sol\":717:738  bitstream |= (1 << i) */\n      dup3\n      or\n      swap2\n      pop\n        /* \"B/bitstreams.sol\":686:753  if (bits[i]) {... */\n    tag_61:\n        /* \"B/bitstreams.sol\":667:670  i++ */\n      dup1\n      dup1\n      tag_62\n      swap1\n      tag_63\n      jump\t// in\n    tag_62:\n      swap2\n      pop\n      pop\n        /* \"B/bitstreams.sol\":630:763  for (uint256 i = 0; i < bits.length; i++) {... */\n      jump(tag_56)\n    tag_57:\n      pop\n        /* \"B/bitstreams.sol\":513:769  function encodeBooleans(bool[] memory bits) public pure returns (uint256 bitstream) {... */\n      swap2\n      swap1\n      pop\n      jump\t// out\n        /* \"#utility.yul\":7:82   */\n    tag_64:\n        /* \"#utility.yul\":40:46   */\n      0x00\n        /* \"#utility.yul\":73:75   */\n      0x40\n        /* \"#utility.yul\":67:76   */\n      mload\n        /* \"#utility.yul\":57:76   */\n      swap1\n      pop\n        /* \"#utility.yul\":7:82   */\n      swap1\n      jump\t// out\n        /* \"#utility.yul\":88:205   */\n    tag_65:\n        /* \"#utility.yul\":197:198   */\n      0x00\n        /* \"#utility.yul\":194:195   */\n      dup1\n        /* \"#utility.yul\":187:199   */\n      revert\n        /* \"#utility.yul\":211:328   */\n    tag_66:\n        /* \"#utility.yul\":320:321   */\n      0x00\n        /* \"#utility.yul\":317:318   */\n      dup1\n        /* \"#utility.yul\":310:322   */\n      revert\n        /* \"#utility.yul\":334:411   */\n    tag_67:\n        /* \"#utility.yul\":371:378   */\n      0x00\n        /* \"#utility.yul\":400:405   */\n      dup2\n        /* \"#utility.yul\":389:405   */\n      swap1\n      pop\n        /* \"#utility.yul\":334:411   */\n      swap2\n      swap1\n      pop\n      jump\t// out\n        /* \"#utility.yul\":417:539   */\n    tag_68:\n        /* \"#utility.yul\":490:514   */\n      tag_102\n        /* \"#utility.yul\":508:513   */\n      dup2\n        /* \"#utility.yul\":490:514   */\n      tag_67\n      jump\t// in\n    tag_102:\n        /* \"#utility.yul\":483:488   */\n      dup2\n        /* \"#utility.yul\":480:515   */\n      eq\n        /* \"#utility.yul\":470:533   */\n      tag_103\n      jumpi\n        /* \"#utility.yul\":529:530   */\n      0x00\n        /* \"#utility.yul\":526:527   */\n      dup1\n        /* \"#utility.yul\":519:531   */\n      revert\n        /* \"#utility.yul\":470:533   */\n    tag_103:\n        /* \"#utility.yul\":417:539   */\n      pop\n      jump\t// out\n        /* \"#utility.yul\":545:684   */\n    tag_69:\n        /* \"#utility.yul\":591:596   */\n      0x00\n        /* \"#utility.yul\":629:635   */\n      dup2\n        /* \"#utility.yul\":616:636   */\n      calldataload\n        /* \"#utility.yul\":607:636   */\n      swap1\n      pop\n        /* \"#utility.yul\":645:678   */\n      tag_105\n        /* \"#utility.yul\":672:677   */\n      dup2\n        /* \"#utility.yul\":645:678   */\n      tag_68\n      jump\t// in\n    tag_105:\n        /* \"#utility.yul\":545:684   */\n      swap3\n      swap2\n      pop\n      pop\n      jump\t// out\n        /* \"#utility.yul\":690:776   */\n    tag_70:\n        /* \"#utility.yul\":725:732   */\n      0x00\n        /* \"#utility.yul\":765:769   */\n      0xff\n        /* \"#utility.yul\":758:763   */\n      dup3\n        /* \"#utility.yul\":754:770   */\n      and\n        /* \"#utility.yul\":743:770   */\n      swap1\n      pop\n        /* \"#utility.yul\":690:776   */\n      swap2\n      swap1\n      pop\n      jump\t// out\n        /* \"#utility.yul\":782:900   */\n    tag_71:\n        /* \"#utility.yul\":853:875   */\n      tag_108\n        /* \"#utility.yul\":869:874   */\n      dup2\n        /* \"#utility.yul\":853:875   */\n      tag_70\n      jump\t// in\n    tag_108:\n        /* \"#utility.yul\":846:851   */\n      dup2\n        /* \"#utility.yul\":843:876   */\n      eq\n        /* \"#utility.yul\":833:894   */\n      tag_109\n      jumpi\n        /* \"#utility.yul\":890:891   */\n      0x00\n        /* \"#utility.yul\":887:888   */\n      dup1\n        /* \"#utility.yul\":880:892   */\n      revert\n        /* \"#utility.yul\":833:894   */\n    tag_109:\n        /* \"#utility.yul\":782:900   */\n      pop\n      jump\t// out\n        /* \"#utility.yul\":906:1041   */\n    tag_72:\n        /* \"#utility.yul\":950:955   */\n      0x00\n        /* \"#utility.yul\":988:994   */\n      dup2\n        /* \"#utility.yul\":975:995   */\n      calldataload\n        /* \"#utility.yul\":966:995   */\n      swap1\n      pop\n        /* \"#utility.yul\":1004:1035   */\n      tag_111\n        /* \"#utility.yul\":1029:1034   */\n      dup2\n        /* \"#utility.yul\":1004:1035   */\n      tag_71\n      jump\t// in\n    tag_111:\n        /* \"#utility.yul\":906:1041   */\n      swap3\n      swap2\n      pop\n      pop\n      jump\t// out\n        /* \"#utility.yul\":1047:1517   */\n    tag_10:\n        /* \"#utility.yul\":1113:1119   */\n      0x00\n        /* \"#utility.yul\":1121:1127   */\n      dup1\n        /* \"#utility.yul\":1170:1172   */\n      0x40\n        /* \"#utility.yul\":1158:1167   */\n      dup4\n        /* \"#utility.yul\":1149:1156   */\n      dup6\n        /* \"#utility.yul\":1145:1168   */\n      sub\n        /* \"#utility.yul\":1141:1173   */\n      slt\n        /* \"#utility.yul\":1138:1257   */\n      iszero\n      tag_113\n      jumpi\n        /* \"#utility.yul\":1176:1255   */\n      tag_114\n      tag_65\n      jump\t// in\n    tag_114:\n        /* \"#utility.yul\":1138:1257   */\n    tag_113:\n        /* \"#utility.yul\":1296:1297   */\n      0x00\n        /* \"#utility.yul\":1321:1374   */\n      tag_115\n        /* \"#utility.yul\":1366:1373   */\n      dup6\n        /* \"#utility.yul\":1357:1363   */\n      dup3\n        /* \"#utility.yul\":1346:1355   */\n      dup7\n        /* \"#utility.yul\":1342:1364   */\n      add\n        /* \"#utility.yul\":1321:1374   */\n      tag_69\n      jump\t// in\n    tag_115:\n        /* \"#utility.yul\":1311:1374   */\n      swap3\n      pop\n        /* \"#utility.yul\":1267:1384   */\n      pop\n        /* \"#utility.yul\":1423:1425   */\n      0x20\n        /* \"#utility.yul\":1449:1500   */\n      tag_116\n        /* \"#utility.yul\":1492:1499   */\n      dup6\n        /* \"#utility.yul\":1483:1489   */\n      dup3\n        /* \"#utility.yul\":1472:1481   */\n      dup7\n        /* \"#utility.yul\":1468:1490   */\n      add\n        /* \"#utility.yul\":1449:1500   */\n      tag_72\n      jump\t// in\n    tag_116:\n        /* \"#utility.yul\":1439:1500   */\n      swap2\n      pop\n        /* \"#utility.yul\":1394:1510   */\n      pop\n        /* \"#utility.yul\":1047:1517   */\n      swap3\n      pop\n      swap3\n      swap1\n      pop\n      jump\t// out\n        /* \"#utility.yul\":1523:1641   */\n    tag_73:\n        /* \"#utility.yul\":1610:1634   */\n      tag_118\n        /* \"#utility.yul\":1628:1633   */\n      dup2\n        /* \"#utility.yul\":1610:1634   */\n      tag_67\n      jump\t// in\n    tag_118:\n        /* \"#utility.yul\":1605:1608   */\n      dup3\n        /* \"#utility.yul\":1598:1635   */\n      mstore\n        /* \"#utility.yul\":1523:1641   */\n      pop\n      pop\n      jump\t// out\n        /* \"#utility.yul\":1647:1869   */\n    tag_13:\n        /* \"#utility.yul\":1740:1744   */\n      0x00\n        /* \"#utility.yul\":1778:1780   */\n      0x20\n        /* \"#utility.yul\":1767:1776   */\n      dup3\n        /* \"#utility.yul\":1763:1781   */\n      add\n        /* \"#utility.yul\":1755:1781   */\n      swap1\n      pop\n        /* \"#utility.yul\":1791:1862   */\n      tag_120\n        /* \"#utility.yul\":1859:1860   */\n      0x00\n        /* \"#utility.yul\":1848:1857   */\n      dup4\n        /* \"#utility.yul\":1844:1861   */\n      add\n        /* \"#utility.yul\":1835:1841   */\n      dup5\n        /* \"#utility.yul\":1791:1862   */\n      tag_73\n      jump\t// in\n    tag_120:\n        /* \"#utility.yul\":1647:1869   */\n      swap3\n      swap2\n      pop\n      pop\n      jump\t// out\n        /* \"#utility.yul\":1875:1986   */\n    tag_74:\n        /* \"#utility.yul\":1939:1945   */\n      0x00\n        /* \"#utility.yul\":1973:1978   */\n      dup2\n        /* \"#utility.yul\":1967:1979   */\n      mload\n        /* \"#utility.yul\":1957:1979   */\n      swap1\n      pop\n        /* \"#utility.yul\":1875:1986   */\n      swap2\n      swap1\n      pop\n      jump\t// out\n        /* \"#utility.yul\":1992:2173   */\n    tag_75:\n        /* \"#utility.yul\":2088:2099   */\n      0x00\n        /* \"#utility.yul\":2122:2128   */\n      dup3\n        /* \"#utility.yul\":2117:2120   */\n      dup3\n        /* \"#utility.yul\":2110:2129   */\n      mstore\n        /* \"#utility.yul\":2162:2166   */\n      0x20\n        /* \"#utility.yul\":2157:2160   */\n      dup3\n        /* \"#utility.yul\":2153:2167   */\n      add\n        /* \"#utility.yul\":2138:2167   */\n      swap1\n      pop\n        /* \"#utility.yul\":1992:2173   */\n      swap3\n      swap2\n      pop\n      pop\n      jump\t// out\n        /* \"#utility.yul\":2179:2308   */\n    tag_76:\n        /* \"#utility.yul\":2243:2247   */\n      0x00\n        /* \"#utility.yul\":2266:2269   */\n      dup2\n        /* \"#utility.yul\":2258:2269   */\n      swap1\n      pop\n        /* \"#utility.yul\":2296:2300   */\n      0x20\n        /* \"#utility.yul\":2291:2294   */\n      dup3\n        /* \"#utility.yul\":2287:2301   */\n      add\n        /* \"#utility.yul\":2279:2301   */\n      swap1\n      pop\n        /* \"#utility.yul\":2179:2308   */\n      swap2\n      swap1\n      pop\n      jump\t// out\n        /* \"#utility.yul\":2314:2404   */\n    tag_77:\n        /* \"#utility.yul\":2348:2355   */\n      0x00\n        /* \"#utility.yul\":2391:2396   */\n      dup2\n        /* \"#utility.yul\":2384:2397   */\n      iszero\n        /* \"#utility.yul\":2377:2398   */\n      iszero\n        /* \"#utility.yul\":2366:2398   */\n      swap1\n      pop\n        /* \"#utility.yul\":2314:2404   */\n      swap2\n      swap1\n      pop\n      jump\t// out\n        /* \"#utility.yul\":2410:2509   */\n    tag_78:\n        /* \"#utility.yul\":2481:2502   */\n      tag_126\n        /* \"#utility.yul\":2496:2501   */\n      dup2\n        /* \"#utility.yul\":2481:2502   */\n      tag_77\n      jump\t// in\n    tag_126:\n        /* \"#utility.yul\":2476:2479   */\n      dup3\n        /* \"#utility.yul\":2469:2503   */\n      mstore\n        /* \"#utility.yul\":2410:2509   */\n      pop\n      pop\n      jump\t// out\n        /* \"#utility.yul\":2515:2682   */\n    tag_79:\n        /* \"#utility.yul\":2578:2588   */\n      0x00\n        /* \"#utility.yul\":2599:2639   */\n      tag_128\n        /* \"#utility.yul\":2635:2638   */\n      dup4\n        /* \"#utility.yul\":2627:2633   */\n      dup4\n        /* \"#utility.yul\":2599:2639   */\n      tag_78\n      jump\t// in\n    tag_128:\n        /* \"#utility.yul\":2671:2675   */\n      0x20\n        /* \"#utility.yul\":2666:2669   */\n      dup4\n        /* \"#utility.yul\":2662:2676   */\n      add\n        /* \"#utility.yul\":2648:2676   */\n      swap1\n      pop\n        /* \"#utility.yul\":2515:2682   */\n      swap3\n      swap2\n      pop\n      pop\n      jump\t// out\n        /* \"#utility.yul\":2688:2798   */\n    tag_80:\n        /* \"#utility.yul\":2755:2759   */\n      0x00\n        /* \"#utility.yul\":2787:2791   */\n      0x20\n        /* \"#utility.yul\":2782:2785   */\n      dup3\n        /* \"#utility.yul\":2778:2792   */\n      add\n        /* \"#utility.yul\":2770:2792   */\n      swap1\n      pop\n        /* \"#utility.yul\":2688:2798   */\n      swap2\n      swap1\n      pop\n      jump\t// out\n        /* \"#utility.yul\":2828:3536   */\n    tag_81:\n        /* \"#utility.yul\":2941:2944   */\n      0x00\n        /* \"#utility.yul\":2970:3021   */\n      tag_131\n        /* \"#utility.yul\":3015:3020   */\n      dup3\n        /* \"#utility.yul\":2970:3021   */\n      tag_74\n      jump\t// in\n    tag_131:\n        /* \"#utility.yul\":3037:3120   */\n      tag_132\n        /* \"#utility.yul\":3113:3119   */\n      dup2\n        /* \"#utility.yul\":3108:3111   */\n      dup6\n        /* \"#utility.yul\":3037:3120   */\n      tag_75\n      jump\t// in\n    tag_132:\n        /* \"#utility.yul\":3030:3120   */\n      swap4\n      pop\n        /* \"#utility.yul\":3144:3197   */\n      tag_133\n        /* \"#utility.yul\":3191:3196   */\n      dup4\n        /* \"#utility.yul\":3144:3197   */\n      tag_76\n      jump\t// in\n    tag_133:\n        /* \"#utility.yul\":3220:3227   */\n      dup1\n        /* \"#utility.yul\":3251:3252   */\n      0x00\n        /* \"#utility.yul\":3236:3511   */\n    tag_134:\n        /* \"#utility.yul\":3261:3267   */\n      dup4\n        /* \"#utility.yul\":3258:3259   */\n      dup2\n        /* \"#utility.yul\":3255:3268   */\n      lt\n        /* \"#utility.yul\":3236:3511   */\n      iszero\n      tag_136\n      jumpi\n        /* \"#utility.yul\":3337:3343   */\n      dup2\n        /* \"#utility.yul\":3331:3344   */\n      mload\n        /* \"#utility.yul\":3364:3421   */\n      tag_137\n        /* \"#utility.yul\":3417:3420   */\n      dup9\n        /* \"#utility.yul\":3402:3415   */\n      dup3\n        /* \"#utility.yul\":3364:3421   */\n      tag_79\n      jump\t// in\n    tag_137:\n        /* \"#utility.yul\":3357:3421   */\n      swap8\n      pop\n        /* \"#utility.yul\":3444:3501   */\n      tag_138\n        /* \"#utility.yul\":3494:3500   */\n      dup4\n        /* \"#utility.yul\":3444:3501   */\n      tag_80\n      jump\t// in\n    tag_138:\n        /* \"#utility.yul\":3434:3501   */\n      swap3\n      pop\n        /* \"#utility.yul\":3296:3511   */\n      pop\n        /* \"#utility.yul\":3283:3284   */\n      0x01\n        /* \"#utility.yul\":3280:3281   */\n      dup2\n        /* \"#utility.yul\":3276:3285   */\n      add\n        /* \"#utility.yul\":3271:3285   */\n      swap1\n      pop\n        /* \"#utility.yul\":3236:3511   */\n      jump(tag_134)\n    tag_136:\n        /* \"#utility.yul\":3240:3254   */\n      pop\n        /* \"#utility.yul\":3527:3530   */\n      dup6\n        /* \"#utility.yul\":3520:3530   */\n      swap4\n      pop\n        /* \"#utility.yul\":2946:3536   */\n      pop\n      pop\n      pop\n        /* \"#utility.yul\":2828:3536   */\n      swap3\n      swap2\n      pop\n      pop\n      jump\t// out\n        /* \"#utility.yul\":3542:3903   */\n    tag_22:\n        /* \"#utility.yul\":3679:3683   */\n      0x00\n        /* \"#utility.yul\":3717:3719   */\n      0x20\n        /* \"#utility.yul\":3706:3715   */\n      dup3\n        /* \"#utility.yul\":3702:3720   */\n      add\n        /* \"#utility.yul\":3694:3720   */\n      swap1\n      pop\n        /* \"#utility.yul\":3766:3775   */\n      dup2\n        /* \"#utility.yul\":3760:3764   */\n      dup2\n        /* \"#utility.yul\":3756:3776   */\n      sub\n        /* \"#utility.yul\":3752:3753   */\n      0x00\n        /* \"#utility.yul\":3741:3750   */\n      dup4\n        /* \"#utility.yul\":3737:3754   */\n      add\n        /* \"#utility.yul\":3730:3777   */\n      mstore\n        /* \"#utility.yul\":3794:3896   */\n      tag_140\n        /* \"#utility.yul\":3891:3895   */\n      dup2\n        /* \"#utility.yul\":3882:3888   */\n      dup5\n        /* \"#utility.yul\":3794:3896   */\n      tag_81\n      jump\t// in\n    tag_140:\n        /* \"#utility.yul\":3786:3896   */\n      swap1\n      pop\n        /* \"#utility.yul\":3542:3903   */\n      swap3\n      swap2\n      pop\n      pop\n      jump\t// out\n        /* \"#utility.yul\":3909:4026   */\n    tag_82:\n        /* \"#utility.yul\":4018:4019   */\n      0x00\n        /* \"#utility.yul\":4015:4016   */\n      dup1\n        /* \"#utility.yul\":4008:4020   */\n      revert\n        /* \"#utility.yul\":4032:4134   */\n    tag_83:\n        /* \"#utility.yul\":4073:4079   */\n      0x00\n        /* \"#utility.yul\":4124:4126   */\n      0x1f\n        /* \"#utility.yul\":4120:4127   */\n      not\n        /* \"#utility.yul\":4115:4117   */\n      0x1f\n        /* \"#utility.yul\":4108:4113   */\n      dup4\n        /* \"#utility.yul\":4104:4118   */\n      add\n        /* \"#utility.yul\":4100:4128   */\n      and\n        /* \"#utility.yul\":4090:4128   */\n      swap1\n      pop\n        /* \"#utility.yul\":4032:4134   */\n      swap2\n      swap1\n      pop\n      jump\t// out\n        /* \"#utility.yul\":4140:4320   */\n    tag_42:\n        /* \"#utility.yul\":4188:4265   */\n      0x4e487b7100000000000000000000000000000000000000000000000000000000\n        /* \"#utility.yul\":4185:4186   */\n      0x00\n        /* \"#utility.yul\":4178:4266   */\n      mstore\n        /* \"#utility.yul\":4285:4289   */\n      0x41\n        /* \"#utility.yul\":4282:4283   */\n      0x04\n        /* \"#utility.yul\":4275:4290   */\n      mstore\n        /* \"#utility.yul\":4309:4313   */\n      0x24\n        /* \"#utility.yul\":4306:4307   */\n      0x00\n        /* \"#utility.yul\":4299:4314   */\n      revert\n        /* \"#utility.yul\":4326:4607   */\n    tag_84:\n        /* \"#utility.yul\":4409:4436   */\n      tag_145\n        /* \"#utility.yul\":4431:4435   */\n      dup3\n        /* \"#utility.yul\":4409:4436   */\n      tag_83\n      jump\t// in\n    tag_145:\n        /* \"#utility.yul\":4401:4407   */\n      dup2\n        /* \"#utility.yul\":4397:4437   */\n      add\n        /* \"#utility.yul\":4539:4545   */\n      dup2\n        /* \"#utility.yul\":4527:4537   */\n      dup2\n        /* \"#utility.yul\":4524:4546   */\n      lt\n        /* \"#utility.yul\":4503:4521   */\n      0xffffffffffffffff\n        /* \"#utility.yul\":4491:4501   */\n      dup3\n        /* \"#utility.yul\":4488:4522   */\n      gt\n        /* \"#utility.yul\":4485:4547   */\n      or\n        /* \"#utility.yul\":4482:4570   */\n      iszero\n      tag_146\n      jumpi\n        /* \"#utility.yul\":4550:4568   */\n      tag_147\n      tag_42\n      jump\t// in\n    tag_147:\n        /* \"#utility.yul\":4482:4570   */\n    tag_146:\n        /* \"#utility.yul\":4590:4600   */\n      dup1\n        /* \"#utility.yul\":4586:4588   */\n      0x40\n        /* \"#utility.yul\":4579:4601   */\n      mstore\n        /* \"#utility.yul\":4369:4607   */\n      pop\n        /* \"#utility.yul\":4326:4607   */\n      pop\n      pop\n      jump\t// out\n        /* \"#utility.yul\":4613:4742   */\n    tag_85:\n        /* \"#utility.yul\":4647:4653   */\n      0x00\n        /* \"#utility.yul\":4674:4694   */\n      tag_149\n      tag_64\n      jump\t// in\n    tag_149:\n        /* \"#utility.yul\":4664:4694   */\n      swap1\n      pop\n        /* \"#utility.yul\":4703:4736   */\n      tag_150\n        /* \"#utility.yul\":4731:4735   */\n      dup3\n        /* \"#utility.yul\":4723:4729   */\n      dup3\n        /* \"#utility.yul\":4703:4736   */\n      tag_84\n      jump\t// in\n    tag_150:\n        /* \"#utility.yul\":4613:4742   */\n      swap2\n      swap1\n      pop\n      jump\t// out\n        /* \"#utility.yul\":4748:5056   */\n    tag_86:\n        /* \"#utility.yul\":4822:4826   */\n      0x00\n        /* \"#utility.yul\":4912:4930   */\n      0xffffffffffffffff\n        /* \"#utility.yul\":4904:4910   */\n      dup3\n        /* \"#utility.yul\":4901:4931   */\n      gt\n        /* \"#utility.yul\":4898:4954   */\n      iszero\n      tag_152\n      jumpi\n        /* \"#utility.yul\":4934:4952   */\n      tag_153\n      tag_42\n      jump\t// in\n    tag_153:\n        /* \"#utility.yul\":4898:4954   */\n    tag_152:\n        /* \"#utility.yul\":4984:4988   */\n      0x20\n        /* \"#utility.yul\":4976:4982   */\n      dup3\n        /* \"#utility.yul\":4972:4989   */\n      mul\n        /* \"#utility.yul\":4964:4989   */\n      swap1\n      pop\n        /* \"#utility.yul\":5044:5048   */\n      0x20\n        /* \"#utility.yul\":5038:5042   */\n      dup2\n        /* \"#utility.yul\":5034:5049   */\n      add\n        /* \"#utility.yul\":5026:5049   */\n      swap1\n      pop\n        /* \"#utility.yul\":4748:5056   */\n      swap2\n      swap1\n      pop\n      jump\t// out\n        /* \"#utility.yul\":5062:5179   */\n    tag_87:\n        /* \"#utility.yul\":5171:5172   */\n      0x00\n        /* \"#utility.yul\":5168:5169   */\n      dup1\n        /* \"#utility.yul\":5161:5173   */\n      revert\n        /* \"#utility.yul\":5185:5301   */\n    tag_88:\n        /* \"#utility.yul\":5255:5276   */\n      tag_156\n        /* \"#utility.yul\":5270:5275   */\n      dup2\n        /* \"#utility.yul\":5255:5276   */\n      tag_77\n      jump\t// in\n    tag_156:\n        /* \"#utility.yul\":5248:5253   */\n      dup2\n        /* \"#utility.yul\":5245:5277   */\n      eq\n        /* \"#utility.yul\":5235:5295   */\n      tag_157\n      jumpi\n        /* \"#utility.yul\":5291:5292   */\n      0x00\n        /* \"#utility.yul\":5288:5289   */\n      dup1\n        /* \"#utility.yul\":5281:5293   */\n      revert\n        /* \"#utility.yul\":5235:5295   */\n    tag_157:\n        /* \"#utility.yul\":5185:5301   */\n      pop\n      jump\t// out\n        /* \"#utility.yul\":5307:5440   */\n    tag_89:\n        /* \"#utility.yul\":5350:5355   */\n      0x00\n        /* \"#utility.yul\":5388:5394   */\n      dup2\n        /* \"#utility.yul\":5375:5395   */\n      calldataload\n        /* \"#utility.yul\":5366:5395   */\n      swap1\n      pop\n        /* \"#utility.yul\":5404:5434   */\n      tag_159\n        /* \"#utility.yul\":5428:5433   */\n      dup2\n        /* \"#utility.yul\":5404:5434   */\n      tag_88\n      jump\t// in\n    tag_159:\n        /* \"#utility.yul\":5307:5440   */\n      swap3\n      swap2\n      pop\n      pop\n      jump\t// out\n        /* \"#utility.yul\":5460:6161   */\n    tag_90:\n        /* \"#utility.yul\":5553:5558   */\n      0x00\n        /* \"#utility.yul\":5578:5656   */\n      tag_161\n        /* \"#utility.yul\":5594:5655   */\n      tag_162\n        /* \"#utility.yul\":5648:5654   */\n      dup5\n        /* \"#utility.yul\":5594:5655   */\n      tag_86\n      jump\t// in\n    tag_162:\n        /* \"#utility.yul\":5578:5656   */\n      tag_85\n      jump\t// in\n    tag_161:\n        /* \"#utility.yul\":5569:5656   */\n      swap1\n      pop\n        /* \"#utility.yul\":5676:5681   */\n      dup1\n        /* \"#utility.yul\":5705:5711   */\n      dup4\n        /* \"#utility.yul\":5698:5703   */\n      dup3\n        /* \"#utility.yul\":5691:5712   */\n      mstore\n        /* \"#utility.yul\":5739:5743   */\n      0x20\n        /* \"#utility.yul\":5732:5737   */\n      dup3\n        /* \"#utility.yul\":5728:5744   */\n      add\n        /* \"#utility.yul\":5721:5744   */\n      swap1\n      pop\n        /* \"#utility.yul\":5792:5796   */\n      0x20\n        /* \"#utility.yul\":5784:5790   */\n      dup5\n        /* \"#utility.yul\":5780:5797   */\n      mul\n        /* \"#utility.yul\":5772:5778   */\n      dup4\n        /* \"#utility.yul\":5768:5798   */\n      add\n        /* \"#utility.yul\":5821:5824   */\n      dup6\n        /* \"#utility.yul\":5813:5819   */\n      dup2\n        /* \"#utility.yul\":5810:5825   */\n      gt\n        /* \"#utility.yul\":5807:5929   */\n      iszero\n      tag_163\n      jumpi\n        /* \"#utility.yul\":5840:5919   */\n      tag_164\n      tag_87\n      jump\t// in\n    tag_164:\n        /* \"#utility.yul\":5807:5929   */\n    tag_163:\n        /* \"#utility.yul\":5955:5961   */\n      dup4\n        /* \"#utility.yul\":5938:6155   */\n    tag_165:\n        /* \"#utility.yul\":5972:5978   */\n      dup2\n        /* \"#utility.yul\":5967:5970   */\n      dup2\n        /* \"#utility.yul\":5964:5979   */\n      lt\n        /* \"#utility.yul\":5938:6155   */\n      iszero\n      tag_167\n      jumpi\n        /* \"#utility.yul\":6047:6050   */\n      dup1\n        /* \"#utility.yul\":6076:6110   */\n      tag_168\n        /* \"#utility.yul\":6106:6109   */\n      dup9\n        /* \"#utility.yul\":6094:6104   */\n      dup3\n        /* \"#utility.yul\":6076:6110   */\n      tag_89\n      jump\t// in\n    tag_168:\n        /* \"#utility.yul\":6071:6074   */\n      dup5\n        /* \"#utility.yul\":6064:6111   */\n      mstore\n        /* \"#utility.yul\":6140:6144   */\n      0x20\n        /* \"#utility.yul\":6135:6138   */\n      dup5\n        /* \"#utility.yul\":6131:6145   */\n      add\n        /* \"#utility.yul\":6124:6145   */\n      swap4\n      pop\n        /* \"#utility.yul\":6014:6155   */\n      pop\n        /* \"#utility.yul\":5998:6002   */\n      0x20\n        /* \"#utility.yul\":5993:5996   */\n      dup2\n        /* \"#utility.yul\":5989:6003   */\n      add\n        /* \"#utility.yul\":5982:6003   */\n      swap1\n      pop\n        /* \"#utility.yul\":5938:6155   */\n      jump(tag_165)\n    tag_167:\n        /* \"#utility.yul\":5942:5963   */\n      pop\n        /* \"#utility.yul\":5559:6161   */\n      pop\n      pop\n        /* \"#utility.yul\":5460:6161   */\n      swap4\n      swap3\n      pop\n      pop\n      pop\n      jump\t// out\n        /* \"#utility.yul\":6181:6545   */\n    tag_91:\n        /* \"#utility.yul\":6249:6254   */\n      0x00\n        /* \"#utility.yul\":6298:6301   */\n      dup3\n        /* \"#utility.yul\":6291:6295   */\n      0x1f\n        /* \"#utility.yul\":6283:6289   */\n      dup4\n        /* \"#utility.yul\":6279:6296   */\n      add\n        /* \"#utility.yul\":6275:6302   */\n      slt\n        /* \"#utility.yul\":6265:6387   */\n      tag_170\n      jumpi\n        /* \"#utility.yul\":6306:6385   */\n      tag_171\n      tag_82\n      jump\t// in\n    tag_171:\n        /* \"#utility.yul\":6265:6387   */\n    tag_170:\n        /* \"#utility.yul\":6423:6429   */\n      dup2\n        /* \"#utility.yul\":6410:6430   */\n      calldataload\n        /* \"#utility.yul\":6448:6539   */\n      tag_172\n        /* \"#utility.yul\":6535:6538   */\n      dup5\n        /* \"#utility.yul\":6527:6533   */\n      dup3\n        /* \"#utility.yul\":6520:6524   */\n      0x20\n        /* \"#utility.yul\":6512:6518   */\n      dup7\n        /* \"#utility.yul\":6508:6525   */\n      add\n        /* \"#utility.yul\":6448:6539   */\n      tag_90\n      jump\t// in\n    tag_172:\n        /* \"#utility.yul\":6439:6539   */\n      swap2\n      pop\n        /* \"#utility.yul\":6255:6545   */\n      pop\n        /* \"#utility.yul\":6181:6545   */\n      swap3\n      swap2\n      pop\n      pop\n      jump\t// out\n        /* \"#utility.yul\":6551:7084   */\n    tag_29:\n        /* \"#utility.yul\":6632:6638   */\n      0x00\n        /* \"#utility.yul\":6681:6683   */\n      0x20\n        /* \"#utility.yul\":6669:6678   */\n      dup3\n        /* \"#utility.yul\":6660:6667   */\n      dup5\n        /* \"#utility.yul\":6656:6679   */\n      sub\n        /* \"#utility.yul\":6652:6684   */\n      slt\n        /* \"#utility.yul\":6649:6768   */\n      iszero\n      tag_174\n      jumpi\n        /* \"#utility.yul\":6687:6766   */\n      tag_175\n      tag_65\n      jump\t// in\n    tag_175:\n        /* \"#utility.yul\":6649:6768   */\n    tag_174:\n        /* \"#utility.yul\":6835:6836   */\n      0x00\n        /* \"#utility.yul\":6824:6833   */\n      dup3\n        /* \"#utility.yul\":6820:6837   */\n      add\n        /* \"#utility.yul\":6807:6838   */\n      calldataload\n        /* \"#utility.yul\":6865:6883   */\n      0xffffffffffffffff\n        /* \"#utility.yul\":6857:6863   */\n      dup2\n        /* \"#utility.yul\":6854:6884   */\n      gt\n        /* \"#utility.yul\":6851:6968   */\n      iszero\n      tag_176\n      jumpi\n        /* \"#utility.yul\":6887:6966   */\n      tag_177\n      tag_66\n      jump\t// in\n    tag_177:\n        /* \"#utility.yul\":6851:6968   */\n    tag_176:\n        /* \"#utility.yul\":6992:7067   */\n      tag_178\n        /* \"#utility.yul\":7059:7066   */\n      dup5\n        /* \"#utility.yul\":7050:7056   */\n      dup3\n        /* \"#utility.yul\":7039:7048   */\n      dup6\n        /* \"#utility.yul\":7035:7057   */\n      add\n        /* \"#utility.yul\":6992:7067   */\n      tag_91\n      jump\t// in\n    tag_178:\n        /* \"#utility.yul\":6982:7067   */\n      swap2\n      pop\n        /* \"#utility.yul\":6778:7077   */\n      pop\n        /* \"#utility.yul\":6551:7084   */\n      swap3\n      swap2\n      pop\n      pop\n      jump\t// out\n        /* \"#utility.yul\":7090:7259   */\n    tag_92:\n        /* \"#utility.yul\":7174:7185   */\n      0x00\n        /* \"#utility.yul\":7208:7214   */\n      dup3\n        /* \"#utility.yul\":7203:7206   */\n      dup3\n        /* \"#utility.yul\":7196:7215   */\n      mstore\n        /* \"#utility.yul\":7248:7252   */\n      0x20\n        /* \"#utility.yul\":7243:7246   */\n      dup3\n        /* \"#utility.yul\":7239:7253   */\n      add\n        /* \"#utility.yul\":7224:7253   */\n      swap1\n      pop\n        /* \"#utility.yul\":7090:7259   */\n      swap3\n      swap2\n      pop\n      pop\n      jump\t// out\n        /* \"#utility.yul\":7265:7433   */\n    tag_93:\n        /* \"#utility.yul\":7405:7425   */\n      0x496e646578206f7574206f662072616e67650000000000000000000000000000\n        /* \"#utility.yul\":7401:7402   */\n      0x00\n        /* \"#utility.yul\":7393:7399   */\n      dup3\n        /* \"#utility.yul\":7389:7403   */\n      add\n        /* \"#utility.yul\":7382:7426   */\n      mstore\n        /* \"#utility.yul\":7265:7433   */\n      pop\n      jump\t// out\n        /* \"#utility.yul\":7439:7805   */\n    tag_94:\n        /* \"#utility.yul\":7581:7584   */\n      0x00\n        /* \"#utility.yul\":7602:7669   */\n      tag_182\n        /* \"#utility.yul\":7666:7668   */\n      0x12\n        /* \"#utility.yul\":7661:7664   */\n      dup4\n        /* \"#utility.yul\":7602:7669   */\n      tag_92\n      jump\t// in\n    tag_182:\n        /* \"#utility.yul\":7595:7669   */\n      swap2\n      pop\n        /* \"#utility.yul\":7678:7771   */\n      tag_183\n        /* \"#utility.yul\":7767:7770   */\n      dup3\n        /* \"#utility.yul\":7678:7771   */\n      tag_93\n      jump\t// in\n    tag_183:\n        /* \"#utility.yul\":7796:7798   */\n      0x20\n        /* \"#utility.yul\":7791:7794   */\n      dup3\n        /* \"#utility.yul\":7787:7799   */\n      add\n        /* \"#utility.yul\":7780:7799   */\n      swap1\n      pop\n        /* \"#utility.yul\":7439:7805   */\n      swap2\n      swap1\n      pop\n      jump\t// out\n        /* \"#utility.yul\":7811:8230   */\n    tag_35:\n        /* \"#utility.yul\":7977:7981   */\n      0x00\n        /* \"#utility.yul\":8015:8017   */\n      0x20\n        /* \"#utility.yul\":8004:8013   */\n      dup3\n        /* \"#utility.yul\":8000:8018   */\n      add\n        /* \"#utility.yul\":7992:8018   */\n      swap1\n      pop\n        /* \"#utility.yul\":8064:8073   */\n      dup2\n        /* \"#utility.yul\":8058:8062   */\n      dup2\n        /* \"#utility.yul\":8054:8074   */\n      sub\n        /* \"#utility.yul\":8050:8051   */\n      0x00\n        /* \"#utility.yul\":8039:8048   */\n      dup4\n        /* \"#utility.yul\":8035:8052   */\n      add\n        /* \"#utility.yul\":8028:8075   */\n      mstore\n        /* \"#utility.yul\":8092:8223   */\n      tag_185\n        /* \"#utility.yul\":8218:8222   */\n      dup2\n        /* \"#utility.yul\":8092:8223   */\n      tag_94\n      jump\t// in\n    tag_185:\n        /* \"#utility.yul\":8084:8223   */\n      swap1\n      pop\n        /* \"#utility.yul\":7811:8230   */\n      swap2\n      swap1\n      pop\n      jump\t// out\n        /* \"#utility.yul\":8236:8416   */\n    tag_49:\n        /* \"#utility.yul\":8284:8361   */\n      0x4e487b7100000000000000000000000000000000000000000000000000000000\n        /* \"#utility.yul\":8281:8282   */\n      0x00\n        /* \"#utility.yul\":8274:8362   */\n      mstore\n        /* \"#utility.yul\":8381:8385   */\n      0x32\n        /* \"#utility.yul\":8378:8379   */\n      0x04\n        /* \"#utility.yul\":8371:8386   */\n      mstore\n        /* \"#utility.yul\":8405:8409   */\n      0x24\n        /* \"#utility.yul\":8402:8403   */\n      0x00\n        /* \"#utility.yul\":8395:8410   */\n      revert\n        /* \"#utility.yul\":8422:8602   */\n    tag_95:\n        /* \"#utility.yul\":8470:8547   */\n      0x4e487b7100000000000000000000000000000000000000000000000000000000\n        /* \"#utility.yul\":8467:8468   */\n      0x00\n        /* \"#utility.yul\":8460:8548   */\n      mstore\n        /* \"#utility.yul\":8567:8571   */\n      0x11\n        /* \"#utility.yul\":8564:8565   */\n      0x04\n        /* \"#utility.yul\":8557:8572   */\n      mstore\n        /* \"#utility.yul\":8591:8595   */\n      0x24\n        /* \"#utility.yul\":8588:8589   */\n      0x00\n        /* \"#utility.yul\":8581:8596   */\n      revert\n        /* \"#utility.yul\":8608:8775   */\n    tag_51:\n        /* \"#utility.yul\":8645:8648   */\n      0x00\n        /* \"#utility.yul\":8668:8690   */\n      tag_189\n        /* \"#utility.yul\":8684:8689   */\n      dup3\n        /* \"#utility.yul\":8668:8690   */\n      tag_70\n      jump\t// in\n    tag_189:\n        /* \"#utility.yul\":8659:8690   */\n      swap2\n      pop\n        /* \"#utility.yul\":8712:8716   */\n      0xff\n        /* \"#utility.yul\":8705:8710   */\n      dup3\n        /* \"#utility.yul\":8702:8717   */\n      sub\n        /* \"#utility.yul\":8699:8740   */\n      tag_190\n      jumpi\n        /* \"#utility.yul\":8720:8738   */\n      tag_191\n      tag_95\n      jump\t// in\n    tag_191:\n        /* \"#utility.yul\":8699:8740   */\n    tag_190:\n        /* \"#utility.yul\":8767:8768   */\n      0x01\n        /* \"#utility.yul\":8760:8765   */\n      dup3\n        /* \"#utility.yul\":8756:8769   */\n      add\n        /* \"#utility.yul\":8749:8769   */\n      swap1\n      pop\n        /* \"#utility.yul\":8608:8775   */\n      swap2\n      swap1\n      pop\n      jump\t// out\n        /* \"#utility.yul\":8781:9014   */\n    tag_63:\n        /* \"#utility.yul\":8820:8823   */\n      0x00\n        /* \"#utility.yul\":8843:8867   */\n      tag_193\n        /* \"#utility.yul\":8861:8866   */\n      dup3\n        /* \"#utility.yul\":8843:8867   */\n      tag_67\n      jump\t// in\n    tag_193:\n        /* \"#utility.yul\":8834:8867   */\n      swap2\n      pop\n        /* \"#utility.yul\":8889:8955   */\n      0xffffffffffffffffffffffffffffffffffffffffffffffffffffffffffffffff\n        /* \"#utility.yul\":8882:8887   */\n      dup3\n        /* \"#utility.yul\":8879:8956   */\n      sub\n        /* \"#utility.yul\":8876:8979   */\n      tag_194\n      jumpi\n        /* \"#utility.yul\":8959:8977   */\n      tag_195\n      tag_95\n      jump\t// in\n    tag_195:\n        /* \"#utility.yul\":8876:8979   */\n    tag_194:\n        /* \"#utility.yul\":9006:9007   */\n      0x01\n        /* \"#utility.yul\":8999:9004   */\n      dup3\n        /* \"#utility.yul\":8995:9008   */\n      add\n        /* \"#utility.yul\":8988:9008   */\n      swap1\n      pop\n        /* \"#utility.yul\":8781:9014   */\n      swap2\n      swap1\n      pop\n      jump\t// out\n\n    auxdata: 0xa264697066735822122067f121ea147a84089ab29ed12cdb6914109270bd7c128c30dfde1d186d15778064736f6c63430008130033\n}\n",
				"bytecode": {
					"linkReferences": {},
					"object": "608060405234801561001057600080fd5b50610886806100206000396000f3fe608060405234801561001057600080fd5b50600436106100575760003560e01c80634ee290901461005c5780635fc781e41461008c5780636df384db146100bc578063b1f85130146100ec578063c406504f1461011c575b600080fd5b610076600480360381019061007191906103e0565b61014c565b604051610083919061042f565b60405180910390f35b6100a660048036038101906100a191906103e0565b6101a7565b6040516100b3919061042f565b60405180910390f35b6100d660048036038101906100d191906103e0565b610203565b6040516100e39190610514565b60405180910390f35b610106600480360381019061010191906103e0565b6102b2565b604051610113919061042f565b60405180910390f35b610136600480360381019061013191906106bb565b61030d565b604051610143919061042f565b60405180910390f35b60006101008260ff1610610195576040517f08c379a000000000000000000000000000000000000000000000000000000000815260040161018c90610761565b60405180910390fd5b8160ff166001901b8317905092915050565b60006101008260ff16106101f0576040517f08c379a00000000000000000000000000000000000000000000000000000000081526004016101e790610761565b60405180910390fd5b8160ff166001901b198316905092915050565b60608160ff1667ffffffffffffffff8111156102225761022161054c565b5b6040519080825280602002602001820160405280156102505781602001602082028036833780820191505090505b50905060005b8260ff168160ff1610156102ab576001808260ff1686901c1614828260ff168151811061028657610285610781565b5b60200260200101901515908115158152505080806102a3906107df565b915050610256565b5092915050565b60006101008260ff16106102fb576040517f08c379a00000000000000000000000000000000000000000000000000000000081526004016102f290610761565b60405180910390fd5b8160ff166001901b8318905092915050565b6000805b82518110156103575782818151811061032d5761032c610781565b5b60200260200101511561034457806001901b821791505b808061034f90610808565b915050610311565b50919050565b6000604051905090565b600080fd5b600080fd5b6000819050919050565b61038481610371565b811461038f57600080fd5b50565b6000813590506103a18161037b565b92915050565b600060ff82169050919050565b6103bd816103a7565b81146103c857600080fd5b50565b6000813590506103da816103b4565b92915050565b600080604083850312156103f7576103f6610367565b5b600061040585828601610392565b9250506020610416858286016103cb565b9150509250929050565b61042981610371565b82525050565b60006020820190506104446000830184610420565b92915050565b600081519050919050565b600082825260208201905092915050565b6000819050602082019050919050565b60008115159050919050565b61048b81610476565b82525050565b600061049d8383610482565b60208301905092915050565b6000602082019050919050565b60006104c18261044a565b6104cb8185610455565b93506104d683610466565b8060005b838110156105075781516104ee8882610491565b97506104f9836104a9565b9250506001810190506104da565b5085935050505092915050565b6000602082019050818103600083015261052e81846104b6565b905092915050565b600080fd5b6000601f19601f8301169050919050565b7f4e487b7100000000000000000000000000000000000000000000000000000000600052604160045260246000fd5b6105848261053b565b810181811067ffffffffffffffff821117156105a3576105a261054c565b5b80604052505050565b60006105b661035d565b90506105c2828261057b565b919050565b600067ffffffffffffffff8211156105e2576105e161054c565b5b602082029050602081019050919050565b600080fd5b61060181610476565b811461060c57600080fd5b50565b60008135905061061e816105f8565b92915050565b6000610637610632846105c7565b6105ac565b9050808382526020820190506020840283018581111561065a576106596105f3565b5b835b81811015610683578061066f888261060f565b84526020840193505060208101905061065c565b5050509392505050565b600082601f8301126106a2576106a1610536565b5b81356106b2848260208601610624565b91505092915050565b6000602082840312156106d1576106d0610367565b5b600082013567ffffffffffffffff8111156106ef576106ee61036c565b5b6106fb8482850161068d565b91505092915050565b600082825260208201905092915050565b7f496e646578206f7574206f662072616e67650000000000000000000000000000600082015250565b600061074b601283610704565b915061075682610715565b602082019050919050565b6000602082019050818103600083015261077a8161073e565b9050919050565b7f4e487b7100000000000000000000000000000000000000000000000000000000600052603260045260246000fd5b7f4e487b7100000000000000000000000000000000000000000000000000000000600052601160045260246000fd5b60006107ea826103a7565b915060ff82036107fd576107fc6107b0565b5b600182019050919050565b600061081382610371565b91507fffffffffffffffffffffffffffffffffffffffffffffffffffffffffffffffff8203610845576108446107b0565b5b60018201905091905056fea264697066735822122067f121ea147a84089ab29ed12cdb6914109270bd7c128c30dfde1d186d15778064736f6c63430008130033",
					"opcodes": "PUSH1 0x80 PUSH1 0x40 MSTORE CALLVALUE DUP1 ISZERO PUSH2 0x10 JUMPI PUSH1 0x0 DUP1 REVERT JUMPDEST POP PUSH2 0x886 DUP1 PUSH2 0x20 PUSH1 0x0 CODECOPY PUSH1 0x0 RETURN INVALID PUSH1 0x80 PUSH1 0x40 MSTORE CALLVALUE DUP1 ISZERO PUSH2 0x10 JUMPI PUSH1 0x0 DUP1 REVERT JUMPDEST POP PUSH1 0x4 CALLDATASIZE LT PUSH2 0x57 JUMPI PUSH1 0x0 CALLDATALOAD PUSH1 0xE0 SHR DUP1 PUSH4 0x4EE29090 EQ PUSH2 0x5C JUMPI DUP1 PUSH4 0x5FC781E4 EQ PUSH2 0x8C JUMPI DUP1 PUSH4 0x6DF384DB EQ PUSH2 0xBC JUMPI DUP1 PUSH4 0xB1F85130 EQ PUSH2 0xEC JUMPI DUP1 PUSH4 0xC406504F EQ PUSH2 0x11C JUMPI JUMPDEST PUSH1 0x0 DUP1 REVERT JUMPDEST PUSH2 0x76 PUSH1 0x4 DUP1 CALLDATASIZE SUB DUP2 ADD SWAP1 PUSH2 0x71 SWAP2 SWAP1 PUSH2 0x3E0 JUMP JUMPDEST PUSH2 0x14C JUMP JUMPDEST PUSH1 0x40 MLOAD PUSH2 0x83 SWAP2 SWAP1 PUSH2 0x42F JUMP JUMPDEST PUSH1 0x40 MLOAD DUP1 SWAP2 SUB SWAP1 RETURN JUMPDEST PUSH2 0xA6 PUSH1 0x4 DUP1 CALLDATASIZE SUB DUP2 ADD SWAP1 PUSH2 0xA1 SWAP2 SWAP1 PUSH2 0x3E0 JUMP JUMPDEST PUSH2 0x1A7 JUMP JUMPDEST PUSH1 0x40 MLOAD PUSH2 0xB3 SWAP2 SWAP1 PUSH2 0x42F JUMP JUMPDEST PUSH1 0x40 MLOAD DUP1 SWAP2 SUB SWAP1 RETURN JUMPDEST PUSH2 0xD6 PUSH1 0x4 DUP1 CALLDATASIZE SUB DUP2 ADD SWAP1 PUSH2 0xD1 SWAP2 SWAP1 PUSH2 0x3E0 JUMP JUMPDEST PUSH2 0x203 JUMP JUMPDEST PUSH1 0x40 MLOAD PUSH2 0xE3 SWAP2 SWAP1 PUSH2 0x514 JUMP JUMPDEST PUSH1 0x40 MLOAD DUP1 SWAP2 SUB SWAP1 RETURN JUMPDEST PUSH2 0x106 PUSH1 0x4 DUP1 CALLDATASIZE SUB DUP2 ADD SWAP1 PUSH2 0x101 SWAP2 SWAP1 PUSH2 0x3E0 JUMP JUMPDEST PUSH2 0x2B2 JUMP JUMPDEST PUSH1 0x40 MLOAD PUSH2 0x113 SWAP2 SWAP1 PUSH2 0x42F JUMP JUMPDEST PUSH1 0x40 MLOAD DUP1 SWAP2 SUB SWAP1 RETURN JUMPDEST PUSH2 0x136 PUSH1 0x4 DUP1 CALLDATASIZE SUB DUP2 ADD SWAP1 PUSH2 0x131 SWAP2 SWAP1 PUSH2 0x6BB JUMP JUMPDEST PUSH2 0x30D JUMP JUMPDEST PUSH1 0x40 MLOAD PUSH2 0x143 SWAP2 SWAP1 PUSH2 0x42F JUMP JUMPDEST PUSH1 0x40 MLOAD DUP1 SWAP2 SUB SWAP1 RETURN JUMPDEST PUSH1 0x0 PUSH2 0x100 DUP3 PUSH1 0xFF AND LT PUSH2 0x195 JUMPI PUSH1 0x40 MLOAD PUSH32 0x8C379A000000000000000000000000000000000000000000000000000000000 DUP2 MSTORE PUSH1 0x4 ADD PUSH2 0x18C SWAP1 PUSH2 0x761 JUMP JUMPDEST PUSH1 0x40 MLOAD DUP1 SWAP2 SUB SWAP1 REVERT JUMPDEST DUP2 PUSH1 0xFF AND PUSH1 0x1 SWAP1 SHL DUP4 OR SWAP1 POP SWAP3 SWAP2 POP POP JUMP JUMPDEST PUSH1 0x0 PUSH2 0x100 DUP3 PUSH1 0xFF AND LT PUSH2 0x1F0 JUMPI PUSH1 0x40 MLOAD PUSH32 0x8C379A000000000000000000000000000000000000000000000000000000000 DUP2 MSTORE PUSH1 0x4 ADD PUSH2 0x1E7 SWAP1 PUSH2 0x761 JUMP JUMPDEST PUSH1 0x40 MLOAD DUP1 SWAP2 SUB SWAP1 REVERT JUMPDEST DUP2 PUSH1 0xFF AND PUSH1 0x1 SWAP1 SHL NOT DUP4 AND SWAP1 POP SWAP3 SWAP2 POP POP JUMP JUMPDEST PUSH1 0x60 DUP2 PUSH1 0xFF AND PUSH8 0xFFFFFFFFFFFFFFFF DUP2 GT ISZERO PUSH2 0x222 JUMPI PUSH2 0x221 PUSH2 0x54C JUMP JUMPDEST JUMPDEST PUSH1 0x40 MLOAD SWAP1 DUP1 DUP3 MSTORE DUP1 PUSH1 0x20 MUL PUSH1 0x20 ADD DUP3 ADD PUSH1 0x40 MSTORE DUP1 ISZERO PUSH2 0x250 JUMPI DUP2 PUSH1 0x20 ADD PUSH1 0x20 DUP3 MUL DUP1 CALLDATASIZE DUP4 CALLDATACOPY DUP1 DUP3 ADD SWAP2 POP POP SWAP1 POP JUMPDEST POP SWAP1 POP PUSH1 0x0 JUMPDEST DUP3 PUSH1 0xFF AND DUP2 PUSH1 0xFF AND LT ISZERO PUSH2 0x2AB JUMPI PUSH1 0x1 DUP1 DUP3 PUSH1 0xFF AND DUP7 SWAP1 SHR AND EQ DUP3 DUP3 PUSH1 0xFF AND DUP2 MLOAD DUP2 LT PUSH2 0x286 JUMPI PUSH2 0x285 PUSH2 0x781 JUMP JUMPDEST JUMPDEST PUSH1 0x20 MUL PUSH1 0x20 ADD ADD SWAP1 ISZERO ISZERO SWAP1 DUP2 ISZERO ISZERO DUP2 MSTORE POP POP DUP1 DUP1 PUSH2 0x2A3 SWAP1 PUSH2 0x7DF JUMP JUMPDEST SWAP2 POP POP PUSH2 0x256 JUMP JUMPDEST POP SWAP3 SWAP2 POP POP JUMP JUMPDEST PUSH1 0x0 PUSH2 0x100 DUP3 PUSH1 0xFF AND LT PUSH2 0x2FB JUMPI PUSH1 0x40 MLOAD PUSH32 0x8C379A000000000000000000000000000000000000000000000000000000000 DUP2 MSTORE PUSH1 0x4 ADD PUSH2 0x2F2 SWAP1 PUSH2 0x761 JUMP JUMPDEST PUSH1 0x40 MLOAD DUP1 SWAP2 SUB SWAP1 REVERT JUMPDEST DUP2 PUSH1 0xFF AND PUSH1 0x1 SWAP1 SHL DUP4 XOR SWAP1 POP SWAP3 SWAP2 POP POP JUMP JUMPDEST PUSH1 0x0 DUP1 JUMPDEST DUP3 MLOAD DUP2 LT ISZERO PUSH2 0x357 JUMPI DUP3 DUP2 DUP2 MLOAD DUP2 LT PUSH2 0x32D JUMPI PUSH2 0x32C PUSH2 0x781 JUMP JUMPDEST JUMPDEST PUSH1 0x20 MUL PUSH1 0x20 ADD ADD MLOAD ISZERO PUSH2 0x344 JUMPI DUP1 PUSH1 0x1 SWAP1 SHL DUP3 OR SWAP2 POP JUMPDEST DUP1 DUP1 PUSH2 0x34F SWAP1 PUSH2 0x808 JUMP JUMPDEST SWAP2 POP POP PUSH2 0x311 JUMP JUMPDEST POP SWAP2 SWAP1 POP JUMP JUMPDEST PUSH1 0x0 PUSH1 0x40 MLOAD SWAP1 POP SWAP1 JUMP JUMPDEST PUSH1 0x0 DUP1 REVERT JUMPDEST PUSH1 0x0 DUP1 REVERT JUMPDEST PUSH1 0x0 DUP2 SWAP1 POP SWAP2 SWAP1 POP JUMP JUMPDEST PUSH2 0x384 DUP2 PUSH2 0x371 JUMP JUMPDEST DUP2 EQ PUSH2 0x38F JUMPI PUSH1 0x0 DUP1 REVERT JUMPDEST POP JUMP JUMPDEST PUSH1 0x0 DUP2 CALLDATALOAD SWAP1 POP PUSH2 0x3A1 DUP2 PUSH2 0x37B JUMP JUMPDEST SWAP3 SWAP2 POP POP JUMP JUMPDEST PUSH1 0x0 PUSH1 0xFF DUP3 AND SWAP1 POP SWAP2 SWAP1 POP JUMP JUMPDEST PUSH2 0x3BD DUP2 PUSH2 0x3A7 JUMP JUMPDEST DUP2 EQ PUSH2 0x3C8 JUMPI PUSH1 0x0 DUP1 REVERT JUMPDEST POP JUMP JUMPDEST PUSH1 0x0 DUP2 CALLDATALOAD SWAP1 POP PUSH2 0x3DA DUP2 PUSH2 0x3B4 JUMP JUMPDEST SWAP3 SWAP2 POP POP JUMP JUMPDEST PUSH1 0x0 DUP1 PUSH1 0x40 DUP4 DUP6 SUB SLT ISZERO PUSH2 0x3F7 JUMPI PUSH2 0x3F6 PUSH2 0x367 JUMP JUMPDEST JUMPDEST PUSH1 0x0 PUSH2 0x405 DUP6 DUP3 DUP7 ADD PUSH2 0x392 JUMP JUMPDEST SWAP3 POP POP PUSH1 0x20 PUSH2 0x416 DUP6 DUP3 DUP7 ADD PUSH2 0x3CB JUMP JUMPDEST SWAP2 POP POP SWAP3 POP SWAP3 SWAP1 POP JUMP JUMPDEST PUSH2 0x429 DUP2 PUSH2 0x371 JUMP JUMPDEST DUP3 MSTORE POP POP JUMP JUMPDEST PUSH1 0x0 PUSH1 0x20 DUP3 ADD SWAP1 POP PUSH2 0x444 PUSH1 0x0 DUP4 ADD DUP5 PUSH2 0x420 JUMP JUMPDEST SWAP3 SWAP2 POP POP JUMP JUMPDEST PUSH1 0x0 DUP2 MLOAD SWAP1 POP SWAP2 SWAP1 POP JUMP JUMPDEST PUSH1 0x0 DUP3 DUP3 MSTORE PUSH1 0x20 DUP3 ADD SWAP1 POP SWAP3 SWAP2 POP POP JUMP JUMPDEST PUSH1 0x0 DUP2 SWAP1 POP PUSH1 0x20 DUP3 ADD SWAP1 POP SWAP2 SWAP1 POP JUMP JUMPDEST PUSH1 0x0 DUP2 ISZERO ISZERO SWAP1 POP SWAP2 SWAP1 POP JUMP JUMPDEST PUSH2 0x48B DUP2 PUSH2 0x476 JUMP JUMPDEST DUP3 MSTORE POP POP JUMP JUMPDEST PUSH1 0x0 PUSH2 0x49D DUP4 DUP4 PUSH2 0x482 JUMP JUMPDEST PUSH1 0x20 DUP4 ADD SWAP1 POP SWAP3 SWAP2 POP POP JUMP JUMPDEST PUSH1 0x0 PUSH1 0x20 DUP3 ADD SWAP1 POP SWAP2 SWAP1 POP JUMP JUMPDEST PUSH1 0x0 PUSH2 0x4C1 DUP3 PUSH2 0x44A JUMP JUMPDEST PUSH2 0x4CB DUP2 DUP6 PUSH2 0x455 JUMP JUMPDEST SWAP4 POP PUSH2 0x4D6 DUP4 PUSH2 0x466 JUMP JUMPDEST DUP1 PUSH1 0x0 JUMPDEST DUP4 DUP2 LT ISZERO PUSH2 0x507 JUMPI DUP2 MLOAD PUSH2 0x4EE DUP9 DUP3 PUSH2 0x491 JUMP JUMPDEST SWAP8 POP PUSH2 0x4F9 DUP4 PUSH2 0x4A9 JUMP JUMPDEST SWAP3 POP POP PUSH1 0x1 DUP2 ADD SWAP1 POP PUSH2 0x4DA JUMP JUMPDEST POP DUP6 SWAP4 POP POP POP POP SWAP3 SWAP2 POP POP JUMP JUMPDEST PUSH1 0x0 PUSH1 0x20 DUP3 ADD SWAP1 POP DUP2 DUP2 SUB PUSH1 0x0 DUP4 ADD MSTORE PUSH2 0x52E DUP2 DUP5 PUSH2 0x4B6 JUMP JUMPDEST SWAP1 POP SWAP3 SWAP2 POP POP JUMP JUMPDEST PUSH1 0x0 DUP1 REVERT JUMPDEST PUSH1 0x0 PUSH1 0x1F NOT PUSH1 0x1F DUP4 ADD AND SWAP1 POP SWAP2 SWAP1 POP JUMP JUMPDEST PUSH32 0x4E487B7100000000000000000000000000000000000000000000000000000000 PUSH1 0x0 MSTORE PUSH1 0x41 PUSH1 0x4 MSTORE PUSH1 0x24 PUSH1 0x0 REVERT JUMPDEST PUSH2 0x584 DUP3 PUSH2 0x53B JUMP JUMPDEST DUP2 ADD DUP2 DUP2 LT PUSH8 0xFFFFFFFFFFFFFFFF DUP3 GT OR ISZERO PUSH2 0x5A3 JUMPI PUSH2 0x5A2 PUSH2 0x54C JUMP JUMPDEST JUMPDEST DUP1 PUSH1 0x40 MSTORE POP POP POP JUMP JUMPDEST PUSH1 0x0 PUSH2 0x5B6 PUSH2 0x35D JUMP JUMPDEST SWAP1 POP PUSH2 0x5C2 DUP3 DUP3 PUSH2 0x57B JUMP JUMPDEST SWAP2 SWAP1 POP JUMP JUMPDEST PUSH1 0x0 PUSH8 0xFFFFFFFFFFFFFFFF DUP3 GT ISZERO PUSH2 0x5E2 JUMPI PUSH2 0x5E1 PUSH2 0x54C JUMP JUMPDEST JUMPDEST PUSH1 0x20 DUP3 MUL SWAP1 POP PUSH1 0x20 DUP2 ADD SWAP1 POP SWAP2 SWAP1 POP JUMP JUMPDEST PUSH1 0x0 DUP1 REVERT JUMPDEST PUSH2 0x601 DUP2 PUSH2 0x476 JUMP JUMPDEST DUP2 EQ PUSH2 0x60C JUMPI PUSH1 0x0 DUP1 REVERT JUMPDEST POP JUMP JUMPDEST PUSH1 0x0 DUP2 CALLDATALOAD SWAP1 POP PUSH2 0x61E DUP2 PUSH2 0x5F8 JUMP JUMPDEST SWAP3 SWAP2 POP POP JUMP JUMPDEST PUSH1 0x0 PUSH2 0x637 PUSH2 0x632 DUP5 PUSH2 0x5C7 JUMP JUMPDEST PUSH2 0x5AC JUMP JUMPDEST SWAP1 POP DUP1 DUP4 DUP3 MSTORE PUSH1 0x20 DUP3 ADD SWAP1 POP PUSH1 0x20 DUP5 MUL DUP4 ADD DUP6 DUP2 GT ISZERO PUSH2 0x65A JUMPI PUSH2 0x659 PUSH2 0x5F3 JUMP JUMPDEST JUMPDEST DUP4 JUMPDEST DUP2 DUP2 LT ISZERO PUSH2 0x683 JUMPI DUP1 PUSH2 0x66F DUP9 DUP3 PUSH2 0x60F JUMP JUMPDEST DUP5 MSTORE PUSH1 0x20 DUP5 ADD SWAP4 POP POP PUSH1 0x20 DUP2 ADD SWAP1 POP PUSH2 0x65C JUMP JUMPDEST POP POP POP SWAP4 SWAP3 POP POP POP JUMP JUMPDEST PUSH1 0x0 DUP3 PUSH1 0x1F DUP4 ADD SLT PUSH2 0x6A2 JUMPI PUSH2 0x6A1 PUSH2 0x536 JUMP JUMPDEST JUMPDEST DUP2 CALLDATALOAD PUSH2 0x6B2 DUP5 DUP3 PUSH1 0x20 DUP7 ADD PUSH2 0x624 JUMP JUMPDEST SWAP2 POP POP SWAP3 SWAP2 POP POP JUMP JUMPDEST PUSH1 0x0 PUSH1 0x20 DUP3 DUP5 SUB SLT ISZERO PUSH2 0x6D1 JUMPI PUSH2 0x6D0 PUSH2 0x367 JUMP JUMPDEST JUMPDEST PUSH1 0x0 DUP3 ADD CALLDATALOAD PUSH8 0xFFFFFFFFFFFFFFFF DUP2 GT ISZERO PUSH2 0x6EF JUMPI PUSH2 0x6EE PUSH2 0x36C JUMP JUMPDEST JUMPDEST PUSH2 0x6FB DUP5 DUP3 DUP6 ADD PUSH2 0x68D JUMP JUMPDEST SWAP2 POP POP SWAP3 SWAP2 POP POP JUMP JUMPDEST PUSH1 0x0 DUP3 DUP3 MSTORE PUSH1 0x20 DUP3 ADD SWAP1 POP SWAP3 SWAP2 POP POP JUMP JUMPDEST PUSH32 0x496E646578206F7574206F662072616E67650000000000000000000000000000 PUSH1 0x0 DUP3 ADD MSTORE POP JUMP JUMPDEST PUSH1 0x0 PUSH2 0x74B PUSH1 0x12 DUP4 PUSH2 0x704 JUMP JUMPDEST SWAP2 POP PUSH2 0x756 DUP3 PUSH2 0x715 JUMP JUMPDEST PUSH1 0x20 DUP3 ADD SWAP1 POP SWAP2 SWAP1 POP JUMP JUMPDEST PUSH1 0x0 PUSH1 0x20 DUP3 ADD SWAP1 POP DUP2 DUP2 SUB PUSH1 0x0 DUP4 ADD MSTORE PUSH2 0x77A DUP2 PUSH2 0x73E JUMP JUMPDEST SWAP1 POP SWAP2 SWAP1 POP JUMP JUMPDEST PUSH32 0x4E487B7100000000000000000000000000000000000000000000000000000000 PUSH1 0x0 MSTORE PUSH1 0x32 PUSH1 0x4 MSTORE PUSH1 0x24 PUSH1 0x0 REVERT JUMPDEST PUSH32 0x4E487B7100000000000000000000000000000000000000000000000000000000 PUSH1 0x0 MSTORE PUSH1 0x11 PUSH1 0x4 MSTORE PUSH1 0x24 PUSH1 0x0 REVERT JUMPDEST PUSH1 0x0 PUSH2 0x7EA DUP3 PUSH2 0x3A7 JUMP JUMPDEST SWAP2 POP PUSH1 0xFF DUP3 SUB PUSH2 0x7FD JUMPI PUSH2 0x7FC PUSH2 0x7B0 JUMP JUMPDEST JUMPDEST PUSH1 0x1 DUP3 ADD SWAP1 POP SWAP2 SWAP1 POP JUMP JUMPDEST PUSH1 0x0 PUSH2 0x813 DUP3 PUSH2 0x371 JUMP JUMPDEST SWAP2 POP PUSH32 0xFFFFFFFFFFFFFFFFFFFFFFFFFFFFFFFFFFFFFFFFFFFFFFFFFFFFFFFFFFFFFFFF DUP3 SUB PUSH2 0x845 JUMPI PUSH2 0x844 PUSH2 0x7B0 JUMP JUMPDEST JUMPDEST PUSH1 0x1 DUP3 ADD SWAP1 POP SWAP2 SWAP1 POP JUMP INVALID LOG2 PUSH5 0x6970667358 0x22 SLT KECCAK256 PUSH8 0xF121EA147A84089A 0xB2 SWAP15 0xD1 0x2C 0xDB PUSH10 0x14109270BD7C128C30DF 0xDE SAR XOR PUSH14 0x15778064736F6C63430008130033 "
				},
				"gasEstimates": {
					"creation": {
						"codeDepositCost": "436400",
						"executionCost": "474",
						"totalCost": "436874"
					},
					"external": {
						"clearBit(uint256,uint8)": "infinite",
						"decodeBooleans(uint256,uint8)": "infinite",
						"encodeBooleans(bool[])": "infinite",
						"setBit(uint256,uint8)": "infinite",
						"toggleBit(uint256,uint8)": "infinite"
					}
				},
				"methodIdentifiers": {
					"clearBit(uint256,uint8)": "5fc781e4",
					"decodeBooleans(uint256,uint8)": "6df384db",
					"encodeBooleans(bool[])": "c406504f",
					"setBit(uint256,uint8)": "4ee29090",
					"toggleBit(uint256,uint8)": "b1f85130"
				}
			},
			"storageLayout": {
				"storage": [],
				"types": null
			},
			"userdoc": {
				"kind": "user",
				"methods": {
					"clearBit(uint256,uint8)": {
						"notice": "Clears the bit at a given index in the bitstream."
					},
					"decodeBooleans(uint256,uint8)": {
						"notice": "Decodes a uint256 bitstream back into an array of booleans."
					},
					"encodeBooleans(bool[])": {
						"notice": "Encodes an array of booleans into a single uint256 bitstream."
					},
					"setBit(uint256,uint8)": {
						"notice": "Sets the bit at a given index in the bitstream."
					},
					"toggleBit(uint256,uint8)": {
						"notice": "Toggles the bit at a given index in the bitstream."
					}
				},
				"notice": "This contract demonstrates basic bitstream operations such as encoding and decoding booleans, and performing bitwise operations like setting, clearing, and toggling bits.",
				"version": 1
			}
		}
	}
}