{
	"B/binanceLaunchPad.sol": {
		"BinanceLaunchpadSale": {
			"abi": [
				{
					"inputs": [
						{
							"internalType": "address",
							"name": "_saleToken",
							"type": "address"
						},
						{
							"internalType": "uint256",
							"name": "_tokenPrice",
							"type": "uint256"
						},
						{
							"internalType": "uint256",
							"name": "_saleStart",
							"type": "uint256"
						},
						{
							"internalType": "uint256",
							"name": "_saleEnd",
							"type": "uint256"
						},
						{
							"internalType": "uint256",
							"name": "_tokensForSale",
							"type": "uint256"
						}
					],
					"stateMutability": "nonpayable",
					"type": "constructor"
				},
				{
					"anonymous": false,
					"inputs": [
						{
							"indexed": false,
							"internalType": "uint256",
							"name": "tokensSold",
							"type": "uint256"
						},
						{
							"indexed": false,
							"internalType": "uint256",
							"name": "unsoldTokens",
							"type": "uint256"
						}
					],
					"name": "SaleFinalized",
					"type": "event"
				},
				{
					"anonymous": false,
					"inputs": [
						{
							"indexed": true,
							"internalType": "address",
							"name": "buyer",
							"type": "address"
						},
						{
							"indexed": false,
							"internalType": "uint256",
							"name": "amount",
							"type": "uint256"
						}
					],
					"name": "TokensClaimed",
					"type": "event"
				},
				{
					"anonymous": false,
					"inputs": [
						{
							"indexed": true,
							"internalType": "address",
							"name": "buyer",
							"type": "address"
						},
						{
							"indexed": false,
							"internalType": "uint256",
							"name": "amount",
							"type": "uint256"
						},
						{
							"indexed": false,
							"internalType": "uint256",
							"name": "cost",
							"type": "uint256"
						}
					],
					"name": "TokensPurchased",
					"type": "event"
				},
				{
					"inputs": [
						{
							"internalType": "uint256",
							"name": "tokenAmount",
							"type": "uint256"
						}
					],
					"name": "buyTokens",
					"outputs": [],
					"stateMutability": "payable",
					"type": "function"
				},
				{
					"inputs": [],
					"name": "claimTokens",
					"outputs": [],
					"stateMutability": "nonpayable",
					"type": "function"
				},
				{
					"inputs": [],
					"name": "finalizeSale",
					"outputs": [],
					"stateMutability": "nonpayable",
					"type": "function"
				},
				{
					"inputs": [],
					"name": "owner",
					"outputs": [
						{
							"internalType": "address",
							"name": "",
							"type": "address"
						}
					],
					"stateMutability": "view",
					"type": "function"
				},
				{
					"inputs": [
						{
							"internalType": "address",
							"name": "",
							"type": "address"
						}
					],
					"name": "purchasedTokens",
					"outputs": [
						{
							"internalType": "uint256",
							"name": "",
							"type": "uint256"
						}
					],
					"stateMutability": "view",
					"type": "function"
				},
				{
					"inputs": [],
					"name": "saleEnd",
					"outputs": [
						{
							"internalType": "uint256",
							"name": "",
							"type": "uint256"
						}
					],
					"stateMutability": "view",
					"type": "function"
				},
				{
					"inputs": [],
					"name": "saleFinalized",
					"outputs": [
						{
							"internalType": "bool",
							"name": "",
							"type": "bool"
						}
					],
					"stateMutability": "view",
					"type": "function"
				},
				{
					"inputs": [],
					"name": "saleStart",
					"outputs": [
						{
							"internalType": "uint256",
							"name": "",
							"type": "uint256"
						}
					],
					"stateMutability": "view",
					"type": "function"
				},
				{
					"inputs": [],
					"name": "saleToken",
					"outputs": [
						{
							"internalType": "contract IBEP20",
							"name": "",
							"type": "address"
						}
					],
					"stateMutability": "view",
					"type": "function"
				},
				{
					"inputs": [],
					"name": "tokenPrice",
					"outputs": [
						{
							"internalType": "uint256",
							"name": "",
							"type": "uint256"
						}
					],
					"stateMutability": "view",
					"type": "function"
				},
				{
					"inputs": [],
					"name": "tokensForSale",
					"outputs": [
						{
							"internalType": "uint256",
							"name": "",
							"type": "uint256"
						}
					],
					"stateMutability": "view",
					"type": "function"
				},
				{
					"inputs": [],
					"name": "tokensSold",
					"outputs": [
						{
							"internalType": "uint256",
							"name": "",
							"type": "uint256"
						}
					],
					"stateMutability": "view",
					"type": "function"
				}
			],
			"devdoc": {
				"kind": "dev",
				"methods": {
					"buyTokens(uint256)": {
						"params": {
							"tokenAmount": "The number of tokens the buyer wants to purchase."
						}
					}
				},
				"title": "BinanceLaunchpadSale",
				"version": 1
			},
			"evm": {
				"assembly": "    /* \"B/binanceLaunchPad.sol\":639:4151  contract BinanceLaunchpadSale {... */\n  mstore(0x40, 0x80)\n    /* \"B/binanceLaunchPad.sol\":1770:2222  constructor(... */\n  callvalue\n  dup1\n  iszero\n  tag_1\n  jumpi\n  revert(0x00, 0x00)\ntag_1:\n  pop\n  mload(0x40)\n  sub(codesize, bytecodeSize)\n  dup1\n  bytecodeSize\n  dup4\n  codecopy\n  dup2\n  dup2\n  add\n  0x40\n  mstore\n  dup2\n  add\n  swap1\n  tag_2\n  swap2\n  swap1\n  tag_3\n  jump\t// in\ntag_2:\n    /* \"B/binanceLaunchPad.sol\":1966:1974  _saleEnd */\n  dup2\n    /* \"B/binanceLaunchPad.sol\":1953:1963  _saleStart */\n  dup4\n    /* \"B/binanceLaunchPad.sol\":1953:1974  _saleStart < _saleEnd */\n  lt\n    /* \"B/binanceLaunchPad.sol\":1945:2013  require(_saleStart < _saleEnd, \"Sale start must be before sale end\") */\n  tag_6\n  jumpi\n  mload(0x40)\n  0x08c379a000000000000000000000000000000000000000000000000000000000\n  dup2\n  mstore\n  0x04\n  add\n  tag_7\n  swap1\n  tag_8\n  jump\t// in\ntag_7:\n  mload(0x40)\n  dup1\n  swap2\n  sub\n  swap1\n  revert\ntag_6:\n    /* \"B/binanceLaunchPad.sol\":2031:2041  msg.sender */\n  caller\n    /* \"B/binanceLaunchPad.sol\":2023:2028  owner */\n  0x00\n  0x00\n    /* \"B/binanceLaunchPad.sol\":2023:2041  owner = msg.sender */\n  0x0100\n  exp\n  dup2\n  sload\n  dup2\n  0xffffffffffffffffffffffffffffffffffffffff\n  mul\n  not\n  and\n  swap1\n  dup4\n  0xffffffffffffffffffffffffffffffffffffffff\n  and\n  mul\n  or\n  swap1\n  sstore\n  pop\n    /* \"B/binanceLaunchPad.sol\":2070:2080  _saleToken */\n  dup5\n    /* \"B/binanceLaunchPad.sol\":2051:2060  saleToken */\n  0x01\n  0x00\n    /* \"B/binanceLaunchPad.sol\":2051:2081  saleToken = IBEP20(_saleToken) */\n  0x0100\n  exp\n  dup2\n  sload\n  dup2\n  0xffffffffffffffffffffffffffffffffffffffff\n  mul\n  not\n  and\n  swap1\n  dup4\n  0xffffffffffffffffffffffffffffffffffffffff\n  and\n  mul\n  or\n  swap1\n  sstore\n  pop\n    /* \"B/binanceLaunchPad.sol\":2104:2115  _tokenPrice */\n  dup4\n    /* \"B/binanceLaunchPad.sol\":2091:2101  tokenPrice */\n  0x02\n    /* \"B/binanceLaunchPad.sol\":2091:2115  tokenPrice = _tokenPrice */\n  dup2\n  swap1\n  sstore\n  pop\n    /* \"B/binanceLaunchPad.sol\":2137:2147  _saleStart */\n  dup3\n    /* \"B/binanceLaunchPad.sol\":2125:2134  saleStart */\n  0x03\n    /* \"B/binanceLaunchPad.sol\":2125:2147  saleStart = _saleStart */\n  dup2\n  swap1\n  sstore\n  pop\n    /* \"B/binanceLaunchPad.sol\":2167:2175  _saleEnd */\n  dup2\n    /* \"B/binanceLaunchPad.sol\":2157:2164  saleEnd */\n  0x04\n    /* \"B/binanceLaunchPad.sol\":2157:2175  saleEnd = _saleEnd */\n  dup2\n  swap1\n  sstore\n  pop\n    /* \"B/binanceLaunchPad.sol\":2201:2215  _tokensForSale */\n  dup1\n    /* \"B/binanceLaunchPad.sol\":2185:2198  tokensForSale */\n  0x05\n    /* \"B/binanceLaunchPad.sol\":2185:2215  tokensForSale = _tokensForSale */\n  dup2\n  swap1\n  sstore\n  pop\n    /* \"B/binanceLaunchPad.sol\":1770:2222  constructor(... */\n  pop\n  pop\n  pop\n  pop\n  pop\n    /* \"B/binanceLaunchPad.sol\":639:4151  contract BinanceLaunchpadSale {... */\n  jump(tag_9)\n    /* \"#utility.yul\":88:205   */\ntag_11:\n    /* \"#utility.yul\":197:198   */\n  0x00\n    /* \"#utility.yul\":194:195   */\n  0x00\n    /* \"#utility.yul\":187:199   */\n  revert\n    /* \"#utility.yul\":334:460   */\ntag_13:\n    /* \"#utility.yul\":371:378   */\n  0x00\n    /* \"#utility.yul\":411:453   */\n  0xffffffffffffffffffffffffffffffffffffffff\n    /* \"#utility.yul\":404:409   */\n  dup3\n    /* \"#utility.yul\":400:454   */\n  and\n    /* \"#utility.yul\":389:454   */\n  swap1\n  pop\n    /* \"#utility.yul\":334:460   */\n  swap2\n  swap1\n  pop\n  jump\t// out\n    /* \"#utility.yul\":466:562   */\ntag_14:\n    /* \"#utility.yul\":503:510   */\n  0x00\n    /* \"#utility.yul\":532:556   */\n  tag_29\n    /* \"#utility.yul\":550:555   */\n  dup3\n    /* \"#utility.yul\":532:556   */\n  tag_13\n  jump\t// in\ntag_29:\n    /* \"#utility.yul\":521:556   */\n  swap1\n  pop\n    /* \"#utility.yul\":466:562   */\n  swap2\n  swap1\n  pop\n  jump\t// out\n    /* \"#utility.yul\":568:690   */\ntag_15:\n    /* \"#utility.yul\":641:665   */\n  tag_31\n    /* \"#utility.yul\":659:664   */\n  dup2\n    /* \"#utility.yul\":641:665   */\n  tag_14\n  jump\t// in\ntag_31:\n    /* \"#utility.yul\":634:639   */\n  dup2\n    /* \"#utility.yul\":631:666   */\n  eq\n    /* \"#utility.yul\":621:684   */\n  tag_32\n  jumpi\n    /* \"#utility.yul\":680:681   */\n  0x00\n    /* \"#utility.yul\":677:678   */\n  0x00\n    /* \"#utility.yul\":670:682   */\n  revert\n    /* \"#utility.yul\":621:684   */\ntag_32:\n    /* \"#utility.yul\":568:690   */\n  pop\n  jump\t// out\n    /* \"#utility.yul\":696:839   */\ntag_16:\n    /* \"#utility.yul\":753:758   */\n  0x00\n    /* \"#utility.yul\":784:790   */\n  dup2\n    /* \"#utility.yul\":778:791   */\n  mload\n    /* \"#utility.yul\":769:791   */\n  swap1\n  pop\n    /* \"#utility.yul\":800:833   */\n  tag_34\n    /* \"#utility.yul\":827:832   */\n  dup2\n    /* \"#utility.yul\":800:833   */\n  tag_15\n  jump\t// in\ntag_34:\n    /* \"#utility.yul\":696:839   */\n  swap3\n  swap2\n  pop\n  pop\n  jump\t// out\n    /* \"#utility.yul\":845:922   */\ntag_17:\n    /* \"#utility.yul\":882:889   */\n  0x00\n    /* \"#utility.yul\":911:916   */\n  dup2\n    /* \"#utility.yul\":900:916   */\n  swap1\n  pop\n    /* \"#utility.yul\":845:922   */\n  swap2\n  swap1\n  pop\n  jump\t// out\n    /* \"#utility.yul\":928:1050   */\ntag_18:\n    /* \"#utility.yul\":1001:1025   */\n  tag_37\n    /* \"#utility.yul\":1019:1024   */\n  dup2\n    /* \"#utility.yul\":1001:1025   */\n  tag_17\n  jump\t// in\ntag_37:\n    /* \"#utility.yul\":994:999   */\n  dup2\n    /* \"#utility.yul\":991:1026   */\n  eq\n    /* \"#utility.yul\":981:1044   */\n  tag_38\n  jumpi\n    /* \"#utility.yul\":1040:1041   */\n  0x00\n    /* \"#utility.yul\":1037:1038   */\n  0x00\n    /* \"#utility.yul\":1030:1042   */\n  revert\n    /* \"#utility.yul\":981:1044   */\ntag_38:\n    /* \"#utility.yul\":928:1050   */\n  pop\n  jump\t// out\n    /* \"#utility.yul\":1056:1199   */\ntag_19:\n    /* \"#utility.yul\":1113:1118   */\n  0x00\n    /* \"#utility.yul\":1144:1150   */\n  dup2\n    /* \"#utility.yul\":1138:1151   */\n  mload\n    /* \"#utility.yul\":1129:1151   */\n  swap1\n  pop\n    /* \"#utility.yul\":1160:1193   */\n  tag_40\n    /* \"#utility.yul\":1187:1192   */\n  dup2\n    /* \"#utility.yul\":1160:1193   */\n  tag_18\n  jump\t// in\ntag_40:\n    /* \"#utility.yul\":1056:1199   */\n  swap3\n  swap2\n  pop\n  pop\n  jump\t// out\n    /* \"#utility.yul\":1205:2182   */\ntag_3:\n    /* \"#utility.yul\":1311:1317   */\n  0x00\n    /* \"#utility.yul\":1319:1325   */\n  0x00\n    /* \"#utility.yul\":1327:1333   */\n  0x00\n    /* \"#utility.yul\":1335:1341   */\n  0x00\n    /* \"#utility.yul\":1343:1349   */\n  0x00\n    /* \"#utility.yul\":1392:1395   */\n  0xa0\n    /* \"#utility.yul\":1380:1389   */\n  dup7\n    /* \"#utility.yul\":1371:1378   */\n  dup9\n    /* \"#utility.yul\":1367:1390   */\n  sub\n    /* \"#utility.yul\":1363:1396   */\n  slt\n    /* \"#utility.yul\":1360:1480   */\n  iszero\n  tag_42\n  jumpi\n    /* \"#utility.yul\":1399:1478   */\n  tag_43\n  tag_11\n  jump\t// in\ntag_43:\n    /* \"#utility.yul\":1360:1480   */\ntag_42:\n    /* \"#utility.yul\":1519:1520   */\n  0x00\n    /* \"#utility.yul\":1544:1608   */\n  tag_44\n    /* \"#utility.yul\":1600:1607   */\n  dup9\n    /* \"#utility.yul\":1591:1597   */\n  dup3\n    /* \"#utility.yul\":1580:1589   */\n  dup10\n    /* \"#utility.yul\":1576:1598   */\n  add\n    /* \"#utility.yul\":1544:1608   */\n  tag_16\n  jump\t// in\ntag_44:\n    /* \"#utility.yul\":1534:1608   */\n  swap6\n  pop\n    /* \"#utility.yul\":1490:1618   */\n  pop\n    /* \"#utility.yul\":1657:1659   */\n  0x20\n    /* \"#utility.yul\":1683:1747   */\n  tag_45\n    /* \"#utility.yul\":1739:1746   */\n  dup9\n    /* \"#utility.yul\":1730:1736   */\n  dup3\n    /* \"#utility.yul\":1719:1728   */\n  dup10\n    /* \"#utility.yul\":1715:1737   */\n  add\n    /* \"#utility.yul\":1683:1747   */\n  tag_19\n  jump\t// in\ntag_45:\n    /* \"#utility.yul\":1673:1747   */\n  swap5\n  pop\n    /* \"#utility.yul\":1628:1757   */\n  pop\n    /* \"#utility.yul\":1796:1798   */\n  0x40\n    /* \"#utility.yul\":1822:1886   */\n  tag_46\n    /* \"#utility.yul\":1878:1885   */\n  dup9\n    /* \"#utility.yul\":1869:1875   */\n  dup3\n    /* \"#utility.yul\":1858:1867   */\n  dup10\n    /* \"#utility.yul\":1854:1876   */\n  add\n    /* \"#utility.yul\":1822:1886   */\n  tag_19\n  jump\t// in\ntag_46:\n    /* \"#utility.yul\":1812:1886   */\n  swap4\n  pop\n    /* \"#utility.yul\":1767:1896   */\n  pop\n    /* \"#utility.yul\":1935:1937   */\n  0x60\n    /* \"#utility.yul\":1961:2025   */\n  tag_47\n    /* \"#utility.yul\":2017:2024   */\n  dup9\n    /* \"#utility.yul\":2008:2014   */\n  dup3\n    /* \"#utility.yul\":1997:2006   */\n  dup10\n    /* \"#utility.yul\":1993:2015   */\n  add\n    /* \"#utility.yul\":1961:2025   */\n  tag_19\n  jump\t// in\ntag_47:\n    /* \"#utility.yul\":1951:2025   */\n  swap3\n  pop\n    /* \"#utility.yul\":1906:2035   */\n  pop\n    /* \"#utility.yul\":2074:2077   */\n  0x80\n    /* \"#utility.yul\":2101:2165   */\n  tag_48\n    /* \"#utility.yul\":2157:2164   */\n  dup9\n    /* \"#utility.yul\":2148:2154   */\n  dup3\n    /* \"#utility.yul\":2137:2146   */\n  dup10\n    /* \"#utility.yul\":2133:2155   */\n  add\n    /* \"#utility.yul\":2101:2165   */\n  tag_19\n  jump\t// in\ntag_48:\n    /* \"#utility.yul\":2091:2165   */\n  swap2\n  pop\n    /* \"#utility.yul\":2045:2175   */\n  pop\n    /* \"#utility.yul\":1205:2182   */\n  swap3\n  swap6\n  pop\n  swap3\n  swap6\n  swap1\n  swap4\n  pop\n  jump\t// out\n    /* \"#utility.yul\":2188:2357   */\ntag_20:\n    /* \"#utility.yul\":2272:2283   */\n  0x00\n    /* \"#utility.yul\":2306:2312   */\n  dup3\n    /* \"#utility.yul\":2301:2304   */\n  dup3\n    /* \"#utility.yul\":2294:2313   */\n  mstore\n    /* \"#utility.yul\":2346:2350   */\n  0x20\n    /* \"#utility.yul\":2341:2344   */\n  dup3\n    /* \"#utility.yul\":2337:2351   */\n  add\n    /* \"#utility.yul\":2322:2351   */\n  swap1\n  pop\n    /* \"#utility.yul\":2188:2357   */\n  swap3\n  swap2\n  pop\n  pop\n  jump\t// out\n    /* \"#utility.yul\":2363:2584   */\ntag_21:\n    /* \"#utility.yul\":2503:2537   */\n  0x53616c65207374617274206d757374206265206265666f72652073616c652065\n    /* \"#utility.yul\":2499:2500   */\n  0x00\n    /* \"#utility.yul\":2491:2497   */\n  dup3\n    /* \"#utility.yul\":2487:2501   */\n  add\n    /* \"#utility.yul\":2480:2538   */\n  mstore\n    /* \"#utility.yul\":2572:2576   */\n  0x6e64000000000000000000000000000000000000000000000000000000000000\n    /* \"#utility.yul\":2567:2569   */\n  0x20\n    /* \"#utility.yul\":2559:2565   */\n  dup3\n    /* \"#utility.yul\":2555:2570   */\n  add\n    /* \"#utility.yul\":2548:2577   */\n  mstore\n    /* \"#utility.yul\":2363:2584   */\n  pop\n  jump\t// out\n    /* \"#utility.yul\":2590:2956   */\ntag_22:\n    /* \"#utility.yul\":2732:2735   */\n  0x00\n    /* \"#utility.yul\":2753:2820   */\n  tag_52\n    /* \"#utility.yul\":2817:2819   */\n  0x22\n    /* \"#utility.yul\":2812:2815   */\n  dup4\n    /* \"#utility.yul\":2753:2820   */\n  tag_20\n  jump\t// in\ntag_52:\n    /* \"#utility.yul\":2746:2820   */\n  swap2\n  pop\n    /* \"#utility.yul\":2829:2922   */\n  tag_53\n    /* \"#utility.yul\":2918:2921   */\n  dup3\n    /* \"#utility.yul\":2829:2922   */\n  tag_21\n  jump\t// in\ntag_53:\n    /* \"#utility.yul\":2947:2949   */\n  0x40\n    /* \"#utility.yul\":2942:2945   */\n  dup3\n    /* \"#utility.yul\":2938:2950   */\n  add\n    /* \"#utility.yul\":2931:2950   */\n  swap1\n  pop\n    /* \"#utility.yul\":2590:2956   */\n  swap2\n  swap1\n  pop\n  jump\t// out\n    /* \"#utility.yul\":2962:3381   */\ntag_8:\n    /* \"#utility.yul\":3128:3132   */\n  0x00\n    /* \"#utility.yul\":3166:3168   */\n  0x20\n    /* \"#utility.yul\":3155:3164   */\n  dup3\n    /* \"#utility.yul\":3151:3169   */\n  add\n    /* \"#utility.yul\":3143:3169   */\n  swap1\n  pop\n    /* \"#utility.yul\":3215:3224   */\n  dup2\n    /* \"#utility.yul\":3209:3213   */\n  dup2\n    /* \"#utility.yul\":3205:3225   */\n  sub\n    /* \"#utility.yul\":3201:3202   */\n  0x00\n    /* \"#utility.yul\":3190:3199   */\n  dup4\n    /* \"#utility.yul\":3186:3203   */\n  add\n    /* \"#utility.yul\":3179:3226   */\n  mstore\n    /* \"#utility.yul\":3243:3374   */\n  tag_55\n    /* \"#utility.yul\":3369:3373   */\n  dup2\n    /* \"#utility.yul\":3243:3374   */\n  tag_22\n  jump\t// in\ntag_55:\n    /* \"#utility.yul\":3235:3374   */\n  swap1\n  pop\n    /* \"#utility.yul\":2962:3381   */\n  swap2\n  swap1\n  pop\n  jump\t// out\n    /* \"B/binanceLaunchPad.sol\":639:4151  contract BinanceLaunchpadSale {... */\ntag_9:\n  dataSize(sub_0)\n  dup1\n  dataOffset(sub_0)\n  0x00\n  codecopy\n  0x00\n  return\nstop\n\nsub_0: assembly {\n        /* \"B/binanceLaunchPad.sol\":639:4151  contract BinanceLaunchpadSale {... */\n      mstore(0x40, 0x80)\n      jumpi(tag_1, lt(calldatasize, 0x04))\n      shr(0xe0, calldataload(0x00))\n      dup1\n      0x7ff9b596\n      gt\n      tag_14\n      jumpi\n      dup1\n      0x7ff9b596\n      eq\n      tag_8\n      jumpi\n      dup1\n      0x8da5cb5b\n      eq\n      tag_9\n      jumpi\n      dup1\n      0xa5f0dea2\n      eq\n      tag_10\n      jumpi\n      dup1\n      0xab0bcc41\n      eq\n      tag_11\n      jumpi\n      dup1\n      0xc10b9358\n      eq\n      tag_12\n      jumpi\n      dup1\n      0xe985e367\n      eq\n      tag_13\n      jumpi\n      jump(tag_1)\n    tag_14:\n      dup1\n      0x12aef8c3\n      eq\n      tag_2\n      jumpi\n      dup1\n      0x3610724e\n      eq\n      tag_3\n      jumpi\n      dup1\n      0x48c54b9d\n      eq\n      tag_4\n      jumpi\n      dup1\n      0x4bae6f3f\n      eq\n      tag_5\n      jumpi\n      dup1\n      0x518ab2a8\n      eq\n      tag_6\n      jumpi\n      dup1\n      0x58a687ec\n      eq\n      tag_7\n      jumpi\n    tag_1:\n      revert(0x00, 0x00)\n        /* \"B/binanceLaunchPad.sol\":961:989  uint256 public tokensForSale */\n    tag_2:\n      callvalue\n      dup1\n      iszero\n      tag_15\n      jumpi\n      revert(0x00, 0x00)\n    tag_15:\n      pop\n      tag_16\n      tag_17\n      jump\t// in\n    tag_16:\n      mload(0x40)\n      tag_18\n      swap2\n      swap1\n      tag_19\n      jump\t// in\n    tag_18:\n      mload(0x40)\n      dup1\n      swap2\n      sub\n      swap1\n      return\n        /* \"B/binanceLaunchPad.sol\":2370:2936  function buyTokens(uint256 tokenAmount) external payable saleActive {... */\n    tag_3:\n      tag_20\n      0x04\n      dup1\n      calldatasize\n      sub\n      dup2\n      add\n      swap1\n      tag_21\n      swap2\n      swap1\n      tag_22\n      jump\t// in\n    tag_21:\n      tag_23\n      jump\t// in\n    tag_20:\n      stop\n        /* \"B/binanceLaunchPad.sol\":3780:4149  function claimTokens() external {... */\n    tag_4:\n      callvalue\n      dup1\n      iszero\n      tag_24\n      jumpi\n      revert(0x00, 0x00)\n    tag_24:\n      pop\n      tag_25\n      tag_26\n      jump\t// in\n    tag_25:\n      stop\n        /* \"B/binanceLaunchPad.sol\":1251:1301  mapping(address => uint256) public purchasedTokens */\n    tag_5:\n      callvalue\n      dup1\n      iszero\n      tag_27\n      jumpi\n      revert(0x00, 0x00)\n    tag_27:\n      pop\n      tag_28\n      0x04\n      dup1\n      calldatasize\n      sub\n      dup2\n      add\n      swap1\n      tag_29\n      swap2\n      swap1\n      tag_30\n      jump\t// in\n    tag_29:\n      tag_31\n      jump\t// in\n    tag_28:\n      mload(0x40)\n      tag_32\n      swap2\n      swap1\n      tag_19\n      jump\t// in\n    tag_32:\n      mload(0x40)\n      dup1\n      swap2\n      sub\n      swap1\n      return\n        /* \"B/binanceLaunchPad.sol\":1036:1061  uint256 public tokensSold */\n    tag_6:\n      callvalue\n      dup1\n      iszero\n      tag_33\n      jumpi\n      revert(0x00, 0x00)\n    tag_33:\n      pop\n      tag_34\n      tag_35\n      jump\t// in\n    tag_34:\n      mload(0x40)\n      tag_36\n      swap2\n      swap1\n      tag_19\n      jump\t// in\n    tag_36:\n      mload(0x40)\n      dup1\n      swap2\n      sub\n      swap1\n      return\n        /* \"B/binanceLaunchPad.sol\":3090:3683  function finalizeSale() external onlyOwner {... */\n    tag_7:\n      callvalue\n      dup1\n      iszero\n      tag_37\n      jumpi\n      revert(0x00, 0x00)\n    tag_37:\n      pop\n      tag_38\n      tag_39\n      jump\t// in\n    tag_38:\n      stop\n        /* \"B/binanceLaunchPad.sol\":757:782  uint256 public tokenPrice */\n    tag_8:\n      callvalue\n      dup1\n      iszero\n      tag_40\n      jumpi\n      revert(0x00, 0x00)\n    tag_40:\n      pop\n      tag_41\n      tag_42\n      jump\t// in\n    tag_41:\n      mload(0x40)\n      tag_43\n      swap2\n      swap1\n      tag_19\n      jump\t// in\n    tag_43:\n      mload(0x40)\n      dup1\n      swap2\n      sub\n      swap1\n      return\n        /* \"B/binanceLaunchPad.sol\":675:695  address public owner */\n    tag_9:\n      callvalue\n      dup1\n      iszero\n      tag_44\n      jumpi\n      revert(0x00, 0x00)\n    tag_44:\n      pop\n      tag_45\n      tag_46\n      jump\t// in\n    tag_45:\n      mload(0x40)\n      tag_47\n      swap2\n      swap1\n      tag_48\n      jump\t// in\n    tag_47:\n      mload(0x40)\n      dup1\n      swap2\n      sub\n      swap1\n      return\n        /* \"B/binanceLaunchPad.sol\":1094:1119  bool public saleFinalized */\n    tag_10:\n      callvalue\n      dup1\n      iszero\n      tag_49\n      jumpi\n      revert(0x00, 0x00)\n    tag_49:\n      pop\n      tag_50\n      tag_51\n      jump\t// in\n    tag_50:\n      mload(0x40)\n      tag_52\n      swap2\n      swap1\n      tag_53\n      jump\t// in\n    tag_52:\n      mload(0x40)\n      dup1\n      swap2\n      sub\n      swap1\n      return\n        /* \"B/binanceLaunchPad.sol\":819:843  uint256 public saleStart */\n    tag_11:\n      callvalue\n      dup1\n      iszero\n      tag_54\n      jumpi\n      revert(0x00, 0x00)\n    tag_54:\n      pop\n      tag_55\n      tag_56\n      jump\t// in\n    tag_55:\n      mload(0x40)\n      tag_57\n      swap2\n      swap1\n      tag_19\n      jump\t// in\n    tag_57:\n      mload(0x40)\n      dup1\n      swap2\n      sub\n      swap1\n      return\n        /* \"B/binanceLaunchPad.sol\":891:913  uint256 public saleEnd */\n    tag_12:\n      callvalue\n      dup1\n      iszero\n      tag_58\n      jumpi\n      revert(0x00, 0x00)\n    tag_58:\n      pop\n      tag_59\n      tag_60\n      jump\t// in\n    tag_59:\n      mload(0x40)\n      tag_61\n      swap2\n      swap1\n      tag_19\n      jump\t// in\n    tag_61:\n      mload(0x40)\n      dup1\n      swap2\n      sub\n      swap1\n      return\n        /* \"B/binanceLaunchPad.sol\":701:724  IBEP20 public saleToken */\n    tag_13:\n      callvalue\n      dup1\n      iszero\n      tag_62\n      jumpi\n      revert(0x00, 0x00)\n    tag_62:\n      pop\n      tag_63\n      tag_64\n      jump\t// in\n    tag_63:\n      mload(0x40)\n      tag_65\n      swap2\n      swap1\n      tag_66\n      jump\t// in\n    tag_65:\n      mload(0x40)\n      dup1\n      swap2\n      sub\n      swap1\n      return\n        /* \"B/binanceLaunchPad.sol\":961:989  uint256 public tokensForSale */\n    tag_17:\n      sload(0x05)\n      dup2\n      jump\t// out\n        /* \"B/binanceLaunchPad.sol\":2370:2936  function buyTokens(uint256 tokenAmount) external payable saleActive {... */\n    tag_23:\n        /* \"B/binanceLaunchPad.sol\":1684:1693  saleStart */\n      sload(0x03)\n        /* \"B/binanceLaunchPad.sol\":1665:1680  block.timestamp */\n      timestamp\n        /* \"B/binanceLaunchPad.sol\":1665:1693  block.timestamp >= saleStart */\n      lt\n      iszero\n        /* \"B/binanceLaunchPad.sol\":1665:1723  block.timestamp >= saleStart && block.timestamp <= saleEnd */\n      dup1\n      iszero\n      tag_68\n      jumpi\n      pop\n        /* \"B/binanceLaunchPad.sol\":1716:1723  saleEnd */\n      sload(0x04)\n        /* \"B/binanceLaunchPad.sol\":1697:1712  block.timestamp */\n      timestamp\n        /* \"B/binanceLaunchPad.sol\":1697:1723  block.timestamp <= saleEnd */\n      gt\n      iszero\n        /* \"B/binanceLaunchPad.sol\":1665:1723  block.timestamp >= saleStart && block.timestamp <= saleEnd */\n    tag_68:\n        /* \"B/binanceLaunchPad.sol\":1657:1746  require(block.timestamp >= saleStart && block.timestamp <= saleEnd, \"Sale is not active\") */\n      tag_69\n      jumpi\n      mload(0x40)\n      0x08c379a000000000000000000000000000000000000000000000000000000000\n      dup2\n      mstore\n      0x04\n      add\n      tag_70\n      swap1\n      tag_71\n      jump\t// in\n    tag_70:\n      mload(0x40)\n      dup1\n      swap2\n      sub\n      swap1\n      revert\n    tag_69:\n        /* \"B/binanceLaunchPad.sol\":2448:2460  uint256 cost */\n      0x00\n        /* \"B/binanceLaunchPad.sol\":2477:2487  tokenPrice */\n      sload(0x02)\n        /* \"B/binanceLaunchPad.sol\":2463:2474  tokenAmount */\n      dup3\n        /* \"B/binanceLaunchPad.sol\":2463:2487  tokenAmount * tokenPrice */\n      tag_73\n      swap2\n      swap1\n      tag_74\n      jump\t// in\n    tag_73:\n        /* \"B/binanceLaunchPad.sol\":2448:2487  uint256 cost = tokenAmount * tokenPrice */\n      swap1\n      pop\n        /* \"B/binanceLaunchPad.sol\":2518:2522  cost */\n      dup1\n        /* \"B/binanceLaunchPad.sol\":2505:2514  msg.value */\n      callvalue\n        /* \"B/binanceLaunchPad.sol\":2505:2522  msg.value >= cost */\n      lt\n      iszero\n        /* \"B/binanceLaunchPad.sol\":2497:2548  require(msg.value >= cost, \"Insufficient BNB sent\") */\n      tag_75\n      jumpi\n      mload(0x40)\n      0x08c379a000000000000000000000000000000000000000000000000000000000\n      dup2\n      mstore\n      0x04\n      add\n      tag_76\n      swap1\n      tag_77\n      jump\t// in\n    tag_76:\n      mload(0x40)\n      dup1\n      swap2\n      sub\n      swap1\n      revert\n    tag_75:\n        /* \"B/binanceLaunchPad.sol\":2594:2607  tokensForSale */\n      sload(0x05)\n        /* \"B/binanceLaunchPad.sol\":2579:2590  tokenAmount */\n      dup3\n        /* \"B/binanceLaunchPad.sol\":2566:2576  tokensSold */\n      sload(0x06)\n        /* \"B/binanceLaunchPad.sol\":2566:2590  tokensSold + tokenAmount */\n      tag_78\n      swap2\n      swap1\n      tag_79\n      jump\t// in\n    tag_78:\n        /* \"B/binanceLaunchPad.sol\":2566:2607  tokensSold + tokenAmount <= tokensForSale */\n      gt\n      iszero\n        /* \"B/binanceLaunchPad.sol\":2558:2639  require(tokensSold + tokenAmount <= tokensForSale, \"Not enough tokens available\") */\n      tag_80\n      jumpi\n      mload(0x40)\n      0x08c379a000000000000000000000000000000000000000000000000000000000\n      dup2\n      mstore\n      0x04\n      add\n      tag_81\n      swap1\n      tag_82\n      jump\t// in\n    tag_81:\n      mload(0x40)\n      dup1\n      swap2\n      sub\n      swap1\n      revert\n    tag_80:\n        /* \"B/binanceLaunchPad.sol\":2664:2675  tokenAmount */\n      dup2\n        /* \"B/binanceLaunchPad.sol\":2650:2660  tokensSold */\n      0x06\n      0x00\n        /* \"B/binanceLaunchPad.sol\":2650:2675  tokensSold += tokenAmount */\n      dup3\n      dup3\n      sload\n      tag_83\n      swap2\n      swap1\n      tag_79\n      jump\t// in\n    tag_83:\n      swap3\n      pop\n      pop\n      dup2\n      swap1\n      sstore\n      pop\n        /* \"B/binanceLaunchPad.sol\":2716:2727  tokenAmount */\n      dup2\n        /* \"B/binanceLaunchPad.sol\":2685:2700  purchasedTokens */\n      0x08\n        /* \"B/binanceLaunchPad.sol\":2685:2712  purchasedTokens[msg.sender] */\n      0x00\n        /* \"B/binanceLaunchPad.sol\":2701:2711  msg.sender */\n      caller\n        /* \"B/binanceLaunchPad.sol\":2685:2712  purchasedTokens[msg.sender] */\n      0xffffffffffffffffffffffffffffffffffffffff\n      and\n      0xffffffffffffffffffffffffffffffffffffffff\n      and\n      dup2\n      mstore\n      0x20\n      add\n      swap1\n      dup2\n      mstore\n      0x20\n      add\n      0x00\n      keccak256\n      0x00\n        /* \"B/binanceLaunchPad.sol\":2685:2727  purchasedTokens[msg.sender] += tokenAmount */\n      dup3\n      dup3\n      sload\n      tag_84\n      swap2\n      swap1\n      tag_79\n      jump\t// in\n    tag_84:\n      swap3\n      pop\n      pop\n      dup2\n      swap1\n      sstore\n      pop\n        /* \"B/binanceLaunchPad.sol\":2791:2795  cost */\n      dup1\n        /* \"B/binanceLaunchPad.sol\":2779:2788  msg.value */\n      callvalue\n        /* \"B/binanceLaunchPad.sol\":2779:2795  msg.value > cost */\n      gt\n        /* \"B/binanceLaunchPad.sol\":2776:2868  if(msg.value > cost) {... */\n      iszero\n      tag_85\n      jumpi\n        /* \"B/binanceLaunchPad.sol\":2819:2829  msg.sender */\n      caller\n        /* \"B/binanceLaunchPad.sol\":2811:2839  payable(msg.sender).transfer */\n      0xffffffffffffffffffffffffffffffffffffffff\n      and\n        /* \"B/binanceLaunchPad.sol\":2811:2857  payable(msg.sender).transfer(msg.value - cost) */\n      0x08fc\n        /* \"B/binanceLaunchPad.sol\":2852:2856  cost */\n      dup3\n        /* \"B/binanceLaunchPad.sol\":2840:2849  msg.value */\n      callvalue\n        /* \"B/binanceLaunchPad.sol\":2840:2856  msg.value - cost */\n      tag_86\n      swap2\n      swap1\n      tag_87\n      jump\t// in\n    tag_86:\n        /* \"B/binanceLaunchPad.sol\":2811:2857  payable(msg.sender).transfer(msg.value - cost) */\n      swap1\n      dup2\n      iszero\n      mul\n      swap1\n      mload(0x40)\n      0x00\n      mload(0x40)\n      dup1\n      dup4\n      sub\n      dup2\n      dup6\n      dup9\n      dup9\n      call\n      swap4\n      pop\n      pop\n      pop\n      pop\n      iszero\n      dup1\n      iszero\n      tag_89\n      jumpi\n      returndatacopy(0x00, 0x00, returndatasize)\n      revert(0x00, returndatasize)\n    tag_89:\n      pop\n        /* \"B/binanceLaunchPad.sol\":2776:2868  if(msg.value > cost) {... */\n    tag_85:\n        /* \"B/binanceLaunchPad.sol\":2899:2909  msg.sender */\n      caller\n        /* \"B/binanceLaunchPad.sol\":2883:2929  TokensPurchased(msg.sender, tokenAmount, cost) */\n      0xffffffffffffffffffffffffffffffffffffffff\n      and\n      0x8fafebcaf9d154343dad25669bfa277f4fbacd7ac6b0c4fed522580e040a0f33\n        /* \"B/binanceLaunchPad.sol\":2911:2922  tokenAmount */\n      dup4\n        /* \"B/binanceLaunchPad.sol\":2924:2928  cost */\n      dup4\n        /* \"B/binanceLaunchPad.sol\":2883:2929  TokensPurchased(msg.sender, tokenAmount, cost) */\n      mload(0x40)\n      tag_90\n      swap3\n      swap2\n      swap1\n      tag_91\n      jump\t// in\n    tag_90:\n      mload(0x40)\n      dup1\n      swap2\n      sub\n      swap1\n      log2\n        /* \"B/binanceLaunchPad.sol\":2438:2936  {... */\n      pop\n        /* \"B/binanceLaunchPad.sol\":2370:2936  function buyTokens(uint256 tokenAmount) external payable saleActive {... */\n      pop\n      jump\t// out\n        /* \"B/binanceLaunchPad.sol\":3780:4149  function claimTokens() external {... */\n    tag_26:\n        /* \"B/binanceLaunchPad.sol\":3830:3843  saleFinalized */\n      0x07\n      0x00\n      swap1\n      sload\n      swap1\n      0x0100\n      exp\n      swap1\n      div\n      0xff\n      and\n        /* \"B/binanceLaunchPad.sol\":3822:3866  require(saleFinalized, \"Sale not finalized\") */\n      tag_93\n      jumpi\n      mload(0x40)\n      0x08c379a000000000000000000000000000000000000000000000000000000000\n      dup2\n      mstore\n      0x04\n      add\n      tag_94\n      swap1\n      tag_95\n      jump\t// in\n    tag_94:\n      mload(0x40)\n      dup1\n      swap2\n      sub\n      swap1\n      revert\n    tag_93:\n        /* \"B/binanceLaunchPad.sol\":3876:3890  uint256 amount */\n      0x00\n        /* \"B/binanceLaunchPad.sol\":3893:3908  purchasedTokens */\n      0x08\n        /* \"B/binanceLaunchPad.sol\":3893:3920  purchasedTokens[msg.sender] */\n      0x00\n        /* \"B/binanceLaunchPad.sol\":3909:3919  msg.sender */\n      caller\n        /* \"B/binanceLaunchPad.sol\":3893:3920  purchasedTokens[msg.sender] */\n      0xffffffffffffffffffffffffffffffffffffffff\n      and\n      0xffffffffffffffffffffffffffffffffffffffff\n      and\n      dup2\n      mstore\n      0x20\n      add\n      swap1\n      dup2\n      mstore\n      0x20\n      add\n      0x00\n      keccak256\n      sload\n        /* \"B/binanceLaunchPad.sol\":3876:3920  uint256 amount = purchasedTokens[msg.sender] */\n      swap1\n      pop\n        /* \"B/binanceLaunchPad.sol\":3947:3948  0 */\n      0x00\n        /* \"B/binanceLaunchPad.sol\":3938:3944  amount */\n      dup2\n        /* \"B/binanceLaunchPad.sol\":3938:3948  amount > 0 */\n      gt\n        /* \"B/binanceLaunchPad.sol\":3930:3971  require(amount > 0, \"No tokens to claim\") */\n      tag_96\n      jumpi\n      mload(0x40)\n      0x08c379a000000000000000000000000000000000000000000000000000000000\n      dup2\n      mstore\n      0x04\n      add\n      tag_97\n      swap1\n      tag_98\n      jump\t// in\n    tag_97:\n      mload(0x40)\n      dup1\n      swap2\n      sub\n      swap1\n      revert\n    tag_96:\n        /* \"B/binanceLaunchPad.sol\":4011:4012  0 */\n      0x00\n        /* \"B/binanceLaunchPad.sol\":3981:3996  purchasedTokens */\n      0x08\n        /* \"B/binanceLaunchPad.sol\":3981:4008  purchasedTokens[msg.sender] */\n      0x00\n        /* \"B/binanceLaunchPad.sol\":3997:4007  msg.sender */\n      caller\n        /* \"B/binanceLaunchPad.sol\":3981:4008  purchasedTokens[msg.sender] */\n      0xffffffffffffffffffffffffffffffffffffffff\n      and\n      0xffffffffffffffffffffffffffffffffffffffff\n      and\n      dup2\n      mstore\n      0x20\n      add\n      swap1\n      dup2\n      mstore\n      0x20\n      add\n      0x00\n      keccak256\n        /* \"B/binanceLaunchPad.sol\":3981:4012  purchasedTokens[msg.sender] = 0 */\n      dup2\n      swap1\n      sstore\n      pop\n        /* \"B/binanceLaunchPad.sol\":4030:4039  saleToken */\n      0x01\n      0x00\n      swap1\n      sload\n      swap1\n      0x0100\n      exp\n      swap1\n      div\n      0xffffffffffffffffffffffffffffffffffffffff\n      and\n        /* \"B/binanceLaunchPad.sol\":4030:4048  saleToken.transfer */\n      0xffffffffffffffffffffffffffffffffffffffff\n      and\n      0xa9059cbb\n        /* \"B/binanceLaunchPad.sol\":4049:4059  msg.sender */\n      caller\n        /* \"B/binanceLaunchPad.sol\":4061:4067  amount */\n      dup4\n        /* \"B/binanceLaunchPad.sol\":4030:4068  saleToken.transfer(msg.sender, amount) */\n      mload(0x40)\n      dup4\n      0xffffffff\n      and\n      0xe0\n      shl\n      dup2\n      mstore\n      0x04\n      add\n      tag_99\n      swap3\n      swap2\n      swap1\n      tag_100\n      jump\t// in\n    tag_99:\n      0x20\n      mload(0x40)\n      dup1\n      dup4\n      sub\n      dup2\n      0x00\n      dup8\n      gas\n      call\n      iszero\n      dup1\n      iszero\n      tag_102\n      jumpi\n      returndatacopy(0x00, 0x00, returndatasize)\n      revert(0x00, returndatasize)\n    tag_102:\n      pop\n      pop\n      pop\n      pop\n      mload(0x40)\n      returndatasize\n      not(0x1f)\n      0x1f\n      dup3\n      add\n      and\n      dup3\n      add\n      dup1\n      0x40\n      mstore\n      pop\n      dup2\n      add\n      swap1\n      tag_103\n      swap2\n      swap1\n      tag_104\n      jump\t// in\n    tag_103:\n        /* \"B/binanceLaunchPad.sol\":4022:4094  require(saleToken.transfer(msg.sender, amount), \"Token transfer failed\") */\n      tag_105\n      jumpi\n      mload(0x40)\n      0x08c379a000000000000000000000000000000000000000000000000000000000\n      dup2\n      mstore\n      0x04\n      add\n      tag_106\n      swap1\n      tag_107\n      jump\t// in\n    tag_106:\n      mload(0x40)\n      dup1\n      swap2\n      sub\n      swap1\n      revert\n    tag_105:\n        /* \"B/binanceLaunchPad.sol\":4123:4133  msg.sender */\n      caller\n        /* \"B/binanceLaunchPad.sol\":4109:4142  TokensClaimed(msg.sender, amount) */\n      0xffffffffffffffffffffffffffffffffffffffff\n      and\n      0x896e034966eaaf1adc54acc0f257056febbd300c9e47182cf761982cf1f5e430\n        /* \"B/binanceLaunchPad.sol\":4135:4141  amount */\n      dup3\n        /* \"B/binanceLaunchPad.sol\":4109:4142  TokensClaimed(msg.sender, amount) */\n      mload(0x40)\n      tag_108\n      swap2\n      swap1\n      tag_19\n      jump\t// in\n    tag_108:\n      mload(0x40)\n      dup1\n      swap2\n      sub\n      swap1\n      log2\n        /* \"B/binanceLaunchPad.sol\":3812:4149  {... */\n      pop\n        /* \"B/binanceLaunchPad.sol\":3780:4149  function claimTokens() external {... */\n      jump\t// out\n        /* \"B/binanceLaunchPad.sol\":1251:1301  mapping(address => uint256) public purchasedTokens */\n    tag_31:\n      mstore(0x20, 0x08)\n      dup1\n      0x00\n      mstore\n      keccak256(0x00, 0x40)\n      0x00\n      swap2\n      pop\n      swap1\n      pop\n      sload\n      dup2\n      jump\t// out\n        /* \"B/binanceLaunchPad.sol\":1036:1061  uint256 public tokensSold */\n    tag_35:\n      sload(0x06)\n      dup2\n      jump\t// out\n        /* \"B/binanceLaunchPad.sol\":3090:3683  function finalizeSale() external onlyOwner {... */\n    tag_39:\n        /* \"B/binanceLaunchPad.sol\":1573:1578  owner */\n      0x00\n      0x00\n      swap1\n      sload\n      swap1\n      0x0100\n      exp\n      swap1\n      div\n      0xffffffffffffffffffffffffffffffffffffffff\n      and\n        /* \"B/binanceLaunchPad.sol\":1559:1578  msg.sender == owner */\n      0xffffffffffffffffffffffffffffffffffffffff\n      and\n        /* \"B/binanceLaunchPad.sol\":1559:1569  msg.sender */\n      caller\n        /* \"B/binanceLaunchPad.sol\":1559:1578  msg.sender == owner */\n      0xffffffffffffffffffffffffffffffffffffffff\n      and\n      eq\n        /* \"B/binanceLaunchPad.sol\":1551:1601  require(msg.sender == owner, \"Not contract owner\") */\n      tag_110\n      jumpi\n      mload(0x40)\n      0x08c379a000000000000000000000000000000000000000000000000000000000\n      dup2\n      mstore\n      0x04\n      add\n      tag_111\n      swap1\n      tag_112\n      jump\t// in\n    tag_111:\n      mload(0x40)\n      dup1\n      swap2\n      sub\n      swap1\n      revert\n    tag_110:\n        /* \"B/binanceLaunchPad.sol\":3169:3176  saleEnd */\n      sload(0x04)\n        /* \"B/binanceLaunchPad.sol\":3151:3166  block.timestamp */\n      timestamp\n        /* \"B/binanceLaunchPad.sol\":3151:3176  block.timestamp > saleEnd */\n      gt\n        /* \"B/binanceLaunchPad.sol\":3143:3199  require(block.timestamp > saleEnd, \"Sale has not ended\") */\n      tag_114\n      jumpi\n      mload(0x40)\n      0x08c379a000000000000000000000000000000000000000000000000000000000\n      dup2\n      mstore\n      0x04\n      add\n      tag_115\n      swap1\n      tag_116\n      jump\t// in\n    tag_115:\n      mload(0x40)\n      dup1\n      swap2\n      sub\n      swap1\n      revert\n    tag_114:\n        /* \"B/binanceLaunchPad.sol\":3218:3231  saleFinalized */\n      0x07\n      0x00\n      swap1\n      sload\n      swap1\n      0x0100\n      exp\n      swap1\n      div\n      0xff\n      and\n        /* \"B/binanceLaunchPad.sol\":3217:3231  !saleFinalized */\n      iszero\n        /* \"B/binanceLaunchPad.sol\":3209:3258  require(!saleFinalized, \"Sale already finalized\") */\n      tag_117\n      jumpi\n      mload(0x40)\n      0x08c379a000000000000000000000000000000000000000000000000000000000\n      dup2\n      mstore\n      0x04\n      add\n      tag_118\n      swap1\n      tag_119\n      jump\t// in\n    tag_118:\n      mload(0x40)\n      dup1\n      swap2\n      sub\n      swap1\n      revert\n    tag_117:\n        /* \"B/binanceLaunchPad.sol\":3284:3288  true */\n      0x01\n        /* \"B/binanceLaunchPad.sol\":3268:3281  saleFinalized */\n      0x07\n      0x00\n        /* \"B/binanceLaunchPad.sol\":3268:3288  saleFinalized = true */\n      0x0100\n      exp\n      dup2\n      sload\n      dup2\n      0xff\n      mul\n      not\n      and\n      swap1\n      dup4\n      iszero\n      iszero\n      mul\n      or\n      swap1\n      sstore\n      pop\n        /* \"B/binanceLaunchPad.sol\":3351:3356  owner */\n      0x00\n      0x00\n      swap1\n      sload\n      swap1\n      0x0100\n      exp\n      swap1\n      div\n      0xffffffffffffffffffffffffffffffffffffffff\n      and\n        /* \"B/binanceLaunchPad.sol\":3343:3366  payable(owner).transfer */\n      0xffffffffffffffffffffffffffffffffffffffff\n      and\n        /* \"B/binanceLaunchPad.sol\":3343:3389  payable(owner).transfer(address(this).balance) */\n      0x08fc\n        /* \"B/binanceLaunchPad.sol\":3367:3388  address(this).balance */\n      selfbalance\n        /* \"B/binanceLaunchPad.sol\":3343:3389  payable(owner).transfer(address(this).balance) */\n      swap1\n      dup2\n      iszero\n      mul\n      swap1\n      mload(0x40)\n      0x00\n      mload(0x40)\n      dup1\n      dup4\n      sub\n      dup2\n      dup6\n      dup9\n      dup9\n      call\n      swap4\n      pop\n      pop\n      pop\n      pop\n      iszero\n      dup1\n      iszero\n      tag_121\n      jumpi\n      returndatacopy(0x00, 0x00, returndatasize)\n      revert(0x00, returndatasize)\n    tag_121:\n      pop\n        /* \"B/binanceLaunchPad.sol\":3458:3472  uint256 unsold */\n      0x00\n        /* \"B/binanceLaunchPad.sol\":3491:3501  tokensSold */\n      sload(0x06)\n        /* \"B/binanceLaunchPad.sol\":3475:3488  tokensForSale */\n      sload(0x05)\n        /* \"B/binanceLaunchPad.sol\":3475:3501  tokensForSale - tokensSold */\n      tag_122\n      swap2\n      swap1\n      tag_87\n      jump\t// in\n    tag_122:\n        /* \"B/binanceLaunchPad.sol\":3458:3501  uint256 unsold = tokensForSale - tokensSold */\n      swap1\n      pop\n        /* \"B/binanceLaunchPad.sol\":3523:3524  0 */\n      0x00\n        /* \"B/binanceLaunchPad.sol\":3514:3520  unsold */\n      dup2\n        /* \"B/binanceLaunchPad.sol\":3514:3524  unsold > 0 */\n      gt\n        /* \"B/binanceLaunchPad.sol\":3511:3629  if(unsold > 0) {... */\n      iszero\n      tag_123\n      jumpi\n        /* \"B/binanceLaunchPad.sol\":3548:3557  saleToken */\n      0x01\n      0x00\n      swap1\n      sload\n      swap1\n      0x0100\n      exp\n      swap1\n      div\n      0xffffffffffffffffffffffffffffffffffffffff\n      and\n        /* \"B/binanceLaunchPad.sol\":3548:3566  saleToken.transfer */\n      0xffffffffffffffffffffffffffffffffffffffff\n      and\n      0xa9059cbb\n        /* \"B/binanceLaunchPad.sol\":3567:3572  owner */\n      0x00\n      0x00\n      swap1\n      sload\n      swap1\n      0x0100\n      exp\n      swap1\n      div\n      0xffffffffffffffffffffffffffffffffffffffff\n      and\n        /* \"B/binanceLaunchPad.sol\":3574:3580  unsold */\n      dup4\n        /* \"B/binanceLaunchPad.sol\":3548:3581  saleToken.transfer(owner, unsold) */\n      mload(0x40)\n      dup4\n      0xffffffff\n      and\n      0xe0\n      shl\n      dup2\n      mstore\n      0x04\n      add\n      tag_124\n      swap3\n      swap2\n      swap1\n      tag_100\n      jump\t// in\n    tag_124:\n      0x20\n      mload(0x40)\n      dup1\n      dup4\n      sub\n      dup2\n      0x00\n      dup8\n      gas\n      call\n      iszero\n      dup1\n      iszero\n      tag_126\n      jumpi\n      returndatacopy(0x00, 0x00, returndatasize)\n      revert(0x00, returndatasize)\n    tag_126:\n      pop\n      pop\n      pop\n      pop\n      mload(0x40)\n      returndatasize\n      not(0x1f)\n      0x1f\n      dup3\n      add\n      and\n      dup3\n      add\n      dup1\n      0x40\n      mstore\n      pop\n      dup2\n      add\n      swap1\n      tag_127\n      swap2\n      swap1\n      tag_104\n      jump\t// in\n    tag_127:\n        /* \"B/binanceLaunchPad.sol\":3540:3618  require(saleToken.transfer(owner, unsold), \"Transfer of unsold tokens failed\") */\n      tag_128\n      jumpi\n      mload(0x40)\n      0x08c379a000000000000000000000000000000000000000000000000000000000\n      dup2\n      mstore\n      0x04\n      add\n      tag_129\n      swap1\n      tag_130\n      jump\t// in\n    tag_129:\n      mload(0x40)\n      dup1\n      swap2\n      sub\n      swap1\n      revert\n    tag_128:\n        /* \"B/binanceLaunchPad.sol\":3511:3629  if(unsold > 0) {... */\n    tag_123:\n        /* \"B/binanceLaunchPad.sol\":3643:3676  SaleFinalized(tokensSold, unsold) */\n      0x17b1a568460bc127a7f9a9677d502ac593fa4af690a1c3aed38bda591e196e2e\n        /* \"B/binanceLaunchPad.sol\":3657:3667  tokensSold */\n      sload(0x06)\n        /* \"B/binanceLaunchPad.sol\":3669:3675  unsold */\n      dup3\n        /* \"B/binanceLaunchPad.sol\":3643:3676  SaleFinalized(tokensSold, unsold) */\n      mload(0x40)\n      tag_131\n      swap3\n      swap2\n      swap1\n      tag_91\n      jump\t// in\n    tag_131:\n      mload(0x40)\n      dup1\n      swap2\n      sub\n      swap1\n      log1\n        /* \"B/binanceLaunchPad.sol\":3133:3683  {... */\n      pop\n        /* \"B/binanceLaunchPad.sol\":3090:3683  function finalizeSale() external onlyOwner {... */\n      jump\t// out\n        /* \"B/binanceLaunchPad.sol\":757:782  uint256 public tokenPrice */\n    tag_42:\n      sload(0x02)\n      dup2\n      jump\t// out\n        /* \"B/binanceLaunchPad.sol\":675:695  address public owner */\n    tag_46:\n      0x00\n      0x00\n      swap1\n      sload\n      swap1\n      0x0100\n      exp\n      swap1\n      div\n      0xffffffffffffffffffffffffffffffffffffffff\n      and\n      dup2\n      jump\t// out\n        /* \"B/binanceLaunchPad.sol\":1094:1119  bool public saleFinalized */\n    tag_51:\n      0x07\n      0x00\n      swap1\n      sload\n      swap1\n      0x0100\n      exp\n      swap1\n      div\n      0xff\n      and\n      dup2\n      jump\t// out\n        /* \"B/binanceLaunchPad.sol\":819:843  uint256 public saleStart */\n    tag_56:\n      sload(0x03)\n      dup2\n      jump\t// out\n        /* \"B/binanceLaunchPad.sol\":891:913  uint256 public saleEnd */\n    tag_60:\n      sload(0x04)\n      dup2\n      jump\t// out\n        /* \"B/binanceLaunchPad.sol\":701:724  IBEP20 public saleToken */\n    tag_64:\n      0x01\n      0x00\n      swap1\n      sload\n      swap1\n      0x0100\n      exp\n      swap1\n      div\n      0xffffffffffffffffffffffffffffffffffffffff\n      and\n      dup2\n      jump\t// out\n        /* \"#utility.yul\":7:84   */\n    tag_132:\n        /* \"#utility.yul\":44:51   */\n      0x00\n        /* \"#utility.yul\":73:78   */\n      dup2\n        /* \"#utility.yul\":62:78   */\n      swap1\n      pop\n        /* \"#utility.yul\":7:84   */\n      swap2\n      swap1\n      pop\n      jump\t// out\n        /* \"#utility.yul\":90:208   */\n    tag_133:\n        /* \"#utility.yul\":177:201   */\n      tag_178\n        /* \"#utility.yul\":195:200   */\n      dup2\n        /* \"#utility.yul\":177:201   */\n      tag_132\n      jump\t// in\n    tag_178:\n        /* \"#utility.yul\":172:175   */\n      dup3\n        /* \"#utility.yul\":165:202   */\n      mstore\n        /* \"#utility.yul\":90:208   */\n      pop\n      pop\n      jump\t// out\n        /* \"#utility.yul\":214:436   */\n    tag_19:\n        /* \"#utility.yul\":307:311   */\n      0x00\n        /* \"#utility.yul\":345:347   */\n      0x20\n        /* \"#utility.yul\":334:343   */\n      dup3\n        /* \"#utility.yul\":330:348   */\n      add\n        /* \"#utility.yul\":322:348   */\n      swap1\n      pop\n        /* \"#utility.yul\":358:429   */\n      tag_180\n        /* \"#utility.yul\":426:427   */\n      0x00\n        /* \"#utility.yul\":415:424   */\n      dup4\n        /* \"#utility.yul\":411:428   */\n      add\n        /* \"#utility.yul\":402:408   */\n      dup5\n        /* \"#utility.yul\":358:429   */\n      tag_133\n      jump\t// in\n    tag_180:\n        /* \"#utility.yul\":214:436   */\n      swap3\n      swap2\n      pop\n      pop\n      jump\t// out\n        /* \"#utility.yul\":523:640   */\n    tag_135:\n        /* \"#utility.yul\":632:633   */\n      0x00\n        /* \"#utility.yul\":629:630   */\n      0x00\n        /* \"#utility.yul\":622:634   */\n      revert\n        /* \"#utility.yul\":769:891   */\n    tag_137:\n        /* \"#utility.yul\":842:866   */\n      tag_185\n        /* \"#utility.yul\":860:865   */\n      dup2\n        /* \"#utility.yul\":842:866   */\n      tag_132\n      jump\t// in\n    tag_185:\n        /* \"#utility.yul\":835:840   */\n      dup2\n        /* \"#utility.yul\":832:867   */\n      eq\n        /* \"#utility.yul\":822:885   */\n      tag_186\n      jumpi\n        /* \"#utility.yul\":881:882   */\n      0x00\n        /* \"#utility.yul\":878:879   */\n      0x00\n        /* \"#utility.yul\":871:883   */\n      revert\n        /* \"#utility.yul\":822:885   */\n    tag_186:\n        /* \"#utility.yul\":769:891   */\n      pop\n      jump\t// out\n        /* \"#utility.yul\":897:1036   */\n    tag_138:\n        /* \"#utility.yul\":943:948   */\n      0x00\n        /* \"#utility.yul\":981:987   */\n      dup2\n        /* \"#utility.yul\":968:988   */\n      calldataload\n        /* \"#utility.yul\":959:988   */\n      swap1\n      pop\n        /* \"#utility.yul\":997:1030   */\n      tag_188\n        /* \"#utility.yul\":1024:1029   */\n      dup2\n        /* \"#utility.yul\":997:1030   */\n      tag_137\n      jump\t// in\n    tag_188:\n        /* \"#utility.yul\":897:1036   */\n      swap3\n      swap2\n      pop\n      pop\n      jump\t// out\n        /* \"#utility.yul\":1042:1371   */\n    tag_22:\n        /* \"#utility.yul\":1101:1107   */\n      0x00\n        /* \"#utility.yul\":1150:1152   */\n      0x20\n        /* \"#utility.yul\":1138:1147   */\n      dup3\n        /* \"#utility.yul\":1129:1136   */\n      dup5\n        /* \"#utility.yul\":1125:1148   */\n      sub\n        /* \"#utility.yul\":1121:1153   */\n      slt\n        /* \"#utility.yul\":1118:1237   */\n      iszero\n      tag_190\n      jumpi\n        /* \"#utility.yul\":1156:1235   */\n      tag_191\n      tag_135\n      jump\t// in\n    tag_191:\n        /* \"#utility.yul\":1118:1237   */\n    tag_190:\n        /* \"#utility.yul\":1276:1277   */\n      0x00\n        /* \"#utility.yul\":1301:1354   */\n      tag_192\n        /* \"#utility.yul\":1346:1353   */\n      dup5\n        /* \"#utility.yul\":1337:1343   */\n      dup3\n        /* \"#utility.yul\":1326:1335   */\n      dup6\n        /* \"#utility.yul\":1322:1344   */\n      add\n        /* \"#utility.yul\":1301:1354   */\n      tag_138\n      jump\t// in\n    tag_192:\n        /* \"#utility.yul\":1291:1354   */\n      swap2\n      pop\n        /* \"#utility.yul\":1247:1364   */\n      pop\n        /* \"#utility.yul\":1042:1371   */\n      swap3\n      swap2\n      pop\n      pop\n      jump\t// out\n        /* \"#utility.yul\":1377:1503   */\n    tag_139:\n        /* \"#utility.yul\":1414:1421   */\n      0x00\n        /* \"#utility.yul\":1454:1496   */\n      0xffffffffffffffffffffffffffffffffffffffff\n        /* \"#utility.yul\":1447:1452   */\n      dup3\n        /* \"#utility.yul\":1443:1497   */\n      and\n        /* \"#utility.yul\":1432:1497   */\n      swap1\n      pop\n        /* \"#utility.yul\":1377:1503   */\n      swap2\n      swap1\n      pop\n      jump\t// out\n        /* \"#utility.yul\":1509:1605   */\n    tag_140:\n        /* \"#utility.yul\":1546:1553   */\n      0x00\n        /* \"#utility.yul\":1575:1599   */\n      tag_195\n        /* \"#utility.yul\":1593:1598   */\n      dup3\n        /* \"#utility.yul\":1575:1599   */\n      tag_139\n      jump\t// in\n    tag_195:\n        /* \"#utility.yul\":1564:1599   */\n      swap1\n      pop\n        /* \"#utility.yul\":1509:1605   */\n      swap2\n      swap1\n      pop\n      jump\t// out\n        /* \"#utility.yul\":1611:1733   */\n    tag_141:\n        /* \"#utility.yul\":1684:1708   */\n      tag_197\n        /* \"#utility.yul\":1702:1707   */\n      dup2\n        /* \"#utility.yul\":1684:1708   */\n      tag_140\n      jump\t// in\n    tag_197:\n        /* \"#utility.yul\":1677:1682   */\n      dup2\n        /* \"#utility.yul\":1674:1709   */\n      eq\n        /* \"#utility.yul\":1664:1727   */\n      tag_198\n      jumpi\n        /* \"#utility.yul\":1723:1724   */\n      0x00\n        /* \"#utility.yul\":1720:1721   */\n      0x00\n        /* \"#utility.yul\":1713:1725   */\n      revert\n        /* \"#utility.yul\":1664:1727   */\n    tag_198:\n        /* \"#utility.yul\":1611:1733   */\n      pop\n      jump\t// out\n        /* \"#utility.yul\":1739:1878   */\n    tag_142:\n        /* \"#utility.yul\":1785:1790   */\n      0x00\n        /* \"#utility.yul\":1823:1829   */\n      dup2\n        /* \"#utility.yul\":1810:1830   */\n      calldataload\n        /* \"#utility.yul\":1801:1830   */\n      swap1\n      pop\n        /* \"#utility.yul\":1839:1872   */\n      tag_200\n        /* \"#utility.yul\":1866:1871   */\n      dup2\n        /* \"#utility.yul\":1839:1872   */\n      tag_141\n      jump\t// in\n    tag_200:\n        /* \"#utility.yul\":1739:1878   */\n      swap3\n      swap2\n      pop\n      pop\n      jump\t// out\n        /* \"#utility.yul\":1884:2213   */\n    tag_30:\n        /* \"#utility.yul\":1943:1949   */\n      0x00\n        /* \"#utility.yul\":1992:1994   */\n      0x20\n        /* \"#utility.yul\":1980:1989   */\n      dup3\n        /* \"#utility.yul\":1971:1978   */\n      dup5\n        /* \"#utility.yul\":1967:1990   */\n      sub\n        /* \"#utility.yul\":1963:1995   */\n      slt\n        /* \"#utility.yul\":1960:2079   */\n      iszero\n      tag_202\n      jumpi\n        /* \"#utility.yul\":1998:2077   */\n      tag_203\n      tag_135\n      jump\t// in\n    tag_203:\n        /* \"#utility.yul\":1960:2079   */\n    tag_202:\n        /* \"#utility.yul\":2118:2119   */\n      0x00\n        /* \"#utility.yul\":2143:2196   */\n      tag_204\n        /* \"#utility.yul\":2188:2195   */\n      dup5\n        /* \"#utility.yul\":2179:2185   */\n      dup3\n        /* \"#utility.yul\":2168:2177   */\n      dup6\n        /* \"#utility.yul\":2164:2186   */\n      add\n        /* \"#utility.yul\":2143:2196   */\n      tag_142\n      jump\t// in\n    tag_204:\n        /* \"#utility.yul\":2133:2196   */\n      swap2\n      pop\n        /* \"#utility.yul\":2089:2206   */\n      pop\n        /* \"#utility.yul\":1884:2213   */\n      swap3\n      swap2\n      pop\n      pop\n      jump\t// out\n        /* \"#utility.yul\":2219:2337   */\n    tag_143:\n        /* \"#utility.yul\":2306:2330   */\n      tag_206\n        /* \"#utility.yul\":2324:2329   */\n      dup2\n        /* \"#utility.yul\":2306:2330   */\n      tag_140\n      jump\t// in\n    tag_206:\n        /* \"#utility.yul\":2301:2304   */\n      dup3\n        /* \"#utility.yul\":2294:2331   */\n      mstore\n        /* \"#utility.yul\":2219:2337   */\n      pop\n      pop\n      jump\t// out\n        /* \"#utility.yul\":2343:2565   */\n    tag_48:\n        /* \"#utility.yul\":2436:2440   */\n      0x00\n        /* \"#utility.yul\":2474:2476   */\n      0x20\n        /* \"#utility.yul\":2463:2472   */\n      dup3\n        /* \"#utility.yul\":2459:2477   */\n      add\n        /* \"#utility.yul\":2451:2477   */\n      swap1\n      pop\n        /* \"#utility.yul\":2487:2558   */\n      tag_208\n        /* \"#utility.yul\":2555:2556   */\n      0x00\n        /* \"#utility.yul\":2544:2553   */\n      dup4\n        /* \"#utility.yul\":2540:2557   */\n      add\n        /* \"#utility.yul\":2531:2537   */\n      dup5\n        /* \"#utility.yul\":2487:2558   */\n      tag_143\n      jump\t// in\n    tag_208:\n        /* \"#utility.yul\":2343:2565   */\n      swap3\n      swap2\n      pop\n      pop\n      jump\t// out\n        /* \"#utility.yul\":2571:2661   */\n    tag_144:\n        /* \"#utility.yul\":2605:2612   */\n      0x00\n        /* \"#utility.yul\":2648:2653   */\n      dup2\n        /* \"#utility.yul\":2641:2654   */\n      iszero\n        /* \"#utility.yul\":2634:2655   */\n      iszero\n        /* \"#utility.yul\":2623:2655   */\n      swap1\n      pop\n        /* \"#utility.yul\":2571:2661   */\n      swap2\n      swap1\n      pop\n      jump\t// out\n        /* \"#utility.yul\":2667:2776   */\n    tag_145:\n        /* \"#utility.yul\":2748:2769   */\n      tag_211\n        /* \"#utility.yul\":2763:2768   */\n      dup2\n        /* \"#utility.yul\":2748:2769   */\n      tag_144\n      jump\t// in\n    tag_211:\n        /* \"#utility.yul\":2743:2746   */\n      dup3\n        /* \"#utility.yul\":2736:2770   */\n      mstore\n        /* \"#utility.yul\":2667:2776   */\n      pop\n      pop\n      jump\t// out\n        /* \"#utility.yul\":2782:2992   */\n    tag_53:\n        /* \"#utility.yul\":2869:2873   */\n      0x00\n        /* \"#utility.yul\":2907:2909   */\n      0x20\n        /* \"#utility.yul\":2896:2905   */\n      dup3\n        /* \"#utility.yul\":2892:2910   */\n      add\n        /* \"#utility.yul\":2884:2910   */\n      swap1\n      pop\n        /* \"#utility.yul\":2920:2985   */\n      tag_213\n        /* \"#utility.yul\":2982:2983   */\n      0x00\n        /* \"#utility.yul\":2971:2980   */\n      dup4\n        /* \"#utility.yul\":2967:2984   */\n      add\n        /* \"#utility.yul\":2958:2964   */\n      dup5\n        /* \"#utility.yul\":2920:2985   */\n      tag_145\n      jump\t// in\n    tag_213:\n        /* \"#utility.yul\":2782:2992   */\n      swap3\n      swap2\n      pop\n      pop\n      jump\t// out\n        /* \"#utility.yul\":2998:3058   */\n    tag_146:\n        /* \"#utility.yul\":3026:3029   */\n      0x00\n        /* \"#utility.yul\":3047:3052   */\n      dup2\n        /* \"#utility.yul\":3040:3052   */\n      swap1\n      pop\n        /* \"#utility.yul\":2998:3058   */\n      swap2\n      swap1\n      pop\n      jump\t// out\n        /* \"#utility.yul\":3064:3206   */\n    tag_147:\n        /* \"#utility.yul\":3114:3123   */\n      0x00\n        /* \"#utility.yul\":3147:3200   */\n      tag_216\n        /* \"#utility.yul\":3165:3199   */\n      tag_217\n        /* \"#utility.yul\":3174:3198   */\n      tag_218\n        /* \"#utility.yul\":3192:3197   */\n      dup5\n        /* \"#utility.yul\":3174:3198   */\n      tag_139\n      jump\t// in\n    tag_218:\n        /* \"#utility.yul\":3165:3199   */\n      tag_146\n      jump\t// in\n    tag_217:\n        /* \"#utility.yul\":3147:3200   */\n      tag_139\n      jump\t// in\n    tag_216:\n        /* \"#utility.yul\":3134:3200   */\n      swap1\n      pop\n        /* \"#utility.yul\":3064:3206   */\n      swap2\n      swap1\n      pop\n      jump\t// out\n        /* \"#utility.yul\":3212:3338   */\n    tag_148:\n        /* \"#utility.yul\":3262:3271   */\n      0x00\n        /* \"#utility.yul\":3295:3332   */\n      tag_220\n        /* \"#utility.yul\":3326:3331   */\n      dup3\n        /* \"#utility.yul\":3295:3332   */\n      tag_147\n      jump\t// in\n    tag_220:\n        /* \"#utility.yul\":3282:3332   */\n      swap1\n      pop\n        /* \"#utility.yul\":3212:3338   */\n      swap2\n      swap1\n      pop\n      jump\t// out\n        /* \"#utility.yul\":3344:3483   */\n    tag_149:\n        /* \"#utility.yul\":3407:3416   */\n      0x00\n        /* \"#utility.yul\":3440:3477   */\n      tag_222\n        /* \"#utility.yul\":3471:3476   */\n      dup3\n        /* \"#utility.yul\":3440:3477   */\n      tag_148\n      jump\t// in\n    tag_222:\n        /* \"#utility.yul\":3427:3477   */\n      swap1\n      pop\n        /* \"#utility.yul\":3344:3483   */\n      swap2\n      swap1\n      pop\n      jump\t// out\n        /* \"#utility.yul\":3489:3646   */\n    tag_150:\n        /* \"#utility.yul\":3589:3639   */\n      tag_224\n        /* \"#utility.yul\":3633:3638   */\n      dup2\n        /* \"#utility.yul\":3589:3639   */\n      tag_149\n      jump\t// in\n    tag_224:\n        /* \"#utility.yul\":3584:3587   */\n      dup3\n        /* \"#utility.yul\":3577:3640   */\n      mstore\n        /* \"#utility.yul\":3489:3646   */\n      pop\n      pop\n      jump\t// out\n        /* \"#utility.yul\":3652:3900   */\n    tag_66:\n        /* \"#utility.yul\":3758:3762   */\n      0x00\n        /* \"#utility.yul\":3796:3798   */\n      0x20\n        /* \"#utility.yul\":3785:3794   */\n      dup3\n        /* \"#utility.yul\":3781:3799   */\n      add\n        /* \"#utility.yul\":3773:3799   */\n      swap1\n      pop\n        /* \"#utility.yul\":3809:3893   */\n      tag_226\n        /* \"#utility.yul\":3890:3891   */\n      0x00\n        /* \"#utility.yul\":3879:3888   */\n      dup4\n        /* \"#utility.yul\":3875:3892   */\n      add\n        /* \"#utility.yul\":3866:3872   */\n      dup5\n        /* \"#utility.yul\":3809:3893   */\n      tag_150\n      jump\t// in\n    tag_226:\n        /* \"#utility.yul\":3652:3900   */\n      swap3\n      swap2\n      pop\n      pop\n      jump\t// out\n        /* \"#utility.yul\":3906:4075   */\n    tag_151:\n        /* \"#utility.yul\":3990:4001   */\n      0x00\n        /* \"#utility.yul\":4024:4030   */\n      dup3\n        /* \"#utility.yul\":4019:4022   */\n      dup3\n        /* \"#utility.yul\":4012:4031   */\n      mstore\n        /* \"#utility.yul\":4064:4068   */\n      0x20\n        /* \"#utility.yul\":4059:4062   */\n      dup3\n        /* \"#utility.yul\":4055:4069   */\n      add\n        /* \"#utility.yul\":4040:4069   */\n      swap1\n      pop\n        /* \"#utility.yul\":3906:4075   */\n      swap3\n      swap2\n      pop\n      pop\n      jump\t// out\n        /* \"#utility.yul\":4081:4249   */\n    tag_152:\n        /* \"#utility.yul\":4221:4241   */\n      0x53616c65206973206e6f74206163746976650000000000000000000000000000\n        /* \"#utility.yul\":4217:4218   */\n      0x00\n        /* \"#utility.yul\":4209:4215   */\n      dup3\n        /* \"#utility.yul\":4205:4219   */\n      add\n        /* \"#utility.yul\":4198:4242   */\n      mstore\n        /* \"#utility.yul\":4081:4249   */\n      pop\n      jump\t// out\n        /* \"#utility.yul\":4255:4621   */\n    tag_153:\n        /* \"#utility.yul\":4397:4400   */\n      0x00\n        /* \"#utility.yul\":4418:4485   */\n      tag_230\n        /* \"#utility.yul\":4482:4484   */\n      0x12\n        /* \"#utility.yul\":4477:4480   */\n      dup4\n        /* \"#utility.yul\":4418:4485   */\n      tag_151\n      jump\t// in\n    tag_230:\n        /* \"#utility.yul\":4411:4485   */\n      swap2\n      pop\n        /* \"#utility.yul\":4494:4587   */\n      tag_231\n        /* \"#utility.yul\":4583:4586   */\n      dup3\n        /* \"#utility.yul\":4494:4587   */\n      tag_152\n      jump\t// in\n    tag_231:\n        /* \"#utility.yul\":4612:4614   */\n      0x20\n        /* \"#utility.yul\":4607:4610   */\n      dup3\n        /* \"#utility.yul\":4603:4615   */\n      add\n        /* \"#utility.yul\":4596:4615   */\n      swap1\n      pop\n        /* \"#utility.yul\":4255:4621   */\n      swap2\n      swap1\n      pop\n      jump\t// out\n        /* \"#utility.yul\":4627:5046   */\n    tag_71:\n        /* \"#utility.yul\":4793:4797   */\n      0x00\n        /* \"#utility.yul\":4831:4833   */\n      0x20\n        /* \"#utility.yul\":4820:4829   */\n      dup3\n        /* \"#utility.yul\":4816:4834   */\n      add\n        /* \"#utility.yul\":4808:4834   */\n      swap1\n      pop\n        /* \"#utility.yul\":4880:4889   */\n      dup2\n        /* \"#utility.yul\":4874:4878   */\n      dup2\n        /* \"#utility.yul\":4870:4890   */\n      sub\n        /* \"#utility.yul\":4866:4867   */\n      0x00\n        /* \"#utility.yul\":4855:4864   */\n      dup4\n        /* \"#utility.yul\":4851:4868   */\n      add\n        /* \"#utility.yul\":4844:4891   */\n      mstore\n        /* \"#utility.yul\":4908:5039   */\n      tag_233\n        /* \"#utility.yul\":5034:5038   */\n      dup2\n        /* \"#utility.yul\":4908:5039   */\n      tag_153\n      jump\t// in\n    tag_233:\n        /* \"#utility.yul\":4900:5039   */\n      swap1\n      pop\n        /* \"#utility.yul\":4627:5046   */\n      swap2\n      swap1\n      pop\n      jump\t// out\n        /* \"#utility.yul\":5052:5232   */\n    tag_154:\n        /* \"#utility.yul\":5100:5177   */\n      0x4e487b7100000000000000000000000000000000000000000000000000000000\n        /* \"#utility.yul\":5097:5098   */\n      0x00\n        /* \"#utility.yul\":5090:5178   */\n      mstore\n        /* \"#utility.yul\":5197:5201   */\n      0x11\n        /* \"#utility.yul\":5194:5195   */\n      0x04\n        /* \"#utility.yul\":5187:5202   */\n      mstore\n        /* \"#utility.yul\":5221:5225   */\n      0x24\n        /* \"#utility.yul\":5218:5219   */\n      0x00\n        /* \"#utility.yul\":5211:5226   */\n      revert\n        /* \"#utility.yul\":5238:5648   */\n    tag_74:\n        /* \"#utility.yul\":5278:5285   */\n      0x00\n        /* \"#utility.yul\":5301:5321   */\n      tag_236\n        /* \"#utility.yul\":5319:5320   */\n      dup3\n        /* \"#utility.yul\":5301:5321   */\n      tag_132\n      jump\t// in\n    tag_236:\n        /* \"#utility.yul\":5296:5321   */\n      swap2\n      pop\n        /* \"#utility.yul\":5335:5355   */\n      tag_237\n        /* \"#utility.yul\":5353:5354   */\n      dup4\n        /* \"#utility.yul\":5335:5355   */\n      tag_132\n      jump\t// in\n    tag_237:\n        /* \"#utility.yul\":5330:5355   */\n      swap3\n      pop\n        /* \"#utility.yul\":5390:5391   */\n      dup3\n        /* \"#utility.yul\":5387:5388   */\n      dup3\n        /* \"#utility.yul\":5383:5392   */\n      mul\n        /* \"#utility.yul\":5412:5442   */\n      tag_238\n        /* \"#utility.yul\":5430:5441   */\n      dup2\n        /* \"#utility.yul\":5412:5442   */\n      tag_132\n      jump\t// in\n    tag_238:\n        /* \"#utility.yul\":5401:5442   */\n      swap2\n      pop\n        /* \"#utility.yul\":5591:5592   */\n      dup3\n        /* \"#utility.yul\":5582:5589   */\n      dup3\n        /* \"#utility.yul\":5578:5593   */\n      div\n        /* \"#utility.yul\":5575:5576   */\n      dup5\n        /* \"#utility.yul\":5572:5594   */\n      eq\n        /* \"#utility.yul\":5552:5553   */\n      dup4\n        /* \"#utility.yul\":5545:5554   */\n      iszero\n        /* \"#utility.yul\":5525:5608   */\n      or\n        /* \"#utility.yul\":5502:5641   */\n      tag_239\n      jumpi\n        /* \"#utility.yul\":5621:5639   */\n      tag_240\n      tag_154\n      jump\t// in\n    tag_240:\n        /* \"#utility.yul\":5502:5641   */\n    tag_239:\n        /* \"#utility.yul\":5286:5648   */\n      pop\n        /* \"#utility.yul\":5238:5648   */\n      swap3\n      swap2\n      pop\n      pop\n      jump\t// out\n        /* \"#utility.yul\":5654:5825   */\n    tag_155:\n        /* \"#utility.yul\":5794:5817   */\n      0x496e73756666696369656e7420424e422073656e740000000000000000000000\n        /* \"#utility.yul\":5790:5791   */\n      0x00\n        /* \"#utility.yul\":5782:5788   */\n      dup3\n        /* \"#utility.yul\":5778:5792   */\n      add\n        /* \"#utility.yul\":5771:5818   */\n      mstore\n        /* \"#utility.yul\":5654:5825   */\n      pop\n      jump\t// out\n        /* \"#utility.yul\":5831:6197   */\n    tag_156:\n        /* \"#utility.yul\":5973:5976   */\n      0x00\n        /* \"#utility.yul\":5994:6061   */\n      tag_243\n        /* \"#utility.yul\":6058:6060   */\n      0x15\n        /* \"#utility.yul\":6053:6056   */\n      dup4\n        /* \"#utility.yul\":5994:6061   */\n      tag_151\n      jump\t// in\n    tag_243:\n        /* \"#utility.yul\":5987:6061   */\n      swap2\n      pop\n        /* \"#utility.yul\":6070:6163   */\n      tag_244\n        /* \"#utility.yul\":6159:6162   */\n      dup3\n        /* \"#utility.yul\":6070:6163   */\n      tag_155\n      jump\t// in\n    tag_244:\n        /* \"#utility.yul\":6188:6190   */\n      0x20\n        /* \"#utility.yul\":6183:6186   */\n      dup3\n        /* \"#utility.yul\":6179:6191   */\n      add\n        /* \"#utility.yul\":6172:6191   */\n      swap1\n      pop\n        /* \"#utility.yul\":5831:6197   */\n      swap2\n      swap1\n      pop\n      jump\t// out\n        /* \"#utility.yul\":6203:6622   */\n    tag_77:\n        /* \"#utility.yul\":6369:6373   */\n      0x00\n        /* \"#utility.yul\":6407:6409   */\n      0x20\n        /* \"#utility.yul\":6396:6405   */\n      dup3\n        /* \"#utility.yul\":6392:6410   */\n      add\n        /* \"#utility.yul\":6384:6410   */\n      swap1\n      pop\n        /* \"#utility.yul\":6456:6465   */\n      dup2\n        /* \"#utility.yul\":6450:6454   */\n      dup2\n        /* \"#utility.yul\":6446:6466   */\n      sub\n        /* \"#utility.yul\":6442:6443   */\n      0x00\n        /* \"#utility.yul\":6431:6440   */\n      dup4\n        /* \"#utility.yul\":6427:6444   */\n      add\n        /* \"#utility.yul\":6420:6467   */\n      mstore\n        /* \"#utility.yul\":6484:6615   */\n      tag_246\n        /* \"#utility.yul\":6610:6614   */\n      dup2\n        /* \"#utility.yul\":6484:6615   */\n      tag_156\n      jump\t// in\n    tag_246:\n        /* \"#utility.yul\":6476:6615   */\n      swap1\n      pop\n        /* \"#utility.yul\":6203:6622   */\n      swap2\n      swap1\n      pop\n      jump\t// out\n        /* \"#utility.yul\":6628:6819   */\n    tag_79:\n        /* \"#utility.yul\":6668:6671   */\n      0x00\n        /* \"#utility.yul\":6687:6707   */\n      tag_248\n        /* \"#utility.yul\":6705:6706   */\n      dup3\n        /* \"#utility.yul\":6687:6707   */\n      tag_132\n      jump\t// in\n    tag_248:\n        /* \"#utility.yul\":6682:6707   */\n      swap2\n      pop\n        /* \"#utility.yul\":6721:6741   */\n      tag_249\n        /* \"#utility.yul\":6739:6740   */\n      dup4\n        /* \"#utility.yul\":6721:6741   */\n      tag_132\n      jump\t// in\n    tag_249:\n        /* \"#utility.yul\":6716:6741   */\n      swap3\n      pop\n        /* \"#utility.yul\":6764:6765   */\n      dup3\n        /* \"#utility.yul\":6761:6762   */\n      dup3\n        /* \"#utility.yul\":6757:6766   */\n      add\n        /* \"#utility.yul\":6750:6766   */\n      swap1\n      pop\n        /* \"#utility.yul\":6785:6788   */\n      dup1\n        /* \"#utility.yul\":6782:6783   */\n      dup3\n        /* \"#utility.yul\":6779:6789   */\n      gt\n        /* \"#utility.yul\":6776:6812   */\n      iszero\n      tag_250\n      jumpi\n        /* \"#utility.yul\":6792:6810   */\n      tag_251\n      tag_154\n      jump\t// in\n    tag_251:\n        /* \"#utility.yul\":6776:6812   */\n    tag_250:\n        /* \"#utility.yul\":6628:6819   */\n      swap3\n      swap2\n      pop\n      pop\n      jump\t// out\n        /* \"#utility.yul\":6825:7002   */\n    tag_157:\n        /* \"#utility.yul\":6965:6994   */\n      0x4e6f7420656e6f75676820746f6b656e7320617661696c61626c650000000000\n        /* \"#utility.yul\":6961:6962   */\n      0x00\n        /* \"#utility.yul\":6953:6959   */\n      dup3\n        /* \"#utility.yul\":6949:6963   */\n      add\n        /* \"#utility.yul\":6942:6995   */\n      mstore\n        /* \"#utility.yul\":6825:7002   */\n      pop\n      jump\t// out\n        /* \"#utility.yul\":7008:7374   */\n    tag_158:\n        /* \"#utility.yul\":7150:7153   */\n      0x00\n        /* \"#utility.yul\":7171:7238   */\n      tag_254\n        /* \"#utility.yul\":7235:7237   */\n      0x1b\n        /* \"#utility.yul\":7230:7233   */\n      dup4\n        /* \"#utility.yul\":7171:7238   */\n      tag_151\n      jump\t// in\n    tag_254:\n        /* \"#utility.yul\":7164:7238   */\n      swap2\n      pop\n        /* \"#utility.yul\":7247:7340   */\n      tag_255\n        /* \"#utility.yul\":7336:7339   */\n      dup3\n        /* \"#utility.yul\":7247:7340   */\n      tag_157\n      jump\t// in\n    tag_255:\n        /* \"#utility.yul\":7365:7367   */\n      0x20\n        /* \"#utility.yul\":7360:7363   */\n      dup3\n        /* \"#utility.yul\":7356:7368   */\n      add\n        /* \"#utility.yul\":7349:7368   */\n      swap1\n      pop\n        /* \"#utility.yul\":7008:7374   */\n      swap2\n      swap1\n      pop\n      jump\t// out\n        /* \"#utility.yul\":7380:7799   */\n    tag_82:\n        /* \"#utility.yul\":7546:7550   */\n      0x00\n        /* \"#utility.yul\":7584:7586   */\n      0x20\n        /* \"#utility.yul\":7573:7582   */\n      dup3\n        /* \"#utility.yul\":7569:7587   */\n      add\n        /* \"#utility.yul\":7561:7587   */\n      swap1\n      pop\n        /* \"#utility.yul\":7633:7642   */\n      dup2\n        /* \"#utility.yul\":7627:7631   */\n      dup2\n        /* \"#utility.yul\":7623:7643   */\n      sub\n        /* \"#utility.yul\":7619:7620   */\n      0x00\n        /* \"#utility.yul\":7608:7617   */\n      dup4\n        /* \"#utility.yul\":7604:7621   */\n      add\n        /* \"#utility.yul\":7597:7644   */\n      mstore\n        /* \"#utility.yul\":7661:7792   */\n      tag_257\n        /* \"#utility.yul\":7787:7791   */\n      dup2\n        /* \"#utility.yul\":7661:7792   */\n      tag_158\n      jump\t// in\n    tag_257:\n        /* \"#utility.yul\":7653:7792   */\n      swap1\n      pop\n        /* \"#utility.yul\":7380:7799   */\n      swap2\n      swap1\n      pop\n      jump\t// out\n        /* \"#utility.yul\":7805:7999   */\n    tag_87:\n        /* \"#utility.yul\":7845:7849   */\n      0x00\n        /* \"#utility.yul\":7865:7885   */\n      tag_259\n        /* \"#utility.yul\":7883:7884   */\n      dup3\n        /* \"#utility.yul\":7865:7885   */\n      tag_132\n      jump\t// in\n    tag_259:\n        /* \"#utility.yul\":7860:7885   */\n      swap2\n      pop\n        /* \"#utility.yul\":7899:7919   */\n      tag_260\n        /* \"#utility.yul\":7917:7918   */\n      dup4\n        /* \"#utility.yul\":7899:7919   */\n      tag_132\n      jump\t// in\n    tag_260:\n        /* \"#utility.yul\":7894:7919   */\n      swap3\n      pop\n        /* \"#utility.yul\":7943:7944   */\n      dup3\n        /* \"#utility.yul\":7940:7941   */\n      dup3\n        /* \"#utility.yul\":7936:7945   */\n      sub\n        /* \"#utility.yul\":7928:7945   */\n      swap1\n      pop\n        /* \"#utility.yul\":7967:7968   */\n      dup2\n        /* \"#utility.yul\":7961:7965   */\n      dup2\n        /* \"#utility.yul\":7958:7969   */\n      gt\n        /* \"#utility.yul\":7955:7992   */\n      iszero\n      tag_261\n      jumpi\n        /* \"#utility.yul\":7972:7990   */\n      tag_262\n      tag_154\n      jump\t// in\n    tag_262:\n        /* \"#utility.yul\":7955:7992   */\n    tag_261:\n        /* \"#utility.yul\":7805:7999   */\n      swap3\n      swap2\n      pop\n      pop\n      jump\t// out\n        /* \"#utility.yul\":8005:8337   */\n    tag_91:\n        /* \"#utility.yul\":8126:8130   */\n      0x00\n        /* \"#utility.yul\":8164:8166   */\n      0x40\n        /* \"#utility.yul\":8153:8162   */\n      dup3\n        /* \"#utility.yul\":8149:8167   */\n      add\n        /* \"#utility.yul\":8141:8167   */\n      swap1\n      pop\n        /* \"#utility.yul\":8177:8248   */\n      tag_264\n        /* \"#utility.yul\":8245:8246   */\n      0x00\n        /* \"#utility.yul\":8234:8243   */\n      dup4\n        /* \"#utility.yul\":8230:8247   */\n      add\n        /* \"#utility.yul\":8221:8227   */\n      dup6\n        /* \"#utility.yul\":8177:8248   */\n      tag_133\n      jump\t// in\n    tag_264:\n        /* \"#utility.yul\":8258:8330   */\n      tag_265\n        /* \"#utility.yul\":8326:8328   */\n      0x20\n        /* \"#utility.yul\":8315:8324   */\n      dup4\n        /* \"#utility.yul\":8311:8329   */\n      add\n        /* \"#utility.yul\":8302:8308   */\n      dup5\n        /* \"#utility.yul\":8258:8330   */\n      tag_133\n      jump\t// in\n    tag_265:\n        /* \"#utility.yul\":8005:8337   */\n      swap4\n      swap3\n      pop\n      pop\n      pop\n      jump\t// out\n        /* \"#utility.yul\":8343:8511   */\n    tag_159:\n        /* \"#utility.yul\":8483:8503   */\n      0x53616c65206e6f742066696e616c697a65640000000000000000000000000000\n        /* \"#utility.yul\":8479:8480   */\n      0x00\n        /* \"#utility.yul\":8471:8477   */\n      dup3\n        /* \"#utility.yul\":8467:8481   */\n      add\n        /* \"#utility.yul\":8460:8504   */\n      mstore\n        /* \"#utility.yul\":8343:8511   */\n      pop\n      jump\t// out\n        /* \"#utility.yul\":8517:8883   */\n    tag_160:\n        /* \"#utility.yul\":8659:8662   */\n      0x00\n        /* \"#utility.yul\":8680:8747   */\n      tag_268\n        /* \"#utility.yul\":8744:8746   */\n      0x12\n        /* \"#utility.yul\":8739:8742   */\n      dup4\n        /* \"#utility.yul\":8680:8747   */\n      tag_151\n      jump\t// in\n    tag_268:\n        /* \"#utility.yul\":8673:8747   */\n      swap2\n      pop\n        /* \"#utility.yul\":8756:8849   */\n      tag_269\n        /* \"#utility.yul\":8845:8848   */\n      dup3\n        /* \"#utility.yul\":8756:8849   */\n      tag_159\n      jump\t// in\n    tag_269:\n        /* \"#utility.yul\":8874:8876   */\n      0x20\n        /* \"#utility.yul\":8869:8872   */\n      dup3\n        /* \"#utility.yul\":8865:8877   */\n      add\n        /* \"#utility.yul\":8858:8877   */\n      swap1\n      pop\n        /* \"#utility.yul\":8517:8883   */\n      swap2\n      swap1\n      pop\n      jump\t// out\n        /* \"#utility.yul\":8889:9308   */\n    tag_95:\n        /* \"#utility.yul\":9055:9059   */\n      0x00\n        /* \"#utility.yul\":9093:9095   */\n      0x20\n        /* \"#utility.yul\":9082:9091   */\n      dup3\n        /* \"#utility.yul\":9078:9096   */\n      add\n        /* \"#utility.yul\":9070:9096   */\n      swap1\n      pop\n        /* \"#utility.yul\":9142:9151   */\n      dup2\n        /* \"#utility.yul\":9136:9140   */\n      dup2\n        /* \"#utility.yul\":9132:9152   */\n      sub\n        /* \"#utility.yul\":9128:9129   */\n      0x00\n        /* \"#utility.yul\":9117:9126   */\n      dup4\n        /* \"#utility.yul\":9113:9130   */\n      add\n        /* \"#utility.yul\":9106:9153   */\n      mstore\n        /* \"#utility.yul\":9170:9301   */\n      tag_271\n        /* \"#utility.yul\":9296:9300   */\n      dup2\n        /* \"#utility.yul\":9170:9301   */\n      tag_160\n      jump\t// in\n    tag_271:\n        /* \"#utility.yul\":9162:9301   */\n      swap1\n      pop\n        /* \"#utility.yul\":8889:9308   */\n      swap2\n      swap1\n      pop\n      jump\t// out\n        /* \"#utility.yul\":9314:9482   */\n    tag_161:\n        /* \"#utility.yul\":9454:9474   */\n      0x4e6f20746f6b656e7320746f20636c61696d0000000000000000000000000000\n        /* \"#utility.yul\":9450:9451   */\n      0x00\n        /* \"#utility.yul\":9442:9448   */\n      dup3\n        /* \"#utility.yul\":9438:9452   */\n      add\n        /* \"#utility.yul\":9431:9475   */\n      mstore\n        /* \"#utility.yul\":9314:9482   */\n      pop\n      jump\t// out\n        /* \"#utility.yul\":9488:9854   */\n    tag_162:\n        /* \"#utility.yul\":9630:9633   */\n      0x00\n        /* \"#utility.yul\":9651:9718   */\n      tag_274\n        /* \"#utility.yul\":9715:9717   */\n      0x12\n        /* \"#utility.yul\":9710:9713   */\n      dup4\n        /* \"#utility.yul\":9651:9718   */\n      tag_151\n      jump\t// in\n    tag_274:\n        /* \"#utility.yul\":9644:9718   */\n      swap2\n      pop\n        /* \"#utility.yul\":9727:9820   */\n      tag_275\n        /* \"#utility.yul\":9816:9819   */\n      dup3\n        /* \"#utility.yul\":9727:9820   */\n      tag_161\n      jump\t// in\n    tag_275:\n        /* \"#utility.yul\":9845:9847   */\n      0x20\n        /* \"#utility.yul\":9840:9843   */\n      dup3\n        /* \"#utility.yul\":9836:9848   */\n      add\n        /* \"#utility.yul\":9829:9848   */\n      swap1\n      pop\n        /* \"#utility.yul\":9488:9854   */\n      swap2\n      swap1\n      pop\n      jump\t// out\n        /* \"#utility.yul\":9860:10279   */\n    tag_98:\n        /* \"#utility.yul\":10026:10030   */\n      0x00\n        /* \"#utility.yul\":10064:10066   */\n      0x20\n        /* \"#utility.yul\":10053:10062   */\n      dup3\n        /* \"#utility.yul\":10049:10067   */\n      add\n        /* \"#utility.yul\":10041:10067   */\n      swap1\n      pop\n        /* \"#utility.yul\":10113:10122   */\n      dup2\n        /* \"#utility.yul\":10107:10111   */\n      dup2\n        /* \"#utility.yul\":10103:10123   */\n      sub\n        /* \"#utility.yul\":10099:10100   */\n      0x00\n        /* \"#utility.yul\":10088:10097   */\n      dup4\n        /* \"#utility.yul\":10084:10101   */\n      add\n        /* \"#utility.yul\":10077:10124   */\n      mstore\n        /* \"#utility.yul\":10141:10272   */\n      tag_277\n        /* \"#utility.yul\":10267:10271   */\n      dup2\n        /* \"#utility.yul\":10141:10272   */\n      tag_162\n      jump\t// in\n    tag_277:\n        /* \"#utility.yul\":10133:10272   */\n      swap1\n      pop\n        /* \"#utility.yul\":9860:10279   */\n      swap2\n      swap1\n      pop\n      jump\t// out\n        /* \"#utility.yul\":10285:10617   */\n    tag_100:\n        /* \"#utility.yul\":10406:10410   */\n      0x00\n        /* \"#utility.yul\":10444:10446   */\n      0x40\n        /* \"#utility.yul\":10433:10442   */\n      dup3\n        /* \"#utility.yul\":10429:10447   */\n      add\n        /* \"#utility.yul\":10421:10447   */\n      swap1\n      pop\n        /* \"#utility.yul\":10457:10528   */\n      tag_279\n        /* \"#utility.yul\":10525:10526   */\n      0x00\n        /* \"#utility.yul\":10514:10523   */\n      dup4\n        /* \"#utility.yul\":10510:10527   */\n      add\n        /* \"#utility.yul\":10501:10507   */\n      dup6\n        /* \"#utility.yul\":10457:10528   */\n      tag_143\n      jump\t// in\n    tag_279:\n        /* \"#utility.yul\":10538:10610   */\n      tag_280\n        /* \"#utility.yul\":10606:10608   */\n      0x20\n        /* \"#utility.yul\":10595:10604   */\n      dup4\n        /* \"#utility.yul\":10591:10609   */\n      add\n        /* \"#utility.yul\":10582:10588   */\n      dup5\n        /* \"#utility.yul\":10538:10610   */\n      tag_133\n      jump\t// in\n    tag_280:\n        /* \"#utility.yul\":10285:10617   */\n      swap4\n      swap3\n      pop\n      pop\n      pop\n      jump\t// out\n        /* \"#utility.yul\":10623:10739   */\n    tag_163:\n        /* \"#utility.yul\":10693:10714   */\n      tag_282\n        /* \"#utility.yul\":10708:10713   */\n      dup2\n        /* \"#utility.yul\":10693:10714   */\n      tag_144\n      jump\t// in\n    tag_282:\n        /* \"#utility.yul\":10686:10691   */\n      dup2\n        /* \"#utility.yul\":10683:10715   */\n      eq\n        /* \"#utility.yul\":10673:10733   */\n      tag_283\n      jumpi\n        /* \"#utility.yul\":10729:10730   */\n      0x00\n        /* \"#utility.yul\":10726:10727   */\n      0x00\n        /* \"#utility.yul\":10719:10731   */\n      revert\n        /* \"#utility.yul\":10673:10733   */\n    tag_283:\n        /* \"#utility.yul\":10623:10739   */\n      pop\n      jump\t// out\n        /* \"#utility.yul\":10745:10882   */\n    tag_164:\n        /* \"#utility.yul\":10799:10804   */\n      0x00\n        /* \"#utility.yul\":10830:10836   */\n      dup2\n        /* \"#utility.yul\":10824:10837   */\n      mload\n        /* \"#utility.yul\":10815:10837   */\n      swap1\n      pop\n        /* \"#utility.yul\":10846:10876   */\n      tag_285\n        /* \"#utility.yul\":10870:10875   */\n      dup2\n        /* \"#utility.yul\":10846:10876   */\n      tag_163\n      jump\t// in\n    tag_285:\n        /* \"#utility.yul\":10745:10882   */\n      swap3\n      swap2\n      pop\n      pop\n      jump\t// out\n        /* \"#utility.yul\":10888:11233   */\n    tag_104:\n        /* \"#utility.yul\":10955:10961   */\n      0x00\n        /* \"#utility.yul\":11004:11006   */\n      0x20\n        /* \"#utility.yul\":10992:11001   */\n      dup3\n        /* \"#utility.yul\":10983:10990   */\n      dup5\n        /* \"#utility.yul\":10979:11002   */\n      sub\n        /* \"#utility.yul\":10975:11007   */\n      slt\n        /* \"#utility.yul\":10972:11091   */\n      iszero\n      tag_287\n      jumpi\n        /* \"#utility.yul\":11010:11089   */\n      tag_288\n      tag_135\n      jump\t// in\n    tag_288:\n        /* \"#utility.yul\":10972:11091   */\n    tag_287:\n        /* \"#utility.yul\":11130:11131   */\n      0x00\n        /* \"#utility.yul\":11155:11216   */\n      tag_289\n        /* \"#utility.yul\":11208:11215   */\n      dup5\n        /* \"#utility.yul\":11199:11205   */\n      dup3\n        /* \"#utility.yul\":11188:11197   */\n      dup6\n        /* \"#utility.yul\":11184:11206   */\n      add\n        /* \"#utility.yul\":11155:11216   */\n      tag_164\n      jump\t// in\n    tag_289:\n        /* \"#utility.yul\":11145:11216   */\n      swap2\n      pop\n        /* \"#utility.yul\":11101:11226   */\n      pop\n        /* \"#utility.yul\":10888:11233   */\n      swap3\n      swap2\n      pop\n      pop\n      jump\t// out\n        /* \"#utility.yul\":11239:11410   */\n    tag_165:\n        /* \"#utility.yul\":11379:11402   */\n      0x546f6b656e207472616e73666572206661696c65640000000000000000000000\n        /* \"#utility.yul\":11375:11376   */\n      0x00\n        /* \"#utility.yul\":11367:11373   */\n      dup3\n        /* \"#utility.yul\":11363:11377   */\n      add\n        /* \"#utility.yul\":11356:11403   */\n      mstore\n        /* \"#utility.yul\":11239:11410   */\n      pop\n      jump\t// out\n        /* \"#utility.yul\":11416:11782   */\n    tag_166:\n        /* \"#utility.yul\":11558:11561   */\n      0x00\n        /* \"#utility.yul\":11579:11646   */\n      tag_292\n        /* \"#utility.yul\":11643:11645   */\n      0x15\n        /* \"#utility.yul\":11638:11641   */\n      dup4\n        /* \"#utility.yul\":11579:11646   */\n      tag_151\n      jump\t// in\n    tag_292:\n        /* \"#utility.yul\":11572:11646   */\n      swap2\n      pop\n        /* \"#utility.yul\":11655:11748   */\n      tag_293\n        /* \"#utility.yul\":11744:11747   */\n      dup3\n        /* \"#utility.yul\":11655:11748   */\n      tag_165\n      jump\t// in\n    tag_293:\n        /* \"#utility.yul\":11773:11775   */\n      0x20\n        /* \"#utility.yul\":11768:11771   */\n      dup3\n        /* \"#utility.yul\":11764:11776   */\n      add\n        /* \"#utility.yul\":11757:11776   */\n      swap1\n      pop\n        /* \"#utility.yul\":11416:11782   */\n      swap2\n      swap1\n      pop\n      jump\t// out\n        /* \"#utility.yul\":11788:12207   */\n    tag_107:\n        /* \"#utility.yul\":11954:11958   */\n      0x00\n        /* \"#utility.yul\":11992:11994   */\n      0x20\n        /* \"#utility.yul\":11981:11990   */\n      dup3\n        /* \"#utility.yul\":11977:11995   */\n      add\n        /* \"#utility.yul\":11969:11995   */\n      swap1\n      pop\n        /* \"#utility.yul\":12041:12050   */\n      dup2\n        /* \"#utility.yul\":12035:12039   */\n      dup2\n        /* \"#utility.yul\":12031:12051   */\n      sub\n        /* \"#utility.yul\":12027:12028   */\n      0x00\n        /* \"#utility.yul\":12016:12025   */\n      dup4\n        /* \"#utility.yul\":12012:12029   */\n      add\n        /* \"#utility.yul\":12005:12052   */\n      mstore\n        /* \"#utility.yul\":12069:12200   */\n      tag_295\n        /* \"#utility.yul\":12195:12199   */\n      dup2\n        /* \"#utility.yul\":12069:12200   */\n      tag_166\n      jump\t// in\n    tag_295:\n        /* \"#utility.yul\":12061:12200   */\n      swap1\n      pop\n        /* \"#utility.yul\":11788:12207   */\n      swap2\n      swap1\n      pop\n      jump\t// out\n        /* \"#utility.yul\":12213:12381   */\n    tag_167:\n        /* \"#utility.yul\":12353:12373   */\n      0x4e6f7420636f6e7472616374206f776e65720000000000000000000000000000\n        /* \"#utility.yul\":12349:12350   */\n      0x00\n        /* \"#utility.yul\":12341:12347   */\n      dup3\n        /* \"#utility.yul\":12337:12351   */\n      add\n        /* \"#utility.yul\":12330:12374   */\n      mstore\n        /* \"#utility.yul\":12213:12381   */\n      pop\n      jump\t// out\n        /* \"#utility.yul\":12387:12753   */\n    tag_168:\n        /* \"#utility.yul\":12529:12532   */\n      0x00\n        /* \"#utility.yul\":12550:12617   */\n      tag_298\n        /* \"#utility.yul\":12614:12616   */\n      0x12\n        /* \"#utility.yul\":12609:12612   */\n      dup4\n        /* \"#utility.yul\":12550:12617   */\n      tag_151\n      jump\t// in\n    tag_298:\n        /* \"#utility.yul\":12543:12617   */\n      swap2\n      pop\n        /* \"#utility.yul\":12626:12719   */\n      tag_299\n        /* \"#utility.yul\":12715:12718   */\n      dup3\n        /* \"#utility.yul\":12626:12719   */\n      tag_167\n      jump\t// in\n    tag_299:\n        /* \"#utility.yul\":12744:12746   */\n      0x20\n        /* \"#utility.yul\":12739:12742   */\n      dup3\n        /* \"#utility.yul\":12735:12747   */\n      add\n        /* \"#utility.yul\":12728:12747   */\n      swap1\n      pop\n        /* \"#utility.yul\":12387:12753   */\n      swap2\n      swap1\n      pop\n      jump\t// out\n        /* \"#utility.yul\":12759:13178   */\n    tag_112:\n        /* \"#utility.yul\":12925:12929   */\n      0x00\n        /* \"#utility.yul\":12963:12965   */\n      0x20\n        /* \"#utility.yul\":12952:12961   */\n      dup3\n        /* \"#utility.yul\":12948:12966   */\n      add\n        /* \"#utility.yul\":12940:12966   */\n      swap1\n      pop\n        /* \"#utility.yul\":13012:13021   */\n      dup2\n        /* \"#utility.yul\":13006:13010   */\n      dup2\n        /* \"#utility.yul\":13002:13022   */\n      sub\n        /* \"#utility.yul\":12998:12999   */\n      0x00\n        /* \"#utility.yul\":12987:12996   */\n      dup4\n        /* \"#utility.yul\":12983:13000   */\n      add\n        /* \"#utility.yul\":12976:13023   */\n      mstore\n        /* \"#utility.yul\":13040:13171   */\n      tag_301\n        /* \"#utility.yul\":13166:13170   */\n      dup2\n        /* \"#utility.yul\":13040:13171   */\n      tag_168\n      jump\t// in\n    tag_301:\n        /* \"#utility.yul\":13032:13171   */\n      swap1\n      pop\n        /* \"#utility.yul\":12759:13178   */\n      swap2\n      swap1\n      pop\n      jump\t// out\n        /* \"#utility.yul\":13184:13352   */\n    tag_169:\n        /* \"#utility.yul\":13324:13344   */\n      0x53616c6520686173206e6f7420656e6465640000000000000000000000000000\n        /* \"#utility.yul\":13320:13321   */\n      0x00\n        /* \"#utility.yul\":13312:13318   */\n      dup3\n        /* \"#utility.yul\":13308:13322   */\n      add\n        /* \"#utility.yul\":13301:13345   */\n      mstore\n        /* \"#utility.yul\":13184:13352   */\n      pop\n      jump\t// out\n        /* \"#utility.yul\":13358:13724   */\n    tag_170:\n        /* \"#utility.yul\":13500:13503   */\n      0x00\n        /* \"#utility.yul\":13521:13588   */\n      tag_304\n        /* \"#utility.yul\":13585:13587   */\n      0x12\n        /* \"#utility.yul\":13580:13583   */\n      dup4\n        /* \"#utility.yul\":13521:13588   */\n      tag_151\n      jump\t// in\n    tag_304:\n        /* \"#utility.yul\":13514:13588   */\n      swap2\n      pop\n        /* \"#utility.yul\":13597:13690   */\n      tag_305\n        /* \"#utility.yul\":13686:13689   */\n      dup3\n        /* \"#utility.yul\":13597:13690   */\n      tag_169\n      jump\t// in\n    tag_305:\n        /* \"#utility.yul\":13715:13717   */\n      0x20\n        /* \"#utility.yul\":13710:13713   */\n      dup3\n        /* \"#utility.yul\":13706:13718   */\n      add\n        /* \"#utility.yul\":13699:13718   */\n      swap1\n      pop\n        /* \"#utility.yul\":13358:13724   */\n      swap2\n      swap1\n      pop\n      jump\t// out\n        /* \"#utility.yul\":13730:14149   */\n    tag_116:\n        /* \"#utility.yul\":13896:13900   */\n      0x00\n        /* \"#utility.yul\":13934:13936   */\n      0x20\n        /* \"#utility.yul\":13923:13932   */\n      dup3\n        /* \"#utility.yul\":13919:13937   */\n      add\n        /* \"#utility.yul\":13911:13937   */\n      swap1\n      pop\n        /* \"#utility.yul\":13983:13992   */\n      dup2\n        /* \"#utility.yul\":13977:13981   */\n      dup2\n        /* \"#utility.yul\":13973:13993   */\n      sub\n        /* \"#utility.yul\":13969:13970   */\n      0x00\n        /* \"#utility.yul\":13958:13967   */\n      dup4\n        /* \"#utility.yul\":13954:13971   */\n      add\n        /* \"#utility.yul\":13947:13994   */\n      mstore\n        /* \"#utility.yul\":14011:14142   */\n      tag_307\n        /* \"#utility.yul\":14137:14141   */\n      dup2\n        /* \"#utility.yul\":14011:14142   */\n      tag_170\n      jump\t// in\n    tag_307:\n        /* \"#utility.yul\":14003:14142   */\n      swap1\n      pop\n        /* \"#utility.yul\":13730:14149   */\n      swap2\n      swap1\n      pop\n      jump\t// out\n        /* \"#utility.yul\":14155:14327   */\n    tag_171:\n        /* \"#utility.yul\":14295:14319   */\n      0x53616c6520616c72656164792066696e616c697a656400000000000000000000\n        /* \"#utility.yul\":14291:14292   */\n      0x00\n        /* \"#utility.yul\":14283:14289   */\n      dup3\n        /* \"#utility.yul\":14279:14293   */\n      add\n        /* \"#utility.yul\":14272:14320   */\n      mstore\n        /* \"#utility.yul\":14155:14327   */\n      pop\n      jump\t// out\n        /* \"#utility.yul\":14333:14699   */\n    tag_172:\n        /* \"#utility.yul\":14475:14478   */\n      0x00\n        /* \"#utility.yul\":14496:14563   */\n      tag_310\n        /* \"#utility.yul\":14560:14562   */\n      0x16\n        /* \"#utility.yul\":14555:14558   */\n      dup4\n        /* \"#utility.yul\":14496:14563   */\n      tag_151\n      jump\t// in\n    tag_310:\n        /* \"#utility.yul\":14489:14563   */\n      swap2\n      pop\n        /* \"#utility.yul\":14572:14665   */\n      tag_311\n        /* \"#utility.yul\":14661:14664   */\n      dup3\n        /* \"#utility.yul\":14572:14665   */\n      tag_171\n      jump\t// in\n    tag_311:\n        /* \"#utility.yul\":14690:14692   */\n      0x20\n        /* \"#utility.yul\":14685:14688   */\n      dup3\n        /* \"#utility.yul\":14681:14693   */\n      add\n        /* \"#utility.yul\":14674:14693   */\n      swap1\n      pop\n        /* \"#utility.yul\":14333:14699   */\n      swap2\n      swap1\n      pop\n      jump\t// out\n        /* \"#utility.yul\":14705:15124   */\n    tag_119:\n        /* \"#utility.yul\":14871:14875   */\n      0x00\n        /* \"#utility.yul\":14909:14911   */\n      0x20\n        /* \"#utility.yul\":14898:14907   */\n      dup3\n        /* \"#utility.yul\":14894:14912   */\n      add\n        /* \"#utility.yul\":14886:14912   */\n      swap1\n      pop\n        /* \"#utility.yul\":14958:14967   */\n      dup2\n        /* \"#utility.yul\":14952:14956   */\n      dup2\n        /* \"#utility.yul\":14948:14968   */\n      sub\n        /* \"#utility.yul\":14944:14945   */\n      0x00\n        /* \"#utility.yul\":14933:14942   */\n      dup4\n        /* \"#utility.yul\":14929:14946   */\n      add\n        /* \"#utility.yul\":14922:14969   */\n      mstore\n        /* \"#utility.yul\":14986:15117   */\n      tag_313\n        /* \"#utility.yul\":15112:15116   */\n      dup2\n        /* \"#utility.yul\":14986:15117   */\n      tag_172\n      jump\t// in\n    tag_313:\n        /* \"#utility.yul\":14978:15117   */\n      swap1\n      pop\n        /* \"#utility.yul\":14705:15124   */\n      swap2\n      swap1\n      pop\n      jump\t// out\n        /* \"#utility.yul\":15130:15312   */\n    tag_173:\n        /* \"#utility.yul\":15270:15304   */\n      0x5472616e73666572206f6620756e736f6c6420746f6b656e73206661696c6564\n        /* \"#utility.yul\":15266:15267   */\n      0x00\n        /* \"#utility.yul\":15258:15264   */\n      dup3\n        /* \"#utility.yul\":15254:15268   */\n      add\n        /* \"#utility.yul\":15247:15305   */\n      mstore\n        /* \"#utility.yul\":15130:15312   */\n      pop\n      jump\t// out\n        /* \"#utility.yul\":15318:15684   */\n    tag_174:\n        /* \"#utility.yul\":15460:15463   */\n      0x00\n        /* \"#utility.yul\":15481:15548   */\n      tag_316\n        /* \"#utility.yul\":15545:15547   */\n      0x20\n        /* \"#utility.yul\":15540:15543   */\n      dup4\n        /* \"#utility.yul\":15481:15548   */\n      tag_151\n      jump\t// in\n    tag_316:\n        /* \"#utility.yul\":15474:15548   */\n      swap2\n      pop\n        /* \"#utility.yul\":15557:15650   */\n      tag_317\n        /* \"#utility.yul\":15646:15649   */\n      dup3\n        /* \"#utility.yul\":15557:15650   */\n      tag_173\n      jump\t// in\n    tag_317:\n        /* \"#utility.yul\":15675:15677   */\n      0x20\n        /* \"#utility.yul\":15670:15673   */\n      dup3\n        /* \"#utility.yul\":15666:15678   */\n      add\n        /* \"#utility.yul\":15659:15678   */\n      swap1\n      pop\n        /* \"#utility.yul\":15318:15684   */\n      swap2\n      swap1\n      pop\n      jump\t// out\n        /* \"#utility.yul\":15690:16109   */\n    tag_130:\n        /* \"#utility.yul\":15856:15860   */\n      0x00\n        /* \"#utility.yul\":15894:15896   */\n      0x20\n        /* \"#utility.yul\":15883:15892   */\n      dup3\n        /* \"#utility.yul\":15879:15897   */\n      add\n        /* \"#utility.yul\":15871:15897   */\n      swap1\n      pop\n        /* \"#utility.yul\":15943:15952   */\n      dup2\n        /* \"#utility.yul\":15937:15941   */\n      dup2\n        /* \"#utility.yul\":15933:15953   */\n      sub\n        /* \"#utility.yul\":15929:15930   */\n      0x00\n        /* \"#utility.yul\":15918:15927   */\n      dup4\n        /* \"#utility.yul\":15914:15931   */\n      add\n        /* \"#utility.yul\":15907:15954   */\n      mstore\n        /* \"#utility.yul\":15971:16102   */\n      tag_319\n        /* \"#utility.yul\":16097:16101   */\n      dup2\n        /* \"#utility.yul\":15971:16102   */\n      tag_174\n      jump\t// in\n    tag_319:\n        /* \"#utility.yul\":15963:16102   */\n      swap1\n      pop\n        /* \"#utility.yul\":15690:16109   */\n      swap2\n      swap1\n      pop\n      jump\t// out\n\n    auxdata: 0xa2646970667358221220631af79959c5a47455ff0528ca896256b8ca187aa5f8d5257b8d410713d5376c64736f6c634300081d0033\n}\n",
				"bytecode": {
					"linkReferences": {},
					"object": "608060405234801561000f575f5ffd5b506040516114c53803806114c5833981810160405281019061003191906101a9565b818310610073576040517f08c379a000000000000000000000000000000000000000000000000000000000815260040161006a906102a0565b60405180910390fd5b335f5f6101000a81548173ffffffffffffffffffffffffffffffffffffffff021916908373ffffffffffffffffffffffffffffffffffffffff1602179055508460015f6101000a81548173ffffffffffffffffffffffffffffffffffffffff021916908373ffffffffffffffffffffffffffffffffffffffff1602179055508360028190555082600381905550816004819055508060058190555050505050506102be565b5f5ffd5b5f73ffffffffffffffffffffffffffffffffffffffff82169050919050565b5f6101458261011c565b9050919050565b6101558161013b565b811461015f575f5ffd5b50565b5f815190506101708161014c565b92915050565b5f819050919050565b61018881610176565b8114610192575f5ffd5b50565b5f815190506101a38161017f565b92915050565b5f5f5f5f5f60a086880312156101c2576101c1610118565b5b5f6101cf88828901610162565b95505060206101e088828901610195565b94505060406101f188828901610195565b935050606061020288828901610195565b925050608061021388828901610195565b9150509295509295909350565b5f82825260208201905092915050565b7f53616c65207374617274206d757374206265206265666f72652073616c6520655f8201527f6e64000000000000000000000000000000000000000000000000000000000000602082015250565b5f61028a602283610220565b915061029582610230565b604082019050919050565b5f6020820190508181035f8301526102b78161027e565b9050919050565b6111fa806102cb5f395ff3fe6080604052600436106100a6575f3560e01c80637ff9b596116100635780637ff9b596146101825780638da5cb5b146101ac578063a5f0dea2146101d6578063ab0bcc4114610200578063c10b93581461022a578063e985e36714610254576100a6565b806312aef8c3146100aa5780633610724e146100d457806348c54b9d146100f05780634bae6f3f14610106578063518ab2a81461014257806358a687ec1461016c575b5f5ffd5b3480156100b5575f5ffd5b506100be61027e565b6040516100cb9190610a67565b60405180910390f35b6100ee60048036038101906100e99190610aae565b610284565b005b3480156100fb575f5ffd5b50610104610494565b005b348015610111575f5ffd5b5061012c60048036038101906101279190610b33565b6106d3565b6040516101399190610a67565b60405180910390f35b34801561014d575f5ffd5b506101566106e8565b6040516101639190610a67565b60405180910390f35b348015610177575f5ffd5b506101806106ee565b005b34801561018d575f5ffd5b506101966109e2565b6040516101a39190610a67565b60405180910390f35b3480156101b7575f5ffd5b506101c06109e8565b6040516101cd9190610b6d565b60405180910390f35b3480156101e1575f5ffd5b506101ea610a0c565b6040516101f79190610ba0565b60405180910390f35b34801561020b575f5ffd5b50610214610a1e565b6040516102219190610a67565b60405180910390f35b348015610235575f5ffd5b5061023e610a24565b60405161024b9190610a67565b60405180910390f35b34801561025f575f5ffd5b50610268610a2a565b6040516102759190610c14565b60405180910390f35b60055481565b600354421015801561029857506004544211155b6102d7576040517f08c379a00000000000000000000000000000000000000000000000000000000081526004016102ce90610c87565b60405180910390fd5b5f600254826102e69190610cd2565b90508034101561032b576040517f08c379a000000000000000000000000000000000000000000000000000000000815260040161032290610d5d565b60405180910390fd5b6005548260065461033c9190610d7b565b111561037d576040517f08c379a000000000000000000000000000000000000000000000000000000000815260040161037490610df8565b60405180910390fd5b8160065f82825461038e9190610d7b565b925050819055508160085f3373ffffffffffffffffffffffffffffffffffffffff1673ffffffffffffffffffffffffffffffffffffffff1681526020019081526020015f205f8282546103e19190610d7b565b9250508190555080341115610440573373ffffffffffffffffffffffffffffffffffffffff166108fc82346104169190610e16565b90811502906040515f60405180830381858888f1935050505015801561043e573d5f5f3e3d5ffd5b505b3373ffffffffffffffffffffffffffffffffffffffff167f8fafebcaf9d154343dad25669bfa277f4fbacd7ac6b0c4fed522580e040a0f338383604051610488929190610e49565b60405180910390a25050565b60075f9054906101000a900460ff166104e2576040517f08c379a00000000000000000000000000000000000000000000000000000000081526004016104d990610eba565b60405180910390fd5b5f60085f3373ffffffffffffffffffffffffffffffffffffffff1673ffffffffffffffffffffffffffffffffffffffff1681526020019081526020015f205490505f8111610565576040517f08c379a000000000000000000000000000000000000000000000000000000000815260040161055c90610f22565b60405180910390fd5b5f60085f3373ffffffffffffffffffffffffffffffffffffffff1673ffffffffffffffffffffffffffffffffffffffff1681526020019081526020015f208190555060015f9054906101000a900473ffffffffffffffffffffffffffffffffffffffff1673ffffffffffffffffffffffffffffffffffffffff1663a9059cbb33836040518363ffffffff1660e01b8152600401610603929190610f40565b6020604051808303815f875af115801561061f573d5f5f3e3d5ffd5b505050506040513d601f19601f820116820180604052508101906106439190610f91565b610682576040517f08c379a000000000000000000000000000000000000000000000000000000000815260040161067990611006565b60405180910390fd5b3373ffffffffffffffffffffffffffffffffffffffff167f896e034966eaaf1adc54acc0f257056febbd300c9e47182cf761982cf1f5e430826040516106c89190610a67565b60405180910390a250565b6008602052805f5260405f205f915090505481565b60065481565b5f5f9054906101000a900473ffffffffffffffffffffffffffffffffffffffff1673ffffffffffffffffffffffffffffffffffffffff163373ffffffffffffffffffffffffffffffffffffffff161461077c576040517f08c379a00000000000000000000000000000000000000000000000000000000081526004016107739061106e565b60405180910390fd5b60045442116107c0576040517f08c379a00000000000000000000000000000000000000000000000000000000081526004016107b7906110d6565b60405180910390fd5b60075f9054906101000a900460ff161561080f576040517f08c379a00000000000000000000000000000000000000000000000000000000081526004016108069061113e565b60405180910390fd5b600160075f6101000a81548160ff0219169083151502179055505f5f9054906101000a900473ffffffffffffffffffffffffffffffffffffffff1673ffffffffffffffffffffffffffffffffffffffff166108fc4790811502906040515f60405180830381858888f1935050505015801561088c573d5f5f3e3d5ffd5b505f60065460055461089e9190610e16565b90505f8111156109a45760015f9054906101000a900473ffffffffffffffffffffffffffffffffffffffff1673ffffffffffffffffffffffffffffffffffffffff1663a9059cbb5f5f9054906101000a900473ffffffffffffffffffffffffffffffffffffffff16836040518363ffffffff1660e01b8152600401610924929190610f40565b6020604051808303815f875af1158015610940573d5f5f3e3d5ffd5b505050506040513d601f19601f820116820180604052508101906109649190610f91565b6109a3576040517f08c379a000000000000000000000000000000000000000000000000000000000815260040161099a906111a6565b60405180910390fd5b5b7f17b1a568460bc127a7f9a9677d502ac593fa4af690a1c3aed38bda591e196e2e600654826040516109d7929190610e49565b60405180910390a150565b60025481565b5f5f9054906101000a900473ffffffffffffffffffffffffffffffffffffffff1681565b60075f9054906101000a900460ff1681565b60035481565b60045481565b60015f9054906101000a900473ffffffffffffffffffffffffffffffffffffffff1681565b5f819050919050565b610a6181610a4f565b82525050565b5f602082019050610a7a5f830184610a58565b92915050565b5f5ffd5b610a8d81610a4f565b8114610a97575f5ffd5b50565b5f81359050610aa881610a84565b92915050565b5f60208284031215610ac357610ac2610a80565b5b5f610ad084828501610a9a565b91505092915050565b5f73ffffffffffffffffffffffffffffffffffffffff82169050919050565b5f610b0282610ad9565b9050919050565b610b1281610af8565b8114610b1c575f5ffd5b50565b5f81359050610b2d81610b09565b92915050565b5f60208284031215610b4857610b47610a80565b5b5f610b5584828501610b1f565b91505092915050565b610b6781610af8565b82525050565b5f602082019050610b805f830184610b5e565b92915050565b5f8115159050919050565b610b9a81610b86565b82525050565b5f602082019050610bb35f830184610b91565b92915050565b5f819050919050565b5f610bdc610bd7610bd284610ad9565b610bb9565b610ad9565b9050919050565b5f610bed82610bc2565b9050919050565b5f610bfe82610be3565b9050919050565b610c0e81610bf4565b82525050565b5f602082019050610c275f830184610c05565b92915050565b5f82825260208201905092915050565b7f53616c65206973206e6f742061637469766500000000000000000000000000005f82015250565b5f610c71601283610c2d565b9150610c7c82610c3d565b602082019050919050565b5f6020820190508181035f830152610c9e81610c65565b9050919050565b7f4e487b71000000000000000000000000000000000000000000000000000000005f52601160045260245ffd5b5f610cdc82610a4f565b9150610ce783610a4f565b9250828202610cf581610a4f565b91508282048414831517610d0c57610d0b610ca5565b5b5092915050565b7f496e73756666696369656e7420424e422073656e7400000000000000000000005f82015250565b5f610d47601583610c2d565b9150610d5282610d13565b602082019050919050565b5f6020820190508181035f830152610d7481610d3b565b9050919050565b5f610d8582610a4f565b9150610d9083610a4f565b9250828201905080821115610da857610da7610ca5565b5b92915050565b7f4e6f7420656e6f75676820746f6b656e7320617661696c61626c6500000000005f82015250565b5f610de2601b83610c2d565b9150610ded82610dae565b602082019050919050565b5f6020820190508181035f830152610e0f81610dd6565b9050919050565b5f610e2082610a4f565b9150610e2b83610a4f565b9250828203905081811115610e4357610e42610ca5565b5b92915050565b5f604082019050610e5c5f830185610a58565b610e696020830184610a58565b9392505050565b7f53616c65206e6f742066696e616c697a656400000000000000000000000000005f82015250565b5f610ea4601283610c2d565b9150610eaf82610e70565b602082019050919050565b5f6020820190508181035f830152610ed181610e98565b9050919050565b7f4e6f20746f6b656e7320746f20636c61696d00000000000000000000000000005f82015250565b5f610f0c601283610c2d565b9150610f1782610ed8565b602082019050919050565b5f6020820190508181035f830152610f3981610f00565b9050919050565b5f604082019050610f535f830185610b5e565b610f606020830184610a58565b9392505050565b610f7081610b86565b8114610f7a575f5ffd5b50565b5f81519050610f8b81610f67565b92915050565b5f60208284031215610fa657610fa5610a80565b5b5f610fb384828501610f7d565b91505092915050565b7f546f6b656e207472616e73666572206661696c656400000000000000000000005f82015250565b5f610ff0601583610c2d565b9150610ffb82610fbc565b602082019050919050565b5f6020820190508181035f83015261101d81610fe4565b9050919050565b7f4e6f7420636f6e7472616374206f776e657200000000000000000000000000005f82015250565b5f611058601283610c2d565b915061106382611024565b602082019050919050565b5f6020820190508181035f8301526110858161104c565b9050919050565b7f53616c6520686173206e6f7420656e64656400000000000000000000000000005f82015250565b5f6110c0601283610c2d565b91506110cb8261108c565b602082019050919050565b5f6020820190508181035f8301526110ed816110b4565b9050919050565b7f53616c6520616c72656164792066696e616c697a6564000000000000000000005f82015250565b5f611128601683610c2d565b9150611133826110f4565b602082019050919050565b5f6020820190508181035f8301526111558161111c565b9050919050565b7f5472616e73666572206f6620756e736f6c6420746f6b656e73206661696c65645f82015250565b5f611190602083610c2d565b915061119b8261115c565b602082019050919050565b5f6020820190508181035f8301526111bd81611184565b905091905056fea2646970667358221220631af79959c5a47455ff0528ca896256b8ca187aa5f8d5257b8d410713d5376c64736f6c634300081d0033",
					"opcodes": "PUSH1 0x80 PUSH1 0x40 MSTORE CALLVALUE DUP1 ISZERO PUSH2 0xF JUMPI PUSH0 PUSH0 REVERT JUMPDEST POP PUSH1 0x40 MLOAD PUSH2 0x14C5 CODESIZE SUB DUP1 PUSH2 0x14C5 DUP4 CODECOPY DUP2 DUP2 ADD PUSH1 0x40 MSTORE DUP2 ADD SWAP1 PUSH2 0x31 SWAP2 SWAP1 PUSH2 0x1A9 JUMP JUMPDEST DUP2 DUP4 LT PUSH2 0x73 JUMPI PUSH1 0x40 MLOAD PUSH32 0x8C379A000000000000000000000000000000000000000000000000000000000 DUP2 MSTORE PUSH1 0x4 ADD PUSH2 0x6A SWAP1 PUSH2 0x2A0 JUMP JUMPDEST PUSH1 0x40 MLOAD DUP1 SWAP2 SUB SWAP1 REVERT JUMPDEST CALLER PUSH0 PUSH0 PUSH2 0x100 EXP DUP2 SLOAD DUP2 PUSH20 0xFFFFFFFFFFFFFFFFFFFFFFFFFFFFFFFFFFFFFFFF MUL NOT AND SWAP1 DUP4 PUSH20 0xFFFFFFFFFFFFFFFFFFFFFFFFFFFFFFFFFFFFFFFF AND MUL OR SWAP1 SSTORE POP DUP5 PUSH1 0x1 PUSH0 PUSH2 0x100 EXP DUP2 SLOAD DUP2 PUSH20 0xFFFFFFFFFFFFFFFFFFFFFFFFFFFFFFFFFFFFFFFF MUL NOT AND SWAP1 DUP4 PUSH20 0xFFFFFFFFFFFFFFFFFFFFFFFFFFFFFFFFFFFFFFFF AND MUL OR SWAP1 SSTORE POP DUP4 PUSH1 0x2 DUP2 SWAP1 SSTORE POP DUP3 PUSH1 0x3 DUP2 SWAP1 SSTORE POP DUP2 PUSH1 0x4 DUP2 SWAP1 SSTORE POP DUP1 PUSH1 0x5 DUP2 SWAP1 SSTORE POP POP POP POP POP POP PUSH2 0x2BE JUMP JUMPDEST PUSH0 PUSH0 REVERT JUMPDEST PUSH0 PUSH20 0xFFFFFFFFFFFFFFFFFFFFFFFFFFFFFFFFFFFFFFFF DUP3 AND SWAP1 POP SWAP2 SWAP1 POP JUMP JUMPDEST PUSH0 PUSH2 0x145 DUP3 PUSH2 0x11C JUMP JUMPDEST SWAP1 POP SWAP2 SWAP1 POP JUMP JUMPDEST PUSH2 0x155 DUP2 PUSH2 0x13B JUMP JUMPDEST DUP2 EQ PUSH2 0x15F JUMPI PUSH0 PUSH0 REVERT JUMPDEST POP JUMP JUMPDEST PUSH0 DUP2 MLOAD SWAP1 POP PUSH2 0x170 DUP2 PUSH2 0x14C JUMP JUMPDEST SWAP3 SWAP2 POP POP JUMP JUMPDEST PUSH0 DUP2 SWAP1 POP SWAP2 SWAP1 POP JUMP JUMPDEST PUSH2 0x188 DUP2 PUSH2 0x176 JUMP JUMPDEST DUP2 EQ PUSH2 0x192 JUMPI PUSH0 PUSH0 REVERT JUMPDEST POP JUMP JUMPDEST PUSH0 DUP2 MLOAD SWAP1 POP PUSH2 0x1A3 DUP2 PUSH2 0x17F JUMP JUMPDEST SWAP3 SWAP2 POP POP JUMP JUMPDEST PUSH0 PUSH0 PUSH0 PUSH0 PUSH0 PUSH1 0xA0 DUP7 DUP9 SUB SLT ISZERO PUSH2 0x1C2 JUMPI PUSH2 0x1C1 PUSH2 0x118 JUMP JUMPDEST JUMPDEST PUSH0 PUSH2 0x1CF DUP9 DUP3 DUP10 ADD PUSH2 0x162 JUMP JUMPDEST SWAP6 POP POP PUSH1 0x20 PUSH2 0x1E0 DUP9 DUP3 DUP10 ADD PUSH2 0x195 JUMP JUMPDEST SWAP5 POP POP PUSH1 0x40 PUSH2 0x1F1 DUP9 DUP3 DUP10 ADD PUSH2 0x195 JUMP JUMPDEST SWAP4 POP POP PUSH1 0x60 PUSH2 0x202 DUP9 DUP3 DUP10 ADD PUSH2 0x195 JUMP JUMPDEST SWAP3 POP POP PUSH1 0x80 PUSH2 0x213 DUP9 DUP3 DUP10 ADD PUSH2 0x195 JUMP JUMPDEST SWAP2 POP POP SWAP3 SWAP6 POP SWAP3 SWAP6 SWAP1 SWAP4 POP JUMP JUMPDEST PUSH0 DUP3 DUP3 MSTORE PUSH1 0x20 DUP3 ADD SWAP1 POP SWAP3 SWAP2 POP POP JUMP JUMPDEST PUSH32 0x53616C65207374617274206D757374206265206265666F72652073616C652065 PUSH0 DUP3 ADD MSTORE PUSH32 0x6E64000000000000000000000000000000000000000000000000000000000000 PUSH1 0x20 DUP3 ADD MSTORE POP JUMP JUMPDEST PUSH0 PUSH2 0x28A PUSH1 0x22 DUP4 PUSH2 0x220 JUMP JUMPDEST SWAP2 POP PUSH2 0x295 DUP3 PUSH2 0x230 JUMP JUMPDEST PUSH1 0x40 DUP3 ADD SWAP1 POP SWAP2 SWAP1 POP JUMP JUMPDEST PUSH0 PUSH1 0x20 DUP3 ADD SWAP1 POP DUP2 DUP2 SUB PUSH0 DUP4 ADD MSTORE PUSH2 0x2B7 DUP2 PUSH2 0x27E JUMP JUMPDEST SWAP1 POP SWAP2 SWAP1 POP JUMP JUMPDEST PUSH2 0x11FA DUP1 PUSH2 0x2CB PUSH0 CODECOPY PUSH0 RETURN INVALID PUSH1 0x80 PUSH1 0x40 MSTORE PUSH1 0x4 CALLDATASIZE LT PUSH2 0xA6 JUMPI PUSH0 CALLDATALOAD PUSH1 0xE0 SHR DUP1 PUSH4 0x7FF9B596 GT PUSH2 0x63 JUMPI DUP1 PUSH4 0x7FF9B596 EQ PUSH2 0x182 JUMPI DUP1 PUSH4 0x8DA5CB5B EQ PUSH2 0x1AC JUMPI DUP1 PUSH4 0xA5F0DEA2 EQ PUSH2 0x1D6 JUMPI DUP1 PUSH4 0xAB0BCC41 EQ PUSH2 0x200 JUMPI DUP1 PUSH4 0xC10B9358 EQ PUSH2 0x22A JUMPI DUP1 PUSH4 0xE985E367 EQ PUSH2 0x254 JUMPI PUSH2 0xA6 JUMP JUMPDEST DUP1 PUSH4 0x12AEF8C3 EQ PUSH2 0xAA JUMPI DUP1 PUSH4 0x3610724E EQ PUSH2 0xD4 JUMPI DUP1 PUSH4 0x48C54B9D EQ PUSH2 0xF0 JUMPI DUP1 PUSH4 0x4BAE6F3F EQ PUSH2 0x106 JUMPI DUP1 PUSH4 0x518AB2A8 EQ PUSH2 0x142 JUMPI DUP1 PUSH4 0x58A687EC EQ PUSH2 0x16C JUMPI JUMPDEST PUSH0 PUSH0 REVERT JUMPDEST CALLVALUE DUP1 ISZERO PUSH2 0xB5 JUMPI PUSH0 PUSH0 REVERT JUMPDEST POP PUSH2 0xBE PUSH2 0x27E JUMP JUMPDEST PUSH1 0x40 MLOAD PUSH2 0xCB SWAP2 SWAP1 PUSH2 0xA67 JUMP JUMPDEST PUSH1 0x40 MLOAD DUP1 SWAP2 SUB SWAP1 RETURN JUMPDEST PUSH2 0xEE PUSH1 0x4 DUP1 CALLDATASIZE SUB DUP2 ADD SWAP1 PUSH2 0xE9 SWAP2 SWAP1 PUSH2 0xAAE JUMP JUMPDEST PUSH2 0x284 JUMP JUMPDEST STOP JUMPDEST CALLVALUE DUP1 ISZERO PUSH2 0xFB JUMPI PUSH0 PUSH0 REVERT JUMPDEST POP PUSH2 0x104 PUSH2 0x494 JUMP JUMPDEST STOP JUMPDEST CALLVALUE DUP1 ISZERO PUSH2 0x111 JUMPI PUSH0 PUSH0 REVERT JUMPDEST POP PUSH2 0x12C PUSH1 0x4 DUP1 CALLDATASIZE SUB DUP2 ADD SWAP1 PUSH2 0x127 SWAP2 SWAP1 PUSH2 0xB33 JUMP JUMPDEST PUSH2 0x6D3 JUMP JUMPDEST PUSH1 0x40 MLOAD PUSH2 0x139 SWAP2 SWAP1 PUSH2 0xA67 JUMP JUMPDEST PUSH1 0x40 MLOAD DUP1 SWAP2 SUB SWAP1 RETURN JUMPDEST CALLVALUE DUP1 ISZERO PUSH2 0x14D JUMPI PUSH0 PUSH0 REVERT JUMPDEST POP PUSH2 0x156 PUSH2 0x6E8 JUMP JUMPDEST PUSH1 0x40 MLOAD PUSH2 0x163 SWAP2 SWAP1 PUSH2 0xA67 JUMP JUMPDEST PUSH1 0x40 MLOAD DUP1 SWAP2 SUB SWAP1 RETURN JUMPDEST CALLVALUE DUP1 ISZERO PUSH2 0x177 JUMPI PUSH0 PUSH0 REVERT JUMPDEST POP PUSH2 0x180 PUSH2 0x6EE JUMP JUMPDEST STOP JUMPDEST CALLVALUE DUP1 ISZERO PUSH2 0x18D JUMPI PUSH0 PUSH0 REVERT JUMPDEST POP PUSH2 0x196 PUSH2 0x9E2 JUMP JUMPDEST PUSH1 0x40 MLOAD PUSH2 0x1A3 SWAP2 SWAP1 PUSH2 0xA67 JUMP JUMPDEST PUSH1 0x40 MLOAD DUP1 SWAP2 SUB SWAP1 RETURN JUMPDEST CALLVALUE DUP1 ISZERO PUSH2 0x1B7 JUMPI PUSH0 PUSH0 REVERT JUMPDEST POP PUSH2 0x1C0 PUSH2 0x9E8 JUMP JUMPDEST PUSH1 0x40 MLOAD PUSH2 0x1CD SWAP2 SWAP1 PUSH2 0xB6D JUMP JUMPDEST PUSH1 0x40 MLOAD DUP1 SWAP2 SUB SWAP1 RETURN JUMPDEST CALLVALUE DUP1 ISZERO PUSH2 0x1E1 JUMPI PUSH0 PUSH0 REVERT JUMPDEST POP PUSH2 0x1EA PUSH2 0xA0C JUMP JUMPDEST PUSH1 0x40 MLOAD PUSH2 0x1F7 SWAP2 SWAP1 PUSH2 0xBA0 JUMP JUMPDEST PUSH1 0x40 MLOAD DUP1 SWAP2 SUB SWAP1 RETURN JUMPDEST CALLVALUE DUP1 ISZERO PUSH2 0x20B JUMPI PUSH0 PUSH0 REVERT JUMPDEST POP PUSH2 0x214 PUSH2 0xA1E JUMP JUMPDEST PUSH1 0x40 MLOAD PUSH2 0x221 SWAP2 SWAP1 PUSH2 0xA67 JUMP JUMPDEST PUSH1 0x40 MLOAD DUP1 SWAP2 SUB SWAP1 RETURN JUMPDEST CALLVALUE DUP1 ISZERO PUSH2 0x235 JUMPI PUSH0 PUSH0 REVERT JUMPDEST POP PUSH2 0x23E PUSH2 0xA24 JUMP JUMPDEST PUSH1 0x40 MLOAD PUSH2 0x24B SWAP2 SWAP1 PUSH2 0xA67 JUMP JUMPDEST PUSH1 0x40 MLOAD DUP1 SWAP2 SUB SWAP1 RETURN JUMPDEST CALLVALUE DUP1 ISZERO PUSH2 0x25F JUMPI PUSH0 PUSH0 REVERT JUMPDEST POP PUSH2 0x268 PUSH2 0xA2A JUMP JUMPDEST PUSH1 0x40 MLOAD PUSH2 0x275 SWAP2 SWAP1 PUSH2 0xC14 JUMP JUMPDEST PUSH1 0x40 MLOAD DUP1 SWAP2 SUB SWAP1 RETURN JUMPDEST PUSH1 0x5 SLOAD DUP2 JUMP JUMPDEST PUSH1 0x3 SLOAD TIMESTAMP LT ISZERO DUP1 ISZERO PUSH2 0x298 JUMPI POP PUSH1 0x4 SLOAD TIMESTAMP GT ISZERO JUMPDEST PUSH2 0x2D7 JUMPI PUSH1 0x40 MLOAD PUSH32 0x8C379A000000000000000000000000000000000000000000000000000000000 DUP2 MSTORE PUSH1 0x4 ADD PUSH2 0x2CE SWAP1 PUSH2 0xC87 JUMP JUMPDEST PUSH1 0x40 MLOAD DUP1 SWAP2 SUB SWAP1 REVERT JUMPDEST PUSH0 PUSH1 0x2 SLOAD DUP3 PUSH2 0x2E6 SWAP2 SWAP1 PUSH2 0xCD2 JUMP JUMPDEST SWAP1 POP DUP1 CALLVALUE LT ISZERO PUSH2 0x32B JUMPI PUSH1 0x40 MLOAD PUSH32 0x8C379A000000000000000000000000000000000000000000000000000000000 DUP2 MSTORE PUSH1 0x4 ADD PUSH2 0x322 SWAP1 PUSH2 0xD5D JUMP JUMPDEST PUSH1 0x40 MLOAD DUP1 SWAP2 SUB SWAP1 REVERT JUMPDEST PUSH1 0x5 SLOAD DUP3 PUSH1 0x6 SLOAD PUSH2 0x33C SWAP2 SWAP1 PUSH2 0xD7B JUMP JUMPDEST GT ISZERO PUSH2 0x37D JUMPI PUSH1 0x40 MLOAD PUSH32 0x8C379A000000000000000000000000000000000000000000000000000000000 DUP2 MSTORE PUSH1 0x4 ADD PUSH2 0x374 SWAP1 PUSH2 0xDF8 JUMP JUMPDEST PUSH1 0x40 MLOAD DUP1 SWAP2 SUB SWAP1 REVERT JUMPDEST DUP2 PUSH1 0x6 PUSH0 DUP3 DUP3 SLOAD PUSH2 0x38E SWAP2 SWAP1 PUSH2 0xD7B JUMP JUMPDEST SWAP3 POP POP DUP2 SWAP1 SSTORE POP DUP2 PUSH1 0x8 PUSH0 CALLER PUSH20 0xFFFFFFFFFFFFFFFFFFFFFFFFFFFFFFFFFFFFFFFF AND PUSH20 0xFFFFFFFFFFFFFFFFFFFFFFFFFFFFFFFFFFFFFFFF AND DUP2 MSTORE PUSH1 0x20 ADD SWAP1 DUP2 MSTORE PUSH1 0x20 ADD PUSH0 KECCAK256 PUSH0 DUP3 DUP3 SLOAD PUSH2 0x3E1 SWAP2 SWAP1 PUSH2 0xD7B JUMP JUMPDEST SWAP3 POP POP DUP2 SWAP1 SSTORE POP DUP1 CALLVALUE GT ISZERO PUSH2 0x440 JUMPI CALLER PUSH20 0xFFFFFFFFFFFFFFFFFFFFFFFFFFFFFFFFFFFFFFFF AND PUSH2 0x8FC DUP3 CALLVALUE PUSH2 0x416 SWAP2 SWAP1 PUSH2 0xE16 JUMP JUMPDEST SWAP1 DUP2 ISZERO MUL SWAP1 PUSH1 0x40 MLOAD PUSH0 PUSH1 0x40 MLOAD DUP1 DUP4 SUB DUP2 DUP6 DUP9 DUP9 CALL SWAP4 POP POP POP POP ISZERO DUP1 ISZERO PUSH2 0x43E JUMPI RETURNDATASIZE PUSH0 PUSH0 RETURNDATACOPY RETURNDATASIZE PUSH0 REVERT JUMPDEST POP JUMPDEST CALLER PUSH20 0xFFFFFFFFFFFFFFFFFFFFFFFFFFFFFFFFFFFFFFFF AND PUSH32 0x8FAFEBCAF9D154343DAD25669BFA277F4FBACD7AC6B0C4FED522580E040A0F33 DUP4 DUP4 PUSH1 0x40 MLOAD PUSH2 0x488 SWAP3 SWAP2 SWAP1 PUSH2 0xE49 JUMP JUMPDEST PUSH1 0x40 MLOAD DUP1 SWAP2 SUB SWAP1 LOG2 POP POP JUMP JUMPDEST PUSH1 0x7 PUSH0 SWAP1 SLOAD SWAP1 PUSH2 0x100 EXP SWAP1 DIV PUSH1 0xFF AND PUSH2 0x4E2 JUMPI PUSH1 0x40 MLOAD PUSH32 0x8C379A000000000000000000000000000000000000000000000000000000000 DUP2 MSTORE PUSH1 0x4 ADD PUSH2 0x4D9 SWAP1 PUSH2 0xEBA JUMP JUMPDEST PUSH1 0x40 MLOAD DUP1 SWAP2 SUB SWAP1 REVERT JUMPDEST PUSH0 PUSH1 0x8 PUSH0 CALLER PUSH20 0xFFFFFFFFFFFFFFFFFFFFFFFFFFFFFFFFFFFFFFFF AND PUSH20 0xFFFFFFFFFFFFFFFFFFFFFFFFFFFFFFFFFFFFFFFF AND DUP2 MSTORE PUSH1 0x20 ADD SWAP1 DUP2 MSTORE PUSH1 0x20 ADD PUSH0 KECCAK256 SLOAD SWAP1 POP PUSH0 DUP2 GT PUSH2 0x565 JUMPI PUSH1 0x40 MLOAD PUSH32 0x8C379A000000000000000000000000000000000000000000000000000000000 DUP2 MSTORE PUSH1 0x4 ADD PUSH2 0x55C SWAP1 PUSH2 0xF22 JUMP JUMPDEST PUSH1 0x40 MLOAD DUP1 SWAP2 SUB SWAP1 REVERT JUMPDEST PUSH0 PUSH1 0x8 PUSH0 CALLER PUSH20 0xFFFFFFFFFFFFFFFFFFFFFFFFFFFFFFFFFFFFFFFF AND PUSH20 0xFFFFFFFFFFFFFFFFFFFFFFFFFFFFFFFFFFFFFFFF AND DUP2 MSTORE PUSH1 0x20 ADD SWAP1 DUP2 MSTORE PUSH1 0x20 ADD PUSH0 KECCAK256 DUP2 SWAP1 SSTORE POP PUSH1 0x1 PUSH0 SWAP1 SLOAD SWAP1 PUSH2 0x100 EXP SWAP1 DIV PUSH20 0xFFFFFFFFFFFFFFFFFFFFFFFFFFFFFFFFFFFFFFFF AND PUSH20 0xFFFFFFFFFFFFFFFFFFFFFFFFFFFFFFFFFFFFFFFF AND PUSH4 0xA9059CBB CALLER DUP4 PUSH1 0x40 MLOAD DUP4 PUSH4 0xFFFFFFFF AND PUSH1 0xE0 SHL DUP2 MSTORE PUSH1 0x4 ADD PUSH2 0x603 SWAP3 SWAP2 SWAP1 PUSH2 0xF40 JUMP JUMPDEST PUSH1 0x20 PUSH1 0x40 MLOAD DUP1 DUP4 SUB DUP2 PUSH0 DUP8 GAS CALL ISZERO DUP1 ISZERO PUSH2 0x61F JUMPI RETURNDATASIZE PUSH0 PUSH0 RETURNDATACOPY RETURNDATASIZE PUSH0 REVERT JUMPDEST POP POP POP POP PUSH1 0x40 MLOAD RETURNDATASIZE PUSH1 0x1F NOT PUSH1 0x1F DUP3 ADD AND DUP3 ADD DUP1 PUSH1 0x40 MSTORE POP DUP2 ADD SWAP1 PUSH2 0x643 SWAP2 SWAP1 PUSH2 0xF91 JUMP JUMPDEST PUSH2 0x682 JUMPI PUSH1 0x40 MLOAD PUSH32 0x8C379A000000000000000000000000000000000000000000000000000000000 DUP2 MSTORE PUSH1 0x4 ADD PUSH2 0x679 SWAP1 PUSH2 0x1006 JUMP JUMPDEST PUSH1 0x40 MLOAD DUP1 SWAP2 SUB SWAP1 REVERT JUMPDEST CALLER PUSH20 0xFFFFFFFFFFFFFFFFFFFFFFFFFFFFFFFFFFFFFFFF AND PUSH32 0x896E034966EAAF1ADC54ACC0F257056FEBBD300C9E47182CF761982CF1F5E430 DUP3 PUSH1 0x40 MLOAD PUSH2 0x6C8 SWAP2 SWAP1 PUSH2 0xA67 JUMP JUMPDEST PUSH1 0x40 MLOAD DUP1 SWAP2 SUB SWAP1 LOG2 POP JUMP JUMPDEST PUSH1 0x8 PUSH1 0x20 MSTORE DUP1 PUSH0 MSTORE PUSH1 0x40 PUSH0 KECCAK256 PUSH0 SWAP2 POP SWAP1 POP SLOAD DUP2 JUMP JUMPDEST PUSH1 0x6 SLOAD DUP2 JUMP JUMPDEST PUSH0 PUSH0 SWAP1 SLOAD SWAP1 PUSH2 0x100 EXP SWAP1 DIV PUSH20 0xFFFFFFFFFFFFFFFFFFFFFFFFFFFFFFFFFFFFFFFF AND PUSH20 0xFFFFFFFFFFFFFFFFFFFFFFFFFFFFFFFFFFFFFFFF AND CALLER PUSH20 0xFFFFFFFFFFFFFFFFFFFFFFFFFFFFFFFFFFFFFFFF AND EQ PUSH2 0x77C JUMPI PUSH1 0x40 MLOAD PUSH32 0x8C379A000000000000000000000000000000000000000000000000000000000 DUP2 MSTORE PUSH1 0x4 ADD PUSH2 0x773 SWAP1 PUSH2 0x106E JUMP JUMPDEST PUSH1 0x40 MLOAD DUP1 SWAP2 SUB SWAP1 REVERT JUMPDEST PUSH1 0x4 SLOAD TIMESTAMP GT PUSH2 0x7C0 JUMPI PUSH1 0x40 MLOAD PUSH32 0x8C379A000000000000000000000000000000000000000000000000000000000 DUP2 MSTORE PUSH1 0x4 ADD PUSH2 0x7B7 SWAP1 PUSH2 0x10D6 JUMP JUMPDEST PUSH1 0x40 MLOAD DUP1 SWAP2 SUB SWAP1 REVERT JUMPDEST PUSH1 0x7 PUSH0 SWAP1 SLOAD SWAP1 PUSH2 0x100 EXP SWAP1 DIV PUSH1 0xFF AND ISZERO PUSH2 0x80F JUMPI PUSH1 0x40 MLOAD PUSH32 0x8C379A000000000000000000000000000000000000000000000000000000000 DUP2 MSTORE PUSH1 0x4 ADD PUSH2 0x806 SWAP1 PUSH2 0x113E JUMP JUMPDEST PUSH1 0x40 MLOAD DUP1 SWAP2 SUB SWAP1 REVERT JUMPDEST PUSH1 0x1 PUSH1 0x7 PUSH0 PUSH2 0x100 EXP DUP2 SLOAD DUP2 PUSH1 0xFF MUL NOT AND SWAP1 DUP4 ISZERO ISZERO MUL OR SWAP1 SSTORE POP PUSH0 PUSH0 SWAP1 SLOAD SWAP1 PUSH2 0x100 EXP SWAP1 DIV PUSH20 0xFFFFFFFFFFFFFFFFFFFFFFFFFFFFFFFFFFFFFFFF AND PUSH20 0xFFFFFFFFFFFFFFFFFFFFFFFFFFFFFFFFFFFFFFFF AND PUSH2 0x8FC SELFBALANCE SWAP1 DUP2 ISZERO MUL SWAP1 PUSH1 0x40 MLOAD PUSH0 PUSH1 0x40 MLOAD DUP1 DUP4 SUB DUP2 DUP6 DUP9 DUP9 CALL SWAP4 POP POP POP POP ISZERO DUP1 ISZERO PUSH2 0x88C JUMPI RETURNDATASIZE PUSH0 PUSH0 RETURNDATACOPY RETURNDATASIZE PUSH0 REVERT JUMPDEST POP PUSH0 PUSH1 0x6 SLOAD PUSH1 0x5 SLOAD PUSH2 0x89E SWAP2 SWAP1 PUSH2 0xE16 JUMP JUMPDEST SWAP1 POP PUSH0 DUP2 GT ISZERO PUSH2 0x9A4 JUMPI PUSH1 0x1 PUSH0 SWAP1 SLOAD SWAP1 PUSH2 0x100 EXP SWAP1 DIV PUSH20 0xFFFFFFFFFFFFFFFFFFFFFFFFFFFFFFFFFFFFFFFF AND PUSH20 0xFFFFFFFFFFFFFFFFFFFFFFFFFFFFFFFFFFFFFFFF AND PUSH4 0xA9059CBB PUSH0 PUSH0 SWAP1 SLOAD SWAP1 PUSH2 0x100 EXP SWAP1 DIV PUSH20 0xFFFFFFFFFFFFFFFFFFFFFFFFFFFFFFFFFFFFFFFF AND DUP4 PUSH1 0x40 MLOAD DUP4 PUSH4 0xFFFFFFFF AND PUSH1 0xE0 SHL DUP2 MSTORE PUSH1 0x4 ADD PUSH2 0x924 SWAP3 SWAP2 SWAP1 PUSH2 0xF40 JUMP JUMPDEST PUSH1 0x20 PUSH1 0x40 MLOAD DUP1 DUP4 SUB DUP2 PUSH0 DUP8 GAS CALL ISZERO DUP1 ISZERO PUSH2 0x940 JUMPI RETURNDATASIZE PUSH0 PUSH0 RETURNDATACOPY RETURNDATASIZE PUSH0 REVERT JUMPDEST POP POP POP POP PUSH1 0x40 MLOAD RETURNDATASIZE PUSH1 0x1F NOT PUSH1 0x1F DUP3 ADD AND DUP3 ADD DUP1 PUSH1 0x40 MSTORE POP DUP2 ADD SWAP1 PUSH2 0x964 SWAP2 SWAP1 PUSH2 0xF91 JUMP JUMPDEST PUSH2 0x9A3 JUMPI PUSH1 0x40 MLOAD PUSH32 0x8C379A000000000000000000000000000000000000000000000000000000000 DUP2 MSTORE PUSH1 0x4 ADD PUSH2 0x99A SWAP1 PUSH2 0x11A6 JUMP JUMPDEST PUSH1 0x40 MLOAD DUP1 SWAP2 SUB SWAP1 REVERT JUMPDEST JUMPDEST PUSH32 0x17B1A568460BC127A7F9A9677D502AC593FA4AF690A1C3AED38BDA591E196E2E PUSH1 0x6 SLOAD DUP3 PUSH1 0x40 MLOAD PUSH2 0x9D7 SWAP3 SWAP2 SWAP1 PUSH2 0xE49 JUMP JUMPDEST PUSH1 0x40 MLOAD DUP1 SWAP2 SUB SWAP1 LOG1 POP JUMP JUMPDEST PUSH1 0x2 SLOAD DUP2 JUMP JUMPDEST PUSH0 PUSH0 SWAP1 SLOAD SWAP1 PUSH2 0x100 EXP SWAP1 DIV PUSH20 0xFFFFFFFFFFFFFFFFFFFFFFFFFFFFFFFFFFFFFFFF AND DUP2 JUMP JUMPDEST PUSH1 0x7 PUSH0 SWAP1 SLOAD SWAP1 PUSH2 0x100 EXP SWAP1 DIV PUSH1 0xFF AND DUP2 JUMP JUMPDEST PUSH1 0x3 SLOAD DUP2 JUMP JUMPDEST PUSH1 0x4 SLOAD DUP2 JUMP JUMPDEST PUSH1 0x1 PUSH0 SWAP1 SLOAD SWAP1 PUSH2 0x100 EXP SWAP1 DIV PUSH20 0xFFFFFFFFFFFFFFFFFFFFFFFFFFFFFFFFFFFFFFFF AND DUP2 JUMP JUMPDEST PUSH0 DUP2 SWAP1 POP SWAP2 SWAP1 POP JUMP JUMPDEST PUSH2 0xA61 DUP2 PUSH2 0xA4F JUMP JUMPDEST DUP3 MSTORE POP POP JUMP JUMPDEST PUSH0 PUSH1 0x20 DUP3 ADD SWAP1 POP PUSH2 0xA7A PUSH0 DUP4 ADD DUP5 PUSH2 0xA58 JUMP JUMPDEST SWAP3 SWAP2 POP POP JUMP JUMPDEST PUSH0 PUSH0 REVERT JUMPDEST PUSH2 0xA8D DUP2 PUSH2 0xA4F JUMP JUMPDEST DUP2 EQ PUSH2 0xA97 JUMPI PUSH0 PUSH0 REVERT JUMPDEST POP JUMP JUMPDEST PUSH0 DUP2 CALLDATALOAD SWAP1 POP PUSH2 0xAA8 DUP2 PUSH2 0xA84 JUMP JUMPDEST SWAP3 SWAP2 POP POP JUMP JUMPDEST PUSH0 PUSH1 0x20 DUP3 DUP5 SUB SLT ISZERO PUSH2 0xAC3 JUMPI PUSH2 0xAC2 PUSH2 0xA80 JUMP JUMPDEST JUMPDEST PUSH0 PUSH2 0xAD0 DUP5 DUP3 DUP6 ADD PUSH2 0xA9A JUMP JUMPDEST SWAP2 POP POP SWAP3 SWAP2 POP POP JUMP JUMPDEST PUSH0 PUSH20 0xFFFFFFFFFFFFFFFFFFFFFFFFFFFFFFFFFFFFFFFF DUP3 AND SWAP1 POP SWAP2 SWAP1 POP JUMP JUMPDEST PUSH0 PUSH2 0xB02 DUP3 PUSH2 0xAD9 JUMP JUMPDEST SWAP1 POP SWAP2 SWAP1 POP JUMP JUMPDEST PUSH2 0xB12 DUP2 PUSH2 0xAF8 JUMP JUMPDEST DUP2 EQ PUSH2 0xB1C JUMPI PUSH0 PUSH0 REVERT JUMPDEST POP JUMP JUMPDEST PUSH0 DUP2 CALLDATALOAD SWAP1 POP PUSH2 0xB2D DUP2 PUSH2 0xB09 JUMP JUMPDEST SWAP3 SWAP2 POP POP JUMP JUMPDEST PUSH0 PUSH1 0x20 DUP3 DUP5 SUB SLT ISZERO PUSH2 0xB48 JUMPI PUSH2 0xB47 PUSH2 0xA80 JUMP JUMPDEST JUMPDEST PUSH0 PUSH2 0xB55 DUP5 DUP3 DUP6 ADD PUSH2 0xB1F JUMP JUMPDEST SWAP2 POP POP SWAP3 SWAP2 POP POP JUMP JUMPDEST PUSH2 0xB67 DUP2 PUSH2 0xAF8 JUMP JUMPDEST DUP3 MSTORE POP POP JUMP JUMPDEST PUSH0 PUSH1 0x20 DUP3 ADD SWAP1 POP PUSH2 0xB80 PUSH0 DUP4 ADD DUP5 PUSH2 0xB5E JUMP JUMPDEST SWAP3 SWAP2 POP POP JUMP JUMPDEST PUSH0 DUP2 ISZERO ISZERO SWAP1 POP SWAP2 SWAP1 POP JUMP JUMPDEST PUSH2 0xB9A DUP2 PUSH2 0xB86 JUMP JUMPDEST DUP3 MSTORE POP POP JUMP JUMPDEST PUSH0 PUSH1 0x20 DUP3 ADD SWAP1 POP PUSH2 0xBB3 PUSH0 DUP4 ADD DUP5 PUSH2 0xB91 JUMP JUMPDEST SWAP3 SWAP2 POP POP JUMP JUMPDEST PUSH0 DUP2 SWAP1 POP SWAP2 SWAP1 POP JUMP JUMPDEST PUSH0 PUSH2 0xBDC PUSH2 0xBD7 PUSH2 0xBD2 DUP5 PUSH2 0xAD9 JUMP JUMPDEST PUSH2 0xBB9 JUMP JUMPDEST PUSH2 0xAD9 JUMP JUMPDEST SWAP1 POP SWAP2 SWAP1 POP JUMP JUMPDEST PUSH0 PUSH2 0xBED DUP3 PUSH2 0xBC2 JUMP JUMPDEST SWAP1 POP SWAP2 SWAP1 POP JUMP JUMPDEST PUSH0 PUSH2 0xBFE DUP3 PUSH2 0xBE3 JUMP JUMPDEST SWAP1 POP SWAP2 SWAP1 POP JUMP JUMPDEST PUSH2 0xC0E DUP2 PUSH2 0xBF4 JUMP JUMPDEST DUP3 MSTORE POP POP JUMP JUMPDEST PUSH0 PUSH1 0x20 DUP3 ADD SWAP1 POP PUSH2 0xC27 PUSH0 DUP4 ADD DUP5 PUSH2 0xC05 JUMP JUMPDEST SWAP3 SWAP2 POP POP JUMP JUMPDEST PUSH0 DUP3 DUP3 MSTORE PUSH1 0x20 DUP3 ADD SWAP1 POP SWAP3 SWAP2 POP POP JUMP JUMPDEST PUSH32 0x53616C65206973206E6F74206163746976650000000000000000000000000000 PUSH0 DUP3 ADD MSTORE POP JUMP JUMPDEST PUSH0 PUSH2 0xC71 PUSH1 0x12 DUP4 PUSH2 0xC2D JUMP JUMPDEST SWAP2 POP PUSH2 0xC7C DUP3 PUSH2 0xC3D JUMP JUMPDEST PUSH1 0x20 DUP3 ADD SWAP1 POP SWAP2 SWAP1 POP JUMP JUMPDEST PUSH0 PUSH1 0x20 DUP3 ADD SWAP1 POP DUP2 DUP2 SUB PUSH0 DUP4 ADD MSTORE PUSH2 0xC9E DUP2 PUSH2 0xC65 JUMP JUMPDEST SWAP1 POP SWAP2 SWAP1 POP JUMP JUMPDEST PUSH32 0x4E487B7100000000000000000000000000000000000000000000000000000000 PUSH0 MSTORE PUSH1 0x11 PUSH1 0x4 MSTORE PUSH1 0x24 PUSH0 REVERT JUMPDEST PUSH0 PUSH2 0xCDC DUP3 PUSH2 0xA4F JUMP JUMPDEST SWAP2 POP PUSH2 0xCE7 DUP4 PUSH2 0xA4F JUMP JUMPDEST SWAP3 POP DUP3 DUP3 MUL PUSH2 0xCF5 DUP2 PUSH2 0xA4F JUMP JUMPDEST SWAP2 POP DUP3 DUP3 DIV DUP5 EQ DUP4 ISZERO OR PUSH2 0xD0C JUMPI PUSH2 0xD0B PUSH2 0xCA5 JUMP JUMPDEST JUMPDEST POP SWAP3 SWAP2 POP POP JUMP JUMPDEST PUSH32 0x496E73756666696369656E7420424E422073656E740000000000000000000000 PUSH0 DUP3 ADD MSTORE POP JUMP JUMPDEST PUSH0 PUSH2 0xD47 PUSH1 0x15 DUP4 PUSH2 0xC2D JUMP JUMPDEST SWAP2 POP PUSH2 0xD52 DUP3 PUSH2 0xD13 JUMP JUMPDEST PUSH1 0x20 DUP3 ADD SWAP1 POP SWAP2 SWAP1 POP JUMP JUMPDEST PUSH0 PUSH1 0x20 DUP3 ADD SWAP1 POP DUP2 DUP2 SUB PUSH0 DUP4 ADD MSTORE PUSH2 0xD74 DUP2 PUSH2 0xD3B JUMP JUMPDEST SWAP1 POP SWAP2 SWAP1 POP JUMP JUMPDEST PUSH0 PUSH2 0xD85 DUP3 PUSH2 0xA4F JUMP JUMPDEST SWAP2 POP PUSH2 0xD90 DUP4 PUSH2 0xA4F JUMP JUMPDEST SWAP3 POP DUP3 DUP3 ADD SWAP1 POP DUP1 DUP3 GT ISZERO PUSH2 0xDA8 JUMPI PUSH2 0xDA7 PUSH2 0xCA5 JUMP JUMPDEST JUMPDEST SWAP3 SWAP2 POP POP JUMP JUMPDEST PUSH32 0x4E6F7420656E6F75676820746F6B656E7320617661696C61626C650000000000 PUSH0 DUP3 ADD MSTORE POP JUMP JUMPDEST PUSH0 PUSH2 0xDE2 PUSH1 0x1B DUP4 PUSH2 0xC2D JUMP JUMPDEST SWAP2 POP PUSH2 0xDED DUP3 PUSH2 0xDAE JUMP JUMPDEST PUSH1 0x20 DUP3 ADD SWAP1 POP SWAP2 SWAP1 POP JUMP JUMPDEST PUSH0 PUSH1 0x20 DUP3 ADD SWAP1 POP DUP2 DUP2 SUB PUSH0 DUP4 ADD MSTORE PUSH2 0xE0F DUP2 PUSH2 0xDD6 JUMP JUMPDEST SWAP1 POP SWAP2 SWAP1 POP JUMP JUMPDEST PUSH0 PUSH2 0xE20 DUP3 PUSH2 0xA4F JUMP JUMPDEST SWAP2 POP PUSH2 0xE2B DUP4 PUSH2 0xA4F JUMP JUMPDEST SWAP3 POP DUP3 DUP3 SUB SWAP1 POP DUP2 DUP2 GT ISZERO PUSH2 0xE43 JUMPI PUSH2 0xE42 PUSH2 0xCA5 JUMP JUMPDEST JUMPDEST SWAP3 SWAP2 POP POP JUMP JUMPDEST PUSH0 PUSH1 0x40 DUP3 ADD SWAP1 POP PUSH2 0xE5C PUSH0 DUP4 ADD DUP6 PUSH2 0xA58 JUMP JUMPDEST PUSH2 0xE69 PUSH1 0x20 DUP4 ADD DUP5 PUSH2 0xA58 JUMP JUMPDEST SWAP4 SWAP3 POP POP POP JUMP JUMPDEST PUSH32 0x53616C65206E6F742066696E616C697A65640000000000000000000000000000 PUSH0 DUP3 ADD MSTORE POP JUMP JUMPDEST PUSH0 PUSH2 0xEA4 PUSH1 0x12 DUP4 PUSH2 0xC2D JUMP JUMPDEST SWAP2 POP PUSH2 0xEAF DUP3 PUSH2 0xE70 JUMP JUMPDEST PUSH1 0x20 DUP3 ADD SWAP1 POP SWAP2 SWAP1 POP JUMP JUMPDEST PUSH0 PUSH1 0x20 DUP3 ADD SWAP1 POP DUP2 DUP2 SUB PUSH0 DUP4 ADD MSTORE PUSH2 0xED1 DUP2 PUSH2 0xE98 JUMP JUMPDEST SWAP1 POP SWAP2 SWAP1 POP JUMP JUMPDEST PUSH32 0x4E6F20746F6B656E7320746F20636C61696D0000000000000000000000000000 PUSH0 DUP3 ADD MSTORE POP JUMP JUMPDEST PUSH0 PUSH2 0xF0C PUSH1 0x12 DUP4 PUSH2 0xC2D JUMP JUMPDEST SWAP2 POP PUSH2 0xF17 DUP3 PUSH2 0xED8 JUMP JUMPDEST PUSH1 0x20 DUP3 ADD SWAP1 POP SWAP2 SWAP1 POP JUMP JUMPDEST PUSH0 PUSH1 0x20 DUP3 ADD SWAP1 POP DUP2 DUP2 SUB PUSH0 DUP4 ADD MSTORE PUSH2 0xF39 DUP2 PUSH2 0xF00 JUMP JUMPDEST SWAP1 POP SWAP2 SWAP1 POP JUMP JUMPDEST PUSH0 PUSH1 0x40 DUP3 ADD SWAP1 POP PUSH2 0xF53 PUSH0 DUP4 ADD DUP6 PUSH2 0xB5E JUMP JUMPDEST PUSH2 0xF60 PUSH1 0x20 DUP4 ADD DUP5 PUSH2 0xA58 JUMP JUMPDEST SWAP4 SWAP3 POP POP POP JUMP JUMPDEST PUSH2 0xF70 DUP2 PUSH2 0xB86 JUMP JUMPDEST DUP2 EQ PUSH2 0xF7A JUMPI PUSH0 PUSH0 REVERT JUMPDEST POP JUMP JUMPDEST PUSH0 DUP2 MLOAD SWAP1 POP PUSH2 0xF8B DUP2 PUSH2 0xF67 JUMP JUMPDEST SWAP3 SWAP2 POP POP JUMP JUMPDEST PUSH0 PUSH1 0x20 DUP3 DUP5 SUB SLT ISZERO PUSH2 0xFA6 JUMPI PUSH2 0xFA5 PUSH2 0xA80 JUMP JUMPDEST JUMPDEST PUSH0 PUSH2 0xFB3 DUP5 DUP3 DUP6 ADD PUSH2 0xF7D JUMP JUMPDEST SWAP2 POP POP SWAP3 SWAP2 POP POP JUMP JUMPDEST PUSH32 0x546F6B656E207472616E73666572206661696C65640000000000000000000000 PUSH0 DUP3 ADD MSTORE POP JUMP JUMPDEST PUSH0 PUSH2 0xFF0 PUSH1 0x15 DUP4 PUSH2 0xC2D JUMP JUMPDEST SWAP2 POP PUSH2 0xFFB DUP3 PUSH2 0xFBC JUMP JUMPDEST PUSH1 0x20 DUP3 ADD SWAP1 POP SWAP2 SWAP1 POP JUMP JUMPDEST PUSH0 PUSH1 0x20 DUP3 ADD SWAP1 POP DUP2 DUP2 SUB PUSH0 DUP4 ADD MSTORE PUSH2 0x101D DUP2 PUSH2 0xFE4 JUMP JUMPDEST SWAP1 POP SWAP2 SWAP1 POP JUMP JUMPDEST PUSH32 0x4E6F7420636F6E7472616374206F776E65720000000000000000000000000000 PUSH0 DUP3 ADD MSTORE POP JUMP JUMPDEST PUSH0 PUSH2 0x1058 PUSH1 0x12 DUP4 PUSH2 0xC2D JUMP JUMPDEST SWAP2 POP PUSH2 0x1063 DUP3 PUSH2 0x1024 JUMP JUMPDEST PUSH1 0x20 DUP3 ADD SWAP1 POP SWAP2 SWAP1 POP JUMP JUMPDEST PUSH0 PUSH1 0x20 DUP3 ADD SWAP1 POP DUP2 DUP2 SUB PUSH0 DUP4 ADD MSTORE PUSH2 0x1085 DUP2 PUSH2 0x104C JUMP JUMPDEST SWAP1 POP SWAP2 SWAP1 POP JUMP JUMPDEST PUSH32 0x53616C6520686173206E6F7420656E6465640000000000000000000000000000 PUSH0 DUP3 ADD MSTORE POP JUMP JUMPDEST PUSH0 PUSH2 0x10C0 PUSH1 0x12 DUP4 PUSH2 0xC2D JUMP JUMPDEST SWAP2 POP PUSH2 0x10CB DUP3 PUSH2 0x108C JUMP JUMPDEST PUSH1 0x20 DUP3 ADD SWAP1 POP SWAP2 SWAP1 POP JUMP JUMPDEST PUSH0 PUSH1 0x20 DUP3 ADD SWAP1 POP DUP2 DUP2 SUB PUSH0 DUP4 ADD MSTORE PUSH2 0x10ED DUP2 PUSH2 0x10B4 JUMP JUMPDEST SWAP1 POP SWAP2 SWAP1 POP JUMP JUMPDEST PUSH32 0x53616C6520616C72656164792066696E616C697A656400000000000000000000 PUSH0 DUP3 ADD MSTORE POP JUMP JUMPDEST PUSH0 PUSH2 0x1128 PUSH1 0x16 DUP4 PUSH2 0xC2D JUMP JUMPDEST SWAP2 POP PUSH2 0x1133 DUP3 PUSH2 0x10F4 JUMP JUMPDEST PUSH1 0x20 DUP3 ADD SWAP1 POP SWAP2 SWAP1 POP JUMP JUMPDEST PUSH0 PUSH1 0x20 DUP3 ADD SWAP1 POP DUP2 DUP2 SUB PUSH0 DUP4 ADD MSTORE PUSH2 0x1155 DUP2 PUSH2 0x111C JUMP JUMPDEST SWAP1 POP SWAP2 SWAP1 POP JUMP JUMPDEST PUSH32 0x5472616E73666572206F6620756E736F6C6420746F6B656E73206661696C6564 PUSH0 DUP3 ADD MSTORE POP JUMP JUMPDEST PUSH0 PUSH2 0x1190 PUSH1 0x20 DUP4 PUSH2 0xC2D JUMP JUMPDEST SWAP2 POP PUSH2 0x119B DUP3 PUSH2 0x115C JUMP JUMPDEST PUSH1 0x20 DUP3 ADD SWAP1 POP SWAP2 SWAP1 POP JUMP JUMPDEST PUSH0 PUSH1 0x20 DUP3 ADD SWAP1 POP DUP2 DUP2 SUB PUSH0 DUP4 ADD MSTORE PUSH2 0x11BD DUP2 PUSH2 0x1184 JUMP JUMPDEST SWAP1 POP SWAP2 SWAP1 POP JUMP INVALID LOG2 PUSH5 0x6970667358 0x22 SLT KECCAK256 PUSH4 0x1AF79959 0xC5 LOG4 PUSH21 0x55FF0528CA896256B8CA187AA5F8D5257B8D410713 0xD5 CALLDATACOPY PUSH13 0x64736F6C634300081D00330000 "
				},
				"gasEstimates": {
					"creation": {
						"codeDepositCost": "920400",
						"executionCost": "infinite",
						"totalCost": "infinite"
					},
					"external": {
						"buyTokens(uint256)": "infinite",
						"claimTokens()": "infinite",
						"finalizeSale()": "infinite",
						"owner()": "2529",
						"purchasedTokens(address)": "2869",
						"saleEnd()": "2513",
						"saleFinalized()": "2510",
						"saleStart()": "2491",
						"saleToken()": "infinite",
						"tokenPrice()": "2425",
						"tokensForSale()": "2426",
						"tokensSold()": "2514"
					}
				},
				"methodIdentifiers": {
					"buyTokens(uint256)": "3610724e",
					"claimTokens()": "48c54b9d",
					"finalizeSale()": "58a687ec",
					"owner()": "8da5cb5b",
					"purchasedTokens(address)": "4bae6f3f",
					"saleEnd()": "c10b9358",
					"saleFinalized()": "a5f0dea2",
					"saleStart()": "ab0bcc41",
					"saleToken()": "e985e367",
					"tokenPrice()": "7ff9b596",
					"tokensForSale()": "12aef8c3",
					"tokensSold()": "518ab2a8"
				}
			},
			"storageLayout": {
				"storage": [
					{
						"astId": 46,
						"contract": "B/binanceLaunchPad.sol:BinanceLaunchpadSale",
						"label": "owner",
						"offset": 0,
						"slot": "0",
						"type": "t_address"
					},
					{
						"astId": 49,
						"contract": "B/binanceLaunchPad.sol:BinanceLaunchpadSale",
						"label": "saleToken",
						"offset": 0,
						"slot": "1",
						"type": "t_contract(IBEP20)43"
					},
					{
						"astId": 51,
						"contract": "B/binanceLaunchPad.sol:BinanceLaunchpadSale",
						"label": "tokenPrice",
						"offset": 0,
						"slot": "2",
						"type": "t_uint256"
					},
					{
						"astId": 53,
						"contract": "B/binanceLaunchPad.sol:BinanceLaunchpadSale",
						"label": "saleStart",
						"offset": 0,
						"slot": "3",
						"type": "t_uint256"
					},
					{
						"astId": 55,
						"contract": "B/binanceLaunchPad.sol:BinanceLaunchpadSale",
						"label": "saleEnd",
						"offset": 0,
						"slot": "4",
						"type": "t_uint256"
					},
					{
						"astId": 57,
						"contract": "B/binanceLaunchPad.sol:BinanceLaunchpadSale",
						"label": "tokensForSale",
						"offset": 0,
						"slot": "5",
						"type": "t_uint256"
					},
					{
						"astId": 59,
						"contract": "B/binanceLaunchPad.sol:BinanceLaunchpadSale",
						"label": "tokensSold",
						"offset": 0,
						"slot": "6",
						"type": "t_uint256"
					},
					{
						"astId": 61,
						"contract": "B/binanceLaunchPad.sol:BinanceLaunchpadSale",
						"label": "saleFinalized",
						"offset": 0,
						"slot": "7",
						"type": "t_bool"
					},
					{
						"astId": 65,
						"contract": "B/binanceLaunchPad.sol:BinanceLaunchpadSale",
						"label": "purchasedTokens",
						"offset": 0,
						"slot": "8",
						"type": "t_mapping(t_address,t_uint256)"
					}
				],
				"types": {
					"t_address": {
						"encoding": "inplace",
						"label": "address",
						"numberOfBytes": "20"
					},
					"t_bool": {
						"encoding": "inplace",
						"label": "bool",
						"numberOfBytes": "1"
					},
					"t_contract(IBEP20)43": {
						"encoding": "inplace",
						"label": "contract IBEP20",
						"numberOfBytes": "20"
					},
					"t_mapping(t_address,t_uint256)": {
						"encoding": "mapping",
						"key": "t_address",
						"label": "mapping(address => uint256)",
						"numberOfBytes": "32",
						"value": "t_uint256"
					},
					"t_uint256": {
						"encoding": "inplace",
						"label": "uint256",
						"numberOfBytes": "32"
					}
				}
			},
			"userdoc": {
				"kind": "user",
				"methods": {
					"buyTokens(uint256)": {
						"notice": "Allows users to purchase tokens during the sale."
					},
					"claimTokens()": {
						"notice": "Allows buyers to claim their purchased tokens after the sale is finalized."
					},
					"finalizeSale()": {
						"notice": "Finalizes the sale after the sale period ends. Transfers collected BNB to the owner and returns unsold tokens to the owner."
					}
				},
				"notice": "A simplified token sale contract simulating a Binance Launchpad event for a BEP-20 token.",
				"version": 1
			}
		}
	}
}