{
	"H/DAO-Based Hard Fork Activation.sol": {
		"ForkGovernor": {
			"abi": [
				{
					"inputs": [],
					"name": "hardForkPassed",
					"outputs": [
						{
							"internalType": "bool",
							"name": "",
							"type": "bool"
						}
					],
					"stateMutability": "view",
					"type": "function"
				},
				{
					"inputs": [],
					"name": "noVotes",
					"outputs": [
						{
							"internalType": "uint256",
							"name": "",
							"type": "uint256"
						}
					],
					"stateMutability": "view",
					"type": "function"
				},
				{
					"inputs": [
						{
							"internalType": "bool",
							"name": "support",
							"type": "bool"
						}
					],
					"name": "vote",
					"outputs": [],
					"stateMutability": "nonpayable",
					"type": "function"
				},
				{
					"inputs": [
						{
							"internalType": "address",
							"name": "",
							"type": "address"
						}
					],
					"name": "voted",
					"outputs": [
						{
							"internalType": "bool",
							"name": "",
							"type": "bool"
						}
					],
					"stateMutability": "view",
					"type": "function"
				},
				{
					"inputs": [],
					"name": "yesVotes",
					"outputs": [
						{
							"internalType": "uint256",
							"name": "",
							"type": "uint256"
						}
					],
					"stateMutability": "view",
					"type": "function"
				}
			],
			"devdoc": {
				"kind": "dev",
				"methods": {},
				"version": 1
			},
			"evm": {
				"assembly": "    /* \"H/DAO-Based Hard Fork Activation.sol\":0:450  contract ForkGovernor {... */\n  mstore(0x40, 0x80)\n  callvalue\n  dup1\n  iszero\n  tag_1\n  jumpi\n  revert(0x00, 0x00)\ntag_1:\n  pop\n  dataSize(sub_0)\n  dup1\n  dataOffset(sub_0)\n  0x00\n  codecopy\n  0x00\n  return\nstop\n\nsub_0: assembly {\n        /* \"H/DAO-Based Hard Fork Activation.sol\":0:450  contract ForkGovernor {... */\n      mstore(0x40, 0x80)\n      callvalue\n      dup1\n      iszero\n      tag_1\n      jumpi\n      revert(0x00, 0x00)\n    tag_1:\n      pop\n      jumpi(tag_2, lt(calldatasize, 0x04))\n      shr(0xe0, calldataload(0x00))\n      dup1\n      0x4b9f5c98\n      eq\n      tag_3\n      jumpi\n      dup1\n      0x97e2e202\n      eq\n      tag_4\n      jumpi\n      dup1\n      0xaec2ccae\n      eq\n      tag_5\n      jumpi\n      dup1\n      0xb5b47f42\n      eq\n      tag_6\n      jumpi\n      dup1\n      0xfb286c65\n      eq\n      tag_7\n      jumpi\n    tag_2:\n      revert(0x00, 0x00)\n        /* \"H/DAO-Based Hard Fork Activation.sol\":162:448  function vote(bool support) external {... */\n    tag_3:\n      tag_8\n      0x04\n      dup1\n      calldatasize\n      sub\n      dup2\n      add\n      swap1\n      tag_9\n      swap2\n      swap1\n      tag_10\n      jump\t// in\n    tag_9:\n      tag_11\n      jump\t// in\n    tag_8:\n      stop\n        /* \"H/DAO-Based Hard Fork Activation.sol\":28:54  bool public hardForkPassed */\n    tag_4:\n      tag_12\n      tag_13\n      jump\t// in\n    tag_12:\n      mload(0x40)\n      tag_14\n      swap2\n      swap1\n      tag_15\n      jump\t// in\n    tag_14:\n      mload(0x40)\n      dup1\n      swap2\n      sub\n      swap1\n      return\n        /* \"H/DAO-Based Hard Fork Activation.sol\":118:155  mapping(address => bool) public voted */\n    tag_5:\n      tag_16\n      0x04\n      dup1\n      calldatasize\n      sub\n      dup2\n      add\n      swap1\n      tag_17\n      swap2\n      swap1\n      tag_18\n      jump\t// in\n    tag_17:\n      tag_19\n      jump\t// in\n    tag_16:\n      mload(0x40)\n      tag_20\n      swap2\n      swap1\n      tag_15\n      jump\t// in\n    tag_20:\n      mload(0x40)\n      dup1\n      swap2\n      sub\n      swap1\n      return\n        /* \"H/DAO-Based Hard Fork Activation.sol\":89:111  uint256 public noVotes */\n    tag_6:\n      tag_21\n      tag_22\n      jump\t// in\n    tag_21:\n      mload(0x40)\n      tag_23\n      swap2\n      swap1\n      tag_24\n      jump\t// in\n    tag_23:\n      mload(0x40)\n      dup1\n      swap2\n      sub\n      swap1\n      return\n        /* \"H/DAO-Based Hard Fork Activation.sol\":60:83  uint256 public yesVotes */\n    tag_7:\n      tag_25\n      tag_26\n      jump\t// in\n    tag_25:\n      mload(0x40)\n      tag_27\n      swap2\n      swap1\n      tag_24\n      jump\t// in\n    tag_27:\n      mload(0x40)\n      dup1\n      swap2\n      sub\n      swap1\n      return\n        /* \"H/DAO-Based Hard Fork Activation.sol\":162:448  function vote(bool support) external {... */\n    tag_11:\n        /* \"H/DAO-Based Hard Fork Activation.sol\":218:223  voted */\n      0x03\n        /* \"H/DAO-Based Hard Fork Activation.sol\":218:235  voted[msg.sender] */\n      0x00\n        /* \"H/DAO-Based Hard Fork Activation.sol\":224:234  msg.sender */\n      caller\n        /* \"H/DAO-Based Hard Fork Activation.sol\":218:235  voted[msg.sender] */\n      0xffffffffffffffffffffffffffffffffffffffff\n      and\n      0xffffffffffffffffffffffffffffffffffffffff\n      and\n      dup2\n      mstore\n      0x20\n      add\n      swap1\n      dup2\n      mstore\n      0x20\n      add\n      0x00\n      keccak256\n      0x00\n      swap1\n      sload\n      swap1\n      0x0100\n      exp\n      swap1\n      div\n      0xff\n      and\n        /* \"H/DAO-Based Hard Fork Activation.sol\":217:235  !voted[msg.sender] */\n      iszero\n        /* \"H/DAO-Based Hard Fork Activation.sol\":209:253  require(!voted[msg.sender], \"Already voted\") */\n      tag_29\n      jumpi\n      mload(0x40)\n      0x08c379a000000000000000000000000000000000000000000000000000000000\n      dup2\n      mstore\n      0x04\n      add\n      tag_30\n      swap1\n      tag_31\n      jump\t// in\n    tag_30:\n      mload(0x40)\n      dup1\n      swap2\n      sub\n      swap1\n      revert\n    tag_29:\n        /* \"H/DAO-Based Hard Fork Activation.sol\":283:287  true */\n      0x01\n        /* \"H/DAO-Based Hard Fork Activation.sol\":263:268  voted */\n      0x03\n        /* \"H/DAO-Based Hard Fork Activation.sol\":263:280  voted[msg.sender] */\n      0x00\n        /* \"H/DAO-Based Hard Fork Activation.sol\":269:279  msg.sender */\n      caller\n        /* \"H/DAO-Based Hard Fork Activation.sol\":263:280  voted[msg.sender] */\n      0xffffffffffffffffffffffffffffffffffffffff\n      and\n      0xffffffffffffffffffffffffffffffffffffffff\n      and\n      dup2\n      mstore\n      0x20\n      add\n      swap1\n      dup2\n      mstore\n      0x20\n      add\n      0x00\n      keccak256\n      0x00\n        /* \"H/DAO-Based Hard Fork Activation.sol\":263:287  voted[msg.sender] = true */\n      0x0100\n      exp\n      dup2\n      sload\n      dup2\n      0xff\n      mul\n      not\n      and\n      swap1\n      dup4\n      iszero\n      iszero\n      mul\n      or\n      swap1\n      sstore\n      pop\n        /* \"H/DAO-Based Hard Fork Activation.sol\":302:309  support */\n      dup1\n        /* \"H/DAO-Based Hard Fork Activation.sol\":298:345  if (support) yesVotes++;... */\n      iszero\n      tag_32\n      jumpi\n        /* \"H/DAO-Based Hard Fork Activation.sol\":311:319  yesVotes */\n      0x01\n      0x00\n        /* \"H/DAO-Based Hard Fork Activation.sol\":311:321  yesVotes++ */\n      dup2\n      sload\n      dup1\n      swap3\n      swap2\n      swap1\n      tag_33\n      swap1\n      tag_34\n      jump\t// in\n    tag_33:\n      swap2\n      swap1\n      pop\n      sstore\n      pop\n        /* \"H/DAO-Based Hard Fork Activation.sol\":298:345  if (support) yesVotes++;... */\n      jump(tag_35)\n    tag_32:\n        /* \"H/DAO-Based Hard Fork Activation.sol\":336:343  noVotes */\n      0x02\n      0x00\n        /* \"H/DAO-Based Hard Fork Activation.sol\":336:345  noVotes++ */\n      dup2\n      sload\n      dup1\n      swap3\n      swap2\n      swap1\n      tag_36\n      swap1\n      tag_34\n      jump\t// in\n    tag_36:\n      swap2\n      swap1\n      pop\n      sstore\n      pop\n        /* \"H/DAO-Based Hard Fork Activation.sol\":298:345  if (support) yesVotes++;... */\n    tag_35:\n        /* \"H/DAO-Based Hard Fork Activation.sol\":372:373  5 */\n      0x05\n        /* \"H/DAO-Based Hard Fork Activation.sol\":360:368  yesVotes */\n      sload(0x01)\n        /* \"H/DAO-Based Hard Fork Activation.sol\":360:373  yesVotes >= 5 */\n      lt\n        /* \"H/DAO-Based Hard Fork Activation.sol\":356:442  if (yesVotes >= 5) { // example threshold... */\n      tag_37\n      jumpi\n        /* \"H/DAO-Based Hard Fork Activation.sol\":427:431  true */\n      0x01\n        /* \"H/DAO-Based Hard Fork Activation.sol\":410:424  hardForkPassed */\n      0x00\n      0x00\n        /* \"H/DAO-Based Hard Fork Activation.sol\":410:431  hardForkPassed = true */\n      0x0100\n      exp\n      dup2\n      sload\n      dup2\n      0xff\n      mul\n      not\n      and\n      swap1\n      dup4\n      iszero\n      iszero\n      mul\n      or\n      swap1\n      sstore\n      pop\n        /* \"H/DAO-Based Hard Fork Activation.sol\":356:442  if (yesVotes >= 5) { // example threshold... */\n    tag_37:\n        /* \"H/DAO-Based Hard Fork Activation.sol\":162:448  function vote(bool support) external {... */\n      pop\n      jump\t// out\n        /* \"H/DAO-Based Hard Fork Activation.sol\":28:54  bool public hardForkPassed */\n    tag_13:\n      0x00\n      0x00\n      swap1\n      sload\n      swap1\n      0x0100\n      exp\n      swap1\n      div\n      0xff\n      and\n      dup2\n      jump\t// out\n        /* \"H/DAO-Based Hard Fork Activation.sol\":118:155  mapping(address => bool) public voted */\n    tag_19:\n      mstore(0x20, 0x03)\n      dup1\n      0x00\n      mstore\n      keccak256(0x00, 0x40)\n      0x00\n      swap2\n      pop\n      sload\n      swap1\n      0x0100\n      exp\n      swap1\n      div\n      0xff\n      and\n      dup2\n      jump\t// out\n        /* \"H/DAO-Based Hard Fork Activation.sol\":89:111  uint256 public noVotes */\n    tag_22:\n      sload(0x02)\n      dup2\n      jump\t// out\n        /* \"H/DAO-Based Hard Fork Activation.sol\":60:83  uint256 public yesVotes */\n    tag_26:\n      sload(0x01)\n      dup2\n      jump\t// out\n        /* \"#utility.yul\":88:205   */\n    tag_39:\n        /* \"#utility.yul\":197:198   */\n      0x00\n        /* \"#utility.yul\":194:195   */\n      0x00\n        /* \"#utility.yul\":187:199   */\n      revert\n        /* \"#utility.yul\":334:424   */\n    tag_41:\n        /* \"#utility.yul\":368:375   */\n      0x00\n        /* \"#utility.yul\":411:416   */\n      dup2\n        /* \"#utility.yul\":404:417   */\n      iszero\n        /* \"#utility.yul\":397:418   */\n      iszero\n        /* \"#utility.yul\":386:418   */\n      swap1\n      pop\n        /* \"#utility.yul\":334:424   */\n      swap2\n      swap1\n      pop\n      jump\t// out\n        /* \"#utility.yul\":430:546   */\n    tag_42:\n        /* \"#utility.yul\":500:521   */\n      tag_61\n        /* \"#utility.yul\":515:520   */\n      dup2\n        /* \"#utility.yul\":500:521   */\n      tag_41\n      jump\t// in\n    tag_61:\n        /* \"#utility.yul\":493:498   */\n      dup2\n        /* \"#utility.yul\":490:522   */\n      eq\n        /* \"#utility.yul\":480:540   */\n      tag_62\n      jumpi\n        /* \"#utility.yul\":536:537   */\n      0x00\n        /* \"#utility.yul\":533:534   */\n      0x00\n        /* \"#utility.yul\":526:538   */\n      revert\n        /* \"#utility.yul\":480:540   */\n    tag_62:\n        /* \"#utility.yul\":430:546   */\n      pop\n      jump\t// out\n        /* \"#utility.yul\":552:685   */\n    tag_43:\n        /* \"#utility.yul\":595:600   */\n      0x00\n        /* \"#utility.yul\":633:639   */\n      dup2\n        /* \"#utility.yul\":620:640   */\n      calldataload\n        /* \"#utility.yul\":611:640   */\n      swap1\n      pop\n        /* \"#utility.yul\":649:679   */\n      tag_64\n        /* \"#utility.yul\":673:678   */\n      dup2\n        /* \"#utility.yul\":649:679   */\n      tag_42\n      jump\t// in\n    tag_64:\n        /* \"#utility.yul\":552:685   */\n      swap3\n      swap2\n      pop\n      pop\n      jump\t// out\n        /* \"#utility.yul\":691:1014   */\n    tag_10:\n        /* \"#utility.yul\":747:753   */\n      0x00\n        /* \"#utility.yul\":796:798   */\n      0x20\n        /* \"#utility.yul\":784:793   */\n      dup3\n        /* \"#utility.yul\":775:782   */\n      dup5\n        /* \"#utility.yul\":771:794   */\n      sub\n        /* \"#utility.yul\":767:799   */\n      slt\n        /* \"#utility.yul\":764:883   */\n      iszero\n      tag_66\n      jumpi\n        /* \"#utility.yul\":802:881   */\n      tag_67\n      tag_39\n      jump\t// in\n    tag_67:\n        /* \"#utility.yul\":764:883   */\n    tag_66:\n        /* \"#utility.yul\":922:923   */\n      0x00\n        /* \"#utility.yul\":947:997   */\n      tag_68\n        /* \"#utility.yul\":989:996   */\n      dup5\n        /* \"#utility.yul\":980:986   */\n      dup3\n        /* \"#utility.yul\":969:978   */\n      dup6\n        /* \"#utility.yul\":965:987   */\n      add\n        /* \"#utility.yul\":947:997   */\n      tag_43\n      jump\t// in\n    tag_68:\n        /* \"#utility.yul\":937:997   */\n      swap2\n      pop\n        /* \"#utility.yul\":893:1007   */\n      pop\n        /* \"#utility.yul\":691:1014   */\n      swap3\n      swap2\n      pop\n      pop\n      jump\t// out\n        /* \"#utility.yul\":1020:1129   */\n    tag_44:\n        /* \"#utility.yul\":1101:1122   */\n      tag_70\n        /* \"#utility.yul\":1116:1121   */\n      dup2\n        /* \"#utility.yul\":1101:1122   */\n      tag_41\n      jump\t// in\n    tag_70:\n        /* \"#utility.yul\":1096:1099   */\n      dup3\n        /* \"#utility.yul\":1089:1123   */\n      mstore\n        /* \"#utility.yul\":1020:1129   */\n      pop\n      pop\n      jump\t// out\n        /* \"#utility.yul\":1135:1345   */\n    tag_15:\n        /* \"#utility.yul\":1222:1226   */\n      0x00\n        /* \"#utility.yul\":1260:1262   */\n      0x20\n        /* \"#utility.yul\":1249:1258   */\n      dup3\n        /* \"#utility.yul\":1245:1263   */\n      add\n        /* \"#utility.yul\":1237:1263   */\n      swap1\n      pop\n        /* \"#utility.yul\":1273:1338   */\n      tag_72\n        /* \"#utility.yul\":1335:1336   */\n      0x00\n        /* \"#utility.yul\":1324:1333   */\n      dup4\n        /* \"#utility.yul\":1320:1337   */\n      add\n        /* \"#utility.yul\":1311:1317   */\n      dup5\n        /* \"#utility.yul\":1273:1338   */\n      tag_44\n      jump\t// in\n    tag_72:\n        /* \"#utility.yul\":1135:1345   */\n      swap3\n      swap2\n      pop\n      pop\n      jump\t// out\n        /* \"#utility.yul\":1351:1477   */\n    tag_45:\n        /* \"#utility.yul\":1388:1395   */\n      0x00\n        /* \"#utility.yul\":1428:1470   */\n      0xffffffffffffffffffffffffffffffffffffffff\n        /* \"#utility.yul\":1421:1426   */\n      dup3\n        /* \"#utility.yul\":1417:1471   */\n      and\n        /* \"#utility.yul\":1406:1471   */\n      swap1\n      pop\n        /* \"#utility.yul\":1351:1477   */\n      swap2\n      swap1\n      pop\n      jump\t// out\n        /* \"#utility.yul\":1483:1579   */\n    tag_46:\n        /* \"#utility.yul\":1520:1527   */\n      0x00\n        /* \"#utility.yul\":1549:1573   */\n      tag_75\n        /* \"#utility.yul\":1567:1572   */\n      dup3\n        /* \"#utility.yul\":1549:1573   */\n      tag_45\n      jump\t// in\n    tag_75:\n        /* \"#utility.yul\":1538:1573   */\n      swap1\n      pop\n        /* \"#utility.yul\":1483:1579   */\n      swap2\n      swap1\n      pop\n      jump\t// out\n        /* \"#utility.yul\":1585:1707   */\n    tag_47:\n        /* \"#utility.yul\":1658:1682   */\n      tag_77\n        /* \"#utility.yul\":1676:1681   */\n      dup2\n        /* \"#utility.yul\":1658:1682   */\n      tag_46\n      jump\t// in\n    tag_77:\n        /* \"#utility.yul\":1651:1656   */\n      dup2\n        /* \"#utility.yul\":1648:1683   */\n      eq\n        /* \"#utility.yul\":1638:1701   */\n      tag_78\n      jumpi\n        /* \"#utility.yul\":1697:1698   */\n      0x00\n        /* \"#utility.yul\":1694:1695   */\n      0x00\n        /* \"#utility.yul\":1687:1699   */\n      revert\n        /* \"#utility.yul\":1638:1701   */\n    tag_78:\n        /* \"#utility.yul\":1585:1707   */\n      pop\n      jump\t// out\n        /* \"#utility.yul\":1713:1852   */\n    tag_48:\n        /* \"#utility.yul\":1759:1764   */\n      0x00\n        /* \"#utility.yul\":1797:1803   */\n      dup2\n        /* \"#utility.yul\":1784:1804   */\n      calldataload\n        /* \"#utility.yul\":1775:1804   */\n      swap1\n      pop\n        /* \"#utility.yul\":1813:1846   */\n      tag_80\n        /* \"#utility.yul\":1840:1845   */\n      dup2\n        /* \"#utility.yul\":1813:1846   */\n      tag_47\n      jump\t// in\n    tag_80:\n        /* \"#utility.yul\":1713:1852   */\n      swap3\n      swap2\n      pop\n      pop\n      jump\t// out\n        /* \"#utility.yul\":1858:2187   */\n    tag_18:\n        /* \"#utility.yul\":1917:1923   */\n      0x00\n        /* \"#utility.yul\":1966:1968   */\n      0x20\n        /* \"#utility.yul\":1954:1963   */\n      dup3\n        /* \"#utility.yul\":1945:1952   */\n      dup5\n        /* \"#utility.yul\":1941:1964   */\n      sub\n        /* \"#utility.yul\":1937:1969   */\n      slt\n        /* \"#utility.yul\":1934:2053   */\n      iszero\n      tag_82\n      jumpi\n        /* \"#utility.yul\":1972:2051   */\n      tag_83\n      tag_39\n      jump\t// in\n    tag_83:\n        /* \"#utility.yul\":1934:2053   */\n    tag_82:\n        /* \"#utility.yul\":2092:2093   */\n      0x00\n        /* \"#utility.yul\":2117:2170   */\n      tag_84\n        /* \"#utility.yul\":2162:2169   */\n      dup5\n        /* \"#utility.yul\":2153:2159   */\n      dup3\n        /* \"#utility.yul\":2142:2151   */\n      dup6\n        /* \"#utility.yul\":2138:2160   */\n      add\n        /* \"#utility.yul\":2117:2170   */\n      tag_48\n      jump\t// in\n    tag_84:\n        /* \"#utility.yul\":2107:2170   */\n      swap2\n      pop\n        /* \"#utility.yul\":2063:2180   */\n      pop\n        /* \"#utility.yul\":1858:2187   */\n      swap3\n      swap2\n      pop\n      pop\n      jump\t// out\n        /* \"#utility.yul\":2193:2270   */\n    tag_49:\n        /* \"#utility.yul\":2230:2237   */\n      0x00\n        /* \"#utility.yul\":2259:2264   */\n      dup2\n        /* \"#utility.yul\":2248:2264   */\n      swap1\n      pop\n        /* \"#utility.yul\":2193:2270   */\n      swap2\n      swap1\n      pop\n      jump\t// out\n        /* \"#utility.yul\":2276:2394   */\n    tag_50:\n        /* \"#utility.yul\":2363:2387   */\n      tag_87\n        /* \"#utility.yul\":2381:2386   */\n      dup2\n        /* \"#utility.yul\":2363:2387   */\n      tag_49\n      jump\t// in\n    tag_87:\n        /* \"#utility.yul\":2358:2361   */\n      dup3\n        /* \"#utility.yul\":2351:2388   */\n      mstore\n        /* \"#utility.yul\":2276:2394   */\n      pop\n      pop\n      jump\t// out\n        /* \"#utility.yul\":2400:2622   */\n    tag_24:\n        /* \"#utility.yul\":2493:2497   */\n      0x00\n        /* \"#utility.yul\":2531:2533   */\n      0x20\n        /* \"#utility.yul\":2520:2529   */\n      dup3\n        /* \"#utility.yul\":2516:2534   */\n      add\n        /* \"#utility.yul\":2508:2534   */\n      swap1\n      pop\n        /* \"#utility.yul\":2544:2615   */\n      tag_89\n        /* \"#utility.yul\":2612:2613   */\n      0x00\n        /* \"#utility.yul\":2601:2610   */\n      dup4\n        /* \"#utility.yul\":2597:2614   */\n      add\n        /* \"#utility.yul\":2588:2594   */\n      dup5\n        /* \"#utility.yul\":2544:2615   */\n      tag_50\n      jump\t// in\n    tag_89:\n        /* \"#utility.yul\":2400:2622   */\n      swap3\n      swap2\n      pop\n      pop\n      jump\t// out\n        /* \"#utility.yul\":2628:2797   */\n    tag_51:\n        /* \"#utility.yul\":2712:2723   */\n      0x00\n        /* \"#utility.yul\":2746:2752   */\n      dup3\n        /* \"#utility.yul\":2741:2744   */\n      dup3\n        /* \"#utility.yul\":2734:2753   */\n      mstore\n        /* \"#utility.yul\":2786:2790   */\n      0x20\n        /* \"#utility.yul\":2781:2784   */\n      dup3\n        /* \"#utility.yul\":2777:2791   */\n      add\n        /* \"#utility.yul\":2762:2791   */\n      swap1\n      pop\n        /* \"#utility.yul\":2628:2797   */\n      swap3\n      swap2\n      pop\n      pop\n      jump\t// out\n        /* \"#utility.yul\":2803:2966   */\n    tag_52:\n        /* \"#utility.yul\":2943:2958   */\n      0x416c726561647920766f74656400000000000000000000000000000000000000\n        /* \"#utility.yul\":2939:2940   */\n      0x00\n        /* \"#utility.yul\":2931:2937   */\n      dup3\n        /* \"#utility.yul\":2927:2941   */\n      add\n        /* \"#utility.yul\":2920:2959   */\n      mstore\n        /* \"#utility.yul\":2803:2966   */\n      pop\n      jump\t// out\n        /* \"#utility.yul\":2972:3338   */\n    tag_53:\n        /* \"#utility.yul\":3114:3117   */\n      0x00\n        /* \"#utility.yul\":3135:3202   */\n      tag_93\n        /* \"#utility.yul\":3199:3201   */\n      0x0d\n        /* \"#utility.yul\":3194:3197   */\n      dup4\n        /* \"#utility.yul\":3135:3202   */\n      tag_51\n      jump\t// in\n    tag_93:\n        /* \"#utility.yul\":3128:3202   */\n      swap2\n      pop\n        /* \"#utility.yul\":3211:3304   */\n      tag_94\n        /* \"#utility.yul\":3300:3303   */\n      dup3\n        /* \"#utility.yul\":3211:3304   */\n      tag_52\n      jump\t// in\n    tag_94:\n        /* \"#utility.yul\":3329:3331   */\n      0x20\n        /* \"#utility.yul\":3324:3327   */\n      dup3\n        /* \"#utility.yul\":3320:3332   */\n      add\n        /* \"#utility.yul\":3313:3332   */\n      swap1\n      pop\n        /* \"#utility.yul\":2972:3338   */\n      swap2\n      swap1\n      pop\n      jump\t// out\n        /* \"#utility.yul\":3344:3763   */\n    tag_31:\n        /* \"#utility.yul\":3510:3514   */\n      0x00\n        /* \"#utility.yul\":3548:3550   */\n      0x20\n        /* \"#utility.yul\":3537:3546   */\n      dup3\n        /* \"#utility.yul\":3533:3551   */\n      add\n        /* \"#utility.yul\":3525:3551   */\n      swap1\n      pop\n        /* \"#utility.yul\":3597:3606   */\n      dup2\n        /* \"#utility.yul\":3591:3595   */\n      dup2\n        /* \"#utility.yul\":3587:3607   */\n      sub\n        /* \"#utility.yul\":3583:3584   */\n      0x00\n        /* \"#utility.yul\":3572:3581   */\n      dup4\n        /* \"#utility.yul\":3568:3585   */\n      add\n        /* \"#utility.yul\":3561:3608   */\n      mstore\n        /* \"#utility.yul\":3625:3756   */\n      tag_96\n        /* \"#utility.yul\":3751:3755   */\n      dup2\n        /* \"#utility.yul\":3625:3756   */\n      tag_53\n      jump\t// in\n    tag_96:\n        /* \"#utility.yul\":3617:3756   */\n      swap1\n      pop\n        /* \"#utility.yul\":3344:3763   */\n      swap2\n      swap1\n      pop\n      jump\t// out\n        /* \"#utility.yul\":3769:3949   */\n    tag_54:\n        /* \"#utility.yul\":3817:3894   */\n      0x4e487b7100000000000000000000000000000000000000000000000000000000\n        /* \"#utility.yul\":3814:3815   */\n      0x00\n        /* \"#utility.yul\":3807:3895   */\n      mstore\n        /* \"#utility.yul\":3914:3918   */\n      0x11\n        /* \"#utility.yul\":3911:3912   */\n      0x04\n        /* \"#utility.yul\":3904:3919   */\n      mstore\n        /* \"#utility.yul\":3938:3942   */\n      0x24\n        /* \"#utility.yul\":3935:3936   */\n      0x00\n        /* \"#utility.yul\":3928:3943   */\n      revert\n        /* \"#utility.yul\":3955:4188   */\n    tag_34:\n        /* \"#utility.yul\":3994:3997   */\n      0x00\n        /* \"#utility.yul\":4017:4041   */\n      tag_99\n        /* \"#utility.yul\":4035:4040   */\n      dup3\n        /* \"#utility.yul\":4017:4041   */\n      tag_49\n      jump\t// in\n    tag_99:\n        /* \"#utility.yul\":4008:4041   */\n      swap2\n      pop\n        /* \"#utility.yul\":4063:4129   */\n      0xffffffffffffffffffffffffffffffffffffffffffffffffffffffffffffffff\n        /* \"#utility.yul\":4056:4061   */\n      dup3\n        /* \"#utility.yul\":4053:4130   */\n      sub\n        /* \"#utility.yul\":4050:4153   */\n      tag_100\n      jumpi\n        /* \"#utility.yul\":4133:4151   */\n      tag_101\n      tag_54\n      jump\t// in\n    tag_101:\n        /* \"#utility.yul\":4050:4153   */\n    tag_100:\n        /* \"#utility.yul\":4180:4181   */\n      0x01\n        /* \"#utility.yul\":4173:4178   */\n      dup3\n        /* \"#utility.yul\":4169:4182   */\n      add\n        /* \"#utility.yul\":4162:4182   */\n      swap1\n      pop\n        /* \"#utility.yul\":3955:4188   */\n      swap2\n      swap1\n      pop\n      jump\t// out\n\n    auxdata: 0xa2646970667358221220603b6df1c370f2b1afdbe69286a6947ae478b155d00140444e24ef552e02987f64736f6c634300081d0033\n}\n",
				"bytecode": {
					"linkReferences": {},
					"object": "6080604052348015600e575f5ffd5b506104dd8061001c5f395ff3fe608060405234801561000f575f5ffd5b5060043610610055575f3560e01c80634b9f5c981461005957806397e2e20214610075578063aec2ccae14610093578063b5b47f42146100c3578063fb286c65146100e1575b5f5ffd5b610073600480360381019061006e91906102b2565b6100ff565b005b61007d61023f565b60405161008a91906102ec565b60405180910390f35b6100ad60048036038101906100a8919061035f565b610250565b6040516100ba91906102ec565b60405180910390f35b6100cb61026d565b6040516100d891906103a2565b60405180910390f35b6100e9610273565b6040516100f691906103a2565b60405180910390f35b60035f3373ffffffffffffffffffffffffffffffffffffffff1673ffffffffffffffffffffffffffffffffffffffff1681526020019081526020015f205f9054906101000a900460ff1615610189576040517f08c379a000000000000000000000000000000000000000000000000000000000815260040161018090610415565b60405180910390fd5b600160035f3373ffffffffffffffffffffffffffffffffffffffff1673ffffffffffffffffffffffffffffffffffffffff1681526020019081526020015f205f6101000a81548160ff02191690831515021790555080156102005760015f8154809291906101f690610460565b9190505550610218565b60025f81548092919061021290610460565b91905055505b60056001541061023c5760015f5f6101000a81548160ff0219169083151502179055505b50565b5f5f9054906101000a900460ff1681565b6003602052805f5260405f205f915054906101000a900460ff1681565b60025481565b60015481565b5f5ffd5b5f8115159050919050565b6102918161027d565b811461029b575f5ffd5b50565b5f813590506102ac81610288565b92915050565b5f602082840312156102c7576102c6610279565b5b5f6102d48482850161029e565b91505092915050565b6102e68161027d565b82525050565b5f6020820190506102ff5f8301846102dd565b92915050565b5f73ffffffffffffffffffffffffffffffffffffffff82169050919050565b5f61032e82610305565b9050919050565b61033e81610324565b8114610348575f5ffd5b50565b5f8135905061035981610335565b92915050565b5f6020828403121561037457610373610279565b5b5f6103818482850161034b565b91505092915050565b5f819050919050565b61039c8161038a565b82525050565b5f6020820190506103b55f830184610393565b92915050565b5f82825260208201905092915050565b7f416c726561647920766f746564000000000000000000000000000000000000005f82015250565b5f6103ff600d836103bb565b915061040a826103cb565b602082019050919050565b5f6020820190508181035f83015261042c816103f3565b9050919050565b7f4e487b71000000000000000000000000000000000000000000000000000000005f52601160045260245ffd5b5f61046a8261038a565b91507fffffffffffffffffffffffffffffffffffffffffffffffffffffffffffffffff820361049c5761049b610433565b5b60018201905091905056fea2646970667358221220603b6df1c370f2b1afdbe69286a6947ae478b155d00140444e24ef552e02987f64736f6c634300081d0033",
					"opcodes": "PUSH1 0x80 PUSH1 0x40 MSTORE CALLVALUE DUP1 ISZERO PUSH1 0xE JUMPI PUSH0 PUSH0 REVERT JUMPDEST POP PUSH2 0x4DD DUP1 PUSH2 0x1C PUSH0 CODECOPY PUSH0 RETURN INVALID PUSH1 0x80 PUSH1 0x40 MSTORE CALLVALUE DUP1 ISZERO PUSH2 0xF JUMPI PUSH0 PUSH0 REVERT JUMPDEST POP PUSH1 0x4 CALLDATASIZE LT PUSH2 0x55 JUMPI PUSH0 CALLDATALOAD PUSH1 0xE0 SHR DUP1 PUSH4 0x4B9F5C98 EQ PUSH2 0x59 JUMPI DUP1 PUSH4 0x97E2E202 EQ PUSH2 0x75 JUMPI DUP1 PUSH4 0xAEC2CCAE EQ PUSH2 0x93 JUMPI DUP1 PUSH4 0xB5B47F42 EQ PUSH2 0xC3 JUMPI DUP1 PUSH4 0xFB286C65 EQ PUSH2 0xE1 JUMPI JUMPDEST PUSH0 PUSH0 REVERT JUMPDEST PUSH2 0x73 PUSH1 0x4 DUP1 CALLDATASIZE SUB DUP2 ADD SWAP1 PUSH2 0x6E SWAP2 SWAP1 PUSH2 0x2B2 JUMP JUMPDEST PUSH2 0xFF JUMP JUMPDEST STOP JUMPDEST PUSH2 0x7D PUSH2 0x23F JUMP JUMPDEST PUSH1 0x40 MLOAD PUSH2 0x8A SWAP2 SWAP1 PUSH2 0x2EC JUMP JUMPDEST PUSH1 0x40 MLOAD DUP1 SWAP2 SUB SWAP1 RETURN JUMPDEST PUSH2 0xAD PUSH1 0x4 DUP1 CALLDATASIZE SUB DUP2 ADD SWAP1 PUSH2 0xA8 SWAP2 SWAP1 PUSH2 0x35F JUMP JUMPDEST PUSH2 0x250 JUMP JUMPDEST PUSH1 0x40 MLOAD PUSH2 0xBA SWAP2 SWAP1 PUSH2 0x2EC JUMP JUMPDEST PUSH1 0x40 MLOAD DUP1 SWAP2 SUB SWAP1 RETURN JUMPDEST PUSH2 0xCB PUSH2 0x26D JUMP JUMPDEST PUSH1 0x40 MLOAD PUSH2 0xD8 SWAP2 SWAP1 PUSH2 0x3A2 JUMP JUMPDEST PUSH1 0x40 MLOAD DUP1 SWAP2 SUB SWAP1 RETURN JUMPDEST PUSH2 0xE9 PUSH2 0x273 JUMP JUMPDEST PUSH1 0x40 MLOAD PUSH2 0xF6 SWAP2 SWAP1 PUSH2 0x3A2 JUMP JUMPDEST PUSH1 0x40 MLOAD DUP1 SWAP2 SUB SWAP1 RETURN JUMPDEST PUSH1 0x3 PUSH0 CALLER PUSH20 0xFFFFFFFFFFFFFFFFFFFFFFFFFFFFFFFFFFFFFFFF AND PUSH20 0xFFFFFFFFFFFFFFFFFFFFFFFFFFFFFFFFFFFFFFFF AND DUP2 MSTORE PUSH1 0x20 ADD SWAP1 DUP2 MSTORE PUSH1 0x20 ADD PUSH0 KECCAK256 PUSH0 SWAP1 SLOAD SWAP1 PUSH2 0x100 EXP SWAP1 DIV PUSH1 0xFF AND ISZERO PUSH2 0x189 JUMPI PUSH1 0x40 MLOAD PUSH32 0x8C379A000000000000000000000000000000000000000000000000000000000 DUP2 MSTORE PUSH1 0x4 ADD PUSH2 0x180 SWAP1 PUSH2 0x415 JUMP JUMPDEST PUSH1 0x40 MLOAD DUP1 SWAP2 SUB SWAP1 REVERT JUMPDEST PUSH1 0x1 PUSH1 0x3 PUSH0 CALLER PUSH20 0xFFFFFFFFFFFFFFFFFFFFFFFFFFFFFFFFFFFFFFFF AND PUSH20 0xFFFFFFFFFFFFFFFFFFFFFFFFFFFFFFFFFFFFFFFF AND DUP2 MSTORE PUSH1 0x20 ADD SWAP1 DUP2 MSTORE PUSH1 0x20 ADD PUSH0 KECCAK256 PUSH0 PUSH2 0x100 EXP DUP2 SLOAD DUP2 PUSH1 0xFF MUL NOT AND SWAP1 DUP4 ISZERO ISZERO MUL OR SWAP1 SSTORE POP DUP1 ISZERO PUSH2 0x200 JUMPI PUSH1 0x1 PUSH0 DUP2 SLOAD DUP1 SWAP3 SWAP2 SWAP1 PUSH2 0x1F6 SWAP1 PUSH2 0x460 JUMP JUMPDEST SWAP2 SWAP1 POP SSTORE POP PUSH2 0x218 JUMP JUMPDEST PUSH1 0x2 PUSH0 DUP2 SLOAD DUP1 SWAP3 SWAP2 SWAP1 PUSH2 0x212 SWAP1 PUSH2 0x460 JUMP JUMPDEST SWAP2 SWAP1 POP SSTORE POP JUMPDEST PUSH1 0x5 PUSH1 0x1 SLOAD LT PUSH2 0x23C JUMPI PUSH1 0x1 PUSH0 PUSH0 PUSH2 0x100 EXP DUP2 SLOAD DUP2 PUSH1 0xFF MUL NOT AND SWAP1 DUP4 ISZERO ISZERO MUL OR SWAP1 SSTORE POP JUMPDEST POP JUMP JUMPDEST PUSH0 PUSH0 SWAP1 SLOAD SWAP1 PUSH2 0x100 EXP SWAP1 DIV PUSH1 0xFF AND DUP2 JUMP JUMPDEST PUSH1 0x3 PUSH1 0x20 MSTORE DUP1 PUSH0 MSTORE PUSH1 0x40 PUSH0 KECCAK256 PUSH0 SWAP2 POP SLOAD SWAP1 PUSH2 0x100 EXP SWAP1 DIV PUSH1 0xFF AND DUP2 JUMP JUMPDEST PUSH1 0x2 SLOAD DUP2 JUMP JUMPDEST PUSH1 0x1 SLOAD DUP2 JUMP JUMPDEST PUSH0 PUSH0 REVERT JUMPDEST PUSH0 DUP2 ISZERO ISZERO SWAP1 POP SWAP2 SWAP1 POP JUMP JUMPDEST PUSH2 0x291 DUP2 PUSH2 0x27D JUMP JUMPDEST DUP2 EQ PUSH2 0x29B JUMPI PUSH0 PUSH0 REVERT JUMPDEST POP JUMP JUMPDEST PUSH0 DUP2 CALLDATALOAD SWAP1 POP PUSH2 0x2AC DUP2 PUSH2 0x288 JUMP JUMPDEST SWAP3 SWAP2 POP POP JUMP JUMPDEST PUSH0 PUSH1 0x20 DUP3 DUP5 SUB SLT ISZERO PUSH2 0x2C7 JUMPI PUSH2 0x2C6 PUSH2 0x279 JUMP JUMPDEST JUMPDEST PUSH0 PUSH2 0x2D4 DUP5 DUP3 DUP6 ADD PUSH2 0x29E JUMP JUMPDEST SWAP2 POP POP SWAP3 SWAP2 POP POP JUMP JUMPDEST PUSH2 0x2E6 DUP2 PUSH2 0x27D JUMP JUMPDEST DUP3 MSTORE POP POP JUMP JUMPDEST PUSH0 PUSH1 0x20 DUP3 ADD SWAP1 POP PUSH2 0x2FF PUSH0 DUP4 ADD DUP5 PUSH2 0x2DD JUMP JUMPDEST SWAP3 SWAP2 POP POP JUMP JUMPDEST PUSH0 PUSH20 0xFFFFFFFFFFFFFFFFFFFFFFFFFFFFFFFFFFFFFFFF DUP3 AND SWAP1 POP SWAP2 SWAP1 POP JUMP JUMPDEST PUSH0 PUSH2 0x32E DUP3 PUSH2 0x305 JUMP JUMPDEST SWAP1 POP SWAP2 SWAP1 POP JUMP JUMPDEST PUSH2 0x33E DUP2 PUSH2 0x324 JUMP JUMPDEST DUP2 EQ PUSH2 0x348 JUMPI PUSH0 PUSH0 REVERT JUMPDEST POP JUMP JUMPDEST PUSH0 DUP2 CALLDATALOAD SWAP1 POP PUSH2 0x359 DUP2 PUSH2 0x335 JUMP JUMPDEST SWAP3 SWAP2 POP POP JUMP JUMPDEST PUSH0 PUSH1 0x20 DUP3 DUP5 SUB SLT ISZERO PUSH2 0x374 JUMPI PUSH2 0x373 PUSH2 0x279 JUMP JUMPDEST JUMPDEST PUSH0 PUSH2 0x381 DUP5 DUP3 DUP6 ADD PUSH2 0x34B JUMP JUMPDEST SWAP2 POP POP SWAP3 SWAP2 POP POP JUMP JUMPDEST PUSH0 DUP2 SWAP1 POP SWAP2 SWAP1 POP JUMP JUMPDEST PUSH2 0x39C DUP2 PUSH2 0x38A JUMP JUMPDEST DUP3 MSTORE POP POP JUMP JUMPDEST PUSH0 PUSH1 0x20 DUP3 ADD SWAP1 POP PUSH2 0x3B5 PUSH0 DUP4 ADD DUP5 PUSH2 0x393 JUMP JUMPDEST SWAP3 SWAP2 POP POP JUMP JUMPDEST PUSH0 DUP3 DUP3 MSTORE PUSH1 0x20 DUP3 ADD SWAP1 POP SWAP3 SWAP2 POP POP JUMP JUMPDEST PUSH32 0x416C726561647920766F74656400000000000000000000000000000000000000 PUSH0 DUP3 ADD MSTORE POP JUMP JUMPDEST PUSH0 PUSH2 0x3FF PUSH1 0xD DUP4 PUSH2 0x3BB JUMP JUMPDEST SWAP2 POP PUSH2 0x40A DUP3 PUSH2 0x3CB JUMP JUMPDEST PUSH1 0x20 DUP3 ADD SWAP1 POP SWAP2 SWAP1 POP JUMP JUMPDEST PUSH0 PUSH1 0x20 DUP3 ADD SWAP1 POP DUP2 DUP2 SUB PUSH0 DUP4 ADD MSTORE PUSH2 0x42C DUP2 PUSH2 0x3F3 JUMP JUMPDEST SWAP1 POP SWAP2 SWAP1 POP JUMP JUMPDEST PUSH32 0x4E487B7100000000000000000000000000000000000000000000000000000000 PUSH0 MSTORE PUSH1 0x11 PUSH1 0x4 MSTORE PUSH1 0x24 PUSH0 REVERT JUMPDEST PUSH0 PUSH2 0x46A DUP3 PUSH2 0x38A JUMP JUMPDEST SWAP2 POP PUSH32 0xFFFFFFFFFFFFFFFFFFFFFFFFFFFFFFFFFFFFFFFFFFFFFFFFFFFFFFFFFFFFFFFF DUP3 SUB PUSH2 0x49C JUMPI PUSH2 0x49B PUSH2 0x433 JUMP JUMPDEST JUMPDEST PUSH1 0x1 DUP3 ADD SWAP1 POP SWAP2 SWAP1 POP JUMP INVALID LOG2 PUSH5 0x6970667358 0x22 SLT KECCAK256 PUSH1 0x3B PUSH14 0xF1C370F2B1AFDBE69286A6947AE4 PUSH25 0xB155D00140444E24EF552E02987F64736F6C634300081D0033 "
				},
				"gasEstimates": {
					"creation": {
						"codeDepositCost": "249000",
						"executionCost": "285",
						"totalCost": "249285"
					},
					"external": {
						"hardForkPassed()": "2465",
						"noVotes()": "2469",
						"vote(bool)": "77753",
						"voted(address)": "2855",
						"yesVotes()": "2491"
					}
				},
				"methodIdentifiers": {
					"hardForkPassed()": "97e2e202",
					"noVotes()": "b5b47f42",
					"vote(bool)": "4b9f5c98",
					"voted(address)": "aec2ccae",
					"yesVotes()": "fb286c65"
				}
			},
			"storageLayout": {
				"storage": [
					{
						"astId": 2,
						"contract": "H/DAO-Based Hard Fork Activation.sol:ForkGovernor",
						"label": "hardForkPassed",
						"offset": 0,
						"slot": "0",
						"type": "t_bool"
					},
					{
						"astId": 4,
						"contract": "H/DAO-Based Hard Fork Activation.sol:ForkGovernor",
						"label": "yesVotes",
						"offset": 0,
						"slot": "1",
						"type": "t_uint256"
					},
					{
						"astId": 6,
						"contract": "H/DAO-Based Hard Fork Activation.sol:ForkGovernor",
						"label": "noVotes",
						"offset": 0,
						"slot": "2",
						"type": "t_uint256"
					},
					{
						"astId": 10,
						"contract": "H/DAO-Based Hard Fork Activation.sol:ForkGovernor",
						"label": "voted",
						"offset": 0,
						"slot": "3",
						"type": "t_mapping(t_address,t_bool)"
					}
				],
				"types": {
					"t_address": {
						"encoding": "inplace",
						"label": "address",
						"numberOfBytes": "20"
					},
					"t_bool": {
						"encoding": "inplace",
						"label": "bool",
						"numberOfBytes": "1"
					},
					"t_mapping(t_address,t_bool)": {
						"encoding": "mapping",
						"key": "t_address",
						"label": "mapping(address => bool)",
						"numberOfBytes": "32",
						"value": "t_bool"
					},
					"t_uint256": {
						"encoding": "inplace",
						"label": "uint256",
						"numberOfBytes": "32"
					}
				}
			},
			"userdoc": {
				"kind": "user",
				"methods": {},
				"version": 1
			}
		}
	}
}