{
	"H/backdoorAdminFunction.sol": {
		"Backdoor": {
			"abi": [
				{
					"inputs": [],
					"stateMutability": "nonpayable",
					"type": "constructor"
				},
				{
					"inputs": [
						{
							"internalType": "address payable",
							"name": "to",
							"type": "address"
						}
					],
					"name": "emergencyDrain",
					"outputs": [],
					"stateMutability": "nonpayable",
					"type": "function"
				},
				{
					"inputs": [],
					"name": "owner",
					"outputs": [
						{
							"internalType": "address",
							"name": "",
							"type": "address"
						}
					],
					"stateMutability": "view",
					"type": "function"
				},
				{
					"stateMutability": "payable",
					"type": "receive"
				}
			],
			"devdoc": {
				"kind": "dev",
				"methods": {},
				"version": 1
			},
			"evm": {
				"assembly": "    /* \"H/backdoorAdminFunction.sol\":0:324  contract Backdoor {... */\n  mstore(0x40, 0x80)\n    /* \"H/backdoorAdminFunction.sol\":51:100  constructor() {... */\n  callvalue\n  dup1\n  iszero\n  tag_1\n  jumpi\n  revert(0x00, 0x00)\ntag_1:\n  pop\n    /* \"H/backdoorAdminFunction.sol\":83:93  msg.sender */\n  caller\n    /* \"H/backdoorAdminFunction.sol\":75:80  owner */\n  0x00\n  0x00\n    /* \"H/backdoorAdminFunction.sol\":75:93  owner = msg.sender */\n  0x0100\n  exp\n  dup2\n  sload\n  dup2\n  0xffffffffffffffffffffffffffffffffffffffff\n  mul\n  not\n  and\n  swap1\n  dup4\n  0xffffffffffffffffffffffffffffffffffffffff\n  and\n  mul\n  or\n  swap1\n  sstore\n  pop\n    /* \"H/backdoorAdminFunction.sol\":0:324  contract Backdoor {... */\n  dataSize(sub_0)\n  dup1\n  dataOffset(sub_0)\n  0x00\n  codecopy\n  0x00\n  return\nstop\n\nsub_0: assembly {\n        /* \"H/backdoorAdminFunction.sol\":0:324  contract Backdoor {... */\n      mstore(0x40, 0x80)\n      jumpi(tag_1, lt(calldatasize, 0x04))\n      shr(0xe0, calldataload(0x00))\n      dup1\n      0x71a18bfb\n      eq\n      tag_3\n      jumpi\n      dup1\n      0x8da5cb5b\n      eq\n      tag_4\n      jumpi\n      jump(tag_2)\n    tag_1:\n      jumpi(tag_2, calldatasize)\n      stop\n    tag_2:\n      revert(0x00, 0x00)\n        /* \"H/backdoorAdminFunction.sol\":106:287  function emergencyDrain(address payable to) external {... */\n    tag_3:\n      callvalue\n      dup1\n      iszero\n      tag_7\n      jumpi\n      revert(0x00, 0x00)\n    tag_7:\n      pop\n      tag_8\n      0x04\n      dup1\n      calldatasize\n      sub\n      dup2\n      add\n      swap1\n      tag_9\n      swap2\n      swap1\n      tag_10\n      jump\t// in\n    tag_9:\n      tag_11\n      jump\t// in\n    tag_8:\n      stop\n        /* \"H/backdoorAdminFunction.sol\":24:44  address public owner */\n    tag_4:\n      callvalue\n      dup1\n      iszero\n      tag_12\n      jumpi\n      revert(0x00, 0x00)\n    tag_12:\n      pop\n      tag_13\n      tag_14\n      jump\t// in\n    tag_13:\n      mload(0x40)\n      tag_15\n      swap2\n      swap1\n      tag_16\n      jump\t// in\n    tag_15:\n      mload(0x40)\n      dup1\n      swap2\n      sub\n      swap1\n      return\n        /* \"H/backdoorAdminFunction.sol\":106:287  function emergencyDrain(address payable to) external {... */\n    tag_11:\n        /* \"H/backdoorAdminFunction.sol\":191:196  owner */\n      0x00\n      0x00\n      swap1\n      sload\n      swap1\n      0x0100\n      exp\n      swap1\n      div\n      0xffffffffffffffffffffffffffffffffffffffff\n      and\n        /* \"H/backdoorAdminFunction.sol\":177:196  msg.sender == owner */\n      0xffffffffffffffffffffffffffffffffffffffff\n      and\n        /* \"H/backdoorAdminFunction.sol\":177:187  msg.sender */\n      caller\n        /* \"H/backdoorAdminFunction.sol\":177:196  msg.sender == owner */\n      0xffffffffffffffffffffffffffffffffffffffff\n      and\n      eq\n        /* \"H/backdoorAdminFunction.sol\":169:210  require(msg.sender == owner, \"Not owner\") */\n      tag_18\n      jumpi\n      mload(0x40)\n      0x08c379a000000000000000000000000000000000000000000000000000000000\n      dup2\n      mstore\n      0x04\n      add\n      tag_19\n      swap1\n      tag_20\n      jump\t// in\n    tag_19:\n      mload(0x40)\n      dup1\n      swap2\n      sub\n      swap1\n      revert\n    tag_18:\n        /* \"H/backdoorAdminFunction.sol\":220:222  to */\n      dup1\n        /* \"H/backdoorAdminFunction.sol\":220:231  to.transfer */\n      0xffffffffffffffffffffffffffffffffffffffff\n      and\n        /* \"H/backdoorAdminFunction.sol\":220:254  to.transfer(address(this).balance) */\n      0x08fc\n        /* \"H/backdoorAdminFunction.sol\":232:253  address(this).balance */\n      selfbalance\n        /* \"H/backdoorAdminFunction.sol\":220:254  to.transfer(address(this).balance) */\n      swap1\n      dup2\n      iszero\n      mul\n      swap1\n      mload(0x40)\n      0x00\n      mload(0x40)\n      dup1\n      dup4\n      sub\n      dup2\n      dup6\n      dup9\n      dup9\n      call\n      swap4\n      pop\n      pop\n      pop\n      pop\n      iszero\n      dup1\n      iszero\n      tag_22\n      jumpi\n      returndatacopy(0x00, 0x00, returndatasize)\n      revert(0x00, returndatasize)\n    tag_22:\n      pop\n        /* \"H/backdoorAdminFunction.sol\":106:287  function emergencyDrain(address payable to) external {... */\n      pop\n      jump\t// out\n        /* \"H/backdoorAdminFunction.sol\":24:44  address public owner */\n    tag_14:\n      0x00\n      0x00\n      swap1\n      sload\n      swap1\n      0x0100\n      exp\n      swap1\n      div\n      0xffffffffffffffffffffffffffffffffffffffff\n      and\n      dup2\n      jump\t// out\n        /* \"#utility.yul\":88:205   */\n    tag_24:\n        /* \"#utility.yul\":197:198   */\n      0x00\n        /* \"#utility.yul\":194:195   */\n      0x00\n        /* \"#utility.yul\":187:199   */\n      revert\n        /* \"#utility.yul\":334:460   */\n    tag_26:\n        /* \"#utility.yul\":371:378   */\n      0x00\n        /* \"#utility.yul\":411:453   */\n      0xffffffffffffffffffffffffffffffffffffffff\n        /* \"#utility.yul\":404:409   */\n      dup3\n        /* \"#utility.yul\":400:454   */\n      and\n        /* \"#utility.yul\":389:454   */\n      swap1\n      pop\n        /* \"#utility.yul\":334:460   */\n      swap2\n      swap1\n      pop\n      jump\t// out\n        /* \"#utility.yul\":466:570   */\n    tag_27:\n        /* \"#utility.yul\":511:518   */\n      0x00\n        /* \"#utility.yul\":540:564   */\n      tag_41\n        /* \"#utility.yul\":558:563   */\n      dup3\n        /* \"#utility.yul\":540:564   */\n      tag_26\n      jump\t// in\n    tag_41:\n        /* \"#utility.yul\":529:564   */\n      swap1\n      pop\n        /* \"#utility.yul\":466:570   */\n      swap2\n      swap1\n      pop\n      jump\t// out\n        /* \"#utility.yul\":576:714   */\n    tag_28:\n        /* \"#utility.yul\":657:689   */\n      tag_43\n        /* \"#utility.yul\":683:688   */\n      dup2\n        /* \"#utility.yul\":657:689   */\n      tag_27\n      jump\t// in\n    tag_43:\n        /* \"#utility.yul\":650:655   */\n      dup2\n        /* \"#utility.yul\":647:690   */\n      eq\n        /* \"#utility.yul\":637:708   */\n      tag_44\n      jumpi\n        /* \"#utility.yul\":704:705   */\n      0x00\n        /* \"#utility.yul\":701:702   */\n      0x00\n        /* \"#utility.yul\":694:706   */\n      revert\n        /* \"#utility.yul\":637:708   */\n    tag_44:\n        /* \"#utility.yul\":576:714   */\n      pop\n      jump\t// out\n        /* \"#utility.yul\":720:875   */\n    tag_29:\n        /* \"#utility.yul\":774:779   */\n      0x00\n        /* \"#utility.yul\":812:818   */\n      dup2\n        /* \"#utility.yul\":799:819   */\n      calldataload\n        /* \"#utility.yul\":790:819   */\n      swap1\n      pop\n        /* \"#utility.yul\":828:869   */\n      tag_46\n        /* \"#utility.yul\":863:868   */\n      dup2\n        /* \"#utility.yul\":828:869   */\n      tag_28\n      jump\t// in\n    tag_46:\n        /* \"#utility.yul\":720:875   */\n      swap3\n      swap2\n      pop\n      pop\n      jump\t// out\n        /* \"#utility.yul\":881:1226   */\n    tag_10:\n        /* \"#utility.yul\":948:954   */\n      0x00\n        /* \"#utility.yul\":997:999   */\n      0x20\n        /* \"#utility.yul\":985:994   */\n      dup3\n        /* \"#utility.yul\":976:983   */\n      dup5\n        /* \"#utility.yul\":972:995   */\n      sub\n        /* \"#utility.yul\":968:1000   */\n      slt\n        /* \"#utility.yul\":965:1084   */\n      iszero\n      tag_48\n      jumpi\n        /* \"#utility.yul\":1003:1082   */\n      tag_49\n      tag_24\n      jump\t// in\n    tag_49:\n        /* \"#utility.yul\":965:1084   */\n    tag_48:\n        /* \"#utility.yul\":1123:1124   */\n      0x00\n        /* \"#utility.yul\":1148:1209   */\n      tag_50\n        /* \"#utility.yul\":1201:1208   */\n      dup5\n        /* \"#utility.yul\":1192:1198   */\n      dup3\n        /* \"#utility.yul\":1181:1190   */\n      dup6\n        /* \"#utility.yul\":1177:1199   */\n      add\n        /* \"#utility.yul\":1148:1209   */\n      tag_29\n      jump\t// in\n    tag_50:\n        /* \"#utility.yul\":1138:1209   */\n      swap2\n      pop\n        /* \"#utility.yul\":1094:1219   */\n      pop\n        /* \"#utility.yul\":881:1226   */\n      swap3\n      swap2\n      pop\n      pop\n      jump\t// out\n        /* \"#utility.yul\":1232:1328   */\n    tag_30:\n        /* \"#utility.yul\":1269:1276   */\n      0x00\n        /* \"#utility.yul\":1298:1322   */\n      tag_52\n        /* \"#utility.yul\":1316:1321   */\n      dup3\n        /* \"#utility.yul\":1298:1322   */\n      tag_26\n      jump\t// in\n    tag_52:\n        /* \"#utility.yul\":1287:1322   */\n      swap1\n      pop\n        /* \"#utility.yul\":1232:1328   */\n      swap2\n      swap1\n      pop\n      jump\t// out\n        /* \"#utility.yul\":1334:1452   */\n    tag_31:\n        /* \"#utility.yul\":1421:1445   */\n      tag_54\n        /* \"#utility.yul\":1439:1444   */\n      dup2\n        /* \"#utility.yul\":1421:1445   */\n      tag_30\n      jump\t// in\n    tag_54:\n        /* \"#utility.yul\":1416:1419   */\n      dup3\n        /* \"#utility.yul\":1409:1446   */\n      mstore\n        /* \"#utility.yul\":1334:1452   */\n      pop\n      pop\n      jump\t// out\n        /* \"#utility.yul\":1458:1680   */\n    tag_16:\n        /* \"#utility.yul\":1551:1555   */\n      0x00\n        /* \"#utility.yul\":1589:1591   */\n      0x20\n        /* \"#utility.yul\":1578:1587   */\n      dup3\n        /* \"#utility.yul\":1574:1592   */\n      add\n        /* \"#utility.yul\":1566:1592   */\n      swap1\n      pop\n        /* \"#utility.yul\":1602:1673   */\n      tag_56\n        /* \"#utility.yul\":1670:1671   */\n      0x00\n        /* \"#utility.yul\":1659:1668   */\n      dup4\n        /* \"#utility.yul\":1655:1672   */\n      add\n        /* \"#utility.yul\":1646:1652   */\n      dup5\n        /* \"#utility.yul\":1602:1673   */\n      tag_31\n      jump\t// in\n    tag_56:\n        /* \"#utility.yul\":1458:1680   */\n      swap3\n      swap2\n      pop\n      pop\n      jump\t// out\n        /* \"#utility.yul\":1686:1855   */\n    tag_32:\n        /* \"#utility.yul\":1770:1781   */\n      0x00\n        /* \"#utility.yul\":1804:1810   */\n      dup3\n        /* \"#utility.yul\":1799:1802   */\n      dup3\n        /* \"#utility.yul\":1792:1811   */\n      mstore\n        /* \"#utility.yul\":1844:1848   */\n      0x20\n        /* \"#utility.yul\":1839:1842   */\n      dup3\n        /* \"#utility.yul\":1835:1849   */\n      add\n        /* \"#utility.yul\":1820:1849   */\n      swap1\n      pop\n        /* \"#utility.yul\":1686:1855   */\n      swap3\n      swap2\n      pop\n      pop\n      jump\t// out\n        /* \"#utility.yul\":1861:2020   */\n    tag_33:\n        /* \"#utility.yul\":2001:2012   */\n      0x4e6f74206f776e65720000000000000000000000000000000000000000000000\n        /* \"#utility.yul\":1997:1998   */\n      0x00\n        /* \"#utility.yul\":1989:1995   */\n      dup3\n        /* \"#utility.yul\":1985:1999   */\n      add\n        /* \"#utility.yul\":1978:2013   */\n      mstore\n        /* \"#utility.yul\":1861:2020   */\n      pop\n      jump\t// out\n        /* \"#utility.yul\":2026:2391   */\n    tag_34:\n        /* \"#utility.yul\":2168:2171   */\n      0x00\n        /* \"#utility.yul\":2189:2255   */\n      tag_60\n        /* \"#utility.yul\":2253:2254   */\n      0x09\n        /* \"#utility.yul\":2248:2251   */\n      dup4\n        /* \"#utility.yul\":2189:2255   */\n      tag_32\n      jump\t// in\n    tag_60:\n        /* \"#utility.yul\":2182:2255   */\n      swap2\n      pop\n        /* \"#utility.yul\":2264:2357   */\n      tag_61\n        /* \"#utility.yul\":2353:2356   */\n      dup3\n        /* \"#utility.yul\":2264:2357   */\n      tag_33\n      jump\t// in\n    tag_61:\n        /* \"#utility.yul\":2382:2384   */\n      0x20\n        /* \"#utility.yul\":2377:2380   */\n      dup3\n        /* \"#utility.yul\":2373:2385   */\n      add\n        /* \"#utility.yul\":2366:2385   */\n      swap1\n      pop\n        /* \"#utility.yul\":2026:2391   */\n      swap2\n      swap1\n      pop\n      jump\t// out\n        /* \"#utility.yul\":2397:2816   */\n    tag_20:\n        /* \"#utility.yul\":2563:2567   */\n      0x00\n        /* \"#utility.yul\":2601:2603   */\n      0x20\n        /* \"#utility.yul\":2590:2599   */\n      dup3\n        /* \"#utility.yul\":2586:2604   */\n      add\n        /* \"#utility.yul\":2578:2604   */\n      swap1\n      pop\n        /* \"#utility.yul\":2650:2659   */\n      dup2\n        /* \"#utility.yul\":2644:2648   */\n      dup2\n        /* \"#utility.yul\":2640:2660   */\n      sub\n        /* \"#utility.yul\":2636:2637   */\n      0x00\n        /* \"#utility.yul\":2625:2634   */\n      dup4\n        /* \"#utility.yul\":2621:2638   */\n      add\n        /* \"#utility.yul\":2614:2661   */\n      mstore\n        /* \"#utility.yul\":2678:2809   */\n      tag_63\n        /* \"#utility.yul\":2804:2808   */\n      dup2\n        /* \"#utility.yul\":2678:2809   */\n      tag_34\n      jump\t// in\n    tag_63:\n        /* \"#utility.yul\":2670:2809   */\n      swap1\n      pop\n        /* \"#utility.yul\":2397:2816   */\n      swap2\n      swap1\n      pop\n      jump\t// out\n\n    auxdata: 0xa2646970667358221220c7e8a59139410961caf3f0eb9e0837b95b3afc7602d189c227e6737281b162d764736f6c634300081d0033\n}\n",
				"bytecode": {
					"linkReferences": {},
					"object": "6080604052348015600e575f5ffd5b50335f5f6101000a81548173ffffffffffffffffffffffffffffffffffffffff021916908373ffffffffffffffffffffffffffffffffffffffff1602179055506102f28061005b5f395ff3fe60806040526004361061002c575f3560e01c806371a18bfb146100375780638da5cb5b1461005f57610033565b3661003357005b5f5ffd5b348015610042575f5ffd5b5061005d600480360381019061005891906101e0565b610089565b005b34801561006a575f5ffd5b5061007361015e565b604051610080919061022b565b60405180910390f35b5f5f9054906101000a900473ffffffffffffffffffffffffffffffffffffffff1673ffffffffffffffffffffffffffffffffffffffff163373ffffffffffffffffffffffffffffffffffffffff1614610117576040517f08c379a000000000000000000000000000000000000000000000000000000000815260040161010e9061029e565b60405180910390fd5b8073ffffffffffffffffffffffffffffffffffffffff166108fc4790811502906040515f60405180830381858888f1935050505015801561015a573d5f5f3e3d5ffd5b5050565b5f5f9054906101000a900473ffffffffffffffffffffffffffffffffffffffff1681565b5f5ffd5b5f73ffffffffffffffffffffffffffffffffffffffff82169050919050565b5f6101af82610186565b9050919050565b6101bf816101a5565b81146101c9575f5ffd5b50565b5f813590506101da816101b6565b92915050565b5f602082840312156101f5576101f4610182565b5b5f610202848285016101cc565b91505092915050565b5f61021582610186565b9050919050565b6102258161020b565b82525050565b5f60208201905061023e5f83018461021c565b92915050565b5f82825260208201905092915050565b7f4e6f74206f776e657200000000000000000000000000000000000000000000005f82015250565b5f610288600983610244565b915061029382610254565b602082019050919050565b5f6020820190508181035f8301526102b58161027c565b905091905056fea2646970667358221220c7e8a59139410961caf3f0eb9e0837b95b3afc7602d189c227e6737281b162d764736f6c634300081d0033",
					"opcodes": "PUSH1 0x80 PUSH1 0x40 MSTORE CALLVALUE DUP1 ISZERO PUSH1 0xE JUMPI PUSH0 PUSH0 REVERT JUMPDEST POP CALLER PUSH0 PUSH0 PUSH2 0x100 EXP DUP2 SLOAD DUP2 PUSH20 0xFFFFFFFFFFFFFFFFFFFFFFFFFFFFFFFFFFFFFFFF MUL NOT AND SWAP1 DUP4 PUSH20 0xFFFFFFFFFFFFFFFFFFFFFFFFFFFFFFFFFFFFFFFF AND MUL OR SWAP1 SSTORE POP PUSH2 0x2F2 DUP1 PUSH2 0x5B PUSH0 CODECOPY PUSH0 RETURN INVALID PUSH1 0x80 PUSH1 0x40 MSTORE PUSH1 0x4 CALLDATASIZE LT PUSH2 0x2C JUMPI PUSH0 CALLDATALOAD PUSH1 0xE0 SHR DUP1 PUSH4 0x71A18BFB EQ PUSH2 0x37 JUMPI DUP1 PUSH4 0x8DA5CB5B EQ PUSH2 0x5F JUMPI PUSH2 0x33 JUMP JUMPDEST CALLDATASIZE PUSH2 0x33 JUMPI STOP JUMPDEST PUSH0 PUSH0 REVERT JUMPDEST CALLVALUE DUP1 ISZERO PUSH2 0x42 JUMPI PUSH0 PUSH0 REVERT JUMPDEST POP PUSH2 0x5D PUSH1 0x4 DUP1 CALLDATASIZE SUB DUP2 ADD SWAP1 PUSH2 0x58 SWAP2 SWAP1 PUSH2 0x1E0 JUMP JUMPDEST PUSH2 0x89 JUMP JUMPDEST STOP JUMPDEST CALLVALUE DUP1 ISZERO PUSH2 0x6A JUMPI PUSH0 PUSH0 REVERT JUMPDEST POP PUSH2 0x73 PUSH2 0x15E JUMP JUMPDEST PUSH1 0x40 MLOAD PUSH2 0x80 SWAP2 SWAP1 PUSH2 0x22B JUMP JUMPDEST PUSH1 0x40 MLOAD DUP1 SWAP2 SUB SWAP1 RETURN JUMPDEST PUSH0 PUSH0 SWAP1 SLOAD SWAP1 PUSH2 0x100 EXP SWAP1 DIV PUSH20 0xFFFFFFFFFFFFFFFFFFFFFFFFFFFFFFFFFFFFFFFF AND PUSH20 0xFFFFFFFFFFFFFFFFFFFFFFFFFFFFFFFFFFFFFFFF AND CALLER PUSH20 0xFFFFFFFFFFFFFFFFFFFFFFFFFFFFFFFFFFFFFFFF AND EQ PUSH2 0x117 JUMPI PUSH1 0x40 MLOAD PUSH32 0x8C379A000000000000000000000000000000000000000000000000000000000 DUP2 MSTORE PUSH1 0x4 ADD PUSH2 0x10E SWAP1 PUSH2 0x29E JUMP JUMPDEST PUSH1 0x40 MLOAD DUP1 SWAP2 SUB SWAP1 REVERT JUMPDEST DUP1 PUSH20 0xFFFFFFFFFFFFFFFFFFFFFFFFFFFFFFFFFFFFFFFF AND PUSH2 0x8FC SELFBALANCE SWAP1 DUP2 ISZERO MUL SWAP1 PUSH1 0x40 MLOAD PUSH0 PUSH1 0x40 MLOAD DUP1 DUP4 SUB DUP2 DUP6 DUP9 DUP9 CALL SWAP4 POP POP POP POP ISZERO DUP1 ISZERO PUSH2 0x15A JUMPI RETURNDATASIZE PUSH0 PUSH0 RETURNDATACOPY RETURNDATASIZE PUSH0 REVERT JUMPDEST POP POP JUMP JUMPDEST PUSH0 PUSH0 SWAP1 SLOAD SWAP1 PUSH2 0x100 EXP SWAP1 DIV PUSH20 0xFFFFFFFFFFFFFFFFFFFFFFFFFFFFFFFFFFFFFFFF AND DUP2 JUMP JUMPDEST PUSH0 PUSH0 REVERT JUMPDEST PUSH0 PUSH20 0xFFFFFFFFFFFFFFFFFFFFFFFFFFFFFFFFFFFFFFFF DUP3 AND SWAP1 POP SWAP2 SWAP1 POP JUMP JUMPDEST PUSH0 PUSH2 0x1AF DUP3 PUSH2 0x186 JUMP JUMPDEST SWAP1 POP SWAP2 SWAP1 POP JUMP JUMPDEST PUSH2 0x1BF DUP2 PUSH2 0x1A5 JUMP JUMPDEST DUP2 EQ PUSH2 0x1C9 JUMPI PUSH0 PUSH0 REVERT JUMPDEST POP JUMP JUMPDEST PUSH0 DUP2 CALLDATALOAD SWAP1 POP PUSH2 0x1DA DUP2 PUSH2 0x1B6 JUMP JUMPDEST SWAP3 SWAP2 POP POP JUMP JUMPDEST PUSH0 PUSH1 0x20 DUP3 DUP5 SUB SLT ISZERO PUSH2 0x1F5 JUMPI PUSH2 0x1F4 PUSH2 0x182 JUMP JUMPDEST JUMPDEST PUSH0 PUSH2 0x202 DUP5 DUP3 DUP6 ADD PUSH2 0x1CC JUMP JUMPDEST SWAP2 POP POP SWAP3 SWAP2 POP POP JUMP JUMPDEST PUSH0 PUSH2 0x215 DUP3 PUSH2 0x186 JUMP JUMPDEST SWAP1 POP SWAP2 SWAP1 POP JUMP JUMPDEST PUSH2 0x225 DUP2 PUSH2 0x20B JUMP JUMPDEST DUP3 MSTORE POP POP JUMP JUMPDEST PUSH0 PUSH1 0x20 DUP3 ADD SWAP1 POP PUSH2 0x23E PUSH0 DUP4 ADD DUP5 PUSH2 0x21C JUMP JUMPDEST SWAP3 SWAP2 POP POP JUMP JUMPDEST PUSH0 DUP3 DUP3 MSTORE PUSH1 0x20 DUP3 ADD SWAP1 POP SWAP3 SWAP2 POP POP JUMP JUMPDEST PUSH32 0x4E6F74206F776E65720000000000000000000000000000000000000000000000 PUSH0 DUP3 ADD MSTORE POP JUMP JUMPDEST PUSH0 PUSH2 0x288 PUSH1 0x9 DUP4 PUSH2 0x244 JUMP JUMPDEST SWAP2 POP PUSH2 0x293 DUP3 PUSH2 0x254 JUMP JUMPDEST PUSH1 0x20 DUP3 ADD SWAP1 POP SWAP2 SWAP1 POP JUMP JUMPDEST PUSH0 PUSH1 0x20 DUP3 ADD SWAP1 POP DUP2 DUP2 SUB PUSH0 DUP4 ADD MSTORE PUSH2 0x2B5 DUP2 PUSH2 0x27C JUMP JUMPDEST SWAP1 POP SWAP2 SWAP1 POP JUMP INVALID LOG2 PUSH5 0x6970667358 0x22 SLT KECCAK256 0xC7 0xE8 0xA5 SWAP2 CODECOPY COINBASE MULMOD PUSH2 0xCAF3 CREATE 0xEB SWAP15 ADDMOD CALLDATACOPY 0xB9 JUMPDEST GASPRICE 0xFC PUSH23 0x2D189C227E6737281B162D764736F6C634300081D0033 "
				},
				"gasEstimates": {
					"creation": {
						"codeDepositCost": "150800",
						"executionCost": "24458",
						"totalCost": "175258"
					},
					"external": {
						"emergencyDrain(address)": "infinite",
						"owner()": "2507"
					}
				},
				"methodIdentifiers": {
					"emergencyDrain(address)": "71a18bfb",
					"owner()": "8da5cb5b"
				}
			},
			"storageLayout": {
				"storage": [
					{
						"astId": 2,
						"contract": "H/backdoorAdminFunction.sol:Backdoor",
						"label": "owner",
						"offset": 0,
						"slot": "0",
						"type": "t_address"
					}
				],
				"types": {
					"t_address": {
						"encoding": "inplace",
						"label": "address",
						"numberOfBytes": "20"
					}
				}
			},
			"userdoc": {
				"kind": "user",
				"methods": {},
				"version": 1
			}
		}
	}
}