{
	"H/Verify File.sol": {
		"HashIntegrity": {
			"abi": [
				{
					"inputs": [
						{
							"internalType": "address",
							"name": "",
							"type": "address"
						}
					],
					"name": "storedHashes",
					"outputs": [
						{
							"internalType": "bytes32",
							"name": "",
							"type": "bytes32"
						}
					],
					"stateMutability": "view",
					"type": "function"
				},
				{
					"inputs": [
						{
							"internalType": "bytes32",
							"name": "fileHash",
							"type": "bytes32"
						}
					],
					"name": "uploadHash",
					"outputs": [],
					"stateMutability": "nonpayable",
					"type": "function"
				},
				{
					"inputs": [
						{
							"internalType": "bytes",
							"name": "fileData",
							"type": "bytes"
						}
					],
					"name": "verifyHash",
					"outputs": [
						{
							"internalType": "bool",
							"name": "",
							"type": "bool"
						}
					],
					"stateMutability": "view",
					"type": "function"
				}
			],
			"devdoc": {
				"kind": "dev",
				"methods": {},
				"version": 1
			},
			"evm": {
				"assembly": "    /* \"H/Verify File.sol\":0:333  contract HashIntegrity {... */\n  mstore(0x40, 0x80)\n  callvalue\n  dup1\n  iszero\n  tag_1\n  jumpi\n  revert(0x00, 0x00)\ntag_1:\n  pop\n  dataSize(sub_0)\n  dup1\n  dataOffset(sub_0)\n  0x00\n  codecopy\n  0x00\n  return\nstop\n\nsub_0: assembly {\n        /* \"H/Verify File.sol\":0:333  contract HashIntegrity {... */\n      mstore(0x40, 0x80)\n      callvalue\n      dup1\n      iszero\n      tag_1\n      jumpi\n      revert(0x00, 0x00)\n    tag_1:\n      pop\n      jumpi(tag_2, lt(calldatasize, 0x04))\n      shr(0xe0, calldataload(0x00))\n      dup1\n      0x9c7d6903\n      eq\n      tag_3\n      jumpi\n      dup1\n      0xbbaad1e5\n      eq\n      tag_4\n      jumpi\n      dup1\n      0xcc42a7d3\n      eq\n      tag_5\n      jumpi\n    tag_2:\n      revert(0x00, 0x00)\n        /* \"H/Verify File.sol\":83:182  function uploadHash(bytes32 fileHash) external {... */\n    tag_3:\n      tag_6\n      0x04\n      dup1\n      calldatasize\n      sub\n      dup2\n      add\n      swap1\n      tag_7\n      swap2\n      swap1\n      tag_8\n      jump\t// in\n    tag_7:\n      tag_9\n      jump\t// in\n    tag_6:\n      stop\n        /* \"H/Verify File.sol\":29:76  mapping(address => bytes32) public storedHashes */\n    tag_4:\n      tag_10\n      0x04\n      dup1\n      calldatasize\n      sub\n      dup2\n      add\n      swap1\n      tag_11\n      swap2\n      swap1\n      tag_12\n      jump\t// in\n    tag_11:\n      tag_13\n      jump\t// in\n    tag_10:\n      mload(0x40)\n      tag_14\n      swap2\n      swap1\n      tag_15\n      jump\t// in\n    tag_14:\n      mload(0x40)\n      dup1\n      swap2\n      sub\n      swap1\n      return\n        /* \"H/Verify File.sol\":188:331  function verifyHash(bytes memory fileData) external view returns (bool) {... */\n    tag_5:\n      tag_16\n      0x04\n      dup1\n      calldatasize\n      sub\n      dup2\n      add\n      swap1\n      tag_17\n      swap2\n      swap1\n      tag_18\n      jump\t// in\n    tag_17:\n      tag_19\n      jump\t// in\n    tag_16:\n      mload(0x40)\n      tag_20\n      swap2\n      swap1\n      tag_21\n      jump\t// in\n    tag_20:\n      mload(0x40)\n      dup1\n      swap2\n      sub\n      swap1\n      return\n        /* \"H/Verify File.sol\":83:182  function uploadHash(bytes32 fileHash) external {... */\n    tag_9:\n        /* \"H/Verify File.sol\":167:175  fileHash */\n      dup1\n        /* \"H/Verify File.sol\":140:152  storedHashes */\n      0x00\n        /* \"H/Verify File.sol\":140:164  storedHashes[msg.sender] */\n      0x00\n        /* \"H/Verify File.sol\":153:163  msg.sender */\n      caller\n        /* \"H/Verify File.sol\":140:164  storedHashes[msg.sender] */\n      0xffffffffffffffffffffffffffffffffffffffff\n      and\n      0xffffffffffffffffffffffffffffffffffffffff\n      and\n      dup2\n      mstore\n      0x20\n      add\n      swap1\n      dup2\n      mstore\n      0x20\n      add\n      0x00\n      keccak256\n        /* \"H/Verify File.sol\":140:175  storedHashes[msg.sender] = fileHash */\n      dup2\n      swap1\n      sstore\n      pop\n        /* \"H/Verify File.sol\":83:182  function uploadHash(bytes32 fileHash) external {... */\n      pop\n      jump\t// out\n        /* \"H/Verify File.sol\":29:76  mapping(address => bytes32) public storedHashes */\n    tag_13:\n      mstore(0x20, 0x00)\n      dup1\n      0x00\n      mstore\n      keccak256(0x00, 0x40)\n      0x00\n      swap2\n      pop\n      swap1\n      pop\n      sload\n      dup2\n      jump\t// out\n        /* \"H/Verify File.sol\":188:331  function verifyHash(bytes memory fileData) external view returns (bool) {... */\n    tag_19:\n        /* \"H/Verify File.sol\":254:258  bool */\n      0x00\n        /* \"H/Verify File.sol\":300:312  storedHashes */\n      0x00\n        /* \"H/Verify File.sol\":300:324  storedHashes[msg.sender] */\n      0x00\n        /* \"H/Verify File.sol\":313:323  msg.sender */\n      caller\n        /* \"H/Verify File.sol\":300:324  storedHashes[msg.sender] */\n      0xffffffffffffffffffffffffffffffffffffffff\n      and\n      0xffffffffffffffffffffffffffffffffffffffff\n      and\n      dup2\n      mstore\n      0x20\n      add\n      swap1\n      dup2\n      mstore\n      0x20\n      add\n      0x00\n      keccak256\n      sload\n        /* \"H/Verify File.sol\":287:295  fileData */\n      dup3\n        /* \"H/Verify File.sol\":277:296  keccak256(fileData) */\n      dup1\n      mload\n      swap1\n      0x20\n      add\n      keccak256\n        /* \"H/Verify File.sol\":277:324  keccak256(fileData) == storedHashes[msg.sender] */\n      eq\n        /* \"H/Verify File.sol\":270:324  return keccak256(fileData) == storedHashes[msg.sender] */\n      swap1\n      pop\n        /* \"H/Verify File.sol\":188:331  function verifyHash(bytes memory fileData) external view returns (bool) {... */\n      swap2\n      swap1\n      pop\n      jump\t// out\n        /* \"#utility.yul\":7:82   */\n    tag_24:\n        /* \"#utility.yul\":40:46   */\n      0x00\n        /* \"#utility.yul\":73:75   */\n      0x40\n        /* \"#utility.yul\":67:76   */\n      mload\n        /* \"#utility.yul\":57:76   */\n      swap1\n      pop\n        /* \"#utility.yul\":7:82   */\n      swap1\n      jump\t// out\n        /* \"#utility.yul\":88:205   */\n    tag_25:\n        /* \"#utility.yul\":197:198   */\n      0x00\n        /* \"#utility.yul\":194:195   */\n      0x00\n        /* \"#utility.yul\":187:199   */\n      revert\n        /* \"#utility.yul\":211:328   */\n    tag_26:\n        /* \"#utility.yul\":320:321   */\n      0x00\n        /* \"#utility.yul\":317:318   */\n      0x00\n        /* \"#utility.yul\":310:322   */\n      revert\n        /* \"#utility.yul\":334:411   */\n    tag_27:\n        /* \"#utility.yul\":371:378   */\n      0x00\n        /* \"#utility.yul\":400:405   */\n      dup2\n        /* \"#utility.yul\":389:405   */\n      swap1\n      pop\n        /* \"#utility.yul\":334:411   */\n      swap2\n      swap1\n      pop\n      jump\t// out\n        /* \"#utility.yul\":417:539   */\n    tag_28:\n        /* \"#utility.yul\":490:514   */\n      tag_53\n        /* \"#utility.yul\":508:513   */\n      dup2\n        /* \"#utility.yul\":490:514   */\n      tag_27\n      jump\t// in\n    tag_53:\n        /* \"#utility.yul\":483:488   */\n      dup2\n        /* \"#utility.yul\":480:515   */\n      eq\n        /* \"#utility.yul\":470:533   */\n      tag_54\n      jumpi\n        /* \"#utility.yul\":529:530   */\n      0x00\n        /* \"#utility.yul\":526:527   */\n      0x00\n        /* \"#utility.yul\":519:531   */\n      revert\n        /* \"#utility.yul\":470:533   */\n    tag_54:\n        /* \"#utility.yul\":417:539   */\n      pop\n      jump\t// out\n        /* \"#utility.yul\":545:684   */\n    tag_29:\n        /* \"#utility.yul\":591:596   */\n      0x00\n        /* \"#utility.yul\":629:635   */\n      dup2\n        /* \"#utility.yul\":616:636   */\n      calldataload\n        /* \"#utility.yul\":607:636   */\n      swap1\n      pop\n        /* \"#utility.yul\":645:678   */\n      tag_56\n        /* \"#utility.yul\":672:677   */\n      dup2\n        /* \"#utility.yul\":645:678   */\n      tag_28\n      jump\t// in\n    tag_56:\n        /* \"#utility.yul\":545:684   */\n      swap3\n      swap2\n      pop\n      pop\n      jump\t// out\n        /* \"#utility.yul\":690:1019   */\n    tag_8:\n        /* \"#utility.yul\":749:755   */\n      0x00\n        /* \"#utility.yul\":798:800   */\n      0x20\n        /* \"#utility.yul\":786:795   */\n      dup3\n        /* \"#utility.yul\":777:784   */\n      dup5\n        /* \"#utility.yul\":773:796   */\n      sub\n        /* \"#utility.yul\":769:801   */\n      slt\n        /* \"#utility.yul\":766:885   */\n      iszero\n      tag_58\n      jumpi\n        /* \"#utility.yul\":804:883   */\n      tag_59\n      tag_25\n      jump\t// in\n    tag_59:\n        /* \"#utility.yul\":766:885   */\n    tag_58:\n        /* \"#utility.yul\":924:925   */\n      0x00\n        /* \"#utility.yul\":949:1002   */\n      tag_60\n        /* \"#utility.yul\":994:1001   */\n      dup5\n        /* \"#utility.yul\":985:991   */\n      dup3\n        /* \"#utility.yul\":974:983   */\n      dup6\n        /* \"#utility.yul\":970:992   */\n      add\n        /* \"#utility.yul\":949:1002   */\n      tag_29\n      jump\t// in\n    tag_60:\n        /* \"#utility.yul\":939:1002   */\n      swap2\n      pop\n        /* \"#utility.yul\":895:1012   */\n      pop\n        /* \"#utility.yul\":690:1019   */\n      swap3\n      swap2\n      pop\n      pop\n      jump\t// out\n        /* \"#utility.yul\":1025:1151   */\n    tag_30:\n        /* \"#utility.yul\":1062:1069   */\n      0x00\n        /* \"#utility.yul\":1102:1144   */\n      0xffffffffffffffffffffffffffffffffffffffff\n        /* \"#utility.yul\":1095:1100   */\n      dup3\n        /* \"#utility.yul\":1091:1145   */\n      and\n        /* \"#utility.yul\":1080:1145   */\n      swap1\n      pop\n        /* \"#utility.yul\":1025:1151   */\n      swap2\n      swap1\n      pop\n      jump\t// out\n        /* \"#utility.yul\":1157:1253   */\n    tag_31:\n        /* \"#utility.yul\":1194:1201   */\n      0x00\n        /* \"#utility.yul\":1223:1247   */\n      tag_63\n        /* \"#utility.yul\":1241:1246   */\n      dup3\n        /* \"#utility.yul\":1223:1247   */\n      tag_30\n      jump\t// in\n    tag_63:\n        /* \"#utility.yul\":1212:1247   */\n      swap1\n      pop\n        /* \"#utility.yul\":1157:1253   */\n      swap2\n      swap1\n      pop\n      jump\t// out\n        /* \"#utility.yul\":1259:1381   */\n    tag_32:\n        /* \"#utility.yul\":1332:1356   */\n      tag_65\n        /* \"#utility.yul\":1350:1355   */\n      dup2\n        /* \"#utility.yul\":1332:1356   */\n      tag_31\n      jump\t// in\n    tag_65:\n        /* \"#utility.yul\":1325:1330   */\n      dup2\n        /* \"#utility.yul\":1322:1357   */\n      eq\n        /* \"#utility.yul\":1312:1375   */\n      tag_66\n      jumpi\n        /* \"#utility.yul\":1371:1372   */\n      0x00\n        /* \"#utility.yul\":1368:1369   */\n      0x00\n        /* \"#utility.yul\":1361:1373   */\n      revert\n        /* \"#utility.yul\":1312:1375   */\n    tag_66:\n        /* \"#utility.yul\":1259:1381   */\n      pop\n      jump\t// out\n        /* \"#utility.yul\":1387:1526   */\n    tag_33:\n        /* \"#utility.yul\":1433:1438   */\n      0x00\n        /* \"#utility.yul\":1471:1477   */\n      dup2\n        /* \"#utility.yul\":1458:1478   */\n      calldataload\n        /* \"#utility.yul\":1449:1478   */\n      swap1\n      pop\n        /* \"#utility.yul\":1487:1520   */\n      tag_68\n        /* \"#utility.yul\":1514:1519   */\n      dup2\n        /* \"#utility.yul\":1487:1520   */\n      tag_32\n      jump\t// in\n    tag_68:\n        /* \"#utility.yul\":1387:1526   */\n      swap3\n      swap2\n      pop\n      pop\n      jump\t// out\n        /* \"#utility.yul\":1532:1861   */\n    tag_12:\n        /* \"#utility.yul\":1591:1597   */\n      0x00\n        /* \"#utility.yul\":1640:1642   */\n      0x20\n        /* \"#utility.yul\":1628:1637   */\n      dup3\n        /* \"#utility.yul\":1619:1626   */\n      dup5\n        /* \"#utility.yul\":1615:1638   */\n      sub\n        /* \"#utility.yul\":1611:1643   */\n      slt\n        /* \"#utility.yul\":1608:1727   */\n      iszero\n      tag_70\n      jumpi\n        /* \"#utility.yul\":1646:1725   */\n      tag_71\n      tag_25\n      jump\t// in\n    tag_71:\n        /* \"#utility.yul\":1608:1727   */\n    tag_70:\n        /* \"#utility.yul\":1766:1767   */\n      0x00\n        /* \"#utility.yul\":1791:1844   */\n      tag_72\n        /* \"#utility.yul\":1836:1843   */\n      dup5\n        /* \"#utility.yul\":1827:1833   */\n      dup3\n        /* \"#utility.yul\":1816:1825   */\n      dup6\n        /* \"#utility.yul\":1812:1834   */\n      add\n        /* \"#utility.yul\":1791:1844   */\n      tag_33\n      jump\t// in\n    tag_72:\n        /* \"#utility.yul\":1781:1844   */\n      swap2\n      pop\n        /* \"#utility.yul\":1737:1854   */\n      pop\n        /* \"#utility.yul\":1532:1861   */\n      swap3\n      swap2\n      pop\n      pop\n      jump\t// out\n        /* \"#utility.yul\":1867:1985   */\n    tag_34:\n        /* \"#utility.yul\":1954:1978   */\n      tag_74\n        /* \"#utility.yul\":1972:1977   */\n      dup2\n        /* \"#utility.yul\":1954:1978   */\n      tag_27\n      jump\t// in\n    tag_74:\n        /* \"#utility.yul\":1949:1952   */\n      dup3\n        /* \"#utility.yul\":1942:1979   */\n      mstore\n        /* \"#utility.yul\":1867:1985   */\n      pop\n      pop\n      jump\t// out\n        /* \"#utility.yul\":1991:2213   */\n    tag_15:\n        /* \"#utility.yul\":2084:2088   */\n      0x00\n        /* \"#utility.yul\":2122:2124   */\n      0x20\n        /* \"#utility.yul\":2111:2120   */\n      dup3\n        /* \"#utility.yul\":2107:2125   */\n      add\n        /* \"#utility.yul\":2099:2125   */\n      swap1\n      pop\n        /* \"#utility.yul\":2135:2206   */\n      tag_76\n        /* \"#utility.yul\":2203:2204   */\n      0x00\n        /* \"#utility.yul\":2192:2201   */\n      dup4\n        /* \"#utility.yul\":2188:2205   */\n      add\n        /* \"#utility.yul\":2179:2185   */\n      dup5\n        /* \"#utility.yul\":2135:2206   */\n      tag_34\n      jump\t// in\n    tag_76:\n        /* \"#utility.yul\":1991:2213   */\n      swap3\n      swap2\n      pop\n      pop\n      jump\t// out\n        /* \"#utility.yul\":2219:2336   */\n    tag_35:\n        /* \"#utility.yul\":2328:2329   */\n      0x00\n        /* \"#utility.yul\":2325:2326   */\n      0x00\n        /* \"#utility.yul\":2318:2330   */\n      revert\n        /* \"#utility.yul\":2342:2459   */\n    tag_36:\n        /* \"#utility.yul\":2451:2452   */\n      0x00\n        /* \"#utility.yul\":2448:2449   */\n      0x00\n        /* \"#utility.yul\":2441:2453   */\n      revert\n        /* \"#utility.yul\":2465:2567   */\n    tag_37:\n        /* \"#utility.yul\":2506:2512   */\n      0x00\n        /* \"#utility.yul\":2557:2559   */\n      0x1f\n        /* \"#utility.yul\":2553:2560   */\n      not\n        /* \"#utility.yul\":2548:2550   */\n      0x1f\n        /* \"#utility.yul\":2541:2546   */\n      dup4\n        /* \"#utility.yul\":2537:2551   */\n      add\n        /* \"#utility.yul\":2533:2561   */\n      and\n        /* \"#utility.yul\":2523:2561   */\n      swap1\n      pop\n        /* \"#utility.yul\":2465:2567   */\n      swap2\n      swap1\n      pop\n      jump\t// out\n        /* \"#utility.yul\":2573:2753   */\n    tag_38:\n        /* \"#utility.yul\":2621:2698   */\n      0x4e487b7100000000000000000000000000000000000000000000000000000000\n        /* \"#utility.yul\":2618:2619   */\n      0x00\n        /* \"#utility.yul\":2611:2699   */\n      mstore\n        /* \"#utility.yul\":2718:2722   */\n      0x41\n        /* \"#utility.yul\":2715:2716   */\n      0x04\n        /* \"#utility.yul\":2708:2723   */\n      mstore\n        /* \"#utility.yul\":2742:2746   */\n      0x24\n        /* \"#utility.yul\":2739:2740   */\n      0x00\n        /* \"#utility.yul\":2732:2747   */\n      revert\n        /* \"#utility.yul\":2759:3040   */\n    tag_39:\n        /* \"#utility.yul\":2842:2869   */\n      tag_82\n        /* \"#utility.yul\":2864:2868   */\n      dup3\n        /* \"#utility.yul\":2842:2869   */\n      tag_37\n      jump\t// in\n    tag_82:\n        /* \"#utility.yul\":2834:2840   */\n      dup2\n        /* \"#utility.yul\":2830:2870   */\n      add\n        /* \"#utility.yul\":2972:2978   */\n      dup2\n        /* \"#utility.yul\":2960:2970   */\n      dup2\n        /* \"#utility.yul\":2957:2979   */\n      lt\n        /* \"#utility.yul\":2936:2954   */\n      0xffffffffffffffff\n        /* \"#utility.yul\":2924:2934   */\n      dup3\n        /* \"#utility.yul\":2921:2955   */\n      gt\n        /* \"#utility.yul\":2918:2980   */\n      or\n        /* \"#utility.yul\":2915:3003   */\n      iszero\n      tag_83\n      jumpi\n        /* \"#utility.yul\":2983:3001   */\n      tag_84\n      tag_38\n      jump\t// in\n    tag_84:\n        /* \"#utility.yul\":2915:3003   */\n    tag_83:\n        /* \"#utility.yul\":3023:3033   */\n      dup1\n        /* \"#utility.yul\":3019:3021   */\n      0x40\n        /* \"#utility.yul\":3012:3034   */\n      mstore\n        /* \"#utility.yul\":2802:3040   */\n      pop\n        /* \"#utility.yul\":2759:3040   */\n      pop\n      pop\n      jump\t// out\n        /* \"#utility.yul\":3046:3175   */\n    tag_40:\n        /* \"#utility.yul\":3080:3086   */\n      0x00\n        /* \"#utility.yul\":3107:3127   */\n      tag_86\n      tag_24\n      jump\t// in\n    tag_86:\n        /* \"#utility.yul\":3097:3127   */\n      swap1\n      pop\n        /* \"#utility.yul\":3136:3169   */\n      tag_87\n        /* \"#utility.yul\":3164:3168   */\n      dup3\n        /* \"#utility.yul\":3156:3162   */\n      dup3\n        /* \"#utility.yul\":3136:3169   */\n      tag_39\n      jump\t// in\n    tag_87:\n        /* \"#utility.yul\":3046:3175   */\n      swap2\n      swap1\n      pop\n      jump\t// out\n        /* \"#utility.yul\":3181:3488   */\n    tag_41:\n        /* \"#utility.yul\":3242:3246   */\n      0x00\n        /* \"#utility.yul\":3332:3350   */\n      0xffffffffffffffff\n        /* \"#utility.yul\":3324:3330   */\n      dup3\n        /* \"#utility.yul\":3321:3351   */\n      gt\n        /* \"#utility.yul\":3318:3374   */\n      iszero\n      tag_89\n      jumpi\n        /* \"#utility.yul\":3354:3372   */\n      tag_90\n      tag_38\n      jump\t// in\n    tag_90:\n        /* \"#utility.yul\":3318:3374   */\n    tag_89:\n        /* \"#utility.yul\":3392:3421   */\n      tag_91\n        /* \"#utility.yul\":3414:3420   */\n      dup3\n        /* \"#utility.yul\":3392:3421   */\n      tag_37\n      jump\t// in\n    tag_91:\n        /* \"#utility.yul\":3384:3421   */\n      swap1\n      pop\n        /* \"#utility.yul\":3476:3480   */\n      0x20\n        /* \"#utility.yul\":3470:3474   */\n      dup2\n        /* \"#utility.yul\":3466:3481   */\n      add\n        /* \"#utility.yul\":3458:3481   */\n      swap1\n      pop\n        /* \"#utility.yul\":3181:3488   */\n      swap2\n      swap1\n      pop\n      jump\t// out\n        /* \"#utility.yul\":3494:3642   */\n    tag_42:\n        /* \"#utility.yul\":3592:3598   */\n      dup3\n        /* \"#utility.yul\":3587:3590   */\n      dup2\n        /* \"#utility.yul\":3582:3585   */\n      dup4\n        /* \"#utility.yul\":3569:3599   */\n      calldatacopy\n        /* \"#utility.yul\":3633:3634   */\n      0x00\n        /* \"#utility.yul\":3624:3630   */\n      dup4\n        /* \"#utility.yul\":3619:3622   */\n      dup4\n        /* \"#utility.yul\":3615:3631   */\n      add\n        /* \"#utility.yul\":3608:3635   */\n      mstore\n        /* \"#utility.yul\":3494:3642   */\n      pop\n      pop\n      pop\n      jump\t// out\n        /* \"#utility.yul\":3648:4071   */\n    tag_43:\n        /* \"#utility.yul\":3725:3730   */\n      0x00\n        /* \"#utility.yul\":3750:3815   */\n      tag_94\n        /* \"#utility.yul\":3766:3814   */\n      tag_95\n        /* \"#utility.yul\":3807:3813   */\n      dup5\n        /* \"#utility.yul\":3766:3814   */\n      tag_41\n      jump\t// in\n    tag_95:\n        /* \"#utility.yul\":3750:3815   */\n      tag_40\n      jump\t// in\n    tag_94:\n        /* \"#utility.yul\":3741:3815   */\n      swap1\n      pop\n        /* \"#utility.yul\":3838:3844   */\n      dup3\n        /* \"#utility.yul\":3831:3836   */\n      dup2\n        /* \"#utility.yul\":3824:3845   */\n      mstore\n        /* \"#utility.yul\":3876:3880   */\n      0x20\n        /* \"#utility.yul\":3869:3874   */\n      dup2\n        /* \"#utility.yul\":3865:3881   */\n      add\n        /* \"#utility.yul\":3914:3917   */\n      dup5\n        /* \"#utility.yul\":3905:3911   */\n      dup5\n        /* \"#utility.yul\":3900:3903   */\n      dup5\n        /* \"#utility.yul\":3896:3912   */\n      add\n        /* \"#utility.yul\":3893:3918   */\n      gt\n        /* \"#utility.yul\":3890:4002   */\n      iszero\n      tag_96\n      jumpi\n        /* \"#utility.yul\":3921:4000   */\n      tag_97\n      tag_36\n      jump\t// in\n    tag_97:\n        /* \"#utility.yul\":3890:4002   */\n    tag_96:\n        /* \"#utility.yul\":4011:4065   */\n      tag_98\n        /* \"#utility.yul\":4058:4064   */\n      dup5\n        /* \"#utility.yul\":4053:4056   */\n      dup3\n        /* \"#utility.yul\":4048:4051   */\n      dup6\n        /* \"#utility.yul\":4011:4065   */\n      tag_42\n      jump\t// in\n    tag_98:\n        /* \"#utility.yul\":3731:4071   */\n      pop\n        /* \"#utility.yul\":3648:4071   */\n      swap4\n      swap3\n      pop\n      pop\n      pop\n      jump\t// out\n        /* \"#utility.yul\":4090:4428   */\n    tag_44:\n        /* \"#utility.yul\":4145:4150   */\n      0x00\n        /* \"#utility.yul\":4194:4197   */\n      dup3\n        /* \"#utility.yul\":4187:4191   */\n      0x1f\n        /* \"#utility.yul\":4179:4185   */\n      dup4\n        /* \"#utility.yul\":4175:4192   */\n      add\n        /* \"#utility.yul\":4171:4198   */\n      slt\n        /* \"#utility.yul\":4161:4283   */\n      tag_100\n      jumpi\n        /* \"#utility.yul\":4202:4281   */\n      tag_101\n      tag_35\n      jump\t// in\n    tag_101:\n        /* \"#utility.yul\":4161:4283   */\n    tag_100:\n        /* \"#utility.yul\":4319:4325   */\n      dup2\n        /* \"#utility.yul\":4306:4326   */\n      calldataload\n        /* \"#utility.yul\":4344:4422   */\n      tag_102\n        /* \"#utility.yul\":4418:4421   */\n      dup5\n        /* \"#utility.yul\":4410:4416   */\n      dup3\n        /* \"#utility.yul\":4403:4407   */\n      0x20\n        /* \"#utility.yul\":4395:4401   */\n      dup7\n        /* \"#utility.yul\":4391:4408   */\n      add\n        /* \"#utility.yul\":4344:4422   */\n      tag_43\n      jump\t// in\n    tag_102:\n        /* \"#utility.yul\":4335:4422   */\n      swap2\n      pop\n        /* \"#utility.yul\":4151:4428   */\n      pop\n        /* \"#utility.yul\":4090:4428   */\n      swap3\n      swap2\n      pop\n      pop\n      jump\t// out\n        /* \"#utility.yul\":4434:4941   */\n    tag_18:\n        /* \"#utility.yul\":4502:4508   */\n      0x00\n        /* \"#utility.yul\":4551:4553   */\n      0x20\n        /* \"#utility.yul\":4539:4548   */\n      dup3\n        /* \"#utility.yul\":4530:4537   */\n      dup5\n        /* \"#utility.yul\":4526:4549   */\n      sub\n        /* \"#utility.yul\":4522:4554   */\n      slt\n        /* \"#utility.yul\":4519:4638   */\n      iszero\n      tag_104\n      jumpi\n        /* \"#utility.yul\":4557:4636   */\n      tag_105\n      tag_25\n      jump\t// in\n    tag_105:\n        /* \"#utility.yul\":4519:4638   */\n    tag_104:\n        /* \"#utility.yul\":4705:4706   */\n      0x00\n        /* \"#utility.yul\":4694:4703   */\n      dup3\n        /* \"#utility.yul\":4690:4707   */\n      add\n        /* \"#utility.yul\":4677:4708   */\n      calldataload\n        /* \"#utility.yul\":4735:4753   */\n      0xffffffffffffffff\n        /* \"#utility.yul\":4727:4733   */\n      dup2\n        /* \"#utility.yul\":4724:4754   */\n      gt\n        /* \"#utility.yul\":4721:4838   */\n      iszero\n      tag_106\n      jumpi\n        /* \"#utility.yul\":4757:4836   */\n      tag_107\n      tag_26\n      jump\t// in\n    tag_107:\n        /* \"#utility.yul\":4721:4838   */\n    tag_106:\n        /* \"#utility.yul\":4862:4924   */\n      tag_108\n        /* \"#utility.yul\":4916:4923   */\n      dup5\n        /* \"#utility.yul\":4907:4913   */\n      dup3\n        /* \"#utility.yul\":4896:4905   */\n      dup6\n        /* \"#utility.yul\":4892:4914   */\n      add\n        /* \"#utility.yul\":4862:4924   */\n      tag_44\n      jump\t// in\n    tag_108:\n        /* \"#utility.yul\":4852:4924   */\n      swap2\n      pop\n        /* \"#utility.yul\":4648:4934   */\n      pop\n        /* \"#utility.yul\":4434:4941   */\n      swap3\n      swap2\n      pop\n      pop\n      jump\t// out\n        /* \"#utility.yul\":4947:5037   */\n    tag_45:\n        /* \"#utility.yul\":4981:4988   */\n      0x00\n        /* \"#utility.yul\":5024:5029   */\n      dup2\n        /* \"#utility.yul\":5017:5030   */\n      iszero\n        /* \"#utility.yul\":5010:5031   */\n      iszero\n        /* \"#utility.yul\":4999:5031   */\n      swap1\n      pop\n        /* \"#utility.yul\":4947:5037   */\n      swap2\n      swap1\n      pop\n      jump\t// out\n        /* \"#utility.yul\":5043:5152   */\n    tag_46:\n        /* \"#utility.yul\":5124:5145   */\n      tag_111\n        /* \"#utility.yul\":5139:5144   */\n      dup2\n        /* \"#utility.yul\":5124:5145   */\n      tag_45\n      jump\t// in\n    tag_111:\n        /* \"#utility.yul\":5119:5122   */\n      dup3\n        /* \"#utility.yul\":5112:5146   */\n      mstore\n        /* \"#utility.yul\":5043:5152   */\n      pop\n      pop\n      jump\t// out\n        /* \"#utility.yul\":5158:5368   */\n    tag_21:\n        /* \"#utility.yul\":5245:5249   */\n      0x00\n        /* \"#utility.yul\":5283:5285   */\n      0x20\n        /* \"#utility.yul\":5272:5281   */\n      dup3\n        /* \"#utility.yul\":5268:5286   */\n      add\n        /* \"#utility.yul\":5260:5286   */\n      swap1\n      pop\n        /* \"#utility.yul\":5296:5361   */\n      tag_113\n        /* \"#utility.yul\":5358:5359   */\n      0x00\n        /* \"#utility.yul\":5347:5356   */\n      dup4\n        /* \"#utility.yul\":5343:5360   */\n      add\n        /* \"#utility.yul\":5334:5340   */\n      dup5\n        /* \"#utility.yul\":5296:5361   */\n      tag_46\n      jump\t// in\n    tag_113:\n        /* \"#utility.yul\":5158:5368   */\n      swap3\n      swap2\n      pop\n      pop\n      jump\t// out\n\n    auxdata: 0xa26469706673582212205352fdcd400bea7aded6b315d771225dee266e88631c68f97d046024c75af35c64736f6c634300081d0033\n}\n",
				"bytecode": {
					"linkReferences": {},
					"object": "6080604052348015600e575f5ffd5b5061046d8061001c5f395ff3fe608060405234801561000f575f5ffd5b506004361061003f575f3560e01c80639c7d690314610043578063bbaad1e51461005f578063cc42a7d31461008f575b5f5ffd5b61005d600480360381019061005891906101a9565b6100bf565b005b6100796004803603810190610074919061022e565b610103565b6040516100869190610268565b60405180910390f35b6100a960048036038101906100a491906103bd565b610117565b6040516100b6919061041e565b60405180910390f35b805f5f3373ffffffffffffffffffffffffffffffffffffffff1673ffffffffffffffffffffffffffffffffffffffff1681526020019081526020015f208190555050565b5f602052805f5260405f205f915090505481565b5f5f5f3373ffffffffffffffffffffffffffffffffffffffff1673ffffffffffffffffffffffffffffffffffffffff1681526020019081526020015f20548280519060200120149050919050565b5f604051905090565b5f5ffd5b5f5ffd5b5f819050919050565b61018881610176565b8114610192575f5ffd5b50565b5f813590506101a38161017f565b92915050565b5f602082840312156101be576101bd61016e565b5b5f6101cb84828501610195565b91505092915050565b5f73ffffffffffffffffffffffffffffffffffffffff82169050919050565b5f6101fd826101d4565b9050919050565b61020d816101f3565b8114610217575f5ffd5b50565b5f8135905061022881610204565b92915050565b5f602082840312156102435761024261016e565b5b5f6102508482850161021a565b91505092915050565b61026281610176565b82525050565b5f60208201905061027b5f830184610259565b92915050565b5f5ffd5b5f5ffd5b5f601f19601f8301169050919050565b7f4e487b71000000000000000000000000000000000000000000000000000000005f52604160045260245ffd5b6102cf82610289565b810181811067ffffffffffffffff821117156102ee576102ed610299565b5b80604052505050565b5f610300610165565b905061030c82826102c6565b919050565b5f67ffffffffffffffff82111561032b5761032a610299565b5b61033482610289565b9050602081019050919050565b828183375f83830152505050565b5f61036161035c84610311565b6102f7565b90508281526020810184848401111561037d5761037c610285565b5b610388848285610341565b509392505050565b5f82601f8301126103a4576103a3610281565b5b81356103b484826020860161034f565b91505092915050565b5f602082840312156103d2576103d161016e565b5b5f82013567ffffffffffffffff8111156103ef576103ee610172565b5b6103fb84828501610390565b91505092915050565b5f8115159050919050565b61041881610404565b82525050565b5f6020820190506104315f83018461040f565b9291505056fea26469706673582212205352fdcd400bea7aded6b315d771225dee266e88631c68f97d046024c75af35c64736f6c634300081d0033",
					"opcodes": "PUSH1 0x80 PUSH1 0x40 MSTORE CALLVALUE DUP1 ISZERO PUSH1 0xE JUMPI PUSH0 PUSH0 REVERT JUMPDEST POP PUSH2 0x46D DUP1 PUSH2 0x1C PUSH0 CODECOPY PUSH0 RETURN INVALID PUSH1 0x80 PUSH1 0x40 MSTORE CALLVALUE DUP1 ISZERO PUSH2 0xF JUMPI PUSH0 PUSH0 REVERT JUMPDEST POP PUSH1 0x4 CALLDATASIZE LT PUSH2 0x3F JUMPI PUSH0 CALLDATALOAD PUSH1 0xE0 SHR DUP1 PUSH4 0x9C7D6903 EQ PUSH2 0x43 JUMPI DUP1 PUSH4 0xBBAAD1E5 EQ PUSH2 0x5F JUMPI DUP1 PUSH4 0xCC42A7D3 EQ PUSH2 0x8F JUMPI JUMPDEST PUSH0 PUSH0 REVERT JUMPDEST PUSH2 0x5D PUSH1 0x4 DUP1 CALLDATASIZE SUB DUP2 ADD SWAP1 PUSH2 0x58 SWAP2 SWAP1 PUSH2 0x1A9 JUMP JUMPDEST PUSH2 0xBF JUMP JUMPDEST STOP JUMPDEST PUSH2 0x79 PUSH1 0x4 DUP1 CALLDATASIZE SUB DUP2 ADD SWAP1 PUSH2 0x74 SWAP2 SWAP1 PUSH2 0x22E JUMP JUMPDEST PUSH2 0x103 JUMP JUMPDEST PUSH1 0x40 MLOAD PUSH2 0x86 SWAP2 SWAP1 PUSH2 0x268 JUMP JUMPDEST PUSH1 0x40 MLOAD DUP1 SWAP2 SUB SWAP1 RETURN JUMPDEST PUSH2 0xA9 PUSH1 0x4 DUP1 CALLDATASIZE SUB DUP2 ADD SWAP1 PUSH2 0xA4 SWAP2 SWAP1 PUSH2 0x3BD JUMP JUMPDEST PUSH2 0x117 JUMP JUMPDEST PUSH1 0x40 MLOAD PUSH2 0xB6 SWAP2 SWAP1 PUSH2 0x41E JUMP JUMPDEST PUSH1 0x40 MLOAD DUP1 SWAP2 SUB SWAP1 RETURN JUMPDEST DUP1 PUSH0 PUSH0 CALLER PUSH20 0xFFFFFFFFFFFFFFFFFFFFFFFFFFFFFFFFFFFFFFFF AND PUSH20 0xFFFFFFFFFFFFFFFFFFFFFFFFFFFFFFFFFFFFFFFF AND DUP2 MSTORE PUSH1 0x20 ADD SWAP1 DUP2 MSTORE PUSH1 0x20 ADD PUSH0 KECCAK256 DUP2 SWAP1 SSTORE POP POP JUMP JUMPDEST PUSH0 PUSH1 0x20 MSTORE DUP1 PUSH0 MSTORE PUSH1 0x40 PUSH0 KECCAK256 PUSH0 SWAP2 POP SWAP1 POP SLOAD DUP2 JUMP JUMPDEST PUSH0 PUSH0 PUSH0 CALLER PUSH20 0xFFFFFFFFFFFFFFFFFFFFFFFFFFFFFFFFFFFFFFFF AND PUSH20 0xFFFFFFFFFFFFFFFFFFFFFFFFFFFFFFFFFFFFFFFF AND DUP2 MSTORE PUSH1 0x20 ADD SWAP1 DUP2 MSTORE PUSH1 0x20 ADD PUSH0 KECCAK256 SLOAD DUP3 DUP1 MLOAD SWAP1 PUSH1 0x20 ADD KECCAK256 EQ SWAP1 POP SWAP2 SWAP1 POP JUMP JUMPDEST PUSH0 PUSH1 0x40 MLOAD SWAP1 POP SWAP1 JUMP JUMPDEST PUSH0 PUSH0 REVERT JUMPDEST PUSH0 PUSH0 REVERT JUMPDEST PUSH0 DUP2 SWAP1 POP SWAP2 SWAP1 POP JUMP JUMPDEST PUSH2 0x188 DUP2 PUSH2 0x176 JUMP JUMPDEST DUP2 EQ PUSH2 0x192 JUMPI PUSH0 PUSH0 REVERT JUMPDEST POP JUMP JUMPDEST PUSH0 DUP2 CALLDATALOAD SWAP1 POP PUSH2 0x1A3 DUP2 PUSH2 0x17F JUMP JUMPDEST SWAP3 SWAP2 POP POP JUMP JUMPDEST PUSH0 PUSH1 0x20 DUP3 DUP5 SUB SLT ISZERO PUSH2 0x1BE JUMPI PUSH2 0x1BD PUSH2 0x16E JUMP JUMPDEST JUMPDEST PUSH0 PUSH2 0x1CB DUP5 DUP3 DUP6 ADD PUSH2 0x195 JUMP JUMPDEST SWAP2 POP POP SWAP3 SWAP2 POP POP JUMP JUMPDEST PUSH0 PUSH20 0xFFFFFFFFFFFFFFFFFFFFFFFFFFFFFFFFFFFFFFFF DUP3 AND SWAP1 POP SWAP2 SWAP1 POP JUMP JUMPDEST PUSH0 PUSH2 0x1FD DUP3 PUSH2 0x1D4 JUMP JUMPDEST SWAP1 POP SWAP2 SWAP1 POP JUMP JUMPDEST PUSH2 0x20D DUP2 PUSH2 0x1F3 JUMP JUMPDEST DUP2 EQ PUSH2 0x217 JUMPI PUSH0 PUSH0 REVERT JUMPDEST POP JUMP JUMPDEST PUSH0 DUP2 CALLDATALOAD SWAP1 POP PUSH2 0x228 DUP2 PUSH2 0x204 JUMP JUMPDEST SWAP3 SWAP2 POP POP JUMP JUMPDEST PUSH0 PUSH1 0x20 DUP3 DUP5 SUB SLT ISZERO PUSH2 0x243 JUMPI PUSH2 0x242 PUSH2 0x16E JUMP JUMPDEST JUMPDEST PUSH0 PUSH2 0x250 DUP5 DUP3 DUP6 ADD PUSH2 0x21A JUMP JUMPDEST SWAP2 POP POP SWAP3 SWAP2 POP POP JUMP JUMPDEST PUSH2 0x262 DUP2 PUSH2 0x176 JUMP JUMPDEST DUP3 MSTORE POP POP JUMP JUMPDEST PUSH0 PUSH1 0x20 DUP3 ADD SWAP1 POP PUSH2 0x27B PUSH0 DUP4 ADD DUP5 PUSH2 0x259 JUMP JUMPDEST SWAP3 SWAP2 POP POP JUMP JUMPDEST PUSH0 PUSH0 REVERT JUMPDEST PUSH0 PUSH0 REVERT JUMPDEST PUSH0 PUSH1 0x1F NOT PUSH1 0x1F DUP4 ADD AND SWAP1 POP SWAP2 SWAP1 POP JUMP JUMPDEST PUSH32 0x4E487B7100000000000000000000000000000000000000000000000000000000 PUSH0 MSTORE PUSH1 0x41 PUSH1 0x4 MSTORE PUSH1 0x24 PUSH0 REVERT JUMPDEST PUSH2 0x2CF DUP3 PUSH2 0x289 JUMP JUMPDEST DUP2 ADD DUP2 DUP2 LT PUSH8 0xFFFFFFFFFFFFFFFF DUP3 GT OR ISZERO PUSH2 0x2EE JUMPI PUSH2 0x2ED PUSH2 0x299 JUMP JUMPDEST JUMPDEST DUP1 PUSH1 0x40 MSTORE POP POP POP JUMP JUMPDEST PUSH0 PUSH2 0x300 PUSH2 0x165 JUMP JUMPDEST SWAP1 POP PUSH2 0x30C DUP3 DUP3 PUSH2 0x2C6 JUMP JUMPDEST SWAP2 SWAP1 POP JUMP JUMPDEST PUSH0 PUSH8 0xFFFFFFFFFFFFFFFF DUP3 GT ISZERO PUSH2 0x32B JUMPI PUSH2 0x32A PUSH2 0x299 JUMP JUMPDEST JUMPDEST PUSH2 0x334 DUP3 PUSH2 0x289 JUMP JUMPDEST SWAP1 POP PUSH1 0x20 DUP2 ADD SWAP1 POP SWAP2 SWAP1 POP JUMP JUMPDEST DUP3 DUP2 DUP4 CALLDATACOPY PUSH0 DUP4 DUP4 ADD MSTORE POP POP POP JUMP JUMPDEST PUSH0 PUSH2 0x361 PUSH2 0x35C DUP5 PUSH2 0x311 JUMP JUMPDEST PUSH2 0x2F7 JUMP JUMPDEST SWAP1 POP DUP3 DUP2 MSTORE PUSH1 0x20 DUP2 ADD DUP5 DUP5 DUP5 ADD GT ISZERO PUSH2 0x37D JUMPI PUSH2 0x37C PUSH2 0x285 JUMP JUMPDEST JUMPDEST PUSH2 0x388 DUP5 DUP3 DUP6 PUSH2 0x341 JUMP JUMPDEST POP SWAP4 SWAP3 POP POP POP JUMP JUMPDEST PUSH0 DUP3 PUSH1 0x1F DUP4 ADD SLT PUSH2 0x3A4 JUMPI PUSH2 0x3A3 PUSH2 0x281 JUMP JUMPDEST JUMPDEST DUP2 CALLDATALOAD PUSH2 0x3B4 DUP5 DUP3 PUSH1 0x20 DUP7 ADD PUSH2 0x34F JUMP JUMPDEST SWAP2 POP POP SWAP3 SWAP2 POP POP JUMP JUMPDEST PUSH0 PUSH1 0x20 DUP3 DUP5 SUB SLT ISZERO PUSH2 0x3D2 JUMPI PUSH2 0x3D1 PUSH2 0x16E JUMP JUMPDEST JUMPDEST PUSH0 DUP3 ADD CALLDATALOAD PUSH8 0xFFFFFFFFFFFFFFFF DUP2 GT ISZERO PUSH2 0x3EF JUMPI PUSH2 0x3EE PUSH2 0x172 JUMP JUMPDEST JUMPDEST PUSH2 0x3FB DUP5 DUP3 DUP6 ADD PUSH2 0x390 JUMP JUMPDEST SWAP2 POP POP SWAP3 SWAP2 POP POP JUMP JUMPDEST PUSH0 DUP2 ISZERO ISZERO SWAP1 POP SWAP2 SWAP1 POP JUMP JUMPDEST PUSH2 0x418 DUP2 PUSH2 0x404 JUMP JUMPDEST DUP3 MSTORE POP POP JUMP JUMPDEST PUSH0 PUSH1 0x20 DUP3 ADD SWAP1 POP PUSH2 0x431 PUSH0 DUP4 ADD DUP5 PUSH2 0x40F JUMP JUMPDEST SWAP3 SWAP2 POP POP JUMP INVALID LOG2 PUSH5 0x6970667358 0x22 SLT KECCAK256 MSTORE8 MSTORE REVERT 0xCD BLOCKHASH SIGNEXTEND 0xEA PUSH27 0xDED6B315D771225DEE266E88631C68F97D046024C75AF35C64736F PUSH13 0x634300081D0033000000000000 "
				},
				"gasEstimates": {
					"creation": {
						"codeDepositCost": "226600",
						"executionCost": "267",
						"totalCost": "226867"
					},
					"external": {
						"storedHashes(address)": "2801",
						"uploadHash(bytes32)": "22579",
						"verifyHash(bytes)": "infinite"
					}
				},
				"methodIdentifiers": {
					"storedHashes(address)": "bbaad1e5",
					"uploadHash(bytes32)": "9c7d6903",
					"verifyHash(bytes)": "cc42a7d3"
				}
			},
			"storageLayout": {
				"storage": [
					{
						"astId": 4,
						"contract": "H/Verify File.sol:HashIntegrity",
						"label": "storedHashes",
						"offset": 0,
						"slot": "0",
						"type": "t_mapping(t_address,t_bytes32)"
					}
				],
				"types": {
					"t_address": {
						"encoding": "inplace",
						"label": "address",
						"numberOfBytes": "20"
					},
					"t_bytes32": {
						"encoding": "inplace",
						"label": "bytes32",
						"numberOfBytes": "32"
					},
					"t_mapping(t_address,t_bytes32)": {
						"encoding": "mapping",
						"key": "t_address",
						"label": "mapping(address => bytes32)",
						"numberOfBytes": "32",
						"value": "t_bytes32"
					}
				}
			},
			"userdoc": {
				"kind": "user",
				"methods": {},
				"version": 1
			}
		}
	}
}