{
	"H/hidden cap.sol": {
		"HiddenCapSale": {
			"abi": [
				{
					"inputs": [
						{
							"internalType": "bytes32",
							"name": "_committedHash",
							"type": "bytes32"
						}
					],
					"stateMutability": "nonpayable",
					"type": "constructor"
				},
				{
					"anonymous": false,
					"inputs": [
						{
							"indexed": false,
							"internalType": "bytes32",
							"name": "hash",
							"type": "bytes32"
						}
					],
					"name": "Committed",
					"type": "event"
				},
				{
					"anonymous": false,
					"inputs": [
						{
							"indexed": false,
							"internalType": "address",
							"name": "user",
							"type": "address"
						},
						{
							"indexed": false,
							"internalType": "uint256",
							"name": "amount",
							"type": "uint256"
						}
					],
					"name": "Contribution",
					"type": "event"
				},
				{
					"anonymous": false,
					"inputs": [],
					"name": "Paused",
					"type": "event"
				},
				{
					"anonymous": false,
					"inputs": [
						{
							"indexed": false,
							"internalType": "uint256",
							"name": "cap",
							"type": "uint256"
						}
					],
					"name": "Revealed",
					"type": "event"
				},
				{
					"inputs": [],
					"name": "capRevealed",
					"outputs": [
						{
							"internalType": "bool",
							"name": "",
							"type": "bool"
						}
					],
					"stateMutability": "view",
					"type": "function"
				},
				{
					"inputs": [],
					"name": "committedHash",
					"outputs": [
						{
							"internalType": "bytes32",
							"name": "",
							"type": "bytes32"
						}
					],
					"stateMutability": "view",
					"type": "function"
				},
				{
					"inputs": [
						{
							"internalType": "address",
							"name": "",
							"type": "address"
						}
					],
					"name": "contributions",
					"outputs": [
						{
							"internalType": "uint256",
							"name": "",
							"type": "uint256"
						}
					],
					"stateMutability": "view",
					"type": "function"
				},
				{
					"inputs": [],
					"name": "owner",
					"outputs": [
						{
							"internalType": "address",
							"name": "",
							"type": "address"
						}
					],
					"stateMutability": "view",
					"type": "function"
				},
				{
					"inputs": [],
					"name": "pauseSale",
					"outputs": [],
					"stateMutability": "nonpayable",
					"type": "function"
				},
				{
					"inputs": [],
					"name": "paused",
					"outputs": [
						{
							"internalType": "bool",
							"name": "",
							"type": "bool"
						}
					],
					"stateMutability": "view",
					"type": "function"
				},
				{
					"inputs": [
						{
							"internalType": "string",
							"name": "secret",
							"type": "string"
						},
						{
							"internalType": "uint256",
							"name": "cap",
							"type": "uint256"
						}
					],
					"name": "revealCap",
					"outputs": [],
					"stateMutability": "nonpayable",
					"type": "function"
				},
				{
					"inputs": [],
					"name": "revealedCap",
					"outputs": [
						{
							"internalType": "uint256",
							"name": "",
							"type": "uint256"
						}
					],
					"stateMutability": "view",
					"type": "function"
				},
				{
					"inputs": [],
					"name": "totalRaised",
					"outputs": [
						{
							"internalType": "uint256",
							"name": "",
							"type": "uint256"
						}
					],
					"stateMutability": "view",
					"type": "function"
				},
				{
					"inputs": [],
					"name": "withdraw",
					"outputs": [],
					"stateMutability": "nonpayable",
					"type": "function"
				},
				{
					"stateMutability": "payable",
					"type": "receive"
				}
			],
			"devdoc": {
				"kind": "dev",
				"methods": {},
				"version": 1
			},
			"evm": {
				"assembly": "    /* \"H/hidden cap.sol\":58:1663  contract HiddenCapSale {... */\n  mstore(0x40, 0x80)\n    /* \"H/hidden cap.sol\":586:737  constructor(bytes32 _committedHash) {... */\n  callvalue\n  dup1\n  iszero\n  tag_1\n  jumpi\n  revert(0x00, 0x00)\ntag_1:\n  pop\n  mload(0x40)\n  sub(codesize, bytecodeSize)\n  dup1\n  bytecodeSize\n  dup4\n  codecopy\n  dup2\n  dup2\n  add\n  0x40\n  mstore\n  dup2\n  add\n  swap1\n  tag_2\n  swap2\n  swap1\n  tag_3\n  jump\t// in\ntag_2:\n    /* \"H/hidden cap.sol\":640:650  msg.sender */\n  caller\n    /* \"H/hidden cap.sol\":632:637  owner */\n  0x00\n  0x00\n    /* \"H/hidden cap.sol\":632:650  owner = msg.sender */\n  0x0100\n  exp\n  dup2\n  sload\n  dup2\n  0xffffffffffffffffffffffffffffffffffffffff\n  mul\n  not\n  and\n  swap1\n  dup4\n  0xffffffffffffffffffffffffffffffffffffffff\n  and\n  mul\n  or\n  swap1\n  sstore\n  pop\n    /* \"H/hidden cap.sol\":676:690  _committedHash */\n  dup1\n    /* \"H/hidden cap.sol\":660:673  committedHash */\n  0x01\n    /* \"H/hidden cap.sol\":660:690  committedHash = _committedHash */\n  dup2\n  swap1\n  sstore\n  pop\n    /* \"H/hidden cap.sol\":705:730  Committed(_committedHash) */\n  0x1d835fd041cc3bb34aa7ab8341f3008e52f9e9abe48577aab34a2ba101e5030f\n    /* \"H/hidden cap.sol\":715:729  _committedHash */\n  dup2\n    /* \"H/hidden cap.sol\":705:730  Committed(_committedHash) */\n  mload(0x40)\n  tag_6\n  swap2\n  swap1\n  tag_7\n  jump\t// in\ntag_6:\n  mload(0x40)\n  dup1\n  swap2\n  sub\n  swap1\n  log1\n    /* \"H/hidden cap.sol\":586:737  constructor(bytes32 _committedHash) {... */\n  pop\n    /* \"H/hidden cap.sol\":58:1663  contract HiddenCapSale {... */\n  jump(tag_8)\n    /* \"#utility.yul\":88:205   */\ntag_10:\n    /* \"#utility.yul\":197:198   */\n  0x00\n    /* \"#utility.yul\":194:195   */\n  0x00\n    /* \"#utility.yul\":187:199   */\n  revert\n    /* \"#utility.yul\":334:411   */\ntag_12:\n    /* \"#utility.yul\":371:378   */\n  0x00\n    /* \"#utility.yul\":400:405   */\n  dup2\n    /* \"#utility.yul\":389:405   */\n  swap1\n  pop\n    /* \"#utility.yul\":334:411   */\n  swap2\n  swap1\n  pop\n  jump\t// out\n    /* \"#utility.yul\":417:539   */\ntag_13:\n    /* \"#utility.yul\":490:514   */\n  tag_22\n    /* \"#utility.yul\":508:513   */\n  dup2\n    /* \"#utility.yul\":490:514   */\n  tag_12\n  jump\t// in\ntag_22:\n    /* \"#utility.yul\":483:488   */\n  dup2\n    /* \"#utility.yul\":480:515   */\n  eq\n    /* \"#utility.yul\":470:533   */\n  tag_23\n  jumpi\n    /* \"#utility.yul\":529:530   */\n  0x00\n    /* \"#utility.yul\":526:527   */\n  0x00\n    /* \"#utility.yul\":519:531   */\n  revert\n    /* \"#utility.yul\":470:533   */\ntag_23:\n    /* \"#utility.yul\":417:539   */\n  pop\n  jump\t// out\n    /* \"#utility.yul\":545:688   */\ntag_14:\n    /* \"#utility.yul\":602:607   */\n  0x00\n    /* \"#utility.yul\":633:639   */\n  dup2\n    /* \"#utility.yul\":627:640   */\n  mload\n    /* \"#utility.yul\":618:640   */\n  swap1\n  pop\n    /* \"#utility.yul\":649:682   */\n  tag_25\n    /* \"#utility.yul\":676:681   */\n  dup2\n    /* \"#utility.yul\":649:682   */\n  tag_13\n  jump\t// in\ntag_25:\n    /* \"#utility.yul\":545:688   */\n  swap3\n  swap2\n  pop\n  pop\n  jump\t// out\n    /* \"#utility.yul\":694:1045   */\ntag_3:\n    /* \"#utility.yul\":764:770   */\n  0x00\n    /* \"#utility.yul\":813:815   */\n  0x20\n    /* \"#utility.yul\":801:810   */\n  dup3\n    /* \"#utility.yul\":792:799   */\n  dup5\n    /* \"#utility.yul\":788:811   */\n  sub\n    /* \"#utility.yul\":784:816   */\n  slt\n    /* \"#utility.yul\":781:900   */\n  iszero\n  tag_27\n  jumpi\n    /* \"#utility.yul\":819:898   */\n  tag_28\n  tag_10\n  jump\t// in\ntag_28:\n    /* \"#utility.yul\":781:900   */\ntag_27:\n    /* \"#utility.yul\":939:940   */\n  0x00\n    /* \"#utility.yul\":964:1028   */\n  tag_29\n    /* \"#utility.yul\":1020:1027   */\n  dup5\n    /* \"#utility.yul\":1011:1017   */\n  dup3\n    /* \"#utility.yul\":1000:1009   */\n  dup6\n    /* \"#utility.yul\":996:1018   */\n  add\n    /* \"#utility.yul\":964:1028   */\n  tag_14\n  jump\t// in\ntag_29:\n    /* \"#utility.yul\":954:1028   */\n  swap2\n  pop\n    /* \"#utility.yul\":910:1038   */\n  pop\n    /* \"#utility.yul\":694:1045   */\n  swap3\n  swap2\n  pop\n  pop\n  jump\t// out\n    /* \"#utility.yul\":1051:1169   */\ntag_15:\n    /* \"#utility.yul\":1138:1162   */\n  tag_31\n    /* \"#utility.yul\":1156:1161   */\n  dup2\n    /* \"#utility.yul\":1138:1162   */\n  tag_12\n  jump\t// in\ntag_31:\n    /* \"#utility.yul\":1133:1136   */\n  dup3\n    /* \"#utility.yul\":1126:1163   */\n  mstore\n    /* \"#utility.yul\":1051:1169   */\n  pop\n  pop\n  jump\t// out\n    /* \"#utility.yul\":1175:1397   */\ntag_7:\n    /* \"#utility.yul\":1268:1272   */\n  0x00\n    /* \"#utility.yul\":1306:1308   */\n  0x20\n    /* \"#utility.yul\":1295:1304   */\n  dup3\n    /* \"#utility.yul\":1291:1309   */\n  add\n    /* \"#utility.yul\":1283:1309   */\n  swap1\n  pop\n    /* \"#utility.yul\":1319:1390   */\n  tag_33\n    /* \"#utility.yul\":1387:1388   */\n  0x00\n    /* \"#utility.yul\":1376:1385   */\n  dup4\n    /* \"#utility.yul\":1372:1389   */\n  add\n    /* \"#utility.yul\":1363:1369   */\n  dup5\n    /* \"#utility.yul\":1319:1390   */\n  tag_15\n  jump\t// in\ntag_33:\n    /* \"#utility.yul\":1175:1397   */\n  swap3\n  swap2\n  pop\n  pop\n  jump\t// out\n    /* \"H/hidden cap.sol\":58:1663  contract HiddenCapSale {... */\ntag_8:\n  dataSize(sub_0)\n  dup1\n  dataOffset(sub_0)\n  0x00\n  codecopy\n  0x00\n  return\nstop\n\nsub_0: assembly {\n        /* \"H/hidden cap.sol\":58:1663  contract HiddenCapSale {... */\n      mstore(0x40, 0x80)\n      jumpi(tag_1, lt(calldatasize, 0x04))\n      shr(0xe0, calldataload(0x00))\n      dup1\n      0x5c975abb\n      gt\n      tag_13\n      jumpi\n      dup1\n      0x5c975abb\n      eq\n      tag_8\n      jumpi\n      dup1\n      0x8da5cb5b\n      eq\n      tag_9\n      jumpi\n      dup1\n      0x9d36b431\n      eq\n      tag_10\n      jumpi\n      dup1\n      0xc5c4744c\n      eq\n      tag_11\n      jumpi\n      dup1\n      0xcba53f5a\n      eq\n      tag_12\n      jumpi\n      jump(tag_2)\n    tag_13:\n      dup1\n      0x16d8b447\n      eq\n      tag_3\n      jumpi\n      dup1\n      0x3ccfd60b\n      eq\n      tag_4\n      jumpi\n      dup1\n      0x42e94c90\n      eq\n      tag_5\n      jumpi\n      dup1\n      0x4aedb06f\n      eq\n      tag_6\n      jumpi\n      dup1\n      0x55367ba9\n      eq\n      tag_7\n      jumpi\n      jump(tag_2)\n    tag_1:\n      jumpi(tag_2, calldatasize)\n        /* \"H/hidden cap.sol\":789:795  paused */\n      0x03\n      0x01\n      swap1\n      sload\n      swap1\n      0x0100\n      exp\n      swap1\n      div\n      0xff\n      and\n        /* \"H/hidden cap.sol\":788:795  !paused */\n      iszero\n        /* \"H/hidden cap.sol\":780:811  require(!paused, \"Sale paused\") */\n      tag_16\n      jumpi\n      mload(0x40)\n      0x08c379a000000000000000000000000000000000000000000000000000000000\n      dup2\n      mstore\n      0x04\n      add\n      tag_17\n      swap1\n      tag_18\n      jump\t// in\n    tag_17:\n      mload(0x40)\n      dup1\n      swap2\n      sub\n      swap1\n      revert\n    tag_16:\n        /* \"H/hidden cap.sol\":830:841  capRevealed */\n      0x03\n      0x00\n      swap1\n      sload\n      swap1\n      0x0100\n      exp\n      swap1\n      div\n      0xff\n      and\n        /* \"H/hidden cap.sol\":829:841  !capRevealed */\n      iszero\n        /* \"H/hidden cap.sol\":829:883  !capRevealed || totalRaised + msg.value <= revealedCap */\n      dup1\n      tag_19\n      jumpi\n      pop\n        /* \"H/hidden cap.sol\":872:883  revealedCap */\n      sload(0x02)\n        /* \"H/hidden cap.sol\":859:868  msg.value */\n      callvalue\n        /* \"H/hidden cap.sol\":845:856  totalRaised */\n      sload(0x04)\n        /* \"H/hidden cap.sol\":845:868  totalRaised + msg.value */\n      tag_20\n      swap2\n      swap1\n      tag_21\n      jump\t// in\n    tag_20:\n        /* \"H/hidden cap.sol\":845:883  totalRaised + msg.value <= revealedCap */\n      gt\n      iszero\n        /* \"H/hidden cap.sol\":829:883  !capRevealed || totalRaised + msg.value <= revealedCap */\n    tag_19:\n        /* \"H/hidden cap.sol\":821:899  require(!capRevealed || totalRaised + msg.value <= revealedCap, \"Exceeds cap\") */\n      tag_22\n      jumpi\n      mload(0x40)\n      0x08c379a000000000000000000000000000000000000000000000000000000000\n      dup2\n      mstore\n      0x04\n      add\n      tag_23\n      swap1\n      tag_24\n      jump\t// in\n    tag_23:\n      mload(0x40)\n      dup1\n      swap2\n      sub\n      swap1\n      revert\n    tag_22:\n        /* \"H/hidden cap.sol\":939:948  msg.value */\n      callvalue\n        /* \"H/hidden cap.sol\":910:923  contributions */\n      0x05\n        /* \"H/hidden cap.sol\":910:935  contributions[msg.sender] */\n      0x00\n        /* \"H/hidden cap.sol\":924:934  msg.sender */\n      caller\n        /* \"H/hidden cap.sol\":910:935  contributions[msg.sender] */\n      0xffffffffffffffffffffffffffffffffffffffff\n      and\n      0xffffffffffffffffffffffffffffffffffffffff\n      and\n      dup2\n      mstore\n      0x20\n      add\n      swap1\n      dup2\n      mstore\n      0x20\n      add\n      0x00\n      keccak256\n      0x00\n        /* \"H/hidden cap.sol\":910:948  contributions[msg.sender] += msg.value */\n      dup3\n      dup3\n      sload\n      tag_25\n      swap2\n      swap1\n      tag_21\n      jump\t// in\n    tag_25:\n      swap3\n      pop\n      pop\n      dup2\n      swap1\n      sstore\n      pop\n        /* \"H/hidden cap.sol\":973:982  msg.value */\n      callvalue\n        /* \"H/hidden cap.sol\":958:969  totalRaised */\n      0x04\n      0x00\n        /* \"H/hidden cap.sol\":958:982  totalRaised += msg.value */\n      dup3\n      dup3\n      sload\n      tag_26\n      swap2\n      swap1\n      tag_21\n      jump\t// in\n    tag_26:\n      swap3\n      pop\n      pop\n      dup2\n      swap1\n      sstore\n      pop\n        /* \"H/hidden cap.sol\":997:1032  Contribution(msg.sender, msg.value) */\n      0x4d154d4aae216bed6d0926db77c00df2b57c6b5ba4eee05775de20facede3a7b\n        /* \"H/hidden cap.sol\":1010:1020  msg.sender */\n      caller\n        /* \"H/hidden cap.sol\":1022:1031  msg.value */\n      callvalue\n        /* \"H/hidden cap.sol\":997:1032  Contribution(msg.sender, msg.value) */\n      mload(0x40)\n      tag_27\n      swap3\n      swap2\n      swap1\n      tag_28\n      jump\t// in\n    tag_27:\n      mload(0x40)\n      dup1\n      swap2\n      sub\n      swap1\n      log1\n        /* \"H/hidden cap.sol\":58:1663  contract HiddenCapSale {... */\n      stop\n    tag_2:\n      revert(0x00, 0x00)\n        /* \"H/hidden cap.sol\":1112:1422  function revealCap(string memory secret, uint256 cap) external onlyOwner {... */\n    tag_3:\n      callvalue\n      dup1\n      iszero\n      tag_29\n      jumpi\n      revert(0x00, 0x00)\n    tag_29:\n      pop\n      tag_30\n      0x04\n      dup1\n      calldatasize\n      sub\n      dup2\n      add\n      swap1\n      tag_31\n      swap2\n      swap1\n      tag_32\n      jump\t// in\n    tag_31:\n      tag_33\n      jump\t// in\n    tag_30:\n      stop\n        /* \"H/hidden cap.sol\":1559:1661  function withdraw() external onlyOwner {... */\n    tag_4:\n      callvalue\n      dup1\n      iszero\n      tag_34\n      jumpi\n      revert(0x00, 0x00)\n    tag_34:\n      pop\n      tag_35\n      tag_36\n      jump\t// in\n    tag_35:\n      stop\n        /* \"H/hidden cap.sol\":292:340  mapping(address => uint256) public contributions */\n    tag_5:\n      callvalue\n      dup1\n      iszero\n      tag_37\n      jumpi\n      revert(0x00, 0x00)\n    tag_37:\n      pop\n      tag_38\n      0x04\n      dup1\n      calldatasize\n      sub\n      dup2\n      add\n      swap1\n      tag_39\n      swap2\n      swap1\n      tag_40\n      jump\t// in\n    tag_39:\n      tag_41\n      jump\t// in\n    tag_38:\n      mload(0x40)\n      tag_42\n      swap2\n      swap1\n      tag_43\n      jump\t// in\n    tag_42:\n      mload(0x40)\n      dup1\n      swap2\n      sub\n      swap1\n      return\n        /* \"H/hidden cap.sol\":174:200  uint256 public revealedCap */\n    tag_6:\n      callvalue\n      dup1\n      iszero\n      tag_44\n      jumpi\n      revert(0x00, 0x00)\n    tag_44:\n      pop\n      tag_45\n      tag_46\n      jump\t// in\n    tag_45:\n      mload(0x40)\n      tag_47\n      swap2\n      swap1\n      tag_43\n      jump\t// in\n    tag_47:\n      mload(0x40)\n      dup1\n      swap2\n      sub\n      swap1\n      return\n        /* \"H/hidden cap.sol\":1460:1553  function pauseSale() external onlyOwner {... */\n    tag_7:\n      callvalue\n      dup1\n      iszero\n      tag_48\n      jumpi\n      revert(0x00, 0x00)\n    tag_48:\n      pop\n      tag_49\n      tag_50\n      jump\t// in\n    tag_49:\n      stop\n        /* \"H/hidden cap.sol\":235:253  bool public paused */\n    tag_8:\n      callvalue\n      dup1\n      iszero\n      tag_51\n      jumpi\n      revert(0x00, 0x00)\n    tag_51:\n      pop\n      tag_52\n      tag_53\n      jump\t// in\n    tag_52:\n      mload(0x40)\n      tag_54\n      swap2\n      swap1\n      tag_55\n      jump\t// in\n    tag_54:\n      mload(0x40)\n      dup1\n      swap2\n      sub\n      swap1\n      return\n        /* \"H/hidden cap.sol\":87:107  address public owner */\n    tag_9:\n      callvalue\n      dup1\n      iszero\n      tag_56\n      jumpi\n      revert(0x00, 0x00)\n    tag_56:\n      pop\n      tag_57\n      tag_58\n      jump\t// in\n    tag_57:\n      mload(0x40)\n      tag_59\n      swap2\n      swap1\n      tag_60\n      jump\t// in\n    tag_59:\n      mload(0x40)\n      dup1\n      swap2\n      sub\n      swap1\n      return\n        /* \"H/hidden cap.sol\":113:141  bytes32 public committedHash */\n    tag_10:\n      callvalue\n      dup1\n      iszero\n      tag_61\n      jumpi\n      revert(0x00, 0x00)\n    tag_61:\n      pop\n      tag_62\n      tag_63\n      jump\t// in\n    tag_62:\n      mload(0x40)\n      tag_64\n      swap2\n      swap1\n      tag_65\n      jump\t// in\n    tag_64:\n      mload(0x40)\n      dup1\n      swap2\n      sub\n      swap1\n      return\n        /* \"H/hidden cap.sol\":260:286  uint256 public totalRaised */\n    tag_11:\n      callvalue\n      dup1\n      iszero\n      tag_66\n      jumpi\n      revert(0x00, 0x00)\n    tag_66:\n      pop\n      tag_67\n      tag_68\n      jump\t// in\n    tag_67:\n      mload(0x40)\n      tag_69\n      swap2\n      swap1\n      tag_43\n      jump\t// in\n    tag_69:\n      mload(0x40)\n      dup1\n      swap2\n      sub\n      swap1\n      return\n        /* \"H/hidden cap.sol\":206:229  bool public capRevealed */\n    tag_12:\n      callvalue\n      dup1\n      iszero\n      tag_70\n      jumpi\n      revert(0x00, 0x00)\n    tag_70:\n      pop\n      tag_71\n      tag_72\n      jump\t// in\n    tag_71:\n      mload(0x40)\n      tag_73\n      swap2\n      swap1\n      tag_55\n      jump\t// in\n    tag_73:\n      mload(0x40)\n      dup1\n      swap2\n      sub\n      swap1\n      return\n        /* \"H/hidden cap.sol\":1112:1422  function revealCap(string memory secret, uint256 cap) external onlyOwner {... */\n    tag_33:\n        /* \"H/hidden cap.sol\":543:548  owner */\n      0x00\n      0x00\n      swap1\n      sload\n      swap1\n      0x0100\n      exp\n      swap1\n      div\n      0xffffffffffffffffffffffffffffffffffffffff\n      and\n        /* \"H/hidden cap.sol\":529:548  msg.sender == owner */\n      0xffffffffffffffffffffffffffffffffffffffff\n      and\n        /* \"H/hidden cap.sol\":529:539  msg.sender */\n      caller\n        /* \"H/hidden cap.sol\":529:548  msg.sender == owner */\n      0xffffffffffffffffffffffffffffffffffffffff\n      and\n      eq\n        /* \"H/hidden cap.sol\":521:562  require(msg.sender == owner, \"Not owner\") */\n      tag_75\n      jumpi\n      mload(0x40)\n      0x08c379a000000000000000000000000000000000000000000000000000000000\n      dup2\n      mstore\n      0x04\n      add\n      tag_76\n      swap1\n      tag_77\n      jump\t// in\n    tag_76:\n      mload(0x40)\n      dup1\n      swap2\n      sub\n      swap1\n      revert\n    tag_75:\n        /* \"H/hidden cap.sol\":1204:1215  capRevealed */\n      0x03\n      0x00\n      swap1\n      sload\n      swap1\n      0x0100\n      exp\n      swap1\n      div\n      0xff\n      and\n        /* \"H/hidden cap.sol\":1203:1215  !capRevealed */\n      iszero\n        /* \"H/hidden cap.sol\":1195:1236  require(!capRevealed, \"Already revealed\") */\n      tag_79\n      jumpi\n      mload(0x40)\n      0x08c379a000000000000000000000000000000000000000000000000000000000\n      dup2\n      mstore\n      0x04\n      add\n      tag_80\n      swap1\n      tag_81\n      jump\t// in\n    tag_80:\n      mload(0x40)\n      dup1\n      swap2\n      sub\n      swap1\n      revert\n    tag_79:\n        /* \"H/hidden cap.sol\":1298:1311  committedHash */\n      sload(0x01)\n        /* \"H/hidden cap.sol\":1281:1287  secret */\n      dup3\n        /* \"H/hidden cap.sol\":1289:1292  cap */\n      dup3\n        /* \"H/hidden cap.sol\":1264:1293  abi.encodePacked(secret, cap) */\n      add(0x20, mload(0x40))\n      tag_82\n      swap3\n      swap2\n      swap1\n      tag_83\n      jump\t// in\n    tag_82:\n      mload(0x40)\n      0x20\n      dup2\n      dup4\n      sub\n      sub\n      dup2\n      mstore\n      swap1\n      0x40\n      mstore\n        /* \"H/hidden cap.sol\":1254:1294  keccak256(abi.encodePacked(secret, cap)) */\n      dup1\n      mload\n      swap1\n      0x20\n      add\n      keccak256\n        /* \"H/hidden cap.sol\":1254:1311  keccak256(abi.encodePacked(secret, cap)) == committedHash */\n      eq\n        /* \"H/hidden cap.sol\":1246:1330  require(keccak256(abi.encodePacked(secret, cap)) == committedHash, \"Invalid reveal\") */\n      tag_84\n      jumpi\n      mload(0x40)\n      0x08c379a000000000000000000000000000000000000000000000000000000000\n      dup2\n      mstore\n      0x04\n      add\n      tag_85\n      swap1\n      tag_86\n      jump\t// in\n    tag_85:\n      mload(0x40)\n      dup1\n      swap2\n      sub\n      swap1\n      revert\n    tag_84:\n        /* \"H/hidden cap.sol\":1355:1358  cap */\n      dup1\n        /* \"H/hidden cap.sol\":1341:1352  revealedCap */\n      0x02\n        /* \"H/hidden cap.sol\":1341:1358  revealedCap = cap */\n      dup2\n      swap1\n      sstore\n      pop\n        /* \"H/hidden cap.sol\":1382:1386  true */\n      0x01\n        /* \"H/hidden cap.sol\":1368:1379  capRevealed */\n      0x03\n      0x00\n        /* \"H/hidden cap.sol\":1368:1386  capRevealed = true */\n      0x0100\n      exp\n      dup2\n      sload\n      dup2\n      0xff\n      mul\n      not\n      and\n      swap1\n      dup4\n      iszero\n      iszero\n      mul\n      or\n      swap1\n      sstore\n      pop\n        /* \"H/hidden cap.sol\":1402:1415  Revealed(cap) */\n      0x15120e52505e619cbf6c2af910d5cf7f9ee1befa55801b078c33e93880b2d609\n        /* \"H/hidden cap.sol\":1411:1414  cap */\n      dup2\n        /* \"H/hidden cap.sol\":1402:1415  Revealed(cap) */\n      mload(0x40)\n      tag_87\n      swap2\n      swap1\n      tag_43\n      jump\t// in\n    tag_87:\n      mload(0x40)\n      dup1\n      swap2\n      sub\n      swap1\n      log1\n        /* \"H/hidden cap.sol\":1112:1422  function revealCap(string memory secret, uint256 cap) external onlyOwner {... */\n      pop\n      pop\n      jump\t// out\n        /* \"H/hidden cap.sol\":1559:1661  function withdraw() external onlyOwner {... */\n    tag_36:\n        /* \"H/hidden cap.sol\":543:548  owner */\n      0x00\n      0x00\n      swap1\n      sload\n      swap1\n      0x0100\n      exp\n      swap1\n      div\n      0xffffffffffffffffffffffffffffffffffffffff\n      and\n        /* \"H/hidden cap.sol\":529:548  msg.sender == owner */\n      0xffffffffffffffffffffffffffffffffffffffff\n      and\n        /* \"H/hidden cap.sol\":529:539  msg.sender */\n      caller\n        /* \"H/hidden cap.sol\":529:548  msg.sender == owner */\n      0xffffffffffffffffffffffffffffffffffffffff\n      and\n      eq\n        /* \"H/hidden cap.sol\":521:562  require(msg.sender == owner, \"Not owner\") */\n      tag_89\n      jumpi\n      mload(0x40)\n      0x08c379a000000000000000000000000000000000000000000000000000000000\n      dup2\n      mstore\n      0x04\n      add\n      tag_90\n      swap1\n      tag_77\n      jump\t// in\n    tag_90:\n      mload(0x40)\n      dup1\n      swap2\n      sub\n      swap1\n      revert\n    tag_89:\n        /* \"H/hidden cap.sol\":1616:1621  owner */\n      0x00\n      0x00\n      swap1\n      sload\n      swap1\n      0x0100\n      exp\n      swap1\n      div\n      0xffffffffffffffffffffffffffffffffffffffff\n      and\n        /* \"H/hidden cap.sol\":1608:1631  payable(owner).transfer */\n      0xffffffffffffffffffffffffffffffffffffffff\n      and\n        /* \"H/hidden cap.sol\":1608:1654  payable(owner).transfer(address(this).balance) */\n      0x08fc\n        /* \"H/hidden cap.sol\":1632:1653  address(this).balance */\n      selfbalance\n        /* \"H/hidden cap.sol\":1608:1654  payable(owner).transfer(address(this).balance) */\n      swap1\n      dup2\n      iszero\n      mul\n      swap1\n      mload(0x40)\n      0x00\n      mload(0x40)\n      dup1\n      dup4\n      sub\n      dup2\n      dup6\n      dup9\n      dup9\n      call\n      swap4\n      pop\n      pop\n      pop\n      pop\n      iszero\n      dup1\n      iszero\n      tag_93\n      jumpi\n      returndatacopy(0x00, 0x00, returndatasize)\n      revert(0x00, returndatasize)\n    tag_93:\n      pop\n        /* \"H/hidden cap.sol\":1559:1661  function withdraw() external onlyOwner {... */\n      jump\t// out\n        /* \"H/hidden cap.sol\":292:340  mapping(address => uint256) public contributions */\n    tag_41:\n      mstore(0x20, 0x05)\n      dup1\n      0x00\n      mstore\n      keccak256(0x00, 0x40)\n      0x00\n      swap2\n      pop\n      swap1\n      pop\n      sload\n      dup2\n      jump\t// out\n        /* \"H/hidden cap.sol\":174:200  uint256 public revealedCap */\n    tag_46:\n      sload(0x02)\n      dup2\n      jump\t// out\n        /* \"H/hidden cap.sol\":1460:1553  function pauseSale() external onlyOwner {... */\n    tag_50:\n        /* \"H/hidden cap.sol\":543:548  owner */\n      0x00\n      0x00\n      swap1\n      sload\n      swap1\n      0x0100\n      exp\n      swap1\n      div\n      0xffffffffffffffffffffffffffffffffffffffff\n      and\n        /* \"H/hidden cap.sol\":529:548  msg.sender == owner */\n      0xffffffffffffffffffffffffffffffffffffffff\n      and\n        /* \"H/hidden cap.sol\":529:539  msg.sender */\n      caller\n        /* \"H/hidden cap.sol\":529:548  msg.sender == owner */\n      0xffffffffffffffffffffffffffffffffffffffff\n      and\n      eq\n        /* \"H/hidden cap.sol\":521:562  require(msg.sender == owner, \"Not owner\") */\n      tag_95\n      jumpi\n      mload(0x40)\n      0x08c379a000000000000000000000000000000000000000000000000000000000\n      dup2\n      mstore\n      0x04\n      add\n      tag_96\n      swap1\n      tag_77\n      jump\t// in\n    tag_96:\n      mload(0x40)\n      dup1\n      swap2\n      sub\n      swap1\n      revert\n    tag_95:\n        /* \"H/hidden cap.sol\":1519:1523  true */\n      0x01\n        /* \"H/hidden cap.sol\":1510:1516  paused */\n      0x03\n      0x01\n        /* \"H/hidden cap.sol\":1510:1523  paused = true */\n      0x0100\n      exp\n      dup2\n      sload\n      dup2\n      0xff\n      mul\n      not\n      and\n      swap1\n      dup4\n      iszero\n      iszero\n      mul\n      or\n      swap1\n      sstore\n      pop\n        /* \"H/hidden cap.sol\":1538:1546  Paused() */\n      0x9e87fac88ff661f02d44f95383c817fece4bce600a3dab7a54406878b965e752\n      mload(0x40)\n      mload(0x40)\n      dup1\n      swap2\n      sub\n      swap1\n      log1\n        /* \"H/hidden cap.sol\":1460:1553  function pauseSale() external onlyOwner {... */\n      jump\t// out\n        /* \"H/hidden cap.sol\":235:253  bool public paused */\n    tag_53:\n      0x03\n      0x01\n      swap1\n      sload\n      swap1\n      0x0100\n      exp\n      swap1\n      div\n      0xff\n      and\n      dup2\n      jump\t// out\n        /* \"H/hidden cap.sol\":87:107  address public owner */\n    tag_58:\n      0x00\n      0x00\n      swap1\n      sload\n      swap1\n      0x0100\n      exp\n      swap1\n      div\n      0xffffffffffffffffffffffffffffffffffffffff\n      and\n      dup2\n      jump\t// out\n        /* \"H/hidden cap.sol\":113:141  bytes32 public committedHash */\n    tag_63:\n      sload(0x01)\n      dup2\n      jump\t// out\n        /* \"H/hidden cap.sol\":260:286  uint256 public totalRaised */\n    tag_68:\n      sload(0x04)\n      dup2\n      jump\t// out\n        /* \"H/hidden cap.sol\":206:229  bool public capRevealed */\n    tag_72:\n      0x03\n      0x00\n      swap1\n      sload\n      swap1\n      0x0100\n      exp\n      swap1\n      div\n      0xff\n      and\n      dup2\n      jump\t// out\n        /* \"#utility.yul\":7:176   */\n    tag_98:\n        /* \"#utility.yul\":91:102   */\n      0x00\n        /* \"#utility.yul\":125:131   */\n      dup3\n        /* \"#utility.yul\":120:123   */\n      dup3\n        /* \"#utility.yul\":113:132   */\n      mstore\n        /* \"#utility.yul\":165:169   */\n      0x20\n        /* \"#utility.yul\":160:163   */\n      dup3\n        /* \"#utility.yul\":156:170   */\n      add\n        /* \"#utility.yul\":141:170   */\n      swap1\n      pop\n        /* \"#utility.yul\":7:176   */\n      swap3\n      swap2\n      pop\n      pop\n      jump\t// out\n        /* \"#utility.yul\":182:343   */\n    tag_99:\n        /* \"#utility.yul\":322:335   */\n      0x53616c6520706175736564000000000000000000000000000000000000000000\n        /* \"#utility.yul\":318:319   */\n      0x00\n        /* \"#utility.yul\":310:316   */\n      dup3\n        /* \"#utility.yul\":306:320   */\n      add\n        /* \"#utility.yul\":299:336   */\n      mstore\n        /* \"#utility.yul\":182:343   */\n      pop\n      jump\t// out\n        /* \"#utility.yul\":349:715   */\n    tag_100:\n        /* \"#utility.yul\":491:494   */\n      0x00\n        /* \"#utility.yul\":512:579   */\n      tag_146\n        /* \"#utility.yul\":576:578   */\n      0x0b\n        /* \"#utility.yul\":571:574   */\n      dup4\n        /* \"#utility.yul\":512:579   */\n      tag_98\n      jump\t// in\n    tag_146:\n        /* \"#utility.yul\":505:579   */\n      swap2\n      pop\n        /* \"#utility.yul\":588:681   */\n      tag_147\n        /* \"#utility.yul\":677:680   */\n      dup3\n        /* \"#utility.yul\":588:681   */\n      tag_99\n      jump\t// in\n    tag_147:\n        /* \"#utility.yul\":706:708   */\n      0x20\n        /* \"#utility.yul\":701:704   */\n      dup3\n        /* \"#utility.yul\":697:709   */\n      add\n        /* \"#utility.yul\":690:709   */\n      swap1\n      pop\n        /* \"#utility.yul\":349:715   */\n      swap2\n      swap1\n      pop\n      jump\t// out\n        /* \"#utility.yul\":721:1140   */\n    tag_18:\n        /* \"#utility.yul\":887:891   */\n      0x00\n        /* \"#utility.yul\":925:927   */\n      0x20\n        /* \"#utility.yul\":914:923   */\n      dup3\n        /* \"#utility.yul\":910:928   */\n      add\n        /* \"#utility.yul\":902:928   */\n      swap1\n      pop\n        /* \"#utility.yul\":974:983   */\n      dup2\n        /* \"#utility.yul\":968:972   */\n      dup2\n        /* \"#utility.yul\":964:984   */\n      sub\n        /* \"#utility.yul\":960:961   */\n      0x00\n        /* \"#utility.yul\":949:958   */\n      dup4\n        /* \"#utility.yul\":945:962   */\n      add\n        /* \"#utility.yul\":938:985   */\n      mstore\n        /* \"#utility.yul\":1002:1133   */\n      tag_149\n        /* \"#utility.yul\":1128:1132   */\n      dup2\n        /* \"#utility.yul\":1002:1133   */\n      tag_100\n      jump\t// in\n    tag_149:\n        /* \"#utility.yul\":994:1133   */\n      swap1\n      pop\n        /* \"#utility.yul\":721:1140   */\n      swap2\n      swap1\n      pop\n      jump\t// out\n        /* \"#utility.yul\":1146:1223   */\n    tag_101:\n        /* \"#utility.yul\":1183:1190   */\n      0x00\n        /* \"#utility.yul\":1212:1217   */\n      dup2\n        /* \"#utility.yul\":1201:1217   */\n      swap1\n      pop\n        /* \"#utility.yul\":1146:1223   */\n      swap2\n      swap1\n      pop\n      jump\t// out\n        /* \"#utility.yul\":1229:1409   */\n    tag_102:\n        /* \"#utility.yul\":1277:1354   */\n      0x4e487b7100000000000000000000000000000000000000000000000000000000\n        /* \"#utility.yul\":1274:1275   */\n      0x00\n        /* \"#utility.yul\":1267:1355   */\n      mstore\n        /* \"#utility.yul\":1374:1378   */\n      0x11\n        /* \"#utility.yul\":1371:1372   */\n      0x04\n        /* \"#utility.yul\":1364:1379   */\n      mstore\n        /* \"#utility.yul\":1398:1402   */\n      0x24\n        /* \"#utility.yul\":1395:1396   */\n      0x00\n        /* \"#utility.yul\":1388:1403   */\n      revert\n        /* \"#utility.yul\":1415:1606   */\n    tag_21:\n        /* \"#utility.yul\":1455:1458   */\n      0x00\n        /* \"#utility.yul\":1474:1494   */\n      tag_153\n        /* \"#utility.yul\":1492:1493   */\n      dup3\n        /* \"#utility.yul\":1474:1494   */\n      tag_101\n      jump\t// in\n    tag_153:\n        /* \"#utility.yul\":1469:1494   */\n      swap2\n      pop\n        /* \"#utility.yul\":1508:1528   */\n      tag_154\n        /* \"#utility.yul\":1526:1527   */\n      dup4\n        /* \"#utility.yul\":1508:1528   */\n      tag_101\n      jump\t// in\n    tag_154:\n        /* \"#utility.yul\":1503:1528   */\n      swap3\n      pop\n        /* \"#utility.yul\":1551:1552   */\n      dup3\n        /* \"#utility.yul\":1548:1549   */\n      dup3\n        /* \"#utility.yul\":1544:1553   */\n      add\n        /* \"#utility.yul\":1537:1553   */\n      swap1\n      pop\n        /* \"#utility.yul\":1572:1575   */\n      dup1\n        /* \"#utility.yul\":1569:1570   */\n      dup3\n        /* \"#utility.yul\":1566:1576   */\n      gt\n        /* \"#utility.yul\":1563:1599   */\n      iszero\n      tag_155\n      jumpi\n        /* \"#utility.yul\":1579:1597   */\n      tag_156\n      tag_102\n      jump\t// in\n    tag_156:\n        /* \"#utility.yul\":1563:1599   */\n    tag_155:\n        /* \"#utility.yul\":1415:1606   */\n      swap3\n      swap2\n      pop\n      pop\n      jump\t// out\n        /* \"#utility.yul\":1612:1773   */\n    tag_103:\n        /* \"#utility.yul\":1752:1765   */\n      0x4578636565647320636170000000000000000000000000000000000000000000\n        /* \"#utility.yul\":1748:1749   */\n      0x00\n        /* \"#utility.yul\":1740:1746   */\n      dup3\n        /* \"#utility.yul\":1736:1750   */\n      add\n        /* \"#utility.yul\":1729:1766   */\n      mstore\n        /* \"#utility.yul\":1612:1773   */\n      pop\n      jump\t// out\n        /* \"#utility.yul\":1779:2145   */\n    tag_104:\n        /* \"#utility.yul\":1921:1924   */\n      0x00\n        /* \"#utility.yul\":1942:2009   */\n      tag_159\n        /* \"#utility.yul\":2006:2008   */\n      0x0b\n        /* \"#utility.yul\":2001:2004   */\n      dup4\n        /* \"#utility.yul\":1942:2009   */\n      tag_98\n      jump\t// in\n    tag_159:\n        /* \"#utility.yul\":1935:2009   */\n      swap2\n      pop\n        /* \"#utility.yul\":2018:2111   */\n      tag_160\n        /* \"#utility.yul\":2107:2110   */\n      dup3\n        /* \"#utility.yul\":2018:2111   */\n      tag_103\n      jump\t// in\n    tag_160:\n        /* \"#utility.yul\":2136:2138   */\n      0x20\n        /* \"#utility.yul\":2131:2134   */\n      dup3\n        /* \"#utility.yul\":2127:2139   */\n      add\n        /* \"#utility.yul\":2120:2139   */\n      swap1\n      pop\n        /* \"#utility.yul\":1779:2145   */\n      swap2\n      swap1\n      pop\n      jump\t// out\n        /* \"#utility.yul\":2151:2570   */\n    tag_24:\n        /* \"#utility.yul\":2317:2321   */\n      0x00\n        /* \"#utility.yul\":2355:2357   */\n      0x20\n        /* \"#utility.yul\":2344:2353   */\n      dup3\n        /* \"#utility.yul\":2340:2358   */\n      add\n        /* \"#utility.yul\":2332:2358   */\n      swap1\n      pop\n        /* \"#utility.yul\":2404:2413   */\n      dup2\n        /* \"#utility.yul\":2398:2402   */\n      dup2\n        /* \"#utility.yul\":2394:2414   */\n      sub\n        /* \"#utility.yul\":2390:2391   */\n      0x00\n        /* \"#utility.yul\":2379:2388   */\n      dup4\n        /* \"#utility.yul\":2375:2392   */\n      add\n        /* \"#utility.yul\":2368:2415   */\n      mstore\n        /* \"#utility.yul\":2432:2563   */\n      tag_162\n        /* \"#utility.yul\":2558:2562   */\n      dup2\n        /* \"#utility.yul\":2432:2563   */\n      tag_104\n      jump\t// in\n    tag_162:\n        /* \"#utility.yul\":2424:2563   */\n      swap1\n      pop\n        /* \"#utility.yul\":2151:2570   */\n      swap2\n      swap1\n      pop\n      jump\t// out\n        /* \"#utility.yul\":2576:2702   */\n    tag_105:\n        /* \"#utility.yul\":2613:2620   */\n      0x00\n        /* \"#utility.yul\":2653:2695   */\n      0xffffffffffffffffffffffffffffffffffffffff\n        /* \"#utility.yul\":2646:2651   */\n      dup3\n        /* \"#utility.yul\":2642:2696   */\n      and\n        /* \"#utility.yul\":2631:2696   */\n      swap1\n      pop\n        /* \"#utility.yul\":2576:2702   */\n      swap2\n      swap1\n      pop\n      jump\t// out\n        /* \"#utility.yul\":2708:2804   */\n    tag_106:\n        /* \"#utility.yul\":2745:2752   */\n      0x00\n        /* \"#utility.yul\":2774:2798   */\n      tag_165\n        /* \"#utility.yul\":2792:2797   */\n      dup3\n        /* \"#utility.yul\":2774:2798   */\n      tag_105\n      jump\t// in\n    tag_165:\n        /* \"#utility.yul\":2763:2798   */\n      swap1\n      pop\n        /* \"#utility.yul\":2708:2804   */\n      swap2\n      swap1\n      pop\n      jump\t// out\n        /* \"#utility.yul\":2810:2928   */\n    tag_107:\n        /* \"#utility.yul\":2897:2921   */\n      tag_167\n        /* \"#utility.yul\":2915:2920   */\n      dup2\n        /* \"#utility.yul\":2897:2921   */\n      tag_106\n      jump\t// in\n    tag_167:\n        /* \"#utility.yul\":2892:2895   */\n      dup3\n        /* \"#utility.yul\":2885:2922   */\n      mstore\n        /* \"#utility.yul\":2810:2928   */\n      pop\n      pop\n      jump\t// out\n        /* \"#utility.yul\":2934:3052   */\n    tag_108:\n        /* \"#utility.yul\":3021:3045   */\n      tag_169\n        /* \"#utility.yul\":3039:3044   */\n      dup2\n        /* \"#utility.yul\":3021:3045   */\n      tag_101\n      jump\t// in\n    tag_169:\n        /* \"#utility.yul\":3016:3019   */\n      dup3\n        /* \"#utility.yul\":3009:3046   */\n      mstore\n        /* \"#utility.yul\":2934:3052   */\n      pop\n      pop\n      jump\t// out\n        /* \"#utility.yul\":3058:3390   */\n    tag_28:\n        /* \"#utility.yul\":3179:3183   */\n      0x00\n        /* \"#utility.yul\":3217:3219   */\n      0x40\n        /* \"#utility.yul\":3206:3215   */\n      dup3\n        /* \"#utility.yul\":3202:3220   */\n      add\n        /* \"#utility.yul\":3194:3220   */\n      swap1\n      pop\n        /* \"#utility.yul\":3230:3301   */\n      tag_171\n        /* \"#utility.yul\":3298:3299   */\n      0x00\n        /* \"#utility.yul\":3287:3296   */\n      dup4\n        /* \"#utility.yul\":3283:3300   */\n      add\n        /* \"#utility.yul\":3274:3280   */\n      dup6\n        /* \"#utility.yul\":3230:3301   */\n      tag_107\n      jump\t// in\n    tag_171:\n        /* \"#utility.yul\":3311:3383   */\n      tag_172\n        /* \"#utility.yul\":3379:3381   */\n      0x20\n        /* \"#utility.yul\":3368:3377   */\n      dup4\n        /* \"#utility.yul\":3364:3382   */\n      add\n        /* \"#utility.yul\":3355:3361   */\n      dup5\n        /* \"#utility.yul\":3311:3383   */\n      tag_108\n      jump\t// in\n    tag_172:\n        /* \"#utility.yul\":3058:3390   */\n      swap4\n      swap3\n      pop\n      pop\n      pop\n      jump\t// out\n        /* \"#utility.yul\":3396:3471   */\n    tag_109:\n        /* \"#utility.yul\":3429:3435   */\n      0x00\n        /* \"#utility.yul\":3462:3464   */\n      0x40\n        /* \"#utility.yul\":3456:3465   */\n      mload\n        /* \"#utility.yul\":3446:3465   */\n      swap1\n      pop\n        /* \"#utility.yul\":3396:3471   */\n      swap1\n      jump\t// out\n        /* \"#utility.yul\":3477:3594   */\n    tag_110:\n        /* \"#utility.yul\":3586:3587   */\n      0x00\n        /* \"#utility.yul\":3583:3584   */\n      0x00\n        /* \"#utility.yul\":3576:3588   */\n      revert\n        /* \"#utility.yul\":3600:3717   */\n    tag_111:\n        /* \"#utility.yul\":3709:3710   */\n      0x00\n        /* \"#utility.yul\":3706:3707   */\n      0x00\n        /* \"#utility.yul\":3699:3711   */\n      revert\n        /* \"#utility.yul\":3723:3840   */\n    tag_112:\n        /* \"#utility.yul\":3832:3833   */\n      0x00\n        /* \"#utility.yul\":3829:3830   */\n      0x00\n        /* \"#utility.yul\":3822:3834   */\n      revert\n        /* \"#utility.yul\":3846:3963   */\n    tag_113:\n        /* \"#utility.yul\":3955:3956   */\n      0x00\n        /* \"#utility.yul\":3952:3953   */\n      0x00\n        /* \"#utility.yul\":3945:3957   */\n      revert\n        /* \"#utility.yul\":3969:4071   */\n    tag_114:\n        /* \"#utility.yul\":4010:4016   */\n      0x00\n        /* \"#utility.yul\":4061:4063   */\n      0x1f\n        /* \"#utility.yul\":4057:4064   */\n      not\n        /* \"#utility.yul\":4052:4054   */\n      0x1f\n        /* \"#utility.yul\":4045:4050   */\n      dup4\n        /* \"#utility.yul\":4041:4055   */\n      add\n        /* \"#utility.yul\":4037:4065   */\n      and\n        /* \"#utility.yul\":4027:4065   */\n      swap1\n      pop\n        /* \"#utility.yul\":3969:4071   */\n      swap2\n      swap1\n      pop\n      jump\t// out\n        /* \"#utility.yul\":4077:4257   */\n    tag_115:\n        /* \"#utility.yul\":4125:4202   */\n      0x4e487b7100000000000000000000000000000000000000000000000000000000\n        /* \"#utility.yul\":4122:4123   */\n      0x00\n        /* \"#utility.yul\":4115:4203   */\n      mstore\n        /* \"#utility.yul\":4222:4226   */\n      0x41\n        /* \"#utility.yul\":4219:4220   */\n      0x04\n        /* \"#utility.yul\":4212:4227   */\n      mstore\n        /* \"#utility.yul\":4246:4250   */\n      0x24\n        /* \"#utility.yul\":4243:4244   */\n      0x00\n        /* \"#utility.yul\":4236:4251   */\n      revert\n        /* \"#utility.yul\":4263:4544   */\n    tag_116:\n        /* \"#utility.yul\":4346:4373   */\n      tag_181\n        /* \"#utility.yul\":4368:4372   */\n      dup3\n        /* \"#utility.yul\":4346:4373   */\n      tag_114\n      jump\t// in\n    tag_181:\n        /* \"#utility.yul\":4338:4344   */\n      dup2\n        /* \"#utility.yul\":4334:4374   */\n      add\n        /* \"#utility.yul\":4476:4482   */\n      dup2\n        /* \"#utility.yul\":4464:4474   */\n      dup2\n        /* \"#utility.yul\":4461:4483   */\n      lt\n        /* \"#utility.yul\":4440:4458   */\n      0xffffffffffffffff\n        /* \"#utility.yul\":4428:4438   */\n      dup3\n        /* \"#utility.yul\":4425:4459   */\n      gt\n        /* \"#utility.yul\":4422:4484   */\n      or\n        /* \"#utility.yul\":4419:4507   */\n      iszero\n      tag_182\n      jumpi\n        /* \"#utility.yul\":4487:4505   */\n      tag_183\n      tag_115\n      jump\t// in\n    tag_183:\n        /* \"#utility.yul\":4419:4507   */\n    tag_182:\n        /* \"#utility.yul\":4527:4537   */\n      dup1\n        /* \"#utility.yul\":4523:4525   */\n      0x40\n        /* \"#utility.yul\":4516:4538   */\n      mstore\n        /* \"#utility.yul\":4306:4544   */\n      pop\n        /* \"#utility.yul\":4263:4544   */\n      pop\n      pop\n      jump\t// out\n        /* \"#utility.yul\":4550:4679   */\n    tag_117:\n        /* \"#utility.yul\":4584:4590   */\n      0x00\n        /* \"#utility.yul\":4611:4631   */\n      tag_185\n      tag_109\n      jump\t// in\n    tag_185:\n        /* \"#utility.yul\":4601:4631   */\n      swap1\n      pop\n        /* \"#utility.yul\":4640:4673   */\n      tag_186\n        /* \"#utility.yul\":4668:4672   */\n      dup3\n        /* \"#utility.yul\":4660:4666   */\n      dup3\n        /* \"#utility.yul\":4640:4673   */\n      tag_116\n      jump\t// in\n    tag_186:\n        /* \"#utility.yul\":4550:4679   */\n      swap2\n      swap1\n      pop\n      jump\t// out\n        /* \"#utility.yul\":4685:4993   */\n    tag_118:\n        /* \"#utility.yul\":4747:4751   */\n      0x00\n        /* \"#utility.yul\":4837:4855   */\n      0xffffffffffffffff\n        /* \"#utility.yul\":4829:4835   */\n      dup3\n        /* \"#utility.yul\":4826:4856   */\n      gt\n        /* \"#utility.yul\":4823:4879   */\n      iszero\n      tag_188\n      jumpi\n        /* \"#utility.yul\":4859:4877   */\n      tag_189\n      tag_115\n      jump\t// in\n    tag_189:\n        /* \"#utility.yul\":4823:4879   */\n    tag_188:\n        /* \"#utility.yul\":4897:4926   */\n      tag_190\n        /* \"#utility.yul\":4919:4925   */\n      dup3\n        /* \"#utility.yul\":4897:4926   */\n      tag_114\n      jump\t// in\n    tag_190:\n        /* \"#utility.yul\":4889:4926   */\n      swap1\n      pop\n        /* \"#utility.yul\":4981:4985   */\n      0x20\n        /* \"#utility.yul\":4975:4979   */\n      dup2\n        /* \"#utility.yul\":4971:4986   */\n      add\n        /* \"#utility.yul\":4963:4986   */\n      swap1\n      pop\n        /* \"#utility.yul\":4685:4993   */\n      swap2\n      swap1\n      pop\n      jump\t// out\n        /* \"#utility.yul\":4999:5147   */\n    tag_119:\n        /* \"#utility.yul\":5097:5103   */\n      dup3\n        /* \"#utility.yul\":5092:5095   */\n      dup2\n        /* \"#utility.yul\":5087:5090   */\n      dup4\n        /* \"#utility.yul\":5074:5104   */\n      calldatacopy\n        /* \"#utility.yul\":5138:5139   */\n      0x00\n        /* \"#utility.yul\":5129:5135   */\n      dup4\n        /* \"#utility.yul\":5124:5127   */\n      dup4\n        /* \"#utility.yul\":5120:5136   */\n      add\n        /* \"#utility.yul\":5113:5140   */\n      mstore\n        /* \"#utility.yul\":4999:5147   */\n      pop\n      pop\n      pop\n      jump\t// out\n        /* \"#utility.yul\":5153:5578   */\n    tag_120:\n        /* \"#utility.yul\":5231:5236   */\n      0x00\n        /* \"#utility.yul\":5256:5322   */\n      tag_193\n        /* \"#utility.yul\":5272:5321   */\n      tag_194\n        /* \"#utility.yul\":5314:5320   */\n      dup5\n        /* \"#utility.yul\":5272:5321   */\n      tag_118\n      jump\t// in\n    tag_194:\n        /* \"#utility.yul\":5256:5322   */\n      tag_117\n      jump\t// in\n    tag_193:\n        /* \"#utility.yul\":5247:5322   */\n      swap1\n      pop\n        /* \"#utility.yul\":5345:5351   */\n      dup3\n        /* \"#utility.yul\":5338:5343   */\n      dup2\n        /* \"#utility.yul\":5331:5352   */\n      mstore\n        /* \"#utility.yul\":5383:5387   */\n      0x20\n        /* \"#utility.yul\":5376:5381   */\n      dup2\n        /* \"#utility.yul\":5372:5388   */\n      add\n        /* \"#utility.yul\":5421:5424   */\n      dup5\n        /* \"#utility.yul\":5412:5418   */\n      dup5\n        /* \"#utility.yul\":5407:5410   */\n      dup5\n        /* \"#utility.yul\":5403:5419   */\n      add\n        /* \"#utility.yul\":5400:5425   */\n      gt\n        /* \"#utility.yul\":5397:5509   */\n      iszero\n      tag_195\n      jumpi\n        /* \"#utility.yul\":5428:5507   */\n      tag_196\n      tag_113\n      jump\t// in\n    tag_196:\n        /* \"#utility.yul\":5397:5509   */\n    tag_195:\n        /* \"#utility.yul\":5518:5572   */\n      tag_197\n        /* \"#utility.yul\":5565:5571   */\n      dup5\n        /* \"#utility.yul\":5560:5563   */\n      dup3\n        /* \"#utility.yul\":5555:5558   */\n      dup6\n        /* \"#utility.yul\":5518:5572   */\n      tag_119\n      jump\t// in\n    tag_197:\n        /* \"#utility.yul\":5237:5578   */\n      pop\n        /* \"#utility.yul\":5153:5578   */\n      swap4\n      swap3\n      pop\n      pop\n      pop\n      jump\t// out\n        /* \"#utility.yul\":5598:5938   */\n    tag_121:\n        /* \"#utility.yul\":5654:5659   */\n      0x00\n        /* \"#utility.yul\":5703:5706   */\n      dup3\n        /* \"#utility.yul\":5696:5700   */\n      0x1f\n        /* \"#utility.yul\":5688:5694   */\n      dup4\n        /* \"#utility.yul\":5684:5701   */\n      add\n        /* \"#utility.yul\":5680:5707   */\n      slt\n        /* \"#utility.yul\":5670:5792   */\n      tag_199\n      jumpi\n        /* \"#utility.yul\":5711:5790   */\n      tag_200\n      tag_112\n      jump\t// in\n    tag_200:\n        /* \"#utility.yul\":5670:5792   */\n    tag_199:\n        /* \"#utility.yul\":5828:5834   */\n      dup2\n        /* \"#utility.yul\":5815:5835   */\n      calldataload\n        /* \"#utility.yul\":5853:5932   */\n      tag_201\n        /* \"#utility.yul\":5928:5931   */\n      dup5\n        /* \"#utility.yul\":5920:5926   */\n      dup3\n        /* \"#utility.yul\":5913:5917   */\n      0x20\n        /* \"#utility.yul\":5905:5911   */\n      dup7\n        /* \"#utility.yul\":5901:5918   */\n      add\n        /* \"#utility.yul\":5853:5932   */\n      tag_120\n      jump\t// in\n    tag_201:\n        /* \"#utility.yul\":5844:5932   */\n      swap2\n      pop\n        /* \"#utility.yul\":5660:5938   */\n      pop\n        /* \"#utility.yul\":5598:5938   */\n      swap3\n      swap2\n      pop\n      pop\n      jump\t// out\n        /* \"#utility.yul\":5944:6066   */\n    tag_122:\n        /* \"#utility.yul\":6017:6041   */\n      tag_203\n        /* \"#utility.yul\":6035:6040   */\n      dup2\n        /* \"#utility.yul\":6017:6041   */\n      tag_101\n      jump\t// in\n    tag_203:\n        /* \"#utility.yul\":6010:6015   */\n      dup2\n        /* \"#utility.yul\":6007:6042   */\n      eq\n        /* \"#utility.yul\":5997:6060   */\n      tag_204\n      jumpi\n        /* \"#utility.yul\":6056:6057   */\n      0x00\n        /* \"#utility.yul\":6053:6054   */\n      0x00\n        /* \"#utility.yul\":6046:6058   */\n      revert\n        /* \"#utility.yul\":5997:6060   */\n    tag_204:\n        /* \"#utility.yul\":5944:6066   */\n      pop\n      jump\t// out\n        /* \"#utility.yul\":6072:6211   */\n    tag_123:\n        /* \"#utility.yul\":6118:6123   */\n      0x00\n        /* \"#utility.yul\":6156:6162   */\n      dup2\n        /* \"#utility.yul\":6143:6163   */\n      calldataload\n        /* \"#utility.yul\":6134:6163   */\n      swap1\n      pop\n        /* \"#utility.yul\":6172:6205   */\n      tag_206\n        /* \"#utility.yul\":6199:6204   */\n      dup2\n        /* \"#utility.yul\":6172:6205   */\n      tag_122\n      jump\t// in\n    tag_206:\n        /* \"#utility.yul\":6072:6211   */\n      swap3\n      swap2\n      pop\n      pop\n      jump\t// out\n        /* \"#utility.yul\":6217:6871   */\n    tag_32:\n        /* \"#utility.yul\":6295:6301   */\n      0x00\n        /* \"#utility.yul\":6303:6309   */\n      0x00\n        /* \"#utility.yul\":6352:6354   */\n      0x40\n        /* \"#utility.yul\":6340:6349   */\n      dup4\n        /* \"#utility.yul\":6331:6338   */\n      dup6\n        /* \"#utility.yul\":6327:6350   */\n      sub\n        /* \"#utility.yul\":6323:6355   */\n      slt\n        /* \"#utility.yul\":6320:6439   */\n      iszero\n      tag_208\n      jumpi\n        /* \"#utility.yul\":6358:6437   */\n      tag_209\n      tag_110\n      jump\t// in\n    tag_209:\n        /* \"#utility.yul\":6320:6439   */\n    tag_208:\n        /* \"#utility.yul\":6506:6507   */\n      0x00\n        /* \"#utility.yul\":6495:6504   */\n      dup4\n        /* \"#utility.yul\":6491:6508   */\n      add\n        /* \"#utility.yul\":6478:6509   */\n      calldataload\n        /* \"#utility.yul\":6536:6554   */\n      0xffffffffffffffff\n        /* \"#utility.yul\":6528:6534   */\n      dup2\n        /* \"#utility.yul\":6525:6555   */\n      gt\n        /* \"#utility.yul\":6522:6639   */\n      iszero\n      tag_210\n      jumpi\n        /* \"#utility.yul\":6558:6637   */\n      tag_211\n      tag_111\n      jump\t// in\n    tag_211:\n        /* \"#utility.yul\":6522:6639   */\n    tag_210:\n        /* \"#utility.yul\":6663:6726   */\n      tag_212\n        /* \"#utility.yul\":6718:6725   */\n      dup6\n        /* \"#utility.yul\":6709:6715   */\n      dup3\n        /* \"#utility.yul\":6698:6707   */\n      dup7\n        /* \"#utility.yul\":6694:6716   */\n      add\n        /* \"#utility.yul\":6663:6726   */\n      tag_121\n      jump\t// in\n    tag_212:\n        /* \"#utility.yul\":6653:6726   */\n      swap3\n      pop\n        /* \"#utility.yul\":6449:6736   */\n      pop\n        /* \"#utility.yul\":6775:6777   */\n      0x20\n        /* \"#utility.yul\":6801:6854   */\n      tag_213\n        /* \"#utility.yul\":6846:6853   */\n      dup6\n        /* \"#utility.yul\":6837:6843   */\n      dup3\n        /* \"#utility.yul\":6826:6835   */\n      dup7\n        /* \"#utility.yul\":6822:6844   */\n      add\n        /* \"#utility.yul\":6801:6854   */\n      tag_123\n      jump\t// in\n    tag_213:\n        /* \"#utility.yul\":6791:6854   */\n      swap2\n      pop\n        /* \"#utility.yul\":6746:6864   */\n      pop\n        /* \"#utility.yul\":6217:6871   */\n      swap3\n      pop\n      swap3\n      swap1\n      pop\n      jump\t// out\n        /* \"#utility.yul\":6877:6999   */\n    tag_124:\n        /* \"#utility.yul\":6950:6974   */\n      tag_215\n        /* \"#utility.yul\":6968:6973   */\n      dup2\n        /* \"#utility.yul\":6950:6974   */\n      tag_106\n      jump\t// in\n    tag_215:\n        /* \"#utility.yul\":6943:6948   */\n      dup2\n        /* \"#utility.yul\":6940:6975   */\n      eq\n        /* \"#utility.yul\":6930:6993   */\n      tag_216\n      jumpi\n        /* \"#utility.yul\":6989:6990   */\n      0x00\n        /* \"#utility.yul\":6986:6987   */\n      0x00\n        /* \"#utility.yul\":6979:6991   */\n      revert\n        /* \"#utility.yul\":6930:6993   */\n    tag_216:\n        /* \"#utility.yul\":6877:6999   */\n      pop\n      jump\t// out\n        /* \"#utility.yul\":7005:7144   */\n    tag_125:\n        /* \"#utility.yul\":7051:7056   */\n      0x00\n        /* \"#utility.yul\":7089:7095   */\n      dup2\n        /* \"#utility.yul\":7076:7096   */\n      calldataload\n        /* \"#utility.yul\":7067:7096   */\n      swap1\n      pop\n        /* \"#utility.yul\":7105:7138   */\n      tag_218\n        /* \"#utility.yul\":7132:7137   */\n      dup2\n        /* \"#utility.yul\":7105:7138   */\n      tag_124\n      jump\t// in\n    tag_218:\n        /* \"#utility.yul\":7005:7144   */\n      swap3\n      swap2\n      pop\n      pop\n      jump\t// out\n        /* \"#utility.yul\":7150:7479   */\n    tag_40:\n        /* \"#utility.yul\":7209:7215   */\n      0x00\n        /* \"#utility.yul\":7258:7260   */\n      0x20\n        /* \"#utility.yul\":7246:7255   */\n      dup3\n        /* \"#utility.yul\":7237:7244   */\n      dup5\n        /* \"#utility.yul\":7233:7256   */\n      sub\n        /* \"#utility.yul\":7229:7261   */\n      slt\n        /* \"#utility.yul\":7226:7345   */\n      iszero\n      tag_220\n      jumpi\n        /* \"#utility.yul\":7264:7343   */\n      tag_221\n      tag_110\n      jump\t// in\n    tag_221:\n        /* \"#utility.yul\":7226:7345   */\n    tag_220:\n        /* \"#utility.yul\":7384:7385   */\n      0x00\n        /* \"#utility.yul\":7409:7462   */\n      tag_222\n        /* \"#utility.yul\":7454:7461   */\n      dup5\n        /* \"#utility.yul\":7445:7451   */\n      dup3\n        /* \"#utility.yul\":7434:7443   */\n      dup6\n        /* \"#utility.yul\":7430:7452   */\n      add\n        /* \"#utility.yul\":7409:7462   */\n      tag_125\n      jump\t// in\n    tag_222:\n        /* \"#utility.yul\":7399:7462   */\n      swap2\n      pop\n        /* \"#utility.yul\":7355:7472   */\n      pop\n        /* \"#utility.yul\":7150:7479   */\n      swap3\n      swap2\n      pop\n      pop\n      jump\t// out\n        /* \"#utility.yul\":7485:7707   */\n    tag_43:\n        /* \"#utility.yul\":7578:7582   */\n      0x00\n        /* \"#utility.yul\":7616:7618   */\n      0x20\n        /* \"#utility.yul\":7605:7614   */\n      dup3\n        /* \"#utility.yul\":7601:7619   */\n      add\n        /* \"#utility.yul\":7593:7619   */\n      swap1\n      pop\n        /* \"#utility.yul\":7629:7700   */\n      tag_224\n        /* \"#utility.yul\":7697:7698   */\n      0x00\n        /* \"#utility.yul\":7686:7695   */\n      dup4\n        /* \"#utility.yul\":7682:7699   */\n      add\n        /* \"#utility.yul\":7673:7679   */\n      dup5\n        /* \"#utility.yul\":7629:7700   */\n      tag_108\n      jump\t// in\n    tag_224:\n        /* \"#utility.yul\":7485:7707   */\n      swap3\n      swap2\n      pop\n      pop\n      jump\t// out\n        /* \"#utility.yul\":7713:7803   */\n    tag_126:\n        /* \"#utility.yul\":7747:7754   */\n      0x00\n        /* \"#utility.yul\":7790:7795   */\n      dup2\n        /* \"#utility.yul\":7783:7796   */\n      iszero\n        /* \"#utility.yul\":7776:7797   */\n      iszero\n        /* \"#utility.yul\":7765:7797   */\n      swap1\n      pop\n        /* \"#utility.yul\":7713:7803   */\n      swap2\n      swap1\n      pop\n      jump\t// out\n        /* \"#utility.yul\":7809:7918   */\n    tag_127:\n        /* \"#utility.yul\":7890:7911   */\n      tag_227\n        /* \"#utility.yul\":7905:7910   */\n      dup2\n        /* \"#utility.yul\":7890:7911   */\n      tag_126\n      jump\t// in\n    tag_227:\n        /* \"#utility.yul\":7885:7888   */\n      dup3\n        /* \"#utility.yul\":7878:7912   */\n      mstore\n        /* \"#utility.yul\":7809:7918   */\n      pop\n      pop\n      jump\t// out\n        /* \"#utility.yul\":7924:8134   */\n    tag_55:\n        /* \"#utility.yul\":8011:8015   */\n      0x00\n        /* \"#utility.yul\":8049:8051   */\n      0x20\n        /* \"#utility.yul\":8038:8047   */\n      dup3\n        /* \"#utility.yul\":8034:8052   */\n      add\n        /* \"#utility.yul\":8026:8052   */\n      swap1\n      pop\n        /* \"#utility.yul\":8062:8127   */\n      tag_229\n        /* \"#utility.yul\":8124:8125   */\n      0x00\n        /* \"#utility.yul\":8113:8122   */\n      dup4\n        /* \"#utility.yul\":8109:8126   */\n      add\n        /* \"#utility.yul\":8100:8106   */\n      dup5\n        /* \"#utility.yul\":8062:8127   */\n      tag_127\n      jump\t// in\n    tag_229:\n        /* \"#utility.yul\":7924:8134   */\n      swap3\n      swap2\n      pop\n      pop\n      jump\t// out\n        /* \"#utility.yul\":8140:8362   */\n    tag_60:\n        /* \"#utility.yul\":8233:8237   */\n      0x00\n        /* \"#utility.yul\":8271:8273   */\n      0x20\n        /* \"#utility.yul\":8260:8269   */\n      dup3\n        /* \"#utility.yul\":8256:8274   */\n      add\n        /* \"#utility.yul\":8248:8274   */\n      swap1\n      pop\n        /* \"#utility.yul\":8284:8355   */\n      tag_231\n        /* \"#utility.yul\":8352:8353   */\n      0x00\n        /* \"#utility.yul\":8341:8350   */\n      dup4\n        /* \"#utility.yul\":8337:8354   */\n      add\n        /* \"#utility.yul\":8328:8334   */\n      dup5\n        /* \"#utility.yul\":8284:8355   */\n      tag_107\n      jump\t// in\n    tag_231:\n        /* \"#utility.yul\":8140:8362   */\n      swap3\n      swap2\n      pop\n      pop\n      jump\t// out\n        /* \"#utility.yul\":8368:8445   */\n    tag_128:\n        /* \"#utility.yul\":8405:8412   */\n      0x00\n        /* \"#utility.yul\":8434:8439   */\n      dup2\n        /* \"#utility.yul\":8423:8439   */\n      swap1\n      pop\n        /* \"#utility.yul\":8368:8445   */\n      swap2\n      swap1\n      pop\n      jump\t// out\n        /* \"#utility.yul\":8451:8569   */\n    tag_129:\n        /* \"#utility.yul\":8538:8562   */\n      tag_234\n        /* \"#utility.yul\":8556:8561   */\n      dup2\n        /* \"#utility.yul\":8538:8562   */\n      tag_128\n      jump\t// in\n    tag_234:\n        /* \"#utility.yul\":8533:8536   */\n      dup3\n        /* \"#utility.yul\":8526:8563   */\n      mstore\n        /* \"#utility.yul\":8451:8569   */\n      pop\n      pop\n      jump\t// out\n        /* \"#utility.yul\":8575:8797   */\n    tag_65:\n        /* \"#utility.yul\":8668:8672   */\n      0x00\n        /* \"#utility.yul\":8706:8708   */\n      0x20\n        /* \"#utility.yul\":8695:8704   */\n      dup3\n        /* \"#utility.yul\":8691:8709   */\n      add\n        /* \"#utility.yul\":8683:8709   */\n      swap1\n      pop\n        /* \"#utility.yul\":8719:8790   */\n      tag_236\n        /* \"#utility.yul\":8787:8788   */\n      0x00\n        /* \"#utility.yul\":8776:8785   */\n      dup4\n        /* \"#utility.yul\":8772:8789   */\n      add\n        /* \"#utility.yul\":8763:8769   */\n      dup5\n        /* \"#utility.yul\":8719:8790   */\n      tag_129\n      jump\t// in\n    tag_236:\n        /* \"#utility.yul\":8575:8797   */\n      swap3\n      swap2\n      pop\n      pop\n      jump\t// out\n        /* \"#utility.yul\":8803:8962   */\n    tag_130:\n        /* \"#utility.yul\":8943:8954   */\n      0x4e6f74206f776e65720000000000000000000000000000000000000000000000\n        /* \"#utility.yul\":8939:8940   */\n      0x00\n        /* \"#utility.yul\":8931:8937   */\n      dup3\n        /* \"#utility.yul\":8927:8941   */\n      add\n        /* \"#utility.yul\":8920:8955   */\n      mstore\n        /* \"#utility.yul\":8803:8962   */\n      pop\n      jump\t// out\n        /* \"#utility.yul\":8968:9333   */\n    tag_131:\n        /* \"#utility.yul\":9110:9113   */\n      0x00\n        /* \"#utility.yul\":9131:9197   */\n      tag_239\n        /* \"#utility.yul\":9195:9196   */\n      0x09\n        /* \"#utility.yul\":9190:9193   */\n      dup4\n        /* \"#utility.yul\":9131:9197   */\n      tag_98\n      jump\t// in\n    tag_239:\n        /* \"#utility.yul\":9124:9197   */\n      swap2\n      pop\n        /* \"#utility.yul\":9206:9299   */\n      tag_240\n        /* \"#utility.yul\":9295:9298   */\n      dup3\n        /* \"#utility.yul\":9206:9299   */\n      tag_130\n      jump\t// in\n    tag_240:\n        /* \"#utility.yul\":9324:9326   */\n      0x20\n        /* \"#utility.yul\":9319:9322   */\n      dup3\n        /* \"#utility.yul\":9315:9327   */\n      add\n        /* \"#utility.yul\":9308:9327   */\n      swap1\n      pop\n        /* \"#utility.yul\":8968:9333   */\n      swap2\n      swap1\n      pop\n      jump\t// out\n        /* \"#utility.yul\":9339:9758   */\n    tag_77:\n        /* \"#utility.yul\":9505:9509   */\n      0x00\n        /* \"#utility.yul\":9543:9545   */\n      0x20\n        /* \"#utility.yul\":9532:9541   */\n      dup3\n        /* \"#utility.yul\":9528:9546   */\n      add\n        /* \"#utility.yul\":9520:9546   */\n      swap1\n      pop\n        /* \"#utility.yul\":9592:9601   */\n      dup2\n        /* \"#utility.yul\":9586:9590   */\n      dup2\n        /* \"#utility.yul\":9582:9602   */\n      sub\n        /* \"#utility.yul\":9578:9579   */\n      0x00\n        /* \"#utility.yul\":9567:9576   */\n      dup4\n        /* \"#utility.yul\":9563:9580   */\n      add\n        /* \"#utility.yul\":9556:9603   */\n      mstore\n        /* \"#utility.yul\":9620:9751   */\n      tag_242\n        /* \"#utility.yul\":9746:9750   */\n      dup2\n        /* \"#utility.yul\":9620:9751   */\n      tag_131\n      jump\t// in\n    tag_242:\n        /* \"#utility.yul\":9612:9751   */\n      swap1\n      pop\n        /* \"#utility.yul\":9339:9758   */\n      swap2\n      swap1\n      pop\n      jump\t// out\n        /* \"#utility.yul\":9764:9930   */\n    tag_132:\n        /* \"#utility.yul\":9904:9922   */\n      0x416c72656164792072657665616c656400000000000000000000000000000000\n        /* \"#utility.yul\":9900:9901   */\n      0x00\n        /* \"#utility.yul\":9892:9898   */\n      dup3\n        /* \"#utility.yul\":9888:9902   */\n      add\n        /* \"#utility.yul\":9881:9923   */\n      mstore\n        /* \"#utility.yul\":9764:9930   */\n      pop\n      jump\t// out\n        /* \"#utility.yul\":9936:10302   */\n    tag_133:\n        /* \"#utility.yul\":10078:10081   */\n      0x00\n        /* \"#utility.yul\":10099:10166   */\n      tag_245\n        /* \"#utility.yul\":10163:10165   */\n      0x10\n        /* \"#utility.yul\":10158:10161   */\n      dup4\n        /* \"#utility.yul\":10099:10166   */\n      tag_98\n      jump\t// in\n    tag_245:\n        /* \"#utility.yul\":10092:10166   */\n      swap2\n      pop\n        /* \"#utility.yul\":10175:10268   */\n      tag_246\n        /* \"#utility.yul\":10264:10267   */\n      dup3\n        /* \"#utility.yul\":10175:10268   */\n      tag_132\n      jump\t// in\n    tag_246:\n        /* \"#utility.yul\":10293:10295   */\n      0x20\n        /* \"#utility.yul\":10288:10291   */\n      dup3\n        /* \"#utility.yul\":10284:10296   */\n      add\n        /* \"#utility.yul\":10277:10296   */\n      swap1\n      pop\n        /* \"#utility.yul\":9936:10302   */\n      swap2\n      swap1\n      pop\n      jump\t// out\n        /* \"#utility.yul\":10308:10727   */\n    tag_81:\n        /* \"#utility.yul\":10474:10478   */\n      0x00\n        /* \"#utility.yul\":10512:10514   */\n      0x20\n        /* \"#utility.yul\":10501:10510   */\n      dup3\n        /* \"#utility.yul\":10497:10515   */\n      add\n        /* \"#utility.yul\":10489:10515   */\n      swap1\n      pop\n        /* \"#utility.yul\":10561:10570   */\n      dup2\n        /* \"#utility.yul\":10555:10559   */\n      dup2\n        /* \"#utility.yul\":10551:10571   */\n      sub\n        /* \"#utility.yul\":10547:10548   */\n      0x00\n        /* \"#utility.yul\":10536:10545   */\n      dup4\n        /* \"#utility.yul\":10532:10549   */\n      add\n        /* \"#utility.yul\":10525:10572   */\n      mstore\n        /* \"#utility.yul\":10589:10720   */\n      tag_248\n        /* \"#utility.yul\":10715:10719   */\n      dup2\n        /* \"#utility.yul\":10589:10720   */\n      tag_133\n      jump\t// in\n    tag_248:\n        /* \"#utility.yul\":10581:10720   */\n      swap1\n      pop\n        /* \"#utility.yul\":10308:10727   */\n      swap2\n      swap1\n      pop\n      jump\t// out\n        /* \"#utility.yul\":10733:10832   */\n    tag_134:\n        /* \"#utility.yul\":10785:10791   */\n      0x00\n        /* \"#utility.yul\":10819:10824   */\n      dup2\n        /* \"#utility.yul\":10813:10825   */\n      mload\n        /* \"#utility.yul\":10803:10825   */\n      swap1\n      pop\n        /* \"#utility.yul\":10733:10832   */\n      swap2\n      swap1\n      pop\n      jump\t// out\n        /* \"#utility.yul\":10838:10986   */\n    tag_135:\n        /* \"#utility.yul\":10940:10951   */\n      0x00\n        /* \"#utility.yul\":10977:10980   */\n      dup2\n        /* \"#utility.yul\":10962:10980   */\n      swap1\n      pop\n        /* \"#utility.yul\":10838:10986   */\n      swap3\n      swap2\n      pop\n      pop\n      jump\t// out\n        /* \"#utility.yul\":10992:11131   */\n    tag_136:\n        /* \"#utility.yul\":11081:11087   */\n      dup3\n        /* \"#utility.yul\":11076:11079   */\n      dup2\n        /* \"#utility.yul\":11071:11074   */\n      dup4\n        /* \"#utility.yul\":11065:11088   */\n      mcopy\n        /* \"#utility.yul\":11122:11123   */\n      0x00\n        /* \"#utility.yul\":11113:11119   */\n      dup4\n        /* \"#utility.yul\":11108:11111   */\n      dup4\n        /* \"#utility.yul\":11104:11120   */\n      add\n        /* \"#utility.yul\":11097:11124   */\n      mstore\n        /* \"#utility.yul\":10992:11131   */\n      pop\n      pop\n      pop\n      jump\t// out\n        /* \"#utility.yul\":11137:11527   */\n    tag_137:\n        /* \"#utility.yul\":11243:11246   */\n      0x00\n        /* \"#utility.yul\":11271:11310   */\n      tag_253\n        /* \"#utility.yul\":11304:11309   */\n      dup3\n        /* \"#utility.yul\":11271:11310   */\n      tag_134\n      jump\t// in\n    tag_253:\n        /* \"#utility.yul\":11326:11415   */\n      tag_254\n        /* \"#utility.yul\":11408:11414   */\n      dup2\n        /* \"#utility.yul\":11403:11406   */\n      dup6\n        /* \"#utility.yul\":11326:11415   */\n      tag_135\n      jump\t// in\n    tag_254:\n        /* \"#utility.yul\":11319:11415   */\n      swap4\n      pop\n        /* \"#utility.yul\":11424:11489   */\n      tag_255\n        /* \"#utility.yul\":11482:11488   */\n      dup2\n        /* \"#utility.yul\":11477:11480   */\n      dup6\n        /* \"#utility.yul\":11470:11474   */\n      0x20\n        /* \"#utility.yul\":11463:11468   */\n      dup7\n        /* \"#utility.yul\":11459:11475   */\n      add\n        /* \"#utility.yul\":11424:11489   */\n      tag_136\n      jump\t// in\n    tag_255:\n        /* \"#utility.yul\":11514:11520   */\n      dup1\n        /* \"#utility.yul\":11509:11512   */\n      dup5\n        /* \"#utility.yul\":11505:11521   */\n      add\n        /* \"#utility.yul\":11498:11521   */\n      swap2\n      pop\n        /* \"#utility.yul\":11247:11527   */\n      pop\n        /* \"#utility.yul\":11137:11527   */\n      swap3\n      swap2\n      pop\n      pop\n      jump\t// out\n        /* \"#utility.yul\":11533:11612   */\n    tag_138:\n        /* \"#utility.yul\":11572:11579   */\n      0x00\n        /* \"#utility.yul\":11601:11606   */\n      dup2\n        /* \"#utility.yul\":11590:11606   */\n      swap1\n      pop\n        /* \"#utility.yul\":11533:11612   */\n      swap2\n      swap1\n      pop\n      jump\t// out\n        /* \"#utility.yul\":11618:11775   */\n    tag_139:\n        /* \"#utility.yul\":11723:11768   */\n      tag_258\n        /* \"#utility.yul\":11743:11767   */\n      tag_259\n        /* \"#utility.yul\":11761:11766   */\n      dup3\n        /* \"#utility.yul\":11743:11767   */\n      tag_101\n      jump\t// in\n    tag_259:\n        /* \"#utility.yul\":11723:11768   */\n      tag_138\n      jump\t// in\n    tag_258:\n        /* \"#utility.yul\":11718:11721   */\n      dup3\n        /* \"#utility.yul\":11711:11769   */\n      mstore\n        /* \"#utility.yul\":11618:11775   */\n      pop\n      pop\n      jump\t// out\n        /* \"#utility.yul\":11781:12197   */\n    tag_83:\n        /* \"#utility.yul\":11941:11944   */\n      0x00\n        /* \"#utility.yul\":11963:12058   */\n      tag_261\n        /* \"#utility.yul\":12054:12057   */\n      dup3\n        /* \"#utility.yul\":12045:12051   */\n      dup6\n        /* \"#utility.yul\":11963:12058   */\n      tag_137\n      jump\t// in\n    tag_261:\n        /* \"#utility.yul\":11956:12058   */\n      swap2\n      pop\n        /* \"#utility.yul\":12068:12143   */\n      tag_262\n        /* \"#utility.yul\":12139:12142   */\n      dup3\n        /* \"#utility.yul\":12130:12136   */\n      dup5\n        /* \"#utility.yul\":12068:12143   */\n      tag_139\n      jump\t// in\n    tag_262:\n        /* \"#utility.yul\":12168:12170   */\n      0x20\n        /* \"#utility.yul\":12163:12166   */\n      dup3\n        /* \"#utility.yul\":12159:12171   */\n      add\n        /* \"#utility.yul\":12152:12171   */\n      swap2\n      pop\n        /* \"#utility.yul\":12188:12191   */\n      dup2\n        /* \"#utility.yul\":12181:12191   */\n      swap1\n      pop\n        /* \"#utility.yul\":11781:12197   */\n      swap4\n      swap3\n      pop\n      pop\n      pop\n      jump\t// out\n        /* \"#utility.yul\":12203:12367   */\n    tag_140:\n        /* \"#utility.yul\":12343:12359   */\n      0x496e76616c69642072657665616c000000000000000000000000000000000000\n        /* \"#utility.yul\":12339:12340   */\n      0x00\n        /* \"#utility.yul\":12331:12337   */\n      dup3\n        /* \"#utility.yul\":12327:12341   */\n      add\n        /* \"#utility.yul\":12320:12360   */\n      mstore\n        /* \"#utility.yul\":12203:12367   */\n      pop\n      jump\t// out\n        /* \"#utility.yul\":12373:12739   */\n    tag_141:\n        /* \"#utility.yul\":12515:12518   */\n      0x00\n        /* \"#utility.yul\":12536:12603   */\n      tag_265\n        /* \"#utility.yul\":12600:12602   */\n      0x0e\n        /* \"#utility.yul\":12595:12598   */\n      dup4\n        /* \"#utility.yul\":12536:12603   */\n      tag_98\n      jump\t// in\n    tag_265:\n        /* \"#utility.yul\":12529:12603   */\n      swap2\n      pop\n        /* \"#utility.yul\":12612:12705   */\n      tag_266\n        /* \"#utility.yul\":12701:12704   */\n      dup3\n        /* \"#utility.yul\":12612:12705   */\n      tag_140\n      jump\t// in\n    tag_266:\n        /* \"#utility.yul\":12730:12732   */\n      0x20\n        /* \"#utility.yul\":12725:12728   */\n      dup3\n        /* \"#utility.yul\":12721:12733   */\n      add\n        /* \"#utility.yul\":12714:12733   */\n      swap1\n      pop\n        /* \"#utility.yul\":12373:12739   */\n      swap2\n      swap1\n      pop\n      jump\t// out\n        /* \"#utility.yul\":12745:13164   */\n    tag_86:\n        /* \"#utility.yul\":12911:12915   */\n      0x00\n        /* \"#utility.yul\":12949:12951   */\n      0x20\n        /* \"#utility.yul\":12938:12947   */\n      dup3\n        /* \"#utility.yul\":12934:12952   */\n      add\n        /* \"#utility.yul\":12926:12952   */\n      swap1\n      pop\n        /* \"#utility.yul\":12998:13007   */\n      dup2\n        /* \"#utility.yul\":12992:12996   */\n      dup2\n        /* \"#utility.yul\":12988:13008   */\n      sub\n        /* \"#utility.yul\":12984:12985   */\n      0x00\n        /* \"#utility.yul\":12973:12982   */\n      dup4\n        /* \"#utility.yul\":12969:12986   */\n      add\n        /* \"#utility.yul\":12962:13009   */\n      mstore\n        /* \"#utility.yul\":13026:13157   */\n      tag_268\n        /* \"#utility.yul\":13152:13156   */\n      dup2\n        /* \"#utility.yul\":13026:13157   */\n      tag_141\n      jump\t// in\n    tag_268:\n        /* \"#utility.yul\":13018:13157   */\n      swap1\n      pop\n        /* \"#utility.yul\":12745:13164   */\n      swap2\n      swap1\n      pop\n      jump\t// out\n\n    auxdata: 0xa2646970667358221220cd81565bd45d52e7ca246183cd4a73c8d13e759439c548050041b9250db73fd364736f6c634300081d0033\n}\n",
				"bytecode": {
					"linkReferences": {},
					"object": "608060405234801561000f575f5ffd5b50604051610f34380380610f34833981810160405281019061003191906100eb565b335f5f6101000a81548173ffffffffffffffffffffffffffffffffffffffff021916908373ffffffffffffffffffffffffffffffffffffffff160217905550806001819055507f1d835fd041cc3bb34aa7ab8341f3008e52f9e9abe48577aab34a2ba101e5030f816040516100a69190610125565b60405180910390a15061013e565b5f5ffd5b5f819050919050565b6100ca816100b8565b81146100d4575f5ffd5b50565b5f815190506100e5816100c1565b92915050565b5f60208284031215610100576100ff6100b4565b5b5f61010d848285016100d7565b91505092915050565b61011f816100b8565b82525050565b5f6020820190506101385f830184610116565b92915050565b610de98061014b5f395ff3fe608060405260043610610094575f3560e01c80635c975abb116100585780635c975abb146102b65780638da5cb5b146102e05780639d36b4311461030a578063c5c4744c14610334578063cba53f5a1461035e576101f8565b806316d8b447146101fc5780633ccfd60b1461022457806342e94c901461023a5780634aedb06f1461027657806355367ba9146102a0576101f8565b366101f857600360019054906101000a900460ff16156100e9576040517f08c379a00000000000000000000000000000000000000000000000000000000081526004016100e0906107c2565b60405180910390fd5b60035f9054906101000a900460ff1615806101135750600254346004546101109190610816565b11155b610152576040517f08c379a000000000000000000000000000000000000000000000000000000000815260040161014990610893565b60405180910390fd5b3460055f3373ffffffffffffffffffffffffffffffffffffffff1673ffffffffffffffffffffffffffffffffffffffff1681526020019081526020015f205f82825461019e9190610816565b925050819055503460045f8282546101b69190610816565b925050819055507f4d154d4aae216bed6d0926db77c00df2b57c6b5ba4eee05775de20facede3a7b33346040516101ee9291906108ff565b60405180910390a1005b5f5ffd5b348015610207575f5ffd5b50610222600480360381019061021d9190610a9d565b610388565b005b34801561022f575f5ffd5b5061023861052d565b005b348015610245575f5ffd5b50610260600480360381019061025b9190610b21565b610621565b60405161026d9190610b4c565b60405180910390f35b348015610281575f5ffd5b5061028a610636565b6040516102979190610b4c565b60405180910390f35b3480156102ab575f5ffd5b506102b461063c565b005b3480156102c1575f5ffd5b506102ca610713565b6040516102d79190610b7f565b60405180910390f35b3480156102eb575f5ffd5b506102f4610726565b6040516103019190610b98565b60405180910390f35b348015610315575f5ffd5b5061031e61074a565b60405161032b9190610bc9565b60405180910390f35b34801561033f575f5ffd5b50610348610750565b6040516103559190610b4c565b60405180910390f35b348015610369575f5ffd5b50610372610756565b60405161037f9190610b7f565b60405180910390f35b5f5f9054906101000a900473ffffffffffffffffffffffffffffffffffffffff1673ffffffffffffffffffffffffffffffffffffffff163373ffffffffffffffffffffffffffffffffffffffff1614610416576040517f08c379a000000000000000000000000000000000000000000000000000000000815260040161040d90610c2c565b60405180910390fd5b60035f9054906101000a900460ff1615610465576040517f08c379a000000000000000000000000000000000000000000000000000000000815260040161045c90610c94565b60405180910390fd5b600154828260405160200161047b929190610d24565b60405160208183030381529060405280519060200120146104d1576040517f08c379a00000000000000000000000000000000000000000000000000000000081526004016104c890610d95565b60405180910390fd5b80600281905550600160035f6101000a81548160ff0219169083151502179055507f15120e52505e619cbf6c2af910d5cf7f9ee1befa55801b078c33e93880b2d609816040516105219190610b4c565b60405180910390a15050565b5f5f9054906101000a900473ffffffffffffffffffffffffffffffffffffffff1673ffffffffffffffffffffffffffffffffffffffff163373ffffffffffffffffffffffffffffffffffffffff16146105bb576040517f08c379a00000000000000000000000000000000000000000000000000000000081526004016105b290610c2c565b60405180910390fd5b5f5f9054906101000a900473ffffffffffffffffffffffffffffffffffffffff1673ffffffffffffffffffffffffffffffffffffffff166108fc4790811502906040515f60405180830381858888f1935050505015801561061e573d5f5f3e3d5ffd5b50565b6005602052805f5260405f205f915090505481565b60025481565b5f5f9054906101000a900473ffffffffffffffffffffffffffffffffffffffff1673ffffffffffffffffffffffffffffffffffffffff163373ffffffffffffffffffffffffffffffffffffffff16146106ca576040517f08c379a00000000000000000000000000000000000000000000000000000000081526004016106c190610c2c565b60405180910390fd5b6001600360016101000a81548160ff0219169083151502179055507f9e87fac88ff661f02d44f95383c817fece4bce600a3dab7a54406878b965e75260405160405180910390a1565b600360019054906101000a900460ff1681565b5f5f9054906101000a900473ffffffffffffffffffffffffffffffffffffffff1681565b60015481565b60045481565b60035f9054906101000a900460ff1681565b5f82825260208201905092915050565b7f53616c65207061757365640000000000000000000000000000000000000000005f82015250565b5f6107ac600b83610768565b91506107b782610778565b602082019050919050565b5f6020820190508181035f8301526107d9816107a0565b9050919050565b5f819050919050565b7f4e487b71000000000000000000000000000000000000000000000000000000005f52601160045260245ffd5b5f610820826107e0565b915061082b836107e0565b9250828201905080821115610843576108426107e9565b5b92915050565b7f45786365656473206361700000000000000000000000000000000000000000005f82015250565b5f61087d600b83610768565b915061088882610849565b602082019050919050565b5f6020820190508181035f8301526108aa81610871565b9050919050565b5f73ffffffffffffffffffffffffffffffffffffffff82169050919050565b5f6108da826108b1565b9050919050565b6108ea816108d0565b82525050565b6108f9816107e0565b82525050565b5f6040820190506109125f8301856108e1565b61091f60208301846108f0565b9392505050565b5f604051905090565b5f5ffd5b5f5ffd5b5f5ffd5b5f5ffd5b5f601f19601f8301169050919050565b7f4e487b71000000000000000000000000000000000000000000000000000000005f52604160045260245ffd5b6109858261093f565b810181811067ffffffffffffffff821117156109a4576109a361094f565b5b80604052505050565b5f6109b6610926565b90506109c2828261097c565b919050565b5f67ffffffffffffffff8211156109e1576109e061094f565b5b6109ea8261093f565b9050602081019050919050565b828183375f83830152505050565b5f610a17610a12846109c7565b6109ad565b905082815260208101848484011115610a3357610a3261093b565b5b610a3e8482856109f7565b509392505050565b5f82601f830112610a5a57610a59610937565b5b8135610a6a848260208601610a05565b91505092915050565b610a7c816107e0565b8114610a86575f5ffd5b50565b5f81359050610a9781610a73565b92915050565b5f5f60408385031215610ab357610ab261092f565b5b5f83013567ffffffffffffffff811115610ad057610acf610933565b5b610adc85828601610a46565b9250506020610aed85828601610a89565b9150509250929050565b610b00816108d0565b8114610b0a575f5ffd5b50565b5f81359050610b1b81610af7565b92915050565b5f60208284031215610b3657610b3561092f565b5b5f610b4384828501610b0d565b91505092915050565b5f602082019050610b5f5f8301846108f0565b92915050565b5f8115159050919050565b610b7981610b65565b82525050565b5f602082019050610b925f830184610b70565b92915050565b5f602082019050610bab5f8301846108e1565b92915050565b5f819050919050565b610bc381610bb1565b82525050565b5f602082019050610bdc5f830184610bba565b92915050565b7f4e6f74206f776e657200000000000000000000000000000000000000000000005f82015250565b5f610c16600983610768565b9150610c2182610be2565b602082019050919050565b5f6020820190508181035f830152610c4381610c0a565b9050919050565b7f416c72656164792072657665616c6564000000000000000000000000000000005f82015250565b5f610c7e601083610768565b9150610c8982610c4a565b602082019050919050565b5f6020820190508181035f830152610cab81610c72565b9050919050565b5f81519050919050565b5f81905092915050565b8281835e5f83830152505050565b5f610cde82610cb2565b610ce88185610cbc565b9350610cf8818560208601610cc6565b80840191505092915050565b5f819050919050565b610d1e610d19826107e0565b610d04565b82525050565b5f610d2f8285610cd4565b9150610d3b8284610d0d565b6020820191508190509392505050565b7f496e76616c69642072657665616c0000000000000000000000000000000000005f82015250565b5f610d7f600e83610768565b9150610d8a82610d4b565b602082019050919050565b5f6020820190508181035f830152610dac81610d73565b905091905056fea2646970667358221220cd81565bd45d52e7ca246183cd4a73c8d13e759439c548050041b9250db73fd364736f6c634300081d0033",
					"opcodes": "PUSH1 0x80 PUSH1 0x40 MSTORE CALLVALUE DUP1 ISZERO PUSH2 0xF JUMPI PUSH0 PUSH0 REVERT JUMPDEST POP PUSH1 0x40 MLOAD PUSH2 0xF34 CODESIZE SUB DUP1 PUSH2 0xF34 DUP4 CODECOPY DUP2 DUP2 ADD PUSH1 0x40 MSTORE DUP2 ADD SWAP1 PUSH2 0x31 SWAP2 SWAP1 PUSH2 0xEB JUMP JUMPDEST CALLER PUSH0 PUSH0 PUSH2 0x100 EXP DUP2 SLOAD DUP2 PUSH20 0xFFFFFFFFFFFFFFFFFFFFFFFFFFFFFFFFFFFFFFFF MUL NOT AND SWAP1 DUP4 PUSH20 0xFFFFFFFFFFFFFFFFFFFFFFFFFFFFFFFFFFFFFFFF AND MUL OR SWAP1 SSTORE POP DUP1 PUSH1 0x1 DUP2 SWAP1 SSTORE POP PUSH32 0x1D835FD041CC3BB34AA7AB8341F3008E52F9E9ABE48577AAB34A2BA101E5030F DUP2 PUSH1 0x40 MLOAD PUSH2 0xA6 SWAP2 SWAP1 PUSH2 0x125 JUMP JUMPDEST PUSH1 0x40 MLOAD DUP1 SWAP2 SUB SWAP1 LOG1 POP PUSH2 0x13E JUMP JUMPDEST PUSH0 PUSH0 REVERT JUMPDEST PUSH0 DUP2 SWAP1 POP SWAP2 SWAP1 POP JUMP JUMPDEST PUSH2 0xCA DUP2 PUSH2 0xB8 JUMP JUMPDEST DUP2 EQ PUSH2 0xD4 JUMPI PUSH0 PUSH0 REVERT JUMPDEST POP JUMP JUMPDEST PUSH0 DUP2 MLOAD SWAP1 POP PUSH2 0xE5 DUP2 PUSH2 0xC1 JUMP JUMPDEST SWAP3 SWAP2 POP POP JUMP JUMPDEST PUSH0 PUSH1 0x20 DUP3 DUP5 SUB SLT ISZERO PUSH2 0x100 JUMPI PUSH2 0xFF PUSH2 0xB4 JUMP JUMPDEST JUMPDEST PUSH0 PUSH2 0x10D DUP5 DUP3 DUP6 ADD PUSH2 0xD7 JUMP JUMPDEST SWAP2 POP POP SWAP3 SWAP2 POP POP JUMP JUMPDEST PUSH2 0x11F DUP2 PUSH2 0xB8 JUMP JUMPDEST DUP3 MSTORE POP POP JUMP JUMPDEST PUSH0 PUSH1 0x20 DUP3 ADD SWAP1 POP PUSH2 0x138 PUSH0 DUP4 ADD DUP5 PUSH2 0x116 JUMP JUMPDEST SWAP3 SWAP2 POP POP JUMP JUMPDEST PUSH2 0xDE9 DUP1 PUSH2 0x14B PUSH0 CODECOPY PUSH0 RETURN INVALID PUSH1 0x80 PUSH1 0x40 MSTORE PUSH1 0x4 CALLDATASIZE LT PUSH2 0x94 JUMPI PUSH0 CALLDATALOAD PUSH1 0xE0 SHR DUP1 PUSH4 0x5C975ABB GT PUSH2 0x58 JUMPI DUP1 PUSH4 0x5C975ABB EQ PUSH2 0x2B6 JUMPI DUP1 PUSH4 0x8DA5CB5B EQ PUSH2 0x2E0 JUMPI DUP1 PUSH4 0x9D36B431 EQ PUSH2 0x30A JUMPI DUP1 PUSH4 0xC5C4744C EQ PUSH2 0x334 JUMPI DUP1 PUSH4 0xCBA53F5A EQ PUSH2 0x35E JUMPI PUSH2 0x1F8 JUMP JUMPDEST DUP1 PUSH4 0x16D8B447 EQ PUSH2 0x1FC JUMPI DUP1 PUSH4 0x3CCFD60B EQ PUSH2 0x224 JUMPI DUP1 PUSH4 0x42E94C90 EQ PUSH2 0x23A JUMPI DUP1 PUSH4 0x4AEDB06F EQ PUSH2 0x276 JUMPI DUP1 PUSH4 0x55367BA9 EQ PUSH2 0x2A0 JUMPI PUSH2 0x1F8 JUMP JUMPDEST CALLDATASIZE PUSH2 0x1F8 JUMPI PUSH1 0x3 PUSH1 0x1 SWAP1 SLOAD SWAP1 PUSH2 0x100 EXP SWAP1 DIV PUSH1 0xFF AND ISZERO PUSH2 0xE9 JUMPI PUSH1 0x40 MLOAD PUSH32 0x8C379A000000000000000000000000000000000000000000000000000000000 DUP2 MSTORE PUSH1 0x4 ADD PUSH2 0xE0 SWAP1 PUSH2 0x7C2 JUMP JUMPDEST PUSH1 0x40 MLOAD DUP1 SWAP2 SUB SWAP1 REVERT JUMPDEST PUSH1 0x3 PUSH0 SWAP1 SLOAD SWAP1 PUSH2 0x100 EXP SWAP1 DIV PUSH1 0xFF AND ISZERO DUP1 PUSH2 0x113 JUMPI POP PUSH1 0x2 SLOAD CALLVALUE PUSH1 0x4 SLOAD PUSH2 0x110 SWAP2 SWAP1 PUSH2 0x816 JUMP JUMPDEST GT ISZERO JUMPDEST PUSH2 0x152 JUMPI PUSH1 0x40 MLOAD PUSH32 0x8C379A000000000000000000000000000000000000000000000000000000000 DUP2 MSTORE PUSH1 0x4 ADD PUSH2 0x149 SWAP1 PUSH2 0x893 JUMP JUMPDEST PUSH1 0x40 MLOAD DUP1 SWAP2 SUB SWAP1 REVERT JUMPDEST CALLVALUE PUSH1 0x5 PUSH0 CALLER PUSH20 0xFFFFFFFFFFFFFFFFFFFFFFFFFFFFFFFFFFFFFFFF AND PUSH20 0xFFFFFFFFFFFFFFFFFFFFFFFFFFFFFFFFFFFFFFFF AND DUP2 MSTORE PUSH1 0x20 ADD SWAP1 DUP2 MSTORE PUSH1 0x20 ADD PUSH0 KECCAK256 PUSH0 DUP3 DUP3 SLOAD PUSH2 0x19E SWAP2 SWAP1 PUSH2 0x816 JUMP JUMPDEST SWAP3 POP POP DUP2 SWAP1 SSTORE POP CALLVALUE PUSH1 0x4 PUSH0 DUP3 DUP3 SLOAD PUSH2 0x1B6 SWAP2 SWAP1 PUSH2 0x816 JUMP JUMPDEST SWAP3 POP POP DUP2 SWAP1 SSTORE POP PUSH32 0x4D154D4AAE216BED6D0926DB77C00DF2B57C6B5BA4EEE05775DE20FACEDE3A7B CALLER CALLVALUE PUSH1 0x40 MLOAD PUSH2 0x1EE SWAP3 SWAP2 SWAP1 PUSH2 0x8FF JUMP JUMPDEST PUSH1 0x40 MLOAD DUP1 SWAP2 SUB SWAP1 LOG1 STOP JUMPDEST PUSH0 PUSH0 REVERT JUMPDEST CALLVALUE DUP1 ISZERO PUSH2 0x207 JUMPI PUSH0 PUSH0 REVERT JUMPDEST POP PUSH2 0x222 PUSH1 0x4 DUP1 CALLDATASIZE SUB DUP2 ADD SWAP1 PUSH2 0x21D SWAP2 SWAP1 PUSH2 0xA9D JUMP JUMPDEST PUSH2 0x388 JUMP JUMPDEST STOP JUMPDEST CALLVALUE DUP1 ISZERO PUSH2 0x22F JUMPI PUSH0 PUSH0 REVERT JUMPDEST POP PUSH2 0x238 PUSH2 0x52D JUMP JUMPDEST STOP JUMPDEST CALLVALUE DUP1 ISZERO PUSH2 0x245 JUMPI PUSH0 PUSH0 REVERT JUMPDEST POP PUSH2 0x260 PUSH1 0x4 DUP1 CALLDATASIZE SUB DUP2 ADD SWAP1 PUSH2 0x25B SWAP2 SWAP1 PUSH2 0xB21 JUMP JUMPDEST PUSH2 0x621 JUMP JUMPDEST PUSH1 0x40 MLOAD PUSH2 0x26D SWAP2 SWAP1 PUSH2 0xB4C JUMP JUMPDEST PUSH1 0x40 MLOAD DUP1 SWAP2 SUB SWAP1 RETURN JUMPDEST CALLVALUE DUP1 ISZERO PUSH2 0x281 JUMPI PUSH0 PUSH0 REVERT JUMPDEST POP PUSH2 0x28A PUSH2 0x636 JUMP JUMPDEST PUSH1 0x40 MLOAD PUSH2 0x297 SWAP2 SWAP1 PUSH2 0xB4C JUMP JUMPDEST PUSH1 0x40 MLOAD DUP1 SWAP2 SUB SWAP1 RETURN JUMPDEST CALLVALUE DUP1 ISZERO PUSH2 0x2AB JUMPI PUSH0 PUSH0 REVERT JUMPDEST POP PUSH2 0x2B4 PUSH2 0x63C JUMP JUMPDEST STOP JUMPDEST CALLVALUE DUP1 ISZERO PUSH2 0x2C1 JUMPI PUSH0 PUSH0 REVERT JUMPDEST POP PUSH2 0x2CA PUSH2 0x713 JUMP JUMPDEST PUSH1 0x40 MLOAD PUSH2 0x2D7 SWAP2 SWAP1 PUSH2 0xB7F JUMP JUMPDEST PUSH1 0x40 MLOAD DUP1 SWAP2 SUB SWAP1 RETURN JUMPDEST CALLVALUE DUP1 ISZERO PUSH2 0x2EB JUMPI PUSH0 PUSH0 REVERT JUMPDEST POP PUSH2 0x2F4 PUSH2 0x726 JUMP JUMPDEST PUSH1 0x40 MLOAD PUSH2 0x301 SWAP2 SWAP1 PUSH2 0xB98 JUMP JUMPDEST PUSH1 0x40 MLOAD DUP1 SWAP2 SUB SWAP1 RETURN JUMPDEST CALLVALUE DUP1 ISZERO PUSH2 0x315 JUMPI PUSH0 PUSH0 REVERT JUMPDEST POP PUSH2 0x31E PUSH2 0x74A JUMP JUMPDEST PUSH1 0x40 MLOAD PUSH2 0x32B SWAP2 SWAP1 PUSH2 0xBC9 JUMP JUMPDEST PUSH1 0x40 MLOAD DUP1 SWAP2 SUB SWAP1 RETURN JUMPDEST CALLVALUE DUP1 ISZERO PUSH2 0x33F JUMPI PUSH0 PUSH0 REVERT JUMPDEST POP PUSH2 0x348 PUSH2 0x750 JUMP JUMPDEST PUSH1 0x40 MLOAD PUSH2 0x355 SWAP2 SWAP1 PUSH2 0xB4C JUMP JUMPDEST PUSH1 0x40 MLOAD DUP1 SWAP2 SUB SWAP1 RETURN JUMPDEST CALLVALUE DUP1 ISZERO PUSH2 0x369 JUMPI PUSH0 PUSH0 REVERT JUMPDEST POP PUSH2 0x372 PUSH2 0x756 JUMP JUMPDEST PUSH1 0x40 MLOAD PUSH2 0x37F SWAP2 SWAP1 PUSH2 0xB7F JUMP JUMPDEST PUSH1 0x40 MLOAD DUP1 SWAP2 SUB SWAP1 RETURN JUMPDEST PUSH0 PUSH0 SWAP1 SLOAD SWAP1 PUSH2 0x100 EXP SWAP1 DIV PUSH20 0xFFFFFFFFFFFFFFFFFFFFFFFFFFFFFFFFFFFFFFFF AND PUSH20 0xFFFFFFFFFFFFFFFFFFFFFFFFFFFFFFFFFFFFFFFF AND CALLER PUSH20 0xFFFFFFFFFFFFFFFFFFFFFFFFFFFFFFFFFFFFFFFF AND EQ PUSH2 0x416 JUMPI PUSH1 0x40 MLOAD PUSH32 0x8C379A000000000000000000000000000000000000000000000000000000000 DUP2 MSTORE PUSH1 0x4 ADD PUSH2 0x40D SWAP1 PUSH2 0xC2C JUMP JUMPDEST PUSH1 0x40 MLOAD DUP1 SWAP2 SUB SWAP1 REVERT JUMPDEST PUSH1 0x3 PUSH0 SWAP1 SLOAD SWAP1 PUSH2 0x100 EXP SWAP1 DIV PUSH1 0xFF AND ISZERO PUSH2 0x465 JUMPI PUSH1 0x40 MLOAD PUSH32 0x8C379A000000000000000000000000000000000000000000000000000000000 DUP2 MSTORE PUSH1 0x4 ADD PUSH2 0x45C SWAP1 PUSH2 0xC94 JUMP JUMPDEST PUSH1 0x40 MLOAD DUP1 SWAP2 SUB SWAP1 REVERT JUMPDEST PUSH1 0x1 SLOAD DUP3 DUP3 PUSH1 0x40 MLOAD PUSH1 0x20 ADD PUSH2 0x47B SWAP3 SWAP2 SWAP1 PUSH2 0xD24 JUMP JUMPDEST PUSH1 0x40 MLOAD PUSH1 0x20 DUP2 DUP4 SUB SUB DUP2 MSTORE SWAP1 PUSH1 0x40 MSTORE DUP1 MLOAD SWAP1 PUSH1 0x20 ADD KECCAK256 EQ PUSH2 0x4D1 JUMPI PUSH1 0x40 MLOAD PUSH32 0x8C379A000000000000000000000000000000000000000000000000000000000 DUP2 MSTORE PUSH1 0x4 ADD PUSH2 0x4C8 SWAP1 PUSH2 0xD95 JUMP JUMPDEST PUSH1 0x40 MLOAD DUP1 SWAP2 SUB SWAP1 REVERT JUMPDEST DUP1 PUSH1 0x2 DUP2 SWAP1 SSTORE POP PUSH1 0x1 PUSH1 0x3 PUSH0 PUSH2 0x100 EXP DUP2 SLOAD DUP2 PUSH1 0xFF MUL NOT AND SWAP1 DUP4 ISZERO ISZERO MUL OR SWAP1 SSTORE POP PUSH32 0x15120E52505E619CBF6C2AF910D5CF7F9EE1BEFA55801B078C33E93880B2D609 DUP2 PUSH1 0x40 MLOAD PUSH2 0x521 SWAP2 SWAP1 PUSH2 0xB4C JUMP JUMPDEST PUSH1 0x40 MLOAD DUP1 SWAP2 SUB SWAP1 LOG1 POP POP JUMP JUMPDEST PUSH0 PUSH0 SWAP1 SLOAD SWAP1 PUSH2 0x100 EXP SWAP1 DIV PUSH20 0xFFFFFFFFFFFFFFFFFFFFFFFFFFFFFFFFFFFFFFFF AND PUSH20 0xFFFFFFFFFFFFFFFFFFFFFFFFFFFFFFFFFFFFFFFF AND CALLER PUSH20 0xFFFFFFFFFFFFFFFFFFFFFFFFFFFFFFFFFFFFFFFF AND EQ PUSH2 0x5BB JUMPI PUSH1 0x40 MLOAD PUSH32 0x8C379A000000000000000000000000000000000000000000000000000000000 DUP2 MSTORE PUSH1 0x4 ADD PUSH2 0x5B2 SWAP1 PUSH2 0xC2C JUMP JUMPDEST PUSH1 0x40 MLOAD DUP1 SWAP2 SUB SWAP1 REVERT JUMPDEST PUSH0 PUSH0 SWAP1 SLOAD SWAP1 PUSH2 0x100 EXP SWAP1 DIV PUSH20 0xFFFFFFFFFFFFFFFFFFFFFFFFFFFFFFFFFFFFFFFF AND PUSH20 0xFFFFFFFFFFFFFFFFFFFFFFFFFFFFFFFFFFFFFFFF AND PUSH2 0x8FC SELFBALANCE SWAP1 DUP2 ISZERO MUL SWAP1 PUSH1 0x40 MLOAD PUSH0 PUSH1 0x40 MLOAD DUP1 DUP4 SUB DUP2 DUP6 DUP9 DUP9 CALL SWAP4 POP POP POP POP ISZERO DUP1 ISZERO PUSH2 0x61E JUMPI RETURNDATASIZE PUSH0 PUSH0 RETURNDATACOPY RETURNDATASIZE PUSH0 REVERT JUMPDEST POP JUMP JUMPDEST PUSH1 0x5 PUSH1 0x20 MSTORE DUP1 PUSH0 MSTORE PUSH1 0x40 PUSH0 KECCAK256 PUSH0 SWAP2 POP SWAP1 POP SLOAD DUP2 JUMP JUMPDEST PUSH1 0x2 SLOAD DUP2 JUMP JUMPDEST PUSH0 PUSH0 SWAP1 SLOAD SWAP1 PUSH2 0x100 EXP SWAP1 DIV PUSH20 0xFFFFFFFFFFFFFFFFFFFFFFFFFFFFFFFFFFFFFFFF AND PUSH20 0xFFFFFFFFFFFFFFFFFFFFFFFFFFFFFFFFFFFFFFFF AND CALLER PUSH20 0xFFFFFFFFFFFFFFFFFFFFFFFFFFFFFFFFFFFFFFFF AND EQ PUSH2 0x6CA JUMPI PUSH1 0x40 MLOAD PUSH32 0x8C379A000000000000000000000000000000000000000000000000000000000 DUP2 MSTORE PUSH1 0x4 ADD PUSH2 0x6C1 SWAP1 PUSH2 0xC2C JUMP JUMPDEST PUSH1 0x40 MLOAD DUP1 SWAP2 SUB SWAP1 REVERT JUMPDEST PUSH1 0x1 PUSH1 0x3 PUSH1 0x1 PUSH2 0x100 EXP DUP2 SLOAD DUP2 PUSH1 0xFF MUL NOT AND SWAP1 DUP4 ISZERO ISZERO MUL OR SWAP1 SSTORE POP PUSH32 0x9E87FAC88FF661F02D44F95383C817FECE4BCE600A3DAB7A54406878B965E752 PUSH1 0x40 MLOAD PUSH1 0x40 MLOAD DUP1 SWAP2 SUB SWAP1 LOG1 JUMP JUMPDEST PUSH1 0x3 PUSH1 0x1 SWAP1 SLOAD SWAP1 PUSH2 0x100 EXP SWAP1 DIV PUSH1 0xFF AND DUP2 JUMP JUMPDEST PUSH0 PUSH0 SWAP1 SLOAD SWAP1 PUSH2 0x100 EXP SWAP1 DIV PUSH20 0xFFFFFFFFFFFFFFFFFFFFFFFFFFFFFFFFFFFFFFFF AND DUP2 JUMP JUMPDEST PUSH1 0x1 SLOAD DUP2 JUMP JUMPDEST PUSH1 0x4 SLOAD DUP2 JUMP JUMPDEST PUSH1 0x3 PUSH0 SWAP1 SLOAD SWAP1 PUSH2 0x100 EXP SWAP1 DIV PUSH1 0xFF AND DUP2 JUMP JUMPDEST PUSH0 DUP3 DUP3 MSTORE PUSH1 0x20 DUP3 ADD SWAP1 POP SWAP3 SWAP2 POP POP JUMP JUMPDEST PUSH32 0x53616C6520706175736564000000000000000000000000000000000000000000 PUSH0 DUP3 ADD MSTORE POP JUMP JUMPDEST PUSH0 PUSH2 0x7AC PUSH1 0xB DUP4 PUSH2 0x768 JUMP JUMPDEST SWAP2 POP PUSH2 0x7B7 DUP3 PUSH2 0x778 JUMP JUMPDEST PUSH1 0x20 DUP3 ADD SWAP1 POP SWAP2 SWAP1 POP JUMP JUMPDEST PUSH0 PUSH1 0x20 DUP3 ADD SWAP1 POP DUP2 DUP2 SUB PUSH0 DUP4 ADD MSTORE PUSH2 0x7D9 DUP2 PUSH2 0x7A0 JUMP JUMPDEST SWAP1 POP SWAP2 SWAP1 POP JUMP JUMPDEST PUSH0 DUP2 SWAP1 POP SWAP2 SWAP1 POP JUMP JUMPDEST PUSH32 0x4E487B7100000000000000000000000000000000000000000000000000000000 PUSH0 MSTORE PUSH1 0x11 PUSH1 0x4 MSTORE PUSH1 0x24 PUSH0 REVERT JUMPDEST PUSH0 PUSH2 0x820 DUP3 PUSH2 0x7E0 JUMP JUMPDEST SWAP2 POP PUSH2 0x82B DUP4 PUSH2 0x7E0 JUMP JUMPDEST SWAP3 POP DUP3 DUP3 ADD SWAP1 POP DUP1 DUP3 GT ISZERO PUSH2 0x843 JUMPI PUSH2 0x842 PUSH2 0x7E9 JUMP JUMPDEST JUMPDEST SWAP3 SWAP2 POP POP JUMP JUMPDEST PUSH32 0x4578636565647320636170000000000000000000000000000000000000000000 PUSH0 DUP3 ADD MSTORE POP JUMP JUMPDEST PUSH0 PUSH2 0x87D PUSH1 0xB DUP4 PUSH2 0x768 JUMP JUMPDEST SWAP2 POP PUSH2 0x888 DUP3 PUSH2 0x849 JUMP JUMPDEST PUSH1 0x20 DUP3 ADD SWAP1 POP SWAP2 SWAP1 POP JUMP JUMPDEST PUSH0 PUSH1 0x20 DUP3 ADD SWAP1 POP DUP2 DUP2 SUB PUSH0 DUP4 ADD MSTORE PUSH2 0x8AA DUP2 PUSH2 0x871 JUMP JUMPDEST SWAP1 POP SWAP2 SWAP1 POP JUMP JUMPDEST PUSH0 PUSH20 0xFFFFFFFFFFFFFFFFFFFFFFFFFFFFFFFFFFFFFFFF DUP3 AND SWAP1 POP SWAP2 SWAP1 POP JUMP JUMPDEST PUSH0 PUSH2 0x8DA DUP3 PUSH2 0x8B1 JUMP JUMPDEST SWAP1 POP SWAP2 SWAP1 POP JUMP JUMPDEST PUSH2 0x8EA DUP2 PUSH2 0x8D0 JUMP JUMPDEST DUP3 MSTORE POP POP JUMP JUMPDEST PUSH2 0x8F9 DUP2 PUSH2 0x7E0 JUMP JUMPDEST DUP3 MSTORE POP POP JUMP JUMPDEST PUSH0 PUSH1 0x40 DUP3 ADD SWAP1 POP PUSH2 0x912 PUSH0 DUP4 ADD DUP6 PUSH2 0x8E1 JUMP JUMPDEST PUSH2 0x91F PUSH1 0x20 DUP4 ADD DUP5 PUSH2 0x8F0 JUMP JUMPDEST SWAP4 SWAP3 POP POP POP JUMP JUMPDEST PUSH0 PUSH1 0x40 MLOAD SWAP1 POP SWAP1 JUMP JUMPDEST PUSH0 PUSH0 REVERT JUMPDEST PUSH0 PUSH0 REVERT JUMPDEST PUSH0 PUSH0 REVERT JUMPDEST PUSH0 PUSH0 REVERT JUMPDEST PUSH0 PUSH1 0x1F NOT PUSH1 0x1F DUP4 ADD AND SWAP1 POP SWAP2 SWAP1 POP JUMP JUMPDEST PUSH32 0x4E487B7100000000000000000000000000000000000000000000000000000000 PUSH0 MSTORE PUSH1 0x41 PUSH1 0x4 MSTORE PUSH1 0x24 PUSH0 REVERT JUMPDEST PUSH2 0x985 DUP3 PUSH2 0x93F JUMP JUMPDEST DUP2 ADD DUP2 DUP2 LT PUSH8 0xFFFFFFFFFFFFFFFF DUP3 GT OR ISZERO PUSH2 0x9A4 JUMPI PUSH2 0x9A3 PUSH2 0x94F JUMP JUMPDEST JUMPDEST DUP1 PUSH1 0x40 MSTORE POP POP POP JUMP JUMPDEST PUSH0 PUSH2 0x9B6 PUSH2 0x926 JUMP JUMPDEST SWAP1 POP PUSH2 0x9C2 DUP3 DUP3 PUSH2 0x97C JUMP JUMPDEST SWAP2 SWAP1 POP JUMP JUMPDEST PUSH0 PUSH8 0xFFFFFFFFFFFFFFFF DUP3 GT ISZERO PUSH2 0x9E1 JUMPI PUSH2 0x9E0 PUSH2 0x94F JUMP JUMPDEST JUMPDEST PUSH2 0x9EA DUP3 PUSH2 0x93F JUMP JUMPDEST SWAP1 POP PUSH1 0x20 DUP2 ADD SWAP1 POP SWAP2 SWAP1 POP JUMP JUMPDEST DUP3 DUP2 DUP4 CALLDATACOPY PUSH0 DUP4 DUP4 ADD MSTORE POP POP POP JUMP JUMPDEST PUSH0 PUSH2 0xA17 PUSH2 0xA12 DUP5 PUSH2 0x9C7 JUMP JUMPDEST PUSH2 0x9AD JUMP JUMPDEST SWAP1 POP DUP3 DUP2 MSTORE PUSH1 0x20 DUP2 ADD DUP5 DUP5 DUP5 ADD GT ISZERO PUSH2 0xA33 JUMPI PUSH2 0xA32 PUSH2 0x93B JUMP JUMPDEST JUMPDEST PUSH2 0xA3E DUP5 DUP3 DUP6 PUSH2 0x9F7 JUMP JUMPDEST POP SWAP4 SWAP3 POP POP POP JUMP JUMPDEST PUSH0 DUP3 PUSH1 0x1F DUP4 ADD SLT PUSH2 0xA5A JUMPI PUSH2 0xA59 PUSH2 0x937 JUMP JUMPDEST JUMPDEST DUP2 CALLDATALOAD PUSH2 0xA6A DUP5 DUP3 PUSH1 0x20 DUP7 ADD PUSH2 0xA05 JUMP JUMPDEST SWAP2 POP POP SWAP3 SWAP2 POP POP JUMP JUMPDEST PUSH2 0xA7C DUP2 PUSH2 0x7E0 JUMP JUMPDEST DUP2 EQ PUSH2 0xA86 JUMPI PUSH0 PUSH0 REVERT JUMPDEST POP JUMP JUMPDEST PUSH0 DUP2 CALLDATALOAD SWAP1 POP PUSH2 0xA97 DUP2 PUSH2 0xA73 JUMP JUMPDEST SWAP3 SWAP2 POP POP JUMP JUMPDEST PUSH0 PUSH0 PUSH1 0x40 DUP4 DUP6 SUB SLT ISZERO PUSH2 0xAB3 JUMPI PUSH2 0xAB2 PUSH2 0x92F JUMP JUMPDEST JUMPDEST PUSH0 DUP4 ADD CALLDATALOAD PUSH8 0xFFFFFFFFFFFFFFFF DUP2 GT ISZERO PUSH2 0xAD0 JUMPI PUSH2 0xACF PUSH2 0x933 JUMP JUMPDEST JUMPDEST PUSH2 0xADC DUP6 DUP3 DUP7 ADD PUSH2 0xA46 JUMP JUMPDEST SWAP3 POP POP PUSH1 0x20 PUSH2 0xAED DUP6 DUP3 DUP7 ADD PUSH2 0xA89 JUMP JUMPDEST SWAP2 POP POP SWAP3 POP SWAP3 SWAP1 POP JUMP JUMPDEST PUSH2 0xB00 DUP2 PUSH2 0x8D0 JUMP JUMPDEST DUP2 EQ PUSH2 0xB0A JUMPI PUSH0 PUSH0 REVERT JUMPDEST POP JUMP JUMPDEST PUSH0 DUP2 CALLDATALOAD SWAP1 POP PUSH2 0xB1B DUP2 PUSH2 0xAF7 JUMP JUMPDEST SWAP3 SWAP2 POP POP JUMP JUMPDEST PUSH0 PUSH1 0x20 DUP3 DUP5 SUB SLT ISZERO PUSH2 0xB36 JUMPI PUSH2 0xB35 PUSH2 0x92F JUMP JUMPDEST JUMPDEST PUSH0 PUSH2 0xB43 DUP5 DUP3 DUP6 ADD PUSH2 0xB0D JUMP JUMPDEST SWAP2 POP POP SWAP3 SWAP2 POP POP JUMP JUMPDEST PUSH0 PUSH1 0x20 DUP3 ADD SWAP1 POP PUSH2 0xB5F PUSH0 DUP4 ADD DUP5 PUSH2 0x8F0 JUMP JUMPDEST SWAP3 SWAP2 POP POP JUMP JUMPDEST PUSH0 DUP2 ISZERO ISZERO SWAP1 POP SWAP2 SWAP1 POP JUMP JUMPDEST PUSH2 0xB79 DUP2 PUSH2 0xB65 JUMP JUMPDEST DUP3 MSTORE POP POP JUMP JUMPDEST PUSH0 PUSH1 0x20 DUP3 ADD SWAP1 POP PUSH2 0xB92 PUSH0 DUP4 ADD DUP5 PUSH2 0xB70 JUMP JUMPDEST SWAP3 SWAP2 POP POP JUMP JUMPDEST PUSH0 PUSH1 0x20 DUP3 ADD SWAP1 POP PUSH2 0xBAB PUSH0 DUP4 ADD DUP5 PUSH2 0x8E1 JUMP JUMPDEST SWAP3 SWAP2 POP POP JUMP JUMPDEST PUSH0 DUP2 SWAP1 POP SWAP2 SWAP1 POP JUMP JUMPDEST PUSH2 0xBC3 DUP2 PUSH2 0xBB1 JUMP JUMPDEST DUP3 MSTORE POP POP JUMP JUMPDEST PUSH0 PUSH1 0x20 DUP3 ADD SWAP1 POP PUSH2 0xBDC PUSH0 DUP4 ADD DUP5 PUSH2 0xBBA JUMP JUMPDEST SWAP3 SWAP2 POP POP JUMP JUMPDEST PUSH32 0x4E6F74206F776E65720000000000000000000000000000000000000000000000 PUSH0 DUP3 ADD MSTORE POP JUMP JUMPDEST PUSH0 PUSH2 0xC16 PUSH1 0x9 DUP4 PUSH2 0x768 JUMP JUMPDEST SWAP2 POP PUSH2 0xC21 DUP3 PUSH2 0xBE2 JUMP JUMPDEST PUSH1 0x20 DUP3 ADD SWAP1 POP SWAP2 SWAP1 POP JUMP JUMPDEST PUSH0 PUSH1 0x20 DUP3 ADD SWAP1 POP DUP2 DUP2 SUB PUSH0 DUP4 ADD MSTORE PUSH2 0xC43 DUP2 PUSH2 0xC0A JUMP JUMPDEST SWAP1 POP SWAP2 SWAP1 POP JUMP JUMPDEST PUSH32 0x416C72656164792072657665616C656400000000000000000000000000000000 PUSH0 DUP3 ADD MSTORE POP JUMP JUMPDEST PUSH0 PUSH2 0xC7E PUSH1 0x10 DUP4 PUSH2 0x768 JUMP JUMPDEST SWAP2 POP PUSH2 0xC89 DUP3 PUSH2 0xC4A JUMP JUMPDEST PUSH1 0x20 DUP3 ADD SWAP1 POP SWAP2 SWAP1 POP JUMP JUMPDEST PUSH0 PUSH1 0x20 DUP3 ADD SWAP1 POP DUP2 DUP2 SUB PUSH0 DUP4 ADD MSTORE PUSH2 0xCAB DUP2 PUSH2 0xC72 JUMP JUMPDEST SWAP1 POP SWAP2 SWAP1 POP JUMP JUMPDEST PUSH0 DUP2 MLOAD SWAP1 POP SWAP2 SWAP1 POP JUMP JUMPDEST PUSH0 DUP2 SWAP1 POP SWAP3 SWAP2 POP POP JUMP JUMPDEST DUP3 DUP2 DUP4 MCOPY PUSH0 DUP4 DUP4 ADD MSTORE POP POP POP JUMP JUMPDEST PUSH0 PUSH2 0xCDE DUP3 PUSH2 0xCB2 JUMP JUMPDEST PUSH2 0xCE8 DUP2 DUP6 PUSH2 0xCBC JUMP JUMPDEST SWAP4 POP PUSH2 0xCF8 DUP2 DUP6 PUSH1 0x20 DUP7 ADD PUSH2 0xCC6 JUMP JUMPDEST DUP1 DUP5 ADD SWAP2 POP POP SWAP3 SWAP2 POP POP JUMP JUMPDEST PUSH0 DUP2 SWAP1 POP SWAP2 SWAP1 POP JUMP JUMPDEST PUSH2 0xD1E PUSH2 0xD19 DUP3 PUSH2 0x7E0 JUMP JUMPDEST PUSH2 0xD04 JUMP JUMPDEST DUP3 MSTORE POP POP JUMP JUMPDEST PUSH0 PUSH2 0xD2F DUP3 DUP6 PUSH2 0xCD4 JUMP JUMPDEST SWAP2 POP PUSH2 0xD3B DUP3 DUP5 PUSH2 0xD0D JUMP JUMPDEST PUSH1 0x20 DUP3 ADD SWAP2 POP DUP2 SWAP1 POP SWAP4 SWAP3 POP POP POP JUMP JUMPDEST PUSH32 0x496E76616C69642072657665616C000000000000000000000000000000000000 PUSH0 DUP3 ADD MSTORE POP JUMP JUMPDEST PUSH0 PUSH2 0xD7F PUSH1 0xE DUP4 PUSH2 0x768 JUMP JUMPDEST SWAP2 POP PUSH2 0xD8A DUP3 PUSH2 0xD4B JUMP JUMPDEST PUSH1 0x20 DUP3 ADD SWAP1 POP SWAP2 SWAP1 POP JUMP JUMPDEST PUSH0 PUSH1 0x20 DUP3 ADD SWAP1 POP DUP2 DUP2 SUB PUSH0 DUP4 ADD MSTORE PUSH2 0xDAC DUP2 PUSH2 0xD73 JUMP JUMPDEST SWAP1 POP SWAP2 SWAP1 POP JUMP INVALID LOG2 PUSH5 0x6970667358 0x22 SLT KECCAK256 0xCD DUP2 JUMP JUMPDEST 0xD4 TSTORE MSTORE SWAPN 0xCA 0x24 PUSH2 0x83CD BLOBBASEFEE PUSH20 0xC8D13E759439C548050041B9250DB73FD364736F PUSH13 0x634300081D0033000000000000 "
				},
				"gasEstimates": {
					"creation": {
						"codeDepositCost": "712200",
						"executionCost": "infinite",
						"totalCost": "infinite"
					},
					"external": {
						"capRevealed()": "2554",
						"committedHash()": "2469",
						"contributions(address)": "2847",
						"owner()": "2529",
						"pauseSale()": "27494",
						"paused()": "2517",
						"revealCap(string,uint256)": "infinite",
						"revealedCap()": "2492",
						"totalRaised()": "2491",
						"withdraw()": "infinite"
					}
				},
				"methodIdentifiers": {
					"capRevealed()": "cba53f5a",
					"committedHash()": "9d36b431",
					"contributions(address)": "42e94c90",
					"owner()": "8da5cb5b",
					"pauseSale()": "55367ba9",
					"paused()": "5c975abb",
					"revealCap(string,uint256)": "16d8b447",
					"revealedCap()": "4aedb06f",
					"totalRaised()": "c5c4744c",
					"withdraw()": "3ccfd60b"
				}
			},
			"storageLayout": {
				"storage": [
					{
						"astId": 3,
						"contract": "H/hidden cap.sol:HiddenCapSale",
						"label": "owner",
						"offset": 0,
						"slot": "0",
						"type": "t_address"
					},
					{
						"astId": 5,
						"contract": "H/hidden cap.sol:HiddenCapSale",
						"label": "committedHash",
						"offset": 0,
						"slot": "1",
						"type": "t_bytes32"
					},
					{
						"astId": 7,
						"contract": "H/hidden cap.sol:HiddenCapSale",
						"label": "revealedCap",
						"offset": 0,
						"slot": "2",
						"type": "t_uint256"
					},
					{
						"astId": 9,
						"contract": "H/hidden cap.sol:HiddenCapSale",
						"label": "capRevealed",
						"offset": 0,
						"slot": "3",
						"type": "t_bool"
					},
					{
						"astId": 11,
						"contract": "H/hidden cap.sol:HiddenCapSale",
						"label": "paused",
						"offset": 1,
						"slot": "3",
						"type": "t_bool"
					},
					{
						"astId": 13,
						"contract": "H/hidden cap.sol:HiddenCapSale",
						"label": "totalRaised",
						"offset": 0,
						"slot": "4",
						"type": "t_uint256"
					},
					{
						"astId": 17,
						"contract": "H/hidden cap.sol:HiddenCapSale",
						"label": "contributions",
						"offset": 0,
						"slot": "5",
						"type": "t_mapping(t_address,t_uint256)"
					}
				],
				"types": {
					"t_address": {
						"encoding": "inplace",
						"label": "address",
						"numberOfBytes": "20"
					},
					"t_bool": {
						"encoding": "inplace",
						"label": "bool",
						"numberOfBytes": "1"
					},
					"t_bytes32": {
						"encoding": "inplace",
						"label": "bytes32",
						"numberOfBytes": "32"
					},
					"t_mapping(t_address,t_uint256)": {
						"encoding": "mapping",
						"key": "t_address",
						"label": "mapping(address => uint256)",
						"numberOfBytes": "32",
						"value": "t_uint256"
					},
					"t_uint256": {
						"encoding": "inplace",
						"label": "uint256",
						"numberOfBytes": "32"
					}
				}
			},
			"userdoc": {
				"kind": "user",
				"methods": {
					"pauseSale()": {
						"notice": "Emergency pause"
					},
					"revealCap(string,uint256)": {
						"notice": "Reveal secret + cap to validate the committed hash"
					}
				},
				"version": 1
			}
		}
	}
}