{
	"H/Howey Shield Contract (Meta-Compliant Filter).sol": {
		"HoweyShield": {
			"abi": [
				{
					"inputs": [
						{
							"internalType": "address",
							"name": "token",
							"type": "address"
						}
					],
					"name": "isLikelyCompliant",
					"outputs": [
						{
							"internalType": "bool",
							"name": "",
							"type": "bool"
						}
					],
					"stateMutability": "view",
					"type": "function"
				},
				{
					"inputs": [
						{
							"internalType": "address",
							"name": "token",
							"type": "address"
						},
						{
							"internalType": "bool",
							"name": "noInvestment",
							"type": "bool"
						},
						{
							"internalType": "bool",
							"name": "noProfit",
							"type": "bool"
						},
						{
							"internalType": "bool",
							"name": "decentralized",
							"type": "bool"
						},
						{
							"internalType": "bool",
							"name": "noPooling",
							"type": "bool"
						}
					],
					"name": "registerToken",
					"outputs": [],
					"stateMutability": "nonpayable",
					"type": "function"
				},
				{
					"inputs": [
						{
							"internalType": "address",
							"name": "",
							"type": "address"
						}
					],
					"name": "tokens",
					"outputs": [
						{
							"internalType": "bool",
							"name": "noInvestment",
							"type": "bool"
						},
						{
							"internalType": "bool",
							"name": "noProfit",
							"type": "bool"
						},
						{
							"internalType": "bool",
							"name": "decentralized",
							"type": "bool"
						},
						{
							"internalType": "bool",
							"name": "noPooling",
							"type": "bool"
						}
					],
					"stateMutability": "view",
					"type": "function"
				}
			],
			"devdoc": {
				"kind": "dev",
				"methods": {},
				"version": 1
			},
			"evm": {
				"assembly": "    /* \"H/Howey Shield Contract (Meta-Compliant Filter).sol\":0:642  contract HoweyShield {... */\n  mstore(0x40, 0x80)\n  callvalue\n  dup1\n  iszero\n  tag_1\n  jumpi\n  revert(0x00, 0x00)\ntag_1:\n  pop\n  dataSize(sub_0)\n  dup1\n  dataOffset(sub_0)\n  0x00\n  codecopy\n  0x00\n  return\nstop\n\nsub_0: assembly {\n        /* \"H/Howey Shield Contract (Meta-Compliant Filter).sol\":0:642  contract HoweyShield {... */\n      mstore(0x40, 0x80)\n      callvalue\n      dup1\n      iszero\n      tag_1\n      jumpi\n      revert(0x00, 0x00)\n    tag_1:\n      pop\n      jumpi(tag_2, lt(calldatasize, 0x04))\n      shr(0xe0, calldataload(0x00))\n      dup1\n      0x66d7d040\n      eq\n      tag_3\n      jumpi\n      dup1\n      0xbd92d5f7\n      eq\n      tag_4\n      jumpi\n      dup1\n      0xe4860339\n      eq\n      tag_5\n      jumpi\n    tag_2:\n      revert(0x00, 0x00)\n        /* \"H/Howey Shield Contract (Meta-Compliant Filter).sol\":424:640  function isLikelyCompliant(address token) external view returns (bool) {... */\n    tag_3:\n      tag_6\n      0x04\n      dup1\n      calldatasize\n      sub\n      dup2\n      add\n      swap1\n      tag_7\n      swap2\n      swap1\n      tag_8\n      jump\t// in\n    tag_7:\n      tag_9\n      jump\t// in\n    tag_6:\n      mload(0x40)\n      tag_10\n      swap2\n      swap1\n      tag_11\n      jump\t// in\n    tag_10:\n      mload(0x40)\n      dup1\n      swap2\n      sub\n      swap1\n      return\n        /* \"H/Howey Shield Contract (Meta-Compliant Filter).sol\":209:418  function registerToken(address token, bool noInvestment, bool noProfit, bool decentralized, bool noPooling) external {... */\n    tag_4:\n      tag_12\n      0x04\n      dup1\n      calldatasize\n      sub\n      dup2\n      add\n      swap1\n      tag_13\n      swap2\n      swap1\n      tag_14\n      jump\t// in\n    tag_13:\n      tag_15\n      jump\t// in\n    tag_12:\n      stop\n        /* \"H/Howey Shield Contract (Meta-Compliant Filter).sol\":159:202  mapping(address => TokenMeta) public tokens */\n    tag_5:\n      tag_16\n      0x04\n      dup1\n      calldatasize\n      sub\n      dup2\n      add\n      swap1\n      tag_17\n      swap2\n      swap1\n      tag_8\n      jump\t// in\n    tag_17:\n      tag_18\n      jump\t// in\n    tag_16:\n      mload(0x40)\n      tag_19\n      swap5\n      swap4\n      swap3\n      swap2\n      swap1\n      tag_20\n      jump\t// in\n    tag_19:\n      mload(0x40)\n      dup1\n      swap2\n      sub\n      swap1\n      return\n        /* \"H/Howey Shield Contract (Meta-Compliant Filter).sol\":424:640  function isLikelyCompliant(address token) external view returns (bool) {... */\n    tag_9:\n        /* \"H/Howey Shield Contract (Meta-Compliant Filter).sol\":489:493  bool */\n      0x00\n        /* \"H/Howey Shield Contract (Meta-Compliant Filter).sol\":505:526  TokenMeta memory meta */\n      0x00\n        /* \"H/Howey Shield Contract (Meta-Compliant Filter).sol\":529:535  tokens */\n      0x00\n        /* \"H/Howey Shield Contract (Meta-Compliant Filter).sol\":529:542  tokens[token] */\n      0x00\n        /* \"H/Howey Shield Contract (Meta-Compliant Filter).sol\":536:541  token */\n      dup5\n        /* \"H/Howey Shield Contract (Meta-Compliant Filter).sol\":529:542  tokens[token] */\n      0xffffffffffffffffffffffffffffffffffffffff\n      and\n      0xffffffffffffffffffffffffffffffffffffffff\n      and\n      dup2\n      mstore\n      0x20\n      add\n      swap1\n      dup2\n      mstore\n      0x20\n      add\n      0x00\n      keccak256\n        /* \"H/Howey Shield Contract (Meta-Compliant Filter).sol\":505:542  TokenMeta memory meta = tokens[token] */\n      mload(0x40)\n      dup1\n      0x80\n      add\n      0x40\n      mstore\n      swap1\n      dup2\n      0x00\n      dup3\n      add\n      0x00\n      swap1\n      sload\n      swap1\n      0x0100\n      exp\n      swap1\n      div\n      0xff\n      and\n      iszero\n      iszero\n      iszero\n      iszero\n      dup2\n      mstore\n      0x20\n      add\n      0x00\n      dup3\n      add\n      0x01\n      swap1\n      sload\n      swap1\n      0x0100\n      exp\n      swap1\n      div\n      0xff\n      and\n      iszero\n      iszero\n      iszero\n      iszero\n      dup2\n      mstore\n      0x20\n      add\n      0x00\n      dup3\n      add\n      0x02\n      swap1\n      sload\n      swap1\n      0x0100\n      exp\n      swap1\n      div\n      0xff\n      and\n      iszero\n      iszero\n      iszero\n      iszero\n      dup2\n      mstore\n      0x20\n      add\n      0x00\n      dup3\n      add\n      0x03\n      swap1\n      sload\n      swap1\n      0x0100\n      exp\n      swap1\n      div\n      0xff\n      and\n      iszero\n      iszero\n      iszero\n      iszero\n      dup2\n      mstore\n      pop\n      pop\n      swap1\n      pop\n        /* \"H/Howey Shield Contract (Meta-Compliant Filter).sol\":559:563  meta */\n      dup1\n        /* \"H/Howey Shield Contract (Meta-Compliant Filter).sol\":559:576  meta.noInvestment */\n      0x00\n      add\n      mload\n        /* \"H/Howey Shield Contract (Meta-Compliant Filter).sol\":559:593  meta.noInvestment && meta.noProfit */\n      dup1\n      iszero\n      tag_22\n      jumpi\n      pop\n        /* \"H/Howey Shield Contract (Meta-Compliant Filter).sol\":580:584  meta */\n      dup1\n        /* \"H/Howey Shield Contract (Meta-Compliant Filter).sol\":580:593  meta.noProfit */\n      0x20\n      add\n      mload\n        /* \"H/Howey Shield Contract (Meta-Compliant Filter).sol\":559:593  meta.noInvestment && meta.noProfit */\n    tag_22:\n        /* \"H/Howey Shield Contract (Meta-Compliant Filter).sol\":559:615  meta.noInvestment && meta.noProfit && meta.decentralized */\n      dup1\n      iszero\n      tag_23\n      jumpi\n      pop\n        /* \"H/Howey Shield Contract (Meta-Compliant Filter).sol\":597:601  meta */\n      dup1\n        /* \"H/Howey Shield Contract (Meta-Compliant Filter).sol\":597:615  meta.decentralized */\n      0x40\n      add\n      mload\n        /* \"H/Howey Shield Contract (Meta-Compliant Filter).sol\":559:615  meta.noInvestment && meta.noProfit && meta.decentralized */\n    tag_23:\n        /* \"H/Howey Shield Contract (Meta-Compliant Filter).sol\":559:633  meta.noInvestment && meta.noProfit && meta.decentralized && meta.noPooling */\n      dup1\n      iszero\n      tag_24\n      jumpi\n      pop\n        /* \"H/Howey Shield Contract (Meta-Compliant Filter).sol\":619:623  meta */\n      dup1\n        /* \"H/Howey Shield Contract (Meta-Compliant Filter).sol\":619:633  meta.noPooling */\n      0x60\n      add\n      mload\n        /* \"H/Howey Shield Contract (Meta-Compliant Filter).sol\":559:633  meta.noInvestment && meta.noProfit && meta.decentralized && meta.noPooling */\n    tag_24:\n        /* \"H/Howey Shield Contract (Meta-Compliant Filter).sol\":552:633  return meta.noInvestment && meta.noProfit && meta.decentralized && meta.noPooling */\n      swap2\n      pop\n      pop\n        /* \"H/Howey Shield Contract (Meta-Compliant Filter).sol\":424:640  function isLikelyCompliant(address token) external view returns (bool) {... */\n      swap2\n      swap1\n      pop\n      jump\t// out\n        /* \"H/Howey Shield Contract (Meta-Compliant Filter).sol\":209:418  function registerToken(address token, bool noInvestment, bool noProfit, bool decentralized, bool noPooling) external {... */\n    tag_15:\n        /* \"H/Howey Shield Contract (Meta-Compliant Filter).sol\":352:411  TokenMeta(noInvestment, noProfit, decentralized, noPooling) */\n      mload(0x40)\n      dup1\n      0x80\n      add\n      0x40\n      mstore\n      dup1\n        /* \"H/Howey Shield Contract (Meta-Compliant Filter).sol\":362:374  noInvestment */\n      dup6\n        /* \"H/Howey Shield Contract (Meta-Compliant Filter).sol\":352:411  TokenMeta(noInvestment, noProfit, decentralized, noPooling) */\n      iszero\n      iszero\n      dup2\n      mstore\n      0x20\n      add\n        /* \"H/Howey Shield Contract (Meta-Compliant Filter).sol\":376:384  noProfit */\n      dup5\n        /* \"H/Howey Shield Contract (Meta-Compliant Filter).sol\":352:411  TokenMeta(noInvestment, noProfit, decentralized, noPooling) */\n      iszero\n      iszero\n      dup2\n      mstore\n      0x20\n      add\n        /* \"H/Howey Shield Contract (Meta-Compliant Filter).sol\":386:399  decentralized */\n      dup4\n        /* \"H/Howey Shield Contract (Meta-Compliant Filter).sol\":352:411  TokenMeta(noInvestment, noProfit, decentralized, noPooling) */\n      iszero\n      iszero\n      dup2\n      mstore\n      0x20\n      add\n        /* \"H/Howey Shield Contract (Meta-Compliant Filter).sol\":401:410  noPooling */\n      dup3\n        /* \"H/Howey Shield Contract (Meta-Compliant Filter).sol\":352:411  TokenMeta(noInvestment, noProfit, decentralized, noPooling) */\n      iszero\n      iszero\n      dup2\n      mstore\n      pop\n        /* \"H/Howey Shield Contract (Meta-Compliant Filter).sol\":336:342  tokens */\n      0x00\n        /* \"H/Howey Shield Contract (Meta-Compliant Filter).sol\":336:349  tokens[token] */\n      0x00\n        /* \"H/Howey Shield Contract (Meta-Compliant Filter).sol\":343:348  token */\n      dup8\n        /* \"H/Howey Shield Contract (Meta-Compliant Filter).sol\":336:349  tokens[token] */\n      0xffffffffffffffffffffffffffffffffffffffff\n      and\n      0xffffffffffffffffffffffffffffffffffffffff\n      and\n      dup2\n      mstore\n      0x20\n      add\n      swap1\n      dup2\n      mstore\n      0x20\n      add\n      0x00\n      keccak256\n        /* \"H/Howey Shield Contract (Meta-Compliant Filter).sol\":336:411  tokens[token] = TokenMeta(noInvestment, noProfit, decentralized, noPooling) */\n      0x00\n      dup3\n      add\n      mload\n      dup2\n      0x00\n      add\n      exp(0x0100, 0x00)\n      dup2\n      sload\n      dup2\n      0xff\n      mul\n      not\n      and\n      swap1\n      dup4\n      iszero\n      iszero\n      mul\n      or\n      swap1\n      sstore\n      pop\n      0x20\n      dup3\n      add\n      mload\n      dup2\n      0x00\n      add\n      exp(0x0100, 0x01)\n      dup2\n      sload\n      dup2\n      0xff\n      mul\n      not\n      and\n      swap1\n      dup4\n      iszero\n      iszero\n      mul\n      or\n      swap1\n      sstore\n      pop\n      0x40\n      dup3\n      add\n      mload\n      dup2\n      0x00\n      add\n      exp(0x0100, 0x02)\n      dup2\n      sload\n      dup2\n      0xff\n      mul\n      not\n      and\n      swap1\n      dup4\n      iszero\n      iszero\n      mul\n      or\n      swap1\n      sstore\n      pop\n      0x60\n      dup3\n      add\n      mload\n      dup2\n      0x00\n      add\n      exp(0x0100, 0x03)\n      dup2\n      sload\n      dup2\n      0xff\n      mul\n      not\n      and\n      swap1\n      dup4\n      iszero\n      iszero\n      mul\n      or\n      swap1\n      sstore\n      pop\n      swap1\n      pop\n      pop\n        /* \"H/Howey Shield Contract (Meta-Compliant Filter).sol\":209:418  function registerToken(address token, bool noInvestment, bool noProfit, bool decentralized, bool noPooling) external {... */\n      pop\n      pop\n      pop\n      pop\n      pop\n      jump\t// out\n        /* \"H/Howey Shield Contract (Meta-Compliant Filter).sol\":159:202  mapping(address => TokenMeta) public tokens */\n    tag_18:\n      mstore(0x20, 0x00)\n      dup1\n      0x00\n      mstore\n      keccak256(0x00, 0x40)\n      0x00\n      swap2\n      pop\n      swap1\n      pop\n      dup1\n      0x00\n      add\n      0x00\n      swap1\n      sload\n      swap1\n      0x0100\n      exp\n      swap1\n      div\n      0xff\n      and\n      swap1\n      dup1\n      0x00\n      add\n      0x01\n      swap1\n      sload\n      swap1\n      0x0100\n      exp\n      swap1\n      div\n      0xff\n      and\n      swap1\n      dup1\n      0x00\n      add\n      0x02\n      swap1\n      sload\n      swap1\n      0x0100\n      exp\n      swap1\n      div\n      0xff\n      and\n      swap1\n      dup1\n      0x00\n      add\n      0x03\n      swap1\n      sload\n      swap1\n      0x0100\n      exp\n      swap1\n      div\n      0xff\n      and\n      swap1\n      pop\n      dup5\n      jump\t// out\n        /* \"#utility.yul\":88:205   */\n    tag_27:\n        /* \"#utility.yul\":197:198   */\n      0x00\n        /* \"#utility.yul\":194:195   */\n      0x00\n        /* \"#utility.yul\":187:199   */\n      revert\n        /* \"#utility.yul\":334:460   */\n    tag_29:\n        /* \"#utility.yul\":371:378   */\n      0x00\n        /* \"#utility.yul\":411:453   */\n      0xffffffffffffffffffffffffffffffffffffffff\n        /* \"#utility.yul\":404:409   */\n      dup3\n        /* \"#utility.yul\":400:454   */\n      and\n        /* \"#utility.yul\":389:454   */\n      swap1\n      pop\n        /* \"#utility.yul\":334:460   */\n      swap2\n      swap1\n      pop\n      jump\t// out\n        /* \"#utility.yul\":466:562   */\n    tag_30:\n        /* \"#utility.yul\":503:510   */\n      0x00\n        /* \"#utility.yul\":532:556   */\n      tag_43\n        /* \"#utility.yul\":550:555   */\n      dup3\n        /* \"#utility.yul\":532:556   */\n      tag_29\n      jump\t// in\n    tag_43:\n        /* \"#utility.yul\":521:556   */\n      swap1\n      pop\n        /* \"#utility.yul\":466:562   */\n      swap2\n      swap1\n      pop\n      jump\t// out\n        /* \"#utility.yul\":568:690   */\n    tag_31:\n        /* \"#utility.yul\":641:665   */\n      tag_45\n        /* \"#utility.yul\":659:664   */\n      dup2\n        /* \"#utility.yul\":641:665   */\n      tag_30\n      jump\t// in\n    tag_45:\n        /* \"#utility.yul\":634:639   */\n      dup2\n        /* \"#utility.yul\":631:666   */\n      eq\n        /* \"#utility.yul\":621:684   */\n      tag_46\n      jumpi\n        /* \"#utility.yul\":680:681   */\n      0x00\n        /* \"#utility.yul\":677:678   */\n      0x00\n        /* \"#utility.yul\":670:682   */\n      revert\n        /* \"#utility.yul\":621:684   */\n    tag_46:\n        /* \"#utility.yul\":568:690   */\n      pop\n      jump\t// out\n        /* \"#utility.yul\":696:835   */\n    tag_32:\n        /* \"#utility.yul\":742:747   */\n      0x00\n        /* \"#utility.yul\":780:786   */\n      dup2\n        /* \"#utility.yul\":767:787   */\n      calldataload\n        /* \"#utility.yul\":758:787   */\n      swap1\n      pop\n        /* \"#utility.yul\":796:829   */\n      tag_48\n        /* \"#utility.yul\":823:828   */\n      dup2\n        /* \"#utility.yul\":796:829   */\n      tag_31\n      jump\t// in\n    tag_48:\n        /* \"#utility.yul\":696:835   */\n      swap3\n      swap2\n      pop\n      pop\n      jump\t// out\n        /* \"#utility.yul\":841:1170   */\n    tag_8:\n        /* \"#utility.yul\":900:906   */\n      0x00\n        /* \"#utility.yul\":949:951   */\n      0x20\n        /* \"#utility.yul\":937:946   */\n      dup3\n        /* \"#utility.yul\":928:935   */\n      dup5\n        /* \"#utility.yul\":924:947   */\n      sub\n        /* \"#utility.yul\":920:952   */\n      slt\n        /* \"#utility.yul\":917:1036   */\n      iszero\n      tag_50\n      jumpi\n        /* \"#utility.yul\":955:1034   */\n      tag_51\n      tag_27\n      jump\t// in\n    tag_51:\n        /* \"#utility.yul\":917:1036   */\n    tag_50:\n        /* \"#utility.yul\":1075:1076   */\n      0x00\n        /* \"#utility.yul\":1100:1153   */\n      tag_52\n        /* \"#utility.yul\":1145:1152   */\n      dup5\n        /* \"#utility.yul\":1136:1142   */\n      dup3\n        /* \"#utility.yul\":1125:1134   */\n      dup6\n        /* \"#utility.yul\":1121:1143   */\n      add\n        /* \"#utility.yul\":1100:1153   */\n      tag_32\n      jump\t// in\n    tag_52:\n        /* \"#utility.yul\":1090:1153   */\n      swap2\n      pop\n        /* \"#utility.yul\":1046:1163   */\n      pop\n        /* \"#utility.yul\":841:1170   */\n      swap3\n      swap2\n      pop\n      pop\n      jump\t// out\n        /* \"#utility.yul\":1176:1266   */\n    tag_33:\n        /* \"#utility.yul\":1210:1217   */\n      0x00\n        /* \"#utility.yul\":1253:1258   */\n      dup2\n        /* \"#utility.yul\":1246:1259   */\n      iszero\n        /* \"#utility.yul\":1239:1260   */\n      iszero\n        /* \"#utility.yul\":1228:1260   */\n      swap1\n      pop\n        /* \"#utility.yul\":1176:1266   */\n      swap2\n      swap1\n      pop\n      jump\t// out\n        /* \"#utility.yul\":1272:1381   */\n    tag_34:\n        /* \"#utility.yul\":1353:1374   */\n      tag_55\n        /* \"#utility.yul\":1368:1373   */\n      dup2\n        /* \"#utility.yul\":1353:1374   */\n      tag_33\n      jump\t// in\n    tag_55:\n        /* \"#utility.yul\":1348:1351   */\n      dup3\n        /* \"#utility.yul\":1341:1375   */\n      mstore\n        /* \"#utility.yul\":1272:1381   */\n      pop\n      pop\n      jump\t// out\n        /* \"#utility.yul\":1387:1597   */\n    tag_11:\n        /* \"#utility.yul\":1474:1478   */\n      0x00\n        /* \"#utility.yul\":1512:1514   */\n      0x20\n        /* \"#utility.yul\":1501:1510   */\n      dup3\n        /* \"#utility.yul\":1497:1515   */\n      add\n        /* \"#utility.yul\":1489:1515   */\n      swap1\n      pop\n        /* \"#utility.yul\":1525:1590   */\n      tag_57\n        /* \"#utility.yul\":1587:1588   */\n      0x00\n        /* \"#utility.yul\":1576:1585   */\n      dup4\n        /* \"#utility.yul\":1572:1589   */\n      add\n        /* \"#utility.yul\":1563:1569   */\n      dup5\n        /* \"#utility.yul\":1525:1590   */\n      tag_34\n      jump\t// in\n    tag_57:\n        /* \"#utility.yul\":1387:1597   */\n      swap3\n      swap2\n      pop\n      pop\n      jump\t// out\n        /* \"#utility.yul\":1603:1719   */\n    tag_35:\n        /* \"#utility.yul\":1673:1694   */\n      tag_59\n        /* \"#utility.yul\":1688:1693   */\n      dup2\n        /* \"#utility.yul\":1673:1694   */\n      tag_33\n      jump\t// in\n    tag_59:\n        /* \"#utility.yul\":1666:1671   */\n      dup2\n        /* \"#utility.yul\":1663:1695   */\n      eq\n        /* \"#utility.yul\":1653:1713   */\n      tag_60\n      jumpi\n        /* \"#utility.yul\":1709:1710   */\n      0x00\n        /* \"#utility.yul\":1706:1707   */\n      0x00\n        /* \"#utility.yul\":1699:1711   */\n      revert\n        /* \"#utility.yul\":1653:1713   */\n    tag_60:\n        /* \"#utility.yul\":1603:1719   */\n      pop\n      jump\t// out\n        /* \"#utility.yul\":1725:1858   */\n    tag_36:\n        /* \"#utility.yul\":1768:1773   */\n      0x00\n        /* \"#utility.yul\":1806:1812   */\n      dup2\n        /* \"#utility.yul\":1793:1813   */\n      calldataload\n        /* \"#utility.yul\":1784:1813   */\n      swap1\n      pop\n        /* \"#utility.yul\":1822:1852   */\n      tag_62\n        /* \"#utility.yul\":1846:1851   */\n      dup2\n        /* \"#utility.yul\":1822:1852   */\n      tag_35\n      jump\t// in\n    tag_62:\n        /* \"#utility.yul\":1725:1858   */\n      swap3\n      swap2\n      pop\n      pop\n      jump\t// out\n        /* \"#utility.yul\":1864:2751   */\n    tag_14:\n        /* \"#utility.yul\":1947:1953   */\n      0x00\n        /* \"#utility.yul\":1955:1961   */\n      0x00\n        /* \"#utility.yul\":1963:1969   */\n      0x00\n        /* \"#utility.yul\":1971:1977   */\n      0x00\n        /* \"#utility.yul\":1979:1985   */\n      0x00\n        /* \"#utility.yul\":2028:2031   */\n      0xa0\n        /* \"#utility.yul\":2016:2025   */\n      dup7\n        /* \"#utility.yul\":2007:2014   */\n      dup9\n        /* \"#utility.yul\":2003:2026   */\n      sub\n        /* \"#utility.yul\":1999:2032   */\n      slt\n        /* \"#utility.yul\":1996:2116   */\n      iszero\n      tag_64\n      jumpi\n        /* \"#utility.yul\":2035:2114   */\n      tag_65\n      tag_27\n      jump\t// in\n    tag_65:\n        /* \"#utility.yul\":1996:2116   */\n    tag_64:\n        /* \"#utility.yul\":2155:2156   */\n      0x00\n        /* \"#utility.yul\":2180:2233   */\n      tag_66\n        /* \"#utility.yul\":2225:2232   */\n      dup9\n        /* \"#utility.yul\":2216:2222   */\n      dup3\n        /* \"#utility.yul\":2205:2214   */\n      dup10\n        /* \"#utility.yul\":2201:2223   */\n      add\n        /* \"#utility.yul\":2180:2233   */\n      tag_32\n      jump\t// in\n    tag_66:\n        /* \"#utility.yul\":2170:2233   */\n      swap6\n      pop\n        /* \"#utility.yul\":2126:2243   */\n      pop\n        /* \"#utility.yul\":2282:2284   */\n      0x20\n        /* \"#utility.yul\":2308:2358   */\n      tag_67\n        /* \"#utility.yul\":2350:2357   */\n      dup9\n        /* \"#utility.yul\":2341:2347   */\n      dup3\n        /* \"#utility.yul\":2330:2339   */\n      dup10\n        /* \"#utility.yul\":2326:2348   */\n      add\n        /* \"#utility.yul\":2308:2358   */\n      tag_36\n      jump\t// in\n    tag_67:\n        /* \"#utility.yul\":2298:2358   */\n      swap5\n      pop\n        /* \"#utility.yul\":2253:2368   */\n      pop\n        /* \"#utility.yul\":2407:2409   */\n      0x40\n        /* \"#utility.yul\":2433:2483   */\n      tag_68\n        /* \"#utility.yul\":2475:2482   */\n      dup9\n        /* \"#utility.yul\":2466:2472   */\n      dup3\n        /* \"#utility.yul\":2455:2464   */\n      dup10\n        /* \"#utility.yul\":2451:2473   */\n      add\n        /* \"#utility.yul\":2433:2483   */\n      tag_36\n      jump\t// in\n    tag_68:\n        /* \"#utility.yul\":2423:2483   */\n      swap4\n      pop\n        /* \"#utility.yul\":2378:2493   */\n      pop\n        /* \"#utility.yul\":2532:2534   */\n      0x60\n        /* \"#utility.yul\":2558:2608   */\n      tag_69\n        /* \"#utility.yul\":2600:2607   */\n      dup9\n        /* \"#utility.yul\":2591:2597   */\n      dup3\n        /* \"#utility.yul\":2580:2589   */\n      dup10\n        /* \"#utility.yul\":2576:2598   */\n      add\n        /* \"#utility.yul\":2558:2608   */\n      tag_36\n      jump\t// in\n    tag_69:\n        /* \"#utility.yul\":2548:2608   */\n      swap3\n      pop\n        /* \"#utility.yul\":2503:2618   */\n      pop\n        /* \"#utility.yul\":2657:2660   */\n      0x80\n        /* \"#utility.yul\":2684:2734   */\n      tag_70\n        /* \"#utility.yul\":2726:2733   */\n      dup9\n        /* \"#utility.yul\":2717:2723   */\n      dup3\n        /* \"#utility.yul\":2706:2715   */\n      dup10\n        /* \"#utility.yul\":2702:2724   */\n      add\n        /* \"#utility.yul\":2684:2734   */\n      tag_36\n      jump\t// in\n    tag_70:\n        /* \"#utility.yul\":2674:2734   */\n      swap2\n      pop\n        /* \"#utility.yul\":2628:2744   */\n      pop\n        /* \"#utility.yul\":1864:2751   */\n      swap3\n      swap6\n      pop\n      swap3\n      swap6\n      swap1\n      swap4\n      pop\n      jump\t// out\n        /* \"#utility.yul\":2757:3262   */\n    tag_20:\n        /* \"#utility.yul\":2910:2914   */\n      0x00\n        /* \"#utility.yul\":2948:2951   */\n      0x80\n        /* \"#utility.yul\":2937:2946   */\n      dup3\n        /* \"#utility.yul\":2933:2952   */\n      add\n        /* \"#utility.yul\":2925:2952   */\n      swap1\n      pop\n        /* \"#utility.yul\":2962:3027   */\n      tag_72\n        /* \"#utility.yul\":3024:3025   */\n      0x00\n        /* \"#utility.yul\":3013:3022   */\n      dup4\n        /* \"#utility.yul\":3009:3026   */\n      add\n        /* \"#utility.yul\":3000:3006   */\n      dup8\n        /* \"#utility.yul\":2962:3027   */\n      tag_34\n      jump\t// in\n    tag_72:\n        /* \"#utility.yul\":3037:3103   */\n      tag_73\n        /* \"#utility.yul\":3099:3101   */\n      0x20\n        /* \"#utility.yul\":3088:3097   */\n      dup4\n        /* \"#utility.yul\":3084:3102   */\n      add\n        /* \"#utility.yul\":3075:3081   */\n      dup7\n        /* \"#utility.yul\":3037:3103   */\n      tag_34\n      jump\t// in\n    tag_73:\n        /* \"#utility.yul\":3113:3179   */\n      tag_74\n        /* \"#utility.yul\":3175:3177   */\n      0x40\n        /* \"#utility.yul\":3164:3173   */\n      dup4\n        /* \"#utility.yul\":3160:3178   */\n      add\n        /* \"#utility.yul\":3151:3157   */\n      dup6\n        /* \"#utility.yul\":3113:3179   */\n      tag_34\n      jump\t// in\n    tag_74:\n        /* \"#utility.yul\":3189:3255   */\n      tag_75\n        /* \"#utility.yul\":3251:3253   */\n      0x60\n        /* \"#utility.yul\":3240:3249   */\n      dup4\n        /* \"#utility.yul\":3236:3254   */\n      add\n        /* \"#utility.yul\":3227:3233   */\n      dup5\n        /* \"#utility.yul\":3189:3255   */\n      tag_34\n      jump\t// in\n    tag_75:\n        /* \"#utility.yul\":2757:3262   */\n      swap6\n      swap5\n      pop\n      pop\n      pop\n      pop\n      pop\n      jump\t// out\n\n    auxdata: 0xa2646970667358221220757349c19dea9e98cdf6a788d723f16af4af3318fac11eda2e8c4a3d30d5fb1b64736f6c634300081d0033\n}\n",
				"bytecode": {
					"linkReferences": {},
					"object": "6080604052348015600e575f5ffd5b506104c18061001c5f395ff3fe608060405234801561000f575f5ffd5b506004361061003f575f3560e01c806366d7d04014610043578063bd92d5f714610073578063e48603391461008f575b5f5ffd5b61005d60048036038101906100589190610349565b6100c2565b60405161006a919061038e565b60405180910390f35b61008d600480360381019061008891906103d1565b6101a7565b005b6100a960048036038101906100a49190610349565b610290565b6040516100b99493929190610448565b60405180910390f35b5f5f5f5f8473ffffffffffffffffffffffffffffffffffffffff1673ffffffffffffffffffffffffffffffffffffffff1681526020019081526020015f206040518060800160405290815f82015f9054906101000a900460ff161515151581526020015f820160019054906101000a900460ff161515151581526020015f820160029054906101000a900460ff161515151581526020015f820160039054906101000a900460ff1615151515815250509050805f01518015610185575080602001515b8015610192575080604001515b801561019f575080606001515b915050919050565b60405180608001604052808515158152602001841515815260200183151581526020018215158152505f5f8773ffffffffffffffffffffffffffffffffffffffff1673ffffffffffffffffffffffffffffffffffffffff1681526020019081526020015f205f820151815f015f6101000a81548160ff0219169083151502179055506020820151815f0160016101000a81548160ff0219169083151502179055506040820151815f0160026101000a81548160ff0219169083151502179055506060820151815f0160036101000a81548160ff0219169083151502179055509050505050505050565b5f602052805f5260405f205f91509050805f015f9054906101000a900460ff1690805f0160019054906101000a900460ff1690805f0160029054906101000a900460ff1690805f0160039054906101000a900460ff16905084565b5f5ffd5b5f73ffffffffffffffffffffffffffffffffffffffff82169050919050565b5f610318826102ef565b9050919050565b6103288161030e565b8114610332575f5ffd5b50565b5f813590506103438161031f565b92915050565b5f6020828403121561035e5761035d6102eb565b5b5f61036b84828501610335565b91505092915050565b5f8115159050919050565b61038881610374565b82525050565b5f6020820190506103a15f83018461037f565b92915050565b6103b081610374565b81146103ba575f5ffd5b50565b5f813590506103cb816103a7565b92915050565b5f5f5f5f5f60a086880312156103ea576103e96102eb565b5b5f6103f788828901610335565b9550506020610408888289016103bd565b9450506040610419888289016103bd565b935050606061042a888289016103bd565b925050608061043b888289016103bd565b9150509295509295909350565b5f60808201905061045b5f83018761037f565b610468602083018661037f565b610475604083018561037f565b610482606083018461037f565b9594505050505056fea2646970667358221220757349c19dea9e98cdf6a788d723f16af4af3318fac11eda2e8c4a3d30d5fb1b64736f6c634300081d0033",
					"opcodes": "PUSH1 0x80 PUSH1 0x40 MSTORE CALLVALUE DUP1 ISZERO PUSH1 0xE JUMPI PUSH0 PUSH0 REVERT JUMPDEST POP PUSH2 0x4C1 DUP1 PUSH2 0x1C PUSH0 CODECOPY PUSH0 RETURN INVALID PUSH1 0x80 PUSH1 0x40 MSTORE CALLVALUE DUP1 ISZERO PUSH2 0xF JUMPI PUSH0 PUSH0 REVERT JUMPDEST POP PUSH1 0x4 CALLDATASIZE LT PUSH2 0x3F JUMPI PUSH0 CALLDATALOAD PUSH1 0xE0 SHR DUP1 PUSH4 0x66D7D040 EQ PUSH2 0x43 JUMPI DUP1 PUSH4 0xBD92D5F7 EQ PUSH2 0x73 JUMPI DUP1 PUSH4 0xE4860339 EQ PUSH2 0x8F JUMPI JUMPDEST PUSH0 PUSH0 REVERT JUMPDEST PUSH2 0x5D PUSH1 0x4 DUP1 CALLDATASIZE SUB DUP2 ADD SWAP1 PUSH2 0x58 SWAP2 SWAP1 PUSH2 0x349 JUMP JUMPDEST PUSH2 0xC2 JUMP JUMPDEST PUSH1 0x40 MLOAD PUSH2 0x6A SWAP2 SWAP1 PUSH2 0x38E JUMP JUMPDEST PUSH1 0x40 MLOAD DUP1 SWAP2 SUB SWAP1 RETURN JUMPDEST PUSH2 0x8D PUSH1 0x4 DUP1 CALLDATASIZE SUB DUP2 ADD SWAP1 PUSH2 0x88 SWAP2 SWAP1 PUSH2 0x3D1 JUMP JUMPDEST PUSH2 0x1A7 JUMP JUMPDEST STOP JUMPDEST PUSH2 0xA9 PUSH1 0x4 DUP1 CALLDATASIZE SUB DUP2 ADD SWAP1 PUSH2 0xA4 SWAP2 SWAP1 PUSH2 0x349 JUMP JUMPDEST PUSH2 0x290 JUMP JUMPDEST PUSH1 0x40 MLOAD PUSH2 0xB9 SWAP5 SWAP4 SWAP3 SWAP2 SWAP1 PUSH2 0x448 JUMP JUMPDEST PUSH1 0x40 MLOAD DUP1 SWAP2 SUB SWAP1 RETURN JUMPDEST PUSH0 PUSH0 PUSH0 PUSH0 DUP5 PUSH20 0xFFFFFFFFFFFFFFFFFFFFFFFFFFFFFFFFFFFFFFFF AND PUSH20 0xFFFFFFFFFFFFFFFFFFFFFFFFFFFFFFFFFFFFFFFF AND DUP2 MSTORE PUSH1 0x20 ADD SWAP1 DUP2 MSTORE PUSH1 0x20 ADD PUSH0 KECCAK256 PUSH1 0x40 MLOAD DUP1 PUSH1 0x80 ADD PUSH1 0x40 MSTORE SWAP1 DUP2 PUSH0 DUP3 ADD PUSH0 SWAP1 SLOAD SWAP1 PUSH2 0x100 EXP SWAP1 DIV PUSH1 0xFF AND ISZERO ISZERO ISZERO ISZERO DUP2 MSTORE PUSH1 0x20 ADD PUSH0 DUP3 ADD PUSH1 0x1 SWAP1 SLOAD SWAP1 PUSH2 0x100 EXP SWAP1 DIV PUSH1 0xFF AND ISZERO ISZERO ISZERO ISZERO DUP2 MSTORE PUSH1 0x20 ADD PUSH0 DUP3 ADD PUSH1 0x2 SWAP1 SLOAD SWAP1 PUSH2 0x100 EXP SWAP1 DIV PUSH1 0xFF AND ISZERO ISZERO ISZERO ISZERO DUP2 MSTORE PUSH1 0x20 ADD PUSH0 DUP3 ADD PUSH1 0x3 SWAP1 SLOAD SWAP1 PUSH2 0x100 EXP SWAP1 DIV PUSH1 0xFF AND ISZERO ISZERO ISZERO ISZERO DUP2 MSTORE POP POP SWAP1 POP DUP1 PUSH0 ADD MLOAD DUP1 ISZERO PUSH2 0x185 JUMPI POP DUP1 PUSH1 0x20 ADD MLOAD JUMPDEST DUP1 ISZERO PUSH2 0x192 JUMPI POP DUP1 PUSH1 0x40 ADD MLOAD JUMPDEST DUP1 ISZERO PUSH2 0x19F JUMPI POP DUP1 PUSH1 0x60 ADD MLOAD JUMPDEST SWAP2 POP POP SWAP2 SWAP1 POP JUMP JUMPDEST PUSH1 0x40 MLOAD DUP1 PUSH1 0x80 ADD PUSH1 0x40 MSTORE DUP1 DUP6 ISZERO ISZERO DUP2 MSTORE PUSH1 0x20 ADD DUP5 ISZERO ISZERO DUP2 MSTORE PUSH1 0x20 ADD DUP4 ISZERO ISZERO DUP2 MSTORE PUSH1 0x20 ADD DUP3 ISZERO ISZERO DUP2 MSTORE POP PUSH0 PUSH0 DUP8 PUSH20 0xFFFFFFFFFFFFFFFFFFFFFFFFFFFFFFFFFFFFFFFF AND PUSH20 0xFFFFFFFFFFFFFFFFFFFFFFFFFFFFFFFFFFFFFFFF AND DUP2 MSTORE PUSH1 0x20 ADD SWAP1 DUP2 MSTORE PUSH1 0x20 ADD PUSH0 KECCAK256 PUSH0 DUP3 ADD MLOAD DUP2 PUSH0 ADD PUSH0 PUSH2 0x100 EXP DUP2 SLOAD DUP2 PUSH1 0xFF MUL NOT AND SWAP1 DUP4 ISZERO ISZERO MUL OR SWAP1 SSTORE POP PUSH1 0x20 DUP3 ADD MLOAD DUP2 PUSH0 ADD PUSH1 0x1 PUSH2 0x100 EXP DUP2 SLOAD DUP2 PUSH1 0xFF MUL NOT AND SWAP1 DUP4 ISZERO ISZERO MUL OR SWAP1 SSTORE POP PUSH1 0x40 DUP3 ADD MLOAD DUP2 PUSH0 ADD PUSH1 0x2 PUSH2 0x100 EXP DUP2 SLOAD DUP2 PUSH1 0xFF MUL NOT AND SWAP1 DUP4 ISZERO ISZERO MUL OR SWAP1 SSTORE POP PUSH1 0x60 DUP3 ADD MLOAD DUP2 PUSH0 ADD PUSH1 0x3 PUSH2 0x100 EXP DUP2 SLOAD DUP2 PUSH1 0xFF MUL NOT AND SWAP1 DUP4 ISZERO ISZERO MUL OR SWAP1 SSTORE POP SWAP1 POP POP POP POP POP POP POP JUMP JUMPDEST PUSH0 PUSH1 0x20 MSTORE DUP1 PUSH0 MSTORE PUSH1 0x40 PUSH0 KECCAK256 PUSH0 SWAP2 POP SWAP1 POP DUP1 PUSH0 ADD PUSH0 SWAP1 SLOAD SWAP1 PUSH2 0x100 EXP SWAP1 DIV PUSH1 0xFF AND SWAP1 DUP1 PUSH0 ADD PUSH1 0x1 SWAP1 SLOAD SWAP1 PUSH2 0x100 EXP SWAP1 DIV PUSH1 0xFF AND SWAP1 DUP1 PUSH0 ADD PUSH1 0x2 SWAP1 SLOAD SWAP1 PUSH2 0x100 EXP SWAP1 DIV PUSH1 0xFF AND SWAP1 DUP1 PUSH0 ADD PUSH1 0x3 SWAP1 SLOAD SWAP1 PUSH2 0x100 EXP SWAP1 DIV PUSH1 0xFF AND SWAP1 POP DUP5 JUMP JUMPDEST PUSH0 PUSH0 REVERT JUMPDEST PUSH0 PUSH20 0xFFFFFFFFFFFFFFFFFFFFFFFFFFFFFFFFFFFFFFFF DUP3 AND SWAP1 POP SWAP2 SWAP1 POP JUMP JUMPDEST PUSH0 PUSH2 0x318 DUP3 PUSH2 0x2EF JUMP JUMPDEST SWAP1 POP SWAP2 SWAP1 POP JUMP JUMPDEST PUSH2 0x328 DUP2 PUSH2 0x30E JUMP JUMPDEST DUP2 EQ PUSH2 0x332 JUMPI PUSH0 PUSH0 REVERT JUMPDEST POP JUMP JUMPDEST PUSH0 DUP2 CALLDATALOAD SWAP1 POP PUSH2 0x343 DUP2 PUSH2 0x31F JUMP JUMPDEST SWAP3 SWAP2 POP POP JUMP JUMPDEST PUSH0 PUSH1 0x20 DUP3 DUP5 SUB SLT ISZERO PUSH2 0x35E JUMPI PUSH2 0x35D PUSH2 0x2EB JUMP JUMPDEST JUMPDEST PUSH0 PUSH2 0x36B DUP5 DUP3 DUP6 ADD PUSH2 0x335 JUMP JUMPDEST SWAP2 POP POP SWAP3 SWAP2 POP POP JUMP JUMPDEST PUSH0 DUP2 ISZERO ISZERO SWAP1 POP SWAP2 SWAP1 POP JUMP JUMPDEST PUSH2 0x388 DUP2 PUSH2 0x374 JUMP JUMPDEST DUP3 MSTORE POP POP JUMP JUMPDEST PUSH0 PUSH1 0x20 DUP3 ADD SWAP1 POP PUSH2 0x3A1 PUSH0 DUP4 ADD DUP5 PUSH2 0x37F JUMP JUMPDEST SWAP3 SWAP2 POP POP JUMP JUMPDEST PUSH2 0x3B0 DUP2 PUSH2 0x374 JUMP JUMPDEST DUP2 EQ PUSH2 0x3BA JUMPI PUSH0 PUSH0 REVERT JUMPDEST POP JUMP JUMPDEST PUSH0 DUP2 CALLDATALOAD SWAP1 POP PUSH2 0x3CB DUP2 PUSH2 0x3A7 JUMP JUMPDEST SWAP3 SWAP2 POP POP JUMP JUMPDEST PUSH0 PUSH0 PUSH0 PUSH0 PUSH0 PUSH1 0xA0 DUP7 DUP9 SUB SLT ISZERO PUSH2 0x3EA JUMPI PUSH2 0x3E9 PUSH2 0x2EB JUMP JUMPDEST JUMPDEST PUSH0 PUSH2 0x3F7 DUP9 DUP3 DUP10 ADD PUSH2 0x335 JUMP JUMPDEST SWAP6 POP POP PUSH1 0x20 PUSH2 0x408 DUP9 DUP3 DUP10 ADD PUSH2 0x3BD JUMP JUMPDEST SWAP5 POP POP PUSH1 0x40 PUSH2 0x419 DUP9 DUP3 DUP10 ADD PUSH2 0x3BD JUMP JUMPDEST SWAP4 POP POP PUSH1 0x60 PUSH2 0x42A DUP9 DUP3 DUP10 ADD PUSH2 0x3BD JUMP JUMPDEST SWAP3 POP POP PUSH1 0x80 PUSH2 0x43B DUP9 DUP3 DUP10 ADD PUSH2 0x3BD JUMP JUMPDEST SWAP2 POP POP SWAP3 SWAP6 POP SWAP3 SWAP6 SWAP1 SWAP4 POP JUMP JUMPDEST PUSH0 PUSH1 0x80 DUP3 ADD SWAP1 POP PUSH2 0x45B PUSH0 DUP4 ADD DUP8 PUSH2 0x37F JUMP JUMPDEST PUSH2 0x468 PUSH1 0x20 DUP4 ADD DUP7 PUSH2 0x37F JUMP JUMPDEST PUSH2 0x475 PUSH1 0x40 DUP4 ADD DUP6 PUSH2 0x37F JUMP JUMPDEST PUSH2 0x482 PUSH1 0x60 DUP4 ADD DUP5 PUSH2 0x37F JUMP JUMPDEST SWAP6 SWAP5 POP POP POP POP POP JUMP INVALID LOG2 PUSH5 0x6970667358 0x22 SLT KECCAK256 PUSH22 0x7349C19DEA9E98CDF6A788D723F16AF4AF3318FAC11E 0xDA 0x2E DUP13 BLOBBASEFEE RETURNDATASIZE ADDRESS 0xD5 EXTSTATICCALL SHL PUSH5 0x736F6C6343 STOP ADDMOD SAR STOP CALLER "
				},
				"gasEstimates": {
					"creation": {
						"codeDepositCost": "243400",
						"executionCost": "285",
						"totalCost": "243685"
					},
					"external": {
						"isLikelyCompliant(address)": "9692",
						"registerToken(address,bool,bool,bool,bool)": "infinite",
						"tokens(address)": "infinite"
					}
				},
				"methodIdentifiers": {
					"isLikelyCompliant(address)": "66d7d040",
					"registerToken(address,bool,bool,bool,bool)": "bd92d5f7",
					"tokens(address)": "e4860339"
				}
			},
			"storageLayout": {
				"storage": [
					{
						"astId": 14,
						"contract": "H/Howey Shield Contract (Meta-Compliant Filter).sol:HoweyShield",
						"label": "tokens",
						"offset": 0,
						"slot": "0",
						"type": "t_mapping(t_address,t_struct(TokenMeta)9_storage)"
					}
				],
				"types": {
					"t_address": {
						"encoding": "inplace",
						"label": "address",
						"numberOfBytes": "20"
					},
					"t_bool": {
						"encoding": "inplace",
						"label": "bool",
						"numberOfBytes": "1"
					},
					"t_mapping(t_address,t_struct(TokenMeta)9_storage)": {
						"encoding": "mapping",
						"key": "t_address",
						"label": "mapping(address => struct HoweyShield.TokenMeta)",
						"numberOfBytes": "32",
						"value": "t_struct(TokenMeta)9_storage"
					},
					"t_struct(TokenMeta)9_storage": {
						"encoding": "inplace",
						"label": "struct HoweyShield.TokenMeta",
						"members": [
							{
								"astId": 2,
								"contract": "H/Howey Shield Contract (Meta-Compliant Filter).sol:HoweyShield",
								"label": "noInvestment",
								"offset": 0,
								"slot": "0",
								"type": "t_bool"
							},
							{
								"astId": 4,
								"contract": "H/Howey Shield Contract (Meta-Compliant Filter).sol:HoweyShield",
								"label": "noProfit",
								"offset": 1,
								"slot": "0",
								"type": "t_bool"
							},
							{
								"astId": 6,
								"contract": "H/Howey Shield Contract (Meta-Compliant Filter).sol:HoweyShield",
								"label": "decentralized",
								"offset": 2,
								"slot": "0",
								"type": "t_bool"
							},
							{
								"astId": 8,
								"contract": "H/Howey Shield Contract (Meta-Compliant Filter).sol:HoweyShield",
								"label": "noPooling",
								"offset": 3,
								"slot": "0",
								"type": "t_bool"
							}
						],
						"numberOfBytes": "32"
					}
				}
			},
			"userdoc": {
				"kind": "user",
				"methods": {},
				"version": 1
			}
		}
	}
}