{
	"H/HODL.sol": {
		"HODLVault": {
			"abi": [
				{
					"inputs": [
						{
							"internalType": "uint256",
							"name": "_lockDuration",
							"type": "uint256"
						}
					],
					"stateMutability": "payable",
					"type": "constructor"
				},
				{
					"anonymous": false,
					"inputs": [
						{
							"indexed": true,
							"internalType": "address",
							"name": "user",
							"type": "address"
						},
						{
							"indexed": false,
							"internalType": "uint256",
							"name": "amount",
							"type": "uint256"
						}
					],
					"name": "HODLCompleted",
					"type": "event"
				},
				{
					"anonymous": false,
					"inputs": [
						{
							"indexed": true,
							"internalType": "address",
							"name": "user",
							"type": "address"
						},
						{
							"indexed": false,
							"internalType": "uint256",
							"name": "amount",
							"type": "uint256"
						},
						{
							"indexed": false,
							"internalType": "uint256",
							"name": "until",
							"type": "uint256"
						}
					],
					"name": "HODLStarted",
					"type": "event"
				},
				{
					"inputs": [],
					"name": "claim",
					"outputs": [],
					"stateMutability": "nonpayable",
					"type": "function"
				},
				{
					"inputs": [],
					"name": "getTimeLeft",
					"outputs": [
						{
							"internalType": "uint256",
							"name": "",
							"type": "uint256"
						}
					],
					"stateMutability": "view",
					"type": "function"
				},
				{
					"inputs": [],
					"name": "owner",
					"outputs": [
						{
							"internalType": "address",
							"name": "",
							"type": "address"
						}
					],
					"stateMutability": "view",
					"type": "function"
				},
				{
					"inputs": [],
					"name": "unlockTime",
					"outputs": [
						{
							"internalType": "uint256",
							"name": "",
							"type": "uint256"
						}
					],
					"stateMutability": "view",
					"type": "function"
				}
			],
			"devdoc": {
				"kind": "dev",
				"methods": {},
				"version": 1
			},
			"evm": {
				"assembly": "    /* \"H/HODL.sol\":58:972  contract HODLVault {... */\n  mstore(0x40, 0x80)\n    /* \"H/HODL.sol\":281:516  constructor(uint256 _lockDuration) payable {... */\n  mload(0x40)\n  sub(codesize, bytecodeSize)\n  dup1\n  bytecodeSize\n  dup4\n  codecopy\n  dup2\n  dup2\n  add\n  0x40\n  mstore\n  dup2\n  add\n  swap1\n  tag_1\n  swap2\n  swap1\n  tag_2\n  jump\t// in\ntag_1:\n    /* \"H/HODL.sol\":354:355  0 */\n  0x00\n    /* \"H/HODL.sol\":342:351  msg.value */\n  callvalue\n    /* \"H/HODL.sol\":342:355  msg.value > 0 */\n  gt\n    /* \"H/HODL.sol\":334:371  require(msg.value > 0, \"No ETH sent\") */\n  tag_5\n  jumpi\n  mload(0x40)\n  0x08c379a000000000000000000000000000000000000000000000000000000000\n  dup2\n  mstore\n  0x04\n  add\n  tag_6\n  swap1\n  tag_7\n  jump\t// in\ntag_6:\n  mload(0x40)\n  dup1\n  swap2\n  sub\n  swap1\n  revert\ntag_5:\n    /* \"H/HODL.sol\":389:399  msg.sender */\n  caller\n    /* \"H/HODL.sol\":381:386  owner */\n  0x00\n  0x00\n    /* \"H/HODL.sol\":381:399  owner = msg.sender */\n  0x0100\n  exp\n  dup2\n  sload\n  dup2\n  0xffffffffffffffffffffffffffffffffffffffff\n  mul\n  not\n  and\n  swap1\n  dup4\n  0xffffffffffffffffffffffffffffffffffffffff\n  and\n  mul\n  or\n  swap1\n  sstore\n  pop\n    /* \"H/HODL.sol\":440:453  _lockDuration */\n  dup1\n    /* \"H/HODL.sol\":422:437  block.timestamp */\n  timestamp\n    /* \"H/HODL.sol\":422:453  block.timestamp + _lockDuration */\n  tag_8\n  swap2\n  swap1\n  tag_9\n  jump\t// in\ntag_8:\n    /* \"H/HODL.sol\":409:419  unlockTime */\n  0x01\n    /* \"H/HODL.sol\":409:453  unlockTime = block.timestamp + _lockDuration */\n  dup2\n  swap1\n  sstore\n  pop\n    /* \"H/HODL.sol\":480:485  owner */\n  0x00\n  0x00\n  swap1\n  sload\n  swap1\n  0x0100\n  exp\n  swap1\n  div\n  0xffffffffffffffffffffffffffffffffffffffff\n  and\n    /* \"H/HODL.sol\":468:509  HODLStarted(owner, msg.value, unlockTime) */\n  0xffffffffffffffffffffffffffffffffffffffff\n  and\n  0x8c99b713841464f26ec8a23f8c71a743f24f6a43d5f6d039864dd34efac6f636\n    /* \"H/HODL.sol\":487:496  msg.value */\n  callvalue\n    /* \"H/HODL.sol\":498:508  unlockTime */\n  sload(0x01)\n    /* \"H/HODL.sol\":468:509  HODLStarted(owner, msg.value, unlockTime) */\n  mload(0x40)\n  tag_10\n  swap3\n  swap2\n  swap1\n  tag_11\n  jump\t// in\ntag_10:\n  mload(0x40)\n  dup1\n  swap2\n  sub\n  swap1\n  log2\n    /* \"H/HODL.sol\":281:516  constructor(uint256 _lockDuration) payable {... */\n  pop\n    /* \"H/HODL.sol\":58:972  contract HODLVault {... */\n  jump(tag_12)\n    /* \"#utility.yul\":88:205   */\ntag_14:\n    /* \"#utility.yul\":197:198   */\n  0x00\n    /* \"#utility.yul\":194:195   */\n  0x00\n    /* \"#utility.yul\":187:199   */\n  revert\n    /* \"#utility.yul\":334:411   */\ntag_16:\n    /* \"#utility.yul\":371:378   */\n  0x00\n    /* \"#utility.yul\":400:405   */\n  dup2\n    /* \"#utility.yul\":389:405   */\n  swap1\n  pop\n    /* \"#utility.yul\":334:411   */\n  swap2\n  swap1\n  pop\n  jump\t// out\n    /* \"#utility.yul\":417:539   */\ntag_17:\n    /* \"#utility.yul\":490:514   */\n  tag_30\n    /* \"#utility.yul\":508:513   */\n  dup2\n    /* \"#utility.yul\":490:514   */\n  tag_16\n  jump\t// in\ntag_30:\n    /* \"#utility.yul\":483:488   */\n  dup2\n    /* \"#utility.yul\":480:515   */\n  eq\n    /* \"#utility.yul\":470:533   */\n  tag_31\n  jumpi\n    /* \"#utility.yul\":529:530   */\n  0x00\n    /* \"#utility.yul\":526:527   */\n  0x00\n    /* \"#utility.yul\":519:531   */\n  revert\n    /* \"#utility.yul\":470:533   */\ntag_31:\n    /* \"#utility.yul\":417:539   */\n  pop\n  jump\t// out\n    /* \"#utility.yul\":545:688   */\ntag_18:\n    /* \"#utility.yul\":602:607   */\n  0x00\n    /* \"#utility.yul\":633:639   */\n  dup2\n    /* \"#utility.yul\":627:640   */\n  mload\n    /* \"#utility.yul\":618:640   */\n  swap1\n  pop\n    /* \"#utility.yul\":649:682   */\n  tag_33\n    /* \"#utility.yul\":676:681   */\n  dup2\n    /* \"#utility.yul\":649:682   */\n  tag_17\n  jump\t// in\ntag_33:\n    /* \"#utility.yul\":545:688   */\n  swap3\n  swap2\n  pop\n  pop\n  jump\t// out\n    /* \"#utility.yul\":694:1045   */\ntag_2:\n    /* \"#utility.yul\":764:770   */\n  0x00\n    /* \"#utility.yul\":813:815   */\n  0x20\n    /* \"#utility.yul\":801:810   */\n  dup3\n    /* \"#utility.yul\":792:799   */\n  dup5\n    /* \"#utility.yul\":788:811   */\n  sub\n    /* \"#utility.yul\":784:816   */\n  slt\n    /* \"#utility.yul\":781:900   */\n  iszero\n  tag_35\n  jumpi\n    /* \"#utility.yul\":819:898   */\n  tag_36\n  tag_14\n  jump\t// in\ntag_36:\n    /* \"#utility.yul\":781:900   */\ntag_35:\n    /* \"#utility.yul\":939:940   */\n  0x00\n    /* \"#utility.yul\":964:1028   */\n  tag_37\n    /* \"#utility.yul\":1020:1027   */\n  dup5\n    /* \"#utility.yul\":1011:1017   */\n  dup3\n    /* \"#utility.yul\":1000:1009   */\n  dup6\n    /* \"#utility.yul\":996:1018   */\n  add\n    /* \"#utility.yul\":964:1028   */\n  tag_18\n  jump\t// in\ntag_37:\n    /* \"#utility.yul\":954:1028   */\n  swap2\n  pop\n    /* \"#utility.yul\":910:1038   */\n  pop\n    /* \"#utility.yul\":694:1045   */\n  swap3\n  swap2\n  pop\n  pop\n  jump\t// out\n    /* \"#utility.yul\":1051:1220   */\ntag_19:\n    /* \"#utility.yul\":1135:1146   */\n  0x00\n    /* \"#utility.yul\":1169:1175   */\n  dup3\n    /* \"#utility.yul\":1164:1167   */\n  dup3\n    /* \"#utility.yul\":1157:1176   */\n  mstore\n    /* \"#utility.yul\":1209:1213   */\n  0x20\n    /* \"#utility.yul\":1204:1207   */\n  dup3\n    /* \"#utility.yul\":1200:1214   */\n  add\n    /* \"#utility.yul\":1185:1214   */\n  swap1\n  pop\n    /* \"#utility.yul\":1051:1220   */\n  swap3\n  swap2\n  pop\n  pop\n  jump\t// out\n    /* \"#utility.yul\":1226:1387   */\ntag_20:\n    /* \"#utility.yul\":1366:1379   */\n  0x4e6f204554482073656e74000000000000000000000000000000000000000000\n    /* \"#utility.yul\":1362:1363   */\n  0x00\n    /* \"#utility.yul\":1354:1360   */\n  dup3\n    /* \"#utility.yul\":1350:1364   */\n  add\n    /* \"#utility.yul\":1343:1380   */\n  mstore\n    /* \"#utility.yul\":1226:1387   */\n  pop\n  jump\t// out\n    /* \"#utility.yul\":1393:1759   */\ntag_21:\n    /* \"#utility.yul\":1535:1538   */\n  0x00\n    /* \"#utility.yul\":1556:1623   */\n  tag_41\n    /* \"#utility.yul\":1620:1622   */\n  0x0b\n    /* \"#utility.yul\":1615:1618   */\n  dup4\n    /* \"#utility.yul\":1556:1623   */\n  tag_19\n  jump\t// in\ntag_41:\n    /* \"#utility.yul\":1549:1623   */\n  swap2\n  pop\n    /* \"#utility.yul\":1632:1725   */\n  tag_42\n    /* \"#utility.yul\":1721:1724   */\n  dup3\n    /* \"#utility.yul\":1632:1725   */\n  tag_20\n  jump\t// in\ntag_42:\n    /* \"#utility.yul\":1750:1752   */\n  0x20\n    /* \"#utility.yul\":1745:1748   */\n  dup3\n    /* \"#utility.yul\":1741:1753   */\n  add\n    /* \"#utility.yul\":1734:1753   */\n  swap1\n  pop\n    /* \"#utility.yul\":1393:1759   */\n  swap2\n  swap1\n  pop\n  jump\t// out\n    /* \"#utility.yul\":1765:2184   */\ntag_7:\n    /* \"#utility.yul\":1931:1935   */\n  0x00\n    /* \"#utility.yul\":1969:1971   */\n  0x20\n    /* \"#utility.yul\":1958:1967   */\n  dup3\n    /* \"#utility.yul\":1954:1972   */\n  add\n    /* \"#utility.yul\":1946:1972   */\n  swap1\n  pop\n    /* \"#utility.yul\":2018:2027   */\n  dup2\n    /* \"#utility.yul\":2012:2016   */\n  dup2\n    /* \"#utility.yul\":2008:2028   */\n  sub\n    /* \"#utility.yul\":2004:2005   */\n  0x00\n    /* \"#utility.yul\":1993:2002   */\n  dup4\n    /* \"#utility.yul\":1989:2006   */\n  add\n    /* \"#utility.yul\":1982:2029   */\n  mstore\n    /* \"#utility.yul\":2046:2177   */\n  tag_44\n    /* \"#utility.yul\":2172:2176   */\n  dup2\n    /* \"#utility.yul\":2046:2177   */\n  tag_21\n  jump\t// in\ntag_44:\n    /* \"#utility.yul\":2038:2177   */\n  swap1\n  pop\n    /* \"#utility.yul\":1765:2184   */\n  swap2\n  swap1\n  pop\n  jump\t// out\n    /* \"#utility.yul\":2190:2370   */\ntag_22:\n    /* \"#utility.yul\":2238:2315   */\n  0x4e487b7100000000000000000000000000000000000000000000000000000000\n    /* \"#utility.yul\":2235:2236   */\n  0x00\n    /* \"#utility.yul\":2228:2316   */\n  mstore\n    /* \"#utility.yul\":2335:2339   */\n  0x11\n    /* \"#utility.yul\":2332:2333   */\n  0x04\n    /* \"#utility.yul\":2325:2340   */\n  mstore\n    /* \"#utility.yul\":2359:2363   */\n  0x24\n    /* \"#utility.yul\":2356:2357   */\n  0x00\n    /* \"#utility.yul\":2349:2364   */\n  revert\n    /* \"#utility.yul\":2376:2567   */\ntag_9:\n    /* \"#utility.yul\":2416:2419   */\n  0x00\n    /* \"#utility.yul\":2435:2455   */\n  tag_47\n    /* \"#utility.yul\":2453:2454   */\n  dup3\n    /* \"#utility.yul\":2435:2455   */\n  tag_16\n  jump\t// in\ntag_47:\n    /* \"#utility.yul\":2430:2455   */\n  swap2\n  pop\n    /* \"#utility.yul\":2469:2489   */\n  tag_48\n    /* \"#utility.yul\":2487:2488   */\n  dup4\n    /* \"#utility.yul\":2469:2489   */\n  tag_16\n  jump\t// in\ntag_48:\n    /* \"#utility.yul\":2464:2489   */\n  swap3\n  pop\n    /* \"#utility.yul\":2512:2513   */\n  dup3\n    /* \"#utility.yul\":2509:2510   */\n  dup3\n    /* \"#utility.yul\":2505:2514   */\n  add\n    /* \"#utility.yul\":2498:2514   */\n  swap1\n  pop\n    /* \"#utility.yul\":2533:2536   */\n  dup1\n    /* \"#utility.yul\":2530:2531   */\n  dup3\n    /* \"#utility.yul\":2527:2537   */\n  gt\n    /* \"#utility.yul\":2524:2560   */\n  iszero\n  tag_49\n  jumpi\n    /* \"#utility.yul\":2540:2558   */\n  tag_50\n  tag_22\n  jump\t// in\ntag_50:\n    /* \"#utility.yul\":2524:2560   */\ntag_49:\n    /* \"#utility.yul\":2376:2567   */\n  swap3\n  swap2\n  pop\n  pop\n  jump\t// out\n    /* \"#utility.yul\":2573:2691   */\ntag_23:\n    /* \"#utility.yul\":2660:2684   */\n  tag_52\n    /* \"#utility.yul\":2678:2683   */\n  dup2\n    /* \"#utility.yul\":2660:2684   */\n  tag_16\n  jump\t// in\ntag_52:\n    /* \"#utility.yul\":2655:2658   */\n  dup3\n    /* \"#utility.yul\":2648:2685   */\n  mstore\n    /* \"#utility.yul\":2573:2691   */\n  pop\n  pop\n  jump\t// out\n    /* \"#utility.yul\":2697:3029   */\ntag_11:\n    /* \"#utility.yul\":2818:2822   */\n  0x00\n    /* \"#utility.yul\":2856:2858   */\n  0x40\n    /* \"#utility.yul\":2845:2854   */\n  dup3\n    /* \"#utility.yul\":2841:2859   */\n  add\n    /* \"#utility.yul\":2833:2859   */\n  swap1\n  pop\n    /* \"#utility.yul\":2869:2940   */\n  tag_54\n    /* \"#utility.yul\":2937:2938   */\n  0x00\n    /* \"#utility.yul\":2926:2935   */\n  dup4\n    /* \"#utility.yul\":2922:2939   */\n  add\n    /* \"#utility.yul\":2913:2919   */\n  dup6\n    /* \"#utility.yul\":2869:2940   */\n  tag_23\n  jump\t// in\ntag_54:\n    /* \"#utility.yul\":2950:3022   */\n  tag_55\n    /* \"#utility.yul\":3018:3020   */\n  0x20\n    /* \"#utility.yul\":3007:3016   */\n  dup4\n    /* \"#utility.yul\":3003:3021   */\n  add\n    /* \"#utility.yul\":2994:3000   */\n  dup5\n    /* \"#utility.yul\":2950:3022   */\n  tag_23\n  jump\t// in\ntag_55:\n    /* \"#utility.yul\":2697:3029   */\n  swap4\n  swap3\n  pop\n  pop\n  pop\n  jump\t// out\n    /* \"H/HODL.sol\":58:972  contract HODLVault {... */\ntag_12:\n  dataSize(sub_0)\n  dup1\n  dataOffset(sub_0)\n  0x00\n  codecopy\n  0x00\n  return\nstop\n\nsub_0: assembly {\n        /* \"H/HODL.sol\":58:972  contract HODLVault {... */\n      mstore(0x40, 0x80)\n      callvalue\n      dup1\n      iszero\n      tag_1\n      jumpi\n      revert(0x00, 0x00)\n    tag_1:\n      pop\n      jumpi(tag_2, lt(calldatasize, 0x04))\n      shr(0xe0, calldataload(0x00))\n      dup1\n      0x251c1aa3\n      eq\n      tag_3\n      jumpi\n      dup1\n      0x4e71d92d\n      eq\n      tag_4\n      jumpi\n      dup1\n      0x8da5cb5b\n      eq\n      tag_5\n      jumpi\n      dup1\n      0xc7e284b8\n      eq\n      tag_6\n      jumpi\n    tag_2:\n      revert(0x00, 0x00)\n        /* \"H/HODL.sol\":109:134  uint256 public unlockTime */\n    tag_3:\n      tag_7\n      tag_8\n      jump\t// in\n    tag_7:\n      mload(0x40)\n      tag_9\n      swap2\n      swap1\n      tag_10\n      jump\t// in\n    tag_9:\n      mload(0x40)\n      dup1\n      swap2\n      sub\n      swap1\n      return\n        /* \"H/HODL.sol\":522:804  function claim() external {... */\n    tag_4:\n      tag_11\n      tag_12\n      jump\t// in\n    tag_11:\n      stop\n        /* \"H/HODL.sol\":83:103  address public owner */\n    tag_5:\n      tag_13\n      tag_14\n      jump\t// in\n    tag_13:\n      mload(0x40)\n      tag_15\n      swap2\n      swap1\n      tag_16\n      jump\t// in\n    tag_15:\n      mload(0x40)\n      dup1\n      swap2\n      sub\n      swap1\n      return\n        /* \"H/HODL.sol\":810:970  function getTimeLeft() external view returns (uint256) {... */\n    tag_6:\n      tag_17\n      tag_18\n      jump\t// in\n    tag_17:\n      mload(0x40)\n      tag_19\n      swap2\n      swap1\n      tag_10\n      jump\t// in\n    tag_19:\n      mload(0x40)\n      dup1\n      swap2\n      sub\n      swap1\n      return\n        /* \"H/HODL.sol\":109:134  uint256 public unlockTime */\n    tag_8:\n      sload(0x01)\n      dup2\n      jump\t// out\n        /* \"H/HODL.sol\":522:804  function claim() external {... */\n    tag_12:\n        /* \"H/HODL.sol\":580:585  owner */\n      0x00\n      0x00\n      swap1\n      sload\n      swap1\n      0x0100\n      exp\n      swap1\n      div\n      0xffffffffffffffffffffffffffffffffffffffff\n      and\n        /* \"H/HODL.sol\":566:585  msg.sender == owner */\n      0xffffffffffffffffffffffffffffffffffffffff\n      and\n        /* \"H/HODL.sol\":566:576  msg.sender */\n      caller\n        /* \"H/HODL.sol\":566:585  msg.sender == owner */\n      0xffffffffffffffffffffffffffffffffffffffff\n      and\n      eq\n        /* \"H/HODL.sol\":558:599  require(msg.sender == owner, \"Not owner\") */\n      tag_21\n      jumpi\n      mload(0x40)\n      0x08c379a000000000000000000000000000000000000000000000000000000000\n      dup2\n      mstore\n      0x04\n      add\n      tag_22\n      swap1\n      tag_23\n      jump\t// in\n    tag_22:\n      mload(0x40)\n      dup1\n      swap2\n      sub\n      swap1\n      revert\n    tag_21:\n        /* \"H/HODL.sol\":636:646  unlockTime */\n      sload(0x01)\n        /* \"H/HODL.sol\":617:632  block.timestamp */\n      timestamp\n        /* \"H/HODL.sol\":617:646  block.timestamp >= unlockTime */\n      lt\n      iszero\n        /* \"H/HODL.sol\":609:664  require(block.timestamp >= unlockTime, \"Still HODLing\") */\n      tag_24\n      jumpi\n      mload(0x40)\n      0x08c379a000000000000000000000000000000000000000000000000000000000\n      dup2\n      mstore\n      0x04\n      add\n      tag_25\n      swap1\n      tag_26\n      jump\t// in\n    tag_25:\n      mload(0x40)\n      dup1\n      swap2\n      sub\n      swap1\n      revert\n    tag_24:\n        /* \"H/HODL.sol\":675:689  uint256 amount */\n      0x00\n        /* \"H/HODL.sol\":692:713  address(this).balance */\n      selfbalance\n        /* \"H/HODL.sol\":675:713  uint256 amount = address(this).balance */\n      swap1\n      pop\n        /* \"H/HODL.sol\":731:736  owner */\n      0x00\n      0x00\n      swap1\n      sload\n      swap1\n      0x0100\n      exp\n      swap1\n      div\n      0xffffffffffffffffffffffffffffffffffffffff\n      and\n        /* \"H/HODL.sol\":723:746  payable(owner).transfer */\n      0xffffffffffffffffffffffffffffffffffffffff\n      and\n        /* \"H/HODL.sol\":723:754  payable(owner).transfer(amount) */\n      0x08fc\n        /* \"H/HODL.sol\":747:753  amount */\n      dup3\n        /* \"H/HODL.sol\":723:754  payable(owner).transfer(amount) */\n      swap1\n      dup2\n      iszero\n      mul\n      swap1\n      mload(0x40)\n      0x00\n      mload(0x40)\n      dup1\n      dup4\n      sub\n      dup2\n      dup6\n      dup9\n      dup9\n      call\n      swap4\n      pop\n      pop\n      pop\n      pop\n      iszero\n      dup1\n      iszero\n      tag_28\n      jumpi\n      returndatacopy(0x00, 0x00, returndatasize)\n      revert(0x00, returndatasize)\n    tag_28:\n      pop\n        /* \"H/HODL.sol\":783:788  owner */\n      0x00\n      0x00\n      swap1\n      sload\n      swap1\n      0x0100\n      exp\n      swap1\n      div\n      0xffffffffffffffffffffffffffffffffffffffff\n      and\n        /* \"H/HODL.sol\":769:797  HODLCompleted(owner, amount) */\n      0xffffffffffffffffffffffffffffffffffffffff\n      and\n      0x5672406724a2aeeb1b07a6f53d4b4d1d27a7c84b976821152a09082424bf6f79\n        /* \"H/HODL.sol\":790:796  amount */\n      dup3\n        /* \"H/HODL.sol\":769:797  HODLCompleted(owner, amount) */\n      mload(0x40)\n      tag_29\n      swap2\n      swap1\n      tag_10\n      jump\t// in\n    tag_29:\n      mload(0x40)\n      dup1\n      swap2\n      sub\n      swap1\n      log2\n        /* \"H/HODL.sol\":548:804  {... */\n      pop\n        /* \"H/HODL.sol\":522:804  function claim() external {... */\n      jump\t// out\n        /* \"H/HODL.sol\":83:103  address public owner */\n    tag_14:\n      0x00\n      0x00\n      swap1\n      sload\n      swap1\n      0x0100\n      exp\n      swap1\n      div\n      0xffffffffffffffffffffffffffffffffffffffff\n      and\n      dup2\n      jump\t// out\n        /* \"H/HODL.sol\":810:970  function getTimeLeft() external view returns (uint256) {... */\n    tag_18:\n        /* \"H/HODL.sol\":856:863  uint256 */\n      0x00\n        /* \"H/HODL.sol\":898:908  unlockTime */\n      sload(0x01)\n        /* \"H/HODL.sol\":879:894  block.timestamp */\n      timestamp\n        /* \"H/HODL.sol\":879:908  block.timestamp >= unlockTime */\n      lt\n        /* \"H/HODL.sol\":875:918  if (block.timestamp >= unlockTime) return 0 */\n      tag_31\n      jumpi\n        /* \"H/HODL.sol\":917:918  0 */\n      0x00\n        /* \"H/HODL.sol\":910:918  return 0 */\n      swap1\n      pop\n      jump(tag_30)\n        /* \"H/HODL.sol\":875:918  if (block.timestamp >= unlockTime) return 0 */\n    tag_31:\n        /* \"H/HODL.sol\":948:963  block.timestamp */\n      timestamp\n        /* \"H/HODL.sol\":935:945  unlockTime */\n      sload(0x01)\n        /* \"H/HODL.sol\":935:963  unlockTime - block.timestamp */\n      tag_32\n      swap2\n      swap1\n      tag_33\n      jump\t// in\n    tag_32:\n        /* \"H/HODL.sol\":928:963  return unlockTime - block.timestamp */\n      swap1\n      pop\n        /* \"H/HODL.sol\":810:970  function getTimeLeft() external view returns (uint256) {... */\n    tag_30:\n      swap1\n      jump\t// out\n        /* \"#utility.yul\":7:84   */\n    tag_34:\n        /* \"#utility.yul\":44:51   */\n      0x00\n        /* \"#utility.yul\":73:78   */\n      dup2\n        /* \"#utility.yul\":62:78   */\n      swap1\n      pop\n        /* \"#utility.yul\":7:84   */\n      swap2\n      swap1\n      pop\n      jump\t// out\n        /* \"#utility.yul\":90:208   */\n    tag_35:\n        /* \"#utility.yul\":177:201   */\n      tag_48\n        /* \"#utility.yul\":195:200   */\n      dup2\n        /* \"#utility.yul\":177:201   */\n      tag_34\n      jump\t// in\n    tag_48:\n        /* \"#utility.yul\":172:175   */\n      dup3\n        /* \"#utility.yul\":165:202   */\n      mstore\n        /* \"#utility.yul\":90:208   */\n      pop\n      pop\n      jump\t// out\n        /* \"#utility.yul\":214:436   */\n    tag_10:\n        /* \"#utility.yul\":307:311   */\n      0x00\n        /* \"#utility.yul\":345:347   */\n      0x20\n        /* \"#utility.yul\":334:343   */\n      dup3\n        /* \"#utility.yul\":330:348   */\n      add\n        /* \"#utility.yul\":322:348   */\n      swap1\n      pop\n        /* \"#utility.yul\":358:429   */\n      tag_50\n        /* \"#utility.yul\":426:427   */\n      0x00\n        /* \"#utility.yul\":415:424   */\n      dup4\n        /* \"#utility.yul\":411:428   */\n      add\n        /* \"#utility.yul\":402:408   */\n      dup5\n        /* \"#utility.yul\":358:429   */\n      tag_35\n      jump\t// in\n    tag_50:\n        /* \"#utility.yul\":214:436   */\n      swap3\n      swap2\n      pop\n      pop\n      jump\t// out\n        /* \"#utility.yul\":442:568   */\n    tag_36:\n        /* \"#utility.yul\":479:486   */\n      0x00\n        /* \"#utility.yul\":519:561   */\n      0xffffffffffffffffffffffffffffffffffffffff\n        /* \"#utility.yul\":512:517   */\n      dup3\n        /* \"#utility.yul\":508:562   */\n      and\n        /* \"#utility.yul\":497:562   */\n      swap1\n      pop\n        /* \"#utility.yul\":442:568   */\n      swap2\n      swap1\n      pop\n      jump\t// out\n        /* \"#utility.yul\":574:670   */\n    tag_37:\n        /* \"#utility.yul\":611:618   */\n      0x00\n        /* \"#utility.yul\":640:664   */\n      tag_53\n        /* \"#utility.yul\":658:663   */\n      dup3\n        /* \"#utility.yul\":640:664   */\n      tag_36\n      jump\t// in\n    tag_53:\n        /* \"#utility.yul\":629:664   */\n      swap1\n      pop\n        /* \"#utility.yul\":574:670   */\n      swap2\n      swap1\n      pop\n      jump\t// out\n        /* \"#utility.yul\":676:794   */\n    tag_38:\n        /* \"#utility.yul\":763:787   */\n      tag_55\n        /* \"#utility.yul\":781:786   */\n      dup2\n        /* \"#utility.yul\":763:787   */\n      tag_37\n      jump\t// in\n    tag_55:\n        /* \"#utility.yul\":758:761   */\n      dup3\n        /* \"#utility.yul\":751:788   */\n      mstore\n        /* \"#utility.yul\":676:794   */\n      pop\n      pop\n      jump\t// out\n        /* \"#utility.yul\":800:1022   */\n    tag_16:\n        /* \"#utility.yul\":893:897   */\n      0x00\n        /* \"#utility.yul\":931:933   */\n      0x20\n        /* \"#utility.yul\":920:929   */\n      dup3\n        /* \"#utility.yul\":916:934   */\n      add\n        /* \"#utility.yul\":908:934   */\n      swap1\n      pop\n        /* \"#utility.yul\":944:1015   */\n      tag_57\n        /* \"#utility.yul\":1012:1013   */\n      0x00\n        /* \"#utility.yul\":1001:1010   */\n      dup4\n        /* \"#utility.yul\":997:1014   */\n      add\n        /* \"#utility.yul\":988:994   */\n      dup5\n        /* \"#utility.yul\":944:1015   */\n      tag_38\n      jump\t// in\n    tag_57:\n        /* \"#utility.yul\":800:1022   */\n      swap3\n      swap2\n      pop\n      pop\n      jump\t// out\n        /* \"#utility.yul\":1028:1197   */\n    tag_39:\n        /* \"#utility.yul\":1112:1123   */\n      0x00\n        /* \"#utility.yul\":1146:1152   */\n      dup3\n        /* \"#utility.yul\":1141:1144   */\n      dup3\n        /* \"#utility.yul\":1134:1153   */\n      mstore\n        /* \"#utility.yul\":1186:1190   */\n      0x20\n        /* \"#utility.yul\":1181:1184   */\n      dup3\n        /* \"#utility.yul\":1177:1191   */\n      add\n        /* \"#utility.yul\":1162:1191   */\n      swap1\n      pop\n        /* \"#utility.yul\":1028:1197   */\n      swap3\n      swap2\n      pop\n      pop\n      jump\t// out\n        /* \"#utility.yul\":1203:1362   */\n    tag_40:\n        /* \"#utility.yul\":1343:1354   */\n      0x4e6f74206f776e65720000000000000000000000000000000000000000000000\n        /* \"#utility.yul\":1339:1340   */\n      0x00\n        /* \"#utility.yul\":1331:1337   */\n      dup3\n        /* \"#utility.yul\":1327:1341   */\n      add\n        /* \"#utility.yul\":1320:1355   */\n      mstore\n        /* \"#utility.yul\":1203:1362   */\n      pop\n      jump\t// out\n        /* \"#utility.yul\":1368:1733   */\n    tag_41:\n        /* \"#utility.yul\":1510:1513   */\n      0x00\n        /* \"#utility.yul\":1531:1597   */\n      tag_61\n        /* \"#utility.yul\":1595:1596   */\n      0x09\n        /* \"#utility.yul\":1590:1593   */\n      dup4\n        /* \"#utility.yul\":1531:1597   */\n      tag_39\n      jump\t// in\n    tag_61:\n        /* \"#utility.yul\":1524:1597   */\n      swap2\n      pop\n        /* \"#utility.yul\":1606:1699   */\n      tag_62\n        /* \"#utility.yul\":1695:1698   */\n      dup3\n        /* \"#utility.yul\":1606:1699   */\n      tag_40\n      jump\t// in\n    tag_62:\n        /* \"#utility.yul\":1724:1726   */\n      0x20\n        /* \"#utility.yul\":1719:1722   */\n      dup3\n        /* \"#utility.yul\":1715:1727   */\n      add\n        /* \"#utility.yul\":1708:1727   */\n      swap1\n      pop\n        /* \"#utility.yul\":1368:1733   */\n      swap2\n      swap1\n      pop\n      jump\t// out\n        /* \"#utility.yul\":1739:2158   */\n    tag_23:\n        /* \"#utility.yul\":1905:1909   */\n      0x00\n        /* \"#utility.yul\":1943:1945   */\n      0x20\n        /* \"#utility.yul\":1932:1941   */\n      dup3\n        /* \"#utility.yul\":1928:1946   */\n      add\n        /* \"#utility.yul\":1920:1946   */\n      swap1\n      pop\n        /* \"#utility.yul\":1992:2001   */\n      dup2\n        /* \"#utility.yul\":1986:1990   */\n      dup2\n        /* \"#utility.yul\":1982:2002   */\n      sub\n        /* \"#utility.yul\":1978:1979   */\n      0x00\n        /* \"#utility.yul\":1967:1976   */\n      dup4\n        /* \"#utility.yul\":1963:1980   */\n      add\n        /* \"#utility.yul\":1956:2003   */\n      mstore\n        /* \"#utility.yul\":2020:2151   */\n      tag_64\n        /* \"#utility.yul\":2146:2150   */\n      dup2\n        /* \"#utility.yul\":2020:2151   */\n      tag_41\n      jump\t// in\n    tag_64:\n        /* \"#utility.yul\":2012:2151   */\n      swap1\n      pop\n        /* \"#utility.yul\":1739:2158   */\n      swap2\n      swap1\n      pop\n      jump\t// out\n        /* \"#utility.yul\":2164:2327   */\n    tag_42:\n        /* \"#utility.yul\":2304:2319   */\n      0x5374696c6c20484f444c696e6700000000000000000000000000000000000000\n        /* \"#utility.yul\":2300:2301   */\n      0x00\n        /* \"#utility.yul\":2292:2298   */\n      dup3\n        /* \"#utility.yul\":2288:2302   */\n      add\n        /* \"#utility.yul\":2281:2320   */\n      mstore\n        /* \"#utility.yul\":2164:2327   */\n      pop\n      jump\t// out\n        /* \"#utility.yul\":2333:2699   */\n    tag_43:\n        /* \"#utility.yul\":2475:2478   */\n      0x00\n        /* \"#utility.yul\":2496:2563   */\n      tag_67\n        /* \"#utility.yul\":2560:2562   */\n      0x0d\n        /* \"#utility.yul\":2555:2558   */\n      dup4\n        /* \"#utility.yul\":2496:2563   */\n      tag_39\n      jump\t// in\n    tag_67:\n        /* \"#utility.yul\":2489:2563   */\n      swap2\n      pop\n        /* \"#utility.yul\":2572:2665   */\n      tag_68\n        /* \"#utility.yul\":2661:2664   */\n      dup3\n        /* \"#utility.yul\":2572:2665   */\n      tag_42\n      jump\t// in\n    tag_68:\n        /* \"#utility.yul\":2690:2692   */\n      0x20\n        /* \"#utility.yul\":2685:2688   */\n      dup3\n        /* \"#utility.yul\":2681:2693   */\n      add\n        /* \"#utility.yul\":2674:2693   */\n      swap1\n      pop\n        /* \"#utility.yul\":2333:2699   */\n      swap2\n      swap1\n      pop\n      jump\t// out\n        /* \"#utility.yul\":2705:3124   */\n    tag_26:\n        /* \"#utility.yul\":2871:2875   */\n      0x00\n        /* \"#utility.yul\":2909:2911   */\n      0x20\n        /* \"#utility.yul\":2898:2907   */\n      dup3\n        /* \"#utility.yul\":2894:2912   */\n      add\n        /* \"#utility.yul\":2886:2912   */\n      swap1\n      pop\n        /* \"#utility.yul\":2958:2967   */\n      dup2\n        /* \"#utility.yul\":2952:2956   */\n      dup2\n        /* \"#utility.yul\":2948:2968   */\n      sub\n        /* \"#utility.yul\":2944:2945   */\n      0x00\n        /* \"#utility.yul\":2933:2942   */\n      dup4\n        /* \"#utility.yul\":2929:2946   */\n      add\n        /* \"#utility.yul\":2922:2969   */\n      mstore\n        /* \"#utility.yul\":2986:3117   */\n      tag_70\n        /* \"#utility.yul\":3112:3116   */\n      dup2\n        /* \"#utility.yul\":2986:3117   */\n      tag_43\n      jump\t// in\n    tag_70:\n        /* \"#utility.yul\":2978:3117   */\n      swap1\n      pop\n        /* \"#utility.yul\":2705:3124   */\n      swap2\n      swap1\n      pop\n      jump\t// out\n        /* \"#utility.yul\":3130:3310   */\n    tag_44:\n        /* \"#utility.yul\":3178:3255   */\n      0x4e487b7100000000000000000000000000000000000000000000000000000000\n        /* \"#utility.yul\":3175:3176   */\n      0x00\n        /* \"#utility.yul\":3168:3256   */\n      mstore\n        /* \"#utility.yul\":3275:3279   */\n      0x11\n        /* \"#utility.yul\":3272:3273   */\n      0x04\n        /* \"#utility.yul\":3265:3280   */\n      mstore\n        /* \"#utility.yul\":3299:3303   */\n      0x24\n        /* \"#utility.yul\":3296:3297   */\n      0x00\n        /* \"#utility.yul\":3289:3304   */\n      revert\n        /* \"#utility.yul\":3316:3510   */\n    tag_33:\n        /* \"#utility.yul\":3356:3360   */\n      0x00\n        /* \"#utility.yul\":3376:3396   */\n      tag_73\n        /* \"#utility.yul\":3394:3395   */\n      dup3\n        /* \"#utility.yul\":3376:3396   */\n      tag_34\n      jump\t// in\n    tag_73:\n        /* \"#utility.yul\":3371:3396   */\n      swap2\n      pop\n        /* \"#utility.yul\":3410:3430   */\n      tag_74\n        /* \"#utility.yul\":3428:3429   */\n      dup4\n        /* \"#utility.yul\":3410:3430   */\n      tag_34\n      jump\t// in\n    tag_74:\n        /* \"#utility.yul\":3405:3430   */\n      swap3\n      pop\n        /* \"#utility.yul\":3454:3455   */\n      dup3\n        /* \"#utility.yul\":3451:3452   */\n      dup3\n        /* \"#utility.yul\":3447:3456   */\n      sub\n        /* \"#utility.yul\":3439:3456   */\n      swap1\n      pop\n        /* \"#utility.yul\":3478:3479   */\n      dup2\n        /* \"#utility.yul\":3472:3476   */\n      dup2\n        /* \"#utility.yul\":3469:3480   */\n      gt\n        /* \"#utility.yul\":3466:3503   */\n      iszero\n      tag_75\n      jumpi\n        /* \"#utility.yul\":3483:3501   */\n      tag_76\n      tag_44\n      jump\t// in\n    tag_76:\n        /* \"#utility.yul\":3466:3503   */\n    tag_75:\n        /* \"#utility.yul\":3316:3510   */\n      swap3\n      swap2\n      pop\n      pop\n      jump\t// out\n\n    auxdata: 0xa2646970667358221220110ccf3793107826b89fb98fdc94fc162cc33e1b140aa5938e5d80eef394ecba64736f6c634300081d0033\n}\n",
				"bytecode": {
					"linkReferences": {},
					"object": "608060405260405161075a38038061075a83398181016040528101906100259190610167565b5f3411610067576040517f08c379a000000000000000000000000000000000000000000000000000000000815260040161005e906101ec565b60405180910390fd5b335f5f6101000a81548173ffffffffffffffffffffffffffffffffffffffff021916908373ffffffffffffffffffffffffffffffffffffffff16021790555080426100b29190610237565b6001819055505f5f9054906101000a900473ffffffffffffffffffffffffffffffffffffffff1673ffffffffffffffffffffffffffffffffffffffff167f8c99b713841464f26ec8a23f8c71a743f24f6a43d5f6d039864dd34efac6f63634600154604051610122929190610279565b60405180910390a2506102a0565b5f5ffd5b5f819050919050565b61014681610134565b8114610150575f5ffd5b50565b5f815190506101618161013d565b92915050565b5f6020828403121561017c5761017b610130565b5b5f61018984828501610153565b91505092915050565b5f82825260208201905092915050565b7f4e6f204554482073656e740000000000000000000000000000000000000000005f82015250565b5f6101d6600b83610192565b91506101e1826101a2565b602082019050919050565b5f6020820190508181035f830152610203816101ca565b9050919050565b7f4e487b71000000000000000000000000000000000000000000000000000000005f52601160045260245ffd5b5f61024182610134565b915061024c83610134565b92508282019050808211156102645761026361020a565b5b92915050565b61027381610134565b82525050565b5f60408201905061028c5f83018561026a565b610299602083018461026a565b9392505050565b6104ad806102ad5f395ff3fe608060405234801561000f575f5ffd5b506004361061004a575f3560e01c8063251c1aa31461004e5780634e71d92d1461006c5780638da5cb5b14610076578063c7e284b814610094575b5f5ffd5b6100566100b2565b60405161006391906102c6565b60405180910390f35b6100746100b8565b005b61007e610264565b60405161008b919061031e565b60405180910390f35b61009c610288565b6040516100a991906102c6565b60405180910390f35b60015481565b5f5f9054906101000a900473ffffffffffffffffffffffffffffffffffffffff1673ffffffffffffffffffffffffffffffffffffffff163373ffffffffffffffffffffffffffffffffffffffff1614610146576040517f08c379a000000000000000000000000000000000000000000000000000000000815260040161013d90610391565b60405180910390fd5b60015442101561018b576040517f08c379a0000000000000000000000000000000000000000000000000000000008152600401610182906103f9565b60405180910390fd5b5f4790505f5f9054906101000a900473ffffffffffffffffffffffffffffffffffffffff1673ffffffffffffffffffffffffffffffffffffffff166108fc8290811502906040515f60405180830381858888f193505050501580156101f2573d5f5f3e3d5ffd5b505f5f9054906101000a900473ffffffffffffffffffffffffffffffffffffffff1673ffffffffffffffffffffffffffffffffffffffff167f5672406724a2aeeb1b07a6f53d4b4d1d27a7c84b976821152a09082424bf6f798260405161025991906102c6565b60405180910390a250565b5f5f9054906101000a900473ffffffffffffffffffffffffffffffffffffffff1681565b5f600154421061029a575f90506102ab565b426001546102a89190610444565b90505b90565b5f819050919050565b6102c0816102ae565b82525050565b5f6020820190506102d95f8301846102b7565b92915050565b5f73ffffffffffffffffffffffffffffffffffffffff82169050919050565b5f610308826102df565b9050919050565b610318816102fe565b82525050565b5f6020820190506103315f83018461030f565b92915050565b5f82825260208201905092915050565b7f4e6f74206f776e657200000000000000000000000000000000000000000000005f82015250565b5f61037b600983610337565b915061038682610347565b602082019050919050565b5f6020820190508181035f8301526103a88161036f565b9050919050565b7f5374696c6c20484f444c696e67000000000000000000000000000000000000005f82015250565b5f6103e3600d83610337565b91506103ee826103af565b602082019050919050565b5f6020820190508181035f830152610410816103d7565b9050919050565b7f4e487b71000000000000000000000000000000000000000000000000000000005f52601160045260245ffd5b5f61044e826102ae565b9150610459836102ae565b925082820390508181111561047157610470610417565b5b9291505056fea2646970667358221220110ccf3793107826b89fb98fdc94fc162cc33e1b140aa5938e5d80eef394ecba64736f6c634300081d0033",
					"opcodes": "PUSH1 0x80 PUSH1 0x40 MSTORE PUSH1 0x40 MLOAD PUSH2 0x75A CODESIZE SUB DUP1 PUSH2 0x75A DUP4 CODECOPY DUP2 DUP2 ADD PUSH1 0x40 MSTORE DUP2 ADD SWAP1 PUSH2 0x25 SWAP2 SWAP1 PUSH2 0x167 JUMP JUMPDEST PUSH0 CALLVALUE GT PUSH2 0x67 JUMPI PUSH1 0x40 MLOAD PUSH32 0x8C379A000000000000000000000000000000000000000000000000000000000 DUP2 MSTORE PUSH1 0x4 ADD PUSH2 0x5E SWAP1 PUSH2 0x1EC JUMP JUMPDEST PUSH1 0x40 MLOAD DUP1 SWAP2 SUB SWAP1 REVERT JUMPDEST CALLER PUSH0 PUSH0 PUSH2 0x100 EXP DUP2 SLOAD DUP2 PUSH20 0xFFFFFFFFFFFFFFFFFFFFFFFFFFFFFFFFFFFFFFFF MUL NOT AND SWAP1 DUP4 PUSH20 0xFFFFFFFFFFFFFFFFFFFFFFFFFFFFFFFFFFFFFFFF AND MUL OR SWAP1 SSTORE POP DUP1 TIMESTAMP PUSH2 0xB2 SWAP2 SWAP1 PUSH2 0x237 JUMP JUMPDEST PUSH1 0x1 DUP2 SWAP1 SSTORE POP PUSH0 PUSH0 SWAP1 SLOAD SWAP1 PUSH2 0x100 EXP SWAP1 DIV PUSH20 0xFFFFFFFFFFFFFFFFFFFFFFFFFFFFFFFFFFFFFFFF AND PUSH20 0xFFFFFFFFFFFFFFFFFFFFFFFFFFFFFFFFFFFFFFFF AND PUSH32 0x8C99B713841464F26EC8A23F8C71A743F24F6A43D5F6D039864DD34EFAC6F636 CALLVALUE PUSH1 0x1 SLOAD PUSH1 0x40 MLOAD PUSH2 0x122 SWAP3 SWAP2 SWAP1 PUSH2 0x279 JUMP JUMPDEST PUSH1 0x40 MLOAD DUP1 SWAP2 SUB SWAP1 LOG2 POP PUSH2 0x2A0 JUMP JUMPDEST PUSH0 PUSH0 REVERT JUMPDEST PUSH0 DUP2 SWAP1 POP SWAP2 SWAP1 POP JUMP JUMPDEST PUSH2 0x146 DUP2 PUSH2 0x134 JUMP JUMPDEST DUP2 EQ PUSH2 0x150 JUMPI PUSH0 PUSH0 REVERT JUMPDEST POP JUMP JUMPDEST PUSH0 DUP2 MLOAD SWAP1 POP PUSH2 0x161 DUP2 PUSH2 0x13D JUMP JUMPDEST SWAP3 SWAP2 POP POP JUMP JUMPDEST PUSH0 PUSH1 0x20 DUP3 DUP5 SUB SLT ISZERO PUSH2 0x17C JUMPI PUSH2 0x17B PUSH2 0x130 JUMP JUMPDEST JUMPDEST PUSH0 PUSH2 0x189 DUP5 DUP3 DUP6 ADD PUSH2 0x153 JUMP JUMPDEST SWAP2 POP POP SWAP3 SWAP2 POP POP JUMP JUMPDEST PUSH0 DUP3 DUP3 MSTORE PUSH1 0x20 DUP3 ADD SWAP1 POP SWAP3 SWAP2 POP POP JUMP JUMPDEST PUSH32 0x4E6F204554482073656E74000000000000000000000000000000000000000000 PUSH0 DUP3 ADD MSTORE POP JUMP JUMPDEST PUSH0 PUSH2 0x1D6 PUSH1 0xB DUP4 PUSH2 0x192 JUMP JUMPDEST SWAP2 POP PUSH2 0x1E1 DUP3 PUSH2 0x1A2 JUMP JUMPDEST PUSH1 0x20 DUP3 ADD SWAP1 POP SWAP2 SWAP1 POP JUMP JUMPDEST PUSH0 PUSH1 0x20 DUP3 ADD SWAP1 POP DUP2 DUP2 SUB PUSH0 DUP4 ADD MSTORE PUSH2 0x203 DUP2 PUSH2 0x1CA JUMP JUMPDEST SWAP1 POP SWAP2 SWAP1 POP JUMP JUMPDEST PUSH32 0x4E487B7100000000000000000000000000000000000000000000000000000000 PUSH0 MSTORE PUSH1 0x11 PUSH1 0x4 MSTORE PUSH1 0x24 PUSH0 REVERT JUMPDEST PUSH0 PUSH2 0x241 DUP3 PUSH2 0x134 JUMP JUMPDEST SWAP2 POP PUSH2 0x24C DUP4 PUSH2 0x134 JUMP JUMPDEST SWAP3 POP DUP3 DUP3 ADD SWAP1 POP DUP1 DUP3 GT ISZERO PUSH2 0x264 JUMPI PUSH2 0x263 PUSH2 0x20A JUMP JUMPDEST JUMPDEST SWAP3 SWAP2 POP POP JUMP JUMPDEST PUSH2 0x273 DUP2 PUSH2 0x134 JUMP JUMPDEST DUP3 MSTORE POP POP JUMP JUMPDEST PUSH0 PUSH1 0x40 DUP3 ADD SWAP1 POP PUSH2 0x28C PUSH0 DUP4 ADD DUP6 PUSH2 0x26A JUMP JUMPDEST PUSH2 0x299 PUSH1 0x20 DUP4 ADD DUP5 PUSH2 0x26A JUMP JUMPDEST SWAP4 SWAP3 POP POP POP JUMP JUMPDEST PUSH2 0x4AD DUP1 PUSH2 0x2AD PUSH0 CODECOPY PUSH0 RETURN INVALID PUSH1 0x80 PUSH1 0x40 MSTORE CALLVALUE DUP1 ISZERO PUSH2 0xF JUMPI PUSH0 PUSH0 REVERT JUMPDEST POP PUSH1 0x4 CALLDATASIZE LT PUSH2 0x4A JUMPI PUSH0 CALLDATALOAD PUSH1 0xE0 SHR DUP1 PUSH4 0x251C1AA3 EQ PUSH2 0x4E JUMPI DUP1 PUSH4 0x4E71D92D EQ PUSH2 0x6C JUMPI DUP1 PUSH4 0x8DA5CB5B EQ PUSH2 0x76 JUMPI DUP1 PUSH4 0xC7E284B8 EQ PUSH2 0x94 JUMPI JUMPDEST PUSH0 PUSH0 REVERT JUMPDEST PUSH2 0x56 PUSH2 0xB2 JUMP JUMPDEST PUSH1 0x40 MLOAD PUSH2 0x63 SWAP2 SWAP1 PUSH2 0x2C6 JUMP JUMPDEST PUSH1 0x40 MLOAD DUP1 SWAP2 SUB SWAP1 RETURN JUMPDEST PUSH2 0x74 PUSH2 0xB8 JUMP JUMPDEST STOP JUMPDEST PUSH2 0x7E PUSH2 0x264 JUMP JUMPDEST PUSH1 0x40 MLOAD PUSH2 0x8B SWAP2 SWAP1 PUSH2 0x31E JUMP JUMPDEST PUSH1 0x40 MLOAD DUP1 SWAP2 SUB SWAP1 RETURN JUMPDEST PUSH2 0x9C PUSH2 0x288 JUMP JUMPDEST PUSH1 0x40 MLOAD PUSH2 0xA9 SWAP2 SWAP1 PUSH2 0x2C6 JUMP JUMPDEST PUSH1 0x40 MLOAD DUP1 SWAP2 SUB SWAP1 RETURN JUMPDEST PUSH1 0x1 SLOAD DUP2 JUMP JUMPDEST PUSH0 PUSH0 SWAP1 SLOAD SWAP1 PUSH2 0x100 EXP SWAP1 DIV PUSH20 0xFFFFFFFFFFFFFFFFFFFFFFFFFFFFFFFFFFFFFFFF AND PUSH20 0xFFFFFFFFFFFFFFFFFFFFFFFFFFFFFFFFFFFFFFFF AND CALLER PUSH20 0xFFFFFFFFFFFFFFFFFFFFFFFFFFFFFFFFFFFFFFFF AND EQ PUSH2 0x146 JUMPI PUSH1 0x40 MLOAD PUSH32 0x8C379A000000000000000000000000000000000000000000000000000000000 DUP2 MSTORE PUSH1 0x4 ADD PUSH2 0x13D SWAP1 PUSH2 0x391 JUMP JUMPDEST PUSH1 0x40 MLOAD DUP1 SWAP2 SUB SWAP1 REVERT JUMPDEST PUSH1 0x1 SLOAD TIMESTAMP LT ISZERO PUSH2 0x18B JUMPI PUSH1 0x40 MLOAD PUSH32 0x8C379A000000000000000000000000000000000000000000000000000000000 DUP2 MSTORE PUSH1 0x4 ADD PUSH2 0x182 SWAP1 PUSH2 0x3F9 JUMP JUMPDEST PUSH1 0x40 MLOAD DUP1 SWAP2 SUB SWAP1 REVERT JUMPDEST PUSH0 SELFBALANCE SWAP1 POP PUSH0 PUSH0 SWAP1 SLOAD SWAP1 PUSH2 0x100 EXP SWAP1 DIV PUSH20 0xFFFFFFFFFFFFFFFFFFFFFFFFFFFFFFFFFFFFFFFF AND PUSH20 0xFFFFFFFFFFFFFFFFFFFFFFFFFFFFFFFFFFFFFFFF AND PUSH2 0x8FC DUP3 SWAP1 DUP2 ISZERO MUL SWAP1 PUSH1 0x40 MLOAD PUSH0 PUSH1 0x40 MLOAD DUP1 DUP4 SUB DUP2 DUP6 DUP9 DUP9 CALL SWAP4 POP POP POP POP ISZERO DUP1 ISZERO PUSH2 0x1F2 JUMPI RETURNDATASIZE PUSH0 PUSH0 RETURNDATACOPY RETURNDATASIZE PUSH0 REVERT JUMPDEST POP PUSH0 PUSH0 SWAP1 SLOAD SWAP1 PUSH2 0x100 EXP SWAP1 DIV PUSH20 0xFFFFFFFFFFFFFFFFFFFFFFFFFFFFFFFFFFFFFFFF AND PUSH20 0xFFFFFFFFFFFFFFFFFFFFFFFFFFFFFFFFFFFFFFFF AND PUSH32 0x5672406724A2AEEB1B07A6F53D4B4D1D27A7C84B976821152A09082424BF6F79 DUP3 PUSH1 0x40 MLOAD PUSH2 0x259 SWAP2 SWAP1 PUSH2 0x2C6 JUMP JUMPDEST PUSH1 0x40 MLOAD DUP1 SWAP2 SUB SWAP1 LOG2 POP JUMP JUMPDEST PUSH0 PUSH0 SWAP1 SLOAD SWAP1 PUSH2 0x100 EXP SWAP1 DIV PUSH20 0xFFFFFFFFFFFFFFFFFFFFFFFFFFFFFFFFFFFFFFFF AND DUP2 JUMP JUMPDEST PUSH0 PUSH1 0x1 SLOAD TIMESTAMP LT PUSH2 0x29A JUMPI PUSH0 SWAP1 POP PUSH2 0x2AB JUMP JUMPDEST TIMESTAMP PUSH1 0x1 SLOAD PUSH2 0x2A8 SWAP2 SWAP1 PUSH2 0x444 JUMP JUMPDEST SWAP1 POP JUMPDEST SWAP1 JUMP JUMPDEST PUSH0 DUP2 SWAP1 POP SWAP2 SWAP1 POP JUMP JUMPDEST PUSH2 0x2C0 DUP2 PUSH2 0x2AE JUMP JUMPDEST DUP3 MSTORE POP POP JUMP JUMPDEST PUSH0 PUSH1 0x20 DUP3 ADD SWAP1 POP PUSH2 0x2D9 PUSH0 DUP4 ADD DUP5 PUSH2 0x2B7 JUMP JUMPDEST SWAP3 SWAP2 POP POP JUMP JUMPDEST PUSH0 PUSH20 0xFFFFFFFFFFFFFFFFFFFFFFFFFFFFFFFFFFFFFFFF DUP3 AND SWAP1 POP SWAP2 SWAP1 POP JUMP JUMPDEST PUSH0 PUSH2 0x308 DUP3 PUSH2 0x2DF JUMP JUMPDEST SWAP1 POP SWAP2 SWAP1 POP JUMP JUMPDEST PUSH2 0x318 DUP2 PUSH2 0x2FE JUMP JUMPDEST DUP3 MSTORE POP POP JUMP JUMPDEST PUSH0 PUSH1 0x20 DUP3 ADD SWAP1 POP PUSH2 0x331 PUSH0 DUP4 ADD DUP5 PUSH2 0x30F JUMP JUMPDEST SWAP3 SWAP2 POP POP JUMP JUMPDEST PUSH0 DUP3 DUP3 MSTORE PUSH1 0x20 DUP3 ADD SWAP1 POP SWAP3 SWAP2 POP POP JUMP JUMPDEST PUSH32 0x4E6F74206F776E65720000000000000000000000000000000000000000000000 PUSH0 DUP3 ADD MSTORE POP JUMP JUMPDEST PUSH0 PUSH2 0x37B PUSH1 0x9 DUP4 PUSH2 0x337 JUMP JUMPDEST SWAP2 POP PUSH2 0x386 DUP3 PUSH2 0x347 JUMP JUMPDEST PUSH1 0x20 DUP3 ADD SWAP1 POP SWAP2 SWAP1 POP JUMP JUMPDEST PUSH0 PUSH1 0x20 DUP3 ADD SWAP1 POP DUP2 DUP2 SUB PUSH0 DUP4 ADD MSTORE PUSH2 0x3A8 DUP2 PUSH2 0x36F JUMP JUMPDEST SWAP1 POP SWAP2 SWAP1 POP JUMP JUMPDEST PUSH32 0x5374696C6C20484F444C696E6700000000000000000000000000000000000000 PUSH0 DUP3 ADD MSTORE POP JUMP JUMPDEST PUSH0 PUSH2 0x3E3 PUSH1 0xD DUP4 PUSH2 0x337 JUMP JUMPDEST SWAP2 POP PUSH2 0x3EE DUP3 PUSH2 0x3AF JUMP JUMPDEST PUSH1 0x20 DUP3 ADD SWAP1 POP SWAP2 SWAP1 POP JUMP JUMPDEST PUSH0 PUSH1 0x20 DUP3 ADD SWAP1 POP DUP2 DUP2 SUB PUSH0 DUP4 ADD MSTORE PUSH2 0x410 DUP2 PUSH2 0x3D7 JUMP JUMPDEST SWAP1 POP SWAP2 SWAP1 POP JUMP JUMPDEST PUSH32 0x4E487B7100000000000000000000000000000000000000000000000000000000 PUSH0 MSTORE PUSH1 0x11 PUSH1 0x4 MSTORE PUSH1 0x24 PUSH0 REVERT JUMPDEST PUSH0 PUSH2 0x44E DUP3 PUSH2 0x2AE JUMP JUMPDEST SWAP2 POP PUSH2 0x459 DUP4 PUSH2 0x2AE JUMP JUMPDEST SWAP3 POP DUP3 DUP3 SUB SWAP1 POP DUP2 DUP2 GT ISZERO PUSH2 0x471 JUMPI PUSH2 0x470 PUSH2 0x417 JUMP JUMPDEST JUMPDEST SWAP3 SWAP2 POP POP JUMP INVALID LOG2 PUSH5 0x6970667358 0x22 SLT KECCAK256 GT 0xC 0xCF CALLDATACOPY SWAP4 LT PUSH25 0x26B89FB98FDC94FC162CC33E1B140AA5938E5D80EEF394ECBA PUSH5 0x736F6C6343 STOP ADDMOD SAR STOP CALLER "
				},
				"gasEstimates": {
					"creation": {
						"codeDepositCost": "239400",
						"executionCost": "infinite",
						"totalCost": "infinite"
					},
					"external": {
						"claim()": "infinite",
						"getTimeLeft()": "infinite",
						"owner()": "2529",
						"unlockTime()": "2403"
					}
				},
				"methodIdentifiers": {
					"claim()": "4e71d92d",
					"getTimeLeft()": "c7e284b8",
					"owner()": "8da5cb5b",
					"unlockTime()": "251c1aa3"
				}
			},
			"storageLayout": {
				"storage": [
					{
						"astId": 3,
						"contract": "H/HODL.sol:HODLVault",
						"label": "owner",
						"offset": 0,
						"slot": "0",
						"type": "t_address"
					},
					{
						"astId": 5,
						"contract": "H/HODL.sol:HODLVault",
						"label": "unlockTime",
						"offset": 0,
						"slot": "1",
						"type": "t_uint256"
					}
				],
				"types": {
					"t_address": {
						"encoding": "inplace",
						"label": "address",
						"numberOfBytes": "20"
					},
					"t_uint256": {
						"encoding": "inplace",
						"label": "uint256",
						"numberOfBytes": "32"
					}
				}
			},
			"userdoc": {
				"kind": "user",
				"methods": {},
				"version": 1
			}
		}
	}
}