{
	"H/Multi-user Wallet.sol": {
		"MultiUserHostedWallet": {
			"abi": [
				{
					"inputs": [],
					"stateMutability": "nonpayable",
					"type": "constructor"
				},
				{
					"inputs": [
						{
							"internalType": "address",
							"name": "",
							"type": "address"
						}
					],
					"name": "balances",
					"outputs": [
						{
							"internalType": "uint256",
							"name": "",
							"type": "uint256"
						}
					],
					"stateMutability": "view",
					"type": "function"
				},
				{
					"inputs": [],
					"name": "host",
					"outputs": [
						{
							"internalType": "address",
							"name": "",
							"type": "address"
						}
					],
					"stateMutability": "view",
					"type": "function"
				},
				{
					"inputs": [
						{
							"internalType": "address",
							"name": "from",
							"type": "address"
						},
						{
							"internalType": "address",
							"name": "to",
							"type": "address"
						},
						{
							"internalType": "uint256",
							"name": "amount",
							"type": "uint256"
						}
					],
					"name": "hostTransfer",
					"outputs": [],
					"stateMutability": "nonpayable",
					"type": "function"
				},
				{
					"inputs": [],
					"name": "withdraw",
					"outputs": [],
					"stateMutability": "nonpayable",
					"type": "function"
				},
				{
					"stateMutability": "payable",
					"type": "receive"
				}
			],
			"devdoc": {
				"kind": "dev",
				"methods": {},
				"version": 1
			},
			"evm": {
				"assembly": "    /* \"H/Multi-user Wallet.sol\":0:709  contract MultiUserHostedWallet {... */\n  mstore(0x40, 0x80)\n    /* \"H/Multi-user Wallet.sol\":112:160  constructor() {... */\n  callvalue\n  dup1\n  iszero\n  tag_1\n  jumpi\n  revert(0x00, 0x00)\ntag_1:\n  pop\n    /* \"H/Multi-user Wallet.sol\":143:153  msg.sender */\n  caller\n    /* \"H/Multi-user Wallet.sol\":136:140  host */\n  0x00\n  0x00\n    /* \"H/Multi-user Wallet.sol\":136:153  host = msg.sender */\n  0x0100\n  exp\n  dup2\n  sload\n  dup2\n  0xffffffffffffffffffffffffffffffffffffffff\n  mul\n  not\n  and\n  swap1\n  dup4\n  0xffffffffffffffffffffffffffffffffffffffff\n  and\n  mul\n  or\n  swap1\n  sstore\n  pop\n    /* \"H/Multi-user Wallet.sol\":0:709  contract MultiUserHostedWallet {... */\n  dataSize(sub_0)\n  dup1\n  dataOffset(sub_0)\n  0x00\n  codecopy\n  0x00\n  return\nstop\n\nsub_0: assembly {\n        /* \"H/Multi-user Wallet.sol\":0:709  contract MultiUserHostedWallet {... */\n      mstore(0x40, 0x80)\n      jumpi(tag_1, lt(calldatasize, 0x04))\n      shr(0xe0, calldataload(0x00))\n      dup1\n      0x27e235e3\n      eq\n      tag_3\n      jumpi\n      dup1\n      0x3b0bd37a\n      eq\n      tag_4\n      jumpi\n      dup1\n      0x3ccfd60b\n      eq\n      tag_5\n      jumpi\n      dup1\n      0xf437bc59\n      eq\n      tag_6\n      jumpi\n      jump(tag_2)\n    tag_1:\n      jumpi(tag_2, calldatasize)\n        /* \"H/Multi-user Wallet.sol\":227:236  msg.value */\n      callvalue\n        /* \"H/Multi-user Wallet.sol\":203:211  balances */\n      0x01\n        /* \"H/Multi-user Wallet.sol\":203:223  balances[msg.sender] */\n      0x00\n        /* \"H/Multi-user Wallet.sol\":212:222  msg.sender */\n      caller\n        /* \"H/Multi-user Wallet.sol\":203:223  balances[msg.sender] */\n      0xffffffffffffffffffffffffffffffffffffffff\n      and\n      0xffffffffffffffffffffffffffffffffffffffff\n      and\n      dup2\n      mstore\n      0x20\n      add\n      swap1\n      dup2\n      mstore\n      0x20\n      add\n      0x00\n      keccak256\n      0x00\n        /* \"H/Multi-user Wallet.sol\":203:236  balances[msg.sender] += msg.value */\n      dup3\n      dup3\n      sload\n      tag_9\n      swap2\n      swap1\n      tag_10\n      jump\t// in\n    tag_9:\n      swap3\n      pop\n      pop\n      dup2\n      swap1\n      sstore\n      stop\n        /* \"H/Multi-user Wallet.sol\":0:709  contract MultiUserHostedWallet {... */\n    tag_2:\n      revert(0x00, 0x00)\n        /* \"H/Multi-user Wallet.sol\":62:105  mapping(address => uint256) public balances */\n    tag_3:\n      callvalue\n      dup1\n      iszero\n      tag_11\n      jumpi\n      revert(0x00, 0x00)\n    tag_11:\n      pop\n      tag_12\n      0x04\n      dup1\n      calldatasize\n      sub\n      dup2\n      add\n      swap1\n      tag_13\n      swap2\n      swap1\n      tag_14\n      jump\t// in\n    tag_13:\n      tag_15\n      jump\t// in\n    tag_12:\n      mload(0x40)\n      tag_16\n      swap2\n      swap1\n      tag_17\n      jump\t// in\n    tag_16:\n      mload(0x40)\n      dup1\n      swap2\n      sub\n      swap1\n      return\n        /* \"H/Multi-user Wallet.sol\":249:504  function hostTransfer(address from, address to, uint256 amount) external {... */\n    tag_4:\n      callvalue\n      dup1\n      iszero\n      tag_18\n      jumpi\n      revert(0x00, 0x00)\n    tag_18:\n      pop\n      tag_19\n      0x04\n      dup1\n      calldatasize\n      sub\n      dup2\n      add\n      swap1\n      tag_20\n      swap2\n      swap1\n      tag_21\n      jump\t// in\n    tag_20:\n      tag_22\n      jump\t// in\n    tag_19:\n      stop\n        /* \"H/Multi-user Wallet.sol\":510:707  function withdraw() external {... */\n    tag_5:\n      callvalue\n      dup1\n      iszero\n      tag_23\n      jumpi\n      revert(0x00, 0x00)\n    tag_23:\n      pop\n      tag_24\n      tag_25\n      jump\t// in\n    tag_24:\n      stop\n        /* \"H/Multi-user Wallet.sol\":37:56  address public host */\n    tag_6:\n      callvalue\n      dup1\n      iszero\n      tag_26\n      jumpi\n      revert(0x00, 0x00)\n    tag_26:\n      pop\n      tag_27\n      tag_28\n      jump\t// in\n    tag_27:\n      mload(0x40)\n      tag_29\n      swap2\n      swap1\n      tag_30\n      jump\t// in\n    tag_29:\n      mload(0x40)\n      dup1\n      swap2\n      sub\n      swap1\n      return\n        /* \"H/Multi-user Wallet.sol\":62:105  mapping(address => uint256) public balances */\n    tag_15:\n      mstore(0x20, 0x01)\n      dup1\n      0x00\n      mstore\n      keccak256(0x00, 0x40)\n      0x00\n      swap2\n      pop\n      swap1\n      pop\n      sload\n      dup2\n      jump\t// out\n        /* \"H/Multi-user Wallet.sol\":249:504  function hostTransfer(address from, address to, uint256 amount) external {... */\n    tag_22:\n        /* \"H/Multi-user Wallet.sol\":354:358  host */\n      0x00\n      0x00\n      swap1\n      sload\n      swap1\n      0x0100\n      exp\n      swap1\n      div\n      0xffffffffffffffffffffffffffffffffffffffff\n      and\n        /* \"H/Multi-user Wallet.sol\":340:358  msg.sender == host */\n      0xffffffffffffffffffffffffffffffffffffffff\n      and\n        /* \"H/Multi-user Wallet.sol\":340:350  msg.sender */\n      caller\n        /* \"H/Multi-user Wallet.sol\":340:358  msg.sender == host */\n      0xffffffffffffffffffffffffffffffffffffffff\n      and\n      eq\n        /* \"H/Multi-user Wallet.sol\":332:372  require(msg.sender == host, \"Only host\") */\n      tag_32\n      jumpi\n      mload(0x40)\n      0x08c379a000000000000000000000000000000000000000000000000000000000\n      dup2\n      mstore\n      0x04\n      add\n      tag_33\n      swap1\n      tag_34\n      jump\t// in\n    tag_33:\n      mload(0x40)\n      dup1\n      swap2\n      sub\n      swap1\n      revert\n    tag_32:\n        /* \"H/Multi-user Wallet.sol\":408:414  amount */\n      dup1\n        /* \"H/Multi-user Wallet.sol\":390:398  balances */\n      0x01\n        /* \"H/Multi-user Wallet.sol\":390:404  balances[from] */\n      0x00\n        /* \"H/Multi-user Wallet.sol\":399:403  from */\n      dup6\n        /* \"H/Multi-user Wallet.sol\":390:404  balances[from] */\n      0xffffffffffffffffffffffffffffffffffffffff\n      and\n      0xffffffffffffffffffffffffffffffffffffffff\n      and\n      dup2\n      mstore\n      0x20\n      add\n      swap1\n      dup2\n      mstore\n      0x20\n      add\n      0x00\n      keccak256\n      sload\n        /* \"H/Multi-user Wallet.sol\":390:414  balances[from] >= amount */\n      lt\n      iszero\n        /* \"H/Multi-user Wallet.sol\":382:431  require(balances[from] >= amount, \"Insufficient\") */\n      tag_35\n      jumpi\n      mload(0x40)\n      0x08c379a000000000000000000000000000000000000000000000000000000000\n      dup2\n      mstore\n      0x04\n      add\n      tag_36\n      swap1\n      tag_37\n      jump\t// in\n    tag_36:\n      mload(0x40)\n      dup1\n      swap2\n      sub\n      swap1\n      revert\n    tag_35:\n        /* \"H/Multi-user Wallet.sol\":459:465  amount */\n      dup1\n        /* \"H/Multi-user Wallet.sol\":441:449  balances */\n      0x01\n        /* \"H/Multi-user Wallet.sol\":441:455  balances[from] */\n      0x00\n        /* \"H/Multi-user Wallet.sol\":450:454  from */\n      dup6\n        /* \"H/Multi-user Wallet.sol\":441:455  balances[from] */\n      0xffffffffffffffffffffffffffffffffffffffff\n      and\n      0xffffffffffffffffffffffffffffffffffffffff\n      and\n      dup2\n      mstore\n      0x20\n      add\n      swap1\n      dup2\n      mstore\n      0x20\n      add\n      0x00\n      keccak256\n      0x00\n        /* \"H/Multi-user Wallet.sol\":441:465  balances[from] -= amount */\n      dup3\n      dup3\n      sload\n      tag_38\n      swap2\n      swap1\n      tag_39\n      jump\t// in\n    tag_38:\n      swap3\n      pop\n      pop\n      dup2\n      swap1\n      sstore\n      pop\n        /* \"H/Multi-user Wallet.sol\":491:497  amount */\n      dup1\n        /* \"H/Multi-user Wallet.sol\":475:483  balances */\n      0x01\n        /* \"H/Multi-user Wallet.sol\":475:487  balances[to] */\n      0x00\n        /* \"H/Multi-user Wallet.sol\":484:486  to */\n      dup5\n        /* \"H/Multi-user Wallet.sol\":475:487  balances[to] */\n      0xffffffffffffffffffffffffffffffffffffffff\n      and\n      0xffffffffffffffffffffffffffffffffffffffff\n      and\n      dup2\n      mstore\n      0x20\n      add\n      swap1\n      dup2\n      mstore\n      0x20\n      add\n      0x00\n      keccak256\n      0x00\n        /* \"H/Multi-user Wallet.sol\":475:497  balances[to] += amount */\n      dup3\n      dup3\n      sload\n      tag_40\n      swap2\n      swap1\n      tag_10\n      jump\t// in\n    tag_40:\n      swap3\n      pop\n      pop\n      dup2\n      swap1\n      sstore\n      pop\n        /* \"H/Multi-user Wallet.sol\":249:504  function hostTransfer(address from, address to, uint256 amount) external {... */\n      pop\n      pop\n      pop\n      jump\t// out\n        /* \"H/Multi-user Wallet.sol\":510:707  function withdraw() external {... */\n    tag_25:\n        /* \"H/Multi-user Wallet.sol\":549:560  uint256 amt */\n      0x00\n        /* \"H/Multi-user Wallet.sol\":563:571  balances */\n      0x01\n        /* \"H/Multi-user Wallet.sol\":563:583  balances[msg.sender] */\n      0x00\n        /* \"H/Multi-user Wallet.sol\":572:582  msg.sender */\n      caller\n        /* \"H/Multi-user Wallet.sol\":563:583  balances[msg.sender] */\n      0xffffffffffffffffffffffffffffffffffffffff\n      and\n      0xffffffffffffffffffffffffffffffffffffffff\n      and\n      dup2\n      mstore\n      0x20\n      add\n      swap1\n      dup2\n      mstore\n      0x20\n      add\n      0x00\n      keccak256\n      sload\n        /* \"H/Multi-user Wallet.sol\":549:583  uint256 amt = balances[msg.sender] */\n      swap1\n      pop\n        /* \"H/Multi-user Wallet.sol\":607:608  0 */\n      0x00\n        /* \"H/Multi-user Wallet.sol\":601:604  amt */\n      dup2\n        /* \"H/Multi-user Wallet.sol\":601:608  amt > 0 */\n      gt\n        /* \"H/Multi-user Wallet.sol\":593:623  require(amt > 0, \"No balance\") */\n      tag_42\n      jumpi\n      mload(0x40)\n      0x08c379a000000000000000000000000000000000000000000000000000000000\n      dup2\n      mstore\n      0x04\n      add\n      tag_43\n      swap1\n      tag_44\n      jump\t// in\n    tag_43:\n      mload(0x40)\n      dup1\n      swap2\n      sub\n      swap1\n      revert\n    tag_42:\n        /* \"H/Multi-user Wallet.sol\":656:657  0 */\n      0x00\n        /* \"H/Multi-user Wallet.sol\":633:641  balances */\n      0x01\n        /* \"H/Multi-user Wallet.sol\":633:653  balances[msg.sender] */\n      0x00\n        /* \"H/Multi-user Wallet.sol\":642:652  msg.sender */\n      caller\n        /* \"H/Multi-user Wallet.sol\":633:653  balances[msg.sender] */\n      0xffffffffffffffffffffffffffffffffffffffff\n      and\n      0xffffffffffffffffffffffffffffffffffffffff\n      and\n      dup2\n      mstore\n      0x20\n      add\n      swap1\n      dup2\n      mstore\n      0x20\n      add\n      0x00\n      keccak256\n        /* \"H/Multi-user Wallet.sol\":633:657  balances[msg.sender] = 0 */\n      dup2\n      swap1\n      sstore\n      pop\n        /* \"H/Multi-user Wallet.sol\":675:685  msg.sender */\n      caller\n        /* \"H/Multi-user Wallet.sol\":667:695  payable(msg.sender).transfer */\n      0xffffffffffffffffffffffffffffffffffffffff\n      and\n        /* \"H/Multi-user Wallet.sol\":667:700  payable(msg.sender).transfer(amt) */\n      0x08fc\n        /* \"H/Multi-user Wallet.sol\":696:699  amt */\n      dup3\n        /* \"H/Multi-user Wallet.sol\":667:700  payable(msg.sender).transfer(amt) */\n      swap1\n      dup2\n      iszero\n      mul\n      swap1\n      mload(0x40)\n      0x00\n      mload(0x40)\n      dup1\n      dup4\n      sub\n      dup2\n      dup6\n      dup9\n      dup9\n      call\n      swap4\n      pop\n      pop\n      pop\n      pop\n      iszero\n      dup1\n      iszero\n      tag_46\n      jumpi\n      returndatacopy(0x00, 0x00, returndatasize)\n      revert(0x00, returndatasize)\n    tag_46:\n      pop\n        /* \"H/Multi-user Wallet.sol\":539:707  {... */\n      pop\n        /* \"H/Multi-user Wallet.sol\":510:707  function withdraw() external {... */\n      jump\t// out\n        /* \"H/Multi-user Wallet.sol\":37:56  address public host */\n    tag_28:\n      0x00\n      0x00\n      swap1\n      sload\n      swap1\n      0x0100\n      exp\n      swap1\n      div\n      0xffffffffffffffffffffffffffffffffffffffff\n      and\n      dup2\n      jump\t// out\n        /* \"#utility.yul\":7:84   */\n    tag_47:\n        /* \"#utility.yul\":44:51   */\n      0x00\n        /* \"#utility.yul\":73:78   */\n      dup2\n        /* \"#utility.yul\":62:78   */\n      swap1\n      pop\n        /* \"#utility.yul\":7:84   */\n      swap2\n      swap1\n      pop\n      jump\t// out\n        /* \"#utility.yul\":90:270   */\n    tag_48:\n        /* \"#utility.yul\":138:215   */\n      0x4e487b7100000000000000000000000000000000000000000000000000000000\n        /* \"#utility.yul\":135:136   */\n      0x00\n        /* \"#utility.yul\":128:216   */\n      mstore\n        /* \"#utility.yul\":235:239   */\n      0x11\n        /* \"#utility.yul\":232:233   */\n      0x04\n        /* \"#utility.yul\":225:240   */\n      mstore\n        /* \"#utility.yul\":259:263   */\n      0x24\n        /* \"#utility.yul\":256:257   */\n      0x00\n        /* \"#utility.yul\":249:264   */\n      revert\n        /* \"#utility.yul\":276:467   */\n    tag_10:\n        /* \"#utility.yul\":316:319   */\n      0x00\n        /* \"#utility.yul\":335:355   */\n      tag_71\n        /* \"#utility.yul\":353:354   */\n      dup3\n        /* \"#utility.yul\":335:355   */\n      tag_47\n      jump\t// in\n    tag_71:\n        /* \"#utility.yul\":330:355   */\n      swap2\n      pop\n        /* \"#utility.yul\":369:389   */\n      tag_72\n        /* \"#utility.yul\":387:388   */\n      dup4\n        /* \"#utility.yul\":369:389   */\n      tag_47\n      jump\t// in\n    tag_72:\n        /* \"#utility.yul\":364:389   */\n      swap3\n      pop\n        /* \"#utility.yul\":412:413   */\n      dup3\n        /* \"#utility.yul\":409:410   */\n      dup3\n        /* \"#utility.yul\":405:414   */\n      add\n        /* \"#utility.yul\":398:414   */\n      swap1\n      pop\n        /* \"#utility.yul\":433:436   */\n      dup1\n        /* \"#utility.yul\":430:431   */\n      dup3\n        /* \"#utility.yul\":427:437   */\n      gt\n        /* \"#utility.yul\":424:460   */\n      iszero\n      tag_73\n      jumpi\n        /* \"#utility.yul\":440:458   */\n      tag_74\n      tag_48\n      jump\t// in\n    tag_74:\n        /* \"#utility.yul\":424:460   */\n    tag_73:\n        /* \"#utility.yul\":276:467   */\n      swap3\n      swap2\n      pop\n      pop\n      jump\t// out\n        /* \"#utility.yul\":554:671   */\n    tag_50:\n        /* \"#utility.yul\":663:664   */\n      0x00\n        /* \"#utility.yul\":660:661   */\n      0x00\n        /* \"#utility.yul\":653:665   */\n      revert\n        /* \"#utility.yul\":800:926   */\n    tag_52:\n        /* \"#utility.yul\":837:844   */\n      0x00\n        /* \"#utility.yul\":877:919   */\n      0xffffffffffffffffffffffffffffffffffffffff\n        /* \"#utility.yul\":870:875   */\n      dup3\n        /* \"#utility.yul\":866:920   */\n      and\n        /* \"#utility.yul\":855:920   */\n      swap1\n      pop\n        /* \"#utility.yul\":800:926   */\n      swap2\n      swap1\n      pop\n      jump\t// out\n        /* \"#utility.yul\":932:1028   */\n    tag_53:\n        /* \"#utility.yul\":969:976   */\n      0x00\n        /* \"#utility.yul\":998:1022   */\n      tag_80\n        /* \"#utility.yul\":1016:1021   */\n      dup3\n        /* \"#utility.yul\":998:1022   */\n      tag_52\n      jump\t// in\n    tag_80:\n        /* \"#utility.yul\":987:1022   */\n      swap1\n      pop\n        /* \"#utility.yul\":932:1028   */\n      swap2\n      swap1\n      pop\n      jump\t// out\n        /* \"#utility.yul\":1034:1156   */\n    tag_54:\n        /* \"#utility.yul\":1107:1131   */\n      tag_82\n        /* \"#utility.yul\":1125:1130   */\n      dup2\n        /* \"#utility.yul\":1107:1131   */\n      tag_53\n      jump\t// in\n    tag_82:\n        /* \"#utility.yul\":1100:1105   */\n      dup2\n        /* \"#utility.yul\":1097:1132   */\n      eq\n        /* \"#utility.yul\":1087:1150   */\n      tag_83\n      jumpi\n        /* \"#utility.yul\":1146:1147   */\n      0x00\n        /* \"#utility.yul\":1143:1144   */\n      0x00\n        /* \"#utility.yul\":1136:1148   */\n      revert\n        /* \"#utility.yul\":1087:1150   */\n    tag_83:\n        /* \"#utility.yul\":1034:1156   */\n      pop\n      jump\t// out\n        /* \"#utility.yul\":1162:1301   */\n    tag_55:\n        /* \"#utility.yul\":1208:1213   */\n      0x00\n        /* \"#utility.yul\":1246:1252   */\n      dup2\n        /* \"#utility.yul\":1233:1253   */\n      calldataload\n        /* \"#utility.yul\":1224:1253   */\n      swap1\n      pop\n        /* \"#utility.yul\":1262:1295   */\n      tag_85\n        /* \"#utility.yul\":1289:1294   */\n      dup2\n        /* \"#utility.yul\":1262:1295   */\n      tag_54\n      jump\t// in\n    tag_85:\n        /* \"#utility.yul\":1162:1301   */\n      swap3\n      swap2\n      pop\n      pop\n      jump\t// out\n        /* \"#utility.yul\":1307:1636   */\n    tag_14:\n        /* \"#utility.yul\":1366:1372   */\n      0x00\n        /* \"#utility.yul\":1415:1417   */\n      0x20\n        /* \"#utility.yul\":1403:1412   */\n      dup3\n        /* \"#utility.yul\":1394:1401   */\n      dup5\n        /* \"#utility.yul\":1390:1413   */\n      sub\n        /* \"#utility.yul\":1386:1418   */\n      slt\n        /* \"#utility.yul\":1383:1502   */\n      iszero\n      tag_87\n      jumpi\n        /* \"#utility.yul\":1421:1500   */\n      tag_88\n      tag_50\n      jump\t// in\n    tag_88:\n        /* \"#utility.yul\":1383:1502   */\n    tag_87:\n        /* \"#utility.yul\":1541:1542   */\n      0x00\n        /* \"#utility.yul\":1566:1619   */\n      tag_89\n        /* \"#utility.yul\":1611:1618   */\n      dup5\n        /* \"#utility.yul\":1602:1608   */\n      dup3\n        /* \"#utility.yul\":1591:1600   */\n      dup6\n        /* \"#utility.yul\":1587:1609   */\n      add\n        /* \"#utility.yul\":1566:1619   */\n      tag_55\n      jump\t// in\n    tag_89:\n        /* \"#utility.yul\":1556:1619   */\n      swap2\n      pop\n        /* \"#utility.yul\":1512:1629   */\n      pop\n        /* \"#utility.yul\":1307:1636   */\n      swap3\n      swap2\n      pop\n      pop\n      jump\t// out\n        /* \"#utility.yul\":1642:1760   */\n    tag_56:\n        /* \"#utility.yul\":1729:1753   */\n      tag_91\n        /* \"#utility.yul\":1747:1752   */\n      dup2\n        /* \"#utility.yul\":1729:1753   */\n      tag_47\n      jump\t// in\n    tag_91:\n        /* \"#utility.yul\":1724:1727   */\n      dup3\n        /* \"#utility.yul\":1717:1754   */\n      mstore\n        /* \"#utility.yul\":1642:1760   */\n      pop\n      pop\n      jump\t// out\n        /* \"#utility.yul\":1766:1988   */\n    tag_17:\n        /* \"#utility.yul\":1859:1863   */\n      0x00\n        /* \"#utility.yul\":1897:1899   */\n      0x20\n        /* \"#utility.yul\":1886:1895   */\n      dup3\n        /* \"#utility.yul\":1882:1900   */\n      add\n        /* \"#utility.yul\":1874:1900   */\n      swap1\n      pop\n        /* \"#utility.yul\":1910:1981   */\n      tag_93\n        /* \"#utility.yul\":1978:1979   */\n      0x00\n        /* \"#utility.yul\":1967:1976   */\n      dup4\n        /* \"#utility.yul\":1963:1980   */\n      add\n        /* \"#utility.yul\":1954:1960   */\n      dup5\n        /* \"#utility.yul\":1910:1981   */\n      tag_56\n      jump\t// in\n    tag_93:\n        /* \"#utility.yul\":1766:1988   */\n      swap3\n      swap2\n      pop\n      pop\n      jump\t// out\n        /* \"#utility.yul\":1994:2116   */\n    tag_57:\n        /* \"#utility.yul\":2067:2091   */\n      tag_95\n        /* \"#utility.yul\":2085:2090   */\n      dup2\n        /* \"#utility.yul\":2067:2091   */\n      tag_47\n      jump\t// in\n    tag_95:\n        /* \"#utility.yul\":2060:2065   */\n      dup2\n        /* \"#utility.yul\":2057:2092   */\n      eq\n        /* \"#utility.yul\":2047:2110   */\n      tag_96\n      jumpi\n        /* \"#utility.yul\":2106:2107   */\n      0x00\n        /* \"#utility.yul\":2103:2104   */\n      0x00\n        /* \"#utility.yul\":2096:2108   */\n      revert\n        /* \"#utility.yul\":2047:2110   */\n    tag_96:\n        /* \"#utility.yul\":1994:2116   */\n      pop\n      jump\t// out\n        /* \"#utility.yul\":2122:2261   */\n    tag_58:\n        /* \"#utility.yul\":2168:2173   */\n      0x00\n        /* \"#utility.yul\":2206:2212   */\n      dup2\n        /* \"#utility.yul\":2193:2213   */\n      calldataload\n        /* \"#utility.yul\":2184:2213   */\n      swap1\n      pop\n        /* \"#utility.yul\":2222:2255   */\n      tag_98\n        /* \"#utility.yul\":2249:2254   */\n      dup2\n        /* \"#utility.yul\":2222:2255   */\n      tag_57\n      jump\t// in\n    tag_98:\n        /* \"#utility.yul\":2122:2261   */\n      swap3\n      swap2\n      pop\n      pop\n      jump\t// out\n        /* \"#utility.yul\":2267:2886   */\n    tag_21:\n        /* \"#utility.yul\":2344:2350   */\n      0x00\n        /* \"#utility.yul\":2352:2358   */\n      0x00\n        /* \"#utility.yul\":2360:2366   */\n      0x00\n        /* \"#utility.yul\":2409:2411   */\n      0x60\n        /* \"#utility.yul\":2397:2406   */\n      dup5\n        /* \"#utility.yul\":2388:2395   */\n      dup7\n        /* \"#utility.yul\":2384:2407   */\n      sub\n        /* \"#utility.yul\":2380:2412   */\n      slt\n        /* \"#utility.yul\":2377:2496   */\n      iszero\n      tag_100\n      jumpi\n        /* \"#utility.yul\":2415:2494   */\n      tag_101\n      tag_50\n      jump\t// in\n    tag_101:\n        /* \"#utility.yul\":2377:2496   */\n    tag_100:\n        /* \"#utility.yul\":2535:2536   */\n      0x00\n        /* \"#utility.yul\":2560:2613   */\n      tag_102\n        /* \"#utility.yul\":2605:2612   */\n      dup7\n        /* \"#utility.yul\":2596:2602   */\n      dup3\n        /* \"#utility.yul\":2585:2594   */\n      dup8\n        /* \"#utility.yul\":2581:2603   */\n      add\n        /* \"#utility.yul\":2560:2613   */\n      tag_55\n      jump\t// in\n    tag_102:\n        /* \"#utility.yul\":2550:2613   */\n      swap4\n      pop\n        /* \"#utility.yul\":2506:2623   */\n      pop\n        /* \"#utility.yul\":2662:2664   */\n      0x20\n        /* \"#utility.yul\":2688:2741   */\n      tag_103\n        /* \"#utility.yul\":2733:2740   */\n      dup7\n        /* \"#utility.yul\":2724:2730   */\n      dup3\n        /* \"#utility.yul\":2713:2722   */\n      dup8\n        /* \"#utility.yul\":2709:2731   */\n      add\n        /* \"#utility.yul\":2688:2741   */\n      tag_55\n      jump\t// in\n    tag_103:\n        /* \"#utility.yul\":2678:2741   */\n      swap3\n      pop\n        /* \"#utility.yul\":2633:2751   */\n      pop\n        /* \"#utility.yul\":2790:2792   */\n      0x40\n        /* \"#utility.yul\":2816:2869   */\n      tag_104\n        /* \"#utility.yul\":2861:2868   */\n      dup7\n        /* \"#utility.yul\":2852:2858   */\n      dup3\n        /* \"#utility.yul\":2841:2850   */\n      dup8\n        /* \"#utility.yul\":2837:2859   */\n      add\n        /* \"#utility.yul\":2816:2869   */\n      tag_58\n      jump\t// in\n    tag_104:\n        /* \"#utility.yul\":2806:2869   */\n      swap2\n      pop\n        /* \"#utility.yul\":2761:2879   */\n      pop\n        /* \"#utility.yul\":2267:2886   */\n      swap3\n      pop\n      swap3\n      pop\n      swap3\n      jump\t// out\n        /* \"#utility.yul\":2892:3010   */\n    tag_59:\n        /* \"#utility.yul\":2979:3003   */\n      tag_106\n        /* \"#utility.yul\":2997:3002   */\n      dup2\n        /* \"#utility.yul\":2979:3003   */\n      tag_53\n      jump\t// in\n    tag_106:\n        /* \"#utility.yul\":2974:2977   */\n      dup3\n        /* \"#utility.yul\":2967:3004   */\n      mstore\n        /* \"#utility.yul\":2892:3010   */\n      pop\n      pop\n      jump\t// out\n        /* \"#utility.yul\":3016:3238   */\n    tag_30:\n        /* \"#utility.yul\":3109:3113   */\n      0x00\n        /* \"#utility.yul\":3147:3149   */\n      0x20\n        /* \"#utility.yul\":3136:3145   */\n      dup3\n        /* \"#utility.yul\":3132:3150   */\n      add\n        /* \"#utility.yul\":3124:3150   */\n      swap1\n      pop\n        /* \"#utility.yul\":3160:3231   */\n      tag_108\n        /* \"#utility.yul\":3228:3229   */\n      0x00\n        /* \"#utility.yul\":3217:3226   */\n      dup4\n        /* \"#utility.yul\":3213:3230   */\n      add\n        /* \"#utility.yul\":3204:3210   */\n      dup5\n        /* \"#utility.yul\":3160:3231   */\n      tag_59\n      jump\t// in\n    tag_108:\n        /* \"#utility.yul\":3016:3238   */\n      swap3\n      swap2\n      pop\n      pop\n      jump\t// out\n        /* \"#utility.yul\":3244:3413   */\n    tag_60:\n        /* \"#utility.yul\":3328:3339   */\n      0x00\n        /* \"#utility.yul\":3362:3368   */\n      dup3\n        /* \"#utility.yul\":3357:3360   */\n      dup3\n        /* \"#utility.yul\":3350:3369   */\n      mstore\n        /* \"#utility.yul\":3402:3406   */\n      0x20\n        /* \"#utility.yul\":3397:3400   */\n      dup3\n        /* \"#utility.yul\":3393:3407   */\n      add\n        /* \"#utility.yul\":3378:3407   */\n      swap1\n      pop\n        /* \"#utility.yul\":3244:3413   */\n      swap3\n      swap2\n      pop\n      pop\n      jump\t// out\n        /* \"#utility.yul\":3419:3578   */\n    tag_61:\n        /* \"#utility.yul\":3559:3570   */\n      0x4f6e6c7920686f73740000000000000000000000000000000000000000000000\n        /* \"#utility.yul\":3555:3556   */\n      0x00\n        /* \"#utility.yul\":3547:3553   */\n      dup3\n        /* \"#utility.yul\":3543:3557   */\n      add\n        /* \"#utility.yul\":3536:3571   */\n      mstore\n        /* \"#utility.yul\":3419:3578   */\n      pop\n      jump\t// out\n        /* \"#utility.yul\":3584:3949   */\n    tag_62:\n        /* \"#utility.yul\":3726:3729   */\n      0x00\n        /* \"#utility.yul\":3747:3813   */\n      tag_112\n        /* \"#utility.yul\":3811:3812   */\n      0x09\n        /* \"#utility.yul\":3806:3809   */\n      dup4\n        /* \"#utility.yul\":3747:3813   */\n      tag_60\n      jump\t// in\n    tag_112:\n        /* \"#utility.yul\":3740:3813   */\n      swap2\n      pop\n        /* \"#utility.yul\":3822:3915   */\n      tag_113\n        /* \"#utility.yul\":3911:3914   */\n      dup3\n        /* \"#utility.yul\":3822:3915   */\n      tag_61\n      jump\t// in\n    tag_113:\n        /* \"#utility.yul\":3940:3942   */\n      0x20\n        /* \"#utility.yul\":3935:3938   */\n      dup3\n        /* \"#utility.yul\":3931:3943   */\n      add\n        /* \"#utility.yul\":3924:3943   */\n      swap1\n      pop\n        /* \"#utility.yul\":3584:3949   */\n      swap2\n      swap1\n      pop\n      jump\t// out\n        /* \"#utility.yul\":3955:4374   */\n    tag_34:\n        /* \"#utility.yul\":4121:4125   */\n      0x00\n        /* \"#utility.yul\":4159:4161   */\n      0x20\n        /* \"#utility.yul\":4148:4157   */\n      dup3\n        /* \"#utility.yul\":4144:4162   */\n      add\n        /* \"#utility.yul\":4136:4162   */\n      swap1\n      pop\n        /* \"#utility.yul\":4208:4217   */\n      dup2\n        /* \"#utility.yul\":4202:4206   */\n      dup2\n        /* \"#utility.yul\":4198:4218   */\n      sub\n        /* \"#utility.yul\":4194:4195   */\n      0x00\n        /* \"#utility.yul\":4183:4192   */\n      dup4\n        /* \"#utility.yul\":4179:4196   */\n      add\n        /* \"#utility.yul\":4172:4219   */\n      mstore\n        /* \"#utility.yul\":4236:4367   */\n      tag_115\n        /* \"#utility.yul\":4362:4366   */\n      dup2\n        /* \"#utility.yul\":4236:4367   */\n      tag_62\n      jump\t// in\n    tag_115:\n        /* \"#utility.yul\":4228:4367   */\n      swap1\n      pop\n        /* \"#utility.yul\":3955:4374   */\n      swap2\n      swap1\n      pop\n      jump\t// out\n        /* \"#utility.yul\":4380:4542   */\n    tag_63:\n        /* \"#utility.yul\":4520:4534   */\n      0x496e73756666696369656e740000000000000000000000000000000000000000\n        /* \"#utility.yul\":4516:4517   */\n      0x00\n        /* \"#utility.yul\":4508:4514   */\n      dup3\n        /* \"#utility.yul\":4504:4518   */\n      add\n        /* \"#utility.yul\":4497:4535   */\n      mstore\n        /* \"#utility.yul\":4380:4542   */\n      pop\n      jump\t// out\n        /* \"#utility.yul\":4548:4914   */\n    tag_64:\n        /* \"#utility.yul\":4690:4693   */\n      0x00\n        /* \"#utility.yul\":4711:4778   */\n      tag_118\n        /* \"#utility.yul\":4775:4777   */\n      0x0c\n        /* \"#utility.yul\":4770:4773   */\n      dup4\n        /* \"#utility.yul\":4711:4778   */\n      tag_60\n      jump\t// in\n    tag_118:\n        /* \"#utility.yul\":4704:4778   */\n      swap2\n      pop\n        /* \"#utility.yul\":4787:4880   */\n      tag_119\n        /* \"#utility.yul\":4876:4879   */\n      dup3\n        /* \"#utility.yul\":4787:4880   */\n      tag_63\n      jump\t// in\n    tag_119:\n        /* \"#utility.yul\":4905:4907   */\n      0x20\n        /* \"#utility.yul\":4900:4903   */\n      dup3\n        /* \"#utility.yul\":4896:4908   */\n      add\n        /* \"#utility.yul\":4889:4908   */\n      swap1\n      pop\n        /* \"#utility.yul\":4548:4914   */\n      swap2\n      swap1\n      pop\n      jump\t// out\n        /* \"#utility.yul\":4920:5339   */\n    tag_37:\n        /* \"#utility.yul\":5086:5090   */\n      0x00\n        /* \"#utility.yul\":5124:5126   */\n      0x20\n        /* \"#utility.yul\":5113:5122   */\n      dup3\n        /* \"#utility.yul\":5109:5127   */\n      add\n        /* \"#utility.yul\":5101:5127   */\n      swap1\n      pop\n        /* \"#utility.yul\":5173:5182   */\n      dup2\n        /* \"#utility.yul\":5167:5171   */\n      dup2\n        /* \"#utility.yul\":5163:5183   */\n      sub\n        /* \"#utility.yul\":5159:5160   */\n      0x00\n        /* \"#utility.yul\":5148:5157   */\n      dup4\n        /* \"#utility.yul\":5144:5161   */\n      add\n        /* \"#utility.yul\":5137:5184   */\n      mstore\n        /* \"#utility.yul\":5201:5332   */\n      tag_121\n        /* \"#utility.yul\":5327:5331   */\n      dup2\n        /* \"#utility.yul\":5201:5332   */\n      tag_64\n      jump\t// in\n    tag_121:\n        /* \"#utility.yul\":5193:5332   */\n      swap1\n      pop\n        /* \"#utility.yul\":4920:5339   */\n      swap2\n      swap1\n      pop\n      jump\t// out\n        /* \"#utility.yul\":5345:5539   */\n    tag_39:\n        /* \"#utility.yul\":5385:5389   */\n      0x00\n        /* \"#utility.yul\":5405:5425   */\n      tag_123\n        /* \"#utility.yul\":5423:5424   */\n      dup3\n        /* \"#utility.yul\":5405:5425   */\n      tag_47\n      jump\t// in\n    tag_123:\n        /* \"#utility.yul\":5400:5425   */\n      swap2\n      pop\n        /* \"#utility.yul\":5439:5459   */\n      tag_124\n        /* \"#utility.yul\":5457:5458   */\n      dup4\n        /* \"#utility.yul\":5439:5459   */\n      tag_47\n      jump\t// in\n    tag_124:\n        /* \"#utility.yul\":5434:5459   */\n      swap3\n      pop\n        /* \"#utility.yul\":5483:5484   */\n      dup3\n        /* \"#utility.yul\":5480:5481   */\n      dup3\n        /* \"#utility.yul\":5476:5485   */\n      sub\n        /* \"#utility.yul\":5468:5485   */\n      swap1\n      pop\n        /* \"#utility.yul\":5507:5508   */\n      dup2\n        /* \"#utility.yul\":5501:5505   */\n      dup2\n        /* \"#utility.yul\":5498:5509   */\n      gt\n        /* \"#utility.yul\":5495:5532   */\n      iszero\n      tag_125\n      jumpi\n        /* \"#utility.yul\":5512:5530   */\n      tag_126\n      tag_48\n      jump\t// in\n    tag_126:\n        /* \"#utility.yul\":5495:5532   */\n    tag_125:\n        /* \"#utility.yul\":5345:5539   */\n      swap3\n      swap2\n      pop\n      pop\n      jump\t// out\n        /* \"#utility.yul\":5545:5705   */\n    tag_65:\n        /* \"#utility.yul\":5685:5697   */\n      0x4e6f2062616c616e636500000000000000000000000000000000000000000000\n        /* \"#utility.yul\":5681:5682   */\n      0x00\n        /* \"#utility.yul\":5673:5679   */\n      dup3\n        /* \"#utility.yul\":5669:5683   */\n      add\n        /* \"#utility.yul\":5662:5698   */\n      mstore\n        /* \"#utility.yul\":5545:5705   */\n      pop\n      jump\t// out\n        /* \"#utility.yul\":5711:6077   */\n    tag_66:\n        /* \"#utility.yul\":5853:5856   */\n      0x00\n        /* \"#utility.yul\":5874:5941   */\n      tag_129\n        /* \"#utility.yul\":5938:5940   */\n      0x0a\n        /* \"#utility.yul\":5933:5936   */\n      dup4\n        /* \"#utility.yul\":5874:5941   */\n      tag_60\n      jump\t// in\n    tag_129:\n        /* \"#utility.yul\":5867:5941   */\n      swap2\n      pop\n        /* \"#utility.yul\":5950:6043   */\n      tag_130\n        /* \"#utility.yul\":6039:6042   */\n      dup3\n        /* \"#utility.yul\":5950:6043   */\n      tag_65\n      jump\t// in\n    tag_130:\n        /* \"#utility.yul\":6068:6070   */\n      0x20\n        /* \"#utility.yul\":6063:6066   */\n      dup3\n        /* \"#utility.yul\":6059:6071   */\n      add\n        /* \"#utility.yul\":6052:6071   */\n      swap1\n      pop\n        /* \"#utility.yul\":5711:6077   */\n      swap2\n      swap1\n      pop\n      jump\t// out\n        /* \"#utility.yul\":6083:6502   */\n    tag_44:\n        /* \"#utility.yul\":6249:6253   */\n      0x00\n        /* \"#utility.yul\":6287:6289   */\n      0x20\n        /* \"#utility.yul\":6276:6285   */\n      dup3\n        /* \"#utility.yul\":6272:6290   */\n      add\n        /* \"#utility.yul\":6264:6290   */\n      swap1\n      pop\n        /* \"#utility.yul\":6336:6345   */\n      dup2\n        /* \"#utility.yul\":6330:6334   */\n      dup2\n        /* \"#utility.yul\":6326:6346   */\n      sub\n        /* \"#utility.yul\":6322:6323   */\n      0x00\n        /* \"#utility.yul\":6311:6320   */\n      dup4\n        /* \"#utility.yul\":6307:6324   */\n      add\n        /* \"#utility.yul\":6300:6347   */\n      mstore\n        /* \"#utility.yul\":6364:6495   */\n      tag_132\n        /* \"#utility.yul\":6490:6494   */\n      dup2\n        /* \"#utility.yul\":6364:6495   */\n      tag_66\n      jump\t// in\n    tag_132:\n        /* \"#utility.yul\":6356:6495   */\n      swap1\n      pop\n        /* \"#utility.yul\":6083:6502   */\n      swap2\n      swap1\n      pop\n      jump\t// out\n\n    auxdata: 0xa26469706673582212201e84f4bc7878a80e8cf51cdba3e9fe9f63f0ba934ce50b0b3180a9b1230769ab64736f6c634300081d0033\n}\n",
				"bytecode": {
					"linkReferences": {},
					"object": "6080604052348015600e575f5ffd5b50335f5f6101000a81548173ffffffffffffffffffffffffffffffffffffffff021916908373ffffffffffffffffffffffffffffffffffffffff1602179055506107ae8061005b5f395ff3fe608060405260043610610042575f3560e01c806327e235e31461009f5780633b0bd37a146100db5780633ccfd60b14610103578063f437bc59146101195761009b565b3661009b573460015f3373ffffffffffffffffffffffffffffffffffffffff1673ffffffffffffffffffffffffffffffffffffffff1681526020019081526020015f205f8282546100939190610477565b925050819055005b5f5ffd5b3480156100aa575f5ffd5b506100c560048036038101906100c09190610508565b610143565b6040516100d29190610542565b60405180910390f35b3480156100e6575f5ffd5b5061010160048036038101906100fc9190610585565b610158565b005b34801561010e575f5ffd5b50610117610311565b005b348015610124575f5ffd5b5061012d61041d565b60405161013a91906105e4565b60405180910390f35b6001602052805f5260405f205f915090505481565b5f5f9054906101000a900473ffffffffffffffffffffffffffffffffffffffff1673ffffffffffffffffffffffffffffffffffffffff163373ffffffffffffffffffffffffffffffffffffffff16146101e6576040517f08c379a00000000000000000000000000000000000000000000000000000000081526004016101dd90610657565b60405180910390fd5b8060015f8573ffffffffffffffffffffffffffffffffffffffff1673ffffffffffffffffffffffffffffffffffffffff1681526020019081526020015f20541015610266576040517f08c379a000000000000000000000000000000000000000000000000000000000815260040161025d906106bf565b60405180910390fd5b8060015f8573ffffffffffffffffffffffffffffffffffffffff1673ffffffffffffffffffffffffffffffffffffffff1681526020019081526020015f205f8282546102b291906106dd565b925050819055508060015f8473ffffffffffffffffffffffffffffffffffffffff1673ffffffffffffffffffffffffffffffffffffffff1681526020019081526020015f205f8282546103059190610477565b92505081905550505050565b5f60015f3373ffffffffffffffffffffffffffffffffffffffff1673ffffffffffffffffffffffffffffffffffffffff1681526020019081526020015f205490505f8111610394576040517f08c379a000000000000000000000000000000000000000000000000000000000815260040161038b9061075a565b60405180910390fd5b5f60015f3373ffffffffffffffffffffffffffffffffffffffff1673ffffffffffffffffffffffffffffffffffffffff1681526020019081526020015f20819055503373ffffffffffffffffffffffffffffffffffffffff166108fc8290811502906040515f60405180830381858888f19350505050158015610419573d5f5f3e3d5ffd5b5050565b5f5f9054906101000a900473ffffffffffffffffffffffffffffffffffffffff1681565b5f819050919050565b7f4e487b71000000000000000000000000000000000000000000000000000000005f52601160045260245ffd5b5f61048182610441565b915061048c83610441565b92508282019050808211156104a4576104a361044a565b5b92915050565b5f5ffd5b5f73ffffffffffffffffffffffffffffffffffffffff82169050919050565b5f6104d7826104ae565b9050919050565b6104e7816104cd565b81146104f1575f5ffd5b50565b5f81359050610502816104de565b92915050565b5f6020828403121561051d5761051c6104aa565b5b5f61052a848285016104f4565b91505092915050565b61053c81610441565b82525050565b5f6020820190506105555f830184610533565b92915050565b61056481610441565b811461056e575f5ffd5b50565b5f8135905061057f8161055b565b92915050565b5f5f5f6060848603121561059c5761059b6104aa565b5b5f6105a9868287016104f4565b93505060206105ba868287016104f4565b92505060406105cb86828701610571565b9150509250925092565b6105de816104cd565b82525050565b5f6020820190506105f75f8301846105d5565b92915050565b5f82825260208201905092915050565b7f4f6e6c7920686f737400000000000000000000000000000000000000000000005f82015250565b5f6106416009836105fd565b915061064c8261060d565b602082019050919050565b5f6020820190508181035f83015261066e81610635565b9050919050565b7f496e73756666696369656e7400000000000000000000000000000000000000005f82015250565b5f6106a9600c836105fd565b91506106b482610675565b602082019050919050565b5f6020820190508181035f8301526106d68161069d565b9050919050565b5f6106e782610441565b91506106f283610441565b925082820390508181111561070a5761070961044a565b5b92915050565b7f4e6f2062616c616e6365000000000000000000000000000000000000000000005f82015250565b5f610744600a836105fd565b915061074f82610710565b602082019050919050565b5f6020820190508181035f83015261077181610738565b905091905056fea26469706673582212201e84f4bc7878a80e8cf51cdba3e9fe9f63f0ba934ce50b0b3180a9b1230769ab64736f6c634300081d0033",
					"opcodes": "PUSH1 0x80 PUSH1 0x40 MSTORE CALLVALUE DUP1 ISZERO PUSH1 0xE JUMPI PUSH0 PUSH0 REVERT JUMPDEST POP CALLER PUSH0 PUSH0 PUSH2 0x100 EXP DUP2 SLOAD DUP2 PUSH20 0xFFFFFFFFFFFFFFFFFFFFFFFFFFFFFFFFFFFFFFFF MUL NOT AND SWAP1 DUP4 PUSH20 0xFFFFFFFFFFFFFFFFFFFFFFFFFFFFFFFFFFFFFFFF AND MUL OR SWAP1 SSTORE POP PUSH2 0x7AE DUP1 PUSH2 0x5B PUSH0 CODECOPY PUSH0 RETURN INVALID PUSH1 0x80 PUSH1 0x40 MSTORE PUSH1 0x4 CALLDATASIZE LT PUSH2 0x42 JUMPI PUSH0 CALLDATALOAD PUSH1 0xE0 SHR DUP1 PUSH4 0x27E235E3 EQ PUSH2 0x9F JUMPI DUP1 PUSH4 0x3B0BD37A EQ PUSH2 0xDB JUMPI DUP1 PUSH4 0x3CCFD60B EQ PUSH2 0x103 JUMPI DUP1 PUSH4 0xF437BC59 EQ PUSH2 0x119 JUMPI PUSH2 0x9B JUMP JUMPDEST CALLDATASIZE PUSH2 0x9B JUMPI CALLVALUE PUSH1 0x1 PUSH0 CALLER PUSH20 0xFFFFFFFFFFFFFFFFFFFFFFFFFFFFFFFFFFFFFFFF AND PUSH20 0xFFFFFFFFFFFFFFFFFFFFFFFFFFFFFFFFFFFFFFFF AND DUP2 MSTORE PUSH1 0x20 ADD SWAP1 DUP2 MSTORE PUSH1 0x20 ADD PUSH0 KECCAK256 PUSH0 DUP3 DUP3 SLOAD PUSH2 0x93 SWAP2 SWAP1 PUSH2 0x477 JUMP JUMPDEST SWAP3 POP POP DUP2 SWAP1 SSTORE STOP JUMPDEST PUSH0 PUSH0 REVERT JUMPDEST CALLVALUE DUP1 ISZERO PUSH2 0xAA JUMPI PUSH0 PUSH0 REVERT JUMPDEST POP PUSH2 0xC5 PUSH1 0x4 DUP1 CALLDATASIZE SUB DUP2 ADD SWAP1 PUSH2 0xC0 SWAP2 SWAP1 PUSH2 0x508 JUMP JUMPDEST PUSH2 0x143 JUMP JUMPDEST PUSH1 0x40 MLOAD PUSH2 0xD2 SWAP2 SWAP1 PUSH2 0x542 JUMP JUMPDEST PUSH1 0x40 MLOAD DUP1 SWAP2 SUB SWAP1 RETURN JUMPDEST CALLVALUE DUP1 ISZERO PUSH2 0xE6 JUMPI PUSH0 PUSH0 REVERT JUMPDEST POP PUSH2 0x101 PUSH1 0x4 DUP1 CALLDATASIZE SUB DUP2 ADD SWAP1 PUSH2 0xFC SWAP2 SWAP1 PUSH2 0x585 JUMP JUMPDEST PUSH2 0x158 JUMP JUMPDEST STOP JUMPDEST CALLVALUE DUP1 ISZERO PUSH2 0x10E JUMPI PUSH0 PUSH0 REVERT JUMPDEST POP PUSH2 0x117 PUSH2 0x311 JUMP JUMPDEST STOP JUMPDEST CALLVALUE DUP1 ISZERO PUSH2 0x124 JUMPI PUSH0 PUSH0 REVERT JUMPDEST POP PUSH2 0x12D PUSH2 0x41D JUMP JUMPDEST PUSH1 0x40 MLOAD PUSH2 0x13A SWAP2 SWAP1 PUSH2 0x5E4 JUMP JUMPDEST PUSH1 0x40 MLOAD DUP1 SWAP2 SUB SWAP1 RETURN JUMPDEST PUSH1 0x1 PUSH1 0x20 MSTORE DUP1 PUSH0 MSTORE PUSH1 0x40 PUSH0 KECCAK256 PUSH0 SWAP2 POP SWAP1 POP SLOAD DUP2 JUMP JUMPDEST PUSH0 PUSH0 SWAP1 SLOAD SWAP1 PUSH2 0x100 EXP SWAP1 DIV PUSH20 0xFFFFFFFFFFFFFFFFFFFFFFFFFFFFFFFFFFFFFFFF AND PUSH20 0xFFFFFFFFFFFFFFFFFFFFFFFFFFFFFFFFFFFFFFFF AND CALLER PUSH20 0xFFFFFFFFFFFFFFFFFFFFFFFFFFFFFFFFFFFFFFFF AND EQ PUSH2 0x1E6 JUMPI PUSH1 0x40 MLOAD PUSH32 0x8C379A000000000000000000000000000000000000000000000000000000000 DUP2 MSTORE PUSH1 0x4 ADD PUSH2 0x1DD SWAP1 PUSH2 0x657 JUMP JUMPDEST PUSH1 0x40 MLOAD DUP1 SWAP2 SUB SWAP1 REVERT JUMPDEST DUP1 PUSH1 0x1 PUSH0 DUP6 PUSH20 0xFFFFFFFFFFFFFFFFFFFFFFFFFFFFFFFFFFFFFFFF AND PUSH20 0xFFFFFFFFFFFFFFFFFFFFFFFFFFFFFFFFFFFFFFFF AND DUP2 MSTORE PUSH1 0x20 ADD SWAP1 DUP2 MSTORE PUSH1 0x20 ADD PUSH0 KECCAK256 SLOAD LT ISZERO PUSH2 0x266 JUMPI PUSH1 0x40 MLOAD PUSH32 0x8C379A000000000000000000000000000000000000000000000000000000000 DUP2 MSTORE PUSH1 0x4 ADD PUSH2 0x25D SWAP1 PUSH2 0x6BF JUMP JUMPDEST PUSH1 0x40 MLOAD DUP1 SWAP2 SUB SWAP1 REVERT JUMPDEST DUP1 PUSH1 0x1 PUSH0 DUP6 PUSH20 0xFFFFFFFFFFFFFFFFFFFFFFFFFFFFFFFFFFFFFFFF AND PUSH20 0xFFFFFFFFFFFFFFFFFFFFFFFFFFFFFFFFFFFFFFFF AND DUP2 MSTORE PUSH1 0x20 ADD SWAP1 DUP2 MSTORE PUSH1 0x20 ADD PUSH0 KECCAK256 PUSH0 DUP3 DUP3 SLOAD PUSH2 0x2B2 SWAP2 SWAP1 PUSH2 0x6DD JUMP JUMPDEST SWAP3 POP POP DUP2 SWAP1 SSTORE POP DUP1 PUSH1 0x1 PUSH0 DUP5 PUSH20 0xFFFFFFFFFFFFFFFFFFFFFFFFFFFFFFFFFFFFFFFF AND PUSH20 0xFFFFFFFFFFFFFFFFFFFFFFFFFFFFFFFFFFFFFFFF AND DUP2 MSTORE PUSH1 0x20 ADD SWAP1 DUP2 MSTORE PUSH1 0x20 ADD PUSH0 KECCAK256 PUSH0 DUP3 DUP3 SLOAD PUSH2 0x305 SWAP2 SWAP1 PUSH2 0x477 JUMP JUMPDEST SWAP3 POP POP DUP2 SWAP1 SSTORE POP POP POP POP JUMP JUMPDEST PUSH0 PUSH1 0x1 PUSH0 CALLER PUSH20 0xFFFFFFFFFFFFFFFFFFFFFFFFFFFFFFFFFFFFFFFF AND PUSH20 0xFFFFFFFFFFFFFFFFFFFFFFFFFFFFFFFFFFFFFFFF AND DUP2 MSTORE PUSH1 0x20 ADD SWAP1 DUP2 MSTORE PUSH1 0x20 ADD PUSH0 KECCAK256 SLOAD SWAP1 POP PUSH0 DUP2 GT PUSH2 0x394 JUMPI PUSH1 0x40 MLOAD PUSH32 0x8C379A000000000000000000000000000000000000000000000000000000000 DUP2 MSTORE PUSH1 0x4 ADD PUSH2 0x38B SWAP1 PUSH2 0x75A JUMP JUMPDEST PUSH1 0x40 MLOAD DUP1 SWAP2 SUB SWAP1 REVERT JUMPDEST PUSH0 PUSH1 0x1 PUSH0 CALLER PUSH20 0xFFFFFFFFFFFFFFFFFFFFFFFFFFFFFFFFFFFFFFFF AND PUSH20 0xFFFFFFFFFFFFFFFFFFFFFFFFFFFFFFFFFFFFFFFF AND DUP2 MSTORE PUSH1 0x20 ADD SWAP1 DUP2 MSTORE PUSH1 0x20 ADD PUSH0 KECCAK256 DUP2 SWAP1 SSTORE POP CALLER PUSH20 0xFFFFFFFFFFFFFFFFFFFFFFFFFFFFFFFFFFFFFFFF AND PUSH2 0x8FC DUP3 SWAP1 DUP2 ISZERO MUL SWAP1 PUSH1 0x40 MLOAD PUSH0 PUSH1 0x40 MLOAD DUP1 DUP4 SUB DUP2 DUP6 DUP9 DUP9 CALL SWAP4 POP POP POP POP ISZERO DUP1 ISZERO PUSH2 0x419 JUMPI RETURNDATASIZE PUSH0 PUSH0 RETURNDATACOPY RETURNDATASIZE PUSH0 REVERT JUMPDEST POP POP JUMP JUMPDEST PUSH0 PUSH0 SWAP1 SLOAD SWAP1 PUSH2 0x100 EXP SWAP1 DIV PUSH20 0xFFFFFFFFFFFFFFFFFFFFFFFFFFFFFFFFFFFFFFFF AND DUP2 JUMP JUMPDEST PUSH0 DUP2 SWAP1 POP SWAP2 SWAP1 POP JUMP JUMPDEST PUSH32 0x4E487B7100000000000000000000000000000000000000000000000000000000 PUSH0 MSTORE PUSH1 0x11 PUSH1 0x4 MSTORE PUSH1 0x24 PUSH0 REVERT JUMPDEST PUSH0 PUSH2 0x481 DUP3 PUSH2 0x441 JUMP JUMPDEST SWAP2 POP PUSH2 0x48C DUP4 PUSH2 0x441 JUMP JUMPDEST SWAP3 POP DUP3 DUP3 ADD SWAP1 POP DUP1 DUP3 GT ISZERO PUSH2 0x4A4 JUMPI PUSH2 0x4A3 PUSH2 0x44A JUMP JUMPDEST JUMPDEST SWAP3 SWAP2 POP POP JUMP JUMPDEST PUSH0 PUSH0 REVERT JUMPDEST PUSH0 PUSH20 0xFFFFFFFFFFFFFFFFFFFFFFFFFFFFFFFFFFFFFFFF DUP3 AND SWAP1 POP SWAP2 SWAP1 POP JUMP JUMPDEST PUSH0 PUSH2 0x4D7 DUP3 PUSH2 0x4AE JUMP JUMPDEST SWAP1 POP SWAP2 SWAP1 POP JUMP JUMPDEST PUSH2 0x4E7 DUP2 PUSH2 0x4CD JUMP JUMPDEST DUP2 EQ PUSH2 0x4F1 JUMPI PUSH0 PUSH0 REVERT JUMPDEST POP JUMP JUMPDEST PUSH0 DUP2 CALLDATALOAD SWAP1 POP PUSH2 0x502 DUP2 PUSH2 0x4DE JUMP JUMPDEST SWAP3 SWAP2 POP POP JUMP JUMPDEST PUSH0 PUSH1 0x20 DUP3 DUP5 SUB SLT ISZERO PUSH2 0x51D JUMPI PUSH2 0x51C PUSH2 0x4AA JUMP JUMPDEST JUMPDEST PUSH0 PUSH2 0x52A DUP5 DUP3 DUP6 ADD PUSH2 0x4F4 JUMP JUMPDEST SWAP2 POP POP SWAP3 SWAP2 POP POP JUMP JUMPDEST PUSH2 0x53C DUP2 PUSH2 0x441 JUMP JUMPDEST DUP3 MSTORE POP POP JUMP JUMPDEST PUSH0 PUSH1 0x20 DUP3 ADD SWAP1 POP PUSH2 0x555 PUSH0 DUP4 ADD DUP5 PUSH2 0x533 JUMP JUMPDEST SWAP3 SWAP2 POP POP JUMP JUMPDEST PUSH2 0x564 DUP2 PUSH2 0x441 JUMP JUMPDEST DUP2 EQ PUSH2 0x56E JUMPI PUSH0 PUSH0 REVERT JUMPDEST POP JUMP JUMPDEST PUSH0 DUP2 CALLDATALOAD SWAP1 POP PUSH2 0x57F DUP2 PUSH2 0x55B JUMP JUMPDEST SWAP3 SWAP2 POP POP JUMP JUMPDEST PUSH0 PUSH0 PUSH0 PUSH1 0x60 DUP5 DUP7 SUB SLT ISZERO PUSH2 0x59C JUMPI PUSH2 0x59B PUSH2 0x4AA JUMP JUMPDEST JUMPDEST PUSH0 PUSH2 0x5A9 DUP7 DUP3 DUP8 ADD PUSH2 0x4F4 JUMP JUMPDEST SWAP4 POP POP PUSH1 0x20 PUSH2 0x5BA DUP7 DUP3 DUP8 ADD PUSH2 0x4F4 JUMP JUMPDEST SWAP3 POP POP PUSH1 0x40 PUSH2 0x5CB DUP7 DUP3 DUP8 ADD PUSH2 0x571 JUMP JUMPDEST SWAP2 POP POP SWAP3 POP SWAP3 POP SWAP3 JUMP JUMPDEST PUSH2 0x5DE DUP2 PUSH2 0x4CD JUMP JUMPDEST DUP3 MSTORE POP POP JUMP JUMPDEST PUSH0 PUSH1 0x20 DUP3 ADD SWAP1 POP PUSH2 0x5F7 PUSH0 DUP4 ADD DUP5 PUSH2 0x5D5 JUMP JUMPDEST SWAP3 SWAP2 POP POP JUMP JUMPDEST PUSH0 DUP3 DUP3 MSTORE PUSH1 0x20 DUP3 ADD SWAP1 POP SWAP3 SWAP2 POP POP JUMP JUMPDEST PUSH32 0x4F6E6C7920686F73740000000000000000000000000000000000000000000000 PUSH0 DUP3 ADD MSTORE POP JUMP JUMPDEST PUSH0 PUSH2 0x641 PUSH1 0x9 DUP4 PUSH2 0x5FD JUMP JUMPDEST SWAP2 POP PUSH2 0x64C DUP3 PUSH2 0x60D JUMP JUMPDEST PUSH1 0x20 DUP3 ADD SWAP1 POP SWAP2 SWAP1 POP JUMP JUMPDEST PUSH0 PUSH1 0x20 DUP3 ADD SWAP1 POP DUP2 DUP2 SUB PUSH0 DUP4 ADD MSTORE PUSH2 0x66E DUP2 PUSH2 0x635 JUMP JUMPDEST SWAP1 POP SWAP2 SWAP1 POP JUMP JUMPDEST PUSH32 0x496E73756666696369656E740000000000000000000000000000000000000000 PUSH0 DUP3 ADD MSTORE POP JUMP JUMPDEST PUSH0 PUSH2 0x6A9 PUSH1 0xC DUP4 PUSH2 0x5FD JUMP JUMPDEST SWAP2 POP PUSH2 0x6B4 DUP3 PUSH2 0x675 JUMP JUMPDEST PUSH1 0x20 DUP3 ADD SWAP1 POP SWAP2 SWAP1 POP JUMP JUMPDEST PUSH0 PUSH1 0x20 DUP3 ADD SWAP1 POP DUP2 DUP2 SUB PUSH0 DUP4 ADD MSTORE PUSH2 0x6D6 DUP2 PUSH2 0x69D JUMP JUMPDEST SWAP1 POP SWAP2 SWAP1 POP JUMP JUMPDEST PUSH0 PUSH2 0x6E7 DUP3 PUSH2 0x441 JUMP JUMPDEST SWAP2 POP PUSH2 0x6F2 DUP4 PUSH2 0x441 JUMP JUMPDEST SWAP3 POP DUP3 DUP3 SUB SWAP1 POP DUP2 DUP2 GT ISZERO PUSH2 0x70A JUMPI PUSH2 0x709 PUSH2 0x44A JUMP JUMPDEST JUMPDEST SWAP3 SWAP2 POP POP JUMP JUMPDEST PUSH32 0x4E6F2062616C616E636500000000000000000000000000000000000000000000 PUSH0 DUP3 ADD MSTORE POP JUMP JUMPDEST PUSH0 PUSH2 0x744 PUSH1 0xA DUP4 PUSH2 0x5FD JUMP JUMPDEST SWAP2 POP PUSH2 0x74F DUP3 PUSH2 0x710 JUMP JUMPDEST PUSH1 0x20 DUP3 ADD SWAP1 POP SWAP2 SWAP1 POP JUMP JUMPDEST PUSH0 PUSH1 0x20 DUP3 ADD SWAP1 POP DUP2 DUP2 SUB PUSH0 DUP4 ADD MSTORE PUSH2 0x771 DUP2 PUSH2 0x738 JUMP JUMPDEST SWAP1 POP SWAP2 SWAP1 POP JUMP INVALID LOG2 PUSH5 0x6970667358 0x22 SLT KECCAK256 0x1E DUP5 DELEGATECALL 0xBC PUSH25 0x78A80E8CF51CDBA3E9FE9F63F0BA934CE50B0B3180A9B12307 PUSH10 0xAB64736F6C634300081D STOP CALLER "
				},
				"gasEstimates": {
					"creation": {
						"codeDepositCost": "393200",
						"executionCost": "24692",
						"totalCost": "417892"
					},
					"external": {
						"balances(address)": "2780",
						"host()": "2551",
						"hostTransfer(address,address,uint256)": "infinite",
						"withdraw()": "infinite"
					}
				},
				"methodIdentifiers": {
					"balances(address)": "27e235e3",
					"host()": "f437bc59",
					"hostTransfer(address,address,uint256)": "3b0bd37a",
					"withdraw()": "3ccfd60b"
				}
			},
			"storageLayout": {
				"storage": [
					{
						"astId": 2,
						"contract": "H/Multi-user Wallet.sol:MultiUserHostedWallet",
						"label": "host",
						"offset": 0,
						"slot": "0",
						"type": "t_address"
					},
					{
						"astId": 6,
						"contract": "H/Multi-user Wallet.sol:MultiUserHostedWallet",
						"label": "balances",
						"offset": 0,
						"slot": "1",
						"type": "t_mapping(t_address,t_uint256)"
					}
				],
				"types": {
					"t_address": {
						"encoding": "inplace",
						"label": "address",
						"numberOfBytes": "20"
					},
					"t_mapping(t_address,t_uint256)": {
						"encoding": "mapping",
						"key": "t_address",
						"label": "mapping(address => uint256)",
						"numberOfBytes": "32",
						"value": "t_uint256"
					},
					"t_uint256": {
						"encoding": "inplace",
						"label": "uint256",
						"numberOfBytes": "32"
					}
				}
			},
			"userdoc": {
				"kind": "user",
				"methods": {},
				"version": 1
			}
		}
	}
}