{
	"H/Parallel PoW + PoS (Work Together → Match Required).sol": {
		"HybridParallel": {
			"abi": [
				{
					"inputs": [
						{
							"internalType": "uint256",
							"name": "",
							"type": "uint256"
						}
					],
					"name": "blocks",
					"outputs": [
						{
							"internalType": "address",
							"name": "miner",
							"type": "address"
						},
						{
							"internalType": "address",
							"name": "validator",
							"type": "address"
						},
						{
							"internalType": "bytes32",
							"name": "hash",
							"type": "bytes32"
						},
						{
							"internalType": "bool",
							"name": "valid",
							"type": "bool"
						}
					],
					"stateMutability": "view",
					"type": "function"
				},
				{
					"inputs": [
						{
							"internalType": "uint256",
							"name": "id",
							"type": "uint256"
						}
					],
					"name": "getBlock",
					"outputs": [
						{
							"components": [
								{
									"internalType": "address",
									"name": "miner",
									"type": "address"
								},
								{
									"internalType": "address",
									"name": "validator",
									"type": "address"
								},
								{
									"internalType": "bytes32",
									"name": "hash",
									"type": "bytes32"
								},
								{
									"internalType": "bool",
									"name": "valid",
									"type": "bool"
								}
							],
							"internalType": "struct HybridParallel.Candidate",
							"name": "",
							"type": "tuple"
						}
					],
					"stateMutability": "view",
					"type": "function"
				},
				{
					"inputs": [],
					"name": "height",
					"outputs": [
						{
							"internalType": "uint256",
							"name": "",
							"type": "uint256"
						}
					],
					"stateMutability": "view",
					"type": "function"
				},
				{
					"inputs": [
						{
							"internalType": "address",
							"name": "validator",
							"type": "address"
						},
						{
							"internalType": "uint256",
							"name": "nonce",
							"type": "uint256"
						}
					],
					"name": "submitProof",
					"outputs": [],
					"stateMutability": "nonpayable",
					"type": "function"
				}
			],
			"devdoc": {
				"kind": "dev",
				"methods": {},
				"version": 1
			},
			"evm": {
				"assembly": "    /* \"H/Parallel PoW + PoS (Work Together \\xe2\\x86\\x92 Match Required).sol\":0:693  contract HybridParallel {... */\n  mstore(0x40, 0x80)\n  callvalue\n  dup1\n  iszero\n  tag_1\n  jumpi\n  revert(0x00, 0x00)\ntag_1:\n  pop\n  dataSize(sub_0)\n  dup1\n  dataOffset(sub_0)\n  0x00\n  codecopy\n  0x00\n  return\nstop\n\nsub_0: assembly {\n        /* \"H/Parallel PoW + PoS (Work Together \\xe2\\x86\\x92 Match Required).sol\":0:693  contract HybridParallel {... */\n      mstore(0x40, 0x80)\n      callvalue\n      dup1\n      iszero\n      tag_1\n      jumpi\n      revert(0x00, 0x00)\n    tag_1:\n      pop\n      jumpi(tag_2, lt(calldatasize, 0x04))\n      shr(0xe0, calldataload(0x00))\n      dup1\n      0x04c07569\n      eq\n      tag_3\n      jumpi\n      dup1\n      0x0ef26743\n      eq\n      tag_4\n      jumpi\n      dup1\n      0x82e6b20d\n      eq\n      tag_5\n      jumpi\n      dup1\n      0xf25b3f99\n      eq\n      tag_6\n      jumpi\n    tag_2:\n      revert(0x00, 0x00)\n        /* \"H/Parallel PoW + PoS (Work Together \\xe2\\x86\\x92 Match Required).sol\":586:691  function getBlock(uint256 id) external view returns (Candidate memory) {... */\n    tag_3:\n      tag_7\n      0x04\n      dup1\n      calldatasize\n      sub\n      dup2\n      add\n      swap1\n      tag_8\n      swap2\n      swap1\n      tag_9\n      jump\t// in\n    tag_8:\n      tag_10\n      jump\t// in\n    tag_7:\n      mload(0x40)\n      tag_11\n      swap2\n      swap1\n      tag_12\n      jump\t// in\n    tag_11:\n      mload(0x40)\n      dup1\n      swap2\n      sub\n      swap1\n      return\n        /* \"H/Parallel PoW + PoS (Work Together \\xe2\\x86\\x92 Match Required).sol\":201:222  uint256 public height */\n    tag_4:\n      tag_13\n      tag_14\n      jump\t// in\n    tag_13:\n      mload(0x40)\n      tag_15\n      swap2\n      swap1\n      tag_16\n      jump\t// in\n    tag_15:\n      mload(0x40)\n      dup1\n      swap2\n      sub\n      swap1\n      return\n        /* \"H/Parallel PoW + PoS (Work Together \\xe2\\x86\\x92 Match Required).sol\":229:580  function submitProof(address validator, uint256 nonce) external {... */\n    tag_5:\n      tag_17\n      0x04\n      dup1\n      calldatasize\n      sub\n      dup2\n      add\n      swap1\n      tag_18\n      swap2\n      swap1\n      tag_19\n      jump\t// in\n    tag_18:\n      tag_20\n      jump\t// in\n    tag_17:\n      stop\n        /* \"H/Parallel PoW + PoS (Work Together \\xe2\\x86\\x92 Match Required).sol\":152:195  mapping(uint256 => Candidate) public blocks */\n    tag_6:\n      tag_21\n      0x04\n      dup1\n      calldatasize\n      sub\n      dup2\n      add\n      swap1\n      tag_22\n      swap2\n      swap1\n      tag_9\n      jump\t// in\n    tag_22:\n      tag_23\n      jump\t// in\n    tag_21:\n      mload(0x40)\n      tag_24\n      swap5\n      swap4\n      swap3\n      swap2\n      swap1\n      tag_25\n      jump\t// in\n    tag_24:\n      mload(0x40)\n      dup1\n      swap2\n      sub\n      swap1\n      return\n        /* \"H/Parallel PoW + PoS (Work Together \\xe2\\x86\\x92 Match Required).sol\":586:691  function getBlock(uint256 id) external view returns (Candidate memory) {... */\n    tag_10:\n        /* \"H/Parallel PoW + PoS (Work Together \\xe2\\x86\\x92 Match Required).sol\":639:655  Candidate memory */\n      tag_26\n      tag_27\n      jump\t// in\n    tag_26:\n        /* \"H/Parallel PoW + PoS (Work Together \\xe2\\x86\\x92 Match Required).sol\":674:680  blocks */\n      0x00\n        /* \"H/Parallel PoW + PoS (Work Together \\xe2\\x86\\x92 Match Required).sol\":674:684  blocks[id] */\n      0x00\n        /* \"H/Parallel PoW + PoS (Work Together \\xe2\\x86\\x92 Match Required).sol\":681:683  id */\n      dup4\n        /* \"H/Parallel PoW + PoS (Work Together \\xe2\\x86\\x92 Match Required).sol\":674:684  blocks[id] */\n      dup2\n      mstore\n      0x20\n      add\n      swap1\n      dup2\n      mstore\n      0x20\n      add\n      0x00\n      keccak256\n        /* \"H/Parallel PoW + PoS (Work Together \\xe2\\x86\\x92 Match Required).sol\":667:684  return blocks[id] */\n      mload(0x40)\n      dup1\n      0x80\n      add\n      0x40\n      mstore\n      swap1\n      dup2\n      0x00\n      dup3\n      add\n      0x00\n      swap1\n      sload\n      swap1\n      0x0100\n      exp\n      swap1\n      div\n      0xffffffffffffffffffffffffffffffffffffffff\n      and\n      0xffffffffffffffffffffffffffffffffffffffff\n      and\n      0xffffffffffffffffffffffffffffffffffffffff\n      and\n      dup2\n      mstore\n      0x20\n      add\n      0x01\n      dup3\n      add\n      0x00\n      swap1\n      sload\n      swap1\n      0x0100\n      exp\n      swap1\n      div\n      0xffffffffffffffffffffffffffffffffffffffff\n      and\n      0xffffffffffffffffffffffffffffffffffffffff\n      and\n      0xffffffffffffffffffffffffffffffffffffffff\n      and\n      dup2\n      mstore\n      0x20\n      add\n      0x02\n      dup3\n      add\n      sload\n      dup2\n      mstore\n      0x20\n      add\n      0x03\n      dup3\n      add\n      0x00\n      swap1\n      sload\n      swap1\n      0x0100\n      exp\n      swap1\n      div\n      0xff\n      and\n      iszero\n      iszero\n      iszero\n      iszero\n      dup2\n      mstore\n      pop\n      pop\n      swap1\n      pop\n        /* \"H/Parallel PoW + PoS (Work Together \\xe2\\x86\\x92 Match Required).sol\":586:691  function getBlock(uint256 id) external view returns (Candidate memory) {... */\n      swap2\n      swap1\n      pop\n      jump\t// out\n        /* \"H/Parallel PoW + PoS (Work Together \\xe2\\x86\\x92 Match Required).sol\":201:222  uint256 public height */\n    tag_14:\n      sload(0x01)\n      dup2\n      jump\t// out\n        /* \"H/Parallel PoW + PoS (Work Together \\xe2\\x86\\x92 Match Required).sol\":229:580  function submitProof(address validator, uint256 nonce) external {... */\n    tag_20:\n        /* \"H/Parallel PoW + PoS (Work Together \\xe2\\x86\\x92 Match Required).sol\":332:333  0 */\n      0x00\n        /* \"H/Parallel PoW + PoS (Work Together \\xe2\\x86\\x92 Match Required).sol\":311:334  tx.origin != address(0) */\n      0xffffffffffffffffffffffffffffffffffffffff\n      and\n        /* \"H/Parallel PoW + PoS (Work Together \\xe2\\x86\\x92 Match Required).sol\":311:320  tx.origin */\n      origin\n        /* \"H/Parallel PoW + PoS (Work Together \\xe2\\x86\\x92 Match Required).sol\":311:334  tx.origin != address(0) */\n      0xffffffffffffffffffffffffffffffffffffffff\n      and\n      sub\n        /* \"H/Parallel PoW + PoS (Work Together \\xe2\\x86\\x92 Match Required).sol\":303:353  require(tx.origin != address(0), \"Invalid origin\") */\n      tag_30\n      jumpi\n      mload(0x40)\n      0x08c379a000000000000000000000000000000000000000000000000000000000\n      dup2\n      mstore\n      0x04\n      add\n      tag_31\n      swap1\n      tag_32\n      jump\t// in\n    tag_31:\n      mload(0x40)\n      dup1\n      swap2\n      sub\n      swap1\n      revert\n    tag_30:\n        /* \"H/Parallel PoW + PoS (Work Together \\xe2\\x86\\x92 Match Required).sol\":364:376  bytes32 hash */\n      0x00\n        /* \"H/Parallel PoW + PoS (Work Together \\xe2\\x86\\x92 Match Required).sol\":406:416  msg.sender */\n      caller\n        /* \"H/Parallel PoW + PoS (Work Together \\xe2\\x86\\x92 Match Required).sol\":418:423  nonce */\n      dup3\n        /* \"H/Parallel PoW + PoS (Work Together \\xe2\\x86\\x92 Match Required).sol\":389:424  abi.encodePacked(msg.sender, nonce) */\n      add(0x20, mload(0x40))\n      tag_33\n      swap3\n      swap2\n      swap1\n      tag_34\n      jump\t// in\n    tag_33:\n      mload(0x40)\n      0x20\n      dup2\n      dup4\n      sub\n      sub\n      dup2\n      mstore\n      swap1\n      0x40\n      mstore\n        /* \"H/Parallel PoW + PoS (Work Together \\xe2\\x86\\x92 Match Required).sol\":379:425  keccak256(abi.encodePacked(msg.sender, nonce)) */\n      dup1\n      mload\n      swap1\n      0x20\n      add\n      keccak256\n        /* \"H/Parallel PoW + PoS (Work Together \\xe2\\x86\\x92 Match Required).sol\":364:425  bytes32 hash = keccak256(abi.encodePacked(msg.sender, nonce)) */\n      swap1\n      pop\n        /* \"H/Parallel PoW + PoS (Work Together \\xe2\\x86\\x92 Match Required).sol\":459:465  2**240 */\n      0x01000000000000000000000000000000000000000000000000000000000000\n        /* \"H/Parallel PoW + PoS (Work Together \\xe2\\x86\\x92 Match Required).sol\":451:455  hash */\n      dup2\n        /* \"H/Parallel PoW + PoS (Work Together \\xe2\\x86\\x92 Match Required).sol\":443:456  uint256(hash) */\n      0x00\n      shr\n        /* \"H/Parallel PoW + PoS (Work Together \\xe2\\x86\\x92 Match Required).sol\":443:465  uint256(hash) < 2**240 */\n      lt\n        /* \"H/Parallel PoW + PoS (Work Together \\xe2\\x86\\x92 Match Required).sol\":435:483  require(uint256(hash) < 2**240, \"Hash too high\") */\n      tag_35\n      jumpi\n      mload(0x40)\n      0x08c379a000000000000000000000000000000000000000000000000000000000\n      dup2\n      mstore\n      0x04\n      add\n      tag_36\n      swap1\n      tag_37\n      jump\t// in\n    tag_36:\n      mload(0x40)\n      dup1\n      swap2\n      sub\n      swap1\n      revert\n    tag_35:\n        /* \"H/Parallel PoW + PoS (Work Together \\xe2\\x86\\x92 Match Required).sol\":511:555  Candidate(msg.sender, validator, hash, true) */\n      mload(0x40)\n      dup1\n      0x80\n      add\n      0x40\n      mstore\n      dup1\n        /* \"H/Parallel PoW + PoS (Work Together \\xe2\\x86\\x92 Match Required).sol\":521:531  msg.sender */\n      caller\n        /* \"H/Parallel PoW + PoS (Work Together \\xe2\\x86\\x92 Match Required).sol\":511:555  Candidate(msg.sender, validator, hash, true) */\n      0xffffffffffffffffffffffffffffffffffffffff\n      and\n      dup2\n      mstore\n      0x20\n      add\n        /* \"H/Parallel PoW + PoS (Work Together \\xe2\\x86\\x92 Match Required).sol\":533:542  validator */\n      dup5\n        /* \"H/Parallel PoW + PoS (Work Together \\xe2\\x86\\x92 Match Required).sol\":511:555  Candidate(msg.sender, validator, hash, true) */\n      0xffffffffffffffffffffffffffffffffffffffff\n      and\n      dup2\n      mstore\n      0x20\n      add\n        /* \"H/Parallel PoW + PoS (Work Together \\xe2\\x86\\x92 Match Required).sol\":544:548  hash */\n      dup3\n        /* \"H/Parallel PoW + PoS (Work Together \\xe2\\x86\\x92 Match Required).sol\":511:555  Candidate(msg.sender, validator, hash, true) */\n      dup2\n      mstore\n      0x20\n      add\n        /* \"H/Parallel PoW + PoS (Work Together \\xe2\\x86\\x92 Match Required).sol\":550:554  true */\n      0x01\n        /* \"H/Parallel PoW + PoS (Work Together \\xe2\\x86\\x92 Match Required).sol\":511:555  Candidate(msg.sender, validator, hash, true) */\n      iszero\n      iszero\n      dup2\n      mstore\n      pop\n        /* \"H/Parallel PoW + PoS (Work Together \\xe2\\x86\\x92 Match Required).sol\":494:500  blocks */\n      0x00\n        /* \"H/Parallel PoW + PoS (Work Together \\xe2\\x86\\x92 Match Required).sol\":494:508  blocks[height] */\n      0x00\n        /* \"H/Parallel PoW + PoS (Work Together \\xe2\\x86\\x92 Match Required).sol\":501:507  height */\n      sload(0x01)\n        /* \"H/Parallel PoW + PoS (Work Together \\xe2\\x86\\x92 Match Required).sol\":494:508  blocks[height] */\n      dup2\n      mstore\n      0x20\n      add\n      swap1\n      dup2\n      mstore\n      0x20\n      add\n      0x00\n      keccak256\n        /* \"H/Parallel PoW + PoS (Work Together \\xe2\\x86\\x92 Match Required).sol\":494:555  blocks[height] = Candidate(msg.sender, validator, hash, true) */\n      0x00\n      dup3\n      add\n      mload\n      dup2\n      0x00\n      add\n      exp(0x0100, 0x00)\n      dup2\n      sload\n      dup2\n      0xffffffffffffffffffffffffffffffffffffffff\n      mul\n      not\n      and\n      swap1\n      dup4\n      0xffffffffffffffffffffffffffffffffffffffff\n      and\n      mul\n      or\n      swap1\n      sstore\n      pop\n      0x20\n      dup3\n      add\n      mload\n      dup2\n      0x01\n      add\n      exp(0x0100, 0x00)\n      dup2\n      sload\n      dup2\n      0xffffffffffffffffffffffffffffffffffffffff\n      mul\n      not\n      and\n      swap1\n      dup4\n      0xffffffffffffffffffffffffffffffffffffffff\n      and\n      mul\n      or\n      swap1\n      sstore\n      pop\n      0x40\n      dup3\n      add\n      mload\n      dup2\n      0x02\n      add\n      sstore\n      0x60\n      dup3\n      add\n      mload\n      dup2\n      0x03\n      add\n      exp(0x0100, 0x00)\n      dup2\n      sload\n      dup2\n      0xff\n      mul\n      not\n      and\n      swap1\n      dup4\n      iszero\n      iszero\n      mul\n      or\n      swap1\n      sstore\n      pop\n      swap1\n      pop\n      pop\n        /* \"H/Parallel PoW + PoS (Work Together \\xe2\\x86\\x92 Match Required).sol\":565:571  height */\n      0x01\n      0x00\n        /* \"H/Parallel PoW + PoS (Work Together \\xe2\\x86\\x92 Match Required).sol\":565:573  height++ */\n      dup2\n      sload\n      dup1\n      swap3\n      swap2\n      swap1\n      tag_38\n      swap1\n      tag_39\n      jump\t// in\n    tag_38:\n      swap2\n      swap1\n      pop\n      sstore\n      pop\n        /* \"H/Parallel PoW + PoS (Work Together \\xe2\\x86\\x92 Match Required).sol\":293:580  {... */\n      pop\n        /* \"H/Parallel PoW + PoS (Work Together \\xe2\\x86\\x92 Match Required).sol\":229:580  function submitProof(address validator, uint256 nonce) external {... */\n      pop\n      pop\n      jump\t// out\n        /* \"H/Parallel PoW + PoS (Work Together \\xe2\\x86\\x92 Match Required).sol\":152:195  mapping(uint256 => Candidate) public blocks */\n    tag_23:\n      mstore(0x20, 0x00)\n      dup1\n      0x00\n      mstore\n      keccak256(0x00, 0x40)\n      0x00\n      swap2\n      pop\n      swap1\n      pop\n      dup1\n      0x00\n      add\n      0x00\n      swap1\n      sload\n      swap1\n      0x0100\n      exp\n      swap1\n      div\n      0xffffffffffffffffffffffffffffffffffffffff\n      and\n      swap1\n      dup1\n      0x01\n      add\n      0x00\n      swap1\n      sload\n      swap1\n      0x0100\n      exp\n      swap1\n      div\n      0xffffffffffffffffffffffffffffffffffffffff\n      and\n      swap1\n      dup1\n      0x02\n      add\n      sload\n      swap1\n      dup1\n      0x03\n      add\n      0x00\n      swap1\n      sload\n      swap1\n      0x0100\n      exp\n      swap1\n      div\n      0xff\n      and\n      swap1\n      pop\n      dup5\n      jump\t// out\n    tag_27:\n      mload(0x40)\n      dup1\n      0x80\n      add\n      0x40\n      mstore\n      dup1\n      and(0xffffffffffffffffffffffffffffffffffffffff, 0x00)\n      dup2\n      mstore\n      0x20\n      add\n      and(0xffffffffffffffffffffffffffffffffffffffff, 0x00)\n      dup2\n      mstore\n      0x20\n      add\n      0x00\n      dup2\n      mstore\n      0x20\n      add\n      iszero(iszero(0x00))\n      dup2\n      mstore\n      pop\n      swap1\n      jump\t// out\n        /* \"#utility.yul\":88:205   */\n    tag_41:\n        /* \"#utility.yul\":197:198   */\n      0x00\n        /* \"#utility.yul\":194:195   */\n      0x00\n        /* \"#utility.yul\":187:199   */\n      revert\n        /* \"#utility.yul\":334:411   */\n    tag_43:\n        /* \"#utility.yul\":371:378   */\n      0x00\n        /* \"#utility.yul\":400:405   */\n      dup2\n        /* \"#utility.yul\":389:405   */\n      swap1\n      pop\n        /* \"#utility.yul\":334:411   */\n      swap2\n      swap1\n      pop\n      jump\t// out\n        /* \"#utility.yul\":417:539   */\n    tag_44:\n        /* \"#utility.yul\":490:514   */\n      tag_78\n        /* \"#utility.yul\":508:513   */\n      dup2\n        /* \"#utility.yul\":490:514   */\n      tag_43\n      jump\t// in\n    tag_78:\n        /* \"#utility.yul\":483:488   */\n      dup2\n        /* \"#utility.yul\":480:515   */\n      eq\n        /* \"#utility.yul\":470:533   */\n      tag_79\n      jumpi\n        /* \"#utility.yul\":529:530   */\n      0x00\n        /* \"#utility.yul\":526:527   */\n      0x00\n        /* \"#utility.yul\":519:531   */\n      revert\n        /* \"#utility.yul\":470:533   */\n    tag_79:\n        /* \"#utility.yul\":417:539   */\n      pop\n      jump\t// out\n        /* \"#utility.yul\":545:684   */\n    tag_45:\n        /* \"#utility.yul\":591:596   */\n      0x00\n        /* \"#utility.yul\":629:635   */\n      dup2\n        /* \"#utility.yul\":616:636   */\n      calldataload\n        /* \"#utility.yul\":607:636   */\n      swap1\n      pop\n        /* \"#utility.yul\":645:678   */\n      tag_81\n        /* \"#utility.yul\":672:677   */\n      dup2\n        /* \"#utility.yul\":645:678   */\n      tag_44\n      jump\t// in\n    tag_81:\n        /* \"#utility.yul\":545:684   */\n      swap3\n      swap2\n      pop\n      pop\n      jump\t// out\n        /* \"#utility.yul\":690:1019   */\n    tag_9:\n        /* \"#utility.yul\":749:755   */\n      0x00\n        /* \"#utility.yul\":798:800   */\n      0x20\n        /* \"#utility.yul\":786:795   */\n      dup3\n        /* \"#utility.yul\":777:784   */\n      dup5\n        /* \"#utility.yul\":773:796   */\n      sub\n        /* \"#utility.yul\":769:801   */\n      slt\n        /* \"#utility.yul\":766:885   */\n      iszero\n      tag_83\n      jumpi\n        /* \"#utility.yul\":804:883   */\n      tag_84\n      tag_41\n      jump\t// in\n    tag_84:\n        /* \"#utility.yul\":766:885   */\n    tag_83:\n        /* \"#utility.yul\":924:925   */\n      0x00\n        /* \"#utility.yul\":949:1002   */\n      tag_85\n        /* \"#utility.yul\":994:1001   */\n      dup5\n        /* \"#utility.yul\":985:991   */\n      dup3\n        /* \"#utility.yul\":974:983   */\n      dup6\n        /* \"#utility.yul\":970:992   */\n      add\n        /* \"#utility.yul\":949:1002   */\n      tag_45\n      jump\t// in\n    tag_85:\n        /* \"#utility.yul\":939:1002   */\n      swap2\n      pop\n        /* \"#utility.yul\":895:1012   */\n      pop\n        /* \"#utility.yul\":690:1019   */\n      swap3\n      swap2\n      pop\n      pop\n      jump\t// out\n        /* \"#utility.yul\":1025:1151   */\n    tag_46:\n        /* \"#utility.yul\":1062:1069   */\n      0x00\n        /* \"#utility.yul\":1102:1144   */\n      0xffffffffffffffffffffffffffffffffffffffff\n        /* \"#utility.yul\":1095:1100   */\n      dup3\n        /* \"#utility.yul\":1091:1145   */\n      and\n        /* \"#utility.yul\":1080:1145   */\n      swap1\n      pop\n        /* \"#utility.yul\":1025:1151   */\n      swap2\n      swap1\n      pop\n      jump\t// out\n        /* \"#utility.yul\":1157:1253   */\n    tag_47:\n        /* \"#utility.yul\":1194:1201   */\n      0x00\n        /* \"#utility.yul\":1223:1247   */\n      tag_88\n        /* \"#utility.yul\":1241:1246   */\n      dup3\n        /* \"#utility.yul\":1223:1247   */\n      tag_46\n      jump\t// in\n    tag_88:\n        /* \"#utility.yul\":1212:1247   */\n      swap1\n      pop\n        /* \"#utility.yul\":1157:1253   */\n      swap2\n      swap1\n      pop\n      jump\t// out\n        /* \"#utility.yul\":1259:1367   */\n    tag_48:\n        /* \"#utility.yul\":1336:1360   */\n      tag_90\n        /* \"#utility.yul\":1354:1359   */\n      dup2\n        /* \"#utility.yul\":1336:1360   */\n      tag_47\n      jump\t// in\n    tag_90:\n        /* \"#utility.yul\":1331:1334   */\n      dup3\n        /* \"#utility.yul\":1324:1361   */\n      mstore\n        /* \"#utility.yul\":1259:1367   */\n      pop\n      pop\n      jump\t// out\n        /* \"#utility.yul\":1373:1450   */\n    tag_49:\n        /* \"#utility.yul\":1410:1417   */\n      0x00\n        /* \"#utility.yul\":1439:1444   */\n      dup2\n        /* \"#utility.yul\":1428:1444   */\n      swap1\n      pop\n        /* \"#utility.yul\":1373:1450   */\n      swap2\n      swap1\n      pop\n      jump\t// out\n        /* \"#utility.yul\":1456:1564   */\n    tag_50:\n        /* \"#utility.yul\":1533:1557   */\n      tag_93\n        /* \"#utility.yul\":1551:1556   */\n      dup2\n        /* \"#utility.yul\":1533:1557   */\n      tag_49\n      jump\t// in\n    tag_93:\n        /* \"#utility.yul\":1528:1531   */\n      dup3\n        /* \"#utility.yul\":1521:1558   */\n      mstore\n        /* \"#utility.yul\":1456:1564   */\n      pop\n      pop\n      jump\t// out\n        /* \"#utility.yul\":1570:1660   */\n    tag_51:\n        /* \"#utility.yul\":1604:1611   */\n      0x00\n        /* \"#utility.yul\":1647:1652   */\n      dup2\n        /* \"#utility.yul\":1640:1653   */\n      iszero\n        /* \"#utility.yul\":1633:1654   */\n      iszero\n        /* \"#utility.yul\":1622:1654   */\n      swap1\n      pop\n        /* \"#utility.yul\":1570:1660   */\n      swap2\n      swap1\n      pop\n      jump\t// out\n        /* \"#utility.yul\":1666:1765   */\n    tag_52:\n        /* \"#utility.yul\":1737:1758   */\n      tag_96\n        /* \"#utility.yul\":1752:1757   */\n      dup2\n        /* \"#utility.yul\":1737:1758   */\n      tag_51\n      jump\t// in\n    tag_96:\n        /* \"#utility.yul\":1732:1735   */\n      dup3\n        /* \"#utility.yul\":1725:1759   */\n      mstore\n        /* \"#utility.yul\":1666:1765   */\n      pop\n      pop\n      jump\t// out\n        /* \"#utility.yul\":1845:2699   */\n    tag_53:\n        /* \"#utility.yul\":1990:1994   */\n      0x80\n        /* \"#utility.yul\":1985:1988   */\n      dup3\n        /* \"#utility.yul\":1981:1995   */\n      add\n        /* \"#utility.yul\":2078:2082   */\n      0x00\n        /* \"#utility.yul\":2071:2076   */\n      dup3\n        /* \"#utility.yul\":2067:2083   */\n      add\n        /* \"#utility.yul\":2061:2084   */\n      mload\n        /* \"#utility.yul\":2097:2160   */\n      tag_98\n        /* \"#utility.yul\":2154:2158   */\n      0x00\n        /* \"#utility.yul\":2149:2152   */\n      dup6\n        /* \"#utility.yul\":2145:2159   */\n      add\n        /* \"#utility.yul\":2131:2143   */\n      dup3\n        /* \"#utility.yul\":2097:2160   */\n      tag_48\n      jump\t// in\n    tag_98:\n        /* \"#utility.yul\":2005:2170   */\n      pop\n        /* \"#utility.yul\":2257:2261   */\n      0x20\n        /* \"#utility.yul\":2250:2255   */\n      dup3\n        /* \"#utility.yul\":2246:2262   */\n      add\n        /* \"#utility.yul\":2240:2263   */\n      mload\n        /* \"#utility.yul\":2276:2339   */\n      tag_99\n        /* \"#utility.yul\":2333:2337   */\n      0x20\n        /* \"#utility.yul\":2328:2331   */\n      dup6\n        /* \"#utility.yul\":2324:2338   */\n      add\n        /* \"#utility.yul\":2310:2322   */\n      dup3\n        /* \"#utility.yul\":2276:2339   */\n      tag_48\n      jump\t// in\n    tag_99:\n        /* \"#utility.yul\":2180:2349   */\n      pop\n        /* \"#utility.yul\":2431:2435   */\n      0x40\n        /* \"#utility.yul\":2424:2429   */\n      dup3\n        /* \"#utility.yul\":2420:2436   */\n      add\n        /* \"#utility.yul\":2414:2437   */\n      mload\n        /* \"#utility.yul\":2450:2513   */\n      tag_100\n        /* \"#utility.yul\":2507:2511   */\n      0x40\n        /* \"#utility.yul\":2502:2505   */\n      dup6\n        /* \"#utility.yul\":2498:2512   */\n      add\n        /* \"#utility.yul\":2484:2496   */\n      dup3\n        /* \"#utility.yul\":2450:2513   */\n      tag_50\n      jump\t// in\n    tag_100:\n        /* \"#utility.yul\":2359:2523   */\n      pop\n        /* \"#utility.yul\":2606:2610   */\n      0x60\n        /* \"#utility.yul\":2599:2604   */\n      dup3\n        /* \"#utility.yul\":2595:2611   */\n      add\n        /* \"#utility.yul\":2589:2612   */\n      mload\n        /* \"#utility.yul\":2625:2682   */\n      tag_101\n        /* \"#utility.yul\":2676:2680   */\n      0x60\n        /* \"#utility.yul\":2671:2674   */\n      dup6\n        /* \"#utility.yul\":2667:2681   */\n      add\n        /* \"#utility.yul\":2653:2665   */\n      dup3\n        /* \"#utility.yul\":2625:2682   */\n      tag_52\n      jump\t// in\n    tag_101:\n        /* \"#utility.yul\":2533:2692   */\n      pop\n        /* \"#utility.yul\":1959:2699   */\n      pop\n        /* \"#utility.yul\":1845:2699   */\n      pop\n      pop\n      jump\t// out\n        /* \"#utility.yul\":2705:3024   */\n    tag_12:\n        /* \"#utility.yul\":2846:2850   */\n      0x00\n        /* \"#utility.yul\":2884:2887   */\n      0x80\n        /* \"#utility.yul\":2873:2882   */\n      dup3\n        /* \"#utility.yul\":2869:2888   */\n      add\n        /* \"#utility.yul\":2861:2888   */\n      swap1\n      pop\n        /* \"#utility.yul\":2898:3017   */\n      tag_103\n        /* \"#utility.yul\":3014:3015   */\n      0x00\n        /* \"#utility.yul\":3003:3012   */\n      dup4\n        /* \"#utility.yul\":2999:3016   */\n      add\n        /* \"#utility.yul\":2990:2996   */\n      dup5\n        /* \"#utility.yul\":2898:3017   */\n      tag_53\n      jump\t// in\n    tag_103:\n        /* \"#utility.yul\":2705:3024   */\n      swap3\n      swap2\n      pop\n      pop\n      jump\t// out\n        /* \"#utility.yul\":3030:3148   */\n    tag_54:\n        /* \"#utility.yul\":3117:3141   */\n      tag_105\n        /* \"#utility.yul\":3135:3140   */\n      dup2\n        /* \"#utility.yul\":3117:3141   */\n      tag_43\n      jump\t// in\n    tag_105:\n        /* \"#utility.yul\":3112:3115   */\n      dup3\n        /* \"#utility.yul\":3105:3142   */\n      mstore\n        /* \"#utility.yul\":3030:3148   */\n      pop\n      pop\n      jump\t// out\n        /* \"#utility.yul\":3154:3376   */\n    tag_16:\n        /* \"#utility.yul\":3247:3251   */\n      0x00\n        /* \"#utility.yul\":3285:3287   */\n      0x20\n        /* \"#utility.yul\":3274:3283   */\n      dup3\n        /* \"#utility.yul\":3270:3288   */\n      add\n        /* \"#utility.yul\":3262:3288   */\n      swap1\n      pop\n        /* \"#utility.yul\":3298:3369   */\n      tag_107\n        /* \"#utility.yul\":3366:3367   */\n      0x00\n        /* \"#utility.yul\":3355:3364   */\n      dup4\n        /* \"#utility.yul\":3351:3368   */\n      add\n        /* \"#utility.yul\":3342:3348   */\n      dup5\n        /* \"#utility.yul\":3298:3369   */\n      tag_54\n      jump\t// in\n    tag_107:\n        /* \"#utility.yul\":3154:3376   */\n      swap3\n      swap2\n      pop\n      pop\n      jump\t// out\n        /* \"#utility.yul\":3382:3504   */\n    tag_55:\n        /* \"#utility.yul\":3455:3479   */\n      tag_109\n        /* \"#utility.yul\":3473:3478   */\n      dup2\n        /* \"#utility.yul\":3455:3479   */\n      tag_47\n      jump\t// in\n    tag_109:\n        /* \"#utility.yul\":3448:3453   */\n      dup2\n        /* \"#utility.yul\":3445:3480   */\n      eq\n        /* \"#utility.yul\":3435:3498   */\n      tag_110\n      jumpi\n        /* \"#utility.yul\":3494:3495   */\n      0x00\n        /* \"#utility.yul\":3491:3492   */\n      0x00\n        /* \"#utility.yul\":3484:3496   */\n      revert\n        /* \"#utility.yul\":3435:3498   */\n    tag_110:\n        /* \"#utility.yul\":3382:3504   */\n      pop\n      jump\t// out\n        /* \"#utility.yul\":3510:3649   */\n    tag_56:\n        /* \"#utility.yul\":3556:3561   */\n      0x00\n        /* \"#utility.yul\":3594:3600   */\n      dup2\n        /* \"#utility.yul\":3581:3601   */\n      calldataload\n        /* \"#utility.yul\":3572:3601   */\n      swap1\n      pop\n        /* \"#utility.yul\":3610:3643   */\n      tag_112\n        /* \"#utility.yul\":3637:3642   */\n      dup2\n        /* \"#utility.yul\":3610:3643   */\n      tag_55\n      jump\t// in\n    tag_112:\n        /* \"#utility.yul\":3510:3649   */\n      swap3\n      swap2\n      pop\n      pop\n      jump\t// out\n        /* \"#utility.yul\":3655:4129   */\n    tag_19:\n        /* \"#utility.yul\":3723:3729   */\n      0x00\n        /* \"#utility.yul\":3731:3737   */\n      0x00\n        /* \"#utility.yul\":3780:3782   */\n      0x40\n        /* \"#utility.yul\":3768:3777   */\n      dup4\n        /* \"#utility.yul\":3759:3766   */\n      dup6\n        /* \"#utility.yul\":3755:3778   */\n      sub\n        /* \"#utility.yul\":3751:3783   */\n      slt\n        /* \"#utility.yul\":3748:3867   */\n      iszero\n      tag_114\n      jumpi\n        /* \"#utility.yul\":3786:3865   */\n      tag_115\n      tag_41\n      jump\t// in\n    tag_115:\n        /* \"#utility.yul\":3748:3867   */\n    tag_114:\n        /* \"#utility.yul\":3906:3907   */\n      0x00\n        /* \"#utility.yul\":3931:3984   */\n      tag_116\n        /* \"#utility.yul\":3976:3983   */\n      dup6\n        /* \"#utility.yul\":3967:3973   */\n      dup3\n        /* \"#utility.yul\":3956:3965   */\n      dup7\n        /* \"#utility.yul\":3952:3974   */\n      add\n        /* \"#utility.yul\":3931:3984   */\n      tag_56\n      jump\t// in\n    tag_116:\n        /* \"#utility.yul\":3921:3984   */\n      swap3\n      pop\n        /* \"#utility.yul\":3877:3994   */\n      pop\n        /* \"#utility.yul\":4033:4035   */\n      0x20\n        /* \"#utility.yul\":4059:4112   */\n      tag_117\n        /* \"#utility.yul\":4104:4111   */\n      dup6\n        /* \"#utility.yul\":4095:4101   */\n      dup3\n        /* \"#utility.yul\":4084:4093   */\n      dup7\n        /* \"#utility.yul\":4080:4102   */\n      add\n        /* \"#utility.yul\":4059:4112   */\n      tag_45\n      jump\t// in\n    tag_117:\n        /* \"#utility.yul\":4049:4112   */\n      swap2\n      pop\n        /* \"#utility.yul\":4004:4122   */\n      pop\n        /* \"#utility.yul\":3655:4129   */\n      swap3\n      pop\n      swap3\n      swap1\n      pop\n      jump\t// out\n        /* \"#utility.yul\":4135:4253   */\n    tag_57:\n        /* \"#utility.yul\":4222:4246   */\n      tag_119\n        /* \"#utility.yul\":4240:4245   */\n      dup2\n        /* \"#utility.yul\":4222:4246   */\n      tag_47\n      jump\t// in\n    tag_119:\n        /* \"#utility.yul\":4217:4220   */\n      dup3\n        /* \"#utility.yul\":4210:4247   */\n      mstore\n        /* \"#utility.yul\":4135:4253   */\n      pop\n      pop\n      jump\t// out\n        /* \"#utility.yul\":4259:4377   */\n    tag_58:\n        /* \"#utility.yul\":4346:4370   */\n      tag_121\n        /* \"#utility.yul\":4364:4369   */\n      dup2\n        /* \"#utility.yul\":4346:4370   */\n      tag_49\n      jump\t// in\n    tag_121:\n        /* \"#utility.yul\":4341:4344   */\n      dup3\n        /* \"#utility.yul\":4334:4371   */\n      mstore\n        /* \"#utility.yul\":4259:4377   */\n      pop\n      pop\n      jump\t// out\n        /* \"#utility.yul\":4383:4492   */\n    tag_59:\n        /* \"#utility.yul\":4464:4485   */\n      tag_123\n        /* \"#utility.yul\":4479:4484   */\n      dup2\n        /* \"#utility.yul\":4464:4485   */\n      tag_51\n      jump\t// in\n    tag_123:\n        /* \"#utility.yul\":4459:4462   */\n      dup3\n        /* \"#utility.yul\":4452:4486   */\n      mstore\n        /* \"#utility.yul\":4383:4492   */\n      pop\n      pop\n      jump\t// out\n        /* \"#utility.yul\":4498:5039   */\n    tag_25:\n        /* \"#utility.yul\":4669:4673   */\n      0x00\n        /* \"#utility.yul\":4707:4710   */\n      0x80\n        /* \"#utility.yul\":4696:4705   */\n      dup3\n        /* \"#utility.yul\":4692:4711   */\n      add\n        /* \"#utility.yul\":4684:4711   */\n      swap1\n      pop\n        /* \"#utility.yul\":4721:4792   */\n      tag_125\n        /* \"#utility.yul\":4789:4790   */\n      0x00\n        /* \"#utility.yul\":4778:4787   */\n      dup4\n        /* \"#utility.yul\":4774:4791   */\n      add\n        /* \"#utility.yul\":4765:4771   */\n      dup8\n        /* \"#utility.yul\":4721:4792   */\n      tag_57\n      jump\t// in\n    tag_125:\n        /* \"#utility.yul\":4802:4874   */\n      tag_126\n        /* \"#utility.yul\":4870:4872   */\n      0x20\n        /* \"#utility.yul\":4859:4868   */\n      dup4\n        /* \"#utility.yul\":4855:4873   */\n      add\n        /* \"#utility.yul\":4846:4852   */\n      dup7\n        /* \"#utility.yul\":4802:4874   */\n      tag_57\n      jump\t// in\n    tag_126:\n        /* \"#utility.yul\":4884:4956   */\n      tag_127\n        /* \"#utility.yul\":4952:4954   */\n      0x40\n        /* \"#utility.yul\":4941:4950   */\n      dup4\n        /* \"#utility.yul\":4937:4955   */\n      add\n        /* \"#utility.yul\":4928:4934   */\n      dup6\n        /* \"#utility.yul\":4884:4956   */\n      tag_58\n      jump\t// in\n    tag_127:\n        /* \"#utility.yul\":4966:5032   */\n      tag_128\n        /* \"#utility.yul\":5028:5030   */\n      0x60\n        /* \"#utility.yul\":5017:5026   */\n      dup4\n        /* \"#utility.yul\":5013:5031   */\n      add\n        /* \"#utility.yul\":5004:5010   */\n      dup5\n        /* \"#utility.yul\":4966:5032   */\n      tag_59\n      jump\t// in\n    tag_128:\n        /* \"#utility.yul\":4498:5039   */\n      swap6\n      swap5\n      pop\n      pop\n      pop\n      pop\n      pop\n      jump\t// out\n        /* \"#utility.yul\":5045:5214   */\n    tag_60:\n        /* \"#utility.yul\":5129:5140   */\n      0x00\n        /* \"#utility.yul\":5163:5169   */\n      dup3\n        /* \"#utility.yul\":5158:5161   */\n      dup3\n        /* \"#utility.yul\":5151:5170   */\n      mstore\n        /* \"#utility.yul\":5203:5207   */\n      0x20\n        /* \"#utility.yul\":5198:5201   */\n      dup3\n        /* \"#utility.yul\":5194:5208   */\n      add\n        /* \"#utility.yul\":5179:5208   */\n      swap1\n      pop\n        /* \"#utility.yul\":5045:5214   */\n      swap3\n      swap2\n      pop\n      pop\n      jump\t// out\n        /* \"#utility.yul\":5220:5384   */\n    tag_61:\n        /* \"#utility.yul\":5360:5376   */\n      0x496e76616c6964206f726967696e000000000000000000000000000000000000\n        /* \"#utility.yul\":5356:5357   */\n      0x00\n        /* \"#utility.yul\":5348:5354   */\n      dup3\n        /* \"#utility.yul\":5344:5358   */\n      add\n        /* \"#utility.yul\":5337:5377   */\n      mstore\n        /* \"#utility.yul\":5220:5384   */\n      pop\n      jump\t// out\n        /* \"#utility.yul\":5390:5756   */\n    tag_62:\n        /* \"#utility.yul\":5532:5535   */\n      0x00\n        /* \"#utility.yul\":5553:5620   */\n      tag_132\n        /* \"#utility.yul\":5617:5619   */\n      0x0e\n        /* \"#utility.yul\":5612:5615   */\n      dup4\n        /* \"#utility.yul\":5553:5620   */\n      tag_60\n      jump\t// in\n    tag_132:\n        /* \"#utility.yul\":5546:5620   */\n      swap2\n      pop\n        /* \"#utility.yul\":5629:5722   */\n      tag_133\n        /* \"#utility.yul\":5718:5721   */\n      dup3\n        /* \"#utility.yul\":5629:5722   */\n      tag_61\n      jump\t// in\n    tag_133:\n        /* \"#utility.yul\":5747:5749   */\n      0x20\n        /* \"#utility.yul\":5742:5745   */\n      dup3\n        /* \"#utility.yul\":5738:5750   */\n      add\n        /* \"#utility.yul\":5731:5750   */\n      swap1\n      pop\n        /* \"#utility.yul\":5390:5756   */\n      swap2\n      swap1\n      pop\n      jump\t// out\n        /* \"#utility.yul\":5762:6181   */\n    tag_32:\n        /* \"#utility.yul\":5928:5932   */\n      0x00\n        /* \"#utility.yul\":5966:5968   */\n      0x20\n        /* \"#utility.yul\":5955:5964   */\n      dup3\n        /* \"#utility.yul\":5951:5969   */\n      add\n        /* \"#utility.yul\":5943:5969   */\n      swap1\n      pop\n        /* \"#utility.yul\":6015:6024   */\n      dup2\n        /* \"#utility.yul\":6009:6013   */\n      dup2\n        /* \"#utility.yul\":6005:6025   */\n      sub\n        /* \"#utility.yul\":6001:6002   */\n      0x00\n        /* \"#utility.yul\":5990:5999   */\n      dup4\n        /* \"#utility.yul\":5986:6003   */\n      add\n        /* \"#utility.yul\":5979:6026   */\n      mstore\n        /* \"#utility.yul\":6043:6174   */\n      tag_135\n        /* \"#utility.yul\":6169:6173   */\n      dup2\n        /* \"#utility.yul\":6043:6174   */\n      tag_62\n      jump\t// in\n    tag_135:\n        /* \"#utility.yul\":6035:6174   */\n      swap1\n      pop\n        /* \"#utility.yul\":5762:6181   */\n      swap2\n      swap1\n      pop\n      jump\t// out\n        /* \"#utility.yul\":6187:6281   */\n    tag_63:\n        /* \"#utility.yul\":6220:6228   */\n      0x00\n        /* \"#utility.yul\":6268:6273   */\n      dup2\n        /* \"#utility.yul\":6264:6266   */\n      0x60\n        /* \"#utility.yul\":6260:6274   */\n      shl\n        /* \"#utility.yul\":6239:6274   */\n      swap1\n      pop\n        /* \"#utility.yul\":6187:6281   */\n      swap2\n      swap1\n      pop\n      jump\t// out\n        /* \"#utility.yul\":6287:6381   */\n    tag_64:\n        /* \"#utility.yul\":6326:6333   */\n      0x00\n        /* \"#utility.yul\":6355:6375   */\n      tag_138\n        /* \"#utility.yul\":6369:6374   */\n      dup3\n        /* \"#utility.yul\":6355:6375   */\n      tag_63\n      jump\t// in\n    tag_138:\n        /* \"#utility.yul\":6344:6375   */\n      swap1\n      pop\n        /* \"#utility.yul\":6287:6381   */\n      swap2\n      swap1\n      pop\n      jump\t// out\n        /* \"#utility.yul\":6387:6487   */\n    tag_65:\n        /* \"#utility.yul\":6426:6433   */\n      0x00\n        /* \"#utility.yul\":6455:6481   */\n      tag_140\n        /* \"#utility.yul\":6475:6480   */\n      dup3\n        /* \"#utility.yul\":6455:6481   */\n      tag_64\n      jump\t// in\n    tag_140:\n        /* \"#utility.yul\":6444:6481   */\n      swap1\n      pop\n        /* \"#utility.yul\":6387:6487   */\n      swap2\n      swap1\n      pop\n      jump\t// out\n        /* \"#utility.yul\":6493:6650   */\n    tag_66:\n        /* \"#utility.yul\":6598:6643   */\n      tag_142\n        /* \"#utility.yul\":6618:6642   */\n      tag_143\n        /* \"#utility.yul\":6636:6641   */\n      dup3\n        /* \"#utility.yul\":6618:6642   */\n      tag_47\n      jump\t// in\n    tag_143:\n        /* \"#utility.yul\":6598:6643   */\n      tag_65\n      jump\t// in\n    tag_142:\n        /* \"#utility.yul\":6593:6596   */\n      dup3\n        /* \"#utility.yul\":6586:6644   */\n      mstore\n        /* \"#utility.yul\":6493:6650   */\n      pop\n      pop\n      jump\t// out\n        /* \"#utility.yul\":6656:6735   */\n    tag_67:\n        /* \"#utility.yul\":6695:6702   */\n      0x00\n        /* \"#utility.yul\":6724:6729   */\n      dup2\n        /* \"#utility.yul\":6713:6729   */\n      swap1\n      pop\n        /* \"#utility.yul\":6656:6735   */\n      swap2\n      swap1\n      pop\n      jump\t// out\n        /* \"#utility.yul\":6741:6898   */\n    tag_68:\n        /* \"#utility.yul\":6846:6891   */\n      tag_146\n        /* \"#utility.yul\":6866:6890   */\n      tag_147\n        /* \"#utility.yul\":6884:6889   */\n      dup3\n        /* \"#utility.yul\":6866:6890   */\n      tag_43\n      jump\t// in\n    tag_147:\n        /* \"#utility.yul\":6846:6891   */\n      tag_67\n      jump\t// in\n    tag_146:\n        /* \"#utility.yul\":6841:6844   */\n      dup3\n        /* \"#utility.yul\":6834:6892   */\n      mstore\n        /* \"#utility.yul\":6741:6898   */\n      pop\n      pop\n      jump\t// out\n        /* \"#utility.yul\":6904:7301   */\n    tag_34:\n        /* \"#utility.yul\":7044:7047   */\n      0x00\n        /* \"#utility.yul\":7059:7134   */\n      tag_149\n        /* \"#utility.yul\":7130:7133   */\n      dup3\n        /* \"#utility.yul\":7121:7127   */\n      dup6\n        /* \"#utility.yul\":7059:7134   */\n      tag_66\n      jump\t// in\n    tag_149:\n        /* \"#utility.yul\":7159:7161   */\n      0x14\n        /* \"#utility.yul\":7154:7157   */\n      dup3\n        /* \"#utility.yul\":7150:7162   */\n      add\n        /* \"#utility.yul\":7143:7162   */\n      swap2\n      pop\n        /* \"#utility.yul\":7172:7247   */\n      tag_150\n        /* \"#utility.yul\":7243:7246   */\n      dup3\n        /* \"#utility.yul\":7234:7240   */\n      dup5\n        /* \"#utility.yul\":7172:7247   */\n      tag_68\n      jump\t// in\n    tag_150:\n        /* \"#utility.yul\":7272:7274   */\n      0x20\n        /* \"#utility.yul\":7267:7270   */\n      dup3\n        /* \"#utility.yul\":7263:7275   */\n      add\n        /* \"#utility.yul\":7256:7275   */\n      swap2\n      pop\n        /* \"#utility.yul\":7292:7295   */\n      dup2\n        /* \"#utility.yul\":7285:7295   */\n      swap1\n      pop\n        /* \"#utility.yul\":6904:7301   */\n      swap4\n      swap3\n      pop\n      pop\n      pop\n      jump\t// out\n        /* \"#utility.yul\":7307:7470   */\n    tag_69:\n        /* \"#utility.yul\":7447:7462   */\n      0x4861736820746f6f206869676800000000000000000000000000000000000000\n        /* \"#utility.yul\":7443:7444   */\n      0x00\n        /* \"#utility.yul\":7435:7441   */\n      dup3\n        /* \"#utility.yul\":7431:7445   */\n      add\n        /* \"#utility.yul\":7424:7463   */\n      mstore\n        /* \"#utility.yul\":7307:7470   */\n      pop\n      jump\t// out\n        /* \"#utility.yul\":7476:7842   */\n    tag_70:\n        /* \"#utility.yul\":7618:7621   */\n      0x00\n        /* \"#utility.yul\":7639:7706   */\n      tag_153\n        /* \"#utility.yul\":7703:7705   */\n      0x0d\n        /* \"#utility.yul\":7698:7701   */\n      dup4\n        /* \"#utility.yul\":7639:7706   */\n      tag_60\n      jump\t// in\n    tag_153:\n        /* \"#utility.yul\":7632:7706   */\n      swap2\n      pop\n        /* \"#utility.yul\":7715:7808   */\n      tag_154\n        /* \"#utility.yul\":7804:7807   */\n      dup3\n        /* \"#utility.yul\":7715:7808   */\n      tag_69\n      jump\t// in\n    tag_154:\n        /* \"#utility.yul\":7833:7835   */\n      0x20\n        /* \"#utility.yul\":7828:7831   */\n      dup3\n        /* \"#utility.yul\":7824:7836   */\n      add\n        /* \"#utility.yul\":7817:7836   */\n      swap1\n      pop\n        /* \"#utility.yul\":7476:7842   */\n      swap2\n      swap1\n      pop\n      jump\t// out\n        /* \"#utility.yul\":7848:8267   */\n    tag_37:\n        /* \"#utility.yul\":8014:8018   */\n      0x00\n        /* \"#utility.yul\":8052:8054   */\n      0x20\n        /* \"#utility.yul\":8041:8050   */\n      dup3\n        /* \"#utility.yul\":8037:8055   */\n      add\n        /* \"#utility.yul\":8029:8055   */\n      swap1\n      pop\n        /* \"#utility.yul\":8101:8110   */\n      dup2\n        /* \"#utility.yul\":8095:8099   */\n      dup2\n        /* \"#utility.yul\":8091:8111   */\n      sub\n        /* \"#utility.yul\":8087:8088   */\n      0x00\n        /* \"#utility.yul\":8076:8085   */\n      dup4\n        /* \"#utility.yul\":8072:8089   */\n      add\n        /* \"#utility.yul\":8065:8112   */\n      mstore\n        /* \"#utility.yul\":8129:8260   */\n      tag_156\n        /* \"#utility.yul\":8255:8259   */\n      dup2\n        /* \"#utility.yul\":8129:8260   */\n      tag_70\n      jump\t// in\n    tag_156:\n        /* \"#utility.yul\":8121:8260   */\n      swap1\n      pop\n        /* \"#utility.yul\":7848:8267   */\n      swap2\n      swap1\n      pop\n      jump\t// out\n        /* \"#utility.yul\":8273:8453   */\n    tag_71:\n        /* \"#utility.yul\":8321:8398   */\n      0x4e487b7100000000000000000000000000000000000000000000000000000000\n        /* \"#utility.yul\":8318:8319   */\n      0x00\n        /* \"#utility.yul\":8311:8399   */\n      mstore\n        /* \"#utility.yul\":8418:8422   */\n      0x11\n        /* \"#utility.yul\":8415:8416   */\n      0x04\n        /* \"#utility.yul\":8408:8423   */\n      mstore\n        /* \"#utility.yul\":8442:8446   */\n      0x24\n        /* \"#utility.yul\":8439:8440   */\n      0x00\n        /* \"#utility.yul\":8432:8447   */\n      revert\n        /* \"#utility.yul\":8459:8692   */\n    tag_39:\n        /* \"#utility.yul\":8498:8501   */\n      0x00\n        /* \"#utility.yul\":8521:8545   */\n      tag_159\n        /* \"#utility.yul\":8539:8544   */\n      dup3\n        /* \"#utility.yul\":8521:8545   */\n      tag_43\n      jump\t// in\n    tag_159:\n        /* \"#utility.yul\":8512:8545   */\n      swap2\n      pop\n        /* \"#utility.yul\":8567:8633   */\n      0xffffffffffffffffffffffffffffffffffffffffffffffffffffffffffffffff\n        /* \"#utility.yul\":8560:8565   */\n      dup3\n        /* \"#utility.yul\":8557:8634   */\n      sub\n        /* \"#utility.yul\":8554:8657   */\n      tag_160\n      jumpi\n        /* \"#utility.yul\":8637:8655   */\n      tag_161\n      tag_71\n      jump\t// in\n    tag_161:\n        /* \"#utility.yul\":8554:8657   */\n    tag_160:\n        /* \"#utility.yul\":8684:8685   */\n      0x01\n        /* \"#utility.yul\":8677:8682   */\n      dup3\n        /* \"#utility.yul\":8673:8686   */\n      add\n        /* \"#utility.yul\":8666:8686   */\n      swap1\n      pop\n        /* \"#utility.yul\":8459:8692   */\n      swap2\n      swap1\n      pop\n      jump\t// out\n\n    auxdata: 0xa2646970667358221220bf77aca1b47dbca30b30f52e4dc8b7a4df1fb3e451203cbf49edab1a60d3feba64736f6c634300081d0033\n}\n",
				"bytecode": {
					"linkReferences": {},
					"object": "6080604052348015600e575f5ffd5b506109398061001c5f395ff3fe608060405234801561000f575f5ffd5b506004361061004a575f3560e01c806304c075691461004e5780630ef267431461007e57806382e6b20d1461009c578063f25b3f99146100b8575b5f5ffd5b61006860048036038101906100639190610517565b6100eb565b6040516100759190610606565b60405180910390f35b6100866101e2565b604051610093919061062e565b60405180910390f35b6100b660048036038101906100b19190610671565b6101e8565b005b6100d260048036038101906100cd9190610517565b610419565b6040516100e294939291906106dc565b60405180910390f35b6100f361048e565b5f5f8381526020019081526020015f206040518060800160405290815f82015f9054906101000a900473ffffffffffffffffffffffffffffffffffffffff1673ffffffffffffffffffffffffffffffffffffffff1673ffffffffffffffffffffffffffffffffffffffff168152602001600182015f9054906101000a900473ffffffffffffffffffffffffffffffffffffffff1673ffffffffffffffffffffffffffffffffffffffff1673ffffffffffffffffffffffffffffffffffffffff16815260200160028201548152602001600382015f9054906101000a900460ff1615151515815250509050919050565b60015481565b5f73ffffffffffffffffffffffffffffffffffffffff163273ffffffffffffffffffffffffffffffffffffffff1603610256576040517f08c379a000000000000000000000000000000000000000000000000000000000815260040161024d90610779565b60405180910390fd5b5f338260405160200161026a9291906107fc565b6040516020818303038152906040528051906020012090507e01000000000000000000000000000000000000000000000000000000000000815f1c106102e5576040517f08c379a00000000000000000000000000000000000000000000000000000000081526004016102dc90610871565b60405180910390fd5b60405180608001604052803373ffffffffffffffffffffffffffffffffffffffff1681526020018473ffffffffffffffffffffffffffffffffffffffff168152602001828152602001600115158152505f5f60015481526020019081526020015f205f820151815f015f6101000a81548173ffffffffffffffffffffffffffffffffffffffff021916908373ffffffffffffffffffffffffffffffffffffffff1602179055506020820151816001015f6101000a81548173ffffffffffffffffffffffffffffffffffffffff021916908373ffffffffffffffffffffffffffffffffffffffff160217905550604082015181600201556060820151816003015f6101000a81548160ff02191690831515021790555090505060015f81548092919061040f906108bc565b9190505550505050565b5f602052805f5260405f205f91509050805f015f9054906101000a900473ffffffffffffffffffffffffffffffffffffffff1690806001015f9054906101000a900473ffffffffffffffffffffffffffffffffffffffff1690806002015490806003015f9054906101000a900460ff16905084565b60405180608001604052805f73ffffffffffffffffffffffffffffffffffffffff1681526020015f73ffffffffffffffffffffffffffffffffffffffff1681526020015f81526020015f151581525090565b5f5ffd5b5f819050919050565b6104f6816104e4565b8114610500575f5ffd5b50565b5f81359050610511816104ed565b92915050565b5f6020828403121561052c5761052b6104e0565b5b5f61053984828501610503565b91505092915050565b5f73ffffffffffffffffffffffffffffffffffffffff82169050919050565b5f61056b82610542565b9050919050565b61057b81610561565b82525050565b5f819050919050565b61059381610581565b82525050565b5f8115159050919050565b6105ad81610599565b82525050565b608082015f8201516105c75f850182610572565b5060208201516105da6020850182610572565b5060408201516105ed604085018261058a565b50606082015161060060608501826105a4565b50505050565b5f6080820190506106195f8301846105b3565b92915050565b610628816104e4565b82525050565b5f6020820190506106415f83018461061f565b92915050565b61065081610561565b811461065a575f5ffd5b50565b5f8135905061066b81610647565b92915050565b5f5f60408385031215610687576106866104e0565b5b5f6106948582860161065d565b92505060206106a585828601610503565b9150509250929050565b6106b881610561565b82525050565b6106c781610581565b82525050565b6106d681610599565b82525050565b5f6080820190506106ef5f8301876106af565b6106fc60208301866106af565b61070960408301856106be565b61071660608301846106cd565b95945050505050565b5f82825260208201905092915050565b7f496e76616c6964206f726967696e0000000000000000000000000000000000005f82015250565b5f610763600e8361071f565b915061076e8261072f565b602082019050919050565b5f6020820190508181035f83015261079081610757565b9050919050565b5f8160601b9050919050565b5f6107ad82610797565b9050919050565b5f6107be826107a3565b9050919050565b6107d66107d182610561565b6107b4565b82525050565b5f819050919050565b6107f66107f1826104e4565b6107dc565b82525050565b5f61080782856107c5565b60148201915061081782846107e5565b6020820191508190509392505050565b7f4861736820746f6f2068696768000000000000000000000000000000000000005f82015250565b5f61085b600d8361071f565b915061086682610827565b602082019050919050565b5f6020820190508181035f8301526108888161084f565b9050919050565b7f4e487b71000000000000000000000000000000000000000000000000000000005f52601160045260245ffd5b5f6108c6826104e4565b91507fffffffffffffffffffffffffffffffffffffffffffffffffffffffffffffffff82036108f8576108f761088f565b5b60018201905091905056fea2646970667358221220bf77aca1b47dbca30b30f52e4dc8b7a4df1fb3e451203cbf49edab1a60d3feba64736f6c634300081d0033",
					"opcodes": "PUSH1 0x80 PUSH1 0x40 MSTORE CALLVALUE DUP1 ISZERO PUSH1 0xE JUMPI PUSH0 PUSH0 REVERT JUMPDEST POP PUSH2 0x939 DUP1 PUSH2 0x1C PUSH0 CODECOPY PUSH0 RETURN INVALID PUSH1 0x80 PUSH1 0x40 MSTORE CALLVALUE DUP1 ISZERO PUSH2 0xF JUMPI PUSH0 PUSH0 REVERT JUMPDEST POP PUSH1 0x4 CALLDATASIZE LT PUSH2 0x4A JUMPI PUSH0 CALLDATALOAD PUSH1 0xE0 SHR DUP1 PUSH4 0x4C07569 EQ PUSH2 0x4E JUMPI DUP1 PUSH4 0xEF26743 EQ PUSH2 0x7E JUMPI DUP1 PUSH4 0x82E6B20D EQ PUSH2 0x9C JUMPI DUP1 PUSH4 0xF25B3F99 EQ PUSH2 0xB8 JUMPI JUMPDEST PUSH0 PUSH0 REVERT JUMPDEST PUSH2 0x68 PUSH1 0x4 DUP1 CALLDATASIZE SUB DUP2 ADD SWAP1 PUSH2 0x63 SWAP2 SWAP1 PUSH2 0x517 JUMP JUMPDEST PUSH2 0xEB JUMP JUMPDEST PUSH1 0x40 MLOAD PUSH2 0x75 SWAP2 SWAP1 PUSH2 0x606 JUMP JUMPDEST PUSH1 0x40 MLOAD DUP1 SWAP2 SUB SWAP1 RETURN JUMPDEST PUSH2 0x86 PUSH2 0x1E2 JUMP JUMPDEST PUSH1 0x40 MLOAD PUSH2 0x93 SWAP2 SWAP1 PUSH2 0x62E JUMP JUMPDEST PUSH1 0x40 MLOAD DUP1 SWAP2 SUB SWAP1 RETURN JUMPDEST PUSH2 0xB6 PUSH1 0x4 DUP1 CALLDATASIZE SUB DUP2 ADD SWAP1 PUSH2 0xB1 SWAP2 SWAP1 PUSH2 0x671 JUMP JUMPDEST PUSH2 0x1E8 JUMP JUMPDEST STOP JUMPDEST PUSH2 0xD2 PUSH1 0x4 DUP1 CALLDATASIZE SUB DUP2 ADD SWAP1 PUSH2 0xCD SWAP2 SWAP1 PUSH2 0x517 JUMP JUMPDEST PUSH2 0x419 JUMP JUMPDEST PUSH1 0x40 MLOAD PUSH2 0xE2 SWAP5 SWAP4 SWAP3 SWAP2 SWAP1 PUSH2 0x6DC JUMP JUMPDEST PUSH1 0x40 MLOAD DUP1 SWAP2 SUB SWAP1 RETURN JUMPDEST PUSH2 0xF3 PUSH2 0x48E JUMP JUMPDEST PUSH0 PUSH0 DUP4 DUP2 MSTORE PUSH1 0x20 ADD SWAP1 DUP2 MSTORE PUSH1 0x20 ADD PUSH0 KECCAK256 PUSH1 0x40 MLOAD DUP1 PUSH1 0x80 ADD PUSH1 0x40 MSTORE SWAP1 DUP2 PUSH0 DUP3 ADD PUSH0 SWAP1 SLOAD SWAP1 PUSH2 0x100 EXP SWAP1 DIV PUSH20 0xFFFFFFFFFFFFFFFFFFFFFFFFFFFFFFFFFFFFFFFF AND PUSH20 0xFFFFFFFFFFFFFFFFFFFFFFFFFFFFFFFFFFFFFFFF AND PUSH20 0xFFFFFFFFFFFFFFFFFFFFFFFFFFFFFFFFFFFFFFFF AND DUP2 MSTORE PUSH1 0x20 ADD PUSH1 0x1 DUP3 ADD PUSH0 SWAP1 SLOAD SWAP1 PUSH2 0x100 EXP SWAP1 DIV PUSH20 0xFFFFFFFFFFFFFFFFFFFFFFFFFFFFFFFFFFFFFFFF AND PUSH20 0xFFFFFFFFFFFFFFFFFFFFFFFFFFFFFFFFFFFFFFFF AND PUSH20 0xFFFFFFFFFFFFFFFFFFFFFFFFFFFFFFFFFFFFFFFF AND DUP2 MSTORE PUSH1 0x20 ADD PUSH1 0x2 DUP3 ADD SLOAD DUP2 MSTORE PUSH1 0x20 ADD PUSH1 0x3 DUP3 ADD PUSH0 SWAP1 SLOAD SWAP1 PUSH2 0x100 EXP SWAP1 DIV PUSH1 0xFF AND ISZERO ISZERO ISZERO ISZERO DUP2 MSTORE POP POP SWAP1 POP SWAP2 SWAP1 POP JUMP JUMPDEST PUSH1 0x1 SLOAD DUP2 JUMP JUMPDEST PUSH0 PUSH20 0xFFFFFFFFFFFFFFFFFFFFFFFFFFFFFFFFFFFFFFFF AND ORIGIN PUSH20 0xFFFFFFFFFFFFFFFFFFFFFFFFFFFFFFFFFFFFFFFF AND SUB PUSH2 0x256 JUMPI PUSH1 0x40 MLOAD PUSH32 0x8C379A000000000000000000000000000000000000000000000000000000000 DUP2 MSTORE PUSH1 0x4 ADD PUSH2 0x24D SWAP1 PUSH2 0x779 JUMP JUMPDEST PUSH1 0x40 MLOAD DUP1 SWAP2 SUB SWAP1 REVERT JUMPDEST PUSH0 CALLER DUP3 PUSH1 0x40 MLOAD PUSH1 0x20 ADD PUSH2 0x26A SWAP3 SWAP2 SWAP1 PUSH2 0x7FC JUMP JUMPDEST PUSH1 0x40 MLOAD PUSH1 0x20 DUP2 DUP4 SUB SUB DUP2 MSTORE SWAP1 PUSH1 0x40 MSTORE DUP1 MLOAD SWAP1 PUSH1 0x20 ADD KECCAK256 SWAP1 POP PUSH31 0x1000000000000000000000000000000000000000000000000000000000000 DUP2 PUSH0 SHR LT PUSH2 0x2E5 JUMPI PUSH1 0x40 MLOAD PUSH32 0x8C379A000000000000000000000000000000000000000000000000000000000 DUP2 MSTORE PUSH1 0x4 ADD PUSH2 0x2DC SWAP1 PUSH2 0x871 JUMP JUMPDEST PUSH1 0x40 MLOAD DUP1 SWAP2 SUB SWAP1 REVERT JUMPDEST PUSH1 0x40 MLOAD DUP1 PUSH1 0x80 ADD PUSH1 0x40 MSTORE DUP1 CALLER PUSH20 0xFFFFFFFFFFFFFFFFFFFFFFFFFFFFFFFFFFFFFFFF AND DUP2 MSTORE PUSH1 0x20 ADD DUP5 PUSH20 0xFFFFFFFFFFFFFFFFFFFFFFFFFFFFFFFFFFFFFFFF AND DUP2 MSTORE PUSH1 0x20 ADD DUP3 DUP2 MSTORE PUSH1 0x20 ADD PUSH1 0x1 ISZERO ISZERO DUP2 MSTORE POP PUSH0 PUSH0 PUSH1 0x1 SLOAD DUP2 MSTORE PUSH1 0x20 ADD SWAP1 DUP2 MSTORE PUSH1 0x20 ADD PUSH0 KECCAK256 PUSH0 DUP3 ADD MLOAD DUP2 PUSH0 ADD PUSH0 PUSH2 0x100 EXP DUP2 SLOAD DUP2 PUSH20 0xFFFFFFFFFFFFFFFFFFFFFFFFFFFFFFFFFFFFFFFF MUL NOT AND SWAP1 DUP4 PUSH20 0xFFFFFFFFFFFFFFFFFFFFFFFFFFFFFFFFFFFFFFFF AND MUL OR SWAP1 SSTORE POP PUSH1 0x20 DUP3 ADD MLOAD DUP2 PUSH1 0x1 ADD PUSH0 PUSH2 0x100 EXP DUP2 SLOAD DUP2 PUSH20 0xFFFFFFFFFFFFFFFFFFFFFFFFFFFFFFFFFFFFFFFF MUL NOT AND SWAP1 DUP4 PUSH20 0xFFFFFFFFFFFFFFFFFFFFFFFFFFFFFFFFFFFFFFFF AND MUL OR SWAP1 SSTORE POP PUSH1 0x40 DUP3 ADD MLOAD DUP2 PUSH1 0x2 ADD SSTORE PUSH1 0x60 DUP3 ADD MLOAD DUP2 PUSH1 0x3 ADD PUSH0 PUSH2 0x100 EXP DUP2 SLOAD DUP2 PUSH1 0xFF MUL NOT AND SWAP1 DUP4 ISZERO ISZERO MUL OR SWAP1 SSTORE POP SWAP1 POP POP PUSH1 0x1 PUSH0 DUP2 SLOAD DUP1 SWAP3 SWAP2 SWAP1 PUSH2 0x40F SWAP1 PUSH2 0x8BC JUMP JUMPDEST SWAP2 SWAP1 POP SSTORE POP POP POP POP JUMP JUMPDEST PUSH0 PUSH1 0x20 MSTORE DUP1 PUSH0 MSTORE PUSH1 0x40 PUSH0 KECCAK256 PUSH0 SWAP2 POP SWAP1 POP DUP1 PUSH0 ADD PUSH0 SWAP1 SLOAD SWAP1 PUSH2 0x100 EXP SWAP1 DIV PUSH20 0xFFFFFFFFFFFFFFFFFFFFFFFFFFFFFFFFFFFFFFFF AND SWAP1 DUP1 PUSH1 0x1 ADD PUSH0 SWAP1 SLOAD SWAP1 PUSH2 0x100 EXP SWAP1 DIV PUSH20 0xFFFFFFFFFFFFFFFFFFFFFFFFFFFFFFFFFFFFFFFF AND SWAP1 DUP1 PUSH1 0x2 ADD SLOAD SWAP1 DUP1 PUSH1 0x3 ADD PUSH0 SWAP1 SLOAD SWAP1 PUSH2 0x100 EXP SWAP1 DIV PUSH1 0xFF AND SWAP1 POP DUP5 JUMP JUMPDEST PUSH1 0x40 MLOAD DUP1 PUSH1 0x80 ADD PUSH1 0x40 MSTORE DUP1 PUSH0 PUSH20 0xFFFFFFFFFFFFFFFFFFFFFFFFFFFFFFFFFFFFFFFF AND DUP2 MSTORE PUSH1 0x20 ADD PUSH0 PUSH20 0xFFFFFFFFFFFFFFFFFFFFFFFFFFFFFFFFFFFFFFFF AND DUP2 MSTORE PUSH1 0x20 ADD PUSH0 DUP2 MSTORE PUSH1 0x20 ADD PUSH0 ISZERO ISZERO DUP2 MSTORE POP SWAP1 JUMP JUMPDEST PUSH0 PUSH0 REVERT JUMPDEST PUSH0 DUP2 SWAP1 POP SWAP2 SWAP1 POP JUMP JUMPDEST PUSH2 0x4F6 DUP2 PUSH2 0x4E4 JUMP JUMPDEST DUP2 EQ PUSH2 0x500 JUMPI PUSH0 PUSH0 REVERT JUMPDEST POP JUMP JUMPDEST PUSH0 DUP2 CALLDATALOAD SWAP1 POP PUSH2 0x511 DUP2 PUSH2 0x4ED JUMP JUMPDEST SWAP3 SWAP2 POP POP JUMP JUMPDEST PUSH0 PUSH1 0x20 DUP3 DUP5 SUB SLT ISZERO PUSH2 0x52C JUMPI PUSH2 0x52B PUSH2 0x4E0 JUMP JUMPDEST JUMPDEST PUSH0 PUSH2 0x539 DUP5 DUP3 DUP6 ADD PUSH2 0x503 JUMP JUMPDEST SWAP2 POP POP SWAP3 SWAP2 POP POP JUMP JUMPDEST PUSH0 PUSH20 0xFFFFFFFFFFFFFFFFFFFFFFFFFFFFFFFFFFFFFFFF DUP3 AND SWAP1 POP SWAP2 SWAP1 POP JUMP JUMPDEST PUSH0 PUSH2 0x56B DUP3 PUSH2 0x542 JUMP JUMPDEST SWAP1 POP SWAP2 SWAP1 POP JUMP JUMPDEST PUSH2 0x57B DUP2 PUSH2 0x561 JUMP JUMPDEST DUP3 MSTORE POP POP JUMP JUMPDEST PUSH0 DUP2 SWAP1 POP SWAP2 SWAP1 POP JUMP JUMPDEST PUSH2 0x593 DUP2 PUSH2 0x581 JUMP JUMPDEST DUP3 MSTORE POP POP JUMP JUMPDEST PUSH0 DUP2 ISZERO ISZERO SWAP1 POP SWAP2 SWAP1 POP JUMP JUMPDEST PUSH2 0x5AD DUP2 PUSH2 0x599 JUMP JUMPDEST DUP3 MSTORE POP POP JUMP JUMPDEST PUSH1 0x80 DUP3 ADD PUSH0 DUP3 ADD MLOAD PUSH2 0x5C7 PUSH0 DUP6 ADD DUP3 PUSH2 0x572 JUMP JUMPDEST POP PUSH1 0x20 DUP3 ADD MLOAD PUSH2 0x5DA PUSH1 0x20 DUP6 ADD DUP3 PUSH2 0x572 JUMP JUMPDEST POP PUSH1 0x40 DUP3 ADD MLOAD PUSH2 0x5ED PUSH1 0x40 DUP6 ADD DUP3 PUSH2 0x58A JUMP JUMPDEST POP PUSH1 0x60 DUP3 ADD MLOAD PUSH2 0x600 PUSH1 0x60 DUP6 ADD DUP3 PUSH2 0x5A4 JUMP JUMPDEST POP POP POP POP JUMP JUMPDEST PUSH0 PUSH1 0x80 DUP3 ADD SWAP1 POP PUSH2 0x619 PUSH0 DUP4 ADD DUP5 PUSH2 0x5B3 JUMP JUMPDEST SWAP3 SWAP2 POP POP JUMP JUMPDEST PUSH2 0x628 DUP2 PUSH2 0x4E4 JUMP JUMPDEST DUP3 MSTORE POP POP JUMP JUMPDEST PUSH0 PUSH1 0x20 DUP3 ADD SWAP1 POP PUSH2 0x641 PUSH0 DUP4 ADD DUP5 PUSH2 0x61F JUMP JUMPDEST SWAP3 SWAP2 POP POP JUMP JUMPDEST PUSH2 0x650 DUP2 PUSH2 0x561 JUMP JUMPDEST DUP2 EQ PUSH2 0x65A JUMPI PUSH0 PUSH0 REVERT JUMPDEST POP JUMP JUMPDEST PUSH0 DUP2 CALLDATALOAD SWAP1 POP PUSH2 0x66B DUP2 PUSH2 0x647 JUMP JUMPDEST SWAP3 SWAP2 POP POP JUMP JUMPDEST PUSH0 PUSH0 PUSH1 0x40 DUP4 DUP6 SUB SLT ISZERO PUSH2 0x687 JUMPI PUSH2 0x686 PUSH2 0x4E0 JUMP JUMPDEST JUMPDEST PUSH0 PUSH2 0x694 DUP6 DUP3 DUP7 ADD PUSH2 0x65D JUMP JUMPDEST SWAP3 POP POP PUSH1 0x20 PUSH2 0x6A5 DUP6 DUP3 DUP7 ADD PUSH2 0x503 JUMP JUMPDEST SWAP2 POP POP SWAP3 POP SWAP3 SWAP1 POP JUMP JUMPDEST PUSH2 0x6B8 DUP2 PUSH2 0x561 JUMP JUMPDEST DUP3 MSTORE POP POP JUMP JUMPDEST PUSH2 0x6C7 DUP2 PUSH2 0x581 JUMP JUMPDEST DUP3 MSTORE POP POP JUMP JUMPDEST PUSH2 0x6D6 DUP2 PUSH2 0x599 JUMP JUMPDEST DUP3 MSTORE POP POP JUMP JUMPDEST PUSH0 PUSH1 0x80 DUP3 ADD SWAP1 POP PUSH2 0x6EF PUSH0 DUP4 ADD DUP8 PUSH2 0x6AF JUMP JUMPDEST PUSH2 0x6FC PUSH1 0x20 DUP4 ADD DUP7 PUSH2 0x6AF JUMP JUMPDEST PUSH2 0x709 PUSH1 0x40 DUP4 ADD DUP6 PUSH2 0x6BE JUMP JUMPDEST PUSH2 0x716 PUSH1 0x60 DUP4 ADD DUP5 PUSH2 0x6CD JUMP JUMPDEST SWAP6 SWAP5 POP POP POP POP POP JUMP JUMPDEST PUSH0 DUP3 DUP3 MSTORE PUSH1 0x20 DUP3 ADD SWAP1 POP SWAP3 SWAP2 POP POP JUMP JUMPDEST PUSH32 0x496E76616C6964206F726967696E000000000000000000000000000000000000 PUSH0 DUP3 ADD MSTORE POP JUMP JUMPDEST PUSH0 PUSH2 0x763 PUSH1 0xE DUP4 PUSH2 0x71F JUMP JUMPDEST SWAP2 POP PUSH2 0x76E DUP3 PUSH2 0x72F JUMP JUMPDEST PUSH1 0x20 DUP3 ADD SWAP1 POP SWAP2 SWAP1 POP JUMP JUMPDEST PUSH0 PUSH1 0x20 DUP3 ADD SWAP1 POP DUP2 DUP2 SUB PUSH0 DUP4 ADD MSTORE PUSH2 0x790 DUP2 PUSH2 0x757 JUMP JUMPDEST SWAP1 POP SWAP2 SWAP1 POP JUMP JUMPDEST PUSH0 DUP2 PUSH1 0x60 SHL SWAP1 POP SWAP2 SWAP1 POP JUMP JUMPDEST PUSH0 PUSH2 0x7AD DUP3 PUSH2 0x797 JUMP JUMPDEST SWAP1 POP SWAP2 SWAP1 POP JUMP JUMPDEST PUSH0 PUSH2 0x7BE DUP3 PUSH2 0x7A3 JUMP JUMPDEST SWAP1 POP SWAP2 SWAP1 POP JUMP JUMPDEST PUSH2 0x7D6 PUSH2 0x7D1 DUP3 PUSH2 0x561 JUMP JUMPDEST PUSH2 0x7B4 JUMP JUMPDEST DUP3 MSTORE POP POP JUMP JUMPDEST PUSH0 DUP2 SWAP1 POP SWAP2 SWAP1 POP JUMP JUMPDEST PUSH2 0x7F6 PUSH2 0x7F1 DUP3 PUSH2 0x4E4 JUMP JUMPDEST PUSH2 0x7DC JUMP JUMPDEST DUP3 MSTORE POP POP JUMP JUMPDEST PUSH0 PUSH2 0x807 DUP3 DUP6 PUSH2 0x7C5 JUMP JUMPDEST PUSH1 0x14 DUP3 ADD SWAP2 POP PUSH2 0x817 DUP3 DUP5 PUSH2 0x7E5 JUMP JUMPDEST PUSH1 0x20 DUP3 ADD SWAP2 POP DUP2 SWAP1 POP SWAP4 SWAP3 POP POP POP JUMP JUMPDEST PUSH32 0x4861736820746F6F206869676800000000000000000000000000000000000000 PUSH0 DUP3 ADD MSTORE POP JUMP JUMPDEST PUSH0 PUSH2 0x85B PUSH1 0xD DUP4 PUSH2 0x71F JUMP JUMPDEST SWAP2 POP PUSH2 0x866 DUP3 PUSH2 0x827 JUMP JUMPDEST PUSH1 0x20 DUP3 ADD SWAP1 POP SWAP2 SWAP1 POP JUMP JUMPDEST PUSH0 PUSH1 0x20 DUP3 ADD SWAP1 POP DUP2 DUP2 SUB PUSH0 DUP4 ADD MSTORE PUSH2 0x888 DUP2 PUSH2 0x84F JUMP JUMPDEST SWAP1 POP SWAP2 SWAP1 POP JUMP JUMPDEST PUSH32 0x4E487B7100000000000000000000000000000000000000000000000000000000 PUSH0 MSTORE PUSH1 0x11 PUSH1 0x4 MSTORE PUSH1 0x24 PUSH0 REVERT JUMPDEST PUSH0 PUSH2 0x8C6 DUP3 PUSH2 0x4E4 JUMP JUMPDEST SWAP2 POP PUSH32 0xFFFFFFFFFFFFFFFFFFFFFFFFFFFFFFFFFFFFFFFFFFFFFFFFFFFFFFFFFFFFFFFF DUP3 SUB PUSH2 0x8F8 JUMPI PUSH2 0x8F7 PUSH2 0x88F JUMP JUMPDEST JUMPDEST PUSH1 0x1 DUP3 ADD SWAP1 POP SWAP2 SWAP1 POP JUMP INVALID LOG2 PUSH5 0x6970667358 0x22 SLT KECCAK256 0xBF PUSH24 0xACA1B47DBCA30B30F52E4DC8B7A4DF1FB3E451203CBF49ED 0xAB BYTE PUSH1 0xD3 INVALID 0xBA PUSH5 0x736F6C6343 STOP ADDMOD SAR STOP CALLER "
				},
				"gasEstimates": {
					"creation": {
						"codeDepositCost": "472200",
						"executionCost": "503",
						"totalCost": "472703"
					},
					"external": {
						"blocks(uint256)": "infinite",
						"getBlock(uint256)": "infinite",
						"height()": "2425",
						"submitProof(address,uint256)": "infinite"
					}
				},
				"methodIdentifiers": {
					"blocks(uint256)": "f25b3f99",
					"getBlock(uint256)": "04c07569",
					"height()": "0ef26743",
					"submitProof(address,uint256)": "82e6b20d"
				}
			},
			"storageLayout": {
				"storage": [
					{
						"astId": 14,
						"contract": "H/Parallel PoW + PoS (Work Together → Match Required).sol:HybridParallel",
						"label": "blocks",
						"offset": 0,
						"slot": "0",
						"type": "t_mapping(t_uint256,t_struct(Candidate)9_storage)"
					},
					{
						"astId": 16,
						"contract": "H/Parallel PoW + PoS (Work Together → Match Required).sol:HybridParallel",
						"label": "height",
						"offset": 0,
						"slot": "1",
						"type": "t_uint256"
					}
				],
				"types": {
					"t_address": {
						"encoding": "inplace",
						"label": "address",
						"numberOfBytes": "20"
					},
					"t_bool": {
						"encoding": "inplace",
						"label": "bool",
						"numberOfBytes": "1"
					},
					"t_bytes32": {
						"encoding": "inplace",
						"label": "bytes32",
						"numberOfBytes": "32"
					},
					"t_mapping(t_uint256,t_struct(Candidate)9_storage)": {
						"encoding": "mapping",
						"key": "t_uint256",
						"label": "mapping(uint256 => struct HybridParallel.Candidate)",
						"numberOfBytes": "32",
						"value": "t_struct(Candidate)9_storage"
					},
					"t_struct(Candidate)9_storage": {
						"encoding": "inplace",
						"label": "struct HybridParallel.Candidate",
						"members": [
							{
								"astId": 2,
								"contract": "H/Parallel PoW + PoS (Work Together → Match Required).sol:HybridParallel",
								"label": "miner",
								"offset": 0,
								"slot": "0",
								"type": "t_address"
							},
							{
								"astId": 4,
								"contract": "H/Parallel PoW + PoS (Work Together → Match Required).sol:HybridParallel",
								"label": "validator",
								"offset": 0,
								"slot": "1",
								"type": "t_address"
							},
							{
								"astId": 6,
								"contract": "H/Parallel PoW + PoS (Work Together → Match Required).sol:HybridParallel",
								"label": "hash",
								"offset": 0,
								"slot": "2",
								"type": "t_bytes32"
							},
							{
								"astId": 8,
								"contract": "H/Parallel PoW + PoS (Work Together → Match Required).sol:HybridParallel",
								"label": "valid",
								"offset": 0,
								"slot": "3",
								"type": "t_bool"
							}
						],
						"numberOfBytes": "128"
					},
					"t_uint256": {
						"encoding": "inplace",
						"label": "uint256",
						"numberOfBytes": "32"
					}
				}
			},
			"userdoc": {
				"kind": "user",
				"methods": {},
				"version": 1
			}
		}
	}
}