{
	"H/hosted wallet.sol": {
		"HostedWallet": {
			"abi": [
				{
					"inputs": [],
					"stateMutability": "nonpayable",
					"type": "constructor"
				},
				{
					"anonymous": false,
					"inputs": [
						{
							"indexed": true,
							"internalType": "address",
							"name": "user",
							"type": "address"
						},
						{
							"indexed": false,
							"internalType": "uint256",
							"name": "amount",
							"type": "uint256"
						}
					],
					"name": "Deposit",
					"type": "event"
				},
				{
					"anonymous": false,
					"inputs": [
						{
							"indexed": true,
							"internalType": "address",
							"name": "from",
							"type": "address"
						},
						{
							"indexed": true,
							"internalType": "address",
							"name": "to",
							"type": "address"
						},
						{
							"indexed": false,
							"internalType": "uint256",
							"name": "amount",
							"type": "uint256"
						}
					],
					"name": "HostTransfer",
					"type": "event"
				},
				{
					"anonymous": false,
					"inputs": [
						{
							"indexed": true,
							"internalType": "address",
							"name": "user",
							"type": "address"
						},
						{
							"indexed": false,
							"internalType": "uint256",
							"name": "amount",
							"type": "uint256"
						}
					],
					"name": "Withdrawal",
					"type": "event"
				},
				{
					"inputs": [
						{
							"internalType": "address",
							"name": "user",
							"type": "address"
						}
					],
					"name": "getBalance",
					"outputs": [
						{
							"internalType": "uint256",
							"name": "",
							"type": "uint256"
						}
					],
					"stateMutability": "view",
					"type": "function"
				},
				{
					"inputs": [],
					"name": "host",
					"outputs": [
						{
							"internalType": "address",
							"name": "",
							"type": "address"
						}
					],
					"stateMutability": "view",
					"type": "function"
				},
				{
					"inputs": [
						{
							"internalType": "address",
							"name": "from",
							"type": "address"
						},
						{
							"internalType": "address",
							"name": "to",
							"type": "address"
						},
						{
							"internalType": "uint256",
							"name": "amount",
							"type": "uint256"
						}
					],
					"name": "hostTransfer",
					"outputs": [],
					"stateMutability": "nonpayable",
					"type": "function"
				},
				{
					"inputs": [
						{
							"internalType": "uint256",
							"name": "amount",
							"type": "uint256"
						}
					],
					"name": "withdraw",
					"outputs": [],
					"stateMutability": "nonpayable",
					"type": "function"
				},
				{
					"stateMutability": "payable",
					"type": "receive"
				}
			],
			"devdoc": {
				"kind": "dev",
				"methods": {},
				"title": "Simple Hosted Wallet System",
				"version": 1
			},
			"evm": {
				"assembly": "    /* \"H/hosted wallet.sol\":97:1460  contract HostedWallet {... */\n  mstore(0x40, 0x80)\n    /* \"H/hosted wallet.sol\":520:568  constructor() {... */\n  callvalue\n  dup1\n  iszero\n  tag_1\n  jumpi\n  revert(0x00, 0x00)\ntag_1:\n  pop\n    /* \"H/hosted wallet.sol\":551:561  msg.sender */\n  caller\n    /* \"H/hosted wallet.sol\":544:548  host */\n  0x00\n  0x00\n    /* \"H/hosted wallet.sol\":544:561  host = msg.sender */\n  0x0100\n  exp\n  dup2\n  sload\n  dup2\n  0xffffffffffffffffffffffffffffffffffffffff\n  mul\n  not\n  and\n  swap1\n  dup4\n  0xffffffffffffffffffffffffffffffffffffffff\n  and\n  mul\n  or\n  swap1\n  sstore\n  pop\n    /* \"H/hosted wallet.sol\":97:1460  contract HostedWallet {... */\n  dataSize(sub_0)\n  dup1\n  dataOffset(sub_0)\n  0x00\n  codecopy\n  0x00\n  return\nstop\n\nsub_0: assembly {\n        /* \"H/hosted wallet.sol\":97:1460  contract HostedWallet {... */\n      mstore(0x40, 0x80)\n      jumpi(tag_1, lt(calldatasize, 0x04))\n      shr(0xe0, calldataload(0x00))\n      dup1\n      0x2e1a7d4d\n      eq\n      tag_3\n      jumpi\n      dup1\n      0x3b0bd37a\n      eq\n      tag_4\n      jumpi\n      dup1\n      0xf437bc59\n      eq\n      tag_5\n      jumpi\n      dup1\n      0xf8b2cb4f\n      eq\n      tag_6\n      jumpi\n      jump(tag_2)\n    tag_1:\n      jumpi(tag_2, calldatasize)\n        /* \"H/hosted wallet.sol\":635:644  msg.value */\n      callvalue\n        /* \"H/hosted wallet.sol\":611:619  balances */\n      0x01\n        /* \"H/hosted wallet.sol\":611:631  balances[msg.sender] */\n      0x00\n        /* \"H/hosted wallet.sol\":620:630  msg.sender */\n      caller\n        /* \"H/hosted wallet.sol\":611:631  balances[msg.sender] */\n      0xffffffffffffffffffffffffffffffffffffffff\n      and\n      0xffffffffffffffffffffffffffffffffffffffff\n      and\n      dup2\n      mstore\n      0x20\n      add\n      swap1\n      dup2\n      mstore\n      0x20\n      add\n      0x00\n      keccak256\n      0x00\n        /* \"H/hosted wallet.sol\":611:644  balances[msg.sender] += msg.value */\n      dup3\n      dup3\n      sload\n      tag_9\n      swap2\n      swap1\n      tag_10\n      jump\t// in\n    tag_9:\n      swap3\n      pop\n      pop\n      dup2\n      swap1\n      sstore\n      pop\n        /* \"H/hosted wallet.sol\":667:677  msg.sender */\n      caller\n        /* \"H/hosted wallet.sol\":659:689  Deposit(msg.sender, msg.value) */\n      0xffffffffffffffffffffffffffffffffffffffff\n      and\n      0xe1fffcc4923d04b559f4d29a8bfc6cda04eb5b0d3c460751c2402c5c5cc9109c\n        /* \"H/hosted wallet.sol\":679:688  msg.value */\n      callvalue\n        /* \"H/hosted wallet.sol\":659:689  Deposit(msg.sender, msg.value) */\n      mload(0x40)\n      tag_11\n      swap2\n      swap1\n      tag_12\n      jump\t// in\n    tag_11:\n      mload(0x40)\n      dup1\n      swap2\n      sub\n      swap1\n      log2\n        /* \"H/hosted wallet.sol\":97:1460  contract HostedWallet {... */\n      stop\n    tag_2:\n      revert(0x00, 0x00)\n        /* \"H/hosted wallet.sol\":761:1015  function withdraw(uint256 amount) external {... */\n    tag_3:\n      callvalue\n      dup1\n      iszero\n      tag_13\n      jumpi\n      revert(0x00, 0x00)\n    tag_13:\n      pop\n      tag_14\n      0x04\n      dup1\n      calldatasize\n      sub\n      dup2\n      add\n      swap1\n      tag_15\n      swap2\n      swap1\n      tag_16\n      jump\t// in\n    tag_15:\n      tag_17\n      jump\t// in\n    tag_14:\n      stop\n        /* \"H/hosted wallet.sol\":1076:1348  function hostTransfer(address from, address to, uint256 amount) external onlyHost {... */\n    tag_4:\n      callvalue\n      dup1\n      iszero\n      tag_18\n      jumpi\n      revert(0x00, 0x00)\n    tag_18:\n      pop\n      tag_19\n      0x04\n      dup1\n      calldatasize\n      sub\n      dup2\n      add\n      swap1\n      tag_20\n      swap2\n      swap1\n      tag_21\n      jump\t// in\n    tag_20:\n      tag_22\n      jump\t// in\n    tag_19:\n      stop\n        /* \"H/hosted wallet.sol\":125:144  address public host */\n    tag_5:\n      callvalue\n      dup1\n      iszero\n      tag_23\n      jumpi\n      revert(0x00, 0x00)\n    tag_23:\n      pop\n      tag_24\n      tag_25\n      jump\t// in\n    tag_24:\n      mload(0x40)\n      tag_26\n      swap2\n      swap1\n      tag_27\n      jump\t// in\n    tag_26:\n      mload(0x40)\n      dup1\n      swap2\n      sub\n      swap1\n      return\n        /* \"H/hosted wallet.sol\":1354:1458  function getBalance(address user) external view returns (uint256) {... */\n    tag_6:\n      callvalue\n      dup1\n      iszero\n      tag_28\n      jumpi\n      revert(0x00, 0x00)\n    tag_28:\n      pop\n      tag_29\n      0x04\n      dup1\n      calldatasize\n      sub\n      dup2\n      add\n      swap1\n      tag_30\n      swap2\n      swap1\n      tag_31\n      jump\t// in\n    tag_30:\n      tag_32\n      jump\t// in\n    tag_29:\n      mload(0x40)\n      tag_33\n      swap2\n      swap1\n      tag_12\n      jump\t// in\n    tag_33:\n      mload(0x40)\n      dup1\n      swap2\n      sub\n      swap1\n      return\n        /* \"H/hosted wallet.sol\":761:1015  function withdraw(uint256 amount) external {... */\n    tag_17:\n        /* \"H/hosted wallet.sol\":846:852  amount */\n      dup1\n        /* \"H/hosted wallet.sol\":822:830  balances */\n      0x01\n        /* \"H/hosted wallet.sol\":822:842  balances[msg.sender] */\n      0x00\n        /* \"H/hosted wallet.sol\":831:841  msg.sender */\n      caller\n        /* \"H/hosted wallet.sol\":822:842  balances[msg.sender] */\n      0xffffffffffffffffffffffffffffffffffffffff\n      and\n      0xffffffffffffffffffffffffffffffffffffffff\n      and\n      dup2\n      mstore\n      0x20\n      add\n      swap1\n      dup2\n      mstore\n      0x20\n      add\n      0x00\n      keccak256\n      sload\n        /* \"H/hosted wallet.sol\":822:852  balances[msg.sender] >= amount */\n      lt\n      iszero\n        /* \"H/hosted wallet.sol\":814:877  require(balances[msg.sender] >= amount, \"Insufficient balance\") */\n      tag_35\n      jumpi\n      mload(0x40)\n      0x08c379a000000000000000000000000000000000000000000000000000000000\n      dup2\n      mstore\n      0x04\n      add\n      tag_36\n      swap1\n      tag_37\n      jump\t// in\n    tag_36:\n      mload(0x40)\n      dup1\n      swap2\n      sub\n      swap1\n      revert\n    tag_35:\n        /* \"H/hosted wallet.sol\":911:917  amount */\n      dup1\n        /* \"H/hosted wallet.sol\":887:895  balances */\n      0x01\n        /* \"H/hosted wallet.sol\":887:907  balances[msg.sender] */\n      0x00\n        /* \"H/hosted wallet.sol\":896:906  msg.sender */\n      caller\n        /* \"H/hosted wallet.sol\":887:907  balances[msg.sender] */\n      0xffffffffffffffffffffffffffffffffffffffff\n      and\n      0xffffffffffffffffffffffffffffffffffffffff\n      and\n      dup2\n      mstore\n      0x20\n      add\n      swap1\n      dup2\n      mstore\n      0x20\n      add\n      0x00\n      keccak256\n      0x00\n        /* \"H/hosted wallet.sol\":887:917  balances[msg.sender] -= amount */\n      dup3\n      dup3\n      sload\n      tag_38\n      swap2\n      swap1\n      tag_39\n      jump\t// in\n    tag_38:\n      swap3\n      pop\n      pop\n      dup2\n      swap1\n      sstore\n      pop\n        /* \"H/hosted wallet.sol\":935:945  msg.sender */\n      caller\n        /* \"H/hosted wallet.sol\":927:955  payable(msg.sender).transfer */\n      0xffffffffffffffffffffffffffffffffffffffff\n      and\n        /* \"H/hosted wallet.sol\":927:963  payable(msg.sender).transfer(amount) */\n      0x08fc\n        /* \"H/hosted wallet.sol\":956:962  amount */\n      dup3\n        /* \"H/hosted wallet.sol\":927:963  payable(msg.sender).transfer(amount) */\n      swap1\n      dup2\n      iszero\n      mul\n      swap1\n      mload(0x40)\n      0x00\n      mload(0x40)\n      dup1\n      dup4\n      sub\n      dup2\n      dup6\n      dup9\n      dup9\n      call\n      swap4\n      pop\n      pop\n      pop\n      pop\n      iszero\n      dup1\n      iszero\n      tag_41\n      jumpi\n      returndatacopy(0x00, 0x00, returndatasize)\n      revert(0x00, returndatasize)\n    tag_41:\n      pop\n        /* \"H/hosted wallet.sol\":989:999  msg.sender */\n      caller\n        /* \"H/hosted wallet.sol\":978:1008  Withdrawal(msg.sender, amount) */\n      0xffffffffffffffffffffffffffffffffffffffff\n      and\n      0x7fcf532c15f0a6db0bd6d0e038bea71d30d808c7d98cb3bf7268a95bf5081b65\n        /* \"H/hosted wallet.sol\":1001:1007  amount */\n      dup3\n        /* \"H/hosted wallet.sol\":978:1008  Withdrawal(msg.sender, amount) */\n      mload(0x40)\n      tag_42\n      swap2\n      swap1\n      tag_12\n      jump\t// in\n    tag_42:\n      mload(0x40)\n      dup1\n      swap2\n      sub\n      swap1\n      log2\n        /* \"H/hosted wallet.sol\":761:1015  function withdraw(uint256 amount) external {... */\n      pop\n      jump\t// out\n        /* \"H/hosted wallet.sol\":1076:1348  function hostTransfer(address from, address to, uint256 amount) external onlyHost {... */\n    tag_22:\n        /* \"H/hosted wallet.sol\":454:458  host */\n      0x00\n      0x00\n      swap1\n      sload\n      swap1\n      0x0100\n      exp\n      swap1\n      div\n      0xffffffffffffffffffffffffffffffffffffffff\n      and\n        /* \"H/hosted wallet.sol\":440:458  msg.sender == host */\n      0xffffffffffffffffffffffffffffffffffffffff\n      and\n        /* \"H/hosted wallet.sol\":440:450  msg.sender */\n      caller\n        /* \"H/hosted wallet.sol\":440:458  msg.sender == host */\n      0xffffffffffffffffffffffffffffffffffffffff\n      and\n      eq\n        /* \"H/hosted wallet.sol\":432:496  require(msg.sender == host, \"Only host can perform this action\") */\n      tag_44\n      jumpi\n      mload(0x40)\n      0x08c379a000000000000000000000000000000000000000000000000000000000\n      dup2\n      mstore\n      0x04\n      add\n      tag_45\n      swap1\n      tag_46\n      jump\t// in\n    tag_45:\n      mload(0x40)\n      dup1\n      swap2\n      sub\n      swap1\n      revert\n    tag_44:\n        /* \"H/hosted wallet.sol\":1194:1200  amount */\n      dup1\n        /* \"H/hosted wallet.sol\":1176:1184  balances */\n      0x01\n        /* \"H/hosted wallet.sol\":1176:1190  balances[from] */\n      0x00\n        /* \"H/hosted wallet.sol\":1185:1189  from */\n      dup6\n        /* \"H/hosted wallet.sol\":1176:1190  balances[from] */\n      0xffffffffffffffffffffffffffffffffffffffff\n      and\n      0xffffffffffffffffffffffffffffffffffffffff\n      and\n      dup2\n      mstore\n      0x20\n      add\n      swap1\n      dup2\n      mstore\n      0x20\n      add\n      0x00\n      keccak256\n      sload\n        /* \"H/hosted wallet.sol\":1176:1200  balances[from] >= amount */\n      lt\n      iszero\n        /* \"H/hosted wallet.sol\":1168:1230  require(balances[from] >= amount, \"Insufficient user balance\") */\n      tag_48\n      jumpi\n      mload(0x40)\n      0x08c379a000000000000000000000000000000000000000000000000000000000\n      dup2\n      mstore\n      0x04\n      add\n      tag_49\n      swap1\n      tag_50\n      jump\t// in\n    tag_49:\n      mload(0x40)\n      dup1\n      swap2\n      sub\n      swap1\n      revert\n    tag_48:\n        /* \"H/hosted wallet.sol\":1258:1264  amount */\n      dup1\n        /* \"H/hosted wallet.sol\":1240:1248  balances */\n      0x01\n        /* \"H/hosted wallet.sol\":1240:1254  balances[from] */\n      0x00\n        /* \"H/hosted wallet.sol\":1249:1253  from */\n      dup6\n        /* \"H/hosted wallet.sol\":1240:1254  balances[from] */\n      0xffffffffffffffffffffffffffffffffffffffff\n      and\n      0xffffffffffffffffffffffffffffffffffffffff\n      and\n      dup2\n      mstore\n      0x20\n      add\n      swap1\n      dup2\n      mstore\n      0x20\n      add\n      0x00\n      keccak256\n      0x00\n        /* \"H/hosted wallet.sol\":1240:1264  balances[from] -= amount */\n      dup3\n      dup3\n      sload\n      tag_51\n      swap2\n      swap1\n      tag_39\n      jump\t// in\n    tag_51:\n      swap3\n      pop\n      pop\n      dup2\n      swap1\n      sstore\n      pop\n        /* \"H/hosted wallet.sol\":1290:1296  amount */\n      dup1\n        /* \"H/hosted wallet.sol\":1274:1282  balances */\n      0x01\n        /* \"H/hosted wallet.sol\":1274:1286  balances[to] */\n      0x00\n        /* \"H/hosted wallet.sol\":1283:1285  to */\n      dup5\n        /* \"H/hosted wallet.sol\":1274:1286  balances[to] */\n      0xffffffffffffffffffffffffffffffffffffffff\n      and\n      0xffffffffffffffffffffffffffffffffffffffff\n      and\n      dup2\n      mstore\n      0x20\n      add\n      swap1\n      dup2\n      mstore\n      0x20\n      add\n      0x00\n      keccak256\n      0x00\n        /* \"H/hosted wallet.sol\":1274:1296  balances[to] += amount */\n      dup3\n      dup3\n      sload\n      tag_52\n      swap2\n      swap1\n      tag_10\n      jump\t// in\n    tag_52:\n      swap3\n      pop\n      pop\n      dup2\n      swap1\n      sstore\n      pop\n        /* \"H/hosted wallet.sol\":1330:1332  to */\n      dup2\n        /* \"H/hosted wallet.sol\":1311:1341  HostTransfer(from, to, amount) */\n      0xffffffffffffffffffffffffffffffffffffffff\n      and\n        /* \"H/hosted wallet.sol\":1324:1328  from */\n      dup4\n        /* \"H/hosted wallet.sol\":1311:1341  HostTransfer(from, to, amount) */\n      0xffffffffffffffffffffffffffffffffffffffff\n      and\n      0x81bc84240e4f2d3aa3a4f02a24cd23ad25c074062cf1e7788a76e7f16dc19f90\n        /* \"H/hosted wallet.sol\":1334:1340  amount */\n      dup4\n        /* \"H/hosted wallet.sol\":1311:1341  HostTransfer(from, to, amount) */\n      mload(0x40)\n      tag_53\n      swap2\n      swap1\n      tag_12\n      jump\t// in\n    tag_53:\n      mload(0x40)\n      dup1\n      swap2\n      sub\n      swap1\n      log3\n        /* \"H/hosted wallet.sol\":1076:1348  function hostTransfer(address from, address to, uint256 amount) external onlyHost {... */\n      pop\n      pop\n      pop\n      jump\t// out\n        /* \"H/hosted wallet.sol\":125:144  address public host */\n    tag_25:\n      0x00\n      0x00\n      swap1\n      sload\n      swap1\n      0x0100\n      exp\n      swap1\n      div\n      0xffffffffffffffffffffffffffffffffffffffff\n      and\n      dup2\n      jump\t// out\n        /* \"H/hosted wallet.sol\":1354:1458  function getBalance(address user) external view returns (uint256) {... */\n    tag_32:\n        /* \"H/hosted wallet.sol\":1411:1418  uint256 */\n      0x00\n        /* \"H/hosted wallet.sol\":1437:1445  balances */\n      0x01\n        /* \"H/hosted wallet.sol\":1437:1451  balances[user] */\n      0x00\n        /* \"H/hosted wallet.sol\":1446:1450  user */\n      dup4\n        /* \"H/hosted wallet.sol\":1437:1451  balances[user] */\n      0xffffffffffffffffffffffffffffffffffffffff\n      and\n      0xffffffffffffffffffffffffffffffffffffffff\n      and\n      dup2\n      mstore\n      0x20\n      add\n      swap1\n      dup2\n      mstore\n      0x20\n      add\n      0x00\n      keccak256\n      sload\n        /* \"H/hosted wallet.sol\":1430:1451  return balances[user] */\n      swap1\n      pop\n        /* \"H/hosted wallet.sol\":1354:1458  function getBalance(address user) external view returns (uint256) {... */\n      swap2\n      swap1\n      pop\n      jump\t// out\n        /* \"#utility.yul\":7:84   */\n    tag_55:\n        /* \"#utility.yul\":44:51   */\n      0x00\n        /* \"#utility.yul\":73:78   */\n      dup2\n        /* \"#utility.yul\":62:78   */\n      swap1\n      pop\n        /* \"#utility.yul\":7:84   */\n      swap2\n      swap1\n      pop\n      jump\t// out\n        /* \"#utility.yul\":90:270   */\n    tag_56:\n        /* \"#utility.yul\":138:215   */\n      0x4e487b7100000000000000000000000000000000000000000000000000000000\n        /* \"#utility.yul\":135:136   */\n      0x00\n        /* \"#utility.yul\":128:216   */\n      mstore\n        /* \"#utility.yul\":235:239   */\n      0x11\n        /* \"#utility.yul\":232:233   */\n      0x04\n        /* \"#utility.yul\":225:240   */\n      mstore\n        /* \"#utility.yul\":259:263   */\n      0x24\n        /* \"#utility.yul\":256:257   */\n      0x00\n        /* \"#utility.yul\":249:264   */\n      revert\n        /* \"#utility.yul\":276:467   */\n    tag_10:\n        /* \"#utility.yul\":316:319   */\n      0x00\n        /* \"#utility.yul\":335:355   */\n      tag_79\n        /* \"#utility.yul\":353:354   */\n      dup3\n        /* \"#utility.yul\":335:355   */\n      tag_55\n      jump\t// in\n    tag_79:\n        /* \"#utility.yul\":330:355   */\n      swap2\n      pop\n        /* \"#utility.yul\":369:389   */\n      tag_80\n        /* \"#utility.yul\":387:388   */\n      dup4\n        /* \"#utility.yul\":369:389   */\n      tag_55\n      jump\t// in\n    tag_80:\n        /* \"#utility.yul\":364:389   */\n      swap3\n      pop\n        /* \"#utility.yul\":412:413   */\n      dup3\n        /* \"#utility.yul\":409:410   */\n      dup3\n        /* \"#utility.yul\":405:414   */\n      add\n        /* \"#utility.yul\":398:414   */\n      swap1\n      pop\n        /* \"#utility.yul\":433:436   */\n      dup1\n        /* \"#utility.yul\":430:431   */\n      dup3\n        /* \"#utility.yul\":427:437   */\n      gt\n        /* \"#utility.yul\":424:460   */\n      iszero\n      tag_81\n      jumpi\n        /* \"#utility.yul\":440:458   */\n      tag_82\n      tag_56\n      jump\t// in\n    tag_82:\n        /* \"#utility.yul\":424:460   */\n    tag_81:\n        /* \"#utility.yul\":276:467   */\n      swap3\n      swap2\n      pop\n      pop\n      jump\t// out\n        /* \"#utility.yul\":473:591   */\n    tag_57:\n        /* \"#utility.yul\":560:584   */\n      tag_84\n        /* \"#utility.yul\":578:583   */\n      dup2\n        /* \"#utility.yul\":560:584   */\n      tag_55\n      jump\t// in\n    tag_84:\n        /* \"#utility.yul\":555:558   */\n      dup3\n        /* \"#utility.yul\":548:585   */\n      mstore\n        /* \"#utility.yul\":473:591   */\n      pop\n      pop\n      jump\t// out\n        /* \"#utility.yul\":597:819   */\n    tag_12:\n        /* \"#utility.yul\":690:694   */\n      0x00\n        /* \"#utility.yul\":728:730   */\n      0x20\n        /* \"#utility.yul\":717:726   */\n      dup3\n        /* \"#utility.yul\":713:731   */\n      add\n        /* \"#utility.yul\":705:731   */\n      swap1\n      pop\n        /* \"#utility.yul\":741:812   */\n      tag_86\n        /* \"#utility.yul\":809:810   */\n      0x00\n        /* \"#utility.yul\":798:807   */\n      dup4\n        /* \"#utility.yul\":794:811   */\n      add\n        /* \"#utility.yul\":785:791   */\n      dup5\n        /* \"#utility.yul\":741:812   */\n      tag_57\n      jump\t// in\n    tag_86:\n        /* \"#utility.yul\":597:819   */\n      swap3\n      swap2\n      pop\n      pop\n      jump\t// out\n        /* \"#utility.yul\":906:1023   */\n    tag_59:\n        /* \"#utility.yul\":1015:1016   */\n      0x00\n        /* \"#utility.yul\":1012:1013   */\n      0x00\n        /* \"#utility.yul\":1005:1017   */\n      revert\n        /* \"#utility.yul\":1152:1274   */\n    tag_61:\n        /* \"#utility.yul\":1225:1249   */\n      tag_91\n        /* \"#utility.yul\":1243:1248   */\n      dup2\n        /* \"#utility.yul\":1225:1249   */\n      tag_55\n      jump\t// in\n    tag_91:\n        /* \"#utility.yul\":1218:1223   */\n      dup2\n        /* \"#utility.yul\":1215:1250   */\n      eq\n        /* \"#utility.yul\":1205:1268   */\n      tag_92\n      jumpi\n        /* \"#utility.yul\":1264:1265   */\n      0x00\n        /* \"#utility.yul\":1261:1262   */\n      0x00\n        /* \"#utility.yul\":1254:1266   */\n      revert\n        /* \"#utility.yul\":1205:1268   */\n    tag_92:\n        /* \"#utility.yul\":1152:1274   */\n      pop\n      jump\t// out\n        /* \"#utility.yul\":1280:1419   */\n    tag_62:\n        /* \"#utility.yul\":1326:1331   */\n      0x00\n        /* \"#utility.yul\":1364:1370   */\n      dup2\n        /* \"#utility.yul\":1351:1371   */\n      calldataload\n        /* \"#utility.yul\":1342:1371   */\n      swap1\n      pop\n        /* \"#utility.yul\":1380:1413   */\n      tag_94\n        /* \"#utility.yul\":1407:1412   */\n      dup2\n        /* \"#utility.yul\":1380:1413   */\n      tag_61\n      jump\t// in\n    tag_94:\n        /* \"#utility.yul\":1280:1419   */\n      swap3\n      swap2\n      pop\n      pop\n      jump\t// out\n        /* \"#utility.yul\":1425:1754   */\n    tag_16:\n        /* \"#utility.yul\":1484:1490   */\n      0x00\n        /* \"#utility.yul\":1533:1535   */\n      0x20\n        /* \"#utility.yul\":1521:1530   */\n      dup3\n        /* \"#utility.yul\":1512:1519   */\n      dup5\n        /* \"#utility.yul\":1508:1531   */\n      sub\n        /* \"#utility.yul\":1504:1536   */\n      slt\n        /* \"#utility.yul\":1501:1620   */\n      iszero\n      tag_96\n      jumpi\n        /* \"#utility.yul\":1539:1618   */\n      tag_97\n      tag_59\n      jump\t// in\n    tag_97:\n        /* \"#utility.yul\":1501:1620   */\n    tag_96:\n        /* \"#utility.yul\":1659:1660   */\n      0x00\n        /* \"#utility.yul\":1684:1737   */\n      tag_98\n        /* \"#utility.yul\":1729:1736   */\n      dup5\n        /* \"#utility.yul\":1720:1726   */\n      dup3\n        /* \"#utility.yul\":1709:1718   */\n      dup6\n        /* \"#utility.yul\":1705:1727   */\n      add\n        /* \"#utility.yul\":1684:1737   */\n      tag_62\n      jump\t// in\n    tag_98:\n        /* \"#utility.yul\":1674:1737   */\n      swap2\n      pop\n        /* \"#utility.yul\":1630:1747   */\n      pop\n        /* \"#utility.yul\":1425:1754   */\n      swap3\n      swap2\n      pop\n      pop\n      jump\t// out\n        /* \"#utility.yul\":1760:1886   */\n    tag_63:\n        /* \"#utility.yul\":1797:1804   */\n      0x00\n        /* \"#utility.yul\":1837:1879   */\n      0xffffffffffffffffffffffffffffffffffffffff\n        /* \"#utility.yul\":1830:1835   */\n      dup3\n        /* \"#utility.yul\":1826:1880   */\n      and\n        /* \"#utility.yul\":1815:1880   */\n      swap1\n      pop\n        /* \"#utility.yul\":1760:1886   */\n      swap2\n      swap1\n      pop\n      jump\t// out\n        /* \"#utility.yul\":1892:1988   */\n    tag_64:\n        /* \"#utility.yul\":1929:1936   */\n      0x00\n        /* \"#utility.yul\":1958:1982   */\n      tag_101\n        /* \"#utility.yul\":1976:1981   */\n      dup3\n        /* \"#utility.yul\":1958:1982   */\n      tag_63\n      jump\t// in\n    tag_101:\n        /* \"#utility.yul\":1947:1982   */\n      swap1\n      pop\n        /* \"#utility.yul\":1892:1988   */\n      swap2\n      swap1\n      pop\n      jump\t// out\n        /* \"#utility.yul\":1994:2116   */\n    tag_65:\n        /* \"#utility.yul\":2067:2091   */\n      tag_103\n        /* \"#utility.yul\":2085:2090   */\n      dup2\n        /* \"#utility.yul\":2067:2091   */\n      tag_64\n      jump\t// in\n    tag_103:\n        /* \"#utility.yul\":2060:2065   */\n      dup2\n        /* \"#utility.yul\":2057:2092   */\n      eq\n        /* \"#utility.yul\":2047:2110   */\n      tag_104\n      jumpi\n        /* \"#utility.yul\":2106:2107   */\n      0x00\n        /* \"#utility.yul\":2103:2104   */\n      0x00\n        /* \"#utility.yul\":2096:2108   */\n      revert\n        /* \"#utility.yul\":2047:2110   */\n    tag_104:\n        /* \"#utility.yul\":1994:2116   */\n      pop\n      jump\t// out\n        /* \"#utility.yul\":2122:2261   */\n    tag_66:\n        /* \"#utility.yul\":2168:2173   */\n      0x00\n        /* \"#utility.yul\":2206:2212   */\n      dup2\n        /* \"#utility.yul\":2193:2213   */\n      calldataload\n        /* \"#utility.yul\":2184:2213   */\n      swap1\n      pop\n        /* \"#utility.yul\":2222:2255   */\n      tag_106\n        /* \"#utility.yul\":2249:2254   */\n      dup2\n        /* \"#utility.yul\":2222:2255   */\n      tag_65\n      jump\t// in\n    tag_106:\n        /* \"#utility.yul\":2122:2261   */\n      swap3\n      swap2\n      pop\n      pop\n      jump\t// out\n        /* \"#utility.yul\":2267:2886   */\n    tag_21:\n        /* \"#utility.yul\":2344:2350   */\n      0x00\n        /* \"#utility.yul\":2352:2358   */\n      0x00\n        /* \"#utility.yul\":2360:2366   */\n      0x00\n        /* \"#utility.yul\":2409:2411   */\n      0x60\n        /* \"#utility.yul\":2397:2406   */\n      dup5\n        /* \"#utility.yul\":2388:2395   */\n      dup7\n        /* \"#utility.yul\":2384:2407   */\n      sub\n        /* \"#utility.yul\":2380:2412   */\n      slt\n        /* \"#utility.yul\":2377:2496   */\n      iszero\n      tag_108\n      jumpi\n        /* \"#utility.yul\":2415:2494   */\n      tag_109\n      tag_59\n      jump\t// in\n    tag_109:\n        /* \"#utility.yul\":2377:2496   */\n    tag_108:\n        /* \"#utility.yul\":2535:2536   */\n      0x00\n        /* \"#utility.yul\":2560:2613   */\n      tag_110\n        /* \"#utility.yul\":2605:2612   */\n      dup7\n        /* \"#utility.yul\":2596:2602   */\n      dup3\n        /* \"#utility.yul\":2585:2594   */\n      dup8\n        /* \"#utility.yul\":2581:2603   */\n      add\n        /* \"#utility.yul\":2560:2613   */\n      tag_66\n      jump\t// in\n    tag_110:\n        /* \"#utility.yul\":2550:2613   */\n      swap4\n      pop\n        /* \"#utility.yul\":2506:2623   */\n      pop\n        /* \"#utility.yul\":2662:2664   */\n      0x20\n        /* \"#utility.yul\":2688:2741   */\n      tag_111\n        /* \"#utility.yul\":2733:2740   */\n      dup7\n        /* \"#utility.yul\":2724:2730   */\n      dup3\n        /* \"#utility.yul\":2713:2722   */\n      dup8\n        /* \"#utility.yul\":2709:2731   */\n      add\n        /* \"#utility.yul\":2688:2741   */\n      tag_66\n      jump\t// in\n    tag_111:\n        /* \"#utility.yul\":2678:2741   */\n      swap3\n      pop\n        /* \"#utility.yul\":2633:2751   */\n      pop\n        /* \"#utility.yul\":2790:2792   */\n      0x40\n        /* \"#utility.yul\":2816:2869   */\n      tag_112\n        /* \"#utility.yul\":2861:2868   */\n      dup7\n        /* \"#utility.yul\":2852:2858   */\n      dup3\n        /* \"#utility.yul\":2841:2850   */\n      dup8\n        /* \"#utility.yul\":2837:2859   */\n      add\n        /* \"#utility.yul\":2816:2869   */\n      tag_62\n      jump\t// in\n    tag_112:\n        /* \"#utility.yul\":2806:2869   */\n      swap2\n      pop\n        /* \"#utility.yul\":2761:2879   */\n      pop\n        /* \"#utility.yul\":2267:2886   */\n      swap3\n      pop\n      swap3\n      pop\n      swap3\n      jump\t// out\n        /* \"#utility.yul\":2892:3010   */\n    tag_67:\n        /* \"#utility.yul\":2979:3003   */\n      tag_114\n        /* \"#utility.yul\":2997:3002   */\n      dup2\n        /* \"#utility.yul\":2979:3003   */\n      tag_64\n      jump\t// in\n    tag_114:\n        /* \"#utility.yul\":2974:2977   */\n      dup3\n        /* \"#utility.yul\":2967:3004   */\n      mstore\n        /* \"#utility.yul\":2892:3010   */\n      pop\n      pop\n      jump\t// out\n        /* \"#utility.yul\":3016:3238   */\n    tag_27:\n        /* \"#utility.yul\":3109:3113   */\n      0x00\n        /* \"#utility.yul\":3147:3149   */\n      0x20\n        /* \"#utility.yul\":3136:3145   */\n      dup3\n        /* \"#utility.yul\":3132:3150   */\n      add\n        /* \"#utility.yul\":3124:3150   */\n      swap1\n      pop\n        /* \"#utility.yul\":3160:3231   */\n      tag_116\n        /* \"#utility.yul\":3228:3229   */\n      0x00\n        /* \"#utility.yul\":3217:3226   */\n      dup4\n        /* \"#utility.yul\":3213:3230   */\n      add\n        /* \"#utility.yul\":3204:3210   */\n      dup5\n        /* \"#utility.yul\":3160:3231   */\n      tag_67\n      jump\t// in\n    tag_116:\n        /* \"#utility.yul\":3016:3238   */\n      swap3\n      swap2\n      pop\n      pop\n      jump\t// out\n        /* \"#utility.yul\":3244:3573   */\n    tag_31:\n        /* \"#utility.yul\":3303:3309   */\n      0x00\n        /* \"#utility.yul\":3352:3354   */\n      0x20\n        /* \"#utility.yul\":3340:3349   */\n      dup3\n        /* \"#utility.yul\":3331:3338   */\n      dup5\n        /* \"#utility.yul\":3327:3350   */\n      sub\n        /* \"#utility.yul\":3323:3355   */\n      slt\n        /* \"#utility.yul\":3320:3439   */\n      iszero\n      tag_118\n      jumpi\n        /* \"#utility.yul\":3358:3437   */\n      tag_119\n      tag_59\n      jump\t// in\n    tag_119:\n        /* \"#utility.yul\":3320:3439   */\n    tag_118:\n        /* \"#utility.yul\":3478:3479   */\n      0x00\n        /* \"#utility.yul\":3503:3556   */\n      tag_120\n        /* \"#utility.yul\":3548:3555   */\n      dup5\n        /* \"#utility.yul\":3539:3545   */\n      dup3\n        /* \"#utility.yul\":3528:3537   */\n      dup6\n        /* \"#utility.yul\":3524:3546   */\n      add\n        /* \"#utility.yul\":3503:3556   */\n      tag_66\n      jump\t// in\n    tag_120:\n        /* \"#utility.yul\":3493:3556   */\n      swap2\n      pop\n        /* \"#utility.yul\":3449:3566   */\n      pop\n        /* \"#utility.yul\":3244:3573   */\n      swap3\n      swap2\n      pop\n      pop\n      jump\t// out\n        /* \"#utility.yul\":3579:3748   */\n    tag_68:\n        /* \"#utility.yul\":3663:3674   */\n      0x00\n        /* \"#utility.yul\":3697:3703   */\n      dup3\n        /* \"#utility.yul\":3692:3695   */\n      dup3\n        /* \"#utility.yul\":3685:3704   */\n      mstore\n        /* \"#utility.yul\":3737:3741   */\n      0x20\n        /* \"#utility.yul\":3732:3735   */\n      dup3\n        /* \"#utility.yul\":3728:3742   */\n      add\n        /* \"#utility.yul\":3713:3742   */\n      swap1\n      pop\n        /* \"#utility.yul\":3579:3748   */\n      swap3\n      swap2\n      pop\n      pop\n      jump\t// out\n        /* \"#utility.yul\":3754:3924   */\n    tag_69:\n        /* \"#utility.yul\":3894:3916   */\n      0x496e73756666696369656e742062616c616e6365000000000000000000000000\n        /* \"#utility.yul\":3890:3891   */\n      0x00\n        /* \"#utility.yul\":3882:3888   */\n      dup3\n        /* \"#utility.yul\":3878:3892   */\n      add\n        /* \"#utility.yul\":3871:3917   */\n      mstore\n        /* \"#utility.yul\":3754:3924   */\n      pop\n      jump\t// out\n        /* \"#utility.yul\":3930:4296   */\n    tag_70:\n        /* \"#utility.yul\":4072:4075   */\n      0x00\n        /* \"#utility.yul\":4093:4160   */\n      tag_124\n        /* \"#utility.yul\":4157:4159   */\n      0x14\n        /* \"#utility.yul\":4152:4155   */\n      dup4\n        /* \"#utility.yul\":4093:4160   */\n      tag_68\n      jump\t// in\n    tag_124:\n        /* \"#utility.yul\":4086:4160   */\n      swap2\n      pop\n        /* \"#utility.yul\":4169:4262   */\n      tag_125\n        /* \"#utility.yul\":4258:4261   */\n      dup3\n        /* \"#utility.yul\":4169:4262   */\n      tag_69\n      jump\t// in\n    tag_125:\n        /* \"#utility.yul\":4287:4289   */\n      0x20\n        /* \"#utility.yul\":4282:4285   */\n      dup3\n        /* \"#utility.yul\":4278:4290   */\n      add\n        /* \"#utility.yul\":4271:4290   */\n      swap1\n      pop\n        /* \"#utility.yul\":3930:4296   */\n      swap2\n      swap1\n      pop\n      jump\t// out\n        /* \"#utility.yul\":4302:4721   */\n    tag_37:\n        /* \"#utility.yul\":4468:4472   */\n      0x00\n        /* \"#utility.yul\":4506:4508   */\n      0x20\n        /* \"#utility.yul\":4495:4504   */\n      dup3\n        /* \"#utility.yul\":4491:4509   */\n      add\n        /* \"#utility.yul\":4483:4509   */\n      swap1\n      pop\n        /* \"#utility.yul\":4555:4564   */\n      dup2\n        /* \"#utility.yul\":4549:4553   */\n      dup2\n        /* \"#utility.yul\":4545:4565   */\n      sub\n        /* \"#utility.yul\":4541:4542   */\n      0x00\n        /* \"#utility.yul\":4530:4539   */\n      dup4\n        /* \"#utility.yul\":4526:4543   */\n      add\n        /* \"#utility.yul\":4519:4566   */\n      mstore\n        /* \"#utility.yul\":4583:4714   */\n      tag_127\n        /* \"#utility.yul\":4709:4713   */\n      dup2\n        /* \"#utility.yul\":4583:4714   */\n      tag_70\n      jump\t// in\n    tag_127:\n        /* \"#utility.yul\":4575:4714   */\n      swap1\n      pop\n        /* \"#utility.yul\":4302:4721   */\n      swap2\n      swap1\n      pop\n      jump\t// out\n        /* \"#utility.yul\":4727:4921   */\n    tag_39:\n        /* \"#utility.yul\":4767:4771   */\n      0x00\n        /* \"#utility.yul\":4787:4807   */\n      tag_129\n        /* \"#utility.yul\":4805:4806   */\n      dup3\n        /* \"#utility.yul\":4787:4807   */\n      tag_55\n      jump\t// in\n    tag_129:\n        /* \"#utility.yul\":4782:4807   */\n      swap2\n      pop\n        /* \"#utility.yul\":4821:4841   */\n      tag_130\n        /* \"#utility.yul\":4839:4840   */\n      dup4\n        /* \"#utility.yul\":4821:4841   */\n      tag_55\n      jump\t// in\n    tag_130:\n        /* \"#utility.yul\":4816:4841   */\n      swap3\n      pop\n        /* \"#utility.yul\":4865:4866   */\n      dup3\n        /* \"#utility.yul\":4862:4863   */\n      dup3\n        /* \"#utility.yul\":4858:4867   */\n      sub\n        /* \"#utility.yul\":4850:4867   */\n      swap1\n      pop\n        /* \"#utility.yul\":4889:4890   */\n      dup2\n        /* \"#utility.yul\":4883:4887   */\n      dup2\n        /* \"#utility.yul\":4880:4891   */\n      gt\n        /* \"#utility.yul\":4877:4914   */\n      iszero\n      tag_131\n      jumpi\n        /* \"#utility.yul\":4894:4912   */\n      tag_132\n      tag_56\n      jump\t// in\n    tag_132:\n        /* \"#utility.yul\":4877:4914   */\n    tag_131:\n        /* \"#utility.yul\":4727:4921   */\n      swap3\n      swap2\n      pop\n      pop\n      jump\t// out\n        /* \"#utility.yul\":4927:5147   */\n    tag_71:\n        /* \"#utility.yul\":5067:5101   */\n      0x4f6e6c7920686f73742063616e20706572666f726d207468697320616374696f\n        /* \"#utility.yul\":5063:5064   */\n      0x00\n        /* \"#utility.yul\":5055:5061   */\n      dup3\n        /* \"#utility.yul\":5051:5065   */\n      add\n        /* \"#utility.yul\":5044:5102   */\n      mstore\n        /* \"#utility.yul\":5136:5139   */\n      0x6e00000000000000000000000000000000000000000000000000000000000000\n        /* \"#utility.yul\":5131:5133   */\n      0x20\n        /* \"#utility.yul\":5123:5129   */\n      dup3\n        /* \"#utility.yul\":5119:5134   */\n      add\n        /* \"#utility.yul\":5112:5140   */\n      mstore\n        /* \"#utility.yul\":4927:5147   */\n      pop\n      jump\t// out\n        /* \"#utility.yul\":5153:5519   */\n    tag_72:\n        /* \"#utility.yul\":5295:5298   */\n      0x00\n        /* \"#utility.yul\":5316:5383   */\n      tag_135\n        /* \"#utility.yul\":5380:5382   */\n      0x21\n        /* \"#utility.yul\":5375:5378   */\n      dup4\n        /* \"#utility.yul\":5316:5383   */\n      tag_68\n      jump\t// in\n    tag_135:\n        /* \"#utility.yul\":5309:5383   */\n      swap2\n      pop\n        /* \"#utility.yul\":5392:5485   */\n      tag_136\n        /* \"#utility.yul\":5481:5484   */\n      dup3\n        /* \"#utility.yul\":5392:5485   */\n      tag_71\n      jump\t// in\n    tag_136:\n        /* \"#utility.yul\":5510:5512   */\n      0x40\n        /* \"#utility.yul\":5505:5508   */\n      dup3\n        /* \"#utility.yul\":5501:5513   */\n      add\n        /* \"#utility.yul\":5494:5513   */\n      swap1\n      pop\n        /* \"#utility.yul\":5153:5519   */\n      swap2\n      swap1\n      pop\n      jump\t// out\n        /* \"#utility.yul\":5525:5944   */\n    tag_46:\n        /* \"#utility.yul\":5691:5695   */\n      0x00\n        /* \"#utility.yul\":5729:5731   */\n      0x20\n        /* \"#utility.yul\":5718:5727   */\n      dup3\n        /* \"#utility.yul\":5714:5732   */\n      add\n        /* \"#utility.yul\":5706:5732   */\n      swap1\n      pop\n        /* \"#utility.yul\":5778:5787   */\n      dup2\n        /* \"#utility.yul\":5772:5776   */\n      dup2\n        /* \"#utility.yul\":5768:5788   */\n      sub\n        /* \"#utility.yul\":5764:5765   */\n      0x00\n        /* \"#utility.yul\":5753:5762   */\n      dup4\n        /* \"#utility.yul\":5749:5766   */\n      add\n        /* \"#utility.yul\":5742:5789   */\n      mstore\n        /* \"#utility.yul\":5806:5937   */\n      tag_138\n        /* \"#utility.yul\":5932:5936   */\n      dup2\n        /* \"#utility.yul\":5806:5937   */\n      tag_72\n      jump\t// in\n    tag_138:\n        /* \"#utility.yul\":5798:5937   */\n      swap1\n      pop\n        /* \"#utility.yul\":5525:5944   */\n      swap2\n      swap1\n      pop\n      jump\t// out\n        /* \"#utility.yul\":5950:6125   */\n    tag_73:\n        /* \"#utility.yul\":6090:6117   */\n      0x496e73756666696369656e7420757365722062616c616e636500000000000000\n        /* \"#utility.yul\":6086:6087   */\n      0x00\n        /* \"#utility.yul\":6078:6084   */\n      dup3\n        /* \"#utility.yul\":6074:6088   */\n      add\n        /* \"#utility.yul\":6067:6118   */\n      mstore\n        /* \"#utility.yul\":5950:6125   */\n      pop\n      jump\t// out\n        /* \"#utility.yul\":6131:6497   */\n    tag_74:\n        /* \"#utility.yul\":6273:6276   */\n      0x00\n        /* \"#utility.yul\":6294:6361   */\n      tag_141\n        /* \"#utility.yul\":6358:6360   */\n      0x19\n        /* \"#utility.yul\":6353:6356   */\n      dup4\n        /* \"#utility.yul\":6294:6361   */\n      tag_68\n      jump\t// in\n    tag_141:\n        /* \"#utility.yul\":6287:6361   */\n      swap2\n      pop\n        /* \"#utility.yul\":6370:6463   */\n      tag_142\n        /* \"#utility.yul\":6459:6462   */\n      dup3\n        /* \"#utility.yul\":6370:6463   */\n      tag_73\n      jump\t// in\n    tag_142:\n        /* \"#utility.yul\":6488:6490   */\n      0x20\n        /* \"#utility.yul\":6483:6486   */\n      dup3\n        /* \"#utility.yul\":6479:6491   */\n      add\n        /* \"#utility.yul\":6472:6491   */\n      swap1\n      pop\n        /* \"#utility.yul\":6131:6497   */\n      swap2\n      swap1\n      pop\n      jump\t// out\n        /* \"#utility.yul\":6503:6922   */\n    tag_50:\n        /* \"#utility.yul\":6669:6673   */\n      0x00\n        /* \"#utility.yul\":6707:6709   */\n      0x20\n        /* \"#utility.yul\":6696:6705   */\n      dup3\n        /* \"#utility.yul\":6692:6710   */\n      add\n        /* \"#utility.yul\":6684:6710   */\n      swap1\n      pop\n        /* \"#utility.yul\":6756:6765   */\n      dup2\n        /* \"#utility.yul\":6750:6754   */\n      dup2\n        /* \"#utility.yul\":6746:6766   */\n      sub\n        /* \"#utility.yul\":6742:6743   */\n      0x00\n        /* \"#utility.yul\":6731:6740   */\n      dup4\n        /* \"#utility.yul\":6727:6744   */\n      add\n        /* \"#utility.yul\":6720:6767   */\n      mstore\n        /* \"#utility.yul\":6784:6915   */\n      tag_144\n        /* \"#utility.yul\":6910:6914   */\n      dup2\n        /* \"#utility.yul\":6784:6915   */\n      tag_74\n      jump\t// in\n    tag_144:\n        /* \"#utility.yul\":6776:6915   */\n      swap1\n      pop\n        /* \"#utility.yul\":6503:6922   */\n      swap2\n      swap1\n      pop\n      jump\t// out\n\n    auxdata: 0xa2646970667358221220f57d87d9c59fd6c54b1c021a666da741fd3b50cdc7c4692543e36d938950c47a64736f6c634300081d0033\n}\n",
				"bytecode": {
					"linkReferences": {},
					"object": "6080604052348015600e575f5ffd5b50335f5f6101000a81548173ffffffffffffffffffffffffffffffffffffffff021916908373ffffffffffffffffffffffffffffffffffffffff1602179055506109528061005b5f395ff3fe608060405260043610610042575f3560e01c80632e1a7d4d146100ee5780633b0bd37a14610116578063f437bc591461013e578063f8b2cb4f14610168576100ea565b366100ea573460015f3373ffffffffffffffffffffffffffffffffffffffff1673ffffffffffffffffffffffffffffffffffffffff1681526020019081526020015f205f82825461009391906105ca565b925050819055503373ffffffffffffffffffffffffffffffffffffffff167fe1fffcc4923d04b559f4d29a8bfc6cda04eb5b0d3c460751c2402c5c5cc9109c346040516100e0919061060c565b60405180910390a2005b5f5ffd5b3480156100f9575f5ffd5b50610114600480360381019061010f9190610653565b6101a4565b005b348015610121575f5ffd5b5061013c600480360381019061013791906106d8565b61030c565b005b348015610149575f5ffd5b5061015261052a565b60405161015f9190610737565b60405180910390f35b348015610173575f5ffd5b5061018e60048036038101906101899190610750565b61054e565b60405161019b919061060c565b60405180910390f35b8060015f3373ffffffffffffffffffffffffffffffffffffffff1673ffffffffffffffffffffffffffffffffffffffff1681526020019081526020015f20541015610224576040517f08c379a000000000000000000000000000000000000000000000000000000000815260040161021b906107d5565b60405180910390fd5b8060015f3373ffffffffffffffffffffffffffffffffffffffff1673ffffffffffffffffffffffffffffffffffffffff1681526020019081526020015f205f82825461027091906107f3565b925050819055503373ffffffffffffffffffffffffffffffffffffffff166108fc8290811502906040515f60405180830381858888f193505050501580156102ba573d5f5f3e3d5ffd5b503373ffffffffffffffffffffffffffffffffffffffff167f7fcf532c15f0a6db0bd6d0e038bea71d30d808c7d98cb3bf7268a95bf5081b6582604051610301919061060c565b60405180910390a250565b5f5f9054906101000a900473ffffffffffffffffffffffffffffffffffffffff1673ffffffffffffffffffffffffffffffffffffffff163373ffffffffffffffffffffffffffffffffffffffff161461039a576040517f08c379a000000000000000000000000000000000000000000000000000000000815260040161039190610896565b60405180910390fd5b8060015f8573ffffffffffffffffffffffffffffffffffffffff1673ffffffffffffffffffffffffffffffffffffffff1681526020019081526020015f2054101561041a576040517f08c379a0000000000000000000000000000000000000000000000000000000008152600401610411906108fe565b60405180910390fd5b8060015f8573ffffffffffffffffffffffffffffffffffffffff1673ffffffffffffffffffffffffffffffffffffffff1681526020019081526020015f205f82825461046691906107f3565b925050819055508060015f8473ffffffffffffffffffffffffffffffffffffffff1673ffffffffffffffffffffffffffffffffffffffff1681526020019081526020015f205f8282546104b991906105ca565b925050819055508173ffffffffffffffffffffffffffffffffffffffff168373ffffffffffffffffffffffffffffffffffffffff167f81bc84240e4f2d3aa3a4f02a24cd23ad25c074062cf1e7788a76e7f16dc19f908360405161051d919061060c565b60405180910390a3505050565b5f5f9054906101000a900473ffffffffffffffffffffffffffffffffffffffff1681565b5f60015f8373ffffffffffffffffffffffffffffffffffffffff1673ffffffffffffffffffffffffffffffffffffffff1681526020019081526020015f20549050919050565b5f819050919050565b7f4e487b71000000000000000000000000000000000000000000000000000000005f52601160045260245ffd5b5f6105d482610594565b91506105df83610594565b92508282019050808211156105f7576105f661059d565b5b92915050565b61060681610594565b82525050565b5f60208201905061061f5f8301846105fd565b92915050565b5f5ffd5b61063281610594565b811461063c575f5ffd5b50565b5f8135905061064d81610629565b92915050565b5f6020828403121561066857610667610625565b5b5f6106758482850161063f565b91505092915050565b5f73ffffffffffffffffffffffffffffffffffffffff82169050919050565b5f6106a78261067e565b9050919050565b6106b78161069d565b81146106c1575f5ffd5b50565b5f813590506106d2816106ae565b92915050565b5f5f5f606084860312156106ef576106ee610625565b5b5f6106fc868287016106c4565b935050602061070d868287016106c4565b925050604061071e8682870161063f565b9150509250925092565b6107318161069d565b82525050565b5f60208201905061074a5f830184610728565b92915050565b5f6020828403121561076557610764610625565b5b5f610772848285016106c4565b91505092915050565b5f82825260208201905092915050565b7f496e73756666696369656e742062616c616e63650000000000000000000000005f82015250565b5f6107bf60148361077b565b91506107ca8261078b565b602082019050919050565b5f6020820190508181035f8301526107ec816107b3565b9050919050565b5f6107fd82610594565b915061080883610594565b92508282039050818111156108205761081f61059d565b5b92915050565b7f4f6e6c7920686f73742063616e20706572666f726d207468697320616374696f5f8201527f6e00000000000000000000000000000000000000000000000000000000000000602082015250565b5f61088060218361077b565b915061088b82610826565b604082019050919050565b5f6020820190508181035f8301526108ad81610874565b9050919050565b7f496e73756666696369656e7420757365722062616c616e6365000000000000005f82015250565b5f6108e860198361077b565b91506108f3826108b4565b602082019050919050565b5f6020820190508181035f830152610915816108dc565b905091905056fea2646970667358221220f57d87d9c59fd6c54b1c021a666da741fd3b50cdc7c4692543e36d938950c47a64736f6c634300081d0033",
					"opcodes": "PUSH1 0x80 PUSH1 0x40 MSTORE CALLVALUE DUP1 ISZERO PUSH1 0xE JUMPI PUSH0 PUSH0 REVERT JUMPDEST POP CALLER PUSH0 PUSH0 PUSH2 0x100 EXP DUP2 SLOAD DUP2 PUSH20 0xFFFFFFFFFFFFFFFFFFFFFFFFFFFFFFFFFFFFFFFF MUL NOT AND SWAP1 DUP4 PUSH20 0xFFFFFFFFFFFFFFFFFFFFFFFFFFFFFFFFFFFFFFFF AND MUL OR SWAP1 SSTORE POP PUSH2 0x952 DUP1 PUSH2 0x5B PUSH0 CODECOPY PUSH0 RETURN INVALID PUSH1 0x80 PUSH1 0x40 MSTORE PUSH1 0x4 CALLDATASIZE LT PUSH2 0x42 JUMPI PUSH0 CALLDATALOAD PUSH1 0xE0 SHR DUP1 PUSH4 0x2E1A7D4D EQ PUSH2 0xEE JUMPI DUP1 PUSH4 0x3B0BD37A EQ PUSH2 0x116 JUMPI DUP1 PUSH4 0xF437BC59 EQ PUSH2 0x13E JUMPI DUP1 PUSH4 0xF8B2CB4F EQ PUSH2 0x168 JUMPI PUSH2 0xEA JUMP JUMPDEST CALLDATASIZE PUSH2 0xEA JUMPI CALLVALUE PUSH1 0x1 PUSH0 CALLER PUSH20 0xFFFFFFFFFFFFFFFFFFFFFFFFFFFFFFFFFFFFFFFF AND PUSH20 0xFFFFFFFFFFFFFFFFFFFFFFFFFFFFFFFFFFFFFFFF AND DUP2 MSTORE PUSH1 0x20 ADD SWAP1 DUP2 MSTORE PUSH1 0x20 ADD PUSH0 KECCAK256 PUSH0 DUP3 DUP3 SLOAD PUSH2 0x93 SWAP2 SWAP1 PUSH2 0x5CA JUMP JUMPDEST SWAP3 POP POP DUP2 SWAP1 SSTORE POP CALLER PUSH20 0xFFFFFFFFFFFFFFFFFFFFFFFFFFFFFFFFFFFFFFFF AND PUSH32 0xE1FFFCC4923D04B559F4D29A8BFC6CDA04EB5B0D3C460751C2402C5C5CC9109C CALLVALUE PUSH1 0x40 MLOAD PUSH2 0xE0 SWAP2 SWAP1 PUSH2 0x60C JUMP JUMPDEST PUSH1 0x40 MLOAD DUP1 SWAP2 SUB SWAP1 LOG2 STOP JUMPDEST PUSH0 PUSH0 REVERT JUMPDEST CALLVALUE DUP1 ISZERO PUSH2 0xF9 JUMPI PUSH0 PUSH0 REVERT JUMPDEST POP PUSH2 0x114 PUSH1 0x4 DUP1 CALLDATASIZE SUB DUP2 ADD SWAP1 PUSH2 0x10F SWAP2 SWAP1 PUSH2 0x653 JUMP JUMPDEST PUSH2 0x1A4 JUMP JUMPDEST STOP JUMPDEST CALLVALUE DUP1 ISZERO PUSH2 0x121 JUMPI PUSH0 PUSH0 REVERT JUMPDEST POP PUSH2 0x13C PUSH1 0x4 DUP1 CALLDATASIZE SUB DUP2 ADD SWAP1 PUSH2 0x137 SWAP2 SWAP1 PUSH2 0x6D8 JUMP JUMPDEST PUSH2 0x30C JUMP JUMPDEST STOP JUMPDEST CALLVALUE DUP1 ISZERO PUSH2 0x149 JUMPI PUSH0 PUSH0 REVERT JUMPDEST POP PUSH2 0x152 PUSH2 0x52A JUMP JUMPDEST PUSH1 0x40 MLOAD PUSH2 0x15F SWAP2 SWAP1 PUSH2 0x737 JUMP JUMPDEST PUSH1 0x40 MLOAD DUP1 SWAP2 SUB SWAP1 RETURN JUMPDEST CALLVALUE DUP1 ISZERO PUSH2 0x173 JUMPI PUSH0 PUSH0 REVERT JUMPDEST POP PUSH2 0x18E PUSH1 0x4 DUP1 CALLDATASIZE SUB DUP2 ADD SWAP1 PUSH2 0x189 SWAP2 SWAP1 PUSH2 0x750 JUMP JUMPDEST PUSH2 0x54E JUMP JUMPDEST PUSH1 0x40 MLOAD PUSH2 0x19B SWAP2 SWAP1 PUSH2 0x60C JUMP JUMPDEST PUSH1 0x40 MLOAD DUP1 SWAP2 SUB SWAP1 RETURN JUMPDEST DUP1 PUSH1 0x1 PUSH0 CALLER PUSH20 0xFFFFFFFFFFFFFFFFFFFFFFFFFFFFFFFFFFFFFFFF AND PUSH20 0xFFFFFFFFFFFFFFFFFFFFFFFFFFFFFFFFFFFFFFFF AND DUP2 MSTORE PUSH1 0x20 ADD SWAP1 DUP2 MSTORE PUSH1 0x20 ADD PUSH0 KECCAK256 SLOAD LT ISZERO PUSH2 0x224 JUMPI PUSH1 0x40 MLOAD PUSH32 0x8C379A000000000000000000000000000000000000000000000000000000000 DUP2 MSTORE PUSH1 0x4 ADD PUSH2 0x21B SWAP1 PUSH2 0x7D5 JUMP JUMPDEST PUSH1 0x40 MLOAD DUP1 SWAP2 SUB SWAP1 REVERT JUMPDEST DUP1 PUSH1 0x1 PUSH0 CALLER PUSH20 0xFFFFFFFFFFFFFFFFFFFFFFFFFFFFFFFFFFFFFFFF AND PUSH20 0xFFFFFFFFFFFFFFFFFFFFFFFFFFFFFFFFFFFFFFFF AND DUP2 MSTORE PUSH1 0x20 ADD SWAP1 DUP2 MSTORE PUSH1 0x20 ADD PUSH0 KECCAK256 PUSH0 DUP3 DUP3 SLOAD PUSH2 0x270 SWAP2 SWAP1 PUSH2 0x7F3 JUMP JUMPDEST SWAP3 POP POP DUP2 SWAP1 SSTORE POP CALLER PUSH20 0xFFFFFFFFFFFFFFFFFFFFFFFFFFFFFFFFFFFFFFFF AND PUSH2 0x8FC DUP3 SWAP1 DUP2 ISZERO MUL SWAP1 PUSH1 0x40 MLOAD PUSH0 PUSH1 0x40 MLOAD DUP1 DUP4 SUB DUP2 DUP6 DUP9 DUP9 CALL SWAP4 POP POP POP POP ISZERO DUP1 ISZERO PUSH2 0x2BA JUMPI RETURNDATASIZE PUSH0 PUSH0 RETURNDATACOPY RETURNDATASIZE PUSH0 REVERT JUMPDEST POP CALLER PUSH20 0xFFFFFFFFFFFFFFFFFFFFFFFFFFFFFFFFFFFFFFFF AND PUSH32 0x7FCF532C15F0A6DB0BD6D0E038BEA71D30D808C7D98CB3BF7268A95BF5081B65 DUP3 PUSH1 0x40 MLOAD PUSH2 0x301 SWAP2 SWAP1 PUSH2 0x60C JUMP JUMPDEST PUSH1 0x40 MLOAD DUP1 SWAP2 SUB SWAP1 LOG2 POP JUMP JUMPDEST PUSH0 PUSH0 SWAP1 SLOAD SWAP1 PUSH2 0x100 EXP SWAP1 DIV PUSH20 0xFFFFFFFFFFFFFFFFFFFFFFFFFFFFFFFFFFFFFFFF AND PUSH20 0xFFFFFFFFFFFFFFFFFFFFFFFFFFFFFFFFFFFFFFFF AND CALLER PUSH20 0xFFFFFFFFFFFFFFFFFFFFFFFFFFFFFFFFFFFFFFFF AND EQ PUSH2 0x39A JUMPI PUSH1 0x40 MLOAD PUSH32 0x8C379A000000000000000000000000000000000000000000000000000000000 DUP2 MSTORE PUSH1 0x4 ADD PUSH2 0x391 SWAP1 PUSH2 0x896 JUMP JUMPDEST PUSH1 0x40 MLOAD DUP1 SWAP2 SUB SWAP1 REVERT JUMPDEST DUP1 PUSH1 0x1 PUSH0 DUP6 PUSH20 0xFFFFFFFFFFFFFFFFFFFFFFFFFFFFFFFFFFFFFFFF AND PUSH20 0xFFFFFFFFFFFFFFFFFFFFFFFFFFFFFFFFFFFFFFFF AND DUP2 MSTORE PUSH1 0x20 ADD SWAP1 DUP2 MSTORE PUSH1 0x20 ADD PUSH0 KECCAK256 SLOAD LT ISZERO PUSH2 0x41A JUMPI PUSH1 0x40 MLOAD PUSH32 0x8C379A000000000000000000000000000000000000000000000000000000000 DUP2 MSTORE PUSH1 0x4 ADD PUSH2 0x411 SWAP1 PUSH2 0x8FE JUMP JUMPDEST PUSH1 0x40 MLOAD DUP1 SWAP2 SUB SWAP1 REVERT JUMPDEST DUP1 PUSH1 0x1 PUSH0 DUP6 PUSH20 0xFFFFFFFFFFFFFFFFFFFFFFFFFFFFFFFFFFFFFFFF AND PUSH20 0xFFFFFFFFFFFFFFFFFFFFFFFFFFFFFFFFFFFFFFFF AND DUP2 MSTORE PUSH1 0x20 ADD SWAP1 DUP2 MSTORE PUSH1 0x20 ADD PUSH0 KECCAK256 PUSH0 DUP3 DUP3 SLOAD PUSH2 0x466 SWAP2 SWAP1 PUSH2 0x7F3 JUMP JUMPDEST SWAP3 POP POP DUP2 SWAP1 SSTORE POP DUP1 PUSH1 0x1 PUSH0 DUP5 PUSH20 0xFFFFFFFFFFFFFFFFFFFFFFFFFFFFFFFFFFFFFFFF AND PUSH20 0xFFFFFFFFFFFFFFFFFFFFFFFFFFFFFFFFFFFFFFFF AND DUP2 MSTORE PUSH1 0x20 ADD SWAP1 DUP2 MSTORE PUSH1 0x20 ADD PUSH0 KECCAK256 PUSH0 DUP3 DUP3 SLOAD PUSH2 0x4B9 SWAP2 SWAP1 PUSH2 0x5CA JUMP JUMPDEST SWAP3 POP POP DUP2 SWAP1 SSTORE POP DUP2 PUSH20 0xFFFFFFFFFFFFFFFFFFFFFFFFFFFFFFFFFFFFFFFF AND DUP4 PUSH20 0xFFFFFFFFFFFFFFFFFFFFFFFFFFFFFFFFFFFFFFFF AND PUSH32 0x81BC84240E4F2D3AA3A4F02A24CD23AD25C074062CF1E7788A76E7F16DC19F90 DUP4 PUSH1 0x40 MLOAD PUSH2 0x51D SWAP2 SWAP1 PUSH2 0x60C JUMP JUMPDEST PUSH1 0x40 MLOAD DUP1 SWAP2 SUB SWAP1 LOG3 POP POP POP JUMP JUMPDEST PUSH0 PUSH0 SWAP1 SLOAD SWAP1 PUSH2 0x100 EXP SWAP1 DIV PUSH20 0xFFFFFFFFFFFFFFFFFFFFFFFFFFFFFFFFFFFFFFFF AND DUP2 JUMP JUMPDEST PUSH0 PUSH1 0x1 PUSH0 DUP4 PUSH20 0xFFFFFFFFFFFFFFFFFFFFFFFFFFFFFFFFFFFFFFFF AND PUSH20 0xFFFFFFFFFFFFFFFFFFFFFFFFFFFFFFFFFFFFFFFF AND DUP2 MSTORE PUSH1 0x20 ADD SWAP1 DUP2 MSTORE PUSH1 0x20 ADD PUSH0 KECCAK256 SLOAD SWAP1 POP SWAP2 SWAP1 POP JUMP JUMPDEST PUSH0 DUP2 SWAP1 POP SWAP2 SWAP1 POP JUMP JUMPDEST PUSH32 0x4E487B7100000000000000000000000000000000000000000000000000000000 PUSH0 MSTORE PUSH1 0x11 PUSH1 0x4 MSTORE PUSH1 0x24 PUSH0 REVERT JUMPDEST PUSH0 PUSH2 0x5D4 DUP3 PUSH2 0x594 JUMP JUMPDEST SWAP2 POP PUSH2 0x5DF DUP4 PUSH2 0x594 JUMP JUMPDEST SWAP3 POP DUP3 DUP3 ADD SWAP1 POP DUP1 DUP3 GT ISZERO PUSH2 0x5F7 JUMPI PUSH2 0x5F6 PUSH2 0x59D JUMP JUMPDEST JUMPDEST SWAP3 SWAP2 POP POP JUMP JUMPDEST PUSH2 0x606 DUP2 PUSH2 0x594 JUMP JUMPDEST DUP3 MSTORE POP POP JUMP JUMPDEST PUSH0 PUSH1 0x20 DUP3 ADD SWAP1 POP PUSH2 0x61F PUSH0 DUP4 ADD DUP5 PUSH2 0x5FD JUMP JUMPDEST SWAP3 SWAP2 POP POP JUMP JUMPDEST PUSH0 PUSH0 REVERT JUMPDEST PUSH2 0x632 DUP2 PUSH2 0x594 JUMP JUMPDEST DUP2 EQ PUSH2 0x63C JUMPI PUSH0 PUSH0 REVERT JUMPDEST POP JUMP JUMPDEST PUSH0 DUP2 CALLDATALOAD SWAP1 POP PUSH2 0x64D DUP2 PUSH2 0x629 JUMP JUMPDEST SWAP3 SWAP2 POP POP JUMP JUMPDEST PUSH0 PUSH1 0x20 DUP3 DUP5 SUB SLT ISZERO PUSH2 0x668 JUMPI PUSH2 0x667 PUSH2 0x625 JUMP JUMPDEST JUMPDEST PUSH0 PUSH2 0x675 DUP5 DUP3 DUP6 ADD PUSH2 0x63F JUMP JUMPDEST SWAP2 POP POP SWAP3 SWAP2 POP POP JUMP JUMPDEST PUSH0 PUSH20 0xFFFFFFFFFFFFFFFFFFFFFFFFFFFFFFFFFFFFFFFF DUP3 AND SWAP1 POP SWAP2 SWAP1 POP JUMP JUMPDEST PUSH0 PUSH2 0x6A7 DUP3 PUSH2 0x67E JUMP JUMPDEST SWAP1 POP SWAP2 SWAP1 POP JUMP JUMPDEST PUSH2 0x6B7 DUP2 PUSH2 0x69D JUMP JUMPDEST DUP2 EQ PUSH2 0x6C1 JUMPI PUSH0 PUSH0 REVERT JUMPDEST POP JUMP JUMPDEST PUSH0 DUP2 CALLDATALOAD SWAP1 POP PUSH2 0x6D2 DUP2 PUSH2 0x6AE JUMP JUMPDEST SWAP3 SWAP2 POP POP JUMP JUMPDEST PUSH0 PUSH0 PUSH0 PUSH1 0x60 DUP5 DUP7 SUB SLT ISZERO PUSH2 0x6EF JUMPI PUSH2 0x6EE PUSH2 0x625 JUMP JUMPDEST JUMPDEST PUSH0 PUSH2 0x6FC DUP7 DUP3 DUP8 ADD PUSH2 0x6C4 JUMP JUMPDEST SWAP4 POP POP PUSH1 0x20 PUSH2 0x70D DUP7 DUP3 DUP8 ADD PUSH2 0x6C4 JUMP JUMPDEST SWAP3 POP POP PUSH1 0x40 PUSH2 0x71E DUP7 DUP3 DUP8 ADD PUSH2 0x63F JUMP JUMPDEST SWAP2 POP POP SWAP3 POP SWAP3 POP SWAP3 JUMP JUMPDEST PUSH2 0x731 DUP2 PUSH2 0x69D JUMP JUMPDEST DUP3 MSTORE POP POP JUMP JUMPDEST PUSH0 PUSH1 0x20 DUP3 ADD SWAP1 POP PUSH2 0x74A PUSH0 DUP4 ADD DUP5 PUSH2 0x728 JUMP JUMPDEST SWAP3 SWAP2 POP POP JUMP JUMPDEST PUSH0 PUSH1 0x20 DUP3 DUP5 SUB SLT ISZERO PUSH2 0x765 JUMPI PUSH2 0x764 PUSH2 0x625 JUMP JUMPDEST JUMPDEST PUSH0 PUSH2 0x772 DUP5 DUP3 DUP6 ADD PUSH2 0x6C4 JUMP JUMPDEST SWAP2 POP POP SWAP3 SWAP2 POP POP JUMP JUMPDEST PUSH0 DUP3 DUP3 MSTORE PUSH1 0x20 DUP3 ADD SWAP1 POP SWAP3 SWAP2 POP POP JUMP JUMPDEST PUSH32 0x496E73756666696369656E742062616C616E6365000000000000000000000000 PUSH0 DUP3 ADD MSTORE POP JUMP JUMPDEST PUSH0 PUSH2 0x7BF PUSH1 0x14 DUP4 PUSH2 0x77B JUMP JUMPDEST SWAP2 POP PUSH2 0x7CA DUP3 PUSH2 0x78B JUMP JUMPDEST PUSH1 0x20 DUP3 ADD SWAP1 POP SWAP2 SWAP1 POP JUMP JUMPDEST PUSH0 PUSH1 0x20 DUP3 ADD SWAP1 POP DUP2 DUP2 SUB PUSH0 DUP4 ADD MSTORE PUSH2 0x7EC DUP2 PUSH2 0x7B3 JUMP JUMPDEST SWAP1 POP SWAP2 SWAP1 POP JUMP JUMPDEST PUSH0 PUSH2 0x7FD DUP3 PUSH2 0x594 JUMP JUMPDEST SWAP2 POP PUSH2 0x808 DUP4 PUSH2 0x594 JUMP JUMPDEST SWAP3 POP DUP3 DUP3 SUB SWAP1 POP DUP2 DUP2 GT ISZERO PUSH2 0x820 JUMPI PUSH2 0x81F PUSH2 0x59D JUMP JUMPDEST JUMPDEST SWAP3 SWAP2 POP POP JUMP JUMPDEST PUSH32 0x4F6E6C7920686F73742063616E20706572666F726D207468697320616374696F PUSH0 DUP3 ADD MSTORE PUSH32 0x6E00000000000000000000000000000000000000000000000000000000000000 PUSH1 0x20 DUP3 ADD MSTORE POP JUMP JUMPDEST PUSH0 PUSH2 0x880 PUSH1 0x21 DUP4 PUSH2 0x77B JUMP JUMPDEST SWAP2 POP PUSH2 0x88B DUP3 PUSH2 0x826 JUMP JUMPDEST PUSH1 0x40 DUP3 ADD SWAP1 POP SWAP2 SWAP1 POP JUMP JUMPDEST PUSH0 PUSH1 0x20 DUP3 ADD SWAP1 POP DUP2 DUP2 SUB PUSH0 DUP4 ADD MSTORE PUSH2 0x8AD DUP2 PUSH2 0x874 JUMP JUMPDEST SWAP1 POP SWAP2 SWAP1 POP JUMP JUMPDEST PUSH32 0x496E73756666696369656E7420757365722062616C616E636500000000000000 PUSH0 DUP3 ADD MSTORE POP JUMP JUMPDEST PUSH0 PUSH2 0x8E8 PUSH1 0x19 DUP4 PUSH2 0x77B JUMP JUMPDEST SWAP2 POP PUSH2 0x8F3 DUP3 PUSH2 0x8B4 JUMP JUMPDEST PUSH1 0x20 DUP3 ADD SWAP1 POP SWAP2 SWAP1 POP JUMP JUMPDEST PUSH0 PUSH1 0x20 DUP3 ADD SWAP1 POP DUP2 DUP2 SUB PUSH0 DUP4 ADD MSTORE PUSH2 0x915 DUP2 PUSH2 0x8DC JUMP JUMPDEST SWAP1 POP SWAP2 SWAP1 POP JUMP INVALID LOG2 PUSH5 0x6970667358 0x22 SLT KECCAK256 CREATE2 PUSH30 0x87D9C59FD6C54B1C021A666DA741FD3B50CDC7C4692543E36D938950C47A PUSH5 0x736F6C6343 STOP ADDMOD SAR STOP CALLER "
				},
				"gasEstimates": {
					"creation": {
						"codeDepositCost": "477200",
						"executionCost": "24773",
						"totalCost": "501973"
					},
					"external": {
						"getBalance(address)": "2873",
						"host()": "2529",
						"hostTransfer(address,address,uint256)": "infinite",
						"withdraw(uint256)": "infinite"
					}
				},
				"methodIdentifiers": {
					"getBalance(address)": "f8b2cb4f",
					"host()": "f437bc59",
					"hostTransfer(address,address,uint256)": "3b0bd37a",
					"withdraw(uint256)": "2e1a7d4d"
				}
			},
			"storageLayout": {
				"storage": [
					{
						"astId": 4,
						"contract": "H/hosted wallet.sol:HostedWallet",
						"label": "host",
						"offset": 0,
						"slot": "0",
						"type": "t_address"
					},
					{
						"astId": 8,
						"contract": "H/hosted wallet.sol:HostedWallet",
						"label": "balances",
						"offset": 0,
						"slot": "1",
						"type": "t_mapping(t_address,t_uint256)"
					}
				],
				"types": {
					"t_address": {
						"encoding": "inplace",
						"label": "address",
						"numberOfBytes": "20"
					},
					"t_mapping(t_address,t_uint256)": {
						"encoding": "mapping",
						"key": "t_address",
						"label": "mapping(address => uint256)",
						"numberOfBytes": "32",
						"value": "t_uint256"
					},
					"t_uint256": {
						"encoding": "inplace",
						"label": "uint256",
						"numberOfBytes": "32"
					}
				}
			},
			"userdoc": {
				"kind": "user",
				"methods": {
					"hostTransfer(address,address,uint256)": {
						"notice": "Host transfers funds on behalf of user"
					},
					"withdraw(uint256)": {
						"notice": "Withdraw by user (optional, or restricted)"
					}
				},
				"version": 1
			}
		}
	}
}