{
	"H/Virtual Hash Power for Simulated Mining.sol": {
		"VirtualHashPowerGame": {
			"abi": [
				{
					"anonymous": false,
					"inputs": [
						{
							"indexed": false,
							"internalType": "address",
							"name": "user",
							"type": "address"
						},
						{
							"indexed": false,
							"internalType": "uint256",
							"name": "reward",
							"type": "uint256"
						}
					],
					"name": "Mined",
					"type": "event"
				},
				{
					"inputs": [],
					"name": "mine",
					"outputs": [],
					"stateMutability": "nonpayable",
					"type": "function"
				},
				{
					"inputs": [],
					"name": "rewardPerHash",
					"outputs": [
						{
							"internalType": "uint256",
							"name": "",
							"type": "uint256"
						}
					],
					"stateMutability": "view",
					"type": "function"
				},
				{
					"inputs": [
						{
							"internalType": "uint256",
							"name": "amount",
							"type": "uint256"
						}
					],
					"name": "stakePower",
					"outputs": [],
					"stateMutability": "nonpayable",
					"type": "function"
				},
				{
					"inputs": [
						{
							"internalType": "address",
							"name": "",
							"type": "address"
						}
					],
					"name": "virtualPower",
					"outputs": [
						{
							"internalType": "uint256",
							"name": "",
							"type": "uint256"
						}
					],
					"stateMutability": "view",
					"type": "function"
				}
			],
			"devdoc": {
				"kind": "dev",
				"methods": {},
				"version": 1
			},
			"evm": {
				"assembly": "    /* \"H/Virtual Hash Power for Simulated Mining.sol\":0:486  contract VirtualHashPowerGame {... */\n  mstore(0x40, 0x80)\n  callvalue\n  dup1\n  iszero\n  tag_1\n  jumpi\n  revert(0x00, 0x00)\ntag_1:\n  pop\n  dataSize(sub_0)\n  dup1\n  dataOffset(sub_0)\n  0x00\n  codecopy\n  0x00\n  return\nstop\n\nsub_0: assembly {\n        /* \"H/Virtual Hash Power for Simulated Mining.sol\":0:486  contract VirtualHashPowerGame {... */\n      mstore(0x40, 0x80)\n      callvalue\n      dup1\n      iszero\n      tag_1\n      jumpi\n      revert(0x00, 0x00)\n    tag_1:\n      pop\n      jumpi(tag_2, lt(calldatasize, 0x04))\n      shr(0xe0, calldataload(0x00))\n      dup1\n      0x36e11772\n      eq\n      tag_3\n      jumpi\n      dup1\n      0x850fc40a\n      eq\n      tag_4\n      jumpi\n      dup1\n      0x99f4b251\n      eq\n      tag_5\n      jumpi\n      dup1\n      0xe7b63c3c\n      eq\n      tag_6\n      jumpi\n    tag_2:\n      revert(0x00, 0x00)\n        /* \"H/Virtual Hash Power for Simulated Mining.sol\":89:133  uint256 public constant rewardPerHash = 1e16 */\n    tag_3:\n      tag_7\n      tag_8\n      jump\t// in\n    tag_7:\n      mload(0x40)\n      tag_9\n      swap2\n      swap1\n      tag_10\n      jump\t// in\n    tag_9:\n      mload(0x40)\n      dup1\n      swap2\n      sub\n      swap1\n      return\n        /* \"H/Virtual Hash Power for Simulated Mining.sol\":36:83  mapping(address => uint256) public virtualPower */\n    tag_4:\n      tag_11\n      0x04\n      dup1\n      calldatasize\n      sub\n      dup2\n      add\n      swap1\n      tag_12\n      swap2\n      swap1\n      tag_13\n      jump\t// in\n    tag_12:\n      tag_14\n      jump\t// in\n    tag_11:\n      mload(0x40)\n      tag_15\n      swap2\n      swap1\n      tag_10\n      jump\t// in\n    tag_15:\n      mload(0x40)\n      dup1\n      swap2\n      sub\n      swap1\n      return\n        /* \"H/Virtual Hash Power for Simulated Mining.sol\":304:484  function mine() external {... */\n    tag_5:\n      tag_16\n      tag_17\n      jump\t// in\n    tag_16:\n      stop\n        /* \"H/Virtual Hash Power for Simulated Mining.sol\":202:298  function stakePower(uint256 amount) external {... */\n    tag_6:\n      tag_18\n      0x04\n      dup1\n      calldatasize\n      sub\n      dup2\n      add\n      swap1\n      tag_19\n      swap2\n      swap1\n      tag_20\n      jump\t// in\n    tag_19:\n      tag_21\n      jump\t// in\n    tag_18:\n      stop\n        /* \"H/Virtual Hash Power for Simulated Mining.sol\":89:133  uint256 public constant rewardPerHash = 1e16 */\n    tag_8:\n        /* \"H/Virtual Hash Power for Simulated Mining.sol\":129:133  1e16 */\n      0x2386f26fc10000\n        /* \"H/Virtual Hash Power for Simulated Mining.sol\":89:133  uint256 public constant rewardPerHash = 1e16 */\n      dup2\n      jump\t// out\n        /* \"H/Virtual Hash Power for Simulated Mining.sol\":36:83  mapping(address => uint256) public virtualPower */\n    tag_14:\n      mstore(0x20, 0x00)\n      dup1\n      0x00\n      mstore\n      keccak256(0x00, 0x40)\n      0x00\n      swap2\n      pop\n      swap1\n      pop\n      sload\n      dup2\n      jump\t// out\n        /* \"H/Virtual Hash Power for Simulated Mining.sol\":304:484  function mine() external {... */\n    tag_17:\n        /* \"H/Virtual Hash Power for Simulated Mining.sol\":339:353  uint256 reward */\n      0x00\n        /* \"H/Virtual Hash Power for Simulated Mining.sol\":129:133  1e16 */\n      0x2386f26fc10000\n        /* \"H/Virtual Hash Power for Simulated Mining.sol\":356:368  virtualPower */\n      0x00\n        /* \"H/Virtual Hash Power for Simulated Mining.sol\":356:380  virtualPower[msg.sender] */\n      0x00\n        /* \"H/Virtual Hash Power for Simulated Mining.sol\":369:379  msg.sender */\n      caller\n        /* \"H/Virtual Hash Power for Simulated Mining.sol\":356:380  virtualPower[msg.sender] */\n      0xffffffffffffffffffffffffffffffffffffffff\n      and\n      0xffffffffffffffffffffffffffffffffffffffff\n      and\n      dup2\n      mstore\n      0x20\n      add\n      swap1\n      dup2\n      mstore\n      0x20\n      add\n      0x00\n      keccak256\n      sload\n        /* \"H/Virtual Hash Power for Simulated Mining.sol\":356:396  virtualPower[msg.sender] * rewardPerHash */\n      tag_23\n      swap2\n      swap1\n      tag_24\n      jump\t// in\n    tag_23:\n        /* \"H/Virtual Hash Power for Simulated Mining.sol\":339:396  uint256 reward = virtualPower[msg.sender] * rewardPerHash */\n      swap1\n      pop\n        /* \"H/Virtual Hash Power for Simulated Mining.sol\":423:424  0 */\n      0x00\n        /* \"H/Virtual Hash Power for Simulated Mining.sol\":414:420  reward */\n      dup2\n        /* \"H/Virtual Hash Power for Simulated Mining.sol\":414:424  reward > 0 */\n      gt\n        /* \"H/Virtual Hash Power for Simulated Mining.sol\":406:437  require(reward > 0, \"No power\") */\n      tag_25\n      jumpi\n      mload(0x40)\n      0x08c379a000000000000000000000000000000000000000000000000000000000\n      dup2\n      mstore\n      0x04\n      add\n      tag_26\n      swap1\n      tag_27\n      jump\t// in\n    tag_26:\n      mload(0x40)\n      dup1\n      swap2\n      sub\n      swap1\n      revert\n    tag_25:\n        /* \"H/Virtual Hash Power for Simulated Mining.sol\":452:477  Mined(msg.sender, reward) */\n      0x3ad10ba9777a3bc21180a465e5459861d07cbdb271af9a0f10c993b365b760f8\n        /* \"H/Virtual Hash Power for Simulated Mining.sol\":458:468  msg.sender */\n      caller\n        /* \"H/Virtual Hash Power for Simulated Mining.sol\":470:476  reward */\n      dup3\n        /* \"H/Virtual Hash Power for Simulated Mining.sol\":452:477  Mined(msg.sender, reward) */\n      mload(0x40)\n      tag_28\n      swap3\n      swap2\n      swap1\n      tag_29\n      jump\t// in\n    tag_28:\n      mload(0x40)\n      dup1\n      swap2\n      sub\n      swap1\n      log1\n        /* \"H/Virtual Hash Power for Simulated Mining.sol\":329:484  {... */\n      pop\n        /* \"H/Virtual Hash Power for Simulated Mining.sol\":304:484  function mine() external {... */\n      jump\t// out\n        /* \"H/Virtual Hash Power for Simulated Mining.sol\":202:298  function stakePower(uint256 amount) external {... */\n    tag_21:\n        /* \"H/Virtual Hash Power for Simulated Mining.sol\":285:291  amount */\n      dup1\n        /* \"H/Virtual Hash Power for Simulated Mining.sol\":257:269  virtualPower */\n      0x00\n        /* \"H/Virtual Hash Power for Simulated Mining.sol\":257:281  virtualPower[msg.sender] */\n      0x00\n        /* \"H/Virtual Hash Power for Simulated Mining.sol\":270:280  msg.sender */\n      caller\n        /* \"H/Virtual Hash Power for Simulated Mining.sol\":257:281  virtualPower[msg.sender] */\n      0xffffffffffffffffffffffffffffffffffffffff\n      and\n      0xffffffffffffffffffffffffffffffffffffffff\n      and\n      dup2\n      mstore\n      0x20\n      add\n      swap1\n      dup2\n      mstore\n      0x20\n      add\n      0x00\n      keccak256\n      0x00\n        /* \"H/Virtual Hash Power for Simulated Mining.sol\":257:291  virtualPower[msg.sender] += amount */\n      dup3\n      dup3\n      sload\n      tag_31\n      swap2\n      swap1\n      tag_32\n      jump\t// in\n    tag_31:\n      swap3\n      pop\n      pop\n      dup2\n      swap1\n      sstore\n      pop\n        /* \"H/Virtual Hash Power for Simulated Mining.sol\":202:298  function stakePower(uint256 amount) external {... */\n      pop\n      jump\t// out\n        /* \"#utility.yul\":7:84   */\n    tag_33:\n        /* \"#utility.yul\":44:51   */\n      0x00\n        /* \"#utility.yul\":73:78   */\n      dup2\n        /* \"#utility.yul\":62:78   */\n      swap1\n      pop\n        /* \"#utility.yul\":7:84   */\n      swap2\n      swap1\n      pop\n      jump\t// out\n        /* \"#utility.yul\":90:208   */\n    tag_34:\n        /* \"#utility.yul\":177:201   */\n      tag_52\n        /* \"#utility.yul\":195:200   */\n      dup2\n        /* \"#utility.yul\":177:201   */\n      tag_33\n      jump\t// in\n    tag_52:\n        /* \"#utility.yul\":172:175   */\n      dup3\n        /* \"#utility.yul\":165:202   */\n      mstore\n        /* \"#utility.yul\":90:208   */\n      pop\n      pop\n      jump\t// out\n        /* \"#utility.yul\":214:436   */\n    tag_10:\n        /* \"#utility.yul\":307:311   */\n      0x00\n        /* \"#utility.yul\":345:347   */\n      0x20\n        /* \"#utility.yul\":334:343   */\n      dup3\n        /* \"#utility.yul\":330:348   */\n      add\n        /* \"#utility.yul\":322:348   */\n      swap1\n      pop\n        /* \"#utility.yul\":358:429   */\n      tag_54\n        /* \"#utility.yul\":426:427   */\n      0x00\n        /* \"#utility.yul\":415:424   */\n      dup4\n        /* \"#utility.yul\":411:428   */\n      add\n        /* \"#utility.yul\":402:408   */\n      dup5\n        /* \"#utility.yul\":358:429   */\n      tag_34\n      jump\t// in\n    tag_54:\n        /* \"#utility.yul\":214:436   */\n      swap3\n      swap2\n      pop\n      pop\n      jump\t// out\n        /* \"#utility.yul\":523:640   */\n    tag_36:\n        /* \"#utility.yul\":632:633   */\n      0x00\n        /* \"#utility.yul\":629:630   */\n      0x00\n        /* \"#utility.yul\":622:634   */\n      revert\n        /* \"#utility.yul\":769:895   */\n    tag_38:\n        /* \"#utility.yul\":806:813   */\n      0x00\n        /* \"#utility.yul\":846:888   */\n      0xffffffffffffffffffffffffffffffffffffffff\n        /* \"#utility.yul\":839:844   */\n      dup3\n        /* \"#utility.yul\":835:889   */\n      and\n        /* \"#utility.yul\":824:889   */\n      swap1\n      pop\n        /* \"#utility.yul\":769:895   */\n      swap2\n      swap1\n      pop\n      jump\t// out\n        /* \"#utility.yul\":901:997   */\n    tag_39:\n        /* \"#utility.yul\":938:945   */\n      0x00\n        /* \"#utility.yul\":967:991   */\n      tag_60\n        /* \"#utility.yul\":985:990   */\n      dup3\n        /* \"#utility.yul\":967:991   */\n      tag_38\n      jump\t// in\n    tag_60:\n        /* \"#utility.yul\":956:991   */\n      swap1\n      pop\n        /* \"#utility.yul\":901:997   */\n      swap2\n      swap1\n      pop\n      jump\t// out\n        /* \"#utility.yul\":1003:1125   */\n    tag_40:\n        /* \"#utility.yul\":1076:1100   */\n      tag_62\n        /* \"#utility.yul\":1094:1099   */\n      dup2\n        /* \"#utility.yul\":1076:1100   */\n      tag_39\n      jump\t// in\n    tag_62:\n        /* \"#utility.yul\":1069:1074   */\n      dup2\n        /* \"#utility.yul\":1066:1101   */\n      eq\n        /* \"#utility.yul\":1056:1119   */\n      tag_63\n      jumpi\n        /* \"#utility.yul\":1115:1116   */\n      0x00\n        /* \"#utility.yul\":1112:1113   */\n      0x00\n        /* \"#utility.yul\":1105:1117   */\n      revert\n        /* \"#utility.yul\":1056:1119   */\n    tag_63:\n        /* \"#utility.yul\":1003:1125   */\n      pop\n      jump\t// out\n        /* \"#utility.yul\":1131:1270   */\n    tag_41:\n        /* \"#utility.yul\":1177:1182   */\n      0x00\n        /* \"#utility.yul\":1215:1221   */\n      dup2\n        /* \"#utility.yul\":1202:1222   */\n      calldataload\n        /* \"#utility.yul\":1193:1222   */\n      swap1\n      pop\n        /* \"#utility.yul\":1231:1264   */\n      tag_65\n        /* \"#utility.yul\":1258:1263   */\n      dup2\n        /* \"#utility.yul\":1231:1264   */\n      tag_40\n      jump\t// in\n    tag_65:\n        /* \"#utility.yul\":1131:1270   */\n      swap3\n      swap2\n      pop\n      pop\n      jump\t// out\n        /* \"#utility.yul\":1276:1605   */\n    tag_13:\n        /* \"#utility.yul\":1335:1341   */\n      0x00\n        /* \"#utility.yul\":1384:1386   */\n      0x20\n        /* \"#utility.yul\":1372:1381   */\n      dup3\n        /* \"#utility.yul\":1363:1370   */\n      dup5\n        /* \"#utility.yul\":1359:1382   */\n      sub\n        /* \"#utility.yul\":1355:1387   */\n      slt\n        /* \"#utility.yul\":1352:1471   */\n      iszero\n      tag_67\n      jumpi\n        /* \"#utility.yul\":1390:1469   */\n      tag_68\n      tag_36\n      jump\t// in\n    tag_68:\n        /* \"#utility.yul\":1352:1471   */\n    tag_67:\n        /* \"#utility.yul\":1510:1511   */\n      0x00\n        /* \"#utility.yul\":1535:1588   */\n      tag_69\n        /* \"#utility.yul\":1580:1587   */\n      dup5\n        /* \"#utility.yul\":1571:1577   */\n      dup3\n        /* \"#utility.yul\":1560:1569   */\n      dup6\n        /* \"#utility.yul\":1556:1578   */\n      add\n        /* \"#utility.yul\":1535:1588   */\n      tag_41\n      jump\t// in\n    tag_69:\n        /* \"#utility.yul\":1525:1588   */\n      swap2\n      pop\n        /* \"#utility.yul\":1481:1598   */\n      pop\n        /* \"#utility.yul\":1276:1605   */\n      swap3\n      swap2\n      pop\n      pop\n      jump\t// out\n        /* \"#utility.yul\":1611:1733   */\n    tag_42:\n        /* \"#utility.yul\":1684:1708   */\n      tag_71\n        /* \"#utility.yul\":1702:1707   */\n      dup2\n        /* \"#utility.yul\":1684:1708   */\n      tag_33\n      jump\t// in\n    tag_71:\n        /* \"#utility.yul\":1677:1682   */\n      dup2\n        /* \"#utility.yul\":1674:1709   */\n      eq\n        /* \"#utility.yul\":1664:1727   */\n      tag_72\n      jumpi\n        /* \"#utility.yul\":1723:1724   */\n      0x00\n        /* \"#utility.yul\":1720:1721   */\n      0x00\n        /* \"#utility.yul\":1713:1725   */\n      revert\n        /* \"#utility.yul\":1664:1727   */\n    tag_72:\n        /* \"#utility.yul\":1611:1733   */\n      pop\n      jump\t// out\n        /* \"#utility.yul\":1739:1878   */\n    tag_43:\n        /* \"#utility.yul\":1785:1790   */\n      0x00\n        /* \"#utility.yul\":1823:1829   */\n      dup2\n        /* \"#utility.yul\":1810:1830   */\n      calldataload\n        /* \"#utility.yul\":1801:1830   */\n      swap1\n      pop\n        /* \"#utility.yul\":1839:1872   */\n      tag_74\n        /* \"#utility.yul\":1866:1871   */\n      dup2\n        /* \"#utility.yul\":1839:1872   */\n      tag_42\n      jump\t// in\n    tag_74:\n        /* \"#utility.yul\":1739:1878   */\n      swap3\n      swap2\n      pop\n      pop\n      jump\t// out\n        /* \"#utility.yul\":1884:2213   */\n    tag_20:\n        /* \"#utility.yul\":1943:1949   */\n      0x00\n        /* \"#utility.yul\":1992:1994   */\n      0x20\n        /* \"#utility.yul\":1980:1989   */\n      dup3\n        /* \"#utility.yul\":1971:1978   */\n      dup5\n        /* \"#utility.yul\":1967:1990   */\n      sub\n        /* \"#utility.yul\":1963:1995   */\n      slt\n        /* \"#utility.yul\":1960:2079   */\n      iszero\n      tag_76\n      jumpi\n        /* \"#utility.yul\":1998:2077   */\n      tag_77\n      tag_36\n      jump\t// in\n    tag_77:\n        /* \"#utility.yul\":1960:2079   */\n    tag_76:\n        /* \"#utility.yul\":2118:2119   */\n      0x00\n        /* \"#utility.yul\":2143:2196   */\n      tag_78\n        /* \"#utility.yul\":2188:2195   */\n      dup5\n        /* \"#utility.yul\":2179:2185   */\n      dup3\n        /* \"#utility.yul\":2168:2177   */\n      dup6\n        /* \"#utility.yul\":2164:2186   */\n      add\n        /* \"#utility.yul\":2143:2196   */\n      tag_43\n      jump\t// in\n    tag_78:\n        /* \"#utility.yul\":2133:2196   */\n      swap2\n      pop\n        /* \"#utility.yul\":2089:2206   */\n      pop\n        /* \"#utility.yul\":1884:2213   */\n      swap3\n      swap2\n      pop\n      pop\n      jump\t// out\n        /* \"#utility.yul\":2219:2399   */\n    tag_44:\n        /* \"#utility.yul\":2267:2344   */\n      0x4e487b7100000000000000000000000000000000000000000000000000000000\n        /* \"#utility.yul\":2264:2265   */\n      0x00\n        /* \"#utility.yul\":2257:2345   */\n      mstore\n        /* \"#utility.yul\":2364:2368   */\n      0x11\n        /* \"#utility.yul\":2361:2362   */\n      0x04\n        /* \"#utility.yul\":2354:2369   */\n      mstore\n        /* \"#utility.yul\":2388:2392   */\n      0x24\n        /* \"#utility.yul\":2385:2386   */\n      0x00\n        /* \"#utility.yul\":2378:2393   */\n      revert\n        /* \"#utility.yul\":2405:2815   */\n    tag_24:\n        /* \"#utility.yul\":2445:2452   */\n      0x00\n        /* \"#utility.yul\":2468:2488   */\n      tag_81\n        /* \"#utility.yul\":2486:2487   */\n      dup3\n        /* \"#utility.yul\":2468:2488   */\n      tag_33\n      jump\t// in\n    tag_81:\n        /* \"#utility.yul\":2463:2488   */\n      swap2\n      pop\n        /* \"#utility.yul\":2502:2522   */\n      tag_82\n        /* \"#utility.yul\":2520:2521   */\n      dup4\n        /* \"#utility.yul\":2502:2522   */\n      tag_33\n      jump\t// in\n    tag_82:\n        /* \"#utility.yul\":2497:2522   */\n      swap3\n      pop\n        /* \"#utility.yul\":2557:2558   */\n      dup3\n        /* \"#utility.yul\":2554:2555   */\n      dup3\n        /* \"#utility.yul\":2550:2559   */\n      mul\n        /* \"#utility.yul\":2579:2609   */\n      tag_83\n        /* \"#utility.yul\":2597:2608   */\n      dup2\n        /* \"#utility.yul\":2579:2609   */\n      tag_33\n      jump\t// in\n    tag_83:\n        /* \"#utility.yul\":2568:2609   */\n      swap2\n      pop\n        /* \"#utility.yul\":2758:2759   */\n      dup3\n        /* \"#utility.yul\":2749:2756   */\n      dup3\n        /* \"#utility.yul\":2745:2760   */\n      div\n        /* \"#utility.yul\":2742:2743   */\n      dup5\n        /* \"#utility.yul\":2739:2761   */\n      eq\n        /* \"#utility.yul\":2719:2720   */\n      dup4\n        /* \"#utility.yul\":2712:2721   */\n      iszero\n        /* \"#utility.yul\":2692:2775   */\n      or\n        /* \"#utility.yul\":2669:2808   */\n      tag_84\n      jumpi\n        /* \"#utility.yul\":2788:2806   */\n      tag_85\n      tag_44\n      jump\t// in\n    tag_85:\n        /* \"#utility.yul\":2669:2808   */\n    tag_84:\n        /* \"#utility.yul\":2453:2815   */\n      pop\n        /* \"#utility.yul\":2405:2815   */\n      swap3\n      swap2\n      pop\n      pop\n      jump\t// out\n        /* \"#utility.yul\":2821:2990   */\n    tag_45:\n        /* \"#utility.yul\":2905:2916   */\n      0x00\n        /* \"#utility.yul\":2939:2945   */\n      dup3\n        /* \"#utility.yul\":2934:2937   */\n      dup3\n        /* \"#utility.yul\":2927:2946   */\n      mstore\n        /* \"#utility.yul\":2979:2983   */\n      0x20\n        /* \"#utility.yul\":2974:2977   */\n      dup3\n        /* \"#utility.yul\":2970:2984   */\n      add\n        /* \"#utility.yul\":2955:2984   */\n      swap1\n      pop\n        /* \"#utility.yul\":2821:2990   */\n      swap3\n      swap2\n      pop\n      pop\n      jump\t// out\n        /* \"#utility.yul\":2996:3154   */\n    tag_46:\n        /* \"#utility.yul\":3136:3146   */\n      0x4e6f20706f776572000000000000000000000000000000000000000000000000\n        /* \"#utility.yul\":3132:3133   */\n      0x00\n        /* \"#utility.yul\":3124:3130   */\n      dup3\n        /* \"#utility.yul\":3120:3134   */\n      add\n        /* \"#utility.yul\":3113:3147   */\n      mstore\n        /* \"#utility.yul\":2996:3154   */\n      pop\n      jump\t// out\n        /* \"#utility.yul\":3160:3525   */\n    tag_47:\n        /* \"#utility.yul\":3302:3305   */\n      0x00\n        /* \"#utility.yul\":3323:3389   */\n      tag_89\n        /* \"#utility.yul\":3387:3388   */\n      0x08\n        /* \"#utility.yul\":3382:3385   */\n      dup4\n        /* \"#utility.yul\":3323:3389   */\n      tag_45\n      jump\t// in\n    tag_89:\n        /* \"#utility.yul\":3316:3389   */\n      swap2\n      pop\n        /* \"#utility.yul\":3398:3491   */\n      tag_90\n        /* \"#utility.yul\":3487:3490   */\n      dup3\n        /* \"#utility.yul\":3398:3491   */\n      tag_46\n      jump\t// in\n    tag_90:\n        /* \"#utility.yul\":3516:3518   */\n      0x20\n        /* \"#utility.yul\":3511:3514   */\n      dup3\n        /* \"#utility.yul\":3507:3519   */\n      add\n        /* \"#utility.yul\":3500:3519   */\n      swap1\n      pop\n        /* \"#utility.yul\":3160:3525   */\n      swap2\n      swap1\n      pop\n      jump\t// out\n        /* \"#utility.yul\":3531:3950   */\n    tag_27:\n        /* \"#utility.yul\":3697:3701   */\n      0x00\n        /* \"#utility.yul\":3735:3737   */\n      0x20\n        /* \"#utility.yul\":3724:3733   */\n      dup3\n        /* \"#utility.yul\":3720:3738   */\n      add\n        /* \"#utility.yul\":3712:3738   */\n      swap1\n      pop\n        /* \"#utility.yul\":3784:3793   */\n      dup2\n        /* \"#utility.yul\":3778:3782   */\n      dup2\n        /* \"#utility.yul\":3774:3794   */\n      sub\n        /* \"#utility.yul\":3770:3771   */\n      0x00\n        /* \"#utility.yul\":3759:3768   */\n      dup4\n        /* \"#utility.yul\":3755:3772   */\n      add\n        /* \"#utility.yul\":3748:3795   */\n      mstore\n        /* \"#utility.yul\":3812:3943   */\n      tag_92\n        /* \"#utility.yul\":3938:3942   */\n      dup2\n        /* \"#utility.yul\":3812:3943   */\n      tag_47\n      jump\t// in\n    tag_92:\n        /* \"#utility.yul\":3804:3943   */\n      swap1\n      pop\n        /* \"#utility.yul\":3531:3950   */\n      swap2\n      swap1\n      pop\n      jump\t// out\n        /* \"#utility.yul\":3956:4074   */\n    tag_48:\n        /* \"#utility.yul\":4043:4067   */\n      tag_94\n        /* \"#utility.yul\":4061:4066   */\n      dup2\n        /* \"#utility.yul\":4043:4067   */\n      tag_39\n      jump\t// in\n    tag_94:\n        /* \"#utility.yul\":4038:4041   */\n      dup3\n        /* \"#utility.yul\":4031:4068   */\n      mstore\n        /* \"#utility.yul\":3956:4074   */\n      pop\n      pop\n      jump\t// out\n        /* \"#utility.yul\":4080:4412   */\n    tag_29:\n        /* \"#utility.yul\":4201:4205   */\n      0x00\n        /* \"#utility.yul\":4239:4241   */\n      0x40\n        /* \"#utility.yul\":4228:4237   */\n      dup3\n        /* \"#utility.yul\":4224:4242   */\n      add\n        /* \"#utility.yul\":4216:4242   */\n      swap1\n      pop\n        /* \"#utility.yul\":4252:4323   */\n      tag_96\n        /* \"#utility.yul\":4320:4321   */\n      0x00\n        /* \"#utility.yul\":4309:4318   */\n      dup4\n        /* \"#utility.yul\":4305:4322   */\n      add\n        /* \"#utility.yul\":4296:4302   */\n      dup6\n        /* \"#utility.yul\":4252:4323   */\n      tag_48\n      jump\t// in\n    tag_96:\n        /* \"#utility.yul\":4333:4405   */\n      tag_97\n        /* \"#utility.yul\":4401:4403   */\n      0x20\n        /* \"#utility.yul\":4390:4399   */\n      dup4\n        /* \"#utility.yul\":4386:4404   */\n      add\n        /* \"#utility.yul\":4377:4383   */\n      dup5\n        /* \"#utility.yul\":4333:4405   */\n      tag_34\n      jump\t// in\n    tag_97:\n        /* \"#utility.yul\":4080:4412   */\n      swap4\n      swap3\n      pop\n      pop\n      pop\n      jump\t// out\n        /* \"#utility.yul\":4418:4609   */\n    tag_32:\n        /* \"#utility.yul\":4458:4461   */\n      0x00\n        /* \"#utility.yul\":4477:4497   */\n      tag_99\n        /* \"#utility.yul\":4495:4496   */\n      dup3\n        /* \"#utility.yul\":4477:4497   */\n      tag_33\n      jump\t// in\n    tag_99:\n        /* \"#utility.yul\":4472:4497   */\n      swap2\n      pop\n        /* \"#utility.yul\":4511:4531   */\n      tag_100\n        /* \"#utility.yul\":4529:4530   */\n      dup4\n        /* \"#utility.yul\":4511:4531   */\n      tag_33\n      jump\t// in\n    tag_100:\n        /* \"#utility.yul\":4506:4531   */\n      swap3\n      pop\n        /* \"#utility.yul\":4554:4555   */\n      dup3\n        /* \"#utility.yul\":4551:4552   */\n      dup3\n        /* \"#utility.yul\":4547:4556   */\n      add\n        /* \"#utility.yul\":4540:4556   */\n      swap1\n      pop\n        /* \"#utility.yul\":4575:4578   */\n      dup1\n        /* \"#utility.yul\":4572:4573   */\n      dup3\n        /* \"#utility.yul\":4569:4579   */\n      gt\n        /* \"#utility.yul\":4566:4602   */\n      iszero\n      tag_101\n      jumpi\n        /* \"#utility.yul\":4582:4600   */\n      tag_102\n      tag_44\n      jump\t// in\n    tag_102:\n        /* \"#utility.yul\":4566:4602   */\n    tag_101:\n        /* \"#utility.yul\":4418:4609   */\n      swap3\n      swap2\n      pop\n      pop\n      jump\t// out\n\n    auxdata: 0xa2646970667358221220cc19a893e0fe01005a2c652040ccd739fe6cd1ed65757acc17e8d772ff20ebb164736f6c634300081d0033\n}\n",
				"bytecode": {
					"linkReferences": {},
					"object": "6080604052348015600e575f5ffd5b5061049a8061001c5f395ff3fe608060405234801561000f575f5ffd5b506004361061004a575f3560e01c806336e117721461004e578063850fc40a1461006c57806399f4b2511461009c578063e7b63c3c146100a6575b5f5ffd5b6100566100c2565b604051610063919061021e565b60405180910390f35b61008660048036038101906100819190610295565b6100cd565b604051610093919061021e565b60405180910390f35b6100a46100e1565b005b6100c060048036038101906100bb91906102ea565b6101b1565b005b662386f26fc1000081565b5f602052805f5260405f205f915090505481565b5f662386f26fc100005f5f3373ffffffffffffffffffffffffffffffffffffffff1673ffffffffffffffffffffffffffffffffffffffff1681526020019081526020015f20546101319190610342565b90505f8111610175576040517f08c379a000000000000000000000000000000000000000000000000000000000815260040161016c906103dd565b60405180910390fd5b7f3ad10ba9777a3bc21180a465e5459861d07cbdb271af9a0f10c993b365b760f833826040516101a692919061040a565b60405180910390a150565b805f5f3373ffffffffffffffffffffffffffffffffffffffff1673ffffffffffffffffffffffffffffffffffffffff1681526020019081526020015f205f8282546101fc9190610431565b9250508190555050565b5f819050919050565b61021881610206565b82525050565b5f6020820190506102315f83018461020f565b92915050565b5f5ffd5b5f73ffffffffffffffffffffffffffffffffffffffff82169050919050565b5f6102648261023b565b9050919050565b6102748161025a565b811461027e575f5ffd5b50565b5f8135905061028f8161026b565b92915050565b5f602082840312156102aa576102a9610237565b5b5f6102b784828501610281565b91505092915050565b6102c981610206565b81146102d3575f5ffd5b50565b5f813590506102e4816102c0565b92915050565b5f602082840312156102ff576102fe610237565b5b5f61030c848285016102d6565b91505092915050565b7f4e487b71000000000000000000000000000000000000000000000000000000005f52601160045260245ffd5b5f61034c82610206565b915061035783610206565b925082820261036581610206565b9150828204841483151761037c5761037b610315565b5b5092915050565b5f82825260208201905092915050565b7f4e6f20706f7765720000000000000000000000000000000000000000000000005f82015250565b5f6103c7600883610383565b91506103d282610393565b602082019050919050565b5f6020820190508181035f8301526103f4816103bb565b9050919050565b6104048161025a565b82525050565b5f60408201905061041d5f8301856103fb565b61042a602083018461020f565b9392505050565b5f61043b82610206565b915061044683610206565b925082820190508082111561045e5761045d610315565b5b9291505056fea2646970667358221220cc19a893e0fe01005a2c652040ccd739fe6cd1ed65757acc17e8d772ff20ebb164736f6c634300081d0033",
					"opcodes": "PUSH1 0x80 PUSH1 0x40 MSTORE CALLVALUE DUP1 ISZERO PUSH1 0xE JUMPI PUSH0 PUSH0 REVERT JUMPDEST POP PUSH2 0x49A DUP1 PUSH2 0x1C PUSH0 CODECOPY PUSH0 RETURN INVALID PUSH1 0x80 PUSH1 0x40 MSTORE CALLVALUE DUP1 ISZERO PUSH2 0xF JUMPI PUSH0 PUSH0 REVERT JUMPDEST POP PUSH1 0x4 CALLDATASIZE LT PUSH2 0x4A JUMPI PUSH0 CALLDATALOAD PUSH1 0xE0 SHR DUP1 PUSH4 0x36E11772 EQ PUSH2 0x4E JUMPI DUP1 PUSH4 0x850FC40A EQ PUSH2 0x6C JUMPI DUP1 PUSH4 0x99F4B251 EQ PUSH2 0x9C JUMPI DUP1 PUSH4 0xE7B63C3C EQ PUSH2 0xA6 JUMPI JUMPDEST PUSH0 PUSH0 REVERT JUMPDEST PUSH2 0x56 PUSH2 0xC2 JUMP JUMPDEST PUSH1 0x40 MLOAD PUSH2 0x63 SWAP2 SWAP1 PUSH2 0x21E JUMP JUMPDEST PUSH1 0x40 MLOAD DUP1 SWAP2 SUB SWAP1 RETURN JUMPDEST PUSH2 0x86 PUSH1 0x4 DUP1 CALLDATASIZE SUB DUP2 ADD SWAP1 PUSH2 0x81 SWAP2 SWAP1 PUSH2 0x295 JUMP JUMPDEST PUSH2 0xCD JUMP JUMPDEST PUSH1 0x40 MLOAD PUSH2 0x93 SWAP2 SWAP1 PUSH2 0x21E JUMP JUMPDEST PUSH1 0x40 MLOAD DUP1 SWAP2 SUB SWAP1 RETURN JUMPDEST PUSH2 0xA4 PUSH2 0xE1 JUMP JUMPDEST STOP JUMPDEST PUSH2 0xC0 PUSH1 0x4 DUP1 CALLDATASIZE SUB DUP2 ADD SWAP1 PUSH2 0xBB SWAP2 SWAP1 PUSH2 0x2EA JUMP JUMPDEST PUSH2 0x1B1 JUMP JUMPDEST STOP JUMPDEST PUSH7 0x2386F26FC10000 DUP2 JUMP JUMPDEST PUSH0 PUSH1 0x20 MSTORE DUP1 PUSH0 MSTORE PUSH1 0x40 PUSH0 KECCAK256 PUSH0 SWAP2 POP SWAP1 POP SLOAD DUP2 JUMP JUMPDEST PUSH0 PUSH7 0x2386F26FC10000 PUSH0 PUSH0 CALLER PUSH20 0xFFFFFFFFFFFFFFFFFFFFFFFFFFFFFFFFFFFFFFFF AND PUSH20 0xFFFFFFFFFFFFFFFFFFFFFFFFFFFFFFFFFFFFFFFF AND DUP2 MSTORE PUSH1 0x20 ADD SWAP1 DUP2 MSTORE PUSH1 0x20 ADD PUSH0 KECCAK256 SLOAD PUSH2 0x131 SWAP2 SWAP1 PUSH2 0x342 JUMP JUMPDEST SWAP1 POP PUSH0 DUP2 GT PUSH2 0x175 JUMPI PUSH1 0x40 MLOAD PUSH32 0x8C379A000000000000000000000000000000000000000000000000000000000 DUP2 MSTORE PUSH1 0x4 ADD PUSH2 0x16C SWAP1 PUSH2 0x3DD JUMP JUMPDEST PUSH1 0x40 MLOAD DUP1 SWAP2 SUB SWAP1 REVERT JUMPDEST PUSH32 0x3AD10BA9777A3BC21180A465E5459861D07CBDB271AF9A0F10C993B365B760F8 CALLER DUP3 PUSH1 0x40 MLOAD PUSH2 0x1A6 SWAP3 SWAP2 SWAP1 PUSH2 0x40A JUMP JUMPDEST PUSH1 0x40 MLOAD DUP1 SWAP2 SUB SWAP1 LOG1 POP JUMP JUMPDEST DUP1 PUSH0 PUSH0 CALLER PUSH20 0xFFFFFFFFFFFFFFFFFFFFFFFFFFFFFFFFFFFFFFFF AND PUSH20 0xFFFFFFFFFFFFFFFFFFFFFFFFFFFFFFFFFFFFFFFF AND DUP2 MSTORE PUSH1 0x20 ADD SWAP1 DUP2 MSTORE PUSH1 0x20 ADD PUSH0 KECCAK256 PUSH0 DUP3 DUP3 SLOAD PUSH2 0x1FC SWAP2 SWAP1 PUSH2 0x431 JUMP JUMPDEST SWAP3 POP POP DUP2 SWAP1 SSTORE POP POP JUMP JUMPDEST PUSH0 DUP2 SWAP1 POP SWAP2 SWAP1 POP JUMP JUMPDEST PUSH2 0x218 DUP2 PUSH2 0x206 JUMP JUMPDEST DUP3 MSTORE POP POP JUMP JUMPDEST PUSH0 PUSH1 0x20 DUP3 ADD SWAP1 POP PUSH2 0x231 PUSH0 DUP4 ADD DUP5 PUSH2 0x20F JUMP JUMPDEST SWAP3 SWAP2 POP POP JUMP JUMPDEST PUSH0 PUSH0 REVERT JUMPDEST PUSH0 PUSH20 0xFFFFFFFFFFFFFFFFFFFFFFFFFFFFFFFFFFFFFFFF DUP3 AND SWAP1 POP SWAP2 SWAP1 POP JUMP JUMPDEST PUSH0 PUSH2 0x264 DUP3 PUSH2 0x23B JUMP JUMPDEST SWAP1 POP SWAP2 SWAP1 POP JUMP JUMPDEST PUSH2 0x274 DUP2 PUSH2 0x25A JUMP JUMPDEST DUP2 EQ PUSH2 0x27E JUMPI PUSH0 PUSH0 REVERT JUMPDEST POP JUMP JUMPDEST PUSH0 DUP2 CALLDATALOAD SWAP1 POP PUSH2 0x28F DUP2 PUSH2 0x26B JUMP JUMPDEST SWAP3 SWAP2 POP POP JUMP JUMPDEST PUSH0 PUSH1 0x20 DUP3 DUP5 SUB SLT ISZERO PUSH2 0x2AA JUMPI PUSH2 0x2A9 PUSH2 0x237 JUMP JUMPDEST JUMPDEST PUSH0 PUSH2 0x2B7 DUP5 DUP3 DUP6 ADD PUSH2 0x281 JUMP JUMPDEST SWAP2 POP POP SWAP3 SWAP2 POP POP JUMP JUMPDEST PUSH2 0x2C9 DUP2 PUSH2 0x206 JUMP JUMPDEST DUP2 EQ PUSH2 0x2D3 JUMPI PUSH0 PUSH0 REVERT JUMPDEST POP JUMP JUMPDEST PUSH0 DUP2 CALLDATALOAD SWAP1 POP PUSH2 0x2E4 DUP2 PUSH2 0x2C0 JUMP JUMPDEST SWAP3 SWAP2 POP POP JUMP JUMPDEST PUSH0 PUSH1 0x20 DUP3 DUP5 SUB SLT ISZERO PUSH2 0x2FF JUMPI PUSH2 0x2FE PUSH2 0x237 JUMP JUMPDEST JUMPDEST PUSH0 PUSH2 0x30C DUP5 DUP3 DUP6 ADD PUSH2 0x2D6 JUMP JUMPDEST SWAP2 POP POP SWAP3 SWAP2 POP POP JUMP JUMPDEST PUSH32 0x4E487B7100000000000000000000000000000000000000000000000000000000 PUSH0 MSTORE PUSH1 0x11 PUSH1 0x4 MSTORE PUSH1 0x24 PUSH0 REVERT JUMPDEST PUSH0 PUSH2 0x34C DUP3 PUSH2 0x206 JUMP JUMPDEST SWAP2 POP PUSH2 0x357 DUP4 PUSH2 0x206 JUMP JUMPDEST SWAP3 POP DUP3 DUP3 MUL PUSH2 0x365 DUP2 PUSH2 0x206 JUMP JUMPDEST SWAP2 POP DUP3 DUP3 DIV DUP5 EQ DUP4 ISZERO OR PUSH2 0x37C JUMPI PUSH2 0x37B PUSH2 0x315 JUMP JUMPDEST JUMPDEST POP SWAP3 SWAP2 POP POP JUMP JUMPDEST PUSH0 DUP3 DUP3 MSTORE PUSH1 0x20 DUP3 ADD SWAP1 POP SWAP3 SWAP2 POP POP JUMP JUMPDEST PUSH32 0x4E6F20706F776572000000000000000000000000000000000000000000000000 PUSH0 DUP3 ADD MSTORE POP JUMP JUMPDEST PUSH0 PUSH2 0x3C7 PUSH1 0x8 DUP4 PUSH2 0x383 JUMP JUMPDEST SWAP2 POP PUSH2 0x3D2 DUP3 PUSH2 0x393 JUMP JUMPDEST PUSH1 0x20 DUP3 ADD SWAP1 POP SWAP2 SWAP1 POP JUMP JUMPDEST PUSH0 PUSH1 0x20 DUP3 ADD SWAP1 POP DUP2 DUP2 SUB PUSH0 DUP4 ADD MSTORE PUSH2 0x3F4 DUP2 PUSH2 0x3BB JUMP JUMPDEST SWAP1 POP SWAP2 SWAP1 POP JUMP JUMPDEST PUSH2 0x404 DUP2 PUSH2 0x25A JUMP JUMPDEST DUP3 MSTORE POP POP JUMP JUMPDEST PUSH0 PUSH1 0x40 DUP3 ADD SWAP1 POP PUSH2 0x41D PUSH0 DUP4 ADD DUP6 PUSH2 0x3FB JUMP JUMPDEST PUSH2 0x42A PUSH1 0x20 DUP4 ADD DUP5 PUSH2 0x20F JUMP JUMPDEST SWAP4 SWAP3 POP POP POP JUMP JUMPDEST PUSH0 PUSH2 0x43B DUP3 PUSH2 0x206 JUMP JUMPDEST SWAP2 POP PUSH2 0x446 DUP4 PUSH2 0x206 JUMP JUMPDEST SWAP3 POP DUP3 DUP3 ADD SWAP1 POP DUP1 DUP3 GT ISZERO PUSH2 0x45E JUMPI PUSH2 0x45D PUSH2 0x315 JUMP JUMPDEST JUMPDEST SWAP3 SWAP2 POP POP JUMP INVALID LOG2 PUSH5 0x6970667358 0x22 SLT KECCAK256 0xCC NOT 0xA8 SWAP4 RJUMP 0xFE01 STOP GAS 0x2C PUSH6 0x2040CCD739FE PUSH13 0xD1ED65757ACC17E8D772FF20EB 0xB1 PUSH5 0x736F6C6343 STOP ADDMOD SAR STOP CALLER "
				},
				"gasEstimates": {
					"creation": {
						"codeDepositCost": "235600",
						"executionCost": "273",
						"totalCost": "235873"
					},
					"external": {
						"mine()": "infinite",
						"rewardPerHash()": "303",
						"stakePower(uint256)": "infinite",
						"virtualPower(address)": "2801"
					}
				},
				"methodIdentifiers": {
					"mine()": "99f4b251",
					"rewardPerHash()": "36e11772",
					"stakePower(uint256)": "e7b63c3c",
					"virtualPower(address)": "850fc40a"
				}
			},
			"storageLayout": {
				"storage": [
					{
						"astId": 4,
						"contract": "H/Virtual Hash Power for Simulated Mining.sol:VirtualHashPowerGame",
						"label": "virtualPower",
						"offset": 0,
						"slot": "0",
						"type": "t_mapping(t_address,t_uint256)"
					}
				],
				"types": {
					"t_address": {
						"encoding": "inplace",
						"label": "address",
						"numberOfBytes": "20"
					},
					"t_mapping(t_address,t_uint256)": {
						"encoding": "mapping",
						"key": "t_address",
						"label": "mapping(address => uint256)",
						"numberOfBytes": "32",
						"value": "t_uint256"
					},
					"t_uint256": {
						"encoding": "inplace",
						"label": "uint256",
						"numberOfBytes": "32"
					}
				}
			},
			"userdoc": {
				"kind": "user",
				"methods": {},
				"version": 1
			}
		}
	}
}