{
	"C/corporate treasury.sol": {
		"CorporateTreasury": {
			"abi": [
				{
					"inputs": [],
					"stateMutability": "nonpayable",
					"type": "constructor"
				},
				{
					"inputs": [
						{
							"internalType": "address",
							"name": "owner",
							"type": "address"
						}
					],
					"name": "OwnableInvalidOwner",
					"type": "error"
				},
				{
					"inputs": [
						{
							"internalType": "address",
							"name": "account",
							"type": "address"
						}
					],
					"name": "OwnableUnauthorizedAccount",
					"type": "error"
				},
				{
					"inputs": [
						{
							"internalType": "address",
							"name": "token",
							"type": "address"
						}
					],
					"name": "SafeERC20FailedOperation",
					"type": "error"
				},
				{
					"anonymous": false,
					"inputs": [
						{
							"indexed": true,
							"internalType": "address",
							"name": "sender",
							"type": "address"
						},
						{
							"indexed": false,
							"internalType": "uint256",
							"name": "amount",
							"type": "uint256"
						}
					],
					"name": "EtherReceived",
					"type": "event"
				},
				{
					"anonymous": false,
					"inputs": [
						{
							"indexed": true,
							"internalType": "address",
							"name": "manager",
							"type": "address"
						}
					],
					"name": "ManagerAdded",
					"type": "event"
				},
				{
					"anonymous": false,
					"inputs": [
						{
							"indexed": true,
							"internalType": "address",
							"name": "manager",
							"type": "address"
						}
					],
					"name": "ManagerRemoved",
					"type": "event"
				},
				{
					"anonymous": false,
					"inputs": [
						{
							"indexed": true,
							"internalType": "address",
							"name": "previousOwner",
							"type": "address"
						},
						{
							"indexed": true,
							"internalType": "address",
							"name": "newOwner",
							"type": "address"
						}
					],
					"name": "OwnershipTransferred",
					"type": "event"
				},
				{
					"anonymous": false,
					"inputs": [
						{
							"indexed": true,
							"internalType": "uint256",
							"name": "proposalId",
							"type": "uint256"
						}
					],
					"name": "ProposalCancelled",
					"type": "event"
				},
				{
					"anonymous": false,
					"inputs": [
						{
							"indexed": true,
							"internalType": "uint256",
							"name": "proposalId",
							"type": "uint256"
						},
						{
							"indexed": false,
							"internalType": "string",
							"name": "description",
							"type": "string"
						},
						{
							"indexed": true,
							"internalType": "address",
							"name": "recipient",
							"type": "address"
						},
						{
							"indexed": false,
							"internalType": "uint256",
							"name": "amount",
							"type": "uint256"
						},
						{
							"indexed": false,
							"internalType": "uint256",
							"name": "executeAfter",
							"type": "uint256"
						}
					],
					"name": "ProposalCreated",
					"type": "event"
				},
				{
					"anonymous": false,
					"inputs": [
						{
							"indexed": true,
							"internalType": "uint256",
							"name": "proposalId",
							"type": "uint256"
						},
						{
							"indexed": true,
							"internalType": "address",
							"name": "recipient",
							"type": "address"
						},
						{
							"indexed": false,
							"internalType": "uint256",
							"name": "amount",
							"type": "uint256"
						}
					],
					"name": "ProposalExecuted",
					"type": "event"
				},
				{
					"anonymous": false,
					"inputs": [
						{
							"indexed": true,
							"internalType": "address",
							"name": "token",
							"type": "address"
						},
						{
							"indexed": true,
							"internalType": "address",
							"name": "to",
							"type": "address"
						},
						{
							"indexed": false,
							"internalType": "uint256",
							"name": "amount",
							"type": "uint256"
						}
					],
					"name": "TokenTransferred",
					"type": "event"
				},
				{
					"stateMutability": "payable",
					"type": "fallback"
				},
				{
					"inputs": [],
					"name": "TIMELOCK",
					"outputs": [
						{
							"internalType": "uint256",
							"name": "",
							"type": "uint256"
						}
					],
					"stateMutability": "view",
					"type": "function"
				},
				{
					"inputs": [
						{
							"internalType": "address",
							"name": "_manager",
							"type": "address"
						}
					],
					"name": "addManager",
					"outputs": [],
					"stateMutability": "nonpayable",
					"type": "function"
				},
				{
					"inputs": [
						{
							"internalType": "uint256",
							"name": "proposalId",
							"type": "uint256"
						}
					],
					"name": "cancelProposal",
					"outputs": [],
					"stateMutability": "nonpayable",
					"type": "function"
				},
				{
					"inputs": [
						{
							"internalType": "uint256",
							"name": "proposalId",
							"type": "uint256"
						}
					],
					"name": "executeProposal",
					"outputs": [
						{
							"internalType": "bytes",
							"name": "result",
							"type": "bytes"
						}
					],
					"stateMutability": "nonpayable",
					"type": "function"
				},
				{
					"inputs": [
						{
							"internalType": "address",
							"name": "",
							"type": "address"
						}
					],
					"name": "isManager",
					"outputs": [
						{
							"internalType": "bool",
							"name": "",
							"type": "bool"
						}
					],
					"stateMutability": "view",
					"type": "function"
				},
				{
					"inputs": [
						{
							"internalType": "uint256",
							"name": "",
							"type": "uint256"
						}
					],
					"name": "managers",
					"outputs": [
						{
							"internalType": "address",
							"name": "",
							"type": "address"
						}
					],
					"stateMutability": "view",
					"type": "function"
				},
				{
					"inputs": [],
					"name": "nextProposalId",
					"outputs": [
						{
							"internalType": "uint256",
							"name": "",
							"type": "uint256"
						}
					],
					"stateMutability": "view",
					"type": "function"
				},
				{
					"inputs": [],
					"name": "owner",
					"outputs": [
						{
							"internalType": "address",
							"name": "",
							"type": "address"
						}
					],
					"stateMutability": "view",
					"type": "function"
				},
				{
					"inputs": [
						{
							"internalType": "uint256",
							"name": "",
							"type": "uint256"
						}
					],
					"name": "proposals",
					"outputs": [
						{
							"internalType": "uint256",
							"name": "id",
							"type": "uint256"
						},
						{
							"internalType": "string",
							"name": "description",
							"type": "string"
						},
						{
							"internalType": "address payable",
							"name": "recipient",
							"type": "address"
						},
						{
							"internalType": "uint256",
							"name": "amount",
							"type": "uint256"
						},
						{
							"internalType": "uint256",
							"name": "proposedAt",
							"type": "uint256"
						},
						{
							"internalType": "uint256",
							"name": "executeAfter",
							"type": "uint256"
						},
						{
							"internalType": "bool",
							"name": "executed",
							"type": "bool"
						},
						{
							"internalType": "bool",
							"name": "cancelled",
							"type": "bool"
						}
					],
					"stateMutability": "view",
					"type": "function"
				},
				{
					"inputs": [
						{
							"internalType": "string",
							"name": "_description",
							"type": "string"
						},
						{
							"internalType": "address payable",
							"name": "_recipient",
							"type": "address"
						},
						{
							"internalType": "uint256",
							"name": "_amount",
							"type": "uint256"
						}
					],
					"name": "proposeExpenditure",
					"outputs": [
						{
							"internalType": "uint256",
							"name": "proposalId",
							"type": "uint256"
						}
					],
					"stateMutability": "nonpayable",
					"type": "function"
				},
				{
					"inputs": [
						{
							"internalType": "address",
							"name": "_manager",
							"type": "address"
						}
					],
					"name": "removeManager",
					"outputs": [],
					"stateMutability": "nonpayable",
					"type": "function"
				},
				{
					"inputs": [],
					"name": "renounceOwnership",
					"outputs": [],
					"stateMutability": "nonpayable",
					"type": "function"
				},
				{
					"inputs": [
						{
							"internalType": "address",
							"name": "newOwner",
							"type": "address"
						}
					],
					"name": "transferOwnership",
					"outputs": [],
					"stateMutability": "nonpayable",
					"type": "function"
				},
				{
					"inputs": [
						{
							"internalType": "contract IERC20",
							"name": "token",
							"type": "address"
						},
						{
							"internalType": "address",
							"name": "to",
							"type": "address"
						},
						{
							"internalType": "uint256",
							"name": "amount",
							"type": "uint256"
						}
					],
					"name": "transferToken",
					"outputs": [],
					"stateMutability": "nonpayable",
					"type": "function"
				},
				{
					"stateMutability": "payable",
					"type": "receive"
				}
			],
			"devdoc": {
				"errors": {
					"OwnableInvalidOwner(address)": [
						{
							"details": "The owner is not a valid owner account. (eg. `address(0)`)"
						}
					],
					"OwnableUnauthorizedAccount(address)": [
						{
							"details": "The caller account is not authorized to perform an operation."
						}
					],
					"SafeERC20FailedOperation(address)": [
						{
							"details": "An operation with an ERC-20 token failed."
						}
					]
				},
				"kind": "dev",
				"methods": {
					"addManager(address)": {
						"params": {
							"_manager": "The address to be added as a manager."
						}
					},
					"cancelProposal(uint256)": {
						"params": {
							"proposalId": "The ID of the proposal to cancel."
						}
					},
					"executeProposal(uint256)": {
						"params": {
							"proposalId": "The ID of the proposal to execute."
						},
						"returns": {
							"result": "The return data from the fund transfer."
						}
					},
					"owner()": {
						"details": "Returns the address of the current owner."
					},
					"proposeExpenditure(string,address,uint256)": {
						"params": {
							"_amount": "The amount of Ether to be spent.",
							"_description": "A description of the expenditure.",
							"_recipient": "The address to receive the funds."
						},
						"returns": {
							"proposalId": "The unique ID of the new proposal."
						}
					},
					"removeManager(address)": {
						"params": {
							"_manager": "The address to be removed."
						}
					},
					"renounceOwnership()": {
						"details": "Leaves the contract without owner. It will not be possible to call `onlyOwner` functions. Can only be called by the current owner. NOTE: Renouncing ownership will leave the contract without an owner, thereby disabling any functionality that is only available to the owner."
					},
					"transferOwnership(address)": {
						"details": "Transfers ownership of the contract to a new account (`newOwner`). Can only be called by the current owner."
					},
					"transferToken(address,address,uint256)": {
						"params": {
							"amount": "The amount of tokens to transfer.",
							"to": "The recipient address.",
							"token": "The ERC20 token to transfer."
						}
					}
				},
				"title": "CorporateTreasury",
				"version": 1
			},
			"evm": {
				"assembly": "    /* \"C/corporate treasury.sol\":737:7214  contract CorporateTreasury is Ownable, ReentrancyGuard {... */\n  mstore(0x40, 0x80)\n    /* \"C/corporate treasury.sol\":2185:2278  constructor() Ownable(msg.sender) {... */\n  callvalue\n  dup1\n  iszero\n  tag_1\n  jumpi\n  0x00\n  dup1\n  revert\ntag_1:\n  pop\n    /* \"C/corporate treasury.sol\":2207:2217  msg.sender */\n  caller\n    /* \"@openzeppelin/contracts/access/Ownable.sol\":1297:1298  0 */\n  0x00\n    /* \"@openzeppelin/contracts/access/Ownable.sol\":1273:1299  initialOwner == address(0) */\n  0xffffffffffffffffffffffffffffffffffffffff\n  and\n    /* \"@openzeppelin/contracts/access/Ownable.sol\":1273:1285  initialOwner */\n  dup2\n    /* \"@openzeppelin/contracts/access/Ownable.sol\":1273:1299  initialOwner == address(0) */\n  0xffffffffffffffffffffffffffffffffffffffff\n  and\n  sub\n    /* \"@openzeppelin/contracts/access/Ownable.sol\":1269:1364  if (initialOwner == address(0)) {... */\n  tag_6\n  jumpi\n    /* \"@openzeppelin/contracts/access/Ownable.sol\":1350:1351  0 */\n  0x00\n    /* \"@openzeppelin/contracts/access/Ownable.sol\":1322:1353  OwnableInvalidOwner(address(0)) */\n  mload(0x40)\n  0x1e4fbdf700000000000000000000000000000000000000000000000000000000\n  dup2\n  mstore\n  0x04\n  add\n  tag_7\n  swap2\n  swap1\n  tag_8\n  jump\t// in\ntag_7:\n  mload(0x40)\n  dup1\n  swap2\n  sub\n  swap1\n  revert\n    /* \"@openzeppelin/contracts/access/Ownable.sol\":1269:1364  if (initialOwner == address(0)) {... */\ntag_6:\n    /* \"@openzeppelin/contracts/access/Ownable.sol\":1373:1405  _transferOwnership(initialOwner) */\n  tag_9\n    /* \"@openzeppelin/contracts/access/Ownable.sol\":1392:1404  initialOwner */\n  dup2\n    /* \"@openzeppelin/contracts/access/Ownable.sol\":1373:1391  _transferOwnership */\n  shl(0x20, tag_10)\n    /* \"@openzeppelin/contracts/access/Ownable.sol\":1373:1405  _transferOwnership(initialOwner) */\n  0x20\n  shr\n  jump\t// in\ntag_9:\n    /* \"@openzeppelin/contracts/access/Ownable.sol\":1225:1412  constructor(address initialOwner) {... */\n  pop\n    /* \"@openzeppelin/contracts/security/ReentrancyGuard.sol\":1716:1717  1 */\n  0x01\n    /* \"@openzeppelin/contracts/security/ReentrancyGuard.sol\":1821:1828  _status */\n  dup1\n    /* \"@openzeppelin/contracts/security/ReentrancyGuard.sol\":1821:1843  _status = _NOT_ENTERED */\n  dup2\n  swap1\n  sstore\n  pop\n    /* \"C/corporate treasury.sol\":737:7214  contract CorporateTreasury is Ownable, ReentrancyGuard {... */\n  jump(tag_13)\n    /* \"@openzeppelin/contracts/access/Ownable.sol\":2912:3099  function _transferOwnership(address newOwner) internal virtual {... */\ntag_10:\n    /* \"@openzeppelin/contracts/access/Ownable.sol\":2985:3001  address oldOwner */\n  0x00\n    /* \"@openzeppelin/contracts/access/Ownable.sol\":3004:3010  _owner */\n  dup1\n  0x00\n  swap1\n  sload\n  swap1\n  0x0100\n  exp\n  swap1\n  div\n  0xffffffffffffffffffffffffffffffffffffffff\n  and\n    /* \"@openzeppelin/contracts/access/Ownable.sol\":2985:3010  address oldOwner = _owner */\n  swap1\n  pop\n    /* \"@openzeppelin/contracts/access/Ownable.sol\":3029:3037  newOwner */\n  dup2\n    /* \"@openzeppelin/contracts/access/Ownable.sol\":3020:3026  _owner */\n  0x00\n  dup1\n    /* \"@openzeppelin/contracts/access/Ownable.sol\":3020:3037  _owner = newOwner */\n  0x0100\n  exp\n  dup2\n  sload\n  dup2\n  0xffffffffffffffffffffffffffffffffffffffff\n  mul\n  not\n  and\n  swap1\n  dup4\n  0xffffffffffffffffffffffffffffffffffffffff\n  and\n  mul\n  or\n  swap1\n  sstore\n  pop\n    /* \"@openzeppelin/contracts/access/Ownable.sol\":3083:3091  newOwner */\n  dup2\n    /* \"@openzeppelin/contracts/access/Ownable.sol\":3052:3092  OwnershipTransferred(oldOwner, newOwner) */\n  0xffffffffffffffffffffffffffffffffffffffff\n  and\n    /* \"@openzeppelin/contracts/access/Ownable.sol\":3073:3081  oldOwner */\n  dup2\n    /* \"@openzeppelin/contracts/access/Ownable.sol\":3052:3092  OwnershipTransferred(oldOwner, newOwner) */\n  0xffffffffffffffffffffffffffffffffffffffff\n  and\n  0x8be0079c531659141344cd1fd0a4f28419497f9722a3daafe3b4186f6b6457e0\n  mload(0x40)\n  mload(0x40)\n  dup1\n  swap2\n  sub\n  swap1\n  log3\n    /* \"@openzeppelin/contracts/access/Ownable.sol\":2975:3099  {... */\n  pop\n    /* \"@openzeppelin/contracts/access/Ownable.sol\":2912:3099  function _transferOwnership(address newOwner) internal virtual {... */\n  pop\n  jump\t// out\n    /* \"#utility.yul\":7:133   */\ntag_15:\n    /* \"#utility.yul\":44:51   */\n  0x00\n    /* \"#utility.yul\":84:126   */\n  0xffffffffffffffffffffffffffffffffffffffff\n    /* \"#utility.yul\":77:82   */\n  dup3\n    /* \"#utility.yul\":73:127   */\n  and\n    /* \"#utility.yul\":62:127   */\n  swap1\n  pop\n    /* \"#utility.yul\":7:133   */\n  swap2\n  swap1\n  pop\n  jump\t// out\n    /* \"#utility.yul\":139:235   */\ntag_16:\n    /* \"#utility.yul\":176:183   */\n  0x00\n    /* \"#utility.yul\":205:229   */\n  tag_21\n    /* \"#utility.yul\":223:228   */\n  dup3\n    /* \"#utility.yul\":205:229   */\n  tag_15\n  jump\t// in\ntag_21:\n    /* \"#utility.yul\":194:229   */\n  swap1\n  pop\n    /* \"#utility.yul\":139:235   */\n  swap2\n  swap1\n  pop\n  jump\t// out\n    /* \"#utility.yul\":241:359   */\ntag_17:\n    /* \"#utility.yul\":328:352   */\n  tag_23\n    /* \"#utility.yul\":346:351   */\n  dup2\n    /* \"#utility.yul\":328:352   */\n  tag_16\n  jump\t// in\ntag_23:\n    /* \"#utility.yul\":323:326   */\n  dup3\n    /* \"#utility.yul\":316:353   */\n  mstore\n    /* \"#utility.yul\":241:359   */\n  pop\n  pop\n  jump\t// out\n    /* \"#utility.yul\":365:587   */\ntag_8:\n    /* \"#utility.yul\":458:462   */\n  0x00\n    /* \"#utility.yul\":496:498   */\n  0x20\n    /* \"#utility.yul\":485:494   */\n  dup3\n    /* \"#utility.yul\":481:499   */\n  add\n    /* \"#utility.yul\":473:499   */\n  swap1\n  pop\n    /* \"#utility.yul\":509:580   */\n  tag_25\n    /* \"#utility.yul\":577:578   */\n  0x00\n    /* \"#utility.yul\":566:575   */\n  dup4\n    /* \"#utility.yul\":562:579   */\n  add\n    /* \"#utility.yul\":553:559   */\n  dup5\n    /* \"#utility.yul\":509:580   */\n  tag_17\n  jump\t// in\ntag_25:\n    /* \"#utility.yul\":365:587   */\n  swap3\n  swap2\n  pop\n  pop\n  jump\t// out\n    /* \"C/corporate treasury.sol\":737:7214  contract CorporateTreasury is Ownable, ReentrancyGuard {... */\ntag_13:\n  dataSize(sub_0)\n  dup1\n  dataOffset(sub_0)\n  0x00\n  codecopy\n  0x00\n  return\nstop\n\nsub_0: assembly {\n        /* \"C/corporate treasury.sol\":737:7214  contract CorporateTreasury is Ownable, ReentrancyGuard {... */\n      mstore(0x40, 0x80)\n      jumpi(tag_1, lt(calldatasize, 0x04))\n      shr(0xe0, calldataload(0x00))\n      dup1\n      0x7aadef8b\n      gt\n      tag_17\n      jumpi\n      dup1\n      0xe0a8f6f5\n      gt\n      tag_18\n      jumpi\n      dup1\n      0xe0a8f6f5\n      eq\n      tag_13\n      jumpi\n      dup1\n      0xf2fde38b\n      eq\n      tag_14\n      jumpi\n      dup1\n      0xf3ae2415\n      eq\n      tag_15\n      jumpi\n      dup1\n      0xf5537ede\n      eq\n      tag_16\n      jumpi\n      jump(tag_2)\n    tag_18:\n      dup1\n      0x7aadef8b\n      eq\n      tag_10\n      jumpi\n      dup1\n      0x8da5cb5b\n      eq\n      tag_11\n      jumpi\n      dup1\n      0xac18de43\n      eq\n      tag_12\n      jumpi\n      jump(tag_2)\n    tag_17:\n      dup1\n      0x2d06177a\n      gt\n      tag_19\n      jumpi\n      dup1\n      0x2d06177a\n      eq\n      tag_6\n      jumpi\n      dup1\n      0x3c8c3148\n      eq\n      tag_7\n      jumpi\n      dup1\n      0x3d39c260\n      eq\n      tag_8\n      jumpi\n      dup1\n      0x715018a6\n      eq\n      tag_9\n      jumpi\n      jump(tag_2)\n    tag_19:\n      dup1\n      0x013cf08b\n      eq\n      tag_3\n      jumpi\n      dup1\n      0x0d61b519\n      eq\n      tag_4\n      jumpi\n      dup1\n      0x2ab09d14\n      eq\n      tag_5\n      jumpi\n      jump(tag_2)\n    tag_1:\n      jumpi(tag_2, calldatasize)\n        /* \"C/corporate treasury.sol\":7033:7043  msg.sender */\n      caller\n        /* \"C/corporate treasury.sol\":7019:7055  EtherReceived(msg.sender, msg.value) */\n      0xffffffffffffffffffffffffffffffffffffffff\n      and\n      0x1e57e3bb474320be3d2c77138f75b7c3941292d647f5f9634e33a8e94e0e069b\n        /* \"C/corporate treasury.sol\":7045:7054  msg.value */\n      callvalue\n        /* \"C/corporate treasury.sol\":7019:7055  EtherReceived(msg.sender, msg.value) */\n      mload(0x40)\n      tag_22\n      swap2\n      swap1\n      tag_23\n      jump\t// in\n    tag_22:\n      mload(0x40)\n      dup1\n      swap2\n      sub\n      swap1\n      log2\n        /* \"C/corporate treasury.sol\":737:7214  contract CorporateTreasury is Ownable, ReentrancyGuard {... */\n      stop\n    tag_2:\n        /* \"C/corporate treasury.sol\":7183:7193  msg.sender */\n      caller\n        /* \"C/corporate treasury.sol\":7169:7205  EtherReceived(msg.sender, msg.value) */\n      0xffffffffffffffffffffffffffffffffffffffff\n      and\n      0x1e57e3bb474320be3d2c77138f75b7c3941292d647f5f9634e33a8e94e0e069b\n        /* \"C/corporate treasury.sol\":7195:7204  msg.value */\n      callvalue\n        /* \"C/corporate treasury.sol\":7169:7205  EtherReceived(msg.sender, msg.value) */\n      mload(0x40)\n      tag_26\n      swap2\n      swap1\n      tag_23\n      jump\t// in\n    tag_26:\n      mload(0x40)\n      dup1\n      swap2\n      sub\n      swap1\n      log2\n        /* \"C/corporate treasury.sol\":737:7214  contract CorporateTreasury is Ownable, ReentrancyGuard {... */\n      stop\n        /* \"C/corporate treasury.sol\":1314:1367  mapping(uint256 => SpendingProposal) public proposals */\n    tag_3:\n      callvalue\n      dup1\n      iszero\n      tag_27\n      jumpi\n      0x00\n      dup1\n      revert\n    tag_27:\n      pop\n      tag_28\n      0x04\n      dup1\n      calldatasize\n      sub\n      dup2\n      add\n      swap1\n      tag_29\n      swap2\n      swap1\n      tag_30\n      jump\t// in\n    tag_29:\n      tag_31\n      jump\t// in\n    tag_28:\n      mload(0x40)\n      tag_32\n      swap9\n      swap8\n      swap7\n      swap6\n      swap5\n      swap4\n      swap3\n      swap2\n      swap1\n      tag_33\n      jump\t// in\n    tag_32:\n      mload(0x40)\n      dup1\n      swap2\n      sub\n      swap1\n      return\n        /* \"C/corporate treasury.sol\":5601:6348  function executeProposal(uint256 proposalId) external onlyManager nonReentrant returns (bytes memory result) {... */\n    tag_4:\n      callvalue\n      dup1\n      iszero\n      tag_34\n      jumpi\n      0x00\n      dup1\n      revert\n    tag_34:\n      pop\n      tag_35\n      0x04\n      dup1\n      calldatasize\n      sub\n      dup2\n      add\n      swap1\n      tag_36\n      swap2\n      swap1\n      tag_30\n      jump\t// in\n    tag_36:\n      tag_37\n      jump\t// in\n    tag_35:\n      mload(0x40)\n      tag_38\n      swap2\n      swap1\n      tag_39\n      jump\t// in\n    tag_38:\n      mload(0x40)\n      dup1\n      swap2\n      sub\n      swap1\n      return\n        /* \"C/corporate treasury.sol\":1279:1308  uint256 public nextProposalId */\n    tag_5:\n      callvalue\n      dup1\n      iszero\n      tag_40\n      jumpi\n      0x00\n      dup1\n      revert\n    tag_40:\n      pop\n      tag_41\n      tag_42\n      jump\t// in\n    tag_41:\n      mload(0x40)\n      tag_43\n      swap2\n      swap1\n      tag_23\n      jump\t// in\n    tag_43:\n      mload(0x40)\n      dup1\n      swap2\n      sub\n      swap1\n      return\n        /* \"C/corporate treasury.sol\":2619:2909  function addManager(address _manager) external onlyOwner {... */\n    tag_6:\n      callvalue\n      dup1\n      iszero\n      tag_44\n      jumpi\n      0x00\n      dup1\n      revert\n    tag_44:\n      pop\n      tag_45\n      0x04\n      dup1\n      calldatasize\n      sub\n      dup2\n      add\n      swap1\n      tag_46\n      swap2\n      swap1\n      tag_47\n      jump\t// in\n    tag_46:\n      tag_48\n      jump\t// in\n    tag_45:\n      stop\n        /* \"C/corporate treasury.sol\":3829:4750  function proposeExpenditure(... */\n    tag_7:\n      callvalue\n      dup1\n      iszero\n      tag_49\n      jumpi\n      0x00\n      dup1\n      revert\n    tag_49:\n      pop\n      tag_50\n      0x04\n      dup1\n      calldatasize\n      sub\n      dup2\n      add\n      swap1\n      tag_51\n      swap2\n      swap1\n      tag_52\n      jump\t// in\n    tag_51:\n      tag_53\n      jump\t// in\n    tag_50:\n      mload(0x40)\n      tag_54\n      swap2\n      swap1\n      tag_23\n      jump\t// in\n    tag_54:\n      mload(0x40)\n      dup1\n      swap2\n      sub\n      swap1\n      return\n        /* \"C/corporate treasury.sol\":932:957  address[] public managers */\n    tag_8:\n      callvalue\n      dup1\n      iszero\n      tag_55\n      jumpi\n      0x00\n      dup1\n      revert\n    tag_55:\n      pop\n      tag_56\n      0x04\n      dup1\n      calldatasize\n      sub\n      dup2\n      add\n      swap1\n      tag_57\n      swap2\n      swap1\n      tag_30\n      jump\t// in\n    tag_57:\n      tag_58\n      jump\t// in\n    tag_56:\n      mload(0x40)\n      tag_59\n      swap2\n      swap1\n      tag_60\n      jump\t// in\n    tag_59:\n      mload(0x40)\n      dup1\n      swap2\n      sub\n      swap1\n      return\n        /* \"@openzeppelin/contracts/access/Ownable.sol\":2293:2394  function renounceOwnership() public virtual onlyOwner {... */\n    tag_9:\n      callvalue\n      dup1\n      iszero\n      tag_61\n      jumpi\n      0x00\n      dup1\n      revert\n    tag_61:\n      pop\n      tag_62\n      tag_63\n      jump\t// in\n    tag_62:\n      stop\n        /* \"C/corporate treasury.sol\":1422:1463  uint256 public constant TIMELOCK = 1 days */\n    tag_10:\n      callvalue\n      dup1\n      iszero\n      tag_64\n      jumpi\n      0x00\n      dup1\n      revert\n    tag_64:\n      pop\n      tag_65\n      tag_66\n      jump\t// in\n    tag_65:\n      mload(0x40)\n      tag_67\n      swap2\n      swap1\n      tag_23\n      jump\t// in\n    tag_67:\n      mload(0x40)\n      dup1\n      swap2\n      sub\n      swap1\n      return\n        /* \"@openzeppelin/contracts/access/Ownable.sol\":1638:1723  function owner() public view virtual returns (address) {... */\n    tag_11:\n      callvalue\n      dup1\n      iszero\n      tag_68\n      jumpi\n      0x00\n      dup1\n      revert\n    tag_68:\n      pop\n      tag_69\n      tag_70\n      jump\t// in\n    tag_69:\n      mload(0x40)\n      tag_71\n      swap2\n      swap1\n      tag_60\n      jump\t// in\n    tag_71:\n      mload(0x40)\n      dup1\n      swap2\n      sub\n      swap1\n      return\n        /* \"C/corporate treasury.sol\":3032:3508  function removeManager(address _manager) external onlyOwner {... */\n    tag_12:\n      callvalue\n      dup1\n      iszero\n      tag_72\n      jumpi\n      0x00\n      dup1\n      revert\n    tag_72:\n      pop\n      tag_73\n      0x04\n      dup1\n      calldatasize\n      sub\n      dup2\n      add\n      swap1\n      tag_74\n      swap2\n      swap1\n      tag_47\n      jump\t// in\n    tag_74:\n      tag_75\n      jump\t// in\n    tag_73:\n      stop\n        /* \"C/corporate treasury.sol\":4923:5360  function cancelProposal(uint256 proposalId) external onlyManager nonReentrant {... */\n    tag_13:\n      callvalue\n      dup1\n      iszero\n      tag_76\n      jumpi\n      0x00\n      dup1\n      revert\n    tag_76:\n      pop\n      tag_77\n      0x04\n      dup1\n      calldatasize\n      sub\n      dup2\n      add\n      swap1\n      tag_78\n      swap2\n      swap1\n      tag_30\n      jump\t// in\n    tag_78:\n      tag_79\n      jump\t// in\n    tag_77:\n      stop\n        /* \"@openzeppelin/contracts/access/Ownable.sol\":2543:2758  function transferOwnership(address newOwner) public virtual onlyOwner {... */\n    tag_14:\n      callvalue\n      dup1\n      iszero\n      tag_80\n      jumpi\n      0x00\n      dup1\n      revert\n    tag_80:\n      pop\n      tag_81\n      0x04\n      dup1\n      calldatasize\n      sub\n      dup2\n      add\n      swap1\n      tag_82\n      swap2\n      swap1\n      tag_47\n      jump\t// in\n    tag_82:\n      tag_83\n      jump\t// in\n    tag_81:\n      stop\n        /* \"C/corporate treasury.sol\":885:926  mapping(address => bool) public isManager */\n    tag_15:\n      callvalue\n      dup1\n      iszero\n      tag_84\n      jumpi\n      0x00\n      dup1\n      revert\n    tag_84:\n      pop\n      tag_85\n      0x04\n      dup1\n      calldatasize\n      sub\n      dup2\n      add\n      swap1\n      tag_86\n      swap2\n      swap1\n      tag_47\n      jump\t// in\n    tag_86:\n      tag_87\n      jump\t// in\n    tag_85:\n      mload(0x40)\n      tag_88\n      swap2\n      swap1\n      tag_89\n      jump\t// in\n    tag_88:\n      mload(0x40)\n      dup1\n      swap2\n      sub\n      swap1\n      return\n        /* \"C/corporate treasury.sol\":6580:6919  function transferToken(IERC20 token, address to, uint256 amount) external onlyOwner nonReentrant {... */\n    tag_16:\n      callvalue\n      dup1\n      iszero\n      tag_90\n      jumpi\n      0x00\n      dup1\n      revert\n    tag_90:\n      pop\n      tag_91\n      0x04\n      dup1\n      calldatasize\n      sub\n      dup2\n      add\n      swap1\n      tag_92\n      swap2\n      swap1\n      tag_93\n      jump\t// in\n    tag_92:\n      tag_94\n      jump\t// in\n    tag_91:\n      stop\n        /* \"C/corporate treasury.sol\":1314:1367  mapping(uint256 => SpendingProposal) public proposals */\n    tag_31:\n      mstore(0x20, 0x05)\n      dup1\n      0x00\n      mstore\n      keccak256(0x00, 0x40)\n      0x00\n      swap2\n      pop\n      swap1\n      pop\n      dup1\n      0x00\n      add\n      sload\n      swap1\n      dup1\n      0x01\n      add\n      dup1\n      sload\n      tag_95\n      swap1\n      tag_96\n      jump\t// in\n    tag_95:\n      dup1\n      0x1f\n      add\n      0x20\n      dup1\n      swap2\n      div\n      mul\n      0x20\n      add\n      mload(0x40)\n      swap1\n      dup2\n      add\n      0x40\n      mstore\n      dup1\n      swap3\n      swap2\n      swap1\n      dup2\n      dup2\n      mstore\n      0x20\n      add\n      dup3\n      dup1\n      sload\n      tag_97\n      swap1\n      tag_96\n      jump\t// in\n    tag_97:\n      dup1\n      iszero\n      tag_98\n      jumpi\n      dup1\n      0x1f\n      lt\n      tag_99\n      jumpi\n      0x0100\n      dup1\n      dup4\n      sload\n      div\n      mul\n      dup4\n      mstore\n      swap2\n      0x20\n      add\n      swap2\n      jump(tag_98)\n    tag_99:\n      dup3\n      add\n      swap2\n      swap1\n      0x00\n      mstore\n      keccak256(0x00, 0x20)\n      swap1\n    tag_100:\n      dup2\n      sload\n      dup2\n      mstore\n      swap1\n      0x01\n      add\n      swap1\n      0x20\n      add\n      dup1\n      dup4\n      gt\n      tag_100\n      jumpi\n      dup3\n      swap1\n      sub\n      0x1f\n      and\n      dup3\n      add\n      swap2\n    tag_98:\n      pop\n      pop\n      pop\n      pop\n      pop\n      swap1\n      dup1\n      0x02\n      add\n      0x00\n      swap1\n      sload\n      swap1\n      0x0100\n      exp\n      swap1\n      div\n      0xffffffffffffffffffffffffffffffffffffffff\n      and\n      swap1\n      dup1\n      0x03\n      add\n      sload\n      swap1\n      dup1\n      0x04\n      add\n      sload\n      swap1\n      dup1\n      0x05\n      add\n      sload\n      swap1\n      dup1\n      0x06\n      add\n      0x00\n      swap1\n      sload\n      swap1\n      0x0100\n      exp\n      swap1\n      div\n      0xff\n      and\n      swap1\n      dup1\n      0x06\n      add\n      0x01\n      swap1\n      sload\n      swap1\n      0x0100\n      exp\n      swap1\n      div\n      0xff\n      and\n      swap1\n      pop\n      dup9\n      jump\t// out\n        /* \"C/corporate treasury.sol\":5601:6348  function executeProposal(uint256 proposalId) external onlyManager nonReentrant returns (bytes memory result) {... */\n    tag_37:\n        /* \"C/corporate treasury.sol\":5689:5708  bytes memory result */\n      0x60\n        /* \"C/corporate treasury.sol\":2405:2414  isManager */\n      0x02\n        /* \"C/corporate treasury.sol\":2405:2426  isManager[msg.sender] */\n      0x00\n        /* \"C/corporate treasury.sol\":2415:2425  msg.sender */\n      caller\n        /* \"C/corporate treasury.sol\":2405:2426  isManager[msg.sender] */\n      0xffffffffffffffffffffffffffffffffffffffff\n      and\n      0xffffffffffffffffffffffffffffffffffffffff\n      and\n      dup2\n      mstore\n      0x20\n      add\n      swap1\n      dup2\n      mstore\n      0x20\n      add\n      0x00\n      keccak256\n      0x00\n      swap1\n      sload\n      swap1\n      0x0100\n      exp\n      swap1\n      div\n      0xff\n      and\n        /* \"C/corporate treasury.sol\":2405:2451  isManager[msg.sender] || msg.sender == owner() */\n      dup1\n      tag_102\n      jumpi\n      pop\n        /* \"C/corporate treasury.sol\":2444:2451  owner() */\n      tag_103\n        /* \"C/corporate treasury.sol\":2444:2449  owner */\n      tag_70\n        /* \"C/corporate treasury.sol\":2444:2451  owner() */\n      jump\t// in\n    tag_103:\n        /* \"C/corporate treasury.sol\":2430:2451  msg.sender == owner() */\n      0xffffffffffffffffffffffffffffffffffffffff\n      and\n        /* \"C/corporate treasury.sol\":2430:2440  msg.sender */\n      caller\n        /* \"C/corporate treasury.sol\":2430:2451  msg.sender == owner() */\n      0xffffffffffffffffffffffffffffffffffffffff\n      and\n      eq\n        /* \"C/corporate treasury.sol\":2405:2451  isManager[msg.sender] || msg.sender == owner() */\n    tag_102:\n        /* \"C/corporate treasury.sol\":2397:2470  require(isManager[msg.sender] || msg.sender == owner(), \"Not authorized\") */\n      tag_104\n      jumpi\n      mload(0x40)\n      0x08c379a000000000000000000000000000000000000000000000000000000000\n      dup2\n      mstore\n      0x04\n      add\n      tag_105\n      swap1\n      tag_106\n      jump\t// in\n    tag_105:\n      mload(0x40)\n      dup1\n      swap2\n      sub\n      swap1\n      revert\n    tag_104:\n        /* \"@openzeppelin/contracts/security/ReentrancyGuard.sol\":2261:2282  _nonReentrantBefore() */\n      tag_108\n        /* \"@openzeppelin/contracts/security/ReentrancyGuard.sol\":2261:2280  _nonReentrantBefore */\n      tag_109\n        /* \"@openzeppelin/contracts/security/ReentrancyGuard.sol\":2261:2282  _nonReentrantBefore() */\n      jump\t// in\n    tag_108:\n        /* \"C/corporate treasury.sol\":5720:5753  SpendingProposal storage proposal */\n      0x00\n        /* \"C/corporate treasury.sol\":5756:5765  proposals */\n      0x05\n        /* \"C/corporate treasury.sol\":5756:5777  proposals[proposalId] */\n      0x00\n        /* \"C/corporate treasury.sol\":5766:5776  proposalId */\n      dup5\n        /* \"C/corporate treasury.sol\":5756:5777  proposals[proposalId] */\n      dup2\n      mstore\n      0x20\n      add\n      swap1\n      dup2\n      mstore\n      0x20\n      add\n      0x00\n      keccak256\n        /* \"C/corporate treasury.sol\":5720:5777  SpendingProposal storage proposal = proposals[proposalId] */\n      swap1\n      pop\n        /* \"C/corporate treasury.sol\":5810:5820  proposalId */\n      dup3\n        /* \"C/corporate treasury.sol\":5795:5803  proposal */\n      dup2\n        /* \"C/corporate treasury.sol\":5795:5806  proposal.id */\n      0x00\n      add\n      sload\n        /* \"C/corporate treasury.sol\":5795:5820  proposal.id == proposalId */\n      eq\n        /* \"C/corporate treasury.sol\":5787:5848  require(proposal.id == proposalId, \"Proposal does not exist\") */\n      tag_111\n      jumpi\n      mload(0x40)\n      0x08c379a000000000000000000000000000000000000000000000000000000000\n      dup2\n      mstore\n      0x04\n      add\n      tag_112\n      swap1\n      tag_113\n      jump\t// in\n    tag_112:\n      mload(0x40)\n      dup1\n      swap2\n      sub\n      swap1\n      revert\n    tag_111:\n        /* \"C/corporate treasury.sol\":5867:5875  proposal */\n      dup1\n        /* \"C/corporate treasury.sol\":5867:5884  proposal.executed */\n      0x06\n      add\n      0x00\n      swap1\n      sload\n      swap1\n      0x0100\n      exp\n      swap1\n      div\n      0xff\n      and\n        /* \"C/corporate treasury.sol\":5866:5884  !proposal.executed */\n      iszero\n        /* \"C/corporate treasury.sol\":5858:5914  require(!proposal.executed, \"Proposal already executed\") */\n      tag_114\n      jumpi\n      mload(0x40)\n      0x08c379a000000000000000000000000000000000000000000000000000000000\n      dup2\n      mstore\n      0x04\n      add\n      tag_115\n      swap1\n      tag_116\n      jump\t// in\n    tag_115:\n      mload(0x40)\n      dup1\n      swap2\n      sub\n      swap1\n      revert\n    tag_114:\n        /* \"C/corporate treasury.sol\":5933:5941  proposal */\n      dup1\n        /* \"C/corporate treasury.sol\":5933:5951  proposal.cancelled */\n      0x06\n      add\n      0x01\n      swap1\n      sload\n      swap1\n      0x0100\n      exp\n      swap1\n      div\n      0xff\n      and\n        /* \"C/corporate treasury.sol\":5932:5951  !proposal.cancelled */\n      iszero\n        /* \"C/corporate treasury.sol\":5924:5974  require(!proposal.cancelled, \"Proposal cancelled\") */\n      tag_117\n      jumpi\n      mload(0x40)\n      0x08c379a000000000000000000000000000000000000000000000000000000000\n      dup2\n      mstore\n      0x04\n      add\n      tag_118\n      swap1\n      tag_119\n      jump\t// in\n    tag_118:\n      mload(0x40)\n      dup1\n      swap2\n      sub\n      swap1\n      revert\n    tag_117:\n        /* \"C/corporate treasury.sol\":6011:6019  proposal */\n      dup1\n        /* \"C/corporate treasury.sol\":6011:6032  proposal.executeAfter */\n      0x05\n      add\n      sload\n        /* \"C/corporate treasury.sol\":5992:6007  block.timestamp */\n      timestamp\n        /* \"C/corporate treasury.sol\":5992:6032  block.timestamp >= proposal.executeAfter */\n      lt\n      iszero\n        /* \"C/corporate treasury.sol\":5984:6057  require(block.timestamp >= proposal.executeAfter, \"Timelock not expired\") */\n      tag_120\n      jumpi\n      mload(0x40)\n      0x08c379a000000000000000000000000000000000000000000000000000000000\n      dup2\n      mstore\n      0x04\n      add\n      tag_121\n      swap1\n      tag_122\n      jump\t// in\n    tag_121:\n      mload(0x40)\n      dup1\n      swap2\n      sub\n      swap1\n      revert\n    tag_120:\n        /* \"C/corporate treasury.sol\":6088:6092  true */\n      0x01\n        /* \"C/corporate treasury.sol\":6068:6076  proposal */\n      dup2\n        /* \"C/corporate treasury.sol\":6068:6085  proposal.executed */\n      0x06\n      add\n      0x00\n        /* \"C/corporate treasury.sol\":6068:6092  proposal.executed = true */\n      0x0100\n      exp\n      dup2\n      sload\n      dup2\n      0xff\n      mul\n      not\n      and\n      swap1\n      dup4\n      iszero\n      iszero\n      mul\n      or\n      swap1\n      sstore\n      pop\n        /* \"C/corporate treasury.sol\":6103:6115  bool success */\n      0x00\n        /* \"C/corporate treasury.sol\":6117:6133  bytes memory res */\n      dup1\n        /* \"C/corporate treasury.sol\":6137:6145  proposal */\n      dup3\n        /* \"C/corporate treasury.sol\":6137:6155  proposal.recipient */\n      0x02\n      add\n      0x00\n      swap1\n      sload\n      swap1\n      0x0100\n      exp\n      swap1\n      div\n      0xffffffffffffffffffffffffffffffffffffffff\n      and\n        /* \"C/corporate treasury.sol\":6137:6160  proposal.recipient.call */\n      0xffffffffffffffffffffffffffffffffffffffff\n      and\n        /* \"C/corporate treasury.sol\":6168:6176  proposal */\n      dup4\n        /* \"C/corporate treasury.sol\":6168:6183  proposal.amount */\n      0x03\n      add\n      sload\n        /* \"C/corporate treasury.sol\":6137:6188  proposal.recipient.call{value: proposal.amount}(\"\") */\n      mload(0x40)\n      tag_123\n      swap1\n      tag_124\n      jump\t// in\n    tag_123:\n      0x00\n      mload(0x40)\n      dup1\n      dup4\n      sub\n      dup2\n      dup6\n      dup8\n      gas\n      call\n      swap3\n      pop\n      pop\n      pop\n      returndatasize\n      dup1\n      0x00\n      dup2\n      eq\n      tag_127\n      jumpi\n      mload(0x40)\n      swap2\n      pop\n      and(add(returndatasize, 0x3f), not(0x1f))\n      dup3\n      add\n      0x40\n      mstore\n      returndatasize\n      dup3\n      mstore\n      returndatasize\n      0x00\n      0x20\n      dup5\n      add\n      returndatacopy\n      jump(tag_126)\n    tag_127:\n      0x60\n      swap2\n      pop\n    tag_126:\n      pop\n        /* \"C/corporate treasury.sol\":6102:6188  (bool success, bytes memory res) = proposal.recipient.call{value: proposal.amount}(\"\") */\n      swap2\n      pop\n      swap2\n      pop\n        /* \"C/corporate treasury.sol\":6206:6213  success */\n      dup2\n        /* \"C/corporate treasury.sol\":6198:6238  require(success, \"Fund transfer failed\") */\n      tag_128\n      jumpi\n      mload(0x40)\n      0x08c379a000000000000000000000000000000000000000000000000000000000\n      dup2\n      mstore\n      0x04\n      add\n      tag_129\n      swap1\n      tag_130\n      jump\t// in\n    tag_129:\n      mload(0x40)\n      dup1\n      swap2\n      sub\n      swap1\n      revert\n    tag_128:\n        /* \"C/corporate treasury.sol\":6257:6260  res */\n      dup1\n        /* \"C/corporate treasury.sol\":6248:6260  result = res */\n      swap4\n      pop\n        /* \"C/corporate treasury.sol\":6305:6313  proposal */\n      dup3\n        /* \"C/corporate treasury.sol\":6305:6323  proposal.recipient */\n      0x02\n      add\n      0x00\n      swap1\n      sload\n      swap1\n      0x0100\n      exp\n      swap1\n      div\n      0xffffffffffffffffffffffffffffffffffffffff\n      and\n        /* \"C/corporate treasury.sol\":6276:6341  ProposalExecuted(proposalId, proposal.recipient, proposal.amount) */\n      0xffffffffffffffffffffffffffffffffffffffff\n      and\n        /* \"C/corporate treasury.sol\":6293:6303  proposalId */\n      dup6\n        /* \"C/corporate treasury.sol\":6276:6341  ProposalExecuted(proposalId, proposal.recipient, proposal.amount) */\n      0x3b7c90df35b419337cff0919fe91849006607bb66c4373623f06f9d48c1ebb98\n        /* \"C/corporate treasury.sol\":6325:6333  proposal */\n      dup6\n        /* \"C/corporate treasury.sol\":6325:6340  proposal.amount */\n      0x03\n      add\n      sload\n        /* \"C/corporate treasury.sol\":6276:6341  ProposalExecuted(proposalId, proposal.recipient, proposal.amount) */\n      mload(0x40)\n      tag_131\n      swap2\n      swap1\n      tag_23\n      jump\t// in\n    tag_131:\n      mload(0x40)\n      dup1\n      swap2\n      sub\n      swap1\n      log3\n        /* \"C/corporate treasury.sol\":5710:6348  {... */\n      pop\n      pop\n      pop\n        /* \"@openzeppelin/contracts/security/ReentrancyGuard.sol\":2303:2323  _nonReentrantAfter() */\n      tag_132\n        /* \"@openzeppelin/contracts/security/ReentrancyGuard.sol\":2303:2321  _nonReentrantAfter */\n      tag_133\n        /* \"@openzeppelin/contracts/security/ReentrancyGuard.sol\":2303:2323  _nonReentrantAfter() */\n      jump\t// in\n    tag_132:\n        /* \"C/corporate treasury.sol\":5601:6348  function executeProposal(uint256 proposalId) external onlyManager nonReentrant returns (bytes memory result) {... */\n      swap2\n      swap1\n      pop\n      jump\t// out\n        /* \"C/corporate treasury.sol\":1279:1308  uint256 public nextProposalId */\n    tag_42:\n      sload(0x04)\n      dup2\n      jump\t// out\n        /* \"C/corporate treasury.sol\":2619:2909  function addManager(address _manager) external onlyOwner {... */\n    tag_48:\n        /* \"@openzeppelin/contracts/access/Ownable.sol\":1531:1544  _checkOwner() */\n      tag_135\n        /* \"@openzeppelin/contracts/access/Ownable.sol\":1531:1542  _checkOwner */\n      tag_136\n        /* \"@openzeppelin/contracts/access/Ownable.sol\":1531:1544  _checkOwner() */\n      jump\t// in\n    tag_135:\n        /* \"C/corporate treasury.sol\":2714:2715  0 */\n      0x00\n        /* \"C/corporate treasury.sol\":2694:2716  _manager != address(0) */\n      0xffffffffffffffffffffffffffffffffffffffff\n      and\n        /* \"C/corporate treasury.sol\":2694:2702  _manager */\n      dup2\n        /* \"C/corporate treasury.sol\":2694:2716  _manager != address(0) */\n      0xffffffffffffffffffffffffffffffffffffffff\n      and\n      sub\n        /* \"C/corporate treasury.sol\":2686:2736  require(_manager != address(0), \"Invalid address\") */\n      tag_138\n      jumpi\n      mload(0x40)\n      0x08c379a000000000000000000000000000000000000000000000000000000000\n      dup2\n      mstore\n      0x04\n      add\n      tag_139\n      swap1\n      tag_140\n      jump\t// in\n    tag_139:\n      mload(0x40)\n      dup1\n      swap2\n      sub\n      swap1\n      revert\n    tag_138:\n        /* \"C/corporate treasury.sol\":2755:2764  isManager */\n      0x02\n        /* \"C/corporate treasury.sol\":2755:2774  isManager[_manager] */\n      0x00\n        /* \"C/corporate treasury.sol\":2765:2773  _manager */\n      dup3\n        /* \"C/corporate treasury.sol\":2755:2774  isManager[_manager] */\n      0xffffffffffffffffffffffffffffffffffffffff\n      and\n      0xffffffffffffffffffffffffffffffffffffffff\n      and\n      dup2\n      mstore\n      0x20\n      add\n      swap1\n      dup2\n      mstore\n      0x20\n      add\n      0x00\n      keccak256\n      0x00\n      swap1\n      sload\n      swap1\n      0x0100\n      exp\n      swap1\n      div\n      0xff\n      and\n        /* \"C/corporate treasury.sol\":2754:2774  !isManager[_manager] */\n      iszero\n        /* \"C/corporate treasury.sol\":2746:2796  require(!isManager[_manager], \"Already a manager\") */\n      tag_141\n      jumpi\n      mload(0x40)\n      0x08c379a000000000000000000000000000000000000000000000000000000000\n      dup2\n      mstore\n      0x04\n      add\n      tag_142\n      swap1\n      tag_143\n      jump\t// in\n    tag_142:\n      mload(0x40)\n      dup1\n      swap2\n      sub\n      swap1\n      revert\n    tag_141:\n        /* \"C/corporate treasury.sol\":2828:2832  true */\n      0x01\n        /* \"C/corporate treasury.sol\":2806:2815  isManager */\n      0x02\n        /* \"C/corporate treasury.sol\":2806:2825  isManager[_manager] */\n      0x00\n        /* \"C/corporate treasury.sol\":2816:2824  _manager */\n      dup4\n        /* \"C/corporate treasury.sol\":2806:2825  isManager[_manager] */\n      0xffffffffffffffffffffffffffffffffffffffff\n      and\n      0xffffffffffffffffffffffffffffffffffffffff\n      and\n      dup2\n      mstore\n      0x20\n      add\n      swap1\n      dup2\n      mstore\n      0x20\n      add\n      0x00\n      keccak256\n      0x00\n        /* \"C/corporate treasury.sol\":2806:2832  isManager[_manager] = true */\n      0x0100\n      exp\n      dup2\n      sload\n      dup2\n      0xff\n      mul\n      not\n      and\n      swap1\n      dup4\n      iszero\n      iszero\n      mul\n      or\n      swap1\n      sstore\n      pop\n        /* \"C/corporate treasury.sol\":2842:2850  managers */\n      0x03\n        /* \"C/corporate treasury.sol\":2856:2864  _manager */\n      dup2\n        /* \"C/corporate treasury.sol\":2842:2865  managers.push(_manager) */\n      swap1\n      dup1\n      0x01\n      dup2\n      sload\n      add\n      dup1\n      dup3\n      sstore\n      dup1\n      swap2\n      pop\n      pop\n      0x01\n      swap1\n      sub\n      swap1\n      0x00\n      mstore\n      keccak256(0x00, 0x20)\n      add\n      0x00\n      swap1\n      swap2\n      swap1\n      swap2\n      swap1\n      swap2\n      0x0100\n      exp\n      dup2\n      sload\n      dup2\n      0xffffffffffffffffffffffffffffffffffffffff\n      mul\n      not\n      and\n      swap1\n      dup4\n      0xffffffffffffffffffffffffffffffffffffffff\n      and\n      mul\n      or\n      swap1\n      sstore\n      pop\n        /* \"C/corporate treasury.sol\":2893:2901  _manager */\n      dup1\n        /* \"C/corporate treasury.sol\":2880:2902  ManagerAdded(_manager) */\n      0xffffffffffffffffffffffffffffffffffffffff\n      and\n      0x3b4a40cccf2058c593542587329dd385be4f0b588db5471fbd9598e56dd7093a\n      mload(0x40)\n      mload(0x40)\n      dup1\n      swap2\n      sub\n      swap1\n      log2\n        /* \"C/corporate treasury.sol\":2619:2909  function addManager(address _manager) external onlyOwner {... */\n      pop\n      jump\t// out\n        /* \"C/corporate treasury.sol\":3829:4750  function proposeExpenditure(... */\n    tag_53:\n        /* \"C/corporate treasury.sol\":4005:4023  uint256 proposalId */\n      0x00\n        /* \"C/corporate treasury.sol\":2405:2414  isManager */\n      0x02\n        /* \"C/corporate treasury.sol\":2405:2426  isManager[msg.sender] */\n      0x00\n        /* \"C/corporate treasury.sol\":2415:2425  msg.sender */\n      caller\n        /* \"C/corporate treasury.sol\":2405:2426  isManager[msg.sender] */\n      0xffffffffffffffffffffffffffffffffffffffff\n      and\n      0xffffffffffffffffffffffffffffffffffffffff\n      and\n      dup2\n      mstore\n      0x20\n      add\n      swap1\n      dup2\n      mstore\n      0x20\n      add\n      0x00\n      keccak256\n      0x00\n      swap1\n      sload\n      swap1\n      0x0100\n      exp\n      swap1\n      div\n      0xff\n      and\n        /* \"C/corporate treasury.sol\":2405:2451  isManager[msg.sender] || msg.sender == owner() */\n      dup1\n      tag_146\n      jumpi\n      pop\n        /* \"C/corporate treasury.sol\":2444:2451  owner() */\n      tag_147\n        /* \"C/corporate treasury.sol\":2444:2449  owner */\n      tag_70\n        /* \"C/corporate treasury.sol\":2444:2451  owner() */\n      jump\t// in\n    tag_147:\n        /* \"C/corporate treasury.sol\":2430:2451  msg.sender == owner() */\n      0xffffffffffffffffffffffffffffffffffffffff\n      and\n        /* \"C/corporate treasury.sol\":2430:2440  msg.sender */\n      caller\n        /* \"C/corporate treasury.sol\":2430:2451  msg.sender == owner() */\n      0xffffffffffffffffffffffffffffffffffffffff\n      and\n      eq\n        /* \"C/corporate treasury.sol\":2405:2451  isManager[msg.sender] || msg.sender == owner() */\n    tag_146:\n        /* \"C/corporate treasury.sol\":2397:2470  require(isManager[msg.sender] || msg.sender == owner(), \"Not authorized\") */\n      tag_148\n      jumpi\n      mload(0x40)\n      0x08c379a000000000000000000000000000000000000000000000000000000000\n      dup2\n      mstore\n      0x04\n      add\n      tag_149\n      swap1\n      tag_106\n      jump\t// in\n    tag_149:\n      mload(0x40)\n      dup1\n      swap2\n      sub\n      swap1\n      revert\n    tag_148:\n        /* \"@openzeppelin/contracts/security/ReentrancyGuard.sol\":2261:2282  _nonReentrantBefore() */\n      tag_151\n        /* \"@openzeppelin/contracts/security/ReentrancyGuard.sol\":2261:2280  _nonReentrantBefore */\n      tag_109\n        /* \"@openzeppelin/contracts/security/ReentrancyGuard.sol\":2261:2282  _nonReentrantBefore() */\n      jump\t// in\n    tag_151:\n        /* \"C/corporate treasury.sol\":4065:4066  0 */\n      0x00\n        /* \"C/corporate treasury.sol\":4043:4067  _recipient != address(0) */\n      0xffffffffffffffffffffffffffffffffffffffff\n      and\n        /* \"C/corporate treasury.sol\":4043:4053  _recipient */\n      dup4\n        /* \"C/corporate treasury.sol\":4043:4067  _recipient != address(0) */\n      0xffffffffffffffffffffffffffffffffffffffff\n      and\n      sub\n        /* \"C/corporate treasury.sol\":4035:4089  require(_recipient != address(0), \"Invalid recipient\") */\n      tag_153\n      jumpi\n      mload(0x40)\n      0x08c379a000000000000000000000000000000000000000000000000000000000\n      dup2\n      mstore\n      0x04\n      add\n      tag_154\n      swap1\n      tag_155\n      jump\t// in\n    tag_154:\n      mload(0x40)\n      dup1\n      swap2\n      sub\n      swap1\n      revert\n    tag_153:\n        /* \"C/corporate treasury.sol\":4117:4118  0 */\n      0x00\n        /* \"C/corporate treasury.sol\":4107:4114  _amount */\n      dup3\n        /* \"C/corporate treasury.sol\":4107:4118  _amount > 0 */\n      gt\n        /* \"C/corporate treasury.sol\":4099:4141  require(_amount > 0, \"Amount must be > 0\") */\n      tag_156\n      jumpi\n      mload(0x40)\n      0x08c379a000000000000000000000000000000000000000000000000000000000\n      dup2\n      mstore\n      0x04\n      add\n      tag_157\n      swap1\n      tag_158\n      jump\t// in\n    tag_157:\n      mload(0x40)\n      dup1\n      swap2\n      sub\n      swap1\n      revert\n    tag_156:\n        /* \"C/corporate treasury.sol\":4184:4191  _amount */\n      dup2\n        /* \"C/corporate treasury.sol\":4159:4180  address(this).balance */\n      selfbalance\n        /* \"C/corporate treasury.sol\":4159:4191  address(this).balance >= _amount */\n      lt\n      iszero\n        /* \"C/corporate treasury.sol\":4151:4225  require(address(this).balance >= _amount, \"Insufficient treasury balance\") */\n      tag_159\n      jumpi\n      mload(0x40)\n      0x08c379a000000000000000000000000000000000000000000000000000000000\n      dup2\n      mstore\n      0x04\n      add\n      tag_160\n      swap1\n      tag_161\n      jump\t// in\n    tag_160:\n      mload(0x40)\n      dup1\n      swap2\n      sub\n      swap1\n      revert\n    tag_159:\n        /* \"C/corporate treasury.sol\":4249:4263  nextProposalId */\n      sload(0x04)\n        /* \"C/corporate treasury.sol\":4236:4263  proposalId = nextProposalId */\n      swap1\n      pop\n        /* \"C/corporate treasury.sol\":4273:4287  nextProposalId */\n      0x04\n      0x00\n        /* \"C/corporate treasury.sol\":4273:4289  nextProposalId++ */\n      dup2\n      sload\n      dup1\n      swap3\n      swap2\n      swap1\n      tag_162\n      swap1\n      tag_163\n      jump\t// in\n    tag_162:\n      swap2\n      swap1\n      pop\n      sstore\n      pop\n        /* \"C/corporate treasury.sol\":4324:4637  SpendingProposal({... */\n      mload(0x40)\n      dup1\n      0x0100\n      add\n      0x40\n      mstore\n      dup1\n        /* \"C/corporate treasury.sol\":4359:4369  proposalId */\n      dup3\n        /* \"C/corporate treasury.sol\":4324:4637  SpendingProposal({... */\n      dup2\n      mstore\n      0x20\n      add\n        /* \"C/corporate treasury.sol\":4396:4408  _description */\n      dup7\n      dup7\n        /* \"C/corporate treasury.sol\":4324:4637  SpendingProposal({... */\n      dup1\n      dup1\n      0x1f\n      add\n      0x20\n      dup1\n      swap2\n      div\n      mul\n      0x20\n      add\n      mload(0x40)\n      swap1\n      dup2\n      add\n      0x40\n      mstore\n      dup1\n      swap4\n      swap3\n      swap2\n      swap1\n      dup2\n      dup2\n      mstore\n      0x20\n      add\n      dup4\n      dup4\n      dup1\n      dup3\n      dup5\n      calldatacopy\n      0x00\n      dup2\n      dup5\n      add\n      mstore\n      not(0x1f)\n      0x1f\n      dup3\n      add\n      and\n      swap1\n      pop\n      dup1\n      dup4\n      add\n      swap3\n      pop\n      pop\n      pop\n      pop\n      pop\n      pop\n      pop\n      dup2\n      mstore\n      0x20\n      add\n        /* \"C/corporate treasury.sol\":4433:4443  _recipient */\n      dup5\n        /* \"C/corporate treasury.sol\":4324:4637  SpendingProposal({... */\n      0xffffffffffffffffffffffffffffffffffffffff\n      and\n      dup2\n      mstore\n      0x20\n      add\n        /* \"C/corporate treasury.sol\":4465:4472  _amount */\n      dup4\n        /* \"C/corporate treasury.sol\":4324:4637  SpendingProposal({... */\n      dup2\n      mstore\n      0x20\n      add\n        /* \"C/corporate treasury.sol\":4498:4513  block.timestamp */\n      timestamp\n        /* \"C/corporate treasury.sol\":4324:4637  SpendingProposal({... */\n      dup2\n      mstore\n      0x20\n      add\n        /* \"C/corporate treasury.sol\":1457:1463  1 days */\n      0x015180\n        /* \"C/corporate treasury.sol\":4541:4556  block.timestamp */\n      timestamp\n        /* \"C/corporate treasury.sol\":4541:4567  block.timestamp + TIMELOCK */\n      tag_164\n      swap2\n      swap1\n      tag_165\n      jump\t// in\n    tag_164:\n        /* \"C/corporate treasury.sol\":4324:4637  SpendingProposal({... */\n      dup2\n      mstore\n      0x20\n      add\n        /* \"C/corporate treasury.sol\":4591:4596  false */\n      0x00\n        /* \"C/corporate treasury.sol\":4324:4637  SpendingProposal({... */\n      iszero\n      iszero\n      dup2\n      mstore\n      0x20\n      add\n        /* \"C/corporate treasury.sol\":4621:4626  false */\n      0x00\n        /* \"C/corporate treasury.sol\":4324:4637  SpendingProposal({... */\n      iszero\n      iszero\n      dup2\n      mstore\n      pop\n        /* \"C/corporate treasury.sol\":4300:4309  proposals */\n      0x05\n        /* \"C/corporate treasury.sol\":4300:4321  proposals[proposalId] */\n      0x00\n        /* \"C/corporate treasury.sol\":4310:4320  proposalId */\n      dup4\n        /* \"C/corporate treasury.sol\":4300:4321  proposals[proposalId] */\n      dup2\n      mstore\n      0x20\n      add\n      swap1\n      dup2\n      mstore\n      0x20\n      add\n      0x00\n      keccak256\n        /* \"C/corporate treasury.sol\":4300:4637  proposals[proposalId] = SpendingProposal({... */\n      0x00\n      dup3\n      add\n      mload\n      dup2\n      0x00\n      add\n      sstore\n      0x20\n      dup3\n      add\n      mload\n      dup2\n      0x01\n      add\n      swap1\n      dup2\n      tag_166\n      swap2\n      swap1\n      tag_167\n      jump\t// in\n    tag_166:\n      pop\n      0x40\n      dup3\n      add\n      mload\n      dup2\n      0x02\n      add\n      exp(0x0100, 0x00)\n      dup2\n      sload\n      dup2\n      0xffffffffffffffffffffffffffffffffffffffff\n      mul\n      not\n      and\n      swap1\n      dup4\n      0xffffffffffffffffffffffffffffffffffffffff\n      and\n      mul\n      or\n      swap1\n      sstore\n      pop\n      0x60\n      dup3\n      add\n      mload\n      dup2\n      0x03\n      add\n      sstore\n      0x80\n      dup3\n      add\n      mload\n      dup2\n      0x04\n      add\n      sstore\n      0xa0\n      dup3\n      add\n      mload\n      dup2\n      0x05\n      add\n      sstore\n      0xc0\n      dup3\n      add\n      mload\n      dup2\n      0x06\n      add\n      exp(0x0100, 0x00)\n      dup2\n      sload\n      dup2\n      0xff\n      mul\n      not\n      and\n      swap1\n      dup4\n      iszero\n      iszero\n      mul\n      or\n      swap1\n      sstore\n      pop\n      0xe0\n      dup3\n      add\n      mload\n      dup2\n      0x06\n      add\n      exp(0x0100, 0x01)\n      dup2\n      sload\n      dup2\n      0xff\n      mul\n      not\n      and\n      swap1\n      dup4\n      iszero\n      iszero\n      mul\n      or\n      swap1\n      sstore\n      pop\n      swap1\n      pop\n      pop\n        /* \"C/corporate treasury.sol\":4695:4705  _recipient */\n      dup3\n        /* \"C/corporate treasury.sol\":4653:4743  ProposalCreated(proposalId, _description, _recipient, _amount, block.timestamp + TIMELOCK) */\n      0xffffffffffffffffffffffffffffffffffffffff\n      and\n        /* \"C/corporate treasury.sol\":4669:4679  proposalId */\n      dup2\n        /* \"C/corporate treasury.sol\":4653:4743  ProposalCreated(proposalId, _description, _recipient, _amount, block.timestamp + TIMELOCK) */\n      0x331b791e5a0526c6d6f17a46c1d4139542c8579c245d9f8082d0b1462942f4fa\n        /* \"C/corporate treasury.sol\":4681:4693  _description */\n      dup8\n      dup8\n        /* \"C/corporate treasury.sol\":4707:4714  _amount */\n      dup7\n        /* \"C/corporate treasury.sol\":1457:1463  1 days */\n      0x015180\n        /* \"C/corporate treasury.sol\":4716:4731  block.timestamp */\n      timestamp\n        /* \"C/corporate treasury.sol\":4716:4742  block.timestamp + TIMELOCK */\n      tag_168\n      swap2\n      swap1\n      tag_165\n      jump\t// in\n    tag_168:\n        /* \"C/corporate treasury.sol\":4653:4743  ProposalCreated(proposalId, _description, _recipient, _amount, block.timestamp + TIMELOCK) */\n      mload(0x40)\n      tag_169\n      swap5\n      swap4\n      swap3\n      swap2\n      swap1\n      tag_170\n      jump\t// in\n    tag_169:\n      mload(0x40)\n      dup1\n      swap2\n      sub\n      swap1\n      log3\n        /* \"@openzeppelin/contracts/security/ReentrancyGuard.sol\":2303:2323  _nonReentrantAfter() */\n      tag_171\n        /* \"@openzeppelin/contracts/security/ReentrancyGuard.sol\":2303:2321  _nonReentrantAfter */\n      tag_133\n        /* \"@openzeppelin/contracts/security/ReentrancyGuard.sol\":2303:2323  _nonReentrantAfter() */\n      jump\t// in\n    tag_171:\n        /* \"C/corporate treasury.sol\":3829:4750  function proposeExpenditure(... */\n      swap5\n      swap4\n      pop\n      pop\n      pop\n      pop\n      jump\t// out\n        /* \"C/corporate treasury.sol\":932:957  address[] public managers */\n    tag_58:\n      0x03\n      dup2\n      dup2\n      sload\n      dup2\n      lt\n      tag_172\n      jumpi\n      0x00\n      dup1\n      revert\n    tag_172:\n      swap1\n      0x00\n      mstore\n      keccak256(0x00, 0x20)\n      add\n      0x00\n      swap2\n      pop\n      sload\n      swap1\n      0x0100\n      exp\n      swap1\n      div\n      0xffffffffffffffffffffffffffffffffffffffff\n      and\n      dup2\n      jump\t// out\n        /* \"@openzeppelin/contracts/access/Ownable.sol\":2293:2394  function renounceOwnership() public virtual onlyOwner {... */\n    tag_63:\n        /* \"@openzeppelin/contracts/access/Ownable.sol\":1531:1544  _checkOwner() */\n      tag_175\n        /* \"@openzeppelin/contracts/access/Ownable.sol\":1531:1542  _checkOwner */\n      tag_136\n        /* \"@openzeppelin/contracts/access/Ownable.sol\":1531:1544  _checkOwner() */\n      jump\t// in\n    tag_175:\n        /* \"@openzeppelin/contracts/access/Ownable.sol\":2357:2387  _transferOwnership(address(0)) */\n      tag_177\n        /* \"@openzeppelin/contracts/access/Ownable.sol\":2384:2385  0 */\n      0x00\n        /* \"@openzeppelin/contracts/access/Ownable.sol\":2357:2375  _transferOwnership */\n      tag_178\n        /* \"@openzeppelin/contracts/access/Ownable.sol\":2357:2387  _transferOwnership(address(0)) */\n      jump\t// in\n    tag_177:\n        /* \"@openzeppelin/contracts/access/Ownable.sol\":2293:2394  function renounceOwnership() public virtual onlyOwner {... */\n      jump\t// out\n        /* \"C/corporate treasury.sol\":1422:1463  uint256 public constant TIMELOCK = 1 days */\n    tag_66:\n        /* \"C/corporate treasury.sol\":1457:1463  1 days */\n      0x015180\n        /* \"C/corporate treasury.sol\":1422:1463  uint256 public constant TIMELOCK = 1 days */\n      dup2\n      jump\t// out\n        /* \"@openzeppelin/contracts/access/Ownable.sol\":1638:1723  function owner() public view virtual returns (address) {... */\n    tag_70:\n        /* \"@openzeppelin/contracts/access/Ownable.sol\":1684:1691  address */\n      0x00\n        /* \"@openzeppelin/contracts/access/Ownable.sol\":1710:1716  _owner */\n      dup1\n      0x00\n      swap1\n      sload\n      swap1\n      0x0100\n      exp\n      swap1\n      div\n      0xffffffffffffffffffffffffffffffffffffffff\n      and\n        /* \"@openzeppelin/contracts/access/Ownable.sol\":1703:1716  return _owner */\n      swap1\n      pop\n        /* \"@openzeppelin/contracts/access/Ownable.sol\":1638:1723  function owner() public view virtual returns (address) {... */\n      swap1\n      jump\t// out\n        /* \"C/corporate treasury.sol\":3032:3508  function removeManager(address _manager) external onlyOwner {... */\n    tag_75:\n        /* \"@openzeppelin/contracts/access/Ownable.sol\":1531:1544  _checkOwner() */\n      tag_181\n        /* \"@openzeppelin/contracts/access/Ownable.sol\":1531:1542  _checkOwner */\n      tag_136\n        /* \"@openzeppelin/contracts/access/Ownable.sol\":1531:1544  _checkOwner() */\n      jump\t// in\n    tag_181:\n        /* \"C/corporate treasury.sol\":3110:3119  isManager */\n      0x02\n        /* \"C/corporate treasury.sol\":3110:3129  isManager[_manager] */\n      0x00\n        /* \"C/corporate treasury.sol\":3120:3128  _manager */\n      dup3\n        /* \"C/corporate treasury.sol\":3110:3129  isManager[_manager] */\n      0xffffffffffffffffffffffffffffffffffffffff\n      and\n      0xffffffffffffffffffffffffffffffffffffffff\n      and\n      dup2\n      mstore\n      0x20\n      add\n      swap1\n      dup2\n      mstore\n      0x20\n      add\n      0x00\n      keccak256\n      0x00\n      swap1\n      sload\n      swap1\n      0x0100\n      exp\n      swap1\n      div\n      0xff\n      and\n        /* \"C/corporate treasury.sol\":3102:3147  require(isManager[_manager], \"Not a manager\") */\n      tag_183\n      jumpi\n      mload(0x40)\n      0x08c379a000000000000000000000000000000000000000000000000000000000\n      dup2\n      mstore\n      0x04\n      add\n      tag_184\n      swap1\n      tag_185\n      jump\t// in\n    tag_184:\n      mload(0x40)\n      dup1\n      swap2\n      sub\n      swap1\n      revert\n    tag_183:\n        /* \"C/corporate treasury.sol\":3179:3184  false */\n      0x00\n        /* \"C/corporate treasury.sol\":3157:3166  isManager */\n      0x02\n        /* \"C/corporate treasury.sol\":3157:3176  isManager[_manager] */\n      0x00\n        /* \"C/corporate treasury.sol\":3167:3175  _manager */\n      dup4\n        /* \"C/corporate treasury.sol\":3157:3176  isManager[_manager] */\n      0xffffffffffffffffffffffffffffffffffffffff\n      and\n      0xffffffffffffffffffffffffffffffffffffffff\n      and\n      dup2\n      mstore\n      0x20\n      add\n      swap1\n      dup2\n      mstore\n      0x20\n      add\n      0x00\n      keccak256\n      0x00\n        /* \"C/corporate treasury.sol\":3157:3184  isManager[_manager] = false */\n      0x0100\n      exp\n      dup2\n      sload\n      dup2\n      0xff\n      mul\n      not\n      and\n      swap1\n      dup4\n      iszero\n      iszero\n      mul\n      or\n      swap1\n      sstore\n      pop\n        /* \"C/corporate treasury.sol\":3238:3247  uint256 i */\n      0x00\n        /* \"C/corporate treasury.sol\":3233:3463  for (uint256 i = 0; i < managers.length; i++) {... */\n    tag_186:\n        /* \"C/corporate treasury.sol\":3257:3265  managers */\n      0x03\n        /* \"C/corporate treasury.sol\":3257:3272  managers.length */\n      dup1\n      sload\n      swap1\n      pop\n        /* \"C/corporate treasury.sol\":3253:3254  i */\n      dup2\n        /* \"C/corporate treasury.sol\":3253:3272  i < managers.length */\n      lt\n        /* \"C/corporate treasury.sol\":3233:3463  for (uint256 i = 0; i < managers.length; i++) {... */\n      iszero\n      tag_187\n      jumpi\n        /* \"C/corporate treasury.sol\":3312:3320  _manager */\n      dup2\n        /* \"C/corporate treasury.sol\":3297:3320  managers[i] == _manager */\n      0xffffffffffffffffffffffffffffffffffffffff\n      and\n        /* \"C/corporate treasury.sol\":3297:3305  managers */\n      0x03\n        /* \"C/corporate treasury.sol\":3306:3307  i */\n      dup3\n        /* \"C/corporate treasury.sol\":3297:3308  managers[i] */\n      dup2\n      sload\n      dup2\n      lt\n      tag_189\n      jumpi\n      tag_190\n      tag_191\n      jump\t// in\n    tag_190:\n    tag_189:\n      swap1\n      0x00\n      mstore\n      keccak256(0x00, 0x20)\n      add\n      0x00\n      swap1\n      sload\n      swap1\n      0x0100\n      exp\n      swap1\n      div\n      0xffffffffffffffffffffffffffffffffffffffff\n      and\n        /* \"C/corporate treasury.sol\":3297:3320  managers[i] == _manager */\n      0xffffffffffffffffffffffffffffffffffffffff\n      and\n      sub\n        /* \"C/corporate treasury.sol\":3293:3453  if (managers[i] == _manager) {... */\n      tag_193\n      jumpi\n        /* \"C/corporate treasury.sol\":3354:3362  managers */\n      0x03\n        /* \"C/corporate treasury.sol\":3381:3382  1 */\n      0x01\n        /* \"C/corporate treasury.sol\":3363:3371  managers */\n      0x03\n        /* \"C/corporate treasury.sol\":3363:3378  managers.length */\n      dup1\n      sload\n      swap1\n      pop\n        /* \"C/corporate treasury.sol\":3363:3382  managers.length - 1 */\n      tag_194\n      swap2\n      swap1\n      tag_195\n      jump\t// in\n    tag_194:\n        /* \"C/corporate treasury.sol\":3354:3383  managers[managers.length - 1] */\n      dup2\n      sload\n      dup2\n      lt\n      tag_196\n      jumpi\n      tag_197\n      tag_191\n      jump\t// in\n    tag_197:\n    tag_196:\n      swap1\n      0x00\n      mstore\n      keccak256(0x00, 0x20)\n      add\n      0x00\n      swap1\n      sload\n      swap1\n      0x0100\n      exp\n      swap1\n      div\n      0xffffffffffffffffffffffffffffffffffffffff\n      and\n        /* \"C/corporate treasury.sol\":3340:3348  managers */\n      0x03\n        /* \"C/corporate treasury.sol\":3349:3350  i */\n      dup3\n        /* \"C/corporate treasury.sol\":3340:3351  managers[i] */\n      dup2\n      sload\n      dup2\n      lt\n      tag_199\n      jumpi\n      tag_200\n      tag_191\n      jump\t// in\n    tag_200:\n    tag_199:\n      swap1\n      0x00\n      mstore\n      keccak256(0x00, 0x20)\n      add\n      0x00\n        /* \"C/corporate treasury.sol\":3340:3383  managers[i] = managers[managers.length - 1] */\n      0x0100\n      exp\n      dup2\n      sload\n      dup2\n      0xffffffffffffffffffffffffffffffffffffffff\n      mul\n      not\n      and\n      swap1\n      dup4\n      0xffffffffffffffffffffffffffffffffffffffff\n      and\n      mul\n      or\n      swap1\n      sstore\n      pop\n        /* \"C/corporate treasury.sol\":3401:3409  managers */\n      0x03\n        /* \"C/corporate treasury.sol\":3401:3415  managers.pop() */\n      dup1\n      sload\n      dup1\n      tag_202\n      jumpi\n      tag_203\n      tag_204\n      jump\t// in\n    tag_203:\n    tag_202:\n      0x01\n      swap1\n      sub\n      dup2\n      dup2\n      swap1\n      0x00\n      mstore\n      keccak256(0x00, 0x20)\n      add\n      exp(0x0100, 0x00)\n      dup2\n      sload\n      swap1\n      0xffffffffffffffffffffffffffffffffffffffff\n      mul\n      not\n      and\n      swap1\n      sstore\n      swap1\n      sstore\n        /* \"C/corporate treasury.sol\":3433:3438  break */\n      jump(tag_187)\n        /* \"C/corporate treasury.sol\":3293:3453  if (managers[i] == _manager) {... */\n    tag_193:\n        /* \"C/corporate treasury.sol\":3274:3277  i++ */\n      dup1\n      dup1\n      tag_206\n      swap1\n      tag_163\n      jump\t// in\n    tag_206:\n      swap2\n      pop\n      pop\n        /* \"C/corporate treasury.sol\":3233:3463  for (uint256 i = 0; i < managers.length; i++) {... */\n      jump(tag_186)\n    tag_187:\n      pop\n        /* \"C/corporate treasury.sol\":3492:3500  _manager */\n      dup1\n        /* \"C/corporate treasury.sol\":3477:3501  ManagerRemoved(_manager) */\n      0xffffffffffffffffffffffffffffffffffffffff\n      and\n      0xef69f7d97228658c92417be1b16b19058315de71fecb435d07b7d23728b6bd31\n      mload(0x40)\n      mload(0x40)\n      dup1\n      swap2\n      sub\n      swap1\n      log2\n        /* \"C/corporate treasury.sol\":3032:3508  function removeManager(address _manager) external onlyOwner {... */\n      pop\n      jump\t// out\n        /* \"C/corporate treasury.sol\":4923:5360  function cancelProposal(uint256 proposalId) external onlyManager nonReentrant {... */\n    tag_79:\n        /* \"C/corporate treasury.sol\":2405:2414  isManager */\n      0x02\n        /* \"C/corporate treasury.sol\":2405:2426  isManager[msg.sender] */\n      0x00\n        /* \"C/corporate treasury.sol\":2415:2425  msg.sender */\n      caller\n        /* \"C/corporate treasury.sol\":2405:2426  isManager[msg.sender] */\n      0xffffffffffffffffffffffffffffffffffffffff\n      and\n      0xffffffffffffffffffffffffffffffffffffffff\n      and\n      dup2\n      mstore\n      0x20\n      add\n      swap1\n      dup2\n      mstore\n      0x20\n      add\n      0x00\n      keccak256\n      0x00\n      swap1\n      sload\n      swap1\n      0x0100\n      exp\n      swap1\n      div\n      0xff\n      and\n        /* \"C/corporate treasury.sol\":2405:2451  isManager[msg.sender] || msg.sender == owner() */\n      dup1\n      tag_208\n      jumpi\n      pop\n        /* \"C/corporate treasury.sol\":2444:2451  owner() */\n      tag_209\n        /* \"C/corporate treasury.sol\":2444:2449  owner */\n      tag_70\n        /* \"C/corporate treasury.sol\":2444:2451  owner() */\n      jump\t// in\n    tag_209:\n        /* \"C/corporate treasury.sol\":2430:2451  msg.sender == owner() */\n      0xffffffffffffffffffffffffffffffffffffffff\n      and\n        /* \"C/corporate treasury.sol\":2430:2440  msg.sender */\n      caller\n        /* \"C/corporate treasury.sol\":2430:2451  msg.sender == owner() */\n      0xffffffffffffffffffffffffffffffffffffffff\n      and\n      eq\n        /* \"C/corporate treasury.sol\":2405:2451  isManager[msg.sender] || msg.sender == owner() */\n    tag_208:\n        /* \"C/corporate treasury.sol\":2397:2470  require(isManager[msg.sender] || msg.sender == owner(), \"Not authorized\") */\n      tag_210\n      jumpi\n      mload(0x40)\n      0x08c379a000000000000000000000000000000000000000000000000000000000\n      dup2\n      mstore\n      0x04\n      add\n      tag_211\n      swap1\n      tag_106\n      jump\t// in\n    tag_211:\n      mload(0x40)\n      dup1\n      swap2\n      sub\n      swap1\n      revert\n    tag_210:\n        /* \"@openzeppelin/contracts/security/ReentrancyGuard.sol\":2261:2282  _nonReentrantBefore() */\n      tag_213\n        /* \"@openzeppelin/contracts/security/ReentrancyGuard.sol\":2261:2280  _nonReentrantBefore */\n      tag_109\n        /* \"@openzeppelin/contracts/security/ReentrancyGuard.sol\":2261:2282  _nonReentrantBefore() */\n      jump\t// in\n    tag_213:\n        /* \"C/corporate treasury.sol\":5011:5044  SpendingProposal storage proposal */\n      0x00\n        /* \"C/corporate treasury.sol\":5047:5056  proposals */\n      0x05\n        /* \"C/corporate treasury.sol\":5047:5068  proposals[proposalId] */\n      0x00\n        /* \"C/corporate treasury.sol\":5057:5067  proposalId */\n      dup4\n        /* \"C/corporate treasury.sol\":5047:5068  proposals[proposalId] */\n      dup2\n      mstore\n      0x20\n      add\n      swap1\n      dup2\n      mstore\n      0x20\n      add\n      0x00\n      keccak256\n        /* \"C/corporate treasury.sol\":5011:5068  SpendingProposal storage proposal = proposals[proposalId] */\n      swap1\n      pop\n        /* \"C/corporate treasury.sol\":5101:5111  proposalId */\n      dup2\n        /* \"C/corporate treasury.sol\":5086:5094  proposal */\n      dup2\n        /* \"C/corporate treasury.sol\":5086:5097  proposal.id */\n      0x00\n      add\n      sload\n        /* \"C/corporate treasury.sol\":5086:5111  proposal.id == proposalId */\n      eq\n        /* \"C/corporate treasury.sol\":5078:5139  require(proposal.id == proposalId, \"Proposal does not exist\") */\n      tag_215\n      jumpi\n      mload(0x40)\n      0x08c379a000000000000000000000000000000000000000000000000000000000\n      dup2\n      mstore\n      0x04\n      add\n      tag_216\n      swap1\n      tag_113\n      jump\t// in\n    tag_216:\n      mload(0x40)\n      dup1\n      swap2\n      sub\n      swap1\n      revert\n    tag_215:\n        /* \"C/corporate treasury.sol\":5158:5166  proposal */\n      dup1\n        /* \"C/corporate treasury.sol\":5158:5175  proposal.executed */\n      0x06\n      add\n      0x00\n      swap1\n      sload\n      swap1\n      0x0100\n      exp\n      swap1\n      div\n      0xff\n      and\n        /* \"C/corporate treasury.sol\":5157:5175  !proposal.executed */\n      iszero\n        /* \"C/corporate treasury.sol\":5149:5205  require(!proposal.executed, \"Proposal already executed\") */\n      tag_217\n      jumpi\n      mload(0x40)\n      0x08c379a000000000000000000000000000000000000000000000000000000000\n      dup2\n      mstore\n      0x04\n      add\n      tag_218\n      swap1\n      tag_116\n      jump\t// in\n    tag_218:\n      mload(0x40)\n      dup1\n      swap2\n      sub\n      swap1\n      revert\n    tag_217:\n        /* \"C/corporate treasury.sol\":5224:5232  proposal */\n      dup1\n        /* \"C/corporate treasury.sol\":5224:5242  proposal.cancelled */\n      0x06\n      add\n      0x01\n      swap1\n      sload\n      swap1\n      0x0100\n      exp\n      swap1\n      div\n      0xff\n      and\n        /* \"C/corporate treasury.sol\":5223:5242  !proposal.cancelled */\n      iszero\n        /* \"C/corporate treasury.sol\":5215:5273  require(!proposal.cancelled, \"Proposal already cancelled\") */\n      tag_219\n      jumpi\n      mload(0x40)\n      0x08c379a000000000000000000000000000000000000000000000000000000000\n      dup2\n      mstore\n      0x04\n      add\n      tag_220\n      swap1\n      tag_221\n      jump\t// in\n    tag_220:\n      mload(0x40)\n      dup1\n      swap2\n      sub\n      swap1\n      revert\n    tag_219:\n        /* \"C/corporate treasury.sol\":5305:5309  true */\n      0x01\n        /* \"C/corporate treasury.sol\":5284:5292  proposal */\n      dup2\n        /* \"C/corporate treasury.sol\":5284:5302  proposal.cancelled */\n      0x06\n      add\n      0x01\n        /* \"C/corporate treasury.sol\":5284:5309  proposal.cancelled = true */\n      0x0100\n      exp\n      dup2\n      sload\n      dup2\n      0xff\n      mul\n      not\n      and\n      swap1\n      dup4\n      iszero\n      iszero\n      mul\n      or\n      swap1\n      sstore\n      pop\n        /* \"C/corporate treasury.sol\":5342:5352  proposalId */\n      dup2\n        /* \"C/corporate treasury.sol\":5324:5353  ProposalCancelled(proposalId) */\n      0x416e669c63d9a3a5e36ee7cc7e2104b8db28ccd286aa18966e98fa230c73b08c\n      mload(0x40)\n      mload(0x40)\n      dup1\n      swap2\n      sub\n      swap1\n      log2\n        /* \"C/corporate treasury.sol\":5001:5360  {... */\n      pop\n        /* \"@openzeppelin/contracts/security/ReentrancyGuard.sol\":2303:2323  _nonReentrantAfter() */\n      tag_222\n        /* \"@openzeppelin/contracts/security/ReentrancyGuard.sol\":2303:2321  _nonReentrantAfter */\n      tag_133\n        /* \"@openzeppelin/contracts/security/ReentrancyGuard.sol\":2303:2323  _nonReentrantAfter() */\n      jump\t// in\n    tag_222:\n        /* \"C/corporate treasury.sol\":4923:5360  function cancelProposal(uint256 proposalId) external onlyManager nonReentrant {... */\n      pop\n      jump\t// out\n        /* \"@openzeppelin/contracts/access/Ownable.sol\":2543:2758  function transferOwnership(address newOwner) public virtual onlyOwner {... */\n    tag_83:\n        /* \"@openzeppelin/contracts/access/Ownable.sol\":1531:1544  _checkOwner() */\n      tag_224\n        /* \"@openzeppelin/contracts/access/Ownable.sol\":1531:1542  _checkOwner */\n      tag_136\n        /* \"@openzeppelin/contracts/access/Ownable.sol\":1531:1544  _checkOwner() */\n      jump\t// in\n    tag_224:\n        /* \"@openzeppelin/contracts/access/Ownable.sol\":2647:2648  0 */\n      0x00\n        /* \"@openzeppelin/contracts/access/Ownable.sol\":2627:2649  newOwner == address(0) */\n      0xffffffffffffffffffffffffffffffffffffffff\n      and\n        /* \"@openzeppelin/contracts/access/Ownable.sol\":2627:2635  newOwner */\n      dup2\n        /* \"@openzeppelin/contracts/access/Ownable.sol\":2627:2649  newOwner == address(0) */\n      0xffffffffffffffffffffffffffffffffffffffff\n      and\n      sub\n        /* \"@openzeppelin/contracts/access/Ownable.sol\":2623:2714  if (newOwner == address(0)) {... */\n      tag_226\n      jumpi\n        /* \"@openzeppelin/contracts/access/Ownable.sol\":2700:2701  0 */\n      0x00\n        /* \"@openzeppelin/contracts/access/Ownable.sol\":2672:2703  OwnableInvalidOwner(address(0)) */\n      mload(0x40)\n      0x1e4fbdf700000000000000000000000000000000000000000000000000000000\n      dup2\n      mstore\n      0x04\n      add\n      tag_227\n      swap2\n      swap1\n      tag_60\n      jump\t// in\n    tag_227:\n      mload(0x40)\n      dup1\n      swap2\n      sub\n      swap1\n      revert\n        /* \"@openzeppelin/contracts/access/Ownable.sol\":2623:2714  if (newOwner == address(0)) {... */\n    tag_226:\n        /* \"@openzeppelin/contracts/access/Ownable.sol\":2723:2751  _transferOwnership(newOwner) */\n      tag_228\n        /* \"@openzeppelin/contracts/access/Ownable.sol\":2742:2750  newOwner */\n      dup2\n        /* \"@openzeppelin/contracts/access/Ownable.sol\":2723:2741  _transferOwnership */\n      tag_178\n        /* \"@openzeppelin/contracts/access/Ownable.sol\":2723:2751  _transferOwnership(newOwner) */\n      jump\t// in\n    tag_228:\n        /* \"@openzeppelin/contracts/access/Ownable.sol\":2543:2758  function transferOwnership(address newOwner) public virtual onlyOwner {... */\n      pop\n      jump\t// out\n        /* \"C/corporate treasury.sol\":885:926  mapping(address => bool) public isManager */\n    tag_87:\n      mstore(0x20, 0x02)\n      dup1\n      0x00\n      mstore\n      keccak256(0x00, 0x40)\n      0x00\n      swap2\n      pop\n      sload\n      swap1\n      0x0100\n      exp\n      swap1\n      div\n      0xff\n      and\n      dup2\n      jump\t// out\n        /* \"C/corporate treasury.sol\":6580:6919  function transferToken(IERC20 token, address to, uint256 amount) external onlyOwner nonReentrant {... */\n    tag_94:\n        /* \"@openzeppelin/contracts/access/Ownable.sol\":1531:1544  _checkOwner() */\n      tag_230\n        /* \"@openzeppelin/contracts/access/Ownable.sol\":1531:1542  _checkOwner */\n      tag_136\n        /* \"@openzeppelin/contracts/access/Ownable.sol\":1531:1544  _checkOwner() */\n      jump\t// in\n    tag_230:\n        /* \"@openzeppelin/contracts/security/ReentrancyGuard.sol\":2261:2282  _nonReentrantBefore() */\n      tag_232\n        /* \"@openzeppelin/contracts/security/ReentrancyGuard.sol\":2261:2280  _nonReentrantBefore */\n      tag_109\n        /* \"@openzeppelin/contracts/security/ReentrancyGuard.sol\":2261:2282  _nonReentrantBefore() */\n      jump\t// in\n    tag_232:\n        /* \"C/corporate treasury.sol\":6721:6722  0 */\n      0x00\n        /* \"C/corporate treasury.sol\":6695:6723  address(token) != address(0) */\n      0xffffffffffffffffffffffffffffffffffffffff\n      and\n        /* \"C/corporate treasury.sol\":6703:6708  token */\n      dup4\n        /* \"C/corporate treasury.sol\":6695:6723  address(token) != address(0) */\n      0xffffffffffffffffffffffffffffffffffffffff\n      and\n      sub\n        /* \"C/corporate treasury.sol\":6687:6749  require(address(token) != address(0), \"Invalid token address\") */\n      tag_234\n      jumpi\n      mload(0x40)\n      0x08c379a000000000000000000000000000000000000000000000000000000000\n      dup2\n      mstore\n      0x04\n      add\n      tag_235\n      swap1\n      tag_236\n      jump\t// in\n    tag_235:\n      mload(0x40)\n      dup1\n      swap2\n      sub\n      swap1\n      revert\n    tag_234:\n        /* \"C/corporate treasury.sol\":6781:6782  0 */\n      0x00\n        /* \"C/corporate treasury.sol\":6767:6783  to != address(0) */\n      0xffffffffffffffffffffffffffffffffffffffff\n      and\n        /* \"C/corporate treasury.sol\":6767:6769  to */\n      dup3\n        /* \"C/corporate treasury.sol\":6767:6783  to != address(0) */\n      0xffffffffffffffffffffffffffffffffffffffff\n      and\n      sub\n        /* \"C/corporate treasury.sol\":6759:6813  require(to != address(0), \"Invalid recipient address\") */\n      tag_237\n      jumpi\n      mload(0x40)\n      0x08c379a000000000000000000000000000000000000000000000000000000000\n      dup2\n      mstore\n      0x04\n      add\n      tag_238\n      swap1\n      tag_239\n      jump\t// in\n    tag_238:\n      mload(0x40)\n      dup1\n      swap2\n      sub\n      swap1\n      revert\n    tag_237:\n        /* \"C/corporate treasury.sol\":6823:6853  token.safeTransfer(to, amount) */\n      tag_240\n        /* \"C/corporate treasury.sol\":6842:6844  to */\n      dup3\n        /* \"C/corporate treasury.sol\":6846:6852  amount */\n      dup3\n        /* \"C/corporate treasury.sol\":6823:6828  token */\n      dup6\n        /* \"C/corporate treasury.sol\":6823:6841  token.safeTransfer */\n      0xffffffffffffffffffffffffffffffffffffffff\n      and\n      tag_241\n      swap1\n        /* \"C/corporate treasury.sol\":6823:6853  token.safeTransfer(to, amount) */\n      swap3\n      swap2\n      swap1\n      0xffffffff\n      and\n      jump\t// in\n    tag_240:\n        /* \"C/corporate treasury.sol\":6901:6903  to */\n      dup2\n        /* \"C/corporate treasury.sol\":6868:6912  TokenTransferred(address(token), to, amount) */\n      0xffffffffffffffffffffffffffffffffffffffff\n      and\n        /* \"C/corporate treasury.sol\":6893:6898  token */\n      dup4\n        /* \"C/corporate treasury.sol\":6868:6912  TokenTransferred(address(token), to, amount) */\n      0xffffffffffffffffffffffffffffffffffffffff\n      and\n      0x9c8515990fd8c61431c4ac8db9b81475f90c292a1dda77731e56c22e64fc7643\n        /* \"C/corporate treasury.sol\":6905:6911  amount */\n      dup4\n        /* \"C/corporate treasury.sol\":6868:6912  TokenTransferred(address(token), to, amount) */\n      mload(0x40)\n      tag_242\n      swap2\n      swap1\n      tag_23\n      jump\t// in\n    tag_242:\n      mload(0x40)\n      dup1\n      swap2\n      sub\n      swap1\n      log3\n        /* \"@openzeppelin/contracts/security/ReentrancyGuard.sol\":2303:2323  _nonReentrantAfter() */\n      tag_243\n        /* \"@openzeppelin/contracts/security/ReentrancyGuard.sol\":2303:2321  _nonReentrantAfter */\n      tag_133\n        /* \"@openzeppelin/contracts/security/ReentrancyGuard.sol\":2303:2323  _nonReentrantAfter() */\n      jump\t// in\n    tag_243:\n        /* \"C/corporate treasury.sol\":6580:6919  function transferToken(IERC20 token, address to, uint256 amount) external onlyOwner nonReentrant {... */\n      pop\n      pop\n      pop\n      jump\t// out\n        /* \"@openzeppelin/contracts/security/ReentrancyGuard.sol\":2336:2623  function _nonReentrantBefore() private {... */\n    tag_109:\n        /* \"@openzeppelin/contracts/security/ReentrancyGuard.sol\":1759:1760  2 */\n      0x02\n        /* \"@openzeppelin/contracts/security/ReentrancyGuard.sol\":2468:2475  _status */\n      sload(0x01)\n        /* \"@openzeppelin/contracts/security/ReentrancyGuard.sol\":2468:2487  _status != _ENTERED */\n      sub\n        /* \"@openzeppelin/contracts/security/ReentrancyGuard.sol\":2460:2523  require(_status != _ENTERED, \"ReentrancyGuard: reentrant call\") */\n      tag_245\n      jumpi\n      mload(0x40)\n      0x08c379a000000000000000000000000000000000000000000000000000000000\n      dup2\n      mstore\n      0x04\n      add\n      tag_246\n      swap1\n      tag_247\n      jump\t// in\n    tag_246:\n      mload(0x40)\n      dup1\n      swap2\n      sub\n      swap1\n      revert\n    tag_245:\n        /* \"@openzeppelin/contracts/security/ReentrancyGuard.sol\":1759:1760  2 */\n      0x02\n        /* \"@openzeppelin/contracts/security/ReentrancyGuard.sol\":2598:2605  _status */\n      0x01\n        /* \"@openzeppelin/contracts/security/ReentrancyGuard.sol\":2598:2616  _status = _ENTERED */\n      dup2\n      swap1\n      sstore\n      pop\n        /* \"@openzeppelin/contracts/security/ReentrancyGuard.sol\":2336:2623  function _nonReentrantBefore() private {... */\n      jump\t// out\n        /* \"@openzeppelin/contracts/security/ReentrancyGuard.sol\":2629:2838  function _nonReentrantAfter() private {... */\n    tag_133:\n        /* \"@openzeppelin/contracts/security/ReentrancyGuard.sol\":1716:1717  1 */\n      0x01\n        /* \"@openzeppelin/contracts/security/ReentrancyGuard.sol\":2809:2816  _status */\n      dup1\n        /* \"@openzeppelin/contracts/security/ReentrancyGuard.sol\":2809:2831  _status = _NOT_ENTERED */\n      dup2\n      swap1\n      sstore\n      pop\n        /* \"@openzeppelin/contracts/security/ReentrancyGuard.sol\":2629:2838  function _nonReentrantAfter() private {... */\n      jump\t// out\n        /* \"@openzeppelin/contracts/access/Ownable.sol\":1796:1958  function _checkOwner() internal view virtual {... */\n    tag_136:\n        /* \"@openzeppelin/contracts/access/Ownable.sol\":1866:1878  _msgSender() */\n      tag_250\n        /* \"@openzeppelin/contracts/access/Ownable.sol\":1866:1876  _msgSender */\n      tag_251\n        /* \"@openzeppelin/contracts/access/Ownable.sol\":1866:1878  _msgSender() */\n      jump\t// in\n    tag_250:\n        /* \"@openzeppelin/contracts/access/Ownable.sol\":1855:1878  owner() != _msgSender() */\n      0xffffffffffffffffffffffffffffffffffffffff\n      and\n        /* \"@openzeppelin/contracts/access/Ownable.sol\":1855:1862  owner() */\n      tag_252\n        /* \"@openzeppelin/contracts/access/Ownable.sol\":1855:1860  owner */\n      tag_70\n        /* \"@openzeppelin/contracts/access/Ownable.sol\":1855:1862  owner() */\n      jump\t// in\n    tag_252:\n        /* \"@openzeppelin/contracts/access/Ownable.sol\":1855:1878  owner() != _msgSender() */\n      0xffffffffffffffffffffffffffffffffffffffff\n      and\n      eq\n        /* \"@openzeppelin/contracts/access/Ownable.sol\":1851:1952  if (owner() != _msgSender()) {... */\n      tag_253\n      jumpi\n        /* \"@openzeppelin/contracts/access/Ownable.sol\":1928:1940  _msgSender() */\n      tag_254\n        /* \"@openzeppelin/contracts/access/Ownable.sol\":1928:1938  _msgSender */\n      tag_251\n        /* \"@openzeppelin/contracts/access/Ownable.sol\":1928:1940  _msgSender() */\n      jump\t// in\n    tag_254:\n        /* \"@openzeppelin/contracts/access/Ownable.sol\":1901:1941  OwnableUnauthorizedAccount(_msgSender()) */\n      mload(0x40)\n      0x118cdaa700000000000000000000000000000000000000000000000000000000\n      dup2\n      mstore\n      0x04\n      add\n      tag_255\n      swap2\n      swap1\n      tag_60\n      jump\t// in\n    tag_255:\n      mload(0x40)\n      dup1\n      swap2\n      sub\n      swap1\n      revert\n        /* \"@openzeppelin/contracts/access/Ownable.sol\":1851:1952  if (owner() != _msgSender()) {... */\n    tag_253:\n        /* \"@openzeppelin/contracts/access/Ownable.sol\":1796:1958  function _checkOwner() internal view virtual {... */\n      jump\t// out\n        /* \"@openzeppelin/contracts/access/Ownable.sol\":2912:3099  function _transferOwnership(address newOwner) internal virtual {... */\n    tag_178:\n        /* \"@openzeppelin/contracts/access/Ownable.sol\":2985:3001  address oldOwner */\n      0x00\n        /* \"@openzeppelin/contracts/access/Ownable.sol\":3004:3010  _owner */\n      dup1\n      0x00\n      swap1\n      sload\n      swap1\n      0x0100\n      exp\n      swap1\n      div\n      0xffffffffffffffffffffffffffffffffffffffff\n      and\n        /* \"@openzeppelin/contracts/access/Ownable.sol\":2985:3010  address oldOwner = _owner */\n      swap1\n      pop\n        /* \"@openzeppelin/contracts/access/Ownable.sol\":3029:3037  newOwner */\n      dup2\n        /* \"@openzeppelin/contracts/access/Ownable.sol\":3020:3026  _owner */\n      0x00\n      dup1\n        /* \"@openzeppelin/contracts/access/Ownable.sol\":3020:3037  _owner = newOwner */\n      0x0100\n      exp\n      dup2\n      sload\n      dup2\n      0xffffffffffffffffffffffffffffffffffffffff\n      mul\n      not\n      and\n      swap1\n      dup4\n      0xffffffffffffffffffffffffffffffffffffffff\n      and\n      mul\n      or\n      swap1\n      sstore\n      pop\n        /* \"@openzeppelin/contracts/access/Ownable.sol\":3083:3091  newOwner */\n      dup2\n        /* \"@openzeppelin/contracts/access/Ownable.sol\":3052:3092  OwnershipTransferred(oldOwner, newOwner) */\n      0xffffffffffffffffffffffffffffffffffffffff\n      and\n        /* \"@openzeppelin/contracts/access/Ownable.sol\":3073:3081  oldOwner */\n      dup2\n        /* \"@openzeppelin/contracts/access/Ownable.sol\":3052:3092  OwnershipTransferred(oldOwner, newOwner) */\n      0xffffffffffffffffffffffffffffffffffffffff\n      and\n      0x8be0079c531659141344cd1fd0a4f28419497f9722a3daafe3b4186f6b6457e0\n      mload(0x40)\n      mload(0x40)\n      dup1\n      swap2\n      sub\n      swap1\n      log3\n        /* \"@openzeppelin/contracts/access/Ownable.sol\":2975:3099  {... */\n      pop\n        /* \"@openzeppelin/contracts/access/Ownable.sol\":2912:3099  function _transferOwnership(address newOwner) internal virtual {... */\n      pop\n      jump\t// out\n        /* \"@openzeppelin/contracts/token/ERC20/utils/SafeERC20.sol\":1219:1379  function safeTransfer(IERC20 token, address to, uint256 value) internal {... */\n    tag_241:\n        /* \"@openzeppelin/contracts/token/ERC20/utils/SafeERC20.sol\":1301:1372  _callOptionalReturn(token, abi.encodeCall(token.transfer, (to, value))) */\n      tag_258\n        /* \"@openzeppelin/contracts/token/ERC20/utils/SafeERC20.sol\":1321:1326  token */\n      dup4\n        /* \"@openzeppelin/contracts/token/ERC20/utils/SafeERC20.sol\":1343:1348  token */\n      dup5\n        /* \"@openzeppelin/contracts/token/ERC20/utils/SafeERC20.sol\":1343:1357  token.transfer */\n      0xffffffffffffffffffffffffffffffffffffffff\n      and\n      0xa9059cbb\n        /* \"@openzeppelin/contracts/token/ERC20/utils/SafeERC20.sol\":1360:1362  to */\n      dup6\n        /* \"@openzeppelin/contracts/token/ERC20/utils/SafeERC20.sol\":1364:1369  value */\n      dup6\n        /* \"@openzeppelin/contracts/token/ERC20/utils/SafeERC20.sol\":1328:1371  abi.encodeCall(token.transfer, (to, value)) */\n      add(0x24, mload(0x40))\n      tag_259\n      swap3\n      swap2\n      swap1\n      tag_260\n      jump\t// in\n    tag_259:\n      mload(0x40)\n      0x20\n      dup2\n      dup4\n      sub\n      sub\n      dup2\n      mstore\n      swap1\n      0x40\n      mstore\n      swap2\n      pop\n      0xe0\n      shl\n      0x20\n      dup3\n      add\n      dup1\n      mload\n      0xffffffffffffffffffffffffffffffffffffffffffffffffffffffff\n      dup4\n      dup2\n      dup4\n      and\n      or\n      dup4\n      mstore\n      pop\n      pop\n      pop\n      pop\n        /* \"@openzeppelin/contracts/token/ERC20/utils/SafeERC20.sol\":1301:1320  _callOptionalReturn */\n      tag_261\n        /* \"@openzeppelin/contracts/token/ERC20/utils/SafeERC20.sol\":1301:1372  _callOptionalReturn(token, abi.encodeCall(token.transfer, (to, value))) */\n      jump\t// in\n    tag_258:\n        /* \"@openzeppelin/contracts/token/ERC20/utils/SafeERC20.sol\":1219:1379  function safeTransfer(IERC20 token, address to, uint256 value) internal {... */\n      pop\n      pop\n      pop\n      jump\t// out\n        /* \"@openzeppelin/contracts/utils/Context.sol\":656:752  function _msgSender() internal view virtual returns (address) {... */\n    tag_251:\n        /* \"@openzeppelin/contracts/utils/Context.sol\":709:716  address */\n      0x00\n        /* \"@openzeppelin/contracts/utils/Context.sol\":735:745  msg.sender */\n      caller\n        /* \"@openzeppelin/contracts/utils/Context.sol\":728:745  return msg.sender */\n      swap1\n      pop\n        /* \"@openzeppelin/contracts/utils/Context.sol\":656:752  function _msgSender() internal view virtual returns (address) {... */\n      swap1\n      jump\t// out\n        /* \"@openzeppelin/contracts/token/ERC20/utils/SafeERC20.sol\":7686:8406  function _callOptionalReturn(IERC20 token, bytes memory data) private {... */\n    tag_261:\n        /* \"@openzeppelin/contracts/token/ERC20/utils/SafeERC20.sol\":7766:7784  uint256 returnSize */\n      0x00\n        /* \"@openzeppelin/contracts/token/ERC20/utils/SafeERC20.sol\":7794:7813  uint256 returnValue */\n      dup1\n        /* \"@openzeppelin/contracts/token/ERC20/utils/SafeERC20.sol\":7932:7936  0x20 */\n      0x20\n        /* \"@openzeppelin/contracts/token/ERC20/utils/SafeERC20.sol\":7929:7930  0 */\n      0x00\n        /* \"@openzeppelin/contracts/token/ERC20/utils/SafeERC20.sol\":7922:7926  data */\n      dup5\n        /* \"@openzeppelin/contracts/token/ERC20/utils/SafeERC20.sol\":7916:7927  mload(data) */\n      mload\n        /* \"@openzeppelin/contracts/token/ERC20/utils/SafeERC20.sol\":7909:7913  0x20 */\n      0x20\n        /* \"@openzeppelin/contracts/token/ERC20/utils/SafeERC20.sol\":7903:7907  data */\n      dup7\n        /* \"@openzeppelin/contracts/token/ERC20/utils/SafeERC20.sol\":7899:7914  add(data, 0x20) */\n      add\n        /* \"@openzeppelin/contracts/token/ERC20/utils/SafeERC20.sol\":7896:7897  0 */\n      0x00\n        /* \"@openzeppelin/contracts/token/ERC20/utils/SafeERC20.sol\":7889:7894  token */\n      dup9\n        /* \"@openzeppelin/contracts/token/ERC20/utils/SafeERC20.sol\":7882:7887  gas() */\n      gas\n        /* \"@openzeppelin/contracts/token/ERC20/utils/SafeERC20.sol\":7877:7937  call(gas(), token, 0, add(data, 0x20), mload(data), 0, 0x20) */\n      call\n        /* \"@openzeppelin/contracts/token/ERC20/utils/SafeERC20.sol\":7989:7996  success */\n      dup1\n        /* \"@openzeppelin/contracts/token/ERC20/utils/SafeERC20.sol\":7979:8155  if iszero(success) {... */\n      tag_264\n      jumpi\n        /* \"@openzeppelin/contracts/token/ERC20/utils/SafeERC20.sol\":8033:8037  0x40 */\n      0x40\n        /* \"@openzeppelin/contracts/token/ERC20/utils/SafeERC20.sol\":8027:8038  mload(0x40) */\n      mload\n        /* \"@openzeppelin/contracts/token/ERC20/utils/SafeERC20.sol\":8078:8094  returndatasize() */\n      returndatasize\n        /* \"@openzeppelin/contracts/token/ERC20/utils/SafeERC20.sol\":8075:8076  0 */\n      0x00\n        /* \"@openzeppelin/contracts/token/ERC20/utils/SafeERC20.sol\":8070:8073  ptr */\n      dup3\n        /* \"@openzeppelin/contracts/token/ERC20/utils/SafeERC20.sol\":8055:8095  returndatacopy(ptr, 0, returndatasize()) */\n      returndatacopy\n        /* \"@openzeppelin/contracts/token/ERC20/utils/SafeERC20.sol\":8124:8140  returndatasize() */\n      returndatasize\n        /* \"@openzeppelin/contracts/token/ERC20/utils/SafeERC20.sol\":8119:8122  ptr */\n      dup2\n        /* \"@openzeppelin/contracts/token/ERC20/utils/SafeERC20.sol\":8112:8141  revert(ptr, returndatasize()) */\n      revert\n        /* \"@openzeppelin/contracts/token/ERC20/utils/SafeERC20.sol\":7979:8155  if iszero(success) {... */\n    tag_264:\n        /* \"@openzeppelin/contracts/token/ERC20/utils/SafeERC20.sol\":8182:8198  returndatasize() */\n      returndatasize\n        /* \"@openzeppelin/contracts/token/ERC20/utils/SafeERC20.sol\":8168:8198  returnSize := returndatasize() */\n      swap3\n      pop\n        /* \"@openzeppelin/contracts/token/ERC20/utils/SafeERC20.sol\":8232:8233  0 */\n      0x00\n        /* \"@openzeppelin/contracts/token/ERC20/utils/SafeERC20.sol\":8226:8234  mload(0) */\n      mload\n        /* \"@openzeppelin/contracts/token/ERC20/utils/SafeERC20.sol\":8211:8234  returnValue := mload(0) */\n      swap2\n      pop\n        /* \"@openzeppelin/contracts/token/ERC20/utils/SafeERC20.sol\":7848:8244  {... */\n      pop\n        /* \"@openzeppelin/contracts/token/ERC20/utils/SafeERC20.sol\":8272:8273  0 */\n      0x00\n        /* \"@openzeppelin/contracts/token/ERC20/utils/SafeERC20.sol\":8258:8268  returnSize */\n      dup3\n        /* \"@openzeppelin/contracts/token/ERC20/utils/SafeERC20.sol\":8258:8273  returnSize == 0 */\n      eq\n        /* \"@openzeppelin/contracts/token/ERC20/utils/SafeERC20.sol\":8258:8326  returnSize == 0 ? address(token).code.length == 0 : returnValue != 1 */\n      tag_265\n      jumpi\n        /* \"@openzeppelin/contracts/token/ERC20/utils/SafeERC20.sol\":8325:8326  1 */\n      0x01\n        /* \"@openzeppelin/contracts/token/ERC20/utils/SafeERC20.sol\":8310:8321  returnValue */\n      dup2\n        /* \"@openzeppelin/contracts/token/ERC20/utils/SafeERC20.sol\":8310:8326  returnValue != 1 */\n      eq\n      iszero\n        /* \"@openzeppelin/contracts/token/ERC20/utils/SafeERC20.sol\":8258:8326  returnSize == 0 ? address(token).code.length == 0 : returnValue != 1 */\n      jump(tag_266)\n    tag_265:\n        /* \"@openzeppelin/contracts/token/ERC20/utils/SafeERC20.sol\":8306:8307  0 */\n      0x00\n        /* \"@openzeppelin/contracts/token/ERC20/utils/SafeERC20.sol\":8284:8289  token */\n      dup5\n        /* \"@openzeppelin/contracts/token/ERC20/utils/SafeERC20.sol\":8276:8302  address(token).code.length */\n      0xffffffffffffffffffffffffffffffffffffffff\n      and\n      extcodesize\n        /* \"@openzeppelin/contracts/token/ERC20/utils/SafeERC20.sol\":8276:8307  address(token).code.length == 0 */\n      eq\n        /* \"@openzeppelin/contracts/token/ERC20/utils/SafeERC20.sol\":8258:8326  returnSize == 0 ? address(token).code.length == 0 : returnValue != 1 */\n    tag_266:\n        /* \"@openzeppelin/contracts/token/ERC20/utils/SafeERC20.sol\":8254:8400  if (returnSize == 0 ? address(token).code.length == 0 : returnValue != 1) {... */\n      iszero\n      tag_267\n      jumpi\n        /* \"@openzeppelin/contracts/token/ERC20/utils/SafeERC20.sol\":8382:8387  token */\n      dup4\n        /* \"@openzeppelin/contracts/token/ERC20/utils/SafeERC20.sol\":8349:8389  SafeERC20FailedOperation(address(token)) */\n      mload(0x40)\n      0x5274afe700000000000000000000000000000000000000000000000000000000\n      dup2\n      mstore\n      0x04\n      add\n      tag_268\n      swap2\n      swap1\n      tag_60\n      jump\t// in\n    tag_268:\n      mload(0x40)\n      dup1\n      swap2\n      sub\n      swap1\n      revert\n        /* \"@openzeppelin/contracts/token/ERC20/utils/SafeERC20.sol\":8254:8400  if (returnSize == 0 ? address(token).code.length == 0 : returnValue != 1) {... */\n    tag_267:\n        /* \"@openzeppelin/contracts/token/ERC20/utils/SafeERC20.sol\":7756:8406  {... */\n      pop\n      pop\n        /* \"@openzeppelin/contracts/token/ERC20/utils/SafeERC20.sol\":7686:8406  function _callOptionalReturn(IERC20 token, bytes memory data) private {... */\n      pop\n      pop\n      jump\t// out\n        /* \"#utility.yul\":7:84   */\n    tag_269:\n        /* \"#utility.yul\":44:51   */\n      0x00\n        /* \"#utility.yul\":73:78   */\n      dup2\n        /* \"#utility.yul\":62:78   */\n      swap1\n      pop\n        /* \"#utility.yul\":7:84   */\n      swap2\n      swap1\n      pop\n      jump\t// out\n        /* \"#utility.yul\":90:208   */\n    tag_270:\n        /* \"#utility.yul\":177:201   */\n      tag_360\n        /* \"#utility.yul\":195:200   */\n      dup2\n        /* \"#utility.yul\":177:201   */\n      tag_269\n      jump\t// in\n    tag_360:\n        /* \"#utility.yul\":172:175   */\n      dup3\n        /* \"#utility.yul\":165:202   */\n      mstore\n        /* \"#utility.yul\":90:208   */\n      pop\n      pop\n      jump\t// out\n        /* \"#utility.yul\":214:436   */\n    tag_23:\n        /* \"#utility.yul\":307:311   */\n      0x00\n        /* \"#utility.yul\":345:347   */\n      0x20\n        /* \"#utility.yul\":334:343   */\n      dup3\n        /* \"#utility.yul\":330:348   */\n      add\n        /* \"#utility.yul\":322:348   */\n      swap1\n      pop\n        /* \"#utility.yul\":358:429   */\n      tag_362\n        /* \"#utility.yul\":426:427   */\n      0x00\n        /* \"#utility.yul\":415:424   */\n      dup4\n        /* \"#utility.yul\":411:428   */\n      add\n        /* \"#utility.yul\":402:408   */\n      dup5\n        /* \"#utility.yul\":358:429   */\n      tag_270\n      jump\t// in\n    tag_362:\n        /* \"#utility.yul\":214:436   */\n      swap3\n      swap2\n      pop\n      pop\n      jump\t// out\n        /* \"#utility.yul\":523:640   */\n    tag_272:\n        /* \"#utility.yul\":632:633   */\n      0x00\n        /* \"#utility.yul\":629:630   */\n      dup1\n        /* \"#utility.yul\":622:634   */\n      revert\n        /* \"#utility.yul\":646:763   */\n    tag_273:\n        /* \"#utility.yul\":755:756   */\n      0x00\n        /* \"#utility.yul\":752:753   */\n      dup1\n        /* \"#utility.yul\":745:757   */\n      revert\n        /* \"#utility.yul\":769:891   */\n    tag_274:\n        /* \"#utility.yul\":842:866   */\n      tag_367\n        /* \"#utility.yul\":860:865   */\n      dup2\n        /* \"#utility.yul\":842:866   */\n      tag_269\n      jump\t// in\n    tag_367:\n        /* \"#utility.yul\":835:840   */\n      dup2\n        /* \"#utility.yul\":832:867   */\n      eq\n        /* \"#utility.yul\":822:885   */\n      tag_368\n      jumpi\n        /* \"#utility.yul\":881:882   */\n      0x00\n        /* \"#utility.yul\":878:879   */\n      dup1\n        /* \"#utility.yul\":871:883   */\n      revert\n        /* \"#utility.yul\":822:885   */\n    tag_368:\n        /* \"#utility.yul\":769:891   */\n      pop\n      jump\t// out\n        /* \"#utility.yul\":897:1036   */\n    tag_275:\n        /* \"#utility.yul\":943:948   */\n      0x00\n        /* \"#utility.yul\":981:987   */\n      dup2\n        /* \"#utility.yul\":968:988   */\n      calldataload\n        /* \"#utility.yul\":959:988   */\n      swap1\n      pop\n        /* \"#utility.yul\":997:1030   */\n      tag_370\n        /* \"#utility.yul\":1024:1029   */\n      dup2\n        /* \"#utility.yul\":997:1030   */\n      tag_274\n      jump\t// in\n    tag_370:\n        /* \"#utility.yul\":897:1036   */\n      swap3\n      swap2\n      pop\n      pop\n      jump\t// out\n        /* \"#utility.yul\":1042:1371   */\n    tag_30:\n        /* \"#utility.yul\":1101:1107   */\n      0x00\n        /* \"#utility.yul\":1150:1152   */\n      0x20\n        /* \"#utility.yul\":1138:1147   */\n      dup3\n        /* \"#utility.yul\":1129:1136   */\n      dup5\n        /* \"#utility.yul\":1125:1148   */\n      sub\n        /* \"#utility.yul\":1121:1153   */\n      slt\n        /* \"#utility.yul\":1118:1237   */\n      iszero\n      tag_372\n      jumpi\n        /* \"#utility.yul\":1156:1235   */\n      tag_373\n      tag_272\n      jump\t// in\n    tag_373:\n        /* \"#utility.yul\":1118:1237   */\n    tag_372:\n        /* \"#utility.yul\":1276:1277   */\n      0x00\n        /* \"#utility.yul\":1301:1354   */\n      tag_374\n        /* \"#utility.yul\":1346:1353   */\n      dup5\n        /* \"#utility.yul\":1337:1343   */\n      dup3\n        /* \"#utility.yul\":1326:1335   */\n      dup6\n        /* \"#utility.yul\":1322:1344   */\n      add\n        /* \"#utility.yul\":1301:1354   */\n      tag_275\n      jump\t// in\n    tag_374:\n        /* \"#utility.yul\":1291:1354   */\n      swap2\n      pop\n        /* \"#utility.yul\":1247:1364   */\n      pop\n        /* \"#utility.yul\":1042:1371   */\n      swap3\n      swap2\n      pop\n      pop\n      jump\t// out\n        /* \"#utility.yul\":1377:1476   */\n    tag_276:\n        /* \"#utility.yul\":1429:1435   */\n      0x00\n        /* \"#utility.yul\":1463:1468   */\n      dup2\n        /* \"#utility.yul\":1457:1469   */\n      mload\n        /* \"#utility.yul\":1447:1469   */\n      swap1\n      pop\n        /* \"#utility.yul\":1377:1476   */\n      swap2\n      swap1\n      pop\n      jump\t// out\n        /* \"#utility.yul\":1482:1651   */\n    tag_277:\n        /* \"#utility.yul\":1566:1577   */\n      0x00\n        /* \"#utility.yul\":1600:1606   */\n      dup3\n        /* \"#utility.yul\":1595:1598   */\n      dup3\n        /* \"#utility.yul\":1588:1607   */\n      mstore\n        /* \"#utility.yul\":1640:1644   */\n      0x20\n        /* \"#utility.yul\":1635:1638   */\n      dup3\n        /* \"#utility.yul\":1631:1645   */\n      add\n        /* \"#utility.yul\":1616:1645   */\n      swap1\n      pop\n        /* \"#utility.yul\":1482:1651   */\n      swap3\n      swap2\n      pop\n      pop\n      jump\t// out\n        /* \"#utility.yul\":1657:1903   */\n    tag_278:\n        /* \"#utility.yul\":1738:1739   */\n      0x00\n        /* \"#utility.yul\":1748:1861   */\n    tag_378:\n        /* \"#utility.yul\":1762:1768   */\n      dup4\n        /* \"#utility.yul\":1759:1760   */\n      dup2\n        /* \"#utility.yul\":1756:1769   */\n      lt\n        /* \"#utility.yul\":1748:1861   */\n      iszero\n      tag_380\n      jumpi\n        /* \"#utility.yul\":1847:1848   */\n      dup1\n        /* \"#utility.yul\":1842:1845   */\n      dup3\n        /* \"#utility.yul\":1838:1849   */\n      add\n        /* \"#utility.yul\":1832:1850   */\n      mload\n        /* \"#utility.yul\":1828:1829   */\n      dup2\n        /* \"#utility.yul\":1823:1826   */\n      dup5\n        /* \"#utility.yul\":1819:1830   */\n      add\n        /* \"#utility.yul\":1812:1851   */\n      mstore\n        /* \"#utility.yul\":1784:1786   */\n      0x20\n        /* \"#utility.yul\":1781:1782   */\n      dup2\n        /* \"#utility.yul\":1777:1787   */\n      add\n        /* \"#utility.yul\":1772:1787   */\n      swap1\n      pop\n        /* \"#utility.yul\":1748:1861   */\n      jump(tag_378)\n    tag_380:\n        /* \"#utility.yul\":1895:1896   */\n      0x00\n        /* \"#utility.yul\":1886:1892   */\n      dup5\n        /* \"#utility.yul\":1881:1884   */\n      dup5\n        /* \"#utility.yul\":1877:1893   */\n      add\n        /* \"#utility.yul\":1870:1897   */\n      mstore\n        /* \"#utility.yul\":1719:1903   */\n      pop\n        /* \"#utility.yul\":1657:1903   */\n      pop\n      pop\n      pop\n      jump\t// out\n        /* \"#utility.yul\":1909:2011   */\n    tag_279:\n        /* \"#utility.yul\":1950:1956   */\n      0x00\n        /* \"#utility.yul\":2001:2003   */\n      0x1f\n        /* \"#utility.yul\":1997:2004   */\n      not\n        /* \"#utility.yul\":1992:1994   */\n      0x1f\n        /* \"#utility.yul\":1985:1990   */\n      dup4\n        /* \"#utility.yul\":1981:1995   */\n      add\n        /* \"#utility.yul\":1977:2005   */\n      and\n        /* \"#utility.yul\":1967:2005   */\n      swap1\n      pop\n        /* \"#utility.yul\":1909:2011   */\n      swap2\n      swap1\n      pop\n      jump\t// out\n        /* \"#utility.yul\":2017:2394   */\n    tag_280:\n        /* \"#utility.yul\":2105:2108   */\n      0x00\n        /* \"#utility.yul\":2133:2172   */\n      tag_383\n        /* \"#utility.yul\":2166:2171   */\n      dup3\n        /* \"#utility.yul\":2133:2172   */\n      tag_276\n      jump\t// in\n    tag_383:\n        /* \"#utility.yul\":2188:2259   */\n      tag_384\n        /* \"#utility.yul\":2252:2258   */\n      dup2\n        /* \"#utility.yul\":2247:2250   */\n      dup6\n        /* \"#utility.yul\":2188:2259   */\n      tag_277\n      jump\t// in\n    tag_384:\n        /* \"#utility.yul\":2181:2259   */\n      swap4\n      pop\n        /* \"#utility.yul\":2268:2333   */\n      tag_385\n        /* \"#utility.yul\":2326:2332   */\n      dup2\n        /* \"#utility.yul\":2321:2324   */\n      dup6\n        /* \"#utility.yul\":2314:2318   */\n      0x20\n        /* \"#utility.yul\":2307:2312   */\n      dup7\n        /* \"#utility.yul\":2303:2319   */\n      add\n        /* \"#utility.yul\":2268:2333   */\n      tag_278\n      jump\t// in\n    tag_385:\n        /* \"#utility.yul\":2358:2387   */\n      tag_386\n        /* \"#utility.yul\":2380:2386   */\n      dup2\n        /* \"#utility.yul\":2358:2387   */\n      tag_279\n      jump\t// in\n    tag_386:\n        /* \"#utility.yul\":2353:2356   */\n      dup5\n        /* \"#utility.yul\":2349:2388   */\n      add\n        /* \"#utility.yul\":2342:2388   */\n      swap2\n      pop\n        /* \"#utility.yul\":2109:2394   */\n      pop\n        /* \"#utility.yul\":2017:2394   */\n      swap3\n      swap2\n      pop\n      pop\n      jump\t// out\n        /* \"#utility.yul\":2400:2526   */\n    tag_281:\n        /* \"#utility.yul\":2437:2444   */\n      0x00\n        /* \"#utility.yul\":2477:2519   */\n      0xffffffffffffffffffffffffffffffffffffffff\n        /* \"#utility.yul\":2470:2475   */\n      dup3\n        /* \"#utility.yul\":2466:2520   */\n      and\n        /* \"#utility.yul\":2455:2520   */\n      swap1\n      pop\n        /* \"#utility.yul\":2400:2526   */\n      swap2\n      swap1\n      pop\n      jump\t// out\n        /* \"#utility.yul\":2532:2636   */\n    tag_282:\n        /* \"#utility.yul\":2577:2584   */\n      0x00\n        /* \"#utility.yul\":2606:2630   */\n      tag_389\n        /* \"#utility.yul\":2624:2629   */\n      dup3\n        /* \"#utility.yul\":2606:2630   */\n      tag_281\n      jump\t// in\n    tag_389:\n        /* \"#utility.yul\":2595:2630   */\n      swap1\n      pop\n        /* \"#utility.yul\":2532:2636   */\n      swap2\n      swap1\n      pop\n      jump\t// out\n        /* \"#utility.yul\":2642:2784   */\n    tag_283:\n        /* \"#utility.yul\":2745:2777   */\n      tag_391\n        /* \"#utility.yul\":2771:2776   */\n      dup2\n        /* \"#utility.yul\":2745:2777   */\n      tag_282\n      jump\t// in\n    tag_391:\n        /* \"#utility.yul\":2740:2743   */\n      dup3\n        /* \"#utility.yul\":2733:2778   */\n      mstore\n        /* \"#utility.yul\":2642:2784   */\n      pop\n      pop\n      jump\t// out\n        /* \"#utility.yul\":2790:2880   */\n    tag_284:\n        /* \"#utility.yul\":2824:2831   */\n      0x00\n        /* \"#utility.yul\":2867:2872   */\n      dup2\n        /* \"#utility.yul\":2860:2873   */\n      iszero\n        /* \"#utility.yul\":2853:2874   */\n      iszero\n        /* \"#utility.yul\":2842:2874   */\n      swap1\n      pop\n        /* \"#utility.yul\":2790:2880   */\n      swap2\n      swap1\n      pop\n      jump\t// out\n        /* \"#utility.yul\":2886:2995   */\n    tag_285:\n        /* \"#utility.yul\":2967:2988   */\n      tag_394\n        /* \"#utility.yul\":2982:2987   */\n      dup2\n        /* \"#utility.yul\":2967:2988   */\n      tag_284\n      jump\t// in\n    tag_394:\n        /* \"#utility.yul\":2962:2965   */\n      dup3\n        /* \"#utility.yul\":2955:2989   */\n      mstore\n        /* \"#utility.yul\":2886:2995   */\n      pop\n      pop\n      jump\t// out\n        /* \"#utility.yul\":3001:4097   */\n    tag_33:\n        /* \"#utility.yul\":3314:3318   */\n      0x00\n        /* \"#utility.yul\":3352:3355   */\n      0x0100\n        /* \"#utility.yul\":3341:3350   */\n      dup3\n        /* \"#utility.yul\":3337:3356   */\n      add\n        /* \"#utility.yul\":3329:3356   */\n      swap1\n      pop\n        /* \"#utility.yul\":3366:3437   */\n      tag_396\n        /* \"#utility.yul\":3434:3435   */\n      0x00\n        /* \"#utility.yul\":3423:3432   */\n      dup4\n        /* \"#utility.yul\":3419:3436   */\n      add\n        /* \"#utility.yul\":3410:3416   */\n      dup12\n        /* \"#utility.yul\":3366:3437   */\n      tag_270\n      jump\t// in\n    tag_396:\n        /* \"#utility.yul\":3484:3493   */\n      dup2\n        /* \"#utility.yul\":3478:3482   */\n      dup2\n        /* \"#utility.yul\":3474:3494   */\n      sub\n        /* \"#utility.yul\":3469:3471   */\n      0x20\n        /* \"#utility.yul\":3458:3467   */\n      dup4\n        /* \"#utility.yul\":3454:3472   */\n      add\n        /* \"#utility.yul\":3447:3495   */\n      mstore\n        /* \"#utility.yul\":3512:3590   */\n      tag_397\n        /* \"#utility.yul\":3585:3589   */\n      dup2\n        /* \"#utility.yul\":3576:3582   */\n      dup11\n        /* \"#utility.yul\":3512:3590   */\n      tag_280\n      jump\t// in\n    tag_397:\n        /* \"#utility.yul\":3504:3590   */\n      swap1\n      pop\n        /* \"#utility.yul\":3600:3688   */\n      tag_398\n        /* \"#utility.yul\":3684:3686   */\n      0x40\n        /* \"#utility.yul\":3673:3682   */\n      dup4\n        /* \"#utility.yul\":3669:3687   */\n      add\n        /* \"#utility.yul\":3660:3666   */\n      dup10\n        /* \"#utility.yul\":3600:3688   */\n      tag_283\n      jump\t// in\n    tag_398:\n        /* \"#utility.yul\":3698:3770   */\n      tag_399\n        /* \"#utility.yul\":3766:3768   */\n      0x60\n        /* \"#utility.yul\":3755:3764   */\n      dup4\n        /* \"#utility.yul\":3751:3769   */\n      add\n        /* \"#utility.yul\":3742:3748   */\n      dup9\n        /* \"#utility.yul\":3698:3770   */\n      tag_270\n      jump\t// in\n    tag_399:\n        /* \"#utility.yul\":3780:3853   */\n      tag_400\n        /* \"#utility.yul\":3848:3851   */\n      0x80\n        /* \"#utility.yul\":3837:3846   */\n      dup4\n        /* \"#utility.yul\":3833:3852   */\n      add\n        /* \"#utility.yul\":3824:3830   */\n      dup8\n        /* \"#utility.yul\":3780:3853   */\n      tag_270\n      jump\t// in\n    tag_400:\n        /* \"#utility.yul\":3863:3936   */\n      tag_401\n        /* \"#utility.yul\":3931:3934   */\n      0xa0\n        /* \"#utility.yul\":3920:3929   */\n      dup4\n        /* \"#utility.yul\":3916:3935   */\n      add\n        /* \"#utility.yul\":3907:3913   */\n      dup7\n        /* \"#utility.yul\":3863:3936   */\n      tag_270\n      jump\t// in\n    tag_401:\n        /* \"#utility.yul\":3946:4013   */\n      tag_402\n        /* \"#utility.yul\":4008:4011   */\n      0xc0\n        /* \"#utility.yul\":3997:4006   */\n      dup4\n        /* \"#utility.yul\":3993:4012   */\n      add\n        /* \"#utility.yul\":3984:3990   */\n      dup6\n        /* \"#utility.yul\":3946:4013   */\n      tag_285\n      jump\t// in\n    tag_402:\n        /* \"#utility.yul\":4023:4090   */\n      tag_403\n        /* \"#utility.yul\":4085:4088   */\n      0xe0\n        /* \"#utility.yul\":4074:4083   */\n      dup4\n        /* \"#utility.yul\":4070:4089   */\n      add\n        /* \"#utility.yul\":4061:4067   */\n      dup5\n        /* \"#utility.yul\":4023:4090   */\n      tag_285\n      jump\t// in\n    tag_403:\n        /* \"#utility.yul\":3001:4097   */\n      swap10\n      swap9\n      pop\n      pop\n      pop\n      pop\n      pop\n      pop\n      pop\n      pop\n      pop\n      jump\t// out\n        /* \"#utility.yul\":4103:4201   */\n    tag_286:\n        /* \"#utility.yul\":4154:4160   */\n      0x00\n        /* \"#utility.yul\":4188:4193   */\n      dup2\n        /* \"#utility.yul\":4182:4194   */\n      mload\n        /* \"#utility.yul\":4172:4194   */\n      swap1\n      pop\n        /* \"#utility.yul\":4103:4201   */\n      swap2\n      swap1\n      pop\n      jump\t// out\n        /* \"#utility.yul\":4207:4375   */\n    tag_287:\n        /* \"#utility.yul\":4290:4301   */\n      0x00\n        /* \"#utility.yul\":4324:4330   */\n      dup3\n        /* \"#utility.yul\":4319:4322   */\n      dup3\n        /* \"#utility.yul\":4312:4331   */\n      mstore\n        /* \"#utility.yul\":4364:4368   */\n      0x20\n        /* \"#utility.yul\":4359:4362   */\n      dup3\n        /* \"#utility.yul\":4355:4369   */\n      add\n        /* \"#utility.yul\":4340:4369   */\n      swap1\n      pop\n        /* \"#utility.yul\":4207:4375   */\n      swap3\n      swap2\n      pop\n      pop\n      jump\t// out\n        /* \"#utility.yul\":4381:4754   */\n    tag_288:\n        /* \"#utility.yul\":4467:4470   */\n      0x00\n        /* \"#utility.yul\":4495:4533   */\n      tag_407\n        /* \"#utility.yul\":4527:4532   */\n      dup3\n        /* \"#utility.yul\":4495:4533   */\n      tag_286\n      jump\t// in\n    tag_407:\n        /* \"#utility.yul\":4549:4619   */\n      tag_408\n        /* \"#utility.yul\":4612:4618   */\n      dup2\n        /* \"#utility.yul\":4607:4610   */\n      dup6\n        /* \"#utility.yul\":4549:4619   */\n      tag_287\n      jump\t// in\n    tag_408:\n        /* \"#utility.yul\":4542:4619   */\n      swap4\n      pop\n        /* \"#utility.yul\":4628:4693   */\n      tag_409\n        /* \"#utility.yul\":4686:4692   */\n      dup2\n        /* \"#utility.yul\":4681:4684   */\n      dup6\n        /* \"#utility.yul\":4674:4678   */\n      0x20\n        /* \"#utility.yul\":4667:4672   */\n      dup7\n        /* \"#utility.yul\":4663:4679   */\n      add\n        /* \"#utility.yul\":4628:4693   */\n      tag_278\n      jump\t// in\n    tag_409:\n        /* \"#utility.yul\":4718:4747   */\n      tag_410\n        /* \"#utility.yul\":4740:4746   */\n      dup2\n        /* \"#utility.yul\":4718:4747   */\n      tag_279\n      jump\t// in\n    tag_410:\n        /* \"#utility.yul\":4713:4716   */\n      dup5\n        /* \"#utility.yul\":4709:4748   */\n      add\n        /* \"#utility.yul\":4702:4748   */\n      swap2\n      pop\n        /* \"#utility.yul\":4471:4754   */\n      pop\n        /* \"#utility.yul\":4381:4754   */\n      swap3\n      swap2\n      pop\n      pop\n      jump\t// out\n        /* \"#utility.yul\":4760:5069   */\n    tag_39:\n        /* \"#utility.yul\":4871:4875   */\n      0x00\n        /* \"#utility.yul\":4909:4911   */\n      0x20\n        /* \"#utility.yul\":4898:4907   */\n      dup3\n        /* \"#utility.yul\":4894:4912   */\n      add\n        /* \"#utility.yul\":4886:4912   */\n      swap1\n      pop\n        /* \"#utility.yul\":4958:4967   */\n      dup2\n        /* \"#utility.yul\":4952:4956   */\n      dup2\n        /* \"#utility.yul\":4948:4968   */\n      sub\n        /* \"#utility.yul\":4944:4945   */\n      0x00\n        /* \"#utility.yul\":4933:4942   */\n      dup4\n        /* \"#utility.yul\":4929:4946   */\n      add\n        /* \"#utility.yul\":4922:4969   */\n      mstore\n        /* \"#utility.yul\":4986:5062   */\n      tag_412\n        /* \"#utility.yul\":5057:5061   */\n      dup2\n        /* \"#utility.yul\":5048:5054   */\n      dup5\n        /* \"#utility.yul\":4986:5062   */\n      tag_288\n      jump\t// in\n    tag_412:\n        /* \"#utility.yul\":4978:5062   */\n      swap1\n      pop\n        /* \"#utility.yul\":4760:5069   */\n      swap3\n      swap2\n      pop\n      pop\n      jump\t// out\n        /* \"#utility.yul\":5075:5171   */\n    tag_289:\n        /* \"#utility.yul\":5112:5119   */\n      0x00\n        /* \"#utility.yul\":5141:5165   */\n      tag_414\n        /* \"#utility.yul\":5159:5164   */\n      dup3\n        /* \"#utility.yul\":5141:5165   */\n      tag_281\n      jump\t// in\n    tag_414:\n        /* \"#utility.yul\":5130:5165   */\n      swap1\n      pop\n        /* \"#utility.yul\":5075:5171   */\n      swap2\n      swap1\n      pop\n      jump\t// out\n        /* \"#utility.yul\":5177:5299   */\n    tag_290:\n        /* \"#utility.yul\":5250:5274   */\n      tag_416\n        /* \"#utility.yul\":5268:5273   */\n      dup2\n        /* \"#utility.yul\":5250:5274   */\n      tag_289\n      jump\t// in\n    tag_416:\n        /* \"#utility.yul\":5243:5248   */\n      dup2\n        /* \"#utility.yul\":5240:5275   */\n      eq\n        /* \"#utility.yul\":5230:5293   */\n      tag_417\n      jumpi\n        /* \"#utility.yul\":5289:5290   */\n      0x00\n        /* \"#utility.yul\":5286:5287   */\n      dup1\n        /* \"#utility.yul\":5279:5291   */\n      revert\n        /* \"#utility.yul\":5230:5293   */\n    tag_417:\n        /* \"#utility.yul\":5177:5299   */\n      pop\n      jump\t// out\n        /* \"#utility.yul\":5305:5444   */\n    tag_291:\n        /* \"#utility.yul\":5351:5356   */\n      0x00\n        /* \"#utility.yul\":5389:5395   */\n      dup2\n        /* \"#utility.yul\":5376:5396   */\n      calldataload\n        /* \"#utility.yul\":5367:5396   */\n      swap1\n      pop\n        /* \"#utility.yul\":5405:5438   */\n      tag_419\n        /* \"#utility.yul\":5432:5437   */\n      dup2\n        /* \"#utility.yul\":5405:5438   */\n      tag_290\n      jump\t// in\n    tag_419:\n        /* \"#utility.yul\":5305:5444   */\n      swap3\n      swap2\n      pop\n      pop\n      jump\t// out\n        /* \"#utility.yul\":5450:5779   */\n    tag_47:\n        /* \"#utility.yul\":5509:5515   */\n      0x00\n        /* \"#utility.yul\":5558:5560   */\n      0x20\n        /* \"#utility.yul\":5546:5555   */\n      dup3\n        /* \"#utility.yul\":5537:5544   */\n      dup5\n        /* \"#utility.yul\":5533:5556   */\n      sub\n        /* \"#utility.yul\":5529:5561   */\n      slt\n        /* \"#utility.yul\":5526:5645   */\n      iszero\n      tag_421\n      jumpi\n        /* \"#utility.yul\":5564:5643   */\n      tag_422\n      tag_272\n      jump\t// in\n    tag_422:\n        /* \"#utility.yul\":5526:5645   */\n    tag_421:\n        /* \"#utility.yul\":5684:5685   */\n      0x00\n        /* \"#utility.yul\":5709:5762   */\n      tag_423\n        /* \"#utility.yul\":5754:5761   */\n      dup5\n        /* \"#utility.yul\":5745:5751   */\n      dup3\n        /* \"#utility.yul\":5734:5743   */\n      dup6\n        /* \"#utility.yul\":5730:5752   */\n      add\n        /* \"#utility.yul\":5709:5762   */\n      tag_291\n      jump\t// in\n    tag_423:\n        /* \"#utility.yul\":5699:5762   */\n      swap2\n      pop\n        /* \"#utility.yul\":5655:5772   */\n      pop\n        /* \"#utility.yul\":5450:5779   */\n      swap3\n      swap2\n      pop\n      pop\n      jump\t// out\n        /* \"#utility.yul\":5785:5902   */\n    tag_292:\n        /* \"#utility.yul\":5894:5895   */\n      0x00\n        /* \"#utility.yul\":5891:5892   */\n      dup1\n        /* \"#utility.yul\":5884:5896   */\n      revert\n        /* \"#utility.yul\":5908:6025   */\n    tag_293:\n        /* \"#utility.yul\":6017:6018   */\n      0x00\n        /* \"#utility.yul\":6014:6015   */\n      dup1\n        /* \"#utility.yul\":6007:6019   */\n      revert\n        /* \"#utility.yul\":6031:6148   */\n    tag_294:\n        /* \"#utility.yul\":6140:6141   */\n      0x00\n        /* \"#utility.yul\":6137:6138   */\n      dup1\n        /* \"#utility.yul\":6130:6142   */\n      revert\n        /* \"#utility.yul\":6168:6721   */\n    tag_295:\n        /* \"#utility.yul\":6226:6234   */\n      0x00\n        /* \"#utility.yul\":6236:6242   */\n      dup1\n        /* \"#utility.yul\":6286:6289   */\n      dup4\n        /* \"#utility.yul\":6279:6283   */\n      0x1f\n        /* \"#utility.yul\":6271:6277   */\n      dup5\n        /* \"#utility.yul\":6267:6284   */\n      add\n        /* \"#utility.yul\":6263:6290   */\n      slt\n        /* \"#utility.yul\":6253:6375   */\n      tag_428\n      jumpi\n        /* \"#utility.yul\":6294:6373   */\n      tag_429\n      tag_292\n      jump\t// in\n    tag_429:\n        /* \"#utility.yul\":6253:6375   */\n    tag_428:\n        /* \"#utility.yul\":6407:6413   */\n      dup3\n        /* \"#utility.yul\":6394:6414   */\n      calldataload\n        /* \"#utility.yul\":6384:6414   */\n      swap1\n      pop\n        /* \"#utility.yul\":6437:6455   */\n      0xffffffffffffffff\n        /* \"#utility.yul\":6429:6435   */\n      dup2\n        /* \"#utility.yul\":6426:6456   */\n      gt\n        /* \"#utility.yul\":6423:6540   */\n      iszero\n      tag_430\n      jumpi\n        /* \"#utility.yul\":6459:6538   */\n      tag_431\n      tag_293\n      jump\t// in\n    tag_431:\n        /* \"#utility.yul\":6423:6540   */\n    tag_430:\n        /* \"#utility.yul\":6573:6577   */\n      0x20\n        /* \"#utility.yul\":6565:6571   */\n      dup4\n        /* \"#utility.yul\":6561:6578   */\n      add\n        /* \"#utility.yul\":6549:6578   */\n      swap2\n      pop\n        /* \"#utility.yul\":6627:6630   */\n      dup4\n        /* \"#utility.yul\":6619:6623   */\n      0x01\n        /* \"#utility.yul\":6611:6617   */\n      dup3\n        /* \"#utility.yul\":6607:6624   */\n      mul\n        /* \"#utility.yul\":6597:6605   */\n      dup4\n        /* \"#utility.yul\":6593:6625   */\n      add\n        /* \"#utility.yul\":6590:6631   */\n      gt\n        /* \"#utility.yul\":6587:6715   */\n      iszero\n      tag_432\n      jumpi\n        /* \"#utility.yul\":6634:6713   */\n      tag_433\n      tag_294\n      jump\t// in\n    tag_433:\n        /* \"#utility.yul\":6587:6715   */\n    tag_432:\n        /* \"#utility.yul\":6168:6721   */\n      swap3\n      pop\n      swap3\n      swap1\n      pop\n      jump\t// out\n        /* \"#utility.yul\":6727:6865   */\n    tag_296:\n        /* \"#utility.yul\":6808:6840   */\n      tag_435\n        /* \"#utility.yul\":6834:6839   */\n      dup2\n        /* \"#utility.yul\":6808:6840   */\n      tag_282\n      jump\t// in\n    tag_435:\n        /* \"#utility.yul\":6801:6806   */\n      dup2\n        /* \"#utility.yul\":6798:6841   */\n      eq\n        /* \"#utility.yul\":6788:6859   */\n      tag_436\n      jumpi\n        /* \"#utility.yul\":6855:6856   */\n      0x00\n        /* \"#utility.yul\":6852:6853   */\n      dup1\n        /* \"#utility.yul\":6845:6857   */\n      revert\n        /* \"#utility.yul\":6788:6859   */\n    tag_436:\n        /* \"#utility.yul\":6727:6865   */\n      pop\n      jump\t// out\n        /* \"#utility.yul\":6871:7026   */\n    tag_297:\n        /* \"#utility.yul\":6925:6930   */\n      0x00\n        /* \"#utility.yul\":6963:6969   */\n      dup2\n        /* \"#utility.yul\":6950:6970   */\n      calldataload\n        /* \"#utility.yul\":6941:6970   */\n      swap1\n      pop\n        /* \"#utility.yul\":6979:7020   */\n      tag_438\n        /* \"#utility.yul\":7014:7019   */\n      dup2\n        /* \"#utility.yul\":6979:7020   */\n      tag_296\n      jump\t// in\n    tag_438:\n        /* \"#utility.yul\":6871:7026   */\n      swap3\n      swap2\n      pop\n      pop\n      jump\t// out\n        /* \"#utility.yul\":7032:7867   */\n    tag_52:\n        /* \"#utility.yul\":7129:7135   */\n      0x00\n        /* \"#utility.yul\":7137:7143   */\n      dup1\n        /* \"#utility.yul\":7145:7151   */\n      0x00\n        /* \"#utility.yul\":7153:7159   */\n      dup1\n        /* \"#utility.yul\":7202:7204   */\n      0x60\n        /* \"#utility.yul\":7190:7199   */\n      dup6\n        /* \"#utility.yul\":7181:7188   */\n      dup8\n        /* \"#utility.yul\":7177:7200   */\n      sub\n        /* \"#utility.yul\":7173:7205   */\n      slt\n        /* \"#utility.yul\":7170:7289   */\n      iszero\n      tag_440\n      jumpi\n        /* \"#utility.yul\":7208:7287   */\n      tag_441\n      tag_272\n      jump\t// in\n    tag_441:\n        /* \"#utility.yul\":7170:7289   */\n    tag_440:\n        /* \"#utility.yul\":7356:7357   */\n      0x00\n        /* \"#utility.yul\":7345:7354   */\n      dup6\n        /* \"#utility.yul\":7341:7358   */\n      add\n        /* \"#utility.yul\":7328:7359   */\n      calldataload\n        /* \"#utility.yul\":7386:7404   */\n      0xffffffffffffffff\n        /* \"#utility.yul\":7378:7384   */\n      dup2\n        /* \"#utility.yul\":7375:7405   */\n      gt\n        /* \"#utility.yul\":7372:7489   */\n      iszero\n      tag_442\n      jumpi\n        /* \"#utility.yul\":7408:7487   */\n      tag_443\n      tag_273\n      jump\t// in\n    tag_443:\n        /* \"#utility.yul\":7372:7489   */\n    tag_442:\n        /* \"#utility.yul\":7521:7586   */\n      tag_444\n        /* \"#utility.yul\":7578:7585   */\n      dup8\n        /* \"#utility.yul\":7569:7575   */\n      dup3\n        /* \"#utility.yul\":7558:7567   */\n      dup9\n        /* \"#utility.yul\":7554:7576   */\n      add\n        /* \"#utility.yul\":7521:7586   */\n      tag_295\n      jump\t// in\n    tag_444:\n        /* \"#utility.yul\":7503:7586   */\n      swap5\n      pop\n      swap5\n      pop\n        /* \"#utility.yul\":7299:7596   */\n      pop\n        /* \"#utility.yul\":7635:7637   */\n      0x20\n        /* \"#utility.yul\":7661:7722   */\n      tag_445\n        /* \"#utility.yul\":7714:7721   */\n      dup8\n        /* \"#utility.yul\":7705:7711   */\n      dup3\n        /* \"#utility.yul\":7694:7703   */\n      dup9\n        /* \"#utility.yul\":7690:7712   */\n      add\n        /* \"#utility.yul\":7661:7722   */\n      tag_297\n      jump\t// in\n    tag_445:\n        /* \"#utility.yul\":7651:7722   */\n      swap3\n      pop\n        /* \"#utility.yul\":7606:7732   */\n      pop\n        /* \"#utility.yul\":7771:7773   */\n      0x40\n        /* \"#utility.yul\":7797:7850   */\n      tag_446\n        /* \"#utility.yul\":7842:7849   */\n      dup8\n        /* \"#utility.yul\":7833:7839   */\n      dup3\n        /* \"#utility.yul\":7822:7831   */\n      dup9\n        /* \"#utility.yul\":7818:7840   */\n      add\n        /* \"#utility.yul\":7797:7850   */\n      tag_275\n      jump\t// in\n    tag_446:\n        /* \"#utility.yul\":7787:7850   */\n      swap2\n      pop\n        /* \"#utility.yul\":7742:7860   */\n      pop\n        /* \"#utility.yul\":7032:7867   */\n      swap3\n      swap6\n      swap2\n      swap5\n      pop\n      swap3\n      pop\n      jump\t// out\n        /* \"#utility.yul\":7873:7991   */\n    tag_298:\n        /* \"#utility.yul\":7960:7984   */\n      tag_448\n        /* \"#utility.yul\":7978:7983   */\n      dup2\n        /* \"#utility.yul\":7960:7984   */\n      tag_289\n      jump\t// in\n    tag_448:\n        /* \"#utility.yul\":7955:7958   */\n      dup3\n        /* \"#utility.yul\":7948:7985   */\n      mstore\n        /* \"#utility.yul\":7873:7991   */\n      pop\n      pop\n      jump\t// out\n        /* \"#utility.yul\":7997:8219   */\n    tag_60:\n        /* \"#utility.yul\":8090:8094   */\n      0x00\n        /* \"#utility.yul\":8128:8130   */\n      0x20\n        /* \"#utility.yul\":8117:8126   */\n      dup3\n        /* \"#utility.yul\":8113:8131   */\n      add\n        /* \"#utility.yul\":8105:8131   */\n      swap1\n      pop\n        /* \"#utility.yul\":8141:8212   */\n      tag_450\n        /* \"#utility.yul\":8209:8210   */\n      0x00\n        /* \"#utility.yul\":8198:8207   */\n      dup4\n        /* \"#utility.yul\":8194:8211   */\n      add\n        /* \"#utility.yul\":8185:8191   */\n      dup5\n        /* \"#utility.yul\":8141:8212   */\n      tag_298\n      jump\t// in\n    tag_450:\n        /* \"#utility.yul\":7997:8219   */\n      swap3\n      swap2\n      pop\n      pop\n      jump\t// out\n        /* \"#utility.yul\":8225:8435   */\n    tag_89:\n        /* \"#utility.yul\":8312:8316   */\n      0x00\n        /* \"#utility.yul\":8350:8352   */\n      0x20\n        /* \"#utility.yul\":8339:8348   */\n      dup3\n        /* \"#utility.yul\":8335:8353   */\n      add\n        /* \"#utility.yul\":8327:8353   */\n      swap1\n      pop\n        /* \"#utility.yul\":8363:8428   */\n      tag_452\n        /* \"#utility.yul\":8425:8426   */\n      0x00\n        /* \"#utility.yul\":8414:8423   */\n      dup4\n        /* \"#utility.yul\":8410:8427   */\n      add\n        /* \"#utility.yul\":8401:8407   */\n      dup5\n        /* \"#utility.yul\":8363:8428   */\n      tag_285\n      jump\t// in\n    tag_452:\n        /* \"#utility.yul\":8225:8435   */\n      swap3\n      swap2\n      pop\n      pop\n      jump\t// out\n        /* \"#utility.yul\":8441:8551   */\n    tag_299:\n        /* \"#utility.yul\":8492:8499   */\n      0x00\n        /* \"#utility.yul\":8521:8545   */\n      tag_454\n        /* \"#utility.yul\":8539:8544   */\n      dup3\n        /* \"#utility.yul\":8521:8545   */\n      tag_289\n      jump\t// in\n    tag_454:\n        /* \"#utility.yul\":8510:8545   */\n      swap1\n      pop\n        /* \"#utility.yul\":8441:8551   */\n      swap2\n      swap1\n      pop\n      jump\t// out\n        /* \"#utility.yul\":8557:8707   */\n    tag_300:\n        /* \"#utility.yul\":8644:8682   */\n      tag_456\n        /* \"#utility.yul\":8676:8681   */\n      dup2\n        /* \"#utility.yul\":8644:8682   */\n      tag_299\n      jump\t// in\n    tag_456:\n        /* \"#utility.yul\":8637:8642   */\n      dup2\n        /* \"#utility.yul\":8634:8683   */\n      eq\n        /* \"#utility.yul\":8624:8701   */\n      tag_457\n      jumpi\n        /* \"#utility.yul\":8697:8698   */\n      0x00\n        /* \"#utility.yul\":8694:8695   */\n      dup1\n        /* \"#utility.yul\":8687:8699   */\n      revert\n        /* \"#utility.yul\":8624:8701   */\n    tag_457:\n        /* \"#utility.yul\":8557:8707   */\n      pop\n      jump\t// out\n        /* \"#utility.yul\":8713:8880   */\n    tag_301:\n        /* \"#utility.yul\":8773:8778   */\n      0x00\n        /* \"#utility.yul\":8811:8817   */\n      dup2\n        /* \"#utility.yul\":8798:8818   */\n      calldataload\n        /* \"#utility.yul\":8789:8818   */\n      swap1\n      pop\n        /* \"#utility.yul\":8827:8874   */\n      tag_459\n        /* \"#utility.yul\":8868:8873   */\n      dup2\n        /* \"#utility.yul\":8827:8874   */\n      tag_300\n      jump\t// in\n    tag_459:\n        /* \"#utility.yul\":8713:8880   */\n      swap3\n      swap2\n      pop\n      pop\n      jump\t// out\n        /* \"#utility.yul\":8886:9533   */\n    tag_93:\n        /* \"#utility.yul\":8977:8983   */\n      0x00\n        /* \"#utility.yul\":8985:8991   */\n      dup1\n        /* \"#utility.yul\":8993:8999   */\n      0x00\n        /* \"#utility.yul\":9042:9044   */\n      0x60\n        /* \"#utility.yul\":9030:9039   */\n      dup5\n        /* \"#utility.yul\":9021:9028   */\n      dup7\n        /* \"#utility.yul\":9017:9040   */\n      sub\n        /* \"#utility.yul\":9013:9045   */\n      slt\n        /* \"#utility.yul\":9010:9129   */\n      iszero\n      tag_461\n      jumpi\n        /* \"#utility.yul\":9048:9127   */\n      tag_462\n      tag_272\n      jump\t// in\n    tag_462:\n        /* \"#utility.yul\":9010:9129   */\n    tag_461:\n        /* \"#utility.yul\":9168:9169   */\n      0x00\n        /* \"#utility.yul\":9193:9260   */\n      tag_463\n        /* \"#utility.yul\":9252:9259   */\n      dup7\n        /* \"#utility.yul\":9243:9249   */\n      dup3\n        /* \"#utility.yul\":9232:9241   */\n      dup8\n        /* \"#utility.yul\":9228:9250   */\n      add\n        /* \"#utility.yul\":9193:9260   */\n      tag_301\n      jump\t// in\n    tag_463:\n        /* \"#utility.yul\":9183:9260   */\n      swap4\n      pop\n        /* \"#utility.yul\":9139:9270   */\n      pop\n        /* \"#utility.yul\":9309:9311   */\n      0x20\n        /* \"#utility.yul\":9335:9388   */\n      tag_464\n        /* \"#utility.yul\":9380:9387   */\n      dup7\n        /* \"#utility.yul\":9371:9377   */\n      dup3\n        /* \"#utility.yul\":9360:9369   */\n      dup8\n        /* \"#utility.yul\":9356:9378   */\n      add\n        /* \"#utility.yul\":9335:9388   */\n      tag_291\n      jump\t// in\n    tag_464:\n        /* \"#utility.yul\":9325:9388   */\n      swap3\n      pop\n        /* \"#utility.yul\":9280:9398   */\n      pop\n        /* \"#utility.yul\":9437:9439   */\n      0x40\n        /* \"#utility.yul\":9463:9516   */\n      tag_465\n        /* \"#utility.yul\":9508:9515   */\n      dup7\n        /* \"#utility.yul\":9499:9505   */\n      dup3\n        /* \"#utility.yul\":9488:9497   */\n      dup8\n        /* \"#utility.yul\":9484:9506   */\n      add\n        /* \"#utility.yul\":9463:9516   */\n      tag_275\n      jump\t// in\n    tag_465:\n        /* \"#utility.yul\":9453:9516   */\n      swap2\n      pop\n        /* \"#utility.yul\":9408:9526   */\n      pop\n        /* \"#utility.yul\":8886:9533   */\n      swap3\n      pop\n      swap3\n      pop\n      swap3\n      jump\t// out\n        /* \"#utility.yul\":9539:9719   */\n    tag_302:\n        /* \"#utility.yul\":9587:9664   */\n      0x4e487b7100000000000000000000000000000000000000000000000000000000\n        /* \"#utility.yul\":9584:9585   */\n      0x00\n        /* \"#utility.yul\":9577:9665   */\n      mstore\n        /* \"#utility.yul\":9684:9688   */\n      0x22\n        /* \"#utility.yul\":9681:9682   */\n      0x04\n        /* \"#utility.yul\":9674:9689   */\n      mstore\n        /* \"#utility.yul\":9708:9712   */\n      0x24\n        /* \"#utility.yul\":9705:9706   */\n      0x00\n        /* \"#utility.yul\":9698:9713   */\n      revert\n        /* \"#utility.yul\":9725:10045   */\n    tag_96:\n        /* \"#utility.yul\":9769:9775   */\n      0x00\n        /* \"#utility.yul\":9806:9807   */\n      0x02\n        /* \"#utility.yul\":9800:9804   */\n      dup3\n        /* \"#utility.yul\":9796:9808   */\n      div\n        /* \"#utility.yul\":9786:9808   */\n      swap1\n      pop\n        /* \"#utility.yul\":9853:9854   */\n      0x01\n        /* \"#utility.yul\":9847:9851   */\n      dup3\n        /* \"#utility.yul\":9843:9855   */\n      and\n        /* \"#utility.yul\":9874:9892   */\n      dup1\n        /* \"#utility.yul\":9864:9945   */\n      tag_468\n      jumpi\n        /* \"#utility.yul\":9930:9934   */\n      0x7f\n        /* \"#utility.yul\":9922:9928   */\n      dup3\n        /* \"#utility.yul\":9918:9935   */\n      and\n        /* \"#utility.yul\":9908:9935   */\n      swap2\n      pop\n        /* \"#utility.yul\":9864:9945   */\n    tag_468:\n        /* \"#utility.yul\":9992:9994   */\n      0x20\n        /* \"#utility.yul\":9984:9990   */\n      dup3\n        /* \"#utility.yul\":9981:9995   */\n      lt\n        /* \"#utility.yul\":9961:9979   */\n      dup2\n        /* \"#utility.yul\":9958:9996   */\n      sub\n        /* \"#utility.yul\":9955:10039   */\n      tag_469\n      jumpi\n        /* \"#utility.yul\":10011:10029   */\n      tag_470\n      tag_302\n      jump\t// in\n    tag_470:\n        /* \"#utility.yul\":9955:10039   */\n    tag_469:\n        /* \"#utility.yul\":9776:10045   */\n      pop\n        /* \"#utility.yul\":9725:10045   */\n      swap2\n      swap1\n      pop\n      jump\t// out\n        /* \"#utility.yul\":10051:10215   */\n    tag_303:\n        /* \"#utility.yul\":10191:10207   */\n      0x4e6f7420617574686f72697a6564000000000000000000000000000000000000\n        /* \"#utility.yul\":10187:10188   */\n      0x00\n        /* \"#utility.yul\":10179:10185   */\n      dup3\n        /* \"#utility.yul\":10175:10189   */\n      add\n        /* \"#utility.yul\":10168:10208   */\n      mstore\n        /* \"#utility.yul\":10051:10215   */\n      pop\n      jump\t// out\n        /* \"#utility.yul\":10221:10587   */\n    tag_304:\n        /* \"#utility.yul\":10363:10366   */\n      0x00\n        /* \"#utility.yul\":10384:10451   */\n      tag_473\n        /* \"#utility.yul\":10448:10450   */\n      0x0e\n        /* \"#utility.yul\":10443:10446   */\n      dup4\n        /* \"#utility.yul\":10384:10451   */\n      tag_277\n      jump\t// in\n    tag_473:\n        /* \"#utility.yul\":10377:10451   */\n      swap2\n      pop\n        /* \"#utility.yul\":10460:10553   */\n      tag_474\n        /* \"#utility.yul\":10549:10552   */\n      dup3\n        /* \"#utility.yul\":10460:10553   */\n      tag_303\n      jump\t// in\n    tag_474:\n        /* \"#utility.yul\":10578:10580   */\n      0x20\n        /* \"#utility.yul\":10573:10576   */\n      dup3\n        /* \"#utility.yul\":10569:10581   */\n      add\n        /* \"#utility.yul\":10562:10581   */\n      swap1\n      pop\n        /* \"#utility.yul\":10221:10587   */\n      swap2\n      swap1\n      pop\n      jump\t// out\n        /* \"#utility.yul\":10593:11012   */\n    tag_106:\n        /* \"#utility.yul\":10759:10763   */\n      0x00\n        /* \"#utility.yul\":10797:10799   */\n      0x20\n        /* \"#utility.yul\":10786:10795   */\n      dup3\n        /* \"#utility.yul\":10782:10800   */\n      add\n        /* \"#utility.yul\":10774:10800   */\n      swap1\n      pop\n        /* \"#utility.yul\":10846:10855   */\n      dup2\n        /* \"#utility.yul\":10840:10844   */\n      dup2\n        /* \"#utility.yul\":10836:10856   */\n      sub\n        /* \"#utility.yul\":10832:10833   */\n      0x00\n        /* \"#utility.yul\":10821:10830   */\n      dup4\n        /* \"#utility.yul\":10817:10834   */\n      add\n        /* \"#utility.yul\":10810:10857   */\n      mstore\n        /* \"#utility.yul\":10874:11005   */\n      tag_476\n        /* \"#utility.yul\":11000:11004   */\n      dup2\n        /* \"#utility.yul\":10874:11005   */\n      tag_304\n      jump\t// in\n    tag_476:\n        /* \"#utility.yul\":10866:11005   */\n      swap1\n      pop\n        /* \"#utility.yul\":10593:11012   */\n      swap2\n      swap1\n      pop\n      jump\t// out\n        /* \"#utility.yul\":11018:11191   */\n    tag_305:\n        /* \"#utility.yul\":11158:11183   */\n      0x50726f706f73616c20646f6573206e6f74206578697374000000000000000000\n        /* \"#utility.yul\":11154:11155   */\n      0x00\n        /* \"#utility.yul\":11146:11152   */\n      dup3\n        /* \"#utility.yul\":11142:11156   */\n      add\n        /* \"#utility.yul\":11135:11184   */\n      mstore\n        /* \"#utility.yul\":11018:11191   */\n      pop\n      jump\t// out\n        /* \"#utility.yul\":11197:11563   */\n    tag_306:\n        /* \"#utility.yul\":11339:11342   */\n      0x00\n        /* \"#utility.yul\":11360:11427   */\n      tag_479\n        /* \"#utility.yul\":11424:11426   */\n      0x17\n        /* \"#utility.yul\":11419:11422   */\n      dup4\n        /* \"#utility.yul\":11360:11427   */\n      tag_277\n      jump\t// in\n    tag_479:\n        /* \"#utility.yul\":11353:11427   */\n      swap2\n      pop\n        /* \"#utility.yul\":11436:11529   */\n      tag_480\n        /* \"#utility.yul\":11525:11528   */\n      dup3\n        /* \"#utility.yul\":11436:11529   */\n      tag_305\n      jump\t// in\n    tag_480:\n        /* \"#utility.yul\":11554:11556   */\n      0x20\n        /* \"#utility.yul\":11549:11552   */\n      dup3\n        /* \"#utility.yul\":11545:11557   */\n      add\n        /* \"#utility.yul\":11538:11557   */\n      swap1\n      pop\n        /* \"#utility.yul\":11197:11563   */\n      swap2\n      swap1\n      pop\n      jump\t// out\n        /* \"#utility.yul\":11569:11988   */\n    tag_113:\n        /* \"#utility.yul\":11735:11739   */\n      0x00\n        /* \"#utility.yul\":11773:11775   */\n      0x20\n        /* \"#utility.yul\":11762:11771   */\n      dup3\n        /* \"#utility.yul\":11758:11776   */\n      add\n        /* \"#utility.yul\":11750:11776   */\n      swap1\n      pop\n        /* \"#utility.yul\":11822:11831   */\n      dup2\n        /* \"#utility.yul\":11816:11820   */\n      dup2\n        /* \"#utility.yul\":11812:11832   */\n      sub\n        /* \"#utility.yul\":11808:11809   */\n      0x00\n        /* \"#utility.yul\":11797:11806   */\n      dup4\n        /* \"#utility.yul\":11793:11810   */\n      add\n        /* \"#utility.yul\":11786:11833   */\n      mstore\n        /* \"#utility.yul\":11850:11981   */\n      tag_482\n        /* \"#utility.yul\":11976:11980   */\n      dup2\n        /* \"#utility.yul\":11850:11981   */\n      tag_306\n      jump\t// in\n    tag_482:\n        /* \"#utility.yul\":11842:11981   */\n      swap1\n      pop\n        /* \"#utility.yul\":11569:11988   */\n      swap2\n      swap1\n      pop\n      jump\t// out\n        /* \"#utility.yul\":11994:12169   */\n    tag_307:\n        /* \"#utility.yul\":12134:12161   */\n      0x50726f706f73616c20616c726561647920657865637574656400000000000000\n        /* \"#utility.yul\":12130:12131   */\n      0x00\n        /* \"#utility.yul\":12122:12128   */\n      dup3\n        /* \"#utility.yul\":12118:12132   */\n      add\n        /* \"#utility.yul\":12111:12162   */\n      mstore\n        /* \"#utility.yul\":11994:12169   */\n      pop\n      jump\t// out\n        /* \"#utility.yul\":12175:12541   */\n    tag_308:\n        /* \"#utility.yul\":12317:12320   */\n      0x00\n        /* \"#utility.yul\":12338:12405   */\n      tag_485\n        /* \"#utility.yul\":12402:12404   */\n      0x19\n        /* \"#utility.yul\":12397:12400   */\n      dup4\n        /* \"#utility.yul\":12338:12405   */\n      tag_277\n      jump\t// in\n    tag_485:\n        /* \"#utility.yul\":12331:12405   */\n      swap2\n      pop\n        /* \"#utility.yul\":12414:12507   */\n      tag_486\n        /* \"#utility.yul\":12503:12506   */\n      dup3\n        /* \"#utility.yul\":12414:12507   */\n      tag_307\n      jump\t// in\n    tag_486:\n        /* \"#utility.yul\":12532:12534   */\n      0x20\n        /* \"#utility.yul\":12527:12530   */\n      dup3\n        /* \"#utility.yul\":12523:12535   */\n      add\n        /* \"#utility.yul\":12516:12535   */\n      swap1\n      pop\n        /* \"#utility.yul\":12175:12541   */\n      swap2\n      swap1\n      pop\n      jump\t// out\n        /* \"#utility.yul\":12547:12966   */\n    tag_116:\n        /* \"#utility.yul\":12713:12717   */\n      0x00\n        /* \"#utility.yul\":12751:12753   */\n      0x20\n        /* \"#utility.yul\":12740:12749   */\n      dup3\n        /* \"#utility.yul\":12736:12754   */\n      add\n        /* \"#utility.yul\":12728:12754   */\n      swap1\n      pop\n        /* \"#utility.yul\":12800:12809   */\n      dup2\n        /* \"#utility.yul\":12794:12798   */\n      dup2\n        /* \"#utility.yul\":12790:12810   */\n      sub\n        /* \"#utility.yul\":12786:12787   */\n      0x00\n        /* \"#utility.yul\":12775:12784   */\n      dup4\n        /* \"#utility.yul\":12771:12788   */\n      add\n        /* \"#utility.yul\":12764:12811   */\n      mstore\n        /* \"#utility.yul\":12828:12959   */\n      tag_488\n        /* \"#utility.yul\":12954:12958   */\n      dup2\n        /* \"#utility.yul\":12828:12959   */\n      tag_308\n      jump\t// in\n    tag_488:\n        /* \"#utility.yul\":12820:12959   */\n      swap1\n      pop\n        /* \"#utility.yul\":12547:12966   */\n      swap2\n      swap1\n      pop\n      jump\t// out\n        /* \"#utility.yul\":12972:13140   */\n    tag_309:\n        /* \"#utility.yul\":13112:13132   */\n      0x50726f706f73616c2063616e63656c6c65640000000000000000000000000000\n        /* \"#utility.yul\":13108:13109   */\n      0x00\n        /* \"#utility.yul\":13100:13106   */\n      dup3\n        /* \"#utility.yul\":13096:13110   */\n      add\n        /* \"#utility.yul\":13089:13133   */\n      mstore\n        /* \"#utility.yul\":12972:13140   */\n      pop\n      jump\t// out\n        /* \"#utility.yul\":13146:13512   */\n    tag_310:\n        /* \"#utility.yul\":13288:13291   */\n      0x00\n        /* \"#utility.yul\":13309:13376   */\n      tag_491\n        /* \"#utility.yul\":13373:13375   */\n      0x12\n        /* \"#utility.yul\":13368:13371   */\n      dup4\n        /* \"#utility.yul\":13309:13376   */\n      tag_277\n      jump\t// in\n    tag_491:\n        /* \"#utility.yul\":13302:13376   */\n      swap2\n      pop\n        /* \"#utility.yul\":13385:13478   */\n      tag_492\n        /* \"#utility.yul\":13474:13477   */\n      dup3\n        /* \"#utility.yul\":13385:13478   */\n      tag_309\n      jump\t// in\n    tag_492:\n        /* \"#utility.yul\":13503:13505   */\n      0x20\n        /* \"#utility.yul\":13498:13501   */\n      dup3\n        /* \"#utility.yul\":13494:13506   */\n      add\n        /* \"#utility.yul\":13487:13506   */\n      swap1\n      pop\n        /* \"#utility.yul\":13146:13512   */\n      swap2\n      swap1\n      pop\n      jump\t// out\n        /* \"#utility.yul\":13518:13937   */\n    tag_119:\n        /* \"#utility.yul\":13684:13688   */\n      0x00\n        /* \"#utility.yul\":13722:13724   */\n      0x20\n        /* \"#utility.yul\":13711:13720   */\n      dup3\n        /* \"#utility.yul\":13707:13725   */\n      add\n        /* \"#utility.yul\":13699:13725   */\n      swap1\n      pop\n        /* \"#utility.yul\":13771:13780   */\n      dup2\n        /* \"#utility.yul\":13765:13769   */\n      dup2\n        /* \"#utility.yul\":13761:13781   */\n      sub\n        /* \"#utility.yul\":13757:13758   */\n      0x00\n        /* \"#utility.yul\":13746:13755   */\n      dup4\n        /* \"#utility.yul\":13742:13759   */\n      add\n        /* \"#utility.yul\":13735:13782   */\n      mstore\n        /* \"#utility.yul\":13799:13930   */\n      tag_494\n        /* \"#utility.yul\":13925:13929   */\n      dup2\n        /* \"#utility.yul\":13799:13930   */\n      tag_310\n      jump\t// in\n    tag_494:\n        /* \"#utility.yul\":13791:13930   */\n      swap1\n      pop\n        /* \"#utility.yul\":13518:13937   */\n      swap2\n      swap1\n      pop\n      jump\t// out\n        /* \"#utility.yul\":13943:14113   */\n    tag_311:\n        /* \"#utility.yul\":14083:14105   */\n      0x54696d656c6f636b206e6f742065787069726564000000000000000000000000\n        /* \"#utility.yul\":14079:14080   */\n      0x00\n        /* \"#utility.yul\":14071:14077   */\n      dup3\n        /* \"#utility.yul\":14067:14081   */\n      add\n        /* \"#utility.yul\":14060:14106   */\n      mstore\n        /* \"#utility.yul\":13943:14113   */\n      pop\n      jump\t// out\n        /* \"#utility.yul\":14119:14485   */\n    tag_312:\n        /* \"#utility.yul\":14261:14264   */\n      0x00\n        /* \"#utility.yul\":14282:14349   */\n      tag_497\n        /* \"#utility.yul\":14346:14348   */\n      0x14\n        /* \"#utility.yul\":14341:14344   */\n      dup4\n        /* \"#utility.yul\":14282:14349   */\n      tag_277\n      jump\t// in\n    tag_497:\n        /* \"#utility.yul\":14275:14349   */\n      swap2\n      pop\n        /* \"#utility.yul\":14358:14451   */\n      tag_498\n        /* \"#utility.yul\":14447:14450   */\n      dup3\n        /* \"#utility.yul\":14358:14451   */\n      tag_311\n      jump\t// in\n    tag_498:\n        /* \"#utility.yul\":14476:14478   */\n      0x20\n        /* \"#utility.yul\":14471:14474   */\n      dup3\n        /* \"#utility.yul\":14467:14479   */\n      add\n        /* \"#utility.yul\":14460:14479   */\n      swap1\n      pop\n        /* \"#utility.yul\":14119:14485   */\n      swap2\n      swap1\n      pop\n      jump\t// out\n        /* \"#utility.yul\":14491:14910   */\n    tag_122:\n        /* \"#utility.yul\":14657:14661   */\n      0x00\n        /* \"#utility.yul\":14695:14697   */\n      0x20\n        /* \"#utility.yul\":14684:14693   */\n      dup3\n        /* \"#utility.yul\":14680:14698   */\n      add\n        /* \"#utility.yul\":14672:14698   */\n      swap1\n      pop\n        /* \"#utility.yul\":14744:14753   */\n      dup2\n        /* \"#utility.yul\":14738:14742   */\n      dup2\n        /* \"#utility.yul\":14734:14754   */\n      sub\n        /* \"#utility.yul\":14730:14731   */\n      0x00\n        /* \"#utility.yul\":14719:14728   */\n      dup4\n        /* \"#utility.yul\":14715:14732   */\n      add\n        /* \"#utility.yul\":14708:14755   */\n      mstore\n        /* \"#utility.yul\":14772:14903   */\n      tag_500\n        /* \"#utility.yul\":14898:14902   */\n      dup2\n        /* \"#utility.yul\":14772:14903   */\n      tag_312\n      jump\t// in\n    tag_500:\n        /* \"#utility.yul\":14764:14903   */\n      swap1\n      pop\n        /* \"#utility.yul\":14491:14910   */\n      swap2\n      swap1\n      pop\n      jump\t// out\n        /* \"#utility.yul\":14916:15063   */\n    tag_313:\n        /* \"#utility.yul\":15017:15028   */\n      0x00\n        /* \"#utility.yul\":15054:15057   */\n      dup2\n        /* \"#utility.yul\":15039:15057   */\n      swap1\n      pop\n        /* \"#utility.yul\":14916:15063   */\n      swap3\n      swap2\n      pop\n      pop\n      jump\t// out\n        /* \"#utility.yul\":15069:15183   */\n    tag_314:\n      pop\n      jump\t// out\n        /* \"#utility.yul\":15189:15587   */\n    tag_315:\n        /* \"#utility.yul\":15348:15351   */\n      0x00\n        /* \"#utility.yul\":15369:15452   */\n      tag_504\n        /* \"#utility.yul\":15450:15451   */\n      0x00\n        /* \"#utility.yul\":15445:15448   */\n      dup4\n        /* \"#utility.yul\":15369:15452   */\n      tag_313\n      jump\t// in\n    tag_504:\n        /* \"#utility.yul\":15362:15452   */\n      swap2\n      pop\n        /* \"#utility.yul\":15461:15554   */\n      tag_505\n        /* \"#utility.yul\":15550:15553   */\n      dup3\n        /* \"#utility.yul\":15461:15554   */\n      tag_314\n      jump\t// in\n    tag_505:\n        /* \"#utility.yul\":15579:15580   */\n      0x00\n        /* \"#utility.yul\":15574:15577   */\n      dup3\n        /* \"#utility.yul\":15570:15581   */\n      add\n        /* \"#utility.yul\":15563:15581   */\n      swap1\n      pop\n        /* \"#utility.yul\":15189:15587   */\n      swap2\n      swap1\n      pop\n      jump\t// out\n        /* \"#utility.yul\":15593:15972   */\n    tag_124:\n        /* \"#utility.yul\":15777:15780   */\n      0x00\n        /* \"#utility.yul\":15799:15946   */\n      tag_507\n        /* \"#utility.yul\":15942:15945   */\n      dup3\n        /* \"#utility.yul\":15799:15946   */\n      tag_315\n      jump\t// in\n    tag_507:\n        /* \"#utility.yul\":15792:15946   */\n      swap2\n      pop\n        /* \"#utility.yul\":15963:15966   */\n      dup2\n        /* \"#utility.yul\":15956:15966   */\n      swap1\n      pop\n        /* \"#utility.yul\":15593:15972   */\n      swap2\n      swap1\n      pop\n      jump\t// out\n        /* \"#utility.yul\":15978:16148   */\n    tag_316:\n        /* \"#utility.yul\":16118:16140   */\n      0x46756e64207472616e73666572206661696c6564000000000000000000000000\n        /* \"#utility.yul\":16114:16115   */\n      0x00\n        /* \"#utility.yul\":16106:16112   */\n      dup3\n        /* \"#utility.yul\":16102:16116   */\n      add\n        /* \"#utility.yul\":16095:16141   */\n      mstore\n        /* \"#utility.yul\":15978:16148   */\n      pop\n      jump\t// out\n        /* \"#utility.yul\":16154:16520   */\n    tag_317:\n        /* \"#utility.yul\":16296:16299   */\n      0x00\n        /* \"#utility.yul\":16317:16384   */\n      tag_510\n        /* \"#utility.yul\":16381:16383   */\n      0x14\n        /* \"#utility.yul\":16376:16379   */\n      dup4\n        /* \"#utility.yul\":16317:16384   */\n      tag_277\n      jump\t// in\n    tag_510:\n        /* \"#utility.yul\":16310:16384   */\n      swap2\n      pop\n        /* \"#utility.yul\":16393:16486   */\n      tag_511\n        /* \"#utility.yul\":16482:16485   */\n      dup3\n        /* \"#utility.yul\":16393:16486   */\n      tag_316\n      jump\t// in\n    tag_511:\n        /* \"#utility.yul\":16511:16513   */\n      0x20\n        /* \"#utility.yul\":16506:16509   */\n      dup3\n        /* \"#utility.yul\":16502:16514   */\n      add\n        /* \"#utility.yul\":16495:16514   */\n      swap1\n      pop\n        /* \"#utility.yul\":16154:16520   */\n      swap2\n      swap1\n      pop\n      jump\t// out\n        /* \"#utility.yul\":16526:16945   */\n    tag_130:\n        /* \"#utility.yul\":16692:16696   */\n      0x00\n        /* \"#utility.yul\":16730:16732   */\n      0x20\n        /* \"#utility.yul\":16719:16728   */\n      dup3\n        /* \"#utility.yul\":16715:16733   */\n      add\n        /* \"#utility.yul\":16707:16733   */\n      swap1\n      pop\n        /* \"#utility.yul\":16779:16788   */\n      dup2\n        /* \"#utility.yul\":16773:16777   */\n      dup2\n        /* \"#utility.yul\":16769:16789   */\n      sub\n        /* \"#utility.yul\":16765:16766   */\n      0x00\n        /* \"#utility.yul\":16754:16763   */\n      dup4\n        /* \"#utility.yul\":16750:16767   */\n      add\n        /* \"#utility.yul\":16743:16790   */\n      mstore\n        /* \"#utility.yul\":16807:16938   */\n      tag_513\n        /* \"#utility.yul\":16933:16937   */\n      dup2\n        /* \"#utility.yul\":16807:16938   */\n      tag_317\n      jump\t// in\n    tag_513:\n        /* \"#utility.yul\":16799:16938   */\n      swap1\n      pop\n        /* \"#utility.yul\":16526:16945   */\n      swap2\n      swap1\n      pop\n      jump\t// out\n        /* \"#utility.yul\":16951:17116   */\n    tag_318:\n        /* \"#utility.yul\":17091:17108   */\n      0x496e76616c696420616464726573730000000000000000000000000000000000\n        /* \"#utility.yul\":17087:17088   */\n      0x00\n        /* \"#utility.yul\":17079:17085   */\n      dup3\n        /* \"#utility.yul\":17075:17089   */\n      add\n        /* \"#utility.yul\":17068:17109   */\n      mstore\n        /* \"#utility.yul\":16951:17116   */\n      pop\n      jump\t// out\n        /* \"#utility.yul\":17122:17488   */\n    tag_319:\n        /* \"#utility.yul\":17264:17267   */\n      0x00\n        /* \"#utility.yul\":17285:17352   */\n      tag_516\n        /* \"#utility.yul\":17349:17351   */\n      0x0f\n        /* \"#utility.yul\":17344:17347   */\n      dup4\n        /* \"#utility.yul\":17285:17352   */\n      tag_277\n      jump\t// in\n    tag_516:\n        /* \"#utility.yul\":17278:17352   */\n      swap2\n      pop\n        /* \"#utility.yul\":17361:17454   */\n      tag_517\n        /* \"#utility.yul\":17450:17453   */\n      dup3\n        /* \"#utility.yul\":17361:17454   */\n      tag_318\n      jump\t// in\n    tag_517:\n        /* \"#utility.yul\":17479:17481   */\n      0x20\n        /* \"#utility.yul\":17474:17477   */\n      dup3\n        /* \"#utility.yul\":17470:17482   */\n      add\n        /* \"#utility.yul\":17463:17482   */\n      swap1\n      pop\n        /* \"#utility.yul\":17122:17488   */\n      swap2\n      swap1\n      pop\n      jump\t// out\n        /* \"#utility.yul\":17494:17913   */\n    tag_140:\n        /* \"#utility.yul\":17660:17664   */\n      0x00\n        /* \"#utility.yul\":17698:17700   */\n      0x20\n        /* \"#utility.yul\":17687:17696   */\n      dup3\n        /* \"#utility.yul\":17683:17701   */\n      add\n        /* \"#utility.yul\":17675:17701   */\n      swap1\n      pop\n        /* \"#utility.yul\":17747:17756   */\n      dup2\n        /* \"#utility.yul\":17741:17745   */\n      dup2\n        /* \"#utility.yul\":17737:17757   */\n      sub\n        /* \"#utility.yul\":17733:17734   */\n      0x00\n        /* \"#utility.yul\":17722:17731   */\n      dup4\n        /* \"#utility.yul\":17718:17735   */\n      add\n        /* \"#utility.yul\":17711:17758   */\n      mstore\n        /* \"#utility.yul\":17775:17906   */\n      tag_519\n        /* \"#utility.yul\":17901:17905   */\n      dup2\n        /* \"#utility.yul\":17775:17906   */\n      tag_319\n      jump\t// in\n    tag_519:\n        /* \"#utility.yul\":17767:17906   */\n      swap1\n      pop\n        /* \"#utility.yul\":17494:17913   */\n      swap2\n      swap1\n      pop\n      jump\t// out\n        /* \"#utility.yul\":17919:18086   */\n    tag_320:\n        /* \"#utility.yul\":18059:18078   */\n      0x416c72656164792061206d616e61676572000000000000000000000000000000\n        /* \"#utility.yul\":18055:18056   */\n      0x00\n        /* \"#utility.yul\":18047:18053   */\n      dup3\n        /* \"#utility.yul\":18043:18057   */\n      add\n        /* \"#utility.yul\":18036:18079   */\n      mstore\n        /* \"#utility.yul\":17919:18086   */\n      pop\n      jump\t// out\n        /* \"#utility.yul\":18092:18458   */\n    tag_321:\n        /* \"#utility.yul\":18234:18237   */\n      0x00\n        /* \"#utility.yul\":18255:18322   */\n      tag_522\n        /* \"#utility.yul\":18319:18321   */\n      0x11\n        /* \"#utility.yul\":18314:18317   */\n      dup4\n        /* \"#utility.yul\":18255:18322   */\n      tag_277\n      jump\t// in\n    tag_522:\n        /* \"#utility.yul\":18248:18322   */\n      swap2\n      pop\n        /* \"#utility.yul\":18331:18424   */\n      tag_523\n        /* \"#utility.yul\":18420:18423   */\n      dup3\n        /* \"#utility.yul\":18331:18424   */\n      tag_320\n      jump\t// in\n    tag_523:\n        /* \"#utility.yul\":18449:18451   */\n      0x20\n        /* \"#utility.yul\":18444:18447   */\n      dup3\n        /* \"#utility.yul\":18440:18452   */\n      add\n        /* \"#utility.yul\":18433:18452   */\n      swap1\n      pop\n        /* \"#utility.yul\":18092:18458   */\n      swap2\n      swap1\n      pop\n      jump\t// out\n        /* \"#utility.yul\":18464:18883   */\n    tag_143:\n        /* \"#utility.yul\":18630:18634   */\n      0x00\n        /* \"#utility.yul\":18668:18670   */\n      0x20\n        /* \"#utility.yul\":18657:18666   */\n      dup3\n        /* \"#utility.yul\":18653:18671   */\n      add\n        /* \"#utility.yul\":18645:18671   */\n      swap1\n      pop\n        /* \"#utility.yul\":18717:18726   */\n      dup2\n        /* \"#utility.yul\":18711:18715   */\n      dup2\n        /* \"#utility.yul\":18707:18727   */\n      sub\n        /* \"#utility.yul\":18703:18704   */\n      0x00\n        /* \"#utility.yul\":18692:18701   */\n      dup4\n        /* \"#utility.yul\":18688:18705   */\n      add\n        /* \"#utility.yul\":18681:18728   */\n      mstore\n        /* \"#utility.yul\":18745:18876   */\n      tag_525\n        /* \"#utility.yul\":18871:18875   */\n      dup2\n        /* \"#utility.yul\":18745:18876   */\n      tag_321\n      jump\t// in\n    tag_525:\n        /* \"#utility.yul\":18737:18876   */\n      swap1\n      pop\n        /* \"#utility.yul\":18464:18883   */\n      swap2\n      swap1\n      pop\n      jump\t// out\n        /* \"#utility.yul\":18889:19056   */\n    tag_322:\n        /* \"#utility.yul\":19029:19048   */\n      0x496e76616c696420726563697069656e74000000000000000000000000000000\n        /* \"#utility.yul\":19025:19026   */\n      0x00\n        /* \"#utility.yul\":19017:19023   */\n      dup3\n        /* \"#utility.yul\":19013:19027   */\n      add\n        /* \"#utility.yul\":19006:19049   */\n      mstore\n        /* \"#utility.yul\":18889:19056   */\n      pop\n      jump\t// out\n        /* \"#utility.yul\":19062:19428   */\n    tag_323:\n        /* \"#utility.yul\":19204:19207   */\n      0x00\n        /* \"#utility.yul\":19225:19292   */\n      tag_528\n        /* \"#utility.yul\":19289:19291   */\n      0x11\n        /* \"#utility.yul\":19284:19287   */\n      dup4\n        /* \"#utility.yul\":19225:19292   */\n      tag_277\n      jump\t// in\n    tag_528:\n        /* \"#utility.yul\":19218:19292   */\n      swap2\n      pop\n        /* \"#utility.yul\":19301:19394   */\n      tag_529\n        /* \"#utility.yul\":19390:19393   */\n      dup3\n        /* \"#utility.yul\":19301:19394   */\n      tag_322\n      jump\t// in\n    tag_529:\n        /* \"#utility.yul\":19419:19421   */\n      0x20\n        /* \"#utility.yul\":19414:19417   */\n      dup3\n        /* \"#utility.yul\":19410:19422   */\n      add\n        /* \"#utility.yul\":19403:19422   */\n      swap1\n      pop\n        /* \"#utility.yul\":19062:19428   */\n      swap2\n      swap1\n      pop\n      jump\t// out\n        /* \"#utility.yul\":19434:19853   */\n    tag_155:\n        /* \"#utility.yul\":19600:19604   */\n      0x00\n        /* \"#utility.yul\":19638:19640   */\n      0x20\n        /* \"#utility.yul\":19627:19636   */\n      dup3\n        /* \"#utility.yul\":19623:19641   */\n      add\n        /* \"#utility.yul\":19615:19641   */\n      swap1\n      pop\n        /* \"#utility.yul\":19687:19696   */\n      dup2\n        /* \"#utility.yul\":19681:19685   */\n      dup2\n        /* \"#utility.yul\":19677:19697   */\n      sub\n        /* \"#utility.yul\":19673:19674   */\n      0x00\n        /* \"#utility.yul\":19662:19671   */\n      dup4\n        /* \"#utility.yul\":19658:19675   */\n      add\n        /* \"#utility.yul\":19651:19698   */\n      mstore\n        /* \"#utility.yul\":19715:19846   */\n      tag_531\n        /* \"#utility.yul\":19841:19845   */\n      dup2\n        /* \"#utility.yul\":19715:19846   */\n      tag_323\n      jump\t// in\n    tag_531:\n        /* \"#utility.yul\":19707:19846   */\n      swap1\n      pop\n        /* \"#utility.yul\":19434:19853   */\n      swap2\n      swap1\n      pop\n      jump\t// out\n        /* \"#utility.yul\":19859:20027   */\n    tag_324:\n        /* \"#utility.yul\":19999:20019   */\n      0x416d6f756e74206d757374206265203e20300000000000000000000000000000\n        /* \"#utility.yul\":19995:19996   */\n      0x00\n        /* \"#utility.yul\":19987:19993   */\n      dup3\n        /* \"#utility.yul\":19983:19997   */\n      add\n        /* \"#utility.yul\":19976:20020   */\n      mstore\n        /* \"#utility.yul\":19859:20027   */\n      pop\n      jump\t// out\n        /* \"#utility.yul\":20033:20399   */\n    tag_325:\n        /* \"#utility.yul\":20175:20178   */\n      0x00\n        /* \"#utility.yul\":20196:20263   */\n      tag_534\n        /* \"#utility.yul\":20260:20262   */\n      0x12\n        /* \"#utility.yul\":20255:20258   */\n      dup4\n        /* \"#utility.yul\":20196:20263   */\n      tag_277\n      jump\t// in\n    tag_534:\n        /* \"#utility.yul\":20189:20263   */\n      swap2\n      pop\n        /* \"#utility.yul\":20272:20365   */\n      tag_535\n        /* \"#utility.yul\":20361:20364   */\n      dup3\n        /* \"#utility.yul\":20272:20365   */\n      tag_324\n      jump\t// in\n    tag_535:\n        /* \"#utility.yul\":20390:20392   */\n      0x20\n        /* \"#utility.yul\":20385:20388   */\n      dup3\n        /* \"#utility.yul\":20381:20393   */\n      add\n        /* \"#utility.yul\":20374:20393   */\n      swap1\n      pop\n        /* \"#utility.yul\":20033:20399   */\n      swap2\n      swap1\n      pop\n      jump\t// out\n        /* \"#utility.yul\":20405:20824   */\n    tag_158:\n        /* \"#utility.yul\":20571:20575   */\n      0x00\n        /* \"#utility.yul\":20609:20611   */\n      0x20\n        /* \"#utility.yul\":20598:20607   */\n      dup3\n        /* \"#utility.yul\":20594:20612   */\n      add\n        /* \"#utility.yul\":20586:20612   */\n      swap1\n      pop\n        /* \"#utility.yul\":20658:20667   */\n      dup2\n        /* \"#utility.yul\":20652:20656   */\n      dup2\n        /* \"#utility.yul\":20648:20668   */\n      sub\n        /* \"#utility.yul\":20644:20645   */\n      0x00\n        /* \"#utility.yul\":20633:20642   */\n      dup4\n        /* \"#utility.yul\":20629:20646   */\n      add\n        /* \"#utility.yul\":20622:20669   */\n      mstore\n        /* \"#utility.yul\":20686:20817   */\n      tag_537\n        /* \"#utility.yul\":20812:20816   */\n      dup2\n        /* \"#utility.yul\":20686:20817   */\n      tag_325\n      jump\t// in\n    tag_537:\n        /* \"#utility.yul\":20678:20817   */\n      swap1\n      pop\n        /* \"#utility.yul\":20405:20824   */\n      swap2\n      swap1\n      pop\n      jump\t// out\n        /* \"#utility.yul\":20830:21009   */\n    tag_326:\n        /* \"#utility.yul\":20970:21001   */\n      0x496e73756666696369656e742074726561737572792062616c616e6365000000\n        /* \"#utility.yul\":20966:20967   */\n      0x00\n        /* \"#utility.yul\":20958:20964   */\n      dup3\n        /* \"#utility.yul\":20954:20968   */\n      add\n        /* \"#utility.yul\":20947:21002   */\n      mstore\n        /* \"#utility.yul\":20830:21009   */\n      pop\n      jump\t// out\n        /* \"#utility.yul\":21015:21381   */\n    tag_327:\n        /* \"#utility.yul\":21157:21160   */\n      0x00\n        /* \"#utility.yul\":21178:21245   */\n      tag_540\n        /* \"#utility.yul\":21242:21244   */\n      0x1d\n        /* \"#utility.yul\":21237:21240   */\n      dup4\n        /* \"#utility.yul\":21178:21245   */\n      tag_277\n      jump\t// in\n    tag_540:\n        /* \"#utility.yul\":21171:21245   */\n      swap2\n      pop\n        /* \"#utility.yul\":21254:21347   */\n      tag_541\n        /* \"#utility.yul\":21343:21346   */\n      dup3\n        /* \"#utility.yul\":21254:21347   */\n      tag_326\n      jump\t// in\n    tag_541:\n        /* \"#utility.yul\":21372:21374   */\n      0x20\n        /* \"#utility.yul\":21367:21370   */\n      dup3\n        /* \"#utility.yul\":21363:21375   */\n      add\n        /* \"#utility.yul\":21356:21375   */\n      swap1\n      pop\n        /* \"#utility.yul\":21015:21381   */\n      swap2\n      swap1\n      pop\n      jump\t// out\n        /* \"#utility.yul\":21387:21806   */\n    tag_161:\n        /* \"#utility.yul\":21553:21557   */\n      0x00\n        /* \"#utility.yul\":21591:21593   */\n      0x20\n        /* \"#utility.yul\":21580:21589   */\n      dup3\n        /* \"#utility.yul\":21576:21594   */\n      add\n        /* \"#utility.yul\":21568:21594   */\n      swap1\n      pop\n        /* \"#utility.yul\":21640:21649   */\n      dup2\n        /* \"#utility.yul\":21634:21638   */\n      dup2\n        /* \"#utility.yul\":21630:21650   */\n      sub\n        /* \"#utility.yul\":21626:21627   */\n      0x00\n        /* \"#utility.yul\":21615:21624   */\n      dup4\n        /* \"#utility.yul\":21611:21628   */\n      add\n        /* \"#utility.yul\":21604:21651   */\n      mstore\n        /* \"#utility.yul\":21668:21799   */\n      tag_543\n        /* \"#utility.yul\":21794:21798   */\n      dup2\n        /* \"#utility.yul\":21668:21799   */\n      tag_327\n      jump\t// in\n    tag_543:\n        /* \"#utility.yul\":21660:21799   */\n      swap1\n      pop\n        /* \"#utility.yul\":21387:21806   */\n      swap2\n      swap1\n      pop\n      jump\t// out\n        /* \"#utility.yul\":21812:21992   */\n    tag_328:\n        /* \"#utility.yul\":21860:21937   */\n      0x4e487b7100000000000000000000000000000000000000000000000000000000\n        /* \"#utility.yul\":21857:21858   */\n      0x00\n        /* \"#utility.yul\":21850:21938   */\n      mstore\n        /* \"#utility.yul\":21957:21961   */\n      0x11\n        /* \"#utility.yul\":21954:21955   */\n      0x04\n        /* \"#utility.yul\":21947:21962   */\n      mstore\n        /* \"#utility.yul\":21981:21985   */\n      0x24\n        /* \"#utility.yul\":21978:21979   */\n      0x00\n        /* \"#utility.yul\":21971:21986   */\n      revert\n        /* \"#utility.yul\":21998:22231   */\n    tag_163:\n        /* \"#utility.yul\":22037:22040   */\n      0x00\n        /* \"#utility.yul\":22060:22084   */\n      tag_546\n        /* \"#utility.yul\":22078:22083   */\n      dup3\n        /* \"#utility.yul\":22060:22084   */\n      tag_269\n      jump\t// in\n    tag_546:\n        /* \"#utility.yul\":22051:22084   */\n      swap2\n      pop\n        /* \"#utility.yul\":22106:22172   */\n      0xffffffffffffffffffffffffffffffffffffffffffffffffffffffffffffffff\n        /* \"#utility.yul\":22099:22104   */\n      dup3\n        /* \"#utility.yul\":22096:22173   */\n      sub\n        /* \"#utility.yul\":22093:22196   */\n      tag_547\n      jumpi\n        /* \"#utility.yul\":22176:22194   */\n      tag_548\n      tag_328\n      jump\t// in\n    tag_548:\n        /* \"#utility.yul\":22093:22196   */\n    tag_547:\n        /* \"#utility.yul\":22223:22224   */\n      0x01\n        /* \"#utility.yul\":22216:22221   */\n      dup3\n        /* \"#utility.yul\":22212:22225   */\n      add\n        /* \"#utility.yul\":22205:22225   */\n      swap1\n      pop\n        /* \"#utility.yul\":21998:22231   */\n      swap2\n      swap1\n      pop\n      jump\t// out\n        /* \"#utility.yul\":22237:22428   */\n    tag_165:\n        /* \"#utility.yul\":22277:22280   */\n      0x00\n        /* \"#utility.yul\":22296:22316   */\n      tag_550\n        /* \"#utility.yul\":22314:22315   */\n      dup3\n        /* \"#utility.yul\":22296:22316   */\n      tag_269\n      jump\t// in\n    tag_550:\n        /* \"#utility.yul\":22291:22316   */\n      swap2\n      pop\n        /* \"#utility.yul\":22330:22350   */\n      tag_551\n        /* \"#utility.yul\":22348:22349   */\n      dup4\n        /* \"#utility.yul\":22330:22350   */\n      tag_269\n      jump\t// in\n    tag_551:\n        /* \"#utility.yul\":22325:22350   */\n      swap3\n      pop\n        /* \"#utility.yul\":22373:22374   */\n      dup3\n        /* \"#utility.yul\":22370:22371   */\n      dup3\n        /* \"#utility.yul\":22366:22375   */\n      add\n        /* \"#utility.yul\":22359:22375   */\n      swap1\n      pop\n        /* \"#utility.yul\":22394:22397   */\n      dup1\n        /* \"#utility.yul\":22391:22392   */\n      dup3\n        /* \"#utility.yul\":22388:22398   */\n      gt\n        /* \"#utility.yul\":22385:22421   */\n      iszero\n      tag_552\n      jumpi\n        /* \"#utility.yul\":22401:22419   */\n      tag_553\n      tag_328\n      jump\t// in\n    tag_553:\n        /* \"#utility.yul\":22385:22421   */\n    tag_552:\n        /* \"#utility.yul\":22237:22428   */\n      swap3\n      swap2\n      pop\n      pop\n      jump\t// out\n        /* \"#utility.yul\":22434:22614   */\n    tag_329:\n        /* \"#utility.yul\":22482:22559   */\n      0x4e487b7100000000000000000000000000000000000000000000000000000000\n        /* \"#utility.yul\":22479:22480   */\n      0x00\n        /* \"#utility.yul\":22472:22560   */\n      mstore\n        /* \"#utility.yul\":22579:22583   */\n      0x41\n        /* \"#utility.yul\":22576:22577   */\n      0x04\n        /* \"#utility.yul\":22569:22584   */\n      mstore\n        /* \"#utility.yul\":22603:22607   */\n      0x24\n        /* \"#utility.yul\":22600:22601   */\n      0x00\n        /* \"#utility.yul\":22593:22608   */\n      revert\n        /* \"#utility.yul\":22620:22761   */\n    tag_330:\n        /* \"#utility.yul\":22669:22673   */\n      0x00\n        /* \"#utility.yul\":22692:22695   */\n      dup2\n        /* \"#utility.yul\":22684:22695   */\n      swap1\n      pop\n        /* \"#utility.yul\":22715:22718   */\n      dup2\n        /* \"#utility.yul\":22712:22713   */\n      0x00\n        /* \"#utility.yul\":22705:22719   */\n      mstore\n        /* \"#utility.yul\":22749:22753   */\n      0x20\n        /* \"#utility.yul\":22746:22747   */\n      0x00\n        /* \"#utility.yul\":22736:22754   */\n      keccak256\n        /* \"#utility.yul\":22728:22754   */\n      swap1\n      pop\n        /* \"#utility.yul\":22620:22761   */\n      swap2\n      swap1\n      pop\n      jump\t// out\n        /* \"#utility.yul\":22767:22860   */\n    tag_331:\n        /* \"#utility.yul\":22804:22810   */\n      0x00\n        /* \"#utility.yul\":22851:22853   */\n      0x20\n        /* \"#utility.yul\":22846:22848   */\n      0x1f\n        /* \"#utility.yul\":22839:22844   */\n      dup4\n        /* \"#utility.yul\":22835:22849   */\n      add\n        /* \"#utility.yul\":22831:22854   */\n      div\n        /* \"#utility.yul\":22821:22854   */\n      swap1\n      pop\n        /* \"#utility.yul\":22767:22860   */\n      swap2\n      swap1\n      pop\n      jump\t// out\n        /* \"#utility.yul\":22866:22973   */\n    tag_332:\n        /* \"#utility.yul\":22910:22918   */\n      0x00\n        /* \"#utility.yul\":22960:22965   */\n      dup3\n        /* \"#utility.yul\":22954:22958   */\n      dup3\n        /* \"#utility.yul\":22950:22966   */\n      shl\n        /* \"#utility.yul\":22929:22966   */\n      swap1\n      pop\n        /* \"#utility.yul\":22866:22973   */\n      swap3\n      swap2\n      pop\n      pop\n      jump\t// out\n        /* \"#utility.yul\":22979:23372   */\n    tag_333:\n        /* \"#utility.yul\":23048:23054   */\n      0x00\n        /* \"#utility.yul\":23098:23099   */\n      0x08\n        /* \"#utility.yul\":23086:23096   */\n      dup4\n        /* \"#utility.yul\":23082:23100   */\n      mul\n        /* \"#utility.yul\":23121:23218   */\n      tag_559\n        /* \"#utility.yul\":23151:23217   */\n      0xffffffffffffffffffffffffffffffffffffffffffffffffffffffffffffffff\n        /* \"#utility.yul\":23140:23149   */\n      dup3\n        /* \"#utility.yul\":23121:23218   */\n      tag_332\n      jump\t// in\n    tag_559:\n        /* \"#utility.yul\":23239:23278   */\n      tag_560\n        /* \"#utility.yul\":23269:23277   */\n      dup7\n        /* \"#utility.yul\":23258:23267   */\n      dup4\n        /* \"#utility.yul\":23239:23278   */\n      tag_332\n      jump\t// in\n    tag_560:\n        /* \"#utility.yul\":23227:23278   */\n      swap6\n      pop\n        /* \"#utility.yul\":23311:23315   */\n      dup1\n        /* \"#utility.yul\":23307:23316   */\n      not\n        /* \"#utility.yul\":23300:23305   */\n      dup5\n        /* \"#utility.yul\":23296:23317   */\n      and\n        /* \"#utility.yul\":23287:23317   */\n      swap4\n      pop\n        /* \"#utility.yul\":23360:23364   */\n      dup1\n        /* \"#utility.yul\":23350:23358   */\n      dup7\n        /* \"#utility.yul\":23346:23365   */\n      and\n        /* \"#utility.yul\":23339:23344   */\n      dup5\n        /* \"#utility.yul\":23336:23366   */\n      or\n        /* \"#utility.yul\":23326:23366   */\n      swap3\n      pop\n        /* \"#utility.yul\":23055:23372   */\n      pop\n      pop\n        /* \"#utility.yul\":22979:23372   */\n      swap4\n      swap3\n      pop\n      pop\n      pop\n      jump\t// out\n        /* \"#utility.yul\":23378:23438   */\n    tag_334:\n        /* \"#utility.yul\":23406:23409   */\n      0x00\n        /* \"#utility.yul\":23427:23432   */\n      dup2\n        /* \"#utility.yul\":23420:23432   */\n      swap1\n      pop\n        /* \"#utility.yul\":23378:23438   */\n      swap2\n      swap1\n      pop\n      jump\t// out\n        /* \"#utility.yul\":23444:23586   */\n    tag_335:\n        /* \"#utility.yul\":23494:23503   */\n      0x00\n        /* \"#utility.yul\":23527:23580   */\n      tag_563\n        /* \"#utility.yul\":23545:23579   */\n      tag_564\n        /* \"#utility.yul\":23554:23578   */\n      tag_565\n        /* \"#utility.yul\":23572:23577   */\n      dup5\n        /* \"#utility.yul\":23554:23578   */\n      tag_269\n      jump\t// in\n    tag_565:\n        /* \"#utility.yul\":23545:23579   */\n      tag_334\n      jump\t// in\n    tag_564:\n        /* \"#utility.yul\":23527:23580   */\n      tag_269\n      jump\t// in\n    tag_563:\n        /* \"#utility.yul\":23514:23580   */\n      swap1\n      pop\n        /* \"#utility.yul\":23444:23586   */\n      swap2\n      swap1\n      pop\n      jump\t// out\n        /* \"#utility.yul\":23592:23667   */\n    tag_336:\n        /* \"#utility.yul\":23635:23638   */\n      0x00\n        /* \"#utility.yul\":23656:23661   */\n      dup2\n        /* \"#utility.yul\":23649:23661   */\n      swap1\n      pop\n        /* \"#utility.yul\":23592:23667   */\n      swap2\n      swap1\n      pop\n      jump\t// out\n        /* \"#utility.yul\":23673:23942   */\n    tag_337:\n        /* \"#utility.yul\":23783:23822   */\n      tag_568\n        /* \"#utility.yul\":23814:23821   */\n      dup4\n        /* \"#utility.yul\":23783:23822   */\n      tag_335\n      jump\t// in\n    tag_568:\n        /* \"#utility.yul\":23844:23935   */\n      tag_569\n        /* \"#utility.yul\":23893:23934   */\n      tag_570\n        /* \"#utility.yul\":23917:23933   */\n      dup3\n        /* \"#utility.yul\":23893:23934   */\n      tag_336\n      jump\t// in\n    tag_570:\n        /* \"#utility.yul\":23885:23891   */\n      dup5\n        /* \"#utility.yul\":23878:23882   */\n      dup5\n        /* \"#utility.yul\":23872:23883   */\n      sload\n        /* \"#utility.yul\":23844:23935   */\n      tag_333\n      jump\t// in\n    tag_569:\n        /* \"#utility.yul\":23838:23842   */\n      dup3\n        /* \"#utility.yul\":23831:23936   */\n      sstore\n        /* \"#utility.yul\":23749:23942   */\n      pop\n        /* \"#utility.yul\":23673:23942   */\n      pop\n      pop\n      pop\n      jump\t// out\n        /* \"#utility.yul\":23948:24021   */\n    tag_338:\n        /* \"#utility.yul\":23993:23996   */\n      0x00\n        /* \"#utility.yul\":23948:24021   */\n      swap1\n      jump\t// out\n        /* \"#utility.yul\":24027:24216   */\n    tag_339:\n        /* \"#utility.yul\":24104:24136   */\n      tag_573\n      tag_338\n      jump\t// in\n    tag_573:\n        /* \"#utility.yul\":24145:24210   */\n      tag_574\n        /* \"#utility.yul\":24203:24209   */\n      dup2\n        /* \"#utility.yul\":24195:24201   */\n      dup5\n        /* \"#utility.yul\":24189:24193   */\n      dup5\n        /* \"#utility.yul\":24145:24210   */\n      tag_337\n      jump\t// in\n    tag_574:\n        /* \"#utility.yul\":24080:24216   */\n      pop\n        /* \"#utility.yul\":24027:24216   */\n      pop\n      pop\n      jump\t// out\n        /* \"#utility.yul\":24222:24408   */\n    tag_340:\n        /* \"#utility.yul\":24282:24402   */\n    tag_576:\n        /* \"#utility.yul\":24299:24302   */\n      dup2\n        /* \"#utility.yul\":24292:24297   */\n      dup2\n        /* \"#utility.yul\":24289:24303   */\n      lt\n        /* \"#utility.yul\":24282:24402   */\n      iszero\n      tag_578\n      jumpi\n        /* \"#utility.yul\":24353:24392   */\n      tag_579\n        /* \"#utility.yul\":24390:24391   */\n      0x00\n        /* \"#utility.yul\":24383:24388   */\n      dup3\n        /* \"#utility.yul\":24353:24392   */\n      tag_339\n      jump\t// in\n    tag_579:\n        /* \"#utility.yul\":24326:24327   */\n      0x01\n        /* \"#utility.yul\":24319:24324   */\n      dup2\n        /* \"#utility.yul\":24315:24328   */\n      add\n        /* \"#utility.yul\":24306:24328   */\n      swap1\n      pop\n        /* \"#utility.yul\":24282:24402   */\n      jump(tag_576)\n    tag_578:\n        /* \"#utility.yul\":24222:24408   */\n      pop\n      pop\n      jump\t// out\n        /* \"#utility.yul\":24414:24957   */\n    tag_341:\n        /* \"#utility.yul\":24515:24517   */\n      0x1f\n        /* \"#utility.yul\":24510:24513   */\n      dup3\n        /* \"#utility.yul\":24507:24518   */\n      gt\n        /* \"#utility.yul\":24504:24950   */\n      iszero\n      tag_581\n      jumpi\n        /* \"#utility.yul\":24549:24587   */\n      tag_582\n        /* \"#utility.yul\":24581:24586   */\n      dup2\n        /* \"#utility.yul\":24549:24587   */\n      tag_330\n      jump\t// in\n    tag_582:\n        /* \"#utility.yul\":24633:24662   */\n      tag_583\n        /* \"#utility.yul\":24651:24661   */\n      dup5\n        /* \"#utility.yul\":24633:24662   */\n      tag_331\n      jump\t// in\n    tag_583:\n        /* \"#utility.yul\":24623:24631   */\n      dup2\n        /* \"#utility.yul\":24619:24663   */\n      add\n        /* \"#utility.yul\":24816:24818   */\n      0x20\n        /* \"#utility.yul\":24804:24814   */\n      dup6\n        /* \"#utility.yul\":24801:24819   */\n      lt\n        /* \"#utility.yul\":24798:24847   */\n      iszero\n      tag_584\n      jumpi\n        /* \"#utility.yul\":24837:24845   */\n      dup2\n        /* \"#utility.yul\":24822:24845   */\n      swap1\n      pop\n        /* \"#utility.yul\":24798:24847   */\n    tag_584:\n        /* \"#utility.yul\":24860:24940   */\n      tag_585\n        /* \"#utility.yul\":24916:24938   */\n      tag_586\n        /* \"#utility.yul\":24934:24937   */\n      dup6\n        /* \"#utility.yul\":24916:24938   */\n      tag_331\n      jump\t// in\n    tag_586:\n        /* \"#utility.yul\":24906:24914   */\n      dup4\n        /* \"#utility.yul\":24902:24939   */\n      add\n        /* \"#utility.yul\":24889:24900   */\n      dup3\n        /* \"#utility.yul\":24860:24940   */\n      tag_340\n      jump\t// in\n    tag_585:\n        /* \"#utility.yul\":24519:24950   */\n      pop\n      pop\n        /* \"#utility.yul\":24504:24950   */\n    tag_581:\n        /* \"#utility.yul\":24414:24957   */\n      pop\n      pop\n      pop\n      jump\t// out\n        /* \"#utility.yul\":24963:25080   */\n    tag_342:\n        /* \"#utility.yul\":25017:25025   */\n      0x00\n        /* \"#utility.yul\":25067:25072   */\n      dup3\n        /* \"#utility.yul\":25061:25065   */\n      dup3\n        /* \"#utility.yul\":25057:25073   */\n      shr\n        /* \"#utility.yul\":25036:25073   */\n      swap1\n      pop\n        /* \"#utility.yul\":24963:25080   */\n      swap3\n      swap2\n      pop\n      pop\n      jump\t// out\n        /* \"#utility.yul\":25086:25255   */\n    tag_343:\n        /* \"#utility.yul\":25130:25136   */\n      0x00\n        /* \"#utility.yul\":25163:25214   */\n      tag_589\n        /* \"#utility.yul\":25211:25212   */\n      0x00\n        /* \"#utility.yul\":25207:25213   */\n      not\n        /* \"#utility.yul\":25199:25204   */\n      dup5\n        /* \"#utility.yul\":25196:25197   */\n      0x08\n        /* \"#utility.yul\":25192:25205   */\n      mul\n        /* \"#utility.yul\":25163:25214   */\n      tag_342\n      jump\t// in\n    tag_589:\n        /* \"#utility.yul\":25159:25215   */\n      not\n        /* \"#utility.yul\":25244:25248   */\n      dup1\n        /* \"#utility.yul\":25238:25242   */\n      dup4\n        /* \"#utility.yul\":25234:25249   */\n      and\n        /* \"#utility.yul\":25224:25249   */\n      swap2\n      pop\n        /* \"#utility.yul\":25137:25255   */\n      pop\n        /* \"#utility.yul\":25086:25255   */\n      swap3\n      swap2\n      pop\n      pop\n      jump\t// out\n        /* \"#utility.yul\":25260:25555   */\n    tag_344:\n        /* \"#utility.yul\":25336:25340   */\n      0x00\n        /* \"#utility.yul\":25482:25511   */\n      tag_591\n        /* \"#utility.yul\":25507:25510   */\n      dup4\n        /* \"#utility.yul\":25501:25505   */\n      dup4\n        /* \"#utility.yul\":25482:25511   */\n      tag_343\n      jump\t// in\n    tag_591:\n        /* \"#utility.yul\":25474:25511   */\n      swap2\n      pop\n        /* \"#utility.yul\":25544:25547   */\n      dup3\n        /* \"#utility.yul\":25541:25542   */\n      0x02\n        /* \"#utility.yul\":25537:25548   */\n      mul\n        /* \"#utility.yul\":25531:25535   */\n      dup3\n        /* \"#utility.yul\":25528:25549   */\n      or\n        /* \"#utility.yul\":25520:25549   */\n      swap1\n      pop\n        /* \"#utility.yul\":25260:25555   */\n      swap3\n      swap2\n      pop\n      pop\n      jump\t// out\n        /* \"#utility.yul\":25560:26955   */\n    tag_167:\n        /* \"#utility.yul\":25677:25714   */\n      tag_593\n        /* \"#utility.yul\":25710:25713   */\n      dup3\n        /* \"#utility.yul\":25677:25714   */\n      tag_276\n      jump\t// in\n    tag_593:\n        /* \"#utility.yul\":25779:25797   */\n      0xffffffffffffffff\n        /* \"#utility.yul\":25771:25777   */\n      dup2\n        /* \"#utility.yul\":25768:25798   */\n      gt\n        /* \"#utility.yul\":25765:25821   */\n      iszero\n      tag_594\n      jumpi\n        /* \"#utility.yul\":25801:25819   */\n      tag_595\n      tag_329\n      jump\t// in\n    tag_595:\n        /* \"#utility.yul\":25765:25821   */\n    tag_594:\n        /* \"#utility.yul\":25845:25883   */\n      tag_596\n        /* \"#utility.yul\":25877:25881   */\n      dup3\n        /* \"#utility.yul\":25871:25882   */\n      sload\n        /* \"#utility.yul\":25845:25883   */\n      tag_96\n      jump\t// in\n    tag_596:\n        /* \"#utility.yul\":25930:25997   */\n      tag_597\n        /* \"#utility.yul\":25990:25996   */\n      dup3\n        /* \"#utility.yul\":25982:25988   */\n      dup3\n        /* \"#utility.yul\":25976:25980   */\n      dup6\n        /* \"#utility.yul\":25930:25997   */\n      tag_341\n      jump\t// in\n    tag_597:\n        /* \"#utility.yul\":26024:26025   */\n      0x00\n        /* \"#utility.yul\":26048:26052   */\n      0x20\n        /* \"#utility.yul\":26035:26052   */\n      swap1\n      pop\n        /* \"#utility.yul\":26080:26082   */\n      0x1f\n        /* \"#utility.yul\":26072:26078   */\n      dup4\n        /* \"#utility.yul\":26069:26083   */\n      gt\n        /* \"#utility.yul\":26097:26098   */\n      0x01\n        /* \"#utility.yul\":26092:26710   */\n      dup2\n      eq\n      tag_599\n      jumpi\n        /* \"#utility.yul\":26754:26755   */\n      0x00\n        /* \"#utility.yul\":26771:26777   */\n      dup5\n        /* \"#utility.yul\":26768:26845   */\n      iszero\n      tag_600\n      jumpi\n        /* \"#utility.yul\":26820:26829   */\n      dup3\n        /* \"#utility.yul\":26815:26818   */\n      dup8\n        /* \"#utility.yul\":26811:26830   */\n      add\n        /* \"#utility.yul\":26805:26831   */\n      mload\n        /* \"#utility.yul\":26796:26831   */\n      swap1\n      pop\n        /* \"#utility.yul\":26768:26845   */\n    tag_600:\n        /* \"#utility.yul\":26871:26938   */\n      tag_601\n        /* \"#utility.yul\":26931:26937   */\n      dup6\n        /* \"#utility.yul\":26924:26929   */\n      dup3\n        /* \"#utility.yul\":26871:26938   */\n      tag_344\n      jump\t// in\n    tag_601:\n        /* \"#utility.yul\":26865:26869   */\n      dup7\n        /* \"#utility.yul\":26858:26939   */\n      sstore\n        /* \"#utility.yul\":26727:26949   */\n      pop\n        /* \"#utility.yul\":26062:26949   */\n      jump(tag_598)\n        /* \"#utility.yul\":26092:26710   */\n    tag_599:\n        /* \"#utility.yul\":26144:26148   */\n      0x1f\n        /* \"#utility.yul\":26140:26149   */\n      not\n        /* \"#utility.yul\":26132:26138   */\n      dup5\n        /* \"#utility.yul\":26128:26150   */\n      and\n        /* \"#utility.yul\":26178:26215   */\n      tag_602\n        /* \"#utility.yul\":26210:26214   */\n      dup7\n        /* \"#utility.yul\":26178:26215   */\n      tag_330\n      jump\t// in\n    tag_602:\n        /* \"#utility.yul\":26237:26238   */\n      0x00\n        /* \"#utility.yul\":26251:26459   */\n    tag_603:\n        /* \"#utility.yul\":26265:26272   */\n      dup3\n        /* \"#utility.yul\":26262:26263   */\n      dup2\n        /* \"#utility.yul\":26259:26273   */\n      lt\n        /* \"#utility.yul\":26251:26459   */\n      iszero\n      tag_605\n      jumpi\n        /* \"#utility.yul\":26344:26353   */\n      dup5\n        /* \"#utility.yul\":26339:26342   */\n      dup10\n        /* \"#utility.yul\":26335:26354   */\n      add\n        /* \"#utility.yul\":26329:26355   */\n      mload\n        /* \"#utility.yul\":26321:26327   */\n      dup3\n        /* \"#utility.yul\":26314:26356   */\n      sstore\n        /* \"#utility.yul\":26395:26396   */\n      0x01\n        /* \"#utility.yul\":26387:26393   */\n      dup3\n        /* \"#utility.yul\":26383:26397   */\n      add\n        /* \"#utility.yul\":26373:26397   */\n      swap2\n      pop\n        /* \"#utility.yul\":26442:26444   */\n      0x20\n        /* \"#utility.yul\":26431:26440   */\n      dup6\n        /* \"#utility.yul\":26427:26445   */\n      add\n        /* \"#utility.yul\":26414:26445   */\n      swap5\n      pop\n        /* \"#utility.yul\":26288:26292   */\n      0x20\n        /* \"#utility.yul\":26285:26286   */\n      dup2\n        /* \"#utility.yul\":26281:26293   */\n      add\n        /* \"#utility.yul\":26276:26293   */\n      swap1\n      pop\n        /* \"#utility.yul\":26251:26459   */\n      jump(tag_603)\n    tag_605:\n        /* \"#utility.yul\":26487:26493   */\n      dup7\n        /* \"#utility.yul\":26478:26485   */\n      dup4\n        /* \"#utility.yul\":26475:26494   */\n      lt\n        /* \"#utility.yul\":26472:26651   */\n      iszero\n      tag_606\n      jumpi\n        /* \"#utility.yul\":26545:26554   */\n      dup5\n        /* \"#utility.yul\":26540:26543   */\n      dup10\n        /* \"#utility.yul\":26536:26555   */\n      add\n        /* \"#utility.yul\":26530:26556   */\n      mload\n        /* \"#utility.yul\":26588:26636   */\n      tag_607\n        /* \"#utility.yul\":26630:26634   */\n      0x1f\n        /* \"#utility.yul\":26622:26628   */\n      dup10\n        /* \"#utility.yul\":26618:26635   */\n      and\n        /* \"#utility.yul\":26607:26616   */\n      dup3\n        /* \"#utility.yul\":26588:26636   */\n      tag_343\n      jump\t// in\n    tag_607:\n        /* \"#utility.yul\":26580:26586   */\n      dup4\n        /* \"#utility.yul\":26573:26637   */\n      sstore\n        /* \"#utility.yul\":26495:26651   */\n      pop\n        /* \"#utility.yul\":26472:26651   */\n    tag_606:\n        /* \"#utility.yul\":26697:26698   */\n      0x01\n        /* \"#utility.yul\":26693:26694   */\n      0x02\n        /* \"#utility.yul\":26685:26691   */\n      dup9\n        /* \"#utility.yul\":26681:26695   */\n      mul\n        /* \"#utility.yul\":26677:26699   */\n      add\n        /* \"#utility.yul\":26671:26675   */\n      dup9\n        /* \"#utility.yul\":26664:26700   */\n      sstore\n        /* \"#utility.yul\":26099:26710   */\n      pop\n      pop\n      pop\n        /* \"#utility.yul\":26062:26949   */\n    tag_598:\n      pop\n        /* \"#utility.yul\":25652:26955   */\n      pop\n      pop\n      pop\n        /* \"#utility.yul\":25560:26955   */\n      pop\n      pop\n      jump\t// out\n        /* \"#utility.yul\":26961:27107   */\n    tag_345:\n        /* \"#utility.yul\":27058:27064   */\n      dup3\n        /* \"#utility.yul\":27053:27056   */\n      dup2\n        /* \"#utility.yul\":27048:27051   */\n      dup4\n        /* \"#utility.yul\":27035:27065   */\n      calldatacopy\n        /* \"#utility.yul\":27099:27100   */\n      0x00\n        /* \"#utility.yul\":27090:27096   */\n      dup4\n        /* \"#utility.yul\":27085:27088   */\n      dup4\n        /* \"#utility.yul\":27081:27097   */\n      add\n        /* \"#utility.yul\":27074:27101   */\n      mstore\n        /* \"#utility.yul\":26961:27107   */\n      pop\n      pop\n      pop\n      jump\t// out\n        /* \"#utility.yul\":27137:27454   */\n    tag_346:\n        /* \"#utility.yul\":27235:27238   */\n      0x00\n        /* \"#utility.yul\":27256:27327   */\n      tag_610\n        /* \"#utility.yul\":27320:27326   */\n      dup4\n        /* \"#utility.yul\":27315:27318   */\n      dup6\n        /* \"#utility.yul\":27256:27327   */\n      tag_277\n      jump\t// in\n    tag_610:\n        /* \"#utility.yul\":27249:27327   */\n      swap4\n      pop\n        /* \"#utility.yul\":27337:27393   */\n      tag_611\n        /* \"#utility.yul\":27386:27392   */\n      dup4\n        /* \"#utility.yul\":27381:27384   */\n      dup6\n        /* \"#utility.yul\":27374:27379   */\n      dup5\n        /* \"#utility.yul\":27337:27393   */\n      tag_345\n      jump\t// in\n    tag_611:\n        /* \"#utility.yul\":27418:27447   */\n      tag_612\n        /* \"#utility.yul\":27440:27446   */\n      dup4\n        /* \"#utility.yul\":27418:27447   */\n      tag_279\n      jump\t// in\n    tag_612:\n        /* \"#utility.yul\":27413:27416   */\n      dup5\n        /* \"#utility.yul\":27409:27448   */\n      add\n        /* \"#utility.yul\":27402:27448   */\n      swap1\n      pop\n        /* \"#utility.yul\":27137:27454   */\n      swap4\n      swap3\n      pop\n      pop\n      pop\n      jump\t// out\n        /* \"#utility.yul\":27460:28013   */\n    tag_170:\n        /* \"#utility.yul\":27639:27643   */\n      0x00\n        /* \"#utility.yul\":27677:27679   */\n      0x60\n        /* \"#utility.yul\":27666:27675   */\n      dup3\n        /* \"#utility.yul\":27662:27680   */\n      add\n        /* \"#utility.yul\":27654:27680   */\n      swap1\n      pop\n        /* \"#utility.yul\":27726:27735   */\n      dup2\n        /* \"#utility.yul\":27720:27724   */\n      dup2\n        /* \"#utility.yul\":27716:27736   */\n      sub\n        /* \"#utility.yul\":27712:27713   */\n      0x00\n        /* \"#utility.yul\":27701:27710   */\n      dup4\n        /* \"#utility.yul\":27697:27714   */\n      add\n        /* \"#utility.yul\":27690:27737   */\n      mstore\n        /* \"#utility.yul\":27754:27842   */\n      tag_614\n        /* \"#utility.yul\":27837:27841   */\n      dup2\n        /* \"#utility.yul\":27828:27834   */\n      dup7\n        /* \"#utility.yul\":27820:27826   */\n      dup9\n        /* \"#utility.yul\":27754:27842   */\n      tag_346\n      jump\t// in\n    tag_614:\n        /* \"#utility.yul\":27746:27842   */\n      swap1\n      pop\n        /* \"#utility.yul\":27852:27924   */\n      tag_615\n        /* \"#utility.yul\":27920:27922   */\n      0x20\n        /* \"#utility.yul\":27909:27918   */\n      dup4\n        /* \"#utility.yul\":27905:27923   */\n      add\n        /* \"#utility.yul\":27896:27902   */\n      dup6\n        /* \"#utility.yul\":27852:27924   */\n      tag_270\n      jump\t// in\n    tag_615:\n        /* \"#utility.yul\":27934:28006   */\n      tag_616\n        /* \"#utility.yul\":28002:28004   */\n      0x40\n        /* \"#utility.yul\":27991:28000   */\n      dup4\n        /* \"#utility.yul\":27987:28005   */\n      add\n        /* \"#utility.yul\":27978:27984   */\n      dup5\n        /* \"#utility.yul\":27934:28006   */\n      tag_270\n      jump\t// in\n    tag_616:\n        /* \"#utility.yul\":27460:28013   */\n      swap6\n      swap5\n      pop\n      pop\n      pop\n      pop\n      pop\n      jump\t// out\n        /* \"#utility.yul\":28019:28182   */\n    tag_347:\n        /* \"#utility.yul\":28159:28174   */\n      0x4e6f742061206d616e6167657200000000000000000000000000000000000000\n        /* \"#utility.yul\":28155:28156   */\n      0x00\n        /* \"#utility.yul\":28147:28153   */\n      dup3\n        /* \"#utility.yul\":28143:28157   */\n      add\n        /* \"#utility.yul\":28136:28175   */\n      mstore\n        /* \"#utility.yul\":28019:28182   */\n      pop\n      jump\t// out\n        /* \"#utility.yul\":28188:28554   */\n    tag_348:\n        /* \"#utility.yul\":28330:28333   */\n      0x00\n        /* \"#utility.yul\":28351:28418   */\n      tag_619\n        /* \"#utility.yul\":28415:28417   */\n      0x0d\n        /* \"#utility.yul\":28410:28413   */\n      dup4\n        /* \"#utility.yul\":28351:28418   */\n      tag_277\n      jump\t// in\n    tag_619:\n        /* \"#utility.yul\":28344:28418   */\n      swap2\n      pop\n        /* \"#utility.yul\":28427:28520   */\n      tag_620\n        /* \"#utility.yul\":28516:28519   */\n      dup3\n        /* \"#utility.yul\":28427:28520   */\n      tag_347\n      jump\t// in\n    tag_620:\n        /* \"#utility.yul\":28545:28547   */\n      0x20\n        /* \"#utility.yul\":28540:28543   */\n      dup3\n        /* \"#utility.yul\":28536:28548   */\n      add\n        /* \"#utility.yul\":28529:28548   */\n      swap1\n      pop\n        /* \"#utility.yul\":28188:28554   */\n      swap2\n      swap1\n      pop\n      jump\t// out\n        /* \"#utility.yul\":28560:28979   */\n    tag_185:\n        /* \"#utility.yul\":28726:28730   */\n      0x00\n        /* \"#utility.yul\":28764:28766   */\n      0x20\n        /* \"#utility.yul\":28753:28762   */\n      dup3\n        /* \"#utility.yul\":28749:28767   */\n      add\n        /* \"#utility.yul\":28741:28767   */\n      swap1\n      pop\n        /* \"#utility.yul\":28813:28822   */\n      dup2\n        /* \"#utility.yul\":28807:28811   */\n      dup2\n        /* \"#utility.yul\":28803:28823   */\n      sub\n        /* \"#utility.yul\":28799:28800   */\n      0x00\n        /* \"#utility.yul\":28788:28797   */\n      dup4\n        /* \"#utility.yul\":28784:28801   */\n      add\n        /* \"#utility.yul\":28777:28824   */\n      mstore\n        /* \"#utility.yul\":28841:28972   */\n      tag_622\n        /* \"#utility.yul\":28967:28971   */\n      dup2\n        /* \"#utility.yul\":28841:28972   */\n      tag_348\n      jump\t// in\n    tag_622:\n        /* \"#utility.yul\":28833:28972   */\n      swap1\n      pop\n        /* \"#utility.yul\":28560:28979   */\n      swap2\n      swap1\n      pop\n      jump\t// out\n        /* \"#utility.yul\":28985:29165   */\n    tag_191:\n        /* \"#utility.yul\":29033:29110   */\n      0x4e487b7100000000000000000000000000000000000000000000000000000000\n        /* \"#utility.yul\":29030:29031   */\n      0x00\n        /* \"#utility.yul\":29023:29111   */\n      mstore\n        /* \"#utility.yul\":29130:29134   */\n      0x32\n        /* \"#utility.yul\":29127:29128   */\n      0x04\n        /* \"#utility.yul\":29120:29135   */\n      mstore\n        /* \"#utility.yul\":29154:29158   */\n      0x24\n        /* \"#utility.yul\":29151:29152   */\n      0x00\n        /* \"#utility.yul\":29144:29159   */\n      revert\n        /* \"#utility.yul\":29171:29365   */\n    tag_195:\n        /* \"#utility.yul\":29211:29215   */\n      0x00\n        /* \"#utility.yul\":29231:29251   */\n      tag_625\n        /* \"#utility.yul\":29249:29250   */\n      dup3\n        /* \"#utility.yul\":29231:29251   */\n      tag_269\n      jump\t// in\n    tag_625:\n        /* \"#utility.yul\":29226:29251   */\n      swap2\n      pop\n        /* \"#utility.yul\":29265:29285   */\n      tag_626\n        /* \"#utility.yul\":29283:29284   */\n      dup4\n        /* \"#utility.yul\":29265:29285   */\n      tag_269\n      jump\t// in\n    tag_626:\n        /* \"#utility.yul\":29260:29285   */\n      swap3\n      pop\n        /* \"#utility.yul\":29309:29310   */\n      dup3\n        /* \"#utility.yul\":29306:29307   */\n      dup3\n        /* \"#utility.yul\":29302:29311   */\n      sub\n        /* \"#utility.yul\":29294:29311   */\n      swap1\n      pop\n        /* \"#utility.yul\":29333:29334   */\n      dup2\n        /* \"#utility.yul\":29327:29331   */\n      dup2\n        /* \"#utility.yul\":29324:29335   */\n      gt\n        /* \"#utility.yul\":29321:29358   */\n      iszero\n      tag_627\n      jumpi\n        /* \"#utility.yul\":29338:29356   */\n      tag_628\n      tag_328\n      jump\t// in\n    tag_628:\n        /* \"#utility.yul\":29321:29358   */\n    tag_627:\n        /* \"#utility.yul\":29171:29365   */\n      swap3\n      swap2\n      pop\n      pop\n      jump\t// out\n        /* \"#utility.yul\":29371:29551   */\n    tag_204:\n        /* \"#utility.yul\":29419:29496   */\n      0x4e487b7100000000000000000000000000000000000000000000000000000000\n        /* \"#utility.yul\":29416:29417   */\n      0x00\n        /* \"#utility.yul\":29409:29497   */\n      mstore\n        /* \"#utility.yul\":29516:29520   */\n      0x31\n        /* \"#utility.yul\":29513:29514   */\n      0x04\n        /* \"#utility.yul\":29506:29521   */\n      mstore\n        /* \"#utility.yul\":29540:29544   */\n      0x24\n        /* \"#utility.yul\":29537:29538   */\n      0x00\n        /* \"#utility.yul\":29530:29545   */\n      revert\n        /* \"#utility.yul\":29557:29733   */\n    tag_349:\n        /* \"#utility.yul\":29697:29725   */\n      0x50726f706f73616c20616c72656164792063616e63656c6c6564000000000000\n        /* \"#utility.yul\":29693:29694   */\n      0x00\n        /* \"#utility.yul\":29685:29691   */\n      dup3\n        /* \"#utility.yul\":29681:29695   */\n      add\n        /* \"#utility.yul\":29674:29726   */\n      mstore\n        /* \"#utility.yul\":29557:29733   */\n      pop\n      jump\t// out\n        /* \"#utility.yul\":29739:30105   */\n    tag_350:\n        /* \"#utility.yul\":29881:29884   */\n      0x00\n        /* \"#utility.yul\":29902:29969   */\n      tag_632\n        /* \"#utility.yul\":29966:29968   */\n      0x1a\n        /* \"#utility.yul\":29961:29964   */\n      dup4\n        /* \"#utility.yul\":29902:29969   */\n      tag_277\n      jump\t// in\n    tag_632:\n        /* \"#utility.yul\":29895:29969   */\n      swap2\n      pop\n        /* \"#utility.yul\":29978:30071   */\n      tag_633\n        /* \"#utility.yul\":30067:30070   */\n      dup3\n        /* \"#utility.yul\":29978:30071   */\n      tag_349\n      jump\t// in\n    tag_633:\n        /* \"#utility.yul\":30096:30098   */\n      0x20\n        /* \"#utility.yul\":30091:30094   */\n      dup3\n        /* \"#utility.yul\":30087:30099   */\n      add\n        /* \"#utility.yul\":30080:30099   */\n      swap1\n      pop\n        /* \"#utility.yul\":29739:30105   */\n      swap2\n      swap1\n      pop\n      jump\t// out\n        /* \"#utility.yul\":30111:30530   */\n    tag_221:\n        /* \"#utility.yul\":30277:30281   */\n      0x00\n        /* \"#utility.yul\":30315:30317   */\n      0x20\n        /* \"#utility.yul\":30304:30313   */\n      dup3\n        /* \"#utility.yul\":30300:30318   */\n      add\n        /* \"#utility.yul\":30292:30318   */\n      swap1\n      pop\n        /* \"#utility.yul\":30364:30373   */\n      dup2\n        /* \"#utility.yul\":30358:30362   */\n      dup2\n        /* \"#utility.yul\":30354:30374   */\n      sub\n        /* \"#utility.yul\":30350:30351   */\n      0x00\n        /* \"#utility.yul\":30339:30348   */\n      dup4\n        /* \"#utility.yul\":30335:30352   */\n      add\n        /* \"#utility.yul\":30328:30375   */\n      mstore\n        /* \"#utility.yul\":30392:30523   */\n      tag_635\n        /* \"#utility.yul\":30518:30522   */\n      dup2\n        /* \"#utility.yul\":30392:30523   */\n      tag_350\n      jump\t// in\n    tag_635:\n        /* \"#utility.yul\":30384:30523   */\n      swap1\n      pop\n        /* \"#utility.yul\":30111:30530   */\n      swap2\n      swap1\n      pop\n      jump\t// out\n        /* \"#utility.yul\":30536:30707   */\n    tag_351:\n        /* \"#utility.yul\":30676:30699   */\n      0x496e76616c696420746f6b656e20616464726573730000000000000000000000\n        /* \"#utility.yul\":30672:30673   */\n      0x00\n        /* \"#utility.yul\":30664:30670   */\n      dup3\n        /* \"#utility.yul\":30660:30674   */\n      add\n        /* \"#utility.yul\":30653:30700   */\n      mstore\n        /* \"#utility.yul\":30536:30707   */\n      pop\n      jump\t// out\n        /* \"#utility.yul\":30713:31079   */\n    tag_352:\n        /* \"#utility.yul\":30855:30858   */\n      0x00\n        /* \"#utility.yul\":30876:30943   */\n      tag_638\n        /* \"#utility.yul\":30940:30942   */\n      0x15\n        /* \"#utility.yul\":30935:30938   */\n      dup4\n        /* \"#utility.yul\":30876:30943   */\n      tag_277\n      jump\t// in\n    tag_638:\n        /* \"#utility.yul\":30869:30943   */\n      swap2\n      pop\n        /* \"#utility.yul\":30952:31045   */\n      tag_639\n        /* \"#utility.yul\":31041:31044   */\n      dup3\n        /* \"#utility.yul\":30952:31045   */\n      tag_351\n      jump\t// in\n    tag_639:\n        /* \"#utility.yul\":31070:31072   */\n      0x20\n        /* \"#utility.yul\":31065:31068   */\n      dup3\n        /* \"#utility.yul\":31061:31073   */\n      add\n        /* \"#utility.yul\":31054:31073   */\n      swap1\n      pop\n        /* \"#utility.yul\":30713:31079   */\n      swap2\n      swap1\n      pop\n      jump\t// out\n        /* \"#utility.yul\":31085:31504   */\n    tag_236:\n        /* \"#utility.yul\":31251:31255   */\n      0x00\n        /* \"#utility.yul\":31289:31291   */\n      0x20\n        /* \"#utility.yul\":31278:31287   */\n      dup3\n        /* \"#utility.yul\":31274:31292   */\n      add\n        /* \"#utility.yul\":31266:31292   */\n      swap1\n      pop\n        /* \"#utility.yul\":31338:31347   */\n      dup2\n        /* \"#utility.yul\":31332:31336   */\n      dup2\n        /* \"#utility.yul\":31328:31348   */\n      sub\n        /* \"#utility.yul\":31324:31325   */\n      0x00\n        /* \"#utility.yul\":31313:31322   */\n      dup4\n        /* \"#utility.yul\":31309:31326   */\n      add\n        /* \"#utility.yul\":31302:31349   */\n      mstore\n        /* \"#utility.yul\":31366:31497   */\n      tag_641\n        /* \"#utility.yul\":31492:31496   */\n      dup2\n        /* \"#utility.yul\":31366:31497   */\n      tag_352\n      jump\t// in\n    tag_641:\n        /* \"#utility.yul\":31358:31497   */\n      swap1\n      pop\n        /* \"#utility.yul\":31085:31504   */\n      swap2\n      swap1\n      pop\n      jump\t// out\n        /* \"#utility.yul\":31510:31685   */\n    tag_353:\n        /* \"#utility.yul\":31650:31677   */\n      0x496e76616c696420726563697069656e74206164647265737300000000000000\n        /* \"#utility.yul\":31646:31647   */\n      0x00\n        /* \"#utility.yul\":31638:31644   */\n      dup3\n        /* \"#utility.yul\":31634:31648   */\n      add\n        /* \"#utility.yul\":31627:31678   */\n      mstore\n        /* \"#utility.yul\":31510:31685   */\n      pop\n      jump\t// out\n        /* \"#utility.yul\":31691:32057   */\n    tag_354:\n        /* \"#utility.yul\":31833:31836   */\n      0x00\n        /* \"#utility.yul\":31854:31921   */\n      tag_644\n        /* \"#utility.yul\":31918:31920   */\n      0x19\n        /* \"#utility.yul\":31913:31916   */\n      dup4\n        /* \"#utility.yul\":31854:31921   */\n      tag_277\n      jump\t// in\n    tag_644:\n        /* \"#utility.yul\":31847:31921   */\n      swap2\n      pop\n        /* \"#utility.yul\":31930:32023   */\n      tag_645\n        /* \"#utility.yul\":32019:32022   */\n      dup3\n        /* \"#utility.yul\":31930:32023   */\n      tag_353\n      jump\t// in\n    tag_645:\n        /* \"#utility.yul\":32048:32050   */\n      0x20\n        /* \"#utility.yul\":32043:32046   */\n      dup3\n        /* \"#utility.yul\":32039:32051   */\n      add\n        /* \"#utility.yul\":32032:32051   */\n      swap1\n      pop\n        /* \"#utility.yul\":31691:32057   */\n      swap2\n      swap1\n      pop\n      jump\t// out\n        /* \"#utility.yul\":32063:32482   */\n    tag_239:\n        /* \"#utility.yul\":32229:32233   */\n      0x00\n        /* \"#utility.yul\":32267:32269   */\n      0x20\n        /* \"#utility.yul\":32256:32265   */\n      dup3\n        /* \"#utility.yul\":32252:32270   */\n      add\n        /* \"#utility.yul\":32244:32270   */\n      swap1\n      pop\n        /* \"#utility.yul\":32316:32325   */\n      dup2\n        /* \"#utility.yul\":32310:32314   */\n      dup2\n        /* \"#utility.yul\":32306:32326   */\n      sub\n        /* \"#utility.yul\":32302:32303   */\n      0x00\n        /* \"#utility.yul\":32291:32300   */\n      dup4\n        /* \"#utility.yul\":32287:32304   */\n      add\n        /* \"#utility.yul\":32280:32327   */\n      mstore\n        /* \"#utility.yul\":32344:32475   */\n      tag_647\n        /* \"#utility.yul\":32470:32474   */\n      dup2\n        /* \"#utility.yul\":32344:32475   */\n      tag_354\n      jump\t// in\n    tag_647:\n        /* \"#utility.yul\":32336:32475   */\n      swap1\n      pop\n        /* \"#utility.yul\":32063:32482   */\n      swap2\n      swap1\n      pop\n      jump\t// out\n        /* \"#utility.yul\":32488:32669   */\n    tag_355:\n        /* \"#utility.yul\":32628:32661   */\n      0x5265656e7472616e637947756172643a207265656e7472616e742063616c6c00\n        /* \"#utility.yul\":32624:32625   */\n      0x00\n        /* \"#utility.yul\":32616:32622   */\n      dup3\n        /* \"#utility.yul\":32612:32626   */\n      add\n        /* \"#utility.yul\":32605:32662   */\n      mstore\n        /* \"#utility.yul\":32488:32669   */\n      pop\n      jump\t// out\n        /* \"#utility.yul\":32675:33041   */\n    tag_356:\n        /* \"#utility.yul\":32817:32820   */\n      0x00\n        /* \"#utility.yul\":32838:32905   */\n      tag_650\n        /* \"#utility.yul\":32902:32904   */\n      0x1f\n        /* \"#utility.yul\":32897:32900   */\n      dup4\n        /* \"#utility.yul\":32838:32905   */\n      tag_277\n      jump\t// in\n    tag_650:\n        /* \"#utility.yul\":32831:32905   */\n      swap2\n      pop\n        /* \"#utility.yul\":32914:33007   */\n      tag_651\n        /* \"#utility.yul\":33003:33006   */\n      dup3\n        /* \"#utility.yul\":32914:33007   */\n      tag_355\n      jump\t// in\n    tag_651:\n        /* \"#utility.yul\":33032:33034   */\n      0x20\n        /* \"#utility.yul\":33027:33030   */\n      dup3\n        /* \"#utility.yul\":33023:33035   */\n      add\n        /* \"#utility.yul\":33016:33035   */\n      swap1\n      pop\n        /* \"#utility.yul\":32675:33041   */\n      swap2\n      swap1\n      pop\n      jump\t// out\n        /* \"#utility.yul\":33047:33466   */\n    tag_247:\n        /* \"#utility.yul\":33213:33217   */\n      0x00\n        /* \"#utility.yul\":33251:33253   */\n      0x20\n        /* \"#utility.yul\":33240:33249   */\n      dup3\n        /* \"#utility.yul\":33236:33254   */\n      add\n        /* \"#utility.yul\":33228:33254   */\n      swap1\n      pop\n        /* \"#utility.yul\":33300:33309   */\n      dup2\n        /* \"#utility.yul\":33294:33298   */\n      dup2\n        /* \"#utility.yul\":33290:33310   */\n      sub\n        /* \"#utility.yul\":33286:33287   */\n      0x00\n        /* \"#utility.yul\":33275:33284   */\n      dup4\n        /* \"#utility.yul\":33271:33288   */\n      add\n        /* \"#utility.yul\":33264:33311   */\n      mstore\n        /* \"#utility.yul\":33328:33459   */\n      tag_653\n        /* \"#utility.yul\":33454:33458   */\n      dup2\n        /* \"#utility.yul\":33328:33459   */\n      tag_356\n      jump\t// in\n    tag_653:\n        /* \"#utility.yul\":33320:33459   */\n      swap1\n      pop\n        /* \"#utility.yul\":33047:33466   */\n      swap2\n      swap1\n      pop\n      jump\t// out\n        /* \"#utility.yul\":33472:33804   */\n    tag_260:\n        /* \"#utility.yul\":33593:33597   */\n      0x00\n        /* \"#utility.yul\":33631:33633   */\n      0x40\n        /* \"#utility.yul\":33620:33629   */\n      dup3\n        /* \"#utility.yul\":33616:33634   */\n      add\n        /* \"#utility.yul\":33608:33634   */\n      swap1\n      pop\n        /* \"#utility.yul\":33644:33715   */\n      tag_655\n        /* \"#utility.yul\":33712:33713   */\n      0x00\n        /* \"#utility.yul\":33701:33710   */\n      dup4\n        /* \"#utility.yul\":33697:33714   */\n      add\n        /* \"#utility.yul\":33688:33694   */\n      dup6\n        /* \"#utility.yul\":33644:33715   */\n      tag_298\n      jump\t// in\n    tag_655:\n        /* \"#utility.yul\":33725:33797   */\n      tag_656\n        /* \"#utility.yul\":33793:33795   */\n      0x20\n        /* \"#utility.yul\":33782:33791   */\n      dup4\n        /* \"#utility.yul\":33778:33796   */\n      add\n        /* \"#utility.yul\":33769:33775   */\n      dup5\n        /* \"#utility.yul\":33725:33797   */\n      tag_270\n      jump\t// in\n    tag_656:\n        /* \"#utility.yul\":33472:33804   */\n      swap4\n      swap3\n      pop\n      pop\n      pop\n      jump\t// out\n\n    auxdata: 0xa264697066735822122043f7afb64ac6838347c0ffc4c64f9acf5f9fb06034aa596acdfbe1fc13fc906b64736f6c63430008140033\n}\n",
				"bytecode": {
					"linkReferences": {},
					"object": "608060405234801562000010575f80fd5b50335f73ffffffffffffffffffffffffffffffffffffffff168173ffffffffffffffffffffffffffffffffffffffff160362000085575f6040517f1e4fbdf70000000000000000000000000000000000000000000000000000000081526004016200007c9190620001a8565b60405180910390fd5b6200009681620000a460201b60201c565b5060018081905550620001c3565b5f805f9054906101000a900473ffffffffffffffffffffffffffffffffffffffff169050815f806101000a81548173ffffffffffffffffffffffffffffffffffffffff021916908373ffffffffffffffffffffffffffffffffffffffff1602179055508173ffffffffffffffffffffffffffffffffffffffff168173ffffffffffffffffffffffffffffffffffffffff167f8be0079c531659141344cd1fd0a4f28419497f9722a3daafe3b4186f6b6457e060405160405180910390a35050565b5f73ffffffffffffffffffffffffffffffffffffffff82169050919050565b5f620001908262000165565b9050919050565b620001a28162000184565b82525050565b5f602082019050620001bd5f83018462000197565b92915050565b6128f180620001d15f395ff3fe6080604052600436106100e0575f3560e01c80637aadef8b1161007e578063e0a8f6f511610058578063e0a8f6f514610360578063f2fde38b14610388578063f3ae2415146103b0578063f5537ede146103ec57610135565b80637aadef8b146102e45780638da5cb5b1461030e578063ac18de431461033857610135565b80632d06177a116100ba5780632d06177a1461022e5780633c8c3148146102565780633d39c26014610292578063715018a6146102ce57610135565b8063013cf08b146101855780630d61b519146101c85780632ab09d141461020457610135565b36610135573373ffffffffffffffffffffffffffffffffffffffff167f1e57e3bb474320be3d2c77138f75b7c3941292d647f5f9634e33a8e94e0e069b3460405161012b91906118b5565b60405180910390a2005b3373ffffffffffffffffffffffffffffffffffffffff167f1e57e3bb474320be3d2c77138f75b7c3941292d647f5f9634e33a8e94e0e069b3460405161017b91906118b5565b60405180910390a2005b348015610190575f80fd5b506101ab60048036038101906101a69190611900565b610414565b6040516101bf989796959493929190611a0e565b60405180910390f35b3480156101d3575f80fd5b506101ee60048036038101906101e99190611900565b610516565b6040516101fb9190611ae3565b60405180910390f35b34801561020f575f80fd5b5061021861089f565b60405161022591906118b5565b60405180910390f35b348015610239575f80fd5b50610254600480360381019061024f9190611b3e565b6108a5565b005b348015610261575f80fd5b5061027c60048036038101906102779190611bf4565b610aa0565b60405161028991906118b5565b60405180910390f35b34801561029d575f80fd5b506102b860048036038101906102b39190611900565b610e6b565b6040516102c59190611c74565b60405180910390f35b3480156102d9575f80fd5b506102e2610ea6565b005b3480156102ef575f80fd5b506102f8610eb9565b60405161030591906118b5565b60405180910390f35b348015610319575f80fd5b50610322610ec0565b60405161032f9190611c74565b60405180910390f35b348015610343575f80fd5b5061035e60048036038101906103599190611b3e565b610ee7565b005b34801561036b575f80fd5b5061038660048036038101906103819190611900565b611192565b005b348015610393575f80fd5b506103ae60048036038101906103a99190611b3e565b6113b2565b005b3480156103bb575f80fd5b506103d660048036038101906103d19190611b3e565b611436565b6040516103e39190611c8d565b60405180910390f35b3480156103f7575f80fd5b50610412600480360381019061040d9190611ce1565b611453565b005b6005602052805f5260405f205f91509050805f01549080600101805461043990611d5e565b80601f016020809104026020016040519081016040528092919081815260200182805461046590611d5e565b80156104b05780601f10610487576101008083540402835291602001916104b0565b820191905f5260205f20905b81548152906001019060200180831161049357829003601f168201915b505050505090806002015f9054906101000a900473ffffffffffffffffffffffffffffffffffffffff1690806003015490806004015490806005015490806006015f9054906101000a900460ff16908060060160019054906101000a900460ff16905088565b606060025f3373ffffffffffffffffffffffffffffffffffffffff1673ffffffffffffffffffffffffffffffffffffffff1681526020019081526020015f205f9054906101000a900460ff168061059f5750610570610ec0565b73ffffffffffffffffffffffffffffffffffffffff163373ffffffffffffffffffffffffffffffffffffffff16145b6105de576040517f08c379a00000000000000000000000000000000000000000000000000000000081526004016105d590611dd8565b60405180910390fd5b6105e66115dc565b5f60055f8481526020019081526020015f20905082815f01541461063f576040517f08c379a000000000000000000000000000000000000000000000000000000000815260040161063690611e40565b60405180910390fd5b806006015f9054906101000a900460ff1615610690576040517f08c379a000000000000000000000000000000000000000000000000000000000815260040161068790611ea8565b60405180910390fd5b8060060160019054906101000a900460ff16156106e2576040517f08c379a00000000000000000000000000000000000000000000000000000000081526004016106d990611f10565b60405180910390fd5b8060050154421015610729576040517f08c379a000000000000000000000000000000000000000000000000000000000815260040161072090611f78565b60405180910390fd5b6001816006015f6101000a81548160ff0219169083151502179055505f80826002015f9054906101000a900473ffffffffffffffffffffffffffffffffffffffff1673ffffffffffffffffffffffffffffffffffffffff16836003015460405161079290611fc3565b5f6040518083038185875af1925050503d805f81146107cc576040519150601f19603f3d011682016040523d82523d5f602084013e6107d1565b606091505b509150915081610816576040517f08c379a000000000000000000000000000000000000000000000000000000000815260040161080d90612021565b60405180910390fd5b809350826002015f9054906101000a900473ffffffffffffffffffffffffffffffffffffffff1673ffffffffffffffffffffffffffffffffffffffff16857f3b7c90df35b419337cff0919fe91849006607bb66c4373623f06f9d48c1ebb98856003015460405161088791906118b5565b60405180910390a350505061089a61162b565b919050565b60045481565b6108ad611634565b5f73ffffffffffffffffffffffffffffffffffffffff168173ffffffffffffffffffffffffffffffffffffffff160361091b576040517f08c379a000000000000000000000000000000000000000000000000000000000815260040161091290612089565b60405180910390fd5b60025f8273ffffffffffffffffffffffffffffffffffffffff1673ffffffffffffffffffffffffffffffffffffffff1681526020019081526020015f205f9054906101000a900460ff16156109a5576040517f08c379a000000000000000000000000000000000000000000000000000000000815260040161099c906120f1565b60405180910390fd5b600160025f8373ffffffffffffffffffffffffffffffffffffffff1673ffffffffffffffffffffffffffffffffffffffff1681526020019081526020015f205f6101000a81548160ff021916908315150217905550600381908060018154018082558091505060019003905f5260205f20015f9091909190916101000a81548173ffffffffffffffffffffffffffffffffffffffff021916908373ffffffffffffffffffffffffffffffffffffffff1602179055508073ffffffffffffffffffffffffffffffffffffffff167f3b4a40cccf2058c593542587329dd385be4f0b588db5471fbd9598e56dd7093a60405160405180910390a250565b5f60025f3373ffffffffffffffffffffffffffffffffffffffff1673ffffffffffffffffffffffffffffffffffffffff1681526020019081526020015f205f9054906101000a900460ff1680610b285750610af9610ec0565b73ffffffffffffffffffffffffffffffffffffffff163373ffffffffffffffffffffffffffffffffffffffff16145b610b67576040517f08c379a0000000000000000000000000000000000000000000000000000000008152600401610b5e90611dd8565b60405180910390fd5b610b6f6115dc565b5f73ffffffffffffffffffffffffffffffffffffffff168373ffffffffffffffffffffffffffffffffffffffff1603610bdd576040517f08c379a0000000000000000000000000000000000000000000000000000000008152600401610bd490612159565b60405180910390fd5b5f8211610c1f576040517f08c379a0000000000000000000000000000000000000000000000000000000008152600401610c16906121c1565b60405180910390fd5b81471015610c62576040517f08c379a0000000000000000000000000000000000000000000000000000000008152600401610c5990612229565b60405180910390fd5b600454905060045f815480929190610c7990612274565b919050555060405180610100016040528082815260200186868080601f0160208091040260200160405190810160405280939291908181526020018383808284375f81840152601f19601f8201169050808301925050505050505081526020018473ffffffffffffffffffffffffffffffffffffffff1681526020018381526020014281526020016201518042610d1091906122bb565b81526020015f151581526020015f151581525060055f8381526020019081526020015f205f820151815f01556020820151816001019081610d5191906124b8565b506040820151816002015f6101000a81548173ffffffffffffffffffffffffffffffffffffffff021916908373ffffffffffffffffffffffffffffffffffffffff160217905550606082015181600301556080820151816004015560a0820151816005015560c0820151816006015f6101000a81548160ff02191690831515021790555060e08201518160060160016101000a81548160ff0219169083151502179055509050508273ffffffffffffffffffffffffffffffffffffffff16817f331b791e5a0526c6d6f17a46c1d4139542c8579c245d9f8082d0b1462942f4fa8787866201518042610e4391906122bb565b604051610e5394939291906125c1565b60405180910390a3610e6361162b565b949350505050565b60038181548110610e7a575f80fd5b905f5260205f20015f915054906101000a900473ffffffffffffffffffffffffffffffffffffffff1681565b610eae611634565b610eb75f6116bb565b565b6201518081565b5f805f9054906101000a900473ffffffffffffffffffffffffffffffffffffffff16905090565b610eef611634565b60025f8273ffffffffffffffffffffffffffffffffffffffff1673ffffffffffffffffffffffffffffffffffffffff1681526020019081526020015f205f9054906101000a900460ff16610f78576040517f08c379a0000000000000000000000000000000000000000000000000000000008152600401610f6f90612649565b60405180910390fd5b5f60025f8373ffffffffffffffffffffffffffffffffffffffff1673ffffffffffffffffffffffffffffffffffffffff1681526020019081526020015f205f6101000a81548160ff0219169083151502179055505f5b60038054905081101561114b578173ffffffffffffffffffffffffffffffffffffffff166003828154811061100657611005612667565b5b905f5260205f20015f9054906101000a900473ffffffffffffffffffffffffffffffffffffffff1673ffffffffffffffffffffffffffffffffffffffff1603611138576003600160038054905061105d9190612694565b8154811061106e5761106d612667565b5b905f5260205f20015f9054906101000a900473ffffffffffffffffffffffffffffffffffffffff16600382815481106110aa576110a9612667565b5b905f5260205f20015f6101000a81548173ffffffffffffffffffffffffffffffffffffffff021916908373ffffffffffffffffffffffffffffffffffffffff1602179055506003805480611101576111006126c7565b5b600190038181905f5260205f20015f6101000a81549073ffffffffffffffffffffffffffffffffffffffff0219169055905561114b565b808061114390612274565b915050610fce565b508073ffffffffffffffffffffffffffffffffffffffff167fef69f7d97228658c92417be1b16b19058315de71fecb435d07b7d23728b6bd3160405160405180910390a250565b60025f3373ffffffffffffffffffffffffffffffffffffffff1673ffffffffffffffffffffffffffffffffffffffff1681526020019081526020015f205f9054906101000a900460ff168061121957506111ea610ec0565b73ffffffffffffffffffffffffffffffffffffffff163373ffffffffffffffffffffffffffffffffffffffff16145b611258576040517f08c379a000000000000000000000000000000000000000000000000000000000815260040161124f90611dd8565b60405180910390fd5b6112606115dc565b5f60055f8381526020019081526020015f20905081815f0154146112b9576040517f08c379a00000000000000000000000000000000000000000000000000000000081526004016112b090611e40565b60405180910390fd5b806006015f9054906101000a900460ff161561130a576040517f08c379a000000000000000000000000000000000000000000000000000000000815260040161130190611ea8565b60405180910390fd5b8060060160019054906101000a900460ff161561135c576040517f08c379a00000000000000000000000000000000000000000000000000000000081526004016113539061273e565b60405180910390fd5b60018160060160016101000a81548160ff021916908315150217905550817f416e669c63d9a3a5e36ee7cc7e2104b8db28ccd286aa18966e98fa230c73b08c60405160405180910390a2506113af61162b565b50565b6113ba611634565b5f73ffffffffffffffffffffffffffffffffffffffff168173ffffffffffffffffffffffffffffffffffffffff160361142a575f6040517f1e4fbdf70000000000000000000000000000000000000000000000000000000081526004016114219190611c74565b60405180910390fd5b611433816116bb565b50565b6002602052805f5260405f205f915054906101000a900460ff1681565b61145b611634565b6114636115dc565b5f73ffffffffffffffffffffffffffffffffffffffff168373ffffffffffffffffffffffffffffffffffffffff16036114d1576040517f08c379a00000000000000000000000000000000000000000000000000000000081526004016114c8906127a6565b60405180910390fd5b5f73ffffffffffffffffffffffffffffffffffffffff168273ffffffffffffffffffffffffffffffffffffffff160361153f576040517f08c379a00000000000000000000000000000000000000000000000000000000081526004016115369061280e565b60405180910390fd5b61156a82828573ffffffffffffffffffffffffffffffffffffffff1661177c9092919063ffffffff16565b8173ffffffffffffffffffffffffffffffffffffffff168373ffffffffffffffffffffffffffffffffffffffff167f9c8515990fd8c61431c4ac8db9b81475f90c292a1dda77731e56c22e64fc7643836040516115c791906118b5565b60405180910390a36115d761162b565b505050565b600260015403611621576040517f08c379a000000000000000000000000000000000000000000000000000000000815260040161161890612876565b60405180910390fd5b6002600181905550565b60018081905550565b61163c6117fb565b73ffffffffffffffffffffffffffffffffffffffff1661165a610ec0565b73ffffffffffffffffffffffffffffffffffffffff16146116b95761167d6117fb565b6040517f118cdaa70000000000000000000000000000000000000000000000000000000081526004016116b09190611c74565b60405180910390fd5b565b5f805f9054906101000a900473ffffffffffffffffffffffffffffffffffffffff169050815f806101000a81548173ffffffffffffffffffffffffffffffffffffffff021916908373ffffffffffffffffffffffffffffffffffffffff1602179055508173ffffffffffffffffffffffffffffffffffffffff168173ffffffffffffffffffffffffffffffffffffffff167f8be0079c531659141344cd1fd0a4f28419497f9722a3daafe3b4186f6b6457e060405160405180910390a35050565b6117f6838473ffffffffffffffffffffffffffffffffffffffff1663a9059cbb85856040516024016117af929190612894565b604051602081830303815290604052915060e01b6020820180517bffffffffffffffffffffffffffffffffffffffffffffffffffffffff8381831617835250505050611802565b505050565b5f33905090565b5f8060205f8451602086015f885af180611821576040513d5f823e3d81fd5b3d92505f519150505f821461183a576001811415611855565b5f8473ffffffffffffffffffffffffffffffffffffffff163b145b1561189757836040517f5274afe700000000000000000000000000000000000000000000000000000000815260040161188e9190611c74565b60405180910390fd5b50505050565b5f819050919050565b6118af8161189d565b82525050565b5f6020820190506118c85f8301846118a6565b92915050565b5f80fd5b5f80fd5b6118df8161189d565b81146118e9575f80fd5b50565b5f813590506118fa816118d6565b92915050565b5f60208284031215611915576119146118ce565b5b5f611922848285016118ec565b91505092915050565b5f81519050919050565b5f82825260208201905092915050565b5f5b83811015611962578082015181840152602081019050611947565b5f8484015250505050565b5f601f19601f8301169050919050565b5f6119878261192b565b6119918185611935565b93506119a1818560208601611945565b6119aa8161196d565b840191505092915050565b5f73ffffffffffffffffffffffffffffffffffffffff82169050919050565b5f6119de826119b5565b9050919050565b6119ee816119d4565b82525050565b5f8115159050919050565b611a08816119f4565b82525050565b5f61010082019050611a225f83018b6118a6565b8181036020830152611a34818a61197d565b9050611a4360408301896119e5565b611a5060608301886118a6565b611a5d60808301876118a6565b611a6a60a08301866118a6565b611a7760c08301856119ff565b611a8460e08301846119ff565b9998505050505050505050565b5f81519050919050565b5f82825260208201905092915050565b5f611ab582611a91565b611abf8185611a9b565b9350611acf818560208601611945565b611ad88161196d565b840191505092915050565b5f6020820190508181035f830152611afb8184611aab565b905092915050565b5f611b0d826119b5565b9050919050565b611b1d81611b03565b8114611b27575f80fd5b50565b5f81359050611b3881611b14565b92915050565b5f60208284031215611b5357611b526118ce565b5b5f611b6084828501611b2a565b91505092915050565b5f80fd5b5f80fd5b5f80fd5b5f8083601f840112611b8a57611b89611b69565b5b8235905067ffffffffffffffff811115611ba757611ba6611b6d565b5b602083019150836001820283011115611bc357611bc2611b71565b5b9250929050565b611bd3816119d4565b8114611bdd575f80fd5b50565b5f81359050611bee81611bca565b92915050565b5f805f8060608587031215611c0c57611c0b6118ce565b5b5f85013567ffffffffffffffff811115611c2957611c286118d2565b5b611c3587828801611b75565b94509450506020611c4887828801611be0565b9250506040611c59878288016118ec565b91505092959194509250565b611c6e81611b03565b82525050565b5f602082019050611c875f830184611c65565b92915050565b5f602082019050611ca05f8301846119ff565b92915050565b5f611cb082611b03565b9050919050565b611cc081611ca6565b8114611cca575f80fd5b50565b5f81359050611cdb81611cb7565b92915050565b5f805f60608486031215611cf857611cf76118ce565b5b5f611d0586828701611ccd565b9350506020611d1686828701611b2a565b9250506040611d27868287016118ec565b9150509250925092565b7f4e487b71000000000000000000000000000000000000000000000000000000005f52602260045260245ffd5b5f6002820490506001821680611d7557607f821691505b602082108103611d8857611d87611d31565b5b50919050565b7f4e6f7420617574686f72697a65640000000000000000000000000000000000005f82015250565b5f611dc2600e83611935565b9150611dcd82611d8e565b602082019050919050565b5f6020820190508181035f830152611def81611db6565b9050919050565b7f50726f706f73616c20646f6573206e6f742065786973740000000000000000005f82015250565b5f611e2a601783611935565b9150611e3582611df6565b602082019050919050565b5f6020820190508181035f830152611e5781611e1e565b9050919050565b7f50726f706f73616c20616c7265616479206578656375746564000000000000005f82015250565b5f611e92601983611935565b9150611e9d82611e5e565b602082019050919050565b5f6020820190508181035f830152611ebf81611e86565b9050919050565b7f50726f706f73616c2063616e63656c6c656400000000000000000000000000005f82015250565b5f611efa601283611935565b9150611f0582611ec6565b602082019050919050565b5f6020820190508181035f830152611f2781611eee565b9050919050565b7f54696d656c6f636b206e6f7420657870697265640000000000000000000000005f82015250565b5f611f62601483611935565b9150611f6d82611f2e565b602082019050919050565b5f6020820190508181035f830152611f8f81611f56565b9050919050565b5f81905092915050565b50565b5f611fae5f83611f96565b9150611fb982611fa0565b5f82019050919050565b5f611fcd82611fa3565b9150819050919050565b7f46756e64207472616e73666572206661696c65640000000000000000000000005f82015250565b5f61200b601483611935565b915061201682611fd7565b602082019050919050565b5f6020820190508181035f83015261203881611fff565b9050919050565b7f496e76616c6964206164647265737300000000000000000000000000000000005f82015250565b5f612073600f83611935565b915061207e8261203f565b602082019050919050565b5f6020820190508181035f8301526120a081612067565b9050919050565b7f416c72656164792061206d616e616765720000000000000000000000000000005f82015250565b5f6120db601183611935565b91506120e6826120a7565b602082019050919050565b5f6020820190508181035f830152612108816120cf565b9050919050565b7f496e76616c696420726563697069656e740000000000000000000000000000005f82015250565b5f612143601183611935565b915061214e8261210f565b602082019050919050565b5f6020820190508181035f83015261217081612137565b9050919050565b7f416d6f756e74206d757374206265203e203000000000000000000000000000005f82015250565b5f6121ab601283611935565b91506121b682612177565b602082019050919050565b5f6020820190508181035f8301526121d88161219f565b9050919050565b7f496e73756666696369656e742074726561737572792062616c616e63650000005f82015250565b5f612213601d83611935565b915061221e826121df565b602082019050919050565b5f6020820190508181035f83015261224081612207565b9050919050565b7f4e487b71000000000000000000000000000000000000000000000000000000005f52601160045260245ffd5b5f61227e8261189d565b91507fffffffffffffffffffffffffffffffffffffffffffffffffffffffffffffffff82036122b0576122af612247565b5b600182019050919050565b5f6122c58261189d565b91506122d08361189d565b92508282019050808211156122e8576122e7612247565b5b92915050565b7f4e487b71000000000000000000000000000000000000000000000000000000005f52604160045260245ffd5b5f819050815f5260205f209050919050565b5f6020601f8301049050919050565b5f82821b905092915050565b5f600883026123777fffffffffffffffffffffffffffffffffffffffffffffffffffffffffffffffff8261233c565b612381868361233c565b95508019841693508086168417925050509392505050565b5f819050919050565b5f6123bc6123b76123b28461189d565b612399565b61189d565b9050919050565b5f819050919050565b6123d5836123a2565b6123e96123e1826123c3565b848454612348565b825550505050565b5f90565b6123fd6123f1565b6124088184846123cc565b505050565b5b8181101561242b576124205f826123f5565b60018101905061240e565b5050565b601f821115612470576124418161231b565b61244a8461232d565b81016020851015612459578190505b61246d6124658561232d565b83018261240d565b50505b505050565b5f82821c905092915050565b5f6124905f1984600802612475565b1980831691505092915050565b5f6124a88383612481565b9150826002028217905092915050565b6124c18261192b565b67ffffffffffffffff8111156124da576124d96122ee565b5b6124e48254611d5e565b6124ef82828561242f565b5f60209050601f831160018114612520575f841561250e578287015190505b612518858261249d565b86555061257f565b601f19841661252e8661231b565b5f5b8281101561255557848901518255600182019150602085019450602081019050612530565b86831015612572578489015161256e601f891682612481565b8355505b6001600288020188555050505b505050505050565b828183375f83830152505050565b5f6125a08385611935565b93506125ad838584612587565b6125b68361196d565b840190509392505050565b5f6060820190508181035f8301526125da818688612595565b90506125e960208301856118a6565b6125f660408301846118a6565b95945050505050565b7f4e6f742061206d616e61676572000000000000000000000000000000000000005f82015250565b5f612633600d83611935565b915061263e826125ff565b602082019050919050565b5f6020820190508181035f83015261266081612627565b9050919050565b7f4e487b71000000000000000000000000000000000000000000000000000000005f52603260045260245ffd5b5f61269e8261189d565b91506126a98361189d565b92508282039050818111156126c1576126c0612247565b5b92915050565b7f4e487b71000000000000000000000000000000000000000000000000000000005f52603160045260245ffd5b7f50726f706f73616c20616c72656164792063616e63656c6c65640000000000005f82015250565b5f612728601a83611935565b9150612733826126f4565b602082019050919050565b5f6020820190508181035f8301526127558161271c565b9050919050565b7f496e76616c696420746f6b656e206164647265737300000000000000000000005f82015250565b5f612790601583611935565b915061279b8261275c565b602082019050919050565b5f6020820190508181035f8301526127bd81612784565b9050919050565b7f496e76616c696420726563697069656e742061646472657373000000000000005f82015250565b5f6127f8601983611935565b9150612803826127c4565b602082019050919050565b5f6020820190508181035f830152612825816127ec565b9050919050565b7f5265656e7472616e637947756172643a207265656e7472616e742063616c6c005f82015250565b5f612860601f83611935565b915061286b8261282c565b602082019050919050565b5f6020820190508181035f83015261288d81612854565b9050919050565b5f6040820190506128a75f830185611c65565b6128b460208301846118a6565b939250505056fea264697066735822122043f7afb64ac6838347c0ffc4c64f9acf5f9fb06034aa596acdfbe1fc13fc906b64736f6c63430008140033",
					"opcodes": "PUSH1 0x80 PUSH1 0x40 MSTORE CALLVALUE DUP1 ISZERO PUSH3 0x10 JUMPI PUSH0 DUP1 REVERT JUMPDEST POP CALLER PUSH0 PUSH20 0xFFFFFFFFFFFFFFFFFFFFFFFFFFFFFFFFFFFFFFFF AND DUP2 PUSH20 0xFFFFFFFFFFFFFFFFFFFFFFFFFFFFFFFFFFFFFFFF AND SUB PUSH3 0x85 JUMPI PUSH0 PUSH1 0x40 MLOAD PUSH32 0x1E4FBDF700000000000000000000000000000000000000000000000000000000 DUP2 MSTORE PUSH1 0x4 ADD PUSH3 0x7C SWAP2 SWAP1 PUSH3 0x1A8 JUMP JUMPDEST PUSH1 0x40 MLOAD DUP1 SWAP2 SUB SWAP1 REVERT JUMPDEST PUSH3 0x96 DUP2 PUSH3 0xA4 PUSH1 0x20 SHL PUSH1 0x20 SHR JUMP JUMPDEST POP PUSH1 0x1 DUP1 DUP2 SWAP1 SSTORE POP PUSH3 0x1C3 JUMP JUMPDEST PUSH0 DUP1 PUSH0 SWAP1 SLOAD SWAP1 PUSH2 0x100 EXP SWAP1 DIV PUSH20 0xFFFFFFFFFFFFFFFFFFFFFFFFFFFFFFFFFFFFFFFF AND SWAP1 POP DUP2 PUSH0 DUP1 PUSH2 0x100 EXP DUP2 SLOAD DUP2 PUSH20 0xFFFFFFFFFFFFFFFFFFFFFFFFFFFFFFFFFFFFFFFF MUL NOT AND SWAP1 DUP4 PUSH20 0xFFFFFFFFFFFFFFFFFFFFFFFFFFFFFFFFFFFFFFFF AND MUL OR SWAP1 SSTORE POP DUP2 PUSH20 0xFFFFFFFFFFFFFFFFFFFFFFFFFFFFFFFFFFFFFFFF AND DUP2 PUSH20 0xFFFFFFFFFFFFFFFFFFFFFFFFFFFFFFFFFFFFFFFF AND PUSH32 0x8BE0079C531659141344CD1FD0A4F28419497F9722A3DAAFE3B4186F6B6457E0 PUSH1 0x40 MLOAD PUSH1 0x40 MLOAD DUP1 SWAP2 SUB SWAP1 LOG3 POP POP JUMP JUMPDEST PUSH0 PUSH20 0xFFFFFFFFFFFFFFFFFFFFFFFFFFFFFFFFFFFFFFFF DUP3 AND SWAP1 POP SWAP2 SWAP1 POP JUMP JUMPDEST PUSH0 PUSH3 0x190 DUP3 PUSH3 0x165 JUMP JUMPDEST SWAP1 POP SWAP2 SWAP1 POP JUMP JUMPDEST PUSH3 0x1A2 DUP2 PUSH3 0x184 JUMP JUMPDEST DUP3 MSTORE POP POP JUMP JUMPDEST PUSH0 PUSH1 0x20 DUP3 ADD SWAP1 POP PUSH3 0x1BD PUSH0 DUP4 ADD DUP5 PUSH3 0x197 JUMP JUMPDEST SWAP3 SWAP2 POP POP JUMP JUMPDEST PUSH2 0x28F1 DUP1 PUSH3 0x1D1 PUSH0 CODECOPY PUSH0 RETURN INVALID PUSH1 0x80 PUSH1 0x40 MSTORE PUSH1 0x4 CALLDATASIZE LT PUSH2 0xE0 JUMPI PUSH0 CALLDATALOAD PUSH1 0xE0 SHR DUP1 PUSH4 0x7AADEF8B GT PUSH2 0x7E JUMPI DUP1 PUSH4 0xE0A8F6F5 GT PUSH2 0x58 JUMPI DUP1 PUSH4 0xE0A8F6F5 EQ PUSH2 0x360 JUMPI DUP1 PUSH4 0xF2FDE38B EQ PUSH2 0x388 JUMPI DUP1 PUSH4 0xF3AE2415 EQ PUSH2 0x3B0 JUMPI DUP1 PUSH4 0xF5537EDE EQ PUSH2 0x3EC JUMPI PUSH2 0x135 JUMP JUMPDEST DUP1 PUSH4 0x7AADEF8B EQ PUSH2 0x2E4 JUMPI DUP1 PUSH4 0x8DA5CB5B EQ PUSH2 0x30E JUMPI DUP1 PUSH4 0xAC18DE43 EQ PUSH2 0x338 JUMPI PUSH2 0x135 JUMP JUMPDEST DUP1 PUSH4 0x2D06177A GT PUSH2 0xBA JUMPI DUP1 PUSH4 0x2D06177A EQ PUSH2 0x22E JUMPI DUP1 PUSH4 0x3C8C3148 EQ PUSH2 0x256 JUMPI DUP1 PUSH4 0x3D39C260 EQ PUSH2 0x292 JUMPI DUP1 PUSH4 0x715018A6 EQ PUSH2 0x2CE JUMPI PUSH2 0x135 JUMP JUMPDEST DUP1 PUSH4 0x13CF08B EQ PUSH2 0x185 JUMPI DUP1 PUSH4 0xD61B519 EQ PUSH2 0x1C8 JUMPI DUP1 PUSH4 0x2AB09D14 EQ PUSH2 0x204 JUMPI PUSH2 0x135 JUMP JUMPDEST CALLDATASIZE PUSH2 0x135 JUMPI CALLER PUSH20 0xFFFFFFFFFFFFFFFFFFFFFFFFFFFFFFFFFFFFFFFF AND PUSH32 0x1E57E3BB474320BE3D2C77138F75B7C3941292D647F5F9634E33A8E94E0E069B CALLVALUE PUSH1 0x40 MLOAD PUSH2 0x12B SWAP2 SWAP1 PUSH2 0x18B5 JUMP JUMPDEST PUSH1 0x40 MLOAD DUP1 SWAP2 SUB SWAP1 LOG2 STOP JUMPDEST CALLER PUSH20 0xFFFFFFFFFFFFFFFFFFFFFFFFFFFFFFFFFFFFFFFF AND PUSH32 0x1E57E3BB474320BE3D2C77138F75B7C3941292D647F5F9634E33A8E94E0E069B CALLVALUE PUSH1 0x40 MLOAD PUSH2 0x17B SWAP2 SWAP1 PUSH2 0x18B5 JUMP JUMPDEST PUSH1 0x40 MLOAD DUP1 SWAP2 SUB SWAP1 LOG2 STOP JUMPDEST CALLVALUE DUP1 ISZERO PUSH2 0x190 JUMPI PUSH0 DUP1 REVERT JUMPDEST POP PUSH2 0x1AB PUSH1 0x4 DUP1 CALLDATASIZE SUB DUP2 ADD SWAP1 PUSH2 0x1A6 SWAP2 SWAP1 PUSH2 0x1900 JUMP JUMPDEST PUSH2 0x414 JUMP JUMPDEST PUSH1 0x40 MLOAD PUSH2 0x1BF SWAP9 SWAP8 SWAP7 SWAP6 SWAP5 SWAP4 SWAP3 SWAP2 SWAP1 PUSH2 0x1A0E JUMP JUMPDEST PUSH1 0x40 MLOAD DUP1 SWAP2 SUB SWAP1 RETURN JUMPDEST CALLVALUE DUP1 ISZERO PUSH2 0x1D3 JUMPI PUSH0 DUP1 REVERT JUMPDEST POP PUSH2 0x1EE PUSH1 0x4 DUP1 CALLDATASIZE SUB DUP2 ADD SWAP1 PUSH2 0x1E9 SWAP2 SWAP1 PUSH2 0x1900 JUMP JUMPDEST PUSH2 0x516 JUMP JUMPDEST PUSH1 0x40 MLOAD PUSH2 0x1FB SWAP2 SWAP1 PUSH2 0x1AE3 JUMP JUMPDEST PUSH1 0x40 MLOAD DUP1 SWAP2 SUB SWAP1 RETURN JUMPDEST CALLVALUE DUP1 ISZERO PUSH2 0x20F JUMPI PUSH0 DUP1 REVERT JUMPDEST POP PUSH2 0x218 PUSH2 0x89F JUMP JUMPDEST PUSH1 0x40 MLOAD PUSH2 0x225 SWAP2 SWAP1 PUSH2 0x18B5 JUMP JUMPDEST PUSH1 0x40 MLOAD DUP1 SWAP2 SUB SWAP1 RETURN JUMPDEST CALLVALUE DUP1 ISZERO PUSH2 0x239 JUMPI PUSH0 DUP1 REVERT JUMPDEST POP PUSH2 0x254 PUSH1 0x4 DUP1 CALLDATASIZE SUB DUP2 ADD SWAP1 PUSH2 0x24F SWAP2 SWAP1 PUSH2 0x1B3E JUMP JUMPDEST PUSH2 0x8A5 JUMP JUMPDEST STOP JUMPDEST CALLVALUE DUP1 ISZERO PUSH2 0x261 JUMPI PUSH0 DUP1 REVERT JUMPDEST POP PUSH2 0x27C PUSH1 0x4 DUP1 CALLDATASIZE SUB DUP2 ADD SWAP1 PUSH2 0x277 SWAP2 SWAP1 PUSH2 0x1BF4 JUMP JUMPDEST PUSH2 0xAA0 JUMP JUMPDEST PUSH1 0x40 MLOAD PUSH2 0x289 SWAP2 SWAP1 PUSH2 0x18B5 JUMP JUMPDEST PUSH1 0x40 MLOAD DUP1 SWAP2 SUB SWAP1 RETURN JUMPDEST CALLVALUE DUP1 ISZERO PUSH2 0x29D JUMPI PUSH0 DUP1 REVERT JUMPDEST POP PUSH2 0x2B8 PUSH1 0x4 DUP1 CALLDATASIZE SUB DUP2 ADD SWAP1 PUSH2 0x2B3 SWAP2 SWAP1 PUSH2 0x1900 JUMP JUMPDEST PUSH2 0xE6B JUMP JUMPDEST PUSH1 0x40 MLOAD PUSH2 0x2C5 SWAP2 SWAP1 PUSH2 0x1C74 JUMP JUMPDEST PUSH1 0x40 MLOAD DUP1 SWAP2 SUB SWAP1 RETURN JUMPDEST CALLVALUE DUP1 ISZERO PUSH2 0x2D9 JUMPI PUSH0 DUP1 REVERT JUMPDEST POP PUSH2 0x2E2 PUSH2 0xEA6 JUMP JUMPDEST STOP JUMPDEST CALLVALUE DUP1 ISZERO PUSH2 0x2EF JUMPI PUSH0 DUP1 REVERT JUMPDEST POP PUSH2 0x2F8 PUSH2 0xEB9 JUMP JUMPDEST PUSH1 0x40 MLOAD PUSH2 0x305 SWAP2 SWAP1 PUSH2 0x18B5 JUMP JUMPDEST PUSH1 0x40 MLOAD DUP1 SWAP2 SUB SWAP1 RETURN JUMPDEST CALLVALUE DUP1 ISZERO PUSH2 0x319 JUMPI PUSH0 DUP1 REVERT JUMPDEST POP PUSH2 0x322 PUSH2 0xEC0 JUMP JUMPDEST PUSH1 0x40 MLOAD PUSH2 0x32F SWAP2 SWAP1 PUSH2 0x1C74 JUMP JUMPDEST PUSH1 0x40 MLOAD DUP1 SWAP2 SUB SWAP1 RETURN JUMPDEST CALLVALUE DUP1 ISZERO PUSH2 0x343 JUMPI PUSH0 DUP1 REVERT JUMPDEST POP PUSH2 0x35E PUSH1 0x4 DUP1 CALLDATASIZE SUB DUP2 ADD SWAP1 PUSH2 0x359 SWAP2 SWAP1 PUSH2 0x1B3E JUMP JUMPDEST PUSH2 0xEE7 JUMP JUMPDEST STOP JUMPDEST CALLVALUE DUP1 ISZERO PUSH2 0x36B JUMPI PUSH0 DUP1 REVERT JUMPDEST POP PUSH2 0x386 PUSH1 0x4 DUP1 CALLDATASIZE SUB DUP2 ADD SWAP1 PUSH2 0x381 SWAP2 SWAP1 PUSH2 0x1900 JUMP JUMPDEST PUSH2 0x1192 JUMP JUMPDEST STOP JUMPDEST CALLVALUE DUP1 ISZERO PUSH2 0x393 JUMPI PUSH0 DUP1 REVERT JUMPDEST POP PUSH2 0x3AE PUSH1 0x4 DUP1 CALLDATASIZE SUB DUP2 ADD SWAP1 PUSH2 0x3A9 SWAP2 SWAP1 PUSH2 0x1B3E JUMP JUMPDEST PUSH2 0x13B2 JUMP JUMPDEST STOP JUMPDEST CALLVALUE DUP1 ISZERO PUSH2 0x3BB JUMPI PUSH0 DUP1 REVERT JUMPDEST POP PUSH2 0x3D6 PUSH1 0x4 DUP1 CALLDATASIZE SUB DUP2 ADD SWAP1 PUSH2 0x3D1 SWAP2 SWAP1 PUSH2 0x1B3E JUMP JUMPDEST PUSH2 0x1436 JUMP JUMPDEST PUSH1 0x40 MLOAD PUSH2 0x3E3 SWAP2 SWAP1 PUSH2 0x1C8D JUMP JUMPDEST PUSH1 0x40 MLOAD DUP1 SWAP2 SUB SWAP1 RETURN JUMPDEST CALLVALUE DUP1 ISZERO PUSH2 0x3F7 JUMPI PUSH0 DUP1 REVERT JUMPDEST POP PUSH2 0x412 PUSH1 0x4 DUP1 CALLDATASIZE SUB DUP2 ADD SWAP1 PUSH2 0x40D SWAP2 SWAP1 PUSH2 0x1CE1 JUMP JUMPDEST PUSH2 0x1453 JUMP JUMPDEST STOP JUMPDEST PUSH1 0x5 PUSH1 0x20 MSTORE DUP1 PUSH0 MSTORE PUSH1 0x40 PUSH0 KECCAK256 PUSH0 SWAP2 POP SWAP1 POP DUP1 PUSH0 ADD SLOAD SWAP1 DUP1 PUSH1 0x1 ADD DUP1 SLOAD PUSH2 0x439 SWAP1 PUSH2 0x1D5E JUMP JUMPDEST DUP1 PUSH1 0x1F ADD PUSH1 0x20 DUP1 SWAP2 DIV MUL PUSH1 0x20 ADD PUSH1 0x40 MLOAD SWAP1 DUP2 ADD PUSH1 0x40 MSTORE DUP1 SWAP3 SWAP2 SWAP1 DUP2 DUP2 MSTORE PUSH1 0x20 ADD DUP3 DUP1 SLOAD PUSH2 0x465 SWAP1 PUSH2 0x1D5E JUMP JUMPDEST DUP1 ISZERO PUSH2 0x4B0 JUMPI DUP1 PUSH1 0x1F LT PUSH2 0x487 JUMPI PUSH2 0x100 DUP1 DUP4 SLOAD DIV MUL DUP4 MSTORE SWAP2 PUSH1 0x20 ADD SWAP2 PUSH2 0x4B0 JUMP JUMPDEST DUP3 ADD SWAP2 SWAP1 PUSH0 MSTORE PUSH1 0x20 PUSH0 KECCAK256 SWAP1 JUMPDEST DUP2 SLOAD DUP2 MSTORE SWAP1 PUSH1 0x1 ADD SWAP1 PUSH1 0x20 ADD DUP1 DUP4 GT PUSH2 0x493 JUMPI DUP3 SWAP1 SUB PUSH1 0x1F AND DUP3 ADD SWAP2 JUMPDEST POP POP POP POP POP SWAP1 DUP1 PUSH1 0x2 ADD PUSH0 SWAP1 SLOAD SWAP1 PUSH2 0x100 EXP SWAP1 DIV PUSH20 0xFFFFFFFFFFFFFFFFFFFFFFFFFFFFFFFFFFFFFFFF AND SWAP1 DUP1 PUSH1 0x3 ADD SLOAD SWAP1 DUP1 PUSH1 0x4 ADD SLOAD SWAP1 DUP1 PUSH1 0x5 ADD SLOAD SWAP1 DUP1 PUSH1 0x6 ADD PUSH0 SWAP1 SLOAD SWAP1 PUSH2 0x100 EXP SWAP1 DIV PUSH1 0xFF AND SWAP1 DUP1 PUSH1 0x6 ADD PUSH1 0x1 SWAP1 SLOAD SWAP1 PUSH2 0x100 EXP SWAP1 DIV PUSH1 0xFF AND SWAP1 POP DUP9 JUMP JUMPDEST PUSH1 0x60 PUSH1 0x2 PUSH0 CALLER PUSH20 0xFFFFFFFFFFFFFFFFFFFFFFFFFFFFFFFFFFFFFFFF AND PUSH20 0xFFFFFFFFFFFFFFFFFFFFFFFFFFFFFFFFFFFFFFFF AND DUP2 MSTORE PUSH1 0x20 ADD SWAP1 DUP2 MSTORE PUSH1 0x20 ADD PUSH0 KECCAK256 PUSH0 SWAP1 SLOAD SWAP1 PUSH2 0x100 EXP SWAP1 DIV PUSH1 0xFF AND DUP1 PUSH2 0x59F JUMPI POP PUSH2 0x570 PUSH2 0xEC0 JUMP JUMPDEST PUSH20 0xFFFFFFFFFFFFFFFFFFFFFFFFFFFFFFFFFFFFFFFF AND CALLER PUSH20 0xFFFFFFFFFFFFFFFFFFFFFFFFFFFFFFFFFFFFFFFF AND EQ JUMPDEST PUSH2 0x5DE JUMPI PUSH1 0x40 MLOAD PUSH32 0x8C379A000000000000000000000000000000000000000000000000000000000 DUP2 MSTORE PUSH1 0x4 ADD PUSH2 0x5D5 SWAP1 PUSH2 0x1DD8 JUMP JUMPDEST PUSH1 0x40 MLOAD DUP1 SWAP2 SUB SWAP1 REVERT JUMPDEST PUSH2 0x5E6 PUSH2 0x15DC JUMP JUMPDEST PUSH0 PUSH1 0x5 PUSH0 DUP5 DUP2 MSTORE PUSH1 0x20 ADD SWAP1 DUP2 MSTORE PUSH1 0x20 ADD PUSH0 KECCAK256 SWAP1 POP DUP3 DUP2 PUSH0 ADD SLOAD EQ PUSH2 0x63F JUMPI PUSH1 0x40 MLOAD PUSH32 0x8C379A000000000000000000000000000000000000000000000000000000000 DUP2 MSTORE PUSH1 0x4 ADD PUSH2 0x636 SWAP1 PUSH2 0x1E40 JUMP JUMPDEST PUSH1 0x40 MLOAD DUP1 SWAP2 SUB SWAP1 REVERT JUMPDEST DUP1 PUSH1 0x6 ADD PUSH0 SWAP1 SLOAD SWAP1 PUSH2 0x100 EXP SWAP1 DIV PUSH1 0xFF AND ISZERO PUSH2 0x690 JUMPI PUSH1 0x40 MLOAD PUSH32 0x8C379A000000000000000000000000000000000000000000000000000000000 DUP2 MSTORE PUSH1 0x4 ADD PUSH2 0x687 SWAP1 PUSH2 0x1EA8 JUMP JUMPDEST PUSH1 0x40 MLOAD DUP1 SWAP2 SUB SWAP1 REVERT JUMPDEST DUP1 PUSH1 0x6 ADD PUSH1 0x1 SWAP1 SLOAD SWAP1 PUSH2 0x100 EXP SWAP1 DIV PUSH1 0xFF AND ISZERO PUSH2 0x6E2 JUMPI PUSH1 0x40 MLOAD PUSH32 0x8C379A000000000000000000000000000000000000000000000000000000000 DUP2 MSTORE PUSH1 0x4 ADD PUSH2 0x6D9 SWAP1 PUSH2 0x1F10 JUMP JUMPDEST PUSH1 0x40 MLOAD DUP1 SWAP2 SUB SWAP1 REVERT JUMPDEST DUP1 PUSH1 0x5 ADD SLOAD TIMESTAMP LT ISZERO PUSH2 0x729 JUMPI PUSH1 0x40 MLOAD PUSH32 0x8C379A000000000000000000000000000000000000000000000000000000000 DUP2 MSTORE PUSH1 0x4 ADD PUSH2 0x720 SWAP1 PUSH2 0x1F78 JUMP JUMPDEST PUSH1 0x40 MLOAD DUP1 SWAP2 SUB SWAP1 REVERT JUMPDEST PUSH1 0x1 DUP2 PUSH1 0x6 ADD PUSH0 PUSH2 0x100 EXP DUP2 SLOAD DUP2 PUSH1 0xFF MUL NOT AND SWAP1 DUP4 ISZERO ISZERO MUL OR SWAP1 SSTORE POP PUSH0 DUP1 DUP3 PUSH1 0x2 ADD PUSH0 SWAP1 SLOAD SWAP1 PUSH2 0x100 EXP SWAP1 DIV PUSH20 0xFFFFFFFFFFFFFFFFFFFFFFFFFFFFFFFFFFFFFFFF AND PUSH20 0xFFFFFFFFFFFFFFFFFFFFFFFFFFFFFFFFFFFFFFFF AND DUP4 PUSH1 0x3 ADD SLOAD PUSH1 0x40 MLOAD PUSH2 0x792 SWAP1 PUSH2 0x1FC3 JUMP JUMPDEST PUSH0 PUSH1 0x40 MLOAD DUP1 DUP4 SUB DUP2 DUP6 DUP8 GAS CALL SWAP3 POP POP POP RETURNDATASIZE DUP1 PUSH0 DUP2 EQ PUSH2 0x7CC JUMPI PUSH1 0x40 MLOAD SWAP2 POP PUSH1 0x1F NOT PUSH1 0x3F RETURNDATASIZE ADD AND DUP3 ADD PUSH1 0x40 MSTORE RETURNDATASIZE DUP3 MSTORE RETURNDATASIZE PUSH0 PUSH1 0x20 DUP5 ADD RETURNDATACOPY PUSH2 0x7D1 JUMP JUMPDEST PUSH1 0x60 SWAP2 POP JUMPDEST POP SWAP2 POP SWAP2 POP DUP2 PUSH2 0x816 JUMPI PUSH1 0x40 MLOAD PUSH32 0x8C379A000000000000000000000000000000000000000000000000000000000 DUP2 MSTORE PUSH1 0x4 ADD PUSH2 0x80D SWAP1 PUSH2 0x2021 JUMP JUMPDEST PUSH1 0x40 MLOAD DUP1 SWAP2 SUB SWAP1 REVERT JUMPDEST DUP1 SWAP4 POP DUP3 PUSH1 0x2 ADD PUSH0 SWAP1 SLOAD SWAP1 PUSH2 0x100 EXP SWAP1 DIV PUSH20 0xFFFFFFFFFFFFFFFFFFFFFFFFFFFFFFFFFFFFFFFF AND PUSH20 0xFFFFFFFFFFFFFFFFFFFFFFFFFFFFFFFFFFFFFFFF AND DUP6 PUSH32 0x3B7C90DF35B419337CFF0919FE91849006607BB66C4373623F06F9D48C1EBB98 DUP6 PUSH1 0x3 ADD SLOAD PUSH1 0x40 MLOAD PUSH2 0x887 SWAP2 SWAP1 PUSH2 0x18B5 JUMP JUMPDEST PUSH1 0x40 MLOAD DUP1 SWAP2 SUB SWAP1 LOG3 POP POP POP PUSH2 0x89A PUSH2 0x162B JUMP JUMPDEST SWAP2 SWAP1 POP JUMP JUMPDEST PUSH1 0x4 SLOAD DUP2 JUMP JUMPDEST PUSH2 0x8AD PUSH2 0x1634 JUMP JUMPDEST PUSH0 PUSH20 0xFFFFFFFFFFFFFFFFFFFFFFFFFFFFFFFFFFFFFFFF AND DUP2 PUSH20 0xFFFFFFFFFFFFFFFFFFFFFFFFFFFFFFFFFFFFFFFF AND SUB PUSH2 0x91B JUMPI PUSH1 0x40 MLOAD PUSH32 0x8C379A000000000000000000000000000000000000000000000000000000000 DUP2 MSTORE PUSH1 0x4 ADD PUSH2 0x912 SWAP1 PUSH2 0x2089 JUMP JUMPDEST PUSH1 0x40 MLOAD DUP1 SWAP2 SUB SWAP1 REVERT JUMPDEST PUSH1 0x2 PUSH0 DUP3 PUSH20 0xFFFFFFFFFFFFFFFFFFFFFFFFFFFFFFFFFFFFFFFF AND PUSH20 0xFFFFFFFFFFFFFFFFFFFFFFFFFFFFFFFFFFFFFFFF AND DUP2 MSTORE PUSH1 0x20 ADD SWAP1 DUP2 MSTORE PUSH1 0x20 ADD PUSH0 KECCAK256 PUSH0 SWAP1 SLOAD SWAP1 PUSH2 0x100 EXP SWAP1 DIV PUSH1 0xFF AND ISZERO PUSH2 0x9A5 JUMPI PUSH1 0x40 MLOAD PUSH32 0x8C379A000000000000000000000000000000000000000000000000000000000 DUP2 MSTORE PUSH1 0x4 ADD PUSH2 0x99C SWAP1 PUSH2 0x20F1 JUMP JUMPDEST PUSH1 0x40 MLOAD DUP1 SWAP2 SUB SWAP1 REVERT JUMPDEST PUSH1 0x1 PUSH1 0x2 PUSH0 DUP4 PUSH20 0xFFFFFFFFFFFFFFFFFFFFFFFFFFFFFFFFFFFFFFFF AND PUSH20 0xFFFFFFFFFFFFFFFFFFFFFFFFFFFFFFFFFFFFFFFF AND DUP2 MSTORE PUSH1 0x20 ADD SWAP1 DUP2 MSTORE PUSH1 0x20 ADD PUSH0 KECCAK256 PUSH0 PUSH2 0x100 EXP DUP2 SLOAD DUP2 PUSH1 0xFF MUL NOT AND SWAP1 DUP4 ISZERO ISZERO MUL OR SWAP1 SSTORE POP PUSH1 0x3 DUP2 SWAP1 DUP1 PUSH1 0x1 DUP2 SLOAD ADD DUP1 DUP3 SSTORE DUP1 SWAP2 POP POP PUSH1 0x1 SWAP1 SUB SWAP1 PUSH0 MSTORE PUSH1 0x20 PUSH0 KECCAK256 ADD PUSH0 SWAP1 SWAP2 SWAP1 SWAP2 SWAP1 SWAP2 PUSH2 0x100 EXP DUP2 SLOAD DUP2 PUSH20 0xFFFFFFFFFFFFFFFFFFFFFFFFFFFFFFFFFFFFFFFF MUL NOT AND SWAP1 DUP4 PUSH20 0xFFFFFFFFFFFFFFFFFFFFFFFFFFFFFFFFFFFFFFFF AND MUL OR SWAP1 SSTORE POP DUP1 PUSH20 0xFFFFFFFFFFFFFFFFFFFFFFFFFFFFFFFFFFFFFFFF AND PUSH32 0x3B4A40CCCF2058C593542587329DD385BE4F0B588DB5471FBD9598E56DD7093A PUSH1 0x40 MLOAD PUSH1 0x40 MLOAD DUP1 SWAP2 SUB SWAP1 LOG2 POP JUMP JUMPDEST PUSH0 PUSH1 0x2 PUSH0 CALLER PUSH20 0xFFFFFFFFFFFFFFFFFFFFFFFFFFFFFFFFFFFFFFFF AND PUSH20 0xFFFFFFFFFFFFFFFFFFFFFFFFFFFFFFFFFFFFFFFF AND DUP2 MSTORE PUSH1 0x20 ADD SWAP1 DUP2 MSTORE PUSH1 0x20 ADD PUSH0 KECCAK256 PUSH0 SWAP1 SLOAD SWAP1 PUSH2 0x100 EXP SWAP1 DIV PUSH1 0xFF AND DUP1 PUSH2 0xB28 JUMPI POP PUSH2 0xAF9 PUSH2 0xEC0 JUMP JUMPDEST PUSH20 0xFFFFFFFFFFFFFFFFFFFFFFFFFFFFFFFFFFFFFFFF AND CALLER PUSH20 0xFFFFFFFFFFFFFFFFFFFFFFFFFFFFFFFFFFFFFFFF AND EQ JUMPDEST PUSH2 0xB67 JUMPI PUSH1 0x40 MLOAD PUSH32 0x8C379A000000000000000000000000000000000000000000000000000000000 DUP2 MSTORE PUSH1 0x4 ADD PUSH2 0xB5E SWAP1 PUSH2 0x1DD8 JUMP JUMPDEST PUSH1 0x40 MLOAD DUP1 SWAP2 SUB SWAP1 REVERT JUMPDEST PUSH2 0xB6F PUSH2 0x15DC JUMP JUMPDEST PUSH0 PUSH20 0xFFFFFFFFFFFFFFFFFFFFFFFFFFFFFFFFFFFFFFFF AND DUP4 PUSH20 0xFFFFFFFFFFFFFFFFFFFFFFFFFFFFFFFFFFFFFFFF AND SUB PUSH2 0xBDD JUMPI PUSH1 0x40 MLOAD PUSH32 0x8C379A000000000000000000000000000000000000000000000000000000000 DUP2 MSTORE PUSH1 0x4 ADD PUSH2 0xBD4 SWAP1 PUSH2 0x2159 JUMP JUMPDEST PUSH1 0x40 MLOAD DUP1 SWAP2 SUB SWAP1 REVERT JUMPDEST PUSH0 DUP3 GT PUSH2 0xC1F JUMPI PUSH1 0x40 MLOAD PUSH32 0x8C379A000000000000000000000000000000000000000000000000000000000 DUP2 MSTORE PUSH1 0x4 ADD PUSH2 0xC16 SWAP1 PUSH2 0x21C1 JUMP JUMPDEST PUSH1 0x40 MLOAD DUP1 SWAP2 SUB SWAP1 REVERT JUMPDEST DUP2 SELFBALANCE LT ISZERO PUSH2 0xC62 JUMPI PUSH1 0x40 MLOAD PUSH32 0x8C379A000000000000000000000000000000000000000000000000000000000 DUP2 MSTORE PUSH1 0x4 ADD PUSH2 0xC59 SWAP1 PUSH2 0x2229 JUMP JUMPDEST PUSH1 0x40 MLOAD DUP1 SWAP2 SUB SWAP1 REVERT JUMPDEST PUSH1 0x4 SLOAD SWAP1 POP PUSH1 0x4 PUSH0 DUP2 SLOAD DUP1 SWAP3 SWAP2 SWAP1 PUSH2 0xC79 SWAP1 PUSH2 0x2274 JUMP JUMPDEST SWAP2 SWAP1 POP SSTORE POP PUSH1 0x40 MLOAD DUP1 PUSH2 0x100 ADD PUSH1 0x40 MSTORE DUP1 DUP3 DUP2 MSTORE PUSH1 0x20 ADD DUP7 DUP7 DUP1 DUP1 PUSH1 0x1F ADD PUSH1 0x20 DUP1 SWAP2 DIV MUL PUSH1 0x20 ADD PUSH1 0x40 MLOAD SWAP1 DUP2 ADD PUSH1 0x40 MSTORE DUP1 SWAP4 SWAP3 SWAP2 SWAP1 DUP2 DUP2 MSTORE PUSH1 0x20 ADD DUP4 DUP4 DUP1 DUP3 DUP5 CALLDATACOPY PUSH0 DUP2 DUP5 ADD MSTORE PUSH1 0x1F NOT PUSH1 0x1F DUP3 ADD AND SWAP1 POP DUP1 DUP4 ADD SWAP3 POP POP POP POP POP POP POP DUP2 MSTORE PUSH1 0x20 ADD DUP5 PUSH20 0xFFFFFFFFFFFFFFFFFFFFFFFFFFFFFFFFFFFFFFFF AND DUP2 MSTORE PUSH1 0x20 ADD DUP4 DUP2 MSTORE PUSH1 0x20 ADD TIMESTAMP DUP2 MSTORE PUSH1 0x20 ADD PUSH3 0x15180 TIMESTAMP PUSH2 0xD10 SWAP2 SWAP1 PUSH2 0x22BB JUMP JUMPDEST DUP2 MSTORE PUSH1 0x20 ADD PUSH0 ISZERO ISZERO DUP2 MSTORE PUSH1 0x20 ADD PUSH0 ISZERO ISZERO DUP2 MSTORE POP PUSH1 0x5 PUSH0 DUP4 DUP2 MSTORE PUSH1 0x20 ADD SWAP1 DUP2 MSTORE PUSH1 0x20 ADD PUSH0 KECCAK256 PUSH0 DUP3 ADD MLOAD DUP2 PUSH0 ADD SSTORE PUSH1 0x20 DUP3 ADD MLOAD DUP2 PUSH1 0x1 ADD SWAP1 DUP2 PUSH2 0xD51 SWAP2 SWAP1 PUSH2 0x24B8 JUMP JUMPDEST POP PUSH1 0x40 DUP3 ADD MLOAD DUP2 PUSH1 0x2 ADD PUSH0 PUSH2 0x100 EXP DUP2 SLOAD DUP2 PUSH20 0xFFFFFFFFFFFFFFFFFFFFFFFFFFFFFFFFFFFFFFFF MUL NOT AND SWAP1 DUP4 PUSH20 0xFFFFFFFFFFFFFFFFFFFFFFFFFFFFFFFFFFFFFFFF AND MUL OR SWAP1 SSTORE POP PUSH1 0x60 DUP3 ADD MLOAD DUP2 PUSH1 0x3 ADD SSTORE PUSH1 0x80 DUP3 ADD MLOAD DUP2 PUSH1 0x4 ADD SSTORE PUSH1 0xA0 DUP3 ADD MLOAD DUP2 PUSH1 0x5 ADD SSTORE PUSH1 0xC0 DUP3 ADD MLOAD DUP2 PUSH1 0x6 ADD PUSH0 PUSH2 0x100 EXP DUP2 SLOAD DUP2 PUSH1 0xFF MUL NOT AND SWAP1 DUP4 ISZERO ISZERO MUL OR SWAP1 SSTORE POP PUSH1 0xE0 DUP3 ADD MLOAD DUP2 PUSH1 0x6 ADD PUSH1 0x1 PUSH2 0x100 EXP DUP2 SLOAD DUP2 PUSH1 0xFF MUL NOT AND SWAP1 DUP4 ISZERO ISZERO MUL OR SWAP1 SSTORE POP SWAP1 POP POP DUP3 PUSH20 0xFFFFFFFFFFFFFFFFFFFFFFFFFFFFFFFFFFFFFFFF AND DUP2 PUSH32 0x331B791E5A0526C6D6F17A46C1D4139542C8579C245D9F8082D0B1462942F4FA DUP8 DUP8 DUP7 PUSH3 0x15180 TIMESTAMP PUSH2 0xE43 SWAP2 SWAP1 PUSH2 0x22BB JUMP JUMPDEST PUSH1 0x40 MLOAD PUSH2 0xE53 SWAP5 SWAP4 SWAP3 SWAP2 SWAP1 PUSH2 0x25C1 JUMP JUMPDEST PUSH1 0x40 MLOAD DUP1 SWAP2 SUB SWAP1 LOG3 PUSH2 0xE63 PUSH2 0x162B JUMP JUMPDEST SWAP5 SWAP4 POP POP POP POP JUMP JUMPDEST PUSH1 0x3 DUP2 DUP2 SLOAD DUP2 LT PUSH2 0xE7A JUMPI PUSH0 DUP1 REVERT JUMPDEST SWAP1 PUSH0 MSTORE PUSH1 0x20 PUSH0 KECCAK256 ADD PUSH0 SWAP2 POP SLOAD SWAP1 PUSH2 0x100 EXP SWAP1 DIV PUSH20 0xFFFFFFFFFFFFFFFFFFFFFFFFFFFFFFFFFFFFFFFF AND DUP2 JUMP JUMPDEST PUSH2 0xEAE PUSH2 0x1634 JUMP JUMPDEST PUSH2 0xEB7 PUSH0 PUSH2 0x16BB JUMP JUMPDEST JUMP JUMPDEST PUSH3 0x15180 DUP2 JUMP JUMPDEST PUSH0 DUP1 PUSH0 SWAP1 SLOAD SWAP1 PUSH2 0x100 EXP SWAP1 DIV PUSH20 0xFFFFFFFFFFFFFFFFFFFFFFFFFFFFFFFFFFFFFFFF AND SWAP1 POP SWAP1 JUMP JUMPDEST PUSH2 0xEEF PUSH2 0x1634 JUMP JUMPDEST PUSH1 0x2 PUSH0 DUP3 PUSH20 0xFFFFFFFFFFFFFFFFFFFFFFFFFFFFFFFFFFFFFFFF AND PUSH20 0xFFFFFFFFFFFFFFFFFFFFFFFFFFFFFFFFFFFFFFFF AND DUP2 MSTORE PUSH1 0x20 ADD SWAP1 DUP2 MSTORE PUSH1 0x20 ADD PUSH0 KECCAK256 PUSH0 SWAP1 SLOAD SWAP1 PUSH2 0x100 EXP SWAP1 DIV PUSH1 0xFF AND PUSH2 0xF78 JUMPI PUSH1 0x40 MLOAD PUSH32 0x8C379A000000000000000000000000000000000000000000000000000000000 DUP2 MSTORE PUSH1 0x4 ADD PUSH2 0xF6F SWAP1 PUSH2 0x2649 JUMP JUMPDEST PUSH1 0x40 MLOAD DUP1 SWAP2 SUB SWAP1 REVERT JUMPDEST PUSH0 PUSH1 0x2 PUSH0 DUP4 PUSH20 0xFFFFFFFFFFFFFFFFFFFFFFFFFFFFFFFFFFFFFFFF AND PUSH20 0xFFFFFFFFFFFFFFFFFFFFFFFFFFFFFFFFFFFFFFFF AND DUP2 MSTORE PUSH1 0x20 ADD SWAP1 DUP2 MSTORE PUSH1 0x20 ADD PUSH0 KECCAK256 PUSH0 PUSH2 0x100 EXP DUP2 SLOAD DUP2 PUSH1 0xFF MUL NOT AND SWAP1 DUP4 ISZERO ISZERO MUL OR SWAP1 SSTORE POP PUSH0 JUMPDEST PUSH1 0x3 DUP1 SLOAD SWAP1 POP DUP2 LT ISZERO PUSH2 0x114B JUMPI DUP2 PUSH20 0xFFFFFFFFFFFFFFFFFFFFFFFFFFFFFFFFFFFFFFFF AND PUSH1 0x3 DUP3 DUP2 SLOAD DUP2 LT PUSH2 0x1006 JUMPI PUSH2 0x1005 PUSH2 0x2667 JUMP JUMPDEST JUMPDEST SWAP1 PUSH0 MSTORE PUSH1 0x20 PUSH0 KECCAK256 ADD PUSH0 SWAP1 SLOAD SWAP1 PUSH2 0x100 EXP SWAP1 DIV PUSH20 0xFFFFFFFFFFFFFFFFFFFFFFFFFFFFFFFFFFFFFFFF AND PUSH20 0xFFFFFFFFFFFFFFFFFFFFFFFFFFFFFFFFFFFFFFFF AND SUB PUSH2 0x1138 JUMPI PUSH1 0x3 PUSH1 0x1 PUSH1 0x3 DUP1 SLOAD SWAP1 POP PUSH2 0x105D SWAP2 SWAP1 PUSH2 0x2694 JUMP JUMPDEST DUP2 SLOAD DUP2 LT PUSH2 0x106E JUMPI PUSH2 0x106D PUSH2 0x2667 JUMP JUMPDEST JUMPDEST SWAP1 PUSH0 MSTORE PUSH1 0x20 PUSH0 KECCAK256 ADD PUSH0 SWAP1 SLOAD SWAP1 PUSH2 0x100 EXP SWAP1 DIV PUSH20 0xFFFFFFFFFFFFFFFFFFFFFFFFFFFFFFFFFFFFFFFF AND PUSH1 0x3 DUP3 DUP2 SLOAD DUP2 LT PUSH2 0x10AA JUMPI PUSH2 0x10A9 PUSH2 0x2667 JUMP JUMPDEST JUMPDEST SWAP1 PUSH0 MSTORE PUSH1 0x20 PUSH0 KECCAK256 ADD PUSH0 PUSH2 0x100 EXP DUP2 SLOAD DUP2 PUSH20 0xFFFFFFFFFFFFFFFFFFFFFFFFFFFFFFFFFFFFFFFF MUL NOT AND SWAP1 DUP4 PUSH20 0xFFFFFFFFFFFFFFFFFFFFFFFFFFFFFFFFFFFFFFFF AND MUL OR SWAP1 SSTORE POP PUSH1 0x3 DUP1 SLOAD DUP1 PUSH2 0x1101 JUMPI PUSH2 0x1100 PUSH2 0x26C7 JUMP JUMPDEST JUMPDEST PUSH1 0x1 SWAP1 SUB DUP2 DUP2 SWAP1 PUSH0 MSTORE PUSH1 0x20 PUSH0 KECCAK256 ADD PUSH0 PUSH2 0x100 EXP DUP2 SLOAD SWAP1 PUSH20 0xFFFFFFFFFFFFFFFFFFFFFFFFFFFFFFFFFFFFFFFF MUL NOT AND SWAP1 SSTORE SWAP1 SSTORE PUSH2 0x114B JUMP JUMPDEST DUP1 DUP1 PUSH2 0x1143 SWAP1 PUSH2 0x2274 JUMP JUMPDEST SWAP2 POP POP PUSH2 0xFCE JUMP JUMPDEST POP DUP1 PUSH20 0xFFFFFFFFFFFFFFFFFFFFFFFFFFFFFFFFFFFFFFFF AND PUSH32 0xEF69F7D97228658C92417BE1B16B19058315DE71FECB435D07B7D23728B6BD31 PUSH1 0x40 MLOAD PUSH1 0x40 MLOAD DUP1 SWAP2 SUB SWAP1 LOG2 POP JUMP JUMPDEST PUSH1 0x2 PUSH0 CALLER PUSH20 0xFFFFFFFFFFFFFFFFFFFFFFFFFFFFFFFFFFFFFFFF AND PUSH20 0xFFFFFFFFFFFFFFFFFFFFFFFFFFFFFFFFFFFFFFFF AND DUP2 MSTORE PUSH1 0x20 ADD SWAP1 DUP2 MSTORE PUSH1 0x20 ADD PUSH0 KECCAK256 PUSH0 SWAP1 SLOAD SWAP1 PUSH2 0x100 EXP SWAP1 DIV PUSH1 0xFF AND DUP1 PUSH2 0x1219 JUMPI POP PUSH2 0x11EA PUSH2 0xEC0 JUMP JUMPDEST PUSH20 0xFFFFFFFFFFFFFFFFFFFFFFFFFFFFFFFFFFFFFFFF AND CALLER PUSH20 0xFFFFFFFFFFFFFFFFFFFFFFFFFFFFFFFFFFFFFFFF AND EQ JUMPDEST PUSH2 0x1258 JUMPI PUSH1 0x40 MLOAD PUSH32 0x8C379A000000000000000000000000000000000000000000000000000000000 DUP2 MSTORE PUSH1 0x4 ADD PUSH2 0x124F SWAP1 PUSH2 0x1DD8 JUMP JUMPDEST PUSH1 0x40 MLOAD DUP1 SWAP2 SUB SWAP1 REVERT JUMPDEST PUSH2 0x1260 PUSH2 0x15DC JUMP JUMPDEST PUSH0 PUSH1 0x5 PUSH0 DUP4 DUP2 MSTORE PUSH1 0x20 ADD SWAP1 DUP2 MSTORE PUSH1 0x20 ADD PUSH0 KECCAK256 SWAP1 POP DUP2 DUP2 PUSH0 ADD SLOAD EQ PUSH2 0x12B9 JUMPI PUSH1 0x40 MLOAD PUSH32 0x8C379A000000000000000000000000000000000000000000000000000000000 DUP2 MSTORE PUSH1 0x4 ADD PUSH2 0x12B0 SWAP1 PUSH2 0x1E40 JUMP JUMPDEST PUSH1 0x40 MLOAD DUP1 SWAP2 SUB SWAP1 REVERT JUMPDEST DUP1 PUSH1 0x6 ADD PUSH0 SWAP1 SLOAD SWAP1 PUSH2 0x100 EXP SWAP1 DIV PUSH1 0xFF AND ISZERO PUSH2 0x130A JUMPI PUSH1 0x40 MLOAD PUSH32 0x8C379A000000000000000000000000000000000000000000000000000000000 DUP2 MSTORE PUSH1 0x4 ADD PUSH2 0x1301 SWAP1 PUSH2 0x1EA8 JUMP JUMPDEST PUSH1 0x40 MLOAD DUP1 SWAP2 SUB SWAP1 REVERT JUMPDEST DUP1 PUSH1 0x6 ADD PUSH1 0x1 SWAP1 SLOAD SWAP1 PUSH2 0x100 EXP SWAP1 DIV PUSH1 0xFF AND ISZERO PUSH2 0x135C JUMPI PUSH1 0x40 MLOAD PUSH32 0x8C379A000000000000000000000000000000000000000000000000000000000 DUP2 MSTORE PUSH1 0x4 ADD PUSH2 0x1353 SWAP1 PUSH2 0x273E JUMP JUMPDEST PUSH1 0x40 MLOAD DUP1 SWAP2 SUB SWAP1 REVERT JUMPDEST PUSH1 0x1 DUP2 PUSH1 0x6 ADD PUSH1 0x1 PUSH2 0x100 EXP DUP2 SLOAD DUP2 PUSH1 0xFF MUL NOT AND SWAP1 DUP4 ISZERO ISZERO MUL OR SWAP1 SSTORE POP DUP2 PUSH32 0x416E669C63D9A3A5E36EE7CC7E2104B8DB28CCD286AA18966E98FA230C73B08C PUSH1 0x40 MLOAD PUSH1 0x40 MLOAD DUP1 SWAP2 SUB SWAP1 LOG2 POP PUSH2 0x13AF PUSH2 0x162B JUMP JUMPDEST POP JUMP JUMPDEST PUSH2 0x13BA PUSH2 0x1634 JUMP JUMPDEST PUSH0 PUSH20 0xFFFFFFFFFFFFFFFFFFFFFFFFFFFFFFFFFFFFFFFF AND DUP2 PUSH20 0xFFFFFFFFFFFFFFFFFFFFFFFFFFFFFFFFFFFFFFFF AND SUB PUSH2 0x142A JUMPI PUSH0 PUSH1 0x40 MLOAD PUSH32 0x1E4FBDF700000000000000000000000000000000000000000000000000000000 DUP2 MSTORE PUSH1 0x4 ADD PUSH2 0x1421 SWAP2 SWAP1 PUSH2 0x1C74 JUMP JUMPDEST PUSH1 0x40 MLOAD DUP1 SWAP2 SUB SWAP1 REVERT JUMPDEST PUSH2 0x1433 DUP2 PUSH2 0x16BB JUMP JUMPDEST POP JUMP JUMPDEST PUSH1 0x2 PUSH1 0x20 MSTORE DUP1 PUSH0 MSTORE PUSH1 0x40 PUSH0 KECCAK256 PUSH0 SWAP2 POP SLOAD SWAP1 PUSH2 0x100 EXP SWAP1 DIV PUSH1 0xFF AND DUP2 JUMP JUMPDEST PUSH2 0x145B PUSH2 0x1634 JUMP JUMPDEST PUSH2 0x1463 PUSH2 0x15DC JUMP JUMPDEST PUSH0 PUSH20 0xFFFFFFFFFFFFFFFFFFFFFFFFFFFFFFFFFFFFFFFF AND DUP4 PUSH20 0xFFFFFFFFFFFFFFFFFFFFFFFFFFFFFFFFFFFFFFFF AND SUB PUSH2 0x14D1 JUMPI PUSH1 0x40 MLOAD PUSH32 0x8C379A000000000000000000000000000000000000000000000000000000000 DUP2 MSTORE PUSH1 0x4 ADD PUSH2 0x14C8 SWAP1 PUSH2 0x27A6 JUMP JUMPDEST PUSH1 0x40 MLOAD DUP1 SWAP2 SUB SWAP1 REVERT JUMPDEST PUSH0 PUSH20 0xFFFFFFFFFFFFFFFFFFFFFFFFFFFFFFFFFFFFFFFF AND DUP3 PUSH20 0xFFFFFFFFFFFFFFFFFFFFFFFFFFFFFFFFFFFFFFFF AND SUB PUSH2 0x153F JUMPI PUSH1 0x40 MLOAD PUSH32 0x8C379A000000000000000000000000000000000000000000000000000000000 DUP2 MSTORE PUSH1 0x4 ADD PUSH2 0x1536 SWAP1 PUSH2 0x280E JUMP JUMPDEST PUSH1 0x40 MLOAD DUP1 SWAP2 SUB SWAP1 REVERT JUMPDEST PUSH2 0x156A DUP3 DUP3 DUP6 PUSH20 0xFFFFFFFFFFFFFFFFFFFFFFFFFFFFFFFFFFFFFFFF AND PUSH2 0x177C SWAP1 SWAP3 SWAP2 SWAP1 PUSH4 0xFFFFFFFF AND JUMP JUMPDEST DUP2 PUSH20 0xFFFFFFFFFFFFFFFFFFFFFFFFFFFFFFFFFFFFFFFF AND DUP4 PUSH20 0xFFFFFFFFFFFFFFFFFFFFFFFFFFFFFFFFFFFFFFFF AND PUSH32 0x9C8515990FD8C61431C4AC8DB9B81475F90C292A1DDA77731E56C22E64FC7643 DUP4 PUSH1 0x40 MLOAD PUSH2 0x15C7 SWAP2 SWAP1 PUSH2 0x18B5 JUMP JUMPDEST PUSH1 0x40 MLOAD DUP1 SWAP2 SUB SWAP1 LOG3 PUSH2 0x15D7 PUSH2 0x162B JUMP JUMPDEST POP POP POP JUMP JUMPDEST PUSH1 0x2 PUSH1 0x1 SLOAD SUB PUSH2 0x1621 JUMPI PUSH1 0x40 MLOAD PUSH32 0x8C379A000000000000000000000000000000000000000000000000000000000 DUP2 MSTORE PUSH1 0x4 ADD PUSH2 0x1618 SWAP1 PUSH2 0x2876 JUMP JUMPDEST PUSH1 0x40 MLOAD DUP1 SWAP2 SUB SWAP1 REVERT JUMPDEST PUSH1 0x2 PUSH1 0x1 DUP2 SWAP1 SSTORE POP JUMP JUMPDEST PUSH1 0x1 DUP1 DUP2 SWAP1 SSTORE POP JUMP JUMPDEST PUSH2 0x163C PUSH2 0x17FB JUMP JUMPDEST PUSH20 0xFFFFFFFFFFFFFFFFFFFFFFFFFFFFFFFFFFFFFFFF AND PUSH2 0x165A PUSH2 0xEC0 JUMP JUMPDEST PUSH20 0xFFFFFFFFFFFFFFFFFFFFFFFFFFFFFFFFFFFFFFFF AND EQ PUSH2 0x16B9 JUMPI PUSH2 0x167D PUSH2 0x17FB JUMP JUMPDEST PUSH1 0x40 MLOAD PUSH32 0x118CDAA700000000000000000000000000000000000000000000000000000000 DUP2 MSTORE PUSH1 0x4 ADD PUSH2 0x16B0 SWAP2 SWAP1 PUSH2 0x1C74 JUMP JUMPDEST PUSH1 0x40 MLOAD DUP1 SWAP2 SUB SWAP1 REVERT JUMPDEST JUMP JUMPDEST PUSH0 DUP1 PUSH0 SWAP1 SLOAD SWAP1 PUSH2 0x100 EXP SWAP1 DIV PUSH20 0xFFFFFFFFFFFFFFFFFFFFFFFFFFFFFFFFFFFFFFFF AND SWAP1 POP DUP2 PUSH0 DUP1 PUSH2 0x100 EXP DUP2 SLOAD DUP2 PUSH20 0xFFFFFFFFFFFFFFFFFFFFFFFFFFFFFFFFFFFFFFFF MUL NOT AND SWAP1 DUP4 PUSH20 0xFFFFFFFFFFFFFFFFFFFFFFFFFFFFFFFFFFFFFFFF AND MUL OR SWAP1 SSTORE POP DUP2 PUSH20 0xFFFFFFFFFFFFFFFFFFFFFFFFFFFFFFFFFFFFFFFF AND DUP2 PUSH20 0xFFFFFFFFFFFFFFFFFFFFFFFFFFFFFFFFFFFFFFFF AND PUSH32 0x8BE0079C531659141344CD1FD0A4F28419497F9722A3DAAFE3B4186F6B6457E0 PUSH1 0x40 MLOAD PUSH1 0x40 MLOAD DUP1 SWAP2 SUB SWAP1 LOG3 POP POP JUMP JUMPDEST PUSH2 0x17F6 DUP4 DUP5 PUSH20 0xFFFFFFFFFFFFFFFFFFFFFFFFFFFFFFFFFFFFFFFF AND PUSH4 0xA9059CBB DUP6 DUP6 PUSH1 0x40 MLOAD PUSH1 0x24 ADD PUSH2 0x17AF SWAP3 SWAP2 SWAP1 PUSH2 0x2894 JUMP JUMPDEST PUSH1 0x40 MLOAD PUSH1 0x20 DUP2 DUP4 SUB SUB DUP2 MSTORE SWAP1 PUSH1 0x40 MSTORE SWAP2 POP PUSH1 0xE0 SHL PUSH1 0x20 DUP3 ADD DUP1 MLOAD PUSH28 0xFFFFFFFFFFFFFFFFFFFFFFFFFFFFFFFFFFFFFFFFFFFFFFFFFFFFFFFF DUP4 DUP2 DUP4 AND OR DUP4 MSTORE POP POP POP POP PUSH2 0x1802 JUMP JUMPDEST POP POP POP JUMP JUMPDEST PUSH0 CALLER SWAP1 POP SWAP1 JUMP JUMPDEST PUSH0 DUP1 PUSH1 0x20 PUSH0 DUP5 MLOAD PUSH1 0x20 DUP7 ADD PUSH0 DUP9 GAS CALL DUP1 PUSH2 0x1821 JUMPI PUSH1 0x40 MLOAD RETURNDATASIZE PUSH0 DUP3 RETURNDATACOPY RETURNDATASIZE DUP2 REVERT JUMPDEST RETURNDATASIZE SWAP3 POP PUSH0 MLOAD SWAP2 POP POP PUSH0 DUP3 EQ PUSH2 0x183A JUMPI PUSH1 0x1 DUP2 EQ ISZERO PUSH2 0x1855 JUMP JUMPDEST PUSH0 DUP5 PUSH20 0xFFFFFFFFFFFFFFFFFFFFFFFFFFFFFFFFFFFFFFFF AND EXTCODESIZE EQ JUMPDEST ISZERO PUSH2 0x1897 JUMPI DUP4 PUSH1 0x40 MLOAD PUSH32 0x5274AFE700000000000000000000000000000000000000000000000000000000 DUP2 MSTORE PUSH1 0x4 ADD PUSH2 0x188E SWAP2 SWAP1 PUSH2 0x1C74 JUMP JUMPDEST PUSH1 0x40 MLOAD DUP1 SWAP2 SUB SWAP1 REVERT JUMPDEST POP POP POP POP JUMP JUMPDEST PUSH0 DUP2 SWAP1 POP SWAP2 SWAP1 POP JUMP JUMPDEST PUSH2 0x18AF DUP2 PUSH2 0x189D JUMP JUMPDEST DUP3 MSTORE POP POP JUMP JUMPDEST PUSH0 PUSH1 0x20 DUP3 ADD SWAP1 POP PUSH2 0x18C8 PUSH0 DUP4 ADD DUP5 PUSH2 0x18A6 JUMP JUMPDEST SWAP3 SWAP2 POP POP JUMP JUMPDEST PUSH0 DUP1 REVERT JUMPDEST PUSH0 DUP1 REVERT JUMPDEST PUSH2 0x18DF DUP2 PUSH2 0x189D JUMP JUMPDEST DUP2 EQ PUSH2 0x18E9 JUMPI PUSH0 DUP1 REVERT JUMPDEST POP JUMP JUMPDEST PUSH0 DUP2 CALLDATALOAD SWAP1 POP PUSH2 0x18FA DUP2 PUSH2 0x18D6 JUMP JUMPDEST SWAP3 SWAP2 POP POP JUMP JUMPDEST PUSH0 PUSH1 0x20 DUP3 DUP5 SUB SLT ISZERO PUSH2 0x1915 JUMPI PUSH2 0x1914 PUSH2 0x18CE JUMP JUMPDEST JUMPDEST PUSH0 PUSH2 0x1922 DUP5 DUP3 DUP6 ADD PUSH2 0x18EC JUMP JUMPDEST SWAP2 POP POP SWAP3 SWAP2 POP POP JUMP JUMPDEST PUSH0 DUP2 MLOAD SWAP1 POP SWAP2 SWAP1 POP JUMP JUMPDEST PUSH0 DUP3 DUP3 MSTORE PUSH1 0x20 DUP3 ADD SWAP1 POP SWAP3 SWAP2 POP POP JUMP JUMPDEST PUSH0 JUMPDEST DUP4 DUP2 LT ISZERO PUSH2 0x1962 JUMPI DUP1 DUP3 ADD MLOAD DUP2 DUP5 ADD MSTORE PUSH1 0x20 DUP2 ADD SWAP1 POP PUSH2 0x1947 JUMP JUMPDEST PUSH0 DUP5 DUP5 ADD MSTORE POP POP POP POP JUMP JUMPDEST PUSH0 PUSH1 0x1F NOT PUSH1 0x1F DUP4 ADD AND SWAP1 POP SWAP2 SWAP1 POP JUMP JUMPDEST PUSH0 PUSH2 0x1987 DUP3 PUSH2 0x192B JUMP JUMPDEST PUSH2 0x1991 DUP2 DUP6 PUSH2 0x1935 JUMP JUMPDEST SWAP4 POP PUSH2 0x19A1 DUP2 DUP6 PUSH1 0x20 DUP7 ADD PUSH2 0x1945 JUMP JUMPDEST PUSH2 0x19AA DUP2 PUSH2 0x196D JUMP JUMPDEST DUP5 ADD SWAP2 POP POP SWAP3 SWAP2 POP POP JUMP JUMPDEST PUSH0 PUSH20 0xFFFFFFFFFFFFFFFFFFFFFFFFFFFFFFFFFFFFFFFF DUP3 AND SWAP1 POP SWAP2 SWAP1 POP JUMP JUMPDEST PUSH0 PUSH2 0x19DE DUP3 PUSH2 0x19B5 JUMP JUMPDEST SWAP1 POP SWAP2 SWAP1 POP JUMP JUMPDEST PUSH2 0x19EE DUP2 PUSH2 0x19D4 JUMP JUMPDEST DUP3 MSTORE POP POP JUMP JUMPDEST PUSH0 DUP2 ISZERO ISZERO SWAP1 POP SWAP2 SWAP1 POP JUMP JUMPDEST PUSH2 0x1A08 DUP2 PUSH2 0x19F4 JUMP JUMPDEST DUP3 MSTORE POP POP JUMP JUMPDEST PUSH0 PUSH2 0x100 DUP3 ADD SWAP1 POP PUSH2 0x1A22 PUSH0 DUP4 ADD DUP12 PUSH2 0x18A6 JUMP JUMPDEST DUP2 DUP2 SUB PUSH1 0x20 DUP4 ADD MSTORE PUSH2 0x1A34 DUP2 DUP11 PUSH2 0x197D JUMP JUMPDEST SWAP1 POP PUSH2 0x1A43 PUSH1 0x40 DUP4 ADD DUP10 PUSH2 0x19E5 JUMP JUMPDEST PUSH2 0x1A50 PUSH1 0x60 DUP4 ADD DUP9 PUSH2 0x18A6 JUMP JUMPDEST PUSH2 0x1A5D PUSH1 0x80 DUP4 ADD DUP8 PUSH2 0x18A6 JUMP JUMPDEST PUSH2 0x1A6A PUSH1 0xA0 DUP4 ADD DUP7 PUSH2 0x18A6 JUMP JUMPDEST PUSH2 0x1A77 PUSH1 0xC0 DUP4 ADD DUP6 PUSH2 0x19FF JUMP JUMPDEST PUSH2 0x1A84 PUSH1 0xE0 DUP4 ADD DUP5 PUSH2 0x19FF JUMP JUMPDEST SWAP10 SWAP9 POP POP POP POP POP POP POP POP POP JUMP JUMPDEST PUSH0 DUP2 MLOAD SWAP1 POP SWAP2 SWAP1 POP JUMP JUMPDEST PUSH0 DUP3 DUP3 MSTORE PUSH1 0x20 DUP3 ADD SWAP1 POP SWAP3 SWAP2 POP POP JUMP JUMPDEST PUSH0 PUSH2 0x1AB5 DUP3 PUSH2 0x1A91 JUMP JUMPDEST PUSH2 0x1ABF DUP2 DUP6 PUSH2 0x1A9B JUMP JUMPDEST SWAP4 POP PUSH2 0x1ACF DUP2 DUP6 PUSH1 0x20 DUP7 ADD PUSH2 0x1945 JUMP JUMPDEST PUSH2 0x1AD8 DUP2 PUSH2 0x196D JUMP JUMPDEST DUP5 ADD SWAP2 POP POP SWAP3 SWAP2 POP POP JUMP JUMPDEST PUSH0 PUSH1 0x20 DUP3 ADD SWAP1 POP DUP2 DUP2 SUB PUSH0 DUP4 ADD MSTORE PUSH2 0x1AFB DUP2 DUP5 PUSH2 0x1AAB JUMP JUMPDEST SWAP1 POP SWAP3 SWAP2 POP POP JUMP JUMPDEST PUSH0 PUSH2 0x1B0D DUP3 PUSH2 0x19B5 JUMP JUMPDEST SWAP1 POP SWAP2 SWAP1 POP JUMP JUMPDEST PUSH2 0x1B1D DUP2 PUSH2 0x1B03 JUMP JUMPDEST DUP2 EQ PUSH2 0x1B27 JUMPI PUSH0 DUP1 REVERT JUMPDEST POP JUMP JUMPDEST PUSH0 DUP2 CALLDATALOAD SWAP1 POP PUSH2 0x1B38 DUP2 PUSH2 0x1B14 JUMP JUMPDEST SWAP3 SWAP2 POP POP JUMP JUMPDEST PUSH0 PUSH1 0x20 DUP3 DUP5 SUB SLT ISZERO PUSH2 0x1B53 JUMPI PUSH2 0x1B52 PUSH2 0x18CE JUMP JUMPDEST JUMPDEST PUSH0 PUSH2 0x1B60 DUP5 DUP3 DUP6 ADD PUSH2 0x1B2A JUMP JUMPDEST SWAP2 POP POP SWAP3 SWAP2 POP POP JUMP JUMPDEST PUSH0 DUP1 REVERT JUMPDEST PUSH0 DUP1 REVERT JUMPDEST PUSH0 DUP1 REVERT JUMPDEST PUSH0 DUP1 DUP4 PUSH1 0x1F DUP5 ADD SLT PUSH2 0x1B8A JUMPI PUSH2 0x1B89 PUSH2 0x1B69 JUMP JUMPDEST JUMPDEST DUP3 CALLDATALOAD SWAP1 POP PUSH8 0xFFFFFFFFFFFFFFFF DUP2 GT ISZERO PUSH2 0x1BA7 JUMPI PUSH2 0x1BA6 PUSH2 0x1B6D JUMP JUMPDEST JUMPDEST PUSH1 0x20 DUP4 ADD SWAP2 POP DUP4 PUSH1 0x1 DUP3 MUL DUP4 ADD GT ISZERO PUSH2 0x1BC3 JUMPI PUSH2 0x1BC2 PUSH2 0x1B71 JUMP JUMPDEST JUMPDEST SWAP3 POP SWAP3 SWAP1 POP JUMP JUMPDEST PUSH2 0x1BD3 DUP2 PUSH2 0x19D4 JUMP JUMPDEST DUP2 EQ PUSH2 0x1BDD JUMPI PUSH0 DUP1 REVERT JUMPDEST POP JUMP JUMPDEST PUSH0 DUP2 CALLDATALOAD SWAP1 POP PUSH2 0x1BEE DUP2 PUSH2 0x1BCA JUMP JUMPDEST SWAP3 SWAP2 POP POP JUMP JUMPDEST PUSH0 DUP1 PUSH0 DUP1 PUSH1 0x60 DUP6 DUP8 SUB SLT ISZERO PUSH2 0x1C0C JUMPI PUSH2 0x1C0B PUSH2 0x18CE JUMP JUMPDEST JUMPDEST PUSH0 DUP6 ADD CALLDATALOAD PUSH8 0xFFFFFFFFFFFFFFFF DUP2 GT ISZERO PUSH2 0x1C29 JUMPI PUSH2 0x1C28 PUSH2 0x18D2 JUMP JUMPDEST JUMPDEST PUSH2 0x1C35 DUP8 DUP3 DUP9 ADD PUSH2 0x1B75 JUMP JUMPDEST SWAP5 POP SWAP5 POP POP PUSH1 0x20 PUSH2 0x1C48 DUP8 DUP3 DUP9 ADD PUSH2 0x1BE0 JUMP JUMPDEST SWAP3 POP POP PUSH1 0x40 PUSH2 0x1C59 DUP8 DUP3 DUP9 ADD PUSH2 0x18EC JUMP JUMPDEST SWAP2 POP POP SWAP3 SWAP6 SWAP2 SWAP5 POP SWAP3 POP JUMP JUMPDEST PUSH2 0x1C6E DUP2 PUSH2 0x1B03 JUMP JUMPDEST DUP3 MSTORE POP POP JUMP JUMPDEST PUSH0 PUSH1 0x20 DUP3 ADD SWAP1 POP PUSH2 0x1C87 PUSH0 DUP4 ADD DUP5 PUSH2 0x1C65 JUMP JUMPDEST SWAP3 SWAP2 POP POP JUMP JUMPDEST PUSH0 PUSH1 0x20 DUP3 ADD SWAP1 POP PUSH2 0x1CA0 PUSH0 DUP4 ADD DUP5 PUSH2 0x19FF JUMP JUMPDEST SWAP3 SWAP2 POP POP JUMP JUMPDEST PUSH0 PUSH2 0x1CB0 DUP3 PUSH2 0x1B03 JUMP JUMPDEST SWAP1 POP SWAP2 SWAP1 POP JUMP JUMPDEST PUSH2 0x1CC0 DUP2 PUSH2 0x1CA6 JUMP JUMPDEST DUP2 EQ PUSH2 0x1CCA JUMPI PUSH0 DUP1 REVERT JUMPDEST POP JUMP JUMPDEST PUSH0 DUP2 CALLDATALOAD SWAP1 POP PUSH2 0x1CDB DUP2 PUSH2 0x1CB7 JUMP JUMPDEST SWAP3 SWAP2 POP POP JUMP JUMPDEST PUSH0 DUP1 PUSH0 PUSH1 0x60 DUP5 DUP7 SUB SLT ISZERO PUSH2 0x1CF8 JUMPI PUSH2 0x1CF7 PUSH2 0x18CE JUMP JUMPDEST JUMPDEST PUSH0 PUSH2 0x1D05 DUP7 DUP3 DUP8 ADD PUSH2 0x1CCD JUMP JUMPDEST SWAP4 POP POP PUSH1 0x20 PUSH2 0x1D16 DUP7 DUP3 DUP8 ADD PUSH2 0x1B2A JUMP JUMPDEST SWAP3 POP POP PUSH1 0x40 PUSH2 0x1D27 DUP7 DUP3 DUP8 ADD PUSH2 0x18EC JUMP JUMPDEST SWAP2 POP POP SWAP3 POP SWAP3 POP SWAP3 JUMP JUMPDEST PUSH32 0x4E487B7100000000000000000000000000000000000000000000000000000000 PUSH0 MSTORE PUSH1 0x22 PUSH1 0x4 MSTORE PUSH1 0x24 PUSH0 REVERT JUMPDEST PUSH0 PUSH1 0x2 DUP3 DIV SWAP1 POP PUSH1 0x1 DUP3 AND DUP1 PUSH2 0x1D75 JUMPI PUSH1 0x7F DUP3 AND SWAP2 POP JUMPDEST PUSH1 0x20 DUP3 LT DUP2 SUB PUSH2 0x1D88 JUMPI PUSH2 0x1D87 PUSH2 0x1D31 JUMP JUMPDEST JUMPDEST POP SWAP2 SWAP1 POP JUMP JUMPDEST PUSH32 0x4E6F7420617574686F72697A6564000000000000000000000000000000000000 PUSH0 DUP3 ADD MSTORE POP JUMP JUMPDEST PUSH0 PUSH2 0x1DC2 PUSH1 0xE DUP4 PUSH2 0x1935 JUMP JUMPDEST SWAP2 POP PUSH2 0x1DCD DUP3 PUSH2 0x1D8E JUMP JUMPDEST PUSH1 0x20 DUP3 ADD SWAP1 POP SWAP2 SWAP1 POP JUMP JUMPDEST PUSH0 PUSH1 0x20 DUP3 ADD SWAP1 POP DUP2 DUP2 SUB PUSH0 DUP4 ADD MSTORE PUSH2 0x1DEF DUP2 PUSH2 0x1DB6 JUMP JUMPDEST SWAP1 POP SWAP2 SWAP1 POP JUMP JUMPDEST PUSH32 0x50726F706F73616C20646F6573206E6F74206578697374000000000000000000 PUSH0 DUP3 ADD MSTORE POP JUMP JUMPDEST PUSH0 PUSH2 0x1E2A PUSH1 0x17 DUP4 PUSH2 0x1935 JUMP JUMPDEST SWAP2 POP PUSH2 0x1E35 DUP3 PUSH2 0x1DF6 JUMP JUMPDEST PUSH1 0x20 DUP3 ADD SWAP1 POP SWAP2 SWAP1 POP JUMP JUMPDEST PUSH0 PUSH1 0x20 DUP3 ADD SWAP1 POP DUP2 DUP2 SUB PUSH0 DUP4 ADD MSTORE PUSH2 0x1E57 DUP2 PUSH2 0x1E1E JUMP JUMPDEST SWAP1 POP SWAP2 SWAP1 POP JUMP JUMPDEST PUSH32 0x50726F706F73616C20616C726561647920657865637574656400000000000000 PUSH0 DUP3 ADD MSTORE POP JUMP JUMPDEST PUSH0 PUSH2 0x1E92 PUSH1 0x19 DUP4 PUSH2 0x1935 JUMP JUMPDEST SWAP2 POP PUSH2 0x1E9D DUP3 PUSH2 0x1E5E JUMP JUMPDEST PUSH1 0x20 DUP3 ADD SWAP1 POP SWAP2 SWAP1 POP JUMP JUMPDEST PUSH0 PUSH1 0x20 DUP3 ADD SWAP1 POP DUP2 DUP2 SUB PUSH0 DUP4 ADD MSTORE PUSH2 0x1EBF DUP2 PUSH2 0x1E86 JUMP JUMPDEST SWAP1 POP SWAP2 SWAP1 POP JUMP JUMPDEST PUSH32 0x50726F706F73616C2063616E63656C6C65640000000000000000000000000000 PUSH0 DUP3 ADD MSTORE POP JUMP JUMPDEST PUSH0 PUSH2 0x1EFA PUSH1 0x12 DUP4 PUSH2 0x1935 JUMP JUMPDEST SWAP2 POP PUSH2 0x1F05 DUP3 PUSH2 0x1EC6 JUMP JUMPDEST PUSH1 0x20 DUP3 ADD SWAP1 POP SWAP2 SWAP1 POP JUMP JUMPDEST PUSH0 PUSH1 0x20 DUP3 ADD SWAP1 POP DUP2 DUP2 SUB PUSH0 DUP4 ADD MSTORE PUSH2 0x1F27 DUP2 PUSH2 0x1EEE JUMP JUMPDEST SWAP1 POP SWAP2 SWAP1 POP JUMP JUMPDEST PUSH32 0x54696D656C6F636B206E6F742065787069726564000000000000000000000000 PUSH0 DUP3 ADD MSTORE POP JUMP JUMPDEST PUSH0 PUSH2 0x1F62 PUSH1 0x14 DUP4 PUSH2 0x1935 JUMP JUMPDEST SWAP2 POP PUSH2 0x1F6D DUP3 PUSH2 0x1F2E JUMP JUMPDEST PUSH1 0x20 DUP3 ADD SWAP1 POP SWAP2 SWAP1 POP JUMP JUMPDEST PUSH0 PUSH1 0x20 DUP3 ADD SWAP1 POP DUP2 DUP2 SUB PUSH0 DUP4 ADD MSTORE PUSH2 0x1F8F DUP2 PUSH2 0x1F56 JUMP JUMPDEST SWAP1 POP SWAP2 SWAP1 POP JUMP JUMPDEST PUSH0 DUP2 SWAP1 POP SWAP3 SWAP2 POP POP JUMP JUMPDEST POP JUMP JUMPDEST PUSH0 PUSH2 0x1FAE PUSH0 DUP4 PUSH2 0x1F96 JUMP JUMPDEST SWAP2 POP PUSH2 0x1FB9 DUP3 PUSH2 0x1FA0 JUMP JUMPDEST PUSH0 DUP3 ADD SWAP1 POP SWAP2 SWAP1 POP JUMP JUMPDEST PUSH0 PUSH2 0x1FCD DUP3 PUSH2 0x1FA3 JUMP JUMPDEST SWAP2 POP DUP2 SWAP1 POP SWAP2 SWAP1 POP JUMP JUMPDEST PUSH32 0x46756E64207472616E73666572206661696C6564000000000000000000000000 PUSH0 DUP3 ADD MSTORE POP JUMP JUMPDEST PUSH0 PUSH2 0x200B PUSH1 0x14 DUP4 PUSH2 0x1935 JUMP JUMPDEST SWAP2 POP PUSH2 0x2016 DUP3 PUSH2 0x1FD7 JUMP JUMPDEST PUSH1 0x20 DUP3 ADD SWAP1 POP SWAP2 SWAP1 POP JUMP JUMPDEST PUSH0 PUSH1 0x20 DUP3 ADD SWAP1 POP DUP2 DUP2 SUB PUSH0 DUP4 ADD MSTORE PUSH2 0x2038 DUP2 PUSH2 0x1FFF JUMP JUMPDEST SWAP1 POP SWAP2 SWAP1 POP JUMP JUMPDEST PUSH32 0x496E76616C696420616464726573730000000000000000000000000000000000 PUSH0 DUP3 ADD MSTORE POP JUMP JUMPDEST PUSH0 PUSH2 0x2073 PUSH1 0xF DUP4 PUSH2 0x1935 JUMP JUMPDEST SWAP2 POP PUSH2 0x207E DUP3 PUSH2 0x203F JUMP JUMPDEST PUSH1 0x20 DUP3 ADD SWAP1 POP SWAP2 SWAP1 POP JUMP JUMPDEST PUSH0 PUSH1 0x20 DUP3 ADD SWAP1 POP DUP2 DUP2 SUB PUSH0 DUP4 ADD MSTORE PUSH2 0x20A0 DUP2 PUSH2 0x2067 JUMP JUMPDEST SWAP1 POP SWAP2 SWAP1 POP JUMP JUMPDEST PUSH32 0x416C72656164792061206D616E61676572000000000000000000000000000000 PUSH0 DUP3 ADD MSTORE POP JUMP JUMPDEST PUSH0 PUSH2 0x20DB PUSH1 0x11 DUP4 PUSH2 0x1935 JUMP JUMPDEST SWAP2 POP PUSH2 0x20E6 DUP3 PUSH2 0x20A7 JUMP JUMPDEST PUSH1 0x20 DUP3 ADD SWAP1 POP SWAP2 SWAP1 POP JUMP JUMPDEST PUSH0 PUSH1 0x20 DUP3 ADD SWAP1 POP DUP2 DUP2 SUB PUSH0 DUP4 ADD MSTORE PUSH2 0x2108 DUP2 PUSH2 0x20CF JUMP JUMPDEST SWAP1 POP SWAP2 SWAP1 POP JUMP JUMPDEST PUSH32 0x496E76616C696420726563697069656E74000000000000000000000000000000 PUSH0 DUP3 ADD MSTORE POP JUMP JUMPDEST PUSH0 PUSH2 0x2143 PUSH1 0x11 DUP4 PUSH2 0x1935 JUMP JUMPDEST SWAP2 POP PUSH2 0x214E DUP3 PUSH2 0x210F JUMP JUMPDEST PUSH1 0x20 DUP3 ADD SWAP1 POP SWAP2 SWAP1 POP JUMP JUMPDEST PUSH0 PUSH1 0x20 DUP3 ADD SWAP1 POP DUP2 DUP2 SUB PUSH0 DUP4 ADD MSTORE PUSH2 0x2170 DUP2 PUSH2 0x2137 JUMP JUMPDEST SWAP1 POP SWAP2 SWAP1 POP JUMP JUMPDEST PUSH32 0x416D6F756E74206D757374206265203E20300000000000000000000000000000 PUSH0 DUP3 ADD MSTORE POP JUMP JUMPDEST PUSH0 PUSH2 0x21AB PUSH1 0x12 DUP4 PUSH2 0x1935 JUMP JUMPDEST SWAP2 POP PUSH2 0x21B6 DUP3 PUSH2 0x2177 JUMP JUMPDEST PUSH1 0x20 DUP3 ADD SWAP1 POP SWAP2 SWAP1 POP JUMP JUMPDEST PUSH0 PUSH1 0x20 DUP3 ADD SWAP1 POP DUP2 DUP2 SUB PUSH0 DUP4 ADD MSTORE PUSH2 0x21D8 DUP2 PUSH2 0x219F JUMP JUMPDEST SWAP1 POP SWAP2 SWAP1 POP JUMP JUMPDEST PUSH32 0x496E73756666696369656E742074726561737572792062616C616E6365000000 PUSH0 DUP3 ADD MSTORE POP JUMP JUMPDEST PUSH0 PUSH2 0x2213 PUSH1 0x1D DUP4 PUSH2 0x1935 JUMP JUMPDEST SWAP2 POP PUSH2 0x221E DUP3 PUSH2 0x21DF JUMP JUMPDEST PUSH1 0x20 DUP3 ADD SWAP1 POP SWAP2 SWAP1 POP JUMP JUMPDEST PUSH0 PUSH1 0x20 DUP3 ADD SWAP1 POP DUP2 DUP2 SUB PUSH0 DUP4 ADD MSTORE PUSH2 0x2240 DUP2 PUSH2 0x2207 JUMP JUMPDEST SWAP1 POP SWAP2 SWAP1 POP JUMP JUMPDEST PUSH32 0x4E487B7100000000000000000000000000000000000000000000000000000000 PUSH0 MSTORE PUSH1 0x11 PUSH1 0x4 MSTORE PUSH1 0x24 PUSH0 REVERT JUMPDEST PUSH0 PUSH2 0x227E DUP3 PUSH2 0x189D JUMP JUMPDEST SWAP2 POP PUSH32 0xFFFFFFFFFFFFFFFFFFFFFFFFFFFFFFFFFFFFFFFFFFFFFFFFFFFFFFFFFFFFFFFF DUP3 SUB PUSH2 0x22B0 JUMPI PUSH2 0x22AF PUSH2 0x2247 JUMP JUMPDEST JUMPDEST PUSH1 0x1 DUP3 ADD SWAP1 POP SWAP2 SWAP1 POP JUMP JUMPDEST PUSH0 PUSH2 0x22C5 DUP3 PUSH2 0x189D JUMP JUMPDEST SWAP2 POP PUSH2 0x22D0 DUP4 PUSH2 0x189D JUMP JUMPDEST SWAP3 POP DUP3 DUP3 ADD SWAP1 POP DUP1 DUP3 GT ISZERO PUSH2 0x22E8 JUMPI PUSH2 0x22E7 PUSH2 0x2247 JUMP JUMPDEST JUMPDEST SWAP3 SWAP2 POP POP JUMP JUMPDEST PUSH32 0x4E487B7100000000000000000000000000000000000000000000000000000000 PUSH0 MSTORE PUSH1 0x41 PUSH1 0x4 MSTORE PUSH1 0x24 PUSH0 REVERT JUMPDEST PUSH0 DUP2 SWAP1 POP DUP2 PUSH0 MSTORE PUSH1 0x20 PUSH0 KECCAK256 SWAP1 POP SWAP2 SWAP1 POP JUMP JUMPDEST PUSH0 PUSH1 0x20 PUSH1 0x1F DUP4 ADD DIV SWAP1 POP SWAP2 SWAP1 POP JUMP JUMPDEST PUSH0 DUP3 DUP3 SHL SWAP1 POP SWAP3 SWAP2 POP POP JUMP JUMPDEST PUSH0 PUSH1 0x8 DUP4 MUL PUSH2 0x2377 PUSH32 0xFFFFFFFFFFFFFFFFFFFFFFFFFFFFFFFFFFFFFFFFFFFFFFFFFFFFFFFFFFFFFFFF DUP3 PUSH2 0x233C JUMP JUMPDEST PUSH2 0x2381 DUP7 DUP4 PUSH2 0x233C JUMP JUMPDEST SWAP6 POP DUP1 NOT DUP5 AND SWAP4 POP DUP1 DUP7 AND DUP5 OR SWAP3 POP POP POP SWAP4 SWAP3 POP POP POP JUMP JUMPDEST PUSH0 DUP2 SWAP1 POP SWAP2 SWAP1 POP JUMP JUMPDEST PUSH0 PUSH2 0x23BC PUSH2 0x23B7 PUSH2 0x23B2 DUP5 PUSH2 0x189D JUMP JUMPDEST PUSH2 0x2399 JUMP JUMPDEST PUSH2 0x189D JUMP JUMPDEST SWAP1 POP SWAP2 SWAP1 POP JUMP JUMPDEST PUSH0 DUP2 SWAP1 POP SWAP2 SWAP1 POP JUMP JUMPDEST PUSH2 0x23D5 DUP4 PUSH2 0x23A2 JUMP JUMPDEST PUSH2 0x23E9 PUSH2 0x23E1 DUP3 PUSH2 0x23C3 JUMP JUMPDEST DUP5 DUP5 SLOAD PUSH2 0x2348 JUMP JUMPDEST DUP3 SSTORE POP POP POP POP JUMP JUMPDEST PUSH0 SWAP1 JUMP JUMPDEST PUSH2 0x23FD PUSH2 0x23F1 JUMP JUMPDEST PUSH2 0x2408 DUP2 DUP5 DUP5 PUSH2 0x23CC JUMP JUMPDEST POP POP POP JUMP JUMPDEST JUMPDEST DUP2 DUP2 LT ISZERO PUSH2 0x242B JUMPI PUSH2 0x2420 PUSH0 DUP3 PUSH2 0x23F5 JUMP JUMPDEST PUSH1 0x1 DUP2 ADD SWAP1 POP PUSH2 0x240E JUMP JUMPDEST POP POP JUMP JUMPDEST PUSH1 0x1F DUP3 GT ISZERO PUSH2 0x2470 JUMPI PUSH2 0x2441 DUP2 PUSH2 0x231B JUMP JUMPDEST PUSH2 0x244A DUP5 PUSH2 0x232D JUMP JUMPDEST DUP2 ADD PUSH1 0x20 DUP6 LT ISZERO PUSH2 0x2459 JUMPI DUP2 SWAP1 POP JUMPDEST PUSH2 0x246D PUSH2 0x2465 DUP6 PUSH2 0x232D JUMP JUMPDEST DUP4 ADD DUP3 PUSH2 0x240D JUMP JUMPDEST POP POP JUMPDEST POP POP POP JUMP JUMPDEST PUSH0 DUP3 DUP3 SHR SWAP1 POP SWAP3 SWAP2 POP POP JUMP JUMPDEST PUSH0 PUSH2 0x2490 PUSH0 NOT DUP5 PUSH1 0x8 MUL PUSH2 0x2475 JUMP JUMPDEST NOT DUP1 DUP4 AND SWAP2 POP POP SWAP3 SWAP2 POP POP JUMP JUMPDEST PUSH0 PUSH2 0x24A8 DUP4 DUP4 PUSH2 0x2481 JUMP JUMPDEST SWAP2 POP DUP3 PUSH1 0x2 MUL DUP3 OR SWAP1 POP SWAP3 SWAP2 POP POP JUMP JUMPDEST PUSH2 0x24C1 DUP3 PUSH2 0x192B JUMP JUMPDEST PUSH8 0xFFFFFFFFFFFFFFFF DUP2 GT ISZERO PUSH2 0x24DA JUMPI PUSH2 0x24D9 PUSH2 0x22EE JUMP JUMPDEST JUMPDEST PUSH2 0x24E4 DUP3 SLOAD PUSH2 0x1D5E JUMP JUMPDEST PUSH2 0x24EF DUP3 DUP3 DUP6 PUSH2 0x242F JUMP JUMPDEST PUSH0 PUSH1 0x20 SWAP1 POP PUSH1 0x1F DUP4 GT PUSH1 0x1 DUP2 EQ PUSH2 0x2520 JUMPI PUSH0 DUP5 ISZERO PUSH2 0x250E JUMPI DUP3 DUP8 ADD MLOAD SWAP1 POP JUMPDEST PUSH2 0x2518 DUP6 DUP3 PUSH2 0x249D JUMP JUMPDEST DUP7 SSTORE POP PUSH2 0x257F JUMP JUMPDEST PUSH1 0x1F NOT DUP5 AND PUSH2 0x252E DUP7 PUSH2 0x231B JUMP JUMPDEST PUSH0 JUMPDEST DUP3 DUP2 LT ISZERO PUSH2 0x2555 JUMPI DUP5 DUP10 ADD MLOAD DUP3 SSTORE PUSH1 0x1 DUP3 ADD SWAP2 POP PUSH1 0x20 DUP6 ADD SWAP5 POP PUSH1 0x20 DUP2 ADD SWAP1 POP PUSH2 0x2530 JUMP JUMPDEST DUP7 DUP4 LT ISZERO PUSH2 0x2572 JUMPI DUP5 DUP10 ADD MLOAD PUSH2 0x256E PUSH1 0x1F DUP10 AND DUP3 PUSH2 0x2481 JUMP JUMPDEST DUP4 SSTORE POP JUMPDEST PUSH1 0x1 PUSH1 0x2 DUP9 MUL ADD DUP9 SSTORE POP POP POP JUMPDEST POP POP POP POP POP POP JUMP JUMPDEST DUP3 DUP2 DUP4 CALLDATACOPY PUSH0 DUP4 DUP4 ADD MSTORE POP POP POP JUMP JUMPDEST PUSH0 PUSH2 0x25A0 DUP4 DUP6 PUSH2 0x1935 JUMP JUMPDEST SWAP4 POP PUSH2 0x25AD DUP4 DUP6 DUP5 PUSH2 0x2587 JUMP JUMPDEST PUSH2 0x25B6 DUP4 PUSH2 0x196D JUMP JUMPDEST DUP5 ADD SWAP1 POP SWAP4 SWAP3 POP POP POP JUMP JUMPDEST PUSH0 PUSH1 0x60 DUP3 ADD SWAP1 POP DUP2 DUP2 SUB PUSH0 DUP4 ADD MSTORE PUSH2 0x25DA DUP2 DUP7 DUP9 PUSH2 0x2595 JUMP JUMPDEST SWAP1 POP PUSH2 0x25E9 PUSH1 0x20 DUP4 ADD DUP6 PUSH2 0x18A6 JUMP JUMPDEST PUSH2 0x25F6 PUSH1 0x40 DUP4 ADD DUP5 PUSH2 0x18A6 JUMP JUMPDEST SWAP6 SWAP5 POP POP POP POP POP JUMP JUMPDEST PUSH32 0x4E6F742061206D616E6167657200000000000000000000000000000000000000 PUSH0 DUP3 ADD MSTORE POP JUMP JUMPDEST PUSH0 PUSH2 0x2633 PUSH1 0xD DUP4 PUSH2 0x1935 JUMP JUMPDEST SWAP2 POP PUSH2 0x263E DUP3 PUSH2 0x25FF JUMP JUMPDEST PUSH1 0x20 DUP3 ADD SWAP1 POP SWAP2 SWAP1 POP JUMP JUMPDEST PUSH0 PUSH1 0x20 DUP3 ADD SWAP1 POP DUP2 DUP2 SUB PUSH0 DUP4 ADD MSTORE PUSH2 0x2660 DUP2 PUSH2 0x2627 JUMP JUMPDEST SWAP1 POP SWAP2 SWAP1 POP JUMP JUMPDEST PUSH32 0x4E487B7100000000000000000000000000000000000000000000000000000000 PUSH0 MSTORE PUSH1 0x32 PUSH1 0x4 MSTORE PUSH1 0x24 PUSH0 REVERT JUMPDEST PUSH0 PUSH2 0x269E DUP3 PUSH2 0x189D JUMP JUMPDEST SWAP2 POP PUSH2 0x26A9 DUP4 PUSH2 0x189D JUMP JUMPDEST SWAP3 POP DUP3 DUP3 SUB SWAP1 POP DUP2 DUP2 GT ISZERO PUSH2 0x26C1 JUMPI PUSH2 0x26C0 PUSH2 0x2247 JUMP JUMPDEST JUMPDEST SWAP3 SWAP2 POP POP JUMP JUMPDEST PUSH32 0x4E487B7100000000000000000000000000000000000000000000000000000000 PUSH0 MSTORE PUSH1 0x31 PUSH1 0x4 MSTORE PUSH1 0x24 PUSH0 REVERT JUMPDEST PUSH32 0x50726F706F73616C20616C72656164792063616E63656C6C6564000000000000 PUSH0 DUP3 ADD MSTORE POP JUMP JUMPDEST PUSH0 PUSH2 0x2728 PUSH1 0x1A DUP4 PUSH2 0x1935 JUMP JUMPDEST SWAP2 POP PUSH2 0x2733 DUP3 PUSH2 0x26F4 JUMP JUMPDEST PUSH1 0x20 DUP3 ADD SWAP1 POP SWAP2 SWAP1 POP JUMP JUMPDEST PUSH0 PUSH1 0x20 DUP3 ADD SWAP1 POP DUP2 DUP2 SUB PUSH0 DUP4 ADD MSTORE PUSH2 0x2755 DUP2 PUSH2 0x271C JUMP JUMPDEST SWAP1 POP SWAP2 SWAP1 POP JUMP JUMPDEST PUSH32 0x496E76616C696420746F6B656E20616464726573730000000000000000000000 PUSH0 DUP3 ADD MSTORE POP JUMP JUMPDEST PUSH0 PUSH2 0x2790 PUSH1 0x15 DUP4 PUSH2 0x1935 JUMP JUMPDEST SWAP2 POP PUSH2 0x279B DUP3 PUSH2 0x275C JUMP JUMPDEST PUSH1 0x20 DUP3 ADD SWAP1 POP SWAP2 SWAP1 POP JUMP JUMPDEST PUSH0 PUSH1 0x20 DUP3 ADD SWAP1 POP DUP2 DUP2 SUB PUSH0 DUP4 ADD MSTORE PUSH2 0x27BD DUP2 PUSH2 0x2784 JUMP JUMPDEST SWAP1 POP SWAP2 SWAP1 POP JUMP JUMPDEST PUSH32 0x496E76616C696420726563697069656E74206164647265737300000000000000 PUSH0 DUP3 ADD MSTORE POP JUMP JUMPDEST PUSH0 PUSH2 0x27F8 PUSH1 0x19 DUP4 PUSH2 0x1935 JUMP JUMPDEST SWAP2 POP PUSH2 0x2803 DUP3 PUSH2 0x27C4 JUMP JUMPDEST PUSH1 0x20 DUP3 ADD SWAP1 POP SWAP2 SWAP1 POP JUMP JUMPDEST PUSH0 PUSH1 0x20 DUP3 ADD SWAP1 POP DUP2 DUP2 SUB PUSH0 DUP4 ADD MSTORE PUSH2 0x2825 DUP2 PUSH2 0x27EC JUMP JUMPDEST SWAP1 POP SWAP2 SWAP1 POP JUMP JUMPDEST PUSH32 0x5265656E7472616E637947756172643A207265656E7472616E742063616C6C00 PUSH0 DUP3 ADD MSTORE POP JUMP JUMPDEST PUSH0 PUSH2 0x2860 PUSH1 0x1F DUP4 PUSH2 0x1935 JUMP JUMPDEST SWAP2 POP PUSH2 0x286B DUP3 PUSH2 0x282C JUMP JUMPDEST PUSH1 0x20 DUP3 ADD SWAP1 POP SWAP2 SWAP1 POP JUMP JUMPDEST PUSH0 PUSH1 0x20 DUP3 ADD SWAP1 POP DUP2 DUP2 SUB PUSH0 DUP4 ADD MSTORE PUSH2 0x288D DUP2 PUSH2 0x2854 JUMP JUMPDEST SWAP1 POP SWAP2 SWAP1 POP JUMP JUMPDEST PUSH0 PUSH1 0x40 DUP3 ADD SWAP1 POP PUSH2 0x28A7 PUSH0 DUP4 ADD DUP6 PUSH2 0x1C65 JUMP JUMPDEST PUSH2 0x28B4 PUSH1 0x20 DUP4 ADD DUP5 PUSH2 0x18A6 JUMP JUMPDEST SWAP4 SWAP3 POP POP POP JUMP INVALID LOG2 PUSH5 0x6970667358 0x22 SLT KECCAK256 NUMBER 0xF7 0xAF 0xB6 0x4A 0xC6 DUP4 DUP4 SELFBALANCE 0xC0 SELFDESTRUCT 0xC4 0xC6 0x4F SWAP11 0xCF PUSH0 SWAP16 0xB0 PUSH1 0x34 0xAA MSIZE PUSH11 0xCDFBE1FC13FC906B64736F PUSH13 0x63430008140033000000000000 "
				},
				"gasEstimates": {
					"creation": {
						"codeDepositCost": "2096200",
						"executionCost": "infinite",
						"totalCost": "infinite"
					},
					"external": {
						"": "1744",
						"TIMELOCK()": "348",
						"addManager(address)": "infinite",
						"cancelProposal(uint256)": "83336",
						"executeProposal(uint256)": "infinite",
						"isManager(address)": "2899",
						"managers(uint256)": "5011",
						"nextProposalId()": "2493",
						"owner()": "2560",
						"proposals(uint256)": "infinite",
						"proposeExpenditure(string,address,uint256)": "infinite",
						"removeManager(address)": "infinite",
						"renounceOwnership()": "infinite",
						"transferOwnership(address)": "infinite",
						"transferToken(address,address,uint256)": "infinite"
					}
				},
				"methodIdentifiers": {
					"TIMELOCK()": "7aadef8b",
					"addManager(address)": "2d06177a",
					"cancelProposal(uint256)": "e0a8f6f5",
					"executeProposal(uint256)": "0d61b519",
					"isManager(address)": "f3ae2415",
					"managers(uint256)": "3d39c260",
					"nextProposalId()": "2ab09d14",
					"owner()": "8da5cb5b",
					"proposals(uint256)": "013cf08b",
					"proposeExpenditure(string,address,uint256)": "3c8c3148",
					"removeManager(address)": "ac18de43",
					"renounceOwnership()": "715018a6",
					"transferOwnership(address)": "f2fde38b",
					"transferToken(address,address,uint256)": "f5537ede"
				}
			},
			"storageLayout": {
				"storage": [
					{
						"astId": 8,
						"contract": "C/corporate treasury.sol:CorporateTreasury",
						"label": "_owner",
						"offset": 0,
						"slot": "0",
						"type": "t_address"
					},
					{
						"astId": 248,
						"contract": "C/corporate treasury.sol:CorporateTreasury",
						"label": "_status",
						"offset": 0,
						"slot": "1",
						"type": "t_uint256"
					},
					{
						"astId": 850,
						"contract": "C/corporate treasury.sol:CorporateTreasury",
						"label": "isManager",
						"offset": 0,
						"slot": "2",
						"type": "t_mapping(t_address,t_bool)"
					},
					{
						"astId": 853,
						"contract": "C/corporate treasury.sol:CorporateTreasury",
						"label": "managers",
						"offset": 0,
						"slot": "3",
						"type": "t_array(t_address)dyn_storage"
					},
					{
						"astId": 872,
						"contract": "C/corporate treasury.sol:CorporateTreasury",
						"label": "nextProposalId",
						"offset": 0,
						"slot": "4",
						"type": "t_uint256"
					},
					{
						"astId": 877,
						"contract": "C/corporate treasury.sol:CorporateTreasury",
						"label": "proposals",
						"offset": 0,
						"slot": "5",
						"type": "t_mapping(t_uint256,t_struct(SpendingProposal)870_storage)"
					}
				],
				"types": {
					"t_address": {
						"encoding": "inplace",
						"label": "address",
						"numberOfBytes": "20"
					},
					"t_address_payable": {
						"encoding": "inplace",
						"label": "address payable",
						"numberOfBytes": "20"
					},
					"t_array(t_address)dyn_storage": {
						"base": "t_address",
						"encoding": "dynamic_array",
						"label": "address[]",
						"numberOfBytes": "32"
					},
					"t_bool": {
						"encoding": "inplace",
						"label": "bool",
						"numberOfBytes": "1"
					},
					"t_mapping(t_address,t_bool)": {
						"encoding": "mapping",
						"key": "t_address",
						"label": "mapping(address => bool)",
						"numberOfBytes": "32",
						"value": "t_bool"
					},
					"t_mapping(t_uint256,t_struct(SpendingProposal)870_storage)": {
						"encoding": "mapping",
						"key": "t_uint256",
						"label": "mapping(uint256 => struct CorporateTreasury.SpendingProposal)",
						"numberOfBytes": "32",
						"value": "t_struct(SpendingProposal)870_storage"
					},
					"t_string_storage": {
						"encoding": "bytes",
						"label": "string",
						"numberOfBytes": "32"
					},
					"t_struct(SpendingProposal)870_storage": {
						"encoding": "inplace",
						"label": "struct CorporateTreasury.SpendingProposal",
						"members": [
							{
								"astId": 855,
								"contract": "C/corporate treasury.sol:CorporateTreasury",
								"label": "id",
								"offset": 0,
								"slot": "0",
								"type": "t_uint256"
							},
							{
								"astId": 857,
								"contract": "C/corporate treasury.sol:CorporateTreasury",
								"label": "description",
								"offset": 0,
								"slot": "1",
								"type": "t_string_storage"
							},
							{
								"astId": 859,
								"contract": "C/corporate treasury.sol:CorporateTreasury",
								"label": "recipient",
								"offset": 0,
								"slot": "2",
								"type": "t_address_payable"
							},
							{
								"astId": 861,
								"contract": "C/corporate treasury.sol:CorporateTreasury",
								"label": "amount",
								"offset": 0,
								"slot": "3",
								"type": "t_uint256"
							},
							{
								"astId": 863,
								"contract": "C/corporate treasury.sol:CorporateTreasury",
								"label": "proposedAt",
								"offset": 0,
								"slot": "4",
								"type": "t_uint256"
							},
							{
								"astId": 865,
								"contract": "C/corporate treasury.sol:CorporateTreasury",
								"label": "executeAfter",
								"offset": 0,
								"slot": "5",
								"type": "t_uint256"
							},
							{
								"astId": 867,
								"contract": "C/corporate treasury.sol:CorporateTreasury",
								"label": "executed",
								"offset": 0,
								"slot": "6",
								"type": "t_bool"
							},
							{
								"astId": 869,
								"contract": "C/corporate treasury.sol:CorporateTreasury",
								"label": "cancelled",
								"offset": 1,
								"slot": "6",
								"type": "t_bool"
							}
						],
						"numberOfBytes": "224"
					},
					"t_uint256": {
						"encoding": "inplace",
						"label": "uint256",
						"numberOfBytes": "32"
					}
				}
			},
			"userdoc": {
				"kind": "user",
				"methods": {
					"addManager(address)": {
						"notice": "Allows the owner to add an authorized manager."
					},
					"cancelProposal(uint256)": {
						"notice": "Allows an authorized manager or the owner to cancel a proposal that has not been executed."
					},
					"constructor": {
						"notice": "Constructor sets the deployer as the initial owner."
					},
					"executeProposal(uint256)": {
						"notice": "Allows an authorized manager or the owner to execute a proposal after the timelock has passed."
					},
					"proposeExpenditure(string,address,uint256)": {
						"notice": "Allows an authorized manager to propose a new expenditure."
					},
					"removeManager(address)": {
						"notice": "Allows the owner to remove an authorized manager."
					},
					"transferToken(address,address,uint256)": {
						"notice": "Allows the owner to transfer ERC20 tokens out of the treasury."
					}
				},
				"notice": "This contract manages a corporate treasury by holding funds (Ether and tokens) and handling spending proposals. Authorized managers (set by the owner) can propose expenditures. Each spending proposal includes a description, a recipient, an amount, and a scheduled execution time (a timelock is applied). Once the timelock expires, the proposal can be executed (i.e. funds transferred).",
				"version": 1
			}
		}
	}
}