{
	"C/centralLimitOrderBooks.sol": {
		"CentralLimitOrderBook": {
			"abi": [
				{
					"anonymous": false,
					"inputs": [
						{
							"indexed": true,
							"internalType": "uint256",
							"name": "buyOrderId",
							"type": "uint256"
						},
						{
							"indexed": true,
							"internalType": "uint256",
							"name": "sellOrderId",
							"type": "uint256"
						},
						{
							"indexed": false,
							"internalType": "uint256",
							"name": "matchPrice",
							"type": "uint256"
						},
						{
							"indexed": false,
							"internalType": "uint256",
							"name": "matchAmount",
							"type": "uint256"
						}
					],
					"name": "OrderMatched",
					"type": "event"
				},
				{
					"anonymous": false,
					"inputs": [
						{
							"indexed": true,
							"internalType": "uint256",
							"name": "orderId",
							"type": "uint256"
						},
						{
							"indexed": true,
							"internalType": "address",
							"name": "trader",
							"type": "address"
						},
						{
							"indexed": false,
							"internalType": "bool",
							"name": "isBuy",
							"type": "bool"
						},
						{
							"indexed": false,
							"internalType": "uint256",
							"name": "price",
							"type": "uint256"
						},
						{
							"indexed": false,
							"internalType": "uint256",
							"name": "amount",
							"type": "uint256"
						}
					],
					"name": "OrderPlaced",
					"type": "event"
				},
				{
					"inputs": [
						{
							"internalType": "uint256",
							"name": "orderId",
							"type": "uint256"
						}
					],
					"name": "getOrder",
					"outputs": [
						{
							"components": [
								{
									"internalType": "uint256",
									"name": "id",
									"type": "uint256"
								},
								{
									"internalType": "address",
									"name": "trader",
									"type": "address"
								},
								{
									"internalType": "bool",
									"name": "isBuy",
									"type": "bool"
								},
								{
									"internalType": "uint256",
									"name": "price",
									"type": "uint256"
								},
								{
									"internalType": "uint256",
									"name": "amount",
									"type": "uint256"
								},
								{
									"internalType": "bool",
									"name": "filled",
									"type": "bool"
								}
							],
							"internalType": "struct CentralLimitOrderBook.Order",
							"name": "",
							"type": "tuple"
						}
					],
					"stateMutability": "view",
					"type": "function"
				},
				{
					"inputs": [],
					"name": "getOrderCount",
					"outputs": [
						{
							"internalType": "uint256",
							"name": "",
							"type": "uint256"
						}
					],
					"stateMutability": "view",
					"type": "function"
				},
				{
					"inputs": [],
					"name": "matchOrders",
					"outputs": [],
					"stateMutability": "nonpayable",
					"type": "function"
				},
				{
					"inputs": [],
					"name": "nextOrderId",
					"outputs": [
						{
							"internalType": "uint256",
							"name": "",
							"type": "uint256"
						}
					],
					"stateMutability": "view",
					"type": "function"
				},
				{
					"inputs": [
						{
							"internalType": "uint256",
							"name": "",
							"type": "uint256"
						}
					],
					"name": "orders",
					"outputs": [
						{
							"internalType": "uint256",
							"name": "id",
							"type": "uint256"
						},
						{
							"internalType": "address",
							"name": "trader",
							"type": "address"
						},
						{
							"internalType": "bool",
							"name": "isBuy",
							"type": "bool"
						},
						{
							"internalType": "uint256",
							"name": "price",
							"type": "uint256"
						},
						{
							"internalType": "uint256",
							"name": "amount",
							"type": "uint256"
						},
						{
							"internalType": "bool",
							"name": "filled",
							"type": "bool"
						}
					],
					"stateMutability": "view",
					"type": "function"
				},
				{
					"inputs": [
						{
							"internalType": "bool",
							"name": "isBuy",
							"type": "bool"
						},
						{
							"internalType": "uint256",
							"name": "price",
							"type": "uint256"
						},
						{
							"internalType": "uint256",
							"name": "amount",
							"type": "uint256"
						}
					],
					"name": "placeOrder",
					"outputs": [],
					"stateMutability": "nonpayable",
					"type": "function"
				}
			],
			"devdoc": {
				"kind": "dev",
				"methods": {
					"getOrder(uint256)": {
						"params": {
							"orderId": "The ID of the order."
						},
						"returns": {
							"_0": "The order struct."
						}
					},
					"getOrderCount()": {
						"returns": {
							"_0": "The count of orders."
						}
					},
					"placeOrder(bool,uint256,uint256)": {
						"params": {
							"amount": "The amount of tokens to buy or sell.",
							"isBuy": "True for a buy order, false for a sell order.",
							"price": "The limit price per token."
						}
					}
				},
				"version": 1
			},
			"evm": {
				"assembly": "    /* \"C/centralLimitOrderBooks.sol\":57:4034  contract CentralLimitOrderBook {... */\n  mstore(0x40, 0x80)\n  callvalue\n  dup1\n  iszero\n  tag_1\n  jumpi\n  0x00\n  dup1\n  revert\ntag_1:\n  pop\n  dataSize(sub_0)\n  dup1\n  dataOffset(sub_0)\n  0x00\n  codecopy\n  0x00\n  return\nstop\n\nsub_0: assembly {\n        /* \"C/centralLimitOrderBooks.sol\":57:4034  contract CentralLimitOrderBook {... */\n      mstore(0x40, 0x80)\n      callvalue\n      dup1\n      iszero\n      tag_1\n      jumpi\n      0x00\n      dup1\n      revert\n    tag_1:\n      pop\n      jumpi(tag_2, lt(calldatasize, 0x04))\n      shr(0xe0, calldataload(0x00))\n      dup1\n      0x2a58b330\n      eq\n      tag_3\n      jumpi\n      dup1\n      0x7ee68546\n      eq\n      tag_4\n      jumpi\n      dup1\n      0x8d0a5fbb\n      eq\n      tag_5\n      jumpi\n      dup1\n      0xa85c38ef\n      eq\n      tag_6\n      jumpi\n      dup1\n      0xca8b4f7a\n      eq\n      tag_7\n      jumpi\n      dup1\n      0xd09ef241\n      eq\n      tag_8\n      jumpi\n    tag_2:\n      0x00\n      dup1\n      revert\n        /* \"C/centralLimitOrderBooks.sol\":515:541  uint256 public nextOrderId */\n    tag_3:\n      tag_9\n      tag_10\n      jump\t// in\n    tag_9:\n      mload(0x40)\n      tag_11\n      swap2\n      swap1\n      tag_12\n      jump\t// in\n    tag_11:\n      mload(0x40)\n      dup1\n      swap2\n      sub\n      swap1\n      return\n        /* \"C/centralLimitOrderBooks.sol\":1707:3410  function matchOrders() external {... */\n    tag_4:\n      tag_13\n      tag_14\n      jump\t// in\n    tag_13:\n      stop\n        /* \"C/centralLimitOrderBooks.sol\":3938:4032  function getOrderCount() external view returns (uint256) {... */\n    tag_5:\n      tag_15\n      tag_16\n      jump\t// in\n    tag_15:\n      mload(0x40)\n      tag_17\n      swap2\n      swap1\n      tag_12\n      jump\t// in\n    tag_17:\n      mload(0x40)\n      dup1\n      swap2\n      sub\n      swap1\n      return\n        /* \"C/centralLimitOrderBooks.sol\":488:509  Order[] public orders */\n    tag_6:\n      tag_18\n      0x04\n      dup1\n      calldatasize\n      sub\n      dup2\n      add\n      swap1\n      tag_19\n      swap2\n      swap1\n      tag_20\n      jump\t// in\n    tag_19:\n      tag_21\n      jump\t// in\n    tag_18:\n      mload(0x40)\n      tag_22\n      swap7\n      swap6\n      swap5\n      swap4\n      swap3\n      swap2\n      swap1\n      tag_23\n      jump\t// in\n    tag_22:\n      mload(0x40)\n      dup1\n      swap2\n      sub\n      swap1\n      return\n        /* \"C/centralLimitOrderBooks.sol\":1015:1507  function placeOrder(bool isBuy, uint256 price, uint256 amount) external {... */\n    tag_7:\n      tag_24\n      0x04\n      dup1\n      calldatasize\n      sub\n      dup2\n      add\n      swap1\n      tag_25\n      swap2\n      swap1\n      tag_26\n      jump\t// in\n    tag_25:\n      tag_27\n      jump\t// in\n    tag_24:\n      stop\n        /* \"C/centralLimitOrderBooks.sol\":3552:3821  function getOrder(uint256 orderId) external view returns (Order memory) {... */\n    tag_8:\n      tag_28\n      0x04\n      dup1\n      calldatasize\n      sub\n      dup2\n      add\n      swap1\n      tag_29\n      swap2\n      swap1\n      tag_20\n      jump\t// in\n    tag_29:\n      tag_30\n      jump\t// in\n    tag_28:\n      mload(0x40)\n      tag_31\n      swap2\n      swap1\n      tag_32\n      jump\t// in\n    tag_31:\n      mload(0x40)\n      dup1\n      swap2\n      sub\n      swap1\n      return\n        /* \"C/centralLimitOrderBooks.sol\":515:541  uint256 public nextOrderId */\n    tag_10:\n      sload(0x01)\n      dup2\n      jump\t// out\n        /* \"C/centralLimitOrderBooks.sol\":1707:3410  function matchOrders() external {... */\n    tag_14:\n        /* \"C/centralLimitOrderBooks.sol\":1794:1803  uint256 i */\n      0x00\n        /* \"C/centralLimitOrderBooks.sol\":1789:3404  for (uint256 i = 0; i < orders.length; i++) {... */\n    tag_34:\n        /* \"C/centralLimitOrderBooks.sol\":1813:1819  orders */\n      0x00\n        /* \"C/centralLimitOrderBooks.sol\":1813:1826  orders.length */\n      dup1\n      sload\n      swap1\n      pop\n        /* \"C/centralLimitOrderBooks.sol\":1809:1810  i */\n      dup2\n        /* \"C/centralLimitOrderBooks.sol\":1809:1826  i < orders.length */\n      lt\n        /* \"C/centralLimitOrderBooks.sol\":1789:3404  for (uint256 i = 0; i < orders.length; i++) {... */\n      iszero\n      tag_35\n      jumpi\n        /* \"C/centralLimitOrderBooks.sol\":1847:1869  Order storage buyOrder */\n      0x00\n        /* \"C/centralLimitOrderBooks.sol\":1872:1878  orders */\n      dup1\n        /* \"C/centralLimitOrderBooks.sol\":1879:1880  i */\n      dup3\n        /* \"C/centralLimitOrderBooks.sol\":1872:1881  orders[i] */\n      dup2\n      sload\n      dup2\n      lt\n      tag_37\n      jumpi\n      tag_38\n      tag_39\n      jump\t// in\n    tag_38:\n    tag_37:\n      swap1\n      0x00\n      mstore\n      keccak256(0x00, 0x20)\n      swap1\n      0x05\n      mul\n      add\n        /* \"C/centralLimitOrderBooks.sol\":1847:1881  Order storage buyOrder = orders[i] */\n      swap1\n      pop\n        /* \"C/centralLimitOrderBooks.sol\":1899:1907  buyOrder */\n      dup1\n        /* \"C/centralLimitOrderBooks.sol\":1899:1914  buyOrder.filled */\n      0x04\n      add\n      0x00\n      swap1\n      sload\n      swap1\n      0x0100\n      exp\n      swap1\n      div\n      0xff\n      and\n        /* \"C/centralLimitOrderBooks.sol\":1899:1933  buyOrder.filled || !buyOrder.isBuy */\n      dup1\n      tag_41\n      jumpi\n      pop\n        /* \"C/centralLimitOrderBooks.sol\":1919:1927  buyOrder */\n      dup1\n        /* \"C/centralLimitOrderBooks.sol\":1919:1933  buyOrder.isBuy */\n      0x01\n      add\n      0x14\n      swap1\n      sload\n      swap1\n      0x0100\n      exp\n      swap1\n      div\n      0xff\n      and\n        /* \"C/centralLimitOrderBooks.sol\":1918:1933  !buyOrder.isBuy */\n      iszero\n        /* \"C/centralLimitOrderBooks.sol\":1899:1933  buyOrder.filled || !buyOrder.isBuy */\n    tag_41:\n        /* \"C/centralLimitOrderBooks.sol\":1895:1943  if (buyOrder.filled || !buyOrder.isBuy) continue */\n      iszero\n      tag_42\n      jumpi\n        /* \"C/centralLimitOrderBooks.sol\":1935:1943  continue */\n      pop\n      jump(tag_36)\n        /* \"C/centralLimitOrderBooks.sol\":1895:1943  if (buyOrder.filled || !buyOrder.isBuy) continue */\n    tag_42:\n        /* \"C/centralLimitOrderBooks.sol\":2045:2054  uint256 j */\n      0x00\n        /* \"C/centralLimitOrderBooks.sol\":2040:3394  for (uint256 j = 0; j < orders.length; j++) {... */\n    tag_43:\n        /* \"C/centralLimitOrderBooks.sol\":2064:2070  orders */\n      0x00\n        /* \"C/centralLimitOrderBooks.sol\":2064:2077  orders.length */\n      dup1\n      sload\n      swap1\n      pop\n        /* \"C/centralLimitOrderBooks.sol\":2060:2061  j */\n      dup2\n        /* \"C/centralLimitOrderBooks.sol\":2060:2077  j < orders.length */\n      lt\n        /* \"C/centralLimitOrderBooks.sol\":2040:3394  for (uint256 j = 0; j < orders.length; j++) {... */\n      iszero\n      tag_44\n      jumpi\n        /* \"C/centralLimitOrderBooks.sol\":2102:2125  Order storage sellOrder */\n      0x00\n        /* \"C/centralLimitOrderBooks.sol\":2128:2134  orders */\n      dup1\n        /* \"C/centralLimitOrderBooks.sol\":2135:2136  j */\n      dup3\n        /* \"C/centralLimitOrderBooks.sol\":2128:2137  orders[j] */\n      dup2\n      sload\n      dup2\n      lt\n      tag_46\n      jumpi\n      tag_47\n      tag_39\n      jump\t// in\n    tag_47:\n    tag_46:\n      swap1\n      0x00\n      mstore\n      keccak256(0x00, 0x20)\n      swap1\n      0x05\n      mul\n      add\n        /* \"C/centralLimitOrderBooks.sol\":2102:2137  Order storage sellOrder = orders[j] */\n      swap1\n      pop\n        /* \"C/centralLimitOrderBooks.sol\":2159:2168  sellOrder */\n      dup1\n        /* \"C/centralLimitOrderBooks.sol\":2159:2175  sellOrder.filled */\n      0x04\n      add\n      0x00\n      swap1\n      sload\n      swap1\n      0x0100\n      exp\n      swap1\n      div\n      0xff\n      and\n        /* \"C/centralLimitOrderBooks.sol\":2159:2194  sellOrder.filled || sellOrder.isBuy */\n      dup1\n      tag_49\n      jumpi\n      pop\n        /* \"C/centralLimitOrderBooks.sol\":2179:2188  sellOrder */\n      dup1\n        /* \"C/centralLimitOrderBooks.sol\":2179:2194  sellOrder.isBuy */\n      0x01\n      add\n      0x14\n      swap1\n      sload\n      swap1\n      0x0100\n      exp\n      swap1\n      div\n      0xff\n      and\n        /* \"C/centralLimitOrderBooks.sol\":2159:2194  sellOrder.filled || sellOrder.isBuy */\n    tag_49:\n        /* \"C/centralLimitOrderBooks.sol\":2155:2204  if (sellOrder.filled || sellOrder.isBuy) continue */\n      iszero\n      tag_50\n      jumpi\n        /* \"C/centralLimitOrderBooks.sol\":2196:2204  continue */\n      pop\n      jump(tag_45)\n        /* \"C/centralLimitOrderBooks.sol\":2155:2204  if (sellOrder.filled || sellOrder.isBuy) continue */\n    tag_50:\n        /* \"C/centralLimitOrderBooks.sol\":2348:2357  sellOrder */\n      dup1\n        /* \"C/centralLimitOrderBooks.sol\":2348:2363  sellOrder.price */\n      0x02\n      add\n      sload\n        /* \"C/centralLimitOrderBooks.sol\":2330:2338  buyOrder */\n      dup4\n        /* \"C/centralLimitOrderBooks.sol\":2330:2344  buyOrder.price */\n      0x02\n      add\n      sload\n        /* \"C/centralLimitOrderBooks.sol\":2330:2363  buyOrder.price >= sellOrder.price */\n      lt\n        /* \"C/centralLimitOrderBooks.sol\":2326:3380  if (buyOrder.price >= sellOrder.price) {... */\n      tag_51\n      jumpi\n        /* \"C/centralLimitOrderBooks.sol\":2488:2507  uint256 matchAmount */\n      0x00\n        /* \"C/centralLimitOrderBooks.sol\":2528:2537  sellOrder */\n      dup2\n        /* \"C/centralLimitOrderBooks.sol\":2528:2544  sellOrder.amount */\n      0x03\n      add\n      sload\n        /* \"C/centralLimitOrderBooks.sol\":2510:2518  buyOrder */\n      dup5\n        /* \"C/centralLimitOrderBooks.sol\":2510:2525  buyOrder.amount */\n      0x03\n      add\n      sload\n        /* \"C/centralLimitOrderBooks.sol\":2510:2544  buyOrder.amount < sellOrder.amount */\n      lt\n        /* \"C/centralLimitOrderBooks.sol\":2510:2581  buyOrder.amount < sellOrder.amount ? buyOrder.amount : sellOrder.amount */\n      tag_52\n      jumpi\n        /* \"C/centralLimitOrderBooks.sol\":2565:2574  sellOrder */\n      dup2\n        /* \"C/centralLimitOrderBooks.sol\":2565:2581  sellOrder.amount */\n      0x03\n      add\n      sload\n        /* \"C/centralLimitOrderBooks.sol\":2510:2581  buyOrder.amount < sellOrder.amount ? buyOrder.amount : sellOrder.amount */\n      jump(tag_53)\n    tag_52:\n        /* \"C/centralLimitOrderBooks.sol\":2547:2555  buyOrder */\n      dup4\n        /* \"C/centralLimitOrderBooks.sol\":2547:2562  buyOrder.amount */\n      0x03\n      add\n      sload\n        /* \"C/centralLimitOrderBooks.sol\":2510:2581  buyOrder.amount < sellOrder.amount ? buyOrder.amount : sellOrder.amount */\n    tag_53:\n        /* \"C/centralLimitOrderBooks.sol\":2488:2581  uint256 matchAmount = buyOrder.amount < sellOrder.amount ? buyOrder.amount : sellOrder.amount */\n      swap1\n      pop\n        /* \"C/centralLimitOrderBooks.sol\":2704:2715  matchAmount */\n      dup1\n        /* \"C/centralLimitOrderBooks.sol\":2685:2693  buyOrder */\n      dup5\n        /* \"C/centralLimitOrderBooks.sol\":2685:2700  buyOrder.amount */\n      0x03\n      add\n      0x00\n        /* \"C/centralLimitOrderBooks.sol\":2685:2715  buyOrder.amount -= matchAmount */\n      dup3\n      dup3\n      sload\n      tag_54\n      swap2\n      swap1\n      tag_55\n      jump\t// in\n    tag_54:\n      swap3\n      pop\n      pop\n      dup2\n      swap1\n      sstore\n      pop\n        /* \"C/centralLimitOrderBooks.sol\":2757:2768  matchAmount */\n      dup1\n        /* \"C/centralLimitOrderBooks.sol\":2737:2746  sellOrder */\n      dup3\n        /* \"C/centralLimitOrderBooks.sol\":2737:2753  sellOrder.amount */\n      0x03\n      add\n      0x00\n        /* \"C/centralLimitOrderBooks.sol\":2737:2768  sellOrder.amount -= matchAmount */\n      dup3\n      dup3\n      sload\n      tag_56\n      swap2\n      swap1\n      tag_55\n      jump\t// in\n    tag_56:\n      swap3\n      pop\n      pop\n      dup2\n      swap1\n      sstore\n      pop\n        /* \"C/centralLimitOrderBooks.sol\":2842:2851  sellOrder */\n      dup2\n        /* \"C/centralLimitOrderBooks.sol\":2842:2854  sellOrder.id */\n      0x00\n      add\n      sload\n        /* \"C/centralLimitOrderBooks.sol\":2829:2837  buyOrder */\n      dup5\n        /* \"C/centralLimitOrderBooks.sol\":2829:2840  buyOrder.id */\n      0x00\n      add\n      sload\n        /* \"C/centralLimitOrderBooks.sol\":2816:2885  OrderMatched(buyOrder.id, sellOrder.id, sellOrder.price, matchAmount) */\n      0x82877c5945532f956e6718f78f5606b7b5d8efef5e22121a3d9bf4e708873edd\n        /* \"C/centralLimitOrderBooks.sol\":2856:2865  sellOrder */\n      dup5\n        /* \"C/centralLimitOrderBooks.sol\":2856:2871  sellOrder.price */\n      0x02\n      add\n      sload\n        /* \"C/centralLimitOrderBooks.sol\":2873:2884  matchAmount */\n      dup5\n        /* \"C/centralLimitOrderBooks.sol\":2816:2885  OrderMatched(buyOrder.id, sellOrder.id, sellOrder.price, matchAmount) */\n      mload(0x40)\n      tag_57\n      swap3\n      swap2\n      swap1\n      tag_58\n      jump\t// in\n    tag_57:\n      mload(0x40)\n      dup1\n      swap2\n      sub\n      swap1\n      log3\n        /* \"C/centralLimitOrderBooks.sol\":3049:3050  0 */\n      0x00\n        /* \"C/centralLimitOrderBooks.sol\":3030:3038  buyOrder */\n      dup5\n        /* \"C/centralLimitOrderBooks.sol\":3030:3045  buyOrder.amount */\n      0x03\n      add\n      sload\n        /* \"C/centralLimitOrderBooks.sol\":3030:3050  buyOrder.amount == 0 */\n      sub\n        /* \"C/centralLimitOrderBooks.sol\":3026:3154  if (buyOrder.amount == 0) {... */\n      tag_59\n      jumpi\n        /* \"C/centralLimitOrderBooks.sol\":3096:3100  true */\n      0x01\n        /* \"C/centralLimitOrderBooks.sol\":3078:3086  buyOrder */\n      dup5\n        /* \"C/centralLimitOrderBooks.sol\":3078:3093  buyOrder.filled */\n      0x04\n      add\n      0x00\n        /* \"C/centralLimitOrderBooks.sol\":3078:3100  buyOrder.filled = true */\n      0x0100\n      exp\n      dup2\n      sload\n      dup2\n      0xff\n      mul\n      not\n      and\n      swap1\n      dup4\n      iszero\n      iszero\n      mul\n      or\n      swap1\n      sstore\n      pop\n        /* \"C/centralLimitOrderBooks.sol\":3126:3131  break */\n      pop\n      pop\n      jump(tag_44)\n        /* \"C/centralLimitOrderBooks.sol\":3026:3154  if (buyOrder.amount == 0) {... */\n    tag_59:\n        /* \"C/centralLimitOrderBooks.sol\":3287:3288  0 */\n      0x00\n        /* \"C/centralLimitOrderBooks.sol\":3267:3276  sellOrder */\n      dup3\n        /* \"C/centralLimitOrderBooks.sol\":3267:3283  sellOrder.amount */\n      0x03\n      add\n      sload\n        /* \"C/centralLimitOrderBooks.sol\":3267:3288  sellOrder.amount == 0 */\n      sub\n        /* \"C/centralLimitOrderBooks.sol\":3263:3362  if (sellOrder.amount == 0) {... */\n      tag_60\n      jumpi\n        /* \"C/centralLimitOrderBooks.sol\":3335:3339  true */\n      0x01\n        /* \"C/centralLimitOrderBooks.sol\":3316:3325  sellOrder */\n      dup3\n        /* \"C/centralLimitOrderBooks.sol\":3316:3332  sellOrder.filled */\n      0x04\n      add\n      0x00\n        /* \"C/centralLimitOrderBooks.sol\":3316:3339  sellOrder.filled = true */\n      0x0100\n      exp\n      dup2\n      sload\n      dup2\n      0xff\n      mul\n      not\n      and\n      swap1\n      dup4\n      iszero\n      iszero\n      mul\n      or\n      swap1\n      sstore\n      pop\n        /* \"C/centralLimitOrderBooks.sol\":3263:3362  if (sellOrder.amount == 0) {... */\n    tag_60:\n        /* \"C/centralLimitOrderBooks.sol\":2365:3380  {... */\n      pop\n        /* \"C/centralLimitOrderBooks.sol\":2326:3380  if (buyOrder.price >= sellOrder.price) {... */\n    tag_51:\n        /* \"C/centralLimitOrderBooks.sol\":2084:3394  {... */\n      pop\n        /* \"C/centralLimitOrderBooks.sol\":2040:3394  for (uint256 j = 0; j < orders.length; j++) {... */\n    tag_45:\n        /* \"C/centralLimitOrderBooks.sol\":2079:2082  j++ */\n      dup1\n      dup1\n      tag_61\n      swap1\n      tag_62\n      jump\t// in\n    tag_61:\n      swap2\n      pop\n      pop\n        /* \"C/centralLimitOrderBooks.sol\":2040:3394  for (uint256 j = 0; j < orders.length; j++) {... */\n      jump(tag_43)\n    tag_44:\n      pop\n        /* \"C/centralLimitOrderBooks.sol\":1833:3404  {... */\n      pop\n        /* \"C/centralLimitOrderBooks.sol\":1789:3404  for (uint256 i = 0; i < orders.length; i++) {... */\n    tag_36:\n        /* \"C/centralLimitOrderBooks.sol\":1828:1831  i++ */\n      dup1\n      dup1\n      tag_63\n      swap1\n      tag_62\n      jump\t// in\n    tag_63:\n      swap2\n      pop\n      pop\n        /* \"C/centralLimitOrderBooks.sol\":1789:3404  for (uint256 i = 0; i < orders.length; i++) {... */\n      jump(tag_34)\n    tag_35:\n      pop\n        /* \"C/centralLimitOrderBooks.sol\":1707:3410  function matchOrders() external {... */\n      jump\t// out\n        /* \"C/centralLimitOrderBooks.sol\":3938:4032  function getOrderCount() external view returns (uint256) {... */\n    tag_16:\n        /* \"C/centralLimitOrderBooks.sol\":3986:3993  uint256 */\n      0x00\n        /* \"C/centralLimitOrderBooks.sol\":4012:4018  orders */\n      dup1\n        /* \"C/centralLimitOrderBooks.sol\":4012:4025  orders.length */\n      dup1\n      sload\n      swap1\n      pop\n        /* \"C/centralLimitOrderBooks.sol\":4005:4025  return orders.length */\n      swap1\n      pop\n        /* \"C/centralLimitOrderBooks.sol\":3938:4032  function getOrderCount() external view returns (uint256) {... */\n      swap1\n      jump\t// out\n        /* \"C/centralLimitOrderBooks.sol\":488:509  Order[] public orders */\n    tag_21:\n      0x00\n      dup2\n      dup2\n      sload\n      dup2\n      lt\n      tag_65\n      jumpi\n      0x00\n      dup1\n      revert\n    tag_65:\n      swap1\n      0x00\n      mstore\n      keccak256(0x00, 0x20)\n      swap1\n      0x05\n      mul\n      add\n      0x00\n      swap2\n      pop\n      swap1\n      pop\n      dup1\n      0x00\n      add\n      sload\n      swap1\n      dup1\n      0x01\n      add\n      0x00\n      swap1\n      sload\n      swap1\n      0x0100\n      exp\n      swap1\n      div\n      0xffffffffffffffffffffffffffffffffffffffff\n      and\n      swap1\n      dup1\n      0x01\n      add\n      0x14\n      swap1\n      sload\n      swap1\n      0x0100\n      exp\n      swap1\n      div\n      0xff\n      and\n      swap1\n      dup1\n      0x02\n      add\n      sload\n      swap1\n      dup1\n      0x03\n      add\n      sload\n      swap1\n      dup1\n      0x04\n      add\n      0x00\n      swap1\n      sload\n      swap1\n      0x0100\n      exp\n      swap1\n      div\n      0xff\n      and\n      swap1\n      pop\n      dup7\n      jump\t// out\n        /* \"C/centralLimitOrderBooks.sol\":1015:1507  function placeOrder(bool isBuy, uint256 price, uint256 amount) external {... */\n    tag_27:\n        /* \"C/centralLimitOrderBooks.sol\":1114:1115  0 */\n      0x00\n        /* \"C/centralLimitOrderBooks.sol\":1105:1111  amount */\n      dup2\n        /* \"C/centralLimitOrderBooks.sol\":1105:1115  amount > 0 */\n      gt\n        /* \"C/centralLimitOrderBooks.sol\":1097:1138  require(amount > 0, \"Amount must be > 0\") */\n      tag_68\n      jumpi\n      mload(0x40)\n      0x08c379a000000000000000000000000000000000000000000000000000000000\n      dup2\n      mstore\n      0x04\n      add\n      tag_69\n      swap1\n      tag_70\n      jump\t// in\n    tag_69:\n      mload(0x40)\n      dup1\n      swap2\n      sub\n      swap1\n      revert\n    tag_68:\n        /* \"C/centralLimitOrderBooks.sol\":1164:1165  0 */\n      0x00\n        /* \"C/centralLimitOrderBooks.sol\":1156:1161  price */\n      dup3\n        /* \"C/centralLimitOrderBooks.sol\":1156:1165  price > 0 */\n      gt\n        /* \"C/centralLimitOrderBooks.sol\":1148:1187  require(price > 0, \"Price must be > 0\") */\n      tag_71\n      jumpi\n      mload(0x40)\n      0x08c379a000000000000000000000000000000000000000000000000000000000\n      dup2\n      mstore\n      0x04\n      add\n      tag_72\n      swap1\n      tag_73\n      jump\t// in\n    tag_72:\n      mload(0x40)\n      dup1\n      swap2\n      sub\n      swap1\n      revert\n    tag_71:\n        /* \"C/centralLimitOrderBooks.sol\":1206:1212  orders */\n      0x00\n        /* \"C/centralLimitOrderBooks.sol\":1218:1403  Order({... */\n      mload(0x40)\n      dup1\n      0xc0\n      add\n      0x40\n      mstore\n      dup1\n        /* \"C/centralLimitOrderBooks.sol\":1242:1253  nextOrderId */\n      sload(0x01)\n        /* \"C/centralLimitOrderBooks.sol\":1218:1403  Order({... */\n      dup2\n      mstore\n      0x20\n      add\n        /* \"C/centralLimitOrderBooks.sol\":1275:1285  msg.sender */\n      caller\n        /* \"C/centralLimitOrderBooks.sol\":1218:1403  Order({... */\n      0xffffffffffffffffffffffffffffffffffffffff\n      and\n      dup2\n      mstore\n      0x20\n      add\n        /* \"C/centralLimitOrderBooks.sol\":1306:1311  isBuy */\n      dup6\n        /* \"C/centralLimitOrderBooks.sol\":1218:1403  Order({... */\n      iszero\n      iszero\n      dup2\n      mstore\n      0x20\n      add\n        /* \"C/centralLimitOrderBooks.sol\":1332:1337  price */\n      dup5\n        /* \"C/centralLimitOrderBooks.sol\":1218:1403  Order({... */\n      dup2\n      mstore\n      0x20\n      add\n        /* \"C/centralLimitOrderBooks.sol\":1359:1365  amount */\n      dup4\n        /* \"C/centralLimitOrderBooks.sol\":1218:1403  Order({... */\n      dup2\n      mstore\n      0x20\n      add\n        /* \"C/centralLimitOrderBooks.sol\":1387:1392  false */\n      0x00\n        /* \"C/centralLimitOrderBooks.sol\":1218:1403  Order({... */\n      iszero\n      iszero\n      dup2\n      mstore\n      pop\n        /* \"C/centralLimitOrderBooks.sol\":1206:1404  orders.push(Order({... */\n      swap1\n      dup1\n      0x01\n      dup2\n      sload\n      add\n      dup1\n      dup3\n      sstore\n      dup1\n      swap2\n      pop\n      pop\n      0x01\n      swap1\n      sub\n      swap1\n      0x00\n      mstore\n      keccak256(0x00, 0x20)\n      swap1\n      0x05\n      mul\n      add\n      0x00\n      swap1\n      swap2\n      swap1\n      swap2\n      swap1\n      swap2\n      pop\n      0x00\n      dup3\n      add\n      mload\n      dup2\n      0x00\n      add\n      sstore\n      0x20\n      dup3\n      add\n      mload\n      dup2\n      0x01\n      add\n      exp(0x0100, 0x00)\n      dup2\n      sload\n      dup2\n      0xffffffffffffffffffffffffffffffffffffffff\n      mul\n      not\n      and\n      swap1\n      dup4\n      0xffffffffffffffffffffffffffffffffffffffff\n      and\n      mul\n      or\n      swap1\n      sstore\n      pop\n      0x40\n      dup3\n      add\n      mload\n      dup2\n      0x01\n      add\n      exp(0x0100, 0x14)\n      dup2\n      sload\n      dup2\n      0xff\n      mul\n      not\n      and\n      swap1\n      dup4\n      iszero\n      iszero\n      mul\n      or\n      swap1\n      sstore\n      pop\n      0x60\n      dup3\n      add\n      mload\n      dup2\n      0x02\n      add\n      sstore\n      0x80\n      dup3\n      add\n      mload\n      dup2\n      0x03\n      add\n      sstore\n      0xa0\n      dup3\n      add\n      mload\n      dup2\n      0x04\n      add\n      exp(0x0100, 0x00)\n      dup2\n      sload\n      dup2\n      0xff\n      mul\n      not\n      and\n      swap1\n      dup4\n      iszero\n      iszero\n      mul\n      or\n      swap1\n      sstore\n      pop\n      pop\n      pop\n        /* \"C/centralLimitOrderBooks.sol\":1444:1454  msg.sender */\n      caller\n        /* \"C/centralLimitOrderBooks.sol\":1419:1477  OrderPlaced(nextOrderId, msg.sender, isBuy, price, amount) */\n      0xffffffffffffffffffffffffffffffffffffffff\n      and\n        /* \"C/centralLimitOrderBooks.sol\":1431:1442  nextOrderId */\n      sload(0x01)\n        /* \"C/centralLimitOrderBooks.sol\":1419:1477  OrderPlaced(nextOrderId, msg.sender, isBuy, price, amount) */\n      0xa8d12dd5402d0aa9ccaa7a1346ef5a510e0c3ee938c13587bf17e59671b2ebee\n        /* \"C/centralLimitOrderBooks.sol\":1456:1461  isBuy */\n      dup6\n        /* \"C/centralLimitOrderBooks.sol\":1463:1468  price */\n      dup6\n        /* \"C/centralLimitOrderBooks.sol\":1470:1476  amount */\n      dup6\n        /* \"C/centralLimitOrderBooks.sol\":1419:1477  OrderPlaced(nextOrderId, msg.sender, isBuy, price, amount) */\n      mload(0x40)\n      tag_75\n      swap4\n      swap3\n      swap2\n      swap1\n      tag_76\n      jump\t// in\n    tag_75:\n      mload(0x40)\n      dup1\n      swap2\n      sub\n      swap1\n      log3\n        /* \"C/centralLimitOrderBooks.sol\":1487:1498  nextOrderId */\n      0x01\n      0x00\n        /* \"C/centralLimitOrderBooks.sol\":1487:1500  nextOrderId++ */\n      dup2\n      sload\n      dup1\n      swap3\n      swap2\n      swap1\n      tag_77\n      swap1\n      tag_62\n      jump\t// in\n    tag_77:\n      swap2\n      swap1\n      pop\n      sstore\n      pop\n        /* \"C/centralLimitOrderBooks.sol\":1015:1507  function placeOrder(bool isBuy, uint256 price, uint256 amount) external {... */\n      pop\n      pop\n      pop\n      jump\t// out\n        /* \"C/centralLimitOrderBooks.sol\":3552:3821  function getOrder(uint256 orderId) external view returns (Order memory) {... */\n    tag_30:\n        /* \"C/centralLimitOrderBooks.sol\":3610:3622  Order memory */\n      tag_78\n      tag_79\n      jump\t// in\n    tag_78:\n        /* \"C/centralLimitOrderBooks.sol\":3639:3648  uint256 i */\n      0x00\n        /* \"C/centralLimitOrderBooks.sol\":3634:3780  for (uint256 i = 0; i < orders.length; i++) {... */\n    tag_81:\n        /* \"C/centralLimitOrderBooks.sol\":3658:3664  orders */\n      0x00\n        /* \"C/centralLimitOrderBooks.sol\":3658:3671  orders.length */\n      dup1\n      sload\n      swap1\n      pop\n        /* \"C/centralLimitOrderBooks.sol\":3654:3655  i */\n      dup2\n        /* \"C/centralLimitOrderBooks.sol\":3654:3671  i < orders.length */\n      lt\n        /* \"C/centralLimitOrderBooks.sol\":3634:3780  for (uint256 i = 0; i < orders.length; i++) {... */\n      iszero\n      tag_82\n      jumpi\n        /* \"C/centralLimitOrderBooks.sol\":3712:3719  orderId */\n      dup3\n        /* \"C/centralLimitOrderBooks.sol\":3696:3702  orders */\n      0x00\n        /* \"C/centralLimitOrderBooks.sol\":3703:3704  i */\n      dup3\n        /* \"C/centralLimitOrderBooks.sol\":3696:3705  orders[i] */\n      dup2\n      sload\n      dup2\n      lt\n      tag_84\n      jumpi\n      tag_85\n      tag_39\n      jump\t// in\n    tag_85:\n    tag_84:\n      swap1\n      0x00\n      mstore\n      keccak256(0x00, 0x20)\n      swap1\n      0x05\n      mul\n      add\n        /* \"C/centralLimitOrderBooks.sol\":3696:3708  orders[i].id */\n      0x00\n      add\n      sload\n        /* \"C/centralLimitOrderBooks.sol\":3696:3719  orders[i].id == orderId */\n      sub\n        /* \"C/centralLimitOrderBooks.sol\":3692:3770  if (orders[i].id == orderId) {... */\n      tag_87\n      jumpi\n        /* \"C/centralLimitOrderBooks.sol\":3746:3752  orders */\n      0x00\n        /* \"C/centralLimitOrderBooks.sol\":3753:3754  i */\n      dup2\n        /* \"C/centralLimitOrderBooks.sol\":3746:3755  orders[i] */\n      dup2\n      sload\n      dup2\n      lt\n      tag_88\n      jumpi\n      tag_89\n      tag_39\n      jump\t// in\n    tag_89:\n    tag_88:\n      swap1\n      0x00\n      mstore\n      keccak256(0x00, 0x20)\n      swap1\n      0x05\n      mul\n      add\n        /* \"C/centralLimitOrderBooks.sol\":3739:3755  return orders[i] */\n      mload(0x40)\n      dup1\n      0xc0\n      add\n      0x40\n      mstore\n      swap1\n      dup2\n      0x00\n      dup3\n      add\n      sload\n      dup2\n      mstore\n      0x20\n      add\n      0x01\n      dup3\n      add\n      0x00\n      swap1\n      sload\n      swap1\n      0x0100\n      exp\n      swap1\n      div\n      0xffffffffffffffffffffffffffffffffffffffff\n      and\n      0xffffffffffffffffffffffffffffffffffffffff\n      and\n      0xffffffffffffffffffffffffffffffffffffffff\n      and\n      dup2\n      mstore\n      0x20\n      add\n      0x01\n      dup3\n      add\n      0x14\n      swap1\n      sload\n      swap1\n      0x0100\n      exp\n      swap1\n      div\n      0xff\n      and\n      iszero\n      iszero\n      iszero\n      iszero\n      dup2\n      mstore\n      0x20\n      add\n      0x02\n      dup3\n      add\n      sload\n      dup2\n      mstore\n      0x20\n      add\n      0x03\n      dup3\n      add\n      sload\n      dup2\n      mstore\n      0x20\n      add\n      0x04\n      dup3\n      add\n      0x00\n      swap1\n      sload\n      swap1\n      0x0100\n      exp\n      swap1\n      div\n      0xff\n      and\n      iszero\n      iszero\n      iszero\n      iszero\n      dup2\n      mstore\n      pop\n      pop\n      swap2\n      pop\n      pop\n      jump(tag_80)\n        /* \"C/centralLimitOrderBooks.sol\":3692:3770  if (orders[i].id == orderId) {... */\n    tag_87:\n        /* \"C/centralLimitOrderBooks.sol\":3673:3676  i++ */\n      dup1\n      dup1\n      tag_91\n      swap1\n      tag_62\n      jump\t// in\n    tag_91:\n      swap2\n      pop\n      pop\n        /* \"C/centralLimitOrderBooks.sol\":3634:3780  for (uint256 i = 0; i < orders.length; i++) {... */\n      jump(tag_81)\n    tag_82:\n      pop\n        /* \"C/centralLimitOrderBooks.sol\":3789:3814  revert(\"Order not found\") */\n      mload(0x40)\n      0x08c379a000000000000000000000000000000000000000000000000000000000\n      dup2\n      mstore\n      0x04\n      add\n      tag_92\n      swap1\n      tag_93\n      jump\t// in\n    tag_92:\n      mload(0x40)\n      dup1\n      swap2\n      sub\n      swap1\n      revert\n        /* \"C/centralLimitOrderBooks.sol\":3552:3821  function getOrder(uint256 orderId) external view returns (Order memory) {... */\n    tag_80:\n      swap2\n      swap1\n      pop\n      jump\t// out\n    tag_79:\n      mload(0x40)\n      dup1\n      0xc0\n      add\n      0x40\n      mstore\n      dup1\n      0x00\n      dup2\n      mstore\n      0x20\n      add\n      and(0xffffffffffffffffffffffffffffffffffffffff, 0x00)\n      dup2\n      mstore\n      0x20\n      add\n      iszero(iszero(0x00))\n      dup2\n      mstore\n      0x20\n      add\n      0x00\n      dup2\n      mstore\n      0x20\n      add\n      0x00\n      dup2\n      mstore\n      0x20\n      add\n      iszero(iszero(0x00))\n      dup2\n      mstore\n      pop\n      swap1\n      jump\t// out\n        /* \"#utility.yul\":7:84   */\n    tag_94:\n        /* \"#utility.yul\":44:51   */\n      0x00\n        /* \"#utility.yul\":73:78   */\n      dup2\n        /* \"#utility.yul\":62:78   */\n      swap1\n      pop\n        /* \"#utility.yul\":7:84   */\n      swap2\n      swap1\n      pop\n      jump\t// out\n        /* \"#utility.yul\":90:208   */\n    tag_95:\n        /* \"#utility.yul\":177:201   */\n      tag_123\n        /* \"#utility.yul\":195:200   */\n      dup2\n        /* \"#utility.yul\":177:201   */\n      tag_94\n      jump\t// in\n    tag_123:\n        /* \"#utility.yul\":172:175   */\n      dup3\n        /* \"#utility.yul\":165:202   */\n      mstore\n        /* \"#utility.yul\":90:208   */\n      pop\n      pop\n      jump\t// out\n        /* \"#utility.yul\":214:436   */\n    tag_12:\n        /* \"#utility.yul\":307:311   */\n      0x00\n        /* \"#utility.yul\":345:347   */\n      0x20\n        /* \"#utility.yul\":334:343   */\n      dup3\n        /* \"#utility.yul\":330:348   */\n      add\n        /* \"#utility.yul\":322:348   */\n      swap1\n      pop\n        /* \"#utility.yul\":358:429   */\n      tag_125\n        /* \"#utility.yul\":426:427   */\n      0x00\n        /* \"#utility.yul\":415:424   */\n      dup4\n        /* \"#utility.yul\":411:428   */\n      add\n        /* \"#utility.yul\":402:408   */\n      dup5\n        /* \"#utility.yul\":358:429   */\n      tag_95\n      jump\t// in\n    tag_125:\n        /* \"#utility.yul\":214:436   */\n      swap3\n      swap2\n      pop\n      pop\n      jump\t// out\n        /* \"#utility.yul\":523:640   */\n    tag_97:\n        /* \"#utility.yul\":632:633   */\n      0x00\n        /* \"#utility.yul\":629:630   */\n      dup1\n        /* \"#utility.yul\":622:634   */\n      revert\n        /* \"#utility.yul\":769:891   */\n    tag_99:\n        /* \"#utility.yul\":842:866   */\n      tag_130\n        /* \"#utility.yul\":860:865   */\n      dup2\n        /* \"#utility.yul\":842:866   */\n      tag_94\n      jump\t// in\n    tag_130:\n        /* \"#utility.yul\":835:840   */\n      dup2\n        /* \"#utility.yul\":832:867   */\n      eq\n        /* \"#utility.yul\":822:885   */\n      tag_131\n      jumpi\n        /* \"#utility.yul\":881:882   */\n      0x00\n        /* \"#utility.yul\":878:879   */\n      dup1\n        /* \"#utility.yul\":871:883   */\n      revert\n        /* \"#utility.yul\":822:885   */\n    tag_131:\n        /* \"#utility.yul\":769:891   */\n      pop\n      jump\t// out\n        /* \"#utility.yul\":897:1036   */\n    tag_100:\n        /* \"#utility.yul\":943:948   */\n      0x00\n        /* \"#utility.yul\":981:987   */\n      dup2\n        /* \"#utility.yul\":968:988   */\n      calldataload\n        /* \"#utility.yul\":959:988   */\n      swap1\n      pop\n        /* \"#utility.yul\":997:1030   */\n      tag_133\n        /* \"#utility.yul\":1024:1029   */\n      dup2\n        /* \"#utility.yul\":997:1030   */\n      tag_99\n      jump\t// in\n    tag_133:\n        /* \"#utility.yul\":897:1036   */\n      swap3\n      swap2\n      pop\n      pop\n      jump\t// out\n        /* \"#utility.yul\":1042:1371   */\n    tag_20:\n        /* \"#utility.yul\":1101:1107   */\n      0x00\n        /* \"#utility.yul\":1150:1152   */\n      0x20\n        /* \"#utility.yul\":1138:1147   */\n      dup3\n        /* \"#utility.yul\":1129:1136   */\n      dup5\n        /* \"#utility.yul\":1125:1148   */\n      sub\n        /* \"#utility.yul\":1121:1153   */\n      slt\n        /* \"#utility.yul\":1118:1237   */\n      iszero\n      tag_135\n      jumpi\n        /* \"#utility.yul\":1156:1235   */\n      tag_136\n      tag_97\n      jump\t// in\n    tag_136:\n        /* \"#utility.yul\":1118:1237   */\n    tag_135:\n        /* \"#utility.yul\":1276:1277   */\n      0x00\n        /* \"#utility.yul\":1301:1354   */\n      tag_137\n        /* \"#utility.yul\":1346:1353   */\n      dup5\n        /* \"#utility.yul\":1337:1343   */\n      dup3\n        /* \"#utility.yul\":1326:1335   */\n      dup6\n        /* \"#utility.yul\":1322:1344   */\n      add\n        /* \"#utility.yul\":1301:1354   */\n      tag_100\n      jump\t// in\n    tag_137:\n        /* \"#utility.yul\":1291:1354   */\n      swap2\n      pop\n        /* \"#utility.yul\":1247:1364   */\n      pop\n        /* \"#utility.yul\":1042:1371   */\n      swap3\n      swap2\n      pop\n      pop\n      jump\t// out\n        /* \"#utility.yul\":1377:1503   */\n    tag_101:\n        /* \"#utility.yul\":1414:1421   */\n      0x00\n        /* \"#utility.yul\":1454:1496   */\n      0xffffffffffffffffffffffffffffffffffffffff\n        /* \"#utility.yul\":1447:1452   */\n      dup3\n        /* \"#utility.yul\":1443:1497   */\n      and\n        /* \"#utility.yul\":1432:1497   */\n      swap1\n      pop\n        /* \"#utility.yul\":1377:1503   */\n      swap2\n      swap1\n      pop\n      jump\t// out\n        /* \"#utility.yul\":1509:1605   */\n    tag_102:\n        /* \"#utility.yul\":1546:1553   */\n      0x00\n        /* \"#utility.yul\":1575:1599   */\n      tag_140\n        /* \"#utility.yul\":1593:1598   */\n      dup3\n        /* \"#utility.yul\":1575:1599   */\n      tag_101\n      jump\t// in\n    tag_140:\n        /* \"#utility.yul\":1564:1599   */\n      swap1\n      pop\n        /* \"#utility.yul\":1509:1605   */\n      swap2\n      swap1\n      pop\n      jump\t// out\n        /* \"#utility.yul\":1611:1729   */\n    tag_103:\n        /* \"#utility.yul\":1698:1722   */\n      tag_142\n        /* \"#utility.yul\":1716:1721   */\n      dup2\n        /* \"#utility.yul\":1698:1722   */\n      tag_102\n      jump\t// in\n    tag_142:\n        /* \"#utility.yul\":1693:1696   */\n      dup3\n        /* \"#utility.yul\":1686:1723   */\n      mstore\n        /* \"#utility.yul\":1611:1729   */\n      pop\n      pop\n      jump\t// out\n        /* \"#utility.yul\":1735:1825   */\n    tag_104:\n        /* \"#utility.yul\":1769:1776   */\n      0x00\n        /* \"#utility.yul\":1812:1817   */\n      dup2\n        /* \"#utility.yul\":1805:1818   */\n      iszero\n        /* \"#utility.yul\":1798:1819   */\n      iszero\n        /* \"#utility.yul\":1787:1819   */\n      swap1\n      pop\n        /* \"#utility.yul\":1735:1825   */\n      swap2\n      swap1\n      pop\n      jump\t// out\n        /* \"#utility.yul\":1831:1940   */\n    tag_105:\n        /* \"#utility.yul\":1912:1933   */\n      tag_145\n        /* \"#utility.yul\":1927:1932   */\n      dup2\n        /* \"#utility.yul\":1912:1933   */\n      tag_104\n      jump\t// in\n    tag_145:\n        /* \"#utility.yul\":1907:1910   */\n      dup3\n        /* \"#utility.yul\":1900:1934   */\n      mstore\n        /* \"#utility.yul\":1831:1940   */\n      pop\n      pop\n      jump\t// out\n        /* \"#utility.yul\":1946:2697   */\n    tag_23:\n        /* \"#utility.yul\":2167:2171   */\n      0x00\n        /* \"#utility.yul\":2205:2208   */\n      0xc0\n        /* \"#utility.yul\":2194:2203   */\n      dup3\n        /* \"#utility.yul\":2190:2209   */\n      add\n        /* \"#utility.yul\":2182:2209   */\n      swap1\n      pop\n        /* \"#utility.yul\":2219:2290   */\n      tag_147\n        /* \"#utility.yul\":2287:2288   */\n      0x00\n        /* \"#utility.yul\":2276:2285   */\n      dup4\n        /* \"#utility.yul\":2272:2289   */\n      add\n        /* \"#utility.yul\":2263:2269   */\n      dup10\n        /* \"#utility.yul\":2219:2290   */\n      tag_95\n      jump\t// in\n    tag_147:\n        /* \"#utility.yul\":2300:2372   */\n      tag_148\n        /* \"#utility.yul\":2368:2370   */\n      0x20\n        /* \"#utility.yul\":2357:2366   */\n      dup4\n        /* \"#utility.yul\":2353:2371   */\n      add\n        /* \"#utility.yul\":2344:2350   */\n      dup9\n        /* \"#utility.yul\":2300:2372   */\n      tag_103\n      jump\t// in\n    tag_148:\n        /* \"#utility.yul\":2382:2448   */\n      tag_149\n        /* \"#utility.yul\":2444:2446   */\n      0x40\n        /* \"#utility.yul\":2433:2442   */\n      dup4\n        /* \"#utility.yul\":2429:2447   */\n      add\n        /* \"#utility.yul\":2420:2426   */\n      dup8\n        /* \"#utility.yul\":2382:2448   */\n      tag_105\n      jump\t// in\n    tag_149:\n        /* \"#utility.yul\":2458:2530   */\n      tag_150\n        /* \"#utility.yul\":2526:2528   */\n      0x60\n        /* \"#utility.yul\":2515:2524   */\n      dup4\n        /* \"#utility.yul\":2511:2529   */\n      add\n        /* \"#utility.yul\":2502:2508   */\n      dup7\n        /* \"#utility.yul\":2458:2530   */\n      tag_95\n      jump\t// in\n    tag_150:\n        /* \"#utility.yul\":2540:2613   */\n      tag_151\n        /* \"#utility.yul\":2608:2611   */\n      0x80\n        /* \"#utility.yul\":2597:2606   */\n      dup4\n        /* \"#utility.yul\":2593:2612   */\n      add\n        /* \"#utility.yul\":2584:2590   */\n      dup6\n        /* \"#utility.yul\":2540:2613   */\n      tag_95\n      jump\t// in\n    tag_151:\n        /* \"#utility.yul\":2623:2690   */\n      tag_152\n        /* \"#utility.yul\":2685:2688   */\n      0xa0\n        /* \"#utility.yul\":2674:2683   */\n      dup4\n        /* \"#utility.yul\":2670:2689   */\n      add\n        /* \"#utility.yul\":2661:2667   */\n      dup5\n        /* \"#utility.yul\":2623:2690   */\n      tag_105\n      jump\t// in\n    tag_152:\n        /* \"#utility.yul\":1946:2697   */\n      swap8\n      swap7\n      pop\n      pop\n      pop\n      pop\n      pop\n      pop\n      pop\n      jump\t// out\n        /* \"#utility.yul\":2703:2819   */\n    tag_106:\n        /* \"#utility.yul\":2773:2794   */\n      tag_154\n        /* \"#utility.yul\":2788:2793   */\n      dup2\n        /* \"#utility.yul\":2773:2794   */\n      tag_104\n      jump\t// in\n    tag_154:\n        /* \"#utility.yul\":2766:2771   */\n      dup2\n        /* \"#utility.yul\":2763:2795   */\n      eq\n        /* \"#utility.yul\":2753:2813   */\n      tag_155\n      jumpi\n        /* \"#utility.yul\":2809:2810   */\n      0x00\n        /* \"#utility.yul\":2806:2807   */\n      dup1\n        /* \"#utility.yul\":2799:2811   */\n      revert\n        /* \"#utility.yul\":2753:2813   */\n    tag_155:\n        /* \"#utility.yul\":2703:2819   */\n      pop\n      jump\t// out\n        /* \"#utility.yul\":2825:2958   */\n    tag_107:\n        /* \"#utility.yul\":2868:2873   */\n      0x00\n        /* \"#utility.yul\":2906:2912   */\n      dup2\n        /* \"#utility.yul\":2893:2913   */\n      calldataload\n        /* \"#utility.yul\":2884:2913   */\n      swap1\n      pop\n        /* \"#utility.yul\":2922:2952   */\n      tag_157\n        /* \"#utility.yul\":2946:2951   */\n      dup2\n        /* \"#utility.yul\":2922:2952   */\n      tag_106\n      jump\t// in\n    tag_157:\n        /* \"#utility.yul\":2825:2958   */\n      swap3\n      swap2\n      pop\n      pop\n      jump\t// out\n        /* \"#utility.yul\":2964:3577   */\n    tag_26:\n        /* \"#utility.yul\":3038:3044   */\n      0x00\n        /* \"#utility.yul\":3046:3052   */\n      dup1\n        /* \"#utility.yul\":3054:3060   */\n      0x00\n        /* \"#utility.yul\":3103:3105   */\n      0x60\n        /* \"#utility.yul\":3091:3100   */\n      dup5\n        /* \"#utility.yul\":3082:3089   */\n      dup7\n        /* \"#utility.yul\":3078:3101   */\n      sub\n        /* \"#utility.yul\":3074:3106   */\n      slt\n        /* \"#utility.yul\":3071:3190   */\n      iszero\n      tag_159\n      jumpi\n        /* \"#utility.yul\":3109:3188   */\n      tag_160\n      tag_97\n      jump\t// in\n    tag_160:\n        /* \"#utility.yul\":3071:3190   */\n    tag_159:\n        /* \"#utility.yul\":3229:3230   */\n      0x00\n        /* \"#utility.yul\":3254:3304   */\n      tag_161\n        /* \"#utility.yul\":3296:3303   */\n      dup7\n        /* \"#utility.yul\":3287:3293   */\n      dup3\n        /* \"#utility.yul\":3276:3285   */\n      dup8\n        /* \"#utility.yul\":3272:3294   */\n      add\n        /* \"#utility.yul\":3254:3304   */\n      tag_107\n      jump\t// in\n    tag_161:\n        /* \"#utility.yul\":3244:3304   */\n      swap4\n      pop\n        /* \"#utility.yul\":3200:3314   */\n      pop\n        /* \"#utility.yul\":3353:3355   */\n      0x20\n        /* \"#utility.yul\":3379:3432   */\n      tag_162\n        /* \"#utility.yul\":3424:3431   */\n      dup7\n        /* \"#utility.yul\":3415:3421   */\n      dup3\n        /* \"#utility.yul\":3404:3413   */\n      dup8\n        /* \"#utility.yul\":3400:3422   */\n      add\n        /* \"#utility.yul\":3379:3432   */\n      tag_100\n      jump\t// in\n    tag_162:\n        /* \"#utility.yul\":3369:3432   */\n      swap3\n      pop\n        /* \"#utility.yul\":3324:3442   */\n      pop\n        /* \"#utility.yul\":3481:3483   */\n      0x40\n        /* \"#utility.yul\":3507:3560   */\n      tag_163\n        /* \"#utility.yul\":3552:3559   */\n      dup7\n        /* \"#utility.yul\":3543:3549   */\n      dup3\n        /* \"#utility.yul\":3532:3541   */\n      dup8\n        /* \"#utility.yul\":3528:3550   */\n      add\n        /* \"#utility.yul\":3507:3560   */\n      tag_100\n      jump\t// in\n    tag_163:\n        /* \"#utility.yul\":3497:3560   */\n      swap2\n      pop\n        /* \"#utility.yul\":3452:3570   */\n      pop\n        /* \"#utility.yul\":2964:3577   */\n      swap3\n      pop\n      swap3\n      pop\n      swap3\n      jump\t// out\n        /* \"#utility.yul\":3583:3691   */\n    tag_108:\n        /* \"#utility.yul\":3660:3684   */\n      tag_165\n        /* \"#utility.yul\":3678:3683   */\n      dup2\n        /* \"#utility.yul\":3660:3684   */\n      tag_94\n      jump\t// in\n    tag_165:\n        /* \"#utility.yul\":3655:3658   */\n      dup3\n        /* \"#utility.yul\":3648:3685   */\n      mstore\n        /* \"#utility.yul\":3583:3691   */\n      pop\n      pop\n      jump\t// out\n        /* \"#utility.yul\":3697:3805   */\n    tag_109:\n        /* \"#utility.yul\":3774:3798   */\n      tag_167\n        /* \"#utility.yul\":3792:3797   */\n      dup2\n        /* \"#utility.yul\":3774:3798   */\n      tag_102\n      jump\t// in\n    tag_167:\n        /* \"#utility.yul\":3769:3772   */\n      dup3\n        /* \"#utility.yul\":3762:3799   */\n      mstore\n        /* \"#utility.yul\":3697:3805   */\n      pop\n      pop\n      jump\t// out\n        /* \"#utility.yul\":3811:3910   */\n    tag_110:\n        /* \"#utility.yul\":3882:3903   */\n      tag_169\n        /* \"#utility.yul\":3897:3902   */\n      dup2\n        /* \"#utility.yul\":3882:3903   */\n      tag_104\n      jump\t// in\n    tag_169:\n        /* \"#utility.yul\":3877:3880   */\n      dup3\n        /* \"#utility.yul\":3870:3904   */\n      mstore\n        /* \"#utility.yul\":3811:3910   */\n      pop\n      pop\n      jump\t// out\n        /* \"#utility.yul\":3996:5185   */\n    tag_111:\n        /* \"#utility.yul\":4135:4139   */\n      0xc0\n        /* \"#utility.yul\":4130:4133   */\n      dup3\n        /* \"#utility.yul\":4126:4140   */\n      add\n        /* \"#utility.yul\":4220:4224   */\n      0x00\n        /* \"#utility.yul\":4213:4218   */\n      dup3\n        /* \"#utility.yul\":4209:4225   */\n      add\n        /* \"#utility.yul\":4203:4226   */\n      mload\n        /* \"#utility.yul\":4239:4302   */\n      tag_171\n        /* \"#utility.yul\":4296:4300   */\n      0x00\n        /* \"#utility.yul\":4291:4294   */\n      dup6\n        /* \"#utility.yul\":4287:4301   */\n      add\n        /* \"#utility.yul\":4273:4285   */\n      dup3\n        /* \"#utility.yul\":4239:4302   */\n      tag_108\n      jump\t// in\n    tag_171:\n        /* \"#utility.yul\":4150:4312   */\n      pop\n        /* \"#utility.yul\":4396:4400   */\n      0x20\n        /* \"#utility.yul\":4389:4394   */\n      dup3\n        /* \"#utility.yul\":4385:4401   */\n      add\n        /* \"#utility.yul\":4379:4402   */\n      mload\n        /* \"#utility.yul\":4415:4478   */\n      tag_172\n        /* \"#utility.yul\":4472:4476   */\n      0x20\n        /* \"#utility.yul\":4467:4470   */\n      dup6\n        /* \"#utility.yul\":4463:4477   */\n      add\n        /* \"#utility.yul\":4449:4461   */\n      dup3\n        /* \"#utility.yul\":4415:4478   */\n      tag_109\n      jump\t// in\n    tag_172:\n        /* \"#utility.yul\":4322:4488   */\n      pop\n        /* \"#utility.yul\":4571:4575   */\n      0x40\n        /* \"#utility.yul\":4564:4569   */\n      dup3\n        /* \"#utility.yul\":4560:4576   */\n      add\n        /* \"#utility.yul\":4554:4577   */\n      mload\n        /* \"#utility.yul\":4590:4647   */\n      tag_173\n        /* \"#utility.yul\":4641:4645   */\n      0x40\n        /* \"#utility.yul\":4636:4639   */\n      dup6\n        /* \"#utility.yul\":4632:4646   */\n      add\n        /* \"#utility.yul\":4618:4630   */\n      dup3\n        /* \"#utility.yul\":4590:4647   */\n      tag_110\n      jump\t// in\n    tag_173:\n        /* \"#utility.yul\":4498:4657   */\n      pop\n        /* \"#utility.yul\":4740:4744   */\n      0x60\n        /* \"#utility.yul\":4733:4738   */\n      dup3\n        /* \"#utility.yul\":4729:4745   */\n      add\n        /* \"#utility.yul\":4723:4746   */\n      mload\n        /* \"#utility.yul\":4759:4822   */\n      tag_174\n        /* \"#utility.yul\":4816:4820   */\n      0x60\n        /* \"#utility.yul\":4811:4814   */\n      dup6\n        /* \"#utility.yul\":4807:4821   */\n      add\n        /* \"#utility.yul\":4793:4805   */\n      dup3\n        /* \"#utility.yul\":4759:4822   */\n      tag_108\n      jump\t// in\n    tag_174:\n        /* \"#utility.yul\":4667:4832   */\n      pop\n        /* \"#utility.yul\":4916:4920   */\n      0x80\n        /* \"#utility.yul\":4909:4914   */\n      dup3\n        /* \"#utility.yul\":4905:4921   */\n      add\n        /* \"#utility.yul\":4899:4922   */\n      mload\n        /* \"#utility.yul\":4935:4998   */\n      tag_175\n        /* \"#utility.yul\":4992:4996   */\n      0x80\n        /* \"#utility.yul\":4987:4990   */\n      dup6\n        /* \"#utility.yul\":4983:4997   */\n      add\n        /* \"#utility.yul\":4969:4981   */\n      dup3\n        /* \"#utility.yul\":4935:4998   */\n      tag_108\n      jump\t// in\n    tag_175:\n        /* \"#utility.yul\":4842:5008   */\n      pop\n        /* \"#utility.yul\":5092:5096   */\n      0xa0\n        /* \"#utility.yul\":5085:5090   */\n      dup3\n        /* \"#utility.yul\":5081:5097   */\n      add\n        /* \"#utility.yul\":5075:5098   */\n      mload\n        /* \"#utility.yul\":5111:5168   */\n      tag_176\n        /* \"#utility.yul\":5162:5166   */\n      0xa0\n        /* \"#utility.yul\":5157:5160   */\n      dup6\n        /* \"#utility.yul\":5153:5167   */\n      add\n        /* \"#utility.yul\":5139:5151   */\n      dup3\n        /* \"#utility.yul\":5111:5168   */\n      tag_110\n      jump\t// in\n    tag_176:\n        /* \"#utility.yul\":5018:5178   */\n      pop\n        /* \"#utility.yul\":4104:5185   */\n      pop\n        /* \"#utility.yul\":3996:5185   */\n      pop\n      pop\n      jump\t// out\n        /* \"#utility.yul\":5191:5498   */\n    tag_32:\n        /* \"#utility.yul\":5326:5330   */\n      0x00\n        /* \"#utility.yul\":5364:5367   */\n      0xc0\n        /* \"#utility.yul\":5353:5362   */\n      dup3\n        /* \"#utility.yul\":5349:5368   */\n      add\n        /* \"#utility.yul\":5341:5368   */\n      swap1\n      pop\n        /* \"#utility.yul\":5378:5491   */\n      tag_178\n        /* \"#utility.yul\":5488:5489   */\n      0x00\n        /* \"#utility.yul\":5477:5486   */\n      dup4\n        /* \"#utility.yul\":5473:5490   */\n      add\n        /* \"#utility.yul\":5464:5470   */\n      dup5\n        /* \"#utility.yul\":5378:5491   */\n      tag_111\n      jump\t// in\n    tag_178:\n        /* \"#utility.yul\":5191:5498   */\n      swap3\n      swap2\n      pop\n      pop\n      jump\t// out\n        /* \"#utility.yul\":5504:5684   */\n    tag_39:\n        /* \"#utility.yul\":5552:5629   */\n      0x4e487b7100000000000000000000000000000000000000000000000000000000\n        /* \"#utility.yul\":5549:5550   */\n      0x00\n        /* \"#utility.yul\":5542:5630   */\n      mstore\n        /* \"#utility.yul\":5649:5653   */\n      0x32\n        /* \"#utility.yul\":5646:5647   */\n      0x04\n        /* \"#utility.yul\":5639:5654   */\n      mstore\n        /* \"#utility.yul\":5673:5677   */\n      0x24\n        /* \"#utility.yul\":5670:5671   */\n      0x00\n        /* \"#utility.yul\":5663:5678   */\n      revert\n        /* \"#utility.yul\":5690:5870   */\n    tag_112:\n        /* \"#utility.yul\":5738:5815   */\n      0x4e487b7100000000000000000000000000000000000000000000000000000000\n        /* \"#utility.yul\":5735:5736   */\n      0x00\n        /* \"#utility.yul\":5728:5816   */\n      mstore\n        /* \"#utility.yul\":5835:5839   */\n      0x11\n        /* \"#utility.yul\":5832:5833   */\n      0x04\n        /* \"#utility.yul\":5825:5840   */\n      mstore\n        /* \"#utility.yul\":5859:5863   */\n      0x24\n        /* \"#utility.yul\":5856:5857   */\n      0x00\n        /* \"#utility.yul\":5849:5864   */\n      revert\n        /* \"#utility.yul\":5876:6070   */\n    tag_55:\n        /* \"#utility.yul\":5916:5920   */\n      0x00\n        /* \"#utility.yul\":5936:5956   */\n      tag_182\n        /* \"#utility.yul\":5954:5955   */\n      dup3\n        /* \"#utility.yul\":5936:5956   */\n      tag_94\n      jump\t// in\n    tag_182:\n        /* \"#utility.yul\":5931:5956   */\n      swap2\n      pop\n        /* \"#utility.yul\":5970:5990   */\n      tag_183\n        /* \"#utility.yul\":5988:5989   */\n      dup4\n        /* \"#utility.yul\":5970:5990   */\n      tag_94\n      jump\t// in\n    tag_183:\n        /* \"#utility.yul\":5965:5990   */\n      swap3\n      pop\n        /* \"#utility.yul\":6014:6015   */\n      dup3\n        /* \"#utility.yul\":6011:6012   */\n      dup3\n        /* \"#utility.yul\":6007:6016   */\n      sub\n        /* \"#utility.yul\":5999:6016   */\n      swap1\n      pop\n        /* \"#utility.yul\":6038:6039   */\n      dup2\n        /* \"#utility.yul\":6032:6036   */\n      dup2\n        /* \"#utility.yul\":6029:6040   */\n      gt\n        /* \"#utility.yul\":6026:6063   */\n      iszero\n      tag_184\n      jumpi\n        /* \"#utility.yul\":6043:6061   */\n      tag_185\n      tag_112\n      jump\t// in\n    tag_185:\n        /* \"#utility.yul\":6026:6063   */\n    tag_184:\n        /* \"#utility.yul\":5876:6070   */\n      swap3\n      swap2\n      pop\n      pop\n      jump\t// out\n        /* \"#utility.yul\":6076:6408   */\n    tag_58:\n        /* \"#utility.yul\":6197:6201   */\n      0x00\n        /* \"#utility.yul\":6235:6237   */\n      0x40\n        /* \"#utility.yul\":6224:6233   */\n      dup3\n        /* \"#utility.yul\":6220:6238   */\n      add\n        /* \"#utility.yul\":6212:6238   */\n      swap1\n      pop\n        /* \"#utility.yul\":6248:6319   */\n      tag_187\n        /* \"#utility.yul\":6316:6317   */\n      0x00\n        /* \"#utility.yul\":6305:6314   */\n      dup4\n        /* \"#utility.yul\":6301:6318   */\n      add\n        /* \"#utility.yul\":6292:6298   */\n      dup6\n        /* \"#utility.yul\":6248:6319   */\n      tag_95\n      jump\t// in\n    tag_187:\n        /* \"#utility.yul\":6329:6401   */\n      tag_188\n        /* \"#utility.yul\":6397:6399   */\n      0x20\n        /* \"#utility.yul\":6386:6395   */\n      dup4\n        /* \"#utility.yul\":6382:6400   */\n      add\n        /* \"#utility.yul\":6373:6379   */\n      dup5\n        /* \"#utility.yul\":6329:6401   */\n      tag_95\n      jump\t// in\n    tag_188:\n        /* \"#utility.yul\":6076:6408   */\n      swap4\n      swap3\n      pop\n      pop\n      pop\n      jump\t// out\n        /* \"#utility.yul\":6414:6647   */\n    tag_62:\n        /* \"#utility.yul\":6453:6456   */\n      0x00\n        /* \"#utility.yul\":6476:6500   */\n      tag_190\n        /* \"#utility.yul\":6494:6499   */\n      dup3\n        /* \"#utility.yul\":6476:6500   */\n      tag_94\n      jump\t// in\n    tag_190:\n        /* \"#utility.yul\":6467:6500   */\n      swap2\n      pop\n        /* \"#utility.yul\":6522:6588   */\n      0xffffffffffffffffffffffffffffffffffffffffffffffffffffffffffffffff\n        /* \"#utility.yul\":6515:6520   */\n      dup3\n        /* \"#utility.yul\":6512:6589   */\n      sub\n        /* \"#utility.yul\":6509:6612   */\n      tag_191\n      jumpi\n        /* \"#utility.yul\":6592:6610   */\n      tag_192\n      tag_112\n      jump\t// in\n    tag_192:\n        /* \"#utility.yul\":6509:6612   */\n    tag_191:\n        /* \"#utility.yul\":6639:6640   */\n      0x01\n        /* \"#utility.yul\":6632:6637   */\n      dup3\n        /* \"#utility.yul\":6628:6641   */\n      add\n        /* \"#utility.yul\":6621:6641   */\n      swap1\n      pop\n        /* \"#utility.yul\":6414:6647   */\n      swap2\n      swap1\n      pop\n      jump\t// out\n        /* \"#utility.yul\":6653:6822   */\n    tag_113:\n        /* \"#utility.yul\":6737:6748   */\n      0x00\n        /* \"#utility.yul\":6771:6777   */\n      dup3\n        /* \"#utility.yul\":6766:6769   */\n      dup3\n        /* \"#utility.yul\":6759:6778   */\n      mstore\n        /* \"#utility.yul\":6811:6815   */\n      0x20\n        /* \"#utility.yul\":6806:6809   */\n      dup3\n        /* \"#utility.yul\":6802:6816   */\n      add\n        /* \"#utility.yul\":6787:6816   */\n      swap1\n      pop\n        /* \"#utility.yul\":6653:6822   */\n      swap3\n      swap2\n      pop\n      pop\n      jump\t// out\n        /* \"#utility.yul\":6828:6996   */\n    tag_114:\n        /* \"#utility.yul\":6968:6988   */\n      0x416d6f756e74206d757374206265203e20300000000000000000000000000000\n        /* \"#utility.yul\":6964:6965   */\n      0x00\n        /* \"#utility.yul\":6956:6962   */\n      dup3\n        /* \"#utility.yul\":6952:6966   */\n      add\n        /* \"#utility.yul\":6945:6989   */\n      mstore\n        /* \"#utility.yul\":6828:6996   */\n      pop\n      jump\t// out\n        /* \"#utility.yul\":7002:7368   */\n    tag_115:\n        /* \"#utility.yul\":7144:7147   */\n      0x00\n        /* \"#utility.yul\":7165:7232   */\n      tag_196\n        /* \"#utility.yul\":7229:7231   */\n      0x12\n        /* \"#utility.yul\":7224:7227   */\n      dup4\n        /* \"#utility.yul\":7165:7232   */\n      tag_113\n      jump\t// in\n    tag_196:\n        /* \"#utility.yul\":7158:7232   */\n      swap2\n      pop\n        /* \"#utility.yul\":7241:7334   */\n      tag_197\n        /* \"#utility.yul\":7330:7333   */\n      dup3\n        /* \"#utility.yul\":7241:7334   */\n      tag_114\n      jump\t// in\n    tag_197:\n        /* \"#utility.yul\":7359:7361   */\n      0x20\n        /* \"#utility.yul\":7354:7357   */\n      dup3\n        /* \"#utility.yul\":7350:7362   */\n      add\n        /* \"#utility.yul\":7343:7362   */\n      swap1\n      pop\n        /* \"#utility.yul\":7002:7368   */\n      swap2\n      swap1\n      pop\n      jump\t// out\n        /* \"#utility.yul\":7374:7793   */\n    tag_70:\n        /* \"#utility.yul\":7540:7544   */\n      0x00\n        /* \"#utility.yul\":7578:7580   */\n      0x20\n        /* \"#utility.yul\":7567:7576   */\n      dup3\n        /* \"#utility.yul\":7563:7581   */\n      add\n        /* \"#utility.yul\":7555:7581   */\n      swap1\n      pop\n        /* \"#utility.yul\":7627:7636   */\n      dup2\n        /* \"#utility.yul\":7621:7625   */\n      dup2\n        /* \"#utility.yul\":7617:7637   */\n      sub\n        /* \"#utility.yul\":7613:7614   */\n      0x00\n        /* \"#utility.yul\":7602:7611   */\n      dup4\n        /* \"#utility.yul\":7598:7615   */\n      add\n        /* \"#utility.yul\":7591:7638   */\n      mstore\n        /* \"#utility.yul\":7655:7786   */\n      tag_199\n        /* \"#utility.yul\":7781:7785   */\n      dup2\n        /* \"#utility.yul\":7655:7786   */\n      tag_115\n      jump\t// in\n    tag_199:\n        /* \"#utility.yul\":7647:7786   */\n      swap1\n      pop\n        /* \"#utility.yul\":7374:7793   */\n      swap2\n      swap1\n      pop\n      jump\t// out\n        /* \"#utility.yul\":7799:7966   */\n    tag_116:\n        /* \"#utility.yul\":7939:7958   */\n      0x5072696365206d757374206265203e2030000000000000000000000000000000\n        /* \"#utility.yul\":7935:7936   */\n      0x00\n        /* \"#utility.yul\":7927:7933   */\n      dup3\n        /* \"#utility.yul\":7923:7937   */\n      add\n        /* \"#utility.yul\":7916:7959   */\n      mstore\n        /* \"#utility.yul\":7799:7966   */\n      pop\n      jump\t// out\n        /* \"#utility.yul\":7972:8338   */\n    tag_117:\n        /* \"#utility.yul\":8114:8117   */\n      0x00\n        /* \"#utility.yul\":8135:8202   */\n      tag_202\n        /* \"#utility.yul\":8199:8201   */\n      0x11\n        /* \"#utility.yul\":8194:8197   */\n      dup4\n        /* \"#utility.yul\":8135:8202   */\n      tag_113\n      jump\t// in\n    tag_202:\n        /* \"#utility.yul\":8128:8202   */\n      swap2\n      pop\n        /* \"#utility.yul\":8211:8304   */\n      tag_203\n        /* \"#utility.yul\":8300:8303   */\n      dup3\n        /* \"#utility.yul\":8211:8304   */\n      tag_116\n      jump\t// in\n    tag_203:\n        /* \"#utility.yul\":8329:8331   */\n      0x20\n        /* \"#utility.yul\":8324:8327   */\n      dup3\n        /* \"#utility.yul\":8320:8332   */\n      add\n        /* \"#utility.yul\":8313:8332   */\n      swap1\n      pop\n        /* \"#utility.yul\":7972:8338   */\n      swap2\n      swap1\n      pop\n      jump\t// out\n        /* \"#utility.yul\":8344:8763   */\n    tag_73:\n        /* \"#utility.yul\":8510:8514   */\n      0x00\n        /* \"#utility.yul\":8548:8550   */\n      0x20\n        /* \"#utility.yul\":8537:8546   */\n      dup3\n        /* \"#utility.yul\":8533:8551   */\n      add\n        /* \"#utility.yul\":8525:8551   */\n      swap1\n      pop\n        /* \"#utility.yul\":8597:8606   */\n      dup2\n        /* \"#utility.yul\":8591:8595   */\n      dup2\n        /* \"#utility.yul\":8587:8607   */\n      sub\n        /* \"#utility.yul\":8583:8584   */\n      0x00\n        /* \"#utility.yul\":8572:8581   */\n      dup4\n        /* \"#utility.yul\":8568:8585   */\n      add\n        /* \"#utility.yul\":8561:8608   */\n      mstore\n        /* \"#utility.yul\":8625:8756   */\n      tag_205\n        /* \"#utility.yul\":8751:8755   */\n      dup2\n        /* \"#utility.yul\":8625:8756   */\n      tag_117\n      jump\t// in\n    tag_205:\n        /* \"#utility.yul\":8617:8756   */\n      swap1\n      pop\n        /* \"#utility.yul\":8344:8763   */\n      swap2\n      swap1\n      pop\n      jump\t// out\n        /* \"#utility.yul\":8769:9199   */\n    tag_76:\n        /* \"#utility.yul\":8912:8916   */\n      0x00\n        /* \"#utility.yul\":8950:8952   */\n      0x60\n        /* \"#utility.yul\":8939:8948   */\n      dup3\n        /* \"#utility.yul\":8935:8953   */\n      add\n        /* \"#utility.yul\":8927:8953   */\n      swap1\n      pop\n        /* \"#utility.yul\":8963:9028   */\n      tag_207\n        /* \"#utility.yul\":9025:9026   */\n      0x00\n        /* \"#utility.yul\":9014:9023   */\n      dup4\n        /* \"#utility.yul\":9010:9027   */\n      add\n        /* \"#utility.yul\":9001:9007   */\n      dup7\n        /* \"#utility.yul\":8963:9028   */\n      tag_105\n      jump\t// in\n    tag_207:\n        /* \"#utility.yul\":9038:9110   */\n      tag_208\n        /* \"#utility.yul\":9106:9108   */\n      0x20\n        /* \"#utility.yul\":9095:9104   */\n      dup4\n        /* \"#utility.yul\":9091:9109   */\n      add\n        /* \"#utility.yul\":9082:9088   */\n      dup6\n        /* \"#utility.yul\":9038:9110   */\n      tag_95\n      jump\t// in\n    tag_208:\n        /* \"#utility.yul\":9120:9192   */\n      tag_209\n        /* \"#utility.yul\":9188:9190   */\n      0x40\n        /* \"#utility.yul\":9177:9186   */\n      dup4\n        /* \"#utility.yul\":9173:9191   */\n      add\n        /* \"#utility.yul\":9164:9170   */\n      dup5\n        /* \"#utility.yul\":9120:9192   */\n      tag_95\n      jump\t// in\n    tag_209:\n        /* \"#utility.yul\":8769:9199   */\n      swap5\n      swap4\n      pop\n      pop\n      pop\n      pop\n      jump\t// out\n        /* \"#utility.yul\":9205:9370   */\n    tag_118:\n        /* \"#utility.yul\":9345:9362   */\n      0x4f72646572206e6f7420666f756e640000000000000000000000000000000000\n        /* \"#utility.yul\":9341:9342   */\n      0x00\n        /* \"#utility.yul\":9333:9339   */\n      dup3\n        /* \"#utility.yul\":9329:9343   */\n      add\n        /* \"#utility.yul\":9322:9363   */\n      mstore\n        /* \"#utility.yul\":9205:9370   */\n      pop\n      jump\t// out\n        /* \"#utility.yul\":9376:9742   */\n    tag_119:\n        /* \"#utility.yul\":9518:9521   */\n      0x00\n        /* \"#utility.yul\":9539:9606   */\n      tag_212\n        /* \"#utility.yul\":9603:9605   */\n      0x0f\n        /* \"#utility.yul\":9598:9601   */\n      dup4\n        /* \"#utility.yul\":9539:9606   */\n      tag_113\n      jump\t// in\n    tag_212:\n        /* \"#utility.yul\":9532:9606   */\n      swap2\n      pop\n        /* \"#utility.yul\":9615:9708   */\n      tag_213\n        /* \"#utility.yul\":9704:9707   */\n      dup3\n        /* \"#utility.yul\":9615:9708   */\n      tag_118\n      jump\t// in\n    tag_213:\n        /* \"#utility.yul\":9733:9735   */\n      0x20\n        /* \"#utility.yul\":9728:9731   */\n      dup3\n        /* \"#utility.yul\":9724:9736   */\n      add\n        /* \"#utility.yul\":9717:9736   */\n      swap1\n      pop\n        /* \"#utility.yul\":9376:9742   */\n      swap2\n      swap1\n      pop\n      jump\t// out\n        /* \"#utility.yul\":9748:10167   */\n    tag_93:\n        /* \"#utility.yul\":9914:9918   */\n      0x00\n        /* \"#utility.yul\":9952:9954   */\n      0x20\n        /* \"#utility.yul\":9941:9950   */\n      dup3\n        /* \"#utility.yul\":9937:9955   */\n      add\n        /* \"#utility.yul\":9929:9955   */\n      swap1\n      pop\n        /* \"#utility.yul\":10001:10010   */\n      dup2\n        /* \"#utility.yul\":9995:9999   */\n      dup2\n        /* \"#utility.yul\":9991:10011   */\n      sub\n        /* \"#utility.yul\":9987:9988   */\n      0x00\n        /* \"#utility.yul\":9976:9985   */\n      dup4\n        /* \"#utility.yul\":9972:9989   */\n      add\n        /* \"#utility.yul\":9965:10012   */\n      mstore\n        /* \"#utility.yul\":10029:10160   */\n      tag_215\n        /* \"#utility.yul\":10155:10159   */\n      dup2\n        /* \"#utility.yul\":10029:10160   */\n      tag_119\n      jump\t// in\n    tag_215:\n        /* \"#utility.yul\":10021:10160   */\n      swap1\n      pop\n        /* \"#utility.yul\":9748:10167   */\n      swap2\n      swap1\n      pop\n      jump\t// out\n\n    auxdata: 0xa2646970667358221220f5fba3b92d8f0bc9beba393579cc91b0efacee80e20c42556e5a9a61a8f4394664736f6c63430008140033\n}\n",
				"bytecode": {
					"linkReferences": {},
					"object": "608060405234801561000f575f80fd5b50610c9b8061001d5f395ff3fe608060405234801561000f575f80fd5b5060043610610060575f3560e01c80632a58b330146100645780637ee68546146100825780638d0a5fbb1461008c578063a85c38ef146100aa578063ca8b4f7a146100df578063d09ef241146100fb575b5f80fd5b61006c61012b565b604051610079919061078a565b60405180910390f35b61008a610131565b005b61009461032c565b6040516100a1919061078a565b60405180910390f35b6100c460048036038101906100bf91906107d1565b610337565b6040516100d696959493929190610855565b60405180910390f35b6100f960048036038101906100f491906108de565b6103b5565b005b610115600480360381019061011091906107d1565b6105bd565b60405161012291906109d4565b60405180910390f35b60015481565b5f5b5f80549050811015610329575f808281548110610153576101526109ed565b5b905f5260205f2090600502019050806004015f9054906101000a900460ff168061018c57508060010160149054906101000a900460ff16155b156101975750610316565b5f5b5f80549050811015610313575f8082815481106101b9576101b86109ed565b5b905f5260205f2090600502019050806004015f9054906101000a900460ff16806101f157508060010160149054906101000a900460ff165b156101fc5750610300565b80600201548360020154106102fe575f816003015484600301541061022557816003015461022b565b83600301545b905080846003015f8282546102409190610a47565b9250508190555080826003015f82825461025a9190610a47565b92505081905550815f0154845f01547f82877c5945532f956e6718f78f5606b7b5d8efef5e22121a3d9bf4e708873edd84600201548460405161029e929190610a7a565b60405180910390a35f8460030154036102d4576001846004015f6101000a81548160ff0219169083151502179055505050610313565b5f8260030154036102fc576001826004015f6101000a81548160ff0219169083151502179055505b505b505b808061030b90610aa1565b915050610199565b50505b808061032190610aa1565b915050610133565b50565b5f8080549050905090565b5f8181548110610345575f80fd5b905f5260205f2090600502015f91509050805f015490806001015f9054906101000a900473ffffffffffffffffffffffffffffffffffffffff16908060010160149054906101000a900460ff1690806002015490806003015490806004015f9054906101000a900460ff16905086565b5f81116103f7576040517f08c379a00000000000000000000000000000000000000000000000000000000081526004016103ee90610b42565b60405180910390fd5b5f8211610439576040517f08c379a000000000000000000000000000000000000000000000000000000000815260040161043090610baa565b60405180910390fd5b5f6040518060c0016040528060015481526020013373ffffffffffffffffffffffffffffffffffffffff16815260200185151581526020018481526020018381526020015f1515815250908060018154018082558091505060019003905f5260205f2090600502015f909190919091505f820151815f01556020820151816001015f6101000a81548173ffffffffffffffffffffffffffffffffffffffff021916908373ffffffffffffffffffffffffffffffffffffffff16021790555060408201518160010160146101000a81548160ff021916908315150217905550606082015181600201556080820151816003015560a0820151816004015f6101000a81548160ff02191690831515021790555050503373ffffffffffffffffffffffffffffffffffffffff166001547fa8d12dd5402d0aa9ccaa7a1346ef5a510e0c3ee938c13587bf17e59671b2ebee85858560405161059993929190610bc8565b60405180910390a360015f8154809291906105b390610aa1565b9190505550505050565b6105c5610728565b5f5b5f805490508110156106e757825f82815481106105e7576105e66109ed565b5b905f5260205f2090600502015f0154036106d4575f818154811061060e5761060d6109ed565b5b905f5260205f2090600502016040518060c00160405290815f8201548152602001600182015f9054906101000a900473ffffffffffffffffffffffffffffffffffffffff1673ffffffffffffffffffffffffffffffffffffffff1673ffffffffffffffffffffffffffffffffffffffff1681526020016001820160149054906101000a900460ff161515151581526020016002820154815260200160038201548152602001600482015f9054906101000a900460ff161515151581525050915050610723565b80806106df90610aa1565b9150506105c7565b506040517f08c379a000000000000000000000000000000000000000000000000000000000815260040161071a90610c47565b60405180910390fd5b919050565b6040518060c001604052805f81526020015f73ffffffffffffffffffffffffffffffffffffffff1681526020015f151581526020015f81526020015f81526020015f151581525090565b5f819050919050565b61078481610772565b82525050565b5f60208201905061079d5f83018461077b565b92915050565b5f80fd5b6107b081610772565b81146107ba575f80fd5b50565b5f813590506107cb816107a7565b92915050565b5f602082840312156107e6576107e56107a3565b5b5f6107f3848285016107bd565b91505092915050565b5f73ffffffffffffffffffffffffffffffffffffffff82169050919050565b5f610825826107fc565b9050919050565b6108358161081b565b82525050565b5f8115159050919050565b61084f8161083b565b82525050565b5f60c0820190506108685f83018961077b565b610875602083018861082c565b6108826040830187610846565b61088f606083018661077b565b61089c608083018561077b565b6108a960a0830184610846565b979650505050505050565b6108bd8161083b565b81146108c7575f80fd5b50565b5f813590506108d8816108b4565b92915050565b5f805f606084860312156108f5576108f46107a3565b5b5f610902868287016108ca565b9350506020610913868287016107bd565b9250506040610924868287016107bd565b9150509250925092565b61093781610772565b82525050565b6109468161081b565b82525050565b6109558161083b565b82525050565b60c082015f82015161096f5f85018261092e565b506020820151610982602085018261093d565b506040820151610995604085018261094c565b5060608201516109a8606085018261092e565b5060808201516109bb608085018261092e565b5060a08201516109ce60a085018261094c565b50505050565b5f60c0820190506109e75f83018461095b565b92915050565b7f4e487b71000000000000000000000000000000000000000000000000000000005f52603260045260245ffd5b7f4e487b71000000000000000000000000000000000000000000000000000000005f52601160045260245ffd5b5f610a5182610772565b9150610a5c83610772565b9250828203905081811115610a7457610a73610a1a565b5b92915050565b5f604082019050610a8d5f83018561077b565b610a9a602083018461077b565b9392505050565b5f610aab82610772565b91507fffffffffffffffffffffffffffffffffffffffffffffffffffffffffffffffff8203610add57610adc610a1a565b5b600182019050919050565b5f82825260208201905092915050565b7f416d6f756e74206d757374206265203e203000000000000000000000000000005f82015250565b5f610b2c601283610ae8565b9150610b3782610af8565b602082019050919050565b5f6020820190508181035f830152610b5981610b20565b9050919050565b7f5072696365206d757374206265203e20300000000000000000000000000000005f82015250565b5f610b94601183610ae8565b9150610b9f82610b60565b602082019050919050565b5f6020820190508181035f830152610bc181610b88565b9050919050565b5f606082019050610bdb5f830186610846565b610be8602083018561077b565b610bf5604083018461077b565b949350505050565b7f4f72646572206e6f7420666f756e6400000000000000000000000000000000005f82015250565b5f610c31600f83610ae8565b9150610c3c82610bfd565b602082019050919050565b5f6020820190508181035f830152610c5e81610c25565b905091905056fea2646970667358221220f5fba3b92d8f0bc9beba393579cc91b0efacee80e20c42556e5a9a61a8f4394664736f6c63430008140033",
					"opcodes": "PUSH1 0x80 PUSH1 0x40 MSTORE CALLVALUE DUP1 ISZERO PUSH2 0xF JUMPI PUSH0 DUP1 REVERT JUMPDEST POP PUSH2 0xC9B DUP1 PUSH2 0x1D PUSH0 CODECOPY PUSH0 RETURN INVALID PUSH1 0x80 PUSH1 0x40 MSTORE CALLVALUE DUP1 ISZERO PUSH2 0xF JUMPI PUSH0 DUP1 REVERT JUMPDEST POP PUSH1 0x4 CALLDATASIZE LT PUSH2 0x60 JUMPI PUSH0 CALLDATALOAD PUSH1 0xE0 SHR DUP1 PUSH4 0x2A58B330 EQ PUSH2 0x64 JUMPI DUP1 PUSH4 0x7EE68546 EQ PUSH2 0x82 JUMPI DUP1 PUSH4 0x8D0A5FBB EQ PUSH2 0x8C JUMPI DUP1 PUSH4 0xA85C38EF EQ PUSH2 0xAA JUMPI DUP1 PUSH4 0xCA8B4F7A EQ PUSH2 0xDF JUMPI DUP1 PUSH4 0xD09EF241 EQ PUSH2 0xFB JUMPI JUMPDEST PUSH0 DUP1 REVERT JUMPDEST PUSH2 0x6C PUSH2 0x12B JUMP JUMPDEST PUSH1 0x40 MLOAD PUSH2 0x79 SWAP2 SWAP1 PUSH2 0x78A JUMP JUMPDEST PUSH1 0x40 MLOAD DUP1 SWAP2 SUB SWAP1 RETURN JUMPDEST PUSH2 0x8A PUSH2 0x131 JUMP JUMPDEST STOP JUMPDEST PUSH2 0x94 PUSH2 0x32C JUMP JUMPDEST PUSH1 0x40 MLOAD PUSH2 0xA1 SWAP2 SWAP1 PUSH2 0x78A JUMP JUMPDEST PUSH1 0x40 MLOAD DUP1 SWAP2 SUB SWAP1 RETURN JUMPDEST PUSH2 0xC4 PUSH1 0x4 DUP1 CALLDATASIZE SUB DUP2 ADD SWAP1 PUSH2 0xBF SWAP2 SWAP1 PUSH2 0x7D1 JUMP JUMPDEST PUSH2 0x337 JUMP JUMPDEST PUSH1 0x40 MLOAD PUSH2 0xD6 SWAP7 SWAP6 SWAP5 SWAP4 SWAP3 SWAP2 SWAP1 PUSH2 0x855 JUMP JUMPDEST PUSH1 0x40 MLOAD DUP1 SWAP2 SUB SWAP1 RETURN JUMPDEST PUSH2 0xF9 PUSH1 0x4 DUP1 CALLDATASIZE SUB DUP2 ADD SWAP1 PUSH2 0xF4 SWAP2 SWAP1 PUSH2 0x8DE JUMP JUMPDEST PUSH2 0x3B5 JUMP JUMPDEST STOP JUMPDEST PUSH2 0x115 PUSH1 0x4 DUP1 CALLDATASIZE SUB DUP2 ADD SWAP1 PUSH2 0x110 SWAP2 SWAP1 PUSH2 0x7D1 JUMP JUMPDEST PUSH2 0x5BD JUMP JUMPDEST PUSH1 0x40 MLOAD PUSH2 0x122 SWAP2 SWAP1 PUSH2 0x9D4 JUMP JUMPDEST PUSH1 0x40 MLOAD DUP1 SWAP2 SUB SWAP1 RETURN JUMPDEST PUSH1 0x1 SLOAD DUP2 JUMP JUMPDEST PUSH0 JUMPDEST PUSH0 DUP1 SLOAD SWAP1 POP DUP2 LT ISZERO PUSH2 0x329 JUMPI PUSH0 DUP1 DUP3 DUP2 SLOAD DUP2 LT PUSH2 0x153 JUMPI PUSH2 0x152 PUSH2 0x9ED JUMP JUMPDEST JUMPDEST SWAP1 PUSH0 MSTORE PUSH1 0x20 PUSH0 KECCAK256 SWAP1 PUSH1 0x5 MUL ADD SWAP1 POP DUP1 PUSH1 0x4 ADD PUSH0 SWAP1 SLOAD SWAP1 PUSH2 0x100 EXP SWAP1 DIV PUSH1 0xFF AND DUP1 PUSH2 0x18C JUMPI POP DUP1 PUSH1 0x1 ADD PUSH1 0x14 SWAP1 SLOAD SWAP1 PUSH2 0x100 EXP SWAP1 DIV PUSH1 0xFF AND ISZERO JUMPDEST ISZERO PUSH2 0x197 JUMPI POP PUSH2 0x316 JUMP JUMPDEST PUSH0 JUMPDEST PUSH0 DUP1 SLOAD SWAP1 POP DUP2 LT ISZERO PUSH2 0x313 JUMPI PUSH0 DUP1 DUP3 DUP2 SLOAD DUP2 LT PUSH2 0x1B9 JUMPI PUSH2 0x1B8 PUSH2 0x9ED JUMP JUMPDEST JUMPDEST SWAP1 PUSH0 MSTORE PUSH1 0x20 PUSH0 KECCAK256 SWAP1 PUSH1 0x5 MUL ADD SWAP1 POP DUP1 PUSH1 0x4 ADD PUSH0 SWAP1 SLOAD SWAP1 PUSH2 0x100 EXP SWAP1 DIV PUSH1 0xFF AND DUP1 PUSH2 0x1F1 JUMPI POP DUP1 PUSH1 0x1 ADD PUSH1 0x14 SWAP1 SLOAD SWAP1 PUSH2 0x100 EXP SWAP1 DIV PUSH1 0xFF AND JUMPDEST ISZERO PUSH2 0x1FC JUMPI POP PUSH2 0x300 JUMP JUMPDEST DUP1 PUSH1 0x2 ADD SLOAD DUP4 PUSH1 0x2 ADD SLOAD LT PUSH2 0x2FE JUMPI PUSH0 DUP2 PUSH1 0x3 ADD SLOAD DUP5 PUSH1 0x3 ADD SLOAD LT PUSH2 0x225 JUMPI DUP2 PUSH1 0x3 ADD SLOAD PUSH2 0x22B JUMP JUMPDEST DUP4 PUSH1 0x3 ADD SLOAD JUMPDEST SWAP1 POP DUP1 DUP5 PUSH1 0x3 ADD PUSH0 DUP3 DUP3 SLOAD PUSH2 0x240 SWAP2 SWAP1 PUSH2 0xA47 JUMP JUMPDEST SWAP3 POP POP DUP2 SWAP1 SSTORE POP DUP1 DUP3 PUSH1 0x3 ADD PUSH0 DUP3 DUP3 SLOAD PUSH2 0x25A SWAP2 SWAP1 PUSH2 0xA47 JUMP JUMPDEST SWAP3 POP POP DUP2 SWAP1 SSTORE POP DUP2 PUSH0 ADD SLOAD DUP5 PUSH0 ADD SLOAD PUSH32 0x82877C5945532F956E6718F78F5606B7B5D8EFEF5E22121A3D9BF4E708873EDD DUP5 PUSH1 0x2 ADD SLOAD DUP5 PUSH1 0x40 MLOAD PUSH2 0x29E SWAP3 SWAP2 SWAP1 PUSH2 0xA7A JUMP JUMPDEST PUSH1 0x40 MLOAD DUP1 SWAP2 SUB SWAP1 LOG3 PUSH0 DUP5 PUSH1 0x3 ADD SLOAD SUB PUSH2 0x2D4 JUMPI PUSH1 0x1 DUP5 PUSH1 0x4 ADD PUSH0 PUSH2 0x100 EXP DUP2 SLOAD DUP2 PUSH1 0xFF MUL NOT AND SWAP1 DUP4 ISZERO ISZERO MUL OR SWAP1 SSTORE POP POP POP PUSH2 0x313 JUMP JUMPDEST PUSH0 DUP3 PUSH1 0x3 ADD SLOAD SUB PUSH2 0x2FC JUMPI PUSH1 0x1 DUP3 PUSH1 0x4 ADD PUSH0 PUSH2 0x100 EXP DUP2 SLOAD DUP2 PUSH1 0xFF MUL NOT AND SWAP1 DUP4 ISZERO ISZERO MUL OR SWAP1 SSTORE POP JUMPDEST POP JUMPDEST POP JUMPDEST DUP1 DUP1 PUSH2 0x30B SWAP1 PUSH2 0xAA1 JUMP JUMPDEST SWAP2 POP POP PUSH2 0x199 JUMP JUMPDEST POP POP JUMPDEST DUP1 DUP1 PUSH2 0x321 SWAP1 PUSH2 0xAA1 JUMP JUMPDEST SWAP2 POP POP PUSH2 0x133 JUMP JUMPDEST POP JUMP JUMPDEST PUSH0 DUP1 DUP1 SLOAD SWAP1 POP SWAP1 POP SWAP1 JUMP JUMPDEST PUSH0 DUP2 DUP2 SLOAD DUP2 LT PUSH2 0x345 JUMPI PUSH0 DUP1 REVERT JUMPDEST SWAP1 PUSH0 MSTORE PUSH1 0x20 PUSH0 KECCAK256 SWAP1 PUSH1 0x5 MUL ADD PUSH0 SWAP2 POP SWAP1 POP DUP1 PUSH0 ADD SLOAD SWAP1 DUP1 PUSH1 0x1 ADD PUSH0 SWAP1 SLOAD SWAP1 PUSH2 0x100 EXP SWAP1 DIV PUSH20 0xFFFFFFFFFFFFFFFFFFFFFFFFFFFFFFFFFFFFFFFF AND SWAP1 DUP1 PUSH1 0x1 ADD PUSH1 0x14 SWAP1 SLOAD SWAP1 PUSH2 0x100 EXP SWAP1 DIV PUSH1 0xFF AND SWAP1 DUP1 PUSH1 0x2 ADD SLOAD SWAP1 DUP1 PUSH1 0x3 ADD SLOAD SWAP1 DUP1 PUSH1 0x4 ADD PUSH0 SWAP1 SLOAD SWAP1 PUSH2 0x100 EXP SWAP1 DIV PUSH1 0xFF AND SWAP1 POP DUP7 JUMP JUMPDEST PUSH0 DUP2 GT PUSH2 0x3F7 JUMPI PUSH1 0x40 MLOAD PUSH32 0x8C379A000000000000000000000000000000000000000000000000000000000 DUP2 MSTORE PUSH1 0x4 ADD PUSH2 0x3EE SWAP1 PUSH2 0xB42 JUMP JUMPDEST PUSH1 0x40 MLOAD DUP1 SWAP2 SUB SWAP1 REVERT JUMPDEST PUSH0 DUP3 GT PUSH2 0x439 JUMPI PUSH1 0x40 MLOAD PUSH32 0x8C379A000000000000000000000000000000000000000000000000000000000 DUP2 MSTORE PUSH1 0x4 ADD PUSH2 0x430 SWAP1 PUSH2 0xBAA JUMP JUMPDEST PUSH1 0x40 MLOAD DUP1 SWAP2 SUB SWAP1 REVERT JUMPDEST PUSH0 PUSH1 0x40 MLOAD DUP1 PUSH1 0xC0 ADD PUSH1 0x40 MSTORE DUP1 PUSH1 0x1 SLOAD DUP2 MSTORE PUSH1 0x20 ADD CALLER PUSH20 0xFFFFFFFFFFFFFFFFFFFFFFFFFFFFFFFFFFFFFFFF AND DUP2 MSTORE PUSH1 0x20 ADD DUP6 ISZERO ISZERO DUP2 MSTORE PUSH1 0x20 ADD DUP5 DUP2 MSTORE PUSH1 0x20 ADD DUP4 DUP2 MSTORE PUSH1 0x20 ADD PUSH0 ISZERO ISZERO DUP2 MSTORE POP SWAP1 DUP1 PUSH1 0x1 DUP2 SLOAD ADD DUP1 DUP3 SSTORE DUP1 SWAP2 POP POP PUSH1 0x1 SWAP1 SUB SWAP1 PUSH0 MSTORE PUSH1 0x20 PUSH0 KECCAK256 SWAP1 PUSH1 0x5 MUL ADD PUSH0 SWAP1 SWAP2 SWAP1 SWAP2 SWAP1 SWAP2 POP PUSH0 DUP3 ADD MLOAD DUP2 PUSH0 ADD SSTORE PUSH1 0x20 DUP3 ADD MLOAD DUP2 PUSH1 0x1 ADD PUSH0 PUSH2 0x100 EXP DUP2 SLOAD DUP2 PUSH20 0xFFFFFFFFFFFFFFFFFFFFFFFFFFFFFFFFFFFFFFFF MUL NOT AND SWAP1 DUP4 PUSH20 0xFFFFFFFFFFFFFFFFFFFFFFFFFFFFFFFFFFFFFFFF AND MUL OR SWAP1 SSTORE POP PUSH1 0x40 DUP3 ADD MLOAD DUP2 PUSH1 0x1 ADD PUSH1 0x14 PUSH2 0x100 EXP DUP2 SLOAD DUP2 PUSH1 0xFF MUL NOT AND SWAP1 DUP4 ISZERO ISZERO MUL OR SWAP1 SSTORE POP PUSH1 0x60 DUP3 ADD MLOAD DUP2 PUSH1 0x2 ADD SSTORE PUSH1 0x80 DUP3 ADD MLOAD DUP2 PUSH1 0x3 ADD SSTORE PUSH1 0xA0 DUP3 ADD MLOAD DUP2 PUSH1 0x4 ADD PUSH0 PUSH2 0x100 EXP DUP2 SLOAD DUP2 PUSH1 0xFF MUL NOT AND SWAP1 DUP4 ISZERO ISZERO MUL OR SWAP1 SSTORE POP POP POP CALLER PUSH20 0xFFFFFFFFFFFFFFFFFFFFFFFFFFFFFFFFFFFFFFFF AND PUSH1 0x1 SLOAD PUSH32 0xA8D12DD5402D0AA9CCAA7A1346EF5A510E0C3EE938C13587BF17E59671B2EBEE DUP6 DUP6 DUP6 PUSH1 0x40 MLOAD PUSH2 0x599 SWAP4 SWAP3 SWAP2 SWAP1 PUSH2 0xBC8 JUMP JUMPDEST PUSH1 0x40 MLOAD DUP1 SWAP2 SUB SWAP1 LOG3 PUSH1 0x1 PUSH0 DUP2 SLOAD DUP1 SWAP3 SWAP2 SWAP1 PUSH2 0x5B3 SWAP1 PUSH2 0xAA1 JUMP JUMPDEST SWAP2 SWAP1 POP SSTORE POP POP POP POP JUMP JUMPDEST PUSH2 0x5C5 PUSH2 0x728 JUMP JUMPDEST PUSH0 JUMPDEST PUSH0 DUP1 SLOAD SWAP1 POP DUP2 LT ISZERO PUSH2 0x6E7 JUMPI DUP3 PUSH0 DUP3 DUP2 SLOAD DUP2 LT PUSH2 0x5E7 JUMPI PUSH2 0x5E6 PUSH2 0x9ED JUMP JUMPDEST JUMPDEST SWAP1 PUSH0 MSTORE PUSH1 0x20 PUSH0 KECCAK256 SWAP1 PUSH1 0x5 MUL ADD PUSH0 ADD SLOAD SUB PUSH2 0x6D4 JUMPI PUSH0 DUP2 DUP2 SLOAD DUP2 LT PUSH2 0x60E JUMPI PUSH2 0x60D PUSH2 0x9ED JUMP JUMPDEST JUMPDEST SWAP1 PUSH0 MSTORE PUSH1 0x20 PUSH0 KECCAK256 SWAP1 PUSH1 0x5 MUL ADD PUSH1 0x40 MLOAD DUP1 PUSH1 0xC0 ADD PUSH1 0x40 MSTORE SWAP1 DUP2 PUSH0 DUP3 ADD SLOAD DUP2 MSTORE PUSH1 0x20 ADD PUSH1 0x1 DUP3 ADD PUSH0 SWAP1 SLOAD SWAP1 PUSH2 0x100 EXP SWAP1 DIV PUSH20 0xFFFFFFFFFFFFFFFFFFFFFFFFFFFFFFFFFFFFFFFF AND PUSH20 0xFFFFFFFFFFFFFFFFFFFFFFFFFFFFFFFFFFFFFFFF AND PUSH20 0xFFFFFFFFFFFFFFFFFFFFFFFFFFFFFFFFFFFFFFFF AND DUP2 MSTORE PUSH1 0x20 ADD PUSH1 0x1 DUP3 ADD PUSH1 0x14 SWAP1 SLOAD SWAP1 PUSH2 0x100 EXP SWAP1 DIV PUSH1 0xFF AND ISZERO ISZERO ISZERO ISZERO DUP2 MSTORE PUSH1 0x20 ADD PUSH1 0x2 DUP3 ADD SLOAD DUP2 MSTORE PUSH1 0x20 ADD PUSH1 0x3 DUP3 ADD SLOAD DUP2 MSTORE PUSH1 0x20 ADD PUSH1 0x4 DUP3 ADD PUSH0 SWAP1 SLOAD SWAP1 PUSH2 0x100 EXP SWAP1 DIV PUSH1 0xFF AND ISZERO ISZERO ISZERO ISZERO DUP2 MSTORE POP POP SWAP2 POP POP PUSH2 0x723 JUMP JUMPDEST DUP1 DUP1 PUSH2 0x6DF SWAP1 PUSH2 0xAA1 JUMP JUMPDEST SWAP2 POP POP PUSH2 0x5C7 JUMP JUMPDEST POP PUSH1 0x40 MLOAD PUSH32 0x8C379A000000000000000000000000000000000000000000000000000000000 DUP2 MSTORE PUSH1 0x4 ADD PUSH2 0x71A SWAP1 PUSH2 0xC47 JUMP JUMPDEST PUSH1 0x40 MLOAD DUP1 SWAP2 SUB SWAP1 REVERT JUMPDEST SWAP2 SWAP1 POP JUMP JUMPDEST PUSH1 0x40 MLOAD DUP1 PUSH1 0xC0 ADD PUSH1 0x40 MSTORE DUP1 PUSH0 DUP2 MSTORE PUSH1 0x20 ADD PUSH0 PUSH20 0xFFFFFFFFFFFFFFFFFFFFFFFFFFFFFFFFFFFFFFFF AND DUP2 MSTORE PUSH1 0x20 ADD PUSH0 ISZERO ISZERO DUP2 MSTORE PUSH1 0x20 ADD PUSH0 DUP2 MSTORE PUSH1 0x20 ADD PUSH0 DUP2 MSTORE PUSH1 0x20 ADD PUSH0 ISZERO ISZERO DUP2 MSTORE POP SWAP1 JUMP JUMPDEST PUSH0 DUP2 SWAP1 POP SWAP2 SWAP1 POP JUMP JUMPDEST PUSH2 0x784 DUP2 PUSH2 0x772 JUMP JUMPDEST DUP3 MSTORE POP POP JUMP JUMPDEST PUSH0 PUSH1 0x20 DUP3 ADD SWAP1 POP PUSH2 0x79D PUSH0 DUP4 ADD DUP5 PUSH2 0x77B JUMP JUMPDEST SWAP3 SWAP2 POP POP JUMP JUMPDEST PUSH0 DUP1 REVERT JUMPDEST PUSH2 0x7B0 DUP2 PUSH2 0x772 JUMP JUMPDEST DUP2 EQ PUSH2 0x7BA JUMPI PUSH0 DUP1 REVERT JUMPDEST POP JUMP JUMPDEST PUSH0 DUP2 CALLDATALOAD SWAP1 POP PUSH2 0x7CB DUP2 PUSH2 0x7A7 JUMP JUMPDEST SWAP3 SWAP2 POP POP JUMP JUMPDEST PUSH0 PUSH1 0x20 DUP3 DUP5 SUB SLT ISZERO PUSH2 0x7E6 JUMPI PUSH2 0x7E5 PUSH2 0x7A3 JUMP JUMPDEST JUMPDEST PUSH0 PUSH2 0x7F3 DUP5 DUP3 DUP6 ADD PUSH2 0x7BD JUMP JUMPDEST SWAP2 POP POP SWAP3 SWAP2 POP POP JUMP JUMPDEST PUSH0 PUSH20 0xFFFFFFFFFFFFFFFFFFFFFFFFFFFFFFFFFFFFFFFF DUP3 AND SWAP1 POP SWAP2 SWAP1 POP JUMP JUMPDEST PUSH0 PUSH2 0x825 DUP3 PUSH2 0x7FC JUMP JUMPDEST SWAP1 POP SWAP2 SWAP1 POP JUMP JUMPDEST PUSH2 0x835 DUP2 PUSH2 0x81B JUMP JUMPDEST DUP3 MSTORE POP POP JUMP JUMPDEST PUSH0 DUP2 ISZERO ISZERO SWAP1 POP SWAP2 SWAP1 POP JUMP JUMPDEST PUSH2 0x84F DUP2 PUSH2 0x83B JUMP JUMPDEST DUP3 MSTORE POP POP JUMP JUMPDEST PUSH0 PUSH1 0xC0 DUP3 ADD SWAP1 POP PUSH2 0x868 PUSH0 DUP4 ADD DUP10 PUSH2 0x77B JUMP JUMPDEST PUSH2 0x875 PUSH1 0x20 DUP4 ADD DUP9 PUSH2 0x82C JUMP JUMPDEST PUSH2 0x882 PUSH1 0x40 DUP4 ADD DUP8 PUSH2 0x846 JUMP JUMPDEST PUSH2 0x88F PUSH1 0x60 DUP4 ADD DUP7 PUSH2 0x77B JUMP JUMPDEST PUSH2 0x89C PUSH1 0x80 DUP4 ADD DUP6 PUSH2 0x77B JUMP JUMPDEST PUSH2 0x8A9 PUSH1 0xA0 DUP4 ADD DUP5 PUSH2 0x846 JUMP JUMPDEST SWAP8 SWAP7 POP POP POP POP POP POP POP JUMP JUMPDEST PUSH2 0x8BD DUP2 PUSH2 0x83B JUMP JUMPDEST DUP2 EQ PUSH2 0x8C7 JUMPI PUSH0 DUP1 REVERT JUMPDEST POP JUMP JUMPDEST PUSH0 DUP2 CALLDATALOAD SWAP1 POP PUSH2 0x8D8 DUP2 PUSH2 0x8B4 JUMP JUMPDEST SWAP3 SWAP2 POP POP JUMP JUMPDEST PUSH0 DUP1 PUSH0 PUSH1 0x60 DUP5 DUP7 SUB SLT ISZERO PUSH2 0x8F5 JUMPI PUSH2 0x8F4 PUSH2 0x7A3 JUMP JUMPDEST JUMPDEST PUSH0 PUSH2 0x902 DUP7 DUP3 DUP8 ADD PUSH2 0x8CA JUMP JUMPDEST SWAP4 POP POP PUSH1 0x20 PUSH2 0x913 DUP7 DUP3 DUP8 ADD PUSH2 0x7BD JUMP JUMPDEST SWAP3 POP POP PUSH1 0x40 PUSH2 0x924 DUP7 DUP3 DUP8 ADD PUSH2 0x7BD JUMP JUMPDEST SWAP2 POP POP SWAP3 POP SWAP3 POP SWAP3 JUMP JUMPDEST PUSH2 0x937 DUP2 PUSH2 0x772 JUMP JUMPDEST DUP3 MSTORE POP POP JUMP JUMPDEST PUSH2 0x946 DUP2 PUSH2 0x81B JUMP JUMPDEST DUP3 MSTORE POP POP JUMP JUMPDEST PUSH2 0x955 DUP2 PUSH2 0x83B JUMP JUMPDEST DUP3 MSTORE POP POP JUMP JUMPDEST PUSH1 0xC0 DUP3 ADD PUSH0 DUP3 ADD MLOAD PUSH2 0x96F PUSH0 DUP6 ADD DUP3 PUSH2 0x92E JUMP JUMPDEST POP PUSH1 0x20 DUP3 ADD MLOAD PUSH2 0x982 PUSH1 0x20 DUP6 ADD DUP3 PUSH2 0x93D JUMP JUMPDEST POP PUSH1 0x40 DUP3 ADD MLOAD PUSH2 0x995 PUSH1 0x40 DUP6 ADD DUP3 PUSH2 0x94C JUMP JUMPDEST POP PUSH1 0x60 DUP3 ADD MLOAD PUSH2 0x9A8 PUSH1 0x60 DUP6 ADD DUP3 PUSH2 0x92E JUMP JUMPDEST POP PUSH1 0x80 DUP3 ADD MLOAD PUSH2 0x9BB PUSH1 0x80 DUP6 ADD DUP3 PUSH2 0x92E JUMP JUMPDEST POP PUSH1 0xA0 DUP3 ADD MLOAD PUSH2 0x9CE PUSH1 0xA0 DUP6 ADD DUP3 PUSH2 0x94C JUMP JUMPDEST POP POP POP POP JUMP JUMPDEST PUSH0 PUSH1 0xC0 DUP3 ADD SWAP1 POP PUSH2 0x9E7 PUSH0 DUP4 ADD DUP5 PUSH2 0x95B JUMP JUMPDEST SWAP3 SWAP2 POP POP JUMP JUMPDEST PUSH32 0x4E487B7100000000000000000000000000000000000000000000000000000000 PUSH0 MSTORE PUSH1 0x32 PUSH1 0x4 MSTORE PUSH1 0x24 PUSH0 REVERT JUMPDEST PUSH32 0x4E487B7100000000000000000000000000000000000000000000000000000000 PUSH0 MSTORE PUSH1 0x11 PUSH1 0x4 MSTORE PUSH1 0x24 PUSH0 REVERT JUMPDEST PUSH0 PUSH2 0xA51 DUP3 PUSH2 0x772 JUMP JUMPDEST SWAP2 POP PUSH2 0xA5C DUP4 PUSH2 0x772 JUMP JUMPDEST SWAP3 POP DUP3 DUP3 SUB SWAP1 POP DUP2 DUP2 GT ISZERO PUSH2 0xA74 JUMPI PUSH2 0xA73 PUSH2 0xA1A JUMP JUMPDEST JUMPDEST SWAP3 SWAP2 POP POP JUMP JUMPDEST PUSH0 PUSH1 0x40 DUP3 ADD SWAP1 POP PUSH2 0xA8D PUSH0 DUP4 ADD DUP6 PUSH2 0x77B JUMP JUMPDEST PUSH2 0xA9A PUSH1 0x20 DUP4 ADD DUP5 PUSH2 0x77B JUMP JUMPDEST SWAP4 SWAP3 POP POP POP JUMP JUMPDEST PUSH0 PUSH2 0xAAB DUP3 PUSH2 0x772 JUMP JUMPDEST SWAP2 POP PUSH32 0xFFFFFFFFFFFFFFFFFFFFFFFFFFFFFFFFFFFFFFFFFFFFFFFFFFFFFFFFFFFFFFFF DUP3 SUB PUSH2 0xADD JUMPI PUSH2 0xADC PUSH2 0xA1A JUMP JUMPDEST JUMPDEST PUSH1 0x1 DUP3 ADD SWAP1 POP SWAP2 SWAP1 POP JUMP JUMPDEST PUSH0 DUP3 DUP3 MSTORE PUSH1 0x20 DUP3 ADD SWAP1 POP SWAP3 SWAP2 POP POP JUMP JUMPDEST PUSH32 0x416D6F756E74206D757374206265203E20300000000000000000000000000000 PUSH0 DUP3 ADD MSTORE POP JUMP JUMPDEST PUSH0 PUSH2 0xB2C PUSH1 0x12 DUP4 PUSH2 0xAE8 JUMP JUMPDEST SWAP2 POP PUSH2 0xB37 DUP3 PUSH2 0xAF8 JUMP JUMPDEST PUSH1 0x20 DUP3 ADD SWAP1 POP SWAP2 SWAP1 POP JUMP JUMPDEST PUSH0 PUSH1 0x20 DUP3 ADD SWAP1 POP DUP2 DUP2 SUB PUSH0 DUP4 ADD MSTORE PUSH2 0xB59 DUP2 PUSH2 0xB20 JUMP JUMPDEST SWAP1 POP SWAP2 SWAP1 POP JUMP JUMPDEST PUSH32 0x5072696365206D757374206265203E2030000000000000000000000000000000 PUSH0 DUP3 ADD MSTORE POP JUMP JUMPDEST PUSH0 PUSH2 0xB94 PUSH1 0x11 DUP4 PUSH2 0xAE8 JUMP JUMPDEST SWAP2 POP PUSH2 0xB9F DUP3 PUSH2 0xB60 JUMP JUMPDEST PUSH1 0x20 DUP3 ADD SWAP1 POP SWAP2 SWAP1 POP JUMP JUMPDEST PUSH0 PUSH1 0x20 DUP3 ADD SWAP1 POP DUP2 DUP2 SUB PUSH0 DUP4 ADD MSTORE PUSH2 0xBC1 DUP2 PUSH2 0xB88 JUMP JUMPDEST SWAP1 POP SWAP2 SWAP1 POP JUMP JUMPDEST PUSH0 PUSH1 0x60 DUP3 ADD SWAP1 POP PUSH2 0xBDB PUSH0 DUP4 ADD DUP7 PUSH2 0x846 JUMP JUMPDEST PUSH2 0xBE8 PUSH1 0x20 DUP4 ADD DUP6 PUSH2 0x77B JUMP JUMPDEST PUSH2 0xBF5 PUSH1 0x40 DUP4 ADD DUP5 PUSH2 0x77B JUMP JUMPDEST SWAP5 SWAP4 POP POP POP POP JUMP JUMPDEST PUSH32 0x4F72646572206E6F7420666F756E640000000000000000000000000000000000 PUSH0 DUP3 ADD MSTORE POP JUMP JUMPDEST PUSH0 PUSH2 0xC31 PUSH1 0xF DUP4 PUSH2 0xAE8 JUMP JUMPDEST SWAP2 POP PUSH2 0xC3C DUP3 PUSH2 0xBFD JUMP JUMPDEST PUSH1 0x20 DUP3 ADD SWAP1 POP SWAP2 SWAP1 POP JUMP JUMPDEST PUSH0 PUSH1 0x20 DUP3 ADD SWAP1 POP DUP2 DUP2 SUB PUSH0 DUP4 ADD MSTORE PUSH2 0xC5E DUP2 PUSH2 0xC25 JUMP JUMPDEST SWAP1 POP SWAP2 SWAP1 POP JUMP INVALID LOG2 PUSH5 0x6970667358 0x22 SLT KECCAK256 CREATE2 0xFB LOG3 0xB9 0x2D DUP16 SIGNEXTEND 0xC9 0xBE 0xBA CODECOPY CALLDATALOAD PUSH26 0xCC91B0EFACEE80E20C42556E5A9A61A8F4394664736F6C634300 ADDMOD EQ STOP CALLER "
				},
				"gasEstimates": {
					"creation": {
						"codeDepositCost": "645400",
						"executionCost": "674",
						"totalCost": "646074"
					},
					"external": {
						"getOrder(uint256)": "infinite",
						"getOrderCount()": "2462",
						"matchOrders()": "infinite",
						"nextOrderId()": "2403",
						"orders(uint256)": "infinite",
						"placeOrder(bool,uint256,uint256)": "infinite"
					}
				},
				"methodIdentifiers": {
					"getOrder(uint256)": "d09ef241",
					"getOrderCount()": "8d0a5fbb",
					"matchOrders()": "7ee68546",
					"nextOrderId()": "2a58b330",
					"orders(uint256)": "a85c38ef",
					"placeOrder(bool,uint256,uint256)": "ca8b4f7a"
				}
			},
			"storageLayout": {
				"storage": [
					{
						"astId": 18,
						"contract": "C/centralLimitOrderBooks.sol:CentralLimitOrderBook",
						"label": "orders",
						"offset": 0,
						"slot": "0",
						"type": "t_array(t_struct(Order)14_storage)dyn_storage"
					},
					{
						"astId": 20,
						"contract": "C/centralLimitOrderBooks.sol:CentralLimitOrderBook",
						"label": "nextOrderId",
						"offset": 0,
						"slot": "1",
						"type": "t_uint256"
					}
				],
				"types": {
					"t_address": {
						"encoding": "inplace",
						"label": "address",
						"numberOfBytes": "20"
					},
					"t_array(t_struct(Order)14_storage)dyn_storage": {
						"base": "t_struct(Order)14_storage",
						"encoding": "dynamic_array",
						"label": "struct CentralLimitOrderBook.Order[]",
						"numberOfBytes": "32"
					},
					"t_bool": {
						"encoding": "inplace",
						"label": "bool",
						"numberOfBytes": "1"
					},
					"t_struct(Order)14_storage": {
						"encoding": "inplace",
						"label": "struct CentralLimitOrderBook.Order",
						"members": [
							{
								"astId": 3,
								"contract": "C/centralLimitOrderBooks.sol:CentralLimitOrderBook",
								"label": "id",
								"offset": 0,
								"slot": "0",
								"type": "t_uint256"
							},
							{
								"astId": 5,
								"contract": "C/centralLimitOrderBooks.sol:CentralLimitOrderBook",
								"label": "trader",
								"offset": 0,
								"slot": "1",
								"type": "t_address"
							},
							{
								"astId": 7,
								"contract": "C/centralLimitOrderBooks.sol:CentralLimitOrderBook",
								"label": "isBuy",
								"offset": 20,
								"slot": "1",
								"type": "t_bool"
							},
							{
								"astId": 9,
								"contract": "C/centralLimitOrderBooks.sol:CentralLimitOrderBook",
								"label": "price",
								"offset": 0,
								"slot": "2",
								"type": "t_uint256"
							},
							{
								"astId": 11,
								"contract": "C/centralLimitOrderBooks.sol:CentralLimitOrderBook",
								"label": "amount",
								"offset": 0,
								"slot": "3",
								"type": "t_uint256"
							},
							{
								"astId": 13,
								"contract": "C/centralLimitOrderBooks.sol:CentralLimitOrderBook",
								"label": "filled",
								"offset": 0,
								"slot": "4",
								"type": "t_bool"
							}
						],
						"numberOfBytes": "160"
					},
					"t_uint256": {
						"encoding": "inplace",
						"label": "uint256",
						"numberOfBytes": "32"
					}
				}
			},
			"userdoc": {
				"kind": "user",
				"methods": {
					"getOrder(uint256)": {
						"notice": "Retrieves a specific order by its ID."
					},
					"getOrderCount()": {
						"notice": "Returns the total number of orders in the order book."
					},
					"matchOrders()": {
						"notice": "Matches buy and sell orders if the buy order's price is equal to or exceeds the sell order's price. This is a simple matching function that iterates over all orders."
					},
					"placeOrder(bool,uint256,uint256)": {
						"notice": "Places an order in the order book."
					}
				},
				"version": 1
			}
		}
	}
}