{
	"C/cashToken.sol": {
		"CashToken": {
			"abi": [
				{
					"inputs": [
						{
							"internalType": "uint256",
							"name": "initialSupply",
							"type": "uint256"
						}
					],
					"stateMutability": "nonpayable",
					"type": "constructor"
				},
				{
					"inputs": [
						{
							"internalType": "address",
							"name": "spender",
							"type": "address"
						},
						{
							"internalType": "uint256",
							"name": "allowance",
							"type": "uint256"
						},
						{
							"internalType": "uint256",
							"name": "needed",
							"type": "uint256"
						}
					],
					"name": "ERC20InsufficientAllowance",
					"type": "error"
				},
				{
					"inputs": [
						{
							"internalType": "address",
							"name": "sender",
							"type": "address"
						},
						{
							"internalType": "uint256",
							"name": "balance",
							"type": "uint256"
						},
						{
							"internalType": "uint256",
							"name": "needed",
							"type": "uint256"
						}
					],
					"name": "ERC20InsufficientBalance",
					"type": "error"
				},
				{
					"inputs": [
						{
							"internalType": "address",
							"name": "approver",
							"type": "address"
						}
					],
					"name": "ERC20InvalidApprover",
					"type": "error"
				},
				{
					"inputs": [
						{
							"internalType": "address",
							"name": "receiver",
							"type": "address"
						}
					],
					"name": "ERC20InvalidReceiver",
					"type": "error"
				},
				{
					"inputs": [
						{
							"internalType": "address",
							"name": "sender",
							"type": "address"
						}
					],
					"name": "ERC20InvalidSender",
					"type": "error"
				},
				{
					"inputs": [
						{
							"internalType": "address",
							"name": "spender",
							"type": "address"
						}
					],
					"name": "ERC20InvalidSpender",
					"type": "error"
				},
				{
					"inputs": [
						{
							"internalType": "address",
							"name": "owner",
							"type": "address"
						}
					],
					"name": "OwnableInvalidOwner",
					"type": "error"
				},
				{
					"inputs": [
						{
							"internalType": "address",
							"name": "account",
							"type": "address"
						}
					],
					"name": "OwnableUnauthorizedAccount",
					"type": "error"
				},
				{
					"anonymous": false,
					"inputs": [
						{
							"indexed": true,
							"internalType": "address",
							"name": "owner",
							"type": "address"
						},
						{
							"indexed": true,
							"internalType": "address",
							"name": "spender",
							"type": "address"
						},
						{
							"indexed": false,
							"internalType": "uint256",
							"name": "value",
							"type": "uint256"
						}
					],
					"name": "Approval",
					"type": "event"
				},
				{
					"anonymous": false,
					"inputs": [
						{
							"indexed": true,
							"internalType": "address",
							"name": "previousOwner",
							"type": "address"
						},
						{
							"indexed": true,
							"internalType": "address",
							"name": "newOwner",
							"type": "address"
						}
					],
					"name": "OwnershipTransferred",
					"type": "event"
				},
				{
					"anonymous": false,
					"inputs": [
						{
							"indexed": true,
							"internalType": "address",
							"name": "from",
							"type": "address"
						},
						{
							"indexed": true,
							"internalType": "address",
							"name": "to",
							"type": "address"
						},
						{
							"indexed": false,
							"internalType": "uint256",
							"name": "value",
							"type": "uint256"
						}
					],
					"name": "Transfer",
					"type": "event"
				},
				{
					"inputs": [
						{
							"internalType": "address",
							"name": "owner",
							"type": "address"
						},
						{
							"internalType": "address",
							"name": "spender",
							"type": "address"
						}
					],
					"name": "allowance",
					"outputs": [
						{
							"internalType": "uint256",
							"name": "",
							"type": "uint256"
						}
					],
					"stateMutability": "view",
					"type": "function"
				},
				{
					"inputs": [
						{
							"internalType": "address",
							"name": "spender",
							"type": "address"
						},
						{
							"internalType": "uint256",
							"name": "value",
							"type": "uint256"
						}
					],
					"name": "approve",
					"outputs": [
						{
							"internalType": "bool",
							"name": "",
							"type": "bool"
						}
					],
					"stateMutability": "nonpayable",
					"type": "function"
				},
				{
					"inputs": [
						{
							"internalType": "address",
							"name": "account",
							"type": "address"
						}
					],
					"name": "balanceOf",
					"outputs": [
						{
							"internalType": "uint256",
							"name": "",
							"type": "uint256"
						}
					],
					"stateMutability": "view",
					"type": "function"
				},
				{
					"inputs": [
						{
							"internalType": "uint256",
							"name": "amount",
							"type": "uint256"
						}
					],
					"name": "burn",
					"outputs": [],
					"stateMutability": "nonpayable",
					"type": "function"
				},
				{
					"inputs": [],
					"name": "decimals",
					"outputs": [
						{
							"internalType": "uint8",
							"name": "",
							"type": "uint8"
						}
					],
					"stateMutability": "view",
					"type": "function"
				},
				{
					"inputs": [
						{
							"internalType": "address",
							"name": "to",
							"type": "address"
						},
						{
							"internalType": "uint256",
							"name": "amount",
							"type": "uint256"
						}
					],
					"name": "mint",
					"outputs": [],
					"stateMutability": "nonpayable",
					"type": "function"
				},
				{
					"inputs": [],
					"name": "name",
					"outputs": [
						{
							"internalType": "string",
							"name": "",
							"type": "string"
						}
					],
					"stateMutability": "view",
					"type": "function"
				},
				{
					"inputs": [],
					"name": "owner",
					"outputs": [
						{
							"internalType": "address",
							"name": "",
							"type": "address"
						}
					],
					"stateMutability": "view",
					"type": "function"
				},
				{
					"inputs": [],
					"name": "renounceOwnership",
					"outputs": [],
					"stateMutability": "nonpayable",
					"type": "function"
				},
				{
					"inputs": [],
					"name": "symbol",
					"outputs": [
						{
							"internalType": "string",
							"name": "",
							"type": "string"
						}
					],
					"stateMutability": "view",
					"type": "function"
				},
				{
					"inputs": [],
					"name": "totalSupply",
					"outputs": [
						{
							"internalType": "uint256",
							"name": "",
							"type": "uint256"
						}
					],
					"stateMutability": "view",
					"type": "function"
				},
				{
					"inputs": [
						{
							"internalType": "address",
							"name": "to",
							"type": "address"
						},
						{
							"internalType": "uint256",
							"name": "value",
							"type": "uint256"
						}
					],
					"name": "transfer",
					"outputs": [
						{
							"internalType": "bool",
							"name": "",
							"type": "bool"
						}
					],
					"stateMutability": "nonpayable",
					"type": "function"
				},
				{
					"inputs": [
						{
							"internalType": "address",
							"name": "from",
							"type": "address"
						},
						{
							"internalType": "address",
							"name": "to",
							"type": "address"
						},
						{
							"internalType": "uint256",
							"name": "value",
							"type": "uint256"
						}
					],
					"name": "transferFrom",
					"outputs": [
						{
							"internalType": "bool",
							"name": "",
							"type": "bool"
						}
					],
					"stateMutability": "nonpayable",
					"type": "function"
				},
				{
					"inputs": [
						{
							"internalType": "address",
							"name": "newOwner",
							"type": "address"
						}
					],
					"name": "transferOwnership",
					"outputs": [],
					"stateMutability": "nonpayable",
					"type": "function"
				}
			],
			"devdoc": {
				"errors": {
					"ERC20InsufficientAllowance(address,uint256,uint256)": [
						{
							"details": "Indicates a failure with the `spender`’s `allowance`. Used in transfers.",
							"params": {
								"allowance": "Amount of tokens a `spender` is allowed to operate with.",
								"needed": "Minimum amount required to perform a transfer.",
								"spender": "Address that may be allowed to operate on tokens without being their owner."
							}
						}
					],
					"ERC20InsufficientBalance(address,uint256,uint256)": [
						{
							"details": "Indicates an error related to the current `balance` of a `sender`. Used in transfers.",
							"params": {
								"balance": "Current balance for the interacting account.",
								"needed": "Minimum amount required to perform a transfer.",
								"sender": "Address whose tokens are being transferred."
							}
						}
					],
					"ERC20InvalidApprover(address)": [
						{
							"details": "Indicates a failure with the `approver` of a token to be approved. Used in approvals.",
							"params": {
								"approver": "Address initiating an approval operation."
							}
						}
					],
					"ERC20InvalidReceiver(address)": [
						{
							"details": "Indicates a failure with the token `receiver`. Used in transfers.",
							"params": {
								"receiver": "Address to which tokens are being transferred."
							}
						}
					],
					"ERC20InvalidSender(address)": [
						{
							"details": "Indicates a failure with the token `sender`. Used in transfers.",
							"params": {
								"sender": "Address whose tokens are being transferred."
							}
						}
					],
					"ERC20InvalidSpender(address)": [
						{
							"details": "Indicates a failure with the `spender` to be approved. Used in approvals.",
							"params": {
								"spender": "Address that may be allowed to operate on tokens without being their owner."
							}
						}
					],
					"OwnableInvalidOwner(address)": [
						{
							"details": "The owner is not a valid owner account. (eg. `address(0)`)"
						}
					],
					"OwnableUnauthorizedAccount(address)": [
						{
							"details": "The caller account is not authorized to perform an operation."
						}
					]
				},
				"events": {
					"Approval(address,address,uint256)": {
						"details": "Emitted when the allowance of a `spender` for an `owner` is set by a call to {approve}. `value` is the new allowance."
					},
					"Transfer(address,address,uint256)": {
						"details": "Emitted when `value` tokens are moved from one account (`from`) to another (`to`). Note that `value` may be zero."
					}
				},
				"kind": "dev",
				"methods": {
					"allowance(address,address)": {
						"details": "See {IERC20-allowance}."
					},
					"approve(address,uint256)": {
						"details": "See {IERC20-approve}. NOTE: If `value` is the maximum `uint256`, the allowance is not updated on `transferFrom`. This is semantically equivalent to an infinite approval. Requirements: - `spender` cannot be the zero address."
					},
					"balanceOf(address)": {
						"details": "See {IERC20-balanceOf}."
					},
					"burn(uint256)": {
						"params": {
							"amount": "The number of tokens to burn."
						}
					},
					"constructor": {
						"params": {
							"initialSupply": "The total initial supply of the token, specified in the smallest unit (e.g., wei for tokens with 18 decimals)."
						}
					},
					"decimals()": {
						"details": "Returns the number of decimals used to get its user representation. For example, if `decimals` equals `2`, a balance of `505` tokens should be displayed to a user as `5.05` (`505 / 10 ** 2`). Tokens usually opt for a value of 18, imitating the relationship between Ether and Wei. This is the default value returned by this function, unless it's overridden. NOTE: This information is only used for _display_ purposes: it in no way affects any of the arithmetic of the contract, including {IERC20-balanceOf} and {IERC20-transfer}."
					},
					"mint(address,uint256)": {
						"params": {
							"amount": "The number of tokens to mint.",
							"to": "The address that will receive the minted tokens."
						}
					},
					"name()": {
						"details": "Returns the name of the token."
					},
					"owner()": {
						"details": "Returns the address of the current owner."
					},
					"renounceOwnership()": {
						"details": "Leaves the contract without owner. It will not be possible to call `onlyOwner` functions. Can only be called by the current owner. NOTE: Renouncing ownership will leave the contract without an owner, thereby disabling any functionality that is only available to the owner."
					},
					"symbol()": {
						"details": "Returns the symbol of the token, usually a shorter version of the name."
					},
					"totalSupply()": {
						"details": "See {IERC20-totalSupply}."
					},
					"transfer(address,uint256)": {
						"details": "See {IERC20-transfer}. Requirements: - `to` cannot be the zero address. - the caller must have a balance of at least `value`."
					},
					"transferFrom(address,address,uint256)": {
						"details": "See {IERC20-transferFrom}. Skips emitting an {Approval} event indicating an allowance update. This is not required by the ERC. See {xref-ERC20-_approve-address-address-uint256-bool-}[_approve]. NOTE: Does not update the allowance if the current allowance is the maximum `uint256`. Requirements: - `from` and `to` cannot be the zero address. - `from` must have a balance of at least `value`. - the caller must have allowance for ``from``'s tokens of at least `value`."
					},
					"transferOwnership(address)": {
						"details": "Transfers ownership of the contract to a new account (`newOwner`). Can only be called by the current owner."
					}
				},
				"title": "CashToken",
				"version": 1
			},
			"evm": {
				"assembly": "    /* \"C/cashToken.sol\":481:1437  contract CashToken is ERC20, Ownable {... */\n  mstore(0x40, 0x80)\n    /* \"C/cashToken.sol\":763:895  constructor(uint256 initialSupply) ERC20(\"Cash Token\", \"CASH\") Ownable(msg.sender) {... */\n  callvalue\n  dup1\n  iszero\n  tag_1\n  jumpi\n  0x00\n  dup1\n  revert\ntag_1:\n  pop\n  mload(0x40)\n  sub(codesize, bytecodeSize)\n  dup1\n  bytecodeSize\n  dup4\n  codecopy\n  dup2\n  dup2\n  add\n  0x40\n  mstore\n  dup2\n  add\n  swap1\n  tag_2\n  swap2\n  swap1\n  tag_3\n  jump\t// in\ntag_2:\n    /* \"C/cashToken.sol\":834:844  msg.sender */\n  caller\n    /* \"@openzeppelin/contracts/token/ERC20/ERC20.sol\":1601:1714  constructor(string memory name_, string memory symbol_) {... */\n  mload(0x40)\n  dup1\n  0x40\n  add\n  0x40\n  mstore\n  dup1\n  0x0a\n  dup2\n  mstore\n  0x20\n  add\n  0x4361736820546f6b656e00000000000000000000000000000000000000000000\n  dup2\n  mstore\n  pop\n  mload(0x40)\n  dup1\n  0x40\n  add\n  0x40\n  mstore\n  dup1\n  0x04\n  dup2\n  mstore\n  0x20\n  add\n  0x4341534800000000000000000000000000000000000000000000000000000000\n  dup2\n  mstore\n  pop\n    /* \"@openzeppelin/contracts/token/ERC20/ERC20.sol\":1675:1680  name_ */\n  dup2\n    /* \"@openzeppelin/contracts/token/ERC20/ERC20.sol\":1667:1672  _name */\n  0x03\n    /* \"@openzeppelin/contracts/token/ERC20/ERC20.sol\":1667:1680  _name = name_ */\n  swap1\n  dup2\n  tag_8\n  swap2\n  swap1\n  tag_9\n  jump\t// in\ntag_8:\n  pop\n    /* \"@openzeppelin/contracts/token/ERC20/ERC20.sol\":1700:1707  symbol_ */\n  dup1\n    /* \"@openzeppelin/contracts/token/ERC20/ERC20.sol\":1690:1697  _symbol */\n  0x04\n    /* \"@openzeppelin/contracts/token/ERC20/ERC20.sol\":1690:1707  _symbol = symbol_ */\n  swap1\n  dup2\n  tag_10\n  swap2\n  swap1\n  tag_9\n  jump\t// in\ntag_10:\n  pop\n    /* \"@openzeppelin/contracts/token/ERC20/ERC20.sol\":1601:1714  constructor(string memory name_, string memory symbol_) {... */\n  pop\n  pop\n    /* \"@openzeppelin/contracts/access/Ownable.sol\":1297:1298  0 */\n  0x00\n    /* \"@openzeppelin/contracts/access/Ownable.sol\":1273:1299  initialOwner == address(0) */\n  0xffffffffffffffffffffffffffffffffffffffff\n  and\n    /* \"@openzeppelin/contracts/access/Ownable.sol\":1273:1285  initialOwner */\n  dup2\n    /* \"@openzeppelin/contracts/access/Ownable.sol\":1273:1299  initialOwner == address(0) */\n  0xffffffffffffffffffffffffffffffffffffffff\n  and\n  sub\n    /* \"@openzeppelin/contracts/access/Ownable.sol\":1269:1364  if (initialOwner == address(0)) {... */\n  tag_12\n  jumpi\n    /* \"@openzeppelin/contracts/access/Ownable.sol\":1350:1351  0 */\n  0x00\n    /* \"@openzeppelin/contracts/access/Ownable.sol\":1322:1353  OwnableInvalidOwner(address(0)) */\n  mload(0x40)\n  0x1e4fbdf700000000000000000000000000000000000000000000000000000000\n  dup2\n  mstore\n  0x04\n  add\n  tag_13\n  swap2\n  swap1\n  tag_14\n  jump\t// in\ntag_13:\n  mload(0x40)\n  dup1\n  swap2\n  sub\n  swap1\n  revert\n    /* \"@openzeppelin/contracts/access/Ownable.sol\":1269:1364  if (initialOwner == address(0)) {... */\ntag_12:\n    /* \"@openzeppelin/contracts/access/Ownable.sol\":1373:1405  _transferOwnership(initialOwner) */\n  tag_15\n    /* \"@openzeppelin/contracts/access/Ownable.sol\":1392:1404  initialOwner */\n  dup2\n    /* \"@openzeppelin/contracts/access/Ownable.sol\":1373:1391  _transferOwnership */\n  shl(0x20, tag_16)\n    /* \"@openzeppelin/contracts/access/Ownable.sol\":1373:1405  _transferOwnership(initialOwner) */\n  0x20\n  shr\n  jump\t// in\ntag_15:\n    /* \"@openzeppelin/contracts/access/Ownable.sol\":1225:1412  constructor(address initialOwner) {... */\n  pop\n    /* \"C/cashToken.sol\":856:888  _mint(msg.sender, initialSupply) */\n  tag_18\n    /* \"C/cashToken.sol\":862:872  msg.sender */\n  caller\n    /* \"C/cashToken.sol\":874:887  initialSupply */\n  dup3\n    /* \"C/cashToken.sol\":856:861  _mint */\n  shl(0x20, tag_19)\n    /* \"C/cashToken.sol\":856:888  _mint(msg.sender, initialSupply) */\n  0x20\n  shr\n  jump\t// in\ntag_18:\n    /* \"C/cashToken.sol\":763:895  constructor(uint256 initialSupply) ERC20(\"Cash Token\", \"CASH\") Ownable(msg.sender) {... */\n  pop\n    /* \"C/cashToken.sol\":481:1437  contract CashToken is ERC20, Ownable {... */\n  jump(tag_20)\n    /* \"@openzeppelin/contracts/access/Ownable.sol\":2912:3099  function _transferOwnership(address newOwner) internal virtual {... */\ntag_16:\n    /* \"@openzeppelin/contracts/access/Ownable.sol\":2985:3001  address oldOwner */\n  0x00\n    /* \"@openzeppelin/contracts/access/Ownable.sol\":3004:3010  _owner */\n  0x05\n  0x00\n  swap1\n  sload\n  swap1\n  0x0100\n  exp\n  swap1\n  div\n  0xffffffffffffffffffffffffffffffffffffffff\n  and\n    /* \"@openzeppelin/contracts/access/Ownable.sol\":2985:3010  address oldOwner = _owner */\n  swap1\n  pop\n    /* \"@openzeppelin/contracts/access/Ownable.sol\":3029:3037  newOwner */\n  dup2\n    /* \"@openzeppelin/contracts/access/Ownable.sol\":3020:3026  _owner */\n  0x05\n  0x00\n    /* \"@openzeppelin/contracts/access/Ownable.sol\":3020:3037  _owner = newOwner */\n  0x0100\n  exp\n  dup2\n  sload\n  dup2\n  0xffffffffffffffffffffffffffffffffffffffff\n  mul\n  not\n  and\n  swap1\n  dup4\n  0xffffffffffffffffffffffffffffffffffffffff\n  and\n  mul\n  or\n  swap1\n  sstore\n  pop\n    /* \"@openzeppelin/contracts/access/Ownable.sol\":3083:3091  newOwner */\n  dup2\n    /* \"@openzeppelin/contracts/access/Ownable.sol\":3052:3092  OwnershipTransferred(oldOwner, newOwner) */\n  0xffffffffffffffffffffffffffffffffffffffff\n  and\n    /* \"@openzeppelin/contracts/access/Ownable.sol\":3073:3081  oldOwner */\n  dup2\n    /* \"@openzeppelin/contracts/access/Ownable.sol\":3052:3092  OwnershipTransferred(oldOwner, newOwner) */\n  0xffffffffffffffffffffffffffffffffffffffff\n  and\n  0x8be0079c531659141344cd1fd0a4f28419497f9722a3daafe3b4186f6b6457e0\n  mload(0x40)\n  mload(0x40)\n  dup1\n  swap2\n  sub\n  swap1\n  log3\n    /* \"@openzeppelin/contracts/access/Ownable.sol\":2975:3099  {... */\n  pop\n    /* \"@openzeppelin/contracts/access/Ownable.sol\":2912:3099  function _transferOwnership(address newOwner) internal virtual {... */\n  pop\n  jump\t// out\n    /* \"@openzeppelin/contracts/token/ERC20/ERC20.sol\":7458:7666  function _mint(address account, uint256 value) internal {... */\ntag_19:\n    /* \"@openzeppelin/contracts/token/ERC20/ERC20.sol\":7547:7548  0 */\n  0x00\n    /* \"@openzeppelin/contracts/token/ERC20/ERC20.sol\":7528:7549  account == address(0) */\n  0xffffffffffffffffffffffffffffffffffffffff\n  and\n    /* \"@openzeppelin/contracts/token/ERC20/ERC20.sol\":7528:7535  account */\n  dup3\n    /* \"@openzeppelin/contracts/token/ERC20/ERC20.sol\":7528:7549  account == address(0) */\n  0xffffffffffffffffffffffffffffffffffffffff\n  and\n  sub\n    /* \"@openzeppelin/contracts/token/ERC20/ERC20.sol\":7524:7615  if (account == address(0)) {... */\n  tag_23\n  jumpi\n    /* \"@openzeppelin/contracts/token/ERC20/ERC20.sol\":7601:7602  0 */\n  0x00\n    /* \"@openzeppelin/contracts/token/ERC20/ERC20.sol\":7572:7604  ERC20InvalidReceiver(address(0)) */\n  mload(0x40)\n  0xec442f0500000000000000000000000000000000000000000000000000000000\n  dup2\n  mstore\n  0x04\n  add\n  tag_24\n  swap2\n  swap1\n  tag_14\n  jump\t// in\ntag_24:\n  mload(0x40)\n  dup1\n  swap2\n  sub\n  swap1\n  revert\n    /* \"@openzeppelin/contracts/token/ERC20/ERC20.sol\":7524:7615  if (account == address(0)) {... */\ntag_23:\n    /* \"@openzeppelin/contracts/token/ERC20/ERC20.sol\":7624:7659  _update(address(0), account, value) */\n  tag_25\n    /* \"@openzeppelin/contracts/token/ERC20/ERC20.sol\":7640:7641  0 */\n  0x00\n    /* \"@openzeppelin/contracts/token/ERC20/ERC20.sol\":7644:7651  account */\n  dup4\n    /* \"@openzeppelin/contracts/token/ERC20/ERC20.sol\":7653:7658  value */\n  dup4\n    /* \"@openzeppelin/contracts/token/ERC20/ERC20.sol\":7624:7631  _update */\n  shl(0x20, tag_26)\n    /* \"@openzeppelin/contracts/token/ERC20/ERC20.sol\":7624:7659  _update(address(0), account, value) */\n  0x20\n  shr\n  jump\t// in\ntag_25:\n    /* \"@openzeppelin/contracts/token/ERC20/ERC20.sol\":7458:7666  function _mint(address account, uint256 value) internal {... */\n  pop\n  pop\n  jump\t// out\n    /* \"@openzeppelin/contracts/token/ERC20/ERC20.sol\":6008:7115  function _update(address from, address to, uint256 value) internal virtual {... */\ntag_26:\n    /* \"@openzeppelin/contracts/token/ERC20/ERC20.sol\":6113:6114  0 */\n  0x00\n    /* \"@openzeppelin/contracts/token/ERC20/ERC20.sol\":6097:6115  from == address(0) */\n  0xffffffffffffffffffffffffffffffffffffffff\n  and\n    /* \"@openzeppelin/contracts/token/ERC20/ERC20.sol\":6097:6101  from */\n  dup4\n    /* \"@openzeppelin/contracts/token/ERC20/ERC20.sol\":6097:6115  from == address(0) */\n  0xffffffffffffffffffffffffffffffffffffffff\n  and\n  sub\n    /* \"@openzeppelin/contracts/token/ERC20/ERC20.sol\":6093:6633  if (from == address(0)) {... */\n  tag_28\n  jumpi\n    /* \"@openzeppelin/contracts/token/ERC20/ERC20.sol\":6249:6254  value */\n  dup1\n    /* \"@openzeppelin/contracts/token/ERC20/ERC20.sol\":6233:6245  _totalSupply */\n  0x02\n  0x00\n    /* \"@openzeppelin/contracts/token/ERC20/ERC20.sol\":6233:6254  _totalSupply += value */\n  dup3\n  dup3\n  sload\n  tag_29\n  swap2\n  swap1\n  tag_30\n  jump\t// in\ntag_29:\n  swap3\n  pop\n  pop\n  dup2\n  swap1\n  sstore\n  pop\n    /* \"@openzeppelin/contracts/token/ERC20/ERC20.sol\":6093:6633  if (from == address(0)) {... */\n  jump(tag_31)\ntag_28:\n    /* \"@openzeppelin/contracts/token/ERC20/ERC20.sol\":6285:6304  uint256 fromBalance */\n  0x00\n    /* \"@openzeppelin/contracts/token/ERC20/ERC20.sol\":6307:6316  _balances */\n  dup1\n    /* \"@openzeppelin/contracts/token/ERC20/ERC20.sol\":6307:6322  _balances[from] */\n  0x00\n    /* \"@openzeppelin/contracts/token/ERC20/ERC20.sol\":6317:6321  from */\n  dup6\n    /* \"@openzeppelin/contracts/token/ERC20/ERC20.sol\":6307:6322  _balances[from] */\n  0xffffffffffffffffffffffffffffffffffffffff\n  and\n  0xffffffffffffffffffffffffffffffffffffffff\n  and\n  dup2\n  mstore\n  0x20\n  add\n  swap1\n  dup2\n  mstore\n  0x20\n  add\n  0x00\n  keccak256\n  sload\n    /* \"@openzeppelin/contracts/token/ERC20/ERC20.sol\":6285:6322  uint256 fromBalance = _balances[from] */\n  swap1\n  pop\n    /* \"@openzeppelin/contracts/token/ERC20/ERC20.sol\":6354:6359  value */\n  dup2\n    /* \"@openzeppelin/contracts/token/ERC20/ERC20.sol\":6340:6351  fromBalance */\n  dup2\n    /* \"@openzeppelin/contracts/token/ERC20/ERC20.sol\":6340:6359  fromBalance < value */\n  lt\n    /* \"@openzeppelin/contracts/token/ERC20/ERC20.sol\":6336:6451  if (fromBalance < value) {... */\n  iszero\n  tag_32\n  jumpi\n    /* \"@openzeppelin/contracts/token/ERC20/ERC20.sol\":6411:6415  from */\n  dup4\n    /* \"@openzeppelin/contracts/token/ERC20/ERC20.sol\":6417:6428  fromBalance */\n  dup2\n    /* \"@openzeppelin/contracts/token/ERC20/ERC20.sol\":6430:6435  value */\n  dup4\n    /* \"@openzeppelin/contracts/token/ERC20/ERC20.sol\":6386:6436  ERC20InsufficientBalance(from, fromBalance, value) */\n  mload(0x40)\n  0xe450d38c00000000000000000000000000000000000000000000000000000000\n  dup2\n  mstore\n  0x04\n  add\n  tag_33\n  swap4\n  swap3\n  swap2\n  swap1\n  tag_34\n  jump\t// in\ntag_33:\n  mload(0x40)\n  dup1\n  swap2\n  sub\n  swap1\n  revert\n    /* \"@openzeppelin/contracts/token/ERC20/ERC20.sol\":6336:6451  if (fromBalance < value) {... */\ntag_32:\n    /* \"@openzeppelin/contracts/token/ERC20/ERC20.sol\":6603:6608  value */\n  dup2\n    /* \"@openzeppelin/contracts/token/ERC20/ERC20.sol\":6589:6600  fromBalance */\n  dup2\n    /* \"@openzeppelin/contracts/token/ERC20/ERC20.sol\":6589:6608  fromBalance - value */\n  sub\n    /* \"@openzeppelin/contracts/token/ERC20/ERC20.sol\":6571:6580  _balances */\n  0x00\n    /* \"@openzeppelin/contracts/token/ERC20/ERC20.sol\":6571:6586  _balances[from] */\n  dup1\n    /* \"@openzeppelin/contracts/token/ERC20/ERC20.sol\":6581:6585  from */\n  dup7\n    /* \"@openzeppelin/contracts/token/ERC20/ERC20.sol\":6571:6586  _balances[from] */\n  0xffffffffffffffffffffffffffffffffffffffff\n  and\n  0xffffffffffffffffffffffffffffffffffffffff\n  and\n  dup2\n  mstore\n  0x20\n  add\n  swap1\n  dup2\n  mstore\n  0x20\n  add\n  0x00\n  keccak256\n    /* \"@openzeppelin/contracts/token/ERC20/ERC20.sol\":6571:6608  _balances[from] = fromBalance - value */\n  dup2\n  swap1\n  sstore\n  pop\n    /* \"@openzeppelin/contracts/token/ERC20/ERC20.sol\":6271:6633  {... */\n  pop\n    /* \"@openzeppelin/contracts/token/ERC20/ERC20.sol\":6093:6633  if (from == address(0)) {... */\ntag_31:\n    /* \"@openzeppelin/contracts/token/ERC20/ERC20.sol\":6661:6662  0 */\n  0x00\n    /* \"@openzeppelin/contracts/token/ERC20/ERC20.sol\":6647:6663  to == address(0) */\n  0xffffffffffffffffffffffffffffffffffffffff\n  and\n    /* \"@openzeppelin/contracts/token/ERC20/ERC20.sol\":6647:6649  to */\n  dup3\n    /* \"@openzeppelin/contracts/token/ERC20/ERC20.sol\":6647:6663  to == address(0) */\n  0xffffffffffffffffffffffffffffffffffffffff\n  and\n  sub\n    /* \"@openzeppelin/contracts/token/ERC20/ERC20.sol\":6643:7068  if (to == address(0)) {... */\n  tag_35\n  jumpi\n    /* \"@openzeppelin/contracts/token/ERC20/ERC20.sol\":6826:6831  value */\n  dup1\n    /* \"@openzeppelin/contracts/token/ERC20/ERC20.sol\":6810:6822  _totalSupply */\n  0x02\n  0x00\n    /* \"@openzeppelin/contracts/token/ERC20/ERC20.sol\":6810:6831  _totalSupply -= value */\n  dup3\n  dup3\n  sload\n  sub\n  swap3\n  pop\n  pop\n  dup2\n  swap1\n  sstore\n  pop\n    /* \"@openzeppelin/contracts/token/ERC20/ERC20.sol\":6643:7068  if (to == address(0)) {... */\n  jump(tag_36)\ntag_35:\n    /* \"@openzeppelin/contracts/token/ERC20/ERC20.sol\":7038:7043  value */\n  dup1\n    /* \"@openzeppelin/contracts/token/ERC20/ERC20.sol\":7021:7030  _balances */\n  0x00\n    /* \"@openzeppelin/contracts/token/ERC20/ERC20.sol\":7021:7034  _balances[to] */\n  dup1\n    /* \"@openzeppelin/contracts/token/ERC20/ERC20.sol\":7031:7033  to */\n  dup5\n    /* \"@openzeppelin/contracts/token/ERC20/ERC20.sol\":7021:7034  _balances[to] */\n  0xffffffffffffffffffffffffffffffffffffffff\n  and\n  0xffffffffffffffffffffffffffffffffffffffff\n  and\n  dup2\n  mstore\n  0x20\n  add\n  swap1\n  dup2\n  mstore\n  0x20\n  add\n  0x00\n  keccak256\n  0x00\n    /* \"@openzeppelin/contracts/token/ERC20/ERC20.sol\":7021:7043  _balances[to] += value */\n  dup3\n  dup3\n  sload\n  add\n  swap3\n  pop\n  pop\n  dup2\n  swap1\n  sstore\n  pop\n    /* \"@openzeppelin/contracts/token/ERC20/ERC20.sol\":6643:7068  if (to == address(0)) {... */\ntag_36:\n    /* \"@openzeppelin/contracts/token/ERC20/ERC20.sol\":7098:7100  to */\n  dup2\n    /* \"@openzeppelin/contracts/token/ERC20/ERC20.sol\":7083:7108  Transfer(from, to, value) */\n  0xffffffffffffffffffffffffffffffffffffffff\n  and\n    /* \"@openzeppelin/contracts/token/ERC20/ERC20.sol\":7092:7096  from */\n  dup4\n    /* \"@openzeppelin/contracts/token/ERC20/ERC20.sol\":7083:7108  Transfer(from, to, value) */\n  0xffffffffffffffffffffffffffffffffffffffff\n  and\n  0xddf252ad1be2c89b69c2b068fc378daa952ba7f163c4a11628f55a4df523b3ef\n    /* \"@openzeppelin/contracts/token/ERC20/ERC20.sol\":7102:7107  value */\n  dup4\n    /* \"@openzeppelin/contracts/token/ERC20/ERC20.sol\":7083:7108  Transfer(from, to, value) */\n  mload(0x40)\n  tag_37\n  swap2\n  swap1\n  tag_38\n  jump\t// in\ntag_37:\n  mload(0x40)\n  dup1\n  swap2\n  sub\n  swap1\n  log3\n    /* \"@openzeppelin/contracts/token/ERC20/ERC20.sol\":6008:7115  function _update(address from, address to, uint256 value) internal virtual {... */\n  pop\n  pop\n  pop\n  jump\t// out\n    /* \"#utility.yul\":88:205   */\ntag_40:\n    /* \"#utility.yul\":197:198   */\n  0x00\n    /* \"#utility.yul\":194:195   */\n  dup1\n    /* \"#utility.yul\":187:199   */\n  revert\n    /* \"#utility.yul\":334:411   */\ntag_42:\n    /* \"#utility.yul\":371:378   */\n  0x00\n    /* \"#utility.yul\":400:405   */\n  dup2\n    /* \"#utility.yul\":389:405   */\n  swap1\n  pop\n    /* \"#utility.yul\":334:411   */\n  swap2\n  swap1\n  pop\n  jump\t// out\n    /* \"#utility.yul\":417:539   */\ntag_43:\n    /* \"#utility.yul\":490:514   */\n  tag_75\n    /* \"#utility.yul\":508:513   */\n  dup2\n    /* \"#utility.yul\":490:514   */\n  tag_42\n  jump\t// in\ntag_75:\n    /* \"#utility.yul\":483:488   */\n  dup2\n    /* \"#utility.yul\":480:515   */\n  eq\n    /* \"#utility.yul\":470:533   */\n  tag_76\n  jumpi\n    /* \"#utility.yul\":529:530   */\n  0x00\n    /* \"#utility.yul\":526:527   */\n  dup1\n    /* \"#utility.yul\":519:531   */\n  revert\n    /* \"#utility.yul\":470:533   */\ntag_76:\n    /* \"#utility.yul\":417:539   */\n  pop\n  jump\t// out\n    /* \"#utility.yul\":545:688   */\ntag_44:\n    /* \"#utility.yul\":602:607   */\n  0x00\n    /* \"#utility.yul\":633:639   */\n  dup2\n    /* \"#utility.yul\":627:640   */\n  mload\n    /* \"#utility.yul\":618:640   */\n  swap1\n  pop\n    /* \"#utility.yul\":649:682   */\n  tag_78\n    /* \"#utility.yul\":676:681   */\n  dup2\n    /* \"#utility.yul\":649:682   */\n  tag_43\n  jump\t// in\ntag_78:\n    /* \"#utility.yul\":545:688   */\n  swap3\n  swap2\n  pop\n  pop\n  jump\t// out\n    /* \"#utility.yul\":694:1045   */\ntag_3:\n    /* \"#utility.yul\":764:770   */\n  0x00\n    /* \"#utility.yul\":813:815   */\n  0x20\n    /* \"#utility.yul\":801:810   */\n  dup3\n    /* \"#utility.yul\":792:799   */\n  dup5\n    /* \"#utility.yul\":788:811   */\n  sub\n    /* \"#utility.yul\":784:816   */\n  slt\n    /* \"#utility.yul\":781:900   */\n  iszero\n  tag_80\n  jumpi\n    /* \"#utility.yul\":819:898   */\n  tag_81\n  tag_40\n  jump\t// in\ntag_81:\n    /* \"#utility.yul\":781:900   */\ntag_80:\n    /* \"#utility.yul\":939:940   */\n  0x00\n    /* \"#utility.yul\":964:1028   */\n  tag_82\n    /* \"#utility.yul\":1020:1027   */\n  dup5\n    /* \"#utility.yul\":1011:1017   */\n  dup3\n    /* \"#utility.yul\":1000:1009   */\n  dup6\n    /* \"#utility.yul\":996:1018   */\n  add\n    /* \"#utility.yul\":964:1028   */\n  tag_44\n  jump\t// in\ntag_82:\n    /* \"#utility.yul\":954:1028   */\n  swap2\n  pop\n    /* \"#utility.yul\":910:1038   */\n  pop\n    /* \"#utility.yul\":694:1045   */\n  swap3\n  swap2\n  pop\n  pop\n  jump\t// out\n    /* \"#utility.yul\":1051:1150   */\ntag_45:\n    /* \"#utility.yul\":1103:1109   */\n  0x00\n    /* \"#utility.yul\":1137:1142   */\n  dup2\n    /* \"#utility.yul\":1131:1143   */\n  mload\n    /* \"#utility.yul\":1121:1143   */\n  swap1\n  pop\n    /* \"#utility.yul\":1051:1150   */\n  swap2\n  swap1\n  pop\n  jump\t// out\n    /* \"#utility.yul\":1156:1336   */\ntag_46:\n    /* \"#utility.yul\":1204:1281   */\n  0x4e487b7100000000000000000000000000000000000000000000000000000000\n    /* \"#utility.yul\":1201:1202   */\n  0x00\n    /* \"#utility.yul\":1194:1282   */\n  mstore\n    /* \"#utility.yul\":1301:1305   */\n  0x41\n    /* \"#utility.yul\":1298:1299   */\n  0x04\n    /* \"#utility.yul\":1291:1306   */\n  mstore\n    /* \"#utility.yul\":1325:1329   */\n  0x24\n    /* \"#utility.yul\":1322:1323   */\n  0x00\n    /* \"#utility.yul\":1315:1330   */\n  revert\n    /* \"#utility.yul\":1342:1522   */\ntag_47:\n    /* \"#utility.yul\":1390:1467   */\n  0x4e487b7100000000000000000000000000000000000000000000000000000000\n    /* \"#utility.yul\":1387:1388   */\n  0x00\n    /* \"#utility.yul\":1380:1468   */\n  mstore\n    /* \"#utility.yul\":1487:1491   */\n  0x22\n    /* \"#utility.yul\":1484:1485   */\n  0x04\n    /* \"#utility.yul\":1477:1492   */\n  mstore\n    /* \"#utility.yul\":1511:1515   */\n  0x24\n    /* \"#utility.yul\":1508:1509   */\n  0x00\n    /* \"#utility.yul\":1501:1516   */\n  revert\n    /* \"#utility.yul\":1528:1848   */\ntag_48:\n    /* \"#utility.yul\":1572:1578   */\n  0x00\n    /* \"#utility.yul\":1609:1610   */\n  0x02\n    /* \"#utility.yul\":1603:1607   */\n  dup3\n    /* \"#utility.yul\":1599:1611   */\n  div\n    /* \"#utility.yul\":1589:1611   */\n  swap1\n  pop\n    /* \"#utility.yul\":1656:1657   */\n  0x01\n    /* \"#utility.yul\":1650:1654   */\n  dup3\n    /* \"#utility.yul\":1646:1658   */\n  and\n    /* \"#utility.yul\":1677:1695   */\n  dup1\n    /* \"#utility.yul\":1667:1748   */\n  tag_87\n  jumpi\n    /* \"#utility.yul\":1733:1737   */\n  0x7f\n    /* \"#utility.yul\":1725:1731   */\n  dup3\n    /* \"#utility.yul\":1721:1738   */\n  and\n    /* \"#utility.yul\":1711:1738   */\n  swap2\n  pop\n    /* \"#utility.yul\":1667:1748   */\ntag_87:\n    /* \"#utility.yul\":1795:1797   */\n  0x20\n    /* \"#utility.yul\":1787:1793   */\n  dup3\n    /* \"#utility.yul\":1784:1798   */\n  lt\n    /* \"#utility.yul\":1764:1782   */\n  dup2\n    /* \"#utility.yul\":1761:1799   */\n  sub\n    /* \"#utility.yul\":1758:1842   */\n  tag_88\n  jumpi\n    /* \"#utility.yul\":1814:1832   */\n  tag_89\n  tag_47\n  jump\t// in\ntag_89:\n    /* \"#utility.yul\":1758:1842   */\ntag_88:\n    /* \"#utility.yul\":1579:1848   */\n  pop\n    /* \"#utility.yul\":1528:1848   */\n  swap2\n  swap1\n  pop\n  jump\t// out\n    /* \"#utility.yul\":1854:1995   */\ntag_49:\n    /* \"#utility.yul\":1903:1907   */\n  0x00\n    /* \"#utility.yul\":1926:1929   */\n  dup2\n    /* \"#utility.yul\":1918:1929   */\n  swap1\n  pop\n    /* \"#utility.yul\":1949:1952   */\n  dup2\n    /* \"#utility.yul\":1946:1947   */\n  0x00\n    /* \"#utility.yul\":1939:1953   */\n  mstore\n    /* \"#utility.yul\":1983:1987   */\n  0x20\n    /* \"#utility.yul\":1980:1981   */\n  0x00\n    /* \"#utility.yul\":1970:1988   */\n  keccak256\n    /* \"#utility.yul\":1962:1988   */\n  swap1\n  pop\n    /* \"#utility.yul\":1854:1995   */\n  swap2\n  swap1\n  pop\n  jump\t// out\n    /* \"#utility.yul\":2001:2094   */\ntag_50:\n    /* \"#utility.yul\":2038:2044   */\n  0x00\n    /* \"#utility.yul\":2085:2087   */\n  0x20\n    /* \"#utility.yul\":2080:2082   */\n  0x1f\n    /* \"#utility.yul\":2073:2078   */\n  dup4\n    /* \"#utility.yul\":2069:2083   */\n  add\n    /* \"#utility.yul\":2065:2088   */\n  div\n    /* \"#utility.yul\":2055:2088   */\n  swap1\n  pop\n    /* \"#utility.yul\":2001:2094   */\n  swap2\n  swap1\n  pop\n  jump\t// out\n    /* \"#utility.yul\":2100:2207   */\ntag_51:\n    /* \"#utility.yul\":2144:2152   */\n  0x00\n    /* \"#utility.yul\":2194:2199   */\n  dup3\n    /* \"#utility.yul\":2188:2192   */\n  dup3\n    /* \"#utility.yul\":2184:2200   */\n  shl\n    /* \"#utility.yul\":2163:2200   */\n  swap1\n  pop\n    /* \"#utility.yul\":2100:2207   */\n  swap3\n  swap2\n  pop\n  pop\n  jump\t// out\n    /* \"#utility.yul\":2213:2606   */\ntag_52:\n    /* \"#utility.yul\":2282:2288   */\n  0x00\n    /* \"#utility.yul\":2332:2333   */\n  0x08\n    /* \"#utility.yul\":2320:2330   */\n  dup4\n    /* \"#utility.yul\":2316:2334   */\n  mul\n    /* \"#utility.yul\":2355:2452   */\n  tag_94\n    /* \"#utility.yul\":2385:2451   */\n  0xffffffffffffffffffffffffffffffffffffffffffffffffffffffffffffffff\n    /* \"#utility.yul\":2374:2383   */\n  dup3\n    /* \"#utility.yul\":2355:2452   */\n  tag_51\n  jump\t// in\ntag_94:\n    /* \"#utility.yul\":2473:2512   */\n  tag_95\n    /* \"#utility.yul\":2503:2511   */\n  dup7\n    /* \"#utility.yul\":2492:2501   */\n  dup4\n    /* \"#utility.yul\":2473:2512   */\n  tag_51\n  jump\t// in\ntag_95:\n    /* \"#utility.yul\":2461:2512   */\n  swap6\n  pop\n    /* \"#utility.yul\":2545:2549   */\n  dup1\n    /* \"#utility.yul\":2541:2550   */\n  not\n    /* \"#utility.yul\":2534:2539   */\n  dup5\n    /* \"#utility.yul\":2530:2551   */\n  and\n    /* \"#utility.yul\":2521:2551   */\n  swap4\n  pop\n    /* \"#utility.yul\":2594:2598   */\n  dup1\n    /* \"#utility.yul\":2584:2592   */\n  dup7\n    /* \"#utility.yul\":2580:2599   */\n  and\n    /* \"#utility.yul\":2573:2578   */\n  dup5\n    /* \"#utility.yul\":2570:2600   */\n  or\n    /* \"#utility.yul\":2560:2600   */\n  swap3\n  pop\n    /* \"#utility.yul\":2289:2606   */\n  pop\n  pop\n    /* \"#utility.yul\":2213:2606   */\n  swap4\n  swap3\n  pop\n  pop\n  pop\n  jump\t// out\n    /* \"#utility.yul\":2612:2672   */\ntag_53:\n    /* \"#utility.yul\":2640:2643   */\n  0x00\n    /* \"#utility.yul\":2661:2666   */\n  dup2\n    /* \"#utility.yul\":2654:2666   */\n  swap1\n  pop\n    /* \"#utility.yul\":2612:2672   */\n  swap2\n  swap1\n  pop\n  jump\t// out\n    /* \"#utility.yul\":2678:2820   */\ntag_54:\n    /* \"#utility.yul\":2728:2737   */\n  0x00\n    /* \"#utility.yul\":2761:2814   */\n  tag_98\n    /* \"#utility.yul\":2779:2813   */\n  tag_99\n    /* \"#utility.yul\":2788:2812   */\n  tag_100\n    /* \"#utility.yul\":2806:2811   */\n  dup5\n    /* \"#utility.yul\":2788:2812   */\n  tag_42\n  jump\t// in\ntag_100:\n    /* \"#utility.yul\":2779:2813   */\n  tag_53\n  jump\t// in\ntag_99:\n    /* \"#utility.yul\":2761:2814   */\n  tag_42\n  jump\t// in\ntag_98:\n    /* \"#utility.yul\":2748:2814   */\n  swap1\n  pop\n    /* \"#utility.yul\":2678:2820   */\n  swap2\n  swap1\n  pop\n  jump\t// out\n    /* \"#utility.yul\":2826:2901   */\ntag_55:\n    /* \"#utility.yul\":2869:2872   */\n  0x00\n    /* \"#utility.yul\":2890:2895   */\n  dup2\n    /* \"#utility.yul\":2883:2895   */\n  swap1\n  pop\n    /* \"#utility.yul\":2826:2901   */\n  swap2\n  swap1\n  pop\n  jump\t// out\n    /* \"#utility.yul\":2907:3176   */\ntag_56:\n    /* \"#utility.yul\":3017:3056   */\n  tag_103\n    /* \"#utility.yul\":3048:3055   */\n  dup4\n    /* \"#utility.yul\":3017:3056   */\n  tag_54\n  jump\t// in\ntag_103:\n    /* \"#utility.yul\":3078:3169   */\n  tag_104\n    /* \"#utility.yul\":3127:3168   */\n  tag_105\n    /* \"#utility.yul\":3151:3167   */\n  dup3\n    /* \"#utility.yul\":3127:3168   */\n  tag_55\n  jump\t// in\ntag_105:\n    /* \"#utility.yul\":3119:3125   */\n  dup5\n    /* \"#utility.yul\":3112:3116   */\n  dup5\n    /* \"#utility.yul\":3106:3117   */\n  sload\n    /* \"#utility.yul\":3078:3169   */\n  tag_52\n  jump\t// in\ntag_104:\n    /* \"#utility.yul\":3072:3076   */\n  dup3\n    /* \"#utility.yul\":3065:3170   */\n  sstore\n    /* \"#utility.yul\":2983:3176   */\n  pop\n    /* \"#utility.yul\":2907:3176   */\n  pop\n  pop\n  pop\n  jump\t// out\n    /* \"#utility.yul\":3182:3255   */\ntag_57:\n    /* \"#utility.yul\":3227:3230   */\n  0x00\n    /* \"#utility.yul\":3182:3255   */\n  swap1\n  jump\t// out\n    /* \"#utility.yul\":3261:3450   */\ntag_58:\n    /* \"#utility.yul\":3338:3370   */\n  tag_108\n  tag_57\n  jump\t// in\ntag_108:\n    /* \"#utility.yul\":3379:3444   */\n  tag_109\n    /* \"#utility.yul\":3437:3443   */\n  dup2\n    /* \"#utility.yul\":3429:3435   */\n  dup5\n    /* \"#utility.yul\":3423:3427   */\n  dup5\n    /* \"#utility.yul\":3379:3444   */\n  tag_56\n  jump\t// in\ntag_109:\n    /* \"#utility.yul\":3314:3450   */\n  pop\n    /* \"#utility.yul\":3261:3450   */\n  pop\n  pop\n  jump\t// out\n    /* \"#utility.yul\":3456:3642   */\ntag_59:\n    /* \"#utility.yul\":3516:3636   */\ntag_111:\n    /* \"#utility.yul\":3533:3536   */\n  dup2\n    /* \"#utility.yul\":3526:3531   */\n  dup2\n    /* \"#utility.yul\":3523:3537   */\n  lt\n    /* \"#utility.yul\":3516:3636   */\n  iszero\n  tag_113\n  jumpi\n    /* \"#utility.yul\":3587:3626   */\n  tag_114\n    /* \"#utility.yul\":3624:3625   */\n  0x00\n    /* \"#utility.yul\":3617:3622   */\n  dup3\n    /* \"#utility.yul\":3587:3626   */\n  tag_58\n  jump\t// in\ntag_114:\n    /* \"#utility.yul\":3560:3561   */\n  0x01\n    /* \"#utility.yul\":3553:3558   */\n  dup2\n    /* \"#utility.yul\":3549:3562   */\n  add\n    /* \"#utility.yul\":3540:3562   */\n  swap1\n  pop\n    /* \"#utility.yul\":3516:3636   */\n  jump(tag_111)\ntag_113:\n    /* \"#utility.yul\":3456:3642   */\n  pop\n  pop\n  jump\t// out\n    /* \"#utility.yul\":3648:4191   */\ntag_60:\n    /* \"#utility.yul\":3749:3751   */\n  0x1f\n    /* \"#utility.yul\":3744:3747   */\n  dup3\n    /* \"#utility.yul\":3741:3752   */\n  gt\n    /* \"#utility.yul\":3738:4184   */\n  iszero\n  tag_116\n  jumpi\n    /* \"#utility.yul\":3783:3821   */\n  tag_117\n    /* \"#utility.yul\":3815:3820   */\n  dup2\n    /* \"#utility.yul\":3783:3821   */\n  tag_49\n  jump\t// in\ntag_117:\n    /* \"#utility.yul\":3867:3896   */\n  tag_118\n    /* \"#utility.yul\":3885:3895   */\n  dup5\n    /* \"#utility.yul\":3867:3896   */\n  tag_50\n  jump\t// in\ntag_118:\n    /* \"#utility.yul\":3857:3865   */\n  dup2\n    /* \"#utility.yul\":3853:3897   */\n  add\n    /* \"#utility.yul\":4050:4052   */\n  0x20\n    /* \"#utility.yul\":4038:4048   */\n  dup6\n    /* \"#utility.yul\":4035:4053   */\n  lt\n    /* \"#utility.yul\":4032:4081   */\n  iszero\n  tag_119\n  jumpi\n    /* \"#utility.yul\":4071:4079   */\n  dup2\n    /* \"#utility.yul\":4056:4079   */\n  swap1\n  pop\n    /* \"#utility.yul\":4032:4081   */\ntag_119:\n    /* \"#utility.yul\":4094:4174   */\n  tag_120\n    /* \"#utility.yul\":4150:4172   */\n  tag_121\n    /* \"#utility.yul\":4168:4171   */\n  dup6\n    /* \"#utility.yul\":4150:4172   */\n  tag_50\n  jump\t// in\ntag_121:\n    /* \"#utility.yul\":4140:4148   */\n  dup4\n    /* \"#utility.yul\":4136:4173   */\n  add\n    /* \"#utility.yul\":4123:4134   */\n  dup3\n    /* \"#utility.yul\":4094:4174   */\n  tag_59\n  jump\t// in\ntag_120:\n    /* \"#utility.yul\":3753:4184   */\n  pop\n  pop\n    /* \"#utility.yul\":3738:4184   */\ntag_116:\n    /* \"#utility.yul\":3648:4191   */\n  pop\n  pop\n  pop\n  jump\t// out\n    /* \"#utility.yul\":4197:4314   */\ntag_61:\n    /* \"#utility.yul\":4251:4259   */\n  0x00\n    /* \"#utility.yul\":4301:4306   */\n  dup3\n    /* \"#utility.yul\":4295:4299   */\n  dup3\n    /* \"#utility.yul\":4291:4307   */\n  shr\n    /* \"#utility.yul\":4270:4307   */\n  swap1\n  pop\n    /* \"#utility.yul\":4197:4314   */\n  swap3\n  swap2\n  pop\n  pop\n  jump\t// out\n    /* \"#utility.yul\":4320:4489   */\ntag_62:\n    /* \"#utility.yul\":4364:4370   */\n  0x00\n    /* \"#utility.yul\":4397:4448   */\n  tag_124\n    /* \"#utility.yul\":4445:4446   */\n  0x00\n    /* \"#utility.yul\":4441:4447   */\n  not\n    /* \"#utility.yul\":4433:4438   */\n  dup5\n    /* \"#utility.yul\":4430:4431   */\n  0x08\n    /* \"#utility.yul\":4426:4439   */\n  mul\n    /* \"#utility.yul\":4397:4448   */\n  tag_61\n  jump\t// in\ntag_124:\n    /* \"#utility.yul\":4393:4449   */\n  not\n    /* \"#utility.yul\":4478:4482   */\n  dup1\n    /* \"#utility.yul\":4472:4476   */\n  dup4\n    /* \"#utility.yul\":4468:4483   */\n  and\n    /* \"#utility.yul\":4458:4483   */\n  swap2\n  pop\n    /* \"#utility.yul\":4371:4489   */\n  pop\n    /* \"#utility.yul\":4320:4489   */\n  swap3\n  swap2\n  pop\n  pop\n  jump\t// out\n    /* \"#utility.yul\":4494:4789   */\ntag_63:\n    /* \"#utility.yul\":4570:4574   */\n  0x00\n    /* \"#utility.yul\":4716:4745   */\n  tag_126\n    /* \"#utility.yul\":4741:4744   */\n  dup4\n    /* \"#utility.yul\":4735:4739   */\n  dup4\n    /* \"#utility.yul\":4716:4745   */\n  tag_62\n  jump\t// in\ntag_126:\n    /* \"#utility.yul\":4708:4745   */\n  swap2\n  pop\n    /* \"#utility.yul\":4778:4781   */\n  dup3\n    /* \"#utility.yul\":4775:4776   */\n  0x02\n    /* \"#utility.yul\":4771:4782   */\n  mul\n    /* \"#utility.yul\":4765:4769   */\n  dup3\n    /* \"#utility.yul\":4762:4783   */\n  or\n    /* \"#utility.yul\":4754:4783   */\n  swap1\n  pop\n    /* \"#utility.yul\":4494:4789   */\n  swap3\n  swap2\n  pop\n  pop\n  jump\t// out\n    /* \"#utility.yul\":4794:6189   */\ntag_9:\n    /* \"#utility.yul\":4911:4948   */\n  tag_128\n    /* \"#utility.yul\":4944:4947   */\n  dup3\n    /* \"#utility.yul\":4911:4948   */\n  tag_45\n  jump\t// in\ntag_128:\n    /* \"#utility.yul\":5013:5031   */\n  0xffffffffffffffff\n    /* \"#utility.yul\":5005:5011   */\n  dup2\n    /* \"#utility.yul\":5002:5032   */\n  gt\n    /* \"#utility.yul\":4999:5055   */\n  iszero\n  tag_129\n  jumpi\n    /* \"#utility.yul\":5035:5053   */\n  tag_130\n  tag_46\n  jump\t// in\ntag_130:\n    /* \"#utility.yul\":4999:5055   */\ntag_129:\n    /* \"#utility.yul\":5079:5117   */\n  tag_131\n    /* \"#utility.yul\":5111:5115   */\n  dup3\n    /* \"#utility.yul\":5105:5116   */\n  sload\n    /* \"#utility.yul\":5079:5117   */\n  tag_48\n  jump\t// in\ntag_131:\n    /* \"#utility.yul\":5164:5231   */\n  tag_132\n    /* \"#utility.yul\":5224:5230   */\n  dup3\n    /* \"#utility.yul\":5216:5222   */\n  dup3\n    /* \"#utility.yul\":5210:5214   */\n  dup6\n    /* \"#utility.yul\":5164:5231   */\n  tag_60\n  jump\t// in\ntag_132:\n    /* \"#utility.yul\":5258:5259   */\n  0x00\n    /* \"#utility.yul\":5282:5286   */\n  0x20\n    /* \"#utility.yul\":5269:5286   */\n  swap1\n  pop\n    /* \"#utility.yul\":5314:5316   */\n  0x1f\n    /* \"#utility.yul\":5306:5312   */\n  dup4\n    /* \"#utility.yul\":5303:5317   */\n  gt\n    /* \"#utility.yul\":5331:5332   */\n  0x01\n    /* \"#utility.yul\":5326:5944   */\n  dup2\n  eq\n  tag_134\n  jumpi\n    /* \"#utility.yul\":5988:5989   */\n  0x00\n    /* \"#utility.yul\":6005:6011   */\n  dup5\n    /* \"#utility.yul\":6002:6079   */\n  iszero\n  tag_135\n  jumpi\n    /* \"#utility.yul\":6054:6063   */\n  dup3\n    /* \"#utility.yul\":6049:6052   */\n  dup8\n    /* \"#utility.yul\":6045:6064   */\n  add\n    /* \"#utility.yul\":6039:6065   */\n  mload\n    /* \"#utility.yul\":6030:6065   */\n  swap1\n  pop\n    /* \"#utility.yul\":6002:6079   */\ntag_135:\n    /* \"#utility.yul\":6105:6172   */\n  tag_136\n    /* \"#utility.yul\":6165:6171   */\n  dup6\n    /* \"#utility.yul\":6158:6163   */\n  dup3\n    /* \"#utility.yul\":6105:6172   */\n  tag_63\n  jump\t// in\ntag_136:\n    /* \"#utility.yul\":6099:6103   */\n  dup7\n    /* \"#utility.yul\":6092:6173   */\n  sstore\n    /* \"#utility.yul\":5961:6183   */\n  pop\n    /* \"#utility.yul\":5296:6183   */\n  jump(tag_133)\n    /* \"#utility.yul\":5326:5944   */\ntag_134:\n    /* \"#utility.yul\":5378:5382   */\n  0x1f\n    /* \"#utility.yul\":5374:5383   */\n  not\n    /* \"#utility.yul\":5366:5372   */\n  dup5\n    /* \"#utility.yul\":5362:5384   */\n  and\n    /* \"#utility.yul\":5412:5449   */\n  tag_137\n    /* \"#utility.yul\":5444:5448   */\n  dup7\n    /* \"#utility.yul\":5412:5449   */\n  tag_49\n  jump\t// in\ntag_137:\n    /* \"#utility.yul\":5471:5472   */\n  0x00\n    /* \"#utility.yul\":5485:5693   */\ntag_138:\n    /* \"#utility.yul\":5499:5506   */\n  dup3\n    /* \"#utility.yul\":5496:5497   */\n  dup2\n    /* \"#utility.yul\":5493:5507   */\n  lt\n    /* \"#utility.yul\":5485:5693   */\n  iszero\n  tag_140\n  jumpi\n    /* \"#utility.yul\":5578:5587   */\n  dup5\n    /* \"#utility.yul\":5573:5576   */\n  dup10\n    /* \"#utility.yul\":5569:5588   */\n  add\n    /* \"#utility.yul\":5563:5589   */\n  mload\n    /* \"#utility.yul\":5555:5561   */\n  dup3\n    /* \"#utility.yul\":5548:5590   */\n  sstore\n    /* \"#utility.yul\":5629:5630   */\n  0x01\n    /* \"#utility.yul\":5621:5627   */\n  dup3\n    /* \"#utility.yul\":5617:5631   */\n  add\n    /* \"#utility.yul\":5607:5631   */\n  swap2\n  pop\n    /* \"#utility.yul\":5676:5678   */\n  0x20\n    /* \"#utility.yul\":5665:5674   */\n  dup6\n    /* \"#utility.yul\":5661:5679   */\n  add\n    /* \"#utility.yul\":5648:5679   */\n  swap5\n  pop\n    /* \"#utility.yul\":5522:5526   */\n  0x20\n    /* \"#utility.yul\":5519:5520   */\n  dup2\n    /* \"#utility.yul\":5515:5527   */\n  add\n    /* \"#utility.yul\":5510:5527   */\n  swap1\n  pop\n    /* \"#utility.yul\":5485:5693   */\n  jump(tag_138)\ntag_140:\n    /* \"#utility.yul\":5721:5727   */\n  dup7\n    /* \"#utility.yul\":5712:5719   */\n  dup4\n    /* \"#utility.yul\":5709:5728   */\n  lt\n    /* \"#utility.yul\":5706:5885   */\n  iszero\n  tag_141\n  jumpi\n    /* \"#utility.yul\":5779:5788   */\n  dup5\n    /* \"#utility.yul\":5774:5777   */\n  dup10\n    /* \"#utility.yul\":5770:5789   */\n  add\n    /* \"#utility.yul\":5764:5790   */\n  mload\n    /* \"#utility.yul\":5822:5870   */\n  tag_142\n    /* \"#utility.yul\":5864:5868   */\n  0x1f\n    /* \"#utility.yul\":5856:5862   */\n  dup10\n    /* \"#utility.yul\":5852:5869   */\n  and\n    /* \"#utility.yul\":5841:5850   */\n  dup3\n    /* \"#utility.yul\":5822:5870   */\n  tag_62\n  jump\t// in\ntag_142:\n    /* \"#utility.yul\":5814:5820   */\n  dup4\n    /* \"#utility.yul\":5807:5871   */\n  sstore\n    /* \"#utility.yul\":5729:5885   */\n  pop\n    /* \"#utility.yul\":5706:5885   */\ntag_141:\n    /* \"#utility.yul\":5931:5932   */\n  0x01\n    /* \"#utility.yul\":5927:5928   */\n  0x02\n    /* \"#utility.yul\":5919:5925   */\n  dup9\n    /* \"#utility.yul\":5915:5929   */\n  mul\n    /* \"#utility.yul\":5911:5933   */\n  add\n    /* \"#utility.yul\":5905:5909   */\n  dup9\n    /* \"#utility.yul\":5898:5934   */\n  sstore\n    /* \"#utility.yul\":5333:5944   */\n  pop\n  pop\n  pop\n    /* \"#utility.yul\":5296:6183   */\ntag_133:\n  pop\n    /* \"#utility.yul\":4886:6189   */\n  pop\n  pop\n  pop\n    /* \"#utility.yul\":4794:6189   */\n  pop\n  pop\n  jump\t// out\n    /* \"#utility.yul\":6195:6321   */\ntag_64:\n    /* \"#utility.yul\":6232:6239   */\n  0x00\n    /* \"#utility.yul\":6272:6314   */\n  0xffffffffffffffffffffffffffffffffffffffff\n    /* \"#utility.yul\":6265:6270   */\n  dup3\n    /* \"#utility.yul\":6261:6315   */\n  and\n    /* \"#utility.yul\":6250:6315   */\n  swap1\n  pop\n    /* \"#utility.yul\":6195:6321   */\n  swap2\n  swap1\n  pop\n  jump\t// out\n    /* \"#utility.yul\":6327:6423   */\ntag_65:\n    /* \"#utility.yul\":6364:6371   */\n  0x00\n    /* \"#utility.yul\":6393:6417   */\n  tag_145\n    /* \"#utility.yul\":6411:6416   */\n  dup3\n    /* \"#utility.yul\":6393:6417   */\n  tag_64\n  jump\t// in\ntag_145:\n    /* \"#utility.yul\":6382:6417   */\n  swap1\n  pop\n    /* \"#utility.yul\":6327:6423   */\n  swap2\n  swap1\n  pop\n  jump\t// out\n    /* \"#utility.yul\":6429:6547   */\ntag_66:\n    /* \"#utility.yul\":6516:6540   */\n  tag_147\n    /* \"#utility.yul\":6534:6539   */\n  dup2\n    /* \"#utility.yul\":6516:6540   */\n  tag_65\n  jump\t// in\ntag_147:\n    /* \"#utility.yul\":6511:6514   */\n  dup3\n    /* \"#utility.yul\":6504:6541   */\n  mstore\n    /* \"#utility.yul\":6429:6547   */\n  pop\n  pop\n  jump\t// out\n    /* \"#utility.yul\":6553:6775   */\ntag_14:\n    /* \"#utility.yul\":6646:6650   */\n  0x00\n    /* \"#utility.yul\":6684:6686   */\n  0x20\n    /* \"#utility.yul\":6673:6682   */\n  dup3\n    /* \"#utility.yul\":6669:6687   */\n  add\n    /* \"#utility.yul\":6661:6687   */\n  swap1\n  pop\n    /* \"#utility.yul\":6697:6768   */\n  tag_149\n    /* \"#utility.yul\":6765:6766   */\n  0x00\n    /* \"#utility.yul\":6754:6763   */\n  dup4\n    /* \"#utility.yul\":6750:6767   */\n  add\n    /* \"#utility.yul\":6741:6747   */\n  dup5\n    /* \"#utility.yul\":6697:6768   */\n  tag_66\n  jump\t// in\ntag_149:\n    /* \"#utility.yul\":6553:6775   */\n  swap3\n  swap2\n  pop\n  pop\n  jump\t// out\n    /* \"#utility.yul\":6781:6961   */\ntag_67:\n    /* \"#utility.yul\":6829:6906   */\n  0x4e487b7100000000000000000000000000000000000000000000000000000000\n    /* \"#utility.yul\":6826:6827   */\n  0x00\n    /* \"#utility.yul\":6819:6907   */\n  mstore\n    /* \"#utility.yul\":6926:6930   */\n  0x11\n    /* \"#utility.yul\":6923:6924   */\n  0x04\n    /* \"#utility.yul\":6916:6931   */\n  mstore\n    /* \"#utility.yul\":6950:6954   */\n  0x24\n    /* \"#utility.yul\":6947:6948   */\n  0x00\n    /* \"#utility.yul\":6940:6955   */\n  revert\n    /* \"#utility.yul\":6967:7158   */\ntag_30:\n    /* \"#utility.yul\":7007:7010   */\n  0x00\n    /* \"#utility.yul\":7026:7046   */\n  tag_152\n    /* \"#utility.yul\":7044:7045   */\n  dup3\n    /* \"#utility.yul\":7026:7046   */\n  tag_42\n  jump\t// in\ntag_152:\n    /* \"#utility.yul\":7021:7046   */\n  swap2\n  pop\n    /* \"#utility.yul\":7060:7080   */\n  tag_153\n    /* \"#utility.yul\":7078:7079   */\n  dup4\n    /* \"#utility.yul\":7060:7080   */\n  tag_42\n  jump\t// in\ntag_153:\n    /* \"#utility.yul\":7055:7080   */\n  swap3\n  pop\n    /* \"#utility.yul\":7103:7104   */\n  dup3\n    /* \"#utility.yul\":7100:7101   */\n  dup3\n    /* \"#utility.yul\":7096:7105   */\n  add\n    /* \"#utility.yul\":7089:7105   */\n  swap1\n  pop\n    /* \"#utility.yul\":7124:7127   */\n  dup1\n    /* \"#utility.yul\":7121:7122   */\n  dup3\n    /* \"#utility.yul\":7118:7128   */\n  gt\n    /* \"#utility.yul\":7115:7151   */\n  iszero\n  tag_154\n  jumpi\n    /* \"#utility.yul\":7131:7149   */\n  tag_155\n  tag_67\n  jump\t// in\ntag_155:\n    /* \"#utility.yul\":7115:7151   */\ntag_154:\n    /* \"#utility.yul\":6967:7158   */\n  swap3\n  swap2\n  pop\n  pop\n  jump\t// out\n    /* \"#utility.yul\":7164:7282   */\ntag_68:\n    /* \"#utility.yul\":7251:7275   */\n  tag_157\n    /* \"#utility.yul\":7269:7274   */\n  dup2\n    /* \"#utility.yul\":7251:7275   */\n  tag_42\n  jump\t// in\ntag_157:\n    /* \"#utility.yul\":7246:7249   */\n  dup3\n    /* \"#utility.yul\":7239:7276   */\n  mstore\n    /* \"#utility.yul\":7164:7282   */\n  pop\n  pop\n  jump\t// out\n    /* \"#utility.yul\":7288:7730   */\ntag_34:\n    /* \"#utility.yul\":7437:7441   */\n  0x00\n    /* \"#utility.yul\":7475:7477   */\n  0x60\n    /* \"#utility.yul\":7464:7473   */\n  dup3\n    /* \"#utility.yul\":7460:7478   */\n  add\n    /* \"#utility.yul\":7452:7478   */\n  swap1\n  pop\n    /* \"#utility.yul\":7488:7559   */\n  tag_159\n    /* \"#utility.yul\":7556:7557   */\n  0x00\n    /* \"#utility.yul\":7545:7554   */\n  dup4\n    /* \"#utility.yul\":7541:7558   */\n  add\n    /* \"#utility.yul\":7532:7538   */\n  dup7\n    /* \"#utility.yul\":7488:7559   */\n  tag_66\n  jump\t// in\ntag_159:\n    /* \"#utility.yul\":7569:7641   */\n  tag_160\n    /* \"#utility.yul\":7637:7639   */\n  0x20\n    /* \"#utility.yul\":7626:7635   */\n  dup4\n    /* \"#utility.yul\":7622:7640   */\n  add\n    /* \"#utility.yul\":7613:7619   */\n  dup6\n    /* \"#utility.yul\":7569:7641   */\n  tag_68\n  jump\t// in\ntag_160:\n    /* \"#utility.yul\":7651:7723   */\n  tag_161\n    /* \"#utility.yul\":7719:7721   */\n  0x40\n    /* \"#utility.yul\":7708:7717   */\n  dup4\n    /* \"#utility.yul\":7704:7722   */\n  add\n    /* \"#utility.yul\":7695:7701   */\n  dup5\n    /* \"#utility.yul\":7651:7723   */\n  tag_68\n  jump\t// in\ntag_161:\n    /* \"#utility.yul\":7288:7730   */\n  swap5\n  swap4\n  pop\n  pop\n  pop\n  pop\n  jump\t// out\n    /* \"#utility.yul\":7736:7958   */\ntag_38:\n    /* \"#utility.yul\":7829:7833   */\n  0x00\n    /* \"#utility.yul\":7867:7869   */\n  0x20\n    /* \"#utility.yul\":7856:7865   */\n  dup3\n    /* \"#utility.yul\":7852:7870   */\n  add\n    /* \"#utility.yul\":7844:7870   */\n  swap1\n  pop\n    /* \"#utility.yul\":7880:7951   */\n  tag_163\n    /* \"#utility.yul\":7948:7949   */\n  0x00\n    /* \"#utility.yul\":7937:7946   */\n  dup4\n    /* \"#utility.yul\":7933:7950   */\n  add\n    /* \"#utility.yul\":7924:7930   */\n  dup5\n    /* \"#utility.yul\":7880:7951   */\n  tag_68\n  jump\t// in\ntag_163:\n    /* \"#utility.yul\":7736:7958   */\n  swap3\n  swap2\n  pop\n  pop\n  jump\t// out\n    /* \"C/cashToken.sol\":481:1437  contract CashToken is ERC20, Ownable {... */\ntag_20:\n  dataSize(sub_0)\n  dup1\n  dataOffset(sub_0)\n  0x00\n  codecopy\n  0x00\n  return\nstop\n\nsub_0: assembly {\n        /* \"C/cashToken.sol\":481:1437  contract CashToken is ERC20, Ownable {... */\n      mstore(0x40, 0x80)\n      callvalue\n      dup1\n      iszero\n      tag_1\n      jumpi\n      0x00\n      dup1\n      revert\n    tag_1:\n      pop\n      jumpi(tag_2, lt(calldatasize, 0x04))\n      shr(0xe0, calldataload(0x00))\n      dup1\n      0x70a08231\n      gt\n      tag_17\n      jumpi\n      dup1\n      0x95d89b41\n      gt\n      tag_18\n      jumpi\n      dup1\n      0x95d89b41\n      eq\n      tag_13\n      jumpi\n      dup1\n      0xa9059cbb\n      eq\n      tag_14\n      jumpi\n      dup1\n      0xdd62ed3e\n      eq\n      tag_15\n      jumpi\n      dup1\n      0xf2fde38b\n      eq\n      tag_16\n      jumpi\n      jump(tag_2)\n    tag_18:\n      dup1\n      0x70a08231\n      eq\n      tag_10\n      jumpi\n      dup1\n      0x715018a6\n      eq\n      tag_11\n      jumpi\n      dup1\n      0x8da5cb5b\n      eq\n      tag_12\n      jumpi\n      jump(tag_2)\n    tag_17:\n      dup1\n      0x23b872dd\n      gt\n      tag_19\n      jumpi\n      dup1\n      0x23b872dd\n      eq\n      tag_6\n      jumpi\n      dup1\n      0x313ce567\n      eq\n      tag_7\n      jumpi\n      dup1\n      0x40c10f19\n      eq\n      tag_8\n      jumpi\n      dup1\n      0x42966c68\n      eq\n      tag_9\n      jumpi\n      jump(tag_2)\n    tag_19:\n      dup1\n      0x06fdde03\n      eq\n      tag_3\n      jumpi\n      dup1\n      0x095ea7b3\n      eq\n      tag_4\n      jumpi\n      dup1\n      0x18160ddd\n      eq\n      tag_5\n      jumpi\n    tag_2:\n      0x00\n      dup1\n      revert\n        /* \"@openzeppelin/contracts/token/ERC20/ERC20.sol\":1779:1868  function name() public view virtual returns (string memory) {... */\n    tag_3:\n      tag_20\n      tag_21\n      jump\t// in\n    tag_20:\n      mload(0x40)\n      tag_22\n      swap2\n      swap1\n      tag_23\n      jump\t// in\n    tag_22:\n      mload(0x40)\n      dup1\n      swap2\n      sub\n      swap1\n      return\n        /* \"@openzeppelin/contracts/token/ERC20/ERC20.sol\":3998:4184  function approve(address spender, uint256 value) public virtual returns (bool) {... */\n    tag_4:\n      tag_24\n      0x04\n      dup1\n      calldatasize\n      sub\n      dup2\n      add\n      swap1\n      tag_25\n      swap2\n      swap1\n      tag_26\n      jump\t// in\n    tag_25:\n      tag_27\n      jump\t// in\n    tag_24:\n      mload(0x40)\n      tag_28\n      swap2\n      swap1\n      tag_29\n      jump\t// in\n    tag_28:\n      mload(0x40)\n      dup1\n      swap2\n      sub\n      swap1\n      return\n        /* \"@openzeppelin/contracts/token/ERC20/ERC20.sol\":2849:2946  function totalSupply() public view virtual returns (uint256) {... */\n    tag_5:\n      tag_30\n      tag_31\n      jump\t// in\n    tag_30:\n      mload(0x40)\n      tag_32\n      swap2\n      swap1\n      tag_33\n      jump\t// in\n    tag_32:\n      mload(0x40)\n      dup1\n      swap2\n      sub\n      swap1\n      return\n        /* \"@openzeppelin/contracts/token/ERC20/ERC20.sol\":4776:5020  function transferFrom(address from, address to, uint256 value) public virtual returns (bool) {... */\n    tag_6:\n      tag_34\n      0x04\n      dup1\n      calldatasize\n      sub\n      dup2\n      add\n      swap1\n      tag_35\n      swap2\n      swap1\n      tag_36\n      jump\t// in\n    tag_35:\n      tag_37\n      jump\t// in\n    tag_34:\n      mload(0x40)\n      tag_38\n      swap2\n      swap1\n      tag_29\n      jump\t// in\n    tag_38:\n      mload(0x40)\n      dup1\n      swap2\n      sub\n      swap1\n      return\n        /* \"@openzeppelin/contracts/token/ERC20/ERC20.sol\":2707:2789  function decimals() public view virtual returns (uint8) {... */\n    tag_7:\n      tag_39\n      tag_40\n      jump\t// in\n    tag_39:\n      mload(0x40)\n      tag_41\n      swap2\n      swap1\n      tag_42\n      jump\t// in\n    tag_41:\n      mload(0x40)\n      dup1\n      swap2\n      sub\n      swap1\n      return\n        /* \"C/cashToken.sol\":1100:1195  function mint(address to, uint256 amount) external onlyOwner {... */\n    tag_8:\n      tag_43\n      0x04\n      dup1\n      calldatasize\n      sub\n      dup2\n      add\n      swap1\n      tag_44\n      swap2\n      swap1\n      tag_26\n      jump\t// in\n    tag_44:\n      tag_45\n      jump\t// in\n    tag_43:\n      stop\n        /* \"C/cashToken.sol\":1354:1435  function burn(uint256 amount) external {... */\n    tag_9:\n      tag_46\n      0x04\n      dup1\n      calldatasize\n      sub\n      dup2\n      add\n      swap1\n      tag_47\n      swap2\n      swap1\n      tag_48\n      jump\t// in\n    tag_47:\n      tag_49\n      jump\t// in\n    tag_46:\n      stop\n        /* \"@openzeppelin/contracts/token/ERC20/ERC20.sol\":3004:3120  function balanceOf(address account) public view virtual returns (uint256) {... */\n    tag_10:\n      tag_50\n      0x04\n      dup1\n      calldatasize\n      sub\n      dup2\n      add\n      swap1\n      tag_51\n      swap2\n      swap1\n      tag_52\n      jump\t// in\n    tag_51:\n      tag_53\n      jump\t// in\n    tag_50:\n      mload(0x40)\n      tag_54\n      swap2\n      swap1\n      tag_33\n      jump\t// in\n    tag_54:\n      mload(0x40)\n      dup1\n      swap2\n      sub\n      swap1\n      return\n        /* \"@openzeppelin/contracts/access/Ownable.sol\":2293:2394  function renounceOwnership() public virtual onlyOwner {... */\n    tag_11:\n      tag_55\n      tag_56\n      jump\t// in\n    tag_55:\n      stop\n        /* \"@openzeppelin/contracts/access/Ownable.sol\":1638:1723  function owner() public view virtual returns (address) {... */\n    tag_12:\n      tag_57\n      tag_58\n      jump\t// in\n    tag_57:\n      mload(0x40)\n      tag_59\n      swap2\n      swap1\n      tag_60\n      jump\t// in\n    tag_59:\n      mload(0x40)\n      dup1\n      swap2\n      sub\n      swap1\n      return\n        /* \"@openzeppelin/contracts/token/ERC20/ERC20.sol\":1981:2074  function symbol() public view virtual returns (string memory) {... */\n    tag_13:\n      tag_61\n      tag_62\n      jump\t// in\n    tag_61:\n      mload(0x40)\n      tag_63\n      swap2\n      swap1\n      tag_23\n      jump\t// in\n    tag_63:\n      mload(0x40)\n      dup1\n      swap2\n      sub\n      swap1\n      return\n        /* \"@openzeppelin/contracts/token/ERC20/ERC20.sol\":3315:3493  function transfer(address to, uint256 value) public virtual returns (bool) {... */\n    tag_14:\n      tag_64\n      0x04\n      dup1\n      calldatasize\n      sub\n      dup2\n      add\n      swap1\n      tag_65\n      swap2\n      swap1\n      tag_26\n      jump\t// in\n    tag_65:\n      tag_66\n      jump\t// in\n    tag_64:\n      mload(0x40)\n      tag_67\n      swap2\n      swap1\n      tag_29\n      jump\t// in\n    tag_67:\n      mload(0x40)\n      dup1\n      swap2\n      sub\n      swap1\n      return\n        /* \"@openzeppelin/contracts/token/ERC20/ERC20.sol\":3551:3691  function allowance(address owner, address spender) public view virtual returns (uint256) {... */\n    tag_15:\n      tag_68\n      0x04\n      dup1\n      calldatasize\n      sub\n      dup2\n      add\n      swap1\n      tag_69\n      swap2\n      swap1\n      tag_70\n      jump\t// in\n    tag_69:\n      tag_71\n      jump\t// in\n    tag_68:\n      mload(0x40)\n      tag_72\n      swap2\n      swap1\n      tag_33\n      jump\t// in\n    tag_72:\n      mload(0x40)\n      dup1\n      swap2\n      sub\n      swap1\n      return\n        /* \"@openzeppelin/contracts/access/Ownable.sol\":2543:2758  function transferOwnership(address newOwner) public virtual onlyOwner {... */\n    tag_16:\n      tag_73\n      0x04\n      dup1\n      calldatasize\n      sub\n      dup2\n      add\n      swap1\n      tag_74\n      swap2\n      swap1\n      tag_52\n      jump\t// in\n    tag_74:\n      tag_75\n      jump\t// in\n    tag_73:\n      stop\n        /* \"@openzeppelin/contracts/token/ERC20/ERC20.sol\":1779:1868  function name() public view virtual returns (string memory) {... */\n    tag_21:\n        /* \"@openzeppelin/contracts/token/ERC20/ERC20.sol\":1824:1837  string memory */\n      0x60\n        /* \"@openzeppelin/contracts/token/ERC20/ERC20.sol\":1856:1861  _name */\n      0x03\n        /* \"@openzeppelin/contracts/token/ERC20/ERC20.sol\":1849:1861  return _name */\n      dup1\n      sload\n      tag_77\n      swap1\n      tag_78\n      jump\t// in\n    tag_77:\n      dup1\n      0x1f\n      add\n      0x20\n      dup1\n      swap2\n      div\n      mul\n      0x20\n      add\n      mload(0x40)\n      swap1\n      dup2\n      add\n      0x40\n      mstore\n      dup1\n      swap3\n      swap2\n      swap1\n      dup2\n      dup2\n      mstore\n      0x20\n      add\n      dup3\n      dup1\n      sload\n      tag_79\n      swap1\n      tag_78\n      jump\t// in\n    tag_79:\n      dup1\n      iszero\n      tag_80\n      jumpi\n      dup1\n      0x1f\n      lt\n      tag_81\n      jumpi\n      0x0100\n      dup1\n      dup4\n      sload\n      div\n      mul\n      dup4\n      mstore\n      swap2\n      0x20\n      add\n      swap2\n      jump(tag_80)\n    tag_81:\n      dup3\n      add\n      swap2\n      swap1\n      0x00\n      mstore\n      keccak256(0x00, 0x20)\n      swap1\n    tag_82:\n      dup2\n      sload\n      dup2\n      mstore\n      swap1\n      0x01\n      add\n      swap1\n      0x20\n      add\n      dup1\n      dup4\n      gt\n      tag_82\n      jumpi\n      dup3\n      swap1\n      sub\n      0x1f\n      and\n      dup3\n      add\n      swap2\n    tag_80:\n      pop\n      pop\n      pop\n      pop\n      pop\n      swap1\n      pop\n        /* \"@openzeppelin/contracts/token/ERC20/ERC20.sol\":1779:1868  function name() public view virtual returns (string memory) {... */\n      swap1\n      jump\t// out\n        /* \"@openzeppelin/contracts/token/ERC20/ERC20.sol\":3998:4184  function approve(address spender, uint256 value) public virtual returns (bool) {... */\n    tag_27:\n        /* \"@openzeppelin/contracts/token/ERC20/ERC20.sol\":4071:4075  bool */\n      0x00\n        /* \"@openzeppelin/contracts/token/ERC20/ERC20.sol\":4087:4100  address owner */\n      dup1\n        /* \"@openzeppelin/contracts/token/ERC20/ERC20.sol\":4103:4115  _msgSender() */\n      tag_84\n        /* \"@openzeppelin/contracts/token/ERC20/ERC20.sol\":4103:4113  _msgSender */\n      tag_85\n        /* \"@openzeppelin/contracts/token/ERC20/ERC20.sol\":4103:4115  _msgSender() */\n      jump\t// in\n    tag_84:\n        /* \"@openzeppelin/contracts/token/ERC20/ERC20.sol\":4087:4115  address owner = _msgSender() */\n      swap1\n      pop\n        /* \"@openzeppelin/contracts/token/ERC20/ERC20.sol\":4125:4156  _approve(owner, spender, value) */\n      tag_86\n        /* \"@openzeppelin/contracts/token/ERC20/ERC20.sol\":4134:4139  owner */\n      dup2\n        /* \"@openzeppelin/contracts/token/ERC20/ERC20.sol\":4141:4148  spender */\n      dup6\n        /* \"@openzeppelin/contracts/token/ERC20/ERC20.sol\":4150:4155  value */\n      dup6\n        /* \"@openzeppelin/contracts/token/ERC20/ERC20.sol\":4125:4133  _approve */\n      tag_87\n        /* \"@openzeppelin/contracts/token/ERC20/ERC20.sol\":4125:4156  _approve(owner, spender, value) */\n      jump\t// in\n    tag_86:\n        /* \"@openzeppelin/contracts/token/ERC20/ERC20.sol\":4173:4177  true */\n      0x01\n        /* \"@openzeppelin/contracts/token/ERC20/ERC20.sol\":4166:4177  return true */\n      swap2\n      pop\n      pop\n        /* \"@openzeppelin/contracts/token/ERC20/ERC20.sol\":3998:4184  function approve(address spender, uint256 value) public virtual returns (bool) {... */\n      swap3\n      swap2\n      pop\n      pop\n      jump\t// out\n        /* \"@openzeppelin/contracts/token/ERC20/ERC20.sol\":2849:2946  function totalSupply() public view virtual returns (uint256) {... */\n    tag_31:\n        /* \"@openzeppelin/contracts/token/ERC20/ERC20.sol\":2901:2908  uint256 */\n      0x00\n        /* \"@openzeppelin/contracts/token/ERC20/ERC20.sol\":2927:2939  _totalSupply */\n      sload(0x02)\n        /* \"@openzeppelin/contracts/token/ERC20/ERC20.sol\":2920:2939  return _totalSupply */\n      swap1\n      pop\n        /* \"@openzeppelin/contracts/token/ERC20/ERC20.sol\":2849:2946  function totalSupply() public view virtual returns (uint256) {... */\n      swap1\n      jump\t// out\n        /* \"@openzeppelin/contracts/token/ERC20/ERC20.sol\":4776:5020  function transferFrom(address from, address to, uint256 value) public virtual returns (bool) {... */\n    tag_37:\n        /* \"@openzeppelin/contracts/token/ERC20/ERC20.sol\":4863:4867  bool */\n      0x00\n        /* \"@openzeppelin/contracts/token/ERC20/ERC20.sol\":4879:4894  address spender */\n      dup1\n        /* \"@openzeppelin/contracts/token/ERC20/ERC20.sol\":4897:4909  _msgSender() */\n      tag_90\n        /* \"@openzeppelin/contracts/token/ERC20/ERC20.sol\":4897:4907  _msgSender */\n      tag_85\n        /* \"@openzeppelin/contracts/token/ERC20/ERC20.sol\":4897:4909  _msgSender() */\n      jump\t// in\n    tag_90:\n        /* \"@openzeppelin/contracts/token/ERC20/ERC20.sol\":4879:4909  address spender = _msgSender() */\n      swap1\n      pop\n        /* \"@openzeppelin/contracts/token/ERC20/ERC20.sol\":4919:4956  _spendAllowance(from, spender, value) */\n      tag_91\n        /* \"@openzeppelin/contracts/token/ERC20/ERC20.sol\":4935:4939  from */\n      dup6\n        /* \"@openzeppelin/contracts/token/ERC20/ERC20.sol\":4941:4948  spender */\n      dup3\n        /* \"@openzeppelin/contracts/token/ERC20/ERC20.sol\":4950:4955  value */\n      dup6\n        /* \"@openzeppelin/contracts/token/ERC20/ERC20.sol\":4919:4934  _spendAllowance */\n      tag_92\n        /* \"@openzeppelin/contracts/token/ERC20/ERC20.sol\":4919:4956  _spendAllowance(from, spender, value) */\n      jump\t// in\n    tag_91:\n        /* \"@openzeppelin/contracts/token/ERC20/ERC20.sol\":4966:4992  _transfer(from, to, value) */\n      tag_93\n        /* \"@openzeppelin/contracts/token/ERC20/ERC20.sol\":4976:4980  from */\n      dup6\n        /* \"@openzeppelin/contracts/token/ERC20/ERC20.sol\":4982:4984  to */\n      dup6\n        /* \"@openzeppelin/contracts/token/ERC20/ERC20.sol\":4986:4991  value */\n      dup6\n        /* \"@openzeppelin/contracts/token/ERC20/ERC20.sol\":4966:4975  _transfer */\n      tag_94\n        /* \"@openzeppelin/contracts/token/ERC20/ERC20.sol\":4966:4992  _transfer(from, to, value) */\n      jump\t// in\n    tag_93:\n        /* \"@openzeppelin/contracts/token/ERC20/ERC20.sol\":5009:5013  true */\n      0x01\n        /* \"@openzeppelin/contracts/token/ERC20/ERC20.sol\":5002:5013  return true */\n      swap2\n      pop\n      pop\n        /* \"@openzeppelin/contracts/token/ERC20/ERC20.sol\":4776:5020  function transferFrom(address from, address to, uint256 value) public virtual returns (bool) {... */\n      swap4\n      swap3\n      pop\n      pop\n      pop\n      jump\t// out\n        /* \"@openzeppelin/contracts/token/ERC20/ERC20.sol\":2707:2789  function decimals() public view virtual returns (uint8) {... */\n    tag_40:\n        /* \"@openzeppelin/contracts/token/ERC20/ERC20.sol\":2756:2761  uint8 */\n      0x00\n        /* \"@openzeppelin/contracts/token/ERC20/ERC20.sol\":2780:2782  18 */\n      0x12\n        /* \"@openzeppelin/contracts/token/ERC20/ERC20.sol\":2773:2782  return 18 */\n      swap1\n      pop\n        /* \"@openzeppelin/contracts/token/ERC20/ERC20.sol\":2707:2789  function decimals() public view virtual returns (uint8) {... */\n      swap1\n      jump\t// out\n        /* \"C/cashToken.sol\":1100:1195  function mint(address to, uint256 amount) external onlyOwner {... */\n    tag_45:\n        /* \"@openzeppelin/contracts/access/Ownable.sol\":1531:1544  _checkOwner() */\n      tag_97\n        /* \"@openzeppelin/contracts/access/Ownable.sol\":1531:1542  _checkOwner */\n      tag_98\n        /* \"@openzeppelin/contracts/access/Ownable.sol\":1531:1544  _checkOwner() */\n      jump\t// in\n    tag_97:\n        /* \"C/cashToken.sol\":1171:1188  _mint(to, amount) */\n      tag_100\n        /* \"C/cashToken.sol\":1177:1179  to */\n      dup3\n        /* \"C/cashToken.sol\":1181:1187  amount */\n      dup3\n        /* \"C/cashToken.sol\":1171:1176  _mint */\n      tag_101\n        /* \"C/cashToken.sol\":1171:1188  _mint(to, amount) */\n      jump\t// in\n    tag_100:\n        /* \"C/cashToken.sol\":1100:1195  function mint(address to, uint256 amount) external onlyOwner {... */\n      pop\n      pop\n      jump\t// out\n        /* \"C/cashToken.sol\":1354:1435  function burn(uint256 amount) external {... */\n    tag_49:\n        /* \"C/cashToken.sol\":1403:1428  _burn(msg.sender, amount) */\n      tag_103\n        /* \"C/cashToken.sol\":1409:1419  msg.sender */\n      caller\n        /* \"C/cashToken.sol\":1421:1427  amount */\n      dup3\n        /* \"C/cashToken.sol\":1403:1408  _burn */\n      tag_104\n        /* \"C/cashToken.sol\":1403:1428  _burn(msg.sender, amount) */\n      jump\t// in\n    tag_103:\n        /* \"C/cashToken.sol\":1354:1435  function burn(uint256 amount) external {... */\n      pop\n      jump\t// out\n        /* \"@openzeppelin/contracts/token/ERC20/ERC20.sol\":3004:3120  function balanceOf(address account) public view virtual returns (uint256) {... */\n    tag_53:\n        /* \"@openzeppelin/contracts/token/ERC20/ERC20.sol\":3069:3076  uint256 */\n      0x00\n        /* \"@openzeppelin/contracts/token/ERC20/ERC20.sol\":3095:3104  _balances */\n      dup1\n        /* \"@openzeppelin/contracts/token/ERC20/ERC20.sol\":3095:3113  _balances[account] */\n      0x00\n        /* \"@openzeppelin/contracts/token/ERC20/ERC20.sol\":3105:3112  account */\n      dup4\n        /* \"@openzeppelin/contracts/token/ERC20/ERC20.sol\":3095:3113  _balances[account] */\n      0xffffffffffffffffffffffffffffffffffffffff\n      and\n      0xffffffffffffffffffffffffffffffffffffffff\n      and\n      dup2\n      mstore\n      0x20\n      add\n      swap1\n      dup2\n      mstore\n      0x20\n      add\n      0x00\n      keccak256\n      sload\n        /* \"@openzeppelin/contracts/token/ERC20/ERC20.sol\":3088:3113  return _balances[account] */\n      swap1\n      pop\n        /* \"@openzeppelin/contracts/token/ERC20/ERC20.sol\":3004:3120  function balanceOf(address account) public view virtual returns (uint256) {... */\n      swap2\n      swap1\n      pop\n      jump\t// out\n        /* \"@openzeppelin/contracts/access/Ownable.sol\":2293:2394  function renounceOwnership() public virtual onlyOwner {... */\n    tag_56:\n        /* \"@openzeppelin/contracts/access/Ownable.sol\":1531:1544  _checkOwner() */\n      tag_107\n        /* \"@openzeppelin/contracts/access/Ownable.sol\":1531:1542  _checkOwner */\n      tag_98\n        /* \"@openzeppelin/contracts/access/Ownable.sol\":1531:1544  _checkOwner() */\n      jump\t// in\n    tag_107:\n        /* \"@openzeppelin/contracts/access/Ownable.sol\":2357:2387  _transferOwnership(address(0)) */\n      tag_109\n        /* \"@openzeppelin/contracts/access/Ownable.sol\":2384:2385  0 */\n      0x00\n        /* \"@openzeppelin/contracts/access/Ownable.sol\":2357:2375  _transferOwnership */\n      tag_110\n        /* \"@openzeppelin/contracts/access/Ownable.sol\":2357:2387  _transferOwnership(address(0)) */\n      jump\t// in\n    tag_109:\n        /* \"@openzeppelin/contracts/access/Ownable.sol\":2293:2394  function renounceOwnership() public virtual onlyOwner {... */\n      jump\t// out\n        /* \"@openzeppelin/contracts/access/Ownable.sol\":1638:1723  function owner() public view virtual returns (address) {... */\n    tag_58:\n        /* \"@openzeppelin/contracts/access/Ownable.sol\":1684:1691  address */\n      0x00\n        /* \"@openzeppelin/contracts/access/Ownable.sol\":1710:1716  _owner */\n      0x05\n      0x00\n      swap1\n      sload\n      swap1\n      0x0100\n      exp\n      swap1\n      div\n      0xffffffffffffffffffffffffffffffffffffffff\n      and\n        /* \"@openzeppelin/contracts/access/Ownable.sol\":1703:1716  return _owner */\n      swap1\n      pop\n        /* \"@openzeppelin/contracts/access/Ownable.sol\":1638:1723  function owner() public view virtual returns (address) {... */\n      swap1\n      jump\t// out\n        /* \"@openzeppelin/contracts/token/ERC20/ERC20.sol\":1981:2074  function symbol() public view virtual returns (string memory) {... */\n    tag_62:\n        /* \"@openzeppelin/contracts/token/ERC20/ERC20.sol\":2028:2041  string memory */\n      0x60\n        /* \"@openzeppelin/contracts/token/ERC20/ERC20.sol\":2060:2067  _symbol */\n      0x04\n        /* \"@openzeppelin/contracts/token/ERC20/ERC20.sol\":2053:2067  return _symbol */\n      dup1\n      sload\n      tag_113\n      swap1\n      tag_78\n      jump\t// in\n    tag_113:\n      dup1\n      0x1f\n      add\n      0x20\n      dup1\n      swap2\n      div\n      mul\n      0x20\n      add\n      mload(0x40)\n      swap1\n      dup2\n      add\n      0x40\n      mstore\n      dup1\n      swap3\n      swap2\n      swap1\n      dup2\n      dup2\n      mstore\n      0x20\n      add\n      dup3\n      dup1\n      sload\n      tag_114\n      swap1\n      tag_78\n      jump\t// in\n    tag_114:\n      dup1\n      iszero\n      tag_115\n      jumpi\n      dup1\n      0x1f\n      lt\n      tag_116\n      jumpi\n      0x0100\n      dup1\n      dup4\n      sload\n      div\n      mul\n      dup4\n      mstore\n      swap2\n      0x20\n      add\n      swap2\n      jump(tag_115)\n    tag_116:\n      dup3\n      add\n      swap2\n      swap1\n      0x00\n      mstore\n      keccak256(0x00, 0x20)\n      swap1\n    tag_117:\n      dup2\n      sload\n      dup2\n      mstore\n      swap1\n      0x01\n      add\n      swap1\n      0x20\n      add\n      dup1\n      dup4\n      gt\n      tag_117\n      jumpi\n      dup3\n      swap1\n      sub\n      0x1f\n      and\n      dup3\n      add\n      swap2\n    tag_115:\n      pop\n      pop\n      pop\n      pop\n      pop\n      swap1\n      pop\n        /* \"@openzeppelin/contracts/token/ERC20/ERC20.sol\":1981:2074  function symbol() public view virtual returns (string memory) {... */\n      swap1\n      jump\t// out\n        /* \"@openzeppelin/contracts/token/ERC20/ERC20.sol\":3315:3493  function transfer(address to, uint256 value) public virtual returns (bool) {... */\n    tag_66:\n        /* \"@openzeppelin/contracts/token/ERC20/ERC20.sol\":3384:3388  bool */\n      0x00\n        /* \"@openzeppelin/contracts/token/ERC20/ERC20.sol\":3400:3413  address owner */\n      dup1\n        /* \"@openzeppelin/contracts/token/ERC20/ERC20.sol\":3416:3428  _msgSender() */\n      tag_119\n        /* \"@openzeppelin/contracts/token/ERC20/ERC20.sol\":3416:3426  _msgSender */\n      tag_85\n        /* \"@openzeppelin/contracts/token/ERC20/ERC20.sol\":3416:3428  _msgSender() */\n      jump\t// in\n    tag_119:\n        /* \"@openzeppelin/contracts/token/ERC20/ERC20.sol\":3400:3428  address owner = _msgSender() */\n      swap1\n      pop\n        /* \"@openzeppelin/contracts/token/ERC20/ERC20.sol\":3438:3465  _transfer(owner, to, value) */\n      tag_120\n        /* \"@openzeppelin/contracts/token/ERC20/ERC20.sol\":3448:3453  owner */\n      dup2\n        /* \"@openzeppelin/contracts/token/ERC20/ERC20.sol\":3455:3457  to */\n      dup6\n        /* \"@openzeppelin/contracts/token/ERC20/ERC20.sol\":3459:3464  value */\n      dup6\n        /* \"@openzeppelin/contracts/token/ERC20/ERC20.sol\":3438:3447  _transfer */\n      tag_94\n        /* \"@openzeppelin/contracts/token/ERC20/ERC20.sol\":3438:3465  _transfer(owner, to, value) */\n      jump\t// in\n    tag_120:\n        /* \"@openzeppelin/contracts/token/ERC20/ERC20.sol\":3482:3486  true */\n      0x01\n        /* \"@openzeppelin/contracts/token/ERC20/ERC20.sol\":3475:3486  return true */\n      swap2\n      pop\n      pop\n        /* \"@openzeppelin/contracts/token/ERC20/ERC20.sol\":3315:3493  function transfer(address to, uint256 value) public virtual returns (bool) {... */\n      swap3\n      swap2\n      pop\n      pop\n      jump\t// out\n        /* \"@openzeppelin/contracts/token/ERC20/ERC20.sol\":3551:3691  function allowance(address owner, address spender) public view virtual returns (uint256) {... */\n    tag_71:\n        /* \"@openzeppelin/contracts/token/ERC20/ERC20.sol\":3631:3638  uint256 */\n      0x00\n        /* \"@openzeppelin/contracts/token/ERC20/ERC20.sol\":3657:3668  _allowances */\n      0x01\n        /* \"@openzeppelin/contracts/token/ERC20/ERC20.sol\":3657:3675  _allowances[owner] */\n      0x00\n        /* \"@openzeppelin/contracts/token/ERC20/ERC20.sol\":3669:3674  owner */\n      dup5\n        /* \"@openzeppelin/contracts/token/ERC20/ERC20.sol\":3657:3675  _allowances[owner] */\n      0xffffffffffffffffffffffffffffffffffffffff\n      and\n      0xffffffffffffffffffffffffffffffffffffffff\n      and\n      dup2\n      mstore\n      0x20\n      add\n      swap1\n      dup2\n      mstore\n      0x20\n      add\n      0x00\n      keccak256\n        /* \"@openzeppelin/contracts/token/ERC20/ERC20.sol\":3657:3684  _allowances[owner][spender] */\n      0x00\n        /* \"@openzeppelin/contracts/token/ERC20/ERC20.sol\":3676:3683  spender */\n      dup4\n        /* \"@openzeppelin/contracts/token/ERC20/ERC20.sol\":3657:3684  _allowances[owner][spender] */\n      0xffffffffffffffffffffffffffffffffffffffff\n      and\n      0xffffffffffffffffffffffffffffffffffffffff\n      and\n      dup2\n      mstore\n      0x20\n      add\n      swap1\n      dup2\n      mstore\n      0x20\n      add\n      0x00\n      keccak256\n      sload\n        /* \"@openzeppelin/contracts/token/ERC20/ERC20.sol\":3650:3684  return _allowances[owner][spender] */\n      swap1\n      pop\n        /* \"@openzeppelin/contracts/token/ERC20/ERC20.sol\":3551:3691  function allowance(address owner, address spender) public view virtual returns (uint256) {... */\n      swap3\n      swap2\n      pop\n      pop\n      jump\t// out\n        /* \"@openzeppelin/contracts/access/Ownable.sol\":2543:2758  function transferOwnership(address newOwner) public virtual onlyOwner {... */\n    tag_75:\n        /* \"@openzeppelin/contracts/access/Ownable.sol\":1531:1544  _checkOwner() */\n      tag_123\n        /* \"@openzeppelin/contracts/access/Ownable.sol\":1531:1542  _checkOwner */\n      tag_98\n        /* \"@openzeppelin/contracts/access/Ownable.sol\":1531:1544  _checkOwner() */\n      jump\t// in\n    tag_123:\n        /* \"@openzeppelin/contracts/access/Ownable.sol\":2647:2648  0 */\n      0x00\n        /* \"@openzeppelin/contracts/access/Ownable.sol\":2627:2649  newOwner == address(0) */\n      0xffffffffffffffffffffffffffffffffffffffff\n      and\n        /* \"@openzeppelin/contracts/access/Ownable.sol\":2627:2635  newOwner */\n      dup2\n        /* \"@openzeppelin/contracts/access/Ownable.sol\":2627:2649  newOwner == address(0) */\n      0xffffffffffffffffffffffffffffffffffffffff\n      and\n      sub\n        /* \"@openzeppelin/contracts/access/Ownable.sol\":2623:2714  if (newOwner == address(0)) {... */\n      tag_125\n      jumpi\n        /* \"@openzeppelin/contracts/access/Ownable.sol\":2700:2701  0 */\n      0x00\n        /* \"@openzeppelin/contracts/access/Ownable.sol\":2672:2703  OwnableInvalidOwner(address(0)) */\n      mload(0x40)\n      0x1e4fbdf700000000000000000000000000000000000000000000000000000000\n      dup2\n      mstore\n      0x04\n      add\n      tag_126\n      swap2\n      swap1\n      tag_60\n      jump\t// in\n    tag_126:\n      mload(0x40)\n      dup1\n      swap2\n      sub\n      swap1\n      revert\n        /* \"@openzeppelin/contracts/access/Ownable.sol\":2623:2714  if (newOwner == address(0)) {... */\n    tag_125:\n        /* \"@openzeppelin/contracts/access/Ownable.sol\":2723:2751  _transferOwnership(newOwner) */\n      tag_127\n        /* \"@openzeppelin/contracts/access/Ownable.sol\":2742:2750  newOwner */\n      dup2\n        /* \"@openzeppelin/contracts/access/Ownable.sol\":2723:2741  _transferOwnership */\n      tag_110\n        /* \"@openzeppelin/contracts/access/Ownable.sol\":2723:2751  _transferOwnership(newOwner) */\n      jump\t// in\n    tag_127:\n        /* \"@openzeppelin/contracts/access/Ownable.sol\":2543:2758  function transferOwnership(address newOwner) public virtual onlyOwner {... */\n      pop\n      jump\t// out\n        /* \"@openzeppelin/contracts/utils/Context.sol\":656:752  function _msgSender() internal view virtual returns (address) {... */\n    tag_85:\n        /* \"@openzeppelin/contracts/utils/Context.sol\":709:716  address */\n      0x00\n        /* \"@openzeppelin/contracts/utils/Context.sol\":735:745  msg.sender */\n      caller\n        /* \"@openzeppelin/contracts/utils/Context.sol\":728:745  return msg.sender */\n      swap1\n      pop\n        /* \"@openzeppelin/contracts/utils/Context.sol\":656:752  function _msgSender() internal view virtual returns (address) {... */\n      swap1\n      jump\t// out\n        /* \"@openzeppelin/contracts/token/ERC20/ERC20.sol\":8726:8854  function _approve(address owner, address spender, uint256 value) internal {... */\n    tag_87:\n        /* \"@openzeppelin/contracts/token/ERC20/ERC20.sol\":8810:8847  _approve(owner, spender, value, true) */\n      tag_130\n        /* \"@openzeppelin/contracts/token/ERC20/ERC20.sol\":8819:8824  owner */\n      dup4\n        /* \"@openzeppelin/contracts/token/ERC20/ERC20.sol\":8826:8833  spender */\n      dup4\n        /* \"@openzeppelin/contracts/token/ERC20/ERC20.sol\":8835:8840  value */\n      dup4\n        /* \"@openzeppelin/contracts/token/ERC20/ERC20.sol\":8842:8846  true */\n      0x01\n        /* \"@openzeppelin/contracts/token/ERC20/ERC20.sol\":8810:8818  _approve */\n      tag_131\n        /* \"@openzeppelin/contracts/token/ERC20/ERC20.sol\":8810:8847  _approve(owner, spender, value, true) */\n      jump\t// in\n    tag_130:\n        /* \"@openzeppelin/contracts/token/ERC20/ERC20.sol\":8726:8854  function _approve(address owner, address spender, uint256 value) internal {... */\n      pop\n      pop\n      pop\n      jump\t// out\n        /* \"@openzeppelin/contracts/token/ERC20/ERC20.sol\":10415:10891  function _spendAllowance(address owner, address spender, uint256 value) internal virtual {... */\n    tag_92:\n        /* \"@openzeppelin/contracts/token/ERC20/ERC20.sol\":10514:10538  uint256 currentAllowance */\n      0x00\n        /* \"@openzeppelin/contracts/token/ERC20/ERC20.sol\":10541:10566  allowance(owner, spender) */\n      tag_133\n        /* \"@openzeppelin/contracts/token/ERC20/ERC20.sol\":10551:10556  owner */\n      dup5\n        /* \"@openzeppelin/contracts/token/ERC20/ERC20.sol\":10558:10565  spender */\n      dup5\n        /* \"@openzeppelin/contracts/token/ERC20/ERC20.sol\":10541:10550  allowance */\n      tag_71\n        /* \"@openzeppelin/contracts/token/ERC20/ERC20.sol\":10541:10566  allowance(owner, spender) */\n      jump\t// in\n    tag_133:\n        /* \"@openzeppelin/contracts/token/ERC20/ERC20.sol\":10514:10566  uint256 currentAllowance = allowance(owner, spender) */\n      swap1\n      pop\n        /* \"@openzeppelin/contracts/token/ERC20/ERC20.sol\":10599:10616  type(uint256).max */\n      0xffffffffffffffffffffffffffffffffffffffffffffffffffffffffffffffff\n        /* \"@openzeppelin/contracts/token/ERC20/ERC20.sol\":10580:10596  currentAllowance */\n      dup2\n        /* \"@openzeppelin/contracts/token/ERC20/ERC20.sol\":10580:10616  currentAllowance < type(uint256).max */\n      lt\n        /* \"@openzeppelin/contracts/token/ERC20/ERC20.sol\":10576:10885  if (currentAllowance < type(uint256).max) {... */\n      iszero\n      tag_134\n      jumpi\n        /* \"@openzeppelin/contracts/token/ERC20/ERC20.sol\":10655:10660  value */\n      dup2\n        /* \"@openzeppelin/contracts/token/ERC20/ERC20.sol\":10636:10652  currentAllowance */\n      dup2\n        /* \"@openzeppelin/contracts/token/ERC20/ERC20.sol\":10636:10660  currentAllowance < value */\n      lt\n        /* \"@openzeppelin/contracts/token/ERC20/ERC20.sol\":10632:10762  if (currentAllowance < value) {... */\n      iszero\n      tag_135\n      jumpi\n        /* \"@openzeppelin/contracts/token/ERC20/ERC20.sol\":10714:10721  spender */\n      dup3\n        /* \"@openzeppelin/contracts/token/ERC20/ERC20.sol\":10723:10739  currentAllowance */\n      dup2\n        /* \"@openzeppelin/contracts/token/ERC20/ERC20.sol\":10741:10746  value */\n      dup4\n        /* \"@openzeppelin/contracts/token/ERC20/ERC20.sol\":10687:10747  ERC20InsufficientAllowance(spender, currentAllowance, value) */\n      mload(0x40)\n      0xfb8f41b200000000000000000000000000000000000000000000000000000000\n      dup2\n      mstore\n      0x04\n      add\n      tag_136\n      swap4\n      swap3\n      swap2\n      swap1\n      tag_137\n      jump\t// in\n    tag_136:\n      mload(0x40)\n      dup1\n      swap2\n      sub\n      swap1\n      revert\n        /* \"@openzeppelin/contracts/token/ERC20/ERC20.sol\":10632:10762  if (currentAllowance < value) {... */\n    tag_135:\n        /* \"@openzeppelin/contracts/token/ERC20/ERC20.sol\":10803:10860  _approve(owner, spender, currentAllowance - value, false) */\n      tag_138\n        /* \"@openzeppelin/contracts/token/ERC20/ERC20.sol\":10812:10817  owner */\n      dup5\n        /* \"@openzeppelin/contracts/token/ERC20/ERC20.sol\":10819:10826  spender */\n      dup5\n        /* \"@openzeppelin/contracts/token/ERC20/ERC20.sol\":10847:10852  value */\n      dup5\n        /* \"@openzeppelin/contracts/token/ERC20/ERC20.sol\":10828:10844  currentAllowance */\n      dup5\n        /* \"@openzeppelin/contracts/token/ERC20/ERC20.sol\":10828:10852  currentAllowance - value */\n      sub\n        /* \"@openzeppelin/contracts/token/ERC20/ERC20.sol\":10854:10859  false */\n      0x00\n        /* \"@openzeppelin/contracts/token/ERC20/ERC20.sol\":10803:10811  _approve */\n      tag_131\n        /* \"@openzeppelin/contracts/token/ERC20/ERC20.sol\":10803:10860  _approve(owner, spender, currentAllowance - value, false) */\n      jump\t// in\n    tag_138:\n        /* \"@openzeppelin/contracts/token/ERC20/ERC20.sol\":10576:10885  if (currentAllowance < type(uint256).max) {... */\n    tag_134:\n        /* \"@openzeppelin/contracts/token/ERC20/ERC20.sol\":10504:10891  {... */\n      pop\n        /* \"@openzeppelin/contracts/token/ERC20/ERC20.sol\":10415:10891  function _spendAllowance(address owner, address spender, uint256 value) internal virtual {... */\n      pop\n      pop\n      pop\n      jump\t// out\n        /* \"@openzeppelin/contracts/token/ERC20/ERC20.sol\":5393:5693  function _transfer(address from, address to, uint256 value) internal {... */\n    tag_94:\n        /* \"@openzeppelin/contracts/token/ERC20/ERC20.sol\":5492:5493  0 */\n      0x00\n        /* \"@openzeppelin/contracts/token/ERC20/ERC20.sol\":5476:5494  from == address(0) */\n      0xffffffffffffffffffffffffffffffffffffffff\n      and\n        /* \"@openzeppelin/contracts/token/ERC20/ERC20.sol\":5476:5480  from */\n      dup4\n        /* \"@openzeppelin/contracts/token/ERC20/ERC20.sol\":5476:5494  from == address(0) */\n      0xffffffffffffffffffffffffffffffffffffffff\n      and\n      sub\n        /* \"@openzeppelin/contracts/token/ERC20/ERC20.sol\":5472:5558  if (from == address(0)) {... */\n      tag_140\n      jumpi\n        /* \"@openzeppelin/contracts/token/ERC20/ERC20.sol\":5544:5545  0 */\n      0x00\n        /* \"@openzeppelin/contracts/token/ERC20/ERC20.sol\":5517:5547  ERC20InvalidSender(address(0)) */\n      mload(0x40)\n      0x96c6fd1e00000000000000000000000000000000000000000000000000000000\n      dup2\n      mstore\n      0x04\n      add\n      tag_141\n      swap2\n      swap1\n      tag_60\n      jump\t// in\n    tag_141:\n      mload(0x40)\n      dup1\n      swap2\n      sub\n      swap1\n      revert\n        /* \"@openzeppelin/contracts/token/ERC20/ERC20.sol\":5472:5558  if (from == address(0)) {... */\n    tag_140:\n        /* \"@openzeppelin/contracts/token/ERC20/ERC20.sol\":5585:5586  0 */\n      0x00\n        /* \"@openzeppelin/contracts/token/ERC20/ERC20.sol\":5571:5587  to == address(0) */\n      0xffffffffffffffffffffffffffffffffffffffff\n      and\n        /* \"@openzeppelin/contracts/token/ERC20/ERC20.sol\":5571:5573  to */\n      dup3\n        /* \"@openzeppelin/contracts/token/ERC20/ERC20.sol\":5571:5587  to == address(0) */\n      0xffffffffffffffffffffffffffffffffffffffff\n      and\n      sub\n        /* \"@openzeppelin/contracts/token/ERC20/ERC20.sol\":5567:5653  if (to == address(0)) {... */\n      tag_142\n      jumpi\n        /* \"@openzeppelin/contracts/token/ERC20/ERC20.sol\":5639:5640  0 */\n      0x00\n        /* \"@openzeppelin/contracts/token/ERC20/ERC20.sol\":5610:5642  ERC20InvalidReceiver(address(0)) */\n      mload(0x40)\n      0xec442f0500000000000000000000000000000000000000000000000000000000\n      dup2\n      mstore\n      0x04\n      add\n      tag_143\n      swap2\n      swap1\n      tag_60\n      jump\t// in\n    tag_143:\n      mload(0x40)\n      dup1\n      swap2\n      sub\n      swap1\n      revert\n        /* \"@openzeppelin/contracts/token/ERC20/ERC20.sol\":5567:5653  if (to == address(0)) {... */\n    tag_142:\n        /* \"@openzeppelin/contracts/token/ERC20/ERC20.sol\":5662:5686  _update(from, to, value) */\n      tag_144\n        /* \"@openzeppelin/contracts/token/ERC20/ERC20.sol\":5670:5674  from */\n      dup4\n        /* \"@openzeppelin/contracts/token/ERC20/ERC20.sol\":5676:5678  to */\n      dup4\n        /* \"@openzeppelin/contracts/token/ERC20/ERC20.sol\":5680:5685  value */\n      dup4\n        /* \"@openzeppelin/contracts/token/ERC20/ERC20.sol\":5662:5669  _update */\n      tag_145\n        /* \"@openzeppelin/contracts/token/ERC20/ERC20.sol\":5662:5686  _update(from, to, value) */\n      jump\t// in\n    tag_144:\n        /* \"@openzeppelin/contracts/token/ERC20/ERC20.sol\":5393:5693  function _transfer(address from, address to, uint256 value) internal {... */\n      pop\n      pop\n      pop\n      jump\t// out\n        /* \"@openzeppelin/contracts/access/Ownable.sol\":1796:1958  function _checkOwner() internal view virtual {... */\n    tag_98:\n        /* \"@openzeppelin/contracts/access/Ownable.sol\":1866:1878  _msgSender() */\n      tag_147\n        /* \"@openzeppelin/contracts/access/Ownable.sol\":1866:1876  _msgSender */\n      tag_85\n        /* \"@openzeppelin/contracts/access/Ownable.sol\":1866:1878  _msgSender() */\n      jump\t// in\n    tag_147:\n        /* \"@openzeppelin/contracts/access/Ownable.sol\":1855:1878  owner() != _msgSender() */\n      0xffffffffffffffffffffffffffffffffffffffff\n      and\n        /* \"@openzeppelin/contracts/access/Ownable.sol\":1855:1862  owner() */\n      tag_148\n        /* \"@openzeppelin/contracts/access/Ownable.sol\":1855:1860  owner */\n      tag_58\n        /* \"@openzeppelin/contracts/access/Ownable.sol\":1855:1862  owner() */\n      jump\t// in\n    tag_148:\n        /* \"@openzeppelin/contracts/access/Ownable.sol\":1855:1878  owner() != _msgSender() */\n      0xffffffffffffffffffffffffffffffffffffffff\n      and\n      eq\n        /* \"@openzeppelin/contracts/access/Ownable.sol\":1851:1952  if (owner() != _msgSender()) {... */\n      tag_149\n      jumpi\n        /* \"@openzeppelin/contracts/access/Ownable.sol\":1928:1940  _msgSender() */\n      tag_150\n        /* \"@openzeppelin/contracts/access/Ownable.sol\":1928:1938  _msgSender */\n      tag_85\n        /* \"@openzeppelin/contracts/access/Ownable.sol\":1928:1940  _msgSender() */\n      jump\t// in\n    tag_150:\n        /* \"@openzeppelin/contracts/access/Ownable.sol\":1901:1941  OwnableUnauthorizedAccount(_msgSender()) */\n      mload(0x40)\n      0x118cdaa700000000000000000000000000000000000000000000000000000000\n      dup2\n      mstore\n      0x04\n      add\n      tag_151\n      swap2\n      swap1\n      tag_60\n      jump\t// in\n    tag_151:\n      mload(0x40)\n      dup1\n      swap2\n      sub\n      swap1\n      revert\n        /* \"@openzeppelin/contracts/access/Ownable.sol\":1851:1952  if (owner() != _msgSender()) {... */\n    tag_149:\n        /* \"@openzeppelin/contracts/access/Ownable.sol\":1796:1958  function _checkOwner() internal view virtual {... */\n      jump\t// out\n        /* \"@openzeppelin/contracts/token/ERC20/ERC20.sol\":7458:7666  function _mint(address account, uint256 value) internal {... */\n    tag_101:\n        /* \"@openzeppelin/contracts/token/ERC20/ERC20.sol\":7547:7548  0 */\n      0x00\n        /* \"@openzeppelin/contracts/token/ERC20/ERC20.sol\":7528:7549  account == address(0) */\n      0xffffffffffffffffffffffffffffffffffffffff\n      and\n        /* \"@openzeppelin/contracts/token/ERC20/ERC20.sol\":7528:7535  account */\n      dup3\n        /* \"@openzeppelin/contracts/token/ERC20/ERC20.sol\":7528:7549  account == address(0) */\n      0xffffffffffffffffffffffffffffffffffffffff\n      and\n      sub\n        /* \"@openzeppelin/contracts/token/ERC20/ERC20.sol\":7524:7615  if (account == address(0)) {... */\n      tag_153\n      jumpi\n        /* \"@openzeppelin/contracts/token/ERC20/ERC20.sol\":7601:7602  0 */\n      0x00\n        /* \"@openzeppelin/contracts/token/ERC20/ERC20.sol\":7572:7604  ERC20InvalidReceiver(address(0)) */\n      mload(0x40)\n      0xec442f0500000000000000000000000000000000000000000000000000000000\n      dup2\n      mstore\n      0x04\n      add\n      tag_154\n      swap2\n      swap1\n      tag_60\n      jump\t// in\n    tag_154:\n      mload(0x40)\n      dup1\n      swap2\n      sub\n      swap1\n      revert\n        /* \"@openzeppelin/contracts/token/ERC20/ERC20.sol\":7524:7615  if (account == address(0)) {... */\n    tag_153:\n        /* \"@openzeppelin/contracts/token/ERC20/ERC20.sol\":7624:7659  _update(address(0), account, value) */\n      tag_155\n        /* \"@openzeppelin/contracts/token/ERC20/ERC20.sol\":7640:7641  0 */\n      0x00\n        /* \"@openzeppelin/contracts/token/ERC20/ERC20.sol\":7644:7651  account */\n      dup4\n        /* \"@openzeppelin/contracts/token/ERC20/ERC20.sol\":7653:7658  value */\n      dup4\n        /* \"@openzeppelin/contracts/token/ERC20/ERC20.sol\":7624:7631  _update */\n      tag_145\n        /* \"@openzeppelin/contracts/token/ERC20/ERC20.sol\":7624:7659  _update(address(0), account, value) */\n      jump\t// in\n    tag_155:\n        /* \"@openzeppelin/contracts/token/ERC20/ERC20.sol\":7458:7666  function _mint(address account, uint256 value) internal {... */\n      pop\n      pop\n      jump\t// out\n        /* \"@openzeppelin/contracts/token/ERC20/ERC20.sol\":7984:8190  function _burn(address account, uint256 value) internal {... */\n    tag_104:\n        /* \"@openzeppelin/contracts/token/ERC20/ERC20.sol\":8073:8074  0 */\n      0x00\n        /* \"@openzeppelin/contracts/token/ERC20/ERC20.sol\":8054:8075  account == address(0) */\n      0xffffffffffffffffffffffffffffffffffffffff\n      and\n        /* \"@openzeppelin/contracts/token/ERC20/ERC20.sol\":8054:8061  account */\n      dup3\n        /* \"@openzeppelin/contracts/token/ERC20/ERC20.sol\":8054:8075  account == address(0) */\n      0xffffffffffffffffffffffffffffffffffffffff\n      and\n      sub\n        /* \"@openzeppelin/contracts/token/ERC20/ERC20.sol\":8050:8139  if (account == address(0)) {... */\n      tag_157\n      jumpi\n        /* \"@openzeppelin/contracts/token/ERC20/ERC20.sol\":8125:8126  0 */\n      0x00\n        /* \"@openzeppelin/contracts/token/ERC20/ERC20.sol\":8098:8128  ERC20InvalidSender(address(0)) */\n      mload(0x40)\n      0x96c6fd1e00000000000000000000000000000000000000000000000000000000\n      dup2\n      mstore\n      0x04\n      add\n      tag_158\n      swap2\n      swap1\n      tag_60\n      jump\t// in\n    tag_158:\n      mload(0x40)\n      dup1\n      swap2\n      sub\n      swap1\n      revert\n        /* \"@openzeppelin/contracts/token/ERC20/ERC20.sol\":8050:8139  if (account == address(0)) {... */\n    tag_157:\n        /* \"@openzeppelin/contracts/token/ERC20/ERC20.sol\":8148:8183  _update(account, address(0), value) */\n      tag_159\n        /* \"@openzeppelin/contracts/token/ERC20/ERC20.sol\":8156:8163  account */\n      dup3\n        /* \"@openzeppelin/contracts/token/ERC20/ERC20.sol\":8173:8174  0 */\n      0x00\n        /* \"@openzeppelin/contracts/token/ERC20/ERC20.sol\":8177:8182  value */\n      dup4\n        /* \"@openzeppelin/contracts/token/ERC20/ERC20.sol\":8148:8155  _update */\n      tag_145\n        /* \"@openzeppelin/contracts/token/ERC20/ERC20.sol\":8148:8183  _update(account, address(0), value) */\n      jump\t// in\n    tag_159:\n        /* \"@openzeppelin/contracts/token/ERC20/ERC20.sol\":7984:8190  function _burn(address account, uint256 value) internal {... */\n      pop\n      pop\n      jump\t// out\n        /* \"@openzeppelin/contracts/access/Ownable.sol\":2912:3099  function _transferOwnership(address newOwner) internal virtual {... */\n    tag_110:\n        /* \"@openzeppelin/contracts/access/Ownable.sol\":2985:3001  address oldOwner */\n      0x00\n        /* \"@openzeppelin/contracts/access/Ownable.sol\":3004:3010  _owner */\n      0x05\n      0x00\n      swap1\n      sload\n      swap1\n      0x0100\n      exp\n      swap1\n      div\n      0xffffffffffffffffffffffffffffffffffffffff\n      and\n        /* \"@openzeppelin/contracts/access/Ownable.sol\":2985:3010  address oldOwner = _owner */\n      swap1\n      pop\n        /* \"@openzeppelin/contracts/access/Ownable.sol\":3029:3037  newOwner */\n      dup2\n        /* \"@openzeppelin/contracts/access/Ownable.sol\":3020:3026  _owner */\n      0x05\n      0x00\n        /* \"@openzeppelin/contracts/access/Ownable.sol\":3020:3037  _owner = newOwner */\n      0x0100\n      exp\n      dup2\n      sload\n      dup2\n      0xffffffffffffffffffffffffffffffffffffffff\n      mul\n      not\n      and\n      swap1\n      dup4\n      0xffffffffffffffffffffffffffffffffffffffff\n      and\n      mul\n      or\n      swap1\n      sstore\n      pop\n        /* \"@openzeppelin/contracts/access/Ownable.sol\":3083:3091  newOwner */\n      dup2\n        /* \"@openzeppelin/contracts/access/Ownable.sol\":3052:3092  OwnershipTransferred(oldOwner, newOwner) */\n      0xffffffffffffffffffffffffffffffffffffffff\n      and\n        /* \"@openzeppelin/contracts/access/Ownable.sol\":3073:3081  oldOwner */\n      dup2\n        /* \"@openzeppelin/contracts/access/Ownable.sol\":3052:3092  OwnershipTransferred(oldOwner, newOwner) */\n      0xffffffffffffffffffffffffffffffffffffffff\n      and\n      0x8be0079c531659141344cd1fd0a4f28419497f9722a3daafe3b4186f6b6457e0\n      mload(0x40)\n      mload(0x40)\n      dup1\n      swap2\n      sub\n      swap1\n      log3\n        /* \"@openzeppelin/contracts/access/Ownable.sol\":2975:3099  {... */\n      pop\n        /* \"@openzeppelin/contracts/access/Ownable.sol\":2912:3099  function _transferOwnership(address newOwner) internal virtual {... */\n      pop\n      jump\t// out\n        /* \"@openzeppelin/contracts/token/ERC20/ERC20.sol\":9701:10133  function _approve(address owner, address spender, uint256 value, bool emitEvent) internal virtual {... */\n    tag_131:\n        /* \"@openzeppelin/contracts/token/ERC20/ERC20.sol\":9830:9831  0 */\n      0x00\n        /* \"@openzeppelin/contracts/token/ERC20/ERC20.sol\":9813:9832  owner == address(0) */\n      0xffffffffffffffffffffffffffffffffffffffff\n      and\n        /* \"@openzeppelin/contracts/token/ERC20/ERC20.sol\":9813:9818  owner */\n      dup5\n        /* \"@openzeppelin/contracts/token/ERC20/ERC20.sol\":9813:9832  owner == address(0) */\n      0xffffffffffffffffffffffffffffffffffffffff\n      and\n      sub\n        /* \"@openzeppelin/contracts/token/ERC20/ERC20.sol\":9809:9898  if (owner == address(0)) {... */\n      tag_162\n      jumpi\n        /* \"@openzeppelin/contracts/token/ERC20/ERC20.sol\":9884:9885  0 */\n      0x00\n        /* \"@openzeppelin/contracts/token/ERC20/ERC20.sol\":9855:9887  ERC20InvalidApprover(address(0)) */\n      mload(0x40)\n      0xe602df0500000000000000000000000000000000000000000000000000000000\n      dup2\n      mstore\n      0x04\n      add\n      tag_163\n      swap2\n      swap1\n      tag_60\n      jump\t// in\n    tag_163:\n      mload(0x40)\n      dup1\n      swap2\n      sub\n      swap1\n      revert\n        /* \"@openzeppelin/contracts/token/ERC20/ERC20.sol\":9809:9898  if (owner == address(0)) {... */\n    tag_162:\n        /* \"@openzeppelin/contracts/token/ERC20/ERC20.sol\":9930:9931  0 */\n      0x00\n        /* \"@openzeppelin/contracts/token/ERC20/ERC20.sol\":9911:9932  spender == address(0) */\n      0xffffffffffffffffffffffffffffffffffffffff\n      and\n        /* \"@openzeppelin/contracts/token/ERC20/ERC20.sol\":9911:9918  spender */\n      dup4\n        /* \"@openzeppelin/contracts/token/ERC20/ERC20.sol\":9911:9932  spender == address(0) */\n      0xffffffffffffffffffffffffffffffffffffffff\n      and\n      sub\n        /* \"@openzeppelin/contracts/token/ERC20/ERC20.sol\":9907:9997  if (spender == address(0)) {... */\n      tag_164\n      jumpi\n        /* \"@openzeppelin/contracts/token/ERC20/ERC20.sol\":9983:9984  0 */\n      0x00\n        /* \"@openzeppelin/contracts/token/ERC20/ERC20.sol\":9955:9986  ERC20InvalidSpender(address(0)) */\n      mload(0x40)\n      0x94280d6200000000000000000000000000000000000000000000000000000000\n      dup2\n      mstore\n      0x04\n      add\n      tag_165\n      swap2\n      swap1\n      tag_60\n      jump\t// in\n    tag_165:\n      mload(0x40)\n      dup1\n      swap2\n      sub\n      swap1\n      revert\n        /* \"@openzeppelin/contracts/token/ERC20/ERC20.sol\":9907:9997  if (spender == address(0)) {... */\n    tag_164:\n        /* \"@openzeppelin/contracts/token/ERC20/ERC20.sol\":10036:10041  value */\n      dup2\n        /* \"@openzeppelin/contracts/token/ERC20/ERC20.sol\":10006:10017  _allowances */\n      0x01\n        /* \"@openzeppelin/contracts/token/ERC20/ERC20.sol\":10006:10024  _allowances[owner] */\n      0x00\n        /* \"@openzeppelin/contracts/token/ERC20/ERC20.sol\":10018:10023  owner */\n      dup7\n        /* \"@openzeppelin/contracts/token/ERC20/ERC20.sol\":10006:10024  _allowances[owner] */\n      0xffffffffffffffffffffffffffffffffffffffff\n      and\n      0xffffffffffffffffffffffffffffffffffffffff\n      and\n      dup2\n      mstore\n      0x20\n      add\n      swap1\n      dup2\n      mstore\n      0x20\n      add\n      0x00\n      keccak256\n        /* \"@openzeppelin/contracts/token/ERC20/ERC20.sol\":10006:10033  _allowances[owner][spender] */\n      0x00\n        /* \"@openzeppelin/contracts/token/ERC20/ERC20.sol\":10025:10032  spender */\n      dup6\n        /* \"@openzeppelin/contracts/token/ERC20/ERC20.sol\":10006:10033  _allowances[owner][spender] */\n      0xffffffffffffffffffffffffffffffffffffffff\n      and\n      0xffffffffffffffffffffffffffffffffffffffff\n      and\n      dup2\n      mstore\n      0x20\n      add\n      swap1\n      dup2\n      mstore\n      0x20\n      add\n      0x00\n      keccak256\n        /* \"@openzeppelin/contracts/token/ERC20/ERC20.sol\":10006:10041  _allowances[owner][spender] = value */\n      dup2\n      swap1\n      sstore\n      pop\n        /* \"@openzeppelin/contracts/token/ERC20/ERC20.sol\":10055:10064  emitEvent */\n      dup1\n        /* \"@openzeppelin/contracts/token/ERC20/ERC20.sol\":10051:10127  if (emitEvent) {... */\n      iszero\n      tag_166\n      jumpi\n        /* \"@openzeppelin/contracts/token/ERC20/ERC20.sol\":10101:10108  spender */\n      dup3\n        /* \"@openzeppelin/contracts/token/ERC20/ERC20.sol\":10085:10116  Approval(owner, spender, value) */\n      0xffffffffffffffffffffffffffffffffffffffff\n      and\n        /* \"@openzeppelin/contracts/token/ERC20/ERC20.sol\":10094:10099  owner */\n      dup5\n        /* \"@openzeppelin/contracts/token/ERC20/ERC20.sol\":10085:10116  Approval(owner, spender, value) */\n      0xffffffffffffffffffffffffffffffffffffffff\n      and\n      0x8c5be1e5ebec7d5bd14f71427d1e84f3dd0314c0f7b2291e5b200ac8c7c3b925\n        /* \"@openzeppelin/contracts/token/ERC20/ERC20.sol\":10110:10115  value */\n      dup5\n        /* \"@openzeppelin/contracts/token/ERC20/ERC20.sol\":10085:10116  Approval(owner, spender, value) */\n      mload(0x40)\n      tag_167\n      swap2\n      swap1\n      tag_33\n      jump\t// in\n    tag_167:\n      mload(0x40)\n      dup1\n      swap2\n      sub\n      swap1\n      log3\n        /* \"@openzeppelin/contracts/token/ERC20/ERC20.sol\":10051:10127  if (emitEvent) {... */\n    tag_166:\n        /* \"@openzeppelin/contracts/token/ERC20/ERC20.sol\":9701:10133  function _approve(address owner, address spender, uint256 value, bool emitEvent) internal virtual {... */\n      pop\n      pop\n      pop\n      pop\n      jump\t// out\n        /* \"@openzeppelin/contracts/token/ERC20/ERC20.sol\":6008:7115  function _update(address from, address to, uint256 value) internal virtual {... */\n    tag_145:\n        /* \"@openzeppelin/contracts/token/ERC20/ERC20.sol\":6113:6114  0 */\n      0x00\n        /* \"@openzeppelin/contracts/token/ERC20/ERC20.sol\":6097:6115  from == address(0) */\n      0xffffffffffffffffffffffffffffffffffffffff\n      and\n        /* \"@openzeppelin/contracts/token/ERC20/ERC20.sol\":6097:6101  from */\n      dup4\n        /* \"@openzeppelin/contracts/token/ERC20/ERC20.sol\":6097:6115  from == address(0) */\n      0xffffffffffffffffffffffffffffffffffffffff\n      and\n      sub\n        /* \"@openzeppelin/contracts/token/ERC20/ERC20.sol\":6093:6633  if (from == address(0)) {... */\n      tag_169\n      jumpi\n        /* \"@openzeppelin/contracts/token/ERC20/ERC20.sol\":6249:6254  value */\n      dup1\n        /* \"@openzeppelin/contracts/token/ERC20/ERC20.sol\":6233:6245  _totalSupply */\n      0x02\n      0x00\n        /* \"@openzeppelin/contracts/token/ERC20/ERC20.sol\":6233:6254  _totalSupply += value */\n      dup3\n      dup3\n      sload\n      tag_170\n      swap2\n      swap1\n      tag_171\n      jump\t// in\n    tag_170:\n      swap3\n      pop\n      pop\n      dup2\n      swap1\n      sstore\n      pop\n        /* \"@openzeppelin/contracts/token/ERC20/ERC20.sol\":6093:6633  if (from == address(0)) {... */\n      jump(tag_172)\n    tag_169:\n        /* \"@openzeppelin/contracts/token/ERC20/ERC20.sol\":6285:6304  uint256 fromBalance */\n      0x00\n        /* \"@openzeppelin/contracts/token/ERC20/ERC20.sol\":6307:6316  _balances */\n      dup1\n        /* \"@openzeppelin/contracts/token/ERC20/ERC20.sol\":6307:6322  _balances[from] */\n      0x00\n        /* \"@openzeppelin/contracts/token/ERC20/ERC20.sol\":6317:6321  from */\n      dup6\n        /* \"@openzeppelin/contracts/token/ERC20/ERC20.sol\":6307:6322  _balances[from] */\n      0xffffffffffffffffffffffffffffffffffffffff\n      and\n      0xffffffffffffffffffffffffffffffffffffffff\n      and\n      dup2\n      mstore\n      0x20\n      add\n      swap1\n      dup2\n      mstore\n      0x20\n      add\n      0x00\n      keccak256\n      sload\n        /* \"@openzeppelin/contracts/token/ERC20/ERC20.sol\":6285:6322  uint256 fromBalance = _balances[from] */\n      swap1\n      pop\n        /* \"@openzeppelin/contracts/token/ERC20/ERC20.sol\":6354:6359  value */\n      dup2\n        /* \"@openzeppelin/contracts/token/ERC20/ERC20.sol\":6340:6351  fromBalance */\n      dup2\n        /* \"@openzeppelin/contracts/token/ERC20/ERC20.sol\":6340:6359  fromBalance < value */\n      lt\n        /* \"@openzeppelin/contracts/token/ERC20/ERC20.sol\":6336:6451  if (fromBalance < value) {... */\n      iszero\n      tag_173\n      jumpi\n        /* \"@openzeppelin/contracts/token/ERC20/ERC20.sol\":6411:6415  from */\n      dup4\n        /* \"@openzeppelin/contracts/token/ERC20/ERC20.sol\":6417:6428  fromBalance */\n      dup2\n        /* \"@openzeppelin/contracts/token/ERC20/ERC20.sol\":6430:6435  value */\n      dup4\n        /* \"@openzeppelin/contracts/token/ERC20/ERC20.sol\":6386:6436  ERC20InsufficientBalance(from, fromBalance, value) */\n      mload(0x40)\n      0xe450d38c00000000000000000000000000000000000000000000000000000000\n      dup2\n      mstore\n      0x04\n      add\n      tag_174\n      swap4\n      swap3\n      swap2\n      swap1\n      tag_137\n      jump\t// in\n    tag_174:\n      mload(0x40)\n      dup1\n      swap2\n      sub\n      swap1\n      revert\n        /* \"@openzeppelin/contracts/token/ERC20/ERC20.sol\":6336:6451  if (fromBalance < value) {... */\n    tag_173:\n        /* \"@openzeppelin/contracts/token/ERC20/ERC20.sol\":6603:6608  value */\n      dup2\n        /* \"@openzeppelin/contracts/token/ERC20/ERC20.sol\":6589:6600  fromBalance */\n      dup2\n        /* \"@openzeppelin/contracts/token/ERC20/ERC20.sol\":6589:6608  fromBalance - value */\n      sub\n        /* \"@openzeppelin/contracts/token/ERC20/ERC20.sol\":6571:6580  _balances */\n      0x00\n        /* \"@openzeppelin/contracts/token/ERC20/ERC20.sol\":6571:6586  _balances[from] */\n      dup1\n        /* \"@openzeppelin/contracts/token/ERC20/ERC20.sol\":6581:6585  from */\n      dup7\n        /* \"@openzeppelin/contracts/token/ERC20/ERC20.sol\":6571:6586  _balances[from] */\n      0xffffffffffffffffffffffffffffffffffffffff\n      and\n      0xffffffffffffffffffffffffffffffffffffffff\n      and\n      dup2\n      mstore\n      0x20\n      add\n      swap1\n      dup2\n      mstore\n      0x20\n      add\n      0x00\n      keccak256\n        /* \"@openzeppelin/contracts/token/ERC20/ERC20.sol\":6571:6608  _balances[from] = fromBalance - value */\n      dup2\n      swap1\n      sstore\n      pop\n        /* \"@openzeppelin/contracts/token/ERC20/ERC20.sol\":6271:6633  {... */\n      pop\n        /* \"@openzeppelin/contracts/token/ERC20/ERC20.sol\":6093:6633  if (from == address(0)) {... */\n    tag_172:\n        /* \"@openzeppelin/contracts/token/ERC20/ERC20.sol\":6661:6662  0 */\n      0x00\n        /* \"@openzeppelin/contracts/token/ERC20/ERC20.sol\":6647:6663  to == address(0) */\n      0xffffffffffffffffffffffffffffffffffffffff\n      and\n        /* \"@openzeppelin/contracts/token/ERC20/ERC20.sol\":6647:6649  to */\n      dup3\n        /* \"@openzeppelin/contracts/token/ERC20/ERC20.sol\":6647:6663  to == address(0) */\n      0xffffffffffffffffffffffffffffffffffffffff\n      and\n      sub\n        /* \"@openzeppelin/contracts/token/ERC20/ERC20.sol\":6643:7068  if (to == address(0)) {... */\n      tag_175\n      jumpi\n        /* \"@openzeppelin/contracts/token/ERC20/ERC20.sol\":6826:6831  value */\n      dup1\n        /* \"@openzeppelin/contracts/token/ERC20/ERC20.sol\":6810:6822  _totalSupply */\n      0x02\n      0x00\n        /* \"@openzeppelin/contracts/token/ERC20/ERC20.sol\":6810:6831  _totalSupply -= value */\n      dup3\n      dup3\n      sload\n      sub\n      swap3\n      pop\n      pop\n      dup2\n      swap1\n      sstore\n      pop\n        /* \"@openzeppelin/contracts/token/ERC20/ERC20.sol\":6643:7068  if (to == address(0)) {... */\n      jump(tag_176)\n    tag_175:\n        /* \"@openzeppelin/contracts/token/ERC20/ERC20.sol\":7038:7043  value */\n      dup1\n        /* \"@openzeppelin/contracts/token/ERC20/ERC20.sol\":7021:7030  _balances */\n      0x00\n        /* \"@openzeppelin/contracts/token/ERC20/ERC20.sol\":7021:7034  _balances[to] */\n      dup1\n        /* \"@openzeppelin/contracts/token/ERC20/ERC20.sol\":7031:7033  to */\n      dup5\n        /* \"@openzeppelin/contracts/token/ERC20/ERC20.sol\":7021:7034  _balances[to] */\n      0xffffffffffffffffffffffffffffffffffffffff\n      and\n      0xffffffffffffffffffffffffffffffffffffffff\n      and\n      dup2\n      mstore\n      0x20\n      add\n      swap1\n      dup2\n      mstore\n      0x20\n      add\n      0x00\n      keccak256\n      0x00\n        /* \"@openzeppelin/contracts/token/ERC20/ERC20.sol\":7021:7043  _balances[to] += value */\n      dup3\n      dup3\n      sload\n      add\n      swap3\n      pop\n      pop\n      dup2\n      swap1\n      sstore\n      pop\n        /* \"@openzeppelin/contracts/token/ERC20/ERC20.sol\":6643:7068  if (to == address(0)) {... */\n    tag_176:\n        /* \"@openzeppelin/contracts/token/ERC20/ERC20.sol\":7098:7100  to */\n      dup2\n        /* \"@openzeppelin/contracts/token/ERC20/ERC20.sol\":7083:7108  Transfer(from, to, value) */\n      0xffffffffffffffffffffffffffffffffffffffff\n      and\n        /* \"@openzeppelin/contracts/token/ERC20/ERC20.sol\":7092:7096  from */\n      dup4\n        /* \"@openzeppelin/contracts/token/ERC20/ERC20.sol\":7083:7108  Transfer(from, to, value) */\n      0xffffffffffffffffffffffffffffffffffffffff\n      and\n      0xddf252ad1be2c89b69c2b068fc378daa952ba7f163c4a11628f55a4df523b3ef\n        /* \"@openzeppelin/contracts/token/ERC20/ERC20.sol\":7102:7107  value */\n      dup4\n        /* \"@openzeppelin/contracts/token/ERC20/ERC20.sol\":7083:7108  Transfer(from, to, value) */\n      mload(0x40)\n      tag_177\n      swap2\n      swap1\n      tag_33\n      jump\t// in\n    tag_177:\n      mload(0x40)\n      dup1\n      swap2\n      sub\n      swap1\n      log3\n        /* \"@openzeppelin/contracts/token/ERC20/ERC20.sol\":6008:7115  function _update(address from, address to, uint256 value) internal virtual {... */\n      pop\n      pop\n      pop\n      jump\t// out\n        /* \"#utility.yul\":7:106   */\n    tag_178:\n        /* \"#utility.yul\":59:65   */\n      0x00\n        /* \"#utility.yul\":93:98   */\n      dup2\n        /* \"#utility.yul\":87:99   */\n      mload\n        /* \"#utility.yul\":77:99   */\n      swap1\n      pop\n        /* \"#utility.yul\":7:106   */\n      swap2\n      swap1\n      pop\n      jump\t// out\n        /* \"#utility.yul\":112:281   */\n    tag_179:\n        /* \"#utility.yul\":196:207   */\n      0x00\n        /* \"#utility.yul\":230:236   */\n      dup3\n        /* \"#utility.yul\":225:228   */\n      dup3\n        /* \"#utility.yul\":218:237   */\n      mstore\n        /* \"#utility.yul\":270:274   */\n      0x20\n        /* \"#utility.yul\":265:268   */\n      dup3\n        /* \"#utility.yul\":261:275   */\n      add\n        /* \"#utility.yul\":246:275   */\n      swap1\n      pop\n        /* \"#utility.yul\":112:281   */\n      swap3\n      swap2\n      pop\n      pop\n      jump\t// out\n        /* \"#utility.yul\":287:533   */\n    tag_180:\n        /* \"#utility.yul\":368:369   */\n      0x00\n        /* \"#utility.yul\":378:491   */\n    tag_205:\n        /* \"#utility.yul\":392:398   */\n      dup4\n        /* \"#utility.yul\":389:390   */\n      dup2\n        /* \"#utility.yul\":386:399   */\n      lt\n        /* \"#utility.yul\":378:491   */\n      iszero\n      tag_207\n      jumpi\n        /* \"#utility.yul\":477:478   */\n      dup1\n        /* \"#utility.yul\":472:475   */\n      dup3\n        /* \"#utility.yul\":468:479   */\n      add\n        /* \"#utility.yul\":462:480   */\n      mload\n        /* \"#utility.yul\":458:459   */\n      dup2\n        /* \"#utility.yul\":453:456   */\n      dup5\n        /* \"#utility.yul\":449:460   */\n      add\n        /* \"#utility.yul\":442:481   */\n      mstore\n        /* \"#utility.yul\":414:416   */\n      0x20\n        /* \"#utility.yul\":411:412   */\n      dup2\n        /* \"#utility.yul\":407:417   */\n      add\n        /* \"#utility.yul\":402:417   */\n      swap1\n      pop\n        /* \"#utility.yul\":378:491   */\n      jump(tag_205)\n    tag_207:\n        /* \"#utility.yul\":525:526   */\n      0x00\n        /* \"#utility.yul\":516:522   */\n      dup5\n        /* \"#utility.yul\":511:514   */\n      dup5\n        /* \"#utility.yul\":507:523   */\n      add\n        /* \"#utility.yul\":500:527   */\n      mstore\n        /* \"#utility.yul\":349:533   */\n      pop\n        /* \"#utility.yul\":287:533   */\n      pop\n      pop\n      pop\n      jump\t// out\n        /* \"#utility.yul\":539:641   */\n    tag_181:\n        /* \"#utility.yul\":580:586   */\n      0x00\n        /* \"#utility.yul\":631:633   */\n      0x1f\n        /* \"#utility.yul\":627:634   */\n      not\n        /* \"#utility.yul\":622:624   */\n      0x1f\n        /* \"#utility.yul\":615:620   */\n      dup4\n        /* \"#utility.yul\":611:625   */\n      add\n        /* \"#utility.yul\":607:635   */\n      and\n        /* \"#utility.yul\":597:635   */\n      swap1\n      pop\n        /* \"#utility.yul\":539:641   */\n      swap2\n      swap1\n      pop\n      jump\t// out\n        /* \"#utility.yul\":647:1024   */\n    tag_182:\n        /* \"#utility.yul\":735:738   */\n      0x00\n        /* \"#utility.yul\":763:802   */\n      tag_210\n        /* \"#utility.yul\":796:801   */\n      dup3\n        /* \"#utility.yul\":763:802   */\n      tag_178\n      jump\t// in\n    tag_210:\n        /* \"#utility.yul\":818:889   */\n      tag_211\n        /* \"#utility.yul\":882:888   */\n      dup2\n        /* \"#utility.yul\":877:880   */\n      dup6\n        /* \"#utility.yul\":818:889   */\n      tag_179\n      jump\t// in\n    tag_211:\n        /* \"#utility.yul\":811:889   */\n      swap4\n      pop\n        /* \"#utility.yul\":898:963   */\n      tag_212\n        /* \"#utility.yul\":956:962   */\n      dup2\n        /* \"#utility.yul\":951:954   */\n      dup6\n        /* \"#utility.yul\":944:948   */\n      0x20\n        /* \"#utility.yul\":937:942   */\n      dup7\n        /* \"#utility.yul\":933:949   */\n      add\n        /* \"#utility.yul\":898:963   */\n      tag_180\n      jump\t// in\n    tag_212:\n        /* \"#utility.yul\":988:1017   */\n      tag_213\n        /* \"#utility.yul\":1010:1016   */\n      dup2\n        /* \"#utility.yul\":988:1017   */\n      tag_181\n      jump\t// in\n    tag_213:\n        /* \"#utility.yul\":983:986   */\n      dup5\n        /* \"#utility.yul\":979:1018   */\n      add\n        /* \"#utility.yul\":972:1018   */\n      swap2\n      pop\n        /* \"#utility.yul\":739:1024   */\n      pop\n        /* \"#utility.yul\":647:1024   */\n      swap3\n      swap2\n      pop\n      pop\n      jump\t// out\n        /* \"#utility.yul\":1030:1343   */\n    tag_23:\n        /* \"#utility.yul\":1143:1147   */\n      0x00\n        /* \"#utility.yul\":1181:1183   */\n      0x20\n        /* \"#utility.yul\":1170:1179   */\n      dup3\n        /* \"#utility.yul\":1166:1184   */\n      add\n        /* \"#utility.yul\":1158:1184   */\n      swap1\n      pop\n        /* \"#utility.yul\":1230:1239   */\n      dup2\n        /* \"#utility.yul\":1224:1228   */\n      dup2\n        /* \"#utility.yul\":1220:1240   */\n      sub\n        /* \"#utility.yul\":1216:1217   */\n      0x00\n        /* \"#utility.yul\":1205:1214   */\n      dup4\n        /* \"#utility.yul\":1201:1218   */\n      add\n        /* \"#utility.yul\":1194:1241   */\n      mstore\n        /* \"#utility.yul\":1258:1336   */\n      tag_215\n        /* \"#utility.yul\":1331:1335   */\n      dup2\n        /* \"#utility.yul\":1322:1328   */\n      dup5\n        /* \"#utility.yul\":1258:1336   */\n      tag_182\n      jump\t// in\n    tag_215:\n        /* \"#utility.yul\":1250:1336   */\n      swap1\n      pop\n        /* \"#utility.yul\":1030:1343   */\n      swap3\n      swap2\n      pop\n      pop\n      jump\t// out\n        /* \"#utility.yul\":1430:1547   */\n    tag_184:\n        /* \"#utility.yul\":1539:1540   */\n      0x00\n        /* \"#utility.yul\":1536:1537   */\n      dup1\n        /* \"#utility.yul\":1529:1541   */\n      revert\n        /* \"#utility.yul\":1676:1802   */\n    tag_186:\n        /* \"#utility.yul\":1713:1720   */\n      0x00\n        /* \"#utility.yul\":1753:1795   */\n      0xffffffffffffffffffffffffffffffffffffffff\n        /* \"#utility.yul\":1746:1751   */\n      dup3\n        /* \"#utility.yul\":1742:1796   */\n      and\n        /* \"#utility.yul\":1731:1796   */\n      swap1\n      pop\n        /* \"#utility.yul\":1676:1802   */\n      swap2\n      swap1\n      pop\n      jump\t// out\n        /* \"#utility.yul\":1808:1904   */\n    tag_187:\n        /* \"#utility.yul\":1845:1852   */\n      0x00\n        /* \"#utility.yul\":1874:1898   */\n      tag_221\n        /* \"#utility.yul\":1892:1897   */\n      dup3\n        /* \"#utility.yul\":1874:1898   */\n      tag_186\n      jump\t// in\n    tag_221:\n        /* \"#utility.yul\":1863:1898   */\n      swap1\n      pop\n        /* \"#utility.yul\":1808:1904   */\n      swap2\n      swap1\n      pop\n      jump\t// out\n        /* \"#utility.yul\":1910:2032   */\n    tag_188:\n        /* \"#utility.yul\":1983:2007   */\n      tag_223\n        /* \"#utility.yul\":2001:2006   */\n      dup2\n        /* \"#utility.yul\":1983:2007   */\n      tag_187\n      jump\t// in\n    tag_223:\n        /* \"#utility.yul\":1976:1981   */\n      dup2\n        /* \"#utility.yul\":1973:2008   */\n      eq\n        /* \"#utility.yul\":1963:2026   */\n      tag_224\n      jumpi\n        /* \"#utility.yul\":2022:2023   */\n      0x00\n        /* \"#utility.yul\":2019:2020   */\n      dup1\n        /* \"#utility.yul\":2012:2024   */\n      revert\n        /* \"#utility.yul\":1963:2026   */\n    tag_224:\n        /* \"#utility.yul\":1910:2032   */\n      pop\n      jump\t// out\n        /* \"#utility.yul\":2038:2177   */\n    tag_189:\n        /* \"#utility.yul\":2084:2089   */\n      0x00\n        /* \"#utility.yul\":2122:2128   */\n      dup2\n        /* \"#utility.yul\":2109:2129   */\n      calldataload\n        /* \"#utility.yul\":2100:2129   */\n      swap1\n      pop\n        /* \"#utility.yul\":2138:2171   */\n      tag_226\n        /* \"#utility.yul\":2165:2170   */\n      dup2\n        /* \"#utility.yul\":2138:2171   */\n      tag_188\n      jump\t// in\n    tag_226:\n        /* \"#utility.yul\":2038:2177   */\n      swap3\n      swap2\n      pop\n      pop\n      jump\t// out\n        /* \"#utility.yul\":2183:2260   */\n    tag_190:\n        /* \"#utility.yul\":2220:2227   */\n      0x00\n        /* \"#utility.yul\":2249:2254   */\n      dup2\n        /* \"#utility.yul\":2238:2254   */\n      swap1\n      pop\n        /* \"#utility.yul\":2183:2260   */\n      swap2\n      swap1\n      pop\n      jump\t// out\n        /* \"#utility.yul\":2266:2388   */\n    tag_191:\n        /* \"#utility.yul\":2339:2363   */\n      tag_229\n        /* \"#utility.yul\":2357:2362   */\n      dup2\n        /* \"#utility.yul\":2339:2363   */\n      tag_190\n      jump\t// in\n    tag_229:\n        /* \"#utility.yul\":2332:2337   */\n      dup2\n        /* \"#utility.yul\":2329:2364   */\n      eq\n        /* \"#utility.yul\":2319:2382   */\n      tag_230\n      jumpi\n        /* \"#utility.yul\":2378:2379   */\n      0x00\n        /* \"#utility.yul\":2375:2376   */\n      dup1\n        /* \"#utility.yul\":2368:2380   */\n      revert\n        /* \"#utility.yul\":2319:2382   */\n    tag_230:\n        /* \"#utility.yul\":2266:2388   */\n      pop\n      jump\t// out\n        /* \"#utility.yul\":2394:2533   */\n    tag_192:\n        /* \"#utility.yul\":2440:2445   */\n      0x00\n        /* \"#utility.yul\":2478:2484   */\n      dup2\n        /* \"#utility.yul\":2465:2485   */\n      calldataload\n        /* \"#utility.yul\":2456:2485   */\n      swap1\n      pop\n        /* \"#utility.yul\":2494:2527   */\n      tag_232\n        /* \"#utility.yul\":2521:2526   */\n      dup2\n        /* \"#utility.yul\":2494:2527   */\n      tag_191\n      jump\t// in\n    tag_232:\n        /* \"#utility.yul\":2394:2533   */\n      swap3\n      swap2\n      pop\n      pop\n      jump\t// out\n        /* \"#utility.yul\":2539:3013   */\n    tag_26:\n        /* \"#utility.yul\":2607:2613   */\n      0x00\n        /* \"#utility.yul\":2615:2621   */\n      dup1\n        /* \"#utility.yul\":2664:2666   */\n      0x40\n        /* \"#utility.yul\":2652:2661   */\n      dup4\n        /* \"#utility.yul\":2643:2650   */\n      dup6\n        /* \"#utility.yul\":2639:2662   */\n      sub\n        /* \"#utility.yul\":2635:2667   */\n      slt\n        /* \"#utility.yul\":2632:2751   */\n      iszero\n      tag_234\n      jumpi\n        /* \"#utility.yul\":2670:2749   */\n      tag_235\n      tag_184\n      jump\t// in\n    tag_235:\n        /* \"#utility.yul\":2632:2751   */\n    tag_234:\n        /* \"#utility.yul\":2790:2791   */\n      0x00\n        /* \"#utility.yul\":2815:2868   */\n      tag_236\n        /* \"#utility.yul\":2860:2867   */\n      dup6\n        /* \"#utility.yul\":2851:2857   */\n      dup3\n        /* \"#utility.yul\":2840:2849   */\n      dup7\n        /* \"#utility.yul\":2836:2858   */\n      add\n        /* \"#utility.yul\":2815:2868   */\n      tag_189\n      jump\t// in\n    tag_236:\n        /* \"#utility.yul\":2805:2868   */\n      swap3\n      pop\n        /* \"#utility.yul\":2761:2878   */\n      pop\n        /* \"#utility.yul\":2917:2919   */\n      0x20\n        /* \"#utility.yul\":2943:2996   */\n      tag_237\n        /* \"#utility.yul\":2988:2995   */\n      dup6\n        /* \"#utility.yul\":2979:2985   */\n      dup3\n        /* \"#utility.yul\":2968:2977   */\n      dup7\n        /* \"#utility.yul\":2964:2986   */\n      add\n        /* \"#utility.yul\":2943:2996   */\n      tag_192\n      jump\t// in\n    tag_237:\n        /* \"#utility.yul\":2933:2996   */\n      swap2\n      pop\n        /* \"#utility.yul\":2888:3006   */\n      pop\n        /* \"#utility.yul\":2539:3013   */\n      swap3\n      pop\n      swap3\n      swap1\n      pop\n      jump\t// out\n        /* \"#utility.yul\":3019:3109   */\n    tag_193:\n        /* \"#utility.yul\":3053:3060   */\n      0x00\n        /* \"#utility.yul\":3096:3101   */\n      dup2\n        /* \"#utility.yul\":3089:3102   */\n      iszero\n        /* \"#utility.yul\":3082:3103   */\n      iszero\n        /* \"#utility.yul\":3071:3103   */\n      swap1\n      pop\n        /* \"#utility.yul\":3019:3109   */\n      swap2\n      swap1\n      pop\n      jump\t// out\n        /* \"#utility.yul\":3115:3224   */\n    tag_194:\n        /* \"#utility.yul\":3196:3217   */\n      tag_240\n        /* \"#utility.yul\":3211:3216   */\n      dup2\n        /* \"#utility.yul\":3196:3217   */\n      tag_193\n      jump\t// in\n    tag_240:\n        /* \"#utility.yul\":3191:3194   */\n      dup3\n        /* \"#utility.yul\":3184:3218   */\n      mstore\n        /* \"#utility.yul\":3115:3224   */\n      pop\n      pop\n      jump\t// out\n        /* \"#utility.yul\":3230:3440   */\n    tag_29:\n        /* \"#utility.yul\":3317:3321   */\n      0x00\n        /* \"#utility.yul\":3355:3357   */\n      0x20\n        /* \"#utility.yul\":3344:3353   */\n      dup3\n        /* \"#utility.yul\":3340:3358   */\n      add\n        /* \"#utility.yul\":3332:3358   */\n      swap1\n      pop\n        /* \"#utility.yul\":3368:3433   */\n      tag_242\n        /* \"#utility.yul\":3430:3431   */\n      0x00\n        /* \"#utility.yul\":3419:3428   */\n      dup4\n        /* \"#utility.yul\":3415:3432   */\n      add\n        /* \"#utility.yul\":3406:3412   */\n      dup5\n        /* \"#utility.yul\":3368:3433   */\n      tag_194\n      jump\t// in\n    tag_242:\n        /* \"#utility.yul\":3230:3440   */\n      swap3\n      swap2\n      pop\n      pop\n      jump\t// out\n        /* \"#utility.yul\":3446:3564   */\n    tag_195:\n        /* \"#utility.yul\":3533:3557   */\n      tag_244\n        /* \"#utility.yul\":3551:3556   */\n      dup2\n        /* \"#utility.yul\":3533:3557   */\n      tag_190\n      jump\t// in\n    tag_244:\n        /* \"#utility.yul\":3528:3531   */\n      dup3\n        /* \"#utility.yul\":3521:3558   */\n      mstore\n        /* \"#utility.yul\":3446:3564   */\n      pop\n      pop\n      jump\t// out\n        /* \"#utility.yul\":3570:3792   */\n    tag_33:\n        /* \"#utility.yul\":3663:3667   */\n      0x00\n        /* \"#utility.yul\":3701:3703   */\n      0x20\n        /* \"#utility.yul\":3690:3699   */\n      dup3\n        /* \"#utility.yul\":3686:3704   */\n      add\n        /* \"#utility.yul\":3678:3704   */\n      swap1\n      pop\n        /* \"#utility.yul\":3714:3785   */\n      tag_246\n        /* \"#utility.yul\":3782:3783   */\n      0x00\n        /* \"#utility.yul\":3771:3780   */\n      dup4\n        /* \"#utility.yul\":3767:3784   */\n      add\n        /* \"#utility.yul\":3758:3764   */\n      dup5\n        /* \"#utility.yul\":3714:3785   */\n      tag_195\n      jump\t// in\n    tag_246:\n        /* \"#utility.yul\":3570:3792   */\n      swap3\n      swap2\n      pop\n      pop\n      jump\t// out\n        /* \"#utility.yul\":3798:4417   */\n    tag_36:\n        /* \"#utility.yul\":3875:3881   */\n      0x00\n        /* \"#utility.yul\":3883:3889   */\n      dup1\n        /* \"#utility.yul\":3891:3897   */\n      0x00\n        /* \"#utility.yul\":3940:3942   */\n      0x60\n        /* \"#utility.yul\":3928:3937   */\n      dup5\n        /* \"#utility.yul\":3919:3926   */\n      dup7\n        /* \"#utility.yul\":3915:3938   */\n      sub\n        /* \"#utility.yul\":3911:3943   */\n      slt\n        /* \"#utility.yul\":3908:4027   */\n      iszero\n      tag_248\n      jumpi\n        /* \"#utility.yul\":3946:4025   */\n      tag_249\n      tag_184\n      jump\t// in\n    tag_249:\n        /* \"#utility.yul\":3908:4027   */\n    tag_248:\n        /* \"#utility.yul\":4066:4067   */\n      0x00\n        /* \"#utility.yul\":4091:4144   */\n      tag_250\n        /* \"#utility.yul\":4136:4143   */\n      dup7\n        /* \"#utility.yul\":4127:4133   */\n      dup3\n        /* \"#utility.yul\":4116:4125   */\n      dup8\n        /* \"#utility.yul\":4112:4134   */\n      add\n        /* \"#utility.yul\":4091:4144   */\n      tag_189\n      jump\t// in\n    tag_250:\n        /* \"#utility.yul\":4081:4144   */\n      swap4\n      pop\n        /* \"#utility.yul\":4037:4154   */\n      pop\n        /* \"#utility.yul\":4193:4195   */\n      0x20\n        /* \"#utility.yul\":4219:4272   */\n      tag_251\n        /* \"#utility.yul\":4264:4271   */\n      dup7\n        /* \"#utility.yul\":4255:4261   */\n      dup3\n        /* \"#utility.yul\":4244:4253   */\n      dup8\n        /* \"#utility.yul\":4240:4262   */\n      add\n        /* \"#utility.yul\":4219:4272   */\n      tag_189\n      jump\t// in\n    tag_251:\n        /* \"#utility.yul\":4209:4272   */\n      swap3\n      pop\n        /* \"#utility.yul\":4164:4282   */\n      pop\n        /* \"#utility.yul\":4321:4323   */\n      0x40\n        /* \"#utility.yul\":4347:4400   */\n      tag_252\n        /* \"#utility.yul\":4392:4399   */\n      dup7\n        /* \"#utility.yul\":4383:4389   */\n      dup3\n        /* \"#utility.yul\":4372:4381   */\n      dup8\n        /* \"#utility.yul\":4368:4390   */\n      add\n        /* \"#utility.yul\":4347:4400   */\n      tag_192\n      jump\t// in\n    tag_252:\n        /* \"#utility.yul\":4337:4400   */\n      swap2\n      pop\n        /* \"#utility.yul\":4292:4410   */\n      pop\n        /* \"#utility.yul\":3798:4417   */\n      swap3\n      pop\n      swap3\n      pop\n      swap3\n      jump\t// out\n        /* \"#utility.yul\":4423:4509   */\n    tag_196:\n        /* \"#utility.yul\":4458:4465   */\n      0x00\n        /* \"#utility.yul\":4498:4502   */\n      0xff\n        /* \"#utility.yul\":4491:4496   */\n      dup3\n        /* \"#utility.yul\":4487:4503   */\n      and\n        /* \"#utility.yul\":4476:4503   */\n      swap1\n      pop\n        /* \"#utility.yul\":4423:4509   */\n      swap2\n      swap1\n      pop\n      jump\t// out\n        /* \"#utility.yul\":4515:4627   */\n    tag_197:\n        /* \"#utility.yul\":4598:4620   */\n      tag_255\n        /* \"#utility.yul\":4614:4619   */\n      dup2\n        /* \"#utility.yul\":4598:4620   */\n      tag_196\n      jump\t// in\n    tag_255:\n        /* \"#utility.yul\":4593:4596   */\n      dup3\n        /* \"#utility.yul\":4586:4621   */\n      mstore\n        /* \"#utility.yul\":4515:4627   */\n      pop\n      pop\n      jump\t// out\n        /* \"#utility.yul\":4633:4847   */\n    tag_42:\n        /* \"#utility.yul\":4722:4726   */\n      0x00\n        /* \"#utility.yul\":4760:4762   */\n      0x20\n        /* \"#utility.yul\":4749:4758   */\n      dup3\n        /* \"#utility.yul\":4745:4763   */\n      add\n        /* \"#utility.yul\":4737:4763   */\n      swap1\n      pop\n        /* \"#utility.yul\":4773:4840   */\n      tag_257\n        /* \"#utility.yul\":4837:4838   */\n      0x00\n        /* \"#utility.yul\":4826:4835   */\n      dup4\n        /* \"#utility.yul\":4822:4839   */\n      add\n        /* \"#utility.yul\":4813:4819   */\n      dup5\n        /* \"#utility.yul\":4773:4840   */\n      tag_197\n      jump\t// in\n    tag_257:\n        /* \"#utility.yul\":4633:4847   */\n      swap3\n      swap2\n      pop\n      pop\n      jump\t// out\n        /* \"#utility.yul\":4853:5182   */\n    tag_48:\n        /* \"#utility.yul\":4912:4918   */\n      0x00\n        /* \"#utility.yul\":4961:4963   */\n      0x20\n        /* \"#utility.yul\":4949:4958   */\n      dup3\n        /* \"#utility.yul\":4940:4947   */\n      dup5\n        /* \"#utility.yul\":4936:4959   */\n      sub\n        /* \"#utility.yul\":4932:4964   */\n      slt\n        /* \"#utility.yul\":4929:5048   */\n      iszero\n      tag_259\n      jumpi\n        /* \"#utility.yul\":4967:5046   */\n      tag_260\n      tag_184\n      jump\t// in\n    tag_260:\n        /* \"#utility.yul\":4929:5048   */\n    tag_259:\n        /* \"#utility.yul\":5087:5088   */\n      0x00\n        /* \"#utility.yul\":5112:5165   */\n      tag_261\n        /* \"#utility.yul\":5157:5164   */\n      dup5\n        /* \"#utility.yul\":5148:5154   */\n      dup3\n        /* \"#utility.yul\":5137:5146   */\n      dup6\n        /* \"#utility.yul\":5133:5155   */\n      add\n        /* \"#utility.yul\":5112:5165   */\n      tag_192\n      jump\t// in\n    tag_261:\n        /* \"#utility.yul\":5102:5165   */\n      swap2\n      pop\n        /* \"#utility.yul\":5058:5175   */\n      pop\n        /* \"#utility.yul\":4853:5182   */\n      swap3\n      swap2\n      pop\n      pop\n      jump\t// out\n        /* \"#utility.yul\":5188:5517   */\n    tag_52:\n        /* \"#utility.yul\":5247:5253   */\n      0x00\n        /* \"#utility.yul\":5296:5298   */\n      0x20\n        /* \"#utility.yul\":5284:5293   */\n      dup3\n        /* \"#utility.yul\":5275:5282   */\n      dup5\n        /* \"#utility.yul\":5271:5294   */\n      sub\n        /* \"#utility.yul\":5267:5299   */\n      slt\n        /* \"#utility.yul\":5264:5383   */\n      iszero\n      tag_263\n      jumpi\n        /* \"#utility.yul\":5302:5381   */\n      tag_264\n      tag_184\n      jump\t// in\n    tag_264:\n        /* \"#utility.yul\":5264:5383   */\n    tag_263:\n        /* \"#utility.yul\":5422:5423   */\n      0x00\n        /* \"#utility.yul\":5447:5500   */\n      tag_265\n        /* \"#utility.yul\":5492:5499   */\n      dup5\n        /* \"#utility.yul\":5483:5489   */\n      dup3\n        /* \"#utility.yul\":5472:5481   */\n      dup6\n        /* \"#utility.yul\":5468:5490   */\n      add\n        /* \"#utility.yul\":5447:5500   */\n      tag_189\n      jump\t// in\n    tag_265:\n        /* \"#utility.yul\":5437:5500   */\n      swap2\n      pop\n        /* \"#utility.yul\":5393:5510   */\n      pop\n        /* \"#utility.yul\":5188:5517   */\n      swap3\n      swap2\n      pop\n      pop\n      jump\t// out\n        /* \"#utility.yul\":5523:5641   */\n    tag_198:\n        /* \"#utility.yul\":5610:5634   */\n      tag_267\n        /* \"#utility.yul\":5628:5633   */\n      dup2\n        /* \"#utility.yul\":5610:5634   */\n      tag_187\n      jump\t// in\n    tag_267:\n        /* \"#utility.yul\":5605:5608   */\n      dup3\n        /* \"#utility.yul\":5598:5635   */\n      mstore\n        /* \"#utility.yul\":5523:5641   */\n      pop\n      pop\n      jump\t// out\n        /* \"#utility.yul\":5647:5869   */\n    tag_60:\n        /* \"#utility.yul\":5740:5744   */\n      0x00\n        /* \"#utility.yul\":5778:5780   */\n      0x20\n        /* \"#utility.yul\":5767:5776   */\n      dup3\n        /* \"#utility.yul\":5763:5781   */\n      add\n        /* \"#utility.yul\":5755:5781   */\n      swap1\n      pop\n        /* \"#utility.yul\":5791:5862   */\n      tag_269\n        /* \"#utility.yul\":5859:5860   */\n      0x00\n        /* \"#utility.yul\":5848:5857   */\n      dup4\n        /* \"#utility.yul\":5844:5861   */\n      add\n        /* \"#utility.yul\":5835:5841   */\n      dup5\n        /* \"#utility.yul\":5791:5862   */\n      tag_198\n      jump\t// in\n    tag_269:\n        /* \"#utility.yul\":5647:5869   */\n      swap3\n      swap2\n      pop\n      pop\n      jump\t// out\n        /* \"#utility.yul\":5875:6349   */\n    tag_70:\n        /* \"#utility.yul\":5943:5949   */\n      0x00\n        /* \"#utility.yul\":5951:5957   */\n      dup1\n        /* \"#utility.yul\":6000:6002   */\n      0x40\n        /* \"#utility.yul\":5988:5997   */\n      dup4\n        /* \"#utility.yul\":5979:5986   */\n      dup6\n        /* \"#utility.yul\":5975:5998   */\n      sub\n        /* \"#utility.yul\":5971:6003   */\n      slt\n        /* \"#utility.yul\":5968:6087   */\n      iszero\n      tag_271\n      jumpi\n        /* \"#utility.yul\":6006:6085   */\n      tag_272\n      tag_184\n      jump\t// in\n    tag_272:\n        /* \"#utility.yul\":5968:6087   */\n    tag_271:\n        /* \"#utility.yul\":6126:6127   */\n      0x00\n        /* \"#utility.yul\":6151:6204   */\n      tag_273\n        /* \"#utility.yul\":6196:6203   */\n      dup6\n        /* \"#utility.yul\":6187:6193   */\n      dup3\n        /* \"#utility.yul\":6176:6185   */\n      dup7\n        /* \"#utility.yul\":6172:6194   */\n      add\n        /* \"#utility.yul\":6151:6204   */\n      tag_189\n      jump\t// in\n    tag_273:\n        /* \"#utility.yul\":6141:6204   */\n      swap3\n      pop\n        /* \"#utility.yul\":6097:6214   */\n      pop\n        /* \"#utility.yul\":6253:6255   */\n      0x20\n        /* \"#utility.yul\":6279:6332   */\n      tag_274\n        /* \"#utility.yul\":6324:6331   */\n      dup6\n        /* \"#utility.yul\":6315:6321   */\n      dup3\n        /* \"#utility.yul\":6304:6313   */\n      dup7\n        /* \"#utility.yul\":6300:6322   */\n      add\n        /* \"#utility.yul\":6279:6332   */\n      tag_189\n      jump\t// in\n    tag_274:\n        /* \"#utility.yul\":6269:6332   */\n      swap2\n      pop\n        /* \"#utility.yul\":6224:6342   */\n      pop\n        /* \"#utility.yul\":5875:6349   */\n      swap3\n      pop\n      swap3\n      swap1\n      pop\n      jump\t// out\n        /* \"#utility.yul\":6355:6535   */\n    tag_199:\n        /* \"#utility.yul\":6403:6480   */\n      0x4e487b7100000000000000000000000000000000000000000000000000000000\n        /* \"#utility.yul\":6400:6401   */\n      0x00\n        /* \"#utility.yul\":6393:6481   */\n      mstore\n        /* \"#utility.yul\":6500:6504   */\n      0x22\n        /* \"#utility.yul\":6497:6498   */\n      0x04\n        /* \"#utility.yul\":6490:6505   */\n      mstore\n        /* \"#utility.yul\":6524:6528   */\n      0x24\n        /* \"#utility.yul\":6521:6522   */\n      0x00\n        /* \"#utility.yul\":6514:6529   */\n      revert\n        /* \"#utility.yul\":6541:6861   */\n    tag_78:\n        /* \"#utility.yul\":6585:6591   */\n      0x00\n        /* \"#utility.yul\":6622:6623   */\n      0x02\n        /* \"#utility.yul\":6616:6620   */\n      dup3\n        /* \"#utility.yul\":6612:6624   */\n      div\n        /* \"#utility.yul\":6602:6624   */\n      swap1\n      pop\n        /* \"#utility.yul\":6669:6670   */\n      0x01\n        /* \"#utility.yul\":6663:6667   */\n      dup3\n        /* \"#utility.yul\":6659:6671   */\n      and\n        /* \"#utility.yul\":6690:6708   */\n      dup1\n        /* \"#utility.yul\":6680:6761   */\n      tag_277\n      jumpi\n        /* \"#utility.yul\":6746:6750   */\n      0x7f\n        /* \"#utility.yul\":6738:6744   */\n      dup3\n        /* \"#utility.yul\":6734:6751   */\n      and\n        /* \"#utility.yul\":6724:6751   */\n      swap2\n      pop\n        /* \"#utility.yul\":6680:6761   */\n    tag_277:\n        /* \"#utility.yul\":6808:6810   */\n      0x20\n        /* \"#utility.yul\":6800:6806   */\n      dup3\n        /* \"#utility.yul\":6797:6811   */\n      lt\n        /* \"#utility.yul\":6777:6795   */\n      dup2\n        /* \"#utility.yul\":6774:6812   */\n      sub\n        /* \"#utility.yul\":6771:6855   */\n      tag_278\n      jumpi\n        /* \"#utility.yul\":6827:6845   */\n      tag_279\n      tag_199\n      jump\t// in\n    tag_279:\n        /* \"#utility.yul\":6771:6855   */\n    tag_278:\n        /* \"#utility.yul\":6592:6861   */\n      pop\n        /* \"#utility.yul\":6541:6861   */\n      swap2\n      swap1\n      pop\n      jump\t// out\n        /* \"#utility.yul\":6867:7309   */\n    tag_137:\n        /* \"#utility.yul\":7016:7020   */\n      0x00\n        /* \"#utility.yul\":7054:7056   */\n      0x60\n        /* \"#utility.yul\":7043:7052   */\n      dup3\n        /* \"#utility.yul\":7039:7057   */\n      add\n        /* \"#utility.yul\":7031:7057   */\n      swap1\n      pop\n        /* \"#utility.yul\":7067:7138   */\n      tag_281\n        /* \"#utility.yul\":7135:7136   */\n      0x00\n        /* \"#utility.yul\":7124:7133   */\n      dup4\n        /* \"#utility.yul\":7120:7137   */\n      add\n        /* \"#utility.yul\":7111:7117   */\n      dup7\n        /* \"#utility.yul\":7067:7138   */\n      tag_198\n      jump\t// in\n    tag_281:\n        /* \"#utility.yul\":7148:7220   */\n      tag_282\n        /* \"#utility.yul\":7216:7218   */\n      0x20\n        /* \"#utility.yul\":7205:7214   */\n      dup4\n        /* \"#utility.yul\":7201:7219   */\n      add\n        /* \"#utility.yul\":7192:7198   */\n      dup6\n        /* \"#utility.yul\":7148:7220   */\n      tag_195\n      jump\t// in\n    tag_282:\n        /* \"#utility.yul\":7230:7302   */\n      tag_283\n        /* \"#utility.yul\":7298:7300   */\n      0x40\n        /* \"#utility.yul\":7287:7296   */\n      dup4\n        /* \"#utility.yul\":7283:7301   */\n      add\n        /* \"#utility.yul\":7274:7280   */\n      dup5\n        /* \"#utility.yul\":7230:7302   */\n      tag_195\n      jump\t// in\n    tag_283:\n        /* \"#utility.yul\":6867:7309   */\n      swap5\n      swap4\n      pop\n      pop\n      pop\n      pop\n      jump\t// out\n        /* \"#utility.yul\":7315:7495   */\n    tag_200:\n        /* \"#utility.yul\":7363:7440   */\n      0x4e487b7100000000000000000000000000000000000000000000000000000000\n        /* \"#utility.yul\":7360:7361   */\n      0x00\n        /* \"#utility.yul\":7353:7441   */\n      mstore\n        /* \"#utility.yul\":7460:7464   */\n      0x11\n        /* \"#utility.yul\":7457:7458   */\n      0x04\n        /* \"#utility.yul\":7450:7465   */\n      mstore\n        /* \"#utility.yul\":7484:7488   */\n      0x24\n        /* \"#utility.yul\":7481:7482   */\n      0x00\n        /* \"#utility.yul\":7474:7489   */\n      revert\n        /* \"#utility.yul\":7501:7692   */\n    tag_171:\n        /* \"#utility.yul\":7541:7544   */\n      0x00\n        /* \"#utility.yul\":7560:7580   */\n      tag_286\n        /* \"#utility.yul\":7578:7579   */\n      dup3\n        /* \"#utility.yul\":7560:7580   */\n      tag_190\n      jump\t// in\n    tag_286:\n        /* \"#utility.yul\":7555:7580   */\n      swap2\n      pop\n        /* \"#utility.yul\":7594:7614   */\n      tag_287\n        /* \"#utility.yul\":7612:7613   */\n      dup4\n        /* \"#utility.yul\":7594:7614   */\n      tag_190\n      jump\t// in\n    tag_287:\n        /* \"#utility.yul\":7589:7614   */\n      swap3\n      pop\n        /* \"#utility.yul\":7637:7638   */\n      dup3\n        /* \"#utility.yul\":7634:7635   */\n      dup3\n        /* \"#utility.yul\":7630:7639   */\n      add\n        /* \"#utility.yul\":7623:7639   */\n      swap1\n      pop\n        /* \"#utility.yul\":7658:7661   */\n      dup1\n        /* \"#utility.yul\":7655:7656   */\n      dup3\n        /* \"#utility.yul\":7652:7662   */\n      gt\n        /* \"#utility.yul\":7649:7685   */\n      iszero\n      tag_288\n      jumpi\n        /* \"#utility.yul\":7665:7683   */\n      tag_289\n      tag_200\n      jump\t// in\n    tag_289:\n        /* \"#utility.yul\":7649:7685   */\n    tag_288:\n        /* \"#utility.yul\":7501:7692   */\n      swap3\n      swap2\n      pop\n      pop\n      jump\t// out\n\n    auxdata: 0xa26469706673582212205c305bce2e11790d752a3c4dc53f05162311a861b1e29288ae3ba7f11aee981364736f6c63430008140033\n}\n",
				"bytecode": {
					"linkReferences": {},
					"object": "608060405234801562000010575f80fd5b5060405162001be138038062001be1833981810160405281019062000036919062000514565b336040518060400160405280600a81526020017f4361736820546f6b656e000000000000000000000000000000000000000000008152506040518060400160405280600481526020017f43415348000000000000000000000000000000000000000000000000000000008152508160039081620000b491906200079f565b508060049081620000c691906200079f565b5050505f73ffffffffffffffffffffffffffffffffffffffff168173ffffffffffffffffffffffffffffffffffffffff16036200013c575f6040517f1e4fbdf7000000000000000000000000000000000000000000000000000000008152600401620001339190620008c6565b60405180910390fd5b6200014d816200016760201b60201c565b506200016033826200022a60201b60201c565b50620009af565b5f60055f9054906101000a900473ffffffffffffffffffffffffffffffffffffffff1690508160055f6101000a81548173ffffffffffffffffffffffffffffffffffffffff021916908373ffffffffffffffffffffffffffffffffffffffff1602179055508173ffffffffffffffffffffffffffffffffffffffff168173ffffffffffffffffffffffffffffffffffffffff167f8be0079c531659141344cd1fd0a4f28419497f9722a3daafe3b4186f6b6457e060405160405180910390a35050565b5f73ffffffffffffffffffffffffffffffffffffffff168273ffffffffffffffffffffffffffffffffffffffff16036200029d575f6040517fec442f05000000000000000000000000000000000000000000000000000000008152600401620002949190620008c6565b60405180910390fd5b620002b05f8383620002b460201b60201c565b5050565b5f73ffffffffffffffffffffffffffffffffffffffff168373ffffffffffffffffffffffffffffffffffffffff160362000308578060025f828254620002fb91906200090e565b92505081905550620003d9565b5f805f8573ffffffffffffffffffffffffffffffffffffffff1673ffffffffffffffffffffffffffffffffffffffff1681526020019081526020015f205490508181101562000394578381836040517fe450d38c0000000000000000000000000000000000000000000000000000000081526004016200038b9392919062000959565b60405180910390fd5b8181035f808673ffffffffffffffffffffffffffffffffffffffff1673ffffffffffffffffffffffffffffffffffffffff1681526020019081526020015f2081905550505b5f73ffffffffffffffffffffffffffffffffffffffff168273ffffffffffffffffffffffffffffffffffffffff160362000422578060025f82825403925050819055506200046c565b805f808473ffffffffffffffffffffffffffffffffffffffff1673ffffffffffffffffffffffffffffffffffffffff1681526020019081526020015f205f82825401925050819055505b8173ffffffffffffffffffffffffffffffffffffffff168373ffffffffffffffffffffffffffffffffffffffff167fddf252ad1be2c89b69c2b068fc378daa952ba7f163c4a11628f55a4df523b3ef83604051620004cb919062000994565b60405180910390a3505050565b5f80fd5b5f819050919050565b620004f081620004dc565b8114620004fb575f80fd5b50565b5f815190506200050e81620004e5565b92915050565b5f602082840312156200052c576200052b620004d8565b5b5f6200053b84828501620004fe565b91505092915050565b5f81519050919050565b7f4e487b71000000000000000000000000000000000000000000000000000000005f52604160045260245ffd5b7f4e487b71000000000000000000000000000000000000000000000000000000005f52602260045260245ffd5b5f6002820490506001821680620005c057607f821691505b602082108103620005d657620005d56200057b565b5b50919050565b5f819050815f5260205f209050919050565b5f6020601f8301049050919050565b5f82821b905092915050565b5f600883026200063a7fffffffffffffffffffffffffffffffffffffffffffffffffffffffffffffffff82620005fd565b620006468683620005fd565b95508019841693508086168417925050509392505050565b5f819050919050565b5f62000687620006816200067b84620004dc565b6200065e565b620004dc565b9050919050565b5f819050919050565b620006a28362000667565b620006ba620006b1826200068e565b84845462000609565b825550505050565b5f90565b620006d0620006c2565b620006dd81848462000697565b505050565b5b818110156200070457620006f85f82620006c6565b600181019050620006e3565b5050565b601f82111562000753576200071d81620005dc565b6200072884620005ee565b8101602085101562000738578190505b620007506200074785620005ee565b830182620006e2565b50505b505050565b5f82821c905092915050565b5f620007755f198460080262000758565b1980831691505092915050565b5f6200078f838362000764565b9150826002028217905092915050565b620007aa8262000544565b67ffffffffffffffff811115620007c657620007c56200054e565b5b620007d28254620005a8565b620007df82828562000708565b5f60209050601f83116001811462000815575f841562000800578287015190505b6200080c858262000782565b8655506200087b565b601f1984166200082586620005dc565b5f5b828110156200084e5784890151825560018201915060208501945060208101905062000827565b868310156200086e57848901516200086a601f89168262000764565b8355505b6001600288020188555050505b505050505050565b5f73ffffffffffffffffffffffffffffffffffffffff82169050919050565b5f620008ae8262000883565b9050919050565b620008c081620008a2565b82525050565b5f602082019050620008db5f830184620008b5565b92915050565b7f4e487b71000000000000000000000000000000000000000000000000000000005f52601160045260245ffd5b5f6200091a82620004dc565b91506200092783620004dc565b9250828201905080821115620009425762000941620008e1565b5b92915050565b6200095381620004dc565b82525050565b5f6060820190506200096e5f830186620008b5565b6200097d602083018562000948565b6200098c604083018462000948565b949350505050565b5f602082019050620009a95f83018462000948565b92915050565b61122480620009bd5f395ff3fe608060405234801561000f575f80fd5b50600436106100e8575f3560e01c806370a082311161008a57806395d89b411161006457806395d89b4114610236578063a9059cbb14610254578063dd62ed3e14610284578063f2fde38b146102b4576100e8565b806370a08231146101de578063715018a61461020e5780638da5cb5b14610218576100e8565b806323b872dd116100c657806323b872dd14610158578063313ce5671461018857806340c10f19146101a657806342966c68146101c2576100e8565b806306fdde03146100ec578063095ea7b31461010a57806318160ddd1461013a575b5f80fd5b6100f46102d0565b6040516101019190610e72565b60405180910390f35b610124600480360381019061011f9190610f23565b610360565b6040516101319190610f7b565b60405180910390f35b610142610382565b60405161014f9190610fa3565b60405180910390f35b610172600480360381019061016d9190610fbc565b61038b565b60405161017f9190610f7b565b60405180910390f35b6101906103b9565b60405161019d9190611027565b60405180910390f35b6101c060048036038101906101bb9190610f23565b6103c1565b005b6101dc60048036038101906101d79190611040565b6103d7565b005b6101f860048036038101906101f3919061106b565b6103e4565b6040516102059190610fa3565b60405180910390f35b610216610429565b005b61022061043c565b60405161022d91906110a5565b60405180910390f35b61023e610464565b60405161024b9190610e72565b60405180910390f35b61026e60048036038101906102699190610f23565b6104f4565b60405161027b9190610f7b565b60405180910390f35b61029e600480360381019061029991906110be565b610516565b6040516102ab9190610fa3565b60405180910390f35b6102ce60048036038101906102c9919061106b565b610598565b005b6060600380546102df90611129565b80601f016020809104026020016040519081016040528092919081815260200182805461030b90611129565b80156103565780601f1061032d57610100808354040283529160200191610356565b820191905f5260205f20905b81548152906001019060200180831161033957829003601f168201915b5050505050905090565b5f8061036a61061c565b9050610377818585610623565b600191505092915050565b5f600254905090565b5f8061039561061c565b90506103a2858285610635565b6103ad8585856106c8565b60019150509392505050565b5f6012905090565b6103c96107b8565b6103d3828261083f565b5050565b6103e133826108be565b50565b5f805f8373ffffffffffffffffffffffffffffffffffffffff1673ffffffffffffffffffffffffffffffffffffffff1681526020019081526020015f20549050919050565b6104316107b8565b61043a5f61093d565b565b5f60055f9054906101000a900473ffffffffffffffffffffffffffffffffffffffff16905090565b60606004805461047390611129565b80601f016020809104026020016040519081016040528092919081815260200182805461049f90611129565b80156104ea5780601f106104c1576101008083540402835291602001916104ea565b820191905f5260205f20905b8154815290600101906020018083116104cd57829003601f168201915b5050505050905090565b5f806104fe61061c565b905061050b8185856106c8565b600191505092915050565b5f60015f8473ffffffffffffffffffffffffffffffffffffffff1673ffffffffffffffffffffffffffffffffffffffff1681526020019081526020015f205f8373ffffffffffffffffffffffffffffffffffffffff1673ffffffffffffffffffffffffffffffffffffffff1681526020019081526020015f2054905092915050565b6105a06107b8565b5f73ffffffffffffffffffffffffffffffffffffffff168173ffffffffffffffffffffffffffffffffffffffff1603610610575f6040517f1e4fbdf700000000000000000000000000000000000000000000000000000000815260040161060791906110a5565b60405180910390fd5b6106198161093d565b50565b5f33905090565b6106308383836001610a00565b505050565b5f6106408484610516565b90507fffffffffffffffffffffffffffffffffffffffffffffffffffffffffffffffff8110156106c257818110156106b3578281836040517ffb8f41b20000000000000000000000000000000000000000000000000000000081526004016106aa93929190611159565b60405180910390fd5b6106c184848484035f610a00565b5b50505050565b5f73ffffffffffffffffffffffffffffffffffffffff168373ffffffffffffffffffffffffffffffffffffffff1603610738575f6040517f96c6fd1e00000000000000000000000000000000000000000000000000000000815260040161072f91906110a5565b60405180910390fd5b5f73ffffffffffffffffffffffffffffffffffffffff168273ffffffffffffffffffffffffffffffffffffffff16036107a8575f6040517fec442f0500000000000000000000000000000000000000000000000000000000815260040161079f91906110a5565b60405180910390fd5b6107b3838383610bcf565b505050565b6107c061061c565b73ffffffffffffffffffffffffffffffffffffffff166107de61043c565b73ffffffffffffffffffffffffffffffffffffffff161461083d5761080161061c565b6040517f118cdaa700000000000000000000000000000000000000000000000000000000815260040161083491906110a5565b60405180910390fd5b565b5f73ffffffffffffffffffffffffffffffffffffffff168273ffffffffffffffffffffffffffffffffffffffff16036108af575f6040517fec442f050000000000000000000000000000000000000000000000000000000081526004016108a691906110a5565b60405180910390fd5b6108ba5f8383610bcf565b5050565b5f73ffffffffffffffffffffffffffffffffffffffff168273ffffffffffffffffffffffffffffffffffffffff160361092e575f6040517f96c6fd1e00000000000000000000000000000000000000000000000000000000815260040161092591906110a5565b60405180910390fd5b610939825f83610bcf565b5050565b5f60055f9054906101000a900473ffffffffffffffffffffffffffffffffffffffff1690508160055f6101000a81548173ffffffffffffffffffffffffffffffffffffffff021916908373ffffffffffffffffffffffffffffffffffffffff1602179055508173ffffffffffffffffffffffffffffffffffffffff168173ffffffffffffffffffffffffffffffffffffffff167f8be0079c531659141344cd1fd0a4f28419497f9722a3daafe3b4186f6b6457e060405160405180910390a35050565b5f73ffffffffffffffffffffffffffffffffffffffff168473ffffffffffffffffffffffffffffffffffffffff1603610a70575f6040517fe602df05000000000000000000000000000000000000000000000000000000008152600401610a6791906110a5565b60405180910390fd5b5f73ffffffffffffffffffffffffffffffffffffffff168373ffffffffffffffffffffffffffffffffffffffff1603610ae0575f6040517f94280d62000000000000000000000000000000000000000000000000000000008152600401610ad791906110a5565b60405180910390fd5b8160015f8673ffffffffffffffffffffffffffffffffffffffff1673ffffffffffffffffffffffffffffffffffffffff1681526020019081526020015f205f8573ffffffffffffffffffffffffffffffffffffffff1673ffffffffffffffffffffffffffffffffffffffff1681526020019081526020015f20819055508015610bc9578273ffffffffffffffffffffffffffffffffffffffff168473ffffffffffffffffffffffffffffffffffffffff167f8c5be1e5ebec7d5bd14f71427d1e84f3dd0314c0f7b2291e5b200ac8c7c3b92584604051610bc09190610fa3565b60405180910390a35b50505050565b5f73ffffffffffffffffffffffffffffffffffffffff168373ffffffffffffffffffffffffffffffffffffffff1603610c1f578060025f828254610c1391906111bb565b92505081905550610ced565b5f805f8573ffffffffffffffffffffffffffffffffffffffff1673ffffffffffffffffffffffffffffffffffffffff1681526020019081526020015f2054905081811015610ca8578381836040517fe450d38c000000000000000000000000000000000000000000000000000000008152600401610c9f93929190611159565b60405180910390fd5b8181035f808673ffffffffffffffffffffffffffffffffffffffff1673ffffffffffffffffffffffffffffffffffffffff1681526020019081526020015f2081905550505b5f73ffffffffffffffffffffffffffffffffffffffff168273ffffffffffffffffffffffffffffffffffffffff1603610d34578060025f8282540392505081905550610d7e565b805f808473ffffffffffffffffffffffffffffffffffffffff1673ffffffffffffffffffffffffffffffffffffffff1681526020019081526020015f205f82825401925050819055505b8173ffffffffffffffffffffffffffffffffffffffff168373ffffffffffffffffffffffffffffffffffffffff167fddf252ad1be2c89b69c2b068fc378daa952ba7f163c4a11628f55a4df523b3ef83604051610ddb9190610fa3565b60405180910390a3505050565b5f81519050919050565b5f82825260208201905092915050565b5f5b83811015610e1f578082015181840152602081019050610e04565b5f8484015250505050565b5f601f19601f8301169050919050565b5f610e4482610de8565b610e4e8185610df2565b9350610e5e818560208601610e02565b610e6781610e2a565b840191505092915050565b5f6020820190508181035f830152610e8a8184610e3a565b905092915050565b5f80fd5b5f73ffffffffffffffffffffffffffffffffffffffff82169050919050565b5f610ebf82610e96565b9050919050565b610ecf81610eb5565b8114610ed9575f80fd5b50565b5f81359050610eea81610ec6565b92915050565b5f819050919050565b610f0281610ef0565b8114610f0c575f80fd5b50565b5f81359050610f1d81610ef9565b92915050565b5f8060408385031215610f3957610f38610e92565b5b5f610f4685828601610edc565b9250506020610f5785828601610f0f565b9150509250929050565b5f8115159050919050565b610f7581610f61565b82525050565b5f602082019050610f8e5f830184610f6c565b92915050565b610f9d81610ef0565b82525050565b5f602082019050610fb65f830184610f94565b92915050565b5f805f60608486031215610fd357610fd2610e92565b5b5f610fe086828701610edc565b9350506020610ff186828701610edc565b925050604061100286828701610f0f565b9150509250925092565b5f60ff82169050919050565b6110218161100c565b82525050565b5f60208201905061103a5f830184611018565b92915050565b5f6020828403121561105557611054610e92565b5b5f61106284828501610f0f565b91505092915050565b5f602082840312156110805761107f610e92565b5b5f61108d84828501610edc565b91505092915050565b61109f81610eb5565b82525050565b5f6020820190506110b85f830184611096565b92915050565b5f80604083850312156110d4576110d3610e92565b5b5f6110e185828601610edc565b92505060206110f285828601610edc565b9150509250929050565b7f4e487b71000000000000000000000000000000000000000000000000000000005f52602260045260245ffd5b5f600282049050600182168061114057607f821691505b602082108103611153576111526110fc565b5b50919050565b5f60608201905061116c5f830186611096565b6111796020830185610f94565b6111866040830184610f94565b949350505050565b7f4e487b71000000000000000000000000000000000000000000000000000000005f52601160045260245ffd5b5f6111c582610ef0565b91506111d083610ef0565b92508282019050808211156111e8576111e761118e565b5b9291505056fea26469706673582212205c305bce2e11790d752a3c4dc53f05162311a861b1e29288ae3ba7f11aee981364736f6c63430008140033",
					"opcodes": "PUSH1 0x80 PUSH1 0x40 MSTORE CALLVALUE DUP1 ISZERO PUSH3 0x10 JUMPI PUSH0 DUP1 REVERT JUMPDEST POP PUSH1 0x40 MLOAD PUSH3 0x1BE1 CODESIZE SUB DUP1 PUSH3 0x1BE1 DUP4 CODECOPY DUP2 DUP2 ADD PUSH1 0x40 MSTORE DUP2 ADD SWAP1 PUSH3 0x36 SWAP2 SWAP1 PUSH3 0x514 JUMP JUMPDEST CALLER PUSH1 0x40 MLOAD DUP1 PUSH1 0x40 ADD PUSH1 0x40 MSTORE DUP1 PUSH1 0xA DUP2 MSTORE PUSH1 0x20 ADD PUSH32 0x4361736820546F6B656E00000000000000000000000000000000000000000000 DUP2 MSTORE POP PUSH1 0x40 MLOAD DUP1 PUSH1 0x40 ADD PUSH1 0x40 MSTORE DUP1 PUSH1 0x4 DUP2 MSTORE PUSH1 0x20 ADD PUSH32 0x4341534800000000000000000000000000000000000000000000000000000000 DUP2 MSTORE POP DUP2 PUSH1 0x3 SWAP1 DUP2 PUSH3 0xB4 SWAP2 SWAP1 PUSH3 0x79F JUMP JUMPDEST POP DUP1 PUSH1 0x4 SWAP1 DUP2 PUSH3 0xC6 SWAP2 SWAP1 PUSH3 0x79F JUMP JUMPDEST POP POP POP PUSH0 PUSH20 0xFFFFFFFFFFFFFFFFFFFFFFFFFFFFFFFFFFFFFFFF AND DUP2 PUSH20 0xFFFFFFFFFFFFFFFFFFFFFFFFFFFFFFFFFFFFFFFF AND SUB PUSH3 0x13C JUMPI PUSH0 PUSH1 0x40 MLOAD PUSH32 0x1E4FBDF700000000000000000000000000000000000000000000000000000000 DUP2 MSTORE PUSH1 0x4 ADD PUSH3 0x133 SWAP2 SWAP1 PUSH3 0x8C6 JUMP JUMPDEST PUSH1 0x40 MLOAD DUP1 SWAP2 SUB SWAP1 REVERT JUMPDEST PUSH3 0x14D DUP2 PUSH3 0x167 PUSH1 0x20 SHL PUSH1 0x20 SHR JUMP JUMPDEST POP PUSH3 0x160 CALLER DUP3 PUSH3 0x22A PUSH1 0x20 SHL PUSH1 0x20 SHR JUMP JUMPDEST POP PUSH3 0x9AF JUMP JUMPDEST PUSH0 PUSH1 0x5 PUSH0 SWAP1 SLOAD SWAP1 PUSH2 0x100 EXP SWAP1 DIV PUSH20 0xFFFFFFFFFFFFFFFFFFFFFFFFFFFFFFFFFFFFFFFF AND SWAP1 POP DUP2 PUSH1 0x5 PUSH0 PUSH2 0x100 EXP DUP2 SLOAD DUP2 PUSH20 0xFFFFFFFFFFFFFFFFFFFFFFFFFFFFFFFFFFFFFFFF MUL NOT AND SWAP1 DUP4 PUSH20 0xFFFFFFFFFFFFFFFFFFFFFFFFFFFFFFFFFFFFFFFF AND MUL OR SWAP1 SSTORE POP DUP2 PUSH20 0xFFFFFFFFFFFFFFFFFFFFFFFFFFFFFFFFFFFFFFFF AND DUP2 PUSH20 0xFFFFFFFFFFFFFFFFFFFFFFFFFFFFFFFFFFFFFFFF AND PUSH32 0x8BE0079C531659141344CD1FD0A4F28419497F9722A3DAAFE3B4186F6B6457E0 PUSH1 0x40 MLOAD PUSH1 0x40 MLOAD DUP1 SWAP2 SUB SWAP1 LOG3 POP POP JUMP JUMPDEST PUSH0 PUSH20 0xFFFFFFFFFFFFFFFFFFFFFFFFFFFFFFFFFFFFFFFF AND DUP3 PUSH20 0xFFFFFFFFFFFFFFFFFFFFFFFFFFFFFFFFFFFFFFFF AND SUB PUSH3 0x29D JUMPI PUSH0 PUSH1 0x40 MLOAD PUSH32 0xEC442F0500000000000000000000000000000000000000000000000000000000 DUP2 MSTORE PUSH1 0x4 ADD PUSH3 0x294 SWAP2 SWAP1 PUSH3 0x8C6 JUMP JUMPDEST PUSH1 0x40 MLOAD DUP1 SWAP2 SUB SWAP1 REVERT JUMPDEST PUSH3 0x2B0 PUSH0 DUP4 DUP4 PUSH3 0x2B4 PUSH1 0x20 SHL PUSH1 0x20 SHR JUMP JUMPDEST POP POP JUMP JUMPDEST PUSH0 PUSH20 0xFFFFFFFFFFFFFFFFFFFFFFFFFFFFFFFFFFFFFFFF AND DUP4 PUSH20 0xFFFFFFFFFFFFFFFFFFFFFFFFFFFFFFFFFFFFFFFF AND SUB PUSH3 0x308 JUMPI DUP1 PUSH1 0x2 PUSH0 DUP3 DUP3 SLOAD PUSH3 0x2FB SWAP2 SWAP1 PUSH3 0x90E JUMP JUMPDEST SWAP3 POP POP DUP2 SWAP1 SSTORE POP PUSH3 0x3D9 JUMP JUMPDEST PUSH0 DUP1 PUSH0 DUP6 PUSH20 0xFFFFFFFFFFFFFFFFFFFFFFFFFFFFFFFFFFFFFFFF AND PUSH20 0xFFFFFFFFFFFFFFFFFFFFFFFFFFFFFFFFFFFFFFFF AND DUP2 MSTORE PUSH1 0x20 ADD SWAP1 DUP2 MSTORE PUSH1 0x20 ADD PUSH0 KECCAK256 SLOAD SWAP1 POP DUP2 DUP2 LT ISZERO PUSH3 0x394 JUMPI DUP4 DUP2 DUP4 PUSH1 0x40 MLOAD PUSH32 0xE450D38C00000000000000000000000000000000000000000000000000000000 DUP2 MSTORE PUSH1 0x4 ADD PUSH3 0x38B SWAP4 SWAP3 SWAP2 SWAP1 PUSH3 0x959 JUMP JUMPDEST PUSH1 0x40 MLOAD DUP1 SWAP2 SUB SWAP1 REVERT JUMPDEST DUP2 DUP2 SUB PUSH0 DUP1 DUP7 PUSH20 0xFFFFFFFFFFFFFFFFFFFFFFFFFFFFFFFFFFFFFFFF AND PUSH20 0xFFFFFFFFFFFFFFFFFFFFFFFFFFFFFFFFFFFFFFFF AND DUP2 MSTORE PUSH1 0x20 ADD SWAP1 DUP2 MSTORE PUSH1 0x20 ADD PUSH0 KECCAK256 DUP2 SWAP1 SSTORE POP POP JUMPDEST PUSH0 PUSH20 0xFFFFFFFFFFFFFFFFFFFFFFFFFFFFFFFFFFFFFFFF AND DUP3 PUSH20 0xFFFFFFFFFFFFFFFFFFFFFFFFFFFFFFFFFFFFFFFF AND SUB PUSH3 0x422 JUMPI DUP1 PUSH1 0x2 PUSH0 DUP3 DUP3 SLOAD SUB SWAP3 POP POP DUP2 SWAP1 SSTORE POP PUSH3 0x46C JUMP JUMPDEST DUP1 PUSH0 DUP1 DUP5 PUSH20 0xFFFFFFFFFFFFFFFFFFFFFFFFFFFFFFFFFFFFFFFF AND PUSH20 0xFFFFFFFFFFFFFFFFFFFFFFFFFFFFFFFFFFFFFFFF AND DUP2 MSTORE PUSH1 0x20 ADD SWAP1 DUP2 MSTORE PUSH1 0x20 ADD PUSH0 KECCAK256 PUSH0 DUP3 DUP3 SLOAD ADD SWAP3 POP POP DUP2 SWAP1 SSTORE POP JUMPDEST DUP2 PUSH20 0xFFFFFFFFFFFFFFFFFFFFFFFFFFFFFFFFFFFFFFFF AND DUP4 PUSH20 0xFFFFFFFFFFFFFFFFFFFFFFFFFFFFFFFFFFFFFFFF AND PUSH32 0xDDF252AD1BE2C89B69C2B068FC378DAA952BA7F163C4A11628F55A4DF523B3EF DUP4 PUSH1 0x40 MLOAD PUSH3 0x4CB SWAP2 SWAP1 PUSH3 0x994 JUMP JUMPDEST PUSH1 0x40 MLOAD DUP1 SWAP2 SUB SWAP1 LOG3 POP POP POP JUMP JUMPDEST PUSH0 DUP1 REVERT JUMPDEST PUSH0 DUP2 SWAP1 POP SWAP2 SWAP1 POP JUMP JUMPDEST PUSH3 0x4F0 DUP2 PUSH3 0x4DC JUMP JUMPDEST DUP2 EQ PUSH3 0x4FB JUMPI PUSH0 DUP1 REVERT JUMPDEST POP JUMP JUMPDEST PUSH0 DUP2 MLOAD SWAP1 POP PUSH3 0x50E DUP2 PUSH3 0x4E5 JUMP JUMPDEST SWAP3 SWAP2 POP POP JUMP JUMPDEST PUSH0 PUSH1 0x20 DUP3 DUP5 SUB SLT ISZERO PUSH3 0x52C JUMPI PUSH3 0x52B PUSH3 0x4D8 JUMP JUMPDEST JUMPDEST PUSH0 PUSH3 0x53B DUP5 DUP3 DUP6 ADD PUSH3 0x4FE JUMP JUMPDEST SWAP2 POP POP SWAP3 SWAP2 POP POP JUMP JUMPDEST PUSH0 DUP2 MLOAD SWAP1 POP SWAP2 SWAP1 POP JUMP JUMPDEST PUSH32 0x4E487B7100000000000000000000000000000000000000000000000000000000 PUSH0 MSTORE PUSH1 0x41 PUSH1 0x4 MSTORE PUSH1 0x24 PUSH0 REVERT JUMPDEST PUSH32 0x4E487B7100000000000000000000000000000000000000000000000000000000 PUSH0 MSTORE PUSH1 0x22 PUSH1 0x4 MSTORE PUSH1 0x24 PUSH0 REVERT JUMPDEST PUSH0 PUSH1 0x2 DUP3 DIV SWAP1 POP PUSH1 0x1 DUP3 AND DUP1 PUSH3 0x5C0 JUMPI PUSH1 0x7F DUP3 AND SWAP2 POP JUMPDEST PUSH1 0x20 DUP3 LT DUP2 SUB PUSH3 0x5D6 JUMPI PUSH3 0x5D5 PUSH3 0x57B JUMP JUMPDEST JUMPDEST POP SWAP2 SWAP1 POP JUMP JUMPDEST PUSH0 DUP2 SWAP1 POP DUP2 PUSH0 MSTORE PUSH1 0x20 PUSH0 KECCAK256 SWAP1 POP SWAP2 SWAP1 POP JUMP JUMPDEST PUSH0 PUSH1 0x20 PUSH1 0x1F DUP4 ADD DIV SWAP1 POP SWAP2 SWAP1 POP JUMP JUMPDEST PUSH0 DUP3 DUP3 SHL SWAP1 POP SWAP3 SWAP2 POP POP JUMP JUMPDEST PUSH0 PUSH1 0x8 DUP4 MUL PUSH3 0x63A PUSH32 0xFFFFFFFFFFFFFFFFFFFFFFFFFFFFFFFFFFFFFFFFFFFFFFFFFFFFFFFFFFFFFFFF DUP3 PUSH3 0x5FD JUMP JUMPDEST PUSH3 0x646 DUP7 DUP4 PUSH3 0x5FD JUMP JUMPDEST SWAP6 POP DUP1 NOT DUP5 AND SWAP4 POP DUP1 DUP7 AND DUP5 OR SWAP3 POP POP POP SWAP4 SWAP3 POP POP POP JUMP JUMPDEST PUSH0 DUP2 SWAP1 POP SWAP2 SWAP1 POP JUMP JUMPDEST PUSH0 PUSH3 0x687 PUSH3 0x681 PUSH3 0x67B DUP5 PUSH3 0x4DC JUMP JUMPDEST PUSH3 0x65E JUMP JUMPDEST PUSH3 0x4DC JUMP JUMPDEST SWAP1 POP SWAP2 SWAP1 POP JUMP JUMPDEST PUSH0 DUP2 SWAP1 POP SWAP2 SWAP1 POP JUMP JUMPDEST PUSH3 0x6A2 DUP4 PUSH3 0x667 JUMP JUMPDEST PUSH3 0x6BA PUSH3 0x6B1 DUP3 PUSH3 0x68E JUMP JUMPDEST DUP5 DUP5 SLOAD PUSH3 0x609 JUMP JUMPDEST DUP3 SSTORE POP POP POP POP JUMP JUMPDEST PUSH0 SWAP1 JUMP JUMPDEST PUSH3 0x6D0 PUSH3 0x6C2 JUMP JUMPDEST PUSH3 0x6DD DUP2 DUP5 DUP5 PUSH3 0x697 JUMP JUMPDEST POP POP POP JUMP JUMPDEST JUMPDEST DUP2 DUP2 LT ISZERO PUSH3 0x704 JUMPI PUSH3 0x6F8 PUSH0 DUP3 PUSH3 0x6C6 JUMP JUMPDEST PUSH1 0x1 DUP2 ADD SWAP1 POP PUSH3 0x6E3 JUMP JUMPDEST POP POP JUMP JUMPDEST PUSH1 0x1F DUP3 GT ISZERO PUSH3 0x753 JUMPI PUSH3 0x71D DUP2 PUSH3 0x5DC JUMP JUMPDEST PUSH3 0x728 DUP5 PUSH3 0x5EE JUMP JUMPDEST DUP2 ADD PUSH1 0x20 DUP6 LT ISZERO PUSH3 0x738 JUMPI DUP2 SWAP1 POP JUMPDEST PUSH3 0x750 PUSH3 0x747 DUP6 PUSH3 0x5EE JUMP JUMPDEST DUP4 ADD DUP3 PUSH3 0x6E2 JUMP JUMPDEST POP POP JUMPDEST POP POP POP JUMP JUMPDEST PUSH0 DUP3 DUP3 SHR SWAP1 POP SWAP3 SWAP2 POP POP JUMP JUMPDEST PUSH0 PUSH3 0x775 PUSH0 NOT DUP5 PUSH1 0x8 MUL PUSH3 0x758 JUMP JUMPDEST NOT DUP1 DUP4 AND SWAP2 POP POP SWAP3 SWAP2 POP POP JUMP JUMPDEST PUSH0 PUSH3 0x78F DUP4 DUP4 PUSH3 0x764 JUMP JUMPDEST SWAP2 POP DUP3 PUSH1 0x2 MUL DUP3 OR SWAP1 POP SWAP3 SWAP2 POP POP JUMP JUMPDEST PUSH3 0x7AA DUP3 PUSH3 0x544 JUMP JUMPDEST PUSH8 0xFFFFFFFFFFFFFFFF DUP2 GT ISZERO PUSH3 0x7C6 JUMPI PUSH3 0x7C5 PUSH3 0x54E JUMP JUMPDEST JUMPDEST PUSH3 0x7D2 DUP3 SLOAD PUSH3 0x5A8 JUMP JUMPDEST PUSH3 0x7DF DUP3 DUP3 DUP6 PUSH3 0x708 JUMP JUMPDEST PUSH0 PUSH1 0x20 SWAP1 POP PUSH1 0x1F DUP4 GT PUSH1 0x1 DUP2 EQ PUSH3 0x815 JUMPI PUSH0 DUP5 ISZERO PUSH3 0x800 JUMPI DUP3 DUP8 ADD MLOAD SWAP1 POP JUMPDEST PUSH3 0x80C DUP6 DUP3 PUSH3 0x782 JUMP JUMPDEST DUP7 SSTORE POP PUSH3 0x87B JUMP JUMPDEST PUSH1 0x1F NOT DUP5 AND PUSH3 0x825 DUP7 PUSH3 0x5DC JUMP JUMPDEST PUSH0 JUMPDEST DUP3 DUP2 LT ISZERO PUSH3 0x84E JUMPI DUP5 DUP10 ADD MLOAD DUP3 SSTORE PUSH1 0x1 DUP3 ADD SWAP2 POP PUSH1 0x20 DUP6 ADD SWAP5 POP PUSH1 0x20 DUP2 ADD SWAP1 POP PUSH3 0x827 JUMP JUMPDEST DUP7 DUP4 LT ISZERO PUSH3 0x86E JUMPI DUP5 DUP10 ADD MLOAD PUSH3 0x86A PUSH1 0x1F DUP10 AND DUP3 PUSH3 0x764 JUMP JUMPDEST DUP4 SSTORE POP JUMPDEST PUSH1 0x1 PUSH1 0x2 DUP9 MUL ADD DUP9 SSTORE POP POP POP JUMPDEST POP POP POP POP POP POP JUMP JUMPDEST PUSH0 PUSH20 0xFFFFFFFFFFFFFFFFFFFFFFFFFFFFFFFFFFFFFFFF DUP3 AND SWAP1 POP SWAP2 SWAP1 POP JUMP JUMPDEST PUSH0 PUSH3 0x8AE DUP3 PUSH3 0x883 JUMP JUMPDEST SWAP1 POP SWAP2 SWAP1 POP JUMP JUMPDEST PUSH3 0x8C0 DUP2 PUSH3 0x8A2 JUMP JUMPDEST DUP3 MSTORE POP POP JUMP JUMPDEST PUSH0 PUSH1 0x20 DUP3 ADD SWAP1 POP PUSH3 0x8DB PUSH0 DUP4 ADD DUP5 PUSH3 0x8B5 JUMP JUMPDEST SWAP3 SWAP2 POP POP JUMP JUMPDEST PUSH32 0x4E487B7100000000000000000000000000000000000000000000000000000000 PUSH0 MSTORE PUSH1 0x11 PUSH1 0x4 MSTORE PUSH1 0x24 PUSH0 REVERT JUMPDEST PUSH0 PUSH3 0x91A DUP3 PUSH3 0x4DC JUMP JUMPDEST SWAP2 POP PUSH3 0x927 DUP4 PUSH3 0x4DC JUMP JUMPDEST SWAP3 POP DUP3 DUP3 ADD SWAP1 POP DUP1 DUP3 GT ISZERO PUSH3 0x942 JUMPI PUSH3 0x941 PUSH3 0x8E1 JUMP JUMPDEST JUMPDEST SWAP3 SWAP2 POP POP JUMP JUMPDEST PUSH3 0x953 DUP2 PUSH3 0x4DC JUMP JUMPDEST DUP3 MSTORE POP POP JUMP JUMPDEST PUSH0 PUSH1 0x60 DUP3 ADD SWAP1 POP PUSH3 0x96E PUSH0 DUP4 ADD DUP7 PUSH3 0x8B5 JUMP JUMPDEST PUSH3 0x97D PUSH1 0x20 DUP4 ADD DUP6 PUSH3 0x948 JUMP JUMPDEST PUSH3 0x98C PUSH1 0x40 DUP4 ADD DUP5 PUSH3 0x948 JUMP JUMPDEST SWAP5 SWAP4 POP POP POP POP JUMP JUMPDEST PUSH0 PUSH1 0x20 DUP3 ADD SWAP1 POP PUSH3 0x9A9 PUSH0 DUP4 ADD DUP5 PUSH3 0x948 JUMP JUMPDEST SWAP3 SWAP2 POP POP JUMP JUMPDEST PUSH2 0x1224 DUP1 PUSH3 0x9BD PUSH0 CODECOPY PUSH0 RETURN INVALID PUSH1 0x80 PUSH1 0x40 MSTORE CALLVALUE DUP1 ISZERO PUSH2 0xF JUMPI PUSH0 DUP1 REVERT JUMPDEST POP PUSH1 0x4 CALLDATASIZE LT PUSH2 0xE8 JUMPI PUSH0 CALLDATALOAD PUSH1 0xE0 SHR DUP1 PUSH4 0x70A08231 GT PUSH2 0x8A JUMPI DUP1 PUSH4 0x95D89B41 GT PUSH2 0x64 JUMPI DUP1 PUSH4 0x95D89B41 EQ PUSH2 0x236 JUMPI DUP1 PUSH4 0xA9059CBB EQ PUSH2 0x254 JUMPI DUP1 PUSH4 0xDD62ED3E EQ PUSH2 0x284 JUMPI DUP1 PUSH4 0xF2FDE38B EQ PUSH2 0x2B4 JUMPI PUSH2 0xE8 JUMP JUMPDEST DUP1 PUSH4 0x70A08231 EQ PUSH2 0x1DE JUMPI DUP1 PUSH4 0x715018A6 EQ PUSH2 0x20E JUMPI DUP1 PUSH4 0x8DA5CB5B EQ PUSH2 0x218 JUMPI PUSH2 0xE8 JUMP JUMPDEST DUP1 PUSH4 0x23B872DD GT PUSH2 0xC6 JUMPI DUP1 PUSH4 0x23B872DD EQ PUSH2 0x158 JUMPI DUP1 PUSH4 0x313CE567 EQ PUSH2 0x188 JUMPI DUP1 PUSH4 0x40C10F19 EQ PUSH2 0x1A6 JUMPI DUP1 PUSH4 0x42966C68 EQ PUSH2 0x1C2 JUMPI PUSH2 0xE8 JUMP JUMPDEST DUP1 PUSH4 0x6FDDE03 EQ PUSH2 0xEC JUMPI DUP1 PUSH4 0x95EA7B3 EQ PUSH2 0x10A JUMPI DUP1 PUSH4 0x18160DDD EQ PUSH2 0x13A JUMPI JUMPDEST PUSH0 DUP1 REVERT JUMPDEST PUSH2 0xF4 PUSH2 0x2D0 JUMP JUMPDEST PUSH1 0x40 MLOAD PUSH2 0x101 SWAP2 SWAP1 PUSH2 0xE72 JUMP JUMPDEST PUSH1 0x40 MLOAD DUP1 SWAP2 SUB SWAP1 RETURN JUMPDEST PUSH2 0x124 PUSH1 0x4 DUP1 CALLDATASIZE SUB DUP2 ADD SWAP1 PUSH2 0x11F SWAP2 SWAP1 PUSH2 0xF23 JUMP JUMPDEST PUSH2 0x360 JUMP JUMPDEST PUSH1 0x40 MLOAD PUSH2 0x131 SWAP2 SWAP1 PUSH2 0xF7B JUMP JUMPDEST PUSH1 0x40 MLOAD DUP1 SWAP2 SUB SWAP1 RETURN JUMPDEST PUSH2 0x142 PUSH2 0x382 JUMP JUMPDEST PUSH1 0x40 MLOAD PUSH2 0x14F SWAP2 SWAP1 PUSH2 0xFA3 JUMP JUMPDEST PUSH1 0x40 MLOAD DUP1 SWAP2 SUB SWAP1 RETURN JUMPDEST PUSH2 0x172 PUSH1 0x4 DUP1 CALLDATASIZE SUB DUP2 ADD SWAP1 PUSH2 0x16D SWAP2 SWAP1 PUSH2 0xFBC JUMP JUMPDEST PUSH2 0x38B JUMP JUMPDEST PUSH1 0x40 MLOAD PUSH2 0x17F SWAP2 SWAP1 PUSH2 0xF7B JUMP JUMPDEST PUSH1 0x40 MLOAD DUP1 SWAP2 SUB SWAP1 RETURN JUMPDEST PUSH2 0x190 PUSH2 0x3B9 JUMP JUMPDEST PUSH1 0x40 MLOAD PUSH2 0x19D SWAP2 SWAP1 PUSH2 0x1027 JUMP JUMPDEST PUSH1 0x40 MLOAD DUP1 SWAP2 SUB SWAP1 RETURN JUMPDEST PUSH2 0x1C0 PUSH1 0x4 DUP1 CALLDATASIZE SUB DUP2 ADD SWAP1 PUSH2 0x1BB SWAP2 SWAP1 PUSH2 0xF23 JUMP JUMPDEST PUSH2 0x3C1 JUMP JUMPDEST STOP JUMPDEST PUSH2 0x1DC PUSH1 0x4 DUP1 CALLDATASIZE SUB DUP2 ADD SWAP1 PUSH2 0x1D7 SWAP2 SWAP1 PUSH2 0x1040 JUMP JUMPDEST PUSH2 0x3D7 JUMP JUMPDEST STOP JUMPDEST PUSH2 0x1F8 PUSH1 0x4 DUP1 CALLDATASIZE SUB DUP2 ADD SWAP1 PUSH2 0x1F3 SWAP2 SWAP1 PUSH2 0x106B JUMP JUMPDEST PUSH2 0x3E4 JUMP JUMPDEST PUSH1 0x40 MLOAD PUSH2 0x205 SWAP2 SWAP1 PUSH2 0xFA3 JUMP JUMPDEST PUSH1 0x40 MLOAD DUP1 SWAP2 SUB SWAP1 RETURN JUMPDEST PUSH2 0x216 PUSH2 0x429 JUMP JUMPDEST STOP JUMPDEST PUSH2 0x220 PUSH2 0x43C JUMP JUMPDEST PUSH1 0x40 MLOAD PUSH2 0x22D SWAP2 SWAP1 PUSH2 0x10A5 JUMP JUMPDEST PUSH1 0x40 MLOAD DUP1 SWAP2 SUB SWAP1 RETURN JUMPDEST PUSH2 0x23E PUSH2 0x464 JUMP JUMPDEST PUSH1 0x40 MLOAD PUSH2 0x24B SWAP2 SWAP1 PUSH2 0xE72 JUMP JUMPDEST PUSH1 0x40 MLOAD DUP1 SWAP2 SUB SWAP1 RETURN JUMPDEST PUSH2 0x26E PUSH1 0x4 DUP1 CALLDATASIZE SUB DUP2 ADD SWAP1 PUSH2 0x269 SWAP2 SWAP1 PUSH2 0xF23 JUMP JUMPDEST PUSH2 0x4F4 JUMP JUMPDEST PUSH1 0x40 MLOAD PUSH2 0x27B SWAP2 SWAP1 PUSH2 0xF7B JUMP JUMPDEST PUSH1 0x40 MLOAD DUP1 SWAP2 SUB SWAP1 RETURN JUMPDEST PUSH2 0x29E PUSH1 0x4 DUP1 CALLDATASIZE SUB DUP2 ADD SWAP1 PUSH2 0x299 SWAP2 SWAP1 PUSH2 0x10BE JUMP JUMPDEST PUSH2 0x516 JUMP JUMPDEST PUSH1 0x40 MLOAD PUSH2 0x2AB SWAP2 SWAP1 PUSH2 0xFA3 JUMP JUMPDEST PUSH1 0x40 MLOAD DUP1 SWAP2 SUB SWAP1 RETURN JUMPDEST PUSH2 0x2CE PUSH1 0x4 DUP1 CALLDATASIZE SUB DUP2 ADD SWAP1 PUSH2 0x2C9 SWAP2 SWAP1 PUSH2 0x106B JUMP JUMPDEST PUSH2 0x598 JUMP JUMPDEST STOP JUMPDEST PUSH1 0x60 PUSH1 0x3 DUP1 SLOAD PUSH2 0x2DF SWAP1 PUSH2 0x1129 JUMP JUMPDEST DUP1 PUSH1 0x1F ADD PUSH1 0x20 DUP1 SWAP2 DIV MUL PUSH1 0x20 ADD PUSH1 0x40 MLOAD SWAP1 DUP2 ADD PUSH1 0x40 MSTORE DUP1 SWAP3 SWAP2 SWAP1 DUP2 DUP2 MSTORE PUSH1 0x20 ADD DUP3 DUP1 SLOAD PUSH2 0x30B SWAP1 PUSH2 0x1129 JUMP JUMPDEST DUP1 ISZERO PUSH2 0x356 JUMPI DUP1 PUSH1 0x1F LT PUSH2 0x32D JUMPI PUSH2 0x100 DUP1 DUP4 SLOAD DIV MUL DUP4 MSTORE SWAP2 PUSH1 0x20 ADD SWAP2 PUSH2 0x356 JUMP JUMPDEST DUP3 ADD SWAP2 SWAP1 PUSH0 MSTORE PUSH1 0x20 PUSH0 KECCAK256 SWAP1 JUMPDEST DUP2 SLOAD DUP2 MSTORE SWAP1 PUSH1 0x1 ADD SWAP1 PUSH1 0x20 ADD DUP1 DUP4 GT PUSH2 0x339 JUMPI DUP3 SWAP1 SUB PUSH1 0x1F AND DUP3 ADD SWAP2 JUMPDEST POP POP POP POP POP SWAP1 POP SWAP1 JUMP JUMPDEST PUSH0 DUP1 PUSH2 0x36A PUSH2 0x61C JUMP JUMPDEST SWAP1 POP PUSH2 0x377 DUP2 DUP6 DUP6 PUSH2 0x623 JUMP JUMPDEST PUSH1 0x1 SWAP2 POP POP SWAP3 SWAP2 POP POP JUMP JUMPDEST PUSH0 PUSH1 0x2 SLOAD SWAP1 POP SWAP1 JUMP JUMPDEST PUSH0 DUP1 PUSH2 0x395 PUSH2 0x61C JUMP JUMPDEST SWAP1 POP PUSH2 0x3A2 DUP6 DUP3 DUP6 PUSH2 0x635 JUMP JUMPDEST PUSH2 0x3AD DUP6 DUP6 DUP6 PUSH2 0x6C8 JUMP JUMPDEST PUSH1 0x1 SWAP2 POP POP SWAP4 SWAP3 POP POP POP JUMP JUMPDEST PUSH0 PUSH1 0x12 SWAP1 POP SWAP1 JUMP JUMPDEST PUSH2 0x3C9 PUSH2 0x7B8 JUMP JUMPDEST PUSH2 0x3D3 DUP3 DUP3 PUSH2 0x83F JUMP JUMPDEST POP POP JUMP JUMPDEST PUSH2 0x3E1 CALLER DUP3 PUSH2 0x8BE JUMP JUMPDEST POP JUMP JUMPDEST PUSH0 DUP1 PUSH0 DUP4 PUSH20 0xFFFFFFFFFFFFFFFFFFFFFFFFFFFFFFFFFFFFFFFF AND PUSH20 0xFFFFFFFFFFFFFFFFFFFFFFFFFFFFFFFFFFFFFFFF AND DUP2 MSTORE PUSH1 0x20 ADD SWAP1 DUP2 MSTORE PUSH1 0x20 ADD PUSH0 KECCAK256 SLOAD SWAP1 POP SWAP2 SWAP1 POP JUMP JUMPDEST PUSH2 0x431 PUSH2 0x7B8 JUMP JUMPDEST PUSH2 0x43A PUSH0 PUSH2 0x93D JUMP JUMPDEST JUMP JUMPDEST PUSH0 PUSH1 0x5 PUSH0 SWAP1 SLOAD SWAP1 PUSH2 0x100 EXP SWAP1 DIV PUSH20 0xFFFFFFFFFFFFFFFFFFFFFFFFFFFFFFFFFFFFFFFF AND SWAP1 POP SWAP1 JUMP JUMPDEST PUSH1 0x60 PUSH1 0x4 DUP1 SLOAD PUSH2 0x473 SWAP1 PUSH2 0x1129 JUMP JUMPDEST DUP1 PUSH1 0x1F ADD PUSH1 0x20 DUP1 SWAP2 DIV MUL PUSH1 0x20 ADD PUSH1 0x40 MLOAD SWAP1 DUP2 ADD PUSH1 0x40 MSTORE DUP1 SWAP3 SWAP2 SWAP1 DUP2 DUP2 MSTORE PUSH1 0x20 ADD DUP3 DUP1 SLOAD PUSH2 0x49F SWAP1 PUSH2 0x1129 JUMP JUMPDEST DUP1 ISZERO PUSH2 0x4EA JUMPI DUP1 PUSH1 0x1F LT PUSH2 0x4C1 JUMPI PUSH2 0x100 DUP1 DUP4 SLOAD DIV MUL DUP4 MSTORE SWAP2 PUSH1 0x20 ADD SWAP2 PUSH2 0x4EA JUMP JUMPDEST DUP3 ADD SWAP2 SWAP1 PUSH0 MSTORE PUSH1 0x20 PUSH0 KECCAK256 SWAP1 JUMPDEST DUP2 SLOAD DUP2 MSTORE SWAP1 PUSH1 0x1 ADD SWAP1 PUSH1 0x20 ADD DUP1 DUP4 GT PUSH2 0x4CD JUMPI DUP3 SWAP1 SUB PUSH1 0x1F AND DUP3 ADD SWAP2 JUMPDEST POP POP POP POP POP SWAP1 POP SWAP1 JUMP JUMPDEST PUSH0 DUP1 PUSH2 0x4FE PUSH2 0x61C JUMP JUMPDEST SWAP1 POP PUSH2 0x50B DUP2 DUP6 DUP6 PUSH2 0x6C8 JUMP JUMPDEST PUSH1 0x1 SWAP2 POP POP SWAP3 SWAP2 POP POP JUMP JUMPDEST PUSH0 PUSH1 0x1 PUSH0 DUP5 PUSH20 0xFFFFFFFFFFFFFFFFFFFFFFFFFFFFFFFFFFFFFFFF AND PUSH20 0xFFFFFFFFFFFFFFFFFFFFFFFFFFFFFFFFFFFFFFFF AND DUP2 MSTORE PUSH1 0x20 ADD SWAP1 DUP2 MSTORE PUSH1 0x20 ADD PUSH0 KECCAK256 PUSH0 DUP4 PUSH20 0xFFFFFFFFFFFFFFFFFFFFFFFFFFFFFFFFFFFFFFFF AND PUSH20 0xFFFFFFFFFFFFFFFFFFFFFFFFFFFFFFFFFFFFFFFF AND DUP2 MSTORE PUSH1 0x20 ADD SWAP1 DUP2 MSTORE PUSH1 0x20 ADD PUSH0 KECCAK256 SLOAD SWAP1 POP SWAP3 SWAP2 POP POP JUMP JUMPDEST PUSH2 0x5A0 PUSH2 0x7B8 JUMP JUMPDEST PUSH0 PUSH20 0xFFFFFFFFFFFFFFFFFFFFFFFFFFFFFFFFFFFFFFFF AND DUP2 PUSH20 0xFFFFFFFFFFFFFFFFFFFFFFFFFFFFFFFFFFFFFFFF AND SUB PUSH2 0x610 JUMPI PUSH0 PUSH1 0x40 MLOAD PUSH32 0x1E4FBDF700000000000000000000000000000000000000000000000000000000 DUP2 MSTORE PUSH1 0x4 ADD PUSH2 0x607 SWAP2 SWAP1 PUSH2 0x10A5 JUMP JUMPDEST PUSH1 0x40 MLOAD DUP1 SWAP2 SUB SWAP1 REVERT JUMPDEST PUSH2 0x619 DUP2 PUSH2 0x93D JUMP JUMPDEST POP JUMP JUMPDEST PUSH0 CALLER SWAP1 POP SWAP1 JUMP JUMPDEST PUSH2 0x630 DUP4 DUP4 DUP4 PUSH1 0x1 PUSH2 0xA00 JUMP JUMPDEST POP POP POP JUMP JUMPDEST PUSH0 PUSH2 0x640 DUP5 DUP5 PUSH2 0x516 JUMP JUMPDEST SWAP1 POP PUSH32 0xFFFFFFFFFFFFFFFFFFFFFFFFFFFFFFFFFFFFFFFFFFFFFFFFFFFFFFFFFFFFFFFF DUP2 LT ISZERO PUSH2 0x6C2 JUMPI DUP2 DUP2 LT ISZERO PUSH2 0x6B3 JUMPI DUP3 DUP2 DUP4 PUSH1 0x40 MLOAD PUSH32 0xFB8F41B200000000000000000000000000000000000000000000000000000000 DUP2 MSTORE PUSH1 0x4 ADD PUSH2 0x6AA SWAP4 SWAP3 SWAP2 SWAP1 PUSH2 0x1159 JUMP JUMPDEST PUSH1 0x40 MLOAD DUP1 SWAP2 SUB SWAP1 REVERT JUMPDEST PUSH2 0x6C1 DUP5 DUP5 DUP5 DUP5 SUB PUSH0 PUSH2 0xA00 JUMP JUMPDEST JUMPDEST POP POP POP POP JUMP JUMPDEST PUSH0 PUSH20 0xFFFFFFFFFFFFFFFFFFFFFFFFFFFFFFFFFFFFFFFF AND DUP4 PUSH20 0xFFFFFFFFFFFFFFFFFFFFFFFFFFFFFFFFFFFFFFFF AND SUB PUSH2 0x738 JUMPI PUSH0 PUSH1 0x40 MLOAD PUSH32 0x96C6FD1E00000000000000000000000000000000000000000000000000000000 DUP2 MSTORE PUSH1 0x4 ADD PUSH2 0x72F SWAP2 SWAP1 PUSH2 0x10A5 JUMP JUMPDEST PUSH1 0x40 MLOAD DUP1 SWAP2 SUB SWAP1 REVERT JUMPDEST PUSH0 PUSH20 0xFFFFFFFFFFFFFFFFFFFFFFFFFFFFFFFFFFFFFFFF AND DUP3 PUSH20 0xFFFFFFFFFFFFFFFFFFFFFFFFFFFFFFFFFFFFFFFF AND SUB PUSH2 0x7A8 JUMPI PUSH0 PUSH1 0x40 MLOAD PUSH32 0xEC442F0500000000000000000000000000000000000000000000000000000000 DUP2 MSTORE PUSH1 0x4 ADD PUSH2 0x79F SWAP2 SWAP1 PUSH2 0x10A5 JUMP JUMPDEST PUSH1 0x40 MLOAD DUP1 SWAP2 SUB SWAP1 REVERT JUMPDEST PUSH2 0x7B3 DUP4 DUP4 DUP4 PUSH2 0xBCF JUMP JUMPDEST POP POP POP JUMP JUMPDEST PUSH2 0x7C0 PUSH2 0x61C JUMP JUMPDEST PUSH20 0xFFFFFFFFFFFFFFFFFFFFFFFFFFFFFFFFFFFFFFFF AND PUSH2 0x7DE PUSH2 0x43C JUMP JUMPDEST PUSH20 0xFFFFFFFFFFFFFFFFFFFFFFFFFFFFFFFFFFFFFFFF AND EQ PUSH2 0x83D JUMPI PUSH2 0x801 PUSH2 0x61C JUMP JUMPDEST PUSH1 0x40 MLOAD PUSH32 0x118CDAA700000000000000000000000000000000000000000000000000000000 DUP2 MSTORE PUSH1 0x4 ADD PUSH2 0x834 SWAP2 SWAP1 PUSH2 0x10A5 JUMP JUMPDEST PUSH1 0x40 MLOAD DUP1 SWAP2 SUB SWAP1 REVERT JUMPDEST JUMP JUMPDEST PUSH0 PUSH20 0xFFFFFFFFFFFFFFFFFFFFFFFFFFFFFFFFFFFFFFFF AND DUP3 PUSH20 0xFFFFFFFFFFFFFFFFFFFFFFFFFFFFFFFFFFFFFFFF AND SUB PUSH2 0x8AF JUMPI PUSH0 PUSH1 0x40 MLOAD PUSH32 0xEC442F0500000000000000000000000000000000000000000000000000000000 DUP2 MSTORE PUSH1 0x4 ADD PUSH2 0x8A6 SWAP2 SWAP1 PUSH2 0x10A5 JUMP JUMPDEST PUSH1 0x40 MLOAD DUP1 SWAP2 SUB SWAP1 REVERT JUMPDEST PUSH2 0x8BA PUSH0 DUP4 DUP4 PUSH2 0xBCF JUMP JUMPDEST POP POP JUMP JUMPDEST PUSH0 PUSH20 0xFFFFFFFFFFFFFFFFFFFFFFFFFFFFFFFFFFFFFFFF AND DUP3 PUSH20 0xFFFFFFFFFFFFFFFFFFFFFFFFFFFFFFFFFFFFFFFF AND SUB PUSH2 0x92E JUMPI PUSH0 PUSH1 0x40 MLOAD PUSH32 0x96C6FD1E00000000000000000000000000000000000000000000000000000000 DUP2 MSTORE PUSH1 0x4 ADD PUSH2 0x925 SWAP2 SWAP1 PUSH2 0x10A5 JUMP JUMPDEST PUSH1 0x40 MLOAD DUP1 SWAP2 SUB SWAP1 REVERT JUMPDEST PUSH2 0x939 DUP3 PUSH0 DUP4 PUSH2 0xBCF JUMP JUMPDEST POP POP JUMP JUMPDEST PUSH0 PUSH1 0x5 PUSH0 SWAP1 SLOAD SWAP1 PUSH2 0x100 EXP SWAP1 DIV PUSH20 0xFFFFFFFFFFFFFFFFFFFFFFFFFFFFFFFFFFFFFFFF AND SWAP1 POP DUP2 PUSH1 0x5 PUSH0 PUSH2 0x100 EXP DUP2 SLOAD DUP2 PUSH20 0xFFFFFFFFFFFFFFFFFFFFFFFFFFFFFFFFFFFFFFFF MUL NOT AND SWAP1 DUP4 PUSH20 0xFFFFFFFFFFFFFFFFFFFFFFFFFFFFFFFFFFFFFFFF AND MUL OR SWAP1 SSTORE POP DUP2 PUSH20 0xFFFFFFFFFFFFFFFFFFFFFFFFFFFFFFFFFFFFFFFF AND DUP2 PUSH20 0xFFFFFFFFFFFFFFFFFFFFFFFFFFFFFFFFFFFFFFFF AND PUSH32 0x8BE0079C531659141344CD1FD0A4F28419497F9722A3DAAFE3B4186F6B6457E0 PUSH1 0x40 MLOAD PUSH1 0x40 MLOAD DUP1 SWAP2 SUB SWAP1 LOG3 POP POP JUMP JUMPDEST PUSH0 PUSH20 0xFFFFFFFFFFFFFFFFFFFFFFFFFFFFFFFFFFFFFFFF AND DUP5 PUSH20 0xFFFFFFFFFFFFFFFFFFFFFFFFFFFFFFFFFFFFFFFF AND SUB PUSH2 0xA70 JUMPI PUSH0 PUSH1 0x40 MLOAD PUSH32 0xE602DF0500000000000000000000000000000000000000000000000000000000 DUP2 MSTORE PUSH1 0x4 ADD PUSH2 0xA67 SWAP2 SWAP1 PUSH2 0x10A5 JUMP JUMPDEST PUSH1 0x40 MLOAD DUP1 SWAP2 SUB SWAP1 REVERT JUMPDEST PUSH0 PUSH20 0xFFFFFFFFFFFFFFFFFFFFFFFFFFFFFFFFFFFFFFFF AND DUP4 PUSH20 0xFFFFFFFFFFFFFFFFFFFFFFFFFFFFFFFFFFFFFFFF AND SUB PUSH2 0xAE0 JUMPI PUSH0 PUSH1 0x40 MLOAD PUSH32 0x94280D6200000000000000000000000000000000000000000000000000000000 DUP2 MSTORE PUSH1 0x4 ADD PUSH2 0xAD7 SWAP2 SWAP1 PUSH2 0x10A5 JUMP JUMPDEST PUSH1 0x40 MLOAD DUP1 SWAP2 SUB SWAP1 REVERT JUMPDEST DUP2 PUSH1 0x1 PUSH0 DUP7 PUSH20 0xFFFFFFFFFFFFFFFFFFFFFFFFFFFFFFFFFFFFFFFF AND PUSH20 0xFFFFFFFFFFFFFFFFFFFFFFFFFFFFFFFFFFFFFFFF AND DUP2 MSTORE PUSH1 0x20 ADD SWAP1 DUP2 MSTORE PUSH1 0x20 ADD PUSH0 KECCAK256 PUSH0 DUP6 PUSH20 0xFFFFFFFFFFFFFFFFFFFFFFFFFFFFFFFFFFFFFFFF AND PUSH20 0xFFFFFFFFFFFFFFFFFFFFFFFFFFFFFFFFFFFFFFFF AND DUP2 MSTORE PUSH1 0x20 ADD SWAP1 DUP2 MSTORE PUSH1 0x20 ADD PUSH0 KECCAK256 DUP2 SWAP1 SSTORE POP DUP1 ISZERO PUSH2 0xBC9 JUMPI DUP3 PUSH20 0xFFFFFFFFFFFFFFFFFFFFFFFFFFFFFFFFFFFFFFFF AND DUP5 PUSH20 0xFFFFFFFFFFFFFFFFFFFFFFFFFFFFFFFFFFFFFFFF AND PUSH32 0x8C5BE1E5EBEC7D5BD14F71427D1E84F3DD0314C0F7B2291E5B200AC8C7C3B925 DUP5 PUSH1 0x40 MLOAD PUSH2 0xBC0 SWAP2 SWAP1 PUSH2 0xFA3 JUMP JUMPDEST PUSH1 0x40 MLOAD DUP1 SWAP2 SUB SWAP1 LOG3 JUMPDEST POP POP POP POP JUMP JUMPDEST PUSH0 PUSH20 0xFFFFFFFFFFFFFFFFFFFFFFFFFFFFFFFFFFFFFFFF AND DUP4 PUSH20 0xFFFFFFFFFFFFFFFFFFFFFFFFFFFFFFFFFFFFFFFF AND SUB PUSH2 0xC1F JUMPI DUP1 PUSH1 0x2 PUSH0 DUP3 DUP3 SLOAD PUSH2 0xC13 SWAP2 SWAP1 PUSH2 0x11BB JUMP JUMPDEST SWAP3 POP POP DUP2 SWAP1 SSTORE POP PUSH2 0xCED JUMP JUMPDEST PUSH0 DUP1 PUSH0 DUP6 PUSH20 0xFFFFFFFFFFFFFFFFFFFFFFFFFFFFFFFFFFFFFFFF AND PUSH20 0xFFFFFFFFFFFFFFFFFFFFFFFFFFFFFFFFFFFFFFFF AND DUP2 MSTORE PUSH1 0x20 ADD SWAP1 DUP2 MSTORE PUSH1 0x20 ADD PUSH0 KECCAK256 SLOAD SWAP1 POP DUP2 DUP2 LT ISZERO PUSH2 0xCA8 JUMPI DUP4 DUP2 DUP4 PUSH1 0x40 MLOAD PUSH32 0xE450D38C00000000000000000000000000000000000000000000000000000000 DUP2 MSTORE PUSH1 0x4 ADD PUSH2 0xC9F SWAP4 SWAP3 SWAP2 SWAP1 PUSH2 0x1159 JUMP JUMPDEST PUSH1 0x40 MLOAD DUP1 SWAP2 SUB SWAP1 REVERT JUMPDEST DUP2 DUP2 SUB PUSH0 DUP1 DUP7 PUSH20 0xFFFFFFFFFFFFFFFFFFFFFFFFFFFFFFFFFFFFFFFF AND PUSH20 0xFFFFFFFFFFFFFFFFFFFFFFFFFFFFFFFFFFFFFFFF AND DUP2 MSTORE PUSH1 0x20 ADD SWAP1 DUP2 MSTORE PUSH1 0x20 ADD PUSH0 KECCAK256 DUP2 SWAP1 SSTORE POP POP JUMPDEST PUSH0 PUSH20 0xFFFFFFFFFFFFFFFFFFFFFFFFFFFFFFFFFFFFFFFF AND DUP3 PUSH20 0xFFFFFFFFFFFFFFFFFFFFFFFFFFFFFFFFFFFFFFFF AND SUB PUSH2 0xD34 JUMPI DUP1 PUSH1 0x2 PUSH0 DUP3 DUP3 SLOAD SUB SWAP3 POP POP DUP2 SWAP1 SSTORE POP PUSH2 0xD7E JUMP JUMPDEST DUP1 PUSH0 DUP1 DUP5 PUSH20 0xFFFFFFFFFFFFFFFFFFFFFFFFFFFFFFFFFFFFFFFF AND PUSH20 0xFFFFFFFFFFFFFFFFFFFFFFFFFFFFFFFFFFFFFFFF AND DUP2 MSTORE PUSH1 0x20 ADD SWAP1 DUP2 MSTORE PUSH1 0x20 ADD PUSH0 KECCAK256 PUSH0 DUP3 DUP3 SLOAD ADD SWAP3 POP POP DUP2 SWAP1 SSTORE POP JUMPDEST DUP2 PUSH20 0xFFFFFFFFFFFFFFFFFFFFFFFFFFFFFFFFFFFFFFFF AND DUP4 PUSH20 0xFFFFFFFFFFFFFFFFFFFFFFFFFFFFFFFFFFFFFFFF AND PUSH32 0xDDF252AD1BE2C89B69C2B068FC378DAA952BA7F163C4A11628F55A4DF523B3EF DUP4 PUSH1 0x40 MLOAD PUSH2 0xDDB SWAP2 SWAP1 PUSH2 0xFA3 JUMP JUMPDEST PUSH1 0x40 MLOAD DUP1 SWAP2 SUB SWAP1 LOG3 POP POP POP JUMP JUMPDEST PUSH0 DUP2 MLOAD SWAP1 POP SWAP2 SWAP1 POP JUMP JUMPDEST PUSH0 DUP3 DUP3 MSTORE PUSH1 0x20 DUP3 ADD SWAP1 POP SWAP3 SWAP2 POP POP JUMP JUMPDEST PUSH0 JUMPDEST DUP4 DUP2 LT ISZERO PUSH2 0xE1F JUMPI DUP1 DUP3 ADD MLOAD DUP2 DUP5 ADD MSTORE PUSH1 0x20 DUP2 ADD SWAP1 POP PUSH2 0xE04 JUMP JUMPDEST PUSH0 DUP5 DUP5 ADD MSTORE POP POP POP POP JUMP JUMPDEST PUSH0 PUSH1 0x1F NOT PUSH1 0x1F DUP4 ADD AND SWAP1 POP SWAP2 SWAP1 POP JUMP JUMPDEST PUSH0 PUSH2 0xE44 DUP3 PUSH2 0xDE8 JUMP JUMPDEST PUSH2 0xE4E DUP2 DUP6 PUSH2 0xDF2 JUMP JUMPDEST SWAP4 POP PUSH2 0xE5E DUP2 DUP6 PUSH1 0x20 DUP7 ADD PUSH2 0xE02 JUMP JUMPDEST PUSH2 0xE67 DUP2 PUSH2 0xE2A JUMP JUMPDEST DUP5 ADD SWAP2 POP POP SWAP3 SWAP2 POP POP JUMP JUMPDEST PUSH0 PUSH1 0x20 DUP3 ADD SWAP1 POP DUP2 DUP2 SUB PUSH0 DUP4 ADD MSTORE PUSH2 0xE8A DUP2 DUP5 PUSH2 0xE3A JUMP JUMPDEST SWAP1 POP SWAP3 SWAP2 POP POP JUMP JUMPDEST PUSH0 DUP1 REVERT JUMPDEST PUSH0 PUSH20 0xFFFFFFFFFFFFFFFFFFFFFFFFFFFFFFFFFFFFFFFF DUP3 AND SWAP1 POP SWAP2 SWAP1 POP JUMP JUMPDEST PUSH0 PUSH2 0xEBF DUP3 PUSH2 0xE96 JUMP JUMPDEST SWAP1 POP SWAP2 SWAP1 POP JUMP JUMPDEST PUSH2 0xECF DUP2 PUSH2 0xEB5 JUMP JUMPDEST DUP2 EQ PUSH2 0xED9 JUMPI PUSH0 DUP1 REVERT JUMPDEST POP JUMP JUMPDEST PUSH0 DUP2 CALLDATALOAD SWAP1 POP PUSH2 0xEEA DUP2 PUSH2 0xEC6 JUMP JUMPDEST SWAP3 SWAP2 POP POP JUMP JUMPDEST PUSH0 DUP2 SWAP1 POP SWAP2 SWAP1 POP JUMP JUMPDEST PUSH2 0xF02 DUP2 PUSH2 0xEF0 JUMP JUMPDEST DUP2 EQ PUSH2 0xF0C JUMPI PUSH0 DUP1 REVERT JUMPDEST POP JUMP JUMPDEST PUSH0 DUP2 CALLDATALOAD SWAP1 POP PUSH2 0xF1D DUP2 PUSH2 0xEF9 JUMP JUMPDEST SWAP3 SWAP2 POP POP JUMP JUMPDEST PUSH0 DUP1 PUSH1 0x40 DUP4 DUP6 SUB SLT ISZERO PUSH2 0xF39 JUMPI PUSH2 0xF38 PUSH2 0xE92 JUMP JUMPDEST JUMPDEST PUSH0 PUSH2 0xF46 DUP6 DUP3 DUP7 ADD PUSH2 0xEDC JUMP JUMPDEST SWAP3 POP POP PUSH1 0x20 PUSH2 0xF57 DUP6 DUP3 DUP7 ADD PUSH2 0xF0F JUMP JUMPDEST SWAP2 POP POP SWAP3 POP SWAP3 SWAP1 POP JUMP JUMPDEST PUSH0 DUP2 ISZERO ISZERO SWAP1 POP SWAP2 SWAP1 POP JUMP JUMPDEST PUSH2 0xF75 DUP2 PUSH2 0xF61 JUMP JUMPDEST DUP3 MSTORE POP POP JUMP JUMPDEST PUSH0 PUSH1 0x20 DUP3 ADD SWAP1 POP PUSH2 0xF8E PUSH0 DUP4 ADD DUP5 PUSH2 0xF6C JUMP JUMPDEST SWAP3 SWAP2 POP POP JUMP JUMPDEST PUSH2 0xF9D DUP2 PUSH2 0xEF0 JUMP JUMPDEST DUP3 MSTORE POP POP JUMP JUMPDEST PUSH0 PUSH1 0x20 DUP3 ADD SWAP1 POP PUSH2 0xFB6 PUSH0 DUP4 ADD DUP5 PUSH2 0xF94 JUMP JUMPDEST SWAP3 SWAP2 POP POP JUMP JUMPDEST PUSH0 DUP1 PUSH0 PUSH1 0x60 DUP5 DUP7 SUB SLT ISZERO PUSH2 0xFD3 JUMPI PUSH2 0xFD2 PUSH2 0xE92 JUMP JUMPDEST JUMPDEST PUSH0 PUSH2 0xFE0 DUP7 DUP3 DUP8 ADD PUSH2 0xEDC JUMP JUMPDEST SWAP4 POP POP PUSH1 0x20 PUSH2 0xFF1 DUP7 DUP3 DUP8 ADD PUSH2 0xEDC JUMP JUMPDEST SWAP3 POP POP PUSH1 0x40 PUSH2 0x1002 DUP7 DUP3 DUP8 ADD PUSH2 0xF0F JUMP JUMPDEST SWAP2 POP POP SWAP3 POP SWAP3 POP SWAP3 JUMP JUMPDEST PUSH0 PUSH1 0xFF DUP3 AND SWAP1 POP SWAP2 SWAP1 POP JUMP JUMPDEST PUSH2 0x1021 DUP2 PUSH2 0x100C JUMP JUMPDEST DUP3 MSTORE POP POP JUMP JUMPDEST PUSH0 PUSH1 0x20 DUP3 ADD SWAP1 POP PUSH2 0x103A PUSH0 DUP4 ADD DUP5 PUSH2 0x1018 JUMP JUMPDEST SWAP3 SWAP2 POP POP JUMP JUMPDEST PUSH0 PUSH1 0x20 DUP3 DUP5 SUB SLT ISZERO PUSH2 0x1055 JUMPI PUSH2 0x1054 PUSH2 0xE92 JUMP JUMPDEST JUMPDEST PUSH0 PUSH2 0x1062 DUP5 DUP3 DUP6 ADD PUSH2 0xF0F JUMP JUMPDEST SWAP2 POP POP SWAP3 SWAP2 POP POP JUMP JUMPDEST PUSH0 PUSH1 0x20 DUP3 DUP5 SUB SLT ISZERO PUSH2 0x1080 JUMPI PUSH2 0x107F PUSH2 0xE92 JUMP JUMPDEST JUMPDEST PUSH0 PUSH2 0x108D DUP5 DUP3 DUP6 ADD PUSH2 0xEDC JUMP JUMPDEST SWAP2 POP POP SWAP3 SWAP2 POP POP JUMP JUMPDEST PUSH2 0x109F DUP2 PUSH2 0xEB5 JUMP JUMPDEST DUP3 MSTORE POP POP JUMP JUMPDEST PUSH0 PUSH1 0x20 DUP3 ADD SWAP1 POP PUSH2 0x10B8 PUSH0 DUP4 ADD DUP5 PUSH2 0x1096 JUMP JUMPDEST SWAP3 SWAP2 POP POP JUMP JUMPDEST PUSH0 DUP1 PUSH1 0x40 DUP4 DUP6 SUB SLT ISZERO PUSH2 0x10D4 JUMPI PUSH2 0x10D3 PUSH2 0xE92 JUMP JUMPDEST JUMPDEST PUSH0 PUSH2 0x10E1 DUP6 DUP3 DUP7 ADD PUSH2 0xEDC JUMP JUMPDEST SWAP3 POP POP PUSH1 0x20 PUSH2 0x10F2 DUP6 DUP3 DUP7 ADD PUSH2 0xEDC JUMP JUMPDEST SWAP2 POP POP SWAP3 POP SWAP3 SWAP1 POP JUMP JUMPDEST PUSH32 0x4E487B7100000000000000000000000000000000000000000000000000000000 PUSH0 MSTORE PUSH1 0x22 PUSH1 0x4 MSTORE PUSH1 0x24 PUSH0 REVERT JUMPDEST PUSH0 PUSH1 0x2 DUP3 DIV SWAP1 POP PUSH1 0x1 DUP3 AND DUP1 PUSH2 0x1140 JUMPI PUSH1 0x7F DUP3 AND SWAP2 POP JUMPDEST PUSH1 0x20 DUP3 LT DUP2 SUB PUSH2 0x1153 JUMPI PUSH2 0x1152 PUSH2 0x10FC JUMP JUMPDEST JUMPDEST POP SWAP2 SWAP1 POP JUMP JUMPDEST PUSH0 PUSH1 0x60 DUP3 ADD SWAP1 POP PUSH2 0x116C PUSH0 DUP4 ADD DUP7 PUSH2 0x1096 JUMP JUMPDEST PUSH2 0x1179 PUSH1 0x20 DUP4 ADD DUP6 PUSH2 0xF94 JUMP JUMPDEST PUSH2 0x1186 PUSH1 0x40 DUP4 ADD DUP5 PUSH2 0xF94 JUMP JUMPDEST SWAP5 SWAP4 POP POP POP POP JUMP JUMPDEST PUSH32 0x4E487B7100000000000000000000000000000000000000000000000000000000 PUSH0 MSTORE PUSH1 0x11 PUSH1 0x4 MSTORE PUSH1 0x24 PUSH0 REVERT JUMPDEST PUSH0 PUSH2 0x11C5 DUP3 PUSH2 0xEF0 JUMP JUMPDEST SWAP2 POP PUSH2 0x11D0 DUP4 PUSH2 0xEF0 JUMP JUMPDEST SWAP3 POP DUP3 DUP3 ADD SWAP1 POP DUP1 DUP3 GT ISZERO PUSH2 0x11E8 JUMPI PUSH2 0x11E7 PUSH2 0x118E JUMP JUMPDEST JUMPDEST SWAP3 SWAP2 POP POP JUMP INVALID LOG2 PUSH5 0x6970667358 0x22 SLT KECCAK256 0x5C ADDRESS JUMPDEST 0xCE 0x2E GT PUSH26 0xD752A3C4DC53F05162311A861B1E29288AE3BA7F11AEE981364 PUSH20 0x6F6C634300081400330000000000000000000000 "
				},
				"gasEstimates": {
					"creation": {
						"codeDepositCost": "928800",
						"executionCost": "infinite",
						"totalCost": "infinite"
					},
					"external": {
						"allowance(address,address)": "infinite",
						"approve(address,uint256)": "infinite",
						"balanceOf(address)": "2852",
						"burn(uint256)": "infinite",
						"decimals()": "383",
						"mint(address,uint256)": "infinite",
						"name()": "infinite",
						"owner()": "2582",
						"renounceOwnership()": "infinite",
						"symbol()": "infinite",
						"totalSupply()": "2500",
						"transfer(address,uint256)": "infinite",
						"transferFrom(address,address,uint256)": "infinite",
						"transferOwnership(address)": "infinite"
					}
				},
				"methodIdentifiers": {
					"allowance(address,address)": "dd62ed3e",
					"approve(address,uint256)": "095ea7b3",
					"balanceOf(address)": "70a08231",
					"burn(uint256)": "42966c68",
					"decimals()": "313ce567",
					"mint(address,uint256)": "40c10f19",
					"name()": "06fdde03",
					"owner()": "8da5cb5b",
					"renounceOwnership()": "715018a6",
					"symbol()": "95d89b41",
					"totalSupply()": "18160ddd",
					"transfer(address,uint256)": "a9059cbb",
					"transferFrom(address,address,uint256)": "23b872dd",
					"transferOwnership(address)": "f2fde38b"
				}
			},
			"storageLayout": {
				"storage": [
					{
						"astId": 307,
						"contract": "C/cashToken.sol:CashToken",
						"label": "_balances",
						"offset": 0,
						"slot": "0",
						"type": "t_mapping(t_address,t_uint256)"
					},
					{
						"astId": 313,
						"contract": "C/cashToken.sol:CashToken",
						"label": "_allowances",
						"offset": 0,
						"slot": "1",
						"type": "t_mapping(t_address,t_mapping(t_address,t_uint256))"
					},
					{
						"astId": 315,
						"contract": "C/cashToken.sol:CashToken",
						"label": "_totalSupply",
						"offset": 0,
						"slot": "2",
						"type": "t_uint256"
					},
					{
						"astId": 317,
						"contract": "C/cashToken.sol:CashToken",
						"label": "_name",
						"offset": 0,
						"slot": "3",
						"type": "t_string_storage"
					},
					{
						"astId": 319,
						"contract": "C/cashToken.sol:CashToken",
						"label": "_symbol",
						"offset": 0,
						"slot": "4",
						"type": "t_string_storage"
					},
					{
						"astId": 8,
						"contract": "C/cashToken.sol:CashToken",
						"label": "_owner",
						"offset": 0,
						"slot": "5",
						"type": "t_address"
					}
				],
				"types": {
					"t_address": {
						"encoding": "inplace",
						"label": "address",
						"numberOfBytes": "20"
					},
					"t_mapping(t_address,t_mapping(t_address,t_uint256))": {
						"encoding": "mapping",
						"key": "t_address",
						"label": "mapping(address => mapping(address => uint256))",
						"numberOfBytes": "32",
						"value": "t_mapping(t_address,t_uint256)"
					},
					"t_mapping(t_address,t_uint256)": {
						"encoding": "mapping",
						"key": "t_address",
						"label": "mapping(address => uint256)",
						"numberOfBytes": "32",
						"value": "t_uint256"
					},
					"t_string_storage": {
						"encoding": "bytes",
						"label": "string",
						"numberOfBytes": "32"
					},
					"t_uint256": {
						"encoding": "inplace",
						"label": "uint256",
						"numberOfBytes": "32"
					}
				}
			},
			"userdoc": {
				"kind": "user",
				"methods": {
					"burn(uint256)": {
						"notice": "Allows token holders to burn tokens, permanently removing them from circulation."
					},
					"constructor": {
						"notice": "Constructor that initializes the token with a name, symbol, and an initial supply."
					},
					"mint(address,uint256)": {
						"notice": "Allows the owner to mint new tokens to a specified address."
					}
				},
				"notice": "An ERC20 token representing a digital cash asset. It can be used for everyday transactions and as a stable store of value. The owner can mint additional tokens if needed, and token holders can burn tokens to reduce supply.",
				"version": 1
			}
		}
	}
}