{
	"C/curveAMO.sol": {
		"CurveAMO": {
			"abi": [
				{
					"inputs": [
						{
							"internalType": "contract IERC20",
							"name": "_stablecoin",
							"type": "address"
						},
						{
							"internalType": "contract ICurvePool",
							"name": "_curvePool",
							"type": "address"
						},
						{
							"internalType": "uint256",
							"name": "_minMintAmount",
							"type": "uint256"
						}
					],
					"stateMutability": "nonpayable",
					"type": "constructor"
				},
				{
					"inputs": [
						{
							"internalType": "address",
							"name": "owner",
							"type": "address"
						}
					],
					"name": "OwnableInvalidOwner",
					"type": "error"
				},
				{
					"inputs": [
						{
							"internalType": "address",
							"name": "account",
							"type": "address"
						}
					],
					"name": "OwnableUnauthorizedAccount",
					"type": "error"
				},
				{
					"anonymous": false,
					"inputs": [
						{
							"indexed": false,
							"internalType": "uint256",
							"name": "stablecoinAmount",
							"type": "uint256"
						}
					],
					"name": "Invested",
					"type": "event"
				},
				{
					"anonymous": false,
					"inputs": [
						{
							"indexed": false,
							"internalType": "uint256",
							"name": "liquidityRemoved",
							"type": "uint256"
						}
					],
					"name": "LiquidityWithdrawn",
					"type": "event"
				},
				{
					"anonymous": false,
					"inputs": [
						{
							"indexed": false,
							"internalType": "uint256",
							"name": "newMinMintAmount",
							"type": "uint256"
						}
					],
					"name": "MinMintAmountUpdated",
					"type": "event"
				},
				{
					"anonymous": false,
					"inputs": [
						{
							"indexed": true,
							"internalType": "address",
							"name": "previousOwner",
							"type": "address"
						},
						{
							"indexed": true,
							"internalType": "address",
							"name": "newOwner",
							"type": "address"
						}
					],
					"name": "OwnershipTransferred",
					"type": "event"
				},
				{
					"anonymous": false,
					"inputs": [
						{
							"indexed": true,
							"internalType": "address",
							"name": "newPool",
							"type": "address"
						}
					],
					"name": "PoolUpdated",
					"type": "event"
				},
				{
					"anonymous": false,
					"inputs": [
						{
							"indexed": true,
							"internalType": "address",
							"name": "sender",
							"type": "address"
						},
						{
							"indexed": false,
							"internalType": "uint256",
							"name": "amount",
							"type": "uint256"
						}
					],
					"name": "StablecoinDeposited",
					"type": "event"
				},
				{
					"inputs": [],
					"name": "curvePool",
					"outputs": [
						{
							"internalType": "contract ICurvePool",
							"name": "",
							"type": "address"
						}
					],
					"stateMutability": "view",
					"type": "function"
				},
				{
					"inputs": [
						{
							"internalType": "uint256",
							"name": "amount",
							"type": "uint256"
						}
					],
					"name": "depositStablecoin",
					"outputs": [],
					"stateMutability": "nonpayable",
					"type": "function"
				},
				{
					"inputs": [],
					"name": "invest",
					"outputs": [],
					"stateMutability": "nonpayable",
					"type": "function"
				},
				{
					"inputs": [],
					"name": "minMintAmount",
					"outputs": [
						{
							"internalType": "uint256",
							"name": "",
							"type": "uint256"
						}
					],
					"stateMutability": "view",
					"type": "function"
				},
				{
					"inputs": [],
					"name": "owner",
					"outputs": [
						{
							"internalType": "address",
							"name": "",
							"type": "address"
						}
					],
					"stateMutability": "view",
					"type": "function"
				},
				{
					"inputs": [],
					"name": "renounceOwnership",
					"outputs": [],
					"stateMutability": "nonpayable",
					"type": "function"
				},
				{
					"inputs": [],
					"name": "stablecoin",
					"outputs": [
						{
							"internalType": "contract IERC20",
							"name": "",
							"type": "address"
						}
					],
					"stateMutability": "view",
					"type": "function"
				},
				{
					"inputs": [
						{
							"internalType": "address",
							"name": "newOwner",
							"type": "address"
						}
					],
					"name": "transferOwnership",
					"outputs": [],
					"stateMutability": "nonpayable",
					"type": "function"
				},
				{
					"inputs": [
						{
							"internalType": "uint256",
							"name": "_minMintAmount",
							"type": "uint256"
						}
					],
					"name": "updateMinMintAmount",
					"outputs": [],
					"stateMutability": "nonpayable",
					"type": "function"
				},
				{
					"inputs": [
						{
							"internalType": "contract ICurvePool",
							"name": "_newPool",
							"type": "address"
						}
					],
					"name": "updatePool",
					"outputs": [],
					"stateMutability": "nonpayable",
					"type": "function"
				},
				{
					"inputs": [
						{
							"internalType": "uint256",
							"name": "liquidityAmount",
							"type": "uint256"
						},
						{
							"internalType": "uint256[2]",
							"name": "minAmounts",
							"type": "uint256[2]"
						}
					],
					"name": "withdrawInvested",
					"outputs": [],
					"stateMutability": "nonpayable",
					"type": "function"
				}
			],
			"devdoc": {
				"errors": {
					"OwnableInvalidOwner(address)": [
						{
							"details": "The owner is not a valid owner account. (eg. `address(0)`)"
						}
					],
					"OwnableUnauthorizedAccount(address)": [
						{
							"details": "The caller account is not authorized to perform an operation."
						}
					]
				},
				"kind": "dev",
				"methods": {
					"constructor": {
						"params": {
							"_curvePool": "The address of the Curve-like pool.",
							"_minMintAmount": "The initial minimum liquidity mint amount.",
							"_stablecoin": "The address of the ERC20 stablecoin."
						}
					},
					"depositStablecoin(uint256)": {
						"params": {
							"amount": "The amount of stablecoin to deposit."
						}
					},
					"owner()": {
						"details": "Returns the address of the current owner."
					},
					"renounceOwnership()": {
						"details": "Leaves the contract without owner. It will not be possible to call `onlyOwner` functions. Can only be called by the current owner. NOTE: Renouncing ownership will leave the contract without an owner, thereby disabling any functionality that is only available to the owner."
					},
					"transferOwnership(address)": {
						"details": "Transfers ownership of the contract to a new account (`newOwner`). Can only be called by the current owner."
					},
					"updateMinMintAmount(uint256)": {
						"params": {
							"_minMintAmount": "The new minimum mint amount."
						}
					},
					"updatePool(address)": {
						"params": {
							"_newPool": "The new Curve pool address."
						}
					},
					"withdrawInvested(uint256,uint256[2])": {
						"params": {
							"liquidityAmount": "The amount of liquidity tokens to withdraw.",
							"minAmounts": "The minimum amounts of each token to receive upon withdrawal."
						}
					}
				},
				"title": "CurveAMO",
				"version": 1
			},
			"evm": {
				"assembly": "    /* \"C/curveAMO.sol\":1324:4986  contract CurveAMO is Ownable, ReentrancyGuard {... */\n  mstore(0x40, 0x80)\n    /* \"C/curveAMO.sol\":2263:2634  constructor(IERC20 _stablecoin, ICurvePool _curvePool, uint256 _minMintAmount) Ownable(msg.sender) {... */\n  callvalue\n  dup1\n  iszero\n  tag_1\n  jumpi\n  revert(0x00, 0x00)\ntag_1:\n  pop\n  mload(0x40)\n  sub(codesize, bytecodeSize)\n  dup1\n  bytecodeSize\n  dup4\n  codecopy\n  dup2\n  dup2\n  add\n  0x40\n  mstore\n  dup2\n  add\n  swap1\n  tag_2\n  swap2\n  swap1\n  tag_3\n  jump\t// in\ntag_2:\n    /* \"C/curveAMO.sol\":2350:2360  msg.sender */\n  caller\n    /* \"@openzeppelin/contracts/access/Ownable.sol\":1297:1298  0 */\n  0x00\n    /* \"@openzeppelin/contracts/access/Ownable.sol\":1273:1299  initialOwner == address(0) */\n  0xffffffffffffffffffffffffffffffffffffffff\n  and\n    /* \"@openzeppelin/contracts/access/Ownable.sol\":1273:1285  initialOwner */\n  dup2\n    /* \"@openzeppelin/contracts/access/Ownable.sol\":1273:1299  initialOwner == address(0) */\n  0xffffffffffffffffffffffffffffffffffffffff\n  and\n  sub\n    /* \"@openzeppelin/contracts/access/Ownable.sol\":1269:1364  if (initialOwner == address(0)) {... */\n  tag_8\n  jumpi\n    /* \"@openzeppelin/contracts/access/Ownable.sol\":1350:1351  0 */\n  0x00\n    /* \"@openzeppelin/contracts/access/Ownable.sol\":1322:1353  OwnableInvalidOwner(address(0)) */\n  mload(0x40)\n  0x1e4fbdf700000000000000000000000000000000000000000000000000000000\n  dup2\n  mstore\n  0x04\n  add\n  tag_9\n  swap2\n  swap1\n  tag_10\n  jump\t// in\ntag_9:\n  mload(0x40)\n  dup1\n  swap2\n  sub\n  swap1\n  revert\n    /* \"@openzeppelin/contracts/access/Ownable.sol\":1269:1364  if (initialOwner == address(0)) {... */\ntag_8:\n    /* \"@openzeppelin/contracts/access/Ownable.sol\":1373:1405  _transferOwnership(initialOwner) */\n  tag_11\n    /* \"@openzeppelin/contracts/access/Ownable.sol\":1392:1404  initialOwner */\n  dup2\n    /* \"@openzeppelin/contracts/access/Ownable.sol\":1373:1391  _transferOwnership */\n  shl(0x20, tag_12)\n    /* \"@openzeppelin/contracts/access/Ownable.sol\":1373:1405  _transferOwnership(initialOwner) */\n  0x20\n  shr\n  jump\t// in\ntag_11:\n    /* \"@openzeppelin/contracts/access/Ownable.sol\":1225:1412  constructor(address initialOwner) {... */\n  pop\n    /* \"@openzeppelin/contracts/security/ReentrancyGuard.sol\":1716:1717  1 */\n  0x01\n    /* \"@openzeppelin/contracts/security/ReentrancyGuard.sol\":1821:1828  _status */\n  dup1\n    /* \"@openzeppelin/contracts/security/ReentrancyGuard.sol\":1821:1843  _status = _NOT_ENTERED */\n  dup2\n  swap1\n  sstore\n  pop\n    /* \"C/curveAMO.sol\":2412:2413  0 */\n  0x00\n    /* \"C/curveAMO.sol\":2380:2414  address(_stablecoin) != address(0) */\n  0xffffffffffffffffffffffffffffffffffffffff\n  and\n    /* \"C/curveAMO.sol\":2388:2399  _stablecoin */\n  dup4\n    /* \"C/curveAMO.sol\":2380:2414  address(_stablecoin) != address(0) */\n  0xffffffffffffffffffffffffffffffffffffffff\n  and\n  sub\n    /* \"C/curveAMO.sol\":2372:2445  require(address(_stablecoin) != address(0), \"Invalid stablecoin address\") */\n  tag_15\n  jumpi\n  mload(0x40)\n  0x08c379a000000000000000000000000000000000000000000000000000000000\n  dup2\n  mstore\n  0x04\n  add\n  tag_16\n  swap1\n  tag_17\n  jump\t// in\ntag_16:\n  mload(0x40)\n  dup1\n  swap2\n  sub\n  swap1\n  revert\ntag_15:\n    /* \"C/curveAMO.sol\":2494:2495  0 */\n  0x00\n    /* \"C/curveAMO.sol\":2463:2496  address(_curvePool) != address(0) */\n  0xffffffffffffffffffffffffffffffffffffffff\n  and\n    /* \"C/curveAMO.sol\":2471:2481  _curvePool */\n  dup3\n    /* \"C/curveAMO.sol\":2463:2496  address(_curvePool) != address(0) */\n  0xffffffffffffffffffffffffffffffffffffffff\n  and\n  sub\n    /* \"C/curveAMO.sol\":2455:2521  require(address(_curvePool) != address(0), \"Invalid pool address\") */\n  tag_18\n  jumpi\n  mload(0x40)\n  0x08c379a000000000000000000000000000000000000000000000000000000000\n  dup2\n  mstore\n  0x04\n  add\n  tag_19\n  swap1\n  tag_20\n  jump\t// in\ntag_19:\n  mload(0x40)\n  dup1\n  swap2\n  sub\n  swap1\n  revert\ntag_18:\n    /* \"C/curveAMO.sol\":2544:2555  _stablecoin */\n  dup3\n    /* \"C/curveAMO.sol\":2531:2541  stablecoin */\n  0x02\n  0x00\n    /* \"C/curveAMO.sol\":2531:2555  stablecoin = _stablecoin */\n  0x0100\n  exp\n  dup2\n  sload\n  dup2\n  0xffffffffffffffffffffffffffffffffffffffff\n  mul\n  not\n  and\n  swap1\n  dup4\n  0xffffffffffffffffffffffffffffffffffffffff\n  and\n  mul\n  or\n  swap1\n  sstore\n  pop\n    /* \"C/curveAMO.sol\":2577:2587  _curvePool */\n  dup2\n    /* \"C/curveAMO.sol\":2565:2574  curvePool */\n  0x03\n  0x00\n    /* \"C/curveAMO.sol\":2565:2587  curvePool = _curvePool */\n  0x0100\n  exp\n  dup2\n  sload\n  dup2\n  0xffffffffffffffffffffffffffffffffffffffff\n  mul\n  not\n  and\n  swap1\n  dup4\n  0xffffffffffffffffffffffffffffffffffffffff\n  and\n  mul\n  or\n  swap1\n  sstore\n  pop\n    /* \"C/curveAMO.sol\":2613:2627  _minMintAmount */\n  dup1\n    /* \"C/curveAMO.sol\":2597:2610  minMintAmount */\n  0x04\n    /* \"C/curveAMO.sol\":2597:2627  minMintAmount = _minMintAmount */\n  dup2\n  swap1\n  sstore\n  pop\n    /* \"C/curveAMO.sol\":2263:2634  constructor(IERC20 _stablecoin, ICurvePool _curvePool, uint256 _minMintAmount) Ownable(msg.sender) {... */\n  pop\n  pop\n  pop\n    /* \"C/curveAMO.sol\":1324:4986  contract CurveAMO is Ownable, ReentrancyGuard {... */\n  jump(tag_21)\n    /* \"@openzeppelin/contracts/access/Ownable.sol\":2912:3099  function _transferOwnership(address newOwner) internal virtual {... */\ntag_12:\n    /* \"@openzeppelin/contracts/access/Ownable.sol\":2985:3001  address oldOwner */\n  0x00\n    /* \"@openzeppelin/contracts/access/Ownable.sol\":3004:3010  _owner */\n  0x00\n  0x00\n  swap1\n  sload\n  swap1\n  0x0100\n  exp\n  swap1\n  div\n  0xffffffffffffffffffffffffffffffffffffffff\n  and\n    /* \"@openzeppelin/contracts/access/Ownable.sol\":2985:3010  address oldOwner = _owner */\n  swap1\n  pop\n    /* \"@openzeppelin/contracts/access/Ownable.sol\":3029:3037  newOwner */\n  dup2\n    /* \"@openzeppelin/contracts/access/Ownable.sol\":3020:3026  _owner */\n  0x00\n  0x00\n    /* \"@openzeppelin/contracts/access/Ownable.sol\":3020:3037  _owner = newOwner */\n  0x0100\n  exp\n  dup2\n  sload\n  dup2\n  0xffffffffffffffffffffffffffffffffffffffff\n  mul\n  not\n  and\n  swap1\n  dup4\n  0xffffffffffffffffffffffffffffffffffffffff\n  and\n  mul\n  or\n  swap1\n  sstore\n  pop\n    /* \"@openzeppelin/contracts/access/Ownable.sol\":3083:3091  newOwner */\n  dup2\n    /* \"@openzeppelin/contracts/access/Ownable.sol\":3052:3092  OwnershipTransferred(oldOwner, newOwner) */\n  0xffffffffffffffffffffffffffffffffffffffff\n  and\n    /* \"@openzeppelin/contracts/access/Ownable.sol\":3073:3081  oldOwner */\n  dup2\n    /* \"@openzeppelin/contracts/access/Ownable.sol\":3052:3092  OwnershipTransferred(oldOwner, newOwner) */\n  0xffffffffffffffffffffffffffffffffffffffff\n  and\n  0x8be0079c531659141344cd1fd0a4f28419497f9722a3daafe3b4186f6b6457e0\n  mload(0x40)\n  mload(0x40)\n  dup1\n  swap2\n  sub\n  swap1\n  log3\n    /* \"@openzeppelin/contracts/access/Ownable.sol\":2975:3099  {... */\n  pop\n    /* \"@openzeppelin/contracts/access/Ownable.sol\":2912:3099  function _transferOwnership(address newOwner) internal virtual {... */\n  pop\n  jump\t// out\n    /* \"#utility.yul\":88:205   */\ntag_24:\n    /* \"#utility.yul\":197:198   */\n  0x00\n    /* \"#utility.yul\":194:195   */\n  0x00\n    /* \"#utility.yul\":187:199   */\n  revert\n    /* \"#utility.yul\":334:460   */\ntag_26:\n    /* \"#utility.yul\":371:378   */\n  0x00\n    /* \"#utility.yul\":411:453   */\n  0xffffffffffffffffffffffffffffffffffffffff\n    /* \"#utility.yul\":404:409   */\n  dup3\n    /* \"#utility.yul\":400:454   */\n  and\n    /* \"#utility.yul\":389:454   */\n  swap1\n  pop\n    /* \"#utility.yul\":334:460   */\n  swap2\n  swap1\n  pop\n  jump\t// out\n    /* \"#utility.yul\":466:562   */\ntag_27:\n    /* \"#utility.yul\":503:510   */\n  0x00\n    /* \"#utility.yul\":532:556   */\n  tag_49\n    /* \"#utility.yul\":550:555   */\n  dup3\n    /* \"#utility.yul\":532:556   */\n  tag_26\n  jump\t// in\ntag_49:\n    /* \"#utility.yul\":521:556   */\n  swap1\n  pop\n    /* \"#utility.yul\":466:562   */\n  swap2\n  swap1\n  pop\n  jump\t// out\n    /* \"#utility.yul\":568:678   */\ntag_28:\n    /* \"#utility.yul\":619:626   */\n  0x00\n    /* \"#utility.yul\":648:672   */\n  tag_51\n    /* \"#utility.yul\":666:671   */\n  dup3\n    /* \"#utility.yul\":648:672   */\n  tag_27\n  jump\t// in\ntag_51:\n    /* \"#utility.yul\":637:672   */\n  swap1\n  pop\n    /* \"#utility.yul\":568:678   */\n  swap2\n  swap1\n  pop\n  jump\t// out\n    /* \"#utility.yul\":684:834   */\ntag_29:\n    /* \"#utility.yul\":771:809   */\n  tag_53\n    /* \"#utility.yul\":803:808   */\n  dup2\n    /* \"#utility.yul\":771:809   */\n  tag_28\n  jump\t// in\ntag_53:\n    /* \"#utility.yul\":764:769   */\n  dup2\n    /* \"#utility.yul\":761:810   */\n  eq\n    /* \"#utility.yul\":751:828   */\n  tag_54\n  jumpi\n    /* \"#utility.yul\":824:825   */\n  0x00\n    /* \"#utility.yul\":821:822   */\n  0x00\n    /* \"#utility.yul\":814:826   */\n  revert\n    /* \"#utility.yul\":751:828   */\ntag_54:\n    /* \"#utility.yul\":684:834   */\n  pop\n  jump\t// out\n    /* \"#utility.yul\":840:1011   */\ntag_30:\n    /* \"#utility.yul\":911:916   */\n  0x00\n    /* \"#utility.yul\":942:948   */\n  dup2\n    /* \"#utility.yul\":936:949   */\n  mload\n    /* \"#utility.yul\":927:949   */\n  swap1\n  pop\n    /* \"#utility.yul\":958:1005   */\n  tag_56\n    /* \"#utility.yul\":999:1004   */\n  dup2\n    /* \"#utility.yul\":958:1005   */\n  tag_29\n  jump\t// in\ntag_56:\n    /* \"#utility.yul\":840:1011   */\n  swap3\n  swap2\n  pop\n  pop\n  jump\t// out\n    /* \"#utility.yul\":1017:1131   */\ntag_31:\n    /* \"#utility.yul\":1072:1079   */\n  0x00\n    /* \"#utility.yul\":1101:1125   */\n  tag_58\n    /* \"#utility.yul\":1119:1124   */\n  dup3\n    /* \"#utility.yul\":1101:1125   */\n  tag_27\n  jump\t// in\ntag_58:\n    /* \"#utility.yul\":1090:1125   */\n  swap1\n  pop\n    /* \"#utility.yul\":1017:1131   */\n  swap2\n  swap1\n  pop\n  jump\t// out\n    /* \"#utility.yul\":1137:1295   */\ntag_32:\n    /* \"#utility.yul\":1228:1270   */\n  tag_60\n    /* \"#utility.yul\":1264:1269   */\n  dup2\n    /* \"#utility.yul\":1228:1270   */\n  tag_31\n  jump\t// in\ntag_60:\n    /* \"#utility.yul\":1221:1226   */\n  dup2\n    /* \"#utility.yul\":1218:1271   */\n  eq\n    /* \"#utility.yul\":1208:1289   */\n  tag_61\n  jumpi\n    /* \"#utility.yul\":1285:1286   */\n  0x00\n    /* \"#utility.yul\":1282:1283   */\n  0x00\n    /* \"#utility.yul\":1275:1287   */\n  revert\n    /* \"#utility.yul\":1208:1289   */\ntag_61:\n    /* \"#utility.yul\":1137:1295   */\n  pop\n  jump\t// out\n    /* \"#utility.yul\":1301:1480   */\ntag_33:\n    /* \"#utility.yul\":1376:1381   */\n  0x00\n    /* \"#utility.yul\":1407:1413   */\n  dup2\n    /* \"#utility.yul\":1401:1414   */\n  mload\n    /* \"#utility.yul\":1392:1414   */\n  swap1\n  pop\n    /* \"#utility.yul\":1423:1474   */\n  tag_63\n    /* \"#utility.yul\":1468:1473   */\n  dup2\n    /* \"#utility.yul\":1423:1474   */\n  tag_32\n  jump\t// in\ntag_63:\n    /* \"#utility.yul\":1301:1480   */\n  swap3\n  swap2\n  pop\n  pop\n  jump\t// out\n    /* \"#utility.yul\":1486:1563   */\ntag_34:\n    /* \"#utility.yul\":1523:1530   */\n  0x00\n    /* \"#utility.yul\":1552:1557   */\n  dup2\n    /* \"#utility.yul\":1541:1557   */\n  swap1\n  pop\n    /* \"#utility.yul\":1486:1563   */\n  swap2\n  swap1\n  pop\n  jump\t// out\n    /* \"#utility.yul\":1569:1691   */\ntag_35:\n    /* \"#utility.yul\":1642:1666   */\n  tag_66\n    /* \"#utility.yul\":1660:1665   */\n  dup2\n    /* \"#utility.yul\":1642:1666   */\n  tag_34\n  jump\t// in\ntag_66:\n    /* \"#utility.yul\":1635:1640   */\n  dup2\n    /* \"#utility.yul\":1632:1667   */\n  eq\n    /* \"#utility.yul\":1622:1685   */\n  tag_67\n  jumpi\n    /* \"#utility.yul\":1681:1682   */\n  0x00\n    /* \"#utility.yul\":1678:1679   */\n  0x00\n    /* \"#utility.yul\":1671:1683   */\n  revert\n    /* \"#utility.yul\":1622:1685   */\ntag_67:\n    /* \"#utility.yul\":1569:1691   */\n  pop\n  jump\t// out\n    /* \"#utility.yul\":1697:1840   */\ntag_36:\n    /* \"#utility.yul\":1754:1759   */\n  0x00\n    /* \"#utility.yul\":1785:1791   */\n  dup2\n    /* \"#utility.yul\":1779:1792   */\n  mload\n    /* \"#utility.yul\":1770:1792   */\n  swap1\n  pop\n    /* \"#utility.yul\":1801:1834   */\n  tag_69\n    /* \"#utility.yul\":1828:1833   */\n  dup2\n    /* \"#utility.yul\":1801:1834   */\n  tag_35\n  jump\t// in\ntag_69:\n    /* \"#utility.yul\":1697:1840   */\n  swap3\n  swap2\n  pop\n  pop\n  jump\t// out\n    /* \"#utility.yul\":1846:2573   */\ntag_3:\n    /* \"#utility.yul\":1966:1972   */\n  0x00\n    /* \"#utility.yul\":1974:1980   */\n  0x00\n    /* \"#utility.yul\":1982:1988   */\n  0x00\n    /* \"#utility.yul\":2031:2033   */\n  0x60\n    /* \"#utility.yul\":2019:2028   */\n  dup5\n    /* \"#utility.yul\":2010:2017   */\n  dup7\n    /* \"#utility.yul\":2006:2029   */\n  sub\n    /* \"#utility.yul\":2002:2034   */\n  slt\n    /* \"#utility.yul\":1999:2118   */\n  iszero\n  tag_71\n  jumpi\n    /* \"#utility.yul\":2037:2116   */\n  tag_72\n  tag_24\n  jump\t// in\ntag_72:\n    /* \"#utility.yul\":1999:2118   */\ntag_71:\n    /* \"#utility.yul\":2157:2158   */\n  0x00\n    /* \"#utility.yul\":2182:2260   */\n  tag_73\n    /* \"#utility.yul\":2252:2259   */\n  dup7\n    /* \"#utility.yul\":2243:2249   */\n  dup3\n    /* \"#utility.yul\":2232:2241   */\n  dup8\n    /* \"#utility.yul\":2228:2250   */\n  add\n    /* \"#utility.yul\":2182:2260   */\n  tag_30\n  jump\t// in\ntag_73:\n    /* \"#utility.yul\":2172:2260   */\n  swap4\n  pop\n    /* \"#utility.yul\":2128:2270   */\n  pop\n    /* \"#utility.yul\":2309:2311   */\n  0x20\n    /* \"#utility.yul\":2335:2417   */\n  tag_74\n    /* \"#utility.yul\":2409:2416   */\n  dup7\n    /* \"#utility.yul\":2400:2406   */\n  dup3\n    /* \"#utility.yul\":2389:2398   */\n  dup8\n    /* \"#utility.yul\":2385:2407   */\n  add\n    /* \"#utility.yul\":2335:2417   */\n  tag_33\n  jump\t// in\ntag_74:\n    /* \"#utility.yul\":2325:2417   */\n  swap3\n  pop\n    /* \"#utility.yul\":2280:2427   */\n  pop\n    /* \"#utility.yul\":2466:2468   */\n  0x40\n    /* \"#utility.yul\":2492:2556   */\n  tag_75\n    /* \"#utility.yul\":2548:2555   */\n  dup7\n    /* \"#utility.yul\":2539:2545   */\n  dup3\n    /* \"#utility.yul\":2528:2537   */\n  dup8\n    /* \"#utility.yul\":2524:2546   */\n  add\n    /* \"#utility.yul\":2492:2556   */\n  tag_36\n  jump\t// in\ntag_75:\n    /* \"#utility.yul\":2482:2556   */\n  swap2\n  pop\n    /* \"#utility.yul\":2437:2566   */\n  pop\n    /* \"#utility.yul\":1846:2573   */\n  swap3\n  pop\n  swap3\n  pop\n  swap3\n  jump\t// out\n    /* \"#utility.yul\":2579:2697   */\ntag_37:\n    /* \"#utility.yul\":2666:2690   */\n  tag_77\n    /* \"#utility.yul\":2684:2689   */\n  dup2\n    /* \"#utility.yul\":2666:2690   */\n  tag_27\n  jump\t// in\ntag_77:\n    /* \"#utility.yul\":2661:2664   */\n  dup3\n    /* \"#utility.yul\":2654:2691   */\n  mstore\n    /* \"#utility.yul\":2579:2697   */\n  pop\n  pop\n  jump\t// out\n    /* \"#utility.yul\":2703:2925   */\ntag_10:\n    /* \"#utility.yul\":2796:2800   */\n  0x00\n    /* \"#utility.yul\":2834:2836   */\n  0x20\n    /* \"#utility.yul\":2823:2832   */\n  dup3\n    /* \"#utility.yul\":2819:2837   */\n  add\n    /* \"#utility.yul\":2811:2837   */\n  swap1\n  pop\n    /* \"#utility.yul\":2847:2918   */\n  tag_79\n    /* \"#utility.yul\":2915:2916   */\n  0x00\n    /* \"#utility.yul\":2904:2913   */\n  dup4\n    /* \"#utility.yul\":2900:2917   */\n  add\n    /* \"#utility.yul\":2891:2897   */\n  dup5\n    /* \"#utility.yul\":2847:2918   */\n  tag_37\n  jump\t// in\ntag_79:\n    /* \"#utility.yul\":2703:2925   */\n  swap3\n  swap2\n  pop\n  pop\n  jump\t// out\n    /* \"#utility.yul\":2931:3100   */\ntag_38:\n    /* \"#utility.yul\":3015:3026   */\n  0x00\n    /* \"#utility.yul\":3049:3055   */\n  dup3\n    /* \"#utility.yul\":3044:3047   */\n  dup3\n    /* \"#utility.yul\":3037:3056   */\n  mstore\n    /* \"#utility.yul\":3089:3093   */\n  0x20\n    /* \"#utility.yul\":3084:3087   */\n  dup3\n    /* \"#utility.yul\":3080:3094   */\n  add\n    /* \"#utility.yul\":3065:3094   */\n  swap1\n  pop\n    /* \"#utility.yul\":2931:3100   */\n  swap3\n  swap2\n  pop\n  pop\n  jump\t// out\n    /* \"#utility.yul\":3106:3282   */\ntag_39:\n    /* \"#utility.yul\":3246:3274   */\n  0x496e76616c696420737461626c65636f696e2061646472657373000000000000\n    /* \"#utility.yul\":3242:3243   */\n  0x00\n    /* \"#utility.yul\":3234:3240   */\n  dup3\n    /* \"#utility.yul\":3230:3244   */\n  add\n    /* \"#utility.yul\":3223:3275   */\n  mstore\n    /* \"#utility.yul\":3106:3282   */\n  pop\n  jump\t// out\n    /* \"#utility.yul\":3288:3654   */\ntag_40:\n    /* \"#utility.yul\":3430:3433   */\n  0x00\n    /* \"#utility.yul\":3451:3518   */\n  tag_83\n    /* \"#utility.yul\":3515:3517   */\n  0x1a\n    /* \"#utility.yul\":3510:3513   */\n  dup4\n    /* \"#utility.yul\":3451:3518   */\n  tag_38\n  jump\t// in\ntag_83:\n    /* \"#utility.yul\":3444:3518   */\n  swap2\n  pop\n    /* \"#utility.yul\":3527:3620   */\n  tag_84\n    /* \"#utility.yul\":3616:3619   */\n  dup3\n    /* \"#utility.yul\":3527:3620   */\n  tag_39\n  jump\t// in\ntag_84:\n    /* \"#utility.yul\":3645:3647   */\n  0x20\n    /* \"#utility.yul\":3640:3643   */\n  dup3\n    /* \"#utility.yul\":3636:3648   */\n  add\n    /* \"#utility.yul\":3629:3648   */\n  swap1\n  pop\n    /* \"#utility.yul\":3288:3654   */\n  swap2\n  swap1\n  pop\n  jump\t// out\n    /* \"#utility.yul\":3660:4079   */\ntag_17:\n    /* \"#utility.yul\":3826:3830   */\n  0x00\n    /* \"#utility.yul\":3864:3866   */\n  0x20\n    /* \"#utility.yul\":3853:3862   */\n  dup3\n    /* \"#utility.yul\":3849:3867   */\n  add\n    /* \"#utility.yul\":3841:3867   */\n  swap1\n  pop\n    /* \"#utility.yul\":3913:3922   */\n  dup2\n    /* \"#utility.yul\":3907:3911   */\n  dup2\n    /* \"#utility.yul\":3903:3923   */\n  sub\n    /* \"#utility.yul\":3899:3900   */\n  0x00\n    /* \"#utility.yul\":3888:3897   */\n  dup4\n    /* \"#utility.yul\":3884:3901   */\n  add\n    /* \"#utility.yul\":3877:3924   */\n  mstore\n    /* \"#utility.yul\":3941:4072   */\n  tag_86\n    /* \"#utility.yul\":4067:4071   */\n  dup2\n    /* \"#utility.yul\":3941:4072   */\n  tag_40\n  jump\t// in\ntag_86:\n    /* \"#utility.yul\":3933:4072   */\n  swap1\n  pop\n    /* \"#utility.yul\":3660:4079   */\n  swap2\n  swap1\n  pop\n  jump\t// out\n    /* \"#utility.yul\":4085:4255   */\ntag_41:\n    /* \"#utility.yul\":4225:4247   */\n  0x496e76616c696420706f6f6c2061646472657373000000000000000000000000\n    /* \"#utility.yul\":4221:4222   */\n  0x00\n    /* \"#utility.yul\":4213:4219   */\n  dup3\n    /* \"#utility.yul\":4209:4223   */\n  add\n    /* \"#utility.yul\":4202:4248   */\n  mstore\n    /* \"#utility.yul\":4085:4255   */\n  pop\n  jump\t// out\n    /* \"#utility.yul\":4261:4627   */\ntag_42:\n    /* \"#utility.yul\":4403:4406   */\n  0x00\n    /* \"#utility.yul\":4424:4491   */\n  tag_89\n    /* \"#utility.yul\":4488:4490   */\n  0x14\n    /* \"#utility.yul\":4483:4486   */\n  dup4\n    /* \"#utility.yul\":4424:4491   */\n  tag_38\n  jump\t// in\ntag_89:\n    /* \"#utility.yul\":4417:4491   */\n  swap2\n  pop\n    /* \"#utility.yul\":4500:4593   */\n  tag_90\n    /* \"#utility.yul\":4589:4592   */\n  dup3\n    /* \"#utility.yul\":4500:4593   */\n  tag_41\n  jump\t// in\ntag_90:\n    /* \"#utility.yul\":4618:4620   */\n  0x20\n    /* \"#utility.yul\":4613:4616   */\n  dup3\n    /* \"#utility.yul\":4609:4621   */\n  add\n    /* \"#utility.yul\":4602:4621   */\n  swap1\n  pop\n    /* \"#utility.yul\":4261:4627   */\n  swap2\n  swap1\n  pop\n  jump\t// out\n    /* \"#utility.yul\":4633:5052   */\ntag_20:\n    /* \"#utility.yul\":4799:4803   */\n  0x00\n    /* \"#utility.yul\":4837:4839   */\n  0x20\n    /* \"#utility.yul\":4826:4835   */\n  dup3\n    /* \"#utility.yul\":4822:4840   */\n  add\n    /* \"#utility.yul\":4814:4840   */\n  swap1\n  pop\n    /* \"#utility.yul\":4886:4895   */\n  dup2\n    /* \"#utility.yul\":4880:4884   */\n  dup2\n    /* \"#utility.yul\":4876:4896   */\n  sub\n    /* \"#utility.yul\":4872:4873   */\n  0x00\n    /* \"#utility.yul\":4861:4870   */\n  dup4\n    /* \"#utility.yul\":4857:4874   */\n  add\n    /* \"#utility.yul\":4850:4897   */\n  mstore\n    /* \"#utility.yul\":4914:5045   */\n  tag_92\n    /* \"#utility.yul\":5040:5044   */\n  dup2\n    /* \"#utility.yul\":4914:5045   */\n  tag_42\n  jump\t// in\ntag_92:\n    /* \"#utility.yul\":4906:5045   */\n  swap1\n  pop\n    /* \"#utility.yul\":4633:5052   */\n  swap2\n  swap1\n  pop\n  jump\t// out\n    /* \"C/curveAMO.sol\":1324:4986  contract CurveAMO is Ownable, ReentrancyGuard {... */\ntag_21:\n  dataSize(sub_0)\n  dup1\n  dataOffset(sub_0)\n  0x00\n  codecopy\n  0x00\n  return\nstop\n\nsub_0: assembly {\n        /* \"C/curveAMO.sol\":1324:4986  contract CurveAMO is Ownable, ReentrancyGuard {... */\n      mstore(0x40, 0x80)\n      callvalue\n      dup1\n      iszero\n      tag_1\n      jumpi\n      revert(0x00, 0x00)\n    tag_1:\n      pop\n      jumpi(tag_2, lt(calldatasize, 0x04))\n      shr(0xe0, calldataload(0x00))\n      dup1\n      0x715018a6\n      gt\n      tag_14\n      jumpi\n      dup1\n      0x715018a6\n      eq\n      tag_8\n      jumpi\n      dup1\n      0x7b46c54f\n      eq\n      tag_9\n      jumpi\n      dup1\n      0x8da5cb5b\n      eq\n      tag_10\n      jumpi\n      dup1\n      0xe8b5e51f\n      eq\n      tag_11\n      jumpi\n      dup1\n      0xe9cbd822\n      eq\n      tag_12\n      jumpi\n      dup1\n      0xf2fde38b\n      eq\n      tag_13\n      jumpi\n      jump(tag_2)\n    tag_14:\n      dup1\n      0x01e9d757\n      eq\n      tag_3\n      jumpi\n      dup1\n      0x218751b2\n      eq\n      tag_4\n      jumpi\n      dup1\n      0x59f99c53\n      eq\n      tag_5\n      jumpi\n      dup1\n      0x5e4eaee7\n      eq\n      tag_6\n      jumpi\n      dup1\n      0x6dd84ac1\n      eq\n      tag_7\n      jumpi\n    tag_2:\n      revert(0x00, 0x00)\n        /* \"C/curveAMO.sol\":1631:1659  uint256 public minMintAmount */\n    tag_3:\n      tag_15\n      tag_16\n      jump\t// in\n    tag_15:\n      mload(0x40)\n      tag_17\n      swap2\n      swap1\n      tag_18\n      jump\t// in\n    tag_17:\n      mload(0x40)\n      dup1\n      swap2\n      sub\n      swap1\n      return\n        /* \"C/curveAMO.sol\":1511:1538  ICurvePool public curvePool */\n    tag_4:\n      tag_19\n      tag_20\n      jump\t// in\n    tag_19:\n      mload(0x40)\n      tag_21\n      swap2\n      swap1\n      tag_22\n      jump\t// in\n    tag_21:\n      mload(0x40)\n      dup1\n      swap2\n      sub\n      swap1\n      return\n        /* \"C/curveAMO.sol\":3459:3742  function depositStablecoin(uint256 amount) external onlyOwner nonReentrant {... */\n    tag_5:\n      tag_23\n      0x04\n      dup1\n      calldatasize\n      sub\n      dup2\n      add\n      swap1\n      tag_24\n      swap2\n      swap1\n      tag_25\n      jump\t// in\n    tag_24:\n      tag_26\n      jump\t// in\n    tag_23:\n      stop\n        /* \"C/curveAMO.sol\":4747:4984  function withdrawInvested(uint256 liquidityAmount, uint256[2] calldata minAmounts) external onlyOwner nonReentrant {... */\n    tag_6:\n      tag_27\n      0x04\n      dup1\n      calldatasize\n      sub\n      dup2\n      add\n      swap1\n      tag_28\n      swap2\n      swap1\n      tag_29\n      jump\t// in\n    tag_28:\n      tag_30\n      jump\t// in\n    tag_27:\n      stop\n        /* \"C/curveAMO.sol\":3095:3265  function updateMinMintAmount(uint256 _minMintAmount) external onlyOwner {... */\n    tag_7:\n      tag_31\n      0x04\n      dup1\n      calldatasize\n      sub\n      dup2\n      add\n      swap1\n      tag_32\n      swap2\n      swap1\n      tag_25\n      jump\t// in\n    tag_32:\n      tag_33\n      jump\t// in\n    tag_31:\n      stop\n        /* \"@openzeppelin/contracts/access/Ownable.sol\":2293:2394  function renounceOwnership() public virtual onlyOwner {... */\n    tag_8:\n      tag_34\n      tag_35\n      jump\t// in\n    tag_34:\n      stop\n        /* \"C/curveAMO.sol\":2734:2950  function updatePool(ICurvePool _newPool) external onlyOwner {... */\n    tag_9:\n      tag_36\n      0x04\n      dup1\n      calldatasize\n      sub\n      dup2\n      add\n      swap1\n      tag_37\n      swap2\n      swap1\n      tag_38\n      jump\t// in\n    tag_37:\n      tag_39\n      jump\t// in\n    tag_36:\n      stop\n        /* \"@openzeppelin/contracts/access/Ownable.sol\":1638:1723  function owner() public view virtual returns (address) {... */\n    tag_10:\n      tag_40\n      tag_41\n      jump\t// in\n    tag_40:\n      mload(0x40)\n      tag_42\n      swap2\n      swap1\n      tag_43\n      jump\t// in\n    tag_42:\n      mload(0x40)\n      dup1\n      swap2\n      sub\n      swap1\n      return\n        /* \"C/curveAMO.sol\":3918:4521  function invest() external onlyOwner nonReentrant {... */\n    tag_11:\n      tag_44\n      tag_45\n      jump\t// in\n    tag_44:\n      stop\n        /* \"C/curveAMO.sol\":1424:1448  IERC20 public stablecoin */\n    tag_12:\n      tag_46\n      tag_47\n      jump\t// in\n    tag_46:\n      mload(0x40)\n      tag_48\n      swap2\n      swap1\n      tag_49\n      jump\t// in\n    tag_48:\n      mload(0x40)\n      dup1\n      swap2\n      sub\n      swap1\n      return\n        /* \"@openzeppelin/contracts/access/Ownable.sol\":2543:2758  function transferOwnership(address newOwner) public virtual onlyOwner {... */\n    tag_13:\n      tag_50\n      0x04\n      dup1\n      calldatasize\n      sub\n      dup2\n      add\n      swap1\n      tag_51\n      swap2\n      swap1\n      tag_52\n      jump\t// in\n    tag_51:\n      tag_53\n      jump\t// in\n    tag_50:\n      stop\n        /* \"C/curveAMO.sol\":1631:1659  uint256 public minMintAmount */\n    tag_16:\n      sload(0x04)\n      dup2\n      jump\t// out\n        /* \"C/curveAMO.sol\":1511:1538  ICurvePool public curvePool */\n    tag_20:\n      0x03\n      0x00\n      swap1\n      sload\n      swap1\n      0x0100\n      exp\n      swap1\n      div\n      0xffffffffffffffffffffffffffffffffffffffff\n      and\n      dup2\n      jump\t// out\n        /* \"C/curveAMO.sol\":3459:3742  function depositStablecoin(uint256 amount) external onlyOwner nonReentrant {... */\n    tag_26:\n        /* \"@openzeppelin/contracts/access/Ownable.sol\":1531:1544  _checkOwner() */\n      tag_55\n        /* \"@openzeppelin/contracts/access/Ownable.sol\":1531:1542  _checkOwner */\n      tag_56\n        /* \"@openzeppelin/contracts/access/Ownable.sol\":1531:1544  _checkOwner() */\n      jump\t// in\n    tag_55:\n        /* \"@openzeppelin/contracts/security/ReentrancyGuard.sol\":2261:2282  _nonReentrantBefore() */\n      tag_58\n        /* \"@openzeppelin/contracts/security/ReentrancyGuard.sol\":2261:2280  _nonReentrantBefore */\n      tag_59\n        /* \"@openzeppelin/contracts/security/ReentrancyGuard.sol\":2261:2282  _nonReentrantBefore() */\n      jump\t// in\n    tag_58:\n        /* \"C/curveAMO.sol\":3561:3562  0 */\n      0x00\n        /* \"C/curveAMO.sol\":3552:3558  amount */\n      dup2\n        /* \"C/curveAMO.sol\":3552:3562  amount > 0 */\n      gt\n        /* \"C/curveAMO.sol\":3544:3585  require(amount > 0, \"Amount must be > 0\") */\n      tag_61\n      jumpi\n      mload(0x40)\n      0x08c379a000000000000000000000000000000000000000000000000000000000\n      dup2\n      mstore\n      0x04\n      add\n      tag_62\n      swap1\n      tag_63\n      jump\t// in\n    tag_62:\n      mload(0x40)\n      dup1\n      swap2\n      sub\n      swap1\n      revert\n    tag_61:\n        /* \"C/curveAMO.sol\":3603:3613  stablecoin */\n      0x02\n      0x00\n      swap1\n      sload\n      swap1\n      0x0100\n      exp\n      swap1\n      div\n      0xffffffffffffffffffffffffffffffffffffffff\n      and\n        /* \"C/curveAMO.sol\":3603:3626  stablecoin.transferFrom */\n      0xffffffffffffffffffffffffffffffffffffffff\n      and\n      0x23b872dd\n        /* \"C/curveAMO.sol\":3627:3637  msg.sender */\n      caller\n        /* \"C/curveAMO.sol\":3647:3651  this */\n      address\n        /* \"C/curveAMO.sol\":3654:3660  amount */\n      dup5\n        /* \"C/curveAMO.sol\":3603:3661  stablecoin.transferFrom(msg.sender, address(this), amount) */\n      mload(0x40)\n      dup5\n      0xffffffff\n      and\n      0xe0\n      shl\n      dup2\n      mstore\n      0x04\n      add\n      tag_64\n      swap4\n      swap3\n      swap2\n      swap1\n      tag_65\n      jump\t// in\n    tag_64:\n      0x20\n      mload(0x40)\n      dup1\n      dup4\n      sub\n      dup2\n      0x00\n      dup8\n      gas\n      call\n      iszero\n      dup1\n      iszero\n      tag_67\n      jumpi\n      returndatacopy(0x00, 0x00, returndatasize)\n      revert(0x00, returndatasize)\n    tag_67:\n      pop\n      pop\n      pop\n      pop\n      mload(0x40)\n      returndatasize\n      not(0x1f)\n      0x1f\n      dup3\n      add\n      and\n      dup3\n      add\n      dup1\n      0x40\n      mstore\n      pop\n      dup2\n      add\n      swap1\n      tag_68\n      swap2\n      swap1\n      tag_69\n      jump\t// in\n    tag_68:\n        /* \"C/curveAMO.sol\":3595:3681  require(stablecoin.transferFrom(msg.sender, address(this), amount), \"Transfer failed\") */\n      tag_70\n      jumpi\n      mload(0x40)\n      0x08c379a000000000000000000000000000000000000000000000000000000000\n      dup2\n      mstore\n      0x04\n      add\n      tag_71\n      swap1\n      tag_72\n      jump\t// in\n    tag_71:\n      mload(0x40)\n      dup1\n      swap2\n      sub\n      swap1\n      revert\n    tag_70:\n        /* \"C/curveAMO.sol\":3716:3726  msg.sender */\n      caller\n        /* \"C/curveAMO.sol\":3696:3735  StablecoinDeposited(msg.sender, amount) */\n      0xffffffffffffffffffffffffffffffffffffffff\n      and\n      0x34bd8d27fd8224d934d60847620b61f621773145db194aacff8b7f3e9ae3b7c0\n        /* \"C/curveAMO.sol\":3728:3734  amount */\n      dup3\n        /* \"C/curveAMO.sol\":3696:3735  StablecoinDeposited(msg.sender, amount) */\n      mload(0x40)\n      tag_73\n      swap2\n      swap1\n      tag_18\n      jump\t// in\n    tag_73:\n      mload(0x40)\n      dup1\n      swap2\n      sub\n      swap1\n      log2\n        /* \"@openzeppelin/contracts/security/ReentrancyGuard.sol\":2303:2323  _nonReentrantAfter() */\n      tag_74\n        /* \"@openzeppelin/contracts/security/ReentrancyGuard.sol\":2303:2321  _nonReentrantAfter */\n      tag_75\n        /* \"@openzeppelin/contracts/security/ReentrancyGuard.sol\":2303:2323  _nonReentrantAfter() */\n      jump\t// in\n    tag_74:\n        /* \"C/curveAMO.sol\":3459:3742  function depositStablecoin(uint256 amount) external onlyOwner nonReentrant {... */\n      pop\n      jump\t// out\n        /* \"C/curveAMO.sol\":4747:4984  function withdrawInvested(uint256 liquidityAmount, uint256[2] calldata minAmounts) external onlyOwner nonReentrant {... */\n    tag_30:\n        /* \"@openzeppelin/contracts/access/Ownable.sol\":1531:1544  _checkOwner() */\n      tag_77\n        /* \"@openzeppelin/contracts/access/Ownable.sol\":1531:1542  _checkOwner */\n      tag_56\n        /* \"@openzeppelin/contracts/access/Ownable.sol\":1531:1544  _checkOwner() */\n      jump\t// in\n    tag_77:\n        /* \"@openzeppelin/contracts/security/ReentrancyGuard.sol\":2261:2282  _nonReentrantBefore() */\n      tag_79\n        /* \"@openzeppelin/contracts/security/ReentrancyGuard.sol\":2261:2280  _nonReentrantBefore */\n      tag_59\n        /* \"@openzeppelin/contracts/security/ReentrancyGuard.sol\":2261:2282  _nonReentrantBefore() */\n      jump\t// in\n    tag_79:\n        /* \"C/curveAMO.sol\":4872:4881  curvePool */\n      0x03\n      0x00\n      swap1\n      sload\n      swap1\n      0x0100\n      exp\n      swap1\n      div\n      0xffffffffffffffffffffffffffffffffffffffff\n      and\n        /* \"C/curveAMO.sol\":4872:4898  curvePool.remove_liquidity */\n      0xffffffffffffffffffffffffffffffffffffffff\n      and\n      0x5b36389c\n        /* \"C/curveAMO.sol\":4899:4914  liquidityAmount */\n      dup4\n        /* \"C/curveAMO.sol\":4916:4926  minAmounts */\n      dup4\n        /* \"C/curveAMO.sol\":4872:4927  curvePool.remove_liquidity(liquidityAmount, minAmounts) */\n      mload(0x40)\n      dup4\n      0xffffffff\n      and\n      0xe0\n      shl\n      dup2\n      mstore\n      0x04\n      add\n      tag_81\n      swap3\n      swap2\n      swap1\n      tag_82\n      jump\t// in\n    tag_81:\n      0x00\n      mload(0x40)\n      dup1\n      dup4\n      sub\n      dup2\n      0x00\n      dup8\n      dup1\n      extcodesize\n      iszero\n      dup1\n      iszero\n      tag_83\n      jumpi\n      revert(0x00, 0x00)\n    tag_83:\n      pop\n      gas\n      call\n      iszero\n      dup1\n      iszero\n      tag_85\n      jumpi\n      returndatacopy(0x00, 0x00, returndatasize)\n      revert(0x00, returndatasize)\n    tag_85:\n      pop\n      pop\n      pop\n      pop\n        /* \"C/curveAMO.sol\":4942:4977  LiquidityWithdrawn(liquidityAmount) */\n      0x73ce532f480864bd2fccd1bcdbb4c8151f02cd9450c4f3e5b834ef74503abdb2\n        /* \"C/curveAMO.sol\":4961:4976  liquidityAmount */\n      dup3\n        /* \"C/curveAMO.sol\":4942:4977  LiquidityWithdrawn(liquidityAmount) */\n      mload(0x40)\n      tag_86\n      swap2\n      swap1\n      tag_18\n      jump\t// in\n    tag_86:\n      mload(0x40)\n      dup1\n      swap2\n      sub\n      swap1\n      log1\n        /* \"@openzeppelin/contracts/security/ReentrancyGuard.sol\":2303:2323  _nonReentrantAfter() */\n      tag_87\n        /* \"@openzeppelin/contracts/security/ReentrancyGuard.sol\":2303:2321  _nonReentrantAfter */\n      tag_75\n        /* \"@openzeppelin/contracts/security/ReentrancyGuard.sol\":2303:2323  _nonReentrantAfter() */\n      jump\t// in\n    tag_87:\n        /* \"C/curveAMO.sol\":4747:4984  function withdrawInvested(uint256 liquidityAmount, uint256[2] calldata minAmounts) external onlyOwner nonReentrant {... */\n      pop\n      pop\n      jump\t// out\n        /* \"C/curveAMO.sol\":3095:3265  function updateMinMintAmount(uint256 _minMintAmount) external onlyOwner {... */\n    tag_33:\n        /* \"@openzeppelin/contracts/access/Ownable.sol\":1531:1544  _checkOwner() */\n      tag_89\n        /* \"@openzeppelin/contracts/access/Ownable.sol\":1531:1542  _checkOwner */\n      tag_56\n        /* \"@openzeppelin/contracts/access/Ownable.sol\":1531:1544  _checkOwner() */\n      jump\t// in\n    tag_89:\n        /* \"C/curveAMO.sol\":3193:3207  _minMintAmount */\n      dup1\n        /* \"C/curveAMO.sol\":3177:3190  minMintAmount */\n      0x04\n        /* \"C/curveAMO.sol\":3177:3207  minMintAmount = _minMintAmount */\n      dup2\n      swap1\n      sstore\n      pop\n        /* \"C/curveAMO.sol\":3222:3258  MinMintAmountUpdated(_minMintAmount) */\n      0xae98803c2c4b18aef1109a8fbee5391dcdfa538adbd1c7f138c8b58c191e7274\n        /* \"C/curveAMO.sol\":3243:3257  _minMintAmount */\n      dup2\n        /* \"C/curveAMO.sol\":3222:3258  MinMintAmountUpdated(_minMintAmount) */\n      mload(0x40)\n      tag_91\n      swap2\n      swap1\n      tag_18\n      jump\t// in\n    tag_91:\n      mload(0x40)\n      dup1\n      swap2\n      sub\n      swap1\n      log1\n        /* \"C/curveAMO.sol\":3095:3265  function updateMinMintAmount(uint256 _minMintAmount) external onlyOwner {... */\n      pop\n      jump\t// out\n        /* \"@openzeppelin/contracts/access/Ownable.sol\":2293:2394  function renounceOwnership() public virtual onlyOwner {... */\n    tag_35:\n        /* \"@openzeppelin/contracts/access/Ownable.sol\":1531:1544  _checkOwner() */\n      tag_93\n        /* \"@openzeppelin/contracts/access/Ownable.sol\":1531:1542  _checkOwner */\n      tag_56\n        /* \"@openzeppelin/contracts/access/Ownable.sol\":1531:1544  _checkOwner() */\n      jump\t// in\n    tag_93:\n        /* \"@openzeppelin/contracts/access/Ownable.sol\":2357:2387  _transferOwnership(address(0)) */\n      tag_95\n        /* \"@openzeppelin/contracts/access/Ownable.sol\":2384:2385  0 */\n      0x00\n        /* \"@openzeppelin/contracts/access/Ownable.sol\":2357:2375  _transferOwnership */\n      tag_96\n        /* \"@openzeppelin/contracts/access/Ownable.sol\":2357:2387  _transferOwnership(address(0)) */\n      jump\t// in\n    tag_95:\n        /* \"@openzeppelin/contracts/access/Ownable.sol\":2293:2394  function renounceOwnership() public virtual onlyOwner {... */\n      jump\t// out\n        /* \"C/curveAMO.sol\":2734:2950  function updatePool(ICurvePool _newPool) external onlyOwner {... */\n    tag_39:\n        /* \"@openzeppelin/contracts/access/Ownable.sol\":1531:1544  _checkOwner() */\n      tag_98\n        /* \"@openzeppelin/contracts/access/Ownable.sol\":1531:1542  _checkOwner */\n      tag_56\n        /* \"@openzeppelin/contracts/access/Ownable.sol\":1531:1544  _checkOwner() */\n      jump\t// in\n    tag_98:\n        /* \"C/curveAMO.sol\":2841:2842  0 */\n      0x00\n        /* \"C/curveAMO.sol\":2812:2843  address(_newPool) != address(0) */\n      0xffffffffffffffffffffffffffffffffffffffff\n      and\n        /* \"C/curveAMO.sol\":2820:2828  _newPool */\n      dup2\n        /* \"C/curveAMO.sol\":2812:2843  address(_newPool) != address(0) */\n      0xffffffffffffffffffffffffffffffffffffffff\n      and\n      sub\n        /* \"C/curveAMO.sol\":2804:2868  require(address(_newPool) != address(0), \"Invalid pool address\") */\n      tag_100\n      jumpi\n      mload(0x40)\n      0x08c379a000000000000000000000000000000000000000000000000000000000\n      dup2\n      mstore\n      0x04\n      add\n      tag_101\n      swap1\n      tag_102\n      jump\t// in\n    tag_101:\n      mload(0x40)\n      dup1\n      swap2\n      sub\n      swap1\n      revert\n    tag_100:\n        /* \"C/curveAMO.sol\":2890:2898  _newPool */\n      dup1\n        /* \"C/curveAMO.sol\":2878:2887  curvePool */\n      0x03\n      0x00\n        /* \"C/curveAMO.sol\":2878:2898  curvePool = _newPool */\n      0x0100\n      exp\n      dup2\n      sload\n      dup2\n      0xffffffffffffffffffffffffffffffffffffffff\n      mul\n      not\n      and\n      swap1\n      dup4\n      0xffffffffffffffffffffffffffffffffffffffff\n      and\n      mul\n      or\n      swap1\n      sstore\n      pop\n        /* \"C/curveAMO.sol\":2933:2941  _newPool */\n      dup1\n        /* \"C/curveAMO.sol\":2913:2943  PoolUpdated(address(_newPool)) */\n      0xffffffffffffffffffffffffffffffffffffffff\n      and\n      0x380cec482764ddef4f75351b5398e3e2bea99ba23e53a00d5521f569fb668e1f\n      mload(0x40)\n      mload(0x40)\n      dup1\n      swap2\n      sub\n      swap1\n      log2\n        /* \"C/curveAMO.sol\":2734:2950  function updatePool(ICurvePool _newPool) external onlyOwner {... */\n      pop\n      jump\t// out\n        /* \"@openzeppelin/contracts/access/Ownable.sol\":1638:1723  function owner() public view virtual returns (address) {... */\n    tag_41:\n        /* \"@openzeppelin/contracts/access/Ownable.sol\":1684:1691  address */\n      0x00\n        /* \"@openzeppelin/contracts/access/Ownable.sol\":1710:1716  _owner */\n      0x00\n      0x00\n      swap1\n      sload\n      swap1\n      0x0100\n      exp\n      swap1\n      div\n      0xffffffffffffffffffffffffffffffffffffffff\n      and\n        /* \"@openzeppelin/contracts/access/Ownable.sol\":1703:1716  return _owner */\n      swap1\n      pop\n        /* \"@openzeppelin/contracts/access/Ownable.sol\":1638:1723  function owner() public view virtual returns (address) {... */\n      swap1\n      jump\t// out\n        /* \"C/curveAMO.sol\":3918:4521  function invest() external onlyOwner nonReentrant {... */\n    tag_45:\n        /* \"@openzeppelin/contracts/access/Ownable.sol\":1531:1544  _checkOwner() */\n      tag_105\n        /* \"@openzeppelin/contracts/access/Ownable.sol\":1531:1542  _checkOwner */\n      tag_56\n        /* \"@openzeppelin/contracts/access/Ownable.sol\":1531:1544  _checkOwner() */\n      jump\t// in\n    tag_105:\n        /* \"@openzeppelin/contracts/security/ReentrancyGuard.sol\":2261:2282  _nonReentrantBefore() */\n      tag_107\n        /* \"@openzeppelin/contracts/security/ReentrancyGuard.sol\":2261:2280  _nonReentrantBefore */\n      tag_59\n        /* \"@openzeppelin/contracts/security/ReentrancyGuard.sol\":2261:2282  _nonReentrantBefore() */\n      jump\t// in\n    tag_107:\n        /* \"C/curveAMO.sol\":3978:3993  uint256 balance */\n      0x00\n        /* \"C/curveAMO.sol\":3996:4006  stablecoin */\n      0x02\n      0x00\n      swap1\n      sload\n      swap1\n      0x0100\n      exp\n      swap1\n      div\n      0xffffffffffffffffffffffffffffffffffffffff\n      and\n        /* \"C/curveAMO.sol\":3996:4016  stablecoin.balanceOf */\n      0xffffffffffffffffffffffffffffffffffffffff\n      and\n      0x70a08231\n        /* \"C/curveAMO.sol\":4025:4029  this */\n      address\n        /* \"C/curveAMO.sol\":3996:4031  stablecoin.balanceOf(address(this)) */\n      mload(0x40)\n      dup3\n      0xffffffff\n      and\n      0xe0\n      shl\n      dup2\n      mstore\n      0x04\n      add\n      tag_109\n      swap2\n      swap1\n      tag_43\n      jump\t// in\n    tag_109:\n      0x20\n      mload(0x40)\n      dup1\n      dup4\n      sub\n      dup2\n      dup7\n      gas\n      staticcall\n      iszero\n      dup1\n      iszero\n      tag_111\n      jumpi\n      returndatacopy(0x00, 0x00, returndatasize)\n      revert(0x00, returndatasize)\n    tag_111:\n      pop\n      pop\n      pop\n      pop\n      mload(0x40)\n      returndatasize\n      not(0x1f)\n      0x1f\n      dup3\n      add\n      and\n      dup3\n      add\n      dup1\n      0x40\n      mstore\n      pop\n      dup2\n      add\n      swap1\n      tag_112\n      swap2\n      swap1\n      tag_113\n      jump\t// in\n    tag_112:\n        /* \"C/curveAMO.sol\":3978:4031  uint256 balance = stablecoin.balanceOf(address(this)) */\n      swap1\n      pop\n        /* \"C/curveAMO.sol\":4059:4060  0 */\n      0x00\n        /* \"C/curveAMO.sol\":4049:4056  balance */\n      dup2\n        /* \"C/curveAMO.sol\":4049:4060  balance > 0 */\n      gt\n        /* \"C/curveAMO.sol\":4041:4088  require(balance > 0, \"No stablecoin to invest\") */\n      tag_114\n      jumpi\n      mload(0x40)\n      0x08c379a000000000000000000000000000000000000000000000000000000000\n      dup2\n      mstore\n      0x04\n      add\n      tag_115\n      swap1\n      tag_116\n      jump\t// in\n    tag_115:\n      mload(0x40)\n      dup1\n      swap2\n      sub\n      swap1\n      revert\n    tag_114:\n        /* \"C/curveAMO.sol\":4151:4161  stablecoin */\n      0x02\n      0x00\n      swap1\n      sload\n      swap1\n      0x0100\n      exp\n      swap1\n      div\n      0xffffffffffffffffffffffffffffffffffffffff\n      and\n        /* \"C/curveAMO.sol\":4151:4169  stablecoin.approve */\n      0xffffffffffffffffffffffffffffffffffffffff\n      and\n      0x095ea7b3\n        /* \"C/curveAMO.sol\":4178:4187  curvePool */\n      0x03\n      0x00\n      swap1\n      sload\n      swap1\n      0x0100\n      exp\n      swap1\n      div\n      0xffffffffffffffffffffffffffffffffffffffff\n      and\n        /* \"C/curveAMO.sol\":4190:4197  balance */\n      dup4\n        /* \"C/curveAMO.sol\":4151:4198  stablecoin.approve(address(curvePool), balance) */\n      mload(0x40)\n      dup4\n      0xffffffff\n      and\n      0xe0\n      shl\n      dup2\n      mstore\n      0x04\n      add\n      tag_117\n      swap3\n      swap2\n      swap1\n      tag_118\n      jump\t// in\n    tag_117:\n      0x20\n      mload(0x40)\n      dup1\n      dup4\n      sub\n      dup2\n      0x00\n      dup8\n      gas\n      call\n      iszero\n      dup1\n      iszero\n      tag_120\n      jumpi\n      returndatacopy(0x00, 0x00, returndatasize)\n      revert(0x00, returndatasize)\n    tag_120:\n      pop\n      pop\n      pop\n      pop\n      mload(0x40)\n      returndatasize\n      not(0x1f)\n      0x1f\n      dup3\n      add\n      and\n      dup3\n      add\n      dup1\n      0x40\n      mstore\n      pop\n      dup2\n      add\n      swap1\n      tag_121\n      swap2\n      swap1\n      tag_69\n      jump\t// in\n    tag_121:\n      pop\n        /* \"C/curveAMO.sol\":4258:4283  uint256[2] memory amounts */\n      tag_122\n      tag_123\n      jump\t// in\n    tag_122:\n        /* \"C/curveAMO.sol\":4306:4313  balance */\n      dup2\n        /* \"C/curveAMO.sol\":4293:4300  amounts */\n      dup2\n        /* \"C/curveAMO.sol\":4301:4302  0 */\n      0x00\n        /* \"C/curveAMO.sol\":4293:4303  amounts[0] */\n      0x02\n      dup2\n      lt\n      tag_124\n      jumpi\n      tag_125\n      tag_126\n      jump\t// in\n    tag_125:\n    tag_124:\n      0x20\n      mul\n      add\n        /* \"C/curveAMO.sol\":4293:4313  amounts[0] = balance */\n      dup2\n      dup2\n      mstore\n      pop\n      pop\n        /* \"C/curveAMO.sol\":4378:4379  0 */\n      0x00\n        /* \"C/curveAMO.sol\":4365:4372  amounts */\n      dup2\n        /* \"C/curveAMO.sol\":4373:4374  1 */\n      0x01\n        /* \"C/curveAMO.sol\":4365:4375  amounts[1] */\n      0x02\n      dup2\n      lt\n      tag_127\n      jumpi\n      tag_128\n      tag_126\n      jump\t// in\n    tag_128:\n    tag_127:\n      0x20\n      mul\n      add\n        /* \"C/curveAMO.sol\":4365:4379  amounts[1] = 0 */\n      dup2\n      dup2\n      mstore\n      pop\n      pop\n        /* \"C/curveAMO.sol\":4435:4444  curvePool */\n      0x03\n      0x00\n      swap1\n      sload\n      swap1\n      0x0100\n      exp\n      swap1\n      div\n      0xffffffffffffffffffffffffffffffffffffffff\n      and\n        /* \"C/curveAMO.sol\":4435:4458  curvePool.add_liquidity */\n      0xffffffffffffffffffffffffffffffffffffffff\n      and\n      0x0b4c7e4d\n        /* \"C/curveAMO.sol\":4459:4466  amounts */\n      dup3\n        /* \"C/curveAMO.sol\":4468:4481  minMintAmount */\n      sload(0x04)\n        /* \"C/curveAMO.sol\":4435:4482  curvePool.add_liquidity(amounts, minMintAmount) */\n      mload(0x40)\n      dup4\n      0xffffffff\n      and\n      0xe0\n      shl\n      dup2\n      mstore\n      0x04\n      add\n      tag_129\n      swap3\n      swap2\n      swap1\n      tag_130\n      jump\t// in\n    tag_129:\n      0x00\n      mload(0x40)\n      dup1\n      dup4\n      sub\n      dup2\n      0x00\n      dup8\n      dup1\n      extcodesize\n      iszero\n      dup1\n      iszero\n      tag_131\n      jumpi\n      revert(0x00, 0x00)\n    tag_131:\n      pop\n      gas\n      call\n      iszero\n      dup1\n      iszero\n      tag_133\n      jumpi\n      returndatacopy(0x00, 0x00, returndatasize)\n      revert(0x00, returndatasize)\n    tag_133:\n      pop\n      pop\n      pop\n      pop\n        /* \"C/curveAMO.sol\":4497:4514  Invested(balance) */\n      0xac9f7997c30b6a3cc9c74953898b5de154359339c7ec0d6d70ceb98e55db1a4b\n        /* \"C/curveAMO.sol\":4506:4513  balance */\n      dup3\n        /* \"C/curveAMO.sol\":4497:4514  Invested(balance) */\n      mload(0x40)\n      tag_134\n      swap2\n      swap1\n      tag_18\n      jump\t// in\n    tag_134:\n      mload(0x40)\n      dup1\n      swap2\n      sub\n      swap1\n      log1\n        /* \"C/curveAMO.sol\":3968:4521  {... */\n      pop\n      pop\n        /* \"@openzeppelin/contracts/security/ReentrancyGuard.sol\":2303:2323  _nonReentrantAfter() */\n      tag_135\n        /* \"@openzeppelin/contracts/security/ReentrancyGuard.sol\":2303:2321  _nonReentrantAfter */\n      tag_75\n        /* \"@openzeppelin/contracts/security/ReentrancyGuard.sol\":2303:2323  _nonReentrantAfter() */\n      jump\t// in\n    tag_135:\n        /* \"C/curveAMO.sol\":3918:4521  function invest() external onlyOwner nonReentrant {... */\n      jump\t// out\n        /* \"C/curveAMO.sol\":1424:1448  IERC20 public stablecoin */\n    tag_47:\n      0x02\n      0x00\n      swap1\n      sload\n      swap1\n      0x0100\n      exp\n      swap1\n      div\n      0xffffffffffffffffffffffffffffffffffffffff\n      and\n      dup2\n      jump\t// out\n        /* \"@openzeppelin/contracts/access/Ownable.sol\":2543:2758  function transferOwnership(address newOwner) public virtual onlyOwner {... */\n    tag_53:\n        /* \"@openzeppelin/contracts/access/Ownable.sol\":1531:1544  _checkOwner() */\n      tag_137\n        /* \"@openzeppelin/contracts/access/Ownable.sol\":1531:1542  _checkOwner */\n      tag_56\n        /* \"@openzeppelin/contracts/access/Ownable.sol\":1531:1544  _checkOwner() */\n      jump\t// in\n    tag_137:\n        /* \"@openzeppelin/contracts/access/Ownable.sol\":2647:2648  0 */\n      0x00\n        /* \"@openzeppelin/contracts/access/Ownable.sol\":2627:2649  newOwner == address(0) */\n      0xffffffffffffffffffffffffffffffffffffffff\n      and\n        /* \"@openzeppelin/contracts/access/Ownable.sol\":2627:2635  newOwner */\n      dup2\n        /* \"@openzeppelin/contracts/access/Ownable.sol\":2627:2649  newOwner == address(0) */\n      0xffffffffffffffffffffffffffffffffffffffff\n      and\n      sub\n        /* \"@openzeppelin/contracts/access/Ownable.sol\":2623:2714  if (newOwner == address(0)) {... */\n      tag_139\n      jumpi\n        /* \"@openzeppelin/contracts/access/Ownable.sol\":2700:2701  0 */\n      0x00\n        /* \"@openzeppelin/contracts/access/Ownable.sol\":2672:2703  OwnableInvalidOwner(address(0)) */\n      mload(0x40)\n      0x1e4fbdf700000000000000000000000000000000000000000000000000000000\n      dup2\n      mstore\n      0x04\n      add\n      tag_140\n      swap2\n      swap1\n      tag_43\n      jump\t// in\n    tag_140:\n      mload(0x40)\n      dup1\n      swap2\n      sub\n      swap1\n      revert\n        /* \"@openzeppelin/contracts/access/Ownable.sol\":2623:2714  if (newOwner == address(0)) {... */\n    tag_139:\n        /* \"@openzeppelin/contracts/access/Ownable.sol\":2723:2751  _transferOwnership(newOwner) */\n      tag_141\n        /* \"@openzeppelin/contracts/access/Ownable.sol\":2742:2750  newOwner */\n      dup2\n        /* \"@openzeppelin/contracts/access/Ownable.sol\":2723:2741  _transferOwnership */\n      tag_96\n        /* \"@openzeppelin/contracts/access/Ownable.sol\":2723:2751  _transferOwnership(newOwner) */\n      jump\t// in\n    tag_141:\n        /* \"@openzeppelin/contracts/access/Ownable.sol\":2543:2758  function transferOwnership(address newOwner) public virtual onlyOwner {... */\n      pop\n      jump\t// out\n        /* \"@openzeppelin/contracts/access/Ownable.sol\":1796:1958  function _checkOwner() internal view virtual {... */\n    tag_56:\n        /* \"@openzeppelin/contracts/access/Ownable.sol\":1866:1878  _msgSender() */\n      tag_143\n        /* \"@openzeppelin/contracts/access/Ownable.sol\":1866:1876  _msgSender */\n      tag_144\n        /* \"@openzeppelin/contracts/access/Ownable.sol\":1866:1878  _msgSender() */\n      jump\t// in\n    tag_143:\n        /* \"@openzeppelin/contracts/access/Ownable.sol\":1855:1878  owner() != _msgSender() */\n      0xffffffffffffffffffffffffffffffffffffffff\n      and\n        /* \"@openzeppelin/contracts/access/Ownable.sol\":1855:1862  owner() */\n      tag_145\n        /* \"@openzeppelin/contracts/access/Ownable.sol\":1855:1860  owner */\n      tag_41\n        /* \"@openzeppelin/contracts/access/Ownable.sol\":1855:1862  owner() */\n      jump\t// in\n    tag_145:\n        /* \"@openzeppelin/contracts/access/Ownable.sol\":1855:1878  owner() != _msgSender() */\n      0xffffffffffffffffffffffffffffffffffffffff\n      and\n      eq\n        /* \"@openzeppelin/contracts/access/Ownable.sol\":1851:1952  if (owner() != _msgSender()) {... */\n      tag_146\n      jumpi\n        /* \"@openzeppelin/contracts/access/Ownable.sol\":1928:1940  _msgSender() */\n      tag_147\n        /* \"@openzeppelin/contracts/access/Ownable.sol\":1928:1938  _msgSender */\n      tag_144\n        /* \"@openzeppelin/contracts/access/Ownable.sol\":1928:1940  _msgSender() */\n      jump\t// in\n    tag_147:\n        /* \"@openzeppelin/contracts/access/Ownable.sol\":1901:1941  OwnableUnauthorizedAccount(_msgSender()) */\n      mload(0x40)\n      0x118cdaa700000000000000000000000000000000000000000000000000000000\n      dup2\n      mstore\n      0x04\n      add\n      tag_148\n      swap2\n      swap1\n      tag_43\n      jump\t// in\n    tag_148:\n      mload(0x40)\n      dup1\n      swap2\n      sub\n      swap1\n      revert\n        /* \"@openzeppelin/contracts/access/Ownable.sol\":1851:1952  if (owner() != _msgSender()) {... */\n    tag_146:\n        /* \"@openzeppelin/contracts/access/Ownable.sol\":1796:1958  function _checkOwner() internal view virtual {... */\n      jump\t// out\n        /* \"@openzeppelin/contracts/security/ReentrancyGuard.sol\":2336:2623  function _nonReentrantBefore() private {... */\n    tag_59:\n        /* \"@openzeppelin/contracts/security/ReentrancyGuard.sol\":1759:1760  2 */\n      0x02\n        /* \"@openzeppelin/contracts/security/ReentrancyGuard.sol\":2468:2475  _status */\n      sload(0x01)\n        /* \"@openzeppelin/contracts/security/ReentrancyGuard.sol\":2468:2487  _status != _ENTERED */\n      sub\n        /* \"@openzeppelin/contracts/security/ReentrancyGuard.sol\":2460:2523  require(_status != _ENTERED, \"ReentrancyGuard: reentrant call\") */\n      tag_150\n      jumpi\n      mload(0x40)\n      0x08c379a000000000000000000000000000000000000000000000000000000000\n      dup2\n      mstore\n      0x04\n      add\n      tag_151\n      swap1\n      tag_152\n      jump\t// in\n    tag_151:\n      mload(0x40)\n      dup1\n      swap2\n      sub\n      swap1\n      revert\n    tag_150:\n        /* \"@openzeppelin/contracts/security/ReentrancyGuard.sol\":1759:1760  2 */\n      0x02\n        /* \"@openzeppelin/contracts/security/ReentrancyGuard.sol\":2598:2605  _status */\n      0x01\n        /* \"@openzeppelin/contracts/security/ReentrancyGuard.sol\":2598:2616  _status = _ENTERED */\n      dup2\n      swap1\n      sstore\n      pop\n        /* \"@openzeppelin/contracts/security/ReentrancyGuard.sol\":2336:2623  function _nonReentrantBefore() private {... */\n      jump\t// out\n        /* \"@openzeppelin/contracts/security/ReentrancyGuard.sol\":2629:2838  function _nonReentrantAfter() private {... */\n    tag_75:\n        /* \"@openzeppelin/contracts/security/ReentrancyGuard.sol\":1716:1717  1 */\n      0x01\n        /* \"@openzeppelin/contracts/security/ReentrancyGuard.sol\":2809:2816  _status */\n      dup1\n        /* \"@openzeppelin/contracts/security/ReentrancyGuard.sol\":2809:2831  _status = _NOT_ENTERED */\n      dup2\n      swap1\n      sstore\n      pop\n        /* \"@openzeppelin/contracts/security/ReentrancyGuard.sol\":2629:2838  function _nonReentrantAfter() private {... */\n      jump\t// out\n        /* \"@openzeppelin/contracts/access/Ownable.sol\":2912:3099  function _transferOwnership(address newOwner) internal virtual {... */\n    tag_96:\n        /* \"@openzeppelin/contracts/access/Ownable.sol\":2985:3001  address oldOwner */\n      0x00\n        /* \"@openzeppelin/contracts/access/Ownable.sol\":3004:3010  _owner */\n      0x00\n      0x00\n      swap1\n      sload\n      swap1\n      0x0100\n      exp\n      swap1\n      div\n      0xffffffffffffffffffffffffffffffffffffffff\n      and\n        /* \"@openzeppelin/contracts/access/Ownable.sol\":2985:3010  address oldOwner = _owner */\n      swap1\n      pop\n        /* \"@openzeppelin/contracts/access/Ownable.sol\":3029:3037  newOwner */\n      dup2\n        /* \"@openzeppelin/contracts/access/Ownable.sol\":3020:3026  _owner */\n      0x00\n      0x00\n        /* \"@openzeppelin/contracts/access/Ownable.sol\":3020:3037  _owner = newOwner */\n      0x0100\n      exp\n      dup2\n      sload\n      dup2\n      0xffffffffffffffffffffffffffffffffffffffff\n      mul\n      not\n      and\n      swap1\n      dup4\n      0xffffffffffffffffffffffffffffffffffffffff\n      and\n      mul\n      or\n      swap1\n      sstore\n      pop\n        /* \"@openzeppelin/contracts/access/Ownable.sol\":3083:3091  newOwner */\n      dup2\n        /* \"@openzeppelin/contracts/access/Ownable.sol\":3052:3092  OwnershipTransferred(oldOwner, newOwner) */\n      0xffffffffffffffffffffffffffffffffffffffff\n      and\n        /* \"@openzeppelin/contracts/access/Ownable.sol\":3073:3081  oldOwner */\n      dup2\n        /* \"@openzeppelin/contracts/access/Ownable.sol\":3052:3092  OwnershipTransferred(oldOwner, newOwner) */\n      0xffffffffffffffffffffffffffffffffffffffff\n      and\n      0x8be0079c531659141344cd1fd0a4f28419497f9722a3daafe3b4186f6b6457e0\n      mload(0x40)\n      mload(0x40)\n      dup1\n      swap2\n      sub\n      swap1\n      log3\n        /* \"@openzeppelin/contracts/access/Ownable.sol\":2975:3099  {... */\n      pop\n        /* \"@openzeppelin/contracts/access/Ownable.sol\":2912:3099  function _transferOwnership(address newOwner) internal virtual {... */\n      pop\n      jump\t// out\n        /* \"@openzeppelin/contracts/utils/Context.sol\":656:752  function _msgSender() internal view virtual returns (address) {... */\n    tag_144:\n        /* \"@openzeppelin/contracts/utils/Context.sol\":709:716  address */\n      0x00\n        /* \"@openzeppelin/contracts/utils/Context.sol\":735:745  msg.sender */\n      caller\n        /* \"@openzeppelin/contracts/utils/Context.sol\":728:745  return msg.sender */\n      swap1\n      pop\n        /* \"@openzeppelin/contracts/utils/Context.sol\":656:752  function _msgSender() internal view virtual returns (address) {... */\n      swap1\n      jump\t// out\n    tag_123:\n      mload(0x40)\n      dup1\n      0x40\n      add\n      0x40\n      mstore\n      dup1\n      0x02\n      swap1\n      0x20\n      dup3\n      mul\n      dup1\n      calldatasize\n      dup4\n      calldatacopy\n      dup1\n      dup3\n      add\n      swap2\n      pop\n      pop\n      swap1\n      pop\n      pop\n      swap1\n      jump\t// out\n        /* \"#utility.yul\":7:84   */\n    tag_156:\n        /* \"#utility.yul\":44:51   */\n      0x00\n        /* \"#utility.yul\":73:78   */\n      dup2\n        /* \"#utility.yul\":62:78   */\n      swap1\n      pop\n        /* \"#utility.yul\":7:84   */\n      swap2\n      swap1\n      pop\n      jump\t// out\n        /* \"#utility.yul\":90:208   */\n    tag_157:\n        /* \"#utility.yul\":177:201   */\n      tag_207\n        /* \"#utility.yul\":195:200   */\n      dup2\n        /* \"#utility.yul\":177:201   */\n      tag_156\n      jump\t// in\n    tag_207:\n        /* \"#utility.yul\":172:175   */\n      dup3\n        /* \"#utility.yul\":165:202   */\n      mstore\n        /* \"#utility.yul\":90:208   */\n      pop\n      pop\n      jump\t// out\n        /* \"#utility.yul\":214:436   */\n    tag_18:\n        /* \"#utility.yul\":307:311   */\n      0x00\n        /* \"#utility.yul\":345:347   */\n      0x20\n        /* \"#utility.yul\":334:343   */\n      dup3\n        /* \"#utility.yul\":330:348   */\n      add\n        /* \"#utility.yul\":322:348   */\n      swap1\n      pop\n        /* \"#utility.yul\":358:429   */\n      tag_209\n        /* \"#utility.yul\":426:427   */\n      0x00\n        /* \"#utility.yul\":415:424   */\n      dup4\n        /* \"#utility.yul\":411:428   */\n      add\n        /* \"#utility.yul\":402:408   */\n      dup5\n        /* \"#utility.yul\":358:429   */\n      tag_157\n      jump\t// in\n    tag_209:\n        /* \"#utility.yul\":214:436   */\n      swap3\n      swap2\n      pop\n      pop\n      jump\t// out\n        /* \"#utility.yul\":442:568   */\n    tag_158:\n        /* \"#utility.yul\":479:486   */\n      0x00\n        /* \"#utility.yul\":519:561   */\n      0xffffffffffffffffffffffffffffffffffffffff\n        /* \"#utility.yul\":512:517   */\n      dup3\n        /* \"#utility.yul\":508:562   */\n      and\n        /* \"#utility.yul\":497:562   */\n      swap1\n      pop\n        /* \"#utility.yul\":442:568   */\n      swap2\n      swap1\n      pop\n      jump\t// out\n        /* \"#utility.yul\":574:634   */\n    tag_159:\n        /* \"#utility.yul\":602:605   */\n      0x00\n        /* \"#utility.yul\":623:628   */\n      dup2\n        /* \"#utility.yul\":616:628   */\n      swap1\n      pop\n        /* \"#utility.yul\":574:634   */\n      swap2\n      swap1\n      pop\n      jump\t// out\n        /* \"#utility.yul\":640:782   */\n    tag_160:\n        /* \"#utility.yul\":690:699   */\n      0x00\n        /* \"#utility.yul\":723:776   */\n      tag_213\n        /* \"#utility.yul\":741:775   */\n      tag_214\n        /* \"#utility.yul\":750:774   */\n      tag_215\n        /* \"#utility.yul\":768:773   */\n      dup5\n        /* \"#utility.yul\":750:774   */\n      tag_158\n      jump\t// in\n    tag_215:\n        /* \"#utility.yul\":741:775   */\n      tag_159\n      jump\t// in\n    tag_214:\n        /* \"#utility.yul\":723:776   */\n      tag_158\n      jump\t// in\n    tag_213:\n        /* \"#utility.yul\":710:776   */\n      swap1\n      pop\n        /* \"#utility.yul\":640:782   */\n      swap2\n      swap1\n      pop\n      jump\t// out\n        /* \"#utility.yul\":788:914   */\n    tag_161:\n        /* \"#utility.yul\":838:847   */\n      0x00\n        /* \"#utility.yul\":871:908   */\n      tag_217\n        /* \"#utility.yul\":902:907   */\n      dup3\n        /* \"#utility.yul\":871:908   */\n      tag_160\n      jump\t// in\n    tag_217:\n        /* \"#utility.yul\":858:908   */\n      swap1\n      pop\n        /* \"#utility.yul\":788:914   */\n      swap2\n      swap1\n      pop\n      jump\t// out\n        /* \"#utility.yul\":920:1064   */\n    tag_162:\n        /* \"#utility.yul\":988:997   */\n      0x00\n        /* \"#utility.yul\":1021:1058   */\n      tag_219\n        /* \"#utility.yul\":1052:1057   */\n      dup3\n        /* \"#utility.yul\":1021:1058   */\n      tag_161\n      jump\t// in\n    tag_219:\n        /* \"#utility.yul\":1008:1058   */\n      swap1\n      pop\n        /* \"#utility.yul\":920:1064   */\n      swap2\n      swap1\n      pop\n      jump\t// out\n        /* \"#utility.yul\":1070:1237   */\n    tag_163:\n        /* \"#utility.yul\":1175:1230   */\n      tag_221\n        /* \"#utility.yul\":1224:1229   */\n      dup2\n        /* \"#utility.yul\":1175:1230   */\n      tag_162\n      jump\t// in\n    tag_221:\n        /* \"#utility.yul\":1170:1173   */\n      dup3\n        /* \"#utility.yul\":1163:1231   */\n      mstore\n        /* \"#utility.yul\":1070:1237   */\n      pop\n      pop\n      jump\t// out\n        /* \"#utility.yul\":1243:1501   */\n    tag_22:\n        /* \"#utility.yul\":1354:1358   */\n      0x00\n        /* \"#utility.yul\":1392:1394   */\n      0x20\n        /* \"#utility.yul\":1381:1390   */\n      dup3\n        /* \"#utility.yul\":1377:1395   */\n      add\n        /* \"#utility.yul\":1369:1395   */\n      swap1\n      pop\n        /* \"#utility.yul\":1405:1494   */\n      tag_223\n        /* \"#utility.yul\":1491:1492   */\n      0x00\n        /* \"#utility.yul\":1480:1489   */\n      dup4\n        /* \"#utility.yul\":1476:1493   */\n      add\n        /* \"#utility.yul\":1467:1473   */\n      dup5\n        /* \"#utility.yul\":1405:1494   */\n      tag_163\n      jump\t// in\n    tag_223:\n        /* \"#utility.yul\":1243:1501   */\n      swap3\n      swap2\n      pop\n      pop\n      jump\t// out\n        /* \"#utility.yul\":1588:1705   */\n    tag_165:\n        /* \"#utility.yul\":1697:1698   */\n      0x00\n        /* \"#utility.yul\":1694:1695   */\n      0x00\n        /* \"#utility.yul\":1687:1699   */\n      revert\n        /* \"#utility.yul\":1834:1956   */\n    tag_167:\n        /* \"#utility.yul\":1907:1931   */\n      tag_228\n        /* \"#utility.yul\":1925:1930   */\n      dup2\n        /* \"#utility.yul\":1907:1931   */\n      tag_156\n      jump\t// in\n    tag_228:\n        /* \"#utility.yul\":1900:1905   */\n      dup2\n        /* \"#utility.yul\":1897:1932   */\n      eq\n        /* \"#utility.yul\":1887:1950   */\n      tag_229\n      jumpi\n        /* \"#utility.yul\":1946:1947   */\n      0x00\n        /* \"#utility.yul\":1943:1944   */\n      0x00\n        /* \"#utility.yul\":1936:1948   */\n      revert\n        /* \"#utility.yul\":1887:1950   */\n    tag_229:\n        /* \"#utility.yul\":1834:1956   */\n      pop\n      jump\t// out\n        /* \"#utility.yul\":1962:2101   */\n    tag_168:\n        /* \"#utility.yul\":2008:2013   */\n      0x00\n        /* \"#utility.yul\":2046:2052   */\n      dup2\n        /* \"#utility.yul\":2033:2053   */\n      calldataload\n        /* \"#utility.yul\":2024:2053   */\n      swap1\n      pop\n        /* \"#utility.yul\":2062:2095   */\n      tag_231\n        /* \"#utility.yul\":2089:2094   */\n      dup2\n        /* \"#utility.yul\":2062:2095   */\n      tag_167\n      jump\t// in\n    tag_231:\n        /* \"#utility.yul\":1962:2101   */\n      swap3\n      swap2\n      pop\n      pop\n      jump\t// out\n        /* \"#utility.yul\":2107:2436   */\n    tag_25:\n        /* \"#utility.yul\":2166:2172   */\n      0x00\n        /* \"#utility.yul\":2215:2217   */\n      0x20\n        /* \"#utility.yul\":2203:2212   */\n      dup3\n        /* \"#utility.yul\":2194:2201   */\n      dup5\n        /* \"#utility.yul\":2190:2213   */\n      sub\n        /* \"#utility.yul\":2186:2218   */\n      slt\n        /* \"#utility.yul\":2183:2302   */\n      iszero\n      tag_233\n      jumpi\n        /* \"#utility.yul\":2221:2300   */\n      tag_234\n      tag_165\n      jump\t// in\n    tag_234:\n        /* \"#utility.yul\":2183:2302   */\n    tag_233:\n        /* \"#utility.yul\":2341:2342   */\n      0x00\n        /* \"#utility.yul\":2366:2419   */\n      tag_235\n        /* \"#utility.yul\":2411:2418   */\n      dup5\n        /* \"#utility.yul\":2402:2408   */\n      dup3\n        /* \"#utility.yul\":2391:2400   */\n      dup6\n        /* \"#utility.yul\":2387:2409   */\n      add\n        /* \"#utility.yul\":2366:2419   */\n      tag_168\n      jump\t// in\n    tag_235:\n        /* \"#utility.yul\":2356:2419   */\n      swap2\n      pop\n        /* \"#utility.yul\":2312:2429   */\n      pop\n        /* \"#utility.yul\":2107:2436   */\n      swap3\n      swap2\n      pop\n      pop\n      jump\t// out\n        /* \"#utility.yul\":2442:2559   */\n    tag_169:\n        /* \"#utility.yul\":2551:2552   */\n      0x00\n        /* \"#utility.yul\":2548:2549   */\n      0x00\n        /* \"#utility.yul\":2541:2553   */\n      revert\n        /* \"#utility.yul\":2583:2832   */\n    tag_170:\n        /* \"#utility.yul\":2654:2662   */\n      0x00\n        /* \"#utility.yul\":2685:2691   */\n      dup2\n        /* \"#utility.yul\":2673:2691   */\n      swap1\n      pop\n        /* \"#utility.yul\":2738:2741   */\n      dup3\n        /* \"#utility.yul\":2730:2734   */\n      0x20\n        /* \"#utility.yul\":2724:2728   */\n      0x02\n        /* \"#utility.yul\":2720:2735   */\n      mul\n        /* \"#utility.yul\":2710:2718   */\n      dup3\n        /* \"#utility.yul\":2706:2736   */\n      add\n        /* \"#utility.yul\":2703:2742   */\n      gt\n        /* \"#utility.yul\":2700:2826   */\n      iszero\n      tag_238\n      jumpi\n        /* \"#utility.yul\":2745:2824   */\n      tag_239\n      tag_169\n      jump\t// in\n    tag_239:\n        /* \"#utility.yul\":2700:2826   */\n    tag_238:\n        /* \"#utility.yul\":2583:2832   */\n      swap3\n      swap2\n      pop\n      pop\n      jump\t// out\n        /* \"#utility.yul\":2838:3362   */\n    tag_29:\n        /* \"#utility.yul\":2931:2937   */\n      0x00\n        /* \"#utility.yul\":2939:2945   */\n      0x00\n        /* \"#utility.yul\":2988:2990   */\n      0x60\n        /* \"#utility.yul\":2976:2985   */\n      dup4\n        /* \"#utility.yul\":2967:2974   */\n      dup6\n        /* \"#utility.yul\":2963:2986   */\n      sub\n        /* \"#utility.yul\":2959:2991   */\n      slt\n        /* \"#utility.yul\":2956:3075   */\n      iszero\n      tag_241\n      jumpi\n        /* \"#utility.yul\":2994:3073   */\n      tag_242\n      tag_165\n      jump\t// in\n    tag_242:\n        /* \"#utility.yul\":2956:3075   */\n    tag_241:\n        /* \"#utility.yul\":3114:3115   */\n      0x00\n        /* \"#utility.yul\":3139:3192   */\n      tag_243\n        /* \"#utility.yul\":3184:3191   */\n      dup6\n        /* \"#utility.yul\":3175:3181   */\n      dup3\n        /* \"#utility.yul\":3164:3173   */\n      dup7\n        /* \"#utility.yul\":3160:3182   */\n      add\n        /* \"#utility.yul\":3139:3192   */\n      tag_168\n      jump\t// in\n    tag_243:\n        /* \"#utility.yul\":3129:3192   */\n      swap3\n      pop\n        /* \"#utility.yul\":3085:3202   */\n      pop\n        /* \"#utility.yul\":3241:3243   */\n      0x20\n        /* \"#utility.yul\":3267:3345   */\n      tag_244\n        /* \"#utility.yul\":3337:3344   */\n      dup6\n        /* \"#utility.yul\":3328:3334   */\n      dup3\n        /* \"#utility.yul\":3317:3326   */\n      dup7\n        /* \"#utility.yul\":3313:3335   */\n      add\n        /* \"#utility.yul\":3267:3345   */\n      tag_170\n      jump\t// in\n    tag_244:\n        /* \"#utility.yul\":3257:3345   */\n      swap2\n      pop\n        /* \"#utility.yul\":3212:3355   */\n      pop\n        /* \"#utility.yul\":2838:3362   */\n      swap3\n      pop\n      swap3\n      swap1\n      pop\n      jump\t// out\n        /* \"#utility.yul\":3368:3464   */\n    tag_171:\n        /* \"#utility.yul\":3405:3412   */\n      0x00\n        /* \"#utility.yul\":3434:3458   */\n      tag_246\n        /* \"#utility.yul\":3452:3457   */\n      dup3\n        /* \"#utility.yul\":3434:3458   */\n      tag_158\n      jump\t// in\n    tag_246:\n        /* \"#utility.yul\":3423:3458   */\n      swap1\n      pop\n        /* \"#utility.yul\":3368:3464   */\n      swap2\n      swap1\n      pop\n      jump\t// out\n        /* \"#utility.yul\":3470:3584   */\n    tag_172:\n        /* \"#utility.yul\":3525:3532   */\n      0x00\n        /* \"#utility.yul\":3554:3578   */\n      tag_248\n        /* \"#utility.yul\":3572:3577   */\n      dup3\n        /* \"#utility.yul\":3554:3578   */\n      tag_171\n      jump\t// in\n    tag_248:\n        /* \"#utility.yul\":3543:3578   */\n      swap1\n      pop\n        /* \"#utility.yul\":3470:3584   */\n      swap2\n      swap1\n      pop\n      jump\t// out\n        /* \"#utility.yul\":3590:3748   */\n    tag_173:\n        /* \"#utility.yul\":3681:3723   */\n      tag_250\n        /* \"#utility.yul\":3717:3722   */\n      dup2\n        /* \"#utility.yul\":3681:3723   */\n      tag_172\n      jump\t// in\n    tag_250:\n        /* \"#utility.yul\":3674:3679   */\n      dup2\n        /* \"#utility.yul\":3671:3724   */\n      eq\n        /* \"#utility.yul\":3661:3742   */\n      tag_251\n      jumpi\n        /* \"#utility.yul\":3738:3739   */\n      0x00\n        /* \"#utility.yul\":3735:3736   */\n      0x00\n        /* \"#utility.yul\":3728:3740   */\n      revert\n        /* \"#utility.yul\":3661:3742   */\n    tag_251:\n        /* \"#utility.yul\":3590:3748   */\n      pop\n      jump\t// out\n        /* \"#utility.yul\":3754:3929   */\n    tag_174:\n        /* \"#utility.yul\":3818:3823   */\n      0x00\n        /* \"#utility.yul\":3856:3862   */\n      dup2\n        /* \"#utility.yul\":3843:3863   */\n      calldataload\n        /* \"#utility.yul\":3834:3863   */\n      swap1\n      pop\n        /* \"#utility.yul\":3872:3923   */\n      tag_253\n        /* \"#utility.yul\":3917:3922   */\n      dup2\n        /* \"#utility.yul\":3872:3923   */\n      tag_173\n      jump\t// in\n    tag_253:\n        /* \"#utility.yul\":3754:3929   */\n      swap3\n      swap2\n      pop\n      pop\n      jump\t// out\n        /* \"#utility.yul\":3935:4300   */\n    tag_38:\n        /* \"#utility.yul\":4012:4018   */\n      0x00\n        /* \"#utility.yul\":4061:4063   */\n      0x20\n        /* \"#utility.yul\":4049:4058   */\n      dup3\n        /* \"#utility.yul\":4040:4047   */\n      dup5\n        /* \"#utility.yul\":4036:4059   */\n      sub\n        /* \"#utility.yul\":4032:4064   */\n      slt\n        /* \"#utility.yul\":4029:4148   */\n      iszero\n      tag_255\n      jumpi\n        /* \"#utility.yul\":4067:4146   */\n      tag_256\n      tag_165\n      jump\t// in\n    tag_256:\n        /* \"#utility.yul\":4029:4148   */\n    tag_255:\n        /* \"#utility.yul\":4187:4188   */\n      0x00\n        /* \"#utility.yul\":4212:4283   */\n      tag_257\n        /* \"#utility.yul\":4275:4282   */\n      dup5\n        /* \"#utility.yul\":4266:4272   */\n      dup3\n        /* \"#utility.yul\":4255:4264   */\n      dup6\n        /* \"#utility.yul\":4251:4273   */\n      add\n        /* \"#utility.yul\":4212:4283   */\n      tag_174\n      jump\t// in\n    tag_257:\n        /* \"#utility.yul\":4202:4283   */\n      swap2\n      pop\n        /* \"#utility.yul\":4158:4293   */\n      pop\n        /* \"#utility.yul\":3935:4300   */\n      swap3\n      swap2\n      pop\n      pop\n      jump\t// out\n        /* \"#utility.yul\":4306:4424   */\n    tag_175:\n        /* \"#utility.yul\":4393:4417   */\n      tag_259\n        /* \"#utility.yul\":4411:4416   */\n      dup2\n        /* \"#utility.yul\":4393:4417   */\n      tag_171\n      jump\t// in\n    tag_259:\n        /* \"#utility.yul\":4388:4391   */\n      dup3\n        /* \"#utility.yul\":4381:4418   */\n      mstore\n        /* \"#utility.yul\":4306:4424   */\n      pop\n      pop\n      jump\t// out\n        /* \"#utility.yul\":4430:4652   */\n    tag_43:\n        /* \"#utility.yul\":4523:4527   */\n      0x00\n        /* \"#utility.yul\":4561:4563   */\n      0x20\n        /* \"#utility.yul\":4550:4559   */\n      dup3\n        /* \"#utility.yul\":4546:4564   */\n      add\n        /* \"#utility.yul\":4538:4564   */\n      swap1\n      pop\n        /* \"#utility.yul\":4574:4645   */\n      tag_261\n        /* \"#utility.yul\":4642:4643   */\n      0x00\n        /* \"#utility.yul\":4631:4640   */\n      dup4\n        /* \"#utility.yul\":4627:4644   */\n      add\n        /* \"#utility.yul\":4618:4624   */\n      dup5\n        /* \"#utility.yul\":4574:4645   */\n      tag_175\n      jump\t// in\n    tag_261:\n        /* \"#utility.yul\":4430:4652   */\n      swap3\n      swap2\n      pop\n      pop\n      jump\t// out\n        /* \"#utility.yul\":4658:4798   */\n    tag_176:\n        /* \"#utility.yul\":4722:4731   */\n      0x00\n        /* \"#utility.yul\":4755:4792   */\n      tag_263\n        /* \"#utility.yul\":4786:4791   */\n      dup3\n        /* \"#utility.yul\":4755:4792   */\n      tag_161\n      jump\t// in\n    tag_263:\n        /* \"#utility.yul\":4742:4792   */\n      swap1\n      pop\n        /* \"#utility.yul\":4658:4798   */\n      swap2\n      swap1\n      pop\n      jump\t// out\n        /* \"#utility.yul\":4804:4963   */\n    tag_177:\n        /* \"#utility.yul\":4905:4956   */\n      tag_265\n        /* \"#utility.yul\":4950:4955   */\n      dup2\n        /* \"#utility.yul\":4905:4956   */\n      tag_176\n      jump\t// in\n    tag_265:\n        /* \"#utility.yul\":4900:4903   */\n      dup3\n        /* \"#utility.yul\":4893:4957   */\n      mstore\n        /* \"#utility.yul\":4804:4963   */\n      pop\n      pop\n      jump\t// out\n        /* \"#utility.yul\":4969:5219   */\n    tag_49:\n        /* \"#utility.yul\":5076:5080   */\n      0x00\n        /* \"#utility.yul\":5114:5116   */\n      0x20\n        /* \"#utility.yul\":5103:5112   */\n      dup3\n        /* \"#utility.yul\":5099:5117   */\n      add\n        /* \"#utility.yul\":5091:5117   */\n      swap1\n      pop\n        /* \"#utility.yul\":5127:5212   */\n      tag_267\n        /* \"#utility.yul\":5209:5210   */\n      0x00\n        /* \"#utility.yul\":5198:5207   */\n      dup4\n        /* \"#utility.yul\":5194:5211   */\n      add\n        /* \"#utility.yul\":5185:5191   */\n      dup5\n        /* \"#utility.yul\":5127:5212   */\n      tag_177\n      jump\t// in\n    tag_267:\n        /* \"#utility.yul\":4969:5219   */\n      swap3\n      swap2\n      pop\n      pop\n      jump\t// out\n        /* \"#utility.yul\":5225:5347   */\n    tag_178:\n        /* \"#utility.yul\":5298:5322   */\n      tag_269\n        /* \"#utility.yul\":5316:5321   */\n      dup2\n        /* \"#utility.yul\":5298:5322   */\n      tag_171\n      jump\t// in\n    tag_269:\n        /* \"#utility.yul\":5291:5296   */\n      dup2\n        /* \"#utility.yul\":5288:5323   */\n      eq\n        /* \"#utility.yul\":5278:5341   */\n      tag_270\n      jumpi\n        /* \"#utility.yul\":5337:5338   */\n      0x00\n        /* \"#utility.yul\":5334:5335   */\n      0x00\n        /* \"#utility.yul\":5327:5339   */\n      revert\n        /* \"#utility.yul\":5278:5341   */\n    tag_270:\n        /* \"#utility.yul\":5225:5347   */\n      pop\n      jump\t// out\n        /* \"#utility.yul\":5353:5492   */\n    tag_179:\n        /* \"#utility.yul\":5399:5404   */\n      0x00\n        /* \"#utility.yul\":5437:5443   */\n      dup2\n        /* \"#utility.yul\":5424:5444   */\n      calldataload\n        /* \"#utility.yul\":5415:5444   */\n      swap1\n      pop\n        /* \"#utility.yul\":5453:5486   */\n      tag_272\n        /* \"#utility.yul\":5480:5485   */\n      dup2\n        /* \"#utility.yul\":5453:5486   */\n      tag_178\n      jump\t// in\n    tag_272:\n        /* \"#utility.yul\":5353:5492   */\n      swap3\n      swap2\n      pop\n      pop\n      jump\t// out\n        /* \"#utility.yul\":5498:5827   */\n    tag_52:\n        /* \"#utility.yul\":5557:5563   */\n      0x00\n        /* \"#utility.yul\":5606:5608   */\n      0x20\n        /* \"#utility.yul\":5594:5603   */\n      dup3\n        /* \"#utility.yul\":5585:5592   */\n      dup5\n        /* \"#utility.yul\":5581:5604   */\n      sub\n        /* \"#utility.yul\":5577:5609   */\n      slt\n        /* \"#utility.yul\":5574:5693   */\n      iszero\n      tag_274\n      jumpi\n        /* \"#utility.yul\":5612:5691   */\n      tag_275\n      tag_165\n      jump\t// in\n    tag_275:\n        /* \"#utility.yul\":5574:5693   */\n    tag_274:\n        /* \"#utility.yul\":5732:5733   */\n      0x00\n        /* \"#utility.yul\":5757:5810   */\n      tag_276\n        /* \"#utility.yul\":5802:5809   */\n      dup5\n        /* \"#utility.yul\":5793:5799   */\n      dup3\n        /* \"#utility.yul\":5782:5791   */\n      dup6\n        /* \"#utility.yul\":5778:5800   */\n      add\n        /* \"#utility.yul\":5757:5810   */\n      tag_179\n      jump\t// in\n    tag_276:\n        /* \"#utility.yul\":5747:5810   */\n      swap2\n      pop\n        /* \"#utility.yul\":5703:5820   */\n      pop\n        /* \"#utility.yul\":5498:5827   */\n      swap3\n      swap2\n      pop\n      pop\n      jump\t// out\n        /* \"#utility.yul\":5833:6002   */\n    tag_180:\n        /* \"#utility.yul\":5917:5928   */\n      0x00\n        /* \"#utility.yul\":5951:5957   */\n      dup3\n        /* \"#utility.yul\":5946:5949   */\n      dup3\n        /* \"#utility.yul\":5939:5958   */\n      mstore\n        /* \"#utility.yul\":5991:5995   */\n      0x20\n        /* \"#utility.yul\":5986:5989   */\n      dup3\n        /* \"#utility.yul\":5982:5996   */\n      add\n        /* \"#utility.yul\":5967:5996   */\n      swap1\n      pop\n        /* \"#utility.yul\":5833:6002   */\n      swap3\n      swap2\n      pop\n      pop\n      jump\t// out\n        /* \"#utility.yul\":6008:6176   */\n    tag_181:\n        /* \"#utility.yul\":6148:6168   */\n      0x416d6f756e74206d757374206265203e20300000000000000000000000000000\n        /* \"#utility.yul\":6144:6145   */\n      0x00\n        /* \"#utility.yul\":6136:6142   */\n      dup3\n        /* \"#utility.yul\":6132:6146   */\n      add\n        /* \"#utility.yul\":6125:6169   */\n      mstore\n        /* \"#utility.yul\":6008:6176   */\n      pop\n      jump\t// out\n        /* \"#utility.yul\":6182:6548   */\n    tag_182:\n        /* \"#utility.yul\":6324:6327   */\n      0x00\n        /* \"#utility.yul\":6345:6412   */\n      tag_280\n        /* \"#utility.yul\":6409:6411   */\n      0x12\n        /* \"#utility.yul\":6404:6407   */\n      dup4\n        /* \"#utility.yul\":6345:6412   */\n      tag_180\n      jump\t// in\n    tag_280:\n        /* \"#utility.yul\":6338:6412   */\n      swap2\n      pop\n        /* \"#utility.yul\":6421:6514   */\n      tag_281\n        /* \"#utility.yul\":6510:6513   */\n      dup3\n        /* \"#utility.yul\":6421:6514   */\n      tag_181\n      jump\t// in\n    tag_281:\n        /* \"#utility.yul\":6539:6541   */\n      0x20\n        /* \"#utility.yul\":6534:6537   */\n      dup3\n        /* \"#utility.yul\":6530:6542   */\n      add\n        /* \"#utility.yul\":6523:6542   */\n      swap1\n      pop\n        /* \"#utility.yul\":6182:6548   */\n      swap2\n      swap1\n      pop\n      jump\t// out\n        /* \"#utility.yul\":6554:6973   */\n    tag_63:\n        /* \"#utility.yul\":6720:6724   */\n      0x00\n        /* \"#utility.yul\":6758:6760   */\n      0x20\n        /* \"#utility.yul\":6747:6756   */\n      dup3\n        /* \"#utility.yul\":6743:6761   */\n      add\n        /* \"#utility.yul\":6735:6761   */\n      swap1\n      pop\n        /* \"#utility.yul\":6807:6816   */\n      dup2\n        /* \"#utility.yul\":6801:6805   */\n      dup2\n        /* \"#utility.yul\":6797:6817   */\n      sub\n        /* \"#utility.yul\":6793:6794   */\n      0x00\n        /* \"#utility.yul\":6782:6791   */\n      dup4\n        /* \"#utility.yul\":6778:6795   */\n      add\n        /* \"#utility.yul\":6771:6818   */\n      mstore\n        /* \"#utility.yul\":6835:6966   */\n      tag_283\n        /* \"#utility.yul\":6961:6965   */\n      dup2\n        /* \"#utility.yul\":6835:6966   */\n      tag_182\n      jump\t// in\n    tag_283:\n        /* \"#utility.yul\":6827:6966   */\n      swap1\n      pop\n        /* \"#utility.yul\":6554:6973   */\n      swap2\n      swap1\n      pop\n      jump\t// out\n        /* \"#utility.yul\":6979:7421   */\n    tag_65:\n        /* \"#utility.yul\":7128:7132   */\n      0x00\n        /* \"#utility.yul\":7166:7168   */\n      0x60\n        /* \"#utility.yul\":7155:7164   */\n      dup3\n        /* \"#utility.yul\":7151:7169   */\n      add\n        /* \"#utility.yul\":7143:7169   */\n      swap1\n      pop\n        /* \"#utility.yul\":7179:7250   */\n      tag_285\n        /* \"#utility.yul\":7247:7248   */\n      0x00\n        /* \"#utility.yul\":7236:7245   */\n      dup4\n        /* \"#utility.yul\":7232:7249   */\n      add\n        /* \"#utility.yul\":7223:7229   */\n      dup7\n        /* \"#utility.yul\":7179:7250   */\n      tag_175\n      jump\t// in\n    tag_285:\n        /* \"#utility.yul\":7260:7332   */\n      tag_286\n        /* \"#utility.yul\":7328:7330   */\n      0x20\n        /* \"#utility.yul\":7317:7326   */\n      dup4\n        /* \"#utility.yul\":7313:7331   */\n      add\n        /* \"#utility.yul\":7304:7310   */\n      dup6\n        /* \"#utility.yul\":7260:7332   */\n      tag_175\n      jump\t// in\n    tag_286:\n        /* \"#utility.yul\":7342:7414   */\n      tag_287\n        /* \"#utility.yul\":7410:7412   */\n      0x40\n        /* \"#utility.yul\":7399:7408   */\n      dup4\n        /* \"#utility.yul\":7395:7413   */\n      add\n        /* \"#utility.yul\":7386:7392   */\n      dup5\n        /* \"#utility.yul\":7342:7414   */\n      tag_157\n      jump\t// in\n    tag_287:\n        /* \"#utility.yul\":6979:7421   */\n      swap5\n      swap4\n      pop\n      pop\n      pop\n      pop\n      jump\t// out\n        /* \"#utility.yul\":7427:7517   */\n    tag_183:\n        /* \"#utility.yul\":7461:7468   */\n      0x00\n        /* \"#utility.yul\":7504:7509   */\n      dup2\n        /* \"#utility.yul\":7497:7510   */\n      iszero\n        /* \"#utility.yul\":7490:7511   */\n      iszero\n        /* \"#utility.yul\":7479:7511   */\n      swap1\n      pop\n        /* \"#utility.yul\":7427:7517   */\n      swap2\n      swap1\n      pop\n      jump\t// out\n        /* \"#utility.yul\":7523:7639   */\n    tag_184:\n        /* \"#utility.yul\":7593:7614   */\n      tag_290\n        /* \"#utility.yul\":7608:7613   */\n      dup2\n        /* \"#utility.yul\":7593:7614   */\n      tag_183\n      jump\t// in\n    tag_290:\n        /* \"#utility.yul\":7586:7591   */\n      dup2\n        /* \"#utility.yul\":7583:7615   */\n      eq\n        /* \"#utility.yul\":7573:7633   */\n      tag_291\n      jumpi\n        /* \"#utility.yul\":7629:7630   */\n      0x00\n        /* \"#utility.yul\":7626:7627   */\n      0x00\n        /* \"#utility.yul\":7619:7631   */\n      revert\n        /* \"#utility.yul\":7573:7633   */\n    tag_291:\n        /* \"#utility.yul\":7523:7639   */\n      pop\n      jump\t// out\n        /* \"#utility.yul\":7645:7782   */\n    tag_185:\n        /* \"#utility.yul\":7699:7704   */\n      0x00\n        /* \"#utility.yul\":7730:7736   */\n      dup2\n        /* \"#utility.yul\":7724:7737   */\n      mload\n        /* \"#utility.yul\":7715:7737   */\n      swap1\n      pop\n        /* \"#utility.yul\":7746:7776   */\n      tag_293\n        /* \"#utility.yul\":7770:7775   */\n      dup2\n        /* \"#utility.yul\":7746:7776   */\n      tag_184\n      jump\t// in\n    tag_293:\n        /* \"#utility.yul\":7645:7782   */\n      swap3\n      swap2\n      pop\n      pop\n      jump\t// out\n        /* \"#utility.yul\":7788:8133   */\n    tag_69:\n        /* \"#utility.yul\":7855:7861   */\n      0x00\n        /* \"#utility.yul\":7904:7906   */\n      0x20\n        /* \"#utility.yul\":7892:7901   */\n      dup3\n        /* \"#utility.yul\":7883:7890   */\n      dup5\n        /* \"#utility.yul\":7879:7902   */\n      sub\n        /* \"#utility.yul\":7875:7907   */\n      slt\n        /* \"#utility.yul\":7872:7991   */\n      iszero\n      tag_295\n      jumpi\n        /* \"#utility.yul\":7910:7989   */\n      tag_296\n      tag_165\n      jump\t// in\n    tag_296:\n        /* \"#utility.yul\":7872:7991   */\n    tag_295:\n        /* \"#utility.yul\":8030:8031   */\n      0x00\n        /* \"#utility.yul\":8055:8116   */\n      tag_297\n        /* \"#utility.yul\":8108:8115   */\n      dup5\n        /* \"#utility.yul\":8099:8105   */\n      dup3\n        /* \"#utility.yul\":8088:8097   */\n      dup6\n        /* \"#utility.yul\":8084:8106   */\n      add\n        /* \"#utility.yul\":8055:8116   */\n      tag_185\n      jump\t// in\n    tag_297:\n        /* \"#utility.yul\":8045:8116   */\n      swap2\n      pop\n        /* \"#utility.yul\":8001:8126   */\n      pop\n        /* \"#utility.yul\":7788:8133   */\n      swap3\n      swap2\n      pop\n      pop\n      jump\t// out\n        /* \"#utility.yul\":8139:8304   */\n    tag_186:\n        /* \"#utility.yul\":8279:8296   */\n      0x5472616e73666572206661696c65640000000000000000000000000000000000\n        /* \"#utility.yul\":8275:8276   */\n      0x00\n        /* \"#utility.yul\":8267:8273   */\n      dup3\n        /* \"#utility.yul\":8263:8277   */\n      add\n        /* \"#utility.yul\":8256:8297   */\n      mstore\n        /* \"#utility.yul\":8139:8304   */\n      pop\n      jump\t// out\n        /* \"#utility.yul\":8310:8676   */\n    tag_187:\n        /* \"#utility.yul\":8452:8455   */\n      0x00\n        /* \"#utility.yul\":8473:8540   */\n      tag_300\n        /* \"#utility.yul\":8537:8539   */\n      0x0f\n        /* \"#utility.yul\":8532:8535   */\n      dup4\n        /* \"#utility.yul\":8473:8540   */\n      tag_180\n      jump\t// in\n    tag_300:\n        /* \"#utility.yul\":8466:8540   */\n      swap2\n      pop\n        /* \"#utility.yul\":8549:8642   */\n      tag_301\n        /* \"#utility.yul\":8638:8641   */\n      dup3\n        /* \"#utility.yul\":8549:8642   */\n      tag_186\n      jump\t// in\n    tag_301:\n        /* \"#utility.yul\":8667:8669   */\n      0x20\n        /* \"#utility.yul\":8662:8665   */\n      dup3\n        /* \"#utility.yul\":8658:8670   */\n      add\n        /* \"#utility.yul\":8651:8670   */\n      swap1\n      pop\n        /* \"#utility.yul\":8310:8676   */\n      swap2\n      swap1\n      pop\n      jump\t// out\n        /* \"#utility.yul\":8682:9101   */\n    tag_72:\n        /* \"#utility.yul\":8848:8852   */\n      0x00\n        /* \"#utility.yul\":8886:8888   */\n      0x20\n        /* \"#utility.yul\":8875:8884   */\n      dup3\n        /* \"#utility.yul\":8871:8889   */\n      add\n        /* \"#utility.yul\":8863:8889   */\n      swap1\n      pop\n        /* \"#utility.yul\":8935:8944   */\n      dup2\n        /* \"#utility.yul\":8929:8933   */\n      dup2\n        /* \"#utility.yul\":8925:8945   */\n      sub\n        /* \"#utility.yul\":8921:8922   */\n      0x00\n        /* \"#utility.yul\":8910:8919   */\n      dup4\n        /* \"#utility.yul\":8906:8923   */\n      add\n        /* \"#utility.yul\":8899:8946   */\n      mstore\n        /* \"#utility.yul\":8963:9094   */\n      tag_303\n        /* \"#utility.yul\":9089:9093   */\n      dup2\n        /* \"#utility.yul\":8963:9094   */\n      tag_187\n      jump\t// in\n    tag_303:\n        /* \"#utility.yul\":8955:9094   */\n      swap1\n      pop\n        /* \"#utility.yul\":8682:9101   */\n      swap2\n      swap1\n      pop\n      jump\t// out\n        /* \"#utility.yul\":9107:9206   */\n    tag_188:\n        /* \"#utility.yul\":9192:9198   */\n      dup3\n        /* \"#utility.yul\":9187:9190   */\n      dup2\n        /* \"#utility.yul\":9182:9185   */\n      dup4\n        /* \"#utility.yul\":9169:9199   */\n      calldatacopy\n        /* \"#utility.yul\":9107:9206   */\n      pop\n      pop\n      pop\n      jump\t// out\n        /* \"#utility.yul\":9244:9414   */\n    tag_189:\n        /* \"#utility.yul\":9367:9408   */\n      tag_306\n        /* \"#utility.yul\":9403:9407   */\n      0x40\n        /* \"#utility.yul\":9398:9401   */\n      dup4\n        /* \"#utility.yul\":9391:9396   */\n      dup4\n        /* \"#utility.yul\":9367:9408   */\n      tag_188\n      jump\t// in\n    tag_306:\n        /* \"#utility.yul\":9244:9414   */\n      pop\n      pop\n      jump\t// out\n        /* \"#utility.yul\":9420:9848   */\n    tag_82:\n        /* \"#utility.yul\":9589:9593   */\n      0x00\n        /* \"#utility.yul\":9627:9629   */\n      0x60\n        /* \"#utility.yul\":9616:9625   */\n      dup3\n        /* \"#utility.yul\":9612:9630   */\n      add\n        /* \"#utility.yul\":9604:9630   */\n      swap1\n      pop\n        /* \"#utility.yul\":9640:9711   */\n      tag_308\n        /* \"#utility.yul\":9708:9709   */\n      0x00\n        /* \"#utility.yul\":9697:9706   */\n      dup4\n        /* \"#utility.yul\":9693:9710   */\n      add\n        /* \"#utility.yul\":9684:9690   */\n      dup6\n        /* \"#utility.yul\":9640:9711   */\n      tag_157\n      jump\t// in\n    tag_308:\n        /* \"#utility.yul\":9721:9841   */\n      tag_309\n        /* \"#utility.yul\":9837:9839   */\n      0x20\n        /* \"#utility.yul\":9826:9835   */\n      dup4\n        /* \"#utility.yul\":9822:9840   */\n      add\n        /* \"#utility.yul\":9813:9819   */\n      dup5\n        /* \"#utility.yul\":9721:9841   */\n      tag_189\n      jump\t// in\n    tag_309:\n        /* \"#utility.yul\":9420:9848   */\n      swap4\n      swap3\n      pop\n      pop\n      pop\n      jump\t// out\n        /* \"#utility.yul\":9854:10024   */\n    tag_190:\n        /* \"#utility.yul\":9994:10016   */\n      0x496e76616c696420706f6f6c2061646472657373000000000000000000000000\n        /* \"#utility.yul\":9990:9991   */\n      0x00\n        /* \"#utility.yul\":9982:9988   */\n      dup3\n        /* \"#utility.yul\":9978:9992   */\n      add\n        /* \"#utility.yul\":9971:10017   */\n      mstore\n        /* \"#utility.yul\":9854:10024   */\n      pop\n      jump\t// out\n        /* \"#utility.yul\":10030:10396   */\n    tag_191:\n        /* \"#utility.yul\":10172:10175   */\n      0x00\n        /* \"#utility.yul\":10193:10260   */\n      tag_312\n        /* \"#utility.yul\":10257:10259   */\n      0x14\n        /* \"#utility.yul\":10252:10255   */\n      dup4\n        /* \"#utility.yul\":10193:10260   */\n      tag_180\n      jump\t// in\n    tag_312:\n        /* \"#utility.yul\":10186:10260   */\n      swap2\n      pop\n        /* \"#utility.yul\":10269:10362   */\n      tag_313\n        /* \"#utility.yul\":10358:10361   */\n      dup3\n        /* \"#utility.yul\":10269:10362   */\n      tag_190\n      jump\t// in\n    tag_313:\n        /* \"#utility.yul\":10387:10389   */\n      0x20\n        /* \"#utility.yul\":10382:10385   */\n      dup3\n        /* \"#utility.yul\":10378:10390   */\n      add\n        /* \"#utility.yul\":10371:10390   */\n      swap1\n      pop\n        /* \"#utility.yul\":10030:10396   */\n      swap2\n      swap1\n      pop\n      jump\t// out\n        /* \"#utility.yul\":10402:10821   */\n    tag_102:\n        /* \"#utility.yul\":10568:10572   */\n      0x00\n        /* \"#utility.yul\":10606:10608   */\n      0x20\n        /* \"#utility.yul\":10595:10604   */\n      dup3\n        /* \"#utility.yul\":10591:10609   */\n      add\n        /* \"#utility.yul\":10583:10609   */\n      swap1\n      pop\n        /* \"#utility.yul\":10655:10664   */\n      dup2\n        /* \"#utility.yul\":10649:10653   */\n      dup2\n        /* \"#utility.yul\":10645:10665   */\n      sub\n        /* \"#utility.yul\":10641:10642   */\n      0x00\n        /* \"#utility.yul\":10630:10639   */\n      dup4\n        /* \"#utility.yul\":10626:10643   */\n      add\n        /* \"#utility.yul\":10619:10666   */\n      mstore\n        /* \"#utility.yul\":10683:10814   */\n      tag_315\n        /* \"#utility.yul\":10809:10813   */\n      dup2\n        /* \"#utility.yul\":10683:10814   */\n      tag_191\n      jump\t// in\n    tag_315:\n        /* \"#utility.yul\":10675:10814   */\n      swap1\n      pop\n        /* \"#utility.yul\":10402:10821   */\n      swap2\n      swap1\n      pop\n      jump\t// out\n        /* \"#utility.yul\":10827:10970   */\n    tag_192:\n        /* \"#utility.yul\":10884:10889   */\n      0x00\n        /* \"#utility.yul\":10915:10921   */\n      dup2\n        /* \"#utility.yul\":10909:10922   */\n      mload\n        /* \"#utility.yul\":10900:10922   */\n      swap1\n      pop\n        /* \"#utility.yul\":10931:10964   */\n      tag_317\n        /* \"#utility.yul\":10958:10963   */\n      dup2\n        /* \"#utility.yul\":10931:10964   */\n      tag_167\n      jump\t// in\n    tag_317:\n        /* \"#utility.yul\":10827:10970   */\n      swap3\n      swap2\n      pop\n      pop\n      jump\t// out\n        /* \"#utility.yul\":10976:11327   */\n    tag_113:\n        /* \"#utility.yul\":11046:11052   */\n      0x00\n        /* \"#utility.yul\":11095:11097   */\n      0x20\n        /* \"#utility.yul\":11083:11092   */\n      dup3\n        /* \"#utility.yul\":11074:11081   */\n      dup5\n        /* \"#utility.yul\":11070:11093   */\n      sub\n        /* \"#utility.yul\":11066:11098   */\n      slt\n        /* \"#utility.yul\":11063:11182   */\n      iszero\n      tag_319\n      jumpi\n        /* \"#utility.yul\":11101:11180   */\n      tag_320\n      tag_165\n      jump\t// in\n    tag_320:\n        /* \"#utility.yul\":11063:11182   */\n    tag_319:\n        /* \"#utility.yul\":11221:11222   */\n      0x00\n        /* \"#utility.yul\":11246:11310   */\n      tag_321\n        /* \"#utility.yul\":11302:11309   */\n      dup5\n        /* \"#utility.yul\":11293:11299   */\n      dup3\n        /* \"#utility.yul\":11282:11291   */\n      dup6\n        /* \"#utility.yul\":11278:11300   */\n      add\n        /* \"#utility.yul\":11246:11310   */\n      tag_192\n      jump\t// in\n    tag_321:\n        /* \"#utility.yul\":11236:11310   */\n      swap2\n      pop\n        /* \"#utility.yul\":11192:11320   */\n      pop\n        /* \"#utility.yul\":10976:11327   */\n      swap3\n      swap2\n      pop\n      pop\n      jump\t// out\n        /* \"#utility.yul\":11333:11506   */\n    tag_193:\n        /* \"#utility.yul\":11473:11498   */\n      0x4e6f20737461626c65636f696e20746f20696e76657374000000000000000000\n        /* \"#utility.yul\":11469:11470   */\n      0x00\n        /* \"#utility.yul\":11461:11467   */\n      dup3\n        /* \"#utility.yul\":11457:11471   */\n      add\n        /* \"#utility.yul\":11450:11499   */\n      mstore\n        /* \"#utility.yul\":11333:11506   */\n      pop\n      jump\t// out\n        /* \"#utility.yul\":11512:11878   */\n    tag_194:\n        /* \"#utility.yul\":11654:11657   */\n      0x00\n        /* \"#utility.yul\":11675:11742   */\n      tag_324\n        /* \"#utility.yul\":11739:11741   */\n      0x17\n        /* \"#utility.yul\":11734:11737   */\n      dup4\n        /* \"#utility.yul\":11675:11742   */\n      tag_180\n      jump\t// in\n    tag_324:\n        /* \"#utility.yul\":11668:11742   */\n      swap2\n      pop\n        /* \"#utility.yul\":11751:11844   */\n      tag_325\n        /* \"#utility.yul\":11840:11843   */\n      dup3\n        /* \"#utility.yul\":11751:11844   */\n      tag_193\n      jump\t// in\n    tag_325:\n        /* \"#utility.yul\":11869:11871   */\n      0x20\n        /* \"#utility.yul\":11864:11867   */\n      dup3\n        /* \"#utility.yul\":11860:11872   */\n      add\n        /* \"#utility.yul\":11853:11872   */\n      swap1\n      pop\n        /* \"#utility.yul\":11512:11878   */\n      swap2\n      swap1\n      pop\n      jump\t// out\n        /* \"#utility.yul\":11884:12303   */\n    tag_116:\n        /* \"#utility.yul\":12050:12054   */\n      0x00\n        /* \"#utility.yul\":12088:12090   */\n      0x20\n        /* \"#utility.yul\":12077:12086   */\n      dup3\n        /* \"#utility.yul\":12073:12091   */\n      add\n        /* \"#utility.yul\":12065:12091   */\n      swap1\n      pop\n        /* \"#utility.yul\":12137:12146   */\n      dup2\n        /* \"#utility.yul\":12131:12135   */\n      dup2\n        /* \"#utility.yul\":12127:12147   */\n      sub\n        /* \"#utility.yul\":12123:12124   */\n      0x00\n        /* \"#utility.yul\":12112:12121   */\n      dup4\n        /* \"#utility.yul\":12108:12125   */\n      add\n        /* \"#utility.yul\":12101:12148   */\n      mstore\n        /* \"#utility.yul\":12165:12296   */\n      tag_327\n        /* \"#utility.yul\":12291:12295   */\n      dup2\n        /* \"#utility.yul\":12165:12296   */\n      tag_194\n      jump\t// in\n    tag_327:\n        /* \"#utility.yul\":12157:12296   */\n      swap1\n      pop\n        /* \"#utility.yul\":11884:12303   */\n      swap2\n      swap1\n      pop\n      jump\t// out\n        /* \"#utility.yul\":12309:12641   */\n    tag_118:\n        /* \"#utility.yul\":12430:12434   */\n      0x00\n        /* \"#utility.yul\":12468:12470   */\n      0x40\n        /* \"#utility.yul\":12457:12466   */\n      dup3\n        /* \"#utility.yul\":12453:12471   */\n      add\n        /* \"#utility.yul\":12445:12471   */\n      swap1\n      pop\n        /* \"#utility.yul\":12481:12552   */\n      tag_329\n        /* \"#utility.yul\":12549:12550   */\n      0x00\n        /* \"#utility.yul\":12538:12547   */\n      dup4\n        /* \"#utility.yul\":12534:12551   */\n      add\n        /* \"#utility.yul\":12525:12531   */\n      dup6\n        /* \"#utility.yul\":12481:12552   */\n      tag_175\n      jump\t// in\n    tag_329:\n        /* \"#utility.yul\":12562:12634   */\n      tag_330\n        /* \"#utility.yul\":12630:12632   */\n      0x20\n        /* \"#utility.yul\":12619:12628   */\n      dup4\n        /* \"#utility.yul\":12615:12633   */\n      add\n        /* \"#utility.yul\":12606:12612   */\n      dup5\n        /* \"#utility.yul\":12562:12634   */\n      tag_157\n      jump\t// in\n    tag_330:\n        /* \"#utility.yul\":12309:12641   */\n      swap4\n      swap3\n      pop\n      pop\n      pop\n      jump\t// out\n        /* \"#utility.yul\":12647:12827   */\n    tag_126:\n        /* \"#utility.yul\":12695:12772   */\n      0x4e487b7100000000000000000000000000000000000000000000000000000000\n        /* \"#utility.yul\":12692:12693   */\n      0x00\n        /* \"#utility.yul\":12685:12773   */\n      mstore\n        /* \"#utility.yul\":12792:12796   */\n      0x32\n        /* \"#utility.yul\":12789:12790   */\n      0x04\n        /* \"#utility.yul\":12782:12797   */\n      mstore\n        /* \"#utility.yul\":12816:12820   */\n      0x24\n        /* \"#utility.yul\":12813:12814   */\n      0x00\n        /* \"#utility.yul\":12806:12821   */\n      revert\n        /* \"#utility.yul\":12833:12937   */\n    tag_195:\n        /* \"#utility.yul\":12898:12904   */\n      0x00\n        /* \"#utility.yul\":12926:12930   */\n      0x02\n        /* \"#utility.yul\":12916:12930   */\n      swap1\n      pop\n        /* \"#utility.yul\":12833:12937   */\n      swap2\n      swap1\n      pop\n      jump\t// out\n        /* \"#utility.yul\":12943:13086   */\n    tag_196:\n        /* \"#utility.yul\":13040:13051   */\n      0x00\n        /* \"#utility.yul\":13077:13080   */\n      dup2\n        /* \"#utility.yul\":13062:13080   */\n      swap1\n      pop\n        /* \"#utility.yul\":12943:13086   */\n      swap3\n      swap2\n      pop\n      pop\n      jump\t// out\n        /* \"#utility.yul\":13092:13190   */\n    tag_197:\n        /* \"#utility.yul\":13157:13161   */\n      0x00\n        /* \"#utility.yul\":13180:13183   */\n      dup2\n        /* \"#utility.yul\":13172:13183   */\n      swap1\n      pop\n        /* \"#utility.yul\":13092:13190   */\n      swap2\n      swap1\n      pop\n      jump\t// out\n        /* \"#utility.yul\":13196:13304   */\n    tag_198:\n        /* \"#utility.yul\":13273:13297   */\n      tag_336\n        /* \"#utility.yul\":13291:13296   */\n      dup2\n        /* \"#utility.yul\":13273:13297   */\n      tag_156\n      jump\t// in\n    tag_336:\n        /* \"#utility.yul\":13268:13271   */\n      dup3\n        /* \"#utility.yul\":13261:13298   */\n      mstore\n        /* \"#utility.yul\":13196:13304   */\n      pop\n      pop\n      jump\t// out\n        /* \"#utility.yul\":13310:13489   */\n    tag_199:\n        /* \"#utility.yul\":13379:13389   */\n      0x00\n        /* \"#utility.yul\":13400:13446   */\n      tag_338\n        /* \"#utility.yul\":13442:13445   */\n      dup4\n        /* \"#utility.yul\":13434:13440   */\n      dup4\n        /* \"#utility.yul\":13400:13446   */\n      tag_198\n      jump\t// in\n    tag_338:\n        /* \"#utility.yul\":13478:13482   */\n      0x20\n        /* \"#utility.yul\":13473:13476   */\n      dup4\n        /* \"#utility.yul\":13469:13483   */\n      add\n        /* \"#utility.yul\":13455:13483   */\n      swap1\n      pop\n        /* \"#utility.yul\":13310:13489   */\n      swap3\n      swap2\n      pop\n      pop\n      jump\t// out\n        /* \"#utility.yul\":13495:13606   */\n    tag_200:\n        /* \"#utility.yul\":13563:13567   */\n      0x00\n        /* \"#utility.yul\":13595:13599   */\n      0x20\n        /* \"#utility.yul\":13590:13593   */\n      dup3\n        /* \"#utility.yul\":13586:13600   */\n      add\n        /* \"#utility.yul\":13578:13600   */\n      swap1\n      pop\n        /* \"#utility.yul\":13495:13606   */\n      swap2\n      swap1\n      pop\n      jump\t// out\n        /* \"#utility.yul\":13644:14338   */\n    tag_201:\n        /* \"#utility.yul\":13780:13832   */\n      tag_341\n        /* \"#utility.yul\":13826:13831   */\n      dup2\n        /* \"#utility.yul\":13780:13832   */\n      tag_195\n      jump\t// in\n    tag_341:\n        /* \"#utility.yul\":13848:13932   */\n      tag_342\n        /* \"#utility.yul\":13925:13931   */\n      dup2\n        /* \"#utility.yul\":13920:13923   */\n      dup5\n        /* \"#utility.yul\":13848:13932   */\n      tag_196\n      jump\t// in\n    tag_342:\n        /* \"#utility.yul\":13841:13932   */\n      swap3\n      pop\n        /* \"#utility.yul\":13956:14010   */\n      tag_343\n        /* \"#utility.yul\":14004:14009   */\n      dup3\n        /* \"#utility.yul\":13956:14010   */\n      tag_197\n      jump\t// in\n    tag_343:\n        /* \"#utility.yul\":14033:14040   */\n      dup1\n        /* \"#utility.yul\":14064:14065   */\n      0x00\n        /* \"#utility.yul\":14049:14331   */\n    tag_344:\n        /* \"#utility.yul\":14074:14080   */\n      dup4\n        /* \"#utility.yul\":14071:14072   */\n      dup2\n        /* \"#utility.yul\":14068:14081   */\n      lt\n        /* \"#utility.yul\":14049:14331   */\n      iszero\n      tag_346\n      jumpi\n        /* \"#utility.yul\":14150:14156   */\n      dup2\n        /* \"#utility.yul\":14144:14157   */\n      mload\n        /* \"#utility.yul\":14177:14240   */\n      tag_347\n        /* \"#utility.yul\":14236:14239   */\n      dup8\n        /* \"#utility.yul\":14221:14234   */\n      dup3\n        /* \"#utility.yul\":14177:14240   */\n      tag_199\n      jump\t// in\n    tag_347:\n        /* \"#utility.yul\":14170:14240   */\n      swap7\n      pop\n        /* \"#utility.yul\":14263:14321   */\n      tag_348\n        /* \"#utility.yul\":14314:14320   */\n      dup4\n        /* \"#utility.yul\":14263:14321   */\n      tag_200\n      jump\t// in\n    tag_348:\n        /* \"#utility.yul\":14253:14321   */\n      swap3\n      pop\n        /* \"#utility.yul\":14109:14331   */\n      pop\n        /* \"#utility.yul\":14096:14097   */\n      0x01\n        /* \"#utility.yul\":14093:14094   */\n      dup2\n        /* \"#utility.yul\":14089:14098   */\n      add\n        /* \"#utility.yul\":14084:14098   */\n      swap1\n      pop\n        /* \"#utility.yul\":14049:14331   */\n      jump(tag_344)\n    tag_346:\n        /* \"#utility.yul\":14053:14067   */\n      pop\n        /* \"#utility.yul\":13756:14338   */\n      pop\n      pop\n      pop\n        /* \"#utility.yul\":13644:14338   */\n      pop\n      pop\n      jump\t// out\n        /* \"#utility.yul\":14344:14768   */\n    tag_130:\n        /* \"#utility.yul\":14511:14515   */\n      0x00\n        /* \"#utility.yul\":14549:14551   */\n      0x60\n        /* \"#utility.yul\":14538:14547   */\n      dup3\n        /* \"#utility.yul\":14534:14552   */\n      add\n        /* \"#utility.yul\":14526:14552   */\n      swap1\n      pop\n        /* \"#utility.yul\":14562:14679   */\n      tag_350\n        /* \"#utility.yul\":14676:14677   */\n      0x00\n        /* \"#utility.yul\":14665:14674   */\n      dup4\n        /* \"#utility.yul\":14661:14678   */\n      add\n        /* \"#utility.yul\":14652:14658   */\n      dup6\n        /* \"#utility.yul\":14562:14679   */\n      tag_201\n      jump\t// in\n    tag_350:\n        /* \"#utility.yul\":14689:14761   */\n      tag_351\n        /* \"#utility.yul\":14757:14759   */\n      0x40\n        /* \"#utility.yul\":14746:14755   */\n      dup4\n        /* \"#utility.yul\":14742:14760   */\n      add\n        /* \"#utility.yul\":14733:14739   */\n      dup5\n        /* \"#utility.yul\":14689:14761   */\n      tag_157\n      jump\t// in\n    tag_351:\n        /* \"#utility.yul\":14344:14768   */\n      swap4\n      swap3\n      pop\n      pop\n      pop\n      jump\t// out\n        /* \"#utility.yul\":14774:14955   */\n    tag_202:\n        /* \"#utility.yul\":14914:14947   */\n      0x5265656e7472616e637947756172643a207265656e7472616e742063616c6c00\n        /* \"#utility.yul\":14910:14911   */\n      0x00\n        /* \"#utility.yul\":14902:14908   */\n      dup3\n        /* \"#utility.yul\":14898:14912   */\n      add\n        /* \"#utility.yul\":14891:14948   */\n      mstore\n        /* \"#utility.yul\":14774:14955   */\n      pop\n      jump\t// out\n        /* \"#utility.yul\":14961:15327   */\n    tag_203:\n        /* \"#utility.yul\":15103:15106   */\n      0x00\n        /* \"#utility.yul\":15124:15191   */\n      tag_354\n        /* \"#utility.yul\":15188:15190   */\n      0x1f\n        /* \"#utility.yul\":15183:15186   */\n      dup4\n        /* \"#utility.yul\":15124:15191   */\n      tag_180\n      jump\t// in\n    tag_354:\n        /* \"#utility.yul\":15117:15191   */\n      swap2\n      pop\n        /* \"#utility.yul\":15200:15293   */\n      tag_355\n        /* \"#utility.yul\":15289:15292   */\n      dup3\n        /* \"#utility.yul\":15200:15293   */\n      tag_202\n      jump\t// in\n    tag_355:\n        /* \"#utility.yul\":15318:15320   */\n      0x20\n        /* \"#utility.yul\":15313:15316   */\n      dup3\n        /* \"#utility.yul\":15309:15321   */\n      add\n        /* \"#utility.yul\":15302:15321   */\n      swap1\n      pop\n        /* \"#utility.yul\":14961:15327   */\n      swap2\n      swap1\n      pop\n      jump\t// out\n        /* \"#utility.yul\":15333:15752   */\n    tag_152:\n        /* \"#utility.yul\":15499:15503   */\n      0x00\n        /* \"#utility.yul\":15537:15539   */\n      0x20\n        /* \"#utility.yul\":15526:15535   */\n      dup3\n        /* \"#utility.yul\":15522:15540   */\n      add\n        /* \"#utility.yul\":15514:15540   */\n      swap1\n      pop\n        /* \"#utility.yul\":15586:15595   */\n      dup2\n        /* \"#utility.yul\":15580:15584   */\n      dup2\n        /* \"#utility.yul\":15576:15596   */\n      sub\n        /* \"#utility.yul\":15572:15573   */\n      0x00\n        /* \"#utility.yul\":15561:15570   */\n      dup4\n        /* \"#utility.yul\":15557:15574   */\n      add\n        /* \"#utility.yul\":15550:15597   */\n      mstore\n        /* \"#utility.yul\":15614:15745   */\n      tag_357\n        /* \"#utility.yul\":15740:15744   */\n      dup2\n        /* \"#utility.yul\":15614:15745   */\n      tag_203\n      jump\t// in\n    tag_357:\n        /* \"#utility.yul\":15606:15745   */\n      swap1\n      pop\n        /* \"#utility.yul\":15333:15752   */\n      swap2\n      swap1\n      pop\n      jump\t// out\n\n    auxdata: 0xa2646970667358221220b73b97442a380ff2f1bbce757f273974477a9e411a33ccbfec6316f6b66f378364736f6c634300081d0033\n}\n",
				"bytecode": {
					"linkReferences": {},
					"object": "608060405234801561000f575f5ffd5b50604051611756380380611756833981810160405281019061003191906103c2565b335f73ffffffffffffffffffffffffffffffffffffffff168173ffffffffffffffffffffffffffffffffffffffff16036100a2575f6040517f1e4fbdf70000000000000000000000000000000000000000000000000000000081526004016100999190610421565b60405180910390fd5b6100b18161022460201b60201c565b50600180819055505f73ffffffffffffffffffffffffffffffffffffffff168373ffffffffffffffffffffffffffffffffffffffff1603610127576040517f08c379a000000000000000000000000000000000000000000000000000000000815260040161011e90610494565b60405180910390fd5b5f73ffffffffffffffffffffffffffffffffffffffff168273ffffffffffffffffffffffffffffffffffffffff1603610195576040517f08c379a000000000000000000000000000000000000000000000000000000000815260040161018c906104fc565b60405180910390fd5b8260025f6101000a81548173ffffffffffffffffffffffffffffffffffffffff021916908373ffffffffffffffffffffffffffffffffffffffff1602179055508160035f6101000a81548173ffffffffffffffffffffffffffffffffffffffff021916908373ffffffffffffffffffffffffffffffffffffffff1602179055508060048190555050505061051a565b5f5f5f9054906101000a900473ffffffffffffffffffffffffffffffffffffffff169050815f5f6101000a81548173ffffffffffffffffffffffffffffffffffffffff021916908373ffffffffffffffffffffffffffffffffffffffff1602179055508173ffffffffffffffffffffffffffffffffffffffff168173ffffffffffffffffffffffffffffffffffffffff167f8be0079c531659141344cd1fd0a4f28419497f9722a3daafe3b4186f6b6457e060405160405180910390a35050565b5f5ffd5b5f73ffffffffffffffffffffffffffffffffffffffff82169050919050565b5f610312826102e9565b9050919050565b5f61032382610308565b9050919050565b61033381610319565b811461033d575f5ffd5b50565b5f8151905061034e8161032a565b92915050565b5f61035e82610308565b9050919050565b61036e81610354565b8114610378575f5ffd5b50565b5f8151905061038981610365565b92915050565b5f819050919050565b6103a18161038f565b81146103ab575f5ffd5b50565b5f815190506103bc81610398565b92915050565b5f5f5f606084860312156103d9576103d86102e5565b5b5f6103e686828701610340565b93505060206103f78682870161037b565b9250506040610408868287016103ae565b9150509250925092565b61041b81610308565b82525050565b5f6020820190506104345f830184610412565b92915050565b5f82825260208201905092915050565b7f496e76616c696420737461626c65636f696e20616464726573730000000000005f82015250565b5f61047e601a8361043a565b91506104898261044a565b602082019050919050565b5f6020820190508181035f8301526104ab81610472565b9050919050565b7f496e76616c696420706f6f6c20616464726573730000000000000000000000005f82015250565b5f6104e660148361043a565b91506104f1826104b2565b602082019050919050565b5f6020820190508181035f830152610513816104da565b9050919050565b61122f806105275f395ff3fe608060405234801561000f575f5ffd5b50600436106100a7575f3560e01c8063715018a61161006f578063715018a61461013b5780637b46c54f146101455780638da5cb5b14610161578063e8b5e51f1461017f578063e9cbd82214610189578063f2fde38b146101a7576100a7565b806301e9d757146100ab578063218751b2146100c957806359f99c53146100e75780635e4eaee7146101035780636dd84ac11461011f575b5f5ffd5b6100b36101c3565b6040516100c09190610b18565b60405180910390f35b6100d16101c9565b6040516100de9190610bab565b60405180910390f35b61010160048036038101906100fc9190610bf2565b6101ee565b005b61011d60048036038101906101189190610c42565b610376565b005b61013960048036038101906101349190610bf2565b610452565b005b61014361049b565b005b61015f600480360381019061015a9190610ccc565b6104ae565b005b6101696105aa565b6040516101769190610d06565b60405180910390f35b6101876105d1565b005b61019161088e565b60405161019e9190610d3f565b60405180910390f35b6101c160048036038101906101bc9190610d82565b6108b3565b005b60045481565b60035f9054906101000a900473ffffffffffffffffffffffffffffffffffffffff1681565b6101f6610937565b6101fe6109be565b5f8111610240576040517f08c379a000000000000000000000000000000000000000000000000000000000815260040161023790610e07565b60405180910390fd5b60025f9054906101000a900473ffffffffffffffffffffffffffffffffffffffff1673ffffffffffffffffffffffffffffffffffffffff166323b872dd3330846040518463ffffffff1660e01b815260040161029e93929190610e25565b6020604051808303815f875af11580156102ba573d5f5f3e3d5ffd5b505050506040513d601f19601f820116820180604052508101906102de9190610e8f565b61031d576040517f08c379a000000000000000000000000000000000000000000000000000000000815260040161031490610f04565b60405180910390fd5b3373ffffffffffffffffffffffffffffffffffffffff167f34bd8d27fd8224d934d60847620b61f621773145db194aacff8b7f3e9ae3b7c0826040516103639190610b18565b60405180910390a2610373610a0d565b50565b61037e610937565b6103866109be565b60035f9054906101000a900473ffffffffffffffffffffffffffffffffffffffff1673ffffffffffffffffffffffffffffffffffffffff16635b36389c83836040518363ffffffff1660e01b81526004016103e2929190610f3b565b5f604051808303815f87803b1580156103f9575f5ffd5b505af115801561040b573d5f5f3e3d5ffd5b505050507f73ce532f480864bd2fccd1bcdbb4c8151f02cd9450c4f3e5b834ef74503abdb28260405161043e9190610b18565b60405180910390a161044e610a0d565b5050565b61045a610937565b806004819055507fae98803c2c4b18aef1109a8fbee5391dcdfa538adbd1c7f138c8b58c191e7274816040516104909190610b18565b60405180910390a150565b6104a3610937565b6104ac5f610a16565b565b6104b6610937565b5f73ffffffffffffffffffffffffffffffffffffffff168173ffffffffffffffffffffffffffffffffffffffff1603610524576040517f08c379a000000000000000000000000000000000000000000000000000000000815260040161051b90610fac565b60405180910390fd5b8060035f6101000a81548173ffffffffffffffffffffffffffffffffffffffff021916908373ffffffffffffffffffffffffffffffffffffffff1602179055508073ffffffffffffffffffffffffffffffffffffffff167f380cec482764ddef4f75351b5398e3e2bea99ba23e53a00d5521f569fb668e1f60405160405180910390a250565b5f5f5f9054906101000a900473ffffffffffffffffffffffffffffffffffffffff16905090565b6105d9610937565b6105e16109be565b5f60025f9054906101000a900473ffffffffffffffffffffffffffffffffffffffff1673ffffffffffffffffffffffffffffffffffffffff166370a08231306040518263ffffffff1660e01b815260040161063c9190610d06565b602060405180830381865afa158015610657573d5f5f3e3d5ffd5b505050506040513d601f19601f8201168201806040525081019061067b9190610fde565b90505f81116106bf576040517f08c379a00000000000000000000000000000000000000000000000000000000081526004016106b690611053565b60405180910390fd5b60025f9054906101000a900473ffffffffffffffffffffffffffffffffffffffff1673ffffffffffffffffffffffffffffffffffffffff1663095ea7b360035f9054906101000a900473ffffffffffffffffffffffffffffffffffffffff16836040518363ffffffff1660e01b815260040161073c929190611071565b6020604051808303815f875af1158015610758573d5f5f3e3d5ffd5b505050506040513d601f19601f8201168201806040525081019061077c9190610e8f565b50610785610ade565b81815f6002811061079957610798611098565b5b6020020181815250505f816001600281106107b7576107b6611098565b5b60200201818152505060035f9054906101000a900473ffffffffffffffffffffffffffffffffffffffff1673ffffffffffffffffffffffffffffffffffffffff16630b4c7e4d826004546040518363ffffffff1660e01b815260040161081e92919061116a565b5f604051808303815f87803b158015610835575f5ffd5b505af1158015610847573d5f5f3e3d5ffd5b505050507fac9f7997c30b6a3cc9c74953898b5de154359339c7ec0d6d70ceb98e55db1a4b8260405161087a9190610b18565b60405180910390a1505061088c610a0d565b565b60025f9054906101000a900473ffffffffffffffffffffffffffffffffffffffff1681565b6108bb610937565b5f73ffffffffffffffffffffffffffffffffffffffff168173ffffffffffffffffffffffffffffffffffffffff160361092b575f6040517f1e4fbdf70000000000000000000000000000000000000000000000000000000081526004016109229190610d06565b60405180910390fd5b61093481610a16565b50565b61093f610ad7565b73ffffffffffffffffffffffffffffffffffffffff1661095d6105aa565b73ffffffffffffffffffffffffffffffffffffffff16146109bc57610980610ad7565b6040517f118cdaa70000000000000000000000000000000000000000000000000000000081526004016109b39190610d06565b60405180910390fd5b565b600260015403610a03576040517f08c379a00000000000000000000000000000000000000000000000000000000081526004016109fa906111db565b60405180910390fd5b6002600181905550565b60018081905550565b5f5f5f9054906101000a900473ffffffffffffffffffffffffffffffffffffffff169050815f5f6101000a81548173ffffffffffffffffffffffffffffffffffffffff021916908373ffffffffffffffffffffffffffffffffffffffff1602179055508173ffffffffffffffffffffffffffffffffffffffff168173ffffffffffffffffffffffffffffffffffffffff167f8be0079c531659141344cd1fd0a4f28419497f9722a3daafe3b4186f6b6457e060405160405180910390a35050565b5f33905090565b6040518060400160405280600290602082028036833780820191505090505090565b5f819050919050565b610b1281610b00565b82525050565b5f602082019050610b2b5f830184610b09565b92915050565b5f73ffffffffffffffffffffffffffffffffffffffff82169050919050565b5f819050919050565b5f610b73610b6e610b6984610b31565b610b50565b610b31565b9050919050565b5f610b8482610b59565b9050919050565b5f610b9582610b7a565b9050919050565b610ba581610b8b565b82525050565b5f602082019050610bbe5f830184610b9c565b92915050565b5f5ffd5b610bd181610b00565b8114610bdb575f5ffd5b50565b5f81359050610bec81610bc8565b92915050565b5f60208284031215610c0757610c06610bc4565b5b5f610c1484828501610bde565b91505092915050565b5f5ffd5b5f81905082602060020282011115610c3c57610c3b610c1d565b5b92915050565b5f5f60608385031215610c5857610c57610bc4565b5b5f610c6585828601610bde565b9250506020610c7685828601610c21565b9150509250929050565b5f610c8a82610b31565b9050919050565b5f610c9b82610c80565b9050919050565b610cab81610c91565b8114610cb5575f5ffd5b50565b5f81359050610cc681610ca2565b92915050565b5f60208284031215610ce157610ce0610bc4565b5b5f610cee84828501610cb8565b91505092915050565b610d0081610c80565b82525050565b5f602082019050610d195f830184610cf7565b92915050565b5f610d2982610b7a565b9050919050565b610d3981610d1f565b82525050565b5f602082019050610d525f830184610d30565b92915050565b610d6181610c80565b8114610d6b575f5ffd5b50565b5f81359050610d7c81610d58565b92915050565b5f60208284031215610d9757610d96610bc4565b5b5f610da484828501610d6e565b91505092915050565b5f82825260208201905092915050565b7f416d6f756e74206d757374206265203e203000000000000000000000000000005f82015250565b5f610df1601283610dad565b9150610dfc82610dbd565b602082019050919050565b5f6020820190508181035f830152610e1e81610de5565b9050919050565b5f606082019050610e385f830186610cf7565b610e456020830185610cf7565b610e526040830184610b09565b949350505050565b5f8115159050919050565b610e6e81610e5a565b8114610e78575f5ffd5b50565b5f81519050610e8981610e65565b92915050565b5f60208284031215610ea457610ea3610bc4565b5b5f610eb184828501610e7b565b91505092915050565b7f5472616e73666572206661696c656400000000000000000000000000000000005f82015250565b5f610eee600f83610dad565b9150610ef982610eba565b602082019050919050565b5f6020820190508181035f830152610f1b81610ee2565b9050919050565b82818337505050565b610f3760408383610f22565b5050565b5f606082019050610f4e5f830185610b09565b610f5b6020830184610f2b565b9392505050565b7f496e76616c696420706f6f6c20616464726573730000000000000000000000005f82015250565b5f610f96601483610dad565b9150610fa182610f62565b602082019050919050565b5f6020820190508181035f830152610fc381610f8a565b9050919050565b5f81519050610fd881610bc8565b92915050565b5f60208284031215610ff357610ff2610bc4565b5b5f61100084828501610fca565b91505092915050565b7f4e6f20737461626c65636f696e20746f20696e766573740000000000000000005f82015250565b5f61103d601783610dad565b915061104882611009565b602082019050919050565b5f6020820190508181035f83015261106a81611031565b9050919050565b5f6040820190506110845f830185610cf7565b6110916020830184610b09565b9392505050565b7f4e487b71000000000000000000000000000000000000000000000000000000005f52603260045260245ffd5b5f60029050919050565b5f81905092915050565b5f819050919050565b6110eb81610b00565b82525050565b5f6110fc83836110e2565b60208301905092915050565b5f602082019050919050565b61111d816110c5565b61112781846110cf565b9250611132826110d9565b805f5b8381101561116257815161114987826110f1565b965061115483611108565b925050600181019050611135565b505050505050565b5f60608201905061117d5f830185611114565b61118a6040830184610b09565b9392505050565b7f5265656e7472616e637947756172643a207265656e7472616e742063616c6c005f82015250565b5f6111c5601f83610dad565b91506111d082611191565b602082019050919050565b5f6020820190508181035f8301526111f2816111b9565b905091905056fea2646970667358221220b73b97442a380ff2f1bbce757f273974477a9e411a33ccbfec6316f6b66f378364736f6c634300081d0033",
					"opcodes": "PUSH1 0x80 PUSH1 0x40 MSTORE CALLVALUE DUP1 ISZERO PUSH2 0xF JUMPI PUSH0 PUSH0 REVERT JUMPDEST POP PUSH1 0x40 MLOAD PUSH2 0x1756 CODESIZE SUB DUP1 PUSH2 0x1756 DUP4 CODECOPY DUP2 DUP2 ADD PUSH1 0x40 MSTORE DUP2 ADD SWAP1 PUSH2 0x31 SWAP2 SWAP1 PUSH2 0x3C2 JUMP JUMPDEST CALLER PUSH0 PUSH20 0xFFFFFFFFFFFFFFFFFFFFFFFFFFFFFFFFFFFFFFFF AND DUP2 PUSH20 0xFFFFFFFFFFFFFFFFFFFFFFFFFFFFFFFFFFFFFFFF AND SUB PUSH2 0xA2 JUMPI PUSH0 PUSH1 0x40 MLOAD PUSH32 0x1E4FBDF700000000000000000000000000000000000000000000000000000000 DUP2 MSTORE PUSH1 0x4 ADD PUSH2 0x99 SWAP2 SWAP1 PUSH2 0x421 JUMP JUMPDEST PUSH1 0x40 MLOAD DUP1 SWAP2 SUB SWAP1 REVERT JUMPDEST PUSH2 0xB1 DUP2 PUSH2 0x224 PUSH1 0x20 SHL PUSH1 0x20 SHR JUMP JUMPDEST POP PUSH1 0x1 DUP1 DUP2 SWAP1 SSTORE POP PUSH0 PUSH20 0xFFFFFFFFFFFFFFFFFFFFFFFFFFFFFFFFFFFFFFFF AND DUP4 PUSH20 0xFFFFFFFFFFFFFFFFFFFFFFFFFFFFFFFFFFFFFFFF AND SUB PUSH2 0x127 JUMPI PUSH1 0x40 MLOAD PUSH32 0x8C379A000000000000000000000000000000000000000000000000000000000 DUP2 MSTORE PUSH1 0x4 ADD PUSH2 0x11E SWAP1 PUSH2 0x494 JUMP JUMPDEST PUSH1 0x40 MLOAD DUP1 SWAP2 SUB SWAP1 REVERT JUMPDEST PUSH0 PUSH20 0xFFFFFFFFFFFFFFFFFFFFFFFFFFFFFFFFFFFFFFFF AND DUP3 PUSH20 0xFFFFFFFFFFFFFFFFFFFFFFFFFFFFFFFFFFFFFFFF AND SUB PUSH2 0x195 JUMPI PUSH1 0x40 MLOAD PUSH32 0x8C379A000000000000000000000000000000000000000000000000000000000 DUP2 MSTORE PUSH1 0x4 ADD PUSH2 0x18C SWAP1 PUSH2 0x4FC JUMP JUMPDEST PUSH1 0x40 MLOAD DUP1 SWAP2 SUB SWAP1 REVERT JUMPDEST DUP3 PUSH1 0x2 PUSH0 PUSH2 0x100 EXP DUP2 SLOAD DUP2 PUSH20 0xFFFFFFFFFFFFFFFFFFFFFFFFFFFFFFFFFFFFFFFF MUL NOT AND SWAP1 DUP4 PUSH20 0xFFFFFFFFFFFFFFFFFFFFFFFFFFFFFFFFFFFFFFFF AND MUL OR SWAP1 SSTORE POP DUP2 PUSH1 0x3 PUSH0 PUSH2 0x100 EXP DUP2 SLOAD DUP2 PUSH20 0xFFFFFFFFFFFFFFFFFFFFFFFFFFFFFFFFFFFFFFFF MUL NOT AND SWAP1 DUP4 PUSH20 0xFFFFFFFFFFFFFFFFFFFFFFFFFFFFFFFFFFFFFFFF AND MUL OR SWAP1 SSTORE POP DUP1 PUSH1 0x4 DUP2 SWAP1 SSTORE POP POP POP POP PUSH2 0x51A JUMP JUMPDEST PUSH0 PUSH0 PUSH0 SWAP1 SLOAD SWAP1 PUSH2 0x100 EXP SWAP1 DIV PUSH20 0xFFFFFFFFFFFFFFFFFFFFFFFFFFFFFFFFFFFFFFFF AND SWAP1 POP DUP2 PUSH0 PUSH0 PUSH2 0x100 EXP DUP2 SLOAD DUP2 PUSH20 0xFFFFFFFFFFFFFFFFFFFFFFFFFFFFFFFFFFFFFFFF MUL NOT AND SWAP1 DUP4 PUSH20 0xFFFFFFFFFFFFFFFFFFFFFFFFFFFFFFFFFFFFFFFF AND MUL OR SWAP1 SSTORE POP DUP2 PUSH20 0xFFFFFFFFFFFFFFFFFFFFFFFFFFFFFFFFFFFFFFFF AND DUP2 PUSH20 0xFFFFFFFFFFFFFFFFFFFFFFFFFFFFFFFFFFFFFFFF AND PUSH32 0x8BE0079C531659141344CD1FD0A4F28419497F9722A3DAAFE3B4186F6B6457E0 PUSH1 0x40 MLOAD PUSH1 0x40 MLOAD DUP1 SWAP2 SUB SWAP1 LOG3 POP POP JUMP JUMPDEST PUSH0 PUSH0 REVERT JUMPDEST PUSH0 PUSH20 0xFFFFFFFFFFFFFFFFFFFFFFFFFFFFFFFFFFFFFFFF DUP3 AND SWAP1 POP SWAP2 SWAP1 POP JUMP JUMPDEST PUSH0 PUSH2 0x312 DUP3 PUSH2 0x2E9 JUMP JUMPDEST SWAP1 POP SWAP2 SWAP1 POP JUMP JUMPDEST PUSH0 PUSH2 0x323 DUP3 PUSH2 0x308 JUMP JUMPDEST SWAP1 POP SWAP2 SWAP1 POP JUMP JUMPDEST PUSH2 0x333 DUP2 PUSH2 0x319 JUMP JUMPDEST DUP2 EQ PUSH2 0x33D JUMPI PUSH0 PUSH0 REVERT JUMPDEST POP JUMP JUMPDEST PUSH0 DUP2 MLOAD SWAP1 POP PUSH2 0x34E DUP2 PUSH2 0x32A JUMP JUMPDEST SWAP3 SWAP2 POP POP JUMP JUMPDEST PUSH0 PUSH2 0x35E DUP3 PUSH2 0x308 JUMP JUMPDEST SWAP1 POP SWAP2 SWAP1 POP JUMP JUMPDEST PUSH2 0x36E DUP2 PUSH2 0x354 JUMP JUMPDEST DUP2 EQ PUSH2 0x378 JUMPI PUSH0 PUSH0 REVERT JUMPDEST POP JUMP JUMPDEST PUSH0 DUP2 MLOAD SWAP1 POP PUSH2 0x389 DUP2 PUSH2 0x365 JUMP JUMPDEST SWAP3 SWAP2 POP POP JUMP JUMPDEST PUSH0 DUP2 SWAP1 POP SWAP2 SWAP1 POP JUMP JUMPDEST PUSH2 0x3A1 DUP2 PUSH2 0x38F JUMP JUMPDEST DUP2 EQ PUSH2 0x3AB JUMPI PUSH0 PUSH0 REVERT JUMPDEST POP JUMP JUMPDEST PUSH0 DUP2 MLOAD SWAP1 POP PUSH2 0x3BC DUP2 PUSH2 0x398 JUMP JUMPDEST SWAP3 SWAP2 POP POP JUMP JUMPDEST PUSH0 PUSH0 PUSH0 PUSH1 0x60 DUP5 DUP7 SUB SLT ISZERO PUSH2 0x3D9 JUMPI PUSH2 0x3D8 PUSH2 0x2E5 JUMP JUMPDEST JUMPDEST PUSH0 PUSH2 0x3E6 DUP7 DUP3 DUP8 ADD PUSH2 0x340 JUMP JUMPDEST SWAP4 POP POP PUSH1 0x20 PUSH2 0x3F7 DUP7 DUP3 DUP8 ADD PUSH2 0x37B JUMP JUMPDEST SWAP3 POP POP PUSH1 0x40 PUSH2 0x408 DUP7 DUP3 DUP8 ADD PUSH2 0x3AE JUMP JUMPDEST SWAP2 POP POP SWAP3 POP SWAP3 POP SWAP3 JUMP JUMPDEST PUSH2 0x41B DUP2 PUSH2 0x308 JUMP JUMPDEST DUP3 MSTORE POP POP JUMP JUMPDEST PUSH0 PUSH1 0x20 DUP3 ADD SWAP1 POP PUSH2 0x434 PUSH0 DUP4 ADD DUP5 PUSH2 0x412 JUMP JUMPDEST SWAP3 SWAP2 POP POP JUMP JUMPDEST PUSH0 DUP3 DUP3 MSTORE PUSH1 0x20 DUP3 ADD SWAP1 POP SWAP3 SWAP2 POP POP JUMP JUMPDEST PUSH32 0x496E76616C696420737461626C65636F696E2061646472657373000000000000 PUSH0 DUP3 ADD MSTORE POP JUMP JUMPDEST PUSH0 PUSH2 0x47E PUSH1 0x1A DUP4 PUSH2 0x43A JUMP JUMPDEST SWAP2 POP PUSH2 0x489 DUP3 PUSH2 0x44A JUMP JUMPDEST PUSH1 0x20 DUP3 ADD SWAP1 POP SWAP2 SWAP1 POP JUMP JUMPDEST PUSH0 PUSH1 0x20 DUP3 ADD SWAP1 POP DUP2 DUP2 SUB PUSH0 DUP4 ADD MSTORE PUSH2 0x4AB DUP2 PUSH2 0x472 JUMP JUMPDEST SWAP1 POP SWAP2 SWAP1 POP JUMP JUMPDEST PUSH32 0x496E76616C696420706F6F6C2061646472657373000000000000000000000000 PUSH0 DUP3 ADD MSTORE POP JUMP JUMPDEST PUSH0 PUSH2 0x4E6 PUSH1 0x14 DUP4 PUSH2 0x43A JUMP JUMPDEST SWAP2 POP PUSH2 0x4F1 DUP3 PUSH2 0x4B2 JUMP JUMPDEST PUSH1 0x20 DUP3 ADD SWAP1 POP SWAP2 SWAP1 POP JUMP JUMPDEST PUSH0 PUSH1 0x20 DUP3 ADD SWAP1 POP DUP2 DUP2 SUB PUSH0 DUP4 ADD MSTORE PUSH2 0x513 DUP2 PUSH2 0x4DA JUMP JUMPDEST SWAP1 POP SWAP2 SWAP1 POP JUMP JUMPDEST PUSH2 0x122F DUP1 PUSH2 0x527 PUSH0 CODECOPY PUSH0 RETURN INVALID PUSH1 0x80 PUSH1 0x40 MSTORE CALLVALUE DUP1 ISZERO PUSH2 0xF JUMPI PUSH0 PUSH0 REVERT JUMPDEST POP PUSH1 0x4 CALLDATASIZE LT PUSH2 0xA7 JUMPI PUSH0 CALLDATALOAD PUSH1 0xE0 SHR DUP1 PUSH4 0x715018A6 GT PUSH2 0x6F JUMPI DUP1 PUSH4 0x715018A6 EQ PUSH2 0x13B JUMPI DUP1 PUSH4 0x7B46C54F EQ PUSH2 0x145 JUMPI DUP1 PUSH4 0x8DA5CB5B EQ PUSH2 0x161 JUMPI DUP1 PUSH4 0xE8B5E51F EQ PUSH2 0x17F JUMPI DUP1 PUSH4 0xE9CBD822 EQ PUSH2 0x189 JUMPI DUP1 PUSH4 0xF2FDE38B EQ PUSH2 0x1A7 JUMPI PUSH2 0xA7 JUMP JUMPDEST DUP1 PUSH4 0x1E9D757 EQ PUSH2 0xAB JUMPI DUP1 PUSH4 0x218751B2 EQ PUSH2 0xC9 JUMPI DUP1 PUSH4 0x59F99C53 EQ PUSH2 0xE7 JUMPI DUP1 PUSH4 0x5E4EAEE7 EQ PUSH2 0x103 JUMPI DUP1 PUSH4 0x6DD84AC1 EQ PUSH2 0x11F JUMPI JUMPDEST PUSH0 PUSH0 REVERT JUMPDEST PUSH2 0xB3 PUSH2 0x1C3 JUMP JUMPDEST PUSH1 0x40 MLOAD PUSH2 0xC0 SWAP2 SWAP1 PUSH2 0xB18 JUMP JUMPDEST PUSH1 0x40 MLOAD DUP1 SWAP2 SUB SWAP1 RETURN JUMPDEST PUSH2 0xD1 PUSH2 0x1C9 JUMP JUMPDEST PUSH1 0x40 MLOAD PUSH2 0xDE SWAP2 SWAP1 PUSH2 0xBAB JUMP JUMPDEST PUSH1 0x40 MLOAD DUP1 SWAP2 SUB SWAP1 RETURN JUMPDEST PUSH2 0x101 PUSH1 0x4 DUP1 CALLDATASIZE SUB DUP2 ADD SWAP1 PUSH2 0xFC SWAP2 SWAP1 PUSH2 0xBF2 JUMP JUMPDEST PUSH2 0x1EE JUMP JUMPDEST STOP JUMPDEST PUSH2 0x11D PUSH1 0x4 DUP1 CALLDATASIZE SUB DUP2 ADD SWAP1 PUSH2 0x118 SWAP2 SWAP1 PUSH2 0xC42 JUMP JUMPDEST PUSH2 0x376 JUMP JUMPDEST STOP JUMPDEST PUSH2 0x139 PUSH1 0x4 DUP1 CALLDATASIZE SUB DUP2 ADD SWAP1 PUSH2 0x134 SWAP2 SWAP1 PUSH2 0xBF2 JUMP JUMPDEST PUSH2 0x452 JUMP JUMPDEST STOP JUMPDEST PUSH2 0x143 PUSH2 0x49B JUMP JUMPDEST STOP JUMPDEST PUSH2 0x15F PUSH1 0x4 DUP1 CALLDATASIZE SUB DUP2 ADD SWAP1 PUSH2 0x15A SWAP2 SWAP1 PUSH2 0xCCC JUMP JUMPDEST PUSH2 0x4AE JUMP JUMPDEST STOP JUMPDEST PUSH2 0x169 PUSH2 0x5AA JUMP JUMPDEST PUSH1 0x40 MLOAD PUSH2 0x176 SWAP2 SWAP1 PUSH2 0xD06 JUMP JUMPDEST PUSH1 0x40 MLOAD DUP1 SWAP2 SUB SWAP1 RETURN JUMPDEST PUSH2 0x187 PUSH2 0x5D1 JUMP JUMPDEST STOP JUMPDEST PUSH2 0x191 PUSH2 0x88E JUMP JUMPDEST PUSH1 0x40 MLOAD PUSH2 0x19E SWAP2 SWAP1 PUSH2 0xD3F JUMP JUMPDEST PUSH1 0x40 MLOAD DUP1 SWAP2 SUB SWAP1 RETURN JUMPDEST PUSH2 0x1C1 PUSH1 0x4 DUP1 CALLDATASIZE SUB DUP2 ADD SWAP1 PUSH2 0x1BC SWAP2 SWAP1 PUSH2 0xD82 JUMP JUMPDEST PUSH2 0x8B3 JUMP JUMPDEST STOP JUMPDEST PUSH1 0x4 SLOAD DUP2 JUMP JUMPDEST PUSH1 0x3 PUSH0 SWAP1 SLOAD SWAP1 PUSH2 0x100 EXP SWAP1 DIV PUSH20 0xFFFFFFFFFFFFFFFFFFFFFFFFFFFFFFFFFFFFFFFF AND DUP2 JUMP JUMPDEST PUSH2 0x1F6 PUSH2 0x937 JUMP JUMPDEST PUSH2 0x1FE PUSH2 0x9BE JUMP JUMPDEST PUSH0 DUP2 GT PUSH2 0x240 JUMPI PUSH1 0x40 MLOAD PUSH32 0x8C379A000000000000000000000000000000000000000000000000000000000 DUP2 MSTORE PUSH1 0x4 ADD PUSH2 0x237 SWAP1 PUSH2 0xE07 JUMP JUMPDEST PUSH1 0x40 MLOAD DUP1 SWAP2 SUB SWAP1 REVERT JUMPDEST PUSH1 0x2 PUSH0 SWAP1 SLOAD SWAP1 PUSH2 0x100 EXP SWAP1 DIV PUSH20 0xFFFFFFFFFFFFFFFFFFFFFFFFFFFFFFFFFFFFFFFF AND PUSH20 0xFFFFFFFFFFFFFFFFFFFFFFFFFFFFFFFFFFFFFFFF AND PUSH4 0x23B872DD CALLER ADDRESS DUP5 PUSH1 0x40 MLOAD DUP5 PUSH4 0xFFFFFFFF AND PUSH1 0xE0 SHL DUP2 MSTORE PUSH1 0x4 ADD PUSH2 0x29E SWAP4 SWAP3 SWAP2 SWAP1 PUSH2 0xE25 JUMP JUMPDEST PUSH1 0x20 PUSH1 0x40 MLOAD DUP1 DUP4 SUB DUP2 PUSH0 DUP8 GAS CALL ISZERO DUP1 ISZERO PUSH2 0x2BA JUMPI RETURNDATASIZE PUSH0 PUSH0 RETURNDATACOPY RETURNDATASIZE PUSH0 REVERT JUMPDEST POP POP POP POP PUSH1 0x40 MLOAD RETURNDATASIZE PUSH1 0x1F NOT PUSH1 0x1F DUP3 ADD AND DUP3 ADD DUP1 PUSH1 0x40 MSTORE POP DUP2 ADD SWAP1 PUSH2 0x2DE SWAP2 SWAP1 PUSH2 0xE8F JUMP JUMPDEST PUSH2 0x31D JUMPI PUSH1 0x40 MLOAD PUSH32 0x8C379A000000000000000000000000000000000000000000000000000000000 DUP2 MSTORE PUSH1 0x4 ADD PUSH2 0x314 SWAP1 PUSH2 0xF04 JUMP JUMPDEST PUSH1 0x40 MLOAD DUP1 SWAP2 SUB SWAP1 REVERT JUMPDEST CALLER PUSH20 0xFFFFFFFFFFFFFFFFFFFFFFFFFFFFFFFFFFFFFFFF AND PUSH32 0x34BD8D27FD8224D934D60847620B61F621773145DB194AACFF8B7F3E9AE3B7C0 DUP3 PUSH1 0x40 MLOAD PUSH2 0x363 SWAP2 SWAP1 PUSH2 0xB18 JUMP JUMPDEST PUSH1 0x40 MLOAD DUP1 SWAP2 SUB SWAP1 LOG2 PUSH2 0x373 PUSH2 0xA0D JUMP JUMPDEST POP JUMP JUMPDEST PUSH2 0x37E PUSH2 0x937 JUMP JUMPDEST PUSH2 0x386 PUSH2 0x9BE JUMP JUMPDEST PUSH1 0x3 PUSH0 SWAP1 SLOAD SWAP1 PUSH2 0x100 EXP SWAP1 DIV PUSH20 0xFFFFFFFFFFFFFFFFFFFFFFFFFFFFFFFFFFFFFFFF AND PUSH20 0xFFFFFFFFFFFFFFFFFFFFFFFFFFFFFFFFFFFFFFFF AND PUSH4 0x5B36389C DUP4 DUP4 PUSH1 0x40 MLOAD DUP4 PUSH4 0xFFFFFFFF AND PUSH1 0xE0 SHL DUP2 MSTORE PUSH1 0x4 ADD PUSH2 0x3E2 SWAP3 SWAP2 SWAP1 PUSH2 0xF3B JUMP JUMPDEST PUSH0 PUSH1 0x40 MLOAD DUP1 DUP4 SUB DUP2 PUSH0 DUP8 DUP1 EXTCODESIZE ISZERO DUP1 ISZERO PUSH2 0x3F9 JUMPI PUSH0 PUSH0 REVERT JUMPDEST POP GAS CALL ISZERO DUP1 ISZERO PUSH2 0x40B JUMPI RETURNDATASIZE PUSH0 PUSH0 RETURNDATACOPY RETURNDATASIZE PUSH0 REVERT JUMPDEST POP POP POP POP PUSH32 0x73CE532F480864BD2FCCD1BCDBB4C8151F02CD9450C4F3E5B834EF74503ABDB2 DUP3 PUSH1 0x40 MLOAD PUSH2 0x43E SWAP2 SWAP1 PUSH2 0xB18 JUMP JUMPDEST PUSH1 0x40 MLOAD DUP1 SWAP2 SUB SWAP1 LOG1 PUSH2 0x44E PUSH2 0xA0D JUMP JUMPDEST POP POP JUMP JUMPDEST PUSH2 0x45A PUSH2 0x937 JUMP JUMPDEST DUP1 PUSH1 0x4 DUP2 SWAP1 SSTORE POP PUSH32 0xAE98803C2C4B18AEF1109A8FBEE5391DCDFA538ADBD1C7F138C8B58C191E7274 DUP2 PUSH1 0x40 MLOAD PUSH2 0x490 SWAP2 SWAP1 PUSH2 0xB18 JUMP JUMPDEST PUSH1 0x40 MLOAD DUP1 SWAP2 SUB SWAP1 LOG1 POP JUMP JUMPDEST PUSH2 0x4A3 PUSH2 0x937 JUMP JUMPDEST PUSH2 0x4AC PUSH0 PUSH2 0xA16 JUMP JUMPDEST JUMP JUMPDEST PUSH2 0x4B6 PUSH2 0x937 JUMP JUMPDEST PUSH0 PUSH20 0xFFFFFFFFFFFFFFFFFFFFFFFFFFFFFFFFFFFFFFFF AND DUP2 PUSH20 0xFFFFFFFFFFFFFFFFFFFFFFFFFFFFFFFFFFFFFFFF AND SUB PUSH2 0x524 JUMPI PUSH1 0x40 MLOAD PUSH32 0x8C379A000000000000000000000000000000000000000000000000000000000 DUP2 MSTORE PUSH1 0x4 ADD PUSH2 0x51B SWAP1 PUSH2 0xFAC JUMP JUMPDEST PUSH1 0x40 MLOAD DUP1 SWAP2 SUB SWAP1 REVERT JUMPDEST DUP1 PUSH1 0x3 PUSH0 PUSH2 0x100 EXP DUP2 SLOAD DUP2 PUSH20 0xFFFFFFFFFFFFFFFFFFFFFFFFFFFFFFFFFFFFFFFF MUL NOT AND SWAP1 DUP4 PUSH20 0xFFFFFFFFFFFFFFFFFFFFFFFFFFFFFFFFFFFFFFFF AND MUL OR SWAP1 SSTORE POP DUP1 PUSH20 0xFFFFFFFFFFFFFFFFFFFFFFFFFFFFFFFFFFFFFFFF AND PUSH32 0x380CEC482764DDEF4F75351B5398E3E2BEA99BA23E53A00D5521F569FB668E1F PUSH1 0x40 MLOAD PUSH1 0x40 MLOAD DUP1 SWAP2 SUB SWAP1 LOG2 POP JUMP JUMPDEST PUSH0 PUSH0 PUSH0 SWAP1 SLOAD SWAP1 PUSH2 0x100 EXP SWAP1 DIV PUSH20 0xFFFFFFFFFFFFFFFFFFFFFFFFFFFFFFFFFFFFFFFF AND SWAP1 POP SWAP1 JUMP JUMPDEST PUSH2 0x5D9 PUSH2 0x937 JUMP JUMPDEST PUSH2 0x5E1 PUSH2 0x9BE JUMP JUMPDEST PUSH0 PUSH1 0x2 PUSH0 SWAP1 SLOAD SWAP1 PUSH2 0x100 EXP SWAP1 DIV PUSH20 0xFFFFFFFFFFFFFFFFFFFFFFFFFFFFFFFFFFFFFFFF AND PUSH20 0xFFFFFFFFFFFFFFFFFFFFFFFFFFFFFFFFFFFFFFFF AND PUSH4 0x70A08231 ADDRESS PUSH1 0x40 MLOAD DUP3 PUSH4 0xFFFFFFFF AND PUSH1 0xE0 SHL DUP2 MSTORE PUSH1 0x4 ADD PUSH2 0x63C SWAP2 SWAP1 PUSH2 0xD06 JUMP JUMPDEST PUSH1 0x20 PUSH1 0x40 MLOAD DUP1 DUP4 SUB DUP2 DUP7 GAS STATICCALL ISZERO DUP1 ISZERO PUSH2 0x657 JUMPI RETURNDATASIZE PUSH0 PUSH0 RETURNDATACOPY RETURNDATASIZE PUSH0 REVERT JUMPDEST POP POP POP POP PUSH1 0x40 MLOAD RETURNDATASIZE PUSH1 0x1F NOT PUSH1 0x1F DUP3 ADD AND DUP3 ADD DUP1 PUSH1 0x40 MSTORE POP DUP2 ADD SWAP1 PUSH2 0x67B SWAP2 SWAP1 PUSH2 0xFDE JUMP JUMPDEST SWAP1 POP PUSH0 DUP2 GT PUSH2 0x6BF JUMPI PUSH1 0x40 MLOAD PUSH32 0x8C379A000000000000000000000000000000000000000000000000000000000 DUP2 MSTORE PUSH1 0x4 ADD PUSH2 0x6B6 SWAP1 PUSH2 0x1053 JUMP JUMPDEST PUSH1 0x40 MLOAD DUP1 SWAP2 SUB SWAP1 REVERT JUMPDEST PUSH1 0x2 PUSH0 SWAP1 SLOAD SWAP1 PUSH2 0x100 EXP SWAP1 DIV PUSH20 0xFFFFFFFFFFFFFFFFFFFFFFFFFFFFFFFFFFFFFFFF AND PUSH20 0xFFFFFFFFFFFFFFFFFFFFFFFFFFFFFFFFFFFFFFFF AND PUSH4 0x95EA7B3 PUSH1 0x3 PUSH0 SWAP1 SLOAD SWAP1 PUSH2 0x100 EXP SWAP1 DIV PUSH20 0xFFFFFFFFFFFFFFFFFFFFFFFFFFFFFFFFFFFFFFFF AND DUP4 PUSH1 0x40 MLOAD DUP4 PUSH4 0xFFFFFFFF AND PUSH1 0xE0 SHL DUP2 MSTORE PUSH1 0x4 ADD PUSH2 0x73C SWAP3 SWAP2 SWAP1 PUSH2 0x1071 JUMP JUMPDEST PUSH1 0x20 PUSH1 0x40 MLOAD DUP1 DUP4 SUB DUP2 PUSH0 DUP8 GAS CALL ISZERO DUP1 ISZERO PUSH2 0x758 JUMPI RETURNDATASIZE PUSH0 PUSH0 RETURNDATACOPY RETURNDATASIZE PUSH0 REVERT JUMPDEST POP POP POP POP PUSH1 0x40 MLOAD RETURNDATASIZE PUSH1 0x1F NOT PUSH1 0x1F DUP3 ADD AND DUP3 ADD DUP1 PUSH1 0x40 MSTORE POP DUP2 ADD SWAP1 PUSH2 0x77C SWAP2 SWAP1 PUSH2 0xE8F JUMP JUMPDEST POP PUSH2 0x785 PUSH2 0xADE JUMP JUMPDEST DUP2 DUP2 PUSH0 PUSH1 0x2 DUP2 LT PUSH2 0x799 JUMPI PUSH2 0x798 PUSH2 0x1098 JUMP JUMPDEST JUMPDEST PUSH1 0x20 MUL ADD DUP2 DUP2 MSTORE POP POP PUSH0 DUP2 PUSH1 0x1 PUSH1 0x2 DUP2 LT PUSH2 0x7B7 JUMPI PUSH2 0x7B6 PUSH2 0x1098 JUMP JUMPDEST JUMPDEST PUSH1 0x20 MUL ADD DUP2 DUP2 MSTORE POP POP PUSH1 0x3 PUSH0 SWAP1 SLOAD SWAP1 PUSH2 0x100 EXP SWAP1 DIV PUSH20 0xFFFFFFFFFFFFFFFFFFFFFFFFFFFFFFFFFFFFFFFF AND PUSH20 0xFFFFFFFFFFFFFFFFFFFFFFFFFFFFFFFFFFFFFFFF AND PUSH4 0xB4C7E4D DUP3 PUSH1 0x4 SLOAD PUSH1 0x40 MLOAD DUP4 PUSH4 0xFFFFFFFF AND PUSH1 0xE0 SHL DUP2 MSTORE PUSH1 0x4 ADD PUSH2 0x81E SWAP3 SWAP2 SWAP1 PUSH2 0x116A JUMP JUMPDEST PUSH0 PUSH1 0x40 MLOAD DUP1 DUP4 SUB DUP2 PUSH0 DUP8 DUP1 EXTCODESIZE ISZERO DUP1 ISZERO PUSH2 0x835 JUMPI PUSH0 PUSH0 REVERT JUMPDEST POP GAS CALL ISZERO DUP1 ISZERO PUSH2 0x847 JUMPI RETURNDATASIZE PUSH0 PUSH0 RETURNDATACOPY RETURNDATASIZE PUSH0 REVERT JUMPDEST POP POP POP POP PUSH32 0xAC9F7997C30B6A3CC9C74953898B5DE154359339C7EC0D6D70CEB98E55DB1A4B DUP3 PUSH1 0x40 MLOAD PUSH2 0x87A SWAP2 SWAP1 PUSH2 0xB18 JUMP JUMPDEST PUSH1 0x40 MLOAD DUP1 SWAP2 SUB SWAP1 LOG1 POP POP PUSH2 0x88C PUSH2 0xA0D JUMP JUMPDEST JUMP JUMPDEST PUSH1 0x2 PUSH0 SWAP1 SLOAD SWAP1 PUSH2 0x100 EXP SWAP1 DIV PUSH20 0xFFFFFFFFFFFFFFFFFFFFFFFFFFFFFFFFFFFFFFFF AND DUP2 JUMP JUMPDEST PUSH2 0x8BB PUSH2 0x937 JUMP JUMPDEST PUSH0 PUSH20 0xFFFFFFFFFFFFFFFFFFFFFFFFFFFFFFFFFFFFFFFF AND DUP2 PUSH20 0xFFFFFFFFFFFFFFFFFFFFFFFFFFFFFFFFFFFFFFFF AND SUB PUSH2 0x92B JUMPI PUSH0 PUSH1 0x40 MLOAD PUSH32 0x1E4FBDF700000000000000000000000000000000000000000000000000000000 DUP2 MSTORE PUSH1 0x4 ADD PUSH2 0x922 SWAP2 SWAP1 PUSH2 0xD06 JUMP JUMPDEST PUSH1 0x40 MLOAD DUP1 SWAP2 SUB SWAP1 REVERT JUMPDEST PUSH2 0x934 DUP2 PUSH2 0xA16 JUMP JUMPDEST POP JUMP JUMPDEST PUSH2 0x93F PUSH2 0xAD7 JUMP JUMPDEST PUSH20 0xFFFFFFFFFFFFFFFFFFFFFFFFFFFFFFFFFFFFFFFF AND PUSH2 0x95D PUSH2 0x5AA JUMP JUMPDEST PUSH20 0xFFFFFFFFFFFFFFFFFFFFFFFFFFFFFFFFFFFFFFFF AND EQ PUSH2 0x9BC JUMPI PUSH2 0x980 PUSH2 0xAD7 JUMP JUMPDEST PUSH1 0x40 MLOAD PUSH32 0x118CDAA700000000000000000000000000000000000000000000000000000000 DUP2 MSTORE PUSH1 0x4 ADD PUSH2 0x9B3 SWAP2 SWAP1 PUSH2 0xD06 JUMP JUMPDEST PUSH1 0x40 MLOAD DUP1 SWAP2 SUB SWAP1 REVERT JUMPDEST JUMP JUMPDEST PUSH1 0x2 PUSH1 0x1 SLOAD SUB PUSH2 0xA03 JUMPI PUSH1 0x40 MLOAD PUSH32 0x8C379A000000000000000000000000000000000000000000000000000000000 DUP2 MSTORE PUSH1 0x4 ADD PUSH2 0x9FA SWAP1 PUSH2 0x11DB JUMP JUMPDEST PUSH1 0x40 MLOAD DUP1 SWAP2 SUB SWAP1 REVERT JUMPDEST PUSH1 0x2 PUSH1 0x1 DUP2 SWAP1 SSTORE POP JUMP JUMPDEST PUSH1 0x1 DUP1 DUP2 SWAP1 SSTORE POP JUMP JUMPDEST PUSH0 PUSH0 PUSH0 SWAP1 SLOAD SWAP1 PUSH2 0x100 EXP SWAP1 DIV PUSH20 0xFFFFFFFFFFFFFFFFFFFFFFFFFFFFFFFFFFFFFFFF AND SWAP1 POP DUP2 PUSH0 PUSH0 PUSH2 0x100 EXP DUP2 SLOAD DUP2 PUSH20 0xFFFFFFFFFFFFFFFFFFFFFFFFFFFFFFFFFFFFFFFF MUL NOT AND SWAP1 DUP4 PUSH20 0xFFFFFFFFFFFFFFFFFFFFFFFFFFFFFFFFFFFFFFFF AND MUL OR SWAP1 SSTORE POP DUP2 PUSH20 0xFFFFFFFFFFFFFFFFFFFFFFFFFFFFFFFFFFFFFFFF AND DUP2 PUSH20 0xFFFFFFFFFFFFFFFFFFFFFFFFFFFFFFFFFFFFFFFF AND PUSH32 0x8BE0079C531659141344CD1FD0A4F28419497F9722A3DAAFE3B4186F6B6457E0 PUSH1 0x40 MLOAD PUSH1 0x40 MLOAD DUP1 SWAP2 SUB SWAP1 LOG3 POP POP JUMP JUMPDEST PUSH0 CALLER SWAP1 POP SWAP1 JUMP JUMPDEST PUSH1 0x40 MLOAD DUP1 PUSH1 0x40 ADD PUSH1 0x40 MSTORE DUP1 PUSH1 0x2 SWAP1 PUSH1 0x20 DUP3 MUL DUP1 CALLDATASIZE DUP4 CALLDATACOPY DUP1 DUP3 ADD SWAP2 POP POP SWAP1 POP POP SWAP1 JUMP JUMPDEST PUSH0 DUP2 SWAP1 POP SWAP2 SWAP1 POP JUMP JUMPDEST PUSH2 0xB12 DUP2 PUSH2 0xB00 JUMP JUMPDEST DUP3 MSTORE POP POP JUMP JUMPDEST PUSH0 PUSH1 0x20 DUP3 ADD SWAP1 POP PUSH2 0xB2B PUSH0 DUP4 ADD DUP5 PUSH2 0xB09 JUMP JUMPDEST SWAP3 SWAP2 POP POP JUMP JUMPDEST PUSH0 PUSH20 0xFFFFFFFFFFFFFFFFFFFFFFFFFFFFFFFFFFFFFFFF DUP3 AND SWAP1 POP SWAP2 SWAP1 POP JUMP JUMPDEST PUSH0 DUP2 SWAP1 POP SWAP2 SWAP1 POP JUMP JUMPDEST PUSH0 PUSH2 0xB73 PUSH2 0xB6E PUSH2 0xB69 DUP5 PUSH2 0xB31 JUMP JUMPDEST PUSH2 0xB50 JUMP JUMPDEST PUSH2 0xB31 JUMP JUMPDEST SWAP1 POP SWAP2 SWAP1 POP JUMP JUMPDEST PUSH0 PUSH2 0xB84 DUP3 PUSH2 0xB59 JUMP JUMPDEST SWAP1 POP SWAP2 SWAP1 POP JUMP JUMPDEST PUSH0 PUSH2 0xB95 DUP3 PUSH2 0xB7A JUMP JUMPDEST SWAP1 POP SWAP2 SWAP1 POP JUMP JUMPDEST PUSH2 0xBA5 DUP2 PUSH2 0xB8B JUMP JUMPDEST DUP3 MSTORE POP POP JUMP JUMPDEST PUSH0 PUSH1 0x20 DUP3 ADD SWAP1 POP PUSH2 0xBBE PUSH0 DUP4 ADD DUP5 PUSH2 0xB9C JUMP JUMPDEST SWAP3 SWAP2 POP POP JUMP JUMPDEST PUSH0 PUSH0 REVERT JUMPDEST PUSH2 0xBD1 DUP2 PUSH2 0xB00 JUMP JUMPDEST DUP2 EQ PUSH2 0xBDB JUMPI PUSH0 PUSH0 REVERT JUMPDEST POP JUMP JUMPDEST PUSH0 DUP2 CALLDATALOAD SWAP1 POP PUSH2 0xBEC DUP2 PUSH2 0xBC8 JUMP JUMPDEST SWAP3 SWAP2 POP POP JUMP JUMPDEST PUSH0 PUSH1 0x20 DUP3 DUP5 SUB SLT ISZERO PUSH2 0xC07 JUMPI PUSH2 0xC06 PUSH2 0xBC4 JUMP JUMPDEST JUMPDEST PUSH0 PUSH2 0xC14 DUP5 DUP3 DUP6 ADD PUSH2 0xBDE JUMP JUMPDEST SWAP2 POP POP SWAP3 SWAP2 POP POP JUMP JUMPDEST PUSH0 PUSH0 REVERT JUMPDEST PUSH0 DUP2 SWAP1 POP DUP3 PUSH1 0x20 PUSH1 0x2 MUL DUP3 ADD GT ISZERO PUSH2 0xC3C JUMPI PUSH2 0xC3B PUSH2 0xC1D JUMP JUMPDEST JUMPDEST SWAP3 SWAP2 POP POP JUMP JUMPDEST PUSH0 PUSH0 PUSH1 0x60 DUP4 DUP6 SUB SLT ISZERO PUSH2 0xC58 JUMPI PUSH2 0xC57 PUSH2 0xBC4 JUMP JUMPDEST JUMPDEST PUSH0 PUSH2 0xC65 DUP6 DUP3 DUP7 ADD PUSH2 0xBDE JUMP JUMPDEST SWAP3 POP POP PUSH1 0x20 PUSH2 0xC76 DUP6 DUP3 DUP7 ADD PUSH2 0xC21 JUMP JUMPDEST SWAP2 POP POP SWAP3 POP SWAP3 SWAP1 POP JUMP JUMPDEST PUSH0 PUSH2 0xC8A DUP3 PUSH2 0xB31 JUMP JUMPDEST SWAP1 POP SWAP2 SWAP1 POP JUMP JUMPDEST PUSH0 PUSH2 0xC9B DUP3 PUSH2 0xC80 JUMP JUMPDEST SWAP1 POP SWAP2 SWAP1 POP JUMP JUMPDEST PUSH2 0xCAB DUP2 PUSH2 0xC91 JUMP JUMPDEST DUP2 EQ PUSH2 0xCB5 JUMPI PUSH0 PUSH0 REVERT JUMPDEST POP JUMP JUMPDEST PUSH0 DUP2 CALLDATALOAD SWAP1 POP PUSH2 0xCC6 DUP2 PUSH2 0xCA2 JUMP JUMPDEST SWAP3 SWAP2 POP POP JUMP JUMPDEST PUSH0 PUSH1 0x20 DUP3 DUP5 SUB SLT ISZERO PUSH2 0xCE1 JUMPI PUSH2 0xCE0 PUSH2 0xBC4 JUMP JUMPDEST JUMPDEST PUSH0 PUSH2 0xCEE DUP5 DUP3 DUP6 ADD PUSH2 0xCB8 JUMP JUMPDEST SWAP2 POP POP SWAP3 SWAP2 POP POP JUMP JUMPDEST PUSH2 0xD00 DUP2 PUSH2 0xC80 JUMP JUMPDEST DUP3 MSTORE POP POP JUMP JUMPDEST PUSH0 PUSH1 0x20 DUP3 ADD SWAP1 POP PUSH2 0xD19 PUSH0 DUP4 ADD DUP5 PUSH2 0xCF7 JUMP JUMPDEST SWAP3 SWAP2 POP POP JUMP JUMPDEST PUSH0 PUSH2 0xD29 DUP3 PUSH2 0xB7A JUMP JUMPDEST SWAP1 POP SWAP2 SWAP1 POP JUMP JUMPDEST PUSH2 0xD39 DUP2 PUSH2 0xD1F JUMP JUMPDEST DUP3 MSTORE POP POP JUMP JUMPDEST PUSH0 PUSH1 0x20 DUP3 ADD SWAP1 POP PUSH2 0xD52 PUSH0 DUP4 ADD DUP5 PUSH2 0xD30 JUMP JUMPDEST SWAP3 SWAP2 POP POP JUMP JUMPDEST PUSH2 0xD61 DUP2 PUSH2 0xC80 JUMP JUMPDEST DUP2 EQ PUSH2 0xD6B JUMPI PUSH0 PUSH0 REVERT JUMPDEST POP JUMP JUMPDEST PUSH0 DUP2 CALLDATALOAD SWAP1 POP PUSH2 0xD7C DUP2 PUSH2 0xD58 JUMP JUMPDEST SWAP3 SWAP2 POP POP JUMP JUMPDEST PUSH0 PUSH1 0x20 DUP3 DUP5 SUB SLT ISZERO PUSH2 0xD97 JUMPI PUSH2 0xD96 PUSH2 0xBC4 JUMP JUMPDEST JUMPDEST PUSH0 PUSH2 0xDA4 DUP5 DUP3 DUP6 ADD PUSH2 0xD6E JUMP JUMPDEST SWAP2 POP POP SWAP3 SWAP2 POP POP JUMP JUMPDEST PUSH0 DUP3 DUP3 MSTORE PUSH1 0x20 DUP3 ADD SWAP1 POP SWAP3 SWAP2 POP POP JUMP JUMPDEST PUSH32 0x416D6F756E74206D757374206265203E20300000000000000000000000000000 PUSH0 DUP3 ADD MSTORE POP JUMP JUMPDEST PUSH0 PUSH2 0xDF1 PUSH1 0x12 DUP4 PUSH2 0xDAD JUMP JUMPDEST SWAP2 POP PUSH2 0xDFC DUP3 PUSH2 0xDBD JUMP JUMPDEST PUSH1 0x20 DUP3 ADD SWAP1 POP SWAP2 SWAP1 POP JUMP JUMPDEST PUSH0 PUSH1 0x20 DUP3 ADD SWAP1 POP DUP2 DUP2 SUB PUSH0 DUP4 ADD MSTORE PUSH2 0xE1E DUP2 PUSH2 0xDE5 JUMP JUMPDEST SWAP1 POP SWAP2 SWAP1 POP JUMP JUMPDEST PUSH0 PUSH1 0x60 DUP3 ADD SWAP1 POP PUSH2 0xE38 PUSH0 DUP4 ADD DUP7 PUSH2 0xCF7 JUMP JUMPDEST PUSH2 0xE45 PUSH1 0x20 DUP4 ADD DUP6 PUSH2 0xCF7 JUMP JUMPDEST PUSH2 0xE52 PUSH1 0x40 DUP4 ADD DUP5 PUSH2 0xB09 JUMP JUMPDEST SWAP5 SWAP4 POP POP POP POP JUMP JUMPDEST PUSH0 DUP2 ISZERO ISZERO SWAP1 POP SWAP2 SWAP1 POP JUMP JUMPDEST PUSH2 0xE6E DUP2 PUSH2 0xE5A JUMP JUMPDEST DUP2 EQ PUSH2 0xE78 JUMPI PUSH0 PUSH0 REVERT JUMPDEST POP JUMP JUMPDEST PUSH0 DUP2 MLOAD SWAP1 POP PUSH2 0xE89 DUP2 PUSH2 0xE65 JUMP JUMPDEST SWAP3 SWAP2 POP POP JUMP JUMPDEST PUSH0 PUSH1 0x20 DUP3 DUP5 SUB SLT ISZERO PUSH2 0xEA4 JUMPI PUSH2 0xEA3 PUSH2 0xBC4 JUMP JUMPDEST JUMPDEST PUSH0 PUSH2 0xEB1 DUP5 DUP3 DUP6 ADD PUSH2 0xE7B JUMP JUMPDEST SWAP2 POP POP SWAP3 SWAP2 POP POP JUMP JUMPDEST PUSH32 0x5472616E73666572206661696C65640000000000000000000000000000000000 PUSH0 DUP3 ADD MSTORE POP JUMP JUMPDEST PUSH0 PUSH2 0xEEE PUSH1 0xF DUP4 PUSH2 0xDAD JUMP JUMPDEST SWAP2 POP PUSH2 0xEF9 DUP3 PUSH2 0xEBA JUMP JUMPDEST PUSH1 0x20 DUP3 ADD SWAP1 POP SWAP2 SWAP1 POP JUMP JUMPDEST PUSH0 PUSH1 0x20 DUP3 ADD SWAP1 POP DUP2 DUP2 SUB PUSH0 DUP4 ADD MSTORE PUSH2 0xF1B DUP2 PUSH2 0xEE2 JUMP JUMPDEST SWAP1 POP SWAP2 SWAP1 POP JUMP JUMPDEST DUP3 DUP2 DUP4 CALLDATACOPY POP POP POP JUMP JUMPDEST PUSH2 0xF37 PUSH1 0x40 DUP4 DUP4 PUSH2 0xF22 JUMP JUMPDEST POP POP JUMP JUMPDEST PUSH0 PUSH1 0x60 DUP3 ADD SWAP1 POP PUSH2 0xF4E PUSH0 DUP4 ADD DUP6 PUSH2 0xB09 JUMP JUMPDEST PUSH2 0xF5B PUSH1 0x20 DUP4 ADD DUP5 PUSH2 0xF2B JUMP JUMPDEST SWAP4 SWAP3 POP POP POP JUMP JUMPDEST PUSH32 0x496E76616C696420706F6F6C2061646472657373000000000000000000000000 PUSH0 DUP3 ADD MSTORE POP JUMP JUMPDEST PUSH0 PUSH2 0xF96 PUSH1 0x14 DUP4 PUSH2 0xDAD JUMP JUMPDEST SWAP2 POP PUSH2 0xFA1 DUP3 PUSH2 0xF62 JUMP JUMPDEST PUSH1 0x20 DUP3 ADD SWAP1 POP SWAP2 SWAP1 POP JUMP JUMPDEST PUSH0 PUSH1 0x20 DUP3 ADD SWAP1 POP DUP2 DUP2 SUB PUSH0 DUP4 ADD MSTORE PUSH2 0xFC3 DUP2 PUSH2 0xF8A JUMP JUMPDEST SWAP1 POP SWAP2 SWAP1 POP JUMP JUMPDEST PUSH0 DUP2 MLOAD SWAP1 POP PUSH2 0xFD8 DUP2 PUSH2 0xBC8 JUMP JUMPDEST SWAP3 SWAP2 POP POP JUMP JUMPDEST PUSH0 PUSH1 0x20 DUP3 DUP5 SUB SLT ISZERO PUSH2 0xFF3 JUMPI PUSH2 0xFF2 PUSH2 0xBC4 JUMP JUMPDEST JUMPDEST PUSH0 PUSH2 0x1000 DUP5 DUP3 DUP6 ADD PUSH2 0xFCA JUMP JUMPDEST SWAP2 POP POP SWAP3 SWAP2 POP POP JUMP JUMPDEST PUSH32 0x4E6F20737461626C65636F696E20746F20696E76657374000000000000000000 PUSH0 DUP3 ADD MSTORE POP JUMP JUMPDEST PUSH0 PUSH2 0x103D PUSH1 0x17 DUP4 PUSH2 0xDAD JUMP JUMPDEST SWAP2 POP PUSH2 0x1048 DUP3 PUSH2 0x1009 JUMP JUMPDEST PUSH1 0x20 DUP3 ADD SWAP1 POP SWAP2 SWAP1 POP JUMP JUMPDEST PUSH0 PUSH1 0x20 DUP3 ADD SWAP1 POP DUP2 DUP2 SUB PUSH0 DUP4 ADD MSTORE PUSH2 0x106A DUP2 PUSH2 0x1031 JUMP JUMPDEST SWAP1 POP SWAP2 SWAP1 POP JUMP JUMPDEST PUSH0 PUSH1 0x40 DUP3 ADD SWAP1 POP PUSH2 0x1084 PUSH0 DUP4 ADD DUP6 PUSH2 0xCF7 JUMP JUMPDEST PUSH2 0x1091 PUSH1 0x20 DUP4 ADD DUP5 PUSH2 0xB09 JUMP JUMPDEST SWAP4 SWAP3 POP POP POP JUMP JUMPDEST PUSH32 0x4E487B7100000000000000000000000000000000000000000000000000000000 PUSH0 MSTORE PUSH1 0x32 PUSH1 0x4 MSTORE PUSH1 0x24 PUSH0 REVERT JUMPDEST PUSH0 PUSH1 0x2 SWAP1 POP SWAP2 SWAP1 POP JUMP JUMPDEST PUSH0 DUP2 SWAP1 POP SWAP3 SWAP2 POP POP JUMP JUMPDEST PUSH0 DUP2 SWAP1 POP SWAP2 SWAP1 POP JUMP JUMPDEST PUSH2 0x10EB DUP2 PUSH2 0xB00 JUMP JUMPDEST DUP3 MSTORE POP POP JUMP JUMPDEST PUSH0 PUSH2 0x10FC DUP4 DUP4 PUSH2 0x10E2 JUMP JUMPDEST PUSH1 0x20 DUP4 ADD SWAP1 POP SWAP3 SWAP2 POP POP JUMP JUMPDEST PUSH0 PUSH1 0x20 DUP3 ADD SWAP1 POP SWAP2 SWAP1 POP JUMP JUMPDEST PUSH2 0x111D DUP2 PUSH2 0x10C5 JUMP JUMPDEST PUSH2 0x1127 DUP2 DUP5 PUSH2 0x10CF JUMP JUMPDEST SWAP3 POP PUSH2 0x1132 DUP3 PUSH2 0x10D9 JUMP JUMPDEST DUP1 PUSH0 JUMPDEST DUP4 DUP2 LT ISZERO PUSH2 0x1162 JUMPI DUP2 MLOAD PUSH2 0x1149 DUP8 DUP3 PUSH2 0x10F1 JUMP JUMPDEST SWAP7 POP PUSH2 0x1154 DUP4 PUSH2 0x1108 JUMP JUMPDEST SWAP3 POP POP PUSH1 0x1 DUP2 ADD SWAP1 POP PUSH2 0x1135 JUMP JUMPDEST POP POP POP POP POP POP JUMP JUMPDEST PUSH0 PUSH1 0x60 DUP3 ADD SWAP1 POP PUSH2 0x117D PUSH0 DUP4 ADD DUP6 PUSH2 0x1114 JUMP JUMPDEST PUSH2 0x118A PUSH1 0x40 DUP4 ADD DUP5 PUSH2 0xB09 JUMP JUMPDEST SWAP4 SWAP3 POP POP POP JUMP JUMPDEST PUSH32 0x5265656E7472616E637947756172643A207265656E7472616E742063616C6C00 PUSH0 DUP3 ADD MSTORE POP JUMP JUMPDEST PUSH0 PUSH2 0x11C5 PUSH1 0x1F DUP4 PUSH2 0xDAD JUMP JUMPDEST SWAP2 POP PUSH2 0x11D0 DUP3 PUSH2 0x1191 JUMP JUMPDEST PUSH1 0x20 DUP3 ADD SWAP1 POP SWAP2 SWAP1 POP JUMP JUMPDEST PUSH0 PUSH1 0x20 DUP3 ADD SWAP1 POP DUP2 DUP2 SUB PUSH0 DUP4 ADD MSTORE PUSH2 0x11F2 DUP2 PUSH2 0x11B9 JUMP JUMPDEST SWAP1 POP SWAP2 SWAP1 POP JUMP INVALID LOG2 PUSH5 0x6970667358 0x22 SLT KECCAK256 0xB7 EXTCODESIZE SWAP8 PREVRANDAO 0x2A CODESIZE 0xF CALLCODE CALL 0xBB 0xCE PUSH22 0x7F273974477A9E411A33CCBFEC6316F6B66F37836473 PUSH16 0x6C634300081D00330000000000000000 "
				},
				"gasEstimates": {
					"creation": {
						"codeDepositCost": "931000",
						"executionCost": "infinite",
						"totalCost": "infinite"
					},
					"external": {
						"curvePool()": "infinite",
						"depositStablecoin(uint256)": "infinite",
						"invest()": "infinite",
						"minMintAmount()": "2426",
						"owner()": "2558",
						"renounceOwnership()": "infinite",
						"stablecoin()": "infinite",
						"transferOwnership(address)": "infinite",
						"updateMinMintAmount(uint256)": "infinite",
						"updatePool(address)": "infinite",
						"withdrawInvested(uint256,uint256[2])": "infinite"
					}
				},
				"methodIdentifiers": {
					"curvePool()": "218751b2",
					"depositStablecoin(uint256)": "59f99c53",
					"invest()": "e8b5e51f",
					"minMintAmount()": "01e9d757",
					"owner()": "8da5cb5b",
					"renounceOwnership()": "715018a6",
					"stablecoin()": "e9cbd822",
					"transferOwnership(address)": "f2fde38b",
					"updateMinMintAmount(uint256)": "6dd84ac1",
					"updatePool(address)": "7b46c54f",
					"withdrawInvested(uint256,uint256[2])": "5e4eaee7"
				}
			},
			"storageLayout": {
				"storage": [
					{
						"astId": 8,
						"contract": "C/curveAMO.sol:CurveAMO",
						"label": "_owner",
						"offset": 0,
						"slot": "0",
						"type": "t_address"
					},
					{
						"astId": 158,
						"contract": "C/curveAMO.sol:CurveAMO",
						"label": "_status",
						"offset": 0,
						"slot": "1",
						"type": "t_uint256"
					},
					{
						"astId": 355,
						"contract": "C/curveAMO.sol:CurveAMO",
						"label": "stablecoin",
						"offset": 0,
						"slot": "2",
						"type": "t_contract(IERC20)290"
					},
					{
						"astId": 358,
						"contract": "C/curveAMO.sol:CurveAMO",
						"label": "curvePool",
						"offset": 0,
						"slot": "3",
						"type": "t_contract(ICurvePool)347"
					},
					{
						"astId": 360,
						"contract": "C/curveAMO.sol:CurveAMO",
						"label": "minMintAmount",
						"offset": 0,
						"slot": "4",
						"type": "t_uint256"
					}
				],
				"types": {
					"t_address": {
						"encoding": "inplace",
						"label": "address",
						"numberOfBytes": "20"
					},
					"t_contract(ICurvePool)347": {
						"encoding": "inplace",
						"label": "contract ICurvePool",
						"numberOfBytes": "20"
					},
					"t_contract(IERC20)290": {
						"encoding": "inplace",
						"label": "contract IERC20",
						"numberOfBytes": "20"
					},
					"t_uint256": {
						"encoding": "inplace",
						"label": "uint256",
						"numberOfBytes": "32"
					}
				}
			},
			"userdoc": {
				"kind": "user",
				"methods": {
					"constructor": {
						"notice": "Constructor sets the stablecoin, the initial pool, and the minimum mint amount."
					},
					"depositStablecoin(uint256)": {
						"notice": "Deposits stablecoin into the contract. The owner must approve the transfer before calling this function."
					},
					"invest()": {
						"notice": "Invests all stablecoin held by the contract into the Curve pool. This function approves the pool to spend the stablecoin and calls add_liquidity."
					},
					"updateMinMintAmount(uint256)": {
						"notice": "Updates the minimum mint amount required when adding liquidity."
					},
					"updatePool(address)": {
						"notice": "Updates the pool address."
					},
					"withdrawInvested(uint256,uint256[2])": {
						"notice": "Withdraws liquidity from the Curve pool."
					}
				},
				"notice": "A simplified example of a Curve Automated Market Operations (AMO) contract. It accepts deposits of a stablecoin, invests the funds into a Curve-like pool, and allows the owner to withdraw liquidity. Key parameters (such as the pool address and minimum mint amount) can be updated dynamically.",
				"version": 1
			}
		}
	}
}