{
	"C/permissionedCentralLedger.sol": {
		"PermissionedCentralLedger": {
			"abi": [
				{
					"inputs": [],
					"stateMutability": "nonpayable",
					"type": "constructor"
				},
				{
					"anonymous": false,
					"inputs": [
						{
							"indexed": true,
							"internalType": "address",
							"name": "addr",
							"type": "address"
						}
					],
					"name": "AuthorizationGranted",
					"type": "event"
				},
				{
					"anonymous": false,
					"inputs": [
						{
							"indexed": true,
							"internalType": "address",
							"name": "addr",
							"type": "address"
						}
					],
					"name": "AuthorizationRevoked",
					"type": "event"
				},
				{
					"anonymous": false,
					"inputs": [
						{
							"indexed": true,
							"internalType": "uint256",
							"name": "entryId",
							"type": "uint256"
						},
						{
							"indexed": true,
							"internalType": "address",
							"name": "from",
							"type": "address"
						},
						{
							"indexed": true,
							"internalType": "address",
							"name": "to",
							"type": "address"
						},
						{
							"indexed": false,
							"internalType": "uint256",
							"name": "amount",
							"type": "uint256"
						},
						{
							"indexed": false,
							"internalType": "uint256",
							"name": "timestamp",
							"type": "uint256"
						},
						{
							"indexed": false,
							"internalType": "string",
							"name": "description",
							"type": "string"
						}
					],
					"name": "EntryAdded",
					"type": "event"
				},
				{
					"inputs": [
						{
							"internalType": "address",
							"name": "_from",
							"type": "address"
						},
						{
							"internalType": "address",
							"name": "_to",
							"type": "address"
						},
						{
							"internalType": "uint256",
							"name": "_amount",
							"type": "uint256"
						},
						{
							"internalType": "string",
							"name": "_description",
							"type": "string"
						}
					],
					"name": "addEntry",
					"outputs": [],
					"stateMutability": "nonpayable",
					"type": "function"
				},
				{
					"inputs": [
						{
							"internalType": "address",
							"name": "",
							"type": "address"
						}
					],
					"name": "authorized",
					"outputs": [
						{
							"internalType": "bool",
							"name": "",
							"type": "bool"
						}
					],
					"stateMutability": "view",
					"type": "function"
				},
				{
					"inputs": [
						{
							"internalType": "uint256",
							"name": "index",
							"type": "uint256"
						}
					],
					"name": "getEntry",
					"outputs": [
						{
							"internalType": "address",
							"name": "from",
							"type": "address"
						},
						{
							"internalType": "address",
							"name": "to",
							"type": "address"
						},
						{
							"internalType": "uint256",
							"name": "amount",
							"type": "uint256"
						},
						{
							"internalType": "uint256",
							"name": "timestamp",
							"type": "uint256"
						},
						{
							"internalType": "string",
							"name": "description",
							"type": "string"
						}
					],
					"stateMutability": "view",
					"type": "function"
				},
				{
					"inputs": [],
					"name": "getEntryCount",
					"outputs": [
						{
							"internalType": "uint256",
							"name": "",
							"type": "uint256"
						}
					],
					"stateMutability": "view",
					"type": "function"
				},
				{
					"inputs": [
						{
							"internalType": "address",
							"name": "addr",
							"type": "address"
						}
					],
					"name": "grantAuthorization",
					"outputs": [],
					"stateMutability": "nonpayable",
					"type": "function"
				},
				{
					"inputs": [
						{
							"internalType": "uint256",
							"name": "",
							"type": "uint256"
						}
					],
					"name": "ledger",
					"outputs": [
						{
							"internalType": "address",
							"name": "from",
							"type": "address"
						},
						{
							"internalType": "address",
							"name": "to",
							"type": "address"
						},
						{
							"internalType": "uint256",
							"name": "amount",
							"type": "uint256"
						},
						{
							"internalType": "uint256",
							"name": "timestamp",
							"type": "uint256"
						},
						{
							"internalType": "string",
							"name": "description",
							"type": "string"
						}
					],
					"stateMutability": "view",
					"type": "function"
				},
				{
					"inputs": [],
					"name": "owner",
					"outputs": [
						{
							"internalType": "address",
							"name": "",
							"type": "address"
						}
					],
					"stateMutability": "view",
					"type": "function"
				},
				{
					"inputs": [
						{
							"internalType": "address",
							"name": "addr",
							"type": "address"
						}
					],
					"name": "revokeAuthorization",
					"outputs": [],
					"stateMutability": "nonpayable",
					"type": "function"
				}
			],
			"devdoc": {
				"kind": "dev",
				"methods": {
					"addEntry(address,address,uint256,string)": {
						"params": {
							"_amount": "The amount transacted.",
							"_description": "A brief description of the transaction.",
							"_from": "The sender address.",
							"_to": "The recipient address."
						}
					},
					"getEntry(uint256)": {
						"params": {
							"index": "The index of the entry."
						},
						"returns": {
							"amount": "The transacted amount.",
							"description": "The entry's description.",
							"from": "The sender address.",
							"timestamp": "The timestamp of the entry.",
							"to": "The recipient address."
						}
					},
					"getEntryCount()": {
						"returns": {
							"_0": "The count of ledger entries."
						}
					},
					"grantAuthorization(address)": {
						"params": {
							"addr": "The address to authorize."
						}
					},
					"revokeAuthorization(address)": {
						"params": {
							"addr": "The address to revoke."
						}
					}
				},
				"title": "PermissionedCentralLedger",
				"version": 1
			},
			"evm": {
				"assembly": "    /* \"C/permissionedCentralLedger.sol\":245:4030  contract PermissionedCentralLedger {... */\n  mstore(0x40, 0x80)\n    /* \"C/permissionedCentralLedger.sol\":1737:1825  constructor() {... */\n  callvalue\n  dup1\n  iszero\n  tag_1\n  jumpi\n  0x00\n  dup1\n  revert\ntag_1:\n  pop\n    /* \"C/permissionedCentralLedger.sol\":1769:1779  msg.sender */\n  caller\n    /* \"C/permissionedCentralLedger.sol\":1761:1766  owner */\n  0x00\n  dup1\n    /* \"C/permissionedCentralLedger.sol\":1761:1779  owner = msg.sender */\n  0x0100\n  exp\n  dup2\n  sload\n  dup2\n  0xffffffffffffffffffffffffffffffffffffffff\n  mul\n  not\n  and\n  swap1\n  dup4\n  0xffffffffffffffffffffffffffffffffffffffff\n  and\n  mul\n  or\n  swap1\n  sstore\n  pop\n    /* \"C/permissionedCentralLedger.sol\":1814:1818  true */\n  0x01\n    /* \"C/permissionedCentralLedger.sol\":1789:1799  authorized */\n  dup1\n    /* \"C/permissionedCentralLedger.sol\":1789:1811  authorized[msg.sender] */\n  0x00\n    /* \"C/permissionedCentralLedger.sol\":1800:1810  msg.sender */\n  caller\n    /* \"C/permissionedCentralLedger.sol\":1789:1811  authorized[msg.sender] */\n  0xffffffffffffffffffffffffffffffffffffffff\n  and\n  0xffffffffffffffffffffffffffffffffffffffff\n  and\n  dup2\n  mstore\n  0x20\n  add\n  swap1\n  dup2\n  mstore\n  0x20\n  add\n  0x00\n  keccak256\n  0x00\n    /* \"C/permissionedCentralLedger.sol\":1789:1818  authorized[msg.sender] = true */\n  0x0100\n  exp\n  dup2\n  sload\n  dup2\n  0xff\n  mul\n  not\n  and\n  swap1\n  dup4\n  iszero\n  iszero\n  mul\n  or\n  swap1\n  sstore\n  pop\n    /* \"C/permissionedCentralLedger.sol\":245:4030  contract PermissionedCentralLedger {... */\n  dataSize(sub_0)\n  dup1\n  dataOffset(sub_0)\n  0x00\n  codecopy\n  0x00\n  return\nstop\n\nsub_0: assembly {\n        /* \"C/permissionedCentralLedger.sol\":245:4030  contract PermissionedCentralLedger {... */\n      mstore(0x40, 0x80)\n      callvalue\n      dup1\n      iszero\n      tag_1\n      jumpi\n      0x00\n      dup1\n      revert\n    tag_1:\n      pop\n      jumpi(tag_2, lt(calldatasize, 0x04))\n      shr(0xe0, calldataload(0x00))\n      dup1\n      0x8f2fdb42\n      gt\n      tag_11\n      jumpi\n      dup1\n      0x8f2fdb42\n      eq\n      tag_7\n      jumpi\n      dup1\n      0xb48028e3\n      eq\n      tag_8\n      jumpi\n      dup1\n      0xb9181611\n      eq\n      tag_9\n      jumpi\n      dup1\n      0xbae78d7b\n      eq\n      tag_10\n      jumpi\n      jump(tag_2)\n    tag_11:\n      dup1\n      0x10a7fd7b\n      eq\n      tag_3\n      jumpi\n      dup1\n      0x7a360e65\n      eq\n      tag_4\n      jumpi\n      dup1\n      0x88411149\n      eq\n      tag_5\n      jumpi\n      dup1\n      0x8da5cb5b\n      eq\n      tag_6\n      jumpi\n    tag_2:\n      0x00\n      dup1\n      revert\n        /* \"C/permissionedCentralLedger.sol\":863:890  LedgerEntry[] public ledger */\n    tag_3:\n      tag_12\n      0x04\n      dup1\n      calldatasize\n      sub\n      dup2\n      add\n      swap1\n      tag_13\n      swap2\n      swap1\n      tag_14\n      jump\t// in\n    tag_13:\n      tag_15\n      jump\t// in\n    tag_12:\n      mload(0x40)\n      tag_16\n      swap6\n      swap5\n      swap4\n      swap3\n      swap2\n      swap1\n      tag_17\n      jump\t// in\n    tag_16:\n      mload(0x40)\n      dup1\n      swap2\n      sub\n      swap1\n      return\n        /* \"C/permissionedCentralLedger.sol\":3934:4028  function getEntryCount() external view returns (uint256) {... */\n    tag_4:\n      tag_18\n      tag_19\n      jump\t// in\n    tag_18:\n      mload(0x40)\n      tag_20\n      swap2\n      swap1\n      tag_21\n      jump\t// in\n    tag_20:\n      mload(0x40)\n      dup1\n      swap2\n      sub\n      swap1\n      return\n        /* \"C/permissionedCentralLedger.sol\":2585:3085  function addEntry(... */\n    tag_5:\n      tag_22\n      0x04\n      dup1\n      calldatasize\n      sub\n      dup2\n      add\n      swap1\n      tag_23\n      swap2\n      swap1\n      tag_24\n      jump\t// in\n    tag_23:\n      tag_25\n      jump\t// in\n    tag_22:\n      stop\n        /* \"C/permissionedCentralLedger.sol\":286:306  address public owner */\n    tag_6:\n      tag_26\n      tag_27\n      jump\t// in\n    tag_26:\n      mload(0x40)\n      tag_28\n      swap2\n      swap1\n      tag_29\n      jump\t// in\n    tag_28:\n      mload(0x40)\n      dup1\n      swap2\n      sub\n      swap1\n      return\n        /* \"C/permissionedCentralLedger.sol\":1951:2093  function grantAuthorization(address addr) external onlyOwner {... */\n    tag_7:\n      tag_30\n      0x04\n      dup1\n      calldatasize\n      sub\n      dup2\n      add\n      swap1\n      tag_31\n      swap2\n      swap1\n      tag_32\n      jump\t// in\n    tag_31:\n      tag_33\n      jump\t// in\n    tag_30:\n      stop\n        /* \"C/permissionedCentralLedger.sol\":2197:2341  function revokeAuthorization(address addr) external onlyOwner {... */\n    tag_8:\n      tag_34\n      0x04\n      dup1\n      calldatasize\n      sub\n      dup2\n      add\n      swap1\n      tag_35\n      swap2\n      swap1\n      tag_32\n      jump\t// in\n    tag_35:\n      tag_36\n      jump\t// in\n    tag_34:\n      stop\n        /* \"C/permissionedCentralLedger.sol\":391:433  mapping(address => bool) public authorized */\n    tag_9:\n      tag_37\n      0x04\n      dup1\n      calldatasize\n      sub\n      dup2\n      add\n      swap1\n      tag_38\n      swap2\n      swap1\n      tag_32\n      jump\t// in\n    tag_38:\n      tag_39\n      jump\t// in\n    tag_37:\n      mload(0x40)\n      tag_40\n      swap2\n      swap1\n      tag_41\n      jump\t// in\n    tag_40:\n      mload(0x40)\n      dup1\n      swap2\n      sub\n      swap1\n      return\n        /* \"C/permissionedCentralLedger.sol\":3423:3823  function getEntry(uint256 index) external view returns (... */\n    tag_10:\n      tag_42\n      0x04\n      dup1\n      calldatasize\n      sub\n      dup2\n      add\n      swap1\n      tag_43\n      swap2\n      swap1\n      tag_14\n      jump\t// in\n    tag_43:\n      tag_44\n      jump\t// in\n    tag_42:\n      mload(0x40)\n      tag_45\n      swap6\n      swap5\n      swap4\n      swap3\n      swap2\n      swap1\n      tag_17\n      jump\t// in\n    tag_45:\n      mload(0x40)\n      dup1\n      swap2\n      sub\n      swap1\n      return\n        /* \"C/permissionedCentralLedger.sol\":863:890  LedgerEntry[] public ledger */\n    tag_15:\n      0x02\n      dup2\n      dup2\n      sload\n      dup2\n      lt\n      tag_46\n      jumpi\n      0x00\n      dup1\n      revert\n    tag_46:\n      swap1\n      0x00\n      mstore\n      keccak256(0x00, 0x20)\n      swap1\n      0x05\n      mul\n      add\n      0x00\n      swap2\n      pop\n      swap1\n      pop\n      dup1\n      0x00\n      add\n      0x00\n      swap1\n      sload\n      swap1\n      0x0100\n      exp\n      swap1\n      div\n      0xffffffffffffffffffffffffffffffffffffffff\n      and\n      swap1\n      dup1\n      0x01\n      add\n      0x00\n      swap1\n      sload\n      swap1\n      0x0100\n      exp\n      swap1\n      div\n      0xffffffffffffffffffffffffffffffffffffffff\n      and\n      swap1\n      dup1\n      0x02\n      add\n      sload\n      swap1\n      dup1\n      0x03\n      add\n      sload\n      swap1\n      dup1\n      0x04\n      add\n      dup1\n      sload\n      tag_48\n      swap1\n      tag_49\n      jump\t// in\n    tag_48:\n      dup1\n      0x1f\n      add\n      0x20\n      dup1\n      swap2\n      div\n      mul\n      0x20\n      add\n      mload(0x40)\n      swap1\n      dup2\n      add\n      0x40\n      mstore\n      dup1\n      swap3\n      swap2\n      swap1\n      dup2\n      dup2\n      mstore\n      0x20\n      add\n      dup3\n      dup1\n      sload\n      tag_50\n      swap1\n      tag_49\n      jump\t// in\n    tag_50:\n      dup1\n      iszero\n      tag_51\n      jumpi\n      dup1\n      0x1f\n      lt\n      tag_52\n      jumpi\n      0x0100\n      dup1\n      dup4\n      sload\n      div\n      mul\n      dup4\n      mstore\n      swap2\n      0x20\n      add\n      swap2\n      jump(tag_51)\n    tag_52:\n      dup3\n      add\n      swap2\n      swap1\n      0x00\n      mstore\n      keccak256(0x00, 0x20)\n      swap1\n    tag_53:\n      dup2\n      sload\n      dup2\n      mstore\n      swap1\n      0x01\n      add\n      swap1\n      0x20\n      add\n      dup1\n      dup4\n      gt\n      tag_53\n      jumpi\n      dup3\n      swap1\n      sub\n      0x1f\n      and\n      dup3\n      add\n      swap2\n    tag_51:\n      pop\n      pop\n      pop\n      pop\n      pop\n      swap1\n      pop\n      dup6\n      jump\t// out\n        /* \"C/permissionedCentralLedger.sol\":3934:4028  function getEntryCount() external view returns (uint256) {... */\n    tag_19:\n        /* \"C/permissionedCentralLedger.sol\":3982:3989  uint256 */\n      0x00\n        /* \"C/permissionedCentralLedger.sol\":4008:4014  ledger */\n      0x02\n        /* \"C/permissionedCentralLedger.sol\":4008:4021  ledger.length */\n      dup1\n      sload\n      swap1\n      pop\n        /* \"C/permissionedCentralLedger.sol\":4001:4021  return ledger.length */\n      swap1\n      pop\n        /* \"C/permissionedCentralLedger.sol\":3934:4028  function getEntryCount() external view returns (uint256) {... */\n      swap1\n      jump\t// out\n        /* \"C/permissionedCentralLedger.sol\":2585:3085  function addEntry(... */\n    tag_25:\n        /* \"C/permissionedCentralLedger.sol\":1559:1569  authorized */\n      0x01\n        /* \"C/permissionedCentralLedger.sol\":1559:1581  authorized[msg.sender] */\n      0x00\n        /* \"C/permissionedCentralLedger.sol\":1570:1580  msg.sender */\n      caller\n        /* \"C/permissionedCentralLedger.sol\":1559:1581  authorized[msg.sender] */\n      0xffffffffffffffffffffffffffffffffffffffff\n      and\n      0xffffffffffffffffffffffffffffffffffffffff\n      and\n      dup2\n      mstore\n      0x20\n      add\n      swap1\n      dup2\n      mstore\n      0x20\n      add\n      0x00\n      keccak256\n      0x00\n      swap1\n      sload\n      swap1\n      0x0100\n      exp\n      swap1\n      div\n      0xff\n      and\n        /* \"C/permissionedCentralLedger.sol\":1559:1604  authorized[msg.sender] || msg.sender == owner */\n      dup1\n      tag_56\n      jumpi\n      pop\n        /* \"C/permissionedCentralLedger.sol\":1599:1604  owner */\n      0x00\n      dup1\n      sload\n      swap1\n      0x0100\n      exp\n      swap1\n      div\n      0xffffffffffffffffffffffffffffffffffffffff\n      and\n        /* \"C/permissionedCentralLedger.sol\":1585:1604  msg.sender == owner */\n      0xffffffffffffffffffffffffffffffffffffffff\n      and\n        /* \"C/permissionedCentralLedger.sol\":1585:1595  msg.sender */\n      caller\n        /* \"C/permissionedCentralLedger.sol\":1585:1604  msg.sender == owner */\n      0xffffffffffffffffffffffffffffffffffffffff\n      and\n      eq\n        /* \"C/permissionedCentralLedger.sol\":1559:1604  authorized[msg.sender] || msg.sender == owner */\n    tag_56:\n        /* \"C/permissionedCentralLedger.sol\":1551:1623  require(authorized[msg.sender] || msg.sender == owner, \"Not authorized\") */\n      tag_57\n      jumpi\n      mload(0x40)\n      0x08c379a000000000000000000000000000000000000000000000000000000000\n      dup2\n      mstore\n      0x04\n      add\n      tag_58\n      swap1\n      tag_59\n      jump\t// in\n    tag_58:\n      mload(0x40)\n      dup1\n      swap2\n      sub\n      swap1\n      revert\n    tag_57:\n        /* \"C/permissionedCentralLedger.sol\":2750:2774  LedgerEntry memory entry */\n      0x00\n        /* \"C/permissionedCentralLedger.sol\":2777:2954  LedgerEntry({... */\n      mload(0x40)\n      dup1\n      0xa0\n      add\n      0x40\n      mstore\n      dup1\n        /* \"C/permissionedCentralLedger.sol\":2809:2814  _from */\n      dup8\n        /* \"C/permissionedCentralLedger.sol\":2777:2954  LedgerEntry({... */\n      0xffffffffffffffffffffffffffffffffffffffff\n      and\n      dup2\n      mstore\n      0x20\n      add\n        /* \"C/permissionedCentralLedger.sol\":2832:2835  _to */\n      dup7\n        /* \"C/permissionedCentralLedger.sol\":2777:2954  LedgerEntry({... */\n      0xffffffffffffffffffffffffffffffffffffffff\n      and\n      dup2\n      mstore\n      0x20\n      add\n        /* \"C/permissionedCentralLedger.sol\":2857:2864  _amount */\n      dup6\n        /* \"C/permissionedCentralLedger.sol\":2777:2954  LedgerEntry({... */\n      dup2\n      mstore\n      0x20\n      add\n        /* \"C/permissionedCentralLedger.sol\":2889:2904  block.timestamp */\n      timestamp\n        /* \"C/permissionedCentralLedger.sol\":2777:2954  LedgerEntry({... */\n      dup2\n      mstore\n      0x20\n      add\n        /* \"C/permissionedCentralLedger.sol\":2931:2943  _description */\n      dup5\n      dup5\n        /* \"C/permissionedCentralLedger.sol\":2777:2954  LedgerEntry({... */\n      dup1\n      dup1\n      0x1f\n      add\n      0x20\n      dup1\n      swap2\n      div\n      mul\n      0x20\n      add\n      mload(0x40)\n      swap1\n      dup2\n      add\n      0x40\n      mstore\n      dup1\n      swap4\n      swap3\n      swap2\n      swap1\n      dup2\n      dup2\n      mstore\n      0x20\n      add\n      dup4\n      dup4\n      dup1\n      dup3\n      dup5\n      calldatacopy\n      0x00\n      dup2\n      dup5\n      add\n      mstore\n      not(0x1f)\n      0x1f\n      dup3\n      add\n      and\n      swap1\n      pop\n      dup1\n      dup4\n      add\n      swap3\n      pop\n      pop\n      pop\n      pop\n      pop\n      pop\n      pop\n      dup2\n      mstore\n      pop\n        /* \"C/permissionedCentralLedger.sol\":2750:2954  LedgerEntry memory entry = LedgerEntry({... */\n      swap1\n      pop\n        /* \"C/permissionedCentralLedger.sol\":2964:2970  ledger */\n      0x02\n        /* \"C/permissionedCentralLedger.sol\":2976:2981  entry */\n      dup2\n        /* \"C/permissionedCentralLedger.sol\":2964:2982  ledger.push(entry) */\n      swap1\n      dup1\n      0x01\n      dup2\n      sload\n      add\n      dup1\n      dup3\n      sstore\n      dup1\n      swap2\n      pop\n      pop\n      0x01\n      swap1\n      sub\n      swap1\n      0x00\n      mstore\n      keccak256(0x00, 0x20)\n      swap1\n      0x05\n      mul\n      add\n      0x00\n      swap1\n      swap2\n      swap1\n      swap2\n      swap1\n      swap2\n      pop\n      0x00\n      dup3\n      add\n      mload\n      dup2\n      0x00\n      add\n      exp(0x0100, 0x00)\n      dup2\n      sload\n      dup2\n      0xffffffffffffffffffffffffffffffffffffffff\n      mul\n      not\n      and\n      swap1\n      dup4\n      0xffffffffffffffffffffffffffffffffffffffff\n      and\n      mul\n      or\n      swap1\n      sstore\n      pop\n      0x20\n      dup3\n      add\n      mload\n      dup2\n      0x01\n      add\n      exp(0x0100, 0x00)\n      dup2\n      sload\n      dup2\n      0xffffffffffffffffffffffffffffffffffffffff\n      mul\n      not\n      and\n      swap1\n      dup4\n      0xffffffffffffffffffffffffffffffffffffffff\n      and\n      mul\n      or\n      swap1\n      sstore\n      pop\n      0x40\n      dup3\n      add\n      mload\n      dup2\n      0x02\n      add\n      sstore\n      0x60\n      dup3\n      add\n      mload\n      dup2\n      0x03\n      add\n      sstore\n      0x80\n      dup3\n      add\n      mload\n      dup2\n      0x04\n      add\n      swap1\n      dup2\n      tag_62\n      swap2\n      swap1\n      tag_63\n      jump\t// in\n    tag_62:\n      pop\n      pop\n      pop\n        /* \"C/permissionedCentralLedger.sol\":3034:3037  _to */\n      dup5\n        /* \"C/permissionedCentralLedger.sol\":2997:3078  EntryAdded(ledger.length - 1, _from, _to, _amount, block.timestamp, _description) */\n      0xffffffffffffffffffffffffffffffffffffffff\n      and\n        /* \"C/permissionedCentralLedger.sol\":3027:3032  _from */\n      dup7\n        /* \"C/permissionedCentralLedger.sol\":2997:3078  EntryAdded(ledger.length - 1, _from, _to, _amount, block.timestamp, _description) */\n      0xffffffffffffffffffffffffffffffffffffffff\n      and\n        /* \"C/permissionedCentralLedger.sol\":3024:3025  1 */\n      0x01\n        /* \"C/permissionedCentralLedger.sol\":3008:3014  ledger */\n      0x02\n        /* \"C/permissionedCentralLedger.sol\":3008:3021  ledger.length */\n      dup1\n      sload\n      swap1\n      pop\n        /* \"C/permissionedCentralLedger.sol\":3008:3025  ledger.length - 1 */\n      tag_64\n      swap2\n      swap1\n      tag_65\n      jump\t// in\n    tag_64:\n        /* \"C/permissionedCentralLedger.sol\":2997:3078  EntryAdded(ledger.length - 1, _from, _to, _amount, block.timestamp, _description) */\n      0x64dc13f6ef05327eaac14e375658e9ed75d366b15ec0b2b05d78d10f966cb4ad\n        /* \"C/permissionedCentralLedger.sol\":3039:3046  _amount */\n      dup8\n        /* \"C/permissionedCentralLedger.sol\":3048:3063  block.timestamp */\n      timestamp\n        /* \"C/permissionedCentralLedger.sol\":3065:3077  _description */\n      dup9\n      dup9\n        /* \"C/permissionedCentralLedger.sol\":2997:3078  EntryAdded(ledger.length - 1, _from, _to, _amount, block.timestamp, _description) */\n      mload(0x40)\n      tag_66\n      swap5\n      swap4\n      swap3\n      swap2\n      swap1\n      tag_67\n      jump\t// in\n    tag_66:\n      mload(0x40)\n      dup1\n      swap2\n      sub\n      swap1\n      log4\n        /* \"C/permissionedCentralLedger.sol\":2740:3085  {... */\n      pop\n        /* \"C/permissionedCentralLedger.sol\":2585:3085  function addEntry(... */\n      pop\n      pop\n      pop\n      pop\n      pop\n      jump\t// out\n        /* \"C/permissionedCentralLedger.sol\":286:306  address public owner */\n    tag_27:\n      0x00\n      dup1\n      sload\n      swap1\n      0x0100\n      exp\n      swap1\n      div\n      0xffffffffffffffffffffffffffffffffffffffff\n      and\n      dup2\n      jump\t// out\n        /* \"C/permissionedCentralLedger.sol\":1951:2093  function grantAuthorization(address addr) external onlyOwner {... */\n    tag_33:\n        /* \"C/permissionedCentralLedger.sol\":1385:1390  owner */\n      0x00\n      dup1\n      sload\n      swap1\n      0x0100\n      exp\n      swap1\n      div\n      0xffffffffffffffffffffffffffffffffffffffff\n      and\n        /* \"C/permissionedCentralLedger.sol\":1371:1390  msg.sender == owner */\n      0xffffffffffffffffffffffffffffffffffffffff\n      and\n        /* \"C/permissionedCentralLedger.sol\":1371:1381  msg.sender */\n      caller\n        /* \"C/permissionedCentralLedger.sol\":1371:1390  msg.sender == owner */\n      0xffffffffffffffffffffffffffffffffffffffff\n      and\n      eq\n        /* \"C/permissionedCentralLedger.sol\":1363:1413  require(msg.sender == owner, \"Not contract owner\") */\n      tag_69\n      jumpi\n      mload(0x40)\n      0x08c379a000000000000000000000000000000000000000000000000000000000\n      dup2\n      mstore\n      0x04\n      add\n      tag_70\n      swap1\n      tag_71\n      jump\t// in\n    tag_70:\n      mload(0x40)\n      dup1\n      swap2\n      sub\n      swap1\n      revert\n    tag_69:\n        /* \"C/permissionedCentralLedger.sol\":2041:2045  true */\n      0x01\n        /* \"C/permissionedCentralLedger.sol\":2022:2032  authorized */\n      dup1\n        /* \"C/permissionedCentralLedger.sol\":2022:2038  authorized[addr] */\n      0x00\n        /* \"C/permissionedCentralLedger.sol\":2033:2037  addr */\n      dup4\n        /* \"C/permissionedCentralLedger.sol\":2022:2038  authorized[addr] */\n      0xffffffffffffffffffffffffffffffffffffffff\n      and\n      0xffffffffffffffffffffffffffffffffffffffff\n      and\n      dup2\n      mstore\n      0x20\n      add\n      swap1\n      dup2\n      mstore\n      0x20\n      add\n      0x00\n      keccak256\n      0x00\n        /* \"C/permissionedCentralLedger.sol\":2022:2045  authorized[addr] = true */\n      0x0100\n      exp\n      dup2\n      sload\n      dup2\n      0xff\n      mul\n      not\n      and\n      swap1\n      dup4\n      iszero\n      iszero\n      mul\n      or\n      swap1\n      sstore\n      pop\n        /* \"C/permissionedCentralLedger.sol\":2081:2085  addr */\n      dup1\n        /* \"C/permissionedCentralLedger.sol\":2060:2086  AuthorizationGranted(addr) */\n      0xffffffffffffffffffffffffffffffffffffffff\n      and\n      0xf25a0e224ac5737981fde0570fa08516c2c22a759184d4a457dee8394403bf82\n      mload(0x40)\n      mload(0x40)\n      dup1\n      swap2\n      sub\n      swap1\n      log2\n        /* \"C/permissionedCentralLedger.sol\":1951:2093  function grantAuthorization(address addr) external onlyOwner {... */\n      pop\n      jump\t// out\n        /* \"C/permissionedCentralLedger.sol\":2197:2341  function revokeAuthorization(address addr) external onlyOwner {... */\n    tag_36:\n        /* \"C/permissionedCentralLedger.sol\":1385:1390  owner */\n      0x00\n      dup1\n      sload\n      swap1\n      0x0100\n      exp\n      swap1\n      div\n      0xffffffffffffffffffffffffffffffffffffffff\n      and\n        /* \"C/permissionedCentralLedger.sol\":1371:1390  msg.sender == owner */\n      0xffffffffffffffffffffffffffffffffffffffff\n      and\n        /* \"C/permissionedCentralLedger.sol\":1371:1381  msg.sender */\n      caller\n        /* \"C/permissionedCentralLedger.sol\":1371:1390  msg.sender == owner */\n      0xffffffffffffffffffffffffffffffffffffffff\n      and\n      eq\n        /* \"C/permissionedCentralLedger.sol\":1363:1413  require(msg.sender == owner, \"Not contract owner\") */\n      tag_74\n      jumpi\n      mload(0x40)\n      0x08c379a000000000000000000000000000000000000000000000000000000000\n      dup2\n      mstore\n      0x04\n      add\n      tag_75\n      swap1\n      tag_71\n      jump\t// in\n    tag_75:\n      mload(0x40)\n      dup1\n      swap2\n      sub\n      swap1\n      revert\n    tag_74:\n        /* \"C/permissionedCentralLedger.sol\":2288:2293  false */\n      0x00\n        /* \"C/permissionedCentralLedger.sol\":2269:2279  authorized */\n      0x01\n        /* \"C/permissionedCentralLedger.sol\":2269:2285  authorized[addr] */\n      0x00\n        /* \"C/permissionedCentralLedger.sol\":2280:2284  addr */\n      dup4\n        /* \"C/permissionedCentralLedger.sol\":2269:2285  authorized[addr] */\n      0xffffffffffffffffffffffffffffffffffffffff\n      and\n      0xffffffffffffffffffffffffffffffffffffffff\n      and\n      dup2\n      mstore\n      0x20\n      add\n      swap1\n      dup2\n      mstore\n      0x20\n      add\n      0x00\n      keccak256\n      0x00\n        /* \"C/permissionedCentralLedger.sol\":2269:2293  authorized[addr] = false */\n      0x0100\n      exp\n      dup2\n      sload\n      dup2\n      0xff\n      mul\n      not\n      and\n      swap1\n      dup4\n      iszero\n      iszero\n      mul\n      or\n      swap1\n      sstore\n      pop\n        /* \"C/permissionedCentralLedger.sol\":2329:2333  addr */\n      dup1\n        /* \"C/permissionedCentralLedger.sol\":2308:2334  AuthorizationRevoked(addr) */\n      0xffffffffffffffffffffffffffffffffffffffff\n      and\n      0x8e8867d264a6df9e7cb8c1c79c550652b89ce7a0db668095edd1df6736dac6cb\n      mload(0x40)\n      mload(0x40)\n      dup1\n      swap2\n      sub\n      swap1\n      log2\n        /* \"C/permissionedCentralLedger.sol\":2197:2341  function revokeAuthorization(address addr) external onlyOwner {... */\n      pop\n      jump\t// out\n        /* \"C/permissionedCentralLedger.sol\":391:433  mapping(address => bool) public authorized */\n    tag_39:\n      mstore(0x20, 0x01)\n      dup1\n      0x00\n      mstore\n      keccak256(0x00, 0x40)\n      0x00\n      swap2\n      pop\n      sload\n      swap1\n      0x0100\n      exp\n      swap1\n      div\n      0xff\n      and\n      dup2\n      jump\t// out\n        /* \"C/permissionedCentralLedger.sol\":3423:3823  function getEntry(uint256 index) external view returns (... */\n    tag_44:\n        /* \"C/permissionedCentralLedger.sol\":3488:3500  address from */\n      0x00\n        /* \"C/permissionedCentralLedger.sol\":3510:3520  address to */\n      dup1\n        /* \"C/permissionedCentralLedger.sol\":3530:3544  uint256 amount */\n      0x00\n        /* \"C/permissionedCentralLedger.sol\":3554:3571  uint256 timestamp */\n      dup1\n        /* \"C/permissionedCentralLedger.sol\":3581:3606  string memory description */\n      0x60\n        /* \"C/permissionedCentralLedger.sol\":3639:3645  ledger */\n      0x02\n        /* \"C/permissionedCentralLedger.sol\":3639:3652  ledger.length */\n      dup1\n      sload\n      swap1\n      pop\n        /* \"C/permissionedCentralLedger.sol\":3631:3636  index */\n      dup7\n        /* \"C/permissionedCentralLedger.sol\":3631:3652  index < ledger.length */\n      lt\n        /* \"C/permissionedCentralLedger.sol\":3623:3676  require(index < ledger.length, \"Index out of bounds\") */\n      tag_78\n      jumpi\n      mload(0x40)\n      0x08c379a000000000000000000000000000000000000000000000000000000000\n      dup2\n      mstore\n      0x04\n      add\n      tag_79\n      swap1\n      tag_80\n      jump\t// in\n    tag_79:\n      mload(0x40)\n      dup1\n      swap2\n      sub\n      swap1\n      revert\n    tag_78:\n        /* \"C/permissionedCentralLedger.sol\":3686:3711  LedgerEntry storage entry */\n      0x00\n        /* \"C/permissionedCentralLedger.sol\":3714:3720  ledger */\n      0x02\n        /* \"C/permissionedCentralLedger.sol\":3721:3726  index */\n      dup8\n        /* \"C/permissionedCentralLedger.sol\":3714:3727  ledger[index] */\n      dup2\n      sload\n      dup2\n      lt\n      tag_81\n      jumpi\n      tag_82\n      tag_83\n      jump\t// in\n    tag_82:\n    tag_81:\n      swap1\n      0x00\n      mstore\n      keccak256(0x00, 0x20)\n      swap1\n      0x05\n      mul\n      add\n        /* \"C/permissionedCentralLedger.sol\":3686:3727  LedgerEntry storage entry = ledger[index] */\n      swap1\n      pop\n        /* \"C/permissionedCentralLedger.sol\":3745:3750  entry */\n      dup1\n        /* \"C/permissionedCentralLedger.sol\":3745:3755  entry.from */\n      0x00\n      add\n      0x00\n      swap1\n      sload\n      swap1\n      0x0100\n      exp\n      swap1\n      div\n      0xffffffffffffffffffffffffffffffffffffffff\n      and\n        /* \"C/permissionedCentralLedger.sol\":3757:3762  entry */\n      dup2\n        /* \"C/permissionedCentralLedger.sol\":3757:3765  entry.to */\n      0x01\n      add\n      0x00\n      swap1\n      sload\n      swap1\n      0x0100\n      exp\n      swap1\n      div\n      0xffffffffffffffffffffffffffffffffffffffff\n      and\n        /* \"C/permissionedCentralLedger.sol\":3767:3772  entry */\n      dup3\n        /* \"C/permissionedCentralLedger.sol\":3767:3779  entry.amount */\n      0x02\n      add\n      sload\n        /* \"C/permissionedCentralLedger.sol\":3781:3786  entry */\n      dup4\n        /* \"C/permissionedCentralLedger.sol\":3781:3796  entry.timestamp */\n      0x03\n      add\n      sload\n        /* \"C/permissionedCentralLedger.sol\":3798:3803  entry */\n      dup5\n        /* \"C/permissionedCentralLedger.sol\":3798:3815  entry.description */\n      0x04\n      add\n        /* \"C/permissionedCentralLedger.sol\":3737:3816  return (entry.from, entry.to, entry.amount, entry.timestamp, entry.description) */\n      dup1\n      dup1\n      sload\n      tag_85\n      swap1\n      tag_49\n      jump\t// in\n    tag_85:\n      dup1\n      0x1f\n      add\n      0x20\n      dup1\n      swap2\n      div\n      mul\n      0x20\n      add\n      mload(0x40)\n      swap1\n      dup2\n      add\n      0x40\n      mstore\n      dup1\n      swap3\n      swap2\n      swap1\n      dup2\n      dup2\n      mstore\n      0x20\n      add\n      dup3\n      dup1\n      sload\n      tag_86\n      swap1\n      tag_49\n      jump\t// in\n    tag_86:\n      dup1\n      iszero\n      tag_87\n      jumpi\n      dup1\n      0x1f\n      lt\n      tag_88\n      jumpi\n      0x0100\n      dup1\n      dup4\n      sload\n      div\n      mul\n      dup4\n      mstore\n      swap2\n      0x20\n      add\n      swap2\n      jump(tag_87)\n    tag_88:\n      dup3\n      add\n      swap2\n      swap1\n      0x00\n      mstore\n      keccak256(0x00, 0x20)\n      swap1\n    tag_89:\n      dup2\n      sload\n      dup2\n      mstore\n      swap1\n      0x01\n      add\n      swap1\n      0x20\n      add\n      dup1\n      dup4\n      gt\n      tag_89\n      jumpi\n      dup3\n      swap1\n      sub\n      0x1f\n      and\n      dup3\n      add\n      swap2\n    tag_87:\n      pop\n      pop\n      pop\n      pop\n      pop\n      swap1\n      pop\n      swap6\n      pop\n      swap6\n      pop\n      swap6\n      pop\n      swap6\n      pop\n      swap6\n      pop\n      pop\n        /* \"C/permissionedCentralLedger.sol\":3423:3823  function getEntry(uint256 index) external view returns (... */\n      swap2\n      swap4\n      swap6\n      swap1\n      swap3\n      swap5\n      pop\n      jump\t// out\n        /* \"#utility.yul\":88:205   */\n    tag_91:\n        /* \"#utility.yul\":197:198   */\n      0x00\n        /* \"#utility.yul\":194:195   */\n      dup1\n        /* \"#utility.yul\":187:199   */\n      revert\n        /* \"#utility.yul\":211:328   */\n    tag_92:\n        /* \"#utility.yul\":320:321   */\n      0x00\n        /* \"#utility.yul\":317:318   */\n      dup1\n        /* \"#utility.yul\":310:322   */\n      revert\n        /* \"#utility.yul\":334:411   */\n    tag_93:\n        /* \"#utility.yul\":371:378   */\n      0x00\n        /* \"#utility.yul\":400:405   */\n      dup2\n        /* \"#utility.yul\":389:405   */\n      swap1\n      pop\n        /* \"#utility.yul\":334:411   */\n      swap2\n      swap1\n      pop\n      jump\t// out\n        /* \"#utility.yul\":417:539   */\n    tag_94:\n        /* \"#utility.yul\":490:514   */\n      tag_145\n        /* \"#utility.yul\":508:513   */\n      dup2\n        /* \"#utility.yul\":490:514   */\n      tag_93\n      jump\t// in\n    tag_145:\n        /* \"#utility.yul\":483:488   */\n      dup2\n        /* \"#utility.yul\":480:515   */\n      eq\n        /* \"#utility.yul\":470:533   */\n      tag_146\n      jumpi\n        /* \"#utility.yul\":529:530   */\n      0x00\n        /* \"#utility.yul\":526:527   */\n      dup1\n        /* \"#utility.yul\":519:531   */\n      revert\n        /* \"#utility.yul\":470:533   */\n    tag_146:\n        /* \"#utility.yul\":417:539   */\n      pop\n      jump\t// out\n        /* \"#utility.yul\":545:684   */\n    tag_95:\n        /* \"#utility.yul\":591:596   */\n      0x00\n        /* \"#utility.yul\":629:635   */\n      dup2\n        /* \"#utility.yul\":616:636   */\n      calldataload\n        /* \"#utility.yul\":607:636   */\n      swap1\n      pop\n        /* \"#utility.yul\":645:678   */\n      tag_148\n        /* \"#utility.yul\":672:677   */\n      dup2\n        /* \"#utility.yul\":645:678   */\n      tag_94\n      jump\t// in\n    tag_148:\n        /* \"#utility.yul\":545:684   */\n      swap3\n      swap2\n      pop\n      pop\n      jump\t// out\n        /* \"#utility.yul\":690:1019   */\n    tag_14:\n        /* \"#utility.yul\":749:755   */\n      0x00\n        /* \"#utility.yul\":798:800   */\n      0x20\n        /* \"#utility.yul\":786:795   */\n      dup3\n        /* \"#utility.yul\":777:784   */\n      dup5\n        /* \"#utility.yul\":773:796   */\n      sub\n        /* \"#utility.yul\":769:801   */\n      slt\n        /* \"#utility.yul\":766:885   */\n      iszero\n      tag_150\n      jumpi\n        /* \"#utility.yul\":804:883   */\n      tag_151\n      tag_91\n      jump\t// in\n    tag_151:\n        /* \"#utility.yul\":766:885   */\n    tag_150:\n        /* \"#utility.yul\":924:925   */\n      0x00\n        /* \"#utility.yul\":949:1002   */\n      tag_152\n        /* \"#utility.yul\":994:1001   */\n      dup5\n        /* \"#utility.yul\":985:991   */\n      dup3\n        /* \"#utility.yul\":974:983   */\n      dup6\n        /* \"#utility.yul\":970:992   */\n      add\n        /* \"#utility.yul\":949:1002   */\n      tag_95\n      jump\t// in\n    tag_152:\n        /* \"#utility.yul\":939:1002   */\n      swap2\n      pop\n        /* \"#utility.yul\":895:1012   */\n      pop\n        /* \"#utility.yul\":690:1019   */\n      swap3\n      swap2\n      pop\n      pop\n      jump\t// out\n        /* \"#utility.yul\":1025:1151   */\n    tag_96:\n        /* \"#utility.yul\":1062:1069   */\n      0x00\n        /* \"#utility.yul\":1102:1144   */\n      0xffffffffffffffffffffffffffffffffffffffff\n        /* \"#utility.yul\":1095:1100   */\n      dup3\n        /* \"#utility.yul\":1091:1145   */\n      and\n        /* \"#utility.yul\":1080:1145   */\n      swap1\n      pop\n        /* \"#utility.yul\":1025:1151   */\n      swap2\n      swap1\n      pop\n      jump\t// out\n        /* \"#utility.yul\":1157:1253   */\n    tag_97:\n        /* \"#utility.yul\":1194:1201   */\n      0x00\n        /* \"#utility.yul\":1223:1247   */\n      tag_155\n        /* \"#utility.yul\":1241:1246   */\n      dup3\n        /* \"#utility.yul\":1223:1247   */\n      tag_96\n      jump\t// in\n    tag_155:\n        /* \"#utility.yul\":1212:1247   */\n      swap1\n      pop\n        /* \"#utility.yul\":1157:1253   */\n      swap2\n      swap1\n      pop\n      jump\t// out\n        /* \"#utility.yul\":1259:1377   */\n    tag_98:\n        /* \"#utility.yul\":1346:1370   */\n      tag_157\n        /* \"#utility.yul\":1364:1369   */\n      dup2\n        /* \"#utility.yul\":1346:1370   */\n      tag_97\n      jump\t// in\n    tag_157:\n        /* \"#utility.yul\":1341:1344   */\n      dup3\n        /* \"#utility.yul\":1334:1371   */\n      mstore\n        /* \"#utility.yul\":1259:1377   */\n      pop\n      pop\n      jump\t// out\n        /* \"#utility.yul\":1383:1501   */\n    tag_99:\n        /* \"#utility.yul\":1470:1494   */\n      tag_159\n        /* \"#utility.yul\":1488:1493   */\n      dup2\n        /* \"#utility.yul\":1470:1494   */\n      tag_93\n      jump\t// in\n    tag_159:\n        /* \"#utility.yul\":1465:1468   */\n      dup3\n        /* \"#utility.yul\":1458:1495   */\n      mstore\n        /* \"#utility.yul\":1383:1501   */\n      pop\n      pop\n      jump\t// out\n        /* \"#utility.yul\":1507:1606   */\n    tag_100:\n        /* \"#utility.yul\":1559:1565   */\n      0x00\n        /* \"#utility.yul\":1593:1598   */\n      dup2\n        /* \"#utility.yul\":1587:1599   */\n      mload\n        /* \"#utility.yul\":1577:1599   */\n      swap1\n      pop\n        /* \"#utility.yul\":1507:1606   */\n      swap2\n      swap1\n      pop\n      jump\t// out\n        /* \"#utility.yul\":1612:1781   */\n    tag_101:\n        /* \"#utility.yul\":1696:1707   */\n      0x00\n        /* \"#utility.yul\":1730:1736   */\n      dup3\n        /* \"#utility.yul\":1725:1728   */\n      dup3\n        /* \"#utility.yul\":1718:1737   */\n      mstore\n        /* \"#utility.yul\":1770:1774   */\n      0x20\n        /* \"#utility.yul\":1765:1768   */\n      dup3\n        /* \"#utility.yul\":1761:1775   */\n      add\n        /* \"#utility.yul\":1746:1775   */\n      swap1\n      pop\n        /* \"#utility.yul\":1612:1781   */\n      swap3\n      swap2\n      pop\n      pop\n      jump\t// out\n        /* \"#utility.yul\":1787:2033   */\n    tag_102:\n        /* \"#utility.yul\":1868:1869   */\n      0x00\n        /* \"#utility.yul\":1878:1991   */\n    tag_163:\n        /* \"#utility.yul\":1892:1898   */\n      dup4\n        /* \"#utility.yul\":1889:1890   */\n      dup2\n        /* \"#utility.yul\":1886:1899   */\n      lt\n        /* \"#utility.yul\":1878:1991   */\n      iszero\n      tag_165\n      jumpi\n        /* \"#utility.yul\":1977:1978   */\n      dup1\n        /* \"#utility.yul\":1972:1975   */\n      dup3\n        /* \"#utility.yul\":1968:1979   */\n      add\n        /* \"#utility.yul\":1962:1980   */\n      mload\n        /* \"#utility.yul\":1958:1959   */\n      dup2\n        /* \"#utility.yul\":1953:1956   */\n      dup5\n        /* \"#utility.yul\":1949:1960   */\n      add\n        /* \"#utility.yul\":1942:1981   */\n      mstore\n        /* \"#utility.yul\":1914:1916   */\n      0x20\n        /* \"#utility.yul\":1911:1912   */\n      dup2\n        /* \"#utility.yul\":1907:1917   */\n      add\n        /* \"#utility.yul\":1902:1917   */\n      swap1\n      pop\n        /* \"#utility.yul\":1878:1991   */\n      jump(tag_163)\n    tag_165:\n        /* \"#utility.yul\":2025:2026   */\n      0x00\n        /* \"#utility.yul\":2016:2022   */\n      dup5\n        /* \"#utility.yul\":2011:2014   */\n      dup5\n        /* \"#utility.yul\":2007:2023   */\n      add\n        /* \"#utility.yul\":2000:2027   */\n      mstore\n        /* \"#utility.yul\":1849:2033   */\n      pop\n        /* \"#utility.yul\":1787:2033   */\n      pop\n      pop\n      pop\n      jump\t// out\n        /* \"#utility.yul\":2039:2141   */\n    tag_103:\n        /* \"#utility.yul\":2080:2086   */\n      0x00\n        /* \"#utility.yul\":2131:2133   */\n      0x1f\n        /* \"#utility.yul\":2127:2134   */\n      not\n        /* \"#utility.yul\":2122:2124   */\n      0x1f\n        /* \"#utility.yul\":2115:2120   */\n      dup4\n        /* \"#utility.yul\":2111:2125   */\n      add\n        /* \"#utility.yul\":2107:2135   */\n      and\n        /* \"#utility.yul\":2097:2135   */\n      swap1\n      pop\n        /* \"#utility.yul\":2039:2141   */\n      swap2\n      swap1\n      pop\n      jump\t// out\n        /* \"#utility.yul\":2147:2524   */\n    tag_104:\n        /* \"#utility.yul\":2235:2238   */\n      0x00\n        /* \"#utility.yul\":2263:2302   */\n      tag_168\n        /* \"#utility.yul\":2296:2301   */\n      dup3\n        /* \"#utility.yul\":2263:2302   */\n      tag_100\n      jump\t// in\n    tag_168:\n        /* \"#utility.yul\":2318:2389   */\n      tag_169\n        /* \"#utility.yul\":2382:2388   */\n      dup2\n        /* \"#utility.yul\":2377:2380   */\n      dup6\n        /* \"#utility.yul\":2318:2389   */\n      tag_101\n      jump\t// in\n    tag_169:\n        /* \"#utility.yul\":2311:2389   */\n      swap4\n      pop\n        /* \"#utility.yul\":2398:2463   */\n      tag_170\n        /* \"#utility.yul\":2456:2462   */\n      dup2\n        /* \"#utility.yul\":2451:2454   */\n      dup6\n        /* \"#utility.yul\":2444:2448   */\n      0x20\n        /* \"#utility.yul\":2437:2442   */\n      dup7\n        /* \"#utility.yul\":2433:2449   */\n      add\n        /* \"#utility.yul\":2398:2463   */\n      tag_102\n      jump\t// in\n    tag_170:\n        /* \"#utility.yul\":2488:2517   */\n      tag_171\n        /* \"#utility.yul\":2510:2516   */\n      dup2\n        /* \"#utility.yul\":2488:2517   */\n      tag_103\n      jump\t// in\n    tag_171:\n        /* \"#utility.yul\":2483:2486   */\n      dup5\n        /* \"#utility.yul\":2479:2518   */\n      add\n        /* \"#utility.yul\":2472:2518   */\n      swap2\n      pop\n        /* \"#utility.yul\":2239:2524   */\n      pop\n        /* \"#utility.yul\":2147:2524   */\n      swap3\n      swap2\n      pop\n      pop\n      jump\t// out\n        /* \"#utility.yul\":2530:3285   */\n    tag_17:\n        /* \"#utility.yul\":2755:2759   */\n      0x00\n        /* \"#utility.yul\":2793:2796   */\n      0xa0\n        /* \"#utility.yul\":2782:2791   */\n      dup3\n        /* \"#utility.yul\":2778:2797   */\n      add\n        /* \"#utility.yul\":2770:2797   */\n      swap1\n      pop\n        /* \"#utility.yul\":2807:2878   */\n      tag_173\n        /* \"#utility.yul\":2875:2876   */\n      0x00\n        /* \"#utility.yul\":2864:2873   */\n      dup4\n        /* \"#utility.yul\":2860:2877   */\n      add\n        /* \"#utility.yul\":2851:2857   */\n      dup9\n        /* \"#utility.yul\":2807:2878   */\n      tag_98\n      jump\t// in\n    tag_173:\n        /* \"#utility.yul\":2888:2960   */\n      tag_174\n        /* \"#utility.yul\":2956:2958   */\n      0x20\n        /* \"#utility.yul\":2945:2954   */\n      dup4\n        /* \"#utility.yul\":2941:2959   */\n      add\n        /* \"#utility.yul\":2932:2938   */\n      dup8\n        /* \"#utility.yul\":2888:2960   */\n      tag_98\n      jump\t// in\n    tag_174:\n        /* \"#utility.yul\":2970:3042   */\n      tag_175\n        /* \"#utility.yul\":3038:3040   */\n      0x40\n        /* \"#utility.yul\":3027:3036   */\n      dup4\n        /* \"#utility.yul\":3023:3041   */\n      add\n        /* \"#utility.yul\":3014:3020   */\n      dup7\n        /* \"#utility.yul\":2970:3042   */\n      tag_99\n      jump\t// in\n    tag_175:\n        /* \"#utility.yul\":3052:3124   */\n      tag_176\n        /* \"#utility.yul\":3120:3122   */\n      0x60\n        /* \"#utility.yul\":3109:3118   */\n      dup4\n        /* \"#utility.yul\":3105:3123   */\n      add\n        /* \"#utility.yul\":3096:3102   */\n      dup6\n        /* \"#utility.yul\":3052:3124   */\n      tag_99\n      jump\t// in\n    tag_176:\n        /* \"#utility.yul\":3172:3181   */\n      dup2\n        /* \"#utility.yul\":3166:3170   */\n      dup2\n        /* \"#utility.yul\":3162:3182   */\n      sub\n        /* \"#utility.yul\":3156:3159   */\n      0x80\n        /* \"#utility.yul\":3145:3154   */\n      dup4\n        /* \"#utility.yul\":3141:3160   */\n      add\n        /* \"#utility.yul\":3134:3183   */\n      mstore\n        /* \"#utility.yul\":3200:3278   */\n      tag_177\n        /* \"#utility.yul\":3273:3277   */\n      dup2\n        /* \"#utility.yul\":3264:3270   */\n      dup5\n        /* \"#utility.yul\":3200:3278   */\n      tag_104\n      jump\t// in\n    tag_177:\n        /* \"#utility.yul\":3192:3278   */\n      swap1\n      pop\n        /* \"#utility.yul\":2530:3285   */\n      swap7\n      swap6\n      pop\n      pop\n      pop\n      pop\n      pop\n      pop\n      jump\t// out\n        /* \"#utility.yul\":3291:3513   */\n    tag_21:\n        /* \"#utility.yul\":3384:3388   */\n      0x00\n        /* \"#utility.yul\":3422:3424   */\n      0x20\n        /* \"#utility.yul\":3411:3420   */\n      dup3\n        /* \"#utility.yul\":3407:3425   */\n      add\n        /* \"#utility.yul\":3399:3425   */\n      swap1\n      pop\n        /* \"#utility.yul\":3435:3506   */\n      tag_179\n        /* \"#utility.yul\":3503:3504   */\n      0x00\n        /* \"#utility.yul\":3492:3501   */\n      dup4\n        /* \"#utility.yul\":3488:3505   */\n      add\n        /* \"#utility.yul\":3479:3485   */\n      dup5\n        /* \"#utility.yul\":3435:3506   */\n      tag_99\n      jump\t// in\n    tag_179:\n        /* \"#utility.yul\":3291:3513   */\n      swap3\n      swap2\n      pop\n      pop\n      jump\t// out\n        /* \"#utility.yul\":3519:3641   */\n    tag_105:\n        /* \"#utility.yul\":3592:3616   */\n      tag_181\n        /* \"#utility.yul\":3610:3615   */\n      dup2\n        /* \"#utility.yul\":3592:3616   */\n      tag_97\n      jump\t// in\n    tag_181:\n        /* \"#utility.yul\":3585:3590   */\n      dup2\n        /* \"#utility.yul\":3582:3617   */\n      eq\n        /* \"#utility.yul\":3572:3635   */\n      tag_182\n      jumpi\n        /* \"#utility.yul\":3631:3632   */\n      0x00\n        /* \"#utility.yul\":3628:3629   */\n      dup1\n        /* \"#utility.yul\":3621:3633   */\n      revert\n        /* \"#utility.yul\":3572:3635   */\n    tag_182:\n        /* \"#utility.yul\":3519:3641   */\n      pop\n      jump\t// out\n        /* \"#utility.yul\":3647:3786   */\n    tag_106:\n        /* \"#utility.yul\":3693:3698   */\n      0x00\n        /* \"#utility.yul\":3731:3737   */\n      dup2\n        /* \"#utility.yul\":3718:3738   */\n      calldataload\n        /* \"#utility.yul\":3709:3738   */\n      swap1\n      pop\n        /* \"#utility.yul\":3747:3780   */\n      tag_184\n        /* \"#utility.yul\":3774:3779   */\n      dup2\n        /* \"#utility.yul\":3747:3780   */\n      tag_105\n      jump\t// in\n    tag_184:\n        /* \"#utility.yul\":3647:3786   */\n      swap3\n      swap2\n      pop\n      pop\n      jump\t// out\n        /* \"#utility.yul\":3792:3909   */\n    tag_107:\n        /* \"#utility.yul\":3901:3902   */\n      0x00\n        /* \"#utility.yul\":3898:3899   */\n      dup1\n        /* \"#utility.yul\":3891:3903   */\n      revert\n        /* \"#utility.yul\":3915:4032   */\n    tag_108:\n        /* \"#utility.yul\":4024:4025   */\n      0x00\n        /* \"#utility.yul\":4021:4022   */\n      dup1\n        /* \"#utility.yul\":4014:4026   */\n      revert\n        /* \"#utility.yul\":4038:4155   */\n    tag_109:\n        /* \"#utility.yul\":4147:4148   */\n      0x00\n        /* \"#utility.yul\":4144:4145   */\n      dup1\n        /* \"#utility.yul\":4137:4149   */\n      revert\n        /* \"#utility.yul\":4175:4728   */\n    tag_110:\n        /* \"#utility.yul\":4233:4241   */\n      0x00\n        /* \"#utility.yul\":4243:4249   */\n      dup1\n        /* \"#utility.yul\":4293:4296   */\n      dup4\n        /* \"#utility.yul\":4286:4290   */\n      0x1f\n        /* \"#utility.yul\":4278:4284   */\n      dup5\n        /* \"#utility.yul\":4274:4291   */\n      add\n        /* \"#utility.yul\":4270:4297   */\n      slt\n        /* \"#utility.yul\":4260:4382   */\n      tag_189\n      jumpi\n        /* \"#utility.yul\":4301:4380   */\n      tag_190\n      tag_107\n      jump\t// in\n    tag_190:\n        /* \"#utility.yul\":4260:4382   */\n    tag_189:\n        /* \"#utility.yul\":4414:4420   */\n      dup3\n        /* \"#utility.yul\":4401:4421   */\n      calldataload\n        /* \"#utility.yul\":4391:4421   */\n      swap1\n      pop\n        /* \"#utility.yul\":4444:4462   */\n      0xffffffffffffffff\n        /* \"#utility.yul\":4436:4442   */\n      dup2\n        /* \"#utility.yul\":4433:4463   */\n      gt\n        /* \"#utility.yul\":4430:4547   */\n      iszero\n      tag_191\n      jumpi\n        /* \"#utility.yul\":4466:4545   */\n      tag_192\n      tag_108\n      jump\t// in\n    tag_192:\n        /* \"#utility.yul\":4430:4547   */\n    tag_191:\n        /* \"#utility.yul\":4580:4584   */\n      0x20\n        /* \"#utility.yul\":4572:4578   */\n      dup4\n        /* \"#utility.yul\":4568:4585   */\n      add\n        /* \"#utility.yul\":4556:4585   */\n      swap2\n      pop\n        /* \"#utility.yul\":4634:4637   */\n      dup4\n        /* \"#utility.yul\":4626:4630   */\n      0x01\n        /* \"#utility.yul\":4618:4624   */\n      dup3\n        /* \"#utility.yul\":4614:4631   */\n      mul\n        /* \"#utility.yul\":4604:4612   */\n      dup4\n        /* \"#utility.yul\":4600:4632   */\n      add\n        /* \"#utility.yul\":4597:4638   */\n      gt\n        /* \"#utility.yul\":4594:4722   */\n      iszero\n      tag_193\n      jumpi\n        /* \"#utility.yul\":4641:4720   */\n      tag_194\n      tag_109\n      jump\t// in\n    tag_194:\n        /* \"#utility.yul\":4594:4722   */\n    tag_193:\n        /* \"#utility.yul\":4175:4728   */\n      swap3\n      pop\n      swap3\n      swap1\n      pop\n      jump\t// out\n        /* \"#utility.yul\":4734:5699   */\n    tag_24:\n        /* \"#utility.yul\":4832:4838   */\n      0x00\n        /* \"#utility.yul\":4840:4846   */\n      dup1\n        /* \"#utility.yul\":4848:4854   */\n      0x00\n        /* \"#utility.yul\":4856:4862   */\n      dup1\n        /* \"#utility.yul\":4864:4870   */\n      0x00\n        /* \"#utility.yul\":4913:4916   */\n      0x80\n        /* \"#utility.yul\":4901:4910   */\n      dup7\n        /* \"#utility.yul\":4892:4899   */\n      dup9\n        /* \"#utility.yul\":4888:4911   */\n      sub\n        /* \"#utility.yul\":4884:4917   */\n      slt\n        /* \"#utility.yul\":4881:5001   */\n      iszero\n      tag_196\n      jumpi\n        /* \"#utility.yul\":4920:4999   */\n      tag_197\n      tag_91\n      jump\t// in\n    tag_197:\n        /* \"#utility.yul\":4881:5001   */\n    tag_196:\n        /* \"#utility.yul\":5040:5041   */\n      0x00\n        /* \"#utility.yul\":5065:5118   */\n      tag_198\n        /* \"#utility.yul\":5110:5117   */\n      dup9\n        /* \"#utility.yul\":5101:5107   */\n      dup3\n        /* \"#utility.yul\":5090:5099   */\n      dup10\n        /* \"#utility.yul\":5086:5108   */\n      add\n        /* \"#utility.yul\":5065:5118   */\n      tag_106\n      jump\t// in\n    tag_198:\n        /* \"#utility.yul\":5055:5118   */\n      swap6\n      pop\n        /* \"#utility.yul\":5011:5128   */\n      pop\n        /* \"#utility.yul\":5167:5169   */\n      0x20\n        /* \"#utility.yul\":5193:5246   */\n      tag_199\n        /* \"#utility.yul\":5238:5245   */\n      dup9\n        /* \"#utility.yul\":5229:5235   */\n      dup3\n        /* \"#utility.yul\":5218:5227   */\n      dup10\n        /* \"#utility.yul\":5214:5236   */\n      add\n        /* \"#utility.yul\":5193:5246   */\n      tag_106\n      jump\t// in\n    tag_199:\n        /* \"#utility.yul\":5183:5246   */\n      swap5\n      pop\n        /* \"#utility.yul\":5138:5256   */\n      pop\n        /* \"#utility.yul\":5295:5297   */\n      0x40\n        /* \"#utility.yul\":5321:5374   */\n      tag_200\n        /* \"#utility.yul\":5366:5373   */\n      dup9\n        /* \"#utility.yul\":5357:5363   */\n      dup3\n        /* \"#utility.yul\":5346:5355   */\n      dup10\n        /* \"#utility.yul\":5342:5364   */\n      add\n        /* \"#utility.yul\":5321:5374   */\n      tag_95\n      jump\t// in\n    tag_200:\n        /* \"#utility.yul\":5311:5374   */\n      swap4\n      pop\n        /* \"#utility.yul\":5266:5384   */\n      pop\n        /* \"#utility.yul\":5451:5453   */\n      0x60\n        /* \"#utility.yul\":5440:5449   */\n      dup7\n        /* \"#utility.yul\":5436:5454   */\n      add\n        /* \"#utility.yul\":5423:5455   */\n      calldataload\n        /* \"#utility.yul\":5482:5500   */\n      0xffffffffffffffff\n        /* \"#utility.yul\":5474:5480   */\n      dup2\n        /* \"#utility.yul\":5471:5501   */\n      gt\n        /* \"#utility.yul\":5468:5585   */\n      iszero\n      tag_201\n      jumpi\n        /* \"#utility.yul\":5504:5583   */\n      tag_202\n      tag_92\n      jump\t// in\n    tag_202:\n        /* \"#utility.yul\":5468:5585   */\n    tag_201:\n        /* \"#utility.yul\":5617:5682   */\n      tag_203\n        /* \"#utility.yul\":5674:5681   */\n      dup9\n        /* \"#utility.yul\":5665:5671   */\n      dup3\n        /* \"#utility.yul\":5654:5663   */\n      dup10\n        /* \"#utility.yul\":5650:5672   */\n      add\n        /* \"#utility.yul\":5617:5682   */\n      tag_110\n      jump\t// in\n    tag_203:\n        /* \"#utility.yul\":5599:5682   */\n      swap3\n      pop\n      swap3\n      pop\n        /* \"#utility.yul\":5394:5692   */\n      pop\n        /* \"#utility.yul\":4734:5699   */\n      swap3\n      swap6\n      pop\n      swap3\n      swap6\n      swap1\n      swap4\n      pop\n      jump\t// out\n        /* \"#utility.yul\":5705:5927   */\n    tag_29:\n        /* \"#utility.yul\":5798:5802   */\n      0x00\n        /* \"#utility.yul\":5836:5838   */\n      0x20\n        /* \"#utility.yul\":5825:5834   */\n      dup3\n        /* \"#utility.yul\":5821:5839   */\n      add\n        /* \"#utility.yul\":5813:5839   */\n      swap1\n      pop\n        /* \"#utility.yul\":5849:5920   */\n      tag_205\n        /* \"#utility.yul\":5917:5918   */\n      0x00\n        /* \"#utility.yul\":5906:5915   */\n      dup4\n        /* \"#utility.yul\":5902:5919   */\n      add\n        /* \"#utility.yul\":5893:5899   */\n      dup5\n        /* \"#utility.yul\":5849:5920   */\n      tag_98\n      jump\t// in\n    tag_205:\n        /* \"#utility.yul\":5705:5927   */\n      swap3\n      swap2\n      pop\n      pop\n      jump\t// out\n        /* \"#utility.yul\":5933:6262   */\n    tag_32:\n        /* \"#utility.yul\":5992:5998   */\n      0x00\n        /* \"#utility.yul\":6041:6043   */\n      0x20\n        /* \"#utility.yul\":6029:6038   */\n      dup3\n        /* \"#utility.yul\":6020:6027   */\n      dup5\n        /* \"#utility.yul\":6016:6039   */\n      sub\n        /* \"#utility.yul\":6012:6044   */\n      slt\n        /* \"#utility.yul\":6009:6128   */\n      iszero\n      tag_207\n      jumpi\n        /* \"#utility.yul\":6047:6126   */\n      tag_208\n      tag_91\n      jump\t// in\n    tag_208:\n        /* \"#utility.yul\":6009:6128   */\n    tag_207:\n        /* \"#utility.yul\":6167:6168   */\n      0x00\n        /* \"#utility.yul\":6192:6245   */\n      tag_209\n        /* \"#utility.yul\":6237:6244   */\n      dup5\n        /* \"#utility.yul\":6228:6234   */\n      dup3\n        /* \"#utility.yul\":6217:6226   */\n      dup6\n        /* \"#utility.yul\":6213:6235   */\n      add\n        /* \"#utility.yul\":6192:6245   */\n      tag_106\n      jump\t// in\n    tag_209:\n        /* \"#utility.yul\":6182:6245   */\n      swap2\n      pop\n        /* \"#utility.yul\":6138:6255   */\n      pop\n        /* \"#utility.yul\":5933:6262   */\n      swap3\n      swap2\n      pop\n      pop\n      jump\t// out\n        /* \"#utility.yul\":6268:6358   */\n    tag_111:\n        /* \"#utility.yul\":6302:6309   */\n      0x00\n        /* \"#utility.yul\":6345:6350   */\n      dup2\n        /* \"#utility.yul\":6338:6351   */\n      iszero\n        /* \"#utility.yul\":6331:6352   */\n      iszero\n        /* \"#utility.yul\":6320:6352   */\n      swap1\n      pop\n        /* \"#utility.yul\":6268:6358   */\n      swap2\n      swap1\n      pop\n      jump\t// out\n        /* \"#utility.yul\":6364:6473   */\n    tag_112:\n        /* \"#utility.yul\":6445:6466   */\n      tag_212\n        /* \"#utility.yul\":6460:6465   */\n      dup2\n        /* \"#utility.yul\":6445:6466   */\n      tag_111\n      jump\t// in\n    tag_212:\n        /* \"#utility.yul\":6440:6443   */\n      dup3\n        /* \"#utility.yul\":6433:6467   */\n      mstore\n        /* \"#utility.yul\":6364:6473   */\n      pop\n      pop\n      jump\t// out\n        /* \"#utility.yul\":6479:6689   */\n    tag_41:\n        /* \"#utility.yul\":6566:6570   */\n      0x00\n        /* \"#utility.yul\":6604:6606   */\n      0x20\n        /* \"#utility.yul\":6593:6602   */\n      dup3\n        /* \"#utility.yul\":6589:6607   */\n      add\n        /* \"#utility.yul\":6581:6607   */\n      swap1\n      pop\n        /* \"#utility.yul\":6617:6682   */\n      tag_214\n        /* \"#utility.yul\":6679:6680   */\n      0x00\n        /* \"#utility.yul\":6668:6677   */\n      dup4\n        /* \"#utility.yul\":6664:6681   */\n      add\n        /* \"#utility.yul\":6655:6661   */\n      dup5\n        /* \"#utility.yul\":6617:6682   */\n      tag_112\n      jump\t// in\n    tag_214:\n        /* \"#utility.yul\":6479:6689   */\n      swap3\n      swap2\n      pop\n      pop\n      jump\t// out\n        /* \"#utility.yul\":6695:6875   */\n    tag_113:\n        /* \"#utility.yul\":6743:6820   */\n      0x4e487b7100000000000000000000000000000000000000000000000000000000\n        /* \"#utility.yul\":6740:6741   */\n      0x00\n        /* \"#utility.yul\":6733:6821   */\n      mstore\n        /* \"#utility.yul\":6840:6844   */\n      0x22\n        /* \"#utility.yul\":6837:6838   */\n      0x04\n        /* \"#utility.yul\":6830:6845   */\n      mstore\n        /* \"#utility.yul\":6864:6868   */\n      0x24\n        /* \"#utility.yul\":6861:6862   */\n      0x00\n        /* \"#utility.yul\":6854:6869   */\n      revert\n        /* \"#utility.yul\":6881:7201   */\n    tag_49:\n        /* \"#utility.yul\":6925:6931   */\n      0x00\n        /* \"#utility.yul\":6962:6963   */\n      0x02\n        /* \"#utility.yul\":6956:6960   */\n      dup3\n        /* \"#utility.yul\":6952:6964   */\n      div\n        /* \"#utility.yul\":6942:6964   */\n      swap1\n      pop\n        /* \"#utility.yul\":7009:7010   */\n      0x01\n        /* \"#utility.yul\":7003:7007   */\n      dup3\n        /* \"#utility.yul\":6999:7011   */\n      and\n        /* \"#utility.yul\":7030:7048   */\n      dup1\n        /* \"#utility.yul\":7020:7101   */\n      tag_217\n      jumpi\n        /* \"#utility.yul\":7086:7090   */\n      0x7f\n        /* \"#utility.yul\":7078:7084   */\n      dup3\n        /* \"#utility.yul\":7074:7091   */\n      and\n        /* \"#utility.yul\":7064:7091   */\n      swap2\n      pop\n        /* \"#utility.yul\":7020:7101   */\n    tag_217:\n        /* \"#utility.yul\":7148:7150   */\n      0x20\n        /* \"#utility.yul\":7140:7146   */\n      dup3\n        /* \"#utility.yul\":7137:7151   */\n      lt\n        /* \"#utility.yul\":7117:7135   */\n      dup2\n        /* \"#utility.yul\":7114:7152   */\n      sub\n        /* \"#utility.yul\":7111:7195   */\n      tag_218\n      jumpi\n        /* \"#utility.yul\":7167:7185   */\n      tag_219\n      tag_113\n      jump\t// in\n    tag_219:\n        /* \"#utility.yul\":7111:7195   */\n    tag_218:\n        /* \"#utility.yul\":6932:7201   */\n      pop\n        /* \"#utility.yul\":6881:7201   */\n      swap2\n      swap1\n      pop\n      jump\t// out\n        /* \"#utility.yul\":7207:7371   */\n    tag_114:\n        /* \"#utility.yul\":7347:7363   */\n      0x4e6f7420617574686f72697a6564000000000000000000000000000000000000\n        /* \"#utility.yul\":7343:7344   */\n      0x00\n        /* \"#utility.yul\":7335:7341   */\n      dup3\n        /* \"#utility.yul\":7331:7345   */\n      add\n        /* \"#utility.yul\":7324:7364   */\n      mstore\n        /* \"#utility.yul\":7207:7371   */\n      pop\n      jump\t// out\n        /* \"#utility.yul\":7377:7743   */\n    tag_115:\n        /* \"#utility.yul\":7519:7522   */\n      0x00\n        /* \"#utility.yul\":7540:7607   */\n      tag_222\n        /* \"#utility.yul\":7604:7606   */\n      0x0e\n        /* \"#utility.yul\":7599:7602   */\n      dup4\n        /* \"#utility.yul\":7540:7607   */\n      tag_101\n      jump\t// in\n    tag_222:\n        /* \"#utility.yul\":7533:7607   */\n      swap2\n      pop\n        /* \"#utility.yul\":7616:7709   */\n      tag_223\n        /* \"#utility.yul\":7705:7708   */\n      dup3\n        /* \"#utility.yul\":7616:7709   */\n      tag_114\n      jump\t// in\n    tag_223:\n        /* \"#utility.yul\":7734:7736   */\n      0x20\n        /* \"#utility.yul\":7729:7732   */\n      dup3\n        /* \"#utility.yul\":7725:7737   */\n      add\n        /* \"#utility.yul\":7718:7737   */\n      swap1\n      pop\n        /* \"#utility.yul\":7377:7743   */\n      swap2\n      swap1\n      pop\n      jump\t// out\n        /* \"#utility.yul\":7749:8168   */\n    tag_59:\n        /* \"#utility.yul\":7915:7919   */\n      0x00\n        /* \"#utility.yul\":7953:7955   */\n      0x20\n        /* \"#utility.yul\":7942:7951   */\n      dup3\n        /* \"#utility.yul\":7938:7956   */\n      add\n        /* \"#utility.yul\":7930:7956   */\n      swap1\n      pop\n        /* \"#utility.yul\":8002:8011   */\n      dup2\n        /* \"#utility.yul\":7996:8000   */\n      dup2\n        /* \"#utility.yul\":7992:8012   */\n      sub\n        /* \"#utility.yul\":7988:7989   */\n      0x00\n        /* \"#utility.yul\":7977:7986   */\n      dup4\n        /* \"#utility.yul\":7973:7990   */\n      add\n        /* \"#utility.yul\":7966:8013   */\n      mstore\n        /* \"#utility.yul\":8030:8161   */\n      tag_225\n        /* \"#utility.yul\":8156:8160   */\n      dup2\n        /* \"#utility.yul\":8030:8161   */\n      tag_115\n      jump\t// in\n    tag_225:\n        /* \"#utility.yul\":8022:8161   */\n      swap1\n      pop\n        /* \"#utility.yul\":7749:8168   */\n      swap2\n      swap1\n      pop\n      jump\t// out\n        /* \"#utility.yul\":8174:8354   */\n    tag_116:\n        /* \"#utility.yul\":8222:8299   */\n      0x4e487b7100000000000000000000000000000000000000000000000000000000\n        /* \"#utility.yul\":8219:8220   */\n      0x00\n        /* \"#utility.yul\":8212:8300   */\n      mstore\n        /* \"#utility.yul\":8319:8323   */\n      0x41\n        /* \"#utility.yul\":8316:8317   */\n      0x04\n        /* \"#utility.yul\":8309:8324   */\n      mstore\n        /* \"#utility.yul\":8343:8347   */\n      0x24\n        /* \"#utility.yul\":8340:8341   */\n      0x00\n        /* \"#utility.yul\":8333:8348   */\n      revert\n        /* \"#utility.yul\":8360:8501   */\n    tag_117:\n        /* \"#utility.yul\":8409:8413   */\n      0x00\n        /* \"#utility.yul\":8432:8435   */\n      dup2\n        /* \"#utility.yul\":8424:8435   */\n      swap1\n      pop\n        /* \"#utility.yul\":8455:8458   */\n      dup2\n        /* \"#utility.yul\":8452:8453   */\n      0x00\n        /* \"#utility.yul\":8445:8459   */\n      mstore\n        /* \"#utility.yul\":8489:8493   */\n      0x20\n        /* \"#utility.yul\":8486:8487   */\n      0x00\n        /* \"#utility.yul\":8476:8494   */\n      keccak256\n        /* \"#utility.yul\":8468:8494   */\n      swap1\n      pop\n        /* \"#utility.yul\":8360:8501   */\n      swap2\n      swap1\n      pop\n      jump\t// out\n        /* \"#utility.yul\":8507:8600   */\n    tag_118:\n        /* \"#utility.yul\":8544:8550   */\n      0x00\n        /* \"#utility.yul\":8591:8593   */\n      0x20\n        /* \"#utility.yul\":8586:8588   */\n      0x1f\n        /* \"#utility.yul\":8579:8584   */\n      dup4\n        /* \"#utility.yul\":8575:8589   */\n      add\n        /* \"#utility.yul\":8571:8594   */\n      div\n        /* \"#utility.yul\":8561:8594   */\n      swap1\n      pop\n        /* \"#utility.yul\":8507:8600   */\n      swap2\n      swap1\n      pop\n      jump\t// out\n        /* \"#utility.yul\":8606:8713   */\n    tag_119:\n        /* \"#utility.yul\":8650:8658   */\n      0x00\n        /* \"#utility.yul\":8700:8705   */\n      dup3\n        /* \"#utility.yul\":8694:8698   */\n      dup3\n        /* \"#utility.yul\":8690:8706   */\n      shl\n        /* \"#utility.yul\":8669:8706   */\n      swap1\n      pop\n        /* \"#utility.yul\":8606:8713   */\n      swap3\n      swap2\n      pop\n      pop\n      jump\t// out\n        /* \"#utility.yul\":8719:9112   */\n    tag_120:\n        /* \"#utility.yul\":8788:8794   */\n      0x00\n        /* \"#utility.yul\":8838:8839   */\n      0x08\n        /* \"#utility.yul\":8826:8836   */\n      dup4\n        /* \"#utility.yul\":8822:8840   */\n      mul\n        /* \"#utility.yul\":8861:8958   */\n      tag_231\n        /* \"#utility.yul\":8891:8957   */\n      0xffffffffffffffffffffffffffffffffffffffffffffffffffffffffffffffff\n        /* \"#utility.yul\":8880:8889   */\n      dup3\n        /* \"#utility.yul\":8861:8958   */\n      tag_119\n      jump\t// in\n    tag_231:\n        /* \"#utility.yul\":8979:9018   */\n      tag_232\n        /* \"#utility.yul\":9009:9017   */\n      dup7\n        /* \"#utility.yul\":8998:9007   */\n      dup4\n        /* \"#utility.yul\":8979:9018   */\n      tag_119\n      jump\t// in\n    tag_232:\n        /* \"#utility.yul\":8967:9018   */\n      swap6\n      pop\n        /* \"#utility.yul\":9051:9055   */\n      dup1\n        /* \"#utility.yul\":9047:9056   */\n      not\n        /* \"#utility.yul\":9040:9045   */\n      dup5\n        /* \"#utility.yul\":9036:9057   */\n      and\n        /* \"#utility.yul\":9027:9057   */\n      swap4\n      pop\n        /* \"#utility.yul\":9100:9104   */\n      dup1\n        /* \"#utility.yul\":9090:9098   */\n      dup7\n        /* \"#utility.yul\":9086:9105   */\n      and\n        /* \"#utility.yul\":9079:9084   */\n      dup5\n        /* \"#utility.yul\":9076:9106   */\n      or\n        /* \"#utility.yul\":9066:9106   */\n      swap3\n      pop\n        /* \"#utility.yul\":8795:9112   */\n      pop\n      pop\n        /* \"#utility.yul\":8719:9112   */\n      swap4\n      swap3\n      pop\n      pop\n      pop\n      jump\t// out\n        /* \"#utility.yul\":9118:9178   */\n    tag_121:\n        /* \"#utility.yul\":9146:9149   */\n      0x00\n        /* \"#utility.yul\":9167:9172   */\n      dup2\n        /* \"#utility.yul\":9160:9172   */\n      swap1\n      pop\n        /* \"#utility.yul\":9118:9178   */\n      swap2\n      swap1\n      pop\n      jump\t// out\n        /* \"#utility.yul\":9184:9326   */\n    tag_122:\n        /* \"#utility.yul\":9234:9243   */\n      0x00\n        /* \"#utility.yul\":9267:9320   */\n      tag_235\n        /* \"#utility.yul\":9285:9319   */\n      tag_236\n        /* \"#utility.yul\":9294:9318   */\n      tag_237\n        /* \"#utility.yul\":9312:9317   */\n      dup5\n        /* \"#utility.yul\":9294:9318   */\n      tag_93\n      jump\t// in\n    tag_237:\n        /* \"#utility.yul\":9285:9319   */\n      tag_121\n      jump\t// in\n    tag_236:\n        /* \"#utility.yul\":9267:9320   */\n      tag_93\n      jump\t// in\n    tag_235:\n        /* \"#utility.yul\":9254:9320   */\n      swap1\n      pop\n        /* \"#utility.yul\":9184:9326   */\n      swap2\n      swap1\n      pop\n      jump\t// out\n        /* \"#utility.yul\":9332:9407   */\n    tag_123:\n        /* \"#utility.yul\":9375:9378   */\n      0x00\n        /* \"#utility.yul\":9396:9401   */\n      dup2\n        /* \"#utility.yul\":9389:9401   */\n      swap1\n      pop\n        /* \"#utility.yul\":9332:9407   */\n      swap2\n      swap1\n      pop\n      jump\t// out\n        /* \"#utility.yul\":9413:9682   */\n    tag_124:\n        /* \"#utility.yul\":9523:9562   */\n      tag_240\n        /* \"#utility.yul\":9554:9561   */\n      dup4\n        /* \"#utility.yul\":9523:9562   */\n      tag_122\n      jump\t// in\n    tag_240:\n        /* \"#utility.yul\":9584:9675   */\n      tag_241\n        /* \"#utility.yul\":9633:9674   */\n      tag_242\n        /* \"#utility.yul\":9657:9673   */\n      dup3\n        /* \"#utility.yul\":9633:9674   */\n      tag_123\n      jump\t// in\n    tag_242:\n        /* \"#utility.yul\":9625:9631   */\n      dup5\n        /* \"#utility.yul\":9618:9622   */\n      dup5\n        /* \"#utility.yul\":9612:9623   */\n      sload\n        /* \"#utility.yul\":9584:9675   */\n      tag_120\n      jump\t// in\n    tag_241:\n        /* \"#utility.yul\":9578:9582   */\n      dup3\n        /* \"#utility.yul\":9571:9676   */\n      sstore\n        /* \"#utility.yul\":9489:9682   */\n      pop\n        /* \"#utility.yul\":9413:9682   */\n      pop\n      pop\n      pop\n      jump\t// out\n        /* \"#utility.yul\":9688:9761   */\n    tag_125:\n        /* \"#utility.yul\":9733:9736   */\n      0x00\n        /* \"#utility.yul\":9688:9761   */\n      swap1\n      jump\t// out\n        /* \"#utility.yul\":9767:9956   */\n    tag_126:\n        /* \"#utility.yul\":9844:9876   */\n      tag_245\n      tag_125\n      jump\t// in\n    tag_245:\n        /* \"#utility.yul\":9885:9950   */\n      tag_246\n        /* \"#utility.yul\":9943:9949   */\n      dup2\n        /* \"#utility.yul\":9935:9941   */\n      dup5\n        /* \"#utility.yul\":9929:9933   */\n      dup5\n        /* \"#utility.yul\":9885:9950   */\n      tag_124\n      jump\t// in\n    tag_246:\n        /* \"#utility.yul\":9820:9956   */\n      pop\n        /* \"#utility.yul\":9767:9956   */\n      pop\n      pop\n      jump\t// out\n        /* \"#utility.yul\":9962:10148   */\n    tag_127:\n        /* \"#utility.yul\":10022:10142   */\n    tag_248:\n        /* \"#utility.yul\":10039:10042   */\n      dup2\n        /* \"#utility.yul\":10032:10037   */\n      dup2\n        /* \"#utility.yul\":10029:10043   */\n      lt\n        /* \"#utility.yul\":10022:10142   */\n      iszero\n      tag_250\n      jumpi\n        /* \"#utility.yul\":10093:10132   */\n      tag_251\n        /* \"#utility.yul\":10130:10131   */\n      0x00\n        /* \"#utility.yul\":10123:10128   */\n      dup3\n        /* \"#utility.yul\":10093:10132   */\n      tag_126\n      jump\t// in\n    tag_251:\n        /* \"#utility.yul\":10066:10067   */\n      0x01\n        /* \"#utility.yul\":10059:10064   */\n      dup2\n        /* \"#utility.yul\":10055:10068   */\n      add\n        /* \"#utility.yul\":10046:10068   */\n      swap1\n      pop\n        /* \"#utility.yul\":10022:10142   */\n      jump(tag_248)\n    tag_250:\n        /* \"#utility.yul\":9962:10148   */\n      pop\n      pop\n      jump\t// out\n        /* \"#utility.yul\":10154:10697   */\n    tag_128:\n        /* \"#utility.yul\":10255:10257   */\n      0x1f\n        /* \"#utility.yul\":10250:10253   */\n      dup3\n        /* \"#utility.yul\":10247:10258   */\n      gt\n        /* \"#utility.yul\":10244:10690   */\n      iszero\n      tag_253\n      jumpi\n        /* \"#utility.yul\":10289:10327   */\n      tag_254\n        /* \"#utility.yul\":10321:10326   */\n      dup2\n        /* \"#utility.yul\":10289:10327   */\n      tag_117\n      jump\t// in\n    tag_254:\n        /* \"#utility.yul\":10373:10402   */\n      tag_255\n        /* \"#utility.yul\":10391:10401   */\n      dup5\n        /* \"#utility.yul\":10373:10402   */\n      tag_118\n      jump\t// in\n    tag_255:\n        /* \"#utility.yul\":10363:10371   */\n      dup2\n        /* \"#utility.yul\":10359:10403   */\n      add\n        /* \"#utility.yul\":10556:10558   */\n      0x20\n        /* \"#utility.yul\":10544:10554   */\n      dup6\n        /* \"#utility.yul\":10541:10559   */\n      lt\n        /* \"#utility.yul\":10538:10587   */\n      iszero\n      tag_256\n      jumpi\n        /* \"#utility.yul\":10577:10585   */\n      dup2\n        /* \"#utility.yul\":10562:10585   */\n      swap1\n      pop\n        /* \"#utility.yul\":10538:10587   */\n    tag_256:\n        /* \"#utility.yul\":10600:10680   */\n      tag_257\n        /* \"#utility.yul\":10656:10678   */\n      tag_258\n        /* \"#utility.yul\":10674:10677   */\n      dup6\n        /* \"#utility.yul\":10656:10678   */\n      tag_118\n      jump\t// in\n    tag_258:\n        /* \"#utility.yul\":10646:10654   */\n      dup4\n        /* \"#utility.yul\":10642:10679   */\n      add\n        /* \"#utility.yul\":10629:10640   */\n      dup3\n        /* \"#utility.yul\":10600:10680   */\n      tag_127\n      jump\t// in\n    tag_257:\n        /* \"#utility.yul\":10259:10690   */\n      pop\n      pop\n        /* \"#utility.yul\":10244:10690   */\n    tag_253:\n        /* \"#utility.yul\":10154:10697   */\n      pop\n      pop\n      pop\n      jump\t// out\n        /* \"#utility.yul\":10703:10820   */\n    tag_129:\n        /* \"#utility.yul\":10757:10765   */\n      0x00\n        /* \"#utility.yul\":10807:10812   */\n      dup3\n        /* \"#utility.yul\":10801:10805   */\n      dup3\n        /* \"#utility.yul\":10797:10813   */\n      shr\n        /* \"#utility.yul\":10776:10813   */\n      swap1\n      pop\n        /* \"#utility.yul\":10703:10820   */\n      swap3\n      swap2\n      pop\n      pop\n      jump\t// out\n        /* \"#utility.yul\":10826:10995   */\n    tag_130:\n        /* \"#utility.yul\":10870:10876   */\n      0x00\n        /* \"#utility.yul\":10903:10954   */\n      tag_261\n        /* \"#utility.yul\":10951:10952   */\n      0x00\n        /* \"#utility.yul\":10947:10953   */\n      not\n        /* \"#utility.yul\":10939:10944   */\n      dup5\n        /* \"#utility.yul\":10936:10937   */\n      0x08\n        /* \"#utility.yul\":10932:10945   */\n      mul\n        /* \"#utility.yul\":10903:10954   */\n      tag_129\n      jump\t// in\n    tag_261:\n        /* \"#utility.yul\":10899:10955   */\n      not\n        /* \"#utility.yul\":10984:10988   */\n      dup1\n        /* \"#utility.yul\":10978:10982   */\n      dup4\n        /* \"#utility.yul\":10974:10989   */\n      and\n        /* \"#utility.yul\":10964:10989   */\n      swap2\n      pop\n        /* \"#utility.yul\":10877:10995   */\n      pop\n        /* \"#utility.yul\":10826:10995   */\n      swap3\n      swap2\n      pop\n      pop\n      jump\t// out\n        /* \"#utility.yul\":11000:11295   */\n    tag_131:\n        /* \"#utility.yul\":11076:11080   */\n      0x00\n        /* \"#utility.yul\":11222:11251   */\n      tag_263\n        /* \"#utility.yul\":11247:11250   */\n      dup4\n        /* \"#utility.yul\":11241:11245   */\n      dup4\n        /* \"#utility.yul\":11222:11251   */\n      tag_130\n      jump\t// in\n    tag_263:\n        /* \"#utility.yul\":11214:11251   */\n      swap2\n      pop\n        /* \"#utility.yul\":11284:11287   */\n      dup3\n        /* \"#utility.yul\":11281:11282   */\n      0x02\n        /* \"#utility.yul\":11277:11288   */\n      mul\n        /* \"#utility.yul\":11271:11275   */\n      dup3\n        /* \"#utility.yul\":11268:11289   */\n      or\n        /* \"#utility.yul\":11260:11289   */\n      swap1\n      pop\n        /* \"#utility.yul\":11000:11295   */\n      swap3\n      swap2\n      pop\n      pop\n      jump\t// out\n        /* \"#utility.yul\":11300:12695   */\n    tag_63:\n        /* \"#utility.yul\":11417:11454   */\n      tag_265\n        /* \"#utility.yul\":11450:11453   */\n      dup3\n        /* \"#utility.yul\":11417:11454   */\n      tag_100\n      jump\t// in\n    tag_265:\n        /* \"#utility.yul\":11519:11537   */\n      0xffffffffffffffff\n        /* \"#utility.yul\":11511:11517   */\n      dup2\n        /* \"#utility.yul\":11508:11538   */\n      gt\n        /* \"#utility.yul\":11505:11561   */\n      iszero\n      tag_266\n      jumpi\n        /* \"#utility.yul\":11541:11559   */\n      tag_267\n      tag_116\n      jump\t// in\n    tag_267:\n        /* \"#utility.yul\":11505:11561   */\n    tag_266:\n        /* \"#utility.yul\":11585:11623   */\n      tag_268\n        /* \"#utility.yul\":11617:11621   */\n      dup3\n        /* \"#utility.yul\":11611:11622   */\n      sload\n        /* \"#utility.yul\":11585:11623   */\n      tag_49\n      jump\t// in\n    tag_268:\n        /* \"#utility.yul\":11670:11737   */\n      tag_269\n        /* \"#utility.yul\":11730:11736   */\n      dup3\n        /* \"#utility.yul\":11722:11728   */\n      dup3\n        /* \"#utility.yul\":11716:11720   */\n      dup6\n        /* \"#utility.yul\":11670:11737   */\n      tag_128\n      jump\t// in\n    tag_269:\n        /* \"#utility.yul\":11764:11765   */\n      0x00\n        /* \"#utility.yul\":11788:11792   */\n      0x20\n        /* \"#utility.yul\":11775:11792   */\n      swap1\n      pop\n        /* \"#utility.yul\":11820:11822   */\n      0x1f\n        /* \"#utility.yul\":11812:11818   */\n      dup4\n        /* \"#utility.yul\":11809:11823   */\n      gt\n        /* \"#utility.yul\":11837:11838   */\n      0x01\n        /* \"#utility.yul\":11832:12450   */\n      dup2\n      eq\n      tag_271\n      jumpi\n        /* \"#utility.yul\":12494:12495   */\n      0x00\n        /* \"#utility.yul\":12511:12517   */\n      dup5\n        /* \"#utility.yul\":12508:12585   */\n      iszero\n      tag_272\n      jumpi\n        /* \"#utility.yul\":12560:12569   */\n      dup3\n        /* \"#utility.yul\":12555:12558   */\n      dup8\n        /* \"#utility.yul\":12551:12570   */\n      add\n        /* \"#utility.yul\":12545:12571   */\n      mload\n        /* \"#utility.yul\":12536:12571   */\n      swap1\n      pop\n        /* \"#utility.yul\":12508:12585   */\n    tag_272:\n        /* \"#utility.yul\":12611:12678   */\n      tag_273\n        /* \"#utility.yul\":12671:12677   */\n      dup6\n        /* \"#utility.yul\":12664:12669   */\n      dup3\n        /* \"#utility.yul\":12611:12678   */\n      tag_131\n      jump\t// in\n    tag_273:\n        /* \"#utility.yul\":12605:12609   */\n      dup7\n        /* \"#utility.yul\":12598:12679   */\n      sstore\n        /* \"#utility.yul\":12467:12689   */\n      pop\n        /* \"#utility.yul\":11802:12689   */\n      jump(tag_270)\n        /* \"#utility.yul\":11832:12450   */\n    tag_271:\n        /* \"#utility.yul\":11884:11888   */\n      0x1f\n        /* \"#utility.yul\":11880:11889   */\n      not\n        /* \"#utility.yul\":11872:11878   */\n      dup5\n        /* \"#utility.yul\":11868:11890   */\n      and\n        /* \"#utility.yul\":11918:11955   */\n      tag_274\n        /* \"#utility.yul\":11950:11954   */\n      dup7\n        /* \"#utility.yul\":11918:11955   */\n      tag_117\n      jump\t// in\n    tag_274:\n        /* \"#utility.yul\":11977:11978   */\n      0x00\n        /* \"#utility.yul\":11991:12199   */\n    tag_275:\n        /* \"#utility.yul\":12005:12012   */\n      dup3\n        /* \"#utility.yul\":12002:12003   */\n      dup2\n        /* \"#utility.yul\":11999:12013   */\n      lt\n        /* \"#utility.yul\":11991:12199   */\n      iszero\n      tag_277\n      jumpi\n        /* \"#utility.yul\":12084:12093   */\n      dup5\n        /* \"#utility.yul\":12079:12082   */\n      dup10\n        /* \"#utility.yul\":12075:12094   */\n      add\n        /* \"#utility.yul\":12069:12095   */\n      mload\n        /* \"#utility.yul\":12061:12067   */\n      dup3\n        /* \"#utility.yul\":12054:12096   */\n      sstore\n        /* \"#utility.yul\":12135:12136   */\n      0x01\n        /* \"#utility.yul\":12127:12133   */\n      dup3\n        /* \"#utility.yul\":12123:12137   */\n      add\n        /* \"#utility.yul\":12113:12137   */\n      swap2\n      pop\n        /* \"#utility.yul\":12182:12184   */\n      0x20\n        /* \"#utility.yul\":12171:12180   */\n      dup6\n        /* \"#utility.yul\":12167:12185   */\n      add\n        /* \"#utility.yul\":12154:12185   */\n      swap5\n      pop\n        /* \"#utility.yul\":12028:12032   */\n      0x20\n        /* \"#utility.yul\":12025:12026   */\n      dup2\n        /* \"#utility.yul\":12021:12033   */\n      add\n        /* \"#utility.yul\":12016:12033   */\n      swap1\n      pop\n        /* \"#utility.yul\":11991:12199   */\n      jump(tag_275)\n    tag_277:\n        /* \"#utility.yul\":12227:12233   */\n      dup7\n        /* \"#utility.yul\":12218:12225   */\n      dup4\n        /* \"#utility.yul\":12215:12234   */\n      lt\n        /* \"#utility.yul\":12212:12391   */\n      iszero\n      tag_278\n      jumpi\n        /* \"#utility.yul\":12285:12294   */\n      dup5\n        /* \"#utility.yul\":12280:12283   */\n      dup10\n        /* \"#utility.yul\":12276:12295   */\n      add\n        /* \"#utility.yul\":12270:12296   */\n      mload\n        /* \"#utility.yul\":12328:12376   */\n      tag_279\n        /* \"#utility.yul\":12370:12374   */\n      0x1f\n        /* \"#utility.yul\":12362:12368   */\n      dup10\n        /* \"#utility.yul\":12358:12375   */\n      and\n        /* \"#utility.yul\":12347:12356   */\n      dup3\n        /* \"#utility.yul\":12328:12376   */\n      tag_130\n      jump\t// in\n    tag_279:\n        /* \"#utility.yul\":12320:12326   */\n      dup4\n        /* \"#utility.yul\":12313:12377   */\n      sstore\n        /* \"#utility.yul\":12235:12391   */\n      pop\n        /* \"#utility.yul\":12212:12391   */\n    tag_278:\n        /* \"#utility.yul\":12437:12438   */\n      0x01\n        /* \"#utility.yul\":12433:12434   */\n      0x02\n        /* \"#utility.yul\":12425:12431   */\n      dup9\n        /* \"#utility.yul\":12421:12435   */\n      mul\n        /* \"#utility.yul\":12417:12439   */\n      add\n        /* \"#utility.yul\":12411:12415   */\n      dup9\n        /* \"#utility.yul\":12404:12440   */\n      sstore\n        /* \"#utility.yul\":11839:12450   */\n      pop\n      pop\n      pop\n        /* \"#utility.yul\":11802:12689   */\n    tag_270:\n      pop\n        /* \"#utility.yul\":11392:12695   */\n      pop\n      pop\n      pop\n        /* \"#utility.yul\":11300:12695   */\n      pop\n      pop\n      jump\t// out\n        /* \"#utility.yul\":12701:12881   */\n    tag_132:\n        /* \"#utility.yul\":12749:12826   */\n      0x4e487b7100000000000000000000000000000000000000000000000000000000\n        /* \"#utility.yul\":12746:12747   */\n      0x00\n        /* \"#utility.yul\":12739:12827   */\n      mstore\n        /* \"#utility.yul\":12846:12850   */\n      0x11\n        /* \"#utility.yul\":12843:12844   */\n      0x04\n        /* \"#utility.yul\":12836:12851   */\n      mstore\n        /* \"#utility.yul\":12870:12874   */\n      0x24\n        /* \"#utility.yul\":12867:12868   */\n      0x00\n        /* \"#utility.yul\":12860:12875   */\n      revert\n        /* \"#utility.yul\":12887:13081   */\n    tag_65:\n        /* \"#utility.yul\":12927:12931   */\n      0x00\n        /* \"#utility.yul\":12947:12967   */\n      tag_282\n        /* \"#utility.yul\":12965:12966   */\n      dup3\n        /* \"#utility.yul\":12947:12967   */\n      tag_93\n      jump\t// in\n    tag_282:\n        /* \"#utility.yul\":12942:12967   */\n      swap2\n      pop\n        /* \"#utility.yul\":12981:13001   */\n      tag_283\n        /* \"#utility.yul\":12999:13000   */\n      dup4\n        /* \"#utility.yul\":12981:13001   */\n      tag_93\n      jump\t// in\n    tag_283:\n        /* \"#utility.yul\":12976:13001   */\n      swap3\n      pop\n        /* \"#utility.yul\":13025:13026   */\n      dup3\n        /* \"#utility.yul\":13022:13023   */\n      dup3\n        /* \"#utility.yul\":13018:13027   */\n      sub\n        /* \"#utility.yul\":13010:13027   */\n      swap1\n      pop\n        /* \"#utility.yul\":13049:13050   */\n      dup2\n        /* \"#utility.yul\":13043:13047   */\n      dup2\n        /* \"#utility.yul\":13040:13051   */\n      gt\n        /* \"#utility.yul\":13037:13074   */\n      iszero\n      tag_284\n      jumpi\n        /* \"#utility.yul\":13054:13072   */\n      tag_285\n      tag_132\n      jump\t// in\n    tag_285:\n        /* \"#utility.yul\":13037:13074   */\n    tag_284:\n        /* \"#utility.yul\":12887:13081   */\n      swap3\n      swap2\n      pop\n      pop\n      jump\t// out\n        /* \"#utility.yul\":13087:13233   */\n    tag_133:\n        /* \"#utility.yul\":13184:13190   */\n      dup3\n        /* \"#utility.yul\":13179:13182   */\n      dup2\n        /* \"#utility.yul\":13174:13177   */\n      dup4\n        /* \"#utility.yul\":13161:13191   */\n      calldatacopy\n        /* \"#utility.yul\":13225:13226   */\n      0x00\n        /* \"#utility.yul\":13216:13222   */\n      dup4\n        /* \"#utility.yul\":13211:13214   */\n      dup4\n        /* \"#utility.yul\":13207:13223   */\n      add\n        /* \"#utility.yul\":13200:13227   */\n      mstore\n        /* \"#utility.yul\":13087:13233   */\n      pop\n      pop\n      pop\n      jump\t// out\n        /* \"#utility.yul\":13263:13580   */\n    tag_134:\n        /* \"#utility.yul\":13361:13364   */\n      0x00\n        /* \"#utility.yul\":13382:13453   */\n      tag_288\n        /* \"#utility.yul\":13446:13452   */\n      dup4\n        /* \"#utility.yul\":13441:13444   */\n      dup6\n        /* \"#utility.yul\":13382:13453   */\n      tag_101\n      jump\t// in\n    tag_288:\n        /* \"#utility.yul\":13375:13453   */\n      swap4\n      pop\n        /* \"#utility.yul\":13463:13519   */\n      tag_289\n        /* \"#utility.yul\":13512:13518   */\n      dup4\n        /* \"#utility.yul\":13507:13510   */\n      dup6\n        /* \"#utility.yul\":13500:13505   */\n      dup5\n        /* \"#utility.yul\":13463:13519   */\n      tag_133\n      jump\t// in\n    tag_289:\n        /* \"#utility.yul\":13544:13573   */\n      tag_290\n        /* \"#utility.yul\":13566:13572   */\n      dup4\n        /* \"#utility.yul\":13544:13573   */\n      tag_103\n      jump\t// in\n    tag_290:\n        /* \"#utility.yul\":13539:13542   */\n      dup5\n        /* \"#utility.yul\":13535:13574   */\n      add\n        /* \"#utility.yul\":13528:13574   */\n      swap1\n      pop\n        /* \"#utility.yul\":13263:13580   */\n      swap4\n      swap3\n      pop\n      pop\n      pop\n      jump\t// out\n        /* \"#utility.yul\":13586:14139   */\n    tag_67:\n        /* \"#utility.yul\":13765:13769   */\n      0x00\n        /* \"#utility.yul\":13803:13805   */\n      0x60\n        /* \"#utility.yul\":13792:13801   */\n      dup3\n        /* \"#utility.yul\":13788:13806   */\n      add\n        /* \"#utility.yul\":13780:13806   */\n      swap1\n      pop\n        /* \"#utility.yul\":13816:13887   */\n      tag_292\n        /* \"#utility.yul\":13884:13885   */\n      0x00\n        /* \"#utility.yul\":13873:13882   */\n      dup4\n        /* \"#utility.yul\":13869:13886   */\n      add\n        /* \"#utility.yul\":13860:13866   */\n      dup8\n        /* \"#utility.yul\":13816:13887   */\n      tag_99\n      jump\t// in\n    tag_292:\n        /* \"#utility.yul\":13897:13969   */\n      tag_293\n        /* \"#utility.yul\":13965:13967   */\n      0x20\n        /* \"#utility.yul\":13954:13963   */\n      dup4\n        /* \"#utility.yul\":13950:13968   */\n      add\n        /* \"#utility.yul\":13941:13947   */\n      dup7\n        /* \"#utility.yul\":13897:13969   */\n      tag_99\n      jump\t// in\n    tag_293:\n        /* \"#utility.yul\":14016:14025   */\n      dup2\n        /* \"#utility.yul\":14010:14014   */\n      dup2\n        /* \"#utility.yul\":14006:14026   */\n      sub\n        /* \"#utility.yul\":14001:14003   */\n      0x40\n        /* \"#utility.yul\":13990:13999   */\n      dup4\n        /* \"#utility.yul\":13986:14004   */\n      add\n        /* \"#utility.yul\":13979:14027   */\n      mstore\n        /* \"#utility.yul\":14044:14132   */\n      tag_294\n        /* \"#utility.yul\":14127:14131   */\n      dup2\n        /* \"#utility.yul\":14118:14124   */\n      dup5\n        /* \"#utility.yul\":14110:14116   */\n      dup7\n        /* \"#utility.yul\":14044:14132   */\n      tag_134\n      jump\t// in\n    tag_294:\n        /* \"#utility.yul\":14036:14132   */\n      swap1\n      pop\n        /* \"#utility.yul\":13586:14139   */\n      swap6\n      swap5\n      pop\n      pop\n      pop\n      pop\n      pop\n      jump\t// out\n        /* \"#utility.yul\":14145:14313   */\n    tag_135:\n        /* \"#utility.yul\":14285:14305   */\n      0x4e6f7420636f6e7472616374206f776e65720000000000000000000000000000\n        /* \"#utility.yul\":14281:14282   */\n      0x00\n        /* \"#utility.yul\":14273:14279   */\n      dup3\n        /* \"#utility.yul\":14269:14283   */\n      add\n        /* \"#utility.yul\":14262:14306   */\n      mstore\n        /* \"#utility.yul\":14145:14313   */\n      pop\n      jump\t// out\n        /* \"#utility.yul\":14319:14685   */\n    tag_136:\n        /* \"#utility.yul\":14461:14464   */\n      0x00\n        /* \"#utility.yul\":14482:14549   */\n      tag_297\n        /* \"#utility.yul\":14546:14548   */\n      0x12\n        /* \"#utility.yul\":14541:14544   */\n      dup4\n        /* \"#utility.yul\":14482:14549   */\n      tag_101\n      jump\t// in\n    tag_297:\n        /* \"#utility.yul\":14475:14549   */\n      swap2\n      pop\n        /* \"#utility.yul\":14558:14651   */\n      tag_298\n        /* \"#utility.yul\":14647:14650   */\n      dup3\n        /* \"#utility.yul\":14558:14651   */\n      tag_135\n      jump\t// in\n    tag_298:\n        /* \"#utility.yul\":14676:14678   */\n      0x20\n        /* \"#utility.yul\":14671:14674   */\n      dup3\n        /* \"#utility.yul\":14667:14679   */\n      add\n        /* \"#utility.yul\":14660:14679   */\n      swap1\n      pop\n        /* \"#utility.yul\":14319:14685   */\n      swap2\n      swap1\n      pop\n      jump\t// out\n        /* \"#utility.yul\":14691:15110   */\n    tag_71:\n        /* \"#utility.yul\":14857:14861   */\n      0x00\n        /* \"#utility.yul\":14895:14897   */\n      0x20\n        /* \"#utility.yul\":14884:14893   */\n      dup3\n        /* \"#utility.yul\":14880:14898   */\n      add\n        /* \"#utility.yul\":14872:14898   */\n      swap1\n      pop\n        /* \"#utility.yul\":14944:14953   */\n      dup2\n        /* \"#utility.yul\":14938:14942   */\n      dup2\n        /* \"#utility.yul\":14934:14954   */\n      sub\n        /* \"#utility.yul\":14930:14931   */\n      0x00\n        /* \"#utility.yul\":14919:14928   */\n      dup4\n        /* \"#utility.yul\":14915:14932   */\n      add\n        /* \"#utility.yul\":14908:14955   */\n      mstore\n        /* \"#utility.yul\":14972:15103   */\n      tag_300\n        /* \"#utility.yul\":15098:15102   */\n      dup2\n        /* \"#utility.yul\":14972:15103   */\n      tag_136\n      jump\t// in\n    tag_300:\n        /* \"#utility.yul\":14964:15103   */\n      swap1\n      pop\n        /* \"#utility.yul\":14691:15110   */\n      swap2\n      swap1\n      pop\n      jump\t// out\n        /* \"#utility.yul\":15116:15285   */\n    tag_137:\n        /* \"#utility.yul\":15256:15277   */\n      0x496e646578206f7574206f6620626f756e647300000000000000000000000000\n        /* \"#utility.yul\":15252:15253   */\n      0x00\n        /* \"#utility.yul\":15244:15250   */\n      dup3\n        /* \"#utility.yul\":15240:15254   */\n      add\n        /* \"#utility.yul\":15233:15278   */\n      mstore\n        /* \"#utility.yul\":15116:15285   */\n      pop\n      jump\t// out\n        /* \"#utility.yul\":15291:15657   */\n    tag_138:\n        /* \"#utility.yul\":15433:15436   */\n      0x00\n        /* \"#utility.yul\":15454:15521   */\n      tag_303\n        /* \"#utility.yul\":15518:15520   */\n      0x13\n        /* \"#utility.yul\":15513:15516   */\n      dup4\n        /* \"#utility.yul\":15454:15521   */\n      tag_101\n      jump\t// in\n    tag_303:\n        /* \"#utility.yul\":15447:15521   */\n      swap2\n      pop\n        /* \"#utility.yul\":15530:15623   */\n      tag_304\n        /* \"#utility.yul\":15619:15622   */\n      dup3\n        /* \"#utility.yul\":15530:15623   */\n      tag_137\n      jump\t// in\n    tag_304:\n        /* \"#utility.yul\":15648:15650   */\n      0x20\n        /* \"#utility.yul\":15643:15646   */\n      dup3\n        /* \"#utility.yul\":15639:15651   */\n      add\n        /* \"#utility.yul\":15632:15651   */\n      swap1\n      pop\n        /* \"#utility.yul\":15291:15657   */\n      swap2\n      swap1\n      pop\n      jump\t// out\n        /* \"#utility.yul\":15663:16082   */\n    tag_80:\n        /* \"#utility.yul\":15829:15833   */\n      0x00\n        /* \"#utility.yul\":15867:15869   */\n      0x20\n        /* \"#utility.yul\":15856:15865   */\n      dup3\n        /* \"#utility.yul\":15852:15870   */\n      add\n        /* \"#utility.yul\":15844:15870   */\n      swap1\n      pop\n        /* \"#utility.yul\":15916:15925   */\n      dup2\n        /* \"#utility.yul\":15910:15914   */\n      dup2\n        /* \"#utility.yul\":15906:15926   */\n      sub\n        /* \"#utility.yul\":15902:15903   */\n      0x00\n        /* \"#utility.yul\":15891:15900   */\n      dup4\n        /* \"#utility.yul\":15887:15904   */\n      add\n        /* \"#utility.yul\":15880:15927   */\n      mstore\n        /* \"#utility.yul\":15944:16075   */\n      tag_306\n        /* \"#utility.yul\":16070:16074   */\n      dup2\n        /* \"#utility.yul\":15944:16075   */\n      tag_138\n      jump\t// in\n    tag_306:\n        /* \"#utility.yul\":15936:16075   */\n      swap1\n      pop\n        /* \"#utility.yul\":15663:16082   */\n      swap2\n      swap1\n      pop\n      jump\t// out\n        /* \"#utility.yul\":16088:16268   */\n    tag_83:\n        /* \"#utility.yul\":16136:16213   */\n      0x4e487b7100000000000000000000000000000000000000000000000000000000\n        /* \"#utility.yul\":16133:16134   */\n      0x00\n        /* \"#utility.yul\":16126:16214   */\n      mstore\n        /* \"#utility.yul\":16233:16237   */\n      0x32\n        /* \"#utility.yul\":16230:16231   */\n      0x04\n        /* \"#utility.yul\":16223:16238   */\n      mstore\n        /* \"#utility.yul\":16257:16261   */\n      0x24\n        /* \"#utility.yul\":16254:16255   */\n      0x00\n        /* \"#utility.yul\":16247:16262   */\n      revert\n\n    auxdata: 0xa2646970667358221220538537ee059f20f8ae4396457169bf88be0e134798a13aa1239f022c6256fbe564736f6c63430008140033\n}\n",
				"bytecode": {
					"linkReferences": {},
					"object": "608060405234801561000f575f80fd5b50335f806101000a81548173ffffffffffffffffffffffffffffffffffffffff021916908373ffffffffffffffffffffffffffffffffffffffff1602179055506001805f3373ffffffffffffffffffffffffffffffffffffffff1673ffffffffffffffffffffffffffffffffffffffff1681526020019081526020015f205f6101000a81548160ff02191690831515021790555061122d806100b05f395ff3fe608060405234801561000f575f80fd5b5060043610610086575f3560e01c80638f2fdb42116100595780638f2fdb4214610116578063b48028e314610132578063b91816111461014e578063bae78d7b1461017e57610086565b806310a7fd7b1461008a5780637a360e65146100be57806388411149146100dc5780638da5cb5b146100f8575b5f80fd5b6100a4600480360381019061009f91906109ca565b6101b2565b6040516100b5959493929190610acd565b60405180910390f35b6100c66102b7565b6040516100d39190610b25565b60405180910390f35b6100f660048036038101906100f19190610bc9565b6102c3565b005b61010061059e565b60405161010d9190610c4d565b60405180910390f35b610130600480360381019061012b9190610c66565b6105c1565b005b61014c60048036038101906101479190610c66565b6106e8565b005b61016860048036038101906101639190610c66565b61080f565b6040516101759190610cab565b60405180910390f35b610198600480360381019061019391906109ca565b61082c565b6040516101a9959493929190610acd565b60405180910390f35b600281815481106101c1575f80fd5b905f5260205f2090600502015f91509050805f015f9054906101000a900473ffffffffffffffffffffffffffffffffffffffff1690806001015f9054906101000a900473ffffffffffffffffffffffffffffffffffffffff169080600201549080600301549080600401805461023690610cf1565b80601f016020809104026020016040519081016040528092919081815260200182805461026290610cf1565b80156102ad5780601f10610284576101008083540402835291602001916102ad565b820191905f5260205f20905b81548152906001019060200180831161029057829003601f168201915b5050505050905085565b5f600280549050905090565b60015f3373ffffffffffffffffffffffffffffffffffffffff1673ffffffffffffffffffffffffffffffffffffffff1681526020019081526020015f205f9054906101000a900460ff168061036257505f8054906101000a900473ffffffffffffffffffffffffffffffffffffffff1673ffffffffffffffffffffffffffffffffffffffff163373ffffffffffffffffffffffffffffffffffffffff16145b6103a1576040517f08c379a000000000000000000000000000000000000000000000000000000000815260040161039890610d6b565b60405180910390fd5b5f6040518060a001604052808773ffffffffffffffffffffffffffffffffffffffff1681526020018673ffffffffffffffffffffffffffffffffffffffff16815260200185815260200142815260200184848080601f0160208091040260200160405190810160405280939291908181526020018383808284375f81840152601f19601f820116905080830192505050505050508152509050600281908060018154018082558091505060019003905f5260205f2090600502015f909190919091505f820151815f015f6101000a81548173ffffffffffffffffffffffffffffffffffffffff021916908373ffffffffffffffffffffffffffffffffffffffff1602179055506020820151816001015f6101000a81548173ffffffffffffffffffffffffffffffffffffffff021916908373ffffffffffffffffffffffffffffffffffffffff160217905550604082015181600201556060820151816003015560808201518160040190816105169190610f53565b5050508473ffffffffffffffffffffffffffffffffffffffff168673ffffffffffffffffffffffffffffffffffffffff166001600280549050610559919061104f565b7f64dc13f6ef05327eaac14e375658e9ed75d366b15ec0b2b05d78d10f966cb4ad8742888860405161058e94939291906110bc565b60405180910390a4505050505050565b5f8054906101000a900473ffffffffffffffffffffffffffffffffffffffff1681565b5f8054906101000a900473ffffffffffffffffffffffffffffffffffffffff1673ffffffffffffffffffffffffffffffffffffffff163373ffffffffffffffffffffffffffffffffffffffff161461064e576040517f08c379a000000000000000000000000000000000000000000000000000000000815260040161064590611144565b60405180910390fd5b6001805f8373ffffffffffffffffffffffffffffffffffffffff1673ffffffffffffffffffffffffffffffffffffffff1681526020019081526020015f205f6101000a81548160ff0219169083151502179055508073ffffffffffffffffffffffffffffffffffffffff167ff25a0e224ac5737981fde0570fa08516c2c22a759184d4a457dee8394403bf8260405160405180910390a250565b5f8054906101000a900473ffffffffffffffffffffffffffffffffffffffff1673ffffffffffffffffffffffffffffffffffffffff163373ffffffffffffffffffffffffffffffffffffffff1614610775576040517f08c379a000000000000000000000000000000000000000000000000000000000815260040161076c90611144565b60405180910390fd5b5f60015f8373ffffffffffffffffffffffffffffffffffffffff1673ffffffffffffffffffffffffffffffffffffffff1681526020019081526020015f205f6101000a81548160ff0219169083151502179055508073ffffffffffffffffffffffffffffffffffffffff167f8e8867d264a6df9e7cb8c1c79c550652b89ce7a0db668095edd1df6736dac6cb60405160405180910390a250565b6001602052805f5260405f205f915054906101000a900460ff1681565b5f805f8060606002805490508610610879576040517f08c379a0000000000000000000000000000000000000000000000000000000008152600401610870906111ac565b60405180910390fd5b5f6002878154811061088e5761088d6111ca565b5b905f5260205f2090600502019050805f015f9054906101000a900473ffffffffffffffffffffffffffffffffffffffff16816001015f9054906101000a900473ffffffffffffffffffffffffffffffffffffffff1682600201548360030154846004018080546108fd90610cf1565b80601f016020809104026020016040519081016040528092919081815260200182805461092990610cf1565b80156109745780601f1061094b57610100808354040283529160200191610974565b820191905f5260205f20905b81548152906001019060200180831161095757829003601f168201915b50505050509050955095509550955095505091939590929450565b5f80fd5b5f80fd5b5f819050919050565b6109a981610997565b81146109b3575f80fd5b50565b5f813590506109c4816109a0565b92915050565b5f602082840312156109df576109de61098f565b5b5f6109ec848285016109b6565b91505092915050565b5f73ffffffffffffffffffffffffffffffffffffffff82169050919050565b5f610a1e826109f5565b9050919050565b610a2e81610a14565b82525050565b610a3d81610997565b82525050565b5f81519050919050565b5f82825260208201905092915050565b5f5b83811015610a7a578082015181840152602081019050610a5f565b5f8484015250505050565b5f601f19601f8301169050919050565b5f610a9f82610a43565b610aa98185610a4d565b9350610ab9818560208601610a5d565b610ac281610a85565b840191505092915050565b5f60a082019050610ae05f830188610a25565b610aed6020830187610a25565b610afa6040830186610a34565b610b076060830185610a34565b8181036080830152610b198184610a95565b90509695505050505050565b5f602082019050610b385f830184610a34565b92915050565b610b4781610a14565b8114610b51575f80fd5b50565b5f81359050610b6281610b3e565b92915050565b5f80fd5b5f80fd5b5f80fd5b5f8083601f840112610b8957610b88610b68565b5b8235905067ffffffffffffffff811115610ba657610ba5610b6c565b5b602083019150836001820283011115610bc257610bc1610b70565b5b9250929050565b5f805f805f60808688031215610be257610be161098f565b5b5f610bef88828901610b54565b9550506020610c0088828901610b54565b9450506040610c11888289016109b6565b935050606086013567ffffffffffffffff811115610c3257610c31610993565b5b610c3e88828901610b74565b92509250509295509295909350565b5f602082019050610c605f830184610a25565b92915050565b5f60208284031215610c7b57610c7a61098f565b5b5f610c8884828501610b54565b91505092915050565b5f8115159050919050565b610ca581610c91565b82525050565b5f602082019050610cbe5f830184610c9c565b92915050565b7f4e487b71000000000000000000000000000000000000000000000000000000005f52602260045260245ffd5b5f6002820490506001821680610d0857607f821691505b602082108103610d1b57610d1a610cc4565b5b50919050565b7f4e6f7420617574686f72697a65640000000000000000000000000000000000005f82015250565b5f610d55600e83610a4d565b9150610d6082610d21565b602082019050919050565b5f6020820190508181035f830152610d8281610d49565b9050919050565b7f4e487b71000000000000000000000000000000000000000000000000000000005f52604160045260245ffd5b5f819050815f5260205f209050919050565b5f6020601f8301049050919050565b5f82821b905092915050565b5f60088302610e127fffffffffffffffffffffffffffffffffffffffffffffffffffffffffffffffff82610dd7565b610e1c8683610dd7565b95508019841693508086168417925050509392505050565b5f819050919050565b5f610e57610e52610e4d84610997565b610e34565b610997565b9050919050565b5f819050919050565b610e7083610e3d565b610e84610e7c82610e5e565b848454610de3565b825550505050565b5f90565b610e98610e8c565b610ea3818484610e67565b505050565b5b81811015610ec657610ebb5f82610e90565b600181019050610ea9565b5050565b601f821115610f0b57610edc81610db6565b610ee584610dc8565b81016020851015610ef4578190505b610f08610f0085610dc8565b830182610ea8565b50505b505050565b5f82821c905092915050565b5f610f2b5f1984600802610f10565b1980831691505092915050565b5f610f438383610f1c565b9150826002028217905092915050565b610f5c82610a43565b67ffffffffffffffff811115610f7557610f74610d89565b5b610f7f8254610cf1565b610f8a828285610eca565b5f60209050601f831160018114610fbb575f8415610fa9578287015190505b610fb38582610f38565b86555061101a565b601f198416610fc986610db6565b5f5b82811015610ff057848901518255600182019150602085019450602081019050610fcb565b8683101561100d5784890151611009601f891682610f1c565b8355505b6001600288020188555050505b505050505050565b7f4e487b71000000000000000000000000000000000000000000000000000000005f52601160045260245ffd5b5f61105982610997565b915061106483610997565b925082820390508181111561107c5761107b611022565b5b92915050565b828183375f83830152505050565b5f61109b8385610a4d565b93506110a8838584611082565b6110b183610a85565b840190509392505050565b5f6060820190506110cf5f830187610a34565b6110dc6020830186610a34565b81810360408301526110ef818486611090565b905095945050505050565b7f4e6f7420636f6e7472616374206f776e657200000000000000000000000000005f82015250565b5f61112e601283610a4d565b9150611139826110fa565b602082019050919050565b5f6020820190508181035f83015261115b81611122565b9050919050565b7f496e646578206f7574206f6620626f756e6473000000000000000000000000005f82015250565b5f611196601383610a4d565b91506111a182611162565b602082019050919050565b5f6020820190508181035f8301526111c38161118a565b9050919050565b7f4e487b71000000000000000000000000000000000000000000000000000000005f52603260045260245ffdfea2646970667358221220538537ee059f20f8ae4396457169bf88be0e134798a13aa1239f022c6256fbe564736f6c63430008140033",
					"opcodes": "PUSH1 0x80 PUSH1 0x40 MSTORE CALLVALUE DUP1 ISZERO PUSH2 0xF JUMPI PUSH0 DUP1 REVERT JUMPDEST POP CALLER PUSH0 DUP1 PUSH2 0x100 EXP DUP2 SLOAD DUP2 PUSH20 0xFFFFFFFFFFFFFFFFFFFFFFFFFFFFFFFFFFFFFFFF MUL NOT AND SWAP1 DUP4 PUSH20 0xFFFFFFFFFFFFFFFFFFFFFFFFFFFFFFFFFFFFFFFF AND MUL OR SWAP1 SSTORE POP PUSH1 0x1 DUP1 PUSH0 CALLER PUSH20 0xFFFFFFFFFFFFFFFFFFFFFFFFFFFFFFFFFFFFFFFF AND PUSH20 0xFFFFFFFFFFFFFFFFFFFFFFFFFFFFFFFFFFFFFFFF AND DUP2 MSTORE PUSH1 0x20 ADD SWAP1 DUP2 MSTORE PUSH1 0x20 ADD PUSH0 KECCAK256 PUSH0 PUSH2 0x100 EXP DUP2 SLOAD DUP2 PUSH1 0xFF MUL NOT AND SWAP1 DUP4 ISZERO ISZERO MUL OR SWAP1 SSTORE POP PUSH2 0x122D DUP1 PUSH2 0xB0 PUSH0 CODECOPY PUSH0 RETURN INVALID PUSH1 0x80 PUSH1 0x40 MSTORE CALLVALUE DUP1 ISZERO PUSH2 0xF JUMPI PUSH0 DUP1 REVERT JUMPDEST POP PUSH1 0x4 CALLDATASIZE LT PUSH2 0x86 JUMPI PUSH0 CALLDATALOAD PUSH1 0xE0 SHR DUP1 PUSH4 0x8F2FDB42 GT PUSH2 0x59 JUMPI DUP1 PUSH4 0x8F2FDB42 EQ PUSH2 0x116 JUMPI DUP1 PUSH4 0xB48028E3 EQ PUSH2 0x132 JUMPI DUP1 PUSH4 0xB9181611 EQ PUSH2 0x14E JUMPI DUP1 PUSH4 0xBAE78D7B EQ PUSH2 0x17E JUMPI PUSH2 0x86 JUMP JUMPDEST DUP1 PUSH4 0x10A7FD7B EQ PUSH2 0x8A JUMPI DUP1 PUSH4 0x7A360E65 EQ PUSH2 0xBE JUMPI DUP1 PUSH4 0x88411149 EQ PUSH2 0xDC JUMPI DUP1 PUSH4 0x8DA5CB5B EQ PUSH2 0xF8 JUMPI JUMPDEST PUSH0 DUP1 REVERT JUMPDEST PUSH2 0xA4 PUSH1 0x4 DUP1 CALLDATASIZE SUB DUP2 ADD SWAP1 PUSH2 0x9F SWAP2 SWAP1 PUSH2 0x9CA JUMP JUMPDEST PUSH2 0x1B2 JUMP JUMPDEST PUSH1 0x40 MLOAD PUSH2 0xB5 SWAP6 SWAP5 SWAP4 SWAP3 SWAP2 SWAP1 PUSH2 0xACD JUMP JUMPDEST PUSH1 0x40 MLOAD DUP1 SWAP2 SUB SWAP1 RETURN JUMPDEST PUSH2 0xC6 PUSH2 0x2B7 JUMP JUMPDEST PUSH1 0x40 MLOAD PUSH2 0xD3 SWAP2 SWAP1 PUSH2 0xB25 JUMP JUMPDEST PUSH1 0x40 MLOAD DUP1 SWAP2 SUB SWAP1 RETURN JUMPDEST PUSH2 0xF6 PUSH1 0x4 DUP1 CALLDATASIZE SUB DUP2 ADD SWAP1 PUSH2 0xF1 SWAP2 SWAP1 PUSH2 0xBC9 JUMP JUMPDEST PUSH2 0x2C3 JUMP JUMPDEST STOP JUMPDEST PUSH2 0x100 PUSH2 0x59E JUMP JUMPDEST PUSH1 0x40 MLOAD PUSH2 0x10D SWAP2 SWAP1 PUSH2 0xC4D JUMP JUMPDEST PUSH1 0x40 MLOAD DUP1 SWAP2 SUB SWAP1 RETURN JUMPDEST PUSH2 0x130 PUSH1 0x4 DUP1 CALLDATASIZE SUB DUP2 ADD SWAP1 PUSH2 0x12B SWAP2 SWAP1 PUSH2 0xC66 JUMP JUMPDEST PUSH2 0x5C1 JUMP JUMPDEST STOP JUMPDEST PUSH2 0x14C PUSH1 0x4 DUP1 CALLDATASIZE SUB DUP2 ADD SWAP1 PUSH2 0x147 SWAP2 SWAP1 PUSH2 0xC66 JUMP JUMPDEST PUSH2 0x6E8 JUMP JUMPDEST STOP JUMPDEST PUSH2 0x168 PUSH1 0x4 DUP1 CALLDATASIZE SUB DUP2 ADD SWAP1 PUSH2 0x163 SWAP2 SWAP1 PUSH2 0xC66 JUMP JUMPDEST PUSH2 0x80F JUMP JUMPDEST PUSH1 0x40 MLOAD PUSH2 0x175 SWAP2 SWAP1 PUSH2 0xCAB JUMP JUMPDEST PUSH1 0x40 MLOAD DUP1 SWAP2 SUB SWAP1 RETURN JUMPDEST PUSH2 0x198 PUSH1 0x4 DUP1 CALLDATASIZE SUB DUP2 ADD SWAP1 PUSH2 0x193 SWAP2 SWAP1 PUSH2 0x9CA JUMP JUMPDEST PUSH2 0x82C JUMP JUMPDEST PUSH1 0x40 MLOAD PUSH2 0x1A9 SWAP6 SWAP5 SWAP4 SWAP3 SWAP2 SWAP1 PUSH2 0xACD JUMP JUMPDEST PUSH1 0x40 MLOAD DUP1 SWAP2 SUB SWAP1 RETURN JUMPDEST PUSH1 0x2 DUP2 DUP2 SLOAD DUP2 LT PUSH2 0x1C1 JUMPI PUSH0 DUP1 REVERT JUMPDEST SWAP1 PUSH0 MSTORE PUSH1 0x20 PUSH0 KECCAK256 SWAP1 PUSH1 0x5 MUL ADD PUSH0 SWAP2 POP SWAP1 POP DUP1 PUSH0 ADD PUSH0 SWAP1 SLOAD SWAP1 PUSH2 0x100 EXP SWAP1 DIV PUSH20 0xFFFFFFFFFFFFFFFFFFFFFFFFFFFFFFFFFFFFFFFF AND SWAP1 DUP1 PUSH1 0x1 ADD PUSH0 SWAP1 SLOAD SWAP1 PUSH2 0x100 EXP SWAP1 DIV PUSH20 0xFFFFFFFFFFFFFFFFFFFFFFFFFFFFFFFFFFFFFFFF AND SWAP1 DUP1 PUSH1 0x2 ADD SLOAD SWAP1 DUP1 PUSH1 0x3 ADD SLOAD SWAP1 DUP1 PUSH1 0x4 ADD DUP1 SLOAD PUSH2 0x236 SWAP1 PUSH2 0xCF1 JUMP JUMPDEST DUP1 PUSH1 0x1F ADD PUSH1 0x20 DUP1 SWAP2 DIV MUL PUSH1 0x20 ADD PUSH1 0x40 MLOAD SWAP1 DUP2 ADD PUSH1 0x40 MSTORE DUP1 SWAP3 SWAP2 SWAP1 DUP2 DUP2 MSTORE PUSH1 0x20 ADD DUP3 DUP1 SLOAD PUSH2 0x262 SWAP1 PUSH2 0xCF1 JUMP JUMPDEST DUP1 ISZERO PUSH2 0x2AD JUMPI DUP1 PUSH1 0x1F LT PUSH2 0x284 JUMPI PUSH2 0x100 DUP1 DUP4 SLOAD DIV MUL DUP4 MSTORE SWAP2 PUSH1 0x20 ADD SWAP2 PUSH2 0x2AD JUMP JUMPDEST DUP3 ADD SWAP2 SWAP1 PUSH0 MSTORE PUSH1 0x20 PUSH0 KECCAK256 SWAP1 JUMPDEST DUP2 SLOAD DUP2 MSTORE SWAP1 PUSH1 0x1 ADD SWAP1 PUSH1 0x20 ADD DUP1 DUP4 GT PUSH2 0x290 JUMPI DUP3 SWAP1 SUB PUSH1 0x1F AND DUP3 ADD SWAP2 JUMPDEST POP POP POP POP POP SWAP1 POP DUP6 JUMP JUMPDEST PUSH0 PUSH1 0x2 DUP1 SLOAD SWAP1 POP SWAP1 POP SWAP1 JUMP JUMPDEST PUSH1 0x1 PUSH0 CALLER PUSH20 0xFFFFFFFFFFFFFFFFFFFFFFFFFFFFFFFFFFFFFFFF AND PUSH20 0xFFFFFFFFFFFFFFFFFFFFFFFFFFFFFFFFFFFFFFFF AND DUP2 MSTORE PUSH1 0x20 ADD SWAP1 DUP2 MSTORE PUSH1 0x20 ADD PUSH0 KECCAK256 PUSH0 SWAP1 SLOAD SWAP1 PUSH2 0x100 EXP SWAP1 DIV PUSH1 0xFF AND DUP1 PUSH2 0x362 JUMPI POP PUSH0 DUP1 SLOAD SWAP1 PUSH2 0x100 EXP SWAP1 DIV PUSH20 0xFFFFFFFFFFFFFFFFFFFFFFFFFFFFFFFFFFFFFFFF AND PUSH20 0xFFFFFFFFFFFFFFFFFFFFFFFFFFFFFFFFFFFFFFFF AND CALLER PUSH20 0xFFFFFFFFFFFFFFFFFFFFFFFFFFFFFFFFFFFFFFFF AND EQ JUMPDEST PUSH2 0x3A1 JUMPI PUSH1 0x40 MLOAD PUSH32 0x8C379A000000000000000000000000000000000000000000000000000000000 DUP2 MSTORE PUSH1 0x4 ADD PUSH2 0x398 SWAP1 PUSH2 0xD6B JUMP JUMPDEST PUSH1 0x40 MLOAD DUP1 SWAP2 SUB SWAP1 REVERT JUMPDEST PUSH0 PUSH1 0x40 MLOAD DUP1 PUSH1 0xA0 ADD PUSH1 0x40 MSTORE DUP1 DUP8 PUSH20 0xFFFFFFFFFFFFFFFFFFFFFFFFFFFFFFFFFFFFFFFF AND DUP2 MSTORE PUSH1 0x20 ADD DUP7 PUSH20 0xFFFFFFFFFFFFFFFFFFFFFFFFFFFFFFFFFFFFFFFF AND DUP2 MSTORE PUSH1 0x20 ADD DUP6 DUP2 MSTORE PUSH1 0x20 ADD TIMESTAMP DUP2 MSTORE PUSH1 0x20 ADD DUP5 DUP5 DUP1 DUP1 PUSH1 0x1F ADD PUSH1 0x20 DUP1 SWAP2 DIV MUL PUSH1 0x20 ADD PUSH1 0x40 MLOAD SWAP1 DUP2 ADD PUSH1 0x40 MSTORE DUP1 SWAP4 SWAP3 SWAP2 SWAP1 DUP2 DUP2 MSTORE PUSH1 0x20 ADD DUP4 DUP4 DUP1 DUP3 DUP5 CALLDATACOPY PUSH0 DUP2 DUP5 ADD MSTORE PUSH1 0x1F NOT PUSH1 0x1F DUP3 ADD AND SWAP1 POP DUP1 DUP4 ADD SWAP3 POP POP POP POP POP POP POP DUP2 MSTORE POP SWAP1 POP PUSH1 0x2 DUP2 SWAP1 DUP1 PUSH1 0x1 DUP2 SLOAD ADD DUP1 DUP3 SSTORE DUP1 SWAP2 POP POP PUSH1 0x1 SWAP1 SUB SWAP1 PUSH0 MSTORE PUSH1 0x20 PUSH0 KECCAK256 SWAP1 PUSH1 0x5 MUL ADD PUSH0 SWAP1 SWAP2 SWAP1 SWAP2 SWAP1 SWAP2 POP PUSH0 DUP3 ADD MLOAD DUP2 PUSH0 ADD PUSH0 PUSH2 0x100 EXP DUP2 SLOAD DUP2 PUSH20 0xFFFFFFFFFFFFFFFFFFFFFFFFFFFFFFFFFFFFFFFF MUL NOT AND SWAP1 DUP4 PUSH20 0xFFFFFFFFFFFFFFFFFFFFFFFFFFFFFFFFFFFFFFFF AND MUL OR SWAP1 SSTORE POP PUSH1 0x20 DUP3 ADD MLOAD DUP2 PUSH1 0x1 ADD PUSH0 PUSH2 0x100 EXP DUP2 SLOAD DUP2 PUSH20 0xFFFFFFFFFFFFFFFFFFFFFFFFFFFFFFFFFFFFFFFF MUL NOT AND SWAP1 DUP4 PUSH20 0xFFFFFFFFFFFFFFFFFFFFFFFFFFFFFFFFFFFFFFFF AND MUL OR SWAP1 SSTORE POP PUSH1 0x40 DUP3 ADD MLOAD DUP2 PUSH1 0x2 ADD SSTORE PUSH1 0x60 DUP3 ADD MLOAD DUP2 PUSH1 0x3 ADD SSTORE PUSH1 0x80 DUP3 ADD MLOAD DUP2 PUSH1 0x4 ADD SWAP1 DUP2 PUSH2 0x516 SWAP2 SWAP1 PUSH2 0xF53 JUMP JUMPDEST POP POP POP DUP5 PUSH20 0xFFFFFFFFFFFFFFFFFFFFFFFFFFFFFFFFFFFFFFFF AND DUP7 PUSH20 0xFFFFFFFFFFFFFFFFFFFFFFFFFFFFFFFFFFFFFFFF AND PUSH1 0x1 PUSH1 0x2 DUP1 SLOAD SWAP1 POP PUSH2 0x559 SWAP2 SWAP1 PUSH2 0x104F JUMP JUMPDEST PUSH32 0x64DC13F6EF05327EAAC14E375658E9ED75D366B15EC0B2B05D78D10F966CB4AD DUP8 TIMESTAMP DUP9 DUP9 PUSH1 0x40 MLOAD PUSH2 0x58E SWAP5 SWAP4 SWAP3 SWAP2 SWAP1 PUSH2 0x10BC JUMP JUMPDEST PUSH1 0x40 MLOAD DUP1 SWAP2 SUB SWAP1 LOG4 POP POP POP POP POP POP JUMP JUMPDEST PUSH0 DUP1 SLOAD SWAP1 PUSH2 0x100 EXP SWAP1 DIV PUSH20 0xFFFFFFFFFFFFFFFFFFFFFFFFFFFFFFFFFFFFFFFF AND DUP2 JUMP JUMPDEST PUSH0 DUP1 SLOAD SWAP1 PUSH2 0x100 EXP SWAP1 DIV PUSH20 0xFFFFFFFFFFFFFFFFFFFFFFFFFFFFFFFFFFFFFFFF AND PUSH20 0xFFFFFFFFFFFFFFFFFFFFFFFFFFFFFFFFFFFFFFFF AND CALLER PUSH20 0xFFFFFFFFFFFFFFFFFFFFFFFFFFFFFFFFFFFFFFFF AND EQ PUSH2 0x64E JUMPI PUSH1 0x40 MLOAD PUSH32 0x8C379A000000000000000000000000000000000000000000000000000000000 DUP2 MSTORE PUSH1 0x4 ADD PUSH2 0x645 SWAP1 PUSH2 0x1144 JUMP JUMPDEST PUSH1 0x40 MLOAD DUP1 SWAP2 SUB SWAP1 REVERT JUMPDEST PUSH1 0x1 DUP1 PUSH0 DUP4 PUSH20 0xFFFFFFFFFFFFFFFFFFFFFFFFFFFFFFFFFFFFFFFF AND PUSH20 0xFFFFFFFFFFFFFFFFFFFFFFFFFFFFFFFFFFFFFFFF AND DUP2 MSTORE PUSH1 0x20 ADD SWAP1 DUP2 MSTORE PUSH1 0x20 ADD PUSH0 KECCAK256 PUSH0 PUSH2 0x100 EXP DUP2 SLOAD DUP2 PUSH1 0xFF MUL NOT AND SWAP1 DUP4 ISZERO ISZERO MUL OR SWAP1 SSTORE POP DUP1 PUSH20 0xFFFFFFFFFFFFFFFFFFFFFFFFFFFFFFFFFFFFFFFF AND PUSH32 0xF25A0E224AC5737981FDE0570FA08516C2C22A759184D4A457DEE8394403BF82 PUSH1 0x40 MLOAD PUSH1 0x40 MLOAD DUP1 SWAP2 SUB SWAP1 LOG2 POP JUMP JUMPDEST PUSH0 DUP1 SLOAD SWAP1 PUSH2 0x100 EXP SWAP1 DIV PUSH20 0xFFFFFFFFFFFFFFFFFFFFFFFFFFFFFFFFFFFFFFFF AND PUSH20 0xFFFFFFFFFFFFFFFFFFFFFFFFFFFFFFFFFFFFFFFF AND CALLER PUSH20 0xFFFFFFFFFFFFFFFFFFFFFFFFFFFFFFFFFFFFFFFF AND EQ PUSH2 0x775 JUMPI PUSH1 0x40 MLOAD PUSH32 0x8C379A000000000000000000000000000000000000000000000000000000000 DUP2 MSTORE PUSH1 0x4 ADD PUSH2 0x76C SWAP1 PUSH2 0x1144 JUMP JUMPDEST PUSH1 0x40 MLOAD DUP1 SWAP2 SUB SWAP1 REVERT JUMPDEST PUSH0 PUSH1 0x1 PUSH0 DUP4 PUSH20 0xFFFFFFFFFFFFFFFFFFFFFFFFFFFFFFFFFFFFFFFF AND PUSH20 0xFFFFFFFFFFFFFFFFFFFFFFFFFFFFFFFFFFFFFFFF AND DUP2 MSTORE PUSH1 0x20 ADD SWAP1 DUP2 MSTORE PUSH1 0x20 ADD PUSH0 KECCAK256 PUSH0 PUSH2 0x100 EXP DUP2 SLOAD DUP2 PUSH1 0xFF MUL NOT AND SWAP1 DUP4 ISZERO ISZERO MUL OR SWAP1 SSTORE POP DUP1 PUSH20 0xFFFFFFFFFFFFFFFFFFFFFFFFFFFFFFFFFFFFFFFF AND PUSH32 0x8E8867D264A6DF9E7CB8C1C79C550652B89CE7A0DB668095EDD1DF6736DAC6CB PUSH1 0x40 MLOAD PUSH1 0x40 MLOAD DUP1 SWAP2 SUB SWAP1 LOG2 POP JUMP JUMPDEST PUSH1 0x1 PUSH1 0x20 MSTORE DUP1 PUSH0 MSTORE PUSH1 0x40 PUSH0 KECCAK256 PUSH0 SWAP2 POP SLOAD SWAP1 PUSH2 0x100 EXP SWAP1 DIV PUSH1 0xFF AND DUP2 JUMP JUMPDEST PUSH0 DUP1 PUSH0 DUP1 PUSH1 0x60 PUSH1 0x2 DUP1 SLOAD SWAP1 POP DUP7 LT PUSH2 0x879 JUMPI PUSH1 0x40 MLOAD PUSH32 0x8C379A000000000000000000000000000000000000000000000000000000000 DUP2 MSTORE PUSH1 0x4 ADD PUSH2 0x870 SWAP1 PUSH2 0x11AC JUMP JUMPDEST PUSH1 0x40 MLOAD DUP1 SWAP2 SUB SWAP1 REVERT JUMPDEST PUSH0 PUSH1 0x2 DUP8 DUP2 SLOAD DUP2 LT PUSH2 0x88E JUMPI PUSH2 0x88D PUSH2 0x11CA JUMP JUMPDEST JUMPDEST SWAP1 PUSH0 MSTORE PUSH1 0x20 PUSH0 KECCAK256 SWAP1 PUSH1 0x5 MUL ADD SWAP1 POP DUP1 PUSH0 ADD PUSH0 SWAP1 SLOAD SWAP1 PUSH2 0x100 EXP SWAP1 DIV PUSH20 0xFFFFFFFFFFFFFFFFFFFFFFFFFFFFFFFFFFFFFFFF AND DUP2 PUSH1 0x1 ADD PUSH0 SWAP1 SLOAD SWAP1 PUSH2 0x100 EXP SWAP1 DIV PUSH20 0xFFFFFFFFFFFFFFFFFFFFFFFFFFFFFFFFFFFFFFFF AND DUP3 PUSH1 0x2 ADD SLOAD DUP4 PUSH1 0x3 ADD SLOAD DUP5 PUSH1 0x4 ADD DUP1 DUP1 SLOAD PUSH2 0x8FD SWAP1 PUSH2 0xCF1 JUMP JUMPDEST DUP1 PUSH1 0x1F ADD PUSH1 0x20 DUP1 SWAP2 DIV MUL PUSH1 0x20 ADD PUSH1 0x40 MLOAD SWAP1 DUP2 ADD PUSH1 0x40 MSTORE DUP1 SWAP3 SWAP2 SWAP1 DUP2 DUP2 MSTORE PUSH1 0x20 ADD DUP3 DUP1 SLOAD PUSH2 0x929 SWAP1 PUSH2 0xCF1 JUMP JUMPDEST DUP1 ISZERO PUSH2 0x974 JUMPI DUP1 PUSH1 0x1F LT PUSH2 0x94B JUMPI PUSH2 0x100 DUP1 DUP4 SLOAD DIV MUL DUP4 MSTORE SWAP2 PUSH1 0x20 ADD SWAP2 PUSH2 0x974 JUMP JUMPDEST DUP3 ADD SWAP2 SWAP1 PUSH0 MSTORE PUSH1 0x20 PUSH0 KECCAK256 SWAP1 JUMPDEST DUP2 SLOAD DUP2 MSTORE SWAP1 PUSH1 0x1 ADD SWAP1 PUSH1 0x20 ADD DUP1 DUP4 GT PUSH2 0x957 JUMPI DUP3 SWAP1 SUB PUSH1 0x1F AND DUP3 ADD SWAP2 JUMPDEST POP POP POP POP POP SWAP1 POP SWAP6 POP SWAP6 POP SWAP6 POP SWAP6 POP SWAP6 POP POP SWAP2 SWAP4 SWAP6 SWAP1 SWAP3 SWAP5 POP JUMP JUMPDEST PUSH0 DUP1 REVERT JUMPDEST PUSH0 DUP1 REVERT JUMPDEST PUSH0 DUP2 SWAP1 POP SWAP2 SWAP1 POP JUMP JUMPDEST PUSH2 0x9A9 DUP2 PUSH2 0x997 JUMP JUMPDEST DUP2 EQ PUSH2 0x9B3 JUMPI PUSH0 DUP1 REVERT JUMPDEST POP JUMP JUMPDEST PUSH0 DUP2 CALLDATALOAD SWAP1 POP PUSH2 0x9C4 DUP2 PUSH2 0x9A0 JUMP JUMPDEST SWAP3 SWAP2 POP POP JUMP JUMPDEST PUSH0 PUSH1 0x20 DUP3 DUP5 SUB SLT ISZERO PUSH2 0x9DF JUMPI PUSH2 0x9DE PUSH2 0x98F JUMP JUMPDEST JUMPDEST PUSH0 PUSH2 0x9EC DUP5 DUP3 DUP6 ADD PUSH2 0x9B6 JUMP JUMPDEST SWAP2 POP POP SWAP3 SWAP2 POP POP JUMP JUMPDEST PUSH0 PUSH20 0xFFFFFFFFFFFFFFFFFFFFFFFFFFFFFFFFFFFFFFFF DUP3 AND SWAP1 POP SWAP2 SWAP1 POP JUMP JUMPDEST PUSH0 PUSH2 0xA1E DUP3 PUSH2 0x9F5 JUMP JUMPDEST SWAP1 POP SWAP2 SWAP1 POP JUMP JUMPDEST PUSH2 0xA2E DUP2 PUSH2 0xA14 JUMP JUMPDEST DUP3 MSTORE POP POP JUMP JUMPDEST PUSH2 0xA3D DUP2 PUSH2 0x997 JUMP JUMPDEST DUP3 MSTORE POP POP JUMP JUMPDEST PUSH0 DUP2 MLOAD SWAP1 POP SWAP2 SWAP1 POP JUMP JUMPDEST PUSH0 DUP3 DUP3 MSTORE PUSH1 0x20 DUP3 ADD SWAP1 POP SWAP3 SWAP2 POP POP JUMP JUMPDEST PUSH0 JUMPDEST DUP4 DUP2 LT ISZERO PUSH2 0xA7A JUMPI DUP1 DUP3 ADD MLOAD DUP2 DUP5 ADD MSTORE PUSH1 0x20 DUP2 ADD SWAP1 POP PUSH2 0xA5F JUMP JUMPDEST PUSH0 DUP5 DUP5 ADD MSTORE POP POP POP POP JUMP JUMPDEST PUSH0 PUSH1 0x1F NOT PUSH1 0x1F DUP4 ADD AND SWAP1 POP SWAP2 SWAP1 POP JUMP JUMPDEST PUSH0 PUSH2 0xA9F DUP3 PUSH2 0xA43 JUMP JUMPDEST PUSH2 0xAA9 DUP2 DUP6 PUSH2 0xA4D JUMP JUMPDEST SWAP4 POP PUSH2 0xAB9 DUP2 DUP6 PUSH1 0x20 DUP7 ADD PUSH2 0xA5D JUMP JUMPDEST PUSH2 0xAC2 DUP2 PUSH2 0xA85 JUMP JUMPDEST DUP5 ADD SWAP2 POP POP SWAP3 SWAP2 POP POP JUMP JUMPDEST PUSH0 PUSH1 0xA0 DUP3 ADD SWAP1 POP PUSH2 0xAE0 PUSH0 DUP4 ADD DUP9 PUSH2 0xA25 JUMP JUMPDEST PUSH2 0xAED PUSH1 0x20 DUP4 ADD DUP8 PUSH2 0xA25 JUMP JUMPDEST PUSH2 0xAFA PUSH1 0x40 DUP4 ADD DUP7 PUSH2 0xA34 JUMP JUMPDEST PUSH2 0xB07 PUSH1 0x60 DUP4 ADD DUP6 PUSH2 0xA34 JUMP JUMPDEST DUP2 DUP2 SUB PUSH1 0x80 DUP4 ADD MSTORE PUSH2 0xB19 DUP2 DUP5 PUSH2 0xA95 JUMP JUMPDEST SWAP1 POP SWAP7 SWAP6 POP POP POP POP POP POP JUMP JUMPDEST PUSH0 PUSH1 0x20 DUP3 ADD SWAP1 POP PUSH2 0xB38 PUSH0 DUP4 ADD DUP5 PUSH2 0xA34 JUMP JUMPDEST SWAP3 SWAP2 POP POP JUMP JUMPDEST PUSH2 0xB47 DUP2 PUSH2 0xA14 JUMP JUMPDEST DUP2 EQ PUSH2 0xB51 JUMPI PUSH0 DUP1 REVERT JUMPDEST POP JUMP JUMPDEST PUSH0 DUP2 CALLDATALOAD SWAP1 POP PUSH2 0xB62 DUP2 PUSH2 0xB3E JUMP JUMPDEST SWAP3 SWAP2 POP POP JUMP JUMPDEST PUSH0 DUP1 REVERT JUMPDEST PUSH0 DUP1 REVERT JUMPDEST PUSH0 DUP1 REVERT JUMPDEST PUSH0 DUP1 DUP4 PUSH1 0x1F DUP5 ADD SLT PUSH2 0xB89 JUMPI PUSH2 0xB88 PUSH2 0xB68 JUMP JUMPDEST JUMPDEST DUP3 CALLDATALOAD SWAP1 POP PUSH8 0xFFFFFFFFFFFFFFFF DUP2 GT ISZERO PUSH2 0xBA6 JUMPI PUSH2 0xBA5 PUSH2 0xB6C JUMP JUMPDEST JUMPDEST PUSH1 0x20 DUP4 ADD SWAP2 POP DUP4 PUSH1 0x1 DUP3 MUL DUP4 ADD GT ISZERO PUSH2 0xBC2 JUMPI PUSH2 0xBC1 PUSH2 0xB70 JUMP JUMPDEST JUMPDEST SWAP3 POP SWAP3 SWAP1 POP JUMP JUMPDEST PUSH0 DUP1 PUSH0 DUP1 PUSH0 PUSH1 0x80 DUP7 DUP9 SUB SLT ISZERO PUSH2 0xBE2 JUMPI PUSH2 0xBE1 PUSH2 0x98F JUMP JUMPDEST JUMPDEST PUSH0 PUSH2 0xBEF DUP9 DUP3 DUP10 ADD PUSH2 0xB54 JUMP JUMPDEST SWAP6 POP POP PUSH1 0x20 PUSH2 0xC00 DUP9 DUP3 DUP10 ADD PUSH2 0xB54 JUMP JUMPDEST SWAP5 POP POP PUSH1 0x40 PUSH2 0xC11 DUP9 DUP3 DUP10 ADD PUSH2 0x9B6 JUMP JUMPDEST SWAP4 POP POP PUSH1 0x60 DUP7 ADD CALLDATALOAD PUSH8 0xFFFFFFFFFFFFFFFF DUP2 GT ISZERO PUSH2 0xC32 JUMPI PUSH2 0xC31 PUSH2 0x993 JUMP JUMPDEST JUMPDEST PUSH2 0xC3E DUP9 DUP3 DUP10 ADD PUSH2 0xB74 JUMP JUMPDEST SWAP3 POP SWAP3 POP POP SWAP3 SWAP6 POP SWAP3 SWAP6 SWAP1 SWAP4 POP JUMP JUMPDEST PUSH0 PUSH1 0x20 DUP3 ADD SWAP1 POP PUSH2 0xC60 PUSH0 DUP4 ADD DUP5 PUSH2 0xA25 JUMP JUMPDEST SWAP3 SWAP2 POP POP JUMP JUMPDEST PUSH0 PUSH1 0x20 DUP3 DUP5 SUB SLT ISZERO PUSH2 0xC7B JUMPI PUSH2 0xC7A PUSH2 0x98F JUMP JUMPDEST JUMPDEST PUSH0 PUSH2 0xC88 DUP5 DUP3 DUP6 ADD PUSH2 0xB54 JUMP JUMPDEST SWAP2 POP POP SWAP3 SWAP2 POP POP JUMP JUMPDEST PUSH0 DUP2 ISZERO ISZERO SWAP1 POP SWAP2 SWAP1 POP JUMP JUMPDEST PUSH2 0xCA5 DUP2 PUSH2 0xC91 JUMP JUMPDEST DUP3 MSTORE POP POP JUMP JUMPDEST PUSH0 PUSH1 0x20 DUP3 ADD SWAP1 POP PUSH2 0xCBE PUSH0 DUP4 ADD DUP5 PUSH2 0xC9C JUMP JUMPDEST SWAP3 SWAP2 POP POP JUMP JUMPDEST PUSH32 0x4E487B7100000000000000000000000000000000000000000000000000000000 PUSH0 MSTORE PUSH1 0x22 PUSH1 0x4 MSTORE PUSH1 0x24 PUSH0 REVERT JUMPDEST PUSH0 PUSH1 0x2 DUP3 DIV SWAP1 POP PUSH1 0x1 DUP3 AND DUP1 PUSH2 0xD08 JUMPI PUSH1 0x7F DUP3 AND SWAP2 POP JUMPDEST PUSH1 0x20 DUP3 LT DUP2 SUB PUSH2 0xD1B JUMPI PUSH2 0xD1A PUSH2 0xCC4 JUMP JUMPDEST JUMPDEST POP SWAP2 SWAP1 POP JUMP JUMPDEST PUSH32 0x4E6F7420617574686F72697A6564000000000000000000000000000000000000 PUSH0 DUP3 ADD MSTORE POP JUMP JUMPDEST PUSH0 PUSH2 0xD55 PUSH1 0xE DUP4 PUSH2 0xA4D JUMP JUMPDEST SWAP2 POP PUSH2 0xD60 DUP3 PUSH2 0xD21 JUMP JUMPDEST PUSH1 0x20 DUP3 ADD SWAP1 POP SWAP2 SWAP1 POP JUMP JUMPDEST PUSH0 PUSH1 0x20 DUP3 ADD SWAP1 POP DUP2 DUP2 SUB PUSH0 DUP4 ADD MSTORE PUSH2 0xD82 DUP2 PUSH2 0xD49 JUMP JUMPDEST SWAP1 POP SWAP2 SWAP1 POP JUMP JUMPDEST PUSH32 0x4E487B7100000000000000000000000000000000000000000000000000000000 PUSH0 MSTORE PUSH1 0x41 PUSH1 0x4 MSTORE PUSH1 0x24 PUSH0 REVERT JUMPDEST PUSH0 DUP2 SWAP1 POP DUP2 PUSH0 MSTORE PUSH1 0x20 PUSH0 KECCAK256 SWAP1 POP SWAP2 SWAP1 POP JUMP JUMPDEST PUSH0 PUSH1 0x20 PUSH1 0x1F DUP4 ADD DIV SWAP1 POP SWAP2 SWAP1 POP JUMP JUMPDEST PUSH0 DUP3 DUP3 SHL SWAP1 POP SWAP3 SWAP2 POP POP JUMP JUMPDEST PUSH0 PUSH1 0x8 DUP4 MUL PUSH2 0xE12 PUSH32 0xFFFFFFFFFFFFFFFFFFFFFFFFFFFFFFFFFFFFFFFFFFFFFFFFFFFFFFFFFFFFFFFF DUP3 PUSH2 0xDD7 JUMP JUMPDEST PUSH2 0xE1C DUP7 DUP4 PUSH2 0xDD7 JUMP JUMPDEST SWAP6 POP DUP1 NOT DUP5 AND SWAP4 POP DUP1 DUP7 AND DUP5 OR SWAP3 POP POP POP SWAP4 SWAP3 POP POP POP JUMP JUMPDEST PUSH0 DUP2 SWAP1 POP SWAP2 SWAP1 POP JUMP JUMPDEST PUSH0 PUSH2 0xE57 PUSH2 0xE52 PUSH2 0xE4D DUP5 PUSH2 0x997 JUMP JUMPDEST PUSH2 0xE34 JUMP JUMPDEST PUSH2 0x997 JUMP JUMPDEST SWAP1 POP SWAP2 SWAP1 POP JUMP JUMPDEST PUSH0 DUP2 SWAP1 POP SWAP2 SWAP1 POP JUMP JUMPDEST PUSH2 0xE70 DUP4 PUSH2 0xE3D JUMP JUMPDEST PUSH2 0xE84 PUSH2 0xE7C DUP3 PUSH2 0xE5E JUMP JUMPDEST DUP5 DUP5 SLOAD PUSH2 0xDE3 JUMP JUMPDEST DUP3 SSTORE POP POP POP POP JUMP JUMPDEST PUSH0 SWAP1 JUMP JUMPDEST PUSH2 0xE98 PUSH2 0xE8C JUMP JUMPDEST PUSH2 0xEA3 DUP2 DUP5 DUP5 PUSH2 0xE67 JUMP JUMPDEST POP POP POP JUMP JUMPDEST JUMPDEST DUP2 DUP2 LT ISZERO PUSH2 0xEC6 JUMPI PUSH2 0xEBB PUSH0 DUP3 PUSH2 0xE90 JUMP JUMPDEST PUSH1 0x1 DUP2 ADD SWAP1 POP PUSH2 0xEA9 JUMP JUMPDEST POP POP JUMP JUMPDEST PUSH1 0x1F DUP3 GT ISZERO PUSH2 0xF0B JUMPI PUSH2 0xEDC DUP2 PUSH2 0xDB6 JUMP JUMPDEST PUSH2 0xEE5 DUP5 PUSH2 0xDC8 JUMP JUMPDEST DUP2 ADD PUSH1 0x20 DUP6 LT ISZERO PUSH2 0xEF4 JUMPI DUP2 SWAP1 POP JUMPDEST PUSH2 0xF08 PUSH2 0xF00 DUP6 PUSH2 0xDC8 JUMP JUMPDEST DUP4 ADD DUP3 PUSH2 0xEA8 JUMP JUMPDEST POP POP JUMPDEST POP POP POP JUMP JUMPDEST PUSH0 DUP3 DUP3 SHR SWAP1 POP SWAP3 SWAP2 POP POP JUMP JUMPDEST PUSH0 PUSH2 0xF2B PUSH0 NOT DUP5 PUSH1 0x8 MUL PUSH2 0xF10 JUMP JUMPDEST NOT DUP1 DUP4 AND SWAP2 POP POP SWAP3 SWAP2 POP POP JUMP JUMPDEST PUSH0 PUSH2 0xF43 DUP4 DUP4 PUSH2 0xF1C JUMP JUMPDEST SWAP2 POP DUP3 PUSH1 0x2 MUL DUP3 OR SWAP1 POP SWAP3 SWAP2 POP POP JUMP JUMPDEST PUSH2 0xF5C DUP3 PUSH2 0xA43 JUMP JUMPDEST PUSH8 0xFFFFFFFFFFFFFFFF DUP2 GT ISZERO PUSH2 0xF75 JUMPI PUSH2 0xF74 PUSH2 0xD89 JUMP JUMPDEST JUMPDEST PUSH2 0xF7F DUP3 SLOAD PUSH2 0xCF1 JUMP JUMPDEST PUSH2 0xF8A DUP3 DUP3 DUP6 PUSH2 0xECA JUMP JUMPDEST PUSH0 PUSH1 0x20 SWAP1 POP PUSH1 0x1F DUP4 GT PUSH1 0x1 DUP2 EQ PUSH2 0xFBB JUMPI PUSH0 DUP5 ISZERO PUSH2 0xFA9 JUMPI DUP3 DUP8 ADD MLOAD SWAP1 POP JUMPDEST PUSH2 0xFB3 DUP6 DUP3 PUSH2 0xF38 JUMP JUMPDEST DUP7 SSTORE POP PUSH2 0x101A JUMP JUMPDEST PUSH1 0x1F NOT DUP5 AND PUSH2 0xFC9 DUP7 PUSH2 0xDB6 JUMP JUMPDEST PUSH0 JUMPDEST DUP3 DUP2 LT ISZERO PUSH2 0xFF0 JUMPI DUP5 DUP10 ADD MLOAD DUP3 SSTORE PUSH1 0x1 DUP3 ADD SWAP2 POP PUSH1 0x20 DUP6 ADD SWAP5 POP PUSH1 0x20 DUP2 ADD SWAP1 POP PUSH2 0xFCB JUMP JUMPDEST DUP7 DUP4 LT ISZERO PUSH2 0x100D JUMPI DUP5 DUP10 ADD MLOAD PUSH2 0x1009 PUSH1 0x1F DUP10 AND DUP3 PUSH2 0xF1C JUMP JUMPDEST DUP4 SSTORE POP JUMPDEST PUSH1 0x1 PUSH1 0x2 DUP9 MUL ADD DUP9 SSTORE POP POP POP JUMPDEST POP POP POP POP POP POP JUMP JUMPDEST PUSH32 0x4E487B7100000000000000000000000000000000000000000000000000000000 PUSH0 MSTORE PUSH1 0x11 PUSH1 0x4 MSTORE PUSH1 0x24 PUSH0 REVERT JUMPDEST PUSH0 PUSH2 0x1059 DUP3 PUSH2 0x997 JUMP JUMPDEST SWAP2 POP PUSH2 0x1064 DUP4 PUSH2 0x997 JUMP JUMPDEST SWAP3 POP DUP3 DUP3 SUB SWAP1 POP DUP2 DUP2 GT ISZERO PUSH2 0x107C JUMPI PUSH2 0x107B PUSH2 0x1022 JUMP JUMPDEST JUMPDEST SWAP3 SWAP2 POP POP JUMP JUMPDEST DUP3 DUP2 DUP4 CALLDATACOPY PUSH0 DUP4 DUP4 ADD MSTORE POP POP POP JUMP JUMPDEST PUSH0 PUSH2 0x109B DUP4 DUP6 PUSH2 0xA4D JUMP JUMPDEST SWAP4 POP PUSH2 0x10A8 DUP4 DUP6 DUP5 PUSH2 0x1082 JUMP JUMPDEST PUSH2 0x10B1 DUP4 PUSH2 0xA85 JUMP JUMPDEST DUP5 ADD SWAP1 POP SWAP4 SWAP3 POP POP POP JUMP JUMPDEST PUSH0 PUSH1 0x60 DUP3 ADD SWAP1 POP PUSH2 0x10CF PUSH0 DUP4 ADD DUP8 PUSH2 0xA34 JUMP JUMPDEST PUSH2 0x10DC PUSH1 0x20 DUP4 ADD DUP7 PUSH2 0xA34 JUMP JUMPDEST DUP2 DUP2 SUB PUSH1 0x40 DUP4 ADD MSTORE PUSH2 0x10EF DUP2 DUP5 DUP7 PUSH2 0x1090 JUMP JUMPDEST SWAP1 POP SWAP6 SWAP5 POP POP POP POP POP JUMP JUMPDEST PUSH32 0x4E6F7420636F6E7472616374206F776E65720000000000000000000000000000 PUSH0 DUP3 ADD MSTORE POP JUMP JUMPDEST PUSH0 PUSH2 0x112E PUSH1 0x12 DUP4 PUSH2 0xA4D JUMP JUMPDEST SWAP2 POP PUSH2 0x1139 DUP3 PUSH2 0x10FA JUMP JUMPDEST PUSH1 0x20 DUP3 ADD SWAP1 POP SWAP2 SWAP1 POP JUMP JUMPDEST PUSH0 PUSH1 0x20 DUP3 ADD SWAP1 POP DUP2 DUP2 SUB PUSH0 DUP4 ADD MSTORE PUSH2 0x115B DUP2 PUSH2 0x1122 JUMP JUMPDEST SWAP1 POP SWAP2 SWAP1 POP JUMP JUMPDEST PUSH32 0x496E646578206F7574206F6620626F756E647300000000000000000000000000 PUSH0 DUP3 ADD MSTORE POP JUMP JUMPDEST PUSH0 PUSH2 0x1196 PUSH1 0x13 DUP4 PUSH2 0xA4D JUMP JUMPDEST SWAP2 POP PUSH2 0x11A1 DUP3 PUSH2 0x1162 JUMP JUMPDEST PUSH1 0x20 DUP3 ADD SWAP1 POP SWAP2 SWAP1 POP JUMP JUMPDEST PUSH0 PUSH1 0x20 DUP3 ADD SWAP1 POP DUP2 DUP2 SUB PUSH0 DUP4 ADD MSTORE PUSH2 0x11C3 DUP2 PUSH2 0x118A JUMP JUMPDEST SWAP1 POP SWAP2 SWAP1 POP JUMP JUMPDEST PUSH32 0x4E487B7100000000000000000000000000000000000000000000000000000000 PUSH0 MSTORE PUSH1 0x32 PUSH1 0x4 MSTORE PUSH1 0x24 PUSH0 REVERT INVALID LOG2 PUSH5 0x6970667358 0x22 SLT KECCAK256 MSTORE8 DUP6 CALLDATACOPY 0xEE SDIV SWAP16 KECCAK256 0xF8 0xAE NUMBER SWAP7 GASLIMIT PUSH18 0x69BF88BE0E134798A13AA1239F022C6256FB 0xE5 PUSH5 0x736F6C6343 STOP ADDMOD EQ STOP CALLER "
				},
				"gasEstimates": {
					"creation": {
						"codeDepositCost": "930600",
						"executionCost": "49584",
						"totalCost": "980184"
					},
					"external": {
						"addEntry(address,address,uint256,string)": "infinite",
						"authorized(address)": "2877",
						"getEntry(uint256)": "infinite",
						"getEntryCount()": "2463",
						"grantAuthorization(address)": "28130",
						"ledger(uint256)": "infinite",
						"owner()": "2572",
						"revokeAuthorization(address)": "28151"
					}
				},
				"methodIdentifiers": {
					"addEntry(address,address,uint256,string)": "88411149",
					"authorized(address)": "b9181611",
					"getEntry(uint256)": "bae78d7b",
					"getEntryCount()": "7a360e65",
					"grantAuthorization(address)": "8f2fdb42",
					"ledger(uint256)": "10a7fd7b",
					"owner()": "8da5cb5b",
					"revokeAuthorization(address)": "b48028e3"
				}
			},
			"storageLayout": {
				"storage": [
					{
						"astId": 4,
						"contract": "C/permissionedCentralLedger.sol:PermissionedCentralLedger",
						"label": "owner",
						"offset": 0,
						"slot": "0",
						"type": "t_address"
					},
					{
						"astId": 8,
						"contract": "C/permissionedCentralLedger.sol:PermissionedCentralLedger",
						"label": "authorized",
						"offset": 0,
						"slot": "1",
						"type": "t_mapping(t_address,t_bool)"
					},
					{
						"astId": 23,
						"contract": "C/permissionedCentralLedger.sol:PermissionedCentralLedger",
						"label": "ledger",
						"offset": 0,
						"slot": "2",
						"type": "t_array(t_struct(LedgerEntry)19_storage)dyn_storage"
					}
				],
				"types": {
					"t_address": {
						"encoding": "inplace",
						"label": "address",
						"numberOfBytes": "20"
					},
					"t_array(t_struct(LedgerEntry)19_storage)dyn_storage": {
						"base": "t_struct(LedgerEntry)19_storage",
						"encoding": "dynamic_array",
						"label": "struct PermissionedCentralLedger.LedgerEntry[]",
						"numberOfBytes": "32"
					},
					"t_bool": {
						"encoding": "inplace",
						"label": "bool",
						"numberOfBytes": "1"
					},
					"t_mapping(t_address,t_bool)": {
						"encoding": "mapping",
						"key": "t_address",
						"label": "mapping(address => bool)",
						"numberOfBytes": "32",
						"value": "t_bool"
					},
					"t_string_storage": {
						"encoding": "bytes",
						"label": "string",
						"numberOfBytes": "32"
					},
					"t_struct(LedgerEntry)19_storage": {
						"encoding": "inplace",
						"label": "struct PermissionedCentralLedger.LedgerEntry",
						"members": [
							{
								"astId": 10,
								"contract": "C/permissionedCentralLedger.sol:PermissionedCentralLedger",
								"label": "from",
								"offset": 0,
								"slot": "0",
								"type": "t_address"
							},
							{
								"astId": 12,
								"contract": "C/permissionedCentralLedger.sol:PermissionedCentralLedger",
								"label": "to",
								"offset": 0,
								"slot": "1",
								"type": "t_address"
							},
							{
								"astId": 14,
								"contract": "C/permissionedCentralLedger.sol:PermissionedCentralLedger",
								"label": "amount",
								"offset": 0,
								"slot": "2",
								"type": "t_uint256"
							},
							{
								"astId": 16,
								"contract": "C/permissionedCentralLedger.sol:PermissionedCentralLedger",
								"label": "timestamp",
								"offset": 0,
								"slot": "3",
								"type": "t_uint256"
							},
							{
								"astId": 18,
								"contract": "C/permissionedCentralLedger.sol:PermissionedCentralLedger",
								"label": "description",
								"offset": 0,
								"slot": "4",
								"type": "t_string_storage"
							}
						],
						"numberOfBytes": "160"
					},
					"t_uint256": {
						"encoding": "inplace",
						"label": "uint256",
						"numberOfBytes": "32"
					}
				}
			},
			"userdoc": {
				"kind": "user",
				"methods": {
					"addEntry(address,address,uint256,string)": {
						"notice": "Adds a new ledger entry."
					},
					"constructor": {
						"notice": "Constructor sets the deployer as the owner and grants them authorization."
					},
					"getEntry(uint256)": {
						"notice": "Retrieves a ledger entry by index."
					},
					"getEntryCount()": {
						"notice": "Returns the total number of ledger entries."
					},
					"grantAuthorization(address)": {
						"notice": "Grants authorization to an address to add ledger entries."
					},
					"revokeAuthorization(address)": {
						"notice": "Revokes authorization from an address."
					}
				},
				"notice": "A centralized ledger that records financial transactions. Only authorized addresses (managed by the owner) can add new ledger entries.",
				"version": 1
			}
		}
	}
}