{
	"C/centralizedExchange1.sol": {
		"CentralizedExchange": {
			"abi": [
				{
					"inputs": [],
					"stateMutability": "nonpayable",
					"type": "constructor"
				},
				{
					"anonymous": false,
					"inputs": [
						{
							"indexed": true,
							"internalType": "address",
							"name": "user",
							"type": "address"
						},
						{
							"indexed": false,
							"internalType": "uint256",
							"name": "amount",
							"type": "uint256"
						}
					],
					"name": "Deposit",
					"type": "event"
				},
				{
					"anonymous": false,
					"inputs": [
						{
							"indexed": true,
							"internalType": "uint256",
							"name": "buyOrderId",
							"type": "uint256"
						},
						{
							"indexed": true,
							"internalType": "uint256",
							"name": "sellOrderId",
							"type": "uint256"
						},
						{
							"indexed": false,
							"internalType": "uint256",
							"name": "matchPrice",
							"type": "uint256"
						},
						{
							"indexed": false,
							"internalType": "uint256",
							"name": "matchAmount",
							"type": "uint256"
						}
					],
					"name": "OrderMatched",
					"type": "event"
				},
				{
					"anonymous": false,
					"inputs": [
						{
							"indexed": true,
							"internalType": "uint256",
							"name": "orderId",
							"type": "uint256"
						},
						{
							"indexed": true,
							"internalType": "address",
							"name": "trader",
							"type": "address"
						},
						{
							"indexed": false,
							"internalType": "enum CentralizedExchange.OrderType",
							"name": "orderType",
							"type": "uint8"
						},
						{
							"indexed": false,
							"internalType": "uint256",
							"name": "price",
							"type": "uint256"
						},
						{
							"indexed": false,
							"internalType": "uint256",
							"name": "amount",
							"type": "uint256"
						}
					],
					"name": "OrderPlaced",
					"type": "event"
				},
				{
					"anonymous": false,
					"inputs": [
						{
							"indexed": true,
							"internalType": "address",
							"name": "user",
							"type": "address"
						},
						{
							"indexed": false,
							"internalType": "uint256",
							"name": "amount",
							"type": "uint256"
						}
					],
					"name": "Withdrawal",
					"type": "event"
				},
				{
					"inputs": [
						{
							"internalType": "address",
							"name": "",
							"type": "address"
						}
					],
					"name": "balances",
					"outputs": [
						{
							"internalType": "uint256",
							"name": "",
							"type": "uint256"
						}
					],
					"stateMutability": "view",
					"type": "function"
				},
				{
					"inputs": [
						{
							"internalType": "uint256",
							"name": "",
							"type": "uint256"
						}
					],
					"name": "buyOrders",
					"outputs": [
						{
							"internalType": "uint256",
							"name": "id",
							"type": "uint256"
						},
						{
							"internalType": "address",
							"name": "trader",
							"type": "address"
						},
						{
							"internalType": "enum CentralizedExchange.OrderType",
							"name": "orderType",
							"type": "uint8"
						},
						{
							"internalType": "uint256",
							"name": "price",
							"type": "uint256"
						},
						{
							"internalType": "uint256",
							"name": "amount",
							"type": "uint256"
						},
						{
							"internalType": "bool",
							"name": "filled",
							"type": "bool"
						}
					],
					"stateMutability": "view",
					"type": "function"
				},
				{
					"inputs": [],
					"name": "deposit",
					"outputs": [],
					"stateMutability": "payable",
					"type": "function"
				},
				{
					"inputs": [],
					"name": "getBuyOrderCount",
					"outputs": [
						{
							"internalType": "uint256",
							"name": "",
							"type": "uint256"
						}
					],
					"stateMutability": "view",
					"type": "function"
				},
				{
					"inputs": [],
					"name": "getSellOrderCount",
					"outputs": [
						{
							"internalType": "uint256",
							"name": "",
							"type": "uint256"
						}
					],
					"stateMutability": "view",
					"type": "function"
				},
				{
					"inputs": [],
					"name": "matchOrders",
					"outputs": [],
					"stateMutability": "nonpayable",
					"type": "function"
				},
				{
					"inputs": [],
					"name": "nextOrderId",
					"outputs": [
						{
							"internalType": "uint256",
							"name": "",
							"type": "uint256"
						}
					],
					"stateMutability": "view",
					"type": "function"
				},
				{
					"inputs": [],
					"name": "owner",
					"outputs": [
						{
							"internalType": "address",
							"name": "",
							"type": "address"
						}
					],
					"stateMutability": "view",
					"type": "function"
				},
				{
					"inputs": [
						{
							"internalType": "uint256",
							"name": "price",
							"type": "uint256"
						},
						{
							"internalType": "uint256",
							"name": "amount",
							"type": "uint256"
						}
					],
					"name": "placeBuyOrder",
					"outputs": [],
					"stateMutability": "nonpayable",
					"type": "function"
				},
				{
					"inputs": [
						{
							"internalType": "uint256",
							"name": "price",
							"type": "uint256"
						},
						{
							"internalType": "uint256",
							"name": "amount",
							"type": "uint256"
						}
					],
					"name": "placeSellOrder",
					"outputs": [],
					"stateMutability": "nonpayable",
					"type": "function"
				},
				{
					"inputs": [
						{
							"internalType": "uint256",
							"name": "",
							"type": "uint256"
						}
					],
					"name": "sellOrders",
					"outputs": [
						{
							"internalType": "uint256",
							"name": "id",
							"type": "uint256"
						},
						{
							"internalType": "address",
							"name": "trader",
							"type": "address"
						},
						{
							"internalType": "enum CentralizedExchange.OrderType",
							"name": "orderType",
							"type": "uint8"
						},
						{
							"internalType": "uint256",
							"name": "price",
							"type": "uint256"
						},
						{
							"internalType": "uint256",
							"name": "amount",
							"type": "uint256"
						},
						{
							"internalType": "bool",
							"name": "filled",
							"type": "bool"
						}
					],
					"stateMutability": "view",
					"type": "function"
				},
				{
					"inputs": [
						{
							"internalType": "uint256",
							"name": "amount",
							"type": "uint256"
						}
					],
					"name": "withdraw",
					"outputs": [],
					"stateMutability": "nonpayable",
					"type": "function"
				}
			],
			"devdoc": {
				"kind": "dev",
				"methods": {},
				"version": 1
			},
			"evm": {
				"assembly": "    /* \"C/centralizedExchange1.sol\":57:5187  contract CentralizedExchange {... */\n  mstore(0x40, 0x80)\n    /* \"C/centralizedExchange1.sol\":1095:1169  constructor() {... */\n  callvalue\n  dup1\n  iszero\n  tag_1\n  jumpi\n  0x00\n  dup1\n  revert\ntag_1:\n  pop\n    /* \"C/centralizedExchange1.sol\":1127:1137  msg.sender */\n  caller\n    /* \"C/centralizedExchange1.sol\":1119:1124  owner */\n  0x00\n  dup1\n    /* \"C/centralizedExchange1.sol\":1119:1137  owner = msg.sender */\n  0x0100\n  exp\n  dup2\n  sload\n  dup2\n  0xffffffffffffffffffffffffffffffffffffffff\n  mul\n  not\n  and\n  swap1\n  dup4\n  0xffffffffffffffffffffffffffffffffffffffff\n  and\n  mul\n  or\n  swap1\n  sstore\n  pop\n    /* \"C/centralizedExchange1.sol\":1161:1162  0 */\n  0x00\n    /* \"C/centralizedExchange1.sol\":1147:1158  nextOrderId */\n  0x04\n    /* \"C/centralizedExchange1.sol\":1147:1162  nextOrderId = 0 */\n  dup2\n  swap1\n  sstore\n  pop\n    /* \"C/centralizedExchange1.sol\":57:5187  contract CentralizedExchange {... */\n  dataSize(sub_0)\n  dup1\n  dataOffset(sub_0)\n  0x00\n  codecopy\n  0x00\n  return\nstop\n\nsub_0: assembly {\n        /* \"C/centralizedExchange1.sol\":57:5187  contract CentralizedExchange {... */\n      mstore(0x40, 0x80)\n      jumpi(tag_1, lt(calldatasize, 0x04))\n      shr(0xe0, calldataload(0x00))\n      dup1\n      0x4a8393f3\n      gt\n      tag_14\n      jumpi\n      dup1\n      0x4a8393f3\n      eq\n      tag_8\n      jumpi\n      dup1\n      0x7ee68546\n      eq\n      tag_9\n      jumpi\n      dup1\n      0x8da5cb5b\n      eq\n      tag_10\n      jumpi\n      dup1\n      0xa4406bcd\n      eq\n      tag_11\n      jumpi\n      dup1\n      0xd0e30db0\n      eq\n      tag_12\n      jumpi\n      dup1\n      0xee36d4ab\n      eq\n      tag_13\n      jumpi\n      jump(tag_1)\n    tag_14:\n      dup1\n      0x24aaf97f\n      eq\n      tag_2\n      jumpi\n      dup1\n      0x27e235e3\n      eq\n      tag_3\n      jumpi\n      dup1\n      0x29ce16bb\n      eq\n      tag_4\n      jumpi\n      dup1\n      0x2a58b330\n      eq\n      tag_5\n      jumpi\n      dup1\n      0x2e1a7d4d\n      eq\n      tag_6\n      jumpi\n      dup1\n      0x35cea288\n      eq\n      tag_7\n      jumpi\n    tag_1:\n      0x00\n      dup1\n      revert\n        /* \"C/centralizedExchange1.sol\":5083:5185  function getSellOrderCount() external view returns (uint256) {... */\n    tag_2:\n      callvalue\n      dup1\n      iszero\n      tag_15\n      jumpi\n      0x00\n      dup1\n      revert\n    tag_15:\n      pop\n      tag_16\n      tag_17\n      jump\t// in\n    tag_16:\n      mload(0x40)\n      tag_18\n      swap2\n      swap1\n      tag_19\n      jump\t// in\n    tag_18:\n      mload(0x40)\n      dup1\n      swap2\n      sub\n      swap1\n      return\n        /* \"C/centralizedExchange1.sol\":165:208  mapping(address => uint256) public balances */\n    tag_3:\n      callvalue\n      dup1\n      iszero\n      tag_20\n      jumpi\n      0x00\n      dup1\n      revert\n    tag_20:\n      pop\n      tag_21\n      0x04\n      dup1\n      calldatasize\n      sub\n      dup2\n      add\n      swap1\n      tag_22\n      swap2\n      swap1\n      tag_23\n      jump\t// in\n    tag_22:\n      tag_24\n      jump\t// in\n    tag_21:\n      mload(0x40)\n      tag_25\n      swap2\n      swap1\n      tag_19\n      jump\t// in\n    tag_25:\n      mload(0x40)\n      dup1\n      swap2\n      sub\n      swap1\n      return\n        /* \"C/centralizedExchange1.sol\":4934:5034  function getBuyOrderCount() external view returns (uint256) {... */\n    tag_4:\n      callvalue\n      dup1\n      iszero\n      tag_26\n      jumpi\n      0x00\n      dup1\n      revert\n    tag_26:\n      pop\n      tag_27\n      tag_28\n      jump\t// in\n    tag_27:\n      mload(0x40)\n      tag_29\n      swap2\n      swap1\n      tag_19\n      jump\t// in\n    tag_29:\n      mload(0x40)\n      dup1\n      swap2\n      sub\n      swap1\n      return\n        /* \"C/centralizedExchange1.sol\":579:605  uint256 public nextOrderId */\n    tag_5:\n      callvalue\n      dup1\n      iszero\n      tag_30\n      jumpi\n      0x00\n      dup1\n      revert\n    tag_30:\n      pop\n      tag_31\n      tag_32\n      jump\t// in\n    tag_31:\n      mload(0x40)\n      tag_33\n      swap2\n      swap1\n      tag_19\n      jump\t// in\n    tag_33:\n      mload(0x40)\n      dup1\n      swap2\n      sub\n      swap1\n      return\n        /* \"C/centralizedExchange1.sol\":1451:1705  function withdraw(uint256 amount) external {... */\n    tag_6:\n      callvalue\n      dup1\n      iszero\n      tag_34\n      jumpi\n      0x00\n      dup1\n      revert\n    tag_34:\n      pop\n      tag_35\n      0x04\n      dup1\n      calldatasize\n      sub\n      dup2\n      add\n      swap1\n      tag_36\n      swap2\n      swap1\n      tag_37\n      jump\t// in\n    tag_36:\n      tag_38\n      jump\t// in\n    tag_35:\n      stop\n        /* \"C/centralizedExchange1.sol\":518:542  Order[] public buyOrders */\n    tag_7:\n      callvalue\n      dup1\n      iszero\n      tag_39\n      jumpi\n      0x00\n      dup1\n      revert\n    tag_39:\n      pop\n      tag_40\n      0x04\n      dup1\n      calldatasize\n      sub\n      dup2\n      add\n      swap1\n      tag_41\n      swap2\n      swap1\n      tag_37\n      jump\t// in\n    tag_41:\n      tag_42\n      jump\t// in\n    tag_40:\n      mload(0x40)\n      tag_43\n      swap7\n      swap6\n      swap5\n      swap4\n      swap3\n      swap2\n      swap1\n      tag_44\n      jump\t// in\n    tag_43:\n      mload(0x40)\n      dup1\n      swap2\n      sub\n      swap1\n      return\n        /* \"C/centralizedExchange1.sol\":548:573  Order[] public sellOrders */\n    tag_8:\n      callvalue\n      dup1\n      iszero\n      tag_45\n      jumpi\n      0x00\n      dup1\n      revert\n    tag_45:\n      pop\n      tag_46\n      0x04\n      dup1\n      calldatasize\n      sub\n      dup2\n      add\n      swap1\n      tag_47\n      swap2\n      swap1\n      tag_37\n      jump\t// in\n    tag_47:\n      tag_48\n      jump\t// in\n    tag_46:\n      mload(0x40)\n      tag_49\n      swap7\n      swap6\n      swap5\n      swap4\n      swap3\n      swap2\n      swap1\n      tag_44\n      jump\t// in\n    tag_49:\n      mload(0x40)\n      dup1\n      swap2\n      sub\n      swap1\n      return\n        /* \"C/centralizedExchange1.sol\":3089:4886  function matchOrders() external onlyOwner {... */\n    tag_9:\n      callvalue\n      dup1\n      iszero\n      tag_50\n      jumpi\n      0x00\n      dup1\n      revert\n    tag_50:\n      pop\n      tag_51\n      tag_52\n      jump\t// in\n    tag_51:\n      stop\n        /* \"C/centralizedExchange1.sol\":92:112  address public owner */\n    tag_10:\n      callvalue\n      dup1\n      iszero\n      tag_53\n      jumpi\n      0x00\n      dup1\n      revert\n    tag_53:\n      pop\n      tag_54\n      tag_55\n      jump\t// in\n    tag_54:\n      mload(0x40)\n      tag_56\n      swap2\n      swap1\n      tag_57\n      jump\t// in\n    tag_56:\n      mload(0x40)\n      dup1\n      swap2\n      sub\n      swap1\n      return\n        /* \"C/centralizedExchange1.sol\":2397:2945  function placeSellOrder(uint256 price, uint256 amount) external {... */\n    tag_11:\n      callvalue\n      dup1\n      iszero\n      tag_58\n      jumpi\n      0x00\n      dup1\n      revert\n    tag_58:\n      pop\n      tag_59\n      0x04\n      dup1\n      calldatasize\n      sub\n      dup2\n      add\n      swap1\n      tag_60\n      swap2\n      swap1\n      tag_61\n      jump\t// in\n    tag_60:\n      tag_62\n      jump\t// in\n    tag_59:\n      stop\n        /* \"C/centralizedExchange1.sol\":1212:1398  function deposit() external payable {... */\n    tag_12:\n      tag_63\n      tag_64\n      jump\t// in\n    tag_63:\n      stop\n        /* \"C/centralizedExchange1.sol\":1740:2361  function placeBuyOrder(uint256 price, uint256 amount) external {... */\n    tag_13:\n      callvalue\n      dup1\n      iszero\n      tag_65\n      jumpi\n      0x00\n      dup1\n      revert\n    tag_65:\n      pop\n      tag_66\n      0x04\n      dup1\n      calldatasize\n      sub\n      dup2\n      add\n      swap1\n      tag_67\n      swap2\n      swap1\n      tag_61\n      jump\t// in\n    tag_67:\n      tag_68\n      jump\t// in\n    tag_66:\n      stop\n        /* \"C/centralizedExchange1.sol\":5083:5185  function getSellOrderCount() external view returns (uint256) {... */\n    tag_17:\n        /* \"C/centralizedExchange1.sol\":5135:5142  uint256 */\n      0x00\n        /* \"C/centralizedExchange1.sol\":5161:5171  sellOrders */\n      0x03\n        /* \"C/centralizedExchange1.sol\":5161:5178  sellOrders.length */\n      dup1\n      sload\n      swap1\n      pop\n        /* \"C/centralizedExchange1.sol\":5154:5178  return sellOrders.length */\n      swap1\n      pop\n        /* \"C/centralizedExchange1.sol\":5083:5185  function getSellOrderCount() external view returns (uint256) {... */\n      swap1\n      jump\t// out\n        /* \"C/centralizedExchange1.sol\":165:208  mapping(address => uint256) public balances */\n    tag_24:\n      mstore(0x20, 0x01)\n      dup1\n      0x00\n      mstore\n      keccak256(0x00, 0x40)\n      0x00\n      swap2\n      pop\n      swap1\n      pop\n      sload\n      dup2\n      jump\t// out\n        /* \"C/centralizedExchange1.sol\":4934:5034  function getBuyOrderCount() external view returns (uint256) {... */\n    tag_28:\n        /* \"C/centralizedExchange1.sol\":4985:4992  uint256 */\n      0x00\n        /* \"C/centralizedExchange1.sol\":5011:5020  buyOrders */\n      0x02\n        /* \"C/centralizedExchange1.sol\":5011:5027  buyOrders.length */\n      dup1\n      sload\n      swap1\n      pop\n        /* \"C/centralizedExchange1.sol\":5004:5027  return buyOrders.length */\n      swap1\n      pop\n        /* \"C/centralizedExchange1.sol\":4934:5034  function getBuyOrderCount() external view returns (uint256) {... */\n      swap1\n      jump\t// out\n        /* \"C/centralizedExchange1.sol\":579:605  uint256 public nextOrderId */\n    tag_32:\n      sload(0x04)\n      dup2\n      jump\t// out\n        /* \"C/centralizedExchange1.sol\":1451:1705  function withdraw(uint256 amount) external {... */\n    tag_38:\n        /* \"C/centralizedExchange1.sol\":1536:1542  amount */\n      dup1\n        /* \"C/centralizedExchange1.sol\":1512:1520  balances */\n      0x01\n        /* \"C/centralizedExchange1.sol\":1512:1532  balances[msg.sender] */\n      0x00\n        /* \"C/centralizedExchange1.sol\":1521:1531  msg.sender */\n      caller\n        /* \"C/centralizedExchange1.sol\":1512:1532  balances[msg.sender] */\n      0xffffffffffffffffffffffffffffffffffffffff\n      and\n      0xffffffffffffffffffffffffffffffffffffffff\n      and\n      dup2\n      mstore\n      0x20\n      add\n      swap1\n      dup2\n      mstore\n      0x20\n      add\n      0x00\n      keccak256\n      sload\n        /* \"C/centralizedExchange1.sol\":1512:1542  balances[msg.sender] >= amount */\n      lt\n      iszero\n        /* \"C/centralizedExchange1.sol\":1504:1567  require(balances[msg.sender] >= amount, \"Insufficient balance\") */\n      tag_72\n      jumpi\n      mload(0x40)\n      0x08c379a000000000000000000000000000000000000000000000000000000000\n      dup2\n      mstore\n      0x04\n      add\n      tag_73\n      swap1\n      tag_74\n      jump\t// in\n    tag_73:\n      mload(0x40)\n      dup1\n      swap2\n      sub\n      swap1\n      revert\n    tag_72:\n        /* \"C/centralizedExchange1.sol\":1601:1607  amount */\n      dup1\n        /* \"C/centralizedExchange1.sol\":1577:1585  balances */\n      0x01\n        /* \"C/centralizedExchange1.sol\":1577:1597  balances[msg.sender] */\n      0x00\n        /* \"C/centralizedExchange1.sol\":1586:1596  msg.sender */\n      caller\n        /* \"C/centralizedExchange1.sol\":1577:1597  balances[msg.sender] */\n      0xffffffffffffffffffffffffffffffffffffffff\n      and\n      0xffffffffffffffffffffffffffffffffffffffff\n      and\n      dup2\n      mstore\n      0x20\n      add\n      swap1\n      dup2\n      mstore\n      0x20\n      add\n      0x00\n      keccak256\n      0x00\n        /* \"C/centralizedExchange1.sol\":1577:1607  balances[msg.sender] -= amount */\n      dup3\n      dup3\n      sload\n      tag_75\n      swap2\n      swap1\n      tag_76\n      jump\t// in\n    tag_75:\n      swap3\n      pop\n      pop\n      dup2\n      swap1\n      sstore\n      pop\n        /* \"C/centralizedExchange1.sol\":1625:1635  msg.sender */\n      caller\n        /* \"C/centralizedExchange1.sol\":1617:1645  payable(msg.sender).transfer */\n      0xffffffffffffffffffffffffffffffffffffffff\n      and\n        /* \"C/centralizedExchange1.sol\":1617:1653  payable(msg.sender).transfer(amount) */\n      0x08fc\n        /* \"C/centralizedExchange1.sol\":1646:1652  amount */\n      dup3\n        /* \"C/centralizedExchange1.sol\":1617:1653  payable(msg.sender).transfer(amount) */\n      swap1\n      dup2\n      iszero\n      mul\n      swap1\n      mload(0x40)\n      0x00\n      mload(0x40)\n      dup1\n      dup4\n      sub\n      dup2\n      dup6\n      dup9\n      dup9\n      call\n      swap4\n      pop\n      pop\n      pop\n      pop\n      iszero\n      dup1\n      iszero\n      tag_78\n      jumpi\n      returndatasize\n      0x00\n      dup1\n      returndatacopy\n      revert(0x00, returndatasize)\n    tag_78:\n      pop\n        /* \"C/centralizedExchange1.sol\":1679:1689  msg.sender */\n      caller\n        /* \"C/centralizedExchange1.sol\":1668:1698  Withdrawal(msg.sender, amount) */\n      0xffffffffffffffffffffffffffffffffffffffff\n      and\n      0x7fcf532c15f0a6db0bd6d0e038bea71d30d808c7d98cb3bf7268a95bf5081b65\n        /* \"C/centralizedExchange1.sol\":1691:1697  amount */\n      dup3\n        /* \"C/centralizedExchange1.sol\":1668:1698  Withdrawal(msg.sender, amount) */\n      mload(0x40)\n      tag_79\n      swap2\n      swap1\n      tag_19\n      jump\t// in\n    tag_79:\n      mload(0x40)\n      dup1\n      swap2\n      sub\n      swap1\n      log2\n        /* \"C/centralizedExchange1.sol\":1451:1705  function withdraw(uint256 amount) external {... */\n      pop\n      jump\t// out\n        /* \"C/centralizedExchange1.sol\":518:542  Order[] public buyOrders */\n    tag_42:\n      0x02\n      dup2\n      dup2\n      sload\n      dup2\n      lt\n      tag_80\n      jumpi\n      0x00\n      dup1\n      revert\n    tag_80:\n      swap1\n      0x00\n      mstore\n      keccak256(0x00, 0x20)\n      swap1\n      0x05\n      mul\n      add\n      0x00\n      swap2\n      pop\n      swap1\n      pop\n      dup1\n      0x00\n      add\n      sload\n      swap1\n      dup1\n      0x01\n      add\n      0x00\n      swap1\n      sload\n      swap1\n      0x0100\n      exp\n      swap1\n      div\n      0xffffffffffffffffffffffffffffffffffffffff\n      and\n      swap1\n      dup1\n      0x01\n      add\n      0x14\n      swap1\n      sload\n      swap1\n      0x0100\n      exp\n      swap1\n      div\n      0xff\n      and\n      swap1\n      dup1\n      0x02\n      add\n      sload\n      swap1\n      dup1\n      0x03\n      add\n      sload\n      swap1\n      dup1\n      0x04\n      add\n      0x00\n      swap1\n      sload\n      swap1\n      0x0100\n      exp\n      swap1\n      div\n      0xff\n      and\n      swap1\n      pop\n      dup7\n      jump\t// out\n        /* \"C/centralizedExchange1.sol\":548:573  Order[] public sellOrders */\n    tag_48:\n      0x03\n      dup2\n      dup2\n      sload\n      dup2\n      lt\n      tag_82\n      jumpi\n      0x00\n      dup1\n      revert\n    tag_82:\n      swap1\n      0x00\n      mstore\n      keccak256(0x00, 0x20)\n      swap1\n      0x05\n      mul\n      add\n      0x00\n      swap2\n      pop\n      swap1\n      pop\n      dup1\n      0x00\n      add\n      sload\n      swap1\n      dup1\n      0x01\n      add\n      0x00\n      swap1\n      sload\n      swap1\n      0x0100\n      exp\n      swap1\n      div\n      0xffffffffffffffffffffffffffffffffffffffff\n      and\n      swap1\n      dup1\n      0x01\n      add\n      0x14\n      swap1\n      sload\n      swap1\n      0x0100\n      exp\n      swap1\n      div\n      0xff\n      and\n      swap1\n      dup1\n      0x02\n      add\n      sload\n      swap1\n      dup1\n      0x03\n      add\n      sload\n      swap1\n      dup1\n      0x04\n      add\n      0x00\n      swap1\n      sload\n      swap1\n      0x0100\n      exp\n      swap1\n      div\n      0xff\n      and\n      swap1\n      pop\n      dup7\n      jump\t// out\n        /* \"C/centralizedExchange1.sol\":3089:4886  function matchOrders() external onlyOwner {... */\n    tag_52:\n        /* \"C/centralizedExchange1.sol\":1043:1048  owner */\n      0x00\n      dup1\n      sload\n      swap1\n      0x0100\n      exp\n      swap1\n      div\n      0xffffffffffffffffffffffffffffffffffffffff\n      and\n        /* \"C/centralizedExchange1.sol\":1029:1048  msg.sender == owner */\n      0xffffffffffffffffffffffffffffffffffffffff\n      and\n        /* \"C/centralizedExchange1.sol\":1029:1039  msg.sender */\n      caller\n        /* \"C/centralizedExchange1.sol\":1029:1048  msg.sender == owner */\n      0xffffffffffffffffffffffffffffffffffffffff\n      and\n      eq\n        /* \"C/centralizedExchange1.sol\":1021:1071  require(msg.sender == owner, \"Not contract owner\") */\n      tag_85\n      jumpi\n      mload(0x40)\n      0x08c379a000000000000000000000000000000000000000000000000000000000\n      dup2\n      mstore\n      0x04\n      add\n      tag_86\n      swap1\n      tag_87\n      jump\t// in\n    tag_86:\n      mload(0x40)\n      dup1\n      swap2\n      sub\n      swap1\n      revert\n    tag_85:\n        /* \"C/centralizedExchange1.sol\":3146:3155  uint256 i */\n      0x00\n        /* \"C/centralizedExchange1.sol\":3141:4880  for (uint256 i = 0; i < buyOrders.length; i++) {... */\n    tag_89:\n        /* \"C/centralizedExchange1.sol\":3165:3174  buyOrders */\n      0x02\n        /* \"C/centralizedExchange1.sol\":3165:3181  buyOrders.length */\n      dup1\n      sload\n      swap1\n      pop\n        /* \"C/centralizedExchange1.sol\":3161:3162  i */\n      dup2\n        /* \"C/centralizedExchange1.sol\":3161:3181  i < buyOrders.length */\n      lt\n        /* \"C/centralizedExchange1.sol\":3141:4880  for (uint256 i = 0; i < buyOrders.length; i++) {... */\n      iszero\n      tag_90\n      jumpi\n        /* \"C/centralizedExchange1.sol\":3202:3224  Order storage buyOrder */\n      0x00\n        /* \"C/centralizedExchange1.sol\":3227:3236  buyOrders */\n      0x02\n        /* \"C/centralizedExchange1.sol\":3237:3238  i */\n      dup3\n        /* \"C/centralizedExchange1.sol\":3227:3239  buyOrders[i] */\n      dup2\n      sload\n      dup2\n      lt\n      tag_92\n      jumpi\n      tag_93\n      tag_94\n      jump\t// in\n    tag_93:\n    tag_92:\n      swap1\n      0x00\n      mstore\n      keccak256(0x00, 0x20)\n      swap1\n      0x05\n      mul\n      add\n        /* \"C/centralizedExchange1.sol\":3202:3239  Order storage buyOrder = buyOrders[i] */\n      swap1\n      pop\n        /* \"C/centralizedExchange1.sol\":3257:3265  buyOrder */\n      dup1\n        /* \"C/centralizedExchange1.sol\":3257:3272  buyOrder.filled */\n      0x04\n      add\n      0x00\n      swap1\n      sload\n      swap1\n      0x0100\n      exp\n      swap1\n      div\n      0xff\n      and\n        /* \"C/centralizedExchange1.sol\":3253:3282  if (buyOrder.filled) continue */\n      iszero\n      tag_96\n      jumpi\n        /* \"C/centralizedExchange1.sol\":3274:3282  continue */\n      pop\n      jump(tag_91)\n        /* \"C/centralizedExchange1.sol\":3253:3282  if (buyOrder.filled) continue */\n    tag_96:\n        /* \"C/centralizedExchange1.sol\":3314:3323  uint256 j */\n      0x00\n        /* \"C/centralizedExchange1.sol\":3309:4870  for (uint256 j = 0; j < sellOrders.length; j++) {... */\n    tag_97:\n        /* \"C/centralizedExchange1.sol\":3333:3343  sellOrders */\n      0x03\n        /* \"C/centralizedExchange1.sol\":3333:3350  sellOrders.length */\n      dup1\n      sload\n      swap1\n      pop\n        /* \"C/centralizedExchange1.sol\":3329:3330  j */\n      dup2\n        /* \"C/centralizedExchange1.sol\":3329:3350  j < sellOrders.length */\n      lt\n        /* \"C/centralizedExchange1.sol\":3309:4870  for (uint256 j = 0; j < sellOrders.length; j++) {... */\n      iszero\n      tag_98\n      jumpi\n        /* \"C/centralizedExchange1.sol\":3375:3398  Order storage sellOrder */\n      0x00\n        /* \"C/centralizedExchange1.sol\":3401:3411  sellOrders */\n      0x03\n        /* \"C/centralizedExchange1.sol\":3412:3413  j */\n      dup3\n        /* \"C/centralizedExchange1.sol\":3401:3414  sellOrders[j] */\n      dup2\n      sload\n      dup2\n      lt\n      tag_100\n      jumpi\n      tag_101\n      tag_94\n      jump\t// in\n    tag_101:\n    tag_100:\n      swap1\n      0x00\n      mstore\n      keccak256(0x00, 0x20)\n      swap1\n      0x05\n      mul\n      add\n        /* \"C/centralizedExchange1.sol\":3375:3414  Order storage sellOrder = sellOrders[j] */\n      swap1\n      pop\n        /* \"C/centralizedExchange1.sol\":3436:3445  sellOrder */\n      dup1\n        /* \"C/centralizedExchange1.sol\":3436:3452  sellOrder.filled */\n      0x04\n      add\n      0x00\n      swap1\n      sload\n      swap1\n      0x0100\n      exp\n      swap1\n      div\n      0xff\n      and\n        /* \"C/centralizedExchange1.sol\":3432:3462  if (sellOrder.filled) continue */\n      iszero\n      tag_103\n      jumpi\n        /* \"C/centralizedExchange1.sol\":3454:3462  continue */\n      pop\n      jump(tag_99)\n        /* \"C/centralizedExchange1.sol\":3432:3462  if (sellOrder.filled) continue */\n    tag_103:\n        /* \"C/centralizedExchange1.sol\":3616:3625  sellOrder */\n      dup1\n        /* \"C/centralizedExchange1.sol\":3616:3631  sellOrder.price */\n      0x02\n      add\n      sload\n        /* \"C/centralizedExchange1.sol\":3598:3606  buyOrder */\n      dup4\n        /* \"C/centralizedExchange1.sol\":3598:3612  buyOrder.price */\n      0x02\n      add\n      sload\n        /* \"C/centralizedExchange1.sol\":3598:3631  buyOrder.price >= sellOrder.price */\n      lt\n        /* \"C/centralizedExchange1.sol\":3594:4856  if (buyOrder.price >= sellOrder.price) {... */\n      tag_104\n      jumpi\n        /* \"C/centralizedExchange1.sol\":3744:3763  uint256 matchAmount */\n      0x00\n        /* \"C/centralizedExchange1.sol\":3784:3793  sellOrder */\n      dup2\n        /* \"C/centralizedExchange1.sol\":3784:3800  sellOrder.amount */\n      0x03\n      add\n      sload\n        /* \"C/centralizedExchange1.sol\":3766:3774  buyOrder */\n      dup5\n        /* \"C/centralizedExchange1.sol\":3766:3781  buyOrder.amount */\n      0x03\n      add\n      sload\n        /* \"C/centralizedExchange1.sol\":3766:3800  buyOrder.amount < sellOrder.amount */\n      lt\n        /* \"C/centralizedExchange1.sol\":3766:3837  buyOrder.amount < sellOrder.amount ? buyOrder.amount : sellOrder.amount */\n      tag_105\n      jumpi\n        /* \"C/centralizedExchange1.sol\":3821:3830  sellOrder */\n      dup2\n        /* \"C/centralizedExchange1.sol\":3821:3837  sellOrder.amount */\n      0x03\n      add\n      sload\n        /* \"C/centralizedExchange1.sol\":3766:3837  buyOrder.amount < sellOrder.amount ? buyOrder.amount : sellOrder.amount */\n      jump(tag_106)\n    tag_105:\n        /* \"C/centralizedExchange1.sol\":3803:3811  buyOrder */\n      dup4\n        /* \"C/centralizedExchange1.sol\":3803:3818  buyOrder.amount */\n      0x03\n      add\n      sload\n        /* \"C/centralizedExchange1.sol\":3766:3837  buyOrder.amount < sellOrder.amount ? buyOrder.amount : sellOrder.amount */\n    tag_106:\n        /* \"C/centralizedExchange1.sol\":3744:3837  uint256 matchAmount = buyOrder.amount < sellOrder.amount ? buyOrder.amount : sellOrder.amount */\n      swap1\n      pop\n        /* \"C/centralizedExchange1.sol\":3943:3954  matchAmount */\n      dup1\n        /* \"C/centralizedExchange1.sol\":3924:3932  buyOrder */\n      dup5\n        /* \"C/centralizedExchange1.sol\":3924:3939  buyOrder.amount */\n      0x03\n      add\n      0x00\n        /* \"C/centralizedExchange1.sol\":3924:3954  buyOrder.amount -= matchAmount */\n      dup3\n      dup3\n      sload\n      tag_107\n      swap2\n      swap1\n      tag_76\n      jump\t// in\n    tag_107:\n      swap3\n      pop\n      pop\n      dup2\n      swap1\n      sstore\n      pop\n        /* \"C/centralizedExchange1.sol\":3996:4007  matchAmount */\n      dup1\n        /* \"C/centralizedExchange1.sol\":3976:3985  sellOrder */\n      dup3\n        /* \"C/centralizedExchange1.sol\":3976:3992  sellOrder.amount */\n      0x03\n      add\n      0x00\n        /* \"C/centralizedExchange1.sol\":3976:4007  sellOrder.amount -= matchAmount */\n      dup3\n      dup3\n      sload\n      tag_108\n      swap2\n      swap1\n      tag_76\n      jump\t// in\n    tag_108:\n      swap3\n      pop\n      pop\n      dup2\n      swap1\n      sstore\n      pop\n        /* \"C/centralizedExchange1.sol\":4136:4137  0 */\n      0x00\n        /* \"C/centralizedExchange1.sol\":4117:4125  buyOrder */\n      dup5\n        /* \"C/centralizedExchange1.sol\":4117:4132  buyOrder.amount */\n      0x03\n      add\n      sload\n        /* \"C/centralizedExchange1.sol\":4117:4137  buyOrder.amount == 0 */\n      sub\n        /* \"C/centralizedExchange1.sol\":4113:4210  if (buyOrder.amount == 0) {... */\n      tag_109\n      jumpi\n        /* \"C/centralizedExchange1.sol\":4183:4187  true */\n      0x01\n        /* \"C/centralizedExchange1.sol\":4165:4173  buyOrder */\n      dup5\n        /* \"C/centralizedExchange1.sol\":4165:4180  buyOrder.filled */\n      0x04\n      add\n      0x00\n        /* \"C/centralizedExchange1.sol\":4165:4187  buyOrder.filled = true */\n      0x0100\n      exp\n      dup2\n      sload\n      dup2\n      0xff\n      mul\n      not\n      and\n      swap1\n      dup4\n      iszero\n      iszero\n      mul\n      or\n      swap1\n      sstore\n      pop\n        /* \"C/centralizedExchange1.sol\":4113:4210  if (buyOrder.amount == 0) {... */\n    tag_109:\n        /* \"C/centralizedExchange1.sol\":4255:4256  0 */\n      0x00\n        /* \"C/centralizedExchange1.sol\":4235:4244  sellOrder */\n      dup3\n        /* \"C/centralizedExchange1.sol\":4235:4251  sellOrder.amount */\n      0x03\n      add\n      sload\n        /* \"C/centralizedExchange1.sol\":4235:4256  sellOrder.amount == 0 */\n      sub\n        /* \"C/centralizedExchange1.sol\":4231:4330  if (sellOrder.amount == 0) {... */\n      tag_110\n      jumpi\n        /* \"C/centralizedExchange1.sol\":4303:4307  true */\n      0x01\n        /* \"C/centralizedExchange1.sol\":4284:4293  sellOrder */\n      dup3\n        /* \"C/centralizedExchange1.sol\":4284:4300  sellOrder.filled */\n      0x04\n      add\n      0x00\n        /* \"C/centralizedExchange1.sol\":4284:4307  sellOrder.filled = true */\n      0x0100\n      exp\n      dup2\n      sload\n      dup2\n      0xff\n      mul\n      not\n      and\n      swap1\n      dup4\n      iszero\n      iszero\n      mul\n      or\n      swap1\n      sstore\n      pop\n        /* \"C/centralizedExchange1.sol\":4231:4330  if (sellOrder.amount == 0) {... */\n    tag_110:\n        /* \"C/centralizedExchange1.sol\":4466:4478  uint256 cost */\n      0x00\n        /* \"C/centralizedExchange1.sol\":4499:4510  matchAmount */\n      dup2\n        /* \"C/centralizedExchange1.sol\":4481:4490  sellOrder */\n      dup4\n        /* \"C/centralizedExchange1.sol\":4481:4496  sellOrder.price */\n      0x02\n      add\n      sload\n        /* \"C/centralizedExchange1.sol\":4481:4510  sellOrder.price * matchAmount */\n      tag_111\n      swap2\n      swap1\n      tag_112\n      jump\t// in\n    tag_111:\n        /* \"C/centralizedExchange1.sol\":4466:4510  uint256 cost = sellOrder.price * matchAmount */\n      swap1\n      pop\n        /* \"C/centralizedExchange1.sol\":4569:4573  cost */\n      dup1\n        /* \"C/centralizedExchange1.sol\":4540:4548  balances */\n      0x01\n        /* \"C/centralizedExchange1.sol\":4540:4565  balances[buyOrder.trader] */\n      0x00\n        /* \"C/centralizedExchange1.sol\":4549:4557  buyOrder */\n      dup8\n        /* \"C/centralizedExchange1.sol\":4549:4564  buyOrder.trader */\n      0x01\n      add\n      0x00\n      swap1\n      sload\n      swap1\n      0x0100\n      exp\n      swap1\n      div\n      0xffffffffffffffffffffffffffffffffffffffff\n      and\n        /* \"C/centralizedExchange1.sol\":4540:4565  balances[buyOrder.trader] */\n      0xffffffffffffffffffffffffffffffffffffffff\n      and\n      0xffffffffffffffffffffffffffffffffffffffff\n      and\n      dup2\n      mstore\n      0x20\n      add\n      swap1\n      dup2\n      mstore\n      0x20\n      add\n      0x00\n      keccak256\n      sload\n        /* \"C/centralizedExchange1.sol\":4540:4573  balances[buyOrder.trader] >= cost */\n      lt\n      iszero\n        /* \"C/centralizedExchange1.sol\":4532:4609  require(balances[buyOrder.trader] >= cost, \"Insufficient funds during match\") */\n      tag_113\n      jumpi\n      mload(0x40)\n      0x08c379a000000000000000000000000000000000000000000000000000000000\n      dup2\n      mstore\n      0x04\n      add\n      tag_114\n      swap1\n      tag_115\n      jump\t// in\n    tag_114:\n      mload(0x40)\n      dup1\n      swap2\n      sub\n      swap1\n      revert\n    tag_113:\n        /* \"C/centralizedExchange1.sol\":4660:4664  cost */\n      dup1\n        /* \"C/centralizedExchange1.sol\":4631:4639  balances */\n      0x01\n        /* \"C/centralizedExchange1.sol\":4631:4656  balances[buyOrder.trader] */\n      0x00\n        /* \"C/centralizedExchange1.sol\":4640:4648  buyOrder */\n      dup8\n        /* \"C/centralizedExchange1.sol\":4640:4655  buyOrder.trader */\n      0x01\n      add\n      0x00\n      swap1\n      sload\n      swap1\n      0x0100\n      exp\n      swap1\n      div\n      0xffffffffffffffffffffffffffffffffffffffff\n      and\n        /* \"C/centralizedExchange1.sol\":4631:4656  balances[buyOrder.trader] */\n      0xffffffffffffffffffffffffffffffffffffffff\n      and\n      0xffffffffffffffffffffffffffffffffffffffff\n      and\n      dup2\n      mstore\n      0x20\n      add\n      swap1\n      dup2\n      mstore\n      0x20\n      add\n      0x00\n      keccak256\n      0x00\n        /* \"C/centralizedExchange1.sol\":4631:4664  balances[buyOrder.trader] -= cost */\n      dup3\n      dup3\n      sload\n      tag_116\n      swap2\n      swap1\n      tag_76\n      jump\t// in\n    tag_116:\n      swap3\n      pop\n      pop\n      dup2\n      swap1\n      sstore\n      pop\n        /* \"C/centralizedExchange1.sol\":4716:4720  cost */\n      dup1\n        /* \"C/centralizedExchange1.sol\":4686:4694  balances */\n      0x01\n        /* \"C/centralizedExchange1.sol\":4686:4712  balances[sellOrder.trader] */\n      0x00\n        /* \"C/centralizedExchange1.sol\":4695:4704  sellOrder */\n      dup6\n        /* \"C/centralizedExchange1.sol\":4695:4711  sellOrder.trader */\n      0x01\n      add\n      0x00\n      swap1\n      sload\n      swap1\n      0x0100\n      exp\n      swap1\n      div\n      0xffffffffffffffffffffffffffffffffffffffff\n      and\n        /* \"C/centralizedExchange1.sol\":4686:4712  balances[sellOrder.trader] */\n      0xffffffffffffffffffffffffffffffffffffffff\n      and\n      0xffffffffffffffffffffffffffffffffffffffff\n      and\n      dup2\n      mstore\n      0x20\n      add\n      swap1\n      dup2\n      mstore\n      0x20\n      add\n      0x00\n      keccak256\n      0x00\n        /* \"C/centralizedExchange1.sol\":4686:4720  balances[sellOrder.trader] += cost */\n      dup3\n      dup3\n      sload\n      tag_117\n      swap2\n      swap1\n      tag_118\n      jump\t// in\n    tag_117:\n      swap3\n      pop\n      pop\n      dup2\n      swap1\n      sstore\n      pop\n        /* \"C/centralizedExchange1.sol\":4794:4803  sellOrder */\n      dup3\n        /* \"C/centralizedExchange1.sol\":4794:4806  sellOrder.id */\n      0x00\n      add\n      sload\n        /* \"C/centralizedExchange1.sol\":4781:4789  buyOrder */\n      dup6\n        /* \"C/centralizedExchange1.sol\":4781:4792  buyOrder.id */\n      0x00\n      add\n      sload\n        /* \"C/centralizedExchange1.sol\":4768:4837  OrderMatched(buyOrder.id, sellOrder.id, sellOrder.price, matchAmount) */\n      0x82877c5945532f956e6718f78f5606b7b5d8efef5e22121a3d9bf4e708873edd\n        /* \"C/centralizedExchange1.sol\":4808:4817  sellOrder */\n      dup6\n        /* \"C/centralizedExchange1.sol\":4808:4823  sellOrder.price */\n      0x02\n      add\n      sload\n        /* \"C/centralizedExchange1.sol\":4825:4836  matchAmount */\n      dup6\n        /* \"C/centralizedExchange1.sol\":4768:4837  OrderMatched(buyOrder.id, sellOrder.id, sellOrder.price, matchAmount) */\n      mload(0x40)\n      tag_119\n      swap3\n      swap2\n      swap1\n      tag_120\n      jump\t// in\n    tag_119:\n      mload(0x40)\n      dup1\n      swap2\n      sub\n      swap1\n      log3\n        /* \"C/centralizedExchange1.sol\":3633:4856  {... */\n      pop\n      pop\n        /* \"C/centralizedExchange1.sol\":3594:4856  if (buyOrder.price >= sellOrder.price) {... */\n    tag_104:\n        /* \"C/centralizedExchange1.sol\":3357:4870  {... */\n      pop\n        /* \"C/centralizedExchange1.sol\":3309:4870  for (uint256 j = 0; j < sellOrders.length; j++) {... */\n    tag_99:\n        /* \"C/centralizedExchange1.sol\":3352:3355  j++ */\n      dup1\n      dup1\n      tag_121\n      swap1\n      tag_122\n      jump\t// in\n    tag_121:\n      swap2\n      pop\n      pop\n        /* \"C/centralizedExchange1.sol\":3309:4870  for (uint256 j = 0; j < sellOrders.length; j++) {... */\n      jump(tag_97)\n    tag_98:\n      pop\n        /* \"C/centralizedExchange1.sol\":3188:4880  {... */\n      pop\n        /* \"C/centralizedExchange1.sol\":3141:4880  for (uint256 i = 0; i < buyOrders.length; i++) {... */\n    tag_91:\n        /* \"C/centralizedExchange1.sol\":3183:3186  i++ */\n      dup1\n      dup1\n      tag_123\n      swap1\n      tag_122\n      jump\t// in\n    tag_123:\n      swap2\n      pop\n      pop\n        /* \"C/centralizedExchange1.sol\":3141:4880  for (uint256 i = 0; i < buyOrders.length; i++) {... */\n      jump(tag_89)\n    tag_90:\n      pop\n        /* \"C/centralizedExchange1.sol\":3089:4886  function matchOrders() external onlyOwner {... */\n      jump\t// out\n        /* \"C/centralizedExchange1.sol\":92:112  address public owner */\n    tag_55:\n      0x00\n      dup1\n      sload\n      swap1\n      0x0100\n      exp\n      swap1\n      div\n      0xffffffffffffffffffffffffffffffffffffffff\n      and\n      dup2\n      jump\t// out\n        /* \"C/centralizedExchange1.sol\":2397:2945  function placeSellOrder(uint256 price, uint256 amount) external {... */\n    tag_62:\n        /* \"C/centralizedExchange1.sol\":2582:2600  Order memory order */\n      0x00\n        /* \"C/centralizedExchange1.sol\":2603:2801  Order({... */\n      mload(0x40)\n      dup1\n      0xc0\n      add\n      0x40\n      mstore\n      dup1\n        /* \"C/centralizedExchange1.sol\":2627:2638  nextOrderId */\n      sload(0x04)\n        /* \"C/centralizedExchange1.sol\":2603:2801  Order({... */\n      dup2\n      mstore\n      0x20\n      add\n        /* \"C/centralizedExchange1.sol\":2660:2670  msg.sender */\n      caller\n        /* \"C/centralizedExchange1.sol\":2603:2801  Order({... */\n      0xffffffffffffffffffffffffffffffffffffffff\n      and\n      dup2\n      mstore\n      0x20\n      add\n        /* \"C/centralizedExchange1.sol\":2695:2709  OrderType.SELL */\n      0x01\n        /* \"C/centralizedExchange1.sol\":2603:2801  Order({... */\n      dup1\n      dup2\n      gt\n      iszero\n      tag_125\n      jumpi\n      tag_126\n      tag_127\n      jump\t// in\n    tag_126:\n    tag_125:\n      dup2\n      mstore\n      0x20\n      add\n        /* \"C/centralizedExchange1.sol\":2730:2735  price */\n      dup5\n        /* \"C/centralizedExchange1.sol\":2603:2801  Order({... */\n      dup2\n      mstore\n      0x20\n      add\n        /* \"C/centralizedExchange1.sol\":2757:2763  amount */\n      dup4\n        /* \"C/centralizedExchange1.sol\":2603:2801  Order({... */\n      dup2\n      mstore\n      0x20\n      add\n        /* \"C/centralizedExchange1.sol\":2785:2790  false */\n      0x00\n        /* \"C/centralizedExchange1.sol\":2603:2801  Order({... */\n      iszero\n      iszero\n      dup2\n      mstore\n      pop\n        /* \"C/centralizedExchange1.sol\":2582:2801  Order memory order = Order({... */\n      swap1\n      pop\n        /* \"C/centralizedExchange1.sol\":2811:2821  sellOrders */\n      0x03\n        /* \"C/centralizedExchange1.sol\":2827:2832  order */\n      dup2\n        /* \"C/centralizedExchange1.sol\":2811:2833  sellOrders.push(order) */\n      swap1\n      dup1\n      0x01\n      dup2\n      sload\n      add\n      dup1\n      dup3\n      sstore\n      dup1\n      swap2\n      pop\n      pop\n      0x01\n      swap1\n      sub\n      swap1\n      0x00\n      mstore\n      keccak256(0x00, 0x20)\n      swap1\n      0x05\n      mul\n      add\n      0x00\n      swap1\n      swap2\n      swap1\n      swap2\n      swap1\n      swap2\n      pop\n      0x00\n      dup3\n      add\n      mload\n      dup2\n      0x00\n      add\n      sstore\n      0x20\n      dup3\n      add\n      mload\n      dup2\n      0x01\n      add\n      exp(0x0100, 0x00)\n      dup2\n      sload\n      dup2\n      0xffffffffffffffffffffffffffffffffffffffff\n      mul\n      not\n      and\n      swap1\n      dup4\n      0xffffffffffffffffffffffffffffffffffffffff\n      and\n      mul\n      or\n      swap1\n      sstore\n      pop\n      0x40\n      dup3\n      add\n      mload\n      dup2\n      0x01\n      add\n      exp(0x0100, 0x14)\n      dup2\n      sload\n      dup2\n      0xff\n      mul\n      not\n      and\n      swap1\n      dup4\n      0x01\n      dup2\n      gt\n      iszero\n      tag_129\n      jumpi\n      tag_130\n      tag_127\n      jump\t// in\n    tag_130:\n    tag_129:\n      mul\n      or\n      swap1\n      sstore\n      pop\n      0x60\n      dup3\n      add\n      mload\n      dup2\n      0x02\n      add\n      sstore\n      0x80\n      dup3\n      add\n      mload\n      dup2\n      0x03\n      add\n      sstore\n      0xa0\n      dup3\n      add\n      mload\n      dup2\n      0x04\n      add\n      exp(0x0100, 0x00)\n      dup2\n      sload\n      dup2\n      0xff\n      mul\n      not\n      and\n      swap1\n      dup4\n      iszero\n      iszero\n      mul\n      or\n      swap1\n      sstore\n      pop\n      pop\n      pop\n        /* \"C/centralizedExchange1.sol\":2873:2883  msg.sender */\n      caller\n        /* \"C/centralizedExchange1.sol\":2848:2915  OrderPlaced(nextOrderId, msg.sender, OrderType.SELL, price, amount) */\n      0xffffffffffffffffffffffffffffffffffffffff\n      and\n        /* \"C/centralizedExchange1.sol\":2860:2871  nextOrderId */\n      sload(0x04)\n        /* \"C/centralizedExchange1.sol\":2848:2915  OrderPlaced(nextOrderId, msg.sender, OrderType.SELL, price, amount) */\n      0x28ee76b520925c614b94784e5bd4b8d8ad21fd9930aea487e678e1e5a5f40513\n        /* \"C/centralizedExchange1.sol\":2885:2899  OrderType.SELL */\n      0x01\n        /* \"C/centralizedExchange1.sol\":2901:2906  price */\n      dup7\n        /* \"C/centralizedExchange1.sol\":2908:2914  amount */\n      dup7\n        /* \"C/centralizedExchange1.sol\":2848:2915  OrderPlaced(nextOrderId, msg.sender, OrderType.SELL, price, amount) */\n      mload(0x40)\n      tag_131\n      swap4\n      swap3\n      swap2\n      swap1\n      tag_132\n      jump\t// in\n    tag_131:\n      mload(0x40)\n      dup1\n      swap2\n      sub\n      swap1\n      log3\n        /* \"C/centralizedExchange1.sol\":2925:2936  nextOrderId */\n      0x04\n      0x00\n        /* \"C/centralizedExchange1.sol\":2925:2938  nextOrderId++ */\n      dup2\n      sload\n      dup1\n      swap3\n      swap2\n      swap1\n      tag_133\n      swap1\n      tag_122\n      jump\t// in\n    tag_133:\n      swap2\n      swap1\n      pop\n      sstore\n      pop\n        /* \"C/centralizedExchange1.sol\":2461:2945  {... */\n      pop\n        /* \"C/centralizedExchange1.sol\":2397:2945  function placeSellOrder(uint256 price, uint256 amount) external {... */\n      pop\n      pop\n      jump\t// out\n        /* \"C/centralizedExchange1.sol\":1212:1398  function deposit() external payable {... */\n    tag_64:\n        /* \"C/centralizedExchange1.sol\":1278:1279  0 */\n      0x00\n        /* \"C/centralizedExchange1.sol\":1266:1275  msg.value */\n      callvalue\n        /* \"C/centralizedExchange1.sol\":1266:1279  msg.value > 0 */\n      gt\n        /* \"C/centralizedExchange1.sol\":1258:1303  require(msg.value > 0, \"Deposit must be > 0\") */\n      tag_135\n      jumpi\n      mload(0x40)\n      0x08c379a000000000000000000000000000000000000000000000000000000000\n      dup2\n      mstore\n      0x04\n      add\n      tag_136\n      swap1\n      tag_137\n      jump\t// in\n    tag_136:\n      mload(0x40)\n      dup1\n      swap2\n      sub\n      swap1\n      revert\n    tag_135:\n        /* \"C/centralizedExchange1.sol\":1337:1346  msg.value */\n      callvalue\n        /* \"C/centralizedExchange1.sol\":1313:1321  balances */\n      0x01\n        /* \"C/centralizedExchange1.sol\":1313:1333  balances[msg.sender] */\n      0x00\n        /* \"C/centralizedExchange1.sol\":1322:1332  msg.sender */\n      caller\n        /* \"C/centralizedExchange1.sol\":1313:1333  balances[msg.sender] */\n      0xffffffffffffffffffffffffffffffffffffffff\n      and\n      0xffffffffffffffffffffffffffffffffffffffff\n      and\n      dup2\n      mstore\n      0x20\n      add\n      swap1\n      dup2\n      mstore\n      0x20\n      add\n      0x00\n      keccak256\n      0x00\n        /* \"C/centralizedExchange1.sol\":1313:1346  balances[msg.sender] += msg.value */\n      dup3\n      dup3\n      sload\n      tag_138\n      swap2\n      swap1\n      tag_118\n      jump\t// in\n    tag_138:\n      swap3\n      pop\n      pop\n      dup2\n      swap1\n      sstore\n      pop\n        /* \"C/centralizedExchange1.sol\":1369:1379  msg.sender */\n      caller\n        /* \"C/centralizedExchange1.sol\":1361:1391  Deposit(msg.sender, msg.value) */\n      0xffffffffffffffffffffffffffffffffffffffff\n      and\n      0xe1fffcc4923d04b559f4d29a8bfc6cda04eb5b0d3c460751c2402c5c5cc9109c\n        /* \"C/centralizedExchange1.sol\":1381:1390  msg.value */\n      callvalue\n        /* \"C/centralizedExchange1.sol\":1361:1391  Deposit(msg.sender, msg.value) */\n      mload(0x40)\n      tag_139\n      swap2\n      swap1\n      tag_19\n      jump\t// in\n    tag_139:\n      mload(0x40)\n      dup1\n      swap2\n      sub\n      swap1\n      log2\n        /* \"C/centralizedExchange1.sol\":1212:1398  function deposit() external payable {... */\n      jump\t// out\n        /* \"C/centralizedExchange1.sol\":1740:2361  function placeBuyOrder(uint256 price, uint256 amount) external {... */\n    tag_68:\n        /* \"C/centralizedExchange1.sol\":1858:1875  uint256 totalCost */\n      0x00\n        /* \"C/centralizedExchange1.sol\":1886:1892  amount */\n      dup2\n        /* \"C/centralizedExchange1.sol\":1878:1883  price */\n      dup4\n        /* \"C/centralizedExchange1.sol\":1878:1892  price * amount */\n      tag_141\n      swap2\n      swap1\n      tag_112\n      jump\t// in\n    tag_141:\n        /* \"C/centralizedExchange1.sol\":1858:1892  uint256 totalCost = price * amount */\n      swap1\n      pop\n        /* \"C/centralizedExchange1.sol\":1934:1943  totalCost */\n      dup1\n        /* \"C/centralizedExchange1.sol\":1910:1918  balances */\n      0x01\n        /* \"C/centralizedExchange1.sol\":1910:1930  balances[msg.sender] */\n      0x00\n        /* \"C/centralizedExchange1.sol\":1919:1929  msg.sender */\n      caller\n        /* \"C/centralizedExchange1.sol\":1910:1930  balances[msg.sender] */\n      0xffffffffffffffffffffffffffffffffffffffff\n      and\n      0xffffffffffffffffffffffffffffffffffffffff\n      and\n      dup2\n      mstore\n      0x20\n      add\n      swap1\n      dup2\n      mstore\n      0x20\n      add\n      0x00\n      keccak256\n      sload\n        /* \"C/centralizedExchange1.sol\":1910:1943  balances[msg.sender] >= totalCost */\n      lt\n      iszero\n        /* \"C/centralizedExchange1.sol\":1902:1982  require(balances[msg.sender] >= totalCost, \"Insufficient balance for buy order\") */\n      tag_142\n      jumpi\n      mload(0x40)\n      0x08c379a000000000000000000000000000000000000000000000000000000000\n      dup2\n      mstore\n      0x04\n      add\n      tag_143\n      swap1\n      tag_144\n      jump\t// in\n    tag_143:\n      mload(0x40)\n      dup1\n      swap2\n      sub\n      swap1\n      revert\n    tag_142:\n        /* \"C/centralizedExchange1.sol\":2001:2019  Order memory order */\n      0x00\n        /* \"C/centralizedExchange1.sol\":2022:2219  Order({... */\n      mload(0x40)\n      dup1\n      0xc0\n      add\n      0x40\n      mstore\n      dup1\n        /* \"C/centralizedExchange1.sol\":2046:2057  nextOrderId */\n      sload(0x04)\n        /* \"C/centralizedExchange1.sol\":2022:2219  Order({... */\n      dup2\n      mstore\n      0x20\n      add\n        /* \"C/centralizedExchange1.sol\":2079:2089  msg.sender */\n      caller\n        /* \"C/centralizedExchange1.sol\":2022:2219  Order({... */\n      0xffffffffffffffffffffffffffffffffffffffff\n      and\n      dup2\n      mstore\n      0x20\n      add\n        /* \"C/centralizedExchange1.sol\":2114:2127  OrderType.BUY */\n      0x00\n        /* \"C/centralizedExchange1.sol\":2022:2219  Order({... */\n      0x01\n      dup2\n      gt\n      iszero\n      tag_145\n      jumpi\n      tag_146\n      tag_127\n      jump\t// in\n    tag_146:\n    tag_145:\n      dup2\n      mstore\n      0x20\n      add\n        /* \"C/centralizedExchange1.sol\":2148:2153  price */\n      dup6\n        /* \"C/centralizedExchange1.sol\":2022:2219  Order({... */\n      dup2\n      mstore\n      0x20\n      add\n        /* \"C/centralizedExchange1.sol\":2175:2181  amount */\n      dup5\n        /* \"C/centralizedExchange1.sol\":2022:2219  Order({... */\n      dup2\n      mstore\n      0x20\n      add\n        /* \"C/centralizedExchange1.sol\":2203:2208  false */\n      0x00\n        /* \"C/centralizedExchange1.sol\":2022:2219  Order({... */\n      iszero\n      iszero\n      dup2\n      mstore\n      pop\n        /* \"C/centralizedExchange1.sol\":2001:2219  Order memory order = Order({... */\n      swap1\n      pop\n        /* \"C/centralizedExchange1.sol\":2229:2238  buyOrders */\n      0x02\n        /* \"C/centralizedExchange1.sol\":2244:2249  order */\n      dup2\n        /* \"C/centralizedExchange1.sol\":2229:2250  buyOrders.push(order) */\n      swap1\n      dup1\n      0x01\n      dup2\n      sload\n      add\n      dup1\n      dup3\n      sstore\n      dup1\n      swap2\n      pop\n      pop\n      0x01\n      swap1\n      sub\n      swap1\n      0x00\n      mstore\n      keccak256(0x00, 0x20)\n      swap1\n      0x05\n      mul\n      add\n      0x00\n      swap1\n      swap2\n      swap1\n      swap2\n      swap1\n      swap2\n      pop\n      0x00\n      dup3\n      add\n      mload\n      dup2\n      0x00\n      add\n      sstore\n      0x20\n      dup3\n      add\n      mload\n      dup2\n      0x01\n      add\n      exp(0x0100, 0x00)\n      dup2\n      sload\n      dup2\n      0xffffffffffffffffffffffffffffffffffffffff\n      mul\n      not\n      and\n      swap1\n      dup4\n      0xffffffffffffffffffffffffffffffffffffffff\n      and\n      mul\n      or\n      swap1\n      sstore\n      pop\n      0x40\n      dup3\n      add\n      mload\n      dup2\n      0x01\n      add\n      exp(0x0100, 0x14)\n      dup2\n      sload\n      dup2\n      0xff\n      mul\n      not\n      and\n      swap1\n      dup4\n      0x01\n      dup2\n      gt\n      iszero\n      tag_148\n      jumpi\n      tag_149\n      tag_127\n      jump\t// in\n    tag_149:\n    tag_148:\n      mul\n      or\n      swap1\n      sstore\n      pop\n      0x60\n      dup3\n      add\n      mload\n      dup2\n      0x02\n      add\n      sstore\n      0x80\n      dup3\n      add\n      mload\n      dup2\n      0x03\n      add\n      sstore\n      0xa0\n      dup3\n      add\n      mload\n      dup2\n      0x04\n      add\n      exp(0x0100, 0x00)\n      dup2\n      sload\n      dup2\n      0xff\n      mul\n      not\n      and\n      swap1\n      dup4\n      iszero\n      iszero\n      mul\n      or\n      swap1\n      sstore\n      pop\n      pop\n      pop\n        /* \"C/centralizedExchange1.sol\":2290:2300  msg.sender */\n      caller\n        /* \"C/centralizedExchange1.sol\":2265:2331  OrderPlaced(nextOrderId, msg.sender, OrderType.BUY, price, amount) */\n      0xffffffffffffffffffffffffffffffffffffffff\n      and\n        /* \"C/centralizedExchange1.sol\":2277:2288  nextOrderId */\n      sload(0x04)\n        /* \"C/centralizedExchange1.sol\":2265:2331  OrderPlaced(nextOrderId, msg.sender, OrderType.BUY, price, amount) */\n      0x28ee76b520925c614b94784e5bd4b8d8ad21fd9930aea487e678e1e5a5f40513\n        /* \"C/centralizedExchange1.sol\":2302:2315  OrderType.BUY */\n      0x00\n        /* \"C/centralizedExchange1.sol\":2317:2322  price */\n      dup8\n        /* \"C/centralizedExchange1.sol\":2324:2330  amount */\n      dup8\n        /* \"C/centralizedExchange1.sol\":2265:2331  OrderPlaced(nextOrderId, msg.sender, OrderType.BUY, price, amount) */\n      mload(0x40)\n      tag_150\n      swap4\n      swap3\n      swap2\n      swap1\n      tag_132\n      jump\t// in\n    tag_150:\n      mload(0x40)\n      dup1\n      swap2\n      sub\n      swap1\n      log3\n        /* \"C/centralizedExchange1.sol\":2341:2352  nextOrderId */\n      0x04\n      0x00\n        /* \"C/centralizedExchange1.sol\":2341:2354  nextOrderId++ */\n      dup2\n      sload\n      dup1\n      swap3\n      swap2\n      swap1\n      tag_151\n      swap1\n      tag_122\n      jump\t// in\n    tag_151:\n      swap2\n      swap1\n      pop\n      sstore\n      pop\n        /* \"C/centralizedExchange1.sol\":1803:2361  {... */\n      pop\n      pop\n        /* \"C/centralizedExchange1.sol\":1740:2361  function placeBuyOrder(uint256 price, uint256 amount) external {... */\n      pop\n      pop\n      jump\t// out\n        /* \"#utility.yul\":7:84   */\n    tag_152:\n        /* \"#utility.yul\":44:51   */\n      0x00\n        /* \"#utility.yul\":73:78   */\n      dup2\n        /* \"#utility.yul\":62:78   */\n      swap1\n      pop\n        /* \"#utility.yul\":7:84   */\n      swap2\n      swap1\n      pop\n      jump\t// out\n        /* \"#utility.yul\":90:208   */\n    tag_153:\n        /* \"#utility.yul\":177:201   */\n      tag_185\n        /* \"#utility.yul\":195:200   */\n      dup2\n        /* \"#utility.yul\":177:201   */\n      tag_152\n      jump\t// in\n    tag_185:\n        /* \"#utility.yul\":172:175   */\n      dup3\n        /* \"#utility.yul\":165:202   */\n      mstore\n        /* \"#utility.yul\":90:208   */\n      pop\n      pop\n      jump\t// out\n        /* \"#utility.yul\":214:436   */\n    tag_19:\n        /* \"#utility.yul\":307:311   */\n      0x00\n        /* \"#utility.yul\":345:347   */\n      0x20\n        /* \"#utility.yul\":334:343   */\n      dup3\n        /* \"#utility.yul\":330:348   */\n      add\n        /* \"#utility.yul\":322:348   */\n      swap1\n      pop\n        /* \"#utility.yul\":358:429   */\n      tag_187\n        /* \"#utility.yul\":426:427   */\n      0x00\n        /* \"#utility.yul\":415:424   */\n      dup4\n        /* \"#utility.yul\":411:428   */\n      add\n        /* \"#utility.yul\":402:408   */\n      dup5\n        /* \"#utility.yul\":358:429   */\n      tag_153\n      jump\t// in\n    tag_187:\n        /* \"#utility.yul\":214:436   */\n      swap3\n      swap2\n      pop\n      pop\n      jump\t// out\n        /* \"#utility.yul\":523:640   */\n    tag_155:\n        /* \"#utility.yul\":632:633   */\n      0x00\n        /* \"#utility.yul\":629:630   */\n      dup1\n        /* \"#utility.yul\":622:634   */\n      revert\n        /* \"#utility.yul\":769:895   */\n    tag_157:\n        /* \"#utility.yul\":806:813   */\n      0x00\n        /* \"#utility.yul\":846:888   */\n      0xffffffffffffffffffffffffffffffffffffffff\n        /* \"#utility.yul\":839:844   */\n      dup3\n        /* \"#utility.yul\":835:889   */\n      and\n        /* \"#utility.yul\":824:889   */\n      swap1\n      pop\n        /* \"#utility.yul\":769:895   */\n      swap2\n      swap1\n      pop\n      jump\t// out\n        /* \"#utility.yul\":901:997   */\n    tag_158:\n        /* \"#utility.yul\":938:945   */\n      0x00\n        /* \"#utility.yul\":967:991   */\n      tag_193\n        /* \"#utility.yul\":985:990   */\n      dup3\n        /* \"#utility.yul\":967:991   */\n      tag_157\n      jump\t// in\n    tag_193:\n        /* \"#utility.yul\":956:991   */\n      swap1\n      pop\n        /* \"#utility.yul\":901:997   */\n      swap2\n      swap1\n      pop\n      jump\t// out\n        /* \"#utility.yul\":1003:1125   */\n    tag_159:\n        /* \"#utility.yul\":1076:1100   */\n      tag_195\n        /* \"#utility.yul\":1094:1099   */\n      dup2\n        /* \"#utility.yul\":1076:1100   */\n      tag_158\n      jump\t// in\n    tag_195:\n        /* \"#utility.yul\":1069:1074   */\n      dup2\n        /* \"#utility.yul\":1066:1101   */\n      eq\n        /* \"#utility.yul\":1056:1119   */\n      tag_196\n      jumpi\n        /* \"#utility.yul\":1115:1116   */\n      0x00\n        /* \"#utility.yul\":1112:1113   */\n      dup1\n        /* \"#utility.yul\":1105:1117   */\n      revert\n        /* \"#utility.yul\":1056:1119   */\n    tag_196:\n        /* \"#utility.yul\":1003:1125   */\n      pop\n      jump\t// out\n        /* \"#utility.yul\":1131:1270   */\n    tag_160:\n        /* \"#utility.yul\":1177:1182   */\n      0x00\n        /* \"#utility.yul\":1215:1221   */\n      dup2\n        /* \"#utility.yul\":1202:1222   */\n      calldataload\n        /* \"#utility.yul\":1193:1222   */\n      swap1\n      pop\n        /* \"#utility.yul\":1231:1264   */\n      tag_198\n        /* \"#utility.yul\":1258:1263   */\n      dup2\n        /* \"#utility.yul\":1231:1264   */\n      tag_159\n      jump\t// in\n    tag_198:\n        /* \"#utility.yul\":1131:1270   */\n      swap3\n      swap2\n      pop\n      pop\n      jump\t// out\n        /* \"#utility.yul\":1276:1605   */\n    tag_23:\n        /* \"#utility.yul\":1335:1341   */\n      0x00\n        /* \"#utility.yul\":1384:1386   */\n      0x20\n        /* \"#utility.yul\":1372:1381   */\n      dup3\n        /* \"#utility.yul\":1363:1370   */\n      dup5\n        /* \"#utility.yul\":1359:1382   */\n      sub\n        /* \"#utility.yul\":1355:1387   */\n      slt\n        /* \"#utility.yul\":1352:1471   */\n      iszero\n      tag_200\n      jumpi\n        /* \"#utility.yul\":1390:1469   */\n      tag_201\n      tag_155\n      jump\t// in\n    tag_201:\n        /* \"#utility.yul\":1352:1471   */\n    tag_200:\n        /* \"#utility.yul\":1510:1511   */\n      0x00\n        /* \"#utility.yul\":1535:1588   */\n      tag_202\n        /* \"#utility.yul\":1580:1587   */\n      dup5\n        /* \"#utility.yul\":1571:1577   */\n      dup3\n        /* \"#utility.yul\":1560:1569   */\n      dup6\n        /* \"#utility.yul\":1556:1578   */\n      add\n        /* \"#utility.yul\":1535:1588   */\n      tag_160\n      jump\t// in\n    tag_202:\n        /* \"#utility.yul\":1525:1588   */\n      swap2\n      pop\n        /* \"#utility.yul\":1481:1598   */\n      pop\n        /* \"#utility.yul\":1276:1605   */\n      swap3\n      swap2\n      pop\n      pop\n      jump\t// out\n        /* \"#utility.yul\":1611:1733   */\n    tag_161:\n        /* \"#utility.yul\":1684:1708   */\n      tag_204\n        /* \"#utility.yul\":1702:1707   */\n      dup2\n        /* \"#utility.yul\":1684:1708   */\n      tag_152\n      jump\t// in\n    tag_204:\n        /* \"#utility.yul\":1677:1682   */\n      dup2\n        /* \"#utility.yul\":1674:1709   */\n      eq\n        /* \"#utility.yul\":1664:1727   */\n      tag_205\n      jumpi\n        /* \"#utility.yul\":1723:1724   */\n      0x00\n        /* \"#utility.yul\":1720:1721   */\n      dup1\n        /* \"#utility.yul\":1713:1725   */\n      revert\n        /* \"#utility.yul\":1664:1727   */\n    tag_205:\n        /* \"#utility.yul\":1611:1733   */\n      pop\n      jump\t// out\n        /* \"#utility.yul\":1739:1878   */\n    tag_162:\n        /* \"#utility.yul\":1785:1790   */\n      0x00\n        /* \"#utility.yul\":1823:1829   */\n      dup2\n        /* \"#utility.yul\":1810:1830   */\n      calldataload\n        /* \"#utility.yul\":1801:1830   */\n      swap1\n      pop\n        /* \"#utility.yul\":1839:1872   */\n      tag_207\n        /* \"#utility.yul\":1866:1871   */\n      dup2\n        /* \"#utility.yul\":1839:1872   */\n      tag_161\n      jump\t// in\n    tag_207:\n        /* \"#utility.yul\":1739:1878   */\n      swap3\n      swap2\n      pop\n      pop\n      jump\t// out\n        /* \"#utility.yul\":1884:2213   */\n    tag_37:\n        /* \"#utility.yul\":1943:1949   */\n      0x00\n        /* \"#utility.yul\":1992:1994   */\n      0x20\n        /* \"#utility.yul\":1980:1989   */\n      dup3\n        /* \"#utility.yul\":1971:1978   */\n      dup5\n        /* \"#utility.yul\":1967:1990   */\n      sub\n        /* \"#utility.yul\":1963:1995   */\n      slt\n        /* \"#utility.yul\":1960:2079   */\n      iszero\n      tag_209\n      jumpi\n        /* \"#utility.yul\":1998:2077   */\n      tag_210\n      tag_155\n      jump\t// in\n    tag_210:\n        /* \"#utility.yul\":1960:2079   */\n    tag_209:\n        /* \"#utility.yul\":2118:2119   */\n      0x00\n        /* \"#utility.yul\":2143:2196   */\n      tag_211\n        /* \"#utility.yul\":2188:2195   */\n      dup5\n        /* \"#utility.yul\":2179:2185   */\n      dup3\n        /* \"#utility.yul\":2168:2177   */\n      dup6\n        /* \"#utility.yul\":2164:2186   */\n      add\n        /* \"#utility.yul\":2143:2196   */\n      tag_162\n      jump\t// in\n    tag_211:\n        /* \"#utility.yul\":2133:2196   */\n      swap2\n      pop\n        /* \"#utility.yul\":2089:2206   */\n      pop\n        /* \"#utility.yul\":1884:2213   */\n      swap3\n      swap2\n      pop\n      pop\n      jump\t// out\n        /* \"#utility.yul\":2219:2337   */\n    tag_163:\n        /* \"#utility.yul\":2306:2330   */\n      tag_213\n        /* \"#utility.yul\":2324:2329   */\n      dup2\n        /* \"#utility.yul\":2306:2330   */\n      tag_158\n      jump\t// in\n    tag_213:\n        /* \"#utility.yul\":2301:2304   */\n      dup3\n        /* \"#utility.yul\":2294:2331   */\n      mstore\n        /* \"#utility.yul\":2219:2337   */\n      pop\n      pop\n      jump\t// out\n        /* \"#utility.yul\":2343:2523   */\n    tag_127:\n        /* \"#utility.yul\":2391:2468   */\n      0x4e487b7100000000000000000000000000000000000000000000000000000000\n        /* \"#utility.yul\":2388:2389   */\n      0x00\n        /* \"#utility.yul\":2381:2469   */\n      mstore\n        /* \"#utility.yul\":2488:2492   */\n      0x21\n        /* \"#utility.yul\":2485:2486   */\n      0x04\n        /* \"#utility.yul\":2478:2493   */\n      mstore\n        /* \"#utility.yul\":2512:2516   */\n      0x24\n        /* \"#utility.yul\":2509:2510   */\n      0x00\n        /* \"#utility.yul\":2502:2517   */\n      revert\n        /* \"#utility.yul\":2529:2646   */\n    tag_164:\n        /* \"#utility.yul\":2614:2615   */\n      0x02\n        /* \"#utility.yul\":2607:2612   */\n      dup2\n        /* \"#utility.yul\":2604:2616   */\n      lt\n        /* \"#utility.yul\":2594:2640   */\n      tag_216\n      jumpi\n        /* \"#utility.yul\":2620:2638   */\n      tag_217\n      tag_127\n      jump\t// in\n    tag_217:\n        /* \"#utility.yul\":2594:2640   */\n    tag_216:\n        /* \"#utility.yul\":2529:2646   */\n      pop\n      jump\t// out\n        /* \"#utility.yul\":2652:2787   */\n    tag_165:\n        /* \"#utility.yul\":2701:2708   */\n      0x00\n        /* \"#utility.yul\":2730:2735   */\n      dup2\n        /* \"#utility.yul\":2719:2735   */\n      swap1\n      pop\n        /* \"#utility.yul\":2736:2781   */\n      tag_219\n        /* \"#utility.yul\":2775:2780   */\n      dup3\n        /* \"#utility.yul\":2736:2781   */\n      tag_164\n      jump\t// in\n    tag_219:\n        /* \"#utility.yul\":2652:2787   */\n      swap2\n      swap1\n      pop\n      jump\t// out\n        /* \"#utility.yul\":2793:2928   */\n    tag_166:\n        /* \"#utility.yul\":2853:2862   */\n      0x00\n        /* \"#utility.yul\":2886:2922   */\n      tag_221\n        /* \"#utility.yul\":2916:2921   */\n      dup3\n        /* \"#utility.yul\":2886:2922   */\n      tag_165\n      jump\t// in\n    tag_221:\n        /* \"#utility.yul\":2873:2922   */\n      swap1\n      pop\n        /* \"#utility.yul\":2793:2928   */\n      swap2\n      swap1\n      pop\n      jump\t// out\n        /* \"#utility.yul\":2934:3085   */\n    tag_167:\n        /* \"#utility.yul\":3031:3078   */\n      tag_223\n        /* \"#utility.yul\":3072:3077   */\n      dup2\n        /* \"#utility.yul\":3031:3078   */\n      tag_166\n      jump\t// in\n    tag_223:\n        /* \"#utility.yul\":3026:3029   */\n      dup3\n        /* \"#utility.yul\":3019:3079   */\n      mstore\n        /* \"#utility.yul\":2934:3085   */\n      pop\n      pop\n      jump\t// out\n        /* \"#utility.yul\":3091:3181   */\n    tag_168:\n        /* \"#utility.yul\":3125:3132   */\n      0x00\n        /* \"#utility.yul\":3168:3173   */\n      dup2\n        /* \"#utility.yul\":3161:3174   */\n      iszero\n        /* \"#utility.yul\":3154:3175   */\n      iszero\n        /* \"#utility.yul\":3143:3175   */\n      swap1\n      pop\n        /* \"#utility.yul\":3091:3181   */\n      swap2\n      swap1\n      pop\n      jump\t// out\n        /* \"#utility.yul\":3187:3296   */\n    tag_169:\n        /* \"#utility.yul\":3268:3289   */\n      tag_226\n        /* \"#utility.yul\":3283:3288   */\n      dup2\n        /* \"#utility.yul\":3268:3289   */\n      tag_168\n      jump\t// in\n    tag_226:\n        /* \"#utility.yul\":3263:3266   */\n      dup3\n        /* \"#utility.yul\":3256:3290   */\n      mstore\n        /* \"#utility.yul\":3187:3296   */\n      pop\n      pop\n      jump\t// out\n        /* \"#utility.yul\":3302:4085   */\n    tag_44:\n        /* \"#utility.yul\":3539:3543   */\n      0x00\n        /* \"#utility.yul\":3577:3580   */\n      0xc0\n        /* \"#utility.yul\":3566:3575   */\n      dup3\n        /* \"#utility.yul\":3562:3581   */\n      add\n        /* \"#utility.yul\":3554:3581   */\n      swap1\n      pop\n        /* \"#utility.yul\":3591:3662   */\n      tag_228\n        /* \"#utility.yul\":3659:3660   */\n      0x00\n        /* \"#utility.yul\":3648:3657   */\n      dup4\n        /* \"#utility.yul\":3644:3661   */\n      add\n        /* \"#utility.yul\":3635:3641   */\n      dup10\n        /* \"#utility.yul\":3591:3662   */\n      tag_153\n      jump\t// in\n    tag_228:\n        /* \"#utility.yul\":3672:3744   */\n      tag_229\n        /* \"#utility.yul\":3740:3742   */\n      0x20\n        /* \"#utility.yul\":3729:3738   */\n      dup4\n        /* \"#utility.yul\":3725:3743   */\n      add\n        /* \"#utility.yul\":3716:3722   */\n      dup9\n        /* \"#utility.yul\":3672:3744   */\n      tag_163\n      jump\t// in\n    tag_229:\n        /* \"#utility.yul\":3754:3836   */\n      tag_230\n        /* \"#utility.yul\":3832:3834   */\n      0x40\n        /* \"#utility.yul\":3821:3830   */\n      dup4\n        /* \"#utility.yul\":3817:3835   */\n      add\n        /* \"#utility.yul\":3808:3814   */\n      dup8\n        /* \"#utility.yul\":3754:3836   */\n      tag_167\n      jump\t// in\n    tag_230:\n        /* \"#utility.yul\":3846:3918   */\n      tag_231\n        /* \"#utility.yul\":3914:3916   */\n      0x60\n        /* \"#utility.yul\":3903:3912   */\n      dup4\n        /* \"#utility.yul\":3899:3917   */\n      add\n        /* \"#utility.yul\":3890:3896   */\n      dup7\n        /* \"#utility.yul\":3846:3918   */\n      tag_153\n      jump\t// in\n    tag_231:\n        /* \"#utility.yul\":3928:4001   */\n      tag_232\n        /* \"#utility.yul\":3996:3999   */\n      0x80\n        /* \"#utility.yul\":3985:3994   */\n      dup4\n        /* \"#utility.yul\":3981:4000   */\n      add\n        /* \"#utility.yul\":3972:3978   */\n      dup6\n        /* \"#utility.yul\":3928:4001   */\n      tag_153\n      jump\t// in\n    tag_232:\n        /* \"#utility.yul\":4011:4078   */\n      tag_233\n        /* \"#utility.yul\":4073:4076   */\n      0xa0\n        /* \"#utility.yul\":4062:4071   */\n      dup4\n        /* \"#utility.yul\":4058:4077   */\n      add\n        /* \"#utility.yul\":4049:4055   */\n      dup5\n        /* \"#utility.yul\":4011:4078   */\n      tag_169\n      jump\t// in\n    tag_233:\n        /* \"#utility.yul\":3302:4085   */\n      swap8\n      swap7\n      pop\n      pop\n      pop\n      pop\n      pop\n      pop\n      pop\n      jump\t// out\n        /* \"#utility.yul\":4091:4313   */\n    tag_57:\n        /* \"#utility.yul\":4184:4188   */\n      0x00\n        /* \"#utility.yul\":4222:4224   */\n      0x20\n        /* \"#utility.yul\":4211:4220   */\n      dup3\n        /* \"#utility.yul\":4207:4225   */\n      add\n        /* \"#utility.yul\":4199:4225   */\n      swap1\n      pop\n        /* \"#utility.yul\":4235:4306   */\n      tag_235\n        /* \"#utility.yul\":4303:4304   */\n      0x00\n        /* \"#utility.yul\":4292:4301   */\n      dup4\n        /* \"#utility.yul\":4288:4305   */\n      add\n        /* \"#utility.yul\":4279:4285   */\n      dup5\n        /* \"#utility.yul\":4235:4306   */\n      tag_163\n      jump\t// in\n    tag_235:\n        /* \"#utility.yul\":4091:4313   */\n      swap3\n      swap2\n      pop\n      pop\n      jump\t// out\n        /* \"#utility.yul\":4319:4793   */\n    tag_61:\n        /* \"#utility.yul\":4387:4393   */\n      0x00\n        /* \"#utility.yul\":4395:4401   */\n      dup1\n        /* \"#utility.yul\":4444:4446   */\n      0x40\n        /* \"#utility.yul\":4432:4441   */\n      dup4\n        /* \"#utility.yul\":4423:4430   */\n      dup6\n        /* \"#utility.yul\":4419:4442   */\n      sub\n        /* \"#utility.yul\":4415:4447   */\n      slt\n        /* \"#utility.yul\":4412:4531   */\n      iszero\n      tag_237\n      jumpi\n        /* \"#utility.yul\":4450:4529   */\n      tag_238\n      tag_155\n      jump\t// in\n    tag_238:\n        /* \"#utility.yul\":4412:4531   */\n    tag_237:\n        /* \"#utility.yul\":4570:4571   */\n      0x00\n        /* \"#utility.yul\":4595:4648   */\n      tag_239\n        /* \"#utility.yul\":4640:4647   */\n      dup6\n        /* \"#utility.yul\":4631:4637   */\n      dup3\n        /* \"#utility.yul\":4620:4629   */\n      dup7\n        /* \"#utility.yul\":4616:4638   */\n      add\n        /* \"#utility.yul\":4595:4648   */\n      tag_162\n      jump\t// in\n    tag_239:\n        /* \"#utility.yul\":4585:4648   */\n      swap3\n      pop\n        /* \"#utility.yul\":4541:4658   */\n      pop\n        /* \"#utility.yul\":4697:4699   */\n      0x20\n        /* \"#utility.yul\":4723:4776   */\n      tag_240\n        /* \"#utility.yul\":4768:4775   */\n      dup6\n        /* \"#utility.yul\":4759:4765   */\n      dup3\n        /* \"#utility.yul\":4748:4757   */\n      dup7\n        /* \"#utility.yul\":4744:4766   */\n      add\n        /* \"#utility.yul\":4723:4776   */\n      tag_162\n      jump\t// in\n    tag_240:\n        /* \"#utility.yul\":4713:4776   */\n      swap2\n      pop\n        /* \"#utility.yul\":4668:4786   */\n      pop\n        /* \"#utility.yul\":4319:4793   */\n      swap3\n      pop\n      swap3\n      swap1\n      pop\n      jump\t// out\n        /* \"#utility.yul\":4799:4968   */\n    tag_170:\n        /* \"#utility.yul\":4883:4894   */\n      0x00\n        /* \"#utility.yul\":4917:4923   */\n      dup3\n        /* \"#utility.yul\":4912:4915   */\n      dup3\n        /* \"#utility.yul\":4905:4924   */\n      mstore\n        /* \"#utility.yul\":4957:4961   */\n      0x20\n        /* \"#utility.yul\":4952:4955   */\n      dup3\n        /* \"#utility.yul\":4948:4962   */\n      add\n        /* \"#utility.yul\":4933:4962   */\n      swap1\n      pop\n        /* \"#utility.yul\":4799:4968   */\n      swap3\n      swap2\n      pop\n      pop\n      jump\t// out\n        /* \"#utility.yul\":4974:5144   */\n    tag_171:\n        /* \"#utility.yul\":5114:5136   */\n      0x496e73756666696369656e742062616c616e6365000000000000000000000000\n        /* \"#utility.yul\":5110:5111   */\n      0x00\n        /* \"#utility.yul\":5102:5108   */\n      dup3\n        /* \"#utility.yul\":5098:5112   */\n      add\n        /* \"#utility.yul\":5091:5137   */\n      mstore\n        /* \"#utility.yul\":4974:5144   */\n      pop\n      jump\t// out\n        /* \"#utility.yul\":5150:5516   */\n    tag_172:\n        /* \"#utility.yul\":5292:5295   */\n      0x00\n        /* \"#utility.yul\":5313:5380   */\n      tag_244\n        /* \"#utility.yul\":5377:5379   */\n      0x14\n        /* \"#utility.yul\":5372:5375   */\n      dup4\n        /* \"#utility.yul\":5313:5380   */\n      tag_170\n      jump\t// in\n    tag_244:\n        /* \"#utility.yul\":5306:5380   */\n      swap2\n      pop\n        /* \"#utility.yul\":5389:5482   */\n      tag_245\n        /* \"#utility.yul\":5478:5481   */\n      dup3\n        /* \"#utility.yul\":5389:5482   */\n      tag_171\n      jump\t// in\n    tag_245:\n        /* \"#utility.yul\":5507:5509   */\n      0x20\n        /* \"#utility.yul\":5502:5505   */\n      dup3\n        /* \"#utility.yul\":5498:5510   */\n      add\n        /* \"#utility.yul\":5491:5510   */\n      swap1\n      pop\n        /* \"#utility.yul\":5150:5516   */\n      swap2\n      swap1\n      pop\n      jump\t// out\n        /* \"#utility.yul\":5522:5941   */\n    tag_74:\n        /* \"#utility.yul\":5688:5692   */\n      0x00\n        /* \"#utility.yul\":5726:5728   */\n      0x20\n        /* \"#utility.yul\":5715:5724   */\n      dup3\n        /* \"#utility.yul\":5711:5729   */\n      add\n        /* \"#utility.yul\":5703:5729   */\n      swap1\n      pop\n        /* \"#utility.yul\":5775:5784   */\n      dup2\n        /* \"#utility.yul\":5769:5773   */\n      dup2\n        /* \"#utility.yul\":5765:5785   */\n      sub\n        /* \"#utility.yul\":5761:5762   */\n      0x00\n        /* \"#utility.yul\":5750:5759   */\n      dup4\n        /* \"#utility.yul\":5746:5763   */\n      add\n        /* \"#utility.yul\":5739:5786   */\n      mstore\n        /* \"#utility.yul\":5803:5934   */\n      tag_247\n        /* \"#utility.yul\":5929:5933   */\n      dup2\n        /* \"#utility.yul\":5803:5934   */\n      tag_172\n      jump\t// in\n    tag_247:\n        /* \"#utility.yul\":5795:5934   */\n      swap1\n      pop\n        /* \"#utility.yul\":5522:5941   */\n      swap2\n      swap1\n      pop\n      jump\t// out\n        /* \"#utility.yul\":5947:6127   */\n    tag_173:\n        /* \"#utility.yul\":5995:6072   */\n      0x4e487b7100000000000000000000000000000000000000000000000000000000\n        /* \"#utility.yul\":5992:5993   */\n      0x00\n        /* \"#utility.yul\":5985:6073   */\n      mstore\n        /* \"#utility.yul\":6092:6096   */\n      0x11\n        /* \"#utility.yul\":6089:6090   */\n      0x04\n        /* \"#utility.yul\":6082:6097   */\n      mstore\n        /* \"#utility.yul\":6116:6120   */\n      0x24\n        /* \"#utility.yul\":6113:6114   */\n      0x00\n        /* \"#utility.yul\":6106:6121   */\n      revert\n        /* \"#utility.yul\":6133:6327   */\n    tag_76:\n        /* \"#utility.yul\":6173:6177   */\n      0x00\n        /* \"#utility.yul\":6193:6213   */\n      tag_250\n        /* \"#utility.yul\":6211:6212   */\n      dup3\n        /* \"#utility.yul\":6193:6213   */\n      tag_152\n      jump\t// in\n    tag_250:\n        /* \"#utility.yul\":6188:6213   */\n      swap2\n      pop\n        /* \"#utility.yul\":6227:6247   */\n      tag_251\n        /* \"#utility.yul\":6245:6246   */\n      dup4\n        /* \"#utility.yul\":6227:6247   */\n      tag_152\n      jump\t// in\n    tag_251:\n        /* \"#utility.yul\":6222:6247   */\n      swap3\n      pop\n        /* \"#utility.yul\":6271:6272   */\n      dup3\n        /* \"#utility.yul\":6268:6269   */\n      dup3\n        /* \"#utility.yul\":6264:6273   */\n      sub\n        /* \"#utility.yul\":6256:6273   */\n      swap1\n      pop\n        /* \"#utility.yul\":6295:6296   */\n      dup2\n        /* \"#utility.yul\":6289:6293   */\n      dup2\n        /* \"#utility.yul\":6286:6297   */\n      gt\n        /* \"#utility.yul\":6283:6320   */\n      iszero\n      tag_252\n      jumpi\n        /* \"#utility.yul\":6300:6318   */\n      tag_253\n      tag_173\n      jump\t// in\n    tag_253:\n        /* \"#utility.yul\":6283:6320   */\n    tag_252:\n        /* \"#utility.yul\":6133:6327   */\n      swap3\n      swap2\n      pop\n      pop\n      jump\t// out\n        /* \"#utility.yul\":6333:6501   */\n    tag_174:\n        /* \"#utility.yul\":6473:6493   */\n      0x4e6f7420636f6e7472616374206f776e65720000000000000000000000000000\n        /* \"#utility.yul\":6469:6470   */\n      0x00\n        /* \"#utility.yul\":6461:6467   */\n      dup3\n        /* \"#utility.yul\":6457:6471   */\n      add\n        /* \"#utility.yul\":6450:6494   */\n      mstore\n        /* \"#utility.yul\":6333:6501   */\n      pop\n      jump\t// out\n        /* \"#utility.yul\":6507:6873   */\n    tag_175:\n        /* \"#utility.yul\":6649:6652   */\n      0x00\n        /* \"#utility.yul\":6670:6737   */\n      tag_256\n        /* \"#utility.yul\":6734:6736   */\n      0x12\n        /* \"#utility.yul\":6729:6732   */\n      dup4\n        /* \"#utility.yul\":6670:6737   */\n      tag_170\n      jump\t// in\n    tag_256:\n        /* \"#utility.yul\":6663:6737   */\n      swap2\n      pop\n        /* \"#utility.yul\":6746:6839   */\n      tag_257\n        /* \"#utility.yul\":6835:6838   */\n      dup3\n        /* \"#utility.yul\":6746:6839   */\n      tag_174\n      jump\t// in\n    tag_257:\n        /* \"#utility.yul\":6864:6866   */\n      0x20\n        /* \"#utility.yul\":6859:6862   */\n      dup3\n        /* \"#utility.yul\":6855:6867   */\n      add\n        /* \"#utility.yul\":6848:6867   */\n      swap1\n      pop\n        /* \"#utility.yul\":6507:6873   */\n      swap2\n      swap1\n      pop\n      jump\t// out\n        /* \"#utility.yul\":6879:7298   */\n    tag_87:\n        /* \"#utility.yul\":7045:7049   */\n      0x00\n        /* \"#utility.yul\":7083:7085   */\n      0x20\n        /* \"#utility.yul\":7072:7081   */\n      dup3\n        /* \"#utility.yul\":7068:7086   */\n      add\n        /* \"#utility.yul\":7060:7086   */\n      swap1\n      pop\n        /* \"#utility.yul\":7132:7141   */\n      dup2\n        /* \"#utility.yul\":7126:7130   */\n      dup2\n        /* \"#utility.yul\":7122:7142   */\n      sub\n        /* \"#utility.yul\":7118:7119   */\n      0x00\n        /* \"#utility.yul\":7107:7116   */\n      dup4\n        /* \"#utility.yul\":7103:7120   */\n      add\n        /* \"#utility.yul\":7096:7143   */\n      mstore\n        /* \"#utility.yul\":7160:7291   */\n      tag_259\n        /* \"#utility.yul\":7286:7290   */\n      dup2\n        /* \"#utility.yul\":7160:7291   */\n      tag_175\n      jump\t// in\n    tag_259:\n        /* \"#utility.yul\":7152:7291   */\n      swap1\n      pop\n        /* \"#utility.yul\":6879:7298   */\n      swap2\n      swap1\n      pop\n      jump\t// out\n        /* \"#utility.yul\":7304:7484   */\n    tag_94:\n        /* \"#utility.yul\":7352:7429   */\n      0x4e487b7100000000000000000000000000000000000000000000000000000000\n        /* \"#utility.yul\":7349:7350   */\n      0x00\n        /* \"#utility.yul\":7342:7430   */\n      mstore\n        /* \"#utility.yul\":7449:7453   */\n      0x32\n        /* \"#utility.yul\":7446:7447   */\n      0x04\n        /* \"#utility.yul\":7439:7454   */\n      mstore\n        /* \"#utility.yul\":7473:7477   */\n      0x24\n        /* \"#utility.yul\":7470:7471   */\n      0x00\n        /* \"#utility.yul\":7463:7478   */\n      revert\n        /* \"#utility.yul\":7490:7900   */\n    tag_112:\n        /* \"#utility.yul\":7530:7537   */\n      0x00\n        /* \"#utility.yul\":7553:7573   */\n      tag_262\n        /* \"#utility.yul\":7571:7572   */\n      dup3\n        /* \"#utility.yul\":7553:7573   */\n      tag_152\n      jump\t// in\n    tag_262:\n        /* \"#utility.yul\":7548:7573   */\n      swap2\n      pop\n        /* \"#utility.yul\":7587:7607   */\n      tag_263\n        /* \"#utility.yul\":7605:7606   */\n      dup4\n        /* \"#utility.yul\":7587:7607   */\n      tag_152\n      jump\t// in\n    tag_263:\n        /* \"#utility.yul\":7582:7607   */\n      swap3\n      pop\n        /* \"#utility.yul\":7642:7643   */\n      dup3\n        /* \"#utility.yul\":7639:7640   */\n      dup3\n        /* \"#utility.yul\":7635:7644   */\n      mul\n        /* \"#utility.yul\":7664:7694   */\n      tag_264\n        /* \"#utility.yul\":7682:7693   */\n      dup2\n        /* \"#utility.yul\":7664:7694   */\n      tag_152\n      jump\t// in\n    tag_264:\n        /* \"#utility.yul\":7653:7694   */\n      swap2\n      pop\n        /* \"#utility.yul\":7843:7844   */\n      dup3\n        /* \"#utility.yul\":7834:7841   */\n      dup3\n        /* \"#utility.yul\":7830:7845   */\n      div\n        /* \"#utility.yul\":7827:7828   */\n      dup5\n        /* \"#utility.yul\":7824:7846   */\n      eq\n        /* \"#utility.yul\":7804:7805   */\n      dup4\n        /* \"#utility.yul\":7797:7806   */\n      iszero\n        /* \"#utility.yul\":7777:7860   */\n      or\n        /* \"#utility.yul\":7754:7893   */\n      tag_265\n      jumpi\n        /* \"#utility.yul\":7873:7891   */\n      tag_266\n      tag_173\n      jump\t// in\n    tag_266:\n        /* \"#utility.yul\":7754:7893   */\n    tag_265:\n        /* \"#utility.yul\":7538:7900   */\n      pop\n        /* \"#utility.yul\":7490:7900   */\n      swap3\n      swap2\n      pop\n      pop\n      jump\t// out\n        /* \"#utility.yul\":7906:8087   */\n    tag_176:\n        /* \"#utility.yul\":8046:8079   */\n      0x496e73756666696369656e742066756e647320647572696e67206d6174636800\n        /* \"#utility.yul\":8042:8043   */\n      0x00\n        /* \"#utility.yul\":8034:8040   */\n      dup3\n        /* \"#utility.yul\":8030:8044   */\n      add\n        /* \"#utility.yul\":8023:8080   */\n      mstore\n        /* \"#utility.yul\":7906:8087   */\n      pop\n      jump\t// out\n        /* \"#utility.yul\":8093:8459   */\n    tag_177:\n        /* \"#utility.yul\":8235:8238   */\n      0x00\n        /* \"#utility.yul\":8256:8323   */\n      tag_269\n        /* \"#utility.yul\":8320:8322   */\n      0x1f\n        /* \"#utility.yul\":8315:8318   */\n      dup4\n        /* \"#utility.yul\":8256:8323   */\n      tag_170\n      jump\t// in\n    tag_269:\n        /* \"#utility.yul\":8249:8323   */\n      swap2\n      pop\n        /* \"#utility.yul\":8332:8425   */\n      tag_270\n        /* \"#utility.yul\":8421:8424   */\n      dup3\n        /* \"#utility.yul\":8332:8425   */\n      tag_176\n      jump\t// in\n    tag_270:\n        /* \"#utility.yul\":8450:8452   */\n      0x20\n        /* \"#utility.yul\":8445:8448   */\n      dup3\n        /* \"#utility.yul\":8441:8453   */\n      add\n        /* \"#utility.yul\":8434:8453   */\n      swap1\n      pop\n        /* \"#utility.yul\":8093:8459   */\n      swap2\n      swap1\n      pop\n      jump\t// out\n        /* \"#utility.yul\":8465:8884   */\n    tag_115:\n        /* \"#utility.yul\":8631:8635   */\n      0x00\n        /* \"#utility.yul\":8669:8671   */\n      0x20\n        /* \"#utility.yul\":8658:8667   */\n      dup3\n        /* \"#utility.yul\":8654:8672   */\n      add\n        /* \"#utility.yul\":8646:8672   */\n      swap1\n      pop\n        /* \"#utility.yul\":8718:8727   */\n      dup2\n        /* \"#utility.yul\":8712:8716   */\n      dup2\n        /* \"#utility.yul\":8708:8728   */\n      sub\n        /* \"#utility.yul\":8704:8705   */\n      0x00\n        /* \"#utility.yul\":8693:8702   */\n      dup4\n        /* \"#utility.yul\":8689:8706   */\n      add\n        /* \"#utility.yul\":8682:8729   */\n      mstore\n        /* \"#utility.yul\":8746:8877   */\n      tag_272\n        /* \"#utility.yul\":8872:8876   */\n      dup2\n        /* \"#utility.yul\":8746:8877   */\n      tag_177\n      jump\t// in\n    tag_272:\n        /* \"#utility.yul\":8738:8877   */\n      swap1\n      pop\n        /* \"#utility.yul\":8465:8884   */\n      swap2\n      swap1\n      pop\n      jump\t// out\n        /* \"#utility.yul\":8890:9081   */\n    tag_118:\n        /* \"#utility.yul\":8930:8933   */\n      0x00\n        /* \"#utility.yul\":8949:8969   */\n      tag_274\n        /* \"#utility.yul\":8967:8968   */\n      dup3\n        /* \"#utility.yul\":8949:8969   */\n      tag_152\n      jump\t// in\n    tag_274:\n        /* \"#utility.yul\":8944:8969   */\n      swap2\n      pop\n        /* \"#utility.yul\":8983:9003   */\n      tag_275\n        /* \"#utility.yul\":9001:9002   */\n      dup4\n        /* \"#utility.yul\":8983:9003   */\n      tag_152\n      jump\t// in\n    tag_275:\n        /* \"#utility.yul\":8978:9003   */\n      swap3\n      pop\n        /* \"#utility.yul\":9026:9027   */\n      dup3\n        /* \"#utility.yul\":9023:9024   */\n      dup3\n        /* \"#utility.yul\":9019:9028   */\n      add\n        /* \"#utility.yul\":9012:9028   */\n      swap1\n      pop\n        /* \"#utility.yul\":9047:9050   */\n      dup1\n        /* \"#utility.yul\":9044:9045   */\n      dup3\n        /* \"#utility.yul\":9041:9051   */\n      gt\n        /* \"#utility.yul\":9038:9074   */\n      iszero\n      tag_276\n      jumpi\n        /* \"#utility.yul\":9054:9072   */\n      tag_277\n      tag_173\n      jump\t// in\n    tag_277:\n        /* \"#utility.yul\":9038:9074   */\n    tag_276:\n        /* \"#utility.yul\":8890:9081   */\n      swap3\n      swap2\n      pop\n      pop\n      jump\t// out\n        /* \"#utility.yul\":9087:9419   */\n    tag_120:\n        /* \"#utility.yul\":9208:9212   */\n      0x00\n        /* \"#utility.yul\":9246:9248   */\n      0x40\n        /* \"#utility.yul\":9235:9244   */\n      dup3\n        /* \"#utility.yul\":9231:9249   */\n      add\n        /* \"#utility.yul\":9223:9249   */\n      swap1\n      pop\n        /* \"#utility.yul\":9259:9330   */\n      tag_279\n        /* \"#utility.yul\":9327:9328   */\n      0x00\n        /* \"#utility.yul\":9316:9325   */\n      dup4\n        /* \"#utility.yul\":9312:9329   */\n      add\n        /* \"#utility.yul\":9303:9309   */\n      dup6\n        /* \"#utility.yul\":9259:9330   */\n      tag_153\n      jump\t// in\n    tag_279:\n        /* \"#utility.yul\":9340:9412   */\n      tag_280\n        /* \"#utility.yul\":9408:9410   */\n      0x20\n        /* \"#utility.yul\":9397:9406   */\n      dup4\n        /* \"#utility.yul\":9393:9411   */\n      add\n        /* \"#utility.yul\":9384:9390   */\n      dup5\n        /* \"#utility.yul\":9340:9412   */\n      tag_153\n      jump\t// in\n    tag_280:\n        /* \"#utility.yul\":9087:9419   */\n      swap4\n      swap3\n      pop\n      pop\n      pop\n      jump\t// out\n        /* \"#utility.yul\":9425:9658   */\n    tag_122:\n        /* \"#utility.yul\":9464:9467   */\n      0x00\n        /* \"#utility.yul\":9487:9511   */\n      tag_282\n        /* \"#utility.yul\":9505:9510   */\n      dup3\n        /* \"#utility.yul\":9487:9511   */\n      tag_152\n      jump\t// in\n    tag_282:\n        /* \"#utility.yul\":9478:9511   */\n      swap2\n      pop\n        /* \"#utility.yul\":9533:9599   */\n      0xffffffffffffffffffffffffffffffffffffffffffffffffffffffffffffffff\n        /* \"#utility.yul\":9526:9531   */\n      dup3\n        /* \"#utility.yul\":9523:9600   */\n      sub\n        /* \"#utility.yul\":9520:9623   */\n      tag_283\n      jumpi\n        /* \"#utility.yul\":9603:9621   */\n      tag_284\n      tag_173\n      jump\t// in\n    tag_284:\n        /* \"#utility.yul\":9520:9623   */\n    tag_283:\n        /* \"#utility.yul\":9650:9651   */\n      0x01\n        /* \"#utility.yul\":9643:9648   */\n      dup3\n        /* \"#utility.yul\":9639:9652   */\n      add\n        /* \"#utility.yul\":9632:9652   */\n      swap1\n      pop\n        /* \"#utility.yul\":9425:9658   */\n      swap2\n      swap1\n      pop\n      jump\t// out\n        /* \"#utility.yul\":9664:10126   */\n    tag_132:\n        /* \"#utility.yul\":9823:9827   */\n      0x00\n        /* \"#utility.yul\":9861:9863   */\n      0x60\n        /* \"#utility.yul\":9850:9859   */\n      dup3\n        /* \"#utility.yul\":9846:9864   */\n      add\n        /* \"#utility.yul\":9838:9864   */\n      swap1\n      pop\n        /* \"#utility.yul\":9874:9955   */\n      tag_286\n        /* \"#utility.yul\":9952:9953   */\n      0x00\n        /* \"#utility.yul\":9941:9950   */\n      dup4\n        /* \"#utility.yul\":9937:9954   */\n      add\n        /* \"#utility.yul\":9928:9934   */\n      dup7\n        /* \"#utility.yul\":9874:9955   */\n      tag_167\n      jump\t// in\n    tag_286:\n        /* \"#utility.yul\":9965:10037   */\n      tag_287\n        /* \"#utility.yul\":10033:10035   */\n      0x20\n        /* \"#utility.yul\":10022:10031   */\n      dup4\n        /* \"#utility.yul\":10018:10036   */\n      add\n        /* \"#utility.yul\":10009:10015   */\n      dup6\n        /* \"#utility.yul\":9965:10037   */\n      tag_153\n      jump\t// in\n    tag_287:\n        /* \"#utility.yul\":10047:10119   */\n      tag_288\n        /* \"#utility.yul\":10115:10117   */\n      0x40\n        /* \"#utility.yul\":10104:10113   */\n      dup4\n        /* \"#utility.yul\":10100:10118   */\n      add\n        /* \"#utility.yul\":10091:10097   */\n      dup5\n        /* \"#utility.yul\":10047:10119   */\n      tag_153\n      jump\t// in\n    tag_288:\n        /* \"#utility.yul\":9664:10126   */\n      swap5\n      swap4\n      pop\n      pop\n      pop\n      pop\n      jump\t// out\n        /* \"#utility.yul\":10132:10301   */\n    tag_178:\n        /* \"#utility.yul\":10272:10293   */\n      0x4465706f736974206d757374206265203e203000000000000000000000000000\n        /* \"#utility.yul\":10268:10269   */\n      0x00\n        /* \"#utility.yul\":10260:10266   */\n      dup3\n        /* \"#utility.yul\":10256:10270   */\n      add\n        /* \"#utility.yul\":10249:10294   */\n      mstore\n        /* \"#utility.yul\":10132:10301   */\n      pop\n      jump\t// out\n        /* \"#utility.yul\":10307:10673   */\n    tag_179:\n        /* \"#utility.yul\":10449:10452   */\n      0x00\n        /* \"#utility.yul\":10470:10537   */\n      tag_291\n        /* \"#utility.yul\":10534:10536   */\n      0x13\n        /* \"#utility.yul\":10529:10532   */\n      dup4\n        /* \"#utility.yul\":10470:10537   */\n      tag_170\n      jump\t// in\n    tag_291:\n        /* \"#utility.yul\":10463:10537   */\n      swap2\n      pop\n        /* \"#utility.yul\":10546:10639   */\n      tag_292\n        /* \"#utility.yul\":10635:10638   */\n      dup3\n        /* \"#utility.yul\":10546:10639   */\n      tag_178\n      jump\t// in\n    tag_292:\n        /* \"#utility.yul\":10664:10666   */\n      0x20\n        /* \"#utility.yul\":10659:10662   */\n      dup3\n        /* \"#utility.yul\":10655:10667   */\n      add\n        /* \"#utility.yul\":10648:10667   */\n      swap1\n      pop\n        /* \"#utility.yul\":10307:10673   */\n      swap2\n      swap1\n      pop\n      jump\t// out\n        /* \"#utility.yul\":10679:11098   */\n    tag_137:\n        /* \"#utility.yul\":10845:10849   */\n      0x00\n        /* \"#utility.yul\":10883:10885   */\n      0x20\n        /* \"#utility.yul\":10872:10881   */\n      dup3\n        /* \"#utility.yul\":10868:10886   */\n      add\n        /* \"#utility.yul\":10860:10886   */\n      swap1\n      pop\n        /* \"#utility.yul\":10932:10941   */\n      dup2\n        /* \"#utility.yul\":10926:10930   */\n      dup2\n        /* \"#utility.yul\":10922:10942   */\n      sub\n        /* \"#utility.yul\":10918:10919   */\n      0x00\n        /* \"#utility.yul\":10907:10916   */\n      dup4\n        /* \"#utility.yul\":10903:10920   */\n      add\n        /* \"#utility.yul\":10896:10943   */\n      mstore\n        /* \"#utility.yul\":10960:11091   */\n      tag_294\n        /* \"#utility.yul\":11086:11090   */\n      dup2\n        /* \"#utility.yul\":10960:11091   */\n      tag_179\n      jump\t// in\n    tag_294:\n        /* \"#utility.yul\":10952:11091   */\n      swap1\n      pop\n        /* \"#utility.yul\":10679:11098   */\n      swap2\n      swap1\n      pop\n      jump\t// out\n        /* \"#utility.yul\":11104:11325   */\n    tag_180:\n        /* \"#utility.yul\":11244:11278   */\n      0x496e73756666696369656e742062616c616e636520666f7220627579206f7264\n        /* \"#utility.yul\":11240:11241   */\n      0x00\n        /* \"#utility.yul\":11232:11238   */\n      dup3\n        /* \"#utility.yul\":11228:11242   */\n      add\n        /* \"#utility.yul\":11221:11279   */\n      mstore\n        /* \"#utility.yul\":11313:11317   */\n      0x6572000000000000000000000000000000000000000000000000000000000000\n        /* \"#utility.yul\":11308:11310   */\n      0x20\n        /* \"#utility.yul\":11300:11306   */\n      dup3\n        /* \"#utility.yul\":11296:11311   */\n      add\n        /* \"#utility.yul\":11289:11318   */\n      mstore\n        /* \"#utility.yul\":11104:11325   */\n      pop\n      jump\t// out\n        /* \"#utility.yul\":11331:11697   */\n    tag_181:\n        /* \"#utility.yul\":11473:11476   */\n      0x00\n        /* \"#utility.yul\":11494:11561   */\n      tag_297\n        /* \"#utility.yul\":11558:11560   */\n      0x22\n        /* \"#utility.yul\":11553:11556   */\n      dup4\n        /* \"#utility.yul\":11494:11561   */\n      tag_170\n      jump\t// in\n    tag_297:\n        /* \"#utility.yul\":11487:11561   */\n      swap2\n      pop\n        /* \"#utility.yul\":11570:11663   */\n      tag_298\n        /* \"#utility.yul\":11659:11662   */\n      dup3\n        /* \"#utility.yul\":11570:11663   */\n      tag_180\n      jump\t// in\n    tag_298:\n        /* \"#utility.yul\":11688:11690   */\n      0x40\n        /* \"#utility.yul\":11683:11686   */\n      dup3\n        /* \"#utility.yul\":11679:11691   */\n      add\n        /* \"#utility.yul\":11672:11691   */\n      swap1\n      pop\n        /* \"#utility.yul\":11331:11697   */\n      swap2\n      swap1\n      pop\n      jump\t// out\n        /* \"#utility.yul\":11703:12122   */\n    tag_144:\n        /* \"#utility.yul\":11869:11873   */\n      0x00\n        /* \"#utility.yul\":11907:11909   */\n      0x20\n        /* \"#utility.yul\":11896:11905   */\n      dup3\n        /* \"#utility.yul\":11892:11910   */\n      add\n        /* \"#utility.yul\":11884:11910   */\n      swap1\n      pop\n        /* \"#utility.yul\":11956:11965   */\n      dup2\n        /* \"#utility.yul\":11950:11954   */\n      dup2\n        /* \"#utility.yul\":11946:11966   */\n      sub\n        /* \"#utility.yul\":11942:11943   */\n      0x00\n        /* \"#utility.yul\":11931:11940   */\n      dup4\n        /* \"#utility.yul\":11927:11944   */\n      add\n        /* \"#utility.yul\":11920:11967   */\n      mstore\n        /* \"#utility.yul\":11984:12115   */\n      tag_300\n        /* \"#utility.yul\":12110:12114   */\n      dup2\n        /* \"#utility.yul\":11984:12115   */\n      tag_181\n      jump\t// in\n    tag_300:\n        /* \"#utility.yul\":11976:12115   */\n      swap1\n      pop\n        /* \"#utility.yul\":11703:12122   */\n      swap2\n      swap1\n      pop\n      jump\t// out\n\n    auxdata: 0xa26469706673582212202c0730cb7dd2076c45c1737ba31b64fb54471d38b8423e7de0962d909a17b99564736f6c63430008140033\n}\n",
				"bytecode": {
					"linkReferences": {},
					"object": "608060405234801561000f575f80fd5b50335f806101000a81548173ffffffffffffffffffffffffffffffffffffffff021916908373ffffffffffffffffffffffffffffffffffffffff1602179055505f60048190555061149b806100635f395ff3fe6080604052600436106100a6575f3560e01c80634a8393f3116100635780634a8393f3146101cd5780637ee685461461020e5780638da5cb5b14610224578063a4406bcd1461024e578063d0e30db014610276578063ee36d4ab14610280576100a6565b806324aaf97f146100aa57806327e235e3146100d457806329ce16bb146101105780632a58b3301461013a5780632e1a7d4d1461016457806335cea2881461018c575b5f80fd5b3480156100b5575f80fd5b506100be6102a8565b6040516100cb9190610e3a565b60405180910390f35b3480156100df575f80fd5b506100fa60048036038101906100f59190610eb1565b6102b4565b6040516101079190610e3a565b60405180910390f35b34801561011b575f80fd5b506101246102c9565b6040516101319190610e3a565b60405180910390f35b348015610145575f80fd5b5061014e6102d5565b60405161015b9190610e3a565b60405180910390f35b34801561016f575f80fd5b5061018a60048036038101906101859190610f06565b6102db565b005b348015610197575f80fd5b506101b260048036038101906101ad9190610f06565b610443565b6040516101c496959493929190610fcd565b60405180910390f35b3480156101d8575f80fd5b506101f360048036038101906101ee9190610f06565b6104c2565b60405161020596959493929190610fcd565b60405180910390f35b348015610219575f80fd5b50610222610541565b005b34801561022f575f80fd5b50610238610937565b604051610245919061102c565b60405180910390f35b348015610259575f80fd5b50610274600480360381019061026f9190611045565b61095a565b005b61027e610b04565b005b34801561028b575f80fd5b506102a660048036038101906102a19190611045565b610be9565b005b5f600380549050905090565b6001602052805f5260405f205f915090505481565b5f600280549050905090565b60045481565b8060015f3373ffffffffffffffffffffffffffffffffffffffff1673ffffffffffffffffffffffffffffffffffffffff1681526020019081526020015f2054101561035b576040517f08c379a0000000000000000000000000000000000000000000000000000000008152600401610352906110dd565b60405180910390fd5b8060015f3373ffffffffffffffffffffffffffffffffffffffff1673ffffffffffffffffffffffffffffffffffffffff1681526020019081526020015f205f8282546103a79190611128565b925050819055503373ffffffffffffffffffffffffffffffffffffffff166108fc8290811502906040515f60405180830381858888f193505050501580156103f1573d5f803e3d5ffd5b503373ffffffffffffffffffffffffffffffffffffffff167f7fcf532c15f0a6db0bd6d0e038bea71d30d808c7d98cb3bf7268a95bf5081b65826040516104389190610e3a565b60405180910390a250565b60028181548110610452575f80fd5b905f5260205f2090600502015f91509050805f015490806001015f9054906101000a900473ffffffffffffffffffffffffffffffffffffffff16908060010160149054906101000a900460ff1690806002015490806003015490806004015f9054906101000a900460ff16905086565b600381815481106104d1575f80fd5b905f5260205f2090600502015f91509050805f015490806001015f9054906101000a900473ffffffffffffffffffffffffffffffffffffffff16908060010160149054906101000a900460ff1690806002015490806003015490806004015f9054906101000a900460ff16905086565b5f8054906101000a900473ffffffffffffffffffffffffffffffffffffffff1673ffffffffffffffffffffffffffffffffffffffff163373ffffffffffffffffffffffffffffffffffffffff16146105ce576040517f08c379a00000000000000000000000000000000000000000000000000000000081526004016105c5906111a5565b60405180910390fd5b5f5b600280549050811015610934575f600282815481106105f2576105f16111c3565b5b905f5260205f2090600502019050806004015f9054906101000a900460ff161561061c5750610921565b5f5b60038054905081101561091e575f600382815481106106405761063f6111c3565b5b905f5260205f2090600502019050806004015f9054906101000a900460ff161561066a575061090b565b8060020154836002015410610909575f8160030154846003015410610693578160030154610699565b83600301545b905080846003015f8282546106ae9190611128565b9250508190555080826003015f8282546106c89190611128565b925050819055505f8460030154036106f7576001846004015f6101000a81548160ff0219169083151502179055505b5f82600301540361071f576001826004015f6101000a81548160ff0219169083151502179055505b5f81836002015461073091906111f0565b90508060015f876001015f9054906101000a900473ffffffffffffffffffffffffffffffffffffffff1673ffffffffffffffffffffffffffffffffffffffff1673ffffffffffffffffffffffffffffffffffffffff1681526020019081526020015f205410156107d5576040517f08c379a00000000000000000000000000000000000000000000000000000000081526004016107cc9061127b565b60405180910390fd5b8060015f876001015f9054906101000a900473ffffffffffffffffffffffffffffffffffffffff1673ffffffffffffffffffffffffffffffffffffffff1673ffffffffffffffffffffffffffffffffffffffff1681526020019081526020015f205f8282546108449190611128565b925050819055508060015f856001015f9054906101000a900473ffffffffffffffffffffffffffffffffffffffff1673ffffffffffffffffffffffffffffffffffffffff1673ffffffffffffffffffffffffffffffffffffffff1681526020019081526020015f205f8282546108ba9190611299565b92505081905550825f0154855f01547f82877c5945532f956e6718f78f5606b7b5d8efef5e22121a3d9bf4e708873edd8560020154856040516108fe9291906112cc565b60405180910390a350505b505b8080610916906112f3565b91505061061e565b50505b808061092c906112f3565b9150506105d0565b50565b5f8054906101000a900473ffffffffffffffffffffffffffffffffffffffff1681565b5f6040518060c0016040528060045481526020013373ffffffffffffffffffffffffffffffffffffffff16815260200160018081111561099d5761099c610f40565b5b81526020018481526020018381526020015f15158152509050600381908060018154018082558091505060019003905f5260205f2090600502015f909190919091505f820151815f01556020820151816001015f6101000a81548173ffffffffffffffffffffffffffffffffffffffff021916908373ffffffffffffffffffffffffffffffffffffffff16021790555060408201518160010160146101000a81548160ff02191690836001811115610a5857610a57610f40565b5b0217905550606082015181600201556080820151816003015560a0820151816004015f6101000a81548160ff02191690831515021790555050503373ffffffffffffffffffffffffffffffffffffffff166004547f28ee76b520925c614b94784e5bd4b8d8ad21fd9930aea487e678e1e5a5f4051360018686604051610ae09392919061133a565b60405180910390a360045f815480929190610afa906112f3565b9190505550505050565b5f3411610b46576040517f08c379a0000000000000000000000000000000000000000000000000000000008152600401610b3d906113b9565b60405180910390fd5b3460015f3373ffffffffffffffffffffffffffffffffffffffff1673ffffffffffffffffffffffffffffffffffffffff1681526020019081526020015f205f828254610b929190611299565b925050819055503373ffffffffffffffffffffffffffffffffffffffff167fe1fffcc4923d04b559f4d29a8bfc6cda04eb5b0d3c460751c2402c5c5cc9109c34604051610bdf9190610e3a565b60405180910390a2565b5f8183610bf691906111f0565b90508060015f3373ffffffffffffffffffffffffffffffffffffffff1673ffffffffffffffffffffffffffffffffffffffff1681526020019081526020015f20541015610c78576040517f08c379a0000000000000000000000000000000000000000000000000000000008152600401610c6f90611447565b60405180910390fd5b5f6040518060c0016040528060045481526020013373ffffffffffffffffffffffffffffffffffffffff1681526020015f6001811115610cbb57610cba610f40565b5b81526020018581526020018481526020015f15158152509050600281908060018154018082558091505060019003905f5260205f2090600502015f909190919091505f820151815f01556020820151816001015f6101000a81548173ffffffffffffffffffffffffffffffffffffffff021916908373ffffffffffffffffffffffffffffffffffffffff16021790555060408201518160010160146101000a81548160ff02191690836001811115610d7657610d75610f40565b5b0217905550606082015181600201556080820151816003015560a0820151816004015f6101000a81548160ff02191690831515021790555050503373ffffffffffffffffffffffffffffffffffffffff166004547f28ee76b520925c614b94784e5bd4b8d8ad21fd9930aea487e678e1e5a5f405135f8787604051610dfd9392919061133a565b60405180910390a360045f815480929190610e17906112f3565b919050555050505050565b5f819050919050565b610e3481610e22565b82525050565b5f602082019050610e4d5f830184610e2b565b92915050565b5f80fd5b5f73ffffffffffffffffffffffffffffffffffffffff82169050919050565b5f610e8082610e57565b9050919050565b610e9081610e76565b8114610e9a575f80fd5b50565b5f81359050610eab81610e87565b92915050565b5f60208284031215610ec657610ec5610e53565b5b5f610ed384828501610e9d565b91505092915050565b610ee581610e22565b8114610eef575f80fd5b50565b5f81359050610f0081610edc565b92915050565b5f60208284031215610f1b57610f1a610e53565b5b5f610f2884828501610ef2565b91505092915050565b610f3a81610e76565b82525050565b7f4e487b71000000000000000000000000000000000000000000000000000000005f52602160045260245ffd5b60028110610f7e57610f7d610f40565b5b50565b5f819050610f8e82610f6d565b919050565b5f610f9d82610f81565b9050919050565b610fad81610f93565b82525050565b5f8115159050919050565b610fc781610fb3565b82525050565b5f60c082019050610fe05f830189610e2b565b610fed6020830188610f31565b610ffa6040830187610fa4565b6110076060830186610e2b565b6110146080830185610e2b565b61102160a0830184610fbe565b979650505050505050565b5f60208201905061103f5f830184610f31565b92915050565b5f806040838503121561105b5761105a610e53565b5b5f61106885828601610ef2565b925050602061107985828601610ef2565b9150509250929050565b5f82825260208201905092915050565b7f496e73756666696369656e742062616c616e63650000000000000000000000005f82015250565b5f6110c7601483611083565b91506110d282611093565b602082019050919050565b5f6020820190508181035f8301526110f4816110bb565b9050919050565b7f4e487b71000000000000000000000000000000000000000000000000000000005f52601160045260245ffd5b5f61113282610e22565b915061113d83610e22565b9250828203905081811115611155576111546110fb565b5b92915050565b7f4e6f7420636f6e7472616374206f776e657200000000000000000000000000005f82015250565b5f61118f601283611083565b915061119a8261115b565b602082019050919050565b5f6020820190508181035f8301526111bc81611183565b9050919050565b7f4e487b71000000000000000000000000000000000000000000000000000000005f52603260045260245ffd5b5f6111fa82610e22565b915061120583610e22565b925082820261121381610e22565b9150828204841483151761122a576112296110fb565b5b5092915050565b7f496e73756666696369656e742066756e647320647572696e67206d61746368005f82015250565b5f611265601f83611083565b915061127082611231565b602082019050919050565b5f6020820190508181035f83015261129281611259565b9050919050565b5f6112a382610e22565b91506112ae83610e22565b92508282019050808211156112c6576112c56110fb565b5b92915050565b5f6040820190506112df5f830185610e2b565b6112ec6020830184610e2b565b9392505050565b5f6112fd82610e22565b91507fffffffffffffffffffffffffffffffffffffffffffffffffffffffffffffffff820361132f5761132e6110fb565b5b600182019050919050565b5f60608201905061134d5f830186610fa4565b61135a6020830185610e2b565b6113676040830184610e2b565b949350505050565b7f4465706f736974206d757374206265203e2030000000000000000000000000005f82015250565b5f6113a3601383611083565b91506113ae8261136f565b602082019050919050565b5f6020820190508181035f8301526113d081611397565b9050919050565b7f496e73756666696369656e742062616c616e636520666f7220627579206f72645f8201527f6572000000000000000000000000000000000000000000000000000000000000602082015250565b5f611431602283611083565b915061143c826113d7565b604082019050919050565b5f6020820190508181035f83015261145e81611425565b905091905056fea26469706673582212202c0730cb7dd2076c45c1737ba31b64fb54471d38b8423e7de0962d909a17b99564736f6c63430008140033",
					"opcodes": "PUSH1 0x80 PUSH1 0x40 MSTORE CALLVALUE DUP1 ISZERO PUSH2 0xF JUMPI PUSH0 DUP1 REVERT JUMPDEST POP CALLER PUSH0 DUP1 PUSH2 0x100 EXP DUP2 SLOAD DUP2 PUSH20 0xFFFFFFFFFFFFFFFFFFFFFFFFFFFFFFFFFFFFFFFF MUL NOT AND SWAP1 DUP4 PUSH20 0xFFFFFFFFFFFFFFFFFFFFFFFFFFFFFFFFFFFFFFFF AND MUL OR SWAP1 SSTORE POP PUSH0 PUSH1 0x4 DUP2 SWAP1 SSTORE POP PUSH2 0x149B DUP1 PUSH2 0x63 PUSH0 CODECOPY PUSH0 RETURN INVALID PUSH1 0x80 PUSH1 0x40 MSTORE PUSH1 0x4 CALLDATASIZE LT PUSH2 0xA6 JUMPI PUSH0 CALLDATALOAD PUSH1 0xE0 SHR DUP1 PUSH4 0x4A8393F3 GT PUSH2 0x63 JUMPI DUP1 PUSH4 0x4A8393F3 EQ PUSH2 0x1CD JUMPI DUP1 PUSH4 0x7EE68546 EQ PUSH2 0x20E JUMPI DUP1 PUSH4 0x8DA5CB5B EQ PUSH2 0x224 JUMPI DUP1 PUSH4 0xA4406BCD EQ PUSH2 0x24E JUMPI DUP1 PUSH4 0xD0E30DB0 EQ PUSH2 0x276 JUMPI DUP1 PUSH4 0xEE36D4AB EQ PUSH2 0x280 JUMPI PUSH2 0xA6 JUMP JUMPDEST DUP1 PUSH4 0x24AAF97F EQ PUSH2 0xAA JUMPI DUP1 PUSH4 0x27E235E3 EQ PUSH2 0xD4 JUMPI DUP1 PUSH4 0x29CE16BB EQ PUSH2 0x110 JUMPI DUP1 PUSH4 0x2A58B330 EQ PUSH2 0x13A JUMPI DUP1 PUSH4 0x2E1A7D4D EQ PUSH2 0x164 JUMPI DUP1 PUSH4 0x35CEA288 EQ PUSH2 0x18C JUMPI JUMPDEST PUSH0 DUP1 REVERT JUMPDEST CALLVALUE DUP1 ISZERO PUSH2 0xB5 JUMPI PUSH0 DUP1 REVERT JUMPDEST POP PUSH2 0xBE PUSH2 0x2A8 JUMP JUMPDEST PUSH1 0x40 MLOAD PUSH2 0xCB SWAP2 SWAP1 PUSH2 0xE3A JUMP JUMPDEST PUSH1 0x40 MLOAD DUP1 SWAP2 SUB SWAP1 RETURN JUMPDEST CALLVALUE DUP1 ISZERO PUSH2 0xDF JUMPI PUSH0 DUP1 REVERT JUMPDEST POP PUSH2 0xFA PUSH1 0x4 DUP1 CALLDATASIZE SUB DUP2 ADD SWAP1 PUSH2 0xF5 SWAP2 SWAP1 PUSH2 0xEB1 JUMP JUMPDEST PUSH2 0x2B4 JUMP JUMPDEST PUSH1 0x40 MLOAD PUSH2 0x107 SWAP2 SWAP1 PUSH2 0xE3A JUMP JUMPDEST PUSH1 0x40 MLOAD DUP1 SWAP2 SUB SWAP1 RETURN JUMPDEST CALLVALUE DUP1 ISZERO PUSH2 0x11B JUMPI PUSH0 DUP1 REVERT JUMPDEST POP PUSH2 0x124 PUSH2 0x2C9 JUMP JUMPDEST PUSH1 0x40 MLOAD PUSH2 0x131 SWAP2 SWAP1 PUSH2 0xE3A JUMP JUMPDEST PUSH1 0x40 MLOAD DUP1 SWAP2 SUB SWAP1 RETURN JUMPDEST CALLVALUE DUP1 ISZERO PUSH2 0x145 JUMPI PUSH0 DUP1 REVERT JUMPDEST POP PUSH2 0x14E PUSH2 0x2D5 JUMP JUMPDEST PUSH1 0x40 MLOAD PUSH2 0x15B SWAP2 SWAP1 PUSH2 0xE3A JUMP JUMPDEST PUSH1 0x40 MLOAD DUP1 SWAP2 SUB SWAP1 RETURN JUMPDEST CALLVALUE DUP1 ISZERO PUSH2 0x16F JUMPI PUSH0 DUP1 REVERT JUMPDEST POP PUSH2 0x18A PUSH1 0x4 DUP1 CALLDATASIZE SUB DUP2 ADD SWAP1 PUSH2 0x185 SWAP2 SWAP1 PUSH2 0xF06 JUMP JUMPDEST PUSH2 0x2DB JUMP JUMPDEST STOP JUMPDEST CALLVALUE DUP1 ISZERO PUSH2 0x197 JUMPI PUSH0 DUP1 REVERT JUMPDEST POP PUSH2 0x1B2 PUSH1 0x4 DUP1 CALLDATASIZE SUB DUP2 ADD SWAP1 PUSH2 0x1AD SWAP2 SWAP1 PUSH2 0xF06 JUMP JUMPDEST PUSH2 0x443 JUMP JUMPDEST PUSH1 0x40 MLOAD PUSH2 0x1C4 SWAP7 SWAP6 SWAP5 SWAP4 SWAP3 SWAP2 SWAP1 PUSH2 0xFCD JUMP JUMPDEST PUSH1 0x40 MLOAD DUP1 SWAP2 SUB SWAP1 RETURN JUMPDEST CALLVALUE DUP1 ISZERO PUSH2 0x1D8 JUMPI PUSH0 DUP1 REVERT JUMPDEST POP PUSH2 0x1F3 PUSH1 0x4 DUP1 CALLDATASIZE SUB DUP2 ADD SWAP1 PUSH2 0x1EE SWAP2 SWAP1 PUSH2 0xF06 JUMP JUMPDEST PUSH2 0x4C2 JUMP JUMPDEST PUSH1 0x40 MLOAD PUSH2 0x205 SWAP7 SWAP6 SWAP5 SWAP4 SWAP3 SWAP2 SWAP1 PUSH2 0xFCD JUMP JUMPDEST PUSH1 0x40 MLOAD DUP1 SWAP2 SUB SWAP1 RETURN JUMPDEST CALLVALUE DUP1 ISZERO PUSH2 0x219 JUMPI PUSH0 DUP1 REVERT JUMPDEST POP PUSH2 0x222 PUSH2 0x541 JUMP JUMPDEST STOP JUMPDEST CALLVALUE DUP1 ISZERO PUSH2 0x22F JUMPI PUSH0 DUP1 REVERT JUMPDEST POP PUSH2 0x238 PUSH2 0x937 JUMP JUMPDEST PUSH1 0x40 MLOAD PUSH2 0x245 SWAP2 SWAP1 PUSH2 0x102C JUMP JUMPDEST PUSH1 0x40 MLOAD DUP1 SWAP2 SUB SWAP1 RETURN JUMPDEST CALLVALUE DUP1 ISZERO PUSH2 0x259 JUMPI PUSH0 DUP1 REVERT JUMPDEST POP PUSH2 0x274 PUSH1 0x4 DUP1 CALLDATASIZE SUB DUP2 ADD SWAP1 PUSH2 0x26F SWAP2 SWAP1 PUSH2 0x1045 JUMP JUMPDEST PUSH2 0x95A JUMP JUMPDEST STOP JUMPDEST PUSH2 0x27E PUSH2 0xB04 JUMP JUMPDEST STOP JUMPDEST CALLVALUE DUP1 ISZERO PUSH2 0x28B JUMPI PUSH0 DUP1 REVERT JUMPDEST POP PUSH2 0x2A6 PUSH1 0x4 DUP1 CALLDATASIZE SUB DUP2 ADD SWAP1 PUSH2 0x2A1 SWAP2 SWAP1 PUSH2 0x1045 JUMP JUMPDEST PUSH2 0xBE9 JUMP JUMPDEST STOP JUMPDEST PUSH0 PUSH1 0x3 DUP1 SLOAD SWAP1 POP SWAP1 POP SWAP1 JUMP JUMPDEST PUSH1 0x1 PUSH1 0x20 MSTORE DUP1 PUSH0 MSTORE PUSH1 0x40 PUSH0 KECCAK256 PUSH0 SWAP2 POP SWAP1 POP SLOAD DUP2 JUMP JUMPDEST PUSH0 PUSH1 0x2 DUP1 SLOAD SWAP1 POP SWAP1 POP SWAP1 JUMP JUMPDEST PUSH1 0x4 SLOAD DUP2 JUMP JUMPDEST DUP1 PUSH1 0x1 PUSH0 CALLER PUSH20 0xFFFFFFFFFFFFFFFFFFFFFFFFFFFFFFFFFFFFFFFF AND PUSH20 0xFFFFFFFFFFFFFFFFFFFFFFFFFFFFFFFFFFFFFFFF AND DUP2 MSTORE PUSH1 0x20 ADD SWAP1 DUP2 MSTORE PUSH1 0x20 ADD PUSH0 KECCAK256 SLOAD LT ISZERO PUSH2 0x35B JUMPI PUSH1 0x40 MLOAD PUSH32 0x8C379A000000000000000000000000000000000000000000000000000000000 DUP2 MSTORE PUSH1 0x4 ADD PUSH2 0x352 SWAP1 PUSH2 0x10DD JUMP JUMPDEST PUSH1 0x40 MLOAD DUP1 SWAP2 SUB SWAP1 REVERT JUMPDEST DUP1 PUSH1 0x1 PUSH0 CALLER PUSH20 0xFFFFFFFFFFFFFFFFFFFFFFFFFFFFFFFFFFFFFFFF AND PUSH20 0xFFFFFFFFFFFFFFFFFFFFFFFFFFFFFFFFFFFFFFFF AND DUP2 MSTORE PUSH1 0x20 ADD SWAP1 DUP2 MSTORE PUSH1 0x20 ADD PUSH0 KECCAK256 PUSH0 DUP3 DUP3 SLOAD PUSH2 0x3A7 SWAP2 SWAP1 PUSH2 0x1128 JUMP JUMPDEST SWAP3 POP POP DUP2 SWAP1 SSTORE POP CALLER PUSH20 0xFFFFFFFFFFFFFFFFFFFFFFFFFFFFFFFFFFFFFFFF AND PUSH2 0x8FC DUP3 SWAP1 DUP2 ISZERO MUL SWAP1 PUSH1 0x40 MLOAD PUSH0 PUSH1 0x40 MLOAD DUP1 DUP4 SUB DUP2 DUP6 DUP9 DUP9 CALL SWAP4 POP POP POP POP ISZERO DUP1 ISZERO PUSH2 0x3F1 JUMPI RETURNDATASIZE PUSH0 DUP1 RETURNDATACOPY RETURNDATASIZE PUSH0 REVERT JUMPDEST POP CALLER PUSH20 0xFFFFFFFFFFFFFFFFFFFFFFFFFFFFFFFFFFFFFFFF AND PUSH32 0x7FCF532C15F0A6DB0BD6D0E038BEA71D30D808C7D98CB3BF7268A95BF5081B65 DUP3 PUSH1 0x40 MLOAD PUSH2 0x438 SWAP2 SWAP1 PUSH2 0xE3A JUMP JUMPDEST PUSH1 0x40 MLOAD DUP1 SWAP2 SUB SWAP1 LOG2 POP JUMP JUMPDEST PUSH1 0x2 DUP2 DUP2 SLOAD DUP2 LT PUSH2 0x452 JUMPI PUSH0 DUP1 REVERT JUMPDEST SWAP1 PUSH0 MSTORE PUSH1 0x20 PUSH0 KECCAK256 SWAP1 PUSH1 0x5 MUL ADD PUSH0 SWAP2 POP SWAP1 POP DUP1 PUSH0 ADD SLOAD SWAP1 DUP1 PUSH1 0x1 ADD PUSH0 SWAP1 SLOAD SWAP1 PUSH2 0x100 EXP SWAP1 DIV PUSH20 0xFFFFFFFFFFFFFFFFFFFFFFFFFFFFFFFFFFFFFFFF AND SWAP1 DUP1 PUSH1 0x1 ADD PUSH1 0x14 SWAP1 SLOAD SWAP1 PUSH2 0x100 EXP SWAP1 DIV PUSH1 0xFF AND SWAP1 DUP1 PUSH1 0x2 ADD SLOAD SWAP1 DUP1 PUSH1 0x3 ADD SLOAD SWAP1 DUP1 PUSH1 0x4 ADD PUSH0 SWAP1 SLOAD SWAP1 PUSH2 0x100 EXP SWAP1 DIV PUSH1 0xFF AND SWAP1 POP DUP7 JUMP JUMPDEST PUSH1 0x3 DUP2 DUP2 SLOAD DUP2 LT PUSH2 0x4D1 JUMPI PUSH0 DUP1 REVERT JUMPDEST SWAP1 PUSH0 MSTORE PUSH1 0x20 PUSH0 KECCAK256 SWAP1 PUSH1 0x5 MUL ADD PUSH0 SWAP2 POP SWAP1 POP DUP1 PUSH0 ADD SLOAD SWAP1 DUP1 PUSH1 0x1 ADD PUSH0 SWAP1 SLOAD SWAP1 PUSH2 0x100 EXP SWAP1 DIV PUSH20 0xFFFFFFFFFFFFFFFFFFFFFFFFFFFFFFFFFFFFFFFF AND SWAP1 DUP1 PUSH1 0x1 ADD PUSH1 0x14 SWAP1 SLOAD SWAP1 PUSH2 0x100 EXP SWAP1 DIV PUSH1 0xFF AND SWAP1 DUP1 PUSH1 0x2 ADD SLOAD SWAP1 DUP1 PUSH1 0x3 ADD SLOAD SWAP1 DUP1 PUSH1 0x4 ADD PUSH0 SWAP1 SLOAD SWAP1 PUSH2 0x100 EXP SWAP1 DIV PUSH1 0xFF AND SWAP1 POP DUP7 JUMP JUMPDEST PUSH0 DUP1 SLOAD SWAP1 PUSH2 0x100 EXP SWAP1 DIV PUSH20 0xFFFFFFFFFFFFFFFFFFFFFFFFFFFFFFFFFFFFFFFF AND PUSH20 0xFFFFFFFFFFFFFFFFFFFFFFFFFFFFFFFFFFFFFFFF AND CALLER PUSH20 0xFFFFFFFFFFFFFFFFFFFFFFFFFFFFFFFFFFFFFFFF AND EQ PUSH2 0x5CE JUMPI PUSH1 0x40 MLOAD PUSH32 0x8C379A000000000000000000000000000000000000000000000000000000000 DUP2 MSTORE PUSH1 0x4 ADD PUSH2 0x5C5 SWAP1 PUSH2 0x11A5 JUMP JUMPDEST PUSH1 0x40 MLOAD DUP1 SWAP2 SUB SWAP1 REVERT JUMPDEST PUSH0 JUMPDEST PUSH1 0x2 DUP1 SLOAD SWAP1 POP DUP2 LT ISZERO PUSH2 0x934 JUMPI PUSH0 PUSH1 0x2 DUP3 DUP2 SLOAD DUP2 LT PUSH2 0x5F2 JUMPI PUSH2 0x5F1 PUSH2 0x11C3 JUMP JUMPDEST JUMPDEST SWAP1 PUSH0 MSTORE PUSH1 0x20 PUSH0 KECCAK256 SWAP1 PUSH1 0x5 MUL ADD SWAP1 POP DUP1 PUSH1 0x4 ADD PUSH0 SWAP1 SLOAD SWAP1 PUSH2 0x100 EXP SWAP1 DIV PUSH1 0xFF AND ISZERO PUSH2 0x61C JUMPI POP PUSH2 0x921 JUMP JUMPDEST PUSH0 JUMPDEST PUSH1 0x3 DUP1 SLOAD SWAP1 POP DUP2 LT ISZERO PUSH2 0x91E JUMPI PUSH0 PUSH1 0x3 DUP3 DUP2 SLOAD DUP2 LT PUSH2 0x640 JUMPI PUSH2 0x63F PUSH2 0x11C3 JUMP JUMPDEST JUMPDEST SWAP1 PUSH0 MSTORE PUSH1 0x20 PUSH0 KECCAK256 SWAP1 PUSH1 0x5 MUL ADD SWAP1 POP DUP1 PUSH1 0x4 ADD PUSH0 SWAP1 SLOAD SWAP1 PUSH2 0x100 EXP SWAP1 DIV PUSH1 0xFF AND ISZERO PUSH2 0x66A JUMPI POP PUSH2 0x90B JUMP JUMPDEST DUP1 PUSH1 0x2 ADD SLOAD DUP4 PUSH1 0x2 ADD SLOAD LT PUSH2 0x909 JUMPI PUSH0 DUP2 PUSH1 0x3 ADD SLOAD DUP5 PUSH1 0x3 ADD SLOAD LT PUSH2 0x693 JUMPI DUP2 PUSH1 0x3 ADD SLOAD PUSH2 0x699 JUMP JUMPDEST DUP4 PUSH1 0x3 ADD SLOAD JUMPDEST SWAP1 POP DUP1 DUP5 PUSH1 0x3 ADD PUSH0 DUP3 DUP3 SLOAD PUSH2 0x6AE SWAP2 SWAP1 PUSH2 0x1128 JUMP JUMPDEST SWAP3 POP POP DUP2 SWAP1 SSTORE POP DUP1 DUP3 PUSH1 0x3 ADD PUSH0 DUP3 DUP3 SLOAD PUSH2 0x6C8 SWAP2 SWAP1 PUSH2 0x1128 JUMP JUMPDEST SWAP3 POP POP DUP2 SWAP1 SSTORE POP PUSH0 DUP5 PUSH1 0x3 ADD SLOAD SUB PUSH2 0x6F7 JUMPI PUSH1 0x1 DUP5 PUSH1 0x4 ADD PUSH0 PUSH2 0x100 EXP DUP2 SLOAD DUP2 PUSH1 0xFF MUL NOT AND SWAP1 DUP4 ISZERO ISZERO MUL OR SWAP1 SSTORE POP JUMPDEST PUSH0 DUP3 PUSH1 0x3 ADD SLOAD SUB PUSH2 0x71F JUMPI PUSH1 0x1 DUP3 PUSH1 0x4 ADD PUSH0 PUSH2 0x100 EXP DUP2 SLOAD DUP2 PUSH1 0xFF MUL NOT AND SWAP1 DUP4 ISZERO ISZERO MUL OR SWAP1 SSTORE POP JUMPDEST PUSH0 DUP2 DUP4 PUSH1 0x2 ADD SLOAD PUSH2 0x730 SWAP2 SWAP1 PUSH2 0x11F0 JUMP JUMPDEST SWAP1 POP DUP1 PUSH1 0x1 PUSH0 DUP8 PUSH1 0x1 ADD PUSH0 SWAP1 SLOAD SWAP1 PUSH2 0x100 EXP SWAP1 DIV PUSH20 0xFFFFFFFFFFFFFFFFFFFFFFFFFFFFFFFFFFFFFFFF AND PUSH20 0xFFFFFFFFFFFFFFFFFFFFFFFFFFFFFFFFFFFFFFFF AND PUSH20 0xFFFFFFFFFFFFFFFFFFFFFFFFFFFFFFFFFFFFFFFF AND DUP2 MSTORE PUSH1 0x20 ADD SWAP1 DUP2 MSTORE PUSH1 0x20 ADD PUSH0 KECCAK256 SLOAD LT ISZERO PUSH2 0x7D5 JUMPI PUSH1 0x40 MLOAD PUSH32 0x8C379A000000000000000000000000000000000000000000000000000000000 DUP2 MSTORE PUSH1 0x4 ADD PUSH2 0x7CC SWAP1 PUSH2 0x127B JUMP JUMPDEST PUSH1 0x40 MLOAD DUP1 SWAP2 SUB SWAP1 REVERT JUMPDEST DUP1 PUSH1 0x1 PUSH0 DUP8 PUSH1 0x1 ADD PUSH0 SWAP1 SLOAD SWAP1 PUSH2 0x100 EXP SWAP1 DIV PUSH20 0xFFFFFFFFFFFFFFFFFFFFFFFFFFFFFFFFFFFFFFFF AND PUSH20 0xFFFFFFFFFFFFFFFFFFFFFFFFFFFFFFFFFFFFFFFF AND PUSH20 0xFFFFFFFFFFFFFFFFFFFFFFFFFFFFFFFFFFFFFFFF AND DUP2 MSTORE PUSH1 0x20 ADD SWAP1 DUP2 MSTORE PUSH1 0x20 ADD PUSH0 KECCAK256 PUSH0 DUP3 DUP3 SLOAD PUSH2 0x844 SWAP2 SWAP1 PUSH2 0x1128 JUMP JUMPDEST SWAP3 POP POP DUP2 SWAP1 SSTORE POP DUP1 PUSH1 0x1 PUSH0 DUP6 PUSH1 0x1 ADD PUSH0 SWAP1 SLOAD SWAP1 PUSH2 0x100 EXP SWAP1 DIV PUSH20 0xFFFFFFFFFFFFFFFFFFFFFFFFFFFFFFFFFFFFFFFF AND PUSH20 0xFFFFFFFFFFFFFFFFFFFFFFFFFFFFFFFFFFFFFFFF AND PUSH20 0xFFFFFFFFFFFFFFFFFFFFFFFFFFFFFFFFFFFFFFFF AND DUP2 MSTORE PUSH1 0x20 ADD SWAP1 DUP2 MSTORE PUSH1 0x20 ADD PUSH0 KECCAK256 PUSH0 DUP3 DUP3 SLOAD PUSH2 0x8BA SWAP2 SWAP1 PUSH2 0x1299 JUMP JUMPDEST SWAP3 POP POP DUP2 SWAP1 SSTORE POP DUP3 PUSH0 ADD SLOAD DUP6 PUSH0 ADD SLOAD PUSH32 0x82877C5945532F956E6718F78F5606B7B5D8EFEF5E22121A3D9BF4E708873EDD DUP6 PUSH1 0x2 ADD SLOAD DUP6 PUSH1 0x40 MLOAD PUSH2 0x8FE SWAP3 SWAP2 SWAP1 PUSH2 0x12CC JUMP JUMPDEST PUSH1 0x40 MLOAD DUP1 SWAP2 SUB SWAP1 LOG3 POP POP JUMPDEST POP JUMPDEST DUP1 DUP1 PUSH2 0x916 SWAP1 PUSH2 0x12F3 JUMP JUMPDEST SWAP2 POP POP PUSH2 0x61E JUMP JUMPDEST POP POP JUMPDEST DUP1 DUP1 PUSH2 0x92C SWAP1 PUSH2 0x12F3 JUMP JUMPDEST SWAP2 POP POP PUSH2 0x5D0 JUMP JUMPDEST POP JUMP JUMPDEST PUSH0 DUP1 SLOAD SWAP1 PUSH2 0x100 EXP SWAP1 DIV PUSH20 0xFFFFFFFFFFFFFFFFFFFFFFFFFFFFFFFFFFFFFFFF AND DUP2 JUMP JUMPDEST PUSH0 PUSH1 0x40 MLOAD DUP1 PUSH1 0xC0 ADD PUSH1 0x40 MSTORE DUP1 PUSH1 0x4 SLOAD DUP2 MSTORE PUSH1 0x20 ADD CALLER PUSH20 0xFFFFFFFFFFFFFFFFFFFFFFFFFFFFFFFFFFFFFFFF AND DUP2 MSTORE PUSH1 0x20 ADD PUSH1 0x1 DUP1 DUP2 GT ISZERO PUSH2 0x99D JUMPI PUSH2 0x99C PUSH2 0xF40 JUMP JUMPDEST JUMPDEST DUP2 MSTORE PUSH1 0x20 ADD DUP5 DUP2 MSTORE PUSH1 0x20 ADD DUP4 DUP2 MSTORE PUSH1 0x20 ADD PUSH0 ISZERO ISZERO DUP2 MSTORE POP SWAP1 POP PUSH1 0x3 DUP2 SWAP1 DUP1 PUSH1 0x1 DUP2 SLOAD ADD DUP1 DUP3 SSTORE DUP1 SWAP2 POP POP PUSH1 0x1 SWAP1 SUB SWAP1 PUSH0 MSTORE PUSH1 0x20 PUSH0 KECCAK256 SWAP1 PUSH1 0x5 MUL ADD PUSH0 SWAP1 SWAP2 SWAP1 SWAP2 SWAP1 SWAP2 POP PUSH0 DUP3 ADD MLOAD DUP2 PUSH0 ADD SSTORE PUSH1 0x20 DUP3 ADD MLOAD DUP2 PUSH1 0x1 ADD PUSH0 PUSH2 0x100 EXP DUP2 SLOAD DUP2 PUSH20 0xFFFFFFFFFFFFFFFFFFFFFFFFFFFFFFFFFFFFFFFF MUL NOT AND SWAP1 DUP4 PUSH20 0xFFFFFFFFFFFFFFFFFFFFFFFFFFFFFFFFFFFFFFFF AND MUL OR SWAP1 SSTORE POP PUSH1 0x40 DUP3 ADD MLOAD DUP2 PUSH1 0x1 ADD PUSH1 0x14 PUSH2 0x100 EXP DUP2 SLOAD DUP2 PUSH1 0xFF MUL NOT AND SWAP1 DUP4 PUSH1 0x1 DUP2 GT ISZERO PUSH2 0xA58 JUMPI PUSH2 0xA57 PUSH2 0xF40 JUMP JUMPDEST JUMPDEST MUL OR SWAP1 SSTORE POP PUSH1 0x60 DUP3 ADD MLOAD DUP2 PUSH1 0x2 ADD SSTORE PUSH1 0x80 DUP3 ADD MLOAD DUP2 PUSH1 0x3 ADD SSTORE PUSH1 0xA0 DUP3 ADD MLOAD DUP2 PUSH1 0x4 ADD PUSH0 PUSH2 0x100 EXP DUP2 SLOAD DUP2 PUSH1 0xFF MUL NOT AND SWAP1 DUP4 ISZERO ISZERO MUL OR SWAP1 SSTORE POP POP POP CALLER PUSH20 0xFFFFFFFFFFFFFFFFFFFFFFFFFFFFFFFFFFFFFFFF AND PUSH1 0x4 SLOAD PUSH32 0x28EE76B520925C614B94784E5BD4B8D8AD21FD9930AEA487E678E1E5A5F40513 PUSH1 0x1 DUP7 DUP7 PUSH1 0x40 MLOAD PUSH2 0xAE0 SWAP4 SWAP3 SWAP2 SWAP1 PUSH2 0x133A JUMP JUMPDEST PUSH1 0x40 MLOAD DUP1 SWAP2 SUB SWAP1 LOG3 PUSH1 0x4 PUSH0 DUP2 SLOAD DUP1 SWAP3 SWAP2 SWAP1 PUSH2 0xAFA SWAP1 PUSH2 0x12F3 JUMP JUMPDEST SWAP2 SWAP1 POP SSTORE POP POP POP POP JUMP JUMPDEST PUSH0 CALLVALUE GT PUSH2 0xB46 JUMPI PUSH1 0x40 MLOAD PUSH32 0x8C379A000000000000000000000000000000000000000000000000000000000 DUP2 MSTORE PUSH1 0x4 ADD PUSH2 0xB3D SWAP1 PUSH2 0x13B9 JUMP JUMPDEST PUSH1 0x40 MLOAD DUP1 SWAP2 SUB SWAP1 REVERT JUMPDEST CALLVALUE PUSH1 0x1 PUSH0 CALLER PUSH20 0xFFFFFFFFFFFFFFFFFFFFFFFFFFFFFFFFFFFFFFFF AND PUSH20 0xFFFFFFFFFFFFFFFFFFFFFFFFFFFFFFFFFFFFFFFF AND DUP2 MSTORE PUSH1 0x20 ADD SWAP1 DUP2 MSTORE PUSH1 0x20 ADD PUSH0 KECCAK256 PUSH0 DUP3 DUP3 SLOAD PUSH2 0xB92 SWAP2 SWAP1 PUSH2 0x1299 JUMP JUMPDEST SWAP3 POP POP DUP2 SWAP1 SSTORE POP CALLER PUSH20 0xFFFFFFFFFFFFFFFFFFFFFFFFFFFFFFFFFFFFFFFF AND PUSH32 0xE1FFFCC4923D04B559F4D29A8BFC6CDA04EB5B0D3C460751C2402C5C5CC9109C CALLVALUE PUSH1 0x40 MLOAD PUSH2 0xBDF SWAP2 SWAP1 PUSH2 0xE3A JUMP JUMPDEST PUSH1 0x40 MLOAD DUP1 SWAP2 SUB SWAP1 LOG2 JUMP JUMPDEST PUSH0 DUP2 DUP4 PUSH2 0xBF6 SWAP2 SWAP1 PUSH2 0x11F0 JUMP JUMPDEST SWAP1 POP DUP1 PUSH1 0x1 PUSH0 CALLER PUSH20 0xFFFFFFFFFFFFFFFFFFFFFFFFFFFFFFFFFFFFFFFF AND PUSH20 0xFFFFFFFFFFFFFFFFFFFFFFFFFFFFFFFFFFFFFFFF AND DUP2 MSTORE PUSH1 0x20 ADD SWAP1 DUP2 MSTORE PUSH1 0x20 ADD PUSH0 KECCAK256 SLOAD LT ISZERO PUSH2 0xC78 JUMPI PUSH1 0x40 MLOAD PUSH32 0x8C379A000000000000000000000000000000000000000000000000000000000 DUP2 MSTORE PUSH1 0x4 ADD PUSH2 0xC6F SWAP1 PUSH2 0x1447 JUMP JUMPDEST PUSH1 0x40 MLOAD DUP1 SWAP2 SUB SWAP1 REVERT JUMPDEST PUSH0 PUSH1 0x40 MLOAD DUP1 PUSH1 0xC0 ADD PUSH1 0x40 MSTORE DUP1 PUSH1 0x4 SLOAD DUP2 MSTORE PUSH1 0x20 ADD CALLER PUSH20 0xFFFFFFFFFFFFFFFFFFFFFFFFFFFFFFFFFFFFFFFF AND DUP2 MSTORE PUSH1 0x20 ADD PUSH0 PUSH1 0x1 DUP2 GT ISZERO PUSH2 0xCBB JUMPI PUSH2 0xCBA PUSH2 0xF40 JUMP JUMPDEST JUMPDEST DUP2 MSTORE PUSH1 0x20 ADD DUP6 DUP2 MSTORE PUSH1 0x20 ADD DUP5 DUP2 MSTORE PUSH1 0x20 ADD PUSH0 ISZERO ISZERO DUP2 MSTORE POP SWAP1 POP PUSH1 0x2 DUP2 SWAP1 DUP1 PUSH1 0x1 DUP2 SLOAD ADD DUP1 DUP3 SSTORE DUP1 SWAP2 POP POP PUSH1 0x1 SWAP1 SUB SWAP1 PUSH0 MSTORE PUSH1 0x20 PUSH0 KECCAK256 SWAP1 PUSH1 0x5 MUL ADD PUSH0 SWAP1 SWAP2 SWAP1 SWAP2 SWAP1 SWAP2 POP PUSH0 DUP3 ADD MLOAD DUP2 PUSH0 ADD SSTORE PUSH1 0x20 DUP3 ADD MLOAD DUP2 PUSH1 0x1 ADD PUSH0 PUSH2 0x100 EXP DUP2 SLOAD DUP2 PUSH20 0xFFFFFFFFFFFFFFFFFFFFFFFFFFFFFFFFFFFFFFFF MUL NOT AND SWAP1 DUP4 PUSH20 0xFFFFFFFFFFFFFFFFFFFFFFFFFFFFFFFFFFFFFFFF AND MUL OR SWAP1 SSTORE POP PUSH1 0x40 DUP3 ADD MLOAD DUP2 PUSH1 0x1 ADD PUSH1 0x14 PUSH2 0x100 EXP DUP2 SLOAD DUP2 PUSH1 0xFF MUL NOT AND SWAP1 DUP4 PUSH1 0x1 DUP2 GT ISZERO PUSH2 0xD76 JUMPI PUSH2 0xD75 PUSH2 0xF40 JUMP JUMPDEST JUMPDEST MUL OR SWAP1 SSTORE POP PUSH1 0x60 DUP3 ADD MLOAD DUP2 PUSH1 0x2 ADD SSTORE PUSH1 0x80 DUP3 ADD MLOAD DUP2 PUSH1 0x3 ADD SSTORE PUSH1 0xA0 DUP3 ADD MLOAD DUP2 PUSH1 0x4 ADD PUSH0 PUSH2 0x100 EXP DUP2 SLOAD DUP2 PUSH1 0xFF MUL NOT AND SWAP1 DUP4 ISZERO ISZERO MUL OR SWAP1 SSTORE POP POP POP CALLER PUSH20 0xFFFFFFFFFFFFFFFFFFFFFFFFFFFFFFFFFFFFFFFF AND PUSH1 0x4 SLOAD PUSH32 0x28EE76B520925C614B94784E5BD4B8D8AD21FD9930AEA487E678E1E5A5F40513 PUSH0 DUP8 DUP8 PUSH1 0x40 MLOAD PUSH2 0xDFD SWAP4 SWAP3 SWAP2 SWAP1 PUSH2 0x133A JUMP JUMPDEST PUSH1 0x40 MLOAD DUP1 SWAP2 SUB SWAP1 LOG3 PUSH1 0x4 PUSH0 DUP2 SLOAD DUP1 SWAP3 SWAP2 SWAP1 PUSH2 0xE17 SWAP1 PUSH2 0x12F3 JUMP JUMPDEST SWAP2 SWAP1 POP SSTORE POP POP POP POP POP JUMP JUMPDEST PUSH0 DUP2 SWAP1 POP SWAP2 SWAP1 POP JUMP JUMPDEST PUSH2 0xE34 DUP2 PUSH2 0xE22 JUMP JUMPDEST DUP3 MSTORE POP POP JUMP JUMPDEST PUSH0 PUSH1 0x20 DUP3 ADD SWAP1 POP PUSH2 0xE4D PUSH0 DUP4 ADD DUP5 PUSH2 0xE2B JUMP JUMPDEST SWAP3 SWAP2 POP POP JUMP JUMPDEST PUSH0 DUP1 REVERT JUMPDEST PUSH0 PUSH20 0xFFFFFFFFFFFFFFFFFFFFFFFFFFFFFFFFFFFFFFFF DUP3 AND SWAP1 POP SWAP2 SWAP1 POP JUMP JUMPDEST PUSH0 PUSH2 0xE80 DUP3 PUSH2 0xE57 JUMP JUMPDEST SWAP1 POP SWAP2 SWAP1 POP JUMP JUMPDEST PUSH2 0xE90 DUP2 PUSH2 0xE76 JUMP JUMPDEST DUP2 EQ PUSH2 0xE9A JUMPI PUSH0 DUP1 REVERT JUMPDEST POP JUMP JUMPDEST PUSH0 DUP2 CALLDATALOAD SWAP1 POP PUSH2 0xEAB DUP2 PUSH2 0xE87 JUMP JUMPDEST SWAP3 SWAP2 POP POP JUMP JUMPDEST PUSH0 PUSH1 0x20 DUP3 DUP5 SUB SLT ISZERO PUSH2 0xEC6 JUMPI PUSH2 0xEC5 PUSH2 0xE53 JUMP JUMPDEST JUMPDEST PUSH0 PUSH2 0xED3 DUP5 DUP3 DUP6 ADD PUSH2 0xE9D JUMP JUMPDEST SWAP2 POP POP SWAP3 SWAP2 POP POP JUMP JUMPDEST PUSH2 0xEE5 DUP2 PUSH2 0xE22 JUMP JUMPDEST DUP2 EQ PUSH2 0xEEF JUMPI PUSH0 DUP1 REVERT JUMPDEST POP JUMP JUMPDEST PUSH0 DUP2 CALLDATALOAD SWAP1 POP PUSH2 0xF00 DUP2 PUSH2 0xEDC JUMP JUMPDEST SWAP3 SWAP2 POP POP JUMP JUMPDEST PUSH0 PUSH1 0x20 DUP3 DUP5 SUB SLT ISZERO PUSH2 0xF1B JUMPI PUSH2 0xF1A PUSH2 0xE53 JUMP JUMPDEST JUMPDEST PUSH0 PUSH2 0xF28 DUP5 DUP3 DUP6 ADD PUSH2 0xEF2 JUMP JUMPDEST SWAP2 POP POP SWAP3 SWAP2 POP POP JUMP JUMPDEST PUSH2 0xF3A DUP2 PUSH2 0xE76 JUMP JUMPDEST DUP3 MSTORE POP POP JUMP JUMPDEST PUSH32 0x4E487B7100000000000000000000000000000000000000000000000000000000 PUSH0 MSTORE PUSH1 0x21 PUSH1 0x4 MSTORE PUSH1 0x24 PUSH0 REVERT JUMPDEST PUSH1 0x2 DUP2 LT PUSH2 0xF7E JUMPI PUSH2 0xF7D PUSH2 0xF40 JUMP JUMPDEST JUMPDEST POP JUMP JUMPDEST PUSH0 DUP2 SWAP1 POP PUSH2 0xF8E DUP3 PUSH2 0xF6D JUMP JUMPDEST SWAP2 SWAP1 POP JUMP JUMPDEST PUSH0 PUSH2 0xF9D DUP3 PUSH2 0xF81 JUMP JUMPDEST SWAP1 POP SWAP2 SWAP1 POP JUMP JUMPDEST PUSH2 0xFAD DUP2 PUSH2 0xF93 JUMP JUMPDEST DUP3 MSTORE POP POP JUMP JUMPDEST PUSH0 DUP2 ISZERO ISZERO SWAP1 POP SWAP2 SWAP1 POP JUMP JUMPDEST PUSH2 0xFC7 DUP2 PUSH2 0xFB3 JUMP JUMPDEST DUP3 MSTORE POP POP JUMP JUMPDEST PUSH0 PUSH1 0xC0 DUP3 ADD SWAP1 POP PUSH2 0xFE0 PUSH0 DUP4 ADD DUP10 PUSH2 0xE2B JUMP JUMPDEST PUSH2 0xFED PUSH1 0x20 DUP4 ADD DUP9 PUSH2 0xF31 JUMP JUMPDEST PUSH2 0xFFA PUSH1 0x40 DUP4 ADD DUP8 PUSH2 0xFA4 JUMP JUMPDEST PUSH2 0x1007 PUSH1 0x60 DUP4 ADD DUP7 PUSH2 0xE2B JUMP JUMPDEST PUSH2 0x1014 PUSH1 0x80 DUP4 ADD DUP6 PUSH2 0xE2B JUMP JUMPDEST PUSH2 0x1021 PUSH1 0xA0 DUP4 ADD DUP5 PUSH2 0xFBE JUMP JUMPDEST SWAP8 SWAP7 POP POP POP POP POP POP POP JUMP JUMPDEST PUSH0 PUSH1 0x20 DUP3 ADD SWAP1 POP PUSH2 0x103F PUSH0 DUP4 ADD DUP5 PUSH2 0xF31 JUMP JUMPDEST SWAP3 SWAP2 POP POP JUMP JUMPDEST PUSH0 DUP1 PUSH1 0x40 DUP4 DUP6 SUB SLT ISZERO PUSH2 0x105B JUMPI PUSH2 0x105A PUSH2 0xE53 JUMP JUMPDEST JUMPDEST PUSH0 PUSH2 0x1068 DUP6 DUP3 DUP7 ADD PUSH2 0xEF2 JUMP JUMPDEST SWAP3 POP POP PUSH1 0x20 PUSH2 0x1079 DUP6 DUP3 DUP7 ADD PUSH2 0xEF2 JUMP JUMPDEST SWAP2 POP POP SWAP3 POP SWAP3 SWAP1 POP JUMP JUMPDEST PUSH0 DUP3 DUP3 MSTORE PUSH1 0x20 DUP3 ADD SWAP1 POP SWAP3 SWAP2 POP POP JUMP JUMPDEST PUSH32 0x496E73756666696369656E742062616C616E6365000000000000000000000000 PUSH0 DUP3 ADD MSTORE POP JUMP JUMPDEST PUSH0 PUSH2 0x10C7 PUSH1 0x14 DUP4 PUSH2 0x1083 JUMP JUMPDEST SWAP2 POP PUSH2 0x10D2 DUP3 PUSH2 0x1093 JUMP JUMPDEST PUSH1 0x20 DUP3 ADD SWAP1 POP SWAP2 SWAP1 POP JUMP JUMPDEST PUSH0 PUSH1 0x20 DUP3 ADD SWAP1 POP DUP2 DUP2 SUB PUSH0 DUP4 ADD MSTORE PUSH2 0x10F4 DUP2 PUSH2 0x10BB JUMP JUMPDEST SWAP1 POP SWAP2 SWAP1 POP JUMP JUMPDEST PUSH32 0x4E487B7100000000000000000000000000000000000000000000000000000000 PUSH0 MSTORE PUSH1 0x11 PUSH1 0x4 MSTORE PUSH1 0x24 PUSH0 REVERT JUMPDEST PUSH0 PUSH2 0x1132 DUP3 PUSH2 0xE22 JUMP JUMPDEST SWAP2 POP PUSH2 0x113D DUP4 PUSH2 0xE22 JUMP JUMPDEST SWAP3 POP DUP3 DUP3 SUB SWAP1 POP DUP2 DUP2 GT ISZERO PUSH2 0x1155 JUMPI PUSH2 0x1154 PUSH2 0x10FB JUMP JUMPDEST JUMPDEST SWAP3 SWAP2 POP POP JUMP JUMPDEST PUSH32 0x4E6F7420636F6E7472616374206F776E65720000000000000000000000000000 PUSH0 DUP3 ADD MSTORE POP JUMP JUMPDEST PUSH0 PUSH2 0x118F PUSH1 0x12 DUP4 PUSH2 0x1083 JUMP JUMPDEST SWAP2 POP PUSH2 0x119A DUP3 PUSH2 0x115B JUMP JUMPDEST PUSH1 0x20 DUP3 ADD SWAP1 POP SWAP2 SWAP1 POP JUMP JUMPDEST PUSH0 PUSH1 0x20 DUP3 ADD SWAP1 POP DUP2 DUP2 SUB PUSH0 DUP4 ADD MSTORE PUSH2 0x11BC DUP2 PUSH2 0x1183 JUMP JUMPDEST SWAP1 POP SWAP2 SWAP1 POP JUMP JUMPDEST PUSH32 0x4E487B7100000000000000000000000000000000000000000000000000000000 PUSH0 MSTORE PUSH1 0x32 PUSH1 0x4 MSTORE PUSH1 0x24 PUSH0 REVERT JUMPDEST PUSH0 PUSH2 0x11FA DUP3 PUSH2 0xE22 JUMP JUMPDEST SWAP2 POP PUSH2 0x1205 DUP4 PUSH2 0xE22 JUMP JUMPDEST SWAP3 POP DUP3 DUP3 MUL PUSH2 0x1213 DUP2 PUSH2 0xE22 JUMP JUMPDEST SWAP2 POP DUP3 DUP3 DIV DUP5 EQ DUP4 ISZERO OR PUSH2 0x122A JUMPI PUSH2 0x1229 PUSH2 0x10FB JUMP JUMPDEST JUMPDEST POP SWAP3 SWAP2 POP POP JUMP JUMPDEST PUSH32 0x496E73756666696369656E742066756E647320647572696E67206D6174636800 PUSH0 DUP3 ADD MSTORE POP JUMP JUMPDEST PUSH0 PUSH2 0x1265 PUSH1 0x1F DUP4 PUSH2 0x1083 JUMP JUMPDEST SWAP2 POP PUSH2 0x1270 DUP3 PUSH2 0x1231 JUMP JUMPDEST PUSH1 0x20 DUP3 ADD SWAP1 POP SWAP2 SWAP1 POP JUMP JUMPDEST PUSH0 PUSH1 0x20 DUP3 ADD SWAP1 POP DUP2 DUP2 SUB PUSH0 DUP4 ADD MSTORE PUSH2 0x1292 DUP2 PUSH2 0x1259 JUMP JUMPDEST SWAP1 POP SWAP2 SWAP1 POP JUMP JUMPDEST PUSH0 PUSH2 0x12A3 DUP3 PUSH2 0xE22 JUMP JUMPDEST SWAP2 POP PUSH2 0x12AE DUP4 PUSH2 0xE22 JUMP JUMPDEST SWAP3 POP DUP3 DUP3 ADD SWAP1 POP DUP1 DUP3 GT ISZERO PUSH2 0x12C6 JUMPI PUSH2 0x12C5 PUSH2 0x10FB JUMP JUMPDEST JUMPDEST SWAP3 SWAP2 POP POP JUMP JUMPDEST PUSH0 PUSH1 0x40 DUP3 ADD SWAP1 POP PUSH2 0x12DF PUSH0 DUP4 ADD DUP6 PUSH2 0xE2B JUMP JUMPDEST PUSH2 0x12EC PUSH1 0x20 DUP4 ADD DUP5 PUSH2 0xE2B JUMP JUMPDEST SWAP4 SWAP3 POP POP POP JUMP JUMPDEST PUSH0 PUSH2 0x12FD DUP3 PUSH2 0xE22 JUMP JUMPDEST SWAP2 POP PUSH32 0xFFFFFFFFFFFFFFFFFFFFFFFFFFFFFFFFFFFFFFFFFFFFFFFFFFFFFFFFFFFFFFFF DUP3 SUB PUSH2 0x132F JUMPI PUSH2 0x132E PUSH2 0x10FB JUMP JUMPDEST JUMPDEST PUSH1 0x1 DUP3 ADD SWAP1 POP SWAP2 SWAP1 POP JUMP JUMPDEST PUSH0 PUSH1 0x60 DUP3 ADD SWAP1 POP PUSH2 0x134D PUSH0 DUP4 ADD DUP7 PUSH2 0xFA4 JUMP JUMPDEST PUSH2 0x135A PUSH1 0x20 DUP4 ADD DUP6 PUSH2 0xE2B JUMP JUMPDEST PUSH2 0x1367 PUSH1 0x40 DUP4 ADD DUP5 PUSH2 0xE2B JUMP JUMPDEST SWAP5 SWAP4 POP POP POP POP JUMP JUMPDEST PUSH32 0x4465706F736974206D757374206265203E203000000000000000000000000000 PUSH0 DUP3 ADD MSTORE POP JUMP JUMPDEST PUSH0 PUSH2 0x13A3 PUSH1 0x13 DUP4 PUSH2 0x1083 JUMP JUMPDEST SWAP2 POP PUSH2 0x13AE DUP3 PUSH2 0x136F JUMP JUMPDEST PUSH1 0x20 DUP3 ADD SWAP1 POP SWAP2 SWAP1 POP JUMP JUMPDEST PUSH0 PUSH1 0x20 DUP3 ADD SWAP1 POP DUP2 DUP2 SUB PUSH0 DUP4 ADD MSTORE PUSH2 0x13D0 DUP2 PUSH2 0x1397 JUMP JUMPDEST SWAP1 POP SWAP2 SWAP1 POP JUMP JUMPDEST PUSH32 0x496E73756666696369656E742062616C616E636520666F7220627579206F7264 PUSH0 DUP3 ADD MSTORE PUSH32 0x6572000000000000000000000000000000000000000000000000000000000000 PUSH1 0x20 DUP3 ADD MSTORE POP JUMP JUMPDEST PUSH0 PUSH2 0x1431 PUSH1 0x22 DUP4 PUSH2 0x1083 JUMP JUMPDEST SWAP2 POP PUSH2 0x143C DUP3 PUSH2 0x13D7 JUMP JUMPDEST PUSH1 0x40 DUP3 ADD SWAP1 POP SWAP2 SWAP1 POP JUMP JUMPDEST PUSH0 PUSH1 0x20 DUP3 ADD SWAP1 POP DUP2 DUP2 SUB PUSH0 DUP4 ADD MSTORE PUSH2 0x145E DUP2 PUSH2 0x1425 JUMP JUMPDEST SWAP1 POP SWAP2 SWAP1 POP JUMP INVALID LOG2 PUSH5 0x6970667358 0x22 SLT KECCAK256 0x2C SMOD ADDRESS 0xCB PUSH30 0xD2076C45C1737BA31B64FB54471D38B8423E7DE0962D909A17B99564736F PUSH13 0x63430008140033000000000000 "
				},
				"gasEstimates": {
					"creation": {
						"codeDepositCost": "1055000",
						"executionCost": "30370",
						"totalCost": "1085370"
					},
					"external": {
						"balances(address)": "2825",
						"buyOrders(uint256)": "infinite",
						"deposit()": "infinite",
						"getBuyOrderCount()": "2485",
						"getSellOrderCount()": "2441",
						"matchOrders()": "infinite",
						"nextOrderId()": "2492",
						"owner()": "2549",
						"placeBuyOrder(uint256,uint256)": "infinite",
						"placeSellOrder(uint256,uint256)": "infinite",
						"sellOrders(uint256)": "infinite",
						"withdraw(uint256)": "infinite"
					}
				},
				"methodIdentifiers": {
					"balances(address)": "27e235e3",
					"buyOrders(uint256)": "35cea288",
					"deposit()": "d0e30db0",
					"getBuyOrderCount()": "29ce16bb",
					"getSellOrderCount()": "24aaf97f",
					"matchOrders()": "7ee68546",
					"nextOrderId()": "2a58b330",
					"owner()": "8da5cb5b",
					"placeBuyOrder(uint256,uint256)": "ee36d4ab",
					"placeSellOrder(uint256,uint256)": "a4406bcd",
					"sellOrders(uint256)": "4a8393f3",
					"withdraw(uint256)": "2e1a7d4d"
				}
			},
			"storageLayout": {
				"storage": [
					{
						"astId": 3,
						"contract": "C/centralizedExchange1.sol:CentralizedExchange",
						"label": "owner",
						"offset": 0,
						"slot": "0",
						"type": "t_address"
					},
					{
						"astId": 7,
						"contract": "C/centralizedExchange1.sol:CentralizedExchange",
						"label": "balances",
						"offset": 0,
						"slot": "1",
						"type": "t_mapping(t_address,t_uint256)"
					},
					{
						"astId": 28,
						"contract": "C/centralizedExchange1.sol:CentralizedExchange",
						"label": "buyOrders",
						"offset": 0,
						"slot": "2",
						"type": "t_array(t_struct(Order)24_storage)dyn_storage"
					},
					{
						"astId": 32,
						"contract": "C/centralizedExchange1.sol:CentralizedExchange",
						"label": "sellOrders",
						"offset": 0,
						"slot": "3",
						"type": "t_array(t_struct(Order)24_storage)dyn_storage"
					},
					{
						"astId": 34,
						"contract": "C/centralizedExchange1.sol:CentralizedExchange",
						"label": "nextOrderId",
						"offset": 0,
						"slot": "4",
						"type": "t_uint256"
					}
				],
				"types": {
					"t_address": {
						"encoding": "inplace",
						"label": "address",
						"numberOfBytes": "20"
					},
					"t_array(t_struct(Order)24_storage)dyn_storage": {
						"base": "t_struct(Order)24_storage",
						"encoding": "dynamic_array",
						"label": "struct CentralizedExchange.Order[]",
						"numberOfBytes": "32"
					},
					"t_bool": {
						"encoding": "inplace",
						"label": "bool",
						"numberOfBytes": "1"
					},
					"t_enum(OrderType)10": {
						"encoding": "inplace",
						"label": "enum CentralizedExchange.OrderType",
						"numberOfBytes": "1"
					},
					"t_mapping(t_address,t_uint256)": {
						"encoding": "mapping",
						"key": "t_address",
						"label": "mapping(address => uint256)",
						"numberOfBytes": "32",
						"value": "t_uint256"
					},
					"t_struct(Order)24_storage": {
						"encoding": "inplace",
						"label": "struct CentralizedExchange.Order",
						"members": [
							{
								"astId": 12,
								"contract": "C/centralizedExchange1.sol:CentralizedExchange",
								"label": "id",
								"offset": 0,
								"slot": "0",
								"type": "t_uint256"
							},
							{
								"astId": 14,
								"contract": "C/centralizedExchange1.sol:CentralizedExchange",
								"label": "trader",
								"offset": 0,
								"slot": "1",
								"type": "t_address"
							},
							{
								"astId": 17,
								"contract": "C/centralizedExchange1.sol:CentralizedExchange",
								"label": "orderType",
								"offset": 20,
								"slot": "1",
								"type": "t_enum(OrderType)10"
							},
							{
								"astId": 19,
								"contract": "C/centralizedExchange1.sol:CentralizedExchange",
								"label": "price",
								"offset": 0,
								"slot": "2",
								"type": "t_uint256"
							},
							{
								"astId": 21,
								"contract": "C/centralizedExchange1.sol:CentralizedExchange",
								"label": "amount",
								"offset": 0,
								"slot": "3",
								"type": "t_uint256"
							},
							{
								"astId": 23,
								"contract": "C/centralizedExchange1.sol:CentralizedExchange",
								"label": "filled",
								"offset": 0,
								"slot": "4",
								"type": "t_bool"
							}
						],
						"numberOfBytes": "160"
					},
					"t_uint256": {
						"encoding": "inplace",
						"label": "uint256",
						"numberOfBytes": "32"
					}
				}
			},
			"userdoc": {
				"kind": "user",
				"methods": {},
				"version": 1
			}
		}
	}
}