{
	"C/cloudCommunity.sol": {
		"CommunityCloud": {
			"abi": [
				{
					"inputs": [],
					"stateMutability": "nonpayable",
					"type": "constructor"
				},
				{
					"anonymous": false,
					"inputs": [
						{
							"indexed": true,
							"internalType": "address",
							"name": "member",
							"type": "address"
						}
					],
					"name": "MemberAdded",
					"type": "event"
				},
				{
					"anonymous": false,
					"inputs": [
						{
							"indexed": true,
							"internalType": "address",
							"name": "member",
							"type": "address"
						}
					],
					"name": "MemberRemoved",
					"type": "event"
				},
				{
					"anonymous": false,
					"inputs": [
						{
							"indexed": false,
							"internalType": "string",
							"name": "newMessage",
							"type": "string"
						}
					],
					"name": "MessageStored",
					"type": "event"
				},
				{
					"inputs": [
						{
							"internalType": "address",
							"name": "member",
							"type": "address"
						}
					],
					"name": "addMember",
					"outputs": [],
					"stateMutability": "nonpayable",
					"type": "function"
				},
				{
					"inputs": [],
					"name": "getMembers",
					"outputs": [
						{
							"internalType": "address[]",
							"name": "",
							"type": "address[]"
						}
					],
					"stateMutability": "view",
					"type": "function"
				},
				{
					"inputs": [],
					"name": "getMessage",
					"outputs": [
						{
							"internalType": "string",
							"name": "",
							"type": "string"
						}
					],
					"stateMutability": "view",
					"type": "function"
				},
				{
					"inputs": [
						{
							"internalType": "uint256",
							"name": "",
							"type": "uint256"
						}
					],
					"name": "memberList",
					"outputs": [
						{
							"internalType": "address",
							"name": "",
							"type": "address"
						}
					],
					"stateMutability": "view",
					"type": "function"
				},
				{
					"inputs": [
						{
							"internalType": "address",
							"name": "",
							"type": "address"
						}
					],
					"name": "members",
					"outputs": [
						{
							"internalType": "bool",
							"name": "",
							"type": "bool"
						}
					],
					"stateMutability": "view",
					"type": "function"
				},
				{
					"inputs": [],
					"name": "owner",
					"outputs": [
						{
							"internalType": "address",
							"name": "",
							"type": "address"
						}
					],
					"stateMutability": "view",
					"type": "function"
				},
				{
					"inputs": [
						{
							"internalType": "address",
							"name": "member",
							"type": "address"
						}
					],
					"name": "removeMember",
					"outputs": [],
					"stateMutability": "nonpayable",
					"type": "function"
				},
				{
					"inputs": [
						{
							"internalType": "string",
							"name": "_message",
							"type": "string"
						}
					],
					"name": "storeMessage",
					"outputs": [],
					"stateMutability": "nonpayable",
					"type": "function"
				}
			],
			"devdoc": {
				"kind": "dev",
				"methods": {
					"addMember(address)": {
						"params": {
							"member": "The address to add."
						}
					},
					"getMembers()": {
						"returns": {
							"_0": "An array of addresses representing the members."
						}
					},
					"getMessage()": {
						"returns": {
							"_0": "The current message."
						}
					},
					"removeMember(address)": {
						"params": {
							"member": "The address to remove."
						}
					},
					"storeMessage(string)": {
						"params": {
							"_message": "The message to store."
						}
					}
				},
				"title": "CommunityCloud",
				"version": 1
			},
			"evm": {
				"assembly": "    /* \"C/cloudCommunity.sol\":229:2507  contract CommunityCloud {... */\n  mstore(0x40, 0x80)\n    /* \"C/cloudCommunity.sol\":534:735  constructor() {... */\n  callvalue\n  dup1\n  iszero\n  tag_1\n  jumpi\n  revert(0x00, 0x00)\ntag_1:\n  pop\n    /* \"C/cloudCommunity.sol\":566:576  msg.sender */\n  caller\n    /* \"C/cloudCommunity.sol\":558:563  owner */\n  0x00\n  0x00\n    /* \"C/cloudCommunity.sol\":558:576  owner = msg.sender */\n  0x0100\n  exp\n  dup2\n  sload\n  dup2\n  0xffffffffffffffffffffffffffffffffffffffff\n  mul\n  not\n  and\n  swap1\n  dup4\n  0xffffffffffffffffffffffffffffffffffffffff\n  and\n  mul\n  or\n  swap1\n  sstore\n  pop\n    /* \"C/cloudCommunity.sol\":649:653  true */\n  0x01\n    /* \"C/cloudCommunity.sol\":627:634  members */\n  0x02\n    /* \"C/cloudCommunity.sol\":627:646  members[msg.sender] */\n  0x00\n    /* \"C/cloudCommunity.sol\":635:645  msg.sender */\n  caller\n    /* \"C/cloudCommunity.sol\":627:646  members[msg.sender] */\n  0xffffffffffffffffffffffffffffffffffffffff\n  and\n  0xffffffffffffffffffffffffffffffffffffffff\n  and\n  dup2\n  mstore\n  0x20\n  add\n  swap1\n  dup2\n  mstore\n  0x20\n  add\n  0x00\n  keccak256\n  0x00\n    /* \"C/cloudCommunity.sol\":627:653  members[msg.sender] = true */\n  0x0100\n  exp\n  dup2\n  sload\n  dup2\n  0xff\n  mul\n  not\n  and\n  swap1\n  dup4\n  iszero\n  iszero\n  mul\n  or\n  swap1\n  sstore\n  pop\n    /* \"C/cloudCommunity.sol\":663:673  memberList */\n  0x03\n    /* \"C/cloudCommunity.sol\":679:689  msg.sender */\n  caller\n    /* \"C/cloudCommunity.sol\":663:690  memberList.push(msg.sender) */\n  swap1\n  dup1\n  0x01\n  dup2\n  sload\n  add\n  dup1\n  dup3\n  sstore\n  dup1\n  swap2\n  pop\n  pop\n  0x01\n  swap1\n  sub\n  swap1\n  0x00\n  mstore\n  keccak256(0x00, 0x20)\n  add\n  0x00\n  swap1\n  swap2\n  swap1\n  swap2\n  swap1\n  swap2\n  0x0100\n  exp\n  dup2\n  sload\n  dup2\n  0xffffffffffffffffffffffffffffffffffffffff\n  mul\n  not\n  and\n  swap1\n  dup4\n  0xffffffffffffffffffffffffffffffffffffffff\n  and\n  mul\n  or\n  swap1\n  sstore\n  pop\n    /* \"C/cloudCommunity.sol\":717:727  msg.sender */\n  caller\n    /* \"C/cloudCommunity.sol\":705:728  MemberAdded(msg.sender) */\n  0xffffffffffffffffffffffffffffffffffffffff\n  and\n  0xb251eb052afc73ffd02ffe85ad79990a8b3fed60d76dbc2fa2fdd7123dffd914\n  mload(0x40)\n  mload(0x40)\n  dup1\n  swap2\n  sub\n  swap1\n  log2\n    /* \"C/cloudCommunity.sol\":229:2507  contract CommunityCloud {... */\n  dataSize(sub_0)\n  dup1\n  dataOffset(sub_0)\n  0x00\n  codecopy\n  0x00\n  return\nstop\n\nsub_0: assembly {\n        /* \"C/cloudCommunity.sol\":229:2507  contract CommunityCloud {... */\n      mstore(0x40, 0x80)\n      callvalue\n      dup1\n      iszero\n      tag_1\n      jumpi\n      revert(0x00, 0x00)\n    tag_1:\n      pop\n      jumpi(tag_2, lt(calldatasize, 0x04))\n      shr(0xe0, calldataload(0x00))\n      dup1\n      0xb307fc6d\n      gt\n      tag_11\n      jumpi\n      dup1\n      0xb307fc6d\n      eq\n      tag_7\n      jumpi\n      dup1\n      0xca6d56dc\n      eq\n      tag_8\n      jumpi\n      dup1\n      0xce6d41de\n      eq\n      tag_9\n      jumpi\n      dup1\n      0xd4e36ba7\n      eq\n      tag_10\n      jumpi\n      jump(tag_2)\n    tag_11:\n      dup1\n      0x08ae4b0c\n      eq\n      tag_3\n      jumpi\n      dup1\n      0x0b1ca49a\n      eq\n      tag_4\n      jumpi\n      dup1\n      0x8da5cb5b\n      eq\n      tag_5\n      jumpi\n      dup1\n      0x9eab5253\n      eq\n      tag_6\n      jumpi\n    tag_2:\n      revert(0x00, 0x00)\n        /* \"C/cloudCommunity.sol\":314:353  mapping(address => bool) public members */\n    tag_3:\n      tag_12\n      0x04\n      dup1\n      calldatasize\n      sub\n      dup2\n      add\n      swap1\n      tag_13\n      swap2\n      swap1\n      tag_14\n      jump\t// in\n    tag_13:\n      tag_15\n      jump\t// in\n    tag_12:\n      mload(0x40)\n      tag_16\n      swap2\n      swap1\n      tag_17\n      jump\t// in\n    tag_16:\n      mload(0x40)\n      dup1\n      swap2\n      sub\n      swap1\n      return\n        /* \"C/cloudCommunity.sol\":1224:1783  function removeMember(address member) external {... */\n    tag_4:\n      tag_18\n      0x04\n      dup1\n      calldatasize\n      sub\n      dup2\n      add\n      swap1\n      tag_19\n      swap2\n      swap1\n      tag_14\n      jump\t// in\n    tag_19:\n      tag_20\n      jump\t// in\n    tag_18:\n      stop\n        /* \"C/cloudCommunity.sol\":259:279  address public owner */\n    tag_5:\n      tag_21\n      tag_22\n      jump\t// in\n    tag_21:\n      mload(0x40)\n      tag_23\n      swap2\n      swap1\n      tag_24\n      jump\t// in\n    tag_23:\n      mload(0x40)\n      dup1\n      swap2\n      sub\n      swap1\n      return\n        /* \"C/cloudCommunity.sol\":2408:2505  function getMembers() external view returns (address[] memory) {... */\n    tag_6:\n      tag_25\n      tag_26\n      jump\t// in\n    tag_25:\n      mload(0x40)\n      tag_27\n      swap2\n      swap1\n      tag_28\n      jump\t// in\n    tag_27:\n      mload(0x40)\n      dup1\n      swap2\n      sub\n      swap1\n      return\n        /* \"C/cloudCommunity.sol\":359:386  address[] public memberList */\n    tag_7:\n      tag_29\n      0x04\n      dup1\n      calldatasize\n      sub\n      dup2\n      add\n      swap1\n      tag_30\n      swap2\n      swap1\n      tag_31\n      jump\t// in\n    tag_30:\n      tag_32\n      jump\t// in\n    tag_29:\n      mload(0x40)\n      tag_33\n      swap2\n      swap1\n      tag_24\n      jump\t// in\n    tag_33:\n      mload(0x40)\n      dup1\n      swap2\n      sub\n      swap1\n      return\n        /* \"C/cloudCommunity.sol\":841:1114  function addMember(address member) external {... */\n    tag_8:\n      tag_34\n      0x04\n      dup1\n      calldatasize\n      sub\n      dup2\n      add\n      swap1\n      tag_35\n      swap2\n      swap1\n      tag_14\n      jump\t// in\n    tag_35:\n      tag_36\n      jump\t// in\n    tag_34:\n      stop\n        /* \"C/cloudCommunity.sol\":2190:2281  function getMessage() external view returns (string memory) {... */\n    tag_9:\n      tag_37\n      tag_38\n      jump\t// in\n    tag_37:\n      mload(0x40)\n      tag_39\n      swap2\n      swap1\n      tag_40\n      jump\t// in\n    tag_39:\n      mload(0x40)\n      dup1\n      swap2\n      sub\n      swap1\n      return\n        /* \"C/cloudCommunity.sol\":1907:2101  function storeMessage(string calldata _message) external {... */\n    tag_10:\n      tag_41\n      0x04\n      dup1\n      calldatasize\n      sub\n      dup2\n      add\n      swap1\n      tag_42\n      swap2\n      swap1\n      tag_43\n      jump\t// in\n    tag_42:\n      tag_44\n      jump\t// in\n    tag_41:\n      stop\n        /* \"C/cloudCommunity.sol\":314:353  mapping(address => bool) public members */\n    tag_15:\n      mstore(0x20, 0x02)\n      dup1\n      0x00\n      mstore\n      keccak256(0x00, 0x40)\n      0x00\n      swap2\n      pop\n      sload\n      swap1\n      0x0100\n      exp\n      swap1\n      div\n      0xff\n      and\n      dup2\n      jump\t// out\n        /* \"C/cloudCommunity.sol\":1224:1783  function removeMember(address member) external {... */\n    tag_20:\n        /* \"C/cloudCommunity.sol\":1303:1308  owner */\n      0x00\n      0x00\n      swap1\n      sload\n      swap1\n      0x0100\n      exp\n      swap1\n      div\n      0xffffffffffffffffffffffffffffffffffffffff\n      and\n        /* \"C/cloudCommunity.sol\":1289:1308  msg.sender == owner */\n      0xffffffffffffffffffffffffffffffffffffffff\n      and\n        /* \"C/cloudCommunity.sol\":1289:1299  msg.sender */\n      caller\n        /* \"C/cloudCommunity.sol\":1289:1308  msg.sender == owner */\n      0xffffffffffffffffffffffffffffffffffffffff\n      and\n      eq\n        /* \"C/cloudCommunity.sol\":1281:1342  require(msg.sender == owner, \"Only owner can remove members\") */\n      tag_46\n      jumpi\n      mload(0x40)\n      0x08c379a000000000000000000000000000000000000000000000000000000000\n      dup2\n      mstore\n      0x04\n      add\n      tag_47\n      swap1\n      tag_48\n      jump\t// in\n    tag_47:\n      mload(0x40)\n      dup1\n      swap2\n      sub\n      swap1\n      revert\n    tag_46:\n        /* \"C/cloudCommunity.sol\":1360:1367  members */\n      0x02\n        /* \"C/cloudCommunity.sol\":1360:1375  members[member] */\n      0x00\n        /* \"C/cloudCommunity.sol\":1368:1374  member */\n      dup3\n        /* \"C/cloudCommunity.sol\":1360:1375  members[member] */\n      0xffffffffffffffffffffffffffffffffffffffff\n      and\n      0xffffffffffffffffffffffffffffffffffffffff\n      and\n      dup2\n      mstore\n      0x20\n      add\n      swap1\n      dup2\n      mstore\n      0x20\n      add\n      0x00\n      keccak256\n      0x00\n      swap1\n      sload\n      swap1\n      0x0100\n      exp\n      swap1\n      div\n      0xff\n      and\n        /* \"C/cloudCommunity.sol\":1352:1392  require(members[member], \"Not a member\") */\n      tag_49\n      jumpi\n      mload(0x40)\n      0x08c379a000000000000000000000000000000000000000000000000000000000\n      dup2\n      mstore\n      0x04\n      add\n      tag_50\n      swap1\n      tag_51\n      jump\t// in\n    tag_50:\n      mload(0x40)\n      dup1\n      swap2\n      sub\n      swap1\n      revert\n    tag_49:\n        /* \"C/cloudCommunity.sol\":1420:1425  false */\n      0x00\n        /* \"C/cloudCommunity.sol\":1402:1409  members */\n      0x02\n        /* \"C/cloudCommunity.sol\":1402:1417  members[member] */\n      0x00\n        /* \"C/cloudCommunity.sol\":1410:1416  member */\n      dup4\n        /* \"C/cloudCommunity.sol\":1402:1417  members[member] */\n      0xffffffffffffffffffffffffffffffffffffffff\n      and\n      0xffffffffffffffffffffffffffffffffffffffff\n      and\n      dup2\n      mstore\n      0x20\n      add\n      swap1\n      dup2\n      mstore\n      0x20\n      add\n      0x00\n      keccak256\n      0x00\n        /* \"C/cloudCommunity.sol\":1402:1425  members[member] = false */\n      0x0100\n      exp\n      dup2\n      sload\n      dup2\n      0xff\n      mul\n      not\n      and\n      swap1\n      dup4\n      iszero\n      iszero\n      mul\n      or\n      swap1\n      sstore\n      pop\n        /* \"C/cloudCommunity.sol\":1506:1515  uint256 i */\n      0x00\n        /* \"C/cloudCommunity.sol\":1518:1519  0 */\n      0x00\n        /* \"C/cloudCommunity.sol\":1506:1519  uint256 i = 0 */\n      swap1\n      pop\n        /* \"C/cloudCommunity.sol\":1501:1741  for (uint256 i = 0; i < memberList.length; i++) {... */\n    tag_52:\n        /* \"C/cloudCommunity.sol\":1525:1535  memberList */\n      0x03\n        /* \"C/cloudCommunity.sol\":1525:1542  memberList.length */\n      dup1\n      sload\n      swap1\n      pop\n        /* \"C/cloudCommunity.sol\":1521:1522  i */\n      dup2\n        /* \"C/cloudCommunity.sol\":1521:1542  i < memberList.length */\n      lt\n        /* \"C/cloudCommunity.sol\":1501:1741  for (uint256 i = 0; i < memberList.length; i++) {... */\n      iszero\n      tag_53\n      jumpi\n        /* \"C/cloudCommunity.sol\":1584:1590  member */\n      dup2\n        /* \"C/cloudCommunity.sol\":1567:1590  memberList[i] == member */\n      0xffffffffffffffffffffffffffffffffffffffff\n      and\n        /* \"C/cloudCommunity.sol\":1567:1577  memberList */\n      0x03\n        /* \"C/cloudCommunity.sol\":1578:1579  i */\n      dup3\n        /* \"C/cloudCommunity.sol\":1567:1580  memberList[i] */\n      dup2\n      sload\n      dup2\n      lt\n      tag_55\n      jumpi\n      tag_56\n      tag_57\n      jump\t// in\n    tag_56:\n    tag_55:\n      swap1\n      0x00\n      mstore\n      keccak256(0x00, 0x20)\n      add\n      0x00\n      swap1\n      sload\n      swap1\n      0x0100\n      exp\n      swap1\n      div\n      0xffffffffffffffffffffffffffffffffffffffff\n      and\n        /* \"C/cloudCommunity.sol\":1567:1590  memberList[i] == member */\n      0xffffffffffffffffffffffffffffffffffffffff\n      and\n      sub\n        /* \"C/cloudCommunity.sol\":1563:1731  if (memberList[i] == member) {... */\n      tag_59\n      jumpi\n        /* \"C/cloudCommunity.sol\":1626:1636  memberList */\n      0x03\n        /* \"C/cloudCommunity.sol\":1657:1658  1 */\n      0x01\n        /* \"C/cloudCommunity.sol\":1637:1647  memberList */\n      0x03\n        /* \"C/cloudCommunity.sol\":1637:1654  memberList.length */\n      dup1\n      sload\n      swap1\n      pop\n        /* \"C/cloudCommunity.sol\":1637:1658  memberList.length - 1 */\n      tag_60\n      swap2\n      swap1\n      tag_61\n      jump\t// in\n    tag_60:\n        /* \"C/cloudCommunity.sol\":1626:1659  memberList[memberList.length - 1] */\n      dup2\n      sload\n      dup2\n      lt\n      tag_62\n      jumpi\n      tag_63\n      tag_57\n      jump\t// in\n    tag_63:\n    tag_62:\n      swap1\n      0x00\n      mstore\n      keccak256(0x00, 0x20)\n      add\n      0x00\n      swap1\n      sload\n      swap1\n      0x0100\n      exp\n      swap1\n      div\n      0xffffffffffffffffffffffffffffffffffffffff\n      and\n        /* \"C/cloudCommunity.sol\":1610:1620  memberList */\n      0x03\n        /* \"C/cloudCommunity.sol\":1621:1622  i */\n      dup3\n        /* \"C/cloudCommunity.sol\":1610:1623  memberList[i] */\n      dup2\n      sload\n      dup2\n      lt\n      tag_65\n      jumpi\n      tag_66\n      tag_57\n      jump\t// in\n    tag_66:\n    tag_65:\n      swap1\n      0x00\n      mstore\n      keccak256(0x00, 0x20)\n      add\n      0x00\n        /* \"C/cloudCommunity.sol\":1610:1659  memberList[i] = memberList[memberList.length - 1] */\n      0x0100\n      exp\n      dup2\n      sload\n      dup2\n      0xffffffffffffffffffffffffffffffffffffffff\n      mul\n      not\n      and\n      swap1\n      dup4\n      0xffffffffffffffffffffffffffffffffffffffff\n      and\n      mul\n      or\n      swap1\n      sstore\n      pop\n        /* \"C/cloudCommunity.sol\":1677:1687  memberList */\n      0x03\n        /* \"C/cloudCommunity.sol\":1677:1693  memberList.pop() */\n      dup1\n      sload\n      dup1\n      tag_68\n      jumpi\n      tag_69\n      tag_70\n      jump\t// in\n    tag_69:\n    tag_68:\n      0x01\n      swap1\n      sub\n      dup2\n      dup2\n      swap1\n      0x00\n      mstore\n      keccak256(0x00, 0x20)\n      add\n      exp(0x0100, 0x00)\n      dup2\n      sload\n      swap1\n      0xffffffffffffffffffffffffffffffffffffffff\n      mul\n      not\n      and\n      swap1\n      sstore\n      swap1\n      sstore\n        /* \"C/cloudCommunity.sol\":1711:1716  break */\n      jump(tag_53)\n        /* \"C/cloudCommunity.sol\":1563:1731  if (memberList[i] == member) {... */\n    tag_59:\n        /* \"C/cloudCommunity.sol\":1544:1547  i++ */\n      dup1\n      dup1\n      0x01\n      add\n      swap2\n      pop\n      pop\n        /* \"C/cloudCommunity.sol\":1501:1741  for (uint256 i = 0; i < memberList.length; i++) {... */\n      jump(tag_52)\n    tag_53:\n      pop\n        /* \"C/cloudCommunity.sol\":1769:1775  member */\n      dup1\n        /* \"C/cloudCommunity.sol\":1755:1776  MemberRemoved(member) */\n      0xffffffffffffffffffffffffffffffffffffffff\n      and\n      0x6e76fb4c77256006d9c38ec7d82b45a8c8f3c27b1d6766fffc42dfb8de684492\n      mload(0x40)\n      mload(0x40)\n      dup1\n      swap2\n      sub\n      swap1\n      log2\n        /* \"C/cloudCommunity.sol\":1224:1783  function removeMember(address member) external {... */\n      pop\n      jump\t// out\n        /* \"C/cloudCommunity.sol\":259:279  address public owner */\n    tag_22:\n      0x00\n      0x00\n      swap1\n      sload\n      swap1\n      0x0100\n      exp\n      swap1\n      div\n      0xffffffffffffffffffffffffffffffffffffffff\n      and\n      dup2\n      jump\t// out\n        /* \"C/cloudCommunity.sol\":2408:2505  function getMembers() external view returns (address[] memory) {... */\n    tag_26:\n        /* \"C/cloudCommunity.sol\":2453:2469  address[] memory */\n      0x60\n        /* \"C/cloudCommunity.sol\":2488:2498  memberList */\n      0x03\n        /* \"C/cloudCommunity.sol\":2481:2498  return memberList */\n      dup1\n      sload\n      dup1\n      0x20\n      mul\n      0x20\n      add\n      mload(0x40)\n      swap1\n      dup2\n      add\n      0x40\n      mstore\n      dup1\n      swap3\n      swap2\n      swap1\n      dup2\n      dup2\n      mstore\n      0x20\n      add\n      dup3\n      dup1\n      sload\n      dup1\n      iszero\n      tag_73\n      jumpi\n      0x20\n      mul\n      dup3\n      add\n      swap2\n      swap1\n      0x00\n      mstore\n      keccak256(0x00, 0x20)\n      swap1\n    tag_74:\n      dup2\n      0x00\n      swap1\n      sload\n      swap1\n      0x0100\n      exp\n      swap1\n      div\n      0xffffffffffffffffffffffffffffffffffffffff\n      and\n      0xffffffffffffffffffffffffffffffffffffffff\n      and\n      dup2\n      mstore\n      0x20\n      add\n      swap1\n      0x01\n      add\n      swap1\n      dup1\n      dup4\n      gt\n      tag_74\n      jumpi\n    tag_73:\n      pop\n      pop\n      pop\n      pop\n      pop\n      swap1\n      pop\n        /* \"C/cloudCommunity.sol\":2408:2505  function getMembers() external view returns (address[] memory) {... */\n      swap1\n      jump\t// out\n        /* \"C/cloudCommunity.sol\":359:386  address[] public memberList */\n    tag_32:\n      0x03\n      dup2\n      dup2\n      sload\n      dup2\n      lt\n      tag_75\n      jumpi\n      0x00\n      dup1\n      revert\n    tag_75:\n      swap1\n      0x00\n      mstore\n      keccak256(0x00, 0x20)\n      add\n      0x00\n      swap2\n      pop\n      sload\n      swap1\n      0x0100\n      exp\n      swap1\n      div\n      0xffffffffffffffffffffffffffffffffffffffff\n      and\n      dup2\n      jump\t// out\n        /* \"C/cloudCommunity.sol\":841:1114  function addMember(address member) external {... */\n    tag_36:\n        /* \"C/cloudCommunity.sol\":917:922  owner */\n      0x00\n      0x00\n      swap1\n      sload\n      swap1\n      0x0100\n      exp\n      swap1\n      div\n      0xffffffffffffffffffffffffffffffffffffffff\n      and\n        /* \"C/cloudCommunity.sol\":903:922  msg.sender == owner */\n      0xffffffffffffffffffffffffffffffffffffffff\n      and\n        /* \"C/cloudCommunity.sol\":903:913  msg.sender */\n      caller\n        /* \"C/cloudCommunity.sol\":903:922  msg.sender == owner */\n      0xffffffffffffffffffffffffffffffffffffffff\n      and\n      eq\n        /* \"C/cloudCommunity.sol\":895:953  require(msg.sender == owner, \"Only owner can add members\") */\n      tag_78\n      jumpi\n      mload(0x40)\n      0x08c379a000000000000000000000000000000000000000000000000000000000\n      dup2\n      mstore\n      0x04\n      add\n      tag_79\n      swap1\n      tag_80\n      jump\t// in\n    tag_79:\n      mload(0x40)\n      dup1\n      swap2\n      sub\n      swap1\n      revert\n    tag_78:\n        /* \"C/cloudCommunity.sol\":972:979  members */\n      0x02\n        /* \"C/cloudCommunity.sol\":972:987  members[member] */\n      0x00\n        /* \"C/cloudCommunity.sol\":980:986  member */\n      dup3\n        /* \"C/cloudCommunity.sol\":972:987  members[member] */\n      0xffffffffffffffffffffffffffffffffffffffff\n      and\n      0xffffffffffffffffffffffffffffffffffffffff\n      and\n      dup2\n      mstore\n      0x20\n      add\n      swap1\n      dup2\n      mstore\n      0x20\n      add\n      0x00\n      keccak256\n      0x00\n      swap1\n      sload\n      swap1\n      0x0100\n      exp\n      swap1\n      div\n      0xff\n      and\n        /* \"C/cloudCommunity.sol\":971:987  !members[member] */\n      iszero\n        /* \"C/cloudCommunity.sol\":963:1008  require(!members[member], \"Already a member\") */\n      tag_81\n      jumpi\n      mload(0x40)\n      0x08c379a000000000000000000000000000000000000000000000000000000000\n      dup2\n      mstore\n      0x04\n      add\n      tag_82\n      swap1\n      tag_83\n      jump\t// in\n    tag_82:\n      mload(0x40)\n      dup1\n      swap2\n      sub\n      swap1\n      revert\n    tag_81:\n        /* \"C/cloudCommunity.sol\":1036:1040  true */\n      0x01\n        /* \"C/cloudCommunity.sol\":1018:1025  members */\n      0x02\n        /* \"C/cloudCommunity.sol\":1018:1033  members[member] */\n      0x00\n        /* \"C/cloudCommunity.sol\":1026:1032  member */\n      dup4\n        /* \"C/cloudCommunity.sol\":1018:1033  members[member] */\n      0xffffffffffffffffffffffffffffffffffffffff\n      and\n      0xffffffffffffffffffffffffffffffffffffffff\n      and\n      dup2\n      mstore\n      0x20\n      add\n      swap1\n      dup2\n      mstore\n      0x20\n      add\n      0x00\n      keccak256\n      0x00\n        /* \"C/cloudCommunity.sol\":1018:1040  members[member] = true */\n      0x0100\n      exp\n      dup2\n      sload\n      dup2\n      0xff\n      mul\n      not\n      and\n      swap1\n      dup4\n      iszero\n      iszero\n      mul\n      or\n      swap1\n      sstore\n      pop\n        /* \"C/cloudCommunity.sol\":1050:1060  memberList */\n      0x03\n        /* \"C/cloudCommunity.sol\":1066:1072  member */\n      dup2\n        /* \"C/cloudCommunity.sol\":1050:1073  memberList.push(member) */\n      swap1\n      dup1\n      0x01\n      dup2\n      sload\n      add\n      dup1\n      dup3\n      sstore\n      dup1\n      swap2\n      pop\n      pop\n      0x01\n      swap1\n      sub\n      swap1\n      0x00\n      mstore\n      keccak256(0x00, 0x20)\n      add\n      0x00\n      swap1\n      swap2\n      swap1\n      swap2\n      swap1\n      swap2\n      0x0100\n      exp\n      dup2\n      sload\n      dup2\n      0xffffffffffffffffffffffffffffffffffffffff\n      mul\n      not\n      and\n      swap1\n      dup4\n      0xffffffffffffffffffffffffffffffffffffffff\n      and\n      mul\n      or\n      swap1\n      sstore\n      pop\n        /* \"C/cloudCommunity.sol\":1100:1106  member */\n      dup1\n        /* \"C/cloudCommunity.sol\":1088:1107  MemberAdded(member) */\n      0xffffffffffffffffffffffffffffffffffffffff\n      and\n      0xb251eb052afc73ffd02ffe85ad79990a8b3fed60d76dbc2fa2fdd7123dffd914\n      mload(0x40)\n      mload(0x40)\n      dup1\n      swap2\n      sub\n      swap1\n      log2\n        /* \"C/cloudCommunity.sol\":841:1114  function addMember(address member) external {... */\n      pop\n      jump\t// out\n        /* \"C/cloudCommunity.sol\":2190:2281  function getMessage() external view returns (string memory) {... */\n    tag_38:\n        /* \"C/cloudCommunity.sol\":2235:2248  string memory */\n      0x60\n        /* \"C/cloudCommunity.sol\":2267:2274  message */\n      0x01\n        /* \"C/cloudCommunity.sol\":2260:2274  return message */\n      dup1\n      sload\n      tag_86\n      swap1\n      tag_87\n      jump\t// in\n    tag_86:\n      dup1\n      0x1f\n      add\n      0x20\n      dup1\n      swap2\n      div\n      mul\n      0x20\n      add\n      mload(0x40)\n      swap1\n      dup2\n      add\n      0x40\n      mstore\n      dup1\n      swap3\n      swap2\n      swap1\n      dup2\n      dup2\n      mstore\n      0x20\n      add\n      dup3\n      dup1\n      sload\n      tag_88\n      swap1\n      tag_87\n      jump\t// in\n    tag_88:\n      dup1\n      iszero\n      tag_89\n      jumpi\n      dup1\n      0x1f\n      lt\n      tag_90\n      jumpi\n      0x0100\n      dup1\n      dup4\n      sload\n      div\n      mul\n      dup4\n      mstore\n      swap2\n      0x20\n      add\n      swap2\n      jump(tag_89)\n    tag_90:\n      dup3\n      add\n      swap2\n      swap1\n      0x00\n      mstore\n      keccak256(0x00, 0x20)\n      swap1\n    tag_91:\n      dup2\n      sload\n      dup2\n      mstore\n      swap1\n      0x01\n      add\n      swap1\n      0x20\n      add\n      dup1\n      dup4\n      gt\n      tag_91\n      jumpi\n      dup3\n      swap1\n      sub\n      0x1f\n      and\n      dup3\n      add\n      swap2\n    tag_89:\n      pop\n      pop\n      pop\n      pop\n      pop\n      swap1\n      pop\n        /* \"C/cloudCommunity.sol\":2190:2281  function getMessage() external view returns (string memory) {... */\n      swap1\n      jump\t// out\n        /* \"C/cloudCommunity.sol\":1907:2101  function storeMessage(string calldata _message) external {... */\n    tag_44:\n        /* \"C/cloudCommunity.sol\":1982:1989  members */\n      0x02\n        /* \"C/cloudCommunity.sol\":1982:2001  members[msg.sender] */\n      0x00\n        /* \"C/cloudCommunity.sol\":1990:2000  msg.sender */\n      caller\n        /* \"C/cloudCommunity.sol\":1982:2001  members[msg.sender] */\n      0xffffffffffffffffffffffffffffffffffffffff\n      and\n      0xffffffffffffffffffffffffffffffffffffffff\n      and\n      dup2\n      mstore\n      0x20\n      add\n      swap1\n      dup2\n      mstore\n      0x20\n      add\n      0x00\n      keccak256\n      0x00\n      swap1\n      sload\n      swap1\n      0x0100\n      exp\n      swap1\n      div\n      0xff\n      and\n        /* \"C/cloudCommunity.sol\":1974:2028  require(members[msg.sender], \"Not a community member\") */\n      tag_93\n      jumpi\n      mload(0x40)\n      0x08c379a000000000000000000000000000000000000000000000000000000000\n      dup2\n      mstore\n      0x04\n      add\n      tag_94\n      swap1\n      tag_95\n      jump\t// in\n    tag_94:\n      mload(0x40)\n      dup1\n      swap2\n      sub\n      swap1\n      revert\n    tag_93:\n        /* \"C/cloudCommunity.sol\":2048:2056  _message */\n      dup2\n      dup2\n        /* \"C/cloudCommunity.sol\":2038:2045  message */\n      0x01\n        /* \"C/cloudCommunity.sol\":2038:2056  message = _message */\n      swap2\n      dup3\n      tag_96\n      swap3\n      swap2\n      swap1\n      tag_97\n      jump\t// in\n    tag_96:\n      pop\n        /* \"C/cloudCommunity.sol\":2071:2094  MessageStored(_message) */\n      0x22c2a3a1dcfcd9a26676800829d4de849e614f2861c6969a30cf5881ceb19b82\n        /* \"C/cloudCommunity.sol\":2085:2093  _message */\n      dup3\n      dup3\n        /* \"C/cloudCommunity.sol\":2071:2094  MessageStored(_message) */\n      mload(0x40)\n      tag_98\n      swap3\n      swap2\n      swap1\n      tag_99\n      jump\t// in\n    tag_98:\n      mload(0x40)\n      dup1\n      swap2\n      sub\n      swap1\n      log1\n        /* \"C/cloudCommunity.sol\":1907:2101  function storeMessage(string calldata _message) external {... */\n      pop\n      pop\n      jump\t// out\n        /* \"#utility.yul\":88:205   */\n    tag_101:\n        /* \"#utility.yul\":197:198   */\n      0x00\n        /* \"#utility.yul\":194:195   */\n      0x00\n        /* \"#utility.yul\":187:199   */\n      revert\n        /* \"#utility.yul\":211:328   */\n    tag_102:\n        /* \"#utility.yul\":320:321   */\n      0x00\n        /* \"#utility.yul\":317:318   */\n      0x00\n        /* \"#utility.yul\":310:322   */\n      revert\n        /* \"#utility.yul\":334:460   */\n    tag_103:\n        /* \"#utility.yul\":371:378   */\n      0x00\n        /* \"#utility.yul\":411:453   */\n      0xffffffffffffffffffffffffffffffffffffffff\n        /* \"#utility.yul\":404:409   */\n      dup3\n        /* \"#utility.yul\":400:454   */\n      and\n        /* \"#utility.yul\":389:454   */\n      swap1\n      pop\n        /* \"#utility.yul\":334:460   */\n      swap2\n      swap1\n      pop\n      jump\t// out\n        /* \"#utility.yul\":466:562   */\n    tag_104:\n        /* \"#utility.yul\":503:510   */\n      0x00\n        /* \"#utility.yul\":532:556   */\n      tag_166\n        /* \"#utility.yul\":550:555   */\n      dup3\n        /* \"#utility.yul\":532:556   */\n      tag_103\n      jump\t// in\n    tag_166:\n        /* \"#utility.yul\":521:556   */\n      swap1\n      pop\n        /* \"#utility.yul\":466:562   */\n      swap2\n      swap1\n      pop\n      jump\t// out\n        /* \"#utility.yul\":568:690   */\n    tag_105:\n        /* \"#utility.yul\":641:665   */\n      tag_168\n        /* \"#utility.yul\":659:664   */\n      dup2\n        /* \"#utility.yul\":641:665   */\n      tag_104\n      jump\t// in\n    tag_168:\n        /* \"#utility.yul\":634:639   */\n      dup2\n        /* \"#utility.yul\":631:666   */\n      eq\n        /* \"#utility.yul\":621:684   */\n      tag_169\n      jumpi\n        /* \"#utility.yul\":680:681   */\n      0x00\n        /* \"#utility.yul\":677:678   */\n      0x00\n        /* \"#utility.yul\":670:682   */\n      revert\n        /* \"#utility.yul\":621:684   */\n    tag_169:\n        /* \"#utility.yul\":568:690   */\n      pop\n      jump\t// out\n        /* \"#utility.yul\":696:835   */\n    tag_106:\n        /* \"#utility.yul\":742:747   */\n      0x00\n        /* \"#utility.yul\":780:786   */\n      dup2\n        /* \"#utility.yul\":767:787   */\n      calldataload\n        /* \"#utility.yul\":758:787   */\n      swap1\n      pop\n        /* \"#utility.yul\":796:829   */\n      tag_171\n        /* \"#utility.yul\":823:828   */\n      dup2\n        /* \"#utility.yul\":796:829   */\n      tag_105\n      jump\t// in\n    tag_171:\n        /* \"#utility.yul\":696:835   */\n      swap3\n      swap2\n      pop\n      pop\n      jump\t// out\n        /* \"#utility.yul\":841:1170   */\n    tag_14:\n        /* \"#utility.yul\":900:906   */\n      0x00\n        /* \"#utility.yul\":949:951   */\n      0x20\n        /* \"#utility.yul\":937:946   */\n      dup3\n        /* \"#utility.yul\":928:935   */\n      dup5\n        /* \"#utility.yul\":924:947   */\n      sub\n        /* \"#utility.yul\":920:952   */\n      slt\n        /* \"#utility.yul\":917:1036   */\n      iszero\n      tag_173\n      jumpi\n        /* \"#utility.yul\":955:1034   */\n      tag_174\n      tag_101\n      jump\t// in\n    tag_174:\n        /* \"#utility.yul\":917:1036   */\n    tag_173:\n        /* \"#utility.yul\":1075:1076   */\n      0x00\n        /* \"#utility.yul\":1100:1153   */\n      tag_175\n        /* \"#utility.yul\":1145:1152   */\n      dup5\n        /* \"#utility.yul\":1136:1142   */\n      dup3\n        /* \"#utility.yul\":1125:1134   */\n      dup6\n        /* \"#utility.yul\":1121:1143   */\n      add\n        /* \"#utility.yul\":1100:1153   */\n      tag_106\n      jump\t// in\n    tag_175:\n        /* \"#utility.yul\":1090:1153   */\n      swap2\n      pop\n        /* \"#utility.yul\":1046:1163   */\n      pop\n        /* \"#utility.yul\":841:1170   */\n      swap3\n      swap2\n      pop\n      pop\n      jump\t// out\n        /* \"#utility.yul\":1176:1266   */\n    tag_107:\n        /* \"#utility.yul\":1210:1217   */\n      0x00\n        /* \"#utility.yul\":1253:1258   */\n      dup2\n        /* \"#utility.yul\":1246:1259   */\n      iszero\n        /* \"#utility.yul\":1239:1260   */\n      iszero\n        /* \"#utility.yul\":1228:1260   */\n      swap1\n      pop\n        /* \"#utility.yul\":1176:1266   */\n      swap2\n      swap1\n      pop\n      jump\t// out\n        /* \"#utility.yul\":1272:1381   */\n    tag_108:\n        /* \"#utility.yul\":1353:1374   */\n      tag_178\n        /* \"#utility.yul\":1368:1373   */\n      dup2\n        /* \"#utility.yul\":1353:1374   */\n      tag_107\n      jump\t// in\n    tag_178:\n        /* \"#utility.yul\":1348:1351   */\n      dup3\n        /* \"#utility.yul\":1341:1375   */\n      mstore\n        /* \"#utility.yul\":1272:1381   */\n      pop\n      pop\n      jump\t// out\n        /* \"#utility.yul\":1387:1597   */\n    tag_17:\n        /* \"#utility.yul\":1474:1478   */\n      0x00\n        /* \"#utility.yul\":1512:1514   */\n      0x20\n        /* \"#utility.yul\":1501:1510   */\n      dup3\n        /* \"#utility.yul\":1497:1515   */\n      add\n        /* \"#utility.yul\":1489:1515   */\n      swap1\n      pop\n        /* \"#utility.yul\":1525:1590   */\n      tag_180\n        /* \"#utility.yul\":1587:1588   */\n      0x00\n        /* \"#utility.yul\":1576:1585   */\n      dup4\n        /* \"#utility.yul\":1572:1589   */\n      add\n        /* \"#utility.yul\":1563:1569   */\n      dup5\n        /* \"#utility.yul\":1525:1590   */\n      tag_108\n      jump\t// in\n    tag_180:\n        /* \"#utility.yul\":1387:1597   */\n      swap3\n      swap2\n      pop\n      pop\n      jump\t// out\n        /* \"#utility.yul\":1603:1721   */\n    tag_109:\n        /* \"#utility.yul\":1690:1714   */\n      tag_182\n        /* \"#utility.yul\":1708:1713   */\n      dup2\n        /* \"#utility.yul\":1690:1714   */\n      tag_104\n      jump\t// in\n    tag_182:\n        /* \"#utility.yul\":1685:1688   */\n      dup3\n        /* \"#utility.yul\":1678:1715   */\n      mstore\n        /* \"#utility.yul\":1603:1721   */\n      pop\n      pop\n      jump\t// out\n        /* \"#utility.yul\":1727:1949   */\n    tag_24:\n        /* \"#utility.yul\":1820:1824   */\n      0x00\n        /* \"#utility.yul\":1858:1860   */\n      0x20\n        /* \"#utility.yul\":1847:1856   */\n      dup3\n        /* \"#utility.yul\":1843:1861   */\n      add\n        /* \"#utility.yul\":1835:1861   */\n      swap1\n      pop\n        /* \"#utility.yul\":1871:1942   */\n      tag_184\n        /* \"#utility.yul\":1939:1940   */\n      0x00\n        /* \"#utility.yul\":1928:1937   */\n      dup4\n        /* \"#utility.yul\":1924:1941   */\n      add\n        /* \"#utility.yul\":1915:1921   */\n      dup5\n        /* \"#utility.yul\":1871:1942   */\n      tag_109\n      jump\t// in\n    tag_184:\n        /* \"#utility.yul\":1727:1949   */\n      swap3\n      swap2\n      pop\n      pop\n      jump\t// out\n        /* \"#utility.yul\":1955:2069   */\n    tag_110:\n        /* \"#utility.yul\":2022:2028   */\n      0x00\n        /* \"#utility.yul\":2056:2061   */\n      dup2\n        /* \"#utility.yul\":2050:2062   */\n      mload\n        /* \"#utility.yul\":2040:2062   */\n      swap1\n      pop\n        /* \"#utility.yul\":1955:2069   */\n      swap2\n      swap1\n      pop\n      jump\t// out\n        /* \"#utility.yul\":2075:2259   */\n    tag_111:\n        /* \"#utility.yul\":2174:2185   */\n      0x00\n        /* \"#utility.yul\":2208:2214   */\n      dup3\n        /* \"#utility.yul\":2203:2206   */\n      dup3\n        /* \"#utility.yul\":2196:2215   */\n      mstore\n        /* \"#utility.yul\":2248:2252   */\n      0x20\n        /* \"#utility.yul\":2243:2246   */\n      dup3\n        /* \"#utility.yul\":2239:2253   */\n      add\n        /* \"#utility.yul\":2224:2253   */\n      swap1\n      pop\n        /* \"#utility.yul\":2075:2259   */\n      swap3\n      swap2\n      pop\n      pop\n      jump\t// out\n        /* \"#utility.yul\":2265:2397   */\n    tag_112:\n        /* \"#utility.yul\":2332:2336   */\n      0x00\n        /* \"#utility.yul\":2355:2358   */\n      dup2\n        /* \"#utility.yul\":2347:2358   */\n      swap1\n      pop\n        /* \"#utility.yul\":2385:2389   */\n      0x20\n        /* \"#utility.yul\":2380:2383   */\n      dup3\n        /* \"#utility.yul\":2376:2390   */\n      add\n        /* \"#utility.yul\":2368:2390   */\n      swap1\n      pop\n        /* \"#utility.yul\":2265:2397   */\n      swap2\n      swap1\n      pop\n      jump\t// out\n        /* \"#utility.yul\":2403:2511   */\n    tag_113:\n        /* \"#utility.yul\":2480:2504   */\n      tag_189\n        /* \"#utility.yul\":2498:2503   */\n      dup2\n        /* \"#utility.yul\":2480:2504   */\n      tag_104\n      jump\t// in\n    tag_189:\n        /* \"#utility.yul\":2475:2478   */\n      dup3\n        /* \"#utility.yul\":2468:2505   */\n      mstore\n        /* \"#utility.yul\":2403:2511   */\n      pop\n      pop\n      jump\t// out\n        /* \"#utility.yul\":2517:2696   */\n    tag_114:\n        /* \"#utility.yul\":2586:2596   */\n      0x00\n        /* \"#utility.yul\":2607:2653   */\n      tag_191\n        /* \"#utility.yul\":2649:2652   */\n      dup4\n        /* \"#utility.yul\":2641:2647   */\n      dup4\n        /* \"#utility.yul\":2607:2653   */\n      tag_113\n      jump\t// in\n    tag_191:\n        /* \"#utility.yul\":2685:2689   */\n      0x20\n        /* \"#utility.yul\":2680:2683   */\n      dup4\n        /* \"#utility.yul\":2676:2690   */\n      add\n        /* \"#utility.yul\":2662:2690   */\n      swap1\n      pop\n        /* \"#utility.yul\":2517:2696   */\n      swap3\n      swap2\n      pop\n      pop\n      jump\t// out\n        /* \"#utility.yul\":2702:2815   */\n    tag_115:\n        /* \"#utility.yul\":2772:2776   */\n      0x00\n        /* \"#utility.yul\":2804:2808   */\n      0x20\n        /* \"#utility.yul\":2799:2802   */\n      dup3\n        /* \"#utility.yul\":2795:2809   */\n      add\n        /* \"#utility.yul\":2787:2809   */\n      swap1\n      pop\n        /* \"#utility.yul\":2702:2815   */\n      swap2\n      swap1\n      pop\n      jump\t// out\n        /* \"#utility.yul\":2851:3583   */\n    tag_116:\n        /* \"#utility.yul\":2970:2973   */\n      0x00\n        /* \"#utility.yul\":2999:3053   */\n      tag_194\n        /* \"#utility.yul\":3047:3052   */\n      dup3\n        /* \"#utility.yul\":2999:3053   */\n      tag_110\n      jump\t// in\n    tag_194:\n        /* \"#utility.yul\":3069:3155   */\n      tag_195\n        /* \"#utility.yul\":3148:3154   */\n      dup2\n        /* \"#utility.yul\":3143:3146   */\n      dup6\n        /* \"#utility.yul\":3069:3155   */\n      tag_111\n      jump\t// in\n    tag_195:\n        /* \"#utility.yul\":3062:3155   */\n      swap4\n      pop\n        /* \"#utility.yul\":3179:3235   */\n      tag_196\n        /* \"#utility.yul\":3229:3234   */\n      dup4\n        /* \"#utility.yul\":3179:3235   */\n      tag_112\n      jump\t// in\n    tag_196:\n        /* \"#utility.yul\":3258:3265   */\n      dup1\n        /* \"#utility.yul\":3289:3290   */\n      0x00\n        /* \"#utility.yul\":3274:3558   */\n    tag_197:\n        /* \"#utility.yul\":3299:3305   */\n      dup4\n        /* \"#utility.yul\":3296:3297   */\n      dup2\n        /* \"#utility.yul\":3293:3306   */\n      lt\n        /* \"#utility.yul\":3274:3558   */\n      iszero\n      tag_199\n      jumpi\n        /* \"#utility.yul\":3375:3381   */\n      dup2\n        /* \"#utility.yul\":3369:3382   */\n      mload\n        /* \"#utility.yul\":3402:3465   */\n      tag_200\n        /* \"#utility.yul\":3461:3464   */\n      dup9\n        /* \"#utility.yul\":3446:3459   */\n      dup3\n        /* \"#utility.yul\":3402:3465   */\n      tag_114\n      jump\t// in\n    tag_200:\n        /* \"#utility.yul\":3395:3465   */\n      swap8\n      pop\n        /* \"#utility.yul\":3488:3548   */\n      tag_201\n        /* \"#utility.yul\":3541:3547   */\n      dup4\n        /* \"#utility.yul\":3488:3548   */\n      tag_115\n      jump\t// in\n    tag_201:\n        /* \"#utility.yul\":3478:3548   */\n      swap3\n      pop\n        /* \"#utility.yul\":3334:3558   */\n      pop\n        /* \"#utility.yul\":3321:3322   */\n      0x01\n        /* \"#utility.yul\":3318:3319   */\n      dup2\n        /* \"#utility.yul\":3314:3323   */\n      add\n        /* \"#utility.yul\":3309:3323   */\n      swap1\n      pop\n        /* \"#utility.yul\":3274:3558   */\n      jump(tag_197)\n    tag_199:\n        /* \"#utility.yul\":3278:3292   */\n      pop\n        /* \"#utility.yul\":3574:3577   */\n      dup6\n        /* \"#utility.yul\":3567:3577   */\n      swap4\n      pop\n        /* \"#utility.yul\":2975:3583   */\n      pop\n      pop\n      pop\n        /* \"#utility.yul\":2851:3583   */\n      swap3\n      swap2\n      pop\n      pop\n      jump\t// out\n        /* \"#utility.yul\":3589:3962   */\n    tag_28:\n        /* \"#utility.yul\":3732:3736   */\n      0x00\n        /* \"#utility.yul\":3770:3772   */\n      0x20\n        /* \"#utility.yul\":3759:3768   */\n      dup3\n        /* \"#utility.yul\":3755:3773   */\n      add\n        /* \"#utility.yul\":3747:3773   */\n      swap1\n      pop\n        /* \"#utility.yul\":3819:3828   */\n      dup2\n        /* \"#utility.yul\":3813:3817   */\n      dup2\n        /* \"#utility.yul\":3809:3829   */\n      sub\n        /* \"#utility.yul\":3805:3806   */\n      0x00\n        /* \"#utility.yul\":3794:3803   */\n      dup4\n        /* \"#utility.yul\":3790:3807   */\n      add\n        /* \"#utility.yul\":3783:3830   */\n      mstore\n        /* \"#utility.yul\":3847:3955   */\n      tag_203\n        /* \"#utility.yul\":3950:3954   */\n      dup2\n        /* \"#utility.yul\":3941:3947   */\n      dup5\n        /* \"#utility.yul\":3847:3955   */\n      tag_116\n      jump\t// in\n    tag_203:\n        /* \"#utility.yul\":3839:3955   */\n      swap1\n      pop\n        /* \"#utility.yul\":3589:3962   */\n      swap3\n      swap2\n      pop\n      pop\n      jump\t// out\n        /* \"#utility.yul\":3968:4045   */\n    tag_117:\n        /* \"#utility.yul\":4005:4012   */\n      0x00\n        /* \"#utility.yul\":4034:4039   */\n      dup2\n        /* \"#utility.yul\":4023:4039   */\n      swap1\n      pop\n        /* \"#utility.yul\":3968:4045   */\n      swap2\n      swap1\n      pop\n      jump\t// out\n        /* \"#utility.yul\":4051:4173   */\n    tag_118:\n        /* \"#utility.yul\":4124:4148   */\n      tag_206\n        /* \"#utility.yul\":4142:4147   */\n      dup2\n        /* \"#utility.yul\":4124:4148   */\n      tag_117\n      jump\t// in\n    tag_206:\n        /* \"#utility.yul\":4117:4122   */\n      dup2\n        /* \"#utility.yul\":4114:4149   */\n      eq\n        /* \"#utility.yul\":4104:4167   */\n      tag_207\n      jumpi\n        /* \"#utility.yul\":4163:4164   */\n      0x00\n        /* \"#utility.yul\":4160:4161   */\n      0x00\n        /* \"#utility.yul\":4153:4165   */\n      revert\n        /* \"#utility.yul\":4104:4167   */\n    tag_207:\n        /* \"#utility.yul\":4051:4173   */\n      pop\n      jump\t// out\n        /* \"#utility.yul\":4179:4318   */\n    tag_119:\n        /* \"#utility.yul\":4225:4230   */\n      0x00\n        /* \"#utility.yul\":4263:4269   */\n      dup2\n        /* \"#utility.yul\":4250:4270   */\n      calldataload\n        /* \"#utility.yul\":4241:4270   */\n      swap1\n      pop\n        /* \"#utility.yul\":4279:4312   */\n      tag_209\n        /* \"#utility.yul\":4306:4311   */\n      dup2\n        /* \"#utility.yul\":4279:4312   */\n      tag_118\n      jump\t// in\n    tag_209:\n        /* \"#utility.yul\":4179:4318   */\n      swap3\n      swap2\n      pop\n      pop\n      jump\t// out\n        /* \"#utility.yul\":4324:4653   */\n    tag_31:\n        /* \"#utility.yul\":4383:4389   */\n      0x00\n        /* \"#utility.yul\":4432:4434   */\n      0x20\n        /* \"#utility.yul\":4420:4429   */\n      dup3\n        /* \"#utility.yul\":4411:4418   */\n      dup5\n        /* \"#utility.yul\":4407:4430   */\n      sub\n        /* \"#utility.yul\":4403:4435   */\n      slt\n        /* \"#utility.yul\":4400:4519   */\n      iszero\n      tag_211\n      jumpi\n        /* \"#utility.yul\":4438:4517   */\n      tag_212\n      tag_101\n      jump\t// in\n    tag_212:\n        /* \"#utility.yul\":4400:4519   */\n    tag_211:\n        /* \"#utility.yul\":4558:4559   */\n      0x00\n        /* \"#utility.yul\":4583:4636   */\n      tag_213\n        /* \"#utility.yul\":4628:4635   */\n      dup5\n        /* \"#utility.yul\":4619:4625   */\n      dup3\n        /* \"#utility.yul\":4608:4617   */\n      dup6\n        /* \"#utility.yul\":4604:4626   */\n      add\n        /* \"#utility.yul\":4583:4636   */\n      tag_119\n      jump\t// in\n    tag_213:\n        /* \"#utility.yul\":4573:4636   */\n      swap2\n      pop\n        /* \"#utility.yul\":4529:4646   */\n      pop\n        /* \"#utility.yul\":4324:4653   */\n      swap3\n      swap2\n      pop\n      pop\n      jump\t// out\n        /* \"#utility.yul\":4659:4758   */\n    tag_120:\n        /* \"#utility.yul\":4711:4717   */\n      0x00\n        /* \"#utility.yul\":4745:4750   */\n      dup2\n        /* \"#utility.yul\":4739:4751   */\n      mload\n        /* \"#utility.yul\":4729:4751   */\n      swap1\n      pop\n        /* \"#utility.yul\":4659:4758   */\n      swap2\n      swap1\n      pop\n      jump\t// out\n        /* \"#utility.yul\":4764:4933   */\n    tag_121:\n        /* \"#utility.yul\":4848:4859   */\n      0x00\n        /* \"#utility.yul\":4882:4888   */\n      dup3\n        /* \"#utility.yul\":4877:4880   */\n      dup3\n        /* \"#utility.yul\":4870:4889   */\n      mstore\n        /* \"#utility.yul\":4922:4926   */\n      0x20\n        /* \"#utility.yul\":4917:4920   */\n      dup3\n        /* \"#utility.yul\":4913:4927   */\n      add\n        /* \"#utility.yul\":4898:4927   */\n      swap1\n      pop\n        /* \"#utility.yul\":4764:4933   */\n      swap3\n      swap2\n      pop\n      pop\n      jump\t// out\n        /* \"#utility.yul\":4939:5078   */\n    tag_122:\n        /* \"#utility.yul\":5028:5034   */\n      dup3\n        /* \"#utility.yul\":5023:5026   */\n      dup2\n        /* \"#utility.yul\":5018:5021   */\n      dup4\n        /* \"#utility.yul\":5012:5035   */\n      mcopy\n        /* \"#utility.yul\":5069:5070   */\n      0x00\n        /* \"#utility.yul\":5060:5066   */\n      dup4\n        /* \"#utility.yul\":5055:5058   */\n      dup4\n        /* \"#utility.yul\":5051:5067   */\n      add\n        /* \"#utility.yul\":5044:5071   */\n      mstore\n        /* \"#utility.yul\":4939:5078   */\n      pop\n      pop\n      pop\n      jump\t// out\n        /* \"#utility.yul\":5084:5186   */\n    tag_123:\n        /* \"#utility.yul\":5125:5131   */\n      0x00\n        /* \"#utility.yul\":5176:5178   */\n      0x1f\n        /* \"#utility.yul\":5172:5179   */\n      not\n        /* \"#utility.yul\":5167:5169   */\n      0x1f\n        /* \"#utility.yul\":5160:5165   */\n      dup4\n        /* \"#utility.yul\":5156:5170   */\n      add\n        /* \"#utility.yul\":5152:5180   */\n      and\n        /* \"#utility.yul\":5142:5180   */\n      swap1\n      pop\n        /* \"#utility.yul\":5084:5186   */\n      swap2\n      swap1\n      pop\n      jump\t// out\n        /* \"#utility.yul\":5192:5569   */\n    tag_124:\n        /* \"#utility.yul\":5280:5283   */\n      0x00\n        /* \"#utility.yul\":5308:5347   */\n      tag_219\n        /* \"#utility.yul\":5341:5346   */\n      dup3\n        /* \"#utility.yul\":5308:5347   */\n      tag_120\n      jump\t// in\n    tag_219:\n        /* \"#utility.yul\":5363:5434   */\n      tag_220\n        /* \"#utility.yul\":5427:5433   */\n      dup2\n        /* \"#utility.yul\":5422:5425   */\n      dup6\n        /* \"#utility.yul\":5363:5434   */\n      tag_121\n      jump\t// in\n    tag_220:\n        /* \"#utility.yul\":5356:5434   */\n      swap4\n      pop\n        /* \"#utility.yul\":5443:5508   */\n      tag_221\n        /* \"#utility.yul\":5501:5507   */\n      dup2\n        /* \"#utility.yul\":5496:5499   */\n      dup6\n        /* \"#utility.yul\":5489:5493   */\n      0x20\n        /* \"#utility.yul\":5482:5487   */\n      dup7\n        /* \"#utility.yul\":5478:5494   */\n      add\n        /* \"#utility.yul\":5443:5508   */\n      tag_122\n      jump\t// in\n    tag_221:\n        /* \"#utility.yul\":5533:5562   */\n      tag_222\n        /* \"#utility.yul\":5555:5561   */\n      dup2\n        /* \"#utility.yul\":5533:5562   */\n      tag_123\n      jump\t// in\n    tag_222:\n        /* \"#utility.yul\":5528:5531   */\n      dup5\n        /* \"#utility.yul\":5524:5563   */\n      add\n        /* \"#utility.yul\":5517:5563   */\n      swap2\n      pop\n        /* \"#utility.yul\":5284:5569   */\n      pop\n        /* \"#utility.yul\":5192:5569   */\n      swap3\n      swap2\n      pop\n      pop\n      jump\t// out\n        /* \"#utility.yul\":5575:5888   */\n    tag_40:\n        /* \"#utility.yul\":5688:5692   */\n      0x00\n        /* \"#utility.yul\":5726:5728   */\n      0x20\n        /* \"#utility.yul\":5715:5724   */\n      dup3\n        /* \"#utility.yul\":5711:5729   */\n      add\n        /* \"#utility.yul\":5703:5729   */\n      swap1\n      pop\n        /* \"#utility.yul\":5775:5784   */\n      dup2\n        /* \"#utility.yul\":5769:5773   */\n      dup2\n        /* \"#utility.yul\":5765:5785   */\n      sub\n        /* \"#utility.yul\":5761:5762   */\n      0x00\n        /* \"#utility.yul\":5750:5759   */\n      dup4\n        /* \"#utility.yul\":5746:5763   */\n      add\n        /* \"#utility.yul\":5739:5786   */\n      mstore\n        /* \"#utility.yul\":5803:5881   */\n      tag_224\n        /* \"#utility.yul\":5876:5880   */\n      dup2\n        /* \"#utility.yul\":5867:5873   */\n      dup5\n        /* \"#utility.yul\":5803:5881   */\n      tag_124\n      jump\t// in\n    tag_224:\n        /* \"#utility.yul\":5795:5881   */\n      swap1\n      pop\n        /* \"#utility.yul\":5575:5888   */\n      swap3\n      swap2\n      pop\n      pop\n      jump\t// out\n        /* \"#utility.yul\":5894:6011   */\n    tag_125:\n        /* \"#utility.yul\":6003:6004   */\n      0x00\n        /* \"#utility.yul\":6000:6001   */\n      0x00\n        /* \"#utility.yul\":5993:6005   */\n      revert\n        /* \"#utility.yul\":6017:6134   */\n    tag_126:\n        /* \"#utility.yul\":6126:6127   */\n      0x00\n        /* \"#utility.yul\":6123:6124   */\n      0x00\n        /* \"#utility.yul\":6116:6128   */\n      revert\n        /* \"#utility.yul\":6140:6257   */\n    tag_127:\n        /* \"#utility.yul\":6249:6250   */\n      0x00\n        /* \"#utility.yul\":6246:6247   */\n      0x00\n        /* \"#utility.yul\":6239:6251   */\n      revert\n        /* \"#utility.yul\":6277:6830   */\n    tag_128:\n        /* \"#utility.yul\":6335:6343   */\n      0x00\n        /* \"#utility.yul\":6345:6351   */\n      0x00\n        /* \"#utility.yul\":6395:6398   */\n      dup4\n        /* \"#utility.yul\":6388:6392   */\n      0x1f\n        /* \"#utility.yul\":6380:6386   */\n      dup5\n        /* \"#utility.yul\":6376:6393   */\n      add\n        /* \"#utility.yul\":6372:6399   */\n      slt\n        /* \"#utility.yul\":6362:6484   */\n      tag_229\n      jumpi\n        /* \"#utility.yul\":6403:6482   */\n      tag_230\n      tag_125\n      jump\t// in\n    tag_230:\n        /* \"#utility.yul\":6362:6484   */\n    tag_229:\n        /* \"#utility.yul\":6516:6522   */\n      dup3\n        /* \"#utility.yul\":6503:6523   */\n      calldataload\n        /* \"#utility.yul\":6493:6523   */\n      swap1\n      pop\n        /* \"#utility.yul\":6546:6564   */\n      0xffffffffffffffff\n        /* \"#utility.yul\":6538:6544   */\n      dup2\n        /* \"#utility.yul\":6535:6565   */\n      gt\n        /* \"#utility.yul\":6532:6649   */\n      iszero\n      tag_231\n      jumpi\n        /* \"#utility.yul\":6568:6647   */\n      tag_232\n      tag_126\n      jump\t// in\n    tag_232:\n        /* \"#utility.yul\":6532:6649   */\n    tag_231:\n        /* \"#utility.yul\":6682:6686   */\n      0x20\n        /* \"#utility.yul\":6674:6680   */\n      dup4\n        /* \"#utility.yul\":6670:6687   */\n      add\n        /* \"#utility.yul\":6658:6687   */\n      swap2\n      pop\n        /* \"#utility.yul\":6736:6739   */\n      dup4\n        /* \"#utility.yul\":6728:6732   */\n      0x01\n        /* \"#utility.yul\":6720:6726   */\n      dup3\n        /* \"#utility.yul\":6716:6733   */\n      mul\n        /* \"#utility.yul\":6706:6714   */\n      dup4\n        /* \"#utility.yul\":6702:6734   */\n      add\n        /* \"#utility.yul\":6699:6740   */\n      gt\n        /* \"#utility.yul\":6696:6824   */\n      iszero\n      tag_233\n      jumpi\n        /* \"#utility.yul\":6743:6822   */\n      tag_234\n      tag_127\n      jump\t// in\n    tag_234:\n        /* \"#utility.yul\":6696:6824   */\n    tag_233:\n        /* \"#utility.yul\":6277:6830   */\n      swap3\n      pop\n      swap3\n      swap1\n      pop\n      jump\t// out\n        /* \"#utility.yul\":6836:7365   */\n    tag_43:\n        /* \"#utility.yul\":6907:6913   */\n      0x00\n        /* \"#utility.yul\":6915:6921   */\n      0x00\n        /* \"#utility.yul\":6964:6966   */\n      0x20\n        /* \"#utility.yul\":6952:6961   */\n      dup4\n        /* \"#utility.yul\":6943:6950   */\n      dup6\n        /* \"#utility.yul\":6939:6962   */\n      sub\n        /* \"#utility.yul\":6935:6967   */\n      slt\n        /* \"#utility.yul\":6932:7051   */\n      iszero\n      tag_236\n      jumpi\n        /* \"#utility.yul\":6970:7049   */\n      tag_237\n      tag_101\n      jump\t// in\n    tag_237:\n        /* \"#utility.yul\":6932:7051   */\n    tag_236:\n        /* \"#utility.yul\":7118:7119   */\n      0x00\n        /* \"#utility.yul\":7107:7116   */\n      dup4\n        /* \"#utility.yul\":7103:7120   */\n      add\n        /* \"#utility.yul\":7090:7121   */\n      calldataload\n        /* \"#utility.yul\":7148:7166   */\n      0xffffffffffffffff\n        /* \"#utility.yul\":7140:7146   */\n      dup2\n        /* \"#utility.yul\":7137:7167   */\n      gt\n        /* \"#utility.yul\":7134:7251   */\n      iszero\n      tag_238\n      jumpi\n        /* \"#utility.yul\":7170:7249   */\n      tag_239\n      tag_102\n      jump\t// in\n    tag_239:\n        /* \"#utility.yul\":7134:7251   */\n    tag_238:\n        /* \"#utility.yul\":7283:7348   */\n      tag_240\n        /* \"#utility.yul\":7340:7347   */\n      dup6\n        /* \"#utility.yul\":7331:7337   */\n      dup3\n        /* \"#utility.yul\":7320:7329   */\n      dup7\n        /* \"#utility.yul\":7316:7338   */\n      add\n        /* \"#utility.yul\":7283:7348   */\n      tag_128\n      jump\t// in\n    tag_240:\n        /* \"#utility.yul\":7265:7348   */\n      swap3\n      pop\n      swap3\n      pop\n        /* \"#utility.yul\":7061:7358   */\n      pop\n        /* \"#utility.yul\":6836:7365   */\n      swap3\n      pop\n      swap3\n      swap1\n      pop\n      jump\t// out\n        /* \"#utility.yul\":7371:7550   */\n    tag_129:\n        /* \"#utility.yul\":7511:7542   */\n      0x4f6e6c79206f776e65722063616e2072656d6f7665206d656d62657273000000\n        /* \"#utility.yul\":7507:7508   */\n      0x00\n        /* \"#utility.yul\":7499:7505   */\n      dup3\n        /* \"#utility.yul\":7495:7509   */\n      add\n        /* \"#utility.yul\":7488:7543   */\n      mstore\n        /* \"#utility.yul\":7371:7550   */\n      pop\n      jump\t// out\n        /* \"#utility.yul\":7556:7922   */\n    tag_130:\n        /* \"#utility.yul\":7698:7701   */\n      0x00\n        /* \"#utility.yul\":7719:7786   */\n      tag_243\n        /* \"#utility.yul\":7783:7785   */\n      0x1d\n        /* \"#utility.yul\":7778:7781   */\n      dup4\n        /* \"#utility.yul\":7719:7786   */\n      tag_121\n      jump\t// in\n    tag_243:\n        /* \"#utility.yul\":7712:7786   */\n      swap2\n      pop\n        /* \"#utility.yul\":7795:7888   */\n      tag_244\n        /* \"#utility.yul\":7884:7887   */\n      dup3\n        /* \"#utility.yul\":7795:7888   */\n      tag_129\n      jump\t// in\n    tag_244:\n        /* \"#utility.yul\":7913:7915   */\n      0x20\n        /* \"#utility.yul\":7908:7911   */\n      dup3\n        /* \"#utility.yul\":7904:7916   */\n      add\n        /* \"#utility.yul\":7897:7916   */\n      swap1\n      pop\n        /* \"#utility.yul\":7556:7922   */\n      swap2\n      swap1\n      pop\n      jump\t// out\n        /* \"#utility.yul\":7928:8347   */\n    tag_48:\n        /* \"#utility.yul\":8094:8098   */\n      0x00\n        /* \"#utility.yul\":8132:8134   */\n      0x20\n        /* \"#utility.yul\":8121:8130   */\n      dup3\n        /* \"#utility.yul\":8117:8135   */\n      add\n        /* \"#utility.yul\":8109:8135   */\n      swap1\n      pop\n        /* \"#utility.yul\":8181:8190   */\n      dup2\n        /* \"#utility.yul\":8175:8179   */\n      dup2\n        /* \"#utility.yul\":8171:8191   */\n      sub\n        /* \"#utility.yul\":8167:8168   */\n      0x00\n        /* \"#utility.yul\":8156:8165   */\n      dup4\n        /* \"#utility.yul\":8152:8169   */\n      add\n        /* \"#utility.yul\":8145:8192   */\n      mstore\n        /* \"#utility.yul\":8209:8340   */\n      tag_246\n        /* \"#utility.yul\":8335:8339   */\n      dup2\n        /* \"#utility.yul\":8209:8340   */\n      tag_130\n      jump\t// in\n    tag_246:\n        /* \"#utility.yul\":8201:8340   */\n      swap1\n      pop\n        /* \"#utility.yul\":7928:8347   */\n      swap2\n      swap1\n      pop\n      jump\t// out\n        /* \"#utility.yul\":8353:8515   */\n    tag_131:\n        /* \"#utility.yul\":8493:8507   */\n      0x4e6f742061206d656d6265720000000000000000000000000000000000000000\n        /* \"#utility.yul\":8489:8490   */\n      0x00\n        /* \"#utility.yul\":8481:8487   */\n      dup3\n        /* \"#utility.yul\":8477:8491   */\n      add\n        /* \"#utility.yul\":8470:8508   */\n      mstore\n        /* \"#utility.yul\":8353:8515   */\n      pop\n      jump\t// out\n        /* \"#utility.yul\":8521:8887   */\n    tag_132:\n        /* \"#utility.yul\":8663:8666   */\n      0x00\n        /* \"#utility.yul\":8684:8751   */\n      tag_249\n        /* \"#utility.yul\":8748:8750   */\n      0x0c\n        /* \"#utility.yul\":8743:8746   */\n      dup4\n        /* \"#utility.yul\":8684:8751   */\n      tag_121\n      jump\t// in\n    tag_249:\n        /* \"#utility.yul\":8677:8751   */\n      swap2\n      pop\n        /* \"#utility.yul\":8760:8853   */\n      tag_250\n        /* \"#utility.yul\":8849:8852   */\n      dup3\n        /* \"#utility.yul\":8760:8853   */\n      tag_131\n      jump\t// in\n    tag_250:\n        /* \"#utility.yul\":8878:8880   */\n      0x20\n        /* \"#utility.yul\":8873:8876   */\n      dup3\n        /* \"#utility.yul\":8869:8881   */\n      add\n        /* \"#utility.yul\":8862:8881   */\n      swap1\n      pop\n        /* \"#utility.yul\":8521:8887   */\n      swap2\n      swap1\n      pop\n      jump\t// out\n        /* \"#utility.yul\":8893:9312   */\n    tag_51:\n        /* \"#utility.yul\":9059:9063   */\n      0x00\n        /* \"#utility.yul\":9097:9099   */\n      0x20\n        /* \"#utility.yul\":9086:9095   */\n      dup3\n        /* \"#utility.yul\":9082:9100   */\n      add\n        /* \"#utility.yul\":9074:9100   */\n      swap1\n      pop\n        /* \"#utility.yul\":9146:9155   */\n      dup2\n        /* \"#utility.yul\":9140:9144   */\n      dup2\n        /* \"#utility.yul\":9136:9156   */\n      sub\n        /* \"#utility.yul\":9132:9133   */\n      0x00\n        /* \"#utility.yul\":9121:9130   */\n      dup4\n        /* \"#utility.yul\":9117:9134   */\n      add\n        /* \"#utility.yul\":9110:9157   */\n      mstore\n        /* \"#utility.yul\":9174:9305   */\n      tag_252\n        /* \"#utility.yul\":9300:9304   */\n      dup2\n        /* \"#utility.yul\":9174:9305   */\n      tag_132\n      jump\t// in\n    tag_252:\n        /* \"#utility.yul\":9166:9305   */\n      swap1\n      pop\n        /* \"#utility.yul\":8893:9312   */\n      swap2\n      swap1\n      pop\n      jump\t// out\n        /* \"#utility.yul\":9318:9498   */\n    tag_57:\n        /* \"#utility.yul\":9366:9443   */\n      0x4e487b7100000000000000000000000000000000000000000000000000000000\n        /* \"#utility.yul\":9363:9364   */\n      0x00\n        /* \"#utility.yul\":9356:9444   */\n      mstore\n        /* \"#utility.yul\":9463:9467   */\n      0x32\n        /* \"#utility.yul\":9460:9461   */\n      0x04\n        /* \"#utility.yul\":9453:9468   */\n      mstore\n        /* \"#utility.yul\":9487:9491   */\n      0x24\n        /* \"#utility.yul\":9484:9485   */\n      0x00\n        /* \"#utility.yul\":9477:9492   */\n      revert\n        /* \"#utility.yul\":9504:9684   */\n    tag_133:\n        /* \"#utility.yul\":9552:9629   */\n      0x4e487b7100000000000000000000000000000000000000000000000000000000\n        /* \"#utility.yul\":9549:9550   */\n      0x00\n        /* \"#utility.yul\":9542:9630   */\n      mstore\n        /* \"#utility.yul\":9649:9653   */\n      0x11\n        /* \"#utility.yul\":9646:9647   */\n      0x04\n        /* \"#utility.yul\":9639:9654   */\n      mstore\n        /* \"#utility.yul\":9673:9677   */\n      0x24\n        /* \"#utility.yul\":9670:9671   */\n      0x00\n        /* \"#utility.yul\":9663:9678   */\n      revert\n        /* \"#utility.yul\":9690:9884   */\n    tag_61:\n        /* \"#utility.yul\":9730:9734   */\n      0x00\n        /* \"#utility.yul\":9750:9770   */\n      tag_256\n        /* \"#utility.yul\":9768:9769   */\n      dup3\n        /* \"#utility.yul\":9750:9770   */\n      tag_117\n      jump\t// in\n    tag_256:\n        /* \"#utility.yul\":9745:9770   */\n      swap2\n      pop\n        /* \"#utility.yul\":9784:9804   */\n      tag_257\n        /* \"#utility.yul\":9802:9803   */\n      dup4\n        /* \"#utility.yul\":9784:9804   */\n      tag_117\n      jump\t// in\n    tag_257:\n        /* \"#utility.yul\":9779:9804   */\n      swap3\n      pop\n        /* \"#utility.yul\":9828:9829   */\n      dup3\n        /* \"#utility.yul\":9825:9826   */\n      dup3\n        /* \"#utility.yul\":9821:9830   */\n      sub\n        /* \"#utility.yul\":9813:9830   */\n      swap1\n      pop\n        /* \"#utility.yul\":9852:9853   */\n      dup2\n        /* \"#utility.yul\":9846:9850   */\n      dup2\n        /* \"#utility.yul\":9843:9854   */\n      gt\n        /* \"#utility.yul\":9840:9877   */\n      iszero\n      tag_258\n      jumpi\n        /* \"#utility.yul\":9857:9875   */\n      tag_259\n      tag_133\n      jump\t// in\n    tag_259:\n        /* \"#utility.yul\":9840:9877   */\n    tag_258:\n        /* \"#utility.yul\":9690:9884   */\n      swap3\n      swap2\n      pop\n      pop\n      jump\t// out\n        /* \"#utility.yul\":9890:10070   */\n    tag_70:\n        /* \"#utility.yul\":9938:10015   */\n      0x4e487b7100000000000000000000000000000000000000000000000000000000\n        /* \"#utility.yul\":9935:9936   */\n      0x00\n        /* \"#utility.yul\":9928:10016   */\n      mstore\n        /* \"#utility.yul\":10035:10039   */\n      0x31\n        /* \"#utility.yul\":10032:10033   */\n      0x04\n        /* \"#utility.yul\":10025:10040   */\n      mstore\n        /* \"#utility.yul\":10059:10063   */\n      0x24\n        /* \"#utility.yul\":10056:10057   */\n      0x00\n        /* \"#utility.yul\":10049:10064   */\n      revert\n        /* \"#utility.yul\":10076:10252   */\n    tag_134:\n        /* \"#utility.yul\":10216:10244   */\n      0x4f6e6c79206f776e65722063616e20616464206d656d62657273000000000000\n        /* \"#utility.yul\":10212:10213   */\n      0x00\n        /* \"#utility.yul\":10204:10210   */\n      dup3\n        /* \"#utility.yul\":10200:10214   */\n      add\n        /* \"#utility.yul\":10193:10245   */\n      mstore\n        /* \"#utility.yul\":10076:10252   */\n      pop\n      jump\t// out\n        /* \"#utility.yul\":10258:10624   */\n    tag_135:\n        /* \"#utility.yul\":10400:10403   */\n      0x00\n        /* \"#utility.yul\":10421:10488   */\n      tag_263\n        /* \"#utility.yul\":10485:10487   */\n      0x1a\n        /* \"#utility.yul\":10480:10483   */\n      dup4\n        /* \"#utility.yul\":10421:10488   */\n      tag_121\n      jump\t// in\n    tag_263:\n        /* \"#utility.yul\":10414:10488   */\n      swap2\n      pop\n        /* \"#utility.yul\":10497:10590   */\n      tag_264\n        /* \"#utility.yul\":10586:10589   */\n      dup3\n        /* \"#utility.yul\":10497:10590   */\n      tag_134\n      jump\t// in\n    tag_264:\n        /* \"#utility.yul\":10615:10617   */\n      0x20\n        /* \"#utility.yul\":10610:10613   */\n      dup3\n        /* \"#utility.yul\":10606:10618   */\n      add\n        /* \"#utility.yul\":10599:10618   */\n      swap1\n      pop\n        /* \"#utility.yul\":10258:10624   */\n      swap2\n      swap1\n      pop\n      jump\t// out\n        /* \"#utility.yul\":10630:11049   */\n    tag_80:\n        /* \"#utility.yul\":10796:10800   */\n      0x00\n        /* \"#utility.yul\":10834:10836   */\n      0x20\n        /* \"#utility.yul\":10823:10832   */\n      dup3\n        /* \"#utility.yul\":10819:10837   */\n      add\n        /* \"#utility.yul\":10811:10837   */\n      swap1\n      pop\n        /* \"#utility.yul\":10883:10892   */\n      dup2\n        /* \"#utility.yul\":10877:10881   */\n      dup2\n        /* \"#utility.yul\":10873:10893   */\n      sub\n        /* \"#utility.yul\":10869:10870   */\n      0x00\n        /* \"#utility.yul\":10858:10867   */\n      dup4\n        /* \"#utility.yul\":10854:10871   */\n      add\n        /* \"#utility.yul\":10847:10894   */\n      mstore\n        /* \"#utility.yul\":10911:11042   */\n      tag_266\n        /* \"#utility.yul\":11037:11041   */\n      dup2\n        /* \"#utility.yul\":10911:11042   */\n      tag_135\n      jump\t// in\n    tag_266:\n        /* \"#utility.yul\":10903:11042   */\n      swap1\n      pop\n        /* \"#utility.yul\":10630:11049   */\n      swap2\n      swap1\n      pop\n      jump\t// out\n        /* \"#utility.yul\":11055:11221   */\n    tag_136:\n        /* \"#utility.yul\":11195:11213   */\n      0x416c72656164792061206d656d62657200000000000000000000000000000000\n        /* \"#utility.yul\":11191:11192   */\n      0x00\n        /* \"#utility.yul\":11183:11189   */\n      dup3\n        /* \"#utility.yul\":11179:11193   */\n      add\n        /* \"#utility.yul\":11172:11214   */\n      mstore\n        /* \"#utility.yul\":11055:11221   */\n      pop\n      jump\t// out\n        /* \"#utility.yul\":11227:11593   */\n    tag_137:\n        /* \"#utility.yul\":11369:11372   */\n      0x00\n        /* \"#utility.yul\":11390:11457   */\n      tag_269\n        /* \"#utility.yul\":11454:11456   */\n      0x10\n        /* \"#utility.yul\":11449:11452   */\n      dup4\n        /* \"#utility.yul\":11390:11457   */\n      tag_121\n      jump\t// in\n    tag_269:\n        /* \"#utility.yul\":11383:11457   */\n      swap2\n      pop\n        /* \"#utility.yul\":11466:11559   */\n      tag_270\n        /* \"#utility.yul\":11555:11558   */\n      dup3\n        /* \"#utility.yul\":11466:11559   */\n      tag_136\n      jump\t// in\n    tag_270:\n        /* \"#utility.yul\":11584:11586   */\n      0x20\n        /* \"#utility.yul\":11579:11582   */\n      dup3\n        /* \"#utility.yul\":11575:11587   */\n      add\n        /* \"#utility.yul\":11568:11587   */\n      swap1\n      pop\n        /* \"#utility.yul\":11227:11593   */\n      swap2\n      swap1\n      pop\n      jump\t// out\n        /* \"#utility.yul\":11599:12018   */\n    tag_83:\n        /* \"#utility.yul\":11765:11769   */\n      0x00\n        /* \"#utility.yul\":11803:11805   */\n      0x20\n        /* \"#utility.yul\":11792:11801   */\n      dup3\n        /* \"#utility.yul\":11788:11806   */\n      add\n        /* \"#utility.yul\":11780:11806   */\n      swap1\n      pop\n        /* \"#utility.yul\":11852:11861   */\n      dup2\n        /* \"#utility.yul\":11846:11850   */\n      dup2\n        /* \"#utility.yul\":11842:11862   */\n      sub\n        /* \"#utility.yul\":11838:11839   */\n      0x00\n        /* \"#utility.yul\":11827:11836   */\n      dup4\n        /* \"#utility.yul\":11823:11840   */\n      add\n        /* \"#utility.yul\":11816:11863   */\n      mstore\n        /* \"#utility.yul\":11880:12011   */\n      tag_272\n        /* \"#utility.yul\":12006:12010   */\n      dup2\n        /* \"#utility.yul\":11880:12011   */\n      tag_137\n      jump\t// in\n    tag_272:\n        /* \"#utility.yul\":11872:12011   */\n      swap1\n      pop\n        /* \"#utility.yul\":11599:12018   */\n      swap2\n      swap1\n      pop\n      jump\t// out\n        /* \"#utility.yul\":12024:12204   */\n    tag_138:\n        /* \"#utility.yul\":12072:12149   */\n      0x4e487b7100000000000000000000000000000000000000000000000000000000\n        /* \"#utility.yul\":12069:12070   */\n      0x00\n        /* \"#utility.yul\":12062:12150   */\n      mstore\n        /* \"#utility.yul\":12169:12173   */\n      0x22\n        /* \"#utility.yul\":12166:12167   */\n      0x04\n        /* \"#utility.yul\":12159:12174   */\n      mstore\n        /* \"#utility.yul\":12193:12197   */\n      0x24\n        /* \"#utility.yul\":12190:12191   */\n      0x00\n        /* \"#utility.yul\":12183:12198   */\n      revert\n        /* \"#utility.yul\":12210:12530   */\n    tag_87:\n        /* \"#utility.yul\":12254:12260   */\n      0x00\n        /* \"#utility.yul\":12291:12292   */\n      0x02\n        /* \"#utility.yul\":12285:12289   */\n      dup3\n        /* \"#utility.yul\":12281:12293   */\n      div\n        /* \"#utility.yul\":12271:12293   */\n      swap1\n      pop\n        /* \"#utility.yul\":12338:12339   */\n      0x01\n        /* \"#utility.yul\":12332:12336   */\n      dup3\n        /* \"#utility.yul\":12328:12340   */\n      and\n        /* \"#utility.yul\":12359:12377   */\n      dup1\n        /* \"#utility.yul\":12349:12430   */\n      tag_275\n      jumpi\n        /* \"#utility.yul\":12415:12419   */\n      0x7f\n        /* \"#utility.yul\":12407:12413   */\n      dup3\n        /* \"#utility.yul\":12403:12420   */\n      and\n        /* \"#utility.yul\":12393:12420   */\n      swap2\n      pop\n        /* \"#utility.yul\":12349:12430   */\n    tag_275:\n        /* \"#utility.yul\":12477:12479   */\n      0x20\n        /* \"#utility.yul\":12469:12475   */\n      dup3\n        /* \"#utility.yul\":12466:12480   */\n      lt\n        /* \"#utility.yul\":12446:12464   */\n      dup2\n        /* \"#utility.yul\":12443:12481   */\n      sub\n        /* \"#utility.yul\":12440:12524   */\n      tag_276\n      jumpi\n        /* \"#utility.yul\":12496:12514   */\n      tag_277\n      tag_138\n      jump\t// in\n    tag_277:\n        /* \"#utility.yul\":12440:12524   */\n    tag_276:\n        /* \"#utility.yul\":12261:12530   */\n      pop\n        /* \"#utility.yul\":12210:12530   */\n      swap2\n      swap1\n      pop\n      jump\t// out\n        /* \"#utility.yul\":12536:12708   */\n    tag_139:\n        /* \"#utility.yul\":12676:12700   */\n      0x4e6f74206120636f6d6d756e697479206d656d62657200000000000000000000\n        /* \"#utility.yul\":12672:12673   */\n      0x00\n        /* \"#utility.yul\":12664:12670   */\n      dup3\n        /* \"#utility.yul\":12660:12674   */\n      add\n        /* \"#utility.yul\":12653:12701   */\n      mstore\n        /* \"#utility.yul\":12536:12708   */\n      pop\n      jump\t// out\n        /* \"#utility.yul\":12714:13080   */\n    tag_140:\n        /* \"#utility.yul\":12856:12859   */\n      0x00\n        /* \"#utility.yul\":12877:12944   */\n      tag_280\n        /* \"#utility.yul\":12941:12943   */\n      0x16\n        /* \"#utility.yul\":12936:12939   */\n      dup4\n        /* \"#utility.yul\":12877:12944   */\n      tag_121\n      jump\t// in\n    tag_280:\n        /* \"#utility.yul\":12870:12944   */\n      swap2\n      pop\n        /* \"#utility.yul\":12953:13046   */\n      tag_281\n        /* \"#utility.yul\":13042:13045   */\n      dup3\n        /* \"#utility.yul\":12953:13046   */\n      tag_139\n      jump\t// in\n    tag_281:\n        /* \"#utility.yul\":13071:13073   */\n      0x20\n        /* \"#utility.yul\":13066:13069   */\n      dup3\n        /* \"#utility.yul\":13062:13074   */\n      add\n        /* \"#utility.yul\":13055:13074   */\n      swap1\n      pop\n        /* \"#utility.yul\":12714:13080   */\n      swap2\n      swap1\n      pop\n      jump\t// out\n        /* \"#utility.yul\":13086:13505   */\n    tag_95:\n        /* \"#utility.yul\":13252:13256   */\n      0x00\n        /* \"#utility.yul\":13290:13292   */\n      0x20\n        /* \"#utility.yul\":13279:13288   */\n      dup3\n        /* \"#utility.yul\":13275:13293   */\n      add\n        /* \"#utility.yul\":13267:13293   */\n      swap1\n      pop\n        /* \"#utility.yul\":13339:13348   */\n      dup2\n        /* \"#utility.yul\":13333:13337   */\n      dup2\n        /* \"#utility.yul\":13329:13349   */\n      sub\n        /* \"#utility.yul\":13325:13326   */\n      0x00\n        /* \"#utility.yul\":13314:13323   */\n      dup4\n        /* \"#utility.yul\":13310:13327   */\n      add\n        /* \"#utility.yul\":13303:13350   */\n      mstore\n        /* \"#utility.yul\":13367:13498   */\n      tag_283\n        /* \"#utility.yul\":13493:13497   */\n      dup2\n        /* \"#utility.yul\":13367:13498   */\n      tag_140\n      jump\t// in\n    tag_283:\n        /* \"#utility.yul\":13359:13498   */\n      swap1\n      pop\n        /* \"#utility.yul\":13086:13505   */\n      swap2\n      swap1\n      pop\n      jump\t// out\n        /* \"#utility.yul\":13511:13608   */\n    tag_141:\n        /* \"#utility.yul\":13570:13576   */\n      0x00\n        /* \"#utility.yul\":13598:13601   */\n      dup3\n        /* \"#utility.yul\":13588:13601   */\n      swap1\n      pop\n        /* \"#utility.yul\":13511:13608   */\n      swap3\n      swap2\n      pop\n      pop\n      jump\t// out\n        /* \"#utility.yul\":13614:13794   */\n    tag_142:\n        /* \"#utility.yul\":13662:13739   */\n      0x4e487b7100000000000000000000000000000000000000000000000000000000\n        /* \"#utility.yul\":13659:13660   */\n      0x00\n        /* \"#utility.yul\":13652:13740   */\n      mstore\n        /* \"#utility.yul\":13759:13763   */\n      0x41\n        /* \"#utility.yul\":13756:13757   */\n      0x04\n        /* \"#utility.yul\":13749:13764   */\n      mstore\n        /* \"#utility.yul\":13783:13787   */\n      0x24\n        /* \"#utility.yul\":13780:13781   */\n      0x00\n        /* \"#utility.yul\":13773:13788   */\n      revert\n        /* \"#utility.yul\":13800:13941   */\n    tag_143:\n        /* \"#utility.yul\":13849:13853   */\n      0x00\n        /* \"#utility.yul\":13872:13875   */\n      dup2\n        /* \"#utility.yul\":13864:13875   */\n      swap1\n      pop\n        /* \"#utility.yul\":13895:13898   */\n      dup2\n        /* \"#utility.yul\":13892:13893   */\n      0x00\n        /* \"#utility.yul\":13885:13899   */\n      mstore\n        /* \"#utility.yul\":13929:13933   */\n      0x20\n        /* \"#utility.yul\":13926:13927   */\n      0x00\n        /* \"#utility.yul\":13916:13934   */\n      keccak256\n        /* \"#utility.yul\":13908:13934   */\n      swap1\n      pop\n        /* \"#utility.yul\":13800:13941   */\n      swap2\n      swap1\n      pop\n      jump\t// out\n        /* \"#utility.yul\":13947:14040   */\n    tag_144:\n        /* \"#utility.yul\":13984:13990   */\n      0x00\n        /* \"#utility.yul\":14031:14033   */\n      0x20\n        /* \"#utility.yul\":14026:14028   */\n      0x1f\n        /* \"#utility.yul\":14019:14024   */\n      dup4\n        /* \"#utility.yul\":14015:14029   */\n      add\n        /* \"#utility.yul\":14011:14034   */\n      div\n        /* \"#utility.yul\":14001:14034   */\n      swap1\n      pop\n        /* \"#utility.yul\":13947:14040   */\n      swap2\n      swap1\n      pop\n      jump\t// out\n        /* \"#utility.yul\":14046:14153   */\n    tag_145:\n        /* \"#utility.yul\":14090:14098   */\n      0x00\n        /* \"#utility.yul\":14140:14145   */\n      dup3\n        /* \"#utility.yul\":14134:14138   */\n      dup3\n        /* \"#utility.yul\":14130:14146   */\n      shl\n        /* \"#utility.yul\":14109:14146   */\n      swap1\n      pop\n        /* \"#utility.yul\":14046:14153   */\n      swap3\n      swap2\n      pop\n      pop\n      jump\t// out\n        /* \"#utility.yul\":14159:14552   */\n    tag_146:\n        /* \"#utility.yul\":14228:14234   */\n      0x00\n        /* \"#utility.yul\":14278:14279   */\n      0x08\n        /* \"#utility.yul\":14266:14276   */\n      dup4\n        /* \"#utility.yul\":14262:14280   */\n      mul\n        /* \"#utility.yul\":14301:14398   */\n      tag_290\n        /* \"#utility.yul\":14331:14397   */\n      0xffffffffffffffffffffffffffffffffffffffffffffffffffffffffffffffff\n        /* \"#utility.yul\":14320:14329   */\n      dup3\n        /* \"#utility.yul\":14301:14398   */\n      tag_145\n      jump\t// in\n    tag_290:\n        /* \"#utility.yul\":14419:14458   */\n      tag_291\n        /* \"#utility.yul\":14449:14457   */\n      dup7\n        /* \"#utility.yul\":14438:14447   */\n      dup4\n        /* \"#utility.yul\":14419:14458   */\n      tag_145\n      jump\t// in\n    tag_291:\n        /* \"#utility.yul\":14407:14458   */\n      swap6\n      pop\n        /* \"#utility.yul\":14491:14495   */\n      dup1\n        /* \"#utility.yul\":14487:14496   */\n      not\n        /* \"#utility.yul\":14480:14485   */\n      dup5\n        /* \"#utility.yul\":14476:14497   */\n      and\n        /* \"#utility.yul\":14467:14497   */\n      swap4\n      pop\n        /* \"#utility.yul\":14540:14544   */\n      dup1\n        /* \"#utility.yul\":14530:14538   */\n      dup7\n        /* \"#utility.yul\":14526:14545   */\n      and\n        /* \"#utility.yul\":14519:14524   */\n      dup5\n        /* \"#utility.yul\":14516:14546   */\n      or\n        /* \"#utility.yul\":14506:14546   */\n      swap3\n      pop\n        /* \"#utility.yul\":14235:14552   */\n      pop\n      pop\n        /* \"#utility.yul\":14159:14552   */\n      swap4\n      swap3\n      pop\n      pop\n      pop\n      jump\t// out\n        /* \"#utility.yul\":14558:14618   */\n    tag_147:\n        /* \"#utility.yul\":14586:14589   */\n      0x00\n        /* \"#utility.yul\":14607:14612   */\n      dup2\n        /* \"#utility.yul\":14600:14612   */\n      swap1\n      pop\n        /* \"#utility.yul\":14558:14618   */\n      swap2\n      swap1\n      pop\n      jump\t// out\n        /* \"#utility.yul\":14624:14766   */\n    tag_148:\n        /* \"#utility.yul\":14674:14683   */\n      0x00\n        /* \"#utility.yul\":14707:14760   */\n      tag_294\n        /* \"#utility.yul\":14725:14759   */\n      tag_295\n        /* \"#utility.yul\":14734:14758   */\n      tag_296\n        /* \"#utility.yul\":14752:14757   */\n      dup5\n        /* \"#utility.yul\":14734:14758   */\n      tag_117\n      jump\t// in\n    tag_296:\n        /* \"#utility.yul\":14725:14759   */\n      tag_147\n      jump\t// in\n    tag_295:\n        /* \"#utility.yul\":14707:14760   */\n      tag_117\n      jump\t// in\n    tag_294:\n        /* \"#utility.yul\":14694:14760   */\n      swap1\n      pop\n        /* \"#utility.yul\":14624:14766   */\n      swap2\n      swap1\n      pop\n      jump\t// out\n        /* \"#utility.yul\":14772:14847   */\n    tag_149:\n        /* \"#utility.yul\":14815:14818   */\n      0x00\n        /* \"#utility.yul\":14836:14841   */\n      dup2\n        /* \"#utility.yul\":14829:14841   */\n      swap1\n      pop\n        /* \"#utility.yul\":14772:14847   */\n      swap2\n      swap1\n      pop\n      jump\t// out\n        /* \"#utility.yul\":14853:15122   */\n    tag_150:\n        /* \"#utility.yul\":14963:15002   */\n      tag_299\n        /* \"#utility.yul\":14994:15001   */\n      dup4\n        /* \"#utility.yul\":14963:15002   */\n      tag_148\n      jump\t// in\n    tag_299:\n        /* \"#utility.yul\":15024:15115   */\n      tag_300\n        /* \"#utility.yul\":15073:15114   */\n      tag_301\n        /* \"#utility.yul\":15097:15113   */\n      dup3\n        /* \"#utility.yul\":15073:15114   */\n      tag_149\n      jump\t// in\n    tag_301:\n        /* \"#utility.yul\":15065:15071   */\n      dup5\n        /* \"#utility.yul\":15058:15062   */\n      dup5\n        /* \"#utility.yul\":15052:15063   */\n      sload\n        /* \"#utility.yul\":15024:15115   */\n      tag_146\n      jump\t// in\n    tag_300:\n        /* \"#utility.yul\":15018:15022   */\n      dup3\n        /* \"#utility.yul\":15011:15116   */\n      sstore\n        /* \"#utility.yul\":14929:15122   */\n      pop\n        /* \"#utility.yul\":14853:15122   */\n      pop\n      pop\n      pop\n      jump\t// out\n        /* \"#utility.yul\":15128:15201   */\n    tag_151:\n        /* \"#utility.yul\":15173:15176   */\n      0x00\n        /* \"#utility.yul\":15194:15195   */\n      0x00\n        /* \"#utility.yul\":15187:15195   */\n      swap1\n      pop\n        /* \"#utility.yul\":15128:15201   */\n      swap1\n      jump\t// out\n        /* \"#utility.yul\":15207:15396   */\n    tag_152:\n        /* \"#utility.yul\":15284:15316   */\n      tag_304\n      tag_151\n      jump\t// in\n    tag_304:\n        /* \"#utility.yul\":15325:15390   */\n      tag_305\n        /* \"#utility.yul\":15383:15389   */\n      dup2\n        /* \"#utility.yul\":15375:15381   */\n      dup5\n        /* \"#utility.yul\":15369:15373   */\n      dup5\n        /* \"#utility.yul\":15325:15390   */\n      tag_150\n      jump\t// in\n    tag_305:\n        /* \"#utility.yul\":15260:15396   */\n      pop\n        /* \"#utility.yul\":15207:15396   */\n      pop\n      pop\n      jump\t// out\n        /* \"#utility.yul\":15402:15588   */\n    tag_153:\n        /* \"#utility.yul\":15462:15582   */\n    tag_307:\n        /* \"#utility.yul\":15479:15482   */\n      dup2\n        /* \"#utility.yul\":15472:15477   */\n      dup2\n        /* \"#utility.yul\":15469:15483   */\n      lt\n        /* \"#utility.yul\":15462:15582   */\n      iszero\n      tag_309\n      jumpi\n        /* \"#utility.yul\":15533:15572   */\n      tag_310\n        /* \"#utility.yul\":15570:15571   */\n      0x00\n        /* \"#utility.yul\":15563:15568   */\n      dup3\n        /* \"#utility.yul\":15533:15572   */\n      tag_152\n      jump\t// in\n    tag_310:\n        /* \"#utility.yul\":15506:15507   */\n      0x01\n        /* \"#utility.yul\":15499:15504   */\n      dup2\n        /* \"#utility.yul\":15495:15508   */\n      add\n        /* \"#utility.yul\":15486:15508   */\n      swap1\n      pop\n        /* \"#utility.yul\":15462:15582   */\n      jump(tag_307)\n    tag_309:\n        /* \"#utility.yul\":15402:15588   */\n      pop\n      pop\n      jump\t// out\n        /* \"#utility.yul\":15594:16137   */\n    tag_154:\n        /* \"#utility.yul\":15695:15697   */\n      0x1f\n        /* \"#utility.yul\":15690:15693   */\n      dup3\n        /* \"#utility.yul\":15687:15698   */\n      gt\n        /* \"#utility.yul\":15684:16130   */\n      iszero\n      tag_312\n      jumpi\n        /* \"#utility.yul\":15729:15767   */\n      tag_313\n        /* \"#utility.yul\":15761:15766   */\n      dup2\n        /* \"#utility.yul\":15729:15767   */\n      tag_143\n      jump\t// in\n    tag_313:\n        /* \"#utility.yul\":15813:15842   */\n      tag_314\n        /* \"#utility.yul\":15831:15841   */\n      dup5\n        /* \"#utility.yul\":15813:15842   */\n      tag_144\n      jump\t// in\n    tag_314:\n        /* \"#utility.yul\":15803:15811   */\n      dup2\n        /* \"#utility.yul\":15799:15843   */\n      add\n        /* \"#utility.yul\":15996:15998   */\n      0x20\n        /* \"#utility.yul\":15984:15994   */\n      dup6\n        /* \"#utility.yul\":15981:15999   */\n      lt\n        /* \"#utility.yul\":15978:16027   */\n      iszero\n      tag_315\n      jumpi\n        /* \"#utility.yul\":16017:16025   */\n      dup2\n        /* \"#utility.yul\":16002:16025   */\n      swap1\n      pop\n        /* \"#utility.yul\":15978:16027   */\n    tag_315:\n        /* \"#utility.yul\":16040:16120   */\n      tag_316\n        /* \"#utility.yul\":16096:16118   */\n      tag_317\n        /* \"#utility.yul\":16114:16117   */\n      dup6\n        /* \"#utility.yul\":16096:16118   */\n      tag_144\n      jump\t// in\n    tag_317:\n        /* \"#utility.yul\":16086:16094   */\n      dup4\n        /* \"#utility.yul\":16082:16119   */\n      add\n        /* \"#utility.yul\":16069:16080   */\n      dup3\n        /* \"#utility.yul\":16040:16120   */\n      tag_153\n      jump\t// in\n    tag_316:\n        /* \"#utility.yul\":15699:16130   */\n      pop\n      pop\n        /* \"#utility.yul\":15684:16130   */\n    tag_312:\n        /* \"#utility.yul\":15594:16137   */\n      pop\n      pop\n      pop\n      jump\t// out\n        /* \"#utility.yul\":16143:16260   */\n    tag_155:\n        /* \"#utility.yul\":16197:16205   */\n      0x00\n        /* \"#utility.yul\":16247:16252   */\n      dup3\n        /* \"#utility.yul\":16241:16245   */\n      dup3\n        /* \"#utility.yul\":16237:16253   */\n      shr\n        /* \"#utility.yul\":16216:16253   */\n      swap1\n      pop\n        /* \"#utility.yul\":16143:16260   */\n      swap3\n      swap2\n      pop\n      pop\n      jump\t// out\n        /* \"#utility.yul\":16266:16435   */\n    tag_156:\n        /* \"#utility.yul\":16310:16316   */\n      0x00\n        /* \"#utility.yul\":16343:16394   */\n      tag_320\n        /* \"#utility.yul\":16391:16392   */\n      0x00\n        /* \"#utility.yul\":16387:16393   */\n      not\n        /* \"#utility.yul\":16379:16384   */\n      dup5\n        /* \"#utility.yul\":16376:16377   */\n      0x08\n        /* \"#utility.yul\":16372:16385   */\n      mul\n        /* \"#utility.yul\":16343:16394   */\n      tag_155\n      jump\t// in\n    tag_320:\n        /* \"#utility.yul\":16339:16395   */\n      not\n        /* \"#utility.yul\":16424:16428   */\n      dup1\n        /* \"#utility.yul\":16418:16422   */\n      dup4\n        /* \"#utility.yul\":16414:16429   */\n      and\n        /* \"#utility.yul\":16404:16429   */\n      swap2\n      pop\n        /* \"#utility.yul\":16317:16435   */\n      pop\n        /* \"#utility.yul\":16266:16435   */\n      swap3\n      swap2\n      pop\n      pop\n      jump\t// out\n        /* \"#utility.yul\":16440:16735   */\n    tag_157:\n        /* \"#utility.yul\":16516:16520   */\n      0x00\n        /* \"#utility.yul\":16662:16691   */\n      tag_322\n        /* \"#utility.yul\":16687:16690   */\n      dup4\n        /* \"#utility.yul\":16681:16685   */\n      dup4\n        /* \"#utility.yul\":16662:16691   */\n      tag_156\n      jump\t// in\n    tag_322:\n        /* \"#utility.yul\":16654:16691   */\n      swap2\n      pop\n        /* \"#utility.yul\":16724:16727   */\n      dup3\n        /* \"#utility.yul\":16721:16722   */\n      0x02\n        /* \"#utility.yul\":16717:16728   */\n      mul\n        /* \"#utility.yul\":16711:16715   */\n      dup3\n        /* \"#utility.yul\":16708:16729   */\n      or\n        /* \"#utility.yul\":16700:16729   */\n      swap1\n      pop\n        /* \"#utility.yul\":16440:16735   */\n      swap3\n      swap2\n      pop\n      pop\n      jump\t// out\n        /* \"#utility.yul\":16740:18143   */\n    tag_97:\n        /* \"#utility.yul\":16864:16908   */\n      tag_324\n        /* \"#utility.yul\":16904:16907   */\n      dup4\n        /* \"#utility.yul\":16899:16902   */\n      dup4\n        /* \"#utility.yul\":16864:16908   */\n      tag_141\n      jump\t// in\n    tag_324:\n        /* \"#utility.yul\":16973:16991   */\n      0xffffffffffffffff\n        /* \"#utility.yul\":16965:16971   */\n      dup2\n        /* \"#utility.yul\":16962:16992   */\n      gt\n        /* \"#utility.yul\":16959:17015   */\n      iszero\n      tag_325\n      jumpi\n        /* \"#utility.yul\":16995:17013   */\n      tag_326\n      tag_142\n      jump\t// in\n    tag_326:\n        /* \"#utility.yul\":16959:17015   */\n    tag_325:\n        /* \"#utility.yul\":17039:17077   */\n      tag_327\n        /* \"#utility.yul\":17071:17075   */\n      dup3\n        /* \"#utility.yul\":17065:17076   */\n      sload\n        /* \"#utility.yul\":17039:17077   */\n      tag_87\n      jump\t// in\n    tag_327:\n        /* \"#utility.yul\":17124:17191   */\n      tag_328\n        /* \"#utility.yul\":17184:17190   */\n      dup3\n        /* \"#utility.yul\":17176:17182   */\n      dup3\n        /* \"#utility.yul\":17170:17174   */\n      dup6\n        /* \"#utility.yul\":17124:17191   */\n      tag_154\n      jump\t// in\n    tag_328:\n        /* \"#utility.yul\":17218:17219   */\n      0x00\n        /* \"#utility.yul\":17247:17249   */\n      0x1f\n        /* \"#utility.yul\":17239:17245   */\n      dup4\n        /* \"#utility.yul\":17236:17250   */\n      gt\n        /* \"#utility.yul\":17264:17265   */\n      0x01\n        /* \"#utility.yul\":17259:17891   */\n      dup2\n      eq\n      tag_330\n      jumpi\n        /* \"#utility.yul\":17935:17936   */\n      0x00\n        /* \"#utility.yul\":17952:17958   */\n      dup5\n        /* \"#utility.yul\":17949:18033   */\n      iszero\n      tag_331\n      jumpi\n        /* \"#utility.yul\":18008:18017   */\n      dup3\n        /* \"#utility.yul\":18003:18006   */\n      dup8\n        /* \"#utility.yul\":17999:18018   */\n      add\n        /* \"#utility.yul\":17986:18019   */\n      calldataload\n        /* \"#utility.yul\":17977:18019   */\n      swap1\n      pop\n        /* \"#utility.yul\":17949:18033   */\n    tag_331:\n        /* \"#utility.yul\":18059:18126   */\n      tag_332\n        /* \"#utility.yul\":18119:18125   */\n      dup6\n        /* \"#utility.yul\":18112:18117   */\n      dup3\n        /* \"#utility.yul\":18059:18126   */\n      tag_157\n      jump\t// in\n    tag_332:\n        /* \"#utility.yul\":18053:18057   */\n      dup7\n        /* \"#utility.yul\":18046:18127   */\n      sstore\n        /* \"#utility.yul\":17908:18137   */\n      pop\n        /* \"#utility.yul\":17229:18137   */\n      jump(tag_329)\n        /* \"#utility.yul\":17259:17891   */\n    tag_330:\n        /* \"#utility.yul\":17311:17315   */\n      0x1f\n        /* \"#utility.yul\":17307:17316   */\n      not\n        /* \"#utility.yul\":17299:17305   */\n      dup5\n        /* \"#utility.yul\":17295:17317   */\n      and\n        /* \"#utility.yul\":17345:17382   */\n      tag_333\n        /* \"#utility.yul\":17377:17381   */\n      dup7\n        /* \"#utility.yul\":17345:17382   */\n      tag_143\n      jump\t// in\n    tag_333:\n        /* \"#utility.yul\":17404:17405   */\n      0x00\n        /* \"#utility.yul\":17418:17633   */\n    tag_334:\n        /* \"#utility.yul\":17432:17439   */\n      dup3\n        /* \"#utility.yul\":17429:17430   */\n      dup2\n        /* \"#utility.yul\":17426:17440   */\n      lt\n        /* \"#utility.yul\":17418:17633   */\n      iszero\n      tag_336\n      jumpi\n        /* \"#utility.yul\":17518:17527   */\n      dup5\n        /* \"#utility.yul\":17513:17516   */\n      dup10\n        /* \"#utility.yul\":17509:17528   */\n      add\n        /* \"#utility.yul\":17496:17529   */\n      calldataload\n        /* \"#utility.yul\":17488:17494   */\n      dup3\n        /* \"#utility.yul\":17481:17530   */\n      sstore\n        /* \"#utility.yul\":17569:17570   */\n      0x01\n        /* \"#utility.yul\":17561:17567   */\n      dup3\n        /* \"#utility.yul\":17557:17571   */\n      add\n        /* \"#utility.yul\":17547:17571   */\n      swap2\n      pop\n        /* \"#utility.yul\":17616:17618   */\n      0x20\n        /* \"#utility.yul\":17605:17614   */\n      dup6\n        /* \"#utility.yul\":17601:17619   */\n      add\n        /* \"#utility.yul\":17588:17619   */\n      swap5\n      pop\n        /* \"#utility.yul\":17455:17459   */\n      0x20\n        /* \"#utility.yul\":17452:17453   */\n      dup2\n        /* \"#utility.yul\":17448:17460   */\n      add\n        /* \"#utility.yul\":17443:17460   */\n      swap1\n      pop\n        /* \"#utility.yul\":17418:17633   */\n      jump(tag_334)\n    tag_336:\n        /* \"#utility.yul\":17661:17667   */\n      dup7\n        /* \"#utility.yul\":17652:17659   */\n      dup4\n        /* \"#utility.yul\":17649:17668   */\n      lt\n        /* \"#utility.yul\":17646:17832   */\n      iszero\n      tag_337\n      jumpi\n        /* \"#utility.yul\":17726:17735   */\n      dup5\n        /* \"#utility.yul\":17721:17724   */\n      dup10\n        /* \"#utility.yul\":17717:17736   */\n      add\n        /* \"#utility.yul\":17704:17737   */\n      calldataload\n        /* \"#utility.yul\":17769:17817   */\n      tag_338\n        /* \"#utility.yul\":17811:17815   */\n      0x1f\n        /* \"#utility.yul\":17803:17809   */\n      dup10\n        /* \"#utility.yul\":17799:17816   */\n      and\n        /* \"#utility.yul\":17788:17797   */\n      dup3\n        /* \"#utility.yul\":17769:17817   */\n      tag_156\n      jump\t// in\n    tag_338:\n        /* \"#utility.yul\":17761:17767   */\n      dup4\n        /* \"#utility.yul\":17754:17818   */\n      sstore\n        /* \"#utility.yul\":17669:17832   */\n      pop\n        /* \"#utility.yul\":17646:17832   */\n    tag_337:\n        /* \"#utility.yul\":17878:17879   */\n      0x01\n        /* \"#utility.yul\":17874:17875   */\n      0x02\n        /* \"#utility.yul\":17866:17872   */\n      dup9\n        /* \"#utility.yul\":17862:17876   */\n      mul\n        /* \"#utility.yul\":17858:17880   */\n      add\n        /* \"#utility.yul\":17852:17856   */\n      dup9\n        /* \"#utility.yul\":17845:17881   */\n      sstore\n        /* \"#utility.yul\":17266:17891   */\n      pop\n      pop\n      pop\n        /* \"#utility.yul\":17229:18137   */\n    tag_329:\n      pop\n        /* \"#utility.yul\":16839:18143   */\n      pop\n      pop\n      pop\n        /* \"#utility.yul\":16740:18143   */\n      pop\n      pop\n      pop\n      jump\t// out\n        /* \"#utility.yul\":18149:18297   */\n    tag_158:\n        /* \"#utility.yul\":18247:18253   */\n      dup3\n        /* \"#utility.yul\":18242:18245   */\n      dup2\n        /* \"#utility.yul\":18237:18240   */\n      dup4\n        /* \"#utility.yul\":18224:18254   */\n      calldatacopy\n        /* \"#utility.yul\":18288:18289   */\n      0x00\n        /* \"#utility.yul\":18279:18285   */\n      dup4\n        /* \"#utility.yul\":18274:18277   */\n      dup4\n        /* \"#utility.yul\":18270:18286   */\n      add\n        /* \"#utility.yul\":18263:18290   */\n      mstore\n        /* \"#utility.yul\":18149:18297   */\n      pop\n      pop\n      pop\n      jump\t// out\n        /* \"#utility.yul\":18327:18644   */\n    tag_159:\n        /* \"#utility.yul\":18425:18428   */\n      0x00\n        /* \"#utility.yul\":18446:18517   */\n      tag_341\n        /* \"#utility.yul\":18510:18516   */\n      dup4\n        /* \"#utility.yul\":18505:18508   */\n      dup6\n        /* \"#utility.yul\":18446:18517   */\n      tag_121\n      jump\t// in\n    tag_341:\n        /* \"#utility.yul\":18439:18517   */\n      swap4\n      pop\n        /* \"#utility.yul\":18527:18583   */\n      tag_342\n        /* \"#utility.yul\":18576:18582   */\n      dup4\n        /* \"#utility.yul\":18571:18574   */\n      dup6\n        /* \"#utility.yul\":18564:18569   */\n      dup5\n        /* \"#utility.yul\":18527:18583   */\n      tag_158\n      jump\t// in\n    tag_342:\n        /* \"#utility.yul\":18608:18637   */\n      tag_343\n        /* \"#utility.yul\":18630:18636   */\n      dup4\n        /* \"#utility.yul\":18608:18637   */\n      tag_123\n      jump\t// in\n    tag_343:\n        /* \"#utility.yul\":18603:18606   */\n      dup5\n        /* \"#utility.yul\":18599:18638   */\n      add\n        /* \"#utility.yul\":18592:18638   */\n      swap1\n      pop\n        /* \"#utility.yul\":18327:18644   */\n      swap4\n      swap3\n      pop\n      pop\n      pop\n      jump\t// out\n        /* \"#utility.yul\":18650:18983   */\n    tag_99:\n        /* \"#utility.yul\":18773:18777   */\n      0x00\n        /* \"#utility.yul\":18811:18813   */\n      0x20\n        /* \"#utility.yul\":18800:18809   */\n      dup3\n        /* \"#utility.yul\":18796:18814   */\n      add\n        /* \"#utility.yul\":18788:18814   */\n      swap1\n      pop\n        /* \"#utility.yul\":18860:18869   */\n      dup2\n        /* \"#utility.yul\":18854:18858   */\n      dup2\n        /* \"#utility.yul\":18850:18870   */\n      sub\n        /* \"#utility.yul\":18846:18847   */\n      0x00\n        /* \"#utility.yul\":18835:18844   */\n      dup4\n        /* \"#utility.yul\":18831:18848   */\n      add\n        /* \"#utility.yul\":18824:18871   */\n      mstore\n        /* \"#utility.yul\":18888:18976   */\n      tag_345\n        /* \"#utility.yul\":18971:18975   */\n      dup2\n        /* \"#utility.yul\":18962:18968   */\n      dup5\n        /* \"#utility.yul\":18954:18960   */\n      dup7\n        /* \"#utility.yul\":18888:18976   */\n      tag_159\n      jump\t// in\n    tag_345:\n        /* \"#utility.yul\":18880:18976   */\n      swap1\n      pop\n        /* \"#utility.yul\":18650:18983   */\n      swap4\n      swap3\n      pop\n      pop\n      pop\n      jump\t// out\n\n    auxdata: 0xa2646970667358221220c57445024c77c7c04f7200b4338e6df2b5b43847e374f83a67b69b3afe4801bb64736f6c634300081d0033\n}\n",
				"bytecode": {
					"linkReferences": {},
					"object": "608060405234801561000f575f5ffd5b50335f5f6101000a81548173ffffffffffffffffffffffffffffffffffffffff021916908373ffffffffffffffffffffffffffffffffffffffff160217905550600160025f3373ffffffffffffffffffffffffffffffffffffffff1673ffffffffffffffffffffffffffffffffffffffff1681526020019081526020015f205f6101000a81548160ff021916908315150217905550600333908060018154018082558091505060019003905f5260205f20015f9091909190916101000a81548173ffffffffffffffffffffffffffffffffffffffff021916908373ffffffffffffffffffffffffffffffffffffffff1602179055503373ffffffffffffffffffffffffffffffffffffffff167fb251eb052afc73ffd02ffe85ad79990a8b3fed60d76dbc2fa2fdd7123dffd91460405160405180910390a26112f6806101545f395ff3fe608060405234801561000f575f5ffd5b5060043610610086575f3560e01c8063b307fc6d11610059578063b307fc6d14610112578063ca6d56dc14610142578063ce6d41de1461015e578063d4e36ba71461017c57610086565b806308ae4b0c1461008a5780630b1ca49a146100ba5780638da5cb5b146100d65780639eab5253146100f4575b5f5ffd5b6100a4600480360381019061009f91906109aa565b610198565b6040516100b191906109ef565b60405180910390f35b6100d460048036038101906100cf91906109aa565b6101b5565b005b6100de6104e3565b6040516100eb9190610a17565b60405180910390f35b6100fc610507565b6040516101099190610ae7565b60405180910390f35b61012c60048036038101906101279190610b3a565b610592565b6040516101399190610a17565b60405180910390f35b61015c600480360381019061015791906109aa565b6105cd565b005b6101666107e0565b6040516101739190610bd5565b60405180910390f35b61019660048036038101906101919190610c56565b610870565b005b6002602052805f5260405f205f915054906101000a900460ff1681565b5f5f9054906101000a900473ffffffffffffffffffffffffffffffffffffffff1673ffffffffffffffffffffffffffffffffffffffff163373ffffffffffffffffffffffffffffffffffffffff1614610243576040517f08c379a000000000000000000000000000000000000000000000000000000000815260040161023a90610ceb565b60405180910390fd5b60025f8273ffffffffffffffffffffffffffffffffffffffff1673ffffffffffffffffffffffffffffffffffffffff1681526020019081526020015f205f9054906101000a900460ff166102cc576040517f08c379a00000000000000000000000000000000000000000000000000000000081526004016102c390610d53565b60405180910390fd5b5f60025f8373ffffffffffffffffffffffffffffffffffffffff1673ffffffffffffffffffffffffffffffffffffffff1681526020019081526020015f205f6101000a81548160ff0219169083151502179055505f5f90505b60038054905081101561049c578173ffffffffffffffffffffffffffffffffffffffff166003828154811061035d5761035c610d71565b5b905f5260205f20015f9054906101000a900473ffffffffffffffffffffffffffffffffffffffff1673ffffffffffffffffffffffffffffffffffffffff160361048f57600360016003805490506103b49190610dcb565b815481106103c5576103c4610d71565b5b905f5260205f20015f9054906101000a900473ffffffffffffffffffffffffffffffffffffffff166003828154811061040157610400610d71565b5b905f5260205f20015f6101000a81548173ffffffffffffffffffffffffffffffffffffffff021916908373ffffffffffffffffffffffffffffffffffffffff160217905550600380548061045857610457610dfe565b5b600190038181905f5260205f20015f6101000a81549073ffffffffffffffffffffffffffffffffffffffff0219169055905561049c565b8080600101915050610325565b508073ffffffffffffffffffffffffffffffffffffffff167f6e76fb4c77256006d9c38ec7d82b45a8c8f3c27b1d6766fffc42dfb8de68449260405160405180910390a250565b5f5f9054906101000a900473ffffffffffffffffffffffffffffffffffffffff1681565b6060600380548060200260200160405190810160405280929190818152602001828054801561058857602002820191905f5260205f20905b815f9054906101000a900473ffffffffffffffffffffffffffffffffffffffff1673ffffffffffffffffffffffffffffffffffffffff168152602001906001019080831161053f575b5050505050905090565b600381815481106105a1575f80fd5b905f5260205f20015f915054906101000a900473ffffffffffffffffffffffffffffffffffffffff1681565b5f5f9054906101000a900473ffffffffffffffffffffffffffffffffffffffff1673ffffffffffffffffffffffffffffffffffffffff163373ffffffffffffffffffffffffffffffffffffffff161461065b576040517f08c379a000000000000000000000000000000000000000000000000000000000815260040161065290610e75565b60405180910390fd5b60025f8273ffffffffffffffffffffffffffffffffffffffff1673ffffffffffffffffffffffffffffffffffffffff1681526020019081526020015f205f9054906101000a900460ff16156106e5576040517f08c379a00000000000000000000000000000000000000000000000000000000081526004016106dc90610edd565b60405180910390fd5b600160025f8373ffffffffffffffffffffffffffffffffffffffff1673ffffffffffffffffffffffffffffffffffffffff1681526020019081526020015f205f6101000a81548160ff021916908315150217905550600381908060018154018082558091505060019003905f5260205f20015f9091909190916101000a81548173ffffffffffffffffffffffffffffffffffffffff021916908373ffffffffffffffffffffffffffffffffffffffff1602179055508073ffffffffffffffffffffffffffffffffffffffff167fb251eb052afc73ffd02ffe85ad79990a8b3fed60d76dbc2fa2fdd7123dffd91460405160405180910390a250565b6060600180546107ef90610f28565b80601f016020809104026020016040519081016040528092919081815260200182805461081b90610f28565b80156108665780601f1061083d57610100808354040283529160200191610866565b820191905f5260205f20905b81548152906001019060200180831161084957829003601f168201915b5050505050905090565b60025f3373ffffffffffffffffffffffffffffffffffffffff1673ffffffffffffffffffffffffffffffffffffffff1681526020019081526020015f205f9054906101000a900460ff166108f9576040517f08c379a00000000000000000000000000000000000000000000000000000000081526004016108f090610fa2565b60405180910390fd5b81816001918261090a929190611197565b507f22c2a3a1dcfcd9a26676800829d4de849e614f2861c6969a30cf5881ceb19b82828260405161093c92919061129e565b60405180910390a15050565b5f5ffd5b5f5ffd5b5f73ffffffffffffffffffffffffffffffffffffffff82169050919050565b5f61097982610950565b9050919050565b6109898161096f565b8114610993575f5ffd5b50565b5f813590506109a481610980565b92915050565b5f602082840312156109bf576109be610948565b5b5f6109cc84828501610996565b91505092915050565b5f8115159050919050565b6109e9816109d5565b82525050565b5f602082019050610a025f8301846109e0565b92915050565b610a118161096f565b82525050565b5f602082019050610a2a5f830184610a08565b92915050565b5f81519050919050565b5f82825260208201905092915050565b5f819050602082019050919050565b610a628161096f565b82525050565b5f610a738383610a59565b60208301905092915050565b5f602082019050919050565b5f610a9582610a30565b610a9f8185610a3a565b9350610aaa83610a4a565b805f5b83811015610ada578151610ac18882610a68565b9750610acc83610a7f565b925050600181019050610aad565b5085935050505092915050565b5f6020820190508181035f830152610aff8184610a8b565b905092915050565b5f819050919050565b610b1981610b07565b8114610b23575f5ffd5b50565b5f81359050610b3481610b10565b92915050565b5f60208284031215610b4f57610b4e610948565b5b5f610b5c84828501610b26565b91505092915050565b5f81519050919050565b5f82825260208201905092915050565b8281835e5f83830152505050565b5f601f19601f8301169050919050565b5f610ba782610b65565b610bb18185610b6f565b9350610bc1818560208601610b7f565b610bca81610b8d565b840191505092915050565b5f6020820190508181035f830152610bed8184610b9d565b905092915050565b5f5ffd5b5f5ffd5b5f5ffd5b5f5f83601f840112610c1657610c15610bf5565b5b8235905067ffffffffffffffff811115610c3357610c32610bf9565b5b602083019150836001820283011115610c4f57610c4e610bfd565b5b9250929050565b5f5f60208385031215610c6c57610c6b610948565b5b5f83013567ffffffffffffffff811115610c8957610c8861094c565b5b610c9585828601610c01565b92509250509250929050565b7f4f6e6c79206f776e65722063616e2072656d6f7665206d656d626572730000005f82015250565b5f610cd5601d83610b6f565b9150610ce082610ca1565b602082019050919050565b5f6020820190508181035f830152610d0281610cc9565b9050919050565b7f4e6f742061206d656d62657200000000000000000000000000000000000000005f82015250565b5f610d3d600c83610b6f565b9150610d4882610d09565b602082019050919050565b5f6020820190508181035f830152610d6a81610d31565b9050919050565b7f4e487b71000000000000000000000000000000000000000000000000000000005f52603260045260245ffd5b7f4e487b71000000000000000000000000000000000000000000000000000000005f52601160045260245ffd5b5f610dd582610b07565b9150610de083610b07565b9250828203905081811115610df857610df7610d9e565b5b92915050565b7f4e487b71000000000000000000000000000000000000000000000000000000005f52603160045260245ffd5b7f4f6e6c79206f776e65722063616e20616464206d656d626572730000000000005f82015250565b5f610e5f601a83610b6f565b9150610e6a82610e2b565b602082019050919050565b5f6020820190508181035f830152610e8c81610e53565b9050919050565b7f416c72656164792061206d656d626572000000000000000000000000000000005f82015250565b5f610ec7601083610b6f565b9150610ed282610e93565b602082019050919050565b5f6020820190508181035f830152610ef481610ebb565b9050919050565b7f4e487b71000000000000000000000000000000000000000000000000000000005f52602260045260245ffd5b5f6002820490506001821680610f3f57607f821691505b602082108103610f5257610f51610efb565b5b50919050565b7f4e6f74206120636f6d6d756e697479206d656d626572000000000000000000005f82015250565b5f610f8c601683610b6f565b9150610f9782610f58565b602082019050919050565b5f6020820190508181035f830152610fb981610f80565b9050919050565b5f82905092915050565b7f4e487b71000000000000000000000000000000000000000000000000000000005f52604160045260245ffd5b5f819050815f5260205f209050919050565b5f6020601f8301049050919050565b5f82821b905092915050565b5f600883026110537fffffffffffffffffffffffffffffffffffffffffffffffffffffffffffffffff82611018565b61105d8683611018565b95508019841693508086168417925050509392505050565b5f819050919050565b5f61109861109361108e84610b07565b611075565b610b07565b9050919050565b5f819050919050565b6110b18361107e565b6110c56110bd8261109f565b848454611024565b825550505050565b5f5f905090565b6110dc6110cd565b6110e78184846110a8565b505050565b5b8181101561110a576110ff5f826110d4565b6001810190506110ed565b5050565b601f82111561114f5761112081610ff7565b61112984611009565b81016020851015611138578190505b61114c61114485611009565b8301826110ec565b50505b505050565b5f82821c905092915050565b5f61116f5f1984600802611154565b1980831691505092915050565b5f6111878383611160565b9150826002028217905092915050565b6111a18383610fc0565b67ffffffffffffffff8111156111ba576111b9610fca565b5b6111c48254610f28565b6111cf82828561110e565b5f601f8311600181146111fc575f84156111ea578287013590505b6111f4858261117c565b86555061125b565b601f19841661120a86610ff7565b5f5b828110156112315784890135825560018201915060208501945060208101905061120c565b8683101561124e578489013561124a601f891682611160565b8355505b6001600288020188555050505b50505050505050565b828183375f83830152505050565b5f61127d8385610b6f565b935061128a838584611264565b61129383610b8d565b840190509392505050565b5f6020820190508181035f8301526112b7818486611272565b9050939250505056fea2646970667358221220c57445024c77c7c04f7200b4338e6df2b5b43847e374f83a67b69b3afe4801bb64736f6c634300081d0033",
					"opcodes": "PUSH1 0x80 PUSH1 0x40 MSTORE CALLVALUE DUP1 ISZERO PUSH2 0xF JUMPI PUSH0 PUSH0 REVERT JUMPDEST POP CALLER PUSH0 PUSH0 PUSH2 0x100 EXP DUP2 SLOAD DUP2 PUSH20 0xFFFFFFFFFFFFFFFFFFFFFFFFFFFFFFFFFFFFFFFF MUL NOT AND SWAP1 DUP4 PUSH20 0xFFFFFFFFFFFFFFFFFFFFFFFFFFFFFFFFFFFFFFFF AND MUL OR SWAP1 SSTORE POP PUSH1 0x1 PUSH1 0x2 PUSH0 CALLER PUSH20 0xFFFFFFFFFFFFFFFFFFFFFFFFFFFFFFFFFFFFFFFF AND PUSH20 0xFFFFFFFFFFFFFFFFFFFFFFFFFFFFFFFFFFFFFFFF AND DUP2 MSTORE PUSH1 0x20 ADD SWAP1 DUP2 MSTORE PUSH1 0x20 ADD PUSH0 KECCAK256 PUSH0 PUSH2 0x100 EXP DUP2 SLOAD DUP2 PUSH1 0xFF MUL NOT AND SWAP1 DUP4 ISZERO ISZERO MUL OR SWAP1 SSTORE POP PUSH1 0x3 CALLER SWAP1 DUP1 PUSH1 0x1 DUP2 SLOAD ADD DUP1 DUP3 SSTORE DUP1 SWAP2 POP POP PUSH1 0x1 SWAP1 SUB SWAP1 PUSH0 MSTORE PUSH1 0x20 PUSH0 KECCAK256 ADD PUSH0 SWAP1 SWAP2 SWAP1 SWAP2 SWAP1 SWAP2 PUSH2 0x100 EXP DUP2 SLOAD DUP2 PUSH20 0xFFFFFFFFFFFFFFFFFFFFFFFFFFFFFFFFFFFFFFFF MUL NOT AND SWAP1 DUP4 PUSH20 0xFFFFFFFFFFFFFFFFFFFFFFFFFFFFFFFFFFFFFFFF AND MUL OR SWAP1 SSTORE POP CALLER PUSH20 0xFFFFFFFFFFFFFFFFFFFFFFFFFFFFFFFFFFFFFFFF AND PUSH32 0xB251EB052AFC73FFD02FFE85AD79990A8B3FED60D76DBC2FA2FDD7123DFFD914 PUSH1 0x40 MLOAD PUSH1 0x40 MLOAD DUP1 SWAP2 SUB SWAP1 LOG2 PUSH2 0x12F6 DUP1 PUSH2 0x154 PUSH0 CODECOPY PUSH0 RETURN INVALID PUSH1 0x80 PUSH1 0x40 MSTORE CALLVALUE DUP1 ISZERO PUSH2 0xF JUMPI PUSH0 PUSH0 REVERT JUMPDEST POP PUSH1 0x4 CALLDATASIZE LT PUSH2 0x86 JUMPI PUSH0 CALLDATALOAD PUSH1 0xE0 SHR DUP1 PUSH4 0xB307FC6D GT PUSH2 0x59 JUMPI DUP1 PUSH4 0xB307FC6D EQ PUSH2 0x112 JUMPI DUP1 PUSH4 0xCA6D56DC EQ PUSH2 0x142 JUMPI DUP1 PUSH4 0xCE6D41DE EQ PUSH2 0x15E JUMPI DUP1 PUSH4 0xD4E36BA7 EQ PUSH2 0x17C JUMPI PUSH2 0x86 JUMP JUMPDEST DUP1 PUSH4 0x8AE4B0C EQ PUSH2 0x8A JUMPI DUP1 PUSH4 0xB1CA49A EQ PUSH2 0xBA JUMPI DUP1 PUSH4 0x8DA5CB5B EQ PUSH2 0xD6 JUMPI DUP1 PUSH4 0x9EAB5253 EQ PUSH2 0xF4 JUMPI JUMPDEST PUSH0 PUSH0 REVERT JUMPDEST PUSH2 0xA4 PUSH1 0x4 DUP1 CALLDATASIZE SUB DUP2 ADD SWAP1 PUSH2 0x9F SWAP2 SWAP1 PUSH2 0x9AA JUMP JUMPDEST PUSH2 0x198 JUMP JUMPDEST PUSH1 0x40 MLOAD PUSH2 0xB1 SWAP2 SWAP1 PUSH2 0x9EF JUMP JUMPDEST PUSH1 0x40 MLOAD DUP1 SWAP2 SUB SWAP1 RETURN JUMPDEST PUSH2 0xD4 PUSH1 0x4 DUP1 CALLDATASIZE SUB DUP2 ADD SWAP1 PUSH2 0xCF SWAP2 SWAP1 PUSH2 0x9AA JUMP JUMPDEST PUSH2 0x1B5 JUMP JUMPDEST STOP JUMPDEST PUSH2 0xDE PUSH2 0x4E3 JUMP JUMPDEST PUSH1 0x40 MLOAD PUSH2 0xEB SWAP2 SWAP1 PUSH2 0xA17 JUMP JUMPDEST PUSH1 0x40 MLOAD DUP1 SWAP2 SUB SWAP1 RETURN JUMPDEST PUSH2 0xFC PUSH2 0x507 JUMP JUMPDEST PUSH1 0x40 MLOAD PUSH2 0x109 SWAP2 SWAP1 PUSH2 0xAE7 JUMP JUMPDEST PUSH1 0x40 MLOAD DUP1 SWAP2 SUB SWAP1 RETURN JUMPDEST PUSH2 0x12C PUSH1 0x4 DUP1 CALLDATASIZE SUB DUP2 ADD SWAP1 PUSH2 0x127 SWAP2 SWAP1 PUSH2 0xB3A JUMP JUMPDEST PUSH2 0x592 JUMP JUMPDEST PUSH1 0x40 MLOAD PUSH2 0x139 SWAP2 SWAP1 PUSH2 0xA17 JUMP JUMPDEST PUSH1 0x40 MLOAD DUP1 SWAP2 SUB SWAP1 RETURN JUMPDEST PUSH2 0x15C PUSH1 0x4 DUP1 CALLDATASIZE SUB DUP2 ADD SWAP1 PUSH2 0x157 SWAP2 SWAP1 PUSH2 0x9AA JUMP JUMPDEST PUSH2 0x5CD JUMP JUMPDEST STOP JUMPDEST PUSH2 0x166 PUSH2 0x7E0 JUMP JUMPDEST PUSH1 0x40 MLOAD PUSH2 0x173 SWAP2 SWAP1 PUSH2 0xBD5 JUMP JUMPDEST PUSH1 0x40 MLOAD DUP1 SWAP2 SUB SWAP1 RETURN JUMPDEST PUSH2 0x196 PUSH1 0x4 DUP1 CALLDATASIZE SUB DUP2 ADD SWAP1 PUSH2 0x191 SWAP2 SWAP1 PUSH2 0xC56 JUMP JUMPDEST PUSH2 0x870 JUMP JUMPDEST STOP JUMPDEST PUSH1 0x2 PUSH1 0x20 MSTORE DUP1 PUSH0 MSTORE PUSH1 0x40 PUSH0 KECCAK256 PUSH0 SWAP2 POP SLOAD SWAP1 PUSH2 0x100 EXP SWAP1 DIV PUSH1 0xFF AND DUP2 JUMP JUMPDEST PUSH0 PUSH0 SWAP1 SLOAD SWAP1 PUSH2 0x100 EXP SWAP1 DIV PUSH20 0xFFFFFFFFFFFFFFFFFFFFFFFFFFFFFFFFFFFFFFFF AND PUSH20 0xFFFFFFFFFFFFFFFFFFFFFFFFFFFFFFFFFFFFFFFF AND CALLER PUSH20 0xFFFFFFFFFFFFFFFFFFFFFFFFFFFFFFFFFFFFFFFF AND EQ PUSH2 0x243 JUMPI PUSH1 0x40 MLOAD PUSH32 0x8C379A000000000000000000000000000000000000000000000000000000000 DUP2 MSTORE PUSH1 0x4 ADD PUSH2 0x23A SWAP1 PUSH2 0xCEB JUMP JUMPDEST PUSH1 0x40 MLOAD DUP1 SWAP2 SUB SWAP1 REVERT JUMPDEST PUSH1 0x2 PUSH0 DUP3 PUSH20 0xFFFFFFFFFFFFFFFFFFFFFFFFFFFFFFFFFFFFFFFF AND PUSH20 0xFFFFFFFFFFFFFFFFFFFFFFFFFFFFFFFFFFFFFFFF AND DUP2 MSTORE PUSH1 0x20 ADD SWAP1 DUP2 MSTORE PUSH1 0x20 ADD PUSH0 KECCAK256 PUSH0 SWAP1 SLOAD SWAP1 PUSH2 0x100 EXP SWAP1 DIV PUSH1 0xFF AND PUSH2 0x2CC JUMPI PUSH1 0x40 MLOAD PUSH32 0x8C379A000000000000000000000000000000000000000000000000000000000 DUP2 MSTORE PUSH1 0x4 ADD PUSH2 0x2C3 SWAP1 PUSH2 0xD53 JUMP JUMPDEST PUSH1 0x40 MLOAD DUP1 SWAP2 SUB SWAP1 REVERT JUMPDEST PUSH0 PUSH1 0x2 PUSH0 DUP4 PUSH20 0xFFFFFFFFFFFFFFFFFFFFFFFFFFFFFFFFFFFFFFFF AND PUSH20 0xFFFFFFFFFFFFFFFFFFFFFFFFFFFFFFFFFFFFFFFF AND DUP2 MSTORE PUSH1 0x20 ADD SWAP1 DUP2 MSTORE PUSH1 0x20 ADD PUSH0 KECCAK256 PUSH0 PUSH2 0x100 EXP DUP2 SLOAD DUP2 PUSH1 0xFF MUL NOT AND SWAP1 DUP4 ISZERO ISZERO MUL OR SWAP1 SSTORE POP PUSH0 PUSH0 SWAP1 POP JUMPDEST PUSH1 0x3 DUP1 SLOAD SWAP1 POP DUP2 LT ISZERO PUSH2 0x49C JUMPI DUP2 PUSH20 0xFFFFFFFFFFFFFFFFFFFFFFFFFFFFFFFFFFFFFFFF AND PUSH1 0x3 DUP3 DUP2 SLOAD DUP2 LT PUSH2 0x35D JUMPI PUSH2 0x35C PUSH2 0xD71 JUMP JUMPDEST JUMPDEST SWAP1 PUSH0 MSTORE PUSH1 0x20 PUSH0 KECCAK256 ADD PUSH0 SWAP1 SLOAD SWAP1 PUSH2 0x100 EXP SWAP1 DIV PUSH20 0xFFFFFFFFFFFFFFFFFFFFFFFFFFFFFFFFFFFFFFFF AND PUSH20 0xFFFFFFFFFFFFFFFFFFFFFFFFFFFFFFFFFFFFFFFF AND SUB PUSH2 0x48F JUMPI PUSH1 0x3 PUSH1 0x1 PUSH1 0x3 DUP1 SLOAD SWAP1 POP PUSH2 0x3B4 SWAP2 SWAP1 PUSH2 0xDCB JUMP JUMPDEST DUP2 SLOAD DUP2 LT PUSH2 0x3C5 JUMPI PUSH2 0x3C4 PUSH2 0xD71 JUMP JUMPDEST JUMPDEST SWAP1 PUSH0 MSTORE PUSH1 0x20 PUSH0 KECCAK256 ADD PUSH0 SWAP1 SLOAD SWAP1 PUSH2 0x100 EXP SWAP1 DIV PUSH20 0xFFFFFFFFFFFFFFFFFFFFFFFFFFFFFFFFFFFFFFFF AND PUSH1 0x3 DUP3 DUP2 SLOAD DUP2 LT PUSH2 0x401 JUMPI PUSH2 0x400 PUSH2 0xD71 JUMP JUMPDEST JUMPDEST SWAP1 PUSH0 MSTORE PUSH1 0x20 PUSH0 KECCAK256 ADD PUSH0 PUSH2 0x100 EXP DUP2 SLOAD DUP2 PUSH20 0xFFFFFFFFFFFFFFFFFFFFFFFFFFFFFFFFFFFFFFFF MUL NOT AND SWAP1 DUP4 PUSH20 0xFFFFFFFFFFFFFFFFFFFFFFFFFFFFFFFFFFFFFFFF AND MUL OR SWAP1 SSTORE POP PUSH1 0x3 DUP1 SLOAD DUP1 PUSH2 0x458 JUMPI PUSH2 0x457 PUSH2 0xDFE JUMP JUMPDEST JUMPDEST PUSH1 0x1 SWAP1 SUB DUP2 DUP2 SWAP1 PUSH0 MSTORE PUSH1 0x20 PUSH0 KECCAK256 ADD PUSH0 PUSH2 0x100 EXP DUP2 SLOAD SWAP1 PUSH20 0xFFFFFFFFFFFFFFFFFFFFFFFFFFFFFFFFFFFFFFFF MUL NOT AND SWAP1 SSTORE SWAP1 SSTORE PUSH2 0x49C JUMP JUMPDEST DUP1 DUP1 PUSH1 0x1 ADD SWAP2 POP POP PUSH2 0x325 JUMP JUMPDEST POP DUP1 PUSH20 0xFFFFFFFFFFFFFFFFFFFFFFFFFFFFFFFFFFFFFFFF AND PUSH32 0x6E76FB4C77256006D9C38EC7D82B45A8C8F3C27B1D6766FFFC42DFB8DE684492 PUSH1 0x40 MLOAD PUSH1 0x40 MLOAD DUP1 SWAP2 SUB SWAP1 LOG2 POP JUMP JUMPDEST PUSH0 PUSH0 SWAP1 SLOAD SWAP1 PUSH2 0x100 EXP SWAP1 DIV PUSH20 0xFFFFFFFFFFFFFFFFFFFFFFFFFFFFFFFFFFFFFFFF AND DUP2 JUMP JUMPDEST PUSH1 0x60 PUSH1 0x3 DUP1 SLOAD DUP1 PUSH1 0x20 MUL PUSH1 0x20 ADD PUSH1 0x40 MLOAD SWAP1 DUP2 ADD PUSH1 0x40 MSTORE DUP1 SWAP3 SWAP2 SWAP1 DUP2 DUP2 MSTORE PUSH1 0x20 ADD DUP3 DUP1 SLOAD DUP1 ISZERO PUSH2 0x588 JUMPI PUSH1 0x20 MUL DUP3 ADD SWAP2 SWAP1 PUSH0 MSTORE PUSH1 0x20 PUSH0 KECCAK256 SWAP1 JUMPDEST DUP2 PUSH0 SWAP1 SLOAD SWAP1 PUSH2 0x100 EXP SWAP1 DIV PUSH20 0xFFFFFFFFFFFFFFFFFFFFFFFFFFFFFFFFFFFFFFFF AND PUSH20 0xFFFFFFFFFFFFFFFFFFFFFFFFFFFFFFFFFFFFFFFF AND DUP2 MSTORE PUSH1 0x20 ADD SWAP1 PUSH1 0x1 ADD SWAP1 DUP1 DUP4 GT PUSH2 0x53F JUMPI JUMPDEST POP POP POP POP POP SWAP1 POP SWAP1 JUMP JUMPDEST PUSH1 0x3 DUP2 DUP2 SLOAD DUP2 LT PUSH2 0x5A1 JUMPI PUSH0 DUP1 REVERT JUMPDEST SWAP1 PUSH0 MSTORE PUSH1 0x20 PUSH0 KECCAK256 ADD PUSH0 SWAP2 POP SLOAD SWAP1 PUSH2 0x100 EXP SWAP1 DIV PUSH20 0xFFFFFFFFFFFFFFFFFFFFFFFFFFFFFFFFFFFFFFFF AND DUP2 JUMP JUMPDEST PUSH0 PUSH0 SWAP1 SLOAD SWAP1 PUSH2 0x100 EXP SWAP1 DIV PUSH20 0xFFFFFFFFFFFFFFFFFFFFFFFFFFFFFFFFFFFFFFFF AND PUSH20 0xFFFFFFFFFFFFFFFFFFFFFFFFFFFFFFFFFFFFFFFF AND CALLER PUSH20 0xFFFFFFFFFFFFFFFFFFFFFFFFFFFFFFFFFFFFFFFF AND EQ PUSH2 0x65B JUMPI PUSH1 0x40 MLOAD PUSH32 0x8C379A000000000000000000000000000000000000000000000000000000000 DUP2 MSTORE PUSH1 0x4 ADD PUSH2 0x652 SWAP1 PUSH2 0xE75 JUMP JUMPDEST PUSH1 0x40 MLOAD DUP1 SWAP2 SUB SWAP1 REVERT JUMPDEST PUSH1 0x2 PUSH0 DUP3 PUSH20 0xFFFFFFFFFFFFFFFFFFFFFFFFFFFFFFFFFFFFFFFF AND PUSH20 0xFFFFFFFFFFFFFFFFFFFFFFFFFFFFFFFFFFFFFFFF AND DUP2 MSTORE PUSH1 0x20 ADD SWAP1 DUP2 MSTORE PUSH1 0x20 ADD PUSH0 KECCAK256 PUSH0 SWAP1 SLOAD SWAP1 PUSH2 0x100 EXP SWAP1 DIV PUSH1 0xFF AND ISZERO PUSH2 0x6E5 JUMPI PUSH1 0x40 MLOAD PUSH32 0x8C379A000000000000000000000000000000000000000000000000000000000 DUP2 MSTORE PUSH1 0x4 ADD PUSH2 0x6DC SWAP1 PUSH2 0xEDD JUMP JUMPDEST PUSH1 0x40 MLOAD DUP1 SWAP2 SUB SWAP1 REVERT JUMPDEST PUSH1 0x1 PUSH1 0x2 PUSH0 DUP4 PUSH20 0xFFFFFFFFFFFFFFFFFFFFFFFFFFFFFFFFFFFFFFFF AND PUSH20 0xFFFFFFFFFFFFFFFFFFFFFFFFFFFFFFFFFFFFFFFF AND DUP2 MSTORE PUSH1 0x20 ADD SWAP1 DUP2 MSTORE PUSH1 0x20 ADD PUSH0 KECCAK256 PUSH0 PUSH2 0x100 EXP DUP2 SLOAD DUP2 PUSH1 0xFF MUL NOT AND SWAP1 DUP4 ISZERO ISZERO MUL OR SWAP1 SSTORE POP PUSH1 0x3 DUP2 SWAP1 DUP1 PUSH1 0x1 DUP2 SLOAD ADD DUP1 DUP3 SSTORE DUP1 SWAP2 POP POP PUSH1 0x1 SWAP1 SUB SWAP1 PUSH0 MSTORE PUSH1 0x20 PUSH0 KECCAK256 ADD PUSH0 SWAP1 SWAP2 SWAP1 SWAP2 SWAP1 SWAP2 PUSH2 0x100 EXP DUP2 SLOAD DUP2 PUSH20 0xFFFFFFFFFFFFFFFFFFFFFFFFFFFFFFFFFFFFFFFF MUL NOT AND SWAP1 DUP4 PUSH20 0xFFFFFFFFFFFFFFFFFFFFFFFFFFFFFFFFFFFFFFFF AND MUL OR SWAP1 SSTORE POP DUP1 PUSH20 0xFFFFFFFFFFFFFFFFFFFFFFFFFFFFFFFFFFFFFFFF AND PUSH32 0xB251EB052AFC73FFD02FFE85AD79990A8B3FED60D76DBC2FA2FDD7123DFFD914 PUSH1 0x40 MLOAD PUSH1 0x40 MLOAD DUP1 SWAP2 SUB SWAP1 LOG2 POP JUMP JUMPDEST PUSH1 0x60 PUSH1 0x1 DUP1 SLOAD PUSH2 0x7EF SWAP1 PUSH2 0xF28 JUMP JUMPDEST DUP1 PUSH1 0x1F ADD PUSH1 0x20 DUP1 SWAP2 DIV MUL PUSH1 0x20 ADD PUSH1 0x40 MLOAD SWAP1 DUP2 ADD PUSH1 0x40 MSTORE DUP1 SWAP3 SWAP2 SWAP1 DUP2 DUP2 MSTORE PUSH1 0x20 ADD DUP3 DUP1 SLOAD PUSH2 0x81B SWAP1 PUSH2 0xF28 JUMP JUMPDEST DUP1 ISZERO PUSH2 0x866 JUMPI DUP1 PUSH1 0x1F LT PUSH2 0x83D JUMPI PUSH2 0x100 DUP1 DUP4 SLOAD DIV MUL DUP4 MSTORE SWAP2 PUSH1 0x20 ADD SWAP2 PUSH2 0x866 JUMP JUMPDEST DUP3 ADD SWAP2 SWAP1 PUSH0 MSTORE PUSH1 0x20 PUSH0 KECCAK256 SWAP1 JUMPDEST DUP2 SLOAD DUP2 MSTORE SWAP1 PUSH1 0x1 ADD SWAP1 PUSH1 0x20 ADD DUP1 DUP4 GT PUSH2 0x849 JUMPI DUP3 SWAP1 SUB PUSH1 0x1F AND DUP3 ADD SWAP2 JUMPDEST POP POP POP POP POP SWAP1 POP SWAP1 JUMP JUMPDEST PUSH1 0x2 PUSH0 CALLER PUSH20 0xFFFFFFFFFFFFFFFFFFFFFFFFFFFFFFFFFFFFFFFF AND PUSH20 0xFFFFFFFFFFFFFFFFFFFFFFFFFFFFFFFFFFFFFFFF AND DUP2 MSTORE PUSH1 0x20 ADD SWAP1 DUP2 MSTORE PUSH1 0x20 ADD PUSH0 KECCAK256 PUSH0 SWAP1 SLOAD SWAP1 PUSH2 0x100 EXP SWAP1 DIV PUSH1 0xFF AND PUSH2 0x8F9 JUMPI PUSH1 0x40 MLOAD PUSH32 0x8C379A000000000000000000000000000000000000000000000000000000000 DUP2 MSTORE PUSH1 0x4 ADD PUSH2 0x8F0 SWAP1 PUSH2 0xFA2 JUMP JUMPDEST PUSH1 0x40 MLOAD DUP1 SWAP2 SUB SWAP1 REVERT JUMPDEST DUP2 DUP2 PUSH1 0x1 SWAP2 DUP3 PUSH2 0x90A SWAP3 SWAP2 SWAP1 PUSH2 0x1197 JUMP JUMPDEST POP PUSH32 0x22C2A3A1DCFCD9A26676800829D4DE849E614F2861C6969A30CF5881CEB19B82 DUP3 DUP3 PUSH1 0x40 MLOAD PUSH2 0x93C SWAP3 SWAP2 SWAP1 PUSH2 0x129E JUMP JUMPDEST PUSH1 0x40 MLOAD DUP1 SWAP2 SUB SWAP1 LOG1 POP POP JUMP JUMPDEST PUSH0 PUSH0 REVERT JUMPDEST PUSH0 PUSH0 REVERT JUMPDEST PUSH0 PUSH20 0xFFFFFFFFFFFFFFFFFFFFFFFFFFFFFFFFFFFFFFFF DUP3 AND SWAP1 POP SWAP2 SWAP1 POP JUMP JUMPDEST PUSH0 PUSH2 0x979 DUP3 PUSH2 0x950 JUMP JUMPDEST SWAP1 POP SWAP2 SWAP1 POP JUMP JUMPDEST PUSH2 0x989 DUP2 PUSH2 0x96F JUMP JUMPDEST DUP2 EQ PUSH2 0x993 JUMPI PUSH0 PUSH0 REVERT JUMPDEST POP JUMP JUMPDEST PUSH0 DUP2 CALLDATALOAD SWAP1 POP PUSH2 0x9A4 DUP2 PUSH2 0x980 JUMP JUMPDEST SWAP3 SWAP2 POP POP JUMP JUMPDEST PUSH0 PUSH1 0x20 DUP3 DUP5 SUB SLT ISZERO PUSH2 0x9BF JUMPI PUSH2 0x9BE PUSH2 0x948 JUMP JUMPDEST JUMPDEST PUSH0 PUSH2 0x9CC DUP5 DUP3 DUP6 ADD PUSH2 0x996 JUMP JUMPDEST SWAP2 POP POP SWAP3 SWAP2 POP POP JUMP JUMPDEST PUSH0 DUP2 ISZERO ISZERO SWAP1 POP SWAP2 SWAP1 POP JUMP JUMPDEST PUSH2 0x9E9 DUP2 PUSH2 0x9D5 JUMP JUMPDEST DUP3 MSTORE POP POP JUMP JUMPDEST PUSH0 PUSH1 0x20 DUP3 ADD SWAP1 POP PUSH2 0xA02 PUSH0 DUP4 ADD DUP5 PUSH2 0x9E0 JUMP JUMPDEST SWAP3 SWAP2 POP POP JUMP JUMPDEST PUSH2 0xA11 DUP2 PUSH2 0x96F JUMP JUMPDEST DUP3 MSTORE POP POP JUMP JUMPDEST PUSH0 PUSH1 0x20 DUP3 ADD SWAP1 POP PUSH2 0xA2A PUSH0 DUP4 ADD DUP5 PUSH2 0xA08 JUMP JUMPDEST SWAP3 SWAP2 POP POP JUMP JUMPDEST PUSH0 DUP2 MLOAD SWAP1 POP SWAP2 SWAP1 POP JUMP JUMPDEST PUSH0 DUP3 DUP3 MSTORE PUSH1 0x20 DUP3 ADD SWAP1 POP SWAP3 SWAP2 POP POP JUMP JUMPDEST PUSH0 DUP2 SWAP1 POP PUSH1 0x20 DUP3 ADD SWAP1 POP SWAP2 SWAP1 POP JUMP JUMPDEST PUSH2 0xA62 DUP2 PUSH2 0x96F JUMP JUMPDEST DUP3 MSTORE POP POP JUMP JUMPDEST PUSH0 PUSH2 0xA73 DUP4 DUP4 PUSH2 0xA59 JUMP JUMPDEST PUSH1 0x20 DUP4 ADD SWAP1 POP SWAP3 SWAP2 POP POP JUMP JUMPDEST PUSH0 PUSH1 0x20 DUP3 ADD SWAP1 POP SWAP2 SWAP1 POP JUMP JUMPDEST PUSH0 PUSH2 0xA95 DUP3 PUSH2 0xA30 JUMP JUMPDEST PUSH2 0xA9F DUP2 DUP6 PUSH2 0xA3A JUMP JUMPDEST SWAP4 POP PUSH2 0xAAA DUP4 PUSH2 0xA4A JUMP JUMPDEST DUP1 PUSH0 JUMPDEST DUP4 DUP2 LT ISZERO PUSH2 0xADA JUMPI DUP2 MLOAD PUSH2 0xAC1 DUP9 DUP3 PUSH2 0xA68 JUMP JUMPDEST SWAP8 POP PUSH2 0xACC DUP4 PUSH2 0xA7F JUMP JUMPDEST SWAP3 POP POP PUSH1 0x1 DUP2 ADD SWAP1 POP PUSH2 0xAAD JUMP JUMPDEST POP DUP6 SWAP4 POP POP POP POP SWAP3 SWAP2 POP POP JUMP JUMPDEST PUSH0 PUSH1 0x20 DUP3 ADD SWAP1 POP DUP2 DUP2 SUB PUSH0 DUP4 ADD MSTORE PUSH2 0xAFF DUP2 DUP5 PUSH2 0xA8B JUMP JUMPDEST SWAP1 POP SWAP3 SWAP2 POP POP JUMP JUMPDEST PUSH0 DUP2 SWAP1 POP SWAP2 SWAP1 POP JUMP JUMPDEST PUSH2 0xB19 DUP2 PUSH2 0xB07 JUMP JUMPDEST DUP2 EQ PUSH2 0xB23 JUMPI PUSH0 PUSH0 REVERT JUMPDEST POP JUMP JUMPDEST PUSH0 DUP2 CALLDATALOAD SWAP1 POP PUSH2 0xB34 DUP2 PUSH2 0xB10 JUMP JUMPDEST SWAP3 SWAP2 POP POP JUMP JUMPDEST PUSH0 PUSH1 0x20 DUP3 DUP5 SUB SLT ISZERO PUSH2 0xB4F JUMPI PUSH2 0xB4E PUSH2 0x948 JUMP JUMPDEST JUMPDEST PUSH0 PUSH2 0xB5C DUP5 DUP3 DUP6 ADD PUSH2 0xB26 JUMP JUMPDEST SWAP2 POP POP SWAP3 SWAP2 POP POP JUMP JUMPDEST PUSH0 DUP2 MLOAD SWAP1 POP SWAP2 SWAP1 POP JUMP JUMPDEST PUSH0 DUP3 DUP3 MSTORE PUSH1 0x20 DUP3 ADD SWAP1 POP SWAP3 SWAP2 POP POP JUMP JUMPDEST DUP3 DUP2 DUP4 MCOPY PUSH0 DUP4 DUP4 ADD MSTORE POP POP POP JUMP JUMPDEST PUSH0 PUSH1 0x1F NOT PUSH1 0x1F DUP4 ADD AND SWAP1 POP SWAP2 SWAP1 POP JUMP JUMPDEST PUSH0 PUSH2 0xBA7 DUP3 PUSH2 0xB65 JUMP JUMPDEST PUSH2 0xBB1 DUP2 DUP6 PUSH2 0xB6F JUMP JUMPDEST SWAP4 POP PUSH2 0xBC1 DUP2 DUP6 PUSH1 0x20 DUP7 ADD PUSH2 0xB7F JUMP JUMPDEST PUSH2 0xBCA DUP2 PUSH2 0xB8D JUMP JUMPDEST DUP5 ADD SWAP2 POP POP SWAP3 SWAP2 POP POP JUMP JUMPDEST PUSH0 PUSH1 0x20 DUP3 ADD SWAP1 POP DUP2 DUP2 SUB PUSH0 DUP4 ADD MSTORE PUSH2 0xBED DUP2 DUP5 PUSH2 0xB9D JUMP JUMPDEST SWAP1 POP SWAP3 SWAP2 POP POP JUMP JUMPDEST PUSH0 PUSH0 REVERT JUMPDEST PUSH0 PUSH0 REVERT JUMPDEST PUSH0 PUSH0 REVERT JUMPDEST PUSH0 PUSH0 DUP4 PUSH1 0x1F DUP5 ADD SLT PUSH2 0xC16 JUMPI PUSH2 0xC15 PUSH2 0xBF5 JUMP JUMPDEST JUMPDEST DUP3 CALLDATALOAD SWAP1 POP PUSH8 0xFFFFFFFFFFFFFFFF DUP2 GT ISZERO PUSH2 0xC33 JUMPI PUSH2 0xC32 PUSH2 0xBF9 JUMP JUMPDEST JUMPDEST PUSH1 0x20 DUP4 ADD SWAP2 POP DUP4 PUSH1 0x1 DUP3 MUL DUP4 ADD GT ISZERO PUSH2 0xC4F JUMPI PUSH2 0xC4E PUSH2 0xBFD JUMP JUMPDEST JUMPDEST SWAP3 POP SWAP3 SWAP1 POP JUMP JUMPDEST PUSH0 PUSH0 PUSH1 0x20 DUP4 DUP6 SUB SLT ISZERO PUSH2 0xC6C JUMPI PUSH2 0xC6B PUSH2 0x948 JUMP JUMPDEST JUMPDEST PUSH0 DUP4 ADD CALLDATALOAD PUSH8 0xFFFFFFFFFFFFFFFF DUP2 GT ISZERO PUSH2 0xC89 JUMPI PUSH2 0xC88 PUSH2 0x94C JUMP JUMPDEST JUMPDEST PUSH2 0xC95 DUP6 DUP3 DUP7 ADD PUSH2 0xC01 JUMP JUMPDEST SWAP3 POP SWAP3 POP POP SWAP3 POP SWAP3 SWAP1 POP JUMP JUMPDEST PUSH32 0x4F6E6C79206F776E65722063616E2072656D6F7665206D656D62657273000000 PUSH0 DUP3 ADD MSTORE POP JUMP JUMPDEST PUSH0 PUSH2 0xCD5 PUSH1 0x1D DUP4 PUSH2 0xB6F JUMP JUMPDEST SWAP2 POP PUSH2 0xCE0 DUP3 PUSH2 0xCA1 JUMP JUMPDEST PUSH1 0x20 DUP3 ADD SWAP1 POP SWAP2 SWAP1 POP JUMP JUMPDEST PUSH0 PUSH1 0x20 DUP3 ADD SWAP1 POP DUP2 DUP2 SUB PUSH0 DUP4 ADD MSTORE PUSH2 0xD02 DUP2 PUSH2 0xCC9 JUMP JUMPDEST SWAP1 POP SWAP2 SWAP1 POP JUMP JUMPDEST PUSH32 0x4E6F742061206D656D6265720000000000000000000000000000000000000000 PUSH0 DUP3 ADD MSTORE POP JUMP JUMPDEST PUSH0 PUSH2 0xD3D PUSH1 0xC DUP4 PUSH2 0xB6F JUMP JUMPDEST SWAP2 POP PUSH2 0xD48 DUP3 PUSH2 0xD09 JUMP JUMPDEST PUSH1 0x20 DUP3 ADD SWAP1 POP SWAP2 SWAP1 POP JUMP JUMPDEST PUSH0 PUSH1 0x20 DUP3 ADD SWAP1 POP DUP2 DUP2 SUB PUSH0 DUP4 ADD MSTORE PUSH2 0xD6A DUP2 PUSH2 0xD31 JUMP JUMPDEST SWAP1 POP SWAP2 SWAP1 POP JUMP JUMPDEST PUSH32 0x4E487B7100000000000000000000000000000000000000000000000000000000 PUSH0 MSTORE PUSH1 0x32 PUSH1 0x4 MSTORE PUSH1 0x24 PUSH0 REVERT JUMPDEST PUSH32 0x4E487B7100000000000000000000000000000000000000000000000000000000 PUSH0 MSTORE PUSH1 0x11 PUSH1 0x4 MSTORE PUSH1 0x24 PUSH0 REVERT JUMPDEST PUSH0 PUSH2 0xDD5 DUP3 PUSH2 0xB07 JUMP JUMPDEST SWAP2 POP PUSH2 0xDE0 DUP4 PUSH2 0xB07 JUMP JUMPDEST SWAP3 POP DUP3 DUP3 SUB SWAP1 POP DUP2 DUP2 GT ISZERO PUSH2 0xDF8 JUMPI PUSH2 0xDF7 PUSH2 0xD9E JUMP JUMPDEST JUMPDEST SWAP3 SWAP2 POP POP JUMP JUMPDEST PUSH32 0x4E487B7100000000000000000000000000000000000000000000000000000000 PUSH0 MSTORE PUSH1 0x31 PUSH1 0x4 MSTORE PUSH1 0x24 PUSH0 REVERT JUMPDEST PUSH32 0x4F6E6C79206F776E65722063616E20616464206D656D62657273000000000000 PUSH0 DUP3 ADD MSTORE POP JUMP JUMPDEST PUSH0 PUSH2 0xE5F PUSH1 0x1A DUP4 PUSH2 0xB6F JUMP JUMPDEST SWAP2 POP PUSH2 0xE6A DUP3 PUSH2 0xE2B JUMP JUMPDEST PUSH1 0x20 DUP3 ADD SWAP1 POP SWAP2 SWAP1 POP JUMP JUMPDEST PUSH0 PUSH1 0x20 DUP3 ADD SWAP1 POP DUP2 DUP2 SUB PUSH0 DUP4 ADD MSTORE PUSH2 0xE8C DUP2 PUSH2 0xE53 JUMP JUMPDEST SWAP1 POP SWAP2 SWAP1 POP JUMP JUMPDEST PUSH32 0x416C72656164792061206D656D62657200000000000000000000000000000000 PUSH0 DUP3 ADD MSTORE POP JUMP JUMPDEST PUSH0 PUSH2 0xEC7 PUSH1 0x10 DUP4 PUSH2 0xB6F JUMP JUMPDEST SWAP2 POP PUSH2 0xED2 DUP3 PUSH2 0xE93 JUMP JUMPDEST PUSH1 0x20 DUP3 ADD SWAP1 POP SWAP2 SWAP1 POP JUMP JUMPDEST PUSH0 PUSH1 0x20 DUP3 ADD SWAP1 POP DUP2 DUP2 SUB PUSH0 DUP4 ADD MSTORE PUSH2 0xEF4 DUP2 PUSH2 0xEBB JUMP JUMPDEST SWAP1 POP SWAP2 SWAP1 POP JUMP JUMPDEST PUSH32 0x4E487B7100000000000000000000000000000000000000000000000000000000 PUSH0 MSTORE PUSH1 0x22 PUSH1 0x4 MSTORE PUSH1 0x24 PUSH0 REVERT JUMPDEST PUSH0 PUSH1 0x2 DUP3 DIV SWAP1 POP PUSH1 0x1 DUP3 AND DUP1 PUSH2 0xF3F JUMPI PUSH1 0x7F DUP3 AND SWAP2 POP JUMPDEST PUSH1 0x20 DUP3 LT DUP2 SUB PUSH2 0xF52 JUMPI PUSH2 0xF51 PUSH2 0xEFB JUMP JUMPDEST JUMPDEST POP SWAP2 SWAP1 POP JUMP JUMPDEST PUSH32 0x4E6F74206120636F6D6D756E697479206D656D62657200000000000000000000 PUSH0 DUP3 ADD MSTORE POP JUMP JUMPDEST PUSH0 PUSH2 0xF8C PUSH1 0x16 DUP4 PUSH2 0xB6F JUMP JUMPDEST SWAP2 POP PUSH2 0xF97 DUP3 PUSH2 0xF58 JUMP JUMPDEST PUSH1 0x20 DUP3 ADD SWAP1 POP SWAP2 SWAP1 POP JUMP JUMPDEST PUSH0 PUSH1 0x20 DUP3 ADD SWAP1 POP DUP2 DUP2 SUB PUSH0 DUP4 ADD MSTORE PUSH2 0xFB9 DUP2 PUSH2 0xF80 JUMP JUMPDEST SWAP1 POP SWAP2 SWAP1 POP JUMP JUMPDEST PUSH0 DUP3 SWAP1 POP SWAP3 SWAP2 POP POP JUMP JUMPDEST PUSH32 0x4E487B7100000000000000000000000000000000000000000000000000000000 PUSH0 MSTORE PUSH1 0x41 PUSH1 0x4 MSTORE PUSH1 0x24 PUSH0 REVERT JUMPDEST PUSH0 DUP2 SWAP1 POP DUP2 PUSH0 MSTORE PUSH1 0x20 PUSH0 KECCAK256 SWAP1 POP SWAP2 SWAP1 POP JUMP JUMPDEST PUSH0 PUSH1 0x20 PUSH1 0x1F DUP4 ADD DIV SWAP1 POP SWAP2 SWAP1 POP JUMP JUMPDEST PUSH0 DUP3 DUP3 SHL SWAP1 POP SWAP3 SWAP2 POP POP JUMP JUMPDEST PUSH0 PUSH1 0x8 DUP4 MUL PUSH2 0x1053 PUSH32 0xFFFFFFFFFFFFFFFFFFFFFFFFFFFFFFFFFFFFFFFFFFFFFFFFFFFFFFFFFFFFFFFF DUP3 PUSH2 0x1018 JUMP JUMPDEST PUSH2 0x105D DUP7 DUP4 PUSH2 0x1018 JUMP JUMPDEST SWAP6 POP DUP1 NOT DUP5 AND SWAP4 POP DUP1 DUP7 AND DUP5 OR SWAP3 POP POP POP SWAP4 SWAP3 POP POP POP JUMP JUMPDEST PUSH0 DUP2 SWAP1 POP SWAP2 SWAP1 POP JUMP JUMPDEST PUSH0 PUSH2 0x1098 PUSH2 0x1093 PUSH2 0x108E DUP5 PUSH2 0xB07 JUMP JUMPDEST PUSH2 0x1075 JUMP JUMPDEST PUSH2 0xB07 JUMP JUMPDEST SWAP1 POP SWAP2 SWAP1 POP JUMP JUMPDEST PUSH0 DUP2 SWAP1 POP SWAP2 SWAP1 POP JUMP JUMPDEST PUSH2 0x10B1 DUP4 PUSH2 0x107E JUMP JUMPDEST PUSH2 0x10C5 PUSH2 0x10BD DUP3 PUSH2 0x109F JUMP JUMPDEST DUP5 DUP5 SLOAD PUSH2 0x1024 JUMP JUMPDEST DUP3 SSTORE POP POP POP POP JUMP JUMPDEST PUSH0 PUSH0 SWAP1 POP SWAP1 JUMP JUMPDEST PUSH2 0x10DC PUSH2 0x10CD JUMP JUMPDEST PUSH2 0x10E7 DUP2 DUP5 DUP5 PUSH2 0x10A8 JUMP JUMPDEST POP POP POP JUMP JUMPDEST JUMPDEST DUP2 DUP2 LT ISZERO PUSH2 0x110A JUMPI PUSH2 0x10FF PUSH0 DUP3 PUSH2 0x10D4 JUMP JUMPDEST PUSH1 0x1 DUP2 ADD SWAP1 POP PUSH2 0x10ED JUMP JUMPDEST POP POP JUMP JUMPDEST PUSH1 0x1F DUP3 GT ISZERO PUSH2 0x114F JUMPI PUSH2 0x1120 DUP2 PUSH2 0xFF7 JUMP JUMPDEST PUSH2 0x1129 DUP5 PUSH2 0x1009 JUMP JUMPDEST DUP2 ADD PUSH1 0x20 DUP6 LT ISZERO PUSH2 0x1138 JUMPI DUP2 SWAP1 POP JUMPDEST PUSH2 0x114C PUSH2 0x1144 DUP6 PUSH2 0x1009 JUMP JUMPDEST DUP4 ADD DUP3 PUSH2 0x10EC JUMP JUMPDEST POP POP JUMPDEST POP POP POP JUMP JUMPDEST PUSH0 DUP3 DUP3 SHR SWAP1 POP SWAP3 SWAP2 POP POP JUMP JUMPDEST PUSH0 PUSH2 0x116F PUSH0 NOT DUP5 PUSH1 0x8 MUL PUSH2 0x1154 JUMP JUMPDEST NOT DUP1 DUP4 AND SWAP2 POP POP SWAP3 SWAP2 POP POP JUMP JUMPDEST PUSH0 PUSH2 0x1187 DUP4 DUP4 PUSH2 0x1160 JUMP JUMPDEST SWAP2 POP DUP3 PUSH1 0x2 MUL DUP3 OR SWAP1 POP SWAP3 SWAP2 POP POP JUMP JUMPDEST PUSH2 0x11A1 DUP4 DUP4 PUSH2 0xFC0 JUMP JUMPDEST PUSH8 0xFFFFFFFFFFFFFFFF DUP2 GT ISZERO PUSH2 0x11BA JUMPI PUSH2 0x11B9 PUSH2 0xFCA JUMP JUMPDEST JUMPDEST PUSH2 0x11C4 DUP3 SLOAD PUSH2 0xF28 JUMP JUMPDEST PUSH2 0x11CF DUP3 DUP3 DUP6 PUSH2 0x110E JUMP JUMPDEST PUSH0 PUSH1 0x1F DUP4 GT PUSH1 0x1 DUP2 EQ PUSH2 0x11FC JUMPI PUSH0 DUP5 ISZERO PUSH2 0x11EA JUMPI DUP3 DUP8 ADD CALLDATALOAD SWAP1 POP JUMPDEST PUSH2 0x11F4 DUP6 DUP3 PUSH2 0x117C JUMP JUMPDEST DUP7 SSTORE POP PUSH2 0x125B JUMP JUMPDEST PUSH1 0x1F NOT DUP5 AND PUSH2 0x120A DUP7 PUSH2 0xFF7 JUMP JUMPDEST PUSH0 JUMPDEST DUP3 DUP2 LT ISZERO PUSH2 0x1231 JUMPI DUP5 DUP10 ADD CALLDATALOAD DUP3 SSTORE PUSH1 0x1 DUP3 ADD SWAP2 POP PUSH1 0x20 DUP6 ADD SWAP5 POP PUSH1 0x20 DUP2 ADD SWAP1 POP PUSH2 0x120C JUMP JUMPDEST DUP7 DUP4 LT ISZERO PUSH2 0x124E JUMPI DUP5 DUP10 ADD CALLDATALOAD PUSH2 0x124A PUSH1 0x1F DUP10 AND DUP3 PUSH2 0x1160 JUMP JUMPDEST DUP4 SSTORE POP JUMPDEST PUSH1 0x1 PUSH1 0x2 DUP9 MUL ADD DUP9 SSTORE POP POP POP JUMPDEST POP POP POP POP POP POP POP JUMP JUMPDEST DUP3 DUP2 DUP4 CALLDATACOPY PUSH0 DUP4 DUP4 ADD MSTORE POP POP POP JUMP JUMPDEST PUSH0 PUSH2 0x127D DUP4 DUP6 PUSH2 0xB6F JUMP JUMPDEST SWAP4 POP PUSH2 0x128A DUP4 DUP6 DUP5 PUSH2 0x1264 JUMP JUMPDEST PUSH2 0x1293 DUP4 PUSH2 0xB8D JUMP JUMPDEST DUP5 ADD SWAP1 POP SWAP4 SWAP3 POP POP POP JUMP JUMPDEST PUSH0 PUSH1 0x20 DUP3 ADD SWAP1 POP DUP2 DUP2 SUB PUSH0 DUP4 ADD MSTORE PUSH2 0x12B7 DUP2 DUP5 DUP7 PUSH2 0x1272 JUMP JUMPDEST SWAP1 POP SWAP4 SWAP3 POP POP POP JUMP INVALID LOG2 PUSH5 0x6970667358 0x22 SLT KECCAK256 0xC5 PUSH21 0x45024C77C7C04F7200B4338E6DF2B5B43847E374F8 GASPRICE PUSH8 0xB69B3AFE4801BB64 PUSH20 0x6F6C634300081D00330000000000000000000000 "
				},
				"gasEstimates": {
					"creation": {
						"codeDepositCost": "970800",
						"executionCost": "99358",
						"totalCost": "1070158"
					},
					"external": {
						"addMember(address)": "78973",
						"getMembers()": "infinite",
						"getMessage()": "infinite",
						"memberList(uint256)": "4944",
						"members(address)": "2834",
						"owner()": "2552",
						"removeMember(address)": "infinite",
						"storeMessage(string)": "infinite"
					}
				},
				"methodIdentifiers": {
					"addMember(address)": "ca6d56dc",
					"getMembers()": "9eab5253",
					"getMessage()": "ce6d41de",
					"memberList(uint256)": "b307fc6d",
					"members(address)": "08ae4b0c",
					"owner()": "8da5cb5b",
					"removeMember(address)": "0b1ca49a",
					"storeMessage(string)": "d4e36ba7"
				}
			},
			"storageLayout": {
				"storage": [
					{
						"astId": 4,
						"contract": "C/cloudCommunity.sol:CommunityCloud",
						"label": "owner",
						"offset": 0,
						"slot": "0",
						"type": "t_address"
					},
					{
						"astId": 6,
						"contract": "C/cloudCommunity.sol:CommunityCloud",
						"label": "message",
						"offset": 0,
						"slot": "1",
						"type": "t_string_storage"
					},
					{
						"astId": 10,
						"contract": "C/cloudCommunity.sol:CommunityCloud",
						"label": "members",
						"offset": 0,
						"slot": "2",
						"type": "t_mapping(t_address,t_bool)"
					},
					{
						"astId": 13,
						"contract": "C/cloudCommunity.sol:CommunityCloud",
						"label": "memberList",
						"offset": 0,
						"slot": "3",
						"type": "t_array(t_address)dyn_storage"
					}
				],
				"types": {
					"t_address": {
						"encoding": "inplace",
						"label": "address",
						"numberOfBytes": "20"
					},
					"t_array(t_address)dyn_storage": {
						"base": "t_address",
						"encoding": "dynamic_array",
						"label": "address[]",
						"numberOfBytes": "32"
					},
					"t_bool": {
						"encoding": "inplace",
						"label": "bool",
						"numberOfBytes": "1"
					},
					"t_mapping(t_address,t_bool)": {
						"encoding": "mapping",
						"key": "t_address",
						"label": "mapping(address => bool)",
						"numberOfBytes": "32",
						"value": "t_bool"
					},
					"t_string_storage": {
						"encoding": "bytes",
						"label": "string",
						"numberOfBytes": "32"
					}
				}
			},
			"userdoc": {
				"kind": "user",
				"methods": {
					"addMember(address)": {
						"notice": "Adds a new member to the community cloud."
					},
					"getMembers()": {
						"notice": "Retrieves the list of community members."
					},
					"getMessage()": {
						"notice": "Retrieves the stored message."
					},
					"removeMember(address)": {
						"notice": "Removes a member from the community cloud."
					},
					"storeMessage(string)": {
						"notice": "Stores a message. Only community members can call this."
					}
				},
				"notice": "A simple contract simulating a community cloud where only consortium members can store data. Membership is managed by the owner.",
				"version": 1
			}
		}
	}
}