{
	"data": {
		"bytecode": {
			"linkReferences": {},
			"object": "608060405234801561000f575f5ffd5b50604051610e05380380610e0583398181016040528101906100319190610279565b335f73ffffffffffffffffffffffffffffffffffffffff168173ffffffffffffffffffffffffffffffffffffffff16036100a2575f6040517f1e4fbdf7000000000000000000000000000000000000000000000000000000008152600401610099919061031c565b60405180910390fd5b6100b18161018160201b60201c565b505f841180156100c057505f83115b6100ff576040517f08c379a00000000000000000000000000000000000000000000000000000000081526004016100f69061038f565b60405180910390fd5b5f8211801561010d57505f81115b61014c576040517f08c379a0000000000000000000000000000000000000000000000000000000008152600401610143906103f7565b60405180910390fd5b836001819055508260028190555081600381905550806004819055506001600581905550600160068190555050505050610415565b5f5f5f9054906101000a900473ffffffffffffffffffffffffffffffffffffffff169050815f5f6101000a81548173ffffffffffffffffffffffffffffffffffffffff021916908373ffffffffffffffffffffffffffffffffffffffff1602179055508173ffffffffffffffffffffffffffffffffffffffff168173ffffffffffffffffffffffffffffffffffffffff167f8be0079c531659141344cd1fd0a4f28419497f9722a3daafe3b4186f6b6457e060405160405180910390a35050565b5f5ffd5b5f819050919050565b61025881610246565b8114610262575f5ffd5b50565b5f815190506102738161024f565b92915050565b5f5f5f5f6080858703121561029157610290610242565b5b5f61029e87828801610265565b94505060206102af87828801610265565b93505060406102c087828801610265565b92505060606102d187828801610265565b91505092959194509250565b5f73ffffffffffffffffffffffffffffffffffffffff82169050919050565b5f610306826102dd565b9050919050565b610316816102fc565b82525050565b5f60208201905061032f5f83018461030d565b92915050565b5f82825260208201905092915050565b7f496e76616c69642066697865642065706f636820706172616d657465727300005f82015250565b5f610379601e83610335565b915061038482610345565b602082019050919050565b5f6020820190508181035f8301526103a68161036d565b9050919050565b7f496e76616c696420736c6964696e672065706f636820706172616d65746572735f82015250565b5f6103e1602083610335565b91506103ec826103ad565b602082019050919050565b5f6020820190508181035f83015261040e816103d5565b9050919050565b6109e3806104225f395ff3fe608060405234801561000f575f5ffd5b50600436106100e8575f3560e01c80636749ae7f1161008a578063a52eef6d11610064578063a52eef6d146101ee578063ce410bea1461020c578063ed6b27871461022a578063f2fde38b14610248576100e8565b80636749ae7f146101aa578063715018a6146101c65780638da5cb5b146101d0576100e8565b80631bfd6dae116100c65780631bfd6dae1461013257806351695ed01461015057806352e6a9e41461016e57806359b30aea1461018c576100e8565b8063069e5735146100ec57806315eef9481461010a578063186aa80c14610128575b5f5ffd5b6100f4610264565b60405161010191906106ab565b60405180910390f35b6101126102a4565b60405161011f91906106ab565b60405180910390f35b6101306102aa565b005b61013a610306565b60405161014791906106ab565b60405180910390f35b6101586103bf565b60405161016591906106ab565b60405180910390f35b6101766103c5565b60405161018391906106ab565b60405180910390f35b6101946103cb565b6040516101a191906106ab565b60405180910390f35b6101c460048036038101906101bf91906106f2565b6103d1565b005b6101ce610471565b005b6101d8610484565b6040516101e5919061076f565b60405180910390f35b6101f66104ab565b60405161020391906106ab565b60405180910390f35b6102146104b1565b60405161022191906106ab565b60405180910390f35b6102326104b7565b60405161023f91906106ab565b60405180910390f35b610262600480360381019061025d91906107b2565b6104c0565b005b5f600154421015610277575f90506102a1565b60016002546001544261028a919061080a565b610294919061086a565b61029e919061089a565b90505b90565b60055481565b6102b2610544565b600160065f8282546102c4919061089a565b925050819055507f6d65864708a1de3400104ea6285c2e7c23977eb87161fe7c86071c2dfdb7ab346006546040516102fc91906106ab565b60405180910390a1565b5f600454600354610317919061089a565b42106103b7575f6004546003544261032f919061080a565b610339919061086a565b90508060055f82825461034c919061089a565b925050819055506004548161036191906108cd565b60035f828254610371919061089a565b925050819055507f406e82a487f5c7383e8b2dd97df3aa4086c5878a23a02f29a755d72090448fdd6005546003546040516103ad92919061090e565b60405180910390a1505b600554905090565b60035481565b60025481565b60015481565b6103d9610544565b5f821180156103e757505f81115b610426576040517f08c379a000000000000000000000000000000000000000000000000000000000815260040161041d9061098f565b60405180910390fd5b81600181905550806002819055507f547afe8d0ebab9c2a92df2eae434f71a839c1ee19ea46df4f276885170cc19c0828260405161046592919061090e565b60405180910390a15050565b610479610544565b6104825f6105cb565b565b5f5f5f9054906101000a900473ffffffffffffffffffffffffffffffffffffffff16905090565b60065481565b60045481565b5f600654905090565b6104c8610544565b5f73ffffffffffffffffffffffffffffffffffffffff168173ffffffffffffffffffffffffffffffffffffffff1603610538575f6040517f1e4fbdf700000000000000000000000000000000000000000000000000000000815260040161052f919061076f565b60405180910390fd5b610541816105cb565b50565b61054c61068c565b73ffffffffffffffffffffffffffffffffffffffff1661056a610484565b73ffffffffffffffffffffffffffffffffffffffff16146105c95761058d61068c565b6040517f118cdaa70000000000000000000000000000000000000000000000000000000081526004016105c0919061076f565b60405180910390fd5b565b5f5f5f9054906101000a900473ffffffffffffffffffffffffffffffffffffffff169050815f5f6101000a81548173ffffffffffffffffffffffffffffffffffffffff021916908373ffffffffffffffffffffffffffffffffffffffff1602179055508173ffffffffffffffffffffffffffffffffffffffff168173ffffffffffffffffffffffffffffffffffffffff167f8be0079c531659141344cd1fd0a4f28419497f9722a3daafe3b4186f6b6457e060405160405180910390a35050565b5f33905090565b5f819050919050565b6106a581610693565b82525050565b5f6020820190506106be5f83018461069c565b92915050565b5f5ffd5b6106d181610693565b81146106db575f5ffd5b50565b5f813590506106ec816106c8565b92915050565b5f5f60408385031215610708576107076106c4565b5b5f610715858286016106de565b9250506020610726858286016106de565b9150509250929050565b5f73ffffffffffffffffffffffffffffffffffffffff82169050919050565b5f61075982610730565b9050919050565b6107698161074f565b82525050565b5f6020820190506107825f830184610760565b92915050565b6107918161074f565b811461079b575f5ffd5b50565b5f813590506107ac81610788565b92915050565b5f602082840312156107c7576107c66106c4565b5b5f6107d48482850161079e565b91505092915050565b7f4e487b71000000000000000000000000000000000000000000000000000000005f52601160045260245ffd5b5f61081482610693565b915061081f83610693565b9250828203905081811115610837576108366107dd565b5b92915050565b7f4e487b71000000000000000000000000000000000000000000000000000000005f52601260045260245ffd5b5f61087482610693565b915061087f83610693565b92508261088f5761088e61083d565b5b828204905092915050565b5f6108a482610693565b91506108af83610693565b92508282019050808211156108c7576108c66107dd565b5b92915050565b5f6108d782610693565b91506108e283610693565b92508282026108f081610693565b91508282048414831517610907576109066107dd565b5b5092915050565b5f6040820190506109215f83018561069c565b61092e602083018461069c565b9392505050565b5f82825260208201905092915050565b7f496e76616c696420706172616d657465727300000000000000000000000000005f82015250565b5f610979601283610935565b915061098482610945565b602082019050919050565b5f6020820190508181035f8301526109a68161096d565b905091905056fea2646970667358221220d29a8eec78322665346b5725720f7c988d6a040b825f8c078951a0ce49658c8b64736f6c634300081d0033",
			"opcodes": "PUSH1 0x80 PUSH1 0x40 MSTORE CALLVALUE DUP1 ISZERO PUSH2 0xF JUMPI PUSH0 PUSH0 REVERT JUMPDEST POP PUSH1 0x40 MLOAD PUSH2 0xE05 CODESIZE SUB DUP1 PUSH2 0xE05 DUP4 CODECOPY DUP2 DUP2 ADD PUSH1 0x40 MSTORE DUP2 ADD SWAP1 PUSH2 0x31 SWAP2 SWAP1 PUSH2 0x279 JUMP JUMPDEST CALLER PUSH0 PUSH20 0xFFFFFFFFFFFFFFFFFFFFFFFFFFFFFFFFFFFFFFFF AND DUP2 PUSH20 0xFFFFFFFFFFFFFFFFFFFFFFFFFFFFFFFFFFFFFFFF AND SUB PUSH2 0xA2 JUMPI PUSH0 PUSH1 0x40 MLOAD PUSH32 0x1E4FBDF700000000000000000000000000000000000000000000000000000000 DUP2 MSTORE PUSH1 0x4 ADD PUSH2 0x99 SWAP2 SWAP1 PUSH2 0x31C JUMP JUMPDEST PUSH1 0x40 MLOAD DUP1 SWAP2 SUB SWAP1 REVERT JUMPDEST PUSH2 0xB1 DUP2 PUSH2 0x181 PUSH1 0x20 SHL PUSH1 0x20 SHR JUMP JUMPDEST POP PUSH0 DUP5 GT DUP1 ISZERO PUSH2 0xC0 JUMPI POP PUSH0 DUP4 GT JUMPDEST PUSH2 0xFF JUMPI PUSH1 0x40 MLOAD PUSH32 0x8C379A000000000000000000000000000000000000000000000000000000000 DUP2 MSTORE PUSH1 0x4 ADD PUSH2 0xF6 SWAP1 PUSH2 0x38F JUMP JUMPDEST PUSH1 0x40 MLOAD DUP1 SWAP2 SUB SWAP1 REVERT JUMPDEST PUSH0 DUP3 GT DUP1 ISZERO PUSH2 0x10D JUMPI POP PUSH0 DUP2 GT JUMPDEST PUSH2 0x14C JUMPI PUSH1 0x40 MLOAD PUSH32 0x8C379A000000000000000000000000000000000000000000000000000000000 DUP2 MSTORE PUSH1 0x4 ADD PUSH2 0x143 SWAP1 PUSH2 0x3F7 JUMP JUMPDEST PUSH1 0x40 MLOAD DUP1 SWAP2 SUB SWAP1 REVERT JUMPDEST DUP4 PUSH1 0x1 DUP2 SWAP1 SSTORE POP DUP3 PUSH1 0x2 DUP2 SWAP1 SSTORE POP DUP2 PUSH1 0x3 DUP2 SWAP1 SSTORE POP DUP1 PUSH1 0x4 DUP2 SWAP1 SSTORE POP PUSH1 0x1 PUSH1 0x5 DUP2 SWAP1 SSTORE POP PUSH1 0x1 PUSH1 0x6 DUP2 SWAP1 SSTORE POP POP POP POP POP PUSH2 0x415 JUMP JUMPDEST PUSH0 PUSH0 PUSH0 SWAP1 SLOAD SWAP1 PUSH2 0x100 EXP SWAP1 DIV PUSH20 0xFFFFFFFFFFFFFFFFFFFFFFFFFFFFFFFFFFFFFFFF AND SWAP1 POP DUP2 PUSH0 PUSH0 PUSH2 0x100 EXP DUP2 SLOAD DUP2 PUSH20 0xFFFFFFFFFFFFFFFFFFFFFFFFFFFFFFFFFFFFFFFF MUL NOT AND SWAP1 DUP4 PUSH20 0xFFFFFFFFFFFFFFFFFFFFFFFFFFFFFFFFFFFFFFFF AND MUL OR SWAP1 SSTORE POP DUP2 PUSH20 0xFFFFFFFFFFFFFFFFFFFFFFFFFFFFFFFFFFFFFFFF AND DUP2 PUSH20 0xFFFFFFFFFFFFFFFFFFFFFFFFFFFFFFFFFFFFFFFF AND PUSH32 0x8BE0079C531659141344CD1FD0A4F28419497F9722A3DAAFE3B4186F6B6457E0 PUSH1 0x40 MLOAD PUSH1 0x40 MLOAD DUP1 SWAP2 SUB SWAP1 LOG3 POP POP JUMP JUMPDEST PUSH0 PUSH0 REVERT JUMPDEST PUSH0 DUP2 SWAP1 POP SWAP2 SWAP1 POP JUMP JUMPDEST PUSH2 0x258 DUP2 PUSH2 0x246 JUMP JUMPDEST DUP2 EQ PUSH2 0x262 JUMPI PUSH0 PUSH0 REVERT JUMPDEST POP JUMP JUMPDEST PUSH0 DUP2 MLOAD SWAP1 POP PUSH2 0x273 DUP2 PUSH2 0x24F JUMP JUMPDEST SWAP3 SWAP2 POP POP JUMP JUMPDEST PUSH0 PUSH0 PUSH0 PUSH0 PUSH1 0x80 DUP6 DUP8 SUB SLT ISZERO PUSH2 0x291 JUMPI PUSH2 0x290 PUSH2 0x242 JUMP JUMPDEST JUMPDEST PUSH0 PUSH2 0x29E DUP8 DUP3 DUP9 ADD PUSH2 0x265 JUMP JUMPDEST SWAP5 POP POP PUSH1 0x20 PUSH2 0x2AF DUP8 DUP3 DUP9 ADD PUSH2 0x265 JUMP JUMPDEST SWAP4 POP POP PUSH1 0x40 PUSH2 0x2C0 DUP8 DUP3 DUP9 ADD PUSH2 0x265 JUMP JUMPDEST SWAP3 POP POP PUSH1 0x60 PUSH2 0x2D1 DUP8 DUP3 DUP9 ADD PUSH2 0x265 JUMP JUMPDEST SWAP2 POP POP SWAP3 SWAP6 SWAP2 SWAP5 POP SWAP3 POP JUMP JUMPDEST PUSH0 PUSH20 0xFFFFFFFFFFFFFFFFFFFFFFFFFFFFFFFFFFFFFFFF DUP3 AND SWAP1 POP SWAP2 SWAP1 POP JUMP JUMPDEST PUSH0 PUSH2 0x306 DUP3 PUSH2 0x2DD JUMP JUMPDEST SWAP1 POP SWAP2 SWAP1 POP JUMP JUMPDEST PUSH2 0x316 DUP2 PUSH2 0x2FC JUMP JUMPDEST DUP3 MSTORE POP POP JUMP JUMPDEST PUSH0 PUSH1 0x20 DUP3 ADD SWAP1 POP PUSH2 0x32F PUSH0 DUP4 ADD DUP5 PUSH2 0x30D JUMP JUMPDEST SWAP3 SWAP2 POP POP JUMP JUMPDEST PUSH0 DUP3 DUP3 MSTORE PUSH1 0x20 DUP3 ADD SWAP1 POP SWAP3 SWAP2 POP POP JUMP JUMPDEST PUSH32 0x496E76616C69642066697865642065706F636820706172616D65746572730000 PUSH0 DUP3 ADD MSTORE POP JUMP JUMPDEST PUSH0 PUSH2 0x379 PUSH1 0x1E DUP4 PUSH2 0x335 JUMP JUMPDEST SWAP2 POP PUSH2 0x384 DUP3 PUSH2 0x345 JUMP JUMPDEST PUSH1 0x20 DUP3 ADD SWAP1 POP SWAP2 SWAP1 POP JUMP JUMPDEST PUSH0 PUSH1 0x20 DUP3 ADD SWAP1 POP DUP2 DUP2 SUB PUSH0 DUP4 ADD MSTORE PUSH2 0x3A6 DUP2 PUSH2 0x36D JUMP JUMPDEST SWAP1 POP SWAP2 SWAP1 POP JUMP JUMPDEST PUSH32 0x496E76616C696420736C6964696E672065706F636820706172616D6574657273 PUSH0 DUP3 ADD MSTORE POP JUMP JUMPDEST PUSH0 PUSH2 0x3E1 PUSH1 0x20 DUP4 PUSH2 0x335 JUMP JUMPDEST SWAP2 POP PUSH2 0x3EC DUP3 PUSH2 0x3AD JUMP JUMPDEST PUSH1 0x20 DUP3 ADD SWAP1 POP SWAP2 SWAP1 POP JUMP JUMPDEST PUSH0 PUSH1 0x20 DUP3 ADD SWAP1 POP DUP2 DUP2 SUB PUSH0 DUP4 ADD MSTORE PUSH2 0x40E DUP2 PUSH2 0x3D5 JUMP JUMPDEST SWAP1 POP SWAP2 SWAP1 POP JUMP JUMPDEST PUSH2 0x9E3 DUP1 PUSH2 0x422 PUSH0 CODECOPY PUSH0 RETURN INVALID PUSH1 0x80 PUSH1 0x40 MSTORE CALLVALUE DUP1 ISZERO PUSH2 0xF JUMPI PUSH0 PUSH0 REVERT JUMPDEST POP PUSH1 0x4 CALLDATASIZE LT PUSH2 0xE8 JUMPI PUSH0 CALLDATALOAD PUSH1 0xE0 SHR DUP1 PUSH4 0x6749AE7F GT PUSH2 0x8A JUMPI DUP1 PUSH4 0xA52EEF6D GT PUSH2 0x64 JUMPI DUP1 PUSH4 0xA52EEF6D EQ PUSH2 0x1EE JUMPI DUP1 PUSH4 0xCE410BEA EQ PUSH2 0x20C JUMPI DUP1 PUSH4 0xED6B2787 EQ PUSH2 0x22A JUMPI DUP1 PUSH4 0xF2FDE38B EQ PUSH2 0x248 JUMPI PUSH2 0xE8 JUMP JUMPDEST DUP1 PUSH4 0x6749AE7F EQ PUSH2 0x1AA JUMPI DUP1 PUSH4 0x715018A6 EQ PUSH2 0x1C6 JUMPI DUP1 PUSH4 0x8DA5CB5B EQ PUSH2 0x1D0 JUMPI PUSH2 0xE8 JUMP JUMPDEST DUP1 PUSH4 0x1BFD6DAE GT PUSH2 0xC6 JUMPI DUP1 PUSH4 0x1BFD6DAE EQ PUSH2 0x132 JUMPI DUP1 PUSH4 0x51695ED0 EQ PUSH2 0x150 JUMPI DUP1 PUSH4 0x52E6A9E4 EQ PUSH2 0x16E JUMPI DUP1 PUSH4 0x59B30AEA EQ PUSH2 0x18C JUMPI PUSH2 0xE8 JUMP JUMPDEST DUP1 PUSH4 0x69E5735 EQ PUSH2 0xEC JUMPI DUP1 PUSH4 0x15EEF948 EQ PUSH2 0x10A JUMPI DUP1 PUSH4 0x186AA80C EQ PUSH2 0x128 JUMPI JUMPDEST PUSH0 PUSH0 REVERT JUMPDEST PUSH2 0xF4 PUSH2 0x264 JUMP JUMPDEST PUSH1 0x40 MLOAD PUSH2 0x101 SWAP2 SWAP1 PUSH2 0x6AB JUMP JUMPDEST PUSH1 0x40 MLOAD DUP1 SWAP2 SUB SWAP1 RETURN JUMPDEST PUSH2 0x112 PUSH2 0x2A4 JUMP JUMPDEST PUSH1 0x40 MLOAD PUSH2 0x11F SWAP2 SWAP1 PUSH2 0x6AB JUMP JUMPDEST PUSH1 0x40 MLOAD DUP1 SWAP2 SUB SWAP1 RETURN JUMPDEST PUSH2 0x130 PUSH2 0x2AA JUMP JUMPDEST STOP JUMPDEST PUSH2 0x13A PUSH2 0x306 JUMP JUMPDEST PUSH1 0x40 MLOAD PUSH2 0x147 SWAP2 SWAP1 PUSH2 0x6AB JUMP JUMPDEST PUSH1 0x40 MLOAD DUP1 SWAP2 SUB SWAP1 RETURN JUMPDEST PUSH2 0x158 PUSH2 0x3BF JUMP JUMPDEST PUSH1 0x40 MLOAD PUSH2 0x165 SWAP2 SWAP1 PUSH2 0x6AB JUMP JUMPDEST PUSH1 0x40 MLOAD DUP1 SWAP2 SUB SWAP1 RETURN JUMPDEST PUSH2 0x176 PUSH2 0x3C5 JUMP JUMPDEST PUSH1 0x40 MLOAD PUSH2 0x183 SWAP2 SWAP1 PUSH2 0x6AB JUMP JUMPDEST PUSH1 0x40 MLOAD DUP1 SWAP2 SUB SWAP1 RETURN JUMPDEST PUSH2 0x194 PUSH2 0x3CB JUMP JUMPDEST PUSH1 0x40 MLOAD PUSH2 0x1A1 SWAP2 SWAP1 PUSH2 0x6AB JUMP JUMPDEST PUSH1 0x40 MLOAD DUP1 SWAP2 SUB SWAP1 RETURN JUMPDEST PUSH2 0x1C4 PUSH1 0x4 DUP1 CALLDATASIZE SUB DUP2 ADD SWAP1 PUSH2 0x1BF SWAP2 SWAP1 PUSH2 0x6F2 JUMP JUMPDEST PUSH2 0x3D1 JUMP JUMPDEST STOP JUMPDEST PUSH2 0x1CE PUSH2 0x471 JUMP JUMPDEST STOP JUMPDEST PUSH2 0x1D8 PUSH2 0x484 JUMP JUMPDEST PUSH1 0x40 MLOAD PUSH2 0x1E5 SWAP2 SWAP1 PUSH2 0x76F JUMP JUMPDEST PUSH1 0x40 MLOAD DUP1 SWAP2 SUB SWAP1 RETURN JUMPDEST PUSH2 0x1F6 PUSH2 0x4AB JUMP JUMPDEST PUSH1 0x40 MLOAD PUSH2 0x203 SWAP2 SWAP1 PUSH2 0x6AB JUMP JUMPDEST PUSH1 0x40 MLOAD DUP1 SWAP2 SUB SWAP1 RETURN JUMPDEST PUSH2 0x214 PUSH2 0x4B1 JUMP JUMPDEST PUSH1 0x40 MLOAD PUSH2 0x221 SWAP2 SWAP1 PUSH2 0x6AB JUMP JUMPDEST PUSH1 0x40 MLOAD DUP1 SWAP2 SUB SWAP1 RETURN JUMPDEST PUSH2 0x232 PUSH2 0x4B7 JUMP JUMPDEST PUSH1 0x40 MLOAD PUSH2 0x23F SWAP2 SWAP1 PUSH2 0x6AB JUMP JUMPDEST PUSH1 0x40 MLOAD DUP1 SWAP2 SUB SWAP1 RETURN JUMPDEST PUSH2 0x262 PUSH1 0x4 DUP1 CALLDATASIZE SUB DUP2 ADD SWAP1 PUSH2 0x25D SWAP2 SWAP1 PUSH2 0x7B2 JUMP JUMPDEST PUSH2 0x4C0 JUMP JUMPDEST STOP JUMPDEST PUSH0 PUSH1 0x1 SLOAD TIMESTAMP LT ISZERO PUSH2 0x277 JUMPI PUSH0 SWAP1 POP PUSH2 0x2A1 JUMP JUMPDEST PUSH1 0x1 PUSH1 0x2 SLOAD PUSH1 0x1 SLOAD TIMESTAMP PUSH2 0x28A SWAP2 SWAP1 PUSH2 0x80A JUMP JUMPDEST PUSH2 0x294 SWAP2 SWAP1 PUSH2 0x86A JUMP JUMPDEST PUSH2 0x29E SWAP2 SWAP1 PUSH2 0x89A JUMP JUMPDEST SWAP1 POP JUMPDEST SWAP1 JUMP JUMPDEST PUSH1 0x5 SLOAD DUP2 JUMP JUMPDEST PUSH2 0x2B2 PUSH2 0x544 JUMP JUMPDEST PUSH1 0x1 PUSH1 0x6 PUSH0 DUP3 DUP3 SLOAD PUSH2 0x2C4 SWAP2 SWAP1 PUSH2 0x89A JUMP JUMPDEST SWAP3 POP POP DUP2 SWAP1 SSTORE POP PUSH32 0x6D65864708A1DE3400104EA6285C2E7C23977EB87161FE7C86071C2DFDB7AB34 PUSH1 0x6 SLOAD PUSH1 0x40 MLOAD PUSH2 0x2FC SWAP2 SWAP1 PUSH2 0x6AB JUMP JUMPDEST PUSH1 0x40 MLOAD DUP1 SWAP2 SUB SWAP1 LOG1 JUMP JUMPDEST PUSH0 PUSH1 0x4 SLOAD PUSH1 0x3 SLOAD PUSH2 0x317 SWAP2 SWAP1 PUSH2 0x89A JUMP JUMPDEST TIMESTAMP LT PUSH2 0x3B7 JUMPI PUSH0 PUSH1 0x4 SLOAD PUSH1 0x3 SLOAD TIMESTAMP PUSH2 0x32F SWAP2 SWAP1 PUSH2 0x80A JUMP JUMPDEST PUSH2 0x339 SWAP2 SWAP1 PUSH2 0x86A JUMP JUMPDEST SWAP1 POP DUP1 PUSH1 0x5 PUSH0 DUP3 DUP3 SLOAD PUSH2 0x34C SWAP2 SWAP1 PUSH2 0x89A JUMP JUMPDEST SWAP3 POP POP DUP2 SWAP1 SSTORE POP PUSH1 0x4 SLOAD DUP2 PUSH2 0x361 SWAP2 SWAP1 PUSH2 0x8CD JUMP JUMPDEST PUSH1 0x3 PUSH0 DUP3 DUP3 SLOAD PUSH2 0x371 SWAP2 SWAP1 PUSH2 0x89A JUMP JUMPDEST SWAP3 POP POP DUP2 SWAP1 SSTORE POP PUSH32 0x406E82A487F5C7383E8B2DD97DF3AA4086C5878A23A02F29A755D72090448FDD PUSH1 0x5 SLOAD PUSH1 0x3 SLOAD PUSH1 0x40 MLOAD PUSH2 0x3AD SWAP3 SWAP2 SWAP1 PUSH2 0x90E JUMP JUMPDEST PUSH1 0x40 MLOAD DUP1 SWAP2 SUB SWAP1 LOG1 POP JUMPDEST PUSH1 0x5 SLOAD SWAP1 POP SWAP1 JUMP JUMPDEST PUSH1 0x3 SLOAD DUP2 JUMP JUMPDEST PUSH1 0x2 SLOAD DUP2 JUMP JUMPDEST PUSH1 0x1 SLOAD DUP2 JUMP JUMPDEST PUSH2 0x3D9 PUSH2 0x544 JUMP JUMPDEST PUSH0 DUP3 GT DUP1 ISZERO PUSH2 0x3E7 JUMPI POP PUSH0 DUP2 GT JUMPDEST PUSH2 0x426 JUMPI PUSH1 0x40 MLOAD PUSH32 0x8C379A000000000000000000000000000000000000000000000000000000000 DUP2 MSTORE PUSH1 0x4 ADD PUSH2 0x41D SWAP1 PUSH2 0x98F JUMP JUMPDEST PUSH1 0x40 MLOAD DUP1 SWAP2 SUB SWAP1 REVERT JUMPDEST DUP2 PUSH1 0x1 DUP2 SWAP1 SSTORE POP DUP1 PUSH1 0x2 DUP2 SWAP1 SSTORE POP PUSH32 0x547AFE8D0EBAB9C2A92DF2EAE434F71A839C1EE19EA46DF4F276885170CC19C0 DUP3 DUP3 PUSH1 0x40 MLOAD PUSH2 0x465 SWAP3 SWAP2 SWAP1 PUSH2 0x90E JUMP JUMPDEST PUSH1 0x40 MLOAD DUP1 SWAP2 SUB SWAP1 LOG1 POP POP JUMP JUMPDEST PUSH2 0x479 PUSH2 0x544 JUMP JUMPDEST PUSH2 0x482 PUSH0 PUSH2 0x5CB JUMP JUMPDEST JUMP JUMPDEST PUSH0 PUSH0 PUSH0 SWAP1 SLOAD SWAP1 PUSH2 0x100 EXP SWAP1 DIV PUSH20 0xFFFFFFFFFFFFFFFFFFFFFFFFFFFFFFFFFFFFFFFF AND SWAP1 POP SWAP1 JUMP JUMPDEST PUSH1 0x6 SLOAD DUP2 JUMP JUMPDEST PUSH1 0x4 SLOAD DUP2 JUMP JUMPDEST PUSH0 PUSH1 0x6 SLOAD SWAP1 POP SWAP1 JUMP JUMPDEST PUSH2 0x4C8 PUSH2 0x544 JUMP JUMPDEST PUSH0 PUSH20 0xFFFFFFFFFFFFFFFFFFFFFFFFFFFFFFFFFFFFFFFF AND DUP2 PUSH20 0xFFFFFFFFFFFFFFFFFFFFFFFFFFFFFFFFFFFFFFFF AND SUB PUSH2 0x538 JUMPI PUSH0 PUSH1 0x40 MLOAD PUSH32 0x1E4FBDF700000000000000000000000000000000000000000000000000000000 DUP2 MSTORE PUSH1 0x4 ADD PUSH2 0x52F SWAP2 SWAP1 PUSH2 0x76F JUMP JUMPDEST PUSH1 0x40 MLOAD DUP1 SWAP2 SUB SWAP1 REVERT JUMPDEST PUSH2 0x541 DUP2 PUSH2 0x5CB JUMP JUMPDEST POP JUMP JUMPDEST PUSH2 0x54C PUSH2 0x68C JUMP JUMPDEST PUSH20 0xFFFFFFFFFFFFFFFFFFFFFFFFFFFFFFFFFFFFFFFF AND PUSH2 0x56A PUSH2 0x484 JUMP JUMPDEST PUSH20 0xFFFFFFFFFFFFFFFFFFFFFFFFFFFFFFFFFFFFFFFF AND EQ PUSH2 0x5C9 JUMPI PUSH2 0x58D PUSH2 0x68C JUMP JUMPDEST PUSH1 0x40 MLOAD PUSH32 0x118CDAA700000000000000000000000000000000000000000000000000000000 DUP2 MSTORE PUSH1 0x4 ADD PUSH2 0x5C0 SWAP2 SWAP1 PUSH2 0x76F JUMP JUMPDEST PUSH1 0x40 MLOAD DUP1 SWAP2 SUB SWAP1 REVERT JUMPDEST JUMP JUMPDEST PUSH0 PUSH0 PUSH0 SWAP1 SLOAD SWAP1 PUSH2 0x100 EXP SWAP1 DIV PUSH20 0xFFFFFFFFFFFFFFFFFFFFFFFFFFFFFFFFFFFFFFFF AND SWAP1 POP DUP2 PUSH0 PUSH0 PUSH2 0x100 EXP DUP2 SLOAD DUP2 PUSH20 0xFFFFFFFFFFFFFFFFFFFFFFFFFFFFFFFFFFFFFFFF MUL NOT AND SWAP1 DUP4 PUSH20 0xFFFFFFFFFFFFFFFFFFFFFFFFFFFFFFFFFFFFFFFF AND MUL OR SWAP1 SSTORE POP DUP2 PUSH20 0xFFFFFFFFFFFFFFFFFFFFFFFFFFFFFFFFFFFFFFFF AND DUP2 PUSH20 0xFFFFFFFFFFFFFFFFFFFFFFFFFFFFFFFFFFFFFFFF AND PUSH32 0x8BE0079C531659141344CD1FD0A4F28419497F9722A3DAAFE3B4186F6B6457E0 PUSH1 0x40 MLOAD PUSH1 0x40 MLOAD DUP1 SWAP2 SUB SWAP1 LOG3 POP POP JUMP JUMPDEST PUSH0 CALLER SWAP1 POP SWAP1 JUMP JUMPDEST PUSH0 DUP2 SWAP1 POP SWAP2 SWAP1 POP JUMP JUMPDEST PUSH2 0x6A5 DUP2 PUSH2 0x693 JUMP JUMPDEST DUP3 MSTORE POP POP JUMP JUMPDEST PUSH0 PUSH1 0x20 DUP3 ADD SWAP1 POP PUSH2 0x6BE PUSH0 DUP4 ADD DUP5 PUSH2 0x69C JUMP JUMPDEST SWAP3 SWAP2 POP POP JUMP JUMPDEST PUSH0 PUSH0 REVERT JUMPDEST PUSH2 0x6D1 DUP2 PUSH2 0x693 JUMP JUMPDEST DUP2 EQ PUSH2 0x6DB JUMPI PUSH0 PUSH0 REVERT JUMPDEST POP JUMP JUMPDEST PUSH0 DUP2 CALLDATALOAD SWAP1 POP PUSH2 0x6EC DUP2 PUSH2 0x6C8 JUMP JUMPDEST SWAP3 SWAP2 POP POP JUMP JUMPDEST PUSH0 PUSH0 PUSH1 0x40 DUP4 DUP6 SUB SLT ISZERO PUSH2 0x708 JUMPI PUSH2 0x707 PUSH2 0x6C4 JUMP JUMPDEST JUMPDEST PUSH0 PUSH2 0x715 DUP6 DUP3 DUP7 ADD PUSH2 0x6DE JUMP JUMPDEST SWAP3 POP POP PUSH1 0x20 PUSH2 0x726 DUP6 DUP3 DUP7 ADD PUSH2 0x6DE JUMP JUMPDEST SWAP2 POP POP SWAP3 POP SWAP3 SWAP1 POP JUMP JUMPDEST PUSH0 PUSH20 0xFFFFFFFFFFFFFFFFFFFFFFFFFFFFFFFFFFFFFFFF DUP3 AND SWAP1 POP SWAP2 SWAP1 POP JUMP JUMPDEST PUSH0 PUSH2 0x759 DUP3 PUSH2 0x730 JUMP JUMPDEST SWAP1 POP SWAP2 SWAP1 POP JUMP JUMPDEST PUSH2 0x769 DUP2 PUSH2 0x74F JUMP JUMPDEST DUP3 MSTORE POP POP JUMP JUMPDEST PUSH0 PUSH1 0x20 DUP3 ADD SWAP1 POP PUSH2 0x782 PUSH0 DUP4 ADD DUP5 PUSH2 0x760 JUMP JUMPDEST SWAP3 SWAP2 POP POP JUMP JUMPDEST PUSH2 0x791 DUP2 PUSH2 0x74F JUMP JUMPDEST DUP2 EQ PUSH2 0x79B JUMPI PUSH0 PUSH0 REVERT JUMPDEST POP JUMP JUMPDEST PUSH0 DUP2 CALLDATALOAD SWAP1 POP PUSH2 0x7AC DUP2 PUSH2 0x788 JUMP JUMPDEST SWAP3 SWAP2 POP POP JUMP JUMPDEST PUSH0 PUSH1 0x20 DUP3 DUP5 SUB SLT ISZERO PUSH2 0x7C7 JUMPI PUSH2 0x7C6 PUSH2 0x6C4 JUMP JUMPDEST JUMPDEST PUSH0 PUSH2 0x7D4 DUP5 DUP3 DUP6 ADD PUSH2 0x79E JUMP JUMPDEST SWAP2 POP POP SWAP3 SWAP2 POP POP JUMP JUMPDEST PUSH32 0x4E487B7100000000000000000000000000000000000000000000000000000000 PUSH0 MSTORE PUSH1 0x11 PUSH1 0x4 MSTORE PUSH1 0x24 PUSH0 REVERT JUMPDEST PUSH0 PUSH2 0x814 DUP3 PUSH2 0x693 JUMP JUMPDEST SWAP2 POP PUSH2 0x81F DUP4 PUSH2 0x693 JUMP JUMPDEST SWAP3 POP DUP3 DUP3 SUB SWAP1 POP DUP2 DUP2 GT ISZERO PUSH2 0x837 JUMPI PUSH2 0x836 PUSH2 0x7DD JUMP JUMPDEST JUMPDEST SWAP3 SWAP2 POP POP JUMP JUMPDEST PUSH32 0x4E487B7100000000000000000000000000000000000000000000000000000000 PUSH0 MSTORE PUSH1 0x12 PUSH1 0x4 MSTORE PUSH1 0x24 PUSH0 REVERT JUMPDEST PUSH0 PUSH2 0x874 DUP3 PUSH2 0x693 JUMP JUMPDEST SWAP2 POP PUSH2 0x87F DUP4 PUSH2 0x693 JUMP JUMPDEST SWAP3 POP DUP3 PUSH2 0x88F JUMPI PUSH2 0x88E PUSH2 0x83D JUMP JUMPDEST JUMPDEST DUP3 DUP3 DIV SWAP1 POP SWAP3 SWAP2 POP POP JUMP JUMPDEST PUSH0 PUSH2 0x8A4 DUP3 PUSH2 0x693 JUMP JUMPDEST SWAP2 POP PUSH2 0x8AF DUP4 PUSH2 0x693 JUMP JUMPDEST SWAP3 POP DUP3 DUP3 ADD SWAP1 POP DUP1 DUP3 GT ISZERO PUSH2 0x8C7 JUMPI PUSH2 0x8C6 PUSH2 0x7DD JUMP JUMPDEST JUMPDEST SWAP3 SWAP2 POP POP JUMP JUMPDEST PUSH0 PUSH2 0x8D7 DUP3 PUSH2 0x693 JUMP JUMPDEST SWAP2 POP PUSH2 0x8E2 DUP4 PUSH2 0x693 JUMP JUMPDEST SWAP3 POP DUP3 DUP3 MUL PUSH2 0x8F0 DUP2 PUSH2 0x693 JUMP JUMPDEST SWAP2 POP DUP3 DUP3 DIV DUP5 EQ DUP4 ISZERO OR PUSH2 0x907 JUMPI PUSH2 0x906 PUSH2 0x7DD JUMP JUMPDEST JUMPDEST POP SWAP3 SWAP2 POP POP JUMP JUMPDEST PUSH0 PUSH1 0x40 DUP3 ADD SWAP1 POP PUSH2 0x921 PUSH0 DUP4 ADD DUP6 PUSH2 0x69C JUMP JUMPDEST PUSH2 0x92E PUSH1 0x20 DUP4 ADD DUP5 PUSH2 0x69C JUMP JUMPDEST SWAP4 SWAP3 POP POP POP JUMP JUMPDEST PUSH0 DUP3 DUP3 MSTORE PUSH1 0x20 DUP3 ADD SWAP1 POP SWAP3 SWAP2 POP POP JUMP JUMPDEST PUSH32 0x496E76616C696420706172616D65746572730000000000000000000000000000 PUSH0 DUP3 ADD MSTORE POP JUMP JUMPDEST PUSH0 PUSH2 0x979 PUSH1 0x12 DUP4 PUSH2 0x935 JUMP JUMPDEST SWAP2 POP PUSH2 0x984 DUP3 PUSH2 0x945 JUMP JUMPDEST PUSH1 0x20 DUP3 ADD SWAP1 POP SWAP2 SWAP1 POP JUMP JUMPDEST PUSH0 PUSH1 0x20 DUP3 ADD SWAP1 POP DUP2 DUP2 SUB PUSH0 DUP4 ADD MSTORE PUSH2 0x9A6 DUP2 PUSH2 0x96D JUMP JUMPDEST SWAP1 POP SWAP2 SWAP1 POP JUMP INVALID LOG2 PUSH5 0x6970667358 0x22 SLT KECCAK256 0xD2 SWAP11 DUP15 EOFCREATE 0x78 ORIGIN 0x26 PUSH6 0x346B5725720F PUSH29 0x988D6A040B825F8C078951A0CE49658C8B64736F6C634300081D003300 "
		},
		"gasEstimates": {
			"creation": {
				"codeDepositCost": "506200",
				"executionCost": "infinite",
				"totalCost": "infinite"
			},
			"external": {
				"advanceManualEpoch()": "infinite",
				"currentFixedEpoch()": "infinite",
				"currentManualEpoch()": "2498",
				"currentSlidingEpoch()": "infinite",
				"fixedEpochDuration()": "2492",
				"fixedEpochStart()": "2514",
				"manualEpoch()": "2447",
				"owner()": "2581",
				"renounceOwnership()": "infinite",
				"slidingEpochCount()": "2471",
				"slidingEpochDuration()": "2469",
				"slidingEpochStart()": "2470",
				"transferOwnership(address)": "infinite",
				"updateFixedEpoch(uint256,uint256)": "infinite"
			}
		},
		"methodIdentifiers": {
			"advanceManualEpoch()": "186aa80c",
			"currentFixedEpoch()": "069e5735",
			"currentManualEpoch()": "ed6b2787",
			"currentSlidingEpoch()": "1bfd6dae",
			"fixedEpochDuration()": "52e6a9e4",
			"fixedEpochStart()": "59b30aea",
			"manualEpoch()": "a52eef6d",
			"owner()": "8da5cb5b",
			"renounceOwnership()": "715018a6",
			"slidingEpochCount()": "15eef948",
			"slidingEpochDuration()": "ce410bea",
			"slidingEpochStart()": "51695ed0",
			"transferOwnership(address)": "f2fde38b",
			"updateFixedEpoch(uint256,uint256)": "6749ae7f"
		}
	},
	"abi": [
		{
			"inputs": [
				{
					"internalType": "uint256",
					"name": "_fixedStart",
					"type": "uint256"
				},
				{
					"internalType": "uint256",
					"name": "_fixedDuration",
					"type": "uint256"
				},
				{
					"internalType": "uint256",
					"name": "_slidingStart",
					"type": "uint256"
				},
				{
					"internalType": "uint256",
					"name": "_slidingDuration",
					"type": "uint256"
				}
			],
			"stateMutability": "nonpayable",
			"type": "constructor"
		},
		{
			"inputs": [
				{
					"internalType": "address",
					"name": "owner",
					"type": "address"
				}
			],
			"name": "OwnableInvalidOwner",
			"type": "error"
		},
		{
			"inputs": [
				{
					"internalType": "address",
					"name": "account",
					"type": "address"
				}
			],
			"name": "OwnableUnauthorizedAccount",
			"type": "error"
		},
		{
			"anonymous": false,
			"inputs": [
				{
					"indexed": false,
					"internalType": "uint256",
					"name": "newStart",
					"type": "uint256"
				},
				{
					"indexed": false,
					"internalType": "uint256",
					"name": "newDuration",
					"type": "uint256"
				}
			],
			"name": "FixedEpochUpdated",
			"type": "event"
		},
		{
			"anonymous": false,
			"inputs": [
				{
					"indexed": false,
					"internalType": "uint256",
					"name": "newEpoch",
					"type": "uint256"
				}
			],
			"name": "ManualEpochAdvanced",
			"type": "event"
		},
		{
			"anonymous": false,
			"inputs": [
				{
					"indexed": true,
					"internalType": "address",
					"name": "previousOwner",
					"type": "address"
				},
				{
					"indexed": true,
					"internalType": "address",
					"name": "newOwner",
					"type": "address"
				}
			],
			"name": "OwnershipTransferred",
			"type": "event"
		},
		{
			"anonymous": false,
			"inputs": [
				{
					"indexed": false,
					"internalType": "uint256",
					"name": "newEpochCount",
					"type": "uint256"
				},
				{
					"indexed": false,
					"internalType": "uint256",
					"name": "newStart",
					"type": "uint256"
				}
			],
			"name": "SlidingEpochAdvanced",
			"type": "event"
		},
		{
			"inputs": [],
			"name": "advanceManualEpoch",
			"outputs": [],
			"stateMutability": "nonpayable",
			"type": "function"
		},
		{
			"inputs": [],
			"name": "currentFixedEpoch",
			"outputs": [
				{
					"internalType": "uint256",
					"name": "",
					"type": "uint256"
				}
			],
			"stateMutability": "view",
			"type": "function"
		},
		{
			"inputs": [],
			"name": "currentManualEpoch",
			"outputs": [
				{
					"internalType": "uint256",
					"name": "",
					"type": "uint256"
				}
			],
			"stateMutability": "view",
			"type": "function"
		},
		{
			"inputs": [],
			"name": "currentSlidingEpoch",
			"outputs": [
				{
					"internalType": "uint256",
					"name": "",
					"type": "uint256"
				}
			],
			"stateMutability": "nonpayable",
			"type": "function"
		},
		{
			"inputs": [],
			"name": "fixedEpochDuration",
			"outputs": [
				{
					"internalType": "uint256",
					"name": "",
					"type": "uint256"
				}
			],
			"stateMutability": "view",
			"type": "function"
		},
		{
			"inputs": [],
			"name": "fixedEpochStart",
			"outputs": [
				{
					"internalType": "uint256",
					"name": "",
					"type": "uint256"
				}
			],
			"stateMutability": "view",
			"type": "function"
		},
		{
			"inputs": [],
			"name": "manualEpoch",
			"outputs": [
				{
					"internalType": "uint256",
					"name": "",
					"type": "uint256"
				}
			],
			"stateMutability": "view",
			"type": "function"
		},
		{
			"inputs": [],
			"name": "owner",
			"outputs": [
				{
					"internalType": "address",
					"name": "",
					"type": "address"
				}
			],
			"stateMutability": "view",
			"type": "function"
		},
		{
			"inputs": [],
			"name": "renounceOwnership",
			"outputs": [],
			"stateMutability": "nonpayable",
			"type": "function"
		},
		{
			"inputs": [],
			"name": "slidingEpochCount",
			"outputs": [
				{
					"internalType": "uint256",
					"name": "",
					"type": "uint256"
				}
			],
			"stateMutability": "view",
			"type": "function"
		},
		{
			"inputs": [],
			"name": "slidingEpochDuration",
			"outputs": [
				{
					"internalType": "uint256",
					"name": "",
					"type": "uint256"
				}
			],
			"stateMutability": "view",
			"type": "function"
		},
		{
			"inputs": [],
			"name": "slidingEpochStart",
			"outputs": [
				{
					"internalType": "uint256",
					"name": "",
					"type": "uint256"
				}
			],
			"stateMutability": "view",
			"type": "function"
		},
		{
			"inputs": [
				{
					"internalType": "address",
					"name": "newOwner",
					"type": "address"
				}
			],
			"name": "transferOwnership",
			"outputs": [],
			"stateMutability": "nonpayable",
			"type": "function"
		},
		{
			"inputs": [
				{
					"internalType": "uint256",
					"name": "newStart",
					"type": "uint256"
				},
				{
					"internalType": "uint256",
					"name": "newDuration",
					"type": "uint256"
				}
			],
			"name": "updateFixedEpoch",
			"outputs": [],
			"stateMutability": "nonpayable",
			"type": "function"
		}
	]
}