{
	"E/Escrowed ETH.sol": {
		"EscrowedEther": {
			"abi": [
				{
					"inputs": [
						{
							"internalType": "address",
							"name": "_beneficiary",
							"type": "address"
						},
						{
							"internalType": "address",
							"name": "_arbiter",
							"type": "address"
						}
					],
					"stateMutability": "payable",
					"type": "constructor"
				},
				{
					"anonymous": false,
					"inputs": [
						{
							"indexed": true,
							"internalType": "address",
							"name": "by",
							"type": "address"
						}
					],
					"name": "Approved",
					"type": "event"
				},
				{
					"anonymous": false,
					"inputs": [
						{
							"indexed": true,
							"internalType": "address",
							"name": "to",
							"type": "address"
						}
					],
					"name": "Refunded",
					"type": "event"
				},
				{
					"inputs": [],
					"name": "approve",
					"outputs": [],
					"stateMutability": "nonpayable",
					"type": "function"
				},
				{
					"inputs": [],
					"name": "arbiter",
					"outputs": [
						{
							"internalType": "address",
							"name": "",
							"type": "address"
						}
					],
					"stateMutability": "view",
					"type": "function"
				},
				{
					"inputs": [],
					"name": "beneficiary",
					"outputs": [
						{
							"internalType": "address",
							"name": "",
							"type": "address"
						}
					],
					"stateMutability": "view",
					"type": "function"
				},
				{
					"inputs": [],
					"name": "depositor",
					"outputs": [
						{
							"internalType": "address",
							"name": "",
							"type": "address"
						}
					],
					"stateMutability": "view",
					"type": "function"
				},
				{
					"inputs": [],
					"name": "isApproved",
					"outputs": [
						{
							"internalType": "bool",
							"name": "",
							"type": "bool"
						}
					],
					"stateMutability": "view",
					"type": "function"
				},
				{
					"inputs": [],
					"name": "refund",
					"outputs": [],
					"stateMutability": "nonpayable",
					"type": "function"
				}
			],
			"devdoc": {
				"kind": "dev",
				"methods": {},
				"version": 1
			},
			"evm": {
				"assembly": "    /* \"E/Escrowed ETH.sol\":58:1127  contract EscrowedEther {... */\n  mstore(0x40, 0x80)\n    /* \"E/Escrowed ETH.sol\":287:494  constructor(address _beneficiary, address _arbiter) payable {... */\n  mload(0x40)\n  sub(codesize, bytecodeSize)\n  dup1\n  bytecodeSize\n  dup4\n  codecopy\n  dup2\n  dup2\n  add\n  0x40\n  mstore\n  dup2\n  add\n  swap1\n  tag_1\n  swap2\n  swap1\n  tag_2\n  jump\t// in\ntag_1:\n    /* \"E/Escrowed ETH.sol\":377:378  0 */\n  0x00\n    /* \"E/Escrowed ETH.sol\":365:374  msg.value */\n  callvalue\n    /* \"E/Escrowed ETH.sol\":365:378  msg.value > 0 */\n  gt\n    /* \"E/Escrowed ETH.sol\":357:391  require(msg.value > 0, \"Send ETH\") */\n  tag_5\n  jumpi\n  mload(0x40)\n  0x08c379a000000000000000000000000000000000000000000000000000000000\n  dup2\n  mstore\n  0x04\n  add\n  tag_6\n  swap1\n  tag_7\n  jump\t// in\ntag_6:\n  mload(0x40)\n  dup1\n  swap2\n  sub\n  swap1\n  revert\ntag_5:\n    /* \"E/Escrowed ETH.sol\":413:423  msg.sender */\n  caller\n    /* \"E/Escrowed ETH.sol\":401:410  depositor */\n  0x00\n  0x00\n    /* \"E/Escrowed ETH.sol\":401:423  depositor = msg.sender */\n  0x0100\n  exp\n  dup2\n  sload\n  dup2\n  0xffffffffffffffffffffffffffffffffffffffff\n  mul\n  not\n  and\n  swap1\n  dup4\n  0xffffffffffffffffffffffffffffffffffffffff\n  and\n  mul\n  or\n  swap1\n  sstore\n  pop\n    /* \"E/Escrowed ETH.sol\":447:459  _beneficiary */\n  dup2\n    /* \"E/Escrowed ETH.sol\":433:444  beneficiary */\n  0x01\n  0x00\n    /* \"E/Escrowed ETH.sol\":433:459  beneficiary = _beneficiary */\n  0x0100\n  exp\n  dup2\n  sload\n  dup2\n  0xffffffffffffffffffffffffffffffffffffffff\n  mul\n  not\n  and\n  swap1\n  dup4\n  0xffffffffffffffffffffffffffffffffffffffff\n  and\n  mul\n  or\n  swap1\n  sstore\n  pop\n    /* \"E/Escrowed ETH.sol\":479:487  _arbiter */\n  dup1\n    /* \"E/Escrowed ETH.sol\":469:476  arbiter */\n  0x02\n  0x00\n    /* \"E/Escrowed ETH.sol\":469:487  arbiter = _arbiter */\n  0x0100\n  exp\n  dup2\n  sload\n  dup2\n  0xffffffffffffffffffffffffffffffffffffffff\n  mul\n  not\n  and\n  swap1\n  dup4\n  0xffffffffffffffffffffffffffffffffffffffff\n  and\n  mul\n  or\n  swap1\n  sstore\n  pop\n    /* \"E/Escrowed ETH.sol\":287:494  constructor(address _beneficiary, address _arbiter) payable {... */\n  pop\n  pop\n    /* \"E/Escrowed ETH.sol\":58:1127  contract EscrowedEther {... */\n  jump(tag_8)\n    /* \"#utility.yul\":88:205   */\ntag_10:\n    /* \"#utility.yul\":197:198   */\n  0x00\n    /* \"#utility.yul\":194:195   */\n  0x00\n    /* \"#utility.yul\":187:199   */\n  revert\n    /* \"#utility.yul\":334:460   */\ntag_12:\n    /* \"#utility.yul\":371:378   */\n  0x00\n    /* \"#utility.yul\":411:453   */\n  0xffffffffffffffffffffffffffffffffffffffff\n    /* \"#utility.yul\":404:409   */\n  dup3\n    /* \"#utility.yul\":400:454   */\n  and\n    /* \"#utility.yul\":389:454   */\n  swap1\n  pop\n    /* \"#utility.yul\":334:460   */\n  swap2\n  swap1\n  pop\n  jump\t// out\n    /* \"#utility.yul\":466:562   */\ntag_13:\n    /* \"#utility.yul\":503:510   */\n  0x00\n    /* \"#utility.yul\":532:556   */\n  tag_25\n    /* \"#utility.yul\":550:555   */\n  dup3\n    /* \"#utility.yul\":532:556   */\n  tag_12\n  jump\t// in\ntag_25:\n    /* \"#utility.yul\":521:556   */\n  swap1\n  pop\n    /* \"#utility.yul\":466:562   */\n  swap2\n  swap1\n  pop\n  jump\t// out\n    /* \"#utility.yul\":568:690   */\ntag_14:\n    /* \"#utility.yul\":641:665   */\n  tag_27\n    /* \"#utility.yul\":659:664   */\n  dup2\n    /* \"#utility.yul\":641:665   */\n  tag_13\n  jump\t// in\ntag_27:\n    /* \"#utility.yul\":634:639   */\n  dup2\n    /* \"#utility.yul\":631:666   */\n  eq\n    /* \"#utility.yul\":621:684   */\n  tag_28\n  jumpi\n    /* \"#utility.yul\":680:681   */\n  0x00\n    /* \"#utility.yul\":677:678   */\n  0x00\n    /* \"#utility.yul\":670:682   */\n  revert\n    /* \"#utility.yul\":621:684   */\ntag_28:\n    /* \"#utility.yul\":568:690   */\n  pop\n  jump\t// out\n    /* \"#utility.yul\":696:839   */\ntag_15:\n    /* \"#utility.yul\":753:758   */\n  0x00\n    /* \"#utility.yul\":784:790   */\n  dup2\n    /* \"#utility.yul\":778:791   */\n  mload\n    /* \"#utility.yul\":769:791   */\n  swap1\n  pop\n    /* \"#utility.yul\":800:833   */\n  tag_30\n    /* \"#utility.yul\":827:832   */\n  dup2\n    /* \"#utility.yul\":800:833   */\n  tag_14\n  jump\t// in\ntag_30:\n    /* \"#utility.yul\":696:839   */\n  swap3\n  swap2\n  pop\n  pop\n  jump\t// out\n    /* \"#utility.yul\":845:1352   */\ntag_2:\n    /* \"#utility.yul\":924:930   */\n  0x00\n    /* \"#utility.yul\":932:938   */\n  0x00\n    /* \"#utility.yul\":981:983   */\n  0x40\n    /* \"#utility.yul\":969:978   */\n  dup4\n    /* \"#utility.yul\":960:967   */\n  dup6\n    /* \"#utility.yul\":956:979   */\n  sub\n    /* \"#utility.yul\":952:984   */\n  slt\n    /* \"#utility.yul\":949:1068   */\n  iszero\n  tag_32\n  jumpi\n    /* \"#utility.yul\":987:1066   */\n  tag_33\n  tag_10\n  jump\t// in\ntag_33:\n    /* \"#utility.yul\":949:1068   */\ntag_32:\n    /* \"#utility.yul\":1107:1108   */\n  0x00\n    /* \"#utility.yul\":1132:1196   */\n  tag_34\n    /* \"#utility.yul\":1188:1195   */\n  dup6\n    /* \"#utility.yul\":1179:1185   */\n  dup3\n    /* \"#utility.yul\":1168:1177   */\n  dup7\n    /* \"#utility.yul\":1164:1186   */\n  add\n    /* \"#utility.yul\":1132:1196   */\n  tag_15\n  jump\t// in\ntag_34:\n    /* \"#utility.yul\":1122:1196   */\n  swap3\n  pop\n    /* \"#utility.yul\":1078:1206   */\n  pop\n    /* \"#utility.yul\":1245:1247   */\n  0x20\n    /* \"#utility.yul\":1271:1335   */\n  tag_35\n    /* \"#utility.yul\":1327:1334   */\n  dup6\n    /* \"#utility.yul\":1318:1324   */\n  dup3\n    /* \"#utility.yul\":1307:1316   */\n  dup7\n    /* \"#utility.yul\":1303:1325   */\n  add\n    /* \"#utility.yul\":1271:1335   */\n  tag_15\n  jump\t// in\ntag_35:\n    /* \"#utility.yul\":1261:1335   */\n  swap2\n  pop\n    /* \"#utility.yul\":1216:1345   */\n  pop\n    /* \"#utility.yul\":845:1352   */\n  swap3\n  pop\n  swap3\n  swap1\n  pop\n  jump\t// out\n    /* \"#utility.yul\":1358:1527   */\ntag_16:\n    /* \"#utility.yul\":1442:1453   */\n  0x00\n    /* \"#utility.yul\":1476:1482   */\n  dup3\n    /* \"#utility.yul\":1471:1474   */\n  dup3\n    /* \"#utility.yul\":1464:1483   */\n  mstore\n    /* \"#utility.yul\":1516:1520   */\n  0x20\n    /* \"#utility.yul\":1511:1514   */\n  dup3\n    /* \"#utility.yul\":1507:1521   */\n  add\n    /* \"#utility.yul\":1492:1521   */\n  swap1\n  pop\n    /* \"#utility.yul\":1358:1527   */\n  swap3\n  swap2\n  pop\n  pop\n  jump\t// out\n    /* \"#utility.yul\":1533:1691   */\ntag_17:\n    /* \"#utility.yul\":1673:1683   */\n  0x53656e6420455448000000000000000000000000000000000000000000000000\n    /* \"#utility.yul\":1669:1670   */\n  0x00\n    /* \"#utility.yul\":1661:1667   */\n  dup3\n    /* \"#utility.yul\":1657:1671   */\n  add\n    /* \"#utility.yul\":1650:1684   */\n  mstore\n    /* \"#utility.yul\":1533:1691   */\n  pop\n  jump\t// out\n    /* \"#utility.yul\":1697:2062   */\ntag_18:\n    /* \"#utility.yul\":1839:1842   */\n  0x00\n    /* \"#utility.yul\":1860:1926   */\n  tag_39\n    /* \"#utility.yul\":1924:1925   */\n  0x08\n    /* \"#utility.yul\":1919:1922   */\n  dup4\n    /* \"#utility.yul\":1860:1926   */\n  tag_16\n  jump\t// in\ntag_39:\n    /* \"#utility.yul\":1853:1926   */\n  swap2\n  pop\n    /* \"#utility.yul\":1935:2028   */\n  tag_40\n    /* \"#utility.yul\":2024:2027   */\n  dup3\n    /* \"#utility.yul\":1935:2028   */\n  tag_17\n  jump\t// in\ntag_40:\n    /* \"#utility.yul\":2053:2055   */\n  0x20\n    /* \"#utility.yul\":2048:2051   */\n  dup3\n    /* \"#utility.yul\":2044:2056   */\n  add\n    /* \"#utility.yul\":2037:2056   */\n  swap1\n  pop\n    /* \"#utility.yul\":1697:2062   */\n  swap2\n  swap1\n  pop\n  jump\t// out\n    /* \"#utility.yul\":2068:2487   */\ntag_7:\n    /* \"#utility.yul\":2234:2238   */\n  0x00\n    /* \"#utility.yul\":2272:2274   */\n  0x20\n    /* \"#utility.yul\":2261:2270   */\n  dup3\n    /* \"#utility.yul\":2257:2275   */\n  add\n    /* \"#utility.yul\":2249:2275   */\n  swap1\n  pop\n    /* \"#utility.yul\":2321:2330   */\n  dup2\n    /* \"#utility.yul\":2315:2319   */\n  dup2\n    /* \"#utility.yul\":2311:2331   */\n  sub\n    /* \"#utility.yul\":2307:2308   */\n  0x00\n    /* \"#utility.yul\":2296:2305   */\n  dup4\n    /* \"#utility.yul\":2292:2309   */\n  add\n    /* \"#utility.yul\":2285:2332   */\n  mstore\n    /* \"#utility.yul\":2349:2480   */\n  tag_42\n    /* \"#utility.yul\":2475:2479   */\n  dup2\n    /* \"#utility.yul\":2349:2480   */\n  tag_18\n  jump\t// in\ntag_42:\n    /* \"#utility.yul\":2341:2480   */\n  swap1\n  pop\n    /* \"#utility.yul\":2068:2487   */\n  swap2\n  swap1\n  pop\n  jump\t// out\n    /* \"E/Escrowed ETH.sol\":58:1127  contract EscrowedEther {... */\ntag_8:\n  dataSize(sub_0)\n  dup1\n  dataOffset(sub_0)\n  0x00\n  codecopy\n  0x00\n  return\nstop\n\nsub_0: assembly {\n        /* \"E/Escrowed ETH.sol\":58:1127  contract EscrowedEther {... */\n      mstore(0x40, 0x80)\n      callvalue\n      dup1\n      iszero\n      tag_1\n      jumpi\n      revert(0x00, 0x00)\n    tag_1:\n      pop\n      jumpi(tag_2, lt(calldatasize, 0x04))\n      shr(0xe0, calldataload(0x00))\n      dup1\n      0x12424e3f\n      eq\n      tag_3\n      jumpi\n      dup1\n      0x28f371aa\n      eq\n      tag_4\n      jumpi\n      dup1\n      0x38af3eed\n      eq\n      tag_5\n      jumpi\n      dup1\n      0x590e1ae3\n      eq\n      tag_6\n      jumpi\n      dup1\n      0xc7c4ff46\n      eq\n      tag_7\n      jumpi\n      dup1\n      0xfe25e00a\n      eq\n      tag_8\n      jumpi\n    tag_2:\n      revert(0x00, 0x00)\n        /* \"E/Escrowed ETH.sol\":602:875  function approve() external onlyArbiter {... */\n    tag_3:\n      tag_9\n      tag_10\n      jump\t// in\n    tag_9:\n      stop\n        /* \"E/Escrowed ETH.sol\":177:199  bool public isApproved */\n    tag_4:\n      tag_11\n      tag_12\n      jump\t// in\n    tag_11:\n      mload(0x40)\n      tag_13\n      swap2\n      swap1\n      tag_14\n      jump\t// in\n    tag_13:\n      mload(0x40)\n      dup1\n      swap2\n      sub\n      swap1\n      return\n        /* \"E/Escrowed ETH.sol\":117:143  address public beneficiary */\n    tag_5:\n      tag_15\n      tag_16\n      jump\t// in\n    tag_15:\n      mload(0x40)\n      tag_17\n      swap2\n      swap1\n      tag_18\n      jump\t// in\n    tag_17:\n      mload(0x40)\n      dup1\n      swap2\n      sub\n      swap1\n      return\n        /* \"E/Escrowed ETH.sol\":881:1125  function refund() external onlyArbiter {... */\n    tag_6:\n      tag_19\n      tag_20\n      jump\t// in\n    tag_19:\n      stop\n        /* \"E/Escrowed ETH.sol\":87:111  address public depositor */\n    tag_7:\n      tag_21\n      tag_22\n      jump\t// in\n    tag_21:\n      mload(0x40)\n      tag_23\n      swap2\n      swap1\n      tag_18\n      jump\t// in\n    tag_23:\n      mload(0x40)\n      dup1\n      swap2\n      sub\n      swap1\n      return\n        /* \"E/Escrowed ETH.sol\":149:171  address public arbiter */\n    tag_8:\n      tag_24\n      tag_25\n      jump\t// in\n    tag_24:\n      mload(0x40)\n      tag_26\n      swap2\n      swap1\n      tag_18\n      jump\t// in\n    tag_26:\n      mload(0x40)\n      dup1\n      swap2\n      sub\n      swap1\n      return\n        /* \"E/Escrowed ETH.sol\":602:875  function approve() external onlyArbiter {... */\n    tag_10:\n        /* \"E/Escrowed ETH.sol\":555:562  arbiter */\n      0x02\n      0x00\n      swap1\n      sload\n      swap1\n      0x0100\n      exp\n      swap1\n      div\n      0xffffffffffffffffffffffffffffffffffffffff\n      and\n        /* \"E/Escrowed ETH.sol\":541:562  msg.sender == arbiter */\n      0xffffffffffffffffffffffffffffffffffffffff\n      and\n        /* \"E/Escrowed ETH.sol\":541:551  msg.sender */\n      caller\n        /* \"E/Escrowed ETH.sol\":541:562  msg.sender == arbiter */\n      0xffffffffffffffffffffffffffffffffffffffff\n      and\n      eq\n        /* \"E/Escrowed ETH.sol\":533:578  require(msg.sender == arbiter, \"Not arbiter\") */\n      tag_28\n      jumpi\n      mload(0x40)\n      0x08c379a000000000000000000000000000000000000000000000000000000000\n      dup2\n      mstore\n      0x04\n      add\n      tag_29\n      swap1\n      tag_30\n      jump\t// in\n    tag_29:\n      mload(0x40)\n      dup1\n      swap2\n      sub\n      swap1\n      revert\n    tag_28:\n        /* \"E/Escrowed ETH.sol\":661:671  isApproved */\n      0x02\n      0x14\n      swap1\n      sload\n      swap1\n      0x0100\n      exp\n      swap1\n      div\n      0xff\n      and\n        /* \"E/Escrowed ETH.sol\":660:671  !isApproved */\n      iszero\n        /* \"E/Escrowed ETH.sol\":652:692  require(!isApproved, \"Already approved\") */\n      tag_32\n      jumpi\n      mload(0x40)\n      0x08c379a000000000000000000000000000000000000000000000000000000000\n      dup2\n      mstore\n      0x04\n      add\n      tag_33\n      swap1\n      tag_34\n      jump\t// in\n    tag_33:\n      mload(0x40)\n      dup1\n      swap2\n      sub\n      swap1\n      revert\n    tag_32:\n        /* \"E/Escrowed ETH.sol\":715:719  true */\n      0x01\n        /* \"E/Escrowed ETH.sol\":702:712  isApproved */\n      0x02\n      0x14\n        /* \"E/Escrowed ETH.sol\":702:719  isApproved = true */\n      0x0100\n      exp\n      dup2\n      sload\n      dup2\n      0xff\n      mul\n      not\n      and\n      swap1\n      dup4\n      iszero\n      iszero\n      mul\n      or\n      swap1\n      sstore\n      pop\n        /* \"E/Escrowed ETH.sol\":730:739  bool sent */\n      0x00\n        /* \"E/Escrowed ETH.sol\":745:756  beneficiary */\n      0x01\n      0x00\n      swap1\n      sload\n      swap1\n      0x0100\n      exp\n      swap1\n      div\n      0xffffffffffffffffffffffffffffffffffffffff\n      and\n        /* \"E/Escrowed ETH.sol\":745:761  beneficiary.call */\n      0xffffffffffffffffffffffffffffffffffffffff\n      and\n        /* \"E/Escrowed ETH.sol\":769:790  address(this).balance */\n      selfbalance\n        /* \"E/Escrowed ETH.sol\":745:795  beneficiary.call{value: address(this).balance}(\"\") */\n      mload(0x40)\n      tag_35\n      swap1\n      tag_36\n      jump\t// in\n    tag_35:\n      0x00\n      mload(0x40)\n      dup1\n      dup4\n      sub\n      dup2\n      dup6\n      dup8\n      gas\n      call\n      swap3\n      pop\n      pop\n      pop\n      returndatasize\n      dup1\n      0x00\n      dup2\n      eq\n      tag_39\n      jumpi\n      mload(0x40)\n      swap2\n      pop\n      and(add(returndatasize, 0x3f), not(0x1f))\n      dup3\n      add\n      0x40\n      mstore\n      returndatasize\n      dup3\n      mstore\n      returndatasize\n      0x00\n      0x20\n      dup5\n      add\n      returndatacopy\n      jump(tag_38)\n    tag_39:\n      0x60\n      swap2\n      pop\n    tag_38:\n      pop\n        /* \"E/Escrowed ETH.sol\":729:795  (bool sent, ) = beneficiary.call{value: address(this).balance}(\"\") */\n      pop\n      swap1\n      pop\n        /* \"E/Escrowed ETH.sol\":813:817  sent */\n      dup1\n        /* \"E/Escrowed ETH.sol\":805:833  require(sent, \"Send failed\") */\n      tag_40\n      jumpi\n      mload(0x40)\n      0x08c379a000000000000000000000000000000000000000000000000000000000\n      dup2\n      mstore\n      0x04\n      add\n      tag_41\n      swap1\n      tag_42\n      jump\t// in\n    tag_41:\n      mload(0x40)\n      dup1\n      swap2\n      sub\n      swap1\n      revert\n    tag_40:\n        /* \"E/Escrowed ETH.sol\":857:867  msg.sender */\n      caller\n        /* \"E/Escrowed ETH.sol\":848:868  Approved(msg.sender) */\n      0xffffffffffffffffffffffffffffffffffffffff\n      and\n      0x5d91bd0cecc45fef102af61de92c5462fadc884a5ce9d21c15e8a85198f2349e\n      mload(0x40)\n      mload(0x40)\n      dup1\n      swap2\n      sub\n      swap1\n      log2\n        /* \"E/Escrowed ETH.sol\":642:875  {... */\n      pop\n        /* \"E/Escrowed ETH.sol\":602:875  function approve() external onlyArbiter {... */\n      jump\t// out\n        /* \"E/Escrowed ETH.sol\":177:199  bool public isApproved */\n    tag_12:\n      0x02\n      0x14\n      swap1\n      sload\n      swap1\n      0x0100\n      exp\n      swap1\n      div\n      0xff\n      and\n      dup2\n      jump\t// out\n        /* \"E/Escrowed ETH.sol\":117:143  address public beneficiary */\n    tag_16:\n      0x01\n      0x00\n      swap1\n      sload\n      swap1\n      0x0100\n      exp\n      swap1\n      div\n      0xffffffffffffffffffffffffffffffffffffffff\n      and\n      dup2\n      jump\t// out\n        /* \"E/Escrowed ETH.sol\":881:1125  function refund() external onlyArbiter {... */\n    tag_20:\n        /* \"E/Escrowed ETH.sol\":555:562  arbiter */\n      0x02\n      0x00\n      swap1\n      sload\n      swap1\n      0x0100\n      exp\n      swap1\n      div\n      0xffffffffffffffffffffffffffffffffffffffff\n      and\n        /* \"E/Escrowed ETH.sol\":541:562  msg.sender == arbiter */\n      0xffffffffffffffffffffffffffffffffffffffff\n      and\n        /* \"E/Escrowed ETH.sol\":541:551  msg.sender */\n      caller\n        /* \"E/Escrowed ETH.sol\":541:562  msg.sender == arbiter */\n      0xffffffffffffffffffffffffffffffffffffffff\n      and\n      eq\n        /* \"E/Escrowed ETH.sol\":533:578  require(msg.sender == arbiter, \"Not arbiter\") */\n      tag_44\n      jumpi\n      mload(0x40)\n      0x08c379a000000000000000000000000000000000000000000000000000000000\n      dup2\n      mstore\n      0x04\n      add\n      tag_45\n      swap1\n      tag_30\n      jump\t// in\n    tag_45:\n      mload(0x40)\n      dup1\n      swap2\n      sub\n      swap1\n      revert\n    tag_44:\n        /* \"E/Escrowed ETH.sol\":939:949  isApproved */\n      0x02\n      0x14\n      swap1\n      sload\n      swap1\n      0x0100\n      exp\n      swap1\n      div\n      0xff\n      and\n        /* \"E/Escrowed ETH.sol\":938:949  !isApproved */\n      iszero\n        /* \"E/Escrowed ETH.sol\":930:970  require(!isApproved, \"Already approved\") */\n      tag_47\n      jumpi\n      mload(0x40)\n      0x08c379a000000000000000000000000000000000000000000000000000000000\n      dup2\n      mstore\n      0x04\n      add\n      tag_48\n      swap1\n      tag_34\n      jump\t// in\n    tag_48:\n      mload(0x40)\n      dup1\n      swap2\n      sub\n      swap1\n      revert\n    tag_47:\n        /* \"E/Escrowed ETH.sol\":981:990  bool sent */\n      0x00\n        /* \"E/Escrowed ETH.sol\":996:1005  depositor */\n      0x00\n      0x00\n      swap1\n      sload\n      swap1\n      0x0100\n      exp\n      swap1\n      div\n      0xffffffffffffffffffffffffffffffffffffffff\n      and\n        /* \"E/Escrowed ETH.sol\":996:1010  depositor.call */\n      0xffffffffffffffffffffffffffffffffffffffff\n      and\n        /* \"E/Escrowed ETH.sol\":1018:1039  address(this).balance */\n      selfbalance\n        /* \"E/Escrowed ETH.sol\":996:1044  depositor.call{value: address(this).balance}(\"\") */\n      mload(0x40)\n      tag_49\n      swap1\n      tag_36\n      jump\t// in\n    tag_49:\n      0x00\n      mload(0x40)\n      dup1\n      dup4\n      sub\n      dup2\n      dup6\n      dup8\n      gas\n      call\n      swap3\n      pop\n      pop\n      pop\n      returndatasize\n      dup1\n      0x00\n      dup2\n      eq\n      tag_52\n      jumpi\n      mload(0x40)\n      swap2\n      pop\n      and(add(returndatasize, 0x3f), not(0x1f))\n      dup3\n      add\n      0x40\n      mstore\n      returndatasize\n      dup3\n      mstore\n      returndatasize\n      0x00\n      0x20\n      dup5\n      add\n      returndatacopy\n      jump(tag_51)\n    tag_52:\n      0x60\n      swap2\n      pop\n    tag_51:\n      pop\n        /* \"E/Escrowed ETH.sol\":980:1044  (bool sent, ) = depositor.call{value: address(this).balance}(\"\") */\n      pop\n      swap1\n      pop\n        /* \"E/Escrowed ETH.sol\":1062:1066  sent */\n      dup1\n        /* \"E/Escrowed ETH.sol\":1054:1084  require(sent, \"Refund failed\") */\n      tag_53\n      jumpi\n      mload(0x40)\n      0x08c379a000000000000000000000000000000000000000000000000000000000\n      dup2\n      mstore\n      0x04\n      add\n      tag_54\n      swap1\n      tag_55\n      jump\t// in\n    tag_54:\n      mload(0x40)\n      dup1\n      swap2\n      sub\n      swap1\n      revert\n    tag_53:\n        /* \"E/Escrowed ETH.sol\":1108:1117  depositor */\n      0x00\n      0x00\n      swap1\n      sload\n      swap1\n      0x0100\n      exp\n      swap1\n      div\n      0xffffffffffffffffffffffffffffffffffffffff\n      and\n        /* \"E/Escrowed ETH.sol\":1099:1118  Refunded(depositor) */\n      0xffffffffffffffffffffffffffffffffffffffff\n      and\n      0x167242d43394c1ae34826c8d7544822cbe8c1071d221a571aad57cdd2c2a2fd3\n      mload(0x40)\n      mload(0x40)\n      dup1\n      swap2\n      sub\n      swap1\n      log2\n        /* \"E/Escrowed ETH.sol\":920:1125  {... */\n      pop\n        /* \"E/Escrowed ETH.sol\":881:1125  function refund() external onlyArbiter {... */\n      jump\t// out\n        /* \"E/Escrowed ETH.sol\":87:111  address public depositor */\n    tag_22:\n      0x00\n      0x00\n      swap1\n      sload\n      swap1\n      0x0100\n      exp\n      swap1\n      div\n      0xffffffffffffffffffffffffffffffffffffffff\n      and\n      dup2\n      jump\t// out\n        /* \"E/Escrowed ETH.sol\":149:171  address public arbiter */\n    tag_25:\n      0x02\n      0x00\n      swap1\n      sload\n      swap1\n      0x0100\n      exp\n      swap1\n      div\n      0xffffffffffffffffffffffffffffffffffffffff\n      and\n      dup2\n      jump\t// out\n        /* \"#utility.yul\":7:97   */\n    tag_56:\n        /* \"#utility.yul\":41:48   */\n      0x00\n        /* \"#utility.yul\":84:89   */\n      dup2\n        /* \"#utility.yul\":77:90   */\n      iszero\n        /* \"#utility.yul\":70:91   */\n      iszero\n        /* \"#utility.yul\":59:91   */\n      swap1\n      pop\n        /* \"#utility.yul\":7:97   */\n      swap2\n      swap1\n      pop\n      jump\t// out\n        /* \"#utility.yul\":103:212   */\n    tag_57:\n        /* \"#utility.yul\":184:205   */\n      tag_76\n        /* \"#utility.yul\":199:204   */\n      dup2\n        /* \"#utility.yul\":184:205   */\n      tag_56\n      jump\t// in\n    tag_76:\n        /* \"#utility.yul\":179:182   */\n      dup3\n        /* \"#utility.yul\":172:206   */\n      mstore\n        /* \"#utility.yul\":103:212   */\n      pop\n      pop\n      jump\t// out\n        /* \"#utility.yul\":218:428   */\n    tag_14:\n        /* \"#utility.yul\":305:309   */\n      0x00\n        /* \"#utility.yul\":343:345   */\n      0x20\n        /* \"#utility.yul\":332:341   */\n      dup3\n        /* \"#utility.yul\":328:346   */\n      add\n        /* \"#utility.yul\":320:346   */\n      swap1\n      pop\n        /* \"#utility.yul\":356:421   */\n      tag_78\n        /* \"#utility.yul\":418:419   */\n      0x00\n        /* \"#utility.yul\":407:416   */\n      dup4\n        /* \"#utility.yul\":403:420   */\n      add\n        /* \"#utility.yul\":394:400   */\n      dup5\n        /* \"#utility.yul\":356:421   */\n      tag_57\n      jump\t// in\n    tag_78:\n        /* \"#utility.yul\":218:428   */\n      swap3\n      swap2\n      pop\n      pop\n      jump\t// out\n        /* \"#utility.yul\":434:560   */\n    tag_58:\n        /* \"#utility.yul\":471:478   */\n      0x00\n        /* \"#utility.yul\":511:553   */\n      0xffffffffffffffffffffffffffffffffffffffff\n        /* \"#utility.yul\":504:509   */\n      dup3\n        /* \"#utility.yul\":500:554   */\n      and\n        /* \"#utility.yul\":489:554   */\n      swap1\n      pop\n        /* \"#utility.yul\":434:560   */\n      swap2\n      swap1\n      pop\n      jump\t// out\n        /* \"#utility.yul\":566:662   */\n    tag_59:\n        /* \"#utility.yul\":603:610   */\n      0x00\n        /* \"#utility.yul\":632:656   */\n      tag_81\n        /* \"#utility.yul\":650:655   */\n      dup3\n        /* \"#utility.yul\":632:656   */\n      tag_58\n      jump\t// in\n    tag_81:\n        /* \"#utility.yul\":621:656   */\n      swap1\n      pop\n        /* \"#utility.yul\":566:662   */\n      swap2\n      swap1\n      pop\n      jump\t// out\n        /* \"#utility.yul\":668:786   */\n    tag_60:\n        /* \"#utility.yul\":755:779   */\n      tag_83\n        /* \"#utility.yul\":773:778   */\n      dup2\n        /* \"#utility.yul\":755:779   */\n      tag_59\n      jump\t// in\n    tag_83:\n        /* \"#utility.yul\":750:753   */\n      dup3\n        /* \"#utility.yul\":743:780   */\n      mstore\n        /* \"#utility.yul\":668:786   */\n      pop\n      pop\n      jump\t// out\n        /* \"#utility.yul\":792:1014   */\n    tag_18:\n        /* \"#utility.yul\":885:889   */\n      0x00\n        /* \"#utility.yul\":923:925   */\n      0x20\n        /* \"#utility.yul\":912:921   */\n      dup3\n        /* \"#utility.yul\":908:926   */\n      add\n        /* \"#utility.yul\":900:926   */\n      swap1\n      pop\n        /* \"#utility.yul\":936:1007   */\n      tag_85\n        /* \"#utility.yul\":1004:1005   */\n      0x00\n        /* \"#utility.yul\":993:1002   */\n      dup4\n        /* \"#utility.yul\":989:1006   */\n      add\n        /* \"#utility.yul\":980:986   */\n      dup5\n        /* \"#utility.yul\":936:1007   */\n      tag_60\n      jump\t// in\n    tag_85:\n        /* \"#utility.yul\":792:1014   */\n      swap3\n      swap2\n      pop\n      pop\n      jump\t// out\n        /* \"#utility.yul\":1020:1189   */\n    tag_61:\n        /* \"#utility.yul\":1104:1115   */\n      0x00\n        /* \"#utility.yul\":1138:1144   */\n      dup3\n        /* \"#utility.yul\":1133:1136   */\n      dup3\n        /* \"#utility.yul\":1126:1145   */\n      mstore\n        /* \"#utility.yul\":1178:1182   */\n      0x20\n        /* \"#utility.yul\":1173:1176   */\n      dup3\n        /* \"#utility.yul\":1169:1183   */\n      add\n        /* \"#utility.yul\":1154:1183   */\n      swap1\n      pop\n        /* \"#utility.yul\":1020:1189   */\n      swap3\n      swap2\n      pop\n      pop\n      jump\t// out\n        /* \"#utility.yul\":1195:1356   */\n    tag_62:\n        /* \"#utility.yul\":1335:1348   */\n      0x4e6f742061726269746572000000000000000000000000000000000000000000\n        /* \"#utility.yul\":1331:1332   */\n      0x00\n        /* \"#utility.yul\":1323:1329   */\n      dup3\n        /* \"#utility.yul\":1319:1333   */\n      add\n        /* \"#utility.yul\":1312:1349   */\n      mstore\n        /* \"#utility.yul\":1195:1356   */\n      pop\n      jump\t// out\n        /* \"#utility.yul\":1362:1728   */\n    tag_63:\n        /* \"#utility.yul\":1504:1507   */\n      0x00\n        /* \"#utility.yul\":1525:1592   */\n      tag_89\n        /* \"#utility.yul\":1589:1591   */\n      0x0b\n        /* \"#utility.yul\":1584:1587   */\n      dup4\n        /* \"#utility.yul\":1525:1592   */\n      tag_61\n      jump\t// in\n    tag_89:\n        /* \"#utility.yul\":1518:1592   */\n      swap2\n      pop\n        /* \"#utility.yul\":1601:1694   */\n      tag_90\n        /* \"#utility.yul\":1690:1693   */\n      dup3\n        /* \"#utility.yul\":1601:1694   */\n      tag_62\n      jump\t// in\n    tag_90:\n        /* \"#utility.yul\":1719:1721   */\n      0x20\n        /* \"#utility.yul\":1714:1717   */\n      dup3\n        /* \"#utility.yul\":1710:1722   */\n      add\n        /* \"#utility.yul\":1703:1722   */\n      swap1\n      pop\n        /* \"#utility.yul\":1362:1728   */\n      swap2\n      swap1\n      pop\n      jump\t// out\n        /* \"#utility.yul\":1734:2153   */\n    tag_30:\n        /* \"#utility.yul\":1900:1904   */\n      0x00\n        /* \"#utility.yul\":1938:1940   */\n      0x20\n        /* \"#utility.yul\":1927:1936   */\n      dup3\n        /* \"#utility.yul\":1923:1941   */\n      add\n        /* \"#utility.yul\":1915:1941   */\n      swap1\n      pop\n        /* \"#utility.yul\":1987:1996   */\n      dup2\n        /* \"#utility.yul\":1981:1985   */\n      dup2\n        /* \"#utility.yul\":1977:1997   */\n      sub\n        /* \"#utility.yul\":1973:1974   */\n      0x00\n        /* \"#utility.yul\":1962:1971   */\n      dup4\n        /* \"#utility.yul\":1958:1975   */\n      add\n        /* \"#utility.yul\":1951:1998   */\n      mstore\n        /* \"#utility.yul\":2015:2146   */\n      tag_92\n        /* \"#utility.yul\":2141:2145   */\n      dup2\n        /* \"#utility.yul\":2015:2146   */\n      tag_63\n      jump\t// in\n    tag_92:\n        /* \"#utility.yul\":2007:2146   */\n      swap1\n      pop\n        /* \"#utility.yul\":1734:2153   */\n      swap2\n      swap1\n      pop\n      jump\t// out\n        /* \"#utility.yul\":2159:2325   */\n    tag_64:\n        /* \"#utility.yul\":2299:2317   */\n      0x416c726561647920617070726f76656400000000000000000000000000000000\n        /* \"#utility.yul\":2295:2296   */\n      0x00\n        /* \"#utility.yul\":2287:2293   */\n      dup3\n        /* \"#utility.yul\":2283:2297   */\n      add\n        /* \"#utility.yul\":2276:2318   */\n      mstore\n        /* \"#utility.yul\":2159:2325   */\n      pop\n      jump\t// out\n        /* \"#utility.yul\":2331:2697   */\n    tag_65:\n        /* \"#utility.yul\":2473:2476   */\n      0x00\n        /* \"#utility.yul\":2494:2561   */\n      tag_95\n        /* \"#utility.yul\":2558:2560   */\n      0x10\n        /* \"#utility.yul\":2553:2556   */\n      dup4\n        /* \"#utility.yul\":2494:2561   */\n      tag_61\n      jump\t// in\n    tag_95:\n        /* \"#utility.yul\":2487:2561   */\n      swap2\n      pop\n        /* \"#utility.yul\":2570:2663   */\n      tag_96\n        /* \"#utility.yul\":2659:2662   */\n      dup3\n        /* \"#utility.yul\":2570:2663   */\n      tag_64\n      jump\t// in\n    tag_96:\n        /* \"#utility.yul\":2688:2690   */\n      0x20\n        /* \"#utility.yul\":2683:2686   */\n      dup3\n        /* \"#utility.yul\":2679:2691   */\n      add\n        /* \"#utility.yul\":2672:2691   */\n      swap1\n      pop\n        /* \"#utility.yul\":2331:2697   */\n      swap2\n      swap1\n      pop\n      jump\t// out\n        /* \"#utility.yul\":2703:3122   */\n    tag_34:\n        /* \"#utility.yul\":2869:2873   */\n      0x00\n        /* \"#utility.yul\":2907:2909   */\n      0x20\n        /* \"#utility.yul\":2896:2905   */\n      dup3\n        /* \"#utility.yul\":2892:2910   */\n      add\n        /* \"#utility.yul\":2884:2910   */\n      swap1\n      pop\n        /* \"#utility.yul\":2956:2965   */\n      dup2\n        /* \"#utility.yul\":2950:2954   */\n      dup2\n        /* \"#utility.yul\":2946:2966   */\n      sub\n        /* \"#utility.yul\":2942:2943   */\n      0x00\n        /* \"#utility.yul\":2931:2940   */\n      dup4\n        /* \"#utility.yul\":2927:2944   */\n      add\n        /* \"#utility.yul\":2920:2967   */\n      mstore\n        /* \"#utility.yul\":2984:3115   */\n      tag_98\n        /* \"#utility.yul\":3110:3114   */\n      dup2\n        /* \"#utility.yul\":2984:3115   */\n      tag_65\n      jump\t// in\n    tag_98:\n        /* \"#utility.yul\":2976:3115   */\n      swap1\n      pop\n        /* \"#utility.yul\":2703:3122   */\n      swap2\n      swap1\n      pop\n      jump\t// out\n        /* \"#utility.yul\":3128:3275   */\n    tag_66:\n        /* \"#utility.yul\":3229:3240   */\n      0x00\n        /* \"#utility.yul\":3266:3269   */\n      dup2\n        /* \"#utility.yul\":3251:3269   */\n      swap1\n      pop\n        /* \"#utility.yul\":3128:3275   */\n      swap3\n      swap2\n      pop\n      pop\n      jump\t// out\n        /* \"#utility.yul\":3281:3395   */\n    tag_67:\n      pop\n      jump\t// out\n        /* \"#utility.yul\":3401:3799   */\n    tag_68:\n        /* \"#utility.yul\":3560:3563   */\n      0x00\n        /* \"#utility.yul\":3581:3664   */\n      tag_102\n        /* \"#utility.yul\":3662:3663   */\n      0x00\n        /* \"#utility.yul\":3657:3660   */\n      dup4\n        /* \"#utility.yul\":3581:3664   */\n      tag_66\n      jump\t// in\n    tag_102:\n        /* \"#utility.yul\":3574:3664   */\n      swap2\n      pop\n        /* \"#utility.yul\":3673:3766   */\n      tag_103\n        /* \"#utility.yul\":3762:3765   */\n      dup3\n        /* \"#utility.yul\":3673:3766   */\n      tag_67\n      jump\t// in\n    tag_103:\n        /* \"#utility.yul\":3791:3792   */\n      0x00\n        /* \"#utility.yul\":3786:3789   */\n      dup3\n        /* \"#utility.yul\":3782:3793   */\n      add\n        /* \"#utility.yul\":3775:3793   */\n      swap1\n      pop\n        /* \"#utility.yul\":3401:3799   */\n      swap2\n      swap1\n      pop\n      jump\t// out\n        /* \"#utility.yul\":3805:4184   */\n    tag_36:\n        /* \"#utility.yul\":3989:3992   */\n      0x00\n        /* \"#utility.yul\":4011:4158   */\n      tag_105\n        /* \"#utility.yul\":4154:4157   */\n      dup3\n        /* \"#utility.yul\":4011:4158   */\n      tag_68\n      jump\t// in\n    tag_105:\n        /* \"#utility.yul\":4004:4158   */\n      swap2\n      pop\n        /* \"#utility.yul\":4175:4178   */\n      dup2\n        /* \"#utility.yul\":4168:4178   */\n      swap1\n      pop\n        /* \"#utility.yul\":3805:4184   */\n      swap2\n      swap1\n      pop\n      jump\t// out\n        /* \"#utility.yul\":4190:4351   */\n    tag_69:\n        /* \"#utility.yul\":4330:4343   */\n      0x53656e64206661696c6564000000000000000000000000000000000000000000\n        /* \"#utility.yul\":4326:4327   */\n      0x00\n        /* \"#utility.yul\":4318:4324   */\n      dup3\n        /* \"#utility.yul\":4314:4328   */\n      add\n        /* \"#utility.yul\":4307:4344   */\n      mstore\n        /* \"#utility.yul\":4190:4351   */\n      pop\n      jump\t// out\n        /* \"#utility.yul\":4357:4723   */\n    tag_70:\n        /* \"#utility.yul\":4499:4502   */\n      0x00\n        /* \"#utility.yul\":4520:4587   */\n      tag_108\n        /* \"#utility.yul\":4584:4586   */\n      0x0b\n        /* \"#utility.yul\":4579:4582   */\n      dup4\n        /* \"#utility.yul\":4520:4587   */\n      tag_61\n      jump\t// in\n    tag_108:\n        /* \"#utility.yul\":4513:4587   */\n      swap2\n      pop\n        /* \"#utility.yul\":4596:4689   */\n      tag_109\n        /* \"#utility.yul\":4685:4688   */\n      dup3\n        /* \"#utility.yul\":4596:4689   */\n      tag_69\n      jump\t// in\n    tag_109:\n        /* \"#utility.yul\":4714:4716   */\n      0x20\n        /* \"#utility.yul\":4709:4712   */\n      dup3\n        /* \"#utility.yul\":4705:4717   */\n      add\n        /* \"#utility.yul\":4698:4717   */\n      swap1\n      pop\n        /* \"#utility.yul\":4357:4723   */\n      swap2\n      swap1\n      pop\n      jump\t// out\n        /* \"#utility.yul\":4729:5148   */\n    tag_42:\n        /* \"#utility.yul\":4895:4899   */\n      0x00\n        /* \"#utility.yul\":4933:4935   */\n      0x20\n        /* \"#utility.yul\":4922:4931   */\n      dup3\n        /* \"#utility.yul\":4918:4936   */\n      add\n        /* \"#utility.yul\":4910:4936   */\n      swap1\n      pop\n        /* \"#utility.yul\":4982:4991   */\n      dup2\n        /* \"#utility.yul\":4976:4980   */\n      dup2\n        /* \"#utility.yul\":4972:4992   */\n      sub\n        /* \"#utility.yul\":4968:4969   */\n      0x00\n        /* \"#utility.yul\":4957:4966   */\n      dup4\n        /* \"#utility.yul\":4953:4970   */\n      add\n        /* \"#utility.yul\":4946:4993   */\n      mstore\n        /* \"#utility.yul\":5010:5141   */\n      tag_111\n        /* \"#utility.yul\":5136:5140   */\n      dup2\n        /* \"#utility.yul\":5010:5141   */\n      tag_70\n      jump\t// in\n    tag_111:\n        /* \"#utility.yul\":5002:5141   */\n      swap1\n      pop\n        /* \"#utility.yul\":4729:5148   */\n      swap2\n      swap1\n      pop\n      jump\t// out\n        /* \"#utility.yul\":5154:5317   */\n    tag_71:\n        /* \"#utility.yul\":5294:5309   */\n      0x526566756e64206661696c656400000000000000000000000000000000000000\n        /* \"#utility.yul\":5290:5291   */\n      0x00\n        /* \"#utility.yul\":5282:5288   */\n      dup3\n        /* \"#utility.yul\":5278:5292   */\n      add\n        /* \"#utility.yul\":5271:5310   */\n      mstore\n        /* \"#utility.yul\":5154:5317   */\n      pop\n      jump\t// out\n        /* \"#utility.yul\":5323:5689   */\n    tag_72:\n        /* \"#utility.yul\":5465:5468   */\n      0x00\n        /* \"#utility.yul\":5486:5553   */\n      tag_114\n        /* \"#utility.yul\":5550:5552   */\n      0x0d\n        /* \"#utility.yul\":5545:5548   */\n      dup4\n        /* \"#utility.yul\":5486:5553   */\n      tag_61\n      jump\t// in\n    tag_114:\n        /* \"#utility.yul\":5479:5553   */\n      swap2\n      pop\n        /* \"#utility.yul\":5562:5655   */\n      tag_115\n        /* \"#utility.yul\":5651:5654   */\n      dup3\n        /* \"#utility.yul\":5562:5655   */\n      tag_71\n      jump\t// in\n    tag_115:\n        /* \"#utility.yul\":5680:5682   */\n      0x20\n        /* \"#utility.yul\":5675:5678   */\n      dup3\n        /* \"#utility.yul\":5671:5683   */\n      add\n        /* \"#utility.yul\":5664:5683   */\n      swap1\n      pop\n        /* \"#utility.yul\":5323:5689   */\n      swap2\n      swap1\n      pop\n      jump\t// out\n        /* \"#utility.yul\":5695:6114   */\n    tag_55:\n        /* \"#utility.yul\":5861:5865   */\n      0x00\n        /* \"#utility.yul\":5899:5901   */\n      0x20\n        /* \"#utility.yul\":5888:5897   */\n      dup3\n        /* \"#utility.yul\":5884:5902   */\n      add\n        /* \"#utility.yul\":5876:5902   */\n      swap1\n      pop\n        /* \"#utility.yul\":5948:5957   */\n      dup2\n        /* \"#utility.yul\":5942:5946   */\n      dup2\n        /* \"#utility.yul\":5938:5958   */\n      sub\n        /* \"#utility.yul\":5934:5935   */\n      0x00\n        /* \"#utility.yul\":5923:5932   */\n      dup4\n        /* \"#utility.yul\":5919:5936   */\n      add\n        /* \"#utility.yul\":5912:5959   */\n      mstore\n        /* \"#utility.yul\":5976:6107   */\n      tag_117\n        /* \"#utility.yul\":6102:6106   */\n      dup2\n        /* \"#utility.yul\":5976:6107   */\n      tag_72\n      jump\t// in\n    tag_117:\n        /* \"#utility.yul\":5968:6107   */\n      swap1\n      pop\n        /* \"#utility.yul\":5695:6114   */\n      swap2\n      swap1\n      pop\n      jump\t// out\n\n    auxdata: 0xa2646970667358221220b25c10a6bd5115a4fae68712acd1f2873a32f3f71374ec18b70dca80d2ad7cb364736f6c634300081d0033\n}\n",
				"bytecode": {
					"linkReferences": {},
					"object": "6080604052604051610a87380380610a878339818101604052810190610025919061018b565b5f3411610067576040517f08c379a000000000000000000000000000000000000000000000000000000000815260040161005e90610223565b60405180910390fd5b335f5f6101000a81548173ffffffffffffffffffffffffffffffffffffffff021916908373ffffffffffffffffffffffffffffffffffffffff1602179055508160015f6101000a81548173ffffffffffffffffffffffffffffffffffffffff021916908373ffffffffffffffffffffffffffffffffffffffff1602179055508060025f6101000a81548173ffffffffffffffffffffffffffffffffffffffff021916908373ffffffffffffffffffffffffffffffffffffffff1602179055505050610241565b5f5ffd5b5f73ffffffffffffffffffffffffffffffffffffffff82169050919050565b5f61015a82610131565b9050919050565b61016a81610150565b8114610174575f5ffd5b50565b5f8151905061018581610161565b92915050565b5f5f604083850312156101a1576101a061012d565b5b5f6101ae85828601610177565b92505060206101bf85828601610177565b9150509250929050565b5f82825260208201905092915050565b7f53656e64204554480000000000000000000000000000000000000000000000005f82015250565b5f61020d6008836101c9565b9150610218826101d9565b602082019050919050565b5f6020820190508181035f83015261023a81610201565b9050919050565b6108398061024e5f395ff3fe608060405234801561000f575f5ffd5b5060043610610060575f3560e01c806312424e3f1461006457806328f371aa1461006e57806338af3eed1461008c578063590e1ae3146100aa578063c7c4ff46146100b4578063fe25e00a146100d2575b5f5ffd5b61006c6100f0565b005b6100766102f9565b60405161008391906105a1565b60405180910390f35b61009461030c565b6040516100a191906105f9565b60405180910390f35b6100b2610331565b005b6100bc61053e565b6040516100c991906105f9565b60405180910390f35b6100da610562565b6040516100e791906105f9565b60405180910390f35b60025f9054906101000a900473ffffffffffffffffffffffffffffffffffffffff1673ffffffffffffffffffffffffffffffffffffffff163373ffffffffffffffffffffffffffffffffffffffff161461017f576040517f08c379a00000000000000000000000000000000000000000000000000000000081526004016101769061066c565b60405180910390fd5b600260149054906101000a900460ff16156101cf576040517f08c379a00000000000000000000000000000000000000000000000000000000081526004016101c6906106d4565b60405180910390fd5b6001600260146101000a81548160ff0219169083151502179055505f60015f9054906101000a900473ffffffffffffffffffffffffffffffffffffffff1673ffffffffffffffffffffffffffffffffffffffff16476040516102309061071f565b5f6040518083038185875af1925050503d805f811461026a576040519150601f19603f3d011682016040523d82523d5f602084013e61026f565b606091505b50509050806102b3576040517f08c379a00000000000000000000000000000000000000000000000000000000081526004016102aa9061077d565b60405180910390fd5b3373ffffffffffffffffffffffffffffffffffffffff167f5d91bd0cecc45fef102af61de92c5462fadc884a5ce9d21c15e8a85198f2349e60405160405180910390a250565b600260149054906101000a900460ff1681565b60015f9054906101000a900473ffffffffffffffffffffffffffffffffffffffff1681565b60025f9054906101000a900473ffffffffffffffffffffffffffffffffffffffff1673ffffffffffffffffffffffffffffffffffffffff163373ffffffffffffffffffffffffffffffffffffffff16146103c0576040517f08c379a00000000000000000000000000000000000000000000000000000000081526004016103b79061066c565b60405180910390fd5b600260149054906101000a900460ff1615610410576040517f08c379a0000000000000000000000000000000000000000000000000000000008152600401610407906106d4565b60405180910390fd5b5f5f5f9054906101000a900473ffffffffffffffffffffffffffffffffffffffff1673ffffffffffffffffffffffffffffffffffffffff16476040516104559061071f565b5f6040518083038185875af1925050503d805f811461048f576040519150601f19603f3d011682016040523d82523d5f602084013e610494565b606091505b50509050806104d8576040517f08c379a00000000000000000000000000000000000000000000000000000000081526004016104cf906107e5565b60405180910390fd5b5f5f9054906101000a900473ffffffffffffffffffffffffffffffffffffffff1673ffffffffffffffffffffffffffffffffffffffff167f167242d43394c1ae34826c8d7544822cbe8c1071d221a571aad57cdd2c2a2fd360405160405180910390a250565b5f5f9054906101000a900473ffffffffffffffffffffffffffffffffffffffff1681565b60025f9054906101000a900473ffffffffffffffffffffffffffffffffffffffff1681565b5f8115159050919050565b61059b81610587565b82525050565b5f6020820190506105b45f830184610592565b92915050565b5f73ffffffffffffffffffffffffffffffffffffffff82169050919050565b5f6105e3826105ba565b9050919050565b6105f3816105d9565b82525050565b5f60208201905061060c5f8301846105ea565b92915050565b5f82825260208201905092915050565b7f4e6f7420617262697465720000000000000000000000000000000000000000005f82015250565b5f610656600b83610612565b915061066182610622565b602082019050919050565b5f6020820190508181035f8301526106838161064a565b9050919050565b7f416c726561647920617070726f766564000000000000000000000000000000005f82015250565b5f6106be601083610612565b91506106c98261068a565b602082019050919050565b5f6020820190508181035f8301526106eb816106b2565b9050919050565b5f81905092915050565b50565b5f61070a5f836106f2565b9150610715826106fc565b5f82019050919050565b5f610729826106ff565b9150819050919050565b7f53656e64206661696c65640000000000000000000000000000000000000000005f82015250565b5f610767600b83610612565b915061077282610733565b602082019050919050565b5f6020820190508181035f8301526107948161075b565b9050919050565b7f526566756e64206661696c6564000000000000000000000000000000000000005f82015250565b5f6107cf600d83610612565b91506107da8261079b565b602082019050919050565b5f6020820190508181035f8301526107fc816107c3565b905091905056fea2646970667358221220b25c10a6bd5115a4fae68712acd1f2873a32f3f71374ec18b70dca80d2ad7cb364736f6c634300081d0033",
					"opcodes": "PUSH1 0x80 PUSH1 0x40 MSTORE PUSH1 0x40 MLOAD PUSH2 0xA87 CODESIZE SUB DUP1 PUSH2 0xA87 DUP4 CODECOPY DUP2 DUP2 ADD PUSH1 0x40 MSTORE DUP2 ADD SWAP1 PUSH2 0x25 SWAP2 SWAP1 PUSH2 0x18B JUMP JUMPDEST PUSH0 CALLVALUE GT PUSH2 0x67 JUMPI PUSH1 0x40 MLOAD PUSH32 0x8C379A000000000000000000000000000000000000000000000000000000000 DUP2 MSTORE PUSH1 0x4 ADD PUSH2 0x5E SWAP1 PUSH2 0x223 JUMP JUMPDEST PUSH1 0x40 MLOAD DUP1 SWAP2 SUB SWAP1 REVERT JUMPDEST CALLER PUSH0 PUSH0 PUSH2 0x100 EXP DUP2 SLOAD DUP2 PUSH20 0xFFFFFFFFFFFFFFFFFFFFFFFFFFFFFFFFFFFFFFFF MUL NOT AND SWAP1 DUP4 PUSH20 0xFFFFFFFFFFFFFFFFFFFFFFFFFFFFFFFFFFFFFFFF AND MUL OR SWAP1 SSTORE POP DUP2 PUSH1 0x1 PUSH0 PUSH2 0x100 EXP DUP2 SLOAD DUP2 PUSH20 0xFFFFFFFFFFFFFFFFFFFFFFFFFFFFFFFFFFFFFFFF MUL NOT AND SWAP1 DUP4 PUSH20 0xFFFFFFFFFFFFFFFFFFFFFFFFFFFFFFFFFFFFFFFF AND MUL OR SWAP1 SSTORE POP DUP1 PUSH1 0x2 PUSH0 PUSH2 0x100 EXP DUP2 SLOAD DUP2 PUSH20 0xFFFFFFFFFFFFFFFFFFFFFFFFFFFFFFFFFFFFFFFF MUL NOT AND SWAP1 DUP4 PUSH20 0xFFFFFFFFFFFFFFFFFFFFFFFFFFFFFFFFFFFFFFFF AND MUL OR SWAP1 SSTORE POP POP POP PUSH2 0x241 JUMP JUMPDEST PUSH0 PUSH0 REVERT JUMPDEST PUSH0 PUSH20 0xFFFFFFFFFFFFFFFFFFFFFFFFFFFFFFFFFFFFFFFF DUP3 AND SWAP1 POP SWAP2 SWAP1 POP JUMP JUMPDEST PUSH0 PUSH2 0x15A DUP3 PUSH2 0x131 JUMP JUMPDEST SWAP1 POP SWAP2 SWAP1 POP JUMP JUMPDEST PUSH2 0x16A DUP2 PUSH2 0x150 JUMP JUMPDEST DUP2 EQ PUSH2 0x174 JUMPI PUSH0 PUSH0 REVERT JUMPDEST POP JUMP JUMPDEST PUSH0 DUP2 MLOAD SWAP1 POP PUSH2 0x185 DUP2 PUSH2 0x161 JUMP JUMPDEST SWAP3 SWAP2 POP POP JUMP JUMPDEST PUSH0 PUSH0 PUSH1 0x40 DUP4 DUP6 SUB SLT ISZERO PUSH2 0x1A1 JUMPI PUSH2 0x1A0 PUSH2 0x12D JUMP JUMPDEST JUMPDEST PUSH0 PUSH2 0x1AE DUP6 DUP3 DUP7 ADD PUSH2 0x177 JUMP JUMPDEST SWAP3 POP POP PUSH1 0x20 PUSH2 0x1BF DUP6 DUP3 DUP7 ADD PUSH2 0x177 JUMP JUMPDEST SWAP2 POP POP SWAP3 POP SWAP3 SWAP1 POP JUMP JUMPDEST PUSH0 DUP3 DUP3 MSTORE PUSH1 0x20 DUP3 ADD SWAP1 POP SWAP3 SWAP2 POP POP JUMP JUMPDEST PUSH32 0x53656E6420455448000000000000000000000000000000000000000000000000 PUSH0 DUP3 ADD MSTORE POP JUMP JUMPDEST PUSH0 PUSH2 0x20D PUSH1 0x8 DUP4 PUSH2 0x1C9 JUMP JUMPDEST SWAP2 POP PUSH2 0x218 DUP3 PUSH2 0x1D9 JUMP JUMPDEST PUSH1 0x20 DUP3 ADD SWAP1 POP SWAP2 SWAP1 POP JUMP JUMPDEST PUSH0 PUSH1 0x20 DUP3 ADD SWAP1 POP DUP2 DUP2 SUB PUSH0 DUP4 ADD MSTORE PUSH2 0x23A DUP2 PUSH2 0x201 JUMP JUMPDEST SWAP1 POP SWAP2 SWAP1 POP JUMP JUMPDEST PUSH2 0x839 DUP1 PUSH2 0x24E PUSH0 CODECOPY PUSH0 RETURN INVALID PUSH1 0x80 PUSH1 0x40 MSTORE CALLVALUE DUP1 ISZERO PUSH2 0xF JUMPI PUSH0 PUSH0 REVERT JUMPDEST POP PUSH1 0x4 CALLDATASIZE LT PUSH2 0x60 JUMPI PUSH0 CALLDATALOAD PUSH1 0xE0 SHR DUP1 PUSH4 0x12424E3F EQ PUSH2 0x64 JUMPI DUP1 PUSH4 0x28F371AA EQ PUSH2 0x6E JUMPI DUP1 PUSH4 0x38AF3EED EQ PUSH2 0x8C JUMPI DUP1 PUSH4 0x590E1AE3 EQ PUSH2 0xAA JUMPI DUP1 PUSH4 0xC7C4FF46 EQ PUSH2 0xB4 JUMPI DUP1 PUSH4 0xFE25E00A EQ PUSH2 0xD2 JUMPI JUMPDEST PUSH0 PUSH0 REVERT JUMPDEST PUSH2 0x6C PUSH2 0xF0 JUMP JUMPDEST STOP JUMPDEST PUSH2 0x76 PUSH2 0x2F9 JUMP JUMPDEST PUSH1 0x40 MLOAD PUSH2 0x83 SWAP2 SWAP1 PUSH2 0x5A1 JUMP JUMPDEST PUSH1 0x40 MLOAD DUP1 SWAP2 SUB SWAP1 RETURN JUMPDEST PUSH2 0x94 PUSH2 0x30C JUMP JUMPDEST PUSH1 0x40 MLOAD PUSH2 0xA1 SWAP2 SWAP1 PUSH2 0x5F9 JUMP JUMPDEST PUSH1 0x40 MLOAD DUP1 SWAP2 SUB SWAP1 RETURN JUMPDEST PUSH2 0xB2 PUSH2 0x331 JUMP JUMPDEST STOP JUMPDEST PUSH2 0xBC PUSH2 0x53E JUMP JUMPDEST PUSH1 0x40 MLOAD PUSH2 0xC9 SWAP2 SWAP1 PUSH2 0x5F9 JUMP JUMPDEST PUSH1 0x40 MLOAD DUP1 SWAP2 SUB SWAP1 RETURN JUMPDEST PUSH2 0xDA PUSH2 0x562 JUMP JUMPDEST PUSH1 0x40 MLOAD PUSH2 0xE7 SWAP2 SWAP1 PUSH2 0x5F9 JUMP JUMPDEST PUSH1 0x40 MLOAD DUP1 SWAP2 SUB SWAP1 RETURN JUMPDEST PUSH1 0x2 PUSH0 SWAP1 SLOAD SWAP1 PUSH2 0x100 EXP SWAP1 DIV PUSH20 0xFFFFFFFFFFFFFFFFFFFFFFFFFFFFFFFFFFFFFFFF AND PUSH20 0xFFFFFFFFFFFFFFFFFFFFFFFFFFFFFFFFFFFFFFFF AND CALLER PUSH20 0xFFFFFFFFFFFFFFFFFFFFFFFFFFFFFFFFFFFFFFFF AND EQ PUSH2 0x17F JUMPI PUSH1 0x40 MLOAD PUSH32 0x8C379A000000000000000000000000000000000000000000000000000000000 DUP2 MSTORE PUSH1 0x4 ADD PUSH2 0x176 SWAP1 PUSH2 0x66C JUMP JUMPDEST PUSH1 0x40 MLOAD DUP1 SWAP2 SUB SWAP1 REVERT JUMPDEST PUSH1 0x2 PUSH1 0x14 SWAP1 SLOAD SWAP1 PUSH2 0x100 EXP SWAP1 DIV PUSH1 0xFF AND ISZERO PUSH2 0x1CF JUMPI PUSH1 0x40 MLOAD PUSH32 0x8C379A000000000000000000000000000000000000000000000000000000000 DUP2 MSTORE PUSH1 0x4 ADD PUSH2 0x1C6 SWAP1 PUSH2 0x6D4 JUMP JUMPDEST PUSH1 0x40 MLOAD DUP1 SWAP2 SUB SWAP1 REVERT JUMPDEST PUSH1 0x1 PUSH1 0x2 PUSH1 0x14 PUSH2 0x100 EXP DUP2 SLOAD DUP2 PUSH1 0xFF MUL NOT AND SWAP1 DUP4 ISZERO ISZERO MUL OR SWAP1 SSTORE POP PUSH0 PUSH1 0x1 PUSH0 SWAP1 SLOAD SWAP1 PUSH2 0x100 EXP SWAP1 DIV PUSH20 0xFFFFFFFFFFFFFFFFFFFFFFFFFFFFFFFFFFFFFFFF AND PUSH20 0xFFFFFFFFFFFFFFFFFFFFFFFFFFFFFFFFFFFFFFFF AND SELFBALANCE PUSH1 0x40 MLOAD PUSH2 0x230 SWAP1 PUSH2 0x71F JUMP JUMPDEST PUSH0 PUSH1 0x40 MLOAD DUP1 DUP4 SUB DUP2 DUP6 DUP8 GAS CALL SWAP3 POP POP POP RETURNDATASIZE DUP1 PUSH0 DUP2 EQ PUSH2 0x26A JUMPI PUSH1 0x40 MLOAD SWAP2 POP PUSH1 0x1F NOT PUSH1 0x3F RETURNDATASIZE ADD AND DUP3 ADD PUSH1 0x40 MSTORE RETURNDATASIZE DUP3 MSTORE RETURNDATASIZE PUSH0 PUSH1 0x20 DUP5 ADD RETURNDATACOPY PUSH2 0x26F JUMP JUMPDEST PUSH1 0x60 SWAP2 POP JUMPDEST POP POP SWAP1 POP DUP1 PUSH2 0x2B3 JUMPI PUSH1 0x40 MLOAD PUSH32 0x8C379A000000000000000000000000000000000000000000000000000000000 DUP2 MSTORE PUSH1 0x4 ADD PUSH2 0x2AA SWAP1 PUSH2 0x77D JUMP JUMPDEST PUSH1 0x40 MLOAD DUP1 SWAP2 SUB SWAP1 REVERT JUMPDEST CALLER PUSH20 0xFFFFFFFFFFFFFFFFFFFFFFFFFFFFFFFFFFFFFFFF AND PUSH32 0x5D91BD0CECC45FEF102AF61DE92C5462FADC884A5CE9D21C15E8A85198F2349E PUSH1 0x40 MLOAD PUSH1 0x40 MLOAD DUP1 SWAP2 SUB SWAP1 LOG2 POP JUMP JUMPDEST PUSH1 0x2 PUSH1 0x14 SWAP1 SLOAD SWAP1 PUSH2 0x100 EXP SWAP1 DIV PUSH1 0xFF AND DUP2 JUMP JUMPDEST PUSH1 0x1 PUSH0 SWAP1 SLOAD SWAP1 PUSH2 0x100 EXP SWAP1 DIV PUSH20 0xFFFFFFFFFFFFFFFFFFFFFFFFFFFFFFFFFFFFFFFF AND DUP2 JUMP JUMPDEST PUSH1 0x2 PUSH0 SWAP1 SLOAD SWAP1 PUSH2 0x100 EXP SWAP1 DIV PUSH20 0xFFFFFFFFFFFFFFFFFFFFFFFFFFFFFFFFFFFFFFFF AND PUSH20 0xFFFFFFFFFFFFFFFFFFFFFFFFFFFFFFFFFFFFFFFF AND CALLER PUSH20 0xFFFFFFFFFFFFFFFFFFFFFFFFFFFFFFFFFFFFFFFF AND EQ PUSH2 0x3C0 JUMPI PUSH1 0x40 MLOAD PUSH32 0x8C379A000000000000000000000000000000000000000000000000000000000 DUP2 MSTORE PUSH1 0x4 ADD PUSH2 0x3B7 SWAP1 PUSH2 0x66C JUMP JUMPDEST PUSH1 0x40 MLOAD DUP1 SWAP2 SUB SWAP1 REVERT JUMPDEST PUSH1 0x2 PUSH1 0x14 SWAP1 SLOAD SWAP1 PUSH2 0x100 EXP SWAP1 DIV PUSH1 0xFF AND ISZERO PUSH2 0x410 JUMPI PUSH1 0x40 MLOAD PUSH32 0x8C379A000000000000000000000000000000000000000000000000000000000 DUP2 MSTORE PUSH1 0x4 ADD PUSH2 0x407 SWAP1 PUSH2 0x6D4 JUMP JUMPDEST PUSH1 0x40 MLOAD DUP1 SWAP2 SUB SWAP1 REVERT JUMPDEST PUSH0 PUSH0 PUSH0 SWAP1 SLOAD SWAP1 PUSH2 0x100 EXP SWAP1 DIV PUSH20 0xFFFFFFFFFFFFFFFFFFFFFFFFFFFFFFFFFFFFFFFF AND PUSH20 0xFFFFFFFFFFFFFFFFFFFFFFFFFFFFFFFFFFFFFFFF AND SELFBALANCE PUSH1 0x40 MLOAD PUSH2 0x455 SWAP1 PUSH2 0x71F JUMP JUMPDEST PUSH0 PUSH1 0x40 MLOAD DUP1 DUP4 SUB DUP2 DUP6 DUP8 GAS CALL SWAP3 POP POP POP RETURNDATASIZE DUP1 PUSH0 DUP2 EQ PUSH2 0x48F JUMPI PUSH1 0x40 MLOAD SWAP2 POP PUSH1 0x1F NOT PUSH1 0x3F RETURNDATASIZE ADD AND DUP3 ADD PUSH1 0x40 MSTORE RETURNDATASIZE DUP3 MSTORE RETURNDATASIZE PUSH0 PUSH1 0x20 DUP5 ADD RETURNDATACOPY PUSH2 0x494 JUMP JUMPDEST PUSH1 0x60 SWAP2 POP JUMPDEST POP POP SWAP1 POP DUP1 PUSH2 0x4D8 JUMPI PUSH1 0x40 MLOAD PUSH32 0x8C379A000000000000000000000000000000000000000000000000000000000 DUP2 MSTORE PUSH1 0x4 ADD PUSH2 0x4CF SWAP1 PUSH2 0x7E5 JUMP JUMPDEST PUSH1 0x40 MLOAD DUP1 SWAP2 SUB SWAP1 REVERT JUMPDEST PUSH0 PUSH0 SWAP1 SLOAD SWAP1 PUSH2 0x100 EXP SWAP1 DIV PUSH20 0xFFFFFFFFFFFFFFFFFFFFFFFFFFFFFFFFFFFFFFFF AND PUSH20 0xFFFFFFFFFFFFFFFFFFFFFFFFFFFFFFFFFFFFFFFF AND PUSH32 0x167242D43394C1AE34826C8D7544822CBE8C1071D221A571AAD57CDD2C2A2FD3 PUSH1 0x40 MLOAD PUSH1 0x40 MLOAD DUP1 SWAP2 SUB SWAP1 LOG2 POP JUMP JUMPDEST PUSH0 PUSH0 SWAP1 SLOAD SWAP1 PUSH2 0x100 EXP SWAP1 DIV PUSH20 0xFFFFFFFFFFFFFFFFFFFFFFFFFFFFFFFFFFFFFFFF AND DUP2 JUMP JUMPDEST PUSH1 0x2 PUSH0 SWAP1 SLOAD SWAP1 PUSH2 0x100 EXP SWAP1 DIV PUSH20 0xFFFFFFFFFFFFFFFFFFFFFFFFFFFFFFFFFFFFFFFF AND DUP2 JUMP JUMPDEST PUSH0 DUP2 ISZERO ISZERO SWAP1 POP SWAP2 SWAP1 POP JUMP JUMPDEST PUSH2 0x59B DUP2 PUSH2 0x587 JUMP JUMPDEST DUP3 MSTORE POP POP JUMP JUMPDEST PUSH0 PUSH1 0x20 DUP3 ADD SWAP1 POP PUSH2 0x5B4 PUSH0 DUP4 ADD DUP5 PUSH2 0x592 JUMP JUMPDEST SWAP3 SWAP2 POP POP JUMP JUMPDEST PUSH0 PUSH20 0xFFFFFFFFFFFFFFFFFFFFFFFFFFFFFFFFFFFFFFFF DUP3 AND SWAP1 POP SWAP2 SWAP1 POP JUMP JUMPDEST PUSH0 PUSH2 0x5E3 DUP3 PUSH2 0x5BA JUMP JUMPDEST SWAP1 POP SWAP2 SWAP1 POP JUMP JUMPDEST PUSH2 0x5F3 DUP2 PUSH2 0x5D9 JUMP JUMPDEST DUP3 MSTORE POP POP JUMP JUMPDEST PUSH0 PUSH1 0x20 DUP3 ADD SWAP1 POP PUSH2 0x60C PUSH0 DUP4 ADD DUP5 PUSH2 0x5EA JUMP JUMPDEST SWAP3 SWAP2 POP POP JUMP JUMPDEST PUSH0 DUP3 DUP3 MSTORE PUSH1 0x20 DUP3 ADD SWAP1 POP SWAP3 SWAP2 POP POP JUMP JUMPDEST PUSH32 0x4E6F742061726269746572000000000000000000000000000000000000000000 PUSH0 DUP3 ADD MSTORE POP JUMP JUMPDEST PUSH0 PUSH2 0x656 PUSH1 0xB DUP4 PUSH2 0x612 JUMP JUMPDEST SWAP2 POP PUSH2 0x661 DUP3 PUSH2 0x622 JUMP JUMPDEST PUSH1 0x20 DUP3 ADD SWAP1 POP SWAP2 SWAP1 POP JUMP JUMPDEST PUSH0 PUSH1 0x20 DUP3 ADD SWAP1 POP DUP2 DUP2 SUB PUSH0 DUP4 ADD MSTORE PUSH2 0x683 DUP2 PUSH2 0x64A JUMP JUMPDEST SWAP1 POP SWAP2 SWAP1 POP JUMP JUMPDEST PUSH32 0x416C726561647920617070726F76656400000000000000000000000000000000 PUSH0 DUP3 ADD MSTORE POP JUMP JUMPDEST PUSH0 PUSH2 0x6BE PUSH1 0x10 DUP4 PUSH2 0x612 JUMP JUMPDEST SWAP2 POP PUSH2 0x6C9 DUP3 PUSH2 0x68A JUMP JUMPDEST PUSH1 0x20 DUP3 ADD SWAP1 POP SWAP2 SWAP1 POP JUMP JUMPDEST PUSH0 PUSH1 0x20 DUP3 ADD SWAP1 POP DUP2 DUP2 SUB PUSH0 DUP4 ADD MSTORE PUSH2 0x6EB DUP2 PUSH2 0x6B2 JUMP JUMPDEST SWAP1 POP SWAP2 SWAP1 POP JUMP JUMPDEST PUSH0 DUP2 SWAP1 POP SWAP3 SWAP2 POP POP JUMP JUMPDEST POP JUMP JUMPDEST PUSH0 PUSH2 0x70A PUSH0 DUP4 PUSH2 0x6F2 JUMP JUMPDEST SWAP2 POP PUSH2 0x715 DUP3 PUSH2 0x6FC JUMP JUMPDEST PUSH0 DUP3 ADD SWAP1 POP SWAP2 SWAP1 POP JUMP JUMPDEST PUSH0 PUSH2 0x729 DUP3 PUSH2 0x6FF JUMP JUMPDEST SWAP2 POP DUP2 SWAP1 POP SWAP2 SWAP1 POP JUMP JUMPDEST PUSH32 0x53656E64206661696C6564000000000000000000000000000000000000000000 PUSH0 DUP3 ADD MSTORE POP JUMP JUMPDEST PUSH0 PUSH2 0x767 PUSH1 0xB DUP4 PUSH2 0x612 JUMP JUMPDEST SWAP2 POP PUSH2 0x772 DUP3 PUSH2 0x733 JUMP JUMPDEST PUSH1 0x20 DUP3 ADD SWAP1 POP SWAP2 SWAP1 POP JUMP JUMPDEST PUSH0 PUSH1 0x20 DUP3 ADD SWAP1 POP DUP2 DUP2 SUB PUSH0 DUP4 ADD MSTORE PUSH2 0x794 DUP2 PUSH2 0x75B JUMP JUMPDEST SWAP1 POP SWAP2 SWAP1 POP JUMP JUMPDEST PUSH32 0x526566756E64206661696C656400000000000000000000000000000000000000 PUSH0 DUP3 ADD MSTORE POP JUMP JUMPDEST PUSH0 PUSH2 0x7CF PUSH1 0xD DUP4 PUSH2 0x612 JUMP JUMPDEST SWAP2 POP PUSH2 0x7DA DUP3 PUSH2 0x79B JUMP JUMPDEST PUSH1 0x20 DUP3 ADD SWAP1 POP SWAP2 SWAP1 POP JUMP JUMPDEST PUSH0 PUSH1 0x20 DUP3 ADD SWAP1 POP DUP2 DUP2 SUB PUSH0 DUP4 ADD MSTORE PUSH2 0x7FC DUP2 PUSH2 0x7C3 JUMP JUMPDEST SWAP1 POP SWAP2 SWAP1 POP JUMP INVALID LOG2 PUSH5 0x6970667358 0x22 SLT KECCAK256 0xB2 TLOAD LT 0xA6 0xBD MLOAD ISZERO LOG4 STATICCALL DUPN 0x87 SLT 0xAC DATALOADN 0xF287 GASPRICE ORIGIN RETURN 0xF7 SGT PUSH21 0xEC18B70DCA80D2AD7CB364736F6C634300081D0033 "
				},
				"gasEstimates": {
					"creation": {
						"codeDepositCost": "421000",
						"executionCost": "infinite",
						"totalCost": "infinite"
					},
					"external": {
						"approve()": "infinite",
						"arbiter()": "2596",
						"beneficiary()": "2530",
						"depositor()": "2573",
						"isApproved()": "2517",
						"refund()": "infinite"
					}
				},
				"methodIdentifiers": {
					"approve()": "12424e3f",
					"arbiter()": "fe25e00a",
					"beneficiary()": "38af3eed",
					"depositor()": "c7c4ff46",
					"isApproved()": "28f371aa",
					"refund()": "590e1ae3"
				}
			},
			"storageLayout": {
				"storage": [
					{
						"astId": 3,
						"contract": "E/Escrowed ETH.sol:EscrowedEther",
						"label": "depositor",
						"offset": 0,
						"slot": "0",
						"type": "t_address"
					},
					{
						"astId": 5,
						"contract": "E/Escrowed ETH.sol:EscrowedEther",
						"label": "beneficiary",
						"offset": 0,
						"slot": "1",
						"type": "t_address"
					},
					{
						"astId": 7,
						"contract": "E/Escrowed ETH.sol:EscrowedEther",
						"label": "arbiter",
						"offset": 0,
						"slot": "2",
						"type": "t_address"
					},
					{
						"astId": 9,
						"contract": "E/Escrowed ETH.sol:EscrowedEther",
						"label": "isApproved",
						"offset": 20,
						"slot": "2",
						"type": "t_bool"
					}
				],
				"types": {
					"t_address": {
						"encoding": "inplace",
						"label": "address",
						"numberOfBytes": "20"
					},
					"t_bool": {
						"encoding": "inplace",
						"label": "bool",
						"numberOfBytes": "1"
					}
				}
			},
			"userdoc": {
				"kind": "user",
				"methods": {},
				"version": 1
			}
		}
	}
}