{
	"E/Ethereum virtual machine.sol": {
		"EthereumVirtualMachineDemo": {
			"abi": [
				{
					"anonymous": false,
					"inputs": [
						{
							"indexed": false,
							"internalType": "uint256",
							"name": "gas",
							"type": "uint256"
						}
					],
					"name": "GasLeft",
					"type": "event"
				},
				{
					"anonymous": false,
					"inputs": [
						{
							"indexed": false,
							"internalType": "bool",
							"name": "success",
							"type": "bool"
						},
						{
							"indexed": false,
							"internalType": "bytes",
							"name": "data",
							"type": "bytes"
						}
					],
					"name": "RawCallResult",
					"type": "event"
				},
				{
					"anonymous": false,
					"inputs": [
						{
							"indexed": false,
							"internalType": "uint256",
							"name": "value",
							"type": "uint256"
						}
					],
					"name": "StoredViaAssembly",
					"type": "event"
				},
				{
					"inputs": [],
					"name": "checkGas",
					"outputs": [],
					"stateMutability": "nonpayable",
					"type": "function"
				},
				{
					"inputs": [],
					"name": "getEnv",
					"outputs": [
						{
							"internalType": "address",
							"name": "sender",
							"type": "address"
						},
						{
							"internalType": "uint256",
							"name": "gasLimit",
							"type": "uint256"
						},
						{
							"internalType": "uint256",
							"name": "blockNum",
							"type": "uint256"
						},
						{
							"internalType": "uint256",
							"name": "timestamp",
							"type": "uint256"
						},
						{
							"internalType": "uint256",
							"name": "chainId",
							"type": "uint256"
						}
					],
					"stateMutability": "view",
					"type": "function"
				},
				{
					"inputs": [],
					"name": "loadWithAssembly",
					"outputs": [
						{
							"internalType": "uint256",
							"name": "val",
							"type": "uint256"
						}
					],
					"stateMutability": "view",
					"type": "function"
				},
				{
					"inputs": [
						{
							"internalType": "address",
							"name": "target",
							"type": "address"
						},
						{
							"internalType": "bytes",
							"name": "data",
							"type": "bytes"
						}
					],
					"name": "rawCall",
					"outputs": [],
					"stateMutability": "nonpayable",
					"type": "function"
				},
				{
					"inputs": [
						{
							"internalType": "uint256",
							"name": "_value",
							"type": "uint256"
						}
					],
					"name": "storeWithAssembly",
					"outputs": [],
					"stateMutability": "nonpayable",
					"type": "function"
				}
			],
			"devdoc": {
				"kind": "dev",
				"methods": {},
				"version": 1
			},
			"evm": {
				"assembly": "    /* \"E/Ethereum virtual machine.sol\":58:1572  contract EthereumVirtualMachineDemo {... */\n  mstore(0x40, 0x80)\n  callvalue\n  dup1\n  iszero\n  tag_1\n  jumpi\n  revert(0x00, 0x00)\ntag_1:\n  pop\n  dataSize(sub_0)\n  dup1\n  dataOffset(sub_0)\n  0x00\n  codecopy\n  0x00\n  return\nstop\n\nsub_0: assembly {\n        /* \"E/Ethereum virtual machine.sol\":58:1572  contract EthereumVirtualMachineDemo {... */\n      mstore(0x40, 0x80)\n      callvalue\n      dup1\n      iszero\n      tag_1\n      jumpi\n      revert(0x00, 0x00)\n    tag_1:\n      pop\n      jumpi(tag_2, lt(calldatasize, 0x04))\n      shr(0xe0, calldataload(0x00))\n      dup1\n      0x09acaa96\n      eq\n      tag_3\n      jumpi\n      dup1\n      0x7cece941\n      eq\n      tag_4\n      jumpi\n      dup1\n      0xea943636\n      eq\n      tag_5\n      jumpi\n      dup1\n      0xec38ba34\n      eq\n      tag_6\n      jumpi\n      dup1\n      0xeca7ed0a\n      eq\n      tag_7\n      jumpi\n    tag_2:\n      revert(0x00, 0x00)\n        /* \"E/Ethereum virtual machine.sol\":958:1138  function rawCall(address target, bytes calldata data) external {... */\n    tag_3:\n      tag_8\n      0x04\n      dup1\n      calldatasize\n      sub\n      dup2\n      add\n      swap1\n      tag_9\n      swap2\n      swap1\n      tag_10\n      jump\t// in\n    tag_9:\n      tag_11\n      jump\t// in\n    tag_8:\n      stop\n        /* \"E/Ethereum virtual machine.sol\":505:689  function storeWithAssembly(uint256 _value) external {... */\n    tag_4:\n      tag_12\n      0x04\n      dup1\n      calldatasize\n      sub\n      dup2\n      add\n      swap1\n      tag_13\n      swap2\n      swap1\n      tag_14\n      jump\t// in\n    tag_13:\n      tag_15\n      jump\t// in\n    tag_12:\n      stop\n        /* \"E/Ethereum virtual machine.sol\":767:895  function loadWithAssembly() external view returns (uint256 val) {... */\n    tag_5:\n      tag_16\n      tag_17\n      jump\t// in\n    tag_16:\n      mload(0x40)\n      tag_18\n      swap2\n      swap1\n      tag_19\n      jump\t// in\n    tag_18:\n      mload(0x40)\n      dup1\n      swap2\n      sub\n      swap1\n      return\n        /* \"E/Ethereum virtual machine.sol\":1192:1570  function getEnv() external view returns (... */\n    tag_6:\n      tag_20\n      tag_21\n      jump\t// in\n    tag_20:\n      mload(0x40)\n      tag_22\n      swap6\n      swap5\n      swap4\n      swap3\n      swap2\n      swap1\n      tag_23\n      jump\t// in\n    tag_22:\n      mload(0x40)\n      dup1\n      swap2\n      sub\n      swap1\n      return\n        /* \"E/Ethereum virtual machine.sol\":314:422  function checkGas() external {... */\n    tag_7:\n      tag_24\n      tag_25\n      jump\t// in\n    tag_24:\n      stop\n        /* \"E/Ethereum virtual machine.sol\":958:1138  function rawCall(address target, bytes calldata data) external {... */\n    tag_11:\n        /* \"E/Ethereum virtual machine.sol\":1032:1044  bool success */\n      0x00\n        /* \"E/Ethereum virtual machine.sol\":1046:1065  bytes memory result */\n      0x00\n        /* \"E/Ethereum virtual machine.sol\":1069:1075  target */\n      dup5\n        /* \"E/Ethereum virtual machine.sol\":1069:1080  target.call */\n      0xffffffffffffffffffffffffffffffffffffffff\n      and\n        /* \"E/Ethereum virtual machine.sol\":1081:1085  data */\n      dup5\n      dup5\n        /* \"E/Ethereum virtual machine.sol\":1069:1086  target.call(data) */\n      mload(0x40)\n      tag_27\n      swap3\n      swap2\n      swap1\n      tag_28\n      jump\t// in\n    tag_27:\n      0x00\n      mload(0x40)\n      dup1\n      dup4\n      sub\n      dup2\n      0x00\n      dup7\n      gas\n      call\n      swap2\n      pop\n      pop\n      returndatasize\n      dup1\n      0x00\n      dup2\n      eq\n      tag_31\n      jumpi\n      mload(0x40)\n      swap2\n      pop\n      and(add(returndatasize, 0x3f), not(0x1f))\n      dup3\n      add\n      0x40\n      mstore\n      returndatasize\n      dup3\n      mstore\n      returndatasize\n      0x00\n      0x20\n      dup5\n      add\n      returndatacopy\n      jump(tag_30)\n    tag_31:\n      0x60\n      swap2\n      pop\n    tag_30:\n      pop\n        /* \"E/Ethereum virtual machine.sol\":1031:1086  (bool success, bytes memory result) = target.call(data) */\n      swap2\n      pop\n      swap2\n      pop\n        /* \"E/Ethereum virtual machine.sol\":1101:1131  RawCallResult(success, result) */\n      0xbe75f45a4e0c5d9802fa6306ca6604bbe2218a751f2aaa1d6447e1757e91c759\n        /* \"E/Ethereum virtual machine.sol\":1115:1122  success */\n      dup3\n        /* \"E/Ethereum virtual machine.sol\":1124:1130  result */\n      dup3\n        /* \"E/Ethereum virtual machine.sol\":1101:1131  RawCallResult(success, result) */\n      mload(0x40)\n      tag_32\n      swap3\n      swap2\n      swap1\n      tag_33\n      jump\t// in\n    tag_32:\n      mload(0x40)\n      dup1\n      swap2\n      sub\n      swap1\n      log1\n        /* \"E/Ethereum virtual machine.sol\":1021:1138  {... */\n      pop\n      pop\n        /* \"E/Ethereum virtual machine.sol\":958:1138  function rawCall(address target, bytes calldata data) external {... */\n      pop\n      pop\n      pop\n      jump\t// out\n        /* \"E/Ethereum virtual machine.sol\":505:689  function storeWithAssembly(uint256 _value) external {... */\n    tag_15:\n        /* \"E/Ethereum virtual machine.sol\":600:606  _value */\n      dup1\n        /* \"E/Ethereum virtual machine.sol\":597:598  0 */\n      0x00\n        /* \"E/Ethereum virtual machine.sol\":590:607  sstore(0, _value) */\n      sstore\n        /* \"E/Ethereum virtual machine.sol\":657:682  StoredViaAssembly(_value) */\n      0x230b0cf23584327747691e0465bc1bd33ab3d5aefe116de0c3df2ca81cb14a13\n        /* \"E/Ethereum virtual machine.sol\":675:681  _value */\n      dup2\n        /* \"E/Ethereum virtual machine.sol\":657:682  StoredViaAssembly(_value) */\n      mload(0x40)\n      tag_35\n      swap2\n      swap1\n      tag_19\n      jump\t// in\n    tag_35:\n      mload(0x40)\n      dup1\n      swap2\n      sub\n      swap1\n      log1\n        /* \"E/Ethereum virtual machine.sol\":505:689  function storeWithAssembly(uint256 _value) external {... */\n      pop\n      jump\t// out\n        /* \"E/Ethereum virtual machine.sol\":767:895  function loadWithAssembly() external view returns (uint256 val) {... */\n    tag_17:\n        /* \"E/Ethereum virtual machine.sol\":818:829  uint256 val */\n      0x00\n        /* \"E/Ethereum virtual machine.sol\":877:878  0 */\n      0x00\n        /* \"E/Ethereum virtual machine.sol\":871:879  sload(0) */\n      sload\n        /* \"E/Ethereum virtual machine.sol\":864:879  val := sload(0) */\n      swap1\n      pop\n        /* \"E/Ethereum virtual machine.sol\":767:895  function loadWithAssembly() external view returns (uint256 val) {... */\n      swap1\n      jump\t// out\n        /* \"E/Ethereum virtual machine.sol\":1192:1570  function getEnv() external view returns (... */\n    tag_21:\n        /* \"E/Ethereum virtual machine.sol\":1242:1256  address sender */\n      0x00\n        /* \"E/Ethereum virtual machine.sol\":1266:1282  uint256 gasLimit */\n      0x00\n        /* \"E/Ethereum virtual machine.sol\":1292:1308  uint256 blockNum */\n      0x00\n        /* \"E/Ethereum virtual machine.sol\":1318:1335  uint256 timestamp */\n      0x00\n        /* \"E/Ethereum virtual machine.sol\":1345:1360  uint256 chainId */\n      0x00\n        /* \"E/Ethereum virtual machine.sol\":1386:1396  msg.sender */\n      caller\n        /* \"E/Ethereum virtual machine.sol\":1377:1396  sender = msg.sender */\n      swap5\n      pop\n        /* \"E/Ethereum virtual machine.sol\":1417:1431  block.gaslimit */\n      gaslimit\n        /* \"E/Ethereum virtual machine.sol\":1406:1431  gasLimit = block.gaslimit */\n      swap4\n      pop\n        /* \"E/Ethereum virtual machine.sol\":1452:1464  block.number */\n      number\n        /* \"E/Ethereum virtual machine.sol\":1441:1464  blockNum = block.number */\n      swap3\n      pop\n        /* \"E/Ethereum virtual machine.sol\":1486:1501  block.timestamp */\n      timestamp\n        /* \"E/Ethereum virtual machine.sol\":1474:1501  timestamp = block.timestamp */\n      swap2\n      pop\n        /* \"E/Ethereum virtual machine.sol\":1545:1554  chainid() */\n      chainid\n        /* \"E/Ethereum virtual machine.sol\":1534:1554  chainId := chainid() */\n      swap1\n      pop\n        /* \"E/Ethereum virtual machine.sol\":1192:1570  function getEnv() external view returns (... */\n      swap1\n      swap2\n      swap3\n      swap4\n      swap5\n      jump\t// out\n        /* \"E/Ethereum virtual machine.sol\":314:422  function checkGas() external {... */\n    tag_25:\n        /* \"E/Ethereum virtual machine.sol\":353:370  uint256 remaining */\n      0x00\n        /* \"E/Ethereum virtual machine.sol\":373:382  gasleft() */\n      gas\n        /* \"E/Ethereum virtual machine.sol\":353:382  uint256 remaining = gasleft() */\n      swap1\n      pop\n        /* \"E/Ethereum virtual machine.sol\":397:415  GasLeft(remaining) */\n      0xd6dca172e276f53402f777ced9d49668ea6fb3e2c3f241df4bc1ff2370ffb2e5\n        /* \"E/Ethereum virtual machine.sol\":405:414  remaining */\n      dup2\n        /* \"E/Ethereum virtual machine.sol\":397:415  GasLeft(remaining) */\n      mload(0x40)\n      tag_39\n      swap2\n      swap1\n      tag_19\n      jump\t// in\n    tag_39:\n      mload(0x40)\n      dup1\n      swap2\n      sub\n      swap1\n      log1\n        /* \"E/Ethereum virtual machine.sol\":343:422  {... */\n      pop\n        /* \"E/Ethereum virtual machine.sol\":314:422  function checkGas() external {... */\n      jump\t// out\n        /* \"#utility.yul\":88:205   */\n    tag_41:\n        /* \"#utility.yul\":197:198   */\n      0x00\n        /* \"#utility.yul\":194:195   */\n      0x00\n        /* \"#utility.yul\":187:199   */\n      revert\n        /* \"#utility.yul\":211:328   */\n    tag_42:\n        /* \"#utility.yul\":320:321   */\n      0x00\n        /* \"#utility.yul\":317:318   */\n      0x00\n        /* \"#utility.yul\":310:322   */\n      revert\n        /* \"#utility.yul\":334:460   */\n    tag_43:\n        /* \"#utility.yul\":371:378   */\n      0x00\n        /* \"#utility.yul\":411:453   */\n      0xffffffffffffffffffffffffffffffffffffffff\n        /* \"#utility.yul\":404:409   */\n      dup3\n        /* \"#utility.yul\":400:454   */\n      and\n        /* \"#utility.yul\":389:454   */\n      swap1\n      pop\n        /* \"#utility.yul\":334:460   */\n      swap2\n      swap1\n      pop\n      jump\t// out\n        /* \"#utility.yul\":466:562   */\n    tag_44:\n        /* \"#utility.yul\":503:510   */\n      0x00\n        /* \"#utility.yul\":532:556   */\n      tag_72\n        /* \"#utility.yul\":550:555   */\n      dup3\n        /* \"#utility.yul\":532:556   */\n      tag_43\n      jump\t// in\n    tag_72:\n        /* \"#utility.yul\":521:556   */\n      swap1\n      pop\n        /* \"#utility.yul\":466:562   */\n      swap2\n      swap1\n      pop\n      jump\t// out\n        /* \"#utility.yul\":568:690   */\n    tag_45:\n        /* \"#utility.yul\":641:665   */\n      tag_74\n        /* \"#utility.yul\":659:664   */\n      dup2\n        /* \"#utility.yul\":641:665   */\n      tag_44\n      jump\t// in\n    tag_74:\n        /* \"#utility.yul\":634:639   */\n      dup2\n        /* \"#utility.yul\":631:666   */\n      eq\n        /* \"#utility.yul\":621:684   */\n      tag_75\n      jumpi\n        /* \"#utility.yul\":680:681   */\n      0x00\n        /* \"#utility.yul\":677:678   */\n      0x00\n        /* \"#utility.yul\":670:682   */\n      revert\n        /* \"#utility.yul\":621:684   */\n    tag_75:\n        /* \"#utility.yul\":568:690   */\n      pop\n      jump\t// out\n        /* \"#utility.yul\":696:835   */\n    tag_46:\n        /* \"#utility.yul\":742:747   */\n      0x00\n        /* \"#utility.yul\":780:786   */\n      dup2\n        /* \"#utility.yul\":767:787   */\n      calldataload\n        /* \"#utility.yul\":758:787   */\n      swap1\n      pop\n        /* \"#utility.yul\":796:829   */\n      tag_77\n        /* \"#utility.yul\":823:828   */\n      dup2\n        /* \"#utility.yul\":796:829   */\n      tag_45\n      jump\t// in\n    tag_77:\n        /* \"#utility.yul\":696:835   */\n      swap3\n      swap2\n      pop\n      pop\n      jump\t// out\n        /* \"#utility.yul\":841:958   */\n    tag_47:\n        /* \"#utility.yul\":950:951   */\n      0x00\n        /* \"#utility.yul\":947:948   */\n      0x00\n        /* \"#utility.yul\":940:952   */\n      revert\n        /* \"#utility.yul\":964:1081   */\n    tag_48:\n        /* \"#utility.yul\":1073:1074   */\n      0x00\n        /* \"#utility.yul\":1070:1071   */\n      0x00\n        /* \"#utility.yul\":1063:1075   */\n      revert\n        /* \"#utility.yul\":1087:1204   */\n    tag_49:\n        /* \"#utility.yul\":1196:1197   */\n      0x00\n        /* \"#utility.yul\":1193:1194   */\n      0x00\n        /* \"#utility.yul\":1186:1198   */\n      revert\n        /* \"#utility.yul\":1223:1775   */\n    tag_50:\n        /* \"#utility.yul\":1280:1288   */\n      0x00\n        /* \"#utility.yul\":1290:1296   */\n      0x00\n        /* \"#utility.yul\":1340:1343   */\n      dup4\n        /* \"#utility.yul\":1333:1337   */\n      0x1f\n        /* \"#utility.yul\":1325:1331   */\n      dup5\n        /* \"#utility.yul\":1321:1338   */\n      add\n        /* \"#utility.yul\":1317:1344   */\n      slt\n        /* \"#utility.yul\":1307:1429   */\n      tag_82\n      jumpi\n        /* \"#utility.yul\":1348:1427   */\n      tag_83\n      tag_47\n      jump\t// in\n    tag_83:\n        /* \"#utility.yul\":1307:1429   */\n    tag_82:\n        /* \"#utility.yul\":1461:1467   */\n      dup3\n        /* \"#utility.yul\":1448:1468   */\n      calldataload\n        /* \"#utility.yul\":1438:1468   */\n      swap1\n      pop\n        /* \"#utility.yul\":1491:1509   */\n      0xffffffffffffffff\n        /* \"#utility.yul\":1483:1489   */\n      dup2\n        /* \"#utility.yul\":1480:1510   */\n      gt\n        /* \"#utility.yul\":1477:1594   */\n      iszero\n      tag_84\n      jumpi\n        /* \"#utility.yul\":1513:1592   */\n      tag_85\n      tag_48\n      jump\t// in\n    tag_85:\n        /* \"#utility.yul\":1477:1594   */\n    tag_84:\n        /* \"#utility.yul\":1627:1631   */\n      0x20\n        /* \"#utility.yul\":1619:1625   */\n      dup4\n        /* \"#utility.yul\":1615:1632   */\n      add\n        /* \"#utility.yul\":1603:1632   */\n      swap2\n      pop\n        /* \"#utility.yul\":1681:1684   */\n      dup4\n        /* \"#utility.yul\":1673:1677   */\n      0x01\n        /* \"#utility.yul\":1665:1671   */\n      dup3\n        /* \"#utility.yul\":1661:1678   */\n      mul\n        /* \"#utility.yul\":1651:1659   */\n      dup4\n        /* \"#utility.yul\":1647:1679   */\n      add\n        /* \"#utility.yul\":1644:1685   */\n      gt\n        /* \"#utility.yul\":1641:1769   */\n      iszero\n      tag_86\n      jumpi\n        /* \"#utility.yul\":1688:1767   */\n      tag_87\n      tag_49\n      jump\t// in\n    tag_87:\n        /* \"#utility.yul\":1641:1769   */\n    tag_86:\n        /* \"#utility.yul\":1223:1775   */\n      swap3\n      pop\n      swap3\n      swap1\n      pop\n      jump\t// out\n        /* \"#utility.yul\":1781:2453   */\n    tag_10:\n        /* \"#utility.yul\":1860:1866   */\n      0x00\n        /* \"#utility.yul\":1868:1874   */\n      0x00\n        /* \"#utility.yul\":1876:1882   */\n      0x00\n        /* \"#utility.yul\":1925:1927   */\n      0x40\n        /* \"#utility.yul\":1913:1922   */\n      dup5\n        /* \"#utility.yul\":1904:1911   */\n      dup7\n        /* \"#utility.yul\":1900:1923   */\n      sub\n        /* \"#utility.yul\":1896:1928   */\n      slt\n        /* \"#utility.yul\":1893:2012   */\n      iszero\n      tag_89\n      jumpi\n        /* \"#utility.yul\":1931:2010   */\n      tag_90\n      tag_41\n      jump\t// in\n    tag_90:\n        /* \"#utility.yul\":1893:2012   */\n    tag_89:\n        /* \"#utility.yul\":2051:2052   */\n      0x00\n        /* \"#utility.yul\":2076:2129   */\n      tag_91\n        /* \"#utility.yul\":2121:2128   */\n      dup7\n        /* \"#utility.yul\":2112:2118   */\n      dup3\n        /* \"#utility.yul\":2101:2110   */\n      dup8\n        /* \"#utility.yul\":2097:2119   */\n      add\n        /* \"#utility.yul\":2076:2129   */\n      tag_46\n      jump\t// in\n    tag_91:\n        /* \"#utility.yul\":2066:2129   */\n      swap4\n      pop\n        /* \"#utility.yul\":2022:2139   */\n      pop\n        /* \"#utility.yul\":2206:2208   */\n      0x20\n        /* \"#utility.yul\":2195:2204   */\n      dup5\n        /* \"#utility.yul\":2191:2209   */\n      add\n        /* \"#utility.yul\":2178:2210   */\n      calldataload\n        /* \"#utility.yul\":2237:2255   */\n      0xffffffffffffffff\n        /* \"#utility.yul\":2229:2235   */\n      dup2\n        /* \"#utility.yul\":2226:2256   */\n      gt\n        /* \"#utility.yul\":2223:2340   */\n      iszero\n      tag_92\n      jumpi\n        /* \"#utility.yul\":2259:2338   */\n      tag_93\n      tag_42\n      jump\t// in\n    tag_93:\n        /* \"#utility.yul\":2223:2340   */\n    tag_92:\n        /* \"#utility.yul\":2372:2436   */\n      tag_94\n        /* \"#utility.yul\":2428:2435   */\n      dup7\n        /* \"#utility.yul\":2419:2425   */\n      dup3\n        /* \"#utility.yul\":2408:2417   */\n      dup8\n        /* \"#utility.yul\":2404:2426   */\n      add\n        /* \"#utility.yul\":2372:2436   */\n      tag_50\n      jump\t// in\n    tag_94:\n        /* \"#utility.yul\":2354:2436   */\n      swap3\n      pop\n      swap3\n      pop\n        /* \"#utility.yul\":2149:2446   */\n      pop\n        /* \"#utility.yul\":1781:2453   */\n      swap3\n      pop\n      swap3\n      pop\n      swap3\n      jump\t// out\n        /* \"#utility.yul\":2459:2536   */\n    tag_51:\n        /* \"#utility.yul\":2496:2503   */\n      0x00\n        /* \"#utility.yul\":2525:2530   */\n      dup2\n        /* \"#utility.yul\":2514:2530   */\n      swap1\n      pop\n        /* \"#utility.yul\":2459:2536   */\n      swap2\n      swap1\n      pop\n      jump\t// out\n        /* \"#utility.yul\":2542:2664   */\n    tag_52:\n        /* \"#utility.yul\":2615:2639   */\n      tag_97\n        /* \"#utility.yul\":2633:2638   */\n      dup2\n        /* \"#utility.yul\":2615:2639   */\n      tag_51\n      jump\t// in\n    tag_97:\n        /* \"#utility.yul\":2608:2613   */\n      dup2\n        /* \"#utility.yul\":2605:2640   */\n      eq\n        /* \"#utility.yul\":2595:2658   */\n      tag_98\n      jumpi\n        /* \"#utility.yul\":2654:2655   */\n      0x00\n        /* \"#utility.yul\":2651:2652   */\n      0x00\n        /* \"#utility.yul\":2644:2656   */\n      revert\n        /* \"#utility.yul\":2595:2658   */\n    tag_98:\n        /* \"#utility.yul\":2542:2664   */\n      pop\n      jump\t// out\n        /* \"#utility.yul\":2670:2809   */\n    tag_53:\n        /* \"#utility.yul\":2716:2721   */\n      0x00\n        /* \"#utility.yul\":2754:2760   */\n      dup2\n        /* \"#utility.yul\":2741:2761   */\n      calldataload\n        /* \"#utility.yul\":2732:2761   */\n      swap1\n      pop\n        /* \"#utility.yul\":2770:2803   */\n      tag_100\n        /* \"#utility.yul\":2797:2802   */\n      dup2\n        /* \"#utility.yul\":2770:2803   */\n      tag_52\n      jump\t// in\n    tag_100:\n        /* \"#utility.yul\":2670:2809   */\n      swap3\n      swap2\n      pop\n      pop\n      jump\t// out\n        /* \"#utility.yul\":2815:3144   */\n    tag_14:\n        /* \"#utility.yul\":2874:2880   */\n      0x00\n        /* \"#utility.yul\":2923:2925   */\n      0x20\n        /* \"#utility.yul\":2911:2920   */\n      dup3\n        /* \"#utility.yul\":2902:2909   */\n      dup5\n        /* \"#utility.yul\":2898:2921   */\n      sub\n        /* \"#utility.yul\":2894:2926   */\n      slt\n        /* \"#utility.yul\":2891:3010   */\n      iszero\n      tag_102\n      jumpi\n        /* \"#utility.yul\":2929:3008   */\n      tag_103\n      tag_41\n      jump\t// in\n    tag_103:\n        /* \"#utility.yul\":2891:3010   */\n    tag_102:\n        /* \"#utility.yul\":3049:3050   */\n      0x00\n        /* \"#utility.yul\":3074:3127   */\n      tag_104\n        /* \"#utility.yul\":3119:3126   */\n      dup5\n        /* \"#utility.yul\":3110:3116   */\n      dup3\n        /* \"#utility.yul\":3099:3108   */\n      dup6\n        /* \"#utility.yul\":3095:3117   */\n      add\n        /* \"#utility.yul\":3074:3127   */\n      tag_53\n      jump\t// in\n    tag_104:\n        /* \"#utility.yul\":3064:3127   */\n      swap2\n      pop\n        /* \"#utility.yul\":3020:3137   */\n      pop\n        /* \"#utility.yul\":2815:3144   */\n      swap3\n      swap2\n      pop\n      pop\n      jump\t// out\n        /* \"#utility.yul\":3150:3268   */\n    tag_54:\n        /* \"#utility.yul\":3237:3261   */\n      tag_106\n        /* \"#utility.yul\":3255:3260   */\n      dup2\n        /* \"#utility.yul\":3237:3261   */\n      tag_51\n      jump\t// in\n    tag_106:\n        /* \"#utility.yul\":3232:3235   */\n      dup3\n        /* \"#utility.yul\":3225:3262   */\n      mstore\n        /* \"#utility.yul\":3150:3268   */\n      pop\n      pop\n      jump\t// out\n        /* \"#utility.yul\":3274:3496   */\n    tag_19:\n        /* \"#utility.yul\":3367:3371   */\n      0x00\n        /* \"#utility.yul\":3405:3407   */\n      0x20\n        /* \"#utility.yul\":3394:3403   */\n      dup3\n        /* \"#utility.yul\":3390:3408   */\n      add\n        /* \"#utility.yul\":3382:3408   */\n      swap1\n      pop\n        /* \"#utility.yul\":3418:3489   */\n      tag_108\n        /* \"#utility.yul\":3486:3487   */\n      0x00\n        /* \"#utility.yul\":3475:3484   */\n      dup4\n        /* \"#utility.yul\":3471:3488   */\n      add\n        /* \"#utility.yul\":3462:3468   */\n      dup5\n        /* \"#utility.yul\":3418:3489   */\n      tag_54\n      jump\t// in\n    tag_108:\n        /* \"#utility.yul\":3274:3496   */\n      swap3\n      swap2\n      pop\n      pop\n      jump\t// out\n        /* \"#utility.yul\":3502:3620   */\n    tag_55:\n        /* \"#utility.yul\":3589:3613   */\n      tag_110\n        /* \"#utility.yul\":3607:3612   */\n      dup2\n        /* \"#utility.yul\":3589:3613   */\n      tag_44\n      jump\t// in\n    tag_110:\n        /* \"#utility.yul\":3584:3587   */\n      dup3\n        /* \"#utility.yul\":3577:3614   */\n      mstore\n        /* \"#utility.yul\":3502:3620   */\n      pop\n      pop\n      jump\t// out\n        /* \"#utility.yul\":3626:4290   */\n    tag_23:\n        /* \"#utility.yul\":3831:3835   */\n      0x00\n        /* \"#utility.yul\":3869:3872   */\n      0xa0\n        /* \"#utility.yul\":3858:3867   */\n      dup3\n        /* \"#utility.yul\":3854:3873   */\n      add\n        /* \"#utility.yul\":3846:3873   */\n      swap1\n      pop\n        /* \"#utility.yul\":3883:3954   */\n      tag_112\n        /* \"#utility.yul\":3951:3952   */\n      0x00\n        /* \"#utility.yul\":3940:3949   */\n      dup4\n        /* \"#utility.yul\":3936:3953   */\n      add\n        /* \"#utility.yul\":3927:3933   */\n      dup9\n        /* \"#utility.yul\":3883:3954   */\n      tag_55\n      jump\t// in\n    tag_112:\n        /* \"#utility.yul\":3964:4036   */\n      tag_113\n        /* \"#utility.yul\":4032:4034   */\n      0x20\n        /* \"#utility.yul\":4021:4030   */\n      dup4\n        /* \"#utility.yul\":4017:4035   */\n      add\n        /* \"#utility.yul\":4008:4014   */\n      dup8\n        /* \"#utility.yul\":3964:4036   */\n      tag_54\n      jump\t// in\n    tag_113:\n        /* \"#utility.yul\":4046:4118   */\n      tag_114\n        /* \"#utility.yul\":4114:4116   */\n      0x40\n        /* \"#utility.yul\":4103:4112   */\n      dup4\n        /* \"#utility.yul\":4099:4117   */\n      add\n        /* \"#utility.yul\":4090:4096   */\n      dup7\n        /* \"#utility.yul\":4046:4118   */\n      tag_54\n      jump\t// in\n    tag_114:\n        /* \"#utility.yul\":4128:4200   */\n      tag_115\n        /* \"#utility.yul\":4196:4198   */\n      0x60\n        /* \"#utility.yul\":4185:4194   */\n      dup4\n        /* \"#utility.yul\":4181:4199   */\n      add\n        /* \"#utility.yul\":4172:4178   */\n      dup6\n        /* \"#utility.yul\":4128:4200   */\n      tag_54\n      jump\t// in\n    tag_115:\n        /* \"#utility.yul\":4210:4283   */\n      tag_116\n        /* \"#utility.yul\":4278:4281   */\n      0x80\n        /* \"#utility.yul\":4267:4276   */\n      dup4\n        /* \"#utility.yul\":4263:4282   */\n      add\n        /* \"#utility.yul\":4254:4260   */\n      dup5\n        /* \"#utility.yul\":4210:4283   */\n      tag_54\n      jump\t// in\n    tag_116:\n        /* \"#utility.yul\":3626:4290   */\n      swap7\n      swap6\n      pop\n      pop\n      pop\n      pop\n      pop\n      pop\n      jump\t// out\n        /* \"#utility.yul\":4296:4443   */\n    tag_56:\n        /* \"#utility.yul\":4397:4408   */\n      0x00\n        /* \"#utility.yul\":4434:4437   */\n      dup2\n        /* \"#utility.yul\":4419:4437   */\n      swap1\n      pop\n        /* \"#utility.yul\":4296:4443   */\n      swap3\n      swap2\n      pop\n      pop\n      jump\t// out\n        /* \"#utility.yul\":4449:4597   */\n    tag_57:\n        /* \"#utility.yul\":4547:4553   */\n      dup3\n        /* \"#utility.yul\":4542:4545   */\n      dup2\n        /* \"#utility.yul\":4537:4540   */\n      dup4\n        /* \"#utility.yul\":4524:4554   */\n      calldatacopy\n        /* \"#utility.yul\":4588:4589   */\n      0x00\n        /* \"#utility.yul\":4579:4585   */\n      dup4\n        /* \"#utility.yul\":4574:4577   */\n      dup4\n        /* \"#utility.yul\":4570:4586   */\n      add\n        /* \"#utility.yul\":4563:4590   */\n      mstore\n        /* \"#utility.yul\":4449:4597   */\n      pop\n      pop\n      pop\n      jump\t// out\n        /* \"#utility.yul\":4625:4952   */\n    tag_58:\n        /* \"#utility.yul\":4739:4742   */\n      0x00\n        /* \"#utility.yul\":4760:4848   */\n      tag_120\n        /* \"#utility.yul\":4841:4847   */\n      dup4\n        /* \"#utility.yul\":4836:4839   */\n      dup6\n        /* \"#utility.yul\":4760:4848   */\n      tag_56\n      jump\t// in\n    tag_120:\n        /* \"#utility.yul\":4753:4848   */\n      swap4\n      pop\n        /* \"#utility.yul\":4858:4914   */\n      tag_121\n        /* \"#utility.yul\":4907:4913   */\n      dup4\n        /* \"#utility.yul\":4902:4905   */\n      dup6\n        /* \"#utility.yul\":4895:4900   */\n      dup5\n        /* \"#utility.yul\":4858:4914   */\n      tag_57\n      jump\t// in\n    tag_121:\n        /* \"#utility.yul\":4939:4945   */\n      dup3\n        /* \"#utility.yul\":4934:4937   */\n      dup5\n        /* \"#utility.yul\":4930:4946   */\n      add\n        /* \"#utility.yul\":4923:4946   */\n      swap1\n      pop\n        /* \"#utility.yul\":4625:4952   */\n      swap4\n      swap3\n      pop\n      pop\n      pop\n      jump\t// out\n        /* \"#utility.yul\":4958:5249   */\n    tag_28:\n        /* \"#utility.yul\":5098:5101   */\n      0x00\n        /* \"#utility.yul\":5120:5223   */\n      tag_123\n        /* \"#utility.yul\":5219:5222   */\n      dup3\n        /* \"#utility.yul\":5210:5216   */\n      dup5\n        /* \"#utility.yul\":5202:5208   */\n      dup7\n        /* \"#utility.yul\":5120:5223   */\n      tag_58\n      jump\t// in\n    tag_123:\n        /* \"#utility.yul\":5113:5223   */\n      swap2\n      pop\n        /* \"#utility.yul\":5240:5243   */\n      dup2\n        /* \"#utility.yul\":5233:5243   */\n      swap1\n      pop\n        /* \"#utility.yul\":4958:5249   */\n      swap4\n      swap3\n      pop\n      pop\n      pop\n      jump\t// out\n        /* \"#utility.yul\":5255:5345   */\n    tag_59:\n        /* \"#utility.yul\":5289:5296   */\n      0x00\n        /* \"#utility.yul\":5332:5337   */\n      dup2\n        /* \"#utility.yul\":5325:5338   */\n      iszero\n        /* \"#utility.yul\":5318:5339   */\n      iszero\n        /* \"#utility.yul\":5307:5339   */\n      swap1\n      pop\n        /* \"#utility.yul\":5255:5345   */\n      swap2\n      swap1\n      pop\n      jump\t// out\n        /* \"#utility.yul\":5351:5460   */\n    tag_60:\n        /* \"#utility.yul\":5432:5453   */\n      tag_126\n        /* \"#utility.yul\":5447:5452   */\n      dup2\n        /* \"#utility.yul\":5432:5453   */\n      tag_59\n      jump\t// in\n    tag_126:\n        /* \"#utility.yul\":5427:5430   */\n      dup3\n        /* \"#utility.yul\":5420:5454   */\n      mstore\n        /* \"#utility.yul\":5351:5460   */\n      pop\n      pop\n      jump\t// out\n        /* \"#utility.yul\":5466:5564   */\n    tag_61:\n        /* \"#utility.yul\":5517:5523   */\n      0x00\n        /* \"#utility.yul\":5551:5556   */\n      dup2\n        /* \"#utility.yul\":5545:5557   */\n      mload\n        /* \"#utility.yul\":5535:5557   */\n      swap1\n      pop\n        /* \"#utility.yul\":5466:5564   */\n      swap2\n      swap1\n      pop\n      jump\t// out\n        /* \"#utility.yul\":5570:5738   */\n    tag_62:\n        /* \"#utility.yul\":5653:5664   */\n      0x00\n        /* \"#utility.yul\":5687:5693   */\n      dup3\n        /* \"#utility.yul\":5682:5685   */\n      dup3\n        /* \"#utility.yul\":5675:5694   */\n      mstore\n        /* \"#utility.yul\":5727:5731   */\n      0x20\n        /* \"#utility.yul\":5722:5725   */\n      dup3\n        /* \"#utility.yul\":5718:5732   */\n      add\n        /* \"#utility.yul\":5703:5732   */\n      swap1\n      pop\n        /* \"#utility.yul\":5570:5738   */\n      swap3\n      swap2\n      pop\n      pop\n      jump\t// out\n        /* \"#utility.yul\":5744:5883   */\n    tag_63:\n        /* \"#utility.yul\":5833:5839   */\n      dup3\n        /* \"#utility.yul\":5828:5831   */\n      dup2\n        /* \"#utility.yul\":5823:5826   */\n      dup4\n        /* \"#utility.yul\":5817:5840   */\n      mcopy\n        /* \"#utility.yul\":5874:5875   */\n      0x00\n        /* \"#utility.yul\":5865:5871   */\n      dup4\n        /* \"#utility.yul\":5860:5863   */\n      dup4\n        /* \"#utility.yul\":5856:5872   */\n      add\n        /* \"#utility.yul\":5849:5876   */\n      mstore\n        /* \"#utility.yul\":5744:5883   */\n      pop\n      pop\n      pop\n      jump\t// out\n        /* \"#utility.yul\":5889:5991   */\n    tag_64:\n        /* \"#utility.yul\":5930:5936   */\n      0x00\n        /* \"#utility.yul\":5981:5983   */\n      0x1f\n        /* \"#utility.yul\":5977:5984   */\n      not\n        /* \"#utility.yul\":5972:5974   */\n      0x1f\n        /* \"#utility.yul\":5965:5970   */\n      dup4\n        /* \"#utility.yul\":5961:5975   */\n      add\n        /* \"#utility.yul\":5957:5985   */\n      and\n        /* \"#utility.yul\":5947:5985   */\n      swap1\n      pop\n        /* \"#utility.yul\":5889:5991   */\n      swap2\n      swap1\n      pop\n      jump\t// out\n        /* \"#utility.yul\":5997:6370   */\n    tag_65:\n        /* \"#utility.yul\":6083:6086   */\n      0x00\n        /* \"#utility.yul\":6111:6149   */\n      tag_132\n        /* \"#utility.yul\":6143:6148   */\n      dup3\n        /* \"#utility.yul\":6111:6149   */\n      tag_61\n      jump\t// in\n    tag_132:\n        /* \"#utility.yul\":6165:6235   */\n      tag_133\n        /* \"#utility.yul\":6228:6234   */\n      dup2\n        /* \"#utility.yul\":6223:6226   */\n      dup6\n        /* \"#utility.yul\":6165:6235   */\n      tag_62\n      jump\t// in\n    tag_133:\n        /* \"#utility.yul\":6158:6235   */\n      swap4\n      pop\n        /* \"#utility.yul\":6244:6309   */\n      tag_134\n        /* \"#utility.yul\":6302:6308   */\n      dup2\n        /* \"#utility.yul\":6297:6300   */\n      dup6\n        /* \"#utility.yul\":6290:6294   */\n      0x20\n        /* \"#utility.yul\":6283:6288   */\n      dup7\n        /* \"#utility.yul\":6279:6295   */\n      add\n        /* \"#utility.yul\":6244:6309   */\n      tag_63\n      jump\t// in\n    tag_134:\n        /* \"#utility.yul\":6334:6363   */\n      tag_135\n        /* \"#utility.yul\":6356:6362   */\n      dup2\n        /* \"#utility.yul\":6334:6363   */\n      tag_64\n      jump\t// in\n    tag_135:\n        /* \"#utility.yul\":6329:6332   */\n      dup5\n        /* \"#utility.yul\":6325:6364   */\n      add\n        /* \"#utility.yul\":6318:6364   */\n      swap2\n      pop\n        /* \"#utility.yul\":6087:6370   */\n      pop\n        /* \"#utility.yul\":5997:6370   */\n      swap3\n      swap2\n      pop\n      pop\n      jump\t// out\n        /* \"#utility.yul\":6376:6783   */\n    tag_33:\n        /* \"#utility.yul\":6509:6513   */\n      0x00\n        /* \"#utility.yul\":6547:6549   */\n      0x40\n        /* \"#utility.yul\":6536:6545   */\n      dup3\n        /* \"#utility.yul\":6532:6550   */\n      add\n        /* \"#utility.yul\":6524:6550   */\n      swap1\n      pop\n        /* \"#utility.yul\":6560:6625   */\n      tag_137\n        /* \"#utility.yul\":6622:6623   */\n      0x00\n        /* \"#utility.yul\":6611:6620   */\n      dup4\n        /* \"#utility.yul\":6607:6624   */\n      add\n        /* \"#utility.yul\":6598:6604   */\n      dup6\n        /* \"#utility.yul\":6560:6625   */\n      tag_60\n      jump\t// in\n    tag_137:\n        /* \"#utility.yul\":6672:6681   */\n      dup2\n        /* \"#utility.yul\":6666:6670   */\n      dup2\n        /* \"#utility.yul\":6662:6682   */\n      sub\n        /* \"#utility.yul\":6657:6659   */\n      0x20\n        /* \"#utility.yul\":6646:6655   */\n      dup4\n        /* \"#utility.yul\":6642:6660   */\n      add\n        /* \"#utility.yul\":6635:6683   */\n      mstore\n        /* \"#utility.yul\":6700:6776   */\n      tag_138\n        /* \"#utility.yul\":6771:6775   */\n      dup2\n        /* \"#utility.yul\":6762:6768   */\n      dup5\n        /* \"#utility.yul\":6700:6776   */\n      tag_65\n      jump\t// in\n    tag_138:\n        /* \"#utility.yul\":6692:6776   */\n      swap1\n      pop\n        /* \"#utility.yul\":6376:6783   */\n      swap4\n      swap3\n      pop\n      pop\n      pop\n      jump\t// out\n\n    auxdata: 0xa2646970667358221220b8dbf4d7d5e35a14d6e78f3002666cecc4856c68908ea5b7eaaf3909988b0a5e64736f6c634300081d0033\n}\n",
				"bytecode": {
					"linkReferences": {},
					"object": "6080604052348015600e575f5ffd5b5061056d8061001c5f395ff3fe608060405234801561000f575f5ffd5b5060043610610055575f3560e01c806309acaa96146100595780637cece94114610075578063ea94363614610091578063ec38ba34146100af578063eca7ed0a146100d1575b5f5ffd5b610073600480360381019061006e91906102e8565b6100db565b005b61008f600480360381019061008a9190610378565b610187565b005b6100996101c4565b6040516100a691906103b2565b60405180910390f35b6100b76101cc565b6040516100c89594939291906103da565b60405180910390f35b6100d96101e7565b005b5f5f8473ffffffffffffffffffffffffffffffffffffffff168484604051610104929190610467565b5f604051808303815f865af19150503d805f811461013d576040519150601f19603f3d011682016040523d82523d5f602084013e610142565b606091505b50915091507fbe75f45a4e0c5d9802fa6306ca6604bbe2218a751f2aaa1d6447e1757e91c7598282604051610178929190610509565b60405180910390a15050505050565b805f557f230b0cf23584327747691e0465bc1bd33ab3d5aefe116de0c3df2ca81cb14a13816040516101b991906103b2565b60405180910390a150565b5f5f54905090565b5f5f5f5f5f3394504593504392504291504690509091929394565b5f5a90507fd6dca172e276f53402f777ced9d49668ea6fb3e2c3f241df4bc1ff2370ffb2e58160405161021a91906103b2565b60405180910390a150565b5f5ffd5b5f5ffd5b5f73ffffffffffffffffffffffffffffffffffffffff82169050919050565b5f6102568261022d565b9050919050565b6102668161024c565b8114610270575f5ffd5b50565b5f813590506102818161025d565b92915050565b5f5ffd5b5f5ffd5b5f5ffd5b5f5f83601f8401126102a8576102a7610287565b5b8235905067ffffffffffffffff8111156102c5576102c461028b565b5b6020830191508360018202830111156102e1576102e061028f565b5b9250929050565b5f5f5f604084860312156102ff576102fe610225565b5b5f61030c86828701610273565b935050602084013567ffffffffffffffff81111561032d5761032c610229565b5b61033986828701610293565b92509250509250925092565b5f819050919050565b61035781610345565b8114610361575f5ffd5b50565b5f813590506103728161034e565b92915050565b5f6020828403121561038d5761038c610225565b5b5f61039a84828501610364565b91505092915050565b6103ac81610345565b82525050565b5f6020820190506103c55f8301846103a3565b92915050565b6103d48161024c565b82525050565b5f60a0820190506103ed5f8301886103cb565b6103fa60208301876103a3565b61040760408301866103a3565b61041460608301856103a3565b61042160808301846103a3565b9695505050505050565b5f81905092915050565b828183375f83830152505050565b5f61044e838561042b565b935061045b838584610435565b82840190509392505050565b5f610473828486610443565b91508190509392505050565b5f8115159050919050565b6104938161047f565b82525050565b5f81519050919050565b5f82825260208201905092915050565b8281835e5f83830152505050565b5f601f19601f8301169050919050565b5f6104db82610499565b6104e581856104a3565b93506104f58185602086016104b3565b6104fe816104c1565b840191505092915050565b5f60408201905061051c5f83018561048a565b818103602083015261052e81846104d1565b9050939250505056fea2646970667358221220b8dbf4d7d5e35a14d6e78f3002666cecc4856c68908ea5b7eaaf3909988b0a5e64736f6c634300081d0033",
					"opcodes": "PUSH1 0x80 PUSH1 0x40 MSTORE CALLVALUE DUP1 ISZERO PUSH1 0xE JUMPI PUSH0 PUSH0 REVERT JUMPDEST POP PUSH2 0x56D DUP1 PUSH2 0x1C PUSH0 CODECOPY PUSH0 RETURN INVALID PUSH1 0x80 PUSH1 0x40 MSTORE CALLVALUE DUP1 ISZERO PUSH2 0xF JUMPI PUSH0 PUSH0 REVERT JUMPDEST POP PUSH1 0x4 CALLDATASIZE LT PUSH2 0x55 JUMPI PUSH0 CALLDATALOAD PUSH1 0xE0 SHR DUP1 PUSH4 0x9ACAA96 EQ PUSH2 0x59 JUMPI DUP1 PUSH4 0x7CECE941 EQ PUSH2 0x75 JUMPI DUP1 PUSH4 0xEA943636 EQ PUSH2 0x91 JUMPI DUP1 PUSH4 0xEC38BA34 EQ PUSH2 0xAF JUMPI DUP1 PUSH4 0xECA7ED0A EQ PUSH2 0xD1 JUMPI JUMPDEST PUSH0 PUSH0 REVERT JUMPDEST PUSH2 0x73 PUSH1 0x4 DUP1 CALLDATASIZE SUB DUP2 ADD SWAP1 PUSH2 0x6E SWAP2 SWAP1 PUSH2 0x2E8 JUMP JUMPDEST PUSH2 0xDB JUMP JUMPDEST STOP JUMPDEST PUSH2 0x8F PUSH1 0x4 DUP1 CALLDATASIZE SUB DUP2 ADD SWAP1 PUSH2 0x8A SWAP2 SWAP1 PUSH2 0x378 JUMP JUMPDEST PUSH2 0x187 JUMP JUMPDEST STOP JUMPDEST PUSH2 0x99 PUSH2 0x1C4 JUMP JUMPDEST PUSH1 0x40 MLOAD PUSH2 0xA6 SWAP2 SWAP1 PUSH2 0x3B2 JUMP JUMPDEST PUSH1 0x40 MLOAD DUP1 SWAP2 SUB SWAP1 RETURN JUMPDEST PUSH2 0xB7 PUSH2 0x1CC JUMP JUMPDEST PUSH1 0x40 MLOAD PUSH2 0xC8 SWAP6 SWAP5 SWAP4 SWAP3 SWAP2 SWAP1 PUSH2 0x3DA JUMP JUMPDEST PUSH1 0x40 MLOAD DUP1 SWAP2 SUB SWAP1 RETURN JUMPDEST PUSH2 0xD9 PUSH2 0x1E7 JUMP JUMPDEST STOP JUMPDEST PUSH0 PUSH0 DUP5 PUSH20 0xFFFFFFFFFFFFFFFFFFFFFFFFFFFFFFFFFFFFFFFF AND DUP5 DUP5 PUSH1 0x40 MLOAD PUSH2 0x104 SWAP3 SWAP2 SWAP1 PUSH2 0x467 JUMP JUMPDEST PUSH0 PUSH1 0x40 MLOAD DUP1 DUP4 SUB DUP2 PUSH0 DUP7 GAS CALL SWAP2 POP POP RETURNDATASIZE DUP1 PUSH0 DUP2 EQ PUSH2 0x13D JUMPI PUSH1 0x40 MLOAD SWAP2 POP PUSH1 0x1F NOT PUSH1 0x3F RETURNDATASIZE ADD AND DUP3 ADD PUSH1 0x40 MSTORE RETURNDATASIZE DUP3 MSTORE RETURNDATASIZE PUSH0 PUSH1 0x20 DUP5 ADD RETURNDATACOPY PUSH2 0x142 JUMP JUMPDEST PUSH1 0x60 SWAP2 POP JUMPDEST POP SWAP2 POP SWAP2 POP PUSH32 0xBE75F45A4E0C5D9802FA6306CA6604BBE2218A751F2AAA1D6447E1757E91C759 DUP3 DUP3 PUSH1 0x40 MLOAD PUSH2 0x178 SWAP3 SWAP2 SWAP1 PUSH2 0x509 JUMP JUMPDEST PUSH1 0x40 MLOAD DUP1 SWAP2 SUB SWAP1 LOG1 POP POP POP POP POP JUMP JUMPDEST DUP1 PUSH0 SSTORE PUSH32 0x230B0CF23584327747691E0465BC1BD33AB3D5AEFE116DE0C3DF2CA81CB14A13 DUP2 PUSH1 0x40 MLOAD PUSH2 0x1B9 SWAP2 SWAP1 PUSH2 0x3B2 JUMP JUMPDEST PUSH1 0x40 MLOAD DUP1 SWAP2 SUB SWAP1 LOG1 POP JUMP JUMPDEST PUSH0 PUSH0 SLOAD SWAP1 POP SWAP1 JUMP JUMPDEST PUSH0 PUSH0 PUSH0 PUSH0 PUSH0 CALLER SWAP5 POP GASLIMIT SWAP4 POP NUMBER SWAP3 POP TIMESTAMP SWAP2 POP CHAINID SWAP1 POP SWAP1 SWAP2 SWAP3 SWAP4 SWAP5 JUMP JUMPDEST PUSH0 GAS SWAP1 POP PUSH32 0xD6DCA172E276F53402F777CED9D49668EA6FB3E2C3F241DF4BC1FF2370FFB2E5 DUP2 PUSH1 0x40 MLOAD PUSH2 0x21A SWAP2 SWAP1 PUSH2 0x3B2 JUMP JUMPDEST PUSH1 0x40 MLOAD DUP1 SWAP2 SUB SWAP1 LOG1 POP JUMP JUMPDEST PUSH0 PUSH0 REVERT JUMPDEST PUSH0 PUSH0 REVERT JUMPDEST PUSH0 PUSH20 0xFFFFFFFFFFFFFFFFFFFFFFFFFFFFFFFFFFFFFFFF DUP3 AND SWAP1 POP SWAP2 SWAP1 POP JUMP JUMPDEST PUSH0 PUSH2 0x256 DUP3 PUSH2 0x22D JUMP JUMPDEST SWAP1 POP SWAP2 SWAP1 POP JUMP JUMPDEST PUSH2 0x266 DUP2 PUSH2 0x24C JUMP JUMPDEST DUP2 EQ PUSH2 0x270 JUMPI PUSH0 PUSH0 REVERT JUMPDEST POP JUMP JUMPDEST PUSH0 DUP2 CALLDATALOAD SWAP1 POP PUSH2 0x281 DUP2 PUSH2 0x25D JUMP JUMPDEST SWAP3 SWAP2 POP POP JUMP JUMPDEST PUSH0 PUSH0 REVERT JUMPDEST PUSH0 PUSH0 REVERT JUMPDEST PUSH0 PUSH0 REVERT JUMPDEST PUSH0 PUSH0 DUP4 PUSH1 0x1F DUP5 ADD SLT PUSH2 0x2A8 JUMPI PUSH2 0x2A7 PUSH2 0x287 JUMP JUMPDEST JUMPDEST DUP3 CALLDATALOAD SWAP1 POP PUSH8 0xFFFFFFFFFFFFFFFF DUP2 GT ISZERO PUSH2 0x2C5 JUMPI PUSH2 0x2C4 PUSH2 0x28B JUMP JUMPDEST JUMPDEST PUSH1 0x20 DUP4 ADD SWAP2 POP DUP4 PUSH1 0x1 DUP3 MUL DUP4 ADD GT ISZERO PUSH2 0x2E1 JUMPI PUSH2 0x2E0 PUSH2 0x28F JUMP JUMPDEST JUMPDEST SWAP3 POP SWAP3 SWAP1 POP JUMP JUMPDEST PUSH0 PUSH0 PUSH0 PUSH1 0x40 DUP5 DUP7 SUB SLT ISZERO PUSH2 0x2FF JUMPI PUSH2 0x2FE PUSH2 0x225 JUMP JUMPDEST JUMPDEST PUSH0 PUSH2 0x30C DUP7 DUP3 DUP8 ADD PUSH2 0x273 JUMP JUMPDEST SWAP4 POP POP PUSH1 0x20 DUP5 ADD CALLDATALOAD PUSH8 0xFFFFFFFFFFFFFFFF DUP2 GT ISZERO PUSH2 0x32D JUMPI PUSH2 0x32C PUSH2 0x229 JUMP JUMPDEST JUMPDEST PUSH2 0x339 DUP7 DUP3 DUP8 ADD PUSH2 0x293 JUMP JUMPDEST SWAP3 POP SWAP3 POP POP SWAP3 POP SWAP3 POP SWAP3 JUMP JUMPDEST PUSH0 DUP2 SWAP1 POP SWAP2 SWAP1 POP JUMP JUMPDEST PUSH2 0x357 DUP2 PUSH2 0x345 JUMP JUMPDEST DUP2 EQ PUSH2 0x361 JUMPI PUSH0 PUSH0 REVERT JUMPDEST POP JUMP JUMPDEST PUSH0 DUP2 CALLDATALOAD SWAP1 POP PUSH2 0x372 DUP2 PUSH2 0x34E JUMP JUMPDEST SWAP3 SWAP2 POP POP JUMP JUMPDEST PUSH0 PUSH1 0x20 DUP3 DUP5 SUB SLT ISZERO PUSH2 0x38D JUMPI PUSH2 0x38C PUSH2 0x225 JUMP JUMPDEST JUMPDEST PUSH0 PUSH2 0x39A DUP5 DUP3 DUP6 ADD PUSH2 0x364 JUMP JUMPDEST SWAP2 POP POP SWAP3 SWAP2 POP POP JUMP JUMPDEST PUSH2 0x3AC DUP2 PUSH2 0x345 JUMP JUMPDEST DUP3 MSTORE POP POP JUMP JUMPDEST PUSH0 PUSH1 0x20 DUP3 ADD SWAP1 POP PUSH2 0x3C5 PUSH0 DUP4 ADD DUP5 PUSH2 0x3A3 JUMP JUMPDEST SWAP3 SWAP2 POP POP JUMP JUMPDEST PUSH2 0x3D4 DUP2 PUSH2 0x24C JUMP JUMPDEST DUP3 MSTORE POP POP JUMP JUMPDEST PUSH0 PUSH1 0xA0 DUP3 ADD SWAP1 POP PUSH2 0x3ED PUSH0 DUP4 ADD DUP9 PUSH2 0x3CB JUMP JUMPDEST PUSH2 0x3FA PUSH1 0x20 DUP4 ADD DUP8 PUSH2 0x3A3 JUMP JUMPDEST PUSH2 0x407 PUSH1 0x40 DUP4 ADD DUP7 PUSH2 0x3A3 JUMP JUMPDEST PUSH2 0x414 PUSH1 0x60 DUP4 ADD DUP6 PUSH2 0x3A3 JUMP JUMPDEST PUSH2 0x421 PUSH1 0x80 DUP4 ADD DUP5 PUSH2 0x3A3 JUMP JUMPDEST SWAP7 SWAP6 POP POP POP POP POP POP JUMP JUMPDEST PUSH0 DUP2 SWAP1 POP SWAP3 SWAP2 POP POP JUMP JUMPDEST DUP3 DUP2 DUP4 CALLDATACOPY PUSH0 DUP4 DUP4 ADD MSTORE POP POP POP JUMP JUMPDEST PUSH0 PUSH2 0x44E DUP4 DUP6 PUSH2 0x42B JUMP JUMPDEST SWAP4 POP PUSH2 0x45B DUP4 DUP6 DUP5 PUSH2 0x435 JUMP JUMPDEST DUP3 DUP5 ADD SWAP1 POP SWAP4 SWAP3 POP POP POP JUMP JUMPDEST PUSH0 PUSH2 0x473 DUP3 DUP5 DUP7 PUSH2 0x443 JUMP JUMPDEST SWAP2 POP DUP2 SWAP1 POP SWAP4 SWAP3 POP POP POP JUMP JUMPDEST PUSH0 DUP2 ISZERO ISZERO SWAP1 POP SWAP2 SWAP1 POP JUMP JUMPDEST PUSH2 0x493 DUP2 PUSH2 0x47F JUMP JUMPDEST DUP3 MSTORE POP POP JUMP JUMPDEST PUSH0 DUP2 MLOAD SWAP1 POP SWAP2 SWAP1 POP JUMP JUMPDEST PUSH0 DUP3 DUP3 MSTORE PUSH1 0x20 DUP3 ADD SWAP1 POP SWAP3 SWAP2 POP POP JUMP JUMPDEST DUP3 DUP2 DUP4 MCOPY PUSH0 DUP4 DUP4 ADD MSTORE POP POP POP JUMP JUMPDEST PUSH0 PUSH1 0x1F NOT PUSH1 0x1F DUP4 ADD AND SWAP1 POP SWAP2 SWAP1 POP JUMP JUMPDEST PUSH0 PUSH2 0x4DB DUP3 PUSH2 0x499 JUMP JUMPDEST PUSH2 0x4E5 DUP2 DUP6 PUSH2 0x4A3 JUMP JUMPDEST SWAP4 POP PUSH2 0x4F5 DUP2 DUP6 PUSH1 0x20 DUP7 ADD PUSH2 0x4B3 JUMP JUMPDEST PUSH2 0x4FE DUP2 PUSH2 0x4C1 JUMP JUMPDEST DUP5 ADD SWAP2 POP POP SWAP3 SWAP2 POP POP JUMP JUMPDEST PUSH0 PUSH1 0x40 DUP3 ADD SWAP1 POP PUSH2 0x51C PUSH0 DUP4 ADD DUP6 PUSH2 0x48A JUMP JUMPDEST DUP2 DUP2 SUB PUSH1 0x20 DUP4 ADD MSTORE PUSH2 0x52E DUP2 DUP5 PUSH2 0x4D1 JUMP JUMPDEST SWAP1 POP SWAP4 SWAP3 POP POP POP JUMP INVALID LOG2 PUSH5 0x6970667358 0x22 SLT KECCAK256 0xB8 0xDB DELEGATECALL 0xD7 0xD5 CALLF 0x5A14 0xD6 SWAPN 0x8F ADDRESS MUL PUSH7 0x6CECC4856C6890 DUP15 0xA5 0xB7 0xEA 0xAF CODECOPY MULMOD SWAP9 DUP12 EXP MCOPY PUSH5 0x736F6C6343 STOP ADDMOD SAR STOP CALLER "
				},
				"gasEstimates": {
					"creation": {
						"codeDepositCost": "277800",
						"executionCost": "316",
						"totalCost": "278116"
					},
					"external": {
						"checkGas()": "1408",
						"getEnv()": "infinite",
						"loadWithAssembly()": "2453",
						"rawCall(address,bytes)": "infinite",
						"storeWithAssembly(uint256)": "infinite"
					}
				},
				"methodIdentifiers": {
					"checkGas()": "eca7ed0a",
					"getEnv()": "ec38ba34",
					"loadWithAssembly()": "ea943636",
					"rawCall(address,bytes)": "09acaa96",
					"storeWithAssembly(uint256)": "7cece941"
				}
			},
			"storageLayout": {
				"storage": [
					{
						"astId": 3,
						"contract": "E/Ethereum virtual machine.sol:EthereumVirtualMachineDemo",
						"label": "storedValue",
						"offset": 0,
						"slot": "0",
						"type": "t_uint256"
					}
				],
				"types": {
					"t_uint256": {
						"encoding": "inplace",
						"label": "uint256",
						"numberOfBytes": "32"
					}
				}
			},
			"userdoc": {
				"kind": "user",
				"methods": {},
				"version": 1
			}
		}
	}
}