{
	"E/economicUtil.sol": {
		"EconomicUtility": {
			"abi": [
				{
					"inputs": [
						{
							"internalType": "address",
							"name": "_depositToken",
							"type": "address"
						},
						{
							"internalType": "uint256",
							"name": "initialMultiplier",
							"type": "uint256"
						}
					],
					"stateMutability": "nonpayable",
					"type": "constructor"
				},
				{
					"inputs": [
						{
							"internalType": "address",
							"name": "owner",
							"type": "address"
						}
					],
					"name": "OwnableInvalidOwner",
					"type": "error"
				},
				{
					"inputs": [
						{
							"internalType": "address",
							"name": "account",
							"type": "address"
						}
					],
					"name": "OwnableUnauthorizedAccount",
					"type": "error"
				},
				{
					"anonymous": false,
					"inputs": [
						{
							"indexed": true,
							"internalType": "address",
							"name": "user",
							"type": "address"
						},
						{
							"indexed": false,
							"internalType": "uint256",
							"name": "amount",
							"type": "uint256"
						}
					],
					"name": "Deposited",
					"type": "event"
				},
				{
					"anonymous": false,
					"inputs": [
						{
							"indexed": false,
							"internalType": "uint256",
							"name": "newMultiplier",
							"type": "uint256"
						}
					],
					"name": "MultiplierUpdated",
					"type": "event"
				},
				{
					"anonymous": false,
					"inputs": [
						{
							"indexed": true,
							"internalType": "address",
							"name": "previousOwner",
							"type": "address"
						},
						{
							"indexed": true,
							"internalType": "address",
							"name": "newOwner",
							"type": "address"
						}
					],
					"name": "OwnershipTransferred",
					"type": "event"
				},
				{
					"anonymous": false,
					"inputs": [
						{
							"indexed": true,
							"internalType": "address",
							"name": "user",
							"type": "address"
						},
						{
							"indexed": false,
							"internalType": "uint256",
							"name": "amount",
							"type": "uint256"
						}
					],
					"name": "Withdrawn",
					"type": "event"
				},
				{
					"inputs": [
						{
							"internalType": "uint256",
							"name": "amount",
							"type": "uint256"
						}
					],
					"name": "deposit",
					"outputs": [],
					"stateMutability": "nonpayable",
					"type": "function"
				},
				{
					"inputs": [],
					"name": "depositToken",
					"outputs": [
						{
							"internalType": "contract IERC20",
							"name": "",
							"type": "address"
						}
					],
					"stateMutability": "view",
					"type": "function"
				},
				{
					"inputs": [
						{
							"internalType": "address",
							"name": "",
							"type": "address"
						}
					],
					"name": "deposits",
					"outputs": [
						{
							"internalType": "uint256",
							"name": "",
							"type": "uint256"
						}
					],
					"stateMutability": "view",
					"type": "function"
				},
				{
					"inputs": [],
					"name": "multiplier",
					"outputs": [
						{
							"internalType": "uint256",
							"name": "",
							"type": "uint256"
						}
					],
					"stateMutability": "view",
					"type": "function"
				},
				{
					"inputs": [],
					"name": "owner",
					"outputs": [
						{
							"internalType": "address",
							"name": "",
							"type": "address"
						}
					],
					"stateMutability": "view",
					"type": "function"
				},
				{
					"inputs": [],
					"name": "renounceOwnership",
					"outputs": [],
					"stateMutability": "nonpayable",
					"type": "function"
				},
				{
					"inputs": [
						{
							"internalType": "address",
							"name": "newOwner",
							"type": "address"
						}
					],
					"name": "transferOwnership",
					"outputs": [],
					"stateMutability": "nonpayable",
					"type": "function"
				},
				{
					"inputs": [
						{
							"internalType": "uint256",
							"name": "newMultiplier",
							"type": "uint256"
						}
					],
					"name": "updateMultiplier",
					"outputs": [],
					"stateMutability": "nonpayable",
					"type": "function"
				},
				{
					"inputs": [
						{
							"internalType": "address",
							"name": "user",
							"type": "address"
						}
					],
					"name": "utilityOf",
					"outputs": [
						{
							"internalType": "uint256",
							"name": "",
							"type": "uint256"
						}
					],
					"stateMutability": "view",
					"type": "function"
				},
				{
					"inputs": [
						{
							"internalType": "uint256",
							"name": "amount",
							"type": "uint256"
						}
					],
					"name": "withdraw",
					"outputs": [],
					"stateMutability": "nonpayable",
					"type": "function"
				}
			],
			"devdoc": {
				"errors": {
					"OwnableInvalidOwner(address)": [
						{
							"details": "The owner is not a valid owner account. (eg. `address(0)`)"
						}
					],
					"OwnableUnauthorizedAccount(address)": [
						{
							"details": "The caller account is not authorized to perform an operation."
						}
					]
				},
				"kind": "dev",
				"methods": {
					"constructor": {
						"params": {
							"_depositToken": "The ERC20 token address to be used for deposits.",
							"initialMultiplier": "The initial multiplier for utility calculation."
						}
					},
					"deposit(uint256)": {
						"params": {
							"amount": "The number of tokens to deposit."
						}
					},
					"owner()": {
						"details": "Returns the address of the current owner."
					},
					"renounceOwnership()": {
						"details": "Leaves the contract without owner. It will not be possible to call `onlyOwner` functions. Can only be called by the current owner. NOTE: Renouncing ownership will leave the contract without an owner, thereby disabling any functionality that is only available to the owner."
					},
					"transferOwnership(address)": {
						"details": "Transfers ownership of the contract to a new account (`newOwner`). Can only be called by the current owner."
					},
					"updateMultiplier(uint256)": {
						"params": {
							"newMultiplier": "The new multiplier value."
						}
					},
					"utilityOf(address)": {
						"params": {
							"user": "The address of the user."
						},
						"returns": {
							"_0": "The utility score, calculated as deposits[user] * multiplier."
						}
					},
					"withdraw(uint256)": {
						"params": {
							"amount": "The number of tokens to withdraw."
						}
					}
				},
				"title": "EconomicUtility",
				"version": 1
			},
			"evm": {
				"assembly": "    /* \"E/economicUtil.sol\":535:3417  contract EconomicUtility is Ownable, ReentrancyGuard {... */\n  mstore(0x40, 0x80)\n    /* \"E/economicUtil.sol\":1298:1611  constructor(address _depositToken, uint256 initialMultiplier) Ownable(msg.sender) {... */\n  callvalue\n  dup1\n  iszero\n  tag_1\n  jumpi\n  0x00\n  dup1\n  revert\ntag_1:\n  pop\n  mload(0x40)\n  sub(codesize, bytecodeSize)\n  dup1\n  bytecodeSize\n  dup4\n  codecopy\n  dup2\n  dup2\n  add\n  0x40\n  mstore\n  dup2\n  add\n  swap1\n  tag_2\n  swap2\n  swap1\n  tag_3\n  jump\t// in\ntag_2:\n    /* \"E/economicUtil.sol\":1368:1378  msg.sender */\n  caller\n    /* \"@openzeppelin/contracts/access/Ownable.sol\":1297:1298  0 */\n  0x00\n    /* \"@openzeppelin/contracts/access/Ownable.sol\":1273:1299  initialOwner == address(0) */\n  0xffffffffffffffffffffffffffffffffffffffff\n  and\n    /* \"@openzeppelin/contracts/access/Ownable.sol\":1273:1285  initialOwner */\n  dup2\n    /* \"@openzeppelin/contracts/access/Ownable.sol\":1273:1299  initialOwner == address(0) */\n  0xffffffffffffffffffffffffffffffffffffffff\n  and\n  sub\n    /* \"@openzeppelin/contracts/access/Ownable.sol\":1269:1364  if (initialOwner == address(0)) {... */\n  tag_8\n  jumpi\n    /* \"@openzeppelin/contracts/access/Ownable.sol\":1350:1351  0 */\n  0x00\n    /* \"@openzeppelin/contracts/access/Ownable.sol\":1322:1353  OwnableInvalidOwner(address(0)) */\n  mload(0x40)\n  0x1e4fbdf700000000000000000000000000000000000000000000000000000000\n  dup2\n  mstore\n  0x04\n  add\n  tag_9\n  swap2\n  swap1\n  tag_10\n  jump\t// in\ntag_9:\n  mload(0x40)\n  dup1\n  swap2\n  sub\n  swap1\n  revert\n    /* \"@openzeppelin/contracts/access/Ownable.sol\":1269:1364  if (initialOwner == address(0)) {... */\ntag_8:\n    /* \"@openzeppelin/contracts/access/Ownable.sol\":1373:1405  _transferOwnership(initialOwner) */\n  tag_11\n    /* \"@openzeppelin/contracts/access/Ownable.sol\":1392:1404  initialOwner */\n  dup2\n    /* \"@openzeppelin/contracts/access/Ownable.sol\":1373:1391  _transferOwnership */\n  shl(0x20, tag_12)\n    /* \"@openzeppelin/contracts/access/Ownable.sol\":1373:1405  _transferOwnership(initialOwner) */\n  0x20\n  shr\n  jump\t// in\ntag_11:\n    /* \"@openzeppelin/contracts/access/Ownable.sol\":1225:1412  constructor(address initialOwner) {... */\n  pop\n    /* \"@openzeppelin/contracts/security/ReentrancyGuard.sol\":1716:1717  1 */\n  0x01\n    /* \"@openzeppelin/contracts/security/ReentrancyGuard.sol\":1821:1828  _status */\n  dup1\n    /* \"@openzeppelin/contracts/security/ReentrancyGuard.sol\":1821:1843  _status = _NOT_ENTERED */\n  dup2\n  swap1\n  sstore\n  pop\n    /* \"E/economicUtil.sol\":1423:1424  0 */\n  0x00\n    /* \"E/economicUtil.sol\":1398:1425  _depositToken != address(0) */\n  0xffffffffffffffffffffffffffffffffffffffff\n  and\n    /* \"E/economicUtil.sol\":1398:1411  _depositToken */\n  dup3\n    /* \"E/economicUtil.sol\":1398:1425  _depositToken != address(0) */\n  0xffffffffffffffffffffffffffffffffffffffff\n  and\n  sub\n    /* \"E/economicUtil.sol\":1390:1451  require(_depositToken != address(0), \"Invalid token address\") */\n  tag_15\n  jumpi\n  mload(0x40)\n  0x08c379a000000000000000000000000000000000000000000000000000000000\n  dup2\n  mstore\n  0x04\n  add\n  tag_16\n  swap1\n  tag_17\n  jump\t// in\ntag_16:\n  mload(0x40)\n  dup1\n  swap2\n  sub\n  swap1\n  revert\ntag_15:\n    /* \"E/economicUtil.sol\":1489:1490  0 */\n  0x00\n    /* \"E/economicUtil.sol\":1469:1486  initialMultiplier */\n  dup2\n    /* \"E/economicUtil.sol\":1469:1490  initialMultiplier > 0 */\n  gt\n    /* \"E/economicUtil.sol\":1461:1517  require(initialMultiplier > 0, \"Multiplier must be > 0\") */\n  tag_18\n  jumpi\n  mload(0x40)\n  0x08c379a000000000000000000000000000000000000000000000000000000000\n  dup2\n  mstore\n  0x04\n  add\n  tag_19\n  swap1\n  tag_20\n  jump\t// in\ntag_19:\n  mload(0x40)\n  dup1\n  swap2\n  sub\n  swap1\n  revert\ntag_18:\n    /* \"E/economicUtil.sol\":1550:1563  _depositToken */\n  dup2\n    /* \"E/economicUtil.sol\":1528:1540  depositToken */\n  0x02\n  0x00\n    /* \"E/economicUtil.sol\":1528:1564  depositToken = IERC20(_depositToken) */\n  0x0100\n  exp\n  dup2\n  sload\n  dup2\n  0xffffffffffffffffffffffffffffffffffffffff\n  mul\n  not\n  and\n  swap1\n  dup4\n  0xffffffffffffffffffffffffffffffffffffffff\n  and\n  mul\n  or\n  swap1\n  sstore\n  pop\n    /* \"E/economicUtil.sol\":1587:1604  initialMultiplier */\n  dup1\n    /* \"E/economicUtil.sol\":1574:1584  multiplier */\n  0x03\n    /* \"E/economicUtil.sol\":1574:1604  multiplier = initialMultiplier */\n  dup2\n  swap1\n  sstore\n  pop\n    /* \"E/economicUtil.sol\":1298:1611  constructor(address _depositToken, uint256 initialMultiplier) Ownable(msg.sender) {... */\n  pop\n  pop\n    /* \"E/economicUtil.sol\":535:3417  contract EconomicUtility is Ownable, ReentrancyGuard {... */\n  jump(tag_21)\n    /* \"@openzeppelin/contracts/access/Ownable.sol\":2912:3099  function _transferOwnership(address newOwner) internal virtual {... */\ntag_12:\n    /* \"@openzeppelin/contracts/access/Ownable.sol\":2985:3001  address oldOwner */\n  0x00\n    /* \"@openzeppelin/contracts/access/Ownable.sol\":3004:3010  _owner */\n  dup1\n  0x00\n  swap1\n  sload\n  swap1\n  0x0100\n  exp\n  swap1\n  div\n  0xffffffffffffffffffffffffffffffffffffffff\n  and\n    /* \"@openzeppelin/contracts/access/Ownable.sol\":2985:3010  address oldOwner = _owner */\n  swap1\n  pop\n    /* \"@openzeppelin/contracts/access/Ownable.sol\":3029:3037  newOwner */\n  dup2\n    /* \"@openzeppelin/contracts/access/Ownable.sol\":3020:3026  _owner */\n  0x00\n  dup1\n    /* \"@openzeppelin/contracts/access/Ownable.sol\":3020:3037  _owner = newOwner */\n  0x0100\n  exp\n  dup2\n  sload\n  dup2\n  0xffffffffffffffffffffffffffffffffffffffff\n  mul\n  not\n  and\n  swap1\n  dup4\n  0xffffffffffffffffffffffffffffffffffffffff\n  and\n  mul\n  or\n  swap1\n  sstore\n  pop\n    /* \"@openzeppelin/contracts/access/Ownable.sol\":3083:3091  newOwner */\n  dup2\n    /* \"@openzeppelin/contracts/access/Ownable.sol\":3052:3092  OwnershipTransferred(oldOwner, newOwner) */\n  0xffffffffffffffffffffffffffffffffffffffff\n  and\n    /* \"@openzeppelin/contracts/access/Ownable.sol\":3073:3081  oldOwner */\n  dup2\n    /* \"@openzeppelin/contracts/access/Ownable.sol\":3052:3092  OwnershipTransferred(oldOwner, newOwner) */\n  0xffffffffffffffffffffffffffffffffffffffff\n  and\n  0x8be0079c531659141344cd1fd0a4f28419497f9722a3daafe3b4186f6b6457e0\n  mload(0x40)\n  mload(0x40)\n  dup1\n  swap2\n  sub\n  swap1\n  log3\n    /* \"@openzeppelin/contracts/access/Ownable.sol\":2975:3099  {... */\n  pop\n    /* \"@openzeppelin/contracts/access/Ownable.sol\":2912:3099  function _transferOwnership(address newOwner) internal virtual {... */\n  pop\n  jump\t// out\n    /* \"#utility.yul\":88:205   */\ntag_24:\n    /* \"#utility.yul\":197:198   */\n  0x00\n    /* \"#utility.yul\":194:195   */\n  dup1\n    /* \"#utility.yul\":187:199   */\n  revert\n    /* \"#utility.yul\":334:460   */\ntag_26:\n    /* \"#utility.yul\":371:378   */\n  0x00\n    /* \"#utility.yul\":411:453   */\n  0xffffffffffffffffffffffffffffffffffffffff\n    /* \"#utility.yul\":404:409   */\n  dup3\n    /* \"#utility.yul\":400:454   */\n  and\n    /* \"#utility.yul\":389:454   */\n  swap1\n  pop\n    /* \"#utility.yul\":334:460   */\n  swap2\n  swap1\n  pop\n  jump\t// out\n    /* \"#utility.yul\":466:562   */\ntag_27:\n    /* \"#utility.yul\":503:510   */\n  0x00\n    /* \"#utility.yul\":532:556   */\n  tag_45\n    /* \"#utility.yul\":550:555   */\n  dup3\n    /* \"#utility.yul\":532:556   */\n  tag_26\n  jump\t// in\ntag_45:\n    /* \"#utility.yul\":521:556   */\n  swap1\n  pop\n    /* \"#utility.yul\":466:562   */\n  swap2\n  swap1\n  pop\n  jump\t// out\n    /* \"#utility.yul\":568:690   */\ntag_28:\n    /* \"#utility.yul\":641:665   */\n  tag_47\n    /* \"#utility.yul\":659:664   */\n  dup2\n    /* \"#utility.yul\":641:665   */\n  tag_27\n  jump\t// in\ntag_47:\n    /* \"#utility.yul\":634:639   */\n  dup2\n    /* \"#utility.yul\":631:666   */\n  eq\n    /* \"#utility.yul\":621:684   */\n  tag_48\n  jumpi\n    /* \"#utility.yul\":680:681   */\n  0x00\n    /* \"#utility.yul\":677:678   */\n  dup1\n    /* \"#utility.yul\":670:682   */\n  revert\n    /* \"#utility.yul\":621:684   */\ntag_48:\n    /* \"#utility.yul\":568:690   */\n  pop\n  jump\t// out\n    /* \"#utility.yul\":696:839   */\ntag_29:\n    /* \"#utility.yul\":753:758   */\n  0x00\n    /* \"#utility.yul\":784:790   */\n  dup2\n    /* \"#utility.yul\":778:791   */\n  mload\n    /* \"#utility.yul\":769:791   */\n  swap1\n  pop\n    /* \"#utility.yul\":800:833   */\n  tag_50\n    /* \"#utility.yul\":827:832   */\n  dup2\n    /* \"#utility.yul\":800:833   */\n  tag_28\n  jump\t// in\ntag_50:\n    /* \"#utility.yul\":696:839   */\n  swap3\n  swap2\n  pop\n  pop\n  jump\t// out\n    /* \"#utility.yul\":845:922   */\ntag_30:\n    /* \"#utility.yul\":882:889   */\n  0x00\n    /* \"#utility.yul\":911:916   */\n  dup2\n    /* \"#utility.yul\":900:916   */\n  swap1\n  pop\n    /* \"#utility.yul\":845:922   */\n  swap2\n  swap1\n  pop\n  jump\t// out\n    /* \"#utility.yul\":928:1050   */\ntag_31:\n    /* \"#utility.yul\":1001:1025   */\n  tag_53\n    /* \"#utility.yul\":1019:1024   */\n  dup2\n    /* \"#utility.yul\":1001:1025   */\n  tag_30\n  jump\t// in\ntag_53:\n    /* \"#utility.yul\":994:999   */\n  dup2\n    /* \"#utility.yul\":991:1026   */\n  eq\n    /* \"#utility.yul\":981:1044   */\n  tag_54\n  jumpi\n    /* \"#utility.yul\":1040:1041   */\n  0x00\n    /* \"#utility.yul\":1037:1038   */\n  dup1\n    /* \"#utility.yul\":1030:1042   */\n  revert\n    /* \"#utility.yul\":981:1044   */\ntag_54:\n    /* \"#utility.yul\":928:1050   */\n  pop\n  jump\t// out\n    /* \"#utility.yul\":1056:1199   */\ntag_32:\n    /* \"#utility.yul\":1113:1118   */\n  0x00\n    /* \"#utility.yul\":1144:1150   */\n  dup2\n    /* \"#utility.yul\":1138:1151   */\n  mload\n    /* \"#utility.yul\":1129:1151   */\n  swap1\n  pop\n    /* \"#utility.yul\":1160:1193   */\n  tag_56\n    /* \"#utility.yul\":1187:1192   */\n  dup2\n    /* \"#utility.yul\":1160:1193   */\n  tag_31\n  jump\t// in\ntag_56:\n    /* \"#utility.yul\":1056:1199   */\n  swap3\n  swap2\n  pop\n  pop\n  jump\t// out\n    /* \"#utility.yul\":1205:1712   */\ntag_3:\n    /* \"#utility.yul\":1284:1290   */\n  0x00\n    /* \"#utility.yul\":1292:1298   */\n  dup1\n    /* \"#utility.yul\":1341:1343   */\n  0x40\n    /* \"#utility.yul\":1329:1338   */\n  dup4\n    /* \"#utility.yul\":1320:1327   */\n  dup6\n    /* \"#utility.yul\":1316:1339   */\n  sub\n    /* \"#utility.yul\":1312:1344   */\n  slt\n    /* \"#utility.yul\":1309:1428   */\n  iszero\n  tag_58\n  jumpi\n    /* \"#utility.yul\":1347:1426   */\n  tag_59\n  tag_24\n  jump\t// in\ntag_59:\n    /* \"#utility.yul\":1309:1428   */\ntag_58:\n    /* \"#utility.yul\":1467:1468   */\n  0x00\n    /* \"#utility.yul\":1492:1556   */\n  tag_60\n    /* \"#utility.yul\":1548:1555   */\n  dup6\n    /* \"#utility.yul\":1539:1545   */\n  dup3\n    /* \"#utility.yul\":1528:1537   */\n  dup7\n    /* \"#utility.yul\":1524:1546   */\n  add\n    /* \"#utility.yul\":1492:1556   */\n  tag_29\n  jump\t// in\ntag_60:\n    /* \"#utility.yul\":1482:1556   */\n  swap3\n  pop\n    /* \"#utility.yul\":1438:1566   */\n  pop\n    /* \"#utility.yul\":1605:1607   */\n  0x20\n    /* \"#utility.yul\":1631:1695   */\n  tag_61\n    /* \"#utility.yul\":1687:1694   */\n  dup6\n    /* \"#utility.yul\":1678:1684   */\n  dup3\n    /* \"#utility.yul\":1667:1676   */\n  dup7\n    /* \"#utility.yul\":1663:1685   */\n  add\n    /* \"#utility.yul\":1631:1695   */\n  tag_32\n  jump\t// in\ntag_61:\n    /* \"#utility.yul\":1621:1695   */\n  swap2\n  pop\n    /* \"#utility.yul\":1576:1705   */\n  pop\n    /* \"#utility.yul\":1205:1712   */\n  swap3\n  pop\n  swap3\n  swap1\n  pop\n  jump\t// out\n    /* \"#utility.yul\":1718:1836   */\ntag_33:\n    /* \"#utility.yul\":1805:1829   */\n  tag_63\n    /* \"#utility.yul\":1823:1828   */\n  dup2\n    /* \"#utility.yul\":1805:1829   */\n  tag_27\n  jump\t// in\ntag_63:\n    /* \"#utility.yul\":1800:1803   */\n  dup3\n    /* \"#utility.yul\":1793:1830   */\n  mstore\n    /* \"#utility.yul\":1718:1836   */\n  pop\n  pop\n  jump\t// out\n    /* \"#utility.yul\":1842:2064   */\ntag_10:\n    /* \"#utility.yul\":1935:1939   */\n  0x00\n    /* \"#utility.yul\":1973:1975   */\n  0x20\n    /* \"#utility.yul\":1962:1971   */\n  dup3\n    /* \"#utility.yul\":1958:1976   */\n  add\n    /* \"#utility.yul\":1950:1976   */\n  swap1\n  pop\n    /* \"#utility.yul\":1986:2057   */\n  tag_65\n    /* \"#utility.yul\":2054:2055   */\n  0x00\n    /* \"#utility.yul\":2043:2052   */\n  dup4\n    /* \"#utility.yul\":2039:2056   */\n  add\n    /* \"#utility.yul\":2030:2036   */\n  dup5\n    /* \"#utility.yul\":1986:2057   */\n  tag_33\n  jump\t// in\ntag_65:\n    /* \"#utility.yul\":1842:2064   */\n  swap3\n  swap2\n  pop\n  pop\n  jump\t// out\n    /* \"#utility.yul\":2070:2239   */\ntag_34:\n    /* \"#utility.yul\":2154:2165   */\n  0x00\n    /* \"#utility.yul\":2188:2194   */\n  dup3\n    /* \"#utility.yul\":2183:2186   */\n  dup3\n    /* \"#utility.yul\":2176:2195   */\n  mstore\n    /* \"#utility.yul\":2228:2232   */\n  0x20\n    /* \"#utility.yul\":2223:2226   */\n  dup3\n    /* \"#utility.yul\":2219:2233   */\n  add\n    /* \"#utility.yul\":2204:2233   */\n  swap1\n  pop\n    /* \"#utility.yul\":2070:2239   */\n  swap3\n  swap2\n  pop\n  pop\n  jump\t// out\n    /* \"#utility.yul\":2245:2416   */\ntag_35:\n    /* \"#utility.yul\":2385:2408   */\n  0x496e76616c696420746f6b656e20616464726573730000000000000000000000\n    /* \"#utility.yul\":2381:2382   */\n  0x00\n    /* \"#utility.yul\":2373:2379   */\n  dup3\n    /* \"#utility.yul\":2369:2383   */\n  add\n    /* \"#utility.yul\":2362:2409   */\n  mstore\n    /* \"#utility.yul\":2245:2416   */\n  pop\n  jump\t// out\n    /* \"#utility.yul\":2422:2788   */\ntag_36:\n    /* \"#utility.yul\":2564:2567   */\n  0x00\n    /* \"#utility.yul\":2585:2652   */\n  tag_69\n    /* \"#utility.yul\":2649:2651   */\n  0x15\n    /* \"#utility.yul\":2644:2647   */\n  dup4\n    /* \"#utility.yul\":2585:2652   */\n  tag_34\n  jump\t// in\ntag_69:\n    /* \"#utility.yul\":2578:2652   */\n  swap2\n  pop\n    /* \"#utility.yul\":2661:2754   */\n  tag_70\n    /* \"#utility.yul\":2750:2753   */\n  dup3\n    /* \"#utility.yul\":2661:2754   */\n  tag_35\n  jump\t// in\ntag_70:\n    /* \"#utility.yul\":2779:2781   */\n  0x20\n    /* \"#utility.yul\":2774:2777   */\n  dup3\n    /* \"#utility.yul\":2770:2782   */\n  add\n    /* \"#utility.yul\":2763:2782   */\n  swap1\n  pop\n    /* \"#utility.yul\":2422:2788   */\n  swap2\n  swap1\n  pop\n  jump\t// out\n    /* \"#utility.yul\":2794:3213   */\ntag_17:\n    /* \"#utility.yul\":2960:2964   */\n  0x00\n    /* \"#utility.yul\":2998:3000   */\n  0x20\n    /* \"#utility.yul\":2987:2996   */\n  dup3\n    /* \"#utility.yul\":2983:3001   */\n  add\n    /* \"#utility.yul\":2975:3001   */\n  swap1\n  pop\n    /* \"#utility.yul\":3047:3056   */\n  dup2\n    /* \"#utility.yul\":3041:3045   */\n  dup2\n    /* \"#utility.yul\":3037:3057   */\n  sub\n    /* \"#utility.yul\":3033:3034   */\n  0x00\n    /* \"#utility.yul\":3022:3031   */\n  dup4\n    /* \"#utility.yul\":3018:3035   */\n  add\n    /* \"#utility.yul\":3011:3058   */\n  mstore\n    /* \"#utility.yul\":3075:3206   */\n  tag_72\n    /* \"#utility.yul\":3201:3205   */\n  dup2\n    /* \"#utility.yul\":3075:3206   */\n  tag_36\n  jump\t// in\ntag_72:\n    /* \"#utility.yul\":3067:3206   */\n  swap1\n  pop\n    /* \"#utility.yul\":2794:3213   */\n  swap2\n  swap1\n  pop\n  jump\t// out\n    /* \"#utility.yul\":3219:3391   */\ntag_37:\n    /* \"#utility.yul\":3359:3383   */\n  0x4d756c7469706c696572206d757374206265203e203000000000000000000000\n    /* \"#utility.yul\":3355:3356   */\n  0x00\n    /* \"#utility.yul\":3347:3353   */\n  dup3\n    /* \"#utility.yul\":3343:3357   */\n  add\n    /* \"#utility.yul\":3336:3384   */\n  mstore\n    /* \"#utility.yul\":3219:3391   */\n  pop\n  jump\t// out\n    /* \"#utility.yul\":3397:3763   */\ntag_38:\n    /* \"#utility.yul\":3539:3542   */\n  0x00\n    /* \"#utility.yul\":3560:3627   */\n  tag_75\n    /* \"#utility.yul\":3624:3626   */\n  0x16\n    /* \"#utility.yul\":3619:3622   */\n  dup4\n    /* \"#utility.yul\":3560:3627   */\n  tag_34\n  jump\t// in\ntag_75:\n    /* \"#utility.yul\":3553:3627   */\n  swap2\n  pop\n    /* \"#utility.yul\":3636:3729   */\n  tag_76\n    /* \"#utility.yul\":3725:3728   */\n  dup3\n    /* \"#utility.yul\":3636:3729   */\n  tag_37\n  jump\t// in\ntag_76:\n    /* \"#utility.yul\":3754:3756   */\n  0x20\n    /* \"#utility.yul\":3749:3752   */\n  dup3\n    /* \"#utility.yul\":3745:3757   */\n  add\n    /* \"#utility.yul\":3738:3757   */\n  swap1\n  pop\n    /* \"#utility.yul\":3397:3763   */\n  swap2\n  swap1\n  pop\n  jump\t// out\n    /* \"#utility.yul\":3769:4188   */\ntag_20:\n    /* \"#utility.yul\":3935:3939   */\n  0x00\n    /* \"#utility.yul\":3973:3975   */\n  0x20\n    /* \"#utility.yul\":3962:3971   */\n  dup3\n    /* \"#utility.yul\":3958:3976   */\n  add\n    /* \"#utility.yul\":3950:3976   */\n  swap1\n  pop\n    /* \"#utility.yul\":4022:4031   */\n  dup2\n    /* \"#utility.yul\":4016:4020   */\n  dup2\n    /* \"#utility.yul\":4012:4032   */\n  sub\n    /* \"#utility.yul\":4008:4009   */\n  0x00\n    /* \"#utility.yul\":3997:4006   */\n  dup4\n    /* \"#utility.yul\":3993:4010   */\n  add\n    /* \"#utility.yul\":3986:4033   */\n  mstore\n    /* \"#utility.yul\":4050:4181   */\n  tag_78\n    /* \"#utility.yul\":4176:4180   */\n  dup2\n    /* \"#utility.yul\":4050:4181   */\n  tag_38\n  jump\t// in\ntag_78:\n    /* \"#utility.yul\":4042:4181   */\n  swap1\n  pop\n    /* \"#utility.yul\":3769:4188   */\n  swap2\n  swap1\n  pop\n  jump\t// out\n    /* \"E/economicUtil.sol\":535:3417  contract EconomicUtility is Ownable, ReentrancyGuard {... */\ntag_21:\n  dataSize(sub_0)\n  dup1\n  dataOffset(sub_0)\n  0x00\n  codecopy\n  0x00\n  return\nstop\n\nsub_0: assembly {\n        /* \"E/economicUtil.sol\":535:3417  contract EconomicUtility is Ownable, ReentrancyGuard {... */\n      mstore(0x40, 0x80)\n      callvalue\n      dup1\n      iszero\n      tag_1\n      jumpi\n      0x00\n      dup1\n      revert\n    tag_1:\n      pop\n      jumpi(tag_2, lt(calldatasize, 0x04))\n      shr(0xe0, calldataload(0x00))\n      dup1\n      0x8da5cb5b\n      gt\n      tag_13\n      jumpi\n      dup1\n      0x8da5cb5b\n      eq\n      tag_8\n      jumpi\n      dup1\n      0xb6b55f25\n      eq\n      tag_9\n      jumpi\n      dup1\n      0xc89039c5\n      eq\n      tag_10\n      jumpi\n      dup1\n      0xf2fde38b\n      eq\n      tag_11\n      jumpi\n      dup1\n      0xfc7e286d\n      eq\n      tag_12\n      jumpi\n      jump(tag_2)\n    tag_13:\n      dup1\n      0x1b3ed722\n      eq\n      tag_3\n      jumpi\n      dup1\n      0x2e1a7d4d\n      eq\n      tag_4\n      jumpi\n      dup1\n      0x5ffe6146\n      eq\n      tag_5\n      jumpi\n      dup1\n      0x6f88e523\n      eq\n      tag_6\n      jumpi\n      dup1\n      0x715018a6\n      eq\n      tag_7\n      jumpi\n    tag_2:\n      0x00\n      dup1\n      revert\n        /* \"E/economicUtil.sol\":729:754  uint256 public multiplier */\n    tag_3:\n      tag_14\n      tag_15\n      jump\t// in\n    tag_14:\n      mload(0x40)\n      tag_16\n      swap2\n      swap1\n      tag_17\n      jump\t// in\n    tag_16:\n      mload(0x40)\n      dup1\n      swap2\n      sub\n      swap1\n      return\n        /* \"E/economicUtil.sol\":2314:2691  function withdraw(uint256 amount) external nonReentrant {... */\n    tag_4:\n      tag_18\n      0x04\n      dup1\n      calldatasize\n      sub\n      dup2\n      add\n      swap1\n      tag_19\n      swap2\n      swap1\n      tag_20\n      jump\t// in\n    tag_19:\n      tag_21\n      jump\t// in\n    tag_18:\n      stop\n        /* \"E/economicUtil.sol\":3195:3415  function updateMultiplier(uint256 newMultiplier) external onlyOwner {... */\n    tag_5:\n      tag_22\n      0x04\n      dup1\n      calldatasize\n      sub\n      dup2\n      add\n      swap1\n      tag_23\n      swap2\n      swap1\n      tag_20\n      jump\t// in\n    tag_23:\n      tag_24\n      jump\t// in\n    tag_22:\n      stop\n        /* \"E/economicUtil.sol\":2891:3007  function utilityOf(address user) external view returns (uint256) {... */\n    tag_6:\n      tag_25\n      0x04\n      dup1\n      calldatasize\n      sub\n      dup2\n      add\n      swap1\n      tag_26\n      swap2\n      swap1\n      tag_27\n      jump\t// in\n    tag_26:\n      tag_28\n      jump\t// in\n    tag_25:\n      mload(0x40)\n      tag_29\n      swap2\n      swap1\n      tag_17\n      jump\t// in\n    tag_29:\n      mload(0x40)\n      dup1\n      swap2\n      sub\n      swap1\n      return\n        /* \"@openzeppelin/contracts/access/Ownable.sol\":2293:2394  function renounceOwnership() public virtual onlyOwner {... */\n    tag_7:\n      tag_30\n      tag_31\n      jump\t// in\n    tag_30:\n      stop\n        /* \"@openzeppelin/contracts/access/Ownable.sol\":1638:1723  function owner() public view virtual returns (address) {... */\n    tag_8:\n      tag_32\n      tag_33\n      jump\t// in\n    tag_32:\n      mload(0x40)\n      tag_34\n      swap2\n      swap1\n      tag_35\n      jump\t// in\n    tag_34:\n      mload(0x40)\n      dup1\n      swap2\n      sub\n      swap1\n      return\n        /* \"E/economicUtil.sol\":1815:2125  function deposit(uint256 amount) external nonReentrant {... */\n    tag_9:\n      tag_36\n      0x04\n      dup1\n      calldatasize\n      sub\n      dup2\n      add\n      swap1\n      tag_37\n      swap2\n      swap1\n      tag_20\n      jump\t// in\n    tag_37:\n      tag_38\n      jump\t// in\n    tag_36:\n      stop\n        /* \"E/economicUtil.sol\":637:663  IERC20 public depositToken */\n    tag_10:\n      tag_39\n      tag_40\n      jump\t// in\n    tag_39:\n      mload(0x40)\n      tag_41\n      swap2\n      swap1\n      tag_42\n      jump\t// in\n    tag_41:\n      mload(0x40)\n      dup1\n      swap2\n      sub\n      swap1\n      return\n        /* \"@openzeppelin/contracts/access/Ownable.sol\":2543:2758  function transferOwnership(address newOwner) public virtual onlyOwner {... */\n    tag_11:\n      tag_43\n      0x04\n      dup1\n      calldatasize\n      sub\n      dup2\n      add\n      swap1\n      tag_44\n      swap2\n      swap1\n      tag_27\n      jump\t// in\n    tag_44:\n      tag_45\n      jump\t// in\n    tag_43:\n      stop\n        /* \"E/economicUtil.sol\":821:864  mapping(address => uint256) public deposits */\n    tag_12:\n      tag_46\n      0x04\n      dup1\n      calldatasize\n      sub\n      dup2\n      add\n      swap1\n      tag_47\n      swap2\n      swap1\n      tag_27\n      jump\t// in\n    tag_47:\n      tag_48\n      jump\t// in\n    tag_46:\n      mload(0x40)\n      tag_49\n      swap2\n      swap1\n      tag_17\n      jump\t// in\n    tag_49:\n      mload(0x40)\n      dup1\n      swap2\n      sub\n      swap1\n      return\n        /* \"E/economicUtil.sol\":729:754  uint256 public multiplier */\n    tag_15:\n      sload(0x03)\n      dup2\n      jump\t// out\n        /* \"E/economicUtil.sol\":2314:2691  function withdraw(uint256 amount) external nonReentrant {... */\n    tag_21:\n        /* \"@openzeppelin/contracts/security/ReentrancyGuard.sol\":2261:2282  _nonReentrantBefore() */\n      tag_51\n        /* \"@openzeppelin/contracts/security/ReentrancyGuard.sol\":2261:2280  _nonReentrantBefore */\n      tag_52\n        /* \"@openzeppelin/contracts/security/ReentrancyGuard.sol\":2261:2282  _nonReentrantBefore() */\n      jump\t// in\n    tag_51:\n        /* \"E/economicUtil.sol\":2397:2398  0 */\n      0x00\n        /* \"E/economicUtil.sol\":2388:2394  amount */\n      dup2\n        /* \"E/economicUtil.sol\":2388:2398  amount > 0 */\n      gt\n        /* \"E/economicUtil.sol\":2380:2430  require(amount > 0, \"Withdraw amount must be > 0\") */\n      tag_54\n      jumpi\n      mload(0x40)\n      0x08c379a000000000000000000000000000000000000000000000000000000000\n      dup2\n      mstore\n      0x04\n      add\n      tag_55\n      swap1\n      tag_56\n      jump\t// in\n    tag_55:\n      mload(0x40)\n      dup1\n      swap2\n      sub\n      swap1\n      revert\n    tag_54:\n        /* \"E/economicUtil.sol\":2472:2478  amount */\n      dup1\n        /* \"E/economicUtil.sol\":2448:2456  deposits */\n      0x04\n        /* \"E/economicUtil.sol\":2448:2468  deposits[msg.sender] */\n      0x00\n        /* \"E/economicUtil.sol\":2457:2467  msg.sender */\n      caller\n        /* \"E/economicUtil.sol\":2448:2468  deposits[msg.sender] */\n      0xffffffffffffffffffffffffffffffffffffffff\n      and\n      0xffffffffffffffffffffffffffffffffffffffff\n      and\n      dup2\n      mstore\n      0x20\n      add\n      swap1\n      dup2\n      mstore\n      0x20\n      add\n      0x00\n      keccak256\n      sload\n        /* \"E/economicUtil.sol\":2448:2478  deposits[msg.sender] >= amount */\n      lt\n      iszero\n        /* \"E/economicUtil.sol\":2440:2513  require(deposits[msg.sender] >= amount, \"Insufficient deposited balance\") */\n      tag_57\n      jumpi\n      mload(0x40)\n      0x08c379a000000000000000000000000000000000000000000000000000000000\n      dup2\n      mstore\n      0x04\n      add\n      tag_58\n      swap1\n      tag_59\n      jump\t// in\n    tag_58:\n      mload(0x40)\n      dup1\n      swap2\n      sub\n      swap1\n      revert\n    tag_57:\n        /* \"E/economicUtil.sol\":2548:2554  amount */\n      dup1\n        /* \"E/economicUtil.sol\":2524:2532  deposits */\n      0x04\n        /* \"E/economicUtil.sol\":2524:2544  deposits[msg.sender] */\n      0x00\n        /* \"E/economicUtil.sol\":2533:2543  msg.sender */\n      caller\n        /* \"E/economicUtil.sol\":2524:2544  deposits[msg.sender] */\n      0xffffffffffffffffffffffffffffffffffffffff\n      and\n      0xffffffffffffffffffffffffffffffffffffffff\n      and\n      dup2\n      mstore\n      0x20\n      add\n      swap1\n      dup2\n      mstore\n      0x20\n      add\n      0x00\n      keccak256\n      0x00\n        /* \"E/economicUtil.sol\":2524:2554  deposits[msg.sender] -= amount */\n      dup3\n      dup3\n      sload\n      tag_60\n      swap2\n      swap1\n      tag_61\n      jump\t// in\n    tag_60:\n      swap3\n      pop\n      pop\n      dup2\n      swap1\n      sstore\n      pop\n        /* \"E/economicUtil.sol\":2572:2584  depositToken */\n      0x02\n      0x00\n      swap1\n      sload\n      swap1\n      0x0100\n      exp\n      swap1\n      div\n      0xffffffffffffffffffffffffffffffffffffffff\n      and\n        /* \"E/economicUtil.sol\":2572:2593  depositToken.transfer */\n      0xffffffffffffffffffffffffffffffffffffffff\n      and\n      0xa9059cbb\n        /* \"E/economicUtil.sol\":2594:2604  msg.sender */\n      caller\n        /* \"E/economicUtil.sol\":2606:2612  amount */\n      dup4\n        /* \"E/economicUtil.sol\":2572:2613  depositToken.transfer(msg.sender, amount) */\n      mload(0x40)\n      dup4\n      0xffffffff\n      and\n      0xe0\n      shl\n      dup2\n      mstore\n      0x04\n      add\n      tag_62\n      swap3\n      swap2\n      swap1\n      tag_63\n      jump\t// in\n    tag_62:\n      0x20\n      mload(0x40)\n      dup1\n      dup4\n      sub\n      dup2\n      0x00\n      dup8\n      gas\n      call\n      iszero\n      dup1\n      iszero\n      tag_65\n      jumpi\n      returndatasize\n      0x00\n      dup1\n      returndatacopy\n      revert(0x00, returndatasize)\n    tag_65:\n      pop\n      pop\n      pop\n      pop\n      mload(0x40)\n      returndatasize\n      not(0x1f)\n      0x1f\n      dup3\n      add\n      and\n      dup3\n      add\n      dup1\n      0x40\n      mstore\n      pop\n      dup2\n      add\n      swap1\n      tag_66\n      swap2\n      swap1\n      tag_67\n      jump\t// in\n    tag_66:\n        /* \"E/economicUtil.sol\":2564:2639  require(depositToken.transfer(msg.sender, amount), \"Token transfer failed\") */\n      tag_68\n      jumpi\n      mload(0x40)\n      0x08c379a000000000000000000000000000000000000000000000000000000000\n      dup2\n      mstore\n      0x04\n      add\n      tag_69\n      swap1\n      tag_70\n      jump\t// in\n    tag_69:\n      mload(0x40)\n      dup1\n      swap2\n      sub\n      swap1\n      revert\n    tag_68:\n        /* \"E/economicUtil.sol\":2665:2675  msg.sender */\n      caller\n        /* \"E/economicUtil.sol\":2655:2684  Withdrawn(msg.sender, amount) */\n      0xffffffffffffffffffffffffffffffffffffffff\n      and\n      0x7084f5476618d8e60b11ef0d7d3f06914655adb8793e28ff7f018d4c76d505d5\n        /* \"E/economicUtil.sol\":2677:2683  amount */\n      dup3\n        /* \"E/economicUtil.sol\":2655:2684  Withdrawn(msg.sender, amount) */\n      mload(0x40)\n      tag_71\n      swap2\n      swap1\n      tag_17\n      jump\t// in\n    tag_71:\n      mload(0x40)\n      dup1\n      swap2\n      sub\n      swap1\n      log2\n        /* \"@openzeppelin/contracts/security/ReentrancyGuard.sol\":2303:2323  _nonReentrantAfter() */\n      tag_72\n        /* \"@openzeppelin/contracts/security/ReentrancyGuard.sol\":2303:2321  _nonReentrantAfter */\n      tag_73\n        /* \"@openzeppelin/contracts/security/ReentrancyGuard.sol\":2303:2323  _nonReentrantAfter() */\n      jump\t// in\n    tag_72:\n        /* \"E/economicUtil.sol\":2314:2691  function withdraw(uint256 amount) external nonReentrant {... */\n      pop\n      jump\t// out\n        /* \"E/economicUtil.sol\":3195:3415  function updateMultiplier(uint256 newMultiplier) external onlyOwner {... */\n    tag_24:\n        /* \"@openzeppelin/contracts/access/Ownable.sol\":1531:1544  _checkOwner() */\n      tag_75\n        /* \"@openzeppelin/contracts/access/Ownable.sol\":1531:1542  _checkOwner */\n      tag_76\n        /* \"@openzeppelin/contracts/access/Ownable.sol\":1531:1544  _checkOwner() */\n      jump\t// in\n    tag_75:\n        /* \"E/economicUtil.sol\":3297:3298  0 */\n      0x00\n        /* \"E/economicUtil.sol\":3281:3294  newMultiplier */\n      dup2\n        /* \"E/economicUtil.sol\":3281:3298  newMultiplier > 0 */\n      gt\n        /* \"E/economicUtil.sol\":3273:3325  require(newMultiplier > 0, \"Multiplier must be > 0\") */\n      tag_78\n      jumpi\n      mload(0x40)\n      0x08c379a000000000000000000000000000000000000000000000000000000000\n      dup2\n      mstore\n      0x04\n      add\n      tag_79\n      swap1\n      tag_80\n      jump\t// in\n    tag_79:\n      mload(0x40)\n      dup1\n      swap2\n      sub\n      swap1\n      revert\n    tag_78:\n        /* \"E/economicUtil.sol\":3348:3361  newMultiplier */\n      dup1\n        /* \"E/economicUtil.sol\":3335:3345  multiplier */\n      0x03\n        /* \"E/economicUtil.sol\":3335:3361  multiplier = newMultiplier */\n      dup2\n      swap1\n      sstore\n      pop\n        /* \"E/economicUtil.sol\":3376:3408  MultiplierUpdated(newMultiplier) */\n      0x4dbe4840d7465bd162f67814cea0b519567a2e0e578bcde61e7f4ced361e5a3d\n        /* \"E/economicUtil.sol\":3394:3407  newMultiplier */\n      dup2\n        /* \"E/economicUtil.sol\":3376:3408  MultiplierUpdated(newMultiplier) */\n      mload(0x40)\n      tag_81\n      swap2\n      swap1\n      tag_17\n      jump\t// in\n    tag_81:\n      mload(0x40)\n      dup1\n      swap2\n      sub\n      swap1\n      log1\n        /* \"E/economicUtil.sol\":3195:3415  function updateMultiplier(uint256 newMultiplier) external onlyOwner {... */\n      pop\n      jump\t// out\n        /* \"E/economicUtil.sol\":2891:3007  function utilityOf(address user) external view returns (uint256) {... */\n    tag_28:\n        /* \"E/economicUtil.sol\":2947:2954  uint256 */\n      0x00\n        /* \"E/economicUtil.sol\":2990:3000  multiplier */\n      sload(0x03)\n        /* \"E/economicUtil.sol\":2973:2981  deposits */\n      0x04\n        /* \"E/economicUtil.sol\":2973:2987  deposits[user] */\n      0x00\n        /* \"E/economicUtil.sol\":2982:2986  user */\n      dup5\n        /* \"E/economicUtil.sol\":2973:2987  deposits[user] */\n      0xffffffffffffffffffffffffffffffffffffffff\n      and\n      0xffffffffffffffffffffffffffffffffffffffff\n      and\n      dup2\n      mstore\n      0x20\n      add\n      swap1\n      dup2\n      mstore\n      0x20\n      add\n      0x00\n      keccak256\n      sload\n        /* \"E/economicUtil.sol\":2973:3000  deposits[user] * multiplier */\n      tag_83\n      swap2\n      swap1\n      tag_84\n      jump\t// in\n    tag_83:\n        /* \"E/economicUtil.sol\":2966:3000  return deposits[user] * multiplier */\n      swap1\n      pop\n        /* \"E/economicUtil.sol\":2891:3007  function utilityOf(address user) external view returns (uint256) {... */\n      swap2\n      swap1\n      pop\n      jump\t// out\n        /* \"@openzeppelin/contracts/access/Ownable.sol\":2293:2394  function renounceOwnership() public virtual onlyOwner {... */\n    tag_31:\n        /* \"@openzeppelin/contracts/access/Ownable.sol\":1531:1544  _checkOwner() */\n      tag_86\n        /* \"@openzeppelin/contracts/access/Ownable.sol\":1531:1542  _checkOwner */\n      tag_76\n        /* \"@openzeppelin/contracts/access/Ownable.sol\":1531:1544  _checkOwner() */\n      jump\t// in\n    tag_86:\n        /* \"@openzeppelin/contracts/access/Ownable.sol\":2357:2387  _transferOwnership(address(0)) */\n      tag_88\n        /* \"@openzeppelin/contracts/access/Ownable.sol\":2384:2385  0 */\n      0x00\n        /* \"@openzeppelin/contracts/access/Ownable.sol\":2357:2375  _transferOwnership */\n      tag_89\n        /* \"@openzeppelin/contracts/access/Ownable.sol\":2357:2387  _transferOwnership(address(0)) */\n      jump\t// in\n    tag_88:\n        /* \"@openzeppelin/contracts/access/Ownable.sol\":2293:2394  function renounceOwnership() public virtual onlyOwner {... */\n      jump\t// out\n        /* \"@openzeppelin/contracts/access/Ownable.sol\":1638:1723  function owner() public view virtual returns (address) {... */\n    tag_33:\n        /* \"@openzeppelin/contracts/access/Ownable.sol\":1684:1691  address */\n      0x00\n        /* \"@openzeppelin/contracts/access/Ownable.sol\":1710:1716  _owner */\n      dup1\n      0x00\n      swap1\n      sload\n      swap1\n      0x0100\n      exp\n      swap1\n      div\n      0xffffffffffffffffffffffffffffffffffffffff\n      and\n        /* \"@openzeppelin/contracts/access/Ownable.sol\":1703:1716  return _owner */\n      swap1\n      pop\n        /* \"@openzeppelin/contracts/access/Ownable.sol\":1638:1723  function owner() public view virtual returns (address) {... */\n      swap1\n      jump\t// out\n        /* \"E/economicUtil.sol\":1815:2125  function deposit(uint256 amount) external nonReentrant {... */\n    tag_38:\n        /* \"@openzeppelin/contracts/security/ReentrancyGuard.sol\":2261:2282  _nonReentrantBefore() */\n      tag_92\n        /* \"@openzeppelin/contracts/security/ReentrancyGuard.sol\":2261:2280  _nonReentrantBefore */\n      tag_52\n        /* \"@openzeppelin/contracts/security/ReentrancyGuard.sol\":2261:2282  _nonReentrantBefore() */\n      jump\t// in\n    tag_92:\n        /* \"E/economicUtil.sol\":1897:1898  0 */\n      0x00\n        /* \"E/economicUtil.sol\":1888:1894  amount */\n      dup2\n        /* \"E/economicUtil.sol\":1888:1898  amount > 0 */\n      gt\n        /* \"E/economicUtil.sol\":1880:1929  require(amount > 0, \"Deposit amount must be > 0\") */\n      tag_94\n      jumpi\n      mload(0x40)\n      0x08c379a000000000000000000000000000000000000000000000000000000000\n      dup2\n      mstore\n      0x04\n      add\n      tag_95\n      swap1\n      tag_96\n      jump\t// in\n    tag_95:\n      mload(0x40)\n      dup1\n      swap2\n      sub\n      swap1\n      revert\n    tag_94:\n        /* \"E/economicUtil.sol\":1947:1959  depositToken */\n      0x02\n      0x00\n      swap1\n      sload\n      swap1\n      0x0100\n      exp\n      swap1\n      div\n      0xffffffffffffffffffffffffffffffffffffffff\n      and\n        /* \"E/economicUtil.sol\":1947:1972  depositToken.transferFrom */\n      0xffffffffffffffffffffffffffffffffffffffff\n      and\n      0x23b872dd\n        /* \"E/economicUtil.sol\":1973:1983  msg.sender */\n      caller\n        /* \"E/economicUtil.sol\":1993:1997  this */\n      address\n        /* \"E/economicUtil.sol\":2000:2006  amount */\n      dup5\n        /* \"E/economicUtil.sol\":1947:2007  depositToken.transferFrom(msg.sender, address(this), amount) */\n      mload(0x40)\n      dup5\n      0xffffffff\n      and\n      0xe0\n      shl\n      dup2\n      mstore\n      0x04\n      add\n      tag_97\n      swap4\n      swap3\n      swap2\n      swap1\n      tag_98\n      jump\t// in\n    tag_97:\n      0x20\n      mload(0x40)\n      dup1\n      dup4\n      sub\n      dup2\n      0x00\n      dup8\n      gas\n      call\n      iszero\n      dup1\n      iszero\n      tag_100\n      jumpi\n      returndatasize\n      0x00\n      dup1\n      returndatacopy\n      revert(0x00, returndatasize)\n    tag_100:\n      pop\n      pop\n      pop\n      pop\n      mload(0x40)\n      returndatasize\n      not(0x1f)\n      0x1f\n      dup3\n      add\n      and\n      dup3\n      add\n      dup1\n      0x40\n      mstore\n      pop\n      dup2\n      add\n      swap1\n      tag_101\n      swap2\n      swap1\n      tag_67\n      jump\t// in\n    tag_101:\n        /* \"E/economicUtil.sol\":1939:2033  require(depositToken.transferFrom(msg.sender, address(this), amount), \"Token transfer failed\") */\n      tag_102\n      jumpi\n      mload(0x40)\n      0x08c379a000000000000000000000000000000000000000000000000000000000\n      dup2\n      mstore\n      0x04\n      add\n      tag_103\n      swap1\n      tag_70\n      jump\t// in\n    tag_103:\n      mload(0x40)\n      dup1\n      swap2\n      sub\n      swap1\n      revert\n    tag_102:\n        /* \"E/economicUtil.sol\":2068:2074  amount */\n      dup1\n        /* \"E/economicUtil.sol\":2044:2052  deposits */\n      0x04\n        /* \"E/economicUtil.sol\":2044:2064  deposits[msg.sender] */\n      0x00\n        /* \"E/economicUtil.sol\":2053:2063  msg.sender */\n      caller\n        /* \"E/economicUtil.sol\":2044:2064  deposits[msg.sender] */\n      0xffffffffffffffffffffffffffffffffffffffff\n      and\n      0xffffffffffffffffffffffffffffffffffffffff\n      and\n      dup2\n      mstore\n      0x20\n      add\n      swap1\n      dup2\n      mstore\n      0x20\n      add\n      0x00\n      keccak256\n      0x00\n        /* \"E/economicUtil.sol\":2044:2074  deposits[msg.sender] += amount */\n      dup3\n      dup3\n      sload\n      tag_104\n      swap2\n      swap1\n      tag_105\n      jump\t// in\n    tag_104:\n      swap3\n      pop\n      pop\n      dup2\n      swap1\n      sstore\n      pop\n        /* \"E/economicUtil.sol\":2099:2109  msg.sender */\n      caller\n        /* \"E/economicUtil.sol\":2089:2118  Deposited(msg.sender, amount) */\n      0xffffffffffffffffffffffffffffffffffffffff\n      and\n      0x2da466a7b24304f47e87fa2e1e5a81b9831ce54fec19055ce277ca2f39ba42c4\n        /* \"E/economicUtil.sol\":2111:2117  amount */\n      dup3\n        /* \"E/economicUtil.sol\":2089:2118  Deposited(msg.sender, amount) */\n      mload(0x40)\n      tag_106\n      swap2\n      swap1\n      tag_17\n      jump\t// in\n    tag_106:\n      mload(0x40)\n      dup1\n      swap2\n      sub\n      swap1\n      log2\n        /* \"@openzeppelin/contracts/security/ReentrancyGuard.sol\":2303:2323  _nonReentrantAfter() */\n      tag_107\n        /* \"@openzeppelin/contracts/security/ReentrancyGuard.sol\":2303:2321  _nonReentrantAfter */\n      tag_73\n        /* \"@openzeppelin/contracts/security/ReentrancyGuard.sol\":2303:2323  _nonReentrantAfter() */\n      jump\t// in\n    tag_107:\n        /* \"E/economicUtil.sol\":1815:2125  function deposit(uint256 amount) external nonReentrant {... */\n      pop\n      jump\t// out\n        /* \"E/economicUtil.sol\":637:663  IERC20 public depositToken */\n    tag_40:\n      0x02\n      0x00\n      swap1\n      sload\n      swap1\n      0x0100\n      exp\n      swap1\n      div\n      0xffffffffffffffffffffffffffffffffffffffff\n      and\n      dup2\n      jump\t// out\n        /* \"@openzeppelin/contracts/access/Ownable.sol\":2543:2758  function transferOwnership(address newOwner) public virtual onlyOwner {... */\n    tag_45:\n        /* \"@openzeppelin/contracts/access/Ownable.sol\":1531:1544  _checkOwner() */\n      tag_109\n        /* \"@openzeppelin/contracts/access/Ownable.sol\":1531:1542  _checkOwner */\n      tag_76\n        /* \"@openzeppelin/contracts/access/Ownable.sol\":1531:1544  _checkOwner() */\n      jump\t// in\n    tag_109:\n        /* \"@openzeppelin/contracts/access/Ownable.sol\":2647:2648  0 */\n      0x00\n        /* \"@openzeppelin/contracts/access/Ownable.sol\":2627:2649  newOwner == address(0) */\n      0xffffffffffffffffffffffffffffffffffffffff\n      and\n        /* \"@openzeppelin/contracts/access/Ownable.sol\":2627:2635  newOwner */\n      dup2\n        /* \"@openzeppelin/contracts/access/Ownable.sol\":2627:2649  newOwner == address(0) */\n      0xffffffffffffffffffffffffffffffffffffffff\n      and\n      sub\n        /* \"@openzeppelin/contracts/access/Ownable.sol\":2623:2714  if (newOwner == address(0)) {... */\n      tag_111\n      jumpi\n        /* \"@openzeppelin/contracts/access/Ownable.sol\":2700:2701  0 */\n      0x00\n        /* \"@openzeppelin/contracts/access/Ownable.sol\":2672:2703  OwnableInvalidOwner(address(0)) */\n      mload(0x40)\n      0x1e4fbdf700000000000000000000000000000000000000000000000000000000\n      dup2\n      mstore\n      0x04\n      add\n      tag_112\n      swap2\n      swap1\n      tag_35\n      jump\t// in\n    tag_112:\n      mload(0x40)\n      dup1\n      swap2\n      sub\n      swap1\n      revert\n        /* \"@openzeppelin/contracts/access/Ownable.sol\":2623:2714  if (newOwner == address(0)) {... */\n    tag_111:\n        /* \"@openzeppelin/contracts/access/Ownable.sol\":2723:2751  _transferOwnership(newOwner) */\n      tag_113\n        /* \"@openzeppelin/contracts/access/Ownable.sol\":2742:2750  newOwner */\n      dup2\n        /* \"@openzeppelin/contracts/access/Ownable.sol\":2723:2741  _transferOwnership */\n      tag_89\n        /* \"@openzeppelin/contracts/access/Ownable.sol\":2723:2751  _transferOwnership(newOwner) */\n      jump\t// in\n    tag_113:\n        /* \"@openzeppelin/contracts/access/Ownable.sol\":2543:2758  function transferOwnership(address newOwner) public virtual onlyOwner {... */\n      pop\n      jump\t// out\n        /* \"E/economicUtil.sol\":821:864  mapping(address => uint256) public deposits */\n    tag_48:\n      mstore(0x20, 0x04)\n      dup1\n      0x00\n      mstore\n      keccak256(0x00, 0x40)\n      0x00\n      swap2\n      pop\n      swap1\n      pop\n      sload\n      dup2\n      jump\t// out\n        /* \"@openzeppelin/contracts/security/ReentrancyGuard.sol\":2336:2623  function _nonReentrantBefore() private {... */\n    tag_52:\n        /* \"@openzeppelin/contracts/security/ReentrancyGuard.sol\":1759:1760  2 */\n      0x02\n        /* \"@openzeppelin/contracts/security/ReentrancyGuard.sol\":2468:2475  _status */\n      sload(0x01)\n        /* \"@openzeppelin/contracts/security/ReentrancyGuard.sol\":2468:2487  _status != _ENTERED */\n      sub\n        /* \"@openzeppelin/contracts/security/ReentrancyGuard.sol\":2460:2523  require(_status != _ENTERED, \"ReentrancyGuard: reentrant call\") */\n      tag_115\n      jumpi\n      mload(0x40)\n      0x08c379a000000000000000000000000000000000000000000000000000000000\n      dup2\n      mstore\n      0x04\n      add\n      tag_116\n      swap1\n      tag_117\n      jump\t// in\n    tag_116:\n      mload(0x40)\n      dup1\n      swap2\n      sub\n      swap1\n      revert\n    tag_115:\n        /* \"@openzeppelin/contracts/security/ReentrancyGuard.sol\":1759:1760  2 */\n      0x02\n        /* \"@openzeppelin/contracts/security/ReentrancyGuard.sol\":2598:2605  _status */\n      0x01\n        /* \"@openzeppelin/contracts/security/ReentrancyGuard.sol\":2598:2616  _status = _ENTERED */\n      dup2\n      swap1\n      sstore\n      pop\n        /* \"@openzeppelin/contracts/security/ReentrancyGuard.sol\":2336:2623  function _nonReentrantBefore() private {... */\n      jump\t// out\n        /* \"@openzeppelin/contracts/security/ReentrancyGuard.sol\":2629:2838  function _nonReentrantAfter() private {... */\n    tag_73:\n        /* \"@openzeppelin/contracts/security/ReentrancyGuard.sol\":1716:1717  1 */\n      0x01\n        /* \"@openzeppelin/contracts/security/ReentrancyGuard.sol\":2809:2816  _status */\n      dup1\n        /* \"@openzeppelin/contracts/security/ReentrancyGuard.sol\":2809:2831  _status = _NOT_ENTERED */\n      dup2\n      swap1\n      sstore\n      pop\n        /* \"@openzeppelin/contracts/security/ReentrancyGuard.sol\":2629:2838  function _nonReentrantAfter() private {... */\n      jump\t// out\n        /* \"@openzeppelin/contracts/access/Ownable.sol\":1796:1958  function _checkOwner() internal view virtual {... */\n    tag_76:\n        /* \"@openzeppelin/contracts/access/Ownable.sol\":1866:1878  _msgSender() */\n      tag_120\n        /* \"@openzeppelin/contracts/access/Ownable.sol\":1866:1876  _msgSender */\n      tag_121\n        /* \"@openzeppelin/contracts/access/Ownable.sol\":1866:1878  _msgSender() */\n      jump\t// in\n    tag_120:\n        /* \"@openzeppelin/contracts/access/Ownable.sol\":1855:1878  owner() != _msgSender() */\n      0xffffffffffffffffffffffffffffffffffffffff\n      and\n        /* \"@openzeppelin/contracts/access/Ownable.sol\":1855:1862  owner() */\n      tag_122\n        /* \"@openzeppelin/contracts/access/Ownable.sol\":1855:1860  owner */\n      tag_33\n        /* \"@openzeppelin/contracts/access/Ownable.sol\":1855:1862  owner() */\n      jump\t// in\n    tag_122:\n        /* \"@openzeppelin/contracts/access/Ownable.sol\":1855:1878  owner() != _msgSender() */\n      0xffffffffffffffffffffffffffffffffffffffff\n      and\n      eq\n        /* \"@openzeppelin/contracts/access/Ownable.sol\":1851:1952  if (owner() != _msgSender()) {... */\n      tag_123\n      jumpi\n        /* \"@openzeppelin/contracts/access/Ownable.sol\":1928:1940  _msgSender() */\n      tag_124\n        /* \"@openzeppelin/contracts/access/Ownable.sol\":1928:1938  _msgSender */\n      tag_121\n        /* \"@openzeppelin/contracts/access/Ownable.sol\":1928:1940  _msgSender() */\n      jump\t// in\n    tag_124:\n        /* \"@openzeppelin/contracts/access/Ownable.sol\":1901:1941  OwnableUnauthorizedAccount(_msgSender()) */\n      mload(0x40)\n      0x118cdaa700000000000000000000000000000000000000000000000000000000\n      dup2\n      mstore\n      0x04\n      add\n      tag_125\n      swap2\n      swap1\n      tag_35\n      jump\t// in\n    tag_125:\n      mload(0x40)\n      dup1\n      swap2\n      sub\n      swap1\n      revert\n        /* \"@openzeppelin/contracts/access/Ownable.sol\":1851:1952  if (owner() != _msgSender()) {... */\n    tag_123:\n        /* \"@openzeppelin/contracts/access/Ownable.sol\":1796:1958  function _checkOwner() internal view virtual {... */\n      jump\t// out\n        /* \"@openzeppelin/contracts/access/Ownable.sol\":2912:3099  function _transferOwnership(address newOwner) internal virtual {... */\n    tag_89:\n        /* \"@openzeppelin/contracts/access/Ownable.sol\":2985:3001  address oldOwner */\n      0x00\n        /* \"@openzeppelin/contracts/access/Ownable.sol\":3004:3010  _owner */\n      dup1\n      0x00\n      swap1\n      sload\n      swap1\n      0x0100\n      exp\n      swap1\n      div\n      0xffffffffffffffffffffffffffffffffffffffff\n      and\n        /* \"@openzeppelin/contracts/access/Ownable.sol\":2985:3010  address oldOwner = _owner */\n      swap1\n      pop\n        /* \"@openzeppelin/contracts/access/Ownable.sol\":3029:3037  newOwner */\n      dup2\n        /* \"@openzeppelin/contracts/access/Ownable.sol\":3020:3026  _owner */\n      0x00\n      dup1\n        /* \"@openzeppelin/contracts/access/Ownable.sol\":3020:3037  _owner = newOwner */\n      0x0100\n      exp\n      dup2\n      sload\n      dup2\n      0xffffffffffffffffffffffffffffffffffffffff\n      mul\n      not\n      and\n      swap1\n      dup4\n      0xffffffffffffffffffffffffffffffffffffffff\n      and\n      mul\n      or\n      swap1\n      sstore\n      pop\n        /* \"@openzeppelin/contracts/access/Ownable.sol\":3083:3091  newOwner */\n      dup2\n        /* \"@openzeppelin/contracts/access/Ownable.sol\":3052:3092  OwnershipTransferred(oldOwner, newOwner) */\n      0xffffffffffffffffffffffffffffffffffffffff\n      and\n        /* \"@openzeppelin/contracts/access/Ownable.sol\":3073:3081  oldOwner */\n      dup2\n        /* \"@openzeppelin/contracts/access/Ownable.sol\":3052:3092  OwnershipTransferred(oldOwner, newOwner) */\n      0xffffffffffffffffffffffffffffffffffffffff\n      and\n      0x8be0079c531659141344cd1fd0a4f28419497f9722a3daafe3b4186f6b6457e0\n      mload(0x40)\n      mload(0x40)\n      dup1\n      swap2\n      sub\n      swap1\n      log3\n        /* \"@openzeppelin/contracts/access/Ownable.sol\":2975:3099  {... */\n      pop\n        /* \"@openzeppelin/contracts/access/Ownable.sol\":2912:3099  function _transferOwnership(address newOwner) internal virtual {... */\n      pop\n      jump\t// out\n        /* \"@openzeppelin/contracts/utils/Context.sol\":656:752  function _msgSender() internal view virtual returns (address) {... */\n    tag_121:\n        /* \"@openzeppelin/contracts/utils/Context.sol\":709:716  address */\n      0x00\n        /* \"@openzeppelin/contracts/utils/Context.sol\":735:745  msg.sender */\n      caller\n        /* \"@openzeppelin/contracts/utils/Context.sol\":728:745  return msg.sender */\n      swap1\n      pop\n        /* \"@openzeppelin/contracts/utils/Context.sol\":656:752  function _msgSender() internal view virtual returns (address) {... */\n      swap1\n      jump\t// out\n        /* \"#utility.yul\":7:84   */\n    tag_128:\n        /* \"#utility.yul\":44:51   */\n      0x00\n        /* \"#utility.yul\":73:78   */\n      dup2\n        /* \"#utility.yul\":62:78   */\n      swap1\n      pop\n        /* \"#utility.yul\":7:84   */\n      swap2\n      swap1\n      pop\n      jump\t// out\n        /* \"#utility.yul\":90:208   */\n    tag_129:\n        /* \"#utility.yul\":177:201   */\n      tag_165\n        /* \"#utility.yul\":195:200   */\n      dup2\n        /* \"#utility.yul\":177:201   */\n      tag_128\n      jump\t// in\n    tag_165:\n        /* \"#utility.yul\":172:175   */\n      dup3\n        /* \"#utility.yul\":165:202   */\n      mstore\n        /* \"#utility.yul\":90:208   */\n      pop\n      pop\n      jump\t// out\n        /* \"#utility.yul\":214:436   */\n    tag_17:\n        /* \"#utility.yul\":307:311   */\n      0x00\n        /* \"#utility.yul\":345:347   */\n      0x20\n        /* \"#utility.yul\":334:343   */\n      dup3\n        /* \"#utility.yul\":330:348   */\n      add\n        /* \"#utility.yul\":322:348   */\n      swap1\n      pop\n        /* \"#utility.yul\":358:429   */\n      tag_167\n        /* \"#utility.yul\":426:427   */\n      0x00\n        /* \"#utility.yul\":415:424   */\n      dup4\n        /* \"#utility.yul\":411:428   */\n      add\n        /* \"#utility.yul\":402:408   */\n      dup5\n        /* \"#utility.yul\":358:429   */\n      tag_129\n      jump\t// in\n    tag_167:\n        /* \"#utility.yul\":214:436   */\n      swap3\n      swap2\n      pop\n      pop\n      jump\t// out\n        /* \"#utility.yul\":523:640   */\n    tag_131:\n        /* \"#utility.yul\":632:633   */\n      0x00\n        /* \"#utility.yul\":629:630   */\n      dup1\n        /* \"#utility.yul\":622:634   */\n      revert\n        /* \"#utility.yul\":769:891   */\n    tag_133:\n        /* \"#utility.yul\":842:866   */\n      tag_172\n        /* \"#utility.yul\":860:865   */\n      dup2\n        /* \"#utility.yul\":842:866   */\n      tag_128\n      jump\t// in\n    tag_172:\n        /* \"#utility.yul\":835:840   */\n      dup2\n        /* \"#utility.yul\":832:867   */\n      eq\n        /* \"#utility.yul\":822:885   */\n      tag_173\n      jumpi\n        /* \"#utility.yul\":881:882   */\n      0x00\n        /* \"#utility.yul\":878:879   */\n      dup1\n        /* \"#utility.yul\":871:883   */\n      revert\n        /* \"#utility.yul\":822:885   */\n    tag_173:\n        /* \"#utility.yul\":769:891   */\n      pop\n      jump\t// out\n        /* \"#utility.yul\":897:1036   */\n    tag_134:\n        /* \"#utility.yul\":943:948   */\n      0x00\n        /* \"#utility.yul\":981:987   */\n      dup2\n        /* \"#utility.yul\":968:988   */\n      calldataload\n        /* \"#utility.yul\":959:988   */\n      swap1\n      pop\n        /* \"#utility.yul\":997:1030   */\n      tag_175\n        /* \"#utility.yul\":1024:1029   */\n      dup2\n        /* \"#utility.yul\":997:1030   */\n      tag_133\n      jump\t// in\n    tag_175:\n        /* \"#utility.yul\":897:1036   */\n      swap3\n      swap2\n      pop\n      pop\n      jump\t// out\n        /* \"#utility.yul\":1042:1371   */\n    tag_20:\n        /* \"#utility.yul\":1101:1107   */\n      0x00\n        /* \"#utility.yul\":1150:1152   */\n      0x20\n        /* \"#utility.yul\":1138:1147   */\n      dup3\n        /* \"#utility.yul\":1129:1136   */\n      dup5\n        /* \"#utility.yul\":1125:1148   */\n      sub\n        /* \"#utility.yul\":1121:1153   */\n      slt\n        /* \"#utility.yul\":1118:1237   */\n      iszero\n      tag_177\n      jumpi\n        /* \"#utility.yul\":1156:1235   */\n      tag_178\n      tag_131\n      jump\t// in\n    tag_178:\n        /* \"#utility.yul\":1118:1237   */\n    tag_177:\n        /* \"#utility.yul\":1276:1277   */\n      0x00\n        /* \"#utility.yul\":1301:1354   */\n      tag_179\n        /* \"#utility.yul\":1346:1353   */\n      dup5\n        /* \"#utility.yul\":1337:1343   */\n      dup3\n        /* \"#utility.yul\":1326:1335   */\n      dup6\n        /* \"#utility.yul\":1322:1344   */\n      add\n        /* \"#utility.yul\":1301:1354   */\n      tag_134\n      jump\t// in\n    tag_179:\n        /* \"#utility.yul\":1291:1354   */\n      swap2\n      pop\n        /* \"#utility.yul\":1247:1364   */\n      pop\n        /* \"#utility.yul\":1042:1371   */\n      swap3\n      swap2\n      pop\n      pop\n      jump\t// out\n        /* \"#utility.yul\":1377:1503   */\n    tag_135:\n        /* \"#utility.yul\":1414:1421   */\n      0x00\n        /* \"#utility.yul\":1454:1496   */\n      0xffffffffffffffffffffffffffffffffffffffff\n        /* \"#utility.yul\":1447:1452   */\n      dup3\n        /* \"#utility.yul\":1443:1497   */\n      and\n        /* \"#utility.yul\":1432:1497   */\n      swap1\n      pop\n        /* \"#utility.yul\":1377:1503   */\n      swap2\n      swap1\n      pop\n      jump\t// out\n        /* \"#utility.yul\":1509:1605   */\n    tag_136:\n        /* \"#utility.yul\":1546:1553   */\n      0x00\n        /* \"#utility.yul\":1575:1599   */\n      tag_182\n        /* \"#utility.yul\":1593:1598   */\n      dup3\n        /* \"#utility.yul\":1575:1599   */\n      tag_135\n      jump\t// in\n    tag_182:\n        /* \"#utility.yul\":1564:1599   */\n      swap1\n      pop\n        /* \"#utility.yul\":1509:1605   */\n      swap2\n      swap1\n      pop\n      jump\t// out\n        /* \"#utility.yul\":1611:1733   */\n    tag_137:\n        /* \"#utility.yul\":1684:1708   */\n      tag_184\n        /* \"#utility.yul\":1702:1707   */\n      dup2\n        /* \"#utility.yul\":1684:1708   */\n      tag_136\n      jump\t// in\n    tag_184:\n        /* \"#utility.yul\":1677:1682   */\n      dup2\n        /* \"#utility.yul\":1674:1709   */\n      eq\n        /* \"#utility.yul\":1664:1727   */\n      tag_185\n      jumpi\n        /* \"#utility.yul\":1723:1724   */\n      0x00\n        /* \"#utility.yul\":1720:1721   */\n      dup1\n        /* \"#utility.yul\":1713:1725   */\n      revert\n        /* \"#utility.yul\":1664:1727   */\n    tag_185:\n        /* \"#utility.yul\":1611:1733   */\n      pop\n      jump\t// out\n        /* \"#utility.yul\":1739:1878   */\n    tag_138:\n        /* \"#utility.yul\":1785:1790   */\n      0x00\n        /* \"#utility.yul\":1823:1829   */\n      dup2\n        /* \"#utility.yul\":1810:1830   */\n      calldataload\n        /* \"#utility.yul\":1801:1830   */\n      swap1\n      pop\n        /* \"#utility.yul\":1839:1872   */\n      tag_187\n        /* \"#utility.yul\":1866:1871   */\n      dup2\n        /* \"#utility.yul\":1839:1872   */\n      tag_137\n      jump\t// in\n    tag_187:\n        /* \"#utility.yul\":1739:1878   */\n      swap3\n      swap2\n      pop\n      pop\n      jump\t// out\n        /* \"#utility.yul\":1884:2213   */\n    tag_27:\n        /* \"#utility.yul\":1943:1949   */\n      0x00\n        /* \"#utility.yul\":1992:1994   */\n      0x20\n        /* \"#utility.yul\":1980:1989   */\n      dup3\n        /* \"#utility.yul\":1971:1978   */\n      dup5\n        /* \"#utility.yul\":1967:1990   */\n      sub\n        /* \"#utility.yul\":1963:1995   */\n      slt\n        /* \"#utility.yul\":1960:2079   */\n      iszero\n      tag_189\n      jumpi\n        /* \"#utility.yul\":1998:2077   */\n      tag_190\n      tag_131\n      jump\t// in\n    tag_190:\n        /* \"#utility.yul\":1960:2079   */\n    tag_189:\n        /* \"#utility.yul\":2118:2119   */\n      0x00\n        /* \"#utility.yul\":2143:2196   */\n      tag_191\n        /* \"#utility.yul\":2188:2195   */\n      dup5\n        /* \"#utility.yul\":2179:2185   */\n      dup3\n        /* \"#utility.yul\":2168:2177   */\n      dup6\n        /* \"#utility.yul\":2164:2186   */\n      add\n        /* \"#utility.yul\":2143:2196   */\n      tag_138\n      jump\t// in\n    tag_191:\n        /* \"#utility.yul\":2133:2196   */\n      swap2\n      pop\n        /* \"#utility.yul\":2089:2206   */\n      pop\n        /* \"#utility.yul\":1884:2213   */\n      swap3\n      swap2\n      pop\n      pop\n      jump\t// out\n        /* \"#utility.yul\":2219:2337   */\n    tag_139:\n        /* \"#utility.yul\":2306:2330   */\n      tag_193\n        /* \"#utility.yul\":2324:2329   */\n      dup2\n        /* \"#utility.yul\":2306:2330   */\n      tag_136\n      jump\t// in\n    tag_193:\n        /* \"#utility.yul\":2301:2304   */\n      dup3\n        /* \"#utility.yul\":2294:2331   */\n      mstore\n        /* \"#utility.yul\":2219:2337   */\n      pop\n      pop\n      jump\t// out\n        /* \"#utility.yul\":2343:2565   */\n    tag_35:\n        /* \"#utility.yul\":2436:2440   */\n      0x00\n        /* \"#utility.yul\":2474:2476   */\n      0x20\n        /* \"#utility.yul\":2463:2472   */\n      dup3\n        /* \"#utility.yul\":2459:2477   */\n      add\n        /* \"#utility.yul\":2451:2477   */\n      swap1\n      pop\n        /* \"#utility.yul\":2487:2558   */\n      tag_195\n        /* \"#utility.yul\":2555:2556   */\n      0x00\n        /* \"#utility.yul\":2544:2553   */\n      dup4\n        /* \"#utility.yul\":2540:2557   */\n      add\n        /* \"#utility.yul\":2531:2537   */\n      dup5\n        /* \"#utility.yul\":2487:2558   */\n      tag_139\n      jump\t// in\n    tag_195:\n        /* \"#utility.yul\":2343:2565   */\n      swap3\n      swap2\n      pop\n      pop\n      jump\t// out\n        /* \"#utility.yul\":2571:2631   */\n    tag_140:\n        /* \"#utility.yul\":2599:2602   */\n      0x00\n        /* \"#utility.yul\":2620:2625   */\n      dup2\n        /* \"#utility.yul\":2613:2625   */\n      swap1\n      pop\n        /* \"#utility.yul\":2571:2631   */\n      swap2\n      swap1\n      pop\n      jump\t// out\n        /* \"#utility.yul\":2637:2779   */\n    tag_141:\n        /* \"#utility.yul\":2687:2696   */\n      0x00\n        /* \"#utility.yul\":2720:2773   */\n      tag_198\n        /* \"#utility.yul\":2738:2772   */\n      tag_199\n        /* \"#utility.yul\":2747:2771   */\n      tag_200\n        /* \"#utility.yul\":2765:2770   */\n      dup5\n        /* \"#utility.yul\":2747:2771   */\n      tag_135\n      jump\t// in\n    tag_200:\n        /* \"#utility.yul\":2738:2772   */\n      tag_140\n      jump\t// in\n    tag_199:\n        /* \"#utility.yul\":2720:2773   */\n      tag_135\n      jump\t// in\n    tag_198:\n        /* \"#utility.yul\":2707:2773   */\n      swap1\n      pop\n        /* \"#utility.yul\":2637:2779   */\n      swap2\n      swap1\n      pop\n      jump\t// out\n        /* \"#utility.yul\":2785:2911   */\n    tag_142:\n        /* \"#utility.yul\":2835:2844   */\n      0x00\n        /* \"#utility.yul\":2868:2905   */\n      tag_202\n        /* \"#utility.yul\":2899:2904   */\n      dup3\n        /* \"#utility.yul\":2868:2905   */\n      tag_141\n      jump\t// in\n    tag_202:\n        /* \"#utility.yul\":2855:2905   */\n      swap1\n      pop\n        /* \"#utility.yul\":2785:2911   */\n      swap2\n      swap1\n      pop\n      jump\t// out\n        /* \"#utility.yul\":2917:3057   */\n    tag_143:\n        /* \"#utility.yul\":2981:2990   */\n      0x00\n        /* \"#utility.yul\":3014:3051   */\n      tag_204\n        /* \"#utility.yul\":3045:3050   */\n      dup3\n        /* \"#utility.yul\":3014:3051   */\n      tag_142\n      jump\t// in\n    tag_204:\n        /* \"#utility.yul\":3001:3051   */\n      swap1\n      pop\n        /* \"#utility.yul\":2917:3057   */\n      swap2\n      swap1\n      pop\n      jump\t// out\n        /* \"#utility.yul\":3063:3222   */\n    tag_144:\n        /* \"#utility.yul\":3164:3215   */\n      tag_206\n        /* \"#utility.yul\":3209:3214   */\n      dup2\n        /* \"#utility.yul\":3164:3215   */\n      tag_143\n      jump\t// in\n    tag_206:\n        /* \"#utility.yul\":3159:3162   */\n      dup3\n        /* \"#utility.yul\":3152:3216   */\n      mstore\n        /* \"#utility.yul\":3063:3222   */\n      pop\n      pop\n      jump\t// out\n        /* \"#utility.yul\":3228:3478   */\n    tag_42:\n        /* \"#utility.yul\":3335:3339   */\n      0x00\n        /* \"#utility.yul\":3373:3375   */\n      0x20\n        /* \"#utility.yul\":3362:3371   */\n      dup3\n        /* \"#utility.yul\":3358:3376   */\n      add\n        /* \"#utility.yul\":3350:3376   */\n      swap1\n      pop\n        /* \"#utility.yul\":3386:3471   */\n      tag_208\n        /* \"#utility.yul\":3468:3469   */\n      0x00\n        /* \"#utility.yul\":3457:3466   */\n      dup4\n        /* \"#utility.yul\":3453:3470   */\n      add\n        /* \"#utility.yul\":3444:3450   */\n      dup5\n        /* \"#utility.yul\":3386:3471   */\n      tag_144\n      jump\t// in\n    tag_208:\n        /* \"#utility.yul\":3228:3478   */\n      swap3\n      swap2\n      pop\n      pop\n      jump\t// out\n        /* \"#utility.yul\":3484:3653   */\n    tag_145:\n        /* \"#utility.yul\":3568:3579   */\n      0x00\n        /* \"#utility.yul\":3602:3608   */\n      dup3\n        /* \"#utility.yul\":3597:3600   */\n      dup3\n        /* \"#utility.yul\":3590:3609   */\n      mstore\n        /* \"#utility.yul\":3642:3646   */\n      0x20\n        /* \"#utility.yul\":3637:3640   */\n      dup3\n        /* \"#utility.yul\":3633:3647   */\n      add\n        /* \"#utility.yul\":3618:3647   */\n      swap1\n      pop\n        /* \"#utility.yul\":3484:3653   */\n      swap3\n      swap2\n      pop\n      pop\n      jump\t// out\n        /* \"#utility.yul\":3659:3836   */\n    tag_146:\n        /* \"#utility.yul\":3799:3828   */\n      0x576974686472617720616d6f756e74206d757374206265203e20300000000000\n        /* \"#utility.yul\":3795:3796   */\n      0x00\n        /* \"#utility.yul\":3787:3793   */\n      dup3\n        /* \"#utility.yul\":3783:3797   */\n      add\n        /* \"#utility.yul\":3776:3829   */\n      mstore\n        /* \"#utility.yul\":3659:3836   */\n      pop\n      jump\t// out\n        /* \"#utility.yul\":3842:4208   */\n    tag_147:\n        /* \"#utility.yul\":3984:3987   */\n      0x00\n        /* \"#utility.yul\":4005:4072   */\n      tag_212\n        /* \"#utility.yul\":4069:4071   */\n      0x1b\n        /* \"#utility.yul\":4064:4067   */\n      dup4\n        /* \"#utility.yul\":4005:4072   */\n      tag_145\n      jump\t// in\n    tag_212:\n        /* \"#utility.yul\":3998:4072   */\n      swap2\n      pop\n        /* \"#utility.yul\":4081:4174   */\n      tag_213\n        /* \"#utility.yul\":4170:4173   */\n      dup3\n        /* \"#utility.yul\":4081:4174   */\n      tag_146\n      jump\t// in\n    tag_213:\n        /* \"#utility.yul\":4199:4201   */\n      0x20\n        /* \"#utility.yul\":4194:4197   */\n      dup3\n        /* \"#utility.yul\":4190:4202   */\n      add\n        /* \"#utility.yul\":4183:4202   */\n      swap1\n      pop\n        /* \"#utility.yul\":3842:4208   */\n      swap2\n      swap1\n      pop\n      jump\t// out\n        /* \"#utility.yul\":4214:4633   */\n    tag_56:\n        /* \"#utility.yul\":4380:4384   */\n      0x00\n        /* \"#utility.yul\":4418:4420   */\n      0x20\n        /* \"#utility.yul\":4407:4416   */\n      dup3\n        /* \"#utility.yul\":4403:4421   */\n      add\n        /* \"#utility.yul\":4395:4421   */\n      swap1\n      pop\n        /* \"#utility.yul\":4467:4476   */\n      dup2\n        /* \"#utility.yul\":4461:4465   */\n      dup2\n        /* \"#utility.yul\":4457:4477   */\n      sub\n        /* \"#utility.yul\":4453:4454   */\n      0x00\n        /* \"#utility.yul\":4442:4451   */\n      dup4\n        /* \"#utility.yul\":4438:4455   */\n      add\n        /* \"#utility.yul\":4431:4478   */\n      mstore\n        /* \"#utility.yul\":4495:4626   */\n      tag_215\n        /* \"#utility.yul\":4621:4625   */\n      dup2\n        /* \"#utility.yul\":4495:4626   */\n      tag_147\n      jump\t// in\n    tag_215:\n        /* \"#utility.yul\":4487:4626   */\n      swap1\n      pop\n        /* \"#utility.yul\":4214:4633   */\n      swap2\n      swap1\n      pop\n      jump\t// out\n        /* \"#utility.yul\":4639:4819   */\n    tag_148:\n        /* \"#utility.yul\":4779:4811   */\n      0x496e73756666696369656e74206465706f73697465642062616c616e63650000\n        /* \"#utility.yul\":4775:4776   */\n      0x00\n        /* \"#utility.yul\":4767:4773   */\n      dup3\n        /* \"#utility.yul\":4763:4777   */\n      add\n        /* \"#utility.yul\":4756:4812   */\n      mstore\n        /* \"#utility.yul\":4639:4819   */\n      pop\n      jump\t// out\n        /* \"#utility.yul\":4825:5191   */\n    tag_149:\n        /* \"#utility.yul\":4967:4970   */\n      0x00\n        /* \"#utility.yul\":4988:5055   */\n      tag_218\n        /* \"#utility.yul\":5052:5054   */\n      0x1e\n        /* \"#utility.yul\":5047:5050   */\n      dup4\n        /* \"#utility.yul\":4988:5055   */\n      tag_145\n      jump\t// in\n    tag_218:\n        /* \"#utility.yul\":4981:5055   */\n      swap2\n      pop\n        /* \"#utility.yul\":5064:5157   */\n      tag_219\n        /* \"#utility.yul\":5153:5156   */\n      dup3\n        /* \"#utility.yul\":5064:5157   */\n      tag_148\n      jump\t// in\n    tag_219:\n        /* \"#utility.yul\":5182:5184   */\n      0x20\n        /* \"#utility.yul\":5177:5180   */\n      dup3\n        /* \"#utility.yul\":5173:5185   */\n      add\n        /* \"#utility.yul\":5166:5185   */\n      swap1\n      pop\n        /* \"#utility.yul\":4825:5191   */\n      swap2\n      swap1\n      pop\n      jump\t// out\n        /* \"#utility.yul\":5197:5616   */\n    tag_59:\n        /* \"#utility.yul\":5363:5367   */\n      0x00\n        /* \"#utility.yul\":5401:5403   */\n      0x20\n        /* \"#utility.yul\":5390:5399   */\n      dup3\n        /* \"#utility.yul\":5386:5404   */\n      add\n        /* \"#utility.yul\":5378:5404   */\n      swap1\n      pop\n        /* \"#utility.yul\":5450:5459   */\n      dup2\n        /* \"#utility.yul\":5444:5448   */\n      dup2\n        /* \"#utility.yul\":5440:5460   */\n      sub\n        /* \"#utility.yul\":5436:5437   */\n      0x00\n        /* \"#utility.yul\":5425:5434   */\n      dup4\n        /* \"#utility.yul\":5421:5438   */\n      add\n        /* \"#utility.yul\":5414:5461   */\n      mstore\n        /* \"#utility.yul\":5478:5609   */\n      tag_221\n        /* \"#utility.yul\":5604:5608   */\n      dup2\n        /* \"#utility.yul\":5478:5609   */\n      tag_149\n      jump\t// in\n    tag_221:\n        /* \"#utility.yul\":5470:5609   */\n      swap1\n      pop\n        /* \"#utility.yul\":5197:5616   */\n      swap2\n      swap1\n      pop\n      jump\t// out\n        /* \"#utility.yul\":5622:5802   */\n    tag_150:\n        /* \"#utility.yul\":5670:5747   */\n      0x4e487b7100000000000000000000000000000000000000000000000000000000\n        /* \"#utility.yul\":5667:5668   */\n      0x00\n        /* \"#utility.yul\":5660:5748   */\n      mstore\n        /* \"#utility.yul\":5767:5771   */\n      0x11\n        /* \"#utility.yul\":5764:5765   */\n      0x04\n        /* \"#utility.yul\":5757:5772   */\n      mstore\n        /* \"#utility.yul\":5791:5795   */\n      0x24\n        /* \"#utility.yul\":5788:5789   */\n      0x00\n        /* \"#utility.yul\":5781:5796   */\n      revert\n        /* \"#utility.yul\":5808:6002   */\n    tag_61:\n        /* \"#utility.yul\":5848:5852   */\n      0x00\n        /* \"#utility.yul\":5868:5888   */\n      tag_224\n        /* \"#utility.yul\":5886:5887   */\n      dup3\n        /* \"#utility.yul\":5868:5888   */\n      tag_128\n      jump\t// in\n    tag_224:\n        /* \"#utility.yul\":5863:5888   */\n      swap2\n      pop\n        /* \"#utility.yul\":5902:5922   */\n      tag_225\n        /* \"#utility.yul\":5920:5921   */\n      dup4\n        /* \"#utility.yul\":5902:5922   */\n      tag_128\n      jump\t// in\n    tag_225:\n        /* \"#utility.yul\":5897:5922   */\n      swap3\n      pop\n        /* \"#utility.yul\":5946:5947   */\n      dup3\n        /* \"#utility.yul\":5943:5944   */\n      dup3\n        /* \"#utility.yul\":5939:5948   */\n      sub\n        /* \"#utility.yul\":5931:5948   */\n      swap1\n      pop\n        /* \"#utility.yul\":5970:5971   */\n      dup2\n        /* \"#utility.yul\":5964:5968   */\n      dup2\n        /* \"#utility.yul\":5961:5972   */\n      gt\n        /* \"#utility.yul\":5958:5995   */\n      iszero\n      tag_226\n      jumpi\n        /* \"#utility.yul\":5975:5993   */\n      tag_227\n      tag_150\n      jump\t// in\n    tag_227:\n        /* \"#utility.yul\":5958:5995   */\n    tag_226:\n        /* \"#utility.yul\":5808:6002   */\n      swap3\n      swap2\n      pop\n      pop\n      jump\t// out\n        /* \"#utility.yul\":6008:6340   */\n    tag_63:\n        /* \"#utility.yul\":6129:6133   */\n      0x00\n        /* \"#utility.yul\":6167:6169   */\n      0x40\n        /* \"#utility.yul\":6156:6165   */\n      dup3\n        /* \"#utility.yul\":6152:6170   */\n      add\n        /* \"#utility.yul\":6144:6170   */\n      swap1\n      pop\n        /* \"#utility.yul\":6180:6251   */\n      tag_229\n        /* \"#utility.yul\":6248:6249   */\n      0x00\n        /* \"#utility.yul\":6237:6246   */\n      dup4\n        /* \"#utility.yul\":6233:6250   */\n      add\n        /* \"#utility.yul\":6224:6230   */\n      dup6\n        /* \"#utility.yul\":6180:6251   */\n      tag_139\n      jump\t// in\n    tag_229:\n        /* \"#utility.yul\":6261:6333   */\n      tag_230\n        /* \"#utility.yul\":6329:6331   */\n      0x20\n        /* \"#utility.yul\":6318:6327   */\n      dup4\n        /* \"#utility.yul\":6314:6332   */\n      add\n        /* \"#utility.yul\":6305:6311   */\n      dup5\n        /* \"#utility.yul\":6261:6333   */\n      tag_129\n      jump\t// in\n    tag_230:\n        /* \"#utility.yul\":6008:6340   */\n      swap4\n      swap3\n      pop\n      pop\n      pop\n      jump\t// out\n        /* \"#utility.yul\":6346:6436   */\n    tag_151:\n        /* \"#utility.yul\":6380:6387   */\n      0x00\n        /* \"#utility.yul\":6423:6428   */\n      dup2\n        /* \"#utility.yul\":6416:6429   */\n      iszero\n        /* \"#utility.yul\":6409:6430   */\n      iszero\n        /* \"#utility.yul\":6398:6430   */\n      swap1\n      pop\n        /* \"#utility.yul\":6346:6436   */\n      swap2\n      swap1\n      pop\n      jump\t// out\n        /* \"#utility.yul\":6442:6558   */\n    tag_152:\n        /* \"#utility.yul\":6512:6533   */\n      tag_233\n        /* \"#utility.yul\":6527:6532   */\n      dup2\n        /* \"#utility.yul\":6512:6533   */\n      tag_151\n      jump\t// in\n    tag_233:\n        /* \"#utility.yul\":6505:6510   */\n      dup2\n        /* \"#utility.yul\":6502:6534   */\n      eq\n        /* \"#utility.yul\":6492:6552   */\n      tag_234\n      jumpi\n        /* \"#utility.yul\":6548:6549   */\n      0x00\n        /* \"#utility.yul\":6545:6546   */\n      dup1\n        /* \"#utility.yul\":6538:6550   */\n      revert\n        /* \"#utility.yul\":6492:6552   */\n    tag_234:\n        /* \"#utility.yul\":6442:6558   */\n      pop\n      jump\t// out\n        /* \"#utility.yul\":6564:6701   */\n    tag_153:\n        /* \"#utility.yul\":6618:6623   */\n      0x00\n        /* \"#utility.yul\":6649:6655   */\n      dup2\n        /* \"#utility.yul\":6643:6656   */\n      mload\n        /* \"#utility.yul\":6634:6656   */\n      swap1\n      pop\n        /* \"#utility.yul\":6665:6695   */\n      tag_236\n        /* \"#utility.yul\":6689:6694   */\n      dup2\n        /* \"#utility.yul\":6665:6695   */\n      tag_152\n      jump\t// in\n    tag_236:\n        /* \"#utility.yul\":6564:6701   */\n      swap3\n      swap2\n      pop\n      pop\n      jump\t// out\n        /* \"#utility.yul\":6707:7052   */\n    tag_67:\n        /* \"#utility.yul\":6774:6780   */\n      0x00\n        /* \"#utility.yul\":6823:6825   */\n      0x20\n        /* \"#utility.yul\":6811:6820   */\n      dup3\n        /* \"#utility.yul\":6802:6809   */\n      dup5\n        /* \"#utility.yul\":6798:6821   */\n      sub\n        /* \"#utility.yul\":6794:6826   */\n      slt\n        /* \"#utility.yul\":6791:6910   */\n      iszero\n      tag_238\n      jumpi\n        /* \"#utility.yul\":6829:6908   */\n      tag_239\n      tag_131\n      jump\t// in\n    tag_239:\n        /* \"#utility.yul\":6791:6910   */\n    tag_238:\n        /* \"#utility.yul\":6949:6950   */\n      0x00\n        /* \"#utility.yul\":6974:7035   */\n      tag_240\n        /* \"#utility.yul\":7027:7034   */\n      dup5\n        /* \"#utility.yul\":7018:7024   */\n      dup3\n        /* \"#utility.yul\":7007:7016   */\n      dup6\n        /* \"#utility.yul\":7003:7025   */\n      add\n        /* \"#utility.yul\":6974:7035   */\n      tag_153\n      jump\t// in\n    tag_240:\n        /* \"#utility.yul\":6964:7035   */\n      swap2\n      pop\n        /* \"#utility.yul\":6920:7045   */\n      pop\n        /* \"#utility.yul\":6707:7052   */\n      swap3\n      swap2\n      pop\n      pop\n      jump\t// out\n        /* \"#utility.yul\":7058:7229   */\n    tag_154:\n        /* \"#utility.yul\":7198:7221   */\n      0x546f6b656e207472616e73666572206661696c65640000000000000000000000\n        /* \"#utility.yul\":7194:7195   */\n      0x00\n        /* \"#utility.yul\":7186:7192   */\n      dup3\n        /* \"#utility.yul\":7182:7196   */\n      add\n        /* \"#utility.yul\":7175:7222   */\n      mstore\n        /* \"#utility.yul\":7058:7229   */\n      pop\n      jump\t// out\n        /* \"#utility.yul\":7235:7601   */\n    tag_155:\n        /* \"#utility.yul\":7377:7380   */\n      0x00\n        /* \"#utility.yul\":7398:7465   */\n      tag_243\n        /* \"#utility.yul\":7462:7464   */\n      0x15\n        /* \"#utility.yul\":7457:7460   */\n      dup4\n        /* \"#utility.yul\":7398:7465   */\n      tag_145\n      jump\t// in\n    tag_243:\n        /* \"#utility.yul\":7391:7465   */\n      swap2\n      pop\n        /* \"#utility.yul\":7474:7567   */\n      tag_244\n        /* \"#utility.yul\":7563:7566   */\n      dup3\n        /* \"#utility.yul\":7474:7567   */\n      tag_154\n      jump\t// in\n    tag_244:\n        /* \"#utility.yul\":7592:7594   */\n      0x20\n        /* \"#utility.yul\":7587:7590   */\n      dup3\n        /* \"#utility.yul\":7583:7595   */\n      add\n        /* \"#utility.yul\":7576:7595   */\n      swap1\n      pop\n        /* \"#utility.yul\":7235:7601   */\n      swap2\n      swap1\n      pop\n      jump\t// out\n        /* \"#utility.yul\":7607:8026   */\n    tag_70:\n        /* \"#utility.yul\":7773:7777   */\n      0x00\n        /* \"#utility.yul\":7811:7813   */\n      0x20\n        /* \"#utility.yul\":7800:7809   */\n      dup3\n        /* \"#utility.yul\":7796:7814   */\n      add\n        /* \"#utility.yul\":7788:7814   */\n      swap1\n      pop\n        /* \"#utility.yul\":7860:7869   */\n      dup2\n        /* \"#utility.yul\":7854:7858   */\n      dup2\n        /* \"#utility.yul\":7850:7870   */\n      sub\n        /* \"#utility.yul\":7846:7847   */\n      0x00\n        /* \"#utility.yul\":7835:7844   */\n      dup4\n        /* \"#utility.yul\":7831:7848   */\n      add\n        /* \"#utility.yul\":7824:7871   */\n      mstore\n        /* \"#utility.yul\":7888:8019   */\n      tag_246\n        /* \"#utility.yul\":8014:8018   */\n      dup2\n        /* \"#utility.yul\":7888:8019   */\n      tag_155\n      jump\t// in\n    tag_246:\n        /* \"#utility.yul\":7880:8019   */\n      swap1\n      pop\n        /* \"#utility.yul\":7607:8026   */\n      swap2\n      swap1\n      pop\n      jump\t// out\n        /* \"#utility.yul\":8032:8204   */\n    tag_156:\n        /* \"#utility.yul\":8172:8196   */\n      0x4d756c7469706c696572206d757374206265203e203000000000000000000000\n        /* \"#utility.yul\":8168:8169   */\n      0x00\n        /* \"#utility.yul\":8160:8166   */\n      dup3\n        /* \"#utility.yul\":8156:8170   */\n      add\n        /* \"#utility.yul\":8149:8197   */\n      mstore\n        /* \"#utility.yul\":8032:8204   */\n      pop\n      jump\t// out\n        /* \"#utility.yul\":8210:8576   */\n    tag_157:\n        /* \"#utility.yul\":8352:8355   */\n      0x00\n        /* \"#utility.yul\":8373:8440   */\n      tag_249\n        /* \"#utility.yul\":8437:8439   */\n      0x16\n        /* \"#utility.yul\":8432:8435   */\n      dup4\n        /* \"#utility.yul\":8373:8440   */\n      tag_145\n      jump\t// in\n    tag_249:\n        /* \"#utility.yul\":8366:8440   */\n      swap2\n      pop\n        /* \"#utility.yul\":8449:8542   */\n      tag_250\n        /* \"#utility.yul\":8538:8541   */\n      dup3\n        /* \"#utility.yul\":8449:8542   */\n      tag_156\n      jump\t// in\n    tag_250:\n        /* \"#utility.yul\":8567:8569   */\n      0x20\n        /* \"#utility.yul\":8562:8565   */\n      dup3\n        /* \"#utility.yul\":8558:8570   */\n      add\n        /* \"#utility.yul\":8551:8570   */\n      swap1\n      pop\n        /* \"#utility.yul\":8210:8576   */\n      swap2\n      swap1\n      pop\n      jump\t// out\n        /* \"#utility.yul\":8582:9001   */\n    tag_80:\n        /* \"#utility.yul\":8748:8752   */\n      0x00\n        /* \"#utility.yul\":8786:8788   */\n      0x20\n        /* \"#utility.yul\":8775:8784   */\n      dup3\n        /* \"#utility.yul\":8771:8789   */\n      add\n        /* \"#utility.yul\":8763:8789   */\n      swap1\n      pop\n        /* \"#utility.yul\":8835:8844   */\n      dup2\n        /* \"#utility.yul\":8829:8833   */\n      dup2\n        /* \"#utility.yul\":8825:8845   */\n      sub\n        /* \"#utility.yul\":8821:8822   */\n      0x00\n        /* \"#utility.yul\":8810:8819   */\n      dup4\n        /* \"#utility.yul\":8806:8823   */\n      add\n        /* \"#utility.yul\":8799:8846   */\n      mstore\n        /* \"#utility.yul\":8863:8994   */\n      tag_252\n        /* \"#utility.yul\":8989:8993   */\n      dup2\n        /* \"#utility.yul\":8863:8994   */\n      tag_157\n      jump\t// in\n    tag_252:\n        /* \"#utility.yul\":8855:8994   */\n      swap1\n      pop\n        /* \"#utility.yul\":8582:9001   */\n      swap2\n      swap1\n      pop\n      jump\t// out\n        /* \"#utility.yul\":9007:9417   */\n    tag_84:\n        /* \"#utility.yul\":9047:9054   */\n      0x00\n        /* \"#utility.yul\":9070:9090   */\n      tag_254\n        /* \"#utility.yul\":9088:9089   */\n      dup3\n        /* \"#utility.yul\":9070:9090   */\n      tag_128\n      jump\t// in\n    tag_254:\n        /* \"#utility.yul\":9065:9090   */\n      swap2\n      pop\n        /* \"#utility.yul\":9104:9124   */\n      tag_255\n        /* \"#utility.yul\":9122:9123   */\n      dup4\n        /* \"#utility.yul\":9104:9124   */\n      tag_128\n      jump\t// in\n    tag_255:\n        /* \"#utility.yul\":9099:9124   */\n      swap3\n      pop\n        /* \"#utility.yul\":9159:9160   */\n      dup3\n        /* \"#utility.yul\":9156:9157   */\n      dup3\n        /* \"#utility.yul\":9152:9161   */\n      mul\n        /* \"#utility.yul\":9181:9211   */\n      tag_256\n        /* \"#utility.yul\":9199:9210   */\n      dup2\n        /* \"#utility.yul\":9181:9211   */\n      tag_128\n      jump\t// in\n    tag_256:\n        /* \"#utility.yul\":9170:9211   */\n      swap2\n      pop\n        /* \"#utility.yul\":9360:9361   */\n      dup3\n        /* \"#utility.yul\":9351:9358   */\n      dup3\n        /* \"#utility.yul\":9347:9362   */\n      div\n        /* \"#utility.yul\":9344:9345   */\n      dup5\n        /* \"#utility.yul\":9341:9363   */\n      eq\n        /* \"#utility.yul\":9321:9322   */\n      dup4\n        /* \"#utility.yul\":9314:9323   */\n      iszero\n        /* \"#utility.yul\":9294:9377   */\n      or\n        /* \"#utility.yul\":9271:9410   */\n      tag_257\n      jumpi\n        /* \"#utility.yul\":9390:9408   */\n      tag_258\n      tag_150\n      jump\t// in\n    tag_258:\n        /* \"#utility.yul\":9271:9410   */\n    tag_257:\n        /* \"#utility.yul\":9055:9417   */\n      pop\n        /* \"#utility.yul\":9007:9417   */\n      swap3\n      swap2\n      pop\n      pop\n      jump\t// out\n        /* \"#utility.yul\":9423:9599   */\n    tag_158:\n        /* \"#utility.yul\":9563:9591   */\n      0x4465706f73697420616d6f756e74206d757374206265203e2030000000000000\n        /* \"#utility.yul\":9559:9560   */\n      0x00\n        /* \"#utility.yul\":9551:9557   */\n      dup3\n        /* \"#utility.yul\":9547:9561   */\n      add\n        /* \"#utility.yul\":9540:9592   */\n      mstore\n        /* \"#utility.yul\":9423:9599   */\n      pop\n      jump\t// out\n        /* \"#utility.yul\":9605:9971   */\n    tag_159:\n        /* \"#utility.yul\":9747:9750   */\n      0x00\n        /* \"#utility.yul\":9768:9835   */\n      tag_261\n        /* \"#utility.yul\":9832:9834   */\n      0x1a\n        /* \"#utility.yul\":9827:9830   */\n      dup4\n        /* \"#utility.yul\":9768:9835   */\n      tag_145\n      jump\t// in\n    tag_261:\n        /* \"#utility.yul\":9761:9835   */\n      swap2\n      pop\n        /* \"#utility.yul\":9844:9937   */\n      tag_262\n        /* \"#utility.yul\":9933:9936   */\n      dup3\n        /* \"#utility.yul\":9844:9937   */\n      tag_158\n      jump\t// in\n    tag_262:\n        /* \"#utility.yul\":9962:9964   */\n      0x20\n        /* \"#utility.yul\":9957:9960   */\n      dup3\n        /* \"#utility.yul\":9953:9965   */\n      add\n        /* \"#utility.yul\":9946:9965   */\n      swap1\n      pop\n        /* \"#utility.yul\":9605:9971   */\n      swap2\n      swap1\n      pop\n      jump\t// out\n        /* \"#utility.yul\":9977:10396   */\n    tag_96:\n        /* \"#utility.yul\":10143:10147   */\n      0x00\n        /* \"#utility.yul\":10181:10183   */\n      0x20\n        /* \"#utility.yul\":10170:10179   */\n      dup3\n        /* \"#utility.yul\":10166:10184   */\n      add\n        /* \"#utility.yul\":10158:10184   */\n      swap1\n      pop\n        /* \"#utility.yul\":10230:10239   */\n      dup2\n        /* \"#utility.yul\":10224:10228   */\n      dup2\n        /* \"#utility.yul\":10220:10240   */\n      sub\n        /* \"#utility.yul\":10216:10217   */\n      0x00\n        /* \"#utility.yul\":10205:10214   */\n      dup4\n        /* \"#utility.yul\":10201:10218   */\n      add\n        /* \"#utility.yul\":10194:10241   */\n      mstore\n        /* \"#utility.yul\":10258:10389   */\n      tag_264\n        /* \"#utility.yul\":10384:10388   */\n      dup2\n        /* \"#utility.yul\":10258:10389   */\n      tag_159\n      jump\t// in\n    tag_264:\n        /* \"#utility.yul\":10250:10389   */\n      swap1\n      pop\n        /* \"#utility.yul\":9977:10396   */\n      swap2\n      swap1\n      pop\n      jump\t// out\n        /* \"#utility.yul\":10402:10844   */\n    tag_98:\n        /* \"#utility.yul\":10551:10555   */\n      0x00\n        /* \"#utility.yul\":10589:10591   */\n      0x60\n        /* \"#utility.yul\":10578:10587   */\n      dup3\n        /* \"#utility.yul\":10574:10592   */\n      add\n        /* \"#utility.yul\":10566:10592   */\n      swap1\n      pop\n        /* \"#utility.yul\":10602:10673   */\n      tag_266\n        /* \"#utility.yul\":10670:10671   */\n      0x00\n        /* \"#utility.yul\":10659:10668   */\n      dup4\n        /* \"#utility.yul\":10655:10672   */\n      add\n        /* \"#utility.yul\":10646:10652   */\n      dup7\n        /* \"#utility.yul\":10602:10673   */\n      tag_139\n      jump\t// in\n    tag_266:\n        /* \"#utility.yul\":10683:10755   */\n      tag_267\n        /* \"#utility.yul\":10751:10753   */\n      0x20\n        /* \"#utility.yul\":10740:10749   */\n      dup4\n        /* \"#utility.yul\":10736:10754   */\n      add\n        /* \"#utility.yul\":10727:10733   */\n      dup6\n        /* \"#utility.yul\":10683:10755   */\n      tag_139\n      jump\t// in\n    tag_267:\n        /* \"#utility.yul\":10765:10837   */\n      tag_268\n        /* \"#utility.yul\":10833:10835   */\n      0x40\n        /* \"#utility.yul\":10822:10831   */\n      dup4\n        /* \"#utility.yul\":10818:10836   */\n      add\n        /* \"#utility.yul\":10809:10815   */\n      dup5\n        /* \"#utility.yul\":10765:10837   */\n      tag_129\n      jump\t// in\n    tag_268:\n        /* \"#utility.yul\":10402:10844   */\n      swap5\n      swap4\n      pop\n      pop\n      pop\n      pop\n      jump\t// out\n        /* \"#utility.yul\":10850:11041   */\n    tag_105:\n        /* \"#utility.yul\":10890:10893   */\n      0x00\n        /* \"#utility.yul\":10909:10929   */\n      tag_270\n        /* \"#utility.yul\":10927:10928   */\n      dup3\n        /* \"#utility.yul\":10909:10929   */\n      tag_128\n      jump\t// in\n    tag_270:\n        /* \"#utility.yul\":10904:10929   */\n      swap2\n      pop\n        /* \"#utility.yul\":10943:10963   */\n      tag_271\n        /* \"#utility.yul\":10961:10962   */\n      dup4\n        /* \"#utility.yul\":10943:10963   */\n      tag_128\n      jump\t// in\n    tag_271:\n        /* \"#utility.yul\":10938:10963   */\n      swap3\n      pop\n        /* \"#utility.yul\":10986:10987   */\n      dup3\n        /* \"#utility.yul\":10983:10984   */\n      dup3\n        /* \"#utility.yul\":10979:10988   */\n      add\n        /* \"#utility.yul\":10972:10988   */\n      swap1\n      pop\n        /* \"#utility.yul\":11007:11010   */\n      dup1\n        /* \"#utility.yul\":11004:11005   */\n      dup3\n        /* \"#utility.yul\":11001:11011   */\n      gt\n        /* \"#utility.yul\":10998:11034   */\n      iszero\n      tag_272\n      jumpi\n        /* \"#utility.yul\":11014:11032   */\n      tag_273\n      tag_150\n      jump\t// in\n    tag_273:\n        /* \"#utility.yul\":10998:11034   */\n    tag_272:\n        /* \"#utility.yul\":10850:11041   */\n      swap3\n      swap2\n      pop\n      pop\n      jump\t// out\n        /* \"#utility.yul\":11047:11228   */\n    tag_160:\n        /* \"#utility.yul\":11187:11220   */\n      0x5265656e7472616e637947756172643a207265656e7472616e742063616c6c00\n        /* \"#utility.yul\":11183:11184   */\n      0x00\n        /* \"#utility.yul\":11175:11181   */\n      dup3\n        /* \"#utility.yul\":11171:11185   */\n      add\n        /* \"#utility.yul\":11164:11221   */\n      mstore\n        /* \"#utility.yul\":11047:11228   */\n      pop\n      jump\t// out\n        /* \"#utility.yul\":11234:11600   */\n    tag_161:\n        /* \"#utility.yul\":11376:11379   */\n      0x00\n        /* \"#utility.yul\":11397:11464   */\n      tag_276\n        /* \"#utility.yul\":11461:11463   */\n      0x1f\n        /* \"#utility.yul\":11456:11459   */\n      dup4\n        /* \"#utility.yul\":11397:11464   */\n      tag_145\n      jump\t// in\n    tag_276:\n        /* \"#utility.yul\":11390:11464   */\n      swap2\n      pop\n        /* \"#utility.yul\":11473:11566   */\n      tag_277\n        /* \"#utility.yul\":11562:11565   */\n      dup3\n        /* \"#utility.yul\":11473:11566   */\n      tag_160\n      jump\t// in\n    tag_277:\n        /* \"#utility.yul\":11591:11593   */\n      0x20\n        /* \"#utility.yul\":11586:11589   */\n      dup3\n        /* \"#utility.yul\":11582:11594   */\n      add\n        /* \"#utility.yul\":11575:11594   */\n      swap1\n      pop\n        /* \"#utility.yul\":11234:11600   */\n      swap2\n      swap1\n      pop\n      jump\t// out\n        /* \"#utility.yul\":11606:12025   */\n    tag_117:\n        /* \"#utility.yul\":11772:11776   */\n      0x00\n        /* \"#utility.yul\":11810:11812   */\n      0x20\n        /* \"#utility.yul\":11799:11808   */\n      dup3\n        /* \"#utility.yul\":11795:11813   */\n      add\n        /* \"#utility.yul\":11787:11813   */\n      swap1\n      pop\n        /* \"#utility.yul\":11859:11868   */\n      dup2\n        /* \"#utility.yul\":11853:11857   */\n      dup2\n        /* \"#utility.yul\":11849:11869   */\n      sub\n        /* \"#utility.yul\":11845:11846   */\n      0x00\n        /* \"#utility.yul\":11834:11843   */\n      dup4\n        /* \"#utility.yul\":11830:11847   */\n      add\n        /* \"#utility.yul\":11823:11870   */\n      mstore\n        /* \"#utility.yul\":11887:12018   */\n      tag_279\n        /* \"#utility.yul\":12013:12017   */\n      dup2\n        /* \"#utility.yul\":11887:12018   */\n      tag_161\n      jump\t// in\n    tag_279:\n        /* \"#utility.yul\":11879:12018   */\n      swap1\n      pop\n        /* \"#utility.yul\":11606:12025   */\n      swap2\n      swap1\n      pop\n      jump\t// out\n\n    auxdata: 0xa264697066735822122092217bc8da5adf49115e889892ee2a786212c28a01552732bc34464c953abf9164736f6c63430008140033\n}\n",
				"bytecode": {
					"linkReferences": {},
					"object": "608060405234801562000010575f80fd5b50604051620013fd380380620013fd833981810160405281019062000036919062000326565b335f73ffffffffffffffffffffffffffffffffffffffff168173ffffffffffffffffffffffffffffffffffffffff1603620000aa575f6040517f1e4fbdf7000000000000000000000000000000000000000000000000000000008152600401620000a191906200037c565b60405180910390fd5b620000bb81620001c860201b60201c565b50600180819055505f73ffffffffffffffffffffffffffffffffffffffff168273ffffffffffffffffffffffffffffffffffffffff160362000134576040517f08c379a00000000000000000000000000000000000000000000000000000000081526004016200012b90620003f5565b60405180910390fd5b5f811162000179576040517f08c379a0000000000000000000000000000000000000000000000000000000008152600401620001709062000463565b60405180910390fd5b8160025f6101000a81548173ffffffffffffffffffffffffffffffffffffffff021916908373ffffffffffffffffffffffffffffffffffffffff16021790555080600381905550505062000483565b5f805f9054906101000a900473ffffffffffffffffffffffffffffffffffffffff169050815f806101000a81548173ffffffffffffffffffffffffffffffffffffffff021916908373ffffffffffffffffffffffffffffffffffffffff1602179055508173ffffffffffffffffffffffffffffffffffffffff168173ffffffffffffffffffffffffffffffffffffffff167f8be0079c531659141344cd1fd0a4f28419497f9722a3daafe3b4186f6b6457e060405160405180910390a35050565b5f80fd5b5f73ffffffffffffffffffffffffffffffffffffffff82169050919050565b5f620002b8826200028d565b9050919050565b620002ca81620002ac565b8114620002d5575f80fd5b50565b5f81519050620002e881620002bf565b92915050565b5f819050919050565b6200030281620002ee565b81146200030d575f80fd5b50565b5f815190506200032081620002f7565b92915050565b5f80604083850312156200033f576200033e62000289565b5b5f6200034e85828601620002d8565b9250506020620003618582860162000310565b9150509250929050565b6200037681620002ac565b82525050565b5f602082019050620003915f8301846200036b565b92915050565b5f82825260208201905092915050565b7f496e76616c696420746f6b656e206164647265737300000000000000000000005f82015250565b5f620003dd60158362000397565b9150620003ea82620003a7565b602082019050919050565b5f6020820190508181035f8301526200040e81620003cf565b9050919050565b7f4d756c7469706c696572206d757374206265203e2030000000000000000000005f82015250565b5f6200044b60168362000397565b9150620004588262000415565b602082019050919050565b5f6020820190508181035f8301526200047c816200043d565b9050919050565b610f6c80620004915f395ff3fe608060405234801561000f575f80fd5b506004361061009c575f3560e01c80638da5cb5b116100645780638da5cb5b14610130578063b6b55f251461014e578063c89039c51461016a578063f2fde38b14610188578063fc7e286d146101a45761009c565b80631b3ed722146100a05780632e1a7d4d146100be5780635ffe6146146100da5780636f88e523146100f6578063715018a614610126575b5f80fd5b6100a86101d4565b6040516100b59190610993565b60405180910390f35b6100d860048036038101906100d391906109da565b6101da565b005b6100f460048036038101906100ef91906109da565b61042b565b005b610110600480360381019061010b9190610a5f565b6104b6565b60405161011d9190610993565b60405180910390f35b61012e610509565b005b61013861051c565b6040516101459190610a99565b60405180910390f35b610168600480360381019061016391906109da565b610543565b005b610172610716565b60405161017f9190610b0d565b60405180910390f35b6101a2600480360381019061019d9190610a5f565b61073b565b005b6101be60048036038101906101b99190610a5f565b6107bf565b6040516101cb9190610993565b60405180910390f35b60035481565b6101e26107d4565b5f8111610224576040517f08c379a000000000000000000000000000000000000000000000000000000000815260040161021b90610b80565b60405180910390fd5b8060045f3373ffffffffffffffffffffffffffffffffffffffff1673ffffffffffffffffffffffffffffffffffffffff1681526020019081526020015f205410156102a4576040517f08c379a000000000000000000000000000000000000000000000000000000000815260040161029b90610be8565b60405180910390fd5b8060045f3373ffffffffffffffffffffffffffffffffffffffff1673ffffffffffffffffffffffffffffffffffffffff1681526020019081526020015f205f8282546102f09190610c33565b9250508190555060025f9054906101000a900473ffffffffffffffffffffffffffffffffffffffff1673ffffffffffffffffffffffffffffffffffffffff1663a9059cbb33836040518363ffffffff1660e01b8152600401610353929190610c66565b6020604051808303815f875af115801561036f573d5f803e3d5ffd5b505050506040513d601f19601f820116820180604052508101906103939190610cc2565b6103d2576040517f08c379a00000000000000000000000000000000000000000000000000000000081526004016103c990610d37565b60405180910390fd5b3373ffffffffffffffffffffffffffffffffffffffff167f7084f5476618d8e60b11ef0d7d3f06914655adb8793e28ff7f018d4c76d505d5826040516104189190610993565b60405180910390a2610428610823565b50565b61043361082c565b5f8111610475576040517f08c379a000000000000000000000000000000000000000000000000000000000815260040161046c90610d9f565b60405180910390fd5b806003819055507f4dbe4840d7465bd162f67814cea0b519567a2e0e578bcde61e7f4ced361e5a3d816040516104ab9190610993565b60405180910390a150565b5f60035460045f8473ffffffffffffffffffffffffffffffffffffffff1673ffffffffffffffffffffffffffffffffffffffff1681526020019081526020015f20546105029190610dbd565b9050919050565b61051161082c565b61051a5f6108b3565b565b5f805f9054906101000a900473ffffffffffffffffffffffffffffffffffffffff16905090565b61054b6107d4565b5f811161058d576040517f08c379a000000000000000000000000000000000000000000000000000000000815260040161058490610e48565b60405180910390fd5b60025f9054906101000a900473ffffffffffffffffffffffffffffffffffffffff1673ffffffffffffffffffffffffffffffffffffffff166323b872dd3330846040518463ffffffff1660e01b81526004016105eb93929190610e66565b6020604051808303815f875af1158015610607573d5f803e3d5ffd5b505050506040513d601f19601f8201168201806040525081019061062b9190610cc2565b61066a576040517f08c379a000000000000000000000000000000000000000000000000000000000815260040161066190610d37565b60405180910390fd5b8060045f3373ffffffffffffffffffffffffffffffffffffffff1673ffffffffffffffffffffffffffffffffffffffff1681526020019081526020015f205f8282546106b69190610e9b565b925050819055503373ffffffffffffffffffffffffffffffffffffffff167f2da466a7b24304f47e87fa2e1e5a81b9831ce54fec19055ce277ca2f39ba42c4826040516107039190610993565b60405180910390a2610713610823565b50565b60025f9054906101000a900473ffffffffffffffffffffffffffffffffffffffff1681565b61074361082c565b5f73ffffffffffffffffffffffffffffffffffffffff168173ffffffffffffffffffffffffffffffffffffffff16036107b3575f6040517f1e4fbdf70000000000000000000000000000000000000000000000000000000081526004016107aa9190610a99565b60405180910390fd5b6107bc816108b3565b50565b6004602052805f5260405f205f915090505481565b600260015403610819576040517f08c379a000000000000000000000000000000000000000000000000000000000815260040161081090610f18565b60405180910390fd5b6002600181905550565b60018081905550565b610834610974565b73ffffffffffffffffffffffffffffffffffffffff1661085261051c565b73ffffffffffffffffffffffffffffffffffffffff16146108b157610875610974565b6040517f118cdaa70000000000000000000000000000000000000000000000000000000081526004016108a89190610a99565b60405180910390fd5b565b5f805f9054906101000a900473ffffffffffffffffffffffffffffffffffffffff169050815f806101000a81548173ffffffffffffffffffffffffffffffffffffffff021916908373ffffffffffffffffffffffffffffffffffffffff1602179055508173ffffffffffffffffffffffffffffffffffffffff168173ffffffffffffffffffffffffffffffffffffffff167f8be0079c531659141344cd1fd0a4f28419497f9722a3daafe3b4186f6b6457e060405160405180910390a35050565b5f33905090565b5f819050919050565b61098d8161097b565b82525050565b5f6020820190506109a65f830184610984565b92915050565b5f80fd5b6109b98161097b565b81146109c3575f80fd5b50565b5f813590506109d4816109b0565b92915050565b5f602082840312156109ef576109ee6109ac565b5b5f6109fc848285016109c6565b91505092915050565b5f73ffffffffffffffffffffffffffffffffffffffff82169050919050565b5f610a2e82610a05565b9050919050565b610a3e81610a24565b8114610a48575f80fd5b50565b5f81359050610a5981610a35565b92915050565b5f60208284031215610a7457610a736109ac565b5b5f610a8184828501610a4b565b91505092915050565b610a9381610a24565b82525050565b5f602082019050610aac5f830184610a8a565b92915050565b5f819050919050565b5f610ad5610ad0610acb84610a05565b610ab2565b610a05565b9050919050565b5f610ae682610abb565b9050919050565b5f610af782610adc565b9050919050565b610b0781610aed565b82525050565b5f602082019050610b205f830184610afe565b92915050565b5f82825260208201905092915050565b7f576974686472617720616d6f756e74206d757374206265203e203000000000005f82015250565b5f610b6a601b83610b26565b9150610b7582610b36565b602082019050919050565b5f6020820190508181035f830152610b9781610b5e565b9050919050565b7f496e73756666696369656e74206465706f73697465642062616c616e636500005f82015250565b5f610bd2601e83610b26565b9150610bdd82610b9e565b602082019050919050565b5f6020820190508181035f830152610bff81610bc6565b9050919050565b7f4e487b71000000000000000000000000000000000000000000000000000000005f52601160045260245ffd5b5f610c3d8261097b565b9150610c488361097b565b9250828203905081811115610c6057610c5f610c06565b5b92915050565b5f604082019050610c795f830185610a8a565b610c866020830184610984565b9392505050565b5f8115159050919050565b610ca181610c8d565b8114610cab575f80fd5b50565b5f81519050610cbc81610c98565b92915050565b5f60208284031215610cd757610cd66109ac565b5b5f610ce484828501610cae565b91505092915050565b7f546f6b656e207472616e73666572206661696c656400000000000000000000005f82015250565b5f610d21601583610b26565b9150610d2c82610ced565b602082019050919050565b5f6020820190508181035f830152610d4e81610d15565b9050919050565b7f4d756c7469706c696572206d757374206265203e2030000000000000000000005f82015250565b5f610d89601683610b26565b9150610d9482610d55565b602082019050919050565b5f6020820190508181035f830152610db681610d7d565b9050919050565b5f610dc78261097b565b9150610dd28361097b565b9250828202610de08161097b565b91508282048414831517610df757610df6610c06565b5b5092915050565b7f4465706f73697420616d6f756e74206d757374206265203e20300000000000005f82015250565b5f610e32601a83610b26565b9150610e3d82610dfe565b602082019050919050565b5f6020820190508181035f830152610e5f81610e26565b9050919050565b5f606082019050610e795f830186610a8a565b610e866020830185610a8a565b610e936040830184610984565b949350505050565b5f610ea58261097b565b9150610eb08361097b565b9250828201905080821115610ec857610ec7610c06565b5b92915050565b7f5265656e7472616e637947756172643a207265656e7472616e742063616c6c005f82015250565b5f610f02601f83610b26565b9150610f0d82610ece565b602082019050919050565b5f6020820190508181035f830152610f2f81610ef6565b905091905056fea264697066735822122092217bc8da5adf49115e889892ee2a786212c28a01552732bc34464c953abf9164736f6c63430008140033",
					"opcodes": "PUSH1 0x80 PUSH1 0x40 MSTORE CALLVALUE DUP1 ISZERO PUSH3 0x10 JUMPI PUSH0 DUP1 REVERT JUMPDEST POP PUSH1 0x40 MLOAD PUSH3 0x13FD CODESIZE SUB DUP1 PUSH3 0x13FD DUP4 CODECOPY DUP2 DUP2 ADD PUSH1 0x40 MSTORE DUP2 ADD SWAP1 PUSH3 0x36 SWAP2 SWAP1 PUSH3 0x326 JUMP JUMPDEST CALLER PUSH0 PUSH20 0xFFFFFFFFFFFFFFFFFFFFFFFFFFFFFFFFFFFFFFFF AND DUP2 PUSH20 0xFFFFFFFFFFFFFFFFFFFFFFFFFFFFFFFFFFFFFFFF AND SUB PUSH3 0xAA JUMPI PUSH0 PUSH1 0x40 MLOAD PUSH32 0x1E4FBDF700000000000000000000000000000000000000000000000000000000 DUP2 MSTORE PUSH1 0x4 ADD PUSH3 0xA1 SWAP2 SWAP1 PUSH3 0x37C JUMP JUMPDEST PUSH1 0x40 MLOAD DUP1 SWAP2 SUB SWAP1 REVERT JUMPDEST PUSH3 0xBB DUP2 PUSH3 0x1C8 PUSH1 0x20 SHL PUSH1 0x20 SHR JUMP JUMPDEST POP PUSH1 0x1 DUP1 DUP2 SWAP1 SSTORE POP PUSH0 PUSH20 0xFFFFFFFFFFFFFFFFFFFFFFFFFFFFFFFFFFFFFFFF AND DUP3 PUSH20 0xFFFFFFFFFFFFFFFFFFFFFFFFFFFFFFFFFFFFFFFF AND SUB PUSH3 0x134 JUMPI PUSH1 0x40 MLOAD PUSH32 0x8C379A000000000000000000000000000000000000000000000000000000000 DUP2 MSTORE PUSH1 0x4 ADD PUSH3 0x12B SWAP1 PUSH3 0x3F5 JUMP JUMPDEST PUSH1 0x40 MLOAD DUP1 SWAP2 SUB SWAP1 REVERT JUMPDEST PUSH0 DUP2 GT PUSH3 0x179 JUMPI PUSH1 0x40 MLOAD PUSH32 0x8C379A000000000000000000000000000000000000000000000000000000000 DUP2 MSTORE PUSH1 0x4 ADD PUSH3 0x170 SWAP1 PUSH3 0x463 JUMP JUMPDEST PUSH1 0x40 MLOAD DUP1 SWAP2 SUB SWAP1 REVERT JUMPDEST DUP2 PUSH1 0x2 PUSH0 PUSH2 0x100 EXP DUP2 SLOAD DUP2 PUSH20 0xFFFFFFFFFFFFFFFFFFFFFFFFFFFFFFFFFFFFFFFF MUL NOT AND SWAP1 DUP4 PUSH20 0xFFFFFFFFFFFFFFFFFFFFFFFFFFFFFFFFFFFFFFFF AND MUL OR SWAP1 SSTORE POP DUP1 PUSH1 0x3 DUP2 SWAP1 SSTORE POP POP POP PUSH3 0x483 JUMP JUMPDEST PUSH0 DUP1 PUSH0 SWAP1 SLOAD SWAP1 PUSH2 0x100 EXP SWAP1 DIV PUSH20 0xFFFFFFFFFFFFFFFFFFFFFFFFFFFFFFFFFFFFFFFF AND SWAP1 POP DUP2 PUSH0 DUP1 PUSH2 0x100 EXP DUP2 SLOAD DUP2 PUSH20 0xFFFFFFFFFFFFFFFFFFFFFFFFFFFFFFFFFFFFFFFF MUL NOT AND SWAP1 DUP4 PUSH20 0xFFFFFFFFFFFFFFFFFFFFFFFFFFFFFFFFFFFFFFFF AND MUL OR SWAP1 SSTORE POP DUP2 PUSH20 0xFFFFFFFFFFFFFFFFFFFFFFFFFFFFFFFFFFFFFFFF AND DUP2 PUSH20 0xFFFFFFFFFFFFFFFFFFFFFFFFFFFFFFFFFFFFFFFF AND PUSH32 0x8BE0079C531659141344CD1FD0A4F28419497F9722A3DAAFE3B4186F6B6457E0 PUSH1 0x40 MLOAD PUSH1 0x40 MLOAD DUP1 SWAP2 SUB SWAP1 LOG3 POP POP JUMP JUMPDEST PUSH0 DUP1 REVERT JUMPDEST PUSH0 PUSH20 0xFFFFFFFFFFFFFFFFFFFFFFFFFFFFFFFFFFFFFFFF DUP3 AND SWAP1 POP SWAP2 SWAP1 POP JUMP JUMPDEST PUSH0 PUSH3 0x2B8 DUP3 PUSH3 0x28D JUMP JUMPDEST SWAP1 POP SWAP2 SWAP1 POP JUMP JUMPDEST PUSH3 0x2CA DUP2 PUSH3 0x2AC JUMP JUMPDEST DUP2 EQ PUSH3 0x2D5 JUMPI PUSH0 DUP1 REVERT JUMPDEST POP JUMP JUMPDEST PUSH0 DUP2 MLOAD SWAP1 POP PUSH3 0x2E8 DUP2 PUSH3 0x2BF JUMP JUMPDEST SWAP3 SWAP2 POP POP JUMP JUMPDEST PUSH0 DUP2 SWAP1 POP SWAP2 SWAP1 POP JUMP JUMPDEST PUSH3 0x302 DUP2 PUSH3 0x2EE JUMP JUMPDEST DUP2 EQ PUSH3 0x30D JUMPI PUSH0 DUP1 REVERT JUMPDEST POP JUMP JUMPDEST PUSH0 DUP2 MLOAD SWAP1 POP PUSH3 0x320 DUP2 PUSH3 0x2F7 JUMP JUMPDEST SWAP3 SWAP2 POP POP JUMP JUMPDEST PUSH0 DUP1 PUSH1 0x40 DUP4 DUP6 SUB SLT ISZERO PUSH3 0x33F JUMPI PUSH3 0x33E PUSH3 0x289 JUMP JUMPDEST JUMPDEST PUSH0 PUSH3 0x34E DUP6 DUP3 DUP7 ADD PUSH3 0x2D8 JUMP JUMPDEST SWAP3 POP POP PUSH1 0x20 PUSH3 0x361 DUP6 DUP3 DUP7 ADD PUSH3 0x310 JUMP JUMPDEST SWAP2 POP POP SWAP3 POP SWAP3 SWAP1 POP JUMP JUMPDEST PUSH3 0x376 DUP2 PUSH3 0x2AC JUMP JUMPDEST DUP3 MSTORE POP POP JUMP JUMPDEST PUSH0 PUSH1 0x20 DUP3 ADD SWAP1 POP PUSH3 0x391 PUSH0 DUP4 ADD DUP5 PUSH3 0x36B JUMP JUMPDEST SWAP3 SWAP2 POP POP JUMP JUMPDEST PUSH0 DUP3 DUP3 MSTORE PUSH1 0x20 DUP3 ADD SWAP1 POP SWAP3 SWAP2 POP POP JUMP JUMPDEST PUSH32 0x496E76616C696420746F6B656E20616464726573730000000000000000000000 PUSH0 DUP3 ADD MSTORE POP JUMP JUMPDEST PUSH0 PUSH3 0x3DD PUSH1 0x15 DUP4 PUSH3 0x397 JUMP JUMPDEST SWAP2 POP PUSH3 0x3EA DUP3 PUSH3 0x3A7 JUMP JUMPDEST PUSH1 0x20 DUP3 ADD SWAP1 POP SWAP2 SWAP1 POP JUMP JUMPDEST PUSH0 PUSH1 0x20 DUP3 ADD SWAP1 POP DUP2 DUP2 SUB PUSH0 DUP4 ADD MSTORE PUSH3 0x40E DUP2 PUSH3 0x3CF JUMP JUMPDEST SWAP1 POP SWAP2 SWAP1 POP JUMP JUMPDEST PUSH32 0x4D756C7469706C696572206D757374206265203E203000000000000000000000 PUSH0 DUP3 ADD MSTORE POP JUMP JUMPDEST PUSH0 PUSH3 0x44B PUSH1 0x16 DUP4 PUSH3 0x397 JUMP JUMPDEST SWAP2 POP PUSH3 0x458 DUP3 PUSH3 0x415 JUMP JUMPDEST PUSH1 0x20 DUP3 ADD SWAP1 POP SWAP2 SWAP1 POP JUMP JUMPDEST PUSH0 PUSH1 0x20 DUP3 ADD SWAP1 POP DUP2 DUP2 SUB PUSH0 DUP4 ADD MSTORE PUSH3 0x47C DUP2 PUSH3 0x43D JUMP JUMPDEST SWAP1 POP SWAP2 SWAP1 POP JUMP JUMPDEST PUSH2 0xF6C DUP1 PUSH3 0x491 PUSH0 CODECOPY PUSH0 RETURN INVALID PUSH1 0x80 PUSH1 0x40 MSTORE CALLVALUE DUP1 ISZERO PUSH2 0xF JUMPI PUSH0 DUP1 REVERT JUMPDEST POP PUSH1 0x4 CALLDATASIZE LT PUSH2 0x9C JUMPI PUSH0 CALLDATALOAD PUSH1 0xE0 SHR DUP1 PUSH4 0x8DA5CB5B GT PUSH2 0x64 JUMPI DUP1 PUSH4 0x8DA5CB5B EQ PUSH2 0x130 JUMPI DUP1 PUSH4 0xB6B55F25 EQ PUSH2 0x14E JUMPI DUP1 PUSH4 0xC89039C5 EQ PUSH2 0x16A JUMPI DUP1 PUSH4 0xF2FDE38B EQ PUSH2 0x188 JUMPI DUP1 PUSH4 0xFC7E286D EQ PUSH2 0x1A4 JUMPI PUSH2 0x9C JUMP JUMPDEST DUP1 PUSH4 0x1B3ED722 EQ PUSH2 0xA0 JUMPI DUP1 PUSH4 0x2E1A7D4D EQ PUSH2 0xBE JUMPI DUP1 PUSH4 0x5FFE6146 EQ PUSH2 0xDA JUMPI DUP1 PUSH4 0x6F88E523 EQ PUSH2 0xF6 JUMPI DUP1 PUSH4 0x715018A6 EQ PUSH2 0x126 JUMPI JUMPDEST PUSH0 DUP1 REVERT JUMPDEST PUSH2 0xA8 PUSH2 0x1D4 JUMP JUMPDEST PUSH1 0x40 MLOAD PUSH2 0xB5 SWAP2 SWAP1 PUSH2 0x993 JUMP JUMPDEST PUSH1 0x40 MLOAD DUP1 SWAP2 SUB SWAP1 RETURN JUMPDEST PUSH2 0xD8 PUSH1 0x4 DUP1 CALLDATASIZE SUB DUP2 ADD SWAP1 PUSH2 0xD3 SWAP2 SWAP1 PUSH2 0x9DA JUMP JUMPDEST PUSH2 0x1DA JUMP JUMPDEST STOP JUMPDEST PUSH2 0xF4 PUSH1 0x4 DUP1 CALLDATASIZE SUB DUP2 ADD SWAP1 PUSH2 0xEF SWAP2 SWAP1 PUSH2 0x9DA JUMP JUMPDEST PUSH2 0x42B JUMP JUMPDEST STOP JUMPDEST PUSH2 0x110 PUSH1 0x4 DUP1 CALLDATASIZE SUB DUP2 ADD SWAP1 PUSH2 0x10B SWAP2 SWAP1 PUSH2 0xA5F JUMP JUMPDEST PUSH2 0x4B6 JUMP JUMPDEST PUSH1 0x40 MLOAD PUSH2 0x11D SWAP2 SWAP1 PUSH2 0x993 JUMP JUMPDEST PUSH1 0x40 MLOAD DUP1 SWAP2 SUB SWAP1 RETURN JUMPDEST PUSH2 0x12E PUSH2 0x509 JUMP JUMPDEST STOP JUMPDEST PUSH2 0x138 PUSH2 0x51C JUMP JUMPDEST PUSH1 0x40 MLOAD PUSH2 0x145 SWAP2 SWAP1 PUSH2 0xA99 JUMP JUMPDEST PUSH1 0x40 MLOAD DUP1 SWAP2 SUB SWAP1 RETURN JUMPDEST PUSH2 0x168 PUSH1 0x4 DUP1 CALLDATASIZE SUB DUP2 ADD SWAP1 PUSH2 0x163 SWAP2 SWAP1 PUSH2 0x9DA JUMP JUMPDEST PUSH2 0x543 JUMP JUMPDEST STOP JUMPDEST PUSH2 0x172 PUSH2 0x716 JUMP JUMPDEST PUSH1 0x40 MLOAD PUSH2 0x17F SWAP2 SWAP1 PUSH2 0xB0D JUMP JUMPDEST PUSH1 0x40 MLOAD DUP1 SWAP2 SUB SWAP1 RETURN JUMPDEST PUSH2 0x1A2 PUSH1 0x4 DUP1 CALLDATASIZE SUB DUP2 ADD SWAP1 PUSH2 0x19D SWAP2 SWAP1 PUSH2 0xA5F JUMP JUMPDEST PUSH2 0x73B JUMP JUMPDEST STOP JUMPDEST PUSH2 0x1BE PUSH1 0x4 DUP1 CALLDATASIZE SUB DUP2 ADD SWAP1 PUSH2 0x1B9 SWAP2 SWAP1 PUSH2 0xA5F JUMP JUMPDEST PUSH2 0x7BF JUMP JUMPDEST PUSH1 0x40 MLOAD PUSH2 0x1CB SWAP2 SWAP1 PUSH2 0x993 JUMP JUMPDEST PUSH1 0x40 MLOAD DUP1 SWAP2 SUB SWAP1 RETURN JUMPDEST PUSH1 0x3 SLOAD DUP2 JUMP JUMPDEST PUSH2 0x1E2 PUSH2 0x7D4 JUMP JUMPDEST PUSH0 DUP2 GT PUSH2 0x224 JUMPI PUSH1 0x40 MLOAD PUSH32 0x8C379A000000000000000000000000000000000000000000000000000000000 DUP2 MSTORE PUSH1 0x4 ADD PUSH2 0x21B SWAP1 PUSH2 0xB80 JUMP JUMPDEST PUSH1 0x40 MLOAD DUP1 SWAP2 SUB SWAP1 REVERT JUMPDEST DUP1 PUSH1 0x4 PUSH0 CALLER PUSH20 0xFFFFFFFFFFFFFFFFFFFFFFFFFFFFFFFFFFFFFFFF AND PUSH20 0xFFFFFFFFFFFFFFFFFFFFFFFFFFFFFFFFFFFFFFFF AND DUP2 MSTORE PUSH1 0x20 ADD SWAP1 DUP2 MSTORE PUSH1 0x20 ADD PUSH0 KECCAK256 SLOAD LT ISZERO PUSH2 0x2A4 JUMPI PUSH1 0x40 MLOAD PUSH32 0x8C379A000000000000000000000000000000000000000000000000000000000 DUP2 MSTORE PUSH1 0x4 ADD PUSH2 0x29B SWAP1 PUSH2 0xBE8 JUMP JUMPDEST PUSH1 0x40 MLOAD DUP1 SWAP2 SUB SWAP1 REVERT JUMPDEST DUP1 PUSH1 0x4 PUSH0 CALLER PUSH20 0xFFFFFFFFFFFFFFFFFFFFFFFFFFFFFFFFFFFFFFFF AND PUSH20 0xFFFFFFFFFFFFFFFFFFFFFFFFFFFFFFFFFFFFFFFF AND DUP2 MSTORE PUSH1 0x20 ADD SWAP1 DUP2 MSTORE PUSH1 0x20 ADD PUSH0 KECCAK256 PUSH0 DUP3 DUP3 SLOAD PUSH2 0x2F0 SWAP2 SWAP1 PUSH2 0xC33 JUMP JUMPDEST SWAP3 POP POP DUP2 SWAP1 SSTORE POP PUSH1 0x2 PUSH0 SWAP1 SLOAD SWAP1 PUSH2 0x100 EXP SWAP1 DIV PUSH20 0xFFFFFFFFFFFFFFFFFFFFFFFFFFFFFFFFFFFFFFFF AND PUSH20 0xFFFFFFFFFFFFFFFFFFFFFFFFFFFFFFFFFFFFFFFF AND PUSH4 0xA9059CBB CALLER DUP4 PUSH1 0x40 MLOAD DUP4 PUSH4 0xFFFFFFFF AND PUSH1 0xE0 SHL DUP2 MSTORE PUSH1 0x4 ADD PUSH2 0x353 SWAP3 SWAP2 SWAP1 PUSH2 0xC66 JUMP JUMPDEST PUSH1 0x20 PUSH1 0x40 MLOAD DUP1 DUP4 SUB DUP2 PUSH0 DUP8 GAS CALL ISZERO DUP1 ISZERO PUSH2 0x36F JUMPI RETURNDATASIZE PUSH0 DUP1 RETURNDATACOPY RETURNDATASIZE PUSH0 REVERT JUMPDEST POP POP POP POP PUSH1 0x40 MLOAD RETURNDATASIZE PUSH1 0x1F NOT PUSH1 0x1F DUP3 ADD AND DUP3 ADD DUP1 PUSH1 0x40 MSTORE POP DUP2 ADD SWAP1 PUSH2 0x393 SWAP2 SWAP1 PUSH2 0xCC2 JUMP JUMPDEST PUSH2 0x3D2 JUMPI PUSH1 0x40 MLOAD PUSH32 0x8C379A000000000000000000000000000000000000000000000000000000000 DUP2 MSTORE PUSH1 0x4 ADD PUSH2 0x3C9 SWAP1 PUSH2 0xD37 JUMP JUMPDEST PUSH1 0x40 MLOAD DUP1 SWAP2 SUB SWAP1 REVERT JUMPDEST CALLER PUSH20 0xFFFFFFFFFFFFFFFFFFFFFFFFFFFFFFFFFFFFFFFF AND PUSH32 0x7084F5476618D8E60B11EF0D7D3F06914655ADB8793E28FF7F018D4C76D505D5 DUP3 PUSH1 0x40 MLOAD PUSH2 0x418 SWAP2 SWAP1 PUSH2 0x993 JUMP JUMPDEST PUSH1 0x40 MLOAD DUP1 SWAP2 SUB SWAP1 LOG2 PUSH2 0x428 PUSH2 0x823 JUMP JUMPDEST POP JUMP JUMPDEST PUSH2 0x433 PUSH2 0x82C JUMP JUMPDEST PUSH0 DUP2 GT PUSH2 0x475 JUMPI PUSH1 0x40 MLOAD PUSH32 0x8C379A000000000000000000000000000000000000000000000000000000000 DUP2 MSTORE PUSH1 0x4 ADD PUSH2 0x46C SWAP1 PUSH2 0xD9F JUMP JUMPDEST PUSH1 0x40 MLOAD DUP1 SWAP2 SUB SWAP1 REVERT JUMPDEST DUP1 PUSH1 0x3 DUP2 SWAP1 SSTORE POP PUSH32 0x4DBE4840D7465BD162F67814CEA0B519567A2E0E578BCDE61E7F4CED361E5A3D DUP2 PUSH1 0x40 MLOAD PUSH2 0x4AB SWAP2 SWAP1 PUSH2 0x993 JUMP JUMPDEST PUSH1 0x40 MLOAD DUP1 SWAP2 SUB SWAP1 LOG1 POP JUMP JUMPDEST PUSH0 PUSH1 0x3 SLOAD PUSH1 0x4 PUSH0 DUP5 PUSH20 0xFFFFFFFFFFFFFFFFFFFFFFFFFFFFFFFFFFFFFFFF AND PUSH20 0xFFFFFFFFFFFFFFFFFFFFFFFFFFFFFFFFFFFFFFFF AND DUP2 MSTORE PUSH1 0x20 ADD SWAP1 DUP2 MSTORE PUSH1 0x20 ADD PUSH0 KECCAK256 SLOAD PUSH2 0x502 SWAP2 SWAP1 PUSH2 0xDBD JUMP JUMPDEST SWAP1 POP SWAP2 SWAP1 POP JUMP JUMPDEST PUSH2 0x511 PUSH2 0x82C JUMP JUMPDEST PUSH2 0x51A PUSH0 PUSH2 0x8B3 JUMP JUMPDEST JUMP JUMPDEST PUSH0 DUP1 PUSH0 SWAP1 SLOAD SWAP1 PUSH2 0x100 EXP SWAP1 DIV PUSH20 0xFFFFFFFFFFFFFFFFFFFFFFFFFFFFFFFFFFFFFFFF AND SWAP1 POP SWAP1 JUMP JUMPDEST PUSH2 0x54B PUSH2 0x7D4 JUMP JUMPDEST PUSH0 DUP2 GT PUSH2 0x58D JUMPI PUSH1 0x40 MLOAD PUSH32 0x8C379A000000000000000000000000000000000000000000000000000000000 DUP2 MSTORE PUSH1 0x4 ADD PUSH2 0x584 SWAP1 PUSH2 0xE48 JUMP JUMPDEST PUSH1 0x40 MLOAD DUP1 SWAP2 SUB SWAP1 REVERT JUMPDEST PUSH1 0x2 PUSH0 SWAP1 SLOAD SWAP1 PUSH2 0x100 EXP SWAP1 DIV PUSH20 0xFFFFFFFFFFFFFFFFFFFFFFFFFFFFFFFFFFFFFFFF AND PUSH20 0xFFFFFFFFFFFFFFFFFFFFFFFFFFFFFFFFFFFFFFFF AND PUSH4 0x23B872DD CALLER ADDRESS DUP5 PUSH1 0x40 MLOAD DUP5 PUSH4 0xFFFFFFFF AND PUSH1 0xE0 SHL DUP2 MSTORE PUSH1 0x4 ADD PUSH2 0x5EB SWAP4 SWAP3 SWAP2 SWAP1 PUSH2 0xE66 JUMP JUMPDEST PUSH1 0x20 PUSH1 0x40 MLOAD DUP1 DUP4 SUB DUP2 PUSH0 DUP8 GAS CALL ISZERO DUP1 ISZERO PUSH2 0x607 JUMPI RETURNDATASIZE PUSH0 DUP1 RETURNDATACOPY RETURNDATASIZE PUSH0 REVERT JUMPDEST POP POP POP POP PUSH1 0x40 MLOAD RETURNDATASIZE PUSH1 0x1F NOT PUSH1 0x1F DUP3 ADD AND DUP3 ADD DUP1 PUSH1 0x40 MSTORE POP DUP2 ADD SWAP1 PUSH2 0x62B SWAP2 SWAP1 PUSH2 0xCC2 JUMP JUMPDEST PUSH2 0x66A JUMPI PUSH1 0x40 MLOAD PUSH32 0x8C379A000000000000000000000000000000000000000000000000000000000 DUP2 MSTORE PUSH1 0x4 ADD PUSH2 0x661 SWAP1 PUSH2 0xD37 JUMP JUMPDEST PUSH1 0x40 MLOAD DUP1 SWAP2 SUB SWAP1 REVERT JUMPDEST DUP1 PUSH1 0x4 PUSH0 CALLER PUSH20 0xFFFFFFFFFFFFFFFFFFFFFFFFFFFFFFFFFFFFFFFF AND PUSH20 0xFFFFFFFFFFFFFFFFFFFFFFFFFFFFFFFFFFFFFFFF AND DUP2 MSTORE PUSH1 0x20 ADD SWAP1 DUP2 MSTORE PUSH1 0x20 ADD PUSH0 KECCAK256 PUSH0 DUP3 DUP3 SLOAD PUSH2 0x6B6 SWAP2 SWAP1 PUSH2 0xE9B JUMP JUMPDEST SWAP3 POP POP DUP2 SWAP1 SSTORE POP CALLER PUSH20 0xFFFFFFFFFFFFFFFFFFFFFFFFFFFFFFFFFFFFFFFF AND PUSH32 0x2DA466A7B24304F47E87FA2E1E5A81B9831CE54FEC19055CE277CA2F39BA42C4 DUP3 PUSH1 0x40 MLOAD PUSH2 0x703 SWAP2 SWAP1 PUSH2 0x993 JUMP JUMPDEST PUSH1 0x40 MLOAD DUP1 SWAP2 SUB SWAP1 LOG2 PUSH2 0x713 PUSH2 0x823 JUMP JUMPDEST POP JUMP JUMPDEST PUSH1 0x2 PUSH0 SWAP1 SLOAD SWAP1 PUSH2 0x100 EXP SWAP1 DIV PUSH20 0xFFFFFFFFFFFFFFFFFFFFFFFFFFFFFFFFFFFFFFFF AND DUP2 JUMP JUMPDEST PUSH2 0x743 PUSH2 0x82C JUMP JUMPDEST PUSH0 PUSH20 0xFFFFFFFFFFFFFFFFFFFFFFFFFFFFFFFFFFFFFFFF AND DUP2 PUSH20 0xFFFFFFFFFFFFFFFFFFFFFFFFFFFFFFFFFFFFFFFF AND SUB PUSH2 0x7B3 JUMPI PUSH0 PUSH1 0x40 MLOAD PUSH32 0x1E4FBDF700000000000000000000000000000000000000000000000000000000 DUP2 MSTORE PUSH1 0x4 ADD PUSH2 0x7AA SWAP2 SWAP1 PUSH2 0xA99 JUMP JUMPDEST PUSH1 0x40 MLOAD DUP1 SWAP2 SUB SWAP1 REVERT JUMPDEST PUSH2 0x7BC DUP2 PUSH2 0x8B3 JUMP JUMPDEST POP JUMP JUMPDEST PUSH1 0x4 PUSH1 0x20 MSTORE DUP1 PUSH0 MSTORE PUSH1 0x40 PUSH0 KECCAK256 PUSH0 SWAP2 POP SWAP1 POP SLOAD DUP2 JUMP JUMPDEST PUSH1 0x2 PUSH1 0x1 SLOAD SUB PUSH2 0x819 JUMPI PUSH1 0x40 MLOAD PUSH32 0x8C379A000000000000000000000000000000000000000000000000000000000 DUP2 MSTORE PUSH1 0x4 ADD PUSH2 0x810 SWAP1 PUSH2 0xF18 JUMP JUMPDEST PUSH1 0x40 MLOAD DUP1 SWAP2 SUB SWAP1 REVERT JUMPDEST PUSH1 0x2 PUSH1 0x1 DUP2 SWAP1 SSTORE POP JUMP JUMPDEST PUSH1 0x1 DUP1 DUP2 SWAP1 SSTORE POP JUMP JUMPDEST PUSH2 0x834 PUSH2 0x974 JUMP JUMPDEST PUSH20 0xFFFFFFFFFFFFFFFFFFFFFFFFFFFFFFFFFFFFFFFF AND PUSH2 0x852 PUSH2 0x51C JUMP JUMPDEST PUSH20 0xFFFFFFFFFFFFFFFFFFFFFFFFFFFFFFFFFFFFFFFF AND EQ PUSH2 0x8B1 JUMPI PUSH2 0x875 PUSH2 0x974 JUMP JUMPDEST PUSH1 0x40 MLOAD PUSH32 0x118CDAA700000000000000000000000000000000000000000000000000000000 DUP2 MSTORE PUSH1 0x4 ADD PUSH2 0x8A8 SWAP2 SWAP1 PUSH2 0xA99 JUMP JUMPDEST PUSH1 0x40 MLOAD DUP1 SWAP2 SUB SWAP1 REVERT JUMPDEST JUMP JUMPDEST PUSH0 DUP1 PUSH0 SWAP1 SLOAD SWAP1 PUSH2 0x100 EXP SWAP1 DIV PUSH20 0xFFFFFFFFFFFFFFFFFFFFFFFFFFFFFFFFFFFFFFFF AND SWAP1 POP DUP2 PUSH0 DUP1 PUSH2 0x100 EXP DUP2 SLOAD DUP2 PUSH20 0xFFFFFFFFFFFFFFFFFFFFFFFFFFFFFFFFFFFFFFFF MUL NOT AND SWAP1 DUP4 PUSH20 0xFFFFFFFFFFFFFFFFFFFFFFFFFFFFFFFFFFFFFFFF AND MUL OR SWAP1 SSTORE POP DUP2 PUSH20 0xFFFFFFFFFFFFFFFFFFFFFFFFFFFFFFFFFFFFFFFF AND DUP2 PUSH20 0xFFFFFFFFFFFFFFFFFFFFFFFFFFFFFFFFFFFFFFFF AND PUSH32 0x8BE0079C531659141344CD1FD0A4F28419497F9722A3DAAFE3B4186F6B6457E0 PUSH1 0x40 MLOAD PUSH1 0x40 MLOAD DUP1 SWAP2 SUB SWAP1 LOG3 POP POP JUMP JUMPDEST PUSH0 CALLER SWAP1 POP SWAP1 JUMP JUMPDEST PUSH0 DUP2 SWAP1 POP SWAP2 SWAP1 POP JUMP JUMPDEST PUSH2 0x98D DUP2 PUSH2 0x97B JUMP JUMPDEST DUP3 MSTORE POP POP JUMP JUMPDEST PUSH0 PUSH1 0x20 DUP3 ADD SWAP1 POP PUSH2 0x9A6 PUSH0 DUP4 ADD DUP5 PUSH2 0x984 JUMP JUMPDEST SWAP3 SWAP2 POP POP JUMP JUMPDEST PUSH0 DUP1 REVERT JUMPDEST PUSH2 0x9B9 DUP2 PUSH2 0x97B JUMP JUMPDEST DUP2 EQ PUSH2 0x9C3 JUMPI PUSH0 DUP1 REVERT JUMPDEST POP JUMP JUMPDEST PUSH0 DUP2 CALLDATALOAD SWAP1 POP PUSH2 0x9D4 DUP2 PUSH2 0x9B0 JUMP JUMPDEST SWAP3 SWAP2 POP POP JUMP JUMPDEST PUSH0 PUSH1 0x20 DUP3 DUP5 SUB SLT ISZERO PUSH2 0x9EF JUMPI PUSH2 0x9EE PUSH2 0x9AC JUMP JUMPDEST JUMPDEST PUSH0 PUSH2 0x9FC DUP5 DUP3 DUP6 ADD PUSH2 0x9C6 JUMP JUMPDEST SWAP2 POP POP SWAP3 SWAP2 POP POP JUMP JUMPDEST PUSH0 PUSH20 0xFFFFFFFFFFFFFFFFFFFFFFFFFFFFFFFFFFFFFFFF DUP3 AND SWAP1 POP SWAP2 SWAP1 POP JUMP JUMPDEST PUSH0 PUSH2 0xA2E DUP3 PUSH2 0xA05 JUMP JUMPDEST SWAP1 POP SWAP2 SWAP1 POP JUMP JUMPDEST PUSH2 0xA3E DUP2 PUSH2 0xA24 JUMP JUMPDEST DUP2 EQ PUSH2 0xA48 JUMPI PUSH0 DUP1 REVERT JUMPDEST POP JUMP JUMPDEST PUSH0 DUP2 CALLDATALOAD SWAP1 POP PUSH2 0xA59 DUP2 PUSH2 0xA35 JUMP JUMPDEST SWAP3 SWAP2 POP POP JUMP JUMPDEST PUSH0 PUSH1 0x20 DUP3 DUP5 SUB SLT ISZERO PUSH2 0xA74 JUMPI PUSH2 0xA73 PUSH2 0x9AC JUMP JUMPDEST JUMPDEST PUSH0 PUSH2 0xA81 DUP5 DUP3 DUP6 ADD PUSH2 0xA4B JUMP JUMPDEST SWAP2 POP POP SWAP3 SWAP2 POP POP JUMP JUMPDEST PUSH2 0xA93 DUP2 PUSH2 0xA24 JUMP JUMPDEST DUP3 MSTORE POP POP JUMP JUMPDEST PUSH0 PUSH1 0x20 DUP3 ADD SWAP1 POP PUSH2 0xAAC PUSH0 DUP4 ADD DUP5 PUSH2 0xA8A JUMP JUMPDEST SWAP3 SWAP2 POP POP JUMP JUMPDEST PUSH0 DUP2 SWAP1 POP SWAP2 SWAP1 POP JUMP JUMPDEST PUSH0 PUSH2 0xAD5 PUSH2 0xAD0 PUSH2 0xACB DUP5 PUSH2 0xA05 JUMP JUMPDEST PUSH2 0xAB2 JUMP JUMPDEST PUSH2 0xA05 JUMP JUMPDEST SWAP1 POP SWAP2 SWAP1 POP JUMP JUMPDEST PUSH0 PUSH2 0xAE6 DUP3 PUSH2 0xABB JUMP JUMPDEST SWAP1 POP SWAP2 SWAP1 POP JUMP JUMPDEST PUSH0 PUSH2 0xAF7 DUP3 PUSH2 0xADC JUMP JUMPDEST SWAP1 POP SWAP2 SWAP1 POP JUMP JUMPDEST PUSH2 0xB07 DUP2 PUSH2 0xAED JUMP JUMPDEST DUP3 MSTORE POP POP JUMP JUMPDEST PUSH0 PUSH1 0x20 DUP3 ADD SWAP1 POP PUSH2 0xB20 PUSH0 DUP4 ADD DUP5 PUSH2 0xAFE JUMP JUMPDEST SWAP3 SWAP2 POP POP JUMP JUMPDEST PUSH0 DUP3 DUP3 MSTORE PUSH1 0x20 DUP3 ADD SWAP1 POP SWAP3 SWAP2 POP POP JUMP JUMPDEST PUSH32 0x576974686472617720616D6F756E74206D757374206265203E20300000000000 PUSH0 DUP3 ADD MSTORE POP JUMP JUMPDEST PUSH0 PUSH2 0xB6A PUSH1 0x1B DUP4 PUSH2 0xB26 JUMP JUMPDEST SWAP2 POP PUSH2 0xB75 DUP3 PUSH2 0xB36 JUMP JUMPDEST PUSH1 0x20 DUP3 ADD SWAP1 POP SWAP2 SWAP1 POP JUMP JUMPDEST PUSH0 PUSH1 0x20 DUP3 ADD SWAP1 POP DUP2 DUP2 SUB PUSH0 DUP4 ADD MSTORE PUSH2 0xB97 DUP2 PUSH2 0xB5E JUMP JUMPDEST SWAP1 POP SWAP2 SWAP1 POP JUMP JUMPDEST PUSH32 0x496E73756666696369656E74206465706F73697465642062616C616E63650000 PUSH0 DUP3 ADD MSTORE POP JUMP JUMPDEST PUSH0 PUSH2 0xBD2 PUSH1 0x1E DUP4 PUSH2 0xB26 JUMP JUMPDEST SWAP2 POP PUSH2 0xBDD DUP3 PUSH2 0xB9E JUMP JUMPDEST PUSH1 0x20 DUP3 ADD SWAP1 POP SWAP2 SWAP1 POP JUMP JUMPDEST PUSH0 PUSH1 0x20 DUP3 ADD SWAP1 POP DUP2 DUP2 SUB PUSH0 DUP4 ADD MSTORE PUSH2 0xBFF DUP2 PUSH2 0xBC6 JUMP JUMPDEST SWAP1 POP SWAP2 SWAP1 POP JUMP JUMPDEST PUSH32 0x4E487B7100000000000000000000000000000000000000000000000000000000 PUSH0 MSTORE PUSH1 0x11 PUSH1 0x4 MSTORE PUSH1 0x24 PUSH0 REVERT JUMPDEST PUSH0 PUSH2 0xC3D DUP3 PUSH2 0x97B JUMP JUMPDEST SWAP2 POP PUSH2 0xC48 DUP4 PUSH2 0x97B JUMP JUMPDEST SWAP3 POP DUP3 DUP3 SUB SWAP1 POP DUP2 DUP2 GT ISZERO PUSH2 0xC60 JUMPI PUSH2 0xC5F PUSH2 0xC06 JUMP JUMPDEST JUMPDEST SWAP3 SWAP2 POP POP JUMP JUMPDEST PUSH0 PUSH1 0x40 DUP3 ADD SWAP1 POP PUSH2 0xC79 PUSH0 DUP4 ADD DUP6 PUSH2 0xA8A JUMP JUMPDEST PUSH2 0xC86 PUSH1 0x20 DUP4 ADD DUP5 PUSH2 0x984 JUMP JUMPDEST SWAP4 SWAP3 POP POP POP JUMP JUMPDEST PUSH0 DUP2 ISZERO ISZERO SWAP1 POP SWAP2 SWAP1 POP JUMP JUMPDEST PUSH2 0xCA1 DUP2 PUSH2 0xC8D JUMP JUMPDEST DUP2 EQ PUSH2 0xCAB JUMPI PUSH0 DUP1 REVERT JUMPDEST POP JUMP JUMPDEST PUSH0 DUP2 MLOAD SWAP1 POP PUSH2 0xCBC DUP2 PUSH2 0xC98 JUMP JUMPDEST SWAP3 SWAP2 POP POP JUMP JUMPDEST PUSH0 PUSH1 0x20 DUP3 DUP5 SUB SLT ISZERO PUSH2 0xCD7 JUMPI PUSH2 0xCD6 PUSH2 0x9AC JUMP JUMPDEST JUMPDEST PUSH0 PUSH2 0xCE4 DUP5 DUP3 DUP6 ADD PUSH2 0xCAE JUMP JUMPDEST SWAP2 POP POP SWAP3 SWAP2 POP POP JUMP JUMPDEST PUSH32 0x546F6B656E207472616E73666572206661696C65640000000000000000000000 PUSH0 DUP3 ADD MSTORE POP JUMP JUMPDEST PUSH0 PUSH2 0xD21 PUSH1 0x15 DUP4 PUSH2 0xB26 JUMP JUMPDEST SWAP2 POP PUSH2 0xD2C DUP3 PUSH2 0xCED JUMP JUMPDEST PUSH1 0x20 DUP3 ADD SWAP1 POP SWAP2 SWAP1 POP JUMP JUMPDEST PUSH0 PUSH1 0x20 DUP3 ADD SWAP1 POP DUP2 DUP2 SUB PUSH0 DUP4 ADD MSTORE PUSH2 0xD4E DUP2 PUSH2 0xD15 JUMP JUMPDEST SWAP1 POP SWAP2 SWAP1 POP JUMP JUMPDEST PUSH32 0x4D756C7469706C696572206D757374206265203E203000000000000000000000 PUSH0 DUP3 ADD MSTORE POP JUMP JUMPDEST PUSH0 PUSH2 0xD89 PUSH1 0x16 DUP4 PUSH2 0xB26 JUMP JUMPDEST SWAP2 POP PUSH2 0xD94 DUP3 PUSH2 0xD55 JUMP JUMPDEST PUSH1 0x20 DUP3 ADD SWAP1 POP SWAP2 SWAP1 POP JUMP JUMPDEST PUSH0 PUSH1 0x20 DUP3 ADD SWAP1 POP DUP2 DUP2 SUB PUSH0 DUP4 ADD MSTORE PUSH2 0xDB6 DUP2 PUSH2 0xD7D JUMP JUMPDEST SWAP1 POP SWAP2 SWAP1 POP JUMP JUMPDEST PUSH0 PUSH2 0xDC7 DUP3 PUSH2 0x97B JUMP JUMPDEST SWAP2 POP PUSH2 0xDD2 DUP4 PUSH2 0x97B JUMP JUMPDEST SWAP3 POP DUP3 DUP3 MUL PUSH2 0xDE0 DUP2 PUSH2 0x97B JUMP JUMPDEST SWAP2 POP DUP3 DUP3 DIV DUP5 EQ DUP4 ISZERO OR PUSH2 0xDF7 JUMPI PUSH2 0xDF6 PUSH2 0xC06 JUMP JUMPDEST JUMPDEST POP SWAP3 SWAP2 POP POP JUMP JUMPDEST PUSH32 0x4465706F73697420616D6F756E74206D757374206265203E2030000000000000 PUSH0 DUP3 ADD MSTORE POP JUMP JUMPDEST PUSH0 PUSH2 0xE32 PUSH1 0x1A DUP4 PUSH2 0xB26 JUMP JUMPDEST SWAP2 POP PUSH2 0xE3D DUP3 PUSH2 0xDFE JUMP JUMPDEST PUSH1 0x20 DUP3 ADD SWAP1 POP SWAP2 SWAP1 POP JUMP JUMPDEST PUSH0 PUSH1 0x20 DUP3 ADD SWAP1 POP DUP2 DUP2 SUB PUSH0 DUP4 ADD MSTORE PUSH2 0xE5F DUP2 PUSH2 0xE26 JUMP JUMPDEST SWAP1 POP SWAP2 SWAP1 POP JUMP JUMPDEST PUSH0 PUSH1 0x60 DUP3 ADD SWAP1 POP PUSH2 0xE79 PUSH0 DUP4 ADD DUP7 PUSH2 0xA8A JUMP JUMPDEST PUSH2 0xE86 PUSH1 0x20 DUP4 ADD DUP6 PUSH2 0xA8A JUMP JUMPDEST PUSH2 0xE93 PUSH1 0x40 DUP4 ADD DUP5 PUSH2 0x984 JUMP JUMPDEST SWAP5 SWAP4 POP POP POP POP JUMP JUMPDEST PUSH0 PUSH2 0xEA5 DUP3 PUSH2 0x97B JUMP JUMPDEST SWAP2 POP PUSH2 0xEB0 DUP4 PUSH2 0x97B JUMP JUMPDEST SWAP3 POP DUP3 DUP3 ADD SWAP1 POP DUP1 DUP3 GT ISZERO PUSH2 0xEC8 JUMPI PUSH2 0xEC7 PUSH2 0xC06 JUMP JUMPDEST JUMPDEST SWAP3 SWAP2 POP POP JUMP JUMPDEST PUSH32 0x5265656E7472616E637947756172643A207265656E7472616E742063616C6C00 PUSH0 DUP3 ADD MSTORE POP JUMP JUMPDEST PUSH0 PUSH2 0xF02 PUSH1 0x1F DUP4 PUSH2 0xB26 JUMP JUMPDEST SWAP2 POP PUSH2 0xF0D DUP3 PUSH2 0xECE JUMP JUMPDEST PUSH1 0x20 DUP3 ADD SWAP1 POP SWAP2 SWAP1 POP JUMP JUMPDEST PUSH0 PUSH1 0x20 DUP3 ADD SWAP1 POP DUP2 DUP2 SUB PUSH0 DUP4 ADD MSTORE PUSH2 0xF2F DUP2 PUSH2 0xEF6 JUMP JUMPDEST SWAP1 POP SWAP2 SWAP1 POP JUMP INVALID LOG2 PUSH5 0x6970667358 0x22 SLT KECCAK256 SWAP3 0x21 PUSH28 0xC8DA5ADF49115E889892EE2A786212C28A01552732BC34464C953ABF SWAP2 PUSH5 0x736F6C6343 STOP ADDMOD EQ STOP CALLER "
				},
				"gasEstimates": {
					"creation": {
						"codeDepositCost": "789600",
						"executionCost": "infinite",
						"totalCost": "infinite"
					},
					"external": {
						"deposit(uint256)": "infinite",
						"depositToken()": "infinite",
						"deposits(address)": "2890",
						"multiplier()": "2426",
						"owner()": "2515",
						"renounceOwnership()": "infinite",
						"transferOwnership(address)": "infinite",
						"updateMultiplier(uint256)": "infinite",
						"utilityOf(address)": "infinite",
						"withdraw(uint256)": "infinite"
					}
				},
				"methodIdentifiers": {
					"deposit(uint256)": "b6b55f25",
					"depositToken()": "c89039c5",
					"deposits(address)": "fc7e286d",
					"multiplier()": "1b3ed722",
					"owner()": "8da5cb5b",
					"renounceOwnership()": "715018a6",
					"transferOwnership(address)": "f2fde38b",
					"updateMultiplier(uint256)": "5ffe6146",
					"utilityOf(address)": "6f88e523",
					"withdraw(uint256)": "2e1a7d4d"
				}
			},
			"storageLayout": {
				"storage": [
					{
						"astId": 8,
						"contract": "E/economicUtil.sol:EconomicUtility",
						"label": "_owner",
						"offset": 0,
						"slot": "0",
						"type": "t_address"
					},
					{
						"astId": 158,
						"contract": "E/economicUtil.sol:EconomicUtility",
						"label": "_status",
						"offset": 0,
						"slot": "1",
						"type": "t_uint256"
					},
					{
						"astId": 333,
						"contract": "E/economicUtil.sol:EconomicUtility",
						"label": "depositToken",
						"offset": 0,
						"slot": "2",
						"type": "t_contract(IERC20)290"
					},
					{
						"astId": 335,
						"contract": "E/economicUtil.sol:EconomicUtility",
						"label": "multiplier",
						"offset": 0,
						"slot": "3",
						"type": "t_uint256"
					},
					{
						"astId": 339,
						"contract": "E/economicUtil.sol:EconomicUtility",
						"label": "deposits",
						"offset": 0,
						"slot": "4",
						"type": "t_mapping(t_address,t_uint256)"
					}
				],
				"types": {
					"t_address": {
						"encoding": "inplace",
						"label": "address",
						"numberOfBytes": "20"
					},
					"t_contract(IERC20)290": {
						"encoding": "inplace",
						"label": "contract IERC20",
						"numberOfBytes": "20"
					},
					"t_mapping(t_address,t_uint256)": {
						"encoding": "mapping",
						"key": "t_address",
						"label": "mapping(address => uint256)",
						"numberOfBytes": "32",
						"value": "t_uint256"
					},
					"t_uint256": {
						"encoding": "inplace",
						"label": "uint256",
						"numberOfBytes": "32"
					}
				}
			},
			"userdoc": {
				"kind": "user",
				"methods": {
					"constructor": {
						"notice": "Constructor sets the deposit token and initial multiplier."
					},
					"deposit(uint256)": {
						"notice": "Allows users to deposit tokens into the contract. The deposited tokens will contribute to the user's economic utility."
					},
					"updateMultiplier(uint256)": {
						"notice": "Updates the multiplier used in utility calculation. This affects all users' calculated utility scores."
					},
					"utilityOf(address)": {
						"notice": "Returns the current economic utility score for a user."
					},
					"withdraw(uint256)": {
						"notice": "Allows users to withdraw tokens from the contract. Their economic utility will be updated accordingly."
					}
				},
				"notice": "This contract allows users to deposit an ERC20 token and calculates an \"economic utility\" score  for each user as (deposit balance * multiplier). The multiplier is dynamic and can be updated by the owner. Users can deposit and withdraw tokens at any time.",
				"version": 1
			}
		}
	}
}