{
	"E/equity.sol": {
		"EquityToken": {
			"abi": [
				{
					"inputs": [
						{
							"internalType": "uint256",
							"name": "initialPrice",
							"type": "uint256"
						}
					],
					"stateMutability": "nonpayable",
					"type": "constructor"
				},
				{
					"inputs": [
						{
							"internalType": "address",
							"name": "spender",
							"type": "address"
						},
						{
							"internalType": "uint256",
							"name": "allowance",
							"type": "uint256"
						},
						{
							"internalType": "uint256",
							"name": "needed",
							"type": "uint256"
						}
					],
					"name": "ERC20InsufficientAllowance",
					"type": "error"
				},
				{
					"inputs": [
						{
							"internalType": "address",
							"name": "sender",
							"type": "address"
						},
						{
							"internalType": "uint256",
							"name": "balance",
							"type": "uint256"
						},
						{
							"internalType": "uint256",
							"name": "needed",
							"type": "uint256"
						}
					],
					"name": "ERC20InsufficientBalance",
					"type": "error"
				},
				{
					"inputs": [
						{
							"internalType": "address",
							"name": "approver",
							"type": "address"
						}
					],
					"name": "ERC20InvalidApprover",
					"type": "error"
				},
				{
					"inputs": [
						{
							"internalType": "address",
							"name": "receiver",
							"type": "address"
						}
					],
					"name": "ERC20InvalidReceiver",
					"type": "error"
				},
				{
					"inputs": [
						{
							"internalType": "address",
							"name": "sender",
							"type": "address"
						}
					],
					"name": "ERC20InvalidSender",
					"type": "error"
				},
				{
					"inputs": [
						{
							"internalType": "address",
							"name": "spender",
							"type": "address"
						}
					],
					"name": "ERC20InvalidSpender",
					"type": "error"
				},
				{
					"inputs": [
						{
							"internalType": "address",
							"name": "owner",
							"type": "address"
						}
					],
					"name": "OwnableInvalidOwner",
					"type": "error"
				},
				{
					"inputs": [
						{
							"internalType": "address",
							"name": "account",
							"type": "address"
						}
					],
					"name": "OwnableUnauthorizedAccount",
					"type": "error"
				},
				{
					"anonymous": false,
					"inputs": [
						{
							"indexed": true,
							"internalType": "address",
							"name": "owner",
							"type": "address"
						},
						{
							"indexed": true,
							"internalType": "address",
							"name": "spender",
							"type": "address"
						},
						{
							"indexed": false,
							"internalType": "uint256",
							"name": "value",
							"type": "uint256"
						}
					],
					"name": "Approval",
					"type": "event"
				},
				{
					"anonymous": false,
					"inputs": [
						{
							"indexed": true,
							"internalType": "address",
							"name": "buyer",
							"type": "address"
						},
						{
							"indexed": false,
							"internalType": "uint256",
							"name": "tokensMinted",
							"type": "uint256"
						},
						{
							"indexed": false,
							"internalType": "uint256",
							"name": "ethSpent",
							"type": "uint256"
						}
					],
					"name": "EquityPurchased",
					"type": "event"
				},
				{
					"anonymous": false,
					"inputs": [
						{
							"indexed": true,
							"internalType": "address",
							"name": "previousOwner",
							"type": "address"
						},
						{
							"indexed": true,
							"internalType": "address",
							"name": "newOwner",
							"type": "address"
						}
					],
					"name": "OwnershipTransferred",
					"type": "event"
				},
				{
					"anonymous": false,
					"inputs": [
						{
							"indexed": false,
							"internalType": "uint256",
							"name": "newPrice",
							"type": "uint256"
						}
					],
					"name": "TokenPriceUpdated",
					"type": "event"
				},
				{
					"anonymous": false,
					"inputs": [
						{
							"indexed": true,
							"internalType": "address",
							"name": "from",
							"type": "address"
						},
						{
							"indexed": true,
							"internalType": "address",
							"name": "to",
							"type": "address"
						},
						{
							"indexed": false,
							"internalType": "uint256",
							"name": "value",
							"type": "uint256"
						}
					],
					"name": "Transfer",
					"type": "event"
				},
				{
					"inputs": [
						{
							"internalType": "address",
							"name": "owner",
							"type": "address"
						},
						{
							"internalType": "address",
							"name": "spender",
							"type": "address"
						}
					],
					"name": "allowance",
					"outputs": [
						{
							"internalType": "uint256",
							"name": "",
							"type": "uint256"
						}
					],
					"stateMutability": "view",
					"type": "function"
				},
				{
					"inputs": [
						{
							"internalType": "address",
							"name": "spender",
							"type": "address"
						},
						{
							"internalType": "uint256",
							"name": "value",
							"type": "uint256"
						}
					],
					"name": "approve",
					"outputs": [
						{
							"internalType": "bool",
							"name": "",
							"type": "bool"
						}
					],
					"stateMutability": "nonpayable",
					"type": "function"
				},
				{
					"inputs": [
						{
							"internalType": "address",
							"name": "account",
							"type": "address"
						}
					],
					"name": "balanceOf",
					"outputs": [
						{
							"internalType": "uint256",
							"name": "",
							"type": "uint256"
						}
					],
					"stateMutability": "view",
					"type": "function"
				},
				{
					"inputs": [],
					"name": "decimals",
					"outputs": [
						{
							"internalType": "uint8",
							"name": "",
							"type": "uint8"
						}
					],
					"stateMutability": "view",
					"type": "function"
				},
				{
					"inputs": [],
					"name": "name",
					"outputs": [
						{
							"internalType": "string",
							"name": "",
							"type": "string"
						}
					],
					"stateMutability": "view",
					"type": "function"
				},
				{
					"inputs": [],
					"name": "owner",
					"outputs": [
						{
							"internalType": "address",
							"name": "",
							"type": "address"
						}
					],
					"stateMutability": "view",
					"type": "function"
				},
				{
					"inputs": [],
					"name": "purchaseEquity",
					"outputs": [],
					"stateMutability": "payable",
					"type": "function"
				},
				{
					"inputs": [],
					"name": "renounceOwnership",
					"outputs": [],
					"stateMutability": "nonpayable",
					"type": "function"
				},
				{
					"inputs": [],
					"name": "symbol",
					"outputs": [
						{
							"internalType": "string",
							"name": "",
							"type": "string"
						}
					],
					"stateMutability": "view",
					"type": "function"
				},
				{
					"inputs": [],
					"name": "tokenPrice",
					"outputs": [
						{
							"internalType": "uint256",
							"name": "",
							"type": "uint256"
						}
					],
					"stateMutability": "view",
					"type": "function"
				},
				{
					"inputs": [],
					"name": "totalRaised",
					"outputs": [
						{
							"internalType": "uint256",
							"name": "",
							"type": "uint256"
						}
					],
					"stateMutability": "view",
					"type": "function"
				},
				{
					"inputs": [],
					"name": "totalSupply",
					"outputs": [
						{
							"internalType": "uint256",
							"name": "",
							"type": "uint256"
						}
					],
					"stateMutability": "view",
					"type": "function"
				},
				{
					"inputs": [
						{
							"internalType": "address",
							"name": "to",
							"type": "address"
						},
						{
							"internalType": "uint256",
							"name": "value",
							"type": "uint256"
						}
					],
					"name": "transfer",
					"outputs": [
						{
							"internalType": "bool",
							"name": "",
							"type": "bool"
						}
					],
					"stateMutability": "nonpayable",
					"type": "function"
				},
				{
					"inputs": [
						{
							"internalType": "address",
							"name": "from",
							"type": "address"
						},
						{
							"internalType": "address",
							"name": "to",
							"type": "address"
						},
						{
							"internalType": "uint256",
							"name": "value",
							"type": "uint256"
						}
					],
					"name": "transferFrom",
					"outputs": [
						{
							"internalType": "bool",
							"name": "",
							"type": "bool"
						}
					],
					"stateMutability": "nonpayable",
					"type": "function"
				},
				{
					"inputs": [
						{
							"internalType": "address",
							"name": "newOwner",
							"type": "address"
						}
					],
					"name": "transferOwnership",
					"outputs": [],
					"stateMutability": "nonpayable",
					"type": "function"
				},
				{
					"inputs": [
						{
							"internalType": "uint256",
							"name": "newPrice",
							"type": "uint256"
						}
					],
					"name": "updateTokenPrice",
					"outputs": [],
					"stateMutability": "nonpayable",
					"type": "function"
				},
				{
					"inputs": [
						{
							"internalType": "uint256",
							"name": "amount",
							"type": "uint256"
						}
					],
					"name": "withdrawFunds",
					"outputs": [],
					"stateMutability": "nonpayable",
					"type": "function"
				},
				{
					"stateMutability": "payable",
					"type": "receive"
				}
			],
			"devdoc": {
				"errors": {
					"ERC20InsufficientAllowance(address,uint256,uint256)": [
						{
							"details": "Indicates a failure with the `spender`’s `allowance`. Used in transfers.",
							"params": {
								"allowance": "Amount of tokens a `spender` is allowed to operate with.",
								"needed": "Minimum amount required to perform a transfer.",
								"spender": "Address that may be allowed to operate on tokens without being their owner."
							}
						}
					],
					"ERC20InsufficientBalance(address,uint256,uint256)": [
						{
							"details": "Indicates an error related to the current `balance` of a `sender`. Used in transfers.",
							"params": {
								"balance": "Current balance for the interacting account.",
								"needed": "Minimum amount required to perform a transfer.",
								"sender": "Address whose tokens are being transferred."
							}
						}
					],
					"ERC20InvalidApprover(address)": [
						{
							"details": "Indicates a failure with the `approver` of a token to be approved. Used in approvals.",
							"params": {
								"approver": "Address initiating an approval operation."
							}
						}
					],
					"ERC20InvalidReceiver(address)": [
						{
							"details": "Indicates a failure with the token `receiver`. Used in transfers.",
							"params": {
								"receiver": "Address to which tokens are being transferred."
							}
						}
					],
					"ERC20InvalidSender(address)": [
						{
							"details": "Indicates a failure with the token `sender`. Used in transfers.",
							"params": {
								"sender": "Address whose tokens are being transferred."
							}
						}
					],
					"ERC20InvalidSpender(address)": [
						{
							"details": "Indicates a failure with the `spender` to be approved. Used in approvals.",
							"params": {
								"spender": "Address that may be allowed to operate on tokens without being their owner."
							}
						}
					],
					"OwnableInvalidOwner(address)": [
						{
							"details": "The owner is not a valid owner account. (eg. `address(0)`)"
						}
					],
					"OwnableUnauthorizedAccount(address)": [
						{
							"details": "The caller account is not authorized to perform an operation."
						}
					]
				},
				"events": {
					"Approval(address,address,uint256)": {
						"details": "Emitted when the allowance of a `spender` for an `owner` is set by a call to {approve}. `value` is the new allowance."
					},
					"Transfer(address,address,uint256)": {
						"details": "Emitted when `value` tokens are moved from one account (`from`) to another (`to`). Note that `value` may be zero."
					}
				},
				"kind": "dev",
				"methods": {
					"allowance(address,address)": {
						"details": "See {IERC20-allowance}."
					},
					"approve(address,uint256)": {
						"details": "See {IERC20-approve}. NOTE: If `value` is the maximum `uint256`, the allowance is not updated on `transferFrom`. This is semantically equivalent to an infinite approval. Requirements: - `spender` cannot be the zero address."
					},
					"balanceOf(address)": {
						"details": "See {IERC20-balanceOf}."
					},
					"constructor": {
						"params": {
							"initialPrice": "The initial token price in wei."
						}
					},
					"decimals()": {
						"details": "Returns the number of decimals used to get its user representation. For example, if `decimals` equals `2`, a balance of `505` tokens should be displayed to a user as `5.05` (`505 / 10 ** 2`). Tokens usually opt for a value of 18, imitating the relationship between Ether and Wei. This is the default value returned by this function, unless it's overridden. NOTE: This information is only used for _display_ purposes: it in no way affects any of the arithmetic of the contract, including {IERC20-balanceOf} and {IERC20-transfer}."
					},
					"name()": {
						"details": "Returns the name of the token."
					},
					"owner()": {
						"details": "Returns the address of the current owner."
					},
					"renounceOwnership()": {
						"details": "Leaves the contract without owner. It will not be possible to call `onlyOwner` functions. Can only be called by the current owner. NOTE: Renouncing ownership will leave the contract without an owner, thereby disabling any functionality that is only available to the owner."
					},
					"symbol()": {
						"details": "Returns the symbol of the token, usually a shorter version of the name."
					},
					"totalSupply()": {
						"details": "See {IERC20-totalSupply}."
					},
					"transfer(address,uint256)": {
						"details": "See {IERC20-transfer}. Requirements: - `to` cannot be the zero address. - the caller must have a balance of at least `value`."
					},
					"transferFrom(address,address,uint256)": {
						"details": "See {IERC20-transferFrom}. Skips emitting an {Approval} event indicating an allowance update. This is not required by the ERC. See {xref-ERC20-_approve-address-address-uint256-bool-}[_approve]. NOTE: Does not update the allowance if the current allowance is the maximum `uint256`. Requirements: - `from` and `to` cannot be the zero address. - `from` must have a balance of at least `value`. - the caller must have allowance for ``from``'s tokens of at least `value`."
					},
					"transferOwnership(address)": {
						"details": "Transfers ownership of the contract to a new account (`newOwner`). Can only be called by the current owner."
					},
					"updateTokenPrice(uint256)": {
						"params": {
							"newPrice": "The new token price in wei."
						}
					},
					"withdrawFunds(uint256)": {
						"params": {
							"amount": "The amount of ETH to withdraw."
						}
					}
				},
				"title": "EquityToken",
				"version": 1
			},
			"evm": {
				"assembly": "    /* \"E/equity.sol\":497:3287  contract EquityToken is ERC20, Ownable, ReentrancyGuard {... */\n  mstore(0x40, 0x80)\n    /* \"E/equity.sol\":1188:1388  constructor(uint256 initialPrice)... */\n  callvalue\n  dup1\n  iszero\n  tag_1\n  jumpi\n  revert(0x00, 0x00)\ntag_1:\n  pop\n  mload(0x40)\n  sub(codesize, bytecodeSize)\n  dup1\n  bytecodeSize\n  dup4\n  codecopy\n  dup2\n  dup2\n  add\n  0x40\n  mstore\n  dup2\n  add\n  swap1\n  tag_2\n  swap2\n  swap1\n  tag_3\n  jump\t// in\ntag_2:\n    /* \"E/equity.sol\":1274:1284  msg.sender */\n  caller\n    /* \"@openzeppelin/contracts/token/ERC20/ERC20.sol\":1601:1714  constructor(string memory name_, string memory symbol_) {... */\n  mload(0x40)\n  dup1\n  0x40\n  add\n  0x40\n  mstore\n  dup1\n  0x0b\n  dup2\n  mstore\n  0x20\n  add\n  0x457175697479546f6b656e000000000000000000000000000000000000000000\n  dup2\n  mstore\n  pop\n  mload(0x40)\n  dup1\n  0x40\n  add\n  0x40\n  mstore\n  dup1\n  0x03\n  dup2\n  mstore\n  0x20\n  add\n  0x4551540000000000000000000000000000000000000000000000000000000000\n  dup2\n  mstore\n  pop\n    /* \"@openzeppelin/contracts/token/ERC20/ERC20.sol\":1675:1680  name_ */\n  dup2\n    /* \"@openzeppelin/contracts/token/ERC20/ERC20.sol\":1667:1672  _name */\n  0x03\n    /* \"@openzeppelin/contracts/token/ERC20/ERC20.sol\":1667:1680  _name = name_ */\n  swap1\n  dup2\n  tag_9\n  swap2\n  swap1\n  tag_10\n  jump\t// in\ntag_9:\n  pop\n    /* \"@openzeppelin/contracts/token/ERC20/ERC20.sol\":1700:1707  symbol_ */\n  dup1\n    /* \"@openzeppelin/contracts/token/ERC20/ERC20.sol\":1690:1697  _symbol */\n  0x04\n    /* \"@openzeppelin/contracts/token/ERC20/ERC20.sol\":1690:1707  _symbol = symbol_ */\n  swap1\n  dup2\n  tag_11\n  swap2\n  swap1\n  tag_10\n  jump\t// in\ntag_11:\n  pop\n    /* \"@openzeppelin/contracts/token/ERC20/ERC20.sol\":1601:1714  constructor(string memory name_, string memory symbol_) {... */\n  pop\n  pop\n    /* \"@openzeppelin/contracts/access/Ownable.sol\":1297:1298  0 */\n  0x00\n    /* \"@openzeppelin/contracts/access/Ownable.sol\":1273:1299  initialOwner == address(0) */\n  0xffffffffffffffffffffffffffffffffffffffff\n  and\n    /* \"@openzeppelin/contracts/access/Ownable.sol\":1273:1285  initialOwner */\n  dup2\n    /* \"@openzeppelin/contracts/access/Ownable.sol\":1273:1299  initialOwner == address(0) */\n  0xffffffffffffffffffffffffffffffffffffffff\n  and\n  sub\n    /* \"@openzeppelin/contracts/access/Ownable.sol\":1269:1364  if (initialOwner == address(0)) {... */\n  tag_13\n  jumpi\n    /* \"@openzeppelin/contracts/access/Ownable.sol\":1350:1351  0 */\n  0x00\n    /* \"@openzeppelin/contracts/access/Ownable.sol\":1322:1353  OwnableInvalidOwner(address(0)) */\n  mload(0x40)\n  0x1e4fbdf700000000000000000000000000000000000000000000000000000000\n  dup2\n  mstore\n  0x04\n  add\n  tag_14\n  swap2\n  swap1\n  tag_15\n  jump\t// in\ntag_14:\n  mload(0x40)\n  dup1\n  swap2\n  sub\n  swap1\n  revert\n    /* \"@openzeppelin/contracts/access/Ownable.sol\":1269:1364  if (initialOwner == address(0)) {... */\ntag_13:\n    /* \"@openzeppelin/contracts/access/Ownable.sol\":1373:1405  _transferOwnership(initialOwner) */\n  tag_16\n    /* \"@openzeppelin/contracts/access/Ownable.sol\":1392:1404  initialOwner */\n  dup2\n    /* \"@openzeppelin/contracts/access/Ownable.sol\":1373:1391  _transferOwnership */\n  shl(0x20, tag_17)\n    /* \"@openzeppelin/contracts/access/Ownable.sol\":1373:1405  _transferOwnership(initialOwner) */\n  0x20\n  shr\n  jump\t// in\ntag_16:\n    /* \"@openzeppelin/contracts/access/Ownable.sol\":1225:1412  constructor(address initialOwner) {... */\n  pop\n    /* \"@openzeppelin/contracts/security/ReentrancyGuard.sol\":1716:1717  1 */\n  0x01\n    /* \"@openzeppelin/contracts/security/ReentrancyGuard.sol\":1821:1828  _status */\n  0x06\n    /* \"@openzeppelin/contracts/security/ReentrancyGuard.sol\":1821:1843  _status = _NOT_ENTERED */\n  dup2\n  swap1\n  sstore\n  pop\n    /* \"E/equity.sol\":1323:1324  0 */\n  0x00\n    /* \"E/equity.sol\":1308:1320  initialPrice */\n  dup2\n    /* \"E/equity.sol\":1308:1324  initialPrice > 0 */\n  gt\n    /* \"E/equity.sol\":1300:1346  require(initialPrice > 0, \"Price must be > 0\") */\n  tag_20\n  jumpi\n  mload(0x40)\n  0x08c379a000000000000000000000000000000000000000000000000000000000\n  dup2\n  mstore\n  0x04\n  add\n  tag_21\n  swap1\n  tag_22\n  jump\t// in\ntag_21:\n  mload(0x40)\n  dup1\n  swap2\n  sub\n  swap1\n  revert\ntag_20:\n    /* \"E/equity.sol\":1369:1381  initialPrice */\n  dup1\n    /* \"E/equity.sol\":1356:1366  tokenPrice */\n  0x07\n    /* \"E/equity.sol\":1356:1381  tokenPrice = initialPrice */\n  dup2\n  swap1\n  sstore\n  pop\n    /* \"E/equity.sol\":1188:1388  constructor(uint256 initialPrice)... */\n  pop\n    /* \"E/equity.sol\":497:3287  contract EquityToken is ERC20, Ownable, ReentrancyGuard {... */\n  jump(tag_23)\n    /* \"@openzeppelin/contracts/access/Ownable.sol\":2912:3099  function _transferOwnership(address newOwner) internal virtual {... */\ntag_17:\n    /* \"@openzeppelin/contracts/access/Ownable.sol\":2985:3001  address oldOwner */\n  0x00\n    /* \"@openzeppelin/contracts/access/Ownable.sol\":3004:3010  _owner */\n  0x05\n  0x00\n  swap1\n  sload\n  swap1\n  0x0100\n  exp\n  swap1\n  div\n  0xffffffffffffffffffffffffffffffffffffffff\n  and\n    /* \"@openzeppelin/contracts/access/Ownable.sol\":2985:3010  address oldOwner = _owner */\n  swap1\n  pop\n    /* \"@openzeppelin/contracts/access/Ownable.sol\":3029:3037  newOwner */\n  dup2\n    /* \"@openzeppelin/contracts/access/Ownable.sol\":3020:3026  _owner */\n  0x05\n  0x00\n    /* \"@openzeppelin/contracts/access/Ownable.sol\":3020:3037  _owner = newOwner */\n  0x0100\n  exp\n  dup2\n  sload\n  dup2\n  0xffffffffffffffffffffffffffffffffffffffff\n  mul\n  not\n  and\n  swap1\n  dup4\n  0xffffffffffffffffffffffffffffffffffffffff\n  and\n  mul\n  or\n  swap1\n  sstore\n  pop\n    /* \"@openzeppelin/contracts/access/Ownable.sol\":3083:3091  newOwner */\n  dup2\n    /* \"@openzeppelin/contracts/access/Ownable.sol\":3052:3092  OwnershipTransferred(oldOwner, newOwner) */\n  0xffffffffffffffffffffffffffffffffffffffff\n  and\n    /* \"@openzeppelin/contracts/access/Ownable.sol\":3073:3081  oldOwner */\n  dup2\n    /* \"@openzeppelin/contracts/access/Ownable.sol\":3052:3092  OwnershipTransferred(oldOwner, newOwner) */\n  0xffffffffffffffffffffffffffffffffffffffff\n  and\n  0x8be0079c531659141344cd1fd0a4f28419497f9722a3daafe3b4186f6b6457e0\n  mload(0x40)\n  mload(0x40)\n  dup1\n  swap2\n  sub\n  swap1\n  log3\n    /* \"@openzeppelin/contracts/access/Ownable.sol\":2975:3099  {... */\n  pop\n    /* \"@openzeppelin/contracts/access/Ownable.sol\":2912:3099  function _transferOwnership(address newOwner) internal virtual {... */\n  pop\n  jump\t// out\n    /* \"#utility.yul\":88:205   */\ntag_26:\n    /* \"#utility.yul\":197:198   */\n  0x00\n    /* \"#utility.yul\":194:195   */\n  0x00\n    /* \"#utility.yul\":187:199   */\n  revert\n    /* \"#utility.yul\":334:411   */\ntag_28:\n    /* \"#utility.yul\":371:378   */\n  0x00\n    /* \"#utility.yul\":400:405   */\n  dup2\n    /* \"#utility.yul\":389:405   */\n  swap1\n  pop\n    /* \"#utility.yul\":334:411   */\n  swap2\n  swap1\n  pop\n  jump\t// out\n    /* \"#utility.yul\":417:539   */\ntag_29:\n    /* \"#utility.yul\":490:514   */\n  tag_62\n    /* \"#utility.yul\":508:513   */\n  dup2\n    /* \"#utility.yul\":490:514   */\n  tag_28\n  jump\t// in\ntag_62:\n    /* \"#utility.yul\":483:488   */\n  dup2\n    /* \"#utility.yul\":480:515   */\n  eq\n    /* \"#utility.yul\":470:533   */\n  tag_63\n  jumpi\n    /* \"#utility.yul\":529:530   */\n  0x00\n    /* \"#utility.yul\":526:527   */\n  0x00\n    /* \"#utility.yul\":519:531   */\n  revert\n    /* \"#utility.yul\":470:533   */\ntag_63:\n    /* \"#utility.yul\":417:539   */\n  pop\n  jump\t// out\n    /* \"#utility.yul\":545:688   */\ntag_30:\n    /* \"#utility.yul\":602:607   */\n  0x00\n    /* \"#utility.yul\":633:639   */\n  dup2\n    /* \"#utility.yul\":627:640   */\n  mload\n    /* \"#utility.yul\":618:640   */\n  swap1\n  pop\n    /* \"#utility.yul\":649:682   */\n  tag_65\n    /* \"#utility.yul\":676:681   */\n  dup2\n    /* \"#utility.yul\":649:682   */\n  tag_29\n  jump\t// in\ntag_65:\n    /* \"#utility.yul\":545:688   */\n  swap3\n  swap2\n  pop\n  pop\n  jump\t// out\n    /* \"#utility.yul\":694:1045   */\ntag_3:\n    /* \"#utility.yul\":764:770   */\n  0x00\n    /* \"#utility.yul\":813:815   */\n  0x20\n    /* \"#utility.yul\":801:810   */\n  dup3\n    /* \"#utility.yul\":792:799   */\n  dup5\n    /* \"#utility.yul\":788:811   */\n  sub\n    /* \"#utility.yul\":784:816   */\n  slt\n    /* \"#utility.yul\":781:900   */\n  iszero\n  tag_67\n  jumpi\n    /* \"#utility.yul\":819:898   */\n  tag_68\n  tag_26\n  jump\t// in\ntag_68:\n    /* \"#utility.yul\":781:900   */\ntag_67:\n    /* \"#utility.yul\":939:940   */\n  0x00\n    /* \"#utility.yul\":964:1028   */\n  tag_69\n    /* \"#utility.yul\":1020:1027   */\n  dup5\n    /* \"#utility.yul\":1011:1017   */\n  dup3\n    /* \"#utility.yul\":1000:1009   */\n  dup6\n    /* \"#utility.yul\":996:1018   */\n  add\n    /* \"#utility.yul\":964:1028   */\n  tag_30\n  jump\t// in\ntag_69:\n    /* \"#utility.yul\":954:1028   */\n  swap2\n  pop\n    /* \"#utility.yul\":910:1038   */\n  pop\n    /* \"#utility.yul\":694:1045   */\n  swap3\n  swap2\n  pop\n  pop\n  jump\t// out\n    /* \"#utility.yul\":1051:1150   */\ntag_31:\n    /* \"#utility.yul\":1103:1109   */\n  0x00\n    /* \"#utility.yul\":1137:1142   */\n  dup2\n    /* \"#utility.yul\":1131:1143   */\n  mload\n    /* \"#utility.yul\":1121:1143   */\n  swap1\n  pop\n    /* \"#utility.yul\":1051:1150   */\n  swap2\n  swap1\n  pop\n  jump\t// out\n    /* \"#utility.yul\":1156:1336   */\ntag_32:\n    /* \"#utility.yul\":1204:1281   */\n  0x4e487b7100000000000000000000000000000000000000000000000000000000\n    /* \"#utility.yul\":1201:1202   */\n  0x00\n    /* \"#utility.yul\":1194:1282   */\n  mstore\n    /* \"#utility.yul\":1301:1305   */\n  0x41\n    /* \"#utility.yul\":1298:1299   */\n  0x04\n    /* \"#utility.yul\":1291:1306   */\n  mstore\n    /* \"#utility.yul\":1325:1329   */\n  0x24\n    /* \"#utility.yul\":1322:1323   */\n  0x00\n    /* \"#utility.yul\":1315:1330   */\n  revert\n    /* \"#utility.yul\":1342:1522   */\ntag_33:\n    /* \"#utility.yul\":1390:1467   */\n  0x4e487b7100000000000000000000000000000000000000000000000000000000\n    /* \"#utility.yul\":1387:1388   */\n  0x00\n    /* \"#utility.yul\":1380:1468   */\n  mstore\n    /* \"#utility.yul\":1487:1491   */\n  0x22\n    /* \"#utility.yul\":1484:1485   */\n  0x04\n    /* \"#utility.yul\":1477:1492   */\n  mstore\n    /* \"#utility.yul\":1511:1515   */\n  0x24\n    /* \"#utility.yul\":1508:1509   */\n  0x00\n    /* \"#utility.yul\":1501:1516   */\n  revert\n    /* \"#utility.yul\":1528:1848   */\ntag_34:\n    /* \"#utility.yul\":1572:1578   */\n  0x00\n    /* \"#utility.yul\":1609:1610   */\n  0x02\n    /* \"#utility.yul\":1603:1607   */\n  dup3\n    /* \"#utility.yul\":1599:1611   */\n  div\n    /* \"#utility.yul\":1589:1611   */\n  swap1\n  pop\n    /* \"#utility.yul\":1656:1657   */\n  0x01\n    /* \"#utility.yul\":1650:1654   */\n  dup3\n    /* \"#utility.yul\":1646:1658   */\n  and\n    /* \"#utility.yul\":1677:1695   */\n  dup1\n    /* \"#utility.yul\":1667:1748   */\n  tag_74\n  jumpi\n    /* \"#utility.yul\":1733:1737   */\n  0x7f\n    /* \"#utility.yul\":1725:1731   */\n  dup3\n    /* \"#utility.yul\":1721:1738   */\n  and\n    /* \"#utility.yul\":1711:1738   */\n  swap2\n  pop\n    /* \"#utility.yul\":1667:1748   */\ntag_74:\n    /* \"#utility.yul\":1795:1797   */\n  0x20\n    /* \"#utility.yul\":1787:1793   */\n  dup3\n    /* \"#utility.yul\":1784:1798   */\n  lt\n    /* \"#utility.yul\":1764:1782   */\n  dup2\n    /* \"#utility.yul\":1761:1799   */\n  sub\n    /* \"#utility.yul\":1758:1842   */\n  tag_75\n  jumpi\n    /* \"#utility.yul\":1814:1832   */\n  tag_76\n  tag_33\n  jump\t// in\ntag_76:\n    /* \"#utility.yul\":1758:1842   */\ntag_75:\n    /* \"#utility.yul\":1579:1848   */\n  pop\n    /* \"#utility.yul\":1528:1848   */\n  swap2\n  swap1\n  pop\n  jump\t// out\n    /* \"#utility.yul\":1854:1995   */\ntag_35:\n    /* \"#utility.yul\":1903:1907   */\n  0x00\n    /* \"#utility.yul\":1926:1929   */\n  dup2\n    /* \"#utility.yul\":1918:1929   */\n  swap1\n  pop\n    /* \"#utility.yul\":1949:1952   */\n  dup2\n    /* \"#utility.yul\":1946:1947   */\n  0x00\n    /* \"#utility.yul\":1939:1953   */\n  mstore\n    /* \"#utility.yul\":1983:1987   */\n  0x20\n    /* \"#utility.yul\":1980:1981   */\n  0x00\n    /* \"#utility.yul\":1970:1988   */\n  keccak256\n    /* \"#utility.yul\":1962:1988   */\n  swap1\n  pop\n    /* \"#utility.yul\":1854:1995   */\n  swap2\n  swap1\n  pop\n  jump\t// out\n    /* \"#utility.yul\":2001:2094   */\ntag_36:\n    /* \"#utility.yul\":2038:2044   */\n  0x00\n    /* \"#utility.yul\":2085:2087   */\n  0x20\n    /* \"#utility.yul\":2080:2082   */\n  0x1f\n    /* \"#utility.yul\":2073:2078   */\n  dup4\n    /* \"#utility.yul\":2069:2083   */\n  add\n    /* \"#utility.yul\":2065:2088   */\n  div\n    /* \"#utility.yul\":2055:2088   */\n  swap1\n  pop\n    /* \"#utility.yul\":2001:2094   */\n  swap2\n  swap1\n  pop\n  jump\t// out\n    /* \"#utility.yul\":2100:2207   */\ntag_37:\n    /* \"#utility.yul\":2144:2152   */\n  0x00\n    /* \"#utility.yul\":2194:2199   */\n  dup3\n    /* \"#utility.yul\":2188:2192   */\n  dup3\n    /* \"#utility.yul\":2184:2200   */\n  shl\n    /* \"#utility.yul\":2163:2200   */\n  swap1\n  pop\n    /* \"#utility.yul\":2100:2207   */\n  swap3\n  swap2\n  pop\n  pop\n  jump\t// out\n    /* \"#utility.yul\":2213:2606   */\ntag_38:\n    /* \"#utility.yul\":2282:2288   */\n  0x00\n    /* \"#utility.yul\":2332:2333   */\n  0x08\n    /* \"#utility.yul\":2320:2330   */\n  dup4\n    /* \"#utility.yul\":2316:2334   */\n  mul\n    /* \"#utility.yul\":2355:2452   */\n  tag_81\n    /* \"#utility.yul\":2385:2451   */\n  0xffffffffffffffffffffffffffffffffffffffffffffffffffffffffffffffff\n    /* \"#utility.yul\":2374:2383   */\n  dup3\n    /* \"#utility.yul\":2355:2452   */\n  tag_37\n  jump\t// in\ntag_81:\n    /* \"#utility.yul\":2473:2512   */\n  tag_82\n    /* \"#utility.yul\":2503:2511   */\n  dup7\n    /* \"#utility.yul\":2492:2501   */\n  dup4\n    /* \"#utility.yul\":2473:2512   */\n  tag_37\n  jump\t// in\ntag_82:\n    /* \"#utility.yul\":2461:2512   */\n  swap6\n  pop\n    /* \"#utility.yul\":2545:2549   */\n  dup1\n    /* \"#utility.yul\":2541:2550   */\n  not\n    /* \"#utility.yul\":2534:2539   */\n  dup5\n    /* \"#utility.yul\":2530:2551   */\n  and\n    /* \"#utility.yul\":2521:2551   */\n  swap4\n  pop\n    /* \"#utility.yul\":2594:2598   */\n  dup1\n    /* \"#utility.yul\":2584:2592   */\n  dup7\n    /* \"#utility.yul\":2580:2599   */\n  and\n    /* \"#utility.yul\":2573:2578   */\n  dup5\n    /* \"#utility.yul\":2570:2600   */\n  or\n    /* \"#utility.yul\":2560:2600   */\n  swap3\n  pop\n    /* \"#utility.yul\":2289:2606   */\n  pop\n  pop\n    /* \"#utility.yul\":2213:2606   */\n  swap4\n  swap3\n  pop\n  pop\n  pop\n  jump\t// out\n    /* \"#utility.yul\":2612:2672   */\ntag_39:\n    /* \"#utility.yul\":2640:2643   */\n  0x00\n    /* \"#utility.yul\":2661:2666   */\n  dup2\n    /* \"#utility.yul\":2654:2666   */\n  swap1\n  pop\n    /* \"#utility.yul\":2612:2672   */\n  swap2\n  swap1\n  pop\n  jump\t// out\n    /* \"#utility.yul\":2678:2820   */\ntag_40:\n    /* \"#utility.yul\":2728:2737   */\n  0x00\n    /* \"#utility.yul\":2761:2814   */\n  tag_85\n    /* \"#utility.yul\":2779:2813   */\n  tag_86\n    /* \"#utility.yul\":2788:2812   */\n  tag_87\n    /* \"#utility.yul\":2806:2811   */\n  dup5\n    /* \"#utility.yul\":2788:2812   */\n  tag_28\n  jump\t// in\ntag_87:\n    /* \"#utility.yul\":2779:2813   */\n  tag_39\n  jump\t// in\ntag_86:\n    /* \"#utility.yul\":2761:2814   */\n  tag_28\n  jump\t// in\ntag_85:\n    /* \"#utility.yul\":2748:2814   */\n  swap1\n  pop\n    /* \"#utility.yul\":2678:2820   */\n  swap2\n  swap1\n  pop\n  jump\t// out\n    /* \"#utility.yul\":2826:2901   */\ntag_41:\n    /* \"#utility.yul\":2869:2872   */\n  0x00\n    /* \"#utility.yul\":2890:2895   */\n  dup2\n    /* \"#utility.yul\":2883:2895   */\n  swap1\n  pop\n    /* \"#utility.yul\":2826:2901   */\n  swap2\n  swap1\n  pop\n  jump\t// out\n    /* \"#utility.yul\":2907:3176   */\ntag_42:\n    /* \"#utility.yul\":3017:3056   */\n  tag_90\n    /* \"#utility.yul\":3048:3055   */\n  dup4\n    /* \"#utility.yul\":3017:3056   */\n  tag_40\n  jump\t// in\ntag_90:\n    /* \"#utility.yul\":3078:3169   */\n  tag_91\n    /* \"#utility.yul\":3127:3168   */\n  tag_92\n    /* \"#utility.yul\":3151:3167   */\n  dup3\n    /* \"#utility.yul\":3127:3168   */\n  tag_41\n  jump\t// in\ntag_92:\n    /* \"#utility.yul\":3119:3125   */\n  dup5\n    /* \"#utility.yul\":3112:3116   */\n  dup5\n    /* \"#utility.yul\":3106:3117   */\n  sload\n    /* \"#utility.yul\":3078:3169   */\n  tag_38\n  jump\t// in\ntag_91:\n    /* \"#utility.yul\":3072:3076   */\n  dup3\n    /* \"#utility.yul\":3065:3170   */\n  sstore\n    /* \"#utility.yul\":2983:3176   */\n  pop\n    /* \"#utility.yul\":2907:3176   */\n  pop\n  pop\n  pop\n  jump\t// out\n    /* \"#utility.yul\":3182:3255   */\ntag_43:\n    /* \"#utility.yul\":3227:3230   */\n  0x00\n    /* \"#utility.yul\":3248:3249   */\n  0x00\n    /* \"#utility.yul\":3241:3249   */\n  swap1\n  pop\n    /* \"#utility.yul\":3182:3255   */\n  swap1\n  jump\t// out\n    /* \"#utility.yul\":3261:3450   */\ntag_44:\n    /* \"#utility.yul\":3338:3370   */\n  tag_95\n  tag_43\n  jump\t// in\ntag_95:\n    /* \"#utility.yul\":3379:3444   */\n  tag_96\n    /* \"#utility.yul\":3437:3443   */\n  dup2\n    /* \"#utility.yul\":3429:3435   */\n  dup5\n    /* \"#utility.yul\":3423:3427   */\n  dup5\n    /* \"#utility.yul\":3379:3444   */\n  tag_42\n  jump\t// in\ntag_96:\n    /* \"#utility.yul\":3314:3450   */\n  pop\n    /* \"#utility.yul\":3261:3450   */\n  pop\n  pop\n  jump\t// out\n    /* \"#utility.yul\":3456:3642   */\ntag_45:\n    /* \"#utility.yul\":3516:3636   */\ntag_98:\n    /* \"#utility.yul\":3533:3536   */\n  dup2\n    /* \"#utility.yul\":3526:3531   */\n  dup2\n    /* \"#utility.yul\":3523:3537   */\n  lt\n    /* \"#utility.yul\":3516:3636   */\n  iszero\n  tag_100\n  jumpi\n    /* \"#utility.yul\":3587:3626   */\n  tag_101\n    /* \"#utility.yul\":3624:3625   */\n  0x00\n    /* \"#utility.yul\":3617:3622   */\n  dup3\n    /* \"#utility.yul\":3587:3626   */\n  tag_44\n  jump\t// in\ntag_101:\n    /* \"#utility.yul\":3560:3561   */\n  0x01\n    /* \"#utility.yul\":3553:3558   */\n  dup2\n    /* \"#utility.yul\":3549:3562   */\n  add\n    /* \"#utility.yul\":3540:3562   */\n  swap1\n  pop\n    /* \"#utility.yul\":3516:3636   */\n  jump(tag_98)\ntag_100:\n    /* \"#utility.yul\":3456:3642   */\n  pop\n  pop\n  jump\t// out\n    /* \"#utility.yul\":3648:4191   */\ntag_46:\n    /* \"#utility.yul\":3749:3751   */\n  0x1f\n    /* \"#utility.yul\":3744:3747   */\n  dup3\n    /* \"#utility.yul\":3741:3752   */\n  gt\n    /* \"#utility.yul\":3738:4184   */\n  iszero\n  tag_103\n  jumpi\n    /* \"#utility.yul\":3783:3821   */\n  tag_104\n    /* \"#utility.yul\":3815:3820   */\n  dup2\n    /* \"#utility.yul\":3783:3821   */\n  tag_35\n  jump\t// in\ntag_104:\n    /* \"#utility.yul\":3867:3896   */\n  tag_105\n    /* \"#utility.yul\":3885:3895   */\n  dup5\n    /* \"#utility.yul\":3867:3896   */\n  tag_36\n  jump\t// in\ntag_105:\n    /* \"#utility.yul\":3857:3865   */\n  dup2\n    /* \"#utility.yul\":3853:3897   */\n  add\n    /* \"#utility.yul\":4050:4052   */\n  0x20\n    /* \"#utility.yul\":4038:4048   */\n  dup6\n    /* \"#utility.yul\":4035:4053   */\n  lt\n    /* \"#utility.yul\":4032:4081   */\n  iszero\n  tag_106\n  jumpi\n    /* \"#utility.yul\":4071:4079   */\n  dup2\n    /* \"#utility.yul\":4056:4079   */\n  swap1\n  pop\n    /* \"#utility.yul\":4032:4081   */\ntag_106:\n    /* \"#utility.yul\":4094:4174   */\n  tag_107\n    /* \"#utility.yul\":4150:4172   */\n  tag_108\n    /* \"#utility.yul\":4168:4171   */\n  dup6\n    /* \"#utility.yul\":4150:4172   */\n  tag_36\n  jump\t// in\ntag_108:\n    /* \"#utility.yul\":4140:4148   */\n  dup4\n    /* \"#utility.yul\":4136:4173   */\n  add\n    /* \"#utility.yul\":4123:4134   */\n  dup3\n    /* \"#utility.yul\":4094:4174   */\n  tag_45\n  jump\t// in\ntag_107:\n    /* \"#utility.yul\":3753:4184   */\n  pop\n  pop\n    /* \"#utility.yul\":3738:4184   */\ntag_103:\n    /* \"#utility.yul\":3648:4191   */\n  pop\n  pop\n  pop\n  jump\t// out\n    /* \"#utility.yul\":4197:4314   */\ntag_47:\n    /* \"#utility.yul\":4251:4259   */\n  0x00\n    /* \"#utility.yul\":4301:4306   */\n  dup3\n    /* \"#utility.yul\":4295:4299   */\n  dup3\n    /* \"#utility.yul\":4291:4307   */\n  shr\n    /* \"#utility.yul\":4270:4307   */\n  swap1\n  pop\n    /* \"#utility.yul\":4197:4314   */\n  swap3\n  swap2\n  pop\n  pop\n  jump\t// out\n    /* \"#utility.yul\":4320:4489   */\ntag_48:\n    /* \"#utility.yul\":4364:4370   */\n  0x00\n    /* \"#utility.yul\":4397:4448   */\n  tag_111\n    /* \"#utility.yul\":4445:4446   */\n  0x00\n    /* \"#utility.yul\":4441:4447   */\n  not\n    /* \"#utility.yul\":4433:4438   */\n  dup5\n    /* \"#utility.yul\":4430:4431   */\n  0x08\n    /* \"#utility.yul\":4426:4439   */\n  mul\n    /* \"#utility.yul\":4397:4448   */\n  tag_47\n  jump\t// in\ntag_111:\n    /* \"#utility.yul\":4393:4449   */\n  not\n    /* \"#utility.yul\":4478:4482   */\n  dup1\n    /* \"#utility.yul\":4472:4476   */\n  dup4\n    /* \"#utility.yul\":4468:4483   */\n  and\n    /* \"#utility.yul\":4458:4483   */\n  swap2\n  pop\n    /* \"#utility.yul\":4371:4489   */\n  pop\n    /* \"#utility.yul\":4320:4489   */\n  swap3\n  swap2\n  pop\n  pop\n  jump\t// out\n    /* \"#utility.yul\":4494:4789   */\ntag_49:\n    /* \"#utility.yul\":4570:4574   */\n  0x00\n    /* \"#utility.yul\":4716:4745   */\n  tag_113\n    /* \"#utility.yul\":4741:4744   */\n  dup4\n    /* \"#utility.yul\":4735:4739   */\n  dup4\n    /* \"#utility.yul\":4716:4745   */\n  tag_48\n  jump\t// in\ntag_113:\n    /* \"#utility.yul\":4708:4745   */\n  swap2\n  pop\n    /* \"#utility.yul\":4778:4781   */\n  dup3\n    /* \"#utility.yul\":4775:4776   */\n  0x02\n    /* \"#utility.yul\":4771:4782   */\n  mul\n    /* \"#utility.yul\":4765:4769   */\n  dup3\n    /* \"#utility.yul\":4762:4783   */\n  or\n    /* \"#utility.yul\":4754:4783   */\n  swap1\n  pop\n    /* \"#utility.yul\":4494:4789   */\n  swap3\n  swap2\n  pop\n  pop\n  jump\t// out\n    /* \"#utility.yul\":4794:6189   */\ntag_10:\n    /* \"#utility.yul\":4911:4948   */\n  tag_115\n    /* \"#utility.yul\":4944:4947   */\n  dup3\n    /* \"#utility.yul\":4911:4948   */\n  tag_31\n  jump\t// in\ntag_115:\n    /* \"#utility.yul\":5013:5031   */\n  0xffffffffffffffff\n    /* \"#utility.yul\":5005:5011   */\n  dup2\n    /* \"#utility.yul\":5002:5032   */\n  gt\n    /* \"#utility.yul\":4999:5055   */\n  iszero\n  tag_116\n  jumpi\n    /* \"#utility.yul\":5035:5053   */\n  tag_117\n  tag_32\n  jump\t// in\ntag_117:\n    /* \"#utility.yul\":4999:5055   */\ntag_116:\n    /* \"#utility.yul\":5079:5117   */\n  tag_118\n    /* \"#utility.yul\":5111:5115   */\n  dup3\n    /* \"#utility.yul\":5105:5116   */\n  sload\n    /* \"#utility.yul\":5079:5117   */\n  tag_34\n  jump\t// in\ntag_118:\n    /* \"#utility.yul\":5164:5231   */\n  tag_119\n    /* \"#utility.yul\":5224:5230   */\n  dup3\n    /* \"#utility.yul\":5216:5222   */\n  dup3\n    /* \"#utility.yul\":5210:5214   */\n  dup6\n    /* \"#utility.yul\":5164:5231   */\n  tag_46\n  jump\t// in\ntag_119:\n    /* \"#utility.yul\":5258:5259   */\n  0x00\n    /* \"#utility.yul\":5282:5286   */\n  0x20\n    /* \"#utility.yul\":5269:5286   */\n  swap1\n  pop\n    /* \"#utility.yul\":5314:5316   */\n  0x1f\n    /* \"#utility.yul\":5306:5312   */\n  dup4\n    /* \"#utility.yul\":5303:5317   */\n  gt\n    /* \"#utility.yul\":5331:5332   */\n  0x01\n    /* \"#utility.yul\":5326:5944   */\n  dup2\n  eq\n  tag_121\n  jumpi\n    /* \"#utility.yul\":5988:5989   */\n  0x00\n    /* \"#utility.yul\":6005:6011   */\n  dup5\n    /* \"#utility.yul\":6002:6079   */\n  iszero\n  tag_122\n  jumpi\n    /* \"#utility.yul\":6054:6063   */\n  dup3\n    /* \"#utility.yul\":6049:6052   */\n  dup8\n    /* \"#utility.yul\":6045:6064   */\n  add\n    /* \"#utility.yul\":6039:6065   */\n  mload\n    /* \"#utility.yul\":6030:6065   */\n  swap1\n  pop\n    /* \"#utility.yul\":6002:6079   */\ntag_122:\n    /* \"#utility.yul\":6105:6172   */\n  tag_123\n    /* \"#utility.yul\":6165:6171   */\n  dup6\n    /* \"#utility.yul\":6158:6163   */\n  dup3\n    /* \"#utility.yul\":6105:6172   */\n  tag_49\n  jump\t// in\ntag_123:\n    /* \"#utility.yul\":6099:6103   */\n  dup7\n    /* \"#utility.yul\":6092:6173   */\n  sstore\n    /* \"#utility.yul\":5961:6183   */\n  pop\n    /* \"#utility.yul\":5296:6183   */\n  jump(tag_120)\n    /* \"#utility.yul\":5326:5944   */\ntag_121:\n    /* \"#utility.yul\":5378:5382   */\n  0x1f\n    /* \"#utility.yul\":5374:5383   */\n  not\n    /* \"#utility.yul\":5366:5372   */\n  dup5\n    /* \"#utility.yul\":5362:5384   */\n  and\n    /* \"#utility.yul\":5412:5449   */\n  tag_124\n    /* \"#utility.yul\":5444:5448   */\n  dup7\n    /* \"#utility.yul\":5412:5449   */\n  tag_35\n  jump\t// in\ntag_124:\n    /* \"#utility.yul\":5471:5472   */\n  0x00\n    /* \"#utility.yul\":5485:5693   */\ntag_125:\n    /* \"#utility.yul\":5499:5506   */\n  dup3\n    /* \"#utility.yul\":5496:5497   */\n  dup2\n    /* \"#utility.yul\":5493:5507   */\n  lt\n    /* \"#utility.yul\":5485:5693   */\n  iszero\n  tag_127\n  jumpi\n    /* \"#utility.yul\":5578:5587   */\n  dup5\n    /* \"#utility.yul\":5573:5576   */\n  dup10\n    /* \"#utility.yul\":5569:5588   */\n  add\n    /* \"#utility.yul\":5563:5589   */\n  mload\n    /* \"#utility.yul\":5555:5561   */\n  dup3\n    /* \"#utility.yul\":5548:5590   */\n  sstore\n    /* \"#utility.yul\":5629:5630   */\n  0x01\n    /* \"#utility.yul\":5621:5627   */\n  dup3\n    /* \"#utility.yul\":5617:5631   */\n  add\n    /* \"#utility.yul\":5607:5631   */\n  swap2\n  pop\n    /* \"#utility.yul\":5676:5678   */\n  0x20\n    /* \"#utility.yul\":5665:5674   */\n  dup6\n    /* \"#utility.yul\":5661:5679   */\n  add\n    /* \"#utility.yul\":5648:5679   */\n  swap5\n  pop\n    /* \"#utility.yul\":5522:5526   */\n  0x20\n    /* \"#utility.yul\":5519:5520   */\n  dup2\n    /* \"#utility.yul\":5515:5527   */\n  add\n    /* \"#utility.yul\":5510:5527   */\n  swap1\n  pop\n    /* \"#utility.yul\":5485:5693   */\n  jump(tag_125)\ntag_127:\n    /* \"#utility.yul\":5721:5727   */\n  dup7\n    /* \"#utility.yul\":5712:5719   */\n  dup4\n    /* \"#utility.yul\":5709:5728   */\n  lt\n    /* \"#utility.yul\":5706:5885   */\n  iszero\n  tag_128\n  jumpi\n    /* \"#utility.yul\":5779:5788   */\n  dup5\n    /* \"#utility.yul\":5774:5777   */\n  dup10\n    /* \"#utility.yul\":5770:5789   */\n  add\n    /* \"#utility.yul\":5764:5790   */\n  mload\n    /* \"#utility.yul\":5822:5870   */\n  tag_129\n    /* \"#utility.yul\":5864:5868   */\n  0x1f\n    /* \"#utility.yul\":5856:5862   */\n  dup10\n    /* \"#utility.yul\":5852:5869   */\n  and\n    /* \"#utility.yul\":5841:5850   */\n  dup3\n    /* \"#utility.yul\":5822:5870   */\n  tag_48\n  jump\t// in\ntag_129:\n    /* \"#utility.yul\":5814:5820   */\n  dup4\n    /* \"#utility.yul\":5807:5871   */\n  sstore\n    /* \"#utility.yul\":5729:5885   */\n  pop\n    /* \"#utility.yul\":5706:5885   */\ntag_128:\n    /* \"#utility.yul\":5931:5932   */\n  0x01\n    /* \"#utility.yul\":5927:5928   */\n  0x02\n    /* \"#utility.yul\":5919:5925   */\n  dup9\n    /* \"#utility.yul\":5915:5929   */\n  mul\n    /* \"#utility.yul\":5911:5933   */\n  add\n    /* \"#utility.yul\":5905:5909   */\n  dup9\n    /* \"#utility.yul\":5898:5934   */\n  sstore\n    /* \"#utility.yul\":5333:5944   */\n  pop\n  pop\n  pop\n    /* \"#utility.yul\":5296:6183   */\ntag_120:\n  pop\n    /* \"#utility.yul\":4886:6189   */\n  pop\n  pop\n  pop\n    /* \"#utility.yul\":4794:6189   */\n  pop\n  pop\n  jump\t// out\n    /* \"#utility.yul\":6195:6321   */\ntag_50:\n    /* \"#utility.yul\":6232:6239   */\n  0x00\n    /* \"#utility.yul\":6272:6314   */\n  0xffffffffffffffffffffffffffffffffffffffff\n    /* \"#utility.yul\":6265:6270   */\n  dup3\n    /* \"#utility.yul\":6261:6315   */\n  and\n    /* \"#utility.yul\":6250:6315   */\n  swap1\n  pop\n    /* \"#utility.yul\":6195:6321   */\n  swap2\n  swap1\n  pop\n  jump\t// out\n    /* \"#utility.yul\":6327:6423   */\ntag_51:\n    /* \"#utility.yul\":6364:6371   */\n  0x00\n    /* \"#utility.yul\":6393:6417   */\n  tag_132\n    /* \"#utility.yul\":6411:6416   */\n  dup3\n    /* \"#utility.yul\":6393:6417   */\n  tag_50\n  jump\t// in\ntag_132:\n    /* \"#utility.yul\":6382:6417   */\n  swap1\n  pop\n    /* \"#utility.yul\":6327:6423   */\n  swap2\n  swap1\n  pop\n  jump\t// out\n    /* \"#utility.yul\":6429:6547   */\ntag_52:\n    /* \"#utility.yul\":6516:6540   */\n  tag_134\n    /* \"#utility.yul\":6534:6539   */\n  dup2\n    /* \"#utility.yul\":6516:6540   */\n  tag_51\n  jump\t// in\ntag_134:\n    /* \"#utility.yul\":6511:6514   */\n  dup3\n    /* \"#utility.yul\":6504:6541   */\n  mstore\n    /* \"#utility.yul\":6429:6547   */\n  pop\n  pop\n  jump\t// out\n    /* \"#utility.yul\":6553:6775   */\ntag_15:\n    /* \"#utility.yul\":6646:6650   */\n  0x00\n    /* \"#utility.yul\":6684:6686   */\n  0x20\n    /* \"#utility.yul\":6673:6682   */\n  dup3\n    /* \"#utility.yul\":6669:6687   */\n  add\n    /* \"#utility.yul\":6661:6687   */\n  swap1\n  pop\n    /* \"#utility.yul\":6697:6768   */\n  tag_136\n    /* \"#utility.yul\":6765:6766   */\n  0x00\n    /* \"#utility.yul\":6754:6763   */\n  dup4\n    /* \"#utility.yul\":6750:6767   */\n  add\n    /* \"#utility.yul\":6741:6747   */\n  dup5\n    /* \"#utility.yul\":6697:6768   */\n  tag_52\n  jump\t// in\ntag_136:\n    /* \"#utility.yul\":6553:6775   */\n  swap3\n  swap2\n  pop\n  pop\n  jump\t// out\n    /* \"#utility.yul\":6781:6950   */\ntag_53:\n    /* \"#utility.yul\":6865:6876   */\n  0x00\n    /* \"#utility.yul\":6899:6905   */\n  dup3\n    /* \"#utility.yul\":6894:6897   */\n  dup3\n    /* \"#utility.yul\":6887:6906   */\n  mstore\n    /* \"#utility.yul\":6939:6943   */\n  0x20\n    /* \"#utility.yul\":6934:6937   */\n  dup3\n    /* \"#utility.yul\":6930:6944   */\n  add\n    /* \"#utility.yul\":6915:6944   */\n  swap1\n  pop\n    /* \"#utility.yul\":6781:6950   */\n  swap3\n  swap2\n  pop\n  pop\n  jump\t// out\n    /* \"#utility.yul\":6956:7123   */\ntag_54:\n    /* \"#utility.yul\":7096:7115   */\n  0x5072696365206d757374206265203e2030000000000000000000000000000000\n    /* \"#utility.yul\":7092:7093   */\n  0x00\n    /* \"#utility.yul\":7084:7090   */\n  dup3\n    /* \"#utility.yul\":7080:7094   */\n  add\n    /* \"#utility.yul\":7073:7116   */\n  mstore\n    /* \"#utility.yul\":6956:7123   */\n  pop\n  jump\t// out\n    /* \"#utility.yul\":7129:7495   */\ntag_55:\n    /* \"#utility.yul\":7271:7274   */\n  0x00\n    /* \"#utility.yul\":7292:7359   */\n  tag_140\n    /* \"#utility.yul\":7356:7358   */\n  0x11\n    /* \"#utility.yul\":7351:7354   */\n  dup4\n    /* \"#utility.yul\":7292:7359   */\n  tag_53\n  jump\t// in\ntag_140:\n    /* \"#utility.yul\":7285:7359   */\n  swap2\n  pop\n    /* \"#utility.yul\":7368:7461   */\n  tag_141\n    /* \"#utility.yul\":7457:7460   */\n  dup3\n    /* \"#utility.yul\":7368:7461   */\n  tag_54\n  jump\t// in\ntag_141:\n    /* \"#utility.yul\":7486:7488   */\n  0x20\n    /* \"#utility.yul\":7481:7484   */\n  dup3\n    /* \"#utility.yul\":7477:7489   */\n  add\n    /* \"#utility.yul\":7470:7489   */\n  swap1\n  pop\n    /* \"#utility.yul\":7129:7495   */\n  swap2\n  swap1\n  pop\n  jump\t// out\n    /* \"#utility.yul\":7501:7920   */\ntag_22:\n    /* \"#utility.yul\":7667:7671   */\n  0x00\n    /* \"#utility.yul\":7705:7707   */\n  0x20\n    /* \"#utility.yul\":7694:7703   */\n  dup3\n    /* \"#utility.yul\":7690:7708   */\n  add\n    /* \"#utility.yul\":7682:7708   */\n  swap1\n  pop\n    /* \"#utility.yul\":7754:7763   */\n  dup2\n    /* \"#utility.yul\":7748:7752   */\n  dup2\n    /* \"#utility.yul\":7744:7764   */\n  sub\n    /* \"#utility.yul\":7740:7741   */\n  0x00\n    /* \"#utility.yul\":7729:7738   */\n  dup4\n    /* \"#utility.yul\":7725:7742   */\n  add\n    /* \"#utility.yul\":7718:7765   */\n  mstore\n    /* \"#utility.yul\":7782:7913   */\n  tag_143\n    /* \"#utility.yul\":7908:7912   */\n  dup2\n    /* \"#utility.yul\":7782:7913   */\n  tag_55\n  jump\t// in\ntag_143:\n    /* \"#utility.yul\":7774:7913   */\n  swap1\n  pop\n    /* \"#utility.yul\":7501:7920   */\n  swap2\n  swap1\n  pop\n  jump\t// out\n    /* \"E/equity.sol\":497:3287  contract EquityToken is ERC20, Ownable, ReentrancyGuard {... */\ntag_23:\n  dataSize(sub_0)\n  dup1\n  dataOffset(sub_0)\n  0x00\n  codecopy\n  0x00\n  return\nstop\n\nsub_0: assembly {\n        /* \"E/equity.sol\":497:3287  contract EquityToken is ERC20, Ownable, ReentrancyGuard {... */\n      mstore(0x40, 0x80)\n      jumpi(tag_1, lt(calldatasize, 0x04))\n      shr(0xe0, calldataload(0x00))\n      dup1\n      0x70a08231\n      gt\n      tag_20\n      jumpi\n      dup1\n      0x95d89b41\n      gt\n      tag_21\n      jumpi\n      dup1\n      0x95d89b41\n      eq\n      tag_15\n      jumpi\n      dup1\n      0xa9059cbb\n      eq\n      tag_16\n      jumpi\n      dup1\n      0xc5c4744c\n      eq\n      tag_17\n      jumpi\n      dup1\n      0xdd62ed3e\n      eq\n      tag_18\n      jumpi\n      dup1\n      0xf2fde38b\n      eq\n      tag_19\n      jumpi\n      jump(tag_2)\n    tag_21:\n      dup1\n      0x70a08231\n      eq\n      tag_11\n      jumpi\n      dup1\n      0x715018a6\n      eq\n      tag_12\n      jumpi\n      dup1\n      0x7ff9b596\n      eq\n      tag_13\n      jumpi\n      dup1\n      0x8da5cb5b\n      eq\n      tag_14\n      jumpi\n      jump(tag_2)\n    tag_20:\n      dup1\n      0x1d838a5d\n      gt\n      tag_22\n      jumpi\n      dup1\n      0x1d838a5d\n      eq\n      tag_7\n      jumpi\n      dup1\n      0x23b872dd\n      eq\n      tag_8\n      jumpi\n      dup1\n      0x313ce567\n      eq\n      tag_9\n      jumpi\n      dup1\n      0x676c0d77\n      eq\n      tag_10\n      jumpi\n      jump(tag_2)\n    tag_22:\n      dup1\n      0x06fdde03\n      eq\n      tag_3\n      jumpi\n      dup1\n      0x095ea7b3\n      eq\n      tag_4\n      jumpi\n      dup1\n      0x155dd5ee\n      eq\n      tag_5\n      jumpi\n      dup1\n      0x18160ddd\n      eq\n      tag_6\n      jumpi\n      jump(tag_2)\n    tag_1:\n      jumpi(tag_2, calldatasize)\n        /* \"E/equity.sol\":2838:2854  purchaseEquity() */\n      tag_25\n        /* \"E/equity.sol\":2838:2852  purchaseEquity */\n      tag_26\n        /* \"E/equity.sol\":2838:2854  purchaseEquity() */\n      jump\t// in\n    tag_25:\n        /* \"E/equity.sol\":497:3287  contract EquityToken is ERC20, Ownable, ReentrancyGuard {... */\n      stop\n    tag_2:\n      revert(0x00, 0x00)\n        /* \"@openzeppelin/contracts/token/ERC20/ERC20.sol\":1779:1868  function name() public view virtual returns (string memory) {... */\n    tag_3:\n      callvalue\n      dup1\n      iszero\n      tag_27\n      jumpi\n      revert(0x00, 0x00)\n    tag_27:\n      pop\n      tag_28\n      tag_29\n      jump\t// in\n    tag_28:\n      mload(0x40)\n      tag_30\n      swap2\n      swap1\n      tag_31\n      jump\t// in\n    tag_30:\n      mload(0x40)\n      dup1\n      swap2\n      sub\n      swap1\n      return\n        /* \"@openzeppelin/contracts/token/ERC20/ERC20.sol\":3998:4184  function approve(address spender, uint256 value) public virtual returns (bool) {... */\n    tag_4:\n      callvalue\n      dup1\n      iszero\n      tag_32\n      jumpi\n      revert(0x00, 0x00)\n    tag_32:\n      pop\n      tag_33\n      0x04\n      dup1\n      calldatasize\n      sub\n      dup2\n      add\n      swap1\n      tag_34\n      swap2\n      swap1\n      tag_35\n      jump\t// in\n    tag_34:\n      tag_36\n      jump\t// in\n    tag_33:\n      mload(0x40)\n      tag_37\n      swap2\n      swap1\n      tag_38\n      jump\t// in\n    tag_37:\n      mload(0x40)\n      dup1\n      swap2\n      sub\n      swap1\n      return\n        /* \"E/equity.sol\":3013:3285  function withdrawFunds(uint256 amount) external onlyOwner nonReentrant {... */\n    tag_5:\n      callvalue\n      dup1\n      iszero\n      tag_39\n      jumpi\n      revert(0x00, 0x00)\n    tag_39:\n      pop\n      tag_40\n      0x04\n      dup1\n      calldatasize\n      sub\n      dup2\n      add\n      swap1\n      tag_41\n      swap2\n      swap1\n      tag_42\n      jump\t// in\n    tag_41:\n      tag_43\n      jump\t// in\n    tag_40:\n      stop\n        /* \"@openzeppelin/contracts/token/ERC20/ERC20.sol\":2849:2946  function totalSupply() public view virtual returns (uint256) {... */\n    tag_6:\n      callvalue\n      dup1\n      iszero\n      tag_44\n      jumpi\n      revert(0x00, 0x00)\n    tag_44:\n      pop\n      tag_45\n      tag_46\n      jump\t// in\n    tag_45:\n      mload(0x40)\n      tag_47\n      swap2\n      swap1\n      tag_48\n      jump\t// in\n    tag_47:\n      mload(0x40)\n      dup1\n      swap2\n      sub\n      swap1\n      return\n        /* \"E/equity.sol\":1909:2693  function purchaseEquity() public payable nonReentrant {... */\n    tag_7:\n      tag_49\n      tag_26\n      jump\t// in\n    tag_49:\n      stop\n        /* \"@openzeppelin/contracts/token/ERC20/ERC20.sol\":4776:5020  function transferFrom(address from, address to, uint256 value) public virtual returns (bool) {... */\n    tag_8:\n      callvalue\n      dup1\n      iszero\n      tag_50\n      jumpi\n      revert(0x00, 0x00)\n    tag_50:\n      pop\n      tag_51\n      0x04\n      dup1\n      calldatasize\n      sub\n      dup2\n      add\n      swap1\n      tag_52\n      swap2\n      swap1\n      tag_53\n      jump\t// in\n    tag_52:\n      tag_54\n      jump\t// in\n    tag_51:\n      mload(0x40)\n      tag_55\n      swap2\n      swap1\n      tag_38\n      jump\t// in\n    tag_55:\n      mload(0x40)\n      dup1\n      swap2\n      sub\n      swap1\n      return\n        /* \"@openzeppelin/contracts/token/ERC20/ERC20.sol\":2707:2789  function decimals() public view virtual returns (uint8) {... */\n    tag_9:\n      callvalue\n      dup1\n      iszero\n      tag_56\n      jumpi\n      revert(0x00, 0x00)\n    tag_56:\n      pop\n      tag_57\n      tag_58\n      jump\t// in\n    tag_57:\n      mload(0x40)\n      tag_59\n      swap2\n      swap1\n      tag_60\n      jump\t// in\n    tag_59:\n      mload(0x40)\n      dup1\n      swap2\n      sub\n      swap1\n      return\n        /* \"E/equity.sol\":1520:1715  function updateTokenPrice(uint256 newPrice) external onlyOwner {... */\n    tag_10:\n      callvalue\n      dup1\n      iszero\n      tag_61\n      jumpi\n      revert(0x00, 0x00)\n    tag_61:\n      pop\n      tag_62\n      0x04\n      dup1\n      calldatasize\n      sub\n      dup2\n      add\n      swap1\n      tag_63\n      swap2\n      swap1\n      tag_42\n      jump\t// in\n    tag_63:\n      tag_64\n      jump\t// in\n    tag_62:\n      stop\n        /* \"@openzeppelin/contracts/token/ERC20/ERC20.sol\":3004:3120  function balanceOf(address account) public view virtual returns (uint256) {... */\n    tag_11:\n      callvalue\n      dup1\n      iszero\n      tag_65\n      jumpi\n      revert(0x00, 0x00)\n    tag_65:\n      pop\n      tag_66\n      0x04\n      dup1\n      calldatasize\n      sub\n      dup2\n      add\n      swap1\n      tag_67\n      swap2\n      swap1\n      tag_68\n      jump\t// in\n    tag_67:\n      tag_69\n      jump\t// in\n    tag_66:\n      mload(0x40)\n      tag_70\n      swap2\n      swap1\n      tag_48\n      jump\t// in\n    tag_70:\n      mload(0x40)\n      dup1\n      swap2\n      sub\n      swap1\n      return\n        /* \"@openzeppelin/contracts/access/Ownable.sol\":2293:2394  function renounceOwnership() public virtual onlyOwner {... */\n    tag_12:\n      callvalue\n      dup1\n      iszero\n      tag_71\n      jumpi\n      revert(0x00, 0x00)\n    tag_71:\n      pop\n      tag_72\n      tag_73\n      jump\t// in\n    tag_72:\n      stop\n        /* \"E/equity.sol\":635:660  uint256 public tokenPrice */\n    tag_13:\n      callvalue\n      dup1\n      iszero\n      tag_74\n      jumpi\n      revert(0x00, 0x00)\n    tag_74:\n      pop\n      tag_75\n      tag_76\n      jump\t// in\n    tag_75:\n      mload(0x40)\n      tag_77\n      swap2\n      swap1\n      tag_48\n      jump\t// in\n    tag_77:\n      mload(0x40)\n      dup1\n      swap2\n      sub\n      swap1\n      return\n        /* \"@openzeppelin/contracts/access/Ownable.sol\":1638:1723  function owner() public view virtual returns (address) {... */\n    tag_14:\n      callvalue\n      dup1\n      iszero\n      tag_78\n      jumpi\n      revert(0x00, 0x00)\n    tag_78:\n      pop\n      tag_79\n      tag_80\n      jump\t// in\n    tag_79:\n      mload(0x40)\n      tag_81\n      swap2\n      swap1\n      tag_82\n      jump\t// in\n    tag_81:\n      mload(0x40)\n      dup1\n      swap2\n      sub\n      swap1\n      return\n        /* \"@openzeppelin/contracts/token/ERC20/ERC20.sol\":1981:2074  function symbol() public view virtual returns (string memory) {... */\n    tag_15:\n      callvalue\n      dup1\n      iszero\n      tag_83\n      jumpi\n      revert(0x00, 0x00)\n    tag_83:\n      pop\n      tag_84\n      tag_85\n      jump\t// in\n    tag_84:\n      mload(0x40)\n      tag_86\n      swap2\n      swap1\n      tag_31\n      jump\t// in\n    tag_86:\n      mload(0x40)\n      dup1\n      swap2\n      sub\n      swap1\n      return\n        /* \"@openzeppelin/contracts/token/ERC20/ERC20.sol\":3315:3493  function transfer(address to, uint256 value) public virtual returns (bool) {... */\n    tag_16:\n      callvalue\n      dup1\n      iszero\n      tag_87\n      jumpi\n      revert(0x00, 0x00)\n    tag_87:\n      pop\n      tag_88\n      0x04\n      dup1\n      calldatasize\n      sub\n      dup2\n      add\n      swap1\n      tag_89\n      swap2\n      swap1\n      tag_35\n      jump\t// in\n    tag_89:\n      tag_90\n      jump\t// in\n    tag_88:\n      mload(0x40)\n      tag_91\n      swap2\n      swap1\n      tag_38\n      jump\t// in\n    tag_91:\n      mload(0x40)\n      dup1\n      swap2\n      sub\n      swap1\n      return\n        /* \"E/equity.sol\":722:748  uint256 public totalRaised */\n    tag_17:\n      callvalue\n      dup1\n      iszero\n      tag_92\n      jumpi\n      revert(0x00, 0x00)\n    tag_92:\n      pop\n      tag_93\n      tag_94\n      jump\t// in\n    tag_93:\n      mload(0x40)\n      tag_95\n      swap2\n      swap1\n      tag_48\n      jump\t// in\n    tag_95:\n      mload(0x40)\n      dup1\n      swap2\n      sub\n      swap1\n      return\n        /* \"@openzeppelin/contracts/token/ERC20/ERC20.sol\":3551:3691  function allowance(address owner, address spender) public view virtual returns (uint256) {... */\n    tag_18:\n      callvalue\n      dup1\n      iszero\n      tag_96\n      jumpi\n      revert(0x00, 0x00)\n    tag_96:\n      pop\n      tag_97\n      0x04\n      dup1\n      calldatasize\n      sub\n      dup2\n      add\n      swap1\n      tag_98\n      swap2\n      swap1\n      tag_99\n      jump\t// in\n    tag_98:\n      tag_100\n      jump\t// in\n    tag_97:\n      mload(0x40)\n      tag_101\n      swap2\n      swap1\n      tag_48\n      jump\t// in\n    tag_101:\n      mload(0x40)\n      dup1\n      swap2\n      sub\n      swap1\n      return\n        /* \"@openzeppelin/contracts/access/Ownable.sol\":2543:2758  function transferOwnership(address newOwner) public virtual onlyOwner {... */\n    tag_19:\n      callvalue\n      dup1\n      iszero\n      tag_102\n      jumpi\n      revert(0x00, 0x00)\n    tag_102:\n      pop\n      tag_103\n      0x04\n      dup1\n      calldatasize\n      sub\n      dup2\n      add\n      swap1\n      tag_104\n      swap2\n      swap1\n      tag_68\n      jump\t// in\n    tag_104:\n      tag_105\n      jump\t// in\n    tag_103:\n      stop\n        /* \"E/equity.sol\":1909:2693  function purchaseEquity() public payable nonReentrant {... */\n    tag_26:\n        /* \"@openzeppelin/contracts/security/ReentrancyGuard.sol\":2261:2282  _nonReentrantBefore() */\n      tag_107\n        /* \"@openzeppelin/contracts/security/ReentrancyGuard.sol\":2261:2280  _nonReentrantBefore */\n      tag_108\n        /* \"@openzeppelin/contracts/security/ReentrancyGuard.sol\":2261:2282  _nonReentrantBefore() */\n      jump\t// in\n    tag_107:\n        /* \"E/equity.sol\":1994:2004  tokenPrice */\n      sload(0x07)\n        /* \"E/equity.sol\":1981:1990  msg.value */\n      callvalue\n        /* \"E/equity.sol\":1981:2004  msg.value >= tokenPrice */\n      lt\n      iszero\n        /* \"E/equity.sol\":1973:2028  require(msg.value >= tokenPrice, \"Not enough ETH sent\") */\n      tag_110\n      jumpi\n      mload(0x40)\n      0x08c379a000000000000000000000000000000000000000000000000000000000\n      dup2\n      mstore\n      0x04\n      add\n      tag_111\n      swap1\n      tag_112\n      jump\t// in\n    tag_111:\n      mload(0x40)\n      dup1\n      swap2\n      sub\n      swap1\n      revert\n    tag_110:\n        /* \"E/equity.sol\":2089:2109  uint256 tokensToMint */\n      0x00\n        /* \"E/equity.sol\":2124:2134  tokenPrice */\n      sload(0x07)\n        /* \"E/equity.sol\":2112:2121  msg.value */\n      callvalue\n        /* \"E/equity.sol\":2112:2134  msg.value / tokenPrice */\n      tag_113\n      swap2\n      swap1\n      tag_114\n      jump\t// in\n    tag_113:\n        /* \"E/equity.sol\":2089:2134  uint256 tokensToMint = msg.value / tokenPrice */\n      swap1\n      pop\n        /* \"E/equity.sol\":2144:2159  uint256 ethUsed */\n      0x00\n        /* \"E/equity.sol\":2177:2187  tokenPrice */\n      sload(0x07)\n        /* \"E/equity.sol\":2162:2174  tokensToMint */\n      dup3\n        /* \"E/equity.sol\":2162:2187  tokensToMint * tokenPrice */\n      tag_115\n      swap2\n      swap1\n      tag_116\n      jump\t// in\n    tag_115:\n        /* \"E/equity.sol\":2144:2187  uint256 ethUsed = tokensToMint * tokenPrice */\n      swap1\n      pop\n        /* \"E/equity.sol\":2197:2211  uint256 refund */\n      0x00\n        /* \"E/equity.sol\":2226:2233  ethUsed */\n      dup2\n        /* \"E/equity.sol\":2214:2223  msg.value */\n      callvalue\n        /* \"E/equity.sol\":2214:2233  msg.value - ethUsed */\n      tag_117\n      swap2\n      swap1\n      tag_118\n      jump\t// in\n    tag_117:\n        /* \"E/equity.sol\":2197:2233  uint256 refund = msg.value - ethUsed */\n      swap1\n      pop\n        /* \"E/equity.sol\":2267:2274  ethUsed */\n      dup2\n        /* \"E/equity.sol\":2252:2263  totalRaised */\n      0x08\n      0x00\n        /* \"E/equity.sol\":2252:2274  totalRaised += ethUsed */\n      dup3\n      dup3\n      sload\n      tag_119\n      swap2\n      swap1\n      tag_120\n      jump\t// in\n    tag_119:\n      swap3\n      pop\n      pop\n      dup2\n      swap1\n      sstore\n      pop\n        /* \"E/equity.sol\":2358:2410  _mint(msg.sender, tokensToMint * (10 ** decimals())) */\n      tag_121\n        /* \"E/equity.sol\":2364:2374  msg.sender */\n      caller\n        /* \"E/equity.sol\":2398:2408  decimals() */\n      tag_122\n        /* \"E/equity.sol\":2398:2406  decimals */\n      tag_58\n        /* \"E/equity.sol\":2398:2408  decimals() */\n      jump\t// in\n    tag_122:\n        /* \"E/equity.sol\":2392:2394  10 */\n      0x0a\n        /* \"E/equity.sol\":2392:2408  10 ** decimals() */\n      tag_123\n      swap2\n      swap1\n      tag_124\n      jump\t// in\n    tag_123:\n        /* \"E/equity.sol\":2376:2388  tokensToMint */\n      dup6\n        /* \"E/equity.sol\":2376:2409  tokensToMint * (10 ** decimals()) */\n      tag_125\n      swap2\n      swap1\n      tag_116\n      jump\t// in\n    tag_125:\n        /* \"E/equity.sol\":2358:2363  _mint */\n      tag_126\n        /* \"E/equity.sol\":2358:2410  _mint(msg.sender, tokensToMint * (10 ** decimals())) */\n      jump\t// in\n    tag_121:\n        /* \"E/equity.sol\":2476:2477  0 */\n      0x00\n        /* \"E/equity.sol\":2467:2473  refund */\n      dup2\n        /* \"E/equity.sol\":2467:2477  refund > 0 */\n      gt\n        /* \"E/equity.sol\":2463:2613  if (refund > 0) {... */\n      iszero\n      tag_127\n      jumpi\n        /* \"E/equity.sol\":2494:2506  bool success */\n      0x00\n        /* \"E/equity.sol\":2520:2530  msg.sender */\n      caller\n        /* \"E/equity.sol\":2512:2536  payable(msg.sender).call */\n      0xffffffffffffffffffffffffffffffffffffffff\n      and\n        /* \"E/equity.sol\":2544:2550  refund */\n      dup3\n        /* \"E/equity.sol\":2512:2555  payable(msg.sender).call{value: refund}(\"\") */\n      mload(0x40)\n      tag_128\n      swap1\n      tag_129\n      jump\t// in\n    tag_128:\n      0x00\n      mload(0x40)\n      dup1\n      dup4\n      sub\n      dup2\n      dup6\n      dup8\n      gas\n      call\n      swap3\n      pop\n      pop\n      pop\n      returndatasize\n      dup1\n      0x00\n      dup2\n      eq\n      tag_132\n      jumpi\n      mload(0x40)\n      swap2\n      pop\n      and(add(returndatasize, 0x3f), not(0x1f))\n      dup3\n      add\n      0x40\n      mstore\n      returndatasize\n      dup3\n      mstore\n      returndatasize\n      0x00\n      0x20\n      dup5\n      add\n      returndatacopy\n      jump(tag_131)\n    tag_132:\n      0x60\n      swap2\n      pop\n    tag_131:\n      pop\n        /* \"E/equity.sol\":2493:2555  (bool success, ) = payable(msg.sender).call{value: refund}(\"\") */\n      pop\n      swap1\n      pop\n        /* \"E/equity.sol\":2577:2584  success */\n      dup1\n        /* \"E/equity.sol\":2569:2602  require(success, \"Refund failed\") */\n      tag_133\n      jumpi\n      mload(0x40)\n      0x08c379a000000000000000000000000000000000000000000000000000000000\n      dup2\n      mstore\n      0x04\n      add\n      tag_134\n      swap1\n      tag_135\n      jump\t// in\n    tag_134:\n      mload(0x40)\n      dup1\n      swap2\n      sub\n      swap1\n      revert\n    tag_133:\n        /* \"E/equity.sol\":2479:2613  {... */\n      pop\n        /* \"E/equity.sol\":2463:2613  if (refund > 0) {... */\n    tag_127:\n        /* \"E/equity.sol\":2652:2662  msg.sender */\n      caller\n        /* \"E/equity.sol\":2636:2686  EquityPurchased(msg.sender, tokensToMint, ethUsed) */\n      0xffffffffffffffffffffffffffffffffffffffff\n      and\n      0x3ee7b70b453a6d54d57d8c4601395fc4110aa851ce3597c3c909efc0826c82a6\n        /* \"E/equity.sol\":2664:2676  tokensToMint */\n      dup5\n        /* \"E/equity.sol\":2678:2685  ethUsed */\n      dup5\n        /* \"E/equity.sol\":2636:2686  EquityPurchased(msg.sender, tokensToMint, ethUsed) */\n      mload(0x40)\n      tag_136\n      swap3\n      swap2\n      swap1\n      tag_137\n      jump\t// in\n    tag_136:\n      mload(0x40)\n      dup1\n      swap2\n      sub\n      swap1\n      log2\n        /* \"E/equity.sol\":1963:2693  {... */\n      pop\n      pop\n      pop\n        /* \"@openzeppelin/contracts/security/ReentrancyGuard.sol\":2303:2323  _nonReentrantAfter() */\n      tag_138\n        /* \"@openzeppelin/contracts/security/ReentrancyGuard.sol\":2303:2321  _nonReentrantAfter */\n      tag_139\n        /* \"@openzeppelin/contracts/security/ReentrancyGuard.sol\":2303:2323  _nonReentrantAfter() */\n      jump\t// in\n    tag_138:\n        /* \"E/equity.sol\":1909:2693  function purchaseEquity() public payable nonReentrant {... */\n      jump\t// out\n        /* \"@openzeppelin/contracts/token/ERC20/ERC20.sol\":1779:1868  function name() public view virtual returns (string memory) {... */\n    tag_29:\n        /* \"@openzeppelin/contracts/token/ERC20/ERC20.sol\":1824:1837  string memory */\n      0x60\n        /* \"@openzeppelin/contracts/token/ERC20/ERC20.sol\":1856:1861  _name */\n      0x03\n        /* \"@openzeppelin/contracts/token/ERC20/ERC20.sol\":1849:1861  return _name */\n      dup1\n      sload\n      tag_141\n      swap1\n      tag_142\n      jump\t// in\n    tag_141:\n      dup1\n      0x1f\n      add\n      0x20\n      dup1\n      swap2\n      div\n      mul\n      0x20\n      add\n      mload(0x40)\n      swap1\n      dup2\n      add\n      0x40\n      mstore\n      dup1\n      swap3\n      swap2\n      swap1\n      dup2\n      dup2\n      mstore\n      0x20\n      add\n      dup3\n      dup1\n      sload\n      tag_143\n      swap1\n      tag_142\n      jump\t// in\n    tag_143:\n      dup1\n      iszero\n      tag_144\n      jumpi\n      dup1\n      0x1f\n      lt\n      tag_145\n      jumpi\n      0x0100\n      dup1\n      dup4\n      sload\n      div\n      mul\n      dup4\n      mstore\n      swap2\n      0x20\n      add\n      swap2\n      jump(tag_144)\n    tag_145:\n      dup3\n      add\n      swap2\n      swap1\n      0x00\n      mstore\n      keccak256(0x00, 0x20)\n      swap1\n    tag_146:\n      dup2\n      sload\n      dup2\n      mstore\n      swap1\n      0x01\n      add\n      swap1\n      0x20\n      add\n      dup1\n      dup4\n      gt\n      tag_146\n      jumpi\n      dup3\n      swap1\n      sub\n      0x1f\n      and\n      dup3\n      add\n      swap2\n    tag_144:\n      pop\n      pop\n      pop\n      pop\n      pop\n      swap1\n      pop\n        /* \"@openzeppelin/contracts/token/ERC20/ERC20.sol\":1779:1868  function name() public view virtual returns (string memory) {... */\n      swap1\n      jump\t// out\n        /* \"@openzeppelin/contracts/token/ERC20/ERC20.sol\":3998:4184  function approve(address spender, uint256 value) public virtual returns (bool) {... */\n    tag_36:\n        /* \"@openzeppelin/contracts/token/ERC20/ERC20.sol\":4071:4075  bool */\n      0x00\n        /* \"@openzeppelin/contracts/token/ERC20/ERC20.sol\":4087:4100  address owner */\n      0x00\n        /* \"@openzeppelin/contracts/token/ERC20/ERC20.sol\":4103:4115  _msgSender() */\n      tag_148\n        /* \"@openzeppelin/contracts/token/ERC20/ERC20.sol\":4103:4113  _msgSender */\n      tag_149\n        /* \"@openzeppelin/contracts/token/ERC20/ERC20.sol\":4103:4115  _msgSender() */\n      jump\t// in\n    tag_148:\n        /* \"@openzeppelin/contracts/token/ERC20/ERC20.sol\":4087:4115  address owner = _msgSender() */\n      swap1\n      pop\n        /* \"@openzeppelin/contracts/token/ERC20/ERC20.sol\":4125:4156  _approve(owner, spender, value) */\n      tag_150\n        /* \"@openzeppelin/contracts/token/ERC20/ERC20.sol\":4134:4139  owner */\n      dup2\n        /* \"@openzeppelin/contracts/token/ERC20/ERC20.sol\":4141:4148  spender */\n      dup6\n        /* \"@openzeppelin/contracts/token/ERC20/ERC20.sol\":4150:4155  value */\n      dup6\n        /* \"@openzeppelin/contracts/token/ERC20/ERC20.sol\":4125:4133  _approve */\n      tag_151\n        /* \"@openzeppelin/contracts/token/ERC20/ERC20.sol\":4125:4156  _approve(owner, spender, value) */\n      jump\t// in\n    tag_150:\n        /* \"@openzeppelin/contracts/token/ERC20/ERC20.sol\":4173:4177  true */\n      0x01\n        /* \"@openzeppelin/contracts/token/ERC20/ERC20.sol\":4166:4177  return true */\n      swap2\n      pop\n      pop\n        /* \"@openzeppelin/contracts/token/ERC20/ERC20.sol\":3998:4184  function approve(address spender, uint256 value) public virtual returns (bool) {... */\n      swap3\n      swap2\n      pop\n      pop\n      jump\t// out\n        /* \"E/equity.sol\":3013:3285  function withdrawFunds(uint256 amount) external onlyOwner nonReentrant {... */\n    tag_43:\n        /* \"@openzeppelin/contracts/access/Ownable.sol\":1531:1544  _checkOwner() */\n      tag_153\n        /* \"@openzeppelin/contracts/access/Ownable.sol\":1531:1542  _checkOwner */\n      tag_154\n        /* \"@openzeppelin/contracts/access/Ownable.sol\":1531:1544  _checkOwner() */\n      jump\t// in\n    tag_153:\n        /* \"@openzeppelin/contracts/security/ReentrancyGuard.sol\":2261:2282  _nonReentrantBefore() */\n      tag_156\n        /* \"@openzeppelin/contracts/security/ReentrancyGuard.sol\":2261:2280  _nonReentrantBefore */\n      tag_108\n        /* \"@openzeppelin/contracts/security/ReentrancyGuard.sol\":2261:2282  _nonReentrantBefore() */\n      jump\t// in\n    tag_156:\n        /* \"E/equity.sol\":3112:3133  address(this).balance */\n      selfbalance\n        /* \"E/equity.sol\":3102:3108  amount */\n      dup2\n        /* \"E/equity.sol\":3102:3133  amount <= address(this).balance */\n      gt\n      iszero\n        /* \"E/equity.sol\":3094:3162  require(amount <= address(this).balance, \"Insufficient ETH balance\") */\n      tag_158\n      jumpi\n      mload(0x40)\n      0x08c379a000000000000000000000000000000000000000000000000000000000\n      dup2\n      mstore\n      0x04\n      add\n      tag_159\n      swap1\n      tag_160\n      jump\t// in\n    tag_159:\n      mload(0x40)\n      dup1\n      swap2\n      sub\n      swap1\n      revert\n    tag_158:\n        /* \"E/equity.sol\":3173:3185  bool success */\n      0x00\n        /* \"E/equity.sol\":3199:3206  owner() */\n      tag_161\n        /* \"E/equity.sol\":3199:3204  owner */\n      tag_80\n        /* \"E/equity.sol\":3199:3206  owner() */\n      jump\t// in\n    tag_161:\n        /* \"E/equity.sol\":3191:3212  payable(owner()).call */\n      0xffffffffffffffffffffffffffffffffffffffff\n      and\n        /* \"E/equity.sol\":3220:3226  amount */\n      dup3\n        /* \"E/equity.sol\":3191:3231  payable(owner()).call{value: amount}(\"\") */\n      mload(0x40)\n      tag_162\n      swap1\n      tag_129\n      jump\t// in\n    tag_162:\n      0x00\n      mload(0x40)\n      dup1\n      dup4\n      sub\n      dup2\n      dup6\n      dup8\n      gas\n      call\n      swap3\n      pop\n      pop\n      pop\n      returndatasize\n      dup1\n      0x00\n      dup2\n      eq\n      tag_165\n      jumpi\n      mload(0x40)\n      swap2\n      pop\n      and(add(returndatasize, 0x3f), not(0x1f))\n      dup3\n      add\n      0x40\n      mstore\n      returndatasize\n      dup3\n      mstore\n      returndatasize\n      0x00\n      0x20\n      dup5\n      add\n      returndatacopy\n      jump(tag_164)\n    tag_165:\n      0x60\n      swap2\n      pop\n    tag_164:\n      pop\n        /* \"E/equity.sol\":3172:3231  (bool success, ) = payable(owner()).call{value: amount}(\"\") */\n      pop\n      swap1\n      pop\n        /* \"E/equity.sol\":3249:3256  success */\n      dup1\n        /* \"E/equity.sol\":3241:3278  require(success, \"Withdrawal failed\") */\n      tag_166\n      jumpi\n      mload(0x40)\n      0x08c379a000000000000000000000000000000000000000000000000000000000\n      dup2\n      mstore\n      0x04\n      add\n      tag_167\n      swap1\n      tag_168\n      jump\t// in\n    tag_167:\n      mload(0x40)\n      dup1\n      swap2\n      sub\n      swap1\n      revert\n    tag_166:\n        /* \"E/equity.sol\":3084:3285  {... */\n      pop\n        /* \"@openzeppelin/contracts/security/ReentrancyGuard.sol\":2303:2323  _nonReentrantAfter() */\n      tag_169\n        /* \"@openzeppelin/contracts/security/ReentrancyGuard.sol\":2303:2321  _nonReentrantAfter */\n      tag_139\n        /* \"@openzeppelin/contracts/security/ReentrancyGuard.sol\":2303:2323  _nonReentrantAfter() */\n      jump\t// in\n    tag_169:\n        /* \"E/equity.sol\":3013:3285  function withdrawFunds(uint256 amount) external onlyOwner nonReentrant {... */\n      pop\n      jump\t// out\n        /* \"@openzeppelin/contracts/token/ERC20/ERC20.sol\":2849:2946  function totalSupply() public view virtual returns (uint256) {... */\n    tag_46:\n        /* \"@openzeppelin/contracts/token/ERC20/ERC20.sol\":2901:2908  uint256 */\n      0x00\n        /* \"@openzeppelin/contracts/token/ERC20/ERC20.sol\":2927:2939  _totalSupply */\n      sload(0x02)\n        /* \"@openzeppelin/contracts/token/ERC20/ERC20.sol\":2920:2939  return _totalSupply */\n      swap1\n      pop\n        /* \"@openzeppelin/contracts/token/ERC20/ERC20.sol\":2849:2946  function totalSupply() public view virtual returns (uint256) {... */\n      swap1\n      jump\t// out\n        /* \"@openzeppelin/contracts/token/ERC20/ERC20.sol\":4776:5020  function transferFrom(address from, address to, uint256 value) public virtual returns (bool) {... */\n    tag_54:\n        /* \"@openzeppelin/contracts/token/ERC20/ERC20.sol\":4863:4867  bool */\n      0x00\n        /* \"@openzeppelin/contracts/token/ERC20/ERC20.sol\":4879:4894  address spender */\n      0x00\n        /* \"@openzeppelin/contracts/token/ERC20/ERC20.sol\":4897:4909  _msgSender() */\n      tag_172\n        /* \"@openzeppelin/contracts/token/ERC20/ERC20.sol\":4897:4907  _msgSender */\n      tag_149\n        /* \"@openzeppelin/contracts/token/ERC20/ERC20.sol\":4897:4909  _msgSender() */\n      jump\t// in\n    tag_172:\n        /* \"@openzeppelin/contracts/token/ERC20/ERC20.sol\":4879:4909  address spender = _msgSender() */\n      swap1\n      pop\n        /* \"@openzeppelin/contracts/token/ERC20/ERC20.sol\":4919:4956  _spendAllowance(from, spender, value) */\n      tag_173\n        /* \"@openzeppelin/contracts/token/ERC20/ERC20.sol\":4935:4939  from */\n      dup6\n        /* \"@openzeppelin/contracts/token/ERC20/ERC20.sol\":4941:4948  spender */\n      dup3\n        /* \"@openzeppelin/contracts/token/ERC20/ERC20.sol\":4950:4955  value */\n      dup6\n        /* \"@openzeppelin/contracts/token/ERC20/ERC20.sol\":4919:4934  _spendAllowance */\n      tag_174\n        /* \"@openzeppelin/contracts/token/ERC20/ERC20.sol\":4919:4956  _spendAllowance(from, spender, value) */\n      jump\t// in\n    tag_173:\n        /* \"@openzeppelin/contracts/token/ERC20/ERC20.sol\":4966:4992  _transfer(from, to, value) */\n      tag_175\n        /* \"@openzeppelin/contracts/token/ERC20/ERC20.sol\":4976:4980  from */\n      dup6\n        /* \"@openzeppelin/contracts/token/ERC20/ERC20.sol\":4982:4984  to */\n      dup6\n        /* \"@openzeppelin/contracts/token/ERC20/ERC20.sol\":4986:4991  value */\n      dup6\n        /* \"@openzeppelin/contracts/token/ERC20/ERC20.sol\":4966:4975  _transfer */\n      tag_176\n        /* \"@openzeppelin/contracts/token/ERC20/ERC20.sol\":4966:4992  _transfer(from, to, value) */\n      jump\t// in\n    tag_175:\n        /* \"@openzeppelin/contracts/token/ERC20/ERC20.sol\":5009:5013  true */\n      0x01\n        /* \"@openzeppelin/contracts/token/ERC20/ERC20.sol\":5002:5013  return true */\n      swap2\n      pop\n      pop\n        /* \"@openzeppelin/contracts/token/ERC20/ERC20.sol\":4776:5020  function transferFrom(address from, address to, uint256 value) public virtual returns (bool) {... */\n      swap4\n      swap3\n      pop\n      pop\n      pop\n      jump\t// out\n        /* \"@openzeppelin/contracts/token/ERC20/ERC20.sol\":2707:2789  function decimals() public view virtual returns (uint8) {... */\n    tag_58:\n        /* \"@openzeppelin/contracts/token/ERC20/ERC20.sol\":2756:2761  uint8 */\n      0x00\n        /* \"@openzeppelin/contracts/token/ERC20/ERC20.sol\":2780:2782  18 */\n      0x12\n        /* \"@openzeppelin/contracts/token/ERC20/ERC20.sol\":2773:2782  return 18 */\n      swap1\n      pop\n        /* \"@openzeppelin/contracts/token/ERC20/ERC20.sol\":2707:2789  function decimals() public view virtual returns (uint8) {... */\n      swap1\n      jump\t// out\n        /* \"E/equity.sol\":1520:1715  function updateTokenPrice(uint256 newPrice) external onlyOwner {... */\n    tag_64:\n        /* \"@openzeppelin/contracts/access/Ownable.sol\":1531:1544  _checkOwner() */\n      tag_179\n        /* \"@openzeppelin/contracts/access/Ownable.sol\":1531:1542  _checkOwner */\n      tag_154\n        /* \"@openzeppelin/contracts/access/Ownable.sol\":1531:1544  _checkOwner() */\n      jump\t// in\n    tag_179:\n        /* \"E/equity.sol\":1612:1613  0 */\n      0x00\n        /* \"E/equity.sol\":1601:1609  newPrice */\n      dup2\n        /* \"E/equity.sol\":1601:1613  newPrice > 0 */\n      gt\n        /* \"E/equity.sol\":1593:1635  require(newPrice > 0, \"Price must be > 0\") */\n      tag_181\n      jumpi\n      mload(0x40)\n      0x08c379a000000000000000000000000000000000000000000000000000000000\n      dup2\n      mstore\n      0x04\n      add\n      tag_182\n      swap1\n      tag_183\n      jump\t// in\n    tag_182:\n      mload(0x40)\n      dup1\n      swap2\n      sub\n      swap1\n      revert\n    tag_181:\n        /* \"E/equity.sol\":1658:1666  newPrice */\n      dup1\n        /* \"E/equity.sol\":1645:1655  tokenPrice */\n      0x07\n        /* \"E/equity.sol\":1645:1666  tokenPrice = newPrice */\n      dup2\n      swap1\n      sstore\n      pop\n        /* \"E/equity.sol\":1681:1708  TokenPriceUpdated(newPrice) */\n      0x6b361c807733cc94a3b7bda39c1c94dcc0511e91aa47b0f7f918068e93976890\n        /* \"E/equity.sol\":1699:1707  newPrice */\n      dup2\n        /* \"E/equity.sol\":1681:1708  TokenPriceUpdated(newPrice) */\n      mload(0x40)\n      tag_184\n      swap2\n      swap1\n      tag_48\n      jump\t// in\n    tag_184:\n      mload(0x40)\n      dup1\n      swap2\n      sub\n      swap1\n      log1\n        /* \"E/equity.sol\":1520:1715  function updateTokenPrice(uint256 newPrice) external onlyOwner {... */\n      pop\n      jump\t// out\n        /* \"@openzeppelin/contracts/token/ERC20/ERC20.sol\":3004:3120  function balanceOf(address account) public view virtual returns (uint256) {... */\n    tag_69:\n        /* \"@openzeppelin/contracts/token/ERC20/ERC20.sol\":3069:3076  uint256 */\n      0x00\n        /* \"@openzeppelin/contracts/token/ERC20/ERC20.sol\":3095:3104  _balances */\n      0x00\n        /* \"@openzeppelin/contracts/token/ERC20/ERC20.sol\":3095:3113  _balances[account] */\n      0x00\n        /* \"@openzeppelin/contracts/token/ERC20/ERC20.sol\":3105:3112  account */\n      dup4\n        /* \"@openzeppelin/contracts/token/ERC20/ERC20.sol\":3095:3113  _balances[account] */\n      0xffffffffffffffffffffffffffffffffffffffff\n      and\n      0xffffffffffffffffffffffffffffffffffffffff\n      and\n      dup2\n      mstore\n      0x20\n      add\n      swap1\n      dup2\n      mstore\n      0x20\n      add\n      0x00\n      keccak256\n      sload\n        /* \"@openzeppelin/contracts/token/ERC20/ERC20.sol\":3088:3113  return _balances[account] */\n      swap1\n      pop\n        /* \"@openzeppelin/contracts/token/ERC20/ERC20.sol\":3004:3120  function balanceOf(address account) public view virtual returns (uint256) {... */\n      swap2\n      swap1\n      pop\n      jump\t// out\n        /* \"@openzeppelin/contracts/access/Ownable.sol\":2293:2394  function renounceOwnership() public virtual onlyOwner {... */\n    tag_73:\n        /* \"@openzeppelin/contracts/access/Ownable.sol\":1531:1544  _checkOwner() */\n      tag_187\n        /* \"@openzeppelin/contracts/access/Ownable.sol\":1531:1542  _checkOwner */\n      tag_154\n        /* \"@openzeppelin/contracts/access/Ownable.sol\":1531:1544  _checkOwner() */\n      jump\t// in\n    tag_187:\n        /* \"@openzeppelin/contracts/access/Ownable.sol\":2357:2387  _transferOwnership(address(0)) */\n      tag_189\n        /* \"@openzeppelin/contracts/access/Ownable.sol\":2384:2385  0 */\n      0x00\n        /* \"@openzeppelin/contracts/access/Ownable.sol\":2357:2375  _transferOwnership */\n      tag_190\n        /* \"@openzeppelin/contracts/access/Ownable.sol\":2357:2387  _transferOwnership(address(0)) */\n      jump\t// in\n    tag_189:\n        /* \"@openzeppelin/contracts/access/Ownable.sol\":2293:2394  function renounceOwnership() public virtual onlyOwner {... */\n      jump\t// out\n        /* \"E/equity.sol\":635:660  uint256 public tokenPrice */\n    tag_76:\n      sload(0x07)\n      dup2\n      jump\t// out\n        /* \"@openzeppelin/contracts/access/Ownable.sol\":1638:1723  function owner() public view virtual returns (address) {... */\n    tag_80:\n        /* \"@openzeppelin/contracts/access/Ownable.sol\":1684:1691  address */\n      0x00\n        /* \"@openzeppelin/contracts/access/Ownable.sol\":1710:1716  _owner */\n      0x05\n      0x00\n      swap1\n      sload\n      swap1\n      0x0100\n      exp\n      swap1\n      div\n      0xffffffffffffffffffffffffffffffffffffffff\n      and\n        /* \"@openzeppelin/contracts/access/Ownable.sol\":1703:1716  return _owner */\n      swap1\n      pop\n        /* \"@openzeppelin/contracts/access/Ownable.sol\":1638:1723  function owner() public view virtual returns (address) {... */\n      swap1\n      jump\t// out\n        /* \"@openzeppelin/contracts/token/ERC20/ERC20.sol\":1981:2074  function symbol() public view virtual returns (string memory) {... */\n    tag_85:\n        /* \"@openzeppelin/contracts/token/ERC20/ERC20.sol\":2028:2041  string memory */\n      0x60\n        /* \"@openzeppelin/contracts/token/ERC20/ERC20.sol\":2060:2067  _symbol */\n      0x04\n        /* \"@openzeppelin/contracts/token/ERC20/ERC20.sol\":2053:2067  return _symbol */\n      dup1\n      sload\n      tag_193\n      swap1\n      tag_142\n      jump\t// in\n    tag_193:\n      dup1\n      0x1f\n      add\n      0x20\n      dup1\n      swap2\n      div\n      mul\n      0x20\n      add\n      mload(0x40)\n      swap1\n      dup2\n      add\n      0x40\n      mstore\n      dup1\n      swap3\n      swap2\n      swap1\n      dup2\n      dup2\n      mstore\n      0x20\n      add\n      dup3\n      dup1\n      sload\n      tag_194\n      swap1\n      tag_142\n      jump\t// in\n    tag_194:\n      dup1\n      iszero\n      tag_195\n      jumpi\n      dup1\n      0x1f\n      lt\n      tag_196\n      jumpi\n      0x0100\n      dup1\n      dup4\n      sload\n      div\n      mul\n      dup4\n      mstore\n      swap2\n      0x20\n      add\n      swap2\n      jump(tag_195)\n    tag_196:\n      dup3\n      add\n      swap2\n      swap1\n      0x00\n      mstore\n      keccak256(0x00, 0x20)\n      swap1\n    tag_197:\n      dup2\n      sload\n      dup2\n      mstore\n      swap1\n      0x01\n      add\n      swap1\n      0x20\n      add\n      dup1\n      dup4\n      gt\n      tag_197\n      jumpi\n      dup3\n      swap1\n      sub\n      0x1f\n      and\n      dup3\n      add\n      swap2\n    tag_195:\n      pop\n      pop\n      pop\n      pop\n      pop\n      swap1\n      pop\n        /* \"@openzeppelin/contracts/token/ERC20/ERC20.sol\":1981:2074  function symbol() public view virtual returns (string memory) {... */\n      swap1\n      jump\t// out\n        /* \"@openzeppelin/contracts/token/ERC20/ERC20.sol\":3315:3493  function transfer(address to, uint256 value) public virtual returns (bool) {... */\n    tag_90:\n        /* \"@openzeppelin/contracts/token/ERC20/ERC20.sol\":3384:3388  bool */\n      0x00\n        /* \"@openzeppelin/contracts/token/ERC20/ERC20.sol\":3400:3413  address owner */\n      0x00\n        /* \"@openzeppelin/contracts/token/ERC20/ERC20.sol\":3416:3428  _msgSender() */\n      tag_199\n        /* \"@openzeppelin/contracts/token/ERC20/ERC20.sol\":3416:3426  _msgSender */\n      tag_149\n        /* \"@openzeppelin/contracts/token/ERC20/ERC20.sol\":3416:3428  _msgSender() */\n      jump\t// in\n    tag_199:\n        /* \"@openzeppelin/contracts/token/ERC20/ERC20.sol\":3400:3428  address owner = _msgSender() */\n      swap1\n      pop\n        /* \"@openzeppelin/contracts/token/ERC20/ERC20.sol\":3438:3465  _transfer(owner, to, value) */\n      tag_200\n        /* \"@openzeppelin/contracts/token/ERC20/ERC20.sol\":3448:3453  owner */\n      dup2\n        /* \"@openzeppelin/contracts/token/ERC20/ERC20.sol\":3455:3457  to */\n      dup6\n        /* \"@openzeppelin/contracts/token/ERC20/ERC20.sol\":3459:3464  value */\n      dup6\n        /* \"@openzeppelin/contracts/token/ERC20/ERC20.sol\":3438:3447  _transfer */\n      tag_176\n        /* \"@openzeppelin/contracts/token/ERC20/ERC20.sol\":3438:3465  _transfer(owner, to, value) */\n      jump\t// in\n    tag_200:\n        /* \"@openzeppelin/contracts/token/ERC20/ERC20.sol\":3482:3486  true */\n      0x01\n        /* \"@openzeppelin/contracts/token/ERC20/ERC20.sol\":3475:3486  return true */\n      swap2\n      pop\n      pop\n        /* \"@openzeppelin/contracts/token/ERC20/ERC20.sol\":3315:3493  function transfer(address to, uint256 value) public virtual returns (bool) {... */\n      swap3\n      swap2\n      pop\n      pop\n      jump\t// out\n        /* \"E/equity.sol\":722:748  uint256 public totalRaised */\n    tag_94:\n      sload(0x08)\n      dup2\n      jump\t// out\n        /* \"@openzeppelin/contracts/token/ERC20/ERC20.sol\":3551:3691  function allowance(address owner, address spender) public view virtual returns (uint256) {... */\n    tag_100:\n        /* \"@openzeppelin/contracts/token/ERC20/ERC20.sol\":3631:3638  uint256 */\n      0x00\n        /* \"@openzeppelin/contracts/token/ERC20/ERC20.sol\":3657:3668  _allowances */\n      0x01\n        /* \"@openzeppelin/contracts/token/ERC20/ERC20.sol\":3657:3675  _allowances[owner] */\n      0x00\n        /* \"@openzeppelin/contracts/token/ERC20/ERC20.sol\":3669:3674  owner */\n      dup5\n        /* \"@openzeppelin/contracts/token/ERC20/ERC20.sol\":3657:3675  _allowances[owner] */\n      0xffffffffffffffffffffffffffffffffffffffff\n      and\n      0xffffffffffffffffffffffffffffffffffffffff\n      and\n      dup2\n      mstore\n      0x20\n      add\n      swap1\n      dup2\n      mstore\n      0x20\n      add\n      0x00\n      keccak256\n        /* \"@openzeppelin/contracts/token/ERC20/ERC20.sol\":3657:3684  _allowances[owner][spender] */\n      0x00\n        /* \"@openzeppelin/contracts/token/ERC20/ERC20.sol\":3676:3683  spender */\n      dup4\n        /* \"@openzeppelin/contracts/token/ERC20/ERC20.sol\":3657:3684  _allowances[owner][spender] */\n      0xffffffffffffffffffffffffffffffffffffffff\n      and\n      0xffffffffffffffffffffffffffffffffffffffff\n      and\n      dup2\n      mstore\n      0x20\n      add\n      swap1\n      dup2\n      mstore\n      0x20\n      add\n      0x00\n      keccak256\n      sload\n        /* \"@openzeppelin/contracts/token/ERC20/ERC20.sol\":3650:3684  return _allowances[owner][spender] */\n      swap1\n      pop\n        /* \"@openzeppelin/contracts/token/ERC20/ERC20.sol\":3551:3691  function allowance(address owner, address spender) public view virtual returns (uint256) {... */\n      swap3\n      swap2\n      pop\n      pop\n      jump\t// out\n        /* \"@openzeppelin/contracts/access/Ownable.sol\":2543:2758  function transferOwnership(address newOwner) public virtual onlyOwner {... */\n    tag_105:\n        /* \"@openzeppelin/contracts/access/Ownable.sol\":1531:1544  _checkOwner() */\n      tag_203\n        /* \"@openzeppelin/contracts/access/Ownable.sol\":1531:1542  _checkOwner */\n      tag_154\n        /* \"@openzeppelin/contracts/access/Ownable.sol\":1531:1544  _checkOwner() */\n      jump\t// in\n    tag_203:\n        /* \"@openzeppelin/contracts/access/Ownable.sol\":2647:2648  0 */\n      0x00\n        /* \"@openzeppelin/contracts/access/Ownable.sol\":2627:2649  newOwner == address(0) */\n      0xffffffffffffffffffffffffffffffffffffffff\n      and\n        /* \"@openzeppelin/contracts/access/Ownable.sol\":2627:2635  newOwner */\n      dup2\n        /* \"@openzeppelin/contracts/access/Ownable.sol\":2627:2649  newOwner == address(0) */\n      0xffffffffffffffffffffffffffffffffffffffff\n      and\n      sub\n        /* \"@openzeppelin/contracts/access/Ownable.sol\":2623:2714  if (newOwner == address(0)) {... */\n      tag_205\n      jumpi\n        /* \"@openzeppelin/contracts/access/Ownable.sol\":2700:2701  0 */\n      0x00\n        /* \"@openzeppelin/contracts/access/Ownable.sol\":2672:2703  OwnableInvalidOwner(address(0)) */\n      mload(0x40)\n      0x1e4fbdf700000000000000000000000000000000000000000000000000000000\n      dup2\n      mstore\n      0x04\n      add\n      tag_206\n      swap2\n      swap1\n      tag_82\n      jump\t// in\n    tag_206:\n      mload(0x40)\n      dup1\n      swap2\n      sub\n      swap1\n      revert\n        /* \"@openzeppelin/contracts/access/Ownable.sol\":2623:2714  if (newOwner == address(0)) {... */\n    tag_205:\n        /* \"@openzeppelin/contracts/access/Ownable.sol\":2723:2751  _transferOwnership(newOwner) */\n      tag_207\n        /* \"@openzeppelin/contracts/access/Ownable.sol\":2742:2750  newOwner */\n      dup2\n        /* \"@openzeppelin/contracts/access/Ownable.sol\":2723:2741  _transferOwnership */\n      tag_190\n        /* \"@openzeppelin/contracts/access/Ownable.sol\":2723:2751  _transferOwnership(newOwner) */\n      jump\t// in\n    tag_207:\n        /* \"@openzeppelin/contracts/access/Ownable.sol\":2543:2758  function transferOwnership(address newOwner) public virtual onlyOwner {... */\n      pop\n      jump\t// out\n        /* \"@openzeppelin/contracts/security/ReentrancyGuard.sol\":2336:2623  function _nonReentrantBefore() private {... */\n    tag_108:\n        /* \"@openzeppelin/contracts/security/ReentrancyGuard.sol\":1759:1760  2 */\n      0x02\n        /* \"@openzeppelin/contracts/security/ReentrancyGuard.sol\":2468:2475  _status */\n      sload(0x06)\n        /* \"@openzeppelin/contracts/security/ReentrancyGuard.sol\":2468:2487  _status != _ENTERED */\n      sub\n        /* \"@openzeppelin/contracts/security/ReentrancyGuard.sol\":2460:2523  require(_status != _ENTERED, \"ReentrancyGuard: reentrant call\") */\n      tag_209\n      jumpi\n      mload(0x40)\n      0x08c379a000000000000000000000000000000000000000000000000000000000\n      dup2\n      mstore\n      0x04\n      add\n      tag_210\n      swap1\n      tag_211\n      jump\t// in\n    tag_210:\n      mload(0x40)\n      dup1\n      swap2\n      sub\n      swap1\n      revert\n    tag_209:\n        /* \"@openzeppelin/contracts/security/ReentrancyGuard.sol\":1759:1760  2 */\n      0x02\n        /* \"@openzeppelin/contracts/security/ReentrancyGuard.sol\":2598:2605  _status */\n      0x06\n        /* \"@openzeppelin/contracts/security/ReentrancyGuard.sol\":2598:2616  _status = _ENTERED */\n      dup2\n      swap1\n      sstore\n      pop\n        /* \"@openzeppelin/contracts/security/ReentrancyGuard.sol\":2336:2623  function _nonReentrantBefore() private {... */\n      jump\t// out\n        /* \"@openzeppelin/contracts/token/ERC20/ERC20.sol\":7458:7666  function _mint(address account, uint256 value) internal {... */\n    tag_126:\n        /* \"@openzeppelin/contracts/token/ERC20/ERC20.sol\":7547:7548  0 */\n      0x00\n        /* \"@openzeppelin/contracts/token/ERC20/ERC20.sol\":7528:7549  account == address(0) */\n      0xffffffffffffffffffffffffffffffffffffffff\n      and\n        /* \"@openzeppelin/contracts/token/ERC20/ERC20.sol\":7528:7535  account */\n      dup3\n        /* \"@openzeppelin/contracts/token/ERC20/ERC20.sol\":7528:7549  account == address(0) */\n      0xffffffffffffffffffffffffffffffffffffffff\n      and\n      sub\n        /* \"@openzeppelin/contracts/token/ERC20/ERC20.sol\":7524:7615  if (account == address(0)) {... */\n      tag_213\n      jumpi\n        /* \"@openzeppelin/contracts/token/ERC20/ERC20.sol\":7601:7602  0 */\n      0x00\n        /* \"@openzeppelin/contracts/token/ERC20/ERC20.sol\":7572:7604  ERC20InvalidReceiver(address(0)) */\n      mload(0x40)\n      0xec442f0500000000000000000000000000000000000000000000000000000000\n      dup2\n      mstore\n      0x04\n      add\n      tag_214\n      swap2\n      swap1\n      tag_82\n      jump\t// in\n    tag_214:\n      mload(0x40)\n      dup1\n      swap2\n      sub\n      swap1\n      revert\n        /* \"@openzeppelin/contracts/token/ERC20/ERC20.sol\":7524:7615  if (account == address(0)) {... */\n    tag_213:\n        /* \"@openzeppelin/contracts/token/ERC20/ERC20.sol\":7624:7659  _update(address(0), account, value) */\n      tag_215\n        /* \"@openzeppelin/contracts/token/ERC20/ERC20.sol\":7640:7641  0 */\n      0x00\n        /* \"@openzeppelin/contracts/token/ERC20/ERC20.sol\":7644:7651  account */\n      dup4\n        /* \"@openzeppelin/contracts/token/ERC20/ERC20.sol\":7653:7658  value */\n      dup4\n        /* \"@openzeppelin/contracts/token/ERC20/ERC20.sol\":7624:7631  _update */\n      tag_216\n        /* \"@openzeppelin/contracts/token/ERC20/ERC20.sol\":7624:7659  _update(address(0), account, value) */\n      jump\t// in\n    tag_215:\n        /* \"@openzeppelin/contracts/token/ERC20/ERC20.sol\":7458:7666  function _mint(address account, uint256 value) internal {... */\n      pop\n      pop\n      jump\t// out\n        /* \"@openzeppelin/contracts/security/ReentrancyGuard.sol\":2629:2838  function _nonReentrantAfter() private {... */\n    tag_139:\n        /* \"@openzeppelin/contracts/security/ReentrancyGuard.sol\":1716:1717  1 */\n      0x01\n        /* \"@openzeppelin/contracts/security/ReentrancyGuard.sol\":2809:2816  _status */\n      0x06\n        /* \"@openzeppelin/contracts/security/ReentrancyGuard.sol\":2809:2831  _status = _NOT_ENTERED */\n      dup2\n      swap1\n      sstore\n      pop\n        /* \"@openzeppelin/contracts/security/ReentrancyGuard.sol\":2629:2838  function _nonReentrantAfter() private {... */\n      jump\t// out\n        /* \"@openzeppelin/contracts/utils/Context.sol\":656:752  function _msgSender() internal view virtual returns (address) {... */\n    tag_149:\n        /* \"@openzeppelin/contracts/utils/Context.sol\":709:716  address */\n      0x00\n        /* \"@openzeppelin/contracts/utils/Context.sol\":735:745  msg.sender */\n      caller\n        /* \"@openzeppelin/contracts/utils/Context.sol\":728:745  return msg.sender */\n      swap1\n      pop\n        /* \"@openzeppelin/contracts/utils/Context.sol\":656:752  function _msgSender() internal view virtual returns (address) {... */\n      swap1\n      jump\t// out\n        /* \"@openzeppelin/contracts/token/ERC20/ERC20.sol\":8726:8854  function _approve(address owner, address spender, uint256 value) internal {... */\n    tag_151:\n        /* \"@openzeppelin/contracts/token/ERC20/ERC20.sol\":8810:8847  _approve(owner, spender, value, true) */\n      tag_220\n        /* \"@openzeppelin/contracts/token/ERC20/ERC20.sol\":8819:8824  owner */\n      dup4\n        /* \"@openzeppelin/contracts/token/ERC20/ERC20.sol\":8826:8833  spender */\n      dup4\n        /* \"@openzeppelin/contracts/token/ERC20/ERC20.sol\":8835:8840  value */\n      dup4\n        /* \"@openzeppelin/contracts/token/ERC20/ERC20.sol\":8842:8846  true */\n      0x01\n        /* \"@openzeppelin/contracts/token/ERC20/ERC20.sol\":8810:8818  _approve */\n      tag_221\n        /* \"@openzeppelin/contracts/token/ERC20/ERC20.sol\":8810:8847  _approve(owner, spender, value, true) */\n      jump\t// in\n    tag_220:\n        /* \"@openzeppelin/contracts/token/ERC20/ERC20.sol\":8726:8854  function _approve(address owner, address spender, uint256 value) internal {... */\n      pop\n      pop\n      pop\n      jump\t// out\n        /* \"@openzeppelin/contracts/access/Ownable.sol\":1796:1958  function _checkOwner() internal view virtual {... */\n    tag_154:\n        /* \"@openzeppelin/contracts/access/Ownable.sol\":1866:1878  _msgSender() */\n      tag_223\n        /* \"@openzeppelin/contracts/access/Ownable.sol\":1866:1876  _msgSender */\n      tag_149\n        /* \"@openzeppelin/contracts/access/Ownable.sol\":1866:1878  _msgSender() */\n      jump\t// in\n    tag_223:\n        /* \"@openzeppelin/contracts/access/Ownable.sol\":1855:1878  owner() != _msgSender() */\n      0xffffffffffffffffffffffffffffffffffffffff\n      and\n        /* \"@openzeppelin/contracts/access/Ownable.sol\":1855:1862  owner() */\n      tag_224\n        /* \"@openzeppelin/contracts/access/Ownable.sol\":1855:1860  owner */\n      tag_80\n        /* \"@openzeppelin/contracts/access/Ownable.sol\":1855:1862  owner() */\n      jump\t// in\n    tag_224:\n        /* \"@openzeppelin/contracts/access/Ownable.sol\":1855:1878  owner() != _msgSender() */\n      0xffffffffffffffffffffffffffffffffffffffff\n      and\n      eq\n        /* \"@openzeppelin/contracts/access/Ownable.sol\":1851:1952  if (owner() != _msgSender()) {... */\n      tag_225\n      jumpi\n        /* \"@openzeppelin/contracts/access/Ownable.sol\":1928:1940  _msgSender() */\n      tag_226\n        /* \"@openzeppelin/contracts/access/Ownable.sol\":1928:1938  _msgSender */\n      tag_149\n        /* \"@openzeppelin/contracts/access/Ownable.sol\":1928:1940  _msgSender() */\n      jump\t// in\n    tag_226:\n        /* \"@openzeppelin/contracts/access/Ownable.sol\":1901:1941  OwnableUnauthorizedAccount(_msgSender()) */\n      mload(0x40)\n      0x118cdaa700000000000000000000000000000000000000000000000000000000\n      dup2\n      mstore\n      0x04\n      add\n      tag_227\n      swap2\n      swap1\n      tag_82\n      jump\t// in\n    tag_227:\n      mload(0x40)\n      dup1\n      swap2\n      sub\n      swap1\n      revert\n        /* \"@openzeppelin/contracts/access/Ownable.sol\":1851:1952  if (owner() != _msgSender()) {... */\n    tag_225:\n        /* \"@openzeppelin/contracts/access/Ownable.sol\":1796:1958  function _checkOwner() internal view virtual {... */\n      jump\t// out\n        /* \"@openzeppelin/contracts/token/ERC20/ERC20.sol\":10415:10891  function _spendAllowance(address owner, address spender, uint256 value) internal virtual {... */\n    tag_174:\n        /* \"@openzeppelin/contracts/token/ERC20/ERC20.sol\":10514:10538  uint256 currentAllowance */\n      0x00\n        /* \"@openzeppelin/contracts/token/ERC20/ERC20.sol\":10541:10566  allowance(owner, spender) */\n      tag_229\n        /* \"@openzeppelin/contracts/token/ERC20/ERC20.sol\":10551:10556  owner */\n      dup5\n        /* \"@openzeppelin/contracts/token/ERC20/ERC20.sol\":10558:10565  spender */\n      dup5\n        /* \"@openzeppelin/contracts/token/ERC20/ERC20.sol\":10541:10550  allowance */\n      tag_100\n        /* \"@openzeppelin/contracts/token/ERC20/ERC20.sol\":10541:10566  allowance(owner, spender) */\n      jump\t// in\n    tag_229:\n        /* \"@openzeppelin/contracts/token/ERC20/ERC20.sol\":10514:10566  uint256 currentAllowance = allowance(owner, spender) */\n      swap1\n      pop\n        /* \"@openzeppelin/contracts/token/ERC20/ERC20.sol\":10599:10616  type(uint256).max */\n      0xffffffffffffffffffffffffffffffffffffffffffffffffffffffffffffffff\n        /* \"@openzeppelin/contracts/token/ERC20/ERC20.sol\":10580:10596  currentAllowance */\n      dup2\n        /* \"@openzeppelin/contracts/token/ERC20/ERC20.sol\":10580:10616  currentAllowance < type(uint256).max */\n      lt\n        /* \"@openzeppelin/contracts/token/ERC20/ERC20.sol\":10576:10885  if (currentAllowance < type(uint256).max) {... */\n      iszero\n      tag_230\n      jumpi\n        /* \"@openzeppelin/contracts/token/ERC20/ERC20.sol\":10655:10660  value */\n      dup2\n        /* \"@openzeppelin/contracts/token/ERC20/ERC20.sol\":10636:10652  currentAllowance */\n      dup2\n        /* \"@openzeppelin/contracts/token/ERC20/ERC20.sol\":10636:10660  currentAllowance < value */\n      lt\n        /* \"@openzeppelin/contracts/token/ERC20/ERC20.sol\":10632:10762  if (currentAllowance < value) {... */\n      iszero\n      tag_231\n      jumpi\n        /* \"@openzeppelin/contracts/token/ERC20/ERC20.sol\":10714:10721  spender */\n      dup3\n        /* \"@openzeppelin/contracts/token/ERC20/ERC20.sol\":10723:10739  currentAllowance */\n      dup2\n        /* \"@openzeppelin/contracts/token/ERC20/ERC20.sol\":10741:10746  value */\n      dup4\n        /* \"@openzeppelin/contracts/token/ERC20/ERC20.sol\":10687:10747  ERC20InsufficientAllowance(spender, currentAllowance, value) */\n      mload(0x40)\n      0xfb8f41b200000000000000000000000000000000000000000000000000000000\n      dup2\n      mstore\n      0x04\n      add\n      tag_232\n      swap4\n      swap3\n      swap2\n      swap1\n      tag_233\n      jump\t// in\n    tag_232:\n      mload(0x40)\n      dup1\n      swap2\n      sub\n      swap1\n      revert\n        /* \"@openzeppelin/contracts/token/ERC20/ERC20.sol\":10632:10762  if (currentAllowance < value) {... */\n    tag_231:\n        /* \"@openzeppelin/contracts/token/ERC20/ERC20.sol\":10803:10860  _approve(owner, spender, currentAllowance - value, false) */\n      tag_234\n        /* \"@openzeppelin/contracts/token/ERC20/ERC20.sol\":10812:10817  owner */\n      dup5\n        /* \"@openzeppelin/contracts/token/ERC20/ERC20.sol\":10819:10826  spender */\n      dup5\n        /* \"@openzeppelin/contracts/token/ERC20/ERC20.sol\":10847:10852  value */\n      dup5\n        /* \"@openzeppelin/contracts/token/ERC20/ERC20.sol\":10828:10844  currentAllowance */\n      dup5\n        /* \"@openzeppelin/contracts/token/ERC20/ERC20.sol\":10828:10852  currentAllowance - value */\n      sub\n        /* \"@openzeppelin/contracts/token/ERC20/ERC20.sol\":10854:10859  false */\n      0x00\n        /* \"@openzeppelin/contracts/token/ERC20/ERC20.sol\":10803:10811  _approve */\n      tag_221\n        /* \"@openzeppelin/contracts/token/ERC20/ERC20.sol\":10803:10860  _approve(owner, spender, currentAllowance - value, false) */\n      jump\t// in\n    tag_234:\n        /* \"@openzeppelin/contracts/token/ERC20/ERC20.sol\":10576:10885  if (currentAllowance < type(uint256).max) {... */\n    tag_230:\n        /* \"@openzeppelin/contracts/token/ERC20/ERC20.sol\":10504:10891  {... */\n      pop\n        /* \"@openzeppelin/contracts/token/ERC20/ERC20.sol\":10415:10891  function _spendAllowance(address owner, address spender, uint256 value) internal virtual {... */\n      pop\n      pop\n      pop\n      jump\t// out\n        /* \"@openzeppelin/contracts/token/ERC20/ERC20.sol\":5393:5693  function _transfer(address from, address to, uint256 value) internal {... */\n    tag_176:\n        /* \"@openzeppelin/contracts/token/ERC20/ERC20.sol\":5492:5493  0 */\n      0x00\n        /* \"@openzeppelin/contracts/token/ERC20/ERC20.sol\":5476:5494  from == address(0) */\n      0xffffffffffffffffffffffffffffffffffffffff\n      and\n        /* \"@openzeppelin/contracts/token/ERC20/ERC20.sol\":5476:5480  from */\n      dup4\n        /* \"@openzeppelin/contracts/token/ERC20/ERC20.sol\":5476:5494  from == address(0) */\n      0xffffffffffffffffffffffffffffffffffffffff\n      and\n      sub\n        /* \"@openzeppelin/contracts/token/ERC20/ERC20.sol\":5472:5558  if (from == address(0)) {... */\n      tag_236\n      jumpi\n        /* \"@openzeppelin/contracts/token/ERC20/ERC20.sol\":5544:5545  0 */\n      0x00\n        /* \"@openzeppelin/contracts/token/ERC20/ERC20.sol\":5517:5547  ERC20InvalidSender(address(0)) */\n      mload(0x40)\n      0x96c6fd1e00000000000000000000000000000000000000000000000000000000\n      dup2\n      mstore\n      0x04\n      add\n      tag_237\n      swap2\n      swap1\n      tag_82\n      jump\t// in\n    tag_237:\n      mload(0x40)\n      dup1\n      swap2\n      sub\n      swap1\n      revert\n        /* \"@openzeppelin/contracts/token/ERC20/ERC20.sol\":5472:5558  if (from == address(0)) {... */\n    tag_236:\n        /* \"@openzeppelin/contracts/token/ERC20/ERC20.sol\":5585:5586  0 */\n      0x00\n        /* \"@openzeppelin/contracts/token/ERC20/ERC20.sol\":5571:5587  to == address(0) */\n      0xffffffffffffffffffffffffffffffffffffffff\n      and\n        /* \"@openzeppelin/contracts/token/ERC20/ERC20.sol\":5571:5573  to */\n      dup3\n        /* \"@openzeppelin/contracts/token/ERC20/ERC20.sol\":5571:5587  to == address(0) */\n      0xffffffffffffffffffffffffffffffffffffffff\n      and\n      sub\n        /* \"@openzeppelin/contracts/token/ERC20/ERC20.sol\":5567:5653  if (to == address(0)) {... */\n      tag_238\n      jumpi\n        /* \"@openzeppelin/contracts/token/ERC20/ERC20.sol\":5639:5640  0 */\n      0x00\n        /* \"@openzeppelin/contracts/token/ERC20/ERC20.sol\":5610:5642  ERC20InvalidReceiver(address(0)) */\n      mload(0x40)\n      0xec442f0500000000000000000000000000000000000000000000000000000000\n      dup2\n      mstore\n      0x04\n      add\n      tag_239\n      swap2\n      swap1\n      tag_82\n      jump\t// in\n    tag_239:\n      mload(0x40)\n      dup1\n      swap2\n      sub\n      swap1\n      revert\n        /* \"@openzeppelin/contracts/token/ERC20/ERC20.sol\":5567:5653  if (to == address(0)) {... */\n    tag_238:\n        /* \"@openzeppelin/contracts/token/ERC20/ERC20.sol\":5662:5686  _update(from, to, value) */\n      tag_240\n        /* \"@openzeppelin/contracts/token/ERC20/ERC20.sol\":5670:5674  from */\n      dup4\n        /* \"@openzeppelin/contracts/token/ERC20/ERC20.sol\":5676:5678  to */\n      dup4\n        /* \"@openzeppelin/contracts/token/ERC20/ERC20.sol\":5680:5685  value */\n      dup4\n        /* \"@openzeppelin/contracts/token/ERC20/ERC20.sol\":5662:5669  _update */\n      tag_216\n        /* \"@openzeppelin/contracts/token/ERC20/ERC20.sol\":5662:5686  _update(from, to, value) */\n      jump\t// in\n    tag_240:\n        /* \"@openzeppelin/contracts/token/ERC20/ERC20.sol\":5393:5693  function _transfer(address from, address to, uint256 value) internal {... */\n      pop\n      pop\n      pop\n      jump\t// out\n        /* \"@openzeppelin/contracts/access/Ownable.sol\":2912:3099  function _transferOwnership(address newOwner) internal virtual {... */\n    tag_190:\n        /* \"@openzeppelin/contracts/access/Ownable.sol\":2985:3001  address oldOwner */\n      0x00\n        /* \"@openzeppelin/contracts/access/Ownable.sol\":3004:3010  _owner */\n      0x05\n      0x00\n      swap1\n      sload\n      swap1\n      0x0100\n      exp\n      swap1\n      div\n      0xffffffffffffffffffffffffffffffffffffffff\n      and\n        /* \"@openzeppelin/contracts/access/Ownable.sol\":2985:3010  address oldOwner = _owner */\n      swap1\n      pop\n        /* \"@openzeppelin/contracts/access/Ownable.sol\":3029:3037  newOwner */\n      dup2\n        /* \"@openzeppelin/contracts/access/Ownable.sol\":3020:3026  _owner */\n      0x05\n      0x00\n        /* \"@openzeppelin/contracts/access/Ownable.sol\":3020:3037  _owner = newOwner */\n      0x0100\n      exp\n      dup2\n      sload\n      dup2\n      0xffffffffffffffffffffffffffffffffffffffff\n      mul\n      not\n      and\n      swap1\n      dup4\n      0xffffffffffffffffffffffffffffffffffffffff\n      and\n      mul\n      or\n      swap1\n      sstore\n      pop\n        /* \"@openzeppelin/contracts/access/Ownable.sol\":3083:3091  newOwner */\n      dup2\n        /* \"@openzeppelin/contracts/access/Ownable.sol\":3052:3092  OwnershipTransferred(oldOwner, newOwner) */\n      0xffffffffffffffffffffffffffffffffffffffff\n      and\n        /* \"@openzeppelin/contracts/access/Ownable.sol\":3073:3081  oldOwner */\n      dup2\n        /* \"@openzeppelin/contracts/access/Ownable.sol\":3052:3092  OwnershipTransferred(oldOwner, newOwner) */\n      0xffffffffffffffffffffffffffffffffffffffff\n      and\n      0x8be0079c531659141344cd1fd0a4f28419497f9722a3daafe3b4186f6b6457e0\n      mload(0x40)\n      mload(0x40)\n      dup1\n      swap2\n      sub\n      swap1\n      log3\n        /* \"@openzeppelin/contracts/access/Ownable.sol\":2975:3099  {... */\n      pop\n        /* \"@openzeppelin/contracts/access/Ownable.sol\":2912:3099  function _transferOwnership(address newOwner) internal virtual {... */\n      pop\n      jump\t// out\n        /* \"@openzeppelin/contracts/token/ERC20/ERC20.sol\":6008:7115  function _update(address from, address to, uint256 value) internal virtual {... */\n    tag_216:\n        /* \"@openzeppelin/contracts/token/ERC20/ERC20.sol\":6113:6114  0 */\n      0x00\n        /* \"@openzeppelin/contracts/token/ERC20/ERC20.sol\":6097:6115  from == address(0) */\n      0xffffffffffffffffffffffffffffffffffffffff\n      and\n        /* \"@openzeppelin/contracts/token/ERC20/ERC20.sol\":6097:6101  from */\n      dup4\n        /* \"@openzeppelin/contracts/token/ERC20/ERC20.sol\":6097:6115  from == address(0) */\n      0xffffffffffffffffffffffffffffffffffffffff\n      and\n      sub\n        /* \"@openzeppelin/contracts/token/ERC20/ERC20.sol\":6093:6633  if (from == address(0)) {... */\n      tag_243\n      jumpi\n        /* \"@openzeppelin/contracts/token/ERC20/ERC20.sol\":6249:6254  value */\n      dup1\n        /* \"@openzeppelin/contracts/token/ERC20/ERC20.sol\":6233:6245  _totalSupply */\n      0x02\n      0x00\n        /* \"@openzeppelin/contracts/token/ERC20/ERC20.sol\":6233:6254  _totalSupply += value */\n      dup3\n      dup3\n      sload\n      tag_244\n      swap2\n      swap1\n      tag_120\n      jump\t// in\n    tag_244:\n      swap3\n      pop\n      pop\n      dup2\n      swap1\n      sstore\n      pop\n        /* \"@openzeppelin/contracts/token/ERC20/ERC20.sol\":6093:6633  if (from == address(0)) {... */\n      jump(tag_245)\n    tag_243:\n        /* \"@openzeppelin/contracts/token/ERC20/ERC20.sol\":6285:6304  uint256 fromBalance */\n      0x00\n        /* \"@openzeppelin/contracts/token/ERC20/ERC20.sol\":6307:6316  _balances */\n      0x00\n        /* \"@openzeppelin/contracts/token/ERC20/ERC20.sol\":6307:6322  _balances[from] */\n      0x00\n        /* \"@openzeppelin/contracts/token/ERC20/ERC20.sol\":6317:6321  from */\n      dup6\n        /* \"@openzeppelin/contracts/token/ERC20/ERC20.sol\":6307:6322  _balances[from] */\n      0xffffffffffffffffffffffffffffffffffffffff\n      and\n      0xffffffffffffffffffffffffffffffffffffffff\n      and\n      dup2\n      mstore\n      0x20\n      add\n      swap1\n      dup2\n      mstore\n      0x20\n      add\n      0x00\n      keccak256\n      sload\n        /* \"@openzeppelin/contracts/token/ERC20/ERC20.sol\":6285:6322  uint256 fromBalance = _balances[from] */\n      swap1\n      pop\n        /* \"@openzeppelin/contracts/token/ERC20/ERC20.sol\":6354:6359  value */\n      dup2\n        /* \"@openzeppelin/contracts/token/ERC20/ERC20.sol\":6340:6351  fromBalance */\n      dup2\n        /* \"@openzeppelin/contracts/token/ERC20/ERC20.sol\":6340:6359  fromBalance < value */\n      lt\n        /* \"@openzeppelin/contracts/token/ERC20/ERC20.sol\":6336:6451  if (fromBalance < value) {... */\n      iszero\n      tag_246\n      jumpi\n        /* \"@openzeppelin/contracts/token/ERC20/ERC20.sol\":6411:6415  from */\n      dup4\n        /* \"@openzeppelin/contracts/token/ERC20/ERC20.sol\":6417:6428  fromBalance */\n      dup2\n        /* \"@openzeppelin/contracts/token/ERC20/ERC20.sol\":6430:6435  value */\n      dup4\n        /* \"@openzeppelin/contracts/token/ERC20/ERC20.sol\":6386:6436  ERC20InsufficientBalance(from, fromBalance, value) */\n      mload(0x40)\n      0xe450d38c00000000000000000000000000000000000000000000000000000000\n      dup2\n      mstore\n      0x04\n      add\n      tag_247\n      swap4\n      swap3\n      swap2\n      swap1\n      tag_233\n      jump\t// in\n    tag_247:\n      mload(0x40)\n      dup1\n      swap2\n      sub\n      swap1\n      revert\n        /* \"@openzeppelin/contracts/token/ERC20/ERC20.sol\":6336:6451  if (fromBalance < value) {... */\n    tag_246:\n        /* \"@openzeppelin/contracts/token/ERC20/ERC20.sol\":6603:6608  value */\n      dup2\n        /* \"@openzeppelin/contracts/token/ERC20/ERC20.sol\":6589:6600  fromBalance */\n      dup2\n        /* \"@openzeppelin/contracts/token/ERC20/ERC20.sol\":6589:6608  fromBalance - value */\n      sub\n        /* \"@openzeppelin/contracts/token/ERC20/ERC20.sol\":6571:6580  _balances */\n      0x00\n        /* \"@openzeppelin/contracts/token/ERC20/ERC20.sol\":6571:6586  _balances[from] */\n      0x00\n        /* \"@openzeppelin/contracts/token/ERC20/ERC20.sol\":6581:6585  from */\n      dup7\n        /* \"@openzeppelin/contracts/token/ERC20/ERC20.sol\":6571:6586  _balances[from] */\n      0xffffffffffffffffffffffffffffffffffffffff\n      and\n      0xffffffffffffffffffffffffffffffffffffffff\n      and\n      dup2\n      mstore\n      0x20\n      add\n      swap1\n      dup2\n      mstore\n      0x20\n      add\n      0x00\n      keccak256\n        /* \"@openzeppelin/contracts/token/ERC20/ERC20.sol\":6571:6608  _balances[from] = fromBalance - value */\n      dup2\n      swap1\n      sstore\n      pop\n        /* \"@openzeppelin/contracts/token/ERC20/ERC20.sol\":6271:6633  {... */\n      pop\n        /* \"@openzeppelin/contracts/token/ERC20/ERC20.sol\":6093:6633  if (from == address(0)) {... */\n    tag_245:\n        /* \"@openzeppelin/contracts/token/ERC20/ERC20.sol\":6661:6662  0 */\n      0x00\n        /* \"@openzeppelin/contracts/token/ERC20/ERC20.sol\":6647:6663  to == address(0) */\n      0xffffffffffffffffffffffffffffffffffffffff\n      and\n        /* \"@openzeppelin/contracts/token/ERC20/ERC20.sol\":6647:6649  to */\n      dup3\n        /* \"@openzeppelin/contracts/token/ERC20/ERC20.sol\":6647:6663  to == address(0) */\n      0xffffffffffffffffffffffffffffffffffffffff\n      and\n      sub\n        /* \"@openzeppelin/contracts/token/ERC20/ERC20.sol\":6643:7068  if (to == address(0)) {... */\n      tag_248\n      jumpi\n        /* \"@openzeppelin/contracts/token/ERC20/ERC20.sol\":6826:6831  value */\n      dup1\n        /* \"@openzeppelin/contracts/token/ERC20/ERC20.sol\":6810:6822  _totalSupply */\n      0x02\n      0x00\n        /* \"@openzeppelin/contracts/token/ERC20/ERC20.sol\":6810:6831  _totalSupply -= value */\n      dup3\n      dup3\n      sload\n      sub\n      swap3\n      pop\n      pop\n      dup2\n      swap1\n      sstore\n      pop\n        /* \"@openzeppelin/contracts/token/ERC20/ERC20.sol\":6643:7068  if (to == address(0)) {... */\n      jump(tag_249)\n    tag_248:\n        /* \"@openzeppelin/contracts/token/ERC20/ERC20.sol\":7038:7043  value */\n      dup1\n        /* \"@openzeppelin/contracts/token/ERC20/ERC20.sol\":7021:7030  _balances */\n      0x00\n        /* \"@openzeppelin/contracts/token/ERC20/ERC20.sol\":7021:7034  _balances[to] */\n      0x00\n        /* \"@openzeppelin/contracts/token/ERC20/ERC20.sol\":7031:7033  to */\n      dup5\n        /* \"@openzeppelin/contracts/token/ERC20/ERC20.sol\":7021:7034  _balances[to] */\n      0xffffffffffffffffffffffffffffffffffffffff\n      and\n      0xffffffffffffffffffffffffffffffffffffffff\n      and\n      dup2\n      mstore\n      0x20\n      add\n      swap1\n      dup2\n      mstore\n      0x20\n      add\n      0x00\n      keccak256\n      0x00\n        /* \"@openzeppelin/contracts/token/ERC20/ERC20.sol\":7021:7043  _balances[to] += value */\n      dup3\n      dup3\n      sload\n      add\n      swap3\n      pop\n      pop\n      dup2\n      swap1\n      sstore\n      pop\n        /* \"@openzeppelin/contracts/token/ERC20/ERC20.sol\":6643:7068  if (to == address(0)) {... */\n    tag_249:\n        /* \"@openzeppelin/contracts/token/ERC20/ERC20.sol\":7098:7100  to */\n      dup2\n        /* \"@openzeppelin/contracts/token/ERC20/ERC20.sol\":7083:7108  Transfer(from, to, value) */\n      0xffffffffffffffffffffffffffffffffffffffff\n      and\n        /* \"@openzeppelin/contracts/token/ERC20/ERC20.sol\":7092:7096  from */\n      dup4\n        /* \"@openzeppelin/contracts/token/ERC20/ERC20.sol\":7083:7108  Transfer(from, to, value) */\n      0xffffffffffffffffffffffffffffffffffffffff\n      and\n      0xddf252ad1be2c89b69c2b068fc378daa952ba7f163c4a11628f55a4df523b3ef\n        /* \"@openzeppelin/contracts/token/ERC20/ERC20.sol\":7102:7107  value */\n      dup4\n        /* \"@openzeppelin/contracts/token/ERC20/ERC20.sol\":7083:7108  Transfer(from, to, value) */\n      mload(0x40)\n      tag_250\n      swap2\n      swap1\n      tag_48\n      jump\t// in\n    tag_250:\n      mload(0x40)\n      dup1\n      swap2\n      sub\n      swap1\n      log3\n        /* \"@openzeppelin/contracts/token/ERC20/ERC20.sol\":6008:7115  function _update(address from, address to, uint256 value) internal virtual {... */\n      pop\n      pop\n      pop\n      jump\t// out\n        /* \"@openzeppelin/contracts/token/ERC20/ERC20.sol\":9701:10133  function _approve(address owner, address spender, uint256 value, bool emitEvent) internal virtual {... */\n    tag_221:\n        /* \"@openzeppelin/contracts/token/ERC20/ERC20.sol\":9830:9831  0 */\n      0x00\n        /* \"@openzeppelin/contracts/token/ERC20/ERC20.sol\":9813:9832  owner == address(0) */\n      0xffffffffffffffffffffffffffffffffffffffff\n      and\n        /* \"@openzeppelin/contracts/token/ERC20/ERC20.sol\":9813:9818  owner */\n      dup5\n        /* \"@openzeppelin/contracts/token/ERC20/ERC20.sol\":9813:9832  owner == address(0) */\n      0xffffffffffffffffffffffffffffffffffffffff\n      and\n      sub\n        /* \"@openzeppelin/contracts/token/ERC20/ERC20.sol\":9809:9898  if (owner == address(0)) {... */\n      tag_252\n      jumpi\n        /* \"@openzeppelin/contracts/token/ERC20/ERC20.sol\":9884:9885  0 */\n      0x00\n        /* \"@openzeppelin/contracts/token/ERC20/ERC20.sol\":9855:9887  ERC20InvalidApprover(address(0)) */\n      mload(0x40)\n      0xe602df0500000000000000000000000000000000000000000000000000000000\n      dup2\n      mstore\n      0x04\n      add\n      tag_253\n      swap2\n      swap1\n      tag_82\n      jump\t// in\n    tag_253:\n      mload(0x40)\n      dup1\n      swap2\n      sub\n      swap1\n      revert\n        /* \"@openzeppelin/contracts/token/ERC20/ERC20.sol\":9809:9898  if (owner == address(0)) {... */\n    tag_252:\n        /* \"@openzeppelin/contracts/token/ERC20/ERC20.sol\":9930:9931  0 */\n      0x00\n        /* \"@openzeppelin/contracts/token/ERC20/ERC20.sol\":9911:9932  spender == address(0) */\n      0xffffffffffffffffffffffffffffffffffffffff\n      and\n        /* \"@openzeppelin/contracts/token/ERC20/ERC20.sol\":9911:9918  spender */\n      dup4\n        /* \"@openzeppelin/contracts/token/ERC20/ERC20.sol\":9911:9932  spender == address(0) */\n      0xffffffffffffffffffffffffffffffffffffffff\n      and\n      sub\n        /* \"@openzeppelin/contracts/token/ERC20/ERC20.sol\":9907:9997  if (spender == address(0)) {... */\n      tag_254\n      jumpi\n        /* \"@openzeppelin/contracts/token/ERC20/ERC20.sol\":9983:9984  0 */\n      0x00\n        /* \"@openzeppelin/contracts/token/ERC20/ERC20.sol\":9955:9986  ERC20InvalidSpender(address(0)) */\n      mload(0x40)\n      0x94280d6200000000000000000000000000000000000000000000000000000000\n      dup2\n      mstore\n      0x04\n      add\n      tag_255\n      swap2\n      swap1\n      tag_82\n      jump\t// in\n    tag_255:\n      mload(0x40)\n      dup1\n      swap2\n      sub\n      swap1\n      revert\n        /* \"@openzeppelin/contracts/token/ERC20/ERC20.sol\":9907:9997  if (spender == address(0)) {... */\n    tag_254:\n        /* \"@openzeppelin/contracts/token/ERC20/ERC20.sol\":10036:10041  value */\n      dup2\n        /* \"@openzeppelin/contracts/token/ERC20/ERC20.sol\":10006:10017  _allowances */\n      0x01\n        /* \"@openzeppelin/contracts/token/ERC20/ERC20.sol\":10006:10024  _allowances[owner] */\n      0x00\n        /* \"@openzeppelin/contracts/token/ERC20/ERC20.sol\":10018:10023  owner */\n      dup7\n        /* \"@openzeppelin/contracts/token/ERC20/ERC20.sol\":10006:10024  _allowances[owner] */\n      0xffffffffffffffffffffffffffffffffffffffff\n      and\n      0xffffffffffffffffffffffffffffffffffffffff\n      and\n      dup2\n      mstore\n      0x20\n      add\n      swap1\n      dup2\n      mstore\n      0x20\n      add\n      0x00\n      keccak256\n        /* \"@openzeppelin/contracts/token/ERC20/ERC20.sol\":10006:10033  _allowances[owner][spender] */\n      0x00\n        /* \"@openzeppelin/contracts/token/ERC20/ERC20.sol\":10025:10032  spender */\n      dup6\n        /* \"@openzeppelin/contracts/token/ERC20/ERC20.sol\":10006:10033  _allowances[owner][spender] */\n      0xffffffffffffffffffffffffffffffffffffffff\n      and\n      0xffffffffffffffffffffffffffffffffffffffff\n      and\n      dup2\n      mstore\n      0x20\n      add\n      swap1\n      dup2\n      mstore\n      0x20\n      add\n      0x00\n      keccak256\n        /* \"@openzeppelin/contracts/token/ERC20/ERC20.sol\":10006:10041  _allowances[owner][spender] = value */\n      dup2\n      swap1\n      sstore\n      pop\n        /* \"@openzeppelin/contracts/token/ERC20/ERC20.sol\":10055:10064  emitEvent */\n      dup1\n        /* \"@openzeppelin/contracts/token/ERC20/ERC20.sol\":10051:10127  if (emitEvent) {... */\n      iszero\n      tag_256\n      jumpi\n        /* \"@openzeppelin/contracts/token/ERC20/ERC20.sol\":10101:10108  spender */\n      dup3\n        /* \"@openzeppelin/contracts/token/ERC20/ERC20.sol\":10085:10116  Approval(owner, spender, value) */\n      0xffffffffffffffffffffffffffffffffffffffff\n      and\n        /* \"@openzeppelin/contracts/token/ERC20/ERC20.sol\":10094:10099  owner */\n      dup5\n        /* \"@openzeppelin/contracts/token/ERC20/ERC20.sol\":10085:10116  Approval(owner, spender, value) */\n      0xffffffffffffffffffffffffffffffffffffffff\n      and\n      0x8c5be1e5ebec7d5bd14f71427d1e84f3dd0314c0f7b2291e5b200ac8c7c3b925\n        /* \"@openzeppelin/contracts/token/ERC20/ERC20.sol\":10110:10115  value */\n      dup5\n        /* \"@openzeppelin/contracts/token/ERC20/ERC20.sol\":10085:10116  Approval(owner, spender, value) */\n      mload(0x40)\n      tag_257\n      swap2\n      swap1\n      tag_48\n      jump\t// in\n    tag_257:\n      mload(0x40)\n      dup1\n      swap2\n      sub\n      swap1\n      log3\n        /* \"@openzeppelin/contracts/token/ERC20/ERC20.sol\":10051:10127  if (emitEvent) {... */\n    tag_256:\n        /* \"@openzeppelin/contracts/token/ERC20/ERC20.sol\":9701:10133  function _approve(address owner, address spender, uint256 value, bool emitEvent) internal virtual {... */\n      pop\n      pop\n      pop\n      pop\n      jump\t// out\n        /* \"#utility.yul\":7:106   */\n    tag_258:\n        /* \"#utility.yul\":59:65   */\n      0x00\n        /* \"#utility.yul\":93:98   */\n      dup2\n        /* \"#utility.yul\":87:99   */\n      mload\n        /* \"#utility.yul\":77:99   */\n      swap1\n      pop\n        /* \"#utility.yul\":7:106   */\n      swap2\n      swap1\n      pop\n      jump\t// out\n        /* \"#utility.yul\":112:281   */\n    tag_259:\n        /* \"#utility.yul\":196:207   */\n      0x00\n        /* \"#utility.yul\":230:236   */\n      dup3\n        /* \"#utility.yul\":225:228   */\n      dup3\n        /* \"#utility.yul\":218:237   */\n      mstore\n        /* \"#utility.yul\":270:274   */\n      0x20\n        /* \"#utility.yul\":265:268   */\n      dup3\n        /* \"#utility.yul\":261:275   */\n      add\n        /* \"#utility.yul\":246:275   */\n      swap1\n      pop\n        /* \"#utility.yul\":112:281   */\n      swap3\n      swap2\n      pop\n      pop\n      jump\t// out\n        /* \"#utility.yul\":287:426   */\n    tag_260:\n        /* \"#utility.yul\":376:382   */\n      dup3\n        /* \"#utility.yul\":371:374   */\n      dup2\n        /* \"#utility.yul\":366:369   */\n      dup4\n        /* \"#utility.yul\":360:383   */\n      mcopy\n        /* \"#utility.yul\":417:418   */\n      0x00\n        /* \"#utility.yul\":408:414   */\n      dup4\n        /* \"#utility.yul\":403:406   */\n      dup4\n        /* \"#utility.yul\":399:415   */\n      add\n        /* \"#utility.yul\":392:419   */\n      mstore\n        /* \"#utility.yul\":287:426   */\n      pop\n      pop\n      pop\n      jump\t// out\n        /* \"#utility.yul\":432:534   */\n    tag_261:\n        /* \"#utility.yul\":473:479   */\n      0x00\n        /* \"#utility.yul\":524:526   */\n      0x1f\n        /* \"#utility.yul\":520:527   */\n      not\n        /* \"#utility.yul\":515:517   */\n      0x1f\n        /* \"#utility.yul\":508:513   */\n      dup4\n        /* \"#utility.yul\":504:518   */\n      add\n        /* \"#utility.yul\":500:528   */\n      and\n        /* \"#utility.yul\":490:528   */\n      swap1\n      pop\n        /* \"#utility.yul\":432:534   */\n      swap2\n      swap1\n      pop\n      jump\t// out\n        /* \"#utility.yul\":540:917   */\n    tag_262:\n        /* \"#utility.yul\":628:631   */\n      0x00\n        /* \"#utility.yul\":656:695   */\n      tag_306\n        /* \"#utility.yul\":689:694   */\n      dup3\n        /* \"#utility.yul\":656:695   */\n      tag_258\n      jump\t// in\n    tag_306:\n        /* \"#utility.yul\":711:782   */\n      tag_307\n        /* \"#utility.yul\":775:781   */\n      dup2\n        /* \"#utility.yul\":770:773   */\n      dup6\n        /* \"#utility.yul\":711:782   */\n      tag_259\n      jump\t// in\n    tag_307:\n        /* \"#utility.yul\":704:782   */\n      swap4\n      pop\n        /* \"#utility.yul\":791:856   */\n      tag_308\n        /* \"#utility.yul\":849:855   */\n      dup2\n        /* \"#utility.yul\":844:847   */\n      dup6\n        /* \"#utility.yul\":837:841   */\n      0x20\n        /* \"#utility.yul\":830:835   */\n      dup7\n        /* \"#utility.yul\":826:842   */\n      add\n        /* \"#utility.yul\":791:856   */\n      tag_260\n      jump\t// in\n    tag_308:\n        /* \"#utility.yul\":881:910   */\n      tag_309\n        /* \"#utility.yul\":903:909   */\n      dup2\n        /* \"#utility.yul\":881:910   */\n      tag_261\n      jump\t// in\n    tag_309:\n        /* \"#utility.yul\":876:879   */\n      dup5\n        /* \"#utility.yul\":872:911   */\n      add\n        /* \"#utility.yul\":865:911   */\n      swap2\n      pop\n        /* \"#utility.yul\":632:917   */\n      pop\n        /* \"#utility.yul\":540:917   */\n      swap3\n      swap2\n      pop\n      pop\n      jump\t// out\n        /* \"#utility.yul\":923:1236   */\n    tag_31:\n        /* \"#utility.yul\":1036:1040   */\n      0x00\n        /* \"#utility.yul\":1074:1076   */\n      0x20\n        /* \"#utility.yul\":1063:1072   */\n      dup3\n        /* \"#utility.yul\":1059:1077   */\n      add\n        /* \"#utility.yul\":1051:1077   */\n      swap1\n      pop\n        /* \"#utility.yul\":1123:1132   */\n      dup2\n        /* \"#utility.yul\":1117:1121   */\n      dup2\n        /* \"#utility.yul\":1113:1133   */\n      sub\n        /* \"#utility.yul\":1109:1110   */\n      0x00\n        /* \"#utility.yul\":1098:1107   */\n      dup4\n        /* \"#utility.yul\":1094:1111   */\n      add\n        /* \"#utility.yul\":1087:1134   */\n      mstore\n        /* \"#utility.yul\":1151:1229   */\n      tag_311\n        /* \"#utility.yul\":1224:1228   */\n      dup2\n        /* \"#utility.yul\":1215:1221   */\n      dup5\n        /* \"#utility.yul\":1151:1229   */\n      tag_262\n      jump\t// in\n    tag_311:\n        /* \"#utility.yul\":1143:1229   */\n      swap1\n      pop\n        /* \"#utility.yul\":923:1236   */\n      swap3\n      swap2\n      pop\n      pop\n      jump\t// out\n        /* \"#utility.yul\":1323:1440   */\n    tag_264:\n        /* \"#utility.yul\":1432:1433   */\n      0x00\n        /* \"#utility.yul\":1429:1430   */\n      0x00\n        /* \"#utility.yul\":1422:1434   */\n      revert\n        /* \"#utility.yul\":1569:1695   */\n    tag_266:\n        /* \"#utility.yul\":1606:1613   */\n      0x00\n        /* \"#utility.yul\":1646:1688   */\n      0xffffffffffffffffffffffffffffffffffffffff\n        /* \"#utility.yul\":1639:1644   */\n      dup3\n        /* \"#utility.yul\":1635:1689   */\n      and\n        /* \"#utility.yul\":1624:1689   */\n      swap1\n      pop\n        /* \"#utility.yul\":1569:1695   */\n      swap2\n      swap1\n      pop\n      jump\t// out\n        /* \"#utility.yul\":1701:1797   */\n    tag_267:\n        /* \"#utility.yul\":1738:1745   */\n      0x00\n        /* \"#utility.yul\":1767:1791   */\n      tag_317\n        /* \"#utility.yul\":1785:1790   */\n      dup3\n        /* \"#utility.yul\":1767:1791   */\n      tag_266\n      jump\t// in\n    tag_317:\n        /* \"#utility.yul\":1756:1791   */\n      swap1\n      pop\n        /* \"#utility.yul\":1701:1797   */\n      swap2\n      swap1\n      pop\n      jump\t// out\n        /* \"#utility.yul\":1803:1925   */\n    tag_268:\n        /* \"#utility.yul\":1876:1900   */\n      tag_319\n        /* \"#utility.yul\":1894:1899   */\n      dup2\n        /* \"#utility.yul\":1876:1900   */\n      tag_267\n      jump\t// in\n    tag_319:\n        /* \"#utility.yul\":1869:1874   */\n      dup2\n        /* \"#utility.yul\":1866:1901   */\n      eq\n        /* \"#utility.yul\":1856:1919   */\n      tag_320\n      jumpi\n        /* \"#utility.yul\":1915:1916   */\n      0x00\n        /* \"#utility.yul\":1912:1913   */\n      0x00\n        /* \"#utility.yul\":1905:1917   */\n      revert\n        /* \"#utility.yul\":1856:1919   */\n    tag_320:\n        /* \"#utility.yul\":1803:1925   */\n      pop\n      jump\t// out\n        /* \"#utility.yul\":1931:2070   */\n    tag_269:\n        /* \"#utility.yul\":1977:1982   */\n      0x00\n        /* \"#utility.yul\":2015:2021   */\n      dup2\n        /* \"#utility.yul\":2002:2022   */\n      calldataload\n        /* \"#utility.yul\":1993:2022   */\n      swap1\n      pop\n        /* \"#utility.yul\":2031:2064   */\n      tag_322\n        /* \"#utility.yul\":2058:2063   */\n      dup2\n        /* \"#utility.yul\":2031:2064   */\n      tag_268\n      jump\t// in\n    tag_322:\n        /* \"#utility.yul\":1931:2070   */\n      swap3\n      swap2\n      pop\n      pop\n      jump\t// out\n        /* \"#utility.yul\":2076:2153   */\n    tag_270:\n        /* \"#utility.yul\":2113:2120   */\n      0x00\n        /* \"#utility.yul\":2142:2147   */\n      dup2\n        /* \"#utility.yul\":2131:2147   */\n      swap1\n      pop\n        /* \"#utility.yul\":2076:2153   */\n      swap2\n      swap1\n      pop\n      jump\t// out\n        /* \"#utility.yul\":2159:2281   */\n    tag_271:\n        /* \"#utility.yul\":2232:2256   */\n      tag_325\n        /* \"#utility.yul\":2250:2255   */\n      dup2\n        /* \"#utility.yul\":2232:2256   */\n      tag_270\n      jump\t// in\n    tag_325:\n        /* \"#utility.yul\":2225:2230   */\n      dup2\n        /* \"#utility.yul\":2222:2257   */\n      eq\n        /* \"#utility.yul\":2212:2275   */\n      tag_326\n      jumpi\n        /* \"#utility.yul\":2271:2272   */\n      0x00\n        /* \"#utility.yul\":2268:2269   */\n      0x00\n        /* \"#utility.yul\":2261:2273   */\n      revert\n        /* \"#utility.yul\":2212:2275   */\n    tag_326:\n        /* \"#utility.yul\":2159:2281   */\n      pop\n      jump\t// out\n        /* \"#utility.yul\":2287:2426   */\n    tag_272:\n        /* \"#utility.yul\":2333:2338   */\n      0x00\n        /* \"#utility.yul\":2371:2377   */\n      dup2\n        /* \"#utility.yul\":2358:2378   */\n      calldataload\n        /* \"#utility.yul\":2349:2378   */\n      swap1\n      pop\n        /* \"#utility.yul\":2387:2420   */\n      tag_328\n        /* \"#utility.yul\":2414:2419   */\n      dup2\n        /* \"#utility.yul\":2387:2420   */\n      tag_271\n      jump\t// in\n    tag_328:\n        /* \"#utility.yul\":2287:2426   */\n      swap3\n      swap2\n      pop\n      pop\n      jump\t// out\n        /* \"#utility.yul\":2432:2906   */\n    tag_35:\n        /* \"#utility.yul\":2500:2506   */\n      0x00\n        /* \"#utility.yul\":2508:2514   */\n      0x00\n        /* \"#utility.yul\":2557:2559   */\n      0x40\n        /* \"#utility.yul\":2545:2554   */\n      dup4\n        /* \"#utility.yul\":2536:2543   */\n      dup6\n        /* \"#utility.yul\":2532:2555   */\n      sub\n        /* \"#utility.yul\":2528:2560   */\n      slt\n        /* \"#utility.yul\":2525:2644   */\n      iszero\n      tag_330\n      jumpi\n        /* \"#utility.yul\":2563:2642   */\n      tag_331\n      tag_264\n      jump\t// in\n    tag_331:\n        /* \"#utility.yul\":2525:2644   */\n    tag_330:\n        /* \"#utility.yul\":2683:2684   */\n      0x00\n        /* \"#utility.yul\":2708:2761   */\n      tag_332\n        /* \"#utility.yul\":2753:2760   */\n      dup6\n        /* \"#utility.yul\":2744:2750   */\n      dup3\n        /* \"#utility.yul\":2733:2742   */\n      dup7\n        /* \"#utility.yul\":2729:2751   */\n      add\n        /* \"#utility.yul\":2708:2761   */\n      tag_269\n      jump\t// in\n    tag_332:\n        /* \"#utility.yul\":2698:2761   */\n      swap3\n      pop\n        /* \"#utility.yul\":2654:2771   */\n      pop\n        /* \"#utility.yul\":2810:2812   */\n      0x20\n        /* \"#utility.yul\":2836:2889   */\n      tag_333\n        /* \"#utility.yul\":2881:2888   */\n      dup6\n        /* \"#utility.yul\":2872:2878   */\n      dup3\n        /* \"#utility.yul\":2861:2870   */\n      dup7\n        /* \"#utility.yul\":2857:2879   */\n      add\n        /* \"#utility.yul\":2836:2889   */\n      tag_272\n      jump\t// in\n    tag_333:\n        /* \"#utility.yul\":2826:2889   */\n      swap2\n      pop\n        /* \"#utility.yul\":2781:2899   */\n      pop\n        /* \"#utility.yul\":2432:2906   */\n      swap3\n      pop\n      swap3\n      swap1\n      pop\n      jump\t// out\n        /* \"#utility.yul\":2912:3002   */\n    tag_273:\n        /* \"#utility.yul\":2946:2953   */\n      0x00\n        /* \"#utility.yul\":2989:2994   */\n      dup2\n        /* \"#utility.yul\":2982:2995   */\n      iszero\n        /* \"#utility.yul\":2975:2996   */\n      iszero\n        /* \"#utility.yul\":2964:2996   */\n      swap1\n      pop\n        /* \"#utility.yul\":2912:3002   */\n      swap2\n      swap1\n      pop\n      jump\t// out\n        /* \"#utility.yul\":3008:3117   */\n    tag_274:\n        /* \"#utility.yul\":3089:3110   */\n      tag_336\n        /* \"#utility.yul\":3104:3109   */\n      dup2\n        /* \"#utility.yul\":3089:3110   */\n      tag_273\n      jump\t// in\n    tag_336:\n        /* \"#utility.yul\":3084:3087   */\n      dup3\n        /* \"#utility.yul\":3077:3111   */\n      mstore\n        /* \"#utility.yul\":3008:3117   */\n      pop\n      pop\n      jump\t// out\n        /* \"#utility.yul\":3123:3333   */\n    tag_38:\n        /* \"#utility.yul\":3210:3214   */\n      0x00\n        /* \"#utility.yul\":3248:3250   */\n      0x20\n        /* \"#utility.yul\":3237:3246   */\n      dup3\n        /* \"#utility.yul\":3233:3251   */\n      add\n        /* \"#utility.yul\":3225:3251   */\n      swap1\n      pop\n        /* \"#utility.yul\":3261:3326   */\n      tag_338\n        /* \"#utility.yul\":3323:3324   */\n      0x00\n        /* \"#utility.yul\":3312:3321   */\n      dup4\n        /* \"#utility.yul\":3308:3325   */\n      add\n        /* \"#utility.yul\":3299:3305   */\n      dup5\n        /* \"#utility.yul\":3261:3326   */\n      tag_274\n      jump\t// in\n    tag_338:\n        /* \"#utility.yul\":3123:3333   */\n      swap3\n      swap2\n      pop\n      pop\n      jump\t// out\n        /* \"#utility.yul\":3339:3668   */\n    tag_42:\n        /* \"#utility.yul\":3398:3404   */\n      0x00\n        /* \"#utility.yul\":3447:3449   */\n      0x20\n        /* \"#utility.yul\":3435:3444   */\n      dup3\n        /* \"#utility.yul\":3426:3433   */\n      dup5\n        /* \"#utility.yul\":3422:3445   */\n      sub\n        /* \"#utility.yul\":3418:3450   */\n      slt\n        /* \"#utility.yul\":3415:3534   */\n      iszero\n      tag_340\n      jumpi\n        /* \"#utility.yul\":3453:3532   */\n      tag_341\n      tag_264\n      jump\t// in\n    tag_341:\n        /* \"#utility.yul\":3415:3534   */\n    tag_340:\n        /* \"#utility.yul\":3573:3574   */\n      0x00\n        /* \"#utility.yul\":3598:3651   */\n      tag_342\n        /* \"#utility.yul\":3643:3650   */\n      dup5\n        /* \"#utility.yul\":3634:3640   */\n      dup3\n        /* \"#utility.yul\":3623:3632   */\n      dup6\n        /* \"#utility.yul\":3619:3641   */\n      add\n        /* \"#utility.yul\":3598:3651   */\n      tag_272\n      jump\t// in\n    tag_342:\n        /* \"#utility.yul\":3588:3651   */\n      swap2\n      pop\n        /* \"#utility.yul\":3544:3661   */\n      pop\n        /* \"#utility.yul\":3339:3668   */\n      swap3\n      swap2\n      pop\n      pop\n      jump\t// out\n        /* \"#utility.yul\":3674:3792   */\n    tag_275:\n        /* \"#utility.yul\":3761:3785   */\n      tag_344\n        /* \"#utility.yul\":3779:3784   */\n      dup2\n        /* \"#utility.yul\":3761:3785   */\n      tag_270\n      jump\t// in\n    tag_344:\n        /* \"#utility.yul\":3756:3759   */\n      dup3\n        /* \"#utility.yul\":3749:3786   */\n      mstore\n        /* \"#utility.yul\":3674:3792   */\n      pop\n      pop\n      jump\t// out\n        /* \"#utility.yul\":3798:4020   */\n    tag_48:\n        /* \"#utility.yul\":3891:3895   */\n      0x00\n        /* \"#utility.yul\":3929:3931   */\n      0x20\n        /* \"#utility.yul\":3918:3927   */\n      dup3\n        /* \"#utility.yul\":3914:3932   */\n      add\n        /* \"#utility.yul\":3906:3932   */\n      swap1\n      pop\n        /* \"#utility.yul\":3942:4013   */\n      tag_346\n        /* \"#utility.yul\":4010:4011   */\n      0x00\n        /* \"#utility.yul\":3999:4008   */\n      dup4\n        /* \"#utility.yul\":3995:4012   */\n      add\n        /* \"#utility.yul\":3986:3992   */\n      dup5\n        /* \"#utility.yul\":3942:4013   */\n      tag_275\n      jump\t// in\n    tag_346:\n        /* \"#utility.yul\":3798:4020   */\n      swap3\n      swap2\n      pop\n      pop\n      jump\t// out\n        /* \"#utility.yul\":4026:4645   */\n    tag_53:\n        /* \"#utility.yul\":4103:4109   */\n      0x00\n        /* \"#utility.yul\":4111:4117   */\n      0x00\n        /* \"#utility.yul\":4119:4125   */\n      0x00\n        /* \"#utility.yul\":4168:4170   */\n      0x60\n        /* \"#utility.yul\":4156:4165   */\n      dup5\n        /* \"#utility.yul\":4147:4154   */\n      dup7\n        /* \"#utility.yul\":4143:4166   */\n      sub\n        /* \"#utility.yul\":4139:4171   */\n      slt\n        /* \"#utility.yul\":4136:4255   */\n      iszero\n      tag_348\n      jumpi\n        /* \"#utility.yul\":4174:4253   */\n      tag_349\n      tag_264\n      jump\t// in\n    tag_349:\n        /* \"#utility.yul\":4136:4255   */\n    tag_348:\n        /* \"#utility.yul\":4294:4295   */\n      0x00\n        /* \"#utility.yul\":4319:4372   */\n      tag_350\n        /* \"#utility.yul\":4364:4371   */\n      dup7\n        /* \"#utility.yul\":4355:4361   */\n      dup3\n        /* \"#utility.yul\":4344:4353   */\n      dup8\n        /* \"#utility.yul\":4340:4362   */\n      add\n        /* \"#utility.yul\":4319:4372   */\n      tag_269\n      jump\t// in\n    tag_350:\n        /* \"#utility.yul\":4309:4372   */\n      swap4\n      pop\n        /* \"#utility.yul\":4265:4382   */\n      pop\n        /* \"#utility.yul\":4421:4423   */\n      0x20\n        /* \"#utility.yul\":4447:4500   */\n      tag_351\n        /* \"#utility.yul\":4492:4499   */\n      dup7\n        /* \"#utility.yul\":4483:4489   */\n      dup3\n        /* \"#utility.yul\":4472:4481   */\n      dup8\n        /* \"#utility.yul\":4468:4490   */\n      add\n        /* \"#utility.yul\":4447:4500   */\n      tag_269\n      jump\t// in\n    tag_351:\n        /* \"#utility.yul\":4437:4500   */\n      swap3\n      pop\n        /* \"#utility.yul\":4392:4510   */\n      pop\n        /* \"#utility.yul\":4549:4551   */\n      0x40\n        /* \"#utility.yul\":4575:4628   */\n      tag_352\n        /* \"#utility.yul\":4620:4627   */\n      dup7\n        /* \"#utility.yul\":4611:4617   */\n      dup3\n        /* \"#utility.yul\":4600:4609   */\n      dup8\n        /* \"#utility.yul\":4596:4618   */\n      add\n        /* \"#utility.yul\":4575:4628   */\n      tag_272\n      jump\t// in\n    tag_352:\n        /* \"#utility.yul\":4565:4628   */\n      swap2\n      pop\n        /* \"#utility.yul\":4520:4638   */\n      pop\n        /* \"#utility.yul\":4026:4645   */\n      swap3\n      pop\n      swap3\n      pop\n      swap3\n      jump\t// out\n        /* \"#utility.yul\":4651:4737   */\n    tag_276:\n        /* \"#utility.yul\":4686:4693   */\n      0x00\n        /* \"#utility.yul\":4726:4730   */\n      0xff\n        /* \"#utility.yul\":4719:4724   */\n      dup3\n        /* \"#utility.yul\":4715:4731   */\n      and\n        /* \"#utility.yul\":4704:4731   */\n      swap1\n      pop\n        /* \"#utility.yul\":4651:4737   */\n      swap2\n      swap1\n      pop\n      jump\t// out\n        /* \"#utility.yul\":4743:4855   */\n    tag_277:\n        /* \"#utility.yul\":4826:4848   */\n      tag_355\n        /* \"#utility.yul\":4842:4847   */\n      dup2\n        /* \"#utility.yul\":4826:4848   */\n      tag_276\n      jump\t// in\n    tag_355:\n        /* \"#utility.yul\":4821:4824   */\n      dup3\n        /* \"#utility.yul\":4814:4849   */\n      mstore\n        /* \"#utility.yul\":4743:4855   */\n      pop\n      pop\n      jump\t// out\n        /* \"#utility.yul\":4861:5075   */\n    tag_60:\n        /* \"#utility.yul\":4950:4954   */\n      0x00\n        /* \"#utility.yul\":4988:4990   */\n      0x20\n        /* \"#utility.yul\":4977:4986   */\n      dup3\n        /* \"#utility.yul\":4973:4991   */\n      add\n        /* \"#utility.yul\":4965:4991   */\n      swap1\n      pop\n        /* \"#utility.yul\":5001:5068   */\n      tag_357\n        /* \"#utility.yul\":5065:5066   */\n      0x00\n        /* \"#utility.yul\":5054:5063   */\n      dup4\n        /* \"#utility.yul\":5050:5067   */\n      add\n        /* \"#utility.yul\":5041:5047   */\n      dup5\n        /* \"#utility.yul\":5001:5068   */\n      tag_277\n      jump\t// in\n    tag_357:\n        /* \"#utility.yul\":4861:5075   */\n      swap3\n      swap2\n      pop\n      pop\n      jump\t// out\n        /* \"#utility.yul\":5081:5410   */\n    tag_68:\n        /* \"#utility.yul\":5140:5146   */\n      0x00\n        /* \"#utility.yul\":5189:5191   */\n      0x20\n        /* \"#utility.yul\":5177:5186   */\n      dup3\n        /* \"#utility.yul\":5168:5175   */\n      dup5\n        /* \"#utility.yul\":5164:5187   */\n      sub\n        /* \"#utility.yul\":5160:5192   */\n      slt\n        /* \"#utility.yul\":5157:5276   */\n      iszero\n      tag_359\n      jumpi\n        /* \"#utility.yul\":5195:5274   */\n      tag_360\n      tag_264\n      jump\t// in\n    tag_360:\n        /* \"#utility.yul\":5157:5276   */\n    tag_359:\n        /* \"#utility.yul\":5315:5316   */\n      0x00\n        /* \"#utility.yul\":5340:5393   */\n      tag_361\n        /* \"#utility.yul\":5385:5392   */\n      dup5\n        /* \"#utility.yul\":5376:5382   */\n      dup3\n        /* \"#utility.yul\":5365:5374   */\n      dup6\n        /* \"#utility.yul\":5361:5383   */\n      add\n        /* \"#utility.yul\":5340:5393   */\n      tag_269\n      jump\t// in\n    tag_361:\n        /* \"#utility.yul\":5330:5393   */\n      swap2\n      pop\n        /* \"#utility.yul\":5286:5403   */\n      pop\n        /* \"#utility.yul\":5081:5410   */\n      swap3\n      swap2\n      pop\n      pop\n      jump\t// out\n        /* \"#utility.yul\":5416:5534   */\n    tag_278:\n        /* \"#utility.yul\":5503:5527   */\n      tag_363\n        /* \"#utility.yul\":5521:5526   */\n      dup2\n        /* \"#utility.yul\":5503:5527   */\n      tag_267\n      jump\t// in\n    tag_363:\n        /* \"#utility.yul\":5498:5501   */\n      dup3\n        /* \"#utility.yul\":5491:5528   */\n      mstore\n        /* \"#utility.yul\":5416:5534   */\n      pop\n      pop\n      jump\t// out\n        /* \"#utility.yul\":5540:5762   */\n    tag_82:\n        /* \"#utility.yul\":5633:5637   */\n      0x00\n        /* \"#utility.yul\":5671:5673   */\n      0x20\n        /* \"#utility.yul\":5660:5669   */\n      dup3\n        /* \"#utility.yul\":5656:5674   */\n      add\n        /* \"#utility.yul\":5648:5674   */\n      swap1\n      pop\n        /* \"#utility.yul\":5684:5755   */\n      tag_365\n        /* \"#utility.yul\":5752:5753   */\n      0x00\n        /* \"#utility.yul\":5741:5750   */\n      dup4\n        /* \"#utility.yul\":5737:5754   */\n      add\n        /* \"#utility.yul\":5728:5734   */\n      dup5\n        /* \"#utility.yul\":5684:5755   */\n      tag_278\n      jump\t// in\n    tag_365:\n        /* \"#utility.yul\":5540:5762   */\n      swap3\n      swap2\n      pop\n      pop\n      jump\t// out\n        /* \"#utility.yul\":5768:6242   */\n    tag_99:\n        /* \"#utility.yul\":5836:5842   */\n      0x00\n        /* \"#utility.yul\":5844:5850   */\n      0x00\n        /* \"#utility.yul\":5893:5895   */\n      0x40\n        /* \"#utility.yul\":5881:5890   */\n      dup4\n        /* \"#utility.yul\":5872:5879   */\n      dup6\n        /* \"#utility.yul\":5868:5891   */\n      sub\n        /* \"#utility.yul\":5864:5896   */\n      slt\n        /* \"#utility.yul\":5861:5980   */\n      iszero\n      tag_367\n      jumpi\n        /* \"#utility.yul\":5899:5978   */\n      tag_368\n      tag_264\n      jump\t// in\n    tag_368:\n        /* \"#utility.yul\":5861:5980   */\n    tag_367:\n        /* \"#utility.yul\":6019:6020   */\n      0x00\n        /* \"#utility.yul\":6044:6097   */\n      tag_369\n        /* \"#utility.yul\":6089:6096   */\n      dup6\n        /* \"#utility.yul\":6080:6086   */\n      dup3\n        /* \"#utility.yul\":6069:6078   */\n      dup7\n        /* \"#utility.yul\":6065:6087   */\n      add\n        /* \"#utility.yul\":6044:6097   */\n      tag_269\n      jump\t// in\n    tag_369:\n        /* \"#utility.yul\":6034:6097   */\n      swap3\n      pop\n        /* \"#utility.yul\":5990:6107   */\n      pop\n        /* \"#utility.yul\":6146:6148   */\n      0x20\n        /* \"#utility.yul\":6172:6225   */\n      tag_370\n        /* \"#utility.yul\":6217:6224   */\n      dup6\n        /* \"#utility.yul\":6208:6214   */\n      dup3\n        /* \"#utility.yul\":6197:6206   */\n      dup7\n        /* \"#utility.yul\":6193:6215   */\n      add\n        /* \"#utility.yul\":6172:6225   */\n      tag_269\n      jump\t// in\n    tag_370:\n        /* \"#utility.yul\":6162:6225   */\n      swap2\n      pop\n        /* \"#utility.yul\":6117:6235   */\n      pop\n        /* \"#utility.yul\":5768:6242   */\n      swap3\n      pop\n      swap3\n      swap1\n      pop\n      jump\t// out\n        /* \"#utility.yul\":6248:6417   */\n    tag_279:\n        /* \"#utility.yul\":6388:6409   */\n      0x4e6f7420656e6f756768204554482073656e7400000000000000000000000000\n        /* \"#utility.yul\":6384:6385   */\n      0x00\n        /* \"#utility.yul\":6376:6382   */\n      dup3\n        /* \"#utility.yul\":6372:6386   */\n      add\n        /* \"#utility.yul\":6365:6410   */\n      mstore\n        /* \"#utility.yul\":6248:6417   */\n      pop\n      jump\t// out\n        /* \"#utility.yul\":6423:6789   */\n    tag_280:\n        /* \"#utility.yul\":6565:6568   */\n      0x00\n        /* \"#utility.yul\":6586:6653   */\n      tag_373\n        /* \"#utility.yul\":6650:6652   */\n      0x13\n        /* \"#utility.yul\":6645:6648   */\n      dup4\n        /* \"#utility.yul\":6586:6653   */\n      tag_259\n      jump\t// in\n    tag_373:\n        /* \"#utility.yul\":6579:6653   */\n      swap2\n      pop\n        /* \"#utility.yul\":6662:6755   */\n      tag_374\n        /* \"#utility.yul\":6751:6754   */\n      dup3\n        /* \"#utility.yul\":6662:6755   */\n      tag_279\n      jump\t// in\n    tag_374:\n        /* \"#utility.yul\":6780:6782   */\n      0x20\n        /* \"#utility.yul\":6775:6778   */\n      dup3\n        /* \"#utility.yul\":6771:6783   */\n      add\n        /* \"#utility.yul\":6764:6783   */\n      swap1\n      pop\n        /* \"#utility.yul\":6423:6789   */\n      swap2\n      swap1\n      pop\n      jump\t// out\n        /* \"#utility.yul\":6795:7214   */\n    tag_112:\n        /* \"#utility.yul\":6961:6965   */\n      0x00\n        /* \"#utility.yul\":6999:7001   */\n      0x20\n        /* \"#utility.yul\":6988:6997   */\n      dup3\n        /* \"#utility.yul\":6984:7002   */\n      add\n        /* \"#utility.yul\":6976:7002   */\n      swap1\n      pop\n        /* \"#utility.yul\":7048:7057   */\n      dup2\n        /* \"#utility.yul\":7042:7046   */\n      dup2\n        /* \"#utility.yul\":7038:7058   */\n      sub\n        /* \"#utility.yul\":7034:7035   */\n      0x00\n        /* \"#utility.yul\":7023:7032   */\n      dup4\n        /* \"#utility.yul\":7019:7036   */\n      add\n        /* \"#utility.yul\":7012:7059   */\n      mstore\n        /* \"#utility.yul\":7076:7207   */\n      tag_376\n        /* \"#utility.yul\":7202:7206   */\n      dup2\n        /* \"#utility.yul\":7076:7207   */\n      tag_280\n      jump\t// in\n    tag_376:\n        /* \"#utility.yul\":7068:7207   */\n      swap1\n      pop\n        /* \"#utility.yul\":6795:7214   */\n      swap2\n      swap1\n      pop\n      jump\t// out\n        /* \"#utility.yul\":7220:7400   */\n    tag_281:\n        /* \"#utility.yul\":7268:7345   */\n      0x4e487b7100000000000000000000000000000000000000000000000000000000\n        /* \"#utility.yul\":7265:7266   */\n      0x00\n        /* \"#utility.yul\":7258:7346   */\n      mstore\n        /* \"#utility.yul\":7365:7369   */\n      0x12\n        /* \"#utility.yul\":7362:7363   */\n      0x04\n        /* \"#utility.yul\":7355:7370   */\n      mstore\n        /* \"#utility.yul\":7389:7393   */\n      0x24\n        /* \"#utility.yul\":7386:7387   */\n      0x00\n        /* \"#utility.yul\":7379:7394   */\n      revert\n        /* \"#utility.yul\":7406:7586   */\n    tag_282:\n        /* \"#utility.yul\":7454:7531   */\n      0x4e487b7100000000000000000000000000000000000000000000000000000000\n        /* \"#utility.yul\":7451:7452   */\n      0x00\n        /* \"#utility.yul\":7444:7532   */\n      mstore\n        /* \"#utility.yul\":7551:7555   */\n      0x11\n        /* \"#utility.yul\":7548:7549   */\n      0x04\n        /* \"#utility.yul\":7541:7556   */\n      mstore\n        /* \"#utility.yul\":7575:7579   */\n      0x24\n        /* \"#utility.yul\":7572:7573   */\n      0x00\n        /* \"#utility.yul\":7565:7580   */\n      revert\n        /* \"#utility.yul\":7592:7777   */\n    tag_114:\n        /* \"#utility.yul\":7632:7633   */\n      0x00\n        /* \"#utility.yul\":7649:7669   */\n      tag_380\n        /* \"#utility.yul\":7667:7668   */\n      dup3\n        /* \"#utility.yul\":7649:7669   */\n      tag_270\n      jump\t// in\n    tag_380:\n        /* \"#utility.yul\":7644:7669   */\n      swap2\n      pop\n        /* \"#utility.yul\":7683:7703   */\n      tag_381\n        /* \"#utility.yul\":7701:7702   */\n      dup4\n        /* \"#utility.yul\":7683:7703   */\n      tag_270\n      jump\t// in\n    tag_381:\n        /* \"#utility.yul\":7678:7703   */\n      swap3\n      pop\n        /* \"#utility.yul\":7722:7723   */\n      dup3\n        /* \"#utility.yul\":7712:7747   */\n      tag_382\n      jumpi\n        /* \"#utility.yul\":7727:7745   */\n      tag_383\n      tag_281\n      jump\t// in\n    tag_383:\n        /* \"#utility.yul\":7712:7747   */\n    tag_382:\n        /* \"#utility.yul\":7769:7770   */\n      dup3\n        /* \"#utility.yul\":7766:7767   */\n      dup3\n        /* \"#utility.yul\":7762:7771   */\n      div\n        /* \"#utility.yul\":7757:7771   */\n      swap1\n      pop\n        /* \"#utility.yul\":7592:7777   */\n      swap3\n      swap2\n      pop\n      pop\n      jump\t// out\n        /* \"#utility.yul\":7783:8193   */\n    tag_116:\n        /* \"#utility.yul\":7823:7830   */\n      0x00\n        /* \"#utility.yul\":7846:7866   */\n      tag_385\n        /* \"#utility.yul\":7864:7865   */\n      dup3\n        /* \"#utility.yul\":7846:7866   */\n      tag_270\n      jump\t// in\n    tag_385:\n        /* \"#utility.yul\":7841:7866   */\n      swap2\n      pop\n        /* \"#utility.yul\":7880:7900   */\n      tag_386\n        /* \"#utility.yul\":7898:7899   */\n      dup4\n        /* \"#utility.yul\":7880:7900   */\n      tag_270\n      jump\t// in\n    tag_386:\n        /* \"#utility.yul\":7875:7900   */\n      swap3\n      pop\n        /* \"#utility.yul\":7935:7936   */\n      dup3\n        /* \"#utility.yul\":7932:7933   */\n      dup3\n        /* \"#utility.yul\":7928:7937   */\n      mul\n        /* \"#utility.yul\":7957:7987   */\n      tag_387\n        /* \"#utility.yul\":7975:7986   */\n      dup2\n        /* \"#utility.yul\":7957:7987   */\n      tag_270\n      jump\t// in\n    tag_387:\n        /* \"#utility.yul\":7946:7987   */\n      swap2\n      pop\n        /* \"#utility.yul\":8136:8137   */\n      dup3\n        /* \"#utility.yul\":8127:8134   */\n      dup3\n        /* \"#utility.yul\":8123:8138   */\n      div\n        /* \"#utility.yul\":8120:8121   */\n      dup5\n        /* \"#utility.yul\":8117:8139   */\n      eq\n        /* \"#utility.yul\":8097:8098   */\n      dup4\n        /* \"#utility.yul\":8090:8099   */\n      iszero\n        /* \"#utility.yul\":8070:8153   */\n      or\n        /* \"#utility.yul\":8047:8186   */\n      tag_388\n      jumpi\n        /* \"#utility.yul\":8166:8184   */\n      tag_389\n      tag_282\n      jump\t// in\n    tag_389:\n        /* \"#utility.yul\":8047:8186   */\n    tag_388:\n        /* \"#utility.yul\":7831:8193   */\n      pop\n        /* \"#utility.yul\":7783:8193   */\n      swap3\n      swap2\n      pop\n      pop\n      jump\t// out\n        /* \"#utility.yul\":8199:8393   */\n    tag_118:\n        /* \"#utility.yul\":8239:8243   */\n      0x00\n        /* \"#utility.yul\":8259:8279   */\n      tag_391\n        /* \"#utility.yul\":8277:8278   */\n      dup3\n        /* \"#utility.yul\":8259:8279   */\n      tag_270\n      jump\t// in\n    tag_391:\n        /* \"#utility.yul\":8254:8279   */\n      swap2\n      pop\n        /* \"#utility.yul\":8293:8313   */\n      tag_392\n        /* \"#utility.yul\":8311:8312   */\n      dup4\n        /* \"#utility.yul\":8293:8313   */\n      tag_270\n      jump\t// in\n    tag_392:\n        /* \"#utility.yul\":8288:8313   */\n      swap3\n      pop\n        /* \"#utility.yul\":8337:8338   */\n      dup3\n        /* \"#utility.yul\":8334:8335   */\n      dup3\n        /* \"#utility.yul\":8330:8339   */\n      sub\n        /* \"#utility.yul\":8322:8339   */\n      swap1\n      pop\n        /* \"#utility.yul\":8361:8362   */\n      dup2\n        /* \"#utility.yul\":8355:8359   */\n      dup2\n        /* \"#utility.yul\":8352:8363   */\n      gt\n        /* \"#utility.yul\":8349:8386   */\n      iszero\n      tag_393\n      jumpi\n        /* \"#utility.yul\":8366:8384   */\n      tag_394\n      tag_282\n      jump\t// in\n    tag_394:\n        /* \"#utility.yul\":8349:8386   */\n    tag_393:\n        /* \"#utility.yul\":8199:8393   */\n      swap3\n      swap2\n      pop\n      pop\n      jump\t// out\n        /* \"#utility.yul\":8399:8590   */\n    tag_120:\n        /* \"#utility.yul\":8439:8442   */\n      0x00\n        /* \"#utility.yul\":8458:8478   */\n      tag_396\n        /* \"#utility.yul\":8476:8477   */\n      dup3\n        /* \"#utility.yul\":8458:8478   */\n      tag_270\n      jump\t// in\n    tag_396:\n        /* \"#utility.yul\":8453:8478   */\n      swap2\n      pop\n        /* \"#utility.yul\":8492:8512   */\n      tag_397\n        /* \"#utility.yul\":8510:8511   */\n      dup4\n        /* \"#utility.yul\":8492:8512   */\n      tag_270\n      jump\t// in\n    tag_397:\n        /* \"#utility.yul\":8487:8512   */\n      swap3\n      pop\n        /* \"#utility.yul\":8535:8536   */\n      dup3\n        /* \"#utility.yul\":8532:8533   */\n      dup3\n        /* \"#utility.yul\":8528:8537   */\n      add\n        /* \"#utility.yul\":8521:8537   */\n      swap1\n      pop\n        /* \"#utility.yul\":8556:8559   */\n      dup1\n        /* \"#utility.yul\":8553:8554   */\n      dup3\n        /* \"#utility.yul\":8550:8560   */\n      gt\n        /* \"#utility.yul\":8547:8583   */\n      iszero\n      tag_398\n      jumpi\n        /* \"#utility.yul\":8563:8581   */\n      tag_399\n      tag_282\n      jump\t// in\n    tag_399:\n        /* \"#utility.yul\":8547:8583   */\n    tag_398:\n        /* \"#utility.yul\":8399:8590   */\n      swap3\n      swap2\n      pop\n      pop\n      jump\t// out\n        /* \"#utility.yul\":8596:8698   */\n    tag_283:\n        /* \"#utility.yul\":8638:8646   */\n      0x00\n        /* \"#utility.yul\":8685:8690   */\n      dup2\n        /* \"#utility.yul\":8682:8683   */\n      0x01\n        /* \"#utility.yul\":8678:8691   */\n      shr\n        /* \"#utility.yul\":8657:8691   */\n      swap1\n      pop\n        /* \"#utility.yul\":8596:8698   */\n      swap2\n      swap1\n      pop\n      jump\t// out\n        /* \"#utility.yul\":8704:9552   */\n    tag_284:\n        /* \"#utility.yul\":8765:8770   */\n      0x00\n        /* \"#utility.yul\":8772:8776   */\n      0x00\n        /* \"#utility.yul\":8796:8802   */\n      dup3\n        /* \"#utility.yul\":8787:8802   */\n      swap2\n      pop\n        /* \"#utility.yul\":8820:8825   */\n      dup4\n        /* \"#utility.yul\":8811:8825   */\n      swap1\n      pop\n        /* \"#utility.yul\":8834:9546   */\n    tag_402:\n        /* \"#utility.yul\":8855:8856   */\n      0x01\n        /* \"#utility.yul\":8845:8853   */\n      dup6\n        /* \"#utility.yul\":8842:8857   */\n      gt\n        /* \"#utility.yul\":8834:9546   */\n      iszero\n      tag_404\n      jumpi\n        /* \"#utility.yul\":8950:8954   */\n      dup1\n        /* \"#utility.yul\":8945:8948   */\n      dup7\n        /* \"#utility.yul\":8941:8955   */\n      div\n        /* \"#utility.yul\":8935:8939   */\n      dup2\n        /* \"#utility.yul\":8932:8956   */\n      gt\n        /* \"#utility.yul\":8929:8979   */\n      iszero\n      tag_405\n      jumpi\n        /* \"#utility.yul\":8959:8977   */\n      tag_406\n      tag_282\n      jump\t// in\n    tag_406:\n        /* \"#utility.yul\":8929:8979   */\n    tag_405:\n        /* \"#utility.yul\":9009:9010   */\n      0x01\n        /* \"#utility.yul\":8999:9007   */\n      dup6\n        /* \"#utility.yul\":8995:9011   */\n      and\n        /* \"#utility.yul\":8992:9443   */\n      iszero\n      tag_407\n      jumpi\n        /* \"#utility.yul\":9424:9428   */\n      dup1\n        /* \"#utility.yul\":9417:9422   */\n      dup3\n        /* \"#utility.yul\":9413:9429   */\n      mul\n        /* \"#utility.yul\":9404:9429   */\n      swap2\n      pop\n        /* \"#utility.yul\":8992:9443   */\n    tag_407:\n        /* \"#utility.yul\":9474:9478   */\n      dup1\n        /* \"#utility.yul\":9468:9472   */\n      dup2\n        /* \"#utility.yul\":9464:9479   */\n      mul\n        /* \"#utility.yul\":9456:9479   */\n      swap1\n      pop\n        /* \"#utility.yul\":9504:9536   */\n      tag_408\n        /* \"#utility.yul\":9527:9535   */\n      dup6\n        /* \"#utility.yul\":9504:9536   */\n      tag_283\n      jump\t// in\n    tag_408:\n        /* \"#utility.yul\":9492:9536   */\n      swap5\n      pop\n        /* \"#utility.yul\":8834:9546   */\n      jump(tag_402)\n    tag_404:\n        /* \"#utility.yul\":8704:9552   */\n      swap5\n      pop\n      swap5\n      swap3\n      pop\n      pop\n      pop\n      jump\t// out\n        /* \"#utility.yul\":9558:10631   */\n    tag_285:\n        /* \"#utility.yul\":9612:9617   */\n      0x00\n        /* \"#utility.yul\":9803:9811   */\n      dup3\n        /* \"#utility.yul\":9793:9833   */\n      tag_410\n      jumpi\n        /* \"#utility.yul\":9824:9825   */\n      0x01\n        /* \"#utility.yul\":9815:9825   */\n      swap1\n      pop\n        /* \"#utility.yul\":9826:9831   */\n      jump(tag_409)\n        /* \"#utility.yul\":9793:9833   */\n    tag_410:\n        /* \"#utility.yul\":9852:9856   */\n      dup2\n        /* \"#utility.yul\":9842:9878   */\n      tag_411\n      jumpi\n        /* \"#utility.yul\":9869:9870   */\n      0x00\n        /* \"#utility.yul\":9860:9870   */\n      swap1\n      pop\n        /* \"#utility.yul\":9871:9876   */\n      jump(tag_409)\n        /* \"#utility.yul\":9842:9878   */\n    tag_411:\n        /* \"#utility.yul\":9938:9942   */\n      dup2\n        /* \"#utility.yul\":9986:9987   */\n      0x01\n        /* \"#utility.yul\":9981:10008   */\n      dup2\n      eq\n      tag_413\n      jumpi\n        /* \"#utility.yul\":10022:10023   */\n      0x02\n        /* \"#utility.yul\":10017:10208   */\n      dup2\n      eq\n      tag_414\n      jumpi\n        /* \"#utility.yul\":9931:10208   */\n      jump(tag_412)\n        /* \"#utility.yul\":9981:10008   */\n    tag_413:\n        /* \"#utility.yul\":9999:10000   */\n      0x01\n        /* \"#utility.yul\":9990:10000   */\n      swap2\n      pop\n        /* \"#utility.yul\":10001:10006   */\n      pop\n      jump(tag_409)\n        /* \"#utility.yul\":10017:10208   */\n    tag_414:\n        /* \"#utility.yul\":10062:10065   */\n      0xff\n        /* \"#utility.yul\":10052:10060   */\n      dup5\n        /* \"#utility.yul\":10049:10066   */\n      gt\n        /* \"#utility.yul\":10046:10089   */\n      iszero\n      tag_415\n      jumpi\n        /* \"#utility.yul\":10069:10087   */\n      tag_416\n      tag_282\n      jump\t// in\n    tag_416:\n        /* \"#utility.yul\":10046:10089   */\n    tag_415:\n        /* \"#utility.yul\":10118:10126   */\n      dup4\n        /* \"#utility.yul\":10115:10116   */\n      0x02\n        /* \"#utility.yul\":10111:10127   */\n      exp\n        /* \"#utility.yul\":10102:10127   */\n      swap2\n      pop\n        /* \"#utility.yul\":10153:10156   */\n      dup5\n        /* \"#utility.yul\":10146:10151   */\n      dup3\n        /* \"#utility.yul\":10143:10157   */\n      gt\n        /* \"#utility.yul\":10140:10180   */\n      iszero\n      tag_417\n      jumpi\n        /* \"#utility.yul\":10160:10178   */\n      tag_418\n      tag_282\n      jump\t// in\n    tag_418:\n        /* \"#utility.yul\":10140:10180   */\n    tag_417:\n        /* \"#utility.yul\":10193:10198   */\n      pop\n      jump(tag_409)\n        /* \"#utility.yul\":9931:10208   */\n    tag_412:\n      pop\n        /* \"#utility.yul\":10317:10319   */\n      0x20\n        /* \"#utility.yul\":10307:10315   */\n      dup4\n        /* \"#utility.yul\":10304:10320   */\n      lt\n        /* \"#utility.yul\":10298:10301   */\n      0x0133\n        /* \"#utility.yul\":10292:10296   */\n      dup4\n        /* \"#utility.yul\":10289:10302   */\n      lt\n        /* \"#utility.yul\":10285:10321   */\n      and\n        /* \"#utility.yul\":10267:10269   */\n      0x4e\n        /* \"#utility.yul\":10257:10265   */\n      dup5\n        /* \"#utility.yul\":10254:10270   */\n      lt\n        /* \"#utility.yul\":10249:10251   */\n      0x0b\n        /* \"#utility.yul\":10243:10247   */\n      dup5\n        /* \"#utility.yul\":10240:10252   */\n      lt\n        /* \"#utility.yul\":10236:10271   */\n      and\n        /* \"#utility.yul\":10220:10331   */\n      or\n        /* \"#utility.yul\":10217:10463   */\n      iszero\n      tag_419\n      jumpi\n        /* \"#utility.yul\":10373:10381   */\n      dup3\n        /* \"#utility.yul\":10367:10371   */\n      dup3\n        /* \"#utility.yul\":10363:10382   */\n      exp\n        /* \"#utility.yul\":10354:10382   */\n      swap1\n      pop\n        /* \"#utility.yul\":10408:10411   */\n      dup4\n        /* \"#utility.yul\":10401:10406   */\n      dup2\n        /* \"#utility.yul\":10398:10412   */\n      gt\n        /* \"#utility.yul\":10395:10435   */\n      iszero\n      tag_420\n      jumpi\n        /* \"#utility.yul\":10415:10433   */\n      tag_421\n      tag_282\n      jump\t// in\n    tag_421:\n        /* \"#utility.yul\":10395:10435   */\n    tag_420:\n        /* \"#utility.yul\":10448:10453   */\n      jump(tag_409)\n        /* \"#utility.yul\":10217:10463   */\n    tag_419:\n        /* \"#utility.yul\":10488:10530   */\n      tag_422\n        /* \"#utility.yul\":10526:10529   */\n      dup5\n        /* \"#utility.yul\":10516:10524   */\n      dup5\n        /* \"#utility.yul\":10510:10514   */\n      dup5\n        /* \"#utility.yul\":10507:10508   */\n      0x01\n        /* \"#utility.yul\":10488:10530   */\n      tag_284\n      jump\t// in\n    tag_422:\n        /* \"#utility.yul\":10473:10530   */\n      swap3\n      pop\n      swap1\n      pop\n        /* \"#utility.yul\":10562:10566   */\n      dup2\n        /* \"#utility.yul\":10557:10560   */\n      dup5\n        /* \"#utility.yul\":10553:10567   */\n      div\n        /* \"#utility.yul\":10546:10551   */\n      dup2\n        /* \"#utility.yul\":10543:10568   */\n      gt\n        /* \"#utility.yul\":10540:10591   */\n      iszero\n      tag_423\n      jumpi\n        /* \"#utility.yul\":10571:10589   */\n      tag_424\n      tag_282\n      jump\t// in\n    tag_424:\n        /* \"#utility.yul\":10540:10591   */\n    tag_423:\n        /* \"#utility.yul\":10620:10624   */\n      dup2\n        /* \"#utility.yul\":10613:10618   */\n      dup2\n        /* \"#utility.yul\":10609:10625   */\n      mul\n        /* \"#utility.yul\":10600:10625   */\n      swap1\n      pop\n        /* \"#utility.yul\":9558:10631   */\n    tag_409:\n      swap4\n      swap3\n      pop\n      pop\n      pop\n      jump\t// out\n        /* \"#utility.yul\":10637:10918   */\n    tag_124:\n        /* \"#utility.yul\":10695:10700   */\n      0x00\n        /* \"#utility.yul\":10719:10742   */\n      tag_426\n        /* \"#utility.yul\":10737:10741   */\n      dup3\n        /* \"#utility.yul\":10719:10742   */\n      tag_270\n      jump\t// in\n    tag_426:\n        /* \"#utility.yul\":10711:10742   */\n      swap2\n      pop\n        /* \"#utility.yul\":10763:10788   */\n      tag_427\n        /* \"#utility.yul\":10779:10787   */\n      dup4\n        /* \"#utility.yul\":10763:10788   */\n      tag_276\n      jump\t// in\n    tag_427:\n        /* \"#utility.yul\":10751:10788   */\n      swap3\n      pop\n        /* \"#utility.yul\":10807:10911   */\n      tag_428\n        /* \"#utility.yul\":10844:10910   */\n      0xffffffffffffffffffffffffffffffffffffffffffffffffffffffffffffffff\n        /* \"#utility.yul\":10834:10842   */\n      dup5\n        /* \"#utility.yul\":10828:10832   */\n      dup5\n        /* \"#utility.yul\":10807:10911   */\n      tag_285\n      jump\t// in\n    tag_428:\n        /* \"#utility.yul\":10798:10911   */\n      swap1\n      pop\n        /* \"#utility.yul\":10637:10918   */\n      swap3\n      swap2\n      pop\n      pop\n      jump\t// out\n        /* \"#utility.yul\":10924:11071   */\n    tag_286:\n        /* \"#utility.yul\":11025:11036   */\n      0x00\n        /* \"#utility.yul\":11062:11065   */\n      dup2\n        /* \"#utility.yul\":11047:11065   */\n      swap1\n      pop\n        /* \"#utility.yul\":10924:11071   */\n      swap3\n      swap2\n      pop\n      pop\n      jump\t// out\n        /* \"#utility.yul\":11077:11191   */\n    tag_287:\n      pop\n      jump\t// out\n        /* \"#utility.yul\":11197:11595   */\n    tag_288:\n        /* \"#utility.yul\":11356:11359   */\n      0x00\n        /* \"#utility.yul\":11377:11460   */\n      tag_432\n        /* \"#utility.yul\":11458:11459   */\n      0x00\n        /* \"#utility.yul\":11453:11456   */\n      dup4\n        /* \"#utility.yul\":11377:11460   */\n      tag_286\n      jump\t// in\n    tag_432:\n        /* \"#utility.yul\":11370:11460   */\n      swap2\n      pop\n        /* \"#utility.yul\":11469:11562   */\n      tag_433\n        /* \"#utility.yul\":11558:11561   */\n      dup3\n        /* \"#utility.yul\":11469:11562   */\n      tag_287\n      jump\t// in\n    tag_433:\n        /* \"#utility.yul\":11587:11588   */\n      0x00\n        /* \"#utility.yul\":11582:11585   */\n      dup3\n        /* \"#utility.yul\":11578:11589   */\n      add\n        /* \"#utility.yul\":11571:11589   */\n      swap1\n      pop\n        /* \"#utility.yul\":11197:11595   */\n      swap2\n      swap1\n      pop\n      jump\t// out\n        /* \"#utility.yul\":11601:11980   */\n    tag_129:\n        /* \"#utility.yul\":11785:11788   */\n      0x00\n        /* \"#utility.yul\":11807:11954   */\n      tag_435\n        /* \"#utility.yul\":11950:11953   */\n      dup3\n        /* \"#utility.yul\":11807:11954   */\n      tag_288\n      jump\t// in\n    tag_435:\n        /* \"#utility.yul\":11800:11954   */\n      swap2\n      pop\n        /* \"#utility.yul\":11971:11974   */\n      dup2\n        /* \"#utility.yul\":11964:11974   */\n      swap1\n      pop\n        /* \"#utility.yul\":11601:11980   */\n      swap2\n      swap1\n      pop\n      jump\t// out\n        /* \"#utility.yul\":11986:12149   */\n    tag_289:\n        /* \"#utility.yul\":12126:12141   */\n      0x526566756e64206661696c656400000000000000000000000000000000000000\n        /* \"#utility.yul\":12122:12123   */\n      0x00\n        /* \"#utility.yul\":12114:12120   */\n      dup3\n        /* \"#utility.yul\":12110:12124   */\n      add\n        /* \"#utility.yul\":12103:12142   */\n      mstore\n        /* \"#utility.yul\":11986:12149   */\n      pop\n      jump\t// out\n        /* \"#utility.yul\":12155:12521   */\n    tag_290:\n        /* \"#utility.yul\":12297:12300   */\n      0x00\n        /* \"#utility.yul\":12318:12385   */\n      tag_438\n        /* \"#utility.yul\":12382:12384   */\n      0x0d\n        /* \"#utility.yul\":12377:12380   */\n      dup4\n        /* \"#utility.yul\":12318:12385   */\n      tag_259\n      jump\t// in\n    tag_438:\n        /* \"#utility.yul\":12311:12385   */\n      swap2\n      pop\n        /* \"#utility.yul\":12394:12487   */\n      tag_439\n        /* \"#utility.yul\":12483:12486   */\n      dup3\n        /* \"#utility.yul\":12394:12487   */\n      tag_289\n      jump\t// in\n    tag_439:\n        /* \"#utility.yul\":12512:12514   */\n      0x20\n        /* \"#utility.yul\":12507:12510   */\n      dup3\n        /* \"#utility.yul\":12503:12515   */\n      add\n        /* \"#utility.yul\":12496:12515   */\n      swap1\n      pop\n        /* \"#utility.yul\":12155:12521   */\n      swap2\n      swap1\n      pop\n      jump\t// out\n        /* \"#utility.yul\":12527:12946   */\n    tag_135:\n        /* \"#utility.yul\":12693:12697   */\n      0x00\n        /* \"#utility.yul\":12731:12733   */\n      0x20\n        /* \"#utility.yul\":12720:12729   */\n      dup3\n        /* \"#utility.yul\":12716:12734   */\n      add\n        /* \"#utility.yul\":12708:12734   */\n      swap1\n      pop\n        /* \"#utility.yul\":12780:12789   */\n      dup2\n        /* \"#utility.yul\":12774:12778   */\n      dup2\n        /* \"#utility.yul\":12770:12790   */\n      sub\n        /* \"#utility.yul\":12766:12767   */\n      0x00\n        /* \"#utility.yul\":12755:12764   */\n      dup4\n        /* \"#utility.yul\":12751:12768   */\n      add\n        /* \"#utility.yul\":12744:12791   */\n      mstore\n        /* \"#utility.yul\":12808:12939   */\n      tag_441\n        /* \"#utility.yul\":12934:12938   */\n      dup2\n        /* \"#utility.yul\":12808:12939   */\n      tag_290\n      jump\t// in\n    tag_441:\n        /* \"#utility.yul\":12800:12939   */\n      swap1\n      pop\n        /* \"#utility.yul\":12527:12946   */\n      swap2\n      swap1\n      pop\n      jump\t// out\n        /* \"#utility.yul\":12952:13284   */\n    tag_137:\n        /* \"#utility.yul\":13073:13077   */\n      0x00\n        /* \"#utility.yul\":13111:13113   */\n      0x40\n        /* \"#utility.yul\":13100:13109   */\n      dup3\n        /* \"#utility.yul\":13096:13114   */\n      add\n        /* \"#utility.yul\":13088:13114   */\n      swap1\n      pop\n        /* \"#utility.yul\":13124:13195   */\n      tag_443\n        /* \"#utility.yul\":13192:13193   */\n      0x00\n        /* \"#utility.yul\":13181:13190   */\n      dup4\n        /* \"#utility.yul\":13177:13194   */\n      add\n        /* \"#utility.yul\":13168:13174   */\n      dup6\n        /* \"#utility.yul\":13124:13195   */\n      tag_275\n      jump\t// in\n    tag_443:\n        /* \"#utility.yul\":13205:13277   */\n      tag_444\n        /* \"#utility.yul\":13273:13275   */\n      0x20\n        /* \"#utility.yul\":13262:13271   */\n      dup4\n        /* \"#utility.yul\":13258:13276   */\n      add\n        /* \"#utility.yul\":13249:13255   */\n      dup5\n        /* \"#utility.yul\":13205:13277   */\n      tag_275\n      jump\t// in\n    tag_444:\n        /* \"#utility.yul\":12952:13284   */\n      swap4\n      swap3\n      pop\n      pop\n      pop\n      jump\t// out\n        /* \"#utility.yul\":13290:13470   */\n    tag_291:\n        /* \"#utility.yul\":13338:13415   */\n      0x4e487b7100000000000000000000000000000000000000000000000000000000\n        /* \"#utility.yul\":13335:13336   */\n      0x00\n        /* \"#utility.yul\":13328:13416   */\n      mstore\n        /* \"#utility.yul\":13435:13439   */\n      0x22\n        /* \"#utility.yul\":13432:13433   */\n      0x04\n        /* \"#utility.yul\":13425:13440   */\n      mstore\n        /* \"#utility.yul\":13459:13463   */\n      0x24\n        /* \"#utility.yul\":13456:13457   */\n      0x00\n        /* \"#utility.yul\":13449:13464   */\n      revert\n        /* \"#utility.yul\":13476:13796   */\n    tag_142:\n        /* \"#utility.yul\":13520:13526   */\n      0x00\n        /* \"#utility.yul\":13557:13558   */\n      0x02\n        /* \"#utility.yul\":13551:13555   */\n      dup3\n        /* \"#utility.yul\":13547:13559   */\n      div\n        /* \"#utility.yul\":13537:13559   */\n      swap1\n      pop\n        /* \"#utility.yul\":13604:13605   */\n      0x01\n        /* \"#utility.yul\":13598:13602   */\n      dup3\n        /* \"#utility.yul\":13594:13606   */\n      and\n        /* \"#utility.yul\":13625:13643   */\n      dup1\n        /* \"#utility.yul\":13615:13696   */\n      tag_447\n      jumpi\n        /* \"#utility.yul\":13681:13685   */\n      0x7f\n        /* \"#utility.yul\":13673:13679   */\n      dup3\n        /* \"#utility.yul\":13669:13686   */\n      and\n        /* \"#utility.yul\":13659:13686   */\n      swap2\n      pop\n        /* \"#utility.yul\":13615:13696   */\n    tag_447:\n        /* \"#utility.yul\":13743:13745   */\n      0x20\n        /* \"#utility.yul\":13735:13741   */\n      dup3\n        /* \"#utility.yul\":13732:13746   */\n      lt\n        /* \"#utility.yul\":13712:13730   */\n      dup2\n        /* \"#utility.yul\":13709:13747   */\n      sub\n        /* \"#utility.yul\":13706:13790   */\n      tag_448\n      jumpi\n        /* \"#utility.yul\":13762:13780   */\n      tag_449\n      tag_291\n      jump\t// in\n    tag_449:\n        /* \"#utility.yul\":13706:13790   */\n    tag_448:\n        /* \"#utility.yul\":13527:13796   */\n      pop\n        /* \"#utility.yul\":13476:13796   */\n      swap2\n      swap1\n      pop\n      jump\t// out\n        /* \"#utility.yul\":13802:13976   */\n    tag_292:\n        /* \"#utility.yul\":13942:13968   */\n      0x496e73756666696369656e74204554482062616c616e63650000000000000000\n        /* \"#utility.yul\":13938:13939   */\n      0x00\n        /* \"#utility.yul\":13930:13936   */\n      dup3\n        /* \"#utility.yul\":13926:13940   */\n      add\n        /* \"#utility.yul\":13919:13969   */\n      mstore\n        /* \"#utility.yul\":13802:13976   */\n      pop\n      jump\t// out\n        /* \"#utility.yul\":13982:14348   */\n    tag_293:\n        /* \"#utility.yul\":14124:14127   */\n      0x00\n        /* \"#utility.yul\":14145:14212   */\n      tag_452\n        /* \"#utility.yul\":14209:14211   */\n      0x18\n        /* \"#utility.yul\":14204:14207   */\n      dup4\n        /* \"#utility.yul\":14145:14212   */\n      tag_259\n      jump\t// in\n    tag_452:\n        /* \"#utility.yul\":14138:14212   */\n      swap2\n      pop\n        /* \"#utility.yul\":14221:14314   */\n      tag_453\n        /* \"#utility.yul\":14310:14313   */\n      dup3\n        /* \"#utility.yul\":14221:14314   */\n      tag_292\n      jump\t// in\n    tag_453:\n        /* \"#utility.yul\":14339:14341   */\n      0x20\n        /* \"#utility.yul\":14334:14337   */\n      dup3\n        /* \"#utility.yul\":14330:14342   */\n      add\n        /* \"#utility.yul\":14323:14342   */\n      swap1\n      pop\n        /* \"#utility.yul\":13982:14348   */\n      swap2\n      swap1\n      pop\n      jump\t// out\n        /* \"#utility.yul\":14354:14773   */\n    tag_160:\n        /* \"#utility.yul\":14520:14524   */\n      0x00\n        /* \"#utility.yul\":14558:14560   */\n      0x20\n        /* \"#utility.yul\":14547:14556   */\n      dup3\n        /* \"#utility.yul\":14543:14561   */\n      add\n        /* \"#utility.yul\":14535:14561   */\n      swap1\n      pop\n        /* \"#utility.yul\":14607:14616   */\n      dup2\n        /* \"#utility.yul\":14601:14605   */\n      dup2\n        /* \"#utility.yul\":14597:14617   */\n      sub\n        /* \"#utility.yul\":14593:14594   */\n      0x00\n        /* \"#utility.yul\":14582:14591   */\n      dup4\n        /* \"#utility.yul\":14578:14595   */\n      add\n        /* \"#utility.yul\":14571:14618   */\n      mstore\n        /* \"#utility.yul\":14635:14766   */\n      tag_455\n        /* \"#utility.yul\":14761:14765   */\n      dup2\n        /* \"#utility.yul\":14635:14766   */\n      tag_293\n      jump\t// in\n    tag_455:\n        /* \"#utility.yul\":14627:14766   */\n      swap1\n      pop\n        /* \"#utility.yul\":14354:14773   */\n      swap2\n      swap1\n      pop\n      jump\t// out\n        /* \"#utility.yul\":14779:14946   */\n    tag_294:\n        /* \"#utility.yul\":14919:14938   */\n      0x5769746864726177616c206661696c6564000000000000000000000000000000\n        /* \"#utility.yul\":14915:14916   */\n      0x00\n        /* \"#utility.yul\":14907:14913   */\n      dup3\n        /* \"#utility.yul\":14903:14917   */\n      add\n        /* \"#utility.yul\":14896:14939   */\n      mstore\n        /* \"#utility.yul\":14779:14946   */\n      pop\n      jump\t// out\n        /* \"#utility.yul\":14952:15318   */\n    tag_295:\n        /* \"#utility.yul\":15094:15097   */\n      0x00\n        /* \"#utility.yul\":15115:15182   */\n      tag_458\n        /* \"#utility.yul\":15179:15181   */\n      0x11\n        /* \"#utility.yul\":15174:15177   */\n      dup4\n        /* \"#utility.yul\":15115:15182   */\n      tag_259\n      jump\t// in\n    tag_458:\n        /* \"#utility.yul\":15108:15182   */\n      swap2\n      pop\n        /* \"#utility.yul\":15191:15284   */\n      tag_459\n        /* \"#utility.yul\":15280:15283   */\n      dup3\n        /* \"#utility.yul\":15191:15284   */\n      tag_294\n      jump\t// in\n    tag_459:\n        /* \"#utility.yul\":15309:15311   */\n      0x20\n        /* \"#utility.yul\":15304:15307   */\n      dup3\n        /* \"#utility.yul\":15300:15312   */\n      add\n        /* \"#utility.yul\":15293:15312   */\n      swap1\n      pop\n        /* \"#utility.yul\":14952:15318   */\n      swap2\n      swap1\n      pop\n      jump\t// out\n        /* \"#utility.yul\":15324:15743   */\n    tag_168:\n        /* \"#utility.yul\":15490:15494   */\n      0x00\n        /* \"#utility.yul\":15528:15530   */\n      0x20\n        /* \"#utility.yul\":15517:15526   */\n      dup3\n        /* \"#utility.yul\":15513:15531   */\n      add\n        /* \"#utility.yul\":15505:15531   */\n      swap1\n      pop\n        /* \"#utility.yul\":15577:15586   */\n      dup2\n        /* \"#utility.yul\":15571:15575   */\n      dup2\n        /* \"#utility.yul\":15567:15587   */\n      sub\n        /* \"#utility.yul\":15563:15564   */\n      0x00\n        /* \"#utility.yul\":15552:15561   */\n      dup4\n        /* \"#utility.yul\":15548:15565   */\n      add\n        /* \"#utility.yul\":15541:15588   */\n      mstore\n        /* \"#utility.yul\":15605:15736   */\n      tag_461\n        /* \"#utility.yul\":15731:15735   */\n      dup2\n        /* \"#utility.yul\":15605:15736   */\n      tag_295\n      jump\t// in\n    tag_461:\n        /* \"#utility.yul\":15597:15736   */\n      swap1\n      pop\n        /* \"#utility.yul\":15324:15743   */\n      swap2\n      swap1\n      pop\n      jump\t// out\n        /* \"#utility.yul\":15749:15916   */\n    tag_296:\n        /* \"#utility.yul\":15889:15908   */\n      0x5072696365206d757374206265203e2030000000000000000000000000000000\n        /* \"#utility.yul\":15885:15886   */\n      0x00\n        /* \"#utility.yul\":15877:15883   */\n      dup3\n        /* \"#utility.yul\":15873:15887   */\n      add\n        /* \"#utility.yul\":15866:15909   */\n      mstore\n        /* \"#utility.yul\":15749:15916   */\n      pop\n      jump\t// out\n        /* \"#utility.yul\":15922:16288   */\n    tag_297:\n        /* \"#utility.yul\":16064:16067   */\n      0x00\n        /* \"#utility.yul\":16085:16152   */\n      tag_464\n        /* \"#utility.yul\":16149:16151   */\n      0x11\n        /* \"#utility.yul\":16144:16147   */\n      dup4\n        /* \"#utility.yul\":16085:16152   */\n      tag_259\n      jump\t// in\n    tag_464:\n        /* \"#utility.yul\":16078:16152   */\n      swap2\n      pop\n        /* \"#utility.yul\":16161:16254   */\n      tag_465\n        /* \"#utility.yul\":16250:16253   */\n      dup3\n        /* \"#utility.yul\":16161:16254   */\n      tag_296\n      jump\t// in\n    tag_465:\n        /* \"#utility.yul\":16279:16281   */\n      0x20\n        /* \"#utility.yul\":16274:16277   */\n      dup3\n        /* \"#utility.yul\":16270:16282   */\n      add\n        /* \"#utility.yul\":16263:16282   */\n      swap1\n      pop\n        /* \"#utility.yul\":15922:16288   */\n      swap2\n      swap1\n      pop\n      jump\t// out\n        /* \"#utility.yul\":16294:16713   */\n    tag_183:\n        /* \"#utility.yul\":16460:16464   */\n      0x00\n        /* \"#utility.yul\":16498:16500   */\n      0x20\n        /* \"#utility.yul\":16487:16496   */\n      dup3\n        /* \"#utility.yul\":16483:16501   */\n      add\n        /* \"#utility.yul\":16475:16501   */\n      swap1\n      pop\n        /* \"#utility.yul\":16547:16556   */\n      dup2\n        /* \"#utility.yul\":16541:16545   */\n      dup2\n        /* \"#utility.yul\":16537:16557   */\n      sub\n        /* \"#utility.yul\":16533:16534   */\n      0x00\n        /* \"#utility.yul\":16522:16531   */\n      dup4\n        /* \"#utility.yul\":16518:16535   */\n      add\n        /* \"#utility.yul\":16511:16558   */\n      mstore\n        /* \"#utility.yul\":16575:16706   */\n      tag_467\n        /* \"#utility.yul\":16701:16705   */\n      dup2\n        /* \"#utility.yul\":16575:16706   */\n      tag_297\n      jump\t// in\n    tag_467:\n        /* \"#utility.yul\":16567:16706   */\n      swap1\n      pop\n        /* \"#utility.yul\":16294:16713   */\n      swap2\n      swap1\n      pop\n      jump\t// out\n        /* \"#utility.yul\":16719:16900   */\n    tag_298:\n        /* \"#utility.yul\":16859:16892   */\n      0x5265656e7472616e637947756172643a207265656e7472616e742063616c6c00\n        /* \"#utility.yul\":16855:16856   */\n      0x00\n        /* \"#utility.yul\":16847:16853   */\n      dup3\n        /* \"#utility.yul\":16843:16857   */\n      add\n        /* \"#utility.yul\":16836:16893   */\n      mstore\n        /* \"#utility.yul\":16719:16900   */\n      pop\n      jump\t// out\n        /* \"#utility.yul\":16906:17272   */\n    tag_299:\n        /* \"#utility.yul\":17048:17051   */\n      0x00\n        /* \"#utility.yul\":17069:17136   */\n      tag_470\n        /* \"#utility.yul\":17133:17135   */\n      0x1f\n        /* \"#utility.yul\":17128:17131   */\n      dup4\n        /* \"#utility.yul\":17069:17136   */\n      tag_259\n      jump\t// in\n    tag_470:\n        /* \"#utility.yul\":17062:17136   */\n      swap2\n      pop\n        /* \"#utility.yul\":17145:17238   */\n      tag_471\n        /* \"#utility.yul\":17234:17237   */\n      dup3\n        /* \"#utility.yul\":17145:17238   */\n      tag_298\n      jump\t// in\n    tag_471:\n        /* \"#utility.yul\":17263:17265   */\n      0x20\n        /* \"#utility.yul\":17258:17261   */\n      dup3\n        /* \"#utility.yul\":17254:17266   */\n      add\n        /* \"#utility.yul\":17247:17266   */\n      swap1\n      pop\n        /* \"#utility.yul\":16906:17272   */\n      swap2\n      swap1\n      pop\n      jump\t// out\n        /* \"#utility.yul\":17278:17697   */\n    tag_211:\n        /* \"#utility.yul\":17444:17448   */\n      0x00\n        /* \"#utility.yul\":17482:17484   */\n      0x20\n        /* \"#utility.yul\":17471:17480   */\n      dup3\n        /* \"#utility.yul\":17467:17485   */\n      add\n        /* \"#utility.yul\":17459:17485   */\n      swap1\n      pop\n        /* \"#utility.yul\":17531:17540   */\n      dup2\n        /* \"#utility.yul\":17525:17529   */\n      dup2\n        /* \"#utility.yul\":17521:17541   */\n      sub\n        /* \"#utility.yul\":17517:17518   */\n      0x00\n        /* \"#utility.yul\":17506:17515   */\n      dup4\n        /* \"#utility.yul\":17502:17519   */\n      add\n        /* \"#utility.yul\":17495:17542   */\n      mstore\n        /* \"#utility.yul\":17559:17690   */\n      tag_473\n        /* \"#utility.yul\":17685:17689   */\n      dup2\n        /* \"#utility.yul\":17559:17690   */\n      tag_299\n      jump\t// in\n    tag_473:\n        /* \"#utility.yul\":17551:17690   */\n      swap1\n      pop\n        /* \"#utility.yul\":17278:17697   */\n      swap2\n      swap1\n      pop\n      jump\t// out\n        /* \"#utility.yul\":17703:18145   */\n    tag_233:\n        /* \"#utility.yul\":17852:17856   */\n      0x00\n        /* \"#utility.yul\":17890:17892   */\n      0x60\n        /* \"#utility.yul\":17879:17888   */\n      dup3\n        /* \"#utility.yul\":17875:17893   */\n      add\n        /* \"#utility.yul\":17867:17893   */\n      swap1\n      pop\n        /* \"#utility.yul\":17903:17974   */\n      tag_475\n        /* \"#utility.yul\":17971:17972   */\n      0x00\n        /* \"#utility.yul\":17960:17969   */\n      dup4\n        /* \"#utility.yul\":17956:17973   */\n      add\n        /* \"#utility.yul\":17947:17953   */\n      dup7\n        /* \"#utility.yul\":17903:17974   */\n      tag_278\n      jump\t// in\n    tag_475:\n        /* \"#utility.yul\":17984:18056   */\n      tag_476\n        /* \"#utility.yul\":18052:18054   */\n      0x20\n        /* \"#utility.yul\":18041:18050   */\n      dup4\n        /* \"#utility.yul\":18037:18055   */\n      add\n        /* \"#utility.yul\":18028:18034   */\n      dup6\n        /* \"#utility.yul\":17984:18056   */\n      tag_275\n      jump\t// in\n    tag_476:\n        /* \"#utility.yul\":18066:18138   */\n      tag_477\n        /* \"#utility.yul\":18134:18136   */\n      0x40\n        /* \"#utility.yul\":18123:18132   */\n      dup4\n        /* \"#utility.yul\":18119:18137   */\n      add\n        /* \"#utility.yul\":18110:18116   */\n      dup5\n        /* \"#utility.yul\":18066:18138   */\n      tag_275\n      jump\t// in\n    tag_477:\n        /* \"#utility.yul\":17703:18145   */\n      swap5\n      swap4\n      pop\n      pop\n      pop\n      pop\n      jump\t// out\n\n    auxdata: 0xa264697066735822122085a7ee66cb26777732359cd22b98b31517887d34741cb1d671cde3c466b89d0b64736f6c634300081d0033\n}\n",
				"bytecode": {
					"linkReferences": {},
					"object": "608060405234801561000f575f5ffd5b5060405161221f38038061221f83398181016040528101906100319190610291565b336040518060400160405280600b81526020017f457175697479546f6b656e0000000000000000000000000000000000000000008152506040518060400160405280600381526020017f455154000000000000000000000000000000000000000000000000000000000081525081600390816100ad91906104f0565b5080600490816100bd91906104f0565b5050505f73ffffffffffffffffffffffffffffffffffffffff168173ffffffffffffffffffffffffffffffffffffffff1603610130575f6040517f1e4fbdf700000000000000000000000000000000000000000000000000000000815260040161012791906105fe565b60405180910390fd5b61013f8161019760201b60201c565b5060016006819055505f811161018a576040517f08c379a000000000000000000000000000000000000000000000000000000000815260040161018190610671565b60405180910390fd5b806007819055505061068f565b5f60055f9054906101000a900473ffffffffffffffffffffffffffffffffffffffff1690508160055f6101000a81548173ffffffffffffffffffffffffffffffffffffffff021916908373ffffffffffffffffffffffffffffffffffffffff1602179055508173ffffffffffffffffffffffffffffffffffffffff168173ffffffffffffffffffffffffffffffffffffffff167f8be0079c531659141344cd1fd0a4f28419497f9722a3daafe3b4186f6b6457e060405160405180910390a35050565b5f5ffd5b5f819050919050565b6102708161025e565b811461027a575f5ffd5b50565b5f8151905061028b81610267565b92915050565b5f602082840312156102a6576102a561025a565b5b5f6102b38482850161027d565b91505092915050565b5f81519050919050565b7f4e487b71000000000000000000000000000000000000000000000000000000005f52604160045260245ffd5b7f4e487b71000000000000000000000000000000000000000000000000000000005f52602260045260245ffd5b5f600282049050600182168061033757607f821691505b60208210810361034a576103496102f3565b5b50919050565b5f819050815f5260205f209050919050565b5f6020601f8301049050919050565b5f82821b905092915050565b5f600883026103ac7fffffffffffffffffffffffffffffffffffffffffffffffffffffffffffffffff82610371565b6103b68683610371565b95508019841693508086168417925050509392505050565b5f819050919050565b5f6103f16103ec6103e78461025e565b6103ce565b61025e565b9050919050565b5f819050919050565b61040a836103d7565b61041e610416826103f8565b84845461037d565b825550505050565b5f5f905090565b610435610426565b610440818484610401565b505050565b5b81811015610463576104585f8261042d565b600181019050610446565b5050565b601f8211156104a85761047981610350565b61048284610362565b81016020851015610491578190505b6104a561049d85610362565b830182610445565b50505b505050565b5f82821c905092915050565b5f6104c85f19846008026104ad565b1980831691505092915050565b5f6104e083836104b9565b9150826002028217905092915050565b6104f9826102bc565b67ffffffffffffffff811115610512576105116102c6565b5b61051c8254610320565b610527828285610467565b5f60209050601f831160018114610558575f8415610546578287015190505b61055085826104d5565b8655506105b7565b601f19841661056686610350565b5f5b8281101561058d57848901518255600182019150602085019450602081019050610568565b868310156105aa57848901516105a6601f8916826104b9565b8355505b6001600288020188555050505b505050505050565b5f73ffffffffffffffffffffffffffffffffffffffff82169050919050565b5f6105e8826105bf565b9050919050565b6105f8816105de565b82525050565b5f6020820190506106115f8301846105ef565b92915050565b5f82825260208201905092915050565b7f5072696365206d757374206265203e20300000000000000000000000000000005f82015250565b5f61065b601183610617565b915061066682610627565b602082019050919050565b5f6020820190508181035f8301526106888161064f565b9050919050565b611b838061069c5f395ff3fe608060405260043610610101575f3560e01c806370a082311161009457806395d89b411161006357806395d89b411461030a578063a9059cbb14610334578063c5c4744c14610370578063dd62ed3e1461039a578063f2fde38b146103d657610110565b806370a0823114610264578063715018a6146102a05780637ff9b596146102b65780638da5cb5b146102e057610110565b80631d838a5d116100d05780631d838a5d146101cc57806323b872dd146101d6578063313ce56714610212578063676c0d771461023c57610110565b806306fdde0314610114578063095ea7b31461013e578063155dd5ee1461017a57806318160ddd146101a257610110565b366101105761010e6103fe565b005b5f5ffd5b34801561011f575f5ffd5b506101286105cb565b60405161013591906112af565b60405180910390f35b348015610149575f5ffd5b50610164600480360381019061015f9190611360565b61065b565b60405161017191906113b8565b60405180910390f35b348015610185575f5ffd5b506101a0600480360381019061019b91906113d1565b61067d565b005b3480156101ad575f5ffd5b506101b661078b565b6040516101c3919061140b565b60405180910390f35b6101d46103fe565b005b3480156101e1575f5ffd5b506101fc60048036038101906101f79190611424565b610794565b60405161020991906113b8565b60405180910390f35b34801561021d575f5ffd5b506102266107c2565b604051610233919061148f565b60405180910390f35b348015610247575f5ffd5b50610262600480360381019061025d91906113d1565b6107ca565b005b34801561026f575f5ffd5b5061028a600480360381019061028591906114a8565b610855565b604051610297919061140b565b60405180910390f35b3480156102ab575f5ffd5b506102b461089a565b005b3480156102c1575f5ffd5b506102ca6108ad565b6040516102d7919061140b565b60405180910390f35b3480156102eb575f5ffd5b506102f46108b3565b60405161030191906114e2565b60405180910390f35b348015610315575f5ffd5b5061031e6108db565b60405161032b91906112af565b60405180910390f35b34801561033f575f5ffd5b5061035a60048036038101906103559190611360565b61096b565b60405161036791906113b8565b60405180910390f35b34801561037b575f5ffd5b5061038461098d565b604051610391919061140b565b60405180910390f35b3480156103a5575f5ffd5b506103c060048036038101906103bb91906114fb565b610993565b6040516103cd919061140b565b60405180910390f35b3480156103e1575f5ffd5b506103fc60048036038101906103f791906114a8565b610a15565b005b610406610a99565b60075434101561044b576040517f08c379a000000000000000000000000000000000000000000000000000000000815260040161044290611583565b60405180910390fd5b5f6007543461045a91906115fb565b90505f6007548261046b919061162b565b90505f813461047a919061166c565b90508160085f82825461048d919061169f565b925050819055506104bc336104a06107c2565b600a6104ac9190611801565b856104b7919061162b565b610ae8565b5f81111561056e575f3373ffffffffffffffffffffffffffffffffffffffff16826040516104e990611878565b5f6040518083038185875af1925050503d805f8114610523576040519150601f19603f3d011682016040523d82523d5f602084013e610528565b606091505b505090508061056c576040517f08c379a0000000000000000000000000000000000000000000000000000000008152600401610563906118d6565b60405180910390fd5b505b3373ffffffffffffffffffffffffffffffffffffffff167f3ee7b70b453a6d54d57d8c4601395fc4110aa851ce3597c3c909efc0826c82a684846040516105b69291906118f4565b60405180910390a25050506105c9610b67565b565b6060600380546105da90611948565b80601f016020809104026020016040519081016040528092919081815260200182805461060690611948565b80156106515780601f1061062857610100808354040283529160200191610651565b820191905f5260205f20905b81548152906001019060200180831161063457829003601f168201915b5050505050905090565b5f5f610665610b71565b9050610672818585610b78565b600191505092915050565b610685610b8a565b61068d610a99565b478111156106d0576040517f08c379a00000000000000000000000000000000000000000000000000000000081526004016106c7906119c2565b60405180910390fd5b5f6106d96108b3565b73ffffffffffffffffffffffffffffffffffffffff16826040516106fc90611878565b5f6040518083038185875af1925050503d805f8114610736576040519150601f19603f3d011682016040523d82523d5f602084013e61073b565b606091505b505090508061077f576040517f08c379a000000000000000000000000000000000000000000000000000000000815260040161077690611a2a565b60405180910390fd5b50610788610b67565b50565b5f600254905090565b5f5f61079e610b71565b90506107ab858285610c11565b6107b6858585610ca4565b60019150509392505050565b5f6012905090565b6107d2610b8a565b5f8111610814576040517f08c379a000000000000000000000000000000000000000000000000000000000815260040161080b90611a92565b60405180910390fd5b806007819055507f6b361c807733cc94a3b7bda39c1c94dcc0511e91aa47b0f7f918068e939768908160405161084a919061140b565b60405180910390a150565b5f5f5f8373ffffffffffffffffffffffffffffffffffffffff1673ffffffffffffffffffffffffffffffffffffffff1681526020019081526020015f20549050919050565b6108a2610b8a565b6108ab5f610d94565b565b60075481565b5f60055f9054906101000a900473ffffffffffffffffffffffffffffffffffffffff16905090565b6060600480546108ea90611948565b80601f016020809104026020016040519081016040528092919081815260200182805461091690611948565b80156109615780601f1061093857610100808354040283529160200191610961565b820191905f5260205f20905b81548152906001019060200180831161094457829003601f168201915b5050505050905090565b5f5f610975610b71565b9050610982818585610ca4565b600191505092915050565b60085481565b5f60015f8473ffffffffffffffffffffffffffffffffffffffff1673ffffffffffffffffffffffffffffffffffffffff1681526020019081526020015f205f8373ffffffffffffffffffffffffffffffffffffffff1673ffffffffffffffffffffffffffffffffffffffff1681526020019081526020015f2054905092915050565b610a1d610b8a565b5f73ffffffffffffffffffffffffffffffffffffffff168173ffffffffffffffffffffffffffffffffffffffff1603610a8d575f6040517f1e4fbdf7000000000000000000000000000000000000000000000000000000008152600401610a8491906114e2565b60405180910390fd5b610a9681610d94565b50565b600260065403610ade576040517f08c379a0000000000000000000000000000000000000000000000000000000008152600401610ad590611afa565b60405180910390fd5b6002600681905550565b5f73ffffffffffffffffffffffffffffffffffffffff168273ffffffffffffffffffffffffffffffffffffffff1603610b58575f6040517fec442f05000000000000000000000000000000000000000000000000000000008152600401610b4f91906114e2565b60405180910390fd5b610b635f8383610e57565b5050565b6001600681905550565b5f33905090565b610b858383836001611070565b505050565b610b92610b71565b73ffffffffffffffffffffffffffffffffffffffff16610bb06108b3565b73ffffffffffffffffffffffffffffffffffffffff1614610c0f57610bd3610b71565b6040517f118cdaa7000000000000000000000000000000000000000000000000000000008152600401610c0691906114e2565b60405180910390fd5b565b5f610c1c8484610993565b90507fffffffffffffffffffffffffffffffffffffffffffffffffffffffffffffffff811015610c9e5781811015610c8f578281836040517ffb8f41b2000000000000000000000000000000000000000000000000000000008152600401610c8693929190611b18565b60405180910390fd5b610c9d84848484035f611070565b5b50505050565b5f73ffffffffffffffffffffffffffffffffffffffff168373ffffffffffffffffffffffffffffffffffffffff1603610d14575f6040517f96c6fd1e000000000000000000000000000000000000000000000000000000008152600401610d0b91906114e2565b60405180910390fd5b5f73ffffffffffffffffffffffffffffffffffffffff168273ffffffffffffffffffffffffffffffffffffffff1603610d84575f6040517fec442f05000000000000000000000000000000000000000000000000000000008152600401610d7b91906114e2565b60405180910390fd5b610d8f838383610e57565b505050565b5f60055f9054906101000a900473ffffffffffffffffffffffffffffffffffffffff1690508160055f6101000a81548173ffffffffffffffffffffffffffffffffffffffff021916908373ffffffffffffffffffffffffffffffffffffffff1602179055508173ffffffffffffffffffffffffffffffffffffffff168173ffffffffffffffffffffffffffffffffffffffff167f8be0079c531659141344cd1fd0a4f28419497f9722a3daafe3b4186f6b6457e060405160405180910390a35050565b5f73ffffffffffffffffffffffffffffffffffffffff168373ffffffffffffffffffffffffffffffffffffffff1603610ea7578060025f828254610e9b919061169f565b92505081905550610f75565b5f5f5f8573ffffffffffffffffffffffffffffffffffffffff1673ffffffffffffffffffffffffffffffffffffffff1681526020019081526020015f2054905081811015610f30578381836040517fe450d38c000000000000000000000000000000000000000000000000000000008152600401610f2793929190611b18565b60405180910390fd5b8181035f5f8673ffffffffffffffffffffffffffffffffffffffff1673ffffffffffffffffffffffffffffffffffffffff1681526020019081526020015f2081905550505b5f73ffffffffffffffffffffffffffffffffffffffff168273ffffffffffffffffffffffffffffffffffffffff1603610fbc578060025f8282540392505081905550611006565b805f5f8473ffffffffffffffffffffffffffffffffffffffff1673ffffffffffffffffffffffffffffffffffffffff1681526020019081526020015f205f82825401925050819055505b8173ffffffffffffffffffffffffffffffffffffffff168373ffffffffffffffffffffffffffffffffffffffff167fddf252ad1be2c89b69c2b068fc378daa952ba7f163c4a11628f55a4df523b3ef83604051611063919061140b565b60405180910390a3505050565b5f73ffffffffffffffffffffffffffffffffffffffff168473ffffffffffffffffffffffffffffffffffffffff16036110e0575f6040517fe602df050000000000000000000000000000000000000000000000000000000081526004016110d791906114e2565b60405180910390fd5b5f73ffffffffffffffffffffffffffffffffffffffff168373ffffffffffffffffffffffffffffffffffffffff1603611150575f6040517f94280d6200000000000000000000000000000000000000000000000000000000815260040161114791906114e2565b60405180910390fd5b8160015f8673ffffffffffffffffffffffffffffffffffffffff1673ffffffffffffffffffffffffffffffffffffffff1681526020019081526020015f205f8573ffffffffffffffffffffffffffffffffffffffff1673ffffffffffffffffffffffffffffffffffffffff1681526020019081526020015f20819055508015611239578273ffffffffffffffffffffffffffffffffffffffff168473ffffffffffffffffffffffffffffffffffffffff167f8c5be1e5ebec7d5bd14f71427d1e84f3dd0314c0f7b2291e5b200ac8c7c3b92584604051611230919061140b565b60405180910390a35b50505050565b5f81519050919050565b5f82825260208201905092915050565b8281835e5f83830152505050565b5f601f19601f8301169050919050565b5f6112818261123f565b61128b8185611249565b935061129b818560208601611259565b6112a481611267565b840191505092915050565b5f6020820190508181035f8301526112c78184611277565b905092915050565b5f5ffd5b5f73ffffffffffffffffffffffffffffffffffffffff82169050919050565b5f6112fc826112d3565b9050919050565b61130c816112f2565b8114611316575f5ffd5b50565b5f8135905061132781611303565b92915050565b5f819050919050565b61133f8161132d565b8114611349575f5ffd5b50565b5f8135905061135a81611336565b92915050565b5f5f60408385031215611376576113756112cf565b5b5f61138385828601611319565b92505060206113948582860161134c565b9150509250929050565b5f8115159050919050565b6113b28161139e565b82525050565b5f6020820190506113cb5f8301846113a9565b92915050565b5f602082840312156113e6576113e56112cf565b5b5f6113f38482850161134c565b91505092915050565b6114058161132d565b82525050565b5f60208201905061141e5f8301846113fc565b92915050565b5f5f5f6060848603121561143b5761143a6112cf565b5b5f61144886828701611319565b935050602061145986828701611319565b925050604061146a8682870161134c565b9150509250925092565b5f60ff82169050919050565b61148981611474565b82525050565b5f6020820190506114a25f830184611480565b92915050565b5f602082840312156114bd576114bc6112cf565b5b5f6114ca84828501611319565b91505092915050565b6114dc816112f2565b82525050565b5f6020820190506114f55f8301846114d3565b92915050565b5f5f60408385031215611511576115106112cf565b5b5f61151e85828601611319565b925050602061152f85828601611319565b9150509250929050565b7f4e6f7420656e6f756768204554482073656e74000000000000000000000000005f82015250565b5f61156d601383611249565b915061157882611539565b602082019050919050565b5f6020820190508181035f83015261159a81611561565b9050919050565b7f4e487b71000000000000000000000000000000000000000000000000000000005f52601260045260245ffd5b7f4e487b71000000000000000000000000000000000000000000000000000000005f52601160045260245ffd5b5f6116058261132d565b91506116108361132d565b9250826116205761161f6115a1565b5b828204905092915050565b5f6116358261132d565b91506116408361132d565b925082820261164e8161132d565b91508282048414831517611665576116646115ce565b5b5092915050565b5f6116768261132d565b91506116818361132d565b9250828203905081811115611699576116986115ce565b5b92915050565b5f6116a98261132d565b91506116b48361132d565b92508282019050808211156116cc576116cb6115ce565b5b92915050565b5f8160011c9050919050565b5f5f8291508390505b600185111561172757808604811115611703576117026115ce565b5b60018516156117125780820291505b8081029050611720856116d2565b94506116e7565b94509492505050565b5f8261173f57600190506117fa565b8161174c575f90506117fa565b8160018114611762576002811461176c5761179b565b60019150506117fa565b60ff84111561177e5761177d6115ce565b5b8360020a915084821115611795576117946115ce565b5b506117fa565b5060208310610133831016604e8410600b84101617156117d05782820a9050838111156117cb576117ca6115ce565b5b6117fa565b6117dd84848460016116de565b925090508184048111156117f4576117f36115ce565b5b81810290505b9392505050565b5f61180b8261132d565b915061181683611474565b92506118437fffffffffffffffffffffffffffffffffffffffffffffffffffffffffffffffff8484611730565b905092915050565b5f81905092915050565b50565b5f6118635f8361184b565b915061186e82611855565b5f82019050919050565b5f61188282611858565b9150819050919050565b7f526566756e64206661696c6564000000000000000000000000000000000000005f82015250565b5f6118c0600d83611249565b91506118cb8261188c565b602082019050919050565b5f6020820190508181035f8301526118ed816118b4565b9050919050565b5f6040820190506119075f8301856113fc565b61191460208301846113fc565b9392505050565b7f4e487b71000000000000000000000000000000000000000000000000000000005f52602260045260245ffd5b5f600282049050600182168061195f57607f821691505b6020821081036119725761197161191b565b5b50919050565b7f496e73756666696369656e74204554482062616c616e636500000000000000005f82015250565b5f6119ac601883611249565b91506119b782611978565b602082019050919050565b5f6020820190508181035f8301526119d9816119a0565b9050919050565b7f5769746864726177616c206661696c65640000000000000000000000000000005f82015250565b5f611a14601183611249565b9150611a1f826119e0565b602082019050919050565b5f6020820190508181035f830152611a4181611a08565b9050919050565b7f5072696365206d757374206265203e20300000000000000000000000000000005f82015250565b5f611a7c601183611249565b9150611a8782611a48565b602082019050919050565b5f6020820190508181035f830152611aa981611a70565b9050919050565b7f5265656e7472616e637947756172643a207265656e7472616e742063616c6c005f82015250565b5f611ae4601f83611249565b9150611aef82611ab0565b602082019050919050565b5f6020820190508181035f830152611b1181611ad8565b9050919050565b5f606082019050611b2b5f8301866114d3565b611b3860208301856113fc565b611b4560408301846113fc565b94935050505056fea264697066735822122085a7ee66cb26777732359cd22b98b31517887d34741cb1d671cde3c466b89d0b64736f6c634300081d0033",
					"opcodes": "PUSH1 0x80 PUSH1 0x40 MSTORE CALLVALUE DUP1 ISZERO PUSH2 0xF JUMPI PUSH0 PUSH0 REVERT JUMPDEST POP PUSH1 0x40 MLOAD PUSH2 0x221F CODESIZE SUB DUP1 PUSH2 0x221F DUP4 CODECOPY DUP2 DUP2 ADD PUSH1 0x40 MSTORE DUP2 ADD SWAP1 PUSH2 0x31 SWAP2 SWAP1 PUSH2 0x291 JUMP JUMPDEST CALLER PUSH1 0x40 MLOAD DUP1 PUSH1 0x40 ADD PUSH1 0x40 MSTORE DUP1 PUSH1 0xB DUP2 MSTORE PUSH1 0x20 ADD PUSH32 0x457175697479546F6B656E000000000000000000000000000000000000000000 DUP2 MSTORE POP PUSH1 0x40 MLOAD DUP1 PUSH1 0x40 ADD PUSH1 0x40 MSTORE DUP1 PUSH1 0x3 DUP2 MSTORE PUSH1 0x20 ADD PUSH32 0x4551540000000000000000000000000000000000000000000000000000000000 DUP2 MSTORE POP DUP2 PUSH1 0x3 SWAP1 DUP2 PUSH2 0xAD SWAP2 SWAP1 PUSH2 0x4F0 JUMP JUMPDEST POP DUP1 PUSH1 0x4 SWAP1 DUP2 PUSH2 0xBD SWAP2 SWAP1 PUSH2 0x4F0 JUMP JUMPDEST POP POP POP PUSH0 PUSH20 0xFFFFFFFFFFFFFFFFFFFFFFFFFFFFFFFFFFFFFFFF AND DUP2 PUSH20 0xFFFFFFFFFFFFFFFFFFFFFFFFFFFFFFFFFFFFFFFF AND SUB PUSH2 0x130 JUMPI PUSH0 PUSH1 0x40 MLOAD PUSH32 0x1E4FBDF700000000000000000000000000000000000000000000000000000000 DUP2 MSTORE PUSH1 0x4 ADD PUSH2 0x127 SWAP2 SWAP1 PUSH2 0x5FE JUMP JUMPDEST PUSH1 0x40 MLOAD DUP1 SWAP2 SUB SWAP1 REVERT JUMPDEST PUSH2 0x13F DUP2 PUSH2 0x197 PUSH1 0x20 SHL PUSH1 0x20 SHR JUMP JUMPDEST POP PUSH1 0x1 PUSH1 0x6 DUP2 SWAP1 SSTORE POP PUSH0 DUP2 GT PUSH2 0x18A JUMPI PUSH1 0x40 MLOAD PUSH32 0x8C379A000000000000000000000000000000000000000000000000000000000 DUP2 MSTORE PUSH1 0x4 ADD PUSH2 0x181 SWAP1 PUSH2 0x671 JUMP JUMPDEST PUSH1 0x40 MLOAD DUP1 SWAP2 SUB SWAP1 REVERT JUMPDEST DUP1 PUSH1 0x7 DUP2 SWAP1 SSTORE POP POP PUSH2 0x68F JUMP JUMPDEST PUSH0 PUSH1 0x5 PUSH0 SWAP1 SLOAD SWAP1 PUSH2 0x100 EXP SWAP1 DIV PUSH20 0xFFFFFFFFFFFFFFFFFFFFFFFFFFFFFFFFFFFFFFFF AND SWAP1 POP DUP2 PUSH1 0x5 PUSH0 PUSH2 0x100 EXP DUP2 SLOAD DUP2 PUSH20 0xFFFFFFFFFFFFFFFFFFFFFFFFFFFFFFFFFFFFFFFF MUL NOT AND SWAP1 DUP4 PUSH20 0xFFFFFFFFFFFFFFFFFFFFFFFFFFFFFFFFFFFFFFFF AND MUL OR SWAP1 SSTORE POP DUP2 PUSH20 0xFFFFFFFFFFFFFFFFFFFFFFFFFFFFFFFFFFFFFFFF AND DUP2 PUSH20 0xFFFFFFFFFFFFFFFFFFFFFFFFFFFFFFFFFFFFFFFF AND PUSH32 0x8BE0079C531659141344CD1FD0A4F28419497F9722A3DAAFE3B4186F6B6457E0 PUSH1 0x40 MLOAD PUSH1 0x40 MLOAD DUP1 SWAP2 SUB SWAP1 LOG3 POP POP JUMP JUMPDEST PUSH0 PUSH0 REVERT JUMPDEST PUSH0 DUP2 SWAP1 POP SWAP2 SWAP1 POP JUMP JUMPDEST PUSH2 0x270 DUP2 PUSH2 0x25E JUMP JUMPDEST DUP2 EQ PUSH2 0x27A JUMPI PUSH0 PUSH0 REVERT JUMPDEST POP JUMP JUMPDEST PUSH0 DUP2 MLOAD SWAP1 POP PUSH2 0x28B DUP2 PUSH2 0x267 JUMP JUMPDEST SWAP3 SWAP2 POP POP JUMP JUMPDEST PUSH0 PUSH1 0x20 DUP3 DUP5 SUB SLT ISZERO PUSH2 0x2A6 JUMPI PUSH2 0x2A5 PUSH2 0x25A JUMP JUMPDEST JUMPDEST PUSH0 PUSH2 0x2B3 DUP5 DUP3 DUP6 ADD PUSH2 0x27D JUMP JUMPDEST SWAP2 POP POP SWAP3 SWAP2 POP POP JUMP JUMPDEST PUSH0 DUP2 MLOAD SWAP1 POP SWAP2 SWAP1 POP JUMP JUMPDEST PUSH32 0x4E487B7100000000000000000000000000000000000000000000000000000000 PUSH0 MSTORE PUSH1 0x41 PUSH1 0x4 MSTORE PUSH1 0x24 PUSH0 REVERT JUMPDEST PUSH32 0x4E487B7100000000000000000000000000000000000000000000000000000000 PUSH0 MSTORE PUSH1 0x22 PUSH1 0x4 MSTORE PUSH1 0x24 PUSH0 REVERT JUMPDEST PUSH0 PUSH1 0x2 DUP3 DIV SWAP1 POP PUSH1 0x1 DUP3 AND DUP1 PUSH2 0x337 JUMPI PUSH1 0x7F DUP3 AND SWAP2 POP JUMPDEST PUSH1 0x20 DUP3 LT DUP2 SUB PUSH2 0x34A JUMPI PUSH2 0x349 PUSH2 0x2F3 JUMP JUMPDEST JUMPDEST POP SWAP2 SWAP1 POP JUMP JUMPDEST PUSH0 DUP2 SWAP1 POP DUP2 PUSH0 MSTORE PUSH1 0x20 PUSH0 KECCAK256 SWAP1 POP SWAP2 SWAP1 POP JUMP JUMPDEST PUSH0 PUSH1 0x20 PUSH1 0x1F DUP4 ADD DIV SWAP1 POP SWAP2 SWAP1 POP JUMP JUMPDEST PUSH0 DUP3 DUP3 SHL SWAP1 POP SWAP3 SWAP2 POP POP JUMP JUMPDEST PUSH0 PUSH1 0x8 DUP4 MUL PUSH2 0x3AC PUSH32 0xFFFFFFFFFFFFFFFFFFFFFFFFFFFFFFFFFFFFFFFFFFFFFFFFFFFFFFFFFFFFFFFF DUP3 PUSH2 0x371 JUMP JUMPDEST PUSH2 0x3B6 DUP7 DUP4 PUSH2 0x371 JUMP JUMPDEST SWAP6 POP DUP1 NOT DUP5 AND SWAP4 POP DUP1 DUP7 AND DUP5 OR SWAP3 POP POP POP SWAP4 SWAP3 POP POP POP JUMP JUMPDEST PUSH0 DUP2 SWAP1 POP SWAP2 SWAP1 POP JUMP JUMPDEST PUSH0 PUSH2 0x3F1 PUSH2 0x3EC PUSH2 0x3E7 DUP5 PUSH2 0x25E JUMP JUMPDEST PUSH2 0x3CE JUMP JUMPDEST PUSH2 0x25E JUMP JUMPDEST SWAP1 POP SWAP2 SWAP1 POP JUMP JUMPDEST PUSH0 DUP2 SWAP1 POP SWAP2 SWAP1 POP JUMP JUMPDEST PUSH2 0x40A DUP4 PUSH2 0x3D7 JUMP JUMPDEST PUSH2 0x41E PUSH2 0x416 DUP3 PUSH2 0x3F8 JUMP JUMPDEST DUP5 DUP5 SLOAD PUSH2 0x37D JUMP JUMPDEST DUP3 SSTORE POP POP POP POP JUMP JUMPDEST PUSH0 PUSH0 SWAP1 POP SWAP1 JUMP JUMPDEST PUSH2 0x435 PUSH2 0x426 JUMP JUMPDEST PUSH2 0x440 DUP2 DUP5 DUP5 PUSH2 0x401 JUMP JUMPDEST POP POP POP JUMP JUMPDEST JUMPDEST DUP2 DUP2 LT ISZERO PUSH2 0x463 JUMPI PUSH2 0x458 PUSH0 DUP3 PUSH2 0x42D JUMP JUMPDEST PUSH1 0x1 DUP2 ADD SWAP1 POP PUSH2 0x446 JUMP JUMPDEST POP POP JUMP JUMPDEST PUSH1 0x1F DUP3 GT ISZERO PUSH2 0x4A8 JUMPI PUSH2 0x479 DUP2 PUSH2 0x350 JUMP JUMPDEST PUSH2 0x482 DUP5 PUSH2 0x362 JUMP JUMPDEST DUP2 ADD PUSH1 0x20 DUP6 LT ISZERO PUSH2 0x491 JUMPI DUP2 SWAP1 POP JUMPDEST PUSH2 0x4A5 PUSH2 0x49D DUP6 PUSH2 0x362 JUMP JUMPDEST DUP4 ADD DUP3 PUSH2 0x445 JUMP JUMPDEST POP POP JUMPDEST POP POP POP JUMP JUMPDEST PUSH0 DUP3 DUP3 SHR SWAP1 POP SWAP3 SWAP2 POP POP JUMP JUMPDEST PUSH0 PUSH2 0x4C8 PUSH0 NOT DUP5 PUSH1 0x8 MUL PUSH2 0x4AD JUMP JUMPDEST NOT DUP1 DUP4 AND SWAP2 POP POP SWAP3 SWAP2 POP POP JUMP JUMPDEST PUSH0 PUSH2 0x4E0 DUP4 DUP4 PUSH2 0x4B9 JUMP JUMPDEST SWAP2 POP DUP3 PUSH1 0x2 MUL DUP3 OR SWAP1 POP SWAP3 SWAP2 POP POP JUMP JUMPDEST PUSH2 0x4F9 DUP3 PUSH2 0x2BC JUMP JUMPDEST PUSH8 0xFFFFFFFFFFFFFFFF DUP2 GT ISZERO PUSH2 0x512 JUMPI PUSH2 0x511 PUSH2 0x2C6 JUMP JUMPDEST JUMPDEST PUSH2 0x51C DUP3 SLOAD PUSH2 0x320 JUMP JUMPDEST PUSH2 0x527 DUP3 DUP3 DUP6 PUSH2 0x467 JUMP JUMPDEST PUSH0 PUSH1 0x20 SWAP1 POP PUSH1 0x1F DUP4 GT PUSH1 0x1 DUP2 EQ PUSH2 0x558 JUMPI PUSH0 DUP5 ISZERO PUSH2 0x546 JUMPI DUP3 DUP8 ADD MLOAD SWAP1 POP JUMPDEST PUSH2 0x550 DUP6 DUP3 PUSH2 0x4D5 JUMP JUMPDEST DUP7 SSTORE POP PUSH2 0x5B7 JUMP JUMPDEST PUSH1 0x1F NOT DUP5 AND PUSH2 0x566 DUP7 PUSH2 0x350 JUMP JUMPDEST PUSH0 JUMPDEST DUP3 DUP2 LT ISZERO PUSH2 0x58D JUMPI DUP5 DUP10 ADD MLOAD DUP3 SSTORE PUSH1 0x1 DUP3 ADD SWAP2 POP PUSH1 0x20 DUP6 ADD SWAP5 POP PUSH1 0x20 DUP2 ADD SWAP1 POP PUSH2 0x568 JUMP JUMPDEST DUP7 DUP4 LT ISZERO PUSH2 0x5AA JUMPI DUP5 DUP10 ADD MLOAD PUSH2 0x5A6 PUSH1 0x1F DUP10 AND DUP3 PUSH2 0x4B9 JUMP JUMPDEST DUP4 SSTORE POP JUMPDEST PUSH1 0x1 PUSH1 0x2 DUP9 MUL ADD DUP9 SSTORE POP POP POP JUMPDEST POP POP POP POP POP POP JUMP JUMPDEST PUSH0 PUSH20 0xFFFFFFFFFFFFFFFFFFFFFFFFFFFFFFFFFFFFFFFF DUP3 AND SWAP1 POP SWAP2 SWAP1 POP JUMP JUMPDEST PUSH0 PUSH2 0x5E8 DUP3 PUSH2 0x5BF JUMP JUMPDEST SWAP1 POP SWAP2 SWAP1 POP JUMP JUMPDEST PUSH2 0x5F8 DUP2 PUSH2 0x5DE JUMP JUMPDEST DUP3 MSTORE POP POP JUMP JUMPDEST PUSH0 PUSH1 0x20 DUP3 ADD SWAP1 POP PUSH2 0x611 PUSH0 DUP4 ADD DUP5 PUSH2 0x5EF JUMP JUMPDEST SWAP3 SWAP2 POP POP JUMP JUMPDEST PUSH0 DUP3 DUP3 MSTORE PUSH1 0x20 DUP3 ADD SWAP1 POP SWAP3 SWAP2 POP POP JUMP JUMPDEST PUSH32 0x5072696365206D757374206265203E2030000000000000000000000000000000 PUSH0 DUP3 ADD MSTORE POP JUMP JUMPDEST PUSH0 PUSH2 0x65B PUSH1 0x11 DUP4 PUSH2 0x617 JUMP JUMPDEST SWAP2 POP PUSH2 0x666 DUP3 PUSH2 0x627 JUMP JUMPDEST PUSH1 0x20 DUP3 ADD SWAP1 POP SWAP2 SWAP1 POP JUMP JUMPDEST PUSH0 PUSH1 0x20 DUP3 ADD SWAP1 POP DUP2 DUP2 SUB PUSH0 DUP4 ADD MSTORE PUSH2 0x688 DUP2 PUSH2 0x64F JUMP JUMPDEST SWAP1 POP SWAP2 SWAP1 POP JUMP JUMPDEST PUSH2 0x1B83 DUP1 PUSH2 0x69C PUSH0 CODECOPY PUSH0 RETURN INVALID PUSH1 0x80 PUSH1 0x40 MSTORE PUSH1 0x4 CALLDATASIZE LT PUSH2 0x101 JUMPI PUSH0 CALLDATALOAD PUSH1 0xE0 SHR DUP1 PUSH4 0x70A08231 GT PUSH2 0x94 JUMPI DUP1 PUSH4 0x95D89B41 GT PUSH2 0x63 JUMPI DUP1 PUSH4 0x95D89B41 EQ PUSH2 0x30A JUMPI DUP1 PUSH4 0xA9059CBB EQ PUSH2 0x334 JUMPI DUP1 PUSH4 0xC5C4744C EQ PUSH2 0x370 JUMPI DUP1 PUSH4 0xDD62ED3E EQ PUSH2 0x39A JUMPI DUP1 PUSH4 0xF2FDE38B EQ PUSH2 0x3D6 JUMPI PUSH2 0x110 JUMP JUMPDEST DUP1 PUSH4 0x70A08231 EQ PUSH2 0x264 JUMPI DUP1 PUSH4 0x715018A6 EQ PUSH2 0x2A0 JUMPI DUP1 PUSH4 0x7FF9B596 EQ PUSH2 0x2B6 JUMPI DUP1 PUSH4 0x8DA5CB5B EQ PUSH2 0x2E0 JUMPI PUSH2 0x110 JUMP JUMPDEST DUP1 PUSH4 0x1D838A5D GT PUSH2 0xD0 JUMPI DUP1 PUSH4 0x1D838A5D EQ PUSH2 0x1CC JUMPI DUP1 PUSH4 0x23B872DD EQ PUSH2 0x1D6 JUMPI DUP1 PUSH4 0x313CE567 EQ PUSH2 0x212 JUMPI DUP1 PUSH4 0x676C0D77 EQ PUSH2 0x23C JUMPI PUSH2 0x110 JUMP JUMPDEST DUP1 PUSH4 0x6FDDE03 EQ PUSH2 0x114 JUMPI DUP1 PUSH4 0x95EA7B3 EQ PUSH2 0x13E JUMPI DUP1 PUSH4 0x155DD5EE EQ PUSH2 0x17A JUMPI DUP1 PUSH4 0x18160DDD EQ PUSH2 0x1A2 JUMPI PUSH2 0x110 JUMP JUMPDEST CALLDATASIZE PUSH2 0x110 JUMPI PUSH2 0x10E PUSH2 0x3FE JUMP JUMPDEST STOP JUMPDEST PUSH0 PUSH0 REVERT JUMPDEST CALLVALUE DUP1 ISZERO PUSH2 0x11F JUMPI PUSH0 PUSH0 REVERT JUMPDEST POP PUSH2 0x128 PUSH2 0x5CB JUMP JUMPDEST PUSH1 0x40 MLOAD PUSH2 0x135 SWAP2 SWAP1 PUSH2 0x12AF JUMP JUMPDEST PUSH1 0x40 MLOAD DUP1 SWAP2 SUB SWAP1 RETURN JUMPDEST CALLVALUE DUP1 ISZERO PUSH2 0x149 JUMPI PUSH0 PUSH0 REVERT JUMPDEST POP PUSH2 0x164 PUSH1 0x4 DUP1 CALLDATASIZE SUB DUP2 ADD SWAP1 PUSH2 0x15F SWAP2 SWAP1 PUSH2 0x1360 JUMP JUMPDEST PUSH2 0x65B JUMP JUMPDEST PUSH1 0x40 MLOAD PUSH2 0x171 SWAP2 SWAP1 PUSH2 0x13B8 JUMP JUMPDEST PUSH1 0x40 MLOAD DUP1 SWAP2 SUB SWAP1 RETURN JUMPDEST CALLVALUE DUP1 ISZERO PUSH2 0x185 JUMPI PUSH0 PUSH0 REVERT JUMPDEST POP PUSH2 0x1A0 PUSH1 0x4 DUP1 CALLDATASIZE SUB DUP2 ADD SWAP1 PUSH2 0x19B SWAP2 SWAP1 PUSH2 0x13D1 JUMP JUMPDEST PUSH2 0x67D JUMP JUMPDEST STOP JUMPDEST CALLVALUE DUP1 ISZERO PUSH2 0x1AD JUMPI PUSH0 PUSH0 REVERT JUMPDEST POP PUSH2 0x1B6 PUSH2 0x78B JUMP JUMPDEST PUSH1 0x40 MLOAD PUSH2 0x1C3 SWAP2 SWAP1 PUSH2 0x140B JUMP JUMPDEST PUSH1 0x40 MLOAD DUP1 SWAP2 SUB SWAP1 RETURN JUMPDEST PUSH2 0x1D4 PUSH2 0x3FE JUMP JUMPDEST STOP JUMPDEST CALLVALUE DUP1 ISZERO PUSH2 0x1E1 JUMPI PUSH0 PUSH0 REVERT JUMPDEST POP PUSH2 0x1FC PUSH1 0x4 DUP1 CALLDATASIZE SUB DUP2 ADD SWAP1 PUSH2 0x1F7 SWAP2 SWAP1 PUSH2 0x1424 JUMP JUMPDEST PUSH2 0x794 JUMP JUMPDEST PUSH1 0x40 MLOAD PUSH2 0x209 SWAP2 SWAP1 PUSH2 0x13B8 JUMP JUMPDEST PUSH1 0x40 MLOAD DUP1 SWAP2 SUB SWAP1 RETURN JUMPDEST CALLVALUE DUP1 ISZERO PUSH2 0x21D JUMPI PUSH0 PUSH0 REVERT JUMPDEST POP PUSH2 0x226 PUSH2 0x7C2 JUMP JUMPDEST PUSH1 0x40 MLOAD PUSH2 0x233 SWAP2 SWAP1 PUSH2 0x148F JUMP JUMPDEST PUSH1 0x40 MLOAD DUP1 SWAP2 SUB SWAP1 RETURN JUMPDEST CALLVALUE DUP1 ISZERO PUSH2 0x247 JUMPI PUSH0 PUSH0 REVERT JUMPDEST POP PUSH2 0x262 PUSH1 0x4 DUP1 CALLDATASIZE SUB DUP2 ADD SWAP1 PUSH2 0x25D SWAP2 SWAP1 PUSH2 0x13D1 JUMP JUMPDEST PUSH2 0x7CA JUMP JUMPDEST STOP JUMPDEST CALLVALUE DUP1 ISZERO PUSH2 0x26F JUMPI PUSH0 PUSH0 REVERT JUMPDEST POP PUSH2 0x28A PUSH1 0x4 DUP1 CALLDATASIZE SUB DUP2 ADD SWAP1 PUSH2 0x285 SWAP2 SWAP1 PUSH2 0x14A8 JUMP JUMPDEST PUSH2 0x855 JUMP JUMPDEST PUSH1 0x40 MLOAD PUSH2 0x297 SWAP2 SWAP1 PUSH2 0x140B JUMP JUMPDEST PUSH1 0x40 MLOAD DUP1 SWAP2 SUB SWAP1 RETURN JUMPDEST CALLVALUE DUP1 ISZERO PUSH2 0x2AB JUMPI PUSH0 PUSH0 REVERT JUMPDEST POP PUSH2 0x2B4 PUSH2 0x89A JUMP JUMPDEST STOP JUMPDEST CALLVALUE DUP1 ISZERO PUSH2 0x2C1 JUMPI PUSH0 PUSH0 REVERT JUMPDEST POP PUSH2 0x2CA PUSH2 0x8AD JUMP JUMPDEST PUSH1 0x40 MLOAD PUSH2 0x2D7 SWAP2 SWAP1 PUSH2 0x140B JUMP JUMPDEST PUSH1 0x40 MLOAD DUP1 SWAP2 SUB SWAP1 RETURN JUMPDEST CALLVALUE DUP1 ISZERO PUSH2 0x2EB JUMPI PUSH0 PUSH0 REVERT JUMPDEST POP PUSH2 0x2F4 PUSH2 0x8B3 JUMP JUMPDEST PUSH1 0x40 MLOAD PUSH2 0x301 SWAP2 SWAP1 PUSH2 0x14E2 JUMP JUMPDEST PUSH1 0x40 MLOAD DUP1 SWAP2 SUB SWAP1 RETURN JUMPDEST CALLVALUE DUP1 ISZERO PUSH2 0x315 JUMPI PUSH0 PUSH0 REVERT JUMPDEST POP PUSH2 0x31E PUSH2 0x8DB JUMP JUMPDEST PUSH1 0x40 MLOAD PUSH2 0x32B SWAP2 SWAP1 PUSH2 0x12AF JUMP JUMPDEST PUSH1 0x40 MLOAD DUP1 SWAP2 SUB SWAP1 RETURN JUMPDEST CALLVALUE DUP1 ISZERO PUSH2 0x33F JUMPI PUSH0 PUSH0 REVERT JUMPDEST POP PUSH2 0x35A PUSH1 0x4 DUP1 CALLDATASIZE SUB DUP2 ADD SWAP1 PUSH2 0x355 SWAP2 SWAP1 PUSH2 0x1360 JUMP JUMPDEST PUSH2 0x96B JUMP JUMPDEST PUSH1 0x40 MLOAD PUSH2 0x367 SWAP2 SWAP1 PUSH2 0x13B8 JUMP JUMPDEST PUSH1 0x40 MLOAD DUP1 SWAP2 SUB SWAP1 RETURN JUMPDEST CALLVALUE DUP1 ISZERO PUSH2 0x37B JUMPI PUSH0 PUSH0 REVERT JUMPDEST POP PUSH2 0x384 PUSH2 0x98D JUMP JUMPDEST PUSH1 0x40 MLOAD PUSH2 0x391 SWAP2 SWAP1 PUSH2 0x140B JUMP JUMPDEST PUSH1 0x40 MLOAD DUP1 SWAP2 SUB SWAP1 RETURN JUMPDEST CALLVALUE DUP1 ISZERO PUSH2 0x3A5 JUMPI PUSH0 PUSH0 REVERT JUMPDEST POP PUSH2 0x3C0 PUSH1 0x4 DUP1 CALLDATASIZE SUB DUP2 ADD SWAP1 PUSH2 0x3BB SWAP2 SWAP1 PUSH2 0x14FB JUMP JUMPDEST PUSH2 0x993 JUMP JUMPDEST PUSH1 0x40 MLOAD PUSH2 0x3CD SWAP2 SWAP1 PUSH2 0x140B JUMP JUMPDEST PUSH1 0x40 MLOAD DUP1 SWAP2 SUB SWAP1 RETURN JUMPDEST CALLVALUE DUP1 ISZERO PUSH2 0x3E1 JUMPI PUSH0 PUSH0 REVERT JUMPDEST POP PUSH2 0x3FC PUSH1 0x4 DUP1 CALLDATASIZE SUB DUP2 ADD SWAP1 PUSH2 0x3F7 SWAP2 SWAP1 PUSH2 0x14A8 JUMP JUMPDEST PUSH2 0xA15 JUMP JUMPDEST STOP JUMPDEST PUSH2 0x406 PUSH2 0xA99 JUMP JUMPDEST PUSH1 0x7 SLOAD CALLVALUE LT ISZERO PUSH2 0x44B JUMPI PUSH1 0x40 MLOAD PUSH32 0x8C379A000000000000000000000000000000000000000000000000000000000 DUP2 MSTORE PUSH1 0x4 ADD PUSH2 0x442 SWAP1 PUSH2 0x1583 JUMP JUMPDEST PUSH1 0x40 MLOAD DUP1 SWAP2 SUB SWAP1 REVERT JUMPDEST PUSH0 PUSH1 0x7 SLOAD CALLVALUE PUSH2 0x45A SWAP2 SWAP1 PUSH2 0x15FB JUMP JUMPDEST SWAP1 POP PUSH0 PUSH1 0x7 SLOAD DUP3 PUSH2 0x46B SWAP2 SWAP1 PUSH2 0x162B JUMP JUMPDEST SWAP1 POP PUSH0 DUP2 CALLVALUE PUSH2 0x47A SWAP2 SWAP1 PUSH2 0x166C JUMP JUMPDEST SWAP1 POP DUP2 PUSH1 0x8 PUSH0 DUP3 DUP3 SLOAD PUSH2 0x48D SWAP2 SWAP1 PUSH2 0x169F JUMP JUMPDEST SWAP3 POP POP DUP2 SWAP1 SSTORE POP PUSH2 0x4BC CALLER PUSH2 0x4A0 PUSH2 0x7C2 JUMP JUMPDEST PUSH1 0xA PUSH2 0x4AC SWAP2 SWAP1 PUSH2 0x1801 JUMP JUMPDEST DUP6 PUSH2 0x4B7 SWAP2 SWAP1 PUSH2 0x162B JUMP JUMPDEST PUSH2 0xAE8 JUMP JUMPDEST PUSH0 DUP2 GT ISZERO PUSH2 0x56E JUMPI PUSH0 CALLER PUSH20 0xFFFFFFFFFFFFFFFFFFFFFFFFFFFFFFFFFFFFFFFF AND DUP3 PUSH1 0x40 MLOAD PUSH2 0x4E9 SWAP1 PUSH2 0x1878 JUMP JUMPDEST PUSH0 PUSH1 0x40 MLOAD DUP1 DUP4 SUB DUP2 DUP6 DUP8 GAS CALL SWAP3 POP POP POP RETURNDATASIZE DUP1 PUSH0 DUP2 EQ PUSH2 0x523 JUMPI PUSH1 0x40 MLOAD SWAP2 POP PUSH1 0x1F NOT PUSH1 0x3F RETURNDATASIZE ADD AND DUP3 ADD PUSH1 0x40 MSTORE RETURNDATASIZE DUP3 MSTORE RETURNDATASIZE PUSH0 PUSH1 0x20 DUP5 ADD RETURNDATACOPY PUSH2 0x528 JUMP JUMPDEST PUSH1 0x60 SWAP2 POP JUMPDEST POP POP SWAP1 POP DUP1 PUSH2 0x56C JUMPI PUSH1 0x40 MLOAD PUSH32 0x8C379A000000000000000000000000000000000000000000000000000000000 DUP2 MSTORE PUSH1 0x4 ADD PUSH2 0x563 SWAP1 PUSH2 0x18D6 JUMP JUMPDEST PUSH1 0x40 MLOAD DUP1 SWAP2 SUB SWAP1 REVERT JUMPDEST POP JUMPDEST CALLER PUSH20 0xFFFFFFFFFFFFFFFFFFFFFFFFFFFFFFFFFFFFFFFF AND PUSH32 0x3EE7B70B453A6D54D57D8C4601395FC4110AA851CE3597C3C909EFC0826C82A6 DUP5 DUP5 PUSH1 0x40 MLOAD PUSH2 0x5B6 SWAP3 SWAP2 SWAP1 PUSH2 0x18F4 JUMP JUMPDEST PUSH1 0x40 MLOAD DUP1 SWAP2 SUB SWAP1 LOG2 POP POP POP PUSH2 0x5C9 PUSH2 0xB67 JUMP JUMPDEST JUMP JUMPDEST PUSH1 0x60 PUSH1 0x3 DUP1 SLOAD PUSH2 0x5DA SWAP1 PUSH2 0x1948 JUMP JUMPDEST DUP1 PUSH1 0x1F ADD PUSH1 0x20 DUP1 SWAP2 DIV MUL PUSH1 0x20 ADD PUSH1 0x40 MLOAD SWAP1 DUP2 ADD PUSH1 0x40 MSTORE DUP1 SWAP3 SWAP2 SWAP1 DUP2 DUP2 MSTORE PUSH1 0x20 ADD DUP3 DUP1 SLOAD PUSH2 0x606 SWAP1 PUSH2 0x1948 JUMP JUMPDEST DUP1 ISZERO PUSH2 0x651 JUMPI DUP1 PUSH1 0x1F LT PUSH2 0x628 JUMPI PUSH2 0x100 DUP1 DUP4 SLOAD DIV MUL DUP4 MSTORE SWAP2 PUSH1 0x20 ADD SWAP2 PUSH2 0x651 JUMP JUMPDEST DUP3 ADD SWAP2 SWAP1 PUSH0 MSTORE PUSH1 0x20 PUSH0 KECCAK256 SWAP1 JUMPDEST DUP2 SLOAD DUP2 MSTORE SWAP1 PUSH1 0x1 ADD SWAP1 PUSH1 0x20 ADD DUP1 DUP4 GT PUSH2 0x634 JUMPI DUP3 SWAP1 SUB PUSH1 0x1F AND DUP3 ADD SWAP2 JUMPDEST POP POP POP POP POP SWAP1 POP SWAP1 JUMP JUMPDEST PUSH0 PUSH0 PUSH2 0x665 PUSH2 0xB71 JUMP JUMPDEST SWAP1 POP PUSH2 0x672 DUP2 DUP6 DUP6 PUSH2 0xB78 JUMP JUMPDEST PUSH1 0x1 SWAP2 POP POP SWAP3 SWAP2 POP POP JUMP JUMPDEST PUSH2 0x685 PUSH2 0xB8A JUMP JUMPDEST PUSH2 0x68D PUSH2 0xA99 JUMP JUMPDEST SELFBALANCE DUP2 GT ISZERO PUSH2 0x6D0 JUMPI PUSH1 0x40 MLOAD PUSH32 0x8C379A000000000000000000000000000000000000000000000000000000000 DUP2 MSTORE PUSH1 0x4 ADD PUSH2 0x6C7 SWAP1 PUSH2 0x19C2 JUMP JUMPDEST PUSH1 0x40 MLOAD DUP1 SWAP2 SUB SWAP1 REVERT JUMPDEST PUSH0 PUSH2 0x6D9 PUSH2 0x8B3 JUMP JUMPDEST PUSH20 0xFFFFFFFFFFFFFFFFFFFFFFFFFFFFFFFFFFFFFFFF AND DUP3 PUSH1 0x40 MLOAD PUSH2 0x6FC SWAP1 PUSH2 0x1878 JUMP JUMPDEST PUSH0 PUSH1 0x40 MLOAD DUP1 DUP4 SUB DUP2 DUP6 DUP8 GAS CALL SWAP3 POP POP POP RETURNDATASIZE DUP1 PUSH0 DUP2 EQ PUSH2 0x736 JUMPI PUSH1 0x40 MLOAD SWAP2 POP PUSH1 0x1F NOT PUSH1 0x3F RETURNDATASIZE ADD AND DUP3 ADD PUSH1 0x40 MSTORE RETURNDATASIZE DUP3 MSTORE RETURNDATASIZE PUSH0 PUSH1 0x20 DUP5 ADD RETURNDATACOPY PUSH2 0x73B JUMP JUMPDEST PUSH1 0x60 SWAP2 POP JUMPDEST POP POP SWAP1 POP DUP1 PUSH2 0x77F JUMPI PUSH1 0x40 MLOAD PUSH32 0x8C379A000000000000000000000000000000000000000000000000000000000 DUP2 MSTORE PUSH1 0x4 ADD PUSH2 0x776 SWAP1 PUSH2 0x1A2A JUMP JUMPDEST PUSH1 0x40 MLOAD DUP1 SWAP2 SUB SWAP1 REVERT JUMPDEST POP PUSH2 0x788 PUSH2 0xB67 JUMP JUMPDEST POP JUMP JUMPDEST PUSH0 PUSH1 0x2 SLOAD SWAP1 POP SWAP1 JUMP JUMPDEST PUSH0 PUSH0 PUSH2 0x79E PUSH2 0xB71 JUMP JUMPDEST SWAP1 POP PUSH2 0x7AB DUP6 DUP3 DUP6 PUSH2 0xC11 JUMP JUMPDEST PUSH2 0x7B6 DUP6 DUP6 DUP6 PUSH2 0xCA4 JUMP JUMPDEST PUSH1 0x1 SWAP2 POP POP SWAP4 SWAP3 POP POP POP JUMP JUMPDEST PUSH0 PUSH1 0x12 SWAP1 POP SWAP1 JUMP JUMPDEST PUSH2 0x7D2 PUSH2 0xB8A JUMP JUMPDEST PUSH0 DUP2 GT PUSH2 0x814 JUMPI PUSH1 0x40 MLOAD PUSH32 0x8C379A000000000000000000000000000000000000000000000000000000000 DUP2 MSTORE PUSH1 0x4 ADD PUSH2 0x80B SWAP1 PUSH2 0x1A92 JUMP JUMPDEST PUSH1 0x40 MLOAD DUP1 SWAP2 SUB SWAP1 REVERT JUMPDEST DUP1 PUSH1 0x7 DUP2 SWAP1 SSTORE POP PUSH32 0x6B361C807733CC94A3B7BDA39C1C94DCC0511E91AA47B0F7F918068E93976890 DUP2 PUSH1 0x40 MLOAD PUSH2 0x84A SWAP2 SWAP1 PUSH2 0x140B JUMP JUMPDEST PUSH1 0x40 MLOAD DUP1 SWAP2 SUB SWAP1 LOG1 POP JUMP JUMPDEST PUSH0 PUSH0 PUSH0 DUP4 PUSH20 0xFFFFFFFFFFFFFFFFFFFFFFFFFFFFFFFFFFFFFFFF AND PUSH20 0xFFFFFFFFFFFFFFFFFFFFFFFFFFFFFFFFFFFFFFFF AND DUP2 MSTORE PUSH1 0x20 ADD SWAP1 DUP2 MSTORE PUSH1 0x20 ADD PUSH0 KECCAK256 SLOAD SWAP1 POP SWAP2 SWAP1 POP JUMP JUMPDEST PUSH2 0x8A2 PUSH2 0xB8A JUMP JUMPDEST PUSH2 0x8AB PUSH0 PUSH2 0xD94 JUMP JUMPDEST JUMP JUMPDEST PUSH1 0x7 SLOAD DUP2 JUMP JUMPDEST PUSH0 PUSH1 0x5 PUSH0 SWAP1 SLOAD SWAP1 PUSH2 0x100 EXP SWAP1 DIV PUSH20 0xFFFFFFFFFFFFFFFFFFFFFFFFFFFFFFFFFFFFFFFF AND SWAP1 POP SWAP1 JUMP JUMPDEST PUSH1 0x60 PUSH1 0x4 DUP1 SLOAD PUSH2 0x8EA SWAP1 PUSH2 0x1948 JUMP JUMPDEST DUP1 PUSH1 0x1F ADD PUSH1 0x20 DUP1 SWAP2 DIV MUL PUSH1 0x20 ADD PUSH1 0x40 MLOAD SWAP1 DUP2 ADD PUSH1 0x40 MSTORE DUP1 SWAP3 SWAP2 SWAP1 DUP2 DUP2 MSTORE PUSH1 0x20 ADD DUP3 DUP1 SLOAD PUSH2 0x916 SWAP1 PUSH2 0x1948 JUMP JUMPDEST DUP1 ISZERO PUSH2 0x961 JUMPI DUP1 PUSH1 0x1F LT PUSH2 0x938 JUMPI PUSH2 0x100 DUP1 DUP4 SLOAD DIV MUL DUP4 MSTORE SWAP2 PUSH1 0x20 ADD SWAP2 PUSH2 0x961 JUMP JUMPDEST DUP3 ADD SWAP2 SWAP1 PUSH0 MSTORE PUSH1 0x20 PUSH0 KECCAK256 SWAP1 JUMPDEST DUP2 SLOAD DUP2 MSTORE SWAP1 PUSH1 0x1 ADD SWAP1 PUSH1 0x20 ADD DUP1 DUP4 GT PUSH2 0x944 JUMPI DUP3 SWAP1 SUB PUSH1 0x1F AND DUP3 ADD SWAP2 JUMPDEST POP POP POP POP POP SWAP1 POP SWAP1 JUMP JUMPDEST PUSH0 PUSH0 PUSH2 0x975 PUSH2 0xB71 JUMP JUMPDEST SWAP1 POP PUSH2 0x982 DUP2 DUP6 DUP6 PUSH2 0xCA4 JUMP JUMPDEST PUSH1 0x1 SWAP2 POP POP SWAP3 SWAP2 POP POP JUMP JUMPDEST PUSH1 0x8 SLOAD DUP2 JUMP JUMPDEST PUSH0 PUSH1 0x1 PUSH0 DUP5 PUSH20 0xFFFFFFFFFFFFFFFFFFFFFFFFFFFFFFFFFFFFFFFF AND PUSH20 0xFFFFFFFFFFFFFFFFFFFFFFFFFFFFFFFFFFFFFFFF AND DUP2 MSTORE PUSH1 0x20 ADD SWAP1 DUP2 MSTORE PUSH1 0x20 ADD PUSH0 KECCAK256 PUSH0 DUP4 PUSH20 0xFFFFFFFFFFFFFFFFFFFFFFFFFFFFFFFFFFFFFFFF AND PUSH20 0xFFFFFFFFFFFFFFFFFFFFFFFFFFFFFFFFFFFFFFFF AND DUP2 MSTORE PUSH1 0x20 ADD SWAP1 DUP2 MSTORE PUSH1 0x20 ADD PUSH0 KECCAK256 SLOAD SWAP1 POP SWAP3 SWAP2 POP POP JUMP JUMPDEST PUSH2 0xA1D PUSH2 0xB8A JUMP JUMPDEST PUSH0 PUSH20 0xFFFFFFFFFFFFFFFFFFFFFFFFFFFFFFFFFFFFFFFF AND DUP2 PUSH20 0xFFFFFFFFFFFFFFFFFFFFFFFFFFFFFFFFFFFFFFFF AND SUB PUSH2 0xA8D JUMPI PUSH0 PUSH1 0x40 MLOAD PUSH32 0x1E4FBDF700000000000000000000000000000000000000000000000000000000 DUP2 MSTORE PUSH1 0x4 ADD PUSH2 0xA84 SWAP2 SWAP1 PUSH2 0x14E2 JUMP JUMPDEST PUSH1 0x40 MLOAD DUP1 SWAP2 SUB SWAP1 REVERT JUMPDEST PUSH2 0xA96 DUP2 PUSH2 0xD94 JUMP JUMPDEST POP JUMP JUMPDEST PUSH1 0x2 PUSH1 0x6 SLOAD SUB PUSH2 0xADE JUMPI PUSH1 0x40 MLOAD PUSH32 0x8C379A000000000000000000000000000000000000000000000000000000000 DUP2 MSTORE PUSH1 0x4 ADD PUSH2 0xAD5 SWAP1 PUSH2 0x1AFA JUMP JUMPDEST PUSH1 0x40 MLOAD DUP1 SWAP2 SUB SWAP1 REVERT JUMPDEST PUSH1 0x2 PUSH1 0x6 DUP2 SWAP1 SSTORE POP JUMP JUMPDEST PUSH0 PUSH20 0xFFFFFFFFFFFFFFFFFFFFFFFFFFFFFFFFFFFFFFFF AND DUP3 PUSH20 0xFFFFFFFFFFFFFFFFFFFFFFFFFFFFFFFFFFFFFFFF AND SUB PUSH2 0xB58 JUMPI PUSH0 PUSH1 0x40 MLOAD PUSH32 0xEC442F0500000000000000000000000000000000000000000000000000000000 DUP2 MSTORE PUSH1 0x4 ADD PUSH2 0xB4F SWAP2 SWAP1 PUSH2 0x14E2 JUMP JUMPDEST PUSH1 0x40 MLOAD DUP1 SWAP2 SUB SWAP1 REVERT JUMPDEST PUSH2 0xB63 PUSH0 DUP4 DUP4 PUSH2 0xE57 JUMP JUMPDEST POP POP JUMP JUMPDEST PUSH1 0x1 PUSH1 0x6 DUP2 SWAP1 SSTORE POP JUMP JUMPDEST PUSH0 CALLER SWAP1 POP SWAP1 JUMP JUMPDEST PUSH2 0xB85 DUP4 DUP4 DUP4 PUSH1 0x1 PUSH2 0x1070 JUMP JUMPDEST POP POP POP JUMP JUMPDEST PUSH2 0xB92 PUSH2 0xB71 JUMP JUMPDEST PUSH20 0xFFFFFFFFFFFFFFFFFFFFFFFFFFFFFFFFFFFFFFFF AND PUSH2 0xBB0 PUSH2 0x8B3 JUMP JUMPDEST PUSH20 0xFFFFFFFFFFFFFFFFFFFFFFFFFFFFFFFFFFFFFFFF AND EQ PUSH2 0xC0F JUMPI PUSH2 0xBD3 PUSH2 0xB71 JUMP JUMPDEST PUSH1 0x40 MLOAD PUSH32 0x118CDAA700000000000000000000000000000000000000000000000000000000 DUP2 MSTORE PUSH1 0x4 ADD PUSH2 0xC06 SWAP2 SWAP1 PUSH2 0x14E2 JUMP JUMPDEST PUSH1 0x40 MLOAD DUP1 SWAP2 SUB SWAP1 REVERT JUMPDEST JUMP JUMPDEST PUSH0 PUSH2 0xC1C DUP5 DUP5 PUSH2 0x993 JUMP JUMPDEST SWAP1 POP PUSH32 0xFFFFFFFFFFFFFFFFFFFFFFFFFFFFFFFFFFFFFFFFFFFFFFFFFFFFFFFFFFFFFFFF DUP2 LT ISZERO PUSH2 0xC9E JUMPI DUP2 DUP2 LT ISZERO PUSH2 0xC8F JUMPI DUP3 DUP2 DUP4 PUSH1 0x40 MLOAD PUSH32 0xFB8F41B200000000000000000000000000000000000000000000000000000000 DUP2 MSTORE PUSH1 0x4 ADD PUSH2 0xC86 SWAP4 SWAP3 SWAP2 SWAP1 PUSH2 0x1B18 JUMP JUMPDEST PUSH1 0x40 MLOAD DUP1 SWAP2 SUB SWAP1 REVERT JUMPDEST PUSH2 0xC9D DUP5 DUP5 DUP5 DUP5 SUB PUSH0 PUSH2 0x1070 JUMP JUMPDEST JUMPDEST POP POP POP POP JUMP JUMPDEST PUSH0 PUSH20 0xFFFFFFFFFFFFFFFFFFFFFFFFFFFFFFFFFFFFFFFF AND DUP4 PUSH20 0xFFFFFFFFFFFFFFFFFFFFFFFFFFFFFFFFFFFFFFFF AND SUB PUSH2 0xD14 JUMPI PUSH0 PUSH1 0x40 MLOAD PUSH32 0x96C6FD1E00000000000000000000000000000000000000000000000000000000 DUP2 MSTORE PUSH1 0x4 ADD PUSH2 0xD0B SWAP2 SWAP1 PUSH2 0x14E2 JUMP JUMPDEST PUSH1 0x40 MLOAD DUP1 SWAP2 SUB SWAP1 REVERT JUMPDEST PUSH0 PUSH20 0xFFFFFFFFFFFFFFFFFFFFFFFFFFFFFFFFFFFFFFFF AND DUP3 PUSH20 0xFFFFFFFFFFFFFFFFFFFFFFFFFFFFFFFFFFFFFFFF AND SUB PUSH2 0xD84 JUMPI PUSH0 PUSH1 0x40 MLOAD PUSH32 0xEC442F0500000000000000000000000000000000000000000000000000000000 DUP2 MSTORE PUSH1 0x4 ADD PUSH2 0xD7B SWAP2 SWAP1 PUSH2 0x14E2 JUMP JUMPDEST PUSH1 0x40 MLOAD DUP1 SWAP2 SUB SWAP1 REVERT JUMPDEST PUSH2 0xD8F DUP4 DUP4 DUP4 PUSH2 0xE57 JUMP JUMPDEST POP POP POP JUMP JUMPDEST PUSH0 PUSH1 0x5 PUSH0 SWAP1 SLOAD SWAP1 PUSH2 0x100 EXP SWAP1 DIV PUSH20 0xFFFFFFFFFFFFFFFFFFFFFFFFFFFFFFFFFFFFFFFF AND SWAP1 POP DUP2 PUSH1 0x5 PUSH0 PUSH2 0x100 EXP DUP2 SLOAD DUP2 PUSH20 0xFFFFFFFFFFFFFFFFFFFFFFFFFFFFFFFFFFFFFFFF MUL NOT AND SWAP1 DUP4 PUSH20 0xFFFFFFFFFFFFFFFFFFFFFFFFFFFFFFFFFFFFFFFF AND MUL OR SWAP1 SSTORE POP DUP2 PUSH20 0xFFFFFFFFFFFFFFFFFFFFFFFFFFFFFFFFFFFFFFFF AND DUP2 PUSH20 0xFFFFFFFFFFFFFFFFFFFFFFFFFFFFFFFFFFFFFFFF AND PUSH32 0x8BE0079C531659141344CD1FD0A4F28419497F9722A3DAAFE3B4186F6B6457E0 PUSH1 0x40 MLOAD PUSH1 0x40 MLOAD DUP1 SWAP2 SUB SWAP1 LOG3 POP POP JUMP JUMPDEST PUSH0 PUSH20 0xFFFFFFFFFFFFFFFFFFFFFFFFFFFFFFFFFFFFFFFF AND DUP4 PUSH20 0xFFFFFFFFFFFFFFFFFFFFFFFFFFFFFFFFFFFFFFFF AND SUB PUSH2 0xEA7 JUMPI DUP1 PUSH1 0x2 PUSH0 DUP3 DUP3 SLOAD PUSH2 0xE9B SWAP2 SWAP1 PUSH2 0x169F JUMP JUMPDEST SWAP3 POP POP DUP2 SWAP1 SSTORE POP PUSH2 0xF75 JUMP JUMPDEST PUSH0 PUSH0 PUSH0 DUP6 PUSH20 0xFFFFFFFFFFFFFFFFFFFFFFFFFFFFFFFFFFFFFFFF AND PUSH20 0xFFFFFFFFFFFFFFFFFFFFFFFFFFFFFFFFFFFFFFFF AND DUP2 MSTORE PUSH1 0x20 ADD SWAP1 DUP2 MSTORE PUSH1 0x20 ADD PUSH0 KECCAK256 SLOAD SWAP1 POP DUP2 DUP2 LT ISZERO PUSH2 0xF30 JUMPI DUP4 DUP2 DUP4 PUSH1 0x40 MLOAD PUSH32 0xE450D38C00000000000000000000000000000000000000000000000000000000 DUP2 MSTORE PUSH1 0x4 ADD PUSH2 0xF27 SWAP4 SWAP3 SWAP2 SWAP1 PUSH2 0x1B18 JUMP JUMPDEST PUSH1 0x40 MLOAD DUP1 SWAP2 SUB SWAP1 REVERT JUMPDEST DUP2 DUP2 SUB PUSH0 PUSH0 DUP7 PUSH20 0xFFFFFFFFFFFFFFFFFFFFFFFFFFFFFFFFFFFFFFFF AND PUSH20 0xFFFFFFFFFFFFFFFFFFFFFFFFFFFFFFFFFFFFFFFF AND DUP2 MSTORE PUSH1 0x20 ADD SWAP1 DUP2 MSTORE PUSH1 0x20 ADD PUSH0 KECCAK256 DUP2 SWAP1 SSTORE POP POP JUMPDEST PUSH0 PUSH20 0xFFFFFFFFFFFFFFFFFFFFFFFFFFFFFFFFFFFFFFFF AND DUP3 PUSH20 0xFFFFFFFFFFFFFFFFFFFFFFFFFFFFFFFFFFFFFFFF AND SUB PUSH2 0xFBC JUMPI DUP1 PUSH1 0x2 PUSH0 DUP3 DUP3 SLOAD SUB SWAP3 POP POP DUP2 SWAP1 SSTORE POP PUSH2 0x1006 JUMP JUMPDEST DUP1 PUSH0 PUSH0 DUP5 PUSH20 0xFFFFFFFFFFFFFFFFFFFFFFFFFFFFFFFFFFFFFFFF AND PUSH20 0xFFFFFFFFFFFFFFFFFFFFFFFFFFFFFFFFFFFFFFFF AND DUP2 MSTORE PUSH1 0x20 ADD SWAP1 DUP2 MSTORE PUSH1 0x20 ADD PUSH0 KECCAK256 PUSH0 DUP3 DUP3 SLOAD ADD SWAP3 POP POP DUP2 SWAP1 SSTORE POP JUMPDEST DUP2 PUSH20 0xFFFFFFFFFFFFFFFFFFFFFFFFFFFFFFFFFFFFFFFF AND DUP4 PUSH20 0xFFFFFFFFFFFFFFFFFFFFFFFFFFFFFFFFFFFFFFFF AND PUSH32 0xDDF252AD1BE2C89B69C2B068FC378DAA952BA7F163C4A11628F55A4DF523B3EF DUP4 PUSH1 0x40 MLOAD PUSH2 0x1063 SWAP2 SWAP1 PUSH2 0x140B JUMP JUMPDEST PUSH1 0x40 MLOAD DUP1 SWAP2 SUB SWAP1 LOG3 POP POP POP JUMP JUMPDEST PUSH0 PUSH20 0xFFFFFFFFFFFFFFFFFFFFFFFFFFFFFFFFFFFFFFFF AND DUP5 PUSH20 0xFFFFFFFFFFFFFFFFFFFFFFFFFFFFFFFFFFFFFFFF AND SUB PUSH2 0x10E0 JUMPI PUSH0 PUSH1 0x40 MLOAD PUSH32 0xE602DF0500000000000000000000000000000000000000000000000000000000 DUP2 MSTORE PUSH1 0x4 ADD PUSH2 0x10D7 SWAP2 SWAP1 PUSH2 0x14E2 JUMP JUMPDEST PUSH1 0x40 MLOAD DUP1 SWAP2 SUB SWAP1 REVERT JUMPDEST PUSH0 PUSH20 0xFFFFFFFFFFFFFFFFFFFFFFFFFFFFFFFFFFFFFFFF AND DUP4 PUSH20 0xFFFFFFFFFFFFFFFFFFFFFFFFFFFFFFFFFFFFFFFF AND SUB PUSH2 0x1150 JUMPI PUSH0 PUSH1 0x40 MLOAD PUSH32 0x94280D6200000000000000000000000000000000000000000000000000000000 DUP2 MSTORE PUSH1 0x4 ADD PUSH2 0x1147 SWAP2 SWAP1 PUSH2 0x14E2 JUMP JUMPDEST PUSH1 0x40 MLOAD DUP1 SWAP2 SUB SWAP1 REVERT JUMPDEST DUP2 PUSH1 0x1 PUSH0 DUP7 PUSH20 0xFFFFFFFFFFFFFFFFFFFFFFFFFFFFFFFFFFFFFFFF AND PUSH20 0xFFFFFFFFFFFFFFFFFFFFFFFFFFFFFFFFFFFFFFFF AND DUP2 MSTORE PUSH1 0x20 ADD SWAP1 DUP2 MSTORE PUSH1 0x20 ADD PUSH0 KECCAK256 PUSH0 DUP6 PUSH20 0xFFFFFFFFFFFFFFFFFFFFFFFFFFFFFFFFFFFFFFFF AND PUSH20 0xFFFFFFFFFFFFFFFFFFFFFFFFFFFFFFFFFFFFFFFF AND DUP2 MSTORE PUSH1 0x20 ADD SWAP1 DUP2 MSTORE PUSH1 0x20 ADD PUSH0 KECCAK256 DUP2 SWAP1 SSTORE POP DUP1 ISZERO PUSH2 0x1239 JUMPI DUP3 PUSH20 0xFFFFFFFFFFFFFFFFFFFFFFFFFFFFFFFFFFFFFFFF AND DUP5 PUSH20 0xFFFFFFFFFFFFFFFFFFFFFFFFFFFFFFFFFFFFFFFF AND PUSH32 0x8C5BE1E5EBEC7D5BD14F71427D1E84F3DD0314C0F7B2291E5B200AC8C7C3B925 DUP5 PUSH1 0x40 MLOAD PUSH2 0x1230 SWAP2 SWAP1 PUSH2 0x140B JUMP JUMPDEST PUSH1 0x40 MLOAD DUP1 SWAP2 SUB SWAP1 LOG3 JUMPDEST POP POP POP POP JUMP JUMPDEST PUSH0 DUP2 MLOAD SWAP1 POP SWAP2 SWAP1 POP JUMP JUMPDEST PUSH0 DUP3 DUP3 MSTORE PUSH1 0x20 DUP3 ADD SWAP1 POP SWAP3 SWAP2 POP POP JUMP JUMPDEST DUP3 DUP2 DUP4 MCOPY PUSH0 DUP4 DUP4 ADD MSTORE POP POP POP JUMP JUMPDEST PUSH0 PUSH1 0x1F NOT PUSH1 0x1F DUP4 ADD AND SWAP1 POP SWAP2 SWAP1 POP JUMP JUMPDEST PUSH0 PUSH2 0x1281 DUP3 PUSH2 0x123F JUMP JUMPDEST PUSH2 0x128B DUP2 DUP6 PUSH2 0x1249 JUMP JUMPDEST SWAP4 POP PUSH2 0x129B DUP2 DUP6 PUSH1 0x20 DUP7 ADD PUSH2 0x1259 JUMP JUMPDEST PUSH2 0x12A4 DUP2 PUSH2 0x1267 JUMP JUMPDEST DUP5 ADD SWAP2 POP POP SWAP3 SWAP2 POP POP JUMP JUMPDEST PUSH0 PUSH1 0x20 DUP3 ADD SWAP1 POP DUP2 DUP2 SUB PUSH0 DUP4 ADD MSTORE PUSH2 0x12C7 DUP2 DUP5 PUSH2 0x1277 JUMP JUMPDEST SWAP1 POP SWAP3 SWAP2 POP POP JUMP JUMPDEST PUSH0 PUSH0 REVERT JUMPDEST PUSH0 PUSH20 0xFFFFFFFFFFFFFFFFFFFFFFFFFFFFFFFFFFFFFFFF DUP3 AND SWAP1 POP SWAP2 SWAP1 POP JUMP JUMPDEST PUSH0 PUSH2 0x12FC DUP3 PUSH2 0x12D3 JUMP JUMPDEST SWAP1 POP SWAP2 SWAP1 POP JUMP JUMPDEST PUSH2 0x130C DUP2 PUSH2 0x12F2 JUMP JUMPDEST DUP2 EQ PUSH2 0x1316 JUMPI PUSH0 PUSH0 REVERT JUMPDEST POP JUMP JUMPDEST PUSH0 DUP2 CALLDATALOAD SWAP1 POP PUSH2 0x1327 DUP2 PUSH2 0x1303 JUMP JUMPDEST SWAP3 SWAP2 POP POP JUMP JUMPDEST PUSH0 DUP2 SWAP1 POP SWAP2 SWAP1 POP JUMP JUMPDEST PUSH2 0x133F DUP2 PUSH2 0x132D JUMP JUMPDEST DUP2 EQ PUSH2 0x1349 JUMPI PUSH0 PUSH0 REVERT JUMPDEST POP JUMP JUMPDEST PUSH0 DUP2 CALLDATALOAD SWAP1 POP PUSH2 0x135A DUP2 PUSH2 0x1336 JUMP JUMPDEST SWAP3 SWAP2 POP POP JUMP JUMPDEST PUSH0 PUSH0 PUSH1 0x40 DUP4 DUP6 SUB SLT ISZERO PUSH2 0x1376 JUMPI PUSH2 0x1375 PUSH2 0x12CF JUMP JUMPDEST JUMPDEST PUSH0 PUSH2 0x1383 DUP6 DUP3 DUP7 ADD PUSH2 0x1319 JUMP JUMPDEST SWAP3 POP POP PUSH1 0x20 PUSH2 0x1394 DUP6 DUP3 DUP7 ADD PUSH2 0x134C JUMP JUMPDEST SWAP2 POP POP SWAP3 POP SWAP3 SWAP1 POP JUMP JUMPDEST PUSH0 DUP2 ISZERO ISZERO SWAP1 POP SWAP2 SWAP1 POP JUMP JUMPDEST PUSH2 0x13B2 DUP2 PUSH2 0x139E JUMP JUMPDEST DUP3 MSTORE POP POP JUMP JUMPDEST PUSH0 PUSH1 0x20 DUP3 ADD SWAP1 POP PUSH2 0x13CB PUSH0 DUP4 ADD DUP5 PUSH2 0x13A9 JUMP JUMPDEST SWAP3 SWAP2 POP POP JUMP JUMPDEST PUSH0 PUSH1 0x20 DUP3 DUP5 SUB SLT ISZERO PUSH2 0x13E6 JUMPI PUSH2 0x13E5 PUSH2 0x12CF JUMP JUMPDEST JUMPDEST PUSH0 PUSH2 0x13F3 DUP5 DUP3 DUP6 ADD PUSH2 0x134C JUMP JUMPDEST SWAP2 POP POP SWAP3 SWAP2 POP POP JUMP JUMPDEST PUSH2 0x1405 DUP2 PUSH2 0x132D JUMP JUMPDEST DUP3 MSTORE POP POP JUMP JUMPDEST PUSH0 PUSH1 0x20 DUP3 ADD SWAP1 POP PUSH2 0x141E PUSH0 DUP4 ADD DUP5 PUSH2 0x13FC JUMP JUMPDEST SWAP3 SWAP2 POP POP JUMP JUMPDEST PUSH0 PUSH0 PUSH0 PUSH1 0x60 DUP5 DUP7 SUB SLT ISZERO PUSH2 0x143B JUMPI PUSH2 0x143A PUSH2 0x12CF JUMP JUMPDEST JUMPDEST PUSH0 PUSH2 0x1448 DUP7 DUP3 DUP8 ADD PUSH2 0x1319 JUMP JUMPDEST SWAP4 POP POP PUSH1 0x20 PUSH2 0x1459 DUP7 DUP3 DUP8 ADD PUSH2 0x1319 JUMP JUMPDEST SWAP3 POP POP PUSH1 0x40 PUSH2 0x146A DUP7 DUP3 DUP8 ADD PUSH2 0x134C JUMP JUMPDEST SWAP2 POP POP SWAP3 POP SWAP3 POP SWAP3 JUMP JUMPDEST PUSH0 PUSH1 0xFF DUP3 AND SWAP1 POP SWAP2 SWAP1 POP JUMP JUMPDEST PUSH2 0x1489 DUP2 PUSH2 0x1474 JUMP JUMPDEST DUP3 MSTORE POP POP JUMP JUMPDEST PUSH0 PUSH1 0x20 DUP3 ADD SWAP1 POP PUSH2 0x14A2 PUSH0 DUP4 ADD DUP5 PUSH2 0x1480 JUMP JUMPDEST SWAP3 SWAP2 POP POP JUMP JUMPDEST PUSH0 PUSH1 0x20 DUP3 DUP5 SUB SLT ISZERO PUSH2 0x14BD JUMPI PUSH2 0x14BC PUSH2 0x12CF JUMP JUMPDEST JUMPDEST PUSH0 PUSH2 0x14CA DUP5 DUP3 DUP6 ADD PUSH2 0x1319 JUMP JUMPDEST SWAP2 POP POP SWAP3 SWAP2 POP POP JUMP JUMPDEST PUSH2 0x14DC DUP2 PUSH2 0x12F2 JUMP JUMPDEST DUP3 MSTORE POP POP JUMP JUMPDEST PUSH0 PUSH1 0x20 DUP3 ADD SWAP1 POP PUSH2 0x14F5 PUSH0 DUP4 ADD DUP5 PUSH2 0x14D3 JUMP JUMPDEST SWAP3 SWAP2 POP POP JUMP JUMPDEST PUSH0 PUSH0 PUSH1 0x40 DUP4 DUP6 SUB SLT ISZERO PUSH2 0x1511 JUMPI PUSH2 0x1510 PUSH2 0x12CF JUMP JUMPDEST JUMPDEST PUSH0 PUSH2 0x151E DUP6 DUP3 DUP7 ADD PUSH2 0x1319 JUMP JUMPDEST SWAP3 POP POP PUSH1 0x20 PUSH2 0x152F DUP6 DUP3 DUP7 ADD PUSH2 0x1319 JUMP JUMPDEST SWAP2 POP POP SWAP3 POP SWAP3 SWAP1 POP JUMP JUMPDEST PUSH32 0x4E6F7420656E6F756768204554482073656E7400000000000000000000000000 PUSH0 DUP3 ADD MSTORE POP JUMP JUMPDEST PUSH0 PUSH2 0x156D PUSH1 0x13 DUP4 PUSH2 0x1249 JUMP JUMPDEST SWAP2 POP PUSH2 0x1578 DUP3 PUSH2 0x1539 JUMP JUMPDEST PUSH1 0x20 DUP3 ADD SWAP1 POP SWAP2 SWAP1 POP JUMP JUMPDEST PUSH0 PUSH1 0x20 DUP3 ADD SWAP1 POP DUP2 DUP2 SUB PUSH0 DUP4 ADD MSTORE PUSH2 0x159A DUP2 PUSH2 0x1561 JUMP JUMPDEST SWAP1 POP SWAP2 SWAP1 POP JUMP JUMPDEST PUSH32 0x4E487B7100000000000000000000000000000000000000000000000000000000 PUSH0 MSTORE PUSH1 0x12 PUSH1 0x4 MSTORE PUSH1 0x24 PUSH0 REVERT JUMPDEST PUSH32 0x4E487B7100000000000000000000000000000000000000000000000000000000 PUSH0 MSTORE PUSH1 0x11 PUSH1 0x4 MSTORE PUSH1 0x24 PUSH0 REVERT JUMPDEST PUSH0 PUSH2 0x1605 DUP3 PUSH2 0x132D JUMP JUMPDEST SWAP2 POP PUSH2 0x1610 DUP4 PUSH2 0x132D JUMP JUMPDEST SWAP3 POP DUP3 PUSH2 0x1620 JUMPI PUSH2 0x161F PUSH2 0x15A1 JUMP JUMPDEST JUMPDEST DUP3 DUP3 DIV SWAP1 POP SWAP3 SWAP2 POP POP JUMP JUMPDEST PUSH0 PUSH2 0x1635 DUP3 PUSH2 0x132D JUMP JUMPDEST SWAP2 POP PUSH2 0x1640 DUP4 PUSH2 0x132D JUMP JUMPDEST SWAP3 POP DUP3 DUP3 MUL PUSH2 0x164E DUP2 PUSH2 0x132D JUMP JUMPDEST SWAP2 POP DUP3 DUP3 DIV DUP5 EQ DUP4 ISZERO OR PUSH2 0x1665 JUMPI PUSH2 0x1664 PUSH2 0x15CE JUMP JUMPDEST JUMPDEST POP SWAP3 SWAP2 POP POP JUMP JUMPDEST PUSH0 PUSH2 0x1676 DUP3 PUSH2 0x132D JUMP JUMPDEST SWAP2 POP PUSH2 0x1681 DUP4 PUSH2 0x132D JUMP JUMPDEST SWAP3 POP DUP3 DUP3 SUB SWAP1 POP DUP2 DUP2 GT ISZERO PUSH2 0x1699 JUMPI PUSH2 0x1698 PUSH2 0x15CE JUMP JUMPDEST JUMPDEST SWAP3 SWAP2 POP POP JUMP JUMPDEST PUSH0 PUSH2 0x16A9 DUP3 PUSH2 0x132D JUMP JUMPDEST SWAP2 POP PUSH2 0x16B4 DUP4 PUSH2 0x132D JUMP JUMPDEST SWAP3 POP DUP3 DUP3 ADD SWAP1 POP DUP1 DUP3 GT ISZERO PUSH2 0x16CC JUMPI PUSH2 0x16CB PUSH2 0x15CE JUMP JUMPDEST JUMPDEST SWAP3 SWAP2 POP POP JUMP JUMPDEST PUSH0 DUP2 PUSH1 0x1 SHR SWAP1 POP SWAP2 SWAP1 POP JUMP JUMPDEST PUSH0 PUSH0 DUP3 SWAP2 POP DUP4 SWAP1 POP JUMPDEST PUSH1 0x1 DUP6 GT ISZERO PUSH2 0x1727 JUMPI DUP1 DUP7 DIV DUP2 GT ISZERO PUSH2 0x1703 JUMPI PUSH2 0x1702 PUSH2 0x15CE JUMP JUMPDEST JUMPDEST PUSH1 0x1 DUP6 AND ISZERO PUSH2 0x1712 JUMPI DUP1 DUP3 MUL SWAP2 POP JUMPDEST DUP1 DUP2 MUL SWAP1 POP PUSH2 0x1720 DUP6 PUSH2 0x16D2 JUMP JUMPDEST SWAP5 POP PUSH2 0x16E7 JUMP JUMPDEST SWAP5 POP SWAP5 SWAP3 POP POP POP JUMP JUMPDEST PUSH0 DUP3 PUSH2 0x173F JUMPI PUSH1 0x1 SWAP1 POP PUSH2 0x17FA JUMP JUMPDEST DUP2 PUSH2 0x174C JUMPI PUSH0 SWAP1 POP PUSH2 0x17FA JUMP JUMPDEST DUP2 PUSH1 0x1 DUP2 EQ PUSH2 0x1762 JUMPI PUSH1 0x2 DUP2 EQ PUSH2 0x176C JUMPI PUSH2 0x179B JUMP JUMPDEST PUSH1 0x1 SWAP2 POP POP PUSH2 0x17FA JUMP JUMPDEST PUSH1 0xFF DUP5 GT ISZERO PUSH2 0x177E JUMPI PUSH2 0x177D PUSH2 0x15CE JUMP JUMPDEST JUMPDEST DUP4 PUSH1 0x2 EXP SWAP2 POP DUP5 DUP3 GT ISZERO PUSH2 0x1795 JUMPI PUSH2 0x1794 PUSH2 0x15CE JUMP JUMPDEST JUMPDEST POP PUSH2 0x17FA JUMP JUMPDEST POP PUSH1 0x20 DUP4 LT PUSH2 0x133 DUP4 LT AND PUSH1 0x4E DUP5 LT PUSH1 0xB DUP5 LT AND OR ISZERO PUSH2 0x17D0 JUMPI DUP3 DUP3 EXP SWAP1 POP DUP4 DUP2 GT ISZERO PUSH2 0x17CB JUMPI PUSH2 0x17CA PUSH2 0x15CE JUMP JUMPDEST JUMPDEST PUSH2 0x17FA JUMP JUMPDEST PUSH2 0x17DD DUP5 DUP5 DUP5 PUSH1 0x1 PUSH2 0x16DE JUMP JUMPDEST SWAP3 POP SWAP1 POP DUP2 DUP5 DIV DUP2 GT ISZERO PUSH2 0x17F4 JUMPI PUSH2 0x17F3 PUSH2 0x15CE JUMP JUMPDEST JUMPDEST DUP2 DUP2 MUL SWAP1 POP JUMPDEST SWAP4 SWAP3 POP POP POP JUMP JUMPDEST PUSH0 PUSH2 0x180B DUP3 PUSH2 0x132D JUMP JUMPDEST SWAP2 POP PUSH2 0x1816 DUP4 PUSH2 0x1474 JUMP JUMPDEST SWAP3 POP PUSH2 0x1843 PUSH32 0xFFFFFFFFFFFFFFFFFFFFFFFFFFFFFFFFFFFFFFFFFFFFFFFFFFFFFFFFFFFFFFFF DUP5 DUP5 PUSH2 0x1730 JUMP JUMPDEST SWAP1 POP SWAP3 SWAP2 POP POP JUMP JUMPDEST PUSH0 DUP2 SWAP1 POP SWAP3 SWAP2 POP POP JUMP JUMPDEST POP JUMP JUMPDEST PUSH0 PUSH2 0x1863 PUSH0 DUP4 PUSH2 0x184B JUMP JUMPDEST SWAP2 POP PUSH2 0x186E DUP3 PUSH2 0x1855 JUMP JUMPDEST PUSH0 DUP3 ADD SWAP1 POP SWAP2 SWAP1 POP JUMP JUMPDEST PUSH0 PUSH2 0x1882 DUP3 PUSH2 0x1858 JUMP JUMPDEST SWAP2 POP DUP2 SWAP1 POP SWAP2 SWAP1 POP JUMP JUMPDEST PUSH32 0x526566756E64206661696C656400000000000000000000000000000000000000 PUSH0 DUP3 ADD MSTORE POP JUMP JUMPDEST PUSH0 PUSH2 0x18C0 PUSH1 0xD DUP4 PUSH2 0x1249 JUMP JUMPDEST SWAP2 POP PUSH2 0x18CB DUP3 PUSH2 0x188C JUMP JUMPDEST PUSH1 0x20 DUP3 ADD SWAP1 POP SWAP2 SWAP1 POP JUMP JUMPDEST PUSH0 PUSH1 0x20 DUP3 ADD SWAP1 POP DUP2 DUP2 SUB PUSH0 DUP4 ADD MSTORE PUSH2 0x18ED DUP2 PUSH2 0x18B4 JUMP JUMPDEST SWAP1 POP SWAP2 SWAP1 POP JUMP JUMPDEST PUSH0 PUSH1 0x40 DUP3 ADD SWAP1 POP PUSH2 0x1907 PUSH0 DUP4 ADD DUP6 PUSH2 0x13FC JUMP JUMPDEST PUSH2 0x1914 PUSH1 0x20 DUP4 ADD DUP5 PUSH2 0x13FC JUMP JUMPDEST SWAP4 SWAP3 POP POP POP JUMP JUMPDEST PUSH32 0x4E487B7100000000000000000000000000000000000000000000000000000000 PUSH0 MSTORE PUSH1 0x22 PUSH1 0x4 MSTORE PUSH1 0x24 PUSH0 REVERT JUMPDEST PUSH0 PUSH1 0x2 DUP3 DIV SWAP1 POP PUSH1 0x1 DUP3 AND DUP1 PUSH2 0x195F JUMPI PUSH1 0x7F DUP3 AND SWAP2 POP JUMPDEST PUSH1 0x20 DUP3 LT DUP2 SUB PUSH2 0x1972 JUMPI PUSH2 0x1971 PUSH2 0x191B JUMP JUMPDEST JUMPDEST POP SWAP2 SWAP1 POP JUMP JUMPDEST PUSH32 0x496E73756666696369656E74204554482062616C616E63650000000000000000 PUSH0 DUP3 ADD MSTORE POP JUMP JUMPDEST PUSH0 PUSH2 0x19AC PUSH1 0x18 DUP4 PUSH2 0x1249 JUMP JUMPDEST SWAP2 POP PUSH2 0x19B7 DUP3 PUSH2 0x1978 JUMP JUMPDEST PUSH1 0x20 DUP3 ADD SWAP1 POP SWAP2 SWAP1 POP JUMP JUMPDEST PUSH0 PUSH1 0x20 DUP3 ADD SWAP1 POP DUP2 DUP2 SUB PUSH0 DUP4 ADD MSTORE PUSH2 0x19D9 DUP2 PUSH2 0x19A0 JUMP JUMPDEST SWAP1 POP SWAP2 SWAP1 POP JUMP JUMPDEST PUSH32 0x5769746864726177616C206661696C6564000000000000000000000000000000 PUSH0 DUP3 ADD MSTORE POP JUMP JUMPDEST PUSH0 PUSH2 0x1A14 PUSH1 0x11 DUP4 PUSH2 0x1249 JUMP JUMPDEST SWAP2 POP PUSH2 0x1A1F DUP3 PUSH2 0x19E0 JUMP JUMPDEST PUSH1 0x20 DUP3 ADD SWAP1 POP SWAP2 SWAP1 POP JUMP JUMPDEST PUSH0 PUSH1 0x20 DUP3 ADD SWAP1 POP DUP2 DUP2 SUB PUSH0 DUP4 ADD MSTORE PUSH2 0x1A41 DUP2 PUSH2 0x1A08 JUMP JUMPDEST SWAP1 POP SWAP2 SWAP1 POP JUMP JUMPDEST PUSH32 0x5072696365206D757374206265203E2030000000000000000000000000000000 PUSH0 DUP3 ADD MSTORE POP JUMP JUMPDEST PUSH0 PUSH2 0x1A7C PUSH1 0x11 DUP4 PUSH2 0x1249 JUMP JUMPDEST SWAP2 POP PUSH2 0x1A87 DUP3 PUSH2 0x1A48 JUMP JUMPDEST PUSH1 0x20 DUP3 ADD SWAP1 POP SWAP2 SWAP1 POP JUMP JUMPDEST PUSH0 PUSH1 0x20 DUP3 ADD SWAP1 POP DUP2 DUP2 SUB PUSH0 DUP4 ADD MSTORE PUSH2 0x1AA9 DUP2 PUSH2 0x1A70 JUMP JUMPDEST SWAP1 POP SWAP2 SWAP1 POP JUMP JUMPDEST PUSH32 0x5265656E7472616E637947756172643A207265656E7472616E742063616C6C00 PUSH0 DUP3 ADD MSTORE POP JUMP JUMPDEST PUSH0 PUSH2 0x1AE4 PUSH1 0x1F DUP4 PUSH2 0x1249 JUMP JUMPDEST SWAP2 POP PUSH2 0x1AEF DUP3 PUSH2 0x1AB0 JUMP JUMPDEST PUSH1 0x20 DUP3 ADD SWAP1 POP SWAP2 SWAP1 POP JUMP JUMPDEST PUSH0 PUSH1 0x20 DUP3 ADD SWAP1 POP DUP2 DUP2 SUB PUSH0 DUP4 ADD MSTORE PUSH2 0x1B11 DUP2 PUSH2 0x1AD8 JUMP JUMPDEST SWAP1 POP SWAP2 SWAP1 POP JUMP JUMPDEST PUSH0 PUSH1 0x60 DUP3 ADD SWAP1 POP PUSH2 0x1B2B PUSH0 DUP4 ADD DUP7 PUSH2 0x14D3 JUMP JUMPDEST PUSH2 0x1B38 PUSH1 0x20 DUP4 ADD DUP6 PUSH2 0x13FC JUMP JUMPDEST PUSH2 0x1B45 PUSH1 0x40 DUP4 ADD DUP5 PUSH2 0x13FC JUMP JUMPDEST SWAP5 SWAP4 POP POP POP POP JUMP INVALID LOG2 PUSH5 0x6970667358 0x22 SLT KECCAK256 DUP6 0xA7 RETURNCONTRACT 0x66 0xCB 0x26 PUSH24 0x7732359CD22B98B31517887D34741CB1D671CDE3C466B89D SIGNEXTEND PUSH5 0x736F6C6343 STOP ADDMOD SAR STOP CALLER "
				},
				"gasEstimates": {
					"creation": {
						"codeDepositCost": "1408600",
						"executionCost": "infinite",
						"totalCost": "infinite"
					},
					"external": {
						"allowance(address,address)": "infinite",
						"approve(address,uint256)": "infinite",
						"balanceOf(address)": "2851",
						"decimals()": "405",
						"name()": "infinite",
						"owner()": "2604",
						"purchaseEquity()": "infinite",
						"renounceOwnership()": "infinite",
						"symbol()": "infinite",
						"tokenPrice()": "2492",
						"totalRaised()": "2491",
						"totalSupply()": "2522",
						"transfer(address,uint256)": "infinite",
						"transferFrom(address,address,uint256)": "infinite",
						"transferOwnership(address)": "infinite",
						"updateTokenPrice(uint256)": "infinite",
						"withdrawFunds(uint256)": "infinite"
					}
				},
				"methodIdentifiers": {
					"allowance(address,address)": "dd62ed3e",
					"approve(address,uint256)": "095ea7b3",
					"balanceOf(address)": "70a08231",
					"decimals()": "313ce567",
					"name()": "06fdde03",
					"owner()": "8da5cb5b",
					"purchaseEquity()": "1d838a5d",
					"renounceOwnership()": "715018a6",
					"symbol()": "95d89b41",
					"tokenPrice()": "7ff9b596",
					"totalRaised()": "c5c4744c",
					"totalSupply()": "18160ddd",
					"transfer(address,uint256)": "a9059cbb",
					"transferFrom(address,address,uint256)": "23b872dd",
					"transferOwnership(address)": "f2fde38b",
					"updateTokenPrice(uint256)": "676c0d77",
					"withdrawFunds(uint256)": "155dd5ee"
				}
			},
			"storageLayout": {
				"storage": [
					{
						"astId": 372,
						"contract": "E/equity.sol:EquityToken",
						"label": "_balances",
						"offset": 0,
						"slot": "0",
						"type": "t_mapping(t_address,t_uint256)"
					},
					{
						"astId": 378,
						"contract": "E/equity.sol:EquityToken",
						"label": "_allowances",
						"offset": 0,
						"slot": "1",
						"type": "t_mapping(t_address,t_mapping(t_address,t_uint256))"
					},
					{
						"astId": 380,
						"contract": "E/equity.sol:EquityToken",
						"label": "_totalSupply",
						"offset": 0,
						"slot": "2",
						"type": "t_uint256"
					},
					{
						"astId": 382,
						"contract": "E/equity.sol:EquityToken",
						"label": "_name",
						"offset": 0,
						"slot": "3",
						"type": "t_string_storage"
					},
					{
						"astId": 384,
						"contract": "E/equity.sol:EquityToken",
						"label": "_symbol",
						"offset": 0,
						"slot": "4",
						"type": "t_string_storage"
					},
					{
						"astId": 8,
						"contract": "E/equity.sol:EquityToken",
						"label": "_owner",
						"offset": 0,
						"slot": "5",
						"type": "t_address"
					},
					{
						"astId": 295,
						"contract": "E/equity.sol:EquityToken",
						"label": "_status",
						"offset": 0,
						"slot": "6",
						"type": "t_uint256"
					},
					{
						"astId": 1013,
						"contract": "E/equity.sol:EquityToken",
						"label": "tokenPrice",
						"offset": 0,
						"slot": "7",
						"type": "t_uint256"
					},
					{
						"astId": 1016,
						"contract": "E/equity.sol:EquityToken",
						"label": "totalRaised",
						"offset": 0,
						"slot": "8",
						"type": "t_uint256"
					}
				],
				"types": {
					"t_address": {
						"encoding": "inplace",
						"label": "address",
						"numberOfBytes": "20"
					},
					"t_mapping(t_address,t_mapping(t_address,t_uint256))": {
						"encoding": "mapping",
						"key": "t_address",
						"label": "mapping(address => mapping(address => uint256))",
						"numberOfBytes": "32",
						"value": "t_mapping(t_address,t_uint256)"
					},
					"t_mapping(t_address,t_uint256)": {
						"encoding": "mapping",
						"key": "t_address",
						"label": "mapping(address => uint256)",
						"numberOfBytes": "32",
						"value": "t_uint256"
					},
					"t_string_storage": {
						"encoding": "bytes",
						"label": "string",
						"numberOfBytes": "32"
					},
					"t_uint256": {
						"encoding": "inplace",
						"label": "uint256",
						"numberOfBytes": "32"
					}
				}
			},
			"userdoc": {
				"events": {
					"EquityPurchased(address,uint256,uint256)": {
						"notice": "Emitted when a user purchases equity tokens."
					},
					"TokenPriceUpdated(uint256)": {
						"notice": "Emitted when the token price is updated."
					}
				},
				"kind": "user",
				"methods": {
					"constructor": {
						"notice": "Constructor initializes the equity token with a name, symbol, and initial token price."
					},
					"purchaseEquity()": {
						"notice": "Allows users to purchase equity tokens by sending ETH. The number of tokens minted is equal to (msg.value / tokenPrice), with any remainder refunded."
					},
					"tokenPrice()": {
						"notice": "Price per token in wei (i.e., the cost for one token unit)."
					},
					"totalRaised()": {
						"notice": "Total ETH raised from equity purchases."
					},
					"updateTokenPrice(uint256)": {
						"notice": "Allows the owner to update the token price."
					},
					"withdrawFunds(uint256)": {
						"notice": "Allows the owner to withdraw the ETH raised from the offering."
					}
				},
				"notice": "An ERC20 token representing equity with a dynamic offering mechanism. Users can purchase equity tokens by sending ETH at the current token price (in wei). The owner can update the token price and withdraw the raised funds.",
				"version": 1
			}
		}
	}
}