{
	"E/Master Contract to Handle All Types.sol": {
		"EthereumTransactionTypes": {
			"abi": [
				{
					"anonymous": false,
					"inputs": [
						{
							"indexed": true,
							"internalType": "address",
							"name": "from",
							"type": "address"
						},
						{
							"indexed": false,
							"internalType": "string",
							"name": "message",
							"type": "string"
						}
					],
					"name": "ContractCalled",
					"type": "event"
				},
				{
					"anonymous": false,
					"inputs": [
						{
							"indexed": false,
							"internalType": "address",
							"name": "contractAddress",
							"type": "address"
						}
					],
					"name": "ContractDeployed",
					"type": "event"
				},
				{
					"anonymous": false,
					"inputs": [
						{
							"indexed": false,
							"internalType": "address",
							"name": "from",
							"type": "address"
						},
						{
							"indexed": false,
							"internalType": "address",
							"name": "target",
							"type": "address"
						}
					],
					"name": "DelegateCalled",
					"type": "event"
				},
				{
					"anonymous": false,
					"inputs": [
						{
							"indexed": true,
							"internalType": "address",
							"name": "from",
							"type": "address"
						},
						{
							"indexed": true,
							"internalType": "address",
							"name": "to",
							"type": "address"
						},
						{
							"indexed": false,
							"internalType": "uint256",
							"name": "amount",
							"type": "uint256"
						}
					],
					"name": "ETHTransferred",
					"type": "event"
				},
				{
					"anonymous": false,
					"inputs": [
						{
							"indexed": false,
							"internalType": "address",
							"name": "from",
							"type": "address"
						},
						{
							"indexed": false,
							"internalType": "uint256",
							"name": "amount",
							"type": "uint256"
						}
					],
					"name": "ForceTransferReceived",
					"type": "event"
				},
				{
					"anonymous": false,
					"inputs": [
						{
							"indexed": false,
							"internalType": "address",
							"name": "from",
							"type": "address"
						},
						{
							"indexed": false,
							"internalType": "address",
							"name": "to",
							"type": "address"
						}
					],
					"name": "InternalTxTriggered",
					"type": "event"
				},
				{
					"inputs": [
						{
							"internalType": "address",
							"name": "target",
							"type": "address"
						}
					],
					"name": "callOtherContract",
					"outputs": [],
					"stateMutability": "nonpayable",
					"type": "function"
				},
				{
					"inputs": [
						{
							"internalType": "address",
							"name": "implementation",
							"type": "address"
						}
					],
					"name": "delegateTo",
					"outputs": [],
					"stateMutability": "nonpayable",
					"type": "function"
				},
				{
					"inputs": [
						{
							"internalType": "address payable",
							"name": "target",
							"type": "address"
						}
					],
					"name": "deployAndSelfDestruct",
					"outputs": [],
					"stateMutability": "payable",
					"type": "function"
				},
				{
					"inputs": [],
					"name": "deployNewContract",
					"outputs": [],
					"stateMutability": "nonpayable",
					"type": "function"
				},
				{
					"inputs": [
						{
							"internalType": "address payable",
							"name": "recipient",
							"type": "address"
						}
					],
					"name": "sendETH",
					"outputs": [],
					"stateMutability": "payable",
					"type": "function"
				},
				{
					"inputs": [
						{
							"internalType": "address",
							"name": "target",
							"type": "address"
						}
					],
					"name": "triggerInternalTransaction",
					"outputs": [],
					"stateMutability": "nonpayable",
					"type": "function"
				},
				{
					"stateMutability": "payable",
					"type": "receive"
				}
			],
			"devdoc": {
				"kind": "dev",
				"methods": {},
				"version": 1
			},
			"evm": {
				"assembly": "    /* \"E/Master Contract to Handle All Types.sol\":313:2493  contract EthereumTransactionTypes {... */\n  mstore(0x40, 0x80)\n  callvalue\n  dup1\n  iszero\n  tag_1\n  jumpi\n  revert(0x00, 0x00)\ntag_1:\n  pop\n  dataSize(sub_0)\n  dup1\n  dataOffset(sub_0)\n  0x00\n  codecopy\n  0x00\n  return\nstop\n\nsub_0: assembly {\n        /* \"E/Master Contract to Handle All Types.sol\":313:2493  contract EthereumTransactionTypes {... */\n      mstore(0x40, 0x80)\n      jumpi(tag_1, lt(calldatasize, 0x04))\n      shr(0xe0, calldataload(0x00))\n      dup1\n      0x21b1e5f8\n      eq\n      tag_3\n      jumpi\n      dup1\n      0x51fcd0d7\n      eq\n      tag_4\n      jumpi\n      dup1\n      0x8c309043\n      eq\n      tag_5\n      jumpi\n      dup1\n      0x96e9df8d\n      eq\n      tag_6\n      jumpi\n      dup1\n      0xac637c7a\n      eq\n      tag_7\n      jumpi\n      dup1\n      0xaedd84d4\n      eq\n      tag_8\n      jumpi\n      jump(tag_2)\n    tag_1:\n      jumpi(tag_2, calldatasize)\n        /* \"E/Master Contract to Handle All Types.sol\":2440:2484  ForceTransferReceived(msg.sender, msg.value) */\n      0x211a703cf03a095c04bba744c8c09909dd15735137407b42f8e43af3d286b925\n        /* \"E/Master Contract to Handle All Types.sol\":2462:2472  msg.sender */\n      caller\n        /* \"E/Master Contract to Handle All Types.sol\":2474:2483  msg.value */\n      callvalue\n        /* \"E/Master Contract to Handle All Types.sol\":2440:2484  ForceTransferReceived(msg.sender, msg.value) */\n      mload(0x40)\n      tag_11\n      swap3\n      swap2\n      swap1\n      tag_12\n      jump\t// in\n    tag_11:\n      mload(0x40)\n      dup1\n      swap2\n      sub\n      swap1\n      log1\n        /* \"E/Master Contract to Handle All Types.sol\":313:2493  contract EthereumTransactionTypes {... */\n      stop\n    tag_2:\n      revert(0x00, 0x00)\n        /* \"E/Master Contract to Handle All Types.sol\":776:1063  function sendETH(address payable recipient) external payable {... */\n    tag_3:\n      tag_13\n      0x04\n      dup1\n      calldatasize\n      sub\n      dup2\n      add\n      swap1\n      tag_14\n      swap2\n      swap1\n      tag_15\n      jump\t// in\n    tag_14:\n      tag_16\n      jump\t// in\n    tag_13:\n      stop\n        /* \"E/Master Contract to Handle All Types.sol\":1910:2089  function triggerInternalTransaction(address target) external {... */\n    tag_4:\n      callvalue\n      dup1\n      iszero\n      tag_17\n      jumpi\n      revert(0x00, 0x00)\n    tag_17:\n      pop\n      tag_18\n      0x04\n      dup1\n      calldatasize\n      sub\n      dup2\n      add\n      swap1\n      tag_19\n      swap2\n      swap1\n      tag_20\n      jump\t// in\n    tag_19:\n      tag_21\n      jump\t// in\n    tag_18:\n      stop\n        /* \"E/Master Contract to Handle All Types.sol\":1115:1291  function callOtherContract(address target) external {... */\n    tag_5:\n      callvalue\n      dup1\n      iszero\n      tag_22\n      jumpi\n      revert(0x00, 0x00)\n    tag_22:\n      pop\n      tag_23\n      0x04\n      dup1\n      calldatasize\n      sub\n      dup2\n      add\n      swap1\n      tag_24\n      swap2\n      swap1\n      tag_20\n      jump\t// in\n    tag_24:\n      tag_25\n      jump\t// in\n    tag_23:\n      stop\n        /* \"E/Master Contract to Handle All Types.sol\":1349:1510  function deployNewContract() external {... */\n    tag_6:\n      callvalue\n      dup1\n      iszero\n      tag_26\n      jumpi\n      revert(0x00, 0x00)\n    tag_26:\n      pop\n      tag_27\n      tag_28\n      jump\t// in\n    tag_27:\n      stop\n        /* \"E/Master Contract to Handle All Types.sol\":1561:1851  function delegateTo(address implementation) external {... */\n    tag_7:\n      callvalue\n      dup1\n      iszero\n      tag_29\n      jumpi\n      revert(0x00, 0x00)\n    tag_29:\n      pop\n      tag_30\n      0x04\n      dup1\n      calldatasize\n      sub\n      dup2\n      add\n      swap1\n      tag_31\n      swap2\n      swap1\n      tag_20\n      jump\t// in\n    tag_31:\n      tag_32\n      jump\t// in\n    tag_30:\n      stop\n        /* \"E/Master Contract to Handle All Types.sol\":2150:2392  function deployAndSelfDestruct(address payable target) external payable {... */\n    tag_8:\n      tag_33\n      0x04\n      dup1\n      calldatasize\n      sub\n      dup2\n      add\n      swap1\n      tag_34\n      swap2\n      swap1\n      tag_15\n      jump\t// in\n    tag_34:\n      tag_35\n      jump\t// in\n    tag_33:\n      stop\n        /* \"E/Master Contract to Handle All Types.sol\":776:1063  function sendETH(address payable recipient) external payable {... */\n    tag_16:\n        /* \"E/Master Contract to Handle All Types.sol\":867:868  0 */\n      0x00\n        /* \"E/Master Contract to Handle All Types.sol\":855:864  msg.value */\n      callvalue\n        /* \"E/Master Contract to Handle All Types.sol\":855:868  msg.value > 0 */\n      gt\n        /* \"E/Master Contract to Handle All Types.sol\":847:886  require(msg.value > 0, \"Send some ETH\") */\n      tag_37\n      jumpi\n      mload(0x40)\n      0x08c379a000000000000000000000000000000000000000000000000000000000\n      dup2\n      mstore\n      0x04\n      add\n      tag_38\n      swap1\n      tag_39\n      jump\t// in\n    tag_38:\n      mload(0x40)\n      dup1\n      swap2\n      sub\n      swap1\n      revert\n    tag_37:\n        /* \"E/Master Contract to Handle All Types.sol\":897:906  bool sent */\n      0x00\n        /* \"E/Master Contract to Handle All Types.sol\":912:921  recipient */\n      dup2\n        /* \"E/Master Contract to Handle All Types.sol\":912:926  recipient.call */\n      0xffffffffffffffffffffffffffffffffffffffff\n      and\n        /* \"E/Master Contract to Handle All Types.sol\":934:943  msg.value */\n      callvalue\n        /* \"E/Master Contract to Handle All Types.sol\":912:948  recipient.call{value: msg.value}(\"\") */\n      mload(0x40)\n      tag_40\n      swap1\n      tag_41\n      jump\t// in\n    tag_40:\n      0x00\n      mload(0x40)\n      dup1\n      dup4\n      sub\n      dup2\n      dup6\n      dup8\n      gas\n      call\n      swap3\n      pop\n      pop\n      pop\n      returndatasize\n      dup1\n      0x00\n      dup2\n      eq\n      tag_44\n      jumpi\n      mload(0x40)\n      swap2\n      pop\n      and(add(returndatasize, 0x3f), not(0x1f))\n      dup3\n      add\n      0x40\n      mstore\n      returndatasize\n      dup3\n      mstore\n      returndatasize\n      0x00\n      0x20\n      dup5\n      add\n      returndatacopy\n      jump(tag_43)\n    tag_44:\n      0x60\n      swap2\n      pop\n    tag_43:\n      pop\n        /* \"E/Master Contract to Handle All Types.sol\":896:948  (bool sent, ) = recipient.call{value: msg.value}(\"\") */\n      pop\n      swap1\n      pop\n        /* \"E/Master Contract to Handle All Types.sol\":966:970  sent */\n      dup1\n        /* \"E/Master Contract to Handle All Types.sol\":958:993  require(sent, \"Failed to send ETH\") */\n      tag_45\n      jumpi\n      mload(0x40)\n      0x08c379a000000000000000000000000000000000000000000000000000000000\n      dup2\n      mstore\n      0x04\n      add\n      tag_46\n      swap1\n      tag_47\n      jump\t// in\n    tag_46:\n      mload(0x40)\n      dup1\n      swap2\n      sub\n      swap1\n      revert\n    tag_45:\n        /* \"E/Master Contract to Handle All Types.sol\":1035:1044  recipient */\n      dup2\n        /* \"E/Master Contract to Handle All Types.sol\":1008:1056  ETHTransferred(msg.sender, recipient, msg.value) */\n      0xffffffffffffffffffffffffffffffffffffffff\n      and\n        /* \"E/Master Contract to Handle All Types.sol\":1023:1033  msg.sender */\n      caller\n        /* \"E/Master Contract to Handle All Types.sol\":1008:1056  ETHTransferred(msg.sender, recipient, msg.value) */\n      0xffffffffffffffffffffffffffffffffffffffff\n      and\n      0x8dec4e7cfc87eced5c05eafa206697292193ede25a52287bf5fc6cbb0fd84cfa\n        /* \"E/Master Contract to Handle All Types.sol\":1046:1055  msg.value */\n      callvalue\n        /* \"E/Master Contract to Handle All Types.sol\":1008:1056  ETHTransferred(msg.sender, recipient, msg.value) */\n      mload(0x40)\n      tag_48\n      swap2\n      swap1\n      tag_49\n      jump\t// in\n    tag_48:\n      mload(0x40)\n      dup1\n      swap2\n      sub\n      swap1\n      log3\n        /* \"E/Master Contract to Handle All Types.sol\":837:1063  {... */\n      pop\n        /* \"E/Master Contract to Handle All Types.sol\":776:1063  function sendETH(address payable recipient) external payable {... */\n      pop\n      jump\t// out\n        /* \"E/Master Contract to Handle All Types.sol\":1910:2089  function triggerInternalTransaction(address target) external {... */\n    tag_21:\n        /* \"E/Master Contract to Handle All Types.sol\":1996:2002  target */\n      dup1\n        /* \"E/Master Contract to Handle All Types.sol\":1981:2016  InternalCaller(target).internalCall */\n      0xffffffffffffffffffffffffffffffffffffffff\n      and\n      0xf889fda4\n        /* \"E/Master Contract to Handle All Types.sol\":2017:2027  msg.sender */\n      caller\n        /* \"E/Master Contract to Handle All Types.sol\":1981:2028  InternalCaller(target).internalCall(msg.sender) */\n      mload(0x40)\n      dup3\n      0xffffffff\n      and\n      0xe0\n      shl\n      dup2\n      mstore\n      0x04\n      add\n      tag_51\n      swap2\n      swap1\n      tag_52\n      jump\t// in\n    tag_51:\n      0x00\n      mload(0x40)\n      dup1\n      dup4\n      sub\n      dup2\n      0x00\n      dup8\n      dup1\n      extcodesize\n      iszero\n      dup1\n      iszero\n      tag_53\n      jumpi\n      revert(0x00, 0x00)\n    tag_53:\n      pop\n      gas\n      call\n      iszero\n      dup1\n      iszero\n      tag_55\n      jumpi\n      returndatacopy(0x00, 0x00, returndatasize)\n      revert(0x00, returndatasize)\n    tag_55:\n      pop\n      pop\n      pop\n      pop\n        /* \"E/Master Contract to Handle All Types.sol\":2043:2082  InternalTxTriggered(msg.sender, target) */\n      0xdc3b476bab9d1993b3d3e96996d3ea91d063d10f03bbbb4baaf09e06eb426dd8\n        /* \"E/Master Contract to Handle All Types.sol\":2063:2073  msg.sender */\n      caller\n        /* \"E/Master Contract to Handle All Types.sol\":2075:2081  target */\n      dup3\n        /* \"E/Master Contract to Handle All Types.sol\":2043:2082  InternalTxTriggered(msg.sender, target) */\n      mload(0x40)\n      tag_56\n      swap3\n      swap2\n      swap1\n      tag_57\n      jump\t// in\n    tag_56:\n      mload(0x40)\n      dup1\n      swap2\n      sub\n      swap1\n      log1\n        /* \"E/Master Contract to Handle All Types.sol\":1910:2089  function triggerInternalTransaction(address target) external {... */\n      pop\n      jump\t// out\n        /* \"E/Master Contract to Handle All Types.sol\":1115:1291  function callOtherContract(address target) external {... */\n    tag_25:\n        /* \"E/Master Contract to Handle All Types.sol\":1192:1198  target */\n      dup1\n        /* \"E/Master Contract to Handle All Types.sol\":1177:1205  IOtherContract(target).hello */\n      0xffffffffffffffffffffffffffffffffffffffff\n      and\n      0x19ff1d21\n        /* \"E/Master Contract to Handle All Types.sol\":1177:1207  IOtherContract(target).hello() */\n      mload(0x40)\n      dup2\n      0xffffffff\n      and\n      0xe0\n      shl\n      dup2\n      mstore\n      0x04\n      add\n      0x00\n      mload(0x40)\n      dup1\n      dup4\n      sub\n      dup2\n      0x00\n      dup8\n      dup1\n      extcodesize\n      iszero\n      dup1\n      iszero\n      tag_59\n      jumpi\n      revert(0x00, 0x00)\n    tag_59:\n      pop\n      gas\n      call\n      iszero\n      dup1\n      iszero\n      tag_61\n      jumpi\n      returndatacopy(0x00, 0x00, returndatasize)\n      revert(0x00, returndatasize)\n    tag_61:\n      pop\n      pop\n      pop\n      pop\n        /* \"E/Master Contract to Handle All Types.sol\":1237:1247  msg.sender */\n      caller\n        /* \"E/Master Contract to Handle All Types.sol\":1222:1284  ContractCalled(msg.sender, \"Called hello() on other contract\") */\n      0xffffffffffffffffffffffffffffffffffffffff\n      and\n      0x95ffaffbd7d290d85877907d6ea1ee0f2ed132bd1b1b50a11a629ebc8b3b984a\n      mload(0x40)\n      tag_62\n      swap1\n      tag_63\n      jump\t// in\n    tag_62:\n      mload(0x40)\n      dup1\n      swap2\n      sub\n      swap1\n      log2\n        /* \"E/Master Contract to Handle All Types.sol\":1115:1291  function callOtherContract(address target) external {... */\n      pop\n      jump\t// out\n        /* \"E/Master Contract to Handle All Types.sol\":1349:1510  function deployNewContract() external {... */\n    tag_28:\n        /* \"E/Master Contract to Handle All Types.sol\":1397:1425  DeployedContract newContract */\n      0x00\n        /* \"E/Master Contract to Handle All Types.sol\":1428:1450  new DeployedContract() */\n      mload(0x40)\n      tag_65\n      swap1\n      tag_66\n      jump\t// in\n    tag_65:\n      mload(0x40)\n      dup1\n      swap2\n      sub\n      swap1\n      0x00\n      create\n      dup1\n      iszero\n      dup1\n      iszero\n      tag_67\n      jumpi\n      returndatacopy(0x00, 0x00, returndatasize)\n      revert(0x00, returndatasize)\n    tag_67:\n      pop\n        /* \"E/Master Contract to Handle All Types.sol\":1397:1450  DeployedContract newContract = new DeployedContract() */\n      swap1\n      pop\n        /* \"E/Master Contract to Handle All Types.sol\":1465:1503  ContractDeployed(address(newContract)) */\n      0x8ffcdc15a283d706d38281f500270d8b5a656918f555de0913d7455e3e6bc1bf\n        /* \"E/Master Contract to Handle All Types.sol\":1490:1501  newContract */\n      dup2\n        /* \"E/Master Contract to Handle All Types.sol\":1465:1503  ContractDeployed(address(newContract)) */\n      mload(0x40)\n      tag_68\n      swap2\n      swap1\n      tag_52\n      jump\t// in\n    tag_68:\n      mload(0x40)\n      dup1\n      swap2\n      sub\n      swap1\n      log1\n        /* \"E/Master Contract to Handle All Types.sol\":1387:1510  {... */\n      pop\n        /* \"E/Master Contract to Handle All Types.sol\":1349:1510  function deployNewContract() external {... */\n      jump\t// out\n        /* \"E/Master Contract to Handle All Types.sol\":1561:1851  function delegateTo(address implementation) external {... */\n    tag_32:\n        /* \"E/Master Contract to Handle All Types.sol\":1625:1637  bool success */\n      0x00\n        /* \"E/Master Contract to Handle All Types.sol\":1643:1657  implementation */\n      dup2\n        /* \"E/Master Contract to Handle All Types.sol\":1643:1670  implementation.delegatecall */\n      0xffffffffffffffffffffffffffffffffffffffff\n      and\n        /* \"E/Master Contract to Handle All Types.sol\":1684:1728  abi.encodeWithSignature(\"logDelegateCall()\") */\n      add(0x24, mload(0x40))\n      mload(0x40)\n      0x20\n      dup2\n      dup4\n      sub\n      sub\n      dup2\n      mstore\n      swap1\n      0x40\n      mstore\n      and(not(0xffffffffffffffffffffffffffffffffffffffffffffffffffffffff), 0xf7b0d56800000000000000000000000000000000000000000000000000000000)\n      0x20\n      dup3\n      add\n      dup1\n      mload\n      0xffffffffffffffffffffffffffffffffffffffffffffffffffffffff\n      dup4\n      dup2\n      dup4\n      and\n      or\n      dup4\n      mstore\n      pop\n      pop\n      pop\n      pop\n        /* \"E/Master Contract to Handle All Types.sol\":1643:1738  implementation.delegatecall(... */\n      mload(0x40)\n      tag_70\n      swap2\n      swap1\n      tag_71\n      jump\t// in\n    tag_70:\n      0x00\n      mload(0x40)\n      dup1\n      dup4\n      sub\n      dup2\n      dup6\n      gas\n      delegatecall\n      swap2\n      pop\n      pop\n      returndatasize\n      dup1\n      0x00\n      dup2\n      eq\n      tag_74\n      jumpi\n      mload(0x40)\n      swap2\n      pop\n      and(add(returndatasize, 0x3f), not(0x1f))\n      dup3\n      add\n      0x40\n      mstore\n      returndatasize\n      dup3\n      mstore\n      returndatasize\n      0x00\n      0x20\n      dup5\n      add\n      returndatacopy\n      jump(tag_73)\n    tag_74:\n      0x60\n      swap2\n      pop\n    tag_73:\n      pop\n        /* \"E/Master Contract to Handle All Types.sol\":1624:1738  (bool success, ) = implementation.delegatecall(... */\n      pop\n      swap1\n      pop\n        /* \"E/Master Contract to Handle All Types.sol\":1756:1763  success */\n      dup1\n        /* \"E/Master Contract to Handle All Types.sol\":1748:1787  require(success, \"Delegatecall failed\") */\n      tag_75\n      jumpi\n      mload(0x40)\n      0x08c379a000000000000000000000000000000000000000000000000000000000\n      dup2\n      mstore\n      0x04\n      add\n      tag_76\n      swap1\n      tag_77\n      jump\t// in\n    tag_76:\n      mload(0x40)\n      dup1\n      swap2\n      sub\n      swap1\n      revert\n    tag_75:\n        /* \"E/Master Contract to Handle All Types.sol\":1802:1844  DelegateCalled(msg.sender, implementation) */\n      0xaced19579796ed45183013446919039e934a30875c81fa1989589dde1f5691c5\n        /* \"E/Master Contract to Handle All Types.sol\":1817:1827  msg.sender */\n      caller\n        /* \"E/Master Contract to Handle All Types.sol\":1829:1843  implementation */\n      dup4\n        /* \"E/Master Contract to Handle All Types.sol\":1802:1844  DelegateCalled(msg.sender, implementation) */\n      mload(0x40)\n      tag_78\n      swap3\n      swap2\n      swap1\n      tag_57\n      jump\t// in\n    tag_78:\n      mload(0x40)\n      dup1\n      swap2\n      sub\n      swap1\n      log1\n        /* \"E/Master Contract to Handle All Types.sol\":1614:1851  {... */\n      pop\n        /* \"E/Master Contract to Handle All Types.sol\":1561:1851  function delegateTo(address implementation) external {... */\n      pop\n      jump\t// out\n        /* \"E/Master Contract to Handle All Types.sol\":2150:2392  function deployAndSelfDestruct(address payable target) external payable {... */\n    tag_35:\n        /* \"E/Master Contract to Handle All Types.sol\":2252:2253  0 */\n      0x00\n        /* \"E/Master Contract to Handle All Types.sol\":2240:2249  msg.value */\n      callvalue\n        /* \"E/Master Contract to Handle All Types.sol\":2240:2253  msg.value > 0 */\n      gt\n        /* \"E/Master Contract to Handle All Types.sol\":2232:2266  require(msg.value > 0, \"Send ETH\") */\n      tag_80\n      jumpi\n      mload(0x40)\n      0x08c379a000000000000000000000000000000000000000000000000000000000\n      dup2\n      mstore\n      0x04\n      add\n      tag_81\n      swap1\n      tag_82\n      jump\t// in\n    tag_81:\n      mload(0x40)\n      dup1\n      swap2\n      sub\n      swap1\n      revert\n    tag_80:\n        /* \"E/Master Contract to Handle All Types.sol\":2276:2301  SelfDestructSender sender */\n      0x00\n        /* \"E/Master Contract to Handle All Types.sol\":2334:2343  msg.value */\n      callvalue\n        /* \"E/Master Contract to Handle All Types.sol\":2345:2351  target */\n      dup3\n        /* \"E/Master Contract to Handle All Types.sol\":2304:2352  new SelfDestructSender{value: msg.value}(target) */\n      mload(0x40)\n      tag_83\n      swap1\n      tag_84\n      jump\t// in\n    tag_83:\n      tag_85\n      swap2\n      swap1\n      tag_86\n      jump\t// in\n    tag_85:\n      mload(0x40)\n      dup1\n      swap2\n      sub\n      swap1\n      dup3\n      create\n      swap1\n      pop\n      dup1\n      iszero\n      dup1\n      iszero\n      tag_87\n      jumpi\n      returndatacopy(0x00, 0x00, returndatasize)\n      revert(0x00, returndatasize)\n    tag_87:\n      pop\n        /* \"E/Master Contract to Handle All Types.sol\":2276:2352  SelfDestructSender sender = new SelfDestructSender{value: msg.value}(target) */\n      swap1\n      pop\n        /* \"E/Master Contract to Handle All Types.sol\":2362:2368  sender */\n      dup1\n        /* \"E/Master Contract to Handle All Types.sol\":2362:2383  sender.destroyAndSend */\n      0xffffffffffffffffffffffffffffffffffffffff\n      and\n      0x45cefcec\n        /* \"E/Master Contract to Handle All Types.sol\":2362:2385  sender.destroyAndSend() */\n      mload(0x40)\n      dup2\n      0xffffffff\n      and\n      0xe0\n      shl\n      dup2\n      mstore\n      0x04\n      add\n      0x00\n      mload(0x40)\n      dup1\n      dup4\n      sub\n      dup2\n      0x00\n      dup8\n      dup1\n      extcodesize\n      iszero\n      dup1\n      iszero\n      tag_88\n      jumpi\n      revert(0x00, 0x00)\n    tag_88:\n      pop\n      gas\n      call\n      iszero\n      dup1\n      iszero\n      tag_90\n      jumpi\n      returndatacopy(0x00, 0x00, returndatasize)\n      revert(0x00, returndatasize)\n    tag_90:\n      pop\n      pop\n      pop\n      pop\n        /* \"E/Master Contract to Handle All Types.sol\":2222:2392  {... */\n      pop\n        /* \"E/Master Contract to Handle All Types.sol\":2150:2392  function deployAndSelfDestruct(address payable target) external payable {... */\n      pop\n      jump\t// out\n    tag_66:\n      dataSize(sub_0)\n      dup1\n      dataOffset(sub_0)\n      dup4\n      codecopy\n      add\n      swap1\n      jump\t// out\n    tag_84:\n      dataSize(sub_1)\n      dup1\n      dataOffset(sub_1)\n      dup4\n      codecopy\n      add\n      swap1\n      jump\t// out\n        /* \"#utility.yul\":7:133   */\n    tag_91:\n        /* \"#utility.yul\":44:51   */\n      0x00\n        /* \"#utility.yul\":84:126   */\n      0xffffffffffffffffffffffffffffffffffffffff\n        /* \"#utility.yul\":77:82   */\n      dup3\n        /* \"#utility.yul\":73:127   */\n      and\n        /* \"#utility.yul\":62:127   */\n      swap1\n      pop\n        /* \"#utility.yul\":7:133   */\n      swap2\n      swap1\n      pop\n      jump\t// out\n        /* \"#utility.yul\":139:235   */\n    tag_92:\n        /* \"#utility.yul\":176:183   */\n      0x00\n        /* \"#utility.yul\":205:229   */\n      tag_125\n        /* \"#utility.yul\":223:228   */\n      dup3\n        /* \"#utility.yul\":205:229   */\n      tag_91\n      jump\t// in\n    tag_125:\n        /* \"#utility.yul\":194:229   */\n      swap1\n      pop\n        /* \"#utility.yul\":139:235   */\n      swap2\n      swap1\n      pop\n      jump\t// out\n        /* \"#utility.yul\":241:359   */\n    tag_93:\n        /* \"#utility.yul\":328:352   */\n      tag_127\n        /* \"#utility.yul\":346:351   */\n      dup2\n        /* \"#utility.yul\":328:352   */\n      tag_92\n      jump\t// in\n    tag_127:\n        /* \"#utility.yul\":323:326   */\n      dup3\n        /* \"#utility.yul\":316:353   */\n      mstore\n        /* \"#utility.yul\":241:359   */\n      pop\n      pop\n      jump\t// out\n        /* \"#utility.yul\":365:442   */\n    tag_94:\n        /* \"#utility.yul\":402:409   */\n      0x00\n        /* \"#utility.yul\":431:436   */\n      dup2\n        /* \"#utility.yul\":420:436   */\n      swap1\n      pop\n        /* \"#utility.yul\":365:442   */\n      swap2\n      swap1\n      pop\n      jump\t// out\n        /* \"#utility.yul\":448:566   */\n    tag_95:\n        /* \"#utility.yul\":535:559   */\n      tag_130\n        /* \"#utility.yul\":553:558   */\n      dup2\n        /* \"#utility.yul\":535:559   */\n      tag_94\n      jump\t// in\n    tag_130:\n        /* \"#utility.yul\":530:533   */\n      dup3\n        /* \"#utility.yul\":523:560   */\n      mstore\n        /* \"#utility.yul\":448:566   */\n      pop\n      pop\n      jump\t// out\n        /* \"#utility.yul\":572:904   */\n    tag_12:\n        /* \"#utility.yul\":693:697   */\n      0x00\n        /* \"#utility.yul\":731:733   */\n      0x40\n        /* \"#utility.yul\":720:729   */\n      dup3\n        /* \"#utility.yul\":716:734   */\n      add\n        /* \"#utility.yul\":708:734   */\n      swap1\n      pop\n        /* \"#utility.yul\":744:815   */\n      tag_132\n        /* \"#utility.yul\":812:813   */\n      0x00\n        /* \"#utility.yul\":801:810   */\n      dup4\n        /* \"#utility.yul\":797:814   */\n      add\n        /* \"#utility.yul\":788:794   */\n      dup6\n        /* \"#utility.yul\":744:815   */\n      tag_93\n      jump\t// in\n    tag_132:\n        /* \"#utility.yul\":825:897   */\n      tag_133\n        /* \"#utility.yul\":893:895   */\n      0x20\n        /* \"#utility.yul\":882:891   */\n      dup4\n        /* \"#utility.yul\":878:896   */\n      add\n        /* \"#utility.yul\":869:875   */\n      dup5\n        /* \"#utility.yul\":825:897   */\n      tag_95\n      jump\t// in\n    tag_133:\n        /* \"#utility.yul\":572:904   */\n      swap4\n      swap3\n      pop\n      pop\n      pop\n      jump\t// out\n        /* \"#utility.yul\":991:1108   */\n    tag_97:\n        /* \"#utility.yul\":1100:1101   */\n      0x00\n        /* \"#utility.yul\":1097:1098   */\n      0x00\n        /* \"#utility.yul\":1090:1102   */\n      revert\n        /* \"#utility.yul\":1237:1341   */\n    tag_99:\n        /* \"#utility.yul\":1282:1289   */\n      0x00\n        /* \"#utility.yul\":1311:1335   */\n      tag_138\n        /* \"#utility.yul\":1329:1334   */\n      dup3\n        /* \"#utility.yul\":1311:1335   */\n      tag_91\n      jump\t// in\n    tag_138:\n        /* \"#utility.yul\":1300:1335   */\n      swap1\n      pop\n        /* \"#utility.yul\":1237:1341   */\n      swap2\n      swap1\n      pop\n      jump\t// out\n        /* \"#utility.yul\":1347:1485   */\n    tag_100:\n        /* \"#utility.yul\":1428:1460   */\n      tag_140\n        /* \"#utility.yul\":1454:1459   */\n      dup2\n        /* \"#utility.yul\":1428:1460   */\n      tag_99\n      jump\t// in\n    tag_140:\n        /* \"#utility.yul\":1421:1426   */\n      dup2\n        /* \"#utility.yul\":1418:1461   */\n      eq\n        /* \"#utility.yul\":1408:1479   */\n      tag_141\n      jumpi\n        /* \"#utility.yul\":1475:1476   */\n      0x00\n        /* \"#utility.yul\":1472:1473   */\n      0x00\n        /* \"#utility.yul\":1465:1477   */\n      revert\n        /* \"#utility.yul\":1408:1479   */\n    tag_141:\n        /* \"#utility.yul\":1347:1485   */\n      pop\n      jump\t// out\n        /* \"#utility.yul\":1491:1646   */\n    tag_101:\n        /* \"#utility.yul\":1545:1550   */\n      0x00\n        /* \"#utility.yul\":1583:1589   */\n      dup2\n        /* \"#utility.yul\":1570:1590   */\n      calldataload\n        /* \"#utility.yul\":1561:1590   */\n      swap1\n      pop\n        /* \"#utility.yul\":1599:1640   */\n      tag_143\n        /* \"#utility.yul\":1634:1639   */\n      dup2\n        /* \"#utility.yul\":1599:1640   */\n      tag_100\n      jump\t// in\n    tag_143:\n        /* \"#utility.yul\":1491:1646   */\n      swap3\n      swap2\n      pop\n      pop\n      jump\t// out\n        /* \"#utility.yul\":1652:1997   */\n    tag_15:\n        /* \"#utility.yul\":1719:1725   */\n      0x00\n        /* \"#utility.yul\":1768:1770   */\n      0x20\n        /* \"#utility.yul\":1756:1765   */\n      dup3\n        /* \"#utility.yul\":1747:1754   */\n      dup5\n        /* \"#utility.yul\":1743:1766   */\n      sub\n        /* \"#utility.yul\":1739:1771   */\n      slt\n        /* \"#utility.yul\":1736:1855   */\n      iszero\n      tag_145\n      jumpi\n        /* \"#utility.yul\":1774:1853   */\n      tag_146\n      tag_97\n      jump\t// in\n    tag_146:\n        /* \"#utility.yul\":1736:1855   */\n    tag_145:\n        /* \"#utility.yul\":1894:1895   */\n      0x00\n        /* \"#utility.yul\":1919:1980   */\n      tag_147\n        /* \"#utility.yul\":1972:1979   */\n      dup5\n        /* \"#utility.yul\":1963:1969   */\n      dup3\n        /* \"#utility.yul\":1952:1961   */\n      dup6\n        /* \"#utility.yul\":1948:1970   */\n      add\n        /* \"#utility.yul\":1919:1980   */\n      tag_101\n      jump\t// in\n    tag_147:\n        /* \"#utility.yul\":1909:1980   */\n      swap2\n      pop\n        /* \"#utility.yul\":1865:1990   */\n      pop\n        /* \"#utility.yul\":1652:1997   */\n      swap3\n      swap2\n      pop\n      pop\n      jump\t// out\n        /* \"#utility.yul\":2003:2125   */\n    tag_102:\n        /* \"#utility.yul\":2076:2100   */\n      tag_149\n        /* \"#utility.yul\":2094:2099   */\n      dup2\n        /* \"#utility.yul\":2076:2100   */\n      tag_92\n      jump\t// in\n    tag_149:\n        /* \"#utility.yul\":2069:2074   */\n      dup2\n        /* \"#utility.yul\":2066:2101   */\n      eq\n        /* \"#utility.yul\":2056:2119   */\n      tag_150\n      jumpi\n        /* \"#utility.yul\":2115:2116   */\n      0x00\n        /* \"#utility.yul\":2112:2113   */\n      0x00\n        /* \"#utility.yul\":2105:2117   */\n      revert\n        /* \"#utility.yul\":2056:2119   */\n    tag_150:\n        /* \"#utility.yul\":2003:2125   */\n      pop\n      jump\t// out\n        /* \"#utility.yul\":2131:2270   */\n    tag_103:\n        /* \"#utility.yul\":2177:2182   */\n      0x00\n        /* \"#utility.yul\":2215:2221   */\n      dup2\n        /* \"#utility.yul\":2202:2222   */\n      calldataload\n        /* \"#utility.yul\":2193:2222   */\n      swap1\n      pop\n        /* \"#utility.yul\":2231:2264   */\n      tag_152\n        /* \"#utility.yul\":2258:2263   */\n      dup2\n        /* \"#utility.yul\":2231:2264   */\n      tag_102\n      jump\t// in\n    tag_152:\n        /* \"#utility.yul\":2131:2270   */\n      swap3\n      swap2\n      pop\n      pop\n      jump\t// out\n        /* \"#utility.yul\":2276:2605   */\n    tag_20:\n        /* \"#utility.yul\":2335:2341   */\n      0x00\n        /* \"#utility.yul\":2384:2386   */\n      0x20\n        /* \"#utility.yul\":2372:2381   */\n      dup3\n        /* \"#utility.yul\":2363:2370   */\n      dup5\n        /* \"#utility.yul\":2359:2382   */\n      sub\n        /* \"#utility.yul\":2355:2387   */\n      slt\n        /* \"#utility.yul\":2352:2471   */\n      iszero\n      tag_154\n      jumpi\n        /* \"#utility.yul\":2390:2469   */\n      tag_155\n      tag_97\n      jump\t// in\n    tag_155:\n        /* \"#utility.yul\":2352:2471   */\n    tag_154:\n        /* \"#utility.yul\":2510:2511   */\n      0x00\n        /* \"#utility.yul\":2535:2588   */\n      tag_156\n        /* \"#utility.yul\":2580:2587   */\n      dup5\n        /* \"#utility.yul\":2571:2577   */\n      dup3\n        /* \"#utility.yul\":2560:2569   */\n      dup6\n        /* \"#utility.yul\":2556:2578   */\n      add\n        /* \"#utility.yul\":2535:2588   */\n      tag_103\n      jump\t// in\n    tag_156:\n        /* \"#utility.yul\":2525:2588   */\n      swap2\n      pop\n        /* \"#utility.yul\":2481:2598   */\n      pop\n        /* \"#utility.yul\":2276:2605   */\n      swap3\n      swap2\n      pop\n      pop\n      jump\t// out\n        /* \"#utility.yul\":2611:2780   */\n    tag_104:\n        /* \"#utility.yul\":2695:2706   */\n      0x00\n        /* \"#utility.yul\":2729:2735   */\n      dup3\n        /* \"#utility.yul\":2724:2727   */\n      dup3\n        /* \"#utility.yul\":2717:2736   */\n      mstore\n        /* \"#utility.yul\":2769:2773   */\n      0x20\n        /* \"#utility.yul\":2764:2767   */\n      dup3\n        /* \"#utility.yul\":2760:2774   */\n      add\n        /* \"#utility.yul\":2745:2774   */\n      swap1\n      pop\n        /* \"#utility.yul\":2611:2780   */\n      swap3\n      swap2\n      pop\n      pop\n      jump\t// out\n        /* \"#utility.yul\":2786:2949   */\n    tag_105:\n        /* \"#utility.yul\":2926:2941   */\n      0x53656e6420736f6d652045544800000000000000000000000000000000000000\n        /* \"#utility.yul\":2922:2923   */\n      0x00\n        /* \"#utility.yul\":2914:2920   */\n      dup3\n        /* \"#utility.yul\":2910:2924   */\n      add\n        /* \"#utility.yul\":2903:2942   */\n      mstore\n        /* \"#utility.yul\":2786:2949   */\n      pop\n      jump\t// out\n        /* \"#utility.yul\":2955:3321   */\n    tag_106:\n        /* \"#utility.yul\":3097:3100   */\n      0x00\n        /* \"#utility.yul\":3118:3185   */\n      tag_160\n        /* \"#utility.yul\":3182:3184   */\n      0x0d\n        /* \"#utility.yul\":3177:3180   */\n      dup4\n        /* \"#utility.yul\":3118:3185   */\n      tag_104\n      jump\t// in\n    tag_160:\n        /* \"#utility.yul\":3111:3185   */\n      swap2\n      pop\n        /* \"#utility.yul\":3194:3287   */\n      tag_161\n        /* \"#utility.yul\":3283:3286   */\n      dup3\n        /* \"#utility.yul\":3194:3287   */\n      tag_105\n      jump\t// in\n    tag_161:\n        /* \"#utility.yul\":3312:3314   */\n      0x20\n        /* \"#utility.yul\":3307:3310   */\n      dup3\n        /* \"#utility.yul\":3303:3315   */\n      add\n        /* \"#utility.yul\":3296:3315   */\n      swap1\n      pop\n        /* \"#utility.yul\":2955:3321   */\n      swap2\n      swap1\n      pop\n      jump\t// out\n        /* \"#utility.yul\":3327:3746   */\n    tag_39:\n        /* \"#utility.yul\":3493:3497   */\n      0x00\n        /* \"#utility.yul\":3531:3533   */\n      0x20\n        /* \"#utility.yul\":3520:3529   */\n      dup3\n        /* \"#utility.yul\":3516:3534   */\n      add\n        /* \"#utility.yul\":3508:3534   */\n      swap1\n      pop\n        /* \"#utility.yul\":3580:3589   */\n      dup2\n        /* \"#utility.yul\":3574:3578   */\n      dup2\n        /* \"#utility.yul\":3570:3590   */\n      sub\n        /* \"#utility.yul\":3566:3567   */\n      0x00\n        /* \"#utility.yul\":3555:3564   */\n      dup4\n        /* \"#utility.yul\":3551:3568   */\n      add\n        /* \"#utility.yul\":3544:3591   */\n      mstore\n        /* \"#utility.yul\":3608:3739   */\n      tag_163\n        /* \"#utility.yul\":3734:3738   */\n      dup2\n        /* \"#utility.yul\":3608:3739   */\n      tag_106\n      jump\t// in\n    tag_163:\n        /* \"#utility.yul\":3600:3739   */\n      swap1\n      pop\n        /* \"#utility.yul\":3327:3746   */\n      swap2\n      swap1\n      pop\n      jump\t// out\n        /* \"#utility.yul\":3752:3899   */\n    tag_107:\n        /* \"#utility.yul\":3853:3864   */\n      0x00\n        /* \"#utility.yul\":3890:3893   */\n      dup2\n        /* \"#utility.yul\":3875:3893   */\n      swap1\n      pop\n        /* \"#utility.yul\":3752:3899   */\n      swap3\n      swap2\n      pop\n      pop\n      jump\t// out\n        /* \"#utility.yul\":3905:4019   */\n    tag_108:\n      pop\n      jump\t// out\n        /* \"#utility.yul\":4025:4423   */\n    tag_109:\n        /* \"#utility.yul\":4184:4187   */\n      0x00\n        /* \"#utility.yul\":4205:4288   */\n      tag_167\n        /* \"#utility.yul\":4286:4287   */\n      0x00\n        /* \"#utility.yul\":4281:4284   */\n      dup4\n        /* \"#utility.yul\":4205:4288   */\n      tag_107\n      jump\t// in\n    tag_167:\n        /* \"#utility.yul\":4198:4288   */\n      swap2\n      pop\n        /* \"#utility.yul\":4297:4390   */\n      tag_168\n        /* \"#utility.yul\":4386:4389   */\n      dup3\n        /* \"#utility.yul\":4297:4390   */\n      tag_108\n      jump\t// in\n    tag_168:\n        /* \"#utility.yul\":4415:4416   */\n      0x00\n        /* \"#utility.yul\":4410:4413   */\n      dup3\n        /* \"#utility.yul\":4406:4417   */\n      add\n        /* \"#utility.yul\":4399:4417   */\n      swap1\n      pop\n        /* \"#utility.yul\":4025:4423   */\n      swap2\n      swap1\n      pop\n      jump\t// out\n        /* \"#utility.yul\":4429:4808   */\n    tag_41:\n        /* \"#utility.yul\":4613:4616   */\n      0x00\n        /* \"#utility.yul\":4635:4782   */\n      tag_170\n        /* \"#utility.yul\":4778:4781   */\n      dup3\n        /* \"#utility.yul\":4635:4782   */\n      tag_109\n      jump\t// in\n    tag_170:\n        /* \"#utility.yul\":4628:4782   */\n      swap2\n      pop\n        /* \"#utility.yul\":4799:4802   */\n      dup2\n        /* \"#utility.yul\":4792:4802   */\n      swap1\n      pop\n        /* \"#utility.yul\":4429:4808   */\n      swap2\n      swap1\n      pop\n      jump\t// out\n        /* \"#utility.yul\":4814:4982   */\n    tag_110:\n        /* \"#utility.yul\":4954:4974   */\n      0x4661696c656420746f2073656e64204554480000000000000000000000000000\n        /* \"#utility.yul\":4950:4951   */\n      0x00\n        /* \"#utility.yul\":4942:4948   */\n      dup3\n        /* \"#utility.yul\":4938:4952   */\n      add\n        /* \"#utility.yul\":4931:4975   */\n      mstore\n        /* \"#utility.yul\":4814:4982   */\n      pop\n      jump\t// out\n        /* \"#utility.yul\":4988:5354   */\n    tag_111:\n        /* \"#utility.yul\":5130:5133   */\n      0x00\n        /* \"#utility.yul\":5151:5218   */\n      tag_173\n        /* \"#utility.yul\":5215:5217   */\n      0x12\n        /* \"#utility.yul\":5210:5213   */\n      dup4\n        /* \"#utility.yul\":5151:5218   */\n      tag_104\n      jump\t// in\n    tag_173:\n        /* \"#utility.yul\":5144:5218   */\n      swap2\n      pop\n        /* \"#utility.yul\":5227:5320   */\n      tag_174\n        /* \"#utility.yul\":5316:5319   */\n      dup3\n        /* \"#utility.yul\":5227:5320   */\n      tag_110\n      jump\t// in\n    tag_174:\n        /* \"#utility.yul\":5345:5347   */\n      0x20\n        /* \"#utility.yul\":5340:5343   */\n      dup3\n        /* \"#utility.yul\":5336:5348   */\n      add\n        /* \"#utility.yul\":5329:5348   */\n      swap1\n      pop\n        /* \"#utility.yul\":4988:5354   */\n      swap2\n      swap1\n      pop\n      jump\t// out\n        /* \"#utility.yul\":5360:5779   */\n    tag_47:\n        /* \"#utility.yul\":5526:5530   */\n      0x00\n        /* \"#utility.yul\":5564:5566   */\n      0x20\n        /* \"#utility.yul\":5553:5562   */\n      dup3\n        /* \"#utility.yul\":5549:5567   */\n      add\n        /* \"#utility.yul\":5541:5567   */\n      swap1\n      pop\n        /* \"#utility.yul\":5613:5622   */\n      dup2\n        /* \"#utility.yul\":5607:5611   */\n      dup2\n        /* \"#utility.yul\":5603:5623   */\n      sub\n        /* \"#utility.yul\":5599:5600   */\n      0x00\n        /* \"#utility.yul\":5588:5597   */\n      dup4\n        /* \"#utility.yul\":5584:5601   */\n      add\n        /* \"#utility.yul\":5577:5624   */\n      mstore\n        /* \"#utility.yul\":5641:5772   */\n      tag_176\n        /* \"#utility.yul\":5767:5771   */\n      dup2\n        /* \"#utility.yul\":5641:5772   */\n      tag_111\n      jump\t// in\n    tag_176:\n        /* \"#utility.yul\":5633:5772   */\n      swap1\n      pop\n        /* \"#utility.yul\":5360:5779   */\n      swap2\n      swap1\n      pop\n      jump\t// out\n        /* \"#utility.yul\":5785:6007   */\n    tag_49:\n        /* \"#utility.yul\":5878:5882   */\n      0x00\n        /* \"#utility.yul\":5916:5918   */\n      0x20\n        /* \"#utility.yul\":5905:5914   */\n      dup3\n        /* \"#utility.yul\":5901:5919   */\n      add\n        /* \"#utility.yul\":5893:5919   */\n      swap1\n      pop\n        /* \"#utility.yul\":5929:6000   */\n      tag_178\n        /* \"#utility.yul\":5997:5998   */\n      0x00\n        /* \"#utility.yul\":5986:5995   */\n      dup4\n        /* \"#utility.yul\":5982:5999   */\n      add\n        /* \"#utility.yul\":5973:5979   */\n      dup5\n        /* \"#utility.yul\":5929:6000   */\n      tag_95\n      jump\t// in\n    tag_178:\n        /* \"#utility.yul\":5785:6007   */\n      swap3\n      swap2\n      pop\n      pop\n      jump\t// out\n        /* \"#utility.yul\":6013:6235   */\n    tag_52:\n        /* \"#utility.yul\":6106:6110   */\n      0x00\n        /* \"#utility.yul\":6144:6146   */\n      0x20\n        /* \"#utility.yul\":6133:6142   */\n      dup3\n        /* \"#utility.yul\":6129:6147   */\n      add\n        /* \"#utility.yul\":6121:6147   */\n      swap1\n      pop\n        /* \"#utility.yul\":6157:6228   */\n      tag_180\n        /* \"#utility.yul\":6225:6226   */\n      0x00\n        /* \"#utility.yul\":6214:6223   */\n      dup4\n        /* \"#utility.yul\":6210:6227   */\n      add\n        /* \"#utility.yul\":6201:6207   */\n      dup5\n        /* \"#utility.yul\":6157:6228   */\n      tag_93\n      jump\t// in\n    tag_180:\n        /* \"#utility.yul\":6013:6235   */\n      swap3\n      swap2\n      pop\n      pop\n      jump\t// out\n        /* \"#utility.yul\":6241:6573   */\n    tag_57:\n        /* \"#utility.yul\":6362:6366   */\n      0x00\n        /* \"#utility.yul\":6400:6402   */\n      0x40\n        /* \"#utility.yul\":6389:6398   */\n      dup3\n        /* \"#utility.yul\":6385:6403   */\n      add\n        /* \"#utility.yul\":6377:6403   */\n      swap1\n      pop\n        /* \"#utility.yul\":6413:6484   */\n      tag_182\n        /* \"#utility.yul\":6481:6482   */\n      0x00\n        /* \"#utility.yul\":6470:6479   */\n      dup4\n        /* \"#utility.yul\":6466:6483   */\n      add\n        /* \"#utility.yul\":6457:6463   */\n      dup6\n        /* \"#utility.yul\":6413:6484   */\n      tag_93\n      jump\t// in\n    tag_182:\n        /* \"#utility.yul\":6494:6566   */\n      tag_183\n        /* \"#utility.yul\":6562:6564   */\n      0x20\n        /* \"#utility.yul\":6551:6560   */\n      dup4\n        /* \"#utility.yul\":6547:6565   */\n      add\n        /* \"#utility.yul\":6538:6544   */\n      dup5\n        /* \"#utility.yul\":6494:6566   */\n      tag_93\n      jump\t// in\n    tag_183:\n        /* \"#utility.yul\":6241:6573   */\n      swap4\n      swap3\n      pop\n      pop\n      pop\n      jump\t// out\n        /* \"#utility.yul\":6579:6761   */\n    tag_112:\n        /* \"#utility.yul\":6719:6753   */\n      0x43616c6c65642068656c6c6f2829206f6e206f7468657220636f6e7472616374\n        /* \"#utility.yul\":6715:6716   */\n      0x00\n        /* \"#utility.yul\":6707:6713   */\n      dup3\n        /* \"#utility.yul\":6703:6717   */\n      add\n        /* \"#utility.yul\":6696:6754   */\n      mstore\n        /* \"#utility.yul\":6579:6761   */\n      pop\n      jump\t// out\n        /* \"#utility.yul\":6767:7133   */\n    tag_113:\n        /* \"#utility.yul\":6909:6912   */\n      0x00\n        /* \"#utility.yul\":6930:6997   */\n      tag_186\n        /* \"#utility.yul\":6994:6996   */\n      0x20\n        /* \"#utility.yul\":6989:6992   */\n      dup4\n        /* \"#utility.yul\":6930:6997   */\n      tag_104\n      jump\t// in\n    tag_186:\n        /* \"#utility.yul\":6923:6997   */\n      swap2\n      pop\n        /* \"#utility.yul\":7006:7099   */\n      tag_187\n        /* \"#utility.yul\":7095:7098   */\n      dup3\n        /* \"#utility.yul\":7006:7099   */\n      tag_112\n      jump\t// in\n    tag_187:\n        /* \"#utility.yul\":7124:7126   */\n      0x20\n        /* \"#utility.yul\":7119:7122   */\n      dup3\n        /* \"#utility.yul\":7115:7127   */\n      add\n        /* \"#utility.yul\":7108:7127   */\n      swap1\n      pop\n        /* \"#utility.yul\":6767:7133   */\n      swap2\n      swap1\n      pop\n      jump\t// out\n        /* \"#utility.yul\":7139:7558   */\n    tag_63:\n        /* \"#utility.yul\":7305:7309   */\n      0x00\n        /* \"#utility.yul\":7343:7345   */\n      0x20\n        /* \"#utility.yul\":7332:7341   */\n      dup3\n        /* \"#utility.yul\":7328:7346   */\n      add\n        /* \"#utility.yul\":7320:7346   */\n      swap1\n      pop\n        /* \"#utility.yul\":7392:7401   */\n      dup2\n        /* \"#utility.yul\":7386:7390   */\n      dup2\n        /* \"#utility.yul\":7382:7402   */\n      sub\n        /* \"#utility.yul\":7378:7379   */\n      0x00\n        /* \"#utility.yul\":7367:7376   */\n      dup4\n        /* \"#utility.yul\":7363:7380   */\n      add\n        /* \"#utility.yul\":7356:7403   */\n      mstore\n        /* \"#utility.yul\":7420:7551   */\n      tag_189\n        /* \"#utility.yul\":7546:7550   */\n      dup2\n        /* \"#utility.yul\":7420:7551   */\n      tag_113\n      jump\t// in\n    tag_189:\n        /* \"#utility.yul\":7412:7551   */\n      swap1\n      pop\n        /* \"#utility.yul\":7139:7558   */\n      swap2\n      swap1\n      pop\n      jump\t// out\n        /* \"#utility.yul\":7564:7662   */\n    tag_114:\n        /* \"#utility.yul\":7615:7621   */\n      0x00\n        /* \"#utility.yul\":7649:7654   */\n      dup2\n        /* \"#utility.yul\":7643:7655   */\n      mload\n        /* \"#utility.yul\":7633:7655   */\n      swap1\n      pop\n        /* \"#utility.yul\":7564:7662   */\n      swap2\n      swap1\n      pop\n      jump\t// out\n        /* \"#utility.yul\":7668:7807   */\n    tag_115:\n        /* \"#utility.yul\":7757:7763   */\n      dup3\n        /* \"#utility.yul\":7752:7755   */\n      dup2\n        /* \"#utility.yul\":7747:7750   */\n      dup4\n        /* \"#utility.yul\":7741:7764   */\n      mcopy\n        /* \"#utility.yul\":7798:7799   */\n      0x00\n        /* \"#utility.yul\":7789:7795   */\n      dup4\n        /* \"#utility.yul\":7784:7787   */\n      dup4\n        /* \"#utility.yul\":7780:7796   */\n      add\n        /* \"#utility.yul\":7773:7800   */\n      mstore\n        /* \"#utility.yul\":7668:7807   */\n      pop\n      pop\n      pop\n      jump\t// out\n        /* \"#utility.yul\":7813:8199   */\n    tag_116:\n        /* \"#utility.yul\":7917:7920   */\n      0x00\n        /* \"#utility.yul\":7945:7983   */\n      tag_193\n        /* \"#utility.yul\":7977:7982   */\n      dup3\n        /* \"#utility.yul\":7945:7983   */\n      tag_114\n      jump\t// in\n    tag_193:\n        /* \"#utility.yul\":7999:8087   */\n      tag_194\n        /* \"#utility.yul\":8080:8086   */\n      dup2\n        /* \"#utility.yul\":8075:8078   */\n      dup6\n        /* \"#utility.yul\":7999:8087   */\n      tag_107\n      jump\t// in\n    tag_194:\n        /* \"#utility.yul\":7992:8087   */\n      swap4\n      pop\n        /* \"#utility.yul\":8096:8161   */\n      tag_195\n        /* \"#utility.yul\":8154:8160   */\n      dup2\n        /* \"#utility.yul\":8149:8152   */\n      dup6\n        /* \"#utility.yul\":8142:8146   */\n      0x20\n        /* \"#utility.yul\":8135:8140   */\n      dup7\n        /* \"#utility.yul\":8131:8147   */\n      add\n        /* \"#utility.yul\":8096:8161   */\n      tag_115\n      jump\t// in\n    tag_195:\n        /* \"#utility.yul\":8186:8192   */\n      dup1\n        /* \"#utility.yul\":8181:8184   */\n      dup5\n        /* \"#utility.yul\":8177:8193   */\n      add\n        /* \"#utility.yul\":8170:8193   */\n      swap2\n      pop\n        /* \"#utility.yul\":7921:8199   */\n      pop\n        /* \"#utility.yul\":7813:8199   */\n      swap3\n      swap2\n      pop\n      pop\n      jump\t// out\n        /* \"#utility.yul\":8205:8476   */\n    tag_71:\n        /* \"#utility.yul\":8335:8338   */\n      0x00\n        /* \"#utility.yul\":8357:8450   */\n      tag_197\n        /* \"#utility.yul\":8446:8449   */\n      dup3\n        /* \"#utility.yul\":8437:8443   */\n      dup5\n        /* \"#utility.yul\":8357:8450   */\n      tag_116\n      jump\t// in\n    tag_197:\n        /* \"#utility.yul\":8350:8450   */\n      swap2\n      pop\n        /* \"#utility.yul\":8467:8470   */\n      dup2\n        /* \"#utility.yul\":8460:8470   */\n      swap1\n      pop\n        /* \"#utility.yul\":8205:8476   */\n      swap3\n      swap2\n      pop\n      pop\n      jump\t// out\n        /* \"#utility.yul\":8482:8651   */\n    tag_117:\n        /* \"#utility.yul\":8622:8643   */\n      0x44656c656761746563616c6c206661696c656400000000000000000000000000\n        /* \"#utility.yul\":8618:8619   */\n      0x00\n        /* \"#utility.yul\":8610:8616   */\n      dup3\n        /* \"#utility.yul\":8606:8620   */\n      add\n        /* \"#utility.yul\":8599:8644   */\n      mstore\n        /* \"#utility.yul\":8482:8651   */\n      pop\n      jump\t// out\n        /* \"#utility.yul\":8657:9023   */\n    tag_118:\n        /* \"#utility.yul\":8799:8802   */\n      0x00\n        /* \"#utility.yul\":8820:8887   */\n      tag_200\n        /* \"#utility.yul\":8884:8886   */\n      0x13\n        /* \"#utility.yul\":8879:8882   */\n      dup4\n        /* \"#utility.yul\":8820:8887   */\n      tag_104\n      jump\t// in\n    tag_200:\n        /* \"#utility.yul\":8813:8887   */\n      swap2\n      pop\n        /* \"#utility.yul\":8896:8989   */\n      tag_201\n        /* \"#utility.yul\":8985:8988   */\n      dup3\n        /* \"#utility.yul\":8896:8989   */\n      tag_117\n      jump\t// in\n    tag_201:\n        /* \"#utility.yul\":9014:9016   */\n      0x20\n        /* \"#utility.yul\":9009:9012   */\n      dup3\n        /* \"#utility.yul\":9005:9017   */\n      add\n        /* \"#utility.yul\":8998:9017   */\n      swap1\n      pop\n        /* \"#utility.yul\":8657:9023   */\n      swap2\n      swap1\n      pop\n      jump\t// out\n        /* \"#utility.yul\":9029:9448   */\n    tag_77:\n        /* \"#utility.yul\":9195:9199   */\n      0x00\n        /* \"#utility.yul\":9233:9235   */\n      0x20\n        /* \"#utility.yul\":9222:9231   */\n      dup3\n        /* \"#utility.yul\":9218:9236   */\n      add\n        /* \"#utility.yul\":9210:9236   */\n      swap1\n      pop\n        /* \"#utility.yul\":9282:9291   */\n      dup2\n        /* \"#utility.yul\":9276:9280   */\n      dup2\n        /* \"#utility.yul\":9272:9292   */\n      sub\n        /* \"#utility.yul\":9268:9269   */\n      0x00\n        /* \"#utility.yul\":9257:9266   */\n      dup4\n        /* \"#utility.yul\":9253:9270   */\n      add\n        /* \"#utility.yul\":9246:9293   */\n      mstore\n        /* \"#utility.yul\":9310:9441   */\n      tag_203\n        /* \"#utility.yul\":9436:9440   */\n      dup2\n        /* \"#utility.yul\":9310:9441   */\n      tag_118\n      jump\t// in\n    tag_203:\n        /* \"#utility.yul\":9302:9441   */\n      swap1\n      pop\n        /* \"#utility.yul\":9029:9448   */\n      swap2\n      swap1\n      pop\n      jump\t// out\n        /* \"#utility.yul\":9454:9612   */\n    tag_119:\n        /* \"#utility.yul\":9594:9604   */\n      0x53656e6420455448000000000000000000000000000000000000000000000000\n        /* \"#utility.yul\":9590:9591   */\n      0x00\n        /* \"#utility.yul\":9582:9588   */\n      dup3\n        /* \"#utility.yul\":9578:9592   */\n      add\n        /* \"#utility.yul\":9571:9605   */\n      mstore\n        /* \"#utility.yul\":9454:9612   */\n      pop\n      jump\t// out\n        /* \"#utility.yul\":9618:9983   */\n    tag_120:\n        /* \"#utility.yul\":9760:9763   */\n      0x00\n        /* \"#utility.yul\":9781:9847   */\n      tag_206\n        /* \"#utility.yul\":9845:9846   */\n      0x08\n        /* \"#utility.yul\":9840:9843   */\n      dup4\n        /* \"#utility.yul\":9781:9847   */\n      tag_104\n      jump\t// in\n    tag_206:\n        /* \"#utility.yul\":9774:9847   */\n      swap2\n      pop\n        /* \"#utility.yul\":9856:9949   */\n      tag_207\n        /* \"#utility.yul\":9945:9948   */\n      dup3\n        /* \"#utility.yul\":9856:9949   */\n      tag_119\n      jump\t// in\n    tag_207:\n        /* \"#utility.yul\":9974:9976   */\n      0x20\n        /* \"#utility.yul\":9969:9972   */\n      dup3\n        /* \"#utility.yul\":9965:9977   */\n      add\n        /* \"#utility.yul\":9958:9977   */\n      swap1\n      pop\n        /* \"#utility.yul\":9618:9983   */\n      swap2\n      swap1\n      pop\n      jump\t// out\n        /* \"#utility.yul\":9989:10408   */\n    tag_82:\n        /* \"#utility.yul\":10155:10159   */\n      0x00\n        /* \"#utility.yul\":10193:10195   */\n      0x20\n        /* \"#utility.yul\":10182:10191   */\n      dup3\n        /* \"#utility.yul\":10178:10196   */\n      add\n        /* \"#utility.yul\":10170:10196   */\n      swap1\n      pop\n        /* \"#utility.yul\":10242:10251   */\n      dup2\n        /* \"#utility.yul\":10236:10240   */\n      dup2\n        /* \"#utility.yul\":10232:10252   */\n      sub\n        /* \"#utility.yul\":10228:10229   */\n      0x00\n        /* \"#utility.yul\":10217:10226   */\n      dup4\n        /* \"#utility.yul\":10213:10230   */\n      add\n        /* \"#utility.yul\":10206:10253   */\n      mstore\n        /* \"#utility.yul\":10270:10401   */\n      tag_209\n        /* \"#utility.yul\":10396:10400   */\n      dup2\n        /* \"#utility.yul\":10270:10401   */\n      tag_120\n      jump\t// in\n    tag_209:\n        /* \"#utility.yul\":10262:10401   */\n      swap1\n      pop\n        /* \"#utility.yul\":9989:10408   */\n      swap2\n      swap1\n      pop\n      jump\t// out\n        /* \"#utility.yul\":10414:10556   */\n    tag_121:\n        /* \"#utility.yul\":10517:10549   */\n      tag_211\n        /* \"#utility.yul\":10543:10548   */\n      dup2\n        /* \"#utility.yul\":10517:10549   */\n      tag_99\n      jump\t// in\n    tag_211:\n        /* \"#utility.yul\":10512:10515   */\n      dup3\n        /* \"#utility.yul\":10505:10550   */\n      mstore\n        /* \"#utility.yul\":10414:10556   */\n      pop\n      pop\n      jump\t// out\n        /* \"#utility.yul\":10562:10816   */\n    tag_86:\n        /* \"#utility.yul\":10671:10675   */\n      0x00\n        /* \"#utility.yul\":10709:10711   */\n      0x20\n        /* \"#utility.yul\":10698:10707   */\n      dup3\n        /* \"#utility.yul\":10694:10712   */\n      add\n        /* \"#utility.yul\":10686:10712   */\n      swap1\n      pop\n        /* \"#utility.yul\":10722:10809   */\n      tag_213\n        /* \"#utility.yul\":10806:10807   */\n      0x00\n        /* \"#utility.yul\":10795:10804   */\n      dup4\n        /* \"#utility.yul\":10791:10808   */\n      add\n        /* \"#utility.yul\":10782:10788   */\n      dup5\n        /* \"#utility.yul\":10722:10809   */\n      tag_121\n      jump\t// in\n    tag_213:\n        /* \"#utility.yul\":10562:10816   */\n      swap3\n      swap2\n      pop\n      pop\n      jump\t// out\n    stop\n\n    sub_0: assembly {\n            /* \"E/Master Contract to Handle All Types.sol\":2554:2627  contract DeployedContract {... */\n          mstore(0x40, 0x80)\n            /* \"E/Master Contract to Handle All Types.sol\":2586:2624  string public greeting = \"I am alive!\" */\n          mload(0x40)\n          dup1\n          0x40\n          add\n          0x40\n          mstore\n          dup1\n          0x0b\n          dup2\n          mstore\n          0x20\n          add\n          0x4920616d20616c69766521000000000000000000000000000000000000000000\n          dup2\n          mstore\n          pop\n          0x00\n          swap1\n          dup2\n          tag_1\n          swap2\n          swap1\n          tag_2\n          jump\t// in\n        tag_1:\n          pop\n            /* \"E/Master Contract to Handle All Types.sol\":2554:2627  contract DeployedContract {... */\n          callvalue\n          dup1\n          iszero\n          tag_3\n          jumpi\n          revert(0x00, 0x00)\n        tag_3:\n          pop\n          jump(tag_4)\n            /* \"#utility.yul\":7:106   */\n        tag_5:\n            /* \"#utility.yul\":59:65   */\n          0x00\n            /* \"#utility.yul\":93:98   */\n          dup2\n            /* \"#utility.yul\":87:99   */\n          mload\n            /* \"#utility.yul\":77:99   */\n          swap1\n          pop\n            /* \"#utility.yul\":7:106   */\n          swap2\n          swap1\n          pop\n          jump\t// out\n            /* \"#utility.yul\":112:292   */\n        tag_6:\n            /* \"#utility.yul\":160:237   */\n          0x4e487b7100000000000000000000000000000000000000000000000000000000\n            /* \"#utility.yul\":157:158   */\n          0x00\n            /* \"#utility.yul\":150:238   */\n          mstore\n            /* \"#utility.yul\":257:261   */\n          0x41\n            /* \"#utility.yul\":254:255   */\n          0x04\n            /* \"#utility.yul\":247:262   */\n          mstore\n            /* \"#utility.yul\":281:285   */\n          0x24\n            /* \"#utility.yul\":278:279   */\n          0x00\n            /* \"#utility.yul\":271:286   */\n          revert\n            /* \"#utility.yul\":298:478   */\n        tag_7:\n            /* \"#utility.yul\":346:423   */\n          0x4e487b7100000000000000000000000000000000000000000000000000000000\n            /* \"#utility.yul\":343:344   */\n          0x00\n            /* \"#utility.yul\":336:424   */\n          mstore\n            /* \"#utility.yul\":443:447   */\n          0x22\n            /* \"#utility.yul\":440:441   */\n          0x04\n            /* \"#utility.yul\":433:448   */\n          mstore\n            /* \"#utility.yul\":467:471   */\n          0x24\n            /* \"#utility.yul\":464:465   */\n          0x00\n            /* \"#utility.yul\":457:472   */\n          revert\n            /* \"#utility.yul\":484:804   */\n        tag_8:\n            /* \"#utility.yul\":528:534   */\n          0x00\n            /* \"#utility.yul\":565:566   */\n          0x02\n            /* \"#utility.yul\":559:563   */\n          dup3\n            /* \"#utility.yul\":555:567   */\n          div\n            /* \"#utility.yul\":545:567   */\n          swap1\n          pop\n            /* \"#utility.yul\":612:613   */\n          0x01\n            /* \"#utility.yul\":606:610   */\n          dup3\n            /* \"#utility.yul\":602:614   */\n          and\n            /* \"#utility.yul\":633:651   */\n          dup1\n            /* \"#utility.yul\":623:704   */\n          tag_30\n          jumpi\n            /* \"#utility.yul\":689:693   */\n          0x7f\n            /* \"#utility.yul\":681:687   */\n          dup3\n            /* \"#utility.yul\":677:694   */\n          and\n            /* \"#utility.yul\":667:694   */\n          swap2\n          pop\n            /* \"#utility.yul\":623:704   */\n        tag_30:\n            /* \"#utility.yul\":751:753   */\n          0x20\n            /* \"#utility.yul\":743:749   */\n          dup3\n            /* \"#utility.yul\":740:754   */\n          lt\n            /* \"#utility.yul\":720:738   */\n          dup2\n            /* \"#utility.yul\":717:755   */\n          sub\n            /* \"#utility.yul\":714:798   */\n          tag_31\n          jumpi\n            /* \"#utility.yul\":770:788   */\n          tag_32\n          tag_7\n          jump\t// in\n        tag_32:\n            /* \"#utility.yul\":714:798   */\n        tag_31:\n            /* \"#utility.yul\":535:804   */\n          pop\n            /* \"#utility.yul\":484:804   */\n          swap2\n          swap1\n          pop\n          jump\t// out\n            /* \"#utility.yul\":810:951   */\n        tag_9:\n            /* \"#utility.yul\":859:863   */\n          0x00\n            /* \"#utility.yul\":882:885   */\n          dup2\n            /* \"#utility.yul\":874:885   */\n          swap1\n          pop\n            /* \"#utility.yul\":905:908   */\n          dup2\n            /* \"#utility.yul\":902:903   */\n          0x00\n            /* \"#utility.yul\":895:909   */\n          mstore\n            /* \"#utility.yul\":939:943   */\n          0x20\n            /* \"#utility.yul\":936:937   */\n          0x00\n            /* \"#utility.yul\":926:944   */\n          keccak256\n            /* \"#utility.yul\":918:944   */\n          swap1\n          pop\n            /* \"#utility.yul\":810:951   */\n          swap2\n          swap1\n          pop\n          jump\t// out\n            /* \"#utility.yul\":957:1050   */\n        tag_10:\n            /* \"#utility.yul\":994:1000   */\n          0x00\n            /* \"#utility.yul\":1041:1043   */\n          0x20\n            /* \"#utility.yul\":1036:1038   */\n          0x1f\n            /* \"#utility.yul\":1029:1034   */\n          dup4\n            /* \"#utility.yul\":1025:1039   */\n          add\n            /* \"#utility.yul\":1021:1044   */\n          div\n            /* \"#utility.yul\":1011:1044   */\n          swap1\n          pop\n            /* \"#utility.yul\":957:1050   */\n          swap2\n          swap1\n          pop\n          jump\t// out\n            /* \"#utility.yul\":1056:1163   */\n        tag_11:\n            /* \"#utility.yul\":1100:1108   */\n          0x00\n            /* \"#utility.yul\":1150:1155   */\n          dup3\n            /* \"#utility.yul\":1144:1148   */\n          dup3\n            /* \"#utility.yul\":1140:1156   */\n          shl\n            /* \"#utility.yul\":1119:1156   */\n          swap1\n          pop\n            /* \"#utility.yul\":1056:1163   */\n          swap3\n          swap2\n          pop\n          pop\n          jump\t// out\n            /* \"#utility.yul\":1169:1562   */\n        tag_12:\n            /* \"#utility.yul\":1238:1244   */\n          0x00\n            /* \"#utility.yul\":1288:1289   */\n          0x08\n            /* \"#utility.yul\":1276:1286   */\n          dup4\n            /* \"#utility.yul\":1272:1290   */\n          mul\n            /* \"#utility.yul\":1311:1408   */\n          tag_37\n            /* \"#utility.yul\":1341:1407   */\n          0xffffffffffffffffffffffffffffffffffffffffffffffffffffffffffffffff\n            /* \"#utility.yul\":1330:1339   */\n          dup3\n            /* \"#utility.yul\":1311:1408   */\n          tag_11\n          jump\t// in\n        tag_37:\n            /* \"#utility.yul\":1429:1468   */\n          tag_38\n            /* \"#utility.yul\":1459:1467   */\n          dup7\n            /* \"#utility.yul\":1448:1457   */\n          dup4\n            /* \"#utility.yul\":1429:1468   */\n          tag_11\n          jump\t// in\n        tag_38:\n            /* \"#utility.yul\":1417:1468   */\n          swap6\n          pop\n            /* \"#utility.yul\":1501:1505   */\n          dup1\n            /* \"#utility.yul\":1497:1506   */\n          not\n            /* \"#utility.yul\":1490:1495   */\n          dup5\n            /* \"#utility.yul\":1486:1507   */\n          and\n            /* \"#utility.yul\":1477:1507   */\n          swap4\n          pop\n            /* \"#utility.yul\":1550:1554   */\n          dup1\n            /* \"#utility.yul\":1540:1548   */\n          dup7\n            /* \"#utility.yul\":1536:1555   */\n          and\n            /* \"#utility.yul\":1529:1534   */\n          dup5\n            /* \"#utility.yul\":1526:1556   */\n          or\n            /* \"#utility.yul\":1516:1556   */\n          swap3\n          pop\n            /* \"#utility.yul\":1245:1562   */\n          pop\n          pop\n            /* \"#utility.yul\":1169:1562   */\n          swap4\n          swap3\n          pop\n          pop\n          pop\n          jump\t// out\n            /* \"#utility.yul\":1568:1645   */\n        tag_13:\n            /* \"#utility.yul\":1605:1612   */\n          0x00\n            /* \"#utility.yul\":1634:1639   */\n          dup2\n            /* \"#utility.yul\":1623:1639   */\n          swap1\n          pop\n            /* \"#utility.yul\":1568:1645   */\n          swap2\n          swap1\n          pop\n          jump\t// out\n            /* \"#utility.yul\":1651:1711   */\n        tag_14:\n            /* \"#utility.yul\":1679:1682   */\n          0x00\n            /* \"#utility.yul\":1700:1705   */\n          dup2\n            /* \"#utility.yul\":1693:1705   */\n          swap1\n          pop\n            /* \"#utility.yul\":1651:1711   */\n          swap2\n          swap1\n          pop\n          jump\t// out\n            /* \"#utility.yul\":1717:1859   */\n        tag_15:\n            /* \"#utility.yul\":1767:1776   */\n          0x00\n            /* \"#utility.yul\":1800:1853   */\n          tag_42\n            /* \"#utility.yul\":1818:1852   */\n          tag_43\n            /* \"#utility.yul\":1827:1851   */\n          tag_44\n            /* \"#utility.yul\":1845:1850   */\n          dup5\n            /* \"#utility.yul\":1827:1851   */\n          tag_13\n          jump\t// in\n        tag_44:\n            /* \"#utility.yul\":1818:1852   */\n          tag_14\n          jump\t// in\n        tag_43:\n            /* \"#utility.yul\":1800:1853   */\n          tag_13\n          jump\t// in\n        tag_42:\n            /* \"#utility.yul\":1787:1853   */\n          swap1\n          pop\n            /* \"#utility.yul\":1717:1859   */\n          swap2\n          swap1\n          pop\n          jump\t// out\n            /* \"#utility.yul\":1865:1940   */\n        tag_16:\n            /* \"#utility.yul\":1908:1911   */\n          0x00\n            /* \"#utility.yul\":1929:1934   */\n          dup2\n            /* \"#utility.yul\":1922:1934   */\n          swap1\n          pop\n            /* \"#utility.yul\":1865:1940   */\n          swap2\n          swap1\n          pop\n          jump\t// out\n            /* \"#utility.yul\":1946:2215   */\n        tag_17:\n            /* \"#utility.yul\":2056:2095   */\n          tag_47\n            /* \"#utility.yul\":2087:2094   */\n          dup4\n            /* \"#utility.yul\":2056:2095   */\n          tag_15\n          jump\t// in\n        tag_47:\n            /* \"#utility.yul\":2117:2208   */\n          tag_48\n            /* \"#utility.yul\":2166:2207   */\n          tag_49\n            /* \"#utility.yul\":2190:2206   */\n          dup3\n            /* \"#utility.yul\":2166:2207   */\n          tag_16\n          jump\t// in\n        tag_49:\n            /* \"#utility.yul\":2158:2164   */\n          dup5\n            /* \"#utility.yul\":2151:2155   */\n          dup5\n            /* \"#utility.yul\":2145:2156   */\n          sload\n            /* \"#utility.yul\":2117:2208   */\n          tag_12\n          jump\t// in\n        tag_48:\n            /* \"#utility.yul\":2111:2115   */\n          dup3\n            /* \"#utility.yul\":2104:2209   */\n          sstore\n            /* \"#utility.yul\":2022:2215   */\n          pop\n            /* \"#utility.yul\":1946:2215   */\n          pop\n          pop\n          pop\n          jump\t// out\n            /* \"#utility.yul\":2221:2294   */\n        tag_18:\n            /* \"#utility.yul\":2266:2269   */\n          0x00\n            /* \"#utility.yul\":2287:2288   */\n          0x00\n            /* \"#utility.yul\":2280:2288   */\n          swap1\n          pop\n            /* \"#utility.yul\":2221:2294   */\n          swap1\n          jump\t// out\n            /* \"#utility.yul\":2300:2489   */\n        tag_19:\n            /* \"#utility.yul\":2377:2409   */\n          tag_52\n          tag_18\n          jump\t// in\n        tag_52:\n            /* \"#utility.yul\":2418:2483   */\n          tag_53\n            /* \"#utility.yul\":2476:2482   */\n          dup2\n            /* \"#utility.yul\":2468:2474   */\n          dup5\n            /* \"#utility.yul\":2462:2466   */\n          dup5\n            /* \"#utility.yul\":2418:2483   */\n          tag_17\n          jump\t// in\n        tag_53:\n            /* \"#utility.yul\":2353:2489   */\n          pop\n            /* \"#utility.yul\":2300:2489   */\n          pop\n          pop\n          jump\t// out\n            /* \"#utility.yul\":2495:2681   */\n        tag_20:\n            /* \"#utility.yul\":2555:2675   */\n        tag_55:\n            /* \"#utility.yul\":2572:2575   */\n          dup2\n            /* \"#utility.yul\":2565:2570   */\n          dup2\n            /* \"#utility.yul\":2562:2576   */\n          lt\n            /* \"#utility.yul\":2555:2675   */\n          iszero\n          tag_57\n          jumpi\n            /* \"#utility.yul\":2626:2665   */\n          tag_58\n            /* \"#utility.yul\":2663:2664   */\n          0x00\n            /* \"#utility.yul\":2656:2661   */\n          dup3\n            /* \"#utility.yul\":2626:2665   */\n          tag_19\n          jump\t// in\n        tag_58:\n            /* \"#utility.yul\":2599:2600   */\n          0x01\n            /* \"#utility.yul\":2592:2597   */\n          dup2\n            /* \"#utility.yul\":2588:2601   */\n          add\n            /* \"#utility.yul\":2579:2601   */\n          swap1\n          pop\n            /* \"#utility.yul\":2555:2675   */\n          jump(tag_55)\n        tag_57:\n            /* \"#utility.yul\":2495:2681   */\n          pop\n          pop\n          jump\t// out\n            /* \"#utility.yul\":2687:3230   */\n        tag_21:\n            /* \"#utility.yul\":2788:2790   */\n          0x1f\n            /* \"#utility.yul\":2783:2786   */\n          dup3\n            /* \"#utility.yul\":2780:2791   */\n          gt\n            /* \"#utility.yul\":2777:3223   */\n          iszero\n          tag_60\n          jumpi\n            /* \"#utility.yul\":2822:2860   */\n          tag_61\n            /* \"#utility.yul\":2854:2859   */\n          dup2\n            /* \"#utility.yul\":2822:2860   */\n          tag_9\n          jump\t// in\n        tag_61:\n            /* \"#utility.yul\":2906:2935   */\n          tag_62\n            /* \"#utility.yul\":2924:2934   */\n          dup5\n            /* \"#utility.yul\":2906:2935   */\n          tag_10\n          jump\t// in\n        tag_62:\n            /* \"#utility.yul\":2896:2904   */\n          dup2\n            /* \"#utility.yul\":2892:2936   */\n          add\n            /* \"#utility.yul\":3089:3091   */\n          0x20\n            /* \"#utility.yul\":3077:3087   */\n          dup6\n            /* \"#utility.yul\":3074:3092   */\n          lt\n            /* \"#utility.yul\":3071:3120   */\n          iszero\n          tag_63\n          jumpi\n            /* \"#utility.yul\":3110:3118   */\n          dup2\n            /* \"#utility.yul\":3095:3118   */\n          swap1\n          pop\n            /* \"#utility.yul\":3071:3120   */\n        tag_63:\n            /* \"#utility.yul\":3133:3213   */\n          tag_64\n            /* \"#utility.yul\":3189:3211   */\n          tag_65\n            /* \"#utility.yul\":3207:3210   */\n          dup6\n            /* \"#utility.yul\":3189:3211   */\n          tag_10\n          jump\t// in\n        tag_65:\n            /* \"#utility.yul\":3179:3187   */\n          dup4\n            /* \"#utility.yul\":3175:3212   */\n          add\n            /* \"#utility.yul\":3162:3173   */\n          dup3\n            /* \"#utility.yul\":3133:3213   */\n          tag_20\n          jump\t// in\n        tag_64:\n            /* \"#utility.yul\":2792:3223   */\n          pop\n          pop\n            /* \"#utility.yul\":2777:3223   */\n        tag_60:\n            /* \"#utility.yul\":2687:3230   */\n          pop\n          pop\n          pop\n          jump\t// out\n            /* \"#utility.yul\":3236:3353   */\n        tag_22:\n            /* \"#utility.yul\":3290:3298   */\n          0x00\n            /* \"#utility.yul\":3340:3345   */\n          dup3\n            /* \"#utility.yul\":3334:3338   */\n          dup3\n            /* \"#utility.yul\":3330:3346   */\n          shr\n            /* \"#utility.yul\":3309:3346   */\n          swap1\n          pop\n            /* \"#utility.yul\":3236:3353   */\n          swap3\n          swap2\n          pop\n          pop\n          jump\t// out\n            /* \"#utility.yul\":3359:3528   */\n        tag_23:\n            /* \"#utility.yul\":3403:3409   */\n          0x00\n            /* \"#utility.yul\":3436:3487   */\n          tag_68\n            /* \"#utility.yul\":3484:3485   */\n          0x00\n            /* \"#utility.yul\":3480:3486   */\n          not\n            /* \"#utility.yul\":3472:3477   */\n          dup5\n            /* \"#utility.yul\":3469:3470   */\n          0x08\n            /* \"#utility.yul\":3465:3478   */\n          mul\n            /* \"#utility.yul\":3436:3487   */\n          tag_22\n          jump\t// in\n        tag_68:\n            /* \"#utility.yul\":3432:3488   */\n          not\n            /* \"#utility.yul\":3517:3521   */\n          dup1\n            /* \"#utility.yul\":3511:3515   */\n          dup4\n            /* \"#utility.yul\":3507:3522   */\n          and\n            /* \"#utility.yul\":3497:3522   */\n          swap2\n          pop\n            /* \"#utility.yul\":3410:3528   */\n          pop\n            /* \"#utility.yul\":3359:3528   */\n          swap3\n          swap2\n          pop\n          pop\n          jump\t// out\n            /* \"#utility.yul\":3533:3828   */\n        tag_24:\n            /* \"#utility.yul\":3609:3613   */\n          0x00\n            /* \"#utility.yul\":3755:3784   */\n          tag_70\n            /* \"#utility.yul\":3780:3783   */\n          dup4\n            /* \"#utility.yul\":3774:3778   */\n          dup4\n            /* \"#utility.yul\":3755:3784   */\n          tag_23\n          jump\t// in\n        tag_70:\n            /* \"#utility.yul\":3747:3784   */\n          swap2\n          pop\n            /* \"#utility.yul\":3817:3820   */\n          dup3\n            /* \"#utility.yul\":3814:3815   */\n          0x02\n            /* \"#utility.yul\":3810:3821   */\n          mul\n            /* \"#utility.yul\":3804:3808   */\n          dup3\n            /* \"#utility.yul\":3801:3822   */\n          or\n            /* \"#utility.yul\":3793:3822   */\n          swap1\n          pop\n            /* \"#utility.yul\":3533:3828   */\n          swap3\n          swap2\n          pop\n          pop\n          jump\t// out\n            /* \"#utility.yul\":3833:5228   */\n        tag_2:\n            /* \"#utility.yul\":3950:3987   */\n          tag_72\n            /* \"#utility.yul\":3983:3986   */\n          dup3\n            /* \"#utility.yul\":3950:3987   */\n          tag_5\n          jump\t// in\n        tag_72:\n            /* \"#utility.yul\":4052:4070   */\n          0xffffffffffffffff\n            /* \"#utility.yul\":4044:4050   */\n          dup2\n            /* \"#utility.yul\":4041:4071   */\n          gt\n            /* \"#utility.yul\":4038:4094   */\n          iszero\n          tag_73\n          jumpi\n            /* \"#utility.yul\":4074:4092   */\n          tag_74\n          tag_6\n          jump\t// in\n        tag_74:\n            /* \"#utility.yul\":4038:4094   */\n        tag_73:\n            /* \"#utility.yul\":4118:4156   */\n          tag_75\n            /* \"#utility.yul\":4150:4154   */\n          dup3\n            /* \"#utility.yul\":4144:4155   */\n          sload\n            /* \"#utility.yul\":4118:4156   */\n          tag_8\n          jump\t// in\n        tag_75:\n            /* \"#utility.yul\":4203:4270   */\n          tag_76\n            /* \"#utility.yul\":4263:4269   */\n          dup3\n            /* \"#utility.yul\":4255:4261   */\n          dup3\n            /* \"#utility.yul\":4249:4253   */\n          dup6\n            /* \"#utility.yul\":4203:4270   */\n          tag_21\n          jump\t// in\n        tag_76:\n            /* \"#utility.yul\":4297:4298   */\n          0x00\n            /* \"#utility.yul\":4321:4325   */\n          0x20\n            /* \"#utility.yul\":4308:4325   */\n          swap1\n          pop\n            /* \"#utility.yul\":4353:4355   */\n          0x1f\n            /* \"#utility.yul\":4345:4351   */\n          dup4\n            /* \"#utility.yul\":4342:4356   */\n          gt\n            /* \"#utility.yul\":4370:4371   */\n          0x01\n            /* \"#utility.yul\":4365:4983   */\n          dup2\n          eq\n          tag_78\n          jumpi\n            /* \"#utility.yul\":5027:5028   */\n          0x00\n            /* \"#utility.yul\":5044:5050   */\n          dup5\n            /* \"#utility.yul\":5041:5118   */\n          iszero\n          tag_79\n          jumpi\n            /* \"#utility.yul\":5093:5102   */\n          dup3\n            /* \"#utility.yul\":5088:5091   */\n          dup8\n            /* \"#utility.yul\":5084:5103   */\n          add\n            /* \"#utility.yul\":5078:5104   */\n          mload\n            /* \"#utility.yul\":5069:5104   */\n          swap1\n          pop\n            /* \"#utility.yul\":5041:5118   */\n        tag_79:\n            /* \"#utility.yul\":5144:5211   */\n          tag_80\n            /* \"#utility.yul\":5204:5210   */\n          dup6\n            /* \"#utility.yul\":5197:5202   */\n          dup3\n            /* \"#utility.yul\":5144:5211   */\n          tag_24\n          jump\t// in\n        tag_80:\n            /* \"#utility.yul\":5138:5142   */\n          dup7\n            /* \"#utility.yul\":5131:5212   */\n          sstore\n            /* \"#utility.yul\":5000:5222   */\n          pop\n            /* \"#utility.yul\":4335:5222   */\n          jump(tag_77)\n            /* \"#utility.yul\":4365:4983   */\n        tag_78:\n            /* \"#utility.yul\":4417:4421   */\n          0x1f\n            /* \"#utility.yul\":4413:4422   */\n          not\n            /* \"#utility.yul\":4405:4411   */\n          dup5\n            /* \"#utility.yul\":4401:4423   */\n          and\n            /* \"#utility.yul\":4451:4488   */\n          tag_81\n            /* \"#utility.yul\":4483:4487   */\n          dup7\n            /* \"#utility.yul\":4451:4488   */\n          tag_9\n          jump\t// in\n        tag_81:\n            /* \"#utility.yul\":4510:4511   */\n          0x00\n            /* \"#utility.yul\":4524:4732   */\n        tag_82:\n            /* \"#utility.yul\":4538:4545   */\n          dup3\n            /* \"#utility.yul\":4535:4536   */\n          dup2\n            /* \"#utility.yul\":4532:4546   */\n          lt\n            /* \"#utility.yul\":4524:4732   */\n          iszero\n          tag_84\n          jumpi\n            /* \"#utility.yul\":4617:4626   */\n          dup5\n            /* \"#utility.yul\":4612:4615   */\n          dup10\n            /* \"#utility.yul\":4608:4627   */\n          add\n            /* \"#utility.yul\":4602:4628   */\n          mload\n            /* \"#utility.yul\":4594:4600   */\n          dup3\n            /* \"#utility.yul\":4587:4629   */\n          sstore\n            /* \"#utility.yul\":4668:4669   */\n          0x01\n            /* \"#utility.yul\":4660:4666   */\n          dup3\n            /* \"#utility.yul\":4656:4670   */\n          add\n            /* \"#utility.yul\":4646:4670   */\n          swap2\n          pop\n            /* \"#utility.yul\":4715:4717   */\n          0x20\n            /* \"#utility.yul\":4704:4713   */\n          dup6\n            /* \"#utility.yul\":4700:4718   */\n          add\n            /* \"#utility.yul\":4687:4718   */\n          swap5\n          pop\n            /* \"#utility.yul\":4561:4565   */\n          0x20\n            /* \"#utility.yul\":4558:4559   */\n          dup2\n            /* \"#utility.yul\":4554:4566   */\n          add\n            /* \"#utility.yul\":4549:4566   */\n          swap1\n          pop\n            /* \"#utility.yul\":4524:4732   */\n          jump(tag_82)\n        tag_84:\n            /* \"#utility.yul\":4760:4766   */\n          dup7\n            /* \"#utility.yul\":4751:4758   */\n          dup4\n            /* \"#utility.yul\":4748:4767   */\n          lt\n            /* \"#utility.yul\":4745:4924   */\n          iszero\n          tag_85\n          jumpi\n            /* \"#utility.yul\":4818:4827   */\n          dup5\n            /* \"#utility.yul\":4813:4816   */\n          dup10\n            /* \"#utility.yul\":4809:4828   */\n          add\n            /* \"#utility.yul\":4803:4829   */\n          mload\n            /* \"#utility.yul\":4861:4909   */\n          tag_86\n            /* \"#utility.yul\":4903:4907   */\n          0x1f\n            /* \"#utility.yul\":4895:4901   */\n          dup10\n            /* \"#utility.yul\":4891:4908   */\n          and\n            /* \"#utility.yul\":4880:4889   */\n          dup3\n            /* \"#utility.yul\":4861:4909   */\n          tag_23\n          jump\t// in\n        tag_86:\n            /* \"#utility.yul\":4853:4859   */\n          dup4\n            /* \"#utility.yul\":4846:4910   */\n          sstore\n            /* \"#utility.yul\":4768:4924   */\n          pop\n            /* \"#utility.yul\":4745:4924   */\n        tag_85:\n            /* \"#utility.yul\":4970:4971   */\n          0x01\n            /* \"#utility.yul\":4966:4967   */\n          0x02\n            /* \"#utility.yul\":4958:4964   */\n          dup9\n            /* \"#utility.yul\":4954:4968   */\n          mul\n            /* \"#utility.yul\":4950:4972   */\n          add\n            /* \"#utility.yul\":4944:4948   */\n          dup9\n            /* \"#utility.yul\":4937:4973   */\n          sstore\n            /* \"#utility.yul\":4372:4983   */\n          pop\n          pop\n          pop\n            /* \"#utility.yul\":4335:5222   */\n        tag_77:\n          pop\n            /* \"#utility.yul\":3925:5228   */\n          pop\n          pop\n          pop\n            /* \"#utility.yul\":3833:5228   */\n          pop\n          pop\n          jump\t// out\n            /* \"E/Master Contract to Handle All Types.sol\":2554:2627  contract DeployedContract {... */\n        tag_4:\n          dataSize(sub_0)\n          dup1\n          dataOffset(sub_0)\n          0x00\n          codecopy\n          0x00\n          return\n        stop\n\n        sub_0: assembly {\n                /* \"E/Master Contract to Handle All Types.sol\":2554:2627  contract DeployedContract {... */\n              mstore(0x40, 0x80)\n              callvalue\n              dup1\n              iszero\n              tag_1\n              jumpi\n              revert(0x00, 0x00)\n            tag_1:\n              pop\n              jumpi(tag_2, lt(calldatasize, 0x04))\n              shr(0xe0, calldataload(0x00))\n              dup1\n              0xef690cc0\n              eq\n              tag_3\n              jumpi\n            tag_2:\n              revert(0x00, 0x00)\n                /* \"E/Master Contract to Handle All Types.sol\":2586:2624  string public greeting = \"I am alive!\" */\n            tag_3:\n              tag_4\n              tag_5\n              jump\t// in\n            tag_4:\n              mload(0x40)\n              tag_6\n              swap2\n              swap1\n              tag_7\n              jump\t// in\n            tag_6:\n              mload(0x40)\n              dup1\n              swap2\n              sub\n              swap1\n              return\n            tag_5:\n              0x00\n              dup1\n              sload\n              tag_8\n              swap1\n              tag_9\n              jump\t// in\n            tag_8:\n              dup1\n              0x1f\n              add\n              0x20\n              dup1\n              swap2\n              div\n              mul\n              0x20\n              add\n              mload(0x40)\n              swap1\n              dup2\n              add\n              0x40\n              mstore\n              dup1\n              swap3\n              swap2\n              swap1\n              dup2\n              dup2\n              mstore\n              0x20\n              add\n              dup3\n              dup1\n              sload\n              tag_10\n              swap1\n              tag_9\n              jump\t// in\n            tag_10:\n              dup1\n              iszero\n              tag_11\n              jumpi\n              dup1\n              0x1f\n              lt\n              tag_12\n              jumpi\n              0x0100\n              dup1\n              dup4\n              sload\n              div\n              mul\n              dup4\n              mstore\n              swap2\n              0x20\n              add\n              swap2\n              jump(tag_11)\n            tag_12:\n              dup3\n              add\n              swap2\n              swap1\n              0x00\n              mstore\n              keccak256(0x00, 0x20)\n              swap1\n            tag_13:\n              dup2\n              sload\n              dup2\n              mstore\n              swap1\n              0x01\n              add\n              swap1\n              0x20\n              add\n              dup1\n              dup4\n              gt\n              tag_13\n              jumpi\n              dup3\n              swap1\n              sub\n              0x1f\n              and\n              dup3\n              add\n              swap2\n            tag_11:\n              pop\n              pop\n              pop\n              pop\n              pop\n              dup2\n              jump\t// out\n                /* \"#utility.yul\":7:106   */\n            tag_14:\n                /* \"#utility.yul\":59:65   */\n              0x00\n                /* \"#utility.yul\":93:98   */\n              dup2\n                /* \"#utility.yul\":87:99   */\n              mload\n                /* \"#utility.yul\":77:99   */\n              swap1\n              pop\n                /* \"#utility.yul\":7:106   */\n              swap2\n              swap1\n              pop\n              jump\t// out\n                /* \"#utility.yul\":112:281   */\n            tag_15:\n                /* \"#utility.yul\":196:207   */\n              0x00\n                /* \"#utility.yul\":230:236   */\n              dup3\n                /* \"#utility.yul\":225:228   */\n              dup3\n                /* \"#utility.yul\":218:237   */\n              mstore\n                /* \"#utility.yul\":270:274   */\n              0x20\n                /* \"#utility.yul\":265:268   */\n              dup3\n                /* \"#utility.yul\":261:275   */\n              add\n                /* \"#utility.yul\":246:275   */\n              swap1\n              pop\n                /* \"#utility.yul\":112:281   */\n              swap3\n              swap2\n              pop\n              pop\n              jump\t// out\n                /* \"#utility.yul\":287:426   */\n            tag_16:\n                /* \"#utility.yul\":376:382   */\n              dup3\n                /* \"#utility.yul\":371:374   */\n              dup2\n                /* \"#utility.yul\":366:369   */\n              dup4\n                /* \"#utility.yul\":360:383   */\n              mcopy\n                /* \"#utility.yul\":417:418   */\n              0x00\n                /* \"#utility.yul\":408:414   */\n              dup4\n                /* \"#utility.yul\":403:406   */\n              dup4\n                /* \"#utility.yul\":399:415   */\n              add\n                /* \"#utility.yul\":392:419   */\n              mstore\n                /* \"#utility.yul\":287:426   */\n              pop\n              pop\n              pop\n              jump\t// out\n                /* \"#utility.yul\":432:534   */\n            tag_17:\n                /* \"#utility.yul\":473:479   */\n              0x00\n                /* \"#utility.yul\":524:526   */\n              0x1f\n                /* \"#utility.yul\":520:527   */\n              not\n                /* \"#utility.yul\":515:517   */\n              0x1f\n                /* \"#utility.yul\":508:513   */\n              dup4\n                /* \"#utility.yul\":504:518   */\n              add\n                /* \"#utility.yul\":500:528   */\n              and\n                /* \"#utility.yul\":490:528   */\n              swap1\n              pop\n                /* \"#utility.yul\":432:534   */\n              swap2\n              swap1\n              pop\n              jump\t// out\n                /* \"#utility.yul\":540:917   */\n            tag_18:\n                /* \"#utility.yul\":628:631   */\n              0x00\n                /* \"#utility.yul\":656:695   */\n              tag_26\n                /* \"#utility.yul\":689:694   */\n              dup3\n                /* \"#utility.yul\":656:695   */\n              tag_14\n              jump\t// in\n            tag_26:\n                /* \"#utility.yul\":711:782   */\n              tag_27\n                /* \"#utility.yul\":775:781   */\n              dup2\n                /* \"#utility.yul\":770:773   */\n              dup6\n                /* \"#utility.yul\":711:782   */\n              tag_15\n              jump\t// in\n            tag_27:\n                /* \"#utility.yul\":704:782   */\n              swap4\n              pop\n                /* \"#utility.yul\":791:856   */\n              tag_28\n                /* \"#utility.yul\":849:855   */\n              dup2\n                /* \"#utility.yul\":844:847   */\n              dup6\n                /* \"#utility.yul\":837:841   */\n              0x20\n                /* \"#utility.yul\":830:835   */\n              dup7\n                /* \"#utility.yul\":826:842   */\n              add\n                /* \"#utility.yul\":791:856   */\n              tag_16\n              jump\t// in\n            tag_28:\n                /* \"#utility.yul\":881:910   */\n              tag_29\n                /* \"#utility.yul\":903:909   */\n              dup2\n                /* \"#utility.yul\":881:910   */\n              tag_17\n              jump\t// in\n            tag_29:\n                /* \"#utility.yul\":876:879   */\n              dup5\n                /* \"#utility.yul\":872:911   */\n              add\n                /* \"#utility.yul\":865:911   */\n              swap2\n              pop\n                /* \"#utility.yul\":632:917   */\n              pop\n                /* \"#utility.yul\":540:917   */\n              swap3\n              swap2\n              pop\n              pop\n              jump\t// out\n                /* \"#utility.yul\":923:1236   */\n            tag_7:\n                /* \"#utility.yul\":1036:1040   */\n              0x00\n                /* \"#utility.yul\":1074:1076   */\n              0x20\n                /* \"#utility.yul\":1063:1072   */\n              dup3\n                /* \"#utility.yul\":1059:1077   */\n              add\n                /* \"#utility.yul\":1051:1077   */\n              swap1\n              pop\n                /* \"#utility.yul\":1123:1132   */\n              dup2\n                /* \"#utility.yul\":1117:1121   */\n              dup2\n                /* \"#utility.yul\":1113:1133   */\n              sub\n                /* \"#utility.yul\":1109:1110   */\n              0x00\n                /* \"#utility.yul\":1098:1107   */\n              dup4\n                /* \"#utility.yul\":1094:1111   */\n              add\n                /* \"#utility.yul\":1087:1134   */\n              mstore\n                /* \"#utility.yul\":1151:1229   */\n              tag_31\n                /* \"#utility.yul\":1224:1228   */\n              dup2\n                /* \"#utility.yul\":1215:1221   */\n              dup5\n                /* \"#utility.yul\":1151:1229   */\n              tag_18\n              jump\t// in\n            tag_31:\n                /* \"#utility.yul\":1143:1229   */\n              swap1\n              pop\n                /* \"#utility.yul\":923:1236   */\n              swap3\n              swap2\n              pop\n              pop\n              jump\t// out\n                /* \"#utility.yul\":1242:1422   */\n            tag_19:\n                /* \"#utility.yul\":1290:1367   */\n              0x4e487b7100000000000000000000000000000000000000000000000000000000\n                /* \"#utility.yul\":1287:1288   */\n              0x00\n                /* \"#utility.yul\":1280:1368   */\n              mstore\n                /* \"#utility.yul\":1387:1391   */\n              0x22\n                /* \"#utility.yul\":1384:1385   */\n              0x04\n                /* \"#utility.yul\":1377:1392   */\n              mstore\n                /* \"#utility.yul\":1411:1415   */\n              0x24\n                /* \"#utility.yul\":1408:1409   */\n              0x00\n                /* \"#utility.yul\":1401:1416   */\n              revert\n                /* \"#utility.yul\":1428:1748   */\n            tag_9:\n                /* \"#utility.yul\":1472:1478   */\n              0x00\n                /* \"#utility.yul\":1509:1510   */\n              0x02\n                /* \"#utility.yul\":1503:1507   */\n              dup3\n                /* \"#utility.yul\":1499:1511   */\n              div\n                /* \"#utility.yul\":1489:1511   */\n              swap1\n              pop\n                /* \"#utility.yul\":1556:1557   */\n              0x01\n                /* \"#utility.yul\":1550:1554   */\n              dup3\n                /* \"#utility.yul\":1546:1558   */\n              and\n                /* \"#utility.yul\":1577:1595   */\n              dup1\n                /* \"#utility.yul\":1567:1648   */\n              tag_34\n              jumpi\n                /* \"#utility.yul\":1633:1637   */\n              0x7f\n                /* \"#utility.yul\":1625:1631   */\n              dup3\n                /* \"#utility.yul\":1621:1638   */\n              and\n                /* \"#utility.yul\":1611:1638   */\n              swap2\n              pop\n                /* \"#utility.yul\":1567:1648   */\n            tag_34:\n                /* \"#utility.yul\":1695:1697   */\n              0x20\n                /* \"#utility.yul\":1687:1693   */\n              dup3\n                /* \"#utility.yul\":1684:1698   */\n              lt\n                /* \"#utility.yul\":1664:1682   */\n              dup2\n                /* \"#utility.yul\":1661:1699   */\n              sub\n                /* \"#utility.yul\":1658:1742   */\n              tag_35\n              jumpi\n                /* \"#utility.yul\":1714:1732   */\n              tag_36\n              tag_19\n              jump\t// in\n            tag_36:\n                /* \"#utility.yul\":1658:1742   */\n            tag_35:\n                /* \"#utility.yul\":1479:1748   */\n              pop\n                /* \"#utility.yul\":1428:1748   */\n              swap2\n              swap1\n              pop\n              jump\t// out\n\n            auxdata: 0xa26469706673582212205b7119ef83921f04cbb6ece3a6e883b66cd86413f943d13f980fc8dd2a7a526864736f6c634300081d0033\n        }\n    }\n\n    sub_1: assembly {\n            /* \"E/Master Contract to Handle All Types.sol\":3069:3235  contract SelfDestructSender {... */\n          mstore(0x40, 0x80)\n            /* \"E/Master Contract to Handle All Types.sol\":3103:3142  constructor(address payable) payable {} */\n          mload(0x40)\n          sub(codesize, bytecodeSize)\n          dup1\n          bytecodeSize\n          dup4\n          codecopy\n          dup2\n          dup2\n          add\n          0x40\n          mstore\n          dup2\n          add\n          swap1\n          tag_1\n          swap2\n          swap1\n          tag_2\n          jump\t// in\n        tag_1:\n          pop\n            /* \"E/Master Contract to Handle All Types.sol\":3069:3235  contract SelfDestructSender {... */\n          jump(tag_5)\n            /* \"#utility.yul\":88:205   */\n        tag_7:\n            /* \"#utility.yul\":197:198   */\n          0x00\n            /* \"#utility.yul\":194:195   */\n          0x00\n            /* \"#utility.yul\":187:199   */\n          revert\n            /* \"#utility.yul\":334:460   */\n        tag_9:\n            /* \"#utility.yul\":371:378   */\n          0x00\n            /* \"#utility.yul\":411:453   */\n          0xffffffffffffffffffffffffffffffffffffffff\n            /* \"#utility.yul\":404:409   */\n          dup3\n            /* \"#utility.yul\":400:454   */\n          and\n            /* \"#utility.yul\":389:454   */\n          swap1\n          pop\n            /* \"#utility.yul\":334:460   */\n          swap2\n          swap1\n          pop\n          jump\t// out\n            /* \"#utility.yul\":466:570   */\n        tag_10:\n            /* \"#utility.yul\":511:518   */\n          0x00\n            /* \"#utility.yul\":540:564   */\n          tag_19\n            /* \"#utility.yul\":558:563   */\n          dup3\n            /* \"#utility.yul\":540:564   */\n          tag_9\n          jump\t// in\n        tag_19:\n            /* \"#utility.yul\":529:564   */\n          swap1\n          pop\n            /* \"#utility.yul\":466:570   */\n          swap2\n          swap1\n          pop\n          jump\t// out\n            /* \"#utility.yul\":576:714   */\n        tag_11:\n            /* \"#utility.yul\":657:689   */\n          tag_21\n            /* \"#utility.yul\":683:688   */\n          dup2\n            /* \"#utility.yul\":657:689   */\n          tag_10\n          jump\t// in\n        tag_21:\n            /* \"#utility.yul\":650:655   */\n          dup2\n            /* \"#utility.yul\":647:690   */\n          eq\n            /* \"#utility.yul\":637:708   */\n          tag_22\n          jumpi\n            /* \"#utility.yul\":704:705   */\n          0x00\n            /* \"#utility.yul\":701:702   */\n          0x00\n            /* \"#utility.yul\":694:706   */\n          revert\n            /* \"#utility.yul\":637:708   */\n        tag_22:\n            /* \"#utility.yul\":576:714   */\n          pop\n          jump\t// out\n            /* \"#utility.yul\":720:879   */\n        tag_12:\n            /* \"#utility.yul\":785:790   */\n          0x00\n            /* \"#utility.yul\":816:822   */\n          dup2\n            /* \"#utility.yul\":810:823   */\n          mload\n            /* \"#utility.yul\":801:823   */\n          swap1\n          pop\n            /* \"#utility.yul\":832:873   */\n          tag_24\n            /* \"#utility.yul\":867:872   */\n          dup2\n            /* \"#utility.yul\":832:873   */\n          tag_11\n          jump\t// in\n        tag_24:\n            /* \"#utility.yul\":720:879   */\n          swap3\n          swap2\n          pop\n          pop\n          jump\t// out\n            /* \"#utility.yul\":885:1252   */\n        tag_2:\n            /* \"#utility.yul\":963:969   */\n          0x00\n            /* \"#utility.yul\":1012:1014   */\n          0x20\n            /* \"#utility.yul\":1000:1009   */\n          dup3\n            /* \"#utility.yul\":991:998   */\n          dup5\n            /* \"#utility.yul\":987:1010   */\n          sub\n            /* \"#utility.yul\":983:1015   */\n          slt\n            /* \"#utility.yul\":980:1099   */\n          iszero\n          tag_26\n          jumpi\n            /* \"#utility.yul\":1018:1097   */\n          tag_27\n          tag_7\n          jump\t// in\n        tag_27:\n            /* \"#utility.yul\":980:1099   */\n        tag_26:\n            /* \"#utility.yul\":1138:1139   */\n          0x00\n            /* \"#utility.yul\":1163:1235   */\n          tag_28\n            /* \"#utility.yul\":1227:1234   */\n          dup5\n            /* \"#utility.yul\":1218:1224   */\n          dup3\n            /* \"#utility.yul\":1207:1216   */\n          dup6\n            /* \"#utility.yul\":1203:1225   */\n          add\n            /* \"#utility.yul\":1163:1235   */\n          tag_12\n          jump\t// in\n        tag_28:\n            /* \"#utility.yul\":1153:1235   */\n          swap2\n          pop\n            /* \"#utility.yul\":1109:1245   */\n          pop\n            /* \"#utility.yul\":885:1252   */\n          swap3\n          swap2\n          pop\n          pop\n          jump\t// out\n            /* \"E/Master Contract to Handle All Types.sol\":3069:3235  contract SelfDestructSender {... */\n        tag_5:\n          dataSize(sub_0)\n          dup1\n          dataOffset(sub_0)\n          0x00\n          codecopy\n          0x00\n          return\n        stop\n\n        sub_0: assembly {\n                /* \"E/Master Contract to Handle All Types.sol\":3069:3235  contract SelfDestructSender {... */\n              mstore(0x40, 0x80)\n              callvalue\n              dup1\n              iszero\n              tag_1\n              jumpi\n              revert(0x00, 0x00)\n            tag_1:\n              pop\n              jumpi(tag_2, lt(calldatasize, 0x04))\n              shr(0xe0, calldataload(0x00))\n              dup1\n              0x45cefcec\n              eq\n              tag_3\n              jumpi\n            tag_2:\n              revert(0x00, 0x00)\n                /* \"E/Master Contract to Handle All Types.sol\":3148:3233  function destroyAndSend() external {... */\n            tag_3:\n              tag_4\n              tag_5\n              jump\t// in\n            tag_4:\n              stop\n            tag_5:\n                /* \"E/Master Contract to Handle All Types.sol\":3214:3224  msg.sender */\n              caller\n                /* \"E/Master Contract to Handle All Types.sol\":3193:3226  selfdestruct(payable(msg.sender)) */\n              0xffffffffffffffffffffffffffffffffffffffff\n              and\n              selfdestruct\n\n            auxdata: 0xa2646970667358221220a0c01d3d48694ce27caf44db4f6090be13a43efd9ef888d8b3873c789921dec564736f6c634300081d0033\n        }\n    }\n\n    auxdata: 0xa2646970667358221220f0b07143b75db2c65a0104897c1fcdcf9d5ee1f2818abeb1fda78cb1dc6fe35f64736f6c634300081d0033\n}\n",
				"bytecode": {
					"linkReferences": {},
					"object": "6080604052348015600e575f5ffd5b506112048061001c5f395ff3fe608060405260043610610058575f3560e01c806321b1e5f81461009c57806351fcd0d7146100b85780638c309043146100e057806396e9df8d14610108578063ac637c7a1461011e578063aedd84d41461014657610098565b36610098577f211a703cf03a095c04bba744c8c09909dd15735137407b42f8e43af3d286b925333460405161008e929190610713565b60405180910390a1005b5f5ffd5b6100b660048036038101906100b19190610779565b610162565b005b3480156100c3575f5ffd5b506100de60048036038101906100d991906107ce565b6102b5565b005b3480156100eb575f5ffd5b50610106600480360381019061010191906107ce565b610357565b005b348015610113575f5ffd5b5061011c610401565b005b348015610129575f5ffd5b50610144600480360381019061013f91906107ce565b610464565b005b610160600480360381019061015b9190610779565b6105ca565b005b5f34116101a4576040517f08c379a000000000000000000000000000000000000000000000000000000000815260040161019b90610853565b60405180910390fd5b5f8173ffffffffffffffffffffffffffffffffffffffff16346040516101c99061089e565b5f6040518083038185875af1925050503d805f8114610203576040519150601f19603f3d011682016040523d82523d5f602084013e610208565b606091505b505090508061024c576040517f08c379a0000000000000000000000000000000000000000000000000000000008152600401610243906108fc565b60405180910390fd5b8173ffffffffffffffffffffffffffffffffffffffff163373ffffffffffffffffffffffffffffffffffffffff167f8dec4e7cfc87eced5c05eafa206697292193ede25a52287bf5fc6cbb0fd84cfa346040516102a9919061091a565b60405180910390a35050565b8073ffffffffffffffffffffffffffffffffffffffff1663f889fda4336040518263ffffffff1660e01b81526004016102ee9190610933565b5f604051808303815f87803b158015610305575f5ffd5b505af1158015610317573d5f5f3e3d5ffd5b505050507fdc3b476bab9d1993b3d3e96996d3ea91d063d10f03bbbb4baaf09e06eb426dd8338260405161034c92919061094c565b60405180910390a150565b8073ffffffffffffffffffffffffffffffffffffffff166319ff1d216040518163ffffffff1660e01b81526004015f604051808303815f87803b15801561039c575f5ffd5b505af11580156103ae573d5f5f3e3d5ffd5b505050503373ffffffffffffffffffffffffffffffffffffffff167f95ffaffbd7d290d85877907d6ea1ee0f2ed132bd1b1b50a11a629ebc8b3b984a6040516103f6906109bd565b60405180910390a250565b5f60405161040e906106a2565b604051809103905ff080158015610427573d5f5f3e3d5ffd5b5090507f8ffcdc15a283d706d38281f500270d8b5a656918f555de0913d7455e3e6bc1bf816040516104599190610933565b60405180910390a150565b5f8173ffffffffffffffffffffffffffffffffffffffff166040516024016040516020818303038152906040527ff7b0d568000000000000000000000000000000000000000000000000000000007bffffffffffffffffffffffffffffffffffffffffffffffffffffffff19166020820180517bffffffffffffffffffffffffffffffffffffffffffffffffffffffff838183161783525050505060405161050c9190610a23565b5f60405180830381855af49150503d805f8114610544576040519150601f19603f3d011682016040523d82523d5f602084013e610549565b606091505b505090508061058d576040517f08c379a000000000000000000000000000000000000000000000000000000000815260040161058490610a83565b60405180910390fd5b7faced19579796ed45183013446919039e934a30875c81fa1989589dde1f5691c533836040516105be92919061094c565b60405180910390a15050565b5f341161060c576040517f08c379a000000000000000000000000000000000000000000000000000000000815260040161060390610aeb565b60405180910390fd5b5f348260405161061b906106af565b6106259190610b18565b6040518091039082f0905080158015610640573d5f5f3e3d5ffd5b5090508073ffffffffffffffffffffffffffffffffffffffff166345cefcec6040518163ffffffff1660e01b81526004015f604051808303815f87803b158015610688575f5ffd5b505af115801561069a573d5f5f3e3d5ffd5b505050505050565b61056b80610b3283390190565b6101328061109d83390190565b5f73ffffffffffffffffffffffffffffffffffffffff82169050919050565b5f6106e5826106bc565b9050919050565b6106f5816106db565b82525050565b5f819050919050565b61070d816106fb565b82525050565b5f6040820190506107265f8301856106ec565b6107336020830184610704565b9392505050565b5f5ffd5b5f610748826106bc565b9050919050565b6107588161073e565b8114610762575f5ffd5b50565b5f813590506107738161074f565b92915050565b5f6020828403121561078e5761078d61073a565b5b5f61079b84828501610765565b91505092915050565b6107ad816106db565b81146107b7575f5ffd5b50565b5f813590506107c8816107a4565b92915050565b5f602082840312156107e3576107e261073a565b5b5f6107f0848285016107ba565b91505092915050565b5f82825260208201905092915050565b7f53656e6420736f6d6520455448000000000000000000000000000000000000005f82015250565b5f61083d600d836107f9565b915061084882610809565b602082019050919050565b5f6020820190508181035f83015261086a81610831565b9050919050565b5f81905092915050565b50565b5f6108895f83610871565b91506108948261087b565b5f82019050919050565b5f6108a88261087e565b9150819050919050565b7f4661696c656420746f2073656e642045544800000000000000000000000000005f82015250565b5f6108e66012836107f9565b91506108f1826108b2565b602082019050919050565b5f6020820190508181035f830152610913816108da565b9050919050565b5f60208201905061092d5f830184610704565b92915050565b5f6020820190506109465f8301846106ec565b92915050565b5f60408201905061095f5f8301856106ec565b61096c60208301846106ec565b9392505050565b7f43616c6c65642068656c6c6f2829206f6e206f7468657220636f6e74726163745f82015250565b5f6109a76020836107f9565b91506109b282610973565b602082019050919050565b5f6020820190508181035f8301526109d48161099b565b9050919050565b5f81519050919050565b8281835e5f83830152505050565b5f6109fd826109db565b610a078185610871565b9350610a178185602086016109e5565b80840191505092915050565b5f610a2e82846109f3565b915081905092915050565b7f44656c656761746563616c6c206661696c6564000000000000000000000000005f82015250565b5f610a6d6013836107f9565b9150610a7882610a39565b602082019050919050565b5f6020820190508181035f830152610a9a81610a61565b9050919050565b7f53656e64204554480000000000000000000000000000000000000000000000005f82015250565b5f610ad56008836107f9565b9150610ae082610aa1565b602082019050919050565b5f6020820190508181035f830152610b0281610ac9565b9050919050565b610b128161073e565b82525050565b5f602082019050610b2b5f830184610b09565b9291505056fe60806040526040518060400160405280600b81526020017f4920616d20616c697665210000000000000000000000000000000000000000008152505f90816100479190610296565b50348015610053575f5ffd5b50610365565b5f81519050919050565b7f4e487b71000000000000000000000000000000000000000000000000000000005f52604160045260245ffd5b7f4e487b71000000000000000000000000000000000000000000000000000000005f52602260045260245ffd5b5f60028204905060018216806100d457607f821691505b6020821081036100e7576100e6610090565b5b50919050565b5f819050815f5260205f209050919050565b5f6020601f8301049050919050565b5f82821b905092915050565b5f600883026101497fffffffffffffffffffffffffffffffffffffffffffffffffffffffffffffffff8261010e565b610153868361010e565b95508019841693508086168417925050509392505050565b5f819050919050565b5f819050919050565b5f61019761019261018d8461016b565b610174565b61016b565b9050919050565b5f819050919050565b6101b08361017d565b6101c46101bc8261019e565b84845461011a565b825550505050565b5f5f905090565b6101db6101cc565b6101e68184846101a7565b505050565b5b81811015610209576101fe5f826101d3565b6001810190506101ec565b5050565b601f82111561024e5761021f816100ed565b610228846100ff565b81016020851015610237578190505b61024b610243856100ff565b8301826101eb565b50505b505050565b5f82821c905092915050565b5f61026e5f1984600802610253565b1980831691505092915050565b5f610286838361025f565b9150826002028217905092915050565b61029f82610059565b67ffffffffffffffff8111156102b8576102b7610063565b5b6102c282546100bd565b6102cd82828561020d565b5f60209050601f8311600181146102fe575f84156102ec578287015190505b6102f6858261027b565b86555061035d565b601f19841661030c866100ed565b5f5b828110156103335784890151825560018201915060208501945060208101905061030e565b86831015610350578489015161034c601f89168261025f565b8355505b6001600288020188555050505b505050505050565b6101f9806103725f395ff3fe608060405234801561000f575f5ffd5b5060043610610029575f3560e01c8063ef690cc01461002d575b5f5ffd5b61003561004b565b6040516100429190610146565b60405180910390f35b5f805461005790610193565b80601f016020809104026020016040519081016040528092919081815260200182805461008390610193565b80156100ce5780601f106100a5576101008083540402835291602001916100ce565b820191905f5260205f20905b8154815290600101906020018083116100b157829003601f168201915b505050505081565b5f81519050919050565b5f82825260208201905092915050565b8281835e5f83830152505050565b5f601f19601f8301169050919050565b5f610118826100d6565b61012281856100e0565b93506101328185602086016100f0565b61013b816100fe565b840191505092915050565b5f6020820190508181035f83015261015e818461010e565b905092915050565b7f4e487b71000000000000000000000000000000000000000000000000000000005f52602260045260245ffd5b5f60028204905060018216806101aa57607f821691505b6020821081036101bd576101bc610166565b5b5091905056fea26469706673582212205b7119ef83921f04cbb6ece3a6e883b66cd86413f943d13f980fc8dd2a7a526864736f6c634300081d00336080604052604051610132380380610132833981810160405281019060239190607f565b5060a5565b5f5ffd5b5f73ffffffffffffffffffffffffffffffffffffffff82169050919050565b5f605382602c565b9050919050565b606181604b565b8114606a575f5ffd5b50565b5f81519050607981605a565b92915050565b5f6020828403121560915760906028565b5b5f609c84828501606d565b91505092915050565b6081806100b15f395ff3fe6080604052348015600e575f5ffd5b50600436106026575f3560e01c806345cefcec14602a575b5f5ffd5b60306032565b005b3373ffffffffffffffffffffffffffffffffffffffff16fffea2646970667358221220a0c01d3d48694ce27caf44db4f6090be13a43efd9ef888d8b3873c789921dec564736f6c634300081d0033a2646970667358221220f0b07143b75db2c65a0104897c1fcdcf9d5ee1f2818abeb1fda78cb1dc6fe35f64736f6c634300081d0033",
					"opcodes": "PUSH1 0x80 PUSH1 0x40 MSTORE CALLVALUE DUP1 ISZERO PUSH1 0xE JUMPI PUSH0 PUSH0 REVERT JUMPDEST POP PUSH2 0x1204 DUP1 PUSH2 0x1C PUSH0 CODECOPY PUSH0 RETURN INVALID PUSH1 0x80 PUSH1 0x40 MSTORE PUSH1 0x4 CALLDATASIZE LT PUSH2 0x58 JUMPI PUSH0 CALLDATALOAD PUSH1 0xE0 SHR DUP1 PUSH4 0x21B1E5F8 EQ PUSH2 0x9C JUMPI DUP1 PUSH4 0x51FCD0D7 EQ PUSH2 0xB8 JUMPI DUP1 PUSH4 0x8C309043 EQ PUSH2 0xE0 JUMPI DUP1 PUSH4 0x96E9DF8D EQ PUSH2 0x108 JUMPI DUP1 PUSH4 0xAC637C7A EQ PUSH2 0x11E JUMPI DUP1 PUSH4 0xAEDD84D4 EQ PUSH2 0x146 JUMPI PUSH2 0x98 JUMP JUMPDEST CALLDATASIZE PUSH2 0x98 JUMPI PUSH32 0x211A703CF03A095C04BBA744C8C09909DD15735137407B42F8E43AF3D286B925 CALLER CALLVALUE PUSH1 0x40 MLOAD PUSH2 0x8E SWAP3 SWAP2 SWAP1 PUSH2 0x713 JUMP JUMPDEST PUSH1 0x40 MLOAD DUP1 SWAP2 SUB SWAP1 LOG1 STOP JUMPDEST PUSH0 PUSH0 REVERT JUMPDEST PUSH2 0xB6 PUSH1 0x4 DUP1 CALLDATASIZE SUB DUP2 ADD SWAP1 PUSH2 0xB1 SWAP2 SWAP1 PUSH2 0x779 JUMP JUMPDEST PUSH2 0x162 JUMP JUMPDEST STOP JUMPDEST CALLVALUE DUP1 ISZERO PUSH2 0xC3 JUMPI PUSH0 PUSH0 REVERT JUMPDEST POP PUSH2 0xDE PUSH1 0x4 DUP1 CALLDATASIZE SUB DUP2 ADD SWAP1 PUSH2 0xD9 SWAP2 SWAP1 PUSH2 0x7CE JUMP JUMPDEST PUSH2 0x2B5 JUMP JUMPDEST STOP JUMPDEST CALLVALUE DUP1 ISZERO PUSH2 0xEB JUMPI PUSH0 PUSH0 REVERT JUMPDEST POP PUSH2 0x106 PUSH1 0x4 DUP1 CALLDATASIZE SUB DUP2 ADD SWAP1 PUSH2 0x101 SWAP2 SWAP1 PUSH2 0x7CE JUMP JUMPDEST PUSH2 0x357 JUMP JUMPDEST STOP JUMPDEST CALLVALUE DUP1 ISZERO PUSH2 0x113 JUMPI PUSH0 PUSH0 REVERT JUMPDEST POP PUSH2 0x11C PUSH2 0x401 JUMP JUMPDEST STOP JUMPDEST CALLVALUE DUP1 ISZERO PUSH2 0x129 JUMPI PUSH0 PUSH0 REVERT JUMPDEST POP PUSH2 0x144 PUSH1 0x4 DUP1 CALLDATASIZE SUB DUP2 ADD SWAP1 PUSH2 0x13F SWAP2 SWAP1 PUSH2 0x7CE JUMP JUMPDEST PUSH2 0x464 JUMP JUMPDEST STOP JUMPDEST PUSH2 0x160 PUSH1 0x4 DUP1 CALLDATASIZE SUB DUP2 ADD SWAP1 PUSH2 0x15B SWAP2 SWAP1 PUSH2 0x779 JUMP JUMPDEST PUSH2 0x5CA JUMP JUMPDEST STOP JUMPDEST PUSH0 CALLVALUE GT PUSH2 0x1A4 JUMPI PUSH1 0x40 MLOAD PUSH32 0x8C379A000000000000000000000000000000000000000000000000000000000 DUP2 MSTORE PUSH1 0x4 ADD PUSH2 0x19B SWAP1 PUSH2 0x853 JUMP JUMPDEST PUSH1 0x40 MLOAD DUP1 SWAP2 SUB SWAP1 REVERT JUMPDEST PUSH0 DUP2 PUSH20 0xFFFFFFFFFFFFFFFFFFFFFFFFFFFFFFFFFFFFFFFF AND CALLVALUE PUSH1 0x40 MLOAD PUSH2 0x1C9 SWAP1 PUSH2 0x89E JUMP JUMPDEST PUSH0 PUSH1 0x40 MLOAD DUP1 DUP4 SUB DUP2 DUP6 DUP8 GAS CALL SWAP3 POP POP POP RETURNDATASIZE DUP1 PUSH0 DUP2 EQ PUSH2 0x203 JUMPI PUSH1 0x40 MLOAD SWAP2 POP PUSH1 0x1F NOT PUSH1 0x3F RETURNDATASIZE ADD AND DUP3 ADD PUSH1 0x40 MSTORE RETURNDATASIZE DUP3 MSTORE RETURNDATASIZE PUSH0 PUSH1 0x20 DUP5 ADD RETURNDATACOPY PUSH2 0x208 JUMP JUMPDEST PUSH1 0x60 SWAP2 POP JUMPDEST POP POP SWAP1 POP DUP1 PUSH2 0x24C JUMPI PUSH1 0x40 MLOAD PUSH32 0x8C379A000000000000000000000000000000000000000000000000000000000 DUP2 MSTORE PUSH1 0x4 ADD PUSH2 0x243 SWAP1 PUSH2 0x8FC JUMP JUMPDEST PUSH1 0x40 MLOAD DUP1 SWAP2 SUB SWAP1 REVERT JUMPDEST DUP2 PUSH20 0xFFFFFFFFFFFFFFFFFFFFFFFFFFFFFFFFFFFFFFFF AND CALLER PUSH20 0xFFFFFFFFFFFFFFFFFFFFFFFFFFFFFFFFFFFFFFFF AND PUSH32 0x8DEC4E7CFC87ECED5C05EAFA206697292193EDE25A52287BF5FC6CBB0FD84CFA CALLVALUE PUSH1 0x40 MLOAD PUSH2 0x2A9 SWAP2 SWAP1 PUSH2 0x91A JUMP JUMPDEST PUSH1 0x40 MLOAD DUP1 SWAP2 SUB SWAP1 LOG3 POP POP JUMP JUMPDEST DUP1 PUSH20 0xFFFFFFFFFFFFFFFFFFFFFFFFFFFFFFFFFFFFFFFF AND PUSH4 0xF889FDA4 CALLER PUSH1 0x40 MLOAD DUP3 PUSH4 0xFFFFFFFF AND PUSH1 0xE0 SHL DUP2 MSTORE PUSH1 0x4 ADD PUSH2 0x2EE SWAP2 SWAP1 PUSH2 0x933 JUMP JUMPDEST PUSH0 PUSH1 0x40 MLOAD DUP1 DUP4 SUB DUP2 PUSH0 DUP8 DUP1 EXTCODESIZE ISZERO DUP1 ISZERO PUSH2 0x305 JUMPI PUSH0 PUSH0 REVERT JUMPDEST POP GAS CALL ISZERO DUP1 ISZERO PUSH2 0x317 JUMPI RETURNDATASIZE PUSH0 PUSH0 RETURNDATACOPY RETURNDATASIZE PUSH0 REVERT JUMPDEST POP POP POP POP PUSH32 0xDC3B476BAB9D1993B3D3E96996D3EA91D063D10F03BBBB4BAAF09E06EB426DD8 CALLER DUP3 PUSH1 0x40 MLOAD PUSH2 0x34C SWAP3 SWAP2 SWAP1 PUSH2 0x94C JUMP JUMPDEST PUSH1 0x40 MLOAD DUP1 SWAP2 SUB SWAP1 LOG1 POP JUMP JUMPDEST DUP1 PUSH20 0xFFFFFFFFFFFFFFFFFFFFFFFFFFFFFFFFFFFFFFFF AND PUSH4 0x19FF1D21 PUSH1 0x40 MLOAD DUP2 PUSH4 0xFFFFFFFF AND PUSH1 0xE0 SHL DUP2 MSTORE PUSH1 0x4 ADD PUSH0 PUSH1 0x40 MLOAD DUP1 DUP4 SUB DUP2 PUSH0 DUP8 DUP1 EXTCODESIZE ISZERO DUP1 ISZERO PUSH2 0x39C JUMPI PUSH0 PUSH0 REVERT JUMPDEST POP GAS CALL ISZERO DUP1 ISZERO PUSH2 0x3AE JUMPI RETURNDATASIZE PUSH0 PUSH0 RETURNDATACOPY RETURNDATASIZE PUSH0 REVERT JUMPDEST POP POP POP POP CALLER PUSH20 0xFFFFFFFFFFFFFFFFFFFFFFFFFFFFFFFFFFFFFFFF AND PUSH32 0x95FFAFFBD7D290D85877907D6EA1EE0F2ED132BD1B1B50A11A629EBC8B3B984A PUSH1 0x40 MLOAD PUSH2 0x3F6 SWAP1 PUSH2 0x9BD JUMP JUMPDEST PUSH1 0x40 MLOAD DUP1 SWAP2 SUB SWAP1 LOG2 POP JUMP JUMPDEST PUSH0 PUSH1 0x40 MLOAD PUSH2 0x40E SWAP1 PUSH2 0x6A2 JUMP JUMPDEST PUSH1 0x40 MLOAD DUP1 SWAP2 SUB SWAP1 PUSH0 CREATE DUP1 ISZERO DUP1 ISZERO PUSH2 0x427 JUMPI RETURNDATASIZE PUSH0 PUSH0 RETURNDATACOPY RETURNDATASIZE PUSH0 REVERT JUMPDEST POP SWAP1 POP PUSH32 0x8FFCDC15A283D706D38281F500270D8B5A656918F555DE0913D7455E3E6BC1BF DUP2 PUSH1 0x40 MLOAD PUSH2 0x459 SWAP2 SWAP1 PUSH2 0x933 JUMP JUMPDEST PUSH1 0x40 MLOAD DUP1 SWAP2 SUB SWAP1 LOG1 POP JUMP JUMPDEST PUSH0 DUP2 PUSH20 0xFFFFFFFFFFFFFFFFFFFFFFFFFFFFFFFFFFFFFFFF AND PUSH1 0x40 MLOAD PUSH1 0x24 ADD PUSH1 0x40 MLOAD PUSH1 0x20 DUP2 DUP4 SUB SUB DUP2 MSTORE SWAP1 PUSH1 0x40 MSTORE PUSH32 0xF7B0D56800000000000000000000000000000000000000000000000000000000 PUSH28 0xFFFFFFFFFFFFFFFFFFFFFFFFFFFFFFFFFFFFFFFFFFFFFFFFFFFFFFFF NOT AND PUSH1 0x20 DUP3 ADD DUP1 MLOAD PUSH28 0xFFFFFFFFFFFFFFFFFFFFFFFFFFFFFFFFFFFFFFFFFFFFFFFFFFFFFFFF DUP4 DUP2 DUP4 AND OR DUP4 MSTORE POP POP POP POP PUSH1 0x40 MLOAD PUSH2 0x50C SWAP2 SWAP1 PUSH2 0xA23 JUMP JUMPDEST PUSH0 PUSH1 0x40 MLOAD DUP1 DUP4 SUB DUP2 DUP6 GAS DELEGATECALL SWAP2 POP POP RETURNDATASIZE DUP1 PUSH0 DUP2 EQ PUSH2 0x544 JUMPI PUSH1 0x40 MLOAD SWAP2 POP PUSH1 0x1F NOT PUSH1 0x3F RETURNDATASIZE ADD AND DUP3 ADD PUSH1 0x40 MSTORE RETURNDATASIZE DUP3 MSTORE RETURNDATASIZE PUSH0 PUSH1 0x20 DUP5 ADD RETURNDATACOPY PUSH2 0x549 JUMP JUMPDEST PUSH1 0x60 SWAP2 POP JUMPDEST POP POP SWAP1 POP DUP1 PUSH2 0x58D JUMPI PUSH1 0x40 MLOAD PUSH32 0x8C379A000000000000000000000000000000000000000000000000000000000 DUP2 MSTORE PUSH1 0x4 ADD PUSH2 0x584 SWAP1 PUSH2 0xA83 JUMP JUMPDEST PUSH1 0x40 MLOAD DUP1 SWAP2 SUB SWAP1 REVERT JUMPDEST PUSH32 0xACED19579796ED45183013446919039E934A30875C81FA1989589DDE1F5691C5 CALLER DUP4 PUSH1 0x40 MLOAD PUSH2 0x5BE SWAP3 SWAP2 SWAP1 PUSH2 0x94C JUMP JUMPDEST PUSH1 0x40 MLOAD DUP1 SWAP2 SUB SWAP1 LOG1 POP POP JUMP JUMPDEST PUSH0 CALLVALUE GT PUSH2 0x60C JUMPI PUSH1 0x40 MLOAD PUSH32 0x8C379A000000000000000000000000000000000000000000000000000000000 DUP2 MSTORE PUSH1 0x4 ADD PUSH2 0x603 SWAP1 PUSH2 0xAEB JUMP JUMPDEST PUSH1 0x40 MLOAD DUP1 SWAP2 SUB SWAP1 REVERT JUMPDEST PUSH0 CALLVALUE DUP3 PUSH1 0x40 MLOAD PUSH2 0x61B SWAP1 PUSH2 0x6AF JUMP JUMPDEST PUSH2 0x625 SWAP2 SWAP1 PUSH2 0xB18 JUMP JUMPDEST PUSH1 0x40 MLOAD DUP1 SWAP2 SUB SWAP1 DUP3 CREATE SWAP1 POP DUP1 ISZERO DUP1 ISZERO PUSH2 0x640 JUMPI RETURNDATASIZE PUSH0 PUSH0 RETURNDATACOPY RETURNDATASIZE PUSH0 REVERT JUMPDEST POP SWAP1 POP DUP1 PUSH20 0xFFFFFFFFFFFFFFFFFFFFFFFFFFFFFFFFFFFFFFFF AND PUSH4 0x45CEFCEC PUSH1 0x40 MLOAD DUP2 PUSH4 0xFFFFFFFF AND PUSH1 0xE0 SHL DUP2 MSTORE PUSH1 0x4 ADD PUSH0 PUSH1 0x40 MLOAD DUP1 DUP4 SUB DUP2 PUSH0 DUP8 DUP1 EXTCODESIZE ISZERO DUP1 ISZERO PUSH2 0x688 JUMPI PUSH0 PUSH0 REVERT JUMPDEST POP GAS CALL ISZERO DUP1 ISZERO PUSH2 0x69A JUMPI RETURNDATASIZE PUSH0 PUSH0 RETURNDATACOPY RETURNDATASIZE PUSH0 REVERT JUMPDEST POP POP POP POP POP POP JUMP JUMPDEST PUSH2 0x56B DUP1 PUSH2 0xB32 DUP4 CODECOPY ADD SWAP1 JUMP JUMPDEST PUSH2 0x132 DUP1 PUSH2 0x109D DUP4 CODECOPY ADD SWAP1 JUMP JUMPDEST PUSH0 PUSH20 0xFFFFFFFFFFFFFFFFFFFFFFFFFFFFFFFFFFFFFFFF DUP3 AND SWAP1 POP SWAP2 SWAP1 POP JUMP JUMPDEST PUSH0 PUSH2 0x6E5 DUP3 PUSH2 0x6BC JUMP JUMPDEST SWAP1 POP SWAP2 SWAP1 POP JUMP JUMPDEST PUSH2 0x6F5 DUP2 PUSH2 0x6DB JUMP JUMPDEST DUP3 MSTORE POP POP JUMP JUMPDEST PUSH0 DUP2 SWAP1 POP SWAP2 SWAP1 POP JUMP JUMPDEST PUSH2 0x70D DUP2 PUSH2 0x6FB JUMP JUMPDEST DUP3 MSTORE POP POP JUMP JUMPDEST PUSH0 PUSH1 0x40 DUP3 ADD SWAP1 POP PUSH2 0x726 PUSH0 DUP4 ADD DUP6 PUSH2 0x6EC JUMP JUMPDEST PUSH2 0x733 PUSH1 0x20 DUP4 ADD DUP5 PUSH2 0x704 JUMP JUMPDEST SWAP4 SWAP3 POP POP POP JUMP JUMPDEST PUSH0 PUSH0 REVERT JUMPDEST PUSH0 PUSH2 0x748 DUP3 PUSH2 0x6BC JUMP JUMPDEST SWAP1 POP SWAP2 SWAP1 POP JUMP JUMPDEST PUSH2 0x758 DUP2 PUSH2 0x73E JUMP JUMPDEST DUP2 EQ PUSH2 0x762 JUMPI PUSH0 PUSH0 REVERT JUMPDEST POP JUMP JUMPDEST PUSH0 DUP2 CALLDATALOAD SWAP1 POP PUSH2 0x773 DUP2 PUSH2 0x74F JUMP JUMPDEST SWAP3 SWAP2 POP POP JUMP JUMPDEST PUSH0 PUSH1 0x20 DUP3 DUP5 SUB SLT ISZERO PUSH2 0x78E JUMPI PUSH2 0x78D PUSH2 0x73A JUMP JUMPDEST JUMPDEST PUSH0 PUSH2 0x79B DUP5 DUP3 DUP6 ADD PUSH2 0x765 JUMP JUMPDEST SWAP2 POP POP SWAP3 SWAP2 POP POP JUMP JUMPDEST PUSH2 0x7AD DUP2 PUSH2 0x6DB JUMP JUMPDEST DUP2 EQ PUSH2 0x7B7 JUMPI PUSH0 PUSH0 REVERT JUMPDEST POP JUMP JUMPDEST PUSH0 DUP2 CALLDATALOAD SWAP1 POP PUSH2 0x7C8 DUP2 PUSH2 0x7A4 JUMP JUMPDEST SWAP3 SWAP2 POP POP JUMP JUMPDEST PUSH0 PUSH1 0x20 DUP3 DUP5 SUB SLT ISZERO PUSH2 0x7E3 JUMPI PUSH2 0x7E2 PUSH2 0x73A JUMP JUMPDEST JUMPDEST PUSH0 PUSH2 0x7F0 DUP5 DUP3 DUP6 ADD PUSH2 0x7BA JUMP JUMPDEST SWAP2 POP POP SWAP3 SWAP2 POP POP JUMP JUMPDEST PUSH0 DUP3 DUP3 MSTORE PUSH1 0x20 DUP3 ADD SWAP1 POP SWAP3 SWAP2 POP POP JUMP JUMPDEST PUSH32 0x53656E6420736F6D652045544800000000000000000000000000000000000000 PUSH0 DUP3 ADD MSTORE POP JUMP JUMPDEST PUSH0 PUSH2 0x83D PUSH1 0xD DUP4 PUSH2 0x7F9 JUMP JUMPDEST SWAP2 POP PUSH2 0x848 DUP3 PUSH2 0x809 JUMP JUMPDEST PUSH1 0x20 DUP3 ADD SWAP1 POP SWAP2 SWAP1 POP JUMP JUMPDEST PUSH0 PUSH1 0x20 DUP3 ADD SWAP1 POP DUP2 DUP2 SUB PUSH0 DUP4 ADD MSTORE PUSH2 0x86A DUP2 PUSH2 0x831 JUMP JUMPDEST SWAP1 POP SWAP2 SWAP1 POP JUMP JUMPDEST PUSH0 DUP2 SWAP1 POP SWAP3 SWAP2 POP POP JUMP JUMPDEST POP JUMP JUMPDEST PUSH0 PUSH2 0x889 PUSH0 DUP4 PUSH2 0x871 JUMP JUMPDEST SWAP2 POP PUSH2 0x894 DUP3 PUSH2 0x87B JUMP JUMPDEST PUSH0 DUP3 ADD SWAP1 POP SWAP2 SWAP1 POP JUMP JUMPDEST PUSH0 PUSH2 0x8A8 DUP3 PUSH2 0x87E JUMP JUMPDEST SWAP2 POP DUP2 SWAP1 POP SWAP2 SWAP1 POP JUMP JUMPDEST PUSH32 0x4661696C656420746F2073656E64204554480000000000000000000000000000 PUSH0 DUP3 ADD MSTORE POP JUMP JUMPDEST PUSH0 PUSH2 0x8E6 PUSH1 0x12 DUP4 PUSH2 0x7F9 JUMP JUMPDEST SWAP2 POP PUSH2 0x8F1 DUP3 PUSH2 0x8B2 JUMP JUMPDEST PUSH1 0x20 DUP3 ADD SWAP1 POP SWAP2 SWAP1 POP JUMP JUMPDEST PUSH0 PUSH1 0x20 DUP3 ADD SWAP1 POP DUP2 DUP2 SUB PUSH0 DUP4 ADD MSTORE PUSH2 0x913 DUP2 PUSH2 0x8DA JUMP JUMPDEST SWAP1 POP SWAP2 SWAP1 POP JUMP JUMPDEST PUSH0 PUSH1 0x20 DUP3 ADD SWAP1 POP PUSH2 0x92D PUSH0 DUP4 ADD DUP5 PUSH2 0x704 JUMP JUMPDEST SWAP3 SWAP2 POP POP JUMP JUMPDEST PUSH0 PUSH1 0x20 DUP3 ADD SWAP1 POP PUSH2 0x946 PUSH0 DUP4 ADD DUP5 PUSH2 0x6EC JUMP JUMPDEST SWAP3 SWAP2 POP POP JUMP JUMPDEST PUSH0 PUSH1 0x40 DUP3 ADD SWAP1 POP PUSH2 0x95F PUSH0 DUP4 ADD DUP6 PUSH2 0x6EC JUMP JUMPDEST PUSH2 0x96C PUSH1 0x20 DUP4 ADD DUP5 PUSH2 0x6EC JUMP JUMPDEST SWAP4 SWAP3 POP POP POP JUMP JUMPDEST PUSH32 0x43616C6C65642068656C6C6F2829206F6E206F7468657220636F6E7472616374 PUSH0 DUP3 ADD MSTORE POP JUMP JUMPDEST PUSH0 PUSH2 0x9A7 PUSH1 0x20 DUP4 PUSH2 0x7F9 JUMP JUMPDEST SWAP2 POP PUSH2 0x9B2 DUP3 PUSH2 0x973 JUMP JUMPDEST PUSH1 0x20 DUP3 ADD SWAP1 POP SWAP2 SWAP1 POP JUMP JUMPDEST PUSH0 PUSH1 0x20 DUP3 ADD SWAP1 POP DUP2 DUP2 SUB PUSH0 DUP4 ADD MSTORE PUSH2 0x9D4 DUP2 PUSH2 0x99B JUMP JUMPDEST SWAP1 POP SWAP2 SWAP1 POP JUMP JUMPDEST PUSH0 DUP2 MLOAD SWAP1 POP SWAP2 SWAP1 POP JUMP JUMPDEST DUP3 DUP2 DUP4 MCOPY PUSH0 DUP4 DUP4 ADD MSTORE POP POP POP JUMP JUMPDEST PUSH0 PUSH2 0x9FD DUP3 PUSH2 0x9DB JUMP JUMPDEST PUSH2 0xA07 DUP2 DUP6 PUSH2 0x871 JUMP JUMPDEST SWAP4 POP PUSH2 0xA17 DUP2 DUP6 PUSH1 0x20 DUP7 ADD PUSH2 0x9E5 JUMP JUMPDEST DUP1 DUP5 ADD SWAP2 POP POP SWAP3 SWAP2 POP POP JUMP JUMPDEST PUSH0 PUSH2 0xA2E DUP3 DUP5 PUSH2 0x9F3 JUMP JUMPDEST SWAP2 POP DUP2 SWAP1 POP SWAP3 SWAP2 POP POP JUMP JUMPDEST PUSH32 0x44656C656761746563616C6C206661696C656400000000000000000000000000 PUSH0 DUP3 ADD MSTORE POP JUMP JUMPDEST PUSH0 PUSH2 0xA6D PUSH1 0x13 DUP4 PUSH2 0x7F9 JUMP JUMPDEST SWAP2 POP PUSH2 0xA78 DUP3 PUSH2 0xA39 JUMP JUMPDEST PUSH1 0x20 DUP3 ADD SWAP1 POP SWAP2 SWAP1 POP JUMP JUMPDEST PUSH0 PUSH1 0x20 DUP3 ADD SWAP1 POP DUP2 DUP2 SUB PUSH0 DUP4 ADD MSTORE PUSH2 0xA9A DUP2 PUSH2 0xA61 JUMP JUMPDEST SWAP1 POP SWAP2 SWAP1 POP JUMP JUMPDEST PUSH32 0x53656E6420455448000000000000000000000000000000000000000000000000 PUSH0 DUP3 ADD MSTORE POP JUMP JUMPDEST PUSH0 PUSH2 0xAD5 PUSH1 0x8 DUP4 PUSH2 0x7F9 JUMP JUMPDEST SWAP2 POP PUSH2 0xAE0 DUP3 PUSH2 0xAA1 JUMP JUMPDEST PUSH1 0x20 DUP3 ADD SWAP1 POP SWAP2 SWAP1 POP JUMP JUMPDEST PUSH0 PUSH1 0x20 DUP3 ADD SWAP1 POP DUP2 DUP2 SUB PUSH0 DUP4 ADD MSTORE PUSH2 0xB02 DUP2 PUSH2 0xAC9 JUMP JUMPDEST SWAP1 POP SWAP2 SWAP1 POP JUMP JUMPDEST PUSH2 0xB12 DUP2 PUSH2 0x73E JUMP JUMPDEST DUP3 MSTORE POP POP JUMP JUMPDEST PUSH0 PUSH1 0x20 DUP3 ADD SWAP1 POP PUSH2 0xB2B PUSH0 DUP4 ADD DUP5 PUSH2 0xB09 JUMP JUMPDEST SWAP3 SWAP2 POP POP JUMP INVALID PUSH1 0x80 PUSH1 0x40 MSTORE PUSH1 0x40 MLOAD DUP1 PUSH1 0x40 ADD PUSH1 0x40 MSTORE DUP1 PUSH1 0xB DUP2 MSTORE PUSH1 0x20 ADD PUSH32 0x4920616D20616C69766521000000000000000000000000000000000000000000 DUP2 MSTORE POP PUSH0 SWAP1 DUP2 PUSH2 0x47 SWAP2 SWAP1 PUSH2 0x296 JUMP JUMPDEST POP CALLVALUE DUP1 ISZERO PUSH2 0x53 JUMPI PUSH0 PUSH0 REVERT JUMPDEST POP PUSH2 0x365 JUMP JUMPDEST PUSH0 DUP2 MLOAD SWAP1 POP SWAP2 SWAP1 POP JUMP JUMPDEST PUSH32 0x4E487B7100000000000000000000000000000000000000000000000000000000 PUSH0 MSTORE PUSH1 0x41 PUSH1 0x4 MSTORE PUSH1 0x24 PUSH0 REVERT JUMPDEST PUSH32 0x4E487B7100000000000000000000000000000000000000000000000000000000 PUSH0 MSTORE PUSH1 0x22 PUSH1 0x4 MSTORE PUSH1 0x24 PUSH0 REVERT JUMPDEST PUSH0 PUSH1 0x2 DUP3 DIV SWAP1 POP PUSH1 0x1 DUP3 AND DUP1 PUSH2 0xD4 JUMPI PUSH1 0x7F DUP3 AND SWAP2 POP JUMPDEST PUSH1 0x20 DUP3 LT DUP2 SUB PUSH2 0xE7 JUMPI PUSH2 0xE6 PUSH2 0x90 JUMP JUMPDEST JUMPDEST POP SWAP2 SWAP1 POP JUMP JUMPDEST PUSH0 DUP2 SWAP1 POP DUP2 PUSH0 MSTORE PUSH1 0x20 PUSH0 KECCAK256 SWAP1 POP SWAP2 SWAP1 POP JUMP JUMPDEST PUSH0 PUSH1 0x20 PUSH1 0x1F DUP4 ADD DIV SWAP1 POP SWAP2 SWAP1 POP JUMP JUMPDEST PUSH0 DUP3 DUP3 SHL SWAP1 POP SWAP3 SWAP2 POP POP JUMP JUMPDEST PUSH0 PUSH1 0x8 DUP4 MUL PUSH2 0x149 PUSH32 0xFFFFFFFFFFFFFFFFFFFFFFFFFFFFFFFFFFFFFFFFFFFFFFFFFFFFFFFFFFFFFFFF DUP3 PUSH2 0x10E JUMP JUMPDEST PUSH2 0x153 DUP7 DUP4 PUSH2 0x10E JUMP JUMPDEST SWAP6 POP DUP1 NOT DUP5 AND SWAP4 POP DUP1 DUP7 AND DUP5 OR SWAP3 POP POP POP SWAP4 SWAP3 POP POP POP JUMP JUMPDEST PUSH0 DUP2 SWAP1 POP SWAP2 SWAP1 POP JUMP JUMPDEST PUSH0 DUP2 SWAP1 POP SWAP2 SWAP1 POP JUMP JUMPDEST PUSH0 PUSH2 0x197 PUSH2 0x192 PUSH2 0x18D DUP5 PUSH2 0x16B JUMP JUMPDEST PUSH2 0x174 JUMP JUMPDEST PUSH2 0x16B JUMP JUMPDEST SWAP1 POP SWAP2 SWAP1 POP JUMP JUMPDEST PUSH0 DUP2 SWAP1 POP SWAP2 SWAP1 POP JUMP JUMPDEST PUSH2 0x1B0 DUP4 PUSH2 0x17D JUMP JUMPDEST PUSH2 0x1C4 PUSH2 0x1BC DUP3 PUSH2 0x19E JUMP JUMPDEST DUP5 DUP5 SLOAD PUSH2 0x11A JUMP JUMPDEST DUP3 SSTORE POP POP POP POP JUMP JUMPDEST PUSH0 PUSH0 SWAP1 POP SWAP1 JUMP JUMPDEST PUSH2 0x1DB PUSH2 0x1CC JUMP JUMPDEST PUSH2 0x1E6 DUP2 DUP5 DUP5 PUSH2 0x1A7 JUMP JUMPDEST POP POP POP JUMP JUMPDEST JUMPDEST DUP2 DUP2 LT ISZERO PUSH2 0x209 JUMPI PUSH2 0x1FE PUSH0 DUP3 PUSH2 0x1D3 JUMP JUMPDEST PUSH1 0x1 DUP2 ADD SWAP1 POP PUSH2 0x1EC JUMP JUMPDEST POP POP JUMP JUMPDEST PUSH1 0x1F DUP3 GT ISZERO PUSH2 0x24E JUMPI PUSH2 0x21F DUP2 PUSH2 0xED JUMP JUMPDEST PUSH2 0x228 DUP5 PUSH2 0xFF JUMP JUMPDEST DUP2 ADD PUSH1 0x20 DUP6 LT ISZERO PUSH2 0x237 JUMPI DUP2 SWAP1 POP JUMPDEST PUSH2 0x24B PUSH2 0x243 DUP6 PUSH2 0xFF JUMP JUMPDEST DUP4 ADD DUP3 PUSH2 0x1EB JUMP JUMPDEST POP POP JUMPDEST POP POP POP JUMP JUMPDEST PUSH0 DUP3 DUP3 SHR SWAP1 POP SWAP3 SWAP2 POP POP JUMP JUMPDEST PUSH0 PUSH2 0x26E PUSH0 NOT DUP5 PUSH1 0x8 MUL PUSH2 0x253 JUMP JUMPDEST NOT DUP1 DUP4 AND SWAP2 POP POP SWAP3 SWAP2 POP POP JUMP JUMPDEST PUSH0 PUSH2 0x286 DUP4 DUP4 PUSH2 0x25F JUMP JUMPDEST SWAP2 POP DUP3 PUSH1 0x2 MUL DUP3 OR SWAP1 POP SWAP3 SWAP2 POP POP JUMP JUMPDEST PUSH2 0x29F DUP3 PUSH2 0x59 JUMP JUMPDEST PUSH8 0xFFFFFFFFFFFFFFFF DUP2 GT ISZERO PUSH2 0x2B8 JUMPI PUSH2 0x2B7 PUSH2 0x63 JUMP JUMPDEST JUMPDEST PUSH2 0x2C2 DUP3 SLOAD PUSH2 0xBD JUMP JUMPDEST PUSH2 0x2CD DUP3 DUP3 DUP6 PUSH2 0x20D JUMP JUMPDEST PUSH0 PUSH1 0x20 SWAP1 POP PUSH1 0x1F DUP4 GT PUSH1 0x1 DUP2 EQ PUSH2 0x2FE JUMPI PUSH0 DUP5 ISZERO PUSH2 0x2EC JUMPI DUP3 DUP8 ADD MLOAD SWAP1 POP JUMPDEST PUSH2 0x2F6 DUP6 DUP3 PUSH2 0x27B JUMP JUMPDEST DUP7 SSTORE POP PUSH2 0x35D JUMP JUMPDEST PUSH1 0x1F NOT DUP5 AND PUSH2 0x30C DUP7 PUSH2 0xED JUMP JUMPDEST PUSH0 JUMPDEST DUP3 DUP2 LT ISZERO PUSH2 0x333 JUMPI DUP5 DUP10 ADD MLOAD DUP3 SSTORE PUSH1 0x1 DUP3 ADD SWAP2 POP PUSH1 0x20 DUP6 ADD SWAP5 POP PUSH1 0x20 DUP2 ADD SWAP1 POP PUSH2 0x30E JUMP JUMPDEST DUP7 DUP4 LT ISZERO PUSH2 0x350 JUMPI DUP5 DUP10 ADD MLOAD PUSH2 0x34C PUSH1 0x1F DUP10 AND DUP3 PUSH2 0x25F JUMP JUMPDEST DUP4 SSTORE POP JUMPDEST PUSH1 0x1 PUSH1 0x2 DUP9 MUL ADD DUP9 SSTORE POP POP POP JUMPDEST POP POP POP POP POP POP JUMP JUMPDEST PUSH2 0x1F9 DUP1 PUSH2 0x372 PUSH0 CODECOPY PUSH0 RETURN INVALID PUSH1 0x80 PUSH1 0x40 MSTORE CALLVALUE DUP1 ISZERO PUSH2 0xF JUMPI PUSH0 PUSH0 REVERT JUMPDEST POP PUSH1 0x4 CALLDATASIZE LT PUSH2 0x29 JUMPI PUSH0 CALLDATALOAD PUSH1 0xE0 SHR DUP1 PUSH4 0xEF690CC0 EQ PUSH2 0x2D JUMPI JUMPDEST PUSH0 PUSH0 REVERT JUMPDEST PUSH2 0x35 PUSH2 0x4B JUMP JUMPDEST PUSH1 0x40 MLOAD PUSH2 0x42 SWAP2 SWAP1 PUSH2 0x146 JUMP JUMPDEST PUSH1 0x40 MLOAD DUP1 SWAP2 SUB SWAP1 RETURN JUMPDEST PUSH0 DUP1 SLOAD PUSH2 0x57 SWAP1 PUSH2 0x193 JUMP JUMPDEST DUP1 PUSH1 0x1F ADD PUSH1 0x20 DUP1 SWAP2 DIV MUL PUSH1 0x20 ADD PUSH1 0x40 MLOAD SWAP1 DUP2 ADD PUSH1 0x40 MSTORE DUP1 SWAP3 SWAP2 SWAP1 DUP2 DUP2 MSTORE PUSH1 0x20 ADD DUP3 DUP1 SLOAD PUSH2 0x83 SWAP1 PUSH2 0x193 JUMP JUMPDEST DUP1 ISZERO PUSH2 0xCE JUMPI DUP1 PUSH1 0x1F LT PUSH2 0xA5 JUMPI PUSH2 0x100 DUP1 DUP4 SLOAD DIV MUL DUP4 MSTORE SWAP2 PUSH1 0x20 ADD SWAP2 PUSH2 0xCE JUMP JUMPDEST DUP3 ADD SWAP2 SWAP1 PUSH0 MSTORE PUSH1 0x20 PUSH0 KECCAK256 SWAP1 JUMPDEST DUP2 SLOAD DUP2 MSTORE SWAP1 PUSH1 0x1 ADD SWAP1 PUSH1 0x20 ADD DUP1 DUP4 GT PUSH2 0xB1 JUMPI DUP3 SWAP1 SUB PUSH1 0x1F AND DUP3 ADD SWAP2 JUMPDEST POP POP POP POP POP DUP2 JUMP JUMPDEST PUSH0 DUP2 MLOAD SWAP1 POP SWAP2 SWAP1 POP JUMP JUMPDEST PUSH0 DUP3 DUP3 MSTORE PUSH1 0x20 DUP3 ADD SWAP1 POP SWAP3 SWAP2 POP POP JUMP JUMPDEST DUP3 DUP2 DUP4 MCOPY PUSH0 DUP4 DUP4 ADD MSTORE POP POP POP JUMP JUMPDEST PUSH0 PUSH1 0x1F NOT PUSH1 0x1F DUP4 ADD AND SWAP1 POP SWAP2 SWAP1 POP JUMP JUMPDEST PUSH0 PUSH2 0x118 DUP3 PUSH2 0xD6 JUMP JUMPDEST PUSH2 0x122 DUP2 DUP6 PUSH2 0xE0 JUMP JUMPDEST SWAP4 POP PUSH2 0x132 DUP2 DUP6 PUSH1 0x20 DUP7 ADD PUSH2 0xF0 JUMP JUMPDEST PUSH2 0x13B DUP2 PUSH2 0xFE JUMP JUMPDEST DUP5 ADD SWAP2 POP POP SWAP3 SWAP2 POP POP JUMP JUMPDEST PUSH0 PUSH1 0x20 DUP3 ADD SWAP1 POP DUP2 DUP2 SUB PUSH0 DUP4 ADD MSTORE PUSH2 0x15E DUP2 DUP5 PUSH2 0x10E JUMP JUMPDEST SWAP1 POP SWAP3 SWAP2 POP POP JUMP JUMPDEST PUSH32 0x4E487B7100000000000000000000000000000000000000000000000000000000 PUSH0 MSTORE PUSH1 0x22 PUSH1 0x4 MSTORE PUSH1 0x24 PUSH0 REVERT JUMPDEST PUSH0 PUSH1 0x2 DUP3 DIV SWAP1 POP PUSH1 0x1 DUP3 AND DUP1 PUSH2 0x1AA JUMPI PUSH1 0x7F DUP3 AND SWAP2 POP JUMPDEST PUSH1 0x20 DUP3 LT DUP2 SUB PUSH2 0x1BD JUMPI PUSH2 0x1BC PUSH2 0x166 JUMP JUMPDEST JUMPDEST POP SWAP2 SWAP1 POP JUMP INVALID LOG2 PUSH5 0x6970667358 0x22 SLT KECCAK256 JUMPDEST PUSH18 0x19EF83921F04CBB6ECE3A6E883B66CD86413 EXTDELEGATECALL NUMBER DATALOADN 0x3F98 0xF 0xC8 0xDD 0x2A PUSH27 0x526864736F6C634300081D00336080604052604051610132380380 PUSH2 0x132 DUP4 CODECOPY DUP2 DUP2 ADD PUSH1 0x40 MSTORE DUP2 ADD SWAP1 PUSH1 0x23 SWAP2 SWAP1 PUSH1 0x7F JUMP JUMPDEST POP PUSH1 0xA5 JUMP JUMPDEST PUSH0 PUSH0 REVERT JUMPDEST PUSH0 PUSH20 0xFFFFFFFFFFFFFFFFFFFFFFFFFFFFFFFFFFFFFFFF DUP3 AND SWAP1 POP SWAP2 SWAP1 POP JUMP JUMPDEST PUSH0 PUSH1 0x53 DUP3 PUSH1 0x2C JUMP JUMPDEST SWAP1 POP SWAP2 SWAP1 POP JUMP JUMPDEST PUSH1 0x61 DUP2 PUSH1 0x4B JUMP JUMPDEST DUP2 EQ PUSH1 0x6A JUMPI PUSH0 PUSH0 REVERT JUMPDEST POP JUMP JUMPDEST PUSH0 DUP2 MLOAD SWAP1 POP PUSH1 0x79 DUP2 PUSH1 0x5A JUMP JUMPDEST SWAP3 SWAP2 POP POP JUMP JUMPDEST PUSH0 PUSH1 0x20 DUP3 DUP5 SUB SLT ISZERO PUSH1 0x91 JUMPI PUSH1 0x90 PUSH1 0x28 JUMP JUMPDEST JUMPDEST PUSH0 PUSH1 0x9C DUP5 DUP3 DUP6 ADD PUSH1 0x6D JUMP JUMPDEST SWAP2 POP POP SWAP3 SWAP2 POP POP JUMP JUMPDEST PUSH1 0x81 DUP1 PUSH2 0xB1 PUSH0 CODECOPY PUSH0 RETURN INVALID PUSH1 0x80 PUSH1 0x40 MSTORE CALLVALUE DUP1 ISZERO PUSH1 0xE JUMPI PUSH0 PUSH0 REVERT JUMPDEST POP PUSH1 0x4 CALLDATASIZE LT PUSH1 0x26 JUMPI PUSH0 CALLDATALOAD PUSH1 0xE0 SHR DUP1 PUSH4 0x45CEFCEC EQ PUSH1 0x2A JUMPI JUMPDEST PUSH0 PUSH0 REVERT JUMPDEST PUSH1 0x30 PUSH1 0x32 JUMP JUMPDEST STOP JUMPDEST CALLER PUSH20 0xFFFFFFFFFFFFFFFFFFFFFFFFFFFFFFFFFFFFFFFF AND SELFDESTRUCT INVALID LOG2 PUSH5 0x6970667358 0x22 SLT KECCAK256 LOG0 0xC0 SAR RETURNDATASIZE BASEFEE PUSH10 0x4CE27CAF44DB4F6090BE SGT LOG4 RETURNDATACOPY REVERT SWAP15 EXTCALL DUP9 0xD8 0xB3 DUP8 EXTCODECOPY PUSH25 0x9921DEC564736F6C634300081D0033A2646970667358221220 CREATE 0xB0 PUSH18 0x43B75DB2C65A0104897C1FCDCF9D5EE1F281 DUP11 0xBE 0xB1 REVERT 0xA7 DUP13 0xB1 0xDC PUSH16 0xE35F64736F6C634300081D0033000000 "
				},
				"gasEstimates": {
					"creation": {
						"codeDepositCost": "922400",
						"executionCost": "960",
						"totalCost": "923360"
					},
					"external": {
						"callOtherContract(address)": "infinite",
						"delegateTo(address)": "infinite",
						"deployAndSelfDestruct(address)": "infinite",
						"deployNewContract()": "infinite",
						"sendETH(address)": "infinite",
						"triggerInternalTransaction(address)": "infinite"
					}
				},
				"methodIdentifiers": {
					"callOtherContract(address)": "8c309043",
					"delegateTo(address)": "ac637c7a",
					"deployAndSelfDestruct(address)": "aedd84d4",
					"deployNewContract()": "96e9df8d",
					"sendETH(address)": "21b1e5f8",
					"triggerInternalTransaction(address)": "51fcd0d7"
				}
			},
			"storageLayout": {
				"storage": [],
				"types": null
			},
			"userdoc": {
				"kind": "user",
				"methods": {},
				"version": 1
			}
		}
	}
}