{
	"E/Master Contract to Handle All Types.sol": {
		"DelegateTarget": {
			"abi": [
				{
					"inputs": [],
					"name": "logDelegateCall",
					"outputs": [],
					"stateMutability": "nonpayable",
					"type": "function"
				},
				{
					"inputs": [],
					"name": "message",
					"outputs": [
						{
							"internalType": "string",
							"name": "",
							"type": "string"
						}
					],
					"stateMutability": "view",
					"type": "function"
				},
				{
					"inputs": [],
					"name": "sender",
					"outputs": [
						{
							"internalType": "address",
							"name": "",
							"type": "address"
						}
					],
					"stateMutability": "view",
					"type": "function"
				}
			],
			"devdoc": {
				"kind": "dev",
				"methods": {},
				"version": 1
			},
			"evm": {
				"assembly": "    /* \"E/Master Contract to Handle All Types.sol\":2867:3067  contract DelegateTarget {... */\n  mstore(0x40, 0x80)\n  callvalue\n  dup1\n  iszero\n  tag_1\n  jumpi\n  revert(0x00, 0x00)\ntag_1:\n  pop\n  dataSize(sub_0)\n  dup1\n  dataOffset(sub_0)\n  0x00\n  codecopy\n  0x00\n  return\nstop\n\nsub_0: assembly {\n        /* \"E/Master Contract to Handle All Types.sol\":2867:3067  contract DelegateTarget {... */\n      mstore(0x40, 0x80)\n      callvalue\n      dup1\n      iszero\n      tag_1\n      jumpi\n      revert(0x00, 0x00)\n    tag_1:\n      pop\n      jumpi(tag_2, lt(calldatasize, 0x04))\n      shr(0xe0, calldataload(0x00))\n      dup1\n      0x67e404ce\n      eq\n      tag_3\n      jumpi\n      dup1\n      0xe21f37ce\n      eq\n      tag_4\n      jumpi\n      dup1\n      0xf7b0d568\n      eq\n      tag_5\n      jumpi\n    tag_2:\n      revert(0x00, 0x00)\n        /* \"E/Master Contract to Handle All Types.sol\":2897:2918  address public sender */\n    tag_3:\n      tag_6\n      tag_7\n      jump\t// in\n    tag_6:\n      mload(0x40)\n      tag_8\n      swap2\n      swap1\n      tag_9\n      jump\t// in\n    tag_8:\n      mload(0x40)\n      dup1\n      swap2\n      sub\n      swap1\n      return\n        /* \"E/Master Contract to Handle All Types.sol\":2924:2945  string public message */\n    tag_4:\n      tag_10\n      tag_11\n      jump\t// in\n    tag_10:\n      mload(0x40)\n      tag_12\n      swap2\n      swap1\n      tag_13\n      jump\t// in\n    tag_12:\n      mload(0x40)\n      dup1\n      swap2\n      sub\n      swap1\n      return\n        /* \"E/Master Contract to Handle All Types.sol\":2952:3065  function logDelegateCall() external {... */\n    tag_5:\n      tag_14\n      tag_15\n      jump\t// in\n    tag_14:\n      stop\n        /* \"E/Master Contract to Handle All Types.sol\":2897:2918  address public sender */\n    tag_7:\n      0x00\n      0x00\n      swap1\n      sload\n      swap1\n      0x0100\n      exp\n      swap1\n      div\n      0xffffffffffffffffffffffffffffffffffffffff\n      and\n      dup2\n      jump\t// out\n        /* \"E/Master Contract to Handle All Types.sol\":2924:2945  string public message */\n    tag_11:\n      0x01\n      dup1\n      sload\n      tag_16\n      swap1\n      tag_17\n      jump\t// in\n    tag_16:\n      dup1\n      0x1f\n      add\n      0x20\n      dup1\n      swap2\n      div\n      mul\n      0x20\n      add\n      mload(0x40)\n      swap1\n      dup2\n      add\n      0x40\n      mstore\n      dup1\n      swap3\n      swap2\n      swap1\n      dup2\n      dup2\n      mstore\n      0x20\n      add\n      dup3\n      dup1\n      sload\n      tag_18\n      swap1\n      tag_17\n      jump\t// in\n    tag_18:\n      dup1\n      iszero\n      tag_19\n      jumpi\n      dup1\n      0x1f\n      lt\n      tag_20\n      jumpi\n      0x0100\n      dup1\n      dup4\n      sload\n      div\n      mul\n      dup4\n      mstore\n      swap2\n      0x20\n      add\n      swap2\n      jump(tag_19)\n    tag_20:\n      dup3\n      add\n      swap2\n      swap1\n      0x00\n      mstore\n      keccak256(0x00, 0x20)\n      swap1\n    tag_21:\n      dup2\n      sload\n      dup2\n      mstore\n      swap1\n      0x01\n      add\n      swap1\n      0x20\n      add\n      dup1\n      dup4\n      gt\n      tag_21\n      jumpi\n      dup3\n      swap1\n      sub\n      0x1f\n      and\n      dup3\n      add\n      swap2\n    tag_19:\n      pop\n      pop\n      pop\n      pop\n      pop\n      dup2\n      jump\t// out\n        /* \"E/Master Contract to Handle All Types.sol\":2952:3065  function logDelegateCall() external {... */\n    tag_15:\n        /* \"E/Master Contract to Handle All Types.sol\":3007:3017  msg.sender */\n      caller\n        /* \"E/Master Contract to Handle All Types.sol\":2998:3004  sender */\n      0x00\n      0x00\n        /* \"E/Master Contract to Handle All Types.sol\":2998:3017  sender = msg.sender */\n      0x0100\n      exp\n      dup2\n      sload\n      dup2\n      0xffffffffffffffffffffffffffffffffffffffff\n      mul\n      not\n      and\n      swap1\n      dup4\n      0xffffffffffffffffffffffffffffffffffffffff\n      and\n      mul\n      or\n      swap1\n      sstore\n      pop\n        /* \"E/Master Contract to Handle All Types.sol\":3027:3058  message = \"Delegatecall worked\" */\n      mload(0x40)\n      dup1\n      0x40\n      add\n      0x40\n      mstore\n      dup1\n      0x13\n      dup2\n      mstore\n      0x20\n      add\n      0x44656c656761746563616c6c20776f726b656400000000000000000000000000\n      dup2\n      mstore\n      pop\n        /* \"E/Master Contract to Handle All Types.sol\":3027:3034  message */\n      0x01\n        /* \"E/Master Contract to Handle All Types.sol\":3027:3058  message = \"Delegatecall worked\" */\n      swap1\n      dup2\n      tag_23\n      swap2\n      swap1\n      tag_24\n      jump\t// in\n    tag_23:\n      pop\n        /* \"E/Master Contract to Handle All Types.sol\":2952:3065  function logDelegateCall() external {... */\n      jump\t// out\n        /* \"#utility.yul\":7:133   */\n    tag_25:\n        /* \"#utility.yul\":44:51   */\n      0x00\n        /* \"#utility.yul\":84:126   */\n      0xffffffffffffffffffffffffffffffffffffffff\n        /* \"#utility.yul\":77:82   */\n      dup3\n        /* \"#utility.yul\":73:127   */\n      and\n        /* \"#utility.yul\":62:127   */\n      swap1\n      pop\n        /* \"#utility.yul\":7:133   */\n      swap2\n      swap1\n      pop\n      jump\t// out\n        /* \"#utility.yul\":139:235   */\n    tag_26:\n        /* \"#utility.yul\":176:183   */\n      0x00\n        /* \"#utility.yul\":205:229   */\n      tag_54\n        /* \"#utility.yul\":223:228   */\n      dup3\n        /* \"#utility.yul\":205:229   */\n      tag_25\n      jump\t// in\n    tag_54:\n        /* \"#utility.yul\":194:229   */\n      swap1\n      pop\n        /* \"#utility.yul\":139:235   */\n      swap2\n      swap1\n      pop\n      jump\t// out\n        /* \"#utility.yul\":241:359   */\n    tag_27:\n        /* \"#utility.yul\":328:352   */\n      tag_56\n        /* \"#utility.yul\":346:351   */\n      dup2\n        /* \"#utility.yul\":328:352   */\n      tag_26\n      jump\t// in\n    tag_56:\n        /* \"#utility.yul\":323:326   */\n      dup3\n        /* \"#utility.yul\":316:353   */\n      mstore\n        /* \"#utility.yul\":241:359   */\n      pop\n      pop\n      jump\t// out\n        /* \"#utility.yul\":365:587   */\n    tag_9:\n        /* \"#utility.yul\":458:462   */\n      0x00\n        /* \"#utility.yul\":496:498   */\n      0x20\n        /* \"#utility.yul\":485:494   */\n      dup3\n        /* \"#utility.yul\":481:499   */\n      add\n        /* \"#utility.yul\":473:499   */\n      swap1\n      pop\n        /* \"#utility.yul\":509:580   */\n      tag_58\n        /* \"#utility.yul\":577:578   */\n      0x00\n        /* \"#utility.yul\":566:575   */\n      dup4\n        /* \"#utility.yul\":562:579   */\n      add\n        /* \"#utility.yul\":553:559   */\n      dup5\n        /* \"#utility.yul\":509:580   */\n      tag_27\n      jump\t// in\n    tag_58:\n        /* \"#utility.yul\":365:587   */\n      swap3\n      swap2\n      pop\n      pop\n      jump\t// out\n        /* \"#utility.yul\":593:692   */\n    tag_28:\n        /* \"#utility.yul\":645:651   */\n      0x00\n        /* \"#utility.yul\":679:684   */\n      dup2\n        /* \"#utility.yul\":673:685   */\n      mload\n        /* \"#utility.yul\":663:685   */\n      swap1\n      pop\n        /* \"#utility.yul\":593:692   */\n      swap2\n      swap1\n      pop\n      jump\t// out\n        /* \"#utility.yul\":698:867   */\n    tag_29:\n        /* \"#utility.yul\":782:793   */\n      0x00\n        /* \"#utility.yul\":816:822   */\n      dup3\n        /* \"#utility.yul\":811:814   */\n      dup3\n        /* \"#utility.yul\":804:823   */\n      mstore\n        /* \"#utility.yul\":856:860   */\n      0x20\n        /* \"#utility.yul\":851:854   */\n      dup3\n        /* \"#utility.yul\":847:861   */\n      add\n        /* \"#utility.yul\":832:861   */\n      swap1\n      pop\n        /* \"#utility.yul\":698:867   */\n      swap3\n      swap2\n      pop\n      pop\n      jump\t// out\n        /* \"#utility.yul\":873:1012   */\n    tag_30:\n        /* \"#utility.yul\":962:968   */\n      dup3\n        /* \"#utility.yul\":957:960   */\n      dup2\n        /* \"#utility.yul\":952:955   */\n      dup4\n        /* \"#utility.yul\":946:969   */\n      mcopy\n        /* \"#utility.yul\":1003:1004   */\n      0x00\n        /* \"#utility.yul\":994:1000   */\n      dup4\n        /* \"#utility.yul\":989:992   */\n      dup4\n        /* \"#utility.yul\":985:1001   */\n      add\n        /* \"#utility.yul\":978:1005   */\n      mstore\n        /* \"#utility.yul\":873:1012   */\n      pop\n      pop\n      pop\n      jump\t// out\n        /* \"#utility.yul\":1018:1120   */\n    tag_31:\n        /* \"#utility.yul\":1059:1065   */\n      0x00\n        /* \"#utility.yul\":1110:1112   */\n      0x1f\n        /* \"#utility.yul\":1106:1113   */\n      not\n        /* \"#utility.yul\":1101:1103   */\n      0x1f\n        /* \"#utility.yul\":1094:1099   */\n      dup4\n        /* \"#utility.yul\":1090:1104   */\n      add\n        /* \"#utility.yul\":1086:1114   */\n      and\n        /* \"#utility.yul\":1076:1114   */\n      swap1\n      pop\n        /* \"#utility.yul\":1018:1120   */\n      swap2\n      swap1\n      pop\n      jump\t// out\n        /* \"#utility.yul\":1126:1503   */\n    tag_32:\n        /* \"#utility.yul\":1214:1217   */\n      0x00\n        /* \"#utility.yul\":1242:1281   */\n      tag_64\n        /* \"#utility.yul\":1275:1280   */\n      dup3\n        /* \"#utility.yul\":1242:1281   */\n      tag_28\n      jump\t// in\n    tag_64:\n        /* \"#utility.yul\":1297:1368   */\n      tag_65\n        /* \"#utility.yul\":1361:1367   */\n      dup2\n        /* \"#utility.yul\":1356:1359   */\n      dup6\n        /* \"#utility.yul\":1297:1368   */\n      tag_29\n      jump\t// in\n    tag_65:\n        /* \"#utility.yul\":1290:1368   */\n      swap4\n      pop\n        /* \"#utility.yul\":1377:1442   */\n      tag_66\n        /* \"#utility.yul\":1435:1441   */\n      dup2\n        /* \"#utility.yul\":1430:1433   */\n      dup6\n        /* \"#utility.yul\":1423:1427   */\n      0x20\n        /* \"#utility.yul\":1416:1421   */\n      dup7\n        /* \"#utility.yul\":1412:1428   */\n      add\n        /* \"#utility.yul\":1377:1442   */\n      tag_30\n      jump\t// in\n    tag_66:\n        /* \"#utility.yul\":1467:1496   */\n      tag_67\n        /* \"#utility.yul\":1489:1495   */\n      dup2\n        /* \"#utility.yul\":1467:1496   */\n      tag_31\n      jump\t// in\n    tag_67:\n        /* \"#utility.yul\":1462:1465   */\n      dup5\n        /* \"#utility.yul\":1458:1497   */\n      add\n        /* \"#utility.yul\":1451:1497   */\n      swap2\n      pop\n        /* \"#utility.yul\":1218:1503   */\n      pop\n        /* \"#utility.yul\":1126:1503   */\n      swap3\n      swap2\n      pop\n      pop\n      jump\t// out\n        /* \"#utility.yul\":1509:1822   */\n    tag_13:\n        /* \"#utility.yul\":1622:1626   */\n      0x00\n        /* \"#utility.yul\":1660:1662   */\n      0x20\n        /* \"#utility.yul\":1649:1658   */\n      dup3\n        /* \"#utility.yul\":1645:1663   */\n      add\n        /* \"#utility.yul\":1637:1663   */\n      swap1\n      pop\n        /* \"#utility.yul\":1709:1718   */\n      dup2\n        /* \"#utility.yul\":1703:1707   */\n      dup2\n        /* \"#utility.yul\":1699:1719   */\n      sub\n        /* \"#utility.yul\":1695:1696   */\n      0x00\n        /* \"#utility.yul\":1684:1693   */\n      dup4\n        /* \"#utility.yul\":1680:1697   */\n      add\n        /* \"#utility.yul\":1673:1720   */\n      mstore\n        /* \"#utility.yul\":1737:1815   */\n      tag_69\n        /* \"#utility.yul\":1810:1814   */\n      dup2\n        /* \"#utility.yul\":1801:1807   */\n      dup5\n        /* \"#utility.yul\":1737:1815   */\n      tag_32\n      jump\t// in\n    tag_69:\n        /* \"#utility.yul\":1729:1815   */\n      swap1\n      pop\n        /* \"#utility.yul\":1509:1822   */\n      swap3\n      swap2\n      pop\n      pop\n      jump\t// out\n        /* \"#utility.yul\":1828:2008   */\n    tag_33:\n        /* \"#utility.yul\":1876:1953   */\n      0x4e487b7100000000000000000000000000000000000000000000000000000000\n        /* \"#utility.yul\":1873:1874   */\n      0x00\n        /* \"#utility.yul\":1866:1954   */\n      mstore\n        /* \"#utility.yul\":1973:1977   */\n      0x22\n        /* \"#utility.yul\":1970:1971   */\n      0x04\n        /* \"#utility.yul\":1963:1978   */\n      mstore\n        /* \"#utility.yul\":1997:2001   */\n      0x24\n        /* \"#utility.yul\":1994:1995   */\n      0x00\n        /* \"#utility.yul\":1987:2002   */\n      revert\n        /* \"#utility.yul\":2014:2334   */\n    tag_17:\n        /* \"#utility.yul\":2058:2064   */\n      0x00\n        /* \"#utility.yul\":2095:2096   */\n      0x02\n        /* \"#utility.yul\":2089:2093   */\n      dup3\n        /* \"#utility.yul\":2085:2097   */\n      div\n        /* \"#utility.yul\":2075:2097   */\n      swap1\n      pop\n        /* \"#utility.yul\":2142:2143   */\n      0x01\n        /* \"#utility.yul\":2136:2140   */\n      dup3\n        /* \"#utility.yul\":2132:2144   */\n      and\n        /* \"#utility.yul\":2163:2181   */\n      dup1\n        /* \"#utility.yul\":2153:2234   */\n      tag_72\n      jumpi\n        /* \"#utility.yul\":2219:2223   */\n      0x7f\n        /* \"#utility.yul\":2211:2217   */\n      dup3\n        /* \"#utility.yul\":2207:2224   */\n      and\n        /* \"#utility.yul\":2197:2224   */\n      swap2\n      pop\n        /* \"#utility.yul\":2153:2234   */\n    tag_72:\n        /* \"#utility.yul\":2281:2283   */\n      0x20\n        /* \"#utility.yul\":2273:2279   */\n      dup3\n        /* \"#utility.yul\":2270:2284   */\n      lt\n        /* \"#utility.yul\":2250:2268   */\n      dup2\n        /* \"#utility.yul\":2247:2285   */\n      sub\n        /* \"#utility.yul\":2244:2328   */\n      tag_73\n      jumpi\n        /* \"#utility.yul\":2300:2318   */\n      tag_74\n      tag_33\n      jump\t// in\n    tag_74:\n        /* \"#utility.yul\":2244:2328   */\n    tag_73:\n        /* \"#utility.yul\":2065:2334   */\n      pop\n        /* \"#utility.yul\":2014:2334   */\n      swap2\n      swap1\n      pop\n      jump\t// out\n        /* \"#utility.yul\":2340:2520   */\n    tag_34:\n        /* \"#utility.yul\":2388:2465   */\n      0x4e487b7100000000000000000000000000000000000000000000000000000000\n        /* \"#utility.yul\":2385:2386   */\n      0x00\n        /* \"#utility.yul\":2378:2466   */\n      mstore\n        /* \"#utility.yul\":2485:2489   */\n      0x41\n        /* \"#utility.yul\":2482:2483   */\n      0x04\n        /* \"#utility.yul\":2475:2490   */\n      mstore\n        /* \"#utility.yul\":2509:2513   */\n      0x24\n        /* \"#utility.yul\":2506:2507   */\n      0x00\n        /* \"#utility.yul\":2499:2514   */\n      revert\n        /* \"#utility.yul\":2526:2667   */\n    tag_35:\n        /* \"#utility.yul\":2575:2579   */\n      0x00\n        /* \"#utility.yul\":2598:2601   */\n      dup2\n        /* \"#utility.yul\":2590:2601   */\n      swap1\n      pop\n        /* \"#utility.yul\":2621:2624   */\n      dup2\n        /* \"#utility.yul\":2618:2619   */\n      0x00\n        /* \"#utility.yul\":2611:2625   */\n      mstore\n        /* \"#utility.yul\":2655:2659   */\n      0x20\n        /* \"#utility.yul\":2652:2653   */\n      0x00\n        /* \"#utility.yul\":2642:2660   */\n      keccak256\n        /* \"#utility.yul\":2634:2660   */\n      swap1\n      pop\n        /* \"#utility.yul\":2526:2667   */\n      swap2\n      swap1\n      pop\n      jump\t// out\n        /* \"#utility.yul\":2673:2766   */\n    tag_36:\n        /* \"#utility.yul\":2710:2716   */\n      0x00\n        /* \"#utility.yul\":2757:2759   */\n      0x20\n        /* \"#utility.yul\":2752:2754   */\n      0x1f\n        /* \"#utility.yul\":2745:2750   */\n      dup4\n        /* \"#utility.yul\":2741:2755   */\n      add\n        /* \"#utility.yul\":2737:2760   */\n      div\n        /* \"#utility.yul\":2727:2760   */\n      swap1\n      pop\n        /* \"#utility.yul\":2673:2766   */\n      swap2\n      swap1\n      pop\n      jump\t// out\n        /* \"#utility.yul\":2772:2879   */\n    tag_37:\n        /* \"#utility.yul\":2816:2824   */\n      0x00\n        /* \"#utility.yul\":2866:2871   */\n      dup3\n        /* \"#utility.yul\":2860:2864   */\n      dup3\n        /* \"#utility.yul\":2856:2872   */\n      shl\n        /* \"#utility.yul\":2835:2872   */\n      swap1\n      pop\n        /* \"#utility.yul\":2772:2879   */\n      swap3\n      swap2\n      pop\n      pop\n      jump\t// out\n        /* \"#utility.yul\":2885:3278   */\n    tag_38:\n        /* \"#utility.yul\":2954:2960   */\n      0x00\n        /* \"#utility.yul\":3004:3005   */\n      0x08\n        /* \"#utility.yul\":2992:3002   */\n      dup4\n        /* \"#utility.yul\":2988:3006   */\n      mul\n        /* \"#utility.yul\":3027:3124   */\n      tag_80\n        /* \"#utility.yul\":3057:3123   */\n      0xffffffffffffffffffffffffffffffffffffffffffffffffffffffffffffffff\n        /* \"#utility.yul\":3046:3055   */\n      dup3\n        /* \"#utility.yul\":3027:3124   */\n      tag_37\n      jump\t// in\n    tag_80:\n        /* \"#utility.yul\":3145:3184   */\n      tag_81\n        /* \"#utility.yul\":3175:3183   */\n      dup7\n        /* \"#utility.yul\":3164:3173   */\n      dup4\n        /* \"#utility.yul\":3145:3184   */\n      tag_37\n      jump\t// in\n    tag_81:\n        /* \"#utility.yul\":3133:3184   */\n      swap6\n      pop\n        /* \"#utility.yul\":3217:3221   */\n      dup1\n        /* \"#utility.yul\":3213:3222   */\n      not\n        /* \"#utility.yul\":3206:3211   */\n      dup5\n        /* \"#utility.yul\":3202:3223   */\n      and\n        /* \"#utility.yul\":3193:3223   */\n      swap4\n      pop\n        /* \"#utility.yul\":3266:3270   */\n      dup1\n        /* \"#utility.yul\":3256:3264   */\n      dup7\n        /* \"#utility.yul\":3252:3271   */\n      and\n        /* \"#utility.yul\":3245:3250   */\n      dup5\n        /* \"#utility.yul\":3242:3272   */\n      or\n        /* \"#utility.yul\":3232:3272   */\n      swap3\n      pop\n        /* \"#utility.yul\":2961:3278   */\n      pop\n      pop\n        /* \"#utility.yul\":2885:3278   */\n      swap4\n      swap3\n      pop\n      pop\n      pop\n      jump\t// out\n        /* \"#utility.yul\":3284:3361   */\n    tag_39:\n        /* \"#utility.yul\":3321:3328   */\n      0x00\n        /* \"#utility.yul\":3350:3355   */\n      dup2\n        /* \"#utility.yul\":3339:3355   */\n      swap1\n      pop\n        /* \"#utility.yul\":3284:3361   */\n      swap2\n      swap1\n      pop\n      jump\t// out\n        /* \"#utility.yul\":3367:3427   */\n    tag_40:\n        /* \"#utility.yul\":3395:3398   */\n      0x00\n        /* \"#utility.yul\":3416:3421   */\n      dup2\n        /* \"#utility.yul\":3409:3421   */\n      swap1\n      pop\n        /* \"#utility.yul\":3367:3427   */\n      swap2\n      swap1\n      pop\n      jump\t// out\n        /* \"#utility.yul\":3433:3575   */\n    tag_41:\n        /* \"#utility.yul\":3483:3492   */\n      0x00\n        /* \"#utility.yul\":3516:3569   */\n      tag_85\n        /* \"#utility.yul\":3534:3568   */\n      tag_86\n        /* \"#utility.yul\":3543:3567   */\n      tag_87\n        /* \"#utility.yul\":3561:3566   */\n      dup5\n        /* \"#utility.yul\":3543:3567   */\n      tag_39\n      jump\t// in\n    tag_87:\n        /* \"#utility.yul\":3534:3568   */\n      tag_40\n      jump\t// in\n    tag_86:\n        /* \"#utility.yul\":3516:3569   */\n      tag_39\n      jump\t// in\n    tag_85:\n        /* \"#utility.yul\":3503:3569   */\n      swap1\n      pop\n        /* \"#utility.yul\":3433:3575   */\n      swap2\n      swap1\n      pop\n      jump\t// out\n        /* \"#utility.yul\":3581:3656   */\n    tag_42:\n        /* \"#utility.yul\":3624:3627   */\n      0x00\n        /* \"#utility.yul\":3645:3650   */\n      dup2\n        /* \"#utility.yul\":3638:3650   */\n      swap1\n      pop\n        /* \"#utility.yul\":3581:3656   */\n      swap2\n      swap1\n      pop\n      jump\t// out\n        /* \"#utility.yul\":3662:3931   */\n    tag_43:\n        /* \"#utility.yul\":3772:3811   */\n      tag_90\n        /* \"#utility.yul\":3803:3810   */\n      dup4\n        /* \"#utility.yul\":3772:3811   */\n      tag_41\n      jump\t// in\n    tag_90:\n        /* \"#utility.yul\":3833:3924   */\n      tag_91\n        /* \"#utility.yul\":3882:3923   */\n      tag_92\n        /* \"#utility.yul\":3906:3922   */\n      dup3\n        /* \"#utility.yul\":3882:3923   */\n      tag_42\n      jump\t// in\n    tag_92:\n        /* \"#utility.yul\":3874:3880   */\n      dup5\n        /* \"#utility.yul\":3867:3871   */\n      dup5\n        /* \"#utility.yul\":3861:3872   */\n      sload\n        /* \"#utility.yul\":3833:3924   */\n      tag_38\n      jump\t// in\n    tag_91:\n        /* \"#utility.yul\":3827:3831   */\n      dup3\n        /* \"#utility.yul\":3820:3925   */\n      sstore\n        /* \"#utility.yul\":3738:3931   */\n      pop\n        /* \"#utility.yul\":3662:3931   */\n      pop\n      pop\n      pop\n      jump\t// out\n        /* \"#utility.yul\":3937:4010   */\n    tag_44:\n        /* \"#utility.yul\":3982:3985   */\n      0x00\n        /* \"#utility.yul\":4003:4004   */\n      0x00\n        /* \"#utility.yul\":3996:4004   */\n      swap1\n      pop\n        /* \"#utility.yul\":3937:4010   */\n      swap1\n      jump\t// out\n        /* \"#utility.yul\":4016:4205   */\n    tag_45:\n        /* \"#utility.yul\":4093:4125   */\n      tag_95\n      tag_44\n      jump\t// in\n    tag_95:\n        /* \"#utility.yul\":4134:4199   */\n      tag_96\n        /* \"#utility.yul\":4192:4198   */\n      dup2\n        /* \"#utility.yul\":4184:4190   */\n      dup5\n        /* \"#utility.yul\":4178:4182   */\n      dup5\n        /* \"#utility.yul\":4134:4199   */\n      tag_43\n      jump\t// in\n    tag_96:\n        /* \"#utility.yul\":4069:4205   */\n      pop\n        /* \"#utility.yul\":4016:4205   */\n      pop\n      pop\n      jump\t// out\n        /* \"#utility.yul\":4211:4397   */\n    tag_46:\n        /* \"#utility.yul\":4271:4391   */\n    tag_98:\n        /* \"#utility.yul\":4288:4291   */\n      dup2\n        /* \"#utility.yul\":4281:4286   */\n      dup2\n        /* \"#utility.yul\":4278:4292   */\n      lt\n        /* \"#utility.yul\":4271:4391   */\n      iszero\n      tag_100\n      jumpi\n        /* \"#utility.yul\":4342:4381   */\n      tag_101\n        /* \"#utility.yul\":4379:4380   */\n      0x00\n        /* \"#utility.yul\":4372:4377   */\n      dup3\n        /* \"#utility.yul\":4342:4381   */\n      tag_45\n      jump\t// in\n    tag_101:\n        /* \"#utility.yul\":4315:4316   */\n      0x01\n        /* \"#utility.yul\":4308:4313   */\n      dup2\n        /* \"#utility.yul\":4304:4317   */\n      add\n        /* \"#utility.yul\":4295:4317   */\n      swap1\n      pop\n        /* \"#utility.yul\":4271:4391   */\n      jump(tag_98)\n    tag_100:\n        /* \"#utility.yul\":4211:4397   */\n      pop\n      pop\n      jump\t// out\n        /* \"#utility.yul\":4403:4946   */\n    tag_47:\n        /* \"#utility.yul\":4504:4506   */\n      0x1f\n        /* \"#utility.yul\":4499:4502   */\n      dup3\n        /* \"#utility.yul\":4496:4507   */\n      gt\n        /* \"#utility.yul\":4493:4939   */\n      iszero\n      tag_103\n      jumpi\n        /* \"#utility.yul\":4538:4576   */\n      tag_104\n        /* \"#utility.yul\":4570:4575   */\n      dup2\n        /* \"#utility.yul\":4538:4576   */\n      tag_35\n      jump\t// in\n    tag_104:\n        /* \"#utility.yul\":4622:4651   */\n      tag_105\n        /* \"#utility.yul\":4640:4650   */\n      dup5\n        /* \"#utility.yul\":4622:4651   */\n      tag_36\n      jump\t// in\n    tag_105:\n        /* \"#utility.yul\":4612:4620   */\n      dup2\n        /* \"#utility.yul\":4608:4652   */\n      add\n        /* \"#utility.yul\":4805:4807   */\n      0x20\n        /* \"#utility.yul\":4793:4803   */\n      dup6\n        /* \"#utility.yul\":4790:4808   */\n      lt\n        /* \"#utility.yul\":4787:4836   */\n      iszero\n      tag_106\n      jumpi\n        /* \"#utility.yul\":4826:4834   */\n      dup2\n        /* \"#utility.yul\":4811:4834   */\n      swap1\n      pop\n        /* \"#utility.yul\":4787:4836   */\n    tag_106:\n        /* \"#utility.yul\":4849:4929   */\n      tag_107\n        /* \"#utility.yul\":4905:4927   */\n      tag_108\n        /* \"#utility.yul\":4923:4926   */\n      dup6\n        /* \"#utility.yul\":4905:4927   */\n      tag_36\n      jump\t// in\n    tag_108:\n        /* \"#utility.yul\":4895:4903   */\n      dup4\n        /* \"#utility.yul\":4891:4928   */\n      add\n        /* \"#utility.yul\":4878:4889   */\n      dup3\n        /* \"#utility.yul\":4849:4929   */\n      tag_46\n      jump\t// in\n    tag_107:\n        /* \"#utility.yul\":4508:4939   */\n      pop\n      pop\n        /* \"#utility.yul\":4493:4939   */\n    tag_103:\n        /* \"#utility.yul\":4403:4946   */\n      pop\n      pop\n      pop\n      jump\t// out\n        /* \"#utility.yul\":4952:5069   */\n    tag_48:\n        /* \"#utility.yul\":5006:5014   */\n      0x00\n        /* \"#utility.yul\":5056:5061   */\n      dup3\n        /* \"#utility.yul\":5050:5054   */\n      dup3\n        /* \"#utility.yul\":5046:5062   */\n      shr\n        /* \"#utility.yul\":5025:5062   */\n      swap1\n      pop\n        /* \"#utility.yul\":4952:5069   */\n      swap3\n      swap2\n      pop\n      pop\n      jump\t// out\n        /* \"#utility.yul\":5075:5244   */\n    tag_49:\n        /* \"#utility.yul\":5119:5125   */\n      0x00\n        /* \"#utility.yul\":5152:5203   */\n      tag_111\n        /* \"#utility.yul\":5200:5201   */\n      0x00\n        /* \"#utility.yul\":5196:5202   */\n      not\n        /* \"#utility.yul\":5188:5193   */\n      dup5\n        /* \"#utility.yul\":5185:5186   */\n      0x08\n        /* \"#utility.yul\":5181:5194   */\n      mul\n        /* \"#utility.yul\":5152:5203   */\n      tag_48\n      jump\t// in\n    tag_111:\n        /* \"#utility.yul\":5148:5204   */\n      not\n        /* \"#utility.yul\":5233:5237   */\n      dup1\n        /* \"#utility.yul\":5227:5231   */\n      dup4\n        /* \"#utility.yul\":5223:5238   */\n      and\n        /* \"#utility.yul\":5213:5238   */\n      swap2\n      pop\n        /* \"#utility.yul\":5126:5244   */\n      pop\n        /* \"#utility.yul\":5075:5244   */\n      swap3\n      swap2\n      pop\n      pop\n      jump\t// out\n        /* \"#utility.yul\":5249:5544   */\n    tag_50:\n        /* \"#utility.yul\":5325:5329   */\n      0x00\n        /* \"#utility.yul\":5471:5500   */\n      tag_113\n        /* \"#utility.yul\":5496:5499   */\n      dup4\n        /* \"#utility.yul\":5490:5494   */\n      dup4\n        /* \"#utility.yul\":5471:5500   */\n      tag_49\n      jump\t// in\n    tag_113:\n        /* \"#utility.yul\":5463:5500   */\n      swap2\n      pop\n        /* \"#utility.yul\":5533:5536   */\n      dup3\n        /* \"#utility.yul\":5530:5531   */\n      0x02\n        /* \"#utility.yul\":5526:5537   */\n      mul\n        /* \"#utility.yul\":5520:5524   */\n      dup3\n        /* \"#utility.yul\":5517:5538   */\n      or\n        /* \"#utility.yul\":5509:5538   */\n      swap1\n      pop\n        /* \"#utility.yul\":5249:5544   */\n      swap3\n      swap2\n      pop\n      pop\n      jump\t// out\n        /* \"#utility.yul\":5549:6944   */\n    tag_24:\n        /* \"#utility.yul\":5666:5703   */\n      tag_115\n        /* \"#utility.yul\":5699:5702   */\n      dup3\n        /* \"#utility.yul\":5666:5703   */\n      tag_28\n      jump\t// in\n    tag_115:\n        /* \"#utility.yul\":5768:5786   */\n      0xffffffffffffffff\n        /* \"#utility.yul\":5760:5766   */\n      dup2\n        /* \"#utility.yul\":5757:5787   */\n      gt\n        /* \"#utility.yul\":5754:5810   */\n      iszero\n      tag_116\n      jumpi\n        /* \"#utility.yul\":5790:5808   */\n      tag_117\n      tag_34\n      jump\t// in\n    tag_117:\n        /* \"#utility.yul\":5754:5810   */\n    tag_116:\n        /* \"#utility.yul\":5834:5872   */\n      tag_118\n        /* \"#utility.yul\":5866:5870   */\n      dup3\n        /* \"#utility.yul\":5860:5871   */\n      sload\n        /* \"#utility.yul\":5834:5872   */\n      tag_17\n      jump\t// in\n    tag_118:\n        /* \"#utility.yul\":5919:5986   */\n      tag_119\n        /* \"#utility.yul\":5979:5985   */\n      dup3\n        /* \"#utility.yul\":5971:5977   */\n      dup3\n        /* \"#utility.yul\":5965:5969   */\n      dup6\n        /* \"#utility.yul\":5919:5986   */\n      tag_47\n      jump\t// in\n    tag_119:\n        /* \"#utility.yul\":6013:6014   */\n      0x00\n        /* \"#utility.yul\":6037:6041   */\n      0x20\n        /* \"#utility.yul\":6024:6041   */\n      swap1\n      pop\n        /* \"#utility.yul\":6069:6071   */\n      0x1f\n        /* \"#utility.yul\":6061:6067   */\n      dup4\n        /* \"#utility.yul\":6058:6072   */\n      gt\n        /* \"#utility.yul\":6086:6087   */\n      0x01\n        /* \"#utility.yul\":6081:6699   */\n      dup2\n      eq\n      tag_121\n      jumpi\n        /* \"#utility.yul\":6743:6744   */\n      0x00\n        /* \"#utility.yul\":6760:6766   */\n      dup5\n        /* \"#utility.yul\":6757:6834   */\n      iszero\n      tag_122\n      jumpi\n        /* \"#utility.yul\":6809:6818   */\n      dup3\n        /* \"#utility.yul\":6804:6807   */\n      dup8\n        /* \"#utility.yul\":6800:6819   */\n      add\n        /* \"#utility.yul\":6794:6820   */\n      mload\n        /* \"#utility.yul\":6785:6820   */\n      swap1\n      pop\n        /* \"#utility.yul\":6757:6834   */\n    tag_122:\n        /* \"#utility.yul\":6860:6927   */\n      tag_123\n        /* \"#utility.yul\":6920:6926   */\n      dup6\n        /* \"#utility.yul\":6913:6918   */\n      dup3\n        /* \"#utility.yul\":6860:6927   */\n      tag_50\n      jump\t// in\n    tag_123:\n        /* \"#utility.yul\":6854:6858   */\n      dup7\n        /* \"#utility.yul\":6847:6928   */\n      sstore\n        /* \"#utility.yul\":6716:6938   */\n      pop\n        /* \"#utility.yul\":6051:6938   */\n      jump(tag_120)\n        /* \"#utility.yul\":6081:6699   */\n    tag_121:\n        /* \"#utility.yul\":6133:6137   */\n      0x1f\n        /* \"#utility.yul\":6129:6138   */\n      not\n        /* \"#utility.yul\":6121:6127   */\n      dup5\n        /* \"#utility.yul\":6117:6139   */\n      and\n        /* \"#utility.yul\":6167:6204   */\n      tag_124\n        /* \"#utility.yul\":6199:6203   */\n      dup7\n        /* \"#utility.yul\":6167:6204   */\n      tag_35\n      jump\t// in\n    tag_124:\n        /* \"#utility.yul\":6226:6227   */\n      0x00\n        /* \"#utility.yul\":6240:6448   */\n    tag_125:\n        /* \"#utility.yul\":6254:6261   */\n      dup3\n        /* \"#utility.yul\":6251:6252   */\n      dup2\n        /* \"#utility.yul\":6248:6262   */\n      lt\n        /* \"#utility.yul\":6240:6448   */\n      iszero\n      tag_127\n      jumpi\n        /* \"#utility.yul\":6333:6342   */\n      dup5\n        /* \"#utility.yul\":6328:6331   */\n      dup10\n        /* \"#utility.yul\":6324:6343   */\n      add\n        /* \"#utility.yul\":6318:6344   */\n      mload\n        /* \"#utility.yul\":6310:6316   */\n      dup3\n        /* \"#utility.yul\":6303:6345   */\n      sstore\n        /* \"#utility.yul\":6384:6385   */\n      0x01\n        /* \"#utility.yul\":6376:6382   */\n      dup3\n        /* \"#utility.yul\":6372:6386   */\n      add\n        /* \"#utility.yul\":6362:6386   */\n      swap2\n      pop\n        /* \"#utility.yul\":6431:6433   */\n      0x20\n        /* \"#utility.yul\":6420:6429   */\n      dup6\n        /* \"#utility.yul\":6416:6434   */\n      add\n        /* \"#utility.yul\":6403:6434   */\n      swap5\n      pop\n        /* \"#utility.yul\":6277:6281   */\n      0x20\n        /* \"#utility.yul\":6274:6275   */\n      dup2\n        /* \"#utility.yul\":6270:6282   */\n      add\n        /* \"#utility.yul\":6265:6282   */\n      swap1\n      pop\n        /* \"#utility.yul\":6240:6448   */\n      jump(tag_125)\n    tag_127:\n        /* \"#utility.yul\":6476:6482   */\n      dup7\n        /* \"#utility.yul\":6467:6474   */\n      dup4\n        /* \"#utility.yul\":6464:6483   */\n      lt\n        /* \"#utility.yul\":6461:6640   */\n      iszero\n      tag_128\n      jumpi\n        /* \"#utility.yul\":6534:6543   */\n      dup5\n        /* \"#utility.yul\":6529:6532   */\n      dup10\n        /* \"#utility.yul\":6525:6544   */\n      add\n        /* \"#utility.yul\":6519:6545   */\n      mload\n        /* \"#utility.yul\":6577:6625   */\n      tag_129\n        /* \"#utility.yul\":6619:6623   */\n      0x1f\n        /* \"#utility.yul\":6611:6617   */\n      dup10\n        /* \"#utility.yul\":6607:6624   */\n      and\n        /* \"#utility.yul\":6596:6605   */\n      dup3\n        /* \"#utility.yul\":6577:6625   */\n      tag_49\n      jump\t// in\n    tag_129:\n        /* \"#utility.yul\":6569:6575   */\n      dup4\n        /* \"#utility.yul\":6562:6626   */\n      sstore\n        /* \"#utility.yul\":6484:6640   */\n      pop\n        /* \"#utility.yul\":6461:6640   */\n    tag_128:\n        /* \"#utility.yul\":6686:6687   */\n      0x01\n        /* \"#utility.yul\":6682:6683   */\n      0x02\n        /* \"#utility.yul\":6674:6680   */\n      dup9\n        /* \"#utility.yul\":6670:6684   */\n      mul\n        /* \"#utility.yul\":6666:6688   */\n      add\n        /* \"#utility.yul\":6660:6664   */\n      dup9\n        /* \"#utility.yul\":6653:6689   */\n      sstore\n        /* \"#utility.yul\":6088:6699   */\n      pop\n      pop\n      pop\n        /* \"#utility.yul\":6051:6938   */\n    tag_120:\n      pop\n        /* \"#utility.yul\":5641:6944   */\n      pop\n      pop\n      pop\n        /* \"#utility.yul\":5549:6944   */\n      pop\n      pop\n      jump\t// out\n\n    auxdata: 0xa2646970667358221220874d552375f12f32f140e71c56d1c1311df2a72e4d2ac09ad54ddc77392bc2d264736f6c634300081d0033\n}\n",
				"bytecode": {
					"linkReferences": {},
					"object": "6080604052348015600e575f5ffd5b506105df8061001c5f395ff3fe608060405234801561000f575f5ffd5b506004361061003f575f3560e01c806367e404ce14610043578063e21f37ce14610061578063f7b0d5681461007f575b5f5ffd5b61004b610089565b60405161005891906101fe565b60405180910390f35b6100696100ad565b6040516100769190610287565b60405180910390f35b610087610139565b005b5f5f9054906101000a900473ffffffffffffffffffffffffffffffffffffffff1681565b600180546100ba906102d4565b80601f01602080910402602001604051908101604052809291908181526020018280546100e6906102d4565b80156101315780601f1061010857610100808354040283529160200191610131565b820191905f5260205f20905b81548152906001019060200180831161011457829003601f168201915b505050505081565b335f5f6101000a81548173ffffffffffffffffffffffffffffffffffffffff021916908373ffffffffffffffffffffffffffffffffffffffff1602179055506040518060400160405280601381526020017f44656c656761746563616c6c20776f726b656400000000000000000000000000815250600190816101bc91906104da565b50565b5f73ffffffffffffffffffffffffffffffffffffffff82169050919050565b5f6101e8826101bf565b9050919050565b6101f8816101de565b82525050565b5f6020820190506102115f8301846101ef565b92915050565b5f81519050919050565b5f82825260208201905092915050565b8281835e5f83830152505050565b5f601f19601f8301169050919050565b5f61025982610217565b6102638185610221565b9350610273818560208601610231565b61027c8161023f565b840191505092915050565b5f6020820190508181035f83015261029f818461024f565b905092915050565b7f4e487b71000000000000000000000000000000000000000000000000000000005f52602260045260245ffd5b5f60028204905060018216806102eb57607f821691505b6020821081036102fe576102fd6102a7565b5b50919050565b7f4e487b71000000000000000000000000000000000000000000000000000000005f52604160045260245ffd5b5f819050815f5260205f209050919050565b5f6020601f8301049050919050565b5f82821b905092915050565b5f6008830261038d7fffffffffffffffffffffffffffffffffffffffffffffffffffffffffffffffff82610352565b6103978683610352565b95508019841693508086168417925050509392505050565b5f819050919050565b5f819050919050565b5f6103db6103d66103d1846103af565b6103b8565b6103af565b9050919050565b5f819050919050565b6103f4836103c1565b610408610400826103e2565b84845461035e565b825550505050565b5f5f905090565b61041f610410565b61042a8184846103eb565b505050565b5b8181101561044d576104425f82610417565b600181019050610430565b5050565b601f8211156104925761046381610331565b61046c84610343565b8101602085101561047b578190505b61048f61048785610343565b83018261042f565b50505b505050565b5f82821c905092915050565b5f6104b25f1984600802610497565b1980831691505092915050565b5f6104ca83836104a3565b9150826002028217905092915050565b6104e382610217565b67ffffffffffffffff8111156104fc576104fb610304565b5b61050682546102d4565b610511828285610451565b5f60209050601f831160018114610542575f8415610530578287015190505b61053a85826104bf565b8655506105a1565b601f19841661055086610331565b5f5b8281101561057757848901518255600182019150602085019450602081019050610552565b868310156105945784890151610590601f8916826104a3565b8355505b6001600288020188555050505b50505050505056fea2646970667358221220874d552375f12f32f140e71c56d1c1311df2a72e4d2ac09ad54ddc77392bc2d264736f6c634300081d0033",
					"opcodes": "PUSH1 0x80 PUSH1 0x40 MSTORE CALLVALUE DUP1 ISZERO PUSH1 0xE JUMPI PUSH0 PUSH0 REVERT JUMPDEST POP PUSH2 0x5DF DUP1 PUSH2 0x1C PUSH0 CODECOPY PUSH0 RETURN INVALID PUSH1 0x80 PUSH1 0x40 MSTORE CALLVALUE DUP1 ISZERO PUSH2 0xF JUMPI PUSH0 PUSH0 REVERT JUMPDEST POP PUSH1 0x4 CALLDATASIZE LT PUSH2 0x3F JUMPI PUSH0 CALLDATALOAD PUSH1 0xE0 SHR DUP1 PUSH4 0x67E404CE EQ PUSH2 0x43 JUMPI DUP1 PUSH4 0xE21F37CE EQ PUSH2 0x61 JUMPI DUP1 PUSH4 0xF7B0D568 EQ PUSH2 0x7F JUMPI JUMPDEST PUSH0 PUSH0 REVERT JUMPDEST PUSH2 0x4B PUSH2 0x89 JUMP JUMPDEST PUSH1 0x40 MLOAD PUSH2 0x58 SWAP2 SWAP1 PUSH2 0x1FE JUMP JUMPDEST PUSH1 0x40 MLOAD DUP1 SWAP2 SUB SWAP1 RETURN JUMPDEST PUSH2 0x69 PUSH2 0xAD JUMP JUMPDEST PUSH1 0x40 MLOAD PUSH2 0x76 SWAP2 SWAP1 PUSH2 0x287 JUMP JUMPDEST PUSH1 0x40 MLOAD DUP1 SWAP2 SUB SWAP1 RETURN JUMPDEST PUSH2 0x87 PUSH2 0x139 JUMP JUMPDEST STOP JUMPDEST PUSH0 PUSH0 SWAP1 SLOAD SWAP1 PUSH2 0x100 EXP SWAP1 DIV PUSH20 0xFFFFFFFFFFFFFFFFFFFFFFFFFFFFFFFFFFFFFFFF AND DUP2 JUMP JUMPDEST PUSH1 0x1 DUP1 SLOAD PUSH2 0xBA SWAP1 PUSH2 0x2D4 JUMP JUMPDEST DUP1 PUSH1 0x1F ADD PUSH1 0x20 DUP1 SWAP2 DIV MUL PUSH1 0x20 ADD PUSH1 0x40 MLOAD SWAP1 DUP2 ADD PUSH1 0x40 MSTORE DUP1 SWAP3 SWAP2 SWAP1 DUP2 DUP2 MSTORE PUSH1 0x20 ADD DUP3 DUP1 SLOAD PUSH2 0xE6 SWAP1 PUSH2 0x2D4 JUMP JUMPDEST DUP1 ISZERO PUSH2 0x131 JUMPI DUP1 PUSH1 0x1F LT PUSH2 0x108 JUMPI PUSH2 0x100 DUP1 DUP4 SLOAD DIV MUL DUP4 MSTORE SWAP2 PUSH1 0x20 ADD SWAP2 PUSH2 0x131 JUMP JUMPDEST DUP3 ADD SWAP2 SWAP1 PUSH0 MSTORE PUSH1 0x20 PUSH0 KECCAK256 SWAP1 JUMPDEST DUP2 SLOAD DUP2 MSTORE SWAP1 PUSH1 0x1 ADD SWAP1 PUSH1 0x20 ADD DUP1 DUP4 GT PUSH2 0x114 JUMPI DUP3 SWAP1 SUB PUSH1 0x1F AND DUP3 ADD SWAP2 JUMPDEST POP POP POP POP POP DUP2 JUMP JUMPDEST CALLER PUSH0 PUSH0 PUSH2 0x100 EXP DUP2 SLOAD DUP2 PUSH20 0xFFFFFFFFFFFFFFFFFFFFFFFFFFFFFFFFFFFFFFFF MUL NOT AND SWAP1 DUP4 PUSH20 0xFFFFFFFFFFFFFFFFFFFFFFFFFFFFFFFFFFFFFFFF AND MUL OR SWAP1 SSTORE POP PUSH1 0x40 MLOAD DUP1 PUSH1 0x40 ADD PUSH1 0x40 MSTORE DUP1 PUSH1 0x13 DUP2 MSTORE PUSH1 0x20 ADD PUSH32 0x44656C656761746563616C6C20776F726B656400000000000000000000000000 DUP2 MSTORE POP PUSH1 0x1 SWAP1 DUP2 PUSH2 0x1BC SWAP2 SWAP1 PUSH2 0x4DA JUMP JUMPDEST POP JUMP JUMPDEST PUSH0 PUSH20 0xFFFFFFFFFFFFFFFFFFFFFFFFFFFFFFFFFFFFFFFF DUP3 AND SWAP1 POP SWAP2 SWAP1 POP JUMP JUMPDEST PUSH0 PUSH2 0x1E8 DUP3 PUSH2 0x1BF JUMP JUMPDEST SWAP1 POP SWAP2 SWAP1 POP JUMP JUMPDEST PUSH2 0x1F8 DUP2 PUSH2 0x1DE JUMP JUMPDEST DUP3 MSTORE POP POP JUMP JUMPDEST PUSH0 PUSH1 0x20 DUP3 ADD SWAP1 POP PUSH2 0x211 PUSH0 DUP4 ADD DUP5 PUSH2 0x1EF JUMP JUMPDEST SWAP3 SWAP2 POP POP JUMP JUMPDEST PUSH0 DUP2 MLOAD SWAP1 POP SWAP2 SWAP1 POP JUMP JUMPDEST PUSH0 DUP3 DUP3 MSTORE PUSH1 0x20 DUP3 ADD SWAP1 POP SWAP3 SWAP2 POP POP JUMP JUMPDEST DUP3 DUP2 DUP4 MCOPY PUSH0 DUP4 DUP4 ADD MSTORE POP POP POP JUMP JUMPDEST PUSH0 PUSH1 0x1F NOT PUSH1 0x1F DUP4 ADD AND SWAP1 POP SWAP2 SWAP1 POP JUMP JUMPDEST PUSH0 PUSH2 0x259 DUP3 PUSH2 0x217 JUMP JUMPDEST PUSH2 0x263 DUP2 DUP6 PUSH2 0x221 JUMP JUMPDEST SWAP4 POP PUSH2 0x273 DUP2 DUP6 PUSH1 0x20 DUP7 ADD PUSH2 0x231 JUMP JUMPDEST PUSH2 0x27C DUP2 PUSH2 0x23F JUMP JUMPDEST DUP5 ADD SWAP2 POP POP SWAP3 SWAP2 POP POP JUMP JUMPDEST PUSH0 PUSH1 0x20 DUP3 ADD SWAP1 POP DUP2 DUP2 SUB PUSH0 DUP4 ADD MSTORE PUSH2 0x29F DUP2 DUP5 PUSH2 0x24F JUMP JUMPDEST SWAP1 POP SWAP3 SWAP2 POP POP JUMP JUMPDEST PUSH32 0x4E487B7100000000000000000000000000000000000000000000000000000000 PUSH0 MSTORE PUSH1 0x22 PUSH1 0x4 MSTORE PUSH1 0x24 PUSH0 REVERT JUMPDEST PUSH0 PUSH1 0x2 DUP3 DIV SWAP1 POP PUSH1 0x1 DUP3 AND DUP1 PUSH2 0x2EB JUMPI PUSH1 0x7F DUP3 AND SWAP2 POP JUMPDEST PUSH1 0x20 DUP3 LT DUP2 SUB PUSH2 0x2FE JUMPI PUSH2 0x2FD PUSH2 0x2A7 JUMP JUMPDEST JUMPDEST POP SWAP2 SWAP1 POP JUMP JUMPDEST PUSH32 0x4E487B7100000000000000000000000000000000000000000000000000000000 PUSH0 MSTORE PUSH1 0x41 PUSH1 0x4 MSTORE PUSH1 0x24 PUSH0 REVERT JUMPDEST PUSH0 DUP2 SWAP1 POP DUP2 PUSH0 MSTORE PUSH1 0x20 PUSH0 KECCAK256 SWAP1 POP SWAP2 SWAP1 POP JUMP JUMPDEST PUSH0 PUSH1 0x20 PUSH1 0x1F DUP4 ADD DIV SWAP1 POP SWAP2 SWAP1 POP JUMP JUMPDEST PUSH0 DUP3 DUP3 SHL SWAP1 POP SWAP3 SWAP2 POP POP JUMP JUMPDEST PUSH0 PUSH1 0x8 DUP4 MUL PUSH2 0x38D PUSH32 0xFFFFFFFFFFFFFFFFFFFFFFFFFFFFFFFFFFFFFFFFFFFFFFFFFFFFFFFFFFFFFFFF DUP3 PUSH2 0x352 JUMP JUMPDEST PUSH2 0x397 DUP7 DUP4 PUSH2 0x352 JUMP JUMPDEST SWAP6 POP DUP1 NOT DUP5 AND SWAP4 POP DUP1 DUP7 AND DUP5 OR SWAP3 POP POP POP SWAP4 SWAP3 POP POP POP JUMP JUMPDEST PUSH0 DUP2 SWAP1 POP SWAP2 SWAP1 POP JUMP JUMPDEST PUSH0 DUP2 SWAP1 POP SWAP2 SWAP1 POP JUMP JUMPDEST PUSH0 PUSH2 0x3DB PUSH2 0x3D6 PUSH2 0x3D1 DUP5 PUSH2 0x3AF JUMP JUMPDEST PUSH2 0x3B8 JUMP JUMPDEST PUSH2 0x3AF JUMP JUMPDEST SWAP1 POP SWAP2 SWAP1 POP JUMP JUMPDEST PUSH0 DUP2 SWAP1 POP SWAP2 SWAP1 POP JUMP JUMPDEST PUSH2 0x3F4 DUP4 PUSH2 0x3C1 JUMP JUMPDEST PUSH2 0x408 PUSH2 0x400 DUP3 PUSH2 0x3E2 JUMP JUMPDEST DUP5 DUP5 SLOAD PUSH2 0x35E JUMP JUMPDEST DUP3 SSTORE POP POP POP POP JUMP JUMPDEST PUSH0 PUSH0 SWAP1 POP SWAP1 JUMP JUMPDEST PUSH2 0x41F PUSH2 0x410 JUMP JUMPDEST PUSH2 0x42A DUP2 DUP5 DUP5 PUSH2 0x3EB JUMP JUMPDEST POP POP POP JUMP JUMPDEST JUMPDEST DUP2 DUP2 LT ISZERO PUSH2 0x44D JUMPI PUSH2 0x442 PUSH0 DUP3 PUSH2 0x417 JUMP JUMPDEST PUSH1 0x1 DUP2 ADD SWAP1 POP PUSH2 0x430 JUMP JUMPDEST POP POP JUMP JUMPDEST PUSH1 0x1F DUP3 GT ISZERO PUSH2 0x492 JUMPI PUSH2 0x463 DUP2 PUSH2 0x331 JUMP JUMPDEST PUSH2 0x46C DUP5 PUSH2 0x343 JUMP JUMPDEST DUP2 ADD PUSH1 0x20 DUP6 LT ISZERO PUSH2 0x47B JUMPI DUP2 SWAP1 POP JUMPDEST PUSH2 0x48F PUSH2 0x487 DUP6 PUSH2 0x343 JUMP JUMPDEST DUP4 ADD DUP3 PUSH2 0x42F JUMP JUMPDEST POP POP JUMPDEST POP POP POP JUMP JUMPDEST PUSH0 DUP3 DUP3 SHR SWAP1 POP SWAP3 SWAP2 POP POP JUMP JUMPDEST PUSH0 PUSH2 0x4B2 PUSH0 NOT DUP5 PUSH1 0x8 MUL PUSH2 0x497 JUMP JUMPDEST NOT DUP1 DUP4 AND SWAP2 POP POP SWAP3 SWAP2 POP POP JUMP JUMPDEST PUSH0 PUSH2 0x4CA DUP4 DUP4 PUSH2 0x4A3 JUMP JUMPDEST SWAP2 POP DUP3 PUSH1 0x2 MUL DUP3 OR SWAP1 POP SWAP3 SWAP2 POP POP JUMP JUMPDEST PUSH2 0x4E3 DUP3 PUSH2 0x217 JUMP JUMPDEST PUSH8 0xFFFFFFFFFFFFFFFF DUP2 GT ISZERO PUSH2 0x4FC JUMPI PUSH2 0x4FB PUSH2 0x304 JUMP JUMPDEST JUMPDEST PUSH2 0x506 DUP3 SLOAD PUSH2 0x2D4 JUMP JUMPDEST PUSH2 0x511 DUP3 DUP3 DUP6 PUSH2 0x451 JUMP JUMPDEST PUSH0 PUSH1 0x20 SWAP1 POP PUSH1 0x1F DUP4 GT PUSH1 0x1 DUP2 EQ PUSH2 0x542 JUMPI PUSH0 DUP5 ISZERO PUSH2 0x530 JUMPI DUP3 DUP8 ADD MLOAD SWAP1 POP JUMPDEST PUSH2 0x53A DUP6 DUP3 PUSH2 0x4BF JUMP JUMPDEST DUP7 SSTORE POP PUSH2 0x5A1 JUMP JUMPDEST PUSH1 0x1F NOT DUP5 AND PUSH2 0x550 DUP7 PUSH2 0x331 JUMP JUMPDEST PUSH0 JUMPDEST DUP3 DUP2 LT ISZERO PUSH2 0x577 JUMPI DUP5 DUP10 ADD MLOAD DUP3 SSTORE PUSH1 0x1 DUP3 ADD SWAP2 POP PUSH1 0x20 DUP6 ADD SWAP5 POP PUSH1 0x20 DUP2 ADD SWAP1 POP PUSH2 0x552 JUMP JUMPDEST DUP7 DUP4 LT ISZERO PUSH2 0x594 JUMPI DUP5 DUP10 ADD MLOAD PUSH2 0x590 PUSH1 0x1F DUP10 AND DUP3 PUSH2 0x4A3 JUMP JUMPDEST DUP4 SSTORE POP JUMPDEST PUSH1 0x1 PUSH1 0x2 DUP9 MUL ADD DUP9 SSTORE POP POP POP JUMPDEST POP POP POP POP POP POP JUMP INVALID LOG2 PUSH5 0x6970667358 0x22 SLT KECCAK256 DUP8 0x4D SSTORE 0x23 PUSH22 0xF12F32F140E71C56D1C1311DF2A72E4D2AC09AD54DDC PUSH24 0x392BC2D264736F6C634300081D0033000000000000000000 "
				},
				"gasEstimates": {
					"creation": {
						"codeDepositCost": "300600",
						"executionCost": "335",
						"totalCost": "300935"
					},
					"external": {
						"logDelegateCall()": "infinite",
						"message()": "infinite",
						"sender()": "2485"
					}
				},
				"methodIdentifiers": {
					"logDelegateCall()": "f7b0d568",
					"message()": "e21f37ce",
					"sender()": "67e404ce"
				}
			},
			"storageLayout": {
				"storage": [
					{
						"astId": 242,
						"contract": "E/Master Contract to Handle All Types.sol:DelegateTarget",
						"label": "sender",
						"offset": 0,
						"slot": "0",
						"type": "t_address"
					},
					{
						"astId": 244,
						"contract": "E/Master Contract to Handle All Types.sol:DelegateTarget",
						"label": "message",
						"offset": 0,
						"slot": "1",
						"type": "t_string_storage"
					}
				],
				"types": {
					"t_address": {
						"encoding": "inplace",
						"label": "address",
						"numberOfBytes": "20"
					},
					"t_string_storage": {
						"encoding": "bytes",
						"label": "string",
						"numberOfBytes": "32"
					}
				}
			},
			"userdoc": {
				"kind": "user",
				"methods": {},
				"version": 1
			}
		}
	}
}