{
	"E/Milestone-Based Escrow.sol": {
		"MilestoneEscrow": {
			"abi": [
				{
					"inputs": [
						{
							"internalType": "address",
							"name": "_beneficiary",
							"type": "address"
						},
						{
							"internalType": "address",
							"name": "_arbiter",
							"type": "address"
						}
					],
					"stateMutability": "payable",
					"type": "constructor"
				},
				{
					"anonymous": false,
					"inputs": [
						{
							"indexed": true,
							"internalType": "uint256",
							"name": "id",
							"type": "uint256"
						},
						{
							"indexed": false,
							"internalType": "uint256",
							"name": "amount",
							"type": "uint256"
						}
					],
					"name": "MilestoneAdded",
					"type": "event"
				},
				{
					"anonymous": false,
					"inputs": [
						{
							"indexed": true,
							"internalType": "uint256",
							"name": "id",
							"type": "uint256"
						},
						{
							"indexed": false,
							"internalType": "uint256",
							"name": "amount",
							"type": "uint256"
						}
					],
					"name": "MilestoneReleased",
					"type": "event"
				},
				{
					"anonymous": false,
					"inputs": [
						{
							"indexed": false,
							"internalType": "uint256",
							"name": "amount",
							"type": "uint256"
						}
					],
					"name": "Refunded",
					"type": "event"
				},
				{
					"inputs": [
						{
							"internalType": "uint256[]",
							"name": "amounts",
							"type": "uint256[]"
						}
					],
					"name": "addMilestones",
					"outputs": [],
					"stateMutability": "nonpayable",
					"type": "function"
				},
				{
					"inputs": [],
					"name": "arbiter",
					"outputs": [
						{
							"internalType": "address",
							"name": "",
							"type": "address"
						}
					],
					"stateMutability": "view",
					"type": "function"
				},
				{
					"inputs": [],
					"name": "beneficiary",
					"outputs": [
						{
							"internalType": "address",
							"name": "",
							"type": "address"
						}
					],
					"stateMutability": "view",
					"type": "function"
				},
				{
					"inputs": [],
					"name": "depositor",
					"outputs": [
						{
							"internalType": "address",
							"name": "",
							"type": "address"
						}
					],
					"stateMutability": "view",
					"type": "function"
				},
				{
					"inputs": [
						{
							"internalType": "uint256",
							"name": "",
							"type": "uint256"
						}
					],
					"name": "milestones",
					"outputs": [
						{
							"internalType": "uint256",
							"name": "amount",
							"type": "uint256"
						},
						{
							"internalType": "bool",
							"name": "isReleased",
							"type": "bool"
						}
					],
					"stateMutability": "view",
					"type": "function"
				},
				{
					"inputs": [],
					"name": "refundRemaining",
					"outputs": [],
					"stateMutability": "nonpayable",
					"type": "function"
				},
				{
					"inputs": [
						{
							"internalType": "uint256",
							"name": "index",
							"type": "uint256"
						}
					],
					"name": "releaseMilestone",
					"outputs": [],
					"stateMutability": "nonpayable",
					"type": "function"
				},
				{
					"inputs": [],
					"name": "totalDeposited",
					"outputs": [
						{
							"internalType": "uint256",
							"name": "",
							"type": "uint256"
						}
					],
					"stateMutability": "view",
					"type": "function"
				}
			],
			"devdoc": {
				"kind": "dev",
				"methods": {},
				"version": 1
			},
			"evm": {
				"assembly": "    /* \"E/Milestone-Based Escrow.sol\":58:2083  contract MilestoneEscrow {... */\n  mstore(0x40, 0x80)\n    /* \"E/Milestone-Based Escrow.sol\":706:954  constructor(address _beneficiary, address _arbiter) payable {... */\n  mload(0x40)\n  sub(codesize, bytecodeSize)\n  dup1\n  bytecodeSize\n  dup4\n  codecopy\n  dup2\n  dup2\n  add\n  0x40\n  mstore\n  dup2\n  add\n  swap1\n  tag_1\n  swap2\n  swap1\n  tag_2\n  jump\t// in\ntag_1:\n    /* \"E/Milestone-Based Escrow.sol\":796:797  0 */\n  0x00\n    /* \"E/Milestone-Based Escrow.sol\":784:793  msg.value */\n  callvalue\n    /* \"E/Milestone-Based Escrow.sol\":784:797  msg.value > 0 */\n  gt\n    /* \"E/Milestone-Based Escrow.sol\":776:815  require(msg.value > 0, \"Must send ETH\") */\n  tag_5\n  jumpi\n  mload(0x40)\n  0x08c379a000000000000000000000000000000000000000000000000000000000\n  dup2\n  mstore\n  0x04\n  add\n  tag_6\n  swap1\n  tag_7\n  jump\t// in\ntag_6:\n  mload(0x40)\n  dup1\n  swap2\n  sub\n  swap1\n  revert\ntag_5:\n    /* \"E/Milestone-Based Escrow.sol\":837:847  msg.sender */\n  caller\n    /* \"E/Milestone-Based Escrow.sol\":825:834  depositor */\n  0x00\n  0x00\n    /* \"E/Milestone-Based Escrow.sol\":825:847  depositor = msg.sender */\n  0x0100\n  exp\n  dup2\n  sload\n  dup2\n  0xffffffffffffffffffffffffffffffffffffffff\n  mul\n  not\n  and\n  swap1\n  dup4\n  0xffffffffffffffffffffffffffffffffffffffff\n  and\n  mul\n  or\n  swap1\n  sstore\n  pop\n    /* \"E/Milestone-Based Escrow.sol\":871:883  _beneficiary */\n  dup2\n    /* \"E/Milestone-Based Escrow.sol\":857:868  beneficiary */\n  0x01\n  0x00\n    /* \"E/Milestone-Based Escrow.sol\":857:883  beneficiary = _beneficiary */\n  0x0100\n  exp\n  dup2\n  sload\n  dup2\n  0xffffffffffffffffffffffffffffffffffffffff\n  mul\n  not\n  and\n  swap1\n  dup4\n  0xffffffffffffffffffffffffffffffffffffffff\n  and\n  mul\n  or\n  swap1\n  sstore\n  pop\n    /* \"E/Milestone-Based Escrow.sol\":903:911  _arbiter */\n  dup1\n    /* \"E/Milestone-Based Escrow.sol\":893:900  arbiter */\n  0x02\n  0x00\n    /* \"E/Milestone-Based Escrow.sol\":893:911  arbiter = _arbiter */\n  0x0100\n  exp\n  dup2\n  sload\n  dup2\n  0xffffffffffffffffffffffffffffffffffffffff\n  mul\n  not\n  and\n  swap1\n  dup4\n  0xffffffffffffffffffffffffffffffffffffffff\n  and\n  mul\n  or\n  swap1\n  sstore\n  pop\n    /* \"E/Milestone-Based Escrow.sol\":938:947  msg.value */\n  callvalue\n    /* \"E/Milestone-Based Escrow.sol\":921:935  totalDeposited */\n  0x04\n    /* \"E/Milestone-Based Escrow.sol\":921:947  totalDeposited = msg.value */\n  dup2\n  swap1\n  sstore\n  pop\n    /* \"E/Milestone-Based Escrow.sol\":706:954  constructor(address _beneficiary, address _arbiter) payable {... */\n  pop\n  pop\n    /* \"E/Milestone-Based Escrow.sol\":58:2083  contract MilestoneEscrow {... */\n  jump(tag_8)\n    /* \"#utility.yul\":88:205   */\ntag_10:\n    /* \"#utility.yul\":197:198   */\n  0x00\n    /* \"#utility.yul\":194:195   */\n  0x00\n    /* \"#utility.yul\":187:199   */\n  revert\n    /* \"#utility.yul\":334:460   */\ntag_12:\n    /* \"#utility.yul\":371:378   */\n  0x00\n    /* \"#utility.yul\":411:453   */\n  0xffffffffffffffffffffffffffffffffffffffff\n    /* \"#utility.yul\":404:409   */\n  dup3\n    /* \"#utility.yul\":400:454   */\n  and\n    /* \"#utility.yul\":389:454   */\n  swap1\n  pop\n    /* \"#utility.yul\":334:460   */\n  swap2\n  swap1\n  pop\n  jump\t// out\n    /* \"#utility.yul\":466:562   */\ntag_13:\n    /* \"#utility.yul\":503:510   */\n  0x00\n    /* \"#utility.yul\":532:556   */\n  tag_25\n    /* \"#utility.yul\":550:555   */\n  dup3\n    /* \"#utility.yul\":532:556   */\n  tag_12\n  jump\t// in\ntag_25:\n    /* \"#utility.yul\":521:556   */\n  swap1\n  pop\n    /* \"#utility.yul\":466:562   */\n  swap2\n  swap1\n  pop\n  jump\t// out\n    /* \"#utility.yul\":568:690   */\ntag_14:\n    /* \"#utility.yul\":641:665   */\n  tag_27\n    /* \"#utility.yul\":659:664   */\n  dup2\n    /* \"#utility.yul\":641:665   */\n  tag_13\n  jump\t// in\ntag_27:\n    /* \"#utility.yul\":634:639   */\n  dup2\n    /* \"#utility.yul\":631:666   */\n  eq\n    /* \"#utility.yul\":621:684   */\n  tag_28\n  jumpi\n    /* \"#utility.yul\":680:681   */\n  0x00\n    /* \"#utility.yul\":677:678   */\n  0x00\n    /* \"#utility.yul\":670:682   */\n  revert\n    /* \"#utility.yul\":621:684   */\ntag_28:\n    /* \"#utility.yul\":568:690   */\n  pop\n  jump\t// out\n    /* \"#utility.yul\":696:839   */\ntag_15:\n    /* \"#utility.yul\":753:758   */\n  0x00\n    /* \"#utility.yul\":784:790   */\n  dup2\n    /* \"#utility.yul\":778:791   */\n  mload\n    /* \"#utility.yul\":769:791   */\n  swap1\n  pop\n    /* \"#utility.yul\":800:833   */\n  tag_30\n    /* \"#utility.yul\":827:832   */\n  dup2\n    /* \"#utility.yul\":800:833   */\n  tag_14\n  jump\t// in\ntag_30:\n    /* \"#utility.yul\":696:839   */\n  swap3\n  swap2\n  pop\n  pop\n  jump\t// out\n    /* \"#utility.yul\":845:1352   */\ntag_2:\n    /* \"#utility.yul\":924:930   */\n  0x00\n    /* \"#utility.yul\":932:938   */\n  0x00\n    /* \"#utility.yul\":981:983   */\n  0x40\n    /* \"#utility.yul\":969:978   */\n  dup4\n    /* \"#utility.yul\":960:967   */\n  dup6\n    /* \"#utility.yul\":956:979   */\n  sub\n    /* \"#utility.yul\":952:984   */\n  slt\n    /* \"#utility.yul\":949:1068   */\n  iszero\n  tag_32\n  jumpi\n    /* \"#utility.yul\":987:1066   */\n  tag_33\n  tag_10\n  jump\t// in\ntag_33:\n    /* \"#utility.yul\":949:1068   */\ntag_32:\n    /* \"#utility.yul\":1107:1108   */\n  0x00\n    /* \"#utility.yul\":1132:1196   */\n  tag_34\n    /* \"#utility.yul\":1188:1195   */\n  dup6\n    /* \"#utility.yul\":1179:1185   */\n  dup3\n    /* \"#utility.yul\":1168:1177   */\n  dup7\n    /* \"#utility.yul\":1164:1186   */\n  add\n    /* \"#utility.yul\":1132:1196   */\n  tag_15\n  jump\t// in\ntag_34:\n    /* \"#utility.yul\":1122:1196   */\n  swap3\n  pop\n    /* \"#utility.yul\":1078:1206   */\n  pop\n    /* \"#utility.yul\":1245:1247   */\n  0x20\n    /* \"#utility.yul\":1271:1335   */\n  tag_35\n    /* \"#utility.yul\":1327:1334   */\n  dup6\n    /* \"#utility.yul\":1318:1324   */\n  dup3\n    /* \"#utility.yul\":1307:1316   */\n  dup7\n    /* \"#utility.yul\":1303:1325   */\n  add\n    /* \"#utility.yul\":1271:1335   */\n  tag_15\n  jump\t// in\ntag_35:\n    /* \"#utility.yul\":1261:1335   */\n  swap2\n  pop\n    /* \"#utility.yul\":1216:1345   */\n  pop\n    /* \"#utility.yul\":845:1352   */\n  swap3\n  pop\n  swap3\n  swap1\n  pop\n  jump\t// out\n    /* \"#utility.yul\":1358:1527   */\ntag_16:\n    /* \"#utility.yul\":1442:1453   */\n  0x00\n    /* \"#utility.yul\":1476:1482   */\n  dup3\n    /* \"#utility.yul\":1471:1474   */\n  dup3\n    /* \"#utility.yul\":1464:1483   */\n  mstore\n    /* \"#utility.yul\":1516:1520   */\n  0x20\n    /* \"#utility.yul\":1511:1514   */\n  dup3\n    /* \"#utility.yul\":1507:1521   */\n  add\n    /* \"#utility.yul\":1492:1521   */\n  swap1\n  pop\n    /* \"#utility.yul\":1358:1527   */\n  swap3\n  swap2\n  pop\n  pop\n  jump\t// out\n    /* \"#utility.yul\":1533:1696   */\ntag_17:\n    /* \"#utility.yul\":1673:1688   */\n  0x4d7573742073656e642045544800000000000000000000000000000000000000\n    /* \"#utility.yul\":1669:1670   */\n  0x00\n    /* \"#utility.yul\":1661:1667   */\n  dup3\n    /* \"#utility.yul\":1657:1671   */\n  add\n    /* \"#utility.yul\":1650:1689   */\n  mstore\n    /* \"#utility.yul\":1533:1696   */\n  pop\n  jump\t// out\n    /* \"#utility.yul\":1702:2068   */\ntag_18:\n    /* \"#utility.yul\":1844:1847   */\n  0x00\n    /* \"#utility.yul\":1865:1932   */\n  tag_39\n    /* \"#utility.yul\":1929:1931   */\n  0x0d\n    /* \"#utility.yul\":1924:1927   */\n  dup4\n    /* \"#utility.yul\":1865:1932   */\n  tag_16\n  jump\t// in\ntag_39:\n    /* \"#utility.yul\":1858:1932   */\n  swap2\n  pop\n    /* \"#utility.yul\":1941:2034   */\n  tag_40\n    /* \"#utility.yul\":2030:2033   */\n  dup3\n    /* \"#utility.yul\":1941:2034   */\n  tag_17\n  jump\t// in\ntag_40:\n    /* \"#utility.yul\":2059:2061   */\n  0x20\n    /* \"#utility.yul\":2054:2057   */\n  dup3\n    /* \"#utility.yul\":2050:2062   */\n  add\n    /* \"#utility.yul\":2043:2062   */\n  swap1\n  pop\n    /* \"#utility.yul\":1702:2068   */\n  swap2\n  swap1\n  pop\n  jump\t// out\n    /* \"#utility.yul\":2074:2493   */\ntag_7:\n    /* \"#utility.yul\":2240:2244   */\n  0x00\n    /* \"#utility.yul\":2278:2280   */\n  0x20\n    /* \"#utility.yul\":2267:2276   */\n  dup3\n    /* \"#utility.yul\":2263:2281   */\n  add\n    /* \"#utility.yul\":2255:2281   */\n  swap1\n  pop\n    /* \"#utility.yul\":2327:2336   */\n  dup2\n    /* \"#utility.yul\":2321:2325   */\n  dup2\n    /* \"#utility.yul\":2317:2337   */\n  sub\n    /* \"#utility.yul\":2313:2314   */\n  0x00\n    /* \"#utility.yul\":2302:2311   */\n  dup4\n    /* \"#utility.yul\":2298:2315   */\n  add\n    /* \"#utility.yul\":2291:2338   */\n  mstore\n    /* \"#utility.yul\":2355:2486   */\n  tag_42\n    /* \"#utility.yul\":2481:2485   */\n  dup2\n    /* \"#utility.yul\":2355:2486   */\n  tag_18\n  jump\t// in\ntag_42:\n    /* \"#utility.yul\":2347:2486   */\n  swap1\n  pop\n    /* \"#utility.yul\":2074:2493   */\n  swap2\n  swap1\n  pop\n  jump\t// out\n    /* \"E/Milestone-Based Escrow.sol\":58:2083  contract MilestoneEscrow {... */\ntag_8:\n  dataSize(sub_0)\n  dup1\n  dataOffset(sub_0)\n  0x00\n  codecopy\n  0x00\n  return\nstop\n\nsub_0: assembly {\n        /* \"E/Milestone-Based Escrow.sol\":58:2083  contract MilestoneEscrow {... */\n      mstore(0x40, 0x80)\n      callvalue\n      dup1\n      iszero\n      tag_1\n      jumpi\n      revert(0x00, 0x00)\n    tag_1:\n      pop\n      jumpi(tag_2, lt(calldatasize, 0x04))\n      shr(0xe0, calldataload(0x00))\n      dup1\n      0xc7c4ff46\n      gt\n      tag_11\n      jumpi\n      dup1\n      0xc7c4ff46\n      eq\n      tag_7\n      jumpi\n      dup1\n      0xe89e4ed6\n      eq\n      tag_8\n      jumpi\n      dup1\n      0xfe25e00a\n      eq\n      tag_9\n      jumpi\n      dup1\n      0xff50abdc\n      eq\n      tag_10\n      jumpi\n      jump(tag_2)\n    tag_11:\n      dup1\n      0x317debf5\n      eq\n      tag_3\n      jumpi\n      dup1\n      0x38af3eed\n      eq\n      tag_4\n      jumpi\n      dup1\n      0x868af224\n      eq\n      tag_5\n      jumpi\n      dup1\n      0x9e1c0295\n      eq\n      tag_6\n      jumpi\n    tag_2:\n      revert(0x00, 0x00)\n        /* \"E/Milestone-Based Escrow.sol\":1367:1786  function releaseMilestone(uint256 index) external onlyArbiter {... */\n    tag_3:\n      tag_12\n      0x04\n      dup1\n      calldatasize\n      sub\n      dup2\n      add\n      swap1\n      tag_13\n      swap2\n      swap1\n      tag_14\n      jump\t// in\n    tag_13:\n      tag_15\n      jump\t// in\n    tag_12:\n      stop\n        /* \"E/Milestone-Based Escrow.sol\":119:145  address public beneficiary */\n    tag_4:\n      tag_16\n      tag_17\n      jump\t// in\n    tag_16:\n      mload(0x40)\n      tag_18\n      swap2\n      swap1\n      tag_19\n      jump\t// in\n    tag_18:\n      mload(0x40)\n      dup1\n      swap2\n      sub\n      swap1\n      return\n        /* \"E/Milestone-Based Escrow.sol\":960:1361  function addMilestones(uint256[] calldata amounts) external onlyDepositor {... */\n    tag_5:\n      tag_20\n      0x04\n      dup1\n      calldatasize\n      sub\n      dup2\n      add\n      swap1\n      tag_21\n      swap2\n      swap1\n      tag_22\n      jump\t// in\n    tag_21:\n      tag_23\n      jump\t// in\n    tag_20:\n      stop\n        /* \"E/Milestone-Based Escrow.sol\":1792:2081  function refundRemaining() external onlyDepositor {... */\n    tag_6:\n      tag_24\n      tag_25\n      jump\t// in\n    tag_24:\n      stop\n        /* \"E/Milestone-Based Escrow.sol\":89:113  address public depositor */\n    tag_7:\n      tag_26\n      tag_27\n      jump\t// in\n    tag_26:\n      mload(0x40)\n      tag_28\n      swap2\n      swap1\n      tag_19\n      jump\t// in\n    tag_28:\n      mload(0x40)\n      dup1\n      swap2\n      sub\n      swap1\n      return\n        /* \"E/Milestone-Based Escrow.sol\":259:288  Milestone[] public milestones */\n    tag_8:\n      tag_29\n      0x04\n      dup1\n      calldatasize\n      sub\n      dup2\n      add\n      swap1\n      tag_30\n      swap2\n      swap1\n      tag_14\n      jump\t// in\n    tag_30:\n      tag_31\n      jump\t// in\n    tag_29:\n      mload(0x40)\n      tag_32\n      swap3\n      swap2\n      swap1\n      tag_33\n      jump\t// in\n    tag_32:\n      mload(0x40)\n      dup1\n      swap2\n      sub\n      swap1\n      return\n        /* \"E/Milestone-Based Escrow.sol\":151:173  address public arbiter */\n    tag_9:\n      tag_34\n      tag_35\n      jump\t// in\n    tag_34:\n      mload(0x40)\n      tag_36\n      swap2\n      swap1\n      tag_19\n      jump\t// in\n    tag_36:\n      mload(0x40)\n      dup1\n      swap2\n      sub\n      swap1\n      return\n        /* \"E/Milestone-Based Escrow.sol\":294:323  uint256 public totalDeposited */\n    tag_10:\n      tag_37\n      tag_38\n      jump\t// in\n    tag_37:\n      mload(0x40)\n      tag_39\n      swap2\n      swap1\n      tag_40\n      jump\t// in\n    tag_39:\n      mload(0x40)\n      dup1\n      swap2\n      sub\n      swap1\n      return\n        /* \"E/Milestone-Based Escrow.sol\":1367:1786  function releaseMilestone(uint256 index) external onlyArbiter {... */\n    tag_15:\n        /* \"E/Milestone-Based Escrow.sol\":549:556  arbiter */\n      0x02\n      0x00\n      swap1\n      sload\n      swap1\n      0x0100\n      exp\n      swap1\n      div\n      0xffffffffffffffffffffffffffffffffffffffff\n      and\n        /* \"E/Milestone-Based Escrow.sol\":535:556  msg.sender == arbiter */\n      0xffffffffffffffffffffffffffffffffffffffff\n      and\n        /* \"E/Milestone-Based Escrow.sol\":535:545  msg.sender */\n      caller\n        /* \"E/Milestone-Based Escrow.sol\":535:556  msg.sender == arbiter */\n      0xffffffffffffffffffffffffffffffffffffffff\n      and\n      eq\n        /* \"E/Milestone-Based Escrow.sol\":527:573  require(msg.sender == arbiter, \"Only arbiter\") */\n      tag_42\n      jumpi\n      mload(0x40)\n      0x08c379a000000000000000000000000000000000000000000000000000000000\n      dup2\n      mstore\n      0x04\n      add\n      tag_43\n      swap1\n      tag_44\n      jump\t// in\n    tag_43:\n      mload(0x40)\n      dup1\n      swap2\n      sub\n      swap1\n      revert\n    tag_42:\n        /* \"E/Milestone-Based Escrow.sol\":1455:1465  milestones */\n      0x03\n        /* \"E/Milestone-Based Escrow.sol\":1455:1472  milestones.length */\n      dup1\n      sload\n      swap1\n      pop\n        /* \"E/Milestone-Based Escrow.sol\":1447:1452  index */\n      dup2\n        /* \"E/Milestone-Based Escrow.sol\":1447:1472  index < milestones.length */\n      lt\n        /* \"E/Milestone-Based Escrow.sol\":1439:1494  require(index < milestones.length, \"Invalid milestone\") */\n      tag_46\n      jumpi\n      mload(0x40)\n      0x08c379a000000000000000000000000000000000000000000000000000000000\n      dup2\n      mstore\n      0x04\n      add\n      tag_47\n      swap1\n      tag_48\n      jump\t// in\n    tag_47:\n      mload(0x40)\n      dup1\n      swap2\n      sub\n      swap1\n      revert\n    tag_46:\n        /* \"E/Milestone-Based Escrow.sol\":1504:1523  Milestone storage m */\n      0x00\n        /* \"E/Milestone-Based Escrow.sol\":1526:1536  milestones */\n      0x03\n        /* \"E/Milestone-Based Escrow.sol\":1537:1542  index */\n      dup3\n        /* \"E/Milestone-Based Escrow.sol\":1526:1543  milestones[index] */\n      dup2\n      sload\n      dup2\n      lt\n      tag_49\n      jumpi\n      tag_50\n      tag_51\n      jump\t// in\n    tag_50:\n    tag_49:\n      swap1\n      0x00\n      mstore\n      keccak256(0x00, 0x20)\n      swap1\n      0x02\n      mul\n      add\n        /* \"E/Milestone-Based Escrow.sol\":1504:1543  Milestone storage m = milestones[index] */\n      swap1\n      pop\n        /* \"E/Milestone-Based Escrow.sol\":1562:1563  m */\n      dup1\n        /* \"E/Milestone-Based Escrow.sol\":1562:1574  m.isReleased */\n      0x01\n      add\n      0x00\n      swap1\n      sload\n      swap1\n      0x0100\n      exp\n      swap1\n      div\n      0xff\n      and\n        /* \"E/Milestone-Based Escrow.sol\":1561:1574  !m.isReleased */\n      iszero\n        /* \"E/Milestone-Based Escrow.sol\":1553:1595  require(!m.isReleased, \"Already released\") */\n      tag_53\n      jumpi\n      mload(0x40)\n      0x08c379a000000000000000000000000000000000000000000000000000000000\n      dup2\n      mstore\n      0x04\n      add\n      tag_54\n      swap1\n      tag_55\n      jump\t// in\n    tag_54:\n      mload(0x40)\n      dup1\n      swap2\n      sub\n      swap1\n      revert\n    tag_53:\n        /* \"E/Milestone-Based Escrow.sol\":1620:1624  true */\n      0x01\n        /* \"E/Milestone-Based Escrow.sol\":1605:1606  m */\n      dup2\n        /* \"E/Milestone-Based Escrow.sol\":1605:1617  m.isReleased */\n      0x01\n      add\n      0x00\n        /* \"E/Milestone-Based Escrow.sol\":1605:1624  m.isReleased = true */\n      0x0100\n      exp\n      dup2\n      sload\n      dup2\n      0xff\n      mul\n      not\n      and\n      swap1\n      dup4\n      iszero\n      iszero\n      mul\n      or\n      swap1\n      sstore\n      pop\n        /* \"E/Milestone-Based Escrow.sol\":1636:1645  bool sent */\n      0x00\n        /* \"E/Milestone-Based Escrow.sol\":1651:1662  beneficiary */\n      0x01\n      0x00\n      swap1\n      sload\n      swap1\n      0x0100\n      exp\n      swap1\n      div\n      0xffffffffffffffffffffffffffffffffffffffff\n      and\n        /* \"E/Milestone-Based Escrow.sol\":1651:1667  beneficiary.call */\n      0xffffffffffffffffffffffffffffffffffffffff\n      and\n        /* \"E/Milestone-Based Escrow.sol\":1675:1676  m */\n      dup3\n        /* \"E/Milestone-Based Escrow.sol\":1675:1683  m.amount */\n      0x00\n      add\n      sload\n        /* \"E/Milestone-Based Escrow.sol\":1651:1688  beneficiary.call{value: m.amount}(\"\") */\n      mload(0x40)\n      tag_56\n      swap1\n      tag_57\n      jump\t// in\n    tag_56:\n      0x00\n      mload(0x40)\n      dup1\n      dup4\n      sub\n      dup2\n      dup6\n      dup8\n      gas\n      call\n      swap3\n      pop\n      pop\n      pop\n      returndatasize\n      dup1\n      0x00\n      dup2\n      eq\n      tag_60\n      jumpi\n      mload(0x40)\n      swap2\n      pop\n      and(add(returndatasize, 0x3f), not(0x1f))\n      dup3\n      add\n      0x40\n      mstore\n      returndatasize\n      dup3\n      mstore\n      returndatasize\n      0x00\n      0x20\n      dup5\n      add\n      returndatacopy\n      jump(tag_59)\n    tag_60:\n      0x60\n      swap2\n      pop\n    tag_59:\n      pop\n        /* \"E/Milestone-Based Escrow.sol\":1635:1688  (bool sent, ) = beneficiary.call{value: m.amount}(\"\") */\n      pop\n      swap1\n      pop\n        /* \"E/Milestone-Based Escrow.sol\":1706:1710  sent */\n      dup1\n        /* \"E/Milestone-Based Escrow.sol\":1698:1730  require(sent, \"Transfer failed\") */\n      tag_61\n      jumpi\n      mload(0x40)\n      0x08c379a000000000000000000000000000000000000000000000000000000000\n      dup2\n      mstore\n      0x04\n      add\n      tag_62\n      swap1\n      tag_63\n      jump\t// in\n    tag_62:\n      mload(0x40)\n      dup1\n      swap2\n      sub\n      swap1\n      revert\n    tag_61:\n        /* \"E/Milestone-Based Escrow.sol\":1763:1768  index */\n      dup3\n        /* \"E/Milestone-Based Escrow.sol\":1745:1779  MilestoneReleased(index, m.amount) */\n      0x9e069181c12760c2cd0078ed4facdbe1f3614543b0fbff5dbcac3cbc61a0b64e\n        /* \"E/Milestone-Based Escrow.sol\":1770:1771  m */\n      dup4\n        /* \"E/Milestone-Based Escrow.sol\":1770:1778  m.amount */\n      0x00\n      add\n      sload\n        /* \"E/Milestone-Based Escrow.sol\":1745:1779  MilestoneReleased(index, m.amount) */\n      mload(0x40)\n      tag_64\n      swap2\n      swap1\n      tag_40\n      jump\t// in\n    tag_64:\n      mload(0x40)\n      dup1\n      swap2\n      sub\n      swap1\n      log2\n        /* \"E/Milestone-Based Escrow.sol\":1429:1786  {... */\n      pop\n      pop\n        /* \"E/Milestone-Based Escrow.sol\":1367:1786  function releaseMilestone(uint256 index) external onlyArbiter {... */\n      pop\n      jump\t// out\n        /* \"E/Milestone-Based Escrow.sol\":119:145  address public beneficiary */\n    tag_17:\n      0x01\n      0x00\n      swap1\n      sload\n      swap1\n      0x0100\n      exp\n      swap1\n      div\n      0xffffffffffffffffffffffffffffffffffffffff\n      and\n      dup2\n      jump\t// out\n        /* \"E/Milestone-Based Escrow.sol\":960:1361  function addMilestones(uint256[] calldata amounts) external onlyDepositor {... */\n    tag_23:\n        /* \"E/Milestone-Based Escrow.sol\":654:663  depositor */\n      0x00\n      0x00\n      swap1\n      sload\n      swap1\n      0x0100\n      exp\n      swap1\n      div\n      0xffffffffffffffffffffffffffffffffffffffff\n      and\n        /* \"E/Milestone-Based Escrow.sol\":640:663  msg.sender == depositor */\n      0xffffffffffffffffffffffffffffffffffffffff\n      and\n        /* \"E/Milestone-Based Escrow.sol\":640:650  msg.sender */\n      caller\n        /* \"E/Milestone-Based Escrow.sol\":640:663  msg.sender == depositor */\n      0xffffffffffffffffffffffffffffffffffffffff\n      and\n      eq\n        /* \"E/Milestone-Based Escrow.sol\":632:682  require(msg.sender == depositor, \"Only depositor\") */\n      tag_66\n      jumpi\n      mload(0x40)\n      0x08c379a000000000000000000000000000000000000000000000000000000000\n      dup2\n      mstore\n      0x04\n      add\n      tag_67\n      swap1\n      tag_68\n      jump\t// in\n    tag_67:\n      mload(0x40)\n      dup1\n      swap2\n      sub\n      swap1\n      revert\n    tag_66:\n        /* \"E/Milestone-Based Escrow.sol\":1044:1055  uint256 sum */\n      0x00\n        /* \"E/Milestone-Based Escrow.sol\":1058:1059  0 */\n      0x00\n        /* \"E/Milestone-Based Escrow.sol\":1044:1059  uint256 sum = 0 */\n      swap1\n      pop\n        /* \"E/Milestone-Based Escrow.sol\":1074:1083  uint256 i */\n      0x00\n        /* \"E/Milestone-Based Escrow.sol\":1086:1087  0 */\n      0x00\n        /* \"E/Milestone-Based Escrow.sol\":1074:1087  uint256 i = 0 */\n      swap1\n      pop\n        /* \"E/Milestone-Based Escrow.sol\":1069:1285  for (uint256 i = 0; i < amounts.length; i++) {... */\n    tag_70:\n        /* \"E/Milestone-Based Escrow.sol\":1093:1100  amounts */\n      dup4\n      dup4\n        /* \"E/Milestone-Based Escrow.sol\":1093:1107  amounts.length */\n      swap1\n      pop\n        /* \"E/Milestone-Based Escrow.sol\":1089:1090  i */\n      dup2\n        /* \"E/Milestone-Based Escrow.sol\":1089:1107  i < amounts.length */\n      lt\n        /* \"E/Milestone-Based Escrow.sol\":1069:1285  for (uint256 i = 0; i < amounts.length; i++) {... */\n      iszero\n      tag_71\n      jumpi\n        /* \"E/Milestone-Based Escrow.sol\":1128:1138  milestones */\n      0x03\n        /* \"E/Milestone-Based Escrow.sol\":1144:1194  Milestone({amount: amounts[i], isReleased: false}) */\n      mload(0x40)\n      dup1\n      0x40\n      add\n      0x40\n      mstore\n      dup1\n        /* \"E/Milestone-Based Escrow.sol\":1163:1170  amounts */\n      dup7\n      dup7\n        /* \"E/Milestone-Based Escrow.sol\":1171:1172  i */\n      dup6\n        /* \"E/Milestone-Based Escrow.sol\":1163:1173  amounts[i] */\n      dup2\n      dup2\n      lt\n      tag_73\n      jumpi\n      tag_74\n      tag_51\n      jump\t// in\n    tag_74:\n    tag_73:\n      swap1\n      pop\n      0x20\n      mul\n      add\n      calldataload\n        /* \"E/Milestone-Based Escrow.sol\":1144:1194  Milestone({amount: amounts[i], isReleased: false}) */\n      dup2\n      mstore\n      0x20\n      add\n        /* \"E/Milestone-Based Escrow.sol\":1187:1192  false */\n      0x00\n        /* \"E/Milestone-Based Escrow.sol\":1144:1194  Milestone({amount: amounts[i], isReleased: false}) */\n      iszero\n      iszero\n      dup2\n      mstore\n      pop\n        /* \"E/Milestone-Based Escrow.sol\":1128:1195  milestones.push(Milestone({amount: amounts[i], isReleased: false})) */\n      swap1\n      dup1\n      0x01\n      dup2\n      sload\n      add\n      dup1\n      dup3\n      sstore\n      dup1\n      swap2\n      pop\n      pop\n      0x01\n      swap1\n      sub\n      swap1\n      0x00\n      mstore\n      keccak256(0x00, 0x20)\n      swap1\n      0x02\n      mul\n      add\n      0x00\n      swap1\n      swap2\n      swap1\n      swap2\n      swap1\n      swap2\n      pop\n      0x00\n      dup3\n      add\n      mload\n      dup2\n      0x00\n      add\n      sstore\n      0x20\n      dup3\n      add\n      mload\n      dup2\n      0x01\n      add\n      exp(0x0100, 0x00)\n      dup2\n      sload\n      dup2\n      0xff\n      mul\n      not\n      and\n      swap1\n      dup4\n      iszero\n      iszero\n      mul\n      or\n      swap1\n      sstore\n      pop\n      pop\n      pop\n        /* \"E/Milestone-Based Escrow.sol\":1216:1223  amounts */\n      dup4\n      dup4\n        /* \"E/Milestone-Based Escrow.sol\":1224:1225  i */\n      dup3\n        /* \"E/Milestone-Based Escrow.sol\":1216:1226  amounts[i] */\n      dup2\n      dup2\n      lt\n      tag_76\n      jumpi\n      tag_77\n      tag_51\n      jump\t// in\n    tag_77:\n    tag_76:\n      swap1\n      pop\n      0x20\n      mul\n      add\n      calldataload\n        /* \"E/Milestone-Based Escrow.sol\":1209:1226  sum += amounts[i] */\n      dup3\n      tag_78\n      swap2\n      swap1\n      tag_79\n      jump\t// in\n    tag_78:\n      swap2\n      pop\n        /* \"E/Milestone-Based Escrow.sol\":1260:1261  i */\n      dup1\n        /* \"E/Milestone-Based Escrow.sol\":1245:1274  MilestoneAdded(i, amounts[i]) */\n      0xeb0a448faf1db18876f6c843c35c660823db4038188aedad797bd3ef46ada371\n        /* \"E/Milestone-Based Escrow.sol\":1263:1270  amounts */\n      dup6\n      dup6\n        /* \"E/Milestone-Based Escrow.sol\":1271:1272  i */\n      dup5\n        /* \"E/Milestone-Based Escrow.sol\":1263:1273  amounts[i] */\n      dup2\n      dup2\n      lt\n      tag_80\n      jumpi\n      tag_81\n      tag_51\n      jump\t// in\n    tag_81:\n    tag_80:\n      swap1\n      pop\n      0x20\n      mul\n      add\n      calldataload\n        /* \"E/Milestone-Based Escrow.sol\":1245:1274  MilestoneAdded(i, amounts[i]) */\n      mload(0x40)\n      tag_82\n      swap2\n      swap1\n      tag_40\n      jump\t// in\n    tag_82:\n      mload(0x40)\n      dup1\n      swap2\n      sub\n      swap1\n      log2\n        /* \"E/Milestone-Based Escrow.sol\":1109:1112  i++ */\n      dup1\n      dup1\n      0x01\n      add\n      swap2\n      pop\n      pop\n        /* \"E/Milestone-Based Escrow.sol\":1069:1285  for (uint256 i = 0; i < amounts.length; i++) {... */\n      jump(tag_70)\n    tag_71:\n      pop\n        /* \"E/Milestone-Based Escrow.sol\":1309:1323  totalDeposited */\n      sload(0x04)\n        /* \"E/Milestone-Based Escrow.sol\":1302:1305  sum */\n      dup2\n        /* \"E/Milestone-Based Escrow.sol\":1302:1323  sum == totalDeposited */\n      eq\n        /* \"E/Milestone-Based Escrow.sol\":1294:1354  require(sum == totalDeposited, \"Amounts must equal deposit\") */\n      tag_83\n      jumpi\n      mload(0x40)\n      0x08c379a000000000000000000000000000000000000000000000000000000000\n      dup2\n      mstore\n      0x04\n      add\n      tag_84\n      swap1\n      tag_85\n      jump\t// in\n    tag_84:\n      mload(0x40)\n      dup1\n      swap2\n      sub\n      swap1\n      revert\n    tag_83:\n        /* \"E/Milestone-Based Escrow.sol\":1034:1361  {... */\n      pop\n        /* \"E/Milestone-Based Escrow.sol\":960:1361  function addMilestones(uint256[] calldata amounts) external onlyDepositor {... */\n      pop\n      pop\n      jump\t// out\n        /* \"E/Milestone-Based Escrow.sol\":1792:2081  function refundRemaining() external onlyDepositor {... */\n    tag_25:\n        /* \"E/Milestone-Based Escrow.sol\":654:663  depositor */\n      0x00\n      0x00\n      swap1\n      sload\n      swap1\n      0x0100\n      exp\n      swap1\n      div\n      0xffffffffffffffffffffffffffffffffffffffff\n      and\n        /* \"E/Milestone-Based Escrow.sol\":640:663  msg.sender == depositor */\n      0xffffffffffffffffffffffffffffffffffffffff\n      and\n        /* \"E/Milestone-Based Escrow.sol\":640:650  msg.sender */\n      caller\n        /* \"E/Milestone-Based Escrow.sol\":640:663  msg.sender == depositor */\n      0xffffffffffffffffffffffffffffffffffffffff\n      and\n      eq\n        /* \"E/Milestone-Based Escrow.sol\":632:682  require(msg.sender == depositor, \"Only depositor\") */\n      tag_87\n      jumpi\n      mload(0x40)\n      0x08c379a000000000000000000000000000000000000000000000000000000000\n      dup2\n      mstore\n      0x04\n      add\n      tag_88\n      swap1\n      tag_68\n      jump\t// in\n    tag_88:\n      mload(0x40)\n      dup1\n      swap2\n      sub\n      swap1\n      revert\n    tag_87:\n        /* \"E/Milestone-Based Escrow.sol\":1852:1867  uint256 balance */\n      0x00\n        /* \"E/Milestone-Based Escrow.sol\":1870:1891  address(this).balance */\n      selfbalance\n        /* \"E/Milestone-Based Escrow.sol\":1852:1891  uint256 balance = address(this).balance */\n      swap1\n      pop\n        /* \"E/Milestone-Based Escrow.sol\":1919:1920  0 */\n      0x00\n        /* \"E/Milestone-Based Escrow.sol\":1909:1916  balance */\n      dup2\n        /* \"E/Milestone-Based Escrow.sol\":1909:1920  balance > 0 */\n      gt\n        /* \"E/Milestone-Based Escrow.sol\":1901:1942  require(balance > 0, \"Nothing to refund\") */\n      tag_90\n      jumpi\n      mload(0x40)\n      0x08c379a000000000000000000000000000000000000000000000000000000000\n      dup2\n      mstore\n      0x04\n      add\n      tag_91\n      swap1\n      tag_92\n      jump\t// in\n    tag_91:\n      mload(0x40)\n      dup1\n      swap2\n      sub\n      swap1\n      revert\n    tag_90:\n        /* \"E/Milestone-Based Escrow.sol\":1953:1962  bool sent */\n      0x00\n        /* \"E/Milestone-Based Escrow.sol\":1968:1977  depositor */\n      0x00\n      0x00\n      swap1\n      sload\n      swap1\n      0x0100\n      exp\n      swap1\n      div\n      0xffffffffffffffffffffffffffffffffffffffff\n      and\n        /* \"E/Milestone-Based Escrow.sol\":1968:1982  depositor.call */\n      0xffffffffffffffffffffffffffffffffffffffff\n      and\n        /* \"E/Milestone-Based Escrow.sol\":1990:1997  balance */\n      dup3\n        /* \"E/Milestone-Based Escrow.sol\":1968:2002  depositor.call{value: balance}(\"\") */\n      mload(0x40)\n      tag_93\n      swap1\n      tag_57\n      jump\t// in\n    tag_93:\n      0x00\n      mload(0x40)\n      dup1\n      dup4\n      sub\n      dup2\n      dup6\n      dup8\n      gas\n      call\n      swap3\n      pop\n      pop\n      pop\n      returndatasize\n      dup1\n      0x00\n      dup2\n      eq\n      tag_96\n      jumpi\n      mload(0x40)\n      swap2\n      pop\n      and(add(returndatasize, 0x3f), not(0x1f))\n      dup3\n      add\n      0x40\n      mstore\n      returndatasize\n      dup3\n      mstore\n      returndatasize\n      0x00\n      0x20\n      dup5\n      add\n      returndatacopy\n      jump(tag_95)\n    tag_96:\n      0x60\n      swap2\n      pop\n    tag_95:\n      pop\n        /* \"E/Milestone-Based Escrow.sol\":1952:2002  (bool sent, ) = depositor.call{value: balance}(\"\") */\n      pop\n      swap1\n      pop\n        /* \"E/Milestone-Based Escrow.sol\":2020:2024  sent */\n      dup1\n        /* \"E/Milestone-Based Escrow.sol\":2012:2042  require(sent, \"Refund failed\") */\n      tag_97\n      jumpi\n      mload(0x40)\n      0x08c379a000000000000000000000000000000000000000000000000000000000\n      dup2\n      mstore\n      0x04\n      add\n      tag_98\n      swap1\n      tag_99\n      jump\t// in\n    tag_98:\n      mload(0x40)\n      dup1\n      swap2\n      sub\n      swap1\n      revert\n    tag_97:\n        /* \"E/Milestone-Based Escrow.sol\":2057:2074  Refunded(balance) */\n      0x3d2a04f53164bedf9a8a46353305d6b2d2261410406df3b41f99ce6489dc003c\n        /* \"E/Milestone-Based Escrow.sol\":2066:2073  balance */\n      dup3\n        /* \"E/Milestone-Based Escrow.sol\":2057:2074  Refunded(balance) */\n      mload(0x40)\n      tag_100\n      swap2\n      swap1\n      tag_40\n      jump\t// in\n    tag_100:\n      mload(0x40)\n      dup1\n      swap2\n      sub\n      swap1\n      log1\n        /* \"E/Milestone-Based Escrow.sol\":1842:2081  {... */\n      pop\n      pop\n        /* \"E/Milestone-Based Escrow.sol\":1792:2081  function refundRemaining() external onlyDepositor {... */\n      jump\t// out\n        /* \"E/Milestone-Based Escrow.sol\":89:113  address public depositor */\n    tag_27:\n      0x00\n      0x00\n      swap1\n      sload\n      swap1\n      0x0100\n      exp\n      swap1\n      div\n      0xffffffffffffffffffffffffffffffffffffffff\n      and\n      dup2\n      jump\t// out\n        /* \"E/Milestone-Based Escrow.sol\":259:288  Milestone[] public milestones */\n    tag_31:\n      0x03\n      dup2\n      dup2\n      sload\n      dup2\n      lt\n      tag_101\n      jumpi\n      0x00\n      dup1\n      revert\n    tag_101:\n      swap1\n      0x00\n      mstore\n      keccak256(0x00, 0x20)\n      swap1\n      0x02\n      mul\n      add\n      0x00\n      swap2\n      pop\n      swap1\n      pop\n      dup1\n      0x00\n      add\n      sload\n      swap1\n      dup1\n      0x01\n      add\n      0x00\n      swap1\n      sload\n      swap1\n      0x0100\n      exp\n      swap1\n      div\n      0xff\n      and\n      swap1\n      pop\n      dup3\n      jump\t// out\n        /* \"E/Milestone-Based Escrow.sol\":151:173  address public arbiter */\n    tag_35:\n      0x02\n      0x00\n      swap1\n      sload\n      swap1\n      0x0100\n      exp\n      swap1\n      div\n      0xffffffffffffffffffffffffffffffffffffffff\n      and\n      dup2\n      jump\t// out\n        /* \"E/Milestone-Based Escrow.sol\":294:323  uint256 public totalDeposited */\n    tag_38:\n      sload(0x04)\n      dup2\n      jump\t// out\n        /* \"#utility.yul\":88:205   */\n    tag_104:\n        /* \"#utility.yul\":197:198   */\n      0x00\n        /* \"#utility.yul\":194:195   */\n      0x00\n        /* \"#utility.yul\":187:199   */\n      revert\n        /* \"#utility.yul\":211:328   */\n    tag_105:\n        /* \"#utility.yul\":320:321   */\n      0x00\n        /* \"#utility.yul\":317:318   */\n      0x00\n        /* \"#utility.yul\":310:322   */\n      revert\n        /* \"#utility.yul\":334:411   */\n    tag_106:\n        /* \"#utility.yul\":371:378   */\n      0x00\n        /* \"#utility.yul\":400:405   */\n      dup2\n        /* \"#utility.yul\":389:405   */\n      swap1\n      pop\n        /* \"#utility.yul\":334:411   */\n      swap2\n      swap1\n      pop\n      jump\t// out\n        /* \"#utility.yul\":417:539   */\n    tag_107:\n        /* \"#utility.yul\":490:514   */\n      tag_146\n        /* \"#utility.yul\":508:513   */\n      dup2\n        /* \"#utility.yul\":490:514   */\n      tag_106\n      jump\t// in\n    tag_146:\n        /* \"#utility.yul\":483:488   */\n      dup2\n        /* \"#utility.yul\":480:515   */\n      eq\n        /* \"#utility.yul\":470:533   */\n      tag_147\n      jumpi\n        /* \"#utility.yul\":529:530   */\n      0x00\n        /* \"#utility.yul\":526:527   */\n      0x00\n        /* \"#utility.yul\":519:531   */\n      revert\n        /* \"#utility.yul\":470:533   */\n    tag_147:\n        /* \"#utility.yul\":417:539   */\n      pop\n      jump\t// out\n        /* \"#utility.yul\":545:684   */\n    tag_108:\n        /* \"#utility.yul\":591:596   */\n      0x00\n        /* \"#utility.yul\":629:635   */\n      dup2\n        /* \"#utility.yul\":616:636   */\n      calldataload\n        /* \"#utility.yul\":607:636   */\n      swap1\n      pop\n        /* \"#utility.yul\":645:678   */\n      tag_149\n        /* \"#utility.yul\":672:677   */\n      dup2\n        /* \"#utility.yul\":645:678   */\n      tag_107\n      jump\t// in\n    tag_149:\n        /* \"#utility.yul\":545:684   */\n      swap3\n      swap2\n      pop\n      pop\n      jump\t// out\n        /* \"#utility.yul\":690:1019   */\n    tag_14:\n        /* \"#utility.yul\":749:755   */\n      0x00\n        /* \"#utility.yul\":798:800   */\n      0x20\n        /* \"#utility.yul\":786:795   */\n      dup3\n        /* \"#utility.yul\":777:784   */\n      dup5\n        /* \"#utility.yul\":773:796   */\n      sub\n        /* \"#utility.yul\":769:801   */\n      slt\n        /* \"#utility.yul\":766:885   */\n      iszero\n      tag_151\n      jumpi\n        /* \"#utility.yul\":804:883   */\n      tag_152\n      tag_104\n      jump\t// in\n    tag_152:\n        /* \"#utility.yul\":766:885   */\n    tag_151:\n        /* \"#utility.yul\":924:925   */\n      0x00\n        /* \"#utility.yul\":949:1002   */\n      tag_153\n        /* \"#utility.yul\":994:1001   */\n      dup5\n        /* \"#utility.yul\":985:991   */\n      dup3\n        /* \"#utility.yul\":974:983   */\n      dup6\n        /* \"#utility.yul\":970:992   */\n      add\n        /* \"#utility.yul\":949:1002   */\n      tag_108\n      jump\t// in\n    tag_153:\n        /* \"#utility.yul\":939:1002   */\n      swap2\n      pop\n        /* \"#utility.yul\":895:1012   */\n      pop\n        /* \"#utility.yul\":690:1019   */\n      swap3\n      swap2\n      pop\n      pop\n      jump\t// out\n        /* \"#utility.yul\":1025:1151   */\n    tag_109:\n        /* \"#utility.yul\":1062:1069   */\n      0x00\n        /* \"#utility.yul\":1102:1144   */\n      0xffffffffffffffffffffffffffffffffffffffff\n        /* \"#utility.yul\":1095:1100   */\n      dup3\n        /* \"#utility.yul\":1091:1145   */\n      and\n        /* \"#utility.yul\":1080:1145   */\n      swap1\n      pop\n        /* \"#utility.yul\":1025:1151   */\n      swap2\n      swap1\n      pop\n      jump\t// out\n        /* \"#utility.yul\":1157:1253   */\n    tag_110:\n        /* \"#utility.yul\":1194:1201   */\n      0x00\n        /* \"#utility.yul\":1223:1247   */\n      tag_156\n        /* \"#utility.yul\":1241:1246   */\n      dup3\n        /* \"#utility.yul\":1223:1247   */\n      tag_109\n      jump\t// in\n    tag_156:\n        /* \"#utility.yul\":1212:1247   */\n      swap1\n      pop\n        /* \"#utility.yul\":1157:1253   */\n      swap2\n      swap1\n      pop\n      jump\t// out\n        /* \"#utility.yul\":1259:1377   */\n    tag_111:\n        /* \"#utility.yul\":1346:1370   */\n      tag_158\n        /* \"#utility.yul\":1364:1369   */\n      dup2\n        /* \"#utility.yul\":1346:1370   */\n      tag_110\n      jump\t// in\n    tag_158:\n        /* \"#utility.yul\":1341:1344   */\n      dup3\n        /* \"#utility.yul\":1334:1371   */\n      mstore\n        /* \"#utility.yul\":1259:1377   */\n      pop\n      pop\n      jump\t// out\n        /* \"#utility.yul\":1383:1605   */\n    tag_19:\n        /* \"#utility.yul\":1476:1480   */\n      0x00\n        /* \"#utility.yul\":1514:1516   */\n      0x20\n        /* \"#utility.yul\":1503:1512   */\n      dup3\n        /* \"#utility.yul\":1499:1517   */\n      add\n        /* \"#utility.yul\":1491:1517   */\n      swap1\n      pop\n        /* \"#utility.yul\":1527:1598   */\n      tag_160\n        /* \"#utility.yul\":1595:1596   */\n      0x00\n        /* \"#utility.yul\":1584:1593   */\n      dup4\n        /* \"#utility.yul\":1580:1597   */\n      add\n        /* \"#utility.yul\":1571:1577   */\n      dup5\n        /* \"#utility.yul\":1527:1598   */\n      tag_111\n      jump\t// in\n    tag_160:\n        /* \"#utility.yul\":1383:1605   */\n      swap3\n      swap2\n      pop\n      pop\n      jump\t// out\n        /* \"#utility.yul\":1611:1728   */\n    tag_112:\n        /* \"#utility.yul\":1720:1721   */\n      0x00\n        /* \"#utility.yul\":1717:1718   */\n      0x00\n        /* \"#utility.yul\":1710:1722   */\n      revert\n        /* \"#utility.yul\":1734:1851   */\n    tag_113:\n        /* \"#utility.yul\":1843:1844   */\n      0x00\n        /* \"#utility.yul\":1840:1841   */\n      0x00\n        /* \"#utility.yul\":1833:1845   */\n      revert\n        /* \"#utility.yul\":1857:1974   */\n    tag_114:\n        /* \"#utility.yul\":1966:1967   */\n      0x00\n        /* \"#utility.yul\":1963:1964   */\n      0x00\n        /* \"#utility.yul\":1956:1968   */\n      revert\n        /* \"#utility.yul\":1997:2565   */\n    tag_115:\n        /* \"#utility.yul\":2070:2078   */\n      0x00\n        /* \"#utility.yul\":2080:2086   */\n      0x00\n        /* \"#utility.yul\":2130:2133   */\n      dup4\n        /* \"#utility.yul\":2123:2127   */\n      0x1f\n        /* \"#utility.yul\":2115:2121   */\n      dup5\n        /* \"#utility.yul\":2111:2128   */\n      add\n        /* \"#utility.yul\":2107:2134   */\n      slt\n        /* \"#utility.yul\":2097:2219   */\n      tag_165\n      jumpi\n        /* \"#utility.yul\":2138:2217   */\n      tag_166\n      tag_112\n      jump\t// in\n    tag_166:\n        /* \"#utility.yul\":2097:2219   */\n    tag_165:\n        /* \"#utility.yul\":2251:2257   */\n      dup3\n        /* \"#utility.yul\":2238:2258   */\n      calldataload\n        /* \"#utility.yul\":2228:2258   */\n      swap1\n      pop\n        /* \"#utility.yul\":2281:2299   */\n      0xffffffffffffffff\n        /* \"#utility.yul\":2273:2279   */\n      dup2\n        /* \"#utility.yul\":2270:2300   */\n      gt\n        /* \"#utility.yul\":2267:2384   */\n      iszero\n      tag_167\n      jumpi\n        /* \"#utility.yul\":2303:2382   */\n      tag_168\n      tag_113\n      jump\t// in\n    tag_168:\n        /* \"#utility.yul\":2267:2384   */\n    tag_167:\n        /* \"#utility.yul\":2417:2421   */\n      0x20\n        /* \"#utility.yul\":2409:2415   */\n      dup4\n        /* \"#utility.yul\":2405:2422   */\n      add\n        /* \"#utility.yul\":2393:2422   */\n      swap2\n      pop\n        /* \"#utility.yul\":2471:2474   */\n      dup4\n        /* \"#utility.yul\":2463:2467   */\n      0x20\n        /* \"#utility.yul\":2455:2461   */\n      dup3\n        /* \"#utility.yul\":2451:2468   */\n      mul\n        /* \"#utility.yul\":2441:2449   */\n      dup4\n        /* \"#utility.yul\":2437:2469   */\n      add\n        /* \"#utility.yul\":2434:2475   */\n      gt\n        /* \"#utility.yul\":2431:2559   */\n      iszero\n      tag_169\n      jumpi\n        /* \"#utility.yul\":2478:2557   */\n      tag_170\n      tag_114\n      jump\t// in\n    tag_170:\n        /* \"#utility.yul\":2431:2559   */\n    tag_169:\n        /* \"#utility.yul\":1997:2565   */\n      swap3\n      pop\n      swap3\n      swap1\n      pop\n      jump\t// out\n        /* \"#utility.yul\":2571:3130   */\n    tag_22:\n        /* \"#utility.yul\":2657:2663   */\n      0x00\n        /* \"#utility.yul\":2665:2671   */\n      0x00\n        /* \"#utility.yul\":2714:2716   */\n      0x20\n        /* \"#utility.yul\":2702:2711   */\n      dup4\n        /* \"#utility.yul\":2693:2700   */\n      dup6\n        /* \"#utility.yul\":2689:2712   */\n      sub\n        /* \"#utility.yul\":2685:2717   */\n      slt\n        /* \"#utility.yul\":2682:2801   */\n      iszero\n      tag_172\n      jumpi\n        /* \"#utility.yul\":2720:2799   */\n      tag_173\n      tag_104\n      jump\t// in\n    tag_173:\n        /* \"#utility.yul\":2682:2801   */\n    tag_172:\n        /* \"#utility.yul\":2868:2869   */\n      0x00\n        /* \"#utility.yul\":2857:2866   */\n      dup4\n        /* \"#utility.yul\":2853:2870   */\n      add\n        /* \"#utility.yul\":2840:2871   */\n      calldataload\n        /* \"#utility.yul\":2898:2916   */\n      0xffffffffffffffff\n        /* \"#utility.yul\":2890:2896   */\n      dup2\n        /* \"#utility.yul\":2887:2917   */\n      gt\n        /* \"#utility.yul\":2884:3001   */\n      iszero\n      tag_174\n      jumpi\n        /* \"#utility.yul\":2920:2999   */\n      tag_175\n      tag_105\n      jump\t// in\n    tag_175:\n        /* \"#utility.yul\":2884:3001   */\n    tag_174:\n        /* \"#utility.yul\":3033:3113   */\n      tag_176\n        /* \"#utility.yul\":3105:3112   */\n      dup6\n        /* \"#utility.yul\":3096:3102   */\n      dup3\n        /* \"#utility.yul\":3085:3094   */\n      dup7\n        /* \"#utility.yul\":3081:3103   */\n      add\n        /* \"#utility.yul\":3033:3113   */\n      tag_115\n      jump\t// in\n    tag_176:\n        /* \"#utility.yul\":3015:3113   */\n      swap3\n      pop\n      swap3\n      pop\n        /* \"#utility.yul\":2811:3123   */\n      pop\n        /* \"#utility.yul\":2571:3130   */\n      swap3\n      pop\n      swap3\n      swap1\n      pop\n      jump\t// out\n        /* \"#utility.yul\":3136:3254   */\n    tag_116:\n        /* \"#utility.yul\":3223:3247   */\n      tag_178\n        /* \"#utility.yul\":3241:3246   */\n      dup2\n        /* \"#utility.yul\":3223:3247   */\n      tag_106\n      jump\t// in\n    tag_178:\n        /* \"#utility.yul\":3218:3221   */\n      dup3\n        /* \"#utility.yul\":3211:3248   */\n      mstore\n        /* \"#utility.yul\":3136:3254   */\n      pop\n      pop\n      jump\t// out\n        /* \"#utility.yul\":3260:3350   */\n    tag_117:\n        /* \"#utility.yul\":3294:3301   */\n      0x00\n        /* \"#utility.yul\":3337:3342   */\n      dup2\n        /* \"#utility.yul\":3330:3343   */\n      iszero\n        /* \"#utility.yul\":3323:3344   */\n      iszero\n        /* \"#utility.yul\":3312:3344   */\n      swap1\n      pop\n        /* \"#utility.yul\":3260:3350   */\n      swap2\n      swap1\n      pop\n      jump\t// out\n        /* \"#utility.yul\":3356:3465   */\n    tag_118:\n        /* \"#utility.yul\":3437:3458   */\n      tag_181\n        /* \"#utility.yul\":3452:3457   */\n      dup2\n        /* \"#utility.yul\":3437:3458   */\n      tag_117\n      jump\t// in\n    tag_181:\n        /* \"#utility.yul\":3432:3435   */\n      dup3\n        /* \"#utility.yul\":3425:3459   */\n      mstore\n        /* \"#utility.yul\":3356:3465   */\n      pop\n      pop\n      jump\t// out\n        /* \"#utility.yul\":3471:3791   */\n    tag_33:\n        /* \"#utility.yul\":3586:3590   */\n      0x00\n        /* \"#utility.yul\":3624:3626   */\n      0x40\n        /* \"#utility.yul\":3613:3622   */\n      dup3\n        /* \"#utility.yul\":3609:3627   */\n      add\n        /* \"#utility.yul\":3601:3627   */\n      swap1\n      pop\n        /* \"#utility.yul\":3637:3708   */\n      tag_183\n        /* \"#utility.yul\":3705:3706   */\n      0x00\n        /* \"#utility.yul\":3694:3703   */\n      dup4\n        /* \"#utility.yul\":3690:3707   */\n      add\n        /* \"#utility.yul\":3681:3687   */\n      dup6\n        /* \"#utility.yul\":3637:3708   */\n      tag_116\n      jump\t// in\n    tag_183:\n        /* \"#utility.yul\":3718:3784   */\n      tag_184\n        /* \"#utility.yul\":3780:3782   */\n      0x20\n        /* \"#utility.yul\":3769:3778   */\n      dup4\n        /* \"#utility.yul\":3765:3783   */\n      add\n        /* \"#utility.yul\":3756:3762   */\n      dup5\n        /* \"#utility.yul\":3718:3784   */\n      tag_118\n      jump\t// in\n    tag_184:\n        /* \"#utility.yul\":3471:3791   */\n      swap4\n      swap3\n      pop\n      pop\n      pop\n      jump\t// out\n        /* \"#utility.yul\":3797:4019   */\n    tag_40:\n        /* \"#utility.yul\":3890:3894   */\n      0x00\n        /* \"#utility.yul\":3928:3930   */\n      0x20\n        /* \"#utility.yul\":3917:3926   */\n      dup3\n        /* \"#utility.yul\":3913:3931   */\n      add\n        /* \"#utility.yul\":3905:3931   */\n      swap1\n      pop\n        /* \"#utility.yul\":3941:4012   */\n      tag_186\n        /* \"#utility.yul\":4009:4010   */\n      0x00\n        /* \"#utility.yul\":3998:4007   */\n      dup4\n        /* \"#utility.yul\":3994:4011   */\n      add\n        /* \"#utility.yul\":3985:3991   */\n      dup5\n        /* \"#utility.yul\":3941:4012   */\n      tag_116\n      jump\t// in\n    tag_186:\n        /* \"#utility.yul\":3797:4019   */\n      swap3\n      swap2\n      pop\n      pop\n      jump\t// out\n        /* \"#utility.yul\":4025:4194   */\n    tag_119:\n        /* \"#utility.yul\":4109:4120   */\n      0x00\n        /* \"#utility.yul\":4143:4149   */\n      dup3\n        /* \"#utility.yul\":4138:4141   */\n      dup3\n        /* \"#utility.yul\":4131:4150   */\n      mstore\n        /* \"#utility.yul\":4183:4187   */\n      0x20\n        /* \"#utility.yul\":4178:4181   */\n      dup3\n        /* \"#utility.yul\":4174:4188   */\n      add\n        /* \"#utility.yul\":4159:4188   */\n      swap1\n      pop\n        /* \"#utility.yul\":4025:4194   */\n      swap3\n      swap2\n      pop\n      pop\n      jump\t// out\n        /* \"#utility.yul\":4200:4362   */\n    tag_120:\n        /* \"#utility.yul\":4340:4354   */\n      0x4f6e6c7920617262697465720000000000000000000000000000000000000000\n        /* \"#utility.yul\":4336:4337   */\n      0x00\n        /* \"#utility.yul\":4328:4334   */\n      dup3\n        /* \"#utility.yul\":4324:4338   */\n      add\n        /* \"#utility.yul\":4317:4355   */\n      mstore\n        /* \"#utility.yul\":4200:4362   */\n      pop\n      jump\t// out\n        /* \"#utility.yul\":4368:4734   */\n    tag_121:\n        /* \"#utility.yul\":4510:4513   */\n      0x00\n        /* \"#utility.yul\":4531:4598   */\n      tag_190\n        /* \"#utility.yul\":4595:4597   */\n      0x0c\n        /* \"#utility.yul\":4590:4593   */\n      dup4\n        /* \"#utility.yul\":4531:4598   */\n      tag_119\n      jump\t// in\n    tag_190:\n        /* \"#utility.yul\":4524:4598   */\n      swap2\n      pop\n        /* \"#utility.yul\":4607:4700   */\n      tag_191\n        /* \"#utility.yul\":4696:4699   */\n      dup3\n        /* \"#utility.yul\":4607:4700   */\n      tag_120\n      jump\t// in\n    tag_191:\n        /* \"#utility.yul\":4725:4727   */\n      0x20\n        /* \"#utility.yul\":4720:4723   */\n      dup3\n        /* \"#utility.yul\":4716:4728   */\n      add\n        /* \"#utility.yul\":4709:4728   */\n      swap1\n      pop\n        /* \"#utility.yul\":4368:4734   */\n      swap2\n      swap1\n      pop\n      jump\t// out\n        /* \"#utility.yul\":4740:5159   */\n    tag_44:\n        /* \"#utility.yul\":4906:4910   */\n      0x00\n        /* \"#utility.yul\":4944:4946   */\n      0x20\n        /* \"#utility.yul\":4933:4942   */\n      dup3\n        /* \"#utility.yul\":4929:4947   */\n      add\n        /* \"#utility.yul\":4921:4947   */\n      swap1\n      pop\n        /* \"#utility.yul\":4993:5002   */\n      dup2\n        /* \"#utility.yul\":4987:4991   */\n      dup2\n        /* \"#utility.yul\":4983:5003   */\n      sub\n        /* \"#utility.yul\":4979:4980   */\n      0x00\n        /* \"#utility.yul\":4968:4977   */\n      dup4\n        /* \"#utility.yul\":4964:4981   */\n      add\n        /* \"#utility.yul\":4957:5004   */\n      mstore\n        /* \"#utility.yul\":5021:5152   */\n      tag_193\n        /* \"#utility.yul\":5147:5151   */\n      dup2\n        /* \"#utility.yul\":5021:5152   */\n      tag_121\n      jump\t// in\n    tag_193:\n        /* \"#utility.yul\":5013:5152   */\n      swap1\n      pop\n        /* \"#utility.yul\":4740:5159   */\n      swap2\n      swap1\n      pop\n      jump\t// out\n        /* \"#utility.yul\":5165:5332   */\n    tag_122:\n        /* \"#utility.yul\":5305:5324   */\n      0x496e76616c6964206d696c6573746f6e65000000000000000000000000000000\n        /* \"#utility.yul\":5301:5302   */\n      0x00\n        /* \"#utility.yul\":5293:5299   */\n      dup3\n        /* \"#utility.yul\":5289:5303   */\n      add\n        /* \"#utility.yul\":5282:5325   */\n      mstore\n        /* \"#utility.yul\":5165:5332   */\n      pop\n      jump\t// out\n        /* \"#utility.yul\":5338:5704   */\n    tag_123:\n        /* \"#utility.yul\":5480:5483   */\n      0x00\n        /* \"#utility.yul\":5501:5568   */\n      tag_196\n        /* \"#utility.yul\":5565:5567   */\n      0x11\n        /* \"#utility.yul\":5560:5563   */\n      dup4\n        /* \"#utility.yul\":5501:5568   */\n      tag_119\n      jump\t// in\n    tag_196:\n        /* \"#utility.yul\":5494:5568   */\n      swap2\n      pop\n        /* \"#utility.yul\":5577:5670   */\n      tag_197\n        /* \"#utility.yul\":5666:5669   */\n      dup3\n        /* \"#utility.yul\":5577:5670   */\n      tag_122\n      jump\t// in\n    tag_197:\n        /* \"#utility.yul\":5695:5697   */\n      0x20\n        /* \"#utility.yul\":5690:5693   */\n      dup3\n        /* \"#utility.yul\":5686:5698   */\n      add\n        /* \"#utility.yul\":5679:5698   */\n      swap1\n      pop\n        /* \"#utility.yul\":5338:5704   */\n      swap2\n      swap1\n      pop\n      jump\t// out\n        /* \"#utility.yul\":5710:6129   */\n    tag_48:\n        /* \"#utility.yul\":5876:5880   */\n      0x00\n        /* \"#utility.yul\":5914:5916   */\n      0x20\n        /* \"#utility.yul\":5903:5912   */\n      dup3\n        /* \"#utility.yul\":5899:5917   */\n      add\n        /* \"#utility.yul\":5891:5917   */\n      swap1\n      pop\n        /* \"#utility.yul\":5963:5972   */\n      dup2\n        /* \"#utility.yul\":5957:5961   */\n      dup2\n        /* \"#utility.yul\":5953:5973   */\n      sub\n        /* \"#utility.yul\":5949:5950   */\n      0x00\n        /* \"#utility.yul\":5938:5947   */\n      dup4\n        /* \"#utility.yul\":5934:5951   */\n      add\n        /* \"#utility.yul\":5927:5974   */\n      mstore\n        /* \"#utility.yul\":5991:6122   */\n      tag_199\n        /* \"#utility.yul\":6117:6121   */\n      dup2\n        /* \"#utility.yul\":5991:6122   */\n      tag_123\n      jump\t// in\n    tag_199:\n        /* \"#utility.yul\":5983:6122   */\n      swap1\n      pop\n        /* \"#utility.yul\":5710:6129   */\n      swap2\n      swap1\n      pop\n      jump\t// out\n        /* \"#utility.yul\":6135:6315   */\n    tag_51:\n        /* \"#utility.yul\":6183:6260   */\n      0x4e487b7100000000000000000000000000000000000000000000000000000000\n        /* \"#utility.yul\":6180:6181   */\n      0x00\n        /* \"#utility.yul\":6173:6261   */\n      mstore\n        /* \"#utility.yul\":6280:6284   */\n      0x32\n        /* \"#utility.yul\":6277:6278   */\n      0x04\n        /* \"#utility.yul\":6270:6285   */\n      mstore\n        /* \"#utility.yul\":6304:6308   */\n      0x24\n        /* \"#utility.yul\":6301:6302   */\n      0x00\n        /* \"#utility.yul\":6294:6309   */\n      revert\n        /* \"#utility.yul\":6321:6487   */\n    tag_124:\n        /* \"#utility.yul\":6461:6479   */\n      0x416c72656164792072656c656173656400000000000000000000000000000000\n        /* \"#utility.yul\":6457:6458   */\n      0x00\n        /* \"#utility.yul\":6449:6455   */\n      dup3\n        /* \"#utility.yul\":6445:6459   */\n      add\n        /* \"#utility.yul\":6438:6480   */\n      mstore\n        /* \"#utility.yul\":6321:6487   */\n      pop\n      jump\t// out\n        /* \"#utility.yul\":6493:6859   */\n    tag_125:\n        /* \"#utility.yul\":6635:6638   */\n      0x00\n        /* \"#utility.yul\":6656:6723   */\n      tag_203\n        /* \"#utility.yul\":6720:6722   */\n      0x10\n        /* \"#utility.yul\":6715:6718   */\n      dup4\n        /* \"#utility.yul\":6656:6723   */\n      tag_119\n      jump\t// in\n    tag_203:\n        /* \"#utility.yul\":6649:6723   */\n      swap2\n      pop\n        /* \"#utility.yul\":6732:6825   */\n      tag_204\n        /* \"#utility.yul\":6821:6824   */\n      dup3\n        /* \"#utility.yul\":6732:6825   */\n      tag_124\n      jump\t// in\n    tag_204:\n        /* \"#utility.yul\":6850:6852   */\n      0x20\n        /* \"#utility.yul\":6845:6848   */\n      dup3\n        /* \"#utility.yul\":6841:6853   */\n      add\n        /* \"#utility.yul\":6834:6853   */\n      swap1\n      pop\n        /* \"#utility.yul\":6493:6859   */\n      swap2\n      swap1\n      pop\n      jump\t// out\n        /* \"#utility.yul\":6865:7284   */\n    tag_55:\n        /* \"#utility.yul\":7031:7035   */\n      0x00\n        /* \"#utility.yul\":7069:7071   */\n      0x20\n        /* \"#utility.yul\":7058:7067   */\n      dup3\n        /* \"#utility.yul\":7054:7072   */\n      add\n        /* \"#utility.yul\":7046:7072   */\n      swap1\n      pop\n        /* \"#utility.yul\":7118:7127   */\n      dup2\n        /* \"#utility.yul\":7112:7116   */\n      dup2\n        /* \"#utility.yul\":7108:7128   */\n      sub\n        /* \"#utility.yul\":7104:7105   */\n      0x00\n        /* \"#utility.yul\":7093:7102   */\n      dup4\n        /* \"#utility.yul\":7089:7106   */\n      add\n        /* \"#utility.yul\":7082:7129   */\n      mstore\n        /* \"#utility.yul\":7146:7277   */\n      tag_206\n        /* \"#utility.yul\":7272:7276   */\n      dup2\n        /* \"#utility.yul\":7146:7277   */\n      tag_125\n      jump\t// in\n    tag_206:\n        /* \"#utility.yul\":7138:7277   */\n      swap1\n      pop\n        /* \"#utility.yul\":6865:7284   */\n      swap2\n      swap1\n      pop\n      jump\t// out\n        /* \"#utility.yul\":7290:7437   */\n    tag_126:\n        /* \"#utility.yul\":7391:7402   */\n      0x00\n        /* \"#utility.yul\":7428:7431   */\n      dup2\n        /* \"#utility.yul\":7413:7431   */\n      swap1\n      pop\n        /* \"#utility.yul\":7290:7437   */\n      swap3\n      swap2\n      pop\n      pop\n      jump\t// out\n        /* \"#utility.yul\":7443:7557   */\n    tag_127:\n      pop\n      jump\t// out\n        /* \"#utility.yul\":7563:7961   */\n    tag_128:\n        /* \"#utility.yul\":7722:7725   */\n      0x00\n        /* \"#utility.yul\":7743:7826   */\n      tag_210\n        /* \"#utility.yul\":7824:7825   */\n      0x00\n        /* \"#utility.yul\":7819:7822   */\n      dup4\n        /* \"#utility.yul\":7743:7826   */\n      tag_126\n      jump\t// in\n    tag_210:\n        /* \"#utility.yul\":7736:7826   */\n      swap2\n      pop\n        /* \"#utility.yul\":7835:7928   */\n      tag_211\n        /* \"#utility.yul\":7924:7927   */\n      dup3\n        /* \"#utility.yul\":7835:7928   */\n      tag_127\n      jump\t// in\n    tag_211:\n        /* \"#utility.yul\":7953:7954   */\n      0x00\n        /* \"#utility.yul\":7948:7951   */\n      dup3\n        /* \"#utility.yul\":7944:7955   */\n      add\n        /* \"#utility.yul\":7937:7955   */\n      swap1\n      pop\n        /* \"#utility.yul\":7563:7961   */\n      swap2\n      swap1\n      pop\n      jump\t// out\n        /* \"#utility.yul\":7967:8346   */\n    tag_57:\n        /* \"#utility.yul\":8151:8154   */\n      0x00\n        /* \"#utility.yul\":8173:8320   */\n      tag_213\n        /* \"#utility.yul\":8316:8319   */\n      dup3\n        /* \"#utility.yul\":8173:8320   */\n      tag_128\n      jump\t// in\n    tag_213:\n        /* \"#utility.yul\":8166:8320   */\n      swap2\n      pop\n        /* \"#utility.yul\":8337:8340   */\n      dup2\n        /* \"#utility.yul\":8330:8340   */\n      swap1\n      pop\n        /* \"#utility.yul\":7967:8346   */\n      swap2\n      swap1\n      pop\n      jump\t// out\n        /* \"#utility.yul\":8352:8517   */\n    tag_129:\n        /* \"#utility.yul\":8492:8509   */\n      0x5472616e73666572206661696c65640000000000000000000000000000000000\n        /* \"#utility.yul\":8488:8489   */\n      0x00\n        /* \"#utility.yul\":8480:8486   */\n      dup3\n        /* \"#utility.yul\":8476:8490   */\n      add\n        /* \"#utility.yul\":8469:8510   */\n      mstore\n        /* \"#utility.yul\":8352:8517   */\n      pop\n      jump\t// out\n        /* \"#utility.yul\":8523:8889   */\n    tag_130:\n        /* \"#utility.yul\":8665:8668   */\n      0x00\n        /* \"#utility.yul\":8686:8753   */\n      tag_216\n        /* \"#utility.yul\":8750:8752   */\n      0x0f\n        /* \"#utility.yul\":8745:8748   */\n      dup4\n        /* \"#utility.yul\":8686:8753   */\n      tag_119\n      jump\t// in\n    tag_216:\n        /* \"#utility.yul\":8679:8753   */\n      swap2\n      pop\n        /* \"#utility.yul\":8762:8855   */\n      tag_217\n        /* \"#utility.yul\":8851:8854   */\n      dup3\n        /* \"#utility.yul\":8762:8855   */\n      tag_129\n      jump\t// in\n    tag_217:\n        /* \"#utility.yul\":8880:8882   */\n      0x20\n        /* \"#utility.yul\":8875:8878   */\n      dup3\n        /* \"#utility.yul\":8871:8883   */\n      add\n        /* \"#utility.yul\":8864:8883   */\n      swap1\n      pop\n        /* \"#utility.yul\":8523:8889   */\n      swap2\n      swap1\n      pop\n      jump\t// out\n        /* \"#utility.yul\":8895:9314   */\n    tag_63:\n        /* \"#utility.yul\":9061:9065   */\n      0x00\n        /* \"#utility.yul\":9099:9101   */\n      0x20\n        /* \"#utility.yul\":9088:9097   */\n      dup3\n        /* \"#utility.yul\":9084:9102   */\n      add\n        /* \"#utility.yul\":9076:9102   */\n      swap1\n      pop\n        /* \"#utility.yul\":9148:9157   */\n      dup2\n        /* \"#utility.yul\":9142:9146   */\n      dup2\n        /* \"#utility.yul\":9138:9158   */\n      sub\n        /* \"#utility.yul\":9134:9135   */\n      0x00\n        /* \"#utility.yul\":9123:9132   */\n      dup4\n        /* \"#utility.yul\":9119:9136   */\n      add\n        /* \"#utility.yul\":9112:9159   */\n      mstore\n        /* \"#utility.yul\":9176:9307   */\n      tag_219\n        /* \"#utility.yul\":9302:9306   */\n      dup2\n        /* \"#utility.yul\":9176:9307   */\n      tag_130\n      jump\t// in\n    tag_219:\n        /* \"#utility.yul\":9168:9307   */\n      swap1\n      pop\n        /* \"#utility.yul\":8895:9314   */\n      swap2\n      swap1\n      pop\n      jump\t// out\n        /* \"#utility.yul\":9320:9484   */\n    tag_131:\n        /* \"#utility.yul\":9460:9476   */\n      0x4f6e6c79206465706f7369746f72000000000000000000000000000000000000\n        /* \"#utility.yul\":9456:9457   */\n      0x00\n        /* \"#utility.yul\":9448:9454   */\n      dup3\n        /* \"#utility.yul\":9444:9458   */\n      add\n        /* \"#utility.yul\":9437:9477   */\n      mstore\n        /* \"#utility.yul\":9320:9484   */\n      pop\n      jump\t// out\n        /* \"#utility.yul\":9490:9856   */\n    tag_132:\n        /* \"#utility.yul\":9632:9635   */\n      0x00\n        /* \"#utility.yul\":9653:9720   */\n      tag_222\n        /* \"#utility.yul\":9717:9719   */\n      0x0e\n        /* \"#utility.yul\":9712:9715   */\n      dup4\n        /* \"#utility.yul\":9653:9720   */\n      tag_119\n      jump\t// in\n    tag_222:\n        /* \"#utility.yul\":9646:9720   */\n      swap2\n      pop\n        /* \"#utility.yul\":9729:9822   */\n      tag_223\n        /* \"#utility.yul\":9818:9821   */\n      dup3\n        /* \"#utility.yul\":9729:9822   */\n      tag_131\n      jump\t// in\n    tag_223:\n        /* \"#utility.yul\":9847:9849   */\n      0x20\n        /* \"#utility.yul\":9842:9845   */\n      dup3\n        /* \"#utility.yul\":9838:9850   */\n      add\n        /* \"#utility.yul\":9831:9850   */\n      swap1\n      pop\n        /* \"#utility.yul\":9490:9856   */\n      swap2\n      swap1\n      pop\n      jump\t// out\n        /* \"#utility.yul\":9862:10281   */\n    tag_68:\n        /* \"#utility.yul\":10028:10032   */\n      0x00\n        /* \"#utility.yul\":10066:10068   */\n      0x20\n        /* \"#utility.yul\":10055:10064   */\n      dup3\n        /* \"#utility.yul\":10051:10069   */\n      add\n        /* \"#utility.yul\":10043:10069   */\n      swap1\n      pop\n        /* \"#utility.yul\":10115:10124   */\n      dup2\n        /* \"#utility.yul\":10109:10113   */\n      dup2\n        /* \"#utility.yul\":10105:10125   */\n      sub\n        /* \"#utility.yul\":10101:10102   */\n      0x00\n        /* \"#utility.yul\":10090:10099   */\n      dup4\n        /* \"#utility.yul\":10086:10103   */\n      add\n        /* \"#utility.yul\":10079:10126   */\n      mstore\n        /* \"#utility.yul\":10143:10274   */\n      tag_225\n        /* \"#utility.yul\":10269:10273   */\n      dup2\n        /* \"#utility.yul\":10143:10274   */\n      tag_132\n      jump\t// in\n    tag_225:\n        /* \"#utility.yul\":10135:10274   */\n      swap1\n      pop\n        /* \"#utility.yul\":9862:10281   */\n      swap2\n      swap1\n      pop\n      jump\t// out\n        /* \"#utility.yul\":10287:10467   */\n    tag_133:\n        /* \"#utility.yul\":10335:10412   */\n      0x4e487b7100000000000000000000000000000000000000000000000000000000\n        /* \"#utility.yul\":10332:10333   */\n      0x00\n        /* \"#utility.yul\":10325:10413   */\n      mstore\n        /* \"#utility.yul\":10432:10436   */\n      0x11\n        /* \"#utility.yul\":10429:10430   */\n      0x04\n        /* \"#utility.yul\":10422:10437   */\n      mstore\n        /* \"#utility.yul\":10456:10460   */\n      0x24\n        /* \"#utility.yul\":10453:10454   */\n      0x00\n        /* \"#utility.yul\":10446:10461   */\n      revert\n        /* \"#utility.yul\":10473:10664   */\n    tag_79:\n        /* \"#utility.yul\":10513:10516   */\n      0x00\n        /* \"#utility.yul\":10532:10552   */\n      tag_228\n        /* \"#utility.yul\":10550:10551   */\n      dup3\n        /* \"#utility.yul\":10532:10552   */\n      tag_106\n      jump\t// in\n    tag_228:\n        /* \"#utility.yul\":10527:10552   */\n      swap2\n      pop\n        /* \"#utility.yul\":10566:10586   */\n      tag_229\n        /* \"#utility.yul\":10584:10585   */\n      dup4\n        /* \"#utility.yul\":10566:10586   */\n      tag_106\n      jump\t// in\n    tag_229:\n        /* \"#utility.yul\":10561:10586   */\n      swap3\n      pop\n        /* \"#utility.yul\":10609:10610   */\n      dup3\n        /* \"#utility.yul\":10606:10607   */\n      dup3\n        /* \"#utility.yul\":10602:10611   */\n      add\n        /* \"#utility.yul\":10595:10611   */\n      swap1\n      pop\n        /* \"#utility.yul\":10630:10633   */\n      dup1\n        /* \"#utility.yul\":10627:10628   */\n      dup3\n        /* \"#utility.yul\":10624:10634   */\n      gt\n        /* \"#utility.yul\":10621:10657   */\n      iszero\n      tag_230\n      jumpi\n        /* \"#utility.yul\":10637:10655   */\n      tag_231\n      tag_133\n      jump\t// in\n    tag_231:\n        /* \"#utility.yul\":10621:10657   */\n    tag_230:\n        /* \"#utility.yul\":10473:10664   */\n      swap3\n      swap2\n      pop\n      pop\n      jump\t// out\n        /* \"#utility.yul\":10670:10846   */\n    tag_134:\n        /* \"#utility.yul\":10810:10838   */\n      0x416d6f756e7473206d75737420657175616c206465706f736974000000000000\n        /* \"#utility.yul\":10806:10807   */\n      0x00\n        /* \"#utility.yul\":10798:10804   */\n      dup3\n        /* \"#utility.yul\":10794:10808   */\n      add\n        /* \"#utility.yul\":10787:10839   */\n      mstore\n        /* \"#utility.yul\":10670:10846   */\n      pop\n      jump\t// out\n        /* \"#utility.yul\":10852:11218   */\n    tag_135:\n        /* \"#utility.yul\":10994:10997   */\n      0x00\n        /* \"#utility.yul\":11015:11082   */\n      tag_234\n        /* \"#utility.yul\":11079:11081   */\n      0x1a\n        /* \"#utility.yul\":11074:11077   */\n      dup4\n        /* \"#utility.yul\":11015:11082   */\n      tag_119\n      jump\t// in\n    tag_234:\n        /* \"#utility.yul\":11008:11082   */\n      swap2\n      pop\n        /* \"#utility.yul\":11091:11184   */\n      tag_235\n        /* \"#utility.yul\":11180:11183   */\n      dup3\n        /* \"#utility.yul\":11091:11184   */\n      tag_134\n      jump\t// in\n    tag_235:\n        /* \"#utility.yul\":11209:11211   */\n      0x20\n        /* \"#utility.yul\":11204:11207   */\n      dup3\n        /* \"#utility.yul\":11200:11212   */\n      add\n        /* \"#utility.yul\":11193:11212   */\n      swap1\n      pop\n        /* \"#utility.yul\":10852:11218   */\n      swap2\n      swap1\n      pop\n      jump\t// out\n        /* \"#utility.yul\":11224:11643   */\n    tag_85:\n        /* \"#utility.yul\":11390:11394   */\n      0x00\n        /* \"#utility.yul\":11428:11430   */\n      0x20\n        /* \"#utility.yul\":11417:11426   */\n      dup3\n        /* \"#utility.yul\":11413:11431   */\n      add\n        /* \"#utility.yul\":11405:11431   */\n      swap1\n      pop\n        /* \"#utility.yul\":11477:11486   */\n      dup2\n        /* \"#utility.yul\":11471:11475   */\n      dup2\n        /* \"#utility.yul\":11467:11487   */\n      sub\n        /* \"#utility.yul\":11463:11464   */\n      0x00\n        /* \"#utility.yul\":11452:11461   */\n      dup4\n        /* \"#utility.yul\":11448:11465   */\n      add\n        /* \"#utility.yul\":11441:11488   */\n      mstore\n        /* \"#utility.yul\":11505:11636   */\n      tag_237\n        /* \"#utility.yul\":11631:11635   */\n      dup2\n        /* \"#utility.yul\":11505:11636   */\n      tag_135\n      jump\t// in\n    tag_237:\n        /* \"#utility.yul\":11497:11636   */\n      swap1\n      pop\n        /* \"#utility.yul\":11224:11643   */\n      swap2\n      swap1\n      pop\n      jump\t// out\n        /* \"#utility.yul\":11649:11816   */\n    tag_136:\n        /* \"#utility.yul\":11789:11808   */\n      0x4e6f7468696e6720746f20726566756e64000000000000000000000000000000\n        /* \"#utility.yul\":11785:11786   */\n      0x00\n        /* \"#utility.yul\":11777:11783   */\n      dup3\n        /* \"#utility.yul\":11773:11787   */\n      add\n        /* \"#utility.yul\":11766:11809   */\n      mstore\n        /* \"#utility.yul\":11649:11816   */\n      pop\n      jump\t// out\n        /* \"#utility.yul\":11822:12188   */\n    tag_137:\n        /* \"#utility.yul\":11964:11967   */\n      0x00\n        /* \"#utility.yul\":11985:12052   */\n      tag_240\n        /* \"#utility.yul\":12049:12051   */\n      0x11\n        /* \"#utility.yul\":12044:12047   */\n      dup4\n        /* \"#utility.yul\":11985:12052   */\n      tag_119\n      jump\t// in\n    tag_240:\n        /* \"#utility.yul\":11978:12052   */\n      swap2\n      pop\n        /* \"#utility.yul\":12061:12154   */\n      tag_241\n        /* \"#utility.yul\":12150:12153   */\n      dup3\n        /* \"#utility.yul\":12061:12154   */\n      tag_136\n      jump\t// in\n    tag_241:\n        /* \"#utility.yul\":12179:12181   */\n      0x20\n        /* \"#utility.yul\":12174:12177   */\n      dup3\n        /* \"#utility.yul\":12170:12182   */\n      add\n        /* \"#utility.yul\":12163:12182   */\n      swap1\n      pop\n        /* \"#utility.yul\":11822:12188   */\n      swap2\n      swap1\n      pop\n      jump\t// out\n        /* \"#utility.yul\":12194:12613   */\n    tag_92:\n        /* \"#utility.yul\":12360:12364   */\n      0x00\n        /* \"#utility.yul\":12398:12400   */\n      0x20\n        /* \"#utility.yul\":12387:12396   */\n      dup3\n        /* \"#utility.yul\":12383:12401   */\n      add\n        /* \"#utility.yul\":12375:12401   */\n      swap1\n      pop\n        /* \"#utility.yul\":12447:12456   */\n      dup2\n        /* \"#utility.yul\":12441:12445   */\n      dup2\n        /* \"#utility.yul\":12437:12457   */\n      sub\n        /* \"#utility.yul\":12433:12434   */\n      0x00\n        /* \"#utility.yul\":12422:12431   */\n      dup4\n        /* \"#utility.yul\":12418:12435   */\n      add\n        /* \"#utility.yul\":12411:12458   */\n      mstore\n        /* \"#utility.yul\":12475:12606   */\n      tag_243\n        /* \"#utility.yul\":12601:12605   */\n      dup2\n        /* \"#utility.yul\":12475:12606   */\n      tag_137\n      jump\t// in\n    tag_243:\n        /* \"#utility.yul\":12467:12606   */\n      swap1\n      pop\n        /* \"#utility.yul\":12194:12613   */\n      swap2\n      swap1\n      pop\n      jump\t// out\n        /* \"#utility.yul\":12619:12782   */\n    tag_138:\n        /* \"#utility.yul\":12759:12774   */\n      0x526566756e64206661696c656400000000000000000000000000000000000000\n        /* \"#utility.yul\":12755:12756   */\n      0x00\n        /* \"#utility.yul\":12747:12753   */\n      dup3\n        /* \"#utility.yul\":12743:12757   */\n      add\n        /* \"#utility.yul\":12736:12775   */\n      mstore\n        /* \"#utility.yul\":12619:12782   */\n      pop\n      jump\t// out\n        /* \"#utility.yul\":12788:13154   */\n    tag_139:\n        /* \"#utility.yul\":12930:12933   */\n      0x00\n        /* \"#utility.yul\":12951:13018   */\n      tag_246\n        /* \"#utility.yul\":13015:13017   */\n      0x0d\n        /* \"#utility.yul\":13010:13013   */\n      dup4\n        /* \"#utility.yul\":12951:13018   */\n      tag_119\n      jump\t// in\n    tag_246:\n        /* \"#utility.yul\":12944:13018   */\n      swap2\n      pop\n        /* \"#utility.yul\":13027:13120   */\n      tag_247\n        /* \"#utility.yul\":13116:13119   */\n      dup3\n        /* \"#utility.yul\":13027:13120   */\n      tag_138\n      jump\t// in\n    tag_247:\n        /* \"#utility.yul\":13145:13147   */\n      0x20\n        /* \"#utility.yul\":13140:13143   */\n      dup3\n        /* \"#utility.yul\":13136:13148   */\n      add\n        /* \"#utility.yul\":13129:13148   */\n      swap1\n      pop\n        /* \"#utility.yul\":12788:13154   */\n      swap2\n      swap1\n      pop\n      jump\t// out\n        /* \"#utility.yul\":13160:13579   */\n    tag_99:\n        /* \"#utility.yul\":13326:13330   */\n      0x00\n        /* \"#utility.yul\":13364:13366   */\n      0x20\n        /* \"#utility.yul\":13353:13362   */\n      dup3\n        /* \"#utility.yul\":13349:13367   */\n      add\n        /* \"#utility.yul\":13341:13367   */\n      swap1\n      pop\n        /* \"#utility.yul\":13413:13422   */\n      dup2\n        /* \"#utility.yul\":13407:13411   */\n      dup2\n        /* \"#utility.yul\":13403:13423   */\n      sub\n        /* \"#utility.yul\":13399:13400   */\n      0x00\n        /* \"#utility.yul\":13388:13397   */\n      dup4\n        /* \"#utility.yul\":13384:13401   */\n      add\n        /* \"#utility.yul\":13377:13424   */\n      mstore\n        /* \"#utility.yul\":13441:13572   */\n      tag_249\n        /* \"#utility.yul\":13567:13571   */\n      dup2\n        /* \"#utility.yul\":13441:13572   */\n      tag_139\n      jump\t// in\n    tag_249:\n        /* \"#utility.yul\":13433:13572   */\n      swap1\n      pop\n        /* \"#utility.yul\":13160:13579   */\n      swap2\n      swap1\n      pop\n      jump\t// out\n\n    auxdata: 0xa2646970667358221220a1dbbcd3d927c33b82177cc7583f9dcf7b15bfe7191fcdbabf31b6c3b3dec25464736f6c634300081d0033\n}\n",
				"bytecode": {
					"linkReferences": {},
					"object": "60806040526040516110db3803806110db83398181016040528101906100259190610192565b5f3411610067576040517f08c379a000000000000000000000000000000000000000000000000000000000815260040161005e9061022a565b60405180910390fd5b335f5f6101000a81548173ffffffffffffffffffffffffffffffffffffffff021916908373ffffffffffffffffffffffffffffffffffffffff1602179055508160015f6101000a81548173ffffffffffffffffffffffffffffffffffffffff021916908373ffffffffffffffffffffffffffffffffffffffff1602179055508060025f6101000a81548173ffffffffffffffffffffffffffffffffffffffff021916908373ffffffffffffffffffffffffffffffffffffffff160217905550346004819055505050610248565b5f5ffd5b5f73ffffffffffffffffffffffffffffffffffffffff82169050919050565b5f61016182610138565b9050919050565b61017181610157565b811461017b575f5ffd5b50565b5f8151905061018c81610168565b92915050565b5f5f604083850312156101a8576101a7610134565b5b5f6101b58582860161017e565b92505060206101c68582860161017e565b9150509250929050565b5f82825260208201905092915050565b7f4d7573742073656e6420455448000000000000000000000000000000000000005f82015250565b5f610214600d836101d0565b915061021f826101e0565b602082019050919050565b5f6020820190508181035f83015261024181610208565b9050919050565b610e86806102555f395ff3fe608060405234801561000f575f5ffd5b5060043610610086575f3560e01c8063c7c4ff4611610059578063c7c4ff46146100ea578063e89e4ed614610108578063fe25e00a14610139578063ff50abdc1461015757610086565b8063317debf51461008a57806338af3eed146100a6578063868af224146100c45780639e1c0295146100e0575b5f5ffd5b6100a4600480360381019061009f919061089a565b610175565b005b6100ae6103e7565b6040516100bb9190610904565b60405180910390f35b6100de60048036038101906100d9919061097e565b61040c565b005b6100e86105fe565b005b6100f26107d5565b6040516100ff9190610904565b60405180910390f35b610122600480360381019061011d919061089a565b6107f9565b6040516101309291906109f2565b60405180910390f35b610141610834565b60405161014e9190610904565b60405180910390f35b61015f610859565b60405161016c9190610a19565b60405180910390f35b60025f9054906101000a900473ffffffffffffffffffffffffffffffffffffffff1673ffffffffffffffffffffffffffffffffffffffff163373ffffffffffffffffffffffffffffffffffffffff1614610204576040517f08c379a00000000000000000000000000000000000000000000000000000000081526004016101fb90610a8c565b60405180910390fd5b600380549050811061024b576040517f08c379a000000000000000000000000000000000000000000000000000000000815260040161024290610af4565b60405180910390fd5b5f600382815481106102605761025f610b12565b5b905f5260205f2090600202019050806001015f9054906101000a900460ff16156102bf576040517f08c379a00000000000000000000000000000000000000000000000000000000081526004016102b690610b89565b60405180910390fd5b6001816001015f6101000a81548160ff0219169083151502179055505f60015f9054906101000a900473ffffffffffffffffffffffffffffffffffffffff1673ffffffffffffffffffffffffffffffffffffffff16825f015460405161032490610bd4565b5f6040518083038185875af1925050503d805f811461035e576040519150601f19603f3d011682016040523d82523d5f602084013e610363565b606091505b50509050806103a7576040517f08c379a000000000000000000000000000000000000000000000000000000000815260040161039e90610c32565b60405180910390fd5b827f9e069181c12760c2cd0078ed4facdbe1f3614543b0fbff5dbcac3cbc61a0b64e835f01546040516103da9190610a19565b60405180910390a2505050565b60015f9054906101000a900473ffffffffffffffffffffffffffffffffffffffff1681565b5f5f9054906101000a900473ffffffffffffffffffffffffffffffffffffffff1673ffffffffffffffffffffffffffffffffffffffff163373ffffffffffffffffffffffffffffffffffffffff161461049a576040517f08c379a000000000000000000000000000000000000000000000000000000000815260040161049190610c9a565b60405180910390fd5b5f5f90505f5f90505b838390508110156105b457600360405180604001604052808686858181106104ce576104cd610b12565b5b9050602002013581526020015f1515815250908060018154018082558091505060019003905f5260205f2090600202015f909190919091505f820151815f01556020820151816001015f6101000a81548160ff021916908315150217905550505083838281811061054257610541610b12565b5b90506020020135826105549190610ce5565b9150807feb0a448faf1db18876f6c843c35c660823db4038188aedad797bd3ef46ada37185858481811061058b5761058a610b12565b5b9050602002013560405161059f9190610a19565b60405180910390a280806001019150506104a3565b5060045481146105f9576040517f08c379a00000000000000000000000000000000000000000000000000000000081526004016105f090610d62565b60405180910390fd5b505050565b5f5f9054906101000a900473ffffffffffffffffffffffffffffffffffffffff1673ffffffffffffffffffffffffffffffffffffffff163373ffffffffffffffffffffffffffffffffffffffff161461068c576040517f08c379a000000000000000000000000000000000000000000000000000000000815260040161068390610c9a565b60405180910390fd5b5f4790505f81116106d2576040517f08c379a00000000000000000000000000000000000000000000000000000000081526004016106c990610dca565b60405180910390fd5b5f5f5f9054906101000a900473ffffffffffffffffffffffffffffffffffffffff1673ffffffffffffffffffffffffffffffffffffffff168260405161071790610bd4565b5f6040518083038185875af1925050503d805f8114610751576040519150601f19603f3d011682016040523d82523d5f602084013e610756565b606091505b505090508061079a576040517f08c379a000000000000000000000000000000000000000000000000000000000815260040161079190610e32565b60405180910390fd5b7f3d2a04f53164bedf9a8a46353305d6b2d2261410406df3b41f99ce6489dc003c826040516107c99190610a19565b60405180910390a15050565b5f5f9054906101000a900473ffffffffffffffffffffffffffffffffffffffff1681565b60038181548110610808575f80fd5b905f5260205f2090600202015f91509050805f015490806001015f9054906101000a900460ff16905082565b60025f9054906101000a900473ffffffffffffffffffffffffffffffffffffffff1681565b60045481565b5f5ffd5b5f5ffd5b5f819050919050565b61087981610867565b8114610883575f5ffd5b50565b5f8135905061089481610870565b92915050565b5f602082840312156108af576108ae61085f565b5b5f6108bc84828501610886565b91505092915050565b5f73ffffffffffffffffffffffffffffffffffffffff82169050919050565b5f6108ee826108c5565b9050919050565b6108fe816108e4565b82525050565b5f6020820190506109175f8301846108f5565b92915050565b5f5ffd5b5f5ffd5b5f5ffd5b5f5f83601f84011261093e5761093d61091d565b5b8235905067ffffffffffffffff81111561095b5761095a610921565b5b60208301915083602082028301111561097757610976610925565b5b9250929050565b5f5f602083850312156109945761099361085f565b5b5f83013567ffffffffffffffff8111156109b1576109b0610863565b5b6109bd85828601610929565b92509250509250929050565b6109d281610867565b82525050565b5f8115159050919050565b6109ec816109d8565b82525050565b5f604082019050610a055f8301856109c9565b610a1260208301846109e3565b9392505050565b5f602082019050610a2c5f8301846109c9565b92915050565b5f82825260208201905092915050565b7f4f6e6c79206172626974657200000000000000000000000000000000000000005f82015250565b5f610a76600c83610a32565b9150610a8182610a42565b602082019050919050565b5f6020820190508181035f830152610aa381610a6a565b9050919050565b7f496e76616c6964206d696c6573746f6e650000000000000000000000000000005f82015250565b5f610ade601183610a32565b9150610ae982610aaa565b602082019050919050565b5f6020820190508181035f830152610b0b81610ad2565b9050919050565b7f4e487b71000000000000000000000000000000000000000000000000000000005f52603260045260245ffd5b7f416c72656164792072656c6561736564000000000000000000000000000000005f82015250565b5f610b73601083610a32565b9150610b7e82610b3f565b602082019050919050565b5f6020820190508181035f830152610ba081610b67565b9050919050565b5f81905092915050565b50565b5f610bbf5f83610ba7565b9150610bca82610bb1565b5f82019050919050565b5f610bde82610bb4565b9150819050919050565b7f5472616e73666572206661696c656400000000000000000000000000000000005f82015250565b5f610c1c600f83610a32565b9150610c2782610be8565b602082019050919050565b5f6020820190508181035f830152610c4981610c10565b9050919050565b7f4f6e6c79206465706f7369746f720000000000000000000000000000000000005f82015250565b5f610c84600e83610a32565b9150610c8f82610c50565b602082019050919050565b5f6020820190508181035f830152610cb181610c78565b9050919050565b7f4e487b71000000000000000000000000000000000000000000000000000000005f52601160045260245ffd5b5f610cef82610867565b9150610cfa83610867565b9250828201905080821115610d1257610d11610cb8565b5b92915050565b7f416d6f756e7473206d75737420657175616c206465706f7369740000000000005f82015250565b5f610d4c601a83610a32565b9150610d5782610d18565b602082019050919050565b5f6020820190508181035f830152610d7981610d40565b9050919050565b7f4e6f7468696e6720746f20726566756e640000000000000000000000000000005f82015250565b5f610db4601183610a32565b9150610dbf82610d80565b602082019050919050565b5f6020820190508181035f830152610de181610da8565b9050919050565b7f526566756e64206661696c6564000000000000000000000000000000000000005f82015250565b5f610e1c600d83610a32565b9150610e2782610de8565b602082019050919050565b5f6020820190508181035f830152610e4981610e10565b905091905056fea2646970667358221220a1dbbcd3d927c33b82177cc7583f9dcf7b15bfe7191fcdbabf31b6c3b3dec25464736f6c634300081d0033",
					"opcodes": "PUSH1 0x80 PUSH1 0x40 MSTORE PUSH1 0x40 MLOAD PUSH2 0x10DB CODESIZE SUB DUP1 PUSH2 0x10DB DUP4 CODECOPY DUP2 DUP2 ADD PUSH1 0x40 MSTORE DUP2 ADD SWAP1 PUSH2 0x25 SWAP2 SWAP1 PUSH2 0x192 JUMP JUMPDEST PUSH0 CALLVALUE GT PUSH2 0x67 JUMPI PUSH1 0x40 MLOAD PUSH32 0x8C379A000000000000000000000000000000000000000000000000000000000 DUP2 MSTORE PUSH1 0x4 ADD PUSH2 0x5E SWAP1 PUSH2 0x22A JUMP JUMPDEST PUSH1 0x40 MLOAD DUP1 SWAP2 SUB SWAP1 REVERT JUMPDEST CALLER PUSH0 PUSH0 PUSH2 0x100 EXP DUP2 SLOAD DUP2 PUSH20 0xFFFFFFFFFFFFFFFFFFFFFFFFFFFFFFFFFFFFFFFF MUL NOT AND SWAP1 DUP4 PUSH20 0xFFFFFFFFFFFFFFFFFFFFFFFFFFFFFFFFFFFFFFFF AND MUL OR SWAP1 SSTORE POP DUP2 PUSH1 0x1 PUSH0 PUSH2 0x100 EXP DUP2 SLOAD DUP2 PUSH20 0xFFFFFFFFFFFFFFFFFFFFFFFFFFFFFFFFFFFFFFFF MUL NOT AND SWAP1 DUP4 PUSH20 0xFFFFFFFFFFFFFFFFFFFFFFFFFFFFFFFFFFFFFFFF AND MUL OR SWAP1 SSTORE POP DUP1 PUSH1 0x2 PUSH0 PUSH2 0x100 EXP DUP2 SLOAD DUP2 PUSH20 0xFFFFFFFFFFFFFFFFFFFFFFFFFFFFFFFFFFFFFFFF MUL NOT AND SWAP1 DUP4 PUSH20 0xFFFFFFFFFFFFFFFFFFFFFFFFFFFFFFFFFFFFFFFF AND MUL OR SWAP1 SSTORE POP CALLVALUE PUSH1 0x4 DUP2 SWAP1 SSTORE POP POP POP PUSH2 0x248 JUMP JUMPDEST PUSH0 PUSH0 REVERT JUMPDEST PUSH0 PUSH20 0xFFFFFFFFFFFFFFFFFFFFFFFFFFFFFFFFFFFFFFFF DUP3 AND SWAP1 POP SWAP2 SWAP1 POP JUMP JUMPDEST PUSH0 PUSH2 0x161 DUP3 PUSH2 0x138 JUMP JUMPDEST SWAP1 POP SWAP2 SWAP1 POP JUMP JUMPDEST PUSH2 0x171 DUP2 PUSH2 0x157 JUMP JUMPDEST DUP2 EQ PUSH2 0x17B JUMPI PUSH0 PUSH0 REVERT JUMPDEST POP JUMP JUMPDEST PUSH0 DUP2 MLOAD SWAP1 POP PUSH2 0x18C DUP2 PUSH2 0x168 JUMP JUMPDEST SWAP3 SWAP2 POP POP JUMP JUMPDEST PUSH0 PUSH0 PUSH1 0x40 DUP4 DUP6 SUB SLT ISZERO PUSH2 0x1A8 JUMPI PUSH2 0x1A7 PUSH2 0x134 JUMP JUMPDEST JUMPDEST PUSH0 PUSH2 0x1B5 DUP6 DUP3 DUP7 ADD PUSH2 0x17E JUMP JUMPDEST SWAP3 POP POP PUSH1 0x20 PUSH2 0x1C6 DUP6 DUP3 DUP7 ADD PUSH2 0x17E JUMP JUMPDEST SWAP2 POP POP SWAP3 POP SWAP3 SWAP1 POP JUMP JUMPDEST PUSH0 DUP3 DUP3 MSTORE PUSH1 0x20 DUP3 ADD SWAP1 POP SWAP3 SWAP2 POP POP JUMP JUMPDEST PUSH32 0x4D7573742073656E642045544800000000000000000000000000000000000000 PUSH0 DUP3 ADD MSTORE POP JUMP JUMPDEST PUSH0 PUSH2 0x214 PUSH1 0xD DUP4 PUSH2 0x1D0 JUMP JUMPDEST SWAP2 POP PUSH2 0x21F DUP3 PUSH2 0x1E0 JUMP JUMPDEST PUSH1 0x20 DUP3 ADD SWAP1 POP SWAP2 SWAP1 POP JUMP JUMPDEST PUSH0 PUSH1 0x20 DUP3 ADD SWAP1 POP DUP2 DUP2 SUB PUSH0 DUP4 ADD MSTORE PUSH2 0x241 DUP2 PUSH2 0x208 JUMP JUMPDEST SWAP1 POP SWAP2 SWAP1 POP JUMP JUMPDEST PUSH2 0xE86 DUP1 PUSH2 0x255 PUSH0 CODECOPY PUSH0 RETURN INVALID PUSH1 0x80 PUSH1 0x40 MSTORE CALLVALUE DUP1 ISZERO PUSH2 0xF JUMPI PUSH0 PUSH0 REVERT JUMPDEST POP PUSH1 0x4 CALLDATASIZE LT PUSH2 0x86 JUMPI PUSH0 CALLDATALOAD PUSH1 0xE0 SHR DUP1 PUSH4 0xC7C4FF46 GT PUSH2 0x59 JUMPI DUP1 PUSH4 0xC7C4FF46 EQ PUSH2 0xEA JUMPI DUP1 PUSH4 0xE89E4ED6 EQ PUSH2 0x108 JUMPI DUP1 PUSH4 0xFE25E00A EQ PUSH2 0x139 JUMPI DUP1 PUSH4 0xFF50ABDC EQ PUSH2 0x157 JUMPI PUSH2 0x86 JUMP JUMPDEST DUP1 PUSH4 0x317DEBF5 EQ PUSH2 0x8A JUMPI DUP1 PUSH4 0x38AF3EED EQ PUSH2 0xA6 JUMPI DUP1 PUSH4 0x868AF224 EQ PUSH2 0xC4 JUMPI DUP1 PUSH4 0x9E1C0295 EQ PUSH2 0xE0 JUMPI JUMPDEST PUSH0 PUSH0 REVERT JUMPDEST PUSH2 0xA4 PUSH1 0x4 DUP1 CALLDATASIZE SUB DUP2 ADD SWAP1 PUSH2 0x9F SWAP2 SWAP1 PUSH2 0x89A JUMP JUMPDEST PUSH2 0x175 JUMP JUMPDEST STOP JUMPDEST PUSH2 0xAE PUSH2 0x3E7 JUMP JUMPDEST PUSH1 0x40 MLOAD PUSH2 0xBB SWAP2 SWAP1 PUSH2 0x904 JUMP JUMPDEST PUSH1 0x40 MLOAD DUP1 SWAP2 SUB SWAP1 RETURN JUMPDEST PUSH2 0xDE PUSH1 0x4 DUP1 CALLDATASIZE SUB DUP2 ADD SWAP1 PUSH2 0xD9 SWAP2 SWAP1 PUSH2 0x97E JUMP JUMPDEST PUSH2 0x40C JUMP JUMPDEST STOP JUMPDEST PUSH2 0xE8 PUSH2 0x5FE JUMP JUMPDEST STOP JUMPDEST PUSH2 0xF2 PUSH2 0x7D5 JUMP JUMPDEST PUSH1 0x40 MLOAD PUSH2 0xFF SWAP2 SWAP1 PUSH2 0x904 JUMP JUMPDEST PUSH1 0x40 MLOAD DUP1 SWAP2 SUB SWAP1 RETURN JUMPDEST PUSH2 0x122 PUSH1 0x4 DUP1 CALLDATASIZE SUB DUP2 ADD SWAP1 PUSH2 0x11D SWAP2 SWAP1 PUSH2 0x89A JUMP JUMPDEST PUSH2 0x7F9 JUMP JUMPDEST PUSH1 0x40 MLOAD PUSH2 0x130 SWAP3 SWAP2 SWAP1 PUSH2 0x9F2 JUMP JUMPDEST PUSH1 0x40 MLOAD DUP1 SWAP2 SUB SWAP1 RETURN JUMPDEST PUSH2 0x141 PUSH2 0x834 JUMP JUMPDEST PUSH1 0x40 MLOAD PUSH2 0x14E SWAP2 SWAP1 PUSH2 0x904 JUMP JUMPDEST PUSH1 0x40 MLOAD DUP1 SWAP2 SUB SWAP1 RETURN JUMPDEST PUSH2 0x15F PUSH2 0x859 JUMP JUMPDEST PUSH1 0x40 MLOAD PUSH2 0x16C SWAP2 SWAP1 PUSH2 0xA19 JUMP JUMPDEST PUSH1 0x40 MLOAD DUP1 SWAP2 SUB SWAP1 RETURN JUMPDEST PUSH1 0x2 PUSH0 SWAP1 SLOAD SWAP1 PUSH2 0x100 EXP SWAP1 DIV PUSH20 0xFFFFFFFFFFFFFFFFFFFFFFFFFFFFFFFFFFFFFFFF AND PUSH20 0xFFFFFFFFFFFFFFFFFFFFFFFFFFFFFFFFFFFFFFFF AND CALLER PUSH20 0xFFFFFFFFFFFFFFFFFFFFFFFFFFFFFFFFFFFFFFFF AND EQ PUSH2 0x204 JUMPI PUSH1 0x40 MLOAD PUSH32 0x8C379A000000000000000000000000000000000000000000000000000000000 DUP2 MSTORE PUSH1 0x4 ADD PUSH2 0x1FB SWAP1 PUSH2 0xA8C JUMP JUMPDEST PUSH1 0x40 MLOAD DUP1 SWAP2 SUB SWAP1 REVERT JUMPDEST PUSH1 0x3 DUP1 SLOAD SWAP1 POP DUP2 LT PUSH2 0x24B JUMPI PUSH1 0x40 MLOAD PUSH32 0x8C379A000000000000000000000000000000000000000000000000000000000 DUP2 MSTORE PUSH1 0x4 ADD PUSH2 0x242 SWAP1 PUSH2 0xAF4 JUMP JUMPDEST PUSH1 0x40 MLOAD DUP1 SWAP2 SUB SWAP1 REVERT JUMPDEST PUSH0 PUSH1 0x3 DUP3 DUP2 SLOAD DUP2 LT PUSH2 0x260 JUMPI PUSH2 0x25F PUSH2 0xB12 JUMP JUMPDEST JUMPDEST SWAP1 PUSH0 MSTORE PUSH1 0x20 PUSH0 KECCAK256 SWAP1 PUSH1 0x2 MUL ADD SWAP1 POP DUP1 PUSH1 0x1 ADD PUSH0 SWAP1 SLOAD SWAP1 PUSH2 0x100 EXP SWAP1 DIV PUSH1 0xFF AND ISZERO PUSH2 0x2BF JUMPI PUSH1 0x40 MLOAD PUSH32 0x8C379A000000000000000000000000000000000000000000000000000000000 DUP2 MSTORE PUSH1 0x4 ADD PUSH2 0x2B6 SWAP1 PUSH2 0xB89 JUMP JUMPDEST PUSH1 0x40 MLOAD DUP1 SWAP2 SUB SWAP1 REVERT JUMPDEST PUSH1 0x1 DUP2 PUSH1 0x1 ADD PUSH0 PUSH2 0x100 EXP DUP2 SLOAD DUP2 PUSH1 0xFF MUL NOT AND SWAP1 DUP4 ISZERO ISZERO MUL OR SWAP1 SSTORE POP PUSH0 PUSH1 0x1 PUSH0 SWAP1 SLOAD SWAP1 PUSH2 0x100 EXP SWAP1 DIV PUSH20 0xFFFFFFFFFFFFFFFFFFFFFFFFFFFFFFFFFFFFFFFF AND PUSH20 0xFFFFFFFFFFFFFFFFFFFFFFFFFFFFFFFFFFFFFFFF AND DUP3 PUSH0 ADD SLOAD PUSH1 0x40 MLOAD PUSH2 0x324 SWAP1 PUSH2 0xBD4 JUMP JUMPDEST PUSH0 PUSH1 0x40 MLOAD DUP1 DUP4 SUB DUP2 DUP6 DUP8 GAS CALL SWAP3 POP POP POP RETURNDATASIZE DUP1 PUSH0 DUP2 EQ PUSH2 0x35E JUMPI PUSH1 0x40 MLOAD SWAP2 POP PUSH1 0x1F NOT PUSH1 0x3F RETURNDATASIZE ADD AND DUP3 ADD PUSH1 0x40 MSTORE RETURNDATASIZE DUP3 MSTORE RETURNDATASIZE PUSH0 PUSH1 0x20 DUP5 ADD RETURNDATACOPY PUSH2 0x363 JUMP JUMPDEST PUSH1 0x60 SWAP2 POP JUMPDEST POP POP SWAP1 POP DUP1 PUSH2 0x3A7 JUMPI PUSH1 0x40 MLOAD PUSH32 0x8C379A000000000000000000000000000000000000000000000000000000000 DUP2 MSTORE PUSH1 0x4 ADD PUSH2 0x39E SWAP1 PUSH2 0xC32 JUMP JUMPDEST PUSH1 0x40 MLOAD DUP1 SWAP2 SUB SWAP1 REVERT JUMPDEST DUP3 PUSH32 0x9E069181C12760C2CD0078ED4FACDBE1F3614543B0FBFF5DBCAC3CBC61A0B64E DUP4 PUSH0 ADD SLOAD PUSH1 0x40 MLOAD PUSH2 0x3DA SWAP2 SWAP1 PUSH2 0xA19 JUMP JUMPDEST PUSH1 0x40 MLOAD DUP1 SWAP2 SUB SWAP1 LOG2 POP POP POP JUMP JUMPDEST PUSH1 0x1 PUSH0 SWAP1 SLOAD SWAP1 PUSH2 0x100 EXP SWAP1 DIV PUSH20 0xFFFFFFFFFFFFFFFFFFFFFFFFFFFFFFFFFFFFFFFF AND DUP2 JUMP JUMPDEST PUSH0 PUSH0 SWAP1 SLOAD SWAP1 PUSH2 0x100 EXP SWAP1 DIV PUSH20 0xFFFFFFFFFFFFFFFFFFFFFFFFFFFFFFFFFFFFFFFF AND PUSH20 0xFFFFFFFFFFFFFFFFFFFFFFFFFFFFFFFFFFFFFFFF AND CALLER PUSH20 0xFFFFFFFFFFFFFFFFFFFFFFFFFFFFFFFFFFFFFFFF AND EQ PUSH2 0x49A JUMPI PUSH1 0x40 MLOAD PUSH32 0x8C379A000000000000000000000000000000000000000000000000000000000 DUP2 MSTORE PUSH1 0x4 ADD PUSH2 0x491 SWAP1 PUSH2 0xC9A JUMP JUMPDEST PUSH1 0x40 MLOAD DUP1 SWAP2 SUB SWAP1 REVERT JUMPDEST PUSH0 PUSH0 SWAP1 POP PUSH0 PUSH0 SWAP1 POP JUMPDEST DUP4 DUP4 SWAP1 POP DUP2 LT ISZERO PUSH2 0x5B4 JUMPI PUSH1 0x3 PUSH1 0x40 MLOAD DUP1 PUSH1 0x40 ADD PUSH1 0x40 MSTORE DUP1 DUP7 DUP7 DUP6 DUP2 DUP2 LT PUSH2 0x4CE JUMPI PUSH2 0x4CD PUSH2 0xB12 JUMP JUMPDEST JUMPDEST SWAP1 POP PUSH1 0x20 MUL ADD CALLDATALOAD DUP2 MSTORE PUSH1 0x20 ADD PUSH0 ISZERO ISZERO DUP2 MSTORE POP SWAP1 DUP1 PUSH1 0x1 DUP2 SLOAD ADD DUP1 DUP3 SSTORE DUP1 SWAP2 POP POP PUSH1 0x1 SWAP1 SUB SWAP1 PUSH0 MSTORE PUSH1 0x20 PUSH0 KECCAK256 SWAP1 PUSH1 0x2 MUL ADD PUSH0 SWAP1 SWAP2 SWAP1 SWAP2 SWAP1 SWAP2 POP PUSH0 DUP3 ADD MLOAD DUP2 PUSH0 ADD SSTORE PUSH1 0x20 DUP3 ADD MLOAD DUP2 PUSH1 0x1 ADD PUSH0 PUSH2 0x100 EXP DUP2 SLOAD DUP2 PUSH1 0xFF MUL NOT AND SWAP1 DUP4 ISZERO ISZERO MUL OR SWAP1 SSTORE POP POP POP DUP4 DUP4 DUP3 DUP2 DUP2 LT PUSH2 0x542 JUMPI PUSH2 0x541 PUSH2 0xB12 JUMP JUMPDEST JUMPDEST SWAP1 POP PUSH1 0x20 MUL ADD CALLDATALOAD DUP3 PUSH2 0x554 SWAP2 SWAP1 PUSH2 0xCE5 JUMP JUMPDEST SWAP2 POP DUP1 PUSH32 0xEB0A448FAF1DB18876F6C843C35C660823DB4038188AEDAD797BD3EF46ADA371 DUP6 DUP6 DUP5 DUP2 DUP2 LT PUSH2 0x58B JUMPI PUSH2 0x58A PUSH2 0xB12 JUMP JUMPDEST JUMPDEST SWAP1 POP PUSH1 0x20 MUL ADD CALLDATALOAD PUSH1 0x40 MLOAD PUSH2 0x59F SWAP2 SWAP1 PUSH2 0xA19 JUMP JUMPDEST PUSH1 0x40 MLOAD DUP1 SWAP2 SUB SWAP1 LOG2 DUP1 DUP1 PUSH1 0x1 ADD SWAP2 POP POP PUSH2 0x4A3 JUMP JUMPDEST POP PUSH1 0x4 SLOAD DUP2 EQ PUSH2 0x5F9 JUMPI PUSH1 0x40 MLOAD PUSH32 0x8C379A000000000000000000000000000000000000000000000000000000000 DUP2 MSTORE PUSH1 0x4 ADD PUSH2 0x5F0 SWAP1 PUSH2 0xD62 JUMP JUMPDEST PUSH1 0x40 MLOAD DUP1 SWAP2 SUB SWAP1 REVERT JUMPDEST POP POP POP JUMP JUMPDEST PUSH0 PUSH0 SWAP1 SLOAD SWAP1 PUSH2 0x100 EXP SWAP1 DIV PUSH20 0xFFFFFFFFFFFFFFFFFFFFFFFFFFFFFFFFFFFFFFFF AND PUSH20 0xFFFFFFFFFFFFFFFFFFFFFFFFFFFFFFFFFFFFFFFF AND CALLER PUSH20 0xFFFFFFFFFFFFFFFFFFFFFFFFFFFFFFFFFFFFFFFF AND EQ PUSH2 0x68C JUMPI PUSH1 0x40 MLOAD PUSH32 0x8C379A000000000000000000000000000000000000000000000000000000000 DUP2 MSTORE PUSH1 0x4 ADD PUSH2 0x683 SWAP1 PUSH2 0xC9A JUMP JUMPDEST PUSH1 0x40 MLOAD DUP1 SWAP2 SUB SWAP1 REVERT JUMPDEST PUSH0 SELFBALANCE SWAP1 POP PUSH0 DUP2 GT PUSH2 0x6D2 JUMPI PUSH1 0x40 MLOAD PUSH32 0x8C379A000000000000000000000000000000000000000000000000000000000 DUP2 MSTORE PUSH1 0x4 ADD PUSH2 0x6C9 SWAP1 PUSH2 0xDCA JUMP JUMPDEST PUSH1 0x40 MLOAD DUP1 SWAP2 SUB SWAP1 REVERT JUMPDEST PUSH0 PUSH0 PUSH0 SWAP1 SLOAD SWAP1 PUSH2 0x100 EXP SWAP1 DIV PUSH20 0xFFFFFFFFFFFFFFFFFFFFFFFFFFFFFFFFFFFFFFFF AND PUSH20 0xFFFFFFFFFFFFFFFFFFFFFFFFFFFFFFFFFFFFFFFF AND DUP3 PUSH1 0x40 MLOAD PUSH2 0x717 SWAP1 PUSH2 0xBD4 JUMP JUMPDEST PUSH0 PUSH1 0x40 MLOAD DUP1 DUP4 SUB DUP2 DUP6 DUP8 GAS CALL SWAP3 POP POP POP RETURNDATASIZE DUP1 PUSH0 DUP2 EQ PUSH2 0x751 JUMPI PUSH1 0x40 MLOAD SWAP2 POP PUSH1 0x1F NOT PUSH1 0x3F RETURNDATASIZE ADD AND DUP3 ADD PUSH1 0x40 MSTORE RETURNDATASIZE DUP3 MSTORE RETURNDATASIZE PUSH0 PUSH1 0x20 DUP5 ADD RETURNDATACOPY PUSH2 0x756 JUMP JUMPDEST PUSH1 0x60 SWAP2 POP JUMPDEST POP POP SWAP1 POP DUP1 PUSH2 0x79A JUMPI PUSH1 0x40 MLOAD PUSH32 0x8C379A000000000000000000000000000000000000000000000000000000000 DUP2 MSTORE PUSH1 0x4 ADD PUSH2 0x791 SWAP1 PUSH2 0xE32 JUMP JUMPDEST PUSH1 0x40 MLOAD DUP1 SWAP2 SUB SWAP1 REVERT JUMPDEST PUSH32 0x3D2A04F53164BEDF9A8A46353305D6B2D2261410406DF3B41F99CE6489DC003C DUP3 PUSH1 0x40 MLOAD PUSH2 0x7C9 SWAP2 SWAP1 PUSH2 0xA19 JUMP JUMPDEST PUSH1 0x40 MLOAD DUP1 SWAP2 SUB SWAP1 LOG1 POP POP JUMP JUMPDEST PUSH0 PUSH0 SWAP1 SLOAD SWAP1 PUSH2 0x100 EXP SWAP1 DIV PUSH20 0xFFFFFFFFFFFFFFFFFFFFFFFFFFFFFFFFFFFFFFFF AND DUP2 JUMP JUMPDEST PUSH1 0x3 DUP2 DUP2 SLOAD DUP2 LT PUSH2 0x808 JUMPI PUSH0 DUP1 REVERT JUMPDEST SWAP1 PUSH0 MSTORE PUSH1 0x20 PUSH0 KECCAK256 SWAP1 PUSH1 0x2 MUL ADD PUSH0 SWAP2 POP SWAP1 POP DUP1 PUSH0 ADD SLOAD SWAP1 DUP1 PUSH1 0x1 ADD PUSH0 SWAP1 SLOAD SWAP1 PUSH2 0x100 EXP SWAP1 DIV PUSH1 0xFF AND SWAP1 POP DUP3 JUMP JUMPDEST PUSH1 0x2 PUSH0 SWAP1 SLOAD SWAP1 PUSH2 0x100 EXP SWAP1 DIV PUSH20 0xFFFFFFFFFFFFFFFFFFFFFFFFFFFFFFFFFFFFFFFF AND DUP2 JUMP JUMPDEST PUSH1 0x4 SLOAD DUP2 JUMP JUMPDEST PUSH0 PUSH0 REVERT JUMPDEST PUSH0 PUSH0 REVERT JUMPDEST PUSH0 DUP2 SWAP1 POP SWAP2 SWAP1 POP JUMP JUMPDEST PUSH2 0x879 DUP2 PUSH2 0x867 JUMP JUMPDEST DUP2 EQ PUSH2 0x883 JUMPI PUSH0 PUSH0 REVERT JUMPDEST POP JUMP JUMPDEST PUSH0 DUP2 CALLDATALOAD SWAP1 POP PUSH2 0x894 DUP2 PUSH2 0x870 JUMP JUMPDEST SWAP3 SWAP2 POP POP JUMP JUMPDEST PUSH0 PUSH1 0x20 DUP3 DUP5 SUB SLT ISZERO PUSH2 0x8AF JUMPI PUSH2 0x8AE PUSH2 0x85F JUMP JUMPDEST JUMPDEST PUSH0 PUSH2 0x8BC DUP5 DUP3 DUP6 ADD PUSH2 0x886 JUMP JUMPDEST SWAP2 POP POP SWAP3 SWAP2 POP POP JUMP JUMPDEST PUSH0 PUSH20 0xFFFFFFFFFFFFFFFFFFFFFFFFFFFFFFFFFFFFFFFF DUP3 AND SWAP1 POP SWAP2 SWAP1 POP JUMP JUMPDEST PUSH0 PUSH2 0x8EE DUP3 PUSH2 0x8C5 JUMP JUMPDEST SWAP1 POP SWAP2 SWAP1 POP JUMP JUMPDEST PUSH2 0x8FE DUP2 PUSH2 0x8E4 JUMP JUMPDEST DUP3 MSTORE POP POP JUMP JUMPDEST PUSH0 PUSH1 0x20 DUP3 ADD SWAP1 POP PUSH2 0x917 PUSH0 DUP4 ADD DUP5 PUSH2 0x8F5 JUMP JUMPDEST SWAP3 SWAP2 POP POP JUMP JUMPDEST PUSH0 PUSH0 REVERT JUMPDEST PUSH0 PUSH0 REVERT JUMPDEST PUSH0 PUSH0 REVERT JUMPDEST PUSH0 PUSH0 DUP4 PUSH1 0x1F DUP5 ADD SLT PUSH2 0x93E JUMPI PUSH2 0x93D PUSH2 0x91D JUMP JUMPDEST JUMPDEST DUP3 CALLDATALOAD SWAP1 POP PUSH8 0xFFFFFFFFFFFFFFFF DUP2 GT ISZERO PUSH2 0x95B JUMPI PUSH2 0x95A PUSH2 0x921 JUMP JUMPDEST JUMPDEST PUSH1 0x20 DUP4 ADD SWAP2 POP DUP4 PUSH1 0x20 DUP3 MUL DUP4 ADD GT ISZERO PUSH2 0x977 JUMPI PUSH2 0x976 PUSH2 0x925 JUMP JUMPDEST JUMPDEST SWAP3 POP SWAP3 SWAP1 POP JUMP JUMPDEST PUSH0 PUSH0 PUSH1 0x20 DUP4 DUP6 SUB SLT ISZERO PUSH2 0x994 JUMPI PUSH2 0x993 PUSH2 0x85F JUMP JUMPDEST JUMPDEST PUSH0 DUP4 ADD CALLDATALOAD PUSH8 0xFFFFFFFFFFFFFFFF DUP2 GT ISZERO PUSH2 0x9B1 JUMPI PUSH2 0x9B0 PUSH2 0x863 JUMP JUMPDEST JUMPDEST PUSH2 0x9BD DUP6 DUP3 DUP7 ADD PUSH2 0x929 JUMP JUMPDEST SWAP3 POP SWAP3 POP POP SWAP3 POP SWAP3 SWAP1 POP JUMP JUMPDEST PUSH2 0x9D2 DUP2 PUSH2 0x867 JUMP JUMPDEST DUP3 MSTORE POP POP JUMP JUMPDEST PUSH0 DUP2 ISZERO ISZERO SWAP1 POP SWAP2 SWAP1 POP JUMP JUMPDEST PUSH2 0x9EC DUP2 PUSH2 0x9D8 JUMP JUMPDEST DUP3 MSTORE POP POP JUMP JUMPDEST PUSH0 PUSH1 0x40 DUP3 ADD SWAP1 POP PUSH2 0xA05 PUSH0 DUP4 ADD DUP6 PUSH2 0x9C9 JUMP JUMPDEST PUSH2 0xA12 PUSH1 0x20 DUP4 ADD DUP5 PUSH2 0x9E3 JUMP JUMPDEST SWAP4 SWAP3 POP POP POP JUMP JUMPDEST PUSH0 PUSH1 0x20 DUP3 ADD SWAP1 POP PUSH2 0xA2C PUSH0 DUP4 ADD DUP5 PUSH2 0x9C9 JUMP JUMPDEST SWAP3 SWAP2 POP POP JUMP JUMPDEST PUSH0 DUP3 DUP3 MSTORE PUSH1 0x20 DUP3 ADD SWAP1 POP SWAP3 SWAP2 POP POP JUMP JUMPDEST PUSH32 0x4F6E6C7920617262697465720000000000000000000000000000000000000000 PUSH0 DUP3 ADD MSTORE POP JUMP JUMPDEST PUSH0 PUSH2 0xA76 PUSH1 0xC DUP4 PUSH2 0xA32 JUMP JUMPDEST SWAP2 POP PUSH2 0xA81 DUP3 PUSH2 0xA42 JUMP JUMPDEST PUSH1 0x20 DUP3 ADD SWAP1 POP SWAP2 SWAP1 POP JUMP JUMPDEST PUSH0 PUSH1 0x20 DUP3 ADD SWAP1 POP DUP2 DUP2 SUB PUSH0 DUP4 ADD MSTORE PUSH2 0xAA3 DUP2 PUSH2 0xA6A JUMP JUMPDEST SWAP1 POP SWAP2 SWAP1 POP JUMP JUMPDEST PUSH32 0x496E76616C6964206D696C6573746F6E65000000000000000000000000000000 PUSH0 DUP3 ADD MSTORE POP JUMP JUMPDEST PUSH0 PUSH2 0xADE PUSH1 0x11 DUP4 PUSH2 0xA32 JUMP JUMPDEST SWAP2 POP PUSH2 0xAE9 DUP3 PUSH2 0xAAA JUMP JUMPDEST PUSH1 0x20 DUP3 ADD SWAP1 POP SWAP2 SWAP1 POP JUMP JUMPDEST PUSH0 PUSH1 0x20 DUP3 ADD SWAP1 POP DUP2 DUP2 SUB PUSH0 DUP4 ADD MSTORE PUSH2 0xB0B DUP2 PUSH2 0xAD2 JUMP JUMPDEST SWAP1 POP SWAP2 SWAP1 POP JUMP JUMPDEST PUSH32 0x4E487B7100000000000000000000000000000000000000000000000000000000 PUSH0 MSTORE PUSH1 0x32 PUSH1 0x4 MSTORE PUSH1 0x24 PUSH0 REVERT JUMPDEST PUSH32 0x416C72656164792072656C656173656400000000000000000000000000000000 PUSH0 DUP3 ADD MSTORE POP JUMP JUMPDEST PUSH0 PUSH2 0xB73 PUSH1 0x10 DUP4 PUSH2 0xA32 JUMP JUMPDEST SWAP2 POP PUSH2 0xB7E DUP3 PUSH2 0xB3F JUMP JUMPDEST PUSH1 0x20 DUP3 ADD SWAP1 POP SWAP2 SWAP1 POP JUMP JUMPDEST PUSH0 PUSH1 0x20 DUP3 ADD SWAP1 POP DUP2 DUP2 SUB PUSH0 DUP4 ADD MSTORE PUSH2 0xBA0 DUP2 PUSH2 0xB67 JUMP JUMPDEST SWAP1 POP SWAP2 SWAP1 POP JUMP JUMPDEST PUSH0 DUP2 SWAP1 POP SWAP3 SWAP2 POP POP JUMP JUMPDEST POP JUMP JUMPDEST PUSH0 PUSH2 0xBBF PUSH0 DUP4 PUSH2 0xBA7 JUMP JUMPDEST SWAP2 POP PUSH2 0xBCA DUP3 PUSH2 0xBB1 JUMP JUMPDEST PUSH0 DUP3 ADD SWAP1 POP SWAP2 SWAP1 POP JUMP JUMPDEST PUSH0 PUSH2 0xBDE DUP3 PUSH2 0xBB4 JUMP JUMPDEST SWAP2 POP DUP2 SWAP1 POP SWAP2 SWAP1 POP JUMP JUMPDEST PUSH32 0x5472616E73666572206661696C65640000000000000000000000000000000000 PUSH0 DUP3 ADD MSTORE POP JUMP JUMPDEST PUSH0 PUSH2 0xC1C PUSH1 0xF DUP4 PUSH2 0xA32 JUMP JUMPDEST SWAP2 POP PUSH2 0xC27 DUP3 PUSH2 0xBE8 JUMP JUMPDEST PUSH1 0x20 DUP3 ADD SWAP1 POP SWAP2 SWAP1 POP JUMP JUMPDEST PUSH0 PUSH1 0x20 DUP3 ADD SWAP1 POP DUP2 DUP2 SUB PUSH0 DUP4 ADD MSTORE PUSH2 0xC49 DUP2 PUSH2 0xC10 JUMP JUMPDEST SWAP1 POP SWAP2 SWAP1 POP JUMP JUMPDEST PUSH32 0x4F6E6C79206465706F7369746F72000000000000000000000000000000000000 PUSH0 DUP3 ADD MSTORE POP JUMP JUMPDEST PUSH0 PUSH2 0xC84 PUSH1 0xE DUP4 PUSH2 0xA32 JUMP JUMPDEST SWAP2 POP PUSH2 0xC8F DUP3 PUSH2 0xC50 JUMP JUMPDEST PUSH1 0x20 DUP3 ADD SWAP1 POP SWAP2 SWAP1 POP JUMP JUMPDEST PUSH0 PUSH1 0x20 DUP3 ADD SWAP1 POP DUP2 DUP2 SUB PUSH0 DUP4 ADD MSTORE PUSH2 0xCB1 DUP2 PUSH2 0xC78 JUMP JUMPDEST SWAP1 POP SWAP2 SWAP1 POP JUMP JUMPDEST PUSH32 0x4E487B7100000000000000000000000000000000000000000000000000000000 PUSH0 MSTORE PUSH1 0x11 PUSH1 0x4 MSTORE PUSH1 0x24 PUSH0 REVERT JUMPDEST PUSH0 PUSH2 0xCEF DUP3 PUSH2 0x867 JUMP JUMPDEST SWAP2 POP PUSH2 0xCFA DUP4 PUSH2 0x867 JUMP JUMPDEST SWAP3 POP DUP3 DUP3 ADD SWAP1 POP DUP1 DUP3 GT ISZERO PUSH2 0xD12 JUMPI PUSH2 0xD11 PUSH2 0xCB8 JUMP JUMPDEST JUMPDEST SWAP3 SWAP2 POP POP JUMP JUMPDEST PUSH32 0x416D6F756E7473206D75737420657175616C206465706F736974000000000000 PUSH0 DUP3 ADD MSTORE POP JUMP JUMPDEST PUSH0 PUSH2 0xD4C PUSH1 0x1A DUP4 PUSH2 0xA32 JUMP JUMPDEST SWAP2 POP PUSH2 0xD57 DUP3 PUSH2 0xD18 JUMP JUMPDEST PUSH1 0x20 DUP3 ADD SWAP1 POP SWAP2 SWAP1 POP JUMP JUMPDEST PUSH0 PUSH1 0x20 DUP3 ADD SWAP1 POP DUP2 DUP2 SUB PUSH0 DUP4 ADD MSTORE PUSH2 0xD79 DUP2 PUSH2 0xD40 JUMP JUMPDEST SWAP1 POP SWAP2 SWAP1 POP JUMP JUMPDEST PUSH32 0x4E6F7468696E6720746F20726566756E64000000000000000000000000000000 PUSH0 DUP3 ADD MSTORE POP JUMP JUMPDEST PUSH0 PUSH2 0xDB4 PUSH1 0x11 DUP4 PUSH2 0xA32 JUMP JUMPDEST SWAP2 POP PUSH2 0xDBF DUP3 PUSH2 0xD80 JUMP JUMPDEST PUSH1 0x20 DUP3 ADD SWAP1 POP SWAP2 SWAP1 POP JUMP JUMPDEST PUSH0 PUSH1 0x20 DUP3 ADD SWAP1 POP DUP2 DUP2 SUB PUSH0 DUP4 ADD MSTORE PUSH2 0xDE1 DUP2 PUSH2 0xDA8 JUMP JUMPDEST SWAP1 POP SWAP2 SWAP1 POP JUMP JUMPDEST PUSH32 0x526566756E64206661696C656400000000000000000000000000000000000000 PUSH0 DUP3 ADD MSTORE POP JUMP JUMPDEST PUSH0 PUSH2 0xE1C PUSH1 0xD DUP4 PUSH2 0xA32 JUMP JUMPDEST SWAP2 POP PUSH2 0xE27 DUP3 PUSH2 0xDE8 JUMP JUMPDEST PUSH1 0x20 DUP3 ADD SWAP1 POP SWAP2 SWAP1 POP JUMP JUMPDEST PUSH0 PUSH1 0x20 DUP3 ADD SWAP1 POP DUP2 DUP2 SUB PUSH0 DUP4 ADD MSTORE PUSH2 0xE49 DUP2 PUSH2 0xE10 JUMP JUMPDEST SWAP1 POP SWAP2 SWAP1 POP JUMP INVALID LOG2 PUSH5 0x6970667358 0x22 SLT KECCAK256 LOG1 0xDB 0xBC 0xD3 0xD9 0x27 0xC3 EXTCODESIZE DUP3 OR PUSH29 0xC7583F9DCF7B15BFE7191FCDBABF31B6C3B3DEC25464736F6C63430008 SAR STOP CALLER "
				},
				"gasEstimates": {
					"creation": {
						"codeDepositCost": "743600",
						"executionCost": "infinite",
						"totalCost": "infinite"
					},
					"external": {
						"addMilestones(uint256[])": "infinite",
						"arbiter()": "2552",
						"beneficiary()": "2531",
						"depositor()": "2507",
						"milestones(uint256)": "infinite",
						"refundRemaining()": "infinite",
						"releaseMilestone(uint256)": "infinite",
						"totalDeposited()": "2491"
					}
				},
				"methodIdentifiers": {
					"addMilestones(uint256[])": "868af224",
					"arbiter()": "fe25e00a",
					"beneficiary()": "38af3eed",
					"depositor()": "c7c4ff46",
					"milestones(uint256)": "e89e4ed6",
					"refundRemaining()": "9e1c0295",
					"releaseMilestone(uint256)": "317debf5",
					"totalDeposited()": "ff50abdc"
				}
			},
			"storageLayout": {
				"storage": [
					{
						"astId": 3,
						"contract": "E/Milestone-Based Escrow.sol:MilestoneEscrow",
						"label": "depositor",
						"offset": 0,
						"slot": "0",
						"type": "t_address"
					},
					{
						"astId": 5,
						"contract": "E/Milestone-Based Escrow.sol:MilestoneEscrow",
						"label": "beneficiary",
						"offset": 0,
						"slot": "1",
						"type": "t_address"
					},
					{
						"astId": 7,
						"contract": "E/Milestone-Based Escrow.sol:MilestoneEscrow",
						"label": "arbiter",
						"offset": 0,
						"slot": "2",
						"type": "t_address"
					},
					{
						"astId": 16,
						"contract": "E/Milestone-Based Escrow.sol:MilestoneEscrow",
						"label": "milestones",
						"offset": 0,
						"slot": "3",
						"type": "t_array(t_struct(Milestone)12_storage)dyn_storage"
					},
					{
						"astId": 18,
						"contract": "E/Milestone-Based Escrow.sol:MilestoneEscrow",
						"label": "totalDeposited",
						"offset": 0,
						"slot": "4",
						"type": "t_uint256"
					}
				],
				"types": {
					"t_address": {
						"encoding": "inplace",
						"label": "address",
						"numberOfBytes": "20"
					},
					"t_array(t_struct(Milestone)12_storage)dyn_storage": {
						"base": "t_struct(Milestone)12_storage",
						"encoding": "dynamic_array",
						"label": "struct MilestoneEscrow.Milestone[]",
						"numberOfBytes": "32"
					},
					"t_bool": {
						"encoding": "inplace",
						"label": "bool",
						"numberOfBytes": "1"
					},
					"t_struct(Milestone)12_storage": {
						"encoding": "inplace",
						"label": "struct MilestoneEscrow.Milestone",
						"members": [
							{
								"astId": 9,
								"contract": "E/Milestone-Based Escrow.sol:MilestoneEscrow",
								"label": "amount",
								"offset": 0,
								"slot": "0",
								"type": "t_uint256"
							},
							{
								"astId": 11,
								"contract": "E/Milestone-Based Escrow.sol:MilestoneEscrow",
								"label": "isReleased",
								"offset": 0,
								"slot": "1",
								"type": "t_bool"
							}
						],
						"numberOfBytes": "64"
					},
					"t_uint256": {
						"encoding": "inplace",
						"label": "uint256",
						"numberOfBytes": "32"
					}
				}
			},
			"userdoc": {
				"kind": "user",
				"methods": {},
				"version": 1
			}
		}
	}
}