{
	"data": {
		"bytecode": {
			"linkReferences": {},
			"object": "608060405234801561000f575f5ffd5b5060405161065a38038061065a833981810160405281019061003191906100d4565b805f5f6101000a81548173ffffffffffffffffffffffffffffffffffffffff021916908373ffffffffffffffffffffffffffffffffffffffff160217905550506100ff565b5f5ffd5b5f73ffffffffffffffffffffffffffffffffffffffff82169050919050565b5f6100a38261007a565b9050919050565b6100b381610099565b81146100bd575f5ffd5b50565b5f815190506100ce816100aa565b92915050565b5f602082840312156100e9576100e8610076565b5b5f6100f6848285016100c0565b91505092915050565b61054e8061010c5f395ff3fe608060405234801561000f575f5ffd5b5060043610610055575f3560e01c80634972134a14610059578063570ca7351461007757806368e2f97914610095578063a23f6c50146100c5578063fadb4211146100e1575b5f5ffd5b610061610111565b60405161006e9190610282565b60405180910390f35b61007f610117565b60405161008c91906102da565b60405180910390f35b6100af60048036038101906100aa9190610321565b61013b565b6040516100bc9190610364565b60405180910390f35b6100df60048036038101906100da91906103a7565b610150565b005b6100fb60048036038101906100f69190610321565b61024b565b60405161010891906103ec565b60405180910390f35b60015481565b5f5f9054906101000a900473ffffffffffffffffffffffffffffffffffffffff1681565b6002602052805f5260405f205f915090505481565b5f5f9054906101000a900473ffffffffffffffffffffffffffffffffffffffff1673ffffffffffffffffffffffffffffffffffffffff163373ffffffffffffffffffffffffffffffffffffffff16146101de576040517f08c379a00000000000000000000000000000000000000000000000000000000081526004016101d59061045f565b60405180910390fd5b8060025f60015481526020019081526020015f20819055507fca348ea06d572b79810738bb6a9640589c4f3b153ce819b8b9f07353ab9aacf06001548260405161022992919061047d565b60405180910390a160015f815480929190610243906104d1565b919050555050565b5f5f5f1b60025f8481526020019081526020015f205414159050919050565b5f819050919050565b61027c8161026a565b82525050565b5f6020820190506102955f830184610273565b92915050565b5f73ffffffffffffffffffffffffffffffffffffffff82169050919050565b5f6102c48261029b565b9050919050565b6102d4816102ba565b82525050565b5f6020820190506102ed5f8301846102cb565b92915050565b5f5ffd5b6103008161026a565b811461030a575f5ffd5b50565b5f8135905061031b816102f7565b92915050565b5f60208284031215610336576103356102f3565b5b5f6103438482850161030d565b91505092915050565b5f819050919050565b61035e8161034c565b82525050565b5f6020820190506103775f830184610355565b92915050565b6103868161034c565b8114610390575f5ffd5b50565b5f813590506103a18161037d565b92915050565b5f602082840312156103bc576103bb6102f3565b5b5f6103c984828501610393565b91505092915050565b5f8115159050919050565b6103e6816103d2565b82525050565b5f6020820190506103ff5f8301846103dd565b92915050565b5f82825260208201905092915050565b7f4e6f74204c32206f70657261746f7200000000000000000000000000000000005f82015250565b5f610449600f83610405565b915061045482610415565b602082019050919050565b5f6020820190508181035f8301526104768161043d565b9050919050565b5f6040820190506104905f830185610273565b61049d6020830184610355565b9392505050565b7f4e487b71000000000000000000000000000000000000000000000000000000005f52601160045260245ffd5b5f6104db8261026a565b91507fffffffffffffffffffffffffffffffffffffffffffffffffffffffffffffffff820361050d5761050c6104a4565b5b60018201905091905056fea26469706673582212208034c685e1a9694665c80f0671279772ae78e8b495d9a519458562ebfc474e1464736f6c634300081d0033",
			"opcodes": "PUSH1 0x80 PUSH1 0x40 MSTORE CALLVALUE DUP1 ISZERO PUSH2 0xF JUMPI PUSH0 PUSH0 REVERT JUMPDEST POP PUSH1 0x40 MLOAD PUSH2 0x65A CODESIZE SUB DUP1 PUSH2 0x65A DUP4 CODECOPY DUP2 DUP2 ADD PUSH1 0x40 MSTORE DUP2 ADD SWAP1 PUSH2 0x31 SWAP2 SWAP1 PUSH2 0xD4 JUMP JUMPDEST DUP1 PUSH0 PUSH0 PUSH2 0x100 EXP DUP2 SLOAD DUP2 PUSH20 0xFFFFFFFFFFFFFFFFFFFFFFFFFFFFFFFFFFFFFFFF MUL NOT AND SWAP1 DUP4 PUSH20 0xFFFFFFFFFFFFFFFFFFFFFFFFFFFFFFFFFFFFFFFF AND MUL OR SWAP1 SSTORE POP POP PUSH2 0xFF JUMP JUMPDEST PUSH0 PUSH0 REVERT JUMPDEST PUSH0 PUSH20 0xFFFFFFFFFFFFFFFFFFFFFFFFFFFFFFFFFFFFFFFF DUP3 AND SWAP1 POP SWAP2 SWAP1 POP JUMP JUMPDEST PUSH0 PUSH2 0xA3 DUP3 PUSH2 0x7A JUMP JUMPDEST SWAP1 POP SWAP2 SWAP1 POP JUMP JUMPDEST PUSH2 0xB3 DUP2 PUSH2 0x99 JUMP JUMPDEST DUP2 EQ PUSH2 0xBD JUMPI PUSH0 PUSH0 REVERT JUMPDEST POP JUMP JUMPDEST PUSH0 DUP2 MLOAD SWAP1 POP PUSH2 0xCE DUP2 PUSH2 0xAA JUMP JUMPDEST SWAP3 SWAP2 POP POP JUMP JUMPDEST PUSH0 PUSH1 0x20 DUP3 DUP5 SUB SLT ISZERO PUSH2 0xE9 JUMPI PUSH2 0xE8 PUSH2 0x76 JUMP JUMPDEST JUMPDEST PUSH0 PUSH2 0xF6 DUP5 DUP3 DUP6 ADD PUSH2 0xC0 JUMP JUMPDEST SWAP2 POP POP SWAP3 SWAP2 POP POP JUMP JUMPDEST PUSH2 0x54E DUP1 PUSH2 0x10C PUSH0 CODECOPY PUSH0 RETURN INVALID PUSH1 0x80 PUSH1 0x40 MSTORE CALLVALUE DUP1 ISZERO PUSH2 0xF JUMPI PUSH0 PUSH0 REVERT JUMPDEST POP PUSH1 0x4 CALLDATASIZE LT PUSH2 0x55 JUMPI PUSH0 CALLDATALOAD PUSH1 0xE0 SHR DUP1 PUSH4 0x4972134A EQ PUSH2 0x59 JUMPI DUP1 PUSH4 0x570CA735 EQ PUSH2 0x77 JUMPI DUP1 PUSH4 0x68E2F979 EQ PUSH2 0x95 JUMPI DUP1 PUSH4 0xA23F6C50 EQ PUSH2 0xC5 JUMPI DUP1 PUSH4 0xFADB4211 EQ PUSH2 0xE1 JUMPI JUMPDEST PUSH0 PUSH0 REVERT JUMPDEST PUSH2 0x61 PUSH2 0x111 JUMP JUMPDEST PUSH1 0x40 MLOAD PUSH2 0x6E SWAP2 SWAP1 PUSH2 0x282 JUMP JUMPDEST PUSH1 0x40 MLOAD DUP1 SWAP2 SUB SWAP1 RETURN JUMPDEST PUSH2 0x7F PUSH2 0x117 JUMP JUMPDEST PUSH1 0x40 MLOAD PUSH2 0x8C SWAP2 SWAP1 PUSH2 0x2DA JUMP JUMPDEST PUSH1 0x40 MLOAD DUP1 SWAP2 SUB SWAP1 RETURN JUMPDEST PUSH2 0xAF PUSH1 0x4 DUP1 CALLDATASIZE SUB DUP2 ADD SWAP1 PUSH2 0xAA SWAP2 SWAP1 PUSH2 0x321 JUMP JUMPDEST PUSH2 0x13B JUMP JUMPDEST PUSH1 0x40 MLOAD PUSH2 0xBC SWAP2 SWAP1 PUSH2 0x364 JUMP JUMPDEST PUSH1 0x40 MLOAD DUP1 SWAP2 SUB SWAP1 RETURN JUMPDEST PUSH2 0xDF PUSH1 0x4 DUP1 CALLDATASIZE SUB DUP2 ADD SWAP1 PUSH2 0xDA SWAP2 SWAP1 PUSH2 0x3A7 JUMP JUMPDEST PUSH2 0x150 JUMP JUMPDEST STOP JUMPDEST PUSH2 0xFB PUSH1 0x4 DUP1 CALLDATASIZE SUB DUP2 ADD SWAP1 PUSH2 0xF6 SWAP2 SWAP1 PUSH2 0x321 JUMP JUMPDEST PUSH2 0x24B JUMP JUMPDEST PUSH1 0x40 MLOAD PUSH2 0x108 SWAP2 SWAP1 PUSH2 0x3EC JUMP JUMPDEST PUSH1 0x40 MLOAD DUP1 SWAP2 SUB SWAP1 RETURN JUMPDEST PUSH1 0x1 SLOAD DUP2 JUMP JUMPDEST PUSH0 PUSH0 SWAP1 SLOAD SWAP1 PUSH2 0x100 EXP SWAP1 DIV PUSH20 0xFFFFFFFFFFFFFFFFFFFFFFFFFFFFFFFFFFFFFFFF AND DUP2 JUMP JUMPDEST PUSH1 0x2 PUSH1 0x20 MSTORE DUP1 PUSH0 MSTORE PUSH1 0x40 PUSH0 KECCAK256 PUSH0 SWAP2 POP SWAP1 POP SLOAD DUP2 JUMP JUMPDEST PUSH0 PUSH0 SWAP1 SLOAD SWAP1 PUSH2 0x100 EXP SWAP1 DIV PUSH20 0xFFFFFFFFFFFFFFFFFFFFFFFFFFFFFFFFFFFFFFFF AND PUSH20 0xFFFFFFFFFFFFFFFFFFFFFFFFFFFFFFFFFFFFFFFF AND CALLER PUSH20 0xFFFFFFFFFFFFFFFFFFFFFFFFFFFFFFFFFFFFFFFF AND EQ PUSH2 0x1DE JUMPI PUSH1 0x40 MLOAD PUSH32 0x8C379A000000000000000000000000000000000000000000000000000000000 DUP2 MSTORE PUSH1 0x4 ADD PUSH2 0x1D5 SWAP1 PUSH2 0x45F JUMP JUMPDEST PUSH1 0x40 MLOAD DUP1 SWAP2 SUB SWAP1 REVERT JUMPDEST DUP1 PUSH1 0x2 PUSH0 PUSH1 0x1 SLOAD DUP2 MSTORE PUSH1 0x20 ADD SWAP1 DUP2 MSTORE PUSH1 0x20 ADD PUSH0 KECCAK256 DUP2 SWAP1 SSTORE POP PUSH32 0xCA348EA06D572B79810738BB6A9640589C4F3B153CE819B8B9F07353AB9AACF0 PUSH1 0x1 SLOAD DUP3 PUSH1 0x40 MLOAD PUSH2 0x229 SWAP3 SWAP2 SWAP1 PUSH2 0x47D JUMP JUMPDEST PUSH1 0x40 MLOAD DUP1 SWAP2 SUB SWAP1 LOG1 PUSH1 0x1 PUSH0 DUP2 SLOAD DUP1 SWAP3 SWAP2 SWAP1 PUSH2 0x243 SWAP1 PUSH2 0x4D1 JUMP JUMPDEST SWAP2 SWAP1 POP SSTORE POP POP JUMP JUMPDEST PUSH0 PUSH0 PUSH0 SHL PUSH1 0x2 PUSH0 DUP5 DUP2 MSTORE PUSH1 0x20 ADD SWAP1 DUP2 MSTORE PUSH1 0x20 ADD PUSH0 KECCAK256 SLOAD EQ ISZERO SWAP1 POP SWAP2 SWAP1 POP JUMP JUMPDEST PUSH0 DUP2 SWAP1 POP SWAP2 SWAP1 POP JUMP JUMPDEST PUSH2 0x27C DUP2 PUSH2 0x26A JUMP JUMPDEST DUP3 MSTORE POP POP JUMP JUMPDEST PUSH0 PUSH1 0x20 DUP3 ADD SWAP1 POP PUSH2 0x295 PUSH0 DUP4 ADD DUP5 PUSH2 0x273 JUMP JUMPDEST SWAP3 SWAP2 POP POP JUMP JUMPDEST PUSH0 PUSH20 0xFFFFFFFFFFFFFFFFFFFFFFFFFFFFFFFFFFFFFFFF DUP3 AND SWAP1 POP SWAP2 SWAP1 POP JUMP JUMPDEST PUSH0 PUSH2 0x2C4 DUP3 PUSH2 0x29B JUMP JUMPDEST SWAP1 POP SWAP2 SWAP1 POP JUMP JUMPDEST PUSH2 0x2D4 DUP2 PUSH2 0x2BA JUMP JUMPDEST DUP3 MSTORE POP POP JUMP JUMPDEST PUSH0 PUSH1 0x20 DUP3 ADD SWAP1 POP PUSH2 0x2ED PUSH0 DUP4 ADD DUP5 PUSH2 0x2CB JUMP JUMPDEST SWAP3 SWAP2 POP POP JUMP JUMPDEST PUSH0 PUSH0 REVERT JUMPDEST PUSH2 0x300 DUP2 PUSH2 0x26A JUMP JUMPDEST DUP2 EQ PUSH2 0x30A JUMPI PUSH0 PUSH0 REVERT JUMPDEST POP JUMP JUMPDEST PUSH0 DUP2 CALLDATALOAD SWAP1 POP PUSH2 0x31B DUP2 PUSH2 0x2F7 JUMP JUMPDEST SWAP3 SWAP2 POP POP JUMP JUMPDEST PUSH0 PUSH1 0x20 DUP3 DUP5 SUB SLT ISZERO PUSH2 0x336 JUMPI PUSH2 0x335 PUSH2 0x2F3 JUMP JUMPDEST JUMPDEST PUSH0 PUSH2 0x343 DUP5 DUP3 DUP6 ADD PUSH2 0x30D JUMP JUMPDEST SWAP2 POP POP SWAP3 SWAP2 POP POP JUMP JUMPDEST PUSH0 DUP2 SWAP1 POP SWAP2 SWAP1 POP JUMP JUMPDEST PUSH2 0x35E DUP2 PUSH2 0x34C JUMP JUMPDEST DUP3 MSTORE POP POP JUMP JUMPDEST PUSH0 PUSH1 0x20 DUP3 ADD SWAP1 POP PUSH2 0x377 PUSH0 DUP4 ADD DUP5 PUSH2 0x355 JUMP JUMPDEST SWAP3 SWAP2 POP POP JUMP JUMPDEST PUSH2 0x386 DUP2 PUSH2 0x34C JUMP JUMPDEST DUP2 EQ PUSH2 0x390 JUMPI PUSH0 PUSH0 REVERT JUMPDEST POP JUMP JUMPDEST PUSH0 DUP2 CALLDATALOAD SWAP1 POP PUSH2 0x3A1 DUP2 PUSH2 0x37D JUMP JUMPDEST SWAP3 SWAP2 POP POP JUMP JUMPDEST PUSH0 PUSH1 0x20 DUP3 DUP5 SUB SLT ISZERO PUSH2 0x3BC JUMPI PUSH2 0x3BB PUSH2 0x2F3 JUMP JUMPDEST JUMPDEST PUSH0 PUSH2 0x3C9 DUP5 DUP3 DUP6 ADD PUSH2 0x393 JUMP JUMPDEST SWAP2 POP POP SWAP3 SWAP2 POP POP JUMP JUMPDEST PUSH0 DUP2 ISZERO ISZERO SWAP1 POP SWAP2 SWAP1 POP JUMP JUMPDEST PUSH2 0x3E6 DUP2 PUSH2 0x3D2 JUMP JUMPDEST DUP3 MSTORE POP POP JUMP JUMPDEST PUSH0 PUSH1 0x20 DUP3 ADD SWAP1 POP PUSH2 0x3FF PUSH0 DUP4 ADD DUP5 PUSH2 0x3DD JUMP JUMPDEST SWAP3 SWAP2 POP POP JUMP JUMPDEST PUSH0 DUP3 DUP3 MSTORE PUSH1 0x20 DUP3 ADD SWAP1 POP SWAP3 SWAP2 POP POP JUMP JUMPDEST PUSH32 0x4E6F74204C32206F70657261746F720000000000000000000000000000000000 PUSH0 DUP3 ADD MSTORE POP JUMP JUMPDEST PUSH0 PUSH2 0x449 PUSH1 0xF DUP4 PUSH2 0x405 JUMP JUMPDEST SWAP2 POP PUSH2 0x454 DUP3 PUSH2 0x415 JUMP JUMPDEST PUSH1 0x20 DUP3 ADD SWAP1 POP SWAP2 SWAP1 POP JUMP JUMPDEST PUSH0 PUSH1 0x20 DUP3 ADD SWAP1 POP DUP2 DUP2 SUB PUSH0 DUP4 ADD MSTORE PUSH2 0x476 DUP2 PUSH2 0x43D JUMP JUMPDEST SWAP1 POP SWAP2 SWAP1 POP JUMP JUMPDEST PUSH0 PUSH1 0x40 DUP3 ADD SWAP1 POP PUSH2 0x490 PUSH0 DUP4 ADD DUP6 PUSH2 0x273 JUMP JUMPDEST PUSH2 0x49D PUSH1 0x20 DUP4 ADD DUP5 PUSH2 0x355 JUMP JUMPDEST SWAP4 SWAP3 POP POP POP JUMP JUMPDEST PUSH32 0x4E487B7100000000000000000000000000000000000000000000000000000000 PUSH0 MSTORE PUSH1 0x11 PUSH1 0x4 MSTORE PUSH1 0x24 PUSH0 REVERT JUMPDEST PUSH0 PUSH2 0x4DB DUP3 PUSH2 0x26A JUMP JUMPDEST SWAP2 POP PUSH32 0xFFFFFFFFFFFFFFFFFFFFFFFFFFFFFFFFFFFFFFFFFFFFFFFFFFFFFFFFFFFFFFFF DUP3 SUB PUSH2 0x50D JUMPI PUSH2 0x50C PUSH2 0x4A4 JUMP JUMPDEST JUMPDEST PUSH1 0x1 DUP3 ADD SWAP1 POP SWAP2 SWAP1 POP JUMP INVALID LOG2 PUSH5 0x6970667358 0x22 SLT KECCAK256 DUP1 CALLVALUE 0xC6 DUP6 RJUMPI 0xA969 CHAINID PUSH6 0xC80F06712797 PUSH19 0xAE78E8B495D9A519458562EBFC474E1464736F PUSH13 0x634300081D0033000000000000 "
		},
		"gasEstimates": {
			"creation": {
				"codeDepositCost": "271600",
				"executionCost": "infinite",
				"totalCost": "infinite"
			},
			"external": {
				"batchId()": "2403",
				"batchRoots(uint256)": "2776",
				"isBatchSubmitted(uint256)": "2854",
				"operator()": "2507",
				"submitBatch(bytes32)": "infinite"
			}
		},
		"methodIdentifiers": {
			"batchId()": "4972134a",
			"batchRoots(uint256)": "68e2f979",
			"isBatchSubmitted(uint256)": "fadb4211",
			"operator()": "570ca735",
			"submitBatch(bytes32)": "a23f6c50"
		}
	},
	"abi": [
		{
			"inputs": [
				{
					"internalType": "address",
					"name": "_operator",
					"type": "address"
				}
			],
			"stateMutability": "nonpayable",
			"type": "constructor"
		},
		{
			"anonymous": false,
			"inputs": [
				{
					"indexed": false,
					"internalType": "uint256",
					"name": "batchId",
					"type": "uint256"
				},
				{
					"indexed": false,
					"internalType": "bytes32",
					"name": "merkleRoot",
					"type": "bytes32"
				}
			],
			"name": "BatchCommitted",
			"type": "event"
		},
		{
			"inputs": [],
			"name": "batchId",
			"outputs": [
				{
					"internalType": "uint256",
					"name": "",
					"type": "uint256"
				}
			],
			"stateMutability": "view",
			"type": "function"
		},
		{
			"inputs": [
				{
					"internalType": "uint256",
					"name": "",
					"type": "uint256"
				}
			],
			"name": "batchRoots",
			"outputs": [
				{
					"internalType": "bytes32",
					"name": "",
					"type": "bytes32"
				}
			],
			"stateMutability": "view",
			"type": "function"
		},
		{
			"inputs": [
				{
					"internalType": "uint256",
					"name": "_id",
					"type": "uint256"
				}
			],
			"name": "isBatchSubmitted",
			"outputs": [
				{
					"internalType": "bool",
					"name": "",
					"type": "bool"
				}
			],
			"stateMutability": "view",
			"type": "function"
		},
		{
			"inputs": [],
			"name": "operator",
			"outputs": [
				{
					"internalType": "address",
					"name": "",
					"type": "address"
				}
			],
			"stateMutability": "view",
			"type": "function"
		},
		{
			"inputs": [
				{
					"internalType": "bytes32",
					"name": "_merkleRoot",
					"type": "bytes32"
				}
			],
			"name": "submitBatch",
			"outputs": [],
			"stateMutability": "nonpayable",
			"type": "function"
		}
	]
}