{
	"F/ForkChoiceRule/ForkChoiceAttestationBased.sol": {
		"ForkChoiceAttestationBased": {
			"abi": [
				{
					"anonymous": false,
					"inputs": [
						{
							"indexed": true,
							"internalType": "bytes32",
							"name": "forkId",
							"type": "bytes32"
						},
						{
							"indexed": false,
							"internalType": "uint256",
							"name": "totalVotes",
							"type": "uint256"
						}
					],
					"name": "Attested",
					"type": "event"
				},
				{
					"anonymous": false,
					"inputs": [
						{
							"indexed": false,
							"internalType": "bytes32",
							"name": "forkId",
							"type": "bytes32"
						}
					],
					"name": "CanonicalForkChanged",
					"type": "event"
				},
				{
					"inputs": [
						{
							"internalType": "bytes32",
							"name": "forkId",
							"type": "bytes32"
						}
					],
					"name": "attest",
					"outputs": [],
					"stateMutability": "payable",
					"type": "function"
				},
				{
					"inputs": [
						{
							"internalType": "bytes32",
							"name": "",
							"type": "bytes32"
						}
					],
					"name": "attestations",
					"outputs": [
						{
							"internalType": "uint256",
							"name": "",
							"type": "uint256"
						}
					],
					"stateMutability": "view",
					"type": "function"
				},
				{
					"inputs": [],
					"name": "canonical",
					"outputs": [
						{
							"internalType": "bytes32",
							"name": "",
							"type": "bytes32"
						}
					],
					"stateMutability": "view",
					"type": "function"
				},
				{
					"inputs": [],
					"name": "getCanonical",
					"outputs": [
						{
							"internalType": "bytes32",
							"name": "",
							"type": "bytes32"
						}
					],
					"stateMutability": "view",
					"type": "function"
				}
			],
			"devdoc": {
				"kind": "dev",
				"methods": {},
				"version": 1
			},
			"evm": {
				"assembly": "    /* \"F/ForkChoiceRule/ForkChoiceAttestationBased.sol\":58:770  contract ForkChoiceAttestationBased {... */\n  mstore(0x40, 0x80)\n  callvalue\n  dup1\n  iszero\n  tag_1\n  jumpi\n  revert(0x00, 0x00)\ntag_1:\n  pop\n  dataSize(sub_0)\n  dup1\n  dataOffset(sub_0)\n  0x00\n  codecopy\n  0x00\n  return\nstop\n\nsub_0: assembly {\n        /* \"F/ForkChoiceRule/ForkChoiceAttestationBased.sol\":58:770  contract ForkChoiceAttestationBased {... */\n      mstore(0x40, 0x80)\n      jumpi(tag_1, lt(calldatasize, 0x04))\n      shr(0xe0, calldataload(0x00))\n      dup1\n      0x23c3617f\n      eq\n      tag_2\n      jumpi\n      dup1\n      0x26afaadd\n      eq\n      tag_3\n      jumpi\n      dup1\n      0x940992a3\n      eq\n      tag_4\n      jumpi\n      dup1\n      0xf3a19620\n      eq\n      tag_5\n      jumpi\n    tag_1:\n      revert(0x00, 0x00)\n        /* \"F/ForkChoiceRule/ForkChoiceAttestationBased.sol\":297:673  function attest(bytes32 forkId) external payable {... */\n    tag_2:\n      tag_6\n      0x04\n      dup1\n      calldatasize\n      sub\n      dup2\n      add\n      swap1\n      tag_7\n      swap2\n      swap1\n      tag_8\n      jump\t// in\n    tag_7:\n      tag_9\n      jump\t// in\n    tag_6:\n      stop\n        /* \"F/ForkChoiceRule/ForkChoiceAttestationBased.sol\":153:177  bytes32 public canonical */\n    tag_3:\n      callvalue\n      dup1\n      iszero\n      tag_10\n      jumpi\n      revert(0x00, 0x00)\n    tag_10:\n      pop\n      tag_11\n      tag_12\n      jump\t// in\n    tag_11:\n      mload(0x40)\n      tag_13\n      swap2\n      swap1\n      tag_14\n      jump\t// in\n    tag_13:\n      mload(0x40)\n      dup1\n      swap2\n      sub\n      swap1\n      return\n        /* \"F/ForkChoiceRule/ForkChoiceAttestationBased.sol\":100:147  mapping(bytes32 => uint256) public attestations */\n    tag_4:\n      callvalue\n      dup1\n      iszero\n      tag_15\n      jumpi\n      revert(0x00, 0x00)\n    tag_15:\n      pop\n      tag_16\n      0x04\n      dup1\n      calldatasize\n      sub\n      dup2\n      add\n      swap1\n      tag_17\n      swap2\n      swap1\n      tag_8\n      jump\t// in\n    tag_17:\n      tag_18\n      jump\t// in\n    tag_16:\n      mload(0x40)\n      tag_19\n      swap2\n      swap1\n      tag_20\n      jump\t// in\n    tag_19:\n      mload(0x40)\n      dup1\n      swap2\n      sub\n      swap1\n      return\n        /* \"F/ForkChoiceRule/ForkChoiceAttestationBased.sol\":679:768  function getCanonical() external view returns (bytes32) {... */\n    tag_5:\n      callvalue\n      dup1\n      iszero\n      tag_21\n      jumpi\n      revert(0x00, 0x00)\n    tag_21:\n      pop\n      tag_22\n      tag_23\n      jump\t// in\n    tag_22:\n      mload(0x40)\n      tag_24\n      swap2\n      swap1\n      tag_14\n      jump\t// in\n    tag_24:\n      mload(0x40)\n      dup1\n      swap2\n      sub\n      swap1\n      return\n        /* \"F/ForkChoiceRule/ForkChoiceAttestationBased.sol\":297:673  function attest(bytes32 forkId) external payable {... */\n    tag_9:\n        /* \"F/ForkChoiceRule/ForkChoiceAttestationBased.sol\":376:377  0 */\n      0x00\n        /* \"F/ForkChoiceRule/ForkChoiceAttestationBased.sol\":364:373  msg.value */\n      callvalue\n        /* \"F/ForkChoiceRule/ForkChoiceAttestationBased.sol\":364:377  msg.value > 0 */\n      gt\n        /* \"F/ForkChoiceRule/ForkChoiceAttestationBased.sol\":356:417  require(msg.value > 0, \"Must send ETH as attestation weight\") */\n      tag_26\n      jumpi\n      mload(0x40)\n      0x08c379a000000000000000000000000000000000000000000000000000000000\n      dup2\n      mstore\n      0x04\n      add\n      tag_27\n      swap1\n      tag_28\n      jump\t// in\n    tag_27:\n      mload(0x40)\n      dup1\n      swap2\n      sub\n      swap1\n      revert\n    tag_26:\n        /* \"F/ForkChoiceRule/ForkChoiceAttestationBased.sol\":451:460  msg.value */\n      callvalue\n        /* \"F/ForkChoiceRule/ForkChoiceAttestationBased.sol\":427:439  attestations */\n      0x00\n        /* \"F/ForkChoiceRule/ForkChoiceAttestationBased.sol\":427:447  attestations[forkId] */\n      0x00\n        /* \"F/ForkChoiceRule/ForkChoiceAttestationBased.sol\":440:446  forkId */\n      dup4\n        /* \"F/ForkChoiceRule/ForkChoiceAttestationBased.sol\":427:447  attestations[forkId] */\n      dup2\n      mstore\n      0x20\n      add\n      swap1\n      dup2\n      mstore\n      0x20\n      add\n      0x00\n      keccak256\n      0x00\n        /* \"F/ForkChoiceRule/ForkChoiceAttestationBased.sol\":427:460  attestations[forkId] += msg.value */\n      dup3\n      dup3\n      sload\n      tag_29\n      swap2\n      swap1\n      tag_30\n      jump\t// in\n    tag_29:\n      swap3\n      pop\n      pop\n      dup2\n      swap1\n      sstore\n      pop\n        /* \"F/ForkChoiceRule/ForkChoiceAttestationBased.sol\":498:510  attestations */\n      0x00\n        /* \"F/ForkChoiceRule/ForkChoiceAttestationBased.sol\":498:521  attestations[canonical] */\n      0x00\n        /* \"F/ForkChoiceRule/ForkChoiceAttestationBased.sol\":511:520  canonical */\n      sload(0x01)\n        /* \"F/ForkChoiceRule/ForkChoiceAttestationBased.sol\":498:521  attestations[canonical] */\n      dup2\n      mstore\n      0x20\n      add\n      swap1\n      dup2\n      mstore\n      0x20\n      add\n      0x00\n      keccak256\n      sload\n        /* \"F/ForkChoiceRule/ForkChoiceAttestationBased.sol\":475:487  attestations */\n      0x00\n        /* \"F/ForkChoiceRule/ForkChoiceAttestationBased.sol\":475:495  attestations[forkId] */\n      0x00\n        /* \"F/ForkChoiceRule/ForkChoiceAttestationBased.sol\":488:494  forkId */\n      dup4\n        /* \"F/ForkChoiceRule/ForkChoiceAttestationBased.sol\":475:495  attestations[forkId] */\n      dup2\n      mstore\n      0x20\n      add\n      swap1\n      dup2\n      mstore\n      0x20\n      add\n      0x00\n      keccak256\n      sload\n        /* \"F/ForkChoiceRule/ForkChoiceAttestationBased.sol\":475:521  attestations[forkId] > attestations[canonical] */\n      gt\n        /* \"F/ForkChoiceRule/ForkChoiceAttestationBased.sol\":471:613  if (attestations[forkId] > attestations[canonical]) {... */\n      iszero\n      tag_31\n      jumpi\n        /* \"F/ForkChoiceRule/ForkChoiceAttestationBased.sol\":549:555  forkId */\n      dup1\n        /* \"F/ForkChoiceRule/ForkChoiceAttestationBased.sol\":537:546  canonical */\n      0x01\n        /* \"F/ForkChoiceRule/ForkChoiceAttestationBased.sol\":537:555  canonical = forkId */\n      dup2\n      swap1\n      sstore\n      pop\n        /* \"F/ForkChoiceRule/ForkChoiceAttestationBased.sol\":574:602  CanonicalForkChanged(forkId) */\n      0xe81c4a3b70499b03dabf4f9f9d4d227d90858ced5b5e31e7b9fc1dee5e4766bd\n        /* \"F/ForkChoiceRule/ForkChoiceAttestationBased.sol\":595:601  forkId */\n      dup2\n        /* \"F/ForkChoiceRule/ForkChoiceAttestationBased.sol\":574:602  CanonicalForkChanged(forkId) */\n      mload(0x40)\n      tag_32\n      swap2\n      swap1\n      tag_14\n      jump\t// in\n    tag_32:\n      mload(0x40)\n      dup1\n      swap2\n      sub\n      swap1\n      log1\n        /* \"F/ForkChoiceRule/ForkChoiceAttestationBased.sol\":471:613  if (attestations[forkId] > attestations[canonical]) {... */\n    tag_31:\n        /* \"F/ForkChoiceRule/ForkChoiceAttestationBased.sol\":637:643  forkId */\n      dup1\n        /* \"F/ForkChoiceRule/ForkChoiceAttestationBased.sol\":628:666  Attested(forkId, attestations[forkId]) */\n      0xeb426096e53cfc9909d78d36639a0e5bae10d05f184f96bd5e1a6712fd22d85d\n        /* \"F/ForkChoiceRule/ForkChoiceAttestationBased.sol\":645:657  attestations */\n      0x00\n        /* \"F/ForkChoiceRule/ForkChoiceAttestationBased.sol\":645:665  attestations[forkId] */\n      0x00\n        /* \"F/ForkChoiceRule/ForkChoiceAttestationBased.sol\":658:664  forkId */\n      dup5\n        /* \"F/ForkChoiceRule/ForkChoiceAttestationBased.sol\":645:665  attestations[forkId] */\n      dup2\n      mstore\n      0x20\n      add\n      swap1\n      dup2\n      mstore\n      0x20\n      add\n      0x00\n      keccak256\n      sload\n        /* \"F/ForkChoiceRule/ForkChoiceAttestationBased.sol\":628:666  Attested(forkId, attestations[forkId]) */\n      mload(0x40)\n      tag_33\n      swap2\n      swap1\n      tag_20\n      jump\t// in\n    tag_33:\n      mload(0x40)\n      dup1\n      swap2\n      sub\n      swap1\n      log2\n        /* \"F/ForkChoiceRule/ForkChoiceAttestationBased.sol\":297:673  function attest(bytes32 forkId) external payable {... */\n      pop\n      jump\t// out\n        /* \"F/ForkChoiceRule/ForkChoiceAttestationBased.sol\":153:177  bytes32 public canonical */\n    tag_12:\n      sload(0x01)\n      dup2\n      jump\t// out\n        /* \"F/ForkChoiceRule/ForkChoiceAttestationBased.sol\":100:147  mapping(bytes32 => uint256) public attestations */\n    tag_18:\n      mstore(0x20, 0x00)\n      dup1\n      0x00\n      mstore\n      keccak256(0x00, 0x40)\n      0x00\n      swap2\n      pop\n      swap1\n      pop\n      sload\n      dup2\n      jump\t// out\n        /* \"F/ForkChoiceRule/ForkChoiceAttestationBased.sol\":679:768  function getCanonical() external view returns (bytes32) {... */\n    tag_23:\n        /* \"F/ForkChoiceRule/ForkChoiceAttestationBased.sol\":726:733  bytes32 */\n      0x00\n        /* \"F/ForkChoiceRule/ForkChoiceAttestationBased.sol\":752:761  canonical */\n      sload(0x01)\n        /* \"F/ForkChoiceRule/ForkChoiceAttestationBased.sol\":745:761  return canonical */\n      swap1\n      pop\n        /* \"F/ForkChoiceRule/ForkChoiceAttestationBased.sol\":679:768  function getCanonical() external view returns (bytes32) {... */\n      swap1\n      jump\t// out\n        /* \"#utility.yul\":88:205   */\n    tag_36:\n        /* \"#utility.yul\":197:198   */\n      0x00\n        /* \"#utility.yul\":194:195   */\n      0x00\n        /* \"#utility.yul\":187:199   */\n      revert\n        /* \"#utility.yul\":334:411   */\n    tag_38:\n        /* \"#utility.yul\":371:378   */\n      0x00\n        /* \"#utility.yul\":400:405   */\n      dup2\n        /* \"#utility.yul\":389:405   */\n      swap1\n      pop\n        /* \"#utility.yul\":334:411   */\n      swap2\n      swap1\n      pop\n      jump\t// out\n        /* \"#utility.yul\":417:539   */\n    tag_39:\n        /* \"#utility.yul\":490:514   */\n      tag_54\n        /* \"#utility.yul\":508:513   */\n      dup2\n        /* \"#utility.yul\":490:514   */\n      tag_38\n      jump\t// in\n    tag_54:\n        /* \"#utility.yul\":483:488   */\n      dup2\n        /* \"#utility.yul\":480:515   */\n      eq\n        /* \"#utility.yul\":470:533   */\n      tag_55\n      jumpi\n        /* \"#utility.yul\":529:530   */\n      0x00\n        /* \"#utility.yul\":526:527   */\n      0x00\n        /* \"#utility.yul\":519:531   */\n      revert\n        /* \"#utility.yul\":470:533   */\n    tag_55:\n        /* \"#utility.yul\":417:539   */\n      pop\n      jump\t// out\n        /* \"#utility.yul\":545:684   */\n    tag_40:\n        /* \"#utility.yul\":591:596   */\n      0x00\n        /* \"#utility.yul\":629:635   */\n      dup2\n        /* \"#utility.yul\":616:636   */\n      calldataload\n        /* \"#utility.yul\":607:636   */\n      swap1\n      pop\n        /* \"#utility.yul\":645:678   */\n      tag_57\n        /* \"#utility.yul\":672:677   */\n      dup2\n        /* \"#utility.yul\":645:678   */\n      tag_39\n      jump\t// in\n    tag_57:\n        /* \"#utility.yul\":545:684   */\n      swap3\n      swap2\n      pop\n      pop\n      jump\t// out\n        /* \"#utility.yul\":690:1019   */\n    tag_8:\n        /* \"#utility.yul\":749:755   */\n      0x00\n        /* \"#utility.yul\":798:800   */\n      0x20\n        /* \"#utility.yul\":786:795   */\n      dup3\n        /* \"#utility.yul\":777:784   */\n      dup5\n        /* \"#utility.yul\":773:796   */\n      sub\n        /* \"#utility.yul\":769:801   */\n      slt\n        /* \"#utility.yul\":766:885   */\n      iszero\n      tag_59\n      jumpi\n        /* \"#utility.yul\":804:883   */\n      tag_60\n      tag_36\n      jump\t// in\n    tag_60:\n        /* \"#utility.yul\":766:885   */\n    tag_59:\n        /* \"#utility.yul\":924:925   */\n      0x00\n        /* \"#utility.yul\":949:1002   */\n      tag_61\n        /* \"#utility.yul\":994:1001   */\n      dup5\n        /* \"#utility.yul\":985:991   */\n      dup3\n        /* \"#utility.yul\":974:983   */\n      dup6\n        /* \"#utility.yul\":970:992   */\n      add\n        /* \"#utility.yul\":949:1002   */\n      tag_40\n      jump\t// in\n    tag_61:\n        /* \"#utility.yul\":939:1002   */\n      swap2\n      pop\n        /* \"#utility.yul\":895:1012   */\n      pop\n        /* \"#utility.yul\":690:1019   */\n      swap3\n      swap2\n      pop\n      pop\n      jump\t// out\n        /* \"#utility.yul\":1025:1143   */\n    tag_41:\n        /* \"#utility.yul\":1112:1136   */\n      tag_63\n        /* \"#utility.yul\":1130:1135   */\n      dup2\n        /* \"#utility.yul\":1112:1136   */\n      tag_38\n      jump\t// in\n    tag_63:\n        /* \"#utility.yul\":1107:1110   */\n      dup3\n        /* \"#utility.yul\":1100:1137   */\n      mstore\n        /* \"#utility.yul\":1025:1143   */\n      pop\n      pop\n      jump\t// out\n        /* \"#utility.yul\":1149:1371   */\n    tag_14:\n        /* \"#utility.yul\":1242:1246   */\n      0x00\n        /* \"#utility.yul\":1280:1282   */\n      0x20\n        /* \"#utility.yul\":1269:1278   */\n      dup3\n        /* \"#utility.yul\":1265:1283   */\n      add\n        /* \"#utility.yul\":1257:1283   */\n      swap1\n      pop\n        /* \"#utility.yul\":1293:1364   */\n      tag_65\n        /* \"#utility.yul\":1361:1362   */\n      0x00\n        /* \"#utility.yul\":1350:1359   */\n      dup4\n        /* \"#utility.yul\":1346:1363   */\n      add\n        /* \"#utility.yul\":1337:1343   */\n      dup5\n        /* \"#utility.yul\":1293:1364   */\n      tag_41\n      jump\t// in\n    tag_65:\n        /* \"#utility.yul\":1149:1371   */\n      swap3\n      swap2\n      pop\n      pop\n      jump\t// out\n        /* \"#utility.yul\":1377:1454   */\n    tag_42:\n        /* \"#utility.yul\":1414:1421   */\n      0x00\n        /* \"#utility.yul\":1443:1448   */\n      dup2\n        /* \"#utility.yul\":1432:1448   */\n      swap1\n      pop\n        /* \"#utility.yul\":1377:1454   */\n      swap2\n      swap1\n      pop\n      jump\t// out\n        /* \"#utility.yul\":1460:1578   */\n    tag_43:\n        /* \"#utility.yul\":1547:1571   */\n      tag_68\n        /* \"#utility.yul\":1565:1570   */\n      dup2\n        /* \"#utility.yul\":1547:1571   */\n      tag_42\n      jump\t// in\n    tag_68:\n        /* \"#utility.yul\":1542:1545   */\n      dup3\n        /* \"#utility.yul\":1535:1572   */\n      mstore\n        /* \"#utility.yul\":1460:1578   */\n      pop\n      pop\n      jump\t// out\n        /* \"#utility.yul\":1584:1806   */\n    tag_20:\n        /* \"#utility.yul\":1677:1681   */\n      0x00\n        /* \"#utility.yul\":1715:1717   */\n      0x20\n        /* \"#utility.yul\":1704:1713   */\n      dup3\n        /* \"#utility.yul\":1700:1718   */\n      add\n        /* \"#utility.yul\":1692:1718   */\n      swap1\n      pop\n        /* \"#utility.yul\":1728:1799   */\n      tag_70\n        /* \"#utility.yul\":1796:1797   */\n      0x00\n        /* \"#utility.yul\":1785:1794   */\n      dup4\n        /* \"#utility.yul\":1781:1798   */\n      add\n        /* \"#utility.yul\":1772:1778   */\n      dup5\n        /* \"#utility.yul\":1728:1799   */\n      tag_43\n      jump\t// in\n    tag_70:\n        /* \"#utility.yul\":1584:1806   */\n      swap3\n      swap2\n      pop\n      pop\n      jump\t// out\n        /* \"#utility.yul\":1812:1981   */\n    tag_44:\n        /* \"#utility.yul\":1896:1907   */\n      0x00\n        /* \"#utility.yul\":1930:1936   */\n      dup3\n        /* \"#utility.yul\":1925:1928   */\n      dup3\n        /* \"#utility.yul\":1918:1937   */\n      mstore\n        /* \"#utility.yul\":1970:1974   */\n      0x20\n        /* \"#utility.yul\":1965:1968   */\n      dup3\n        /* \"#utility.yul\":1961:1975   */\n      add\n        /* \"#utility.yul\":1946:1975   */\n      swap1\n      pop\n        /* \"#utility.yul\":1812:1981   */\n      swap3\n      swap2\n      pop\n      pop\n      jump\t// out\n        /* \"#utility.yul\":1987:2209   */\n    tag_45:\n        /* \"#utility.yul\":2127:2161   */\n      0x4d7573742073656e6420455448206173206174746573746174696f6e20776569\n        /* \"#utility.yul\":2123:2124   */\n      0x00\n        /* \"#utility.yul\":2115:2121   */\n      dup3\n        /* \"#utility.yul\":2111:2125   */\n      add\n        /* \"#utility.yul\":2104:2162   */\n      mstore\n        /* \"#utility.yul\":2196:2201   */\n      0x6768740000000000000000000000000000000000000000000000000000000000\n        /* \"#utility.yul\":2191:2193   */\n      0x20\n        /* \"#utility.yul\":2183:2189   */\n      dup3\n        /* \"#utility.yul\":2179:2194   */\n      add\n        /* \"#utility.yul\":2172:2202   */\n      mstore\n        /* \"#utility.yul\":1987:2209   */\n      pop\n      jump\t// out\n        /* \"#utility.yul\":2215:2581   */\n    tag_46:\n        /* \"#utility.yul\":2357:2360   */\n      0x00\n        /* \"#utility.yul\":2378:2445   */\n      tag_74\n        /* \"#utility.yul\":2442:2444   */\n      0x23\n        /* \"#utility.yul\":2437:2440   */\n      dup4\n        /* \"#utility.yul\":2378:2445   */\n      tag_44\n      jump\t// in\n    tag_74:\n        /* \"#utility.yul\":2371:2445   */\n      swap2\n      pop\n        /* \"#utility.yul\":2454:2547   */\n      tag_75\n        /* \"#utility.yul\":2543:2546   */\n      dup3\n        /* \"#utility.yul\":2454:2547   */\n      tag_45\n      jump\t// in\n    tag_75:\n        /* \"#utility.yul\":2572:2574   */\n      0x40\n        /* \"#utility.yul\":2567:2570   */\n      dup3\n        /* \"#utility.yul\":2563:2575   */\n      add\n        /* \"#utility.yul\":2556:2575   */\n      swap1\n      pop\n        /* \"#utility.yul\":2215:2581   */\n      swap2\n      swap1\n      pop\n      jump\t// out\n        /* \"#utility.yul\":2587:3006   */\n    tag_28:\n        /* \"#utility.yul\":2753:2757   */\n      0x00\n        /* \"#utility.yul\":2791:2793   */\n      0x20\n        /* \"#utility.yul\":2780:2789   */\n      dup3\n        /* \"#utility.yul\":2776:2794   */\n      add\n        /* \"#utility.yul\":2768:2794   */\n      swap1\n      pop\n        /* \"#utility.yul\":2840:2849   */\n      dup2\n        /* \"#utility.yul\":2834:2838   */\n      dup2\n        /* \"#utility.yul\":2830:2850   */\n      sub\n        /* \"#utility.yul\":2826:2827   */\n      0x00\n        /* \"#utility.yul\":2815:2824   */\n      dup4\n        /* \"#utility.yul\":2811:2828   */\n      add\n        /* \"#utility.yul\":2804:2851   */\n      mstore\n        /* \"#utility.yul\":2868:2999   */\n      tag_77\n        /* \"#utility.yul\":2994:2998   */\n      dup2\n        /* \"#utility.yul\":2868:2999   */\n      tag_46\n      jump\t// in\n    tag_77:\n        /* \"#utility.yul\":2860:2999   */\n      swap1\n      pop\n        /* \"#utility.yul\":2587:3006   */\n      swap2\n      swap1\n      pop\n      jump\t// out\n        /* \"#utility.yul\":3012:3192   */\n    tag_47:\n        /* \"#utility.yul\":3060:3137   */\n      0x4e487b7100000000000000000000000000000000000000000000000000000000\n        /* \"#utility.yul\":3057:3058   */\n      0x00\n        /* \"#utility.yul\":3050:3138   */\n      mstore\n        /* \"#utility.yul\":3157:3161   */\n      0x11\n        /* \"#utility.yul\":3154:3155   */\n      0x04\n        /* \"#utility.yul\":3147:3162   */\n      mstore\n        /* \"#utility.yul\":3181:3185   */\n      0x24\n        /* \"#utility.yul\":3178:3179   */\n      0x00\n        /* \"#utility.yul\":3171:3186   */\n      revert\n        /* \"#utility.yul\":3198:3389   */\n    tag_30:\n        /* \"#utility.yul\":3238:3241   */\n      0x00\n        /* \"#utility.yul\":3257:3277   */\n      tag_80\n        /* \"#utility.yul\":3275:3276   */\n      dup3\n        /* \"#utility.yul\":3257:3277   */\n      tag_42\n      jump\t// in\n    tag_80:\n        /* \"#utility.yul\":3252:3277   */\n      swap2\n      pop\n        /* \"#utility.yul\":3291:3311   */\n      tag_81\n        /* \"#utility.yul\":3309:3310   */\n      dup4\n        /* \"#utility.yul\":3291:3311   */\n      tag_42\n      jump\t// in\n    tag_81:\n        /* \"#utility.yul\":3286:3311   */\n      swap3\n      pop\n        /* \"#utility.yul\":3334:3335   */\n      dup3\n        /* \"#utility.yul\":3331:3332   */\n      dup3\n        /* \"#utility.yul\":3327:3336   */\n      add\n        /* \"#utility.yul\":3320:3336   */\n      swap1\n      pop\n        /* \"#utility.yul\":3355:3358   */\n      dup1\n        /* \"#utility.yul\":3352:3353   */\n      dup3\n        /* \"#utility.yul\":3349:3359   */\n      gt\n        /* \"#utility.yul\":3346:3382   */\n      iszero\n      tag_82\n      jumpi\n        /* \"#utility.yul\":3362:3380   */\n      tag_83\n      tag_47\n      jump\t// in\n    tag_83:\n        /* \"#utility.yul\":3346:3382   */\n    tag_82:\n        /* \"#utility.yul\":3198:3389   */\n      swap3\n      swap2\n      pop\n      pop\n      jump\t// out\n\n    auxdata: 0xa2646970667358221220811cc0e5779867be2c25806efcf770e14343ff8baf326c817c92b4015d87fddd64736f6c634300081d0033\n}\n",
				"bytecode": {
					"linkReferences": {},
					"object": "6080604052348015600e575f5ffd5b5061041c8061001c5f395ff3fe60806040526004361061003e575f3560e01c806323c3617f1461004257806326afaadd1461005e578063940992a314610088578063f3a19620146100c4575b5f5ffd5b61005c60048036038101906100579190610264565b6100ee565b005b348015610069575f5ffd5b5061007261020a565b60405161007f919061029e565b60405180910390f35b348015610093575f5ffd5b506100ae60048036038101906100a99190610264565b610210565b6040516100bb91906102cf565b60405180910390f35b3480156100cf575f5ffd5b506100d8610224565b6040516100e5919061029e565b60405180910390f35b5f3411610130576040517f08c379a000000000000000000000000000000000000000000000000000000000815260040161012790610368565b60405180910390fd5b345f5f8381526020019081526020015f205f82825461014f91906103b3565b925050819055505f5f60015481526020019081526020015f20545f5f8381526020019081526020015f205411156101bf57806001819055507fe81c4a3b70499b03dabf4f9f9d4d227d90858ced5b5e31e7b9fc1dee5e4766bd816040516101b6919061029e565b60405180910390a15b807feb426096e53cfc9909d78d36639a0e5bae10d05f184f96bd5e1a6712fd22d85d5f5f8481526020019081526020015f20546040516101ff91906102cf565b60405180910390a250565b60015481565b5f602052805f5260405f205f915090505481565b5f600154905090565b5f5ffd5b5f819050919050565b61024381610231565b811461024d575f5ffd5b50565b5f8135905061025e8161023a565b92915050565b5f602082840312156102795761027861022d565b5b5f61028684828501610250565b91505092915050565b61029881610231565b82525050565b5f6020820190506102b15f83018461028f565b92915050565b5f819050919050565b6102c9816102b7565b82525050565b5f6020820190506102e25f8301846102c0565b92915050565b5f82825260208201905092915050565b7f4d7573742073656e6420455448206173206174746573746174696f6e207765695f8201527f6768740000000000000000000000000000000000000000000000000000000000602082015250565b5f6103526023836102e8565b915061035d826102f8565b604082019050919050565b5f6020820190508181035f83015261037f81610346565b9050919050565b7f4e487b71000000000000000000000000000000000000000000000000000000005f52601160045260245ffd5b5f6103bd826102b7565b91506103c8836102b7565b92508282019050808211156103e0576103df610386565b5b9291505056fea2646970667358221220811cc0e5779867be2c25806efcf770e14343ff8baf326c817c92b4015d87fddd64736f6c634300081d0033",
					"opcodes": "PUSH1 0x80 PUSH1 0x40 MSTORE CALLVALUE DUP1 ISZERO PUSH1 0xE JUMPI PUSH0 PUSH0 REVERT JUMPDEST POP PUSH2 0x41C DUP1 PUSH2 0x1C PUSH0 CODECOPY PUSH0 RETURN INVALID PUSH1 0x80 PUSH1 0x40 MSTORE PUSH1 0x4 CALLDATASIZE LT PUSH2 0x3E JUMPI PUSH0 CALLDATALOAD PUSH1 0xE0 SHR DUP1 PUSH4 0x23C3617F EQ PUSH2 0x42 JUMPI DUP1 PUSH4 0x26AFAADD EQ PUSH2 0x5E JUMPI DUP1 PUSH4 0x940992A3 EQ PUSH2 0x88 JUMPI DUP1 PUSH4 0xF3A19620 EQ PUSH2 0xC4 JUMPI JUMPDEST PUSH0 PUSH0 REVERT JUMPDEST PUSH2 0x5C PUSH1 0x4 DUP1 CALLDATASIZE SUB DUP2 ADD SWAP1 PUSH2 0x57 SWAP2 SWAP1 PUSH2 0x264 JUMP JUMPDEST PUSH2 0xEE JUMP JUMPDEST STOP JUMPDEST CALLVALUE DUP1 ISZERO PUSH2 0x69 JUMPI PUSH0 PUSH0 REVERT JUMPDEST POP PUSH2 0x72 PUSH2 0x20A JUMP JUMPDEST PUSH1 0x40 MLOAD PUSH2 0x7F SWAP2 SWAP1 PUSH2 0x29E JUMP JUMPDEST PUSH1 0x40 MLOAD DUP1 SWAP2 SUB SWAP1 RETURN JUMPDEST CALLVALUE DUP1 ISZERO PUSH2 0x93 JUMPI PUSH0 PUSH0 REVERT JUMPDEST POP PUSH2 0xAE PUSH1 0x4 DUP1 CALLDATASIZE SUB DUP2 ADD SWAP1 PUSH2 0xA9 SWAP2 SWAP1 PUSH2 0x264 JUMP JUMPDEST PUSH2 0x210 JUMP JUMPDEST PUSH1 0x40 MLOAD PUSH2 0xBB SWAP2 SWAP1 PUSH2 0x2CF JUMP JUMPDEST PUSH1 0x40 MLOAD DUP1 SWAP2 SUB SWAP1 RETURN JUMPDEST CALLVALUE DUP1 ISZERO PUSH2 0xCF JUMPI PUSH0 PUSH0 REVERT JUMPDEST POP PUSH2 0xD8 PUSH2 0x224 JUMP JUMPDEST PUSH1 0x40 MLOAD PUSH2 0xE5 SWAP2 SWAP1 PUSH2 0x29E JUMP JUMPDEST PUSH1 0x40 MLOAD DUP1 SWAP2 SUB SWAP1 RETURN JUMPDEST PUSH0 CALLVALUE GT PUSH2 0x130 JUMPI PUSH1 0x40 MLOAD PUSH32 0x8C379A000000000000000000000000000000000000000000000000000000000 DUP2 MSTORE PUSH1 0x4 ADD PUSH2 0x127 SWAP1 PUSH2 0x368 JUMP JUMPDEST PUSH1 0x40 MLOAD DUP1 SWAP2 SUB SWAP1 REVERT JUMPDEST CALLVALUE PUSH0 PUSH0 DUP4 DUP2 MSTORE PUSH1 0x20 ADD SWAP1 DUP2 MSTORE PUSH1 0x20 ADD PUSH0 KECCAK256 PUSH0 DUP3 DUP3 SLOAD PUSH2 0x14F SWAP2 SWAP1 PUSH2 0x3B3 JUMP JUMPDEST SWAP3 POP POP DUP2 SWAP1 SSTORE POP PUSH0 PUSH0 PUSH1 0x1 SLOAD DUP2 MSTORE PUSH1 0x20 ADD SWAP1 DUP2 MSTORE PUSH1 0x20 ADD PUSH0 KECCAK256 SLOAD PUSH0 PUSH0 DUP4 DUP2 MSTORE PUSH1 0x20 ADD SWAP1 DUP2 MSTORE PUSH1 0x20 ADD PUSH0 KECCAK256 SLOAD GT ISZERO PUSH2 0x1BF JUMPI DUP1 PUSH1 0x1 DUP2 SWAP1 SSTORE POP PUSH32 0xE81C4A3B70499B03DABF4F9F9D4D227D90858CED5B5E31E7B9FC1DEE5E4766BD DUP2 PUSH1 0x40 MLOAD PUSH2 0x1B6 SWAP2 SWAP1 PUSH2 0x29E JUMP JUMPDEST PUSH1 0x40 MLOAD DUP1 SWAP2 SUB SWAP1 LOG1 JUMPDEST DUP1 PUSH32 0xEB426096E53CFC9909D78D36639A0E5BAE10D05F184F96BD5E1A6712FD22D85D PUSH0 PUSH0 DUP5 DUP2 MSTORE PUSH1 0x20 ADD SWAP1 DUP2 MSTORE PUSH1 0x20 ADD PUSH0 KECCAK256 SLOAD PUSH1 0x40 MLOAD PUSH2 0x1FF SWAP2 SWAP1 PUSH2 0x2CF JUMP JUMPDEST PUSH1 0x40 MLOAD DUP1 SWAP2 SUB SWAP1 LOG2 POP JUMP JUMPDEST PUSH1 0x1 SLOAD DUP2 JUMP JUMPDEST PUSH0 PUSH1 0x20 MSTORE DUP1 PUSH0 MSTORE PUSH1 0x40 PUSH0 KECCAK256 PUSH0 SWAP2 POP SWAP1 POP SLOAD DUP2 JUMP JUMPDEST PUSH0 PUSH1 0x1 SLOAD SWAP1 POP SWAP1 JUMP JUMPDEST PUSH0 PUSH0 REVERT JUMPDEST PUSH0 DUP2 SWAP1 POP SWAP2 SWAP1 POP JUMP JUMPDEST PUSH2 0x243 DUP2 PUSH2 0x231 JUMP JUMPDEST DUP2 EQ PUSH2 0x24D JUMPI PUSH0 PUSH0 REVERT JUMPDEST POP JUMP JUMPDEST PUSH0 DUP2 CALLDATALOAD SWAP1 POP PUSH2 0x25E DUP2 PUSH2 0x23A JUMP JUMPDEST SWAP3 SWAP2 POP POP JUMP JUMPDEST PUSH0 PUSH1 0x20 DUP3 DUP5 SUB SLT ISZERO PUSH2 0x279 JUMPI PUSH2 0x278 PUSH2 0x22D JUMP JUMPDEST JUMPDEST PUSH0 PUSH2 0x286 DUP5 DUP3 DUP6 ADD PUSH2 0x250 JUMP JUMPDEST SWAP2 POP POP SWAP3 SWAP2 POP POP JUMP JUMPDEST PUSH2 0x298 DUP2 PUSH2 0x231 JUMP JUMPDEST DUP3 MSTORE POP POP JUMP JUMPDEST PUSH0 PUSH1 0x20 DUP3 ADD SWAP1 POP PUSH2 0x2B1 PUSH0 DUP4 ADD DUP5 PUSH2 0x28F JUMP JUMPDEST SWAP3 SWAP2 POP POP JUMP JUMPDEST PUSH0 DUP2 SWAP1 POP SWAP2 SWAP1 POP JUMP JUMPDEST PUSH2 0x2C9 DUP2 PUSH2 0x2B7 JUMP JUMPDEST DUP3 MSTORE POP POP JUMP JUMPDEST PUSH0 PUSH1 0x20 DUP3 ADD SWAP1 POP PUSH2 0x2E2 PUSH0 DUP4 ADD DUP5 PUSH2 0x2C0 JUMP JUMPDEST SWAP3 SWAP2 POP POP JUMP JUMPDEST PUSH0 DUP3 DUP3 MSTORE PUSH1 0x20 DUP3 ADD SWAP1 POP SWAP3 SWAP2 POP POP JUMP JUMPDEST PUSH32 0x4D7573742073656E6420455448206173206174746573746174696F6E20776569 PUSH0 DUP3 ADD MSTORE PUSH32 0x6768740000000000000000000000000000000000000000000000000000000000 PUSH1 0x20 DUP3 ADD MSTORE POP JUMP JUMPDEST PUSH0 PUSH2 0x352 PUSH1 0x23 DUP4 PUSH2 0x2E8 JUMP JUMPDEST SWAP2 POP PUSH2 0x35D DUP3 PUSH2 0x2F8 JUMP JUMPDEST PUSH1 0x40 DUP3 ADD SWAP1 POP SWAP2 SWAP1 POP JUMP JUMPDEST PUSH0 PUSH1 0x20 DUP3 ADD SWAP1 POP DUP2 DUP2 SUB PUSH0 DUP4 ADD MSTORE PUSH2 0x37F DUP2 PUSH2 0x346 JUMP JUMPDEST SWAP1 POP SWAP2 SWAP1 POP JUMP JUMPDEST PUSH32 0x4E487B7100000000000000000000000000000000000000000000000000000000 PUSH0 MSTORE PUSH1 0x11 PUSH1 0x4 MSTORE PUSH1 0x24 PUSH0 REVERT JUMPDEST PUSH0 PUSH2 0x3BD DUP3 PUSH2 0x2B7 JUMP JUMPDEST SWAP2 POP PUSH2 0x3C8 DUP4 PUSH2 0x2B7 JUMP JUMPDEST SWAP3 POP DUP3 DUP3 ADD SWAP1 POP DUP1 DUP3 GT ISZERO PUSH2 0x3E0 JUMPI PUSH2 0x3DF PUSH2 0x386 JUMP JUMPDEST JUMPDEST SWAP3 SWAP2 POP POP JUMP INVALID LOG2 PUSH5 0x6970667358 0x22 SLT KECCAK256 DUP2 SHR 0xC0 JUMPF 0x7798 PUSH8 0xBE2C25806EFCF770 RJUMPI 0x4343 SELFDESTRUCT DUP12 0xAF ORIGIN PUSH13 0x817C92B4015D87FDDD64736F6C PUSH4 0x4300081D STOP CALLER "
				},
				"gasEstimates": {
					"creation": {
						"codeDepositCost": "210400",
						"executionCost": "249",
						"totalCost": "210649"
					},
					"external": {
						"attest(bytes32)": "infinite",
						"attestations(bytes32)": "2775",
						"canonical()": "2425",
						"getCanonical()": "2476"
					}
				},
				"methodIdentifiers": {
					"attest(bytes32)": "23c3617f",
					"attestations(bytes32)": "940992a3",
					"canonical()": "26afaadd",
					"getCanonical()": "f3a19620"
				}
			},
			"storageLayout": {
				"storage": [
					{
						"astId": 5,
						"contract": "F/ForkChoiceRule/ForkChoiceAttestationBased.sol:ForkChoiceAttestationBased",
						"label": "attestations",
						"offset": 0,
						"slot": "0",
						"type": "t_mapping(t_bytes32,t_uint256)"
					},
					{
						"astId": 7,
						"contract": "F/ForkChoiceRule/ForkChoiceAttestationBased.sol:ForkChoiceAttestationBased",
						"label": "canonical",
						"offset": 0,
						"slot": "1",
						"type": "t_bytes32"
					}
				],
				"types": {
					"t_bytes32": {
						"encoding": "inplace",
						"label": "bytes32",
						"numberOfBytes": "32"
					},
					"t_mapping(t_bytes32,t_uint256)": {
						"encoding": "mapping",
						"key": "t_bytes32",
						"label": "mapping(bytes32 => uint256)",
						"numberOfBytes": "32",
						"value": "t_uint256"
					},
					"t_uint256": {
						"encoding": "inplace",
						"label": "uint256",
						"numberOfBytes": "32"
					}
				}
			},
			"userdoc": {
				"kind": "user",
				"methods": {},
				"version": 1
			}
		}
	}
}