{
	"data": {
		"bytecode": {
			"linkReferences": {},
			"object": "6080604052348015600e575f5ffd5b50610bfa8061001c5f395ff3fe608060405234801561000f575f5ffd5b5060043610610055575f3560e01c80631934925f146100595780637b15be4a146100895780638ca99bd4146100bb578063cb384323146100d9578063f3a19620146100f5575b5f5ffd5b610073600480360381019061006e9190610534565b610113565b6040516100809190610597565b60405180910390f35b6100a3600480360381019061009e91906105da565b610232565b6040516100b2939291906106a7565b60405180910390f35b6100c36102e9565b6040516100d09190610597565b60405180910390f35b6100f360048036038101906100ee91906105da565b6102ef565b005b6100fd610429565b60405161010a91906106e3565b60405180910390f35b5f8282426040516020016101299392919061075f565b604051602081830303815290604052805190602001209050604051806060016040528084848080601f0160208091040260200160405190810160405280939291908181526020018383808284375f81840152601f19601f8201169050808301925050505050505081526020015f8152602001600115158152505f5f8381526020019081526020015f205f820151815f0190816101c591906109b2565b50602082015181600101556040820151816002015f6101000a81548160ff021916908315150217905550905050807f8cc4d072920525e7421a68d4306a205258a54a781f10613d694f975f021c009f8484604051610224929190610aad565b60405180910390a292915050565b5f602052805f5260405f205f91509050805f018054610250906107e2565b80601f016020809104026020016040519081016040528092919081815260200182805461027c906107e2565b80156102c75780601f1061029e576101008083540402835291602001916102c7565b820191905f5260205f20905b8154815290600101906020018083116102aa57829003601f168201915b505050505090806001015490806002015f9054906101000a900460ff16905083565b60015481565b5f5f8281526020019081526020015f206002015f9054906101000a900460ff1661034e576040517f08c379a000000000000000000000000000000000000000000000000000000000815260040161034590610b19565b60405180910390fd5b5f5f8281526020019081526020015f206001015f81548092919061037190610b64565b91905055505f5f60015481526020019081526020015f20600101545f5f8381526020019081526020015f206001015411156103db5780600181905550807ffb595387e496ea14f357ba0577fe81344bae4dc39fe2e1bdd53ff883f10b3f7160405160405180910390a25b807f3fa7963c2ce8ca25c5cf73b1e7201206da72e64098bf73d02b2105871889d3515f5f8481526020019081526020015f206001015460405161041e9190610bab565b60405180910390a250565b60605f5f60015481526020019081526020015f205f01805461044a906107e2565b80601f0160208091040260200160405190810160405280929190818152602001828054610476906107e2565b80156104c15780601f10610498576101008083540402835291602001916104c1565b820191905f5260205f20905b8154815290600101906020018083116104a457829003601f168201915b5050505050905090565b5f5ffd5b5f5ffd5b5f5ffd5b5f5ffd5b5f5ffd5b5f5f83601f8401126104f4576104f36104d3565b5b8235905067ffffffffffffffff811115610511576105106104d7565b5b60208301915083600182028301111561052d5761052c6104db565b5b9250929050565b5f5f6020838503121561054a576105496104cb565b5b5f83013567ffffffffffffffff811115610567576105666104cf565b5b610573858286016104df565b92509250509250929050565b5f819050919050565b6105918161057f565b82525050565b5f6020820190506105aa5f830184610588565b92915050565b6105b98161057f565b81146105c3575f5ffd5b50565b5f813590506105d4816105b0565b92915050565b5f602082840312156105ef576105ee6104cb565b5b5f6105fc848285016105c6565b91505092915050565b5f81519050919050565b5f82825260208201905092915050565b8281835e5f83830152505050565b5f601f19601f8301169050919050565b5f61064782610605565b610651818561060f565b935061066181856020860161061f565b61066a8161062d565b840191505092915050565b5f819050919050565b61068781610675565b82525050565b5f8115159050919050565b6106a18161068d565b82525050565b5f6060820190508181035f8301526106bf818661063d565b90506106ce602083018561067e565b6106db6040830184610698565b949350505050565b5f6020820190508181035f8301526106fb818461063d565b905092915050565b5f81905092915050565b828183375f83830152505050565b5f6107268385610703565b935061073383858461070d565b82840190509392505050565b5f819050919050565b61075961075482610675565b61073f565b82525050565b5f61076b82858761071b565b91506107778284610748565b602082019150819050949350505050565b7f4e487b71000000000000000000000000000000000000000000000000000000005f52604160045260245ffd5b7f4e487b71000000000000000000000000000000000000000000000000000000005f52602260045260245ffd5b5f60028204905060018216806107f957607f821691505b60208210810361080c5761080b6107b5565b5b50919050565b5f819050815f5260205f209050919050565b5f6020601f8301049050919050565b5f82821b905092915050565b5f6008830261086e7fffffffffffffffffffffffffffffffffffffffffffffffffffffffffffffffff82610833565b6108788683610833565b95508019841693508086168417925050509392505050565b5f819050919050565b5f6108b36108ae6108a984610675565b610890565b610675565b9050919050565b5f819050919050565b6108cc83610899565b6108e06108d8826108ba565b84845461083f565b825550505050565b5f5f905090565b6108f76108e8565b6109028184846108c3565b505050565b5b818110156109255761091a5f826108ef565b600181019050610908565b5050565b601f82111561096a5761093b81610812565b61094484610824565b81016020851015610953578190505b61096761095f85610824565b830182610907565b50505b505050565b5f82821c905092915050565b5f61098a5f198460080261096f565b1980831691505092915050565b5f6109a2838361097b565b9150826002028217905092915050565b6109bb82610605565b67ffffffffffffffff8111156109d4576109d3610788565b5b6109de82546107e2565b6109e9828285610929565b5f60209050601f831160018114610a1a575f8415610a08578287015190505b610a128582610997565b865550610a79565b601f198416610a2886610812565b5f5b82811015610a4f57848901518255600182019150602085019450602081019050610a2a565b86831015610a6c5784890151610a68601f89168261097b565b8355505b6001600288020188555050505b505050505050565b5f610a8c838561060f565b9350610a9983858461070d565b610aa28361062d565b840190509392505050565b5f6020820190508181035f830152610ac6818486610a81565b90509392505050565b7f4e6f20666f726b000000000000000000000000000000000000000000000000005f82015250565b5f610b0360078361060f565b9150610b0e82610acf565b602082019050919050565b5f6020820190508181035f830152610b3081610af7565b9050919050565b7f4e487b71000000000000000000000000000000000000000000000000000000005f52601160045260245ffd5b5f610b6e82610675565b91507fffffffffffffffffffffffffffffffffffffffffffffffffffffffffffffffff8203610ba057610b9f610b37565b5b600182019050919050565b5f602082019050610bbe5f83018461067e565b9291505056fea26469706673582212209f57b730fee8b3c922976a55baf41942f97f16c4da9fddc4feb7d6f040608e7664736f6c634300081d0033",
			"opcodes": "PUSH1 0x80 PUSH1 0x40 MSTORE CALLVALUE DUP1 ISZERO PUSH1 0xE JUMPI PUSH0 PUSH0 REVERT JUMPDEST POP PUSH2 0xBFA DUP1 PUSH2 0x1C PUSH0 CODECOPY PUSH0 RETURN INVALID PUSH1 0x80 PUSH1 0x40 MSTORE CALLVALUE DUP1 ISZERO PUSH2 0xF JUMPI PUSH0 PUSH0 REVERT JUMPDEST POP PUSH1 0x4 CALLDATASIZE LT PUSH2 0x55 JUMPI PUSH0 CALLDATALOAD PUSH1 0xE0 SHR DUP1 PUSH4 0x1934925F EQ PUSH2 0x59 JUMPI DUP1 PUSH4 0x7B15BE4A EQ PUSH2 0x89 JUMPI DUP1 PUSH4 0x8CA99BD4 EQ PUSH2 0xBB JUMPI DUP1 PUSH4 0xCB384323 EQ PUSH2 0xD9 JUMPI DUP1 PUSH4 0xF3A19620 EQ PUSH2 0xF5 JUMPI JUMPDEST PUSH0 PUSH0 REVERT JUMPDEST PUSH2 0x73 PUSH1 0x4 DUP1 CALLDATASIZE SUB DUP2 ADD SWAP1 PUSH2 0x6E SWAP2 SWAP1 PUSH2 0x534 JUMP JUMPDEST PUSH2 0x113 JUMP JUMPDEST PUSH1 0x40 MLOAD PUSH2 0x80 SWAP2 SWAP1 PUSH2 0x597 JUMP JUMPDEST PUSH1 0x40 MLOAD DUP1 SWAP2 SUB SWAP1 RETURN JUMPDEST PUSH2 0xA3 PUSH1 0x4 DUP1 CALLDATASIZE SUB DUP2 ADD SWAP1 PUSH2 0x9E SWAP2 SWAP1 PUSH2 0x5DA JUMP JUMPDEST PUSH2 0x232 JUMP JUMPDEST PUSH1 0x40 MLOAD PUSH2 0xB2 SWAP4 SWAP3 SWAP2 SWAP1 PUSH2 0x6A7 JUMP JUMPDEST PUSH1 0x40 MLOAD DUP1 SWAP2 SUB SWAP1 RETURN JUMPDEST PUSH2 0xC3 PUSH2 0x2E9 JUMP JUMPDEST PUSH1 0x40 MLOAD PUSH2 0xD0 SWAP2 SWAP1 PUSH2 0x597 JUMP JUMPDEST PUSH1 0x40 MLOAD DUP1 SWAP2 SUB SWAP1 RETURN JUMPDEST PUSH2 0xF3 PUSH1 0x4 DUP1 CALLDATASIZE SUB DUP2 ADD SWAP1 PUSH2 0xEE SWAP2 SWAP1 PUSH2 0x5DA JUMP JUMPDEST PUSH2 0x2EF JUMP JUMPDEST STOP JUMPDEST PUSH2 0xFD PUSH2 0x429 JUMP JUMPDEST PUSH1 0x40 MLOAD PUSH2 0x10A SWAP2 SWAP1 PUSH2 0x6E3 JUMP JUMPDEST PUSH1 0x40 MLOAD DUP1 SWAP2 SUB SWAP1 RETURN JUMPDEST PUSH0 DUP3 DUP3 TIMESTAMP PUSH1 0x40 MLOAD PUSH1 0x20 ADD PUSH2 0x129 SWAP4 SWAP3 SWAP2 SWAP1 PUSH2 0x75F JUMP JUMPDEST PUSH1 0x40 MLOAD PUSH1 0x20 DUP2 DUP4 SUB SUB DUP2 MSTORE SWAP1 PUSH1 0x40 MSTORE DUP1 MLOAD SWAP1 PUSH1 0x20 ADD KECCAK256 SWAP1 POP PUSH1 0x40 MLOAD DUP1 PUSH1 0x60 ADD PUSH1 0x40 MSTORE DUP1 DUP5 DUP5 DUP1 DUP1 PUSH1 0x1F ADD PUSH1 0x20 DUP1 SWAP2 DIV MUL PUSH1 0x20 ADD PUSH1 0x40 MLOAD SWAP1 DUP2 ADD PUSH1 0x40 MSTORE DUP1 SWAP4 SWAP3 SWAP2 SWAP1 DUP2 DUP2 MSTORE PUSH1 0x20 ADD DUP4 DUP4 DUP1 DUP3 DUP5 CALLDATACOPY PUSH0 DUP2 DUP5 ADD MSTORE PUSH1 0x1F NOT PUSH1 0x1F DUP3 ADD AND SWAP1 POP DUP1 DUP4 ADD SWAP3 POP POP POP POP POP POP POP DUP2 MSTORE PUSH1 0x20 ADD PUSH0 DUP2 MSTORE PUSH1 0x20 ADD PUSH1 0x1 ISZERO ISZERO DUP2 MSTORE POP PUSH0 PUSH0 DUP4 DUP2 MSTORE PUSH1 0x20 ADD SWAP1 DUP2 MSTORE PUSH1 0x20 ADD PUSH0 KECCAK256 PUSH0 DUP3 ADD MLOAD DUP2 PUSH0 ADD SWAP1 DUP2 PUSH2 0x1C5 SWAP2 SWAP1 PUSH2 0x9B2 JUMP JUMPDEST POP PUSH1 0x20 DUP3 ADD MLOAD DUP2 PUSH1 0x1 ADD SSTORE PUSH1 0x40 DUP3 ADD MLOAD DUP2 PUSH1 0x2 ADD PUSH0 PUSH2 0x100 EXP DUP2 SLOAD DUP2 PUSH1 0xFF MUL NOT AND SWAP1 DUP4 ISZERO ISZERO MUL OR SWAP1 SSTORE POP SWAP1 POP POP DUP1 PUSH32 0x8CC4D072920525E7421A68D4306A205258A54A781F10613D694F975F021C009F DUP5 DUP5 PUSH1 0x40 MLOAD PUSH2 0x224 SWAP3 SWAP2 SWAP1 PUSH2 0xAAD JUMP JUMPDEST PUSH1 0x40 MLOAD DUP1 SWAP2 SUB SWAP1 LOG2 SWAP3 SWAP2 POP POP JUMP JUMPDEST PUSH0 PUSH1 0x20 MSTORE DUP1 PUSH0 MSTORE PUSH1 0x40 PUSH0 KECCAK256 PUSH0 SWAP2 POP SWAP1 POP DUP1 PUSH0 ADD DUP1 SLOAD PUSH2 0x250 SWAP1 PUSH2 0x7E2 JUMP JUMPDEST DUP1 PUSH1 0x1F ADD PUSH1 0x20 DUP1 SWAP2 DIV MUL PUSH1 0x20 ADD PUSH1 0x40 MLOAD SWAP1 DUP2 ADD PUSH1 0x40 MSTORE DUP1 SWAP3 SWAP2 SWAP1 DUP2 DUP2 MSTORE PUSH1 0x20 ADD DUP3 DUP1 SLOAD PUSH2 0x27C SWAP1 PUSH2 0x7E2 JUMP JUMPDEST DUP1 ISZERO PUSH2 0x2C7 JUMPI DUP1 PUSH1 0x1F LT PUSH2 0x29E JUMPI PUSH2 0x100 DUP1 DUP4 SLOAD DIV MUL DUP4 MSTORE SWAP2 PUSH1 0x20 ADD SWAP2 PUSH2 0x2C7 JUMP JUMPDEST DUP3 ADD SWAP2 SWAP1 PUSH0 MSTORE PUSH1 0x20 PUSH0 KECCAK256 SWAP1 JUMPDEST DUP2 SLOAD DUP2 MSTORE SWAP1 PUSH1 0x1 ADD SWAP1 PUSH1 0x20 ADD DUP1 DUP4 GT PUSH2 0x2AA JUMPI DUP3 SWAP1 SUB PUSH1 0x1F AND DUP3 ADD SWAP2 JUMPDEST POP POP POP POP POP SWAP1 DUP1 PUSH1 0x1 ADD SLOAD SWAP1 DUP1 PUSH1 0x2 ADD PUSH0 SWAP1 SLOAD SWAP1 PUSH2 0x100 EXP SWAP1 DIV PUSH1 0xFF AND SWAP1 POP DUP4 JUMP JUMPDEST PUSH1 0x1 SLOAD DUP2 JUMP JUMPDEST PUSH0 PUSH0 DUP3 DUP2 MSTORE PUSH1 0x20 ADD SWAP1 DUP2 MSTORE PUSH1 0x20 ADD PUSH0 KECCAK256 PUSH1 0x2 ADD PUSH0 SWAP1 SLOAD SWAP1 PUSH2 0x100 EXP SWAP1 DIV PUSH1 0xFF AND PUSH2 0x34E JUMPI PUSH1 0x40 MLOAD PUSH32 0x8C379A000000000000000000000000000000000000000000000000000000000 DUP2 MSTORE PUSH1 0x4 ADD PUSH2 0x345 SWAP1 PUSH2 0xB19 JUMP JUMPDEST PUSH1 0x40 MLOAD DUP1 SWAP2 SUB SWAP1 REVERT JUMPDEST PUSH0 PUSH0 DUP3 DUP2 MSTORE PUSH1 0x20 ADD SWAP1 DUP2 MSTORE PUSH1 0x20 ADD PUSH0 KECCAK256 PUSH1 0x1 ADD PUSH0 DUP2 SLOAD DUP1 SWAP3 SWAP2 SWAP1 PUSH2 0x371 SWAP1 PUSH2 0xB64 JUMP JUMPDEST SWAP2 SWAP1 POP SSTORE POP PUSH0 PUSH0 PUSH1 0x1 SLOAD DUP2 MSTORE PUSH1 0x20 ADD SWAP1 DUP2 MSTORE PUSH1 0x20 ADD PUSH0 KECCAK256 PUSH1 0x1 ADD SLOAD PUSH0 PUSH0 DUP4 DUP2 MSTORE PUSH1 0x20 ADD SWAP1 DUP2 MSTORE PUSH1 0x20 ADD PUSH0 KECCAK256 PUSH1 0x1 ADD SLOAD GT ISZERO PUSH2 0x3DB JUMPI DUP1 PUSH1 0x1 DUP2 SWAP1 SSTORE POP DUP1 PUSH32 0xFB595387E496EA14F357BA0577FE81344BAE4DC39FE2E1BDD53FF883F10B3F71 PUSH1 0x40 MLOAD PUSH1 0x40 MLOAD DUP1 SWAP2 SUB SWAP1 LOG2 JUMPDEST DUP1 PUSH32 0x3FA7963C2CE8CA25C5CF73B1E7201206DA72E64098BF73D02B2105871889D351 PUSH0 PUSH0 DUP5 DUP2 MSTORE PUSH1 0x20 ADD SWAP1 DUP2 MSTORE PUSH1 0x20 ADD PUSH0 KECCAK256 PUSH1 0x1 ADD SLOAD PUSH1 0x40 MLOAD PUSH2 0x41E SWAP2 SWAP1 PUSH2 0xBAB JUMP JUMPDEST PUSH1 0x40 MLOAD DUP1 SWAP2 SUB SWAP1 LOG2 POP JUMP JUMPDEST PUSH1 0x60 PUSH0 PUSH0 PUSH1 0x1 SLOAD DUP2 MSTORE PUSH1 0x20 ADD SWAP1 DUP2 MSTORE PUSH1 0x20 ADD PUSH0 KECCAK256 PUSH0 ADD DUP1 SLOAD PUSH2 0x44A SWAP1 PUSH2 0x7E2 JUMP JUMPDEST DUP1 PUSH1 0x1F ADD PUSH1 0x20 DUP1 SWAP2 DIV MUL PUSH1 0x20 ADD PUSH1 0x40 MLOAD SWAP1 DUP2 ADD PUSH1 0x40 MSTORE DUP1 SWAP3 SWAP2 SWAP1 DUP2 DUP2 MSTORE PUSH1 0x20 ADD DUP3 DUP1 SLOAD PUSH2 0x476 SWAP1 PUSH2 0x7E2 JUMP JUMPDEST DUP1 ISZERO PUSH2 0x4C1 JUMPI DUP1 PUSH1 0x1F LT PUSH2 0x498 JUMPI PUSH2 0x100 DUP1 DUP4 SLOAD DIV MUL DUP4 MSTORE SWAP2 PUSH1 0x20 ADD SWAP2 PUSH2 0x4C1 JUMP JUMPDEST DUP3 ADD SWAP2 SWAP1 PUSH0 MSTORE PUSH1 0x20 PUSH0 KECCAK256 SWAP1 JUMPDEST DUP2 SLOAD DUP2 MSTORE SWAP1 PUSH1 0x1 ADD SWAP1 PUSH1 0x20 ADD DUP1 DUP4 GT PUSH2 0x4A4 JUMPI DUP3 SWAP1 SUB PUSH1 0x1F AND DUP3 ADD SWAP2 JUMPDEST POP POP POP POP POP SWAP1 POP SWAP1 JUMP JUMPDEST PUSH0 PUSH0 REVERT JUMPDEST PUSH0 PUSH0 REVERT JUMPDEST PUSH0 PUSH0 REVERT JUMPDEST PUSH0 PUSH0 REVERT JUMPDEST PUSH0 PUSH0 REVERT JUMPDEST PUSH0 PUSH0 DUP4 PUSH1 0x1F DUP5 ADD SLT PUSH2 0x4F4 JUMPI PUSH2 0x4F3 PUSH2 0x4D3 JUMP JUMPDEST JUMPDEST DUP3 CALLDATALOAD SWAP1 POP PUSH8 0xFFFFFFFFFFFFFFFF DUP2 GT ISZERO PUSH2 0x511 JUMPI PUSH2 0x510 PUSH2 0x4D7 JUMP JUMPDEST JUMPDEST PUSH1 0x20 DUP4 ADD SWAP2 POP DUP4 PUSH1 0x1 DUP3 MUL DUP4 ADD GT ISZERO PUSH2 0x52D JUMPI PUSH2 0x52C PUSH2 0x4DB JUMP JUMPDEST JUMPDEST SWAP3 POP SWAP3 SWAP1 POP JUMP JUMPDEST PUSH0 PUSH0 PUSH1 0x20 DUP4 DUP6 SUB SLT ISZERO PUSH2 0x54A JUMPI PUSH2 0x549 PUSH2 0x4CB JUMP JUMPDEST JUMPDEST PUSH0 DUP4 ADD CALLDATALOAD PUSH8 0xFFFFFFFFFFFFFFFF DUP2 GT ISZERO PUSH2 0x567 JUMPI PUSH2 0x566 PUSH2 0x4CF JUMP JUMPDEST JUMPDEST PUSH2 0x573 DUP6 DUP3 DUP7 ADD PUSH2 0x4DF JUMP JUMPDEST SWAP3 POP SWAP3 POP POP SWAP3 POP SWAP3 SWAP1 POP JUMP JUMPDEST PUSH0 DUP2 SWAP1 POP SWAP2 SWAP1 POP JUMP JUMPDEST PUSH2 0x591 DUP2 PUSH2 0x57F JUMP JUMPDEST DUP3 MSTORE POP POP JUMP JUMPDEST PUSH0 PUSH1 0x20 DUP3 ADD SWAP1 POP PUSH2 0x5AA PUSH0 DUP4 ADD DUP5 PUSH2 0x588 JUMP JUMPDEST SWAP3 SWAP2 POP POP JUMP JUMPDEST PUSH2 0x5B9 DUP2 PUSH2 0x57F JUMP JUMPDEST DUP2 EQ PUSH2 0x5C3 JUMPI PUSH0 PUSH0 REVERT JUMPDEST POP JUMP JUMPDEST PUSH0 DUP2 CALLDATALOAD SWAP1 POP PUSH2 0x5D4 DUP2 PUSH2 0x5B0 JUMP JUMPDEST SWAP3 SWAP2 POP POP JUMP JUMPDEST PUSH0 PUSH1 0x20 DUP3 DUP5 SUB SLT ISZERO PUSH2 0x5EF JUMPI PUSH2 0x5EE PUSH2 0x4CB JUMP JUMPDEST JUMPDEST PUSH0 PUSH2 0x5FC DUP5 DUP3 DUP6 ADD PUSH2 0x5C6 JUMP JUMPDEST SWAP2 POP POP SWAP3 SWAP2 POP POP JUMP JUMPDEST PUSH0 DUP2 MLOAD SWAP1 POP SWAP2 SWAP1 POP JUMP JUMPDEST PUSH0 DUP3 DUP3 MSTORE PUSH1 0x20 DUP3 ADD SWAP1 POP SWAP3 SWAP2 POP POP JUMP JUMPDEST DUP3 DUP2 DUP4 MCOPY PUSH0 DUP4 DUP4 ADD MSTORE POP POP POP JUMP JUMPDEST PUSH0 PUSH1 0x1F NOT PUSH1 0x1F DUP4 ADD AND SWAP1 POP SWAP2 SWAP1 POP JUMP JUMPDEST PUSH0 PUSH2 0x647 DUP3 PUSH2 0x605 JUMP JUMPDEST PUSH2 0x651 DUP2 DUP6 PUSH2 0x60F JUMP JUMPDEST SWAP4 POP PUSH2 0x661 DUP2 DUP6 PUSH1 0x20 DUP7 ADD PUSH2 0x61F JUMP JUMPDEST PUSH2 0x66A DUP2 PUSH2 0x62D JUMP JUMPDEST DUP5 ADD SWAP2 POP POP SWAP3 SWAP2 POP POP JUMP JUMPDEST PUSH0 DUP2 SWAP1 POP SWAP2 SWAP1 POP JUMP JUMPDEST PUSH2 0x687 DUP2 PUSH2 0x675 JUMP JUMPDEST DUP3 MSTORE POP POP JUMP JUMPDEST PUSH0 DUP2 ISZERO ISZERO SWAP1 POP SWAP2 SWAP1 POP JUMP JUMPDEST PUSH2 0x6A1 DUP2 PUSH2 0x68D JUMP JUMPDEST DUP3 MSTORE POP POP JUMP JUMPDEST PUSH0 PUSH1 0x60 DUP3 ADD SWAP1 POP DUP2 DUP2 SUB PUSH0 DUP4 ADD MSTORE PUSH2 0x6BF DUP2 DUP7 PUSH2 0x63D JUMP JUMPDEST SWAP1 POP PUSH2 0x6CE PUSH1 0x20 DUP4 ADD DUP6 PUSH2 0x67E JUMP JUMPDEST PUSH2 0x6DB PUSH1 0x40 DUP4 ADD DUP5 PUSH2 0x698 JUMP JUMPDEST SWAP5 SWAP4 POP POP POP POP JUMP JUMPDEST PUSH0 PUSH1 0x20 DUP3 ADD SWAP1 POP DUP2 DUP2 SUB PUSH0 DUP4 ADD MSTORE PUSH2 0x6FB DUP2 DUP5 PUSH2 0x63D JUMP JUMPDEST SWAP1 POP SWAP3 SWAP2 POP POP JUMP JUMPDEST PUSH0 DUP2 SWAP1 POP SWAP3 SWAP2 POP POP JUMP JUMPDEST DUP3 DUP2 DUP4 CALLDATACOPY PUSH0 DUP4 DUP4 ADD MSTORE POP POP POP JUMP JUMPDEST PUSH0 PUSH2 0x726 DUP4 DUP6 PUSH2 0x703 JUMP JUMPDEST SWAP4 POP PUSH2 0x733 DUP4 DUP6 DUP5 PUSH2 0x70D JUMP JUMPDEST DUP3 DUP5 ADD SWAP1 POP SWAP4 SWAP3 POP POP POP JUMP JUMPDEST PUSH0 DUP2 SWAP1 POP SWAP2 SWAP1 POP JUMP JUMPDEST PUSH2 0x759 PUSH2 0x754 DUP3 PUSH2 0x675 JUMP JUMPDEST PUSH2 0x73F JUMP JUMPDEST DUP3 MSTORE POP POP JUMP JUMPDEST PUSH0 PUSH2 0x76B DUP3 DUP6 DUP8 PUSH2 0x71B JUMP JUMPDEST SWAP2 POP PUSH2 0x777 DUP3 DUP5 PUSH2 0x748 JUMP JUMPDEST PUSH1 0x20 DUP3 ADD SWAP2 POP DUP2 SWAP1 POP SWAP5 SWAP4 POP POP POP POP JUMP JUMPDEST PUSH32 0x4E487B7100000000000000000000000000000000000000000000000000000000 PUSH0 MSTORE PUSH1 0x41 PUSH1 0x4 MSTORE PUSH1 0x24 PUSH0 REVERT JUMPDEST PUSH32 0x4E487B7100000000000000000000000000000000000000000000000000000000 PUSH0 MSTORE PUSH1 0x22 PUSH1 0x4 MSTORE PUSH1 0x24 PUSH0 REVERT JUMPDEST PUSH0 PUSH1 0x2 DUP3 DIV SWAP1 POP PUSH1 0x1 DUP3 AND DUP1 PUSH2 0x7F9 JUMPI PUSH1 0x7F DUP3 AND SWAP2 POP JUMPDEST PUSH1 0x20 DUP3 LT DUP2 SUB PUSH2 0x80C JUMPI PUSH2 0x80B PUSH2 0x7B5 JUMP JUMPDEST JUMPDEST POP SWAP2 SWAP1 POP JUMP JUMPDEST PUSH0 DUP2 SWAP1 POP DUP2 PUSH0 MSTORE PUSH1 0x20 PUSH0 KECCAK256 SWAP1 POP SWAP2 SWAP1 POP JUMP JUMPDEST PUSH0 PUSH1 0x20 PUSH1 0x1F DUP4 ADD DIV SWAP1 POP SWAP2 SWAP1 POP JUMP JUMPDEST PUSH0 DUP3 DUP3 SHL SWAP1 POP SWAP3 SWAP2 POP POP JUMP JUMPDEST PUSH0 PUSH1 0x8 DUP4 MUL PUSH2 0x86E PUSH32 0xFFFFFFFFFFFFFFFFFFFFFFFFFFFFFFFFFFFFFFFFFFFFFFFFFFFFFFFFFFFFFFFF DUP3 PUSH2 0x833 JUMP JUMPDEST PUSH2 0x878 DUP7 DUP4 PUSH2 0x833 JUMP JUMPDEST SWAP6 POP DUP1 NOT DUP5 AND SWAP4 POP DUP1 DUP7 AND DUP5 OR SWAP3 POP POP POP SWAP4 SWAP3 POP POP POP JUMP JUMPDEST PUSH0 DUP2 SWAP1 POP SWAP2 SWAP1 POP JUMP JUMPDEST PUSH0 PUSH2 0x8B3 PUSH2 0x8AE PUSH2 0x8A9 DUP5 PUSH2 0x675 JUMP JUMPDEST PUSH2 0x890 JUMP JUMPDEST PUSH2 0x675 JUMP JUMPDEST SWAP1 POP SWAP2 SWAP1 POP JUMP JUMPDEST PUSH0 DUP2 SWAP1 POP SWAP2 SWAP1 POP JUMP JUMPDEST PUSH2 0x8CC DUP4 PUSH2 0x899 JUMP JUMPDEST PUSH2 0x8E0 PUSH2 0x8D8 DUP3 PUSH2 0x8BA JUMP JUMPDEST DUP5 DUP5 SLOAD PUSH2 0x83F JUMP JUMPDEST DUP3 SSTORE POP POP POP POP JUMP JUMPDEST PUSH0 PUSH0 SWAP1 POP SWAP1 JUMP JUMPDEST PUSH2 0x8F7 PUSH2 0x8E8 JUMP JUMPDEST PUSH2 0x902 DUP2 DUP5 DUP5 PUSH2 0x8C3 JUMP JUMPDEST POP POP POP JUMP JUMPDEST JUMPDEST DUP2 DUP2 LT ISZERO PUSH2 0x925 JUMPI PUSH2 0x91A PUSH0 DUP3 PUSH2 0x8EF JUMP JUMPDEST PUSH1 0x1 DUP2 ADD SWAP1 POP PUSH2 0x908 JUMP JUMPDEST POP POP JUMP JUMPDEST PUSH1 0x1F DUP3 GT ISZERO PUSH2 0x96A JUMPI PUSH2 0x93B DUP2 PUSH2 0x812 JUMP JUMPDEST PUSH2 0x944 DUP5 PUSH2 0x824 JUMP JUMPDEST DUP2 ADD PUSH1 0x20 DUP6 LT ISZERO PUSH2 0x953 JUMPI DUP2 SWAP1 POP JUMPDEST PUSH2 0x967 PUSH2 0x95F DUP6 PUSH2 0x824 JUMP JUMPDEST DUP4 ADD DUP3 PUSH2 0x907 JUMP JUMPDEST POP POP JUMPDEST POP POP POP JUMP JUMPDEST PUSH0 DUP3 DUP3 SHR SWAP1 POP SWAP3 SWAP2 POP POP JUMP JUMPDEST PUSH0 PUSH2 0x98A PUSH0 NOT DUP5 PUSH1 0x8 MUL PUSH2 0x96F JUMP JUMPDEST NOT DUP1 DUP4 AND SWAP2 POP POP SWAP3 SWAP2 POP POP JUMP JUMPDEST PUSH0 PUSH2 0x9A2 DUP4 DUP4 PUSH2 0x97B JUMP JUMPDEST SWAP2 POP DUP3 PUSH1 0x2 MUL DUP3 OR SWAP1 POP SWAP3 SWAP2 POP POP JUMP JUMPDEST PUSH2 0x9BB DUP3 PUSH2 0x605 JUMP JUMPDEST PUSH8 0xFFFFFFFFFFFFFFFF DUP2 GT ISZERO PUSH2 0x9D4 JUMPI PUSH2 0x9D3 PUSH2 0x788 JUMP JUMPDEST JUMPDEST PUSH2 0x9DE DUP3 SLOAD PUSH2 0x7E2 JUMP JUMPDEST PUSH2 0x9E9 DUP3 DUP3 DUP6 PUSH2 0x929 JUMP JUMPDEST PUSH0 PUSH1 0x20 SWAP1 POP PUSH1 0x1F DUP4 GT PUSH1 0x1 DUP2 EQ PUSH2 0xA1A JUMPI PUSH0 DUP5 ISZERO PUSH2 0xA08 JUMPI DUP3 DUP8 ADD MLOAD SWAP1 POP JUMPDEST PUSH2 0xA12 DUP6 DUP3 PUSH2 0x997 JUMP JUMPDEST DUP7 SSTORE POP PUSH2 0xA79 JUMP JUMPDEST PUSH1 0x1F NOT DUP5 AND PUSH2 0xA28 DUP7 PUSH2 0x812 JUMP JUMPDEST PUSH0 JUMPDEST DUP3 DUP2 LT ISZERO PUSH2 0xA4F JUMPI DUP5 DUP10 ADD MLOAD DUP3 SSTORE PUSH1 0x1 DUP3 ADD SWAP2 POP PUSH1 0x20 DUP6 ADD SWAP5 POP PUSH1 0x20 DUP2 ADD SWAP1 POP PUSH2 0xA2A JUMP JUMPDEST DUP7 DUP4 LT ISZERO PUSH2 0xA6C JUMPI DUP5 DUP10 ADD MLOAD PUSH2 0xA68 PUSH1 0x1F DUP10 AND DUP3 PUSH2 0x97B JUMP JUMPDEST DUP4 SSTORE POP JUMPDEST PUSH1 0x1 PUSH1 0x2 DUP9 MUL ADD DUP9 SSTORE POP POP POP JUMPDEST POP POP POP POP POP POP JUMP JUMPDEST PUSH0 PUSH2 0xA8C DUP4 DUP6 PUSH2 0x60F JUMP JUMPDEST SWAP4 POP PUSH2 0xA99 DUP4 DUP6 DUP5 PUSH2 0x70D JUMP JUMPDEST PUSH2 0xAA2 DUP4 PUSH2 0x62D JUMP JUMPDEST DUP5 ADD SWAP1 POP SWAP4 SWAP3 POP POP POP JUMP JUMPDEST PUSH0 PUSH1 0x20 DUP3 ADD SWAP1 POP DUP2 DUP2 SUB PUSH0 DUP4 ADD MSTORE PUSH2 0xAC6 DUP2 DUP5 DUP7 PUSH2 0xA81 JUMP JUMPDEST SWAP1 POP SWAP4 SWAP3 POP POP POP JUMP JUMPDEST PUSH32 0x4E6F20666F726B00000000000000000000000000000000000000000000000000 PUSH0 DUP3 ADD MSTORE POP JUMP JUMPDEST PUSH0 PUSH2 0xB03 PUSH1 0x7 DUP4 PUSH2 0x60F JUMP JUMPDEST SWAP2 POP PUSH2 0xB0E DUP3 PUSH2 0xACF JUMP JUMPDEST PUSH1 0x20 DUP3 ADD SWAP1 POP SWAP2 SWAP1 POP JUMP JUMPDEST PUSH0 PUSH1 0x20 DUP3 ADD SWAP1 POP DUP2 DUP2 SUB PUSH0 DUP4 ADD MSTORE PUSH2 0xB30 DUP2 PUSH2 0xAF7 JUMP JUMPDEST SWAP1 POP SWAP2 SWAP1 POP JUMP JUMPDEST PUSH32 0x4E487B7100000000000000000000000000000000000000000000000000000000 PUSH0 MSTORE PUSH1 0x11 PUSH1 0x4 MSTORE PUSH1 0x24 PUSH0 REVERT JUMPDEST PUSH0 PUSH2 0xB6E DUP3 PUSH2 0x675 JUMP JUMPDEST SWAP2 POP PUSH32 0xFFFFFFFFFFFFFFFFFFFFFFFFFFFFFFFFFFFFFFFFFFFFFFFFFFFFFFFFFFFFFFFF DUP3 SUB PUSH2 0xBA0 JUMPI PUSH2 0xB9F PUSH2 0xB37 JUMP JUMPDEST JUMPDEST PUSH1 0x1 DUP3 ADD SWAP1 POP SWAP2 SWAP1 POP JUMP JUMPDEST PUSH0 PUSH1 0x20 DUP3 ADD SWAP1 POP PUSH2 0xBBE PUSH0 DUP4 ADD DUP5 PUSH2 0x67E JUMP JUMPDEST SWAP3 SWAP2 POP POP JUMP INVALID LOG2 PUSH5 0x6970667358 0x22 SLT KECCAK256 SWAP16 JUMPI 0xB7 ADDRESS INVALID 0xE8 0xB3 0xC9 0x22 SWAP8 PUSH11 0x55BAF41942F97F16C4DA9F 0xDD 0xC4 INVALID 0xB7 0xD6 CREATE BLOCKHASH PUSH1 0x8E PUSH23 0x64736F6C634300081D0033000000000000000000000000 "
		},
		"gasEstimates": {
			"creation": {
				"codeDepositCost": "613200",
				"executionCost": "643",
				"totalCost": "613843"
			},
			"external": {
				"addBlock(bytes32)": "infinite",
				"addFork(string)": "infinite",
				"canonicalFork()": "2447",
				"forks(bytes32)": "infinite",
				"getCanonical()": "infinite"
			}
		},
		"methodIdentifiers": {
			"addBlock(bytes32)": "cb384323",
			"addFork(string)": "1934925f",
			"canonicalFork()": "8ca99bd4",
			"forks(bytes32)": "7b15be4a",
			"getCanonical()": "f3a19620"
		}
	},
	"abi": [
		{
			"anonymous": false,
			"inputs": [
				{
					"indexed": true,
					"internalType": "bytes32",
					"name": "forkId",
					"type": "bytes32"
				},
				{
					"indexed": false,
					"internalType": "uint256",
					"name": "newHeight",
					"type": "uint256"
				}
			],
			"name": "BlockAdded",
			"type": "event"
		},
		{
			"anonymous": false,
			"inputs": [
				{
					"indexed": true,
					"internalType": "bytes32",
					"name": "forkId",
					"type": "bytes32"
				}
			],
			"name": "CanonicalUpdated",
			"type": "event"
		},
		{
			"anonymous": false,
			"inputs": [
				{
					"indexed": true,
					"internalType": "bytes32",
					"name": "forkId",
					"type": "bytes32"
				},
				{
					"indexed": false,
					"internalType": "string",
					"name": "name",
					"type": "string"
				}
			],
			"name": "ForkAdded",
			"type": "event"
		},
		{
			"inputs": [
				{
					"internalType": "bytes32",
					"name": "forkId",
					"type": "bytes32"
				}
			],
			"name": "addBlock",
			"outputs": [],
			"stateMutability": "nonpayable",
			"type": "function"
		},
		{
			"inputs": [
				{
					"internalType": "string",
					"name": "name",
					"type": "string"
				}
			],
			"name": "addFork",
			"outputs": [
				{
					"internalType": "bytes32",
					"name": "forkId",
					"type": "bytes32"
				}
			],
			"stateMutability": "nonpayable",
			"type": "function"
		},
		{
			"inputs": [],
			"name": "canonicalFork",
			"outputs": [
				{
					"internalType": "bytes32",
					"name": "",
					"type": "bytes32"
				}
			],
			"stateMutability": "view",
			"type": "function"
		},
		{
			"inputs": [
				{
					"internalType": "bytes32",
					"name": "",
					"type": "bytes32"
				}
			],
			"name": "forks",
			"outputs": [
				{
					"internalType": "string",
					"name": "name",
					"type": "string"
				},
				{
					"internalType": "uint256",
					"name": "blockCount",
					"type": "uint256"
				},
				{
					"internalType": "bool",
					"name": "exists",
					"type": "bool"
				}
			],
			"stateMutability": "view",
			"type": "function"
		},
		{
			"inputs": [],
			"name": "getCanonical",
			"outputs": [
				{
					"internalType": "string",
					"name": "",
					"type": "string"
				}
			],
			"stateMutability": "view",
			"type": "function"
		}
	]
}