{
	"data": {
		"bytecode": {
			"linkReferences": {},
			"object": "608060405234801561000f575f5ffd5b50604051610bfc380380610bfc83398181016040528101906100319190610155565b815f5f6101000a81548173ffffffffffffffffffffffffffffffffffffffff021916908373ffffffffffffffffffffffffffffffffffffffff1602179055508060015f6101000a81548173ffffffffffffffffffffffffffffffffffffffff021916908373ffffffffffffffffffffffffffffffffffffffff1602179055503360045f6101000a81548173ffffffffffffffffffffffffffffffffffffffff021916908373ffffffffffffffffffffffffffffffffffffffff1602179055505050610193565b5f5ffd5b5f73ffffffffffffffffffffffffffffffffffffffff82169050919050565b5f610124826100fb565b9050919050565b6101348161011a565b811461013e575f5ffd5b50565b5f8151905061014f8161012b565b92915050565b5f5f6040838503121561016b5761016a6100f7565b5b5f61017885828601610141565b925050602061018985828601610141565b9150509250929050565b610a5c806101a05f395ff3fe608060405234801561000f575f5ffd5b5060043610610091575f3560e01c80635f64b55b116100645780635f64b55b146101205780638da5cb5b1461013e5780639cd441da1461015c578063dc5fa6c514610178578063e4f1f70a1461019657610091565b8063054d50d4146100955780630902f1ac146100c55780630fc63d10146100e457806319e36f3b14610102575b5f5ffd5b6100af60048036038101906100aa91906105ed565b6101b2565b6040516100bc919061064c565b60405180910390f35b6100cd6101de565b6040516100db929190610665565b60405180910390f35b6100ec6101ee565b6040516100f99190610706565b60405180910390f35b61010a610212565b604051610117919061064c565b60405180910390f35b610128610218565b6040516101359190610706565b60405180910390f35b61014661023d565b604051610153919061073f565b60405180910390f35b61017660048036038101906101719190610758565b610262565b005b6101806103d3565b60405161018d919061064c565b60405180910390f35b6101b060048036038101906101ab9190610796565b6103d9565b005b5f83836101bf91906107ee565b82856101cb9190610821565b6101d5919061088f565b90509392505050565b5f5f600254600354915091509091565b5f5f9054906101000a900473ffffffffffffffffffffffffffffffffffffffff1681565b60035481565b60015f9054906101000a900473ffffffffffffffffffffffffffffffffffffffff1681565b60045f9054906101000a900473ffffffffffffffffffffffffffffffffffffffff1681565b5f5f9054906101000a900473ffffffffffffffffffffffffffffffffffffffff1673ffffffffffffffffffffffffffffffffffffffff166323b872dd3330856040518463ffffffff1660e01b81526004016102bf939291906108bf565b6020604051808303815f875af11580156102db573d5f5f3e3d5ffd5b505050506040513d601f19601f820116820180604052508101906102ff9190610929565b5060015f9054906101000a900473ffffffffffffffffffffffffffffffffffffffff1673ffffffffffffffffffffffffffffffffffffffff166323b872dd3330846040518463ffffffff1660e01b815260040161035e939291906108bf565b6020604051808303815f875af115801561037a573d5f5f3e3d5ffd5b505050506040513d601f19601f8201168201806040525081019061039e9190610929565b508160025f8282546103b091906107ee565b925050819055508060035f8282546103c891906107ee565b925050819055505050565b60025481565b5f811180156103e957505f600254115b80156103f657505f600354115b610435576040517f08c379a000000000000000000000000000000000000000000000000000000000815260040161042c906109ae565b60405180910390fd5b5f5f9054906101000a900473ffffffffffffffffffffffffffffffffffffffff1673ffffffffffffffffffffffffffffffffffffffff166323b872dd3330846040518463ffffffff1660e01b8152600401610492939291906108bf565b6020604051808303815f875af11580156104ae573d5f5f3e3d5ffd5b505050506040513d601f19601f820116820180604052508101906104d29190610929565b505f6104e3826002546003546101b2565b905060015f9054906101000a900473ffffffffffffffffffffffffffffffffffffffff1673ffffffffffffffffffffffffffffffffffffffff1663a9059cbb33836040518363ffffffff1660e01b81526004016105419291906109cc565b6020604051808303815f875af115801561055d573d5f5f3e3d5ffd5b505050506040513d601f19601f820116820180604052508101906105819190610929565b508160025f82825461059391906107ee565b925050819055508060035f8282546105ab91906109f3565b925050819055505050565b5f5ffd5b5f819050919050565b6105cc816105ba565b81146105d6575f5ffd5b50565b5f813590506105e7816105c3565b92915050565b5f5f5f60608486031215610604576106036105b6565b5b5f610611868287016105d9565b9350506020610622868287016105d9565b9250506040610633868287016105d9565b9150509250925092565b610646816105ba565b82525050565b5f60208201905061065f5f83018461063d565b92915050565b5f6040820190506106785f83018561063d565b610685602083018461063d565b9392505050565b5f73ffffffffffffffffffffffffffffffffffffffff82169050919050565b5f819050919050565b5f6106ce6106c96106c48461068c565b6106ab565b61068c565b9050919050565b5f6106df826106b4565b9050919050565b5f6106f0826106d5565b9050919050565b610700816106e6565b82525050565b5f6020820190506107195f8301846106f7565b92915050565b5f6107298261068c565b9050919050565b6107398161071f565b82525050565b5f6020820190506107525f830184610730565b92915050565b5f5f6040838503121561076e5761076d6105b6565b5b5f61077b858286016105d9565b925050602061078c858286016105d9565b9150509250929050565b5f602082840312156107ab576107aa6105b6565b5b5f6107b8848285016105d9565b91505092915050565b7f4e487b71000000000000000000000000000000000000000000000000000000005f52601160045260245ffd5b5f6107f8826105ba565b9150610803836105ba565b925082820190508082111561081b5761081a6107c1565b5b92915050565b5f61082b826105ba565b9150610836836105ba565b9250828202610844816105ba565b9150828204841483151761085b5761085a6107c1565b5b5092915050565b7f4e487b71000000000000000000000000000000000000000000000000000000005f52601260045260245ffd5b5f610899826105ba565b91506108a4836105ba565b9250826108b4576108b3610862565b5b828204905092915050565b5f6060820190506108d25f830186610730565b6108df6020830185610730565b6108ec604083018461063d565b949350505050565b5f8115159050919050565b610908816108f4565b8114610912575f5ffd5b50565b5f81519050610923816108ff565b92915050565b5f6020828403121561093e5761093d6105b6565b5b5f61094b84828501610915565b91505092915050565b5f82825260208201905092915050565b7f496e76616c6964207377617000000000000000000000000000000000000000005f82015250565b5f610998600c83610954565b91506109a382610964565b602082019050919050565b5f6020820190508181035f8301526109c58161098c565b9050919050565b5f6040820190506109df5f830185610730565b6109ec602083018461063d565b9392505050565b5f6109fd826105ba565b9150610a08836105ba565b9250828203905081811115610a2057610a1f6107c1565b5b9291505056fea26469706673582212208d2d81b63d2867753742958c6e81b991bd38b2496bf6bc973965d352aa70e64a64736f6c634300081d0033",
			"opcodes": "PUSH1 0x80 PUSH1 0x40 MSTORE CALLVALUE DUP1 ISZERO PUSH2 0xF JUMPI PUSH0 PUSH0 REVERT JUMPDEST POP PUSH1 0x40 MLOAD PUSH2 0xBFC CODESIZE SUB DUP1 PUSH2 0xBFC DUP4 CODECOPY DUP2 DUP2 ADD PUSH1 0x40 MSTORE DUP2 ADD SWAP1 PUSH2 0x31 SWAP2 SWAP1 PUSH2 0x155 JUMP JUMPDEST DUP2 PUSH0 PUSH0 PUSH2 0x100 EXP DUP2 SLOAD DUP2 PUSH20 0xFFFFFFFFFFFFFFFFFFFFFFFFFFFFFFFFFFFFFFFF MUL NOT AND SWAP1 DUP4 PUSH20 0xFFFFFFFFFFFFFFFFFFFFFFFFFFFFFFFFFFFFFFFF AND MUL OR SWAP1 SSTORE POP DUP1 PUSH1 0x1 PUSH0 PUSH2 0x100 EXP DUP2 SLOAD DUP2 PUSH20 0xFFFFFFFFFFFFFFFFFFFFFFFFFFFFFFFFFFFFFFFF MUL NOT AND SWAP1 DUP4 PUSH20 0xFFFFFFFFFFFFFFFFFFFFFFFFFFFFFFFFFFFFFFFF AND MUL OR SWAP1 SSTORE POP CALLER PUSH1 0x4 PUSH0 PUSH2 0x100 EXP DUP2 SLOAD DUP2 PUSH20 0xFFFFFFFFFFFFFFFFFFFFFFFFFFFFFFFFFFFFFFFF MUL NOT AND SWAP1 DUP4 PUSH20 0xFFFFFFFFFFFFFFFFFFFFFFFFFFFFFFFFFFFFFFFF AND MUL OR SWAP1 SSTORE POP POP POP PUSH2 0x193 JUMP JUMPDEST PUSH0 PUSH0 REVERT JUMPDEST PUSH0 PUSH20 0xFFFFFFFFFFFFFFFFFFFFFFFFFFFFFFFFFFFFFFFF DUP3 AND SWAP1 POP SWAP2 SWAP1 POP JUMP JUMPDEST PUSH0 PUSH2 0x124 DUP3 PUSH2 0xFB JUMP JUMPDEST SWAP1 POP SWAP2 SWAP1 POP JUMP JUMPDEST PUSH2 0x134 DUP2 PUSH2 0x11A JUMP JUMPDEST DUP2 EQ PUSH2 0x13E JUMPI PUSH0 PUSH0 REVERT JUMPDEST POP JUMP JUMPDEST PUSH0 DUP2 MLOAD SWAP1 POP PUSH2 0x14F DUP2 PUSH2 0x12B JUMP JUMPDEST SWAP3 SWAP2 POP POP JUMP JUMPDEST PUSH0 PUSH0 PUSH1 0x40 DUP4 DUP6 SUB SLT ISZERO PUSH2 0x16B JUMPI PUSH2 0x16A PUSH2 0xF7 JUMP JUMPDEST JUMPDEST PUSH0 PUSH2 0x178 DUP6 DUP3 DUP7 ADD PUSH2 0x141 JUMP JUMPDEST SWAP3 POP POP PUSH1 0x20 PUSH2 0x189 DUP6 DUP3 DUP7 ADD PUSH2 0x141 JUMP JUMPDEST SWAP2 POP POP SWAP3 POP SWAP3 SWAP1 POP JUMP JUMPDEST PUSH2 0xA5C DUP1 PUSH2 0x1A0 PUSH0 CODECOPY PUSH0 RETURN INVALID PUSH1 0x80 PUSH1 0x40 MSTORE CALLVALUE DUP1 ISZERO PUSH2 0xF JUMPI PUSH0 PUSH0 REVERT JUMPDEST POP PUSH1 0x4 CALLDATASIZE LT PUSH2 0x91 JUMPI PUSH0 CALLDATALOAD PUSH1 0xE0 SHR DUP1 PUSH4 0x5F64B55B GT PUSH2 0x64 JUMPI DUP1 PUSH4 0x5F64B55B EQ PUSH2 0x120 JUMPI DUP1 PUSH4 0x8DA5CB5B EQ PUSH2 0x13E JUMPI DUP1 PUSH4 0x9CD441DA EQ PUSH2 0x15C JUMPI DUP1 PUSH4 0xDC5FA6C5 EQ PUSH2 0x178 JUMPI DUP1 PUSH4 0xE4F1F70A EQ PUSH2 0x196 JUMPI PUSH2 0x91 JUMP JUMPDEST DUP1 PUSH4 0x54D50D4 EQ PUSH2 0x95 JUMPI DUP1 PUSH4 0x902F1AC EQ PUSH2 0xC5 JUMPI DUP1 PUSH4 0xFC63D10 EQ PUSH2 0xE4 JUMPI DUP1 PUSH4 0x19E36F3B EQ PUSH2 0x102 JUMPI JUMPDEST PUSH0 PUSH0 REVERT JUMPDEST PUSH2 0xAF PUSH1 0x4 DUP1 CALLDATASIZE SUB DUP2 ADD SWAP1 PUSH2 0xAA SWAP2 SWAP1 PUSH2 0x5ED JUMP JUMPDEST PUSH2 0x1B2 JUMP JUMPDEST PUSH1 0x40 MLOAD PUSH2 0xBC SWAP2 SWAP1 PUSH2 0x64C JUMP JUMPDEST PUSH1 0x40 MLOAD DUP1 SWAP2 SUB SWAP1 RETURN JUMPDEST PUSH2 0xCD PUSH2 0x1DE JUMP JUMPDEST PUSH1 0x40 MLOAD PUSH2 0xDB SWAP3 SWAP2 SWAP1 PUSH2 0x665 JUMP JUMPDEST PUSH1 0x40 MLOAD DUP1 SWAP2 SUB SWAP1 RETURN JUMPDEST PUSH2 0xEC PUSH2 0x1EE JUMP JUMPDEST PUSH1 0x40 MLOAD PUSH2 0xF9 SWAP2 SWAP1 PUSH2 0x706 JUMP JUMPDEST PUSH1 0x40 MLOAD DUP1 SWAP2 SUB SWAP1 RETURN JUMPDEST PUSH2 0x10A PUSH2 0x212 JUMP JUMPDEST PUSH1 0x40 MLOAD PUSH2 0x117 SWAP2 SWAP1 PUSH2 0x64C JUMP JUMPDEST PUSH1 0x40 MLOAD DUP1 SWAP2 SUB SWAP1 RETURN JUMPDEST PUSH2 0x128 PUSH2 0x218 JUMP JUMPDEST PUSH1 0x40 MLOAD PUSH2 0x135 SWAP2 SWAP1 PUSH2 0x706 JUMP JUMPDEST PUSH1 0x40 MLOAD DUP1 SWAP2 SUB SWAP1 RETURN JUMPDEST PUSH2 0x146 PUSH2 0x23D JUMP JUMPDEST PUSH1 0x40 MLOAD PUSH2 0x153 SWAP2 SWAP1 PUSH2 0x73F JUMP JUMPDEST PUSH1 0x40 MLOAD DUP1 SWAP2 SUB SWAP1 RETURN JUMPDEST PUSH2 0x176 PUSH1 0x4 DUP1 CALLDATASIZE SUB DUP2 ADD SWAP1 PUSH2 0x171 SWAP2 SWAP1 PUSH2 0x758 JUMP JUMPDEST PUSH2 0x262 JUMP JUMPDEST STOP JUMPDEST PUSH2 0x180 PUSH2 0x3D3 JUMP JUMPDEST PUSH1 0x40 MLOAD PUSH2 0x18D SWAP2 SWAP1 PUSH2 0x64C JUMP JUMPDEST PUSH1 0x40 MLOAD DUP1 SWAP2 SUB SWAP1 RETURN JUMPDEST PUSH2 0x1B0 PUSH1 0x4 DUP1 CALLDATASIZE SUB DUP2 ADD SWAP1 PUSH2 0x1AB SWAP2 SWAP1 PUSH2 0x796 JUMP JUMPDEST PUSH2 0x3D9 JUMP JUMPDEST STOP JUMPDEST PUSH0 DUP4 DUP4 PUSH2 0x1BF SWAP2 SWAP1 PUSH2 0x7EE JUMP JUMPDEST DUP3 DUP6 PUSH2 0x1CB SWAP2 SWAP1 PUSH2 0x821 JUMP JUMPDEST PUSH2 0x1D5 SWAP2 SWAP1 PUSH2 0x88F JUMP JUMPDEST SWAP1 POP SWAP4 SWAP3 POP POP POP JUMP JUMPDEST PUSH0 PUSH0 PUSH1 0x2 SLOAD PUSH1 0x3 SLOAD SWAP2 POP SWAP2 POP SWAP1 SWAP2 JUMP JUMPDEST PUSH0 PUSH0 SWAP1 SLOAD SWAP1 PUSH2 0x100 EXP SWAP1 DIV PUSH20 0xFFFFFFFFFFFFFFFFFFFFFFFFFFFFFFFFFFFFFFFF AND DUP2 JUMP JUMPDEST PUSH1 0x3 SLOAD DUP2 JUMP JUMPDEST PUSH1 0x1 PUSH0 SWAP1 SLOAD SWAP1 PUSH2 0x100 EXP SWAP1 DIV PUSH20 0xFFFFFFFFFFFFFFFFFFFFFFFFFFFFFFFFFFFFFFFF AND DUP2 JUMP JUMPDEST PUSH1 0x4 PUSH0 SWAP1 SLOAD SWAP1 PUSH2 0x100 EXP SWAP1 DIV PUSH20 0xFFFFFFFFFFFFFFFFFFFFFFFFFFFFFFFFFFFFFFFF AND DUP2 JUMP JUMPDEST PUSH0 PUSH0 SWAP1 SLOAD SWAP1 PUSH2 0x100 EXP SWAP1 DIV PUSH20 0xFFFFFFFFFFFFFFFFFFFFFFFFFFFFFFFFFFFFFFFF AND PUSH20 0xFFFFFFFFFFFFFFFFFFFFFFFFFFFFFFFFFFFFFFFF AND PUSH4 0x23B872DD CALLER ADDRESS DUP6 PUSH1 0x40 MLOAD DUP5 PUSH4 0xFFFFFFFF AND PUSH1 0xE0 SHL DUP2 MSTORE PUSH1 0x4 ADD PUSH2 0x2BF SWAP4 SWAP3 SWAP2 SWAP1 PUSH2 0x8BF JUMP JUMPDEST PUSH1 0x20 PUSH1 0x40 MLOAD DUP1 DUP4 SUB DUP2 PUSH0 DUP8 GAS CALL ISZERO DUP1 ISZERO PUSH2 0x2DB JUMPI RETURNDATASIZE PUSH0 PUSH0 RETURNDATACOPY RETURNDATASIZE PUSH0 REVERT JUMPDEST POP POP POP POP PUSH1 0x40 MLOAD RETURNDATASIZE PUSH1 0x1F NOT PUSH1 0x1F DUP3 ADD AND DUP3 ADD DUP1 PUSH1 0x40 MSTORE POP DUP2 ADD SWAP1 PUSH2 0x2FF SWAP2 SWAP1 PUSH2 0x929 JUMP JUMPDEST POP PUSH1 0x1 PUSH0 SWAP1 SLOAD SWAP1 PUSH2 0x100 EXP SWAP1 DIV PUSH20 0xFFFFFFFFFFFFFFFFFFFFFFFFFFFFFFFFFFFFFFFF AND PUSH20 0xFFFFFFFFFFFFFFFFFFFFFFFFFFFFFFFFFFFFFFFF AND PUSH4 0x23B872DD CALLER ADDRESS DUP5 PUSH1 0x40 MLOAD DUP5 PUSH4 0xFFFFFFFF AND PUSH1 0xE0 SHL DUP2 MSTORE PUSH1 0x4 ADD PUSH2 0x35E SWAP4 SWAP3 SWAP2 SWAP1 PUSH2 0x8BF JUMP JUMPDEST PUSH1 0x20 PUSH1 0x40 MLOAD DUP1 DUP4 SUB DUP2 PUSH0 DUP8 GAS CALL ISZERO DUP1 ISZERO PUSH2 0x37A JUMPI RETURNDATASIZE PUSH0 PUSH0 RETURNDATACOPY RETURNDATASIZE PUSH0 REVERT JUMPDEST POP POP POP POP PUSH1 0x40 MLOAD RETURNDATASIZE PUSH1 0x1F NOT PUSH1 0x1F DUP3 ADD AND DUP3 ADD DUP1 PUSH1 0x40 MSTORE POP DUP2 ADD SWAP1 PUSH2 0x39E SWAP2 SWAP1 PUSH2 0x929 JUMP JUMPDEST POP DUP2 PUSH1 0x2 PUSH0 DUP3 DUP3 SLOAD PUSH2 0x3B0 SWAP2 SWAP1 PUSH2 0x7EE JUMP JUMPDEST SWAP3 POP POP DUP2 SWAP1 SSTORE POP DUP1 PUSH1 0x3 PUSH0 DUP3 DUP3 SLOAD PUSH2 0x3C8 SWAP2 SWAP1 PUSH2 0x7EE JUMP JUMPDEST SWAP3 POP POP DUP2 SWAP1 SSTORE POP POP POP JUMP JUMPDEST PUSH1 0x2 SLOAD DUP2 JUMP JUMPDEST PUSH0 DUP2 GT DUP1 ISZERO PUSH2 0x3E9 JUMPI POP PUSH0 PUSH1 0x2 SLOAD GT JUMPDEST DUP1 ISZERO PUSH2 0x3F6 JUMPI POP PUSH0 PUSH1 0x3 SLOAD GT JUMPDEST PUSH2 0x435 JUMPI PUSH1 0x40 MLOAD PUSH32 0x8C379A000000000000000000000000000000000000000000000000000000000 DUP2 MSTORE PUSH1 0x4 ADD PUSH2 0x42C SWAP1 PUSH2 0x9AE JUMP JUMPDEST PUSH1 0x40 MLOAD DUP1 SWAP2 SUB SWAP1 REVERT JUMPDEST PUSH0 PUSH0 SWAP1 SLOAD SWAP1 PUSH2 0x100 EXP SWAP1 DIV PUSH20 0xFFFFFFFFFFFFFFFFFFFFFFFFFFFFFFFFFFFFFFFF AND PUSH20 0xFFFFFFFFFFFFFFFFFFFFFFFFFFFFFFFFFFFFFFFF AND PUSH4 0x23B872DD CALLER ADDRESS DUP5 PUSH1 0x40 MLOAD DUP5 PUSH4 0xFFFFFFFF AND PUSH1 0xE0 SHL DUP2 MSTORE PUSH1 0x4 ADD PUSH2 0x492 SWAP4 SWAP3 SWAP2 SWAP1 PUSH2 0x8BF JUMP JUMPDEST PUSH1 0x20 PUSH1 0x40 MLOAD DUP1 DUP4 SUB DUP2 PUSH0 DUP8 GAS CALL ISZERO DUP1 ISZERO PUSH2 0x4AE JUMPI RETURNDATASIZE PUSH0 PUSH0 RETURNDATACOPY RETURNDATASIZE PUSH0 REVERT JUMPDEST POP POP POP POP PUSH1 0x40 MLOAD RETURNDATASIZE PUSH1 0x1F NOT PUSH1 0x1F DUP3 ADD AND DUP3 ADD DUP1 PUSH1 0x40 MSTORE POP DUP2 ADD SWAP1 PUSH2 0x4D2 SWAP2 SWAP1 PUSH2 0x929 JUMP JUMPDEST POP PUSH0 PUSH2 0x4E3 DUP3 PUSH1 0x2 SLOAD PUSH1 0x3 SLOAD PUSH2 0x1B2 JUMP JUMPDEST SWAP1 POP PUSH1 0x1 PUSH0 SWAP1 SLOAD SWAP1 PUSH2 0x100 EXP SWAP1 DIV PUSH20 0xFFFFFFFFFFFFFFFFFFFFFFFFFFFFFFFFFFFFFFFF AND PUSH20 0xFFFFFFFFFFFFFFFFFFFFFFFFFFFFFFFFFFFFFFFF AND PUSH4 0xA9059CBB CALLER DUP4 PUSH1 0x40 MLOAD DUP4 PUSH4 0xFFFFFFFF AND PUSH1 0xE0 SHL DUP2 MSTORE PUSH1 0x4 ADD PUSH2 0x541 SWAP3 SWAP2 SWAP1 PUSH2 0x9CC JUMP JUMPDEST PUSH1 0x20 PUSH1 0x40 MLOAD DUP1 DUP4 SUB DUP2 PUSH0 DUP8 GAS CALL ISZERO DUP1 ISZERO PUSH2 0x55D JUMPI RETURNDATASIZE PUSH0 PUSH0 RETURNDATACOPY RETURNDATASIZE PUSH0 REVERT JUMPDEST POP POP POP POP PUSH1 0x40 MLOAD RETURNDATASIZE PUSH1 0x1F NOT PUSH1 0x1F DUP3 ADD AND DUP3 ADD DUP1 PUSH1 0x40 MSTORE POP DUP2 ADD SWAP1 PUSH2 0x581 SWAP2 SWAP1 PUSH2 0x929 JUMP JUMPDEST POP DUP2 PUSH1 0x2 PUSH0 DUP3 DUP3 SLOAD PUSH2 0x593 SWAP2 SWAP1 PUSH2 0x7EE JUMP JUMPDEST SWAP3 POP POP DUP2 SWAP1 SSTORE POP DUP1 PUSH1 0x3 PUSH0 DUP3 DUP3 SLOAD PUSH2 0x5AB SWAP2 SWAP1 PUSH2 0x9F3 JUMP JUMPDEST SWAP3 POP POP DUP2 SWAP1 SSTORE POP POP POP JUMP JUMPDEST PUSH0 PUSH0 REVERT JUMPDEST PUSH0 DUP2 SWAP1 POP SWAP2 SWAP1 POP JUMP JUMPDEST PUSH2 0x5CC DUP2 PUSH2 0x5BA JUMP JUMPDEST DUP2 EQ PUSH2 0x5D6 JUMPI PUSH0 PUSH0 REVERT JUMPDEST POP JUMP JUMPDEST PUSH0 DUP2 CALLDATALOAD SWAP1 POP PUSH2 0x5E7 DUP2 PUSH2 0x5C3 JUMP JUMPDEST SWAP3 SWAP2 POP POP JUMP JUMPDEST PUSH0 PUSH0 PUSH0 PUSH1 0x60 DUP5 DUP7 SUB SLT ISZERO PUSH2 0x604 JUMPI PUSH2 0x603 PUSH2 0x5B6 JUMP JUMPDEST JUMPDEST PUSH0 PUSH2 0x611 DUP7 DUP3 DUP8 ADD PUSH2 0x5D9 JUMP JUMPDEST SWAP4 POP POP PUSH1 0x20 PUSH2 0x622 DUP7 DUP3 DUP8 ADD PUSH2 0x5D9 JUMP JUMPDEST SWAP3 POP POP PUSH1 0x40 PUSH2 0x633 DUP7 DUP3 DUP8 ADD PUSH2 0x5D9 JUMP JUMPDEST SWAP2 POP POP SWAP3 POP SWAP3 POP SWAP3 JUMP JUMPDEST PUSH2 0x646 DUP2 PUSH2 0x5BA JUMP JUMPDEST DUP3 MSTORE POP POP JUMP JUMPDEST PUSH0 PUSH1 0x20 DUP3 ADD SWAP1 POP PUSH2 0x65F PUSH0 DUP4 ADD DUP5 PUSH2 0x63D JUMP JUMPDEST SWAP3 SWAP2 POP POP JUMP JUMPDEST PUSH0 PUSH1 0x40 DUP3 ADD SWAP1 POP PUSH2 0x678 PUSH0 DUP4 ADD DUP6 PUSH2 0x63D JUMP JUMPDEST PUSH2 0x685 PUSH1 0x20 DUP4 ADD DUP5 PUSH2 0x63D JUMP JUMPDEST SWAP4 SWAP3 POP POP POP JUMP JUMPDEST PUSH0 PUSH20 0xFFFFFFFFFFFFFFFFFFFFFFFFFFFFFFFFFFFFFFFF DUP3 AND SWAP1 POP SWAP2 SWAP1 POP JUMP JUMPDEST PUSH0 DUP2 SWAP1 POP SWAP2 SWAP1 POP JUMP JUMPDEST PUSH0 PUSH2 0x6CE PUSH2 0x6C9 PUSH2 0x6C4 DUP5 PUSH2 0x68C JUMP JUMPDEST PUSH2 0x6AB JUMP JUMPDEST PUSH2 0x68C JUMP JUMPDEST SWAP1 POP SWAP2 SWAP1 POP JUMP JUMPDEST PUSH0 PUSH2 0x6DF DUP3 PUSH2 0x6B4 JUMP JUMPDEST SWAP1 POP SWAP2 SWAP1 POP JUMP JUMPDEST PUSH0 PUSH2 0x6F0 DUP3 PUSH2 0x6D5 JUMP JUMPDEST SWAP1 POP SWAP2 SWAP1 POP JUMP JUMPDEST PUSH2 0x700 DUP2 PUSH2 0x6E6 JUMP JUMPDEST DUP3 MSTORE POP POP JUMP JUMPDEST PUSH0 PUSH1 0x20 DUP3 ADD SWAP1 POP PUSH2 0x719 PUSH0 DUP4 ADD DUP5 PUSH2 0x6F7 JUMP JUMPDEST SWAP3 SWAP2 POP POP JUMP JUMPDEST PUSH0 PUSH2 0x729 DUP3 PUSH2 0x68C JUMP JUMPDEST SWAP1 POP SWAP2 SWAP1 POP JUMP JUMPDEST PUSH2 0x739 DUP2 PUSH2 0x71F JUMP JUMPDEST DUP3 MSTORE POP POP JUMP JUMPDEST PUSH0 PUSH1 0x20 DUP3 ADD SWAP1 POP PUSH2 0x752 PUSH0 DUP4 ADD DUP5 PUSH2 0x730 JUMP JUMPDEST SWAP3 SWAP2 POP POP JUMP JUMPDEST PUSH0 PUSH0 PUSH1 0x40 DUP4 DUP6 SUB SLT ISZERO PUSH2 0x76E JUMPI PUSH2 0x76D PUSH2 0x5B6 JUMP JUMPDEST JUMPDEST PUSH0 PUSH2 0x77B DUP6 DUP3 DUP7 ADD PUSH2 0x5D9 JUMP JUMPDEST SWAP3 POP POP PUSH1 0x20 PUSH2 0x78C DUP6 DUP3 DUP7 ADD PUSH2 0x5D9 JUMP JUMPDEST SWAP2 POP POP SWAP3 POP SWAP3 SWAP1 POP JUMP JUMPDEST PUSH0 PUSH1 0x20 DUP3 DUP5 SUB SLT ISZERO PUSH2 0x7AB JUMPI PUSH2 0x7AA PUSH2 0x5B6 JUMP JUMPDEST JUMPDEST PUSH0 PUSH2 0x7B8 DUP5 DUP3 DUP6 ADD PUSH2 0x5D9 JUMP JUMPDEST SWAP2 POP POP SWAP3 SWAP2 POP POP JUMP JUMPDEST PUSH32 0x4E487B7100000000000000000000000000000000000000000000000000000000 PUSH0 MSTORE PUSH1 0x11 PUSH1 0x4 MSTORE PUSH1 0x24 PUSH0 REVERT JUMPDEST PUSH0 PUSH2 0x7F8 DUP3 PUSH2 0x5BA JUMP JUMPDEST SWAP2 POP PUSH2 0x803 DUP4 PUSH2 0x5BA JUMP JUMPDEST SWAP3 POP DUP3 DUP3 ADD SWAP1 POP DUP1 DUP3 GT ISZERO PUSH2 0x81B JUMPI PUSH2 0x81A PUSH2 0x7C1 JUMP JUMPDEST JUMPDEST SWAP3 SWAP2 POP POP JUMP JUMPDEST PUSH0 PUSH2 0x82B DUP3 PUSH2 0x5BA JUMP JUMPDEST SWAP2 POP PUSH2 0x836 DUP4 PUSH2 0x5BA JUMP JUMPDEST SWAP3 POP DUP3 DUP3 MUL PUSH2 0x844 DUP2 PUSH2 0x5BA JUMP JUMPDEST SWAP2 POP DUP3 DUP3 DIV DUP5 EQ DUP4 ISZERO OR PUSH2 0x85B JUMPI PUSH2 0x85A PUSH2 0x7C1 JUMP JUMPDEST JUMPDEST POP SWAP3 SWAP2 POP POP JUMP JUMPDEST PUSH32 0x4E487B7100000000000000000000000000000000000000000000000000000000 PUSH0 MSTORE PUSH1 0x12 PUSH1 0x4 MSTORE PUSH1 0x24 PUSH0 REVERT JUMPDEST PUSH0 PUSH2 0x899 DUP3 PUSH2 0x5BA JUMP JUMPDEST SWAP2 POP PUSH2 0x8A4 DUP4 PUSH2 0x5BA JUMP JUMPDEST SWAP3 POP DUP3 PUSH2 0x8B4 JUMPI PUSH2 0x8B3 PUSH2 0x862 JUMP JUMPDEST JUMPDEST DUP3 DUP3 DIV SWAP1 POP SWAP3 SWAP2 POP POP JUMP JUMPDEST PUSH0 PUSH1 0x60 DUP3 ADD SWAP1 POP PUSH2 0x8D2 PUSH0 DUP4 ADD DUP7 PUSH2 0x730 JUMP JUMPDEST PUSH2 0x8DF PUSH1 0x20 DUP4 ADD DUP6 PUSH2 0x730 JUMP JUMPDEST PUSH2 0x8EC PUSH1 0x40 DUP4 ADD DUP5 PUSH2 0x63D JUMP JUMPDEST SWAP5 SWAP4 POP POP POP POP JUMP JUMPDEST PUSH0 DUP2 ISZERO ISZERO SWAP1 POP SWAP2 SWAP1 POP JUMP JUMPDEST PUSH2 0x908 DUP2 PUSH2 0x8F4 JUMP JUMPDEST DUP2 EQ PUSH2 0x912 JUMPI PUSH0 PUSH0 REVERT JUMPDEST POP JUMP JUMPDEST PUSH0 DUP2 MLOAD SWAP1 POP PUSH2 0x923 DUP2 PUSH2 0x8FF JUMP JUMPDEST SWAP3 SWAP2 POP POP JUMP JUMPDEST PUSH0 PUSH1 0x20 DUP3 DUP5 SUB SLT ISZERO PUSH2 0x93E JUMPI PUSH2 0x93D PUSH2 0x5B6 JUMP JUMPDEST JUMPDEST PUSH0 PUSH2 0x94B DUP5 DUP3 DUP6 ADD PUSH2 0x915 JUMP JUMPDEST SWAP2 POP POP SWAP3 SWAP2 POP POP JUMP JUMPDEST PUSH0 DUP3 DUP3 MSTORE PUSH1 0x20 DUP3 ADD SWAP1 POP SWAP3 SWAP2 POP POP JUMP JUMPDEST PUSH32 0x496E76616C696420737761700000000000000000000000000000000000000000 PUSH0 DUP3 ADD MSTORE POP JUMP JUMPDEST PUSH0 PUSH2 0x998 PUSH1 0xC DUP4 PUSH2 0x954 JUMP JUMPDEST SWAP2 POP PUSH2 0x9A3 DUP3 PUSH2 0x964 JUMP JUMPDEST PUSH1 0x20 DUP3 ADD SWAP1 POP SWAP2 SWAP1 POP JUMP JUMPDEST PUSH0 PUSH1 0x20 DUP3 ADD SWAP1 POP DUP2 DUP2 SUB PUSH0 DUP4 ADD MSTORE PUSH2 0x9C5 DUP2 PUSH2 0x98C JUMP JUMPDEST SWAP1 POP SWAP2 SWAP1 POP JUMP JUMPDEST PUSH0 PUSH1 0x40 DUP3 ADD SWAP1 POP PUSH2 0x9DF PUSH0 DUP4 ADD DUP6 PUSH2 0x730 JUMP JUMPDEST PUSH2 0x9EC PUSH1 0x20 DUP4 ADD DUP5 PUSH2 0x63D JUMP JUMPDEST SWAP4 SWAP3 POP POP POP JUMP JUMPDEST PUSH0 PUSH2 0x9FD DUP3 PUSH2 0x5BA JUMP JUMPDEST SWAP2 POP PUSH2 0xA08 DUP4 PUSH2 0x5BA JUMP JUMPDEST SWAP3 POP DUP3 DUP3 SUB SWAP1 POP DUP2 DUP2 GT ISZERO PUSH2 0xA20 JUMPI PUSH2 0xA1F PUSH2 0x7C1 JUMP JUMPDEST JUMPDEST SWAP3 SWAP2 POP POP JUMP INVALID LOG2 PUSH5 0x6970667358 0x22 SLT KECCAK256 DUP14 0x2D DUP2 0xB6 RETURNDATASIZE 0x28 PUSH8 0x753742958C6E81B9 SWAP2 0xBD CODESIZE 0xB2 BLOBHASH PUSH12 0xF6BC973965D352AA70E64A64 PUSH20 0x6F6C634300081D00330000000000000000000000 "
		},
		"gasEstimates": {
			"creation": {
				"codeDepositCost": "530400",
				"executionCost": "infinite",
				"totalCost": "infinite"
			},
			"external": {
				"addLiquidity(uint256,uint256)": "infinite",
				"getAmountOut(uint256,uint256,uint256)": "infinite",
				"getReserves()": "infinite",
				"owner()": "2530",
				"reserveA()": "2491",
				"reserveB()": "2492",
				"swapAforB(uint256)": "infinite",
				"tokenA()": "infinite",
				"tokenB()": "infinite"
			}
		},
		"methodIdentifiers": {
			"addLiquidity(uint256,uint256)": "9cd441da",
			"getAmountOut(uint256,uint256,uint256)": "054d50d4",
			"getReserves()": "0902f1ac",
			"owner()": "8da5cb5b",
			"reserveA()": "dc5fa6c5",
			"reserveB()": "19e36f3b",
			"swapAforB(uint256)": "e4f1f70a",
			"tokenA()": "0fc63d10",
			"tokenB()": "5f64b55b"
		}
	},
	"abi": [
		{
			"inputs": [
				{
					"internalType": "address",
					"name": "_tokenA",
					"type": "address"
				},
				{
					"internalType": "address",
					"name": "_tokenB",
					"type": "address"
				}
			],
			"stateMutability": "nonpayable",
			"type": "constructor"
		},
		{
			"inputs": [
				{
					"internalType": "uint256",
					"name": "amountA",
					"type": "uint256"
				},
				{
					"internalType": "uint256",
					"name": "amountB",
					"type": "uint256"
				}
			],
			"name": "addLiquidity",
			"outputs": [],
			"stateMutability": "nonpayable",
			"type": "function"
		},
		{
			"inputs": [
				{
					"internalType": "uint256",
					"name": "amountIn",
					"type": "uint256"
				},
				{
					"internalType": "uint256",
					"name": "inputReserve",
					"type": "uint256"
				},
				{
					"internalType": "uint256",
					"name": "outputReserve",
					"type": "uint256"
				}
			],
			"name": "getAmountOut",
			"outputs": [
				{
					"internalType": "uint256",
					"name": "",
					"type": "uint256"
				}
			],
			"stateMutability": "pure",
			"type": "function"
		},
		{
			"inputs": [],
			"name": "getReserves",
			"outputs": [
				{
					"internalType": "uint256",
					"name": "a",
					"type": "uint256"
				},
				{
					"internalType": "uint256",
					"name": "b",
					"type": "uint256"
				}
			],
			"stateMutability": "view",
			"type": "function"
		},
		{
			"inputs": [],
			"name": "owner",
			"outputs": [
				{
					"internalType": "address",
					"name": "",
					"type": "address"
				}
			],
			"stateMutability": "view",
			"type": "function"
		},
		{
			"inputs": [],
			"name": "reserveA",
			"outputs": [
				{
					"internalType": "uint256",
					"name": "",
					"type": "uint256"
				}
			],
			"stateMutability": "view",
			"type": "function"
		},
		{
			"inputs": [],
			"name": "reserveB",
			"outputs": [
				{
					"internalType": "uint256",
					"name": "",
					"type": "uint256"
				}
			],
			"stateMutability": "view",
			"type": "function"
		},
		{
			"inputs": [
				{
					"internalType": "uint256",
					"name": "amountIn",
					"type": "uint256"
				}
			],
			"name": "swapAforB",
			"outputs": [],
			"stateMutability": "nonpayable",
			"type": "function"
		},
		{
			"inputs": [],
			"name": "tokenA",
			"outputs": [
				{
					"internalType": "contract IERC20",
					"name": "",
					"type": "address"
				}
			],
			"stateMutability": "view",
			"type": "function"
		},
		{
			"inputs": [],
			"name": "tokenB",
			"outputs": [
				{
					"internalType": "contract IERC20",
					"name": "",
					"type": "address"
				}
			],
			"stateMutability": "view",
			"type": "function"
		}
	]
}