{
	"data": {
		"bytecode": {
			"linkReferences": {},
			"object": "6080604052348015600e575f5ffd5b5061034f8061001c5f395ff3fe608060405234801561000f575f5ffd5b5060043610610029575f3560e01c806364246e961461002d575b5f5ffd5b610047600480360381019061004291906101bf565b610049565b005b8773ffffffffffffffffffffffffffffffffffffffff1663d505accf888888888888886040518863ffffffff1660e01b815260040161008e97969594939291906102ac565b5f604051808303815f87803b1580156100a5575f5ffd5b505af11580156100b7573d5f5f3e3d5ffd5b505050505050505050505050565b5f5ffd5b5f73ffffffffffffffffffffffffffffffffffffffff82169050919050565b5f6100f2826100c9565b9050919050565b610102816100e8565b811461010c575f5ffd5b50565b5f8135905061011d816100f9565b92915050565b5f819050919050565b61013581610123565b811461013f575f5ffd5b50565b5f813590506101508161012c565b92915050565b5f60ff82169050919050565b61016b81610156565b8114610175575f5ffd5b50565b5f8135905061018681610162565b92915050565b5f819050919050565b61019e8161018c565b81146101a8575f5ffd5b50565b5f813590506101b981610195565b92915050565b5f5f5f5f5f5f5f5f610100898b0312156101dc576101db6100c5565b5b5f6101e98b828c0161010f565b98505060206101fa8b828c0161010f565b975050604061020b8b828c0161010f565b965050606061021c8b828c01610142565b955050608061022d8b828c01610142565b94505060a061023e8b828c01610178565b93505060c061024f8b828c016101ab565b92505060e06102608b828c016101ab565b9150509295985092959890939650565b610279816100e8565b82525050565b61028881610123565b82525050565b61029781610156565b82525050565b6102a68161018c565b82525050565b5f60e0820190506102bf5f83018a610270565b6102cc6020830189610270565b6102d9604083018861027f565b6102e6606083018761027f565b6102f3608083018661028e565b61030060a083018561029d565b61030d60c083018461029d565b9897505050505050505056fea264697066735822122034eab3d676f92f129c4d27a13a44cc24b58d915c1d14e45990a05a726edca6f264736f6c634300081d0033",
			"opcodes": "PUSH1 0x80 PUSH1 0x40 MSTORE CALLVALUE DUP1 ISZERO PUSH1 0xE JUMPI PUSH0 PUSH0 REVERT JUMPDEST POP PUSH2 0x34F DUP1 PUSH2 0x1C PUSH0 CODECOPY PUSH0 RETURN INVALID PUSH1 0x80 PUSH1 0x40 MSTORE CALLVALUE DUP1 ISZERO PUSH2 0xF JUMPI PUSH0 PUSH0 REVERT JUMPDEST POP PUSH1 0x4 CALLDATASIZE LT PUSH2 0x29 JUMPI PUSH0 CALLDATALOAD PUSH1 0xE0 SHR DUP1 PUSH4 0x64246E96 EQ PUSH2 0x2D JUMPI JUMPDEST PUSH0 PUSH0 REVERT JUMPDEST PUSH2 0x47 PUSH1 0x4 DUP1 CALLDATASIZE SUB DUP2 ADD SWAP1 PUSH2 0x42 SWAP2 SWAP1 PUSH2 0x1BF JUMP JUMPDEST PUSH2 0x49 JUMP JUMPDEST STOP JUMPDEST DUP8 PUSH20 0xFFFFFFFFFFFFFFFFFFFFFFFFFFFFFFFFFFFFFFFF AND PUSH4 0xD505ACCF DUP9 DUP9 DUP9 DUP9 DUP9 DUP9 DUP9 PUSH1 0x40 MLOAD DUP9 PUSH4 0xFFFFFFFF AND PUSH1 0xE0 SHL DUP2 MSTORE PUSH1 0x4 ADD PUSH2 0x8E SWAP8 SWAP7 SWAP6 SWAP5 SWAP4 SWAP3 SWAP2 SWAP1 PUSH2 0x2AC JUMP JUMPDEST PUSH0 PUSH1 0x40 MLOAD DUP1 DUP4 SUB DUP2 PUSH0 DUP8 DUP1 EXTCODESIZE ISZERO DUP1 ISZERO PUSH2 0xA5 JUMPI PUSH0 PUSH0 REVERT JUMPDEST POP GAS CALL ISZERO DUP1 ISZERO PUSH2 0xB7 JUMPI RETURNDATASIZE PUSH0 PUSH0 RETURNDATACOPY RETURNDATASIZE PUSH0 REVERT JUMPDEST POP POP POP POP POP POP POP POP POP POP POP POP JUMP JUMPDEST PUSH0 PUSH0 REVERT JUMPDEST PUSH0 PUSH20 0xFFFFFFFFFFFFFFFFFFFFFFFFFFFFFFFFFFFFFFFF DUP3 AND SWAP1 POP SWAP2 SWAP1 POP JUMP JUMPDEST PUSH0 PUSH2 0xF2 DUP3 PUSH2 0xC9 JUMP JUMPDEST SWAP1 POP SWAP2 SWAP1 POP JUMP JUMPDEST PUSH2 0x102 DUP2 PUSH2 0xE8 JUMP JUMPDEST DUP2 EQ PUSH2 0x10C JUMPI PUSH0 PUSH0 REVERT JUMPDEST POP JUMP JUMPDEST PUSH0 DUP2 CALLDATALOAD SWAP1 POP PUSH2 0x11D DUP2 PUSH2 0xF9 JUMP JUMPDEST SWAP3 SWAP2 POP POP JUMP JUMPDEST PUSH0 DUP2 SWAP1 POP SWAP2 SWAP1 POP JUMP JUMPDEST PUSH2 0x135 DUP2 PUSH2 0x123 JUMP JUMPDEST DUP2 EQ PUSH2 0x13F JUMPI PUSH0 PUSH0 REVERT JUMPDEST POP JUMP JUMPDEST PUSH0 DUP2 CALLDATALOAD SWAP1 POP PUSH2 0x150 DUP2 PUSH2 0x12C JUMP JUMPDEST SWAP3 SWAP2 POP POP JUMP JUMPDEST PUSH0 PUSH1 0xFF DUP3 AND SWAP1 POP SWAP2 SWAP1 POP JUMP JUMPDEST PUSH2 0x16B DUP2 PUSH2 0x156 JUMP JUMPDEST DUP2 EQ PUSH2 0x175 JUMPI PUSH0 PUSH0 REVERT JUMPDEST POP JUMP JUMPDEST PUSH0 DUP2 CALLDATALOAD SWAP1 POP PUSH2 0x186 DUP2 PUSH2 0x162 JUMP JUMPDEST SWAP3 SWAP2 POP POP JUMP JUMPDEST PUSH0 DUP2 SWAP1 POP SWAP2 SWAP1 POP JUMP JUMPDEST PUSH2 0x19E DUP2 PUSH2 0x18C JUMP JUMPDEST DUP2 EQ PUSH2 0x1A8 JUMPI PUSH0 PUSH0 REVERT JUMPDEST POP JUMP JUMPDEST PUSH0 DUP2 CALLDATALOAD SWAP1 POP PUSH2 0x1B9 DUP2 PUSH2 0x195 JUMP JUMPDEST SWAP3 SWAP2 POP POP JUMP JUMPDEST PUSH0 PUSH0 PUSH0 PUSH0 PUSH0 PUSH0 PUSH0 PUSH0 PUSH2 0x100 DUP10 DUP12 SUB SLT ISZERO PUSH2 0x1DC JUMPI PUSH2 0x1DB PUSH2 0xC5 JUMP JUMPDEST JUMPDEST PUSH0 PUSH2 0x1E9 DUP12 DUP3 DUP13 ADD PUSH2 0x10F JUMP JUMPDEST SWAP9 POP POP PUSH1 0x20 PUSH2 0x1FA DUP12 DUP3 DUP13 ADD PUSH2 0x10F JUMP JUMPDEST SWAP8 POP POP PUSH1 0x40 PUSH2 0x20B DUP12 DUP3 DUP13 ADD PUSH2 0x10F JUMP JUMPDEST SWAP7 POP POP PUSH1 0x60 PUSH2 0x21C DUP12 DUP3 DUP13 ADD PUSH2 0x142 JUMP JUMPDEST SWAP6 POP POP PUSH1 0x80 PUSH2 0x22D DUP12 DUP3 DUP13 ADD PUSH2 0x142 JUMP JUMPDEST SWAP5 POP POP PUSH1 0xA0 PUSH2 0x23E DUP12 DUP3 DUP13 ADD PUSH2 0x178 JUMP JUMPDEST SWAP4 POP POP PUSH1 0xC0 PUSH2 0x24F DUP12 DUP3 DUP13 ADD PUSH2 0x1AB JUMP JUMPDEST SWAP3 POP POP PUSH1 0xE0 PUSH2 0x260 DUP12 DUP3 DUP13 ADD PUSH2 0x1AB JUMP JUMPDEST SWAP2 POP POP SWAP3 SWAP6 SWAP9 POP SWAP3 SWAP6 SWAP9 SWAP1 SWAP4 SWAP7 POP JUMP JUMPDEST PUSH2 0x279 DUP2 PUSH2 0xE8 JUMP JUMPDEST DUP3 MSTORE POP POP JUMP JUMPDEST PUSH2 0x288 DUP2 PUSH2 0x123 JUMP JUMPDEST DUP3 MSTORE POP POP JUMP JUMPDEST PUSH2 0x297 DUP2 PUSH2 0x156 JUMP JUMPDEST DUP3 MSTORE POP POP JUMP JUMPDEST PUSH2 0x2A6 DUP2 PUSH2 0x18C JUMP JUMPDEST DUP3 MSTORE POP POP JUMP JUMPDEST PUSH0 PUSH1 0xE0 DUP3 ADD SWAP1 POP PUSH2 0x2BF PUSH0 DUP4 ADD DUP11 PUSH2 0x270 JUMP JUMPDEST PUSH2 0x2CC PUSH1 0x20 DUP4 ADD DUP10 PUSH2 0x270 JUMP JUMPDEST PUSH2 0x2D9 PUSH1 0x40 DUP4 ADD DUP9 PUSH2 0x27F JUMP JUMPDEST PUSH2 0x2E6 PUSH1 0x60 DUP4 ADD DUP8 PUSH2 0x27F JUMP JUMPDEST PUSH2 0x2F3 PUSH1 0x80 DUP4 ADD DUP7 PUSH2 0x28E JUMP JUMPDEST PUSH2 0x300 PUSH1 0xA0 DUP4 ADD DUP6 PUSH2 0x29D JUMP JUMPDEST PUSH2 0x30D PUSH1 0xC0 DUP4 ADD DUP5 PUSH2 0x29D JUMP JUMPDEST SWAP9 SWAP8 POP POP POP POP POP POP POP POP JUMP INVALID LOG2 PUSH5 0x6970667358 0x22 SLT KECCAK256 CALLVALUE 0xEA 0xB3 0xD6 PUSH23 0xF92F129C4D27A13A44CC24B58D915C1D14E45990A05A72 PUSH15 0xDCA6F264736F6C634300081D003300 "
		},
		"gasEstimates": {
			"creation": {
				"codeDepositCost": "169400",
				"executionCost": "212",
				"totalCost": "169612"
			},
			"external": {
				"permitApprove(address,address,address,uint256,uint256,uint8,bytes32,bytes32)": "infinite"
			}
		},
		"methodIdentifiers": {
			"permitApprove(address,address,address,uint256,uint256,uint8,bytes32,bytes32)": "64246e96"
		}
	},
	"abi": [
		{
			"inputs": [
				{
					"internalType": "address",
					"name": "token",
					"type": "address"
				},
				{
					"internalType": "address",
					"name": "owner",
					"type": "address"
				},
				{
					"internalType": "address",
					"name": "spender",
					"type": "address"
				},
				{
					"internalType": "uint256",
					"name": "value",
					"type": "uint256"
				},
				{
					"internalType": "uint256",
					"name": "deadline",
					"type": "uint256"
				},
				{
					"internalType": "uint8",
					"name": "v",
					"type": "uint8"
				},
				{
					"internalType": "bytes32",
					"name": "r",
					"type": "bytes32"
				},
				{
					"internalType": "bytes32",
					"name": "s",
					"type": "bytes32"
				}
			],
			"name": "permitApprove",
			"outputs": [],
			"stateMutability": "nonpayable",
			"type": "function"
		}
	]
}